{
	"contracts/ddddd.sol": {
		"ddddd": {
			"abi": [
				{
					"constant": true,
					"inputs": [],
					"name": "getUsers",
					"outputs": [
						{
							"name": "",
							"type": "address[]"
						}
					],
					"payable": false,
					"stateMutability": "view",
					"type": "function"
				},
				{
					"constant": true,
					"inputs": [],
					"name": "getUserPermissionCounter",
					"outputs": [
						{
							"name": "",
							"type": "uint256"
						}
					],
					"payable": false,
					"stateMutability": "view",
					"type": "function"
				},
				{
					"constant": true,
					"inputs": [
						{
							"name": "_address",
							"type": "address"
						}
					],
					"name": "searchUserformation",
					"outputs": [
						{
							"name": "",
							"type": "string"
						},
						{
							"name": "",
							"type": "string"
						},
						{
							"name": "",
							"type": "string"
						},
						{
							"name": "",
							"type": "string"
						},
						{
							"name": "",
							"type": "string"
						},
						{
							"name": "",
							"type": "string"
						},
						{
							"name": "",
							"type": "address"
						}
					],
					"payable": false,
					"stateMutability": "view",
					"type": "function"
				},
				{
					"constant": true,
					"inputs": [],
					"name": "userCount",
					"outputs": [
						{
							"name": "",
							"type": "uint256"
						}
					],
					"payable": false,
					"stateMutability": "view",
					"type": "function"
				},
				{
					"constant": true,
					"inputs": [
						{
							"name": "",
							"type": "uint256"
						}
					],
					"name": "doctorList",
					"outputs": [
						{
							"name": "",
							"type": "address"
						}
					],
					"payable": false,
					"stateMutability": "view",
					"type": "function"
				},
				{
					"constant": false,
					"inputs": [
						{
							"name": "_doctor",
							"type": "address"
						},
						{
							"name": "_uaeId",
							"type": "string"
						},
						{
							"name": "_name",
							"type": "string"
						},
						{
							"name": "_phone",
							"type": "string"
						},
						{
							"name": "_gender",
							"type": "string"
						},
						{
							"name": "_dob",
							"type": "string"
						},
						{
							"name": "_qualification",
							"type": "string"
						},
						{
							"name": "_major",
							"type": "string"
						}
					],
					"name": "editDoctor",
					"outputs": [],
					"payable": false,
					"stateMutability": "nonpayable",
					"type": "function"
				},
				{
					"constant": false,
					"inputs": [
						{
							"name": "_doctor",
							"type": "address"
						},
						{
							"name": "_uaeId",
							"type": "string"
						},
						{
							"name": "_name",
							"type": "string"
						},
						{
							"name": "_phone",
							"type": "string"
						},
						{
							"name": "_gender",
							"type": "string"
						},
						{
							"name": "_dob",
							"type": "string"
						},
						{
							"name": "_qualification",
							"type": "string"
						},
						{
							"name": "_major",
							"type": "string"
						}
					],
					"name": "doctorRegistration",
					"outputs": [],
					"payable": false,
					"stateMutability": "nonpayable",
					"type": "function"
				},
				{
					"constant": false,
					"inputs": [
						{
							"name": "_address",
							"type": "address"
						}
					],
					"name": "givePermissionByUser",
					"outputs": [
						{
							"name": "success",
							"type": "bool"
						}
					],
					"payable": false,
					"stateMutability": "nonpayable",
					"type": "function"
				},
				{
					"constant": false,
					"inputs": [
						{
							"name": "_address",
							"type": "address"
						}
					],
					"name": "userRevokePermission",
					"outputs": [
						{
							"name": "success",
							"type": "bool"
						}
					],
					"payable": false,
					"stateMutability": "nonpayable",
					"type": "function"
				},
				{
					"constant": false,
					"inputs": [
						{
							"name": "_user",
							"type": "address"
						},
						{
							"name": "_uaeId",
							"type": "string"
						},
						{
							"name": "_name",
							"type": "string"
						},
						{
							"name": "_phone",
							"type": "string"
						},
						{
							"name": "_gender",
							"type": "string"
						},
						{
							"name": "_dob",
							"type": "string"
						},
						{
							"name": "_addr",
							"type": "string"
						},
						{
							"name": "_email",
							"type": "string"
						},
						{
							"name": "_nomineeName",
							"type": "string"
						},
						{
							"name": "_nomineeContact",
							"type": "string"
						}
					],
					"name": "userRegistration",
					"outputs": [],
					"payable": false,
					"stateMutability": "nonpayable",
					"type": "function"
				},
				{
					"constant": false,
					"inputs": [
						{
							"name": "_user",
							"type": "address"
						},
						{
							"name": "_uaeId",
							"type": "string"
						},
						{
							"name": "_name",
							"type": "string"
						},
						{
							"name": "_phone",
							"type": "string"
						},
						{
							"name": "_gender",
							"type": "string"
						},
						{
							"name": "_dob",
							"type": "string"
						},
						{
							"name": "_addr",
							"type": "string"
						},
						{
							"name": "_email",
							"type": "string"
						},
						{
							"name": "_nomineeName",
							"type": "string"
						},
						{
							"name": "_nomineeContact",
							"type": "string"
						}
					],
					"name": "editUser",
					"outputs": [],
					"payable": false,
					"stateMutability": "nonpayable",
					"type": "function"
				},
				{
					"constant": true,
					"inputs": [],
					"name": "doctorCount",
					"outputs": [
						{
							"name": "",
							"type": "uint256"
						}
					],
					"payable": false,
					"stateMutability": "view",
					"type": "function"
				},
				{
					"constant": true,
					"inputs": [],
					"name": "getDoctorCount",
					"outputs": [
						{
							"name": "",
							"type": "uint256"
						}
					],
					"payable": false,
					"stateMutability": "view",
					"type": "function"
				},
				{
					"constant": true,
					"inputs": [],
					"name": "owner",
					"outputs": [
						{
							"name": "",
							"type": "address"
						}
					],
					"payable": false,
					"stateMutability": "view",
					"type": "function"
				},
				{
					"constant": false,
					"inputs": [],
					"name": "ownerAddress",
					"outputs": [
						{
							"name": "",
							"type": "address"
						}
					],
					"payable": false,
					"stateMutability": "nonpayable",
					"type": "function"
				},
				{
					"constant": true,
					"inputs": [],
					"name": "MoHPermissionCounter",
					"outputs": [
						{
							"name": "",
							"type": "uint256"
						}
					],
					"payable": false,
					"stateMutability": "view",
					"type": "function"
				},
				{
					"constant": true,
					"inputs": [
						{
							"name": "",
							"type": "uint256"
						}
					],
					"name": "userList",
					"outputs": [
						{
							"name": "",
							"type": "address"
						}
					],
					"payable": false,
					"stateMutability": "view",
					"type": "function"
				},
				{
					"constant": true,
					"inputs": [],
					"name": "getDoctors",
					"outputs": [
						{
							"name": "",
							"type": "address[]"
						}
					],
					"payable": false,
					"stateMutability": "view",
					"type": "function"
				},
				{
					"constant": true,
					"inputs": [],
					"name": "getUserCount",
					"outputs": [
						{
							"name": "",
							"type": "uint256"
						}
					],
					"payable": false,
					"stateMutability": "view",
					"type": "function"
				},
				{
					"constant": true,
					"inputs": [],
					"name": "mohAdress",
					"outputs": [
						{
							"name": "",
							"type": "address"
						}
					],
					"payable": false,
					"stateMutability": "view",
					"type": "function"
				},
				{
					"constant": false,
					"inputs": [
						{
							"name": "_address1",
							"type": "address"
						},
						{
							"name": "_address2",
							"type": "address"
						}
					],
					"name": "MoHRevokePermission",
					"outputs": [
						{
							"name": "success",
							"type": "bool"
						}
					],
					"payable": false,
					"stateMutability": "nonpayable",
					"type": "function"
				},
				{
					"constant": true,
					"inputs": [],
					"name": "userPermissionCounter",
					"outputs": [
						{
							"name": "",
							"type": "uint256"
						}
					],
					"payable": false,
					"stateMutability": "view",
					"type": "function"
				},
				{
					"constant": true,
					"inputs": [
						{
							"name": "_address",
							"type": "address"
						}
					],
					"name": "searchDoctor",
					"outputs": [
						{
							"name": "",
							"type": "string"
						},
						{
							"name": "",
							"type": "string"
						},
						{
							"name": "",
							"type": "string"
						},
						{
							"name": "",
							"type": "string"
						},
						{
							"name": "",
							"type": "string"
						},
						{
							"name": "",
							"type": "string"
						},
						{
							"name": "",
							"type": "string"
						}
					],
					"payable": false,
					"stateMutability": "view",
					"type": "function"
				},
				{
					"constant": false,
					"inputs": [
						{
							"name": "_address1",
							"type": "address"
						},
						{
							"name": "_address2",
							"type": "address"
						}
					],
					"name": "givePermissionByMoH",
					"outputs": [
						{
							"name": "success",
							"type": "bool"
						}
					],
					"payable": false,
					"stateMutability": "nonpayable",
					"type": "function"
				},
				{
					"constant": true,
					"inputs": [],
					"name": "getMoHPermissionCounter",
					"outputs": [
						{
							"name": "",
							"type": "uint256"
						}
					],
					"payable": false,
					"stateMutability": "view",
					"type": "function"
				}
			],
			"devdoc": {
				"methods": {}
			},
			"evm": {
				"assembly": "    /* \"contracts/ddddd.sol\":89:8219  contract ddddd {\r... */\n  mstore(0x40, 0x80)\n    /* \"contracts/ddddd.sol\":1538:1539  0 */\n  0x0\n    /* \"contracts/ddddd.sol\":1511:1539  uint256 public userCount = 0 */\n  0x8\n  sstore\n    /* \"contracts/ddddd.sol\":1575:1576  0 */\n  0x0\n    /* \"contracts/ddddd.sol\":1546:1576  uint256 public doctorCount = 0 */\n  0x9\n  sstore\n    /* \"contracts/ddddd.sol\":1621:1622  0 */\n  0x0\n    /* \"contracts/ddddd.sol\":1583:1622  uint256 public MoHPermissionCounter = 0 */\n  0xa\n  sstore\n    /* \"contracts/ddddd.sol\":1668:1669  0 */\n  0x0\n    /* \"contracts/ddddd.sol\":1629:1669  uint256 public userPermissionCounter = 0 */\n  0xb\n  sstore\n    /* \"contracts/ddddd.sol\":1758:1800  0xc50C6297f56b033633C30354A854b074749cd2dC */\n  0xc50c6297f56b033633c30354a854b074749cd2dc\n    /* \"contracts/ddddd.sol\":1731:1800  address public mohAdress = 0xc50C6297f56b033633C30354A854b074749cd2dC */\n  0xc\n  exp(0x100, 0x0)\n  dup2\n  sload\n  dup2\n  0xffffffffffffffffffffffffffffffffffffffff\n  mul\n  not\n  and\n  swap1\n  dup4\n  0xffffffffffffffffffffffffffffffffffffffff\n  and\n  mul\n  or\n  swap1\n  sstore\n  pop\n    /* \"contracts/ddddd.sol\":89:8219  contract ddddd {\r... */\n  callvalue\n    /* \"--CODEGEN--\":8:17   */\n  dup1\n    /* \"--CODEGEN--\":5:7   */\n  iszero\n  tag_1\n  jumpi\n    /* \"--CODEGEN--\":30:31   */\n  0x0\n    /* \"--CODEGEN--\":27:28   */\n  dup1\n    /* \"--CODEGEN--\":20:32   */\n  revert\n    /* \"--CODEGEN--\":5:7   */\ntag_1:\n    /* \"contracts/ddddd.sol\":89:8219  contract ddddd {\r... */\n  pop\n  dataSize(sub_0)\n  dup1\n  dataOffset(sub_0)\n  0x0\n  codecopy\n  0x0\n  return\nstop\n\nsub_0: assembly {\n        /* \"contracts/ddddd.sol\":89:8219  contract ddddd {\r... */\n      mstore(0x40, 0x80)\n      jumpi(tag_1, lt(calldatasize, 0x4))\n      calldataload(0x0)\n      0x100000000000000000000000000000000000000000000000000000000\n      swap1\n      div\n      0xffffffff\n      and\n      dup1\n      0xce8e3e\n      eq\n      tag_2\n      jumpi\n      dup1\n      0x24decc5\n      eq\n      tag_3\n      jumpi\n      dup1\n      0x76fd2f8\n      eq\n      tag_4\n      jumpi\n      dup1\n      0x7973ccf\n      eq\n      tag_5\n      jumpi\n      dup1\n      0x127ca4b4\n      eq\n      tag_6\n      jumpi\n      dup1\n      0x16e0a611\n      eq\n      tag_7\n      jumpi\n      dup1\n      0x17e51111\n      eq\n      tag_8\n      jumpi\n      dup1\n      0x294a4540\n      eq\n      tag_9\n      jumpi\n      dup1\n      0x5fc8e8c6\n      eq\n      tag_10\n      jumpi\n      dup1\n      0x6cdb2278\n      eq\n      tag_11\n      jumpi\n      dup1\n      0x779a9576\n      eq\n      tag_12\n      jumpi\n      dup1\n      0x78522bc4\n      eq\n      tag_13\n      jumpi\n      dup1\n      0x79111c1c\n      eq\n      tag_14\n      jumpi\n      dup1\n      0x8da5cb5b\n      eq\n      tag_15\n      jumpi\n      dup1\n      0x8f84aa09\n      eq\n      tag_16\n      jumpi\n      dup1\n      0x99d698c5\n      eq\n      tag_17\n      jumpi\n      dup1\n      0x9f4216e8\n      eq\n      tag_18\n      jumpi\n      dup1\n      0xb13d5d94\n      eq\n      tag_19\n      jumpi\n      dup1\n      0xb5cb15f7\n      eq\n      tag_20\n      jumpi\n      dup1\n      0xb744ff4d\n      eq\n      tag_21\n      jumpi\n      dup1\n      0xc3bf7bf0\n      eq\n      tag_22\n      jumpi\n      dup1\n      0xc543a718\n      eq\n      tag_23\n      jumpi\n      dup1\n      0xcaee6c85\n      eq\n      tag_24\n      jumpi\n      dup1\n      0xd118404b\n      eq\n      tag_25\n      jumpi\n      dup1\n      0xe0df0ac6\n      eq\n      tag_26\n      jumpi\n    tag_1:\n      0x0\n      dup1\n      revert\n        /* \"contracts/ddddd.sol\":6546:6631  function getUsers() public view returns(address[]) {\r... */\n    tag_2:\n      callvalue\n        /* \"--CODEGEN--\":8:17   */\n      dup1\n        /* \"--CODEGEN--\":5:7   */\n      iszero\n      tag_27\n      jumpi\n        /* \"--CODEGEN--\":30:31   */\n      0x0\n        /* \"--CODEGEN--\":27:28   */\n      dup1\n        /* \"--CODEGEN--\":20:32   */\n      revert\n        /* \"--CODEGEN--\":5:7   */\n    tag_27:\n        /* \"contracts/ddddd.sol\":6546:6631  function getUsers() public view returns(address[]) {\r... */\n      pop\n      tag_28\n      jump(tag_29)\n    tag_28:\n      mload(0x40)\n      tag_30\n      swap2\n      swap1\n      jump(tag_31)\n    tag_30:\n      mload(0x40)\n      dup1\n      swap2\n      sub\n      swap1\n      return\n        /* \"contracts/ddddd.sol\":7984:8096  function getUserPermissionCounter() public view returns(uint256) {\r... */\n    tag_3:\n      callvalue\n        /* \"--CODEGEN--\":8:17   */\n      dup1\n        /* \"--CODEGEN--\":5:7   */\n      iszero\n      tag_32\n      jumpi\n        /* \"--CODEGEN--\":30:31   */\n      0x0\n        /* \"--CODEGEN--\":27:28   */\n      dup1\n        /* \"--CODEGEN--\":20:32   */\n      revert\n        /* \"--CODEGEN--\":5:7   */\n    tag_32:\n        /* \"contracts/ddddd.sol\":7984:8096  function getUserPermissionCounter() public view returns(uint256) {\r... */\n      pop\n      tag_33\n      jump(tag_34)\n    tag_33:\n      mload(0x40)\n      tag_35\n      swap2\n      swap1\n      jump(tag_36)\n    tag_35:\n      mload(0x40)\n      dup1\n      swap2\n      sub\n      swap1\n      return\n        /* \"contracts/ddddd.sol\":6742:7099  function searchUserformation(address _address) public view returns(string, string, string, string, string, string, address) {\r... */\n    tag_4:\n      callvalue\n        /* \"--CODEGEN--\":8:17   */\n      dup1\n        /* \"--CODEGEN--\":5:7   */\n      iszero\n      tag_37\n      jumpi\n        /* \"--CODEGEN--\":30:31   */\n      0x0\n        /* \"--CODEGEN--\":27:28   */\n      dup1\n        /* \"--CODEGEN--\":20:32   */\n      revert\n        /* \"--CODEGEN--\":5:7   */\n    tag_37:\n        /* \"contracts/ddddd.sol\":6742:7099  function searchUserformation(address _address) public view returns(string, string, string, string, string, string, address) {\r... */\n      pop\n      tag_38\n      0x4\n      dup1\n      calldatasize\n      sub\n      tag_39\n      swap2\n      swap1\n      dup2\n      add\n      swap1\n      jump(tag_40)\n    tag_39:\n      jump(tag_41)\n    tag_38:\n      mload(0x40)\n      tag_42\n      swap8\n      swap7\n      swap6\n      swap5\n      swap4\n      swap3\n      swap2\n      swap1\n      jump(tag_43)\n    tag_42:\n      mload(0x40)\n      dup1\n      swap2\n      sub\n      swap1\n      return\n        /* \"contracts/ddddd.sol\":1511:1539  uint256 public userCount = 0 */\n    tag_5:\n      callvalue\n        /* \"--CODEGEN--\":8:17   */\n      dup1\n        /* \"--CODEGEN--\":5:7   */\n      iszero\n      tag_44\n      jumpi\n        /* \"--CODEGEN--\":30:31   */\n      0x0\n        /* \"--CODEGEN--\":27:28   */\n      dup1\n        /* \"--CODEGEN--\":20:32   */\n      revert\n        /* \"--CODEGEN--\":5:7   */\n    tag_44:\n        /* \"contracts/ddddd.sol\":1511:1539  uint256 public userCount = 0 */\n      pop\n      tag_45\n      jump(tag_46)\n    tag_45:\n      mload(0x40)\n      tag_47\n      swap2\n      swap1\n      jump(tag_36)\n    tag_47:\n      mload(0x40)\n      dup1\n      swap2\n      sub\n      swap1\n      return\n        /* \"contracts/ddddd.sol\":1110:1137  address[] public doctorList */\n    tag_6:\n      callvalue\n        /* \"--CODEGEN--\":8:17   */\n      dup1\n        /* \"--CODEGEN--\":5:7   */\n      iszero\n      tag_48\n      jumpi\n        /* \"--CODEGEN--\":30:31   */\n      0x0\n        /* \"--CODEGEN--\":27:28   */\n      dup1\n        /* \"--CODEGEN--\":20:32   */\n      revert\n        /* \"--CODEGEN--\":5:7   */\n    tag_48:\n        /* \"contracts/ddddd.sol\":1110:1137  address[] public doctorList */\n      pop\n      tag_49\n      0x4\n      dup1\n      calldatasize\n      sub\n      tag_50\n      swap2\n      swap1\n      dup2\n      add\n      swap1\n      jump(tag_51)\n    tag_50:\n      jump(tag_52)\n    tag_49:\n      mload(0x40)\n      tag_53\n      swap2\n      swap1\n      jump(tag_54)\n    tag_53:\n      mload(0x40)\n      dup1\n      swap2\n      sub\n      swap1\n      return\n        /* \"contracts/ddddd.sol\":4452:4971  function editDoctor(address _doctor, string _uaeId, string _name, string _phone, string _gender, string _dob, string _qualification, string _major) public {\r... */\n    tag_7:\n      callvalue\n        /* \"--CODEGEN--\":8:17   */\n      dup1\n        /* \"--CODEGEN--\":5:7   */\n      iszero\n      tag_55\n      jumpi\n        /* \"--CODEGEN--\":30:31   */\n      0x0\n        /* \"--CODEGEN--\":27:28   */\n      dup1\n        /* \"--CODEGEN--\":20:32   */\n      revert\n        /* \"--CODEGEN--\":5:7   */\n    tag_55:\n        /* \"contracts/ddddd.sol\":4452:4971  function editDoctor(address _doctor, string _uaeId, string _name, string _phone, string _gender, string _dob, string _qualification, string _major) public {\r... */\n      pop\n      tag_56\n      0x4\n      dup1\n      calldatasize\n      sub\n      tag_57\n      swap2\n      swap1\n      dup2\n      add\n      swap1\n      jump(tag_58)\n    tag_57:\n      jump(tag_59)\n    tag_56:\n      stop\n        /* \"contracts/ddddd.sol\":3683:4444  function doctorRegistration(address _doctor, string _uaeId, string _name, string _phone, string _gender, string _dob, string _qualification, string _major) public {\r... */\n    tag_8:\n      callvalue\n        /* \"--CODEGEN--\":8:17   */\n      dup1\n        /* \"--CODEGEN--\":5:7   */\n      iszero\n      tag_60\n      jumpi\n        /* \"--CODEGEN--\":30:31   */\n      0x0\n        /* \"--CODEGEN--\":27:28   */\n      dup1\n        /* \"--CODEGEN--\":20:32   */\n      revert\n        /* \"--CODEGEN--\":5:7   */\n    tag_60:\n        /* \"contracts/ddddd.sol\":3683:4444  function doctorRegistration(address _doctor, string _uaeId, string _name, string _phone, string _gender, string _dob, string _qualification, string _major) public {\r... */\n      pop\n      tag_61\n      0x4\n      dup1\n      calldatasize\n      sub\n      tag_62\n      swap2\n      swap1\n      dup2\n      add\n      swap1\n      jump(tag_58)\n    tag_62:\n      jump(tag_63)\n    tag_61:\n      stop\n        /* \"contracts/ddddd.sol\":5689:5880  function givePermissionByUser(address _address) public returns(bool success) {\r... */\n    tag_9:\n      callvalue\n        /* \"--CODEGEN--\":8:17   */\n      dup1\n        /* \"--CODEGEN--\":5:7   */\n      iszero\n      tag_64\n      jumpi\n        /* \"--CODEGEN--\":30:31   */\n      0x0\n        /* \"--CODEGEN--\":27:28   */\n      dup1\n        /* \"--CODEGEN--\":20:32   */\n      revert\n        /* \"--CODEGEN--\":5:7   */\n    tag_64:\n        /* \"contracts/ddddd.sol\":5689:5880  function givePermissionByUser(address _address) public returns(bool success) {\r... */\n      pop\n      tag_65\n      0x4\n      dup1\n      calldatasize\n      sub\n      tag_66\n      swap2\n      swap1\n      dup2\n      add\n      swap1\n      jump(tag_40)\n    tag_66:\n      jump(tag_67)\n    tag_65:\n      mload(0x40)\n      tag_68\n      swap2\n      swap1\n      jump(tag_69)\n    tag_68:\n      mload(0x40)\n      dup1\n      swap2\n      sub\n      swap1\n      return\n        /* \"contracts/ddddd.sol\":6150:6308  function userRevokePermission(address _address) public returns(bool success) {\r... */\n    tag_10:\n      callvalue\n        /* \"--CODEGEN--\":8:17   */\n      dup1\n        /* \"--CODEGEN--\":5:7   */\n      iszero\n      tag_70\n      jumpi\n        /* \"--CODEGEN--\":30:31   */\n      0x0\n        /* \"--CODEGEN--\":27:28   */\n      dup1\n        /* \"--CODEGEN--\":20:32   */\n      revert\n        /* \"--CODEGEN--\":5:7   */\n    tag_70:\n        /* \"contracts/ddddd.sol\":6150:6308  function userRevokePermission(address _address) public returns(bool success) {\r... */\n      pop\n      tag_71\n      0x4\n      dup1\n      calldatasize\n      sub\n      tag_72\n      swap2\n      swap1\n      dup2\n      add\n      swap1\n      jump(tag_40)\n    tag_72:\n      jump(tag_73)\n    tag_71:\n      mload(0x40)\n      tag_74\n      swap2\n      swap1\n      jump(tag_69)\n    tag_74:\n      mload(0x40)\n      dup1\n      swap2\n      sub\n      swap1\n      return\n        /* \"contracts/ddddd.sol\":1933:3042  function userRegistration(address _user, string _uaeId, string _name, string _phone, string _gender, string _dob, string _addr, string _email, string _nomineeName, string _nomineeContact) public {\r... */\n    tag_11:\n      callvalue\n        /* \"--CODEGEN--\":8:17   */\n      dup1\n        /* \"--CODEGEN--\":5:7   */\n      iszero\n      tag_75\n      jumpi\n        /* \"--CODEGEN--\":30:31   */\n      0x0\n        /* \"--CODEGEN--\":27:28   */\n      dup1\n        /* \"--CODEGEN--\":20:32   */\n      revert\n        /* \"--CODEGEN--\":5:7   */\n    tag_75:\n        /* \"contracts/ddddd.sol\":1933:3042  function userRegistration(address _user, string _uaeId, string _name, string _phone, string _gender, string _dob, string _addr, string _email, string _nomineeName, string _nomineeContact) public {\r... */\n      pop\n      tag_76\n      0x4\n      dup1\n      calldatasize\n      sub\n      tag_77\n      swap2\n      swap1\n      dup2\n      add\n      swap1\n      jump(tag_78)\n    tag_77:\n      jump(tag_79)\n    tag_76:\n      stop\n        /* \"contracts/ddddd.sol\":3066:3675  function editUser(address _user, string _uaeId, string _name, string _phone, string _gender, string _dob, string _addr, string _email, string _nomineeName, string _nomineeContact) public {\r... */\n    tag_12:\n      callvalue\n        /* \"--CODEGEN--\":8:17   */\n      dup1\n        /* \"--CODEGEN--\":5:7   */\n      iszero\n      tag_80\n      jumpi\n        /* \"--CODEGEN--\":30:31   */\n      0x0\n        /* \"--CODEGEN--\":27:28   */\n      dup1\n        /* \"--CODEGEN--\":20:32   */\n      revert\n        /* \"--CODEGEN--\":5:7   */\n    tag_80:\n        /* \"contracts/ddddd.sol\":3066:3675  function editUser(address _user, string _uaeId, string _name, string _phone, string _gender, string _dob, string _addr, string _email, string _nomineeName, string _nomineeContact) public {\r... */\n      pop\n      tag_81\n      0x4\n      dup1\n      calldatasize\n      sub\n      tag_82\n      swap2\n      swap1\n      dup2\n      add\n      swap1\n      jump(tag_78)\n    tag_82:\n      jump(tag_83)\n    tag_81:\n      stop\n        /* \"contracts/ddddd.sol\":1546:1576  uint256 public doctorCount = 0 */\n    tag_13:\n      callvalue\n        /* \"--CODEGEN--\":8:17   */\n      dup1\n        /* \"--CODEGEN--\":5:7   */\n      iszero\n      tag_84\n      jumpi\n        /* \"--CODEGEN--\":30:31   */\n      0x0\n        /* \"--CODEGEN--\":27:28   */\n      dup1\n        /* \"--CODEGEN--\":20:32   */\n      revert\n        /* \"--CODEGEN--\":5:7   */\n    tag_84:\n        /* \"contracts/ddddd.sol\":1546:1576  uint256 public doctorCount = 0 */\n      pop\n      tag_85\n      jump(tag_86)\n    tag_85:\n      mload(0x40)\n      tag_87\n      swap2\n      swap1\n      jump(tag_36)\n    tag_87:\n      mload(0x40)\n      dup1\n      swap2\n      sub\n      swap1\n      return\n        /* \"contracts/ddddd.sol\":7878:7970  function getDoctorCount() public view returns(uint256) {\r... */\n    tag_14:\n      callvalue\n        /* \"--CODEGEN--\":8:17   */\n      dup1\n        /* \"--CODEGEN--\":5:7   */\n      iszero\n      tag_88\n      jumpi\n        /* \"--CODEGEN--\":30:31   */\n      0x0\n        /* \"--CODEGEN--\":27:28   */\n      dup1\n        /* \"--CODEGEN--\":20:32   */\n      revert\n        /* \"--CODEGEN--\":5:7   */\n    tag_88:\n        /* \"contracts/ddddd.sol\":7878:7970  function getDoctorCount() public view returns(uint256) {\r... */\n      pop\n      tag_89\n      jump(tag_90)\n    tag_89:\n      mload(0x40)\n      tag_91\n      swap2\n      swap1\n      jump(tag_36)\n    tag_91:\n      mload(0x40)\n      dup1\n      swap2\n      sub\n      swap1\n      return\n        /* \"contracts/ddddd.sol\":1051:1071  address public owner */\n    tag_15:\n      callvalue\n        /* \"--CODEGEN--\":8:17   */\n      dup1\n        /* \"--CODEGEN--\":5:7   */\n      iszero\n      tag_92\n      jumpi\n        /* \"--CODEGEN--\":30:31   */\n      0x0\n        /* \"--CODEGEN--\":27:28   */\n      dup1\n        /* \"--CODEGEN--\":20:32   */\n      revert\n        /* \"--CODEGEN--\":5:7   */\n    tag_92:\n        /* \"contracts/ddddd.sol\":1051:1071  address public owner */\n      pop\n      tag_93\n      jump(tag_94)\n    tag_93:\n      mload(0x40)\n      tag_95\n      swap2\n      swap1\n      jump(tag_54)\n    tag_95:\n      mload(0x40)\n      dup1\n      swap2\n      sub\n      swap1\n      return\n        /* \"contracts/ddddd.sol\":1813:1921  function ownerAddress() public returns(address) {\r... */\n    tag_16:\n      callvalue\n        /* \"--CODEGEN--\":8:17   */\n      dup1\n        /* \"--CODEGEN--\":5:7   */\n      iszero\n      tag_96\n      jumpi\n        /* \"--CODEGEN--\":30:31   */\n      0x0\n        /* \"--CODEGEN--\":27:28   */\n      dup1\n        /* \"--CODEGEN--\":20:32   */\n      revert\n        /* \"--CODEGEN--\":5:7   */\n    tag_96:\n        /* \"contracts/ddddd.sol\":1813:1921  function ownerAddress() public returns(address) {\r... */\n      pop\n      tag_97\n      jump(tag_98)\n    tag_97:\n      mload(0x40)\n      tag_99\n      swap2\n      swap1\n      jump(tag_54)\n    tag_99:\n      mload(0x40)\n      dup1\n      swap2\n      sub\n      swap1\n      return\n        /* \"contracts/ddddd.sol\":1583:1622  uint256 public MoHPermissionCounter = 0 */\n    tag_17:\n      callvalue\n        /* \"--CODEGEN--\":8:17   */\n      dup1\n        /* \"--CODEGEN--\":5:7   */\n      iszero\n      tag_100\n      jumpi\n        /* \"--CODEGEN--\":30:31   */\n      0x0\n        /* \"--CODEGEN--\":27:28   */\n      dup1\n        /* \"--CODEGEN--\":20:32   */\n      revert\n        /* \"--CODEGEN--\":5:7   */\n    tag_100:\n        /* \"contracts/ddddd.sol\":1583:1622  uint256 public MoHPermissionCounter = 0 */\n      pop\n      tag_101\n      jump(tag_102)\n    tag_101:\n      mload(0x40)\n      tag_103\n      swap2\n      swap1\n      jump(tag_36)\n    tag_103:\n      mload(0x40)\n      dup1\n      swap2\n      sub\n      swap1\n      return\n        /* \"contracts/ddddd.sol\":1078:1103  address[] public userList */\n    tag_18:\n      callvalue\n        /* \"--CODEGEN--\":8:17   */\n      dup1\n        /* \"--CODEGEN--\":5:7   */\n      iszero\n      tag_104\n      jumpi\n        /* \"--CODEGEN--\":30:31   */\n      0x0\n        /* \"--CODEGEN--\":27:28   */\n      dup1\n        /* \"--CODEGEN--\":20:32   */\n      revert\n        /* \"--CODEGEN--\":5:7   */\n    tag_104:\n        /* \"contracts/ddddd.sol\":1078:1103  address[] public userList */\n      pop\n      tag_105\n      0x4\n      dup1\n      calldatasize\n      sub\n      tag_106\n      swap2\n      swap1\n      dup2\n      add\n      swap1\n      jump(tag_51)\n    tag_106:\n      jump(tag_107)\n    tag_105:\n      mload(0x40)\n      tag_108\n      swap2\n      swap1\n      jump(tag_54)\n    tag_108:\n      mload(0x40)\n      dup1\n      swap2\n      sub\n      swap1\n      return\n        /* \"contracts/ddddd.sol\":6641:6730  function getDoctors() public view returns(address[]) {\r... */\n    tag_19:\n      callvalue\n        /* \"--CODEGEN--\":8:17   */\n      dup1\n        /* \"--CODEGEN--\":5:7   */\n      iszero\n      tag_109\n      jumpi\n        /* \"--CODEGEN--\":30:31   */\n      0x0\n        /* \"--CODEGEN--\":27:28   */\n      dup1\n        /* \"--CODEGEN--\":20:32   */\n      revert\n        /* \"--CODEGEN--\":5:7   */\n    tag_109:\n        /* \"contracts/ddddd.sol\":6641:6730  function getDoctors() public view returns(address[]) {\r... */\n      pop\n      tag_110\n      jump(tag_111)\n    tag_110:\n      mload(0x40)\n      tag_112\n      swap2\n      swap1\n      jump(tag_31)\n    tag_112:\n      mload(0x40)\n      dup1\n      swap2\n      sub\n      swap1\n      return\n        /* \"contracts/ddddd.sol\":7782:7870  function getUserCount() public view returns(uint256) {\r... */\n    tag_20:\n      callvalue\n        /* \"--CODEGEN--\":8:17   */\n      dup1\n        /* \"--CODEGEN--\":5:7   */\n      iszero\n      tag_113\n      jumpi\n        /* \"--CODEGEN--\":30:31   */\n      0x0\n        /* \"--CODEGEN--\":27:28   */\n      dup1\n        /* \"--CODEGEN--\":20:32   */\n      revert\n        /* \"--CODEGEN--\":5:7   */\n    tag_113:\n        /* \"contracts/ddddd.sol\":7782:7870  function getUserCount() public view returns(uint256) {\r... */\n      pop\n      tag_114\n      jump(tag_115)\n    tag_114:\n      mload(0x40)\n      tag_116\n      swap2\n      swap1\n      jump(tag_36)\n    tag_116:\n      mload(0x40)\n      dup1\n      swap2\n      sub\n      swap1\n      return\n        /* \"contracts/ddddd.sol\":1731:1800  address public mohAdress = 0xc50C6297f56b033633C30354A854b074749cd2dC */\n    tag_21:\n      callvalue\n        /* \"--CODEGEN--\":8:17   */\n      dup1\n        /* \"--CODEGEN--\":5:7   */\n      iszero\n      tag_117\n      jumpi\n        /* \"--CODEGEN--\":30:31   */\n      0x0\n        /* \"--CODEGEN--\":27:28   */\n      dup1\n        /* \"--CODEGEN--\":20:32   */\n      revert\n        /* \"--CODEGEN--\":5:7   */\n    tag_117:\n        /* \"contracts/ddddd.sol\":1731:1800  address public mohAdress = 0xc50C6297f56b033633C30354A854b074749cd2dC */\n      pop\n      tag_118\n      jump(tag_119)\n    tag_118:\n      mload(0x40)\n      tag_120\n      swap2\n      swap1\n      jump(tag_54)\n    tag_120:\n      mload(0x40)\n      dup1\n      swap2\n      sub\n      swap1\n      return\n        /* \"contracts/ddddd.sol\":6316:6536  function MoHRevokePermission(address _address1, address _address2) public returns(bool success) {\r... */\n    tag_22:\n      callvalue\n        /* \"--CODEGEN--\":8:17   */\n      dup1\n        /* \"--CODEGEN--\":5:7   */\n      iszero\n      tag_121\n      jumpi\n        /* \"--CODEGEN--\":30:31   */\n      0x0\n        /* \"--CODEGEN--\":27:28   */\n      dup1\n        /* \"--CODEGEN--\":20:32   */\n      revert\n        /* \"--CODEGEN--\":5:7   */\n    tag_121:\n        /* \"contracts/ddddd.sol\":6316:6536  function MoHRevokePermission(address _address1, address _address2) public returns(bool success) {\r... */\n      pop\n      tag_122\n      0x4\n      dup1\n      calldatasize\n      sub\n      tag_123\n      swap2\n      swap1\n      dup2\n      add\n      swap1\n      jump(tag_124)\n    tag_123:\n      jump(tag_125)\n    tag_122:\n      mload(0x40)\n      tag_126\n      swap2\n      swap1\n      jump(tag_69)\n    tag_126:\n      mload(0x40)\n      dup1\n      swap2\n      sub\n      swap1\n      return\n        /* \"contracts/ddddd.sol\":1629:1669  uint256 public userPermissionCounter = 0 */\n    tag_23:\n      callvalue\n        /* \"--CODEGEN--\":8:17   */\n      dup1\n        /* \"--CODEGEN--\":5:7   */\n      iszero\n      tag_127\n      jumpi\n        /* \"--CODEGEN--\":30:31   */\n      0x0\n        /* \"--CODEGEN--\":27:28   */\n      dup1\n        /* \"--CODEGEN--\":20:32   */\n      revert\n        /* \"--CODEGEN--\":5:7   */\n    tag_127:\n        /* \"contracts/ddddd.sol\":1629:1669  uint256 public userPermissionCounter = 0 */\n      pop\n      tag_128\n      jump(tag_129)\n    tag_128:\n      mload(0x40)\n      tag_130\n      swap2\n      swap1\n      jump(tag_36)\n    tag_130:\n      mload(0x40)\n      dup1\n      swap2\n      sub\n      swap1\n      return\n        /* \"contracts/ddddd.sol\":7420:7766  function searchDoctor(address _address) public view returns(string, string, string, string, string, string, string) {\r... */\n    tag_24:\n      callvalue\n        /* \"--CODEGEN--\":8:17   */\n      dup1\n        /* \"--CODEGEN--\":5:7   */\n      iszero\n      tag_131\n      jumpi\n        /* \"--CODEGEN--\":30:31   */\n      0x0\n        /* \"--CODEGEN--\":27:28   */\n      dup1\n        /* \"--CODEGEN--\":20:32   */\n      revert\n        /* \"--CODEGEN--\":5:7   */\n    tag_131:\n        /* \"contracts/ddddd.sol\":7420:7766  function searchDoctor(address _address) public view returns(string, string, string, string, string, string, string) {\r... */\n      pop\n      tag_132\n      0x4\n      dup1\n      calldatasize\n      sub\n      tag_133\n      swap2\n      swap1\n      dup2\n      add\n      swap1\n      jump(tag_40)\n    tag_133:\n      jump(tag_134)\n    tag_132:\n      mload(0x40)\n      tag_135\n      swap8\n      swap7\n      swap6\n      swap5\n      swap4\n      swap3\n      swap2\n      swap1\n      jump(tag_136)\n    tag_135:\n      mload(0x40)\n      dup1\n      swap2\n      sub\n      swap1\n      return\n        /* \"contracts/ddddd.sol\":5888:6140  function givePermissionByMoH(address _address1, address _address2) public returns(bool success) {\r... */\n    tag_25:\n      callvalue\n        /* \"--CODEGEN--\":8:17   */\n      dup1\n        /* \"--CODEGEN--\":5:7   */\n      iszero\n      tag_137\n      jumpi\n        /* \"--CODEGEN--\":30:31   */\n      0x0\n        /* \"--CODEGEN--\":27:28   */\n      dup1\n        /* \"--CODEGEN--\":20:32   */\n      revert\n        /* \"--CODEGEN--\":5:7   */\n    tag_137:\n        /* \"contracts/ddddd.sol\":5888:6140  function givePermissionByMoH(address _address1, address _address2) public returns(bool success) {\r... */\n      pop\n      tag_138\n      0x4\n      dup1\n      calldatasize\n      sub\n      tag_139\n      swap2\n      swap1\n      dup2\n      add\n      swap1\n      jump(tag_124)\n    tag_139:\n      jump(tag_140)\n    tag_138:\n      mload(0x40)\n      tag_141\n      swap2\n      swap1\n      jump(tag_69)\n    tag_141:\n      mload(0x40)\n      dup1\n      swap2\n      sub\n      swap1\n      return\n        /* \"contracts/ddddd.sol\":8104:8214  function getMoHPermissionCounter() public view returns(uint256) {\r... */\n    tag_26:\n      callvalue\n        /* \"--CODEGEN--\":8:17   */\n      dup1\n        /* \"--CODEGEN--\":5:7   */\n      iszero\n      tag_142\n      jumpi\n        /* \"--CODEGEN--\":30:31   */\n      0x0\n        /* \"--CODEGEN--\":27:28   */\n      dup1\n        /* \"--CODEGEN--\":20:32   */\n      revert\n        /* \"--CODEGEN--\":5:7   */\n    tag_142:\n        /* \"contracts/ddddd.sol\":8104:8214  function getMoHPermissionCounter() public view returns(uint256) {\r... */\n      pop\n      tag_143\n      jump(tag_144)\n    tag_143:\n      mload(0x40)\n      tag_145\n      swap2\n      swap1\n      jump(tag_36)\n    tag_145:\n      mload(0x40)\n      dup1\n      swap2\n      sub\n      swap1\n      return\n        /* \"contracts/ddddd.sol\":6546:6631  function getUsers() public view returns(address[]) {\r... */\n    tag_29:\n        /* \"contracts/ddddd.sol\":6586:6595  address[] */\n      0x60\n        /* \"contracts/ddddd.sol\":6615:6623  userList */\n      0x1\n        /* \"contracts/ddddd.sol\":6608:6623  return userList */\n      dup1\n      sload\n      dup1\n      0x20\n      mul\n      0x20\n      add\n      mload(0x40)\n      swap1\n      dup2\n      add\n      0x40\n      mstore\n      dup1\n      swap3\n      swap2\n      swap1\n      dup2\n      dup2\n      mstore\n      0x20\n      add\n      dup3\n      dup1\n      sload\n      dup1\n      iszero\n      tag_147\n      jumpi\n      0x20\n      mul\n      dup3\n      add\n      swap2\n      swap1\n      0x0\n      mstore\n      keccak256(0x0, 0x20)\n      swap1\n    tag_148:\n      dup2\n      0x0\n      swap1\n      sload\n      swap1\n      0x100\n      exp\n      swap1\n      div\n      0xffffffffffffffffffffffffffffffffffffffff\n      and\n      0xffffffffffffffffffffffffffffffffffffffff\n      and\n      dup2\n      mstore\n      0x20\n      add\n      swap1\n      0x1\n      add\n      swap1\n      dup1\n      dup4\n      gt\n      tag_148\n      jumpi\n    tag_147:\n      pop\n      pop\n      pop\n      pop\n      pop\n      swap1\n      pop\n        /* \"contracts/ddddd.sol\":6546:6631  function getUsers() public view returns(address[]) {\r... */\n      swap1\n      jump\t// out\n        /* \"contracts/ddddd.sol\":7984:8096  function getUserPermissionCounter() public view returns(uint256) {\r... */\n    tag_34:\n        /* \"contracts/ddddd.sol\":8040:8047  uint256 */\n      0x0\n        /* \"contracts/ddddd.sol\":8067:8088  userPermissionCounter */\n      sload(0xb)\n        /* \"contracts/ddddd.sol\":8060:8088  return userPermissionCounter */\n      swap1\n      pop\n        /* \"contracts/ddddd.sol\":7984:8096  function getUserPermissionCounter() public view returns(uint256) {\r... */\n      swap1\n      jump\t// out\n        /* \"contracts/ddddd.sol\":6742:7099  function searchUserformation(address _address) public view returns(string, string, string, string, string, string, address) {\r... */\n    tag_41:\n        /* \"contracts/ddddd.sol\":6809:6815  string */\n      0x60\n        /* \"contracts/ddddd.sol\":6817:6823  string */\n      dup1\n        /* \"contracts/ddddd.sol\":6825:6831  string */\n      0x60\n        /* \"contracts/ddddd.sol\":6833:6839  string */\n      dup1\n        /* \"contracts/ddddd.sol\":6841:6847  string */\n      0x60\n        /* \"contracts/ddddd.sol\":6849:6855  string */\n      dup1\n        /* \"contracts/ddddd.sol\":6857:6864  address */\n      0x0\n        /* \"contracts/ddddd.sol\":6929:6934  var u */\n      dup1\n        /* \"contracts/ddddd.sol\":6885:6895  isApproved */\n      0x5\n        /* \"contracts/ddddd.sol\":6885:6905  isApproved[_address] */\n      0x0\n        /* \"contracts/ddddd.sol\":6896:6904  _address */\n      dup11\n        /* \"contracts/ddddd.sol\":6885:6905  isApproved[_address] */\n      0xffffffffffffffffffffffffffffffffffffffff\n      and\n      0xffffffffffffffffffffffffffffffffffffffff\n      and\n      dup2\n      mstore\n      0x20\n      add\n      swap1\n      dup2\n      mstore\n      0x20\n      add\n      0x0\n      keccak256\n        /* \"contracts/ddddd.sol\":6885:6917  isApproved[_address][msg.sender] */\n      0x0\n        /* \"contracts/ddddd.sol\":6906:6916  msg.sender */\n      caller\n        /* \"contracts/ddddd.sol\":6885:6917  isApproved[_address][msg.sender] */\n      0xffffffffffffffffffffffffffffffffffffffff\n      and\n      0xffffffffffffffffffffffffffffffffffffffff\n      and\n      dup2\n      mstore\n      0x20\n      add\n      swap1\n      dup2\n      mstore\n      0x20\n      add\n      0x0\n      keccak256\n      0x0\n      swap1\n      sload\n      swap1\n      0x100\n      exp\n      swap1\n      div\n      0xff\n      and\n        /* \"contracts/ddddd.sol\":6877:6918  require(isApproved[_address][msg.sender]) */\n      iszero\n      iszero\n      tag_151\n      jumpi\n      0x0\n      dup1\n      revert\n    tag_151:\n        /* \"contracts/ddddd.sol\":6937:6941  user */\n      0x3\n        /* \"contracts/ddddd.sol\":6937:6951  user[_address] */\n      0x0\n        /* \"contracts/ddddd.sol\":6942:6950  _address */\n      dup11\n        /* \"contracts/ddddd.sol\":6937:6951  user[_address] */\n      0xffffffffffffffffffffffffffffffffffffffff\n      and\n      0xffffffffffffffffffffffffffffffffffffffff\n      and\n      dup2\n      mstore\n      0x20\n      add\n      swap1\n      dup2\n      mstore\n      0x20\n      add\n      0x0\n      keccak256\n        /* \"contracts/ddddd.sol\":6929:6951  var u = user[_address] */\n      swap1\n      pop\n        /* \"contracts/ddddd.sol\":6970:6971  u */\n      dup1\n        /* \"contracts/ddddd.sol\":6970:6977  u.uaeId */\n      0x0\n      add\n        /* \"contracts/ddddd.sol\":6979:6980  u */\n      dup2\n        /* \"contracts/ddddd.sol\":6979:6985  u.name */\n      0x1\n      add\n        /* \"contracts/ddddd.sol\":6987:6988  u */\n      dup3\n        /* \"contracts/ddddd.sol\":6987:6994  u.phone */\n      0x2\n      add\n        /* \"contracts/ddddd.sol\":6996:6997  u */\n      dup4\n        /* \"contracts/ddddd.sol\":6996:7004  u.gender */\n      0x3\n      add\n        /* \"contracts/ddddd.sol\":7006:7007  u */\n      dup5\n        /* \"contracts/ddddd.sol\":7006:7011  u.dob */\n      0x4\n      add\n        /* \"contracts/ddddd.sol\":7013:7014  u */\n      dup6\n        /* \"contracts/ddddd.sol\":7013:7019  u.addr */\n      0x5\n      add\n        /* \"contracts/ddddd.sol\":7021:7022  u */\n      dup7\n        /* \"contracts/ddddd.sol\":7021:7031  u.eAddress */\n      0x9\n      add\n      0x0\n      swap1\n      sload\n      swap1\n      0x100\n      exp\n      swap1\n      div\n      0xffffffffffffffffffffffffffffffffffffffff\n      and\n        /* \"contracts/ddddd.sol\":6962:7032  return (u.uaeId, u.name, u.phone, u.gender, u.dob, u.addr, u.eAddress) */\n      dup7\n      dup1\n      sload\n      0x1\n      dup2\n      0x1\n      and\n      iszero\n      0x100\n      mul\n      sub\n      and\n      0x2\n      swap1\n      div\n      dup1\n      0x1f\n      add\n      0x20\n      dup1\n      swap2\n      div\n      mul\n      0x20\n      add\n      mload(0x40)\n      swap1\n      dup2\n      add\n      0x40\n      mstore\n      dup1\n      swap3\n      swap2\n      swap1\n      dup2\n      dup2\n      mstore\n      0x20\n      add\n      dup3\n      dup1\n      sload\n      0x1\n      dup2\n      0x1\n      and\n      iszero\n      0x100\n      mul\n      sub\n      and\n      0x2\n      swap1\n      div\n      dup1\n      iszero\n      tag_152\n      jumpi\n      dup1\n      0x1f\n      lt\n      tag_153\n      jumpi\n      0x100\n      dup1\n      dup4\n      sload\n      div\n      mul\n      dup4\n      mstore\n      swap2\n      0x20\n      add\n      swap2\n      jump(tag_152)\n    tag_153:\n      dup3\n      add\n      swap2\n      swap1\n      0x0\n      mstore\n      keccak256(0x0, 0x20)\n      swap1\n    tag_154:\n      dup2\n      sload\n      dup2\n      mstore\n      swap1\n      0x1\n      add\n      swap1\n      0x20\n      add\n      dup1\n      dup4\n      gt\n      tag_154\n      jumpi\n      dup3\n      swap1\n      sub\n      0x1f\n      and\n      dup3\n      add\n      swap2\n    tag_152:\n      pop\n      pop\n      pop\n      pop\n      pop\n      swap7\n      pop\n      dup6\n      dup1\n      sload\n      0x1\n      dup2\n      0x1\n      and\n      iszero\n      0x100\n      mul\n      sub\n      and\n      0x2\n      swap1\n      div\n      dup1\n      0x1f\n      add\n      0x20\n      dup1\n      swap2\n      div\n      mul\n      0x20\n      add\n      mload(0x40)\n      swap1\n      dup2\n      add\n      0x40\n      mstore\n      dup1\n      swap3\n      swap2\n      swap1\n      dup2\n      dup2\n      mstore\n      0x20\n      add\n      dup3\n      dup1\n      sload\n      0x1\n      dup2\n      0x1\n      and\n      iszero\n      0x100\n      mul\n      sub\n      and\n      0x2\n      swap1\n      div\n      dup1\n      iszero\n      tag_155\n      jumpi\n      dup1\n      0x1f\n      lt\n      tag_156\n      jumpi\n      0x100\n      dup1\n      dup4\n      sload\n      div\n      mul\n      dup4\n      mstore\n      swap2\n      0x20\n      add\n      swap2\n      jump(tag_155)\n    tag_156:\n      dup3\n      add\n      swap2\n      swap1\n      0x0\n      mstore\n      keccak256(0x0, 0x20)\n      swap1\n    tag_157:\n      dup2\n      sload\n      dup2\n      mstore\n      swap1\n      0x1\n      add\n      swap1\n      0x20\n      add\n      dup1\n      dup4\n      gt\n      tag_157\n      jumpi\n      dup3\n      swap1\n      sub\n      0x1f\n      and\n      dup3\n      add\n      swap2\n    tag_155:\n      pop\n      pop\n      pop\n      pop\n      pop\n      swap6\n      pop\n      dup5\n      dup1\n      sload\n      0x1\n      dup2\n      0x1\n      and\n      iszero\n      0x100\n      mul\n      sub\n      and\n      0x2\n      swap1\n      div\n      dup1\n      0x1f\n      add\n      0x20\n      dup1\n      swap2\n      div\n      mul\n      0x20\n      add\n      mload(0x40)\n      swap1\n      dup2\n      add\n      0x40\n      mstore\n      dup1\n      swap3\n      swap2\n      swap1\n      dup2\n      dup2\n      mstore\n      0x20\n      add\n      dup3\n      dup1\n      sload\n      0x1\n      dup2\n      0x1\n      and\n      iszero\n      0x100\n      mul\n      sub\n      and\n      0x2\n      swap1\n      div\n      dup1\n      iszero\n      tag_158\n      jumpi\n      dup1\n      0x1f\n      lt\n      tag_159\n      jumpi\n      0x100\n      dup1\n      dup4\n      sload\n      div\n      mul\n      dup4\n      mstore\n      swap2\n      0x20\n      add\n      swap2\n      jump(tag_158)\n    tag_159:\n      dup3\n      add\n      swap2\n      swap1\n      0x0\n      mstore\n      keccak256(0x0, 0x20)\n      swap1\n    tag_160:\n      dup2\n      sload\n      dup2\n      mstore\n      swap1\n      0x1\n      add\n      swap1\n      0x20\n      add\n      dup1\n      dup4\n      gt\n      tag_160\n      jumpi\n      dup3\n      swap1\n      sub\n      0x1f\n      and\n      dup3\n      add\n      swap2\n    tag_158:\n      pop\n      pop\n      pop\n      pop\n      pop\n      swap5\n      pop\n      dup4\n      dup1\n      sload\n      0x1\n      dup2\n      0x1\n      and\n      iszero\n      0x100\n      mul\n      sub\n      and\n      0x2\n      swap1\n      div\n      dup1\n      0x1f\n      add\n      0x20\n      dup1\n      swap2\n      div\n      mul\n      0x20\n      add\n      mload(0x40)\n      swap1\n      dup2\n      add\n      0x40\n      mstore\n      dup1\n      swap3\n      swap2\n      swap1\n      dup2\n      dup2\n      mstore\n      0x20\n      add\n      dup3\n      dup1\n      sload\n      0x1\n      dup2\n      0x1\n      and\n      iszero\n      0x100\n      mul\n      sub\n      and\n      0x2\n      swap1\n      div\n      dup1\n      iszero\n      tag_161\n      jumpi\n      dup1\n      0x1f\n      lt\n      tag_162\n      jumpi\n      0x100\n      dup1\n      dup4\n      sload\n      div\n      mul\n      dup4\n      mstore\n      swap2\n      0x20\n      add\n      swap2\n      jump(tag_161)\n    tag_162:\n      dup3\n      add\n      swap2\n      swap1\n      0x0\n      mstore\n      keccak256(0x0, 0x20)\n      swap1\n    tag_163:\n      dup2\n      sload\n      dup2\n      mstore\n      swap1\n      0x1\n      add\n      swap1\n      0x20\n      add\n      dup1\n      dup4\n      gt\n      tag_163\n      jumpi\n      dup3\n      swap1\n      sub\n      0x1f\n      and\n      dup3\n      add\n      swap2\n    tag_161:\n      pop\n      pop\n      pop\n      pop\n      pop\n      swap4\n      pop\n      dup3\n      dup1\n      sload\n      0x1\n      dup2\n      0x1\n      and\n      iszero\n      0x100\n      mul\n      sub\n      and\n      0x2\n      swap1\n      div\n      dup1\n      0x1f\n      add\n      0x20\n      dup1\n      swap2\n      div\n      mul\n      0x20\n      add\n      mload(0x40)\n      swap1\n      dup2\n      add\n      0x40\n      mstore\n      dup1\n      swap3\n      swap2\n      swap1\n      dup2\n      dup2\n      mstore\n      0x20\n      add\n      dup3\n      dup1\n      sload\n      0x1\n      dup2\n      0x1\n      and\n      iszero\n      0x100\n      mul\n      sub\n      and\n      0x2\n      swap1\n      div\n      dup1\n      iszero\n      tag_164\n      jumpi\n      dup1\n      0x1f\n      lt\n      tag_165\n      jumpi\n      0x100\n      dup1\n      dup4\n      sload\n      div\n      mul\n      dup4\n      mstore\n      swap2\n      0x20\n      add\n      swap2\n      jump(tag_164)\n    tag_165:\n      dup3\n      add\n      swap2\n      swap1\n      0x0\n      mstore\n      keccak256(0x0, 0x20)\n      swap1\n    tag_166:\n      dup2\n      sload\n      dup2\n      mstore\n      swap1\n      0x1\n      add\n      swap1\n      0x20\n      add\n      dup1\n      dup4\n      gt\n      tag_166\n      jumpi\n      dup3\n      swap1\n      sub\n      0x1f\n      and\n      dup3\n      add\n      swap2\n    tag_164:\n      pop\n      pop\n      pop\n      pop\n      pop\n      swap3\n      pop\n      dup2\n      dup1\n      sload\n      0x1\n      dup2\n      0x1\n      and\n      iszero\n      0x100\n      mul\n      sub\n      and\n      0x2\n      swap1\n      div\n      dup1\n      0x1f\n      add\n      0x20\n      dup1\n      swap2\n      div\n      mul\n      0x20\n      add\n      mload(0x40)\n      swap1\n      dup2\n      add\n      0x40\n      mstore\n      dup1\n      swap3\n      swap2\n      swap1\n      dup2\n      dup2\n      mstore\n      0x20\n      add\n      dup3\n      dup1\n      sload\n      0x1\n      dup2\n      0x1\n      and\n      iszero\n      0x100\n      mul\n      sub\n      and\n      0x2\n      swap1\n      div\n      dup1\n      iszero\n      tag_167\n      jumpi\n      dup1\n      0x1f\n      lt\n      tag_168\n      jumpi\n      0x100\n      dup1\n      dup4\n      sload\n      div\n      mul\n      dup4\n      mstore\n      swap2\n      0x20\n      add\n      swap2\n      jump(tag_167)\n    tag_168:\n      dup3\n      add\n      swap2\n      swap1\n      0x0\n      mstore\n      keccak256(0x0, 0x20)\n      swap1\n    tag_169:\n      dup2\n      sload\n      dup2\n      mstore\n      swap1\n      0x1\n      add\n      swap1\n      0x20\n      add\n      dup1\n      dup4\n      gt\n      tag_169\n      jumpi\n      dup3\n      swap1\n      sub\n      0x1f\n      and\n      dup3\n      add\n      swap2\n    tag_167:\n      pop\n      pop\n      pop\n      pop\n      pop\n      swap2\n      pop\n      swap8\n      pop\n      swap8\n      pop\n      swap8\n      pop\n      swap8\n      pop\n      swap8\n      pop\n      swap8\n      pop\n      swap8\n      pop\n        /* \"contracts/ddddd.sol\":6742:7099  function searchUserformation(address _address) public view returns(string, string, string, string, string, string, address) {\r... */\n      pop\n      swap2\n      swap4\n      swap6\n      swap8\n      swap1\n      swap3\n      swap5\n      swap7\n      pop\n      jump\t// out\n        /* \"contracts/ddddd.sol\":1511:1539  uint256 public userCount = 0 */\n    tag_46:\n      sload(0x8)\n      dup2\n      jump\t// out\n        /* \"contracts/ddddd.sol\":1110:1137  address[] public doctorList */\n    tag_52:\n      0x2\n      dup2\n      dup2\n      sload\n      dup2\n      lt\n      iszero\n      iszero\n      tag_170\n      jumpi\n      invalid\n    tag_170:\n      swap1\n      0x0\n      mstore\n      keccak256(0x0, 0x20)\n      add\n      0x0\n      swap2\n      pop\n      sload\n      swap1\n      0x100\n      exp\n      swap1\n      div\n      0xffffffffffffffffffffffffffffffffffffffff\n      and\n      dup2\n      jump\t// out\n        /* \"contracts/ddddd.sol\":4452:4971  function editDoctor(address _doctor, string _uaeId, string _name, string _phone, string _gender, string _dob, string _qualification, string _major) public {\r... */\n    tag_59:\n        /* \"contracts/ddddd.sol\":4698:4703  var d */\n      0x0\n        /* \"contracts/ddddd.sol\":4640:4649  mohAdress */\n      0xc\n      0x0\n      swap1\n      sload\n      swap1\n      0x100\n      exp\n      swap1\n      div\n      0xffffffffffffffffffffffffffffffffffffffff\n      and\n        /* \"contracts/ddddd.sol\":4626:4649  msg.sender == mohAdress */\n      0xffffffffffffffffffffffffffffffffffffffff\n      and\n        /* \"contracts/ddddd.sol\":4626:4636  msg.sender */\n      caller\n        /* \"contracts/ddddd.sol\":4626:4649  msg.sender == mohAdress */\n      0xffffffffffffffffffffffffffffffffffffffff\n      and\n      eq\n        /* \"contracts/ddddd.sol\":4618:4650  require(msg.sender == mohAdress) */\n      iszero\n      iszero\n      tag_173\n      jumpi\n      0x0\n      dup1\n      revert\n    tag_173:\n        /* \"contracts/ddddd.sol\":4669:4677  isDoctor */\n      0x7\n        /* \"contracts/ddddd.sol\":4669:4686  isDoctor[_doctor] */\n      0x0\n        /* \"contracts/ddddd.sol\":4678:4685  _doctor */\n      dup11\n        /* \"contracts/ddddd.sol\":4669:4686  isDoctor[_doctor] */\n      0xffffffffffffffffffffffffffffffffffffffff\n      and\n      0xffffffffffffffffffffffffffffffffffffffff\n      and\n      dup2\n      mstore\n      0x20\n      add\n      swap1\n      dup2\n      mstore\n      0x20\n      add\n      0x0\n      keccak256\n      0x0\n      swap1\n      sload\n      swap1\n      0x100\n      exp\n      swap1\n      div\n      0xff\n      and\n        /* \"contracts/ddddd.sol\":4661:4687  require(isDoctor[_doctor]) */\n      iszero\n      iszero\n      tag_174\n      jumpi\n      0x0\n      dup1\n      revert\n    tag_174:\n        /* \"contracts/ddddd.sol\":4706:4712  doctor */\n      0x4\n        /* \"contracts/ddddd.sol\":4706:4721  doctor[_doctor] */\n      0x0\n        /* \"contracts/ddddd.sol\":4713:4720  _doctor */\n      dup11\n        /* \"contracts/ddddd.sol\":4706:4721  doctor[_doctor] */\n      0xffffffffffffffffffffffffffffffffffffffff\n      and\n      0xffffffffffffffffffffffffffffffffffffffff\n      and\n      dup2\n      mstore\n      0x20\n      add\n      swap1\n      dup2\n      mstore\n      0x20\n      add\n      0x0\n      keccak256\n        /* \"contracts/ddddd.sol\":4698:4721  var d = doctor[_doctor] */\n      swap1\n      pop\n        /* \"contracts/ddddd.sol\":4752:4758  _uaeId */\n      dup8\n        /* \"contracts/ddddd.sol\":4742:4743  d */\n      dup2\n        /* \"contracts/ddddd.sol\":4742:4749  d.uaeId */\n      0x0\n      add\n        /* \"contracts/ddddd.sol\":4742:4758  d.uaeId = _uaeId */\n      swap1\n      dup1\n      mload\n      swap1\n      0x20\n      add\n      swap1\n      tag_175\n      swap3\n      swap2\n      swap1\n      jump\t// in(tag_176)\n    tag_175:\n      pop\n        /* \"contracts/ddddd.sol\":4778:4783  _name */\n      dup7\n        /* \"contracts/ddddd.sol\":4769:4770  d */\n      dup2\n        /* \"contracts/ddddd.sol\":4769:4775  d.name */\n      0x1\n      add\n        /* \"contracts/ddddd.sol\":4769:4783  d.name = _name */\n      swap1\n      dup1\n      mload\n      swap1\n      0x20\n      add\n      swap1\n      tag_177\n      swap3\n      swap2\n      swap1\n      jump\t// in(tag_176)\n    tag_177:\n      pop\n        /* \"contracts/ddddd.sol\":4804:4810  _phone */\n      dup6\n        /* \"contracts/ddddd.sol\":4794:4795  d */\n      dup2\n        /* \"contracts/ddddd.sol\":4794:4801  d.phone */\n      0x2\n      add\n        /* \"contracts/ddddd.sol\":4794:4810  d.phone = _phone */\n      swap1\n      dup1\n      mload\n      swap1\n      0x20\n      add\n      swap1\n      tag_178\n      swap3\n      swap2\n      swap1\n      jump\t// in(tag_176)\n    tag_178:\n      pop\n        /* \"contracts/ddddd.sol\":4832:4839  _gender */\n      dup5\n        /* \"contracts/ddddd.sol\":4821:4822  d */\n      dup2\n        /* \"contracts/ddddd.sol\":4821:4829  d.gender */\n      0x3\n      add\n        /* \"contracts/ddddd.sol\":4821:4839  d.gender = _gender */\n      swap1\n      dup1\n      mload\n      swap1\n      0x20\n      add\n      swap1\n      tag_179\n      swap3\n      swap2\n      swap1\n      jump\t// in(tag_176)\n    tag_179:\n      pop\n        /* \"contracts/ddddd.sol\":4858:4862  _dob */\n      dup4\n        /* \"contracts/ddddd.sol\":4850:4851  d */\n      dup2\n        /* \"contracts/ddddd.sol\":4850:4855  d.dob */\n      0x4\n      add\n        /* \"contracts/ddddd.sol\":4850:4862  d.dob = _dob */\n      swap1\n      dup1\n      mload\n      swap1\n      0x20\n      add\n      swap1\n      tag_180\n      swap3\n      swap2\n      swap1\n      jump\t// in(tag_176)\n    tag_180:\n      pop\n        /* \"contracts/ddddd.sol\":4891:4905  _qualification */\n      dup3\n        /* \"contracts/ddddd.sol\":4873:4874  d */\n      dup2\n        /* \"contracts/ddddd.sol\":4873:4888  d.qualification */\n      0x7\n      add\n        /* \"contracts/ddddd.sol\":4873:4905  d.qualification = _qualification */\n      swap1\n      dup1\n      mload\n      swap1\n      0x20\n      add\n      swap1\n      tag_181\n      swap3\n      swap2\n      swap1\n      jump\t// in(tag_176)\n    tag_181:\n      pop\n        /* \"contracts/ddddd.sol\":4926:4932  _major */\n      dup2\n        /* \"contracts/ddddd.sol\":4916:4917  d */\n      dup2\n        /* \"contracts/ddddd.sol\":4916:4923  d.major */\n      0x8\n      add\n        /* \"contracts/ddddd.sol\":4916:4932  d.major = _major */\n      swap1\n      dup1\n      mload\n      swap1\n      0x20\n      add\n      swap1\n      tag_182\n      swap3\n      swap2\n      swap1\n      jump\t// in(tag_176)\n    tag_182:\n      pop\n        /* \"contracts/ddddd.sol\":4956:4963  _doctor */\n      dup9\n        /* \"contracts/ddddd.sol\":4943:4944  d */\n      dup2\n        /* \"contracts/ddddd.sol\":4943:4953  d.eAddress */\n      0x9\n      add\n      0x0\n        /* \"contracts/ddddd.sol\":4943:4963  d.eAddress = _doctor */\n      0x100\n      exp\n      dup2\n      sload\n      dup2\n      0xffffffffffffffffffffffffffffffffffffffff\n      mul\n      not\n      and\n      swap1\n      dup4\n      0xffffffffffffffffffffffffffffffffffffffff\n      and\n      mul\n      or\n      swap1\n      sstore\n      pop\n        /* \"contracts/ddddd.sol\":4452:4971  function editDoctor(address _doctor, string _uaeId, string _name, string _phone, string _gender, string _dob, string _qualification, string _major) public {\r... */\n      pop\n      pop\n      pop\n      pop\n      pop\n      pop\n      pop\n      pop\n      pop\n      jump\t// out\n        /* \"contracts/ddddd.sol\":3683:4444  function doctorRegistration(address _doctor, string _uaeId, string _name, string _phone, string _gender, string _dob, string _qualification, string _major) public {\r... */\n    tag_63:\n        /* \"contracts/ddddd.sol\":3938:3943  var d */\n      0x0\n        /* \"contracts/ddddd.sol\":3879:3888  mohAdress */\n      0xc\n      0x0\n      swap1\n      sload\n      swap1\n      0x100\n      exp\n      swap1\n      div\n      0xffffffffffffffffffffffffffffffffffffffff\n      and\n        /* \"contracts/ddddd.sol\":3865:3888  msg.sender == mohAdress */\n      0xffffffffffffffffffffffffffffffffffffffff\n      and\n        /* \"contracts/ddddd.sol\":3865:3875  msg.sender */\n      caller\n        /* \"contracts/ddddd.sol\":3865:3888  msg.sender == mohAdress */\n      0xffffffffffffffffffffffffffffffffffffffff\n      and\n      eq\n        /* \"contracts/ddddd.sol\":3857:3889  require(msg.sender == mohAdress) */\n      iszero\n      iszero\n      tag_184\n      jumpi\n      0x0\n      dup1\n      revert\n    tag_184:\n        /* \"contracts/ddddd.sol\":3909:3917  isDoctor */\n      0x7\n        /* \"contracts/ddddd.sol\":3909:3926  isDoctor[_doctor] */\n      0x0\n        /* \"contracts/ddddd.sol\":3918:3925  _doctor */\n      dup11\n        /* \"contracts/ddddd.sol\":3909:3926  isDoctor[_doctor] */\n      0xffffffffffffffffffffffffffffffffffffffff\n      and\n      0xffffffffffffffffffffffffffffffffffffffff\n      and\n      dup2\n      mstore\n      0x20\n      add\n      swap1\n      dup2\n      mstore\n      0x20\n      add\n      0x0\n      keccak256\n      0x0\n      swap1\n      sload\n      swap1\n      0x100\n      exp\n      swap1\n      div\n      0xff\n      and\n        /* \"contracts/ddddd.sol\":3908:3926  !isDoctor[_doctor] */\n      iszero\n        /* \"contracts/ddddd.sol\":3900:3927  require(!isDoctor[_doctor]) */\n      iszero\n      iszero\n      tag_185\n      jumpi\n      0x0\n      dup1\n      revert\n    tag_185:\n        /* \"contracts/ddddd.sol\":3946:3952  doctor */\n      0x4\n        /* \"contracts/ddddd.sol\":3946:3961  doctor[_doctor] */\n      0x0\n        /* \"contracts/ddddd.sol\":3953:3960  _doctor */\n      dup11\n        /* \"contracts/ddddd.sol\":3946:3961  doctor[_doctor] */\n      0xffffffffffffffffffffffffffffffffffffffff\n      and\n      0xffffffffffffffffffffffffffffffffffffffff\n      and\n      dup2\n      mstore\n      0x20\n      add\n      swap1\n      dup2\n      mstore\n      0x20\n      add\n      0x0\n      keccak256\n        /* \"contracts/ddddd.sol\":3938:3961  var d = doctor[_doctor] */\n      swap1\n      pop\n        /* \"contracts/ddddd.sol\":3992:3998  _uaeId */\n      dup8\n        /* \"contracts/ddddd.sol\":3982:3983  d */\n      dup2\n        /* \"contracts/ddddd.sol\":3982:3989  d.uaeId */\n      0x0\n      add\n        /* \"contracts/ddddd.sol\":3982:3998  d.uaeId = _uaeId */\n      swap1\n      dup1\n      mload\n      swap1\n      0x20\n      add\n      swap1\n      tag_186\n      swap3\n      swap2\n      swap1\n      jump\t// in(tag_176)\n    tag_186:\n      pop\n        /* \"contracts/ddddd.sol\":4018:4023  _name */\n      dup7\n        /* \"contracts/ddddd.sol\":4009:4010  d */\n      dup2\n        /* \"contracts/ddddd.sol\":4009:4015  d.name */\n      0x1\n      add\n        /* \"contracts/ddddd.sol\":4009:4023  d.name = _name */\n      swap1\n      dup1\n      mload\n      swap1\n      0x20\n      add\n      swap1\n      tag_187\n      swap3\n      swap2\n      swap1\n      jump\t// in(tag_176)\n    tag_187:\n      pop\n        /* \"contracts/ddddd.sol\":4044:4050  _phone */\n      dup6\n        /* \"contracts/ddddd.sol\":4034:4035  d */\n      dup2\n        /* \"contracts/ddddd.sol\":4034:4041  d.phone */\n      0x2\n      add\n        /* \"contracts/ddddd.sol\":4034:4050  d.phone = _phone */\n      swap1\n      dup1\n      mload\n      swap1\n      0x20\n      add\n      swap1\n      tag_188\n      swap3\n      swap2\n      swap1\n      jump\t// in(tag_176)\n    tag_188:\n      pop\n        /* \"contracts/ddddd.sol\":4072:4079  _gender */\n      dup5\n        /* \"contracts/ddddd.sol\":4061:4062  d */\n      dup2\n        /* \"contracts/ddddd.sol\":4061:4069  d.gender */\n      0x3\n      add\n        /* \"contracts/ddddd.sol\":4061:4079  d.gender = _gender */\n      swap1\n      dup1\n      mload\n      swap1\n      0x20\n      add\n      swap1\n      tag_189\n      swap3\n      swap2\n      swap1\n      jump\t// in(tag_176)\n    tag_189:\n      pop\n        /* \"contracts/ddddd.sol\":4098:4102  _dob */\n      dup4\n        /* \"contracts/ddddd.sol\":4090:4091  d */\n      dup2\n        /* \"contracts/ddddd.sol\":4090:4095  d.dob */\n      0x4\n      add\n        /* \"contracts/ddddd.sol\":4090:4102  d.dob = _dob */\n      swap1\n      dup1\n      mload\n      swap1\n      0x20\n      add\n      swap1\n      tag_190\n      swap3\n      swap2\n      swap1\n      jump\t// in(tag_176)\n    tag_190:\n      pop\n        /* \"contracts/ddddd.sol\":4131:4145  _qualification */\n      dup3\n        /* \"contracts/ddddd.sol\":4113:4114  d */\n      dup2\n        /* \"contracts/ddddd.sol\":4113:4128  d.qualification */\n      0x7\n      add\n        /* \"contracts/ddddd.sol\":4113:4145  d.qualification = _qualification */\n      swap1\n      dup1\n      mload\n      swap1\n      0x20\n      add\n      swap1\n      tag_191\n      swap3\n      swap2\n      swap1\n      jump\t// in(tag_176)\n    tag_191:\n      pop\n        /* \"contracts/ddddd.sol\":4166:4172  _major */\n      dup2\n        /* \"contracts/ddddd.sol\":4156:4157  d */\n      dup2\n        /* \"contracts/ddddd.sol\":4156:4163  d.major */\n      0x8\n      add\n        /* \"contracts/ddddd.sol\":4156:4172  d.major = _major */\n      swap1\n      dup1\n      mload\n      swap1\n      0x20\n      add\n      swap1\n      tag_192\n      swap3\n      swap2\n      swap1\n      jump\t// in(tag_176)\n    tag_192:\n      pop\n        /* \"contracts/ddddd.sol\":4196:4203  _doctor */\n      dup9\n        /* \"contracts/ddddd.sol\":4183:4184  d */\n      dup2\n        /* \"contracts/ddddd.sol\":4183:4193  d.eAddress */\n      0x9\n      add\n      0x0\n        /* \"contracts/ddddd.sol\":4183:4203  d.eAddress = _doctor */\n      0x100\n      exp\n      dup2\n      sload\n      dup2\n      0xffffffffffffffffffffffffffffffffffffffff\n      mul\n      not\n      and\n      swap1\n      dup4\n      0xffffffffffffffffffffffffffffffffffffffff\n      and\n      mul\n      or\n      swap1\n      sstore\n      pop\n        /* \"contracts/ddddd.sol\":4223:4238  block.timestamp */\n      timestamp\n        /* \"contracts/ddddd.sol\":4214:4215  d */\n      dup2\n        /* \"contracts/ddddd.sol\":4214:4220  d.date */\n      0xa\n      add\n        /* \"contracts/ddddd.sol\":4214:4238  d.date = block.timestamp */\n      dup2\n      swap1\n      sstore\n      pop\n        /* \"contracts/ddddd.sol\":4259:4269  doctorList */\n      0x2\n        /* \"contracts/ddddd.sol\":4275:4282  _doctor */\n      dup10\n        /* \"contracts/ddddd.sol\":4259:4283  doctorList.push(_doctor) */\n      swap1\n      dup1\n        /* \"--CODEGEN--\":39:40   */\n      0x1\n        /* \"--CODEGEN--\":33:36   */\n      dup2\n        /* \"--CODEGEN--\":27:37   */\n      sload\n        /* \"--CODEGEN--\":23:41   */\n      add\n        /* \"--CODEGEN--\":57:67   */\n      dup1\n        /* \"--CODEGEN--\":52:55   */\n      dup3\n        /* \"--CODEGEN--\":45:68   */\n      sstore\n        /* \"--CODEGEN--\":79:89   */\n      dup1\n        /* \"--CODEGEN--\":72:89   */\n      swap2\n      pop\n        /* \"--CODEGEN--\":0:93   */\n      pop\n        /* \"contracts/ddddd.sol\":4259:4283  doctorList.push(_doctor) */\n      swap1\n      0x1\n      dup3\n      sub\n      swap1\n      0x0\n      mstore\n      keccak256(0x0, 0x20)\n      add\n      0x0\n      swap1\n      swap2\n      swap3\n      swap1\n      swap2\n      swap1\n      swap2\n      0x100\n      exp\n      dup2\n      sload\n      dup2\n      0xffffffffffffffffffffffffffffffffffffffff\n      mul\n      not\n      and\n      swap1\n      dup4\n      0xffffffffffffffffffffffffffffffffffffffff\n      and\n      mul\n      or\n      swap1\n      sstore\n      pop\n      pop\n        /* \"contracts/ddddd.sol\":4314:4318  true */\n      0x1\n        /* \"contracts/ddddd.sol\":4294:4302  isDoctor */\n      0x7\n        /* \"contracts/ddddd.sol\":4294:4311  isDoctor[_doctor] */\n      0x0\n        /* \"contracts/ddddd.sol\":4303:4310  _doctor */\n      dup12\n        /* \"contracts/ddddd.sol\":4294:4311  isDoctor[_doctor] */\n      0xffffffffffffffffffffffffffffffffffffffff\n      and\n      0xffffffffffffffffffffffffffffffffffffffff\n      and\n      dup2\n      mstore\n      0x20\n      add\n      swap1\n      dup2\n      mstore\n      0x20\n      add\n      0x0\n      keccak256\n      0x0\n        /* \"contracts/ddddd.sol\":4294:4318  isDoctor[_doctor] = true */\n      0x100\n      exp\n      dup2\n      sload\n      dup2\n      0xff\n      mul\n      not\n      and\n      swap1\n      dup4\n      iszero\n      iszero\n      mul\n      or\n      swap1\n      sstore\n      pop\n        /* \"contracts/ddddd.sol\":4360:4364  true */\n      0x1\n        /* \"contracts/ddddd.sol\":4329:4339  isApproved */\n      0x5\n        /* \"contracts/ddddd.sol\":4329:4348  isApproved[_doctor] */\n      0x0\n        /* \"contracts/ddddd.sol\":4340:4347  _doctor */\n      dup12\n        /* \"contracts/ddddd.sol\":4329:4348  isApproved[_doctor] */\n      0xffffffffffffffffffffffffffffffffffffffff\n      and\n      0xffffffffffffffffffffffffffffffffffffffff\n      and\n      dup2\n      mstore\n      0x20\n      add\n      swap1\n      dup2\n      mstore\n      0x20\n      add\n      0x0\n      keccak256\n        /* \"contracts/ddddd.sol\":4329:4357  isApproved[_doctor][_doctor] */\n      0x0\n        /* \"contracts/ddddd.sol\":4349:4356  _doctor */\n      dup12\n        /* \"contracts/ddddd.sol\":4329:4357  isApproved[_doctor][_doctor] */\n      0xffffffffffffffffffffffffffffffffffffffff\n      and\n      0xffffffffffffffffffffffffffffffffffffffff\n      and\n      dup2\n      mstore\n      0x20\n      add\n      swap1\n      dup2\n      mstore\n      0x20\n      add\n      0x0\n      keccak256\n      0x0\n        /* \"contracts/ddddd.sol\":4329:4364  isApproved[_doctor][_doctor] = true */\n      0x100\n      exp\n      dup2\n      sload\n      dup2\n      0xff\n      mul\n      not\n      and\n      swap1\n      dup4\n      iszero\n      iszero\n      mul\n      or\n      swap1\n      sstore\n      pop\n        /* \"contracts/ddddd.sol\":4408:4412  true */\n      0x1\n        /* \"contracts/ddddd.sol\":4375:4385  isApproved */\n      0x5\n        /* \"contracts/ddddd.sol\":4375:4394  isApproved[_doctor] */\n      0x0\n        /* \"contracts/ddddd.sol\":4386:4393  _doctor */\n      dup12\n        /* \"contracts/ddddd.sol\":4375:4394  isApproved[_doctor] */\n      0xffffffffffffffffffffffffffffffffffffffff\n      and\n      0xffffffffffffffffffffffffffffffffffffffff\n      and\n      dup2\n      mstore\n      0x20\n      add\n      swap1\n      dup2\n      mstore\n      0x20\n      add\n      0x0\n      keccak256\n        /* \"contracts/ddddd.sol\":4375:4405  isApproved[_doctor][mohAdress] */\n      0x0\n        /* \"contracts/ddddd.sol\":4395:4404  mohAdress */\n      0xc\n      0x0\n      swap1\n      sload\n      swap1\n      0x100\n      exp\n      swap1\n      div\n      0xffffffffffffffffffffffffffffffffffffffff\n      and\n        /* \"contracts/ddddd.sol\":4375:4405  isApproved[_doctor][mohAdress] */\n      0xffffffffffffffffffffffffffffffffffffffff\n      and\n      0xffffffffffffffffffffffffffffffffffffffff\n      and\n      dup2\n      mstore\n      0x20\n      add\n      swap1\n      dup2\n      mstore\n      0x20\n      add\n      0x0\n      keccak256\n      0x0\n        /* \"contracts/ddddd.sol\":4375:4412  isApproved[_doctor][mohAdress] = true */\n      0x100\n      exp\n      dup2\n      sload\n      dup2\n      0xff\n      mul\n      not\n      and\n      swap1\n      dup4\n      iszero\n      iszero\n      mul\n      or\n      swap1\n      sstore\n      pop\n        /* \"contracts/ddddd.sol\":4423:4434  doctorCount */\n      0x9\n      0x0\n        /* \"contracts/ddddd.sol\":4423:4436  doctorCount++ */\n      dup2\n      sload\n      dup1\n      swap3\n      swap2\n      swap1\n      0x1\n      add\n      swap2\n      swap1\n      pop\n      sstore\n      pop\n        /* \"contracts/ddddd.sol\":3683:4444  function doctorRegistration(address _doctor, string _uaeId, string _name, string _phone, string _gender, string _dob, string _qualification, string _major) public {\r... */\n      pop\n      pop\n      pop\n      pop\n      pop\n      pop\n      pop\n      pop\n      pop\n      jump\t// out\n        /* \"contracts/ddddd.sol\":5689:5880  function givePermissionByUser(address _address) public returns(bool success) {\r... */\n    tag_67:\n        /* \"contracts/ddddd.sol\":5752:5764  bool success */\n      0x0\n        /* \"contracts/ddddd.sol\":5812:5816  true */\n      0x1\n        /* \"contracts/ddddd.sol\":5777:5787  isApproved */\n      0x5\n        /* \"contracts/ddddd.sol\":5777:5799  isApproved[msg.sender] */\n      0x0\n        /* \"contracts/ddddd.sol\":5788:5798  msg.sender */\n      caller\n        /* \"contracts/ddddd.sol\":5777:5799  isApproved[msg.sender] */\n      0xffffffffffffffffffffffffffffffffffffffff\n      and\n      0xffffffffffffffffffffffffffffffffffffffff\n      and\n      dup2\n      mstore\n      0x20\n      add\n      swap1\n      dup2\n      mstore\n      0x20\n      add\n      0x0\n      keccak256\n        /* \"contracts/ddddd.sol\":5777:5809  isApproved[msg.sender][_address] */\n      0x0\n        /* \"contracts/ddddd.sol\":5800:5808  _address */\n      dup5\n        /* \"contracts/ddddd.sol\":5777:5809  isApproved[msg.sender][_address] */\n      0xffffffffffffffffffffffffffffffffffffffff\n      and\n      0xffffffffffffffffffffffffffffffffffffffff\n      and\n      dup2\n      mstore\n      0x20\n      add\n      swap1\n      dup2\n      mstore\n      0x20\n      add\n      0x0\n      keccak256\n      0x0\n        /* \"contracts/ddddd.sol\":5777:5816  isApproved[msg.sender][_address] = true */\n      0x100\n      exp\n      dup2\n      sload\n      dup2\n      0xff\n      mul\n      not\n      and\n      swap1\n      dup4\n      iszero\n      iszero\n      mul\n      or\n      swap1\n      sstore\n      pop\n        /* \"contracts/ddddd.sol\":5827:5848  userPermissionCounter */\n      0xb\n      0x0\n        /* \"contracts/ddddd.sol\":5827:5850  userPermissionCounter++ */\n      dup2\n      sload\n      dup1\n      swap3\n      swap2\n      swap1\n      0x1\n      add\n      swap2\n      swap1\n      pop\n      sstore\n      pop\n        /* \"contracts/ddddd.sol\":5868:5872  true */\n      0x1\n        /* \"contracts/ddddd.sol\":5861:5872  return true */\n      swap1\n      pop\n        /* \"contracts/ddddd.sol\":5689:5880  function givePermissionByUser(address _address) public returns(bool success) {\r... */\n      swap2\n      swap1\n      pop\n      jump\t// out\n        /* \"contracts/ddddd.sol\":6150:6308  function userRevokePermission(address _address) public returns(bool success) {\r... */\n    tag_73:\n        /* \"contracts/ddddd.sol\":6213:6225  bool success */\n      0x0\n        /* \"contracts/ddddd.sol\":6273:6278  false */\n      dup1\n        /* \"contracts/ddddd.sol\":6238:6248  isApproved */\n      0x5\n        /* \"contracts/ddddd.sol\":6238:6260  isApproved[msg.sender] */\n      0x0\n        /* \"contracts/ddddd.sol\":6249:6259  msg.sender */\n      caller\n        /* \"contracts/ddddd.sol\":6238:6260  isApproved[msg.sender] */\n      0xffffffffffffffffffffffffffffffffffffffff\n      and\n      0xffffffffffffffffffffffffffffffffffffffff\n      and\n      dup2\n      mstore\n      0x20\n      add\n      swap1\n      dup2\n      mstore\n      0x20\n      add\n      0x0\n      keccak256\n        /* \"contracts/ddddd.sol\":6238:6270  isApproved[msg.sender][_address] */\n      0x0\n        /* \"contracts/ddddd.sol\":6261:6269  _address */\n      dup5\n        /* \"contracts/ddddd.sol\":6238:6270  isApproved[msg.sender][_address] */\n      0xffffffffffffffffffffffffffffffffffffffff\n      and\n      0xffffffffffffffffffffffffffffffffffffffff\n      and\n      dup2\n      mstore\n      0x20\n      add\n      swap1\n      dup2\n      mstore\n      0x20\n      add\n      0x0\n      keccak256\n      0x0\n        /* \"contracts/ddddd.sol\":6238:6278  isApproved[msg.sender][_address] = false */\n      0x100\n      exp\n      dup2\n      sload\n      dup2\n      0xff\n      mul\n      not\n      and\n      swap1\n      dup4\n      iszero\n      iszero\n      mul\n      or\n      swap1\n      sstore\n      pop\n        /* \"contracts/ddddd.sol\":6296:6300  true */\n      0x1\n        /* \"contracts/ddddd.sol\":6289:6300  return true */\n      swap1\n      pop\n        /* \"contracts/ddddd.sol\":6150:6308  function userRevokePermission(address _address) public returns(bool success) {\r... */\n      swap2\n      swap1\n      pop\n      jump\t// out\n        /* \"contracts/ddddd.sol\":1933:3042  function userRegistration(address _user, string _uaeId, string _name, string _phone, string _gender, string _dob, string _addr, string _email, string _nomineeName, string _nomineeContact) public {\r... */\n    tag_79:\n        /* \"contracts/ddddd.sol\":2216:2221  var u */\n      0x0\n        /* \"contracts/ddddd.sol\":2161:2170  mohAdress */\n      0xc\n      0x0\n      swap1\n      sload\n      swap1\n      0x100\n      exp\n      swap1\n      div\n      0xffffffffffffffffffffffffffffffffffffffff\n      and\n        /* \"contracts/ddddd.sol\":2147:2170  msg.sender == mohAdress */\n      0xffffffffffffffffffffffffffffffffffffffff\n      and\n        /* \"contracts/ddddd.sol\":2147:2157  msg.sender */\n      caller\n        /* \"contracts/ddddd.sol\":2147:2170  msg.sender == mohAdress */\n      0xffffffffffffffffffffffffffffffffffffffff\n      and\n      eq\n        /* \"contracts/ddddd.sol\":2139:2171  require(msg.sender == mohAdress) */\n      iszero\n      iszero\n      tag_197\n      jumpi\n      0x0\n      dup1\n      revert\n    tag_197:\n        /* \"contracts/ddddd.sol\":2191:2197  isUser */\n      0x6\n        /* \"contracts/ddddd.sol\":2191:2204  isUser[_user] */\n      0x0\n        /* \"contracts/ddddd.sol\":2198:2203  _user */\n      dup13\n        /* \"contracts/ddddd.sol\":2191:2204  isUser[_user] */\n      0xffffffffffffffffffffffffffffffffffffffff\n      and\n      0xffffffffffffffffffffffffffffffffffffffff\n      and\n      dup2\n      mstore\n      0x20\n      add\n      swap1\n      dup2\n      mstore\n      0x20\n      add\n      0x0\n      keccak256\n      0x0\n      swap1\n      sload\n      swap1\n      0x100\n      exp\n      swap1\n      div\n      0xff\n      and\n        /* \"contracts/ddddd.sol\":2190:2204  !isUser[_user] */\n      iszero\n        /* \"contracts/ddddd.sol\":2182:2205  require(!isUser[_user]) */\n      iszero\n      iszero\n      tag_198\n      jumpi\n      0x0\n      dup1\n      revert\n    tag_198:\n        /* \"contracts/ddddd.sol\":2224:2228  user */\n      0x3\n        /* \"contracts/ddddd.sol\":2224:2235  user[_user] */\n      0x0\n        /* \"contracts/ddddd.sol\":2229:2234  _user */\n      dup13\n        /* \"contracts/ddddd.sol\":2224:2235  user[_user] */\n      0xffffffffffffffffffffffffffffffffffffffff\n      and\n      0xffffffffffffffffffffffffffffffffffffffff\n      and\n      dup2\n      mstore\n      0x20\n      add\n      swap1\n      dup2\n      mstore\n      0x20\n      add\n      0x0\n      keccak256\n        /* \"contracts/ddddd.sol\":2216:2235  var u = user[_user] */\n      swap1\n      pop\n        /* \"contracts/ddddd.sol\":2266:2272  _uaeId */\n      dup10\n        /* \"contracts/ddddd.sol\":2256:2257  u */\n      dup2\n        /* \"contracts/ddddd.sol\":2256:2263  u.uaeId */\n      0x0\n      add\n        /* \"contracts/ddddd.sol\":2256:2272  u.uaeId = _uaeId */\n      swap1\n      dup1\n      mload\n      swap1\n      0x20\n      add\n      swap1\n      tag_199\n      swap3\n      swap2\n      swap1\n      jump\t// in(tag_176)\n    tag_199:\n      pop\n        /* \"contracts/ddddd.sol\":2292:2297  _name */\n      dup9\n        /* \"contracts/ddddd.sol\":2283:2284  u */\n      dup2\n        /* \"contracts/ddddd.sol\":2283:2289  u.name */\n      0x1\n      add\n        /* \"contracts/ddddd.sol\":2283:2297  u.name = _name */\n      swap1\n      dup1\n      mload\n      swap1\n      0x20\n      add\n      swap1\n      tag_200\n      swap3\n      swap2\n      swap1\n      jump\t// in(tag_176)\n    tag_200:\n      pop\n        /* \"contracts/ddddd.sol\":2318:2324  _phone */\n      dup8\n        /* \"contracts/ddddd.sol\":2308:2309  u */\n      dup2\n        /* \"contracts/ddddd.sol\":2308:2315  u.phone */\n      0x2\n      add\n        /* \"contracts/ddddd.sol\":2308:2324  u.phone = _phone */\n      swap1\n      dup1\n      mload\n      swap1\n      0x20\n      add\n      swap1\n      tag_201\n      swap3\n      swap2\n      swap1\n      jump\t// in(tag_176)\n    tag_201:\n      pop\n        /* \"contracts/ddddd.sol\":2346:2353  _gender */\n      dup7\n        /* \"contracts/ddddd.sol\":2335:2336  u */\n      dup2\n        /* \"contracts/ddddd.sol\":2335:2343  u.gender */\n      0x3\n      add\n        /* \"contracts/ddddd.sol\":2335:2353  u.gender = _gender */\n      swap1\n      dup1\n      mload\n      swap1\n      0x20\n      add\n      swap1\n      tag_202\n      swap3\n      swap2\n      swap1\n      jump\t// in(tag_176)\n    tag_202:\n      pop\n        /* \"contracts/ddddd.sol\":2372:2376  _dob */\n      dup6\n        /* \"contracts/ddddd.sol\":2364:2365  u */\n      dup2\n        /* \"contracts/ddddd.sol\":2364:2369  u.dob */\n      0x4\n      add\n        /* \"contracts/ddddd.sol\":2364:2376  u.dob = _dob */\n      swap1\n      dup1\n      mload\n      swap1\n      0x20\n      add\n      swap1\n      tag_203\n      swap3\n      swap2\n      swap1\n      jump\t// in(tag_176)\n    tag_203:\n      pop\n        /* \"contracts/ddddd.sol\":2396:2401  _addr */\n      dup5\n        /* \"contracts/ddddd.sol\":2387:2388  u */\n      dup2\n        /* \"contracts/ddddd.sol\":2387:2393  u.addr */\n      0x5\n      add\n        /* \"contracts/ddddd.sol\":2387:2401  u.addr = _addr */\n      swap1\n      dup1\n      mload\n      swap1\n      0x20\n      add\n      swap1\n      tag_204\n      swap3\n      swap2\n      swap1\n      jump\t// in(tag_176)\n    tag_204:\n      pop\n        /* \"contracts/ddddd.sol\":2422:2428  _email */\n      dup4\n        /* \"contracts/ddddd.sol\":2412:2413  u */\n      dup2\n        /* \"contracts/ddddd.sol\":2412:2419  u.email */\n      0x6\n      add\n        /* \"contracts/ddddd.sol\":2412:2428  u.email = _email */\n      swap1\n      dup1\n      mload\n      swap1\n      0x20\n      add\n      swap1\n      tag_205\n      swap3\n      swap2\n      swap1\n      jump\t// in(tag_176)\n    tag_205:\n      pop\n        /* \"contracts/ddddd.sol\":2455:2467  _nomineeName */\n      dup3\n        /* \"contracts/ddddd.sol\":2439:2440  u */\n      dup2\n        /* \"contracts/ddddd.sol\":2439:2452  u.nomineeName */\n      0x7\n      add\n        /* \"contracts/ddddd.sol\":2439:2467  u.nomineeName = _nomineeName */\n      swap1\n      dup1\n      mload\n      swap1\n      0x20\n      add\n      swap1\n      tag_206\n      swap3\n      swap2\n      swap1\n      jump\t// in(tag_176)\n    tag_206:\n      pop\n        /* \"contracts/ddddd.sol\":2497:2512  _nomineeContact */\n      dup2\n        /* \"contracts/ddddd.sol\":2478:2479  u */\n      dup2\n        /* \"contracts/ddddd.sol\":2478:2494  u.nomineeContact */\n      0x8\n      add\n        /* \"contracts/ddddd.sol\":2478:2512  u.nomineeContact = _nomineeContact */\n      swap1\n      dup1\n      mload\n      swap1\n      0x20\n      add\n      swap1\n      tag_207\n      swap3\n      swap2\n      swap1\n      jump\t// in(tag_176)\n    tag_207:\n      pop\n        /* \"contracts/ddddd.sol\":2536:2541  _user */\n      dup11\n        /* \"contracts/ddddd.sol\":2523:2524  u */\n      dup2\n        /* \"contracts/ddddd.sol\":2523:2533  u.eAddress */\n      0x9\n      add\n      0x0\n        /* \"contracts/ddddd.sol\":2523:2541  u.eAddress = _user */\n      0x100\n      exp\n      dup2\n      sload\n      dup2\n      0xffffffffffffffffffffffffffffffffffffffff\n      mul\n      not\n      and\n      swap1\n      dup4\n      0xffffffffffffffffffffffffffffffffffffffff\n      and\n      mul\n      or\n      swap1\n      sstore\n      pop\n        /* \"contracts/ddddd.sol\":2561:2576  block.timestamp */\n      timestamp\n        /* \"contracts/ddddd.sol\":2552:2553  u */\n      dup2\n        /* \"contracts/ddddd.sol\":2552:2558  u.date */\n      0xa\n      add\n        /* \"contracts/ddddd.sol\":2552:2576  u.date = block.timestamp */\n      dup2\n      swap1\n      sstore\n      pop\n        /* \"contracts/ddddd.sol\":2597:2605  userList */\n      0x1\n        /* \"contracts/ddddd.sol\":2611:2616  _user */\n      dup12\n        /* \"contracts/ddddd.sol\":2597:2617  userList.push(_user) */\n      swap1\n      dup1\n        /* \"--CODEGEN--\":39:40   */\n      0x1\n        /* \"--CODEGEN--\":33:36   */\n      dup2\n        /* \"--CODEGEN--\":27:37   */\n      sload\n        /* \"--CODEGEN--\":23:41   */\n      add\n        /* \"--CODEGEN--\":57:67   */\n      dup1\n        /* \"--CODEGEN--\":52:55   */\n      dup3\n        /* \"--CODEGEN--\":45:68   */\n      sstore\n        /* \"--CODEGEN--\":79:89   */\n      dup1\n        /* \"--CODEGEN--\":72:89   */\n      swap2\n      pop\n        /* \"--CODEGEN--\":0:93   */\n      pop\n        /* \"contracts/ddddd.sol\":2597:2617  userList.push(_user) */\n      swap1\n      0x1\n      dup3\n      sub\n      swap1\n      0x0\n      mstore\n      keccak256(0x0, 0x20)\n      add\n      0x0\n      swap1\n      swap2\n      swap3\n      swap1\n      swap2\n      swap1\n      swap2\n      0x100\n      exp\n      dup2\n      sload\n      dup2\n      0xffffffffffffffffffffffffffffffffffffffff\n      mul\n      not\n      and\n      swap1\n      dup4\n      0xffffffffffffffffffffffffffffffffffffffff\n      and\n      mul\n      or\n      swap1\n      sstore\n      pop\n      pop\n        /* \"contracts/ddddd.sol\":2644:2648  true */\n      0x1\n        /* \"contracts/ddddd.sol\":2628:2634  isUser */\n      0x6\n        /* \"contracts/ddddd.sol\":2628:2641  isUser[_user] */\n      0x0\n        /* \"contracts/ddddd.sol\":2635:2640  _user */\n      dup14\n        /* \"contracts/ddddd.sol\":2628:2641  isUser[_user] */\n      0xffffffffffffffffffffffffffffffffffffffff\n      and\n      0xffffffffffffffffffffffffffffffffffffffff\n      and\n      dup2\n      mstore\n      0x20\n      add\n      swap1\n      dup2\n      mstore\n      0x20\n      add\n      0x0\n      keccak256\n      0x0\n        /* \"contracts/ddddd.sol\":2628:2648  isUser[_user] = true */\n      0x100\n      exp\n      dup2\n      sload\n      dup2\n      0xff\n      mul\n      not\n      and\n      swap1\n      dup4\n      iszero\n      iszero\n      mul\n      or\n      swap1\n      sstore\n      pop\n        /* \"contracts/ddddd.sol\":2686:2690  true */\n      0x1\n        /* \"contracts/ddddd.sol\":2659:2669  isApproved */\n      0x5\n        /* \"contracts/ddddd.sol\":2659:2676  isApproved[_user] */\n      0x0\n        /* \"contracts/ddddd.sol\":2670:2675  _user */\n      dup14\n        /* \"contracts/ddddd.sol\":2659:2676  isApproved[_user] */\n      0xffffffffffffffffffffffffffffffffffffffff\n      and\n      0xffffffffffffffffffffffffffffffffffffffff\n      and\n      dup2\n      mstore\n      0x20\n      add\n      swap1\n      dup2\n      mstore\n      0x20\n      add\n      0x0\n      keccak256\n        /* \"contracts/ddddd.sol\":2659:2683  isApproved[_user][_user] */\n      0x0\n        /* \"contracts/ddddd.sol\":2677:2682  _user */\n      dup14\n        /* \"contracts/ddddd.sol\":2659:2683  isApproved[_user][_user] */\n      0xffffffffffffffffffffffffffffffffffffffff\n      and\n      0xffffffffffffffffffffffffffffffffffffffff\n      and\n      dup2\n      mstore\n      0x20\n      add\n      swap1\n      dup2\n      mstore\n      0x20\n      add\n      0x0\n      keccak256\n      0x0\n        /* \"contracts/ddddd.sol\":2659:2690  isApproved[_user][_user] = true */\n      0x100\n      exp\n      dup2\n      sload\n      dup2\n      0xff\n      mul\n      not\n      and\n      swap1\n      dup4\n      iszero\n      iszero\n      mul\n      or\n      swap1\n      sstore\n      pop\n        /* \"contracts/ddddd.sol\":2732:2736  true */\n      0x1\n        /* \"contracts/ddddd.sol\":2701:2711  isApproved */\n      0x5\n        /* \"contracts/ddddd.sol\":2701:2718  isApproved[_user] */\n      0x0\n        /* \"contracts/ddddd.sol\":2712:2717  _user */\n      dup14\n        /* \"contracts/ddddd.sol\":2701:2718  isApproved[_user] */\n      0xffffffffffffffffffffffffffffffffffffffff\n      and\n      0xffffffffffffffffffffffffffffffffffffffff\n      and\n      dup2\n      mstore\n      0x20\n      add\n      swap1\n      dup2\n      mstore\n      0x20\n      add\n      0x0\n      keccak256\n        /* \"contracts/ddddd.sol\":2701:2729  isApproved[_user][mohAdress] */\n      0x0\n        /* \"contracts/ddddd.sol\":2719:2728  mohAdress */\n      0xc\n      0x0\n      swap1\n      sload\n      swap1\n      0x100\n      exp\n      swap1\n      div\n      0xffffffffffffffffffffffffffffffffffffffff\n      and\n        /* \"contracts/ddddd.sol\":2701:2729  isApproved[_user][mohAdress] */\n      0xffffffffffffffffffffffffffffffffffffffff\n      and\n      0xffffffffffffffffffffffffffffffffffffffff\n      and\n      dup2\n      mstore\n      0x20\n      add\n      swap1\n      dup2\n      mstore\n      0x20\n      add\n      0x0\n      keccak256\n      0x0\n        /* \"contracts/ddddd.sol\":2701:2736  isApproved[_user][mohAdress] = true */\n      0x100\n      exp\n      dup2\n      sload\n      dup2\n      0xff\n      mul\n      not\n      and\n      swap1\n      dup4\n      iszero\n      iszero\n      mul\n      or\n      swap1\n      sstore\n      pop\n        /* \"contracts/ddddd.sol\":2747:2756  userCount */\n      0x8\n      0x0\n        /* \"contracts/ddddd.sol\":2747:2758  userCount++ */\n      dup2\n      sload\n      dup1\n      swap3\n      swap2\n      swap1\n      0x1\n      add\n      swap2\n      swap1\n      pop\n      sstore\n      pop\n        /* \"contracts/ddddd.sol\":1933:3042  function userRegistration(address _user, string _uaeId, string _name, string _phone, string _gender, string _dob, string _addr, string _email, string _nomineeName, string _nomineeContact) public {\r... */\n      pop\n      pop\n      pop\n      pop\n      pop\n      pop\n      pop\n      pop\n      pop\n      pop\n      pop\n      jump\t// out\n        /* \"contracts/ddddd.sol\":3066:3675  function editUser(address _user, string _uaeId, string _name, string _phone, string _gender, string _dob, string _addr, string _email, string _nomineeName, string _nomineeContact) public {\r... */\n    tag_83:\n        /* \"contracts/ddddd.sol\":3340:3345  var u */\n      0x0\n        /* \"contracts/ddddd.sol\":3286:3295  mohAdress */\n      0xc\n      0x0\n      swap1\n      sload\n      swap1\n      0x100\n      exp\n      swap1\n      div\n      0xffffffffffffffffffffffffffffffffffffffff\n      and\n        /* \"contracts/ddddd.sol\":3272:3295  msg.sender == mohAdress */\n      0xffffffffffffffffffffffffffffffffffffffff\n      and\n        /* \"contracts/ddddd.sol\":3272:3282  msg.sender */\n      caller\n        /* \"contracts/ddddd.sol\":3272:3295  msg.sender == mohAdress */\n      0xffffffffffffffffffffffffffffffffffffffff\n      and\n      eq\n        /* \"contracts/ddddd.sol\":3264:3296  require(msg.sender == mohAdress) */\n      iszero\n      iszero\n      tag_210\n      jumpi\n      0x0\n      dup1\n      revert\n    tag_210:\n        /* \"contracts/ddddd.sol\":3315:3321  isUser */\n      0x6\n        /* \"contracts/ddddd.sol\":3315:3328  isUser[_user] */\n      0x0\n        /* \"contracts/ddddd.sol\":3322:3327  _user */\n      dup13\n        /* \"contracts/ddddd.sol\":3315:3328  isUser[_user] */\n      0xffffffffffffffffffffffffffffffffffffffff\n      and\n      0xffffffffffffffffffffffffffffffffffffffff\n      and\n      dup2\n      mstore\n      0x20\n      add\n      swap1\n      dup2\n      mstore\n      0x20\n      add\n      0x0\n      keccak256\n      0x0\n      swap1\n      sload\n      swap1\n      0x100\n      exp\n      swap1\n      div\n      0xff\n      and\n        /* \"contracts/ddddd.sol\":3307:3329  require(isUser[_user]) */\n      iszero\n      iszero\n      tag_211\n      jumpi\n      0x0\n      dup1\n      revert\n    tag_211:\n        /* \"contracts/ddddd.sol\":3348:3352  user */\n      0x3\n        /* \"contracts/ddddd.sol\":3348:3359  user[_user] */\n      0x0\n        /* \"contracts/ddddd.sol\":3353:3358  _user */\n      dup13\n        /* \"contracts/ddddd.sol\":3348:3359  user[_user] */\n      0xffffffffffffffffffffffffffffffffffffffff\n      and\n      0xffffffffffffffffffffffffffffffffffffffff\n      and\n      dup2\n      mstore\n      0x20\n      add\n      swap1\n      dup2\n      mstore\n      0x20\n      add\n      0x0\n      keccak256\n        /* \"contracts/ddddd.sol\":3340:3359  var u = user[_user] */\n      swap1\n      pop\n        /* \"contracts/ddddd.sol\":3390:3396  _uaeId */\n      dup10\n        /* \"contracts/ddddd.sol\":3380:3381  u */\n      dup2\n        /* \"contracts/ddddd.sol\":3380:3387  u.uaeId */\n      0x0\n      add\n        /* \"contracts/ddddd.sol\":3380:3396  u.uaeId = _uaeId */\n      swap1\n      dup1\n      mload\n      swap1\n      0x20\n      add\n      swap1\n      tag_212\n      swap3\n      swap2\n      swap1\n      jump\t// in(tag_176)\n    tag_212:\n      pop\n        /* \"contracts/ddddd.sol\":3416:3421  _name */\n      dup9\n        /* \"contracts/ddddd.sol\":3407:3408  u */\n      dup2\n        /* \"contracts/ddddd.sol\":3407:3413  u.name */\n      0x1\n      add\n        /* \"contracts/ddddd.sol\":3407:3421  u.name = _name */\n      swap1\n      dup1\n      mload\n      swap1\n      0x20\n      add\n      swap1\n      tag_213\n      swap3\n      swap2\n      swap1\n      jump\t// in(tag_176)\n    tag_213:\n      pop\n        /* \"contracts/ddddd.sol\":3442:3448  _phone */\n      dup8\n        /* \"contracts/ddddd.sol\":3432:3433  u */\n      dup2\n        /* \"contracts/ddddd.sol\":3432:3439  u.phone */\n      0x2\n      add\n        /* \"contracts/ddddd.sol\":3432:3448  u.phone = _phone */\n      swap1\n      dup1\n      mload\n      swap1\n      0x20\n      add\n      swap1\n      tag_214\n      swap3\n      swap2\n      swap1\n      jump\t// in(tag_176)\n    tag_214:\n      pop\n        /* \"contracts/ddddd.sol\":3470:3477  _gender */\n      dup7\n        /* \"contracts/ddddd.sol\":3459:3460  u */\n      dup2\n        /* \"contracts/ddddd.sol\":3459:3467  u.gender */\n      0x3\n      add\n        /* \"contracts/ddddd.sol\":3459:3477  u.gender = _gender */\n      swap1\n      dup1\n      mload\n      swap1\n      0x20\n      add\n      swap1\n      tag_215\n      swap3\n      swap2\n      swap1\n      jump\t// in(tag_176)\n    tag_215:\n      pop\n        /* \"contracts/ddddd.sol\":3496:3500  _dob */\n      dup6\n        /* \"contracts/ddddd.sol\":3488:3489  u */\n      dup2\n        /* \"contracts/ddddd.sol\":3488:3493  u.dob */\n      0x4\n      add\n        /* \"contracts/ddddd.sol\":3488:3500  u.dob = _dob */\n      swap1\n      dup1\n      mload\n      swap1\n      0x20\n      add\n      swap1\n      tag_216\n      swap3\n      swap2\n      swap1\n      jump\t// in(tag_176)\n    tag_216:\n      pop\n        /* \"contracts/ddddd.sol\":3520:3525  _addr */\n      dup5\n        /* \"contracts/ddddd.sol\":3511:3512  u */\n      dup2\n        /* \"contracts/ddddd.sol\":3511:3517  u.addr */\n      0x5\n      add\n        /* \"contracts/ddddd.sol\":3511:3525  u.addr = _addr */\n      swap1\n      dup1\n      mload\n      swap1\n      0x20\n      add\n      swap1\n      tag_217\n      swap3\n      swap2\n      swap1\n      jump\t// in(tag_176)\n    tag_217:\n      pop\n        /* \"contracts/ddddd.sol\":3546:3552  _email */\n      dup4\n        /* \"contracts/ddddd.sol\":3536:3537  u */\n      dup2\n        /* \"contracts/ddddd.sol\":3536:3543  u.email */\n      0x6\n      add\n        /* \"contracts/ddddd.sol\":3536:3552  u.email = _email */\n      swap1\n      dup1\n      mload\n      swap1\n      0x20\n      add\n      swap1\n      tag_218\n      swap3\n      swap2\n      swap1\n      jump\t// in(tag_176)\n    tag_218:\n      pop\n        /* \"contracts/ddddd.sol\":3579:3591  _nomineeName */\n      dup3\n        /* \"contracts/ddddd.sol\":3563:3564  u */\n      dup2\n        /* \"contracts/ddddd.sol\":3563:3576  u.nomineeName */\n      0x7\n      add\n        /* \"contracts/ddddd.sol\":3563:3591  u.nomineeName = _nomineeName */\n      swap1\n      dup1\n      mload\n      swap1\n      0x20\n      add\n      swap1\n      tag_219\n      swap3\n      swap2\n      swap1\n      jump\t// in(tag_176)\n    tag_219:\n      pop\n        /* \"contracts/ddddd.sol\":3621:3636  _nomineeContact */\n      dup2\n        /* \"contracts/ddddd.sol\":3602:3603  u */\n      dup2\n        /* \"contracts/ddddd.sol\":3602:3618  u.nomineeContact */\n      0x8\n      add\n        /* \"contracts/ddddd.sol\":3602:3636  u.nomineeContact = _nomineeContact */\n      swap1\n      dup1\n      mload\n      swap1\n      0x20\n      add\n      swap1\n      tag_220\n      swap3\n      swap2\n      swap1\n      jump\t// in(tag_176)\n    tag_220:\n      pop\n        /* \"contracts/ddddd.sol\":3660:3665  _user */\n      dup11\n        /* \"contracts/ddddd.sol\":3647:3648  u */\n      dup2\n        /* \"contracts/ddddd.sol\":3647:3657  u.eAddress */\n      0x9\n      add\n      0x0\n        /* \"contracts/ddddd.sol\":3647:3665  u.eAddress = _user */\n      0x100\n      exp\n      dup2\n      sload\n      dup2\n      0xffffffffffffffffffffffffffffffffffffffff\n      mul\n      not\n      and\n      swap1\n      dup4\n      0xffffffffffffffffffffffffffffffffffffffff\n      and\n      mul\n      or\n      swap1\n      sstore\n      pop\n        /* \"contracts/ddddd.sol\":3066:3675  function editUser(address _user, string _uaeId, string _name, string _phone, string _gender, string _dob, string _addr, string _email, string _nomineeName, string _nomineeContact) public {\r... */\n      pop\n      pop\n      pop\n      pop\n      pop\n      pop\n      pop\n      pop\n      pop\n      pop\n      pop\n      jump\t// out\n        /* \"contracts/ddddd.sol\":1546:1576  uint256 public doctorCount = 0 */\n    tag_86:\n      sload(0x9)\n      dup2\n      jump\t// out\n        /* \"contracts/ddddd.sol\":7878:7970  function getDoctorCount() public view returns(uint256) {\r... */\n    tag_90:\n        /* \"contracts/ddddd.sol\":7924:7931  uint256 */\n      0x0\n        /* \"contracts/ddddd.sol\":7951:7962  doctorCount */\n      sload(0x9)\n        /* \"contracts/ddddd.sol\":7944:7962  return doctorCount */\n      swap1\n      pop\n        /* \"contracts/ddddd.sol\":7878:7970  function getDoctorCount() public view returns(uint256) {\r... */\n      swap1\n      jump\t// out\n        /* \"contracts/ddddd.sol\":1051:1071  address public owner */\n    tag_94:\n      0x0\n      dup1\n      swap1\n      sload\n      swap1\n      0x100\n      exp\n      swap1\n      div\n      0xffffffffffffffffffffffffffffffffffffffff\n      and\n      dup2\n      jump\t// out\n        /* \"contracts/ddddd.sol\":1813:1921  function ownerAddress() public returns(address) {\r... */\n    tag_98:\n        /* \"contracts/ddddd.sol\":1852:1859  address */\n      0x0\n        /* \"contracts/ddddd.sol\":1880:1890  msg.sender */\n      caller\n        /* \"contracts/ddddd.sol\":1872:1877  owner */\n      0x0\n      dup1\n        /* \"contracts/ddddd.sol\":1872:1890  owner = msg.sender */\n      0x100\n      exp\n      dup2\n      sload\n      dup2\n      0xffffffffffffffffffffffffffffffffffffffff\n      mul\n      not\n      and\n      swap1\n      dup4\n      0xffffffffffffffffffffffffffffffffffffffff\n      and\n      mul\n      or\n      swap1\n      sstore\n      pop\n        /* \"contracts/ddddd.sol\":1908:1913  owner */\n      0x0\n      dup1\n      swap1\n      sload\n      swap1\n      0x100\n      exp\n      swap1\n      div\n      0xffffffffffffffffffffffffffffffffffffffff\n      and\n        /* \"contracts/ddddd.sol\":1901:1913  return owner */\n      swap1\n      pop\n        /* \"contracts/ddddd.sol\":1813:1921  function ownerAddress() public returns(address) {\r... */\n      swap1\n      jump\t// out\n        /* \"contracts/ddddd.sol\":1583:1622  uint256 public MoHPermissionCounter = 0 */\n    tag_102:\n      sload(0xa)\n      dup2\n      jump\t// out\n        /* \"contracts/ddddd.sol\":1078:1103  address[] public userList */\n    tag_107:\n      0x1\n      dup2\n      dup2\n      sload\n      dup2\n      lt\n      iszero\n      iszero\n      tag_223\n      jumpi\n      invalid\n    tag_223:\n      swap1\n      0x0\n      mstore\n      keccak256(0x0, 0x20)\n      add\n      0x0\n      swap2\n      pop\n      sload\n      swap1\n      0x100\n      exp\n      swap1\n      div\n      0xffffffffffffffffffffffffffffffffffffffff\n      and\n      dup2\n      jump\t// out\n        /* \"contracts/ddddd.sol\":6641:6730  function getDoctors() public view returns(address[]) {\r... */\n    tag_111:\n        /* \"contracts/ddddd.sol\":6683:6692  address[] */\n      0x60\n        /* \"contracts/ddddd.sol\":6712:6722  doctorList */\n      0x2\n        /* \"contracts/ddddd.sol\":6705:6722  return doctorList */\n      dup1\n      sload\n      dup1\n      0x20\n      mul\n      0x20\n      add\n      mload(0x40)\n      swap1\n      dup2\n      add\n      0x40\n      mstore\n      dup1\n      swap3\n      swap2\n      swap1\n      dup2\n      dup2\n      mstore\n      0x20\n      add\n      dup3\n      dup1\n      sload\n      dup1\n      iszero\n      tag_226\n      jumpi\n      0x20\n      mul\n      dup3\n      add\n      swap2\n      swap1\n      0x0\n      mstore\n      keccak256(0x0, 0x20)\n      swap1\n    tag_227:\n      dup2\n      0x0\n      swap1\n      sload\n      swap1\n      0x100\n      exp\n      swap1\n      div\n      0xffffffffffffffffffffffffffffffffffffffff\n      and\n      0xffffffffffffffffffffffffffffffffffffffff\n      and\n      dup2\n      mstore\n      0x20\n      add\n      swap1\n      0x1\n      add\n      swap1\n      dup1\n      dup4\n      gt\n      tag_227\n      jumpi\n    tag_226:\n      pop\n      pop\n      pop\n      pop\n      pop\n      swap1\n      pop\n        /* \"contracts/ddddd.sol\":6641:6730  function getDoctors() public view returns(address[]) {\r... */\n      swap1\n      jump\t// out\n        /* \"contracts/ddddd.sol\":7782:7870  function getUserCount() public view returns(uint256) {\r... */\n    tag_115:\n        /* \"contracts/ddddd.sol\":7826:7833  uint256 */\n      0x0\n        /* \"contracts/ddddd.sol\":7853:7862  userCount */\n      sload(0x8)\n        /* \"contracts/ddddd.sol\":7846:7862  return userCount */\n      swap1\n      pop\n        /* \"contracts/ddddd.sol\":7782:7870  function getUserCount() public view returns(uint256) {\r... */\n      swap1\n      jump\t// out\n        /* \"contracts/ddddd.sol\":1731:1800  address public mohAdress = 0xc50C6297f56b033633C30354A854b074749cd2dC */\n    tag_119:\n      0xc\n      0x0\n      swap1\n      sload\n      swap1\n      0x100\n      exp\n      swap1\n      div\n      0xffffffffffffffffffffffffffffffffffffffff\n      and\n      dup2\n      jump\t// out\n        /* \"contracts/ddddd.sol\":6316:6536  function MoHRevokePermission(address _address1, address _address2) public returns(bool success) {\r... */\n    tag_125:\n        /* \"contracts/ddddd.sol\":6398:6410  bool success */\n      0x0\n        /* \"contracts/ddddd.sol\":6445:6454  mohAdress */\n      0xc\n      0x0\n      swap1\n      sload\n      swap1\n      0x100\n      exp\n      swap1\n      div\n      0xffffffffffffffffffffffffffffffffffffffff\n      and\n        /* \"contracts/ddddd.sol\":6431:6454  msg.sender == mohAdress */\n      0xffffffffffffffffffffffffffffffffffffffff\n      and\n        /* \"contracts/ddddd.sol\":6431:6441  msg.sender */\n      caller\n        /* \"contracts/ddddd.sol\":6431:6454  msg.sender == mohAdress */\n      0xffffffffffffffffffffffffffffffffffffffff\n      and\n      eq\n        /* \"contracts/ddddd.sol\":6423:6455  require(msg.sender == mohAdress) */\n      iszero\n      iszero\n      tag_230\n      jumpi\n      0x0\n      dup1\n      revert\n    tag_230:\n        /* \"contracts/ddddd.sol\":6501:6506  false */\n      0x0\n        /* \"contracts/ddddd.sol\":6466:6476  isApproved */\n      0x5\n        /* \"contracts/ddddd.sol\":6466:6487  isApproved[_address1] */\n      0x0\n        /* \"contracts/ddddd.sol\":6477:6486  _address1 */\n      dup6\n        /* \"contracts/ddddd.sol\":6466:6487  isApproved[_address1] */\n      0xffffffffffffffffffffffffffffffffffffffff\n      and\n      0xffffffffffffffffffffffffffffffffffffffff\n      and\n      dup2\n      mstore\n      0x20\n      add\n      swap1\n      dup2\n      mstore\n      0x20\n      add\n      0x0\n      keccak256\n        /* \"contracts/ddddd.sol\":6466:6498  isApproved[_address1][_address2] */\n      0x0\n        /* \"contracts/ddddd.sol\":6488:6497  _address2 */\n      dup5\n        /* \"contracts/ddddd.sol\":6466:6498  isApproved[_address1][_address2] */\n      0xffffffffffffffffffffffffffffffffffffffff\n      and\n      0xffffffffffffffffffffffffffffffffffffffff\n      and\n      dup2\n      mstore\n      0x20\n      add\n      swap1\n      dup2\n      mstore\n      0x20\n      add\n      0x0\n      keccak256\n      0x0\n        /* \"contracts/ddddd.sol\":6466:6506  isApproved[_address1][_address2] = false */\n      0x100\n      exp\n      dup2\n      sload\n      dup2\n      0xff\n      mul\n      not\n      and\n      swap1\n      dup4\n      iszero\n      iszero\n      mul\n      or\n      swap1\n      sstore\n      pop\n        /* \"contracts/ddddd.sol\":6524:6528  true */\n      0x1\n        /* \"contracts/ddddd.sol\":6517:6528  return true */\n      swap1\n      pop\n        /* \"contracts/ddddd.sol\":6316:6536  function MoHRevokePermission(address _address1, address _address2) public returns(bool success) {\r... */\n      swap3\n      swap2\n      pop\n      pop\n      jump\t// out\n        /* \"contracts/ddddd.sol\":1629:1669  uint256 public userPermissionCounter = 0 */\n    tag_129:\n      sload(0xb)\n      dup2\n      jump\t// out\n        /* \"contracts/ddddd.sol\":7420:7766  function searchDoctor(address _address) public view returns(string, string, string, string, string, string, string) {\r... */\n    tag_134:\n        /* \"contracts/ddddd.sol\":7480:7486  string */\n      0x60\n        /* \"contracts/ddddd.sol\":7488:7494  string */\n      dup1\n        /* \"contracts/ddddd.sol\":7496:7502  string */\n      0x60\n        /* \"contracts/ddddd.sol\":7504:7510  string */\n      dup1\n        /* \"contracts/ddddd.sol\":7512:7518  string */\n      0x60\n        /* \"contracts/ddddd.sol\":7520:7526  string */\n      dup1\n        /* \"contracts/ddddd.sol\":7528:7534  string */\n      0x60\n        /* \"contracts/ddddd.sol\":7637:7642  var d */\n      0x0\n        /* \"contracts/ddddd.sol\":7555:7565  isApproved */\n      0x5\n        /* \"contracts/ddddd.sol\":7555:7575  isApproved[_address] */\n      0x0\n        /* \"contracts/ddddd.sol\":7566:7574  _address */\n      dup11\n        /* \"contracts/ddddd.sol\":7555:7575  isApproved[_address] */\n      0xffffffffffffffffffffffffffffffffffffffff\n      and\n      0xffffffffffffffffffffffffffffffffffffffff\n      and\n      dup2\n      mstore\n      0x20\n      add\n      swap1\n      dup2\n      mstore\n      0x20\n      add\n      0x0\n      keccak256\n        /* \"contracts/ddddd.sol\":7555:7587  isApproved[_address][msg.sender] */\n      0x0\n        /* \"contracts/ddddd.sol\":7576:7586  msg.sender */\n      caller\n        /* \"contracts/ddddd.sol\":7555:7587  isApproved[_address][msg.sender] */\n      0xffffffffffffffffffffffffffffffffffffffff\n      and\n      0xffffffffffffffffffffffffffffffffffffffff\n      and\n      dup2\n      mstore\n      0x20\n      add\n      swap1\n      dup2\n      mstore\n      0x20\n      add\n      0x0\n      keccak256\n      0x0\n      swap1\n      sload\n      swap1\n      0x100\n      exp\n      swap1\n      div\n      0xff\n      and\n        /* \"contracts/ddddd.sol\":7547:7588  require(isApproved[_address][msg.sender]) */\n      iszero\n      iszero\n      tag_232\n      jumpi\n      0x0\n      dup1\n      revert\n    tag_232:\n        /* \"contracts/ddddd.sol\":7607:7615  isDoctor */\n      0x7\n        /* \"contracts/ddddd.sol\":7607:7625  isDoctor[_address] */\n      0x0\n        /* \"contracts/ddddd.sol\":7616:7624  _address */\n      dup11\n        /* \"contracts/ddddd.sol\":7607:7625  isDoctor[_address] */\n      0xffffffffffffffffffffffffffffffffffffffff\n      and\n      0xffffffffffffffffffffffffffffffffffffffff\n      and\n      dup2\n      mstore\n      0x20\n      add\n      swap1\n      dup2\n      mstore\n      0x20\n      add\n      0x0\n      keccak256\n      0x0\n      swap1\n      sload\n      swap1\n      0x100\n      exp\n      swap1\n      div\n      0xff\n      and\n        /* \"contracts/ddddd.sol\":7599:7626  require(isDoctor[_address]) */\n      iszero\n      iszero\n      tag_233\n      jumpi\n      0x0\n      dup1\n      revert\n    tag_233:\n        /* \"contracts/ddddd.sol\":7645:7651  doctor */\n      0x4\n        /* \"contracts/ddddd.sol\":7645:7661  doctor[_address] */\n      0x0\n        /* \"contracts/ddddd.sol\":7652:7660  _address */\n      dup11\n        /* \"contracts/ddddd.sol\":7645:7661  doctor[_address] */\n      0xffffffffffffffffffffffffffffffffffffffff\n      and\n      0xffffffffffffffffffffffffffffffffffffffff\n      and\n      dup2\n      mstore\n      0x20\n      add\n      swap1\n      dup2\n      mstore\n      0x20\n      add\n      0x0\n      keccak256\n        /* \"contracts/ddddd.sol\":7637:7661  var d = doctor[_address] */\n      swap1\n      pop\n        /* \"contracts/ddddd.sol\":7690:7691  d */\n      dup1\n        /* \"contracts/ddddd.sol\":7690:7697  d.uaeId */\n      0x0\n      add\n        /* \"contracts/ddddd.sol\":7699:7700  d */\n      dup2\n        /* \"contracts/ddddd.sol\":7699:7705  d.name */\n      0x1\n      add\n        /* \"contracts/ddddd.sol\":7707:7708  d */\n      dup3\n        /* \"contracts/ddddd.sol\":7707:7714  d.phone */\n      0x2\n      add\n        /* \"contracts/ddddd.sol\":7716:7717  d */\n      dup4\n        /* \"contracts/ddddd.sol\":7716:7724  d.gender */\n      0x3\n      add\n        /* \"contracts/ddddd.sol\":7726:7727  d */\n      dup5\n        /* \"contracts/ddddd.sol\":7726:7731  d.dob */\n      0x4\n      add\n        /* \"contracts/ddddd.sol\":7733:7734  d */\n      dup6\n        /* \"contracts/ddddd.sol\":7733:7748  d.qualification */\n      0x7\n      add\n        /* \"contracts/ddddd.sol\":7750:7751  d */\n      dup7\n        /* \"contracts/ddddd.sol\":7750:7757  d.major */\n      0x8\n      add\n        /* \"contracts/ddddd.sol\":7682:7758  return (d.uaeId, d.name, d.phone, d.gender, d.dob, d.qualification, d.major) */\n      dup7\n      dup1\n      sload\n      0x1\n      dup2\n      0x1\n      and\n      iszero\n      0x100\n      mul\n      sub\n      and\n      0x2\n      swap1\n      div\n      dup1\n      0x1f\n      add\n      0x20\n      dup1\n      swap2\n      div\n      mul\n      0x20\n      add\n      mload(0x40)\n      swap1\n      dup2\n      add\n      0x40\n      mstore\n      dup1\n      swap3\n      swap2\n      swap1\n      dup2\n      dup2\n      mstore\n      0x20\n      add\n      dup3\n      dup1\n      sload\n      0x1\n      dup2\n      0x1\n      and\n      iszero\n      0x100\n      mul\n      sub\n      and\n      0x2\n      swap1\n      div\n      dup1\n      iszero\n      tag_234\n      jumpi\n      dup1\n      0x1f\n      lt\n      tag_235\n      jumpi\n      0x100\n      dup1\n      dup4\n      sload\n      div\n      mul\n      dup4\n      mstore\n      swap2\n      0x20\n      add\n      swap2\n      jump(tag_234)\n    tag_235:\n      dup3\n      add\n      swap2\n      swap1\n      0x0\n      mstore\n      keccak256(0x0, 0x20)\n      swap1\n    tag_236:\n      dup2\n      sload\n      dup2\n      mstore\n      swap1\n      0x1\n      add\n      swap1\n      0x20\n      add\n      dup1\n      dup4\n      gt\n      tag_236\n      jumpi\n      dup3\n      swap1\n      sub\n      0x1f\n      and\n      dup3\n      add\n      swap2\n    tag_234:\n      pop\n      pop\n      pop\n      pop\n      pop\n      swap7\n      pop\n      dup6\n      dup1\n      sload\n      0x1\n      dup2\n      0x1\n      and\n      iszero\n      0x100\n      mul\n      sub\n      and\n      0x2\n      swap1\n      div\n      dup1\n      0x1f\n      add\n      0x20\n      dup1\n      swap2\n      div\n      mul\n      0x20\n      add\n      mload(0x40)\n      swap1\n      dup2\n      add\n      0x40\n      mstore\n      dup1\n      swap3\n      swap2\n      swap1\n      dup2\n      dup2\n      mstore\n      0x20\n      add\n      dup3\n      dup1\n      sload\n      0x1\n      dup2\n      0x1\n      and\n      iszero\n      0x100\n      mul\n      sub\n      and\n      0x2\n      swap1\n      div\n      dup1\n      iszero\n      tag_237\n      jumpi\n      dup1\n      0x1f\n      lt\n      tag_238\n      jumpi\n      0x100\n      dup1\n      dup4\n      sload\n      div\n      mul\n      dup4\n      mstore\n      swap2\n      0x20\n      add\n      swap2\n      jump(tag_237)\n    tag_238:\n      dup3\n      add\n      swap2\n      swap1\n      0x0\n      mstore\n      keccak256(0x0, 0x20)\n      swap1\n    tag_239:\n      dup2\n      sload\n      dup2\n      mstore\n      swap1\n      0x1\n      add\n      swap1\n      0x20\n      add\n      dup1\n      dup4\n      gt\n      tag_239\n      jumpi\n      dup3\n      swap1\n      sub\n      0x1f\n      and\n      dup3\n      add\n      swap2\n    tag_237:\n      pop\n      pop\n      pop\n      pop\n      pop\n      swap6\n      pop\n      dup5\n      dup1\n      sload\n      0x1\n      dup2\n      0x1\n      and\n      iszero\n      0x100\n      mul\n      sub\n      and\n      0x2\n      swap1\n      div\n      dup1\n      0x1f\n      add\n      0x20\n      dup1\n      swap2\n      div\n      mul\n      0x20\n      add\n      mload(0x40)\n      swap1\n      dup2\n      add\n      0x40\n      mstore\n      dup1\n      swap3\n      swap2\n      swap1\n      dup2\n      dup2\n      mstore\n      0x20\n      add\n      dup3\n      dup1\n      sload\n      0x1\n      dup2\n      0x1\n      and\n      iszero\n      0x100\n      mul\n      sub\n      and\n      0x2\n      swap1\n      div\n      dup1\n      iszero\n      tag_240\n      jumpi\n      dup1\n      0x1f\n      lt\n      tag_241\n      jumpi\n      0x100\n      dup1\n      dup4\n      sload\n      div\n      mul\n      dup4\n      mstore\n      swap2\n      0x20\n      add\n      swap2\n      jump(tag_240)\n    tag_241:\n      dup3\n      add\n      swap2\n      swap1\n      0x0\n      mstore\n      keccak256(0x0, 0x20)\n      swap1\n    tag_242:\n      dup2\n      sload\n      dup2\n      mstore\n      swap1\n      0x1\n      add\n      swap1\n      0x20\n      add\n      dup1\n      dup4\n      gt\n      tag_242\n      jumpi\n      dup3\n      swap1\n      sub\n      0x1f\n      and\n      dup3\n      add\n      swap2\n    tag_240:\n      pop\n      pop\n      pop\n      pop\n      pop\n      swap5\n      pop\n      dup4\n      dup1\n      sload\n      0x1\n      dup2\n      0x1\n      and\n      iszero\n      0x100\n      mul\n      sub\n      and\n      0x2\n      swap1\n      div\n      dup1\n      0x1f\n      add\n      0x20\n      dup1\n      swap2\n      div\n      mul\n      0x20\n      add\n      mload(0x40)\n      swap1\n      dup2\n      add\n      0x40\n      mstore\n      dup1\n      swap3\n      swap2\n      swap1\n      dup2\n      dup2\n      mstore\n      0x20\n      add\n      dup3\n      dup1\n      sload\n      0x1\n      dup2\n      0x1\n      and\n      iszero\n      0x100\n      mul\n      sub\n      and\n      0x2\n      swap1\n      div\n      dup1\n      iszero\n      tag_243\n      jumpi\n      dup1\n      0x1f\n      lt\n      tag_244\n      jumpi\n      0x100\n      dup1\n      dup4\n      sload\n      div\n      mul\n      dup4\n      mstore\n      swap2\n      0x20\n      add\n      swap2\n      jump(tag_243)\n    tag_244:\n      dup3\n      add\n      swap2\n      swap1\n      0x0\n      mstore\n      keccak256(0x0, 0x20)\n      swap1\n    tag_245:\n      dup2\n      sload\n      dup2\n      mstore\n      swap1\n      0x1\n      add\n      swap1\n      0x20\n      add\n      dup1\n      dup4\n      gt\n      tag_245\n      jumpi\n      dup3\n      swap1\n      sub\n      0x1f\n      and\n      dup3\n      add\n      swap2\n    tag_243:\n      pop\n      pop\n      pop\n      pop\n      pop\n      swap4\n      pop\n      dup3\n      dup1\n      sload\n      0x1\n      dup2\n      0x1\n      and\n      iszero\n      0x100\n      mul\n      sub\n      and\n      0x2\n      swap1\n      div\n      dup1\n      0x1f\n      add\n      0x20\n      dup1\n      swap2\n      div\n      mul\n      0x20\n      add\n      mload(0x40)\n      swap1\n      dup2\n      add\n      0x40\n      mstore\n      dup1\n      swap3\n      swap2\n      swap1\n      dup2\n      dup2\n      mstore\n      0x20\n      add\n      dup3\n      dup1\n      sload\n      0x1\n      dup2\n      0x1\n      and\n      iszero\n      0x100\n      mul\n      sub\n      and\n      0x2\n      swap1\n      div\n      dup1\n      iszero\n      tag_246\n      jumpi\n      dup1\n      0x1f\n      lt\n      tag_247\n      jumpi\n      0x100\n      dup1\n      dup4\n      sload\n      div\n      mul\n      dup4\n      mstore\n      swap2\n      0x20\n      add\n      swap2\n      jump(tag_246)\n    tag_247:\n      dup3\n      add\n      swap2\n      swap1\n      0x0\n      mstore\n      keccak256(0x0, 0x20)\n      swap1\n    tag_248:\n      dup2\n      sload\n      dup2\n      mstore\n      swap1\n      0x1\n      add\n      swap1\n      0x20\n      add\n      dup1\n      dup4\n      gt\n      tag_248\n      jumpi\n      dup3\n      swap1\n      sub\n      0x1f\n      and\n      dup3\n      add\n      swap2\n    tag_246:\n      pop\n      pop\n      pop\n      pop\n      pop\n      swap3\n      pop\n      dup2\n      dup1\n      sload\n      0x1\n      dup2\n      0x1\n      and\n      iszero\n      0x100\n      mul\n      sub\n      and\n      0x2\n      swap1\n      div\n      dup1\n      0x1f\n      add\n      0x20\n      dup1\n      swap2\n      div\n      mul\n      0x20\n      add\n      mload(0x40)\n      swap1\n      dup2\n      add\n      0x40\n      mstore\n      dup1\n      swap3\n      swap2\n      swap1\n      dup2\n      dup2\n      mstore\n      0x20\n      add\n      dup3\n      dup1\n      sload\n      0x1\n      dup2\n      0x1\n      and\n      iszero\n      0x100\n      mul\n      sub\n      and\n      0x2\n      swap1\n      div\n      dup1\n      iszero\n      tag_249\n      jumpi\n      dup1\n      0x1f\n      lt\n      tag_250\n      jumpi\n      0x100\n      dup1\n      dup4\n      sload\n      div\n      mul\n      dup4\n      mstore\n      swap2\n      0x20\n      add\n      swap2\n      jump(tag_249)\n    tag_250:\n      dup3\n      add\n      swap2\n      swap1\n      0x0\n      mstore\n      keccak256(0x0, 0x20)\n      swap1\n    tag_251:\n      dup2\n      sload\n      dup2\n      mstore\n      swap1\n      0x1\n      add\n      swap1\n      0x20\n      add\n      dup1\n      dup4\n      gt\n      tag_251\n      jumpi\n      dup3\n      swap1\n      sub\n      0x1f\n      and\n      dup3\n      add\n      swap2\n    tag_249:\n      pop\n      pop\n      pop\n      pop\n      pop\n      swap2\n      pop\n      dup1\n      dup1\n      sload\n      0x1\n      dup2\n      0x1\n      and\n      iszero\n      0x100\n      mul\n      sub\n      and\n      0x2\n      swap1\n      div\n      dup1\n      0x1f\n      add\n      0x20\n      dup1\n      swap2\n      div\n      mul\n      0x20\n      add\n      mload(0x40)\n      swap1\n      dup2\n      add\n      0x40\n      mstore\n      dup1\n      swap3\n      swap2\n      swap1\n      dup2\n      dup2\n      mstore\n      0x20\n      add\n      dup3\n      dup1\n      sload\n      0x1\n      dup2\n      0x1\n      and\n      iszero\n      0x100\n      mul\n      sub\n      and\n      0x2\n      swap1\n      div\n      dup1\n      iszero\n      tag_252\n      jumpi\n      dup1\n      0x1f\n      lt\n      tag_253\n      jumpi\n      0x100\n      dup1\n      dup4\n      sload\n      div\n      mul\n      dup4\n      mstore\n      swap2\n      0x20\n      add\n      swap2\n      jump(tag_252)\n    tag_253:\n      dup3\n      add\n      swap2\n      swap1\n      0x0\n      mstore\n      keccak256(0x0, 0x20)\n      swap1\n    tag_254:\n      dup2\n      sload\n      dup2\n      mstore\n      swap1\n      0x1\n      add\n      swap1\n      0x20\n      add\n      dup1\n      dup4\n      gt\n      tag_254\n      jumpi\n      dup3\n      swap1\n      sub\n      0x1f\n      and\n      dup3\n      add\n      swap2\n    tag_252:\n      pop\n      pop\n      pop\n      pop\n      pop\n      swap1\n      pop\n      swap8\n      pop\n      swap8\n      pop\n      swap8\n      pop\n      swap8\n      pop\n      swap8\n      pop\n      swap8\n      pop\n      swap8\n      pop\n        /* \"contracts/ddddd.sol\":7420:7766  function searchDoctor(address _address) public view returns(string, string, string, string, string, string, string) {\r... */\n      pop\n      swap2\n      swap4\n      swap6\n      swap8\n      swap1\n      swap3\n      swap5\n      swap7\n      pop\n      jump\t// out\n        /* \"contracts/ddddd.sol\":5888:6140  function givePermissionByMoH(address _address1, address _address2) public returns(bool success) {\r... */\n    tag_140:\n        /* \"contracts/ddddd.sol\":5970:5982  bool success */\n      0x0\n        /* \"contracts/ddddd.sol\":6017:6026  mohAdress */\n      0xc\n      0x0\n      swap1\n      sload\n      swap1\n      0x100\n      exp\n      swap1\n      div\n      0xffffffffffffffffffffffffffffffffffffffff\n      and\n        /* \"contracts/ddddd.sol\":6003:6026  msg.sender == mohAdress */\n      0xffffffffffffffffffffffffffffffffffffffff\n      and\n        /* \"contracts/ddddd.sol\":6003:6013  msg.sender */\n      caller\n        /* \"contracts/ddddd.sol\":6003:6026  msg.sender == mohAdress */\n      0xffffffffffffffffffffffffffffffffffffffff\n      and\n      eq\n        /* \"contracts/ddddd.sol\":5995:6027  require(msg.sender == mohAdress) */\n      iszero\n      iszero\n      tag_256\n      jumpi\n      0x0\n      dup1\n      revert\n    tag_256:\n        /* \"contracts/ddddd.sol\":6073:6077  true */\n      0x1\n        /* \"contracts/ddddd.sol\":6038:6048  isApproved */\n      0x5\n        /* \"contracts/ddddd.sol\":6038:6059  isApproved[_address1] */\n      0x0\n        /* \"contracts/ddddd.sol\":6049:6058  _address1 */\n      dup6\n        /* \"contracts/ddddd.sol\":6038:6059  isApproved[_address1] */\n      0xffffffffffffffffffffffffffffffffffffffff\n      and\n      0xffffffffffffffffffffffffffffffffffffffff\n      and\n      dup2\n      mstore\n      0x20\n      add\n      swap1\n      dup2\n      mstore\n      0x20\n      add\n      0x0\n      keccak256\n        /* \"contracts/ddddd.sol\":6038:6070  isApproved[_address1][_address2] */\n      0x0\n        /* \"contracts/ddddd.sol\":6060:6069  _address2 */\n      dup5\n        /* \"contracts/ddddd.sol\":6038:6070  isApproved[_address1][_address2] */\n      0xffffffffffffffffffffffffffffffffffffffff\n      and\n      0xffffffffffffffffffffffffffffffffffffffff\n      and\n      dup2\n      mstore\n      0x20\n      add\n      swap1\n      dup2\n      mstore\n      0x20\n      add\n      0x0\n      keccak256\n      0x0\n        /* \"contracts/ddddd.sol\":6038:6077  isApproved[_address1][_address2] = true */\n      0x100\n      exp\n      dup2\n      sload\n      dup2\n      0xff\n      mul\n      not\n      and\n      swap1\n      dup4\n      iszero\n      iszero\n      mul\n      or\n      swap1\n      sstore\n      pop\n        /* \"contracts/ddddd.sol\":6088:6108  MoHPermissionCounter */\n      0xa\n      0x0\n        /* \"contracts/ddddd.sol\":6088:6110  MoHPermissionCounter++ */\n      dup2\n      sload\n      dup1\n      swap3\n      swap2\n      swap1\n      0x1\n      add\n      swap2\n      swap1\n      pop\n      sstore\n      pop\n        /* \"contracts/ddddd.sol\":6128:6132  true */\n      0x1\n        /* \"contracts/ddddd.sol\":6121:6132  return true */\n      swap1\n      pop\n        /* \"contracts/ddddd.sol\":5888:6140  function givePermissionByMoH(address _address1, address _address2) public returns(bool success) {\r... */\n      swap3\n      swap2\n      pop\n      pop\n      jump\t// out\n        /* \"contracts/ddddd.sol\":8104:8214  function getMoHPermissionCounter() public view returns(uint256) {\r... */\n    tag_144:\n        /* \"contracts/ddddd.sol\":8159:8166  uint256 */\n      0x0\n        /* \"contracts/ddddd.sol\":8186:8206  MoHPermissionCounter */\n      sload(0xa)\n        /* \"contracts/ddddd.sol\":8179:8206  return MoHPermissionCounter */\n      swap1\n      pop\n        /* \"contracts/ddddd.sol\":8104:8214  function getMoHPermissionCounter() public view returns(uint256) {\r... */\n      swap1\n      jump\t// out\n        /* \"contracts/ddddd.sol\":89:8219  contract ddddd {\r... */\n    tag_176:\n      dup3\n      dup1\n      sload\n      0x1\n      dup2\n      0x1\n      and\n      iszero\n      0x100\n      mul\n      sub\n      and\n      0x2\n      swap1\n      div\n      swap1\n      0x0\n      mstore\n      keccak256(0x0, 0x20)\n      swap1\n      0x1f\n      add\n      0x20\n      swap1\n      div\n      dup2\n      add\n      swap3\n      dup3\n      0x1f\n      lt\n      tag_259\n      jumpi\n      dup1\n      mload\n      not(0xff)\n      and\n      dup4\n      dup1\n      add\n      or\n      dup6\n      sstore\n      jump(tag_258)\n    tag_259:\n      dup3\n      dup1\n      add\n      0x1\n      add\n      dup6\n      sstore\n      dup3\n      iszero\n      tag_258\n      jumpi\n      swap2\n      dup3\n      add\n    tag_260:\n      dup3\n      dup2\n      gt\n      iszero\n      tag_261\n      jumpi\n      dup3\n      mload\n      dup3\n      sstore\n      swap2\n      0x20\n      add\n      swap2\n      swap1\n      0x1\n      add\n      swap1\n      jump(tag_260)\n    tag_261:\n    tag_258:\n      pop\n      swap1\n      pop\n      tag_262\n      swap2\n      swap1\n      jump\t// in(tag_263)\n    tag_262:\n      pop\n      swap1\n      jump\t// out\n    tag_263:\n      tag_264\n      swap2\n      swap1\n    tag_265:\n      dup1\n      dup3\n      gt\n      iszero\n      tag_266\n      jumpi\n      0x0\n      dup2\n      0x0\n      swap1\n      sstore\n      pop\n      0x1\n      add\n      jump(tag_265)\n    tag_266:\n      pop\n      swap1\n      jump\n    tag_264:\n      swap1\n      jump\t// out\n        /* \"--CODEGEN--\":5:123   */\n    tag_268:\n      0x0\n        /* \"--CODEGEN--\":72:118   */\n      tag_269\n        /* \"--CODEGEN--\":110:116   */\n      dup3\n        /* \"--CODEGEN--\":97:117   */\n      calldataload\n        /* \"--CODEGEN--\":72:118   */\n      jump(tag_270)\n    tag_269:\n        /* \"--CODEGEN--\":63:118   */\n      swap1\n      pop\n        /* \"--CODEGEN--\":57:123   */\n      swap3\n      swap2\n      pop\n      pop\n      jump\n        /* \"--CODEGEN--\":131:573   */\n    tag_272:\n      0x0\n        /* \"--CODEGEN--\":233:236   */\n      dup3\n        /* \"--CODEGEN--\":226:230   */\n      0x1f\n        /* \"--CODEGEN--\":218:224   */\n      dup4\n        /* \"--CODEGEN--\":214:231   */\n      add\n        /* \"--CODEGEN--\":210:237   */\n      slt\n        /* \"--CODEGEN--\":203:238   */\n      iszero\n        /* \"--CODEGEN--\":200:202   */\n      iszero\n      tag_273\n      jumpi\n        /* \"--CODEGEN--\":251:252   */\n      0x0\n        /* \"--CODEGEN--\":248:249   */\n      dup1\n        /* \"--CODEGEN--\":241:253   */\n      revert\n        /* \"--CODEGEN--\":200:202   */\n    tag_273:\n        /* \"--CODEGEN--\":288:294   */\n      dup2\n        /* \"--CODEGEN--\":275:295   */\n      calldataload\n        /* \"--CODEGEN--\":310:375   */\n      tag_274\n        /* \"--CODEGEN--\":325:374   */\n      tag_275\n        /* \"--CODEGEN--\":367:373   */\n      dup3\n        /* \"--CODEGEN--\":325:374   */\n      jump(tag_276)\n    tag_275:\n        /* \"--CODEGEN--\":310:375   */\n      jump(tag_277)\n    tag_274:\n        /* \"--CODEGEN--\":301:375   */\n      swap2\n      pop\n        /* \"--CODEGEN--\":395:401   */\n      dup1\n        /* \"--CODEGEN--\":388:393   */\n      dup3\n        /* \"--CODEGEN--\":381:402   */\n      mstore\n        /* \"--CODEGEN--\":431:435   */\n      0x20\n        /* \"--CODEGEN--\":423:429   */\n      dup4\n        /* \"--CODEGEN--\":419:436   */\n      add\n        /* \"--CODEGEN--\":464:468   */\n      0x20\n        /* \"--CODEGEN--\":457:462   */\n      dup4\n        /* \"--CODEGEN--\":453:469   */\n      add\n        /* \"--CODEGEN--\":499:502   */\n      dup6\n        /* \"--CODEGEN--\":490:496   */\n      dup4\n        /* \"--CODEGEN--\":485:488   */\n      dup4\n        /* \"--CODEGEN--\":481:497   */\n      add\n        /* \"--CODEGEN--\":478:503   */\n      gt\n        /* \"--CODEGEN--\":475:477   */\n      iszero\n      tag_278\n      jumpi\n        /* \"--CODEGEN--\":516:517   */\n      0x0\n        /* \"--CODEGEN--\":513:514   */\n      dup1\n        /* \"--CODEGEN--\":506:518   */\n      revert\n        /* \"--CODEGEN--\":475:477   */\n    tag_278:\n        /* \"--CODEGEN--\":526:567   */\n      tag_279\n        /* \"--CODEGEN--\":560:566   */\n      dup4\n        /* \"--CODEGEN--\":555:558   */\n      dup3\n        /* \"--CODEGEN--\":550:553   */\n      dup5\n        /* \"--CODEGEN--\":526:567   */\n      jump(tag_280)\n    tag_279:\n        /* \"--CODEGEN--\":193:573   */\n      pop\n      pop\n      pop\n      swap3\n      swap2\n      pop\n      pop\n      jump\n        /* \"--CODEGEN--\":581:699   */\n    tag_282:\n      0x0\n        /* \"--CODEGEN--\":648:694   */\n      tag_283\n        /* \"--CODEGEN--\":686:692   */\n      dup3\n        /* \"--CODEGEN--\":673:693   */\n      calldataload\n        /* \"--CODEGEN--\":648:694   */\n      jump(tag_284)\n    tag_283:\n        /* \"--CODEGEN--\":639:694   */\n      swap1\n      pop\n        /* \"--CODEGEN--\":633:699   */\n      swap3\n      swap2\n      pop\n      pop\n      jump\n        /* \"--CODEGEN--\":706:947   */\n    tag_40:\n      0x0\n        /* \"--CODEGEN--\":810:812   */\n      0x20\n        /* \"--CODEGEN--\":798:807   */\n      dup3\n        /* \"--CODEGEN--\":789:796   */\n      dup5\n        /* \"--CODEGEN--\":785:808   */\n      sub\n        /* \"--CODEGEN--\":781:813   */\n      slt\n        /* \"--CODEGEN--\":778:780   */\n      iszero\n      tag_286\n      jumpi\n        /* \"--CODEGEN--\":826:827   */\n      0x0\n        /* \"--CODEGEN--\":823:824   */\n      dup1\n        /* \"--CODEGEN--\":816:828   */\n      revert\n        /* \"--CODEGEN--\":778:780   */\n    tag_286:\n        /* \"--CODEGEN--\":861:862   */\n      0x0\n        /* \"--CODEGEN--\":878:931   */\n      tag_287\n        /* \"--CODEGEN--\":923:930   */\n      dup5\n        /* \"--CODEGEN--\":914:920   */\n      dup3\n        /* \"--CODEGEN--\":903:912   */\n      dup6\n        /* \"--CODEGEN--\":899:921   */\n      add\n        /* \"--CODEGEN--\":878:931   */\n      jump(tag_268)\n    tag_287:\n        /* \"--CODEGEN--\":868:931   */\n      swap2\n      pop\n        /* \"--CODEGEN--\":840:937   */\n      pop\n        /* \"--CODEGEN--\":772:947   */\n      swap3\n      swap2\n      pop\n      pop\n      jump\n        /* \"--CODEGEN--\":954:1320   */\n    tag_124:\n      0x0\n      dup1\n        /* \"--CODEGEN--\":1075:1077   */\n      0x40\n        /* \"--CODEGEN--\":1063:1072   */\n      dup4\n        /* \"--CODEGEN--\":1054:1061   */\n      dup6\n        /* \"--CODEGEN--\":1050:1073   */\n      sub\n        /* \"--CODEGEN--\":1046:1078   */\n      slt\n        /* \"--CODEGEN--\":1043:1045   */\n      iszero\n      tag_289\n      jumpi\n        /* \"--CODEGEN--\":1091:1092   */\n      0x0\n        /* \"--CODEGEN--\":1088:1089   */\n      dup1\n        /* \"--CODEGEN--\":1081:1093   */\n      revert\n        /* \"--CODEGEN--\":1043:1045   */\n    tag_289:\n        /* \"--CODEGEN--\":1126:1127   */\n      0x0\n        /* \"--CODEGEN--\":1143:1196   */\n      tag_290\n        /* \"--CODEGEN--\":1188:1195   */\n      dup6\n        /* \"--CODEGEN--\":1179:1185   */\n      dup3\n        /* \"--CODEGEN--\":1168:1177   */\n      dup7\n        /* \"--CODEGEN--\":1164:1186   */\n      add\n        /* \"--CODEGEN--\":1143:1196   */\n      jump(tag_268)\n    tag_290:\n        /* \"--CODEGEN--\":1133:1196   */\n      swap3\n      pop\n        /* \"--CODEGEN--\":1105:1202   */\n      pop\n        /* \"--CODEGEN--\":1233:1235   */\n      0x20\n        /* \"--CODEGEN--\":1251:1304   */\n      tag_291\n        /* \"--CODEGEN--\":1296:1303   */\n      dup6\n        /* \"--CODEGEN--\":1287:1293   */\n      dup3\n        /* \"--CODEGEN--\":1276:1285   */\n      dup7\n        /* \"--CODEGEN--\":1272:1294   */\n      add\n        /* \"--CODEGEN--\":1251:1304   */\n      jump(tag_268)\n    tag_291:\n        /* \"--CODEGEN--\":1241:1304   */\n      swap2\n      pop\n        /* \"--CODEGEN--\":1212:1310   */\n      pop\n        /* \"--CODEGEN--\":1037:1320   */\n      swap3\n      pop\n      swap3\n      swap1\n      pop\n      jump\n        /* \"--CODEGEN--\":1327:3190   */\n    tag_58:\n      0x0\n      dup1\n      0x0\n      dup1\n      0x0\n      dup1\n      0x0\n      dup1\n        /* \"--CODEGEN--\":1620:1623   */\n      0x100\n        /* \"--CODEGEN--\":1608:1617   */\n      dup10\n        /* \"--CODEGEN--\":1599:1606   */\n      dup12\n        /* \"--CODEGEN--\":1595:1618   */\n      sub\n        /* \"--CODEGEN--\":1591:1624   */\n      slt\n        /* \"--CODEGEN--\":1588:1590   */\n      iszero\n      tag_293\n      jumpi\n        /* \"--CODEGEN--\":1637:1638   */\n      0x0\n        /* \"--CODEGEN--\":1634:1635   */\n      dup1\n        /* \"--CODEGEN--\":1627:1639   */\n      revert\n        /* \"--CODEGEN--\":1588:1590   */\n    tag_293:\n        /* \"--CODEGEN--\":1672:1673   */\n      0x0\n        /* \"--CODEGEN--\":1689:1742   */\n      tag_294\n        /* \"--CODEGEN--\":1734:1741   */\n      dup12\n        /* \"--CODEGEN--\":1725:1731   */\n      dup3\n        /* \"--CODEGEN--\":1714:1723   */\n      dup13\n        /* \"--CODEGEN--\":1710:1732   */\n      add\n        /* \"--CODEGEN--\":1689:1742   */\n      jump(tag_268)\n    tag_294:\n        /* \"--CODEGEN--\":1679:1742   */\n      swap9\n      pop\n        /* \"--CODEGEN--\":1651:1748   */\n      pop\n        /* \"--CODEGEN--\":1807:1809   */\n      0x20\n        /* \"--CODEGEN--\":1796:1805   */\n      dup10\n        /* \"--CODEGEN--\":1792:1810   */\n      add\n        /* \"--CODEGEN--\":1779:1811   */\n      calldataload\n        /* \"--CODEGEN--\":1831:1849   */\n      0xffffffffffffffff\n        /* \"--CODEGEN--\":1823:1829   */\n      dup2\n        /* \"--CODEGEN--\":1820:1850   */\n      gt\n        /* \"--CODEGEN--\":1817:1819   */\n      iszero\n      tag_295\n      jumpi\n        /* \"--CODEGEN--\":1863:1864   */\n      0x0\n        /* \"--CODEGEN--\":1860:1861   */\n      dup1\n        /* \"--CODEGEN--\":1853:1865   */\n      revert\n        /* \"--CODEGEN--\":1817:1819   */\n    tag_295:\n        /* \"--CODEGEN--\":1883:1946   */\n      tag_296\n        /* \"--CODEGEN--\":1938:1945   */\n      dup12\n        /* \"--CODEGEN--\":1929:1935   */\n      dup3\n        /* \"--CODEGEN--\":1918:1927   */\n      dup13\n        /* \"--CODEGEN--\":1914:1936   */\n      add\n        /* \"--CODEGEN--\":1883:1946   */\n      jump(tag_272)\n    tag_296:\n        /* \"--CODEGEN--\":1873:1946   */\n      swap8\n      pop\n        /* \"--CODEGEN--\":1758:1952   */\n      pop\n        /* \"--CODEGEN--\":2011:2013   */\n      0x40\n        /* \"--CODEGEN--\":2000:2009   */\n      dup10\n        /* \"--CODEGEN--\":1996:2014   */\n      add\n        /* \"--CODEGEN--\":1983:2015   */\n      calldataload\n        /* \"--CODEGEN--\":2035:2053   */\n      0xffffffffffffffff\n        /* \"--CODEGEN--\":2027:2033   */\n      dup2\n        /* \"--CODEGEN--\":2024:2054   */\n      gt\n        /* \"--CODEGEN--\":2021:2023   */\n      iszero\n      tag_297\n      jumpi\n        /* \"--CODEGEN--\":2067:2068   */\n      0x0\n        /* \"--CODEGEN--\":2064:2065   */\n      dup1\n        /* \"--CODEGEN--\":2057:2069   */\n      revert\n        /* \"--CODEGEN--\":2021:2023   */\n    tag_297:\n        /* \"--CODEGEN--\":2087:2150   */\n      tag_298\n        /* \"--CODEGEN--\":2142:2149   */\n      dup12\n        /* \"--CODEGEN--\":2133:2139   */\n      dup3\n        /* \"--CODEGEN--\":2122:2131   */\n      dup13\n        /* \"--CODEGEN--\":2118:2140   */\n      add\n        /* \"--CODEGEN--\":2087:2150   */\n      jump(tag_272)\n    tag_298:\n        /* \"--CODEGEN--\":2077:2150   */\n      swap7\n      pop\n        /* \"--CODEGEN--\":1962:2156   */\n      pop\n        /* \"--CODEGEN--\":2215:2217   */\n      0x60\n        /* \"--CODEGEN--\":2204:2213   */\n      dup10\n        /* \"--CODEGEN--\":2200:2218   */\n      add\n        /* \"--CODEGEN--\":2187:2219   */\n      calldataload\n        /* \"--CODEGEN--\":2239:2257   */\n      0xffffffffffffffff\n        /* \"--CODEGEN--\":2231:2237   */\n      dup2\n        /* \"--CODEGEN--\":2228:2258   */\n      gt\n        /* \"--CODEGEN--\":2225:2227   */\n      iszero\n      tag_299\n      jumpi\n        /* \"--CODEGEN--\":2271:2272   */\n      0x0\n        /* \"--CODEGEN--\":2268:2269   */\n      dup1\n        /* \"--CODEGEN--\":2261:2273   */\n      revert\n        /* \"--CODEGEN--\":2225:2227   */\n    tag_299:\n        /* \"--CODEGEN--\":2291:2354   */\n      tag_300\n        /* \"--CODEGEN--\":2346:2353   */\n      dup12\n        /* \"--CODEGEN--\":2337:2343   */\n      dup3\n        /* \"--CODEGEN--\":2326:2335   */\n      dup13\n        /* \"--CODEGEN--\":2322:2344   */\n      add\n        /* \"--CODEGEN--\":2291:2354   */\n      jump(tag_272)\n    tag_300:\n        /* \"--CODEGEN--\":2281:2354   */\n      swap6\n      pop\n        /* \"--CODEGEN--\":2166:2360   */\n      pop\n        /* \"--CODEGEN--\":2419:2422   */\n      0x80\n        /* \"--CODEGEN--\":2408:2417   */\n      dup10\n        /* \"--CODEGEN--\":2404:2423   */\n      add\n        /* \"--CODEGEN--\":2391:2424   */\n      calldataload\n        /* \"--CODEGEN--\":2444:2462   */\n      0xffffffffffffffff\n        /* \"--CODEGEN--\":2436:2442   */\n      dup2\n        /* \"--CODEGEN--\":2433:2463   */\n      gt\n        /* \"--CODEGEN--\":2430:2432   */\n      iszero\n      tag_301\n      jumpi\n        /* \"--CODEGEN--\":2476:2477   */\n      0x0\n        /* \"--CODEGEN--\":2473:2474   */\n      dup1\n        /* \"--CODEGEN--\":2466:2478   */\n      revert\n        /* \"--CODEGEN--\":2430:2432   */\n    tag_301:\n        /* \"--CODEGEN--\":2496:2559   */\n      tag_302\n        /* \"--CODEGEN--\":2551:2558   */\n      dup12\n        /* \"--CODEGEN--\":2542:2548   */\n      dup3\n        /* \"--CODEGEN--\":2531:2540   */\n      dup13\n        /* \"--CODEGEN--\":2527:2549   */\n      add\n        /* \"--CODEGEN--\":2496:2559   */\n      jump(tag_272)\n    tag_302:\n        /* \"--CODEGEN--\":2486:2559   */\n      swap5\n      pop\n        /* \"--CODEGEN--\":2370:2565   */\n      pop\n        /* \"--CODEGEN--\":2624:2627   */\n      0xa0\n        /* \"--CODEGEN--\":2613:2622   */\n      dup10\n        /* \"--CODEGEN--\":2609:2628   */\n      add\n        /* \"--CODEGEN--\":2596:2629   */\n      calldataload\n        /* \"--CODEGEN--\":2649:2667   */\n      0xffffffffffffffff\n        /* \"--CODEGEN--\":2641:2647   */\n      dup2\n        /* \"--CODEGEN--\":2638:2668   */\n      gt\n        /* \"--CODEGEN--\":2635:2637   */\n      iszero\n      tag_303\n      jumpi\n        /* \"--CODEGEN--\":2681:2682   */\n      0x0\n        /* \"--CODEGEN--\":2678:2679   */\n      dup1\n        /* \"--CODEGEN--\":2671:2683   */\n      revert\n        /* \"--CODEGEN--\":2635:2637   */\n    tag_303:\n        /* \"--CODEGEN--\":2701:2764   */\n      tag_304\n        /* \"--CODEGEN--\":2756:2763   */\n      dup12\n        /* \"--CODEGEN--\":2747:2753   */\n      dup3\n        /* \"--CODEGEN--\":2736:2745   */\n      dup13\n        /* \"--CODEGEN--\":2732:2754   */\n      add\n        /* \"--CODEGEN--\":2701:2764   */\n      jump(tag_272)\n    tag_304:\n        /* \"--CODEGEN--\":2691:2764   */\n      swap4\n      pop\n        /* \"--CODEGEN--\":2575:2770   */\n      pop\n        /* \"--CODEGEN--\":2829:2832   */\n      0xc0\n        /* \"--CODEGEN--\":2818:2827   */\n      dup10\n        /* \"--CODEGEN--\":2814:2833   */\n      add\n        /* \"--CODEGEN--\":2801:2834   */\n      calldataload\n        /* \"--CODEGEN--\":2854:2872   */\n      0xffffffffffffffff\n        /* \"--CODEGEN--\":2846:2852   */\n      dup2\n        /* \"--CODEGEN--\":2843:2873   */\n      gt\n        /* \"--CODEGEN--\":2840:2842   */\n      iszero\n      tag_305\n      jumpi\n        /* \"--CODEGEN--\":2886:2887   */\n      0x0\n        /* \"--CODEGEN--\":2883:2884   */\n      dup1\n        /* \"--CODEGEN--\":2876:2888   */\n      revert\n        /* \"--CODEGEN--\":2840:2842   */\n    tag_305:\n        /* \"--CODEGEN--\":2906:2969   */\n      tag_306\n        /* \"--CODEGEN--\":2961:2968   */\n      dup12\n        /* \"--CODEGEN--\":2952:2958   */\n      dup3\n        /* \"--CODEGEN--\":2941:2950   */\n      dup13\n        /* \"--CODEGEN--\":2937:2959   */\n      add\n        /* \"--CODEGEN--\":2906:2969   */\n      jump(tag_272)\n    tag_306:\n        /* \"--CODEGEN--\":2896:2969   */\n      swap3\n      pop\n        /* \"--CODEGEN--\":2780:2975   */\n      pop\n        /* \"--CODEGEN--\":3034:3037   */\n      0xe0\n        /* \"--CODEGEN--\":3023:3032   */\n      dup10\n        /* \"--CODEGEN--\":3019:3038   */\n      add\n        /* \"--CODEGEN--\":3006:3039   */\n      calldataload\n        /* \"--CODEGEN--\":3059:3077   */\n      0xffffffffffffffff\n        /* \"--CODEGEN--\":3051:3057   */\n      dup2\n        /* \"--CODEGEN--\":3048:3078   */\n      gt\n        /* \"--CODEGEN--\":3045:3047   */\n      iszero\n      tag_307\n      jumpi\n        /* \"--CODEGEN--\":3091:3092   */\n      0x0\n        /* \"--CODEGEN--\":3088:3089   */\n      dup1\n        /* \"--CODEGEN--\":3081:3093   */\n      revert\n        /* \"--CODEGEN--\":3045:3047   */\n    tag_307:\n        /* \"--CODEGEN--\":3111:3174   */\n      tag_308\n        /* \"--CODEGEN--\":3166:3173   */\n      dup12\n        /* \"--CODEGEN--\":3157:3163   */\n      dup3\n        /* \"--CODEGEN--\":3146:3155   */\n      dup13\n        /* \"--CODEGEN--\":3142:3164   */\n      add\n        /* \"--CODEGEN--\":3111:3174   */\n      jump(tag_272)\n    tag_308:\n        /* \"--CODEGEN--\":3101:3174   */\n      swap2\n      pop\n        /* \"--CODEGEN--\":2985:3180   */\n      pop\n        /* \"--CODEGEN--\":1582:3190   */\n      swap3\n      swap6\n      swap9\n      pop\n      swap3\n      swap6\n      swap9\n      swap1\n      swap4\n      swap7\n      pop\n      jump\n        /* \"--CODEGEN--\":3197:5524   */\n    tag_78:\n      0x0\n      dup1\n      0x0\n      dup1\n      0x0\n      dup1\n      0x0\n      dup1\n      0x0\n      dup1\n        /* \"--CODEGEN--\":3544:3547   */\n      0x140\n        /* \"--CODEGEN--\":3532:3541   */\n      dup12\n        /* \"--CODEGEN--\":3523:3530   */\n      dup14\n        /* \"--CODEGEN--\":3519:3542   */\n      sub\n        /* \"--CODEGEN--\":3515:3548   */\n      slt\n        /* \"--CODEGEN--\":3512:3514   */\n      iszero\n      tag_310\n      jumpi\n        /* \"--CODEGEN--\":3561:3562   */\n      0x0\n        /* \"--CODEGEN--\":3558:3559   */\n      dup1\n        /* \"--CODEGEN--\":3551:3563   */\n      revert\n        /* \"--CODEGEN--\":3512:3514   */\n    tag_310:\n        /* \"--CODEGEN--\":3596:3597   */\n      0x0\n        /* \"--CODEGEN--\":3613:3666   */\n      tag_311\n        /* \"--CODEGEN--\":3658:3665   */\n      dup14\n        /* \"--CODEGEN--\":3649:3655   */\n      dup3\n        /* \"--CODEGEN--\":3638:3647   */\n      dup15\n        /* \"--CODEGEN--\":3634:3656   */\n      add\n        /* \"--CODEGEN--\":3613:3666   */\n      jump(tag_268)\n    tag_311:\n        /* \"--CODEGEN--\":3603:3666   */\n      swap11\n      pop\n        /* \"--CODEGEN--\":3575:3672   */\n      pop\n        /* \"--CODEGEN--\":3731:3733   */\n      0x20\n        /* \"--CODEGEN--\":3720:3729   */\n      dup12\n        /* \"--CODEGEN--\":3716:3734   */\n      add\n        /* \"--CODEGEN--\":3703:3735   */\n      calldataload\n        /* \"--CODEGEN--\":3755:3773   */\n      0xffffffffffffffff\n        /* \"--CODEGEN--\":3747:3753   */\n      dup2\n        /* \"--CODEGEN--\":3744:3774   */\n      gt\n        /* \"--CODEGEN--\":3741:3743   */\n      iszero\n      tag_312\n      jumpi\n        /* \"--CODEGEN--\":3787:3788   */\n      0x0\n        /* \"--CODEGEN--\":3784:3785   */\n      dup1\n        /* \"--CODEGEN--\":3777:3789   */\n      revert\n        /* \"--CODEGEN--\":3741:3743   */\n    tag_312:\n        /* \"--CODEGEN--\":3807:3870   */\n      tag_313\n        /* \"--CODEGEN--\":3862:3869   */\n      dup14\n        /* \"--CODEGEN--\":3853:3859   */\n      dup3\n        /* \"--CODEGEN--\":3842:3851   */\n      dup15\n        /* \"--CODEGEN--\":3838:3860   */\n      add\n        /* \"--CODEGEN--\":3807:3870   */\n      jump(tag_272)\n    tag_313:\n        /* \"--CODEGEN--\":3797:3870   */\n      swap10\n      pop\n        /* \"--CODEGEN--\":3682:3876   */\n      pop\n        /* \"--CODEGEN--\":3935:3937   */\n      0x40\n        /* \"--CODEGEN--\":3924:3933   */\n      dup12\n        /* \"--CODEGEN--\":3920:3938   */\n      add\n        /* \"--CODEGEN--\":3907:3939   */\n      calldataload\n        /* \"--CODEGEN--\":3959:3977   */\n      0xffffffffffffffff\n        /* \"--CODEGEN--\":3951:3957   */\n      dup2\n        /* \"--CODEGEN--\":3948:3978   */\n      gt\n        /* \"--CODEGEN--\":3945:3947   */\n      iszero\n      tag_314\n      jumpi\n        /* \"--CODEGEN--\":3991:3992   */\n      0x0\n        /* \"--CODEGEN--\":3988:3989   */\n      dup1\n        /* \"--CODEGEN--\":3981:3993   */\n      revert\n        /* \"--CODEGEN--\":3945:3947   */\n    tag_314:\n        /* \"--CODEGEN--\":4011:4074   */\n      tag_315\n        /* \"--CODEGEN--\":4066:4073   */\n      dup14\n        /* \"--CODEGEN--\":4057:4063   */\n      dup3\n        /* \"--CODEGEN--\":4046:4055   */\n      dup15\n        /* \"--CODEGEN--\":4042:4064   */\n      add\n        /* \"--CODEGEN--\":4011:4074   */\n      jump(tag_272)\n    tag_315:\n        /* \"--CODEGEN--\":4001:4074   */\n      swap9\n      pop\n        /* \"--CODEGEN--\":3886:4080   */\n      pop\n        /* \"--CODEGEN--\":4139:4141   */\n      0x60\n        /* \"--CODEGEN--\":4128:4137   */\n      dup12\n        /* \"--CODEGEN--\":4124:4142   */\n      add\n        /* \"--CODEGEN--\":4111:4143   */\n      calldataload\n        /* \"--CODEGEN--\":4163:4181   */\n      0xffffffffffffffff\n        /* \"--CODEGEN--\":4155:4161   */\n      dup2\n        /* \"--CODEGEN--\":4152:4182   */\n      gt\n        /* \"--CODEGEN--\":4149:4151   */\n      iszero\n      tag_316\n      jumpi\n        /* \"--CODEGEN--\":4195:4196   */\n      0x0\n        /* \"--CODEGEN--\":4192:4193   */\n      dup1\n        /* \"--CODEGEN--\":4185:4197   */\n      revert\n        /* \"--CODEGEN--\":4149:4151   */\n    tag_316:\n        /* \"--CODEGEN--\":4215:4278   */\n      tag_317\n        /* \"--CODEGEN--\":4270:4277   */\n      dup14\n        /* \"--CODEGEN--\":4261:4267   */\n      dup3\n        /* \"--CODEGEN--\":4250:4259   */\n      dup15\n        /* \"--CODEGEN--\":4246:4268   */\n      add\n        /* \"--CODEGEN--\":4215:4278   */\n      jump(tag_272)\n    tag_317:\n        /* \"--CODEGEN--\":4205:4278   */\n      swap8\n      pop\n        /* \"--CODEGEN--\":4090:4284   */\n      pop\n        /* \"--CODEGEN--\":4343:4346   */\n      0x80\n        /* \"--CODEGEN--\":4332:4341   */\n      dup12\n        /* \"--CODEGEN--\":4328:4347   */\n      add\n        /* \"--CODEGEN--\":4315:4348   */\n      calldataload\n        /* \"--CODEGEN--\":4368:4386   */\n      0xffffffffffffffff\n        /* \"--CODEGEN--\":4360:4366   */\n      dup2\n        /* \"--CODEGEN--\":4357:4387   */\n      gt\n        /* \"--CODEGEN--\":4354:4356   */\n      iszero\n      tag_318\n      jumpi\n        /* \"--CODEGEN--\":4400:4401   */\n      0x0\n        /* \"--CODEGEN--\":4397:4398   */\n      dup1\n        /* \"--CODEGEN--\":4390:4402   */\n      revert\n        /* \"--CODEGEN--\":4354:4356   */\n    tag_318:\n        /* \"--CODEGEN--\":4420:4483   */\n      tag_319\n        /* \"--CODEGEN--\":4475:4482   */\n      dup14\n        /* \"--CODEGEN--\":4466:4472   */\n      dup3\n        /* \"--CODEGEN--\":4455:4464   */\n      dup15\n        /* \"--CODEGEN--\":4451:4473   */\n      add\n        /* \"--CODEGEN--\":4420:4483   */\n      jump(tag_272)\n    tag_319:\n        /* \"--CODEGEN--\":4410:4483   */\n      swap7\n      pop\n        /* \"--CODEGEN--\":4294:4489   */\n      pop\n        /* \"--CODEGEN--\":4548:4551   */\n      0xa0\n        /* \"--CODEGEN--\":4537:4546   */\n      dup12\n        /* \"--CODEGEN--\":4533:4552   */\n      add\n        /* \"--CODEGEN--\":4520:4553   */\n      calldataload\n        /* \"--CODEGEN--\":4573:4591   */\n      0xffffffffffffffff\n        /* \"--CODEGEN--\":4565:4571   */\n      dup2\n        /* \"--CODEGEN--\":4562:4592   */\n      gt\n        /* \"--CODEGEN--\":4559:4561   */\n      iszero\n      tag_320\n      jumpi\n        /* \"--CODEGEN--\":4605:4606   */\n      0x0\n        /* \"--CODEGEN--\":4602:4603   */\n      dup1\n        /* \"--CODEGEN--\":4595:4607   */\n      revert\n        /* \"--CODEGEN--\":4559:4561   */\n    tag_320:\n        /* \"--CODEGEN--\":4625:4688   */\n      tag_321\n        /* \"--CODEGEN--\":4680:4687   */\n      dup14\n        /* \"--CODEGEN--\":4671:4677   */\n      dup3\n        /* \"--CODEGEN--\":4660:4669   */\n      dup15\n        /* \"--CODEGEN--\":4656:4678   */\n      add\n        /* \"--CODEGEN--\":4625:4688   */\n      jump(tag_272)\n    tag_321:\n        /* \"--CODEGEN--\":4615:4688   */\n      swap6\n      pop\n        /* \"--CODEGEN--\":4499:4694   */\n      pop\n        /* \"--CODEGEN--\":4753:4756   */\n      0xc0\n        /* \"--CODEGEN--\":4742:4751   */\n      dup12\n        /* \"--CODEGEN--\":4738:4757   */\n      add\n        /* \"--CODEGEN--\":4725:4758   */\n      calldataload\n        /* \"--CODEGEN--\":4778:4796   */\n      0xffffffffffffffff\n        /* \"--CODEGEN--\":4770:4776   */\n      dup2\n        /* \"--CODEGEN--\":4767:4797   */\n      gt\n        /* \"--CODEGEN--\":4764:4766   */\n      iszero\n      tag_322\n      jumpi\n        /* \"--CODEGEN--\":4810:4811   */\n      0x0\n        /* \"--CODEGEN--\":4807:4808   */\n      dup1\n        /* \"--CODEGEN--\":4800:4812   */\n      revert\n        /* \"--CODEGEN--\":4764:4766   */\n    tag_322:\n        /* \"--CODEGEN--\":4830:4893   */\n      tag_323\n        /* \"--CODEGEN--\":4885:4892   */\n      dup14\n        /* \"--CODEGEN--\":4876:4882   */\n      dup3\n        /* \"--CODEGEN--\":4865:4874   */\n      dup15\n        /* \"--CODEGEN--\":4861:4883   */\n      add\n        /* \"--CODEGEN--\":4830:4893   */\n      jump(tag_272)\n    tag_323:\n        /* \"--CODEGEN--\":4820:4893   */\n      swap5\n      pop\n        /* \"--CODEGEN--\":4704:4899   */\n      pop\n        /* \"--CODEGEN--\":4958:4961   */\n      0xe0\n        /* \"--CODEGEN--\":4947:4956   */\n      dup12\n        /* \"--CODEGEN--\":4943:4962   */\n      add\n        /* \"--CODEGEN--\":4930:4963   */\n      calldataload\n        /* \"--CODEGEN--\":4983:5001   */\n      0xffffffffffffffff\n        /* \"--CODEGEN--\":4975:4981   */\n      dup2\n        /* \"--CODEGEN--\":4972:5002   */\n      gt\n        /* \"--CODEGEN--\":4969:4971   */\n      iszero\n      tag_324\n      jumpi\n        /* \"--CODEGEN--\":5015:5016   */\n      0x0\n        /* \"--CODEGEN--\":5012:5013   */\n      dup1\n        /* \"--CODEGEN--\":5005:5017   */\n      revert\n        /* \"--CODEGEN--\":4969:4971   */\n    tag_324:\n        /* \"--CODEGEN--\":5035:5098   */\n      tag_325\n        /* \"--CODEGEN--\":5090:5097   */\n      dup14\n        /* \"--CODEGEN--\":5081:5087   */\n      dup3\n        /* \"--CODEGEN--\":5070:5079   */\n      dup15\n        /* \"--CODEGEN--\":5066:5088   */\n      add\n        /* \"--CODEGEN--\":5035:5098   */\n      jump(tag_272)\n    tag_325:\n        /* \"--CODEGEN--\":5025:5098   */\n      swap4\n      pop\n        /* \"--CODEGEN--\":4909:5104   */\n      pop\n        /* \"--CODEGEN--\":5163:5166   */\n      0x100\n        /* \"--CODEGEN--\":5152:5161   */\n      dup12\n        /* \"--CODEGEN--\":5148:5167   */\n      add\n        /* \"--CODEGEN--\":5135:5168   */\n      calldataload\n        /* \"--CODEGEN--\":5188:5206   */\n      0xffffffffffffffff\n        /* \"--CODEGEN--\":5180:5186   */\n      dup2\n        /* \"--CODEGEN--\":5177:5207   */\n      gt\n        /* \"--CODEGEN--\":5174:5176   */\n      iszero\n      tag_326\n      jumpi\n        /* \"--CODEGEN--\":5220:5221   */\n      0x0\n        /* \"--CODEGEN--\":5217:5218   */\n      dup1\n        /* \"--CODEGEN--\":5210:5222   */\n      revert\n        /* \"--CODEGEN--\":5174:5176   */\n    tag_326:\n        /* \"--CODEGEN--\":5240:5303   */\n      tag_327\n        /* \"--CODEGEN--\":5295:5302   */\n      dup14\n        /* \"--CODEGEN--\":5286:5292   */\n      dup3\n        /* \"--CODEGEN--\":5275:5284   */\n      dup15\n        /* \"--CODEGEN--\":5271:5293   */\n      add\n        /* \"--CODEGEN--\":5240:5303   */\n      jump(tag_272)\n    tag_327:\n        /* \"--CODEGEN--\":5230:5303   */\n      swap3\n      pop\n        /* \"--CODEGEN--\":5114:5309   */\n      pop\n        /* \"--CODEGEN--\":5368:5371   */\n      0x120\n        /* \"--CODEGEN--\":5357:5366   */\n      dup12\n        /* \"--CODEGEN--\":5353:5372   */\n      add\n        /* \"--CODEGEN--\":5340:5373   */\n      calldataload\n        /* \"--CODEGEN--\":5393:5411   */\n      0xffffffffffffffff\n        /* \"--CODEGEN--\":5385:5391   */\n      dup2\n        /* \"--CODEGEN--\":5382:5412   */\n      gt\n        /* \"--CODEGEN--\":5379:5381   */\n      iszero\n      tag_328\n      jumpi\n        /* \"--CODEGEN--\":5425:5426   */\n      0x0\n        /* \"--CODEGEN--\":5422:5423   */\n      dup1\n        /* \"--CODEGEN--\":5415:5427   */\n      revert\n        /* \"--CODEGEN--\":5379:5381   */\n    tag_328:\n        /* \"--CODEGEN--\":5445:5508   */\n      tag_329\n        /* \"--CODEGEN--\":5500:5507   */\n      dup14\n        /* \"--CODEGEN--\":5491:5497   */\n      dup3\n        /* \"--CODEGEN--\":5480:5489   */\n      dup15\n        /* \"--CODEGEN--\":5476:5498   */\n      add\n        /* \"--CODEGEN--\":5445:5508   */\n      jump(tag_272)\n    tag_329:\n        /* \"--CODEGEN--\":5435:5508   */\n      swap2\n      pop\n        /* \"--CODEGEN--\":5319:5514   */\n      pop\n        /* \"--CODEGEN--\":3506:5524   */\n      swap3\n      swap6\n      swap9\n      swap12\n      swap2\n      swap5\n      swap8\n      swap11\n      pop\n      swap3\n      swap6\n      swap9\n      pop\n      jump\n        /* \"--CODEGEN--\":5531:5772   */\n    tag_51:\n      0x0\n        /* \"--CODEGEN--\":5635:5637   */\n      0x20\n        /* \"--CODEGEN--\":5623:5632   */\n      dup3\n        /* \"--CODEGEN--\":5614:5621   */\n      dup5\n        /* \"--CODEGEN--\":5610:5633   */\n      sub\n        /* \"--CODEGEN--\":5606:5638   */\n      slt\n        /* \"--CODEGEN--\":5603:5605   */\n      iszero\n      tag_331\n      jumpi\n        /* \"--CODEGEN--\":5651:5652   */\n      0x0\n        /* \"--CODEGEN--\":5648:5649   */\n      dup1\n        /* \"--CODEGEN--\":5641:5653   */\n      revert\n        /* \"--CODEGEN--\":5603:5605   */\n    tag_331:\n        /* \"--CODEGEN--\":5686:5687   */\n      0x0\n        /* \"--CODEGEN--\":5703:5756   */\n      tag_332\n        /* \"--CODEGEN--\":5748:5755   */\n      dup5\n        /* \"--CODEGEN--\":5739:5745   */\n      dup3\n        /* \"--CODEGEN--\":5728:5737   */\n      dup6\n        /* \"--CODEGEN--\":5724:5746   */\n      add\n        /* \"--CODEGEN--\":5703:5756   */\n      jump(tag_282)\n    tag_332:\n        /* \"--CODEGEN--\":5693:5756   */\n      swap2\n      pop\n        /* \"--CODEGEN--\":5665:5762   */\n      pop\n        /* \"--CODEGEN--\":5597:5772   */\n      swap3\n      swap2\n      pop\n      pop\n      jump\n        /* \"--CODEGEN--\":5779:5889   */\n    tag_334:\n        /* \"--CODEGEN--\":5852:5883   */\n      tag_335\n        /* \"--CODEGEN--\":5877:5882   */\n      dup2\n        /* \"--CODEGEN--\":5852:5883   */\n      jump(tag_336)\n    tag_335:\n        /* \"--CODEGEN--\":5847:5850   */\n      dup3\n        /* \"--CODEGEN--\":5840:5884   */\n      mstore\n        /* \"--CODEGEN--\":5834:5889   */\n      pop\n      pop\n      jump\n        /* \"--CODEGEN--\":5927:6517   */\n    tag_338:\n      0x0\n        /* \"--CODEGEN--\":6062:6116   */\n      tag_339\n        /* \"--CODEGEN--\":6110:6115   */\n      dup3\n        /* \"--CODEGEN--\":6062:6116   */\n      jump(tag_340)\n    tag_339:\n        /* \"--CODEGEN--\":6134:6140   */\n      dup1\n        /* \"--CODEGEN--\":6129:6132   */\n      dup5\n        /* \"--CODEGEN--\":6122:6141   */\n      mstore\n        /* \"--CODEGEN--\":6158:6162   */\n      0x20\n        /* \"--CODEGEN--\":6153:6156   */\n      dup5\n        /* \"--CODEGEN--\":6149:6163   */\n      add\n        /* \"--CODEGEN--\":6142:6163   */\n      swap4\n      pop\n        /* \"--CODEGEN--\":6203:6259   */\n      tag_341\n        /* \"--CODEGEN--\":6253:6258   */\n      dup4\n        /* \"--CODEGEN--\":6203:6259   */\n      jump(tag_342)\n    tag_341:\n        /* \"--CODEGEN--\":6280:6281   */\n      0x0\n        /* \"--CODEGEN--\":6265:6495   */\n    tag_343:\n        /* \"--CODEGEN--\":6290:6296   */\n      dup3\n        /* \"--CODEGEN--\":6287:6288   */\n      dup2\n        /* \"--CODEGEN--\":6284:6297   */\n      lt\n        /* \"--CODEGEN--\":6265:6495   */\n      iszero\n      tag_344\n      jumpi\n        /* \"--CODEGEN--\":6330:6383   */\n      tag_346\n        /* \"--CODEGEN--\":6379:6382   */\n      dup7\n        /* \"--CODEGEN--\":6370:6376   */\n      dup4\n        /* \"--CODEGEN--\":6364:6377   */\n      mload\n        /* \"--CODEGEN--\":6330:6383   */\n      jump(tag_334)\n    tag_346:\n        /* \"--CODEGEN--\":6400:6460   */\n      tag_347\n        /* \"--CODEGEN--\":6453:6459   */\n      dup3\n        /* \"--CODEGEN--\":6400:6460   */\n      jump(tag_348)\n    tag_347:\n        /* \"--CODEGEN--\":6390:6460   */\n      swap2\n      pop\n        /* \"--CODEGEN--\":6483:6487   */\n      0x20\n        /* \"--CODEGEN--\":6478:6481   */\n      dup7\n        /* \"--CODEGEN--\":6474:6488   */\n      add\n        /* \"--CODEGEN--\":6467:6488   */\n      swap6\n      pop\n        /* \"--CODEGEN--\":6312:6313   */\n      0x1\n        /* \"--CODEGEN--\":6309:6310   */\n      dup2\n        /* \"--CODEGEN--\":6305:6314   */\n      add\n        /* \"--CODEGEN--\":6300:6314   */\n      swap1\n      pop\n        /* \"--CODEGEN--\":6265:6495   */\n      jump(tag_343)\n    tag_344:\n        /* \"--CODEGEN--\":6269:6283   */\n      pop\n        /* \"--CODEGEN--\":6508:6511   */\n      dup5\n        /* \"--CODEGEN--\":6501:6511   */\n      swap3\n      pop\n        /* \"--CODEGEN--\":6041:6517   */\n      pop\n      pop\n      swap3\n      swap2\n      pop\n      pop\n      jump\n        /* \"--CODEGEN--\":6525:6626   */\n    tag_350:\n        /* \"--CODEGEN--\":6592:6620   */\n      tag_351\n        /* \"--CODEGEN--\":6614:6619   */\n      dup2\n        /* \"--CODEGEN--\":6592:6620   */\n      jump(tag_352)\n    tag_351:\n        /* \"--CODEGEN--\":6587:6590   */\n      dup3\n        /* \"--CODEGEN--\":6580:6621   */\n      mstore\n        /* \"--CODEGEN--\":6574:6626   */\n      pop\n      pop\n      jump\n        /* \"--CODEGEN--\":6633:6933   */\n    tag_354:\n      0x0\n        /* \"--CODEGEN--\":6735:6774   */\n      tag_355\n        /* \"--CODEGEN--\":6768:6773   */\n      dup3\n        /* \"--CODEGEN--\":6735:6774   */\n      jump(tag_356)\n    tag_355:\n        /* \"--CODEGEN--\":6791:6797   */\n      dup1\n        /* \"--CODEGEN--\":6786:6789   */\n      dup5\n        /* \"--CODEGEN--\":6779:6798   */\n      mstore\n        /* \"--CODEGEN--\":6803:6866   */\n      tag_357\n        /* \"--CODEGEN--\":6859:6865   */\n      dup2\n        /* \"--CODEGEN--\":6852:6856   */\n      0x20\n        /* \"--CODEGEN--\":6847:6850   */\n      dup7\n        /* \"--CODEGEN--\":6843:6857   */\n      add\n        /* \"--CODEGEN--\":6836:6840   */\n      0x20\n        /* \"--CODEGEN--\":6829:6834   */\n      dup7\n        /* \"--CODEGEN--\":6825:6841   */\n      add\n        /* \"--CODEGEN--\":6803:6866   */\n      jump(tag_358)\n    tag_357:\n        /* \"--CODEGEN--\":6898:6927   */\n      tag_359\n        /* \"--CODEGEN--\":6920:6926   */\n      dup2\n        /* \"--CODEGEN--\":6898:6927   */\n      jump(tag_360)\n    tag_359:\n        /* \"--CODEGEN--\":6891:6895   */\n      0x20\n        /* \"--CODEGEN--\":6886:6889   */\n      dup6\n        /* \"--CODEGEN--\":6882:6896   */\n      add\n        /* \"--CODEGEN--\":6878:6928   */\n      add\n        /* \"--CODEGEN--\":6871:6928   */\n      swap2\n      pop\n        /* \"--CODEGEN--\":6715:6933   */\n      pop\n      swap3\n      swap2\n      pop\n      pop\n      jump\n        /* \"--CODEGEN--\":6940:7050   */\n    tag_362:\n        /* \"--CODEGEN--\":7013:7044   */\n      tag_363\n        /* \"--CODEGEN--\":7038:7043   */\n      dup2\n        /* \"--CODEGEN--\":7013:7044   */\n      jump(tag_364)\n    tag_363:\n        /* \"--CODEGEN--\":7008:7011   */\n      dup3\n        /* \"--CODEGEN--\":7001:7045   */\n      mstore\n        /* \"--CODEGEN--\":6995:7050   */\n      pop\n      pop\n      jump\n        /* \"--CODEGEN--\":7057:7250   */\n    tag_54:\n      0x0\n        /* \"--CODEGEN--\":7165:7167   */\n      0x20\n        /* \"--CODEGEN--\":7154:7163   */\n      dup3\n        /* \"--CODEGEN--\":7150:7168   */\n      add\n        /* \"--CODEGEN--\":7142:7168   */\n      swap1\n      pop\n        /* \"--CODEGEN--\":7179:7240   */\n      tag_366\n        /* \"--CODEGEN--\":7237:7238   */\n      0x0\n        /* \"--CODEGEN--\":7226:7235   */\n      dup4\n        /* \"--CODEGEN--\":7222:7239   */\n      add\n        /* \"--CODEGEN--\":7213:7219   */\n      dup5\n        /* \"--CODEGEN--\":7179:7240   */\n      jump(tag_334)\n    tag_366:\n        /* \"--CODEGEN--\":7136:7250   */\n      swap3\n      swap2\n      pop\n      pop\n      jump\n        /* \"--CODEGEN--\":7257:7598   */\n    tag_31:\n      0x0\n        /* \"--CODEGEN--\":7415:7417   */\n      0x20\n        /* \"--CODEGEN--\":7404:7413   */\n      dup3\n        /* \"--CODEGEN--\":7400:7418   */\n      add\n        /* \"--CODEGEN--\":7392:7418   */\n      swap1\n      pop\n        /* \"--CODEGEN--\":7465:7474   */\n      dup2\n        /* \"--CODEGEN--\":7459:7463   */\n      dup2\n        /* \"--CODEGEN--\":7455:7475   */\n      sub\n        /* \"--CODEGEN--\":7451:7452   */\n      0x0\n        /* \"--CODEGEN--\":7440:7449   */\n      dup4\n        /* \"--CODEGEN--\":7436:7453   */\n      add\n        /* \"--CODEGEN--\":7429:7476   */\n      mstore\n        /* \"--CODEGEN--\":7490:7588   */\n      tag_368\n        /* \"--CODEGEN--\":7583:7587   */\n      dup2\n        /* \"--CODEGEN--\":7574:7580   */\n      dup5\n        /* \"--CODEGEN--\":7490:7588   */\n      jump(tag_338)\n    tag_368:\n        /* \"--CODEGEN--\":7482:7588   */\n      swap1\n      pop\n        /* \"--CODEGEN--\":7386:7598   */\n      swap3\n      swap2\n      pop\n      pop\n      jump\n        /* \"--CODEGEN--\":7605:7786   */\n    tag_69:\n      0x0\n        /* \"--CODEGEN--\":7707:7709   */\n      0x20\n        /* \"--CODEGEN--\":7696:7705   */\n      dup3\n        /* \"--CODEGEN--\":7692:7710   */\n      add\n        /* \"--CODEGEN--\":7684:7710   */\n      swap1\n      pop\n        /* \"--CODEGEN--\":7721:7776   */\n      tag_370\n        /* \"--CODEGEN--\":7773:7774   */\n      0x0\n        /* \"--CODEGEN--\":7762:7771   */\n      dup4\n        /* \"--CODEGEN--\":7758:7775   */\n      add\n        /* \"--CODEGEN--\":7749:7755   */\n      dup5\n        /* \"--CODEGEN--\":7721:7776   */\n      jump(tag_350)\n    tag_370:\n        /* \"--CODEGEN--\":7678:7786   */\n      swap3\n      swap2\n      pop\n      pop\n      jump\n        /* \"--CODEGEN--\":7793:9124   */\n    tag_43:\n      0x0\n        /* \"--CODEGEN--\":8189:8192   */\n      0xe0\n        /* \"--CODEGEN--\":8178:8187   */\n      dup3\n        /* \"--CODEGEN--\":8174:8193   */\n      add\n        /* \"--CODEGEN--\":8166:8193   */\n      swap1\n      pop\n        /* \"--CODEGEN--\":8240:8249   */\n      dup2\n        /* \"--CODEGEN--\":8234:8238   */\n      dup2\n        /* \"--CODEGEN--\":8230:8250   */\n      sub\n        /* \"--CODEGEN--\":8226:8227   */\n      0x0\n        /* \"--CODEGEN--\":8215:8224   */\n      dup4\n        /* \"--CODEGEN--\":8211:8228   */\n      add\n        /* \"--CODEGEN--\":8204:8251   */\n      mstore\n        /* \"--CODEGEN--\":8265:8333   */\n      tag_372\n        /* \"--CODEGEN--\":8328:8332   */\n      dup2\n        /* \"--CODEGEN--\":8319:8325   */\n      dup11\n        /* \"--CODEGEN--\":8265:8333   */\n      jump(tag_354)\n    tag_372:\n        /* \"--CODEGEN--\":8257:8333   */\n      swap1\n      pop\n        /* \"--CODEGEN--\":8381:8390   */\n      dup2\n        /* \"--CODEGEN--\":8375:8379   */\n      dup2\n        /* \"--CODEGEN--\":8371:8391   */\n      sub\n        /* \"--CODEGEN--\":8366:8368   */\n      0x20\n        /* \"--CODEGEN--\":8355:8364   */\n      dup4\n        /* \"--CODEGEN--\":8351:8369   */\n      add\n        /* \"--CODEGEN--\":8344:8392   */\n      mstore\n        /* \"--CODEGEN--\":8406:8474   */\n      tag_373\n        /* \"--CODEGEN--\":8469:8473   */\n      dup2\n        /* \"--CODEGEN--\":8460:8466   */\n      dup10\n        /* \"--CODEGEN--\":8406:8474   */\n      jump(tag_354)\n    tag_373:\n        /* \"--CODEGEN--\":8398:8474   */\n      swap1\n      pop\n        /* \"--CODEGEN--\":8522:8531   */\n      dup2\n        /* \"--CODEGEN--\":8516:8520   */\n      dup2\n        /* \"--CODEGEN--\":8512:8532   */\n      sub\n        /* \"--CODEGEN--\":8507:8509   */\n      0x40\n        /* \"--CODEGEN--\":8496:8505   */\n      dup4\n        /* \"--CODEGEN--\":8492:8510   */\n      add\n        /* \"--CODEGEN--\":8485:8533   */\n      mstore\n        /* \"--CODEGEN--\":8547:8615   */\n      tag_374\n        /* \"--CODEGEN--\":8610:8614   */\n      dup2\n        /* \"--CODEGEN--\":8601:8607   */\n      dup9\n        /* \"--CODEGEN--\":8547:8615   */\n      jump(tag_354)\n    tag_374:\n        /* \"--CODEGEN--\":8539:8615   */\n      swap1\n      pop\n        /* \"--CODEGEN--\":8663:8672   */\n      dup2\n        /* \"--CODEGEN--\":8657:8661   */\n      dup2\n        /* \"--CODEGEN--\":8653:8673   */\n      sub\n        /* \"--CODEGEN--\":8648:8650   */\n      0x60\n        /* \"--CODEGEN--\":8637:8646   */\n      dup4\n        /* \"--CODEGEN--\":8633:8651   */\n      add\n        /* \"--CODEGEN--\":8626:8674   */\n      mstore\n        /* \"--CODEGEN--\":8688:8756   */\n      tag_375\n        /* \"--CODEGEN--\":8751:8755   */\n      dup2\n        /* \"--CODEGEN--\":8742:8748   */\n      dup8\n        /* \"--CODEGEN--\":8688:8756   */\n      jump(tag_354)\n    tag_375:\n        /* \"--CODEGEN--\":8680:8756   */\n      swap1\n      pop\n        /* \"--CODEGEN--\":8805:8814   */\n      dup2\n        /* \"--CODEGEN--\":8799:8803   */\n      dup2\n        /* \"--CODEGEN--\":8795:8815   */\n      sub\n        /* \"--CODEGEN--\":8789:8792   */\n      0x80\n        /* \"--CODEGEN--\":8778:8787   */\n      dup4\n        /* \"--CODEGEN--\":8774:8793   */\n      add\n        /* \"--CODEGEN--\":8767:8816   */\n      mstore\n        /* \"--CODEGEN--\":8830:8898   */\n      tag_376\n        /* \"--CODEGEN--\":8893:8897   */\n      dup2\n        /* \"--CODEGEN--\":8884:8890   */\n      dup7\n        /* \"--CODEGEN--\":8830:8898   */\n      jump(tag_354)\n    tag_376:\n        /* \"--CODEGEN--\":8822:8898   */\n      swap1\n      pop\n        /* \"--CODEGEN--\":8947:8956   */\n      dup2\n        /* \"--CODEGEN--\":8941:8945   */\n      dup2\n        /* \"--CODEGEN--\":8937:8957   */\n      sub\n        /* \"--CODEGEN--\":8931:8934   */\n      0xa0\n        /* \"--CODEGEN--\":8920:8929   */\n      dup4\n        /* \"--CODEGEN--\":8916:8935   */\n      add\n        /* \"--CODEGEN--\":8909:8958   */\n      mstore\n        /* \"--CODEGEN--\":8972:9040   */\n      tag_377\n        /* \"--CODEGEN--\":9035:9039   */\n      dup2\n        /* \"--CODEGEN--\":9026:9032   */\n      dup6\n        /* \"--CODEGEN--\":8972:9040   */\n      jump(tag_354)\n    tag_377:\n        /* \"--CODEGEN--\":8964:9040   */\n      swap1\n      pop\n        /* \"--CODEGEN--\":9051:9114   */\n      tag_378\n        /* \"--CODEGEN--\":9109:9112   */\n      0xc0\n        /* \"--CODEGEN--\":9098:9107   */\n      dup4\n        /* \"--CODEGEN--\":9094:9113   */\n      add\n        /* \"--CODEGEN--\":9085:9091   */\n      dup5\n        /* \"--CODEGEN--\":9051:9114   */\n      jump(tag_334)\n    tag_378:\n        /* \"--CODEGEN--\":8160:9124   */\n      swap9\n      swap8\n      pop\n      pop\n      pop\n      pop\n      pop\n      pop\n      pop\n      pop\n      jump\n        /* \"--CODEGEN--\":9131:10550   */\n    tag_136:\n      0x0\n        /* \"--CODEGEN--\":9547:9550   */\n      0xe0\n        /* \"--CODEGEN--\":9536:9545   */\n      dup3\n        /* \"--CODEGEN--\":9532:9551   */\n      add\n        /* \"--CODEGEN--\":9524:9551   */\n      swap1\n      pop\n        /* \"--CODEGEN--\":9598:9607   */\n      dup2\n        /* \"--CODEGEN--\":9592:9596   */\n      dup2\n        /* \"--CODEGEN--\":9588:9608   */\n      sub\n        /* \"--CODEGEN--\":9584:9585   */\n      0x0\n        /* \"--CODEGEN--\":9573:9582   */\n      dup4\n        /* \"--CODEGEN--\":9569:9586   */\n      add\n        /* \"--CODEGEN--\":9562:9609   */\n      mstore\n        /* \"--CODEGEN--\":9623:9691   */\n      tag_380\n        /* \"--CODEGEN--\":9686:9690   */\n      dup2\n        /* \"--CODEGEN--\":9677:9683   */\n      dup11\n        /* \"--CODEGEN--\":9623:9691   */\n      jump(tag_354)\n    tag_380:\n        /* \"--CODEGEN--\":9615:9691   */\n      swap1\n      pop\n        /* \"--CODEGEN--\":9739:9748   */\n      dup2\n        /* \"--CODEGEN--\":9733:9737   */\n      dup2\n        /* \"--CODEGEN--\":9729:9749   */\n      sub\n        /* \"--CODEGEN--\":9724:9726   */\n      0x20\n        /* \"--CODEGEN--\":9713:9722   */\n      dup4\n        /* \"--CODEGEN--\":9709:9727   */\n      add\n        /* \"--CODEGEN--\":9702:9750   */\n      mstore\n        /* \"--CODEGEN--\":9764:9832   */\n      tag_381\n        /* \"--CODEGEN--\":9827:9831   */\n      dup2\n        /* \"--CODEGEN--\":9818:9824   */\n      dup10\n        /* \"--CODEGEN--\":9764:9832   */\n      jump(tag_354)\n    tag_381:\n        /* \"--CODEGEN--\":9756:9832   */\n      swap1\n      pop\n        /* \"--CODEGEN--\":9880:9889   */\n      dup2\n        /* \"--CODEGEN--\":9874:9878   */\n      dup2\n        /* \"--CODEGEN--\":9870:9890   */\n      sub\n        /* \"--CODEGEN--\":9865:9867   */\n      0x40\n        /* \"--CODEGEN--\":9854:9863   */\n      dup4\n        /* \"--CODEGEN--\":9850:9868   */\n      add\n        /* \"--CODEGEN--\":9843:9891   */\n      mstore\n        /* \"--CODEGEN--\":9905:9973   */\n      tag_382\n        /* \"--CODEGEN--\":9968:9972   */\n      dup2\n        /* \"--CODEGEN--\":9959:9965   */\n      dup9\n        /* \"--CODEGEN--\":9905:9973   */\n      jump(tag_354)\n    tag_382:\n        /* \"--CODEGEN--\":9897:9973   */\n      swap1\n      pop\n        /* \"--CODEGEN--\":10021:10030   */\n      dup2\n        /* \"--CODEGEN--\":10015:10019   */\n      dup2\n        /* \"--CODEGEN--\":10011:10031   */\n      sub\n        /* \"--CODEGEN--\":10006:10008   */\n      0x60\n        /* \"--CODEGEN--\":9995:10004   */\n      dup4\n        /* \"--CODEGEN--\":9991:10009   */\n      add\n        /* \"--CODEGEN--\":9984:10032   */\n      mstore\n        /* \"--CODEGEN--\":10046:10114   */\n      tag_383\n        /* \"--CODEGEN--\":10109:10113   */\n      dup2\n        /* \"--CODEGEN--\":10100:10106   */\n      dup8\n        /* \"--CODEGEN--\":10046:10114   */\n      jump(tag_354)\n    tag_383:\n        /* \"--CODEGEN--\":10038:10114   */\n      swap1\n      pop\n        /* \"--CODEGEN--\":10163:10172   */\n      dup2\n        /* \"--CODEGEN--\":10157:10161   */\n      dup2\n        /* \"--CODEGEN--\":10153:10173   */\n      sub\n        /* \"--CODEGEN--\":10147:10150   */\n      0x80\n        /* \"--CODEGEN--\":10136:10145   */\n      dup4\n        /* \"--CODEGEN--\":10132:10151   */\n      add\n        /* \"--CODEGEN--\":10125:10174   */\n      mstore\n        /* \"--CODEGEN--\":10188:10256   */\n      tag_384\n        /* \"--CODEGEN--\":10251:10255   */\n      dup2\n        /* \"--CODEGEN--\":10242:10248   */\n      dup7\n        /* \"--CODEGEN--\":10188:10256   */\n      jump(tag_354)\n    tag_384:\n        /* \"--CODEGEN--\":10180:10256   */\n      swap1\n      pop\n        /* \"--CODEGEN--\":10305:10314   */\n      dup2\n        /* \"--CODEGEN--\":10299:10303   */\n      dup2\n        /* \"--CODEGEN--\":10295:10315   */\n      sub\n        /* \"--CODEGEN--\":10289:10292   */\n      0xa0\n        /* \"--CODEGEN--\":10278:10287   */\n      dup4\n        /* \"--CODEGEN--\":10274:10293   */\n      add\n        /* \"--CODEGEN--\":10267:10316   */\n      mstore\n        /* \"--CODEGEN--\":10330:10398   */\n      tag_385\n        /* \"--CODEGEN--\":10393:10397   */\n      dup2\n        /* \"--CODEGEN--\":10384:10390   */\n      dup6\n        /* \"--CODEGEN--\":10330:10398   */\n      jump(tag_354)\n    tag_385:\n        /* \"--CODEGEN--\":10322:10398   */\n      swap1\n      pop\n        /* \"--CODEGEN--\":10447:10456   */\n      dup2\n        /* \"--CODEGEN--\":10441:10445   */\n      dup2\n        /* \"--CODEGEN--\":10437:10457   */\n      sub\n        /* \"--CODEGEN--\":10431:10434   */\n      0xc0\n        /* \"--CODEGEN--\":10420:10429   */\n      dup4\n        /* \"--CODEGEN--\":10416:10435   */\n      add\n        /* \"--CODEGEN--\":10409:10458   */\n      mstore\n        /* \"--CODEGEN--\":10472:10540   */\n      tag_386\n        /* \"--CODEGEN--\":10535:10539   */\n      dup2\n        /* \"--CODEGEN--\":10526:10532   */\n      dup5\n        /* \"--CODEGEN--\":10472:10540   */\n      jump(tag_354)\n    tag_386:\n        /* \"--CODEGEN--\":10464:10540   */\n      swap1\n      pop\n        /* \"--CODEGEN--\":9518:10550   */\n      swap9\n      swap8\n      pop\n      pop\n      pop\n      pop\n      pop\n      pop\n      pop\n      pop\n      jump\n        /* \"--CODEGEN--\":10557:10750   */\n    tag_36:\n      0x0\n        /* \"--CODEGEN--\":10665:10667   */\n      0x20\n        /* \"--CODEGEN--\":10654:10663   */\n      dup3\n        /* \"--CODEGEN--\":10650:10668   */\n      add\n        /* \"--CODEGEN--\":10642:10668   */\n      swap1\n      pop\n        /* \"--CODEGEN--\":10679:10740   */\n      tag_388\n        /* \"--CODEGEN--\":10737:10738   */\n      0x0\n        /* \"--CODEGEN--\":10726:10735   */\n      dup4\n        /* \"--CODEGEN--\":10722:10739   */\n      add\n        /* \"--CODEGEN--\":10713:10719   */\n      dup5\n        /* \"--CODEGEN--\":10679:10740   */\n      jump(tag_362)\n    tag_388:\n        /* \"--CODEGEN--\":10636:10750   */\n      swap3\n      swap2\n      pop\n      pop\n      jump\n        /* \"--CODEGEN--\":10757:11013   */\n    tag_277:\n      0x0\n        /* \"--CODEGEN--\":10819:10821   */\n      0x40\n        /* \"--CODEGEN--\":10813:10822   */\n      mload\n        /* \"--CODEGEN--\":10803:10822   */\n      swap1\n      pop\n        /* \"--CODEGEN--\":10857:10861   */\n      dup2\n        /* \"--CODEGEN--\":10849:10855   */\n      dup2\n        /* \"--CODEGEN--\":10845:10862   */\n      add\n        /* \"--CODEGEN--\":10956:10962   */\n      dup2\n        /* \"--CODEGEN--\":10944:10954   */\n      dup2\n        /* \"--CODEGEN--\":10941:10963   */\n      lt\n        /* \"--CODEGEN--\":10920:10938   */\n      0xffffffffffffffff\n        /* \"--CODEGEN--\":10908:10918   */\n      dup3\n        /* \"--CODEGEN--\":10905:10939   */\n      gt\n        /* \"--CODEGEN--\":10902:10964   */\n      or\n        /* \"--CODEGEN--\":10899:10901   */\n      iszero\n      tag_390\n      jumpi\n        /* \"--CODEGEN--\":10977:10978   */\n      0x0\n        /* \"--CODEGEN--\":10974:10975   */\n      dup1\n        /* \"--CODEGEN--\":10967:10979   */\n      revert\n        /* \"--CODEGEN--\":10899:10901   */\n    tag_390:\n        /* \"--CODEGEN--\":10997:11007   */\n      dup1\n        /* \"--CODEGEN--\":10993:10995   */\n      0x40\n        /* \"--CODEGEN--\":10986:11008   */\n      mstore\n        /* \"--CODEGEN--\":10797:11013   */\n      pop\n      swap2\n      swap1\n      pop\n      jump\n        /* \"--CODEGEN--\":11020:11279   */\n    tag_276:\n      0x0\n        /* \"--CODEGEN--\":11164:11182   */\n      0xffffffffffffffff\n        /* \"--CODEGEN--\":11156:11162   */\n      dup3\n        /* \"--CODEGEN--\":11153:11183   */\n      gt\n        /* \"--CODEGEN--\":11150:11152   */\n      iszero\n      tag_392\n      jumpi\n        /* \"--CODEGEN--\":11196:11197   */\n      0x0\n        /* \"--CODEGEN--\":11193:11194   */\n      dup1\n        /* \"--CODEGEN--\":11186:11198   */\n      revert\n        /* \"--CODEGEN--\":11150:11152   */\n    tag_392:\n        /* \"--CODEGEN--\":11240:11244   */\n      0x1f\n        /* \"--CODEGEN--\":11236:11245   */\n      not\n        /* \"--CODEGEN--\":11229:11233   */\n      0x1f\n        /* \"--CODEGEN--\":11221:11227   */\n      dup4\n        /* \"--CODEGEN--\":11217:11234   */\n      add\n        /* \"--CODEGEN--\":11213:11246   */\n      and\n        /* \"--CODEGEN--\":11205:11246   */\n      swap1\n      pop\n        /* \"--CODEGEN--\":11269:11273   */\n      0x20\n        /* \"--CODEGEN--\":11263:11267   */\n      dup2\n        /* \"--CODEGEN--\":11259:11274   */\n      add\n        /* \"--CODEGEN--\":11251:11274   */\n      swap1\n      pop\n        /* \"--CODEGEN--\":11087:11279   */\n      swap2\n      swap1\n      pop\n      jump\n        /* \"--CODEGEN--\":11288:11409   */\n    tag_342:\n      0x0\n        /* \"--CODEGEN--\":11397:11401   */\n      0x20\n        /* \"--CODEGEN--\":11389:11395   */\n      dup3\n        /* \"--CODEGEN--\":11385:11402   */\n      add\n        /* \"--CODEGEN--\":11374:11402   */\n      swap1\n      pop\n        /* \"--CODEGEN--\":11366:11409   */\n      swap2\n      swap1\n      pop\n      jump\n        /* \"--CODEGEN--\":11418:11525   */\n    tag_340:\n      0x0\n        /* \"--CODEGEN--\":11514:11519   */\n      dup2\n        /* \"--CODEGEN--\":11508:11520   */\n      mload\n        /* \"--CODEGEN--\":11498:11520   */\n      swap1\n      pop\n        /* \"--CODEGEN--\":11492:11525   */\n      swap2\n      swap1\n      pop\n      jump\n        /* \"--CODEGEN--\":11532:11624   */\n    tag_356:\n      0x0\n        /* \"--CODEGEN--\":11613:11618   */\n      dup2\n        /* \"--CODEGEN--\":11607:11619   */\n      mload\n        /* \"--CODEGEN--\":11597:11619   */\n      swap1\n      pop\n        /* \"--CODEGEN--\":11591:11624   */\n      swap2\n      swap1\n      pop\n      jump\n        /* \"--CODEGEN--\":11632:11754   */\n    tag_348:\n      0x0\n        /* \"--CODEGEN--\":11743:11747   */\n      0x20\n        /* \"--CODEGEN--\":11735:11741   */\n      dup3\n        /* \"--CODEGEN--\":11731:11748   */\n      add\n        /* \"--CODEGEN--\":11720:11748   */\n      swap1\n      pop\n        /* \"--CODEGEN--\":11713:11754   */\n      swap2\n      swap1\n      pop\n      jump\n        /* \"--CODEGEN--\":11762:11890   */\n    tag_336:\n      0x0\n        /* \"--CODEGEN--\":11842:11884   */\n      0xffffffffffffffffffffffffffffffffffffffff\n        /* \"--CODEGEN--\":11835:11840   */\n      dup3\n        /* \"--CODEGEN--\":11831:11885   */\n      and\n        /* \"--CODEGEN--\":11820:11885   */\n      swap1\n      pop\n        /* \"--CODEGEN--\":11814:11890   */\n      swap2\n      swap1\n      pop\n      jump\n        /* \"--CODEGEN--\":11897:11989   */\n    tag_352:\n      0x0\n        /* \"--CODEGEN--\":11977:11982   */\n      dup2\n        /* \"--CODEGEN--\":11970:11983   */\n      iszero\n        /* \"--CODEGEN--\":11963:11984   */\n      iszero\n        /* \"--CODEGEN--\":11952:11984   */\n      swap1\n      pop\n        /* \"--CODEGEN--\":11946:11989   */\n      swap2\n      swap1\n      pop\n      jump\n        /* \"--CODEGEN--\":11996:12075   */\n    tag_364:\n      0x0\n        /* \"--CODEGEN--\":12065:12070   */\n      dup2\n        /* \"--CODEGEN--\":12054:12070   */\n      swap1\n      pop\n        /* \"--CODEGEN--\":12048:12075   */\n      swap2\n      swap1\n      pop\n      jump\n        /* \"--CODEGEN--\":12082:12210   */\n    tag_270:\n      0x0\n        /* \"--CODEGEN--\":12162:12204   */\n      0xffffffffffffffffffffffffffffffffffffffff\n        /* \"--CODEGEN--\":12155:12160   */\n      dup3\n        /* \"--CODEGEN--\":12151:12205   */\n      and\n        /* \"--CODEGEN--\":12140:12205   */\n      swap1\n      pop\n        /* \"--CODEGEN--\":12134:12210   */\n      swap2\n      swap1\n      pop\n      jump\n        /* \"--CODEGEN--\":12217:12296   */\n    tag_284:\n      0x0\n        /* \"--CODEGEN--\":12286:12291   */\n      dup2\n        /* \"--CODEGEN--\":12275:12291   */\n      swap1\n      pop\n        /* \"--CODEGEN--\":12269:12296   */\n      swap2\n      swap1\n      pop\n      jump\n        /* \"--CODEGEN--\":12304:12449   */\n    tag_280:\n        /* \"--CODEGEN--\":12385:12391   */\n      dup3\n        /* \"--CODEGEN--\":12380:12383   */\n      dup2\n        /* \"--CODEGEN--\":12375:12378   */\n      dup4\n        /* \"--CODEGEN--\":12362:12392   */\n      calldatacopy\n        /* \"--CODEGEN--\":12441:12442   */\n      0x0\n        /* \"--CODEGEN--\":12432:12438   */\n      dup4\n        /* \"--CODEGEN--\":12427:12430   */\n      dup4\n        /* \"--CODEGEN--\":12423:12439   */\n      add\n        /* \"--CODEGEN--\":12416:12443   */\n      mstore\n        /* \"--CODEGEN--\":12355:12449   */\n      pop\n      pop\n      pop\n      jump\n        /* \"--CODEGEN--\":12458:12726   */\n    tag_358:\n        /* \"--CODEGEN--\":12523:12524   */\n      0x0\n        /* \"--CODEGEN--\":12530:12631   */\n    tag_404:\n        /* \"--CODEGEN--\":12544:12550   */\n      dup4\n        /* \"--CODEGEN--\":12541:12542   */\n      dup2\n        /* \"--CODEGEN--\":12538:12551   */\n      lt\n        /* \"--CODEGEN--\":12530:12631   */\n      iszero\n      tag_405\n      jumpi\n        /* \"--CODEGEN--\":12620:12621   */\n      dup1\n        /* \"--CODEGEN--\":12615:12618   */\n      dup3\n        /* \"--CODEGEN--\":12611:12622   */\n      add\n        /* \"--CODEGEN--\":12605:12623   */\n      mload\n        /* \"--CODEGEN--\":12601:12602   */\n      dup2\n        /* \"--CODEGEN--\":12596:12599   */\n      dup5\n        /* \"--CODEGEN--\":12592:12603   */\n      add\n        /* \"--CODEGEN--\":12585:12624   */\n      mstore\n        /* \"--CODEGEN--\":12566:12568   */\n      0x20\n        /* \"--CODEGEN--\":12563:12564   */\n      dup2\n        /* \"--CODEGEN--\":12559:12569   */\n      add\n        /* \"--CODEGEN--\":12554:12569   */\n      swap1\n      pop\n        /* \"--CODEGEN--\":12530:12631   */\n      jump(tag_404)\n    tag_405:\n        /* \"--CODEGEN--\":12646:12652   */\n      dup4\n        /* \"--CODEGEN--\":12643:12644   */\n      dup2\n        /* \"--CODEGEN--\":12640:12653   */\n      gt\n        /* \"--CODEGEN--\":12637:12639   */\n      iszero\n      tag_407\n      jumpi\n        /* \"--CODEGEN--\":12711:12712   */\n      0x0\n        /* \"--CODEGEN--\":12702:12708   */\n      dup5\n        /* \"--CODEGEN--\":12697:12700   */\n      dup5\n        /* \"--CODEGEN--\":12693:12709   */\n      add\n        /* \"--CODEGEN--\":12686:12713   */\n      mstore\n        /* \"--CODEGEN--\":12637:12639   */\n    tag_407:\n        /* \"--CODEGEN--\":12507:12726   */\n      pop\n      pop\n      pop\n      pop\n      jump\n        /* \"--CODEGEN--\":12734:12831   */\n    tag_360:\n      0x0\n        /* \"--CODEGEN--\":12822:12824   */\n      0x1f\n        /* \"--CODEGEN--\":12818:12825   */\n      not\n        /* \"--CODEGEN--\":12813:12815   */\n      0x1f\n        /* \"--CODEGEN--\":12806:12811   */\n      dup4\n        /* \"--CODEGEN--\":12802:12816   */\n      add\n        /* \"--CODEGEN--\":12798:12826   */\n      and\n        /* \"--CODEGEN--\":12788:12826   */\n      swap1\n      pop\n        /* \"--CODEGEN--\":12782:12831   */\n      swap2\n      swap1\n      pop\n      jump\n\n    auxdata: 0xa265627a7a72305820095091c93a31b4a5f81c2b41fbc3d8db650c7413d5b8fbd35c84e57bc97ff87d6c6578706572696d656e74616cf50037\n}\n",
				"bytecode": {
					"linkReferences": {},
					"object": "6080604052600060085560006009556000600a556000600b5573c50c6297f56b033633c30354a854b074749cd2dc600c60006101000a81548173ffffffffffffffffffffffffffffffffffffffff021916908373ffffffffffffffffffffffffffffffffffffffff16021790555034801561007957600080fd5b50612bb5806100896000396000f300608060405260043610610148576000357c0100000000000000000000000000000000000000000000000000000000900463ffffffff168062ce8e3e1461014d578063024decc514610178578063076fd2f8146101a357806307973ccf146101e6578063127ca4b41461021157806316e0a6111461024e57806317e5111114610277578063294a4540146102a05780635fc8e8c6146102dd5780636cdb22781461031a578063779a95761461034357806378522bc41461036c57806379111c1c146103975780638da5cb5b146103c25780638f84aa09146103ed57806399d698c5146104185780639f4216e814610443578063b13d5d9414610480578063b5cb15f7146104ab578063b744ff4d146104d6578063c3bf7bf014610501578063c543a7181461053e578063caee6c8514610569578063d118404b146105ac578063e0df0ac6146105e9575b600080fd5b34801561015957600080fd5b50610162610614565b60405161016f91906128ae565b60405180910390f35b34801561018457600080fd5b5061018d6106a2565b60405161019a9190612a24565b60405180910390f35b3480156101af57600080fd5b506101ca60048036036101c5919081019061243a565b6106ac565b6040516101dd97969594939291906128eb565b60405180910390f35b3480156101f257600080fd5b506101fb610b8d565b6040516102089190612a24565b60405180910390f35b34801561021d57600080fd5b50610238600480360361023391908101906127ac565b610b93565b6040516102459190612893565b60405180910390f35b34801561025a57600080fd5b506102756004803603610270919081019061249f565b610bd1565b005b34801561028357600080fd5b5061029e6004803603610299919081019061249f565b610dc5565b005b3480156102ac57600080fd5b506102c760048036036102c2919081019061243a565b6111df565b6040516102d491906128d0565b60405180910390f35b3480156102e957600080fd5b5061030460048036036102ff919081019061243a565b611291565b60405161031191906128d0565b60405180910390f35b34801561032657600080fd5b50610341600480360361033c91908101906125f9565b611330565b005b34801561034f57600080fd5b5061036a600480360361036591908101906125f9565b61177e565b005b34801561037857600080fd5b506103816119a6565b60405161038e9190612a24565b60405180910390f35b3480156103a357600080fd5b506103ac6119ac565b6040516103b99190612a24565b60405180910390f35b3480156103ce57600080fd5b506103d76119b6565b6040516103e49190612893565b60405180910390f35b3480156103f957600080fd5b506104026119db565b60405161040f9190612893565b60405180910390f35b34801561042457600080fd5b5061042d611a44565b60405161043a9190612a24565b60405180910390f35b34801561044f57600080fd5b5061046a600480360361046591908101906127ac565b611a4a565b6040516104779190612893565b60405180910390f35b34801561048c57600080fd5b50610495611a88565b6040516104a291906128ae565b60405180910390f35b3480156104b757600080fd5b506104c0611b16565b6040516104cd9190612a24565b60405180910390f35b3480156104e257600080fd5b506104eb611b20565b6040516104f89190612893565b60405180910390f35b34801561050d57600080fd5b5061052860048036036105239190810190612463565b611b46565b60405161053591906128d0565b60405180910390f35b34801561054a57600080fd5b50610553611c43565b6040516105609190612a24565b60405180910390f35b34801561057557600080fd5b50610590600480360361058b919081019061243a565b611c49565b6040516105a39796959493929190612984565b60405180910390f35b3480156105b857600080fd5b506105d360048036036105ce9190810190612463565b6121fe565b6040516105e091906128d0565b60405180910390f35b3480156105f557600080fd5b506105fe61230d565b60405161060b9190612a24565b60405180910390f35b6060600180548060200260200160405190810160405280929190818152602001828054801561069857602002820191906000526020600020905b8160009054906101000a900473ffffffffffffffffffffffffffffffffffffffff1673ffffffffffffffffffffffffffffffffffffffff168152602001906001019080831161064e575b5050505050905090565b6000600b54905090565b606080606080606080600080600560008a73ffffffffffffffffffffffffffffffffffffffff1673ffffffffffffffffffffffffffffffffffffffff16815260200190815260200160002060003373ffffffffffffffffffffffffffffffffffffffff1673ffffffffffffffffffffffffffffffffffffffff16815260200190815260200160002060009054906101000a900460ff16151561074d57600080fd5b600360008a73ffffffffffffffffffffffffffffffffffffffff1673ffffffffffffffffffffffffffffffffffffffff16815260200190815260200160002090508060000181600101826002018360030184600401856005018660090160009054906101000a900473ffffffffffffffffffffffffffffffffffffffff16868054600181600116156101000203166002900480601f0160208091040260200160405190810160405280929190818152602001828054600181600116156101000203166002900480156108605780601f1061083557610100808354040283529160200191610860565b820191906000526020600020905b81548152906001019060200180831161084357829003601f168201915b50505050509650858054600181600116156101000203166002900480601f0160208091040260200160405190810160405280929190818152602001828054600181600116156101000203166002900480156108fc5780601f106108d1576101008083540402835291602001916108fc565b820191906000526020600020905b8154815290600101906020018083116108df57829003601f168201915b50505050509550848054600181600116156101000203166002900480601f0160208091040260200160405190810160405280929190818152602001828054600181600116156101000203166002900480156109985780601f1061096d57610100808354040283529160200191610998565b820191906000526020600020905b81548152906001019060200180831161097b57829003601f168201915b50505050509450838054600181600116156101000203166002900480601f016020809104026020016040519081016040528092919081815260200182805460018160011615610100020316600290048015610a345780601f10610a0957610100808354040283529160200191610a34565b820191906000526020600020905b815481529060010190602001808311610a1757829003601f168201915b50505050509350828054600181600116156101000203166002900480601f016020809104026020016040519081016040528092919081815260200182805460018160011615610100020316600290048015610ad05780601f10610aa557610100808354040283529160200191610ad0565b820191906000526020600020905b815481529060010190602001808311610ab357829003601f168201915b50505050509250818054600181600116156101000203166002900480601f016020809104026020016040519081016040528092919081815260200182805460018160011615610100020316600290048015610b6c5780601f10610b4157610100808354040283529160200191610b6c565b820191906000526020600020905b815481529060010190602001808311610b4f57829003601f168201915b50505050509150975097509750975097509750975050919395979092949650565b60085481565b600281815481101515610ba257fe5b906000526020600020016000915054906101000a900473ffffffffffffffffffffffffffffffffffffffff1681565b6000600c60009054906101000a900473ffffffffffffffffffffffffffffffffffffffff1673ffffffffffffffffffffffffffffffffffffffff163373ffffffffffffffffffffffffffffffffffffffff16141515610c2f57600080fd5b600760008a73ffffffffffffffffffffffffffffffffffffffff1673ffffffffffffffffffffffffffffffffffffffff16815260200190815260200160002060009054906101000a900460ff161515610c8757600080fd5b600460008a73ffffffffffffffffffffffffffffffffffffffff1673ffffffffffffffffffffffffffffffffffffffff168152602001908152602001600020905087816000019080519060200190610ce0929190612317565b5086816001019080519060200190610cf9929190612317565b5085816002019080519060200190610d12929190612317565b5084816003019080519060200190610d2b929190612317565b5083816004019080519060200190610d44929190612317565b5082816007019080519060200190610d5d929190612317565b5081816008019080519060200190610d76929190612317565b50888160090160006101000a81548173ffffffffffffffffffffffffffffffffffffffff021916908373ffffffffffffffffffffffffffffffffffffffff160217905550505050505050505050565b6000600c60009054906101000a900473ffffffffffffffffffffffffffffffffffffffff1673ffffffffffffffffffffffffffffffffffffffff163373ffffffffffffffffffffffffffffffffffffffff16141515610e2357600080fd5b600760008a73ffffffffffffffffffffffffffffffffffffffff1673ffffffffffffffffffffffffffffffffffffffff16815260200190815260200160002060009054906101000a900460ff16151515610e7c57600080fd5b600460008a73ffffffffffffffffffffffffffffffffffffffff1673ffffffffffffffffffffffffffffffffffffffff168152602001908152602001600020905087816000019080519060200190610ed5929190612317565b5086816001019080519060200190610eee929190612317565b5085816002019080519060200190610f07929190612317565b5084816003019080519060200190610f20929190612317565b5083816004019080519060200190610f39929190612317565b5082816007019080519060200190610f52929190612317565b5081816008019080519060200190610f6b929190612317565b50888160090160006101000a81548173ffffffffffffffffffffffffffffffffffffffff021916908373ffffffffffffffffffffffffffffffffffffffff1602179055504281600a018190555060028990806001815401808255809150509060018203906000526020600020016000909192909190916101000a81548173ffffffffffffffffffffffffffffffffffffffff021916908373ffffffffffffffffffffffffffffffffffffffff160217905550506001600760008b73ffffffffffffffffffffffffffffffffffffffff1673ffffffffffffffffffffffffffffffffffffffff16815260200190815260200160002060006101000a81548160ff0219169083151502179055506001600560008b73ffffffffffffffffffffffffffffffffffffffff1673ffffffffffffffffffffffffffffffffffffffff16815260200190815260200160002060008b73ffffffffffffffffffffffffffffffffffffffff1673ffffffffffffffffffffffffffffffffffffffff16815260200190815260200160002060006101000a81548160ff0219169083151502179055506001600560008b73ffffffffffffffffffffffffffffffffffffffff1673ffffffffffffffffffffffffffffffffffffffff1681526020019081526020016000206000600c60009054906101000a900473ffffffffffffffffffffffffffffffffffffffff1673ffffffffffffffffffffffffffffffffffffffff1673ffffffffffffffffffffffffffffffffffffffff16815260200190815260200160002060006101000a81548160ff021916908315150217905550600960008154809291906001019190505550505050505050505050565b60006001600560003373ffffffffffffffffffffffffffffffffffffffff1673ffffffffffffffffffffffffffffffffffffffff16815260200190815260200160002060008473ffffffffffffffffffffffffffffffffffffffff1673ffffffffffffffffffffffffffffffffffffffff16815260200190815260200160002060006101000a81548160ff021916908315150217905550600b6000815480929190600101919050555060019050919050565b600080600560003373ffffffffffffffffffffffffffffffffffffffff1673ffffffffffffffffffffffffffffffffffffffff16815260200190815260200160002060008473ffffffffffffffffffffffffffffffffffffffff1673ffffffffffffffffffffffffffffffffffffffff16815260200190815260200160002060006101000a81548160ff02191690831515021790555060019050919050565b6000600c60009054906101000a900473ffffffffffffffffffffffffffffffffffffffff1673ffffffffffffffffffffffffffffffffffffffff163373ffffffffffffffffffffffffffffffffffffffff1614151561138e57600080fd5b600660008c73ffffffffffffffffffffffffffffffffffffffff1673ffffffffffffffffffffffffffffffffffffffff16815260200190815260200160002060009054906101000a900460ff161515156113e757600080fd5b600360008c73ffffffffffffffffffffffffffffffffffffffff1673ffffffffffffffffffffffffffffffffffffffff168152602001908152602001600020905089816000019080519060200190611440929190612317565b5088816001019080519060200190611459929190612317565b5087816002019080519060200190611472929190612317565b508681600301908051906020019061148b929190612317565b50858160040190805190602001906114a4929190612317565b50848160050190805190602001906114bd929190612317565b50838160060190805190602001906114d6929190612317565b50828160070190805190602001906114ef929190612317565b5081816008019080519060200190611508929190612317565b508a8160090160006101000a81548173ffffffffffffffffffffffffffffffffffffffff021916908373ffffffffffffffffffffffffffffffffffffffff1602179055504281600a018190555060018b90806001815401808255809150509060018203906000526020600020016000909192909190916101000a81548173ffffffffffffffffffffffffffffffffffffffff021916908373ffffffffffffffffffffffffffffffffffffffff160217905550506001600660008d73ffffffffffffffffffffffffffffffffffffffff1673ffffffffffffffffffffffffffffffffffffffff16815260200190815260200160002060006101000a81548160ff0219169083151502179055506001600560008d73ffffffffffffffffffffffffffffffffffffffff1673ffffffffffffffffffffffffffffffffffffffff16815260200190815260200160002060008d73ffffffffffffffffffffffffffffffffffffffff1673ffffffffffffffffffffffffffffffffffffffff16815260200190815260200160002060006101000a81548160ff0219169083151502179055506001600560008d73ffffffffffffffffffffffffffffffffffffffff1673ffffffffffffffffffffffffffffffffffffffff1681526020019081526020016000206000600c60009054906101000a900473ffffffffffffffffffffffffffffffffffffffff1673ffffffffffffffffffffffffffffffffffffffff1673ffffffffffffffffffffffffffffffffffffffff16815260200190815260200160002060006101000a81548160ff0219169083151502179055506008600081548092919060010191905055505050505050505050505050565b6000600c60009054906101000a900473ffffffffffffffffffffffffffffffffffffffff1673ffffffffffffffffffffffffffffffffffffffff163373ffffffffffffffffffffffffffffffffffffffff161415156117dc57600080fd5b600660008c73ffffffffffffffffffffffffffffffffffffffff1673ffffffffffffffffffffffffffffffffffffffff16815260200190815260200160002060009054906101000a900460ff16151561183457600080fd5b600360008c73ffffffffffffffffffffffffffffffffffffffff1673ffffffffffffffffffffffffffffffffffffffff16815260200190815260200160002090508981600001908051906020019061188d929190612317565b50888160010190805190602001906118a6929190612317565b50878160020190805190602001906118bf929190612317565b50868160030190805190602001906118d8929190612317565b50858160040190805190602001906118f1929190612317565b508481600501908051906020019061190a929190612317565b5083816006019080519060200190611923929190612317565b508281600701908051906020019061193c929190612317565b5081816008019080519060200190611955929190612317565b508a8160090160006101000a81548173ffffffffffffffffffffffffffffffffffffffff021916908373ffffffffffffffffffffffffffffffffffffffff1602179055505050505050505050505050565b60095481565b6000600954905090565b6000809054906101000a900473ffffffffffffffffffffffffffffffffffffffff1681565b6000336000806101000a81548173ffffffffffffffffffffffffffffffffffffffff021916908373ffffffffffffffffffffffffffffffffffffffff1602179055506000809054906101000a900473ffffffffffffffffffffffffffffffffffffffff16905090565b600a5481565b600181815481101515611a5957fe5b906000526020600020016000915054906101000a900473ffffffffffffffffffffffffffffffffffffffff1681565b60606002805480602002602001604051908101604052809291908181526020018280548015611b0c57602002820191906000526020600020905b8160009054906101000a900473ffffffffffffffffffffffffffffffffffffffff1673ffffffffffffffffffffffffffffffffffffffff1681526020019060010190808311611ac2575b5050505050905090565b6000600854905090565b600c60009054906101000a900473ffffffffffffffffffffffffffffffffffffffff1681565b6000600c60009054906101000a900473ffffffffffffffffffffffffffffffffffffffff1673ffffffffffffffffffffffffffffffffffffffff163373ffffffffffffffffffffffffffffffffffffffff16141515611ba457600080fd5b6000600560008573ffffffffffffffffffffffffffffffffffffffff1673ffffffffffffffffffffffffffffffffffffffff16815260200190815260200160002060008473ffffffffffffffffffffffffffffffffffffffff1673ffffffffffffffffffffffffffffffffffffffff16815260200190815260200160002060006101000a81548160ff0219169083151502179055506001905092915050565b600b5481565b60608060608060608060606000600560008a73ffffffffffffffffffffffffffffffffffffffff1673ffffffffffffffffffffffffffffffffffffffff16815260200190815260200160002060003373ffffffffffffffffffffffffffffffffffffffff1673ffffffffffffffffffffffffffffffffffffffff16815260200190815260200160002060009054906101000a900460ff161515611ceb57600080fd5b600760008a73ffffffffffffffffffffffffffffffffffffffff1673ffffffffffffffffffffffffffffffffffffffff16815260200190815260200160002060009054906101000a900460ff161515611d4357600080fd5b600460008a73ffffffffffffffffffffffffffffffffffffffff1673ffffffffffffffffffffffffffffffffffffffff168152602001908152602001600020905080600001816001018260020183600301846004018560070186600801868054600181600116156101000203166002900480601f016020809104026020016040519081016040528092919081815260200182805460018160011615610100020316600290048015611e355780601f10611e0a57610100808354040283529160200191611e35565b820191906000526020600020905b815481529060010190602001808311611e1857829003601f168201915b50505050509650858054600181600116156101000203166002900480601f016020809104026020016040519081016040528092919081815260200182805460018160011615610100020316600290048015611ed15780601f10611ea657610100808354040283529160200191611ed1565b820191906000526020600020905b815481529060010190602001808311611eb457829003601f168201915b50505050509550848054600181600116156101000203166002900480601f016020809104026020016040519081016040528092919081815260200182805460018160011615610100020316600290048015611f6d5780601f10611f4257610100808354040283529160200191611f6d565b820191906000526020600020905b815481529060010190602001808311611f5057829003601f168201915b50505050509450838054600181600116156101000203166002900480601f0160208091040260200160405190810160405280929190818152602001828054600181600116156101000203166002900480156120095780601f10611fde57610100808354040283529160200191612009565b820191906000526020600020905b815481529060010190602001808311611fec57829003601f168201915b50505050509350828054600181600116156101000203166002900480601f0160208091040260200160405190810160405280929190818152602001828054600181600116156101000203166002900480156120a55780601f1061207a576101008083540402835291602001916120a5565b820191906000526020600020905b81548152906001019060200180831161208857829003601f168201915b50505050509250818054600181600116156101000203166002900480601f0160208091040260200160405190810160405280929190818152602001828054600181600116156101000203166002900480156121415780601f1061211657610100808354040283529160200191612141565b820191906000526020600020905b81548152906001019060200180831161212457829003601f168201915b50505050509150808054600181600116156101000203166002900480601f0160208091040260200160405190810160405280929190818152602001828054600181600116156101000203166002900480156121dd5780601f106121b2576101008083540402835291602001916121dd565b820191906000526020600020905b8154815290600101906020018083116121c057829003601f168201915b50505050509050975097509750975097509750975050919395979092949650565b6000600c60009054906101000a900473ffffffffffffffffffffffffffffffffffffffff1673ffffffffffffffffffffffffffffffffffffffff163373ffffffffffffffffffffffffffffffffffffffff1614151561225c57600080fd5b6001600560008573ffffffffffffffffffffffffffffffffffffffff1673ffffffffffffffffffffffffffffffffffffffff16815260200190815260200160002060008473ffffffffffffffffffffffffffffffffffffffff1673ffffffffffffffffffffffffffffffffffffffff16815260200190815260200160002060006101000a81548160ff021916908315150217905550600a600081548092919060010191905055506001905092915050565b6000600a54905090565b828054600181600116156101000203166002900490600052602060002090601f016020900481019282601f1061235857805160ff1916838001178555612386565b82800160010185558215612386579182015b8281111561238557825182559160200191906001019061236a565b5b5090506123939190612397565b5090565b6123b991905b808211156123b557600081600090555060010161239d565b5090565b90565b60006123c88235612afe565b905092915050565b600082601f83011215156123e357600080fd5b81356123f66123f182612a6c565b612a3f565b9150808252602083016020830185838301111561241257600080fd5b61241d838284612b28565b50505092915050565b60006124328235612b1e565b905092915050565b60006020828403121561244c57600080fd5b600061245a848285016123bc565b91505092915050565b6000806040838503121561247657600080fd5b6000612484858286016123bc565b9250506020612495858286016123bc565b9150509250929050565b600080600080600080600080610100898b0312156124bc57600080fd5b60006124ca8b828c016123bc565b985050602089013567ffffffffffffffff8111156124e757600080fd5b6124f38b828c016123d0565b975050604089013567ffffffffffffffff81111561251057600080fd5b61251c8b828c016123d0565b965050606089013567ffffffffffffffff81111561253957600080fd5b6125458b828c016123d0565b955050608089013567ffffffffffffffff81111561256257600080fd5b61256e8b828c016123d0565b94505060a089013567ffffffffffffffff81111561258b57600080fd5b6125978b828c016123d0565b93505060c089013567ffffffffffffffff8111156125b457600080fd5b6125c08b828c016123d0565b92505060e089013567ffffffffffffffff8111156125dd57600080fd5b6125e98b828c016123d0565b9150509295985092959890939650565b6000806000806000806000806000806101408b8d03121561261957600080fd5b60006126278d828e016123bc565b9a505060208b013567ffffffffffffffff81111561264457600080fd5b6126508d828e016123d0565b99505060408b013567ffffffffffffffff81111561266d57600080fd5b6126798d828e016123d0565b98505060608b013567ffffffffffffffff81111561269657600080fd5b6126a28d828e016123d0565b97505060808b013567ffffffffffffffff8111156126bf57600080fd5b6126cb8d828e016123d0565b96505060a08b013567ffffffffffffffff8111156126e857600080fd5b6126f48d828e016123d0565b95505060c08b013567ffffffffffffffff81111561271157600080fd5b61271d8d828e016123d0565b94505060e08b013567ffffffffffffffff81111561273a57600080fd5b6127468d828e016123d0565b9350506101008b013567ffffffffffffffff81111561276457600080fd5b6127708d828e016123d0565b9250506101208b013567ffffffffffffffff81111561278e57600080fd5b61279a8d828e016123d0565b9150509295989b9194979a5092959850565b6000602082840312156127be57600080fd5b60006127cc84828501612426565b91505092915050565b6127de81612ac8565b82525050565b60006127ef82612aa5565b80845260208401935061280183612a98565b60005b82811015612833576128178683516127d5565b61282082612abb565b9150602086019550600181019050612804565b50849250505092915050565b61284881612ae8565b82525050565b600061285982612ab0565b80845261286d816020860160208601612b37565b61287681612b6a565b602085010191505092915050565b61288d81612af4565b82525050565b60006020820190506128a860008301846127d5565b92915050565b600060208201905081810360008301526128c881846127e4565b905092915050565b60006020820190506128e5600083018461283f565b92915050565b600060e0820190508181036000830152612905818a61284e565b90508181036020830152612919818961284e565b9050818103604083015261292d818861284e565b90508181036060830152612941818761284e565b90508181036080830152612955818661284e565b905081810360a0830152612969818561284e565b905061297860c08301846127d5565b98975050505050505050565b600060e082019050818103600083015261299e818a61284e565b905081810360208301526129b2818961284e565b905081810360408301526129c6818861284e565b905081810360608301526129da818761284e565b905081810360808301526129ee818661284e565b905081810360a0830152612a02818561284e565b905081810360c0830152612a16818461284e565b905098975050505050505050565b6000602082019050612a396000830184612884565b92915050565b6000604051905081810181811067ffffffffffffffff82111715612a6257600080fd5b8060405250919050565b600067ffffffffffffffff821115612a8357600080fd5b601f19601f8301169050602081019050919050565b6000602082019050919050565b600081519050919050565b600081519050919050565b6000602082019050919050565b600073ffffffffffffffffffffffffffffffffffffffff82169050919050565b60008115159050919050565b6000819050919050565b600073ffffffffffffffffffffffffffffffffffffffff82169050919050565b6000819050919050565b82818337600083830152505050565b60005b83811015612b55578082015181840152602081019050612b3a565b83811115612b64576000848401525b50505050565b6000601f19601f83011690509190505600a265627a7a72305820095091c93a31b4a5f81c2b41fbc3d8db650c7413d5b8fbd35c84e57bc97ff87d6c6578706572696d656e74616cf50037",
					"opcodes": "PUSH1 0x80 PUSH1 0x40 MSTORE PUSH1 0x0 PUSH1 0x8 SSTORE PUSH1 0x0 PUSH1 0x9 SSTORE PUSH1 0x0 PUSH1 0xA SSTORE PUSH1 0x0 PUSH1 0xB SSTORE PUSH20 0xC50C6297F56B033633C30354A854B074749CD2DC PUSH1 0xC PUSH1 0x0 PUSH2 0x100 EXP DUP2 SLOAD DUP2 PUSH20 0xFFFFFFFFFFFFFFFFFFFFFFFFFFFFFFFFFFFFFFFF MUL NOT AND SWAP1 DUP4 PUSH20 0xFFFFFFFFFFFFFFFFFFFFFFFFFFFFFFFFFFFFFFFF AND MUL OR SWAP1 SSTORE POP CALLVALUE DUP1 ISZERO PUSH2 0x79 JUMPI PUSH1 0x0 DUP1 REVERT JUMPDEST POP PUSH2 0x2BB5 DUP1 PUSH2 0x89 PUSH1 0x0 CODECOPY PUSH1 0x0 RETURN STOP PUSH1 0x80 PUSH1 0x40 MSTORE PUSH1 0x4 CALLDATASIZE LT PUSH2 0x148 JUMPI PUSH1 0x0 CALLDATALOAD PUSH29 0x100000000000000000000000000000000000000000000000000000000 SWAP1 DIV PUSH4 0xFFFFFFFF AND DUP1 PUSH3 0xCE8E3E EQ PUSH2 0x14D JUMPI DUP1 PUSH4 0x24DECC5 EQ PUSH2 0x178 JUMPI DUP1 PUSH4 0x76FD2F8 EQ PUSH2 0x1A3 JUMPI DUP1 PUSH4 0x7973CCF EQ PUSH2 0x1E6 JUMPI DUP1 PUSH4 0x127CA4B4 EQ PUSH2 0x211 JUMPI DUP1 PUSH4 0x16E0A611 EQ PUSH2 0x24E JUMPI DUP1 PUSH4 0x17E51111 EQ PUSH2 0x277 JUMPI DUP1 PUSH4 0x294A4540 EQ PUSH2 0x2A0 JUMPI DUP1 PUSH4 0x5FC8E8C6 EQ PUSH2 0x2DD JUMPI DUP1 PUSH4 0x6CDB2278 EQ PUSH2 0x31A JUMPI DUP1 PUSH4 0x779A9576 EQ PUSH2 0x343 JUMPI DUP1 PUSH4 0x78522BC4 EQ PUSH2 0x36C JUMPI DUP1 PUSH4 0x79111C1C EQ PUSH2 0x397 JUMPI DUP1 PUSH4 0x8DA5CB5B EQ PUSH2 0x3C2 JUMPI DUP1 PUSH4 0x8F84AA09 EQ PUSH2 0x3ED JUMPI DUP1 PUSH4 0x99D698C5 EQ PUSH2 0x418 JUMPI DUP1 PUSH4 0x9F4216E8 EQ PUSH2 0x443 JUMPI DUP1 PUSH4 0xB13D5D94 EQ PUSH2 0x480 JUMPI DUP1 PUSH4 0xB5CB15F7 EQ PUSH2 0x4AB JUMPI DUP1 PUSH4 0xB744FF4D EQ PUSH2 0x4D6 JUMPI DUP1 PUSH4 0xC3BF7BF0 EQ PUSH2 0x501 JUMPI DUP1 PUSH4 0xC543A718 EQ PUSH2 0x53E JUMPI DUP1 PUSH4 0xCAEE6C85 EQ PUSH2 0x569 JUMPI DUP1 PUSH4 0xD118404B EQ PUSH2 0x5AC JUMPI DUP1 PUSH4 0xE0DF0AC6 EQ PUSH2 0x5E9 JUMPI JUMPDEST PUSH1 0x0 DUP1 REVERT JUMPDEST CALLVALUE DUP1 ISZERO PUSH2 0x159 JUMPI PUSH1 0x0 DUP1 REVERT JUMPDEST POP PUSH2 0x162 PUSH2 0x614 JUMP JUMPDEST PUSH1 0x40 MLOAD PUSH2 0x16F SWAP2 SWAP1 PUSH2 0x28AE JUMP JUMPDEST PUSH1 0x40 MLOAD DUP1 SWAP2 SUB SWAP1 RETURN JUMPDEST CALLVALUE DUP1 ISZERO PUSH2 0x184 JUMPI PUSH1 0x0 DUP1 REVERT JUMPDEST POP PUSH2 0x18D PUSH2 0x6A2 JUMP JUMPDEST PUSH1 0x40 MLOAD PUSH2 0x19A SWAP2 SWAP1 PUSH2 0x2A24 JUMP JUMPDEST PUSH1 0x40 MLOAD DUP1 SWAP2 SUB SWAP1 RETURN JUMPDEST CALLVALUE DUP1 ISZERO PUSH2 0x1AF JUMPI PUSH1 0x0 DUP1 REVERT JUMPDEST POP PUSH2 0x1CA PUSH1 0x4 DUP1 CALLDATASIZE SUB PUSH2 0x1C5 SWAP2 SWAP1 DUP2 ADD SWAP1 PUSH2 0x243A JUMP JUMPDEST PUSH2 0x6AC JUMP JUMPDEST PUSH1 0x40 MLOAD PUSH2 0x1DD SWAP8 SWAP7 SWAP6 SWAP5 SWAP4 SWAP3 SWAP2 SWAP1 PUSH2 0x28EB JUMP JUMPDEST PUSH1 0x40 MLOAD DUP1 SWAP2 SUB SWAP1 RETURN JUMPDEST CALLVALUE DUP1 ISZERO PUSH2 0x1F2 JUMPI PUSH1 0x0 DUP1 REVERT JUMPDEST POP PUSH2 0x1FB PUSH2 0xB8D JUMP JUMPDEST PUSH1 0x40 MLOAD PUSH2 0x208 SWAP2 SWAP1 PUSH2 0x2A24 JUMP JUMPDEST PUSH1 0x40 MLOAD DUP1 SWAP2 SUB SWAP1 RETURN JUMPDEST CALLVALUE DUP1 ISZERO PUSH2 0x21D JUMPI PUSH1 0x0 DUP1 REVERT JUMPDEST POP PUSH2 0x238 PUSH1 0x4 DUP1 CALLDATASIZE SUB PUSH2 0x233 SWAP2 SWAP1 DUP2 ADD SWAP1 PUSH2 0x27AC JUMP JUMPDEST PUSH2 0xB93 JUMP JUMPDEST PUSH1 0x40 MLOAD PUSH2 0x245 SWAP2 SWAP1 PUSH2 0x2893 JUMP JUMPDEST PUSH1 0x40 MLOAD DUP1 SWAP2 SUB SWAP1 RETURN JUMPDEST CALLVALUE DUP1 ISZERO PUSH2 0x25A JUMPI PUSH1 0x0 DUP1 REVERT JUMPDEST POP PUSH2 0x275 PUSH1 0x4 DUP1 CALLDATASIZE SUB PUSH2 0x270 SWAP2 SWAP1 DUP2 ADD SWAP1 PUSH2 0x249F JUMP JUMPDEST PUSH2 0xBD1 JUMP JUMPDEST STOP JUMPDEST CALLVALUE DUP1 ISZERO PUSH2 0x283 JUMPI PUSH1 0x0 DUP1 REVERT JUMPDEST POP PUSH2 0x29E PUSH1 0x4 DUP1 CALLDATASIZE SUB PUSH2 0x299 SWAP2 SWAP1 DUP2 ADD SWAP1 PUSH2 0x249F JUMP JUMPDEST PUSH2 0xDC5 JUMP JUMPDEST STOP JUMPDEST CALLVALUE DUP1 ISZERO PUSH2 0x2AC JUMPI PUSH1 0x0 DUP1 REVERT JUMPDEST POP PUSH2 0x2C7 PUSH1 0x4 DUP1 CALLDATASIZE SUB PUSH2 0x2C2 SWAP2 SWAP1 DUP2 ADD SWAP1 PUSH2 0x243A JUMP JUMPDEST PUSH2 0x11DF JUMP JUMPDEST PUSH1 0x40 MLOAD PUSH2 0x2D4 SWAP2 SWAP1 PUSH2 0x28D0 JUMP JUMPDEST PUSH1 0x40 MLOAD DUP1 SWAP2 SUB SWAP1 RETURN JUMPDEST CALLVALUE DUP1 ISZERO PUSH2 0x2E9 JUMPI PUSH1 0x0 DUP1 REVERT JUMPDEST POP PUSH2 0x304 PUSH1 0x4 DUP1 CALLDATASIZE SUB PUSH2 0x2FF SWAP2 SWAP1 DUP2 ADD SWAP1 PUSH2 0x243A JUMP JUMPDEST PUSH2 0x1291 JUMP JUMPDEST PUSH1 0x40 MLOAD PUSH2 0x311 SWAP2 SWAP1 PUSH2 0x28D0 JUMP JUMPDEST PUSH1 0x40 MLOAD DUP1 SWAP2 SUB SWAP1 RETURN JUMPDEST CALLVALUE DUP1 ISZERO PUSH2 0x326 JUMPI PUSH1 0x0 DUP1 REVERT JUMPDEST POP PUSH2 0x341 PUSH1 0x4 DUP1 CALLDATASIZE SUB PUSH2 0x33C SWAP2 SWAP1 DUP2 ADD SWAP1 PUSH2 0x25F9 JUMP JUMPDEST PUSH2 0x1330 JUMP JUMPDEST STOP JUMPDEST CALLVALUE DUP1 ISZERO PUSH2 0x34F JUMPI PUSH1 0x0 DUP1 REVERT JUMPDEST POP PUSH2 0x36A PUSH1 0x4 DUP1 CALLDATASIZE SUB PUSH2 0x365 SWAP2 SWAP1 DUP2 ADD SWAP1 PUSH2 0x25F9 JUMP JUMPDEST PUSH2 0x177E JUMP JUMPDEST STOP JUMPDEST CALLVALUE DUP1 ISZERO PUSH2 0x378 JUMPI PUSH1 0x0 DUP1 REVERT JUMPDEST POP PUSH2 0x381 PUSH2 0x19A6 JUMP JUMPDEST PUSH1 0x40 MLOAD PUSH2 0x38E SWAP2 SWAP1 PUSH2 0x2A24 JUMP JUMPDEST PUSH1 0x40 MLOAD DUP1 SWAP2 SUB SWAP1 RETURN JUMPDEST CALLVALUE DUP1 ISZERO PUSH2 0x3A3 JUMPI PUSH1 0x0 DUP1 REVERT JUMPDEST POP PUSH2 0x3AC PUSH2 0x19AC JUMP JUMPDEST PUSH1 0x40 MLOAD PUSH2 0x3B9 SWAP2 SWAP1 PUSH2 0x2A24 JUMP JUMPDEST PUSH1 0x40 MLOAD DUP1 SWAP2 SUB SWAP1 RETURN JUMPDEST CALLVALUE DUP1 ISZERO PUSH2 0x3CE JUMPI PUSH1 0x0 DUP1 REVERT JUMPDEST POP PUSH2 0x3D7 PUSH2 0x19B6 JUMP JUMPDEST PUSH1 0x40 MLOAD PUSH2 0x3E4 SWAP2 SWAP1 PUSH2 0x2893 JUMP JUMPDEST PUSH1 0x40 MLOAD DUP1 SWAP2 SUB SWAP1 RETURN JUMPDEST CALLVALUE DUP1 ISZERO PUSH2 0x3F9 JUMPI PUSH1 0x0 DUP1 REVERT JUMPDEST POP PUSH2 0x402 PUSH2 0x19DB JUMP JUMPDEST PUSH1 0x40 MLOAD PUSH2 0x40F SWAP2 SWAP1 PUSH2 0x2893 JUMP JUMPDEST PUSH1 0x40 MLOAD DUP1 SWAP2 SUB SWAP1 RETURN JUMPDEST CALLVALUE DUP1 ISZERO PUSH2 0x424 JUMPI PUSH1 0x0 DUP1 REVERT JUMPDEST POP PUSH2 0x42D PUSH2 0x1A44 JUMP JUMPDEST PUSH1 0x40 MLOAD PUSH2 0x43A SWAP2 SWAP1 PUSH2 0x2A24 JUMP JUMPDEST PUSH1 0x40 MLOAD DUP1 SWAP2 SUB SWAP1 RETURN JUMPDEST CALLVALUE DUP1 ISZERO PUSH2 0x44F JUMPI PUSH1 0x0 DUP1 REVERT JUMPDEST POP PUSH2 0x46A PUSH1 0x4 DUP1 CALLDATASIZE SUB PUSH2 0x465 SWAP2 SWAP1 DUP2 ADD SWAP1 PUSH2 0x27AC JUMP JUMPDEST PUSH2 0x1A4A JUMP JUMPDEST PUSH1 0x40 MLOAD PUSH2 0x477 SWAP2 SWAP1 PUSH2 0x2893 JUMP JUMPDEST PUSH1 0x40 MLOAD DUP1 SWAP2 SUB SWAP1 RETURN JUMPDEST CALLVALUE DUP1 ISZERO PUSH2 0x48C JUMPI PUSH1 0x0 DUP1 REVERT JUMPDEST POP PUSH2 0x495 PUSH2 0x1A88 JUMP JUMPDEST PUSH1 0x40 MLOAD PUSH2 0x4A2 SWAP2 SWAP1 PUSH2 0x28AE JUMP JUMPDEST PUSH1 0x40 MLOAD DUP1 SWAP2 SUB SWAP1 RETURN JUMPDEST CALLVALUE DUP1 ISZERO PUSH2 0x4B7 JUMPI PUSH1 0x0 DUP1 REVERT JUMPDEST POP PUSH2 0x4C0 PUSH2 0x1B16 JUMP JUMPDEST PUSH1 0x40 MLOAD PUSH2 0x4CD SWAP2 SWAP1 PUSH2 0x2A24 JUMP JUMPDEST PUSH1 0x40 MLOAD DUP1 SWAP2 SUB SWAP1 RETURN JUMPDEST CALLVALUE DUP1 ISZERO PUSH2 0x4E2 JUMPI PUSH1 0x0 DUP1 REVERT JUMPDEST POP PUSH2 0x4EB PUSH2 0x1B20 JUMP JUMPDEST PUSH1 0x40 MLOAD PUSH2 0x4F8 SWAP2 SWAP1 PUSH2 0x2893 JUMP JUMPDEST PUSH1 0x40 MLOAD DUP1 SWAP2 SUB SWAP1 RETURN JUMPDEST CALLVALUE DUP1 ISZERO PUSH2 0x50D JUMPI PUSH1 0x0 DUP1 REVERT JUMPDEST POP PUSH2 0x528 PUSH1 0x4 DUP1 CALLDATASIZE SUB PUSH2 0x523 SWAP2 SWAP1 DUP2 ADD SWAP1 PUSH2 0x2463 JUMP JUMPDEST PUSH2 0x1B46 JUMP JUMPDEST PUSH1 0x40 MLOAD PUSH2 0x535 SWAP2 SWAP1 PUSH2 0x28D0 JUMP JUMPDEST PUSH1 0x40 MLOAD DUP1 SWAP2 SUB SWAP1 RETURN JUMPDEST CALLVALUE DUP1 ISZERO PUSH2 0x54A JUMPI PUSH1 0x0 DUP1 REVERT JUMPDEST POP PUSH2 0x553 PUSH2 0x1C43 JUMP JUMPDEST PUSH1 0x40 MLOAD PUSH2 0x560 SWAP2 SWAP1 PUSH2 0x2A24 JUMP JUMPDEST PUSH1 0x40 MLOAD DUP1 SWAP2 SUB SWAP1 RETURN JUMPDEST CALLVALUE DUP1 ISZERO PUSH2 0x575 JUMPI PUSH1 0x0 DUP1 REVERT JUMPDEST POP PUSH2 0x590 PUSH1 0x4 DUP1 CALLDATASIZE SUB PUSH2 0x58B SWAP2 SWAP1 DUP2 ADD SWAP1 PUSH2 0x243A JUMP JUMPDEST PUSH2 0x1C49 JUMP JUMPDEST PUSH1 0x40 MLOAD PUSH2 0x5A3 SWAP8 SWAP7 SWAP6 SWAP5 SWAP4 SWAP3 SWAP2 SWAP1 PUSH2 0x2984 JUMP JUMPDEST PUSH1 0x40 MLOAD DUP1 SWAP2 SUB SWAP1 RETURN JUMPDEST CALLVALUE DUP1 ISZERO PUSH2 0x5B8 JUMPI PUSH1 0x0 DUP1 REVERT JUMPDEST POP PUSH2 0x5D3 PUSH1 0x4 DUP1 CALLDATASIZE SUB PUSH2 0x5CE SWAP2 SWAP1 DUP2 ADD SWAP1 PUSH2 0x2463 JUMP JUMPDEST PUSH2 0x21FE JUMP JUMPDEST PUSH1 0x40 MLOAD PUSH2 0x5E0 SWAP2 SWAP1 PUSH2 0x28D0 JUMP JUMPDEST PUSH1 0x40 MLOAD DUP1 SWAP2 SUB SWAP1 RETURN JUMPDEST CALLVALUE DUP1 ISZERO PUSH2 0x5F5 JUMPI PUSH1 0x0 DUP1 REVERT JUMPDEST POP PUSH2 0x5FE PUSH2 0x230D JUMP JUMPDEST PUSH1 0x40 MLOAD PUSH2 0x60B SWAP2 SWAP1 PUSH2 0x2A24 JUMP JUMPDEST PUSH1 0x40 MLOAD DUP1 SWAP2 SUB SWAP1 RETURN JUMPDEST PUSH1 0x60 PUSH1 0x1 DUP1 SLOAD DUP1 PUSH1 0x20 MUL PUSH1 0x20 ADD PUSH1 0x40 MLOAD SWAP1 DUP2 ADD PUSH1 0x40 MSTORE DUP1 SWAP3 SWAP2 SWAP1 DUP2 DUP2 MSTORE PUSH1 0x20 ADD DUP3 DUP1 SLOAD DUP1 ISZERO PUSH2 0x698 JUMPI PUSH1 0x20 MUL DUP3 ADD SWAP2 SWAP1 PUSH1 0x0 MSTORE PUSH1 0x20 PUSH1 0x0 KECCAK256 SWAP1 JUMPDEST DUP2 PUSH1 0x0 SWAP1 SLOAD SWAP1 PUSH2 0x100 EXP SWAP1 DIV PUSH20 0xFFFFFFFFFFFFFFFFFFFFFFFFFFFFFFFFFFFFFFFF AND PUSH20 0xFFFFFFFFFFFFFFFFFFFFFFFFFFFFFFFFFFFFFFFF AND DUP2 MSTORE PUSH1 0x20 ADD SWAP1 PUSH1 0x1 ADD SWAP1 DUP1 DUP4 GT PUSH2 0x64E JUMPI JUMPDEST POP POP POP POP POP SWAP1 POP SWAP1 JUMP JUMPDEST PUSH1 0x0 PUSH1 0xB SLOAD SWAP1 POP SWAP1 JUMP JUMPDEST PUSH1 0x60 DUP1 PUSH1 0x60 DUP1 PUSH1 0x60 DUP1 PUSH1 0x0 DUP1 PUSH1 0x5 PUSH1 0x0 DUP11 PUSH20 0xFFFFFFFFFFFFFFFFFFFFFFFFFFFFFFFFFFFFFFFF AND PUSH20 0xFFFFFFFFFFFFFFFFFFFFFFFFFFFFFFFFFFFFFFFF AND DUP2 MSTORE PUSH1 0x20 ADD SWAP1 DUP2 MSTORE PUSH1 0x20 ADD PUSH1 0x0 KECCAK256 PUSH1 0x0 CALLER PUSH20 0xFFFFFFFFFFFFFFFFFFFFFFFFFFFFFFFFFFFFFFFF AND PUSH20 0xFFFFFFFFFFFFFFFFFFFFFFFFFFFFFFFFFFFFFFFF AND DUP2 MSTORE PUSH1 0x20 ADD SWAP1 DUP2 MSTORE PUSH1 0x20 ADD PUSH1 0x0 KECCAK256 PUSH1 0x0 SWAP1 SLOAD SWAP1 PUSH2 0x100 EXP SWAP1 DIV PUSH1 0xFF AND ISZERO ISZERO PUSH2 0x74D JUMPI PUSH1 0x0 DUP1 REVERT JUMPDEST PUSH1 0x3 PUSH1 0x0 DUP11 PUSH20 0xFFFFFFFFFFFFFFFFFFFFFFFFFFFFFFFFFFFFFFFF AND PUSH20 0xFFFFFFFFFFFFFFFFFFFFFFFFFFFFFFFFFFFFFFFF AND DUP2 MSTORE PUSH1 0x20 ADD SWAP1 DUP2 MSTORE PUSH1 0x20 ADD PUSH1 0x0 KECCAK256 SWAP1 POP DUP1 PUSH1 0x0 ADD DUP2 PUSH1 0x1 ADD DUP3 PUSH1 0x2 ADD DUP4 PUSH1 0x3 ADD DUP5 PUSH1 0x4 ADD DUP6 PUSH1 0x5 ADD DUP7 PUSH1 0x9 ADD PUSH1 0x0 SWAP1 SLOAD SWAP1 PUSH2 0x100 EXP SWAP1 DIV PUSH20 0xFFFFFFFFFFFFFFFFFFFFFFFFFFFFFFFFFFFFFFFF AND DUP7 DUP1 SLOAD PUSH1 0x1 DUP2 PUSH1 0x1 AND ISZERO PUSH2 0x100 MUL SUB AND PUSH1 0x2 SWAP1 DIV DUP1 PUSH1 0x1F ADD PUSH1 0x20 DUP1 SWAP2 DIV MUL PUSH1 0x20 ADD PUSH1 0x40 MLOAD SWAP1 DUP2 ADD PUSH1 0x40 MSTORE DUP1 SWAP3 SWAP2 SWAP1 DUP2 DUP2 MSTORE PUSH1 0x20 ADD DUP3 DUP1 SLOAD PUSH1 0x1 DUP2 PUSH1 0x1 AND ISZERO PUSH2 0x100 MUL SUB AND PUSH1 0x2 SWAP1 DIV DUP1 ISZERO PUSH2 0x860 JUMPI DUP1 PUSH1 0x1F LT PUSH2 0x835 JUMPI PUSH2 0x100 DUP1 DUP4 SLOAD DIV MUL DUP4 MSTORE SWAP2 PUSH1 0x20 ADD SWAP2 PUSH2 0x860 JUMP JUMPDEST DUP3 ADD SWAP2 SWAP1 PUSH1 0x0 MSTORE PUSH1 0x20 PUSH1 0x0 KECCAK256 SWAP1 JUMPDEST DUP2 SLOAD DUP2 MSTORE SWAP1 PUSH1 0x1 ADD SWAP1 PUSH1 0x20 ADD DUP1 DUP4 GT PUSH2 0x843 JUMPI DUP3 SWAP1 SUB PUSH1 0x1F AND DUP3 ADD SWAP2 JUMPDEST POP POP POP POP POP SWAP7 POP DUP6 DUP1 SLOAD PUSH1 0x1 DUP2 PUSH1 0x1 AND ISZERO PUSH2 0x100 MUL SUB AND PUSH1 0x2 SWAP1 DIV DUP1 PUSH1 0x1F ADD PUSH1 0x20 DUP1 SWAP2 DIV MUL PUSH1 0x20 ADD PUSH1 0x40 MLOAD SWAP1 DUP2 ADD PUSH1 0x40 MSTORE DUP1 SWAP3 SWAP2 SWAP1 DUP2 DUP2 MSTORE PUSH1 0x20 ADD DUP3 DUP1 SLOAD PUSH1 0x1 DUP2 PUSH1 0x1 AND ISZERO PUSH2 0x100 MUL SUB AND PUSH1 0x2 SWAP1 DIV DUP1 ISZERO PUSH2 0x8FC JUMPI DUP1 PUSH1 0x1F LT PUSH2 0x8D1 JUMPI PUSH2 0x100 DUP1 DUP4 SLOAD DIV MUL DUP4 MSTORE SWAP2 PUSH1 0x20 ADD SWAP2 PUSH2 0x8FC JUMP JUMPDEST DUP3 ADD SWAP2 SWAP1 PUSH1 0x0 MSTORE PUSH1 0x20 PUSH1 0x0 KECCAK256 SWAP1 JUMPDEST DUP2 SLOAD DUP2 MSTORE SWAP1 PUSH1 0x1 ADD SWAP1 PUSH1 0x20 ADD DUP1 DUP4 GT PUSH2 0x8DF JUMPI DUP3 SWAP1 SUB PUSH1 0x1F AND DUP3 ADD SWAP2 JUMPDEST POP POP POP POP POP SWAP6 POP DUP5 DUP1 SLOAD PUSH1 0x1 DUP2 PUSH1 0x1 AND ISZERO PUSH2 0x100 MUL SUB AND PUSH1 0x2 SWAP1 DIV DUP1 PUSH1 0x1F ADD PUSH1 0x20 DUP1 SWAP2 DIV MUL PUSH1 0x20 ADD PUSH1 0x40 MLOAD SWAP1 DUP2 ADD PUSH1 0x40 MSTORE DUP1 SWAP3 SWAP2 SWAP1 DUP2 DUP2 MSTORE PUSH1 0x20 ADD DUP3 DUP1 SLOAD PUSH1 0x1 DUP2 PUSH1 0x1 AND ISZERO PUSH2 0x100 MUL SUB AND PUSH1 0x2 SWAP1 DIV DUP1 ISZERO PUSH2 0x998 JUMPI DUP1 PUSH1 0x1F LT PUSH2 0x96D JUMPI PUSH2 0x100 DUP1 DUP4 SLOAD DIV MUL DUP4 MSTORE SWAP2 PUSH1 0x20 ADD SWAP2 PUSH2 0x998 JUMP JUMPDEST DUP3 ADD SWAP2 SWAP1 PUSH1 0x0 MSTORE PUSH1 0x20 PUSH1 0x0 KECCAK256 SWAP1 JUMPDEST DUP2 SLOAD DUP2 MSTORE SWAP1 PUSH1 0x1 ADD SWAP1 PUSH1 0x20 ADD DUP1 DUP4 GT PUSH2 0x97B JUMPI DUP3 SWAP1 SUB PUSH1 0x1F AND DUP3 ADD SWAP2 JUMPDEST POP POP POP POP POP SWAP5 POP DUP4 DUP1 SLOAD PUSH1 0x1 DUP2 PUSH1 0x1 AND ISZERO PUSH2 0x100 MUL SUB AND PUSH1 0x2 SWAP1 DIV DUP1 PUSH1 0x1F ADD PUSH1 0x20 DUP1 SWAP2 DIV MUL PUSH1 0x20 ADD PUSH1 0x40 MLOAD SWAP1 DUP2 ADD PUSH1 0x40 MSTORE DUP1 SWAP3 SWAP2 SWAP1 DUP2 DUP2 MSTORE PUSH1 0x20 ADD DUP3 DUP1 SLOAD PUSH1 0x1 DUP2 PUSH1 0x1 AND ISZERO PUSH2 0x100 MUL SUB AND PUSH1 0x2 SWAP1 DIV DUP1 ISZERO PUSH2 0xA34 JUMPI DUP1 PUSH1 0x1F LT PUSH2 0xA09 JUMPI PUSH2 0x100 DUP1 DUP4 SLOAD DIV MUL DUP4 MSTORE SWAP2 PUSH1 0x20 ADD SWAP2 PUSH2 0xA34 JUMP JUMPDEST DUP3 ADD SWAP2 SWAP1 PUSH1 0x0 MSTORE PUSH1 0x20 PUSH1 0x0 KECCAK256 SWAP1 JUMPDEST DUP2 SLOAD DUP2 MSTORE SWAP1 PUSH1 0x1 ADD SWAP1 PUSH1 0x20 ADD DUP1 DUP4 GT PUSH2 0xA17 JUMPI DUP3 SWAP1 SUB PUSH1 0x1F AND DUP3 ADD SWAP2 JUMPDEST POP POP POP POP POP SWAP4 POP DUP3 DUP1 SLOAD PUSH1 0x1 DUP2 PUSH1 0x1 AND ISZERO PUSH2 0x100 MUL SUB AND PUSH1 0x2 SWAP1 DIV DUP1 PUSH1 0x1F ADD PUSH1 0x20 DUP1 SWAP2 DIV MUL PUSH1 0x20 ADD PUSH1 0x40 MLOAD SWAP1 DUP2 ADD PUSH1 0x40 MSTORE DUP1 SWAP3 SWAP2 SWAP1 DUP2 DUP2 MSTORE PUSH1 0x20 ADD DUP3 DUP1 SLOAD PUSH1 0x1 DUP2 PUSH1 0x1 AND ISZERO PUSH2 0x100 MUL SUB AND PUSH1 0x2 SWAP1 DIV DUP1 ISZERO PUSH2 0xAD0 JUMPI DUP1 PUSH1 0x1F LT PUSH2 0xAA5 JUMPI PUSH2 0x100 DUP1 DUP4 SLOAD DIV MUL DUP4 MSTORE SWAP2 PUSH1 0x20 ADD SWAP2 PUSH2 0xAD0 JUMP JUMPDEST DUP3 ADD SWAP2 SWAP1 PUSH1 0x0 MSTORE PUSH1 0x20 PUSH1 0x0 KECCAK256 SWAP1 JUMPDEST DUP2 SLOAD DUP2 MSTORE SWAP1 PUSH1 0x1 ADD SWAP1 PUSH1 0x20 ADD DUP1 DUP4 GT PUSH2 0xAB3 JUMPI DUP3 SWAP1 SUB PUSH1 0x1F AND DUP3 ADD SWAP2 JUMPDEST POP POP POP POP POP SWAP3 POP DUP2 DUP1 SLOAD PUSH1 0x1 DUP2 PUSH1 0x1 AND ISZERO PUSH2 0x100 MUL SUB AND PUSH1 0x2 SWAP1 DIV DUP1 PUSH1 0x1F ADD PUSH1 0x20 DUP1 SWAP2 DIV MUL PUSH1 0x20 ADD PUSH1 0x40 MLOAD SWAP1 DUP2 ADD PUSH1 0x40 MSTORE DUP1 SWAP3 SWAP2 SWAP1 DUP2 DUP2 MSTORE PUSH1 0x20 ADD DUP3 DUP1 SLOAD PUSH1 0x1 DUP2 PUSH1 0x1 AND ISZERO PUSH2 0x100 MUL SUB AND PUSH1 0x2 SWAP1 DIV DUP1 ISZERO PUSH2 0xB6C JUMPI DUP1 PUSH1 0x1F LT PUSH2 0xB41 JUMPI PUSH2 0x100 DUP1 DUP4 SLOAD DIV MUL DUP4 MSTORE SWAP2 PUSH1 0x20 ADD SWAP2 PUSH2 0xB6C JUMP JUMPDEST DUP3 ADD SWAP2 SWAP1 PUSH1 0x0 MSTORE PUSH1 0x20 PUSH1 0x0 KECCAK256 SWAP1 JUMPDEST DUP2 SLOAD DUP2 MSTORE SWAP1 PUSH1 0x1 ADD SWAP1 PUSH1 0x20 ADD DUP1 DUP4 GT PUSH2 0xB4F JUMPI DUP3 SWAP1 SUB PUSH1 0x1F AND DUP3 ADD SWAP2 JUMPDEST POP POP POP POP POP SWAP2 POP SWAP8 POP SWAP8 POP SWAP8 POP SWAP8 POP SWAP8 POP SWAP8 POP SWAP8 POP POP SWAP2 SWAP4 SWAP6 SWAP8 SWAP1 SWAP3 SWAP5 SWAP7 POP JUMP JUMPDEST PUSH1 0x8 SLOAD DUP2 JUMP JUMPDEST PUSH1 0x2 DUP2 DUP2 SLOAD DUP2 LT ISZERO ISZERO PUSH2 0xBA2 JUMPI INVALID JUMPDEST SWAP1 PUSH1 0x0 MSTORE PUSH1 0x20 PUSH1 0x0 KECCAK256 ADD PUSH1 0x0 SWAP2 POP SLOAD SWAP1 PUSH2 0x100 EXP SWAP1 DIV PUSH20 0xFFFFFFFFFFFFFFFFFFFFFFFFFFFFFFFFFFFFFFFF AND DUP2 JUMP JUMPDEST PUSH1 0x0 PUSH1 0xC PUSH1 0x0 SWAP1 SLOAD SWAP1 PUSH2 0x100 EXP SWAP1 DIV PUSH20 0xFFFFFFFFFFFFFFFFFFFFFFFFFFFFFFFFFFFFFFFF AND PUSH20 0xFFFFFFFFFFFFFFFFFFFFFFFFFFFFFFFFFFFFFFFF AND CALLER PUSH20 0xFFFFFFFFFFFFFFFFFFFFFFFFFFFFFFFFFFFFFFFF AND EQ ISZERO ISZERO PUSH2 0xC2F JUMPI PUSH1 0x0 DUP1 REVERT JUMPDEST PUSH1 0x7 PUSH1 0x0 DUP11 PUSH20 0xFFFFFFFFFFFFFFFFFFFFFFFFFFFFFFFFFFFFFFFF AND PUSH20 0xFFFFFFFFFFFFFFFFFFFFFFFFFFFFFFFFFFFFFFFF AND DUP2 MSTORE PUSH1 0x20 ADD SWAP1 DUP2 MSTORE PUSH1 0x20 ADD PUSH1 0x0 KECCAK256 PUSH1 0x0 SWAP1 SLOAD SWAP1 PUSH2 0x100 EXP SWAP1 DIV PUSH1 0xFF AND ISZERO ISZERO PUSH2 0xC87 JUMPI PUSH1 0x0 DUP1 REVERT JUMPDEST PUSH1 0x4 PUSH1 0x0 DUP11 PUSH20 0xFFFFFFFFFFFFFFFFFFFFFFFFFFFFFFFFFFFFFFFF AND PUSH20 0xFFFFFFFFFFFFFFFFFFFFFFFFFFFFFFFFFFFFFFFF AND DUP2 MSTORE PUSH1 0x20 ADD SWAP1 DUP2 MSTORE PUSH1 0x20 ADD PUSH1 0x0 KECCAK256 SWAP1 POP DUP8 DUP2 PUSH1 0x0 ADD SWAP1 DUP1 MLOAD SWAP1 PUSH1 0x20 ADD SWAP1 PUSH2 0xCE0 SWAP3 SWAP2 SWAP1 PUSH2 0x2317 JUMP JUMPDEST POP DUP7 DUP2 PUSH1 0x1 ADD SWAP1 DUP1 MLOAD SWAP1 PUSH1 0x20 ADD SWAP1 PUSH2 0xCF9 SWAP3 SWAP2 SWAP1 PUSH2 0x2317 JUMP JUMPDEST POP DUP6 DUP2 PUSH1 0x2 ADD SWAP1 DUP1 MLOAD SWAP1 PUSH1 0x20 ADD SWAP1 PUSH2 0xD12 SWAP3 SWAP2 SWAP1 PUSH2 0x2317 JUMP JUMPDEST POP DUP5 DUP2 PUSH1 0x3 ADD SWAP1 DUP1 MLOAD SWAP1 PUSH1 0x20 ADD SWAP1 PUSH2 0xD2B SWAP3 SWAP2 SWAP1 PUSH2 0x2317 JUMP JUMPDEST POP DUP4 DUP2 PUSH1 0x4 ADD SWAP1 DUP1 MLOAD SWAP1 PUSH1 0x20 ADD SWAP1 PUSH2 0xD44 SWAP3 SWAP2 SWAP1 PUSH2 0x2317 JUMP JUMPDEST POP DUP3 DUP2 PUSH1 0x7 ADD SWAP1 DUP1 MLOAD SWAP1 PUSH1 0x20 ADD SWAP1 PUSH2 0xD5D SWAP3 SWAP2 SWAP1 PUSH2 0x2317 JUMP JUMPDEST POP DUP2 DUP2 PUSH1 0x8 ADD SWAP1 DUP1 MLOAD SWAP1 PUSH1 0x20 ADD SWAP1 PUSH2 0xD76 SWAP3 SWAP2 SWAP1 PUSH2 0x2317 JUMP JUMPDEST POP DUP9 DUP2 PUSH1 0x9 ADD PUSH1 0x0 PUSH2 0x100 EXP DUP2 SLOAD DUP2 PUSH20 0xFFFFFFFFFFFFFFFFFFFFFFFFFFFFFFFFFFFFFFFF MUL NOT AND SWAP1 DUP4 PUSH20 0xFFFFFFFFFFFFFFFFFFFFFFFFFFFFFFFFFFFFFFFF AND MUL OR SWAP1 SSTORE POP POP POP POP POP POP POP POP POP POP JUMP JUMPDEST PUSH1 0x0 PUSH1 0xC PUSH1 0x0 SWAP1 SLOAD SWAP1 PUSH2 0x100 EXP SWAP1 DIV PUSH20 0xFFFFFFFFFFFFFFFFFFFFFFFFFFFFFFFFFFFFFFFF AND PUSH20 0xFFFFFFFFFFFFFFFFFFFFFFFFFFFFFFFFFFFFFFFF AND CALLER PUSH20 0xFFFFFFFFFFFFFFFFFFFFFFFFFFFFFFFFFFFFFFFF AND EQ ISZERO ISZERO PUSH2 0xE23 JUMPI PUSH1 0x0 DUP1 REVERT JUMPDEST PUSH1 0x7 PUSH1 0x0 DUP11 PUSH20 0xFFFFFFFFFFFFFFFFFFFFFFFFFFFFFFFFFFFFFFFF AND PUSH20 0xFFFFFFFFFFFFFFFFFFFFFFFFFFFFFFFFFFFFFFFF AND DUP2 MSTORE PUSH1 0x20 ADD SWAP1 DUP2 MSTORE PUSH1 0x20 ADD PUSH1 0x0 KECCAK256 PUSH1 0x0 SWAP1 SLOAD SWAP1 PUSH2 0x100 EXP SWAP1 DIV PUSH1 0xFF AND ISZERO ISZERO ISZERO PUSH2 0xE7C JUMPI PUSH1 0x0 DUP1 REVERT JUMPDEST PUSH1 0x4 PUSH1 0x0 DUP11 PUSH20 0xFFFFFFFFFFFFFFFFFFFFFFFFFFFFFFFFFFFFFFFF AND PUSH20 0xFFFFFFFFFFFFFFFFFFFFFFFFFFFFFFFFFFFFFFFF AND DUP2 MSTORE PUSH1 0x20 ADD SWAP1 DUP2 MSTORE PUSH1 0x20 ADD PUSH1 0x0 KECCAK256 SWAP1 POP DUP8 DUP2 PUSH1 0x0 ADD SWAP1 DUP1 MLOAD SWAP1 PUSH1 0x20 ADD SWAP1 PUSH2 0xED5 SWAP3 SWAP2 SWAP1 PUSH2 0x2317 JUMP JUMPDEST POP DUP7 DUP2 PUSH1 0x1 ADD SWAP1 DUP1 MLOAD SWAP1 PUSH1 0x20 ADD SWAP1 PUSH2 0xEEE SWAP3 SWAP2 SWAP1 PUSH2 0x2317 JUMP JUMPDEST POP DUP6 DUP2 PUSH1 0x2 ADD SWAP1 DUP1 MLOAD SWAP1 PUSH1 0x20 ADD SWAP1 PUSH2 0xF07 SWAP3 SWAP2 SWAP1 PUSH2 0x2317 JUMP JUMPDEST POP DUP5 DUP2 PUSH1 0x3 ADD SWAP1 DUP1 MLOAD SWAP1 PUSH1 0x20 ADD SWAP1 PUSH2 0xF20 SWAP3 SWAP2 SWAP1 PUSH2 0x2317 JUMP JUMPDEST POP DUP4 DUP2 PUSH1 0x4 ADD SWAP1 DUP1 MLOAD SWAP1 PUSH1 0x20 ADD SWAP1 PUSH2 0xF39 SWAP3 SWAP2 SWAP1 PUSH2 0x2317 JUMP JUMPDEST POP DUP3 DUP2 PUSH1 0x7 ADD SWAP1 DUP1 MLOAD SWAP1 PUSH1 0x20 ADD SWAP1 PUSH2 0xF52 SWAP3 SWAP2 SWAP1 PUSH2 0x2317 JUMP JUMPDEST POP DUP2 DUP2 PUSH1 0x8 ADD SWAP1 DUP1 MLOAD SWAP1 PUSH1 0x20 ADD SWAP1 PUSH2 0xF6B SWAP3 SWAP2 SWAP1 PUSH2 0x2317 JUMP JUMPDEST POP DUP9 DUP2 PUSH1 0x9 ADD PUSH1 0x0 PUSH2 0x100 EXP DUP2 SLOAD DUP2 PUSH20 0xFFFFFFFFFFFFFFFFFFFFFFFFFFFFFFFFFFFFFFFF MUL NOT AND SWAP1 DUP4 PUSH20 0xFFFFFFFFFFFFFFFFFFFFFFFFFFFFFFFFFFFFFFFF AND MUL OR SWAP1 SSTORE POP TIMESTAMP DUP2 PUSH1 0xA ADD DUP2 SWAP1 SSTORE POP PUSH1 0x2 DUP10 SWAP1 DUP1 PUSH1 0x1 DUP2 SLOAD ADD DUP1 DUP3 SSTORE DUP1 SWAP2 POP POP SWAP1 PUSH1 0x1 DUP3 SUB SWAP1 PUSH1 0x0 MSTORE PUSH1 0x20 PUSH1 0x0 KECCAK256 ADD PUSH1 0x0 SWAP1 SWAP2 SWAP3 SWAP1 SWAP2 SWAP1 SWAP2 PUSH2 0x100 EXP DUP2 SLOAD DUP2 PUSH20 0xFFFFFFFFFFFFFFFFFFFFFFFFFFFFFFFFFFFFFFFF MUL NOT AND SWAP1 DUP4 PUSH20 0xFFFFFFFFFFFFFFFFFFFFFFFFFFFFFFFFFFFFFFFF AND MUL OR SWAP1 SSTORE POP POP PUSH1 0x1 PUSH1 0x7 PUSH1 0x0 DUP12 PUSH20 0xFFFFFFFFFFFFFFFFFFFFFFFFFFFFFFFFFFFFFFFF AND PUSH20 0xFFFFFFFFFFFFFFFFFFFFFFFFFFFFFFFFFFFFFFFF AND DUP2 MSTORE PUSH1 0x20 ADD SWAP1 DUP2 MSTORE PUSH1 0x20 ADD PUSH1 0x0 KECCAK256 PUSH1 0x0 PUSH2 0x100 EXP DUP2 SLOAD DUP2 PUSH1 0xFF MUL NOT AND SWAP1 DUP4 ISZERO ISZERO MUL OR SWAP1 SSTORE POP PUSH1 0x1 PUSH1 0x5 PUSH1 0x0 DUP12 PUSH20 0xFFFFFFFFFFFFFFFFFFFFFFFFFFFFFFFFFFFFFFFF AND PUSH20 0xFFFFFFFFFFFFFFFFFFFFFFFFFFFFFFFFFFFFFFFF AND DUP2 MSTORE PUSH1 0x20 ADD SWAP1 DUP2 MSTORE PUSH1 0x20 ADD PUSH1 0x0 KECCAK256 PUSH1 0x0 DUP12 PUSH20 0xFFFFFFFFFFFFFFFFFFFFFFFFFFFFFFFFFFFFFFFF AND PUSH20 0xFFFFFFFFFFFFFFFFFFFFFFFFFFFFFFFFFFFFFFFF AND DUP2 MSTORE PUSH1 0x20 ADD SWAP1 DUP2 MSTORE PUSH1 0x20 ADD PUSH1 0x0 KECCAK256 PUSH1 0x0 PUSH2 0x100 EXP DUP2 SLOAD DUP2 PUSH1 0xFF MUL NOT AND SWAP1 DUP4 ISZERO ISZERO MUL OR SWAP1 SSTORE POP PUSH1 0x1 PUSH1 0x5 PUSH1 0x0 DUP12 PUSH20 0xFFFFFFFFFFFFFFFFFFFFFFFFFFFFFFFFFFFFFFFF AND PUSH20 0xFFFFFFFFFFFFFFFFFFFFFFFFFFFFFFFFFFFFFFFF AND DUP2 MSTORE PUSH1 0x20 ADD SWAP1 DUP2 MSTORE PUSH1 0x20 ADD PUSH1 0x0 KECCAK256 PUSH1 0x0 PUSH1 0xC PUSH1 0x0 SWAP1 SLOAD SWAP1 PUSH2 0x100 EXP SWAP1 DIV PUSH20 0xFFFFFFFFFFFFFFFFFFFFFFFFFFFFFFFFFFFFFFFF AND PUSH20 0xFFFFFFFFFFFFFFFFFFFFFFFFFFFFFFFFFFFFFFFF AND PUSH20 0xFFFFFFFFFFFFFFFFFFFFFFFFFFFFFFFFFFFFFFFF AND DUP2 MSTORE PUSH1 0x20 ADD SWAP1 DUP2 MSTORE PUSH1 0x20 ADD PUSH1 0x0 KECCAK256 PUSH1 0x0 PUSH2 0x100 EXP DUP2 SLOAD DUP2 PUSH1 0xFF MUL NOT AND SWAP1 DUP4 ISZERO ISZERO MUL OR SWAP1 SSTORE POP PUSH1 0x9 PUSH1 0x0 DUP2 SLOAD DUP1 SWAP3 SWAP2 SWAP1 PUSH1 0x1 ADD SWAP2 SWAP1 POP SSTORE POP POP POP POP POP POP POP POP POP POP JUMP JUMPDEST PUSH1 0x0 PUSH1 0x1 PUSH1 0x5 PUSH1 0x0 CALLER PUSH20 0xFFFFFFFFFFFFFFFFFFFFFFFFFFFFFFFFFFFFFFFF AND PUSH20 0xFFFFFFFFFFFFFFFFFFFFFFFFFFFFFFFFFFFFFFFF AND DUP2 MSTORE PUSH1 0x20 ADD SWAP1 DUP2 MSTORE PUSH1 0x20 ADD PUSH1 0x0 KECCAK256 PUSH1 0x0 DUP5 PUSH20 0xFFFFFFFFFFFFFFFFFFFFFFFFFFFFFFFFFFFFFFFF AND PUSH20 0xFFFFFFFFFFFFFFFFFFFFFFFFFFFFFFFFFFFFFFFF AND DUP2 MSTORE PUSH1 0x20 ADD SWAP1 DUP2 MSTORE PUSH1 0x20 ADD PUSH1 0x0 KECCAK256 PUSH1 0x0 PUSH2 0x100 EXP DUP2 SLOAD DUP2 PUSH1 0xFF MUL NOT AND SWAP1 DUP4 ISZERO ISZERO MUL OR SWAP1 SSTORE POP PUSH1 0xB PUSH1 0x0 DUP2 SLOAD DUP1 SWAP3 SWAP2 SWAP1 PUSH1 0x1 ADD SWAP2 SWAP1 POP SSTORE POP PUSH1 0x1 SWAP1 POP SWAP2 SWAP1 POP JUMP JUMPDEST PUSH1 0x0 DUP1 PUSH1 0x5 PUSH1 0x0 CALLER PUSH20 0xFFFFFFFFFFFFFFFFFFFFFFFFFFFFFFFFFFFFFFFF AND PUSH20 0xFFFFFFFFFFFFFFFFFFFFFFFFFFFFFFFFFFFFFFFF AND DUP2 MSTORE PUSH1 0x20 ADD SWAP1 DUP2 MSTORE PUSH1 0x20 ADD PUSH1 0x0 KECCAK256 PUSH1 0x0 DUP5 PUSH20 0xFFFFFFFFFFFFFFFFFFFFFFFFFFFFFFFFFFFFFFFF AND PUSH20 0xFFFFFFFFFFFFFFFFFFFFFFFFFFFFFFFFFFFFFFFF AND DUP2 MSTORE PUSH1 0x20 ADD SWAP1 DUP2 MSTORE PUSH1 0x20 ADD PUSH1 0x0 KECCAK256 PUSH1 0x0 PUSH2 0x100 EXP DUP2 SLOAD DUP2 PUSH1 0xFF MUL NOT AND SWAP1 DUP4 ISZERO ISZERO MUL OR SWAP1 SSTORE POP PUSH1 0x1 SWAP1 POP SWAP2 SWAP1 POP JUMP JUMPDEST PUSH1 0x0 PUSH1 0xC PUSH1 0x0 SWAP1 SLOAD SWAP1 PUSH2 0x100 EXP SWAP1 DIV PUSH20 0xFFFFFFFFFFFFFFFFFFFFFFFFFFFFFFFFFFFFFFFF AND PUSH20 0xFFFFFFFFFFFFFFFFFFFFFFFFFFFFFFFFFFFFFFFF AND CALLER PUSH20 0xFFFFFFFFFFFFFFFFFFFFFFFFFFFFFFFFFFFFFFFF AND EQ ISZERO ISZERO PUSH2 0x138E JUMPI PUSH1 0x0 DUP1 REVERT JUMPDEST PUSH1 0x6 PUSH1 0x0 DUP13 PUSH20 0xFFFFFFFFFFFFFFFFFFFFFFFFFFFFFFFFFFFFFFFF AND PUSH20 0xFFFFFFFFFFFFFFFFFFFFFFFFFFFFFFFFFFFFFFFF AND DUP2 MSTORE PUSH1 0x20 ADD SWAP1 DUP2 MSTORE PUSH1 0x20 ADD PUSH1 0x0 KECCAK256 PUSH1 0x0 SWAP1 SLOAD SWAP1 PUSH2 0x100 EXP SWAP1 DIV PUSH1 0xFF AND ISZERO ISZERO ISZERO PUSH2 0x13E7 JUMPI PUSH1 0x0 DUP1 REVERT JUMPDEST PUSH1 0x3 PUSH1 0x0 DUP13 PUSH20 0xFFFFFFFFFFFFFFFFFFFFFFFFFFFFFFFFFFFFFFFF AND PUSH20 0xFFFFFFFFFFFFFFFFFFFFFFFFFFFFFFFFFFFFFFFF AND DUP2 MSTORE PUSH1 0x20 ADD SWAP1 DUP2 MSTORE PUSH1 0x20 ADD PUSH1 0x0 KECCAK256 SWAP1 POP DUP10 DUP2 PUSH1 0x0 ADD SWAP1 DUP1 MLOAD SWAP1 PUSH1 0x20 ADD SWAP1 PUSH2 0x1440 SWAP3 SWAP2 SWAP1 PUSH2 0x2317 JUMP JUMPDEST POP DUP9 DUP2 PUSH1 0x1 ADD SWAP1 DUP1 MLOAD SWAP1 PUSH1 0x20 ADD SWAP1 PUSH2 0x1459 SWAP3 SWAP2 SWAP1 PUSH2 0x2317 JUMP JUMPDEST POP DUP8 DUP2 PUSH1 0x2 ADD SWAP1 DUP1 MLOAD SWAP1 PUSH1 0x20 ADD SWAP1 PUSH2 0x1472 SWAP3 SWAP2 SWAP1 PUSH2 0x2317 JUMP JUMPDEST POP DUP7 DUP2 PUSH1 0x3 ADD SWAP1 DUP1 MLOAD SWAP1 PUSH1 0x20 ADD SWAP1 PUSH2 0x148B SWAP3 SWAP2 SWAP1 PUSH2 0x2317 JUMP JUMPDEST POP DUP6 DUP2 PUSH1 0x4 ADD SWAP1 DUP1 MLOAD SWAP1 PUSH1 0x20 ADD SWAP1 PUSH2 0x14A4 SWAP3 SWAP2 SWAP1 PUSH2 0x2317 JUMP JUMPDEST POP DUP5 DUP2 PUSH1 0x5 ADD SWAP1 DUP1 MLOAD SWAP1 PUSH1 0x20 ADD SWAP1 PUSH2 0x14BD SWAP3 SWAP2 SWAP1 PUSH2 0x2317 JUMP JUMPDEST POP DUP4 DUP2 PUSH1 0x6 ADD SWAP1 DUP1 MLOAD SWAP1 PUSH1 0x20 ADD SWAP1 PUSH2 0x14D6 SWAP3 SWAP2 SWAP1 PUSH2 0x2317 JUMP JUMPDEST POP DUP3 DUP2 PUSH1 0x7 ADD SWAP1 DUP1 MLOAD SWAP1 PUSH1 0x20 ADD SWAP1 PUSH2 0x14EF SWAP3 SWAP2 SWAP1 PUSH2 0x2317 JUMP JUMPDEST POP DUP2 DUP2 PUSH1 0x8 ADD SWAP1 DUP1 MLOAD SWAP1 PUSH1 0x20 ADD SWAP1 PUSH2 0x1508 SWAP3 SWAP2 SWAP1 PUSH2 0x2317 JUMP JUMPDEST POP DUP11 DUP2 PUSH1 0x9 ADD PUSH1 0x0 PUSH2 0x100 EXP DUP2 SLOAD DUP2 PUSH20 0xFFFFFFFFFFFFFFFFFFFFFFFFFFFFFFFFFFFFFFFF MUL NOT AND SWAP1 DUP4 PUSH20 0xFFFFFFFFFFFFFFFFFFFFFFFFFFFFFFFFFFFFFFFF AND MUL OR SWAP1 SSTORE POP TIMESTAMP DUP2 PUSH1 0xA ADD DUP2 SWAP1 SSTORE POP PUSH1 0x1 DUP12 SWAP1 DUP1 PUSH1 0x1 DUP2 SLOAD ADD DUP1 DUP3 SSTORE DUP1 SWAP2 POP POP SWAP1 PUSH1 0x1 DUP3 SUB SWAP1 PUSH1 0x0 MSTORE PUSH1 0x20 PUSH1 0x0 KECCAK256 ADD PUSH1 0x0 SWAP1 SWAP2 SWAP3 SWAP1 SWAP2 SWAP1 SWAP2 PUSH2 0x100 EXP DUP2 SLOAD DUP2 PUSH20 0xFFFFFFFFFFFFFFFFFFFFFFFFFFFFFFFFFFFFFFFF MUL NOT AND SWAP1 DUP4 PUSH20 0xFFFFFFFFFFFFFFFFFFFFFFFFFFFFFFFFFFFFFFFF AND MUL OR SWAP1 SSTORE POP POP PUSH1 0x1 PUSH1 0x6 PUSH1 0x0 DUP14 PUSH20 0xFFFFFFFFFFFFFFFFFFFFFFFFFFFFFFFFFFFFFFFF AND PUSH20 0xFFFFFFFFFFFFFFFFFFFFFFFFFFFFFFFFFFFFFFFF AND DUP2 MSTORE PUSH1 0x20 ADD SWAP1 DUP2 MSTORE PUSH1 0x20 ADD PUSH1 0x0 KECCAK256 PUSH1 0x0 PUSH2 0x100 EXP DUP2 SLOAD DUP2 PUSH1 0xFF MUL NOT AND SWAP1 DUP4 ISZERO ISZERO MUL OR SWAP1 SSTORE POP PUSH1 0x1 PUSH1 0x5 PUSH1 0x0 DUP14 PUSH20 0xFFFFFFFFFFFFFFFFFFFFFFFFFFFFFFFFFFFFFFFF AND PUSH20 0xFFFFFFFFFFFFFFFFFFFFFFFFFFFFFFFFFFFFFFFF AND DUP2 MSTORE PUSH1 0x20 ADD SWAP1 DUP2 MSTORE PUSH1 0x20 ADD PUSH1 0x0 KECCAK256 PUSH1 0x0 DUP14 PUSH20 0xFFFFFFFFFFFFFFFFFFFFFFFFFFFFFFFFFFFFFFFF AND PUSH20 0xFFFFFFFFFFFFFFFFFFFFFFFFFFFFFFFFFFFFFFFF AND DUP2 MSTORE PUSH1 0x20 ADD SWAP1 DUP2 MSTORE PUSH1 0x20 ADD PUSH1 0x0 KECCAK256 PUSH1 0x0 PUSH2 0x100 EXP DUP2 SLOAD DUP2 PUSH1 0xFF MUL NOT AND SWAP1 DUP4 ISZERO ISZERO MUL OR SWAP1 SSTORE POP PUSH1 0x1 PUSH1 0x5 PUSH1 0x0 DUP14 PUSH20 0xFFFFFFFFFFFFFFFFFFFFFFFFFFFFFFFFFFFFFFFF AND PUSH20 0xFFFFFFFFFFFFFFFFFFFFFFFFFFFFFFFFFFFFFFFF AND DUP2 MSTORE PUSH1 0x20 ADD SWAP1 DUP2 MSTORE PUSH1 0x20 ADD PUSH1 0x0 KECCAK256 PUSH1 0x0 PUSH1 0xC PUSH1 0x0 SWAP1 SLOAD SWAP1 PUSH2 0x100 EXP SWAP1 DIV PUSH20 0xFFFFFFFFFFFFFFFFFFFFFFFFFFFFFFFFFFFFFFFF AND PUSH20 0xFFFFFFFFFFFFFFFFFFFFFFFFFFFFFFFFFFFFFFFF AND PUSH20 0xFFFFFFFFFFFFFFFFFFFFFFFFFFFFFFFFFFFFFFFF AND DUP2 MSTORE PUSH1 0x20 ADD SWAP1 DUP2 MSTORE PUSH1 0x20 ADD PUSH1 0x0 KECCAK256 PUSH1 0x0 PUSH2 0x100 EXP DUP2 SLOAD DUP2 PUSH1 0xFF MUL NOT AND SWAP1 DUP4 ISZERO ISZERO MUL OR SWAP1 SSTORE POP PUSH1 0x8 PUSH1 0x0 DUP2 SLOAD DUP1 SWAP3 SWAP2 SWAP1 PUSH1 0x1 ADD SWAP2 SWAP1 POP SSTORE POP POP POP POP POP POP POP POP POP POP POP POP JUMP JUMPDEST PUSH1 0x0 PUSH1 0xC PUSH1 0x0 SWAP1 SLOAD SWAP1 PUSH2 0x100 EXP SWAP1 DIV PUSH20 0xFFFFFFFFFFFFFFFFFFFFFFFFFFFFFFFFFFFFFFFF AND PUSH20 0xFFFFFFFFFFFFFFFFFFFFFFFFFFFFFFFFFFFFFFFF AND CALLER PUSH20 0xFFFFFFFFFFFFFFFFFFFFFFFFFFFFFFFFFFFFFFFF AND EQ ISZERO ISZERO PUSH2 0x17DC JUMPI PUSH1 0x0 DUP1 REVERT JUMPDEST PUSH1 0x6 PUSH1 0x0 DUP13 PUSH20 0xFFFFFFFFFFFFFFFFFFFFFFFFFFFFFFFFFFFFFFFF AND PUSH20 0xFFFFFFFFFFFFFFFFFFFFFFFFFFFFFFFFFFFFFFFF AND DUP2 MSTORE PUSH1 0x20 ADD SWAP1 DUP2 MSTORE PUSH1 0x20 ADD PUSH1 0x0 KECCAK256 PUSH1 0x0 SWAP1 SLOAD SWAP1 PUSH2 0x100 EXP SWAP1 DIV PUSH1 0xFF AND ISZERO ISZERO PUSH2 0x1834 JUMPI PUSH1 0x0 DUP1 REVERT JUMPDEST PUSH1 0x3 PUSH1 0x0 DUP13 PUSH20 0xFFFFFFFFFFFFFFFFFFFFFFFFFFFFFFFFFFFFFFFF AND PUSH20 0xFFFFFFFFFFFFFFFFFFFFFFFFFFFFFFFFFFFFFFFF AND DUP2 MSTORE PUSH1 0x20 ADD SWAP1 DUP2 MSTORE PUSH1 0x20 ADD PUSH1 0x0 KECCAK256 SWAP1 POP DUP10 DUP2 PUSH1 0x0 ADD SWAP1 DUP1 MLOAD SWAP1 PUSH1 0x20 ADD SWAP1 PUSH2 0x188D SWAP3 SWAP2 SWAP1 PUSH2 0x2317 JUMP JUMPDEST POP DUP9 DUP2 PUSH1 0x1 ADD SWAP1 DUP1 MLOAD SWAP1 PUSH1 0x20 ADD SWAP1 PUSH2 0x18A6 SWAP3 SWAP2 SWAP1 PUSH2 0x2317 JUMP JUMPDEST POP DUP8 DUP2 PUSH1 0x2 ADD SWAP1 DUP1 MLOAD SWAP1 PUSH1 0x20 ADD SWAP1 PUSH2 0x18BF SWAP3 SWAP2 SWAP1 PUSH2 0x2317 JUMP JUMPDEST POP DUP7 DUP2 PUSH1 0x3 ADD SWAP1 DUP1 MLOAD SWAP1 PUSH1 0x20 ADD SWAP1 PUSH2 0x18D8 SWAP3 SWAP2 SWAP1 PUSH2 0x2317 JUMP JUMPDEST POP DUP6 DUP2 PUSH1 0x4 ADD SWAP1 DUP1 MLOAD SWAP1 PUSH1 0x20 ADD SWAP1 PUSH2 0x18F1 SWAP3 SWAP2 SWAP1 PUSH2 0x2317 JUMP JUMPDEST POP DUP5 DUP2 PUSH1 0x5 ADD SWAP1 DUP1 MLOAD SWAP1 PUSH1 0x20 ADD SWAP1 PUSH2 0x190A SWAP3 SWAP2 SWAP1 PUSH2 0x2317 JUMP JUMPDEST POP DUP4 DUP2 PUSH1 0x6 ADD SWAP1 DUP1 MLOAD SWAP1 PUSH1 0x20 ADD SWAP1 PUSH2 0x1923 SWAP3 SWAP2 SWAP1 PUSH2 0x2317 JUMP JUMPDEST POP DUP3 DUP2 PUSH1 0x7 ADD SWAP1 DUP1 MLOAD SWAP1 PUSH1 0x20 ADD SWAP1 PUSH2 0x193C SWAP3 SWAP2 SWAP1 PUSH2 0x2317 JUMP JUMPDEST POP DUP2 DUP2 PUSH1 0x8 ADD SWAP1 DUP1 MLOAD SWAP1 PUSH1 0x20 ADD SWAP1 PUSH2 0x1955 SWAP3 SWAP2 SWAP1 PUSH2 0x2317 JUMP JUMPDEST POP DUP11 DUP2 PUSH1 0x9 ADD PUSH1 0x0 PUSH2 0x100 EXP DUP2 SLOAD DUP2 PUSH20 0xFFFFFFFFFFFFFFFFFFFFFFFFFFFFFFFFFFFFFFFF MUL NOT AND SWAP1 DUP4 PUSH20 0xFFFFFFFFFFFFFFFFFFFFFFFFFFFFFFFFFFFFFFFF AND MUL OR SWAP1 SSTORE POP POP POP POP POP POP POP POP POP POP POP POP JUMP JUMPDEST PUSH1 0x9 SLOAD DUP2 JUMP JUMPDEST PUSH1 0x0 PUSH1 0x9 SLOAD SWAP1 POP SWAP1 JUMP JUMPDEST PUSH1 0x0 DUP1 SWAP1 SLOAD SWAP1 PUSH2 0x100 EXP SWAP1 DIV PUSH20 0xFFFFFFFFFFFFFFFFFFFFFFFFFFFFFFFFFFFFFFFF AND DUP2 JUMP JUMPDEST PUSH1 0x0 CALLER PUSH1 0x0 DUP1 PUSH2 0x100 EXP DUP2 SLOAD DUP2 PUSH20 0xFFFFFFFFFFFFFFFFFFFFFFFFFFFFFFFFFFFFFFFF MUL NOT AND SWAP1 DUP4 PUSH20 0xFFFFFFFFFFFFFFFFFFFFFFFFFFFFFFFFFFFFFFFF AND MUL OR SWAP1 SSTORE POP PUSH1 0x0 DUP1 SWAP1 SLOAD SWAP1 PUSH2 0x100 EXP SWAP1 DIV PUSH20 0xFFFFFFFFFFFFFFFFFFFFFFFFFFFFFFFFFFFFFFFF AND SWAP1 POP SWAP1 JUMP JUMPDEST PUSH1 0xA SLOAD DUP2 JUMP JUMPDEST PUSH1 0x1 DUP2 DUP2 SLOAD DUP2 LT ISZERO ISZERO PUSH2 0x1A59 JUMPI INVALID JUMPDEST SWAP1 PUSH1 0x0 MSTORE PUSH1 0x20 PUSH1 0x0 KECCAK256 ADD PUSH1 0x0 SWAP2 POP SLOAD SWAP1 PUSH2 0x100 EXP SWAP1 DIV PUSH20 0xFFFFFFFFFFFFFFFFFFFFFFFFFFFFFFFFFFFFFFFF AND DUP2 JUMP JUMPDEST PUSH1 0x60 PUSH1 0x2 DUP1 SLOAD DUP1 PUSH1 0x20 MUL PUSH1 0x20 ADD PUSH1 0x40 MLOAD SWAP1 DUP2 ADD PUSH1 0x40 MSTORE DUP1 SWAP3 SWAP2 SWAP1 DUP2 DUP2 MSTORE PUSH1 0x20 ADD DUP3 DUP1 SLOAD DUP1 ISZERO PUSH2 0x1B0C JUMPI PUSH1 0x20 MUL DUP3 ADD SWAP2 SWAP1 PUSH1 0x0 MSTORE PUSH1 0x20 PUSH1 0x0 KECCAK256 SWAP1 JUMPDEST DUP2 PUSH1 0x0 SWAP1 SLOAD SWAP1 PUSH2 0x100 EXP SWAP1 DIV PUSH20 0xFFFFFFFFFFFFFFFFFFFFFFFFFFFFFFFFFFFFFFFF AND PUSH20 0xFFFFFFFFFFFFFFFFFFFFFFFFFFFFFFFFFFFFFFFF AND DUP2 MSTORE PUSH1 0x20 ADD SWAP1 PUSH1 0x1 ADD SWAP1 DUP1 DUP4 GT PUSH2 0x1AC2 JUMPI JUMPDEST POP POP POP POP POP SWAP1 POP SWAP1 JUMP JUMPDEST PUSH1 0x0 PUSH1 0x8 SLOAD SWAP1 POP SWAP1 JUMP JUMPDEST PUSH1 0xC PUSH1 0x0 SWAP1 SLOAD SWAP1 PUSH2 0x100 EXP SWAP1 DIV PUSH20 0xFFFFFFFFFFFFFFFFFFFFFFFFFFFFFFFFFFFFFFFF AND DUP2 JUMP JUMPDEST PUSH1 0x0 PUSH1 0xC PUSH1 0x0 SWAP1 SLOAD SWAP1 PUSH2 0x100 EXP SWAP1 DIV PUSH20 0xFFFFFFFFFFFFFFFFFFFFFFFFFFFFFFFFFFFFFFFF AND PUSH20 0xFFFFFFFFFFFFFFFFFFFFFFFFFFFFFFFFFFFFFFFF AND CALLER PUSH20 0xFFFFFFFFFFFFFFFFFFFFFFFFFFFFFFFFFFFFFFFF AND EQ ISZERO ISZERO PUSH2 0x1BA4 JUMPI PUSH1 0x0 DUP1 REVERT JUMPDEST PUSH1 0x0 PUSH1 0x5 PUSH1 0x0 DUP6 PUSH20 0xFFFFFFFFFFFFFFFFFFFFFFFFFFFFFFFFFFFFFFFF AND PUSH20 0xFFFFFFFFFFFFFFFFFFFFFFFFFFFFFFFFFFFFFFFF AND DUP2 MSTORE PUSH1 0x20 ADD SWAP1 DUP2 MSTORE PUSH1 0x20 ADD PUSH1 0x0 KECCAK256 PUSH1 0x0 DUP5 PUSH20 0xFFFFFFFFFFFFFFFFFFFFFFFFFFFFFFFFFFFFFFFF AND PUSH20 0xFFFFFFFFFFFFFFFFFFFFFFFFFFFFFFFFFFFFFFFF AND DUP2 MSTORE PUSH1 0x20 ADD SWAP1 DUP2 MSTORE PUSH1 0x20 ADD PUSH1 0x0 KECCAK256 PUSH1 0x0 PUSH2 0x100 EXP DUP2 SLOAD DUP2 PUSH1 0xFF MUL NOT AND SWAP1 DUP4 ISZERO ISZERO MUL OR SWAP1 SSTORE POP PUSH1 0x1 SWAP1 POP SWAP3 SWAP2 POP POP JUMP JUMPDEST PUSH1 0xB SLOAD DUP2 JUMP JUMPDEST PUSH1 0x60 DUP1 PUSH1 0x60 DUP1 PUSH1 0x60 DUP1 PUSH1 0x60 PUSH1 0x0 PUSH1 0x5 PUSH1 0x0 DUP11 PUSH20 0xFFFFFFFFFFFFFFFFFFFFFFFFFFFFFFFFFFFFFFFF AND PUSH20 0xFFFFFFFFFFFFFFFFFFFFFFFFFFFFFFFFFFFFFFFF AND DUP2 MSTORE PUSH1 0x20 ADD SWAP1 DUP2 MSTORE PUSH1 0x20 ADD PUSH1 0x0 KECCAK256 PUSH1 0x0 CALLER PUSH20 0xFFFFFFFFFFFFFFFFFFFFFFFFFFFFFFFFFFFFFFFF AND PUSH20 0xFFFFFFFFFFFFFFFFFFFFFFFFFFFFFFFFFFFFFFFF AND DUP2 MSTORE PUSH1 0x20 ADD SWAP1 DUP2 MSTORE PUSH1 0x20 ADD PUSH1 0x0 KECCAK256 PUSH1 0x0 SWAP1 SLOAD SWAP1 PUSH2 0x100 EXP SWAP1 DIV PUSH1 0xFF AND ISZERO ISZERO PUSH2 0x1CEB JUMPI PUSH1 0x0 DUP1 REVERT JUMPDEST PUSH1 0x7 PUSH1 0x0 DUP11 PUSH20 0xFFFFFFFFFFFFFFFFFFFFFFFFFFFFFFFFFFFFFFFF AND PUSH20 0xFFFFFFFFFFFFFFFFFFFFFFFFFFFFFFFFFFFFFFFF AND DUP2 MSTORE PUSH1 0x20 ADD SWAP1 DUP2 MSTORE PUSH1 0x20 ADD PUSH1 0x0 KECCAK256 PUSH1 0x0 SWAP1 SLOAD SWAP1 PUSH2 0x100 EXP SWAP1 DIV PUSH1 0xFF AND ISZERO ISZERO PUSH2 0x1D43 JUMPI PUSH1 0x0 DUP1 REVERT JUMPDEST PUSH1 0x4 PUSH1 0x0 DUP11 PUSH20 0xFFFFFFFFFFFFFFFFFFFFFFFFFFFFFFFFFFFFFFFF AND PUSH20 0xFFFFFFFFFFFFFFFFFFFFFFFFFFFFFFFFFFFFFFFF AND DUP2 MSTORE PUSH1 0x20 ADD SWAP1 DUP2 MSTORE PUSH1 0x20 ADD PUSH1 0x0 KECCAK256 SWAP1 POP DUP1 PUSH1 0x0 ADD DUP2 PUSH1 0x1 ADD DUP3 PUSH1 0x2 ADD DUP4 PUSH1 0x3 ADD DUP5 PUSH1 0x4 ADD DUP6 PUSH1 0x7 ADD DUP7 PUSH1 0x8 ADD DUP7 DUP1 SLOAD PUSH1 0x1 DUP2 PUSH1 0x1 AND ISZERO PUSH2 0x100 MUL SUB AND PUSH1 0x2 SWAP1 DIV DUP1 PUSH1 0x1F ADD PUSH1 0x20 DUP1 SWAP2 DIV MUL PUSH1 0x20 ADD PUSH1 0x40 MLOAD SWAP1 DUP2 ADD PUSH1 0x40 MSTORE DUP1 SWAP3 SWAP2 SWAP1 DUP2 DUP2 MSTORE PUSH1 0x20 ADD DUP3 DUP1 SLOAD PUSH1 0x1 DUP2 PUSH1 0x1 AND ISZERO PUSH2 0x100 MUL SUB AND PUSH1 0x2 SWAP1 DIV DUP1 ISZERO PUSH2 0x1E35 JUMPI DUP1 PUSH1 0x1F LT PUSH2 0x1E0A JUMPI PUSH2 0x100 DUP1 DUP4 SLOAD DIV MUL DUP4 MSTORE SWAP2 PUSH1 0x20 ADD SWAP2 PUSH2 0x1E35 JUMP JUMPDEST DUP3 ADD SWAP2 SWAP1 PUSH1 0x0 MSTORE PUSH1 0x20 PUSH1 0x0 KECCAK256 SWAP1 JUMPDEST DUP2 SLOAD DUP2 MSTORE SWAP1 PUSH1 0x1 ADD SWAP1 PUSH1 0x20 ADD DUP1 DUP4 GT PUSH2 0x1E18 JUMPI DUP3 SWAP1 SUB PUSH1 0x1F AND DUP3 ADD SWAP2 JUMPDEST POP POP POP POP POP SWAP7 POP DUP6 DUP1 SLOAD PUSH1 0x1 DUP2 PUSH1 0x1 AND ISZERO PUSH2 0x100 MUL SUB AND PUSH1 0x2 SWAP1 DIV DUP1 PUSH1 0x1F ADD PUSH1 0x20 DUP1 SWAP2 DIV MUL PUSH1 0x20 ADD PUSH1 0x40 MLOAD SWAP1 DUP2 ADD PUSH1 0x40 MSTORE DUP1 SWAP3 SWAP2 SWAP1 DUP2 DUP2 MSTORE PUSH1 0x20 ADD DUP3 DUP1 SLOAD PUSH1 0x1 DUP2 PUSH1 0x1 AND ISZERO PUSH2 0x100 MUL SUB AND PUSH1 0x2 SWAP1 DIV DUP1 ISZERO PUSH2 0x1ED1 JUMPI DUP1 PUSH1 0x1F LT PUSH2 0x1EA6 JUMPI PUSH2 0x100 DUP1 DUP4 SLOAD DIV MUL DUP4 MSTORE SWAP2 PUSH1 0x20 ADD SWAP2 PUSH2 0x1ED1 JUMP JUMPDEST DUP3 ADD SWAP2 SWAP1 PUSH1 0x0 MSTORE PUSH1 0x20 PUSH1 0x0 KECCAK256 SWAP1 JUMPDEST DUP2 SLOAD DUP2 MSTORE SWAP1 PUSH1 0x1 ADD SWAP1 PUSH1 0x20 ADD DUP1 DUP4 GT PUSH2 0x1EB4 JUMPI DUP3 SWAP1 SUB PUSH1 0x1F AND DUP3 ADD SWAP2 JUMPDEST POP POP POP POP POP SWAP6 POP DUP5 DUP1 SLOAD PUSH1 0x1 DUP2 PUSH1 0x1 AND ISZERO PUSH2 0x100 MUL SUB AND PUSH1 0x2 SWAP1 DIV DUP1 PUSH1 0x1F ADD PUSH1 0x20 DUP1 SWAP2 DIV MUL PUSH1 0x20 ADD PUSH1 0x40 MLOAD SWAP1 DUP2 ADD PUSH1 0x40 MSTORE DUP1 SWAP3 SWAP2 SWAP1 DUP2 DUP2 MSTORE PUSH1 0x20 ADD DUP3 DUP1 SLOAD PUSH1 0x1 DUP2 PUSH1 0x1 AND ISZERO PUSH2 0x100 MUL SUB AND PUSH1 0x2 SWAP1 DIV DUP1 ISZERO PUSH2 0x1F6D JUMPI DUP1 PUSH1 0x1F LT PUSH2 0x1F42 JUMPI PUSH2 0x100 DUP1 DUP4 SLOAD DIV MUL DUP4 MSTORE SWAP2 PUSH1 0x20 ADD SWAP2 PUSH2 0x1F6D JUMP JUMPDEST DUP3 ADD SWAP2 SWAP1 PUSH1 0x0 MSTORE PUSH1 0x20 PUSH1 0x0 KECCAK256 SWAP1 JUMPDEST DUP2 SLOAD DUP2 MSTORE SWAP1 PUSH1 0x1 ADD SWAP1 PUSH1 0x20 ADD DUP1 DUP4 GT PUSH2 0x1F50 JUMPI DUP3 SWAP1 SUB PUSH1 0x1F AND DUP3 ADD SWAP2 JUMPDEST POP POP POP POP POP SWAP5 POP DUP4 DUP1 SLOAD PUSH1 0x1 DUP2 PUSH1 0x1 AND ISZERO PUSH2 0x100 MUL SUB AND PUSH1 0x2 SWAP1 DIV DUP1 PUSH1 0x1F ADD PUSH1 0x20 DUP1 SWAP2 DIV MUL PUSH1 0x20 ADD PUSH1 0x40 MLOAD SWAP1 DUP2 ADD PUSH1 0x40 MSTORE DUP1 SWAP3 SWAP2 SWAP1 DUP2 DUP2 MSTORE PUSH1 0x20 ADD DUP3 DUP1 SLOAD PUSH1 0x1 DUP2 PUSH1 0x1 AND ISZERO PUSH2 0x100 MUL SUB AND PUSH1 0x2 SWAP1 DIV DUP1 ISZERO PUSH2 0x2009 JUMPI DUP1 PUSH1 0x1F LT PUSH2 0x1FDE JUMPI PUSH2 0x100 DUP1 DUP4 SLOAD DIV MUL DUP4 MSTORE SWAP2 PUSH1 0x20 ADD SWAP2 PUSH2 0x2009 JUMP JUMPDEST DUP3 ADD SWAP2 SWAP1 PUSH1 0x0 MSTORE PUSH1 0x20 PUSH1 0x0 KECCAK256 SWAP1 JUMPDEST DUP2 SLOAD DUP2 MSTORE SWAP1 PUSH1 0x1 ADD SWAP1 PUSH1 0x20 ADD DUP1 DUP4 GT PUSH2 0x1FEC JUMPI DUP3 SWAP1 SUB PUSH1 0x1F AND DUP3 ADD SWAP2 JUMPDEST POP POP POP POP POP SWAP4 POP DUP3 DUP1 SLOAD PUSH1 0x1 DUP2 PUSH1 0x1 AND ISZERO PUSH2 0x100 MUL SUB AND PUSH1 0x2 SWAP1 DIV DUP1 PUSH1 0x1F ADD PUSH1 0x20 DUP1 SWAP2 DIV MUL PUSH1 0x20 ADD PUSH1 0x40 MLOAD SWAP1 DUP2 ADD PUSH1 0x40 MSTORE DUP1 SWAP3 SWAP2 SWAP1 DUP2 DUP2 MSTORE PUSH1 0x20 ADD DUP3 DUP1 SLOAD PUSH1 0x1 DUP2 PUSH1 0x1 AND ISZERO PUSH2 0x100 MUL SUB AND PUSH1 0x2 SWAP1 DIV DUP1 ISZERO PUSH2 0x20A5 JUMPI DUP1 PUSH1 0x1F LT PUSH2 0x207A JUMPI PUSH2 0x100 DUP1 DUP4 SLOAD DIV MUL DUP4 MSTORE SWAP2 PUSH1 0x20 ADD SWAP2 PUSH2 0x20A5 JUMP JUMPDEST DUP3 ADD SWAP2 SWAP1 PUSH1 0x0 MSTORE PUSH1 0x20 PUSH1 0x0 KECCAK256 SWAP1 JUMPDEST DUP2 SLOAD DUP2 MSTORE SWAP1 PUSH1 0x1 ADD SWAP1 PUSH1 0x20 ADD DUP1 DUP4 GT PUSH2 0x2088 JUMPI DUP3 SWAP1 SUB PUSH1 0x1F AND DUP3 ADD SWAP2 JUMPDEST POP POP POP POP POP SWAP3 POP DUP2 DUP1 SLOAD PUSH1 0x1 DUP2 PUSH1 0x1 AND ISZERO PUSH2 0x100 MUL SUB AND PUSH1 0x2 SWAP1 DIV DUP1 PUSH1 0x1F ADD PUSH1 0x20 DUP1 SWAP2 DIV MUL PUSH1 0x20 ADD PUSH1 0x40 MLOAD SWAP1 DUP2 ADD PUSH1 0x40 MSTORE DUP1 SWAP3 SWAP2 SWAP1 DUP2 DUP2 MSTORE PUSH1 0x20 ADD DUP3 DUP1 SLOAD PUSH1 0x1 DUP2 PUSH1 0x1 AND ISZERO PUSH2 0x100 MUL SUB AND PUSH1 0x2 SWAP1 DIV DUP1 ISZERO PUSH2 0x2141 JUMPI DUP1 PUSH1 0x1F LT PUSH2 0x2116 JUMPI PUSH2 0x100 DUP1 DUP4 SLOAD DIV MUL DUP4 MSTORE SWAP2 PUSH1 0x20 ADD SWAP2 PUSH2 0x2141 JUMP JUMPDEST DUP3 ADD SWAP2 SWAP1 PUSH1 0x0 MSTORE PUSH1 0x20 PUSH1 0x0 KECCAK256 SWAP1 JUMPDEST DUP2 SLOAD DUP2 MSTORE SWAP1 PUSH1 0x1 ADD SWAP1 PUSH1 0x20 ADD DUP1 DUP4 GT PUSH2 0x2124 JUMPI DUP3 SWAP1 SUB PUSH1 0x1F AND DUP3 ADD SWAP2 JUMPDEST POP POP POP POP POP SWAP2 POP DUP1 DUP1 SLOAD PUSH1 0x1 DUP2 PUSH1 0x1 AND ISZERO PUSH2 0x100 MUL SUB AND PUSH1 0x2 SWAP1 DIV DUP1 PUSH1 0x1F ADD PUSH1 0x20 DUP1 SWAP2 DIV MUL PUSH1 0x20 ADD PUSH1 0x40 MLOAD SWAP1 DUP2 ADD PUSH1 0x40 MSTORE DUP1 SWAP3 SWAP2 SWAP1 DUP2 DUP2 MSTORE PUSH1 0x20 ADD DUP3 DUP1 SLOAD PUSH1 0x1 DUP2 PUSH1 0x1 AND ISZERO PUSH2 0x100 MUL SUB AND PUSH1 0x2 SWAP1 DIV DUP1 ISZERO PUSH2 0x21DD JUMPI DUP1 PUSH1 0x1F LT PUSH2 0x21B2 JUMPI PUSH2 0x100 DUP1 DUP4 SLOAD DIV MUL DUP4 MSTORE SWAP2 PUSH1 0x20 ADD SWAP2 PUSH2 0x21DD JUMP JUMPDEST DUP3 ADD SWAP2 SWAP1 PUSH1 0x0 MSTORE PUSH1 0x20 PUSH1 0x0 KECCAK256 SWAP1 JUMPDEST DUP2 SLOAD DUP2 MSTORE SWAP1 PUSH1 0x1 ADD SWAP1 PUSH1 0x20 ADD DUP1 DUP4 GT PUSH2 0x21C0 JUMPI DUP3 SWAP1 SUB PUSH1 0x1F AND DUP3 ADD SWAP2 JUMPDEST POP POP POP POP POP SWAP1 POP SWAP8 POP SWAP8 POP SWAP8 POP SWAP8 POP SWAP8 POP SWAP8 POP SWAP8 POP POP SWAP2 SWAP4 SWAP6 SWAP8 SWAP1 SWAP3 SWAP5 SWAP7 POP JUMP JUMPDEST PUSH1 0x0 PUSH1 0xC PUSH1 0x0 SWAP1 SLOAD SWAP1 PUSH2 0x100 EXP SWAP1 DIV PUSH20 0xFFFFFFFFFFFFFFFFFFFFFFFFFFFFFFFFFFFFFFFF AND PUSH20 0xFFFFFFFFFFFFFFFFFFFFFFFFFFFFFFFFFFFFFFFF AND CALLER PUSH20 0xFFFFFFFFFFFFFFFFFFFFFFFFFFFFFFFFFFFFFFFF AND EQ ISZERO ISZERO PUSH2 0x225C JUMPI PUSH1 0x0 DUP1 REVERT JUMPDEST PUSH1 0x1 PUSH1 0x5 PUSH1 0x0 DUP6 PUSH20 0xFFFFFFFFFFFFFFFFFFFFFFFFFFFFFFFFFFFFFFFF AND PUSH20 0xFFFFFFFFFFFFFFFFFFFFFFFFFFFFFFFFFFFFFFFF AND DUP2 MSTORE PUSH1 0x20 ADD SWAP1 DUP2 MSTORE PUSH1 0x20 ADD PUSH1 0x0 KECCAK256 PUSH1 0x0 DUP5 PUSH20 0xFFFFFFFFFFFFFFFFFFFFFFFFFFFFFFFFFFFFFFFF AND PUSH20 0xFFFFFFFFFFFFFFFFFFFFFFFFFFFFFFFFFFFFFFFF AND DUP2 MSTORE PUSH1 0x20 ADD SWAP1 DUP2 MSTORE PUSH1 0x20 ADD PUSH1 0x0 KECCAK256 PUSH1 0x0 PUSH2 0x100 EXP DUP2 SLOAD DUP2 PUSH1 0xFF MUL NOT AND SWAP1 DUP4 ISZERO ISZERO MUL OR SWAP1 SSTORE POP PUSH1 0xA PUSH1 0x0 DUP2 SLOAD DUP1 SWAP3 SWAP2 SWAP1 PUSH1 0x1 ADD SWAP2 SWAP1 POP SSTORE POP PUSH1 0x1 SWAP1 POP SWAP3 SWAP2 POP POP JUMP JUMPDEST PUSH1 0x0 PUSH1 0xA SLOAD SWAP1 POP SWAP1 JUMP JUMPDEST DUP3 DUP1 SLOAD PUSH1 0x1 DUP2 PUSH1 0x1 AND ISZERO PUSH2 0x100 MUL SUB AND PUSH1 0x2 SWAP1 DIV SWAP1 PUSH1 0x0 MSTORE PUSH1 0x20 PUSH1 0x0 KECCAK256 SWAP1 PUSH1 0x1F ADD PUSH1 0x20 SWAP1 DIV DUP2 ADD SWAP3 DUP3 PUSH1 0x1F LT PUSH2 0x2358 JUMPI DUP1 MLOAD PUSH1 0xFF NOT AND DUP4 DUP1 ADD OR DUP6 SSTORE PUSH2 0x2386 JUMP JUMPDEST DUP3 DUP1 ADD PUSH1 0x1 ADD DUP6 SSTORE DUP3 ISZERO PUSH2 0x2386 JUMPI SWAP2 DUP3 ADD JUMPDEST DUP3 DUP2 GT ISZERO PUSH2 0x2385 JUMPI DUP3 MLOAD DUP3 SSTORE SWAP2 PUSH1 0x20 ADD SWAP2 SWAP1 PUSH1 0x1 ADD SWAP1 PUSH2 0x236A JUMP JUMPDEST JUMPDEST POP SWAP1 POP PUSH2 0x2393 SWAP2 SWAP1 PUSH2 0x2397 JUMP JUMPDEST POP SWAP1 JUMP JUMPDEST PUSH2 0x23B9 SWAP2 SWAP1 JUMPDEST DUP1 DUP3 GT ISZERO PUSH2 0x23B5 JUMPI PUSH1 0x0 DUP2 PUSH1 0x0 SWAP1 SSTORE POP PUSH1 0x1 ADD PUSH2 0x239D JUMP JUMPDEST POP SWAP1 JUMP JUMPDEST SWAP1 JUMP JUMPDEST PUSH1 0x0 PUSH2 0x23C8 DUP3 CALLDATALOAD PUSH2 0x2AFE JUMP JUMPDEST SWAP1 POP SWAP3 SWAP2 POP POP JUMP JUMPDEST PUSH1 0x0 DUP3 PUSH1 0x1F DUP4 ADD SLT ISZERO ISZERO PUSH2 0x23E3 JUMPI PUSH1 0x0 DUP1 REVERT JUMPDEST DUP2 CALLDATALOAD PUSH2 0x23F6 PUSH2 0x23F1 DUP3 PUSH2 0x2A6C JUMP JUMPDEST PUSH2 0x2A3F JUMP JUMPDEST SWAP2 POP DUP1 DUP3 MSTORE PUSH1 0x20 DUP4 ADD PUSH1 0x20 DUP4 ADD DUP6 DUP4 DUP4 ADD GT ISZERO PUSH2 0x2412 JUMPI PUSH1 0x0 DUP1 REVERT JUMPDEST PUSH2 0x241D DUP4 DUP3 DUP5 PUSH2 0x2B28 JUMP JUMPDEST POP POP POP SWAP3 SWAP2 POP POP JUMP JUMPDEST PUSH1 0x0 PUSH2 0x2432 DUP3 CALLDATALOAD PUSH2 0x2B1E JUMP JUMPDEST SWAP1 POP SWAP3 SWAP2 POP POP JUMP JUMPDEST PUSH1 0x0 PUSH1 0x20 DUP3 DUP5 SUB SLT ISZERO PUSH2 0x244C JUMPI PUSH1 0x0 DUP1 REVERT JUMPDEST PUSH1 0x0 PUSH2 0x245A DUP5 DUP3 DUP6 ADD PUSH2 0x23BC JUMP JUMPDEST SWAP2 POP POP SWAP3 SWAP2 POP POP JUMP JUMPDEST PUSH1 0x0 DUP1 PUSH1 0x40 DUP4 DUP6 SUB SLT ISZERO PUSH2 0x2476 JUMPI PUSH1 0x0 DUP1 REVERT JUMPDEST PUSH1 0x0 PUSH2 0x2484 DUP6 DUP3 DUP7 ADD PUSH2 0x23BC JUMP JUMPDEST SWAP3 POP POP PUSH1 0x20 PUSH2 0x2495 DUP6 DUP3 DUP7 ADD PUSH2 0x23BC JUMP JUMPDEST SWAP2 POP POP SWAP3 POP SWAP3 SWAP1 POP JUMP JUMPDEST PUSH1 0x0 DUP1 PUSH1 0x0 DUP1 PUSH1 0x0 DUP1 PUSH1 0x0 DUP1 PUSH2 0x100 DUP10 DUP12 SUB SLT ISZERO PUSH2 0x24BC JUMPI PUSH1 0x0 DUP1 REVERT JUMPDEST PUSH1 0x0 PUSH2 0x24CA DUP12 DUP3 DUP13 ADD PUSH2 0x23BC JUMP JUMPDEST SWAP9 POP POP PUSH1 0x20 DUP10 ADD CALLDATALOAD PUSH8 0xFFFFFFFFFFFFFFFF DUP2 GT ISZERO PUSH2 0x24E7 JUMPI PUSH1 0x0 DUP1 REVERT JUMPDEST PUSH2 0x24F3 DUP12 DUP3 DUP13 ADD PUSH2 0x23D0 JUMP JUMPDEST SWAP8 POP POP PUSH1 0x40 DUP10 ADD CALLDATALOAD PUSH8 0xFFFFFFFFFFFFFFFF DUP2 GT ISZERO PUSH2 0x2510 JUMPI PUSH1 0x0 DUP1 REVERT JUMPDEST PUSH2 0x251C DUP12 DUP3 DUP13 ADD PUSH2 0x23D0 JUMP JUMPDEST SWAP7 POP POP PUSH1 0x60 DUP10 ADD CALLDATALOAD PUSH8 0xFFFFFFFFFFFFFFFF DUP2 GT ISZERO PUSH2 0x2539 JUMPI PUSH1 0x0 DUP1 REVERT JUMPDEST PUSH2 0x2545 DUP12 DUP3 DUP13 ADD PUSH2 0x23D0 JUMP JUMPDEST SWAP6 POP POP PUSH1 0x80 DUP10 ADD CALLDATALOAD PUSH8 0xFFFFFFFFFFFFFFFF DUP2 GT ISZERO PUSH2 0x2562 JUMPI PUSH1 0x0 DUP1 REVERT JUMPDEST PUSH2 0x256E DUP12 DUP3 DUP13 ADD PUSH2 0x23D0 JUMP JUMPDEST SWAP5 POP POP PUSH1 0xA0 DUP10 ADD CALLDATALOAD PUSH8 0xFFFFFFFFFFFFFFFF DUP2 GT ISZERO PUSH2 0x258B JUMPI PUSH1 0x0 DUP1 REVERT JUMPDEST PUSH2 0x2597 DUP12 DUP3 DUP13 ADD PUSH2 0x23D0 JUMP JUMPDEST SWAP4 POP POP PUSH1 0xC0 DUP10 ADD CALLDATALOAD PUSH8 0xFFFFFFFFFFFFFFFF DUP2 GT ISZERO PUSH2 0x25B4 JUMPI PUSH1 0x0 DUP1 REVERT JUMPDEST PUSH2 0x25C0 DUP12 DUP3 DUP13 ADD PUSH2 0x23D0 JUMP JUMPDEST SWAP3 POP POP PUSH1 0xE0 DUP10 ADD CALLDATALOAD PUSH8 0xFFFFFFFFFFFFFFFF DUP2 GT ISZERO PUSH2 0x25DD JUMPI PUSH1 0x0 DUP1 REVERT JUMPDEST PUSH2 0x25E9 DUP12 DUP3 DUP13 ADD PUSH2 0x23D0 JUMP JUMPDEST SWAP2 POP POP SWAP3 SWAP6 SWAP9 POP SWAP3 SWAP6 SWAP9 SWAP1 SWAP4 SWAP7 POP JUMP JUMPDEST PUSH1 0x0 DUP1 PUSH1 0x0 DUP1 PUSH1 0x0 DUP1 PUSH1 0x0 DUP1 PUSH1 0x0 DUP1 PUSH2 0x140 DUP12 DUP14 SUB SLT ISZERO PUSH2 0x2619 JUMPI PUSH1 0x0 DUP1 REVERT JUMPDEST PUSH1 0x0 PUSH2 0x2627 DUP14 DUP3 DUP15 ADD PUSH2 0x23BC JUMP JUMPDEST SWAP11 POP POP PUSH1 0x20 DUP12 ADD CALLDATALOAD PUSH8 0xFFFFFFFFFFFFFFFF DUP2 GT ISZERO PUSH2 0x2644 JUMPI PUSH1 0x0 DUP1 REVERT JUMPDEST PUSH2 0x2650 DUP14 DUP3 DUP15 ADD PUSH2 0x23D0 JUMP JUMPDEST SWAP10 POP POP PUSH1 0x40 DUP12 ADD CALLDATALOAD PUSH8 0xFFFFFFFFFFFFFFFF DUP2 GT ISZERO PUSH2 0x266D JUMPI PUSH1 0x0 DUP1 REVERT JUMPDEST PUSH2 0x2679 DUP14 DUP3 DUP15 ADD PUSH2 0x23D0 JUMP JUMPDEST SWAP9 POP POP PUSH1 0x60 DUP12 ADD CALLDATALOAD PUSH8 0xFFFFFFFFFFFFFFFF DUP2 GT ISZERO PUSH2 0x2696 JUMPI PUSH1 0x0 DUP1 REVERT JUMPDEST PUSH2 0x26A2 DUP14 DUP3 DUP15 ADD PUSH2 0x23D0 JUMP JUMPDEST SWAP8 POP POP PUSH1 0x80 DUP12 ADD CALLDATALOAD PUSH8 0xFFFFFFFFFFFFFFFF DUP2 GT ISZERO PUSH2 0x26BF JUMPI PUSH1 0x0 DUP1 REVERT JUMPDEST PUSH2 0x26CB DUP14 DUP3 DUP15 ADD PUSH2 0x23D0 JUMP JUMPDEST SWAP7 POP POP PUSH1 0xA0 DUP12 ADD CALLDATALOAD PUSH8 0xFFFFFFFFFFFFFFFF DUP2 GT ISZERO PUSH2 0x26E8 JUMPI PUSH1 0x0 DUP1 REVERT JUMPDEST PUSH2 0x26F4 DUP14 DUP3 DUP15 ADD PUSH2 0x23D0 JUMP JUMPDEST SWAP6 POP POP PUSH1 0xC0 DUP12 ADD CALLDATALOAD PUSH8 0xFFFFFFFFFFFFFFFF DUP2 GT ISZERO PUSH2 0x2711 JUMPI PUSH1 0x0 DUP1 REVERT JUMPDEST PUSH2 0x271D DUP14 DUP3 DUP15 ADD PUSH2 0x23D0 JUMP JUMPDEST SWAP5 POP POP PUSH1 0xE0 DUP12 ADD CALLDATALOAD PUSH8 0xFFFFFFFFFFFFFFFF DUP2 GT ISZERO PUSH2 0x273A JUMPI PUSH1 0x0 DUP1 REVERT JUMPDEST PUSH2 0x2746 DUP14 DUP3 DUP15 ADD PUSH2 0x23D0 JUMP JUMPDEST SWAP4 POP POP PUSH2 0x100 DUP12 ADD CALLDATALOAD PUSH8 0xFFFFFFFFFFFFFFFF DUP2 GT ISZERO PUSH2 0x2764 JUMPI PUSH1 0x0 DUP1 REVERT JUMPDEST PUSH2 0x2770 DUP14 DUP3 DUP15 ADD PUSH2 0x23D0 JUMP JUMPDEST SWAP3 POP POP PUSH2 0x120 DUP12 ADD CALLDATALOAD PUSH8 0xFFFFFFFFFFFFFFFF DUP2 GT ISZERO PUSH2 0x278E JUMPI PUSH1 0x0 DUP1 REVERT JUMPDEST PUSH2 0x279A DUP14 DUP3 DUP15 ADD PUSH2 0x23D0 JUMP JUMPDEST SWAP2 POP POP SWAP3 SWAP6 SWAP9 SWAP12 SWAP2 SWAP5 SWAP8 SWAP11 POP SWAP3 SWAP6 SWAP9 POP JUMP JUMPDEST PUSH1 0x0 PUSH1 0x20 DUP3 DUP5 SUB SLT ISZERO PUSH2 0x27BE JUMPI PUSH1 0x0 DUP1 REVERT JUMPDEST PUSH1 0x0 PUSH2 0x27CC DUP5 DUP3 DUP6 ADD PUSH2 0x2426 JUMP JUMPDEST SWAP2 POP POP SWAP3 SWAP2 POP POP JUMP JUMPDEST PUSH2 0x27DE DUP2 PUSH2 0x2AC8 JUMP JUMPDEST DUP3 MSTORE POP POP JUMP JUMPDEST PUSH1 0x0 PUSH2 0x27EF DUP3 PUSH2 0x2AA5 JUMP JUMPDEST DUP1 DUP5 MSTORE PUSH1 0x20 DUP5 ADD SWAP4 POP PUSH2 0x2801 DUP4 PUSH2 0x2A98 JUMP JUMPDEST PUSH1 0x0 JUMPDEST DUP3 DUP2 LT ISZERO PUSH2 0x2833 JUMPI PUSH2 0x2817 DUP7 DUP4 MLOAD PUSH2 0x27D5 JUMP JUMPDEST PUSH2 0x2820 DUP3 PUSH2 0x2ABB JUMP JUMPDEST SWAP2 POP PUSH1 0x20 DUP7 ADD SWAP6 POP PUSH1 0x1 DUP2 ADD SWAP1 POP PUSH2 0x2804 JUMP JUMPDEST POP DUP5 SWAP3 POP POP POP SWAP3 SWAP2 POP POP JUMP JUMPDEST PUSH2 0x2848 DUP2 PUSH2 0x2AE8 JUMP JUMPDEST DUP3 MSTORE POP POP JUMP JUMPDEST PUSH1 0x0 PUSH2 0x2859 DUP3 PUSH2 0x2AB0 JUMP JUMPDEST DUP1 DUP5 MSTORE PUSH2 0x286D DUP2 PUSH1 0x20 DUP7 ADD PUSH1 0x20 DUP7 ADD PUSH2 0x2B37 JUMP JUMPDEST PUSH2 0x2876 DUP2 PUSH2 0x2B6A JUMP JUMPDEST PUSH1 0x20 DUP6 ADD ADD SWAP2 POP POP SWAP3 SWAP2 POP POP JUMP JUMPDEST PUSH2 0x288D DUP2 PUSH2 0x2AF4 JUMP JUMPDEST DUP3 MSTORE POP POP JUMP JUMPDEST PUSH1 0x0 PUSH1 0x20 DUP3 ADD SWAP1 POP PUSH2 0x28A8 PUSH1 0x0 DUP4 ADD DUP5 PUSH2 0x27D5 JUMP JUMPDEST SWAP3 SWAP2 POP POP JUMP JUMPDEST PUSH1 0x0 PUSH1 0x20 DUP3 ADD SWAP1 POP DUP2 DUP2 SUB PUSH1 0x0 DUP4 ADD MSTORE PUSH2 0x28C8 DUP2 DUP5 PUSH2 0x27E4 JUMP JUMPDEST SWAP1 POP SWAP3 SWAP2 POP POP JUMP JUMPDEST PUSH1 0x0 PUSH1 0x20 DUP3 ADD SWAP1 POP PUSH2 0x28E5 PUSH1 0x0 DUP4 ADD DUP5 PUSH2 0x283F JUMP JUMPDEST SWAP3 SWAP2 POP POP JUMP JUMPDEST PUSH1 0x0 PUSH1 0xE0 DUP3 ADD SWAP1 POP DUP2 DUP2 SUB PUSH1 0x0 DUP4 ADD MSTORE PUSH2 0x2905 DUP2 DUP11 PUSH2 0x284E JUMP JUMPDEST SWAP1 POP DUP2 DUP2 SUB PUSH1 0x20 DUP4 ADD MSTORE PUSH2 0x2919 DUP2 DUP10 PUSH2 0x284E JUMP JUMPDEST SWAP1 POP DUP2 DUP2 SUB PUSH1 0x40 DUP4 ADD MSTORE PUSH2 0x292D DUP2 DUP9 PUSH2 0x284E JUMP JUMPDEST SWAP1 POP DUP2 DUP2 SUB PUSH1 0x60 DUP4 ADD MSTORE PUSH2 0x2941 DUP2 DUP8 PUSH2 0x284E JUMP JUMPDEST SWAP1 POP DUP2 DUP2 SUB PUSH1 0x80 DUP4 ADD MSTORE PUSH2 0x2955 DUP2 DUP7 PUSH2 0x284E JUMP JUMPDEST SWAP1 POP DUP2 DUP2 SUB PUSH1 0xA0 DUP4 ADD MSTORE PUSH2 0x2969 DUP2 DUP6 PUSH2 0x284E JUMP JUMPDEST SWAP1 POP PUSH2 0x2978 PUSH1 0xC0 DUP4 ADD DUP5 PUSH2 0x27D5 JUMP JUMPDEST SWAP9 SWAP8 POP POP POP POP POP POP POP POP JUMP JUMPDEST PUSH1 0x0 PUSH1 0xE0 DUP3 ADD SWAP1 POP DUP2 DUP2 SUB PUSH1 0x0 DUP4 ADD MSTORE PUSH2 0x299E DUP2 DUP11 PUSH2 0x284E JUMP JUMPDEST SWAP1 POP DUP2 DUP2 SUB PUSH1 0x20 DUP4 ADD MSTORE PUSH2 0x29B2 DUP2 DUP10 PUSH2 0x284E JUMP JUMPDEST SWAP1 POP DUP2 DUP2 SUB PUSH1 0x40 DUP4 ADD MSTORE PUSH2 0x29C6 DUP2 DUP9 PUSH2 0x284E JUMP JUMPDEST SWAP1 POP DUP2 DUP2 SUB PUSH1 0x60 DUP4 ADD MSTORE PUSH2 0x29DA DUP2 DUP8 PUSH2 0x284E JUMP JUMPDEST SWAP1 POP DUP2 DUP2 SUB PUSH1 0x80 DUP4 ADD MSTORE PUSH2 0x29EE DUP2 DUP7 PUSH2 0x284E JUMP JUMPDEST SWAP1 POP DUP2 DUP2 SUB PUSH1 0xA0 DUP4 ADD MSTORE PUSH2 0x2A02 DUP2 DUP6 PUSH2 0x284E JUMP JUMPDEST SWAP1 POP DUP2 DUP2 SUB PUSH1 0xC0 DUP4 ADD MSTORE PUSH2 0x2A16 DUP2 DUP5 PUSH2 0x284E JUMP JUMPDEST SWAP1 POP SWAP9 SWAP8 POP POP POP POP POP POP POP POP JUMP JUMPDEST PUSH1 0x0 PUSH1 0x20 DUP3 ADD SWAP1 POP PUSH2 0x2A39 PUSH1 0x0 DUP4 ADD DUP5 PUSH2 0x2884 JUMP JUMPDEST SWAP3 SWAP2 POP POP JUMP JUMPDEST PUSH1 0x0 PUSH1 0x40 MLOAD SWAP1 POP DUP2 DUP2 ADD DUP2 DUP2 LT PUSH8 0xFFFFFFFFFFFFFFFF DUP3 GT OR ISZERO PUSH2 0x2A62 JUMPI PUSH1 0x0 DUP1 REVERT JUMPDEST DUP1 PUSH1 0x40 MSTORE POP SWAP2 SWAP1 POP JUMP JUMPDEST PUSH1 0x0 PUSH8 0xFFFFFFFFFFFFFFFF DUP3 GT ISZERO PUSH2 0x2A83 JUMPI PUSH1 0x0 DUP1 REVERT JUMPDEST PUSH1 0x1F NOT PUSH1 0x1F DUP4 ADD AND SWAP1 POP PUSH1 0x20 DUP2 ADD SWAP1 POP SWAP2 SWAP1 POP JUMP JUMPDEST PUSH1 0x0 PUSH1 0x20 DUP3 ADD SWAP1 POP SWAP2 SWAP1 POP JUMP JUMPDEST PUSH1 0x0 DUP2 MLOAD SWAP1 POP SWAP2 SWAP1 POP JUMP JUMPDEST PUSH1 0x0 DUP2 MLOAD SWAP1 POP SWAP2 SWAP1 POP JUMP JUMPDEST PUSH1 0x0 PUSH1 0x20 DUP3 ADD SWAP1 POP SWAP2 SWAP1 POP JUMP JUMPDEST PUSH1 0x0 PUSH20 0xFFFFFFFFFFFFFFFFFFFFFFFFFFFFFFFFFFFFFFFF DUP3 AND SWAP1 POP SWAP2 SWAP1 POP JUMP JUMPDEST PUSH1 0x0 DUP2 ISZERO ISZERO SWAP1 POP SWAP2 SWAP1 POP JUMP JUMPDEST PUSH1 0x0 DUP2 SWAP1 POP SWAP2 SWAP1 POP JUMP JUMPDEST PUSH1 0x0 PUSH20 0xFFFFFFFFFFFFFFFFFFFFFFFFFFFFFFFFFFFFFFFF DUP3 AND SWAP1 POP SWAP2 SWAP1 POP JUMP JUMPDEST PUSH1 0x0 DUP2 SWAP1 POP SWAP2 SWAP1 POP JUMP JUMPDEST DUP3 DUP2 DUP4 CALLDATACOPY PUSH1 0x0 DUP4 DUP4 ADD MSTORE POP POP POP JUMP JUMPDEST PUSH1 0x0 JUMPDEST DUP4 DUP2 LT ISZERO PUSH2 0x2B55 JUMPI DUP1 DUP3 ADD MLOAD DUP2 DUP5 ADD MSTORE PUSH1 0x20 DUP2 ADD SWAP1 POP PUSH2 0x2B3A JUMP JUMPDEST DUP4 DUP2 GT ISZERO PUSH2 0x2B64 JUMPI PUSH1 0x0 DUP5 DUP5 ADD MSTORE JUMPDEST POP POP POP POP JUMP JUMPDEST PUSH1 0x0 PUSH1 0x1F NOT PUSH1 0x1F DUP4 ADD AND SWAP1 POP SWAP2 SWAP1 POP JUMP STOP LOG2 PUSH6 0x627A7A723058 KECCAK256 MULMOD POP SWAP2 0xc9 GASPRICE BALANCE 0xb4 0xa5 0xf8 SHR 0x2b COINBASE CREATE2 0xc3 0xd8 0xdb PUSH6 0xC7413D5B8FB 0xd3 0x5c DUP5 0xe5 PUSH28 0xC97FF87D6C6578706572696D656E74616CF500370000000000000000 "
				},
				"gasEstimates": {
					"creation": {
						"codeDepositCost": "2237800",
						"executionCost": "42681",
						"totalCost": "2280481"
					},
					"external": {
						"MoHPermissionCounter()": "848",
						"MoHRevokePermission(address,address)": "infinite",
						"doctorCount()": "760",
						"doctorList(uint256)": "1144",
						"doctorRegistration(address,string,string,string,string,string,string,string)": "infinite",
						"editDoctor(address,string,string,string,string,string,string,string)": "infinite",
						"editUser(address,string,string,string,string,string,string,string,string,string)": "infinite",
						"getDoctorCount()": "790",
						"getDoctors()": "infinite",
						"getMoHPermissionCounter()": "1054",
						"getUserCount()": "922",
						"getUserPermissionCounter()": "548",
						"getUsers()": "infinite",
						"givePermissionByMoH(address,address)": "infinite",
						"givePermissionByUser(address)": "41388",
						"mohAdress()": "978",
						"owner()": "846",
						"ownerAddress()": "21142",
						"searchDoctor(address)": "infinite",
						"searchUserformation(address)": "infinite",
						"userCount()": "584",
						"userList(uint256)": "1408",
						"userPermissionCounter()": "980",
						"userRegistration(address,string,string,string,string,string,string,string,string,string)": "infinite",
						"userRevokePermission(address)": "21173"
					}
				},
				"methodIdentifiers": {
					"MoHPermissionCounter()": "99d698c5",
					"MoHRevokePermission(address,address)": "c3bf7bf0",
					"doctorCount()": "78522bc4",
					"doctorList(uint256)": "127ca4b4",
					"doctorRegistration(address,string,string,string,string,string,string,string)": "17e51111",
					"editDoctor(address,string,string,string,string,string,string,string)": "16e0a611",
					"editUser(address,string,string,string,string,string,string,string,string,string)": "779a9576",
					"getDoctorCount()": "79111c1c",
					"getDoctors()": "b13d5d94",
					"getMoHPermissionCounter()": "e0df0ac6",
					"getUserCount()": "b5cb15f7",
					"getUserPermissionCounter()": "024decc5",
					"getUsers()": "00ce8e3e",
					"givePermissionByMoH(address,address)": "d118404b",
					"givePermissionByUser(address)": "294a4540",
					"mohAdress()": "b744ff4d",
					"owner()": "8da5cb5b",
					"ownerAddress()": "8f84aa09",
					"searchDoctor(address)": "caee6c85",
					"searchUserformation(address)": "076fd2f8",
					"userCount()": "07973ccf",
					"userList(uint256)": "9f4216e8",
					"userPermissionCounter()": "c543a718",
					"userRegistration(address,string,string,string,string,string,string,string,string,string)": "6cdb2278",
					"userRevokePermission(address)": "5fc8e8c6"
				}
			},
			"userdoc": {
				"methods": {}
			}
		}
	}
}