{
	"contracts/ddddd.sol": {
		"ddddd": {
			"abi": [
				{
					"constant": true,
					"inputs": [],
					"name": "getUsers",
					"outputs": [
						{
							"name": "",
							"type": "address[]"
						}
					],
					"payable": false,
					"stateMutability": "view",
					"type": "function"
				},
				{
					"constant": false,
					"inputs": [
						{
							"name": "_address",
							"type": "address"
						}
					],
					"name": "RevokePermission",
					"outputs": [
						{
							"name": "success",
							"type": "bool"
						}
					],
					"payable": false,
					"stateMutability": "nonpayable",
					"type": "function"
				},
				{
					"constant": true,
					"inputs": [
						{
							"name": "_address",
							"type": "address"
						}
					],
					"name": "searchUserformation",
					"outputs": [
						{
							"name": "",
							"type": "string"
						},
						{
							"name": "",
							"type": "string"
						},
						{
							"name": "",
							"type": "string"
						},
						{
							"name": "",
							"type": "string"
						},
						{
							"name": "",
							"type": "string"
						},
						{
							"name": "",
							"type": "string"
						}
					],
					"payable": false,
					"stateMutability": "view",
					"type": "function"
				},
				{
					"constant": true,
					"inputs": [],
					"name": "userCount",
					"outputs": [
						{
							"name": "",
							"type": "uint256"
						}
					],
					"payable": false,
					"stateMutability": "view",
					"type": "function"
				},
				{
					"constant": true,
					"inputs": [
						{
							"name": "",
							"type": "uint256"
						}
					],
					"name": "doctorList",
					"outputs": [
						{
							"name": "",
							"type": "address"
						}
					],
					"payable": false,
					"stateMutability": "view",
					"type": "function"
				},
				{
					"constant": false,
					"inputs": [
						{
							"name": "_doctor",
							"type": "address"
						},
						{
							"name": "_uaeId",
							"type": "string"
						},
						{
							"name": "_name",
							"type": "string"
						},
						{
							"name": "_phone",
							"type": "string"
						},
						{
							"name": "_gender",
							"type": "string"
						},
						{
							"name": "_dob",
							"type": "string"
						},
						{
							"name": "_qualification",
							"type": "string"
						},
						{
							"name": "_major",
							"type": "string"
						}
					],
					"name": "editDoctor",
					"outputs": [],
					"payable": false,
					"stateMutability": "nonpayable",
					"type": "function"
				},
				{
					"constant": true,
					"inputs": [],
					"name": "getPermissionGrantedCount",
					"outputs": [
						{
							"name": "",
							"type": "uint256"
						}
					],
					"payable": false,
					"stateMutability": "view",
					"type": "function"
				},
				{
					"constant": false,
					"inputs": [
						{
							"name": "_uaeId",
							"type": "string"
						},
						{
							"name": "_name",
							"type": "string"
						},
						{
							"name": "_phone",
							"type": "string"
						},
						{
							"name": "_gender",
							"type": "string"
						},
						{
							"name": "_dob",
							"type": "string"
						},
						{
							"name": "_addr",
							"type": "string"
						},
						{
							"name": "_email",
							"type": "string"
						},
						{
							"name": "_nomineeName",
							"type": "string"
						},
						{
							"name": "_nomineeContact",
							"type": "string"
						}
					],
					"name": "userRegistration",
					"outputs": [],
					"payable": false,
					"stateMutability": "nonpayable",
					"type": "function"
				},
				{
					"constant": false,
					"inputs": [
						{
							"name": "_address",
							"type": "address"
						}
					],
					"name": "givePermission",
					"outputs": [
						{
							"name": "success",
							"type": "bool"
						}
					],
					"payable": false,
					"stateMutability": "nonpayable",
					"type": "function"
				},
				{
					"constant": false,
					"inputs": [
						{
							"name": "_user",
							"type": "address"
						},
						{
							"name": "_uaeId",
							"type": "string"
						},
						{
							"name": "_name",
							"type": "string"
						},
						{
							"name": "_phone",
							"type": "string"
						},
						{
							"name": "_gender",
							"type": "string"
						},
						{
							"name": "_dob",
							"type": "string"
						},
						{
							"name": "_addr",
							"type": "string"
						},
						{
							"name": "_email",
							"type": "string"
						},
						{
							"name": "_nomineeName",
							"type": "string"
						},
						{
							"name": "_nomineeContact",
							"type": "string"
						}
					],
					"name": "editUser",
					"outputs": [],
					"payable": false,
					"stateMutability": "nonpayable",
					"type": "function"
				},
				{
					"constant": true,
					"inputs": [],
					"name": "doctorCount",
					"outputs": [
						{
							"name": "",
							"type": "uint256"
						}
					],
					"payable": false,
					"stateMutability": "view",
					"type": "function"
				},
				{
					"constant": true,
					"inputs": [],
					"name": "getDoctorCount",
					"outputs": [
						{
							"name": "",
							"type": "uint256"
						}
					],
					"payable": false,
					"stateMutability": "view",
					"type": "function"
				},
				{
					"constant": false,
					"inputs": [
						{
							"name": "_uaeId",
							"type": "string"
						},
						{
							"name": "_name",
							"type": "string"
						},
						{
							"name": "_phone",
							"type": "string"
						},
						{
							"name": "_gender",
							"type": "string"
						},
						{
							"name": "_dob",
							"type": "string"
						},
						{
							"name": "_qualification",
							"type": "string"
						},
						{
							"name": "_major",
							"type": "string"
						}
					],
					"name": "setDoctor",
					"outputs": [],
					"payable": false,
					"stateMutability": "nonpayable",
					"type": "function"
				},
				{
					"constant": true,
					"inputs": [],
					"name": "owner",
					"outputs": [
						{
							"name": "",
							"type": "address"
						}
					],
					"payable": false,
					"stateMutability": "view",
					"type": "function"
				},
				{
					"constant": false,
					"inputs": [],
					"name": "ownerAddress",
					"outputs": [],
					"payable": false,
					"stateMutability": "nonpayable",
					"type": "function"
				},
				{
					"constant": true,
					"inputs": [
						{
							"name": "",
							"type": "uint256"
						}
					],
					"name": "userList",
					"outputs": [
						{
							"name": "",
							"type": "address"
						}
					],
					"payable": false,
					"stateMutability": "view",
					"type": "function"
				},
				{
					"constant": true,
					"inputs": [],
					"name": "permissionCounter",
					"outputs": [
						{
							"name": "",
							"type": "uint256"
						}
					],
					"payable": false,
					"stateMutability": "view",
					"type": "function"
				},
				{
					"constant": true,
					"inputs": [],
					"name": "getDoctors",
					"outputs": [
						{
							"name": "",
							"type": "address[]"
						}
					],
					"payable": false,
					"stateMutability": "view",
					"type": "function"
				},
				{
					"constant": true,
					"inputs": [],
					"name": "getUserCount",
					"outputs": [
						{
							"name": "",
							"type": "uint256"
						}
					],
					"payable": false,
					"stateMutability": "view",
					"type": "function"
				},
				{
					"constant": true,
					"inputs": [],
					"name": "mohAdress",
					"outputs": [
						{
							"name": "",
							"type": "address"
						}
					],
					"payable": false,
					"stateMutability": "view",
					"type": "function"
				},
				{
					"constant": true,
					"inputs": [
						{
							"name": "_address",
							"type": "address"
						}
					],
					"name": "searchDoctor",
					"outputs": [
						{
							"name": "",
							"type": "string"
						},
						{
							"name": "",
							"type": "string"
						},
						{
							"name": "",
							"type": "string"
						},
						{
							"name": "",
							"type": "string"
						},
						{
							"name": "",
							"type": "string"
						},
						{
							"name": "",
							"type": "string"
						},
						{
							"name": "",
							"type": "string"
						}
					],
					"payable": false,
					"stateMutability": "view",
					"type": "function"
				}
			],
			"devdoc": {
				"methods": {}
			},
			"evm": {
				"assembly": "    /* \"contracts/ddddd.sol\":67:5891  contract ddddd {\r... */\n  mstore(0x40, 0x80)\n    /* \"contracts/ddddd.sol\":1064:1065  0 */\n  0x0\n    /* \"contracts/ddddd.sol\":1037:1065  uint256 public userCount = 0 */\n  0x8\n  sstore\n    /* \"contracts/ddddd.sol\":1101:1102  0 */\n  0x0\n    /* \"contracts/ddddd.sol\":1072:1102  uint256 public doctorCount = 0 */\n  0x9\n  sstore\n    /* \"contracts/ddddd.sol\":1144:1145  0 */\n  0x0\n    /* \"contracts/ddddd.sol\":1109:1145  uint256 public permissionCounter = 0 */\n  0xa\n  sstore\n    /* \"contracts/ddddd.sol\":1179:1221  0xc50C6297f56b033633C30354A854b074749cd2dC */\n  0xc50c6297f56b033633c30354a854b074749cd2dc\n    /* \"contracts/ddddd.sol\":1152:1221  address public mohAdress = 0xc50C6297f56b033633C30354A854b074749cd2dC */\n  0xb\n  exp(0x100, 0x0)\n  dup2\n  sload\n  dup2\n  0xffffffffffffffffffffffffffffffffffffffff\n  mul\n  not\n  and\n  swap1\n  dup4\n  0xffffffffffffffffffffffffffffffffffffffff\n  and\n  mul\n  or\n  swap1\n  sstore\n  pop\n    /* \"contracts/ddddd.sol\":67:5891  contract ddddd {\r... */\n  callvalue\n    /* \"--CODEGEN--\":8:17   */\n  dup1\n    /* \"--CODEGEN--\":5:7   */\n  iszero\n  tag_1\n  jumpi\n    /* \"--CODEGEN--\":30:31   */\n  0x0\n    /* \"--CODEGEN--\":27:28   */\n  dup1\n    /* \"--CODEGEN--\":20:32   */\n  revert\n    /* \"--CODEGEN--\":5:7   */\ntag_1:\n    /* \"contracts/ddddd.sol\":67:5891  contract ddddd {\r... */\n  pop\n  dataSize(sub_0)\n  dup1\n  dataOffset(sub_0)\n  0x0\n  codecopy\n  0x0\n  return\nstop\n\nsub_0: assembly {\n        /* \"contracts/ddddd.sol\":67:5891  contract ddddd {\r... */\n      mstore(0x40, 0x80)\n      jumpi(tag_1, lt(calldatasize, 0x4))\n      calldataload(0x0)\n      0x100000000000000000000000000000000000000000000000000000000\n      swap1\n      div\n      0xffffffff\n      and\n      dup1\n      0xce8e3e\n      eq\n      tag_2\n      jumpi\n      dup1\n      0x2516abd\n      eq\n      tag_3\n      jumpi\n      dup1\n      0x76fd2f8\n      eq\n      tag_4\n      jumpi\n      dup1\n      0x7973ccf\n      eq\n      tag_5\n      jumpi\n      dup1\n      0x127ca4b4\n      eq\n      tag_6\n      jumpi\n      dup1\n      0x16e0a611\n      eq\n      tag_7\n      jumpi\n      dup1\n      0x24c24b2b\n      eq\n      tag_8\n      jumpi\n      dup1\n      0x2fde294c\n      eq\n      tag_9\n      jumpi\n      dup1\n      0x3d391f70\n      eq\n      tag_10\n      jumpi\n      dup1\n      0x779a9576\n      eq\n      tag_11\n      jumpi\n      dup1\n      0x78522bc4\n      eq\n      tag_12\n      jumpi\n      dup1\n      0x79111c1c\n      eq\n      tag_13\n      jumpi\n      dup1\n      0x8b945c6d\n      eq\n      tag_14\n      jumpi\n      dup1\n      0x8da5cb5b\n      eq\n      tag_15\n      jumpi\n      dup1\n      0x8f84aa09\n      eq\n      tag_16\n      jumpi\n      dup1\n      0x9f4216e8\n      eq\n      tag_17\n      jumpi\n      dup1\n      0xa5d043d1\n      eq\n      tag_18\n      jumpi\n      dup1\n      0xb13d5d94\n      eq\n      tag_19\n      jumpi\n      dup1\n      0xb5cb15f7\n      eq\n      tag_20\n      jumpi\n      dup1\n      0xb744ff4d\n      eq\n      tag_21\n      jumpi\n      dup1\n      0xcaee6c85\n      eq\n      tag_22\n      jumpi\n    tag_1:\n      0x0\n      dup1\n      revert\n        /* \"contracts/ddddd.sol\":4416:4501  function getUsers() public view returns(address[]) {\r... */\n    tag_2:\n      callvalue\n        /* \"--CODEGEN--\":8:17   */\n      dup1\n        /* \"--CODEGEN--\":5:7   */\n      iszero\n      tag_23\n      jumpi\n        /* \"--CODEGEN--\":30:31   */\n      0x0\n        /* \"--CODEGEN--\":27:28   */\n      dup1\n        /* \"--CODEGEN--\":20:32   */\n      revert\n        /* \"--CODEGEN--\":5:7   */\n    tag_23:\n        /* \"contracts/ddddd.sol\":4416:4501  function getUsers() public view returns(address[]) {\r... */\n      pop\n      tag_24\n      jump(tag_25)\n    tag_24:\n      mload(0x40)\n      tag_26\n      swap2\n      swap1\n      jump(tag_27)\n    tag_26:\n      mload(0x40)\n      dup1\n      swap2\n      sub\n      swap1\n      return\n        /* \"contracts/ddddd.sol\":4252:4406  function RevokePermission(address _address) public returns(bool success) {\r... */\n    tag_3:\n      callvalue\n        /* \"--CODEGEN--\":8:17   */\n      dup1\n        /* \"--CODEGEN--\":5:7   */\n      iszero\n      tag_28\n      jumpi\n        /* \"--CODEGEN--\":30:31   */\n      0x0\n        /* \"--CODEGEN--\":27:28   */\n      dup1\n        /* \"--CODEGEN--\":20:32   */\n      revert\n        /* \"--CODEGEN--\":5:7   */\n    tag_28:\n        /* \"contracts/ddddd.sol\":4252:4406  function RevokePermission(address _address) public returns(bool success) {\r... */\n      pop\n      tag_29\n      0x4\n      dup1\n      calldatasize\n      sub\n      tag_30\n      swap2\n      swap1\n      dup2\n      add\n      swap1\n      jump(tag_31)\n    tag_30:\n      jump(tag_32)\n    tag_29:\n      mload(0x40)\n      tag_33\n      swap2\n      swap1\n      jump(tag_34)\n    tag_33:\n      mload(0x40)\n      dup1\n      swap2\n      sub\n      swap1\n      return\n        /* \"contracts/ddddd.sol\":4612:4948  function searchUserformation(address _address) public view returns(string, string, string, string, string, string) {\r... */\n    tag_4:\n      callvalue\n        /* \"--CODEGEN--\":8:17   */\n      dup1\n        /* \"--CODEGEN--\":5:7   */\n      iszero\n      tag_35\n      jumpi\n        /* \"--CODEGEN--\":30:31   */\n      0x0\n        /* \"--CODEGEN--\":27:28   */\n      dup1\n        /* \"--CODEGEN--\":20:32   */\n      revert\n        /* \"--CODEGEN--\":5:7   */\n    tag_35:\n        /* \"contracts/ddddd.sol\":4612:4948  function searchUserformation(address _address) public view returns(string, string, string, string, string, string) {\r... */\n      pop\n      tag_36\n      0x4\n      dup1\n      calldatasize\n      sub\n      tag_37\n      swap2\n      swap1\n      dup2\n      add\n      swap1\n      jump(tag_31)\n    tag_37:\n      jump(tag_38)\n    tag_36:\n      mload(0x40)\n      tag_39\n      swap7\n      swap6\n      swap5\n      swap4\n      swap3\n      swap2\n      swap1\n      jump(tag_40)\n    tag_39:\n      mload(0x40)\n      dup1\n      swap2\n      sub\n      swap1\n      return\n        /* \"contracts/ddddd.sol\":1037:1065  uint256 public userCount = 0 */\n    tag_5:\n      callvalue\n        /* \"--CODEGEN--\":8:17   */\n      dup1\n        /* \"--CODEGEN--\":5:7   */\n      iszero\n      tag_41\n      jumpi\n        /* \"--CODEGEN--\":30:31   */\n      0x0\n        /* \"--CODEGEN--\":27:28   */\n      dup1\n        /* \"--CODEGEN--\":20:32   */\n      revert\n        /* \"--CODEGEN--\":5:7   */\n    tag_41:\n        /* \"contracts/ddddd.sol\":1037:1065  uint256 public userCount = 0 */\n      pop\n      tag_42\n      jump(tag_43)\n    tag_42:\n      mload(0x40)\n      tag_44\n      swap2\n      swap1\n      jump(tag_45)\n    tag_44:\n      mload(0x40)\n      dup1\n      swap2\n      sub\n      swap1\n      return\n        /* \"contracts/ddddd.sol\":748:775  address[] public doctorList */\n    tag_6:\n      callvalue\n        /* \"--CODEGEN--\":8:17   */\n      dup1\n        /* \"--CODEGEN--\":5:7   */\n      iszero\n      tag_46\n      jumpi\n        /* \"--CODEGEN--\":30:31   */\n      0x0\n        /* \"--CODEGEN--\":27:28   */\n      dup1\n        /* \"--CODEGEN--\":20:32   */\n      revert\n        /* \"--CODEGEN--\":5:7   */\n    tag_46:\n        /* \"contracts/ddddd.sol\":748:775  address[] public doctorList */\n      pop\n      tag_47\n      0x4\n      dup1\n      calldatasize\n      sub\n      tag_48\n      swap2\n      swap1\n      dup2\n      add\n      swap1\n      jump(tag_49)\n    tag_48:\n      jump(tag_50)\n    tag_47:\n      mload(0x40)\n      tag_51\n      swap2\n      swap1\n      jump(tag_52)\n    tag_51:\n      mload(0x40)\n      dup1\n      swap2\n      sub\n      swap1\n      return\n        /* \"contracts/ddddd.sol\":3569:4051  function editDoctor(address _doctor, string _uaeId, string _name, string _phone, string _gender, string _dob, string _qualification, string _major) public {\r... */\n    tag_7:\n      callvalue\n        /* \"--CODEGEN--\":8:17   */\n      dup1\n        /* \"--CODEGEN--\":5:7   */\n      iszero\n      tag_53\n      jumpi\n        /* \"--CODEGEN--\":30:31   */\n      0x0\n        /* \"--CODEGEN--\":27:28   */\n      dup1\n        /* \"--CODEGEN--\":20:32   */\n      revert\n        /* \"--CODEGEN--\":5:7   */\n    tag_53:\n        /* \"contracts/ddddd.sol\":3569:4051  function editDoctor(address _doctor, string _uaeId, string _name, string _phone, string _gender, string _dob, string _qualification, string _major) public {\r... */\n      pop\n      tag_54\n      0x4\n      dup1\n      calldatasize\n      sub\n      tag_55\n      swap2\n      swap1\n      dup2\n      add\n      swap1\n      jump(tag_56)\n    tag_55:\n      jump(tag_57)\n    tag_54:\n      stop\n        /* \"contracts/ddddd.sol\":5775:5884  function getPermissionGrantedCount() public view returns(uint256) {\r... */\n    tag_8:\n      callvalue\n        /* \"--CODEGEN--\":8:17   */\n      dup1\n        /* \"--CODEGEN--\":5:7   */\n      iszero\n      tag_58\n      jumpi\n        /* \"--CODEGEN--\":30:31   */\n      0x0\n        /* \"--CODEGEN--\":27:28   */\n      dup1\n        /* \"--CODEGEN--\":20:32   */\n      revert\n        /* \"--CODEGEN--\":5:7   */\n    tag_58:\n        /* \"contracts/ddddd.sol\":5775:5884  function getPermissionGrantedCount() public view returns(uint256) {\r... */\n      pop\n      tag_59\n      jump(tag_60)\n    tag_59:\n      mload(0x40)\n      tag_61\n      swap2\n      swap1\n      jump(tag_45)\n    tag_61:\n      mload(0x40)\n      dup1\n      swap2\n      sub\n      swap1\n      return\n        /* \"contracts/ddddd.sol\":1314:2340  function userRegistration(string _uaeId, string _name, string _phone, string _gender, string _dob, string _addr, string _email, string _nomineeName, string _nomineeContact) public {\r... */\n    tag_9:\n      callvalue\n        /* \"--CODEGEN--\":8:17   */\n      dup1\n        /* \"--CODEGEN--\":5:7   */\n      iszero\n      tag_62\n      jumpi\n        /* \"--CODEGEN--\":30:31   */\n      0x0\n        /* \"--CODEGEN--\":27:28   */\n      dup1\n        /* \"--CODEGEN--\":20:32   */\n      revert\n        /* \"--CODEGEN--\":5:7   */\n    tag_62:\n        /* \"contracts/ddddd.sol\":1314:2340  function userRegistration(string _uaeId, string _name, string _phone, string _gender, string _dob, string _addr, string _email, string _nomineeName, string _nomineeContact) public {\r... */\n      pop\n      tag_63\n      0x4\n      dup1\n      calldatasize\n      sub\n      tag_64\n      swap2\n      swap1\n      dup2\n      add\n      swap1\n      jump(tag_65)\n    tag_64:\n      jump(tag_66)\n    tag_63:\n      stop\n        /* \"contracts/ddddd.sol\":4061:4242  function givePermission(address _address) public returns(bool success) {\r... */\n    tag_10:\n      callvalue\n        /* \"--CODEGEN--\":8:17   */\n      dup1\n        /* \"--CODEGEN--\":5:7   */\n      iszero\n      tag_67\n      jumpi\n        /* \"--CODEGEN--\":30:31   */\n      0x0\n        /* \"--CODEGEN--\":27:28   */\n      dup1\n        /* \"--CODEGEN--\":20:32   */\n      revert\n        /* \"--CODEGEN--\":5:7   */\n    tag_67:\n        /* \"contracts/ddddd.sol\":4061:4242  function givePermission(address _address) public returns(bool success) {\r... */\n      pop\n      tag_68\n      0x4\n      dup1\n      calldatasize\n      sub\n      tag_69\n      swap2\n      swap1\n      dup2\n      add\n      swap1\n      jump(tag_31)\n    tag_69:\n      jump(tag_70)\n    tag_68:\n      mload(0x40)\n      tag_71\n      swap2\n      swap1\n      jump(tag_34)\n    tag_71:\n      mload(0x40)\n      dup1\n      swap2\n      sub\n      swap1\n      return\n        /* \"contracts/ddddd.sol\":2364:2940  function editUser(address _user, string _uaeId, string _name, string _phone, string _gender, string _dob, string _addr, string _email, string _nomineeName, string _nomineeContact) public {\r... */\n    tag_11:\n      callvalue\n        /* \"--CODEGEN--\":8:17   */\n      dup1\n        /* \"--CODEGEN--\":5:7   */\n      iszero\n      tag_72\n      jumpi\n        /* \"--CODEGEN--\":30:31   */\n      0x0\n        /* \"--CODEGEN--\":27:28   */\n      dup1\n        /* \"--CODEGEN--\":20:32   */\n      revert\n        /* \"--CODEGEN--\":5:7   */\n    tag_72:\n        /* \"contracts/ddddd.sol\":2364:2940  function editUser(address _user, string _uaeId, string _name, string _phone, string _gender, string _dob, string _addr, string _email, string _nomineeName, string _nomineeContact) public {\r... */\n      pop\n      tag_73\n      0x4\n      dup1\n      calldatasize\n      sub\n      tag_74\n      swap2\n      swap1\n      dup2\n      add\n      swap1\n      jump(tag_75)\n    tag_74:\n      jump(tag_76)\n    tag_73:\n      stop\n        /* \"contracts/ddddd.sol\":1072:1102  uint256 public doctorCount = 0 */\n    tag_12:\n      callvalue\n        /* \"--CODEGEN--\":8:17   */\n      dup1\n        /* \"--CODEGEN--\":5:7   */\n      iszero\n      tag_77\n      jumpi\n        /* \"--CODEGEN--\":30:31   */\n      0x0\n        /* \"--CODEGEN--\":27:28   */\n      dup1\n        /* \"--CODEGEN--\":20:32   */\n      revert\n        /* \"--CODEGEN--\":5:7   */\n    tag_77:\n        /* \"contracts/ddddd.sol\":1072:1102  uint256 public doctorCount = 0 */\n      pop\n      tag_78\n      jump(tag_79)\n    tag_78:\n      mload(0x40)\n      tag_80\n      swap2\n      swap1\n      jump(tag_45)\n    tag_80:\n      mload(0x40)\n      dup1\n      swap2\n      sub\n      swap1\n      return\n        /* \"contracts/ddddd.sol\":5675:5767  function getDoctorCount() public view returns(uint256) {\r... */\n    tag_13:\n      callvalue\n        /* \"--CODEGEN--\":8:17   */\n      dup1\n        /* \"--CODEGEN--\":5:7   */\n      iszero\n      tag_81\n      jumpi\n        /* \"--CODEGEN--\":30:31   */\n      0x0\n        /* \"--CODEGEN--\":27:28   */\n      dup1\n        /* \"--CODEGEN--\":20:32   */\n      revert\n        /* \"--CODEGEN--\":5:7   */\n    tag_81:\n        /* \"contracts/ddddd.sol\":5675:5767  function getDoctorCount() public view returns(uint256) {\r... */\n      pop\n      tag_82\n      jump(tag_83)\n    tag_82:\n      mload(0x40)\n      tag_84\n      swap2\n      swap1\n      jump(tag_45)\n    tag_84:\n      mload(0x40)\n      dup1\n      swap2\n      sub\n      swap1\n      return\n        /* \"contracts/ddddd.sol\":2948:3561  function setDoctor(string _uaeId, string _name, string _phone, string _gender, string _dob, string _qualification, string _major) public {\r... */\n    tag_14:\n      callvalue\n        /* \"--CODEGEN--\":8:17   */\n      dup1\n        /* \"--CODEGEN--\":5:7   */\n      iszero\n      tag_85\n      jumpi\n        /* \"--CODEGEN--\":30:31   */\n      0x0\n        /* \"--CODEGEN--\":27:28   */\n      dup1\n        /* \"--CODEGEN--\":20:32   */\n      revert\n        /* \"--CODEGEN--\":5:7   */\n    tag_85:\n        /* \"contracts/ddddd.sol\":2948:3561  function setDoctor(string _uaeId, string _name, string _phone, string _gender, string _dob, string _qualification, string _major) public {\r... */\n      pop\n      tag_86\n      0x4\n      dup1\n      calldatasize\n      sub\n      tag_87\n      swap2\n      swap1\n      dup2\n      add\n      swap1\n      jump(tag_88)\n    tag_87:\n      jump(tag_89)\n    tag_86:\n      stop\n        /* \"contracts/ddddd.sol\":689:709  address public owner */\n    tag_15:\n      callvalue\n        /* \"--CODEGEN--\":8:17   */\n      dup1\n        /* \"--CODEGEN--\":5:7   */\n      iszero\n      tag_90\n      jumpi\n        /* \"--CODEGEN--\":30:31   */\n      0x0\n        /* \"--CODEGEN--\":27:28   */\n      dup1\n        /* \"--CODEGEN--\":20:32   */\n      revert\n        /* \"--CODEGEN--\":5:7   */\n    tag_90:\n        /* \"contracts/ddddd.sol\":689:709  address public owner */\n      pop\n      tag_91\n      jump(tag_92)\n    tag_91:\n      mload(0x40)\n      tag_93\n      swap2\n      swap1\n      jump(tag_52)\n    tag_93:\n      mload(0x40)\n      dup1\n      swap2\n      sub\n      swap1\n      return\n        /* \"contracts/ddddd.sol\":1234:1302  function ownerAddress() public {\r... */\n    tag_16:\n      callvalue\n        /* \"--CODEGEN--\":8:17   */\n      dup1\n        /* \"--CODEGEN--\":5:7   */\n      iszero\n      tag_94\n      jumpi\n        /* \"--CODEGEN--\":30:31   */\n      0x0\n        /* \"--CODEGEN--\":27:28   */\n      dup1\n        /* \"--CODEGEN--\":20:32   */\n      revert\n        /* \"--CODEGEN--\":5:7   */\n    tag_94:\n        /* \"contracts/ddddd.sol\":1234:1302  function ownerAddress() public {\r... */\n      pop\n      tag_95\n      jump(tag_96)\n    tag_95:\n      stop\n        /* \"contracts/ddddd.sol\":716:741  address[] public userList */\n    tag_17:\n      callvalue\n        /* \"--CODEGEN--\":8:17   */\n      dup1\n        /* \"--CODEGEN--\":5:7   */\n      iszero\n      tag_97\n      jumpi\n        /* \"--CODEGEN--\":30:31   */\n      0x0\n        /* \"--CODEGEN--\":27:28   */\n      dup1\n        /* \"--CODEGEN--\":20:32   */\n      revert\n        /* \"--CODEGEN--\":5:7   */\n    tag_97:\n        /* \"contracts/ddddd.sol\":716:741  address[] public userList */\n      pop\n      tag_98\n      0x4\n      dup1\n      calldatasize\n      sub\n      tag_99\n      swap2\n      swap1\n      dup2\n      add\n      swap1\n      jump(tag_49)\n    tag_99:\n      jump(tag_100)\n    tag_98:\n      mload(0x40)\n      tag_101\n      swap2\n      swap1\n      jump(tag_52)\n    tag_101:\n      mload(0x40)\n      dup1\n      swap2\n      sub\n      swap1\n      return\n        /* \"contracts/ddddd.sol\":1109:1145  uint256 public permissionCounter = 0 */\n    tag_18:\n      callvalue\n        /* \"--CODEGEN--\":8:17   */\n      dup1\n        /* \"--CODEGEN--\":5:7   */\n      iszero\n      tag_102\n      jumpi\n        /* \"--CODEGEN--\":30:31   */\n      0x0\n        /* \"--CODEGEN--\":27:28   */\n      dup1\n        /* \"--CODEGEN--\":20:32   */\n      revert\n        /* \"--CODEGEN--\":5:7   */\n    tag_102:\n        /* \"contracts/ddddd.sol\":1109:1145  uint256 public permissionCounter = 0 */\n      pop\n      tag_103\n      jump(tag_104)\n    tag_103:\n      mload(0x40)\n      tag_105\n      swap2\n      swap1\n      jump(tag_45)\n    tag_105:\n      mload(0x40)\n      dup1\n      swap2\n      sub\n      swap1\n      return\n        /* \"contracts/ddddd.sol\":4511:4600  function getDoctors() public view returns(address[]) {\r... */\n    tag_19:\n      callvalue\n        /* \"--CODEGEN--\":8:17   */\n      dup1\n        /* \"--CODEGEN--\":5:7   */\n      iszero\n      tag_106\n      jumpi\n        /* \"--CODEGEN--\":30:31   */\n      0x0\n        /* \"--CODEGEN--\":27:28   */\n      dup1\n        /* \"--CODEGEN--\":20:32   */\n      revert\n        /* \"--CODEGEN--\":5:7   */\n    tag_106:\n        /* \"contracts/ddddd.sol\":4511:4600  function getDoctors() public view returns(address[]) {\r... */\n      pop\n      tag_107\n      jump(tag_108)\n    tag_107:\n      mload(0x40)\n      tag_109\n      swap2\n      swap1\n      jump(tag_27)\n    tag_109:\n      mload(0x40)\n      dup1\n      swap2\n      sub\n      swap1\n      return\n        /* \"contracts/ddddd.sol\":5579:5667  function getUserCount() public view returns(uint256) {\r... */\n    tag_20:\n      callvalue\n        /* \"--CODEGEN--\":8:17   */\n      dup1\n        /* \"--CODEGEN--\":5:7   */\n      iszero\n      tag_110\n      jumpi\n        /* \"--CODEGEN--\":30:31   */\n      0x0\n        /* \"--CODEGEN--\":27:28   */\n      dup1\n        /* \"--CODEGEN--\":20:32   */\n      revert\n        /* \"--CODEGEN--\":5:7   */\n    tag_110:\n        /* \"contracts/ddddd.sol\":5579:5667  function getUserCount() public view returns(uint256) {\r... */\n      pop\n      tag_111\n      jump(tag_112)\n    tag_111:\n      mload(0x40)\n      tag_113\n      swap2\n      swap1\n      jump(tag_45)\n    tag_113:\n      mload(0x40)\n      dup1\n      swap2\n      sub\n      swap1\n      return\n        /* \"contracts/ddddd.sol\":1152:1221  address public mohAdress = 0xc50C6297f56b033633C30354A854b074749cd2dC */\n    tag_21:\n      callvalue\n        /* \"--CODEGEN--\":8:17   */\n      dup1\n        /* \"--CODEGEN--\":5:7   */\n      iszero\n      tag_114\n      jumpi\n        /* \"--CODEGEN--\":30:31   */\n      0x0\n        /* \"--CODEGEN--\":27:28   */\n      dup1\n        /* \"--CODEGEN--\":20:32   */\n      revert\n        /* \"--CODEGEN--\":5:7   */\n    tag_114:\n        /* \"contracts/ddddd.sol\":1152:1221  address public mohAdress = 0xc50C6297f56b033633C30354A854b074749cd2dC */\n      pop\n      tag_115\n      jump(tag_116)\n    tag_115:\n      mload(0x40)\n      tag_117\n      swap2\n      swap1\n      jump(tag_52)\n    tag_117:\n      mload(0x40)\n      dup1\n      swap2\n      sub\n      swap1\n      return\n        /* \"contracts/ddddd.sol\":5269:5563  function searchDoctor(address _address) public view returns(string, string, string, string, string, string, string) {\r... */\n    tag_22:\n      callvalue\n        /* \"--CODEGEN--\":8:17   */\n      dup1\n        /* \"--CODEGEN--\":5:7   */\n      iszero\n      tag_118\n      jumpi\n        /* \"--CODEGEN--\":30:31   */\n      0x0\n        /* \"--CODEGEN--\":27:28   */\n      dup1\n        /* \"--CODEGEN--\":20:32   */\n      revert\n        /* \"--CODEGEN--\":5:7   */\n    tag_118:\n        /* \"contracts/ddddd.sol\":5269:5563  function searchDoctor(address _address) public view returns(string, string, string, string, string, string, string) {\r... */\n      pop\n      tag_119\n      0x4\n      dup1\n      calldatasize\n      sub\n      tag_120\n      swap2\n      swap1\n      dup2\n      add\n      swap1\n      jump(tag_31)\n    tag_120:\n      jump(tag_121)\n    tag_119:\n      mload(0x40)\n      tag_122\n      swap8\n      swap7\n      swap6\n      swap5\n      swap4\n      swap3\n      swap2\n      swap1\n      jump(tag_123)\n    tag_122:\n      mload(0x40)\n      dup1\n      swap2\n      sub\n      swap1\n      return\n        /* \"contracts/ddddd.sol\":4416:4501  function getUsers() public view returns(address[]) {\r... */\n    tag_25:\n        /* \"contracts/ddddd.sol\":4456:4465  address[] */\n      0x60\n        /* \"contracts/ddddd.sol\":4485:4493  userList */\n      0x1\n        /* \"contracts/ddddd.sol\":4478:4493  return userList */\n      dup1\n      sload\n      dup1\n      0x20\n      mul\n      0x20\n      add\n      mload(0x40)\n      swap1\n      dup2\n      add\n      0x40\n      mstore\n      dup1\n      swap3\n      swap2\n      swap1\n      dup2\n      dup2\n      mstore\n      0x20\n      add\n      dup3\n      dup1\n      sload\n      dup1\n      iszero\n      tag_125\n      jumpi\n      0x20\n      mul\n      dup3\n      add\n      swap2\n      swap1\n      0x0\n      mstore\n      keccak256(0x0, 0x20)\n      swap1\n    tag_126:\n      dup2\n      0x0\n      swap1\n      sload\n      swap1\n      0x100\n      exp\n      swap1\n      div\n      0xffffffffffffffffffffffffffffffffffffffff\n      and\n      0xffffffffffffffffffffffffffffffffffffffff\n      and\n      dup2\n      mstore\n      0x20\n      add\n      swap1\n      0x1\n      add\n      swap1\n      dup1\n      dup4\n      gt\n      tag_126\n      jumpi\n    tag_125:\n      pop\n      pop\n      pop\n      pop\n      pop\n      swap1\n      pop\n        /* \"contracts/ddddd.sol\":4416:4501  function getUsers() public view returns(address[]) {\r... */\n      swap1\n      jump\t// out\n        /* \"contracts/ddddd.sol\":4252:4406  function RevokePermission(address _address) public returns(bool success) {\r... */\n    tag_32:\n        /* \"contracts/ddddd.sol\":4311:4323  bool success */\n      0x0\n        /* \"contracts/ddddd.sol\":4371:4376  false */\n      dup1\n        /* \"contracts/ddddd.sol\":4336:4346  isApproved */\n      0x5\n        /* \"contracts/ddddd.sol\":4336:4358  isApproved[msg.sender] */\n      0x0\n        /* \"contracts/ddddd.sol\":4347:4357  msg.sender */\n      caller\n        /* \"contracts/ddddd.sol\":4336:4358  isApproved[msg.sender] */\n      0xffffffffffffffffffffffffffffffffffffffff\n      and\n      0xffffffffffffffffffffffffffffffffffffffff\n      and\n      dup2\n      mstore\n      0x20\n      add\n      swap1\n      dup2\n      mstore\n      0x20\n      add\n      0x0\n      keccak256\n        /* \"contracts/ddddd.sol\":4336:4368  isApproved[msg.sender][_address] */\n      0x0\n        /* \"contracts/ddddd.sol\":4359:4367  _address */\n      dup5\n        /* \"contracts/ddddd.sol\":4336:4368  isApproved[msg.sender][_address] */\n      0xffffffffffffffffffffffffffffffffffffffff\n      and\n      0xffffffffffffffffffffffffffffffffffffffff\n      and\n      dup2\n      mstore\n      0x20\n      add\n      swap1\n      dup2\n      mstore\n      0x20\n      add\n      0x0\n      keccak256\n      0x0\n        /* \"contracts/ddddd.sol\":4336:4376  isApproved[msg.sender][_address] = false */\n      0x100\n      exp\n      dup2\n      sload\n      dup2\n      0xff\n      mul\n      not\n      and\n      swap1\n      dup4\n      iszero\n      iszero\n      mul\n      or\n      swap1\n      sstore\n      pop\n        /* \"contracts/ddddd.sol\":4394:4398  true */\n      0x1\n        /* \"contracts/ddddd.sol\":4387:4398  return true */\n      swap1\n      pop\n        /* \"contracts/ddddd.sol\":4252:4406  function RevokePermission(address _address) public returns(bool success) {\r... */\n      swap2\n      swap1\n      pop\n      jump\t// out\n        /* \"contracts/ddddd.sol\":4612:4948  function searchUserformation(address _address) public view returns(string, string, string, string, string, string) {\r... */\n    tag_38:\n        /* \"contracts/ddddd.sol\":4679:4685  string */\n      0x60\n        /* \"contracts/ddddd.sol\":4687:4693  string */\n      dup1\n        /* \"contracts/ddddd.sol\":4695:4701  string */\n      0x60\n        /* \"contracts/ddddd.sol\":4703:4709  string */\n      dup1\n        /* \"contracts/ddddd.sol\":4711:4717  string */\n      0x60\n        /* \"contracts/ddddd.sol\":4719:4725  string */\n      dup1\n        /* \"contracts/ddddd.sol\":4790:4795  var u */\n      0x0\n        /* \"contracts/ddddd.sol\":4746:4756  isApproved */\n      0x5\n        /* \"contracts/ddddd.sol\":4746:4766  isApproved[_address] */\n      0x0\n        /* \"contracts/ddddd.sol\":4757:4765  _address */\n      dup10\n        /* \"contracts/ddddd.sol\":4746:4766  isApproved[_address] */\n      0xffffffffffffffffffffffffffffffffffffffff\n      and\n      0xffffffffffffffffffffffffffffffffffffffff\n      and\n      dup2\n      mstore\n      0x20\n      add\n      swap1\n      dup2\n      mstore\n      0x20\n      add\n      0x0\n      keccak256\n        /* \"contracts/ddddd.sol\":4746:4778  isApproved[_address][msg.sender] */\n      0x0\n        /* \"contracts/ddddd.sol\":4767:4777  msg.sender */\n      caller\n        /* \"contracts/ddddd.sol\":4746:4778  isApproved[_address][msg.sender] */\n      0xffffffffffffffffffffffffffffffffffffffff\n      and\n      0xffffffffffffffffffffffffffffffffffffffff\n      and\n      dup2\n      mstore\n      0x20\n      add\n      swap1\n      dup2\n      mstore\n      0x20\n      add\n      0x0\n      keccak256\n      0x0\n      swap1\n      sload\n      swap1\n      0x100\n      exp\n      swap1\n      div\n      0xff\n      and\n        /* \"contracts/ddddd.sol\":4738:4779  require(isApproved[_address][msg.sender]) */\n      iszero\n      iszero\n      tag_129\n      jumpi\n      0x0\n      dup1\n      revert\n    tag_129:\n        /* \"contracts/ddddd.sol\":4798:4802  user */\n      0x3\n        /* \"contracts/ddddd.sol\":4798:4812  user[_address] */\n      0x0\n        /* \"contracts/ddddd.sol\":4803:4811  _address */\n      dup10\n        /* \"contracts/ddddd.sol\":4798:4812  user[_address] */\n      0xffffffffffffffffffffffffffffffffffffffff\n      and\n      0xffffffffffffffffffffffffffffffffffffffff\n      and\n      dup2\n      mstore\n      0x20\n      add\n      swap1\n      dup2\n      mstore\n      0x20\n      add\n      0x0\n      keccak256\n        /* \"contracts/ddddd.sol\":4790:4812  var u = user[_address] */\n      swap1\n      pop\n        /* \"contracts/ddddd.sol\":4831:4832  u */\n      dup1\n        /* \"contracts/ddddd.sol\":4831:4838  u.uaeId */\n      0x0\n      add\n        /* \"contracts/ddddd.sol\":4840:4841  u */\n      dup2\n        /* \"contracts/ddddd.sol\":4840:4846  u.name */\n      0x1\n      add\n        /* \"contracts/ddddd.sol\":4848:4849  u */\n      dup3\n        /* \"contracts/ddddd.sol\":4848:4855  u.phone */\n      0x2\n      add\n        /* \"contracts/ddddd.sol\":4857:4858  u */\n      dup4\n        /* \"contracts/ddddd.sol\":4857:4865  u.gender */\n      0x3\n      add\n        /* \"contracts/ddddd.sol\":4867:4868  u */\n      dup5\n        /* \"contracts/ddddd.sol\":4867:4872  u.dob */\n      0x4\n      add\n        /* \"contracts/ddddd.sol\":4874:4875  u */\n      dup6\n        /* \"contracts/ddddd.sol\":4874:4880  u.addr */\n      0x5\n      add\n        /* \"contracts/ddddd.sol\":4823:4881  return (u.uaeId, u.name, u.phone, u.gender, u.dob, u.addr) */\n      dup6\n      dup1\n      sload\n      0x1\n      dup2\n      0x1\n      and\n      iszero\n      0x100\n      mul\n      sub\n      and\n      0x2\n      swap1\n      div\n      dup1\n      0x1f\n      add\n      0x20\n      dup1\n      swap2\n      div\n      mul\n      0x20\n      add\n      mload(0x40)\n      swap1\n      dup2\n      add\n      0x40\n      mstore\n      dup1\n      swap3\n      swap2\n      swap1\n      dup2\n      dup2\n      mstore\n      0x20\n      add\n      dup3\n      dup1\n      sload\n      0x1\n      dup2\n      0x1\n      and\n      iszero\n      0x100\n      mul\n      sub\n      and\n      0x2\n      swap1\n      div\n      dup1\n      iszero\n      tag_130\n      jumpi\n      dup1\n      0x1f\n      lt\n      tag_131\n      jumpi\n      0x100\n      dup1\n      dup4\n      sload\n      div\n      mul\n      dup4\n      mstore\n      swap2\n      0x20\n      add\n      swap2\n      jump(tag_130)\n    tag_131:\n      dup3\n      add\n      swap2\n      swap1\n      0x0\n      mstore\n      keccak256(0x0, 0x20)\n      swap1\n    tag_132:\n      dup2\n      sload\n      dup2\n      mstore\n      swap1\n      0x1\n      add\n      swap1\n      0x20\n      add\n      dup1\n      dup4\n      gt\n      tag_132\n      jumpi\n      dup3\n      swap1\n      sub\n      0x1f\n      and\n      dup3\n      add\n      swap2\n    tag_130:\n      pop\n      pop\n      pop\n      pop\n      pop\n      swap6\n      pop\n      dup5\n      dup1\n      sload\n      0x1\n      dup2\n      0x1\n      and\n      iszero\n      0x100\n      mul\n      sub\n      and\n      0x2\n      swap1\n      div\n      dup1\n      0x1f\n      add\n      0x20\n      dup1\n      swap2\n      div\n      mul\n      0x20\n      add\n      mload(0x40)\n      swap1\n      dup2\n      add\n      0x40\n      mstore\n      dup1\n      swap3\n      swap2\n      swap1\n      dup2\n      dup2\n      mstore\n      0x20\n      add\n      dup3\n      dup1\n      sload\n      0x1\n      dup2\n      0x1\n      and\n      iszero\n      0x100\n      mul\n      sub\n      and\n      0x2\n      swap1\n      div\n      dup1\n      iszero\n      tag_133\n      jumpi\n      dup1\n      0x1f\n      lt\n      tag_134\n      jumpi\n      0x100\n      dup1\n      dup4\n      sload\n      div\n      mul\n      dup4\n      mstore\n      swap2\n      0x20\n      add\n      swap2\n      jump(tag_133)\n    tag_134:\n      dup3\n      add\n      swap2\n      swap1\n      0x0\n      mstore\n      keccak256(0x0, 0x20)\n      swap1\n    tag_135:\n      dup2\n      sload\n      dup2\n      mstore\n      swap1\n      0x1\n      add\n      swap1\n      0x20\n      add\n      dup1\n      dup4\n      gt\n      tag_135\n      jumpi\n      dup3\n      swap1\n      sub\n      0x1f\n      and\n      dup3\n      add\n      swap2\n    tag_133:\n      pop\n      pop\n      pop\n      pop\n      pop\n      swap5\n      pop\n      dup4\n      dup1\n      sload\n      0x1\n      dup2\n      0x1\n      and\n      iszero\n      0x100\n      mul\n      sub\n      and\n      0x2\n      swap1\n      div\n      dup1\n      0x1f\n      add\n      0x20\n      dup1\n      swap2\n      div\n      mul\n      0x20\n      add\n      mload(0x40)\n      swap1\n      dup2\n      add\n      0x40\n      mstore\n      dup1\n      swap3\n      swap2\n      swap1\n      dup2\n      dup2\n      mstore\n      0x20\n      add\n      dup3\n      dup1\n      sload\n      0x1\n      dup2\n      0x1\n      and\n      iszero\n      0x100\n      mul\n      sub\n      and\n      0x2\n      swap1\n      div\n      dup1\n      iszero\n      tag_136\n      jumpi\n      dup1\n      0x1f\n      lt\n      tag_137\n      jumpi\n      0x100\n      dup1\n      dup4\n      sload\n      div\n      mul\n      dup4\n      mstore\n      swap2\n      0x20\n      add\n      swap2\n      jump(tag_136)\n    tag_137:\n      dup3\n      add\n      swap2\n      swap1\n      0x0\n      mstore\n      keccak256(0x0, 0x20)\n      swap1\n    tag_138:\n      dup2\n      sload\n      dup2\n      mstore\n      swap1\n      0x1\n      add\n      swap1\n      0x20\n      add\n      dup1\n      dup4\n      gt\n      tag_138\n      jumpi\n      dup3\n      swap1\n      sub\n      0x1f\n      and\n      dup3\n      add\n      swap2\n    tag_136:\n      pop\n      pop\n      pop\n      pop\n      pop\n      swap4\n      pop\n      dup3\n      dup1\n      sload\n      0x1\n      dup2\n      0x1\n      and\n      iszero\n      0x100\n      mul\n      sub\n      and\n      0x2\n      swap1\n      div\n      dup1\n      0x1f\n      add\n      0x20\n      dup1\n      swap2\n      div\n      mul\n      0x20\n      add\n      mload(0x40)\n      swap1\n      dup2\n      add\n      0x40\n      mstore\n      dup1\n      swap3\n      swap2\n      swap1\n      dup2\n      dup2\n      mstore\n      0x20\n      add\n      dup3\n      dup1\n      sload\n      0x1\n      dup2\n      0x1\n      and\n      iszero\n      0x100\n      mul\n      sub\n      and\n      0x2\n      swap1\n      div\n      dup1\n      iszero\n      tag_139\n      jumpi\n      dup1\n      0x1f\n      lt\n      tag_140\n      jumpi\n      0x100\n      dup1\n      dup4\n      sload\n      div\n      mul\n      dup4\n      mstore\n      swap2\n      0x20\n      add\n      swap2\n      jump(tag_139)\n    tag_140:\n      dup3\n      add\n      swap2\n      swap1\n      0x0\n      mstore\n      keccak256(0x0, 0x20)\n      swap1\n    tag_141:\n      dup2\n      sload\n      dup2\n      mstore\n      swap1\n      0x1\n      add\n      swap1\n      0x20\n      add\n      dup1\n      dup4\n      gt\n      tag_141\n      jumpi\n      dup3\n      swap1\n      sub\n      0x1f\n      and\n      dup3\n      add\n      swap2\n    tag_139:\n      pop\n      pop\n      pop\n      pop\n      pop\n      swap3\n      pop\n      dup2\n      dup1\n      sload\n      0x1\n      dup2\n      0x1\n      and\n      iszero\n      0x100\n      mul\n      sub\n      and\n      0x2\n      swap1\n      div\n      dup1\n      0x1f\n      add\n      0x20\n      dup1\n      swap2\n      div\n      mul\n      0x20\n      add\n      mload(0x40)\n      swap1\n      dup2\n      add\n      0x40\n      mstore\n      dup1\n      swap3\n      swap2\n      swap1\n      dup2\n      dup2\n      mstore\n      0x20\n      add\n      dup3\n      dup1\n      sload\n      0x1\n      dup2\n      0x1\n      and\n      iszero\n      0x100\n      mul\n      sub\n      and\n      0x2\n      swap1\n      div\n      dup1\n      iszero\n      tag_142\n      jumpi\n      dup1\n      0x1f\n      lt\n      tag_143\n      jumpi\n      0x100\n      dup1\n      dup4\n      sload\n      div\n      mul\n      dup4\n      mstore\n      swap2\n      0x20\n      add\n      swap2\n      jump(tag_142)\n    tag_143:\n      dup3\n      add\n      swap2\n      swap1\n      0x0\n      mstore\n      keccak256(0x0, 0x20)\n      swap1\n    tag_144:\n      dup2\n      sload\n      dup2\n      mstore\n      swap1\n      0x1\n      add\n      swap1\n      0x20\n      add\n      dup1\n      dup4\n      gt\n      tag_144\n      jumpi\n      dup3\n      swap1\n      sub\n      0x1f\n      and\n      dup3\n      add\n      swap2\n    tag_142:\n      pop\n      pop\n      pop\n      pop\n      pop\n      swap2\n      pop\n      dup1\n      dup1\n      sload\n      0x1\n      dup2\n      0x1\n      and\n      iszero\n      0x100\n      mul\n      sub\n      and\n      0x2\n      swap1\n      div\n      dup1\n      0x1f\n      add\n      0x20\n      dup1\n      swap2\n      div\n      mul\n      0x20\n      add\n      mload(0x40)\n      swap1\n      dup2\n      add\n      0x40\n      mstore\n      dup1\n      swap3\n      swap2\n      swap1\n      dup2\n      dup2\n      mstore\n      0x20\n      add\n      dup3\n      dup1\n      sload\n      0x1\n      dup2\n      0x1\n      and\n      iszero\n      0x100\n      mul\n      sub\n      and\n      0x2\n      swap1\n      div\n      dup1\n      iszero\n      tag_145\n      jumpi\n      dup1\n      0x1f\n      lt\n      tag_146\n      jumpi\n      0x100\n      dup1\n      dup4\n      sload\n      div\n      mul\n      dup4\n      mstore\n      swap2\n      0x20\n      add\n      swap2\n      jump(tag_145)\n    tag_146:\n      dup3\n      add\n      swap2\n      swap1\n      0x0\n      mstore\n      keccak256(0x0, 0x20)\n      swap1\n    tag_147:\n      dup2\n      sload\n      dup2\n      mstore\n      swap1\n      0x1\n      add\n      swap1\n      0x20\n      add\n      dup1\n      dup4\n      gt\n      tag_147\n      jumpi\n      dup3\n      swap1\n      sub\n      0x1f\n      and\n      dup3\n      add\n      swap2\n    tag_145:\n      pop\n      pop\n      pop\n      pop\n      pop\n      swap1\n      pop\n      swap7\n      pop\n      swap7\n      pop\n      swap7\n      pop\n      swap7\n      pop\n      swap7\n      pop\n      swap7\n      pop\n        /* \"contracts/ddddd.sol\":4612:4948  function searchUserformation(address _address) public view returns(string, string, string, string, string, string) {\r... */\n      pop\n      swap2\n      swap4\n      swap6\n      pop\n      swap2\n      swap4\n      swap6\n      jump\t// out\n        /* \"contracts/ddddd.sol\":1037:1065  uint256 public userCount = 0 */\n    tag_43:\n      sload(0x8)\n      dup2\n      jump\t// out\n        /* \"contracts/ddddd.sol\":748:775  address[] public doctorList */\n    tag_50:\n      0x2\n      dup2\n      dup2\n      sload\n      dup2\n      lt\n      iszero\n      iszero\n      tag_148\n      jumpi\n      invalid\n    tag_148:\n      swap1\n      0x0\n      mstore\n      keccak256(0x0, 0x20)\n      add\n      0x0\n      swap2\n      pop\n      sload\n      swap1\n      0x100\n      exp\n      swap1\n      div\n      0xffffffffffffffffffffffffffffffffffffffff\n      and\n      dup2\n      jump\t// out\n        /* \"contracts/ddddd.sol\":3569:4051  function editDoctor(address _doctor, string _uaeId, string _name, string _phone, string _gender, string _dob, string _qualification, string _major) public {\r... */\n    tag_57:\n        /* \"contracts/ddddd.sol\":3778:3783  var d */\n      0x0\n        /* \"contracts/ddddd.sol\":3757:3766  mohAdress */\n      0xb\n      0x0\n      swap1\n      sload\n      swap1\n      0x100\n      exp\n      swap1\n      div\n      0xffffffffffffffffffffffffffffffffffffffff\n      and\n        /* \"contracts/ddddd.sol\":3743:3766  msg.sender == mohAdress */\n      0xffffffffffffffffffffffffffffffffffffffff\n      and\n        /* \"contracts/ddddd.sol\":3743:3753  msg.sender */\n      caller\n        /* \"contracts/ddddd.sol\":3743:3766  msg.sender == mohAdress */\n      0xffffffffffffffffffffffffffffffffffffffff\n      and\n      eq\n        /* \"contracts/ddddd.sol\":3735:3767  require(msg.sender == mohAdress) */\n      iszero\n      iszero\n      tag_151\n      jumpi\n      0x0\n      dup1\n      revert\n    tag_151:\n        /* \"contracts/ddddd.sol\":3786:3792  doctor */\n      0x4\n        /* \"contracts/ddddd.sol\":3786:3801  doctor[_doctor] */\n      0x0\n        /* \"contracts/ddddd.sol\":3793:3800  _doctor */\n      dup11\n        /* \"contracts/ddddd.sol\":3786:3801  doctor[_doctor] */\n      0xffffffffffffffffffffffffffffffffffffffff\n      and\n      0xffffffffffffffffffffffffffffffffffffffff\n      and\n      dup2\n      mstore\n      0x20\n      add\n      swap1\n      dup2\n      mstore\n      0x20\n      add\n      0x0\n      keccak256\n        /* \"contracts/ddddd.sol\":3778:3801  var d = doctor[_doctor] */\n      swap1\n      pop\n        /* \"contracts/ddddd.sol\":3832:3838  _uaeId */\n      dup8\n        /* \"contracts/ddddd.sol\":3822:3823  d */\n      dup2\n        /* \"contracts/ddddd.sol\":3822:3829  d.uaeId */\n      0x0\n      add\n        /* \"contracts/ddddd.sol\":3822:3838  d.uaeId = _uaeId */\n      swap1\n      dup1\n      mload\n      swap1\n      0x20\n      add\n      swap1\n      tag_152\n      swap3\n      swap2\n      swap1\n      jump\t// in(tag_153)\n    tag_152:\n      pop\n        /* \"contracts/ddddd.sol\":3858:3863  _name */\n      dup7\n        /* \"contracts/ddddd.sol\":3849:3850  d */\n      dup2\n        /* \"contracts/ddddd.sol\":3849:3855  d.name */\n      0x1\n      add\n        /* \"contracts/ddddd.sol\":3849:3863  d.name = _name */\n      swap1\n      dup1\n      mload\n      swap1\n      0x20\n      add\n      swap1\n      tag_154\n      swap3\n      swap2\n      swap1\n      jump\t// in(tag_153)\n    tag_154:\n      pop\n        /* \"contracts/ddddd.sol\":3884:3890  _phone */\n      dup6\n        /* \"contracts/ddddd.sol\":3874:3875  d */\n      dup2\n        /* \"contracts/ddddd.sol\":3874:3881  d.phone */\n      0x2\n      add\n        /* \"contracts/ddddd.sol\":3874:3890  d.phone = _phone */\n      swap1\n      dup1\n      mload\n      swap1\n      0x20\n      add\n      swap1\n      tag_155\n      swap3\n      swap2\n      swap1\n      jump\t// in(tag_153)\n    tag_155:\n      pop\n        /* \"contracts/ddddd.sol\":3912:3919  _gender */\n      dup5\n        /* \"contracts/ddddd.sol\":3901:3902  d */\n      dup2\n        /* \"contracts/ddddd.sol\":3901:3909  d.gender */\n      0x3\n      add\n        /* \"contracts/ddddd.sol\":3901:3919  d.gender = _gender */\n      swap1\n      dup1\n      mload\n      swap1\n      0x20\n      add\n      swap1\n      tag_156\n      swap3\n      swap2\n      swap1\n      jump\t// in(tag_153)\n    tag_156:\n      pop\n        /* \"contracts/ddddd.sol\":3938:3942  _dob */\n      dup4\n        /* \"contracts/ddddd.sol\":3930:3931  d */\n      dup2\n        /* \"contracts/ddddd.sol\":3930:3935  d.dob */\n      0x4\n      add\n        /* \"contracts/ddddd.sol\":3930:3942  d.dob = _dob */\n      swap1\n      dup1\n      mload\n      swap1\n      0x20\n      add\n      swap1\n      tag_157\n      swap3\n      swap2\n      swap1\n      jump\t// in(tag_153)\n    tag_157:\n      pop\n        /* \"contracts/ddddd.sol\":3971:3985  _qualification */\n      dup3\n        /* \"contracts/ddddd.sol\":3953:3954  d */\n      dup2\n        /* \"contracts/ddddd.sol\":3953:3968  d.qualification */\n      0x7\n      add\n        /* \"contracts/ddddd.sol\":3953:3985  d.qualification = _qualification */\n      swap1\n      dup1\n      mload\n      swap1\n      0x20\n      add\n      swap1\n      tag_158\n      swap3\n      swap2\n      swap1\n      jump\t// in(tag_153)\n    tag_158:\n      pop\n        /* \"contracts/ddddd.sol\":4006:4012  _major */\n      dup2\n        /* \"contracts/ddddd.sol\":3996:3997  d */\n      dup2\n        /* \"contracts/ddddd.sol\":3996:4003  d.major */\n      0x8\n      add\n        /* \"contracts/ddddd.sol\":3996:4012  d.major = _major */\n      swap1\n      dup1\n      mload\n      swap1\n      0x20\n      add\n      swap1\n      tag_159\n      swap3\n      swap2\n      swap1\n      jump\t// in(tag_153)\n    tag_159:\n      pop\n        /* \"contracts/ddddd.sol\":4036:4043  _doctor */\n      dup9\n        /* \"contracts/ddddd.sol\":4023:4024  d */\n      dup2\n        /* \"contracts/ddddd.sol\":4023:4033  d.eAddress */\n      0x9\n      add\n      0x0\n        /* \"contracts/ddddd.sol\":4023:4043  d.eAddress = _doctor */\n      0x100\n      exp\n      dup2\n      sload\n      dup2\n      0xffffffffffffffffffffffffffffffffffffffff\n      mul\n      not\n      and\n      swap1\n      dup4\n      0xffffffffffffffffffffffffffffffffffffffff\n      and\n      mul\n      or\n      swap1\n      sstore\n      pop\n        /* \"contracts/ddddd.sol\":3569:4051  function editDoctor(address _doctor, string _uaeId, string _name, string _phone, string _gender, string _dob, string _qualification, string _major) public {\r... */\n      pop\n      pop\n      pop\n      pop\n      pop\n      pop\n      pop\n      pop\n      pop\n      jump\t// out\n        /* \"contracts/ddddd.sol\":5775:5884  function getPermissionGrantedCount() public view returns(uint256) {\r... */\n    tag_60:\n        /* \"contracts/ddddd.sol\":5832:5839  uint256 */\n      0x0\n        /* \"contracts/ddddd.sol\":5859:5876  permissionCounter */\n      sload(0xa)\n        /* \"contracts/ddddd.sol\":5852:5876  return permissionCounter */\n      swap1\n      pop\n        /* \"contracts/ddddd.sol\":5775:5884  function getPermissionGrantedCount() public view returns(uint256) {\r... */\n      swap1\n      jump\t// out\n        /* \"contracts/ddddd.sol\":1314:2340  function userRegistration(string _uaeId, string _name, string _phone, string _gender, string _dob, string _addr, string _email, string _nomineeName, string _nomineeContact) public {\r... */\n    tag_66:\n        /* \"contracts/ddddd.sol\":1544:1549  var u */\n      0x0\n        /* \"contracts/ddddd.sol\":2083:2100  string[] userData */\n      dup1\n        /* \"contracts/ddddd.sol\":1514:1520  isUser */\n      0x6\n        /* \"contracts/ddddd.sol\":1514:1532  isUser[msg.sender] */\n      0x0\n        /* \"contracts/ddddd.sol\":1521:1531  msg.sender */\n      caller\n        /* \"contracts/ddddd.sol\":1514:1532  isUser[msg.sender] */\n      0xffffffffffffffffffffffffffffffffffffffff\n      and\n      0xffffffffffffffffffffffffffffffffffffffff\n      and\n      dup2\n      mstore\n      0x20\n      add\n      swap1\n      dup2\n      mstore\n      0x20\n      add\n      0x0\n      keccak256\n      0x0\n      swap1\n      sload\n      swap1\n      0x100\n      exp\n      swap1\n      div\n      0xff\n      and\n        /* \"contracts/ddddd.sol\":1513:1532  !isUser[msg.sender] */\n      iszero\n        /* \"contracts/ddddd.sol\":1505:1533  require(!isUser[msg.sender]) */\n      iszero\n      iszero\n      tag_162\n      jumpi\n      0x0\n      dup1\n      revert\n    tag_162:\n        /* \"contracts/ddddd.sol\":1552:1556  user */\n      0x3\n        /* \"contracts/ddddd.sol\":1552:1568  user[msg.sender] */\n      0x0\n        /* \"contracts/ddddd.sol\":1557:1567  msg.sender */\n      caller\n        /* \"contracts/ddddd.sol\":1552:1568  user[msg.sender] */\n      0xffffffffffffffffffffffffffffffffffffffff\n      and\n      0xffffffffffffffffffffffffffffffffffffffff\n      and\n      dup2\n      mstore\n      0x20\n      add\n      swap1\n      dup2\n      mstore\n      0x20\n      add\n      0x0\n      keccak256\n        /* \"contracts/ddddd.sol\":1544:1568  var u = user[msg.sender] */\n      swap2\n      pop\n        /* \"contracts/ddddd.sol\":1599:1605  _uaeId */\n      dup11\n        /* \"contracts/ddddd.sol\":1589:1590  u */\n      dup3\n        /* \"contracts/ddddd.sol\":1589:1596  u.uaeId */\n      0x0\n      add\n        /* \"contracts/ddddd.sol\":1589:1605  u.uaeId = _uaeId */\n      swap1\n      dup1\n      mload\n      swap1\n      0x20\n      add\n      swap1\n      tag_163\n      swap3\n      swap2\n      swap1\n      jump\t// in(tag_153)\n    tag_163:\n      pop\n        /* \"contracts/ddddd.sol\":1625:1630  _name */\n      dup10\n        /* \"contracts/ddddd.sol\":1616:1617  u */\n      dup3\n        /* \"contracts/ddddd.sol\":1616:1622  u.name */\n      0x1\n      add\n        /* \"contracts/ddddd.sol\":1616:1630  u.name = _name */\n      swap1\n      dup1\n      mload\n      swap1\n      0x20\n      add\n      swap1\n      tag_164\n      swap3\n      swap2\n      swap1\n      jump\t// in(tag_153)\n    tag_164:\n      pop\n        /* \"contracts/ddddd.sol\":1651:1657  _phone */\n      dup9\n        /* \"contracts/ddddd.sol\":1641:1642  u */\n      dup3\n        /* \"contracts/ddddd.sol\":1641:1648  u.phone */\n      0x2\n      add\n        /* \"contracts/ddddd.sol\":1641:1657  u.phone = _phone */\n      swap1\n      dup1\n      mload\n      swap1\n      0x20\n      add\n      swap1\n      tag_165\n      swap3\n      swap2\n      swap1\n      jump\t// in(tag_153)\n    tag_165:\n      pop\n        /* \"contracts/ddddd.sol\":1679:1686  _gender */\n      dup8\n        /* \"contracts/ddddd.sol\":1668:1669  u */\n      dup3\n        /* \"contracts/ddddd.sol\":1668:1676  u.gender */\n      0x3\n      add\n        /* \"contracts/ddddd.sol\":1668:1686  u.gender = _gender */\n      swap1\n      dup1\n      mload\n      swap1\n      0x20\n      add\n      swap1\n      tag_166\n      swap3\n      swap2\n      swap1\n      jump\t// in(tag_153)\n    tag_166:\n      pop\n        /* \"contracts/ddddd.sol\":1705:1709  _dob */\n      dup7\n        /* \"contracts/ddddd.sol\":1697:1698  u */\n      dup3\n        /* \"contracts/ddddd.sol\":1697:1702  u.dob */\n      0x4\n      add\n        /* \"contracts/ddddd.sol\":1697:1709  u.dob = _dob */\n      swap1\n      dup1\n      mload\n      swap1\n      0x20\n      add\n      swap1\n      tag_167\n      swap3\n      swap2\n      swap1\n      jump\t// in(tag_153)\n    tag_167:\n      pop\n        /* \"contracts/ddddd.sol\":1729:1734  _addr */\n      dup6\n        /* \"contracts/ddddd.sol\":1720:1721  u */\n      dup3\n        /* \"contracts/ddddd.sol\":1720:1726  u.addr */\n      0x5\n      add\n        /* \"contracts/ddddd.sol\":1720:1734  u.addr = _addr */\n      swap1\n      dup1\n      mload\n      swap1\n      0x20\n      add\n      swap1\n      tag_168\n      swap3\n      swap2\n      swap1\n      jump\t// in(tag_153)\n    tag_168:\n      pop\n        /* \"contracts/ddddd.sol\":1755:1761  _email */\n      dup5\n        /* \"contracts/ddddd.sol\":1745:1746  u */\n      dup3\n        /* \"contracts/ddddd.sol\":1745:1752  u.email */\n      0x6\n      add\n        /* \"contracts/ddddd.sol\":1745:1761  u.email = _email */\n      swap1\n      dup1\n      mload\n      swap1\n      0x20\n      add\n      swap1\n      tag_169\n      swap3\n      swap2\n      swap1\n      jump\t// in(tag_153)\n    tag_169:\n      pop\n        /* \"contracts/ddddd.sol\":1788:1800  _nomineeName */\n      dup4\n        /* \"contracts/ddddd.sol\":1772:1773  u */\n      dup3\n        /* \"contracts/ddddd.sol\":1772:1785  u.nomineeName */\n      0x7\n      add\n        /* \"contracts/ddddd.sol\":1772:1800  u.nomineeName = _nomineeName */\n      swap1\n      dup1\n      mload\n      swap1\n      0x20\n      add\n      swap1\n      tag_170\n      swap3\n      swap2\n      swap1\n      jump\t// in(tag_153)\n    tag_170:\n      pop\n        /* \"contracts/ddddd.sol\":1830:1845  _nomineeContact */\n      dup3\n        /* \"contracts/ddddd.sol\":1811:1812  u */\n      dup3\n        /* \"contracts/ddddd.sol\":1811:1827  u.nomineeContact */\n      0x8\n      add\n        /* \"contracts/ddddd.sol\":1811:1845  u.nomineeContact = _nomineeContact */\n      swap1\n      dup1\n      mload\n      swap1\n      0x20\n      add\n      swap1\n      tag_171\n      swap3\n      swap2\n      swap1\n      jump\t// in(tag_153)\n    tag_171:\n      pop\n        /* \"contracts/ddddd.sol\":1869:1879  msg.sender */\n      caller\n        /* \"contracts/ddddd.sol\":1856:1857  u */\n      dup3\n        /* \"contracts/ddddd.sol\":1856:1866  u.eAddress */\n      0x9\n      add\n      0x0\n        /* \"contracts/ddddd.sol\":1856:1879  u.eAddress = msg.sender */\n      0x100\n      exp\n      dup2\n      sload\n      dup2\n      0xffffffffffffffffffffffffffffffffffffffff\n      mul\n      not\n      and\n      swap1\n      dup4\n      0xffffffffffffffffffffffffffffffffffffffff\n      and\n      mul\n      or\n      swap1\n      sstore\n      pop\n        /* \"contracts/ddddd.sol\":1899:1914  block.timestamp */\n      timestamp\n        /* \"contracts/ddddd.sol\":1890:1891  u */\n      dup3\n        /* \"contracts/ddddd.sol\":1890:1896  u.date */\n      0xa\n      add\n        /* \"contracts/ddddd.sol\":1890:1914  u.date = block.timestamp */\n      dup2\n      swap1\n      sstore\n      pop\n        /* \"contracts/ddddd.sol\":1935:1943  userList */\n      0x1\n        /* \"contracts/ddddd.sol\":1949:1959  msg.sender */\n      caller\n        /* \"contracts/ddddd.sol\":1935:1960  userList.push(msg.sender) */\n      swap1\n      dup1\n        /* \"--CODEGEN--\":39:40   */\n      0x1\n        /* \"--CODEGEN--\":33:36   */\n      dup2\n        /* \"--CODEGEN--\":27:37   */\n      sload\n        /* \"--CODEGEN--\":23:41   */\n      add\n        /* \"--CODEGEN--\":57:67   */\n      dup1\n        /* \"--CODEGEN--\":52:55   */\n      dup3\n        /* \"--CODEGEN--\":45:68   */\n      sstore\n        /* \"--CODEGEN--\":79:89   */\n      dup1\n        /* \"--CODEGEN--\":72:89   */\n      swap2\n      pop\n        /* \"--CODEGEN--\":0:93   */\n      pop\n        /* \"contracts/ddddd.sol\":1935:1960  userList.push(msg.sender) */\n      swap1\n      0x1\n      dup3\n      sub\n      swap1\n      0x0\n      mstore\n      keccak256(0x0, 0x20)\n      add\n      0x0\n      swap1\n      swap2\n      swap3\n      swap1\n      swap2\n      swap1\n      swap2\n      0x100\n      exp\n      dup2\n      sload\n      dup2\n      0xffffffffffffffffffffffffffffffffffffffff\n      mul\n      not\n      and\n      swap1\n      dup4\n      0xffffffffffffffffffffffffffffffffffffffff\n      and\n      mul\n      or\n      swap1\n      sstore\n      pop\n      pop\n        /* \"contracts/ddddd.sol\":1992:1996  true */\n      0x1\n        /* \"contracts/ddddd.sol\":1971:1977  isUser */\n      0x6\n        /* \"contracts/ddddd.sol\":1971:1989  isUser[msg.sender] */\n      0x0\n        /* \"contracts/ddddd.sol\":1978:1988  msg.sender */\n      caller\n        /* \"contracts/ddddd.sol\":1971:1989  isUser[msg.sender] */\n      0xffffffffffffffffffffffffffffffffffffffff\n      and\n      0xffffffffffffffffffffffffffffffffffffffff\n      and\n      dup2\n      mstore\n      0x20\n      add\n      swap1\n      dup2\n      mstore\n      0x20\n      add\n      0x0\n      keccak256\n      0x0\n        /* \"contracts/ddddd.sol\":1971:1996  isUser[msg.sender] = true */\n      0x100\n      exp\n      dup2\n      sload\n      dup2\n      0xff\n      mul\n      not\n      and\n      swap1\n      dup4\n      iszero\n      iszero\n      mul\n      or\n      swap1\n      sstore\n      pop\n        /* \"contracts/ddddd.sol\":2044:2048  true */\n      0x1\n        /* \"contracts/ddddd.sol\":2007:2017  isApproved */\n      0x5\n        /* \"contracts/ddddd.sol\":2007:2029  isApproved[msg.sender] */\n      0x0\n        /* \"contracts/ddddd.sol\":2018:2028  msg.sender */\n      caller\n        /* \"contracts/ddddd.sol\":2007:2029  isApproved[msg.sender] */\n      0xffffffffffffffffffffffffffffffffffffffff\n      and\n      0xffffffffffffffffffffffffffffffffffffffff\n      and\n      dup2\n      mstore\n      0x20\n      add\n      swap1\n      dup2\n      mstore\n      0x20\n      add\n      0x0\n      keccak256\n        /* \"contracts/ddddd.sol\":2007:2041  isApproved[msg.sender][msg.sender] */\n      0x0\n        /* \"contracts/ddddd.sol\":2030:2040  msg.sender */\n      caller\n        /* \"contracts/ddddd.sol\":2007:2041  isApproved[msg.sender][msg.sender] */\n      0xffffffffffffffffffffffffffffffffffffffff\n      and\n      0xffffffffffffffffffffffffffffffffffffffff\n      and\n      dup2\n      mstore\n      0x20\n      add\n      swap1\n      dup2\n      mstore\n      0x20\n      add\n      0x0\n      keccak256\n      0x0\n        /* \"contracts/ddddd.sol\":2007:2048  isApproved[msg.sender][msg.sender] = true */\n      0x100\n      exp\n      dup2\n      sload\n      dup2\n      0xff\n      mul\n      not\n      and\n      swap1\n      dup4\n      iszero\n      iszero\n      mul\n      or\n      swap1\n      sstore\n      pop\n        /* \"contracts/ddddd.sol\":2059:2068  userCount */\n      0x8\n      0x0\n        /* \"contracts/ddddd.sol\":2059:2070  userCount++ */\n      dup2\n      sload\n      dup1\n      swap3\n      swap2\n      swap1\n      0x1\n      add\n      swap2\n      swap1\n      pop\n      sstore\n      pop\n        /* \"contracts/ddddd.sol\":2113:2121  userData */\n      dup1\n        /* \"contracts/ddddd.sol\":2127:2128  u */\n      dup3\n        /* \"contracts/ddddd.sol\":2127:2134  u.uaeId */\n      0x0\n      add\n        /* \"contracts/ddddd.sol\":2113:2135  userData.push(u.uaeId) */\n      swap1\n      dup1\n        /* \"--CODEGEN--\":39:40   */\n      0x1\n        /* \"--CODEGEN--\":33:36   */\n      dup2\n        /* \"--CODEGEN--\":27:37   */\n      sload\n        /* \"--CODEGEN--\":23:41   */\n      add\n        /* \"--CODEGEN--\":57:67   */\n      dup1\n        /* \"--CODEGEN--\":52:55   */\n      dup3\n        /* \"--CODEGEN--\":45:68   */\n      sstore\n        /* \"--CODEGEN--\":79:89   */\n      dup1\n        /* \"--CODEGEN--\":72:89   */\n      swap2\n      pop\n        /* \"--CODEGEN--\":0:93   */\n      pop\n        /* \"contracts/ddddd.sol\":2113:2135  userData.push(u.uaeId) */\n      swap1\n      0x1\n      dup3\n      sub\n      swap1\n      0x0\n      mstore\n      keccak256(0x0, 0x20)\n      add\n      0x0\n      swap1\n      swap2\n      swap3\n      swap1\n      swap2\n      swap1\n      swap2\n      pop\n      swap1\n      dup1\n      sload\n      0x1\n      dup2\n      0x1\n      and\n      iszero\n      0x100\n      mul\n      sub\n      and\n      0x2\n      swap1\n      div\n      tag_174\n      swap3\n      swap2\n      swap1\n      jump\t// in(tag_175)\n    tag_174:\n      pop\n      pop\n        /* \"contracts/ddddd.sol\":2146:2154  userData */\n      dup1\n        /* \"contracts/ddddd.sol\":2160:2161  u */\n      dup3\n        /* \"contracts/ddddd.sol\":2160:2166  u.name */\n      0x1\n      add\n        /* \"contracts/ddddd.sol\":2146:2167  userData.push(u.name) */\n      swap1\n      dup1\n        /* \"--CODEGEN--\":39:40   */\n      0x1\n        /* \"--CODEGEN--\":33:36   */\n      dup2\n        /* \"--CODEGEN--\":27:37   */\n      sload\n        /* \"--CODEGEN--\":23:41   */\n      add\n        /* \"--CODEGEN--\":57:67   */\n      dup1\n        /* \"--CODEGEN--\":52:55   */\n      dup3\n        /* \"--CODEGEN--\":45:68   */\n      sstore\n        /* \"--CODEGEN--\":79:89   */\n      dup1\n        /* \"--CODEGEN--\":72:89   */\n      swap2\n      pop\n        /* \"--CODEGEN--\":0:93   */\n      pop\n        /* \"contracts/ddddd.sol\":2146:2167  userData.push(u.name) */\n      swap1\n      0x1\n      dup3\n      sub\n      swap1\n      0x0\n      mstore\n      keccak256(0x0, 0x20)\n      add\n      0x0\n      swap1\n      swap2\n      swap3\n      swap1\n      swap2\n      swap1\n      swap2\n      pop\n      swap1\n      dup1\n      sload\n      0x1\n      dup2\n      0x1\n      and\n      iszero\n      0x100\n      mul\n      sub\n      and\n      0x2\n      swap1\n      div\n      tag_177\n      swap3\n      swap2\n      swap1\n      jump\t// in(tag_175)\n    tag_177:\n      pop\n      pop\n        /* \"contracts/ddddd.sol\":2178:2186  userData */\n      dup1\n        /* \"contracts/ddddd.sol\":2192:2193  u */\n      dup3\n        /* \"contracts/ddddd.sol\":2192:2199  u.phone */\n      0x2\n      add\n        /* \"contracts/ddddd.sol\":2178:2200  userData.push(u.phone) */\n      swap1\n      dup1\n        /* \"--CODEGEN--\":39:40   */\n      0x1\n        /* \"--CODEGEN--\":33:36   */\n      dup2\n        /* \"--CODEGEN--\":27:37   */\n      sload\n        /* \"--CODEGEN--\":23:41   */\n      add\n        /* \"--CODEGEN--\":57:67   */\n      dup1\n        /* \"--CODEGEN--\":52:55   */\n      dup3\n        /* \"--CODEGEN--\":45:68   */\n      sstore\n        /* \"--CODEGEN--\":79:89   */\n      dup1\n        /* \"--CODEGEN--\":72:89   */\n      swap2\n      pop\n        /* \"--CODEGEN--\":0:93   */\n      pop\n        /* \"contracts/ddddd.sol\":2178:2200  userData.push(u.phone) */\n      swap1\n      0x1\n      dup3\n      sub\n      swap1\n      0x0\n      mstore\n      keccak256(0x0, 0x20)\n      add\n      0x0\n      swap1\n      swap2\n      swap3\n      swap1\n      swap2\n      swap1\n      swap2\n      pop\n      swap1\n      dup1\n      sload\n      0x1\n      dup2\n      0x1\n      and\n      iszero\n      0x100\n      mul\n      sub\n      and\n      0x2\n      swap1\n      div\n      tag_179\n      swap3\n      swap2\n      swap1\n      jump\t// in(tag_175)\n    tag_179:\n      pop\n      pop\n        /* \"contracts/ddddd.sol\":2211:2219  userData */\n      dup1\n        /* \"contracts/ddddd.sol\":2225:2226  u */\n      dup3\n        /* \"contracts/ddddd.sol\":2225:2233  u.gender */\n      0x3\n      add\n        /* \"contracts/ddddd.sol\":2211:2234  userData.push(u.gender) */\n      swap1\n      dup1\n        /* \"--CODEGEN--\":39:40   */\n      0x1\n        /* \"--CODEGEN--\":33:36   */\n      dup2\n        /* \"--CODEGEN--\":27:37   */\n      sload\n        /* \"--CODEGEN--\":23:41   */\n      add\n        /* \"--CODEGEN--\":57:67   */\n      dup1\n        /* \"--CODEGEN--\":52:55   */\n      dup3\n        /* \"--CODEGEN--\":45:68   */\n      sstore\n        /* \"--CODEGEN--\":79:89   */\n      dup1\n        /* \"--CODEGEN--\":72:89   */\n      swap2\n      pop\n        /* \"--CODEGEN--\":0:93   */\n      pop\n        /* \"contracts/ddddd.sol\":2211:2234  userData.push(u.gender) */\n      swap1\n      0x1\n      dup3\n      sub\n      swap1\n      0x0\n      mstore\n      keccak256(0x0, 0x20)\n      add\n      0x0\n      swap1\n      swap2\n      swap3\n      swap1\n      swap2\n      swap1\n      swap2\n      pop\n      swap1\n      dup1\n      sload\n      0x1\n      dup2\n      0x1\n      and\n      iszero\n      0x100\n      mul\n      sub\n      and\n      0x2\n      swap1\n      div\n      tag_181\n      swap3\n      swap2\n      swap1\n      jump\t// in(tag_175)\n    tag_181:\n      pop\n      pop\n        /* \"contracts/ddddd.sol\":2245:2253  userData */\n      dup1\n        /* \"contracts/ddddd.sol\":2259:2260  u */\n      dup3\n        /* \"contracts/ddddd.sol\":2259:2264  u.dob */\n      0x4\n      add\n        /* \"contracts/ddddd.sol\":2245:2265  userData.push(u.dob) */\n      swap1\n      dup1\n        /* \"--CODEGEN--\":39:40   */\n      0x1\n        /* \"--CODEGEN--\":33:36   */\n      dup2\n        /* \"--CODEGEN--\":27:37   */\n      sload\n        /* \"--CODEGEN--\":23:41   */\n      add\n        /* \"--CODEGEN--\":57:67   */\n      dup1\n        /* \"--CODEGEN--\":52:55   */\n      dup3\n        /* \"--CODEGEN--\":45:68   */\n      sstore\n        /* \"--CODEGEN--\":79:89   */\n      dup1\n        /* \"--CODEGEN--\":72:89   */\n      swap2\n      pop\n        /* \"--CODEGEN--\":0:93   */\n      pop\n        /* \"contracts/ddddd.sol\":2245:2265  userData.push(u.dob) */\n      swap1\n      0x1\n      dup3\n      sub\n      swap1\n      0x0\n      mstore\n      keccak256(0x0, 0x20)\n      add\n      0x0\n      swap1\n      swap2\n      swap3\n      swap1\n      swap2\n      swap1\n      swap2\n      pop\n      swap1\n      dup1\n      sload\n      0x1\n      dup2\n      0x1\n      and\n      iszero\n      0x100\n      mul\n      sub\n      and\n      0x2\n      swap1\n      div\n      tag_183\n      swap3\n      swap2\n      swap1\n      jump\t// in(tag_175)\n    tag_183:\n      pop\n      pop\n        /* \"contracts/ddddd.sol\":2276:2284  userData */\n      dup1\n        /* \"contracts/ddddd.sol\":2290:2291  u */\n      dup3\n        /* \"contracts/ddddd.sol\":2290:2296  u.addr */\n      0x5\n      add\n        /* \"contracts/ddddd.sol\":2276:2297  userData.push(u.addr) */\n      swap1\n      dup1\n        /* \"--CODEGEN--\":39:40   */\n      0x1\n        /* \"--CODEGEN--\":33:36   */\n      dup2\n        /* \"--CODEGEN--\":27:37   */\n      sload\n        /* \"--CODEGEN--\":23:41   */\n      add\n        /* \"--CODEGEN--\":57:67   */\n      dup1\n        /* \"--CODEGEN--\":52:55   */\n      dup3\n        /* \"--CODEGEN--\":45:68   */\n      sstore\n        /* \"--CODEGEN--\":79:89   */\n      dup1\n        /* \"--CODEGEN--\":72:89   */\n      swap2\n      pop\n        /* \"--CODEGEN--\":0:93   */\n      pop\n        /* \"contracts/ddddd.sol\":2276:2297  userData.push(u.addr) */\n      swap1\n      0x1\n      dup3\n      sub\n      swap1\n      0x0\n      mstore\n      keccak256(0x0, 0x20)\n      add\n      0x0\n      swap1\n      swap2\n      swap3\n      swap1\n      swap2\n      swap1\n      swap2\n      pop\n      swap1\n      dup1\n      sload\n      0x1\n      dup2\n      0x1\n      and\n      iszero\n      0x100\n      mul\n      sub\n      and\n      0x2\n      swap1\n      div\n      tag_185\n      swap3\n      swap2\n      swap1\n      jump\t// in(tag_175)\n    tag_185:\n      pop\n      pop\n        /* \"contracts/ddddd.sol\":2308:2316  userData */\n      dup1\n        /* \"contracts/ddddd.sol\":2322:2323  u */\n      dup3\n        /* \"contracts/ddddd.sol\":2322:2329  u.email */\n      0x6\n      add\n        /* \"contracts/ddddd.sol\":2308:2330  userData.push(u.email) */\n      swap1\n      dup1\n        /* \"--CODEGEN--\":39:40   */\n      0x1\n        /* \"--CODEGEN--\":33:36   */\n      dup2\n        /* \"--CODEGEN--\":27:37   */\n      sload\n        /* \"--CODEGEN--\":23:41   */\n      add\n        /* \"--CODEGEN--\":57:67   */\n      dup1\n        /* \"--CODEGEN--\":52:55   */\n      dup3\n        /* \"--CODEGEN--\":45:68   */\n      sstore\n        /* \"--CODEGEN--\":79:89   */\n      dup1\n        /* \"--CODEGEN--\":72:89   */\n      swap2\n      pop\n        /* \"--CODEGEN--\":0:93   */\n      pop\n        /* \"contracts/ddddd.sol\":2308:2330  userData.push(u.email) */\n      swap1\n      0x1\n      dup3\n      sub\n      swap1\n      0x0\n      mstore\n      keccak256(0x0, 0x20)\n      add\n      0x0\n      swap1\n      swap2\n      swap3\n      swap1\n      swap2\n      swap1\n      swap2\n      pop\n      swap1\n      dup1\n      sload\n      0x1\n      dup2\n      0x1\n      and\n      iszero\n      0x100\n      mul\n      sub\n      and\n      0x2\n      swap1\n      div\n      tag_187\n      swap3\n      swap2\n      swap1\n      jump\t// in(tag_175)\n    tag_187:\n      pop\n      pop\n        /* \"contracts/ddddd.sol\":1314:2340  function userRegistration(string _uaeId, string _name, string _phone, string _gender, string _dob, string _addr, string _email, string _nomineeName, string _nomineeContact) public {\r... */\n      pop\n      pop\n      pop\n      pop\n      pop\n      pop\n      pop\n      pop\n      pop\n      pop\n      pop\n      jump\t// out\n        /* \"contracts/ddddd.sol\":4061:4242  function givePermission(address _address) public returns(bool success) {\r... */\n    tag_70:\n        /* \"contracts/ddddd.sol\":4118:4130  bool success */\n      0x0\n        /* \"contracts/ddddd.sol\":4178:4182  true */\n      0x1\n        /* \"contracts/ddddd.sol\":4143:4153  isApproved */\n      0x5\n        /* \"contracts/ddddd.sol\":4143:4165  isApproved[msg.sender] */\n      0x0\n        /* \"contracts/ddddd.sol\":4154:4164  msg.sender */\n      caller\n        /* \"contracts/ddddd.sol\":4143:4165  isApproved[msg.sender] */\n      0xffffffffffffffffffffffffffffffffffffffff\n      and\n      0xffffffffffffffffffffffffffffffffffffffff\n      and\n      dup2\n      mstore\n      0x20\n      add\n      swap1\n      dup2\n      mstore\n      0x20\n      add\n      0x0\n      keccak256\n        /* \"contracts/ddddd.sol\":4143:4175  isApproved[msg.sender][_address] */\n      0x0\n        /* \"contracts/ddddd.sol\":4166:4174  _address */\n      dup5\n        /* \"contracts/ddddd.sol\":4143:4175  isApproved[msg.sender][_address] */\n      0xffffffffffffffffffffffffffffffffffffffff\n      and\n      0xffffffffffffffffffffffffffffffffffffffff\n      and\n      dup2\n      mstore\n      0x20\n      add\n      swap1\n      dup2\n      mstore\n      0x20\n      add\n      0x0\n      keccak256\n      0x0\n        /* \"contracts/ddddd.sol\":4143:4182  isApproved[msg.sender][_address] = true */\n      0x100\n      exp\n      dup2\n      sload\n      dup2\n      0xff\n      mul\n      not\n      and\n      swap1\n      dup4\n      iszero\n      iszero\n      mul\n      or\n      swap1\n      sstore\n      pop\n        /* \"contracts/ddddd.sol\":4193:4210  permissionCounter */\n      0xa\n      0x0\n        /* \"contracts/ddddd.sol\":4193:4212  permissionCounter++ */\n      dup2\n      sload\n      dup1\n      swap3\n      swap2\n      swap1\n      0x1\n      add\n      swap2\n      swap1\n      pop\n      sstore\n      pop\n        /* \"contracts/ddddd.sol\":4230:4234  true */\n      0x1\n        /* \"contracts/ddddd.sol\":4223:4234  return true */\n      swap1\n      pop\n        /* \"contracts/ddddd.sol\":4061:4242  function givePermission(address _address) public returns(bool success) {\r... */\n      swap2\n      swap1\n      pop\n      jump\t// out\n        /* \"contracts/ddddd.sol\":2364:2940  function editUser(address _user, string _uaeId, string _name, string _phone, string _gender, string _dob, string _addr, string _email, string _nomineeName, string _nomineeContact) public {\r... */\n    tag_76:\n        /* \"contracts/ddddd.sol\":2605:2610  var u */\n      0x0\n        /* \"contracts/ddddd.sol\":2584:2593  mohAdress */\n      0xb\n      0x0\n      swap1\n      sload\n      swap1\n      0x100\n      exp\n      swap1\n      div\n      0xffffffffffffffffffffffffffffffffffffffff\n      and\n        /* \"contracts/ddddd.sol\":2570:2593  msg.sender == mohAdress */\n      0xffffffffffffffffffffffffffffffffffffffff\n      and\n        /* \"contracts/ddddd.sol\":2570:2580  msg.sender */\n      caller\n        /* \"contracts/ddddd.sol\":2570:2593  msg.sender == mohAdress */\n      0xffffffffffffffffffffffffffffffffffffffff\n      and\n      eq\n        /* \"contracts/ddddd.sol\":2562:2594  require(msg.sender == mohAdress) */\n      iszero\n      iszero\n      tag_190\n      jumpi\n      0x0\n      dup1\n      revert\n    tag_190:\n        /* \"contracts/ddddd.sol\":2613:2617  user */\n      0x3\n        /* \"contracts/ddddd.sol\":2613:2624  user[_user] */\n      0x0\n        /* \"contracts/ddddd.sol\":2618:2623  _user */\n      dup13\n        /* \"contracts/ddddd.sol\":2613:2624  user[_user] */\n      0xffffffffffffffffffffffffffffffffffffffff\n      and\n      0xffffffffffffffffffffffffffffffffffffffff\n      and\n      dup2\n      mstore\n      0x20\n      add\n      swap1\n      dup2\n      mstore\n      0x20\n      add\n      0x0\n      keccak256\n        /* \"contracts/ddddd.sol\":2605:2624  var u = user[_user] */\n      swap1\n      pop\n        /* \"contracts/ddddd.sol\":2655:2661  _uaeId */\n      dup10\n        /* \"contracts/ddddd.sol\":2645:2646  u */\n      dup2\n        /* \"contracts/ddddd.sol\":2645:2652  u.uaeId */\n      0x0\n      add\n        /* \"contracts/ddddd.sol\":2645:2661  u.uaeId = _uaeId */\n      swap1\n      dup1\n      mload\n      swap1\n      0x20\n      add\n      swap1\n      tag_191\n      swap3\n      swap2\n      swap1\n      jump\t// in(tag_153)\n    tag_191:\n      pop\n        /* \"contracts/ddddd.sol\":2681:2686  _name */\n      dup9\n        /* \"contracts/ddddd.sol\":2672:2673  u */\n      dup2\n        /* \"contracts/ddddd.sol\":2672:2678  u.name */\n      0x1\n      add\n        /* \"contracts/ddddd.sol\":2672:2686  u.name = _name */\n      swap1\n      dup1\n      mload\n      swap1\n      0x20\n      add\n      swap1\n      tag_192\n      swap3\n      swap2\n      swap1\n      jump\t// in(tag_153)\n    tag_192:\n      pop\n        /* \"contracts/ddddd.sol\":2707:2713  _phone */\n      dup8\n        /* \"contracts/ddddd.sol\":2697:2698  u */\n      dup2\n        /* \"contracts/ddddd.sol\":2697:2704  u.phone */\n      0x2\n      add\n        /* \"contracts/ddddd.sol\":2697:2713  u.phone = _phone */\n      swap1\n      dup1\n      mload\n      swap1\n      0x20\n      add\n      swap1\n      tag_193\n      swap3\n      swap2\n      swap1\n      jump\t// in(tag_153)\n    tag_193:\n      pop\n        /* \"contracts/ddddd.sol\":2735:2742  _gender */\n      dup7\n        /* \"contracts/ddddd.sol\":2724:2725  u */\n      dup2\n        /* \"contracts/ddddd.sol\":2724:2732  u.gender */\n      0x3\n      add\n        /* \"contracts/ddddd.sol\":2724:2742  u.gender = _gender */\n      swap1\n      dup1\n      mload\n      swap1\n      0x20\n      add\n      swap1\n      tag_194\n      swap3\n      swap2\n      swap1\n      jump\t// in(tag_153)\n    tag_194:\n      pop\n        /* \"contracts/ddddd.sol\":2761:2765  _dob */\n      dup6\n        /* \"contracts/ddddd.sol\":2753:2754  u */\n      dup2\n        /* \"contracts/ddddd.sol\":2753:2758  u.dob */\n      0x4\n      add\n        /* \"contracts/ddddd.sol\":2753:2765  u.dob = _dob */\n      swap1\n      dup1\n      mload\n      swap1\n      0x20\n      add\n      swap1\n      tag_195\n      swap3\n      swap2\n      swap1\n      jump\t// in(tag_153)\n    tag_195:\n      pop\n        /* \"contracts/ddddd.sol\":2785:2790  _addr */\n      dup5\n        /* \"contracts/ddddd.sol\":2776:2777  u */\n      dup2\n        /* \"contracts/ddddd.sol\":2776:2782  u.addr */\n      0x5\n      add\n        /* \"contracts/ddddd.sol\":2776:2790  u.addr = _addr */\n      swap1\n      dup1\n      mload\n      swap1\n      0x20\n      add\n      swap1\n      tag_196\n      swap3\n      swap2\n      swap1\n      jump\t// in(tag_153)\n    tag_196:\n      pop\n        /* \"contracts/ddddd.sol\":2811:2817  _email */\n      dup4\n        /* \"contracts/ddddd.sol\":2801:2802  u */\n      dup2\n        /* \"contracts/ddddd.sol\":2801:2808  u.email */\n      0x6\n      add\n        /* \"contracts/ddddd.sol\":2801:2817  u.email = _email */\n      swap1\n      dup1\n      mload\n      swap1\n      0x20\n      add\n      swap1\n      tag_197\n      swap3\n      swap2\n      swap1\n      jump\t// in(tag_153)\n    tag_197:\n      pop\n        /* \"contracts/ddddd.sol\":2844:2856  _nomineeName */\n      dup3\n        /* \"contracts/ddddd.sol\":2828:2829  u */\n      dup2\n        /* \"contracts/ddddd.sol\":2828:2841  u.nomineeName */\n      0x7\n      add\n        /* \"contracts/ddddd.sol\":2828:2856  u.nomineeName = _nomineeName */\n      swap1\n      dup1\n      mload\n      swap1\n      0x20\n      add\n      swap1\n      tag_198\n      swap3\n      swap2\n      swap1\n      jump\t// in(tag_153)\n    tag_198:\n      pop\n        /* \"contracts/ddddd.sol\":2886:2901  _nomineeContact */\n      dup2\n        /* \"contracts/ddddd.sol\":2867:2868  u */\n      dup2\n        /* \"contracts/ddddd.sol\":2867:2883  u.nomineeContact */\n      0x8\n      add\n        /* \"contracts/ddddd.sol\":2867:2901  u.nomineeContact = _nomineeContact */\n      swap1\n      dup1\n      mload\n      swap1\n      0x20\n      add\n      swap1\n      tag_199\n      swap3\n      swap2\n      swap1\n      jump\t// in(tag_153)\n    tag_199:\n      pop\n        /* \"contracts/ddddd.sol\":2925:2930  _user */\n      dup11\n        /* \"contracts/ddddd.sol\":2912:2913  u */\n      dup2\n        /* \"contracts/ddddd.sol\":2912:2922  u.eAddress */\n      0x9\n      add\n      0x0\n        /* \"contracts/ddddd.sol\":2912:2930  u.eAddress = _user */\n      0x100\n      exp\n      dup2\n      sload\n      dup2\n      0xffffffffffffffffffffffffffffffffffffffff\n      mul\n      not\n      and\n      swap1\n      dup4\n      0xffffffffffffffffffffffffffffffffffffffff\n      and\n      mul\n      or\n      swap1\n      sstore\n      pop\n        /* \"contracts/ddddd.sol\":2364:2940  function editUser(address _user, string _uaeId, string _name, string _phone, string _gender, string _dob, string _addr, string _email, string _nomineeName, string _nomineeContact) public {\r... */\n      pop\n      pop\n      pop\n      pop\n      pop\n      pop\n      pop\n      pop\n      pop\n      pop\n      pop\n      jump\t// out\n        /* \"contracts/ddddd.sol\":1072:1102  uint256 public doctorCount = 0 */\n    tag_79:\n      sload(0x9)\n      dup2\n      jump\t// out\n        /* \"contracts/ddddd.sol\":5675:5767  function getDoctorCount() public view returns(uint256) {\r... */\n    tag_83:\n        /* \"contracts/ddddd.sol\":5721:5728  uint256 */\n      0x0\n        /* \"contracts/ddddd.sol\":5748:5759  doctorCount */\n      sload(0x9)\n        /* \"contracts/ddddd.sol\":5741:5759  return doctorCount */\n      swap1\n      pop\n        /* \"contracts/ddddd.sol\":5675:5767  function getDoctorCount() public view returns(uint256) {\r... */\n      swap1\n      jump\t// out\n        /* \"contracts/ddddd.sol\":2948:3561  function setDoctor(string _uaeId, string _name, string _phone, string _gender, string _dob, string _qualification, string _major) public {\r... */\n    tag_89:\n        /* \"contracts/ddddd.sol\":3137:3142  var d */\n      0x0\n        /* \"contracts/ddddd.sol\":3105:3113  isDoctor */\n      0x7\n        /* \"contracts/ddddd.sol\":3105:3125  isDoctor[msg.sender] */\n      0x0\n        /* \"contracts/ddddd.sol\":3114:3124  msg.sender */\n      caller\n        /* \"contracts/ddddd.sol\":3105:3125  isDoctor[msg.sender] */\n      0xffffffffffffffffffffffffffffffffffffffff\n      and\n      0xffffffffffffffffffffffffffffffffffffffff\n      and\n      dup2\n      mstore\n      0x20\n      add\n      swap1\n      dup2\n      mstore\n      0x20\n      add\n      0x0\n      keccak256\n      0x0\n      swap1\n      sload\n      swap1\n      0x100\n      exp\n      swap1\n      div\n      0xff\n      and\n        /* \"contracts/ddddd.sol\":3104:3125  !isDoctor[msg.sender] */\n      iszero\n        /* \"contracts/ddddd.sol\":3096:3126  require(!isDoctor[msg.sender]) */\n      iszero\n      iszero\n      tag_202\n      jumpi\n      0x0\n      dup1\n      revert\n    tag_202:\n        /* \"contracts/ddddd.sol\":3145:3151  doctor */\n      0x4\n        /* \"contracts/ddddd.sol\":3145:3163  doctor[msg.sender] */\n      0x0\n        /* \"contracts/ddddd.sol\":3152:3162  msg.sender */\n      caller\n        /* \"contracts/ddddd.sol\":3145:3163  doctor[msg.sender] */\n      0xffffffffffffffffffffffffffffffffffffffff\n      and\n      0xffffffffffffffffffffffffffffffffffffffff\n      and\n      dup2\n      mstore\n      0x20\n      add\n      swap1\n      dup2\n      mstore\n      0x20\n      add\n      0x0\n      keccak256\n        /* \"contracts/ddddd.sol\":3137:3163  var d = doctor[msg.sender] */\n      swap1\n      pop\n        /* \"contracts/ddddd.sol\":3194:3200  _uaeId */\n      dup8\n        /* \"contracts/ddddd.sol\":3184:3185  d */\n      dup2\n        /* \"contracts/ddddd.sol\":3184:3191  d.uaeId */\n      0x0\n      add\n        /* \"contracts/ddddd.sol\":3184:3200  d.uaeId = _uaeId */\n      swap1\n      dup1\n      mload\n      swap1\n      0x20\n      add\n      swap1\n      tag_203\n      swap3\n      swap2\n      swap1\n      jump\t// in(tag_153)\n    tag_203:\n      pop\n        /* \"contracts/ddddd.sol\":3220:3225  _name */\n      dup7\n        /* \"contracts/ddddd.sol\":3211:3212  d */\n      dup2\n        /* \"contracts/ddddd.sol\":3211:3217  d.name */\n      0x1\n      add\n        /* \"contracts/ddddd.sol\":3211:3225  d.name = _name */\n      swap1\n      dup1\n      mload\n      swap1\n      0x20\n      add\n      swap1\n      tag_204\n      swap3\n      swap2\n      swap1\n      jump\t// in(tag_153)\n    tag_204:\n      pop\n        /* \"contracts/ddddd.sol\":3246:3252  _phone */\n      dup6\n        /* \"contracts/ddddd.sol\":3236:3237  d */\n      dup2\n        /* \"contracts/ddddd.sol\":3236:3243  d.phone */\n      0x2\n      add\n        /* \"contracts/ddddd.sol\":3236:3252  d.phone = _phone */\n      swap1\n      dup1\n      mload\n      swap1\n      0x20\n      add\n      swap1\n      tag_205\n      swap3\n      swap2\n      swap1\n      jump\t// in(tag_153)\n    tag_205:\n      pop\n        /* \"contracts/ddddd.sol\":3274:3281  _gender */\n      dup5\n        /* \"contracts/ddddd.sol\":3263:3264  d */\n      dup2\n        /* \"contracts/ddddd.sol\":3263:3271  d.gender */\n      0x3\n      add\n        /* \"contracts/ddddd.sol\":3263:3281  d.gender = _gender */\n      swap1\n      dup1\n      mload\n      swap1\n      0x20\n      add\n      swap1\n      tag_206\n      swap3\n      swap2\n      swap1\n      jump\t// in(tag_153)\n    tag_206:\n      pop\n        /* \"contracts/ddddd.sol\":3300:3304  _dob */\n      dup4\n        /* \"contracts/ddddd.sol\":3292:3293  d */\n      dup2\n        /* \"contracts/ddddd.sol\":3292:3297  d.dob */\n      0x4\n      add\n        /* \"contracts/ddddd.sol\":3292:3304  d.dob = _dob */\n      swap1\n      dup1\n      mload\n      swap1\n      0x20\n      add\n      swap1\n      tag_207\n      swap3\n      swap2\n      swap1\n      jump\t// in(tag_153)\n    tag_207:\n      pop\n        /* \"contracts/ddddd.sol\":3333:3347  _qualification */\n      dup3\n        /* \"contracts/ddddd.sol\":3315:3316  d */\n      dup2\n        /* \"contracts/ddddd.sol\":3315:3330  d.qualification */\n      0x7\n      add\n        /* \"contracts/ddddd.sol\":3315:3347  d.qualification = _qualification */\n      swap1\n      dup1\n      mload\n      swap1\n      0x20\n      add\n      swap1\n      tag_208\n      swap3\n      swap2\n      swap1\n      jump\t// in(tag_153)\n    tag_208:\n      pop\n        /* \"contracts/ddddd.sol\":3368:3374  _major */\n      dup2\n        /* \"contracts/ddddd.sol\":3358:3359  d */\n      dup2\n        /* \"contracts/ddddd.sol\":3358:3365  d.major */\n      0x8\n      add\n        /* \"contracts/ddddd.sol\":3358:3374  d.major = _major */\n      swap1\n      dup1\n      mload\n      swap1\n      0x20\n      add\n      swap1\n      tag_209\n      swap3\n      swap2\n      swap1\n      jump\t// in(tag_153)\n    tag_209:\n      pop\n        /* \"contracts/ddddd.sol\":3398:3408  msg.sender */\n      caller\n        /* \"contracts/ddddd.sol\":3385:3386  d */\n      dup2\n        /* \"contracts/ddddd.sol\":3385:3395  d.eAddress */\n      0x9\n      add\n      0x0\n        /* \"contracts/ddddd.sol\":3385:3408  d.eAddress = msg.sender */\n      0x100\n      exp\n      dup2\n      sload\n      dup2\n      0xffffffffffffffffffffffffffffffffffffffff\n      mul\n      not\n      and\n      swap1\n      dup4\n      0xffffffffffffffffffffffffffffffffffffffff\n      and\n      mul\n      or\n      swap1\n      sstore\n      pop\n        /* \"contracts/ddddd.sol\":3428:3443  block.timestamp */\n      timestamp\n        /* \"contracts/ddddd.sol\":3419:3420  d */\n      dup2\n        /* \"contracts/ddddd.sol\":3419:3425  d.date */\n      0xa\n      add\n        /* \"contracts/ddddd.sol\":3419:3443  d.date = block.timestamp */\n      dup2\n      swap1\n      sstore\n      pop\n        /* \"contracts/ddddd.sol\":3464:3474  doctorList */\n      0x2\n        /* \"contracts/ddddd.sol\":3480:3490  msg.sender */\n      caller\n        /* \"contracts/ddddd.sol\":3464:3491  doctorList.push(msg.sender) */\n      swap1\n      dup1\n        /* \"--CODEGEN--\":39:40   */\n      0x1\n        /* \"--CODEGEN--\":33:36   */\n      dup2\n        /* \"--CODEGEN--\":27:37   */\n      sload\n        /* \"--CODEGEN--\":23:41   */\n      add\n        /* \"--CODEGEN--\":57:67   */\n      dup1\n        /* \"--CODEGEN--\":52:55   */\n      dup3\n        /* \"--CODEGEN--\":45:68   */\n      sstore\n        /* \"--CODEGEN--\":79:89   */\n      dup1\n        /* \"--CODEGEN--\":72:89   */\n      swap2\n      pop\n        /* \"--CODEGEN--\":0:93   */\n      pop\n        /* \"contracts/ddddd.sol\":3464:3491  doctorList.push(msg.sender) */\n      swap1\n      0x1\n      dup3\n      sub\n      swap1\n      0x0\n      mstore\n      keccak256(0x0, 0x20)\n      add\n      0x0\n      swap1\n      swap2\n      swap3\n      swap1\n      swap2\n      swap1\n      swap2\n      0x100\n      exp\n      dup2\n      sload\n      dup2\n      0xffffffffffffffffffffffffffffffffffffffff\n      mul\n      not\n      and\n      swap1\n      dup4\n      0xffffffffffffffffffffffffffffffffffffffff\n      and\n      mul\n      or\n      swap1\n      sstore\n      pop\n      pop\n        /* \"contracts/ddddd.sol\":3525:3529  true */\n      0x1\n        /* \"contracts/ddddd.sol\":3502:3510  isDoctor */\n      0x7\n        /* \"contracts/ddddd.sol\":3502:3522  isDoctor[msg.sender] */\n      0x0\n        /* \"contracts/ddddd.sol\":3511:3521  msg.sender */\n      caller\n        /* \"contracts/ddddd.sol\":3502:3522  isDoctor[msg.sender] */\n      0xffffffffffffffffffffffffffffffffffffffff\n      and\n      0xffffffffffffffffffffffffffffffffffffffff\n      and\n      dup2\n      mstore\n      0x20\n      add\n      swap1\n      dup2\n      mstore\n      0x20\n      add\n      0x0\n      keccak256\n      0x0\n        /* \"contracts/ddddd.sol\":3502:3529  isDoctor[msg.sender] = true */\n      0x100\n      exp\n      dup2\n      sload\n      dup2\n      0xff\n      mul\n      not\n      and\n      swap1\n      dup4\n      iszero\n      iszero\n      mul\n      or\n      swap1\n      sstore\n      pop\n        /* \"contracts/ddddd.sol\":3540:3551  doctorCount */\n      0x9\n      0x0\n        /* \"contracts/ddddd.sol\":3540:3553  doctorCount++ */\n      dup2\n      sload\n      dup1\n      swap3\n      swap2\n      swap1\n      0x1\n      add\n      swap2\n      swap1\n      pop\n      sstore\n      pop\n        /* \"contracts/ddddd.sol\":2948:3561  function setDoctor(string _uaeId, string _name, string _phone, string _gender, string _dob, string _qualification, string _major) public {\r... */\n      pop\n      pop\n      pop\n      pop\n      pop\n      pop\n      pop\n      pop\n      jump\t// out\n        /* \"contracts/ddddd.sol\":689:709  address public owner */\n    tag_92:\n      0x0\n      dup1\n      swap1\n      sload\n      swap1\n      0x100\n      exp\n      swap1\n      div\n      0xffffffffffffffffffffffffffffffffffffffff\n      and\n      dup2\n      jump\t// out\n        /* \"contracts/ddddd.sol\":1234:1302  function ownerAddress() public {\r... */\n    tag_96:\n        /* \"contracts/ddddd.sol\":1284:1294  msg.sender */\n      caller\n        /* \"contracts/ddddd.sol\":1276:1281  owner */\n      0x0\n      dup1\n        /* \"contracts/ddddd.sol\":1276:1294  owner = msg.sender */\n      0x100\n      exp\n      dup2\n      sload\n      dup2\n      0xffffffffffffffffffffffffffffffffffffffff\n      mul\n      not\n      and\n      swap1\n      dup4\n      0xffffffffffffffffffffffffffffffffffffffff\n      and\n      mul\n      or\n      swap1\n      sstore\n      pop\n        /* \"contracts/ddddd.sol\":1234:1302  function ownerAddress() public {\r... */\n      jump\t// out\n        /* \"contracts/ddddd.sol\":716:741  address[] public userList */\n    tag_100:\n      0x1\n      dup2\n      dup2\n      sload\n      dup2\n      lt\n      iszero\n      iszero\n      tag_212\n      jumpi\n      invalid\n    tag_212:\n      swap1\n      0x0\n      mstore\n      keccak256(0x0, 0x20)\n      add\n      0x0\n      swap2\n      pop\n      sload\n      swap1\n      0x100\n      exp\n      swap1\n      div\n      0xffffffffffffffffffffffffffffffffffffffff\n      and\n      dup2\n      jump\t// out\n        /* \"contracts/ddddd.sol\":1109:1145  uint256 public permissionCounter = 0 */\n    tag_104:\n      sload(0xa)\n      dup2\n      jump\t// out\n        /* \"contracts/ddddd.sol\":4511:4600  function getDoctors() public view returns(address[]) {\r... */\n    tag_108:\n        /* \"contracts/ddddd.sol\":4553:4562  address[] */\n      0x60\n        /* \"contracts/ddddd.sol\":4582:4592  doctorList */\n      0x2\n        /* \"contracts/ddddd.sol\":4575:4592  return doctorList */\n      dup1\n      sload\n      dup1\n      0x20\n      mul\n      0x20\n      add\n      mload(0x40)\n      swap1\n      dup2\n      add\n      0x40\n      mstore\n      dup1\n      swap3\n      swap2\n      swap1\n      dup2\n      dup2\n      mstore\n      0x20\n      add\n      dup3\n      dup1\n      sload\n      dup1\n      iszero\n      tag_215\n      jumpi\n      0x20\n      mul\n      dup3\n      add\n      swap2\n      swap1\n      0x0\n      mstore\n      keccak256(0x0, 0x20)\n      swap1\n    tag_216:\n      dup2\n      0x0\n      swap1\n      sload\n      swap1\n      0x100\n      exp\n      swap1\n      div\n      0xffffffffffffffffffffffffffffffffffffffff\n      and\n      0xffffffffffffffffffffffffffffffffffffffff\n      and\n      dup2\n      mstore\n      0x20\n      add\n      swap1\n      0x1\n      add\n      swap1\n      dup1\n      dup4\n      gt\n      tag_216\n      jumpi\n    tag_215:\n      pop\n      pop\n      pop\n      pop\n      pop\n      swap1\n      pop\n        /* \"contracts/ddddd.sol\":4511:4600  function getDoctors() public view returns(address[]) {\r... */\n      swap1\n      jump\t// out\n        /* \"contracts/ddddd.sol\":5579:5667  function getUserCount() public view returns(uint256) {\r... */\n    tag_112:\n        /* \"contracts/ddddd.sol\":5623:5630  uint256 */\n      0x0\n        /* \"contracts/ddddd.sol\":5650:5659  userCount */\n      sload(0x8)\n        /* \"contracts/ddddd.sol\":5643:5659  return userCount */\n      swap1\n      pop\n        /* \"contracts/ddddd.sol\":5579:5667  function getUserCount() public view returns(uint256) {\r... */\n      swap1\n      jump\t// out\n        /* \"contracts/ddddd.sol\":1152:1221  address public mohAdress = 0xc50C6297f56b033633C30354A854b074749cd2dC */\n    tag_116:\n      0xb\n      0x0\n      swap1\n      sload\n      swap1\n      0x100\n      exp\n      swap1\n      div\n      0xffffffffffffffffffffffffffffffffffffffff\n      and\n      dup2\n      jump\t// out\n        /* \"contracts/ddddd.sol\":5269:5563  function searchDoctor(address _address) public view returns(string, string, string, string, string, string, string) {\r... */\n    tag_121:\n        /* \"contracts/ddddd.sol\":5329:5335  string */\n      0x60\n        /* \"contracts/ddddd.sol\":5337:5343  string */\n      dup1\n        /* \"contracts/ddddd.sol\":5345:5351  string */\n      0x60\n        /* \"contracts/ddddd.sol\":5353:5359  string */\n      dup1\n        /* \"contracts/ddddd.sol\":5361:5367  string */\n      0x60\n        /* \"contracts/ddddd.sol\":5369:5375  string */\n      dup1\n        /* \"contracts/ddddd.sol\":5377:5383  string */\n      0x60\n        /* \"contracts/ddddd.sol\":5434:5439  var d */\n      0x0\n        /* \"contracts/ddddd.sol\":5404:5412  isDoctor */\n      0x7\n        /* \"contracts/ddddd.sol\":5404:5422  isDoctor[_address] */\n      0x0\n        /* \"contracts/ddddd.sol\":5413:5421  _address */\n      dup11\n        /* \"contracts/ddddd.sol\":5404:5422  isDoctor[_address] */\n      0xffffffffffffffffffffffffffffffffffffffff\n      and\n      0xffffffffffffffffffffffffffffffffffffffff\n      and\n      dup2\n      mstore\n      0x20\n      add\n      swap1\n      dup2\n      mstore\n      0x20\n      add\n      0x0\n      keccak256\n      0x0\n      swap1\n      sload\n      swap1\n      0x100\n      exp\n      swap1\n      div\n      0xff\n      and\n        /* \"contracts/ddddd.sol\":5396:5423  require(isDoctor[_address]) */\n      iszero\n      iszero\n      tag_219\n      jumpi\n      0x0\n      dup1\n      revert\n    tag_219:\n        /* \"contracts/ddddd.sol\":5442:5448  doctor */\n      0x4\n        /* \"contracts/ddddd.sol\":5442:5458  doctor[_address] */\n      0x0\n        /* \"contracts/ddddd.sol\":5449:5457  _address */\n      dup11\n        /* \"contracts/ddddd.sol\":5442:5458  doctor[_address] */\n      0xffffffffffffffffffffffffffffffffffffffff\n      and\n      0xffffffffffffffffffffffffffffffffffffffff\n      and\n      dup2\n      mstore\n      0x20\n      add\n      swap1\n      dup2\n      mstore\n      0x20\n      add\n      0x0\n      keccak256\n        /* \"contracts/ddddd.sol\":5434:5458  var d = doctor[_address] */\n      swap1\n      pop\n        /* \"contracts/ddddd.sol\":5487:5488  d */\n      dup1\n        /* \"contracts/ddddd.sol\":5487:5494  d.uaeId */\n      0x0\n      add\n        /* \"contracts/ddddd.sol\":5496:5497  d */\n      dup2\n        /* \"contracts/ddddd.sol\":5496:5502  d.name */\n      0x1\n      add\n        /* \"contracts/ddddd.sol\":5504:5505  d */\n      dup3\n        /* \"contracts/ddddd.sol\":5504:5511  d.phone */\n      0x2\n      add\n        /* \"contracts/ddddd.sol\":5513:5514  d */\n      dup4\n        /* \"contracts/ddddd.sol\":5513:5521  d.gender */\n      0x3\n      add\n        /* \"contracts/ddddd.sol\":5523:5524  d */\n      dup5\n        /* \"contracts/ddddd.sol\":5523:5528  d.dob */\n      0x4\n      add\n        /* \"contracts/ddddd.sol\":5530:5531  d */\n      dup6\n        /* \"contracts/ddddd.sol\":5530:5545  d.qualification */\n      0x7\n      add\n        /* \"contracts/ddddd.sol\":5547:5548  d */\n      dup7\n        /* \"contracts/ddddd.sol\":5547:5554  d.major */\n      0x8\n      add\n        /* \"contracts/ddddd.sol\":5479:5555  return (d.uaeId, d.name, d.phone, d.gender, d.dob, d.qualification, d.major) */\n      dup7\n      dup1\n      sload\n      0x1\n      dup2\n      0x1\n      and\n      iszero\n      0x100\n      mul\n      sub\n      and\n      0x2\n      swap1\n      div\n      dup1\n      0x1f\n      add\n      0x20\n      dup1\n      swap2\n      div\n      mul\n      0x20\n      add\n      mload(0x40)\n      swap1\n      dup2\n      add\n      0x40\n      mstore\n      dup1\n      swap3\n      swap2\n      swap1\n      dup2\n      dup2\n      mstore\n      0x20\n      add\n      dup3\n      dup1\n      sload\n      0x1\n      dup2\n      0x1\n      and\n      iszero\n      0x100\n      mul\n      sub\n      and\n      0x2\n      swap1\n      div\n      dup1\n      iszero\n      tag_220\n      jumpi\n      dup1\n      0x1f\n      lt\n      tag_221\n      jumpi\n      0x100\n      dup1\n      dup4\n      sload\n      div\n      mul\n      dup4\n      mstore\n      swap2\n      0x20\n      add\n      swap2\n      jump(tag_220)\n    tag_221:\n      dup3\n      add\n      swap2\n      swap1\n      0x0\n      mstore\n      keccak256(0x0, 0x20)\n      swap1\n    tag_222:\n      dup2\n      sload\n      dup2\n      mstore\n      swap1\n      0x1\n      add\n      swap1\n      0x20\n      add\n      dup1\n      dup4\n      gt\n      tag_222\n      jumpi\n      dup3\n      swap1\n      sub\n      0x1f\n      and\n      dup3\n      add\n      swap2\n    tag_220:\n      pop\n      pop\n      pop\n      pop\n      pop\n      swap7\n      pop\n      dup6\n      dup1\n      sload\n      0x1\n      dup2\n      0x1\n      and\n      iszero\n      0x100\n      mul\n      sub\n      and\n      0x2\n      swap1\n      div\n      dup1\n      0x1f\n      add\n      0x20\n      dup1\n      swap2\n      div\n      mul\n      0x20\n      add\n      mload(0x40)\n      swap1\n      dup2\n      add\n      0x40\n      mstore\n      dup1\n      swap3\n      swap2\n      swap1\n      dup2\n      dup2\n      mstore\n      0x20\n      add\n      dup3\n      dup1\n      sload\n      0x1\n      dup2\n      0x1\n      and\n      iszero\n      0x100\n      mul\n      sub\n      and\n      0x2\n      swap1\n      div\n      dup1\n      iszero\n      tag_223\n      jumpi\n      dup1\n      0x1f\n      lt\n      tag_224\n      jumpi\n      0x100\n      dup1\n      dup4\n      sload\n      div\n      mul\n      dup4\n      mstore\n      swap2\n      0x20\n      add\n      swap2\n      jump(tag_223)\n    tag_224:\n      dup3\n      add\n      swap2\n      swap1\n      0x0\n      mstore\n      keccak256(0x0, 0x20)\n      swap1\n    tag_225:\n      dup2\n      sload\n      dup2\n      mstore\n      swap1\n      0x1\n      add\n      swap1\n      0x20\n      add\n      dup1\n      dup4\n      gt\n      tag_225\n      jumpi\n      dup3\n      swap1\n      sub\n      0x1f\n      and\n      dup3\n      add\n      swap2\n    tag_223:\n      pop\n      pop\n      pop\n      pop\n      pop\n      swap6\n      pop\n      dup5\n      dup1\n      sload\n      0x1\n      dup2\n      0x1\n      and\n      iszero\n      0x100\n      mul\n      sub\n      and\n      0x2\n      swap1\n      div\n      dup1\n      0x1f\n      add\n      0x20\n      dup1\n      swap2\n      div\n      mul\n      0x20\n      add\n      mload(0x40)\n      swap1\n      dup2\n      add\n      0x40\n      mstore\n      dup1\n      swap3\n      swap2\n      swap1\n      dup2\n      dup2\n      mstore\n      0x20\n      add\n      dup3\n      dup1\n      sload\n      0x1\n      dup2\n      0x1\n      and\n      iszero\n      0x100\n      mul\n      sub\n      and\n      0x2\n      swap1\n      div\n      dup1\n      iszero\n      tag_226\n      jumpi\n      dup1\n      0x1f\n      lt\n      tag_227\n      jumpi\n      0x100\n      dup1\n      dup4\n      sload\n      div\n      mul\n      dup4\n      mstore\n      swap2\n      0x20\n      add\n      swap2\n      jump(tag_226)\n    tag_227:\n      dup3\n      add\n      swap2\n      swap1\n      0x0\n      mstore\n      keccak256(0x0, 0x20)\n      swap1\n    tag_228:\n      dup2\n      sload\n      dup2\n      mstore\n      swap1\n      0x1\n      add\n      swap1\n      0x20\n      add\n      dup1\n      dup4\n      gt\n      tag_228\n      jumpi\n      dup3\n      swap1\n      sub\n      0x1f\n      and\n      dup3\n      add\n      swap2\n    tag_226:\n      pop\n      pop\n      pop\n      pop\n      pop\n      swap5\n      pop\n      dup4\n      dup1\n      sload\n      0x1\n      dup2\n      0x1\n      and\n      iszero\n      0x100\n      mul\n      sub\n      and\n      0x2\n      swap1\n      div\n      dup1\n      0x1f\n      add\n      0x20\n      dup1\n      swap2\n      div\n      mul\n      0x20\n      add\n      mload(0x40)\n      swap1\n      dup2\n      add\n      0x40\n      mstore\n      dup1\n      swap3\n      swap2\n      swap1\n      dup2\n      dup2\n      mstore\n      0x20\n      add\n      dup3\n      dup1\n      sload\n      0x1\n      dup2\n      0x1\n      and\n      iszero\n      0x100\n      mul\n      sub\n      and\n      0x2\n      swap1\n      div\n      dup1\n      iszero\n      tag_229\n      jumpi\n      dup1\n      0x1f\n      lt\n      tag_230\n      jumpi\n      0x100\n      dup1\n      dup4\n      sload\n      div\n      mul\n      dup4\n      mstore\n      swap2\n      0x20\n      add\n      swap2\n      jump(tag_229)\n    tag_230:\n      dup3\n      add\n      swap2\n      swap1\n      0x0\n      mstore\n      keccak256(0x0, 0x20)\n      swap1\n    tag_231:\n      dup2\n      sload\n      dup2\n      mstore\n      swap1\n      0x1\n      add\n      swap1\n      0x20\n      add\n      dup1\n      dup4\n      gt\n      tag_231\n      jumpi\n      dup3\n      swap1\n      sub\n      0x1f\n      and\n      dup3\n      add\n      swap2\n    tag_229:\n      pop\n      pop\n      pop\n      pop\n      pop\n      swap4\n      pop\n      dup3\n      dup1\n      sload\n      0x1\n      dup2\n      0x1\n      and\n      iszero\n      0x100\n      mul\n      sub\n      and\n      0x2\n      swap1\n      div\n      dup1\n      0x1f\n      add\n      0x20\n      dup1\n      swap2\n      div\n      mul\n      0x20\n      add\n      mload(0x40)\n      swap1\n      dup2\n      add\n      0x40\n      mstore\n      dup1\n      swap3\n      swap2\n      swap1\n      dup2\n      dup2\n      mstore\n      0x20\n      add\n      dup3\n      dup1\n      sload\n      0x1\n      dup2\n      0x1\n      and\n      iszero\n      0x100\n      mul\n      sub\n      and\n      0x2\n      swap1\n      div\n      dup1\n      iszero\n      tag_232\n      jumpi\n      dup1\n      0x1f\n      lt\n      tag_233\n      jumpi\n      0x100\n      dup1\n      dup4\n      sload\n      div\n      mul\n      dup4\n      mstore\n      swap2\n      0x20\n      add\n      swap2\n      jump(tag_232)\n    tag_233:\n      dup3\n      add\n      swap2\n      swap1\n      0x0\n      mstore\n      keccak256(0x0, 0x20)\n      swap1\n    tag_234:\n      dup2\n      sload\n      dup2\n      mstore\n      swap1\n      0x1\n      add\n      swap1\n      0x20\n      add\n      dup1\n      dup4\n      gt\n      tag_234\n      jumpi\n      dup3\n      swap1\n      sub\n      0x1f\n      and\n      dup3\n      add\n      swap2\n    tag_232:\n      pop\n      pop\n      pop\n      pop\n      pop\n      swap3\n      pop\n      dup2\n      dup1\n      sload\n      0x1\n      dup2\n      0x1\n      and\n      iszero\n      0x100\n      mul\n      sub\n      and\n      0x2\n      swap1\n      div\n      dup1\n      0x1f\n      add\n      0x20\n      dup1\n      swap2\n      div\n      mul\n      0x20\n      add\n      mload(0x40)\n      swap1\n      dup2\n      add\n      0x40\n      mstore\n      dup1\n      swap3\n      swap2\n      swap1\n      dup2\n      dup2\n      mstore\n      0x20\n      add\n      dup3\n      dup1\n      sload\n      0x1\n      dup2\n      0x1\n      and\n      iszero\n      0x100\n      mul\n      sub\n      and\n      0x2\n      swap1\n      div\n      dup1\n      iszero\n      tag_235\n      jumpi\n      dup1\n      0x1f\n      lt\n      tag_236\n      jumpi\n      0x100\n      dup1\n      dup4\n      sload\n      div\n      mul\n      dup4\n      mstore\n      swap2\n      0x20\n      add\n      swap2\n      jump(tag_235)\n    tag_236:\n      dup3\n      add\n      swap2\n      swap1\n      0x0\n      mstore\n      keccak256(0x0, 0x20)\n      swap1\n    tag_237:\n      dup2\n      sload\n      dup2\n      mstore\n      swap1\n      0x1\n      add\n      swap1\n      0x20\n      add\n      dup1\n      dup4\n      gt\n      tag_237\n      jumpi\n      dup3\n      swap1\n      sub\n      0x1f\n      and\n      dup3\n      add\n      swap2\n    tag_235:\n      pop\n      pop\n      pop\n      pop\n      pop\n      swap2\n      pop\n      dup1\n      dup1\n      sload\n      0x1\n      dup2\n      0x1\n      and\n      iszero\n      0x100\n      mul\n      sub\n      and\n      0x2\n      swap1\n      div\n      dup1\n      0x1f\n      add\n      0x20\n      dup1\n      swap2\n      div\n      mul\n      0x20\n      add\n      mload(0x40)\n      swap1\n      dup2\n      add\n      0x40\n      mstore\n      dup1\n      swap3\n      swap2\n      swap1\n      dup2\n      dup2\n      mstore\n      0x20\n      add\n      dup3\n      dup1\n      sload\n      0x1\n      dup2\n      0x1\n      and\n      iszero\n      0x100\n      mul\n      sub\n      and\n      0x2\n      swap1\n      div\n      dup1\n      iszero\n      tag_238\n      jumpi\n      dup1\n      0x1f\n      lt\n      tag_239\n      jumpi\n      0x100\n      dup1\n      dup4\n      sload\n      div\n      mul\n      dup4\n      mstore\n      swap2\n      0x20\n      add\n      swap2\n      jump(tag_238)\n    tag_239:\n      dup3\n      add\n      swap2\n      swap1\n      0x0\n      mstore\n      keccak256(0x0, 0x20)\n      swap1\n    tag_240:\n      dup2\n      sload\n      dup2\n      mstore\n      swap1\n      0x1\n      add\n      swap1\n      0x20\n      add\n      dup1\n      dup4\n      gt\n      tag_240\n      jumpi\n      dup3\n      swap1\n      sub\n      0x1f\n      and\n      dup3\n      add\n      swap2\n    tag_238:\n      pop\n      pop\n      pop\n      pop\n      pop\n      swap1\n      pop\n      swap8\n      pop\n      swap8\n      pop\n      swap8\n      pop\n      swap8\n      pop\n      swap8\n      pop\n      swap8\n      pop\n      swap8\n      pop\n        /* \"contracts/ddddd.sol\":5269:5563  function searchDoctor(address _address) public view returns(string, string, string, string, string, string, string) {\r... */\n      pop\n      swap2\n      swap4\n      swap6\n      swap8\n      swap1\n      swap3\n      swap5\n      swap7\n      pop\n      jump\t// out\n        /* \"contracts/ddddd.sol\":67:5891  contract ddddd {\r... */\n    tag_153:\n      dup3\n      dup1\n      sload\n      0x1\n      dup2\n      0x1\n      and\n      iszero\n      0x100\n      mul\n      sub\n      and\n      0x2\n      swap1\n      div\n      swap1\n      0x0\n      mstore\n      keccak256(0x0, 0x20)\n      swap1\n      0x1f\n      add\n      0x20\n      swap1\n      div\n      dup2\n      add\n      swap3\n      dup3\n      0x1f\n      lt\n      tag_242\n      jumpi\n      dup1\n      mload\n      not(0xff)\n      and\n      dup4\n      dup1\n      add\n      or\n      dup6\n      sstore\n      jump(tag_241)\n    tag_242:\n      dup3\n      dup1\n      add\n      0x1\n      add\n      dup6\n      sstore\n      dup3\n      iszero\n      tag_241\n      jumpi\n      swap2\n      dup3\n      add\n    tag_243:\n      dup3\n      dup2\n      gt\n      iszero\n      tag_244\n      jumpi\n      dup3\n      mload\n      dup3\n      sstore\n      swap2\n      0x20\n      add\n      swap2\n      swap1\n      0x1\n      add\n      swap1\n      jump(tag_243)\n    tag_244:\n    tag_241:\n      pop\n      swap1\n      pop\n      tag_245\n      swap2\n      swap1\n      jump\t// in(tag_246)\n    tag_245:\n      pop\n      swap1\n      jump\t// out\n    tag_175:\n      dup3\n      dup1\n      sload\n      0x1\n      dup2\n      0x1\n      and\n      iszero\n      0x100\n      mul\n      sub\n      and\n      0x2\n      swap1\n      div\n      swap1\n      0x0\n      mstore\n      keccak256(0x0, 0x20)\n      swap1\n      0x1f\n      add\n      0x20\n      swap1\n      div\n      dup2\n      add\n      swap3\n      dup3\n      0x1f\n      lt\n      tag_248\n      jumpi\n      dup1\n      sload\n      dup6\n      sstore\n      jump(tag_247)\n    tag_248:\n      dup3\n      dup1\n      add\n      0x1\n      add\n      dup6\n      sstore\n      dup3\n      iszero\n      tag_247\n      jumpi\n      0x0\n      mstore\n      keccak256(0x0, 0x20)\n      swap2\n      0x1f\n      add\n      0x20\n      swap1\n      div\n      dup3\n      add\n    tag_249:\n      dup3\n      dup2\n      gt\n      iszero\n      tag_250\n      jumpi\n      dup3\n      sload\n      dup3\n      sstore\n      swap2\n      0x1\n      add\n      swap2\n      swap1\n      0x1\n      add\n      swap1\n      jump(tag_249)\n    tag_250:\n    tag_247:\n      pop\n      swap1\n      pop\n      tag_251\n      swap2\n      swap1\n      jump\t// in(tag_246)\n    tag_251:\n      pop\n      swap1\n      jump\t// out\n    tag_246:\n      tag_252\n      swap2\n      swap1\n    tag_253:\n      dup1\n      dup3\n      gt\n      iszero\n      tag_254\n      jumpi\n      0x0\n      dup2\n      0x0\n      swap1\n      sstore\n      pop\n      0x1\n      add\n      jump(tag_253)\n    tag_254:\n      pop\n      swap1\n      jump\n    tag_252:\n      swap1\n      jump\t// out\n        /* \"--CODEGEN--\":5:123   */\n    tag_256:\n      0x0\n        /* \"--CODEGEN--\":72:118   */\n      tag_257\n        /* \"--CODEGEN--\":110:116   */\n      dup3\n        /* \"--CODEGEN--\":97:117   */\n      calldataload\n        /* \"--CODEGEN--\":72:118   */\n      jump(tag_258)\n    tag_257:\n        /* \"--CODEGEN--\":63:118   */\n      swap1\n      pop\n        /* \"--CODEGEN--\":57:123   */\n      swap3\n      swap2\n      pop\n      pop\n      jump\n        /* \"--CODEGEN--\":131:573   */\n    tag_260:\n      0x0\n        /* \"--CODEGEN--\":233:236   */\n      dup3\n        /* \"--CODEGEN--\":226:230   */\n      0x1f\n        /* \"--CODEGEN--\":218:224   */\n      dup4\n        /* \"--CODEGEN--\":214:231   */\n      add\n        /* \"--CODEGEN--\":210:237   */\n      slt\n        /* \"--CODEGEN--\":203:238   */\n      iszero\n        /* \"--CODEGEN--\":200:202   */\n      iszero\n      tag_261\n      jumpi\n        /* \"--CODEGEN--\":251:252   */\n      0x0\n        /* \"--CODEGEN--\":248:249   */\n      dup1\n        /* \"--CODEGEN--\":241:253   */\n      revert\n        /* \"--CODEGEN--\":200:202   */\n    tag_261:\n        /* \"--CODEGEN--\":288:294   */\n      dup2\n        /* \"--CODEGEN--\":275:295   */\n      calldataload\n        /* \"--CODEGEN--\":310:375   */\n      tag_262\n        /* \"--CODEGEN--\":325:374   */\n      tag_263\n        /* \"--CODEGEN--\":367:373   */\n      dup3\n        /* \"--CODEGEN--\":325:374   */\n      jump(tag_264)\n    tag_263:\n        /* \"--CODEGEN--\":310:375   */\n      jump(tag_265)\n    tag_262:\n        /* \"--CODEGEN--\":301:375   */\n      swap2\n      pop\n        /* \"--CODEGEN--\":395:401   */\n      dup1\n        /* \"--CODEGEN--\":388:393   */\n      dup3\n        /* \"--CODEGEN--\":381:402   */\n      mstore\n        /* \"--CODEGEN--\":431:435   */\n      0x20\n        /* \"--CODEGEN--\":423:429   */\n      dup4\n        /* \"--CODEGEN--\":419:436   */\n      add\n        /* \"--CODEGEN--\":464:468   */\n      0x20\n        /* \"--CODEGEN--\":457:462   */\n      dup4\n        /* \"--CODEGEN--\":453:469   */\n      add\n        /* \"--CODEGEN--\":499:502   */\n      dup6\n        /* \"--CODEGEN--\":490:496   */\n      dup4\n        /* \"--CODEGEN--\":485:488   */\n      dup4\n        /* \"--CODEGEN--\":481:497   */\n      add\n        /* \"--CODEGEN--\":478:503   */\n      gt\n        /* \"--CODEGEN--\":475:477   */\n      iszero\n      tag_266\n      jumpi\n        /* \"--CODEGEN--\":516:517   */\n      0x0\n        /* \"--CODEGEN--\":513:514   */\n      dup1\n        /* \"--CODEGEN--\":506:518   */\n      revert\n        /* \"--CODEGEN--\":475:477   */\n    tag_266:\n        /* \"--CODEGEN--\":526:567   */\n      tag_267\n        /* \"--CODEGEN--\":560:566   */\n      dup4\n        /* \"--CODEGEN--\":555:558   */\n      dup3\n        /* \"--CODEGEN--\":550:553   */\n      dup5\n        /* \"--CODEGEN--\":526:567   */\n      jump(tag_268)\n    tag_267:\n        /* \"--CODEGEN--\":193:573   */\n      pop\n      pop\n      pop\n      swap3\n      swap2\n      pop\n      pop\n      jump\n        /* \"--CODEGEN--\":581:699   */\n    tag_270:\n      0x0\n        /* \"--CODEGEN--\":648:694   */\n      tag_271\n        /* \"--CODEGEN--\":686:692   */\n      dup3\n        /* \"--CODEGEN--\":673:693   */\n      calldataload\n        /* \"--CODEGEN--\":648:694   */\n      jump(tag_272)\n    tag_271:\n        /* \"--CODEGEN--\":639:694   */\n      swap1\n      pop\n        /* \"--CODEGEN--\":633:699   */\n      swap3\n      swap2\n      pop\n      pop\n      jump\n        /* \"--CODEGEN--\":706:947   */\n    tag_31:\n      0x0\n        /* \"--CODEGEN--\":810:812   */\n      0x20\n        /* \"--CODEGEN--\":798:807   */\n      dup3\n        /* \"--CODEGEN--\":789:796   */\n      dup5\n        /* \"--CODEGEN--\":785:808   */\n      sub\n        /* \"--CODEGEN--\":781:813   */\n      slt\n        /* \"--CODEGEN--\":778:780   */\n      iszero\n      tag_274\n      jumpi\n        /* \"--CODEGEN--\":826:827   */\n      0x0\n        /* \"--CODEGEN--\":823:824   */\n      dup1\n        /* \"--CODEGEN--\":816:828   */\n      revert\n        /* \"--CODEGEN--\":778:780   */\n    tag_274:\n        /* \"--CODEGEN--\":861:862   */\n      0x0\n        /* \"--CODEGEN--\":878:931   */\n      tag_275\n        /* \"--CODEGEN--\":923:930   */\n      dup5\n        /* \"--CODEGEN--\":914:920   */\n      dup3\n        /* \"--CODEGEN--\":903:912   */\n      dup6\n        /* \"--CODEGEN--\":899:921   */\n      add\n        /* \"--CODEGEN--\":878:931   */\n      jump(tag_256)\n    tag_275:\n        /* \"--CODEGEN--\":868:931   */\n      swap2\n      pop\n        /* \"--CODEGEN--\":840:937   */\n      pop\n        /* \"--CODEGEN--\":772:947   */\n      swap3\n      swap2\n      pop\n      pop\n      jump\n        /* \"--CODEGEN--\":954:2817   */\n    tag_56:\n      0x0\n      dup1\n      0x0\n      dup1\n      0x0\n      dup1\n      0x0\n      dup1\n        /* \"--CODEGEN--\":1247:1250   */\n      0x100\n        /* \"--CODEGEN--\":1235:1244   */\n      dup10\n        /* \"--CODEGEN--\":1226:1233   */\n      dup12\n        /* \"--CODEGEN--\":1222:1245   */\n      sub\n        /* \"--CODEGEN--\":1218:1251   */\n      slt\n        /* \"--CODEGEN--\":1215:1217   */\n      iszero\n      tag_277\n      jumpi\n        /* \"--CODEGEN--\":1264:1265   */\n      0x0\n        /* \"--CODEGEN--\":1261:1262   */\n      dup1\n        /* \"--CODEGEN--\":1254:1266   */\n      revert\n        /* \"--CODEGEN--\":1215:1217   */\n    tag_277:\n        /* \"--CODEGEN--\":1299:1300   */\n      0x0\n        /* \"--CODEGEN--\":1316:1369   */\n      tag_278\n        /* \"--CODEGEN--\":1361:1368   */\n      dup12\n        /* \"--CODEGEN--\":1352:1358   */\n      dup3\n        /* \"--CODEGEN--\":1341:1350   */\n      dup13\n        /* \"--CODEGEN--\":1337:1359   */\n      add\n        /* \"--CODEGEN--\":1316:1369   */\n      jump(tag_256)\n    tag_278:\n        /* \"--CODEGEN--\":1306:1369   */\n      swap9\n      pop\n        /* \"--CODEGEN--\":1278:1375   */\n      pop\n        /* \"--CODEGEN--\":1434:1436   */\n      0x20\n        /* \"--CODEGEN--\":1423:1432   */\n      dup10\n        /* \"--CODEGEN--\":1419:1437   */\n      add\n        /* \"--CODEGEN--\":1406:1438   */\n      calldataload\n        /* \"--CODEGEN--\":1458:1476   */\n      0xffffffffffffffff\n        /* \"--CODEGEN--\":1450:1456   */\n      dup2\n        /* \"--CODEGEN--\":1447:1477   */\n      gt\n        /* \"--CODEGEN--\":1444:1446   */\n      iszero\n      tag_279\n      jumpi\n        /* \"--CODEGEN--\":1490:1491   */\n      0x0\n        /* \"--CODEGEN--\":1487:1488   */\n      dup1\n        /* \"--CODEGEN--\":1480:1492   */\n      revert\n        /* \"--CODEGEN--\":1444:1446   */\n    tag_279:\n        /* \"--CODEGEN--\":1510:1573   */\n      tag_280\n        /* \"--CODEGEN--\":1565:1572   */\n      dup12\n        /* \"--CODEGEN--\":1556:1562   */\n      dup3\n        /* \"--CODEGEN--\":1545:1554   */\n      dup13\n        /* \"--CODEGEN--\":1541:1563   */\n      add\n        /* \"--CODEGEN--\":1510:1573   */\n      jump(tag_260)\n    tag_280:\n        /* \"--CODEGEN--\":1500:1573   */\n      swap8\n      pop\n        /* \"--CODEGEN--\":1385:1579   */\n      pop\n        /* \"--CODEGEN--\":1638:1640   */\n      0x40\n        /* \"--CODEGEN--\":1627:1636   */\n      dup10\n        /* \"--CODEGEN--\":1623:1641   */\n      add\n        /* \"--CODEGEN--\":1610:1642   */\n      calldataload\n        /* \"--CODEGEN--\":1662:1680   */\n      0xffffffffffffffff\n        /* \"--CODEGEN--\":1654:1660   */\n      dup2\n        /* \"--CODEGEN--\":1651:1681   */\n      gt\n        /* \"--CODEGEN--\":1648:1650   */\n      iszero\n      tag_281\n      jumpi\n        /* \"--CODEGEN--\":1694:1695   */\n      0x0\n        /* \"--CODEGEN--\":1691:1692   */\n      dup1\n        /* \"--CODEGEN--\":1684:1696   */\n      revert\n        /* \"--CODEGEN--\":1648:1650   */\n    tag_281:\n        /* \"--CODEGEN--\":1714:1777   */\n      tag_282\n        /* \"--CODEGEN--\":1769:1776   */\n      dup12\n        /* \"--CODEGEN--\":1760:1766   */\n      dup3\n        /* \"--CODEGEN--\":1749:1758   */\n      dup13\n        /* \"--CODEGEN--\":1745:1767   */\n      add\n        /* \"--CODEGEN--\":1714:1777   */\n      jump(tag_260)\n    tag_282:\n        /* \"--CODEGEN--\":1704:1777   */\n      swap7\n      pop\n        /* \"--CODEGEN--\":1589:1783   */\n      pop\n        /* \"--CODEGEN--\":1842:1844   */\n      0x60\n        /* \"--CODEGEN--\":1831:1840   */\n      dup10\n        /* \"--CODEGEN--\":1827:1845   */\n      add\n        /* \"--CODEGEN--\":1814:1846   */\n      calldataload\n        /* \"--CODEGEN--\":1866:1884   */\n      0xffffffffffffffff\n        /* \"--CODEGEN--\":1858:1864   */\n      dup2\n        /* \"--CODEGEN--\":1855:1885   */\n      gt\n        /* \"--CODEGEN--\":1852:1854   */\n      iszero\n      tag_283\n      jumpi\n        /* \"--CODEGEN--\":1898:1899   */\n      0x0\n        /* \"--CODEGEN--\":1895:1896   */\n      dup1\n        /* \"--CODEGEN--\":1888:1900   */\n      revert\n        /* \"--CODEGEN--\":1852:1854   */\n    tag_283:\n        /* \"--CODEGEN--\":1918:1981   */\n      tag_284\n        /* \"--CODEGEN--\":1973:1980   */\n      dup12\n        /* \"--CODEGEN--\":1964:1970   */\n      dup3\n        /* \"--CODEGEN--\":1953:1962   */\n      dup13\n        /* \"--CODEGEN--\":1949:1971   */\n      add\n        /* \"--CODEGEN--\":1918:1981   */\n      jump(tag_260)\n    tag_284:\n        /* \"--CODEGEN--\":1908:1981   */\n      swap6\n      pop\n        /* \"--CODEGEN--\":1793:1987   */\n      pop\n        /* \"--CODEGEN--\":2046:2049   */\n      0x80\n        /* \"--CODEGEN--\":2035:2044   */\n      dup10\n        /* \"--CODEGEN--\":2031:2050   */\n      add\n        /* \"--CODEGEN--\":2018:2051   */\n      calldataload\n        /* \"--CODEGEN--\":2071:2089   */\n      0xffffffffffffffff\n        /* \"--CODEGEN--\":2063:2069   */\n      dup2\n        /* \"--CODEGEN--\":2060:2090   */\n      gt\n        /* \"--CODEGEN--\":2057:2059   */\n      iszero\n      tag_285\n      jumpi\n        /* \"--CODEGEN--\":2103:2104   */\n      0x0\n        /* \"--CODEGEN--\":2100:2101   */\n      dup1\n        /* \"--CODEGEN--\":2093:2105   */\n      revert\n        /* \"--CODEGEN--\":2057:2059   */\n    tag_285:\n        /* \"--CODEGEN--\":2123:2186   */\n      tag_286\n        /* \"--CODEGEN--\":2178:2185   */\n      dup12\n        /* \"--CODEGEN--\":2169:2175   */\n      dup3\n        /* \"--CODEGEN--\":2158:2167   */\n      dup13\n        /* \"--CODEGEN--\":2154:2176   */\n      add\n        /* \"--CODEGEN--\":2123:2186   */\n      jump(tag_260)\n    tag_286:\n        /* \"--CODEGEN--\":2113:2186   */\n      swap5\n      pop\n        /* \"--CODEGEN--\":1997:2192   */\n      pop\n        /* \"--CODEGEN--\":2251:2254   */\n      0xa0\n        /* \"--CODEGEN--\":2240:2249   */\n      dup10\n        /* \"--CODEGEN--\":2236:2255   */\n      add\n        /* \"--CODEGEN--\":2223:2256   */\n      calldataload\n        /* \"--CODEGEN--\":2276:2294   */\n      0xffffffffffffffff\n        /* \"--CODEGEN--\":2268:2274   */\n      dup2\n        /* \"--CODEGEN--\":2265:2295   */\n      gt\n        /* \"--CODEGEN--\":2262:2264   */\n      iszero\n      tag_287\n      jumpi\n        /* \"--CODEGEN--\":2308:2309   */\n      0x0\n        /* \"--CODEGEN--\":2305:2306   */\n      dup1\n        /* \"--CODEGEN--\":2298:2310   */\n      revert\n        /* \"--CODEGEN--\":2262:2264   */\n    tag_287:\n        /* \"--CODEGEN--\":2328:2391   */\n      tag_288\n        /* \"--CODEGEN--\":2383:2390   */\n      dup12\n        /* \"--CODEGEN--\":2374:2380   */\n      dup3\n        /* \"--CODEGEN--\":2363:2372   */\n      dup13\n        /* \"--CODEGEN--\":2359:2381   */\n      add\n        /* \"--CODEGEN--\":2328:2391   */\n      jump(tag_260)\n    tag_288:\n        /* \"--CODEGEN--\":2318:2391   */\n      swap4\n      pop\n        /* \"--CODEGEN--\":2202:2397   */\n      pop\n        /* \"--CODEGEN--\":2456:2459   */\n      0xc0\n        /* \"--CODEGEN--\":2445:2454   */\n      dup10\n        /* \"--CODEGEN--\":2441:2460   */\n      add\n        /* \"--CODEGEN--\":2428:2461   */\n      calldataload\n        /* \"--CODEGEN--\":2481:2499   */\n      0xffffffffffffffff\n        /* \"--CODEGEN--\":2473:2479   */\n      dup2\n        /* \"--CODEGEN--\":2470:2500   */\n      gt\n        /* \"--CODEGEN--\":2467:2469   */\n      iszero\n      tag_289\n      jumpi\n        /* \"--CODEGEN--\":2513:2514   */\n      0x0\n        /* \"--CODEGEN--\":2510:2511   */\n      dup1\n        /* \"--CODEGEN--\":2503:2515   */\n      revert\n        /* \"--CODEGEN--\":2467:2469   */\n    tag_289:\n        /* \"--CODEGEN--\":2533:2596   */\n      tag_290\n        /* \"--CODEGEN--\":2588:2595   */\n      dup12\n        /* \"--CODEGEN--\":2579:2585   */\n      dup3\n        /* \"--CODEGEN--\":2568:2577   */\n      dup13\n        /* \"--CODEGEN--\":2564:2586   */\n      add\n        /* \"--CODEGEN--\":2533:2596   */\n      jump(tag_260)\n    tag_290:\n        /* \"--CODEGEN--\":2523:2596   */\n      swap3\n      pop\n        /* \"--CODEGEN--\":2407:2602   */\n      pop\n        /* \"--CODEGEN--\":2661:2664   */\n      0xe0\n        /* \"--CODEGEN--\":2650:2659   */\n      dup10\n        /* \"--CODEGEN--\":2646:2665   */\n      add\n        /* \"--CODEGEN--\":2633:2666   */\n      calldataload\n        /* \"--CODEGEN--\":2686:2704   */\n      0xffffffffffffffff\n        /* \"--CODEGEN--\":2678:2684   */\n      dup2\n        /* \"--CODEGEN--\":2675:2705   */\n      gt\n        /* \"--CODEGEN--\":2672:2674   */\n      iszero\n      tag_291\n      jumpi\n        /* \"--CODEGEN--\":2718:2719   */\n      0x0\n        /* \"--CODEGEN--\":2715:2716   */\n      dup1\n        /* \"--CODEGEN--\":2708:2720   */\n      revert\n        /* \"--CODEGEN--\":2672:2674   */\n    tag_291:\n        /* \"--CODEGEN--\":2738:2801   */\n      tag_292\n        /* \"--CODEGEN--\":2793:2800   */\n      dup12\n        /* \"--CODEGEN--\":2784:2790   */\n      dup3\n        /* \"--CODEGEN--\":2773:2782   */\n      dup13\n        /* \"--CODEGEN--\":2769:2791   */\n      add\n        /* \"--CODEGEN--\":2738:2801   */\n      jump(tag_260)\n    tag_292:\n        /* \"--CODEGEN--\":2728:2801   */\n      swap2\n      pop\n        /* \"--CODEGEN--\":2612:2807   */\n      pop\n        /* \"--CODEGEN--\":1209:2817   */\n      swap3\n      swap6\n      swap9\n      pop\n      swap3\n      swap6\n      swap9\n      swap1\n      swap4\n      swap7\n      pop\n      jump\n        /* \"--CODEGEN--\":2824:5151   */\n    tag_75:\n      0x0\n      dup1\n      0x0\n      dup1\n      0x0\n      dup1\n      0x0\n      dup1\n      0x0\n      dup1\n        /* \"--CODEGEN--\":3171:3174   */\n      0x140\n        /* \"--CODEGEN--\":3159:3168   */\n      dup12\n        /* \"--CODEGEN--\":3150:3157   */\n      dup14\n        /* \"--CODEGEN--\":3146:3169   */\n      sub\n        /* \"--CODEGEN--\":3142:3175   */\n      slt\n        /* \"--CODEGEN--\":3139:3141   */\n      iszero\n      tag_294\n      jumpi\n        /* \"--CODEGEN--\":3188:3189   */\n      0x0\n        /* \"--CODEGEN--\":3185:3186   */\n      dup1\n        /* \"--CODEGEN--\":3178:3190   */\n      revert\n        /* \"--CODEGEN--\":3139:3141   */\n    tag_294:\n        /* \"--CODEGEN--\":3223:3224   */\n      0x0\n        /* \"--CODEGEN--\":3240:3293   */\n      tag_295\n        /* \"--CODEGEN--\":3285:3292   */\n      dup14\n        /* \"--CODEGEN--\":3276:3282   */\n      dup3\n        /* \"--CODEGEN--\":3265:3274   */\n      dup15\n        /* \"--CODEGEN--\":3261:3283   */\n      add\n        /* \"--CODEGEN--\":3240:3293   */\n      jump(tag_256)\n    tag_295:\n        /* \"--CODEGEN--\":3230:3293   */\n      swap11\n      pop\n        /* \"--CODEGEN--\":3202:3299   */\n      pop\n        /* \"--CODEGEN--\":3358:3360   */\n      0x20\n        /* \"--CODEGEN--\":3347:3356   */\n      dup12\n        /* \"--CODEGEN--\":3343:3361   */\n      add\n        /* \"--CODEGEN--\":3330:3362   */\n      calldataload\n        /* \"--CODEGEN--\":3382:3400   */\n      0xffffffffffffffff\n        /* \"--CODEGEN--\":3374:3380   */\n      dup2\n        /* \"--CODEGEN--\":3371:3401   */\n      gt\n        /* \"--CODEGEN--\":3368:3370   */\n      iszero\n      tag_296\n      jumpi\n        /* \"--CODEGEN--\":3414:3415   */\n      0x0\n        /* \"--CODEGEN--\":3411:3412   */\n      dup1\n        /* \"--CODEGEN--\":3404:3416   */\n      revert\n        /* \"--CODEGEN--\":3368:3370   */\n    tag_296:\n        /* \"--CODEGEN--\":3434:3497   */\n      tag_297\n        /* \"--CODEGEN--\":3489:3496   */\n      dup14\n        /* \"--CODEGEN--\":3480:3486   */\n      dup3\n        /* \"--CODEGEN--\":3469:3478   */\n      dup15\n        /* \"--CODEGEN--\":3465:3487   */\n      add\n        /* \"--CODEGEN--\":3434:3497   */\n      jump(tag_260)\n    tag_297:\n        /* \"--CODEGEN--\":3424:3497   */\n      swap10\n      pop\n        /* \"--CODEGEN--\":3309:3503   */\n      pop\n        /* \"--CODEGEN--\":3562:3564   */\n      0x40\n        /* \"--CODEGEN--\":3551:3560   */\n      dup12\n        /* \"--CODEGEN--\":3547:3565   */\n      add\n        /* \"--CODEGEN--\":3534:3566   */\n      calldataload\n        /* \"--CODEGEN--\":3586:3604   */\n      0xffffffffffffffff\n        /* \"--CODEGEN--\":3578:3584   */\n      dup2\n        /* \"--CODEGEN--\":3575:3605   */\n      gt\n        /* \"--CODEGEN--\":3572:3574   */\n      iszero\n      tag_298\n      jumpi\n        /* \"--CODEGEN--\":3618:3619   */\n      0x0\n        /* \"--CODEGEN--\":3615:3616   */\n      dup1\n        /* \"--CODEGEN--\":3608:3620   */\n      revert\n        /* \"--CODEGEN--\":3572:3574   */\n    tag_298:\n        /* \"--CODEGEN--\":3638:3701   */\n      tag_299\n        /* \"--CODEGEN--\":3693:3700   */\n      dup14\n        /* \"--CODEGEN--\":3684:3690   */\n      dup3\n        /* \"--CODEGEN--\":3673:3682   */\n      dup15\n        /* \"--CODEGEN--\":3669:3691   */\n      add\n        /* \"--CODEGEN--\":3638:3701   */\n      jump(tag_260)\n    tag_299:\n        /* \"--CODEGEN--\":3628:3701   */\n      swap9\n      pop\n        /* \"--CODEGEN--\":3513:3707   */\n      pop\n        /* \"--CODEGEN--\":3766:3768   */\n      0x60\n        /* \"--CODEGEN--\":3755:3764   */\n      dup12\n        /* \"--CODEGEN--\":3751:3769   */\n      add\n        /* \"--CODEGEN--\":3738:3770   */\n      calldataload\n        /* \"--CODEGEN--\":3790:3808   */\n      0xffffffffffffffff\n        /* \"--CODEGEN--\":3782:3788   */\n      dup2\n        /* \"--CODEGEN--\":3779:3809   */\n      gt\n        /* \"--CODEGEN--\":3776:3778   */\n      iszero\n      tag_300\n      jumpi\n        /* \"--CODEGEN--\":3822:3823   */\n      0x0\n        /* \"--CODEGEN--\":3819:3820   */\n      dup1\n        /* \"--CODEGEN--\":3812:3824   */\n      revert\n        /* \"--CODEGEN--\":3776:3778   */\n    tag_300:\n        /* \"--CODEGEN--\":3842:3905   */\n      tag_301\n        /* \"--CODEGEN--\":3897:3904   */\n      dup14\n        /* \"--CODEGEN--\":3888:3894   */\n      dup3\n        /* \"--CODEGEN--\":3877:3886   */\n      dup15\n        /* \"--CODEGEN--\":3873:3895   */\n      add\n        /* \"--CODEGEN--\":3842:3905   */\n      jump(tag_260)\n    tag_301:\n        /* \"--CODEGEN--\":3832:3905   */\n      swap8\n      pop\n        /* \"--CODEGEN--\":3717:3911   */\n      pop\n        /* \"--CODEGEN--\":3970:3973   */\n      0x80\n        /* \"--CODEGEN--\":3959:3968   */\n      dup12\n        /* \"--CODEGEN--\":3955:3974   */\n      add\n        /* \"--CODEGEN--\":3942:3975   */\n      calldataload\n        /* \"--CODEGEN--\":3995:4013   */\n      0xffffffffffffffff\n        /* \"--CODEGEN--\":3987:3993   */\n      dup2\n        /* \"--CODEGEN--\":3984:4014   */\n      gt\n        /* \"--CODEGEN--\":3981:3983   */\n      iszero\n      tag_302\n      jumpi\n        /* \"--CODEGEN--\":4027:4028   */\n      0x0\n        /* \"--CODEGEN--\":4024:4025   */\n      dup1\n        /* \"--CODEGEN--\":4017:4029   */\n      revert\n        /* \"--CODEGEN--\":3981:3983   */\n    tag_302:\n        /* \"--CODEGEN--\":4047:4110   */\n      tag_303\n        /* \"--CODEGEN--\":4102:4109   */\n      dup14\n        /* \"--CODEGEN--\":4093:4099   */\n      dup3\n        /* \"--CODEGEN--\":4082:4091   */\n      dup15\n        /* \"--CODEGEN--\":4078:4100   */\n      add\n        /* \"--CODEGEN--\":4047:4110   */\n      jump(tag_260)\n    tag_303:\n        /* \"--CODEGEN--\":4037:4110   */\n      swap7\n      pop\n        /* \"--CODEGEN--\":3921:4116   */\n      pop\n        /* \"--CODEGEN--\":4175:4178   */\n      0xa0\n        /* \"--CODEGEN--\":4164:4173   */\n      dup12\n        /* \"--CODEGEN--\":4160:4179   */\n      add\n        /* \"--CODEGEN--\":4147:4180   */\n      calldataload\n        /* \"--CODEGEN--\":4200:4218   */\n      0xffffffffffffffff\n        /* \"--CODEGEN--\":4192:4198   */\n      dup2\n        /* \"--CODEGEN--\":4189:4219   */\n      gt\n        /* \"--CODEGEN--\":4186:4188   */\n      iszero\n      tag_304\n      jumpi\n        /* \"--CODEGEN--\":4232:4233   */\n      0x0\n        /* \"--CODEGEN--\":4229:4230   */\n      dup1\n        /* \"--CODEGEN--\":4222:4234   */\n      revert\n        /* \"--CODEGEN--\":4186:4188   */\n    tag_304:\n        /* \"--CODEGEN--\":4252:4315   */\n      tag_305\n        /* \"--CODEGEN--\":4307:4314   */\n      dup14\n        /* \"--CODEGEN--\":4298:4304   */\n      dup3\n        /* \"--CODEGEN--\":4287:4296   */\n      dup15\n        /* \"--CODEGEN--\":4283:4305   */\n      add\n        /* \"--CODEGEN--\":4252:4315   */\n      jump(tag_260)\n    tag_305:\n        /* \"--CODEGEN--\":4242:4315   */\n      swap6\n      pop\n        /* \"--CODEGEN--\":4126:4321   */\n      pop\n        /* \"--CODEGEN--\":4380:4383   */\n      0xc0\n        /* \"--CODEGEN--\":4369:4378   */\n      dup12\n        /* \"--CODEGEN--\":4365:4384   */\n      add\n        /* \"--CODEGEN--\":4352:4385   */\n      calldataload\n        /* \"--CODEGEN--\":4405:4423   */\n      0xffffffffffffffff\n        /* \"--CODEGEN--\":4397:4403   */\n      dup2\n        /* \"--CODEGEN--\":4394:4424   */\n      gt\n        /* \"--CODEGEN--\":4391:4393   */\n      iszero\n      tag_306\n      jumpi\n        /* \"--CODEGEN--\":4437:4438   */\n      0x0\n        /* \"--CODEGEN--\":4434:4435   */\n      dup1\n        /* \"--CODEGEN--\":4427:4439   */\n      revert\n        /* \"--CODEGEN--\":4391:4393   */\n    tag_306:\n        /* \"--CODEGEN--\":4457:4520   */\n      tag_307\n        /* \"--CODEGEN--\":4512:4519   */\n      dup14\n        /* \"--CODEGEN--\":4503:4509   */\n      dup3\n        /* \"--CODEGEN--\":4492:4501   */\n      dup15\n        /* \"--CODEGEN--\":4488:4510   */\n      add\n        /* \"--CODEGEN--\":4457:4520   */\n      jump(tag_260)\n    tag_307:\n        /* \"--CODEGEN--\":4447:4520   */\n      swap5\n      pop\n        /* \"--CODEGEN--\":4331:4526   */\n      pop\n        /* \"--CODEGEN--\":4585:4588   */\n      0xe0\n        /* \"--CODEGEN--\":4574:4583   */\n      dup12\n        /* \"--CODEGEN--\":4570:4589   */\n      add\n        /* \"--CODEGEN--\":4557:4590   */\n      calldataload\n        /* \"--CODEGEN--\":4610:4628   */\n      0xffffffffffffffff\n        /* \"--CODEGEN--\":4602:4608   */\n      dup2\n        /* \"--CODEGEN--\":4599:4629   */\n      gt\n        /* \"--CODEGEN--\":4596:4598   */\n      iszero\n      tag_308\n      jumpi\n        /* \"--CODEGEN--\":4642:4643   */\n      0x0\n        /* \"--CODEGEN--\":4639:4640   */\n      dup1\n        /* \"--CODEGEN--\":4632:4644   */\n      revert\n        /* \"--CODEGEN--\":4596:4598   */\n    tag_308:\n        /* \"--CODEGEN--\":4662:4725   */\n      tag_309\n        /* \"--CODEGEN--\":4717:4724   */\n      dup14\n        /* \"--CODEGEN--\":4708:4714   */\n      dup3\n        /* \"--CODEGEN--\":4697:4706   */\n      dup15\n        /* \"--CODEGEN--\":4693:4715   */\n      add\n        /* \"--CODEGEN--\":4662:4725   */\n      jump(tag_260)\n    tag_309:\n        /* \"--CODEGEN--\":4652:4725   */\n      swap4\n      pop\n        /* \"--CODEGEN--\":4536:4731   */\n      pop\n        /* \"--CODEGEN--\":4790:4793   */\n      0x100\n        /* \"--CODEGEN--\":4779:4788   */\n      dup12\n        /* \"--CODEGEN--\":4775:4794   */\n      add\n        /* \"--CODEGEN--\":4762:4795   */\n      calldataload\n        /* \"--CODEGEN--\":4815:4833   */\n      0xffffffffffffffff\n        /* \"--CODEGEN--\":4807:4813   */\n      dup2\n        /* \"--CODEGEN--\":4804:4834   */\n      gt\n        /* \"--CODEGEN--\":4801:4803   */\n      iszero\n      tag_310\n      jumpi\n        /* \"--CODEGEN--\":4847:4848   */\n      0x0\n        /* \"--CODEGEN--\":4844:4845   */\n      dup1\n        /* \"--CODEGEN--\":4837:4849   */\n      revert\n        /* \"--CODEGEN--\":4801:4803   */\n    tag_310:\n        /* \"--CODEGEN--\":4867:4930   */\n      tag_311\n        /* \"--CODEGEN--\":4922:4929   */\n      dup14\n        /* \"--CODEGEN--\":4913:4919   */\n      dup3\n        /* \"--CODEGEN--\":4902:4911   */\n      dup15\n        /* \"--CODEGEN--\":4898:4920   */\n      add\n        /* \"--CODEGEN--\":4867:4930   */\n      jump(tag_260)\n    tag_311:\n        /* \"--CODEGEN--\":4857:4930   */\n      swap3\n      pop\n        /* \"--CODEGEN--\":4741:4936   */\n      pop\n        /* \"--CODEGEN--\":4995:4998   */\n      0x120\n        /* \"--CODEGEN--\":4984:4993   */\n      dup12\n        /* \"--CODEGEN--\":4980:4999   */\n      add\n        /* \"--CODEGEN--\":4967:5000   */\n      calldataload\n        /* \"--CODEGEN--\":5020:5038   */\n      0xffffffffffffffff\n        /* \"--CODEGEN--\":5012:5018   */\n      dup2\n        /* \"--CODEGEN--\":5009:5039   */\n      gt\n        /* \"--CODEGEN--\":5006:5008   */\n      iszero\n      tag_312\n      jumpi\n        /* \"--CODEGEN--\":5052:5053   */\n      0x0\n        /* \"--CODEGEN--\":5049:5050   */\n      dup1\n        /* \"--CODEGEN--\":5042:5054   */\n      revert\n        /* \"--CODEGEN--\":5006:5008   */\n    tag_312:\n        /* \"--CODEGEN--\":5072:5135   */\n      tag_313\n        /* \"--CODEGEN--\":5127:5134   */\n      dup14\n        /* \"--CODEGEN--\":5118:5124   */\n      dup3\n        /* \"--CODEGEN--\":5107:5116   */\n      dup15\n        /* \"--CODEGEN--\":5103:5125   */\n      add\n        /* \"--CODEGEN--\":5072:5135   */\n      jump(tag_260)\n    tag_313:\n        /* \"--CODEGEN--\":5062:5135   */\n      swap2\n      pop\n        /* \"--CODEGEN--\":4946:5141   */\n      pop\n        /* \"--CODEGEN--\":3133:5151   */\n      swap3\n      swap6\n      swap9\n      swap12\n      swap2\n      swap5\n      swap8\n      swap11\n      pop\n      swap3\n      swap6\n      swap9\n      pop\n      jump\n        /* \"--CODEGEN--\":5158:6895   */\n    tag_88:\n      0x0\n      dup1\n      0x0\n      dup1\n      0x0\n      dup1\n      0x0\n        /* \"--CODEGEN--\":5434:5437   */\n      0xe0\n        /* \"--CODEGEN--\":5422:5431   */\n      dup9\n        /* \"--CODEGEN--\":5413:5420   */\n      dup11\n        /* \"--CODEGEN--\":5409:5432   */\n      sub\n        /* \"--CODEGEN--\":5405:5438   */\n      slt\n        /* \"--CODEGEN--\":5402:5404   */\n      iszero\n      tag_315\n      jumpi\n        /* \"--CODEGEN--\":5451:5452   */\n      0x0\n        /* \"--CODEGEN--\":5448:5449   */\n      dup1\n        /* \"--CODEGEN--\":5441:5453   */\n      revert\n        /* \"--CODEGEN--\":5402:5404   */\n    tag_315:\n        /* \"--CODEGEN--\":5514:5515   */\n      0x0\n        /* \"--CODEGEN--\":5503:5512   */\n      dup9\n        /* \"--CODEGEN--\":5499:5516   */\n      add\n        /* \"--CODEGEN--\":5486:5517   */\n      calldataload\n        /* \"--CODEGEN--\":5537:5555   */\n      0xffffffffffffffff\n        /* \"--CODEGEN--\":5529:5535   */\n      dup2\n        /* \"--CODEGEN--\":5526:5556   */\n      gt\n        /* \"--CODEGEN--\":5523:5525   */\n      iszero\n      tag_316\n      jumpi\n        /* \"--CODEGEN--\":5569:5570   */\n      0x0\n        /* \"--CODEGEN--\":5566:5567   */\n      dup1\n        /* \"--CODEGEN--\":5559:5571   */\n      revert\n        /* \"--CODEGEN--\":5523:5525   */\n    tag_316:\n        /* \"--CODEGEN--\":5589:5652   */\n      tag_317\n        /* \"--CODEGEN--\":5644:5651   */\n      dup11\n        /* \"--CODEGEN--\":5635:5641   */\n      dup3\n        /* \"--CODEGEN--\":5624:5633   */\n      dup12\n        /* \"--CODEGEN--\":5620:5642   */\n      add\n        /* \"--CODEGEN--\":5589:5652   */\n      jump(tag_260)\n    tag_317:\n        /* \"--CODEGEN--\":5579:5652   */\n      swap8\n      pop\n        /* \"--CODEGEN--\":5465:5658   */\n      pop\n        /* \"--CODEGEN--\":5717:5719   */\n      0x20\n        /* \"--CODEGEN--\":5706:5715   */\n      dup9\n        /* \"--CODEGEN--\":5702:5720   */\n      add\n        /* \"--CODEGEN--\":5689:5721   */\n      calldataload\n        /* \"--CODEGEN--\":5741:5759   */\n      0xffffffffffffffff\n        /* \"--CODEGEN--\":5733:5739   */\n      dup2\n        /* \"--CODEGEN--\":5730:5760   */\n      gt\n        /* \"--CODEGEN--\":5727:5729   */\n      iszero\n      tag_318\n      jumpi\n        /* \"--CODEGEN--\":5773:5774   */\n      0x0\n        /* \"--CODEGEN--\":5770:5771   */\n      dup1\n        /* \"--CODEGEN--\":5763:5775   */\n      revert\n        /* \"--CODEGEN--\":5727:5729   */\n    tag_318:\n        /* \"--CODEGEN--\":5793:5856   */\n      tag_319\n        /* \"--CODEGEN--\":5848:5855   */\n      dup11\n        /* \"--CODEGEN--\":5839:5845   */\n      dup3\n        /* \"--CODEGEN--\":5828:5837   */\n      dup12\n        /* \"--CODEGEN--\":5824:5846   */\n      add\n        /* \"--CODEGEN--\":5793:5856   */\n      jump(tag_260)\n    tag_319:\n        /* \"--CODEGEN--\":5783:5856   */\n      swap7\n      pop\n        /* \"--CODEGEN--\":5668:5862   */\n      pop\n        /* \"--CODEGEN--\":5921:5923   */\n      0x40\n        /* \"--CODEGEN--\":5910:5919   */\n      dup9\n        /* \"--CODEGEN--\":5906:5924   */\n      add\n        /* \"--CODEGEN--\":5893:5925   */\n      calldataload\n        /* \"--CODEGEN--\":5945:5963   */\n      0xffffffffffffffff\n        /* \"--CODEGEN--\":5937:5943   */\n      dup2\n        /* \"--CODEGEN--\":5934:5964   */\n      gt\n        /* \"--CODEGEN--\":5931:5933   */\n      iszero\n      tag_320\n      jumpi\n        /* \"--CODEGEN--\":5977:5978   */\n      0x0\n        /* \"--CODEGEN--\":5974:5975   */\n      dup1\n        /* \"--CODEGEN--\":5967:5979   */\n      revert\n        /* \"--CODEGEN--\":5931:5933   */\n    tag_320:\n        /* \"--CODEGEN--\":5997:6060   */\n      tag_321\n        /* \"--CODEGEN--\":6052:6059   */\n      dup11\n        /* \"--CODEGEN--\":6043:6049   */\n      dup3\n        /* \"--CODEGEN--\":6032:6041   */\n      dup12\n        /* \"--CODEGEN--\":6028:6050   */\n      add\n        /* \"--CODEGEN--\":5997:6060   */\n      jump(tag_260)\n    tag_321:\n        /* \"--CODEGEN--\":5987:6060   */\n      swap6\n      pop\n        /* \"--CODEGEN--\":5872:6066   */\n      pop\n        /* \"--CODEGEN--\":6125:6127   */\n      0x60\n        /* \"--CODEGEN--\":6114:6123   */\n      dup9\n        /* \"--CODEGEN--\":6110:6128   */\n      add\n        /* \"--CODEGEN--\":6097:6129   */\n      calldataload\n        /* \"--CODEGEN--\":6149:6167   */\n      0xffffffffffffffff\n        /* \"--CODEGEN--\":6141:6147   */\n      dup2\n        /* \"--CODEGEN--\":6138:6168   */\n      gt\n        /* \"--CODEGEN--\":6135:6137   */\n      iszero\n      tag_322\n      jumpi\n        /* \"--CODEGEN--\":6181:6182   */\n      0x0\n        /* \"--CODEGEN--\":6178:6179   */\n      dup1\n        /* \"--CODEGEN--\":6171:6183   */\n      revert\n        /* \"--CODEGEN--\":6135:6137   */\n    tag_322:\n        /* \"--CODEGEN--\":6201:6264   */\n      tag_323\n        /* \"--CODEGEN--\":6256:6263   */\n      dup11\n        /* \"--CODEGEN--\":6247:6253   */\n      dup3\n        /* \"--CODEGEN--\":6236:6245   */\n      dup12\n        /* \"--CODEGEN--\":6232:6254   */\n      add\n        /* \"--CODEGEN--\":6201:6264   */\n      jump(tag_260)\n    tag_323:\n        /* \"--CODEGEN--\":6191:6264   */\n      swap5\n      pop\n        /* \"--CODEGEN--\":6076:6270   */\n      pop\n        /* \"--CODEGEN--\":6329:6332   */\n      0x80\n        /* \"--CODEGEN--\":6318:6327   */\n      dup9\n        /* \"--CODEGEN--\":6314:6333   */\n      add\n        /* \"--CODEGEN--\":6301:6334   */\n      calldataload\n        /* \"--CODEGEN--\":6354:6372   */\n      0xffffffffffffffff\n        /* \"--CODEGEN--\":6346:6352   */\n      dup2\n        /* \"--CODEGEN--\":6343:6373   */\n      gt\n        /* \"--CODEGEN--\":6340:6342   */\n      iszero\n      tag_324\n      jumpi\n        /* \"--CODEGEN--\":6386:6387   */\n      0x0\n        /* \"--CODEGEN--\":6383:6384   */\n      dup1\n        /* \"--CODEGEN--\":6376:6388   */\n      revert\n        /* \"--CODEGEN--\":6340:6342   */\n    tag_324:\n        /* \"--CODEGEN--\":6406:6469   */\n      tag_325\n        /* \"--CODEGEN--\":6461:6468   */\n      dup11\n        /* \"--CODEGEN--\":6452:6458   */\n      dup3\n        /* \"--CODEGEN--\":6441:6450   */\n      dup12\n        /* \"--CODEGEN--\":6437:6459   */\n      add\n        /* \"--CODEGEN--\":6406:6469   */\n      jump(tag_260)\n    tag_325:\n        /* \"--CODEGEN--\":6396:6469   */\n      swap4\n      pop\n        /* \"--CODEGEN--\":6280:6475   */\n      pop\n        /* \"--CODEGEN--\":6534:6537   */\n      0xa0\n        /* \"--CODEGEN--\":6523:6532   */\n      dup9\n        /* \"--CODEGEN--\":6519:6538   */\n      add\n        /* \"--CODEGEN--\":6506:6539   */\n      calldataload\n        /* \"--CODEGEN--\":6559:6577   */\n      0xffffffffffffffff\n        /* \"--CODEGEN--\":6551:6557   */\n      dup2\n        /* \"--CODEGEN--\":6548:6578   */\n      gt\n        /* \"--CODEGEN--\":6545:6547   */\n      iszero\n      tag_326\n      jumpi\n        /* \"--CODEGEN--\":6591:6592   */\n      0x0\n        /* \"--CODEGEN--\":6588:6589   */\n      dup1\n        /* \"--CODEGEN--\":6581:6593   */\n      revert\n        /* \"--CODEGEN--\":6545:6547   */\n    tag_326:\n        /* \"--CODEGEN--\":6611:6674   */\n      tag_327\n        /* \"--CODEGEN--\":6666:6673   */\n      dup11\n        /* \"--CODEGEN--\":6657:6663   */\n      dup3\n        /* \"--CODEGEN--\":6646:6655   */\n      dup12\n        /* \"--CODEGEN--\":6642:6664   */\n      add\n        /* \"--CODEGEN--\":6611:6674   */\n      jump(tag_260)\n    tag_327:\n        /* \"--CODEGEN--\":6601:6674   */\n      swap3\n      pop\n        /* \"--CODEGEN--\":6485:6680   */\n      pop\n        /* \"--CODEGEN--\":6739:6742   */\n      0xc0\n        /* \"--CODEGEN--\":6728:6737   */\n      dup9\n        /* \"--CODEGEN--\":6724:6743   */\n      add\n        /* \"--CODEGEN--\":6711:6744   */\n      calldataload\n        /* \"--CODEGEN--\":6764:6782   */\n      0xffffffffffffffff\n        /* \"--CODEGEN--\":6756:6762   */\n      dup2\n        /* \"--CODEGEN--\":6753:6783   */\n      gt\n        /* \"--CODEGEN--\":6750:6752   */\n      iszero\n      tag_328\n      jumpi\n        /* \"--CODEGEN--\":6796:6797   */\n      0x0\n        /* \"--CODEGEN--\":6793:6794   */\n      dup1\n        /* \"--CODEGEN--\":6786:6798   */\n      revert\n        /* \"--CODEGEN--\":6750:6752   */\n    tag_328:\n        /* \"--CODEGEN--\":6816:6879   */\n      tag_329\n        /* \"--CODEGEN--\":6871:6878   */\n      dup11\n        /* \"--CODEGEN--\":6862:6868   */\n      dup3\n        /* \"--CODEGEN--\":6851:6860   */\n      dup12\n        /* \"--CODEGEN--\":6847:6869   */\n      add\n        /* \"--CODEGEN--\":6816:6879   */\n      jump(tag_260)\n    tag_329:\n        /* \"--CODEGEN--\":6806:6879   */\n      swap2\n      pop\n        /* \"--CODEGEN--\":6690:6885   */\n      pop\n        /* \"--CODEGEN--\":5396:6895   */\n      swap3\n      swap6\n      swap9\n      swap2\n      swap5\n      swap8\n      pop\n      swap3\n      swap6\n      pop\n      jump\n        /* \"--CODEGEN--\":6902:9103   */\n    tag_65:\n      0x0\n      dup1\n      0x0\n      dup1\n      0x0\n      dup1\n      0x0\n      dup1\n      0x0\n        /* \"--CODEGEN--\":7232:7235   */\n      0x120\n        /* \"--CODEGEN--\":7220:7229   */\n      dup11\n        /* \"--CODEGEN--\":7211:7218   */\n      dup13\n        /* \"--CODEGEN--\":7207:7230   */\n      sub\n        /* \"--CODEGEN--\":7203:7236   */\n      slt\n        /* \"--CODEGEN--\":7200:7202   */\n      iszero\n      tag_331\n      jumpi\n        /* \"--CODEGEN--\":7249:7250   */\n      0x0\n        /* \"--CODEGEN--\":7246:7247   */\n      dup1\n        /* \"--CODEGEN--\":7239:7251   */\n      revert\n        /* \"--CODEGEN--\":7200:7202   */\n    tag_331:\n        /* \"--CODEGEN--\":7312:7313   */\n      0x0\n        /* \"--CODEGEN--\":7301:7310   */\n      dup11\n        /* \"--CODEGEN--\":7297:7314   */\n      add\n        /* \"--CODEGEN--\":7284:7315   */\n      calldataload\n        /* \"--CODEGEN--\":7335:7353   */\n      0xffffffffffffffff\n        /* \"--CODEGEN--\":7327:7333   */\n      dup2\n        /* \"--CODEGEN--\":7324:7354   */\n      gt\n        /* \"--CODEGEN--\":7321:7323   */\n      iszero\n      tag_332\n      jumpi\n        /* \"--CODEGEN--\":7367:7368   */\n      0x0\n        /* \"--CODEGEN--\":7364:7365   */\n      dup1\n        /* \"--CODEGEN--\":7357:7369   */\n      revert\n        /* \"--CODEGEN--\":7321:7323   */\n    tag_332:\n        /* \"--CODEGEN--\":7387:7450   */\n      tag_333\n        /* \"--CODEGEN--\":7442:7449   */\n      dup13\n        /* \"--CODEGEN--\":7433:7439   */\n      dup3\n        /* \"--CODEGEN--\":7422:7431   */\n      dup14\n        /* \"--CODEGEN--\":7418:7440   */\n      add\n        /* \"--CODEGEN--\":7387:7450   */\n      jump(tag_260)\n    tag_333:\n        /* \"--CODEGEN--\":7377:7450   */\n      swap10\n      pop\n        /* \"--CODEGEN--\":7263:7456   */\n      pop\n        /* \"--CODEGEN--\":7515:7517   */\n      0x20\n        /* \"--CODEGEN--\":7504:7513   */\n      dup11\n        /* \"--CODEGEN--\":7500:7518   */\n      add\n        /* \"--CODEGEN--\":7487:7519   */\n      calldataload\n        /* \"--CODEGEN--\":7539:7557   */\n      0xffffffffffffffff\n        /* \"--CODEGEN--\":7531:7537   */\n      dup2\n        /* \"--CODEGEN--\":7528:7558   */\n      gt\n        /* \"--CODEGEN--\":7525:7527   */\n      iszero\n      tag_334\n      jumpi\n        /* \"--CODEGEN--\":7571:7572   */\n      0x0\n        /* \"--CODEGEN--\":7568:7569   */\n      dup1\n        /* \"--CODEGEN--\":7561:7573   */\n      revert\n        /* \"--CODEGEN--\":7525:7527   */\n    tag_334:\n        /* \"--CODEGEN--\":7591:7654   */\n      tag_335\n        /* \"--CODEGEN--\":7646:7653   */\n      dup13\n        /* \"--CODEGEN--\":7637:7643   */\n      dup3\n        /* \"--CODEGEN--\":7626:7635   */\n      dup14\n        /* \"--CODEGEN--\":7622:7644   */\n      add\n        /* \"--CODEGEN--\":7591:7654   */\n      jump(tag_260)\n    tag_335:\n        /* \"--CODEGEN--\":7581:7654   */\n      swap9\n      pop\n        /* \"--CODEGEN--\":7466:7660   */\n      pop\n        /* \"--CODEGEN--\":7719:7721   */\n      0x40\n        /* \"--CODEGEN--\":7708:7717   */\n      dup11\n        /* \"--CODEGEN--\":7704:7722   */\n      add\n        /* \"--CODEGEN--\":7691:7723   */\n      calldataload\n        /* \"--CODEGEN--\":7743:7761   */\n      0xffffffffffffffff\n        /* \"--CODEGEN--\":7735:7741   */\n      dup2\n        /* \"--CODEGEN--\":7732:7762   */\n      gt\n        /* \"--CODEGEN--\":7729:7731   */\n      iszero\n      tag_336\n      jumpi\n        /* \"--CODEGEN--\":7775:7776   */\n      0x0\n        /* \"--CODEGEN--\":7772:7773   */\n      dup1\n        /* \"--CODEGEN--\":7765:7777   */\n      revert\n        /* \"--CODEGEN--\":7729:7731   */\n    tag_336:\n        /* \"--CODEGEN--\":7795:7858   */\n      tag_337\n        /* \"--CODEGEN--\":7850:7857   */\n      dup13\n        /* \"--CODEGEN--\":7841:7847   */\n      dup3\n        /* \"--CODEGEN--\":7830:7839   */\n      dup14\n        /* \"--CODEGEN--\":7826:7848   */\n      add\n        /* \"--CODEGEN--\":7795:7858   */\n      jump(tag_260)\n    tag_337:\n        /* \"--CODEGEN--\":7785:7858   */\n      swap8\n      pop\n        /* \"--CODEGEN--\":7670:7864   */\n      pop\n        /* \"--CODEGEN--\":7923:7925   */\n      0x60\n        /* \"--CODEGEN--\":7912:7921   */\n      dup11\n        /* \"--CODEGEN--\":7908:7926   */\n      add\n        /* \"--CODEGEN--\":7895:7927   */\n      calldataload\n        /* \"--CODEGEN--\":7947:7965   */\n      0xffffffffffffffff\n        /* \"--CODEGEN--\":7939:7945   */\n      dup2\n        /* \"--CODEGEN--\":7936:7966   */\n      gt\n        /* \"--CODEGEN--\":7933:7935   */\n      iszero\n      tag_338\n      jumpi\n        /* \"--CODEGEN--\":7979:7980   */\n      0x0\n        /* \"--CODEGEN--\":7976:7977   */\n      dup1\n        /* \"--CODEGEN--\":7969:7981   */\n      revert\n        /* \"--CODEGEN--\":7933:7935   */\n    tag_338:\n        /* \"--CODEGEN--\":7999:8062   */\n      tag_339\n        /* \"--CODEGEN--\":8054:8061   */\n      dup13\n        /* \"--CODEGEN--\":8045:8051   */\n      dup3\n        /* \"--CODEGEN--\":8034:8043   */\n      dup14\n        /* \"--CODEGEN--\":8030:8052   */\n      add\n        /* \"--CODEGEN--\":7999:8062   */\n      jump(tag_260)\n    tag_339:\n        /* \"--CODEGEN--\":7989:8062   */\n      swap7\n      pop\n        /* \"--CODEGEN--\":7874:8068   */\n      pop\n        /* \"--CODEGEN--\":8127:8130   */\n      0x80\n        /* \"--CODEGEN--\":8116:8125   */\n      dup11\n        /* \"--CODEGEN--\":8112:8131   */\n      add\n        /* \"--CODEGEN--\":8099:8132   */\n      calldataload\n        /* \"--CODEGEN--\":8152:8170   */\n      0xffffffffffffffff\n        /* \"--CODEGEN--\":8144:8150   */\n      dup2\n        /* \"--CODEGEN--\":8141:8171   */\n      gt\n        /* \"--CODEGEN--\":8138:8140   */\n      iszero\n      tag_340\n      jumpi\n        /* \"--CODEGEN--\":8184:8185   */\n      0x0\n        /* \"--CODEGEN--\":8181:8182   */\n      dup1\n        /* \"--CODEGEN--\":8174:8186   */\n      revert\n        /* \"--CODEGEN--\":8138:8140   */\n    tag_340:\n        /* \"--CODEGEN--\":8204:8267   */\n      tag_341\n        /* \"--CODEGEN--\":8259:8266   */\n      dup13\n        /* \"--CODEGEN--\":8250:8256   */\n      dup3\n        /* \"--CODEGEN--\":8239:8248   */\n      dup14\n        /* \"--CODEGEN--\":8235:8257   */\n      add\n        /* \"--CODEGEN--\":8204:8267   */\n      jump(tag_260)\n    tag_341:\n        /* \"--CODEGEN--\":8194:8267   */\n      swap6\n      pop\n        /* \"--CODEGEN--\":8078:8273   */\n      pop\n        /* \"--CODEGEN--\":8332:8335   */\n      0xa0\n        /* \"--CODEGEN--\":8321:8330   */\n      dup11\n        /* \"--CODEGEN--\":8317:8336   */\n      add\n        /* \"--CODEGEN--\":8304:8337   */\n      calldataload\n        /* \"--CODEGEN--\":8357:8375   */\n      0xffffffffffffffff\n        /* \"--CODEGEN--\":8349:8355   */\n      dup2\n        /* \"--CODEGEN--\":8346:8376   */\n      gt\n        /* \"--CODEGEN--\":8343:8345   */\n      iszero\n      tag_342\n      jumpi\n        /* \"--CODEGEN--\":8389:8390   */\n      0x0\n        /* \"--CODEGEN--\":8386:8387   */\n      dup1\n        /* \"--CODEGEN--\":8379:8391   */\n      revert\n        /* \"--CODEGEN--\":8343:8345   */\n    tag_342:\n        /* \"--CODEGEN--\":8409:8472   */\n      tag_343\n        /* \"--CODEGEN--\":8464:8471   */\n      dup13\n        /* \"--CODEGEN--\":8455:8461   */\n      dup3\n        /* \"--CODEGEN--\":8444:8453   */\n      dup14\n        /* \"--CODEGEN--\":8440:8462   */\n      add\n        /* \"--CODEGEN--\":8409:8472   */\n      jump(tag_260)\n    tag_343:\n        /* \"--CODEGEN--\":8399:8472   */\n      swap5\n      pop\n        /* \"--CODEGEN--\":8283:8478   */\n      pop\n        /* \"--CODEGEN--\":8537:8540   */\n      0xc0\n        /* \"--CODEGEN--\":8526:8535   */\n      dup11\n        /* \"--CODEGEN--\":8522:8541   */\n      add\n        /* \"--CODEGEN--\":8509:8542   */\n      calldataload\n        /* \"--CODEGEN--\":8562:8580   */\n      0xffffffffffffffff\n        /* \"--CODEGEN--\":8554:8560   */\n      dup2\n        /* \"--CODEGEN--\":8551:8581   */\n      gt\n        /* \"--CODEGEN--\":8548:8550   */\n      iszero\n      tag_344\n      jumpi\n        /* \"--CODEGEN--\":8594:8595   */\n      0x0\n        /* \"--CODEGEN--\":8591:8592   */\n      dup1\n        /* \"--CODEGEN--\":8584:8596   */\n      revert\n        /* \"--CODEGEN--\":8548:8550   */\n    tag_344:\n        /* \"--CODEGEN--\":8614:8677   */\n      tag_345\n        /* \"--CODEGEN--\":8669:8676   */\n      dup13\n        /* \"--CODEGEN--\":8660:8666   */\n      dup3\n        /* \"--CODEGEN--\":8649:8658   */\n      dup14\n        /* \"--CODEGEN--\":8645:8667   */\n      add\n        /* \"--CODEGEN--\":8614:8677   */\n      jump(tag_260)\n    tag_345:\n        /* \"--CODEGEN--\":8604:8677   */\n      swap4\n      pop\n        /* \"--CODEGEN--\":8488:8683   */\n      pop\n        /* \"--CODEGEN--\":8742:8745   */\n      0xe0\n        /* \"--CODEGEN--\":8731:8740   */\n      dup11\n        /* \"--CODEGEN--\":8727:8746   */\n      add\n        /* \"--CODEGEN--\":8714:8747   */\n      calldataload\n        /* \"--CODEGEN--\":8767:8785   */\n      0xffffffffffffffff\n        /* \"--CODEGEN--\":8759:8765   */\n      dup2\n        /* \"--CODEGEN--\":8756:8786   */\n      gt\n        /* \"--CODEGEN--\":8753:8755   */\n      iszero\n      tag_346\n      jumpi\n        /* \"--CODEGEN--\":8799:8800   */\n      0x0\n        /* \"--CODEGEN--\":8796:8797   */\n      dup1\n        /* \"--CODEGEN--\":8789:8801   */\n      revert\n        /* \"--CODEGEN--\":8753:8755   */\n    tag_346:\n        /* \"--CODEGEN--\":8819:8882   */\n      tag_347\n        /* \"--CODEGEN--\":8874:8881   */\n      dup13\n        /* \"--CODEGEN--\":8865:8871   */\n      dup3\n        /* \"--CODEGEN--\":8854:8863   */\n      dup14\n        /* \"--CODEGEN--\":8850:8872   */\n      add\n        /* \"--CODEGEN--\":8819:8882   */\n      jump(tag_260)\n    tag_347:\n        /* \"--CODEGEN--\":8809:8882   */\n      swap3\n      pop\n        /* \"--CODEGEN--\":8693:8888   */\n      pop\n        /* \"--CODEGEN--\":8947:8950   */\n      0x100\n        /* \"--CODEGEN--\":8936:8945   */\n      dup11\n        /* \"--CODEGEN--\":8932:8951   */\n      add\n        /* \"--CODEGEN--\":8919:8952   */\n      calldataload\n        /* \"--CODEGEN--\":8972:8990   */\n      0xffffffffffffffff\n        /* \"--CODEGEN--\":8964:8970   */\n      dup2\n        /* \"--CODEGEN--\":8961:8991   */\n      gt\n        /* \"--CODEGEN--\":8958:8960   */\n      iszero\n      tag_348\n      jumpi\n        /* \"--CODEGEN--\":9004:9005   */\n      0x0\n        /* \"--CODEGEN--\":9001:9002   */\n      dup1\n        /* \"--CODEGEN--\":8994:9006   */\n      revert\n        /* \"--CODEGEN--\":8958:8960   */\n    tag_348:\n        /* \"--CODEGEN--\":9024:9087   */\n      tag_349\n        /* \"--CODEGEN--\":9079:9086   */\n      dup13\n        /* \"--CODEGEN--\":9070:9076   */\n      dup3\n        /* \"--CODEGEN--\":9059:9068   */\n      dup14\n        /* \"--CODEGEN--\":9055:9077   */\n      add\n        /* \"--CODEGEN--\":9024:9087   */\n      jump(tag_260)\n    tag_349:\n        /* \"--CODEGEN--\":9014:9087   */\n      swap2\n      pop\n        /* \"--CODEGEN--\":8898:9093   */\n      pop\n        /* \"--CODEGEN--\":7194:9103   */\n      swap3\n      swap6\n      swap9\n      pop\n      swap3\n      swap6\n      swap9\n      pop\n      swap3\n      swap6\n      swap9\n      jump\n        /* \"--CODEGEN--\":9110:9351   */\n    tag_49:\n      0x0\n        /* \"--CODEGEN--\":9214:9216   */\n      0x20\n        /* \"--CODEGEN--\":9202:9211   */\n      dup3\n        /* \"--CODEGEN--\":9193:9200   */\n      dup5\n        /* \"--CODEGEN--\":9189:9212   */\n      sub\n        /* \"--CODEGEN--\":9185:9217   */\n      slt\n        /* \"--CODEGEN--\":9182:9184   */\n      iszero\n      tag_351\n      jumpi\n        /* \"--CODEGEN--\":9230:9231   */\n      0x0\n        /* \"--CODEGEN--\":9227:9228   */\n      dup1\n        /* \"--CODEGEN--\":9220:9232   */\n      revert\n        /* \"--CODEGEN--\":9182:9184   */\n    tag_351:\n        /* \"--CODEGEN--\":9265:9266   */\n      0x0\n        /* \"--CODEGEN--\":9282:9335   */\n      tag_352\n        /* \"--CODEGEN--\":9327:9334   */\n      dup5\n        /* \"--CODEGEN--\":9318:9324   */\n      dup3\n        /* \"--CODEGEN--\":9307:9316   */\n      dup6\n        /* \"--CODEGEN--\":9303:9325   */\n      add\n        /* \"--CODEGEN--\":9282:9335   */\n      jump(tag_270)\n    tag_352:\n        /* \"--CODEGEN--\":9272:9335   */\n      swap2\n      pop\n        /* \"--CODEGEN--\":9244:9341   */\n      pop\n        /* \"--CODEGEN--\":9176:9351   */\n      swap3\n      swap2\n      pop\n      pop\n      jump\n        /* \"--CODEGEN--\":9358:9468   */\n    tag_354:\n        /* \"--CODEGEN--\":9431:9462   */\n      tag_355\n        /* \"--CODEGEN--\":9456:9461   */\n      dup2\n        /* \"--CODEGEN--\":9431:9462   */\n      jump(tag_356)\n    tag_355:\n        /* \"--CODEGEN--\":9426:9429   */\n      dup3\n        /* \"--CODEGEN--\":9419:9463   */\n      mstore\n        /* \"--CODEGEN--\":9413:9468   */\n      pop\n      pop\n      jump\n        /* \"--CODEGEN--\":9506:10096   */\n    tag_358:\n      0x0\n        /* \"--CODEGEN--\":9641:9695   */\n      tag_359\n        /* \"--CODEGEN--\":9689:9694   */\n      dup3\n        /* \"--CODEGEN--\":9641:9695   */\n      jump(tag_360)\n    tag_359:\n        /* \"--CODEGEN--\":9713:9719   */\n      dup1\n        /* \"--CODEGEN--\":9708:9711   */\n      dup5\n        /* \"--CODEGEN--\":9701:9720   */\n      mstore\n        /* \"--CODEGEN--\":9737:9741   */\n      0x20\n        /* \"--CODEGEN--\":9732:9735   */\n      dup5\n        /* \"--CODEGEN--\":9728:9742   */\n      add\n        /* \"--CODEGEN--\":9721:9742   */\n      swap4\n      pop\n        /* \"--CODEGEN--\":9782:9838   */\n      tag_361\n        /* \"--CODEGEN--\":9832:9837   */\n      dup4\n        /* \"--CODEGEN--\":9782:9838   */\n      jump(tag_362)\n    tag_361:\n        /* \"--CODEGEN--\":9859:9860   */\n      0x0\n        /* \"--CODEGEN--\":9844:10074   */\n    tag_363:\n        /* \"--CODEGEN--\":9869:9875   */\n      dup3\n        /* \"--CODEGEN--\":9866:9867   */\n      dup2\n        /* \"--CODEGEN--\":9863:9876   */\n      lt\n        /* \"--CODEGEN--\":9844:10074   */\n      iszero\n      tag_364\n      jumpi\n        /* \"--CODEGEN--\":9909:9962   */\n      tag_366\n        /* \"--CODEGEN--\":9958:9961   */\n      dup7\n        /* \"--CODEGEN--\":9949:9955   */\n      dup4\n        /* \"--CODEGEN--\":9943:9956   */\n      mload\n        /* \"--CODEGEN--\":9909:9962   */\n      jump(tag_354)\n    tag_366:\n        /* \"--CODEGEN--\":9979:10039   */\n      tag_367\n        /* \"--CODEGEN--\":10032:10038   */\n      dup3\n        /* \"--CODEGEN--\":9979:10039   */\n      jump(tag_368)\n    tag_367:\n        /* \"--CODEGEN--\":9969:10039   */\n      swap2\n      pop\n        /* \"--CODEGEN--\":10062:10066   */\n      0x20\n        /* \"--CODEGEN--\":10057:10060   */\n      dup7\n        /* \"--CODEGEN--\":10053:10067   */\n      add\n        /* \"--CODEGEN--\":10046:10067   */\n      swap6\n      pop\n        /* \"--CODEGEN--\":9891:9892   */\n      0x1\n        /* \"--CODEGEN--\":9888:9889   */\n      dup2\n        /* \"--CODEGEN--\":9884:9893   */\n      add\n        /* \"--CODEGEN--\":9879:9893   */\n      swap1\n      pop\n        /* \"--CODEGEN--\":9844:10074   */\n      jump(tag_363)\n    tag_364:\n        /* \"--CODEGEN--\":9848:9862   */\n      pop\n        /* \"--CODEGEN--\":10087:10090   */\n      dup5\n        /* \"--CODEGEN--\":10080:10090   */\n      swap3\n      pop\n        /* \"--CODEGEN--\":9620:10096   */\n      pop\n      pop\n      swap3\n      swap2\n      pop\n      pop\n      jump\n        /* \"--CODEGEN--\":10104:10205   */\n    tag_370:\n        /* \"--CODEGEN--\":10171:10199   */\n      tag_371\n        /* \"--CODEGEN--\":10193:10198   */\n      dup2\n        /* \"--CODEGEN--\":10171:10199   */\n      jump(tag_372)\n    tag_371:\n        /* \"--CODEGEN--\":10166:10169   */\n      dup3\n        /* \"--CODEGEN--\":10159:10200   */\n      mstore\n        /* \"--CODEGEN--\":10153:10205   */\n      pop\n      pop\n      jump\n        /* \"--CODEGEN--\":10212:10512   */\n    tag_374:\n      0x0\n        /* \"--CODEGEN--\":10314:10353   */\n      tag_375\n        /* \"--CODEGEN--\":10347:10352   */\n      dup3\n        /* \"--CODEGEN--\":10314:10353   */\n      jump(tag_376)\n    tag_375:\n        /* \"--CODEGEN--\":10370:10376   */\n      dup1\n        /* \"--CODEGEN--\":10365:10368   */\n      dup5\n        /* \"--CODEGEN--\":10358:10377   */\n      mstore\n        /* \"--CODEGEN--\":10382:10445   */\n      tag_377\n        /* \"--CODEGEN--\":10438:10444   */\n      dup2\n        /* \"--CODEGEN--\":10431:10435   */\n      0x20\n        /* \"--CODEGEN--\":10426:10429   */\n      dup7\n        /* \"--CODEGEN--\":10422:10436   */\n      add\n        /* \"--CODEGEN--\":10415:10419   */\n      0x20\n        /* \"--CODEGEN--\":10408:10413   */\n      dup7\n        /* \"--CODEGEN--\":10404:10420   */\n      add\n        /* \"--CODEGEN--\":10382:10445   */\n      jump(tag_378)\n    tag_377:\n        /* \"--CODEGEN--\":10477:10506   */\n      tag_379\n        /* \"--CODEGEN--\":10499:10505   */\n      dup2\n        /* \"--CODEGEN--\":10477:10506   */\n      jump(tag_380)\n    tag_379:\n        /* \"--CODEGEN--\":10470:10474   */\n      0x20\n        /* \"--CODEGEN--\":10465:10468   */\n      dup6\n        /* \"--CODEGEN--\":10461:10475   */\n      add\n        /* \"--CODEGEN--\":10457:10507   */\n      add\n        /* \"--CODEGEN--\":10450:10507   */\n      swap2\n      pop\n        /* \"--CODEGEN--\":10294:10512   */\n      pop\n      swap3\n      swap2\n      pop\n      pop\n      jump\n        /* \"--CODEGEN--\":10519:10629   */\n    tag_382:\n        /* \"--CODEGEN--\":10592:10623   */\n      tag_383\n        /* \"--CODEGEN--\":10617:10622   */\n      dup2\n        /* \"--CODEGEN--\":10592:10623   */\n      jump(tag_384)\n    tag_383:\n        /* \"--CODEGEN--\":10587:10590   */\n      dup3\n        /* \"--CODEGEN--\":10580:10624   */\n      mstore\n        /* \"--CODEGEN--\":10574:10629   */\n      pop\n      pop\n      jump\n        /* \"--CODEGEN--\":10636:10829   */\n    tag_52:\n      0x0\n        /* \"--CODEGEN--\":10744:10746   */\n      0x20\n        /* \"--CODEGEN--\":10733:10742   */\n      dup3\n        /* \"--CODEGEN--\":10729:10747   */\n      add\n        /* \"--CODEGEN--\":10721:10747   */\n      swap1\n      pop\n        /* \"--CODEGEN--\":10758:10819   */\n      tag_386\n        /* \"--CODEGEN--\":10816:10817   */\n      0x0\n        /* \"--CODEGEN--\":10805:10814   */\n      dup4\n        /* \"--CODEGEN--\":10801:10818   */\n      add\n        /* \"--CODEGEN--\":10792:10798   */\n      dup5\n        /* \"--CODEGEN--\":10758:10819   */\n      jump(tag_354)\n    tag_386:\n        /* \"--CODEGEN--\":10715:10829   */\n      swap3\n      swap2\n      pop\n      pop\n      jump\n        /* \"--CODEGEN--\":10836:11177   */\n    tag_27:\n      0x0\n        /* \"--CODEGEN--\":10994:10996   */\n      0x20\n        /* \"--CODEGEN--\":10983:10992   */\n      dup3\n        /* \"--CODEGEN--\":10979:10997   */\n      add\n        /* \"--CODEGEN--\":10971:10997   */\n      swap1\n      pop\n        /* \"--CODEGEN--\":11044:11053   */\n      dup2\n        /* \"--CODEGEN--\":11038:11042   */\n      dup2\n        /* \"--CODEGEN--\":11034:11054   */\n      sub\n        /* \"--CODEGEN--\":11030:11031   */\n      0x0\n        /* \"--CODEGEN--\":11019:11028   */\n      dup4\n        /* \"--CODEGEN--\":11015:11032   */\n      add\n        /* \"--CODEGEN--\":11008:11055   */\n      mstore\n        /* \"--CODEGEN--\":11069:11167   */\n      tag_388\n        /* \"--CODEGEN--\":11162:11166   */\n      dup2\n        /* \"--CODEGEN--\":11153:11159   */\n      dup5\n        /* \"--CODEGEN--\":11069:11167   */\n      jump(tag_358)\n    tag_388:\n        /* \"--CODEGEN--\":11061:11167   */\n      swap1\n      pop\n        /* \"--CODEGEN--\":10965:11177   */\n      swap3\n      swap2\n      pop\n      pop\n      jump\n        /* \"--CODEGEN--\":11184:11365   */\n    tag_34:\n      0x0\n        /* \"--CODEGEN--\":11286:11288   */\n      0x20\n        /* \"--CODEGEN--\":11275:11284   */\n      dup3\n        /* \"--CODEGEN--\":11271:11289   */\n      add\n        /* \"--CODEGEN--\":11263:11289   */\n      swap1\n      pop\n        /* \"--CODEGEN--\":11300:11355   */\n      tag_390\n        /* \"--CODEGEN--\":11352:11353   */\n      0x0\n        /* \"--CODEGEN--\":11341:11350   */\n      dup4\n        /* \"--CODEGEN--\":11337:11354   */\n      add\n        /* \"--CODEGEN--\":11328:11334   */\n      dup5\n        /* \"--CODEGEN--\":11300:11355   */\n      jump(tag_370)\n    tag_390:\n        /* \"--CODEGEN--\":11257:11365   */\n      swap3\n      swap2\n      pop\n      pop\n      jump\n        /* \"--CODEGEN--\":11372:12601   */\n    tag_40:\n      0x0\n        /* \"--CODEGEN--\":11740:11743   */\n      0xc0\n        /* \"--CODEGEN--\":11729:11738   */\n      dup3\n        /* \"--CODEGEN--\":11725:11744   */\n      add\n        /* \"--CODEGEN--\":11717:11744   */\n      swap1\n      pop\n        /* \"--CODEGEN--\":11791:11800   */\n      dup2\n        /* \"--CODEGEN--\":11785:11789   */\n      dup2\n        /* \"--CODEGEN--\":11781:11801   */\n      sub\n        /* \"--CODEGEN--\":11777:11778   */\n      0x0\n        /* \"--CODEGEN--\":11766:11775   */\n      dup4\n        /* \"--CODEGEN--\":11762:11779   */\n      add\n        /* \"--CODEGEN--\":11755:11802   */\n      mstore\n        /* \"--CODEGEN--\":11816:11884   */\n      tag_392\n        /* \"--CODEGEN--\":11879:11883   */\n      dup2\n        /* \"--CODEGEN--\":11870:11876   */\n      dup10\n        /* \"--CODEGEN--\":11816:11884   */\n      jump(tag_374)\n    tag_392:\n        /* \"--CODEGEN--\":11808:11884   */\n      swap1\n      pop\n        /* \"--CODEGEN--\":11932:11941   */\n      dup2\n        /* \"--CODEGEN--\":11926:11930   */\n      dup2\n        /* \"--CODEGEN--\":11922:11942   */\n      sub\n        /* \"--CODEGEN--\":11917:11919   */\n      0x20\n        /* \"--CODEGEN--\":11906:11915   */\n      dup4\n        /* \"--CODEGEN--\":11902:11920   */\n      add\n        /* \"--CODEGEN--\":11895:11943   */\n      mstore\n        /* \"--CODEGEN--\":11957:12025   */\n      tag_393\n        /* \"--CODEGEN--\":12020:12024   */\n      dup2\n        /* \"--CODEGEN--\":12011:12017   */\n      dup9\n        /* \"--CODEGEN--\":11957:12025   */\n      jump(tag_374)\n    tag_393:\n        /* \"--CODEGEN--\":11949:12025   */\n      swap1\n      pop\n        /* \"--CODEGEN--\":12073:12082   */\n      dup2\n        /* \"--CODEGEN--\":12067:12071   */\n      dup2\n        /* \"--CODEGEN--\":12063:12083   */\n      sub\n        /* \"--CODEGEN--\":12058:12060   */\n      0x40\n        /* \"--CODEGEN--\":12047:12056   */\n      dup4\n        /* \"--CODEGEN--\":12043:12061   */\n      add\n        /* \"--CODEGEN--\":12036:12084   */\n      mstore\n        /* \"--CODEGEN--\":12098:12166   */\n      tag_394\n        /* \"--CODEGEN--\":12161:12165   */\n      dup2\n        /* \"--CODEGEN--\":12152:12158   */\n      dup8\n        /* \"--CODEGEN--\":12098:12166   */\n      jump(tag_374)\n    tag_394:\n        /* \"--CODEGEN--\":12090:12166   */\n      swap1\n      pop\n        /* \"--CODEGEN--\":12214:12223   */\n      dup2\n        /* \"--CODEGEN--\":12208:12212   */\n      dup2\n        /* \"--CODEGEN--\":12204:12224   */\n      sub\n        /* \"--CODEGEN--\":12199:12201   */\n      0x60\n        /* \"--CODEGEN--\":12188:12197   */\n      dup4\n        /* \"--CODEGEN--\":12184:12202   */\n      add\n        /* \"--CODEGEN--\":12177:12225   */\n      mstore\n        /* \"--CODEGEN--\":12239:12307   */\n      tag_395\n        /* \"--CODEGEN--\":12302:12306   */\n      dup2\n        /* \"--CODEGEN--\":12293:12299   */\n      dup7\n        /* \"--CODEGEN--\":12239:12307   */\n      jump(tag_374)\n    tag_395:\n        /* \"--CODEGEN--\":12231:12307   */\n      swap1\n      pop\n        /* \"--CODEGEN--\":12356:12365   */\n      dup2\n        /* \"--CODEGEN--\":12350:12354   */\n      dup2\n        /* \"--CODEGEN--\":12346:12366   */\n      sub\n        /* \"--CODEGEN--\":12340:12343   */\n      0x80\n        /* \"--CODEGEN--\":12329:12338   */\n      dup4\n        /* \"--CODEGEN--\":12325:12344   */\n      add\n        /* \"--CODEGEN--\":12318:12367   */\n      mstore\n        /* \"--CODEGEN--\":12381:12449   */\n      tag_396\n        /* \"--CODEGEN--\":12444:12448   */\n      dup2\n        /* \"--CODEGEN--\":12435:12441   */\n      dup6\n        /* \"--CODEGEN--\":12381:12449   */\n      jump(tag_374)\n    tag_396:\n        /* \"--CODEGEN--\":12373:12449   */\n      swap1\n      pop\n        /* \"--CODEGEN--\":12498:12507   */\n      dup2\n        /* \"--CODEGEN--\":12492:12496   */\n      dup2\n        /* \"--CODEGEN--\":12488:12508   */\n      sub\n        /* \"--CODEGEN--\":12482:12485   */\n      0xa0\n        /* \"--CODEGEN--\":12471:12480   */\n      dup4\n        /* \"--CODEGEN--\":12467:12486   */\n      add\n        /* \"--CODEGEN--\":12460:12509   */\n      mstore\n        /* \"--CODEGEN--\":12523:12591   */\n      tag_397\n        /* \"--CODEGEN--\":12586:12590   */\n      dup2\n        /* \"--CODEGEN--\":12577:12583   */\n      dup5\n        /* \"--CODEGEN--\":12523:12591   */\n      jump(tag_374)\n    tag_397:\n        /* \"--CODEGEN--\":12515:12591   */\n      swap1\n      pop\n        /* \"--CODEGEN--\":11711:12601   */\n      swap8\n      swap7\n      pop\n      pop\n      pop\n      pop\n      pop\n      pop\n      pop\n      jump\n        /* \"--CODEGEN--\":12608:14027   */\n    tag_123:\n      0x0\n        /* \"--CODEGEN--\":13024:13027   */\n      0xe0\n        /* \"--CODEGEN--\":13013:13022   */\n      dup3\n        /* \"--CODEGEN--\":13009:13028   */\n      add\n        /* \"--CODEGEN--\":13001:13028   */\n      swap1\n      pop\n        /* \"--CODEGEN--\":13075:13084   */\n      dup2\n        /* \"--CODEGEN--\":13069:13073   */\n      dup2\n        /* \"--CODEGEN--\":13065:13085   */\n      sub\n        /* \"--CODEGEN--\":13061:13062   */\n      0x0\n        /* \"--CODEGEN--\":13050:13059   */\n      dup4\n        /* \"--CODEGEN--\":13046:13063   */\n      add\n        /* \"--CODEGEN--\":13039:13086   */\n      mstore\n        /* \"--CODEGEN--\":13100:13168   */\n      tag_399\n        /* \"--CODEGEN--\":13163:13167   */\n      dup2\n        /* \"--CODEGEN--\":13154:13160   */\n      dup11\n        /* \"--CODEGEN--\":13100:13168   */\n      jump(tag_374)\n    tag_399:\n        /* \"--CODEGEN--\":13092:13168   */\n      swap1\n      pop\n        /* \"--CODEGEN--\":13216:13225   */\n      dup2\n        /* \"--CODEGEN--\":13210:13214   */\n      dup2\n        /* \"--CODEGEN--\":13206:13226   */\n      sub\n        /* \"--CODEGEN--\":13201:13203   */\n      0x20\n        /* \"--CODEGEN--\":13190:13199   */\n      dup4\n        /* \"--CODEGEN--\":13186:13204   */\n      add\n        /* \"--CODEGEN--\":13179:13227   */\n      mstore\n        /* \"--CODEGEN--\":13241:13309   */\n      tag_400\n        /* \"--CODEGEN--\":13304:13308   */\n      dup2\n        /* \"--CODEGEN--\":13295:13301   */\n      dup10\n        /* \"--CODEGEN--\":13241:13309   */\n      jump(tag_374)\n    tag_400:\n        /* \"--CODEGEN--\":13233:13309   */\n      swap1\n      pop\n        /* \"--CODEGEN--\":13357:13366   */\n      dup2\n        /* \"--CODEGEN--\":13351:13355   */\n      dup2\n        /* \"--CODEGEN--\":13347:13367   */\n      sub\n        /* \"--CODEGEN--\":13342:13344   */\n      0x40\n        /* \"--CODEGEN--\":13331:13340   */\n      dup4\n        /* \"--CODEGEN--\":13327:13345   */\n      add\n        /* \"--CODEGEN--\":13320:13368   */\n      mstore\n        /* \"--CODEGEN--\":13382:13450   */\n      tag_401\n        /* \"--CODEGEN--\":13445:13449   */\n      dup2\n        /* \"--CODEGEN--\":13436:13442   */\n      dup9\n        /* \"--CODEGEN--\":13382:13450   */\n      jump(tag_374)\n    tag_401:\n        /* \"--CODEGEN--\":13374:13450   */\n      swap1\n      pop\n        /* \"--CODEGEN--\":13498:13507   */\n      dup2\n        /* \"--CODEGEN--\":13492:13496   */\n      dup2\n        /* \"--CODEGEN--\":13488:13508   */\n      sub\n        /* \"--CODEGEN--\":13483:13485   */\n      0x60\n        /* \"--CODEGEN--\":13472:13481   */\n      dup4\n        /* \"--CODEGEN--\":13468:13486   */\n      add\n        /* \"--CODEGEN--\":13461:13509   */\n      mstore\n        /* \"--CODEGEN--\":13523:13591   */\n      tag_402\n        /* \"--CODEGEN--\":13586:13590   */\n      dup2\n        /* \"--CODEGEN--\":13577:13583   */\n      dup8\n        /* \"--CODEGEN--\":13523:13591   */\n      jump(tag_374)\n    tag_402:\n        /* \"--CODEGEN--\":13515:13591   */\n      swap1\n      pop\n        /* \"--CODEGEN--\":13640:13649   */\n      dup2\n        /* \"--CODEGEN--\":13634:13638   */\n      dup2\n        /* \"--CODEGEN--\":13630:13650   */\n      sub\n        /* \"--CODEGEN--\":13624:13627   */\n      0x80\n        /* \"--CODEGEN--\":13613:13622   */\n      dup4\n        /* \"--CODEGEN--\":13609:13628   */\n      add\n        /* \"--CODEGEN--\":13602:13651   */\n      mstore\n        /* \"--CODEGEN--\":13665:13733   */\n      tag_403\n        /* \"--CODEGEN--\":13728:13732   */\n      dup2\n        /* \"--CODEGEN--\":13719:13725   */\n      dup7\n        /* \"--CODEGEN--\":13665:13733   */\n      jump(tag_374)\n    tag_403:\n        /* \"--CODEGEN--\":13657:13733   */\n      swap1\n      pop\n        /* \"--CODEGEN--\":13782:13791   */\n      dup2\n        /* \"--CODEGEN--\":13776:13780   */\n      dup2\n        /* \"--CODEGEN--\":13772:13792   */\n      sub\n        /* \"--CODEGEN--\":13766:13769   */\n      0xa0\n        /* \"--CODEGEN--\":13755:13764   */\n      dup4\n        /* \"--CODEGEN--\":13751:13770   */\n      add\n        /* \"--CODEGEN--\":13744:13793   */\n      mstore\n        /* \"--CODEGEN--\":13807:13875   */\n      tag_404\n        /* \"--CODEGEN--\":13870:13874   */\n      dup2\n        /* \"--CODEGEN--\":13861:13867   */\n      dup6\n        /* \"--CODEGEN--\":13807:13875   */\n      jump(tag_374)\n    tag_404:\n        /* \"--CODEGEN--\":13799:13875   */\n      swap1\n      pop\n        /* \"--CODEGEN--\":13924:13933   */\n      dup2\n        /* \"--CODEGEN--\":13918:13922   */\n      dup2\n        /* \"--CODEGEN--\":13914:13934   */\n      sub\n        /* \"--CODEGEN--\":13908:13911   */\n      0xc0\n        /* \"--CODEGEN--\":13897:13906   */\n      dup4\n        /* \"--CODEGEN--\":13893:13912   */\n      add\n        /* \"--CODEGEN--\":13886:13935   */\n      mstore\n        /* \"--CODEGEN--\":13949:14017   */\n      tag_405\n        /* \"--CODEGEN--\":14012:14016   */\n      dup2\n        /* \"--CODEGEN--\":14003:14009   */\n      dup5\n        /* \"--CODEGEN--\":13949:14017   */\n      jump(tag_374)\n    tag_405:\n        /* \"--CODEGEN--\":13941:14017   */\n      swap1\n      pop\n        /* \"--CODEGEN--\":12995:14027   */\n      swap9\n      swap8\n      pop\n      pop\n      pop\n      pop\n      pop\n      pop\n      pop\n      pop\n      jump\n        /* \"--CODEGEN--\":14034:14227   */\n    tag_45:\n      0x0\n        /* \"--CODEGEN--\":14142:14144   */\n      0x20\n        /* \"--CODEGEN--\":14131:14140   */\n      dup3\n        /* \"--CODEGEN--\":14127:14145   */\n      add\n        /* \"--CODEGEN--\":14119:14145   */\n      swap1\n      pop\n        /* \"--CODEGEN--\":14156:14217   */\n      tag_407\n        /* \"--CODEGEN--\":14214:14215   */\n      0x0\n        /* \"--CODEGEN--\":14203:14212   */\n      dup4\n        /* \"--CODEGEN--\":14199:14216   */\n      add\n        /* \"--CODEGEN--\":14190:14196   */\n      dup5\n        /* \"--CODEGEN--\":14156:14217   */\n      jump(tag_382)\n    tag_407:\n        /* \"--CODEGEN--\":14113:14227   */\n      swap3\n      swap2\n      pop\n      pop\n      jump\n        /* \"--CODEGEN--\":14234:14490   */\n    tag_265:\n      0x0\n        /* \"--CODEGEN--\":14296:14298   */\n      0x40\n        /* \"--CODEGEN--\":14290:14299   */\n      mload\n        /* \"--CODEGEN--\":14280:14299   */\n      swap1\n      pop\n        /* \"--CODEGEN--\":14334:14338   */\n      dup2\n        /* \"--CODEGEN--\":14326:14332   */\n      dup2\n        /* \"--CODEGEN--\":14322:14339   */\n      add\n        /* \"--CODEGEN--\":14433:14439   */\n      dup2\n        /* \"--CODEGEN--\":14421:14431   */\n      dup2\n        /* \"--CODEGEN--\":14418:14440   */\n      lt\n        /* \"--CODEGEN--\":14397:14415   */\n      0xffffffffffffffff\n        /* \"--CODEGEN--\":14385:14395   */\n      dup3\n        /* \"--CODEGEN--\":14382:14416   */\n      gt\n        /* \"--CODEGEN--\":14379:14441   */\n      or\n        /* \"--CODEGEN--\":14376:14378   */\n      iszero\n      tag_409\n      jumpi\n        /* \"--CODEGEN--\":14454:14455   */\n      0x0\n        /* \"--CODEGEN--\":14451:14452   */\n      dup1\n        /* \"--CODEGEN--\":14444:14456   */\n      revert\n        /* \"--CODEGEN--\":14376:14378   */\n    tag_409:\n        /* \"--CODEGEN--\":14474:14484   */\n      dup1\n        /* \"--CODEGEN--\":14470:14472   */\n      0x40\n        /* \"--CODEGEN--\":14463:14485   */\n      mstore\n        /* \"--CODEGEN--\":14274:14490   */\n      pop\n      swap2\n      swap1\n      pop\n      jump\n        /* \"--CODEGEN--\":14497:14756   */\n    tag_264:\n      0x0\n        /* \"--CODEGEN--\":14641:14659   */\n      0xffffffffffffffff\n        /* \"--CODEGEN--\":14633:14639   */\n      dup3\n        /* \"--CODEGEN--\":14630:14660   */\n      gt\n        /* \"--CODEGEN--\":14627:14629   */\n      iszero\n      tag_411\n      jumpi\n        /* \"--CODEGEN--\":14673:14674   */\n      0x0\n        /* \"--CODEGEN--\":14670:14671   */\n      dup1\n        /* \"--CODEGEN--\":14663:14675   */\n      revert\n        /* \"--CODEGEN--\":14627:14629   */\n    tag_411:\n        /* \"--CODEGEN--\":14717:14721   */\n      0x1f\n        /* \"--CODEGEN--\":14713:14722   */\n      not\n        /* \"--CODEGEN--\":14706:14710   */\n      0x1f\n        /* \"--CODEGEN--\":14698:14704   */\n      dup4\n        /* \"--CODEGEN--\":14694:14711   */\n      add\n        /* \"--CODEGEN--\":14690:14723   */\n      and\n        /* \"--CODEGEN--\":14682:14723   */\n      swap1\n      pop\n        /* \"--CODEGEN--\":14746:14750   */\n      0x20\n        /* \"--CODEGEN--\":14740:14744   */\n      dup2\n        /* \"--CODEGEN--\":14736:14751   */\n      add\n        /* \"--CODEGEN--\":14728:14751   */\n      swap1\n      pop\n        /* \"--CODEGEN--\":14564:14756   */\n      swap2\n      swap1\n      pop\n      jump\n        /* \"--CODEGEN--\":14765:14886   */\n    tag_362:\n      0x0\n        /* \"--CODEGEN--\":14874:14878   */\n      0x20\n        /* \"--CODEGEN--\":14866:14872   */\n      dup3\n        /* \"--CODEGEN--\":14862:14879   */\n      add\n        /* \"--CODEGEN--\":14851:14879   */\n      swap1\n      pop\n        /* \"--CODEGEN--\":14843:14886   */\n      swap2\n      swap1\n      pop\n      jump\n        /* \"--CODEGEN--\":14895:15002   */\n    tag_360:\n      0x0\n        /* \"--CODEGEN--\":14991:14996   */\n      dup2\n        /* \"--CODEGEN--\":14985:14997   */\n      mload\n        /* \"--CODEGEN--\":14975:14997   */\n      swap1\n      pop\n        /* \"--CODEGEN--\":14969:15002   */\n      swap2\n      swap1\n      pop\n      jump\n        /* \"--CODEGEN--\":15009:15101   */\n    tag_376:\n      0x0\n        /* \"--CODEGEN--\":15090:15095   */\n      dup2\n        /* \"--CODEGEN--\":15084:15096   */\n      mload\n        /* \"--CODEGEN--\":15074:15096   */\n      swap1\n      pop\n        /* \"--CODEGEN--\":15068:15101   */\n      swap2\n      swap1\n      pop\n      jump\n        /* \"--CODEGEN--\":15109:15231   */\n    tag_368:\n      0x0\n        /* \"--CODEGEN--\":15220:15224   */\n      0x20\n        /* \"--CODEGEN--\":15212:15218   */\n      dup3\n        /* \"--CODEGEN--\":15208:15225   */\n      add\n        /* \"--CODEGEN--\":15197:15225   */\n      swap1\n      pop\n        /* \"--CODEGEN--\":15190:15231   */\n      swap2\n      swap1\n      pop\n      jump\n        /* \"--CODEGEN--\":15239:15367   */\n    tag_356:\n      0x0\n        /* \"--CODEGEN--\":15319:15361   */\n      0xffffffffffffffffffffffffffffffffffffffff\n        /* \"--CODEGEN--\":15312:15317   */\n      dup3\n        /* \"--CODEGEN--\":15308:15362   */\n      and\n        /* \"--CODEGEN--\":15297:15362   */\n      swap1\n      pop\n        /* \"--CODEGEN--\":15291:15367   */\n      swap2\n      swap1\n      pop\n      jump\n        /* \"--CODEGEN--\":15374:15466   */\n    tag_372:\n      0x0\n        /* \"--CODEGEN--\":15454:15459   */\n      dup2\n        /* \"--CODEGEN--\":15447:15460   */\n      iszero\n        /* \"--CODEGEN--\":15440:15461   */\n      iszero\n        /* \"--CODEGEN--\":15429:15461   */\n      swap1\n      pop\n        /* \"--CODEGEN--\":15423:15466   */\n      swap2\n      swap1\n      pop\n      jump\n        /* \"--CODEGEN--\":15473:15552   */\n    tag_384:\n      0x0\n        /* \"--CODEGEN--\":15542:15547   */\n      dup2\n        /* \"--CODEGEN--\":15531:15547   */\n      swap1\n      pop\n        /* \"--CODEGEN--\":15525:15552   */\n      swap2\n      swap1\n      pop\n      jump\n        /* \"--CODEGEN--\":15559:15687   */\n    tag_258:\n      0x0\n        /* \"--CODEGEN--\":15639:15681   */\n      0xffffffffffffffffffffffffffffffffffffffff\n        /* \"--CODEGEN--\":15632:15637   */\n      dup3\n        /* \"--CODEGEN--\":15628:15682   */\n      and\n        /* \"--CODEGEN--\":15617:15682   */\n      swap1\n      pop\n        /* \"--CODEGEN--\":15611:15687   */\n      swap2\n      swap1\n      pop\n      jump\n        /* \"--CODEGEN--\":15694:15773   */\n    tag_272:\n      0x0\n        /* \"--CODEGEN--\":15763:15768   */\n      dup2\n        /* \"--CODEGEN--\":15752:15768   */\n      swap1\n      pop\n        /* \"--CODEGEN--\":15746:15773   */\n      swap2\n      swap1\n      pop\n      jump\n        /* \"--CODEGEN--\":15781:15926   */\n    tag_268:\n        /* \"--CODEGEN--\":15862:15868   */\n      dup3\n        /* \"--CODEGEN--\":15857:15860   */\n      dup2\n        /* \"--CODEGEN--\":15852:15855   */\n      dup4\n        /* \"--CODEGEN--\":15839:15869   */\n      calldatacopy\n        /* \"--CODEGEN--\":15918:15919   */\n      0x0\n        /* \"--CODEGEN--\":15909:15915   */\n      dup4\n        /* \"--CODEGEN--\":15904:15907   */\n      dup4\n        /* \"--CODEGEN--\":15900:15916   */\n      add\n        /* \"--CODEGEN--\":15893:15920   */\n      mstore\n        /* \"--CODEGEN--\":15832:15926   */\n      pop\n      pop\n      pop\n      jump\n        /* \"--CODEGEN--\":15935:16203   */\n    tag_378:\n        /* \"--CODEGEN--\":16000:16001   */\n      0x0\n        /* \"--CODEGEN--\":16007:16108   */\n    tag_423:\n        /* \"--CODEGEN--\":16021:16027   */\n      dup4\n        /* \"--CODEGEN--\":16018:16019   */\n      dup2\n        /* \"--CODEGEN--\":16015:16028   */\n      lt\n        /* \"--CODEGEN--\":16007:16108   */\n      iszero\n      tag_424\n      jumpi\n        /* \"--CODEGEN--\":16097:16098   */\n      dup1\n        /* \"--CODEGEN--\":16092:16095   */\n      dup3\n        /* \"--CODEGEN--\":16088:16099   */\n      add\n        /* \"--CODEGEN--\":16082:16100   */\n      mload\n        /* \"--CODEGEN--\":16078:16079   */\n      dup2\n        /* \"--CODEGEN--\":16073:16076   */\n      dup5\n        /* \"--CODEGEN--\":16069:16080   */\n      add\n        /* \"--CODEGEN--\":16062:16101   */\n      mstore\n        /* \"--CODEGEN--\":16043:16045   */\n      0x20\n        /* \"--CODEGEN--\":16040:16041   */\n      dup2\n        /* \"--CODEGEN--\":16036:16046   */\n      add\n        /* \"--CODEGEN--\":16031:16046   */\n      swap1\n      pop\n        /* \"--CODEGEN--\":16007:16108   */\n      jump(tag_423)\n    tag_424:\n        /* \"--CODEGEN--\":16123:16129   */\n      dup4\n        /* \"--CODEGEN--\":16120:16121   */\n      dup2\n        /* \"--CODEGEN--\":16117:16130   */\n      gt\n        /* \"--CODEGEN--\":16114:16116   */\n      iszero\n      tag_426\n      jumpi\n        /* \"--CODEGEN--\":16188:16189   */\n      0x0\n        /* \"--CODEGEN--\":16179:16185   */\n      dup5\n        /* \"--CODEGEN--\":16174:16177   */\n      dup5\n        /* \"--CODEGEN--\":16170:16186   */\n      add\n        /* \"--CODEGEN--\":16163:16190   */\n      mstore\n        /* \"--CODEGEN--\":16114:16116   */\n    tag_426:\n        /* \"--CODEGEN--\":15984:16203   */\n      pop\n      pop\n      pop\n      pop\n      jump\n        /* \"--CODEGEN--\":16211:16308   */\n    tag_380:\n      0x0\n        /* \"--CODEGEN--\":16299:16301   */\n      0x1f\n        /* \"--CODEGEN--\":16295:16302   */\n      not\n        /* \"--CODEGEN--\":16290:16292   */\n      0x1f\n        /* \"--CODEGEN--\":16283:16288   */\n      dup4\n        /* \"--CODEGEN--\":16279:16293   */\n      add\n        /* \"--CODEGEN--\":16275:16303   */\n      and\n        /* \"--CODEGEN--\":16265:16303   */\n      swap1\n      pop\n        /* \"--CODEGEN--\":16259:16308   */\n      swap2\n      swap1\n      pop\n      jump\n\n    auxdata: 0xa265627a7a72305820401c798b4831c5a7b72e1068fe645be20fb7fe3ba847234e08947935842b6a6b6c6578706572696d656e74616cf50037\n}\n",
				"bytecode": {
					"linkReferences": {},
					"object": "6080604052600060085560006009556000600a5573c50c6297f56b033633c30354a854b074749cd2dc600b60006101000a81548173ffffffffffffffffffffffffffffffffffffffff021916908373ffffffffffffffffffffffffffffffffffffffff16021790555034801561007457600080fd5b50612973806100846000396000f30060806040526004361061011c576000357c0100000000000000000000000000000000000000000000000000000000900463ffffffff168062ce8e3e1461012157806302516abd1461014c578063076fd2f81461018957806307973ccf146101cb578063127ca4b4146101f657806316e0a6111461023357806324c24b2b1461025c5780632fde294c146102875780633d391f70146102b0578063779a9576146102ed57806378522bc41461031657806379111c1c146103415780638b945c6d1461036c5780638da5cb5b146103955780638f84aa09146103c05780639f4216e8146103d7578063a5d043d114610414578063b13d5d941461043f578063b5cb15f71461046a578063b744ff4d14610495578063caee6c85146104c0575b600080fd5b34801561012d57600080fd5b50610136610503565b604051610143919061267a565b60405180910390f35b34801561015857600080fd5b50610173600480360361016e9190810190611f5e565b610591565b604051610180919061269c565b60405180910390f35b34801561019557600080fd5b506101b060048036036101ab9190810190611f5e565b610630565b6040516101c2969594939291906126b7565b60405180910390f35b3480156101d757600080fd5b506101e0610ae7565b6040516101ed91906127e2565b60405180910390f35b34801561020257600080fd5b5061021d60048036036102189190810190612578565b610aed565b60405161022a919061265f565b60405180910390f35b34801561023f57600080fd5b5061025a60048036036102559190810190611f87565b610b2b565b005b34801561026857600080fd5b50610271610cc7565b60405161027e91906127e2565b60405180910390f35b34801561029357600080fd5b506102ae60048036036102a991908101906123da565b610cd1565b005b3480156102bc57600080fd5b506102d760048036036102d29190810190611f5e565b611228565b6040516102e4919061269c565b60405180910390f35b3480156102f957600080fd5b50610314600480360361030f91908101906120e1565b6112da565b005b34801561032257600080fd5b5061032b6114aa565b60405161033891906127e2565b60405180910390f35b34801561034d57600080fd5b506103566114b0565b60405161036391906127e2565b60405180910390f35b34801561037857600080fd5b50610393600480360361038e9190810190612294565b6114ba565b005b3480156103a157600080fd5b506103aa61172b565b6040516103b7919061265f565b60405180910390f35b3480156103cc57600080fd5b506103d5611750565b005b3480156103e357600080fd5b506103fe60048036036103f99190810190612578565b611792565b60405161040b919061265f565b60405180910390f35b34801561042057600080fd5b506104296117d0565b60405161043691906127e2565b60405180910390f35b34801561044b57600080fd5b506104546117d6565b604051610461919061267a565b60405180910390f35b34801561047657600080fd5b5061047f611864565b60405161048c91906127e2565b60405180910390f35b3480156104a157600080fd5b506104aa61186e565b6040516104b7919061265f565b60405180910390f35b3480156104cc57600080fd5b506104e760048036036104e29190810190611f5e565b611894565b6040516104fa9796959493929190612742565b60405180910390f35b6060600180548060200260200160405190810160405280929190818152602001828054801561058757602002820191906000526020600020905b8160009054906101000a900473ffffffffffffffffffffffffffffffffffffffff1673ffffffffffffffffffffffffffffffffffffffff168152602001906001019080831161053d575b5050505050905090565b600080600560003373ffffffffffffffffffffffffffffffffffffffff1673ffffffffffffffffffffffffffffffffffffffff16815260200190815260200160002060008473ffffffffffffffffffffffffffffffffffffffff1673ffffffffffffffffffffffffffffffffffffffff16815260200190815260200160002060006101000a81548160ff02191690831515021790555060019050919050565b6060806060806060806000600560008973ffffffffffffffffffffffffffffffffffffffff1673ffffffffffffffffffffffffffffffffffffffff16815260200190815260200160002060003373ffffffffffffffffffffffffffffffffffffffff1673ffffffffffffffffffffffffffffffffffffffff16815260200190815260200160002060009054906101000a900460ff1615156106d057600080fd5b600360008973ffffffffffffffffffffffffffffffffffffffff1673ffffffffffffffffffffffffffffffffffffffff1681526020019081526020016000209050806000018160010182600201836003018460040185600501858054600181600116156101000203166002900480601f0160208091040260200160405190810160405280929190818152602001828054600181600116156101000203166002900480156107be5780601f10610793576101008083540402835291602001916107be565b820191906000526020600020905b8154815290600101906020018083116107a157829003601f168201915b50505050509550848054600181600116156101000203166002900480601f01602080910402602001604051908101604052809291908181526020018280546001816001161561010002031660029004801561085a5780601f1061082f5761010080835404028352916020019161085a565b820191906000526020600020905b81548152906001019060200180831161083d57829003601f168201915b50505050509450838054600181600116156101000203166002900480601f0160208091040260200160405190810160405280929190818152602001828054600181600116156101000203166002900480156108f65780601f106108cb576101008083540402835291602001916108f6565b820191906000526020600020905b8154815290600101906020018083116108d957829003601f168201915b50505050509350828054600181600116156101000203166002900480601f0160208091040260200160405190810160405280929190818152602001828054600181600116156101000203166002900480156109925780601f1061096757610100808354040283529160200191610992565b820191906000526020600020905b81548152906001019060200180831161097557829003601f168201915b50505050509250818054600181600116156101000203166002900480601f016020809104026020016040519081016040528092919081815260200182805460018160011615610100020316600290048015610a2e5780601f10610a0357610100808354040283529160200191610a2e565b820191906000526020600020905b815481529060010190602001808311610a1157829003601f168201915b50505050509150808054600181600116156101000203166002900480601f016020809104026020016040519081016040528092919081815260200182805460018160011615610100020316600290048015610aca5780601f10610a9f57610100808354040283529160200191610aca565b820191906000526020600020905b815481529060010190602001808311610aad57829003601f168201915b505050505090509650965096509650965096505091939550919395565b60085481565b600281815481101515610afc57fe5b906000526020600020016000915054906101000a900473ffffffffffffffffffffffffffffffffffffffff1681565b6000600b60009054906101000a900473ffffffffffffffffffffffffffffffffffffffff1673ffffffffffffffffffffffffffffffffffffffff163373ffffffffffffffffffffffffffffffffffffffff16141515610b8957600080fd5b600460008a73ffffffffffffffffffffffffffffffffffffffff1673ffffffffffffffffffffffffffffffffffffffff168152602001908152602001600020905087816000019080519060200190610be2929190611db4565b5086816001019080519060200190610bfb929190611db4565b5085816002019080519060200190610c14929190611db4565b5084816003019080519060200190610c2d929190611db4565b5083816004019080519060200190610c46929190611db4565b5082816007019080519060200190610c5f929190611db4565b5081816008019080519060200190610c78929190611db4565b50888160090160006101000a81548173ffffffffffffffffffffffffffffffffffffffff021916908373ffffffffffffffffffffffffffffffffffffffff160217905550505050505050505050565b6000600a54905090565b600080600660003373ffffffffffffffffffffffffffffffffffffffff1673ffffffffffffffffffffffffffffffffffffffff16815260200190815260200160002060009054906101000a900460ff16151515610d2d57600080fd5b600360003373ffffffffffffffffffffffffffffffffffffffff1673ffffffffffffffffffffffffffffffffffffffff16815260200190815260200160002091508a826000019080519060200190610d86929190611db4565b5089826001019080519060200190610d9f929190611db4565b5088826002019080519060200190610db8929190611db4565b5087826003019080519060200190610dd1929190611db4565b5086826004019080519060200190610dea929190611db4565b5085826005019080519060200190610e03929190611db4565b5084826006019080519060200190610e1c929190611db4565b5083826007019080519060200190610e35929190611db4565b5082826008019080519060200190610e4e929190611db4565b50338260090160006101000a81548173ffffffffffffffffffffffffffffffffffffffff021916908373ffffffffffffffffffffffffffffffffffffffff1602179055504282600a018190555060013390806001815401808255809150509060018203906000526020600020016000909192909190916101000a81548173ffffffffffffffffffffffffffffffffffffffff021916908373ffffffffffffffffffffffffffffffffffffffff160217905550506001600660003373ffffffffffffffffffffffffffffffffffffffff1673ffffffffffffffffffffffffffffffffffffffff16815260200190815260200160002060006101000a81548160ff0219169083151502179055506001600560003373ffffffffffffffffffffffffffffffffffffffff1673ffffffffffffffffffffffffffffffffffffffff16815260200190815260200160002060003373ffffffffffffffffffffffffffffffffffffffff1673ffffffffffffffffffffffffffffffffffffffff16815260200190815260200160002060006101000a81548160ff0219169083151502179055506008600081548092919060010191905055508082600001908060018154018082558091505090600182039060005260206000200160009091929091909150908054600181600116156101000203166002900461104b929190611e34565b505080826001019080600181540180825580915050906001820390600052602060002001600090919290919091509080546001816001161561010002031660029004611098929190611e34565b5050808260020190806001815401808255809150509060018203906000526020600020016000909192909190915090805460018160011615610100020316600290046110e5929190611e34565b505080826003019080600181540180825580915050906001820390600052602060002001600090919290919091509080546001816001161561010002031660029004611132929190611e34565b50508082600401908060018154018082558091505090600182039060005260206000200160009091929091909150908054600181600116156101000203166002900461117f929190611e34565b5050808260050190806001815401808255809150509060018203906000526020600020016000909192909190915090805460018160011615610100020316600290046111cc929190611e34565b505080826006019080600181540180825580915050906001820390600052602060002001600090919290919091509080546001816001161561010002031660029004611219929190611e34565b50505050505050505050505050565b60006001600560003373ffffffffffffffffffffffffffffffffffffffff1673ffffffffffffffffffffffffffffffffffffffff16815260200190815260200160002060008473ffffffffffffffffffffffffffffffffffffffff1673ffffffffffffffffffffffffffffffffffffffff16815260200190815260200160002060006101000a81548160ff021916908315150217905550600a6000815480929190600101919050555060019050919050565b6000600b60009054906101000a900473ffffffffffffffffffffffffffffffffffffffff1673ffffffffffffffffffffffffffffffffffffffff163373ffffffffffffffffffffffffffffffffffffffff1614151561133857600080fd5b600360008c73ffffffffffffffffffffffffffffffffffffffff1673ffffffffffffffffffffffffffffffffffffffff168152602001908152602001600020905089816000019080519060200190611391929190611db4565b50888160010190805190602001906113aa929190611db4565b50878160020190805190602001906113c3929190611db4565b50868160030190805190602001906113dc929190611db4565b50858160040190805190602001906113f5929190611db4565b508481600501908051906020019061140e929190611db4565b5083816006019080519060200190611427929190611db4565b5082816007019080519060200190611440929190611db4565b5081816008019080519060200190611459929190611db4565b508a8160090160006101000a81548173ffffffffffffffffffffffffffffffffffffffff021916908373ffffffffffffffffffffffffffffffffffffffff1602179055505050505050505050505050565b60095481565b6000600954905090565b6000600760003373ffffffffffffffffffffffffffffffffffffffff1673ffffffffffffffffffffffffffffffffffffffff16815260200190815260200160002060009054906101000a900460ff1615151561151557600080fd5b600460003373ffffffffffffffffffffffffffffffffffffffff1673ffffffffffffffffffffffffffffffffffffffff16815260200190815260200160002090508781600001908051906020019061156e929190611db4565b5086816001019080519060200190611587929190611db4565b50858160020190805190602001906115a0929190611db4565b50848160030190805190602001906115b9929190611db4565b50838160040190805190602001906115d2929190611db4565b50828160070190805190602001906115eb929190611db4565b5081816008019080519060200190611604929190611db4565b50338160090160006101000a81548173ffffffffffffffffffffffffffffffffffffffff021916908373ffffffffffffffffffffffffffffffffffffffff1602179055504281600a018190555060023390806001815401808255809150509060018203906000526020600020016000909192909190916101000a81548173ffffffffffffffffffffffffffffffffffffffff021916908373ffffffffffffffffffffffffffffffffffffffff160217905550506001600760003373ffffffffffffffffffffffffffffffffffffffff1673ffffffffffffffffffffffffffffffffffffffff16815260200190815260200160002060006101000a81548160ff0219169083151502179055506009600081548092919060010191905055505050505050505050565b6000809054906101000a900473ffffffffffffffffffffffffffffffffffffffff1681565b336000806101000a81548173ffffffffffffffffffffffffffffffffffffffff021916908373ffffffffffffffffffffffffffffffffffffffff160217905550565b6001818154811015156117a157fe5b906000526020600020016000915054906101000a900473ffffffffffffffffffffffffffffffffffffffff1681565b600a5481565b6060600280548060200260200160405190810160405280929190818152602001828054801561185a57602002820191906000526020600020905b8160009054906101000a900473ffffffffffffffffffffffffffffffffffffffff1673ffffffffffffffffffffffffffffffffffffffff1681526020019060010190808311611810575b5050505050905090565b6000600854905090565b600b60009054906101000a900473ffffffffffffffffffffffffffffffffffffffff1681565b60608060608060608060606000600760008a73ffffffffffffffffffffffffffffffffffffffff1673ffffffffffffffffffffffffffffffffffffffff16815260200190815260200160002060009054906101000a900460ff1615156118f957600080fd5b600460008a73ffffffffffffffffffffffffffffffffffffffff1673ffffffffffffffffffffffffffffffffffffffff168152602001908152602001600020905080600001816001018260020183600301846004018560070186600801868054600181600116156101000203166002900480601f0160208091040260200160405190810160405280929190818152602001828054600181600116156101000203166002900480156119eb5780601f106119c0576101008083540402835291602001916119eb565b820191906000526020600020905b8154815290600101906020018083116119ce57829003601f168201915b50505050509650858054600181600116156101000203166002900480601f016020809104026020016040519081016040528092919081815260200182805460018160011615610100020316600290048015611a875780601f10611a5c57610100808354040283529160200191611a87565b820191906000526020600020905b815481529060010190602001808311611a6a57829003601f168201915b50505050509550848054600181600116156101000203166002900480601f016020809104026020016040519081016040528092919081815260200182805460018160011615610100020316600290048015611b235780601f10611af857610100808354040283529160200191611b23565b820191906000526020600020905b815481529060010190602001808311611b0657829003601f168201915b50505050509450838054600181600116156101000203166002900480601f016020809104026020016040519081016040528092919081815260200182805460018160011615610100020316600290048015611bbf5780601f10611b9457610100808354040283529160200191611bbf565b820191906000526020600020905b815481529060010190602001808311611ba257829003601f168201915b50505050509350828054600181600116156101000203166002900480601f016020809104026020016040519081016040528092919081815260200182805460018160011615610100020316600290048015611c5b5780601f10611c3057610100808354040283529160200191611c5b565b820191906000526020600020905b815481529060010190602001808311611c3e57829003601f168201915b50505050509250818054600181600116156101000203166002900480601f016020809104026020016040519081016040528092919081815260200182805460018160011615610100020316600290048015611cf75780601f10611ccc57610100808354040283529160200191611cf7565b820191906000526020600020905b815481529060010190602001808311611cda57829003601f168201915b50505050509150808054600181600116156101000203166002900480601f016020809104026020016040519081016040528092919081815260200182805460018160011615610100020316600290048015611d935780601f10611d6857610100808354040283529160200191611d93565b820191906000526020600020905b815481529060010190602001808311611d7657829003601f168201915b50505050509050975097509750975097509750975050919395979092949650565b828054600181600116156101000203166002900490600052602060002090601f016020900481019282601f10611df557805160ff1916838001178555611e23565b82800160010185558215611e23579182015b82811115611e22578251825591602001919060010190611e07565b5b509050611e309190611ebb565b5090565b828054600181600116156101000203166002900490600052602060002090601f016020900481019282601f10611e6d5780548555611eaa565b82800160010185558215611eaa57600052602060002091601f016020900482015b82811115611ea9578254825591600101919060010190611e8e565b5b509050611eb79190611ebb565b5090565b611edd91905b80821115611ed9576000816000905550600101611ec1565b5090565b90565b6000611eec82356128bc565b905092915050565b600082601f8301121515611f0757600080fd5b8135611f1a611f158261282a565b6127fd565b91508082526020830160208301858383011115611f3657600080fd5b611f418382846128e6565b50505092915050565b6000611f5682356128dc565b905092915050565b600060208284031215611f7057600080fd5b6000611f7e84828501611ee0565b91505092915050565b600080600080600080600080610100898b031215611fa457600080fd5b6000611fb28b828c01611ee0565b985050602089013567ffffffffffffffff811115611fcf57600080fd5b611fdb8b828c01611ef4565b975050604089013567ffffffffffffffff811115611ff857600080fd5b6120048b828c01611ef4565b965050606089013567ffffffffffffffff81111561202157600080fd5b61202d8b828c01611ef4565b955050608089013567ffffffffffffffff81111561204a57600080fd5b6120568b828c01611ef4565b94505060a089013567ffffffffffffffff81111561207357600080fd5b61207f8b828c01611ef4565b93505060c089013567ffffffffffffffff81111561209c57600080fd5b6120a88b828c01611ef4565b92505060e089013567ffffffffffffffff8111156120c557600080fd5b6120d18b828c01611ef4565b9150509295985092959890939650565b6000806000806000806000806000806101408b8d03121561210157600080fd5b600061210f8d828e01611ee0565b9a505060208b013567ffffffffffffffff81111561212c57600080fd5b6121388d828e01611ef4565b99505060408b013567ffffffffffffffff81111561215557600080fd5b6121618d828e01611ef4565b98505060608b013567ffffffffffffffff81111561217e57600080fd5b61218a8d828e01611ef4565b97505060808b013567ffffffffffffffff8111156121a757600080fd5b6121b38d828e01611ef4565b96505060a08b013567ffffffffffffffff8111156121d057600080fd5b6121dc8d828e01611ef4565b95505060c08b013567ffffffffffffffff8111156121f957600080fd5b6122058d828e01611ef4565b94505060e08b013567ffffffffffffffff81111561222257600080fd5b61222e8d828e01611ef4565b9350506101008b013567ffffffffffffffff81111561224c57600080fd5b6122588d828e01611ef4565b9250506101208b013567ffffffffffffffff81111561227657600080fd5b6122828d828e01611ef4565b9150509295989b9194979a5092959850565b600080600080600080600060e0888a0312156122af57600080fd5b600088013567ffffffffffffffff8111156122c957600080fd5b6122d58a828b01611ef4565b975050602088013567ffffffffffffffff8111156122f257600080fd5b6122fe8a828b01611ef4565b965050604088013567ffffffffffffffff81111561231b57600080fd5b6123278a828b01611ef4565b955050606088013567ffffffffffffffff81111561234457600080fd5b6123508a828b01611ef4565b945050608088013567ffffffffffffffff81111561236d57600080fd5b6123798a828b01611ef4565b93505060a088013567ffffffffffffffff81111561239657600080fd5b6123a28a828b01611ef4565b92505060c088013567ffffffffffffffff8111156123bf57600080fd5b6123cb8a828b01611ef4565b91505092959891949750929550565b60008060008060008060008060006101208a8c0312156123f957600080fd5b60008a013567ffffffffffffffff81111561241357600080fd5b61241f8c828d01611ef4565b99505060208a013567ffffffffffffffff81111561243c57600080fd5b6124488c828d01611ef4565b98505060408a013567ffffffffffffffff81111561246557600080fd5b6124718c828d01611ef4565b97505060608a013567ffffffffffffffff81111561248e57600080fd5b61249a8c828d01611ef4565b96505060808a013567ffffffffffffffff8111156124b757600080fd5b6124c38c828d01611ef4565b95505060a08a013567ffffffffffffffff8111156124e057600080fd5b6124ec8c828d01611ef4565b94505060c08a013567ffffffffffffffff81111561250957600080fd5b6125158c828d01611ef4565b93505060e08a013567ffffffffffffffff81111561253257600080fd5b61253e8c828d01611ef4565b9250506101008a013567ffffffffffffffff81111561255c57600080fd5b6125688c828d01611ef4565b9150509295985092959850929598565b60006020828403121561258a57600080fd5b600061259884828501611f4a565b91505092915050565b6125aa81612886565b82525050565b60006125bb82612863565b8084526020840193506125cd83612856565b60005b828110156125ff576125e38683516125a1565b6125ec82612879565b91506020860195506001810190506125d0565b50849250505092915050565b612614816128a6565b82525050565b60006126258261286e565b8084526126398160208601602086016128f5565b61264281612928565b602085010191505092915050565b612659816128b2565b82525050565b600060208201905061267460008301846125a1565b92915050565b6000602082019050818103600083015261269481846125b0565b905092915050565b60006020820190506126b1600083018461260b565b92915050565b600060c08201905081810360008301526126d1818961261a565b905081810360208301526126e5818861261a565b905081810360408301526126f9818761261a565b9050818103606083015261270d818661261a565b90508181036080830152612721818561261a565b905081810360a0830152612735818461261a565b9050979650505050505050565b600060e082019050818103600083015261275c818a61261a565b90508181036020830152612770818961261a565b90508181036040830152612784818861261a565b90508181036060830152612798818761261a565b905081810360808301526127ac818661261a565b905081810360a08301526127c0818561261a565b905081810360c08301526127d4818461261a565b905098975050505050505050565b60006020820190506127f76000830184612650565b92915050565b6000604051905081810181811067ffffffffffffffff8211171561282057600080fd5b8060405250919050565b600067ffffffffffffffff82111561284157600080fd5b601f19601f8301169050602081019050919050565b6000602082019050919050565b600081519050919050565b600081519050919050565b6000602082019050919050565b600073ffffffffffffffffffffffffffffffffffffffff82169050919050565b60008115159050919050565b6000819050919050565b600073ffffffffffffffffffffffffffffffffffffffff82169050919050565b6000819050919050565b82818337600083830152505050565b60005b838110156129135780820151818401526020810190506128f8565b83811115612922576000848401525b50505050565b6000601f19601f83011690509190505600a265627a7a72305820401c798b4831c5a7b72e1068fe645be20fb7fe3ba847234e08947935842b6a6b6c6578706572696d656e74616cf50037",
					"opcodes": "PUSH1 0x80 PUSH1 0x40 MSTORE PUSH1 0x0 PUSH1 0x8 SSTORE PUSH1 0x0 PUSH1 0x9 SSTORE PUSH1 0x0 PUSH1 0xA SSTORE PUSH20 0xC50C6297F56B033633C30354A854B074749CD2DC PUSH1 0xB PUSH1 0x0 PUSH2 0x100 EXP DUP2 SLOAD DUP2 PUSH20 0xFFFFFFFFFFFFFFFFFFFFFFFFFFFFFFFFFFFFFFFF MUL NOT AND SWAP1 DUP4 PUSH20 0xFFFFFFFFFFFFFFFFFFFFFFFFFFFFFFFFFFFFFFFF AND MUL OR SWAP1 SSTORE POP CALLVALUE DUP1 ISZERO PUSH2 0x74 JUMPI PUSH1 0x0 DUP1 REVERT JUMPDEST POP PUSH2 0x2973 DUP1 PUSH2 0x84 PUSH1 0x0 CODECOPY PUSH1 0x0 RETURN STOP PUSH1 0x80 PUSH1 0x40 MSTORE PUSH1 0x4 CALLDATASIZE LT PUSH2 0x11C JUMPI PUSH1 0x0 CALLDATALOAD PUSH29 0x100000000000000000000000000000000000000000000000000000000 SWAP1 DIV PUSH4 0xFFFFFFFF AND DUP1 PUSH3 0xCE8E3E EQ PUSH2 0x121 JUMPI DUP1 PUSH4 0x2516ABD EQ PUSH2 0x14C JUMPI DUP1 PUSH4 0x76FD2F8 EQ PUSH2 0x189 JUMPI DUP1 PUSH4 0x7973CCF EQ PUSH2 0x1CB JUMPI DUP1 PUSH4 0x127CA4B4 EQ PUSH2 0x1F6 JUMPI DUP1 PUSH4 0x16E0A611 EQ PUSH2 0x233 JUMPI DUP1 PUSH4 0x24C24B2B EQ PUSH2 0x25C JUMPI DUP1 PUSH4 0x2FDE294C EQ PUSH2 0x287 JUMPI DUP1 PUSH4 0x3D391F70 EQ PUSH2 0x2B0 JUMPI DUP1 PUSH4 0x779A9576 EQ PUSH2 0x2ED JUMPI DUP1 PUSH4 0x78522BC4 EQ PUSH2 0x316 JUMPI DUP1 PUSH4 0x79111C1C EQ PUSH2 0x341 JUMPI DUP1 PUSH4 0x8B945C6D EQ PUSH2 0x36C JUMPI DUP1 PUSH4 0x8DA5CB5B EQ PUSH2 0x395 JUMPI DUP1 PUSH4 0x8F84AA09 EQ PUSH2 0x3C0 JUMPI DUP1 PUSH4 0x9F4216E8 EQ PUSH2 0x3D7 JUMPI DUP1 PUSH4 0xA5D043D1 EQ PUSH2 0x414 JUMPI DUP1 PUSH4 0xB13D5D94 EQ PUSH2 0x43F JUMPI DUP1 PUSH4 0xB5CB15F7 EQ PUSH2 0x46A JUMPI DUP1 PUSH4 0xB744FF4D EQ PUSH2 0x495 JUMPI DUP1 PUSH4 0xCAEE6C85 EQ PUSH2 0x4C0 JUMPI JUMPDEST PUSH1 0x0 DUP1 REVERT JUMPDEST CALLVALUE DUP1 ISZERO PUSH2 0x12D JUMPI PUSH1 0x0 DUP1 REVERT JUMPDEST POP PUSH2 0x136 PUSH2 0x503 JUMP JUMPDEST PUSH1 0x40 MLOAD PUSH2 0x143 SWAP2 SWAP1 PUSH2 0x267A JUMP JUMPDEST PUSH1 0x40 MLOAD DUP1 SWAP2 SUB SWAP1 RETURN JUMPDEST CALLVALUE DUP1 ISZERO PUSH2 0x158 JUMPI PUSH1 0x0 DUP1 REVERT JUMPDEST POP PUSH2 0x173 PUSH1 0x4 DUP1 CALLDATASIZE SUB PUSH2 0x16E SWAP2 SWAP1 DUP2 ADD SWAP1 PUSH2 0x1F5E JUMP JUMPDEST PUSH2 0x591 JUMP JUMPDEST PUSH1 0x40 MLOAD PUSH2 0x180 SWAP2 SWAP1 PUSH2 0x269C JUMP JUMPDEST PUSH1 0x40 MLOAD DUP1 SWAP2 SUB SWAP1 RETURN JUMPDEST CALLVALUE DUP1 ISZERO PUSH2 0x195 JUMPI PUSH1 0x0 DUP1 REVERT JUMPDEST POP PUSH2 0x1B0 PUSH1 0x4 DUP1 CALLDATASIZE SUB PUSH2 0x1AB SWAP2 SWAP1 DUP2 ADD SWAP1 PUSH2 0x1F5E JUMP JUMPDEST PUSH2 0x630 JUMP JUMPDEST PUSH1 0x40 MLOAD PUSH2 0x1C2 SWAP7 SWAP6 SWAP5 SWAP4 SWAP3 SWAP2 SWAP1 PUSH2 0x26B7 JUMP JUMPDEST PUSH1 0x40 MLOAD DUP1 SWAP2 SUB SWAP1 RETURN JUMPDEST CALLVALUE DUP1 ISZERO PUSH2 0x1D7 JUMPI PUSH1 0x0 DUP1 REVERT JUMPDEST POP PUSH2 0x1E0 PUSH2 0xAE7 JUMP JUMPDEST PUSH1 0x40 MLOAD PUSH2 0x1ED SWAP2 SWAP1 PUSH2 0x27E2 JUMP JUMPDEST PUSH1 0x40 MLOAD DUP1 SWAP2 SUB SWAP1 RETURN JUMPDEST CALLVALUE DUP1 ISZERO PUSH2 0x202 JUMPI PUSH1 0x0 DUP1 REVERT JUMPDEST POP PUSH2 0x21D PUSH1 0x4 DUP1 CALLDATASIZE SUB PUSH2 0x218 SWAP2 SWAP1 DUP2 ADD SWAP1 PUSH2 0x2578 JUMP JUMPDEST PUSH2 0xAED JUMP JUMPDEST PUSH1 0x40 MLOAD PUSH2 0x22A SWAP2 SWAP1 PUSH2 0x265F JUMP JUMPDEST PUSH1 0x40 MLOAD DUP1 SWAP2 SUB SWAP1 RETURN JUMPDEST CALLVALUE DUP1 ISZERO PUSH2 0x23F JUMPI PUSH1 0x0 DUP1 REVERT JUMPDEST POP PUSH2 0x25A PUSH1 0x4 DUP1 CALLDATASIZE SUB PUSH2 0x255 SWAP2 SWAP1 DUP2 ADD SWAP1 PUSH2 0x1F87 JUMP JUMPDEST PUSH2 0xB2B JUMP JUMPDEST STOP JUMPDEST CALLVALUE DUP1 ISZERO PUSH2 0x268 JUMPI PUSH1 0x0 DUP1 REVERT JUMPDEST POP PUSH2 0x271 PUSH2 0xCC7 JUMP JUMPDEST PUSH1 0x40 MLOAD PUSH2 0x27E SWAP2 SWAP1 PUSH2 0x27E2 JUMP JUMPDEST PUSH1 0x40 MLOAD DUP1 SWAP2 SUB SWAP1 RETURN JUMPDEST CALLVALUE DUP1 ISZERO PUSH2 0x293 JUMPI PUSH1 0x0 DUP1 REVERT JUMPDEST POP PUSH2 0x2AE PUSH1 0x4 DUP1 CALLDATASIZE SUB PUSH2 0x2A9 SWAP2 SWAP1 DUP2 ADD SWAP1 PUSH2 0x23DA JUMP JUMPDEST PUSH2 0xCD1 JUMP JUMPDEST STOP JUMPDEST CALLVALUE DUP1 ISZERO PUSH2 0x2BC JUMPI PUSH1 0x0 DUP1 REVERT JUMPDEST POP PUSH2 0x2D7 PUSH1 0x4 DUP1 CALLDATASIZE SUB PUSH2 0x2D2 SWAP2 SWAP1 DUP2 ADD SWAP1 PUSH2 0x1F5E JUMP JUMPDEST PUSH2 0x1228 JUMP JUMPDEST PUSH1 0x40 MLOAD PUSH2 0x2E4 SWAP2 SWAP1 PUSH2 0x269C JUMP JUMPDEST PUSH1 0x40 MLOAD DUP1 SWAP2 SUB SWAP1 RETURN JUMPDEST CALLVALUE DUP1 ISZERO PUSH2 0x2F9 JUMPI PUSH1 0x0 DUP1 REVERT JUMPDEST POP PUSH2 0x314 PUSH1 0x4 DUP1 CALLDATASIZE SUB PUSH2 0x30F SWAP2 SWAP1 DUP2 ADD SWAP1 PUSH2 0x20E1 JUMP JUMPDEST PUSH2 0x12DA JUMP JUMPDEST STOP JUMPDEST CALLVALUE DUP1 ISZERO PUSH2 0x322 JUMPI PUSH1 0x0 DUP1 REVERT JUMPDEST POP PUSH2 0x32B PUSH2 0x14AA JUMP JUMPDEST PUSH1 0x40 MLOAD PUSH2 0x338 SWAP2 SWAP1 PUSH2 0x27E2 JUMP JUMPDEST PUSH1 0x40 MLOAD DUP1 SWAP2 SUB SWAP1 RETURN JUMPDEST CALLVALUE DUP1 ISZERO PUSH2 0x34D JUMPI PUSH1 0x0 DUP1 REVERT JUMPDEST POP PUSH2 0x356 PUSH2 0x14B0 JUMP JUMPDEST PUSH1 0x40 MLOAD PUSH2 0x363 SWAP2 SWAP1 PUSH2 0x27E2 JUMP JUMPDEST PUSH1 0x40 MLOAD DUP1 SWAP2 SUB SWAP1 RETURN JUMPDEST CALLVALUE DUP1 ISZERO PUSH2 0x378 JUMPI PUSH1 0x0 DUP1 REVERT JUMPDEST POP PUSH2 0x393 PUSH1 0x4 DUP1 CALLDATASIZE SUB PUSH2 0x38E SWAP2 SWAP1 DUP2 ADD SWAP1 PUSH2 0x2294 JUMP JUMPDEST PUSH2 0x14BA JUMP JUMPDEST STOP JUMPDEST CALLVALUE DUP1 ISZERO PUSH2 0x3A1 JUMPI PUSH1 0x0 DUP1 REVERT JUMPDEST POP PUSH2 0x3AA PUSH2 0x172B JUMP JUMPDEST PUSH1 0x40 MLOAD PUSH2 0x3B7 SWAP2 SWAP1 PUSH2 0x265F JUMP JUMPDEST PUSH1 0x40 MLOAD DUP1 SWAP2 SUB SWAP1 RETURN JUMPDEST CALLVALUE DUP1 ISZERO PUSH2 0x3CC JUMPI PUSH1 0x0 DUP1 REVERT JUMPDEST POP PUSH2 0x3D5 PUSH2 0x1750 JUMP JUMPDEST STOP JUMPDEST CALLVALUE DUP1 ISZERO PUSH2 0x3E3 JUMPI PUSH1 0x0 DUP1 REVERT JUMPDEST POP PUSH2 0x3FE PUSH1 0x4 DUP1 CALLDATASIZE SUB PUSH2 0x3F9 SWAP2 SWAP1 DUP2 ADD SWAP1 PUSH2 0x2578 JUMP JUMPDEST PUSH2 0x1792 JUMP JUMPDEST PUSH1 0x40 MLOAD PUSH2 0x40B SWAP2 SWAP1 PUSH2 0x265F JUMP JUMPDEST PUSH1 0x40 MLOAD DUP1 SWAP2 SUB SWAP1 RETURN JUMPDEST CALLVALUE DUP1 ISZERO PUSH2 0x420 JUMPI PUSH1 0x0 DUP1 REVERT JUMPDEST POP PUSH2 0x429 PUSH2 0x17D0 JUMP JUMPDEST PUSH1 0x40 MLOAD PUSH2 0x436 SWAP2 SWAP1 PUSH2 0x27E2 JUMP JUMPDEST PUSH1 0x40 MLOAD DUP1 SWAP2 SUB SWAP1 RETURN JUMPDEST CALLVALUE DUP1 ISZERO PUSH2 0x44B JUMPI PUSH1 0x0 DUP1 REVERT JUMPDEST POP PUSH2 0x454 PUSH2 0x17D6 JUMP JUMPDEST PUSH1 0x40 MLOAD PUSH2 0x461 SWAP2 SWAP1 PUSH2 0x267A JUMP JUMPDEST PUSH1 0x40 MLOAD DUP1 SWAP2 SUB SWAP1 RETURN JUMPDEST CALLVALUE DUP1 ISZERO PUSH2 0x476 JUMPI PUSH1 0x0 DUP1 REVERT JUMPDEST POP PUSH2 0x47F PUSH2 0x1864 JUMP JUMPDEST PUSH1 0x40 MLOAD PUSH2 0x48C SWAP2 SWAP1 PUSH2 0x27E2 JUMP JUMPDEST PUSH1 0x40 MLOAD DUP1 SWAP2 SUB SWAP1 RETURN JUMPDEST CALLVALUE DUP1 ISZERO PUSH2 0x4A1 JUMPI PUSH1 0x0 DUP1 REVERT JUMPDEST POP PUSH2 0x4AA PUSH2 0x186E JUMP JUMPDEST PUSH1 0x40 MLOAD PUSH2 0x4B7 SWAP2 SWAP1 PUSH2 0x265F JUMP JUMPDEST PUSH1 0x40 MLOAD DUP1 SWAP2 SUB SWAP1 RETURN JUMPDEST CALLVALUE DUP1 ISZERO PUSH2 0x4CC JUMPI PUSH1 0x0 DUP1 REVERT JUMPDEST POP PUSH2 0x4E7 PUSH1 0x4 DUP1 CALLDATASIZE SUB PUSH2 0x4E2 SWAP2 SWAP1 DUP2 ADD SWAP1 PUSH2 0x1F5E JUMP JUMPDEST PUSH2 0x1894 JUMP JUMPDEST PUSH1 0x40 MLOAD PUSH2 0x4FA SWAP8 SWAP7 SWAP6 SWAP5 SWAP4 SWAP3 SWAP2 SWAP1 PUSH2 0x2742 JUMP JUMPDEST PUSH1 0x40 MLOAD DUP1 SWAP2 SUB SWAP1 RETURN JUMPDEST PUSH1 0x60 PUSH1 0x1 DUP1 SLOAD DUP1 PUSH1 0x20 MUL PUSH1 0x20 ADD PUSH1 0x40 MLOAD SWAP1 DUP2 ADD PUSH1 0x40 MSTORE DUP1 SWAP3 SWAP2 SWAP1 DUP2 DUP2 MSTORE PUSH1 0x20 ADD DUP3 DUP1 SLOAD DUP1 ISZERO PUSH2 0x587 JUMPI PUSH1 0x20 MUL DUP3 ADD SWAP2 SWAP1 PUSH1 0x0 MSTORE PUSH1 0x20 PUSH1 0x0 KECCAK256 SWAP1 JUMPDEST DUP2 PUSH1 0x0 SWAP1 SLOAD SWAP1 PUSH2 0x100 EXP SWAP1 DIV PUSH20 0xFFFFFFFFFFFFFFFFFFFFFFFFFFFFFFFFFFFFFFFF AND PUSH20 0xFFFFFFFFFFFFFFFFFFFFFFFFFFFFFFFFFFFFFFFF AND DUP2 MSTORE PUSH1 0x20 ADD SWAP1 PUSH1 0x1 ADD SWAP1 DUP1 DUP4 GT PUSH2 0x53D JUMPI JUMPDEST POP POP POP POP POP SWAP1 POP SWAP1 JUMP JUMPDEST PUSH1 0x0 DUP1 PUSH1 0x5 PUSH1 0x0 CALLER PUSH20 0xFFFFFFFFFFFFFFFFFFFFFFFFFFFFFFFFFFFFFFFF AND PUSH20 0xFFFFFFFFFFFFFFFFFFFFFFFFFFFFFFFFFFFFFFFF AND DUP2 MSTORE PUSH1 0x20 ADD SWAP1 DUP2 MSTORE PUSH1 0x20 ADD PUSH1 0x0 KECCAK256 PUSH1 0x0 DUP5 PUSH20 0xFFFFFFFFFFFFFFFFFFFFFFFFFFFFFFFFFFFFFFFF AND PUSH20 0xFFFFFFFFFFFFFFFFFFFFFFFFFFFFFFFFFFFFFFFF AND DUP2 MSTORE PUSH1 0x20 ADD SWAP1 DUP2 MSTORE PUSH1 0x20 ADD PUSH1 0x0 KECCAK256 PUSH1 0x0 PUSH2 0x100 EXP DUP2 SLOAD DUP2 PUSH1 0xFF MUL NOT AND SWAP1 DUP4 ISZERO ISZERO MUL OR SWAP1 SSTORE POP PUSH1 0x1 SWAP1 POP SWAP2 SWAP1 POP JUMP JUMPDEST PUSH1 0x60 DUP1 PUSH1 0x60 DUP1 PUSH1 0x60 DUP1 PUSH1 0x0 PUSH1 0x5 PUSH1 0x0 DUP10 PUSH20 0xFFFFFFFFFFFFFFFFFFFFFFFFFFFFFFFFFFFFFFFF AND PUSH20 0xFFFFFFFFFFFFFFFFFFFFFFFFFFFFFFFFFFFFFFFF AND DUP2 MSTORE PUSH1 0x20 ADD SWAP1 DUP2 MSTORE PUSH1 0x20 ADD PUSH1 0x0 KECCAK256 PUSH1 0x0 CALLER PUSH20 0xFFFFFFFFFFFFFFFFFFFFFFFFFFFFFFFFFFFFFFFF AND PUSH20 0xFFFFFFFFFFFFFFFFFFFFFFFFFFFFFFFFFFFFFFFF AND DUP2 MSTORE PUSH1 0x20 ADD SWAP1 DUP2 MSTORE PUSH1 0x20 ADD PUSH1 0x0 KECCAK256 PUSH1 0x0 SWAP1 SLOAD SWAP1 PUSH2 0x100 EXP SWAP1 DIV PUSH1 0xFF AND ISZERO ISZERO PUSH2 0x6D0 JUMPI PUSH1 0x0 DUP1 REVERT JUMPDEST PUSH1 0x3 PUSH1 0x0 DUP10 PUSH20 0xFFFFFFFFFFFFFFFFFFFFFFFFFFFFFFFFFFFFFFFF AND PUSH20 0xFFFFFFFFFFFFFFFFFFFFFFFFFFFFFFFFFFFFFFFF AND DUP2 MSTORE PUSH1 0x20 ADD SWAP1 DUP2 MSTORE PUSH1 0x20 ADD PUSH1 0x0 KECCAK256 SWAP1 POP DUP1 PUSH1 0x0 ADD DUP2 PUSH1 0x1 ADD DUP3 PUSH1 0x2 ADD DUP4 PUSH1 0x3 ADD DUP5 PUSH1 0x4 ADD DUP6 PUSH1 0x5 ADD DUP6 DUP1 SLOAD PUSH1 0x1 DUP2 PUSH1 0x1 AND ISZERO PUSH2 0x100 MUL SUB AND PUSH1 0x2 SWAP1 DIV DUP1 PUSH1 0x1F ADD PUSH1 0x20 DUP1 SWAP2 DIV MUL PUSH1 0x20 ADD PUSH1 0x40 MLOAD SWAP1 DUP2 ADD PUSH1 0x40 MSTORE DUP1 SWAP3 SWAP2 SWAP1 DUP2 DUP2 MSTORE PUSH1 0x20 ADD DUP3 DUP1 SLOAD PUSH1 0x1 DUP2 PUSH1 0x1 AND ISZERO PUSH2 0x100 MUL SUB AND PUSH1 0x2 SWAP1 DIV DUP1 ISZERO PUSH2 0x7BE JUMPI DUP1 PUSH1 0x1F LT PUSH2 0x793 JUMPI PUSH2 0x100 DUP1 DUP4 SLOAD DIV MUL DUP4 MSTORE SWAP2 PUSH1 0x20 ADD SWAP2 PUSH2 0x7BE JUMP JUMPDEST DUP3 ADD SWAP2 SWAP1 PUSH1 0x0 MSTORE PUSH1 0x20 PUSH1 0x0 KECCAK256 SWAP1 JUMPDEST DUP2 SLOAD DUP2 MSTORE SWAP1 PUSH1 0x1 ADD SWAP1 PUSH1 0x20 ADD DUP1 DUP4 GT PUSH2 0x7A1 JUMPI DUP3 SWAP1 SUB PUSH1 0x1F AND DUP3 ADD SWAP2 JUMPDEST POP POP POP POP POP SWAP6 POP DUP5 DUP1 SLOAD PUSH1 0x1 DUP2 PUSH1 0x1 AND ISZERO PUSH2 0x100 MUL SUB AND PUSH1 0x2 SWAP1 DIV DUP1 PUSH1 0x1F ADD PUSH1 0x20 DUP1 SWAP2 DIV MUL PUSH1 0x20 ADD PUSH1 0x40 MLOAD SWAP1 DUP2 ADD PUSH1 0x40 MSTORE DUP1 SWAP3 SWAP2 SWAP1 DUP2 DUP2 MSTORE PUSH1 0x20 ADD DUP3 DUP1 SLOAD PUSH1 0x1 DUP2 PUSH1 0x1 AND ISZERO PUSH2 0x100 MUL SUB AND PUSH1 0x2 SWAP1 DIV DUP1 ISZERO PUSH2 0x85A JUMPI DUP1 PUSH1 0x1F LT PUSH2 0x82F JUMPI PUSH2 0x100 DUP1 DUP4 SLOAD DIV MUL DUP4 MSTORE SWAP2 PUSH1 0x20 ADD SWAP2 PUSH2 0x85A JUMP JUMPDEST DUP3 ADD SWAP2 SWAP1 PUSH1 0x0 MSTORE PUSH1 0x20 PUSH1 0x0 KECCAK256 SWAP1 JUMPDEST DUP2 SLOAD DUP2 MSTORE SWAP1 PUSH1 0x1 ADD SWAP1 PUSH1 0x20 ADD DUP1 DUP4 GT PUSH2 0x83D JUMPI DUP3 SWAP1 SUB PUSH1 0x1F AND DUP3 ADD SWAP2 JUMPDEST POP POP POP POP POP SWAP5 POP DUP4 DUP1 SLOAD PUSH1 0x1 DUP2 PUSH1 0x1 AND ISZERO PUSH2 0x100 MUL SUB AND PUSH1 0x2 SWAP1 DIV DUP1 PUSH1 0x1F ADD PUSH1 0x20 DUP1 SWAP2 DIV MUL PUSH1 0x20 ADD PUSH1 0x40 MLOAD SWAP1 DUP2 ADD PUSH1 0x40 MSTORE DUP1 SWAP3 SWAP2 SWAP1 DUP2 DUP2 MSTORE PUSH1 0x20 ADD DUP3 DUP1 SLOAD PUSH1 0x1 DUP2 PUSH1 0x1 AND ISZERO PUSH2 0x100 MUL SUB AND PUSH1 0x2 SWAP1 DIV DUP1 ISZERO PUSH2 0x8F6 JUMPI DUP1 PUSH1 0x1F LT PUSH2 0x8CB JUMPI PUSH2 0x100 DUP1 DUP4 SLOAD DIV MUL DUP4 MSTORE SWAP2 PUSH1 0x20 ADD SWAP2 PUSH2 0x8F6 JUMP JUMPDEST DUP3 ADD SWAP2 SWAP1 PUSH1 0x0 MSTORE PUSH1 0x20 PUSH1 0x0 KECCAK256 SWAP1 JUMPDEST DUP2 SLOAD DUP2 MSTORE SWAP1 PUSH1 0x1 ADD SWAP1 PUSH1 0x20 ADD DUP1 DUP4 GT PUSH2 0x8D9 JUMPI DUP3 SWAP1 SUB PUSH1 0x1F AND DUP3 ADD SWAP2 JUMPDEST POP POP POP POP POP SWAP4 POP DUP3 DUP1 SLOAD PUSH1 0x1 DUP2 PUSH1 0x1 AND ISZERO PUSH2 0x100 MUL SUB AND PUSH1 0x2 SWAP1 DIV DUP1 PUSH1 0x1F ADD PUSH1 0x20 DUP1 SWAP2 DIV MUL PUSH1 0x20 ADD PUSH1 0x40 MLOAD SWAP1 DUP2 ADD PUSH1 0x40 MSTORE DUP1 SWAP3 SWAP2 SWAP1 DUP2 DUP2 MSTORE PUSH1 0x20 ADD DUP3 DUP1 SLOAD PUSH1 0x1 DUP2 PUSH1 0x1 AND ISZERO PUSH2 0x100 MUL SUB AND PUSH1 0x2 SWAP1 DIV DUP1 ISZERO PUSH2 0x992 JUMPI DUP1 PUSH1 0x1F LT PUSH2 0x967 JUMPI PUSH2 0x100 DUP1 DUP4 SLOAD DIV MUL DUP4 MSTORE SWAP2 PUSH1 0x20 ADD SWAP2 PUSH2 0x992 JUMP JUMPDEST DUP3 ADD SWAP2 SWAP1 PUSH1 0x0 MSTORE PUSH1 0x20 PUSH1 0x0 KECCAK256 SWAP1 JUMPDEST DUP2 SLOAD DUP2 MSTORE SWAP1 PUSH1 0x1 ADD SWAP1 PUSH1 0x20 ADD DUP1 DUP4 GT PUSH2 0x975 JUMPI DUP3 SWAP1 SUB PUSH1 0x1F AND DUP3 ADD SWAP2 JUMPDEST POP POP POP POP POP SWAP3 POP DUP2 DUP1 SLOAD PUSH1 0x1 DUP2 PUSH1 0x1 AND ISZERO PUSH2 0x100 MUL SUB AND PUSH1 0x2 SWAP1 DIV DUP1 PUSH1 0x1F ADD PUSH1 0x20 DUP1 SWAP2 DIV MUL PUSH1 0x20 ADD PUSH1 0x40 MLOAD SWAP1 DUP2 ADD PUSH1 0x40 MSTORE DUP1 SWAP3 SWAP2 SWAP1 DUP2 DUP2 MSTORE PUSH1 0x20 ADD DUP3 DUP1 SLOAD PUSH1 0x1 DUP2 PUSH1 0x1 AND ISZERO PUSH2 0x100 MUL SUB AND PUSH1 0x2 SWAP1 DIV DUP1 ISZERO PUSH2 0xA2E JUMPI DUP1 PUSH1 0x1F LT PUSH2 0xA03 JUMPI PUSH2 0x100 DUP1 DUP4 SLOAD DIV MUL DUP4 MSTORE SWAP2 PUSH1 0x20 ADD SWAP2 PUSH2 0xA2E JUMP JUMPDEST DUP3 ADD SWAP2 SWAP1 PUSH1 0x0 MSTORE PUSH1 0x20 PUSH1 0x0 KECCAK256 SWAP1 JUMPDEST DUP2 SLOAD DUP2 MSTORE SWAP1 PUSH1 0x1 ADD SWAP1 PUSH1 0x20 ADD DUP1 DUP4 GT PUSH2 0xA11 JUMPI DUP3 SWAP1 SUB PUSH1 0x1F AND DUP3 ADD SWAP2 JUMPDEST POP POP POP POP POP SWAP2 POP DUP1 DUP1 SLOAD PUSH1 0x1 DUP2 PUSH1 0x1 AND ISZERO PUSH2 0x100 MUL SUB AND PUSH1 0x2 SWAP1 DIV DUP1 PUSH1 0x1F ADD PUSH1 0x20 DUP1 SWAP2 DIV MUL PUSH1 0x20 ADD PUSH1 0x40 MLOAD SWAP1 DUP2 ADD PUSH1 0x40 MSTORE DUP1 SWAP3 SWAP2 SWAP1 DUP2 DUP2 MSTORE PUSH1 0x20 ADD DUP3 DUP1 SLOAD PUSH1 0x1 DUP2 PUSH1 0x1 AND ISZERO PUSH2 0x100 MUL SUB AND PUSH1 0x2 SWAP1 DIV DUP1 ISZERO PUSH2 0xACA JUMPI DUP1 PUSH1 0x1F LT PUSH2 0xA9F JUMPI PUSH2 0x100 DUP1 DUP4 SLOAD DIV MUL DUP4 MSTORE SWAP2 PUSH1 0x20 ADD SWAP2 PUSH2 0xACA JUMP JUMPDEST DUP3 ADD SWAP2 SWAP1 PUSH1 0x0 MSTORE PUSH1 0x20 PUSH1 0x0 KECCAK256 SWAP1 JUMPDEST DUP2 SLOAD DUP2 MSTORE SWAP1 PUSH1 0x1 ADD SWAP1 PUSH1 0x20 ADD DUP1 DUP4 GT PUSH2 0xAAD JUMPI DUP3 SWAP1 SUB PUSH1 0x1F AND DUP3 ADD SWAP2 JUMPDEST POP POP POP POP POP SWAP1 POP SWAP7 POP SWAP7 POP SWAP7 POP SWAP7 POP SWAP7 POP SWAP7 POP POP SWAP2 SWAP4 SWAP6 POP SWAP2 SWAP4 SWAP6 JUMP JUMPDEST PUSH1 0x8 SLOAD DUP2 JUMP JUMPDEST PUSH1 0x2 DUP2 DUP2 SLOAD DUP2 LT ISZERO ISZERO PUSH2 0xAFC JUMPI INVALID JUMPDEST SWAP1 PUSH1 0x0 MSTORE PUSH1 0x20 PUSH1 0x0 KECCAK256 ADD PUSH1 0x0 SWAP2 POP SLOAD SWAP1 PUSH2 0x100 EXP SWAP1 DIV PUSH20 0xFFFFFFFFFFFFFFFFFFFFFFFFFFFFFFFFFFFFFFFF AND DUP2 JUMP JUMPDEST PUSH1 0x0 PUSH1 0xB PUSH1 0x0 SWAP1 SLOAD SWAP1 PUSH2 0x100 EXP SWAP1 DIV PUSH20 0xFFFFFFFFFFFFFFFFFFFFFFFFFFFFFFFFFFFFFFFF AND PUSH20 0xFFFFFFFFFFFFFFFFFFFFFFFFFFFFFFFFFFFFFFFF AND CALLER PUSH20 0xFFFFFFFFFFFFFFFFFFFFFFFFFFFFFFFFFFFFFFFF AND EQ ISZERO ISZERO PUSH2 0xB89 JUMPI PUSH1 0x0 DUP1 REVERT JUMPDEST PUSH1 0x4 PUSH1 0x0 DUP11 PUSH20 0xFFFFFFFFFFFFFFFFFFFFFFFFFFFFFFFFFFFFFFFF AND PUSH20 0xFFFFFFFFFFFFFFFFFFFFFFFFFFFFFFFFFFFFFFFF AND DUP2 MSTORE PUSH1 0x20 ADD SWAP1 DUP2 MSTORE PUSH1 0x20 ADD PUSH1 0x0 KECCAK256 SWAP1 POP DUP8 DUP2 PUSH1 0x0 ADD SWAP1 DUP1 MLOAD SWAP1 PUSH1 0x20 ADD SWAP1 PUSH2 0xBE2 SWAP3 SWAP2 SWAP1 PUSH2 0x1DB4 JUMP JUMPDEST POP DUP7 DUP2 PUSH1 0x1 ADD SWAP1 DUP1 MLOAD SWAP1 PUSH1 0x20 ADD SWAP1 PUSH2 0xBFB SWAP3 SWAP2 SWAP1 PUSH2 0x1DB4 JUMP JUMPDEST POP DUP6 DUP2 PUSH1 0x2 ADD SWAP1 DUP1 MLOAD SWAP1 PUSH1 0x20 ADD SWAP1 PUSH2 0xC14 SWAP3 SWAP2 SWAP1 PUSH2 0x1DB4 JUMP JUMPDEST POP DUP5 DUP2 PUSH1 0x3 ADD SWAP1 DUP1 MLOAD SWAP1 PUSH1 0x20 ADD SWAP1 PUSH2 0xC2D SWAP3 SWAP2 SWAP1 PUSH2 0x1DB4 JUMP JUMPDEST POP DUP4 DUP2 PUSH1 0x4 ADD SWAP1 DUP1 MLOAD SWAP1 PUSH1 0x20 ADD SWAP1 PUSH2 0xC46 SWAP3 SWAP2 SWAP1 PUSH2 0x1DB4 JUMP JUMPDEST POP DUP3 DUP2 PUSH1 0x7 ADD SWAP1 DUP1 MLOAD SWAP1 PUSH1 0x20 ADD SWAP1 PUSH2 0xC5F SWAP3 SWAP2 SWAP1 PUSH2 0x1DB4 JUMP JUMPDEST POP DUP2 DUP2 PUSH1 0x8 ADD SWAP1 DUP1 MLOAD SWAP1 PUSH1 0x20 ADD SWAP1 PUSH2 0xC78 SWAP3 SWAP2 SWAP1 PUSH2 0x1DB4 JUMP JUMPDEST POP DUP9 DUP2 PUSH1 0x9 ADD PUSH1 0x0 PUSH2 0x100 EXP DUP2 SLOAD DUP2 PUSH20 0xFFFFFFFFFFFFFFFFFFFFFFFFFFFFFFFFFFFFFFFF MUL NOT AND SWAP1 DUP4 PUSH20 0xFFFFFFFFFFFFFFFFFFFFFFFFFFFFFFFFFFFFFFFF AND MUL OR SWAP1 SSTORE POP POP POP POP POP POP POP POP POP POP JUMP JUMPDEST PUSH1 0x0 PUSH1 0xA SLOAD SWAP1 POP SWAP1 JUMP JUMPDEST PUSH1 0x0 DUP1 PUSH1 0x6 PUSH1 0x0 CALLER PUSH20 0xFFFFFFFFFFFFFFFFFFFFFFFFFFFFFFFFFFFFFFFF AND PUSH20 0xFFFFFFFFFFFFFFFFFFFFFFFFFFFFFFFFFFFFFFFF AND DUP2 MSTORE PUSH1 0x20 ADD SWAP1 DUP2 MSTORE PUSH1 0x20 ADD PUSH1 0x0 KECCAK256 PUSH1 0x0 SWAP1 SLOAD SWAP1 PUSH2 0x100 EXP SWAP1 DIV PUSH1 0xFF AND ISZERO ISZERO ISZERO PUSH2 0xD2D JUMPI PUSH1 0x0 DUP1 REVERT JUMPDEST PUSH1 0x3 PUSH1 0x0 CALLER PUSH20 0xFFFFFFFFFFFFFFFFFFFFFFFFFFFFFFFFFFFFFFFF AND PUSH20 0xFFFFFFFFFFFFFFFFFFFFFFFFFFFFFFFFFFFFFFFF AND DUP2 MSTORE PUSH1 0x20 ADD SWAP1 DUP2 MSTORE PUSH1 0x20 ADD PUSH1 0x0 KECCAK256 SWAP2 POP DUP11 DUP3 PUSH1 0x0 ADD SWAP1 DUP1 MLOAD SWAP1 PUSH1 0x20 ADD SWAP1 PUSH2 0xD86 SWAP3 SWAP2 SWAP1 PUSH2 0x1DB4 JUMP JUMPDEST POP DUP10 DUP3 PUSH1 0x1 ADD SWAP1 DUP1 MLOAD SWAP1 PUSH1 0x20 ADD SWAP1 PUSH2 0xD9F SWAP3 SWAP2 SWAP1 PUSH2 0x1DB4 JUMP JUMPDEST POP DUP9 DUP3 PUSH1 0x2 ADD SWAP1 DUP1 MLOAD SWAP1 PUSH1 0x20 ADD SWAP1 PUSH2 0xDB8 SWAP3 SWAP2 SWAP1 PUSH2 0x1DB4 JUMP JUMPDEST POP DUP8 DUP3 PUSH1 0x3 ADD SWAP1 DUP1 MLOAD SWAP1 PUSH1 0x20 ADD SWAP1 PUSH2 0xDD1 SWAP3 SWAP2 SWAP1 PUSH2 0x1DB4 JUMP JUMPDEST POP DUP7 DUP3 PUSH1 0x4 ADD SWAP1 DUP1 MLOAD SWAP1 PUSH1 0x20 ADD SWAP1 PUSH2 0xDEA SWAP3 SWAP2 SWAP1 PUSH2 0x1DB4 JUMP JUMPDEST POP DUP6 DUP3 PUSH1 0x5 ADD SWAP1 DUP1 MLOAD SWAP1 PUSH1 0x20 ADD SWAP1 PUSH2 0xE03 SWAP3 SWAP2 SWAP1 PUSH2 0x1DB4 JUMP JUMPDEST POP DUP5 DUP3 PUSH1 0x6 ADD SWAP1 DUP1 MLOAD SWAP1 PUSH1 0x20 ADD SWAP1 PUSH2 0xE1C SWAP3 SWAP2 SWAP1 PUSH2 0x1DB4 JUMP JUMPDEST POP DUP4 DUP3 PUSH1 0x7 ADD SWAP1 DUP1 MLOAD SWAP1 PUSH1 0x20 ADD SWAP1 PUSH2 0xE35 SWAP3 SWAP2 SWAP1 PUSH2 0x1DB4 JUMP JUMPDEST POP DUP3 DUP3 PUSH1 0x8 ADD SWAP1 DUP1 MLOAD SWAP1 PUSH1 0x20 ADD SWAP1 PUSH2 0xE4E SWAP3 SWAP2 SWAP1 PUSH2 0x1DB4 JUMP JUMPDEST POP CALLER DUP3 PUSH1 0x9 ADD PUSH1 0x0 PUSH2 0x100 EXP DUP2 SLOAD DUP2 PUSH20 0xFFFFFFFFFFFFFFFFFFFFFFFFFFFFFFFFFFFFFFFF MUL NOT AND SWAP1 DUP4 PUSH20 0xFFFFFFFFFFFFFFFFFFFFFFFFFFFFFFFFFFFFFFFF AND MUL OR SWAP1 SSTORE POP TIMESTAMP DUP3 PUSH1 0xA ADD DUP2 SWAP1 SSTORE POP PUSH1 0x1 CALLER SWAP1 DUP1 PUSH1 0x1 DUP2 SLOAD ADD DUP1 DUP3 SSTORE DUP1 SWAP2 POP POP SWAP1 PUSH1 0x1 DUP3 SUB SWAP1 PUSH1 0x0 MSTORE PUSH1 0x20 PUSH1 0x0 KECCAK256 ADD PUSH1 0x0 SWAP1 SWAP2 SWAP3 SWAP1 SWAP2 SWAP1 SWAP2 PUSH2 0x100 EXP DUP2 SLOAD DUP2 PUSH20 0xFFFFFFFFFFFFFFFFFFFFFFFFFFFFFFFFFFFFFFFF MUL NOT AND SWAP1 DUP4 PUSH20 0xFFFFFFFFFFFFFFFFFFFFFFFFFFFFFFFFFFFFFFFF AND MUL OR SWAP1 SSTORE POP POP PUSH1 0x1 PUSH1 0x6 PUSH1 0x0 CALLER PUSH20 0xFFFFFFFFFFFFFFFFFFFFFFFFFFFFFFFFFFFFFFFF AND PUSH20 0xFFFFFFFFFFFFFFFFFFFFFFFFFFFFFFFFFFFFFFFF AND DUP2 MSTORE PUSH1 0x20 ADD SWAP1 DUP2 MSTORE PUSH1 0x20 ADD PUSH1 0x0 KECCAK256 PUSH1 0x0 PUSH2 0x100 EXP DUP2 SLOAD DUP2 PUSH1 0xFF MUL NOT AND SWAP1 DUP4 ISZERO ISZERO MUL OR SWAP1 SSTORE POP PUSH1 0x1 PUSH1 0x5 PUSH1 0x0 CALLER PUSH20 0xFFFFFFFFFFFFFFFFFFFFFFFFFFFFFFFFFFFFFFFF AND PUSH20 0xFFFFFFFFFFFFFFFFFFFFFFFFFFFFFFFFFFFFFFFF AND DUP2 MSTORE PUSH1 0x20 ADD SWAP1 DUP2 MSTORE PUSH1 0x20 ADD PUSH1 0x0 KECCAK256 PUSH1 0x0 CALLER PUSH20 0xFFFFFFFFFFFFFFFFFFFFFFFFFFFFFFFFFFFFFFFF AND PUSH20 0xFFFFFFFFFFFFFFFFFFFFFFFFFFFFFFFFFFFFFFFF AND DUP2 MSTORE PUSH1 0x20 ADD SWAP1 DUP2 MSTORE PUSH1 0x20 ADD PUSH1 0x0 KECCAK256 PUSH1 0x0 PUSH2 0x100 EXP DUP2 SLOAD DUP2 PUSH1 0xFF MUL NOT AND SWAP1 DUP4 ISZERO ISZERO MUL OR SWAP1 SSTORE POP PUSH1 0x8 PUSH1 0x0 DUP2 SLOAD DUP1 SWAP3 SWAP2 SWAP1 PUSH1 0x1 ADD SWAP2 SWAP1 POP SSTORE POP DUP1 DUP3 PUSH1 0x0 ADD SWAP1 DUP1 PUSH1 0x1 DUP2 SLOAD ADD DUP1 DUP3 SSTORE DUP1 SWAP2 POP POP SWAP1 PUSH1 0x1 DUP3 SUB SWAP1 PUSH1 0x0 MSTORE PUSH1 0x20 PUSH1 0x0 KECCAK256 ADD PUSH1 0x0 SWAP1 SWAP2 SWAP3 SWAP1 SWAP2 SWAP1 SWAP2 POP SWAP1 DUP1 SLOAD PUSH1 0x1 DUP2 PUSH1 0x1 AND ISZERO PUSH2 0x100 MUL SUB AND PUSH1 0x2 SWAP1 DIV PUSH2 0x104B SWAP3 SWAP2 SWAP1 PUSH2 0x1E34 JUMP JUMPDEST POP POP DUP1 DUP3 PUSH1 0x1 ADD SWAP1 DUP1 PUSH1 0x1 DUP2 SLOAD ADD DUP1 DUP3 SSTORE DUP1 SWAP2 POP POP SWAP1 PUSH1 0x1 DUP3 SUB SWAP1 PUSH1 0x0 MSTORE PUSH1 0x20 PUSH1 0x0 KECCAK256 ADD PUSH1 0x0 SWAP1 SWAP2 SWAP3 SWAP1 SWAP2 SWAP1 SWAP2 POP SWAP1 DUP1 SLOAD PUSH1 0x1 DUP2 PUSH1 0x1 AND ISZERO PUSH2 0x100 MUL SUB AND PUSH1 0x2 SWAP1 DIV PUSH2 0x1098 SWAP3 SWAP2 SWAP1 PUSH2 0x1E34 JUMP JUMPDEST POP POP DUP1 DUP3 PUSH1 0x2 ADD SWAP1 DUP1 PUSH1 0x1 DUP2 SLOAD ADD DUP1 DUP3 SSTORE DUP1 SWAP2 POP POP SWAP1 PUSH1 0x1 DUP3 SUB SWAP1 PUSH1 0x0 MSTORE PUSH1 0x20 PUSH1 0x0 KECCAK256 ADD PUSH1 0x0 SWAP1 SWAP2 SWAP3 SWAP1 SWAP2 SWAP1 SWAP2 POP SWAP1 DUP1 SLOAD PUSH1 0x1 DUP2 PUSH1 0x1 AND ISZERO PUSH2 0x100 MUL SUB AND PUSH1 0x2 SWAP1 DIV PUSH2 0x10E5 SWAP3 SWAP2 SWAP1 PUSH2 0x1E34 JUMP JUMPDEST POP POP DUP1 DUP3 PUSH1 0x3 ADD SWAP1 DUP1 PUSH1 0x1 DUP2 SLOAD ADD DUP1 DUP3 SSTORE DUP1 SWAP2 POP POP SWAP1 PUSH1 0x1 DUP3 SUB SWAP1 PUSH1 0x0 MSTORE PUSH1 0x20 PUSH1 0x0 KECCAK256 ADD PUSH1 0x0 SWAP1 SWAP2 SWAP3 SWAP1 SWAP2 SWAP1 SWAP2 POP SWAP1 DUP1 SLOAD PUSH1 0x1 DUP2 PUSH1 0x1 AND ISZERO PUSH2 0x100 MUL SUB AND PUSH1 0x2 SWAP1 DIV PUSH2 0x1132 SWAP3 SWAP2 SWAP1 PUSH2 0x1E34 JUMP JUMPDEST POP POP DUP1 DUP3 PUSH1 0x4 ADD SWAP1 DUP1 PUSH1 0x1 DUP2 SLOAD ADD DUP1 DUP3 SSTORE DUP1 SWAP2 POP POP SWAP1 PUSH1 0x1 DUP3 SUB SWAP1 PUSH1 0x0 MSTORE PUSH1 0x20 PUSH1 0x0 KECCAK256 ADD PUSH1 0x0 SWAP1 SWAP2 SWAP3 SWAP1 SWAP2 SWAP1 SWAP2 POP SWAP1 DUP1 SLOAD PUSH1 0x1 DUP2 PUSH1 0x1 AND ISZERO PUSH2 0x100 MUL SUB AND PUSH1 0x2 SWAP1 DIV PUSH2 0x117F SWAP3 SWAP2 SWAP1 PUSH2 0x1E34 JUMP JUMPDEST POP POP DUP1 DUP3 PUSH1 0x5 ADD SWAP1 DUP1 PUSH1 0x1 DUP2 SLOAD ADD DUP1 DUP3 SSTORE DUP1 SWAP2 POP POP SWAP1 PUSH1 0x1 DUP3 SUB SWAP1 PUSH1 0x0 MSTORE PUSH1 0x20 PUSH1 0x0 KECCAK256 ADD PUSH1 0x0 SWAP1 SWAP2 SWAP3 SWAP1 SWAP2 SWAP1 SWAP2 POP SWAP1 DUP1 SLOAD PUSH1 0x1 DUP2 PUSH1 0x1 AND ISZERO PUSH2 0x100 MUL SUB AND PUSH1 0x2 SWAP1 DIV PUSH2 0x11CC SWAP3 SWAP2 SWAP1 PUSH2 0x1E34 JUMP JUMPDEST POP POP DUP1 DUP3 PUSH1 0x6 ADD SWAP1 DUP1 PUSH1 0x1 DUP2 SLOAD ADD DUP1 DUP3 SSTORE DUP1 SWAP2 POP POP SWAP1 PUSH1 0x1 DUP3 SUB SWAP1 PUSH1 0x0 MSTORE PUSH1 0x20 PUSH1 0x0 KECCAK256 ADD PUSH1 0x0 SWAP1 SWAP2 SWAP3 SWAP1 SWAP2 SWAP1 SWAP2 POP SWAP1 DUP1 SLOAD PUSH1 0x1 DUP2 PUSH1 0x1 AND ISZERO PUSH2 0x100 MUL SUB AND PUSH1 0x2 SWAP1 DIV PUSH2 0x1219 SWAP3 SWAP2 SWAP1 PUSH2 0x1E34 JUMP JUMPDEST POP POP POP POP POP POP POP POP POP POP POP POP POP JUMP JUMPDEST PUSH1 0x0 PUSH1 0x1 PUSH1 0x5 PUSH1 0x0 CALLER PUSH20 0xFFFFFFFFFFFFFFFFFFFFFFFFFFFFFFFFFFFFFFFF AND PUSH20 0xFFFFFFFFFFFFFFFFFFFFFFFFFFFFFFFFFFFFFFFF AND DUP2 MSTORE PUSH1 0x20 ADD SWAP1 DUP2 MSTORE PUSH1 0x20 ADD PUSH1 0x0 KECCAK256 PUSH1 0x0 DUP5 PUSH20 0xFFFFFFFFFFFFFFFFFFFFFFFFFFFFFFFFFFFFFFFF AND PUSH20 0xFFFFFFFFFFFFFFFFFFFFFFFFFFFFFFFFFFFFFFFF AND DUP2 MSTORE PUSH1 0x20 ADD SWAP1 DUP2 MSTORE PUSH1 0x20 ADD PUSH1 0x0 KECCAK256 PUSH1 0x0 PUSH2 0x100 EXP DUP2 SLOAD DUP2 PUSH1 0xFF MUL NOT AND SWAP1 DUP4 ISZERO ISZERO MUL OR SWAP1 SSTORE POP PUSH1 0xA PUSH1 0x0 DUP2 SLOAD DUP1 SWAP3 SWAP2 SWAP1 PUSH1 0x1 ADD SWAP2 SWAP1 POP SSTORE POP PUSH1 0x1 SWAP1 POP SWAP2 SWAP1 POP JUMP JUMPDEST PUSH1 0x0 PUSH1 0xB PUSH1 0x0 SWAP1 SLOAD SWAP1 PUSH2 0x100 EXP SWAP1 DIV PUSH20 0xFFFFFFFFFFFFFFFFFFFFFFFFFFFFFFFFFFFFFFFF AND PUSH20 0xFFFFFFFFFFFFFFFFFFFFFFFFFFFFFFFFFFFFFFFF AND CALLER PUSH20 0xFFFFFFFFFFFFFFFFFFFFFFFFFFFFFFFFFFFFFFFF AND EQ ISZERO ISZERO PUSH2 0x1338 JUMPI PUSH1 0x0 DUP1 REVERT JUMPDEST PUSH1 0x3 PUSH1 0x0 DUP13 PUSH20 0xFFFFFFFFFFFFFFFFFFFFFFFFFFFFFFFFFFFFFFFF AND PUSH20 0xFFFFFFFFFFFFFFFFFFFFFFFFFFFFFFFFFFFFFFFF AND DUP2 MSTORE PUSH1 0x20 ADD SWAP1 DUP2 MSTORE PUSH1 0x20 ADD PUSH1 0x0 KECCAK256 SWAP1 POP DUP10 DUP2 PUSH1 0x0 ADD SWAP1 DUP1 MLOAD SWAP1 PUSH1 0x20 ADD SWAP1 PUSH2 0x1391 SWAP3 SWAP2 SWAP1 PUSH2 0x1DB4 JUMP JUMPDEST POP DUP9 DUP2 PUSH1 0x1 ADD SWAP1 DUP1 MLOAD SWAP1 PUSH1 0x20 ADD SWAP1 PUSH2 0x13AA SWAP3 SWAP2 SWAP1 PUSH2 0x1DB4 JUMP JUMPDEST POP DUP8 DUP2 PUSH1 0x2 ADD SWAP1 DUP1 MLOAD SWAP1 PUSH1 0x20 ADD SWAP1 PUSH2 0x13C3 SWAP3 SWAP2 SWAP1 PUSH2 0x1DB4 JUMP JUMPDEST POP DUP7 DUP2 PUSH1 0x3 ADD SWAP1 DUP1 MLOAD SWAP1 PUSH1 0x20 ADD SWAP1 PUSH2 0x13DC SWAP3 SWAP2 SWAP1 PUSH2 0x1DB4 JUMP JUMPDEST POP DUP6 DUP2 PUSH1 0x4 ADD SWAP1 DUP1 MLOAD SWAP1 PUSH1 0x20 ADD SWAP1 PUSH2 0x13F5 SWAP3 SWAP2 SWAP1 PUSH2 0x1DB4 JUMP JUMPDEST POP DUP5 DUP2 PUSH1 0x5 ADD SWAP1 DUP1 MLOAD SWAP1 PUSH1 0x20 ADD SWAP1 PUSH2 0x140E SWAP3 SWAP2 SWAP1 PUSH2 0x1DB4 JUMP JUMPDEST POP DUP4 DUP2 PUSH1 0x6 ADD SWAP1 DUP1 MLOAD SWAP1 PUSH1 0x20 ADD SWAP1 PUSH2 0x1427 SWAP3 SWAP2 SWAP1 PUSH2 0x1DB4 JUMP JUMPDEST POP DUP3 DUP2 PUSH1 0x7 ADD SWAP1 DUP1 MLOAD SWAP1 PUSH1 0x20 ADD SWAP1 PUSH2 0x1440 SWAP3 SWAP2 SWAP1 PUSH2 0x1DB4 JUMP JUMPDEST POP DUP2 DUP2 PUSH1 0x8 ADD SWAP1 DUP1 MLOAD SWAP1 PUSH1 0x20 ADD SWAP1 PUSH2 0x1459 SWAP3 SWAP2 SWAP1 PUSH2 0x1DB4 JUMP JUMPDEST POP DUP11 DUP2 PUSH1 0x9 ADD PUSH1 0x0 PUSH2 0x100 EXP DUP2 SLOAD DUP2 PUSH20 0xFFFFFFFFFFFFFFFFFFFFFFFFFFFFFFFFFFFFFFFF MUL NOT AND SWAP1 DUP4 PUSH20 0xFFFFFFFFFFFFFFFFFFFFFFFFFFFFFFFFFFFFFFFF AND MUL OR SWAP1 SSTORE POP POP POP POP POP POP POP POP POP POP POP POP JUMP JUMPDEST PUSH1 0x9 SLOAD DUP2 JUMP JUMPDEST PUSH1 0x0 PUSH1 0x9 SLOAD SWAP1 POP SWAP1 JUMP JUMPDEST PUSH1 0x0 PUSH1 0x7 PUSH1 0x0 CALLER PUSH20 0xFFFFFFFFFFFFFFFFFFFFFFFFFFFFFFFFFFFFFFFF AND PUSH20 0xFFFFFFFFFFFFFFFFFFFFFFFFFFFFFFFFFFFFFFFF AND DUP2 MSTORE PUSH1 0x20 ADD SWAP1 DUP2 MSTORE PUSH1 0x20 ADD PUSH1 0x0 KECCAK256 PUSH1 0x0 SWAP1 SLOAD SWAP1 PUSH2 0x100 EXP SWAP1 DIV PUSH1 0xFF AND ISZERO ISZERO ISZERO PUSH2 0x1515 JUMPI PUSH1 0x0 DUP1 REVERT JUMPDEST PUSH1 0x4 PUSH1 0x0 CALLER PUSH20 0xFFFFFFFFFFFFFFFFFFFFFFFFFFFFFFFFFFFFFFFF AND PUSH20 0xFFFFFFFFFFFFFFFFFFFFFFFFFFFFFFFFFFFFFFFF AND DUP2 MSTORE PUSH1 0x20 ADD SWAP1 DUP2 MSTORE PUSH1 0x20 ADD PUSH1 0x0 KECCAK256 SWAP1 POP DUP8 DUP2 PUSH1 0x0 ADD SWAP1 DUP1 MLOAD SWAP1 PUSH1 0x20 ADD SWAP1 PUSH2 0x156E SWAP3 SWAP2 SWAP1 PUSH2 0x1DB4 JUMP JUMPDEST POP DUP7 DUP2 PUSH1 0x1 ADD SWAP1 DUP1 MLOAD SWAP1 PUSH1 0x20 ADD SWAP1 PUSH2 0x1587 SWAP3 SWAP2 SWAP1 PUSH2 0x1DB4 JUMP JUMPDEST POP DUP6 DUP2 PUSH1 0x2 ADD SWAP1 DUP1 MLOAD SWAP1 PUSH1 0x20 ADD SWAP1 PUSH2 0x15A0 SWAP3 SWAP2 SWAP1 PUSH2 0x1DB4 JUMP JUMPDEST POP DUP5 DUP2 PUSH1 0x3 ADD SWAP1 DUP1 MLOAD SWAP1 PUSH1 0x20 ADD SWAP1 PUSH2 0x15B9 SWAP3 SWAP2 SWAP1 PUSH2 0x1DB4 JUMP JUMPDEST POP DUP4 DUP2 PUSH1 0x4 ADD SWAP1 DUP1 MLOAD SWAP1 PUSH1 0x20 ADD SWAP1 PUSH2 0x15D2 SWAP3 SWAP2 SWAP1 PUSH2 0x1DB4 JUMP JUMPDEST POP DUP3 DUP2 PUSH1 0x7 ADD SWAP1 DUP1 MLOAD SWAP1 PUSH1 0x20 ADD SWAP1 PUSH2 0x15EB SWAP3 SWAP2 SWAP1 PUSH2 0x1DB4 JUMP JUMPDEST POP DUP2 DUP2 PUSH1 0x8 ADD SWAP1 DUP1 MLOAD SWAP1 PUSH1 0x20 ADD SWAP1 PUSH2 0x1604 SWAP3 SWAP2 SWAP1 PUSH2 0x1DB4 JUMP JUMPDEST POP CALLER DUP2 PUSH1 0x9 ADD PUSH1 0x0 PUSH2 0x100 EXP DUP2 SLOAD DUP2 PUSH20 0xFFFFFFFFFFFFFFFFFFFFFFFFFFFFFFFFFFFFFFFF MUL NOT AND SWAP1 DUP4 PUSH20 0xFFFFFFFFFFFFFFFFFFFFFFFFFFFFFFFFFFFFFFFF AND MUL OR SWAP1 SSTORE POP TIMESTAMP DUP2 PUSH1 0xA ADD DUP2 SWAP1 SSTORE POP PUSH1 0x2 CALLER SWAP1 DUP1 PUSH1 0x1 DUP2 SLOAD ADD DUP1 DUP3 SSTORE DUP1 SWAP2 POP POP SWAP1 PUSH1 0x1 DUP3 SUB SWAP1 PUSH1 0x0 MSTORE PUSH1 0x20 PUSH1 0x0 KECCAK256 ADD PUSH1 0x0 SWAP1 SWAP2 SWAP3 SWAP1 SWAP2 SWAP1 SWAP2 PUSH2 0x100 EXP DUP2 SLOAD DUP2 PUSH20 0xFFFFFFFFFFFFFFFFFFFFFFFFFFFFFFFFFFFFFFFF MUL NOT AND SWAP1 DUP4 PUSH20 0xFFFFFFFFFFFFFFFFFFFFFFFFFFFFFFFFFFFFFFFF AND MUL OR SWAP1 SSTORE POP POP PUSH1 0x1 PUSH1 0x7 PUSH1 0x0 CALLER PUSH20 0xFFFFFFFFFFFFFFFFFFFFFFFFFFFFFFFFFFFFFFFF AND PUSH20 0xFFFFFFFFFFFFFFFFFFFFFFFFFFFFFFFFFFFFFFFF AND DUP2 MSTORE PUSH1 0x20 ADD SWAP1 DUP2 MSTORE PUSH1 0x20 ADD PUSH1 0x0 KECCAK256 PUSH1 0x0 PUSH2 0x100 EXP DUP2 SLOAD DUP2 PUSH1 0xFF MUL NOT AND SWAP1 DUP4 ISZERO ISZERO MUL OR SWAP1 SSTORE POP PUSH1 0x9 PUSH1 0x0 DUP2 SLOAD DUP1 SWAP3 SWAP2 SWAP1 PUSH1 0x1 ADD SWAP2 SWAP1 POP SSTORE POP POP POP POP POP POP POP POP POP JUMP JUMPDEST PUSH1 0x0 DUP1 SWAP1 SLOAD SWAP1 PUSH2 0x100 EXP SWAP1 DIV PUSH20 0xFFFFFFFFFFFFFFFFFFFFFFFFFFFFFFFFFFFFFFFF AND DUP2 JUMP JUMPDEST CALLER PUSH1 0x0 DUP1 PUSH2 0x100 EXP DUP2 SLOAD DUP2 PUSH20 0xFFFFFFFFFFFFFFFFFFFFFFFFFFFFFFFFFFFFFFFF MUL NOT AND SWAP1 DUP4 PUSH20 0xFFFFFFFFFFFFFFFFFFFFFFFFFFFFFFFFFFFFFFFF AND MUL OR SWAP1 SSTORE POP JUMP JUMPDEST PUSH1 0x1 DUP2 DUP2 SLOAD DUP2 LT ISZERO ISZERO PUSH2 0x17A1 JUMPI INVALID JUMPDEST SWAP1 PUSH1 0x0 MSTORE PUSH1 0x20 PUSH1 0x0 KECCAK256 ADD PUSH1 0x0 SWAP2 POP SLOAD SWAP1 PUSH2 0x100 EXP SWAP1 DIV PUSH20 0xFFFFFFFFFFFFFFFFFFFFFFFFFFFFFFFFFFFFFFFF AND DUP2 JUMP JUMPDEST PUSH1 0xA SLOAD DUP2 JUMP JUMPDEST PUSH1 0x60 PUSH1 0x2 DUP1 SLOAD DUP1 PUSH1 0x20 MUL PUSH1 0x20 ADD PUSH1 0x40 MLOAD SWAP1 DUP2 ADD PUSH1 0x40 MSTORE DUP1 SWAP3 SWAP2 SWAP1 DUP2 DUP2 MSTORE PUSH1 0x20 ADD DUP3 DUP1 SLOAD DUP1 ISZERO PUSH2 0x185A JUMPI PUSH1 0x20 MUL DUP3 ADD SWAP2 SWAP1 PUSH1 0x0 MSTORE PUSH1 0x20 PUSH1 0x0 KECCAK256 SWAP1 JUMPDEST DUP2 PUSH1 0x0 SWAP1 SLOAD SWAP1 PUSH2 0x100 EXP SWAP1 DIV PUSH20 0xFFFFFFFFFFFFFFFFFFFFFFFFFFFFFFFFFFFFFFFF AND PUSH20 0xFFFFFFFFFFFFFFFFFFFFFFFFFFFFFFFFFFFFFFFF AND DUP2 MSTORE PUSH1 0x20 ADD SWAP1 PUSH1 0x1 ADD SWAP1 DUP1 DUP4 GT PUSH2 0x1810 JUMPI JUMPDEST POP POP POP POP POP SWAP1 POP SWAP1 JUMP JUMPDEST PUSH1 0x0 PUSH1 0x8 SLOAD SWAP1 POP SWAP1 JUMP JUMPDEST PUSH1 0xB PUSH1 0x0 SWAP1 SLOAD SWAP1 PUSH2 0x100 EXP SWAP1 DIV PUSH20 0xFFFFFFFFFFFFFFFFFFFFFFFFFFFFFFFFFFFFFFFF AND DUP2 JUMP JUMPDEST PUSH1 0x60 DUP1 PUSH1 0x60 DUP1 PUSH1 0x60 DUP1 PUSH1 0x60 PUSH1 0x0 PUSH1 0x7 PUSH1 0x0 DUP11 PUSH20 0xFFFFFFFFFFFFFFFFFFFFFFFFFFFFFFFFFFFFFFFF AND PUSH20 0xFFFFFFFFFFFFFFFFFFFFFFFFFFFFFFFFFFFFFFFF AND DUP2 MSTORE PUSH1 0x20 ADD SWAP1 DUP2 MSTORE PUSH1 0x20 ADD PUSH1 0x0 KECCAK256 PUSH1 0x0 SWAP1 SLOAD SWAP1 PUSH2 0x100 EXP SWAP1 DIV PUSH1 0xFF AND ISZERO ISZERO PUSH2 0x18F9 JUMPI PUSH1 0x0 DUP1 REVERT JUMPDEST PUSH1 0x4 PUSH1 0x0 DUP11 PUSH20 0xFFFFFFFFFFFFFFFFFFFFFFFFFFFFFFFFFFFFFFFF AND PUSH20 0xFFFFFFFFFFFFFFFFFFFFFFFFFFFFFFFFFFFFFFFF AND DUP2 MSTORE PUSH1 0x20 ADD SWAP1 DUP2 MSTORE PUSH1 0x20 ADD PUSH1 0x0 KECCAK256 SWAP1 POP DUP1 PUSH1 0x0 ADD DUP2 PUSH1 0x1 ADD DUP3 PUSH1 0x2 ADD DUP4 PUSH1 0x3 ADD DUP5 PUSH1 0x4 ADD DUP6 PUSH1 0x7 ADD DUP7 PUSH1 0x8 ADD DUP7 DUP1 SLOAD PUSH1 0x1 DUP2 PUSH1 0x1 AND ISZERO PUSH2 0x100 MUL SUB AND PUSH1 0x2 SWAP1 DIV DUP1 PUSH1 0x1F ADD PUSH1 0x20 DUP1 SWAP2 DIV MUL PUSH1 0x20 ADD PUSH1 0x40 MLOAD SWAP1 DUP2 ADD PUSH1 0x40 MSTORE DUP1 SWAP3 SWAP2 SWAP1 DUP2 DUP2 MSTORE PUSH1 0x20 ADD DUP3 DUP1 SLOAD PUSH1 0x1 DUP2 PUSH1 0x1 AND ISZERO PUSH2 0x100 MUL SUB AND PUSH1 0x2 SWAP1 DIV DUP1 ISZERO PUSH2 0x19EB JUMPI DUP1 PUSH1 0x1F LT PUSH2 0x19C0 JUMPI PUSH2 0x100 DUP1 DUP4 SLOAD DIV MUL DUP4 MSTORE SWAP2 PUSH1 0x20 ADD SWAP2 PUSH2 0x19EB JUMP JUMPDEST DUP3 ADD SWAP2 SWAP1 PUSH1 0x0 MSTORE PUSH1 0x20 PUSH1 0x0 KECCAK256 SWAP1 JUMPDEST DUP2 SLOAD DUP2 MSTORE SWAP1 PUSH1 0x1 ADD SWAP1 PUSH1 0x20 ADD DUP1 DUP4 GT PUSH2 0x19CE JUMPI DUP3 SWAP1 SUB PUSH1 0x1F AND DUP3 ADD SWAP2 JUMPDEST POP POP POP POP POP SWAP7 POP DUP6 DUP1 SLOAD PUSH1 0x1 DUP2 PUSH1 0x1 AND ISZERO PUSH2 0x100 MUL SUB AND PUSH1 0x2 SWAP1 DIV DUP1 PUSH1 0x1F ADD PUSH1 0x20 DUP1 SWAP2 DIV MUL PUSH1 0x20 ADD PUSH1 0x40 MLOAD SWAP1 DUP2 ADD PUSH1 0x40 MSTORE DUP1 SWAP3 SWAP2 SWAP1 DUP2 DUP2 MSTORE PUSH1 0x20 ADD DUP3 DUP1 SLOAD PUSH1 0x1 DUP2 PUSH1 0x1 AND ISZERO PUSH2 0x100 MUL SUB AND PUSH1 0x2 SWAP1 DIV DUP1 ISZERO PUSH2 0x1A87 JUMPI DUP1 PUSH1 0x1F LT PUSH2 0x1A5C JUMPI PUSH2 0x100 DUP1 DUP4 SLOAD DIV MUL DUP4 MSTORE SWAP2 PUSH1 0x20 ADD SWAP2 PUSH2 0x1A87 JUMP JUMPDEST DUP3 ADD SWAP2 SWAP1 PUSH1 0x0 MSTORE PUSH1 0x20 PUSH1 0x0 KECCAK256 SWAP1 JUMPDEST DUP2 SLOAD DUP2 MSTORE SWAP1 PUSH1 0x1 ADD SWAP1 PUSH1 0x20 ADD DUP1 DUP4 GT PUSH2 0x1A6A JUMPI DUP3 SWAP1 SUB PUSH1 0x1F AND DUP3 ADD SWAP2 JUMPDEST POP POP POP POP POP SWAP6 POP DUP5 DUP1 SLOAD PUSH1 0x1 DUP2 PUSH1 0x1 AND ISZERO PUSH2 0x100 MUL SUB AND PUSH1 0x2 SWAP1 DIV DUP1 PUSH1 0x1F ADD PUSH1 0x20 DUP1 SWAP2 DIV MUL PUSH1 0x20 ADD PUSH1 0x40 MLOAD SWAP1 DUP2 ADD PUSH1 0x40 MSTORE DUP1 SWAP3 SWAP2 SWAP1 DUP2 DUP2 MSTORE PUSH1 0x20 ADD DUP3 DUP1 SLOAD PUSH1 0x1 DUP2 PUSH1 0x1 AND ISZERO PUSH2 0x100 MUL SUB AND PUSH1 0x2 SWAP1 DIV DUP1 ISZERO PUSH2 0x1B23 JUMPI DUP1 PUSH1 0x1F LT PUSH2 0x1AF8 JUMPI PUSH2 0x100 DUP1 DUP4 SLOAD DIV MUL DUP4 MSTORE SWAP2 PUSH1 0x20 ADD SWAP2 PUSH2 0x1B23 JUMP JUMPDEST DUP3 ADD SWAP2 SWAP1 PUSH1 0x0 MSTORE PUSH1 0x20 PUSH1 0x0 KECCAK256 SWAP1 JUMPDEST DUP2 SLOAD DUP2 MSTORE SWAP1 PUSH1 0x1 ADD SWAP1 PUSH1 0x20 ADD DUP1 DUP4 GT PUSH2 0x1B06 JUMPI DUP3 SWAP1 SUB PUSH1 0x1F AND DUP3 ADD SWAP2 JUMPDEST POP POP POP POP POP SWAP5 POP DUP4 DUP1 SLOAD PUSH1 0x1 DUP2 PUSH1 0x1 AND ISZERO PUSH2 0x100 MUL SUB AND PUSH1 0x2 SWAP1 DIV DUP1 PUSH1 0x1F ADD PUSH1 0x20 DUP1 SWAP2 DIV MUL PUSH1 0x20 ADD PUSH1 0x40 MLOAD SWAP1 DUP2 ADD PUSH1 0x40 MSTORE DUP1 SWAP3 SWAP2 SWAP1 DUP2 DUP2 MSTORE PUSH1 0x20 ADD DUP3 DUP1 SLOAD PUSH1 0x1 DUP2 PUSH1 0x1 AND ISZERO PUSH2 0x100 MUL SUB AND PUSH1 0x2 SWAP1 DIV DUP1 ISZERO PUSH2 0x1BBF JUMPI DUP1 PUSH1 0x1F LT PUSH2 0x1B94 JUMPI PUSH2 0x100 DUP1 DUP4 SLOAD DIV MUL DUP4 MSTORE SWAP2 PUSH1 0x20 ADD SWAP2 PUSH2 0x1BBF JUMP JUMPDEST DUP3 ADD SWAP2 SWAP1 PUSH1 0x0 MSTORE PUSH1 0x20 PUSH1 0x0 KECCAK256 SWAP1 JUMPDEST DUP2 SLOAD DUP2 MSTORE SWAP1 PUSH1 0x1 ADD SWAP1 PUSH1 0x20 ADD DUP1 DUP4 GT PUSH2 0x1BA2 JUMPI DUP3 SWAP1 SUB PUSH1 0x1F AND DUP3 ADD SWAP2 JUMPDEST POP POP POP POP POP SWAP4 POP DUP3 DUP1 SLOAD PUSH1 0x1 DUP2 PUSH1 0x1 AND ISZERO PUSH2 0x100 MUL SUB AND PUSH1 0x2 SWAP1 DIV DUP1 PUSH1 0x1F ADD PUSH1 0x20 DUP1 SWAP2 DIV MUL PUSH1 0x20 ADD PUSH1 0x40 MLOAD SWAP1 DUP2 ADD PUSH1 0x40 MSTORE DUP1 SWAP3 SWAP2 SWAP1 DUP2 DUP2 MSTORE PUSH1 0x20 ADD DUP3 DUP1 SLOAD PUSH1 0x1 DUP2 PUSH1 0x1 AND ISZERO PUSH2 0x100 MUL SUB AND PUSH1 0x2 SWAP1 DIV DUP1 ISZERO PUSH2 0x1C5B JUMPI DUP1 PUSH1 0x1F LT PUSH2 0x1C30 JUMPI PUSH2 0x100 DUP1 DUP4 SLOAD DIV MUL DUP4 MSTORE SWAP2 PUSH1 0x20 ADD SWAP2 PUSH2 0x1C5B JUMP JUMPDEST DUP3 ADD SWAP2 SWAP1 PUSH1 0x0 MSTORE PUSH1 0x20 PUSH1 0x0 KECCAK256 SWAP1 JUMPDEST DUP2 SLOAD DUP2 MSTORE SWAP1 PUSH1 0x1 ADD SWAP1 PUSH1 0x20 ADD DUP1 DUP4 GT PUSH2 0x1C3E JUMPI DUP3 SWAP1 SUB PUSH1 0x1F AND DUP3 ADD SWAP2 JUMPDEST POP POP POP POP POP SWAP3 POP DUP2 DUP1 SLOAD PUSH1 0x1 DUP2 PUSH1 0x1 AND ISZERO PUSH2 0x100 MUL SUB AND PUSH1 0x2 SWAP1 DIV DUP1 PUSH1 0x1F ADD PUSH1 0x20 DUP1 SWAP2 DIV MUL PUSH1 0x20 ADD PUSH1 0x40 MLOAD SWAP1 DUP2 ADD PUSH1 0x40 MSTORE DUP1 SWAP3 SWAP2 SWAP1 DUP2 DUP2 MSTORE PUSH1 0x20 ADD DUP3 DUP1 SLOAD PUSH1 0x1 DUP2 PUSH1 0x1 AND ISZERO PUSH2 0x100 MUL SUB AND PUSH1 0x2 SWAP1 DIV DUP1 ISZERO PUSH2 0x1CF7 JUMPI DUP1 PUSH1 0x1F LT PUSH2 0x1CCC JUMPI PUSH2 0x100 DUP1 DUP4 SLOAD DIV MUL DUP4 MSTORE SWAP2 PUSH1 0x20 ADD SWAP2 PUSH2 0x1CF7 JUMP JUMPDEST DUP3 ADD SWAP2 SWAP1 PUSH1 0x0 MSTORE PUSH1 0x20 PUSH1 0x0 KECCAK256 SWAP1 JUMPDEST DUP2 SLOAD DUP2 MSTORE SWAP1 PUSH1 0x1 ADD SWAP1 PUSH1 0x20 ADD DUP1 DUP4 GT PUSH2 0x1CDA JUMPI DUP3 SWAP1 SUB PUSH1 0x1F AND DUP3 ADD SWAP2 JUMPDEST POP POP POP POP POP SWAP2 POP DUP1 DUP1 SLOAD PUSH1 0x1 DUP2 PUSH1 0x1 AND ISZERO PUSH2 0x100 MUL SUB AND PUSH1 0x2 SWAP1 DIV DUP1 PUSH1 0x1F ADD PUSH1 0x20 DUP1 SWAP2 DIV MUL PUSH1 0x20 ADD PUSH1 0x40 MLOAD SWAP1 DUP2 ADD PUSH1 0x40 MSTORE DUP1 SWAP3 SWAP2 SWAP1 DUP2 DUP2 MSTORE PUSH1 0x20 ADD DUP3 DUP1 SLOAD PUSH1 0x1 DUP2 PUSH1 0x1 AND ISZERO PUSH2 0x100 MUL SUB AND PUSH1 0x2 SWAP1 DIV DUP1 ISZERO PUSH2 0x1D93 JUMPI DUP1 PUSH1 0x1F LT PUSH2 0x1D68 JUMPI PUSH2 0x100 DUP1 DUP4 SLOAD DIV MUL DUP4 MSTORE SWAP2 PUSH1 0x20 ADD SWAP2 PUSH2 0x1D93 JUMP JUMPDEST DUP3 ADD SWAP2 SWAP1 PUSH1 0x0 MSTORE PUSH1 0x20 PUSH1 0x0 KECCAK256 SWAP1 JUMPDEST DUP2 SLOAD DUP2 MSTORE SWAP1 PUSH1 0x1 ADD SWAP1 PUSH1 0x20 ADD DUP1 DUP4 GT PUSH2 0x1D76 JUMPI DUP3 SWAP1 SUB PUSH1 0x1F AND DUP3 ADD SWAP2 JUMPDEST POP POP POP POP POP SWAP1 POP SWAP8 POP SWAP8 POP SWAP8 POP SWAP8 POP SWAP8 POP SWAP8 POP SWAP8 POP POP SWAP2 SWAP4 SWAP6 SWAP8 SWAP1 SWAP3 SWAP5 SWAP7 POP JUMP JUMPDEST DUP3 DUP1 SLOAD PUSH1 0x1 DUP2 PUSH1 0x1 AND ISZERO PUSH2 0x100 MUL SUB AND PUSH1 0x2 SWAP1 DIV SWAP1 PUSH1 0x0 MSTORE PUSH1 0x20 PUSH1 0x0 KECCAK256 SWAP1 PUSH1 0x1F ADD PUSH1 0x20 SWAP1 DIV DUP2 ADD SWAP3 DUP3 PUSH1 0x1F LT PUSH2 0x1DF5 JUMPI DUP1 MLOAD PUSH1 0xFF NOT AND DUP4 DUP1 ADD OR DUP6 SSTORE PUSH2 0x1E23 JUMP JUMPDEST DUP3 DUP1 ADD PUSH1 0x1 ADD DUP6 SSTORE DUP3 ISZERO PUSH2 0x1E23 JUMPI SWAP2 DUP3 ADD JUMPDEST DUP3 DUP2 GT ISZERO PUSH2 0x1E22 JUMPI DUP3 MLOAD DUP3 SSTORE SWAP2 PUSH1 0x20 ADD SWAP2 SWAP1 PUSH1 0x1 ADD SWAP1 PUSH2 0x1E07 JUMP JUMPDEST JUMPDEST POP SWAP1 POP PUSH2 0x1E30 SWAP2 SWAP1 PUSH2 0x1EBB JUMP JUMPDEST POP SWAP1 JUMP JUMPDEST DUP3 DUP1 SLOAD PUSH1 0x1 DUP2 PUSH1 0x1 AND ISZERO PUSH2 0x100 MUL SUB AND PUSH1 0x2 SWAP1 DIV SWAP1 PUSH1 0x0 MSTORE PUSH1 0x20 PUSH1 0x0 KECCAK256 SWAP1 PUSH1 0x1F ADD PUSH1 0x20 SWAP1 DIV DUP2 ADD SWAP3 DUP3 PUSH1 0x1F LT PUSH2 0x1E6D JUMPI DUP1 SLOAD DUP6 SSTORE PUSH2 0x1EAA JUMP JUMPDEST DUP3 DUP1 ADD PUSH1 0x1 ADD DUP6 SSTORE DUP3 ISZERO PUSH2 0x1EAA JUMPI PUSH1 0x0 MSTORE PUSH1 0x20 PUSH1 0x0 KECCAK256 SWAP2 PUSH1 0x1F ADD PUSH1 0x20 SWAP1 DIV DUP3 ADD JUMPDEST DUP3 DUP2 GT ISZERO PUSH2 0x1EA9 JUMPI DUP3 SLOAD DUP3 SSTORE SWAP2 PUSH1 0x1 ADD SWAP2 SWAP1 PUSH1 0x1 ADD SWAP1 PUSH2 0x1E8E JUMP JUMPDEST JUMPDEST POP SWAP1 POP PUSH2 0x1EB7 SWAP2 SWAP1 PUSH2 0x1EBB JUMP JUMPDEST POP SWAP1 JUMP JUMPDEST PUSH2 0x1EDD SWAP2 SWAP1 JUMPDEST DUP1 DUP3 GT ISZERO PUSH2 0x1ED9 JUMPI PUSH1 0x0 DUP2 PUSH1 0x0 SWAP1 SSTORE POP PUSH1 0x1 ADD PUSH2 0x1EC1 JUMP JUMPDEST POP SWAP1 JUMP JUMPDEST SWAP1 JUMP JUMPDEST PUSH1 0x0 PUSH2 0x1EEC DUP3 CALLDATALOAD PUSH2 0x28BC JUMP JUMPDEST SWAP1 POP SWAP3 SWAP2 POP POP JUMP JUMPDEST PUSH1 0x0 DUP3 PUSH1 0x1F DUP4 ADD SLT ISZERO ISZERO PUSH2 0x1F07 JUMPI PUSH1 0x0 DUP1 REVERT JUMPDEST DUP2 CALLDATALOAD PUSH2 0x1F1A PUSH2 0x1F15 DUP3 PUSH2 0x282A JUMP JUMPDEST PUSH2 0x27FD JUMP JUMPDEST SWAP2 POP DUP1 DUP3 MSTORE PUSH1 0x20 DUP4 ADD PUSH1 0x20 DUP4 ADD DUP6 DUP4 DUP4 ADD GT ISZERO PUSH2 0x1F36 JUMPI PUSH1 0x0 DUP1 REVERT JUMPDEST PUSH2 0x1F41 DUP4 DUP3 DUP5 PUSH2 0x28E6 JUMP JUMPDEST POP POP POP SWAP3 SWAP2 POP POP JUMP JUMPDEST PUSH1 0x0 PUSH2 0x1F56 DUP3 CALLDATALOAD PUSH2 0x28DC JUMP JUMPDEST SWAP1 POP SWAP3 SWAP2 POP POP JUMP JUMPDEST PUSH1 0x0 PUSH1 0x20 DUP3 DUP5 SUB SLT ISZERO PUSH2 0x1F70 JUMPI PUSH1 0x0 DUP1 REVERT JUMPDEST PUSH1 0x0 PUSH2 0x1F7E DUP5 DUP3 DUP6 ADD PUSH2 0x1EE0 JUMP JUMPDEST SWAP2 POP POP SWAP3 SWAP2 POP POP JUMP JUMPDEST PUSH1 0x0 DUP1 PUSH1 0x0 DUP1 PUSH1 0x0 DUP1 PUSH1 0x0 DUP1 PUSH2 0x100 DUP10 DUP12 SUB SLT ISZERO PUSH2 0x1FA4 JUMPI PUSH1 0x0 DUP1 REVERT JUMPDEST PUSH1 0x0 PUSH2 0x1FB2 DUP12 DUP3 DUP13 ADD PUSH2 0x1EE0 JUMP JUMPDEST SWAP9 POP POP PUSH1 0x20 DUP10 ADD CALLDATALOAD PUSH8 0xFFFFFFFFFFFFFFFF DUP2 GT ISZERO PUSH2 0x1FCF JUMPI PUSH1 0x0 DUP1 REVERT JUMPDEST PUSH2 0x1FDB DUP12 DUP3 DUP13 ADD PUSH2 0x1EF4 JUMP JUMPDEST SWAP8 POP POP PUSH1 0x40 DUP10 ADD CALLDATALOAD PUSH8 0xFFFFFFFFFFFFFFFF DUP2 GT ISZERO PUSH2 0x1FF8 JUMPI PUSH1 0x0 DUP1 REVERT JUMPDEST PUSH2 0x2004 DUP12 DUP3 DUP13 ADD PUSH2 0x1EF4 JUMP JUMPDEST SWAP7 POP POP PUSH1 0x60 DUP10 ADD CALLDATALOAD PUSH8 0xFFFFFFFFFFFFFFFF DUP2 GT ISZERO PUSH2 0x2021 JUMPI PUSH1 0x0 DUP1 REVERT JUMPDEST PUSH2 0x202D DUP12 DUP3 DUP13 ADD PUSH2 0x1EF4 JUMP JUMPDEST SWAP6 POP POP PUSH1 0x80 DUP10 ADD CALLDATALOAD PUSH8 0xFFFFFFFFFFFFFFFF DUP2 GT ISZERO PUSH2 0x204A JUMPI PUSH1 0x0 DUP1 REVERT JUMPDEST PUSH2 0x2056 DUP12 DUP3 DUP13 ADD PUSH2 0x1EF4 JUMP JUMPDEST SWAP5 POP POP PUSH1 0xA0 DUP10 ADD CALLDATALOAD PUSH8 0xFFFFFFFFFFFFFFFF DUP2 GT ISZERO PUSH2 0x2073 JUMPI PUSH1 0x0 DUP1 REVERT JUMPDEST PUSH2 0x207F DUP12 DUP3 DUP13 ADD PUSH2 0x1EF4 JUMP JUMPDEST SWAP4 POP POP PUSH1 0xC0 DUP10 ADD CALLDATALOAD PUSH8 0xFFFFFFFFFFFFFFFF DUP2 GT ISZERO PUSH2 0x209C JUMPI PUSH1 0x0 DUP1 REVERT JUMPDEST PUSH2 0x20A8 DUP12 DUP3 DUP13 ADD PUSH2 0x1EF4 JUMP JUMPDEST SWAP3 POP POP PUSH1 0xE0 DUP10 ADD CALLDATALOAD PUSH8 0xFFFFFFFFFFFFFFFF DUP2 GT ISZERO PUSH2 0x20C5 JUMPI PUSH1 0x0 DUP1 REVERT JUMPDEST PUSH2 0x20D1 DUP12 DUP3 DUP13 ADD PUSH2 0x1EF4 JUMP JUMPDEST SWAP2 POP POP SWAP3 SWAP6 SWAP9 POP SWAP3 SWAP6 SWAP9 SWAP1 SWAP4 SWAP7 POP JUMP JUMPDEST PUSH1 0x0 DUP1 PUSH1 0x0 DUP1 PUSH1 0x0 DUP1 PUSH1 0x0 DUP1 PUSH1 0x0 DUP1 PUSH2 0x140 DUP12 DUP14 SUB SLT ISZERO PUSH2 0x2101 JUMPI PUSH1 0x0 DUP1 REVERT JUMPDEST PUSH1 0x0 PUSH2 0x210F DUP14 DUP3 DUP15 ADD PUSH2 0x1EE0 JUMP JUMPDEST SWAP11 POP POP PUSH1 0x20 DUP12 ADD CALLDATALOAD PUSH8 0xFFFFFFFFFFFFFFFF DUP2 GT ISZERO PUSH2 0x212C JUMPI PUSH1 0x0 DUP1 REVERT JUMPDEST PUSH2 0x2138 DUP14 DUP3 DUP15 ADD PUSH2 0x1EF4 JUMP JUMPDEST SWAP10 POP POP PUSH1 0x40 DUP12 ADD CALLDATALOAD PUSH8 0xFFFFFFFFFFFFFFFF DUP2 GT ISZERO PUSH2 0x2155 JUMPI PUSH1 0x0 DUP1 REVERT JUMPDEST PUSH2 0x2161 DUP14 DUP3 DUP15 ADD PUSH2 0x1EF4 JUMP JUMPDEST SWAP9 POP POP PUSH1 0x60 DUP12 ADD CALLDATALOAD PUSH8 0xFFFFFFFFFFFFFFFF DUP2 GT ISZERO PUSH2 0x217E JUMPI PUSH1 0x0 DUP1 REVERT JUMPDEST PUSH2 0x218A DUP14 DUP3 DUP15 ADD PUSH2 0x1EF4 JUMP JUMPDEST SWAP8 POP POP PUSH1 0x80 DUP12 ADD CALLDATALOAD PUSH8 0xFFFFFFFFFFFFFFFF DUP2 GT ISZERO PUSH2 0x21A7 JUMPI PUSH1 0x0 DUP1 REVERT JUMPDEST PUSH2 0x21B3 DUP14 DUP3 DUP15 ADD PUSH2 0x1EF4 JUMP JUMPDEST SWAP7 POP POP PUSH1 0xA0 DUP12 ADD CALLDATALOAD PUSH8 0xFFFFFFFFFFFFFFFF DUP2 GT ISZERO PUSH2 0x21D0 JUMPI PUSH1 0x0 DUP1 REVERT JUMPDEST PUSH2 0x21DC DUP14 DUP3 DUP15 ADD PUSH2 0x1EF4 JUMP JUMPDEST SWAP6 POP POP PUSH1 0xC0 DUP12 ADD CALLDATALOAD PUSH8 0xFFFFFFFFFFFFFFFF DUP2 GT ISZERO PUSH2 0x21F9 JUMPI PUSH1 0x0 DUP1 REVERT JUMPDEST PUSH2 0x2205 DUP14 DUP3 DUP15 ADD PUSH2 0x1EF4 JUMP JUMPDEST SWAP5 POP POP PUSH1 0xE0 DUP12 ADD CALLDATALOAD PUSH8 0xFFFFFFFFFFFFFFFF DUP2 GT ISZERO PUSH2 0x2222 JUMPI PUSH1 0x0 DUP1 REVERT JUMPDEST PUSH2 0x222E DUP14 DUP3 DUP15 ADD PUSH2 0x1EF4 JUMP JUMPDEST SWAP4 POP POP PUSH2 0x100 DUP12 ADD CALLDATALOAD PUSH8 0xFFFFFFFFFFFFFFFF DUP2 GT ISZERO PUSH2 0x224C JUMPI PUSH1 0x0 DUP1 REVERT JUMPDEST PUSH2 0x2258 DUP14 DUP3 DUP15 ADD PUSH2 0x1EF4 JUMP JUMPDEST SWAP3 POP POP PUSH2 0x120 DUP12 ADD CALLDATALOAD PUSH8 0xFFFFFFFFFFFFFFFF DUP2 GT ISZERO PUSH2 0x2276 JUMPI PUSH1 0x0 DUP1 REVERT JUMPDEST PUSH2 0x2282 DUP14 DUP3 DUP15 ADD PUSH2 0x1EF4 JUMP JUMPDEST SWAP2 POP POP SWAP3 SWAP6 SWAP9 SWAP12 SWAP2 SWAP5 SWAP8 SWAP11 POP SWAP3 SWAP6 SWAP9 POP JUMP JUMPDEST PUSH1 0x0 DUP1 PUSH1 0x0 DUP1 PUSH1 0x0 DUP1 PUSH1 0x0 PUSH1 0xE0 DUP9 DUP11 SUB SLT ISZERO PUSH2 0x22AF JUMPI PUSH1 0x0 DUP1 REVERT JUMPDEST PUSH1 0x0 DUP9 ADD CALLDATALOAD PUSH8 0xFFFFFFFFFFFFFFFF DUP2 GT ISZERO PUSH2 0x22C9 JUMPI PUSH1 0x0 DUP1 REVERT JUMPDEST PUSH2 0x22D5 DUP11 DUP3 DUP12 ADD PUSH2 0x1EF4 JUMP JUMPDEST SWAP8 POP POP PUSH1 0x20 DUP9 ADD CALLDATALOAD PUSH8 0xFFFFFFFFFFFFFFFF DUP2 GT ISZERO PUSH2 0x22F2 JUMPI PUSH1 0x0 DUP1 REVERT JUMPDEST PUSH2 0x22FE DUP11 DUP3 DUP12 ADD PUSH2 0x1EF4 JUMP JUMPDEST SWAP7 POP POP PUSH1 0x40 DUP9 ADD CALLDATALOAD PUSH8 0xFFFFFFFFFFFFFFFF DUP2 GT ISZERO PUSH2 0x231B JUMPI PUSH1 0x0 DUP1 REVERT JUMPDEST PUSH2 0x2327 DUP11 DUP3 DUP12 ADD PUSH2 0x1EF4 JUMP JUMPDEST SWAP6 POP POP PUSH1 0x60 DUP9 ADD CALLDATALOAD PUSH8 0xFFFFFFFFFFFFFFFF DUP2 GT ISZERO PUSH2 0x2344 JUMPI PUSH1 0x0 DUP1 REVERT JUMPDEST PUSH2 0x2350 DUP11 DUP3 DUP12 ADD PUSH2 0x1EF4 JUMP JUMPDEST SWAP5 POP POP PUSH1 0x80 DUP9 ADD CALLDATALOAD PUSH8 0xFFFFFFFFFFFFFFFF DUP2 GT ISZERO PUSH2 0x236D JUMPI PUSH1 0x0 DUP1 REVERT JUMPDEST PUSH2 0x2379 DUP11 DUP3 DUP12 ADD PUSH2 0x1EF4 JUMP JUMPDEST SWAP4 POP POP PUSH1 0xA0 DUP9 ADD CALLDATALOAD PUSH8 0xFFFFFFFFFFFFFFFF DUP2 GT ISZERO PUSH2 0x2396 JUMPI PUSH1 0x0 DUP1 REVERT JUMPDEST PUSH2 0x23A2 DUP11 DUP3 DUP12 ADD PUSH2 0x1EF4 JUMP JUMPDEST SWAP3 POP POP PUSH1 0xC0 DUP9 ADD CALLDATALOAD PUSH8 0xFFFFFFFFFFFFFFFF DUP2 GT ISZERO PUSH2 0x23BF JUMPI PUSH1 0x0 DUP1 REVERT JUMPDEST PUSH2 0x23CB DUP11 DUP3 DUP12 ADD PUSH2 0x1EF4 JUMP JUMPDEST SWAP2 POP POP SWAP3 SWAP6 SWAP9 SWAP2 SWAP5 SWAP8 POP SWAP3 SWAP6 POP JUMP JUMPDEST PUSH1 0x0 DUP1 PUSH1 0x0 DUP1 PUSH1 0x0 DUP1 PUSH1 0x0 DUP1 PUSH1 0x0 PUSH2 0x120 DUP11 DUP13 SUB SLT ISZERO PUSH2 0x23F9 JUMPI PUSH1 0x0 DUP1 REVERT JUMPDEST PUSH1 0x0 DUP11 ADD CALLDATALOAD PUSH8 0xFFFFFFFFFFFFFFFF DUP2 GT ISZERO PUSH2 0x2413 JUMPI PUSH1 0x0 DUP1 REVERT JUMPDEST PUSH2 0x241F DUP13 DUP3 DUP14 ADD PUSH2 0x1EF4 JUMP JUMPDEST SWAP10 POP POP PUSH1 0x20 DUP11 ADD CALLDATALOAD PUSH8 0xFFFFFFFFFFFFFFFF DUP2 GT ISZERO PUSH2 0x243C JUMPI PUSH1 0x0 DUP1 REVERT JUMPDEST PUSH2 0x2448 DUP13 DUP3 DUP14 ADD PUSH2 0x1EF4 JUMP JUMPDEST SWAP9 POP POP PUSH1 0x40 DUP11 ADD CALLDATALOAD PUSH8 0xFFFFFFFFFFFFFFFF DUP2 GT ISZERO PUSH2 0x2465 JUMPI PUSH1 0x0 DUP1 REVERT JUMPDEST PUSH2 0x2471 DUP13 DUP3 DUP14 ADD PUSH2 0x1EF4 JUMP JUMPDEST SWAP8 POP POP PUSH1 0x60 DUP11 ADD CALLDATALOAD PUSH8 0xFFFFFFFFFFFFFFFF DUP2 GT ISZERO PUSH2 0x248E JUMPI PUSH1 0x0 DUP1 REVERT JUMPDEST PUSH2 0x249A DUP13 DUP3 DUP14 ADD PUSH2 0x1EF4 JUMP JUMPDEST SWAP7 POP POP PUSH1 0x80 DUP11 ADD CALLDATALOAD PUSH8 0xFFFFFFFFFFFFFFFF DUP2 GT ISZERO PUSH2 0x24B7 JUMPI PUSH1 0x0 DUP1 REVERT JUMPDEST PUSH2 0x24C3 DUP13 DUP3 DUP14 ADD PUSH2 0x1EF4 JUMP JUMPDEST SWAP6 POP POP PUSH1 0xA0 DUP11 ADD CALLDATALOAD PUSH8 0xFFFFFFFFFFFFFFFF DUP2 GT ISZERO PUSH2 0x24E0 JUMPI PUSH1 0x0 DUP1 REVERT JUMPDEST PUSH2 0x24EC DUP13 DUP3 DUP14 ADD PUSH2 0x1EF4 JUMP JUMPDEST SWAP5 POP POP PUSH1 0xC0 DUP11 ADD CALLDATALOAD PUSH8 0xFFFFFFFFFFFFFFFF DUP2 GT ISZERO PUSH2 0x2509 JUMPI PUSH1 0x0 DUP1 REVERT JUMPDEST PUSH2 0x2515 DUP13 DUP3 DUP14 ADD PUSH2 0x1EF4 JUMP JUMPDEST SWAP4 POP POP PUSH1 0xE0 DUP11 ADD CALLDATALOAD PUSH8 0xFFFFFFFFFFFFFFFF DUP2 GT ISZERO PUSH2 0x2532 JUMPI PUSH1 0x0 DUP1 REVERT JUMPDEST PUSH2 0x253E DUP13 DUP3 DUP14 ADD PUSH2 0x1EF4 JUMP JUMPDEST SWAP3 POP POP PUSH2 0x100 DUP11 ADD CALLDATALOAD PUSH8 0xFFFFFFFFFFFFFFFF DUP2 GT ISZERO PUSH2 0x255C JUMPI PUSH1 0x0 DUP1 REVERT JUMPDEST PUSH2 0x2568 DUP13 DUP3 DUP14 ADD PUSH2 0x1EF4 JUMP JUMPDEST SWAP2 POP POP SWAP3 SWAP6 SWAP9 POP SWAP3 SWAP6 SWAP9 POP SWAP3 SWAP6 SWAP9 JUMP JUMPDEST PUSH1 0x0 PUSH1 0x20 DUP3 DUP5 SUB SLT ISZERO PUSH2 0x258A JUMPI PUSH1 0x0 DUP1 REVERT JUMPDEST PUSH1 0x0 PUSH2 0x2598 DUP5 DUP3 DUP6 ADD PUSH2 0x1F4A JUMP JUMPDEST SWAP2 POP POP SWAP3 SWAP2 POP POP JUMP JUMPDEST PUSH2 0x25AA DUP2 PUSH2 0x2886 JUMP JUMPDEST DUP3 MSTORE POP POP JUMP JUMPDEST PUSH1 0x0 PUSH2 0x25BB DUP3 PUSH2 0x2863 JUMP JUMPDEST DUP1 DUP5 MSTORE PUSH1 0x20 DUP5 ADD SWAP4 POP PUSH2 0x25CD DUP4 PUSH2 0x2856 JUMP JUMPDEST PUSH1 0x0 JUMPDEST DUP3 DUP2 LT ISZERO PUSH2 0x25FF JUMPI PUSH2 0x25E3 DUP7 DUP4 MLOAD PUSH2 0x25A1 JUMP JUMPDEST PUSH2 0x25EC DUP3 PUSH2 0x2879 JUMP JUMPDEST SWAP2 POP PUSH1 0x20 DUP7 ADD SWAP6 POP PUSH1 0x1 DUP2 ADD SWAP1 POP PUSH2 0x25D0 JUMP JUMPDEST POP DUP5 SWAP3 POP POP POP SWAP3 SWAP2 POP POP JUMP JUMPDEST PUSH2 0x2614 DUP2 PUSH2 0x28A6 JUMP JUMPDEST DUP3 MSTORE POP POP JUMP JUMPDEST PUSH1 0x0 PUSH2 0x2625 DUP3 PUSH2 0x286E JUMP JUMPDEST DUP1 DUP5 MSTORE PUSH2 0x2639 DUP2 PUSH1 0x20 DUP7 ADD PUSH1 0x20 DUP7 ADD PUSH2 0x28F5 JUMP JUMPDEST PUSH2 0x2642 DUP2 PUSH2 0x2928 JUMP JUMPDEST PUSH1 0x20 DUP6 ADD ADD SWAP2 POP POP SWAP3 SWAP2 POP POP JUMP JUMPDEST PUSH2 0x2659 DUP2 PUSH2 0x28B2 JUMP JUMPDEST DUP3 MSTORE POP POP JUMP JUMPDEST PUSH1 0x0 PUSH1 0x20 DUP3 ADD SWAP1 POP PUSH2 0x2674 PUSH1 0x0 DUP4 ADD DUP5 PUSH2 0x25A1 JUMP JUMPDEST SWAP3 SWAP2 POP POP JUMP JUMPDEST PUSH1 0x0 PUSH1 0x20 DUP3 ADD SWAP1 POP DUP2 DUP2 SUB PUSH1 0x0 DUP4 ADD MSTORE PUSH2 0x2694 DUP2 DUP5 PUSH2 0x25B0 JUMP JUMPDEST SWAP1 POP SWAP3 SWAP2 POP POP JUMP JUMPDEST PUSH1 0x0 PUSH1 0x20 DUP3 ADD SWAP1 POP PUSH2 0x26B1 PUSH1 0x0 DUP4 ADD DUP5 PUSH2 0x260B JUMP JUMPDEST SWAP3 SWAP2 POP POP JUMP JUMPDEST PUSH1 0x0 PUSH1 0xC0 DUP3 ADD SWAP1 POP DUP2 DUP2 SUB PUSH1 0x0 DUP4 ADD MSTORE PUSH2 0x26D1 DUP2 DUP10 PUSH2 0x261A JUMP JUMPDEST SWAP1 POP DUP2 DUP2 SUB PUSH1 0x20 DUP4 ADD MSTORE PUSH2 0x26E5 DUP2 DUP9 PUSH2 0x261A JUMP JUMPDEST SWAP1 POP DUP2 DUP2 SUB PUSH1 0x40 DUP4 ADD MSTORE PUSH2 0x26F9 DUP2 DUP8 PUSH2 0x261A JUMP JUMPDEST SWAP1 POP DUP2 DUP2 SUB PUSH1 0x60 DUP4 ADD MSTORE PUSH2 0x270D DUP2 DUP7 PUSH2 0x261A JUMP JUMPDEST SWAP1 POP DUP2 DUP2 SUB PUSH1 0x80 DUP4 ADD MSTORE PUSH2 0x2721 DUP2 DUP6 PUSH2 0x261A JUMP JUMPDEST SWAP1 POP DUP2 DUP2 SUB PUSH1 0xA0 DUP4 ADD MSTORE PUSH2 0x2735 DUP2 DUP5 PUSH2 0x261A JUMP JUMPDEST SWAP1 POP SWAP8 SWAP7 POP POP POP POP POP POP POP JUMP JUMPDEST PUSH1 0x0 PUSH1 0xE0 DUP3 ADD SWAP1 POP DUP2 DUP2 SUB PUSH1 0x0 DUP4 ADD MSTORE PUSH2 0x275C DUP2 DUP11 PUSH2 0x261A JUMP JUMPDEST SWAP1 POP DUP2 DUP2 SUB PUSH1 0x20 DUP4 ADD MSTORE PUSH2 0x2770 DUP2 DUP10 PUSH2 0x261A JUMP JUMPDEST SWAP1 POP DUP2 DUP2 SUB PUSH1 0x40 DUP4 ADD MSTORE PUSH2 0x2784 DUP2 DUP9 PUSH2 0x261A JUMP JUMPDEST SWAP1 POP DUP2 DUP2 SUB PUSH1 0x60 DUP4 ADD MSTORE PUSH2 0x2798 DUP2 DUP8 PUSH2 0x261A JUMP JUMPDEST SWAP1 POP DUP2 DUP2 SUB PUSH1 0x80 DUP4 ADD MSTORE PUSH2 0x27AC DUP2 DUP7 PUSH2 0x261A JUMP JUMPDEST SWAP1 POP DUP2 DUP2 SUB PUSH1 0xA0 DUP4 ADD MSTORE PUSH2 0x27C0 DUP2 DUP6 PUSH2 0x261A JUMP JUMPDEST SWAP1 POP DUP2 DUP2 SUB PUSH1 0xC0 DUP4 ADD MSTORE PUSH2 0x27D4 DUP2 DUP5 PUSH2 0x261A JUMP JUMPDEST SWAP1 POP SWAP9 SWAP8 POP POP POP POP POP POP POP POP JUMP JUMPDEST PUSH1 0x0 PUSH1 0x20 DUP3 ADD SWAP1 POP PUSH2 0x27F7 PUSH1 0x0 DUP4 ADD DUP5 PUSH2 0x2650 JUMP JUMPDEST SWAP3 SWAP2 POP POP JUMP JUMPDEST PUSH1 0x0 PUSH1 0x40 MLOAD SWAP1 POP DUP2 DUP2 ADD DUP2 DUP2 LT PUSH8 0xFFFFFFFFFFFFFFFF DUP3 GT OR ISZERO PUSH2 0x2820 JUMPI PUSH1 0x0 DUP1 REVERT JUMPDEST DUP1 PUSH1 0x40 MSTORE POP SWAP2 SWAP1 POP JUMP JUMPDEST PUSH1 0x0 PUSH8 0xFFFFFFFFFFFFFFFF DUP3 GT ISZERO PUSH2 0x2841 JUMPI PUSH1 0x0 DUP1 REVERT JUMPDEST PUSH1 0x1F NOT PUSH1 0x1F DUP4 ADD AND SWAP1 POP PUSH1 0x20 DUP2 ADD SWAP1 POP SWAP2 SWAP1 POP JUMP JUMPDEST PUSH1 0x0 PUSH1 0x20 DUP3 ADD SWAP1 POP SWAP2 SWAP1 POP JUMP JUMPDEST PUSH1 0x0 DUP2 MLOAD SWAP1 POP SWAP2 SWAP1 POP JUMP JUMPDEST PUSH1 0x0 DUP2 MLOAD SWAP1 POP SWAP2 SWAP1 POP JUMP JUMPDEST PUSH1 0x0 PUSH1 0x20 DUP3 ADD SWAP1 POP SWAP2 SWAP1 POP JUMP JUMPDEST PUSH1 0x0 PUSH20 0xFFFFFFFFFFFFFFFFFFFFFFFFFFFFFFFFFFFFFFFF DUP3 AND SWAP1 POP SWAP2 SWAP1 POP JUMP JUMPDEST PUSH1 0x0 DUP2 ISZERO ISZERO SWAP1 POP SWAP2 SWAP1 POP JUMP JUMPDEST PUSH1 0x0 DUP2 SWAP1 POP SWAP2 SWAP1 POP JUMP JUMPDEST PUSH1 0x0 PUSH20 0xFFFFFFFFFFFFFFFFFFFFFFFFFFFFFFFFFFFFFFFF DUP3 AND SWAP1 POP SWAP2 SWAP1 POP JUMP JUMPDEST PUSH1 0x0 DUP2 SWAP1 POP SWAP2 SWAP1 POP JUMP JUMPDEST DUP3 DUP2 DUP4 CALLDATACOPY PUSH1 0x0 DUP4 DUP4 ADD MSTORE POP POP POP JUMP JUMPDEST PUSH1 0x0 JUMPDEST DUP4 DUP2 LT ISZERO PUSH2 0x2913 JUMPI DUP1 DUP3 ADD MLOAD DUP2 DUP5 ADD MSTORE PUSH1 0x20 DUP2 ADD SWAP1 POP PUSH2 0x28F8 JUMP JUMPDEST DUP4 DUP2 GT ISZERO PUSH2 0x2922 JUMPI PUSH1 0x0 DUP5 DUP5 ADD MSTORE JUMPDEST POP POP POP POP JUMP JUMPDEST PUSH1 0x0 PUSH1 0x1F NOT PUSH1 0x1F DUP4 ADD AND SWAP1 POP SWAP2 SWAP1 POP JUMP STOP LOG2 PUSH6 0x627A7A723058 KECCAK256 BLOCKHASH SHR PUSH26 0x8B4831C5A7B72E1068FE645BE20FB7FE3BA847234E0894793584 0x2b PUSH11 0x6B6C6578706572696D656E PUSH21 0x616CF5003700000000000000000000000000000000 "
				},
				"gasEstimates": {
					"creation": {
						"codeDepositCost": "2122200",
						"executionCost": "37543",
						"totalCost": "2159743"
					},
					"external": {
						"RevokePermission(address)": "21019",
						"doctorCount()": "738",
						"doctorList(uint256)": "1144",
						"editDoctor(address,string,string,string,string,string,string,string)": "infinite",
						"editUser(address,string,string,string,string,string,string,string,string,string)": "infinite",
						"getDoctorCount()": "768",
						"getDoctors()": "infinite",
						"getPermissionGrantedCount()": "658",
						"getUserCount()": "922",
						"getUsers()": "infinite",
						"givePermission(address)": "41410",
						"mohAdress()": "978",
						"owner()": "846",
						"ownerAddress()": "20707",
						"permissionCounter()": "870",
						"searchDoctor(address)": "infinite",
						"searchUserformation(address)": "infinite",
						"setDoctor(string,string,string,string,string,string,string)": "infinite",
						"userCount()": "584",
						"userList(uint256)": "1386",
						"userRegistration(string,string,string,string,string,string,string,string,string)": "infinite"
					}
				},
				"methodIdentifiers": {
					"RevokePermission(address)": "02516abd",
					"doctorCount()": "78522bc4",
					"doctorList(uint256)": "127ca4b4",
					"editDoctor(address,string,string,string,string,string,string,string)": "16e0a611",
					"editUser(address,string,string,string,string,string,string,string,string,string)": "779a9576",
					"getDoctorCount()": "79111c1c",
					"getDoctors()": "b13d5d94",
					"getPermissionGrantedCount()": "24c24b2b",
					"getUserCount()": "b5cb15f7",
					"getUsers()": "00ce8e3e",
					"givePermission(address)": "3d391f70",
					"mohAdress()": "b744ff4d",
					"owner()": "8da5cb5b",
					"ownerAddress()": "8f84aa09",
					"permissionCounter()": "a5d043d1",
					"searchDoctor(address)": "caee6c85",
					"searchUserformation(address)": "076fd2f8",
					"setDoctor(string,string,string,string,string,string,string)": "8b945c6d",
					"userCount()": "07973ccf",
					"userList(uint256)": "9f4216e8",
					"userRegistration(string,string,string,string,string,string,string,string,string)": "2fde294c"
				}
			},
			"userdoc": {
				"methods": {}
			}
		}
	}
}