{
	"contracts/ddddd.sol": {
		"ddddd": {
			"abi": [
				{
					"constant": true,
					"inputs": [],
					"name": "getUsers",
					"outputs": [
						{
							"name": "",
							"type": "address[]"
						}
					],
					"payable": false,
					"stateMutability": "view",
					"type": "function"
				},
				{
					"constant": true,
					"inputs": [],
					"name": "getUserPermissionCounter",
					"outputs": [
						{
							"name": "",
							"type": "uint256"
						}
					],
					"payable": false,
					"stateMutability": "view",
					"type": "function"
				},
				{
					"constant": true,
					"inputs": [
						{
							"name": "_address",
							"type": "address"
						}
					],
					"name": "searchUserformation",
					"outputs": [
						{
							"name": "",
							"type": "string"
						},
						{
							"name": "",
							"type": "string"
						},
						{
							"name": "",
							"type": "string"
						},
						{
							"name": "",
							"type": "string"
						},
						{
							"name": "",
							"type": "string"
						},
						{
							"name": "",
							"type": "string"
						},
						{
							"name": "",
							"type": "string"
						},
						{
							"name": "",
							"type": "address"
						}
					],
					"payable": false,
					"stateMutability": "view",
					"type": "function"
				},
				{
					"constant": true,
					"inputs": [],
					"name": "userCount",
					"outputs": [
						{
							"name": "",
							"type": "uint256"
						}
					],
					"payable": false,
					"stateMutability": "view",
					"type": "function"
				},
				{
					"constant": true,
					"inputs": [
						{
							"name": "",
							"type": "uint256"
						}
					],
					"name": "doctorList",
					"outputs": [
						{
							"name": "",
							"type": "address"
						}
					],
					"payable": false,
					"stateMutability": "view",
					"type": "function"
				},
				{
					"constant": false,
					"inputs": [
						{
							"name": "_doctor",
							"type": "address"
						},
						{
							"name": "_uaeId",
							"type": "string"
						},
						{
							"name": "_name",
							"type": "string"
						},
						{
							"name": "_phone",
							"type": "string"
						},
						{
							"name": "_gender",
							"type": "string"
						},
						{
							"name": "_email",
							"type": "string"
						},
						{
							"name": "_qualification",
							"type": "string"
						},
						{
							"name": "_major",
							"type": "string"
						}
					],
					"name": "editDoctor",
					"outputs": [],
					"payable": false,
					"stateMutability": "nonpayable",
					"type": "function"
				},
				{
					"constant": false,
					"inputs": [
						{
							"name": "_doctor",
							"type": "address"
						},
						{
							"name": "_uaeId",
							"type": "string"
						},
						{
							"name": "_name",
							"type": "string"
						},
						{
							"name": "_phone",
							"type": "string"
						},
						{
							"name": "_gender",
							"type": "string"
						},
						{
							"name": "_email",
							"type": "string"
						},
						{
							"name": "_qualification",
							"type": "string"
						},
						{
							"name": "_major",
							"type": "string"
						}
					],
					"name": "doctorRegistration",
					"outputs": [],
					"payable": false,
					"stateMutability": "nonpayable",
					"type": "function"
				},
				{
					"constant": true,
					"inputs": [
						{
							"name": "_admin",
							"type": "address"
						}
					],
					"name": "ownerAddress",
					"outputs": [
						{
							"name": "",
							"type": "bool"
						}
					],
					"payable": false,
					"stateMutability": "view",
					"type": "function"
				},
				{
					"constant": false,
					"inputs": [
						{
							"name": "_address",
							"type": "address"
						}
					],
					"name": "givePermissionByUser",
					"outputs": [
						{
							"name": "success",
							"type": "bool"
						}
					],
					"payable": false,
					"stateMutability": "nonpayable",
					"type": "function"
				},
				{
					"constant": false,
					"inputs": [
						{
							"name": "_address1",
							"type": "address"
						},
						{
							"name": "_doctor",
							"type": "address"
						},
						{
							"name": "_name",
							"type": "string"
						},
						{
							"name": "_vaccine",
							"type": "string"
						},
						{
							"name": "_description",
							"type": "string"
						},
						{
							"name": "_typeOfVaccine",
							"type": "string"
						},
						{
							"name": "_creationDate",
							"type": "uint256"
						}
					],
					"name": "createVaccineRecord",
					"outputs": [
						{
							"name": "success",
							"type": "bool"
						}
					],
					"payable": false,
					"stateMutability": "nonpayable",
					"type": "function"
				},
				{
					"constant": false,
					"inputs": [
						{
							"name": "_address",
							"type": "address"
						}
					],
					"name": "userRevokePermission",
					"outputs": [
						{
							"name": "success",
							"type": "bool"
						}
					],
					"payable": false,
					"stateMutability": "nonpayable",
					"type": "function"
				},
				{
					"constant": false,
					"inputs": [
						{
							"name": "_user",
							"type": "address"
						},
						{
							"name": "_uaeId",
							"type": "string"
						},
						{
							"name": "_name",
							"type": "string"
						},
						{
							"name": "_phone",
							"type": "string"
						},
						{
							"name": "_gender",
							"type": "string"
						},
						{
							"name": "_dob",
							"type": "string"
						},
						{
							"name": "_addr",
							"type": "string"
						},
						{
							"name": "_email",
							"type": "string"
						},
						{
							"name": "_nomineeName",
							"type": "string"
						},
						{
							"name": "_nomineeContact",
							"type": "string"
						}
					],
					"name": "userRegistration",
					"outputs": [],
					"payable": false,
					"stateMutability": "nonpayable",
					"type": "function"
				},
				{
					"constant": false,
					"inputs": [
						{
							"name": "_user",
							"type": "address"
						},
						{
							"name": "_uaeId",
							"type": "string"
						},
						{
							"name": "_name",
							"type": "string"
						},
						{
							"name": "_phone",
							"type": "string"
						},
						{
							"name": "_gender",
							"type": "string"
						},
						{
							"name": "_dob",
							"type": "string"
						},
						{
							"name": "_addr",
							"type": "string"
						},
						{
							"name": "_email",
							"type": "string"
						},
						{
							"name": "_nomineeName",
							"type": "string"
						},
						{
							"name": "_nomineeContact",
							"type": "string"
						}
					],
					"name": "editUser",
					"outputs": [],
					"payable": false,
					"stateMutability": "nonpayable",
					"type": "function"
				},
				{
					"constant": true,
					"inputs": [],
					"name": "doctorCount",
					"outputs": [
						{
							"name": "",
							"type": "uint256"
						}
					],
					"payable": false,
					"stateMutability": "view",
					"type": "function"
				},
				{
					"constant": true,
					"inputs": [],
					"name": "getDoctorCount",
					"outputs": [
						{
							"name": "",
							"type": "uint256"
						}
					],
					"payable": false,
					"stateMutability": "view",
					"type": "function"
				},
				{
					"constant": true,
					"inputs": [
						{
							"name": "_address",
							"type": "address"
						}
					],
					"name": "checkDoctor",
					"outputs": [
						{
							"name": "success",
							"type": "bool"
						}
					],
					"payable": false,
					"stateMutability": "view",
					"type": "function"
				},
				{
					"constant": true,
					"inputs": [
						{
							"name": "_address",
							"type": "address"
						}
					],
					"name": "getVaccinationInfo",
					"outputs": [
						{
							"name": "",
							"type": "string"
						},
						{
							"name": "",
							"type": "string"
						},
						{
							"name": "",
							"type": "string"
						},
						{
							"name": "",
							"type": "string"
						},
						{
							"name": "",
							"type": "uint256"
						},
						{
							"name": "",
							"type": "address"
						},
						{
							"name": "",
							"type": "address"
						}
					],
					"payable": false,
					"stateMutability": "view",
					"type": "function"
				},
				{
					"constant": true,
					"inputs": [],
					"name": "owner",
					"outputs": [
						{
							"name": "",
							"type": "address"
						}
					],
					"payable": false,
					"stateMutability": "view",
					"type": "function"
				},
				{
					"constant": true,
					"inputs": [],
					"name": "vaccinationRecordsCounter",
					"outputs": [
						{
							"name": "",
							"type": "uint256"
						}
					],
					"payable": false,
					"stateMutability": "view",
					"type": "function"
				},
				{
					"constant": true,
					"inputs": [],
					"name": "MoHPermissionCounter",
					"outputs": [
						{
							"name": "",
							"type": "uint256"
						}
					],
					"payable": false,
					"stateMutability": "view",
					"type": "function"
				},
				{
					"constant": true,
					"inputs": [
						{
							"name": "",
							"type": "uint256"
						}
					],
					"name": "userList",
					"outputs": [
						{
							"name": "",
							"type": "address"
						}
					],
					"payable": false,
					"stateMutability": "view",
					"type": "function"
				},
				{
					"constant": true,
					"inputs": [],
					"name": "getDoctors",
					"outputs": [
						{
							"name": "",
							"type": "address[]"
						}
					],
					"payable": false,
					"stateMutability": "view",
					"type": "function"
				},
				{
					"constant": true,
					"inputs": [],
					"name": "getUserCount",
					"outputs": [
						{
							"name": "",
							"type": "uint256"
						}
					],
					"payable": false,
					"stateMutability": "view",
					"type": "function"
				},
				{
					"constant": true,
					"inputs": [],
					"name": "mohAdress",
					"outputs": [
						{
							"name": "",
							"type": "address"
						}
					],
					"payable": false,
					"stateMutability": "view",
					"type": "function"
				},
				{
					"constant": false,
					"inputs": [
						{
							"name": "_address1",
							"type": "address"
						},
						{
							"name": "_address2",
							"type": "address"
						}
					],
					"name": "MoHRevokePermission",
					"outputs": [
						{
							"name": "success",
							"type": "bool"
						}
					],
					"payable": false,
					"stateMutability": "nonpayable",
					"type": "function"
				},
				{
					"constant": true,
					"inputs": [],
					"name": "userPermissionCounter",
					"outputs": [
						{
							"name": "",
							"type": "uint256"
						}
					],
					"payable": false,
					"stateMutability": "view",
					"type": "function"
				},
				{
					"constant": true,
					"inputs": [
						{
							"name": "_address",
							"type": "address"
						}
					],
					"name": "searchDoctor",
					"outputs": [
						{
							"name": "",
							"type": "string"
						},
						{
							"name": "",
							"type": "string"
						},
						{
							"name": "",
							"type": "string"
						},
						{
							"name": "",
							"type": "string"
						},
						{
							"name": "",
							"type": "string"
						},
						{
							"name": "",
							"type": "string"
						},
						{
							"name": "",
							"type": "string"
						},
						{
							"name": "",
							"type": "address"
						}
					],
					"payable": false,
					"stateMutability": "view",
					"type": "function"
				},
				{
					"constant": false,
					"inputs": [
						{
							"name": "_address1",
							"type": "address"
						},
						{
							"name": "_address2",
							"type": "address"
						}
					],
					"name": "givePermissionByMoH",
					"outputs": [
						{
							"name": "success",
							"type": "bool"
						}
					],
					"payable": false,
					"stateMutability": "nonpayable",
					"type": "function"
				},
				{
					"constant": true,
					"inputs": [],
					"name": "getMoHPermissionCounter",
					"outputs": [
						{
							"name": "",
							"type": "uint256"
						}
					],
					"payable": false,
					"stateMutability": "view",
					"type": "function"
				},
				{
					"constant": true,
					"inputs": [
						{
							"name": "",
							"type": "uint256"
						}
					],
					"name": "vaccinationList",
					"outputs": [
						{
							"name": "",
							"type": "address"
						}
					],
					"payable": false,
					"stateMutability": "view",
					"type": "function"
				}
			],
			"devdoc": {
				"methods": {}
			},
			"evm": {
				"assembly": "    /* \"contracts/ddddd.sol\":91:9427  contract ddddd {\r... */\n  mstore(0x40, 0x80)\n    /* \"contracts/ddddd.sol\":1660:1661  0 */\n  0x0\n    /* \"contracts/ddddd.sol\":1633:1661  uint256 public userCount = 0 */\n  0xb\n  sstore\n    /* \"contracts/ddddd.sol\":1697:1698  0 */\n  0x0\n    /* \"contracts/ddddd.sol\":1668:1698  uint256 public doctorCount = 0 */\n  0xc\n  sstore\n    /* \"contracts/ddddd.sol\":1743:1744  0 */\n  0x0\n    /* \"contracts/ddddd.sol\":1705:1744  uint256 public MoHPermissionCounter = 0 */\n  0xd\n  sstore\n    /* \"contracts/ddddd.sol\":1790:1791  0 */\n  0x0\n    /* \"contracts/ddddd.sol\":1751:1791  uint256 public userPermissionCounter = 0 */\n  0xe\n  sstore\n    /* \"contracts/ddddd.sol\":1841:1842  0 */\n  0x0\n    /* \"contracts/ddddd.sol\":1798:1842  uint256 public vaccinationRecordsCounter = 0 */\n  0xf\n  sstore\n    /* \"contracts/ddddd.sol\":1878:1920  0xc50C6297f56b033633C30354A854b074749cd2dC */\n  0xc50c6297f56b033633c30354a854b074749cd2dc\n    /* \"contracts/ddddd.sol\":1851:1920  address public mohAdress = 0xc50C6297f56b033633C30354A854b074749cd2dC */\n  0x10\n  exp(0x100, 0x0)\n  dup2\n  sload\n  dup2\n  0xffffffffffffffffffffffffffffffffffffffff\n  mul\n  not\n  and\n  swap1\n  dup4\n  0xffffffffffffffffffffffffffffffffffffffff\n  and\n  mul\n  or\n  swap1\n  sstore\n  pop\n    /* \"contracts/ddddd.sol\":91:9427  contract ddddd {\r... */\n  callvalue\n    /* \"--CODEGEN--\":8:17   */\n  dup1\n    /* \"--CODEGEN--\":5:7   */\n  iszero\n  tag_1\n  jumpi\n    /* \"--CODEGEN--\":30:31   */\n  0x0\n    /* \"--CODEGEN--\":27:28   */\n  dup1\n    /* \"--CODEGEN--\":20:32   */\n  revert\n    /* \"--CODEGEN--\":5:7   */\ntag_1:\n    /* \"contracts/ddddd.sol\":91:9427  contract ddddd {\r... */\n  pop\n  dataSize(sub_0)\n  dup1\n  dataOffset(sub_0)\n  0x0\n  codecopy\n  0x0\n  return\nstop\n\nsub_0: assembly {\n        /* \"contracts/ddddd.sol\":91:9427  contract ddddd {\r... */\n      mstore(0x40, 0x80)\n      jumpi(tag_1, lt(calldatasize, 0x4))\n      calldataload(0x0)\n      0x100000000000000000000000000000000000000000000000000000000\n      swap1\n      div\n      0xffffffff\n      and\n      dup1\n      0xce8e3e\n      eq\n      tag_2\n      jumpi\n      dup1\n      0x24decc5\n      eq\n      tag_3\n      jumpi\n      dup1\n      0x76fd2f8\n      eq\n      tag_4\n      jumpi\n      dup1\n      0x7973ccf\n      eq\n      tag_5\n      jumpi\n      dup1\n      0x127ca4b4\n      eq\n      tag_6\n      jumpi\n      dup1\n      0x16e0a611\n      eq\n      tag_7\n      jumpi\n      dup1\n      0x17e51111\n      eq\n      tag_8\n      jumpi\n      dup1\n      0x28f6daac\n      eq\n      tag_9\n      jumpi\n      dup1\n      0x294a4540\n      eq\n      tag_10\n      jumpi\n      dup1\n      0x44c23f88\n      eq\n      tag_11\n      jumpi\n      dup1\n      0x5fc8e8c6\n      eq\n      tag_12\n      jumpi\n      dup1\n      0x6cdb2278\n      eq\n      tag_13\n      jumpi\n      dup1\n      0x779a9576\n      eq\n      tag_14\n      jumpi\n      dup1\n      0x78522bc4\n      eq\n      tag_15\n      jumpi\n      dup1\n      0x79111c1c\n      eq\n      tag_16\n      jumpi\n      dup1\n      0x793de5f0\n      eq\n      tag_17\n      jumpi\n      dup1\n      0x83a28b29\n      eq\n      tag_18\n      jumpi\n      dup1\n      0x8da5cb5b\n      eq\n      tag_19\n      jumpi\n      dup1\n      0x96e39ce0\n      eq\n      tag_20\n      jumpi\n      dup1\n      0x99d698c5\n      eq\n      tag_21\n      jumpi\n      dup1\n      0x9f4216e8\n      eq\n      tag_22\n      jumpi\n      dup1\n      0xb13d5d94\n      eq\n      tag_23\n      jumpi\n      dup1\n      0xb5cb15f7\n      eq\n      tag_24\n      jumpi\n      dup1\n      0xb744ff4d\n      eq\n      tag_25\n      jumpi\n      dup1\n      0xc3bf7bf0\n      eq\n      tag_26\n      jumpi\n      dup1\n      0xc543a718\n      eq\n      tag_27\n      jumpi\n      dup1\n      0xcaee6c85\n      eq\n      tag_28\n      jumpi\n      dup1\n      0xd118404b\n      eq\n      tag_29\n      jumpi\n      dup1\n      0xe0df0ac6\n      eq\n      tag_30\n      jumpi\n      dup1\n      0xff508dab\n      eq\n      tag_31\n      jumpi\n    tag_1:\n      0x0\n      dup1\n      revert\n        /* \"contracts/ddddd.sol\":7402:7487  function getUsers() public view returns(address[]) {\r... */\n    tag_2:\n      callvalue\n        /* \"--CODEGEN--\":8:17   */\n      dup1\n        /* \"--CODEGEN--\":5:7   */\n      iszero\n      tag_32\n      jumpi\n        /* \"--CODEGEN--\":30:31   */\n      0x0\n        /* \"--CODEGEN--\":27:28   */\n      dup1\n        /* \"--CODEGEN--\":20:32   */\n      revert\n        /* \"--CODEGEN--\":5:7   */\n    tag_32:\n        /* \"contracts/ddddd.sol\":7402:7487  function getUsers() public view returns(address[]) {\r... */\n      pop\n      tag_33\n      jump(tag_34)\n    tag_33:\n      mload(0x40)\n      tag_35\n      swap2\n      swap1\n      jump(tag_36)\n    tag_35:\n      mload(0x40)\n      dup1\n      swap2\n      sub\n      swap1\n      return\n        /* \"contracts/ddddd.sol\":8880:8992  function getUserPermissionCounter() public view returns(uint256) {\r... */\n    tag_3:\n      callvalue\n        /* \"--CODEGEN--\":8:17   */\n      dup1\n        /* \"--CODEGEN--\":5:7   */\n      iszero\n      tag_37\n      jumpi\n        /* \"--CODEGEN--\":30:31   */\n      0x0\n        /* \"--CODEGEN--\":27:28   */\n      dup1\n        /* \"--CODEGEN--\":20:32   */\n      revert\n        /* \"--CODEGEN--\":5:7   */\n    tag_37:\n        /* \"contracts/ddddd.sol\":8880:8992  function getUserPermissionCounter() public view returns(uint256) {\r... */\n      pop\n      tag_38\n      jump(tag_39)\n    tag_38:\n      mload(0x40)\n      tag_40\n      swap2\n      swap1\n      jump(tag_41)\n    tag_40:\n      mload(0x40)\n      dup1\n      swap2\n      sub\n      swap1\n      return\n        /* \"contracts/ddddd.sol\":7598:7972  function searchUserformation(address _address) public view returns(string, string, string, string, string, string, string, address) {\r... */\n    tag_4:\n      callvalue\n        /* \"--CODEGEN--\":8:17   */\n      dup1\n        /* \"--CODEGEN--\":5:7   */\n      iszero\n      tag_42\n      jumpi\n        /* \"--CODEGEN--\":30:31   */\n      0x0\n        /* \"--CODEGEN--\":27:28   */\n      dup1\n        /* \"--CODEGEN--\":20:32   */\n      revert\n        /* \"--CODEGEN--\":5:7   */\n    tag_42:\n        /* \"contracts/ddddd.sol\":7598:7972  function searchUserformation(address _address) public view returns(string, string, string, string, string, string, string, address) {\r... */\n      pop\n      tag_43\n      0x4\n      dup1\n      calldatasize\n      sub\n      tag_44\n      swap2\n      swap1\n      dup2\n      add\n      swap1\n      jump(tag_45)\n    tag_44:\n      jump(tag_46)\n    tag_43:\n      mload(0x40)\n      tag_47\n      swap9\n      swap8\n      swap7\n      swap6\n      swap5\n      swap4\n      swap3\n      swap2\n      swap1\n      jump(tag_48)\n    tag_47:\n      mload(0x40)\n      dup1\n      swap2\n      sub\n      swap1\n      return\n        /* \"contracts/ddddd.sol\":1633:1661  uint256 public userCount = 0 */\n    tag_5:\n      callvalue\n        /* \"--CODEGEN--\":8:17   */\n      dup1\n        /* \"--CODEGEN--\":5:7   */\n      iszero\n      tag_49\n      jumpi\n        /* \"--CODEGEN--\":30:31   */\n      0x0\n        /* \"--CODEGEN--\":27:28   */\n      dup1\n        /* \"--CODEGEN--\":20:32   */\n      revert\n        /* \"--CODEGEN--\":5:7   */\n    tag_49:\n        /* \"contracts/ddddd.sol\":1633:1661  uint256 public userCount = 0 */\n      pop\n      tag_50\n      jump(tag_51)\n    tag_50:\n      mload(0x40)\n      tag_52\n      swap2\n      swap1\n      jump(tag_41)\n    tag_52:\n      mload(0x40)\n      dup1\n      swap2\n      sub\n      swap1\n      return\n        /* \"contracts/ddddd.sol\":1095:1122  address[] public doctorList */\n    tag_6:\n      callvalue\n        /* \"--CODEGEN--\":8:17   */\n      dup1\n        /* \"--CODEGEN--\":5:7   */\n      iszero\n      tag_53\n      jumpi\n        /* \"--CODEGEN--\":30:31   */\n      0x0\n        /* \"--CODEGEN--\":27:28   */\n      dup1\n        /* \"--CODEGEN--\":20:32   */\n      revert\n        /* \"--CODEGEN--\":5:7   */\n    tag_53:\n        /* \"contracts/ddddd.sol\":1095:1122  address[] public doctorList */\n      pop\n      tag_54\n      0x4\n      dup1\n      calldatasize\n      sub\n      tag_55\n      swap2\n      swap1\n      dup2\n      add\n      swap1\n      jump(tag_56)\n    tag_55:\n      jump(tag_57)\n    tag_54:\n      mload(0x40)\n      tag_58\n      swap2\n      swap1\n      jump(tag_59)\n    tag_58:\n      mload(0x40)\n      dup1\n      swap2\n      sub\n      swap1\n      return\n        /* \"contracts/ddddd.sol\":4700:5225  function editDoctor(address _doctor, string _uaeId, string _name, string _phone, string _gender, string _email, string _qualification, string _major) public {\r... */\n    tag_7:\n      callvalue\n        /* \"--CODEGEN--\":8:17   */\n      dup1\n        /* \"--CODEGEN--\":5:7   */\n      iszero\n      tag_60\n      jumpi\n        /* \"--CODEGEN--\":30:31   */\n      0x0\n        /* \"--CODEGEN--\":27:28   */\n      dup1\n        /* \"--CODEGEN--\":20:32   */\n      revert\n        /* \"--CODEGEN--\":5:7   */\n    tag_60:\n        /* \"contracts/ddddd.sol\":4700:5225  function editDoctor(address _doctor, string _uaeId, string _name, string _phone, string _gender, string _email, string _qualification, string _major) public {\r... */\n      pop\n      tag_61\n      0x4\n      dup1\n      calldatasize\n      sub\n      tag_62\n      swap2\n      swap1\n      dup2\n      add\n      swap1\n      jump(tag_63)\n    tag_62:\n      jump(tag_64)\n    tag_61:\n      stop\n        /* \"contracts/ddddd.sol\":3925:4692  function doctorRegistration(address _doctor, string _uaeId, string _name, string _phone, string _gender, string _email, string _qualification, string _major) public {\r... */\n    tag_8:\n      callvalue\n        /* \"--CODEGEN--\":8:17   */\n      dup1\n        /* \"--CODEGEN--\":5:7   */\n      iszero\n      tag_65\n      jumpi\n        /* \"--CODEGEN--\":30:31   */\n      0x0\n        /* \"--CODEGEN--\":27:28   */\n      dup1\n        /* \"--CODEGEN--\":20:32   */\n      revert\n        /* \"--CODEGEN--\":5:7   */\n    tag_65:\n        /* \"contracts/ddddd.sol\":3925:4692  function doctorRegistration(address _doctor, string _uaeId, string _name, string _phone, string _gender, string _email, string _qualification, string _major) public {\r... */\n      pop\n      tag_66\n      0x4\n      dup1\n      calldatasize\n      sub\n      tag_67\n      swap2\n      swap1\n      dup2\n      add\n      swap1\n      jump(tag_63)\n    tag_67:\n      jump(tag_68)\n    tag_66:\n      stop\n        /* \"contracts/ddddd.sol\":1933:2163  function ownerAddress(address _admin) public view returns(bool) {\r... */\n    tag_9:\n      callvalue\n        /* \"--CODEGEN--\":8:17   */\n      dup1\n        /* \"--CODEGEN--\":5:7   */\n      iszero\n      tag_69\n      jumpi\n        /* \"--CODEGEN--\":30:31   */\n      0x0\n        /* \"--CODEGEN--\":27:28   */\n      dup1\n        /* \"--CODEGEN--\":20:32   */\n      revert\n        /* \"--CODEGEN--\":5:7   */\n    tag_69:\n        /* \"contracts/ddddd.sol\":1933:2163  function ownerAddress(address _admin) public view returns(bool) {\r... */\n      pop\n      tag_70\n      0x4\n      dup1\n      calldatasize\n      sub\n      tag_71\n      swap2\n      swap1\n      dup2\n      add\n      swap1\n      jump(tag_45)\n    tag_71:\n      jump(tag_72)\n    tag_70:\n      mload(0x40)\n      tag_73\n      swap2\n      swap1\n      jump(tag_74)\n    tag_73:\n      mload(0x40)\n      dup1\n      swap2\n      sub\n      swap1\n      return\n        /* \"contracts/ddddd.sol\":6545:6736  function givePermissionByUser(address _address) public returns(bool success) {\r... */\n    tag_10:\n      callvalue\n        /* \"--CODEGEN--\":8:17   */\n      dup1\n        /* \"--CODEGEN--\":5:7   */\n      iszero\n      tag_75\n      jumpi\n        /* \"--CODEGEN--\":30:31   */\n      0x0\n        /* \"--CODEGEN--\":27:28   */\n      dup1\n        /* \"--CODEGEN--\":20:32   */\n      revert\n        /* \"--CODEGEN--\":5:7   */\n    tag_75:\n        /* \"contracts/ddddd.sol\":6545:6736  function givePermissionByUser(address _address) public returns(bool success) {\r... */\n      pop\n      tag_76\n      0x4\n      dup1\n      calldatasize\n      sub\n      tag_77\n      swap2\n      swap1\n      dup2\n      add\n      swap1\n      jump(tag_45)\n    tag_77:\n      jump(tag_78)\n    tag_76:\n      mload(0x40)\n      tag_79\n      swap2\n      swap1\n      jump(tag_74)\n    tag_79:\n      mload(0x40)\n      dup1\n      swap2\n      sub\n      swap1\n      return\n        /* \"contracts/ddddd.sol\":5233:6183  function createVaccineRecord(address _address1, address _doctor, string _name, string _vaccine, string _description, string _typeOfVaccine, uint _creationDate) public returns(bool success) {\r... */\n    tag_11:\n      callvalue\n        /* \"--CODEGEN--\":8:17   */\n      dup1\n        /* \"--CODEGEN--\":5:7   */\n      iszero\n      tag_80\n      jumpi\n        /* \"--CODEGEN--\":30:31   */\n      0x0\n        /* \"--CODEGEN--\":27:28   */\n      dup1\n        /* \"--CODEGEN--\":20:32   */\n      revert\n        /* \"--CODEGEN--\":5:7   */\n    tag_80:\n        /* \"contracts/ddddd.sol\":5233:6183  function createVaccineRecord(address _address1, address _doctor, string _name, string _vaccine, string _description, string _typeOfVaccine, uint _creationDate) public returns(bool success) {\r... */\n      pop\n      tag_81\n      0x4\n      dup1\n      calldatasize\n      sub\n      tag_82\n      swap2\n      swap1\n      dup2\n      add\n      swap1\n      jump(tag_83)\n    tag_82:\n      jump(tag_84)\n    tag_81:\n      mload(0x40)\n      tag_85\n      swap2\n      swap1\n      jump(tag_74)\n    tag_85:\n      mload(0x40)\n      dup1\n      swap2\n      sub\n      swap1\n      return\n        /* \"contracts/ddddd.sol\":7006:7164  function userRevokePermission(address _address) public returns(bool success) {\r... */\n    tag_12:\n      callvalue\n        /* \"--CODEGEN--\":8:17   */\n      dup1\n        /* \"--CODEGEN--\":5:7   */\n      iszero\n      tag_86\n      jumpi\n        /* \"--CODEGEN--\":30:31   */\n      0x0\n        /* \"--CODEGEN--\":27:28   */\n      dup1\n        /* \"--CODEGEN--\":20:32   */\n      revert\n        /* \"--CODEGEN--\":5:7   */\n    tag_86:\n        /* \"contracts/ddddd.sol\":7006:7164  function userRevokePermission(address _address) public returns(bool success) {\r... */\n      pop\n      tag_87\n      0x4\n      dup1\n      calldatasize\n      sub\n      tag_88\n      swap2\n      swap1\n      dup2\n      add\n      swap1\n      jump(tag_45)\n    tag_88:\n      jump(tag_89)\n    tag_87:\n      mload(0x40)\n      tag_90\n      swap2\n      swap1\n      jump(tag_74)\n    tag_90:\n      mload(0x40)\n      dup1\n      swap2\n      sub\n      swap1\n      return\n        /* \"contracts/ddddd.sol\":2175:3284  function userRegistration(address _user, string _uaeId, string _name, string _phone, string _gender, string _dob, string _addr, string _email, string _nomineeName, string _nomineeContact) public {\r... */\n    tag_13:\n      callvalue\n        /* \"--CODEGEN--\":8:17   */\n      dup1\n        /* \"--CODEGEN--\":5:7   */\n      iszero\n      tag_91\n      jumpi\n        /* \"--CODEGEN--\":30:31   */\n      0x0\n        /* \"--CODEGEN--\":27:28   */\n      dup1\n        /* \"--CODEGEN--\":20:32   */\n      revert\n        /* \"--CODEGEN--\":5:7   */\n    tag_91:\n        /* \"contracts/ddddd.sol\":2175:3284  function userRegistration(address _user, string _uaeId, string _name, string _phone, string _gender, string _dob, string _addr, string _email, string _nomineeName, string _nomineeContact) public {\r... */\n      pop\n      tag_92\n      0x4\n      dup1\n      calldatasize\n      sub\n      tag_93\n      swap2\n      swap1\n      dup2\n      add\n      swap1\n      jump(tag_94)\n    tag_93:\n      jump(tag_95)\n    tag_92:\n      stop\n        /* \"contracts/ddddd.sol\":3308:3917  function editUser(address _user, string _uaeId, string _name, string _phone, string _gender, string _dob, string _addr, string _email, string _nomineeName, string _nomineeContact) public {\r... */\n    tag_14:\n      callvalue\n        /* \"--CODEGEN--\":8:17   */\n      dup1\n        /* \"--CODEGEN--\":5:7   */\n      iszero\n      tag_96\n      jumpi\n        /* \"--CODEGEN--\":30:31   */\n      0x0\n        /* \"--CODEGEN--\":27:28   */\n      dup1\n        /* \"--CODEGEN--\":20:32   */\n      revert\n        /* \"--CODEGEN--\":5:7   */\n    tag_96:\n        /* \"contracts/ddddd.sol\":3308:3917  function editUser(address _user, string _uaeId, string _name, string _phone, string _gender, string _dob, string _addr, string _email, string _nomineeName, string _nomineeContact) public {\r... */\n      pop\n      tag_97\n      0x4\n      dup1\n      calldatasize\n      sub\n      tag_98\n      swap2\n      swap1\n      dup2\n      add\n      swap1\n      jump(tag_94)\n    tag_98:\n      jump(tag_99)\n    tag_97:\n      stop\n        /* \"contracts/ddddd.sol\":1668:1698  uint256 public doctorCount = 0 */\n    tag_15:\n      callvalue\n        /* \"--CODEGEN--\":8:17   */\n      dup1\n        /* \"--CODEGEN--\":5:7   */\n      iszero\n      tag_100\n      jumpi\n        /* \"--CODEGEN--\":30:31   */\n      0x0\n        /* \"--CODEGEN--\":27:28   */\n      dup1\n        /* \"--CODEGEN--\":20:32   */\n      revert\n        /* \"--CODEGEN--\":5:7   */\n    tag_100:\n        /* \"contracts/ddddd.sol\":1668:1698  uint256 public doctorCount = 0 */\n      pop\n      tag_101\n      jump(tag_102)\n    tag_101:\n      mload(0x40)\n      tag_103\n      swap2\n      swap1\n      jump(tag_41)\n    tag_103:\n      mload(0x40)\n      dup1\n      swap2\n      sub\n      swap1\n      return\n        /* \"contracts/ddddd.sol\":8774:8866  function getDoctorCount() public view returns(uint256) {\r... */\n    tag_16:\n      callvalue\n        /* \"--CODEGEN--\":8:17   */\n      dup1\n        /* \"--CODEGEN--\":5:7   */\n      iszero\n      tag_104\n      jumpi\n        /* \"--CODEGEN--\":30:31   */\n      0x0\n        /* \"--CODEGEN--\":27:28   */\n      dup1\n        /* \"--CODEGEN--\":20:32   */\n      revert\n        /* \"--CODEGEN--\":5:7   */\n    tag_104:\n        /* \"contracts/ddddd.sol\":8774:8866  function getDoctorCount() public view returns(uint256) {\r... */\n      pop\n      tag_105\n      jump(tag_106)\n    tag_105:\n      mload(0x40)\n      tag_107\n      swap2\n      swap1\n      jump(tag_41)\n    tag_107:\n      mload(0x40)\n      dup1\n      swap2\n      sub\n      swap1\n      return\n        /* \"contracts/ddddd.sol\":9118:9424  function checkDoctor(address _address) public view returns(bool success) {\r... */\n    tag_17:\n      callvalue\n        /* \"--CODEGEN--\":8:17   */\n      dup1\n        /* \"--CODEGEN--\":5:7   */\n      iszero\n      tag_108\n      jumpi\n        /* \"--CODEGEN--\":30:31   */\n      0x0\n        /* \"--CODEGEN--\":27:28   */\n      dup1\n        /* \"--CODEGEN--\":20:32   */\n      revert\n        /* \"--CODEGEN--\":5:7   */\n    tag_108:\n        /* \"contracts/ddddd.sol\":9118:9424  function checkDoctor(address _address) public view returns(bool success) {\r... */\n      pop\n      tag_109\n      0x4\n      dup1\n      calldatasize\n      sub\n      tag_110\n      swap2\n      swap1\n      dup2\n      add\n      swap1\n      jump(tag_45)\n    tag_110:\n      jump(tag_111)\n    tag_109:\n      mload(0x40)\n      tag_112\n      swap2\n      swap1\n      jump(tag_74)\n    tag_112:\n      mload(0x40)\n      dup1\n      swap2\n      sub\n      swap1\n      return\n        /* \"contracts/ddddd.sol\":6191:6535  function getVaccinationInfo(address _address) public view returns(string, string, string, string, uint256, address, address) {\r... */\n    tag_18:\n      callvalue\n        /* \"--CODEGEN--\":8:17   */\n      dup1\n        /* \"--CODEGEN--\":5:7   */\n      iszero\n      tag_113\n      jumpi\n        /* \"--CODEGEN--\":30:31   */\n      0x0\n        /* \"--CODEGEN--\":27:28   */\n      dup1\n        /* \"--CODEGEN--\":20:32   */\n      revert\n        /* \"--CODEGEN--\":5:7   */\n    tag_113:\n        /* \"contracts/ddddd.sol\":6191:6535  function getVaccinationInfo(address _address) public view returns(string, string, string, string, uint256, address, address) {\r... */\n      pop\n      tag_114\n      0x4\n      dup1\n      calldatasize\n      sub\n      tag_115\n      swap2\n      swap1\n      dup2\n      add\n      swap1\n      jump(tag_45)\n    tag_115:\n      jump(tag_116)\n    tag_114:\n      mload(0x40)\n      tag_117\n      swap8\n      swap7\n      swap6\n      swap5\n      swap4\n      swap3\n      swap2\n      swap1\n      jump(tag_118)\n    tag_117:\n      mload(0x40)\n      dup1\n      swap2\n      sub\n      swap1\n      return\n        /* \"contracts/ddddd.sol\":1036:1056  address public owner */\n    tag_19:\n      callvalue\n        /* \"--CODEGEN--\":8:17   */\n      dup1\n        /* \"--CODEGEN--\":5:7   */\n      iszero\n      tag_119\n      jumpi\n        /* \"--CODEGEN--\":30:31   */\n      0x0\n        /* \"--CODEGEN--\":27:28   */\n      dup1\n        /* \"--CODEGEN--\":20:32   */\n      revert\n        /* \"--CODEGEN--\":5:7   */\n    tag_119:\n        /* \"contracts/ddddd.sol\":1036:1056  address public owner */\n      pop\n      tag_120\n      jump(tag_121)\n    tag_120:\n      mload(0x40)\n      tag_122\n      swap2\n      swap1\n      jump(tag_59)\n    tag_122:\n      mload(0x40)\n      dup1\n      swap2\n      sub\n      swap1\n      return\n        /* \"contracts/ddddd.sol\":1798:1842  uint256 public vaccinationRecordsCounter = 0 */\n    tag_20:\n      callvalue\n        /* \"--CODEGEN--\":8:17   */\n      dup1\n        /* \"--CODEGEN--\":5:7   */\n      iszero\n      tag_123\n      jumpi\n        /* \"--CODEGEN--\":30:31   */\n      0x0\n        /* \"--CODEGEN--\":27:28   */\n      dup1\n        /* \"--CODEGEN--\":20:32   */\n      revert\n        /* \"--CODEGEN--\":5:7   */\n    tag_123:\n        /* \"contracts/ddddd.sol\":1798:1842  uint256 public vaccinationRecordsCounter = 0 */\n      pop\n      tag_124\n      jump(tag_125)\n    tag_124:\n      mload(0x40)\n      tag_126\n      swap2\n      swap1\n      jump(tag_41)\n    tag_126:\n      mload(0x40)\n      dup1\n      swap2\n      sub\n      swap1\n      return\n        /* \"contracts/ddddd.sol\":1705:1744  uint256 public MoHPermissionCounter = 0 */\n    tag_21:\n      callvalue\n        /* \"--CODEGEN--\":8:17   */\n      dup1\n        /* \"--CODEGEN--\":5:7   */\n      iszero\n      tag_127\n      jumpi\n        /* \"--CODEGEN--\":30:31   */\n      0x0\n        /* \"--CODEGEN--\":27:28   */\n      dup1\n        /* \"--CODEGEN--\":20:32   */\n      revert\n        /* \"--CODEGEN--\":5:7   */\n    tag_127:\n        /* \"contracts/ddddd.sol\":1705:1744  uint256 public MoHPermissionCounter = 0 */\n      pop\n      tag_128\n      jump(tag_129)\n    tag_128:\n      mload(0x40)\n      tag_130\n      swap2\n      swap1\n      jump(tag_41)\n    tag_130:\n      mload(0x40)\n      dup1\n      swap2\n      sub\n      swap1\n      return\n        /* \"contracts/ddddd.sol\":1063:1088  address[] public userList */\n    tag_22:\n      callvalue\n        /* \"--CODEGEN--\":8:17   */\n      dup1\n        /* \"--CODEGEN--\":5:7   */\n      iszero\n      tag_131\n      jumpi\n        /* \"--CODEGEN--\":30:31   */\n      0x0\n        /* \"--CODEGEN--\":27:28   */\n      dup1\n        /* \"--CODEGEN--\":20:32   */\n      revert\n        /* \"--CODEGEN--\":5:7   */\n    tag_131:\n        /* \"contracts/ddddd.sol\":1063:1088  address[] public userList */\n      pop\n      tag_132\n      0x4\n      dup1\n      calldatasize\n      sub\n      tag_133\n      swap2\n      swap1\n      dup2\n      add\n      swap1\n      jump(tag_56)\n    tag_133:\n      jump(tag_134)\n    tag_132:\n      mload(0x40)\n      tag_135\n      swap2\n      swap1\n      jump(tag_59)\n    tag_135:\n      mload(0x40)\n      dup1\n      swap2\n      sub\n      swap1\n      return\n        /* \"contracts/ddddd.sol\":7497:7586  function getDoctors() public view returns(address[]) {\r... */\n    tag_23:\n      callvalue\n        /* \"--CODEGEN--\":8:17   */\n      dup1\n        /* \"--CODEGEN--\":5:7   */\n      iszero\n      tag_136\n      jumpi\n        /* \"--CODEGEN--\":30:31   */\n      0x0\n        /* \"--CODEGEN--\":27:28   */\n      dup1\n        /* \"--CODEGEN--\":20:32   */\n      revert\n        /* \"--CODEGEN--\":5:7   */\n    tag_136:\n        /* \"contracts/ddddd.sol\":7497:7586  function getDoctors() public view returns(address[]) {\r... */\n      pop\n      tag_137\n      jump(tag_138)\n    tag_137:\n      mload(0x40)\n      tag_139\n      swap2\n      swap1\n      jump(tag_36)\n    tag_139:\n      mload(0x40)\n      dup1\n      swap2\n      sub\n      swap1\n      return\n        /* \"contracts/ddddd.sol\":8678:8766  function getUserCount() public view returns(uint256) {\r... */\n    tag_24:\n      callvalue\n        /* \"--CODEGEN--\":8:17   */\n      dup1\n        /* \"--CODEGEN--\":5:7   */\n      iszero\n      tag_140\n      jumpi\n        /* \"--CODEGEN--\":30:31   */\n      0x0\n        /* \"--CODEGEN--\":27:28   */\n      dup1\n        /* \"--CODEGEN--\":20:32   */\n      revert\n        /* \"--CODEGEN--\":5:7   */\n    tag_140:\n        /* \"contracts/ddddd.sol\":8678:8766  function getUserCount() public view returns(uint256) {\r... */\n      pop\n      tag_141\n      jump(tag_142)\n    tag_141:\n      mload(0x40)\n      tag_143\n      swap2\n      swap1\n      jump(tag_41)\n    tag_143:\n      mload(0x40)\n      dup1\n      swap2\n      sub\n      swap1\n      return\n        /* \"contracts/ddddd.sol\":1851:1920  address public mohAdress = 0xc50C6297f56b033633C30354A854b074749cd2dC */\n    tag_25:\n      callvalue\n        /* \"--CODEGEN--\":8:17   */\n      dup1\n        /* \"--CODEGEN--\":5:7   */\n      iszero\n      tag_144\n      jumpi\n        /* \"--CODEGEN--\":30:31   */\n      0x0\n        /* \"--CODEGEN--\":27:28   */\n      dup1\n        /* \"--CODEGEN--\":20:32   */\n      revert\n        /* \"--CODEGEN--\":5:7   */\n    tag_144:\n        /* \"contracts/ddddd.sol\":1851:1920  address public mohAdress = 0xc50C6297f56b033633C30354A854b074749cd2dC */\n      pop\n      tag_145\n      jump(tag_146)\n    tag_145:\n      mload(0x40)\n      tag_147\n      swap2\n      swap1\n      jump(tag_59)\n    tag_147:\n      mload(0x40)\n      dup1\n      swap2\n      sub\n      swap1\n      return\n        /* \"contracts/ddddd.sol\":7172:7392  function MoHRevokePermission(address _address1, address _address2) public returns(bool success) {\r... */\n    tag_26:\n      callvalue\n        /* \"--CODEGEN--\":8:17   */\n      dup1\n        /* \"--CODEGEN--\":5:7   */\n      iszero\n      tag_148\n      jumpi\n        /* \"--CODEGEN--\":30:31   */\n      0x0\n        /* \"--CODEGEN--\":27:28   */\n      dup1\n        /* \"--CODEGEN--\":20:32   */\n      revert\n        /* \"--CODEGEN--\":5:7   */\n    tag_148:\n        /* \"contracts/ddddd.sol\":7172:7392  function MoHRevokePermission(address _address1, address _address2) public returns(bool success) {\r... */\n      pop\n      tag_149\n      0x4\n      dup1\n      calldatasize\n      sub\n      tag_150\n      swap2\n      swap1\n      dup2\n      add\n      swap1\n      jump(tag_151)\n    tag_150:\n      jump(tag_152)\n    tag_149:\n      mload(0x40)\n      tag_153\n      swap2\n      swap1\n      jump(tag_74)\n    tag_153:\n      mload(0x40)\n      dup1\n      swap2\n      sub\n      swap1\n      return\n        /* \"contracts/ddddd.sol\":1751:1791  uint256 public userPermissionCounter = 0 */\n    tag_27:\n      callvalue\n        /* \"--CODEGEN--\":8:17   */\n      dup1\n        /* \"--CODEGEN--\":5:7   */\n      iszero\n      tag_154\n      jumpi\n        /* \"--CODEGEN--\":30:31   */\n      0x0\n        /* \"--CODEGEN--\":27:28   */\n      dup1\n        /* \"--CODEGEN--\":20:32   */\n      revert\n        /* \"--CODEGEN--\":5:7   */\n    tag_154:\n        /* \"contracts/ddddd.sol\":1751:1791  uint256 public userPermissionCounter = 0 */\n      pop\n      tag_155\n      jump(tag_156)\n    tag_155:\n      mload(0x40)\n      tag_157\n      swap2\n      swap1\n      jump(tag_41)\n    tag_157:\n      mload(0x40)\n      dup1\n      swap2\n      sub\n      swap1\n      return\n        /* \"contracts/ddddd.sol\":8293:8662  function searchDoctor(address _address) public view returns(string, string, string, string, string, string, string, address) {\r... */\n    tag_28:\n      callvalue\n        /* \"--CODEGEN--\":8:17   */\n      dup1\n        /* \"--CODEGEN--\":5:7   */\n      iszero\n      tag_158\n      jumpi\n        /* \"--CODEGEN--\":30:31   */\n      0x0\n        /* \"--CODEGEN--\":27:28   */\n      dup1\n        /* \"--CODEGEN--\":20:32   */\n      revert\n        /* \"--CODEGEN--\":5:7   */\n    tag_158:\n        /* \"contracts/ddddd.sol\":8293:8662  function searchDoctor(address _address) public view returns(string, string, string, string, string, string, string, address) {\r... */\n      pop\n      tag_159\n      0x4\n      dup1\n      calldatasize\n      sub\n      tag_160\n      swap2\n      swap1\n      dup2\n      add\n      swap1\n      jump(tag_45)\n    tag_160:\n      jump(tag_161)\n    tag_159:\n      mload(0x40)\n      tag_162\n      swap9\n      swap8\n      swap7\n      swap6\n      swap5\n      swap4\n      swap3\n      swap2\n      swap1\n      jump(tag_48)\n    tag_162:\n      mload(0x40)\n      dup1\n      swap2\n      sub\n      swap1\n      return\n        /* \"contracts/ddddd.sol\":6744:6996  function givePermissionByMoH(address _address1, address _address2) public returns(bool success) {\r... */\n    tag_29:\n      callvalue\n        /* \"--CODEGEN--\":8:17   */\n      dup1\n        /* \"--CODEGEN--\":5:7   */\n      iszero\n      tag_163\n      jumpi\n        /* \"--CODEGEN--\":30:31   */\n      0x0\n        /* \"--CODEGEN--\":27:28   */\n      dup1\n        /* \"--CODEGEN--\":20:32   */\n      revert\n        /* \"--CODEGEN--\":5:7   */\n    tag_163:\n        /* \"contracts/ddddd.sol\":6744:6996  function givePermissionByMoH(address _address1, address _address2) public returns(bool success) {\r... */\n      pop\n      tag_164\n      0x4\n      dup1\n      calldatasize\n      sub\n      tag_165\n      swap2\n      swap1\n      dup2\n      add\n      swap1\n      jump(tag_151)\n    tag_165:\n      jump(tag_166)\n    tag_164:\n      mload(0x40)\n      tag_167\n      swap2\n      swap1\n      jump(tag_74)\n    tag_167:\n      mload(0x40)\n      dup1\n      swap2\n      sub\n      swap1\n      return\n        /* \"contracts/ddddd.sol\":9000:9110  function getMoHPermissionCounter() public view returns(uint256) {\r... */\n    tag_30:\n      callvalue\n        /* \"--CODEGEN--\":8:17   */\n      dup1\n        /* \"--CODEGEN--\":5:7   */\n      iszero\n      tag_168\n      jumpi\n        /* \"--CODEGEN--\":30:31   */\n      0x0\n        /* \"--CODEGEN--\":27:28   */\n      dup1\n        /* \"--CODEGEN--\":20:32   */\n      revert\n        /* \"--CODEGEN--\":5:7   */\n    tag_168:\n        /* \"contracts/ddddd.sol\":9000:9110  function getMoHPermissionCounter() public view returns(uint256) {\r... */\n      pop\n      tag_169\n      jump(tag_170)\n    tag_169:\n      mload(0x40)\n      tag_171\n      swap2\n      swap1\n      jump(tag_41)\n    tag_171:\n      mload(0x40)\n      dup1\n      swap2\n      sub\n      swap1\n      return\n        /* \"contracts/ddddd.sol\":1129:1161  address[] public vaccinationList */\n    tag_31:\n      callvalue\n        /* \"--CODEGEN--\":8:17   */\n      dup1\n        /* \"--CODEGEN--\":5:7   */\n      iszero\n      tag_172\n      jumpi\n        /* \"--CODEGEN--\":30:31   */\n      0x0\n        /* \"--CODEGEN--\":27:28   */\n      dup1\n        /* \"--CODEGEN--\":20:32   */\n      revert\n        /* \"--CODEGEN--\":5:7   */\n    tag_172:\n        /* \"contracts/ddddd.sol\":1129:1161  address[] public vaccinationList */\n      pop\n      tag_173\n      0x4\n      dup1\n      calldatasize\n      sub\n      tag_174\n      swap2\n      swap1\n      dup2\n      add\n      swap1\n      jump(tag_56)\n    tag_174:\n      jump(tag_175)\n    tag_173:\n      mload(0x40)\n      tag_176\n      swap2\n      swap1\n      jump(tag_59)\n    tag_176:\n      mload(0x40)\n      dup1\n      swap2\n      sub\n      swap1\n      return\n        /* \"contracts/ddddd.sol\":7402:7487  function getUsers() public view returns(address[]) {\r... */\n    tag_34:\n        /* \"contracts/ddddd.sol\":7442:7451  address[] */\n      0x60\n        /* \"contracts/ddddd.sol\":7471:7479  userList */\n      0x1\n        /* \"contracts/ddddd.sol\":7464:7479  return userList */\n      dup1\n      sload\n      dup1\n      0x20\n      mul\n      0x20\n      add\n      mload(0x40)\n      swap1\n      dup2\n      add\n      0x40\n      mstore\n      dup1\n      swap3\n      swap2\n      swap1\n      dup2\n      dup2\n      mstore\n      0x20\n      add\n      dup3\n      dup1\n      sload\n      dup1\n      iszero\n      tag_178\n      jumpi\n      0x20\n      mul\n      dup3\n      add\n      swap2\n      swap1\n      0x0\n      mstore\n      keccak256(0x0, 0x20)\n      swap1\n    tag_179:\n      dup2\n      0x0\n      swap1\n      sload\n      swap1\n      0x100\n      exp\n      swap1\n      div\n      0xffffffffffffffffffffffffffffffffffffffff\n      and\n      0xffffffffffffffffffffffffffffffffffffffff\n      and\n      dup2\n      mstore\n      0x20\n      add\n      swap1\n      0x1\n      add\n      swap1\n      dup1\n      dup4\n      gt\n      tag_179\n      jumpi\n    tag_178:\n      pop\n      pop\n      pop\n      pop\n      pop\n      swap1\n      pop\n        /* \"contracts/ddddd.sol\":7402:7487  function getUsers() public view returns(address[]) {\r... */\n      swap1\n      jump\t// out\n        /* \"contracts/ddddd.sol\":8880:8992  function getUserPermissionCounter() public view returns(uint256) {\r... */\n    tag_39:\n        /* \"contracts/ddddd.sol\":8936:8943  uint256 */\n      0x0\n        /* \"contracts/ddddd.sol\":8963:8984  userPermissionCounter */\n      sload(0xe)\n        /* \"contracts/ddddd.sol\":8956:8984  return userPermissionCounter */\n      swap1\n      pop\n        /* \"contracts/ddddd.sol\":8880:8992  function getUserPermissionCounter() public view returns(uint256) {\r... */\n      swap1\n      jump\t// out\n        /* \"contracts/ddddd.sol\":7598:7972  function searchUserformation(address _address) public view returns(string, string, string, string, string, string, string, address) {\r... */\n    tag_46:\n        /* \"contracts/ddddd.sol\":7665:7671  string */\n      0x60\n        /* \"contracts/ddddd.sol\":7673:7679  string */\n      dup1\n        /* \"contracts/ddddd.sol\":7681:7687  string */\n      0x60\n        /* \"contracts/ddddd.sol\":7689:7695  string */\n      dup1\n        /* \"contracts/ddddd.sol\":7697:7703  string */\n      0x60\n        /* \"contracts/ddddd.sol\":7705:7711  string */\n      dup1\n        /* \"contracts/ddddd.sol\":7713:7719  string */\n      0x60\n        /* \"contracts/ddddd.sol\":7721:7728  address */\n      0x0\n        /* \"contracts/ddddd.sol\":7793:7798  var u */\n      dup1\n        /* \"contracts/ddddd.sol\":7749:7759  isApproved */\n      0x7\n        /* \"contracts/ddddd.sol\":7749:7769  isApproved[_address] */\n      0x0\n        /* \"contracts/ddddd.sol\":7760:7768  _address */\n      dup12\n        /* \"contracts/ddddd.sol\":7749:7769  isApproved[_address] */\n      0xffffffffffffffffffffffffffffffffffffffff\n      and\n      0xffffffffffffffffffffffffffffffffffffffff\n      and\n      dup2\n      mstore\n      0x20\n      add\n      swap1\n      dup2\n      mstore\n      0x20\n      add\n      0x0\n      keccak256\n        /* \"contracts/ddddd.sol\":7749:7781  isApproved[_address][msg.sender] */\n      0x0\n        /* \"contracts/ddddd.sol\":7770:7780  msg.sender */\n      caller\n        /* \"contracts/ddddd.sol\":7749:7781  isApproved[_address][msg.sender] */\n      0xffffffffffffffffffffffffffffffffffffffff\n      and\n      0xffffffffffffffffffffffffffffffffffffffff\n      and\n      dup2\n      mstore\n      0x20\n      add\n      swap1\n      dup2\n      mstore\n      0x20\n      add\n      0x0\n      keccak256\n      0x0\n      swap1\n      sload\n      swap1\n      0x100\n      exp\n      swap1\n      div\n      0xff\n      and\n        /* \"contracts/ddddd.sol\":7741:7782  require(isApproved[_address][msg.sender]) */\n      iszero\n      iszero\n      tag_182\n      jumpi\n      0x0\n      dup1\n      revert\n    tag_182:\n        /* \"contracts/ddddd.sol\":7801:7805  user */\n      0x4\n        /* \"contracts/ddddd.sol\":7801:7815  user[_address] */\n      0x0\n        /* \"contracts/ddddd.sol\":7806:7814  _address */\n      dup12\n        /* \"contracts/ddddd.sol\":7801:7815  user[_address] */\n      0xffffffffffffffffffffffffffffffffffffffff\n      and\n      0xffffffffffffffffffffffffffffffffffffffff\n      and\n      dup2\n      mstore\n      0x20\n      add\n      swap1\n      dup2\n      mstore\n      0x20\n      add\n      0x0\n      keccak256\n        /* \"contracts/ddddd.sol\":7793:7815  var u = user[_address] */\n      swap1\n      pop\n        /* \"contracts/ddddd.sol\":7834:7835  u */\n      dup1\n        /* \"contracts/ddddd.sol\":7834:7841  u.uaeId */\n      0x0\n      add\n        /* \"contracts/ddddd.sol\":7843:7844  u */\n      dup2\n        /* \"contracts/ddddd.sol\":7843:7849  u.name */\n      0x1\n      add\n        /* \"contracts/ddddd.sol\":7851:7852  u */\n      dup3\n        /* \"contracts/ddddd.sol\":7851:7858  u.email */\n      0x6\n      add\n        /* \"contracts/ddddd.sol\":7860:7861  u */\n      dup4\n        /* \"contracts/ddddd.sol\":7860:7867  u.phone */\n      0x2\n      add\n        /* \"contracts/ddddd.sol\":7869:7870  u */\n      dup5\n        /* \"contracts/ddddd.sol\":7869:7877  u.gender */\n      0x3\n      add\n        /* \"contracts/ddddd.sol\":7879:7880  u */\n      dup6\n        /* \"contracts/ddddd.sol\":7879:7884  u.dob */\n      0x4\n      add\n        /* \"contracts/ddddd.sol\":7886:7887  u */\n      dup7\n        /* \"contracts/ddddd.sol\":7886:7892  u.addr */\n      0x5\n      add\n        /* \"contracts/ddddd.sol\":7894:7895  u */\n      dup8\n        /* \"contracts/ddddd.sol\":7894:7904  u.eAddress */\n      0x9\n      add\n      0x0\n      swap1\n      sload\n      swap1\n      0x100\n      exp\n      swap1\n      div\n      0xffffffffffffffffffffffffffffffffffffffff\n      and\n        /* \"contracts/ddddd.sol\":7826:7905  return (u.uaeId, u.name, u.email, u.phone, u.gender, u.dob, u.addr, u.eAddress) */\n      dup8\n      dup1\n      sload\n      0x1\n      dup2\n      0x1\n      and\n      iszero\n      0x100\n      mul\n      sub\n      and\n      0x2\n      swap1\n      div\n      dup1\n      0x1f\n      add\n      0x20\n      dup1\n      swap2\n      div\n      mul\n      0x20\n      add\n      mload(0x40)\n      swap1\n      dup2\n      add\n      0x40\n      mstore\n      dup1\n      swap3\n      swap2\n      swap1\n      dup2\n      dup2\n      mstore\n      0x20\n      add\n      dup3\n      dup1\n      sload\n      0x1\n      dup2\n      0x1\n      and\n      iszero\n      0x100\n      mul\n      sub\n      and\n      0x2\n      swap1\n      div\n      dup1\n      iszero\n      tag_183\n      jumpi\n      dup1\n      0x1f\n      lt\n      tag_184\n      jumpi\n      0x100\n      dup1\n      dup4\n      sload\n      div\n      mul\n      dup4\n      mstore\n      swap2\n      0x20\n      add\n      swap2\n      jump(tag_183)\n    tag_184:\n      dup3\n      add\n      swap2\n      swap1\n      0x0\n      mstore\n      keccak256(0x0, 0x20)\n      swap1\n    tag_185:\n      dup2\n      sload\n      dup2\n      mstore\n      swap1\n      0x1\n      add\n      swap1\n      0x20\n      add\n      dup1\n      dup4\n      gt\n      tag_185\n      jumpi\n      dup3\n      swap1\n      sub\n      0x1f\n      and\n      dup3\n      add\n      swap2\n    tag_183:\n      pop\n      pop\n      pop\n      pop\n      pop\n      swap8\n      pop\n      dup7\n      dup1\n      sload\n      0x1\n      dup2\n      0x1\n      and\n      iszero\n      0x100\n      mul\n      sub\n      and\n      0x2\n      swap1\n      div\n      dup1\n      0x1f\n      add\n      0x20\n      dup1\n      swap2\n      div\n      mul\n      0x20\n      add\n      mload(0x40)\n      swap1\n      dup2\n      add\n      0x40\n      mstore\n      dup1\n      swap3\n      swap2\n      swap1\n      dup2\n      dup2\n      mstore\n      0x20\n      add\n      dup3\n      dup1\n      sload\n      0x1\n      dup2\n      0x1\n      and\n      iszero\n      0x100\n      mul\n      sub\n      and\n      0x2\n      swap1\n      div\n      dup1\n      iszero\n      tag_186\n      jumpi\n      dup1\n      0x1f\n      lt\n      tag_187\n      jumpi\n      0x100\n      dup1\n      dup4\n      sload\n      div\n      mul\n      dup4\n      mstore\n      swap2\n      0x20\n      add\n      swap2\n      jump(tag_186)\n    tag_187:\n      dup3\n      add\n      swap2\n      swap1\n      0x0\n      mstore\n      keccak256(0x0, 0x20)\n      swap1\n    tag_188:\n      dup2\n      sload\n      dup2\n      mstore\n      swap1\n      0x1\n      add\n      swap1\n      0x20\n      add\n      dup1\n      dup4\n      gt\n      tag_188\n      jumpi\n      dup3\n      swap1\n      sub\n      0x1f\n      and\n      dup3\n      add\n      swap2\n    tag_186:\n      pop\n      pop\n      pop\n      pop\n      pop\n      swap7\n      pop\n      dup6\n      dup1\n      sload\n      0x1\n      dup2\n      0x1\n      and\n      iszero\n      0x100\n      mul\n      sub\n      and\n      0x2\n      swap1\n      div\n      dup1\n      0x1f\n      add\n      0x20\n      dup1\n      swap2\n      div\n      mul\n      0x20\n      add\n      mload(0x40)\n      swap1\n      dup2\n      add\n      0x40\n      mstore\n      dup1\n      swap3\n      swap2\n      swap1\n      dup2\n      dup2\n      mstore\n      0x20\n      add\n      dup3\n      dup1\n      sload\n      0x1\n      dup2\n      0x1\n      and\n      iszero\n      0x100\n      mul\n      sub\n      and\n      0x2\n      swap1\n      div\n      dup1\n      iszero\n      tag_189\n      jumpi\n      dup1\n      0x1f\n      lt\n      tag_190\n      jumpi\n      0x100\n      dup1\n      dup4\n      sload\n      div\n      mul\n      dup4\n      mstore\n      swap2\n      0x20\n      add\n      swap2\n      jump(tag_189)\n    tag_190:\n      dup3\n      add\n      swap2\n      swap1\n      0x0\n      mstore\n      keccak256(0x0, 0x20)\n      swap1\n    tag_191:\n      dup2\n      sload\n      dup2\n      mstore\n      swap1\n      0x1\n      add\n      swap1\n      0x20\n      add\n      dup1\n      dup4\n      gt\n      tag_191\n      jumpi\n      dup3\n      swap1\n      sub\n      0x1f\n      and\n      dup3\n      add\n      swap2\n    tag_189:\n      pop\n      pop\n      pop\n      pop\n      pop\n      swap6\n      pop\n      dup5\n      dup1\n      sload\n      0x1\n      dup2\n      0x1\n      and\n      iszero\n      0x100\n      mul\n      sub\n      and\n      0x2\n      swap1\n      div\n      dup1\n      0x1f\n      add\n      0x20\n      dup1\n      swap2\n      div\n      mul\n      0x20\n      add\n      mload(0x40)\n      swap1\n      dup2\n      add\n      0x40\n      mstore\n      dup1\n      swap3\n      swap2\n      swap1\n      dup2\n      dup2\n      mstore\n      0x20\n      add\n      dup3\n      dup1\n      sload\n      0x1\n      dup2\n      0x1\n      and\n      iszero\n      0x100\n      mul\n      sub\n      and\n      0x2\n      swap1\n      div\n      dup1\n      iszero\n      tag_192\n      jumpi\n      dup1\n      0x1f\n      lt\n      tag_193\n      jumpi\n      0x100\n      dup1\n      dup4\n      sload\n      div\n      mul\n      dup4\n      mstore\n      swap2\n      0x20\n      add\n      swap2\n      jump(tag_192)\n    tag_193:\n      dup3\n      add\n      swap2\n      swap1\n      0x0\n      mstore\n      keccak256(0x0, 0x20)\n      swap1\n    tag_194:\n      dup2\n      sload\n      dup2\n      mstore\n      swap1\n      0x1\n      add\n      swap1\n      0x20\n      add\n      dup1\n      dup4\n      gt\n      tag_194\n      jumpi\n      dup3\n      swap1\n      sub\n      0x1f\n      and\n      dup3\n      add\n      swap2\n    tag_192:\n      pop\n      pop\n      pop\n      pop\n      pop\n      swap5\n      pop\n      dup4\n      dup1\n      sload\n      0x1\n      dup2\n      0x1\n      and\n      iszero\n      0x100\n      mul\n      sub\n      and\n      0x2\n      swap1\n      div\n      dup1\n      0x1f\n      add\n      0x20\n      dup1\n      swap2\n      div\n      mul\n      0x20\n      add\n      mload(0x40)\n      swap1\n      dup2\n      add\n      0x40\n      mstore\n      dup1\n      swap3\n      swap2\n      swap1\n      dup2\n      dup2\n      mstore\n      0x20\n      add\n      dup3\n      dup1\n      sload\n      0x1\n      dup2\n      0x1\n      and\n      iszero\n      0x100\n      mul\n      sub\n      and\n      0x2\n      swap1\n      div\n      dup1\n      iszero\n      tag_195\n      jumpi\n      dup1\n      0x1f\n      lt\n      tag_196\n      jumpi\n      0x100\n      dup1\n      dup4\n      sload\n      div\n      mul\n      dup4\n      mstore\n      swap2\n      0x20\n      add\n      swap2\n      jump(tag_195)\n    tag_196:\n      dup3\n      add\n      swap2\n      swap1\n      0x0\n      mstore\n      keccak256(0x0, 0x20)\n      swap1\n    tag_197:\n      dup2\n      sload\n      dup2\n      mstore\n      swap1\n      0x1\n      add\n      swap1\n      0x20\n      add\n      dup1\n      dup4\n      gt\n      tag_197\n      jumpi\n      dup3\n      swap1\n      sub\n      0x1f\n      and\n      dup3\n      add\n      swap2\n    tag_195:\n      pop\n      pop\n      pop\n      pop\n      pop\n      swap4\n      pop\n      dup3\n      dup1\n      sload\n      0x1\n      dup2\n      0x1\n      and\n      iszero\n      0x100\n      mul\n      sub\n      and\n      0x2\n      swap1\n      div\n      dup1\n      0x1f\n      add\n      0x20\n      dup1\n      swap2\n      div\n      mul\n      0x20\n      add\n      mload(0x40)\n      swap1\n      dup2\n      add\n      0x40\n      mstore\n      dup1\n      swap3\n      swap2\n      swap1\n      dup2\n      dup2\n      mstore\n      0x20\n      add\n      dup3\n      dup1\n      sload\n      0x1\n      dup2\n      0x1\n      and\n      iszero\n      0x100\n      mul\n      sub\n      and\n      0x2\n      swap1\n      div\n      dup1\n      iszero\n      tag_198\n      jumpi\n      dup1\n      0x1f\n      lt\n      tag_199\n      jumpi\n      0x100\n      dup1\n      dup4\n      sload\n      div\n      mul\n      dup4\n      mstore\n      swap2\n      0x20\n      add\n      swap2\n      jump(tag_198)\n    tag_199:\n      dup3\n      add\n      swap2\n      swap1\n      0x0\n      mstore\n      keccak256(0x0, 0x20)\n      swap1\n    tag_200:\n      dup2\n      sload\n      dup2\n      mstore\n      swap1\n      0x1\n      add\n      swap1\n      0x20\n      add\n      dup1\n      dup4\n      gt\n      tag_200\n      jumpi\n      dup3\n      swap1\n      sub\n      0x1f\n      and\n      dup3\n      add\n      swap2\n    tag_198:\n      pop\n      pop\n      pop\n      pop\n      pop\n      swap3\n      pop\n      dup2\n      dup1\n      sload\n      0x1\n      dup2\n      0x1\n      and\n      iszero\n      0x100\n      mul\n      sub\n      and\n      0x2\n      swap1\n      div\n      dup1\n      0x1f\n      add\n      0x20\n      dup1\n      swap2\n      div\n      mul\n      0x20\n      add\n      mload(0x40)\n      swap1\n      dup2\n      add\n      0x40\n      mstore\n      dup1\n      swap3\n      swap2\n      swap1\n      dup2\n      dup2\n      mstore\n      0x20\n      add\n      dup3\n      dup1\n      sload\n      0x1\n      dup2\n      0x1\n      and\n      iszero\n      0x100\n      mul\n      sub\n      and\n      0x2\n      swap1\n      div\n      dup1\n      iszero\n      tag_201\n      jumpi\n      dup1\n      0x1f\n      lt\n      tag_202\n      jumpi\n      0x100\n      dup1\n      dup4\n      sload\n      div\n      mul\n      dup4\n      mstore\n      swap2\n      0x20\n      add\n      swap2\n      jump(tag_201)\n    tag_202:\n      dup3\n      add\n      swap2\n      swap1\n      0x0\n      mstore\n      keccak256(0x0, 0x20)\n      swap1\n    tag_203:\n      dup2\n      sload\n      dup2\n      mstore\n      swap1\n      0x1\n      add\n      swap1\n      0x20\n      add\n      dup1\n      dup4\n      gt\n      tag_203\n      jumpi\n      dup3\n      swap1\n      sub\n      0x1f\n      and\n      dup3\n      add\n      swap2\n    tag_201:\n      pop\n      pop\n      pop\n      pop\n      pop\n      swap2\n      pop\n      swap9\n      pop\n      swap9\n      pop\n      swap9\n      pop\n      swap9\n      pop\n      swap9\n      pop\n      swap9\n      pop\n      swap9\n      pop\n      swap9\n      pop\n        /* \"contracts/ddddd.sol\":7598:7972  function searchUserformation(address _address) public view returns(string, string, string, string, string, string, string, address) {\r... */\n      pop\n      swap2\n      swap4\n      swap6\n      swap8\n      pop\n      swap2\n      swap4\n      swap6\n      swap8\n      jump\t// out\n        /* \"contracts/ddddd.sol\":1633:1661  uint256 public userCount = 0 */\n    tag_51:\n      sload(0xb)\n      dup2\n      jump\t// out\n        /* \"contracts/ddddd.sol\":1095:1122  address[] public doctorList */\n    tag_57:\n      0x2\n      dup2\n      dup2\n      sload\n      dup2\n      lt\n      iszero\n      iszero\n      tag_204\n      jumpi\n      invalid\n    tag_204:\n      swap1\n      0x0\n      mstore\n      keccak256(0x0, 0x20)\n      add\n      0x0\n      swap2\n      pop\n      sload\n      swap1\n      0x100\n      exp\n      swap1\n      div\n      0xffffffffffffffffffffffffffffffffffffffff\n      and\n      dup2\n      jump\t// out\n        /* \"contracts/ddddd.sol\":4700:5225  function editDoctor(address _doctor, string _uaeId, string _name, string _phone, string _gender, string _email, string _qualification, string _major) public {\r... */\n    tag_64:\n        /* \"contracts/ddddd.sol\":4948:4953  var d */\n      0x0\n        /* \"contracts/ddddd.sol\":4890:4899  mohAdress */\n      0x10\n      0x0\n      swap1\n      sload\n      swap1\n      0x100\n      exp\n      swap1\n      div\n      0xffffffffffffffffffffffffffffffffffffffff\n      and\n        /* \"contracts/ddddd.sol\":4876:4899  msg.sender == mohAdress */\n      0xffffffffffffffffffffffffffffffffffffffff\n      and\n        /* \"contracts/ddddd.sol\":4876:4886  msg.sender */\n      caller\n        /* \"contracts/ddddd.sol\":4876:4899  msg.sender == mohAdress */\n      0xffffffffffffffffffffffffffffffffffffffff\n      and\n      eq\n        /* \"contracts/ddddd.sol\":4868:4900  require(msg.sender == mohAdress) */\n      iszero\n      iszero\n      tag_207\n      jumpi\n      0x0\n      dup1\n      revert\n    tag_207:\n        /* \"contracts/ddddd.sol\":4919:4927  isDoctor */\n      0x9\n        /* \"contracts/ddddd.sol\":4919:4936  isDoctor[_doctor] */\n      0x0\n        /* \"contracts/ddddd.sol\":4928:4935  _doctor */\n      dup11\n        /* \"contracts/ddddd.sol\":4919:4936  isDoctor[_doctor] */\n      0xffffffffffffffffffffffffffffffffffffffff\n      and\n      0xffffffffffffffffffffffffffffffffffffffff\n      and\n      dup2\n      mstore\n      0x20\n      add\n      swap1\n      dup2\n      mstore\n      0x20\n      add\n      0x0\n      keccak256\n      0x0\n      swap1\n      sload\n      swap1\n      0x100\n      exp\n      swap1\n      div\n      0xff\n      and\n        /* \"contracts/ddddd.sol\":4911:4937  require(isDoctor[_doctor]) */\n      iszero\n      iszero\n      tag_208\n      jumpi\n      0x0\n      dup1\n      revert\n    tag_208:\n        /* \"contracts/ddddd.sol\":4956:4962  doctor */\n      0x5\n        /* \"contracts/ddddd.sol\":4956:4971  doctor[_doctor] */\n      0x0\n        /* \"contracts/ddddd.sol\":4963:4970  _doctor */\n      dup11\n        /* \"contracts/ddddd.sol\":4956:4971  doctor[_doctor] */\n      0xffffffffffffffffffffffffffffffffffffffff\n      and\n      0xffffffffffffffffffffffffffffffffffffffff\n      and\n      dup2\n      mstore\n      0x20\n      add\n      swap1\n      dup2\n      mstore\n      0x20\n      add\n      0x0\n      keccak256\n        /* \"contracts/ddddd.sol\":4948:4971  var d = doctor[_doctor] */\n      swap1\n      pop\n        /* \"contracts/ddddd.sol\":5002:5008  _uaeId */\n      dup8\n        /* \"contracts/ddddd.sol\":4992:4993  d */\n      dup2\n        /* \"contracts/ddddd.sol\":4992:4999  d.uaeId */\n      0x0\n      add\n        /* \"contracts/ddddd.sol\":4992:5008  d.uaeId = _uaeId */\n      swap1\n      dup1\n      mload\n      swap1\n      0x20\n      add\n      swap1\n      tag_209\n      swap3\n      swap2\n      swap1\n      jump\t// in(tag_210)\n    tag_209:\n      pop\n        /* \"contracts/ddddd.sol\":5028:5033  _name */\n      dup7\n        /* \"contracts/ddddd.sol\":5019:5020  d */\n      dup2\n        /* \"contracts/ddddd.sol\":5019:5025  d.name */\n      0x1\n      add\n        /* \"contracts/ddddd.sol\":5019:5033  d.name = _name */\n      swap1\n      dup1\n      mload\n      swap1\n      0x20\n      add\n      swap1\n      tag_211\n      swap3\n      swap2\n      swap1\n      jump\t// in(tag_210)\n    tag_211:\n      pop\n        /* \"contracts/ddddd.sol\":5054:5060  _phone */\n      dup6\n        /* \"contracts/ddddd.sol\":5044:5045  d */\n      dup2\n        /* \"contracts/ddddd.sol\":5044:5051  d.phone */\n      0x2\n      add\n        /* \"contracts/ddddd.sol\":5044:5060  d.phone = _phone */\n      swap1\n      dup1\n      mload\n      swap1\n      0x20\n      add\n      swap1\n      tag_212\n      swap3\n      swap2\n      swap1\n      jump\t// in(tag_210)\n    tag_212:\n      pop\n        /* \"contracts/ddddd.sol\":5082:5089  _gender */\n      dup5\n        /* \"contracts/ddddd.sol\":5071:5072  d */\n      dup2\n        /* \"contracts/ddddd.sol\":5071:5079  d.gender */\n      0x3\n      add\n        /* \"contracts/ddddd.sol\":5071:5089  d.gender = _gender */\n      swap1\n      dup1\n      mload\n      swap1\n      0x20\n      add\n      swap1\n      tag_213\n      swap3\n      swap2\n      swap1\n      jump\t// in(tag_210)\n    tag_213:\n      pop\n        /* \"contracts/ddddd.sol\":5110:5116  _email */\n      dup4\n        /* \"contracts/ddddd.sol\":5100:5101  d */\n      dup2\n        /* \"contracts/ddddd.sol\":5100:5107  d.email */\n      0x5\n      add\n        /* \"contracts/ddddd.sol\":5100:5116  d.email = _email */\n      swap1\n      dup1\n      mload\n      swap1\n      0x20\n      add\n      swap1\n      tag_214\n      swap3\n      swap2\n      swap1\n      jump\t// in(tag_210)\n    tag_214:\n      pop\n        /* \"contracts/ddddd.sol\":5145:5159  _qualification */\n      dup3\n        /* \"contracts/ddddd.sol\":5127:5128  d */\n      dup2\n        /* \"contracts/ddddd.sol\":5127:5142  d.qualification */\n      0x6\n      add\n        /* \"contracts/ddddd.sol\":5127:5159  d.qualification = _qualification */\n      swap1\n      dup1\n      mload\n      swap1\n      0x20\n      add\n      swap1\n      tag_215\n      swap3\n      swap2\n      swap1\n      jump\t// in(tag_210)\n    tag_215:\n      pop\n        /* \"contracts/ddddd.sol\":5180:5186  _major */\n      dup2\n        /* \"contracts/ddddd.sol\":5170:5171  d */\n      dup2\n        /* \"contracts/ddddd.sol\":5170:5177  d.major */\n      0x7\n      add\n        /* \"contracts/ddddd.sol\":5170:5186  d.major = _major */\n      swap1\n      dup1\n      mload\n      swap1\n      0x20\n      add\n      swap1\n      tag_216\n      swap3\n      swap2\n      swap1\n      jump\t// in(tag_210)\n    tag_216:\n      pop\n        /* \"contracts/ddddd.sol\":5210:5217  _doctor */\n      dup9\n        /* \"contracts/ddddd.sol\":5197:5198  d */\n      dup2\n        /* \"contracts/ddddd.sol\":5197:5207  d.eAddress */\n      0x8\n      add\n      0x0\n        /* \"contracts/ddddd.sol\":5197:5217  d.eAddress = _doctor */\n      0x100\n      exp\n      dup2\n      sload\n      dup2\n      0xffffffffffffffffffffffffffffffffffffffff\n      mul\n      not\n      and\n      swap1\n      dup4\n      0xffffffffffffffffffffffffffffffffffffffff\n      and\n      mul\n      or\n      swap1\n      sstore\n      pop\n        /* \"contracts/ddddd.sol\":4700:5225  function editDoctor(address _doctor, string _uaeId, string _name, string _phone, string _gender, string _email, string _qualification, string _major) public {\r... */\n      pop\n      pop\n      pop\n      pop\n      pop\n      pop\n      pop\n      pop\n      pop\n      jump\t// out\n        /* \"contracts/ddddd.sol\":3925:4692  function doctorRegistration(address _doctor, string _uaeId, string _name, string _phone, string _gender, string _email, string _qualification, string _major) public {\r... */\n    tag_68:\n        /* \"contracts/ddddd.sol\":4182:4187  var d */\n      0x0\n        /* \"contracts/ddddd.sol\":4123:4132  mohAdress */\n      0x10\n      0x0\n      swap1\n      sload\n      swap1\n      0x100\n      exp\n      swap1\n      div\n      0xffffffffffffffffffffffffffffffffffffffff\n      and\n        /* \"contracts/ddddd.sol\":4109:4132  msg.sender == mohAdress */\n      0xffffffffffffffffffffffffffffffffffffffff\n      and\n        /* \"contracts/ddddd.sol\":4109:4119  msg.sender */\n      caller\n        /* \"contracts/ddddd.sol\":4109:4132  msg.sender == mohAdress */\n      0xffffffffffffffffffffffffffffffffffffffff\n      and\n      eq\n        /* \"contracts/ddddd.sol\":4101:4133  require(msg.sender == mohAdress) */\n      iszero\n      iszero\n      tag_218\n      jumpi\n      0x0\n      dup1\n      revert\n    tag_218:\n        /* \"contracts/ddddd.sol\":4153:4161  isDoctor */\n      0x9\n        /* \"contracts/ddddd.sol\":4153:4170  isDoctor[_doctor] */\n      0x0\n        /* \"contracts/ddddd.sol\":4162:4169  _doctor */\n      dup11\n        /* \"contracts/ddddd.sol\":4153:4170  isDoctor[_doctor] */\n      0xffffffffffffffffffffffffffffffffffffffff\n      and\n      0xffffffffffffffffffffffffffffffffffffffff\n      and\n      dup2\n      mstore\n      0x20\n      add\n      swap1\n      dup2\n      mstore\n      0x20\n      add\n      0x0\n      keccak256\n      0x0\n      swap1\n      sload\n      swap1\n      0x100\n      exp\n      swap1\n      div\n      0xff\n      and\n        /* \"contracts/ddddd.sol\":4152:4170  !isDoctor[_doctor] */\n      iszero\n        /* \"contracts/ddddd.sol\":4144:4171  require(!isDoctor[_doctor]) */\n      iszero\n      iszero\n      tag_219\n      jumpi\n      0x0\n      dup1\n      revert\n    tag_219:\n        /* \"contracts/ddddd.sol\":4190:4196  doctor */\n      0x5\n        /* \"contracts/ddddd.sol\":4190:4205  doctor[_doctor] */\n      0x0\n        /* \"contracts/ddddd.sol\":4197:4204  _doctor */\n      dup11\n        /* \"contracts/ddddd.sol\":4190:4205  doctor[_doctor] */\n      0xffffffffffffffffffffffffffffffffffffffff\n      and\n      0xffffffffffffffffffffffffffffffffffffffff\n      and\n      dup2\n      mstore\n      0x20\n      add\n      swap1\n      dup2\n      mstore\n      0x20\n      add\n      0x0\n      keccak256\n        /* \"contracts/ddddd.sol\":4182:4205  var d = doctor[_doctor] */\n      swap1\n      pop\n        /* \"contracts/ddddd.sol\":4236:4242  _uaeId */\n      dup8\n        /* \"contracts/ddddd.sol\":4226:4227  d */\n      dup2\n        /* \"contracts/ddddd.sol\":4226:4233  d.uaeId */\n      0x0\n      add\n        /* \"contracts/ddddd.sol\":4226:4242  d.uaeId = _uaeId */\n      swap1\n      dup1\n      mload\n      swap1\n      0x20\n      add\n      swap1\n      tag_220\n      swap3\n      swap2\n      swap1\n      jump\t// in(tag_210)\n    tag_220:\n      pop\n        /* \"contracts/ddddd.sol\":4262:4267  _name */\n      dup7\n        /* \"contracts/ddddd.sol\":4253:4254  d */\n      dup2\n        /* \"contracts/ddddd.sol\":4253:4259  d.name */\n      0x1\n      add\n        /* \"contracts/ddddd.sol\":4253:4267  d.name = _name */\n      swap1\n      dup1\n      mload\n      swap1\n      0x20\n      add\n      swap1\n      tag_221\n      swap3\n      swap2\n      swap1\n      jump\t// in(tag_210)\n    tag_221:\n      pop\n        /* \"contracts/ddddd.sol\":4288:4294  _phone */\n      dup6\n        /* \"contracts/ddddd.sol\":4278:4279  d */\n      dup2\n        /* \"contracts/ddddd.sol\":4278:4285  d.phone */\n      0x2\n      add\n        /* \"contracts/ddddd.sol\":4278:4294  d.phone = _phone */\n      swap1\n      dup1\n      mload\n      swap1\n      0x20\n      add\n      swap1\n      tag_222\n      swap3\n      swap2\n      swap1\n      jump\t// in(tag_210)\n    tag_222:\n      pop\n        /* \"contracts/ddddd.sol\":4316:4323  _gender */\n      dup5\n        /* \"contracts/ddddd.sol\":4305:4306  d */\n      dup2\n        /* \"contracts/ddddd.sol\":4305:4313  d.gender */\n      0x3\n      add\n        /* \"contracts/ddddd.sol\":4305:4323  d.gender = _gender */\n      swap1\n      dup1\n      mload\n      swap1\n      0x20\n      add\n      swap1\n      tag_223\n      swap3\n      swap2\n      swap1\n      jump\t// in(tag_210)\n    tag_223:\n      pop\n        /* \"contracts/ddddd.sol\":4344:4350  _email */\n      dup4\n        /* \"contracts/ddddd.sol\":4334:4335  d */\n      dup2\n        /* \"contracts/ddddd.sol\":4334:4341  d.email */\n      0x5\n      add\n        /* \"contracts/ddddd.sol\":4334:4350  d.email = _email */\n      swap1\n      dup1\n      mload\n      swap1\n      0x20\n      add\n      swap1\n      tag_224\n      swap3\n      swap2\n      swap1\n      jump\t// in(tag_210)\n    tag_224:\n      pop\n        /* \"contracts/ddddd.sol\":4379:4393  _qualification */\n      dup3\n        /* \"contracts/ddddd.sol\":4361:4362  d */\n      dup2\n        /* \"contracts/ddddd.sol\":4361:4376  d.qualification */\n      0x6\n      add\n        /* \"contracts/ddddd.sol\":4361:4393  d.qualification = _qualification */\n      swap1\n      dup1\n      mload\n      swap1\n      0x20\n      add\n      swap1\n      tag_225\n      swap3\n      swap2\n      swap1\n      jump\t// in(tag_210)\n    tag_225:\n      pop\n        /* \"contracts/ddddd.sol\":4414:4420  _major */\n      dup2\n        /* \"contracts/ddddd.sol\":4404:4405  d */\n      dup2\n        /* \"contracts/ddddd.sol\":4404:4411  d.major */\n      0x7\n      add\n        /* \"contracts/ddddd.sol\":4404:4420  d.major = _major */\n      swap1\n      dup1\n      mload\n      swap1\n      0x20\n      add\n      swap1\n      tag_226\n      swap3\n      swap2\n      swap1\n      jump\t// in(tag_210)\n    tag_226:\n      pop\n        /* \"contracts/ddddd.sol\":4444:4451  _doctor */\n      dup9\n        /* \"contracts/ddddd.sol\":4431:4432  d */\n      dup2\n        /* \"contracts/ddddd.sol\":4431:4441  d.eAddress */\n      0x8\n      add\n      0x0\n        /* \"contracts/ddddd.sol\":4431:4451  d.eAddress = _doctor */\n      0x100\n      exp\n      dup2\n      sload\n      dup2\n      0xffffffffffffffffffffffffffffffffffffffff\n      mul\n      not\n      and\n      swap1\n      dup4\n      0xffffffffffffffffffffffffffffffffffffffff\n      and\n      mul\n      or\n      swap1\n      sstore\n      pop\n        /* \"contracts/ddddd.sol\":4471:4486  block.timestamp */\n      timestamp\n        /* \"contracts/ddddd.sol\":4462:4463  d */\n      dup2\n        /* \"contracts/ddddd.sol\":4462:4468  d.date */\n      0x9\n      add\n        /* \"contracts/ddddd.sol\":4462:4486  d.date = block.timestamp */\n      dup2\n      swap1\n      sstore\n      pop\n        /* \"contracts/ddddd.sol\":4507:4517  doctorList */\n      0x2\n        /* \"contracts/ddddd.sol\":4523:4530  _doctor */\n      dup10\n        /* \"contracts/ddddd.sol\":4507:4531  doctorList.push(_doctor) */\n      swap1\n      dup1\n        /* \"--CODEGEN--\":39:40   */\n      0x1\n        /* \"--CODEGEN--\":33:36   */\n      dup2\n        /* \"--CODEGEN--\":27:37   */\n      sload\n        /* \"--CODEGEN--\":23:41   */\n      add\n        /* \"--CODEGEN--\":57:67   */\n      dup1\n        /* \"--CODEGEN--\":52:55   */\n      dup3\n        /* \"--CODEGEN--\":45:68   */\n      sstore\n        /* \"--CODEGEN--\":79:89   */\n      dup1\n        /* \"--CODEGEN--\":72:89   */\n      swap2\n      pop\n        /* \"--CODEGEN--\":0:93   */\n      pop\n        /* \"contracts/ddddd.sol\":4507:4531  doctorList.push(_doctor) */\n      swap1\n      0x1\n      dup3\n      sub\n      swap1\n      0x0\n      mstore\n      keccak256(0x0, 0x20)\n      add\n      0x0\n      swap1\n      swap2\n      swap3\n      swap1\n      swap2\n      swap1\n      swap2\n      0x100\n      exp\n      dup2\n      sload\n      dup2\n      0xffffffffffffffffffffffffffffffffffffffff\n      mul\n      not\n      and\n      swap1\n      dup4\n      0xffffffffffffffffffffffffffffffffffffffff\n      and\n      mul\n      or\n      swap1\n      sstore\n      pop\n      pop\n        /* \"contracts/ddddd.sol\":4562:4566  true */\n      0x1\n        /* \"contracts/ddddd.sol\":4542:4550  isDoctor */\n      0x9\n        /* \"contracts/ddddd.sol\":4542:4559  isDoctor[_doctor] */\n      0x0\n        /* \"contracts/ddddd.sol\":4551:4558  _doctor */\n      dup12\n        /* \"contracts/ddddd.sol\":4542:4559  isDoctor[_doctor] */\n      0xffffffffffffffffffffffffffffffffffffffff\n      and\n      0xffffffffffffffffffffffffffffffffffffffff\n      and\n      dup2\n      mstore\n      0x20\n      add\n      swap1\n      dup2\n      mstore\n      0x20\n      add\n      0x0\n      keccak256\n      0x0\n        /* \"contracts/ddddd.sol\":4542:4566  isDoctor[_doctor] = true */\n      0x100\n      exp\n      dup2\n      sload\n      dup2\n      0xff\n      mul\n      not\n      and\n      swap1\n      dup4\n      iszero\n      iszero\n      mul\n      or\n      swap1\n      sstore\n      pop\n        /* \"contracts/ddddd.sol\":4608:4612  true */\n      0x1\n        /* \"contracts/ddddd.sol\":4577:4587  isApproved */\n      0x7\n        /* \"contracts/ddddd.sol\":4577:4596  isApproved[_doctor] */\n      0x0\n        /* \"contracts/ddddd.sol\":4588:4595  _doctor */\n      dup12\n        /* \"contracts/ddddd.sol\":4577:4596  isApproved[_doctor] */\n      0xffffffffffffffffffffffffffffffffffffffff\n      and\n      0xffffffffffffffffffffffffffffffffffffffff\n      and\n      dup2\n      mstore\n      0x20\n      add\n      swap1\n      dup2\n      mstore\n      0x20\n      add\n      0x0\n      keccak256\n        /* \"contracts/ddddd.sol\":4577:4605  isApproved[_doctor][_doctor] */\n      0x0\n        /* \"contracts/ddddd.sol\":4597:4604  _doctor */\n      dup12\n        /* \"contracts/ddddd.sol\":4577:4605  isApproved[_doctor][_doctor] */\n      0xffffffffffffffffffffffffffffffffffffffff\n      and\n      0xffffffffffffffffffffffffffffffffffffffff\n      and\n      dup2\n      mstore\n      0x20\n      add\n      swap1\n      dup2\n      mstore\n      0x20\n      add\n      0x0\n      keccak256\n      0x0\n        /* \"contracts/ddddd.sol\":4577:4612  isApproved[_doctor][_doctor] = true */\n      0x100\n      exp\n      dup2\n      sload\n      dup2\n      0xff\n      mul\n      not\n      and\n      swap1\n      dup4\n      iszero\n      iszero\n      mul\n      or\n      swap1\n      sstore\n      pop\n        /* \"contracts/ddddd.sol\":4656:4660  true */\n      0x1\n        /* \"contracts/ddddd.sol\":4623:4633  isApproved */\n      0x7\n        /* \"contracts/ddddd.sol\":4623:4642  isApproved[_doctor] */\n      0x0\n        /* \"contracts/ddddd.sol\":4634:4641  _doctor */\n      dup12\n        /* \"contracts/ddddd.sol\":4623:4642  isApproved[_doctor] */\n      0xffffffffffffffffffffffffffffffffffffffff\n      and\n      0xffffffffffffffffffffffffffffffffffffffff\n      and\n      dup2\n      mstore\n      0x20\n      add\n      swap1\n      dup2\n      mstore\n      0x20\n      add\n      0x0\n      keccak256\n        /* \"contracts/ddddd.sol\":4623:4653  isApproved[_doctor][mohAdress] */\n      0x0\n        /* \"contracts/ddddd.sol\":4643:4652  mohAdress */\n      0x10\n      0x0\n      swap1\n      sload\n      swap1\n      0x100\n      exp\n      swap1\n      div\n      0xffffffffffffffffffffffffffffffffffffffff\n      and\n        /* \"contracts/ddddd.sol\":4623:4653  isApproved[_doctor][mohAdress] */\n      0xffffffffffffffffffffffffffffffffffffffff\n      and\n      0xffffffffffffffffffffffffffffffffffffffff\n      and\n      dup2\n      mstore\n      0x20\n      add\n      swap1\n      dup2\n      mstore\n      0x20\n      add\n      0x0\n      keccak256\n      0x0\n        /* \"contracts/ddddd.sol\":4623:4660  isApproved[_doctor][mohAdress] = true */\n      0x100\n      exp\n      dup2\n      sload\n      dup2\n      0xff\n      mul\n      not\n      and\n      swap1\n      dup4\n      iszero\n      iszero\n      mul\n      or\n      swap1\n      sstore\n      pop\n        /* \"contracts/ddddd.sol\":4671:4682  doctorCount */\n      0xc\n      0x0\n        /* \"contracts/ddddd.sol\":4671:4684  doctorCount++ */\n      dup2\n      sload\n      dup1\n      swap3\n      swap2\n      swap1\n      0x1\n      add\n      swap2\n      swap1\n      pop\n      sstore\n      pop\n        /* \"contracts/ddddd.sol\":3925:4692  function doctorRegistration(address _doctor, string _uaeId, string _name, string _phone, string _gender, string _email, string _qualification, string _major) public {\r... */\n      pop\n      pop\n      pop\n      pop\n      pop\n      pop\n      pop\n      pop\n      pop\n      jump\t// out\n        /* \"contracts/ddddd.sol\":1933:2163  function ownerAddress(address _admin) public view returns(bool) {\r... */\n    tag_72:\n        /* \"contracts/ddddd.sol\":1991:1995  bool */\n      0x0\n        /* \"contracts/ddddd.sol\":2008:2021  address admin */\n      dup1\n        /* \"contracts/ddddd.sol\":2024:2030  _admin */\n      dup3\n        /* \"contracts/ddddd.sol\":2008:2030  address admin = _admin */\n      swap1\n      pop\n        /* \"contracts/ddddd.sol\":2054:2063  mohAdress */\n      0x10\n      0x0\n      swap1\n      sload\n      swap1\n      0x100\n      exp\n      swap1\n      div\n      0xffffffffffffffffffffffffffffffffffffffff\n      and\n        /* \"contracts/ddddd.sol\":2045:2063  admin == mohAdress */\n      0xffffffffffffffffffffffffffffffffffffffff\n      and\n        /* \"contracts/ddddd.sol\":2045:2050  admin */\n      dup2\n        /* \"contracts/ddddd.sol\":2045:2063  admin == mohAdress */\n      0xffffffffffffffffffffffffffffffffffffffff\n      and\n      eq\n        /* \"contracts/ddddd.sol\":2041:2156  if (admin == mohAdress){\r... */\n      iszero\n      tag_229\n      jumpi\n        /* \"contracts/ddddd.sol\":2086:2090  true */\n      0x1\n        /* \"contracts/ddddd.sol\":2079:2090  return true */\n      swap2\n      pop\n      jump(tag_228)\n        /* \"contracts/ddddd.sol\":2041:2156  if (admin == mohAdress){\r... */\n    tag_229:\n        /* \"contracts/ddddd.sol\":2139:2144  false */\n      0x0\n        /* \"contracts/ddddd.sol\":2132:2144  return false */\n      swap2\n      pop\n        /* \"contracts/ddddd.sol\":1933:2163  function ownerAddress(address _admin) public view returns(bool) {\r... */\n    tag_228:\n      pop\n      swap2\n      swap1\n      pop\n      jump\t// out\n        /* \"contracts/ddddd.sol\":6545:6736  function givePermissionByUser(address _address) public returns(bool success) {\r... */\n    tag_78:\n        /* \"contracts/ddddd.sol\":6608:6620  bool success */\n      0x0\n        /* \"contracts/ddddd.sol\":6668:6672  true */\n      0x1\n        /* \"contracts/ddddd.sol\":6633:6643  isApproved */\n      0x7\n        /* \"contracts/ddddd.sol\":6633:6655  isApproved[msg.sender] */\n      0x0\n        /* \"contracts/ddddd.sol\":6644:6654  msg.sender */\n      caller\n        /* \"contracts/ddddd.sol\":6633:6655  isApproved[msg.sender] */\n      0xffffffffffffffffffffffffffffffffffffffff\n      and\n      0xffffffffffffffffffffffffffffffffffffffff\n      and\n      dup2\n      mstore\n      0x20\n      add\n      swap1\n      dup2\n      mstore\n      0x20\n      add\n      0x0\n      keccak256\n        /* \"contracts/ddddd.sol\":6633:6665  isApproved[msg.sender][_address] */\n      0x0\n        /* \"contracts/ddddd.sol\":6656:6664  _address */\n      dup5\n        /* \"contracts/ddddd.sol\":6633:6665  isApproved[msg.sender][_address] */\n      0xffffffffffffffffffffffffffffffffffffffff\n      and\n      0xffffffffffffffffffffffffffffffffffffffff\n      and\n      dup2\n      mstore\n      0x20\n      add\n      swap1\n      dup2\n      mstore\n      0x20\n      add\n      0x0\n      keccak256\n      0x0\n        /* \"contracts/ddddd.sol\":6633:6672  isApproved[msg.sender][_address] = true */\n      0x100\n      exp\n      dup2\n      sload\n      dup2\n      0xff\n      mul\n      not\n      and\n      swap1\n      dup4\n      iszero\n      iszero\n      mul\n      or\n      swap1\n      sstore\n      pop\n        /* \"contracts/ddddd.sol\":6683:6704  userPermissionCounter */\n      0xe\n      0x0\n        /* \"contracts/ddddd.sol\":6683:6706  userPermissionCounter++ */\n      dup2\n      sload\n      dup1\n      swap3\n      swap2\n      swap1\n      0x1\n      add\n      swap2\n      swap1\n      pop\n      sstore\n      pop\n        /* \"contracts/ddddd.sol\":6724:6728  true */\n      0x1\n        /* \"contracts/ddddd.sol\":6717:6728  return true */\n      swap1\n      pop\n        /* \"contracts/ddddd.sol\":6545:6736  function givePermissionByUser(address _address) public returns(bool success) {\r... */\n      swap2\n      swap1\n      pop\n      jump\t// out\n        /* \"contracts/ddddd.sol\":5233:6183  function createVaccineRecord(address _address1, address _doctor, string _name, string _vaccine, string _description, string _typeOfVaccine, uint _creationDate) public returns(bool success) {\r... */\n    tag_84:\n        /* \"contracts/ddddd.sol\":5408:5420  bool success */\n      0x0\n        /* \"contracts/ddddd.sol\":5695:5700  var v */\n      dup1\n        /* \"contracts/ddddd.sol\":5455:5464  mohAdress */\n      0x10\n      0x0\n      swap1\n      sload\n      swap1\n      0x100\n      exp\n      swap1\n      div\n      0xffffffffffffffffffffffffffffffffffffffff\n      and\n        /* \"contracts/ddddd.sol\":5441:5464  msg.sender == mohAdress */\n      0xffffffffffffffffffffffffffffffffffffffff\n      and\n        /* \"contracts/ddddd.sol\":5441:5451  msg.sender */\n      caller\n        /* \"contracts/ddddd.sol\":5441:5464  msg.sender == mohAdress */\n      0xffffffffffffffffffffffffffffffffffffffff\n      and\n      eq\n        /* \"contracts/ddddd.sol\":5433:5465  require(msg.sender == mohAdress) */\n      iszero\n      iszero\n      tag_233\n      jumpi\n      0x0\n      dup1\n      revert\n    tag_233:\n        /* \"contracts/ddddd.sol\":5638:5642  true */\n      0x1\n        /* \"contracts/ddddd.sol\":5604:5642  isApproved[mohAdress][_doctor] == true */\n      iszero\n      iszero\n        /* \"contracts/ddddd.sol\":5604:5614  isApproved */\n      0x7\n        /* \"contracts/ddddd.sol\":5604:5625  isApproved[mohAdress] */\n      0x0\n        /* \"contracts/ddddd.sol\":5615:5624  mohAdress */\n      0x10\n      0x0\n      swap1\n      sload\n      swap1\n      0x100\n      exp\n      swap1\n      div\n      0xffffffffffffffffffffffffffffffffffffffff\n      and\n        /* \"contracts/ddddd.sol\":5604:5625  isApproved[mohAdress] */\n      0xffffffffffffffffffffffffffffffffffffffff\n      and\n      0xffffffffffffffffffffffffffffffffffffffff\n      and\n      dup2\n      mstore\n      0x20\n      add\n      swap1\n      dup2\n      mstore\n      0x20\n      add\n      0x0\n      keccak256\n        /* \"contracts/ddddd.sol\":5604:5634  isApproved[mohAdress][_doctor] */\n      0x0\n        /* \"contracts/ddddd.sol\":5626:5633  _doctor */\n      dup11\n        /* \"contracts/ddddd.sol\":5604:5634  isApproved[mohAdress][_doctor] */\n      0xffffffffffffffffffffffffffffffffffffffff\n      and\n      0xffffffffffffffffffffffffffffffffffffffff\n      and\n      dup2\n      mstore\n      0x20\n      add\n      swap1\n      dup2\n      mstore\n      0x20\n      add\n      0x0\n      keccak256\n      0x0\n      swap1\n      sload\n      swap1\n      0x100\n      exp\n      swap1\n      div\n      0xff\n      and\n        /* \"contracts/ddddd.sol\":5604:5642  isApproved[mohAdress][_doctor] == true */\n      iszero\n      iszero\n      eq\n        /* \"contracts/ddddd.sol\":5596:5643  require(isApproved[mohAdress][_doctor] == true) */\n      iszero\n      iszero\n      tag_234\n      jumpi\n      0x0\n      dup1\n      revert\n    tag_234:\n        /* \"contracts/ddddd.sol\":5663:5672  isVaccine */\n      0xa\n        /* \"contracts/ddddd.sol\":5663:5683  isVaccine[_address1] */\n      0x0\n        /* \"contracts/ddddd.sol\":5673:5682  _address1 */\n      dup11\n        /* \"contracts/ddddd.sol\":5663:5683  isVaccine[_address1] */\n      0xffffffffffffffffffffffffffffffffffffffff\n      and\n      0xffffffffffffffffffffffffffffffffffffffff\n      and\n      dup2\n      mstore\n      0x20\n      add\n      swap1\n      dup2\n      mstore\n      0x20\n      add\n      0x0\n      keccak256\n      0x0\n      swap1\n      sload\n      swap1\n      0x100\n      exp\n      swap1\n      div\n      0xff\n      and\n        /* \"contracts/ddddd.sol\":5662:5683  !isVaccine[_address1] */\n      iszero\n        /* \"contracts/ddddd.sol\":5654:5684  require(!isVaccine[_address1]) */\n      iszero\n      iszero\n      tag_235\n      jumpi\n      0x0\n      dup1\n      revert\n    tag_235:\n        /* \"contracts/ddddd.sol\":5703:5714  vaccination */\n      0x6\n        /* \"contracts/ddddd.sol\":5703:5725  vaccination[_address1] */\n      0x0\n        /* \"contracts/ddddd.sol\":5715:5724  _address1 */\n      dup11\n        /* \"contracts/ddddd.sol\":5703:5725  vaccination[_address1] */\n      0xffffffffffffffffffffffffffffffffffffffff\n      and\n      0xffffffffffffffffffffffffffffffffffffffff\n      and\n      dup2\n      mstore\n      0x20\n      add\n      swap1\n      dup2\n      mstore\n      0x20\n      add\n      0x0\n      keccak256\n        /* \"contracts/ddddd.sol\":5695:5725  var v = vaccination[_address1] */\n      swap1\n      pop\n        /* \"contracts/ddddd.sol\":5747:5752  _name */\n      dup7\n        /* \"contracts/ddddd.sol\":5738:5739  v */\n      dup2\n        /* \"contracts/ddddd.sol\":5738:5744  v.name */\n      0x0\n      add\n        /* \"contracts/ddddd.sol\":5738:5752  v.name = _name */\n      swap1\n      dup1\n      mload\n      swap1\n      0x20\n      add\n      swap1\n      tag_236\n      swap3\n      swap2\n      swap1\n      jump\t// in(tag_210)\n    tag_236:\n      pop\n        /* \"contracts/ddddd.sol\":5775:5783  _vaccine */\n      dup6\n        /* \"contracts/ddddd.sol\":5763:5764  v */\n      dup2\n        /* \"contracts/ddddd.sol\":5763:5772  v.vaccine */\n      0x1\n      add\n        /* \"contracts/ddddd.sol\":5763:5783  v.vaccine = _vaccine */\n      swap1\n      dup1\n      mload\n      swap1\n      0x20\n      add\n      swap1\n      tag_237\n      swap3\n      swap2\n      swap1\n      jump\t// in(tag_210)\n    tag_237:\n      pop\n        /* \"contracts/ddddd.sol\":5810:5822  _description */\n      dup5\n        /* \"contracts/ddddd.sol\":5794:5795  v */\n      dup2\n        /* \"contracts/ddddd.sol\":5794:5807  v.description */\n      0x2\n      add\n        /* \"contracts/ddddd.sol\":5794:5822  v.description = _description */\n      swap1\n      dup1\n      mload\n      swap1\n      0x20\n      add\n      swap1\n      tag_238\n      swap3\n      swap2\n      swap1\n      jump\t// in(tag_210)\n    tag_238:\n      pop\n        /* \"contracts/ddddd.sol\":5851:5865  _typeOfVaccine */\n      dup4\n        /* \"contracts/ddddd.sol\":5833:5834  v */\n      dup2\n        /* \"contracts/ddddd.sol\":5833:5848  v.typeOfVaccine */\n      0x3\n      add\n        /* \"contracts/ddddd.sol\":5833:5865  v.typeOfVaccine = _typeOfVaccine */\n      swap1\n      dup1\n      mload\n      swap1\n      0x20\n      add\n      swap1\n      tag_239\n      swap3\n      swap2\n      swap1\n      jump\t// in(tag_210)\n    tag_239:\n      pop\n        /* \"contracts/ddddd.sol\":6006:6019  _creationDate */\n      dup3\n        /* \"contracts/ddddd.sol\":5989:5990  v */\n      dup2\n        /* \"contracts/ddddd.sol\":5989:6003  v.creationDate */\n      0x4\n      add\n        /* \"contracts/ddddd.sol\":5989:6019  v.creationDate = _creationDate */\n      dup2\n      swap1\n      sstore\n      pop\n        /* \"contracts/ddddd.sol\":6047:6056  _address1 */\n      dup9\n        /* \"contracts/ddddd.sol\":6030:6031  v */\n      dup2\n        /* \"contracts/ddddd.sol\":6030:6044  v.userEadderss */\n      0x5\n      add\n      0x0\n        /* \"contracts/ddddd.sol\":6030:6056  v.userEadderss = _address1 */\n      0x100\n      exp\n      dup2\n      sload\n      dup2\n      0xffffffffffffffffffffffffffffffffffffffff\n      mul\n      not\n      and\n      swap1\n      dup4\n      0xffffffffffffffffffffffffffffffffffffffff\n      and\n      mul\n      or\n      swap1\n      sstore\n      pop\n        /* \"contracts/ddddd.sol\":6086:6093  _doctor */\n      dup8\n        /* \"contracts/ddddd.sol\":6067:6068  v */\n      dup2\n        /* \"contracts/ddddd.sol\":6067:6083  v.doctorEaddress */\n      0x6\n      add\n      0x0\n        /* \"contracts/ddddd.sol\":6067:6093  v.doctorEaddress = _doctor */\n      0x100\n      exp\n      dup2\n      sload\n      dup2\n      0xffffffffffffffffffffffffffffffffffffffff\n      mul\n      not\n      and\n      swap1\n      dup4\n      0xffffffffffffffffffffffffffffffffffffffff\n      and\n      mul\n      or\n      swap1\n      sstore\n      pop\n        /* \"contracts/ddddd.sol\":6106:6121  vaccinationList */\n      0x3\n        /* \"contracts/ddddd.sol\":6127:6136  _address1 */\n      dup10\n        /* \"contracts/ddddd.sol\":6106:6137  vaccinationList.push(_address1) */\n      swap1\n      dup1\n        /* \"--CODEGEN--\":39:40   */\n      0x1\n        /* \"--CODEGEN--\":33:36   */\n      dup2\n        /* \"--CODEGEN--\":27:37   */\n      sload\n        /* \"--CODEGEN--\":23:41   */\n      add\n        /* \"--CODEGEN--\":57:67   */\n      dup1\n        /* \"--CODEGEN--\":52:55   */\n      dup3\n        /* \"--CODEGEN--\":45:68   */\n      sstore\n        /* \"--CODEGEN--\":79:89   */\n      dup1\n        /* \"--CODEGEN--\":72:89   */\n      swap2\n      pop\n        /* \"--CODEGEN--\":0:93   */\n      pop\n        /* \"contracts/ddddd.sol\":6106:6137  vaccinationList.push(_address1) */\n      swap1\n      0x1\n      dup3\n      sub\n      swap1\n      0x0\n      mstore\n      keccak256(0x0, 0x20)\n      add\n      0x0\n      swap1\n      swap2\n      swap3\n      swap1\n      swap2\n      swap1\n      swap2\n      0x100\n      exp\n      dup2\n      sload\n      dup2\n      0xffffffffffffffffffffffffffffffffffffffff\n      mul\n      not\n      and\n      swap1\n      dup4\n      0xffffffffffffffffffffffffffffffffffffffff\n      and\n      mul\n      or\n      swap1\n      sstore\n      pop\n      pop\n        /* \"contracts/ddddd.sol\":6148:6173  vaccinationRecordsCounter */\n      0xf\n      0x0\n        /* \"contracts/ddddd.sol\":6148:6175  vaccinationRecordsCounter++ */\n      dup2\n      sload\n      dup1\n      swap3\n      swap2\n      swap1\n      0x1\n      add\n      swap2\n      swap1\n      pop\n      sstore\n      pop\n        /* \"contracts/ddddd.sol\":5233:6183  function createVaccineRecord(address _address1, address _doctor, string _name, string _vaccine, string _description, string _typeOfVaccine, uint _creationDate) public returns(bool success) {\r... */\n      pop\n      swap8\n      swap7\n      pop\n      pop\n      pop\n      pop\n      pop\n      pop\n      pop\n      jump\t// out\n        /* \"contracts/ddddd.sol\":7006:7164  function userRevokePermission(address _address) public returns(bool success) {\r... */\n    tag_89:\n        /* \"contracts/ddddd.sol\":7069:7081  bool success */\n      0x0\n        /* \"contracts/ddddd.sol\":7129:7134  false */\n      dup1\n        /* \"contracts/ddddd.sol\":7094:7104  isApproved */\n      0x7\n        /* \"contracts/ddddd.sol\":7094:7116  isApproved[msg.sender] */\n      0x0\n        /* \"contracts/ddddd.sol\":7105:7115  msg.sender */\n      caller\n        /* \"contracts/ddddd.sol\":7094:7116  isApproved[msg.sender] */\n      0xffffffffffffffffffffffffffffffffffffffff\n      and\n      0xffffffffffffffffffffffffffffffffffffffff\n      and\n      dup2\n      mstore\n      0x20\n      add\n      swap1\n      dup2\n      mstore\n      0x20\n      add\n      0x0\n      keccak256\n        /* \"contracts/ddddd.sol\":7094:7126  isApproved[msg.sender][_address] */\n      0x0\n        /* \"contracts/ddddd.sol\":7117:7125  _address */\n      dup5\n        /* \"contracts/ddddd.sol\":7094:7126  isApproved[msg.sender][_address] */\n      0xffffffffffffffffffffffffffffffffffffffff\n      and\n      0xffffffffffffffffffffffffffffffffffffffff\n      and\n      dup2\n      mstore\n      0x20\n      add\n      swap1\n      dup2\n      mstore\n      0x20\n      add\n      0x0\n      keccak256\n      0x0\n        /* \"contracts/ddddd.sol\":7094:7134  isApproved[msg.sender][_address] = false */\n      0x100\n      exp\n      dup2\n      sload\n      dup2\n      0xff\n      mul\n      not\n      and\n      swap1\n      dup4\n      iszero\n      iszero\n      mul\n      or\n      swap1\n      sstore\n      pop\n        /* \"contracts/ddddd.sol\":7152:7156  true */\n      0x1\n        /* \"contracts/ddddd.sol\":7145:7156  return true */\n      swap1\n      pop\n        /* \"contracts/ddddd.sol\":7006:7164  function userRevokePermission(address _address) public returns(bool success) {\r... */\n      swap2\n      swap1\n      pop\n      jump\t// out\n        /* \"contracts/ddddd.sol\":2175:3284  function userRegistration(address _user, string _uaeId, string _name, string _phone, string _gender, string _dob, string _addr, string _email, string _nomineeName, string _nomineeContact) public {\r... */\n    tag_95:\n        /* \"contracts/ddddd.sol\":2458:2463  var u */\n      0x0\n        /* \"contracts/ddddd.sol\":2403:2412  mohAdress */\n      0x10\n      0x0\n      swap1\n      sload\n      swap1\n      0x100\n      exp\n      swap1\n      div\n      0xffffffffffffffffffffffffffffffffffffffff\n      and\n        /* \"contracts/ddddd.sol\":2389:2412  msg.sender == mohAdress */\n      0xffffffffffffffffffffffffffffffffffffffff\n      and\n        /* \"contracts/ddddd.sol\":2389:2399  msg.sender */\n      caller\n        /* \"contracts/ddddd.sol\":2389:2412  msg.sender == mohAdress */\n      0xffffffffffffffffffffffffffffffffffffffff\n      and\n      eq\n        /* \"contracts/ddddd.sol\":2381:2413  require(msg.sender == mohAdress) */\n      iszero\n      iszero\n      tag_243\n      jumpi\n      0x0\n      dup1\n      revert\n    tag_243:\n        /* \"contracts/ddddd.sol\":2433:2439  isUser */\n      0x8\n        /* \"contracts/ddddd.sol\":2433:2446  isUser[_user] */\n      0x0\n        /* \"contracts/ddddd.sol\":2440:2445  _user */\n      dup13\n        /* \"contracts/ddddd.sol\":2433:2446  isUser[_user] */\n      0xffffffffffffffffffffffffffffffffffffffff\n      and\n      0xffffffffffffffffffffffffffffffffffffffff\n      and\n      dup2\n      mstore\n      0x20\n      add\n      swap1\n      dup2\n      mstore\n      0x20\n      add\n      0x0\n      keccak256\n      0x0\n      swap1\n      sload\n      swap1\n      0x100\n      exp\n      swap1\n      div\n      0xff\n      and\n        /* \"contracts/ddddd.sol\":2432:2446  !isUser[_user] */\n      iszero\n        /* \"contracts/ddddd.sol\":2424:2447  require(!isUser[_user]) */\n      iszero\n      iszero\n      tag_244\n      jumpi\n      0x0\n      dup1\n      revert\n    tag_244:\n        /* \"contracts/ddddd.sol\":2466:2470  user */\n      0x4\n        /* \"contracts/ddddd.sol\":2466:2477  user[_user] */\n      0x0\n        /* \"contracts/ddddd.sol\":2471:2476  _user */\n      dup13\n        /* \"contracts/ddddd.sol\":2466:2477  user[_user] */\n      0xffffffffffffffffffffffffffffffffffffffff\n      and\n      0xffffffffffffffffffffffffffffffffffffffff\n      and\n      dup2\n      mstore\n      0x20\n      add\n      swap1\n      dup2\n      mstore\n      0x20\n      add\n      0x0\n      keccak256\n        /* \"contracts/ddddd.sol\":2458:2477  var u = user[_user] */\n      swap1\n      pop\n        /* \"contracts/ddddd.sol\":2508:2514  _uaeId */\n      dup10\n        /* \"contracts/ddddd.sol\":2498:2499  u */\n      dup2\n        /* \"contracts/ddddd.sol\":2498:2505  u.uaeId */\n      0x0\n      add\n        /* \"contracts/ddddd.sol\":2498:2514  u.uaeId = _uaeId */\n      swap1\n      dup1\n      mload\n      swap1\n      0x20\n      add\n      swap1\n      tag_245\n      swap3\n      swap2\n      swap1\n      jump\t// in(tag_210)\n    tag_245:\n      pop\n        /* \"contracts/ddddd.sol\":2534:2539  _name */\n      dup9\n        /* \"contracts/ddddd.sol\":2525:2526  u */\n      dup2\n        /* \"contracts/ddddd.sol\":2525:2531  u.name */\n      0x1\n      add\n        /* \"contracts/ddddd.sol\":2525:2539  u.name = _name */\n      swap1\n      dup1\n      mload\n      swap1\n      0x20\n      add\n      swap1\n      tag_246\n      swap3\n      swap2\n      swap1\n      jump\t// in(tag_210)\n    tag_246:\n      pop\n        /* \"contracts/ddddd.sol\":2560:2566  _phone */\n      dup8\n        /* \"contracts/ddddd.sol\":2550:2551  u */\n      dup2\n        /* \"contracts/ddddd.sol\":2550:2557  u.phone */\n      0x2\n      add\n        /* \"contracts/ddddd.sol\":2550:2566  u.phone = _phone */\n      swap1\n      dup1\n      mload\n      swap1\n      0x20\n      add\n      swap1\n      tag_247\n      swap3\n      swap2\n      swap1\n      jump\t// in(tag_210)\n    tag_247:\n      pop\n        /* \"contracts/ddddd.sol\":2588:2595  _gender */\n      dup7\n        /* \"contracts/ddddd.sol\":2577:2578  u */\n      dup2\n        /* \"contracts/ddddd.sol\":2577:2585  u.gender */\n      0x3\n      add\n        /* \"contracts/ddddd.sol\":2577:2595  u.gender = _gender */\n      swap1\n      dup1\n      mload\n      swap1\n      0x20\n      add\n      swap1\n      tag_248\n      swap3\n      swap2\n      swap1\n      jump\t// in(tag_210)\n    tag_248:\n      pop\n        /* \"contracts/ddddd.sol\":2614:2618  _dob */\n      dup6\n        /* \"contracts/ddddd.sol\":2606:2607  u */\n      dup2\n        /* \"contracts/ddddd.sol\":2606:2611  u.dob */\n      0x4\n      add\n        /* \"contracts/ddddd.sol\":2606:2618  u.dob = _dob */\n      swap1\n      dup1\n      mload\n      swap1\n      0x20\n      add\n      swap1\n      tag_249\n      swap3\n      swap2\n      swap1\n      jump\t// in(tag_210)\n    tag_249:\n      pop\n        /* \"contracts/ddddd.sol\":2638:2643  _addr */\n      dup5\n        /* \"contracts/ddddd.sol\":2629:2630  u */\n      dup2\n        /* \"contracts/ddddd.sol\":2629:2635  u.addr */\n      0x5\n      add\n        /* \"contracts/ddddd.sol\":2629:2643  u.addr = _addr */\n      swap1\n      dup1\n      mload\n      swap1\n      0x20\n      add\n      swap1\n      tag_250\n      swap3\n      swap2\n      swap1\n      jump\t// in(tag_210)\n    tag_250:\n      pop\n        /* \"contracts/ddddd.sol\":2664:2670  _email */\n      dup4\n        /* \"contracts/ddddd.sol\":2654:2655  u */\n      dup2\n        /* \"contracts/ddddd.sol\":2654:2661  u.email */\n      0x6\n      add\n        /* \"contracts/ddddd.sol\":2654:2670  u.email = _email */\n      swap1\n      dup1\n      mload\n      swap1\n      0x20\n      add\n      swap1\n      tag_251\n      swap3\n      swap2\n      swap1\n      jump\t// in(tag_210)\n    tag_251:\n      pop\n        /* \"contracts/ddddd.sol\":2697:2709  _nomineeName */\n      dup3\n        /* \"contracts/ddddd.sol\":2681:2682  u */\n      dup2\n        /* \"contracts/ddddd.sol\":2681:2694  u.nomineeName */\n      0x7\n      add\n        /* \"contracts/ddddd.sol\":2681:2709  u.nomineeName = _nomineeName */\n      swap1\n      dup1\n      mload\n      swap1\n      0x20\n      add\n      swap1\n      tag_252\n      swap3\n      swap2\n      swap1\n      jump\t// in(tag_210)\n    tag_252:\n      pop\n        /* \"contracts/ddddd.sol\":2739:2754  _nomineeContact */\n      dup2\n        /* \"contracts/ddddd.sol\":2720:2721  u */\n      dup2\n        /* \"contracts/ddddd.sol\":2720:2736  u.nomineeContact */\n      0x8\n      add\n        /* \"contracts/ddddd.sol\":2720:2754  u.nomineeContact = _nomineeContact */\n      swap1\n      dup1\n      mload\n      swap1\n      0x20\n      add\n      swap1\n      tag_253\n      swap3\n      swap2\n      swap1\n      jump\t// in(tag_210)\n    tag_253:\n      pop\n        /* \"contracts/ddddd.sol\":2778:2783  _user */\n      dup11\n        /* \"contracts/ddddd.sol\":2765:2766  u */\n      dup2\n        /* \"contracts/ddddd.sol\":2765:2775  u.eAddress */\n      0x9\n      add\n      0x0\n        /* \"contracts/ddddd.sol\":2765:2783  u.eAddress = _user */\n      0x100\n      exp\n      dup2\n      sload\n      dup2\n      0xffffffffffffffffffffffffffffffffffffffff\n      mul\n      not\n      and\n      swap1\n      dup4\n      0xffffffffffffffffffffffffffffffffffffffff\n      and\n      mul\n      or\n      swap1\n      sstore\n      pop\n        /* \"contracts/ddddd.sol\":2803:2818  block.timestamp */\n      timestamp\n        /* \"contracts/ddddd.sol\":2794:2795  u */\n      dup2\n        /* \"contracts/ddddd.sol\":2794:2800  u.date */\n      0xa\n      add\n        /* \"contracts/ddddd.sol\":2794:2818  u.date = block.timestamp */\n      dup2\n      swap1\n      sstore\n      pop\n        /* \"contracts/ddddd.sol\":2839:2847  userList */\n      0x1\n        /* \"contracts/ddddd.sol\":2853:2858  _user */\n      dup12\n        /* \"contracts/ddddd.sol\":2839:2859  userList.push(_user) */\n      swap1\n      dup1\n        /* \"--CODEGEN--\":39:40   */\n      0x1\n        /* \"--CODEGEN--\":33:36   */\n      dup2\n        /* \"--CODEGEN--\":27:37   */\n      sload\n        /* \"--CODEGEN--\":23:41   */\n      add\n        /* \"--CODEGEN--\":57:67   */\n      dup1\n        /* \"--CODEGEN--\":52:55   */\n      dup3\n        /* \"--CODEGEN--\":45:68   */\n      sstore\n        /* \"--CODEGEN--\":79:89   */\n      dup1\n        /* \"--CODEGEN--\":72:89   */\n      swap2\n      pop\n        /* \"--CODEGEN--\":0:93   */\n      pop\n        /* \"contracts/ddddd.sol\":2839:2859  userList.push(_user) */\n      swap1\n      0x1\n      dup3\n      sub\n      swap1\n      0x0\n      mstore\n      keccak256(0x0, 0x20)\n      add\n      0x0\n      swap1\n      swap2\n      swap3\n      swap1\n      swap2\n      swap1\n      swap2\n      0x100\n      exp\n      dup2\n      sload\n      dup2\n      0xffffffffffffffffffffffffffffffffffffffff\n      mul\n      not\n      and\n      swap1\n      dup4\n      0xffffffffffffffffffffffffffffffffffffffff\n      and\n      mul\n      or\n      swap1\n      sstore\n      pop\n      pop\n        /* \"contracts/ddddd.sol\":2886:2890  true */\n      0x1\n        /* \"contracts/ddddd.sol\":2870:2876  isUser */\n      0x8\n        /* \"contracts/ddddd.sol\":2870:2883  isUser[_user] */\n      0x0\n        /* \"contracts/ddddd.sol\":2877:2882  _user */\n      dup14\n        /* \"contracts/ddddd.sol\":2870:2883  isUser[_user] */\n      0xffffffffffffffffffffffffffffffffffffffff\n      and\n      0xffffffffffffffffffffffffffffffffffffffff\n      and\n      dup2\n      mstore\n      0x20\n      add\n      swap1\n      dup2\n      mstore\n      0x20\n      add\n      0x0\n      keccak256\n      0x0\n        /* \"contracts/ddddd.sol\":2870:2890  isUser[_user] = true */\n      0x100\n      exp\n      dup2\n      sload\n      dup2\n      0xff\n      mul\n      not\n      and\n      swap1\n      dup4\n      iszero\n      iszero\n      mul\n      or\n      swap1\n      sstore\n      pop\n        /* \"contracts/ddddd.sol\":2928:2932  true */\n      0x1\n        /* \"contracts/ddddd.sol\":2901:2911  isApproved */\n      0x7\n        /* \"contracts/ddddd.sol\":2901:2918  isApproved[_user] */\n      0x0\n        /* \"contracts/ddddd.sol\":2912:2917  _user */\n      dup14\n        /* \"contracts/ddddd.sol\":2901:2918  isApproved[_user] */\n      0xffffffffffffffffffffffffffffffffffffffff\n      and\n      0xffffffffffffffffffffffffffffffffffffffff\n      and\n      dup2\n      mstore\n      0x20\n      add\n      swap1\n      dup2\n      mstore\n      0x20\n      add\n      0x0\n      keccak256\n        /* \"contracts/ddddd.sol\":2901:2925  isApproved[_user][_user] */\n      0x0\n        /* \"contracts/ddddd.sol\":2919:2924  _user */\n      dup14\n        /* \"contracts/ddddd.sol\":2901:2925  isApproved[_user][_user] */\n      0xffffffffffffffffffffffffffffffffffffffff\n      and\n      0xffffffffffffffffffffffffffffffffffffffff\n      and\n      dup2\n      mstore\n      0x20\n      add\n      swap1\n      dup2\n      mstore\n      0x20\n      add\n      0x0\n      keccak256\n      0x0\n        /* \"contracts/ddddd.sol\":2901:2932  isApproved[_user][_user] = true */\n      0x100\n      exp\n      dup2\n      sload\n      dup2\n      0xff\n      mul\n      not\n      and\n      swap1\n      dup4\n      iszero\n      iszero\n      mul\n      or\n      swap1\n      sstore\n      pop\n        /* \"contracts/ddddd.sol\":2974:2978  true */\n      0x1\n        /* \"contracts/ddddd.sol\":2943:2953  isApproved */\n      0x7\n        /* \"contracts/ddddd.sol\":2943:2960  isApproved[_user] */\n      0x0\n        /* \"contracts/ddddd.sol\":2954:2959  _user */\n      dup14\n        /* \"contracts/ddddd.sol\":2943:2960  isApproved[_user] */\n      0xffffffffffffffffffffffffffffffffffffffff\n      and\n      0xffffffffffffffffffffffffffffffffffffffff\n      and\n      dup2\n      mstore\n      0x20\n      add\n      swap1\n      dup2\n      mstore\n      0x20\n      add\n      0x0\n      keccak256\n        /* \"contracts/ddddd.sol\":2943:2971  isApproved[_user][mohAdress] */\n      0x0\n        /* \"contracts/ddddd.sol\":2961:2970  mohAdress */\n      0x10\n      0x0\n      swap1\n      sload\n      swap1\n      0x100\n      exp\n      swap1\n      div\n      0xffffffffffffffffffffffffffffffffffffffff\n      and\n        /* \"contracts/ddddd.sol\":2943:2971  isApproved[_user][mohAdress] */\n      0xffffffffffffffffffffffffffffffffffffffff\n      and\n      0xffffffffffffffffffffffffffffffffffffffff\n      and\n      dup2\n      mstore\n      0x20\n      add\n      swap1\n      dup2\n      mstore\n      0x20\n      add\n      0x0\n      keccak256\n      0x0\n        /* \"contracts/ddddd.sol\":2943:2978  isApproved[_user][mohAdress] = true */\n      0x100\n      exp\n      dup2\n      sload\n      dup2\n      0xff\n      mul\n      not\n      and\n      swap1\n      dup4\n      iszero\n      iszero\n      mul\n      or\n      swap1\n      sstore\n      pop\n        /* \"contracts/ddddd.sol\":2989:2998  userCount */\n      0xb\n      0x0\n        /* \"contracts/ddddd.sol\":2989:3000  userCount++ */\n      dup2\n      sload\n      dup1\n      swap3\n      swap2\n      swap1\n      0x1\n      add\n      swap2\n      swap1\n      pop\n      sstore\n      pop\n        /* \"contracts/ddddd.sol\":2175:3284  function userRegistration(address _user, string _uaeId, string _name, string _phone, string _gender, string _dob, string _addr, string _email, string _nomineeName, string _nomineeContact) public {\r... */\n      pop\n      pop\n      pop\n      pop\n      pop\n      pop\n      pop\n      pop\n      pop\n      pop\n      pop\n      jump\t// out\n        /* \"contracts/ddddd.sol\":3308:3917  function editUser(address _user, string _uaeId, string _name, string _phone, string _gender, string _dob, string _addr, string _email, string _nomineeName, string _nomineeContact) public {\r... */\n    tag_99:\n        /* \"contracts/ddddd.sol\":3582:3587  var u */\n      0x0\n        /* \"contracts/ddddd.sol\":3528:3537  mohAdress */\n      0x10\n      0x0\n      swap1\n      sload\n      swap1\n      0x100\n      exp\n      swap1\n      div\n      0xffffffffffffffffffffffffffffffffffffffff\n      and\n        /* \"contracts/ddddd.sol\":3514:3537  msg.sender == mohAdress */\n      0xffffffffffffffffffffffffffffffffffffffff\n      and\n        /* \"contracts/ddddd.sol\":3514:3524  msg.sender */\n      caller\n        /* \"contracts/ddddd.sol\":3514:3537  msg.sender == mohAdress */\n      0xffffffffffffffffffffffffffffffffffffffff\n      and\n      eq\n        /* \"contracts/ddddd.sol\":3506:3538  require(msg.sender == mohAdress) */\n      iszero\n      iszero\n      tag_256\n      jumpi\n      0x0\n      dup1\n      revert\n    tag_256:\n        /* \"contracts/ddddd.sol\":3557:3563  isUser */\n      0x8\n        /* \"contracts/ddddd.sol\":3557:3570  isUser[_user] */\n      0x0\n        /* \"contracts/ddddd.sol\":3564:3569  _user */\n      dup13\n        /* \"contracts/ddddd.sol\":3557:3570  isUser[_user] */\n      0xffffffffffffffffffffffffffffffffffffffff\n      and\n      0xffffffffffffffffffffffffffffffffffffffff\n      and\n      dup2\n      mstore\n      0x20\n      add\n      swap1\n      dup2\n      mstore\n      0x20\n      add\n      0x0\n      keccak256\n      0x0\n      swap1\n      sload\n      swap1\n      0x100\n      exp\n      swap1\n      div\n      0xff\n      and\n        /* \"contracts/ddddd.sol\":3549:3571  require(isUser[_user]) */\n      iszero\n      iszero\n      tag_257\n      jumpi\n      0x0\n      dup1\n      revert\n    tag_257:\n        /* \"contracts/ddddd.sol\":3590:3594  user */\n      0x4\n        /* \"contracts/ddddd.sol\":3590:3601  user[_user] */\n      0x0\n        /* \"contracts/ddddd.sol\":3595:3600  _user */\n      dup13\n        /* \"contracts/ddddd.sol\":3590:3601  user[_user] */\n      0xffffffffffffffffffffffffffffffffffffffff\n      and\n      0xffffffffffffffffffffffffffffffffffffffff\n      and\n      dup2\n      mstore\n      0x20\n      add\n      swap1\n      dup2\n      mstore\n      0x20\n      add\n      0x0\n      keccak256\n        /* \"contracts/ddddd.sol\":3582:3601  var u = user[_user] */\n      swap1\n      pop\n        /* \"contracts/ddddd.sol\":3632:3638  _uaeId */\n      dup10\n        /* \"contracts/ddddd.sol\":3622:3623  u */\n      dup2\n        /* \"contracts/ddddd.sol\":3622:3629  u.uaeId */\n      0x0\n      add\n        /* \"contracts/ddddd.sol\":3622:3638  u.uaeId = _uaeId */\n      swap1\n      dup1\n      mload\n      swap1\n      0x20\n      add\n      swap1\n      tag_258\n      swap3\n      swap2\n      swap1\n      jump\t// in(tag_210)\n    tag_258:\n      pop\n        /* \"contracts/ddddd.sol\":3658:3663  _name */\n      dup9\n        /* \"contracts/ddddd.sol\":3649:3650  u */\n      dup2\n        /* \"contracts/ddddd.sol\":3649:3655  u.name */\n      0x1\n      add\n        /* \"contracts/ddddd.sol\":3649:3663  u.name = _name */\n      swap1\n      dup1\n      mload\n      swap1\n      0x20\n      add\n      swap1\n      tag_259\n      swap3\n      swap2\n      swap1\n      jump\t// in(tag_210)\n    tag_259:\n      pop\n        /* \"contracts/ddddd.sol\":3684:3690  _phone */\n      dup8\n        /* \"contracts/ddddd.sol\":3674:3675  u */\n      dup2\n        /* \"contracts/ddddd.sol\":3674:3681  u.phone */\n      0x2\n      add\n        /* \"contracts/ddddd.sol\":3674:3690  u.phone = _phone */\n      swap1\n      dup1\n      mload\n      swap1\n      0x20\n      add\n      swap1\n      tag_260\n      swap3\n      swap2\n      swap1\n      jump\t// in(tag_210)\n    tag_260:\n      pop\n        /* \"contracts/ddddd.sol\":3712:3719  _gender */\n      dup7\n        /* \"contracts/ddddd.sol\":3701:3702  u */\n      dup2\n        /* \"contracts/ddddd.sol\":3701:3709  u.gender */\n      0x3\n      add\n        /* \"contracts/ddddd.sol\":3701:3719  u.gender = _gender */\n      swap1\n      dup1\n      mload\n      swap1\n      0x20\n      add\n      swap1\n      tag_261\n      swap3\n      swap2\n      swap1\n      jump\t// in(tag_210)\n    tag_261:\n      pop\n        /* \"contracts/ddddd.sol\":3738:3742  _dob */\n      dup6\n        /* \"contracts/ddddd.sol\":3730:3731  u */\n      dup2\n        /* \"contracts/ddddd.sol\":3730:3735  u.dob */\n      0x4\n      add\n        /* \"contracts/ddddd.sol\":3730:3742  u.dob = _dob */\n      swap1\n      dup1\n      mload\n      swap1\n      0x20\n      add\n      swap1\n      tag_262\n      swap3\n      swap2\n      swap1\n      jump\t// in(tag_210)\n    tag_262:\n      pop\n        /* \"contracts/ddddd.sol\":3762:3767  _addr */\n      dup5\n        /* \"contracts/ddddd.sol\":3753:3754  u */\n      dup2\n        /* \"contracts/ddddd.sol\":3753:3759  u.addr */\n      0x5\n      add\n        /* \"contracts/ddddd.sol\":3753:3767  u.addr = _addr */\n      swap1\n      dup1\n      mload\n      swap1\n      0x20\n      add\n      swap1\n      tag_263\n      swap3\n      swap2\n      swap1\n      jump\t// in(tag_210)\n    tag_263:\n      pop\n        /* \"contracts/ddddd.sol\":3788:3794  _email */\n      dup4\n        /* \"contracts/ddddd.sol\":3778:3779  u */\n      dup2\n        /* \"contracts/ddddd.sol\":3778:3785  u.email */\n      0x6\n      add\n        /* \"contracts/ddddd.sol\":3778:3794  u.email = _email */\n      swap1\n      dup1\n      mload\n      swap1\n      0x20\n      add\n      swap1\n      tag_264\n      swap3\n      swap2\n      swap1\n      jump\t// in(tag_210)\n    tag_264:\n      pop\n        /* \"contracts/ddddd.sol\":3821:3833  _nomineeName */\n      dup3\n        /* \"contracts/ddddd.sol\":3805:3806  u */\n      dup2\n        /* \"contracts/ddddd.sol\":3805:3818  u.nomineeName */\n      0x7\n      add\n        /* \"contracts/ddddd.sol\":3805:3833  u.nomineeName = _nomineeName */\n      swap1\n      dup1\n      mload\n      swap1\n      0x20\n      add\n      swap1\n      tag_265\n      swap3\n      swap2\n      swap1\n      jump\t// in(tag_210)\n    tag_265:\n      pop\n        /* \"contracts/ddddd.sol\":3863:3878  _nomineeContact */\n      dup2\n        /* \"contracts/ddddd.sol\":3844:3845  u */\n      dup2\n        /* \"contracts/ddddd.sol\":3844:3860  u.nomineeContact */\n      0x8\n      add\n        /* \"contracts/ddddd.sol\":3844:3878  u.nomineeContact = _nomineeContact */\n      swap1\n      dup1\n      mload\n      swap1\n      0x20\n      add\n      swap1\n      tag_266\n      swap3\n      swap2\n      swap1\n      jump\t// in(tag_210)\n    tag_266:\n      pop\n        /* \"contracts/ddddd.sol\":3902:3907  _user */\n      dup11\n        /* \"contracts/ddddd.sol\":3889:3890  u */\n      dup2\n        /* \"contracts/ddddd.sol\":3889:3899  u.eAddress */\n      0x9\n      add\n      0x0\n        /* \"contracts/ddddd.sol\":3889:3907  u.eAddress = _user */\n      0x100\n      exp\n      dup2\n      sload\n      dup2\n      0xffffffffffffffffffffffffffffffffffffffff\n      mul\n      not\n      and\n      swap1\n      dup4\n      0xffffffffffffffffffffffffffffffffffffffff\n      and\n      mul\n      or\n      swap1\n      sstore\n      pop\n        /* \"contracts/ddddd.sol\":3308:3917  function editUser(address _user, string _uaeId, string _name, string _phone, string _gender, string _dob, string _addr, string _email, string _nomineeName, string _nomineeContact) public {\r... */\n      pop\n      pop\n      pop\n      pop\n      pop\n      pop\n      pop\n      pop\n      pop\n      pop\n      pop\n      jump\t// out\n        /* \"contracts/ddddd.sol\":1668:1698  uint256 public doctorCount = 0 */\n    tag_102:\n      sload(0xc)\n      dup2\n      jump\t// out\n        /* \"contracts/ddddd.sol\":8774:8866  function getDoctorCount() public view returns(uint256) {\r... */\n    tag_106:\n        /* \"contracts/ddddd.sol\":8820:8827  uint256 */\n      0x0\n        /* \"contracts/ddddd.sol\":8847:8858  doctorCount */\n      sload(0xc)\n        /* \"contracts/ddddd.sol\":8840:8858  return doctorCount */\n      swap1\n      pop\n        /* \"contracts/ddddd.sol\":8774:8866  function getDoctorCount() public view returns(uint256) {\r... */\n      swap1\n      jump\t// out\n        /* \"contracts/ddddd.sol\":9118:9424  function checkDoctor(address _address) public view returns(bool success) {\r... */\n    tag_111:\n        /* \"contracts/ddddd.sol\":9177:9189  bool success */\n      0x0\n        /* \"contracts/ddddd.sol\":9207:9213  uint i */\n      dup1\n        /* \"contracts/ddddd.sol\":9216:9217  0 */\n      0x0\n        /* \"contracts/ddddd.sol\":9207:9217  uint i = 0 */\n      swap1\n      pop\n        /* \"contracts/ddddd.sol\":9223:9233  doctorList */\n      0x2\n        /* \"contracts/ddddd.sol\":9223:9240  doctorList.length */\n      dup1\n      sload\n      swap1\n      pop\n        /* \"contracts/ddddd.sol\":9219:9220  i */\n      dup2\n        /* \"contracts/ddddd.sol\":9219:9240  i < doctorList.length */\n      lt\n        /* \"contracts/ddddd.sol\":9202:9417  for (uint i = 0; i < doctorList.length; i++) {\r... */\n      iszero\n      tag_270\n      jumpi\n        /* \"contracts/ddddd.sol\":9288:9292  true */\n      0x1\n        /* \"contracts/ddddd.sol\":9266:9292  isDoctor[_address] == true */\n      iszero\n      iszero\n        /* \"contracts/ddddd.sol\":9266:9274  isDoctor */\n      0x9\n        /* \"contracts/ddddd.sol\":9266:9284  isDoctor[_address] */\n      0x0\n        /* \"contracts/ddddd.sol\":9275:9283  _address */\n      dup6\n        /* \"contracts/ddddd.sol\":9266:9284  isDoctor[_address] */\n      0xffffffffffffffffffffffffffffffffffffffff\n      and\n      0xffffffffffffffffffffffffffffffffffffffff\n      and\n      dup2\n      mstore\n      0x20\n      add\n      swap1\n      dup2\n      mstore\n      0x20\n      add\n      0x0\n      keccak256\n      0x0\n      swap1\n      sload\n      swap1\n      0x100\n      exp\n      swap1\n      div\n      0xff\n      and\n        /* \"contracts/ddddd.sol\":9266:9292  isDoctor[_address] == true */\n      iszero\n      iszero\n      eq\n        /* \"contracts/ddddd.sol\":9262:9406  if (isDoctor[_address] == true) {\r... */\n      iszero\n      tag_272\n      jumpi\n        /* \"contracts/ddddd.sol\":9320:9324  true */\n      0x1\n        /* \"contracts/ddddd.sol\":9313:9324  return true */\n      swap2\n      pop\n      jump(tag_268)\n        /* \"contracts/ddddd.sol\":9262:9406  if (isDoctor[_address] == true) {\r... */\n    tag_272:\n        /* \"contracts/ddddd.sol\":9385:9390  false */\n      0x0\n        /* \"contracts/ddddd.sol\":9378:9390  return false */\n      swap2\n      pop\n      jump(tag_268)\n        /* \"contracts/ddddd.sol\":9202:9417  for (uint i = 0; i < doctorList.length; i++) {\r... */\n    tag_270:\n        /* \"contracts/ddddd.sol\":9118:9424  function checkDoctor(address _address) public view returns(bool success) {\r... */\n    tag_268:\n      pop\n      swap2\n      swap1\n      pop\n      jump\t// out\n        /* \"contracts/ddddd.sol\":6191:6535  function getVaccinationInfo(address _address) public view returns(string, string, string, string, uint256, address, address) {\r... */\n    tag_116:\n        /* \"contracts/ddddd.sol\":6257:6263  string */\n      0x60\n        /* \"contracts/ddddd.sol\":6265:6271  string */\n      dup1\n        /* \"contracts/ddddd.sol\":6273:6279  string */\n      0x60\n        /* \"contracts/ddddd.sol\":6281:6287  string */\n      dup1\n        /* \"contracts/ddddd.sol\":6289:6296  uint256 */\n      0x0\n        /* \"contracts/ddddd.sol\":6298:6305  address */\n      dup1\n        /* \"contracts/ddddd.sol\":6307:6314  address */\n      0x0\n        /* \"contracts/ddddd.sol\":6379:6384  var v */\n      dup1\n        /* \"contracts/ddddd.sol\":6335:6345  isApproved */\n      0x7\n        /* \"contracts/ddddd.sol\":6335:6355  isApproved[_address] */\n      0x0\n        /* \"contracts/ddddd.sol\":6346:6354  _address */\n      dup11\n        /* \"contracts/ddddd.sol\":6335:6355  isApproved[_address] */\n      0xffffffffffffffffffffffffffffffffffffffff\n      and\n      0xffffffffffffffffffffffffffffffffffffffff\n      and\n      dup2\n      mstore\n      0x20\n      add\n      swap1\n      dup2\n      mstore\n      0x20\n      add\n      0x0\n      keccak256\n        /* \"contracts/ddddd.sol\":6335:6367  isApproved[_address][msg.sender] */\n      0x0\n        /* \"contracts/ddddd.sol\":6356:6366  msg.sender */\n      caller\n        /* \"contracts/ddddd.sol\":6335:6367  isApproved[_address][msg.sender] */\n      0xffffffffffffffffffffffffffffffffffffffff\n      and\n      0xffffffffffffffffffffffffffffffffffffffff\n      and\n      dup2\n      mstore\n      0x20\n      add\n      swap1\n      dup2\n      mstore\n      0x20\n      add\n      0x0\n      keccak256\n      0x0\n      swap1\n      sload\n      swap1\n      0x100\n      exp\n      swap1\n      div\n      0xff\n      and\n        /* \"contracts/ddddd.sol\":6327:6368  require(isApproved[_address][msg.sender]) */\n      iszero\n      iszero\n      tag_275\n      jumpi\n      0x0\n      dup1\n      revert\n    tag_275:\n        /* \"contracts/ddddd.sol\":6387:6398  vaccination */\n      0x6\n        /* \"contracts/ddddd.sol\":6387:6408  vaccination[_address] */\n      0x0\n        /* \"contracts/ddddd.sol\":6399:6407  _address */\n      dup11\n        /* \"contracts/ddddd.sol\":6387:6408  vaccination[_address] */\n      0xffffffffffffffffffffffffffffffffffffffff\n      and\n      0xffffffffffffffffffffffffffffffffffffffff\n      and\n      dup2\n      mstore\n      0x20\n      add\n      swap1\n      dup2\n      mstore\n      0x20\n      add\n      0x0\n      keccak256\n        /* \"contracts/ddddd.sol\":6379:6408  var v = vaccination[_address] */\n      swap1\n      pop\n        /* \"contracts/ddddd.sol\":6427:6428  v */\n      dup1\n        /* \"contracts/ddddd.sol\":6427:6436  v.vaccine */\n      0x1\n      add\n        /* \"contracts/ddddd.sol\":6438:6439  v */\n      dup2\n        /* \"contracts/ddddd.sol\":6438:6444  v.name */\n      0x0\n      add\n        /* \"contracts/ddddd.sol\":6446:6447  v */\n      dup3\n        /* \"contracts/ddddd.sol\":6446:6459  v.description */\n      0x2\n      add\n        /* \"contracts/ddddd.sol\":6461:6462  v */\n      dup4\n        /* \"contracts/ddddd.sol\":6461:6476  v.typeOfVaccine */\n      0x3\n      add\n        /* \"contracts/ddddd.sol\":6478:6479  v */\n      dup5\n        /* \"contracts/ddddd.sol\":6478:6492  v.creationDate */\n      0x4\n      add\n      sload\n        /* \"contracts/ddddd.sol\":6494:6495  v */\n      dup6\n        /* \"contracts/ddddd.sol\":6494:6508  v.userEadderss */\n      0x5\n      add\n      0x0\n      swap1\n      sload\n      swap1\n      0x100\n      exp\n      swap1\n      div\n      0xffffffffffffffffffffffffffffffffffffffff\n      and\n        /* \"contracts/ddddd.sol\":6510:6511  v */\n      dup7\n        /* \"contracts/ddddd.sol\":6510:6526  v.doctorEaddress */\n      0x6\n      add\n      0x0\n      swap1\n      sload\n      swap1\n      0x100\n      exp\n      swap1\n      div\n      0xffffffffffffffffffffffffffffffffffffffff\n      and\n        /* \"contracts/ddddd.sol\":6419:6527  return (v.vaccine, v.name, v.description, v.typeOfVaccine, v.creationDate, v.userEadderss, v.doctorEaddress) */\n      dup7\n      dup1\n      sload\n      0x1\n      dup2\n      0x1\n      and\n      iszero\n      0x100\n      mul\n      sub\n      and\n      0x2\n      swap1\n      div\n      dup1\n      0x1f\n      add\n      0x20\n      dup1\n      swap2\n      div\n      mul\n      0x20\n      add\n      mload(0x40)\n      swap1\n      dup2\n      add\n      0x40\n      mstore\n      dup1\n      swap3\n      swap2\n      swap1\n      dup2\n      dup2\n      mstore\n      0x20\n      add\n      dup3\n      dup1\n      sload\n      0x1\n      dup2\n      0x1\n      and\n      iszero\n      0x100\n      mul\n      sub\n      and\n      0x2\n      swap1\n      div\n      dup1\n      iszero\n      tag_276\n      jumpi\n      dup1\n      0x1f\n      lt\n      tag_277\n      jumpi\n      0x100\n      dup1\n      dup4\n      sload\n      div\n      mul\n      dup4\n      mstore\n      swap2\n      0x20\n      add\n      swap2\n      jump(tag_276)\n    tag_277:\n      dup3\n      add\n      swap2\n      swap1\n      0x0\n      mstore\n      keccak256(0x0, 0x20)\n      swap1\n    tag_278:\n      dup2\n      sload\n      dup2\n      mstore\n      swap1\n      0x1\n      add\n      swap1\n      0x20\n      add\n      dup1\n      dup4\n      gt\n      tag_278\n      jumpi\n      dup3\n      swap1\n      sub\n      0x1f\n      and\n      dup3\n      add\n      swap2\n    tag_276:\n      pop\n      pop\n      pop\n      pop\n      pop\n      swap7\n      pop\n      dup6\n      dup1\n      sload\n      0x1\n      dup2\n      0x1\n      and\n      iszero\n      0x100\n      mul\n      sub\n      and\n      0x2\n      swap1\n      div\n      dup1\n      0x1f\n      add\n      0x20\n      dup1\n      swap2\n      div\n      mul\n      0x20\n      add\n      mload(0x40)\n      swap1\n      dup2\n      add\n      0x40\n      mstore\n      dup1\n      swap3\n      swap2\n      swap1\n      dup2\n      dup2\n      mstore\n      0x20\n      add\n      dup3\n      dup1\n      sload\n      0x1\n      dup2\n      0x1\n      and\n      iszero\n      0x100\n      mul\n      sub\n      and\n      0x2\n      swap1\n      div\n      dup1\n      iszero\n      tag_279\n      jumpi\n      dup1\n      0x1f\n      lt\n      tag_280\n      jumpi\n      0x100\n      dup1\n      dup4\n      sload\n      div\n      mul\n      dup4\n      mstore\n      swap2\n      0x20\n      add\n      swap2\n      jump(tag_279)\n    tag_280:\n      dup3\n      add\n      swap2\n      swap1\n      0x0\n      mstore\n      keccak256(0x0, 0x20)\n      swap1\n    tag_281:\n      dup2\n      sload\n      dup2\n      mstore\n      swap1\n      0x1\n      add\n      swap1\n      0x20\n      add\n      dup1\n      dup4\n      gt\n      tag_281\n      jumpi\n      dup3\n      swap1\n      sub\n      0x1f\n      and\n      dup3\n      add\n      swap2\n    tag_279:\n      pop\n      pop\n      pop\n      pop\n      pop\n      swap6\n      pop\n      dup5\n      dup1\n      sload\n      0x1\n      dup2\n      0x1\n      and\n      iszero\n      0x100\n      mul\n      sub\n      and\n      0x2\n      swap1\n      div\n      dup1\n      0x1f\n      add\n      0x20\n      dup1\n      swap2\n      div\n      mul\n      0x20\n      add\n      mload(0x40)\n      swap1\n      dup2\n      add\n      0x40\n      mstore\n      dup1\n      swap3\n      swap2\n      swap1\n      dup2\n      dup2\n      mstore\n      0x20\n      add\n      dup3\n      dup1\n      sload\n      0x1\n      dup2\n      0x1\n      and\n      iszero\n      0x100\n      mul\n      sub\n      and\n      0x2\n      swap1\n      div\n      dup1\n      iszero\n      tag_282\n      jumpi\n      dup1\n      0x1f\n      lt\n      tag_283\n      jumpi\n      0x100\n      dup1\n      dup4\n      sload\n      div\n      mul\n      dup4\n      mstore\n      swap2\n      0x20\n      add\n      swap2\n      jump(tag_282)\n    tag_283:\n      dup3\n      add\n      swap2\n      swap1\n      0x0\n      mstore\n      keccak256(0x0, 0x20)\n      swap1\n    tag_284:\n      dup2\n      sload\n      dup2\n      mstore\n      swap1\n      0x1\n      add\n      swap1\n      0x20\n      add\n      dup1\n      dup4\n      gt\n      tag_284\n      jumpi\n      dup3\n      swap1\n      sub\n      0x1f\n      and\n      dup3\n      add\n      swap2\n    tag_282:\n      pop\n      pop\n      pop\n      pop\n      pop\n      swap5\n      pop\n      dup4\n      dup1\n      sload\n      0x1\n      dup2\n      0x1\n      and\n      iszero\n      0x100\n      mul\n      sub\n      and\n      0x2\n      swap1\n      div\n      dup1\n      0x1f\n      add\n      0x20\n      dup1\n      swap2\n      div\n      mul\n      0x20\n      add\n      mload(0x40)\n      swap1\n      dup2\n      add\n      0x40\n      mstore\n      dup1\n      swap3\n      swap2\n      swap1\n      dup2\n      dup2\n      mstore\n      0x20\n      add\n      dup3\n      dup1\n      sload\n      0x1\n      dup2\n      0x1\n      and\n      iszero\n      0x100\n      mul\n      sub\n      and\n      0x2\n      swap1\n      div\n      dup1\n      iszero\n      tag_285\n      jumpi\n      dup1\n      0x1f\n      lt\n      tag_286\n      jumpi\n      0x100\n      dup1\n      dup4\n      sload\n      div\n      mul\n      dup4\n      mstore\n      swap2\n      0x20\n      add\n      swap2\n      jump(tag_285)\n    tag_286:\n      dup3\n      add\n      swap2\n      swap1\n      0x0\n      mstore\n      keccak256(0x0, 0x20)\n      swap1\n    tag_287:\n      dup2\n      sload\n      dup2\n      mstore\n      swap1\n      0x1\n      add\n      swap1\n      0x20\n      add\n      dup1\n      dup4\n      gt\n      tag_287\n      jumpi\n      dup3\n      swap1\n      sub\n      0x1f\n      and\n      dup3\n      add\n      swap2\n    tag_285:\n      pop\n      pop\n      pop\n      pop\n      pop\n      swap4\n      pop\n      swap8\n      pop\n      swap8\n      pop\n      swap8\n      pop\n      swap8\n      pop\n      swap8\n      pop\n      swap8\n      pop\n      swap8\n      pop\n        /* \"contracts/ddddd.sol\":6191:6535  function getVaccinationInfo(address _address) public view returns(string, string, string, string, uint256, address, address) {\r... */\n      pop\n      swap2\n      swap4\n      swap6\n      swap8\n      swap1\n      swap3\n      swap5\n      swap7\n      pop\n      jump\t// out\n        /* \"contracts/ddddd.sol\":1036:1056  address public owner */\n    tag_121:\n      0x0\n      dup1\n      swap1\n      sload\n      swap1\n      0x100\n      exp\n      swap1\n      div\n      0xffffffffffffffffffffffffffffffffffffffff\n      and\n      dup2\n      jump\t// out\n        /* \"contracts/ddddd.sol\":1798:1842  uint256 public vaccinationRecordsCounter = 0 */\n    tag_125:\n      sload(0xf)\n      dup2\n      jump\t// out\n        /* \"contracts/ddddd.sol\":1705:1744  uint256 public MoHPermissionCounter = 0 */\n    tag_129:\n      sload(0xd)\n      dup2\n      jump\t// out\n        /* \"contracts/ddddd.sol\":1063:1088  address[] public userList */\n    tag_134:\n      0x1\n      dup2\n      dup2\n      sload\n      dup2\n      lt\n      iszero\n      iszero\n      tag_288\n      jumpi\n      invalid\n    tag_288:\n      swap1\n      0x0\n      mstore\n      keccak256(0x0, 0x20)\n      add\n      0x0\n      swap2\n      pop\n      sload\n      swap1\n      0x100\n      exp\n      swap1\n      div\n      0xffffffffffffffffffffffffffffffffffffffff\n      and\n      dup2\n      jump\t// out\n        /* \"contracts/ddddd.sol\":7497:7586  function getDoctors() public view returns(address[]) {\r... */\n    tag_138:\n        /* \"contracts/ddddd.sol\":7539:7548  address[] */\n      0x60\n        /* \"contracts/ddddd.sol\":7568:7578  doctorList */\n      0x2\n        /* \"contracts/ddddd.sol\":7561:7578  return doctorList */\n      dup1\n      sload\n      dup1\n      0x20\n      mul\n      0x20\n      add\n      mload(0x40)\n      swap1\n      dup2\n      add\n      0x40\n      mstore\n      dup1\n      swap3\n      swap2\n      swap1\n      dup2\n      dup2\n      mstore\n      0x20\n      add\n      dup3\n      dup1\n      sload\n      dup1\n      iszero\n      tag_291\n      jumpi\n      0x20\n      mul\n      dup3\n      add\n      swap2\n      swap1\n      0x0\n      mstore\n      keccak256(0x0, 0x20)\n      swap1\n    tag_292:\n      dup2\n      0x0\n      swap1\n      sload\n      swap1\n      0x100\n      exp\n      swap1\n      div\n      0xffffffffffffffffffffffffffffffffffffffff\n      and\n      0xffffffffffffffffffffffffffffffffffffffff\n      and\n      dup2\n      mstore\n      0x20\n      add\n      swap1\n      0x1\n      add\n      swap1\n      dup1\n      dup4\n      gt\n      tag_292\n      jumpi\n    tag_291:\n      pop\n      pop\n      pop\n      pop\n      pop\n      swap1\n      pop\n        /* \"contracts/ddddd.sol\":7497:7586  function getDoctors() public view returns(address[]) {\r... */\n      swap1\n      jump\t// out\n        /* \"contracts/ddddd.sol\":8678:8766  function getUserCount() public view returns(uint256) {\r... */\n    tag_142:\n        /* \"contracts/ddddd.sol\":8722:8729  uint256 */\n      0x0\n        /* \"contracts/ddddd.sol\":8749:8758  userCount */\n      sload(0xb)\n        /* \"contracts/ddddd.sol\":8742:8758  return userCount */\n      swap1\n      pop\n        /* \"contracts/ddddd.sol\":8678:8766  function getUserCount() public view returns(uint256) {\r... */\n      swap1\n      jump\t// out\n        /* \"contracts/ddddd.sol\":1851:1920  address public mohAdress = 0xc50C6297f56b033633C30354A854b074749cd2dC */\n    tag_146:\n      0x10\n      0x0\n      swap1\n      sload\n      swap1\n      0x100\n      exp\n      swap1\n      div\n      0xffffffffffffffffffffffffffffffffffffffff\n      and\n      dup2\n      jump\t// out\n        /* \"contracts/ddddd.sol\":7172:7392  function MoHRevokePermission(address _address1, address _address2) public returns(bool success) {\r... */\n    tag_152:\n        /* \"contracts/ddddd.sol\":7254:7266  bool success */\n      0x0\n        /* \"contracts/ddddd.sol\":7301:7310  mohAdress */\n      0x10\n      0x0\n      swap1\n      sload\n      swap1\n      0x100\n      exp\n      swap1\n      div\n      0xffffffffffffffffffffffffffffffffffffffff\n      and\n        /* \"contracts/ddddd.sol\":7287:7310  msg.sender == mohAdress */\n      0xffffffffffffffffffffffffffffffffffffffff\n      and\n        /* \"contracts/ddddd.sol\":7287:7297  msg.sender */\n      caller\n        /* \"contracts/ddddd.sol\":7287:7310  msg.sender == mohAdress */\n      0xffffffffffffffffffffffffffffffffffffffff\n      and\n      eq\n        /* \"contracts/ddddd.sol\":7279:7311  require(msg.sender == mohAdress) */\n      iszero\n      iszero\n      tag_295\n      jumpi\n      0x0\n      dup1\n      revert\n    tag_295:\n        /* \"contracts/ddddd.sol\":7357:7362  false */\n      0x0\n        /* \"contracts/ddddd.sol\":7322:7332  isApproved */\n      0x7\n        /* \"contracts/ddddd.sol\":7322:7343  isApproved[_address1] */\n      0x0\n        /* \"contracts/ddddd.sol\":7333:7342  _address1 */\n      dup6\n        /* \"contracts/ddddd.sol\":7322:7343  isApproved[_address1] */\n      0xffffffffffffffffffffffffffffffffffffffff\n      and\n      0xffffffffffffffffffffffffffffffffffffffff\n      and\n      dup2\n      mstore\n      0x20\n      add\n      swap1\n      dup2\n      mstore\n      0x20\n      add\n      0x0\n      keccak256\n        /* \"contracts/ddddd.sol\":7322:7354  isApproved[_address1][_address2] */\n      0x0\n        /* \"contracts/ddddd.sol\":7344:7353  _address2 */\n      dup5\n        /* \"contracts/ddddd.sol\":7322:7354  isApproved[_address1][_address2] */\n      0xffffffffffffffffffffffffffffffffffffffff\n      and\n      0xffffffffffffffffffffffffffffffffffffffff\n      and\n      dup2\n      mstore\n      0x20\n      add\n      swap1\n      dup2\n      mstore\n      0x20\n      add\n      0x0\n      keccak256\n      0x0\n        /* \"contracts/ddddd.sol\":7322:7362  isApproved[_address1][_address2] = false */\n      0x100\n      exp\n      dup2\n      sload\n      dup2\n      0xff\n      mul\n      not\n      and\n      swap1\n      dup4\n      iszero\n      iszero\n      mul\n      or\n      swap1\n      sstore\n      pop\n        /* \"contracts/ddddd.sol\":7380:7384  true */\n      0x1\n        /* \"contracts/ddddd.sol\":7373:7384  return true */\n      swap1\n      pop\n        /* \"contracts/ddddd.sol\":7172:7392  function MoHRevokePermission(address _address1, address _address2) public returns(bool success) {\r... */\n      swap3\n      swap2\n      pop\n      pop\n      jump\t// out\n        /* \"contracts/ddddd.sol\":1751:1791  uint256 public userPermissionCounter = 0 */\n    tag_156:\n      sload(0xe)\n      dup2\n      jump\t// out\n        /* \"contracts/ddddd.sol\":8293:8662  function searchDoctor(address _address) public view returns(string, string, string, string, string, string, string, address) {\r... */\n    tag_161:\n        /* \"contracts/ddddd.sol\":8353:8359  string */\n      0x60\n        /* \"contracts/ddddd.sol\":8361:8367  string */\n      dup1\n        /* \"contracts/ddddd.sol\":8369:8375  string */\n      0x60\n        /* \"contracts/ddddd.sol\":8377:8383  string */\n      dup1\n        /* \"contracts/ddddd.sol\":8385:8391  string */\n      0x60\n        /* \"contracts/ddddd.sol\":8393:8399  string */\n      dup1\n        /* \"contracts/ddddd.sol\":8401:8407  string */\n      0x60\n        /* \"contracts/ddddd.sol\":8409:8416  address */\n      0x0\n        /* \"contracts/ddddd.sol\":8519:8524  var d */\n      dup1\n        /* \"contracts/ddddd.sol\":8437:8447  isApproved */\n      0x7\n        /* \"contracts/ddddd.sol\":8437:8457  isApproved[_address] */\n      0x0\n        /* \"contracts/ddddd.sol\":8448:8456  _address */\n      dup12\n        /* \"contracts/ddddd.sol\":8437:8457  isApproved[_address] */\n      0xffffffffffffffffffffffffffffffffffffffff\n      and\n      0xffffffffffffffffffffffffffffffffffffffff\n      and\n      dup2\n      mstore\n      0x20\n      add\n      swap1\n      dup2\n      mstore\n      0x20\n      add\n      0x0\n      keccak256\n        /* \"contracts/ddddd.sol\":8437:8469  isApproved[_address][msg.sender] */\n      0x0\n        /* \"contracts/ddddd.sol\":8458:8468  msg.sender */\n      caller\n        /* \"contracts/ddddd.sol\":8437:8469  isApproved[_address][msg.sender] */\n      0xffffffffffffffffffffffffffffffffffffffff\n      and\n      0xffffffffffffffffffffffffffffffffffffffff\n      and\n      dup2\n      mstore\n      0x20\n      add\n      swap1\n      dup2\n      mstore\n      0x20\n      add\n      0x0\n      keccak256\n      0x0\n      swap1\n      sload\n      swap1\n      0x100\n      exp\n      swap1\n      div\n      0xff\n      and\n        /* \"contracts/ddddd.sol\":8429:8470  require(isApproved[_address][msg.sender]) */\n      iszero\n      iszero\n      tag_297\n      jumpi\n      0x0\n      dup1\n      revert\n    tag_297:\n        /* \"contracts/ddddd.sol\":8489:8497  isDoctor */\n      0x9\n        /* \"contracts/ddddd.sol\":8489:8507  isDoctor[_address] */\n      0x0\n        /* \"contracts/ddddd.sol\":8498:8506  _address */\n      dup12\n        /* \"contracts/ddddd.sol\":8489:8507  isDoctor[_address] */\n      0xffffffffffffffffffffffffffffffffffffffff\n      and\n      0xffffffffffffffffffffffffffffffffffffffff\n      and\n      dup2\n      mstore\n      0x20\n      add\n      swap1\n      dup2\n      mstore\n      0x20\n      add\n      0x0\n      keccak256\n      0x0\n      swap1\n      sload\n      swap1\n      0x100\n      exp\n      swap1\n      div\n      0xff\n      and\n        /* \"contracts/ddddd.sol\":8481:8508  require(isDoctor[_address]) */\n      iszero\n      iszero\n      tag_298\n      jumpi\n      0x0\n      dup1\n      revert\n    tag_298:\n        /* \"contracts/ddddd.sol\":8527:8533  doctor */\n      0x5\n        /* \"contracts/ddddd.sol\":8527:8543  doctor[_address] */\n      0x0\n        /* \"contracts/ddddd.sol\":8534:8542  _address */\n      dup12\n        /* \"contracts/ddddd.sol\":8527:8543  doctor[_address] */\n      0xffffffffffffffffffffffffffffffffffffffff\n      and\n      0xffffffffffffffffffffffffffffffffffffffff\n      and\n      dup2\n      mstore\n      0x20\n      add\n      swap1\n      dup2\n      mstore\n      0x20\n      add\n      0x0\n      keccak256\n        /* \"contracts/ddddd.sol\":8519:8543  var d = doctor[_address] */\n      swap1\n      pop\n        /* \"contracts/ddddd.sol\":8572:8573  d */\n      dup1\n        /* \"contracts/ddddd.sol\":8572:8579  d.uaeId */\n      0x0\n      add\n        /* \"contracts/ddddd.sol\":8581:8582  d */\n      dup2\n        /* \"contracts/ddddd.sol\":8581:8587  d.name */\n      0x1\n      add\n        /* \"contracts/ddddd.sol\":8589:8590  d */\n      dup3\n        /* \"contracts/ddddd.sol\":8589:8596  d.phone */\n      0x2\n      add\n        /* \"contracts/ddddd.sol\":8598:8599  d */\n      dup4\n        /* \"contracts/ddddd.sol\":8598:8606  d.gender */\n      0x3\n      add\n        /* \"contracts/ddddd.sol\":8608:8609  d */\n      dup5\n        /* \"contracts/ddddd.sol\":8608:8615  d.email */\n      0x5\n      add\n        /* \"contracts/ddddd.sol\":8617:8618  d */\n      dup6\n        /* \"contracts/ddddd.sol\":8617:8632  d.qualification */\n      0x6\n      add\n        /* \"contracts/ddddd.sol\":8634:8635  d */\n      dup7\n        /* \"contracts/ddddd.sol\":8634:8641  d.major */\n      0x7\n      add\n        /* \"contracts/ddddd.sol\":8643:8644  d */\n      dup8\n        /* \"contracts/ddddd.sol\":8643:8653  d.eAddress */\n      0x8\n      add\n      0x0\n      swap1\n      sload\n      swap1\n      0x100\n      exp\n      swap1\n      div\n      0xffffffffffffffffffffffffffffffffffffffff\n      and\n        /* \"contracts/ddddd.sol\":8564:8654  return (d.uaeId, d.name, d.phone, d.gender, d.email, d.qualification, d.major, d.eAddress) */\n      dup8\n      dup1\n      sload\n      0x1\n      dup2\n      0x1\n      and\n      iszero\n      0x100\n      mul\n      sub\n      and\n      0x2\n      swap1\n      div\n      dup1\n      0x1f\n      add\n      0x20\n      dup1\n      swap2\n      div\n      mul\n      0x20\n      add\n      mload(0x40)\n      swap1\n      dup2\n      add\n      0x40\n      mstore\n      dup1\n      swap3\n      swap2\n      swap1\n      dup2\n      dup2\n      mstore\n      0x20\n      add\n      dup3\n      dup1\n      sload\n      0x1\n      dup2\n      0x1\n      and\n      iszero\n      0x100\n      mul\n      sub\n      and\n      0x2\n      swap1\n      div\n      dup1\n      iszero\n      tag_299\n      jumpi\n      dup1\n      0x1f\n      lt\n      tag_300\n      jumpi\n      0x100\n      dup1\n      dup4\n      sload\n      div\n      mul\n      dup4\n      mstore\n      swap2\n      0x20\n      add\n      swap2\n      jump(tag_299)\n    tag_300:\n      dup3\n      add\n      swap2\n      swap1\n      0x0\n      mstore\n      keccak256(0x0, 0x20)\n      swap1\n    tag_301:\n      dup2\n      sload\n      dup2\n      mstore\n      swap1\n      0x1\n      add\n      swap1\n      0x20\n      add\n      dup1\n      dup4\n      gt\n      tag_301\n      jumpi\n      dup3\n      swap1\n      sub\n      0x1f\n      and\n      dup3\n      add\n      swap2\n    tag_299:\n      pop\n      pop\n      pop\n      pop\n      pop\n      swap8\n      pop\n      dup7\n      dup1\n      sload\n      0x1\n      dup2\n      0x1\n      and\n      iszero\n      0x100\n      mul\n      sub\n      and\n      0x2\n      swap1\n      div\n      dup1\n      0x1f\n      add\n      0x20\n      dup1\n      swap2\n      div\n      mul\n      0x20\n      add\n      mload(0x40)\n      swap1\n      dup2\n      add\n      0x40\n      mstore\n      dup1\n      swap3\n      swap2\n      swap1\n      dup2\n      dup2\n      mstore\n      0x20\n      add\n      dup3\n      dup1\n      sload\n      0x1\n      dup2\n      0x1\n      and\n      iszero\n      0x100\n      mul\n      sub\n      and\n      0x2\n      swap1\n      div\n      dup1\n      iszero\n      tag_302\n      jumpi\n      dup1\n      0x1f\n      lt\n      tag_303\n      jumpi\n      0x100\n      dup1\n      dup4\n      sload\n      div\n      mul\n      dup4\n      mstore\n      swap2\n      0x20\n      add\n      swap2\n      jump(tag_302)\n    tag_303:\n      dup3\n      add\n      swap2\n      swap1\n      0x0\n      mstore\n      keccak256(0x0, 0x20)\n      swap1\n    tag_304:\n      dup2\n      sload\n      dup2\n      mstore\n      swap1\n      0x1\n      add\n      swap1\n      0x20\n      add\n      dup1\n      dup4\n      gt\n      tag_304\n      jumpi\n      dup3\n      swap1\n      sub\n      0x1f\n      and\n      dup3\n      add\n      swap2\n    tag_302:\n      pop\n      pop\n      pop\n      pop\n      pop\n      swap7\n      pop\n      dup6\n      dup1\n      sload\n      0x1\n      dup2\n      0x1\n      and\n      iszero\n      0x100\n      mul\n      sub\n      and\n      0x2\n      swap1\n      div\n      dup1\n      0x1f\n      add\n      0x20\n      dup1\n      swap2\n      div\n      mul\n      0x20\n      add\n      mload(0x40)\n      swap1\n      dup2\n      add\n      0x40\n      mstore\n      dup1\n      swap3\n      swap2\n      swap1\n      dup2\n      dup2\n      mstore\n      0x20\n      add\n      dup3\n      dup1\n      sload\n      0x1\n      dup2\n      0x1\n      and\n      iszero\n      0x100\n      mul\n      sub\n      and\n      0x2\n      swap1\n      div\n      dup1\n      iszero\n      tag_305\n      jumpi\n      dup1\n      0x1f\n      lt\n      tag_306\n      jumpi\n      0x100\n      dup1\n      dup4\n      sload\n      div\n      mul\n      dup4\n      mstore\n      swap2\n      0x20\n      add\n      swap2\n      jump(tag_305)\n    tag_306:\n      dup3\n      add\n      swap2\n      swap1\n      0x0\n      mstore\n      keccak256(0x0, 0x20)\n      swap1\n    tag_307:\n      dup2\n      sload\n      dup2\n      mstore\n      swap1\n      0x1\n      add\n      swap1\n      0x20\n      add\n      dup1\n      dup4\n      gt\n      tag_307\n      jumpi\n      dup3\n      swap1\n      sub\n      0x1f\n      and\n      dup3\n      add\n      swap2\n    tag_305:\n      pop\n      pop\n      pop\n      pop\n      pop\n      swap6\n      pop\n      dup5\n      dup1\n      sload\n      0x1\n      dup2\n      0x1\n      and\n      iszero\n      0x100\n      mul\n      sub\n      and\n      0x2\n      swap1\n      div\n      dup1\n      0x1f\n      add\n      0x20\n      dup1\n      swap2\n      div\n      mul\n      0x20\n      add\n      mload(0x40)\n      swap1\n      dup2\n      add\n      0x40\n      mstore\n      dup1\n      swap3\n      swap2\n      swap1\n      dup2\n      dup2\n      mstore\n      0x20\n      add\n      dup3\n      dup1\n      sload\n      0x1\n      dup2\n      0x1\n      and\n      iszero\n      0x100\n      mul\n      sub\n      and\n      0x2\n      swap1\n      div\n      dup1\n      iszero\n      tag_308\n      jumpi\n      dup1\n      0x1f\n      lt\n      tag_309\n      jumpi\n      0x100\n      dup1\n      dup4\n      sload\n      div\n      mul\n      dup4\n      mstore\n      swap2\n      0x20\n      add\n      swap2\n      jump(tag_308)\n    tag_309:\n      dup3\n      add\n      swap2\n      swap1\n      0x0\n      mstore\n      keccak256(0x0, 0x20)\n      swap1\n    tag_310:\n      dup2\n      sload\n      dup2\n      mstore\n      swap1\n      0x1\n      add\n      swap1\n      0x20\n      add\n      dup1\n      dup4\n      gt\n      tag_310\n      jumpi\n      dup3\n      swap1\n      sub\n      0x1f\n      and\n      dup3\n      add\n      swap2\n    tag_308:\n      pop\n      pop\n      pop\n      pop\n      pop\n      swap5\n      pop\n      dup4\n      dup1\n      sload\n      0x1\n      dup2\n      0x1\n      and\n      iszero\n      0x100\n      mul\n      sub\n      and\n      0x2\n      swap1\n      div\n      dup1\n      0x1f\n      add\n      0x20\n      dup1\n      swap2\n      div\n      mul\n      0x20\n      add\n      mload(0x40)\n      swap1\n      dup2\n      add\n      0x40\n      mstore\n      dup1\n      swap3\n      swap2\n      swap1\n      dup2\n      dup2\n      mstore\n      0x20\n      add\n      dup3\n      dup1\n      sload\n      0x1\n      dup2\n      0x1\n      and\n      iszero\n      0x100\n      mul\n      sub\n      and\n      0x2\n      swap1\n      div\n      dup1\n      iszero\n      tag_311\n      jumpi\n      dup1\n      0x1f\n      lt\n      tag_312\n      jumpi\n      0x100\n      dup1\n      dup4\n      sload\n      div\n      mul\n      dup4\n      mstore\n      swap2\n      0x20\n      add\n      swap2\n      jump(tag_311)\n    tag_312:\n      dup3\n      add\n      swap2\n      swap1\n      0x0\n      mstore\n      keccak256(0x0, 0x20)\n      swap1\n    tag_313:\n      dup2\n      sload\n      dup2\n      mstore\n      swap1\n      0x1\n      add\n      swap1\n      0x20\n      add\n      dup1\n      dup4\n      gt\n      tag_313\n      jumpi\n      dup3\n      swap1\n      sub\n      0x1f\n      and\n      dup3\n      add\n      swap2\n    tag_311:\n      pop\n      pop\n      pop\n      pop\n      pop\n      swap4\n      pop\n      dup3\n      dup1\n      sload\n      0x1\n      dup2\n      0x1\n      and\n      iszero\n      0x100\n      mul\n      sub\n      and\n      0x2\n      swap1\n      div\n      dup1\n      0x1f\n      add\n      0x20\n      dup1\n      swap2\n      div\n      mul\n      0x20\n      add\n      mload(0x40)\n      swap1\n      dup2\n      add\n      0x40\n      mstore\n      dup1\n      swap3\n      swap2\n      swap1\n      dup2\n      dup2\n      mstore\n      0x20\n      add\n      dup3\n      dup1\n      sload\n      0x1\n      dup2\n      0x1\n      and\n      iszero\n      0x100\n      mul\n      sub\n      and\n      0x2\n      swap1\n      div\n      dup1\n      iszero\n      tag_314\n      jumpi\n      dup1\n      0x1f\n      lt\n      tag_315\n      jumpi\n      0x100\n      dup1\n      dup4\n      sload\n      div\n      mul\n      dup4\n      mstore\n      swap2\n      0x20\n      add\n      swap2\n      jump(tag_314)\n    tag_315:\n      dup3\n      add\n      swap2\n      swap1\n      0x0\n      mstore\n      keccak256(0x0, 0x20)\n      swap1\n    tag_316:\n      dup2\n      sload\n      dup2\n      mstore\n      swap1\n      0x1\n      add\n      swap1\n      0x20\n      add\n      dup1\n      dup4\n      gt\n      tag_316\n      jumpi\n      dup3\n      swap1\n      sub\n      0x1f\n      and\n      dup3\n      add\n      swap2\n    tag_314:\n      pop\n      pop\n      pop\n      pop\n      pop\n      swap3\n      pop\n      dup2\n      dup1\n      sload\n      0x1\n      dup2\n      0x1\n      and\n      iszero\n      0x100\n      mul\n      sub\n      and\n      0x2\n      swap1\n      div\n      dup1\n      0x1f\n      add\n      0x20\n      dup1\n      swap2\n      div\n      mul\n      0x20\n      add\n      mload(0x40)\n      swap1\n      dup2\n      add\n      0x40\n      mstore\n      dup1\n      swap3\n      swap2\n      swap1\n      dup2\n      dup2\n      mstore\n      0x20\n      add\n      dup3\n      dup1\n      sload\n      0x1\n      dup2\n      0x1\n      and\n      iszero\n      0x100\n      mul\n      sub\n      and\n      0x2\n      swap1\n      div\n      dup1\n      iszero\n      tag_317\n      jumpi\n      dup1\n      0x1f\n      lt\n      tag_318\n      jumpi\n      0x100\n      dup1\n      dup4\n      sload\n      div\n      mul\n      dup4\n      mstore\n      swap2\n      0x20\n      add\n      swap2\n      jump(tag_317)\n    tag_318:\n      dup3\n      add\n      swap2\n      swap1\n      0x0\n      mstore\n      keccak256(0x0, 0x20)\n      swap1\n    tag_319:\n      dup2\n      sload\n      dup2\n      mstore\n      swap1\n      0x1\n      add\n      swap1\n      0x20\n      add\n      dup1\n      dup4\n      gt\n      tag_319\n      jumpi\n      dup3\n      swap1\n      sub\n      0x1f\n      and\n      dup3\n      add\n      swap2\n    tag_317:\n      pop\n      pop\n      pop\n      pop\n      pop\n      swap2\n      pop\n      swap9\n      pop\n      swap9\n      pop\n      swap9\n      pop\n      swap9\n      pop\n      swap9\n      pop\n      swap9\n      pop\n      swap9\n      pop\n      swap9\n      pop\n        /* \"contracts/ddddd.sol\":8293:8662  function searchDoctor(address _address) public view returns(string, string, string, string, string, string, string, address) {\r... */\n      pop\n      swap2\n      swap4\n      swap6\n      swap8\n      pop\n      swap2\n      swap4\n      swap6\n      swap8\n      jump\t// out\n        /* \"contracts/ddddd.sol\":6744:6996  function givePermissionByMoH(address _address1, address _address2) public returns(bool success) {\r... */\n    tag_166:\n        /* \"contracts/ddddd.sol\":6826:6838  bool success */\n      0x0\n        /* \"contracts/ddddd.sol\":6873:6882  mohAdress */\n      0x10\n      0x0\n      swap1\n      sload\n      swap1\n      0x100\n      exp\n      swap1\n      div\n      0xffffffffffffffffffffffffffffffffffffffff\n      and\n        /* \"contracts/ddddd.sol\":6859:6882  msg.sender == mohAdress */\n      0xffffffffffffffffffffffffffffffffffffffff\n      and\n        /* \"contracts/ddddd.sol\":6859:6869  msg.sender */\n      caller\n        /* \"contracts/ddddd.sol\":6859:6882  msg.sender == mohAdress */\n      0xffffffffffffffffffffffffffffffffffffffff\n      and\n      eq\n        /* \"contracts/ddddd.sol\":6851:6883  require(msg.sender == mohAdress) */\n      iszero\n      iszero\n      tag_321\n      jumpi\n      0x0\n      dup1\n      revert\n    tag_321:\n        /* \"contracts/ddddd.sol\":6929:6933  true */\n      0x1\n        /* \"contracts/ddddd.sol\":6894:6904  isApproved */\n      0x7\n        /* \"contracts/ddddd.sol\":6894:6915  isApproved[_address1] */\n      0x0\n        /* \"contracts/ddddd.sol\":6905:6914  _address1 */\n      dup6\n        /* \"contracts/ddddd.sol\":6894:6915  isApproved[_address1] */\n      0xffffffffffffffffffffffffffffffffffffffff\n      and\n      0xffffffffffffffffffffffffffffffffffffffff\n      and\n      dup2\n      mstore\n      0x20\n      add\n      swap1\n      dup2\n      mstore\n      0x20\n      add\n      0x0\n      keccak256\n        /* \"contracts/ddddd.sol\":6894:6926  isApproved[_address1][_address2] */\n      0x0\n        /* \"contracts/ddddd.sol\":6916:6925  _address2 */\n      dup5\n        /* \"contracts/ddddd.sol\":6894:6926  isApproved[_address1][_address2] */\n      0xffffffffffffffffffffffffffffffffffffffff\n      and\n      0xffffffffffffffffffffffffffffffffffffffff\n      and\n      dup2\n      mstore\n      0x20\n      add\n      swap1\n      dup2\n      mstore\n      0x20\n      add\n      0x0\n      keccak256\n      0x0\n        /* \"contracts/ddddd.sol\":6894:6933  isApproved[_address1][_address2] = true */\n      0x100\n      exp\n      dup2\n      sload\n      dup2\n      0xff\n      mul\n      not\n      and\n      swap1\n      dup4\n      iszero\n      iszero\n      mul\n      or\n      swap1\n      sstore\n      pop\n        /* \"contracts/ddddd.sol\":6944:6964  MoHPermissionCounter */\n      0xd\n      0x0\n        /* \"contracts/ddddd.sol\":6944:6966  MoHPermissionCounter++ */\n      dup2\n      sload\n      dup1\n      swap3\n      swap2\n      swap1\n      0x1\n      add\n      swap2\n      swap1\n      pop\n      sstore\n      pop\n        /* \"contracts/ddddd.sol\":6984:6988  true */\n      0x1\n        /* \"contracts/ddddd.sol\":6977:6988  return true */\n      swap1\n      pop\n        /* \"contracts/ddddd.sol\":6744:6996  function givePermissionByMoH(address _address1, address _address2) public returns(bool success) {\r... */\n      swap3\n      swap2\n      pop\n      pop\n      jump\t// out\n        /* \"contracts/ddddd.sol\":9000:9110  function getMoHPermissionCounter() public view returns(uint256) {\r... */\n    tag_170:\n        /* \"contracts/ddddd.sol\":9055:9062  uint256 */\n      0x0\n        /* \"contracts/ddddd.sol\":9082:9102  MoHPermissionCounter */\n      sload(0xd)\n        /* \"contracts/ddddd.sol\":9075:9102  return MoHPermissionCounter */\n      swap1\n      pop\n        /* \"contracts/ddddd.sol\":9000:9110  function getMoHPermissionCounter() public view returns(uint256) {\r... */\n      swap1\n      jump\t// out\n        /* \"contracts/ddddd.sol\":1129:1161  address[] public vaccinationList */\n    tag_175:\n      0x3\n      dup2\n      dup2\n      sload\n      dup2\n      lt\n      iszero\n      iszero\n      tag_323\n      jumpi\n      invalid\n    tag_323:\n      swap1\n      0x0\n      mstore\n      keccak256(0x0, 0x20)\n      add\n      0x0\n      swap2\n      pop\n      sload\n      swap1\n      0x100\n      exp\n      swap1\n      div\n      0xffffffffffffffffffffffffffffffffffffffff\n      and\n      dup2\n      jump\t// out\n        /* \"contracts/ddddd.sol\":91:9427  contract ddddd {\r... */\n    tag_210:\n      dup3\n      dup1\n      sload\n      0x1\n      dup2\n      0x1\n      and\n      iszero\n      0x100\n      mul\n      sub\n      and\n      0x2\n      swap1\n      div\n      swap1\n      0x0\n      mstore\n      keccak256(0x0, 0x20)\n      swap1\n      0x1f\n      add\n      0x20\n      swap1\n      div\n      dup2\n      add\n      swap3\n      dup3\n      0x1f\n      lt\n      tag_326\n      jumpi\n      dup1\n      mload\n      not(0xff)\n      and\n      dup4\n      dup1\n      add\n      or\n      dup6\n      sstore\n      jump(tag_325)\n    tag_326:\n      dup3\n      dup1\n      add\n      0x1\n      add\n      dup6\n      sstore\n      dup3\n      iszero\n      tag_325\n      jumpi\n      swap2\n      dup3\n      add\n    tag_327:\n      dup3\n      dup2\n      gt\n      iszero\n      tag_328\n      jumpi\n      dup3\n      mload\n      dup3\n      sstore\n      swap2\n      0x20\n      add\n      swap2\n      swap1\n      0x1\n      add\n      swap1\n      jump(tag_327)\n    tag_328:\n    tag_325:\n      pop\n      swap1\n      pop\n      tag_329\n      swap2\n      swap1\n      jump\t// in(tag_330)\n    tag_329:\n      pop\n      swap1\n      jump\t// out\n    tag_330:\n      tag_331\n      swap2\n      swap1\n    tag_332:\n      dup1\n      dup3\n      gt\n      iszero\n      tag_333\n      jumpi\n      0x0\n      dup2\n      0x0\n      swap1\n      sstore\n      pop\n      0x1\n      add\n      jump(tag_332)\n    tag_333:\n      pop\n      swap1\n      jump\n    tag_331:\n      swap1\n      jump\t// out\n        /* \"--CODEGEN--\":5:123   */\n    tag_335:\n      0x0\n        /* \"--CODEGEN--\":72:118   */\n      tag_336\n        /* \"--CODEGEN--\":110:116   */\n      dup3\n        /* \"--CODEGEN--\":97:117   */\n      calldataload\n        /* \"--CODEGEN--\":72:118   */\n      jump(tag_337)\n    tag_336:\n        /* \"--CODEGEN--\":63:118   */\n      swap1\n      pop\n        /* \"--CODEGEN--\":57:123   */\n      swap3\n      swap2\n      pop\n      pop\n      jump\n        /* \"--CODEGEN--\":131:573   */\n    tag_339:\n      0x0\n        /* \"--CODEGEN--\":233:236   */\n      dup3\n        /* \"--CODEGEN--\":226:230   */\n      0x1f\n        /* \"--CODEGEN--\":218:224   */\n      dup4\n        /* \"--CODEGEN--\":214:231   */\n      add\n        /* \"--CODEGEN--\":210:237   */\n      slt\n        /* \"--CODEGEN--\":203:238   */\n      iszero\n        /* \"--CODEGEN--\":200:202   */\n      iszero\n      tag_340\n      jumpi\n        /* \"--CODEGEN--\":251:252   */\n      0x0\n        /* \"--CODEGEN--\":248:249   */\n      dup1\n        /* \"--CODEGEN--\":241:253   */\n      revert\n        /* \"--CODEGEN--\":200:202   */\n    tag_340:\n        /* \"--CODEGEN--\":288:294   */\n      dup2\n        /* \"--CODEGEN--\":275:295   */\n      calldataload\n        /* \"--CODEGEN--\":310:375   */\n      tag_341\n        /* \"--CODEGEN--\":325:374   */\n      tag_342\n        /* \"--CODEGEN--\":367:373   */\n      dup3\n        /* \"--CODEGEN--\":325:374   */\n      jump(tag_343)\n    tag_342:\n        /* \"--CODEGEN--\":310:375   */\n      jump(tag_344)\n    tag_341:\n        /* \"--CODEGEN--\":301:375   */\n      swap2\n      pop\n        /* \"--CODEGEN--\":395:401   */\n      dup1\n        /* \"--CODEGEN--\":388:393   */\n      dup3\n        /* \"--CODEGEN--\":381:402   */\n      mstore\n        /* \"--CODEGEN--\":431:435   */\n      0x20\n        /* \"--CODEGEN--\":423:429   */\n      dup4\n        /* \"--CODEGEN--\":419:436   */\n      add\n        /* \"--CODEGEN--\":464:468   */\n      0x20\n        /* \"--CODEGEN--\":457:462   */\n      dup4\n        /* \"--CODEGEN--\":453:469   */\n      add\n        /* \"--CODEGEN--\":499:502   */\n      dup6\n        /* \"--CODEGEN--\":490:496   */\n      dup4\n        /* \"--CODEGEN--\":485:488   */\n      dup4\n        /* \"--CODEGEN--\":481:497   */\n      add\n        /* \"--CODEGEN--\":478:503   */\n      gt\n        /* \"--CODEGEN--\":475:477   */\n      iszero\n      tag_345\n      jumpi\n        /* \"--CODEGEN--\":516:517   */\n      0x0\n        /* \"--CODEGEN--\":513:514   */\n      dup1\n        /* \"--CODEGEN--\":506:518   */\n      revert\n        /* \"--CODEGEN--\":475:477   */\n    tag_345:\n        /* \"--CODEGEN--\":526:567   */\n      tag_346\n        /* \"--CODEGEN--\":560:566   */\n      dup4\n        /* \"--CODEGEN--\":555:558   */\n      dup3\n        /* \"--CODEGEN--\":550:553   */\n      dup5\n        /* \"--CODEGEN--\":526:567   */\n      jump(tag_347)\n    tag_346:\n        /* \"--CODEGEN--\":193:573   */\n      pop\n      pop\n      pop\n      swap3\n      swap2\n      pop\n      pop\n      jump\n        /* \"--CODEGEN--\":581:699   */\n    tag_349:\n      0x0\n        /* \"--CODEGEN--\":648:694   */\n      tag_350\n        /* \"--CODEGEN--\":686:692   */\n      dup3\n        /* \"--CODEGEN--\":673:693   */\n      calldataload\n        /* \"--CODEGEN--\":648:694   */\n      jump(tag_351)\n    tag_350:\n        /* \"--CODEGEN--\":639:694   */\n      swap1\n      pop\n        /* \"--CODEGEN--\":633:699   */\n      swap3\n      swap2\n      pop\n      pop\n      jump\n        /* \"--CODEGEN--\":706:947   */\n    tag_45:\n      0x0\n        /* \"--CODEGEN--\":810:812   */\n      0x20\n        /* \"--CODEGEN--\":798:807   */\n      dup3\n        /* \"--CODEGEN--\":789:796   */\n      dup5\n        /* \"--CODEGEN--\":785:808   */\n      sub\n        /* \"--CODEGEN--\":781:813   */\n      slt\n        /* \"--CODEGEN--\":778:780   */\n      iszero\n      tag_353\n      jumpi\n        /* \"--CODEGEN--\":826:827   */\n      0x0\n        /* \"--CODEGEN--\":823:824   */\n      dup1\n        /* \"--CODEGEN--\":816:828   */\n      revert\n        /* \"--CODEGEN--\":778:780   */\n    tag_353:\n        /* \"--CODEGEN--\":861:862   */\n      0x0\n        /* \"--CODEGEN--\":878:931   */\n      tag_354\n        /* \"--CODEGEN--\":923:930   */\n      dup5\n        /* \"--CODEGEN--\":914:920   */\n      dup3\n        /* \"--CODEGEN--\":903:912   */\n      dup6\n        /* \"--CODEGEN--\":899:921   */\n      add\n        /* \"--CODEGEN--\":878:931   */\n      jump(tag_335)\n    tag_354:\n        /* \"--CODEGEN--\":868:931   */\n      swap2\n      pop\n        /* \"--CODEGEN--\":840:937   */\n      pop\n        /* \"--CODEGEN--\":772:947   */\n      swap3\n      swap2\n      pop\n      pop\n      jump\n        /* \"--CODEGEN--\":954:1320   */\n    tag_151:\n      0x0\n      dup1\n        /* \"--CODEGEN--\":1075:1077   */\n      0x40\n        /* \"--CODEGEN--\":1063:1072   */\n      dup4\n        /* \"--CODEGEN--\":1054:1061   */\n      dup6\n        /* \"--CODEGEN--\":1050:1073   */\n      sub\n        /* \"--CODEGEN--\":1046:1078   */\n      slt\n        /* \"--CODEGEN--\":1043:1045   */\n      iszero\n      tag_356\n      jumpi\n        /* \"--CODEGEN--\":1091:1092   */\n      0x0\n        /* \"--CODEGEN--\":1088:1089   */\n      dup1\n        /* \"--CODEGEN--\":1081:1093   */\n      revert\n        /* \"--CODEGEN--\":1043:1045   */\n    tag_356:\n        /* \"--CODEGEN--\":1126:1127   */\n      0x0\n        /* \"--CODEGEN--\":1143:1196   */\n      tag_357\n        /* \"--CODEGEN--\":1188:1195   */\n      dup6\n        /* \"--CODEGEN--\":1179:1185   */\n      dup3\n        /* \"--CODEGEN--\":1168:1177   */\n      dup7\n        /* \"--CODEGEN--\":1164:1186   */\n      add\n        /* \"--CODEGEN--\":1143:1196   */\n      jump(tag_335)\n    tag_357:\n        /* \"--CODEGEN--\":1133:1196   */\n      swap3\n      pop\n        /* \"--CODEGEN--\":1105:1202   */\n      pop\n        /* \"--CODEGEN--\":1233:1235   */\n      0x20\n        /* \"--CODEGEN--\":1251:1304   */\n      tag_358\n        /* \"--CODEGEN--\":1296:1303   */\n      dup6\n        /* \"--CODEGEN--\":1287:1293   */\n      dup3\n        /* \"--CODEGEN--\":1276:1285   */\n      dup7\n        /* \"--CODEGEN--\":1272:1294   */\n      add\n        /* \"--CODEGEN--\":1251:1304   */\n      jump(tag_335)\n    tag_358:\n        /* \"--CODEGEN--\":1241:1304   */\n      swap2\n      pop\n        /* \"--CODEGEN--\":1212:1310   */\n      pop\n        /* \"--CODEGEN--\":1037:1320   */\n      swap3\n      pop\n      swap3\n      swap1\n      pop\n      jump\n        /* \"--CODEGEN--\":1327:2746   */\n    tag_83:\n      0x0\n      dup1\n      0x0\n      dup1\n      0x0\n      dup1\n      0x0\n        /* \"--CODEGEN--\":1573:1576   */\n      0xe0\n        /* \"--CODEGEN--\":1561:1570   */\n      dup9\n        /* \"--CODEGEN--\":1552:1559   */\n      dup11\n        /* \"--CODEGEN--\":1548:1571   */\n      sub\n        /* \"--CODEGEN--\":1544:1577   */\n      slt\n        /* \"--CODEGEN--\":1541:1543   */\n      iszero\n      tag_360\n      jumpi\n        /* \"--CODEGEN--\":1590:1591   */\n      0x0\n        /* \"--CODEGEN--\":1587:1588   */\n      dup1\n        /* \"--CODEGEN--\":1580:1592   */\n      revert\n        /* \"--CODEGEN--\":1541:1543   */\n    tag_360:\n        /* \"--CODEGEN--\":1625:1626   */\n      0x0\n        /* \"--CODEGEN--\":1642:1695   */\n      tag_361\n        /* \"--CODEGEN--\":1687:1694   */\n      dup11\n        /* \"--CODEGEN--\":1678:1684   */\n      dup3\n        /* \"--CODEGEN--\":1667:1676   */\n      dup12\n        /* \"--CODEGEN--\":1663:1685   */\n      add\n        /* \"--CODEGEN--\":1642:1695   */\n      jump(tag_335)\n    tag_361:\n        /* \"--CODEGEN--\":1632:1695   */\n      swap8\n      pop\n        /* \"--CODEGEN--\":1604:1701   */\n      pop\n        /* \"--CODEGEN--\":1732:1734   */\n      0x20\n        /* \"--CODEGEN--\":1750:1803   */\n      tag_362\n        /* \"--CODEGEN--\":1795:1802   */\n      dup11\n        /* \"--CODEGEN--\":1786:1792   */\n      dup3\n        /* \"--CODEGEN--\":1775:1784   */\n      dup12\n        /* \"--CODEGEN--\":1771:1793   */\n      add\n        /* \"--CODEGEN--\":1750:1803   */\n      jump(tag_335)\n    tag_362:\n        /* \"--CODEGEN--\":1740:1803   */\n      swap7\n      pop\n        /* \"--CODEGEN--\":1711:1809   */\n      pop\n        /* \"--CODEGEN--\":1868:1870   */\n      0x40\n        /* \"--CODEGEN--\":1857:1866   */\n      dup9\n        /* \"--CODEGEN--\":1853:1871   */\n      add\n        /* \"--CODEGEN--\":1840:1872   */\n      calldataload\n        /* \"--CODEGEN--\":1892:1910   */\n      0xffffffffffffffff\n        /* \"--CODEGEN--\":1884:1890   */\n      dup2\n        /* \"--CODEGEN--\":1881:1911   */\n      gt\n        /* \"--CODEGEN--\":1878:1880   */\n      iszero\n      tag_363\n      jumpi\n        /* \"--CODEGEN--\":1924:1925   */\n      0x0\n        /* \"--CODEGEN--\":1921:1922   */\n      dup1\n        /* \"--CODEGEN--\":1914:1926   */\n      revert\n        /* \"--CODEGEN--\":1878:1880   */\n    tag_363:\n        /* \"--CODEGEN--\":1944:2007   */\n      tag_364\n        /* \"--CODEGEN--\":1999:2006   */\n      dup11\n        /* \"--CODEGEN--\":1990:1996   */\n      dup3\n        /* \"--CODEGEN--\":1979:1988   */\n      dup12\n        /* \"--CODEGEN--\":1975:1997   */\n      add\n        /* \"--CODEGEN--\":1944:2007   */\n      jump(tag_339)\n    tag_364:\n        /* \"--CODEGEN--\":1934:2007   */\n      swap6\n      pop\n        /* \"--CODEGEN--\":1819:2013   */\n      pop\n        /* \"--CODEGEN--\":2072:2074   */\n      0x60\n        /* \"--CODEGEN--\":2061:2070   */\n      dup9\n        /* \"--CODEGEN--\":2057:2075   */\n      add\n        /* \"--CODEGEN--\":2044:2076   */\n      calldataload\n        /* \"--CODEGEN--\":2096:2114   */\n      0xffffffffffffffff\n        /* \"--CODEGEN--\":2088:2094   */\n      dup2\n        /* \"--CODEGEN--\":2085:2115   */\n      gt\n        /* \"--CODEGEN--\":2082:2084   */\n      iszero\n      tag_365\n      jumpi\n        /* \"--CODEGEN--\":2128:2129   */\n      0x0\n        /* \"--CODEGEN--\":2125:2126   */\n      dup1\n        /* \"--CODEGEN--\":2118:2130   */\n      revert\n        /* \"--CODEGEN--\":2082:2084   */\n    tag_365:\n        /* \"--CODEGEN--\":2148:2211   */\n      tag_366\n        /* \"--CODEGEN--\":2203:2210   */\n      dup11\n        /* \"--CODEGEN--\":2194:2200   */\n      dup3\n        /* \"--CODEGEN--\":2183:2192   */\n      dup12\n        /* \"--CODEGEN--\":2179:2201   */\n      add\n        /* \"--CODEGEN--\":2148:2211   */\n      jump(tag_339)\n    tag_366:\n        /* \"--CODEGEN--\":2138:2211   */\n      swap5\n      pop\n        /* \"--CODEGEN--\":2023:2217   */\n      pop\n        /* \"--CODEGEN--\":2276:2279   */\n      0x80\n        /* \"--CODEGEN--\":2265:2274   */\n      dup9\n        /* \"--CODEGEN--\":2261:2280   */\n      add\n        /* \"--CODEGEN--\":2248:2281   */\n      calldataload\n        /* \"--CODEGEN--\":2301:2319   */\n      0xffffffffffffffff\n        /* \"--CODEGEN--\":2293:2299   */\n      dup2\n        /* \"--CODEGEN--\":2290:2320   */\n      gt\n        /* \"--CODEGEN--\":2287:2289   */\n      iszero\n      tag_367\n      jumpi\n        /* \"--CODEGEN--\":2333:2334   */\n      0x0\n        /* \"--CODEGEN--\":2330:2331   */\n      dup1\n        /* \"--CODEGEN--\":2323:2335   */\n      revert\n        /* \"--CODEGEN--\":2287:2289   */\n    tag_367:\n        /* \"--CODEGEN--\":2353:2416   */\n      tag_368\n        /* \"--CODEGEN--\":2408:2415   */\n      dup11\n        /* \"--CODEGEN--\":2399:2405   */\n      dup3\n        /* \"--CODEGEN--\":2388:2397   */\n      dup12\n        /* \"--CODEGEN--\":2384:2406   */\n      add\n        /* \"--CODEGEN--\":2353:2416   */\n      jump(tag_339)\n    tag_368:\n        /* \"--CODEGEN--\":2343:2416   */\n      swap4\n      pop\n        /* \"--CODEGEN--\":2227:2422   */\n      pop\n        /* \"--CODEGEN--\":2481:2484   */\n      0xa0\n        /* \"--CODEGEN--\":2470:2479   */\n      dup9\n        /* \"--CODEGEN--\":2466:2485   */\n      add\n        /* \"--CODEGEN--\":2453:2486   */\n      calldataload\n        /* \"--CODEGEN--\":2506:2524   */\n      0xffffffffffffffff\n        /* \"--CODEGEN--\":2498:2504   */\n      dup2\n        /* \"--CODEGEN--\":2495:2525   */\n      gt\n        /* \"--CODEGEN--\":2492:2494   */\n      iszero\n      tag_369\n      jumpi\n        /* \"--CODEGEN--\":2538:2539   */\n      0x0\n        /* \"--CODEGEN--\":2535:2536   */\n      dup1\n        /* \"--CODEGEN--\":2528:2540   */\n      revert\n        /* \"--CODEGEN--\":2492:2494   */\n    tag_369:\n        /* \"--CODEGEN--\":2558:2621   */\n      tag_370\n        /* \"--CODEGEN--\":2613:2620   */\n      dup11\n        /* \"--CODEGEN--\":2604:2610   */\n      dup3\n        /* \"--CODEGEN--\":2593:2602   */\n      dup12\n        /* \"--CODEGEN--\":2589:2611   */\n      add\n        /* \"--CODEGEN--\":2558:2621   */\n      jump(tag_339)\n    tag_370:\n        /* \"--CODEGEN--\":2548:2621   */\n      swap3\n      pop\n        /* \"--CODEGEN--\":2432:2627   */\n      pop\n        /* \"--CODEGEN--\":2658:2661   */\n      0xc0\n        /* \"--CODEGEN--\":2677:2730   */\n      tag_371\n        /* \"--CODEGEN--\":2722:2729   */\n      dup11\n        /* \"--CODEGEN--\":2713:2719   */\n      dup3\n        /* \"--CODEGEN--\":2702:2711   */\n      dup12\n        /* \"--CODEGEN--\":2698:2720   */\n      add\n        /* \"--CODEGEN--\":2677:2730   */\n      jump(tag_349)\n    tag_371:\n        /* \"--CODEGEN--\":2667:2730   */\n      swap2\n      pop\n        /* \"--CODEGEN--\":2637:2736   */\n      pop\n        /* \"--CODEGEN--\":1535:2746   */\n      swap3\n      swap6\n      swap9\n      swap2\n      swap5\n      swap8\n      pop\n      swap3\n      swap6\n      pop\n      jump\n        /* \"--CODEGEN--\":2753:4616   */\n    tag_63:\n      0x0\n      dup1\n      0x0\n      dup1\n      0x0\n      dup1\n      0x0\n      dup1\n        /* \"--CODEGEN--\":3046:3049   */\n      0x100\n        /* \"--CODEGEN--\":3034:3043   */\n      dup10\n        /* \"--CODEGEN--\":3025:3032   */\n      dup12\n        /* \"--CODEGEN--\":3021:3044   */\n      sub\n        /* \"--CODEGEN--\":3017:3050   */\n      slt\n        /* \"--CODEGEN--\":3014:3016   */\n      iszero\n      tag_373\n      jumpi\n        /* \"--CODEGEN--\":3063:3064   */\n      0x0\n        /* \"--CODEGEN--\":3060:3061   */\n      dup1\n        /* \"--CODEGEN--\":3053:3065   */\n      revert\n        /* \"--CODEGEN--\":3014:3016   */\n    tag_373:\n        /* \"--CODEGEN--\":3098:3099   */\n      0x0\n        /* \"--CODEGEN--\":3115:3168   */\n      tag_374\n        /* \"--CODEGEN--\":3160:3167   */\n      dup12\n        /* \"--CODEGEN--\":3151:3157   */\n      dup3\n        /* \"--CODEGEN--\":3140:3149   */\n      dup13\n        /* \"--CODEGEN--\":3136:3158   */\n      add\n        /* \"--CODEGEN--\":3115:3168   */\n      jump(tag_335)\n    tag_374:\n        /* \"--CODEGEN--\":3105:3168   */\n      swap9\n      pop\n        /* \"--CODEGEN--\":3077:3174   */\n      pop\n        /* \"--CODEGEN--\":3233:3235   */\n      0x20\n        /* \"--CODEGEN--\":3222:3231   */\n      dup10\n        /* \"--CODEGEN--\":3218:3236   */\n      add\n        /* \"--CODEGEN--\":3205:3237   */\n      calldataload\n        /* \"--CODEGEN--\":3257:3275   */\n      0xffffffffffffffff\n        /* \"--CODEGEN--\":3249:3255   */\n      dup2\n        /* \"--CODEGEN--\":3246:3276   */\n      gt\n        /* \"--CODEGEN--\":3243:3245   */\n      iszero\n      tag_375\n      jumpi\n        /* \"--CODEGEN--\":3289:3290   */\n      0x0\n        /* \"--CODEGEN--\":3286:3287   */\n      dup1\n        /* \"--CODEGEN--\":3279:3291   */\n      revert\n        /* \"--CODEGEN--\":3243:3245   */\n    tag_375:\n        /* \"--CODEGEN--\":3309:3372   */\n      tag_376\n        /* \"--CODEGEN--\":3364:3371   */\n      dup12\n        /* \"--CODEGEN--\":3355:3361   */\n      dup3\n        /* \"--CODEGEN--\":3344:3353   */\n      dup13\n        /* \"--CODEGEN--\":3340:3362   */\n      add\n        /* \"--CODEGEN--\":3309:3372   */\n      jump(tag_339)\n    tag_376:\n        /* \"--CODEGEN--\":3299:3372   */\n      swap8\n      pop\n        /* \"--CODEGEN--\":3184:3378   */\n      pop\n        /* \"--CODEGEN--\":3437:3439   */\n      0x40\n        /* \"--CODEGEN--\":3426:3435   */\n      dup10\n        /* \"--CODEGEN--\":3422:3440   */\n      add\n        /* \"--CODEGEN--\":3409:3441   */\n      calldataload\n        /* \"--CODEGEN--\":3461:3479   */\n      0xffffffffffffffff\n        /* \"--CODEGEN--\":3453:3459   */\n      dup2\n        /* \"--CODEGEN--\":3450:3480   */\n      gt\n        /* \"--CODEGEN--\":3447:3449   */\n      iszero\n      tag_377\n      jumpi\n        /* \"--CODEGEN--\":3493:3494   */\n      0x0\n        /* \"--CODEGEN--\":3490:3491   */\n      dup1\n        /* \"--CODEGEN--\":3483:3495   */\n      revert\n        /* \"--CODEGEN--\":3447:3449   */\n    tag_377:\n        /* \"--CODEGEN--\":3513:3576   */\n      tag_378\n        /* \"--CODEGEN--\":3568:3575   */\n      dup12\n        /* \"--CODEGEN--\":3559:3565   */\n      dup3\n        /* \"--CODEGEN--\":3548:3557   */\n      dup13\n        /* \"--CODEGEN--\":3544:3566   */\n      add\n        /* \"--CODEGEN--\":3513:3576   */\n      jump(tag_339)\n    tag_378:\n        /* \"--CODEGEN--\":3503:3576   */\n      swap7\n      pop\n        /* \"--CODEGEN--\":3388:3582   */\n      pop\n        /* \"--CODEGEN--\":3641:3643   */\n      0x60\n        /* \"--CODEGEN--\":3630:3639   */\n      dup10\n        /* \"--CODEGEN--\":3626:3644   */\n      add\n        /* \"--CODEGEN--\":3613:3645   */\n      calldataload\n        /* \"--CODEGEN--\":3665:3683   */\n      0xffffffffffffffff\n        /* \"--CODEGEN--\":3657:3663   */\n      dup2\n        /* \"--CODEGEN--\":3654:3684   */\n      gt\n        /* \"--CODEGEN--\":3651:3653   */\n      iszero\n      tag_379\n      jumpi\n        /* \"--CODEGEN--\":3697:3698   */\n      0x0\n        /* \"--CODEGEN--\":3694:3695   */\n      dup1\n        /* \"--CODEGEN--\":3687:3699   */\n      revert\n        /* \"--CODEGEN--\":3651:3653   */\n    tag_379:\n        /* \"--CODEGEN--\":3717:3780   */\n      tag_380\n        /* \"--CODEGEN--\":3772:3779   */\n      dup12\n        /* \"--CODEGEN--\":3763:3769   */\n      dup3\n        /* \"--CODEGEN--\":3752:3761   */\n      dup13\n        /* \"--CODEGEN--\":3748:3770   */\n      add\n        /* \"--CODEGEN--\":3717:3780   */\n      jump(tag_339)\n    tag_380:\n        /* \"--CODEGEN--\":3707:3780   */\n      swap6\n      pop\n        /* \"--CODEGEN--\":3592:3786   */\n      pop\n        /* \"--CODEGEN--\":3845:3848   */\n      0x80\n        /* \"--CODEGEN--\":3834:3843   */\n      dup10\n        /* \"--CODEGEN--\":3830:3849   */\n      add\n        /* \"--CODEGEN--\":3817:3850   */\n      calldataload\n        /* \"--CODEGEN--\":3870:3888   */\n      0xffffffffffffffff\n        /* \"--CODEGEN--\":3862:3868   */\n      dup2\n        /* \"--CODEGEN--\":3859:3889   */\n      gt\n        /* \"--CODEGEN--\":3856:3858   */\n      iszero\n      tag_381\n      jumpi\n        /* \"--CODEGEN--\":3902:3903   */\n      0x0\n        /* \"--CODEGEN--\":3899:3900   */\n      dup1\n        /* \"--CODEGEN--\":3892:3904   */\n      revert\n        /* \"--CODEGEN--\":3856:3858   */\n    tag_381:\n        /* \"--CODEGEN--\":3922:3985   */\n      tag_382\n        /* \"--CODEGEN--\":3977:3984   */\n      dup12\n        /* \"--CODEGEN--\":3968:3974   */\n      dup3\n        /* \"--CODEGEN--\":3957:3966   */\n      dup13\n        /* \"--CODEGEN--\":3953:3975   */\n      add\n        /* \"--CODEGEN--\":3922:3985   */\n      jump(tag_339)\n    tag_382:\n        /* \"--CODEGEN--\":3912:3985   */\n      swap5\n      pop\n        /* \"--CODEGEN--\":3796:3991   */\n      pop\n        /* \"--CODEGEN--\":4050:4053   */\n      0xa0\n        /* \"--CODEGEN--\":4039:4048   */\n      dup10\n        /* \"--CODEGEN--\":4035:4054   */\n      add\n        /* \"--CODEGEN--\":4022:4055   */\n      calldataload\n        /* \"--CODEGEN--\":4075:4093   */\n      0xffffffffffffffff\n        /* \"--CODEGEN--\":4067:4073   */\n      dup2\n        /* \"--CODEGEN--\":4064:4094   */\n      gt\n        /* \"--CODEGEN--\":4061:4063   */\n      iszero\n      tag_383\n      jumpi\n        /* \"--CODEGEN--\":4107:4108   */\n      0x0\n        /* \"--CODEGEN--\":4104:4105   */\n      dup1\n        /* \"--CODEGEN--\":4097:4109   */\n      revert\n        /* \"--CODEGEN--\":4061:4063   */\n    tag_383:\n        /* \"--CODEGEN--\":4127:4190   */\n      tag_384\n        /* \"--CODEGEN--\":4182:4189   */\n      dup12\n        /* \"--CODEGEN--\":4173:4179   */\n      dup3\n        /* \"--CODEGEN--\":4162:4171   */\n      dup13\n        /* \"--CODEGEN--\":4158:4180   */\n      add\n        /* \"--CODEGEN--\":4127:4190   */\n      jump(tag_339)\n    tag_384:\n        /* \"--CODEGEN--\":4117:4190   */\n      swap4\n      pop\n        /* \"--CODEGEN--\":4001:4196   */\n      pop\n        /* \"--CODEGEN--\":4255:4258   */\n      0xc0\n        /* \"--CODEGEN--\":4244:4253   */\n      dup10\n        /* \"--CODEGEN--\":4240:4259   */\n      add\n        /* \"--CODEGEN--\":4227:4260   */\n      calldataload\n        /* \"--CODEGEN--\":4280:4298   */\n      0xffffffffffffffff\n        /* \"--CODEGEN--\":4272:4278   */\n      dup2\n        /* \"--CODEGEN--\":4269:4299   */\n      gt\n        /* \"--CODEGEN--\":4266:4268   */\n      iszero\n      tag_385\n      jumpi\n        /* \"--CODEGEN--\":4312:4313   */\n      0x0\n        /* \"--CODEGEN--\":4309:4310   */\n      dup1\n        /* \"--CODEGEN--\":4302:4314   */\n      revert\n        /* \"--CODEGEN--\":4266:4268   */\n    tag_385:\n        /* \"--CODEGEN--\":4332:4395   */\n      tag_386\n        /* \"--CODEGEN--\":4387:4394   */\n      dup12\n        /* \"--CODEGEN--\":4378:4384   */\n      dup3\n        /* \"--CODEGEN--\":4367:4376   */\n      dup13\n        /* \"--CODEGEN--\":4363:4385   */\n      add\n        /* \"--CODEGEN--\":4332:4395   */\n      jump(tag_339)\n    tag_386:\n        /* \"--CODEGEN--\":4322:4395   */\n      swap3\n      pop\n        /* \"--CODEGEN--\":4206:4401   */\n      pop\n        /* \"--CODEGEN--\":4460:4463   */\n      0xe0\n        /* \"--CODEGEN--\":4449:4458   */\n      dup10\n        /* \"--CODEGEN--\":4445:4464   */\n      add\n        /* \"--CODEGEN--\":4432:4465   */\n      calldataload\n        /* \"--CODEGEN--\":4485:4503   */\n      0xffffffffffffffff\n        /* \"--CODEGEN--\":4477:4483   */\n      dup2\n        /* \"--CODEGEN--\":4474:4504   */\n      gt\n        /* \"--CODEGEN--\":4471:4473   */\n      iszero\n      tag_387\n      jumpi\n        /* \"--CODEGEN--\":4517:4518   */\n      0x0\n        /* \"--CODEGEN--\":4514:4515   */\n      dup1\n        /* \"--CODEGEN--\":4507:4519   */\n      revert\n        /* \"--CODEGEN--\":4471:4473   */\n    tag_387:\n        /* \"--CODEGEN--\":4537:4600   */\n      tag_388\n        /* \"--CODEGEN--\":4592:4599   */\n      dup12\n        /* \"--CODEGEN--\":4583:4589   */\n      dup3\n        /* \"--CODEGEN--\":4572:4581   */\n      dup13\n        /* \"--CODEGEN--\":4568:4590   */\n      add\n        /* \"--CODEGEN--\":4537:4600   */\n      jump(tag_339)\n    tag_388:\n        /* \"--CODEGEN--\":4527:4600   */\n      swap2\n      pop\n        /* \"--CODEGEN--\":4411:4606   */\n      pop\n        /* \"--CODEGEN--\":3008:4616   */\n      swap3\n      swap6\n      swap9\n      pop\n      swap3\n      swap6\n      swap9\n      swap1\n      swap4\n      swap7\n      pop\n      jump\n        /* \"--CODEGEN--\":4623:6950   */\n    tag_94:\n      0x0\n      dup1\n      0x0\n      dup1\n      0x0\n      dup1\n      0x0\n      dup1\n      0x0\n      dup1\n        /* \"--CODEGEN--\":4970:4973   */\n      0x140\n        /* \"--CODEGEN--\":4958:4967   */\n      dup12\n        /* \"--CODEGEN--\":4949:4956   */\n      dup14\n        /* \"--CODEGEN--\":4945:4968   */\n      sub\n        /* \"--CODEGEN--\":4941:4974   */\n      slt\n        /* \"--CODEGEN--\":4938:4940   */\n      iszero\n      tag_390\n      jumpi\n        /* \"--CODEGEN--\":4987:4988   */\n      0x0\n        /* \"--CODEGEN--\":4984:4985   */\n      dup1\n        /* \"--CODEGEN--\":4977:4989   */\n      revert\n        /* \"--CODEGEN--\":4938:4940   */\n    tag_390:\n        /* \"--CODEGEN--\":5022:5023   */\n      0x0\n        /* \"--CODEGEN--\":5039:5092   */\n      tag_391\n        /* \"--CODEGEN--\":5084:5091   */\n      dup14\n        /* \"--CODEGEN--\":5075:5081   */\n      dup3\n        /* \"--CODEGEN--\":5064:5073   */\n      dup15\n        /* \"--CODEGEN--\":5060:5082   */\n      add\n        /* \"--CODEGEN--\":5039:5092   */\n      jump(tag_335)\n    tag_391:\n        /* \"--CODEGEN--\":5029:5092   */\n      swap11\n      pop\n        /* \"--CODEGEN--\":5001:5098   */\n      pop\n        /* \"--CODEGEN--\":5157:5159   */\n      0x20\n        /* \"--CODEGEN--\":5146:5155   */\n      dup12\n        /* \"--CODEGEN--\":5142:5160   */\n      add\n        /* \"--CODEGEN--\":5129:5161   */\n      calldataload\n        /* \"--CODEGEN--\":5181:5199   */\n      0xffffffffffffffff\n        /* \"--CODEGEN--\":5173:5179   */\n      dup2\n        /* \"--CODEGEN--\":5170:5200   */\n      gt\n        /* \"--CODEGEN--\":5167:5169   */\n      iszero\n      tag_392\n      jumpi\n        /* \"--CODEGEN--\":5213:5214   */\n      0x0\n        /* \"--CODEGEN--\":5210:5211   */\n      dup1\n        /* \"--CODEGEN--\":5203:5215   */\n      revert\n        /* \"--CODEGEN--\":5167:5169   */\n    tag_392:\n        /* \"--CODEGEN--\":5233:5296   */\n      tag_393\n        /* \"--CODEGEN--\":5288:5295   */\n      dup14\n        /* \"--CODEGEN--\":5279:5285   */\n      dup3\n        /* \"--CODEGEN--\":5268:5277   */\n      dup15\n        /* \"--CODEGEN--\":5264:5286   */\n      add\n        /* \"--CODEGEN--\":5233:5296   */\n      jump(tag_339)\n    tag_393:\n        /* \"--CODEGEN--\":5223:5296   */\n      swap10\n      pop\n        /* \"--CODEGEN--\":5108:5302   */\n      pop\n        /* \"--CODEGEN--\":5361:5363   */\n      0x40\n        /* \"--CODEGEN--\":5350:5359   */\n      dup12\n        /* \"--CODEGEN--\":5346:5364   */\n      add\n        /* \"--CODEGEN--\":5333:5365   */\n      calldataload\n        /* \"--CODEGEN--\":5385:5403   */\n      0xffffffffffffffff\n        /* \"--CODEGEN--\":5377:5383   */\n      dup2\n        /* \"--CODEGEN--\":5374:5404   */\n      gt\n        /* \"--CODEGEN--\":5371:5373   */\n      iszero\n      tag_394\n      jumpi\n        /* \"--CODEGEN--\":5417:5418   */\n      0x0\n        /* \"--CODEGEN--\":5414:5415   */\n      dup1\n        /* \"--CODEGEN--\":5407:5419   */\n      revert\n        /* \"--CODEGEN--\":5371:5373   */\n    tag_394:\n        /* \"--CODEGEN--\":5437:5500   */\n      tag_395\n        /* \"--CODEGEN--\":5492:5499   */\n      dup14\n        /* \"--CODEGEN--\":5483:5489   */\n      dup3\n        /* \"--CODEGEN--\":5472:5481   */\n      dup15\n        /* \"--CODEGEN--\":5468:5490   */\n      add\n        /* \"--CODEGEN--\":5437:5500   */\n      jump(tag_339)\n    tag_395:\n        /* \"--CODEGEN--\":5427:5500   */\n      swap9\n      pop\n        /* \"--CODEGEN--\":5312:5506   */\n      pop\n        /* \"--CODEGEN--\":5565:5567   */\n      0x60\n        /* \"--CODEGEN--\":5554:5563   */\n      dup12\n        /* \"--CODEGEN--\":5550:5568   */\n      add\n        /* \"--CODEGEN--\":5537:5569   */\n      calldataload\n        /* \"--CODEGEN--\":5589:5607   */\n      0xffffffffffffffff\n        /* \"--CODEGEN--\":5581:5587   */\n      dup2\n        /* \"--CODEGEN--\":5578:5608   */\n      gt\n        /* \"--CODEGEN--\":5575:5577   */\n      iszero\n      tag_396\n      jumpi\n        /* \"--CODEGEN--\":5621:5622   */\n      0x0\n        /* \"--CODEGEN--\":5618:5619   */\n      dup1\n        /* \"--CODEGEN--\":5611:5623   */\n      revert\n        /* \"--CODEGEN--\":5575:5577   */\n    tag_396:\n        /* \"--CODEGEN--\":5641:5704   */\n      tag_397\n        /* \"--CODEGEN--\":5696:5703   */\n      dup14\n        /* \"--CODEGEN--\":5687:5693   */\n      dup3\n        /* \"--CODEGEN--\":5676:5685   */\n      dup15\n        /* \"--CODEGEN--\":5672:5694   */\n      add\n        /* \"--CODEGEN--\":5641:5704   */\n      jump(tag_339)\n    tag_397:\n        /* \"--CODEGEN--\":5631:5704   */\n      swap8\n      pop\n        /* \"--CODEGEN--\":5516:5710   */\n      pop\n        /* \"--CODEGEN--\":5769:5772   */\n      0x80\n        /* \"--CODEGEN--\":5758:5767   */\n      dup12\n        /* \"--CODEGEN--\":5754:5773   */\n      add\n        /* \"--CODEGEN--\":5741:5774   */\n      calldataload\n        /* \"--CODEGEN--\":5794:5812   */\n      0xffffffffffffffff\n        /* \"--CODEGEN--\":5786:5792   */\n      dup2\n        /* \"--CODEGEN--\":5783:5813   */\n      gt\n        /* \"--CODEGEN--\":5780:5782   */\n      iszero\n      tag_398\n      jumpi\n        /* \"--CODEGEN--\":5826:5827   */\n      0x0\n        /* \"--CODEGEN--\":5823:5824   */\n      dup1\n        /* \"--CODEGEN--\":5816:5828   */\n      revert\n        /* \"--CODEGEN--\":5780:5782   */\n    tag_398:\n        /* \"--CODEGEN--\":5846:5909   */\n      tag_399\n        /* \"--CODEGEN--\":5901:5908   */\n      dup14\n        /* \"--CODEGEN--\":5892:5898   */\n      dup3\n        /* \"--CODEGEN--\":5881:5890   */\n      dup15\n        /* \"--CODEGEN--\":5877:5899   */\n      add\n        /* \"--CODEGEN--\":5846:5909   */\n      jump(tag_339)\n    tag_399:\n        /* \"--CODEGEN--\":5836:5909   */\n      swap7\n      pop\n        /* \"--CODEGEN--\":5720:5915   */\n      pop\n        /* \"--CODEGEN--\":5974:5977   */\n      0xa0\n        /* \"--CODEGEN--\":5963:5972   */\n      dup12\n        /* \"--CODEGEN--\":5959:5978   */\n      add\n        /* \"--CODEGEN--\":5946:5979   */\n      calldataload\n        /* \"--CODEGEN--\":5999:6017   */\n      0xffffffffffffffff\n        /* \"--CODEGEN--\":5991:5997   */\n      dup2\n        /* \"--CODEGEN--\":5988:6018   */\n      gt\n        /* \"--CODEGEN--\":5985:5987   */\n      iszero\n      tag_400\n      jumpi\n        /* \"--CODEGEN--\":6031:6032   */\n      0x0\n        /* \"--CODEGEN--\":6028:6029   */\n      dup1\n        /* \"--CODEGEN--\":6021:6033   */\n      revert\n        /* \"--CODEGEN--\":5985:5987   */\n    tag_400:\n        /* \"--CODEGEN--\":6051:6114   */\n      tag_401\n        /* \"--CODEGEN--\":6106:6113   */\n      dup14\n        /* \"--CODEGEN--\":6097:6103   */\n      dup3\n        /* \"--CODEGEN--\":6086:6095   */\n      dup15\n        /* \"--CODEGEN--\":6082:6104   */\n      add\n        /* \"--CODEGEN--\":6051:6114   */\n      jump(tag_339)\n    tag_401:\n        /* \"--CODEGEN--\":6041:6114   */\n      swap6\n      pop\n        /* \"--CODEGEN--\":5925:6120   */\n      pop\n        /* \"--CODEGEN--\":6179:6182   */\n      0xc0\n        /* \"--CODEGEN--\":6168:6177   */\n      dup12\n        /* \"--CODEGEN--\":6164:6183   */\n      add\n        /* \"--CODEGEN--\":6151:6184   */\n      calldataload\n        /* \"--CODEGEN--\":6204:6222   */\n      0xffffffffffffffff\n        /* \"--CODEGEN--\":6196:6202   */\n      dup2\n        /* \"--CODEGEN--\":6193:6223   */\n      gt\n        /* \"--CODEGEN--\":6190:6192   */\n      iszero\n      tag_402\n      jumpi\n        /* \"--CODEGEN--\":6236:6237   */\n      0x0\n        /* \"--CODEGEN--\":6233:6234   */\n      dup1\n        /* \"--CODEGEN--\":6226:6238   */\n      revert\n        /* \"--CODEGEN--\":6190:6192   */\n    tag_402:\n        /* \"--CODEGEN--\":6256:6319   */\n      tag_403\n        /* \"--CODEGEN--\":6311:6318   */\n      dup14\n        /* \"--CODEGEN--\":6302:6308   */\n      dup3\n        /* \"--CODEGEN--\":6291:6300   */\n      dup15\n        /* \"--CODEGEN--\":6287:6309   */\n      add\n        /* \"--CODEGEN--\":6256:6319   */\n      jump(tag_339)\n    tag_403:\n        /* \"--CODEGEN--\":6246:6319   */\n      swap5\n      pop\n        /* \"--CODEGEN--\":6130:6325   */\n      pop\n        /* \"--CODEGEN--\":6384:6387   */\n      0xe0\n        /* \"--CODEGEN--\":6373:6382   */\n      dup12\n        /* \"--CODEGEN--\":6369:6388   */\n      add\n        /* \"--CODEGEN--\":6356:6389   */\n      calldataload\n        /* \"--CODEGEN--\":6409:6427   */\n      0xffffffffffffffff\n        /* \"--CODEGEN--\":6401:6407   */\n      dup2\n        /* \"--CODEGEN--\":6398:6428   */\n      gt\n        /* \"--CODEGEN--\":6395:6397   */\n      iszero\n      tag_404\n      jumpi\n        /* \"--CODEGEN--\":6441:6442   */\n      0x0\n        /* \"--CODEGEN--\":6438:6439   */\n      dup1\n        /* \"--CODEGEN--\":6431:6443   */\n      revert\n        /* \"--CODEGEN--\":6395:6397   */\n    tag_404:\n        /* \"--CODEGEN--\":6461:6524   */\n      tag_405\n        /* \"--CODEGEN--\":6516:6523   */\n      dup14\n        /* \"--CODEGEN--\":6507:6513   */\n      dup3\n        /* \"--CODEGEN--\":6496:6505   */\n      dup15\n        /* \"--CODEGEN--\":6492:6514   */\n      add\n        /* \"--CODEGEN--\":6461:6524   */\n      jump(tag_339)\n    tag_405:\n        /* \"--CODEGEN--\":6451:6524   */\n      swap4\n      pop\n        /* \"--CODEGEN--\":6335:6530   */\n      pop\n        /* \"--CODEGEN--\":6589:6592   */\n      0x100\n        /* \"--CODEGEN--\":6578:6587   */\n      dup12\n        /* \"--CODEGEN--\":6574:6593   */\n      add\n        /* \"--CODEGEN--\":6561:6594   */\n      calldataload\n        /* \"--CODEGEN--\":6614:6632   */\n      0xffffffffffffffff\n        /* \"--CODEGEN--\":6606:6612   */\n      dup2\n        /* \"--CODEGEN--\":6603:6633   */\n      gt\n        /* \"--CODEGEN--\":6600:6602   */\n      iszero\n      tag_406\n      jumpi\n        /* \"--CODEGEN--\":6646:6647   */\n      0x0\n        /* \"--CODEGEN--\":6643:6644   */\n      dup1\n        /* \"--CODEGEN--\":6636:6648   */\n      revert\n        /* \"--CODEGEN--\":6600:6602   */\n    tag_406:\n        /* \"--CODEGEN--\":6666:6729   */\n      tag_407\n        /* \"--CODEGEN--\":6721:6728   */\n      dup14\n        /* \"--CODEGEN--\":6712:6718   */\n      dup3\n        /* \"--CODEGEN--\":6701:6710   */\n      dup15\n        /* \"--CODEGEN--\":6697:6719   */\n      add\n        /* \"--CODEGEN--\":6666:6729   */\n      jump(tag_339)\n    tag_407:\n        /* \"--CODEGEN--\":6656:6729   */\n      swap3\n      pop\n        /* \"--CODEGEN--\":6540:6735   */\n      pop\n        /* \"--CODEGEN--\":6794:6797   */\n      0x120\n        /* \"--CODEGEN--\":6783:6792   */\n      dup12\n        /* \"--CODEGEN--\":6779:6798   */\n      add\n        /* \"--CODEGEN--\":6766:6799   */\n      calldataload\n        /* \"--CODEGEN--\":6819:6837   */\n      0xffffffffffffffff\n        /* \"--CODEGEN--\":6811:6817   */\n      dup2\n        /* \"--CODEGEN--\":6808:6838   */\n      gt\n        /* \"--CODEGEN--\":6805:6807   */\n      iszero\n      tag_408\n      jumpi\n        /* \"--CODEGEN--\":6851:6852   */\n      0x0\n        /* \"--CODEGEN--\":6848:6849   */\n      dup1\n        /* \"--CODEGEN--\":6841:6853   */\n      revert\n        /* \"--CODEGEN--\":6805:6807   */\n    tag_408:\n        /* \"--CODEGEN--\":6871:6934   */\n      tag_409\n        /* \"--CODEGEN--\":6926:6933   */\n      dup14\n        /* \"--CODEGEN--\":6917:6923   */\n      dup3\n        /* \"--CODEGEN--\":6906:6915   */\n      dup15\n        /* \"--CODEGEN--\":6902:6924   */\n      add\n        /* \"--CODEGEN--\":6871:6934   */\n      jump(tag_339)\n    tag_409:\n        /* \"--CODEGEN--\":6861:6934   */\n      swap2\n      pop\n        /* \"--CODEGEN--\":6745:6940   */\n      pop\n        /* \"--CODEGEN--\":4932:6950   */\n      swap3\n      swap6\n      swap9\n      swap12\n      swap2\n      swap5\n      swap8\n      swap11\n      pop\n      swap3\n      swap6\n      swap9\n      pop\n      jump\n        /* \"--CODEGEN--\":6957:7198   */\n    tag_56:\n      0x0\n        /* \"--CODEGEN--\":7061:7063   */\n      0x20\n        /* \"--CODEGEN--\":7049:7058   */\n      dup3\n        /* \"--CODEGEN--\":7040:7047   */\n      dup5\n        /* \"--CODEGEN--\":7036:7059   */\n      sub\n        /* \"--CODEGEN--\":7032:7064   */\n      slt\n        /* \"--CODEGEN--\":7029:7031   */\n      iszero\n      tag_411\n      jumpi\n        /* \"--CODEGEN--\":7077:7078   */\n      0x0\n        /* \"--CODEGEN--\":7074:7075   */\n      dup1\n        /* \"--CODEGEN--\":7067:7079   */\n      revert\n        /* \"--CODEGEN--\":7029:7031   */\n    tag_411:\n        /* \"--CODEGEN--\":7112:7113   */\n      0x0\n        /* \"--CODEGEN--\":7129:7182   */\n      tag_412\n        /* \"--CODEGEN--\":7174:7181   */\n      dup5\n        /* \"--CODEGEN--\":7165:7171   */\n      dup3\n        /* \"--CODEGEN--\":7154:7163   */\n      dup6\n        /* \"--CODEGEN--\":7150:7172   */\n      add\n        /* \"--CODEGEN--\":7129:7182   */\n      jump(tag_349)\n    tag_412:\n        /* \"--CODEGEN--\":7119:7182   */\n      swap2\n      pop\n        /* \"--CODEGEN--\":7091:7188   */\n      pop\n        /* \"--CODEGEN--\":7023:7198   */\n      swap3\n      swap2\n      pop\n      pop\n      jump\n        /* \"--CODEGEN--\":7205:7315   */\n    tag_414:\n        /* \"--CODEGEN--\":7278:7309   */\n      tag_415\n        /* \"--CODEGEN--\":7303:7308   */\n      dup2\n        /* \"--CODEGEN--\":7278:7309   */\n      jump(tag_416)\n    tag_415:\n        /* \"--CODEGEN--\":7273:7276   */\n      dup3\n        /* \"--CODEGEN--\":7266:7310   */\n      mstore\n        /* \"--CODEGEN--\":7260:7315   */\n      pop\n      pop\n      jump\n        /* \"--CODEGEN--\":7353:7943   */\n    tag_418:\n      0x0\n        /* \"--CODEGEN--\":7488:7542   */\n      tag_419\n        /* \"--CODEGEN--\":7536:7541   */\n      dup3\n        /* \"--CODEGEN--\":7488:7542   */\n      jump(tag_420)\n    tag_419:\n        /* \"--CODEGEN--\":7560:7566   */\n      dup1\n        /* \"--CODEGEN--\":7555:7558   */\n      dup5\n        /* \"--CODEGEN--\":7548:7567   */\n      mstore\n        /* \"--CODEGEN--\":7584:7588   */\n      0x20\n        /* \"--CODEGEN--\":7579:7582   */\n      dup5\n        /* \"--CODEGEN--\":7575:7589   */\n      add\n        /* \"--CODEGEN--\":7568:7589   */\n      swap4\n      pop\n        /* \"--CODEGEN--\":7629:7685   */\n      tag_421\n        /* \"--CODEGEN--\":7679:7684   */\n      dup4\n        /* \"--CODEGEN--\":7629:7685   */\n      jump(tag_422)\n    tag_421:\n        /* \"--CODEGEN--\":7706:7707   */\n      0x0\n        /* \"--CODEGEN--\":7691:7921   */\n    tag_423:\n        /* \"--CODEGEN--\":7716:7722   */\n      dup3\n        /* \"--CODEGEN--\":7713:7714   */\n      dup2\n        /* \"--CODEGEN--\":7710:7723   */\n      lt\n        /* \"--CODEGEN--\":7691:7921   */\n      iszero\n      tag_424\n      jumpi\n        /* \"--CODEGEN--\":7756:7809   */\n      tag_426\n        /* \"--CODEGEN--\":7805:7808   */\n      dup7\n        /* \"--CODEGEN--\":7796:7802   */\n      dup4\n        /* \"--CODEGEN--\":7790:7803   */\n      mload\n        /* \"--CODEGEN--\":7756:7809   */\n      jump(tag_414)\n    tag_426:\n        /* \"--CODEGEN--\":7826:7886   */\n      tag_427\n        /* \"--CODEGEN--\":7879:7885   */\n      dup3\n        /* \"--CODEGEN--\":7826:7886   */\n      jump(tag_428)\n    tag_427:\n        /* \"--CODEGEN--\":7816:7886   */\n      swap2\n      pop\n        /* \"--CODEGEN--\":7909:7913   */\n      0x20\n        /* \"--CODEGEN--\":7904:7907   */\n      dup7\n        /* \"--CODEGEN--\":7900:7914   */\n      add\n        /* \"--CODEGEN--\":7893:7914   */\n      swap6\n      pop\n        /* \"--CODEGEN--\":7738:7739   */\n      0x1\n        /* \"--CODEGEN--\":7735:7736   */\n      dup2\n        /* \"--CODEGEN--\":7731:7740   */\n      add\n        /* \"--CODEGEN--\":7726:7740   */\n      swap1\n      pop\n        /* \"--CODEGEN--\":7691:7921   */\n      jump(tag_423)\n    tag_424:\n        /* \"--CODEGEN--\":7695:7709   */\n      pop\n        /* \"--CODEGEN--\":7934:7937   */\n      dup5\n        /* \"--CODEGEN--\":7927:7937   */\n      swap3\n      pop\n        /* \"--CODEGEN--\":7467:7943   */\n      pop\n      pop\n      swap3\n      swap2\n      pop\n      pop\n      jump\n        /* \"--CODEGEN--\":7951:8052   */\n    tag_430:\n        /* \"--CODEGEN--\":8018:8046   */\n      tag_431\n        /* \"--CODEGEN--\":8040:8045   */\n      dup2\n        /* \"--CODEGEN--\":8018:8046   */\n      jump(tag_432)\n    tag_431:\n        /* \"--CODEGEN--\":8013:8016   */\n      dup3\n        /* \"--CODEGEN--\":8006:8047   */\n      mstore\n        /* \"--CODEGEN--\":8000:8052   */\n      pop\n      pop\n      jump\n        /* \"--CODEGEN--\":8059:8359   */\n    tag_434:\n      0x0\n        /* \"--CODEGEN--\":8161:8200   */\n      tag_435\n        /* \"--CODEGEN--\":8194:8199   */\n      dup3\n        /* \"--CODEGEN--\":8161:8200   */\n      jump(tag_436)\n    tag_435:\n        /* \"--CODEGEN--\":8217:8223   */\n      dup1\n        /* \"--CODEGEN--\":8212:8215   */\n      dup5\n        /* \"--CODEGEN--\":8205:8224   */\n      mstore\n        /* \"--CODEGEN--\":8229:8292   */\n      tag_437\n        /* \"--CODEGEN--\":8285:8291   */\n      dup2\n        /* \"--CODEGEN--\":8278:8282   */\n      0x20\n        /* \"--CODEGEN--\":8273:8276   */\n      dup7\n        /* \"--CODEGEN--\":8269:8283   */\n      add\n        /* \"--CODEGEN--\":8262:8266   */\n      0x20\n        /* \"--CODEGEN--\":8255:8260   */\n      dup7\n        /* \"--CODEGEN--\":8251:8267   */\n      add\n        /* \"--CODEGEN--\":8229:8292   */\n      jump(tag_438)\n    tag_437:\n        /* \"--CODEGEN--\":8324:8353   */\n      tag_439\n        /* \"--CODEGEN--\":8346:8352   */\n      dup2\n        /* \"--CODEGEN--\":8324:8353   */\n      jump(tag_440)\n    tag_439:\n        /* \"--CODEGEN--\":8317:8321   */\n      0x20\n        /* \"--CODEGEN--\":8312:8315   */\n      dup6\n        /* \"--CODEGEN--\":8308:8322   */\n      add\n        /* \"--CODEGEN--\":8304:8354   */\n      add\n        /* \"--CODEGEN--\":8297:8354   */\n      swap2\n      pop\n        /* \"--CODEGEN--\":8141:8359   */\n      pop\n      swap3\n      swap2\n      pop\n      pop\n      jump\n        /* \"--CODEGEN--\":8366:8476   */\n    tag_442:\n        /* \"--CODEGEN--\":8439:8470   */\n      tag_443\n        /* \"--CODEGEN--\":8464:8469   */\n      dup2\n        /* \"--CODEGEN--\":8439:8470   */\n      jump(tag_444)\n    tag_443:\n        /* \"--CODEGEN--\":8434:8437   */\n      dup3\n        /* \"--CODEGEN--\":8427:8471   */\n      mstore\n        /* \"--CODEGEN--\":8421:8476   */\n      pop\n      pop\n      jump\n        /* \"--CODEGEN--\":8483:8676   */\n    tag_59:\n      0x0\n        /* \"--CODEGEN--\":8591:8593   */\n      0x20\n        /* \"--CODEGEN--\":8580:8589   */\n      dup3\n        /* \"--CODEGEN--\":8576:8594   */\n      add\n        /* \"--CODEGEN--\":8568:8594   */\n      swap1\n      pop\n        /* \"--CODEGEN--\":8605:8666   */\n      tag_446\n        /* \"--CODEGEN--\":8663:8664   */\n      0x0\n        /* \"--CODEGEN--\":8652:8661   */\n      dup4\n        /* \"--CODEGEN--\":8648:8665   */\n      add\n        /* \"--CODEGEN--\":8639:8645   */\n      dup5\n        /* \"--CODEGEN--\":8605:8666   */\n      jump(tag_414)\n    tag_446:\n        /* \"--CODEGEN--\":8562:8676   */\n      swap3\n      swap2\n      pop\n      pop\n      jump\n        /* \"--CODEGEN--\":8683:9024   */\n    tag_36:\n      0x0\n        /* \"--CODEGEN--\":8841:8843   */\n      0x20\n        /* \"--CODEGEN--\":8830:8839   */\n      dup3\n        /* \"--CODEGEN--\":8826:8844   */\n      add\n        /* \"--CODEGEN--\":8818:8844   */\n      swap1\n      pop\n        /* \"--CODEGEN--\":8891:8900   */\n      dup2\n        /* \"--CODEGEN--\":8885:8889   */\n      dup2\n        /* \"--CODEGEN--\":8881:8901   */\n      sub\n        /* \"--CODEGEN--\":8877:8878   */\n      0x0\n        /* \"--CODEGEN--\":8866:8875   */\n      dup4\n        /* \"--CODEGEN--\":8862:8879   */\n      add\n        /* \"--CODEGEN--\":8855:8902   */\n      mstore\n        /* \"--CODEGEN--\":8916:9014   */\n      tag_448\n        /* \"--CODEGEN--\":9009:9013   */\n      dup2\n        /* \"--CODEGEN--\":9000:9006   */\n      dup5\n        /* \"--CODEGEN--\":8916:9014   */\n      jump(tag_418)\n    tag_448:\n        /* \"--CODEGEN--\":8908:9014   */\n      swap1\n      pop\n        /* \"--CODEGEN--\":8812:9024   */\n      swap3\n      swap2\n      pop\n      pop\n      jump\n        /* \"--CODEGEN--\":9031:9212   */\n    tag_74:\n      0x0\n        /* \"--CODEGEN--\":9133:9135   */\n      0x20\n        /* \"--CODEGEN--\":9122:9131   */\n      dup3\n        /* \"--CODEGEN--\":9118:9136   */\n      add\n        /* \"--CODEGEN--\":9110:9136   */\n      swap1\n      pop\n        /* \"--CODEGEN--\":9147:9202   */\n      tag_450\n        /* \"--CODEGEN--\":9199:9200   */\n      0x0\n        /* \"--CODEGEN--\":9188:9197   */\n      dup4\n        /* \"--CODEGEN--\":9184:9201   */\n      add\n        /* \"--CODEGEN--\":9175:9181   */\n      dup5\n        /* \"--CODEGEN--\":9147:9202   */\n      jump(tag_430)\n    tag_450:\n        /* \"--CODEGEN--\":9104:9212   */\n      swap3\n      swap2\n      pop\n      pop\n      jump\n        /* \"--CODEGEN--\":9219:10740   */\n    tag_48:\n      0x0\n        /* \"--CODEGEN--\":9663:9666   */\n      0x100\n        /* \"--CODEGEN--\":9652:9661   */\n      dup3\n        /* \"--CODEGEN--\":9648:9667   */\n      add\n        /* \"--CODEGEN--\":9640:9667   */\n      swap1\n      pop\n        /* \"--CODEGEN--\":9714:9723   */\n      dup2\n        /* \"--CODEGEN--\":9708:9712   */\n      dup2\n        /* \"--CODEGEN--\":9704:9724   */\n      sub\n        /* \"--CODEGEN--\":9700:9701   */\n      0x0\n        /* \"--CODEGEN--\":9689:9698   */\n      dup4\n        /* \"--CODEGEN--\":9685:9702   */\n      add\n        /* \"--CODEGEN--\":9678:9725   */\n      mstore\n        /* \"--CODEGEN--\":9739:9807   */\n      tag_452\n        /* \"--CODEGEN--\":9802:9806   */\n      dup2\n        /* \"--CODEGEN--\":9793:9799   */\n      dup12\n        /* \"--CODEGEN--\":9739:9807   */\n      jump(tag_434)\n    tag_452:\n        /* \"--CODEGEN--\":9731:9807   */\n      swap1\n      pop\n        /* \"--CODEGEN--\":9855:9864   */\n      dup2\n        /* \"--CODEGEN--\":9849:9853   */\n      dup2\n        /* \"--CODEGEN--\":9845:9865   */\n      sub\n        /* \"--CODEGEN--\":9840:9842   */\n      0x20\n        /* \"--CODEGEN--\":9829:9838   */\n      dup4\n        /* \"--CODEGEN--\":9825:9843   */\n      add\n        /* \"--CODEGEN--\":9818:9866   */\n      mstore\n        /* \"--CODEGEN--\":9880:9948   */\n      tag_453\n        /* \"--CODEGEN--\":9943:9947   */\n      dup2\n        /* \"--CODEGEN--\":9934:9940   */\n      dup11\n        /* \"--CODEGEN--\":9880:9948   */\n      jump(tag_434)\n    tag_453:\n        /* \"--CODEGEN--\":9872:9948   */\n      swap1\n      pop\n        /* \"--CODEGEN--\":9996:10005   */\n      dup2\n        /* \"--CODEGEN--\":9990:9994   */\n      dup2\n        /* \"--CODEGEN--\":9986:10006   */\n      sub\n        /* \"--CODEGEN--\":9981:9983   */\n      0x40\n        /* \"--CODEGEN--\":9970:9979   */\n      dup4\n        /* \"--CODEGEN--\":9966:9984   */\n      add\n        /* \"--CODEGEN--\":9959:10007   */\n      mstore\n        /* \"--CODEGEN--\":10021:10089   */\n      tag_454\n        /* \"--CODEGEN--\":10084:10088   */\n      dup2\n        /* \"--CODEGEN--\":10075:10081   */\n      dup10\n        /* \"--CODEGEN--\":10021:10089   */\n      jump(tag_434)\n    tag_454:\n        /* \"--CODEGEN--\":10013:10089   */\n      swap1\n      pop\n        /* \"--CODEGEN--\":10137:10146   */\n      dup2\n        /* \"--CODEGEN--\":10131:10135   */\n      dup2\n        /* \"--CODEGEN--\":10127:10147   */\n      sub\n        /* \"--CODEGEN--\":10122:10124   */\n      0x60\n        /* \"--CODEGEN--\":10111:10120   */\n      dup4\n        /* \"--CODEGEN--\":10107:10125   */\n      add\n        /* \"--CODEGEN--\":10100:10148   */\n      mstore\n        /* \"--CODEGEN--\":10162:10230   */\n      tag_455\n        /* \"--CODEGEN--\":10225:10229   */\n      dup2\n        /* \"--CODEGEN--\":10216:10222   */\n      dup9\n        /* \"--CODEGEN--\":10162:10230   */\n      jump(tag_434)\n    tag_455:\n        /* \"--CODEGEN--\":10154:10230   */\n      swap1\n      pop\n        /* \"--CODEGEN--\":10279:10288   */\n      dup2\n        /* \"--CODEGEN--\":10273:10277   */\n      dup2\n        /* \"--CODEGEN--\":10269:10289   */\n      sub\n        /* \"--CODEGEN--\":10263:10266   */\n      0x80\n        /* \"--CODEGEN--\":10252:10261   */\n      dup4\n        /* \"--CODEGEN--\":10248:10267   */\n      add\n        /* \"--CODEGEN--\":10241:10290   */\n      mstore\n        /* \"--CODEGEN--\":10304:10372   */\n      tag_456\n        /* \"--CODEGEN--\":10367:10371   */\n      dup2\n        /* \"--CODEGEN--\":10358:10364   */\n      dup8\n        /* \"--CODEGEN--\":10304:10372   */\n      jump(tag_434)\n    tag_456:\n        /* \"--CODEGEN--\":10296:10372   */\n      swap1\n      pop\n        /* \"--CODEGEN--\":10421:10430   */\n      dup2\n        /* \"--CODEGEN--\":10415:10419   */\n      dup2\n        /* \"--CODEGEN--\":10411:10431   */\n      sub\n        /* \"--CODEGEN--\":10405:10408   */\n      0xa0\n        /* \"--CODEGEN--\":10394:10403   */\n      dup4\n        /* \"--CODEGEN--\":10390:10409   */\n      add\n        /* \"--CODEGEN--\":10383:10432   */\n      mstore\n        /* \"--CODEGEN--\":10446:10514   */\n      tag_457\n        /* \"--CODEGEN--\":10509:10513   */\n      dup2\n        /* \"--CODEGEN--\":10500:10506   */\n      dup7\n        /* \"--CODEGEN--\":10446:10514   */\n      jump(tag_434)\n    tag_457:\n        /* \"--CODEGEN--\":10438:10514   */\n      swap1\n      pop\n        /* \"--CODEGEN--\":10563:10572   */\n      dup2\n        /* \"--CODEGEN--\":10557:10561   */\n      dup2\n        /* \"--CODEGEN--\":10553:10573   */\n      sub\n        /* \"--CODEGEN--\":10547:10550   */\n      0xc0\n        /* \"--CODEGEN--\":10536:10545   */\n      dup4\n        /* \"--CODEGEN--\":10532:10551   */\n      add\n        /* \"--CODEGEN--\":10525:10574   */\n      mstore\n        /* \"--CODEGEN--\":10588:10656   */\n      tag_458\n        /* \"--CODEGEN--\":10651:10655   */\n      dup2\n        /* \"--CODEGEN--\":10642:10648   */\n      dup6\n        /* \"--CODEGEN--\":10588:10656   */\n      jump(tag_434)\n    tag_458:\n        /* \"--CODEGEN--\":10580:10656   */\n      swap1\n      pop\n        /* \"--CODEGEN--\":10667:10730   */\n      tag_459\n        /* \"--CODEGEN--\":10725:10728   */\n      0xe0\n        /* \"--CODEGEN--\":10714:10723   */\n      dup4\n        /* \"--CODEGEN--\":10710:10729   */\n      add\n        /* \"--CODEGEN--\":10701:10707   */\n      dup5\n        /* \"--CODEGEN--\":10667:10730   */\n      jump(tag_414)\n    tag_459:\n        /* \"--CODEGEN--\":9634:10740   */\n      swap10\n      swap9\n      pop\n      pop\n      pop\n      pop\n      pop\n      pop\n      pop\n      pop\n      pop\n      jump\n        /* \"--CODEGEN--\":10747:11902   */\n    tag_118:\n      0x0\n        /* \"--CODEGEN--\":11103:11106   */\n      0xe0\n        /* \"--CODEGEN--\":11092:11101   */\n      dup3\n        /* \"--CODEGEN--\":11088:11107   */\n      add\n        /* \"--CODEGEN--\":11080:11107   */\n      swap1\n      pop\n        /* \"--CODEGEN--\":11154:11163   */\n      dup2\n        /* \"--CODEGEN--\":11148:11152   */\n      dup2\n        /* \"--CODEGEN--\":11144:11164   */\n      sub\n        /* \"--CODEGEN--\":11140:11141   */\n      0x0\n        /* \"--CODEGEN--\":11129:11138   */\n      dup4\n        /* \"--CODEGEN--\":11125:11142   */\n      add\n        /* \"--CODEGEN--\":11118:11165   */\n      mstore\n        /* \"--CODEGEN--\":11179:11247   */\n      tag_461\n        /* \"--CODEGEN--\":11242:11246   */\n      dup2\n        /* \"--CODEGEN--\":11233:11239   */\n      dup11\n        /* \"--CODEGEN--\":11179:11247   */\n      jump(tag_434)\n    tag_461:\n        /* \"--CODEGEN--\":11171:11247   */\n      swap1\n      pop\n        /* \"--CODEGEN--\":11295:11304   */\n      dup2\n        /* \"--CODEGEN--\":11289:11293   */\n      dup2\n        /* \"--CODEGEN--\":11285:11305   */\n      sub\n        /* \"--CODEGEN--\":11280:11282   */\n      0x20\n        /* \"--CODEGEN--\":11269:11278   */\n      dup4\n        /* \"--CODEGEN--\":11265:11283   */\n      add\n        /* \"--CODEGEN--\":11258:11306   */\n      mstore\n        /* \"--CODEGEN--\":11320:11388   */\n      tag_462\n        /* \"--CODEGEN--\":11383:11387   */\n      dup2\n        /* \"--CODEGEN--\":11374:11380   */\n      dup10\n        /* \"--CODEGEN--\":11320:11388   */\n      jump(tag_434)\n    tag_462:\n        /* \"--CODEGEN--\":11312:11388   */\n      swap1\n      pop\n        /* \"--CODEGEN--\":11436:11445   */\n      dup2\n        /* \"--CODEGEN--\":11430:11434   */\n      dup2\n        /* \"--CODEGEN--\":11426:11446   */\n      sub\n        /* \"--CODEGEN--\":11421:11423   */\n      0x40\n        /* \"--CODEGEN--\":11410:11419   */\n      dup4\n        /* \"--CODEGEN--\":11406:11424   */\n      add\n        /* \"--CODEGEN--\":11399:11447   */\n      mstore\n        /* \"--CODEGEN--\":11461:11529   */\n      tag_463\n        /* \"--CODEGEN--\":11524:11528   */\n      dup2\n        /* \"--CODEGEN--\":11515:11521   */\n      dup9\n        /* \"--CODEGEN--\":11461:11529   */\n      jump(tag_434)\n    tag_463:\n        /* \"--CODEGEN--\":11453:11529   */\n      swap1\n      pop\n        /* \"--CODEGEN--\":11577:11586   */\n      dup2\n        /* \"--CODEGEN--\":11571:11575   */\n      dup2\n        /* \"--CODEGEN--\":11567:11587   */\n      sub\n        /* \"--CODEGEN--\":11562:11564   */\n      0x60\n        /* \"--CODEGEN--\":11551:11560   */\n      dup4\n        /* \"--CODEGEN--\":11547:11565   */\n      add\n        /* \"--CODEGEN--\":11540:11588   */\n      mstore\n        /* \"--CODEGEN--\":11602:11670   */\n      tag_464\n        /* \"--CODEGEN--\":11665:11669   */\n      dup2\n        /* \"--CODEGEN--\":11656:11662   */\n      dup8\n        /* \"--CODEGEN--\":11602:11670   */\n      jump(tag_434)\n    tag_464:\n        /* \"--CODEGEN--\":11594:11670   */\n      swap1\n      pop\n        /* \"--CODEGEN--\":11681:11744   */\n      tag_465\n        /* \"--CODEGEN--\":11739:11742   */\n      0x80\n        /* \"--CODEGEN--\":11728:11737   */\n      dup4\n        /* \"--CODEGEN--\":11724:11743   */\n      add\n        /* \"--CODEGEN--\":11715:11721   */\n      dup7\n        /* \"--CODEGEN--\":11681:11744   */\n      jump(tag_442)\n    tag_465:\n        /* \"--CODEGEN--\":11755:11818   */\n      tag_466\n        /* \"--CODEGEN--\":11813:11816   */\n      0xa0\n        /* \"--CODEGEN--\":11802:11811   */\n      dup4\n        /* \"--CODEGEN--\":11798:11817   */\n      add\n        /* \"--CODEGEN--\":11789:11795   */\n      dup6\n        /* \"--CODEGEN--\":11755:11818   */\n      jump(tag_414)\n    tag_466:\n        /* \"--CODEGEN--\":11829:11892   */\n      tag_467\n        /* \"--CODEGEN--\":11887:11890   */\n      0xc0\n        /* \"--CODEGEN--\":11876:11885   */\n      dup4\n        /* \"--CODEGEN--\":11872:11891   */\n      add\n        /* \"--CODEGEN--\":11863:11869   */\n      dup5\n        /* \"--CODEGEN--\":11829:11892   */\n      jump(tag_414)\n    tag_467:\n        /* \"--CODEGEN--\":11074:11902   */\n      swap9\n      swap8\n      pop\n      pop\n      pop\n      pop\n      pop\n      pop\n      pop\n      pop\n      jump\n        /* \"--CODEGEN--\":11909:12102   */\n    tag_41:\n      0x0\n        /* \"--CODEGEN--\":12017:12019   */\n      0x20\n        /* \"--CODEGEN--\":12006:12015   */\n      dup3\n        /* \"--CODEGEN--\":12002:12020   */\n      add\n        /* \"--CODEGEN--\":11994:12020   */\n      swap1\n      pop\n        /* \"--CODEGEN--\":12031:12092   */\n      tag_469\n        /* \"--CODEGEN--\":12089:12090   */\n      0x0\n        /* \"--CODEGEN--\":12078:12087   */\n      dup4\n        /* \"--CODEGEN--\":12074:12091   */\n      add\n        /* \"--CODEGEN--\":12065:12071   */\n      dup5\n        /* \"--CODEGEN--\":12031:12092   */\n      jump(tag_442)\n    tag_469:\n        /* \"--CODEGEN--\":11988:12102   */\n      swap3\n      swap2\n      pop\n      pop\n      jump\n        /* \"--CODEGEN--\":12109:12365   */\n    tag_344:\n      0x0\n        /* \"--CODEGEN--\":12171:12173   */\n      0x40\n        /* \"--CODEGEN--\":12165:12174   */\n      mload\n        /* \"--CODEGEN--\":12155:12174   */\n      swap1\n      pop\n        /* \"--CODEGEN--\":12209:12213   */\n      dup2\n        /* \"--CODEGEN--\":12201:12207   */\n      dup2\n        /* \"--CODEGEN--\":12197:12214   */\n      add\n        /* \"--CODEGEN--\":12308:12314   */\n      dup2\n        /* \"--CODEGEN--\":12296:12306   */\n      dup2\n        /* \"--CODEGEN--\":12293:12315   */\n      lt\n        /* \"--CODEGEN--\":12272:12290   */\n      0xffffffffffffffff\n        /* \"--CODEGEN--\":12260:12270   */\n      dup3\n        /* \"--CODEGEN--\":12257:12291   */\n      gt\n        /* \"--CODEGEN--\":12254:12316   */\n      or\n        /* \"--CODEGEN--\":12251:12253   */\n      iszero\n      tag_471\n      jumpi\n        /* \"--CODEGEN--\":12329:12330   */\n      0x0\n        /* \"--CODEGEN--\":12326:12327   */\n      dup1\n        /* \"--CODEGEN--\":12319:12331   */\n      revert\n        /* \"--CODEGEN--\":12251:12253   */\n    tag_471:\n        /* \"--CODEGEN--\":12349:12359   */\n      dup1\n        /* \"--CODEGEN--\":12345:12347   */\n      0x40\n        /* \"--CODEGEN--\":12338:12360   */\n      mstore\n        /* \"--CODEGEN--\":12149:12365   */\n      pop\n      swap2\n      swap1\n      pop\n      jump\n        /* \"--CODEGEN--\":12372:12631   */\n    tag_343:\n      0x0\n        /* \"--CODEGEN--\":12516:12534   */\n      0xffffffffffffffff\n        /* \"--CODEGEN--\":12508:12514   */\n      dup3\n        /* \"--CODEGEN--\":12505:12535   */\n      gt\n        /* \"--CODEGEN--\":12502:12504   */\n      iszero\n      tag_473\n      jumpi\n        /* \"--CODEGEN--\":12548:12549   */\n      0x0\n        /* \"--CODEGEN--\":12545:12546   */\n      dup1\n        /* \"--CODEGEN--\":12538:12550   */\n      revert\n        /* \"--CODEGEN--\":12502:12504   */\n    tag_473:\n        /* \"--CODEGEN--\":12592:12596   */\n      0x1f\n        /* \"--CODEGEN--\":12588:12597   */\n      not\n        /* \"--CODEGEN--\":12581:12585   */\n      0x1f\n        /* \"--CODEGEN--\":12573:12579   */\n      dup4\n        /* \"--CODEGEN--\":12569:12586   */\n      add\n        /* \"--CODEGEN--\":12565:12598   */\n      and\n        /* \"--CODEGEN--\":12557:12598   */\n      swap1\n      pop\n        /* \"--CODEGEN--\":12621:12625   */\n      0x20\n        /* \"--CODEGEN--\":12615:12619   */\n      dup2\n        /* \"--CODEGEN--\":12611:12626   */\n      add\n        /* \"--CODEGEN--\":12603:12626   */\n      swap1\n      pop\n        /* \"--CODEGEN--\":12439:12631   */\n      swap2\n      swap1\n      pop\n      jump\n        /* \"--CODEGEN--\":12640:12761   */\n    tag_422:\n      0x0\n        /* \"--CODEGEN--\":12749:12753   */\n      0x20\n        /* \"--CODEGEN--\":12741:12747   */\n      dup3\n        /* \"--CODEGEN--\":12737:12754   */\n      add\n        /* \"--CODEGEN--\":12726:12754   */\n      swap1\n      pop\n        /* \"--CODEGEN--\":12718:12761   */\n      swap2\n      swap1\n      pop\n      jump\n        /* \"--CODEGEN--\":12770:12877   */\n    tag_420:\n      0x0\n        /* \"--CODEGEN--\":12866:12871   */\n      dup2\n        /* \"--CODEGEN--\":12860:12872   */\n      mload\n        /* \"--CODEGEN--\":12850:12872   */\n      swap1\n      pop\n        /* \"--CODEGEN--\":12844:12877   */\n      swap2\n      swap1\n      pop\n      jump\n        /* \"--CODEGEN--\":12884:12976   */\n    tag_436:\n      0x0\n        /* \"--CODEGEN--\":12965:12970   */\n      dup2\n        /* \"--CODEGEN--\":12959:12971   */\n      mload\n        /* \"--CODEGEN--\":12949:12971   */\n      swap1\n      pop\n        /* \"--CODEGEN--\":12943:12976   */\n      swap2\n      swap1\n      pop\n      jump\n        /* \"--CODEGEN--\":12984:13106   */\n    tag_428:\n      0x0\n        /* \"--CODEGEN--\":13095:13099   */\n      0x20\n        /* \"--CODEGEN--\":13087:13093   */\n      dup3\n        /* \"--CODEGEN--\":13083:13100   */\n      add\n        /* \"--CODEGEN--\":13072:13100   */\n      swap1\n      pop\n        /* \"--CODEGEN--\":13065:13106   */\n      swap2\n      swap1\n      pop\n      jump\n        /* \"--CODEGEN--\":13114:13242   */\n    tag_416:\n      0x0\n        /* \"--CODEGEN--\":13194:13236   */\n      0xffffffffffffffffffffffffffffffffffffffff\n        /* \"--CODEGEN--\":13187:13192   */\n      dup3\n        /* \"--CODEGEN--\":13183:13237   */\n      and\n        /* \"--CODEGEN--\":13172:13237   */\n      swap1\n      pop\n        /* \"--CODEGEN--\":13166:13242   */\n      swap2\n      swap1\n      pop\n      jump\n        /* \"--CODEGEN--\":13249:13341   */\n    tag_432:\n      0x0\n        /* \"--CODEGEN--\":13329:13334   */\n      dup2\n        /* \"--CODEGEN--\":13322:13335   */\n      iszero\n        /* \"--CODEGEN--\":13315:13336   */\n      iszero\n        /* \"--CODEGEN--\":13304:13336   */\n      swap1\n      pop\n        /* \"--CODEGEN--\":13298:13341   */\n      swap2\n      swap1\n      pop\n      jump\n        /* \"--CODEGEN--\":13348:13427   */\n    tag_444:\n      0x0\n        /* \"--CODEGEN--\":13417:13422   */\n      dup2\n        /* \"--CODEGEN--\":13406:13422   */\n      swap1\n      pop\n        /* \"--CODEGEN--\":13400:13427   */\n      swap2\n      swap1\n      pop\n      jump\n        /* \"--CODEGEN--\":13434:13562   */\n    tag_337:\n      0x0\n        /* \"--CODEGEN--\":13514:13556   */\n      0xffffffffffffffffffffffffffffffffffffffff\n        /* \"--CODEGEN--\":13507:13512   */\n      dup3\n        /* \"--CODEGEN--\":13503:13557   */\n      and\n        /* \"--CODEGEN--\":13492:13557   */\n      swap1\n      pop\n        /* \"--CODEGEN--\":13486:13562   */\n      swap2\n      swap1\n      pop\n      jump\n        /* \"--CODEGEN--\":13569:13648   */\n    tag_351:\n      0x0\n        /* \"--CODEGEN--\":13638:13643   */\n      dup2\n        /* \"--CODEGEN--\":13627:13643   */\n      swap1\n      pop\n        /* \"--CODEGEN--\":13621:13648   */\n      swap2\n      swap1\n      pop\n      jump\n        /* \"--CODEGEN--\":13656:13801   */\n    tag_347:\n        /* \"--CODEGEN--\":13737:13743   */\n      dup3\n        /* \"--CODEGEN--\":13732:13735   */\n      dup2\n        /* \"--CODEGEN--\":13727:13730   */\n      dup4\n        /* \"--CODEGEN--\":13714:13744   */\n      calldatacopy\n        /* \"--CODEGEN--\":13793:13794   */\n      0x0\n        /* \"--CODEGEN--\":13784:13790   */\n      dup4\n        /* \"--CODEGEN--\":13779:13782   */\n      dup4\n        /* \"--CODEGEN--\":13775:13791   */\n      add\n        /* \"--CODEGEN--\":13768:13795   */\n      mstore\n        /* \"--CODEGEN--\":13707:13801   */\n      pop\n      pop\n      pop\n      jump\n        /* \"--CODEGEN--\":13810:14078   */\n    tag_438:\n        /* \"--CODEGEN--\":13875:13876   */\n      0x0\n        /* \"--CODEGEN--\":13882:13983   */\n    tag_485:\n        /* \"--CODEGEN--\":13896:13902   */\n      dup4\n        /* \"--CODEGEN--\":13893:13894   */\n      dup2\n        /* \"--CODEGEN--\":13890:13903   */\n      lt\n        /* \"--CODEGEN--\":13882:13983   */\n      iszero\n      tag_486\n      jumpi\n        /* \"--CODEGEN--\":13972:13973   */\n      dup1\n        /* \"--CODEGEN--\":13967:13970   */\n      dup3\n        /* \"--CODEGEN--\":13963:13974   */\n      add\n        /* \"--CODEGEN--\":13957:13975   */\n      mload\n        /* \"--CODEGEN--\":13953:13954   */\n      dup2\n        /* \"--CODEGEN--\":13948:13951   */\n      dup5\n        /* \"--CODEGEN--\":13944:13955   */\n      add\n        /* \"--CODEGEN--\":13937:13976   */\n      mstore\n        /* \"--CODEGEN--\":13918:13920   */\n      0x20\n        /* \"--CODEGEN--\":13915:13916   */\n      dup2\n        /* \"--CODEGEN--\":13911:13921   */\n      add\n        /* \"--CODEGEN--\":13906:13921   */\n      swap1\n      pop\n        /* \"--CODEGEN--\":13882:13983   */\n      jump(tag_485)\n    tag_486:\n        /* \"--CODEGEN--\":13998:14004   */\n      dup4\n        /* \"--CODEGEN--\":13995:13996   */\n      dup2\n        /* \"--CODEGEN--\":13992:14005   */\n      gt\n        /* \"--CODEGEN--\":13989:13991   */\n      iszero\n      tag_488\n      jumpi\n        /* \"--CODEGEN--\":14063:14064   */\n      0x0\n        /* \"--CODEGEN--\":14054:14060   */\n      dup5\n        /* \"--CODEGEN--\":14049:14052   */\n      dup5\n        /* \"--CODEGEN--\":14045:14061   */\n      add\n        /* \"--CODEGEN--\":14038:14065   */\n      mstore\n        /* \"--CODEGEN--\":13989:13991   */\n    tag_488:\n        /* \"--CODEGEN--\":13859:14078   */\n      pop\n      pop\n      pop\n      pop\n      jump\n        /* \"--CODEGEN--\":14086:14183   */\n    tag_440:\n      0x0\n        /* \"--CODEGEN--\":14174:14176   */\n      0x1f\n        /* \"--CODEGEN--\":14170:14177   */\n      not\n        /* \"--CODEGEN--\":14165:14167   */\n      0x1f\n        /* \"--CODEGEN--\":14158:14163   */\n      dup4\n        /* \"--CODEGEN--\":14154:14168   */\n      add\n        /* \"--CODEGEN--\":14150:14178   */\n      and\n        /* \"--CODEGEN--\":14140:14178   */\n      swap1\n      pop\n        /* \"--CODEGEN--\":14134:14183   */\n      swap2\n      swap1\n      pop\n      jump\n\n    auxdata: 0xa265627a7a7230582099576f722e386c1f3d6019a9ef7f032f14e39f4026e0a7b46886041090da3c8a6c6578706572696d656e74616cf50037\n}\n",
				"bytecode": {
					"linkReferences": {},
					"object": "60806040526000600b556000600c556000600d556000600e556000600f5573c50c6297f56b033633c30354a854b074749cd2dc601060006101000a81548173ffffffffffffffffffffffffffffffffffffffff021916908373ffffffffffffffffffffffffffffffffffffffff16021790555034801561007e57600080fd5b506136ba8061008e6000396000f30060806040526004361061017f576000357c0100000000000000000000000000000000000000000000000000000000900463ffffffff168062ce8e3e14610184578063024decc5146101af578063076fd2f8146101da57806307973ccf1461021e578063127ca4b41461024957806316e0a6111461028657806317e51111146102af57806328f6daac146102d8578063294a45401461031557806344c23f88146103525780635fc8e8c61461038f5780636cdb2278146103cc578063779a9576146103f557806378522bc41461041e57806379111c1c14610449578063793de5f01461047457806383a28b29146104b15780638da5cb5b146104f457806396e39ce01461051f57806399d698c51461054a5780639f4216e814610575578063b13d5d94146105b2578063b5cb15f7146105dd578063b744ff4d14610608578063c3bf7bf014610633578063c543a71814610670578063caee6c851461069b578063d118404b146106df578063e0df0ac61461071c578063ff508dab14610747575b600080fd5b34801561019057600080fd5b50610199610784565b6040516101a691906133b2565b60405180910390f35b3480156101bb57600080fd5b506101c4610812565b6040516101d19190613529565b60405180910390f35b3480156101e657600080fd5b5061020160048036036101fc9190810190612e40565b61081c565b6040516102159897969594939291906133ef565b60405180910390f35b34801561022a57600080fd5b50610233610da1565b6040516102409190613529565b60405180910390f35b34801561025557600080fd5b50610270600480360361026b91908101906132b0565b610da7565b60405161027d9190613397565b60405180910390f35b34801561029257600080fd5b506102ad60048036036102a89190810190612fa3565b610de5565b005b3480156102bb57600080fd5b506102d660048036036102d19190810190612fa3565b610fd9565b005b3480156102e457600080fd5b506102ff60048036036102fa9190810190612e40565b6113f3565b60405161030c91906133d4565b60405180910390f35b34801561032157600080fd5b5061033c60048036036103379190810190612e40565b611463565b60405161034991906133d4565b60405180910390f35b34801561035e57600080fd5b5061037960048036036103749190810190612ea5565b611515565b60405161038691906133d4565b60405180910390f35b34801561039b57600080fd5b506103b660048036036103b19190810190612e40565b611843565b6040516103c391906133d4565b60405180910390f35b3480156103d857600080fd5b506103f360048036036103ee91908101906130fd565b6118e2565b005b34801561040157600080fd5b5061041c600480360361041791908101906130fd565b611d30565b005b34801561042a57600080fd5b50610433611f58565b6040516104409190613529565b60405180910390f35b34801561045557600080fd5b5061045e611f5e565b60405161046b9190613529565b60405180910390f35b34801561048057600080fd5b5061049b60048036036104969190810190612e40565b611f68565b6040516104a891906133d4565b60405180910390f35b3480156104bd57600080fd5b506104d860048036036104d39190810190612e40565b611fee565b6040516104eb979695949392919061349e565b60405180910390f35b34801561050057600080fd5b506105096123b9565b6040516105169190613397565b60405180910390f35b34801561052b57600080fd5b506105346123de565b6040516105419190613529565b60405180910390f35b34801561055657600080fd5b5061055f6123e4565b60405161056c9190613529565b60405180910390f35b34801561058157600080fd5b5061059c600480360361059791908101906132b0565b6123ea565b6040516105a99190613397565b60405180910390f35b3480156105be57600080fd5b506105c7612428565b6040516105d491906133b2565b60405180910390f35b3480156105e957600080fd5b506105f26124b6565b6040516105ff9190613529565b60405180910390f35b34801561061457600080fd5b5061061d6124c0565b60405161062a9190613397565b60405180910390f35b34801561063f57600080fd5b5061065a60048036036106559190810190612e69565b6124e6565b60405161066791906133d4565b60405180910390f35b34801561067c57600080fd5b506106856125e3565b6040516106929190613529565b60405180910390f35b3480156106a757600080fd5b506106c260048036036106bd9190810190612e40565b6125e9565b6040516106d69897969594939291906133ef565b60405180910390f35b3480156106eb57600080fd5b5061070660048036036107019190810190612e69565b612bc6565b60405161071391906133d4565b60405180910390f35b34801561072857600080fd5b50610731612cd5565b60405161073e9190613529565b60405180910390f35b34801561075357600080fd5b5061076e600480360361076991908101906132b0565b612cdf565b60405161077b9190613397565b60405180910390f35b6060600180548060200260200160405190810160405280929190818152602001828054801561080857602002820191906000526020600020905b8160009054906101000a900473ffffffffffffffffffffffffffffffffffffffff1673ffffffffffffffffffffffffffffffffffffffff16815260200190600101908083116107be575b5050505050905090565b6000600e54905090565b6060806060806060806060600080600760008b73ffffffffffffffffffffffffffffffffffffffff1673ffffffffffffffffffffffffffffffffffffffff16815260200190815260200160002060003373ffffffffffffffffffffffffffffffffffffffff1673ffffffffffffffffffffffffffffffffffffffff16815260200190815260200160002060009054906101000a900460ff1615156108bf57600080fd5b600460008b73ffffffffffffffffffffffffffffffffffffffff1673ffffffffffffffffffffffffffffffffffffffff1681526020019081526020016000209050806000018160010182600601836002018460030185600401866005018760090160009054906101000a900473ffffffffffffffffffffffffffffffffffffffff16878054600181600116156101000203166002900480601f0160208091040260200160405190810160405280929190818152602001828054600181600116156101000203166002900480156109d65780601f106109ab576101008083540402835291602001916109d6565b820191906000526020600020905b8154815290600101906020018083116109b957829003601f168201915b50505050509750868054600181600116156101000203166002900480601f016020809104026020016040519081016040528092919081815260200182805460018160011615610100020316600290048015610a725780601f10610a4757610100808354040283529160200191610a72565b820191906000526020600020905b815481529060010190602001808311610a5557829003601f168201915b50505050509650858054600181600116156101000203166002900480601f016020809104026020016040519081016040528092919081815260200182805460018160011615610100020316600290048015610b0e5780601f10610ae357610100808354040283529160200191610b0e565b820191906000526020600020905b815481529060010190602001808311610af157829003601f168201915b50505050509550848054600181600116156101000203166002900480601f016020809104026020016040519081016040528092919081815260200182805460018160011615610100020316600290048015610baa5780601f10610b7f57610100808354040283529160200191610baa565b820191906000526020600020905b815481529060010190602001808311610b8d57829003601f168201915b50505050509450838054600181600116156101000203166002900480601f016020809104026020016040519081016040528092919081815260200182805460018160011615610100020316600290048015610c465780601f10610c1b57610100808354040283529160200191610c46565b820191906000526020600020905b815481529060010190602001808311610c2957829003601f168201915b50505050509350828054600181600116156101000203166002900480601f016020809104026020016040519081016040528092919081815260200182805460018160011615610100020316600290048015610ce25780601f10610cb757610100808354040283529160200191610ce2565b820191906000526020600020905b815481529060010190602001808311610cc557829003601f168201915b50505050509250818054600181600116156101000203166002900480601f016020809104026020016040519081016040528092919081815260200182805460018160011615610100020316600290048015610d7e5780601f10610d5357610100808354040283529160200191610d7e565b820191906000526020600020905b815481529060010190602001808311610d6157829003601f168201915b505050505091509850985098509850985098509850985050919395975091939597565b600b5481565b600281815481101515610db657fe5b906000526020600020016000915054906101000a900473ffffffffffffffffffffffffffffffffffffffff1681565b6000601060009054906101000a900473ffffffffffffffffffffffffffffffffffffffff1673ffffffffffffffffffffffffffffffffffffffff163373ffffffffffffffffffffffffffffffffffffffff16141515610e4357600080fd5b600960008a73ffffffffffffffffffffffffffffffffffffffff1673ffffffffffffffffffffffffffffffffffffffff16815260200190815260200160002060009054906101000a900460ff161515610e9b57600080fd5b600560008a73ffffffffffffffffffffffffffffffffffffffff1673ffffffffffffffffffffffffffffffffffffffff168152602001908152602001600020905087816000019080519060200190610ef4929190612d1d565b5086816001019080519060200190610f0d929190612d1d565b5085816002019080519060200190610f26929190612d1d565b5084816003019080519060200190610f3f929190612d1d565b5083816005019080519060200190610f58929190612d1d565b5082816006019080519060200190610f71929190612d1d565b5081816007019080519060200190610f8a929190612d1d565b50888160080160006101000a81548173ffffffffffffffffffffffffffffffffffffffff021916908373ffffffffffffffffffffffffffffffffffffffff160217905550505050505050505050565b6000601060009054906101000a900473ffffffffffffffffffffffffffffffffffffffff1673ffffffffffffffffffffffffffffffffffffffff163373ffffffffffffffffffffffffffffffffffffffff1614151561103757600080fd5b600960008a73ffffffffffffffffffffffffffffffffffffffff1673ffffffffffffffffffffffffffffffffffffffff16815260200190815260200160002060009054906101000a900460ff1615151561109057600080fd5b600560008a73ffffffffffffffffffffffffffffffffffffffff1673ffffffffffffffffffffffffffffffffffffffff1681526020019081526020016000209050878160000190805190602001906110e9929190612d1d565b5086816001019080519060200190611102929190612d1d565b508581600201908051906020019061111b929190612d1d565b5084816003019080519060200190611134929190612d1d565b508381600501908051906020019061114d929190612d1d565b5082816006019080519060200190611166929190612d1d565b508181600701908051906020019061117f929190612d1d565b50888160080160006101000a81548173ffffffffffffffffffffffffffffffffffffffff021916908373ffffffffffffffffffffffffffffffffffffffff16021790555042816009018190555060028990806001815401808255809150509060018203906000526020600020016000909192909190916101000a81548173ffffffffffffffffffffffffffffffffffffffff021916908373ffffffffffffffffffffffffffffffffffffffff160217905550506001600960008b73ffffffffffffffffffffffffffffffffffffffff1673ffffffffffffffffffffffffffffffffffffffff16815260200190815260200160002060006101000a81548160ff0219169083151502179055506001600760008b73ffffffffffffffffffffffffffffffffffffffff1673ffffffffffffffffffffffffffffffffffffffff16815260200190815260200160002060008b73ffffffffffffffffffffffffffffffffffffffff1673ffffffffffffffffffffffffffffffffffffffff16815260200190815260200160002060006101000a81548160ff0219169083151502179055506001600760008b73ffffffffffffffffffffffffffffffffffffffff1673ffffffffffffffffffffffffffffffffffffffff1681526020019081526020016000206000601060009054906101000a900473ffffffffffffffffffffffffffffffffffffffff1673ffffffffffffffffffffffffffffffffffffffff1673ffffffffffffffffffffffffffffffffffffffff16815260200190815260200160002060006101000a81548160ff021916908315150217905550600c60008154809291906001019190505550505050505050505050565b600080829050601060009054906101000a900473ffffffffffffffffffffffffffffffffffffffff1673ffffffffffffffffffffffffffffffffffffffff168173ffffffffffffffffffffffffffffffffffffffff161415611458576001915061145d565b600091505b50919050565b60006001600760003373ffffffffffffffffffffffffffffffffffffffff1673ffffffffffffffffffffffffffffffffffffffff16815260200190815260200160002060008473ffffffffffffffffffffffffffffffffffffffff1673ffffffffffffffffffffffffffffffffffffffff16815260200190815260200160002060006101000a81548160ff021916908315150217905550600e6000815480929190600101919050555060019050919050565b600080601060009054906101000a900473ffffffffffffffffffffffffffffffffffffffff1673ffffffffffffffffffffffffffffffffffffffff163373ffffffffffffffffffffffffffffffffffffffff1614151561157457600080fd5b6001151560076000601060009054906101000a900473ffffffffffffffffffffffffffffffffffffffff1673ffffffffffffffffffffffffffffffffffffffff1673ffffffffffffffffffffffffffffffffffffffff16815260200190815260200160002060008a73ffffffffffffffffffffffffffffffffffffffff1673ffffffffffffffffffffffffffffffffffffffff16815260200190815260200160002060009054906101000a900460ff16151514151561163257600080fd5b600a60008a73ffffffffffffffffffffffffffffffffffffffff1673ffffffffffffffffffffffffffffffffffffffff16815260200190815260200160002060009054906101000a900460ff1615151561168b57600080fd5b600660008a73ffffffffffffffffffffffffffffffffffffffff1673ffffffffffffffffffffffffffffffffffffffff1681526020019081526020016000209050868160000190805190602001906116e4929190612d1d565b50858160010190805190602001906116fd929190612d1d565b5084816002019080519060200190611716929190612d1d565b508381600301908051906020019061172f929190612d1d565b50828160040181905550888160050160006101000a81548173ffffffffffffffffffffffffffffffffffffffff021916908373ffffffffffffffffffffffffffffffffffffffff160217905550878160060160006101000a81548173ffffffffffffffffffffffffffffffffffffffff021916908373ffffffffffffffffffffffffffffffffffffffff16021790555060038990806001815401808255809150509060018203906000526020600020016000909192909190916101000a81548173ffffffffffffffffffffffffffffffffffffffff021916908373ffffffffffffffffffffffffffffffffffffffff16021790555050600f6000815480929190600101919050555050979650505050505050565b600080600760003373ffffffffffffffffffffffffffffffffffffffff1673ffffffffffffffffffffffffffffffffffffffff16815260200190815260200160002060008473ffffffffffffffffffffffffffffffffffffffff1673ffffffffffffffffffffffffffffffffffffffff16815260200190815260200160002060006101000a81548160ff02191690831515021790555060019050919050565b6000601060009054906101000a900473ffffffffffffffffffffffffffffffffffffffff1673ffffffffffffffffffffffffffffffffffffffff163373ffffffffffffffffffffffffffffffffffffffff1614151561194057600080fd5b600860008c73ffffffffffffffffffffffffffffffffffffffff1673ffffffffffffffffffffffffffffffffffffffff16815260200190815260200160002060009054906101000a900460ff1615151561199957600080fd5b600460008c73ffffffffffffffffffffffffffffffffffffffff1673ffffffffffffffffffffffffffffffffffffffff1681526020019081526020016000209050898160000190805190602001906119f2929190612d1d565b5088816001019080519060200190611a0b929190612d1d565b5087816002019080519060200190611a24929190612d1d565b5086816003019080519060200190611a3d929190612d1d565b5085816004019080519060200190611a56929190612d1d565b5084816005019080519060200190611a6f929190612d1d565b5083816006019080519060200190611a88929190612d1d565b5082816007019080519060200190611aa1929190612d1d565b5081816008019080519060200190611aba929190612d1d565b508a8160090160006101000a81548173ffffffffffffffffffffffffffffffffffffffff021916908373ffffffffffffffffffffffffffffffffffffffff1602179055504281600a018190555060018b90806001815401808255809150509060018203906000526020600020016000909192909190916101000a81548173ffffffffffffffffffffffffffffffffffffffff021916908373ffffffffffffffffffffffffffffffffffffffff160217905550506001600860008d73ffffffffffffffffffffffffffffffffffffffff1673ffffffffffffffffffffffffffffffffffffffff16815260200190815260200160002060006101000a81548160ff0219169083151502179055506001600760008d73ffffffffffffffffffffffffffffffffffffffff1673ffffffffffffffffffffffffffffffffffffffff16815260200190815260200160002060008d73ffffffffffffffffffffffffffffffffffffffff1673ffffffffffffffffffffffffffffffffffffffff16815260200190815260200160002060006101000a81548160ff0219169083151502179055506001600760008d73ffffffffffffffffffffffffffffffffffffffff1673ffffffffffffffffffffffffffffffffffffffff1681526020019081526020016000206000601060009054906101000a900473ffffffffffffffffffffffffffffffffffffffff1673ffffffffffffffffffffffffffffffffffffffff1673ffffffffffffffffffffffffffffffffffffffff16815260200190815260200160002060006101000a81548160ff021916908315150217905550600b600081548092919060010191905055505050505050505050505050565b6000601060009054906101000a900473ffffffffffffffffffffffffffffffffffffffff1673ffffffffffffffffffffffffffffffffffffffff163373ffffffffffffffffffffffffffffffffffffffff16141515611d8e57600080fd5b600860008c73ffffffffffffffffffffffffffffffffffffffff1673ffffffffffffffffffffffffffffffffffffffff16815260200190815260200160002060009054906101000a900460ff161515611de657600080fd5b600460008c73ffffffffffffffffffffffffffffffffffffffff1673ffffffffffffffffffffffffffffffffffffffff168152602001908152602001600020905089816000019080519060200190611e3f929190612d1d565b5088816001019080519060200190611e58929190612d1d565b5087816002019080519060200190611e71929190612d1d565b5086816003019080519060200190611e8a929190612d1d565b5085816004019080519060200190611ea3929190612d1d565b5084816005019080519060200190611ebc929190612d1d565b5083816006019080519060200190611ed5929190612d1d565b5082816007019080519060200190611eee929190612d1d565b5081816008019080519060200190611f07929190612d1d565b508a8160090160006101000a81548173ffffffffffffffffffffffffffffffffffffffff021916908373ffffffffffffffffffffffffffffffffffffffff1602179055505050505050505050505050565b600c5481565b6000600c54905090565b60008060009050600280549050811015611fe75760011515600960008573ffffffffffffffffffffffffffffffffffffffff1673ffffffffffffffffffffffffffffffffffffffff16815260200190815260200160002060009054906101000a900460ff1615151415611fde5760019150611fe8565b60009150611fe8565b5b50919050565b606080606080600080600080600760008a73ffffffffffffffffffffffffffffffffffffffff1673ffffffffffffffffffffffffffffffffffffffff16815260200190815260200160002060003373ffffffffffffffffffffffffffffffffffffffff1673ffffffffffffffffffffffffffffffffffffffff16815260200190815260200160002060009054906101000a900460ff16151561208f57600080fd5b600660008a73ffffffffffffffffffffffffffffffffffffffff1673ffffffffffffffffffffffffffffffffffffffff16815260200190815260200160002090508060010181600001826002018360030184600401548560050160009054906101000a900473ffffffffffffffffffffffffffffffffffffffff168660060160009054906101000a900473ffffffffffffffffffffffffffffffffffffffff16868054600181600116156101000203166002900480601f0160208091040260200160405190810160405280929190818152602001828054600181600116156101000203166002900480156121c45780601f10612199576101008083540402835291602001916121c4565b820191906000526020600020905b8154815290600101906020018083116121a757829003601f168201915b50505050509650858054600181600116156101000203166002900480601f0160208091040260200160405190810160405280929190818152602001828054600181600116156101000203166002900480156122605780601f1061223557610100808354040283529160200191612260565b820191906000526020600020905b81548152906001019060200180831161224357829003601f168201915b50505050509550848054600181600116156101000203166002900480601f0160208091040260200160405190810160405280929190818152602001828054600181600116156101000203166002900480156122fc5780601f106122d1576101008083540402835291602001916122fc565b820191906000526020600020905b8154815290600101906020018083116122df57829003601f168201915b50505050509450838054600181600116156101000203166002900480601f0160208091040260200160405190810160405280929190818152602001828054600181600116156101000203166002900480156123985780601f1061236d57610100808354040283529160200191612398565b820191906000526020600020905b81548152906001019060200180831161237b57829003601f168201915b50505050509350975097509750975097509750975050919395979092949650565b6000809054906101000a900473ffffffffffffffffffffffffffffffffffffffff1681565b600f5481565b600d5481565b6001818154811015156123f957fe5b906000526020600020016000915054906101000a900473ffffffffffffffffffffffffffffffffffffffff1681565b606060028054806020026020016040519081016040528092919081815260200182805480156124ac57602002820191906000526020600020905b8160009054906101000a900473ffffffffffffffffffffffffffffffffffffffff1673ffffffffffffffffffffffffffffffffffffffff1681526020019060010190808311612462575b5050505050905090565b6000600b54905090565b601060009054906101000a900473ffffffffffffffffffffffffffffffffffffffff1681565b6000601060009054906101000a900473ffffffffffffffffffffffffffffffffffffffff1673ffffffffffffffffffffffffffffffffffffffff163373ffffffffffffffffffffffffffffffffffffffff1614151561254457600080fd5b6000600760008573ffffffffffffffffffffffffffffffffffffffff1673ffffffffffffffffffffffffffffffffffffffff16815260200190815260200160002060008473ffffffffffffffffffffffffffffffffffffffff1673ffffffffffffffffffffffffffffffffffffffff16815260200190815260200160002060006101000a81548160ff0219169083151502179055506001905092915050565b600e5481565b6060806060806060806060600080600760008b73ffffffffffffffffffffffffffffffffffffffff1673ffffffffffffffffffffffffffffffffffffffff16815260200190815260200160002060003373ffffffffffffffffffffffffffffffffffffffff1673ffffffffffffffffffffffffffffffffffffffff16815260200190815260200160002060009054906101000a900460ff16151561268c57600080fd5b600960008b73ffffffffffffffffffffffffffffffffffffffff1673ffffffffffffffffffffffffffffffffffffffff16815260200190815260200160002060009054906101000a900460ff1615156126e457600080fd5b600560008b73ffffffffffffffffffffffffffffffffffffffff1673ffffffffffffffffffffffffffffffffffffffff1681526020019081526020016000209050806000018160010182600201836003018460050185600601866007018760080160009054906101000a900473ffffffffffffffffffffffffffffffffffffffff16878054600181600116156101000203166002900480601f0160208091040260200160405190810160405280929190818152602001828054600181600116156101000203166002900480156127fb5780601f106127d0576101008083540402835291602001916127fb565b820191906000526020600020905b8154815290600101906020018083116127de57829003601f168201915b50505050509750868054600181600116156101000203166002900480601f0160208091040260200160405190810160405280929190818152602001828054600181600116156101000203166002900480156128975780601f1061286c57610100808354040283529160200191612897565b820191906000526020600020905b81548152906001019060200180831161287a57829003601f168201915b50505050509650858054600181600116156101000203166002900480601f0160208091040260200160405190810160405280929190818152602001828054600181600116156101000203166002900480156129335780601f1061290857610100808354040283529160200191612933565b820191906000526020600020905b81548152906001019060200180831161291657829003601f168201915b50505050509550848054600181600116156101000203166002900480601f0160208091040260200160405190810160405280929190818152602001828054600181600116156101000203166002900480156129cf5780601f106129a4576101008083540402835291602001916129cf565b820191906000526020600020905b8154815290600101906020018083116129b257829003601f168201915b50505050509450838054600181600116156101000203166002900480601f016020809104026020016040519081016040528092919081815260200182805460018160011615610100020316600290048015612a6b5780601f10612a4057610100808354040283529160200191612a6b565b820191906000526020600020905b815481529060010190602001808311612a4e57829003601f168201915b50505050509350828054600181600116156101000203166002900480601f016020809104026020016040519081016040528092919081815260200182805460018160011615610100020316600290048015612b075780601f10612adc57610100808354040283529160200191612b07565b820191906000526020600020905b815481529060010190602001808311612aea57829003601f168201915b50505050509250818054600181600116156101000203166002900480601f016020809104026020016040519081016040528092919081815260200182805460018160011615610100020316600290048015612ba35780601f10612b7857610100808354040283529160200191612ba3565b820191906000526020600020905b815481529060010190602001808311612b8657829003601f168201915b505050505091509850985098509850985098509850985050919395975091939597565b6000601060009054906101000a900473ffffffffffffffffffffffffffffffffffffffff1673ffffffffffffffffffffffffffffffffffffffff163373ffffffffffffffffffffffffffffffffffffffff16141515612c2457600080fd5b6001600760008573ffffffffffffffffffffffffffffffffffffffff1673ffffffffffffffffffffffffffffffffffffffff16815260200190815260200160002060008473ffffffffffffffffffffffffffffffffffffffff1673ffffffffffffffffffffffffffffffffffffffff16815260200190815260200160002060006101000a81548160ff021916908315150217905550600d600081548092919060010191905055506001905092915050565b6000600d54905090565b600381815481101515612cee57fe5b906000526020600020016000915054906101000a900473ffffffffffffffffffffffffffffffffffffffff1681565b828054600181600116156101000203166002900490600052602060002090601f016020900481019282601f10612d5e57805160ff1916838001178555612d8c565b82800160010185558215612d8c579182015b82811115612d8b578251825591602001919060010190612d70565b5b509050612d999190612d9d565b5090565b612dbf91905b80821115612dbb576000816000905550600101612da3565b5090565b90565b6000612dce8235613603565b905092915050565b600082601f8301121515612de957600080fd5b8135612dfc612df782613571565b613544565b91508082526020830160208301858383011115612e1857600080fd5b612e2383828461362d565b50505092915050565b6000612e388235613623565b905092915050565b600060208284031215612e5257600080fd5b6000612e6084828501612dc2565b91505092915050565b60008060408385031215612e7c57600080fd5b6000612e8a85828601612dc2565b9250506020612e9b85828601612dc2565b9150509250929050565b600080600080600080600060e0888a031215612ec057600080fd5b6000612ece8a828b01612dc2565b9750506020612edf8a828b01612dc2565b965050604088013567ffffffffffffffff811115612efc57600080fd5b612f088a828b01612dd6565b955050606088013567ffffffffffffffff811115612f2557600080fd5b612f318a828b01612dd6565b945050608088013567ffffffffffffffff811115612f4e57600080fd5b612f5a8a828b01612dd6565b93505060a088013567ffffffffffffffff811115612f7757600080fd5b612f838a828b01612dd6565b92505060c0612f948a828b01612e2c565b91505092959891949750929550565b600080600080600080600080610100898b031215612fc057600080fd5b6000612fce8b828c01612dc2565b985050602089013567ffffffffffffffff811115612feb57600080fd5b612ff78b828c01612dd6565b975050604089013567ffffffffffffffff81111561301457600080fd5b6130208b828c01612dd6565b965050606089013567ffffffffffffffff81111561303d57600080fd5b6130498b828c01612dd6565b955050608089013567ffffffffffffffff81111561306657600080fd5b6130728b828c01612dd6565b94505060a089013567ffffffffffffffff81111561308f57600080fd5b61309b8b828c01612dd6565b93505060c089013567ffffffffffffffff8111156130b857600080fd5b6130c48b828c01612dd6565b92505060e089013567ffffffffffffffff8111156130e157600080fd5b6130ed8b828c01612dd6565b9150509295985092959890939650565b6000806000806000806000806000806101408b8d03121561311d57600080fd5b600061312b8d828e01612dc2565b9a505060208b013567ffffffffffffffff81111561314857600080fd5b6131548d828e01612dd6565b99505060408b013567ffffffffffffffff81111561317157600080fd5b61317d8d828e01612dd6565b98505060608b013567ffffffffffffffff81111561319a57600080fd5b6131a68d828e01612dd6565b97505060808b013567ffffffffffffffff8111156131c357600080fd5b6131cf8d828e01612dd6565b96505060a08b013567ffffffffffffffff8111156131ec57600080fd5b6131f88d828e01612dd6565b95505060c08b013567ffffffffffffffff81111561321557600080fd5b6132218d828e01612dd6565b94505060e08b013567ffffffffffffffff81111561323e57600080fd5b61324a8d828e01612dd6565b9350506101008b013567ffffffffffffffff81111561326857600080fd5b6132748d828e01612dd6565b9250506101208b013567ffffffffffffffff81111561329257600080fd5b61329e8d828e01612dd6565b9150509295989b9194979a5092959850565b6000602082840312156132c257600080fd5b60006132d084828501612e2c565b91505092915050565b6132e2816135cd565b82525050565b60006132f3826135aa565b8084526020840193506133058361359d565b60005b828110156133375761331b8683516132d9565b613324826135c0565b9150602086019550600181019050613308565b50849250505092915050565b61334c816135ed565b82525050565b600061335d826135b5565b80845261337181602086016020860161363c565b61337a8161366f565b602085010191505092915050565b613391816135f9565b82525050565b60006020820190506133ac60008301846132d9565b92915050565b600060208201905081810360008301526133cc81846132e8565b905092915050565b60006020820190506133e96000830184613343565b92915050565b600061010082019050818103600083015261340a818b613352565b9050818103602083015261341e818a613352565b905081810360408301526134328189613352565b905081810360608301526134468188613352565b9050818103608083015261345a8187613352565b905081810360a083015261346e8186613352565b905081810360c08301526134828185613352565b905061349160e08301846132d9565b9998505050505050505050565b600060e08201905081810360008301526134b8818a613352565b905081810360208301526134cc8189613352565b905081810360408301526134e08188613352565b905081810360608301526134f48187613352565b90506135036080830186613388565b61351060a08301856132d9565b61351d60c08301846132d9565b98975050505050505050565b600060208201905061353e6000830184613388565b92915050565b6000604051905081810181811067ffffffffffffffff8211171561356757600080fd5b8060405250919050565b600067ffffffffffffffff82111561358857600080fd5b601f19601f8301169050602081019050919050565b6000602082019050919050565b600081519050919050565b600081519050919050565b6000602082019050919050565b600073ffffffffffffffffffffffffffffffffffffffff82169050919050565b60008115159050919050565b6000819050919050565b600073ffffffffffffffffffffffffffffffffffffffff82169050919050565b6000819050919050565b82818337600083830152505050565b60005b8381101561365a57808201518184015260208101905061363f565b83811115613669576000848401525b50505050565b6000601f19601f83011690509190505600a265627a7a7230582099576f722e386c1f3d6019a9ef7f032f14e39f4026e0a7b46886041090da3c8a6c6578706572696d656e74616cf50037",
					"opcodes": "PUSH1 0x80 PUSH1 0x40 MSTORE PUSH1 0x0 PUSH1 0xB SSTORE PUSH1 0x0 PUSH1 0xC SSTORE PUSH1 0x0 PUSH1 0xD SSTORE PUSH1 0x0 PUSH1 0xE SSTORE PUSH1 0x0 PUSH1 0xF SSTORE PUSH20 0xC50C6297F56B033633C30354A854B074749CD2DC PUSH1 0x10 PUSH1 0x0 PUSH2 0x100 EXP DUP2 SLOAD DUP2 PUSH20 0xFFFFFFFFFFFFFFFFFFFFFFFFFFFFFFFFFFFFFFFF MUL NOT AND SWAP1 DUP4 PUSH20 0xFFFFFFFFFFFFFFFFFFFFFFFFFFFFFFFFFFFFFFFF AND MUL OR SWAP1 SSTORE POP CALLVALUE DUP1 ISZERO PUSH2 0x7E JUMPI PUSH1 0x0 DUP1 REVERT JUMPDEST POP PUSH2 0x36BA DUP1 PUSH2 0x8E PUSH1 0x0 CODECOPY PUSH1 0x0 RETURN STOP PUSH1 0x80 PUSH1 0x40 MSTORE PUSH1 0x4 CALLDATASIZE LT PUSH2 0x17F JUMPI PUSH1 0x0 CALLDATALOAD PUSH29 0x100000000000000000000000000000000000000000000000000000000 SWAP1 DIV PUSH4 0xFFFFFFFF AND DUP1 PUSH3 0xCE8E3E EQ PUSH2 0x184 JUMPI DUP1 PUSH4 0x24DECC5 EQ PUSH2 0x1AF JUMPI DUP1 PUSH4 0x76FD2F8 EQ PUSH2 0x1DA JUMPI DUP1 PUSH4 0x7973CCF EQ PUSH2 0x21E JUMPI DUP1 PUSH4 0x127CA4B4 EQ PUSH2 0x249 JUMPI DUP1 PUSH4 0x16E0A611 EQ PUSH2 0x286 JUMPI DUP1 PUSH4 0x17E51111 EQ PUSH2 0x2AF JUMPI DUP1 PUSH4 0x28F6DAAC EQ PUSH2 0x2D8 JUMPI DUP1 PUSH4 0x294A4540 EQ PUSH2 0x315 JUMPI DUP1 PUSH4 0x44C23F88 EQ PUSH2 0x352 JUMPI DUP1 PUSH4 0x5FC8E8C6 EQ PUSH2 0x38F JUMPI DUP1 PUSH4 0x6CDB2278 EQ PUSH2 0x3CC JUMPI DUP1 PUSH4 0x779A9576 EQ PUSH2 0x3F5 JUMPI DUP1 PUSH4 0x78522BC4 EQ PUSH2 0x41E JUMPI DUP1 PUSH4 0x79111C1C EQ PUSH2 0x449 JUMPI DUP1 PUSH4 0x793DE5F0 EQ PUSH2 0x474 JUMPI DUP1 PUSH4 0x83A28B29 EQ PUSH2 0x4B1 JUMPI DUP1 PUSH4 0x8DA5CB5B EQ PUSH2 0x4F4 JUMPI DUP1 PUSH4 0x96E39CE0 EQ PUSH2 0x51F JUMPI DUP1 PUSH4 0x99D698C5 EQ PUSH2 0x54A JUMPI DUP1 PUSH4 0x9F4216E8 EQ PUSH2 0x575 JUMPI DUP1 PUSH4 0xB13D5D94 EQ PUSH2 0x5B2 JUMPI DUP1 PUSH4 0xB5CB15F7 EQ PUSH2 0x5DD JUMPI DUP1 PUSH4 0xB744FF4D EQ PUSH2 0x608 JUMPI DUP1 PUSH4 0xC3BF7BF0 EQ PUSH2 0x633 JUMPI DUP1 PUSH4 0xC543A718 EQ PUSH2 0x670 JUMPI DUP1 PUSH4 0xCAEE6C85 EQ PUSH2 0x69B JUMPI DUP1 PUSH4 0xD118404B EQ PUSH2 0x6DF JUMPI DUP1 PUSH4 0xE0DF0AC6 EQ PUSH2 0x71C JUMPI DUP1 PUSH4 0xFF508DAB EQ PUSH2 0x747 JUMPI JUMPDEST PUSH1 0x0 DUP1 REVERT JUMPDEST CALLVALUE DUP1 ISZERO PUSH2 0x190 JUMPI PUSH1 0x0 DUP1 REVERT JUMPDEST POP PUSH2 0x199 PUSH2 0x784 JUMP JUMPDEST PUSH1 0x40 MLOAD PUSH2 0x1A6 SWAP2 SWAP1 PUSH2 0x33B2 JUMP JUMPDEST PUSH1 0x40 MLOAD DUP1 SWAP2 SUB SWAP1 RETURN JUMPDEST CALLVALUE DUP1 ISZERO PUSH2 0x1BB JUMPI PUSH1 0x0 DUP1 REVERT JUMPDEST POP PUSH2 0x1C4 PUSH2 0x812 JUMP JUMPDEST PUSH1 0x40 MLOAD PUSH2 0x1D1 SWAP2 SWAP1 PUSH2 0x3529 JUMP JUMPDEST PUSH1 0x40 MLOAD DUP1 SWAP2 SUB SWAP1 RETURN JUMPDEST CALLVALUE DUP1 ISZERO PUSH2 0x1E6 JUMPI PUSH1 0x0 DUP1 REVERT JUMPDEST POP PUSH2 0x201 PUSH1 0x4 DUP1 CALLDATASIZE SUB PUSH2 0x1FC SWAP2 SWAP1 DUP2 ADD SWAP1 PUSH2 0x2E40 JUMP JUMPDEST PUSH2 0x81C JUMP JUMPDEST PUSH1 0x40 MLOAD PUSH2 0x215 SWAP9 SWAP8 SWAP7 SWAP6 SWAP5 SWAP4 SWAP3 SWAP2 SWAP1 PUSH2 0x33EF JUMP JUMPDEST PUSH1 0x40 MLOAD DUP1 SWAP2 SUB SWAP1 RETURN JUMPDEST CALLVALUE DUP1 ISZERO PUSH2 0x22A JUMPI PUSH1 0x0 DUP1 REVERT JUMPDEST POP PUSH2 0x233 PUSH2 0xDA1 JUMP JUMPDEST PUSH1 0x40 MLOAD PUSH2 0x240 SWAP2 SWAP1 PUSH2 0x3529 JUMP JUMPDEST PUSH1 0x40 MLOAD DUP1 SWAP2 SUB SWAP1 RETURN JUMPDEST CALLVALUE DUP1 ISZERO PUSH2 0x255 JUMPI PUSH1 0x0 DUP1 REVERT JUMPDEST POP PUSH2 0x270 PUSH1 0x4 DUP1 CALLDATASIZE SUB PUSH2 0x26B SWAP2 SWAP1 DUP2 ADD SWAP1 PUSH2 0x32B0 JUMP JUMPDEST PUSH2 0xDA7 JUMP JUMPDEST PUSH1 0x40 MLOAD PUSH2 0x27D SWAP2 SWAP1 PUSH2 0x3397 JUMP JUMPDEST PUSH1 0x40 MLOAD DUP1 SWAP2 SUB SWAP1 RETURN JUMPDEST CALLVALUE DUP1 ISZERO PUSH2 0x292 JUMPI PUSH1 0x0 DUP1 REVERT JUMPDEST POP PUSH2 0x2AD PUSH1 0x4 DUP1 CALLDATASIZE SUB PUSH2 0x2A8 SWAP2 SWAP1 DUP2 ADD SWAP1 PUSH2 0x2FA3 JUMP JUMPDEST PUSH2 0xDE5 JUMP JUMPDEST STOP JUMPDEST CALLVALUE DUP1 ISZERO PUSH2 0x2BB JUMPI PUSH1 0x0 DUP1 REVERT JUMPDEST POP PUSH2 0x2D6 PUSH1 0x4 DUP1 CALLDATASIZE SUB PUSH2 0x2D1 SWAP2 SWAP1 DUP2 ADD SWAP1 PUSH2 0x2FA3 JUMP JUMPDEST PUSH2 0xFD9 JUMP JUMPDEST STOP JUMPDEST CALLVALUE DUP1 ISZERO PUSH2 0x2E4 JUMPI PUSH1 0x0 DUP1 REVERT JUMPDEST POP PUSH2 0x2FF PUSH1 0x4 DUP1 CALLDATASIZE SUB PUSH2 0x2FA SWAP2 SWAP1 DUP2 ADD SWAP1 PUSH2 0x2E40 JUMP JUMPDEST PUSH2 0x13F3 JUMP JUMPDEST PUSH1 0x40 MLOAD PUSH2 0x30C SWAP2 SWAP1 PUSH2 0x33D4 JUMP JUMPDEST PUSH1 0x40 MLOAD DUP1 SWAP2 SUB SWAP1 RETURN JUMPDEST CALLVALUE DUP1 ISZERO PUSH2 0x321 JUMPI PUSH1 0x0 DUP1 REVERT JUMPDEST POP PUSH2 0x33C PUSH1 0x4 DUP1 CALLDATASIZE SUB PUSH2 0x337 SWAP2 SWAP1 DUP2 ADD SWAP1 PUSH2 0x2E40 JUMP JUMPDEST PUSH2 0x1463 JUMP JUMPDEST PUSH1 0x40 MLOAD PUSH2 0x349 SWAP2 SWAP1 PUSH2 0x33D4 JUMP JUMPDEST PUSH1 0x40 MLOAD DUP1 SWAP2 SUB SWAP1 RETURN JUMPDEST CALLVALUE DUP1 ISZERO PUSH2 0x35E JUMPI PUSH1 0x0 DUP1 REVERT JUMPDEST POP PUSH2 0x379 PUSH1 0x4 DUP1 CALLDATASIZE SUB PUSH2 0x374 SWAP2 SWAP1 DUP2 ADD SWAP1 PUSH2 0x2EA5 JUMP JUMPDEST PUSH2 0x1515 JUMP JUMPDEST PUSH1 0x40 MLOAD PUSH2 0x386 SWAP2 SWAP1 PUSH2 0x33D4 JUMP JUMPDEST PUSH1 0x40 MLOAD DUP1 SWAP2 SUB SWAP1 RETURN JUMPDEST CALLVALUE DUP1 ISZERO PUSH2 0x39B JUMPI PUSH1 0x0 DUP1 REVERT JUMPDEST POP PUSH2 0x3B6 PUSH1 0x4 DUP1 CALLDATASIZE SUB PUSH2 0x3B1 SWAP2 SWAP1 DUP2 ADD SWAP1 PUSH2 0x2E40 JUMP JUMPDEST PUSH2 0x1843 JUMP JUMPDEST PUSH1 0x40 MLOAD PUSH2 0x3C3 SWAP2 SWAP1 PUSH2 0x33D4 JUMP JUMPDEST PUSH1 0x40 MLOAD DUP1 SWAP2 SUB SWAP1 RETURN JUMPDEST CALLVALUE DUP1 ISZERO PUSH2 0x3D8 JUMPI PUSH1 0x0 DUP1 REVERT JUMPDEST POP PUSH2 0x3F3 PUSH1 0x4 DUP1 CALLDATASIZE SUB PUSH2 0x3EE SWAP2 SWAP1 DUP2 ADD SWAP1 PUSH2 0x30FD JUMP JUMPDEST PUSH2 0x18E2 JUMP JUMPDEST STOP JUMPDEST CALLVALUE DUP1 ISZERO PUSH2 0x401 JUMPI PUSH1 0x0 DUP1 REVERT JUMPDEST POP PUSH2 0x41C PUSH1 0x4 DUP1 CALLDATASIZE SUB PUSH2 0x417 SWAP2 SWAP1 DUP2 ADD SWAP1 PUSH2 0x30FD JUMP JUMPDEST PUSH2 0x1D30 JUMP JUMPDEST STOP JUMPDEST CALLVALUE DUP1 ISZERO PUSH2 0x42A JUMPI PUSH1 0x0 DUP1 REVERT JUMPDEST POP PUSH2 0x433 PUSH2 0x1F58 JUMP JUMPDEST PUSH1 0x40 MLOAD PUSH2 0x440 SWAP2 SWAP1 PUSH2 0x3529 JUMP JUMPDEST PUSH1 0x40 MLOAD DUP1 SWAP2 SUB SWAP1 RETURN JUMPDEST CALLVALUE DUP1 ISZERO PUSH2 0x455 JUMPI PUSH1 0x0 DUP1 REVERT JUMPDEST POP PUSH2 0x45E PUSH2 0x1F5E JUMP JUMPDEST PUSH1 0x40 MLOAD PUSH2 0x46B SWAP2 SWAP1 PUSH2 0x3529 JUMP JUMPDEST PUSH1 0x40 MLOAD DUP1 SWAP2 SUB SWAP1 RETURN JUMPDEST CALLVALUE DUP1 ISZERO PUSH2 0x480 JUMPI PUSH1 0x0 DUP1 REVERT JUMPDEST POP PUSH2 0x49B PUSH1 0x4 DUP1 CALLDATASIZE SUB PUSH2 0x496 SWAP2 SWAP1 DUP2 ADD SWAP1 PUSH2 0x2E40 JUMP JUMPDEST PUSH2 0x1F68 JUMP JUMPDEST PUSH1 0x40 MLOAD PUSH2 0x4A8 SWAP2 SWAP1 PUSH2 0x33D4 JUMP JUMPDEST PUSH1 0x40 MLOAD DUP1 SWAP2 SUB SWAP1 RETURN JUMPDEST CALLVALUE DUP1 ISZERO PUSH2 0x4BD JUMPI PUSH1 0x0 DUP1 REVERT JUMPDEST POP PUSH2 0x4D8 PUSH1 0x4 DUP1 CALLDATASIZE SUB PUSH2 0x4D3 SWAP2 SWAP1 DUP2 ADD SWAP1 PUSH2 0x2E40 JUMP JUMPDEST PUSH2 0x1FEE JUMP JUMPDEST PUSH1 0x40 MLOAD PUSH2 0x4EB SWAP8 SWAP7 SWAP6 SWAP5 SWAP4 SWAP3 SWAP2 SWAP1 PUSH2 0x349E JUMP JUMPDEST PUSH1 0x40 MLOAD DUP1 SWAP2 SUB SWAP1 RETURN JUMPDEST CALLVALUE DUP1 ISZERO PUSH2 0x500 JUMPI PUSH1 0x0 DUP1 REVERT JUMPDEST POP PUSH2 0x509 PUSH2 0x23B9 JUMP JUMPDEST PUSH1 0x40 MLOAD PUSH2 0x516 SWAP2 SWAP1 PUSH2 0x3397 JUMP JUMPDEST PUSH1 0x40 MLOAD DUP1 SWAP2 SUB SWAP1 RETURN JUMPDEST CALLVALUE DUP1 ISZERO PUSH2 0x52B JUMPI PUSH1 0x0 DUP1 REVERT JUMPDEST POP PUSH2 0x534 PUSH2 0x23DE JUMP JUMPDEST PUSH1 0x40 MLOAD PUSH2 0x541 SWAP2 SWAP1 PUSH2 0x3529 JUMP JUMPDEST PUSH1 0x40 MLOAD DUP1 SWAP2 SUB SWAP1 RETURN JUMPDEST CALLVALUE DUP1 ISZERO PUSH2 0x556 JUMPI PUSH1 0x0 DUP1 REVERT JUMPDEST POP PUSH2 0x55F PUSH2 0x23E4 JUMP JUMPDEST PUSH1 0x40 MLOAD PUSH2 0x56C SWAP2 SWAP1 PUSH2 0x3529 JUMP JUMPDEST PUSH1 0x40 MLOAD DUP1 SWAP2 SUB SWAP1 RETURN JUMPDEST CALLVALUE DUP1 ISZERO PUSH2 0x581 JUMPI PUSH1 0x0 DUP1 REVERT JUMPDEST POP PUSH2 0x59C PUSH1 0x4 DUP1 CALLDATASIZE SUB PUSH2 0x597 SWAP2 SWAP1 DUP2 ADD SWAP1 PUSH2 0x32B0 JUMP JUMPDEST PUSH2 0x23EA JUMP JUMPDEST PUSH1 0x40 MLOAD PUSH2 0x5A9 SWAP2 SWAP1 PUSH2 0x3397 JUMP JUMPDEST PUSH1 0x40 MLOAD DUP1 SWAP2 SUB SWAP1 RETURN JUMPDEST CALLVALUE DUP1 ISZERO PUSH2 0x5BE JUMPI PUSH1 0x0 DUP1 REVERT JUMPDEST POP PUSH2 0x5C7 PUSH2 0x2428 JUMP JUMPDEST PUSH1 0x40 MLOAD PUSH2 0x5D4 SWAP2 SWAP1 PUSH2 0x33B2 JUMP JUMPDEST PUSH1 0x40 MLOAD DUP1 SWAP2 SUB SWAP1 RETURN JUMPDEST CALLVALUE DUP1 ISZERO PUSH2 0x5E9 JUMPI PUSH1 0x0 DUP1 REVERT JUMPDEST POP PUSH2 0x5F2 PUSH2 0x24B6 JUMP JUMPDEST PUSH1 0x40 MLOAD PUSH2 0x5FF SWAP2 SWAP1 PUSH2 0x3529 JUMP JUMPDEST PUSH1 0x40 MLOAD DUP1 SWAP2 SUB SWAP1 RETURN JUMPDEST CALLVALUE DUP1 ISZERO PUSH2 0x614 JUMPI PUSH1 0x0 DUP1 REVERT JUMPDEST POP PUSH2 0x61D PUSH2 0x24C0 JUMP JUMPDEST PUSH1 0x40 MLOAD PUSH2 0x62A SWAP2 SWAP1 PUSH2 0x3397 JUMP JUMPDEST PUSH1 0x40 MLOAD DUP1 SWAP2 SUB SWAP1 RETURN JUMPDEST CALLVALUE DUP1 ISZERO PUSH2 0x63F JUMPI PUSH1 0x0 DUP1 REVERT JUMPDEST POP PUSH2 0x65A PUSH1 0x4 DUP1 CALLDATASIZE SUB PUSH2 0x655 SWAP2 SWAP1 DUP2 ADD SWAP1 PUSH2 0x2E69 JUMP JUMPDEST PUSH2 0x24E6 JUMP JUMPDEST PUSH1 0x40 MLOAD PUSH2 0x667 SWAP2 SWAP1 PUSH2 0x33D4 JUMP JUMPDEST PUSH1 0x40 MLOAD DUP1 SWAP2 SUB SWAP1 RETURN JUMPDEST CALLVALUE DUP1 ISZERO PUSH2 0x67C JUMPI PUSH1 0x0 DUP1 REVERT JUMPDEST POP PUSH2 0x685 PUSH2 0x25E3 JUMP JUMPDEST PUSH1 0x40 MLOAD PUSH2 0x692 SWAP2 SWAP1 PUSH2 0x3529 JUMP JUMPDEST PUSH1 0x40 MLOAD DUP1 SWAP2 SUB SWAP1 RETURN JUMPDEST CALLVALUE DUP1 ISZERO PUSH2 0x6A7 JUMPI PUSH1 0x0 DUP1 REVERT JUMPDEST POP PUSH2 0x6C2 PUSH1 0x4 DUP1 CALLDATASIZE SUB PUSH2 0x6BD SWAP2 SWAP1 DUP2 ADD SWAP1 PUSH2 0x2E40 JUMP JUMPDEST PUSH2 0x25E9 JUMP JUMPDEST PUSH1 0x40 MLOAD PUSH2 0x6D6 SWAP9 SWAP8 SWAP7 SWAP6 SWAP5 SWAP4 SWAP3 SWAP2 SWAP1 PUSH2 0x33EF JUMP JUMPDEST PUSH1 0x40 MLOAD DUP1 SWAP2 SUB SWAP1 RETURN JUMPDEST CALLVALUE DUP1 ISZERO PUSH2 0x6EB JUMPI PUSH1 0x0 DUP1 REVERT JUMPDEST POP PUSH2 0x706 PUSH1 0x4 DUP1 CALLDATASIZE SUB PUSH2 0x701 SWAP2 SWAP1 DUP2 ADD SWAP1 PUSH2 0x2E69 JUMP JUMPDEST PUSH2 0x2BC6 JUMP JUMPDEST PUSH1 0x40 MLOAD PUSH2 0x713 SWAP2 SWAP1 PUSH2 0x33D4 JUMP JUMPDEST PUSH1 0x40 MLOAD DUP1 SWAP2 SUB SWAP1 RETURN JUMPDEST CALLVALUE DUP1 ISZERO PUSH2 0x728 JUMPI PUSH1 0x0 DUP1 REVERT JUMPDEST POP PUSH2 0x731 PUSH2 0x2CD5 JUMP JUMPDEST PUSH1 0x40 MLOAD PUSH2 0x73E SWAP2 SWAP1 PUSH2 0x3529 JUMP JUMPDEST PUSH1 0x40 MLOAD DUP1 SWAP2 SUB SWAP1 RETURN JUMPDEST CALLVALUE DUP1 ISZERO PUSH2 0x753 JUMPI PUSH1 0x0 DUP1 REVERT JUMPDEST POP PUSH2 0x76E PUSH1 0x4 DUP1 CALLDATASIZE SUB PUSH2 0x769 SWAP2 SWAP1 DUP2 ADD SWAP1 PUSH2 0x32B0 JUMP JUMPDEST PUSH2 0x2CDF JUMP JUMPDEST PUSH1 0x40 MLOAD PUSH2 0x77B SWAP2 SWAP1 PUSH2 0x3397 JUMP JUMPDEST PUSH1 0x40 MLOAD DUP1 SWAP2 SUB SWAP1 RETURN JUMPDEST PUSH1 0x60 PUSH1 0x1 DUP1 SLOAD DUP1 PUSH1 0x20 MUL PUSH1 0x20 ADD PUSH1 0x40 MLOAD SWAP1 DUP2 ADD PUSH1 0x40 MSTORE DUP1 SWAP3 SWAP2 SWAP1 DUP2 DUP2 MSTORE PUSH1 0x20 ADD DUP3 DUP1 SLOAD DUP1 ISZERO PUSH2 0x808 JUMPI PUSH1 0x20 MUL DUP3 ADD SWAP2 SWAP1 PUSH1 0x0 MSTORE PUSH1 0x20 PUSH1 0x0 KECCAK256 SWAP1 JUMPDEST DUP2 PUSH1 0x0 SWAP1 SLOAD SWAP1 PUSH2 0x100 EXP SWAP1 DIV PUSH20 0xFFFFFFFFFFFFFFFFFFFFFFFFFFFFFFFFFFFFFFFF AND PUSH20 0xFFFFFFFFFFFFFFFFFFFFFFFFFFFFFFFFFFFFFFFF AND DUP2 MSTORE PUSH1 0x20 ADD SWAP1 PUSH1 0x1 ADD SWAP1 DUP1 DUP4 GT PUSH2 0x7BE JUMPI JUMPDEST POP POP POP POP POP SWAP1 POP SWAP1 JUMP JUMPDEST PUSH1 0x0 PUSH1 0xE SLOAD SWAP1 POP SWAP1 JUMP JUMPDEST PUSH1 0x60 DUP1 PUSH1 0x60 DUP1 PUSH1 0x60 DUP1 PUSH1 0x60 PUSH1 0x0 DUP1 PUSH1 0x7 PUSH1 0x0 DUP12 PUSH20 0xFFFFFFFFFFFFFFFFFFFFFFFFFFFFFFFFFFFFFFFF AND PUSH20 0xFFFFFFFFFFFFFFFFFFFFFFFFFFFFFFFFFFFFFFFF AND DUP2 MSTORE PUSH1 0x20 ADD SWAP1 DUP2 MSTORE PUSH1 0x20 ADD PUSH1 0x0 KECCAK256 PUSH1 0x0 CALLER PUSH20 0xFFFFFFFFFFFFFFFFFFFFFFFFFFFFFFFFFFFFFFFF AND PUSH20 0xFFFFFFFFFFFFFFFFFFFFFFFFFFFFFFFFFFFFFFFF AND DUP2 MSTORE PUSH1 0x20 ADD SWAP1 DUP2 MSTORE PUSH1 0x20 ADD PUSH1 0x0 KECCAK256 PUSH1 0x0 SWAP1 SLOAD SWAP1 PUSH2 0x100 EXP SWAP1 DIV PUSH1 0xFF AND ISZERO ISZERO PUSH2 0x8BF JUMPI PUSH1 0x0 DUP1 REVERT JUMPDEST PUSH1 0x4 PUSH1 0x0 DUP12 PUSH20 0xFFFFFFFFFFFFFFFFFFFFFFFFFFFFFFFFFFFFFFFF AND PUSH20 0xFFFFFFFFFFFFFFFFFFFFFFFFFFFFFFFFFFFFFFFF AND DUP2 MSTORE PUSH1 0x20 ADD SWAP1 DUP2 MSTORE PUSH1 0x20 ADD PUSH1 0x0 KECCAK256 SWAP1 POP DUP1 PUSH1 0x0 ADD DUP2 PUSH1 0x1 ADD DUP3 PUSH1 0x6 ADD DUP4 PUSH1 0x2 ADD DUP5 PUSH1 0x3 ADD DUP6 PUSH1 0x4 ADD DUP7 PUSH1 0x5 ADD DUP8 PUSH1 0x9 ADD PUSH1 0x0 SWAP1 SLOAD SWAP1 PUSH2 0x100 EXP SWAP1 DIV PUSH20 0xFFFFFFFFFFFFFFFFFFFFFFFFFFFFFFFFFFFFFFFF AND DUP8 DUP1 SLOAD PUSH1 0x1 DUP2 PUSH1 0x1 AND ISZERO PUSH2 0x100 MUL SUB AND PUSH1 0x2 SWAP1 DIV DUP1 PUSH1 0x1F ADD PUSH1 0x20 DUP1 SWAP2 DIV MUL PUSH1 0x20 ADD PUSH1 0x40 MLOAD SWAP1 DUP2 ADD PUSH1 0x40 MSTORE DUP1 SWAP3 SWAP2 SWAP1 DUP2 DUP2 MSTORE PUSH1 0x20 ADD DUP3 DUP1 SLOAD PUSH1 0x1 DUP2 PUSH1 0x1 AND ISZERO PUSH2 0x100 MUL SUB AND PUSH1 0x2 SWAP1 DIV DUP1 ISZERO PUSH2 0x9D6 JUMPI DUP1 PUSH1 0x1F LT PUSH2 0x9AB JUMPI PUSH2 0x100 DUP1 DUP4 SLOAD DIV MUL DUP4 MSTORE SWAP2 PUSH1 0x20 ADD SWAP2 PUSH2 0x9D6 JUMP JUMPDEST DUP3 ADD SWAP2 SWAP1 PUSH1 0x0 MSTORE PUSH1 0x20 PUSH1 0x0 KECCAK256 SWAP1 JUMPDEST DUP2 SLOAD DUP2 MSTORE SWAP1 PUSH1 0x1 ADD SWAP1 PUSH1 0x20 ADD DUP1 DUP4 GT PUSH2 0x9B9 JUMPI DUP3 SWAP1 SUB PUSH1 0x1F AND DUP3 ADD SWAP2 JUMPDEST POP POP POP POP POP SWAP8 POP DUP7 DUP1 SLOAD PUSH1 0x1 DUP2 PUSH1 0x1 AND ISZERO PUSH2 0x100 MUL SUB AND PUSH1 0x2 SWAP1 DIV DUP1 PUSH1 0x1F ADD PUSH1 0x20 DUP1 SWAP2 DIV MUL PUSH1 0x20 ADD PUSH1 0x40 MLOAD SWAP1 DUP2 ADD PUSH1 0x40 MSTORE DUP1 SWAP3 SWAP2 SWAP1 DUP2 DUP2 MSTORE PUSH1 0x20 ADD DUP3 DUP1 SLOAD PUSH1 0x1 DUP2 PUSH1 0x1 AND ISZERO PUSH2 0x100 MUL SUB AND PUSH1 0x2 SWAP1 DIV DUP1 ISZERO PUSH2 0xA72 JUMPI DUP1 PUSH1 0x1F LT PUSH2 0xA47 JUMPI PUSH2 0x100 DUP1 DUP4 SLOAD DIV MUL DUP4 MSTORE SWAP2 PUSH1 0x20 ADD SWAP2 PUSH2 0xA72 JUMP JUMPDEST DUP3 ADD SWAP2 SWAP1 PUSH1 0x0 MSTORE PUSH1 0x20 PUSH1 0x0 KECCAK256 SWAP1 JUMPDEST DUP2 SLOAD DUP2 MSTORE SWAP1 PUSH1 0x1 ADD SWAP1 PUSH1 0x20 ADD DUP1 DUP4 GT PUSH2 0xA55 JUMPI DUP3 SWAP1 SUB PUSH1 0x1F AND DUP3 ADD SWAP2 JUMPDEST POP POP POP POP POP SWAP7 POP DUP6 DUP1 SLOAD PUSH1 0x1 DUP2 PUSH1 0x1 AND ISZERO PUSH2 0x100 MUL SUB AND PUSH1 0x2 SWAP1 DIV DUP1 PUSH1 0x1F ADD PUSH1 0x20 DUP1 SWAP2 DIV MUL PUSH1 0x20 ADD PUSH1 0x40 MLOAD SWAP1 DUP2 ADD PUSH1 0x40 MSTORE DUP1 SWAP3 SWAP2 SWAP1 DUP2 DUP2 MSTORE PUSH1 0x20 ADD DUP3 DUP1 SLOAD PUSH1 0x1 DUP2 PUSH1 0x1 AND ISZERO PUSH2 0x100 MUL SUB AND PUSH1 0x2 SWAP1 DIV DUP1 ISZERO PUSH2 0xB0E JUMPI DUP1 PUSH1 0x1F LT PUSH2 0xAE3 JUMPI PUSH2 0x100 DUP1 DUP4 SLOAD DIV MUL DUP4 MSTORE SWAP2 PUSH1 0x20 ADD SWAP2 PUSH2 0xB0E JUMP JUMPDEST DUP3 ADD SWAP2 SWAP1 PUSH1 0x0 MSTORE PUSH1 0x20 PUSH1 0x0 KECCAK256 SWAP1 JUMPDEST DUP2 SLOAD DUP2 MSTORE SWAP1 PUSH1 0x1 ADD SWAP1 PUSH1 0x20 ADD DUP1 DUP4 GT PUSH2 0xAF1 JUMPI DUP3 SWAP1 SUB PUSH1 0x1F AND DUP3 ADD SWAP2 JUMPDEST POP POP POP POP POP SWAP6 POP DUP5 DUP1 SLOAD PUSH1 0x1 DUP2 PUSH1 0x1 AND ISZERO PUSH2 0x100 MUL SUB AND PUSH1 0x2 SWAP1 DIV DUP1 PUSH1 0x1F ADD PUSH1 0x20 DUP1 SWAP2 DIV MUL PUSH1 0x20 ADD PUSH1 0x40 MLOAD SWAP1 DUP2 ADD PUSH1 0x40 MSTORE DUP1 SWAP3 SWAP2 SWAP1 DUP2 DUP2 MSTORE PUSH1 0x20 ADD DUP3 DUP1 SLOAD PUSH1 0x1 DUP2 PUSH1 0x1 AND ISZERO PUSH2 0x100 MUL SUB AND PUSH1 0x2 SWAP1 DIV DUP1 ISZERO PUSH2 0xBAA JUMPI DUP1 PUSH1 0x1F LT PUSH2 0xB7F JUMPI PUSH2 0x100 DUP1 DUP4 SLOAD DIV MUL DUP4 MSTORE SWAP2 PUSH1 0x20 ADD SWAP2 PUSH2 0xBAA JUMP JUMPDEST DUP3 ADD SWAP2 SWAP1 PUSH1 0x0 MSTORE PUSH1 0x20 PUSH1 0x0 KECCAK256 SWAP1 JUMPDEST DUP2 SLOAD DUP2 MSTORE SWAP1 PUSH1 0x1 ADD SWAP1 PUSH1 0x20 ADD DUP1 DUP4 GT PUSH2 0xB8D JUMPI DUP3 SWAP1 SUB PUSH1 0x1F AND DUP3 ADD SWAP2 JUMPDEST POP POP POP POP POP SWAP5 POP DUP4 DUP1 SLOAD PUSH1 0x1 DUP2 PUSH1 0x1 AND ISZERO PUSH2 0x100 MUL SUB AND PUSH1 0x2 SWAP1 DIV DUP1 PUSH1 0x1F ADD PUSH1 0x20 DUP1 SWAP2 DIV MUL PUSH1 0x20 ADD PUSH1 0x40 MLOAD SWAP1 DUP2 ADD PUSH1 0x40 MSTORE DUP1 SWAP3 SWAP2 SWAP1 DUP2 DUP2 MSTORE PUSH1 0x20 ADD DUP3 DUP1 SLOAD PUSH1 0x1 DUP2 PUSH1 0x1 AND ISZERO PUSH2 0x100 MUL SUB AND PUSH1 0x2 SWAP1 DIV DUP1 ISZERO PUSH2 0xC46 JUMPI DUP1 PUSH1 0x1F LT PUSH2 0xC1B JUMPI PUSH2 0x100 DUP1 DUP4 SLOAD DIV MUL DUP4 MSTORE SWAP2 PUSH1 0x20 ADD SWAP2 PUSH2 0xC46 JUMP JUMPDEST DUP3 ADD SWAP2 SWAP1 PUSH1 0x0 MSTORE PUSH1 0x20 PUSH1 0x0 KECCAK256 SWAP1 JUMPDEST DUP2 SLOAD DUP2 MSTORE SWAP1 PUSH1 0x1 ADD SWAP1 PUSH1 0x20 ADD DUP1 DUP4 GT PUSH2 0xC29 JUMPI DUP3 SWAP1 SUB PUSH1 0x1F AND DUP3 ADD SWAP2 JUMPDEST POP POP POP POP POP SWAP4 POP DUP3 DUP1 SLOAD PUSH1 0x1 DUP2 PUSH1 0x1 AND ISZERO PUSH2 0x100 MUL SUB AND PUSH1 0x2 SWAP1 DIV DUP1 PUSH1 0x1F ADD PUSH1 0x20 DUP1 SWAP2 DIV MUL PUSH1 0x20 ADD PUSH1 0x40 MLOAD SWAP1 DUP2 ADD PUSH1 0x40 MSTORE DUP1 SWAP3 SWAP2 SWAP1 DUP2 DUP2 MSTORE PUSH1 0x20 ADD DUP3 DUP1 SLOAD PUSH1 0x1 DUP2 PUSH1 0x1 AND ISZERO PUSH2 0x100 MUL SUB AND PUSH1 0x2 SWAP1 DIV DUP1 ISZERO PUSH2 0xCE2 JUMPI DUP1 PUSH1 0x1F LT PUSH2 0xCB7 JUMPI PUSH2 0x100 DUP1 DUP4 SLOAD DIV MUL DUP4 MSTORE SWAP2 PUSH1 0x20 ADD SWAP2 PUSH2 0xCE2 JUMP JUMPDEST DUP3 ADD SWAP2 SWAP1 PUSH1 0x0 MSTORE PUSH1 0x20 PUSH1 0x0 KECCAK256 SWAP1 JUMPDEST DUP2 SLOAD DUP2 MSTORE SWAP1 PUSH1 0x1 ADD SWAP1 PUSH1 0x20 ADD DUP1 DUP4 GT PUSH2 0xCC5 JUMPI DUP3 SWAP1 SUB PUSH1 0x1F AND DUP3 ADD SWAP2 JUMPDEST POP POP POP POP POP SWAP3 POP DUP2 DUP1 SLOAD PUSH1 0x1 DUP2 PUSH1 0x1 AND ISZERO PUSH2 0x100 MUL SUB AND PUSH1 0x2 SWAP1 DIV DUP1 PUSH1 0x1F ADD PUSH1 0x20 DUP1 SWAP2 DIV MUL PUSH1 0x20 ADD PUSH1 0x40 MLOAD SWAP1 DUP2 ADD PUSH1 0x40 MSTORE DUP1 SWAP3 SWAP2 SWAP1 DUP2 DUP2 MSTORE PUSH1 0x20 ADD DUP3 DUP1 SLOAD PUSH1 0x1 DUP2 PUSH1 0x1 AND ISZERO PUSH2 0x100 MUL SUB AND PUSH1 0x2 SWAP1 DIV DUP1 ISZERO PUSH2 0xD7E JUMPI DUP1 PUSH1 0x1F LT PUSH2 0xD53 JUMPI PUSH2 0x100 DUP1 DUP4 SLOAD DIV MUL DUP4 MSTORE SWAP2 PUSH1 0x20 ADD SWAP2 PUSH2 0xD7E JUMP JUMPDEST DUP3 ADD SWAP2 SWAP1 PUSH1 0x0 MSTORE PUSH1 0x20 PUSH1 0x0 KECCAK256 SWAP1 JUMPDEST DUP2 SLOAD DUP2 MSTORE SWAP1 PUSH1 0x1 ADD SWAP1 PUSH1 0x20 ADD DUP1 DUP4 GT PUSH2 0xD61 JUMPI DUP3 SWAP1 SUB PUSH1 0x1F AND DUP3 ADD SWAP2 JUMPDEST POP POP POP POP POP SWAP2 POP SWAP9 POP SWAP9 POP SWAP9 POP SWAP9 POP SWAP9 POP SWAP9 POP SWAP9 POP SWAP9 POP POP SWAP2 SWAP4 SWAP6 SWAP8 POP SWAP2 SWAP4 SWAP6 SWAP8 JUMP JUMPDEST PUSH1 0xB SLOAD DUP2 JUMP JUMPDEST PUSH1 0x2 DUP2 DUP2 SLOAD DUP2 LT ISZERO ISZERO PUSH2 0xDB6 JUMPI INVALID JUMPDEST SWAP1 PUSH1 0x0 MSTORE PUSH1 0x20 PUSH1 0x0 KECCAK256 ADD PUSH1 0x0 SWAP2 POP SLOAD SWAP1 PUSH2 0x100 EXP SWAP1 DIV PUSH20 0xFFFFFFFFFFFFFFFFFFFFFFFFFFFFFFFFFFFFFFFF AND DUP2 JUMP JUMPDEST PUSH1 0x0 PUSH1 0x10 PUSH1 0x0 SWAP1 SLOAD SWAP1 PUSH2 0x100 EXP SWAP1 DIV PUSH20 0xFFFFFFFFFFFFFFFFFFFFFFFFFFFFFFFFFFFFFFFF AND PUSH20 0xFFFFFFFFFFFFFFFFFFFFFFFFFFFFFFFFFFFFFFFF AND CALLER PUSH20 0xFFFFFFFFFFFFFFFFFFFFFFFFFFFFFFFFFFFFFFFF AND EQ ISZERO ISZERO PUSH2 0xE43 JUMPI PUSH1 0x0 DUP1 REVERT JUMPDEST PUSH1 0x9 PUSH1 0x0 DUP11 PUSH20 0xFFFFFFFFFFFFFFFFFFFFFFFFFFFFFFFFFFFFFFFF AND PUSH20 0xFFFFFFFFFFFFFFFFFFFFFFFFFFFFFFFFFFFFFFFF AND DUP2 MSTORE PUSH1 0x20 ADD SWAP1 DUP2 MSTORE PUSH1 0x20 ADD PUSH1 0x0 KECCAK256 PUSH1 0x0 SWAP1 SLOAD SWAP1 PUSH2 0x100 EXP SWAP1 DIV PUSH1 0xFF AND ISZERO ISZERO PUSH2 0xE9B JUMPI PUSH1 0x0 DUP1 REVERT JUMPDEST PUSH1 0x5 PUSH1 0x0 DUP11 PUSH20 0xFFFFFFFFFFFFFFFFFFFFFFFFFFFFFFFFFFFFFFFF AND PUSH20 0xFFFFFFFFFFFFFFFFFFFFFFFFFFFFFFFFFFFFFFFF AND DUP2 MSTORE PUSH1 0x20 ADD SWAP1 DUP2 MSTORE PUSH1 0x20 ADD PUSH1 0x0 KECCAK256 SWAP1 POP DUP8 DUP2 PUSH1 0x0 ADD SWAP1 DUP1 MLOAD SWAP1 PUSH1 0x20 ADD SWAP1 PUSH2 0xEF4 SWAP3 SWAP2 SWAP1 PUSH2 0x2D1D JUMP JUMPDEST POP DUP7 DUP2 PUSH1 0x1 ADD SWAP1 DUP1 MLOAD SWAP1 PUSH1 0x20 ADD SWAP1 PUSH2 0xF0D SWAP3 SWAP2 SWAP1 PUSH2 0x2D1D JUMP JUMPDEST POP DUP6 DUP2 PUSH1 0x2 ADD SWAP1 DUP1 MLOAD SWAP1 PUSH1 0x20 ADD SWAP1 PUSH2 0xF26 SWAP3 SWAP2 SWAP1 PUSH2 0x2D1D JUMP JUMPDEST POP DUP5 DUP2 PUSH1 0x3 ADD SWAP1 DUP1 MLOAD SWAP1 PUSH1 0x20 ADD SWAP1 PUSH2 0xF3F SWAP3 SWAP2 SWAP1 PUSH2 0x2D1D JUMP JUMPDEST POP DUP4 DUP2 PUSH1 0x5 ADD SWAP1 DUP1 MLOAD SWAP1 PUSH1 0x20 ADD SWAP1 PUSH2 0xF58 SWAP3 SWAP2 SWAP1 PUSH2 0x2D1D JUMP JUMPDEST POP DUP3 DUP2 PUSH1 0x6 ADD SWAP1 DUP1 MLOAD SWAP1 PUSH1 0x20 ADD SWAP1 PUSH2 0xF71 SWAP3 SWAP2 SWAP1 PUSH2 0x2D1D JUMP JUMPDEST POP DUP2 DUP2 PUSH1 0x7 ADD SWAP1 DUP1 MLOAD SWAP1 PUSH1 0x20 ADD SWAP1 PUSH2 0xF8A SWAP3 SWAP2 SWAP1 PUSH2 0x2D1D JUMP JUMPDEST POP DUP9 DUP2 PUSH1 0x8 ADD PUSH1 0x0 PUSH2 0x100 EXP DUP2 SLOAD DUP2 PUSH20 0xFFFFFFFFFFFFFFFFFFFFFFFFFFFFFFFFFFFFFFFF MUL NOT AND SWAP1 DUP4 PUSH20 0xFFFFFFFFFFFFFFFFFFFFFFFFFFFFFFFFFFFFFFFF AND MUL OR SWAP1 SSTORE POP POP POP POP POP POP POP POP POP POP JUMP JUMPDEST PUSH1 0x0 PUSH1 0x10 PUSH1 0x0 SWAP1 SLOAD SWAP1 PUSH2 0x100 EXP SWAP1 DIV PUSH20 0xFFFFFFFFFFFFFFFFFFFFFFFFFFFFFFFFFFFFFFFF AND PUSH20 0xFFFFFFFFFFFFFFFFFFFFFFFFFFFFFFFFFFFFFFFF AND CALLER PUSH20 0xFFFFFFFFFFFFFFFFFFFFFFFFFFFFFFFFFFFFFFFF AND EQ ISZERO ISZERO PUSH2 0x1037 JUMPI PUSH1 0x0 DUP1 REVERT JUMPDEST PUSH1 0x9 PUSH1 0x0 DUP11 PUSH20 0xFFFFFFFFFFFFFFFFFFFFFFFFFFFFFFFFFFFFFFFF AND PUSH20 0xFFFFFFFFFFFFFFFFFFFFFFFFFFFFFFFFFFFFFFFF AND DUP2 MSTORE PUSH1 0x20 ADD SWAP1 DUP2 MSTORE PUSH1 0x20 ADD PUSH1 0x0 KECCAK256 PUSH1 0x0 SWAP1 SLOAD SWAP1 PUSH2 0x100 EXP SWAP1 DIV PUSH1 0xFF AND ISZERO ISZERO ISZERO PUSH2 0x1090 JUMPI PUSH1 0x0 DUP1 REVERT JUMPDEST PUSH1 0x5 PUSH1 0x0 DUP11 PUSH20 0xFFFFFFFFFFFFFFFFFFFFFFFFFFFFFFFFFFFFFFFF AND PUSH20 0xFFFFFFFFFFFFFFFFFFFFFFFFFFFFFFFFFFFFFFFF AND DUP2 MSTORE PUSH1 0x20 ADD SWAP1 DUP2 MSTORE PUSH1 0x20 ADD PUSH1 0x0 KECCAK256 SWAP1 POP DUP8 DUP2 PUSH1 0x0 ADD SWAP1 DUP1 MLOAD SWAP1 PUSH1 0x20 ADD SWAP1 PUSH2 0x10E9 SWAP3 SWAP2 SWAP1 PUSH2 0x2D1D JUMP JUMPDEST POP DUP7 DUP2 PUSH1 0x1 ADD SWAP1 DUP1 MLOAD SWAP1 PUSH1 0x20 ADD SWAP1 PUSH2 0x1102 SWAP3 SWAP2 SWAP1 PUSH2 0x2D1D JUMP JUMPDEST POP DUP6 DUP2 PUSH1 0x2 ADD SWAP1 DUP1 MLOAD SWAP1 PUSH1 0x20 ADD SWAP1 PUSH2 0x111B SWAP3 SWAP2 SWAP1 PUSH2 0x2D1D JUMP JUMPDEST POP DUP5 DUP2 PUSH1 0x3 ADD SWAP1 DUP1 MLOAD SWAP1 PUSH1 0x20 ADD SWAP1 PUSH2 0x1134 SWAP3 SWAP2 SWAP1 PUSH2 0x2D1D JUMP JUMPDEST POP DUP4 DUP2 PUSH1 0x5 ADD SWAP1 DUP1 MLOAD SWAP1 PUSH1 0x20 ADD SWAP1 PUSH2 0x114D SWAP3 SWAP2 SWAP1 PUSH2 0x2D1D JUMP JUMPDEST POP DUP3 DUP2 PUSH1 0x6 ADD SWAP1 DUP1 MLOAD SWAP1 PUSH1 0x20 ADD SWAP1 PUSH2 0x1166 SWAP3 SWAP2 SWAP1 PUSH2 0x2D1D JUMP JUMPDEST POP DUP2 DUP2 PUSH1 0x7 ADD SWAP1 DUP1 MLOAD SWAP1 PUSH1 0x20 ADD SWAP1 PUSH2 0x117F SWAP3 SWAP2 SWAP1 PUSH2 0x2D1D JUMP JUMPDEST POP DUP9 DUP2 PUSH1 0x8 ADD PUSH1 0x0 PUSH2 0x100 EXP DUP2 SLOAD DUP2 PUSH20 0xFFFFFFFFFFFFFFFFFFFFFFFFFFFFFFFFFFFFFFFF MUL NOT AND SWAP1 DUP4 PUSH20 0xFFFFFFFFFFFFFFFFFFFFFFFFFFFFFFFFFFFFFFFF AND MUL OR SWAP1 SSTORE POP TIMESTAMP DUP2 PUSH1 0x9 ADD DUP2 SWAP1 SSTORE POP PUSH1 0x2 DUP10 SWAP1 DUP1 PUSH1 0x1 DUP2 SLOAD ADD DUP1 DUP3 SSTORE DUP1 SWAP2 POP POP SWAP1 PUSH1 0x1 DUP3 SUB SWAP1 PUSH1 0x0 MSTORE PUSH1 0x20 PUSH1 0x0 KECCAK256 ADD PUSH1 0x0 SWAP1 SWAP2 SWAP3 SWAP1 SWAP2 SWAP1 SWAP2 PUSH2 0x100 EXP DUP2 SLOAD DUP2 PUSH20 0xFFFFFFFFFFFFFFFFFFFFFFFFFFFFFFFFFFFFFFFF MUL NOT AND SWAP1 DUP4 PUSH20 0xFFFFFFFFFFFFFFFFFFFFFFFFFFFFFFFFFFFFFFFF AND MUL OR SWAP1 SSTORE POP POP PUSH1 0x1 PUSH1 0x9 PUSH1 0x0 DUP12 PUSH20 0xFFFFFFFFFFFFFFFFFFFFFFFFFFFFFFFFFFFFFFFF AND PUSH20 0xFFFFFFFFFFFFFFFFFFFFFFFFFFFFFFFFFFFFFFFF AND DUP2 MSTORE PUSH1 0x20 ADD SWAP1 DUP2 MSTORE PUSH1 0x20 ADD PUSH1 0x0 KECCAK256 PUSH1 0x0 PUSH2 0x100 EXP DUP2 SLOAD DUP2 PUSH1 0xFF MUL NOT AND SWAP1 DUP4 ISZERO ISZERO MUL OR SWAP1 SSTORE POP PUSH1 0x1 PUSH1 0x7 PUSH1 0x0 DUP12 PUSH20 0xFFFFFFFFFFFFFFFFFFFFFFFFFFFFFFFFFFFFFFFF AND PUSH20 0xFFFFFFFFFFFFFFFFFFFFFFFFFFFFFFFFFFFFFFFF AND DUP2 MSTORE PUSH1 0x20 ADD SWAP1 DUP2 MSTORE PUSH1 0x20 ADD PUSH1 0x0 KECCAK256 PUSH1 0x0 DUP12 PUSH20 0xFFFFFFFFFFFFFFFFFFFFFFFFFFFFFFFFFFFFFFFF AND PUSH20 0xFFFFFFFFFFFFFFFFFFFFFFFFFFFFFFFFFFFFFFFF AND DUP2 MSTORE PUSH1 0x20 ADD SWAP1 DUP2 MSTORE PUSH1 0x20 ADD PUSH1 0x0 KECCAK256 PUSH1 0x0 PUSH2 0x100 EXP DUP2 SLOAD DUP2 PUSH1 0xFF MUL NOT AND SWAP1 DUP4 ISZERO ISZERO MUL OR SWAP1 SSTORE POP PUSH1 0x1 PUSH1 0x7 PUSH1 0x0 DUP12 PUSH20 0xFFFFFFFFFFFFFFFFFFFFFFFFFFFFFFFFFFFFFFFF AND PUSH20 0xFFFFFFFFFFFFFFFFFFFFFFFFFFFFFFFFFFFFFFFF AND DUP2 MSTORE PUSH1 0x20 ADD SWAP1 DUP2 MSTORE PUSH1 0x20 ADD PUSH1 0x0 KECCAK256 PUSH1 0x0 PUSH1 0x10 PUSH1 0x0 SWAP1 SLOAD SWAP1 PUSH2 0x100 EXP SWAP1 DIV PUSH20 0xFFFFFFFFFFFFFFFFFFFFFFFFFFFFFFFFFFFFFFFF AND PUSH20 0xFFFFFFFFFFFFFFFFFFFFFFFFFFFFFFFFFFFFFFFF AND PUSH20 0xFFFFFFFFFFFFFFFFFFFFFFFFFFFFFFFFFFFFFFFF AND DUP2 MSTORE PUSH1 0x20 ADD SWAP1 DUP2 MSTORE PUSH1 0x20 ADD PUSH1 0x0 KECCAK256 PUSH1 0x0 PUSH2 0x100 EXP DUP2 SLOAD DUP2 PUSH1 0xFF MUL NOT AND SWAP1 DUP4 ISZERO ISZERO MUL OR SWAP1 SSTORE POP PUSH1 0xC PUSH1 0x0 DUP2 SLOAD DUP1 SWAP3 SWAP2 SWAP1 PUSH1 0x1 ADD SWAP2 SWAP1 POP SSTORE POP POP POP POP POP POP POP POP POP POP JUMP JUMPDEST PUSH1 0x0 DUP1 DUP3 SWAP1 POP PUSH1 0x10 PUSH1 0x0 SWAP1 SLOAD SWAP1 PUSH2 0x100 EXP SWAP1 DIV PUSH20 0xFFFFFFFFFFFFFFFFFFFFFFFFFFFFFFFFFFFFFFFF AND PUSH20 0xFFFFFFFFFFFFFFFFFFFFFFFFFFFFFFFFFFFFFFFF AND DUP2 PUSH20 0xFFFFFFFFFFFFFFFFFFFFFFFFFFFFFFFFFFFFFFFF AND EQ ISZERO PUSH2 0x1458 JUMPI PUSH1 0x1 SWAP2 POP PUSH2 0x145D JUMP JUMPDEST PUSH1 0x0 SWAP2 POP JUMPDEST POP SWAP2 SWAP1 POP JUMP JUMPDEST PUSH1 0x0 PUSH1 0x1 PUSH1 0x7 PUSH1 0x0 CALLER PUSH20 0xFFFFFFFFFFFFFFFFFFFFFFFFFFFFFFFFFFFFFFFF AND PUSH20 0xFFFFFFFFFFFFFFFFFFFFFFFFFFFFFFFFFFFFFFFF AND DUP2 MSTORE PUSH1 0x20 ADD SWAP1 DUP2 MSTORE PUSH1 0x20 ADD PUSH1 0x0 KECCAK256 PUSH1 0x0 DUP5 PUSH20 0xFFFFFFFFFFFFFFFFFFFFFFFFFFFFFFFFFFFFFFFF AND PUSH20 0xFFFFFFFFFFFFFFFFFFFFFFFFFFFFFFFFFFFFFFFF AND DUP2 MSTORE PUSH1 0x20 ADD SWAP1 DUP2 MSTORE PUSH1 0x20 ADD PUSH1 0x0 KECCAK256 PUSH1 0x0 PUSH2 0x100 EXP DUP2 SLOAD DUP2 PUSH1 0xFF MUL NOT AND SWAP1 DUP4 ISZERO ISZERO MUL OR SWAP1 SSTORE POP PUSH1 0xE PUSH1 0x0 DUP2 SLOAD DUP1 SWAP3 SWAP2 SWAP1 PUSH1 0x1 ADD SWAP2 SWAP1 POP SSTORE POP PUSH1 0x1 SWAP1 POP SWAP2 SWAP1 POP JUMP JUMPDEST PUSH1 0x0 DUP1 PUSH1 0x10 PUSH1 0x0 SWAP1 SLOAD SWAP1 PUSH2 0x100 EXP SWAP1 DIV PUSH20 0xFFFFFFFFFFFFFFFFFFFFFFFFFFFFFFFFFFFFFFFF AND PUSH20 0xFFFFFFFFFFFFFFFFFFFFFFFFFFFFFFFFFFFFFFFF AND CALLER PUSH20 0xFFFFFFFFFFFFFFFFFFFFFFFFFFFFFFFFFFFFFFFF AND EQ ISZERO ISZERO PUSH2 0x1574 JUMPI PUSH1 0x0 DUP1 REVERT JUMPDEST PUSH1 0x1 ISZERO ISZERO PUSH1 0x7 PUSH1 0x0 PUSH1 0x10 PUSH1 0x0 SWAP1 SLOAD SWAP1 PUSH2 0x100 EXP SWAP1 DIV PUSH20 0xFFFFFFFFFFFFFFFFFFFFFFFFFFFFFFFFFFFFFFFF AND PUSH20 0xFFFFFFFFFFFFFFFFFFFFFFFFFFFFFFFFFFFFFFFF AND PUSH20 0xFFFFFFFFFFFFFFFFFFFFFFFFFFFFFFFFFFFFFFFF AND DUP2 MSTORE PUSH1 0x20 ADD SWAP1 DUP2 MSTORE PUSH1 0x20 ADD PUSH1 0x0 KECCAK256 PUSH1 0x0 DUP11 PUSH20 0xFFFFFFFFFFFFFFFFFFFFFFFFFFFFFFFFFFFFFFFF AND PUSH20 0xFFFFFFFFFFFFFFFFFFFFFFFFFFFFFFFFFFFFFFFF AND DUP2 MSTORE PUSH1 0x20 ADD SWAP1 DUP2 MSTORE PUSH1 0x20 ADD PUSH1 0x0 KECCAK256 PUSH1 0x0 SWAP1 SLOAD SWAP1 PUSH2 0x100 EXP SWAP1 DIV PUSH1 0xFF AND ISZERO ISZERO EQ ISZERO ISZERO PUSH2 0x1632 JUMPI PUSH1 0x0 DUP1 REVERT JUMPDEST PUSH1 0xA PUSH1 0x0 DUP11 PUSH20 0xFFFFFFFFFFFFFFFFFFFFFFFFFFFFFFFFFFFFFFFF AND PUSH20 0xFFFFFFFFFFFFFFFFFFFFFFFFFFFFFFFFFFFFFFFF AND DUP2 MSTORE PUSH1 0x20 ADD SWAP1 DUP2 MSTORE PUSH1 0x20 ADD PUSH1 0x0 KECCAK256 PUSH1 0x0 SWAP1 SLOAD SWAP1 PUSH2 0x100 EXP SWAP1 DIV PUSH1 0xFF AND ISZERO ISZERO ISZERO PUSH2 0x168B JUMPI PUSH1 0x0 DUP1 REVERT JUMPDEST PUSH1 0x6 PUSH1 0x0 DUP11 PUSH20 0xFFFFFFFFFFFFFFFFFFFFFFFFFFFFFFFFFFFFFFFF AND PUSH20 0xFFFFFFFFFFFFFFFFFFFFFFFFFFFFFFFFFFFFFFFF AND DUP2 MSTORE PUSH1 0x20 ADD SWAP1 DUP2 MSTORE PUSH1 0x20 ADD PUSH1 0x0 KECCAK256 SWAP1 POP DUP7 DUP2 PUSH1 0x0 ADD SWAP1 DUP1 MLOAD SWAP1 PUSH1 0x20 ADD SWAP1 PUSH2 0x16E4 SWAP3 SWAP2 SWAP1 PUSH2 0x2D1D JUMP JUMPDEST POP DUP6 DUP2 PUSH1 0x1 ADD SWAP1 DUP1 MLOAD SWAP1 PUSH1 0x20 ADD SWAP1 PUSH2 0x16FD SWAP3 SWAP2 SWAP1 PUSH2 0x2D1D JUMP JUMPDEST POP DUP5 DUP2 PUSH1 0x2 ADD SWAP1 DUP1 MLOAD SWAP1 PUSH1 0x20 ADD SWAP1 PUSH2 0x1716 SWAP3 SWAP2 SWAP1 PUSH2 0x2D1D JUMP JUMPDEST POP DUP4 DUP2 PUSH1 0x3 ADD SWAP1 DUP1 MLOAD SWAP1 PUSH1 0x20 ADD SWAP1 PUSH2 0x172F SWAP3 SWAP2 SWAP1 PUSH2 0x2D1D JUMP JUMPDEST POP DUP3 DUP2 PUSH1 0x4 ADD DUP2 SWAP1 SSTORE POP DUP9 DUP2 PUSH1 0x5 ADD PUSH1 0x0 PUSH2 0x100 EXP DUP2 SLOAD DUP2 PUSH20 0xFFFFFFFFFFFFFFFFFFFFFFFFFFFFFFFFFFFFFFFF MUL NOT AND SWAP1 DUP4 PUSH20 0xFFFFFFFFFFFFFFFFFFFFFFFFFFFFFFFFFFFFFFFF AND MUL OR SWAP1 SSTORE POP DUP8 DUP2 PUSH1 0x6 ADD PUSH1 0x0 PUSH2 0x100 EXP DUP2 SLOAD DUP2 PUSH20 0xFFFFFFFFFFFFFFFFFFFFFFFFFFFFFFFFFFFFFFFF MUL NOT AND SWAP1 DUP4 PUSH20 0xFFFFFFFFFFFFFFFFFFFFFFFFFFFFFFFFFFFFFFFF AND MUL OR SWAP1 SSTORE POP PUSH1 0x3 DUP10 SWAP1 DUP1 PUSH1 0x1 DUP2 SLOAD ADD DUP1 DUP3 SSTORE DUP1 SWAP2 POP POP SWAP1 PUSH1 0x1 DUP3 SUB SWAP1 PUSH1 0x0 MSTORE PUSH1 0x20 PUSH1 0x0 KECCAK256 ADD PUSH1 0x0 SWAP1 SWAP2 SWAP3 SWAP1 SWAP2 SWAP1 SWAP2 PUSH2 0x100 EXP DUP2 SLOAD DUP2 PUSH20 0xFFFFFFFFFFFFFFFFFFFFFFFFFFFFFFFFFFFFFFFF MUL NOT AND SWAP1 DUP4 PUSH20 0xFFFFFFFFFFFFFFFFFFFFFFFFFFFFFFFFFFFFFFFF AND MUL OR SWAP1 SSTORE POP POP PUSH1 0xF PUSH1 0x0 DUP2 SLOAD DUP1 SWAP3 SWAP2 SWAP1 PUSH1 0x1 ADD SWAP2 SWAP1 POP SSTORE POP POP SWAP8 SWAP7 POP POP POP POP POP POP POP JUMP JUMPDEST PUSH1 0x0 DUP1 PUSH1 0x7 PUSH1 0x0 CALLER PUSH20 0xFFFFFFFFFFFFFFFFFFFFFFFFFFFFFFFFFFFFFFFF AND PUSH20 0xFFFFFFFFFFFFFFFFFFFFFFFFFFFFFFFFFFFFFFFF AND DUP2 MSTORE PUSH1 0x20 ADD SWAP1 DUP2 MSTORE PUSH1 0x20 ADD PUSH1 0x0 KECCAK256 PUSH1 0x0 DUP5 PUSH20 0xFFFFFFFFFFFFFFFFFFFFFFFFFFFFFFFFFFFFFFFF AND PUSH20 0xFFFFFFFFFFFFFFFFFFFFFFFFFFFFFFFFFFFFFFFF AND DUP2 MSTORE PUSH1 0x20 ADD SWAP1 DUP2 MSTORE PUSH1 0x20 ADD PUSH1 0x0 KECCAK256 PUSH1 0x0 PUSH2 0x100 EXP DUP2 SLOAD DUP2 PUSH1 0xFF MUL NOT AND SWAP1 DUP4 ISZERO ISZERO MUL OR SWAP1 SSTORE POP PUSH1 0x1 SWAP1 POP SWAP2 SWAP1 POP JUMP JUMPDEST PUSH1 0x0 PUSH1 0x10 PUSH1 0x0 SWAP1 SLOAD SWAP1 PUSH2 0x100 EXP SWAP1 DIV PUSH20 0xFFFFFFFFFFFFFFFFFFFFFFFFFFFFFFFFFFFFFFFF AND PUSH20 0xFFFFFFFFFFFFFFFFFFFFFFFFFFFFFFFFFFFFFFFF AND CALLER PUSH20 0xFFFFFFFFFFFFFFFFFFFFFFFFFFFFFFFFFFFFFFFF AND EQ ISZERO ISZERO PUSH2 0x1940 JUMPI PUSH1 0x0 DUP1 REVERT JUMPDEST PUSH1 0x8 PUSH1 0x0 DUP13 PUSH20 0xFFFFFFFFFFFFFFFFFFFFFFFFFFFFFFFFFFFFFFFF AND PUSH20 0xFFFFFFFFFFFFFFFFFFFFFFFFFFFFFFFFFFFFFFFF AND DUP2 MSTORE PUSH1 0x20 ADD SWAP1 DUP2 MSTORE PUSH1 0x20 ADD PUSH1 0x0 KECCAK256 PUSH1 0x0 SWAP1 SLOAD SWAP1 PUSH2 0x100 EXP SWAP1 DIV PUSH1 0xFF AND ISZERO ISZERO ISZERO PUSH2 0x1999 JUMPI PUSH1 0x0 DUP1 REVERT JUMPDEST PUSH1 0x4 PUSH1 0x0 DUP13 PUSH20 0xFFFFFFFFFFFFFFFFFFFFFFFFFFFFFFFFFFFFFFFF AND PUSH20 0xFFFFFFFFFFFFFFFFFFFFFFFFFFFFFFFFFFFFFFFF AND DUP2 MSTORE PUSH1 0x20 ADD SWAP1 DUP2 MSTORE PUSH1 0x20 ADD PUSH1 0x0 KECCAK256 SWAP1 POP DUP10 DUP2 PUSH1 0x0 ADD SWAP1 DUP1 MLOAD SWAP1 PUSH1 0x20 ADD SWAP1 PUSH2 0x19F2 SWAP3 SWAP2 SWAP1 PUSH2 0x2D1D JUMP JUMPDEST POP DUP9 DUP2 PUSH1 0x1 ADD SWAP1 DUP1 MLOAD SWAP1 PUSH1 0x20 ADD SWAP1 PUSH2 0x1A0B SWAP3 SWAP2 SWAP1 PUSH2 0x2D1D JUMP JUMPDEST POP DUP8 DUP2 PUSH1 0x2 ADD SWAP1 DUP1 MLOAD SWAP1 PUSH1 0x20 ADD SWAP1 PUSH2 0x1A24 SWAP3 SWAP2 SWAP1 PUSH2 0x2D1D JUMP JUMPDEST POP DUP7 DUP2 PUSH1 0x3 ADD SWAP1 DUP1 MLOAD SWAP1 PUSH1 0x20 ADD SWAP1 PUSH2 0x1A3D SWAP3 SWAP2 SWAP1 PUSH2 0x2D1D JUMP JUMPDEST POP DUP6 DUP2 PUSH1 0x4 ADD SWAP1 DUP1 MLOAD SWAP1 PUSH1 0x20 ADD SWAP1 PUSH2 0x1A56 SWAP3 SWAP2 SWAP1 PUSH2 0x2D1D JUMP JUMPDEST POP DUP5 DUP2 PUSH1 0x5 ADD SWAP1 DUP1 MLOAD SWAP1 PUSH1 0x20 ADD SWAP1 PUSH2 0x1A6F SWAP3 SWAP2 SWAP1 PUSH2 0x2D1D JUMP JUMPDEST POP DUP4 DUP2 PUSH1 0x6 ADD SWAP1 DUP1 MLOAD SWAP1 PUSH1 0x20 ADD SWAP1 PUSH2 0x1A88 SWAP3 SWAP2 SWAP1 PUSH2 0x2D1D JUMP JUMPDEST POP DUP3 DUP2 PUSH1 0x7 ADD SWAP1 DUP1 MLOAD SWAP1 PUSH1 0x20 ADD SWAP1 PUSH2 0x1AA1 SWAP3 SWAP2 SWAP1 PUSH2 0x2D1D JUMP JUMPDEST POP DUP2 DUP2 PUSH1 0x8 ADD SWAP1 DUP1 MLOAD SWAP1 PUSH1 0x20 ADD SWAP1 PUSH2 0x1ABA SWAP3 SWAP2 SWAP1 PUSH2 0x2D1D JUMP JUMPDEST POP DUP11 DUP2 PUSH1 0x9 ADD PUSH1 0x0 PUSH2 0x100 EXP DUP2 SLOAD DUP2 PUSH20 0xFFFFFFFFFFFFFFFFFFFFFFFFFFFFFFFFFFFFFFFF MUL NOT AND SWAP1 DUP4 PUSH20 0xFFFFFFFFFFFFFFFFFFFFFFFFFFFFFFFFFFFFFFFF AND MUL OR SWAP1 SSTORE POP TIMESTAMP DUP2 PUSH1 0xA ADD DUP2 SWAP1 SSTORE POP PUSH1 0x1 DUP12 SWAP1 DUP1 PUSH1 0x1 DUP2 SLOAD ADD DUP1 DUP3 SSTORE DUP1 SWAP2 POP POP SWAP1 PUSH1 0x1 DUP3 SUB SWAP1 PUSH1 0x0 MSTORE PUSH1 0x20 PUSH1 0x0 KECCAK256 ADD PUSH1 0x0 SWAP1 SWAP2 SWAP3 SWAP1 SWAP2 SWAP1 SWAP2 PUSH2 0x100 EXP DUP2 SLOAD DUP2 PUSH20 0xFFFFFFFFFFFFFFFFFFFFFFFFFFFFFFFFFFFFFFFF MUL NOT AND SWAP1 DUP4 PUSH20 0xFFFFFFFFFFFFFFFFFFFFFFFFFFFFFFFFFFFFFFFF AND MUL OR SWAP1 SSTORE POP POP PUSH1 0x1 PUSH1 0x8 PUSH1 0x0 DUP14 PUSH20 0xFFFFFFFFFFFFFFFFFFFFFFFFFFFFFFFFFFFFFFFF AND PUSH20 0xFFFFFFFFFFFFFFFFFFFFFFFFFFFFFFFFFFFFFFFF AND DUP2 MSTORE PUSH1 0x20 ADD SWAP1 DUP2 MSTORE PUSH1 0x20 ADD PUSH1 0x0 KECCAK256 PUSH1 0x0 PUSH2 0x100 EXP DUP2 SLOAD DUP2 PUSH1 0xFF MUL NOT AND SWAP1 DUP4 ISZERO ISZERO MUL OR SWAP1 SSTORE POP PUSH1 0x1 PUSH1 0x7 PUSH1 0x0 DUP14 PUSH20 0xFFFFFFFFFFFFFFFFFFFFFFFFFFFFFFFFFFFFFFFF AND PUSH20 0xFFFFFFFFFFFFFFFFFFFFFFFFFFFFFFFFFFFFFFFF AND DUP2 MSTORE PUSH1 0x20 ADD SWAP1 DUP2 MSTORE PUSH1 0x20 ADD PUSH1 0x0 KECCAK256 PUSH1 0x0 DUP14 PUSH20 0xFFFFFFFFFFFFFFFFFFFFFFFFFFFFFFFFFFFFFFFF AND PUSH20 0xFFFFFFFFFFFFFFFFFFFFFFFFFFFFFFFFFFFFFFFF AND DUP2 MSTORE PUSH1 0x20 ADD SWAP1 DUP2 MSTORE PUSH1 0x20 ADD PUSH1 0x0 KECCAK256 PUSH1 0x0 PUSH2 0x100 EXP DUP2 SLOAD DUP2 PUSH1 0xFF MUL NOT AND SWAP1 DUP4 ISZERO ISZERO MUL OR SWAP1 SSTORE POP PUSH1 0x1 PUSH1 0x7 PUSH1 0x0 DUP14 PUSH20 0xFFFFFFFFFFFFFFFFFFFFFFFFFFFFFFFFFFFFFFFF AND PUSH20 0xFFFFFFFFFFFFFFFFFFFFFFFFFFFFFFFFFFFFFFFF AND DUP2 MSTORE PUSH1 0x20 ADD SWAP1 DUP2 MSTORE PUSH1 0x20 ADD PUSH1 0x0 KECCAK256 PUSH1 0x0 PUSH1 0x10 PUSH1 0x0 SWAP1 SLOAD SWAP1 PUSH2 0x100 EXP SWAP1 DIV PUSH20 0xFFFFFFFFFFFFFFFFFFFFFFFFFFFFFFFFFFFFFFFF AND PUSH20 0xFFFFFFFFFFFFFFFFFFFFFFFFFFFFFFFFFFFFFFFF AND PUSH20 0xFFFFFFFFFFFFFFFFFFFFFFFFFFFFFFFFFFFFFFFF AND DUP2 MSTORE PUSH1 0x20 ADD SWAP1 DUP2 MSTORE PUSH1 0x20 ADD PUSH1 0x0 KECCAK256 PUSH1 0x0 PUSH2 0x100 EXP DUP2 SLOAD DUP2 PUSH1 0xFF MUL NOT AND SWAP1 DUP4 ISZERO ISZERO MUL OR SWAP1 SSTORE POP PUSH1 0xB PUSH1 0x0 DUP2 SLOAD DUP1 SWAP3 SWAP2 SWAP1 PUSH1 0x1 ADD SWAP2 SWAP1 POP SSTORE POP POP POP POP POP POP POP POP POP POP POP POP JUMP JUMPDEST PUSH1 0x0 PUSH1 0x10 PUSH1 0x0 SWAP1 SLOAD SWAP1 PUSH2 0x100 EXP SWAP1 DIV PUSH20 0xFFFFFFFFFFFFFFFFFFFFFFFFFFFFFFFFFFFFFFFF AND PUSH20 0xFFFFFFFFFFFFFFFFFFFFFFFFFFFFFFFFFFFFFFFF AND CALLER PUSH20 0xFFFFFFFFFFFFFFFFFFFFFFFFFFFFFFFFFFFFFFFF AND EQ ISZERO ISZERO PUSH2 0x1D8E JUMPI PUSH1 0x0 DUP1 REVERT JUMPDEST PUSH1 0x8 PUSH1 0x0 DUP13 PUSH20 0xFFFFFFFFFFFFFFFFFFFFFFFFFFFFFFFFFFFFFFFF AND PUSH20 0xFFFFFFFFFFFFFFFFFFFFFFFFFFFFFFFFFFFFFFFF AND DUP2 MSTORE PUSH1 0x20 ADD SWAP1 DUP2 MSTORE PUSH1 0x20 ADD PUSH1 0x0 KECCAK256 PUSH1 0x0 SWAP1 SLOAD SWAP1 PUSH2 0x100 EXP SWAP1 DIV PUSH1 0xFF AND ISZERO ISZERO PUSH2 0x1DE6 JUMPI PUSH1 0x0 DUP1 REVERT JUMPDEST PUSH1 0x4 PUSH1 0x0 DUP13 PUSH20 0xFFFFFFFFFFFFFFFFFFFFFFFFFFFFFFFFFFFFFFFF AND PUSH20 0xFFFFFFFFFFFFFFFFFFFFFFFFFFFFFFFFFFFFFFFF AND DUP2 MSTORE PUSH1 0x20 ADD SWAP1 DUP2 MSTORE PUSH1 0x20 ADD PUSH1 0x0 KECCAK256 SWAP1 POP DUP10 DUP2 PUSH1 0x0 ADD SWAP1 DUP1 MLOAD SWAP1 PUSH1 0x20 ADD SWAP1 PUSH2 0x1E3F SWAP3 SWAP2 SWAP1 PUSH2 0x2D1D JUMP JUMPDEST POP DUP9 DUP2 PUSH1 0x1 ADD SWAP1 DUP1 MLOAD SWAP1 PUSH1 0x20 ADD SWAP1 PUSH2 0x1E58 SWAP3 SWAP2 SWAP1 PUSH2 0x2D1D JUMP JUMPDEST POP DUP8 DUP2 PUSH1 0x2 ADD SWAP1 DUP1 MLOAD SWAP1 PUSH1 0x20 ADD SWAP1 PUSH2 0x1E71 SWAP3 SWAP2 SWAP1 PUSH2 0x2D1D JUMP JUMPDEST POP DUP7 DUP2 PUSH1 0x3 ADD SWAP1 DUP1 MLOAD SWAP1 PUSH1 0x20 ADD SWAP1 PUSH2 0x1E8A SWAP3 SWAP2 SWAP1 PUSH2 0x2D1D JUMP JUMPDEST POP DUP6 DUP2 PUSH1 0x4 ADD SWAP1 DUP1 MLOAD SWAP1 PUSH1 0x20 ADD SWAP1 PUSH2 0x1EA3 SWAP3 SWAP2 SWAP1 PUSH2 0x2D1D JUMP JUMPDEST POP DUP5 DUP2 PUSH1 0x5 ADD SWAP1 DUP1 MLOAD SWAP1 PUSH1 0x20 ADD SWAP1 PUSH2 0x1EBC SWAP3 SWAP2 SWAP1 PUSH2 0x2D1D JUMP JUMPDEST POP DUP4 DUP2 PUSH1 0x6 ADD SWAP1 DUP1 MLOAD SWAP1 PUSH1 0x20 ADD SWAP1 PUSH2 0x1ED5 SWAP3 SWAP2 SWAP1 PUSH2 0x2D1D JUMP JUMPDEST POP DUP3 DUP2 PUSH1 0x7 ADD SWAP1 DUP1 MLOAD SWAP1 PUSH1 0x20 ADD SWAP1 PUSH2 0x1EEE SWAP3 SWAP2 SWAP1 PUSH2 0x2D1D JUMP JUMPDEST POP DUP2 DUP2 PUSH1 0x8 ADD SWAP1 DUP1 MLOAD SWAP1 PUSH1 0x20 ADD SWAP1 PUSH2 0x1F07 SWAP3 SWAP2 SWAP1 PUSH2 0x2D1D JUMP JUMPDEST POP DUP11 DUP2 PUSH1 0x9 ADD PUSH1 0x0 PUSH2 0x100 EXP DUP2 SLOAD DUP2 PUSH20 0xFFFFFFFFFFFFFFFFFFFFFFFFFFFFFFFFFFFFFFFF MUL NOT AND SWAP1 DUP4 PUSH20 0xFFFFFFFFFFFFFFFFFFFFFFFFFFFFFFFFFFFFFFFF AND MUL OR SWAP1 SSTORE POP POP POP POP POP POP POP POP POP POP POP POP JUMP JUMPDEST PUSH1 0xC SLOAD DUP2 JUMP JUMPDEST PUSH1 0x0 PUSH1 0xC SLOAD SWAP1 POP SWAP1 JUMP JUMPDEST PUSH1 0x0 DUP1 PUSH1 0x0 SWAP1 POP PUSH1 0x2 DUP1 SLOAD SWAP1 POP DUP2 LT ISZERO PUSH2 0x1FE7 JUMPI PUSH1 0x1 ISZERO ISZERO PUSH1 0x9 PUSH1 0x0 DUP6 PUSH20 0xFFFFFFFFFFFFFFFFFFFFFFFFFFFFFFFFFFFFFFFF AND PUSH20 0xFFFFFFFFFFFFFFFFFFFFFFFFFFFFFFFFFFFFFFFF AND DUP2 MSTORE PUSH1 0x20 ADD SWAP1 DUP2 MSTORE PUSH1 0x20 ADD PUSH1 0x0 KECCAK256 PUSH1 0x0 SWAP1 SLOAD SWAP1 PUSH2 0x100 EXP SWAP1 DIV PUSH1 0xFF AND ISZERO ISZERO EQ ISZERO PUSH2 0x1FDE JUMPI PUSH1 0x1 SWAP2 POP PUSH2 0x1FE8 JUMP JUMPDEST PUSH1 0x0 SWAP2 POP PUSH2 0x1FE8 JUMP JUMPDEST JUMPDEST POP SWAP2 SWAP1 POP JUMP JUMPDEST PUSH1 0x60 DUP1 PUSH1 0x60 DUP1 PUSH1 0x0 DUP1 PUSH1 0x0 DUP1 PUSH1 0x7 PUSH1 0x0 DUP11 PUSH20 0xFFFFFFFFFFFFFFFFFFFFFFFFFFFFFFFFFFFFFFFF AND PUSH20 0xFFFFFFFFFFFFFFFFFFFFFFFFFFFFFFFFFFFFFFFF AND DUP2 MSTORE PUSH1 0x20 ADD SWAP1 DUP2 MSTORE PUSH1 0x20 ADD PUSH1 0x0 KECCAK256 PUSH1 0x0 CALLER PUSH20 0xFFFFFFFFFFFFFFFFFFFFFFFFFFFFFFFFFFFFFFFF AND PUSH20 0xFFFFFFFFFFFFFFFFFFFFFFFFFFFFFFFFFFFFFFFF AND DUP2 MSTORE PUSH1 0x20 ADD SWAP1 DUP2 MSTORE PUSH1 0x20 ADD PUSH1 0x0 KECCAK256 PUSH1 0x0 SWAP1 SLOAD SWAP1 PUSH2 0x100 EXP SWAP1 DIV PUSH1 0xFF AND ISZERO ISZERO PUSH2 0x208F JUMPI PUSH1 0x0 DUP1 REVERT JUMPDEST PUSH1 0x6 PUSH1 0x0 DUP11 PUSH20 0xFFFFFFFFFFFFFFFFFFFFFFFFFFFFFFFFFFFFFFFF AND PUSH20 0xFFFFFFFFFFFFFFFFFFFFFFFFFFFFFFFFFFFFFFFF AND DUP2 MSTORE PUSH1 0x20 ADD SWAP1 DUP2 MSTORE PUSH1 0x20 ADD PUSH1 0x0 KECCAK256 SWAP1 POP DUP1 PUSH1 0x1 ADD DUP2 PUSH1 0x0 ADD DUP3 PUSH1 0x2 ADD DUP4 PUSH1 0x3 ADD DUP5 PUSH1 0x4 ADD SLOAD DUP6 PUSH1 0x5 ADD PUSH1 0x0 SWAP1 SLOAD SWAP1 PUSH2 0x100 EXP SWAP1 DIV PUSH20 0xFFFFFFFFFFFFFFFFFFFFFFFFFFFFFFFFFFFFFFFF AND DUP7 PUSH1 0x6 ADD PUSH1 0x0 SWAP1 SLOAD SWAP1 PUSH2 0x100 EXP SWAP1 DIV PUSH20 0xFFFFFFFFFFFFFFFFFFFFFFFFFFFFFFFFFFFFFFFF AND DUP7 DUP1 SLOAD PUSH1 0x1 DUP2 PUSH1 0x1 AND ISZERO PUSH2 0x100 MUL SUB AND PUSH1 0x2 SWAP1 DIV DUP1 PUSH1 0x1F ADD PUSH1 0x20 DUP1 SWAP2 DIV MUL PUSH1 0x20 ADD PUSH1 0x40 MLOAD SWAP1 DUP2 ADD PUSH1 0x40 MSTORE DUP1 SWAP3 SWAP2 SWAP1 DUP2 DUP2 MSTORE PUSH1 0x20 ADD DUP3 DUP1 SLOAD PUSH1 0x1 DUP2 PUSH1 0x1 AND ISZERO PUSH2 0x100 MUL SUB AND PUSH1 0x2 SWAP1 DIV DUP1 ISZERO PUSH2 0x21C4 JUMPI DUP1 PUSH1 0x1F LT PUSH2 0x2199 JUMPI PUSH2 0x100 DUP1 DUP4 SLOAD DIV MUL DUP4 MSTORE SWAP2 PUSH1 0x20 ADD SWAP2 PUSH2 0x21C4 JUMP JUMPDEST DUP3 ADD SWAP2 SWAP1 PUSH1 0x0 MSTORE PUSH1 0x20 PUSH1 0x0 KECCAK256 SWAP1 JUMPDEST DUP2 SLOAD DUP2 MSTORE SWAP1 PUSH1 0x1 ADD SWAP1 PUSH1 0x20 ADD DUP1 DUP4 GT PUSH2 0x21A7 JUMPI DUP3 SWAP1 SUB PUSH1 0x1F AND DUP3 ADD SWAP2 JUMPDEST POP POP POP POP POP SWAP7 POP DUP6 DUP1 SLOAD PUSH1 0x1 DUP2 PUSH1 0x1 AND ISZERO PUSH2 0x100 MUL SUB AND PUSH1 0x2 SWAP1 DIV DUP1 PUSH1 0x1F ADD PUSH1 0x20 DUP1 SWAP2 DIV MUL PUSH1 0x20 ADD PUSH1 0x40 MLOAD SWAP1 DUP2 ADD PUSH1 0x40 MSTORE DUP1 SWAP3 SWAP2 SWAP1 DUP2 DUP2 MSTORE PUSH1 0x20 ADD DUP3 DUP1 SLOAD PUSH1 0x1 DUP2 PUSH1 0x1 AND ISZERO PUSH2 0x100 MUL SUB AND PUSH1 0x2 SWAP1 DIV DUP1 ISZERO PUSH2 0x2260 JUMPI DUP1 PUSH1 0x1F LT PUSH2 0x2235 JUMPI PUSH2 0x100 DUP1 DUP4 SLOAD DIV MUL DUP4 MSTORE SWAP2 PUSH1 0x20 ADD SWAP2 PUSH2 0x2260 JUMP JUMPDEST DUP3 ADD SWAP2 SWAP1 PUSH1 0x0 MSTORE PUSH1 0x20 PUSH1 0x0 KECCAK256 SWAP1 JUMPDEST DUP2 SLOAD DUP2 MSTORE SWAP1 PUSH1 0x1 ADD SWAP1 PUSH1 0x20 ADD DUP1 DUP4 GT PUSH2 0x2243 JUMPI DUP3 SWAP1 SUB PUSH1 0x1F AND DUP3 ADD SWAP2 JUMPDEST POP POP POP POP POP SWAP6 POP DUP5 DUP1 SLOAD PUSH1 0x1 DUP2 PUSH1 0x1 AND ISZERO PUSH2 0x100 MUL SUB AND PUSH1 0x2 SWAP1 DIV DUP1 PUSH1 0x1F ADD PUSH1 0x20 DUP1 SWAP2 DIV MUL PUSH1 0x20 ADD PUSH1 0x40 MLOAD SWAP1 DUP2 ADD PUSH1 0x40 MSTORE DUP1 SWAP3 SWAP2 SWAP1 DUP2 DUP2 MSTORE PUSH1 0x20 ADD DUP3 DUP1 SLOAD PUSH1 0x1 DUP2 PUSH1 0x1 AND ISZERO PUSH2 0x100 MUL SUB AND PUSH1 0x2 SWAP1 DIV DUP1 ISZERO PUSH2 0x22FC JUMPI DUP1 PUSH1 0x1F LT PUSH2 0x22D1 JUMPI PUSH2 0x100 DUP1 DUP4 SLOAD DIV MUL DUP4 MSTORE SWAP2 PUSH1 0x20 ADD SWAP2 PUSH2 0x22FC JUMP JUMPDEST DUP3 ADD SWAP2 SWAP1 PUSH1 0x0 MSTORE PUSH1 0x20 PUSH1 0x0 KECCAK256 SWAP1 JUMPDEST DUP2 SLOAD DUP2 MSTORE SWAP1 PUSH1 0x1 ADD SWAP1 PUSH1 0x20 ADD DUP1 DUP4 GT PUSH2 0x22DF JUMPI DUP3 SWAP1 SUB PUSH1 0x1F AND DUP3 ADD SWAP2 JUMPDEST POP POP POP POP POP SWAP5 POP DUP4 DUP1 SLOAD PUSH1 0x1 DUP2 PUSH1 0x1 AND ISZERO PUSH2 0x100 MUL SUB AND PUSH1 0x2 SWAP1 DIV DUP1 PUSH1 0x1F ADD PUSH1 0x20 DUP1 SWAP2 DIV MUL PUSH1 0x20 ADD PUSH1 0x40 MLOAD SWAP1 DUP2 ADD PUSH1 0x40 MSTORE DUP1 SWAP3 SWAP2 SWAP1 DUP2 DUP2 MSTORE PUSH1 0x20 ADD DUP3 DUP1 SLOAD PUSH1 0x1 DUP2 PUSH1 0x1 AND ISZERO PUSH2 0x100 MUL SUB AND PUSH1 0x2 SWAP1 DIV DUP1 ISZERO PUSH2 0x2398 JUMPI DUP1 PUSH1 0x1F LT PUSH2 0x236D JUMPI PUSH2 0x100 DUP1 DUP4 SLOAD DIV MUL DUP4 MSTORE SWAP2 PUSH1 0x20 ADD SWAP2 PUSH2 0x2398 JUMP JUMPDEST DUP3 ADD SWAP2 SWAP1 PUSH1 0x0 MSTORE PUSH1 0x20 PUSH1 0x0 KECCAK256 SWAP1 JUMPDEST DUP2 SLOAD DUP2 MSTORE SWAP1 PUSH1 0x1 ADD SWAP1 PUSH1 0x20 ADD DUP1 DUP4 GT PUSH2 0x237B JUMPI DUP3 SWAP1 SUB PUSH1 0x1F AND DUP3 ADD SWAP2 JUMPDEST POP POP POP POP POP SWAP4 POP SWAP8 POP SWAP8 POP SWAP8 POP SWAP8 POP SWAP8 POP SWAP8 POP SWAP8 POP POP SWAP2 SWAP4 SWAP6 SWAP8 SWAP1 SWAP3 SWAP5 SWAP7 POP JUMP JUMPDEST PUSH1 0x0 DUP1 SWAP1 SLOAD SWAP1 PUSH2 0x100 EXP SWAP1 DIV PUSH20 0xFFFFFFFFFFFFFFFFFFFFFFFFFFFFFFFFFFFFFFFF AND DUP2 JUMP JUMPDEST PUSH1 0xF SLOAD DUP2 JUMP JUMPDEST PUSH1 0xD SLOAD DUP2 JUMP JUMPDEST PUSH1 0x1 DUP2 DUP2 SLOAD DUP2 LT ISZERO ISZERO PUSH2 0x23F9 JUMPI INVALID JUMPDEST SWAP1 PUSH1 0x0 MSTORE PUSH1 0x20 PUSH1 0x0 KECCAK256 ADD PUSH1 0x0 SWAP2 POP SLOAD SWAP1 PUSH2 0x100 EXP SWAP1 DIV PUSH20 0xFFFFFFFFFFFFFFFFFFFFFFFFFFFFFFFFFFFFFFFF AND DUP2 JUMP JUMPDEST PUSH1 0x60 PUSH1 0x2 DUP1 SLOAD DUP1 PUSH1 0x20 MUL PUSH1 0x20 ADD PUSH1 0x40 MLOAD SWAP1 DUP2 ADD PUSH1 0x40 MSTORE DUP1 SWAP3 SWAP2 SWAP1 DUP2 DUP2 MSTORE PUSH1 0x20 ADD DUP3 DUP1 SLOAD DUP1 ISZERO PUSH2 0x24AC JUMPI PUSH1 0x20 MUL DUP3 ADD SWAP2 SWAP1 PUSH1 0x0 MSTORE PUSH1 0x20 PUSH1 0x0 KECCAK256 SWAP1 JUMPDEST DUP2 PUSH1 0x0 SWAP1 SLOAD SWAP1 PUSH2 0x100 EXP SWAP1 DIV PUSH20 0xFFFFFFFFFFFFFFFFFFFFFFFFFFFFFFFFFFFFFFFF AND PUSH20 0xFFFFFFFFFFFFFFFFFFFFFFFFFFFFFFFFFFFFFFFF AND DUP2 MSTORE PUSH1 0x20 ADD SWAP1 PUSH1 0x1 ADD SWAP1 DUP1 DUP4 GT PUSH2 0x2462 JUMPI JUMPDEST POP POP POP POP POP SWAP1 POP SWAP1 JUMP JUMPDEST PUSH1 0x0 PUSH1 0xB SLOAD SWAP1 POP SWAP1 JUMP JUMPDEST PUSH1 0x10 PUSH1 0x0 SWAP1 SLOAD SWAP1 PUSH2 0x100 EXP SWAP1 DIV PUSH20 0xFFFFFFFFFFFFFFFFFFFFFFFFFFFFFFFFFFFFFFFF AND DUP2 JUMP JUMPDEST PUSH1 0x0 PUSH1 0x10 PUSH1 0x0 SWAP1 SLOAD SWAP1 PUSH2 0x100 EXP SWAP1 DIV PUSH20 0xFFFFFFFFFFFFFFFFFFFFFFFFFFFFFFFFFFFFFFFF AND PUSH20 0xFFFFFFFFFFFFFFFFFFFFFFFFFFFFFFFFFFFFFFFF AND CALLER PUSH20 0xFFFFFFFFFFFFFFFFFFFFFFFFFFFFFFFFFFFFFFFF AND EQ ISZERO ISZERO PUSH2 0x2544 JUMPI PUSH1 0x0 DUP1 REVERT JUMPDEST PUSH1 0x0 PUSH1 0x7 PUSH1 0x0 DUP6 PUSH20 0xFFFFFFFFFFFFFFFFFFFFFFFFFFFFFFFFFFFFFFFF AND PUSH20 0xFFFFFFFFFFFFFFFFFFFFFFFFFFFFFFFFFFFFFFFF AND DUP2 MSTORE PUSH1 0x20 ADD SWAP1 DUP2 MSTORE PUSH1 0x20 ADD PUSH1 0x0 KECCAK256 PUSH1 0x0 DUP5 PUSH20 0xFFFFFFFFFFFFFFFFFFFFFFFFFFFFFFFFFFFFFFFF AND PUSH20 0xFFFFFFFFFFFFFFFFFFFFFFFFFFFFFFFFFFFFFFFF AND DUP2 MSTORE PUSH1 0x20 ADD SWAP1 DUP2 MSTORE PUSH1 0x20 ADD PUSH1 0x0 KECCAK256 PUSH1 0x0 PUSH2 0x100 EXP DUP2 SLOAD DUP2 PUSH1 0xFF MUL NOT AND SWAP1 DUP4 ISZERO ISZERO MUL OR SWAP1 SSTORE POP PUSH1 0x1 SWAP1 POP SWAP3 SWAP2 POP POP JUMP JUMPDEST PUSH1 0xE SLOAD DUP2 JUMP JUMPDEST PUSH1 0x60 DUP1 PUSH1 0x60 DUP1 PUSH1 0x60 DUP1 PUSH1 0x60 PUSH1 0x0 DUP1 PUSH1 0x7 PUSH1 0x0 DUP12 PUSH20 0xFFFFFFFFFFFFFFFFFFFFFFFFFFFFFFFFFFFFFFFF AND PUSH20 0xFFFFFFFFFFFFFFFFFFFFFFFFFFFFFFFFFFFFFFFF AND DUP2 MSTORE PUSH1 0x20 ADD SWAP1 DUP2 MSTORE PUSH1 0x20 ADD PUSH1 0x0 KECCAK256 PUSH1 0x0 CALLER PUSH20 0xFFFFFFFFFFFFFFFFFFFFFFFFFFFFFFFFFFFFFFFF AND PUSH20 0xFFFFFFFFFFFFFFFFFFFFFFFFFFFFFFFFFFFFFFFF AND DUP2 MSTORE PUSH1 0x20 ADD SWAP1 DUP2 MSTORE PUSH1 0x20 ADD PUSH1 0x0 KECCAK256 PUSH1 0x0 SWAP1 SLOAD SWAP1 PUSH2 0x100 EXP SWAP1 DIV PUSH1 0xFF AND ISZERO ISZERO PUSH2 0x268C JUMPI PUSH1 0x0 DUP1 REVERT JUMPDEST PUSH1 0x9 PUSH1 0x0 DUP12 PUSH20 0xFFFFFFFFFFFFFFFFFFFFFFFFFFFFFFFFFFFFFFFF AND PUSH20 0xFFFFFFFFFFFFFFFFFFFFFFFFFFFFFFFFFFFFFFFF AND DUP2 MSTORE PUSH1 0x20 ADD SWAP1 DUP2 MSTORE PUSH1 0x20 ADD PUSH1 0x0 KECCAK256 PUSH1 0x0 SWAP1 SLOAD SWAP1 PUSH2 0x100 EXP SWAP1 DIV PUSH1 0xFF AND ISZERO ISZERO PUSH2 0x26E4 JUMPI PUSH1 0x0 DUP1 REVERT JUMPDEST PUSH1 0x5 PUSH1 0x0 DUP12 PUSH20 0xFFFFFFFFFFFFFFFFFFFFFFFFFFFFFFFFFFFFFFFF AND PUSH20 0xFFFFFFFFFFFFFFFFFFFFFFFFFFFFFFFFFFFFFFFF AND DUP2 MSTORE PUSH1 0x20 ADD SWAP1 DUP2 MSTORE PUSH1 0x20 ADD PUSH1 0x0 KECCAK256 SWAP1 POP DUP1 PUSH1 0x0 ADD DUP2 PUSH1 0x1 ADD DUP3 PUSH1 0x2 ADD DUP4 PUSH1 0x3 ADD DUP5 PUSH1 0x5 ADD DUP6 PUSH1 0x6 ADD DUP7 PUSH1 0x7 ADD DUP8 PUSH1 0x8 ADD PUSH1 0x0 SWAP1 SLOAD SWAP1 PUSH2 0x100 EXP SWAP1 DIV PUSH20 0xFFFFFFFFFFFFFFFFFFFFFFFFFFFFFFFFFFFFFFFF AND DUP8 DUP1 SLOAD PUSH1 0x1 DUP2 PUSH1 0x1 AND ISZERO PUSH2 0x100 MUL SUB AND PUSH1 0x2 SWAP1 DIV DUP1 PUSH1 0x1F ADD PUSH1 0x20 DUP1 SWAP2 DIV MUL PUSH1 0x20 ADD PUSH1 0x40 MLOAD SWAP1 DUP2 ADD PUSH1 0x40 MSTORE DUP1 SWAP3 SWAP2 SWAP1 DUP2 DUP2 MSTORE PUSH1 0x20 ADD DUP3 DUP1 SLOAD PUSH1 0x1 DUP2 PUSH1 0x1 AND ISZERO PUSH2 0x100 MUL SUB AND PUSH1 0x2 SWAP1 DIV DUP1 ISZERO PUSH2 0x27FB JUMPI DUP1 PUSH1 0x1F LT PUSH2 0x27D0 JUMPI PUSH2 0x100 DUP1 DUP4 SLOAD DIV MUL DUP4 MSTORE SWAP2 PUSH1 0x20 ADD SWAP2 PUSH2 0x27FB JUMP JUMPDEST DUP3 ADD SWAP2 SWAP1 PUSH1 0x0 MSTORE PUSH1 0x20 PUSH1 0x0 KECCAK256 SWAP1 JUMPDEST DUP2 SLOAD DUP2 MSTORE SWAP1 PUSH1 0x1 ADD SWAP1 PUSH1 0x20 ADD DUP1 DUP4 GT PUSH2 0x27DE JUMPI DUP3 SWAP1 SUB PUSH1 0x1F AND DUP3 ADD SWAP2 JUMPDEST POP POP POP POP POP SWAP8 POP DUP7 DUP1 SLOAD PUSH1 0x1 DUP2 PUSH1 0x1 AND ISZERO PUSH2 0x100 MUL SUB AND PUSH1 0x2 SWAP1 DIV DUP1 PUSH1 0x1F ADD PUSH1 0x20 DUP1 SWAP2 DIV MUL PUSH1 0x20 ADD PUSH1 0x40 MLOAD SWAP1 DUP2 ADD PUSH1 0x40 MSTORE DUP1 SWAP3 SWAP2 SWAP1 DUP2 DUP2 MSTORE PUSH1 0x20 ADD DUP3 DUP1 SLOAD PUSH1 0x1 DUP2 PUSH1 0x1 AND ISZERO PUSH2 0x100 MUL SUB AND PUSH1 0x2 SWAP1 DIV DUP1 ISZERO PUSH2 0x2897 JUMPI DUP1 PUSH1 0x1F LT PUSH2 0x286C JUMPI PUSH2 0x100 DUP1 DUP4 SLOAD DIV MUL DUP4 MSTORE SWAP2 PUSH1 0x20 ADD SWAP2 PUSH2 0x2897 JUMP JUMPDEST DUP3 ADD SWAP2 SWAP1 PUSH1 0x0 MSTORE PUSH1 0x20 PUSH1 0x0 KECCAK256 SWAP1 JUMPDEST DUP2 SLOAD DUP2 MSTORE SWAP1 PUSH1 0x1 ADD SWAP1 PUSH1 0x20 ADD DUP1 DUP4 GT PUSH2 0x287A JUMPI DUP3 SWAP1 SUB PUSH1 0x1F AND DUP3 ADD SWAP2 JUMPDEST POP POP POP POP POP SWAP7 POP DUP6 DUP1 SLOAD PUSH1 0x1 DUP2 PUSH1 0x1 AND ISZERO PUSH2 0x100 MUL SUB AND PUSH1 0x2 SWAP1 DIV DUP1 PUSH1 0x1F ADD PUSH1 0x20 DUP1 SWAP2 DIV MUL PUSH1 0x20 ADD PUSH1 0x40 MLOAD SWAP1 DUP2 ADD PUSH1 0x40 MSTORE DUP1 SWAP3 SWAP2 SWAP1 DUP2 DUP2 MSTORE PUSH1 0x20 ADD DUP3 DUP1 SLOAD PUSH1 0x1 DUP2 PUSH1 0x1 AND ISZERO PUSH2 0x100 MUL SUB AND PUSH1 0x2 SWAP1 DIV DUP1 ISZERO PUSH2 0x2933 JUMPI DUP1 PUSH1 0x1F LT PUSH2 0x2908 JUMPI PUSH2 0x100 DUP1 DUP4 SLOAD DIV MUL DUP4 MSTORE SWAP2 PUSH1 0x20 ADD SWAP2 PUSH2 0x2933 JUMP JUMPDEST DUP3 ADD SWAP2 SWAP1 PUSH1 0x0 MSTORE PUSH1 0x20 PUSH1 0x0 KECCAK256 SWAP1 JUMPDEST DUP2 SLOAD DUP2 MSTORE SWAP1 PUSH1 0x1 ADD SWAP1 PUSH1 0x20 ADD DUP1 DUP4 GT PUSH2 0x2916 JUMPI DUP3 SWAP1 SUB PUSH1 0x1F AND DUP3 ADD SWAP2 JUMPDEST POP POP POP POP POP SWAP6 POP DUP5 DUP1 SLOAD PUSH1 0x1 DUP2 PUSH1 0x1 AND ISZERO PUSH2 0x100 MUL SUB AND PUSH1 0x2 SWAP1 DIV DUP1 PUSH1 0x1F ADD PUSH1 0x20 DUP1 SWAP2 DIV MUL PUSH1 0x20 ADD PUSH1 0x40 MLOAD SWAP1 DUP2 ADD PUSH1 0x40 MSTORE DUP1 SWAP3 SWAP2 SWAP1 DUP2 DUP2 MSTORE PUSH1 0x20 ADD DUP3 DUP1 SLOAD PUSH1 0x1 DUP2 PUSH1 0x1 AND ISZERO PUSH2 0x100 MUL SUB AND PUSH1 0x2 SWAP1 DIV DUP1 ISZERO PUSH2 0x29CF JUMPI DUP1 PUSH1 0x1F LT PUSH2 0x29A4 JUMPI PUSH2 0x100 DUP1 DUP4 SLOAD DIV MUL DUP4 MSTORE SWAP2 PUSH1 0x20 ADD SWAP2 PUSH2 0x29CF JUMP JUMPDEST DUP3 ADD SWAP2 SWAP1 PUSH1 0x0 MSTORE PUSH1 0x20 PUSH1 0x0 KECCAK256 SWAP1 JUMPDEST DUP2 SLOAD DUP2 MSTORE SWAP1 PUSH1 0x1 ADD SWAP1 PUSH1 0x20 ADD DUP1 DUP4 GT PUSH2 0x29B2 JUMPI DUP3 SWAP1 SUB PUSH1 0x1F AND DUP3 ADD SWAP2 JUMPDEST POP POP POP POP POP SWAP5 POP DUP4 DUP1 SLOAD PUSH1 0x1 DUP2 PUSH1 0x1 AND ISZERO PUSH2 0x100 MUL SUB AND PUSH1 0x2 SWAP1 DIV DUP1 PUSH1 0x1F ADD PUSH1 0x20 DUP1 SWAP2 DIV MUL PUSH1 0x20 ADD PUSH1 0x40 MLOAD SWAP1 DUP2 ADD PUSH1 0x40 MSTORE DUP1 SWAP3 SWAP2 SWAP1 DUP2 DUP2 MSTORE PUSH1 0x20 ADD DUP3 DUP1 SLOAD PUSH1 0x1 DUP2 PUSH1 0x1 AND ISZERO PUSH2 0x100 MUL SUB AND PUSH1 0x2 SWAP1 DIV DUP1 ISZERO PUSH2 0x2A6B JUMPI DUP1 PUSH1 0x1F LT PUSH2 0x2A40 JUMPI PUSH2 0x100 DUP1 DUP4 SLOAD DIV MUL DUP4 MSTORE SWAP2 PUSH1 0x20 ADD SWAP2 PUSH2 0x2A6B JUMP JUMPDEST DUP3 ADD SWAP2 SWAP1 PUSH1 0x0 MSTORE PUSH1 0x20 PUSH1 0x0 KECCAK256 SWAP1 JUMPDEST DUP2 SLOAD DUP2 MSTORE SWAP1 PUSH1 0x1 ADD SWAP1 PUSH1 0x20 ADD DUP1 DUP4 GT PUSH2 0x2A4E JUMPI DUP3 SWAP1 SUB PUSH1 0x1F AND DUP3 ADD SWAP2 JUMPDEST POP POP POP POP POP SWAP4 POP DUP3 DUP1 SLOAD PUSH1 0x1 DUP2 PUSH1 0x1 AND ISZERO PUSH2 0x100 MUL SUB AND PUSH1 0x2 SWAP1 DIV DUP1 PUSH1 0x1F ADD PUSH1 0x20 DUP1 SWAP2 DIV MUL PUSH1 0x20 ADD PUSH1 0x40 MLOAD SWAP1 DUP2 ADD PUSH1 0x40 MSTORE DUP1 SWAP3 SWAP2 SWAP1 DUP2 DUP2 MSTORE PUSH1 0x20 ADD DUP3 DUP1 SLOAD PUSH1 0x1 DUP2 PUSH1 0x1 AND ISZERO PUSH2 0x100 MUL SUB AND PUSH1 0x2 SWAP1 DIV DUP1 ISZERO PUSH2 0x2B07 JUMPI DUP1 PUSH1 0x1F LT PUSH2 0x2ADC JUMPI PUSH2 0x100 DUP1 DUP4 SLOAD DIV MUL DUP4 MSTORE SWAP2 PUSH1 0x20 ADD SWAP2 PUSH2 0x2B07 JUMP JUMPDEST DUP3 ADD SWAP2 SWAP1 PUSH1 0x0 MSTORE PUSH1 0x20 PUSH1 0x0 KECCAK256 SWAP1 JUMPDEST DUP2 SLOAD DUP2 MSTORE SWAP1 PUSH1 0x1 ADD SWAP1 PUSH1 0x20 ADD DUP1 DUP4 GT PUSH2 0x2AEA JUMPI DUP3 SWAP1 SUB PUSH1 0x1F AND DUP3 ADD SWAP2 JUMPDEST POP POP POP POP POP SWAP3 POP DUP2 DUP1 SLOAD PUSH1 0x1 DUP2 PUSH1 0x1 AND ISZERO PUSH2 0x100 MUL SUB AND PUSH1 0x2 SWAP1 DIV DUP1 PUSH1 0x1F ADD PUSH1 0x20 DUP1 SWAP2 DIV MUL PUSH1 0x20 ADD PUSH1 0x40 MLOAD SWAP1 DUP2 ADD PUSH1 0x40 MSTORE DUP1 SWAP3 SWAP2 SWAP1 DUP2 DUP2 MSTORE PUSH1 0x20 ADD DUP3 DUP1 SLOAD PUSH1 0x1 DUP2 PUSH1 0x1 AND ISZERO PUSH2 0x100 MUL SUB AND PUSH1 0x2 SWAP1 DIV DUP1 ISZERO PUSH2 0x2BA3 JUMPI DUP1 PUSH1 0x1F LT PUSH2 0x2B78 JUMPI PUSH2 0x100 DUP1 DUP4 SLOAD DIV MUL DUP4 MSTORE SWAP2 PUSH1 0x20 ADD SWAP2 PUSH2 0x2BA3 JUMP JUMPDEST DUP3 ADD SWAP2 SWAP1 PUSH1 0x0 MSTORE PUSH1 0x20 PUSH1 0x0 KECCAK256 SWAP1 JUMPDEST DUP2 SLOAD DUP2 MSTORE SWAP1 PUSH1 0x1 ADD SWAP1 PUSH1 0x20 ADD DUP1 DUP4 GT PUSH2 0x2B86 JUMPI DUP3 SWAP1 SUB PUSH1 0x1F AND DUP3 ADD SWAP2 JUMPDEST POP POP POP POP POP SWAP2 POP SWAP9 POP SWAP9 POP SWAP9 POP SWAP9 POP SWAP9 POP SWAP9 POP SWAP9 POP SWAP9 POP POP SWAP2 SWAP4 SWAP6 SWAP8 POP SWAP2 SWAP4 SWAP6 SWAP8 JUMP JUMPDEST PUSH1 0x0 PUSH1 0x10 PUSH1 0x0 SWAP1 SLOAD SWAP1 PUSH2 0x100 EXP SWAP1 DIV PUSH20 0xFFFFFFFFFFFFFFFFFFFFFFFFFFFFFFFFFFFFFFFF AND PUSH20 0xFFFFFFFFFFFFFFFFFFFFFFFFFFFFFFFFFFFFFFFF AND CALLER PUSH20 0xFFFFFFFFFFFFFFFFFFFFFFFFFFFFFFFFFFFFFFFF AND EQ ISZERO ISZERO PUSH2 0x2C24 JUMPI PUSH1 0x0 DUP1 REVERT JUMPDEST PUSH1 0x1 PUSH1 0x7 PUSH1 0x0 DUP6 PUSH20 0xFFFFFFFFFFFFFFFFFFFFFFFFFFFFFFFFFFFFFFFF AND PUSH20 0xFFFFFFFFFFFFFFFFFFFFFFFFFFFFFFFFFFFFFFFF AND DUP2 MSTORE PUSH1 0x20 ADD SWAP1 DUP2 MSTORE PUSH1 0x20 ADD PUSH1 0x0 KECCAK256 PUSH1 0x0 DUP5 PUSH20 0xFFFFFFFFFFFFFFFFFFFFFFFFFFFFFFFFFFFFFFFF AND PUSH20 0xFFFFFFFFFFFFFFFFFFFFFFFFFFFFFFFFFFFFFFFF AND DUP2 MSTORE PUSH1 0x20 ADD SWAP1 DUP2 MSTORE PUSH1 0x20 ADD PUSH1 0x0 KECCAK256 PUSH1 0x0 PUSH2 0x100 EXP DUP2 SLOAD DUP2 PUSH1 0xFF MUL NOT AND SWAP1 DUP4 ISZERO ISZERO MUL OR SWAP1 SSTORE POP PUSH1 0xD PUSH1 0x0 DUP2 SLOAD DUP1 SWAP3 SWAP2 SWAP1 PUSH1 0x1 ADD SWAP2 SWAP1 POP SSTORE POP PUSH1 0x1 SWAP1 POP SWAP3 SWAP2 POP POP JUMP JUMPDEST PUSH1 0x0 PUSH1 0xD SLOAD SWAP1 POP SWAP1 JUMP JUMPDEST PUSH1 0x3 DUP2 DUP2 SLOAD DUP2 LT ISZERO ISZERO PUSH2 0x2CEE JUMPI INVALID JUMPDEST SWAP1 PUSH1 0x0 MSTORE PUSH1 0x20 PUSH1 0x0 KECCAK256 ADD PUSH1 0x0 SWAP2 POP SLOAD SWAP1 PUSH2 0x100 EXP SWAP1 DIV PUSH20 0xFFFFFFFFFFFFFFFFFFFFFFFFFFFFFFFFFFFFFFFF AND DUP2 JUMP JUMPDEST DUP3 DUP1 SLOAD PUSH1 0x1 DUP2 PUSH1 0x1 AND ISZERO PUSH2 0x100 MUL SUB AND PUSH1 0x2 SWAP1 DIV SWAP1 PUSH1 0x0 MSTORE PUSH1 0x20 PUSH1 0x0 KECCAK256 SWAP1 PUSH1 0x1F ADD PUSH1 0x20 SWAP1 DIV DUP2 ADD SWAP3 DUP3 PUSH1 0x1F LT PUSH2 0x2D5E JUMPI DUP1 MLOAD PUSH1 0xFF NOT AND DUP4 DUP1 ADD OR DUP6 SSTORE PUSH2 0x2D8C JUMP JUMPDEST DUP3 DUP1 ADD PUSH1 0x1 ADD DUP6 SSTORE DUP3 ISZERO PUSH2 0x2D8C JUMPI SWAP2 DUP3 ADD JUMPDEST DUP3 DUP2 GT ISZERO PUSH2 0x2D8B JUMPI DUP3 MLOAD DUP3 SSTORE SWAP2 PUSH1 0x20 ADD SWAP2 SWAP1 PUSH1 0x1 ADD SWAP1 PUSH2 0x2D70 JUMP JUMPDEST JUMPDEST POP SWAP1 POP PUSH2 0x2D99 SWAP2 SWAP1 PUSH2 0x2D9D JUMP JUMPDEST POP SWAP1 JUMP JUMPDEST PUSH2 0x2DBF SWAP2 SWAP1 JUMPDEST DUP1 DUP3 GT ISZERO PUSH2 0x2DBB JUMPI PUSH1 0x0 DUP2 PUSH1 0x0 SWAP1 SSTORE POP PUSH1 0x1 ADD PUSH2 0x2DA3 JUMP JUMPDEST POP SWAP1 JUMP JUMPDEST SWAP1 JUMP JUMPDEST PUSH1 0x0 PUSH2 0x2DCE DUP3 CALLDATALOAD PUSH2 0x3603 JUMP JUMPDEST SWAP1 POP SWAP3 SWAP2 POP POP JUMP JUMPDEST PUSH1 0x0 DUP3 PUSH1 0x1F DUP4 ADD SLT ISZERO ISZERO PUSH2 0x2DE9 JUMPI PUSH1 0x0 DUP1 REVERT JUMPDEST DUP2 CALLDATALOAD PUSH2 0x2DFC PUSH2 0x2DF7 DUP3 PUSH2 0x3571 JUMP JUMPDEST PUSH2 0x3544 JUMP JUMPDEST SWAP2 POP DUP1 DUP3 MSTORE PUSH1 0x20 DUP4 ADD PUSH1 0x20 DUP4 ADD DUP6 DUP4 DUP4 ADD GT ISZERO PUSH2 0x2E18 JUMPI PUSH1 0x0 DUP1 REVERT JUMPDEST PUSH2 0x2E23 DUP4 DUP3 DUP5 PUSH2 0x362D JUMP JUMPDEST POP POP POP SWAP3 SWAP2 POP POP JUMP JUMPDEST PUSH1 0x0 PUSH2 0x2E38 DUP3 CALLDATALOAD PUSH2 0x3623 JUMP JUMPDEST SWAP1 POP SWAP3 SWAP2 POP POP JUMP JUMPDEST PUSH1 0x0 PUSH1 0x20 DUP3 DUP5 SUB SLT ISZERO PUSH2 0x2E52 JUMPI PUSH1 0x0 DUP1 REVERT JUMPDEST PUSH1 0x0 PUSH2 0x2E60 DUP5 DUP3 DUP6 ADD PUSH2 0x2DC2 JUMP JUMPDEST SWAP2 POP POP SWAP3 SWAP2 POP POP JUMP JUMPDEST PUSH1 0x0 DUP1 PUSH1 0x40 DUP4 DUP6 SUB SLT ISZERO PUSH2 0x2E7C JUMPI PUSH1 0x0 DUP1 REVERT JUMPDEST PUSH1 0x0 PUSH2 0x2E8A DUP6 DUP3 DUP7 ADD PUSH2 0x2DC2 JUMP JUMPDEST SWAP3 POP POP PUSH1 0x20 PUSH2 0x2E9B DUP6 DUP3 DUP7 ADD PUSH2 0x2DC2 JUMP JUMPDEST SWAP2 POP POP SWAP3 POP SWAP3 SWAP1 POP JUMP JUMPDEST PUSH1 0x0 DUP1 PUSH1 0x0 DUP1 PUSH1 0x0 DUP1 PUSH1 0x0 PUSH1 0xE0 DUP9 DUP11 SUB SLT ISZERO PUSH2 0x2EC0 JUMPI PUSH1 0x0 DUP1 REVERT JUMPDEST PUSH1 0x0 PUSH2 0x2ECE DUP11 DUP3 DUP12 ADD PUSH2 0x2DC2 JUMP JUMPDEST SWAP8 POP POP PUSH1 0x20 PUSH2 0x2EDF DUP11 DUP3 DUP12 ADD PUSH2 0x2DC2 JUMP JUMPDEST SWAP7 POP POP PUSH1 0x40 DUP9 ADD CALLDATALOAD PUSH8 0xFFFFFFFFFFFFFFFF DUP2 GT ISZERO PUSH2 0x2EFC JUMPI PUSH1 0x0 DUP1 REVERT JUMPDEST PUSH2 0x2F08 DUP11 DUP3 DUP12 ADD PUSH2 0x2DD6 JUMP JUMPDEST SWAP6 POP POP PUSH1 0x60 DUP9 ADD CALLDATALOAD PUSH8 0xFFFFFFFFFFFFFFFF DUP2 GT ISZERO PUSH2 0x2F25 JUMPI PUSH1 0x0 DUP1 REVERT JUMPDEST PUSH2 0x2F31 DUP11 DUP3 DUP12 ADD PUSH2 0x2DD6 JUMP JUMPDEST SWAP5 POP POP PUSH1 0x80 DUP9 ADD CALLDATALOAD PUSH8 0xFFFFFFFFFFFFFFFF DUP2 GT ISZERO PUSH2 0x2F4E JUMPI PUSH1 0x0 DUP1 REVERT JUMPDEST PUSH2 0x2F5A DUP11 DUP3 DUP12 ADD PUSH2 0x2DD6 JUMP JUMPDEST SWAP4 POP POP PUSH1 0xA0 DUP9 ADD CALLDATALOAD PUSH8 0xFFFFFFFFFFFFFFFF DUP2 GT ISZERO PUSH2 0x2F77 JUMPI PUSH1 0x0 DUP1 REVERT JUMPDEST PUSH2 0x2F83 DUP11 DUP3 DUP12 ADD PUSH2 0x2DD6 JUMP JUMPDEST SWAP3 POP POP PUSH1 0xC0 PUSH2 0x2F94 DUP11 DUP3 DUP12 ADD PUSH2 0x2E2C JUMP JUMPDEST SWAP2 POP POP SWAP3 SWAP6 SWAP9 SWAP2 SWAP5 SWAP8 POP SWAP3 SWAP6 POP JUMP JUMPDEST PUSH1 0x0 DUP1 PUSH1 0x0 DUP1 PUSH1 0x0 DUP1 PUSH1 0x0 DUP1 PUSH2 0x100 DUP10 DUP12 SUB SLT ISZERO PUSH2 0x2FC0 JUMPI PUSH1 0x0 DUP1 REVERT JUMPDEST PUSH1 0x0 PUSH2 0x2FCE DUP12 DUP3 DUP13 ADD PUSH2 0x2DC2 JUMP JUMPDEST SWAP9 POP POP PUSH1 0x20 DUP10 ADD CALLDATALOAD PUSH8 0xFFFFFFFFFFFFFFFF DUP2 GT ISZERO PUSH2 0x2FEB JUMPI PUSH1 0x0 DUP1 REVERT JUMPDEST PUSH2 0x2FF7 DUP12 DUP3 DUP13 ADD PUSH2 0x2DD6 JUMP JUMPDEST SWAP8 POP POP PUSH1 0x40 DUP10 ADD CALLDATALOAD PUSH8 0xFFFFFFFFFFFFFFFF DUP2 GT ISZERO PUSH2 0x3014 JUMPI PUSH1 0x0 DUP1 REVERT JUMPDEST PUSH2 0x3020 DUP12 DUP3 DUP13 ADD PUSH2 0x2DD6 JUMP JUMPDEST SWAP7 POP POP PUSH1 0x60 DUP10 ADD CALLDATALOAD PUSH8 0xFFFFFFFFFFFFFFFF DUP2 GT ISZERO PUSH2 0x303D JUMPI PUSH1 0x0 DUP1 REVERT JUMPDEST PUSH2 0x3049 DUP12 DUP3 DUP13 ADD PUSH2 0x2DD6 JUMP JUMPDEST SWAP6 POP POP PUSH1 0x80 DUP10 ADD CALLDATALOAD PUSH8 0xFFFFFFFFFFFFFFFF DUP2 GT ISZERO PUSH2 0x3066 JUMPI PUSH1 0x0 DUP1 REVERT JUMPDEST PUSH2 0x3072 DUP12 DUP3 DUP13 ADD PUSH2 0x2DD6 JUMP JUMPDEST SWAP5 POP POP PUSH1 0xA0 DUP10 ADD CALLDATALOAD PUSH8 0xFFFFFFFFFFFFFFFF DUP2 GT ISZERO PUSH2 0x308F JUMPI PUSH1 0x0 DUP1 REVERT JUMPDEST PUSH2 0x309B DUP12 DUP3 DUP13 ADD PUSH2 0x2DD6 JUMP JUMPDEST SWAP4 POP POP PUSH1 0xC0 DUP10 ADD CALLDATALOAD PUSH8 0xFFFFFFFFFFFFFFFF DUP2 GT ISZERO PUSH2 0x30B8 JUMPI PUSH1 0x0 DUP1 REVERT JUMPDEST PUSH2 0x30C4 DUP12 DUP3 DUP13 ADD PUSH2 0x2DD6 JUMP JUMPDEST SWAP3 POP POP PUSH1 0xE0 DUP10 ADD CALLDATALOAD PUSH8 0xFFFFFFFFFFFFFFFF DUP2 GT ISZERO PUSH2 0x30E1 JUMPI PUSH1 0x0 DUP1 REVERT JUMPDEST PUSH2 0x30ED DUP12 DUP3 DUP13 ADD PUSH2 0x2DD6 JUMP JUMPDEST SWAP2 POP POP SWAP3 SWAP6 SWAP9 POP SWAP3 SWAP6 SWAP9 SWAP1 SWAP4 SWAP7 POP JUMP JUMPDEST PUSH1 0x0 DUP1 PUSH1 0x0 DUP1 PUSH1 0x0 DUP1 PUSH1 0x0 DUP1 PUSH1 0x0 DUP1 PUSH2 0x140 DUP12 DUP14 SUB SLT ISZERO PUSH2 0x311D JUMPI PUSH1 0x0 DUP1 REVERT JUMPDEST PUSH1 0x0 PUSH2 0x312B DUP14 DUP3 DUP15 ADD PUSH2 0x2DC2 JUMP JUMPDEST SWAP11 POP POP PUSH1 0x20 DUP12 ADD CALLDATALOAD PUSH8 0xFFFFFFFFFFFFFFFF DUP2 GT ISZERO PUSH2 0x3148 JUMPI PUSH1 0x0 DUP1 REVERT JUMPDEST PUSH2 0x3154 DUP14 DUP3 DUP15 ADD PUSH2 0x2DD6 JUMP JUMPDEST SWAP10 POP POP PUSH1 0x40 DUP12 ADD CALLDATALOAD PUSH8 0xFFFFFFFFFFFFFFFF DUP2 GT ISZERO PUSH2 0x3171 JUMPI PUSH1 0x0 DUP1 REVERT JUMPDEST PUSH2 0x317D DUP14 DUP3 DUP15 ADD PUSH2 0x2DD6 JUMP JUMPDEST SWAP9 POP POP PUSH1 0x60 DUP12 ADD CALLDATALOAD PUSH8 0xFFFFFFFFFFFFFFFF DUP2 GT ISZERO PUSH2 0x319A JUMPI PUSH1 0x0 DUP1 REVERT JUMPDEST PUSH2 0x31A6 DUP14 DUP3 DUP15 ADD PUSH2 0x2DD6 JUMP JUMPDEST SWAP8 POP POP PUSH1 0x80 DUP12 ADD CALLDATALOAD PUSH8 0xFFFFFFFFFFFFFFFF DUP2 GT ISZERO PUSH2 0x31C3 JUMPI PUSH1 0x0 DUP1 REVERT JUMPDEST PUSH2 0x31CF DUP14 DUP3 DUP15 ADD PUSH2 0x2DD6 JUMP JUMPDEST SWAP7 POP POP PUSH1 0xA0 DUP12 ADD CALLDATALOAD PUSH8 0xFFFFFFFFFFFFFFFF DUP2 GT ISZERO PUSH2 0x31EC JUMPI PUSH1 0x0 DUP1 REVERT JUMPDEST PUSH2 0x31F8 DUP14 DUP3 DUP15 ADD PUSH2 0x2DD6 JUMP JUMPDEST SWAP6 POP POP PUSH1 0xC0 DUP12 ADD CALLDATALOAD PUSH8 0xFFFFFFFFFFFFFFFF DUP2 GT ISZERO PUSH2 0x3215 JUMPI PUSH1 0x0 DUP1 REVERT JUMPDEST PUSH2 0x3221 DUP14 DUP3 DUP15 ADD PUSH2 0x2DD6 JUMP JUMPDEST SWAP5 POP POP PUSH1 0xE0 DUP12 ADD CALLDATALOAD PUSH8 0xFFFFFFFFFFFFFFFF DUP2 GT ISZERO PUSH2 0x323E JUMPI PUSH1 0x0 DUP1 REVERT JUMPDEST PUSH2 0x324A DUP14 DUP3 DUP15 ADD PUSH2 0x2DD6 JUMP JUMPDEST SWAP4 POP POP PUSH2 0x100 DUP12 ADD CALLDATALOAD PUSH8 0xFFFFFFFFFFFFFFFF DUP2 GT ISZERO PUSH2 0x3268 JUMPI PUSH1 0x0 DUP1 REVERT JUMPDEST PUSH2 0x3274 DUP14 DUP3 DUP15 ADD PUSH2 0x2DD6 JUMP JUMPDEST SWAP3 POP POP PUSH2 0x120 DUP12 ADD CALLDATALOAD PUSH8 0xFFFFFFFFFFFFFFFF DUP2 GT ISZERO PUSH2 0x3292 JUMPI PUSH1 0x0 DUP1 REVERT JUMPDEST PUSH2 0x329E DUP14 DUP3 DUP15 ADD PUSH2 0x2DD6 JUMP JUMPDEST SWAP2 POP POP SWAP3 SWAP6 SWAP9 SWAP12 SWAP2 SWAP5 SWAP8 SWAP11 POP SWAP3 SWAP6 SWAP9 POP JUMP JUMPDEST PUSH1 0x0 PUSH1 0x20 DUP3 DUP5 SUB SLT ISZERO PUSH2 0x32C2 JUMPI PUSH1 0x0 DUP1 REVERT JUMPDEST PUSH1 0x0 PUSH2 0x32D0 DUP5 DUP3 DUP6 ADD PUSH2 0x2E2C JUMP JUMPDEST SWAP2 POP POP SWAP3 SWAP2 POP POP JUMP JUMPDEST PUSH2 0x32E2 DUP2 PUSH2 0x35CD JUMP JUMPDEST DUP3 MSTORE POP POP JUMP JUMPDEST PUSH1 0x0 PUSH2 0x32F3 DUP3 PUSH2 0x35AA JUMP JUMPDEST DUP1 DUP5 MSTORE PUSH1 0x20 DUP5 ADD SWAP4 POP PUSH2 0x3305 DUP4 PUSH2 0x359D JUMP JUMPDEST PUSH1 0x0 JUMPDEST DUP3 DUP2 LT ISZERO PUSH2 0x3337 JUMPI PUSH2 0x331B DUP7 DUP4 MLOAD PUSH2 0x32D9 JUMP JUMPDEST PUSH2 0x3324 DUP3 PUSH2 0x35C0 JUMP JUMPDEST SWAP2 POP PUSH1 0x20 DUP7 ADD SWAP6 POP PUSH1 0x1 DUP2 ADD SWAP1 POP PUSH2 0x3308 JUMP JUMPDEST POP DUP5 SWAP3 POP POP POP SWAP3 SWAP2 POP POP JUMP JUMPDEST PUSH2 0x334C DUP2 PUSH2 0x35ED JUMP JUMPDEST DUP3 MSTORE POP POP JUMP JUMPDEST PUSH1 0x0 PUSH2 0x335D DUP3 PUSH2 0x35B5 JUMP JUMPDEST DUP1 DUP5 MSTORE PUSH2 0x3371 DUP2 PUSH1 0x20 DUP7 ADD PUSH1 0x20 DUP7 ADD PUSH2 0x363C JUMP JUMPDEST PUSH2 0x337A DUP2 PUSH2 0x366F JUMP JUMPDEST PUSH1 0x20 DUP6 ADD ADD SWAP2 POP POP SWAP3 SWAP2 POP POP JUMP JUMPDEST PUSH2 0x3391 DUP2 PUSH2 0x35F9 JUMP JUMPDEST DUP3 MSTORE POP POP JUMP JUMPDEST PUSH1 0x0 PUSH1 0x20 DUP3 ADD SWAP1 POP PUSH2 0x33AC PUSH1 0x0 DUP4 ADD DUP5 PUSH2 0x32D9 JUMP JUMPDEST SWAP3 SWAP2 POP POP JUMP JUMPDEST PUSH1 0x0 PUSH1 0x20 DUP3 ADD SWAP1 POP DUP2 DUP2 SUB PUSH1 0x0 DUP4 ADD MSTORE PUSH2 0x33CC DUP2 DUP5 PUSH2 0x32E8 JUMP JUMPDEST SWAP1 POP SWAP3 SWAP2 POP POP JUMP JUMPDEST PUSH1 0x0 PUSH1 0x20 DUP3 ADD SWAP1 POP PUSH2 0x33E9 PUSH1 0x0 DUP4 ADD DUP5 PUSH2 0x3343 JUMP JUMPDEST SWAP3 SWAP2 POP POP JUMP JUMPDEST PUSH1 0x0 PUSH2 0x100 DUP3 ADD SWAP1 POP DUP2 DUP2 SUB PUSH1 0x0 DUP4 ADD MSTORE PUSH2 0x340A DUP2 DUP12 PUSH2 0x3352 JUMP JUMPDEST SWAP1 POP DUP2 DUP2 SUB PUSH1 0x20 DUP4 ADD MSTORE PUSH2 0x341E DUP2 DUP11 PUSH2 0x3352 JUMP JUMPDEST SWAP1 POP DUP2 DUP2 SUB PUSH1 0x40 DUP4 ADD MSTORE PUSH2 0x3432 DUP2 DUP10 PUSH2 0x3352 JUMP JUMPDEST SWAP1 POP DUP2 DUP2 SUB PUSH1 0x60 DUP4 ADD MSTORE PUSH2 0x3446 DUP2 DUP9 PUSH2 0x3352 JUMP JUMPDEST SWAP1 POP DUP2 DUP2 SUB PUSH1 0x80 DUP4 ADD MSTORE PUSH2 0x345A DUP2 DUP8 PUSH2 0x3352 JUMP JUMPDEST SWAP1 POP DUP2 DUP2 SUB PUSH1 0xA0 DUP4 ADD MSTORE PUSH2 0x346E DUP2 DUP7 PUSH2 0x3352 JUMP JUMPDEST SWAP1 POP DUP2 DUP2 SUB PUSH1 0xC0 DUP4 ADD MSTORE PUSH2 0x3482 DUP2 DUP6 PUSH2 0x3352 JUMP JUMPDEST SWAP1 POP PUSH2 0x3491 PUSH1 0xE0 DUP4 ADD DUP5 PUSH2 0x32D9 JUMP JUMPDEST SWAP10 SWAP9 POP POP POP POP POP POP POP POP POP JUMP JUMPDEST PUSH1 0x0 PUSH1 0xE0 DUP3 ADD SWAP1 POP DUP2 DUP2 SUB PUSH1 0x0 DUP4 ADD MSTORE PUSH2 0x34B8 DUP2 DUP11 PUSH2 0x3352 JUMP JUMPDEST SWAP1 POP DUP2 DUP2 SUB PUSH1 0x20 DUP4 ADD MSTORE PUSH2 0x34CC DUP2 DUP10 PUSH2 0x3352 JUMP JUMPDEST SWAP1 POP DUP2 DUP2 SUB PUSH1 0x40 DUP4 ADD MSTORE PUSH2 0x34E0 DUP2 DUP9 PUSH2 0x3352 JUMP JUMPDEST SWAP1 POP DUP2 DUP2 SUB PUSH1 0x60 DUP4 ADD MSTORE PUSH2 0x34F4 DUP2 DUP8 PUSH2 0x3352 JUMP JUMPDEST SWAP1 POP PUSH2 0x3503 PUSH1 0x80 DUP4 ADD DUP7 PUSH2 0x3388 JUMP JUMPDEST PUSH2 0x3510 PUSH1 0xA0 DUP4 ADD DUP6 PUSH2 0x32D9 JUMP JUMPDEST PUSH2 0x351D PUSH1 0xC0 DUP4 ADD DUP5 PUSH2 0x32D9 JUMP JUMPDEST SWAP9 SWAP8 POP POP POP POP POP POP POP POP JUMP JUMPDEST PUSH1 0x0 PUSH1 0x20 DUP3 ADD SWAP1 POP PUSH2 0x353E PUSH1 0x0 DUP4 ADD DUP5 PUSH2 0x3388 JUMP JUMPDEST SWAP3 SWAP2 POP POP JUMP JUMPDEST PUSH1 0x0 PUSH1 0x40 MLOAD SWAP1 POP DUP2 DUP2 ADD DUP2 DUP2 LT PUSH8 0xFFFFFFFFFFFFFFFF DUP3 GT OR ISZERO PUSH2 0x3567 JUMPI PUSH1 0x0 DUP1 REVERT JUMPDEST DUP1 PUSH1 0x40 MSTORE POP SWAP2 SWAP1 POP JUMP JUMPDEST PUSH1 0x0 PUSH8 0xFFFFFFFFFFFFFFFF DUP3 GT ISZERO PUSH2 0x3588 JUMPI PUSH1 0x0 DUP1 REVERT JUMPDEST PUSH1 0x1F NOT PUSH1 0x1F DUP4 ADD AND SWAP1 POP PUSH1 0x20 DUP2 ADD SWAP1 POP SWAP2 SWAP1 POP JUMP JUMPDEST PUSH1 0x0 PUSH1 0x20 DUP3 ADD SWAP1 POP SWAP2 SWAP1 POP JUMP JUMPDEST PUSH1 0x0 DUP2 MLOAD SWAP1 POP SWAP2 SWAP1 POP JUMP JUMPDEST PUSH1 0x0 DUP2 MLOAD SWAP1 POP SWAP2 SWAP1 POP JUMP JUMPDEST PUSH1 0x0 PUSH1 0x20 DUP3 ADD SWAP1 POP SWAP2 SWAP1 POP JUMP JUMPDEST PUSH1 0x0 PUSH20 0xFFFFFFFFFFFFFFFFFFFFFFFFFFFFFFFFFFFFFFFF DUP3 AND SWAP1 POP SWAP2 SWAP1 POP JUMP JUMPDEST PUSH1 0x0 DUP2 ISZERO ISZERO SWAP1 POP SWAP2 SWAP1 POP JUMP JUMPDEST PUSH1 0x0 DUP2 SWAP1 POP SWAP2 SWAP1 POP JUMP JUMPDEST PUSH1 0x0 PUSH20 0xFFFFFFFFFFFFFFFFFFFFFFFFFFFFFFFFFFFFFFFF DUP3 AND SWAP1 POP SWAP2 SWAP1 POP JUMP JUMPDEST PUSH1 0x0 DUP2 SWAP1 POP SWAP2 SWAP1 POP JUMP JUMPDEST DUP3 DUP2 DUP4 CALLDATACOPY PUSH1 0x0 DUP4 DUP4 ADD MSTORE POP POP POP JUMP JUMPDEST PUSH1 0x0 JUMPDEST DUP4 DUP2 LT ISZERO PUSH2 0x365A JUMPI DUP1 DUP3 ADD MLOAD DUP2 DUP5 ADD MSTORE PUSH1 0x20 DUP2 ADD SWAP1 POP PUSH2 0x363F JUMP JUMPDEST DUP4 DUP2 GT ISZERO PUSH2 0x3669 JUMPI PUSH1 0x0 DUP5 DUP5 ADD MSTORE JUMPDEST POP POP POP POP JUMP JUMPDEST PUSH1 0x0 PUSH1 0x1F NOT PUSH1 0x1F DUP4 ADD AND SWAP1 POP SWAP2 SWAP1 POP JUMP STOP LOG2 PUSH6 0x627A7A723058 KECCAK256 SWAP10 JUMPI PUSH16 0x722E386C1F3D6019A9EF7F032F14E39F BLOCKHASH 0x26 0xe0 0xa7 0xb4 PUSH9 0x86041090DA3C8A6C65 PUSH25 0x706572696D656E74616CF50037000000000000000000000000 "
				},
				"gasEstimates": {
					"creation": {
						"codeDepositCost": "2802000",
						"executionCost": "48350",
						"totalCost": "2850350"
					},
					"external": {
						"MoHPermissionCounter()": "936",
						"MoHRevokePermission(address,address)": "infinite",
						"checkDoctor(address)": "1503",
						"createVaccineRecord(address,address,string,string,string,string,uint256)": "infinite",
						"doctorCount()": "804",
						"doctorList(uint256)": "1144",
						"doctorRegistration(address,string,string,string,string,string,string,string)": "infinite",
						"editDoctor(address,string,string,string,string,string,string,string)": "infinite",
						"editUser(address,string,string,string,string,string,string,string,string,string)": "infinite",
						"getDoctorCount()": "834",
						"getDoctors()": "infinite",
						"getMoHPermissionCounter()": "1142",
						"getUserCount()": "1010",
						"getUserPermissionCounter()": "548",
						"getUsers()": "infinite",
						"getVaccinationInfo(address)": "infinite",
						"givePermissionByMoH(address,address)": "infinite",
						"givePermissionByUser(address)": "41410",
						"mohAdress()": "1066",
						"owner()": "934",
						"ownerAddress(address)": "1003",
						"searchDoctor(address)": "infinite",
						"searchUserformation(address)": "infinite",
						"userCount()": "584",
						"userList(uint256)": "1496",
						"userPermissionCounter()": "1068",
						"userRegistration(address,string,string,string,string,string,string,string,string,string)": "infinite",
						"userRevokePermission(address)": "21217",
						"vaccinationList(uint256)": "1694",
						"vaccinationRecordsCounter()": "914"
					}
				},
				"methodIdentifiers": {
					"MoHPermissionCounter()": "99d698c5",
					"MoHRevokePermission(address,address)": "c3bf7bf0",
					"checkDoctor(address)": "793de5f0",
					"createVaccineRecord(address,address,string,string,string,string,uint256)": "44c23f88",
					"doctorCount()": "78522bc4",
					"doctorList(uint256)": "127ca4b4",
					"doctorRegistration(address,string,string,string,string,string,string,string)": "17e51111",
					"editDoctor(address,string,string,string,string,string,string,string)": "16e0a611",
					"editUser(address,string,string,string,string,string,string,string,string,string)": "779a9576",
					"getDoctorCount()": "79111c1c",
					"getDoctors()": "b13d5d94",
					"getMoHPermissionCounter()": "e0df0ac6",
					"getUserCount()": "b5cb15f7",
					"getUserPermissionCounter()": "024decc5",
					"getUsers()": "00ce8e3e",
					"getVaccinationInfo(address)": "83a28b29",
					"givePermissionByMoH(address,address)": "d118404b",
					"givePermissionByUser(address)": "294a4540",
					"mohAdress()": "b744ff4d",
					"owner()": "8da5cb5b",
					"ownerAddress(address)": "28f6daac",
					"searchDoctor(address)": "caee6c85",
					"searchUserformation(address)": "076fd2f8",
					"userCount()": "07973ccf",
					"userList(uint256)": "9f4216e8",
					"userPermissionCounter()": "c543a718",
					"userRegistration(address,string,string,string,string,string,string,string,string,string)": "6cdb2278",
					"userRevokePermission(address)": "5fc8e8c6",
					"vaccinationList(uint256)": "ff508dab",
					"vaccinationRecordsCounter()": "96e39ce0"
				}
			},
			"userdoc": {
				"methods": {}
			}
		}
	}
}