{
	"contracts/bank.sol": {
		"bank": {
			"abi": [
				{
					"constant": true,
					"inputs": [],
					"name": "getBalance",
					"outputs": [
						{
							"name": "",
							"type": "int256"
						}
					],
					"payable": false,
					"stateMutability": "view",
					"type": "function"
				},
				{
					"constant": false,
					"inputs": [
						{
							"name": "amt",
							"type": "int256"
						}
					],
					"name": "deposite_money",
					"outputs": [
						{
							"name": "",
							"type": "int256"
						}
					],
					"payable": false,
					"stateMutability": "nonpayable",
					"type": "function"
				},
				{
					"constant": false,
					"inputs": [
						{
							"name": "amt",
							"type": "int256"
						}
					],
					"name": "withdraw",
					"outputs": [
						{
							"name": "",
							"type": "int256"
						}
					],
					"payable": false,
					"stateMutability": "nonpayable",
					"type": "function"
				}
			],
			"devdoc": {
				"methods": {}
			},
			"evm": {
				"assembly": "    /* \"contracts/bank.sol\":28:366  contract bank{\r... */\n  mstore(0x40, 0x80)\n    /* \"contracts/bank.sol\":56:57  0 */\n  0x0\n    /* \"contracts/bank.sol\":48:57  int bal=0 */\n  dup1\n  sstore\n    /* \"contracts/bank.sol\":28:366  contract bank{\r... */\n  callvalue\n    /* \"--CODEGEN--\":8:17   */\n  dup1\n    /* \"--CODEGEN--\":5:7   */\n  iszero\n  tag_1\n  jumpi\n    /* \"--CODEGEN--\":30:31   */\n  0x0\n    /* \"--CODEGEN--\":27:28   */\n  dup1\n    /* \"--CODEGEN--\":20:32   */\n  revert\n    /* \"--CODEGEN--\":5:7   */\ntag_1:\n    /* \"contracts/bank.sol\":28:366  contract bank{\r... */\n  pop\n  dataSize(sub_0)\n  dup1\n  dataOffset(sub_0)\n  0x0\n  codecopy\n  0x0\n  return\nstop\n\nsub_0: assembly {\n        /* \"contracts/bank.sol\":28:366  contract bank{\r... */\n      mstore(0x40, 0x80)\n      jumpi(tag_1, lt(calldatasize, 0x4))\n      calldataload(0x0)\n      0x100000000000000000000000000000000000000000000000000000000\n      swap1\n      div\n      0xffffffff\n      and\n      dup1\n      0x12065fe0\n      eq\n      tag_2\n      jumpi\n      dup1\n      0x5d5f704f\n      eq\n      tag_3\n      jumpi\n      dup1\n      0x7e62eab8\n      eq\n      tag_4\n      jumpi\n    tag_1:\n      0x0\n      dup1\n      revert\n        /* \"contracts/bank.sol\":287:363  function getBalance() public view returns(int) {\r... */\n    tag_2:\n      callvalue\n        /* \"--CODEGEN--\":8:17   */\n      dup1\n        /* \"--CODEGEN--\":5:7   */\n      iszero\n      tag_5\n      jumpi\n        /* \"--CODEGEN--\":30:31   */\n      0x0\n        /* \"--CODEGEN--\":27:28   */\n      dup1\n        /* \"--CODEGEN--\":20:32   */\n      revert\n        /* \"--CODEGEN--\":5:7   */\n    tag_5:\n        /* \"contracts/bank.sol\":287:363  function getBalance() public view returns(int) {\r... */\n      pop\n      tag_6\n      jump(tag_7)\n    tag_6:\n      mload(0x40)\n      dup1\n      dup3\n      dup2\n      mstore\n      0x20\n      add\n      swap2\n      pop\n      pop\n      mload(0x40)\n      dup1\n      swap2\n      sub\n      swap1\n      return\n        /* \"contracts/bank.sol\":66:177  function deposite_money(int amt) public returns(int) {\r... */\n    tag_3:\n      callvalue\n        /* \"--CODEGEN--\":8:17   */\n      dup1\n        /* \"--CODEGEN--\":5:7   */\n      iszero\n      tag_8\n      jumpi\n        /* \"--CODEGEN--\":30:31   */\n      0x0\n        /* \"--CODEGEN--\":27:28   */\n      dup1\n        /* \"--CODEGEN--\":20:32   */\n      revert\n        /* \"--CODEGEN--\":5:7   */\n    tag_8:\n        /* \"contracts/bank.sol\":66:177  function deposite_money(int amt) public returns(int) {\r... */\n      pop\n      tag_9\n      0x4\n      dup1\n      calldatasize\n      sub\n      dup2\n      add\n      swap1\n      dup1\n      dup1\n      calldataload\n      swap1\n      0x20\n      add\n      swap1\n      swap3\n      swap2\n      swap1\n      pop\n      pop\n      pop\n      jump(tag_10)\n    tag_9:\n      mload(0x40)\n      dup1\n      dup3\n      dup2\n      mstore\n      0x20\n      add\n      swap2\n      pop\n      pop\n      mload(0x40)\n      dup1\n      swap2\n      sub\n      swap1\n      return\n        /* \"contracts/bank.sol\":185:279  function withdraw(int amt) public returns(int){\r... */\n    tag_4:\n      callvalue\n        /* \"--CODEGEN--\":8:17   */\n      dup1\n        /* \"--CODEGEN--\":5:7   */\n      iszero\n      tag_11\n      jumpi\n        /* \"--CODEGEN--\":30:31   */\n      0x0\n        /* \"--CODEGEN--\":27:28   */\n      dup1\n        /* \"--CODEGEN--\":20:32   */\n      revert\n        /* \"--CODEGEN--\":5:7   */\n    tag_11:\n        /* \"contracts/bank.sol\":185:279  function withdraw(int amt) public returns(int){\r... */\n      pop\n      tag_12\n      0x4\n      dup1\n      calldatasize\n      sub\n      dup2\n      add\n      swap1\n      dup1\n      dup1\n      calldataload\n      swap1\n      0x20\n      add\n      swap1\n      swap3\n      swap2\n      swap1\n      pop\n      pop\n      pop\n      jump(tag_13)\n    tag_12:\n      mload(0x40)\n      dup1\n      dup3\n      dup2\n      mstore\n      0x20\n      add\n      swap2\n      pop\n      pop\n      mload(0x40)\n      dup1\n      swap2\n      sub\n      swap1\n      return\n        /* \"contracts/bank.sol\":287:363  function getBalance() public view returns(int) {\r... */\n    tag_7:\n        /* \"contracts/bank.sol\":329:332  int */\n      0x0\n        /* \"contracts/bank.sol\":352:355  bal */\n      dup1\n      sload\n        /* \"contracts/bank.sol\":345:355  return bal */\n      swap1\n      pop\n        /* \"contracts/bank.sol\":287:363  function getBalance() public view returns(int) {\r... */\n      swap1\n      jump\t// out\n        /* \"contracts/bank.sol\":66:177  function deposite_money(int amt) public returns(int) {\r... */\n    tag_10:\n        /* \"contracts/bank.sol\":114:117  int */\n      0x0\n        /* \"contracts/bank.sol\":135:138  amt */\n      dup2\n        /* \"contracts/bank.sol\":130:133  bal */\n      0x0\n      dup1\n        /* \"contracts/bank.sol\":130:138  bal+=amt */\n      dup3\n      dup3\n      sload\n      add\n      swap3\n      pop\n      pop\n      dup2\n      swap1\n      sstore\n      pop\n        /* \"contracts/bank.sol\":156:159  bal */\n      sload(0x0)\n        /* \"contracts/bank.sol\":149:159  return bal */\n      swap1\n      pop\n        /* \"contracts/bank.sol\":66:177  function deposite_money(int amt) public returns(int) {\r... */\n      swap2\n      swap1\n      pop\n      jump\t// out\n        /* \"contracts/bank.sol\":185:279  function withdraw(int amt) public returns(int){\r... */\n    tag_13:\n        /* \"contracts/bank.sol\":227:230  int */\n      0x0\n        /* \"contracts/bank.sol\":247:250  amt */\n      dup2\n        /* \"contracts/bank.sol\":242:245  bal */\n      0x0\n      dup1\n        /* \"contracts/bank.sol\":242:250  bal-=amt */\n      dup3\n      dup3\n      sload\n      sub\n      swap3\n      pop\n      pop\n      dup2\n      swap1\n      sstore\n      pop\n        /* \"contracts/bank.sol\":268:271  bal */\n      sload(0x0)\n        /* \"contracts/bank.sol\":261:271  return bal */\n      swap1\n      pop\n        /* \"contracts/bank.sol\":185:279  function withdraw(int amt) public returns(int){\r... */\n      swap2\n      swap1\n      pop\n      jump\t// out\n\n    auxdata: 0xa165627a7a72305820bf2bc518edf97f2600d2fd5aa0ae174d4ed8cfbaf80a4941c723753fb8f663d20029\n}\n",
				"bytecode": {
					"linkReferences": {},
					"object": "60806040526000805534801561001457600080fd5b50610174806100246000396000f300608060405260043610610057576000357c0100000000000000000000000000000000000000000000000000000000900463ffffffff16806312065fe01461005c5780635d5f704f146100875780637e62eab8146100c8575b600080fd5b34801561006857600080fd5b50610071610109565b6040518082815260200191505060405180910390f35b34801561009357600080fd5b506100b260048036038101908080359060200190929190505050610112565b6040518082815260200191505060405180910390f35b3480156100d457600080fd5b506100f36004803603810190808035906020019092919050505061012d565b6040518082815260200191505060405180910390f35b60008054905090565b60008160008082825401925050819055506000549050919050565b600081600080828254039250508190555060005490509190505600a165627a7a72305820bf2bc518edf97f2600d2fd5aa0ae174d4ed8cfbaf80a4941c723753fb8f663d20029",
					"opcodes": "PUSH1 0x80 PUSH1 0x40 MSTORE PUSH1 0x0 DUP1 SSTORE CALLVALUE DUP1 ISZERO PUSH2 0x14 JUMPI PUSH1 0x0 DUP1 REVERT JUMPDEST POP PUSH2 0x174 DUP1 PUSH2 0x24 PUSH1 0x0 CODECOPY PUSH1 0x0 RETURN STOP PUSH1 0x80 PUSH1 0x40 MSTORE PUSH1 0x4 CALLDATASIZE LT PUSH2 0x57 JUMPI PUSH1 0x0 CALLDATALOAD PUSH29 0x100000000000000000000000000000000000000000000000000000000 SWAP1 DIV PUSH4 0xFFFFFFFF AND DUP1 PUSH4 0x12065FE0 EQ PUSH2 0x5C JUMPI DUP1 PUSH4 0x5D5F704F EQ PUSH2 0x87 JUMPI DUP1 PUSH4 0x7E62EAB8 EQ PUSH2 0xC8 JUMPI JUMPDEST PUSH1 0x0 DUP1 REVERT JUMPDEST CALLVALUE DUP1 ISZERO PUSH2 0x68 JUMPI PUSH1 0x0 DUP1 REVERT JUMPDEST POP PUSH2 0x71 PUSH2 0x109 JUMP JUMPDEST PUSH1 0x40 MLOAD DUP1 DUP3 DUP2 MSTORE PUSH1 0x20 ADD SWAP2 POP POP PUSH1 0x40 MLOAD DUP1 SWAP2 SUB SWAP1 RETURN JUMPDEST CALLVALUE DUP1 ISZERO PUSH2 0x93 JUMPI PUSH1 0x0 DUP1 REVERT JUMPDEST POP PUSH2 0xB2 PUSH1 0x4 DUP1 CALLDATASIZE SUB DUP2 ADD SWAP1 DUP1 DUP1 CALLDATALOAD SWAP1 PUSH1 0x20 ADD SWAP1 SWAP3 SWAP2 SWAP1 POP POP POP PUSH2 0x112 JUMP JUMPDEST PUSH1 0x40 MLOAD DUP1 DUP3 DUP2 MSTORE PUSH1 0x20 ADD SWAP2 POP POP PUSH1 0x40 MLOAD DUP1 SWAP2 SUB SWAP1 RETURN JUMPDEST CALLVALUE DUP1 ISZERO PUSH2 0xD4 JUMPI PUSH1 0x0 DUP1 REVERT JUMPDEST POP PUSH2 0xF3 PUSH1 0x4 DUP1 CALLDATASIZE SUB DUP2 ADD SWAP1 DUP1 DUP1 CALLDATALOAD SWAP1 PUSH1 0x20 ADD SWAP1 SWAP3 SWAP2 SWAP1 POP POP POP PUSH2 0x12D JUMP JUMPDEST PUSH1 0x40 MLOAD DUP1 DUP3 DUP2 MSTORE PUSH1 0x20 ADD SWAP2 POP POP PUSH1 0x40 MLOAD DUP1 SWAP2 SUB SWAP1 RETURN JUMPDEST PUSH1 0x0 DUP1 SLOAD SWAP1 POP SWAP1 JUMP JUMPDEST PUSH1 0x0 DUP2 PUSH1 0x0 DUP1 DUP3 DUP3 SLOAD ADD SWAP3 POP POP DUP2 SWAP1 SSTORE POP PUSH1 0x0 SLOAD SWAP1 POP SWAP2 SWAP1 POP JUMP JUMPDEST PUSH1 0x0 DUP2 PUSH1 0x0 DUP1 DUP3 DUP3 SLOAD SUB SWAP3 POP POP DUP2 SWAP1 SSTORE POP PUSH1 0x0 SLOAD SWAP1 POP SWAP2 SWAP1 POP JUMP STOP LOG1 PUSH6 0x627A7A723058 KECCAK256 0xbf 0x2b 0xc5 XOR 0xed 0xf9 PUSH32 0x2600D2FD5AA0AE174D4ED8CFBAF80A4941C723753FB8F663D200290000000000 "
				},
				"gasEstimates": {
					"creation": {
						"codeDepositCost": "74400",
						"executionCost": "5129",
						"totalCost": "79529"
					},
					"external": {
						"deposite_money(int256)": "20718",
						"getBalance()": "402",
						"withdraw(int256)": "20740"
					}
				},
				"methodIdentifiers": {
					"deposite_money(int256)": "5d5f704f",
					"getBalance()": "12065fe0",
					"withdraw(int256)": "7e62eab8"
				}
			},
			"userdoc": {
				"methods": {}
			}
		}
	}
}