{
	"contracts/ddddd.sol": {
		"ddddd": {
			"abi": [
				{
					"constant": true,
					"inputs": [],
					"name": "getUsers",
					"outputs": [
						{
							"name": "",
							"type": "address[]"
						}
					],
					"payable": false,
					"stateMutability": "view",
					"type": "function"
				},
				{
					"constant": true,
					"inputs": [],
					"name": "getUserPermissionCounter",
					"outputs": [
						{
							"name": "",
							"type": "uint256"
						}
					],
					"payable": false,
					"stateMutability": "view",
					"type": "function"
				},
				{
					"constant": true,
					"inputs": [
						{
							"name": "_address",
							"type": "address"
						}
					],
					"name": "searchUserformation",
					"outputs": [
						{
							"name": "",
							"type": "string"
						},
						{
							"name": "",
							"type": "string"
						},
						{
							"name": "",
							"type": "string"
						},
						{
							"name": "",
							"type": "string"
						},
						{
							"name": "",
							"type": "string"
						},
						{
							"name": "",
							"type": "string"
						},
						{
							"name": "",
							"type": "address"
						}
					],
					"payable": false,
					"stateMutability": "view",
					"type": "function"
				},
				{
					"constant": true,
					"inputs": [],
					"name": "userCount",
					"outputs": [
						{
							"name": "",
							"type": "uint256"
						}
					],
					"payable": false,
					"stateMutability": "view",
					"type": "function"
				},
				{
					"constant": true,
					"inputs": [
						{
							"name": "",
							"type": "uint256"
						}
					],
					"name": "doctorList",
					"outputs": [
						{
							"name": "",
							"type": "address"
						}
					],
					"payable": false,
					"stateMutability": "view",
					"type": "function"
				},
				{
					"constant": false,
					"inputs": [
						{
							"name": "_doctor",
							"type": "address"
						},
						{
							"name": "_uaeId",
							"type": "string"
						},
						{
							"name": "_name",
							"type": "string"
						},
						{
							"name": "_phone",
							"type": "string"
						},
						{
							"name": "_gender",
							"type": "string"
						},
						{
							"name": "_dob",
							"type": "string"
						},
						{
							"name": "_qualification",
							"type": "string"
						},
						{
							"name": "_major",
							"type": "string"
						}
					],
					"name": "editDoctor",
					"outputs": [],
					"payable": false,
					"stateMutability": "nonpayable",
					"type": "function"
				},
				{
					"constant": false,
					"inputs": [
						{
							"name": "_doctor",
							"type": "address"
						},
						{
							"name": "_uaeId",
							"type": "string"
						},
						{
							"name": "_name",
							"type": "string"
						},
						{
							"name": "_phone",
							"type": "string"
						},
						{
							"name": "_gender",
							"type": "string"
						},
						{
							"name": "_dob",
							"type": "string"
						},
						{
							"name": "_qualification",
							"type": "string"
						},
						{
							"name": "_major",
							"type": "string"
						}
					],
					"name": "doctorRegistration",
					"outputs": [],
					"payable": false,
					"stateMutability": "nonpayable",
					"type": "function"
				},
				{
					"constant": false,
					"inputs": [
						{
							"name": "_address",
							"type": "address"
						}
					],
					"name": "givePermissionByUser",
					"outputs": [
						{
							"name": "success",
							"type": "bool"
						}
					],
					"payable": false,
					"stateMutability": "nonpayable",
					"type": "function"
				},
				{
					"constant": false,
					"inputs": [
						{
							"name": "_address",
							"type": "address"
						}
					],
					"name": "userRevokePermission",
					"outputs": [
						{
							"name": "success",
							"type": "bool"
						}
					],
					"payable": false,
					"stateMutability": "nonpayable",
					"type": "function"
				},
				{
					"constant": false,
					"inputs": [
						{
							"name": "_user",
							"type": "address"
						},
						{
							"name": "_uaeId",
							"type": "string"
						},
						{
							"name": "_name",
							"type": "string"
						},
						{
							"name": "_phone",
							"type": "string"
						},
						{
							"name": "_gender",
							"type": "string"
						},
						{
							"name": "_dob",
							"type": "string"
						},
						{
							"name": "_addr",
							"type": "string"
						},
						{
							"name": "_email",
							"type": "string"
						},
						{
							"name": "_nomineeName",
							"type": "string"
						},
						{
							"name": "_nomineeContact",
							"type": "string"
						}
					],
					"name": "userRegistration",
					"outputs": [],
					"payable": false,
					"stateMutability": "nonpayable",
					"type": "function"
				},
				{
					"constant": false,
					"inputs": [
						{
							"name": "_user",
							"type": "address"
						},
						{
							"name": "_uaeId",
							"type": "string"
						},
						{
							"name": "_name",
							"type": "string"
						},
						{
							"name": "_phone",
							"type": "string"
						},
						{
							"name": "_gender",
							"type": "string"
						},
						{
							"name": "_dob",
							"type": "string"
						},
						{
							"name": "_addr",
							"type": "string"
						},
						{
							"name": "_email",
							"type": "string"
						},
						{
							"name": "_nomineeName",
							"type": "string"
						},
						{
							"name": "_nomineeContact",
							"type": "string"
						}
					],
					"name": "editUser",
					"outputs": [],
					"payable": false,
					"stateMutability": "nonpayable",
					"type": "function"
				},
				{
					"constant": true,
					"inputs": [],
					"name": "doctorCount",
					"outputs": [
						{
							"name": "",
							"type": "uint256"
						}
					],
					"payable": false,
					"stateMutability": "view",
					"type": "function"
				},
				{
					"constant": true,
					"inputs": [],
					"name": "getDoctorCount",
					"outputs": [
						{
							"name": "",
							"type": "uint256"
						}
					],
					"payable": false,
					"stateMutability": "view",
					"type": "function"
				},
				{
					"constant": true,
					"inputs": [],
					"name": "owner",
					"outputs": [
						{
							"name": "",
							"type": "address"
						}
					],
					"payable": false,
					"stateMutability": "view",
					"type": "function"
				},
				{
					"constant": false,
					"inputs": [],
					"name": "ownerAddress",
					"outputs": [],
					"payable": false,
					"stateMutability": "nonpayable",
					"type": "function"
				},
				{
					"constant": true,
					"inputs": [],
					"name": "MoHPermissionCounter",
					"outputs": [
						{
							"name": "",
							"type": "uint256"
						}
					],
					"payable": false,
					"stateMutability": "view",
					"type": "function"
				},
				{
					"constant": true,
					"inputs": [
						{
							"name": "",
							"type": "uint256"
						}
					],
					"name": "userList",
					"outputs": [
						{
							"name": "",
							"type": "address"
						}
					],
					"payable": false,
					"stateMutability": "view",
					"type": "function"
				},
				{
					"constant": true,
					"inputs": [],
					"name": "getDoctors",
					"outputs": [
						{
							"name": "",
							"type": "address[]"
						}
					],
					"payable": false,
					"stateMutability": "view",
					"type": "function"
				},
				{
					"constant": true,
					"inputs": [],
					"name": "getUserCount",
					"outputs": [
						{
							"name": "",
							"type": "uint256"
						}
					],
					"payable": false,
					"stateMutability": "view",
					"type": "function"
				},
				{
					"constant": true,
					"inputs": [],
					"name": "mohAdress",
					"outputs": [
						{
							"name": "",
							"type": "address"
						}
					],
					"payable": false,
					"stateMutability": "view",
					"type": "function"
				},
				{
					"constant": false,
					"inputs": [
						{
							"name": "_address1",
							"type": "address"
						},
						{
							"name": "_address2",
							"type": "address"
						}
					],
					"name": "MoHRevokePermission",
					"outputs": [
						{
							"name": "success",
							"type": "bool"
						}
					],
					"payable": false,
					"stateMutability": "nonpayable",
					"type": "function"
				},
				{
					"constant": true,
					"inputs": [],
					"name": "userPermissionCounter",
					"outputs": [
						{
							"name": "",
							"type": "uint256"
						}
					],
					"payable": false,
					"stateMutability": "view",
					"type": "function"
				},
				{
					"constant": true,
					"inputs": [
						{
							"name": "_address",
							"type": "address"
						}
					],
					"name": "searchDoctor",
					"outputs": [
						{
							"name": "",
							"type": "string"
						},
						{
							"name": "",
							"type": "string"
						},
						{
							"name": "",
							"type": "string"
						},
						{
							"name": "",
							"type": "string"
						},
						{
							"name": "",
							"type": "string"
						},
						{
							"name": "",
							"type": "string"
						},
						{
							"name": "",
							"type": "string"
						}
					],
					"payable": false,
					"stateMutability": "view",
					"type": "function"
				},
				{
					"constant": false,
					"inputs": [
						{
							"name": "_address1",
							"type": "address"
						},
						{
							"name": "_address2",
							"type": "address"
						}
					],
					"name": "givePermissionByMoH",
					"outputs": [
						{
							"name": "success",
							"type": "bool"
						}
					],
					"payable": false,
					"stateMutability": "nonpayable",
					"type": "function"
				},
				{
					"constant": true,
					"inputs": [],
					"name": "getMoHPermissionCounter",
					"outputs": [
						{
							"name": "",
							"type": "uint256"
						}
					],
					"payable": false,
					"stateMutability": "view",
					"type": "function"
				}
			],
			"devdoc": {
				"methods": {}
			},
			"evm": {
				"assembly": "    /* \"contracts/ddddd.sol\":67:6892  contract ddddd {\r... */\n  mstore(0x40, 0x80)\n    /* \"contracts/ddddd.sol\":1064:1065  0 */\n  0x0\n    /* \"contracts/ddddd.sol\":1037:1065  uint256 public userCount = 0 */\n  0x8\n  sstore\n    /* \"contracts/ddddd.sol\":1101:1102  0 */\n  0x0\n    /* \"contracts/ddddd.sol\":1072:1102  uint256 public doctorCount = 0 */\n  0x9\n  sstore\n    /* \"contracts/ddddd.sol\":1147:1148  0 */\n  0x0\n    /* \"contracts/ddddd.sol\":1109:1148  uint256 public MoHPermissionCounter = 0 */\n  0xa\n  sstore\n    /* \"contracts/ddddd.sol\":1194:1195  0 */\n  0x0\n    /* \"contracts/ddddd.sol\":1155:1195  uint256 public userPermissionCounter = 0 */\n  0xb\n  sstore\n    /* \"contracts/ddddd.sol\":1231:1273  0xc50C6297f56b033633C30354A854b074749cd2dC */\n  0xc50c6297f56b033633c30354a854b074749cd2dc\n    /* \"contracts/ddddd.sol\":1204:1273  address public mohAdress = 0xc50C6297f56b033633C30354A854b074749cd2dC */\n  0xc\n  exp(0x100, 0x0)\n  dup2\n  sload\n  dup2\n  0xffffffffffffffffffffffffffffffffffffffff\n  mul\n  not\n  and\n  swap1\n  dup4\n  0xffffffffffffffffffffffffffffffffffffffff\n  and\n  mul\n  or\n  swap1\n  sstore\n  pop\n    /* \"contracts/ddddd.sol\":67:6892  contract ddddd {\r... */\n  callvalue\n    /* \"--CODEGEN--\":8:17   */\n  dup1\n    /* \"--CODEGEN--\":5:7   */\n  iszero\n  tag_1\n  jumpi\n    /* \"--CODEGEN--\":30:31   */\n  0x0\n    /* \"--CODEGEN--\":27:28   */\n  dup1\n    /* \"--CODEGEN--\":20:32   */\n  revert\n    /* \"--CODEGEN--\":5:7   */\ntag_1:\n    /* \"contracts/ddddd.sol\":67:6892  contract ddddd {\r... */\n  pop\n  dataSize(sub_0)\n  dup1\n  dataOffset(sub_0)\n  0x0\n  codecopy\n  0x0\n  return\nstop\n\nsub_0: assembly {\n        /* \"contracts/ddddd.sol\":67:6892  contract ddddd {\r... */\n      mstore(0x40, 0x80)\n      jumpi(tag_1, lt(calldatasize, 0x4))\n      calldataload(0x0)\n      0x100000000000000000000000000000000000000000000000000000000\n      swap1\n      div\n      0xffffffff\n      and\n      dup1\n      0xce8e3e\n      eq\n      tag_2\n      jumpi\n      dup1\n      0x24decc5\n      eq\n      tag_3\n      jumpi\n      dup1\n      0x76fd2f8\n      eq\n      tag_4\n      jumpi\n      dup1\n      0x7973ccf\n      eq\n      tag_5\n      jumpi\n      dup1\n      0x127ca4b4\n      eq\n      tag_6\n      jumpi\n      dup1\n      0x16e0a611\n      eq\n      tag_7\n      jumpi\n      dup1\n      0x17e51111\n      eq\n      tag_8\n      jumpi\n      dup1\n      0x294a4540\n      eq\n      tag_9\n      jumpi\n      dup1\n      0x5fc8e8c6\n      eq\n      tag_10\n      jumpi\n      dup1\n      0x6cdb2278\n      eq\n      tag_11\n      jumpi\n      dup1\n      0x779a9576\n      eq\n      tag_12\n      jumpi\n      dup1\n      0x78522bc4\n      eq\n      tag_13\n      jumpi\n      dup1\n      0x79111c1c\n      eq\n      tag_14\n      jumpi\n      dup1\n      0x8da5cb5b\n      eq\n      tag_15\n      jumpi\n      dup1\n      0x8f84aa09\n      eq\n      tag_16\n      jumpi\n      dup1\n      0x99d698c5\n      eq\n      tag_17\n      jumpi\n      dup1\n      0x9f4216e8\n      eq\n      tag_18\n      jumpi\n      dup1\n      0xb13d5d94\n      eq\n      tag_19\n      jumpi\n      dup1\n      0xb5cb15f7\n      eq\n      tag_20\n      jumpi\n      dup1\n      0xb744ff4d\n      eq\n      tag_21\n      jumpi\n      dup1\n      0xc3bf7bf0\n      eq\n      tag_22\n      jumpi\n      dup1\n      0xc543a718\n      eq\n      tag_23\n      jumpi\n      dup1\n      0xcaee6c85\n      eq\n      tag_24\n      jumpi\n      dup1\n      0xd118404b\n      eq\n      tag_25\n      jumpi\n      dup1\n      0xe0df0ac6\n      eq\n      tag_26\n      jumpi\n    tag_1:\n      0x0\n      dup1\n      revert\n        /* \"contracts/ddddd.sol\":5271:5356  function getUsers() public view returns(address[]) {\r... */\n    tag_2:\n      callvalue\n        /* \"--CODEGEN--\":8:17   */\n      dup1\n        /* \"--CODEGEN--\":5:7   */\n      iszero\n      tag_27\n      jumpi\n        /* \"--CODEGEN--\":30:31   */\n      0x0\n        /* \"--CODEGEN--\":27:28   */\n      dup1\n        /* \"--CODEGEN--\":20:32   */\n      revert\n        /* \"--CODEGEN--\":5:7   */\n    tag_27:\n        /* \"contracts/ddddd.sol\":5271:5356  function getUsers() public view returns(address[]) {\r... */\n      pop\n      tag_28\n      jump(tag_29)\n    tag_28:\n      mload(0x40)\n      tag_30\n      swap2\n      swap1\n      jump(tag_31)\n    tag_30:\n      mload(0x40)\n      dup1\n      swap2\n      sub\n      swap1\n      return\n        /* \"contracts/ddddd.sol\":6657:6769  function getUserPermissionCounter() public view returns(uint256) {\r... */\n    tag_3:\n      callvalue\n        /* \"--CODEGEN--\":8:17   */\n      dup1\n        /* \"--CODEGEN--\":5:7   */\n      iszero\n      tag_32\n      jumpi\n        /* \"--CODEGEN--\":30:31   */\n      0x0\n        /* \"--CODEGEN--\":27:28   */\n      dup1\n        /* \"--CODEGEN--\":20:32   */\n      revert\n        /* \"--CODEGEN--\":5:7   */\n    tag_32:\n        /* \"contracts/ddddd.sol\":6657:6769  function getUserPermissionCounter() public view returns(uint256) {\r... */\n      pop\n      tag_33\n      jump(tag_34)\n    tag_33:\n      mload(0x40)\n      tag_35\n      swap2\n      swap1\n      jump(tag_36)\n    tag_35:\n      mload(0x40)\n      dup1\n      swap2\n      sub\n      swap1\n      return\n        /* \"contracts/ddddd.sol\":5467:5824  function searchUserformation(address _address) public view returns(string, string, string, string, string, string, address) {\r... */\n    tag_4:\n      callvalue\n        /* \"--CODEGEN--\":8:17   */\n      dup1\n        /* \"--CODEGEN--\":5:7   */\n      iszero\n      tag_37\n      jumpi\n        /* \"--CODEGEN--\":30:31   */\n      0x0\n        /* \"--CODEGEN--\":27:28   */\n      dup1\n        /* \"--CODEGEN--\":20:32   */\n      revert\n        /* \"--CODEGEN--\":5:7   */\n    tag_37:\n        /* \"contracts/ddddd.sol\":5467:5824  function searchUserformation(address _address) public view returns(string, string, string, string, string, string, address) {\r... */\n      pop\n      tag_38\n      0x4\n      dup1\n      calldatasize\n      sub\n      tag_39\n      swap2\n      swap1\n      dup2\n      add\n      swap1\n      jump(tag_40)\n    tag_39:\n      jump(tag_41)\n    tag_38:\n      mload(0x40)\n      tag_42\n      swap8\n      swap7\n      swap6\n      swap5\n      swap4\n      swap3\n      swap2\n      swap1\n      jump(tag_43)\n    tag_42:\n      mload(0x40)\n      dup1\n      swap2\n      sub\n      swap1\n      return\n        /* \"contracts/ddddd.sol\":1037:1065  uint256 public userCount = 0 */\n    tag_5:\n      callvalue\n        /* \"--CODEGEN--\":8:17   */\n      dup1\n        /* \"--CODEGEN--\":5:7   */\n      iszero\n      tag_44\n      jumpi\n        /* \"--CODEGEN--\":30:31   */\n      0x0\n        /* \"--CODEGEN--\":27:28   */\n      dup1\n        /* \"--CODEGEN--\":20:32   */\n      revert\n        /* \"--CODEGEN--\":5:7   */\n    tag_44:\n        /* \"contracts/ddddd.sol\":1037:1065  uint256 public userCount = 0 */\n      pop\n      tag_45\n      jump(tag_46)\n    tag_45:\n      mload(0x40)\n      tag_47\n      swap2\n      swap1\n      jump(tag_36)\n    tag_47:\n      mload(0x40)\n      dup1\n      swap2\n      sub\n      swap1\n      return\n        /* \"contracts/ddddd.sol\":748:775  address[] public doctorList */\n    tag_6:\n      callvalue\n        /* \"--CODEGEN--\":8:17   */\n      dup1\n        /* \"--CODEGEN--\":5:7   */\n      iszero\n      tag_48\n      jumpi\n        /* \"--CODEGEN--\":30:31   */\n      0x0\n        /* \"--CODEGEN--\":27:28   */\n      dup1\n        /* \"--CODEGEN--\":20:32   */\n      revert\n        /* \"--CODEGEN--\":5:7   */\n    tag_48:\n        /* \"contracts/ddddd.sol\":748:775  address[] public doctorList */\n      pop\n      tag_49\n      0x4\n      dup1\n      calldatasize\n      sub\n      tag_50\n      swap2\n      swap1\n      dup2\n      add\n      swap1\n      jump(tag_51)\n    tag_50:\n      jump(tag_52)\n    tag_49:\n      mload(0x40)\n      tag_53\n      swap2\n      swap1\n      jump(tag_54)\n    tag_53:\n      mload(0x40)\n      dup1\n      swap2\n      sub\n      swap1\n      return\n        /* \"contracts/ddddd.sol\":3885:4404  function editDoctor(address _doctor, string _uaeId, string _name, string _phone, string _gender, string _dob, string _qualification, string _major) public {\r... */\n    tag_7:\n      callvalue\n        /* \"--CODEGEN--\":8:17   */\n      dup1\n        /* \"--CODEGEN--\":5:7   */\n      iszero\n      tag_55\n      jumpi\n        /* \"--CODEGEN--\":30:31   */\n      0x0\n        /* \"--CODEGEN--\":27:28   */\n      dup1\n        /* \"--CODEGEN--\":20:32   */\n      revert\n        /* \"--CODEGEN--\":5:7   */\n    tag_55:\n        /* \"contracts/ddddd.sol\":3885:4404  function editDoctor(address _doctor, string _uaeId, string _name, string _phone, string _gender, string _dob, string _qualification, string _major) public {\r... */\n      pop\n      tag_56\n      0x4\n      dup1\n      calldatasize\n      sub\n      tag_57\n      swap2\n      swap1\n      dup2\n      add\n      swap1\n      jump(tag_58)\n    tag_57:\n      jump(tag_59)\n    tag_56:\n      stop\n        /* \"contracts/ddddd.sol\":3116:3877  function doctorRegistration(address _doctor, string _uaeId, string _name, string _phone, string _gender, string _dob, string _qualification, string _major) public {\r... */\n    tag_8:\n      callvalue\n        /* \"--CODEGEN--\":8:17   */\n      dup1\n        /* \"--CODEGEN--\":5:7   */\n      iszero\n      tag_60\n      jumpi\n        /* \"--CODEGEN--\":30:31   */\n      0x0\n        /* \"--CODEGEN--\":27:28   */\n      dup1\n        /* \"--CODEGEN--\":20:32   */\n      revert\n        /* \"--CODEGEN--\":5:7   */\n    tag_60:\n        /* \"contracts/ddddd.sol\":3116:3877  function doctorRegistration(address _doctor, string _uaeId, string _name, string _phone, string _gender, string _dob, string _qualification, string _major) public {\r... */\n      pop\n      tag_61\n      0x4\n      dup1\n      calldatasize\n      sub\n      tag_62\n      swap2\n      swap1\n      dup2\n      add\n      swap1\n      jump(tag_58)\n    tag_62:\n      jump(tag_63)\n    tag_61:\n      stop\n        /* \"contracts/ddddd.sol\":4414:4605  function givePermissionByUser(address _address) public returns(bool success) {\r... */\n    tag_9:\n      callvalue\n        /* \"--CODEGEN--\":8:17   */\n      dup1\n        /* \"--CODEGEN--\":5:7   */\n      iszero\n      tag_64\n      jumpi\n        /* \"--CODEGEN--\":30:31   */\n      0x0\n        /* \"--CODEGEN--\":27:28   */\n      dup1\n        /* \"--CODEGEN--\":20:32   */\n      revert\n        /* \"--CODEGEN--\":5:7   */\n    tag_64:\n        /* \"contracts/ddddd.sol\":4414:4605  function givePermissionByUser(address _address) public returns(bool success) {\r... */\n      pop\n      tag_65\n      0x4\n      dup1\n      calldatasize\n      sub\n      tag_66\n      swap2\n      swap1\n      dup2\n      add\n      swap1\n      jump(tag_40)\n    tag_66:\n      jump(tag_67)\n    tag_65:\n      mload(0x40)\n      tag_68\n      swap2\n      swap1\n      jump(tag_69)\n    tag_68:\n      mload(0x40)\n      dup1\n      swap2\n      sub\n      swap1\n      return\n        /* \"contracts/ddddd.sol\":4875:5033  function userRevokePermission(address _address) public returns(bool success) {\r... */\n    tag_10:\n      callvalue\n        /* \"--CODEGEN--\":8:17   */\n      dup1\n        /* \"--CODEGEN--\":5:7   */\n      iszero\n      tag_70\n      jumpi\n        /* \"--CODEGEN--\":30:31   */\n      0x0\n        /* \"--CODEGEN--\":27:28   */\n      dup1\n        /* \"--CODEGEN--\":20:32   */\n      revert\n        /* \"--CODEGEN--\":5:7   */\n    tag_70:\n        /* \"contracts/ddddd.sol\":4875:5033  function userRevokePermission(address _address) public returns(bool success) {\r... */\n      pop\n      tag_71\n      0x4\n      dup1\n      calldatasize\n      sub\n      tag_72\n      swap2\n      swap1\n      dup2\n      add\n      swap1\n      jump(tag_40)\n    tag_72:\n      jump(tag_73)\n    tag_71:\n      mload(0x40)\n      tag_74\n      swap2\n      swap1\n      jump(tag_69)\n    tag_74:\n      mload(0x40)\n      dup1\n      swap2\n      sub\n      swap1\n      return\n        /* \"contracts/ddddd.sol\":1366:2475  function userRegistration(address _user, string _uaeId, string _name, string _phone, string _gender, string _dob, string _addr, string _email, string _nomineeName, string _nomineeContact) public {\r... */\n    tag_11:\n      callvalue\n        /* \"--CODEGEN--\":8:17   */\n      dup1\n        /* \"--CODEGEN--\":5:7   */\n      iszero\n      tag_75\n      jumpi\n        /* \"--CODEGEN--\":30:31   */\n      0x0\n        /* \"--CODEGEN--\":27:28   */\n      dup1\n        /* \"--CODEGEN--\":20:32   */\n      revert\n        /* \"--CODEGEN--\":5:7   */\n    tag_75:\n        /* \"contracts/ddddd.sol\":1366:2475  function userRegistration(address _user, string _uaeId, string _name, string _phone, string _gender, string _dob, string _addr, string _email, string _nomineeName, string _nomineeContact) public {\r... */\n      pop\n      tag_76\n      0x4\n      dup1\n      calldatasize\n      sub\n      tag_77\n      swap2\n      swap1\n      dup2\n      add\n      swap1\n      jump(tag_78)\n    tag_77:\n      jump(tag_79)\n    tag_76:\n      stop\n        /* \"contracts/ddddd.sol\":2499:3108  function editUser(address _user, string _uaeId, string _name, string _phone, string _gender, string _dob, string _addr, string _email, string _nomineeName, string _nomineeContact) public {\r... */\n    tag_12:\n      callvalue\n        /* \"--CODEGEN--\":8:17   */\n      dup1\n        /* \"--CODEGEN--\":5:7   */\n      iszero\n      tag_80\n      jumpi\n        /* \"--CODEGEN--\":30:31   */\n      0x0\n        /* \"--CODEGEN--\":27:28   */\n      dup1\n        /* \"--CODEGEN--\":20:32   */\n      revert\n        /* \"--CODEGEN--\":5:7   */\n    tag_80:\n        /* \"contracts/ddddd.sol\":2499:3108  function editUser(address _user, string _uaeId, string _name, string _phone, string _gender, string _dob, string _addr, string _email, string _nomineeName, string _nomineeContact) public {\r... */\n      pop\n      tag_81\n      0x4\n      dup1\n      calldatasize\n      sub\n      tag_82\n      swap2\n      swap1\n      dup2\n      add\n      swap1\n      jump(tag_78)\n    tag_82:\n      jump(tag_83)\n    tag_81:\n      stop\n        /* \"contracts/ddddd.sol\":1072:1102  uint256 public doctorCount = 0 */\n    tag_13:\n      callvalue\n        /* \"--CODEGEN--\":8:17   */\n      dup1\n        /* \"--CODEGEN--\":5:7   */\n      iszero\n      tag_84\n      jumpi\n        /* \"--CODEGEN--\":30:31   */\n      0x0\n        /* \"--CODEGEN--\":27:28   */\n      dup1\n        /* \"--CODEGEN--\":20:32   */\n      revert\n        /* \"--CODEGEN--\":5:7   */\n    tag_84:\n        /* \"contracts/ddddd.sol\":1072:1102  uint256 public doctorCount = 0 */\n      pop\n      tag_85\n      jump(tag_86)\n    tag_85:\n      mload(0x40)\n      tag_87\n      swap2\n      swap1\n      jump(tag_36)\n    tag_87:\n      mload(0x40)\n      dup1\n      swap2\n      sub\n      swap1\n      return\n        /* \"contracts/ddddd.sol\":6551:6643  function getDoctorCount() public view returns(uint256) {\r... */\n    tag_14:\n      callvalue\n        /* \"--CODEGEN--\":8:17   */\n      dup1\n        /* \"--CODEGEN--\":5:7   */\n      iszero\n      tag_88\n      jumpi\n        /* \"--CODEGEN--\":30:31   */\n      0x0\n        /* \"--CODEGEN--\":27:28   */\n      dup1\n        /* \"--CODEGEN--\":20:32   */\n      revert\n        /* \"--CODEGEN--\":5:7   */\n    tag_88:\n        /* \"contracts/ddddd.sol\":6551:6643  function getDoctorCount() public view returns(uint256) {\r... */\n      pop\n      tag_89\n      jump(tag_90)\n    tag_89:\n      mload(0x40)\n      tag_91\n      swap2\n      swap1\n      jump(tag_36)\n    tag_91:\n      mload(0x40)\n      dup1\n      swap2\n      sub\n      swap1\n      return\n        /* \"contracts/ddddd.sol\":689:709  address public owner */\n    tag_15:\n      callvalue\n        /* \"--CODEGEN--\":8:17   */\n      dup1\n        /* \"--CODEGEN--\":5:7   */\n      iszero\n      tag_92\n      jumpi\n        /* \"--CODEGEN--\":30:31   */\n      0x0\n        /* \"--CODEGEN--\":27:28   */\n      dup1\n        /* \"--CODEGEN--\":20:32   */\n      revert\n        /* \"--CODEGEN--\":5:7   */\n    tag_92:\n        /* \"contracts/ddddd.sol\":689:709  address public owner */\n      pop\n      tag_93\n      jump(tag_94)\n    tag_93:\n      mload(0x40)\n      tag_95\n      swap2\n      swap1\n      jump(tag_54)\n    tag_95:\n      mload(0x40)\n      dup1\n      swap2\n      sub\n      swap1\n      return\n        /* \"contracts/ddddd.sol\":1286:1354  function ownerAddress() public {\r... */\n    tag_16:\n      callvalue\n        /* \"--CODEGEN--\":8:17   */\n      dup1\n        /* \"--CODEGEN--\":5:7   */\n      iszero\n      tag_96\n      jumpi\n        /* \"--CODEGEN--\":30:31   */\n      0x0\n        /* \"--CODEGEN--\":27:28   */\n      dup1\n        /* \"--CODEGEN--\":20:32   */\n      revert\n        /* \"--CODEGEN--\":5:7   */\n    tag_96:\n        /* \"contracts/ddddd.sol\":1286:1354  function ownerAddress() public {\r... */\n      pop\n      tag_97\n      jump(tag_98)\n    tag_97:\n      stop\n        /* \"contracts/ddddd.sol\":1109:1148  uint256 public MoHPermissionCounter = 0 */\n    tag_17:\n      callvalue\n        /* \"--CODEGEN--\":8:17   */\n      dup1\n        /* \"--CODEGEN--\":5:7   */\n      iszero\n      tag_99\n      jumpi\n        /* \"--CODEGEN--\":30:31   */\n      0x0\n        /* \"--CODEGEN--\":27:28   */\n      dup1\n        /* \"--CODEGEN--\":20:32   */\n      revert\n        /* \"--CODEGEN--\":5:7   */\n    tag_99:\n        /* \"contracts/ddddd.sol\":1109:1148  uint256 public MoHPermissionCounter = 0 */\n      pop\n      tag_100\n      jump(tag_101)\n    tag_100:\n      mload(0x40)\n      tag_102\n      swap2\n      swap1\n      jump(tag_36)\n    tag_102:\n      mload(0x40)\n      dup1\n      swap2\n      sub\n      swap1\n      return\n        /* \"contracts/ddddd.sol\":716:741  address[] public userList */\n    tag_18:\n      callvalue\n        /* \"--CODEGEN--\":8:17   */\n      dup1\n        /* \"--CODEGEN--\":5:7   */\n      iszero\n      tag_103\n      jumpi\n        /* \"--CODEGEN--\":30:31   */\n      0x0\n        /* \"--CODEGEN--\":27:28   */\n      dup1\n        /* \"--CODEGEN--\":20:32   */\n      revert\n        /* \"--CODEGEN--\":5:7   */\n    tag_103:\n        /* \"contracts/ddddd.sol\":716:741  address[] public userList */\n      pop\n      tag_104\n      0x4\n      dup1\n      calldatasize\n      sub\n      tag_105\n      swap2\n      swap1\n      dup2\n      add\n      swap1\n      jump(tag_51)\n    tag_105:\n      jump(tag_106)\n    tag_104:\n      mload(0x40)\n      tag_107\n      swap2\n      swap1\n      jump(tag_54)\n    tag_107:\n      mload(0x40)\n      dup1\n      swap2\n      sub\n      swap1\n      return\n        /* \"contracts/ddddd.sol\":5366:5455  function getDoctors() public view returns(address[]) {\r... */\n    tag_19:\n      callvalue\n        /* \"--CODEGEN--\":8:17   */\n      dup1\n        /* \"--CODEGEN--\":5:7   */\n      iszero\n      tag_108\n      jumpi\n        /* \"--CODEGEN--\":30:31   */\n      0x0\n        /* \"--CODEGEN--\":27:28   */\n      dup1\n        /* \"--CODEGEN--\":20:32   */\n      revert\n        /* \"--CODEGEN--\":5:7   */\n    tag_108:\n        /* \"contracts/ddddd.sol\":5366:5455  function getDoctors() public view returns(address[]) {\r... */\n      pop\n      tag_109\n      jump(tag_110)\n    tag_109:\n      mload(0x40)\n      tag_111\n      swap2\n      swap1\n      jump(tag_31)\n    tag_111:\n      mload(0x40)\n      dup1\n      swap2\n      sub\n      swap1\n      return\n        /* \"contracts/ddddd.sol\":6455:6543  function getUserCount() public view returns(uint256) {\r... */\n    tag_20:\n      callvalue\n        /* \"--CODEGEN--\":8:17   */\n      dup1\n        /* \"--CODEGEN--\":5:7   */\n      iszero\n      tag_112\n      jumpi\n        /* \"--CODEGEN--\":30:31   */\n      0x0\n        /* \"--CODEGEN--\":27:28   */\n      dup1\n        /* \"--CODEGEN--\":20:32   */\n      revert\n        /* \"--CODEGEN--\":5:7   */\n    tag_112:\n        /* \"contracts/ddddd.sol\":6455:6543  function getUserCount() public view returns(uint256) {\r... */\n      pop\n      tag_113\n      jump(tag_114)\n    tag_113:\n      mload(0x40)\n      tag_115\n      swap2\n      swap1\n      jump(tag_36)\n    tag_115:\n      mload(0x40)\n      dup1\n      swap2\n      sub\n      swap1\n      return\n        /* \"contracts/ddddd.sol\":1204:1273  address public mohAdress = 0xc50C6297f56b033633C30354A854b074749cd2dC */\n    tag_21:\n      callvalue\n        /* \"--CODEGEN--\":8:17   */\n      dup1\n        /* \"--CODEGEN--\":5:7   */\n      iszero\n      tag_116\n      jumpi\n        /* \"--CODEGEN--\":30:31   */\n      0x0\n        /* \"--CODEGEN--\":27:28   */\n      dup1\n        /* \"--CODEGEN--\":20:32   */\n      revert\n        /* \"--CODEGEN--\":5:7   */\n    tag_116:\n        /* \"contracts/ddddd.sol\":1204:1273  address public mohAdress = 0xc50C6297f56b033633C30354A854b074749cd2dC */\n      pop\n      tag_117\n      jump(tag_118)\n    tag_117:\n      mload(0x40)\n      tag_119\n      swap2\n      swap1\n      jump(tag_54)\n    tag_119:\n      mload(0x40)\n      dup1\n      swap2\n      sub\n      swap1\n      return\n        /* \"contracts/ddddd.sol\":5041:5261  function MoHRevokePermission(address _address1, address _address2) public returns(bool success) {\r... */\n    tag_22:\n      callvalue\n        /* \"--CODEGEN--\":8:17   */\n      dup1\n        /* \"--CODEGEN--\":5:7   */\n      iszero\n      tag_120\n      jumpi\n        /* \"--CODEGEN--\":30:31   */\n      0x0\n        /* \"--CODEGEN--\":27:28   */\n      dup1\n        /* \"--CODEGEN--\":20:32   */\n      revert\n        /* \"--CODEGEN--\":5:7   */\n    tag_120:\n        /* \"contracts/ddddd.sol\":5041:5261  function MoHRevokePermission(address _address1, address _address2) public returns(bool success) {\r... */\n      pop\n      tag_121\n      0x4\n      dup1\n      calldatasize\n      sub\n      tag_122\n      swap2\n      swap1\n      dup2\n      add\n      swap1\n      jump(tag_123)\n    tag_122:\n      jump(tag_124)\n    tag_121:\n      mload(0x40)\n      tag_125\n      swap2\n      swap1\n      jump(tag_69)\n    tag_125:\n      mload(0x40)\n      dup1\n      swap2\n      sub\n      swap1\n      return\n        /* \"contracts/ddddd.sol\":1155:1195  uint256 public userPermissionCounter = 0 */\n    tag_23:\n      callvalue\n        /* \"--CODEGEN--\":8:17   */\n      dup1\n        /* \"--CODEGEN--\":5:7   */\n      iszero\n      tag_126\n      jumpi\n        /* \"--CODEGEN--\":30:31   */\n      0x0\n        /* \"--CODEGEN--\":27:28   */\n      dup1\n        /* \"--CODEGEN--\":20:32   */\n      revert\n        /* \"--CODEGEN--\":5:7   */\n    tag_126:\n        /* \"contracts/ddddd.sol\":1155:1195  uint256 public userPermissionCounter = 0 */\n      pop\n      tag_127\n      jump(tag_128)\n    tag_127:\n      mload(0x40)\n      tag_129\n      swap2\n      swap1\n      jump(tag_36)\n    tag_129:\n      mload(0x40)\n      dup1\n      swap2\n      sub\n      swap1\n      return\n        /* \"contracts/ddddd.sol\":6145:6439  function searchDoctor(address _address) public view returns(string, string, string, string, string, string, string) {\r... */\n    tag_24:\n      callvalue\n        /* \"--CODEGEN--\":8:17   */\n      dup1\n        /* \"--CODEGEN--\":5:7   */\n      iszero\n      tag_130\n      jumpi\n        /* \"--CODEGEN--\":30:31   */\n      0x0\n        /* \"--CODEGEN--\":27:28   */\n      dup1\n        /* \"--CODEGEN--\":20:32   */\n      revert\n        /* \"--CODEGEN--\":5:7   */\n    tag_130:\n        /* \"contracts/ddddd.sol\":6145:6439  function searchDoctor(address _address) public view returns(string, string, string, string, string, string, string) {\r... */\n      pop\n      tag_131\n      0x4\n      dup1\n      calldatasize\n      sub\n      tag_132\n      swap2\n      swap1\n      dup2\n      add\n      swap1\n      jump(tag_40)\n    tag_132:\n      jump(tag_133)\n    tag_131:\n      mload(0x40)\n      tag_134\n      swap8\n      swap7\n      swap6\n      swap5\n      swap4\n      swap3\n      swap2\n      swap1\n      jump(tag_135)\n    tag_134:\n      mload(0x40)\n      dup1\n      swap2\n      sub\n      swap1\n      return\n        /* \"contracts/ddddd.sol\":4613:4865  function givePermissionByMoH(address _address1, address _address2) public returns(bool success) {\r... */\n    tag_25:\n      callvalue\n        /* \"--CODEGEN--\":8:17   */\n      dup1\n        /* \"--CODEGEN--\":5:7   */\n      iszero\n      tag_136\n      jumpi\n        /* \"--CODEGEN--\":30:31   */\n      0x0\n        /* \"--CODEGEN--\":27:28   */\n      dup1\n        /* \"--CODEGEN--\":20:32   */\n      revert\n        /* \"--CODEGEN--\":5:7   */\n    tag_136:\n        /* \"contracts/ddddd.sol\":4613:4865  function givePermissionByMoH(address _address1, address _address2) public returns(bool success) {\r... */\n      pop\n      tag_137\n      0x4\n      dup1\n      calldatasize\n      sub\n      tag_138\n      swap2\n      swap1\n      dup2\n      add\n      swap1\n      jump(tag_123)\n    tag_138:\n      jump(tag_139)\n    tag_137:\n      mload(0x40)\n      tag_140\n      swap2\n      swap1\n      jump(tag_69)\n    tag_140:\n      mload(0x40)\n      dup1\n      swap2\n      sub\n      swap1\n      return\n        /* \"contracts/ddddd.sol\":6777:6887  function getMoHPermissionCounter() public view returns(uint256) {\r... */\n    tag_26:\n      callvalue\n        /* \"--CODEGEN--\":8:17   */\n      dup1\n        /* \"--CODEGEN--\":5:7   */\n      iszero\n      tag_141\n      jumpi\n        /* \"--CODEGEN--\":30:31   */\n      0x0\n        /* \"--CODEGEN--\":27:28   */\n      dup1\n        /* \"--CODEGEN--\":20:32   */\n      revert\n        /* \"--CODEGEN--\":5:7   */\n    tag_141:\n        /* \"contracts/ddddd.sol\":6777:6887  function getMoHPermissionCounter() public view returns(uint256) {\r... */\n      pop\n      tag_142\n      jump(tag_143)\n    tag_142:\n      mload(0x40)\n      tag_144\n      swap2\n      swap1\n      jump(tag_36)\n    tag_144:\n      mload(0x40)\n      dup1\n      swap2\n      sub\n      swap1\n      return\n        /* \"contracts/ddddd.sol\":5271:5356  function getUsers() public view returns(address[]) {\r... */\n    tag_29:\n        /* \"contracts/ddddd.sol\":5311:5320  address[] */\n      0x60\n        /* \"contracts/ddddd.sol\":5340:5348  userList */\n      0x1\n        /* \"contracts/ddddd.sol\":5333:5348  return userList */\n      dup1\n      sload\n      dup1\n      0x20\n      mul\n      0x20\n      add\n      mload(0x40)\n      swap1\n      dup2\n      add\n      0x40\n      mstore\n      dup1\n      swap3\n      swap2\n      swap1\n      dup2\n      dup2\n      mstore\n      0x20\n      add\n      dup3\n      dup1\n      sload\n      dup1\n      iszero\n      tag_146\n      jumpi\n      0x20\n      mul\n      dup3\n      add\n      swap2\n      swap1\n      0x0\n      mstore\n      keccak256(0x0, 0x20)\n      swap1\n    tag_147:\n      dup2\n      0x0\n      swap1\n      sload\n      swap1\n      0x100\n      exp\n      swap1\n      div\n      0xffffffffffffffffffffffffffffffffffffffff\n      and\n      0xffffffffffffffffffffffffffffffffffffffff\n      and\n      dup2\n      mstore\n      0x20\n      add\n      swap1\n      0x1\n      add\n      swap1\n      dup1\n      dup4\n      gt\n      tag_147\n      jumpi\n    tag_146:\n      pop\n      pop\n      pop\n      pop\n      pop\n      swap1\n      pop\n        /* \"contracts/ddddd.sol\":5271:5356  function getUsers() public view returns(address[]) {\r... */\n      swap1\n      jump\t// out\n        /* \"contracts/ddddd.sol\":6657:6769  function getUserPermissionCounter() public view returns(uint256) {\r... */\n    tag_34:\n        /* \"contracts/ddddd.sol\":6713:6720  uint256 */\n      0x0\n        /* \"contracts/ddddd.sol\":6740:6761  userPermissionCounter */\n      sload(0xb)\n        /* \"contracts/ddddd.sol\":6733:6761  return userPermissionCounter */\n      swap1\n      pop\n        /* \"contracts/ddddd.sol\":6657:6769  function getUserPermissionCounter() public view returns(uint256) {\r... */\n      swap1\n      jump\t// out\n        /* \"contracts/ddddd.sol\":5467:5824  function searchUserformation(address _address) public view returns(string, string, string, string, string, string, address) {\r... */\n    tag_41:\n        /* \"contracts/ddddd.sol\":5534:5540  string */\n      0x60\n        /* \"contracts/ddddd.sol\":5542:5548  string */\n      dup1\n        /* \"contracts/ddddd.sol\":5550:5556  string */\n      0x60\n        /* \"contracts/ddddd.sol\":5558:5564  string */\n      dup1\n        /* \"contracts/ddddd.sol\":5566:5572  string */\n      0x60\n        /* \"contracts/ddddd.sol\":5574:5580  string */\n      dup1\n        /* \"contracts/ddddd.sol\":5582:5589  address */\n      0x0\n        /* \"contracts/ddddd.sol\":5654:5659  var u */\n      dup1\n        /* \"contracts/ddddd.sol\":5610:5620  isApproved */\n      0x5\n        /* \"contracts/ddddd.sol\":5610:5630  isApproved[_address] */\n      0x0\n        /* \"contracts/ddddd.sol\":5621:5629  _address */\n      dup11\n        /* \"contracts/ddddd.sol\":5610:5630  isApproved[_address] */\n      0xffffffffffffffffffffffffffffffffffffffff\n      and\n      0xffffffffffffffffffffffffffffffffffffffff\n      and\n      dup2\n      mstore\n      0x20\n      add\n      swap1\n      dup2\n      mstore\n      0x20\n      add\n      0x0\n      keccak256\n        /* \"contracts/ddddd.sol\":5610:5642  isApproved[_address][msg.sender] */\n      0x0\n        /* \"contracts/ddddd.sol\":5631:5641  msg.sender */\n      caller\n        /* \"contracts/ddddd.sol\":5610:5642  isApproved[_address][msg.sender] */\n      0xffffffffffffffffffffffffffffffffffffffff\n      and\n      0xffffffffffffffffffffffffffffffffffffffff\n      and\n      dup2\n      mstore\n      0x20\n      add\n      swap1\n      dup2\n      mstore\n      0x20\n      add\n      0x0\n      keccak256\n      0x0\n      swap1\n      sload\n      swap1\n      0x100\n      exp\n      swap1\n      div\n      0xff\n      and\n        /* \"contracts/ddddd.sol\":5602:5643  require(isApproved[_address][msg.sender]) */\n      iszero\n      iszero\n      tag_150\n      jumpi\n      0x0\n      dup1\n      revert\n    tag_150:\n        /* \"contracts/ddddd.sol\":5662:5666  user */\n      0x3\n        /* \"contracts/ddddd.sol\":5662:5676  user[_address] */\n      0x0\n        /* \"contracts/ddddd.sol\":5667:5675  _address */\n      dup11\n        /* \"contracts/ddddd.sol\":5662:5676  user[_address] */\n      0xffffffffffffffffffffffffffffffffffffffff\n      and\n      0xffffffffffffffffffffffffffffffffffffffff\n      and\n      dup2\n      mstore\n      0x20\n      add\n      swap1\n      dup2\n      mstore\n      0x20\n      add\n      0x0\n      keccak256\n        /* \"contracts/ddddd.sol\":5654:5676  var u = user[_address] */\n      swap1\n      pop\n        /* \"contracts/ddddd.sol\":5695:5696  u */\n      dup1\n        /* \"contracts/ddddd.sol\":5695:5702  u.uaeId */\n      0x0\n      add\n        /* \"contracts/ddddd.sol\":5704:5705  u */\n      dup2\n        /* \"contracts/ddddd.sol\":5704:5710  u.name */\n      0x1\n      add\n        /* \"contracts/ddddd.sol\":5712:5713  u */\n      dup3\n        /* \"contracts/ddddd.sol\":5712:5719  u.phone */\n      0x2\n      add\n        /* \"contracts/ddddd.sol\":5721:5722  u */\n      dup4\n        /* \"contracts/ddddd.sol\":5721:5729  u.gender */\n      0x3\n      add\n        /* \"contracts/ddddd.sol\":5731:5732  u */\n      dup5\n        /* \"contracts/ddddd.sol\":5731:5736  u.dob */\n      0x4\n      add\n        /* \"contracts/ddddd.sol\":5738:5739  u */\n      dup6\n        /* \"contracts/ddddd.sol\":5738:5744  u.addr */\n      0x5\n      add\n        /* \"contracts/ddddd.sol\":5746:5747  u */\n      dup7\n        /* \"contracts/ddddd.sol\":5746:5756  u.eAddress */\n      0x9\n      add\n      0x0\n      swap1\n      sload\n      swap1\n      0x100\n      exp\n      swap1\n      div\n      0xffffffffffffffffffffffffffffffffffffffff\n      and\n        /* \"contracts/ddddd.sol\":5687:5757  return (u.uaeId, u.name, u.phone, u.gender, u.dob, u.addr, u.eAddress) */\n      dup7\n      dup1\n      sload\n      0x1\n      dup2\n      0x1\n      and\n      iszero\n      0x100\n      mul\n      sub\n      and\n      0x2\n      swap1\n      div\n      dup1\n      0x1f\n      add\n      0x20\n      dup1\n      swap2\n      div\n      mul\n      0x20\n      add\n      mload(0x40)\n      swap1\n      dup2\n      add\n      0x40\n      mstore\n      dup1\n      swap3\n      swap2\n      swap1\n      dup2\n      dup2\n      mstore\n      0x20\n      add\n      dup3\n      dup1\n      sload\n      0x1\n      dup2\n      0x1\n      and\n      iszero\n      0x100\n      mul\n      sub\n      and\n      0x2\n      swap1\n      div\n      dup1\n      iszero\n      tag_151\n      jumpi\n      dup1\n      0x1f\n      lt\n      tag_152\n      jumpi\n      0x100\n      dup1\n      dup4\n      sload\n      div\n      mul\n      dup4\n      mstore\n      swap2\n      0x20\n      add\n      swap2\n      jump(tag_151)\n    tag_152:\n      dup3\n      add\n      swap2\n      swap1\n      0x0\n      mstore\n      keccak256(0x0, 0x20)\n      swap1\n    tag_153:\n      dup2\n      sload\n      dup2\n      mstore\n      swap1\n      0x1\n      add\n      swap1\n      0x20\n      add\n      dup1\n      dup4\n      gt\n      tag_153\n      jumpi\n      dup3\n      swap1\n      sub\n      0x1f\n      and\n      dup3\n      add\n      swap2\n    tag_151:\n      pop\n      pop\n      pop\n      pop\n      pop\n      swap7\n      pop\n      dup6\n      dup1\n      sload\n      0x1\n      dup2\n      0x1\n      and\n      iszero\n      0x100\n      mul\n      sub\n      and\n      0x2\n      swap1\n      div\n      dup1\n      0x1f\n      add\n      0x20\n      dup1\n      swap2\n      div\n      mul\n      0x20\n      add\n      mload(0x40)\n      swap1\n      dup2\n      add\n      0x40\n      mstore\n      dup1\n      swap3\n      swap2\n      swap1\n      dup2\n      dup2\n      mstore\n      0x20\n      add\n      dup3\n      dup1\n      sload\n      0x1\n      dup2\n      0x1\n      and\n      iszero\n      0x100\n      mul\n      sub\n      and\n      0x2\n      swap1\n      div\n      dup1\n      iszero\n      tag_154\n      jumpi\n      dup1\n      0x1f\n      lt\n      tag_155\n      jumpi\n      0x100\n      dup1\n      dup4\n      sload\n      div\n      mul\n      dup4\n      mstore\n      swap2\n      0x20\n      add\n      swap2\n      jump(tag_154)\n    tag_155:\n      dup3\n      add\n      swap2\n      swap1\n      0x0\n      mstore\n      keccak256(0x0, 0x20)\n      swap1\n    tag_156:\n      dup2\n      sload\n      dup2\n      mstore\n      swap1\n      0x1\n      add\n      swap1\n      0x20\n      add\n      dup1\n      dup4\n      gt\n      tag_156\n      jumpi\n      dup3\n      swap1\n      sub\n      0x1f\n      and\n      dup3\n      add\n      swap2\n    tag_154:\n      pop\n      pop\n      pop\n      pop\n      pop\n      swap6\n      pop\n      dup5\n      dup1\n      sload\n      0x1\n      dup2\n      0x1\n      and\n      iszero\n      0x100\n      mul\n      sub\n      and\n      0x2\n      swap1\n      div\n      dup1\n      0x1f\n      add\n      0x20\n      dup1\n      swap2\n      div\n      mul\n      0x20\n      add\n      mload(0x40)\n      swap1\n      dup2\n      add\n      0x40\n      mstore\n      dup1\n      swap3\n      swap2\n      swap1\n      dup2\n      dup2\n      mstore\n      0x20\n      add\n      dup3\n      dup1\n      sload\n      0x1\n      dup2\n      0x1\n      and\n      iszero\n      0x100\n      mul\n      sub\n      and\n      0x2\n      swap1\n      div\n      dup1\n      iszero\n      tag_157\n      jumpi\n      dup1\n      0x1f\n      lt\n      tag_158\n      jumpi\n      0x100\n      dup1\n      dup4\n      sload\n      div\n      mul\n      dup4\n      mstore\n      swap2\n      0x20\n      add\n      swap2\n      jump(tag_157)\n    tag_158:\n      dup3\n      add\n      swap2\n      swap1\n      0x0\n      mstore\n      keccak256(0x0, 0x20)\n      swap1\n    tag_159:\n      dup2\n      sload\n      dup2\n      mstore\n      swap1\n      0x1\n      add\n      swap1\n      0x20\n      add\n      dup1\n      dup4\n      gt\n      tag_159\n      jumpi\n      dup3\n      swap1\n      sub\n      0x1f\n      and\n      dup3\n      add\n      swap2\n    tag_157:\n      pop\n      pop\n      pop\n      pop\n      pop\n      swap5\n      pop\n      dup4\n      dup1\n      sload\n      0x1\n      dup2\n      0x1\n      and\n      iszero\n      0x100\n      mul\n      sub\n      and\n      0x2\n      swap1\n      div\n      dup1\n      0x1f\n      add\n      0x20\n      dup1\n      swap2\n      div\n      mul\n      0x20\n      add\n      mload(0x40)\n      swap1\n      dup2\n      add\n      0x40\n      mstore\n      dup1\n      swap3\n      swap2\n      swap1\n      dup2\n      dup2\n      mstore\n      0x20\n      add\n      dup3\n      dup1\n      sload\n      0x1\n      dup2\n      0x1\n      and\n      iszero\n      0x100\n      mul\n      sub\n      and\n      0x2\n      swap1\n      div\n      dup1\n      iszero\n      tag_160\n      jumpi\n      dup1\n      0x1f\n      lt\n      tag_161\n      jumpi\n      0x100\n      dup1\n      dup4\n      sload\n      div\n      mul\n      dup4\n      mstore\n      swap2\n      0x20\n      add\n      swap2\n      jump(tag_160)\n    tag_161:\n      dup3\n      add\n      swap2\n      swap1\n      0x0\n      mstore\n      keccak256(0x0, 0x20)\n      swap1\n    tag_162:\n      dup2\n      sload\n      dup2\n      mstore\n      swap1\n      0x1\n      add\n      swap1\n      0x20\n      add\n      dup1\n      dup4\n      gt\n      tag_162\n      jumpi\n      dup3\n      swap1\n      sub\n      0x1f\n      and\n      dup3\n      add\n      swap2\n    tag_160:\n      pop\n      pop\n      pop\n      pop\n      pop\n      swap4\n      pop\n      dup3\n      dup1\n      sload\n      0x1\n      dup2\n      0x1\n      and\n      iszero\n      0x100\n      mul\n      sub\n      and\n      0x2\n      swap1\n      div\n      dup1\n      0x1f\n      add\n      0x20\n      dup1\n      swap2\n      div\n      mul\n      0x20\n      add\n      mload(0x40)\n      swap1\n      dup2\n      add\n      0x40\n      mstore\n      dup1\n      swap3\n      swap2\n      swap1\n      dup2\n      dup2\n      mstore\n      0x20\n      add\n      dup3\n      dup1\n      sload\n      0x1\n      dup2\n      0x1\n      and\n      iszero\n      0x100\n      mul\n      sub\n      and\n      0x2\n      swap1\n      div\n      dup1\n      iszero\n      tag_163\n      jumpi\n      dup1\n      0x1f\n      lt\n      tag_164\n      jumpi\n      0x100\n      dup1\n      dup4\n      sload\n      div\n      mul\n      dup4\n      mstore\n      swap2\n      0x20\n      add\n      swap2\n      jump(tag_163)\n    tag_164:\n      dup3\n      add\n      swap2\n      swap1\n      0x0\n      mstore\n      keccak256(0x0, 0x20)\n      swap1\n    tag_165:\n      dup2\n      sload\n      dup2\n      mstore\n      swap1\n      0x1\n      add\n      swap1\n      0x20\n      add\n      dup1\n      dup4\n      gt\n      tag_165\n      jumpi\n      dup3\n      swap1\n      sub\n      0x1f\n      and\n      dup3\n      add\n      swap2\n    tag_163:\n      pop\n      pop\n      pop\n      pop\n      pop\n      swap3\n      pop\n      dup2\n      dup1\n      sload\n      0x1\n      dup2\n      0x1\n      and\n      iszero\n      0x100\n      mul\n      sub\n      and\n      0x2\n      swap1\n      div\n      dup1\n      0x1f\n      add\n      0x20\n      dup1\n      swap2\n      div\n      mul\n      0x20\n      add\n      mload(0x40)\n      swap1\n      dup2\n      add\n      0x40\n      mstore\n      dup1\n      swap3\n      swap2\n      swap1\n      dup2\n      dup2\n      mstore\n      0x20\n      add\n      dup3\n      dup1\n      sload\n      0x1\n      dup2\n      0x1\n      and\n      iszero\n      0x100\n      mul\n      sub\n      and\n      0x2\n      swap1\n      div\n      dup1\n      iszero\n      tag_166\n      jumpi\n      dup1\n      0x1f\n      lt\n      tag_167\n      jumpi\n      0x100\n      dup1\n      dup4\n      sload\n      div\n      mul\n      dup4\n      mstore\n      swap2\n      0x20\n      add\n      swap2\n      jump(tag_166)\n    tag_167:\n      dup3\n      add\n      swap2\n      swap1\n      0x0\n      mstore\n      keccak256(0x0, 0x20)\n      swap1\n    tag_168:\n      dup2\n      sload\n      dup2\n      mstore\n      swap1\n      0x1\n      add\n      swap1\n      0x20\n      add\n      dup1\n      dup4\n      gt\n      tag_168\n      jumpi\n      dup3\n      swap1\n      sub\n      0x1f\n      and\n      dup3\n      add\n      swap2\n    tag_166:\n      pop\n      pop\n      pop\n      pop\n      pop\n      swap2\n      pop\n      swap8\n      pop\n      swap8\n      pop\n      swap8\n      pop\n      swap8\n      pop\n      swap8\n      pop\n      swap8\n      pop\n      swap8\n      pop\n        /* \"contracts/ddddd.sol\":5467:5824  function searchUserformation(address _address) public view returns(string, string, string, string, string, string, address) {\r... */\n      pop\n      swap2\n      swap4\n      swap6\n      swap8\n      swap1\n      swap3\n      swap5\n      swap7\n      pop\n      jump\t// out\n        /* \"contracts/ddddd.sol\":1037:1065  uint256 public userCount = 0 */\n    tag_46:\n      sload(0x8)\n      dup2\n      jump\t// out\n        /* \"contracts/ddddd.sol\":748:775  address[] public doctorList */\n    tag_52:\n      0x2\n      dup2\n      dup2\n      sload\n      dup2\n      lt\n      iszero\n      iszero\n      tag_169\n      jumpi\n      invalid\n    tag_169:\n      swap1\n      0x0\n      mstore\n      keccak256(0x0, 0x20)\n      add\n      0x0\n      swap2\n      pop\n      sload\n      swap1\n      0x100\n      exp\n      swap1\n      div\n      0xffffffffffffffffffffffffffffffffffffffff\n      and\n      dup2\n      jump\t// out\n        /* \"contracts/ddddd.sol\":3885:4404  function editDoctor(address _doctor, string _uaeId, string _name, string _phone, string _gender, string _dob, string _qualification, string _major) public {\r... */\n    tag_59:\n        /* \"contracts/ddddd.sol\":4131:4136  var d */\n      0x0\n        /* \"contracts/ddddd.sol\":4073:4082  mohAdress */\n      0xc\n      0x0\n      swap1\n      sload\n      swap1\n      0x100\n      exp\n      swap1\n      div\n      0xffffffffffffffffffffffffffffffffffffffff\n      and\n        /* \"contracts/ddddd.sol\":4059:4082  msg.sender == mohAdress */\n      0xffffffffffffffffffffffffffffffffffffffff\n      and\n        /* \"contracts/ddddd.sol\":4059:4069  msg.sender */\n      caller\n        /* \"contracts/ddddd.sol\":4059:4082  msg.sender == mohAdress */\n      0xffffffffffffffffffffffffffffffffffffffff\n      and\n      eq\n        /* \"contracts/ddddd.sol\":4051:4083  require(msg.sender == mohAdress) */\n      iszero\n      iszero\n      tag_172\n      jumpi\n      0x0\n      dup1\n      revert\n    tag_172:\n        /* \"contracts/ddddd.sol\":4102:4110  isDoctor */\n      0x7\n        /* \"contracts/ddddd.sol\":4102:4119  isDoctor[_doctor] */\n      0x0\n        /* \"contracts/ddddd.sol\":4111:4118  _doctor */\n      dup11\n        /* \"contracts/ddddd.sol\":4102:4119  isDoctor[_doctor] */\n      0xffffffffffffffffffffffffffffffffffffffff\n      and\n      0xffffffffffffffffffffffffffffffffffffffff\n      and\n      dup2\n      mstore\n      0x20\n      add\n      swap1\n      dup2\n      mstore\n      0x20\n      add\n      0x0\n      keccak256\n      0x0\n      swap1\n      sload\n      swap1\n      0x100\n      exp\n      swap1\n      div\n      0xff\n      and\n        /* \"contracts/ddddd.sol\":4094:4120  require(isDoctor[_doctor]) */\n      iszero\n      iszero\n      tag_173\n      jumpi\n      0x0\n      dup1\n      revert\n    tag_173:\n        /* \"contracts/ddddd.sol\":4139:4145  doctor */\n      0x4\n        /* \"contracts/ddddd.sol\":4139:4154  doctor[_doctor] */\n      0x0\n        /* \"contracts/ddddd.sol\":4146:4153  _doctor */\n      dup11\n        /* \"contracts/ddddd.sol\":4139:4154  doctor[_doctor] */\n      0xffffffffffffffffffffffffffffffffffffffff\n      and\n      0xffffffffffffffffffffffffffffffffffffffff\n      and\n      dup2\n      mstore\n      0x20\n      add\n      swap1\n      dup2\n      mstore\n      0x20\n      add\n      0x0\n      keccak256\n        /* \"contracts/ddddd.sol\":4131:4154  var d = doctor[_doctor] */\n      swap1\n      pop\n        /* \"contracts/ddddd.sol\":4185:4191  _uaeId */\n      dup8\n        /* \"contracts/ddddd.sol\":4175:4176  d */\n      dup2\n        /* \"contracts/ddddd.sol\":4175:4182  d.uaeId */\n      0x0\n      add\n        /* \"contracts/ddddd.sol\":4175:4191  d.uaeId = _uaeId */\n      swap1\n      dup1\n      mload\n      swap1\n      0x20\n      add\n      swap1\n      tag_174\n      swap3\n      swap2\n      swap1\n      jump\t// in(tag_175)\n    tag_174:\n      pop\n        /* \"contracts/ddddd.sol\":4211:4216  _name */\n      dup7\n        /* \"contracts/ddddd.sol\":4202:4203  d */\n      dup2\n        /* \"contracts/ddddd.sol\":4202:4208  d.name */\n      0x1\n      add\n        /* \"contracts/ddddd.sol\":4202:4216  d.name = _name */\n      swap1\n      dup1\n      mload\n      swap1\n      0x20\n      add\n      swap1\n      tag_176\n      swap3\n      swap2\n      swap1\n      jump\t// in(tag_175)\n    tag_176:\n      pop\n        /* \"contracts/ddddd.sol\":4237:4243  _phone */\n      dup6\n        /* \"contracts/ddddd.sol\":4227:4228  d */\n      dup2\n        /* \"contracts/ddddd.sol\":4227:4234  d.phone */\n      0x2\n      add\n        /* \"contracts/ddddd.sol\":4227:4243  d.phone = _phone */\n      swap1\n      dup1\n      mload\n      swap1\n      0x20\n      add\n      swap1\n      tag_177\n      swap3\n      swap2\n      swap1\n      jump\t// in(tag_175)\n    tag_177:\n      pop\n        /* \"contracts/ddddd.sol\":4265:4272  _gender */\n      dup5\n        /* \"contracts/ddddd.sol\":4254:4255  d */\n      dup2\n        /* \"contracts/ddddd.sol\":4254:4262  d.gender */\n      0x3\n      add\n        /* \"contracts/ddddd.sol\":4254:4272  d.gender = _gender */\n      swap1\n      dup1\n      mload\n      swap1\n      0x20\n      add\n      swap1\n      tag_178\n      swap3\n      swap2\n      swap1\n      jump\t// in(tag_175)\n    tag_178:\n      pop\n        /* \"contracts/ddddd.sol\":4291:4295  _dob */\n      dup4\n        /* \"contracts/ddddd.sol\":4283:4284  d */\n      dup2\n        /* \"contracts/ddddd.sol\":4283:4288  d.dob */\n      0x4\n      add\n        /* \"contracts/ddddd.sol\":4283:4295  d.dob = _dob */\n      swap1\n      dup1\n      mload\n      swap1\n      0x20\n      add\n      swap1\n      tag_179\n      swap3\n      swap2\n      swap1\n      jump\t// in(tag_175)\n    tag_179:\n      pop\n        /* \"contracts/ddddd.sol\":4324:4338  _qualification */\n      dup3\n        /* \"contracts/ddddd.sol\":4306:4307  d */\n      dup2\n        /* \"contracts/ddddd.sol\":4306:4321  d.qualification */\n      0x7\n      add\n        /* \"contracts/ddddd.sol\":4306:4338  d.qualification = _qualification */\n      swap1\n      dup1\n      mload\n      swap1\n      0x20\n      add\n      swap1\n      tag_180\n      swap3\n      swap2\n      swap1\n      jump\t// in(tag_175)\n    tag_180:\n      pop\n        /* \"contracts/ddddd.sol\":4359:4365  _major */\n      dup2\n        /* \"contracts/ddddd.sol\":4349:4350  d */\n      dup2\n        /* \"contracts/ddddd.sol\":4349:4356  d.major */\n      0x8\n      add\n        /* \"contracts/ddddd.sol\":4349:4365  d.major = _major */\n      swap1\n      dup1\n      mload\n      swap1\n      0x20\n      add\n      swap1\n      tag_181\n      swap3\n      swap2\n      swap1\n      jump\t// in(tag_175)\n    tag_181:\n      pop\n        /* \"contracts/ddddd.sol\":4389:4396  _doctor */\n      dup9\n        /* \"contracts/ddddd.sol\":4376:4377  d */\n      dup2\n        /* \"contracts/ddddd.sol\":4376:4386  d.eAddress */\n      0x9\n      add\n      0x0\n        /* \"contracts/ddddd.sol\":4376:4396  d.eAddress = _doctor */\n      0x100\n      exp\n      dup2\n      sload\n      dup2\n      0xffffffffffffffffffffffffffffffffffffffff\n      mul\n      not\n      and\n      swap1\n      dup4\n      0xffffffffffffffffffffffffffffffffffffffff\n      and\n      mul\n      or\n      swap1\n      sstore\n      pop\n        /* \"contracts/ddddd.sol\":3885:4404  function editDoctor(address _doctor, string _uaeId, string _name, string _phone, string _gender, string _dob, string _qualification, string _major) public {\r... */\n      pop\n      pop\n      pop\n      pop\n      pop\n      pop\n      pop\n      pop\n      pop\n      jump\t// out\n        /* \"contracts/ddddd.sol\":3116:3877  function doctorRegistration(address _doctor, string _uaeId, string _name, string _phone, string _gender, string _dob, string _qualification, string _major) public {\r... */\n    tag_63:\n        /* \"contracts/ddddd.sol\":3371:3376  var d */\n      0x0\n        /* \"contracts/ddddd.sol\":3312:3321  mohAdress */\n      0xc\n      0x0\n      swap1\n      sload\n      swap1\n      0x100\n      exp\n      swap1\n      div\n      0xffffffffffffffffffffffffffffffffffffffff\n      and\n        /* \"contracts/ddddd.sol\":3298:3321  msg.sender == mohAdress */\n      0xffffffffffffffffffffffffffffffffffffffff\n      and\n        /* \"contracts/ddddd.sol\":3298:3308  msg.sender */\n      caller\n        /* \"contracts/ddddd.sol\":3298:3321  msg.sender == mohAdress */\n      0xffffffffffffffffffffffffffffffffffffffff\n      and\n      eq\n        /* \"contracts/ddddd.sol\":3290:3322  require(msg.sender == mohAdress) */\n      iszero\n      iszero\n      tag_183\n      jumpi\n      0x0\n      dup1\n      revert\n    tag_183:\n        /* \"contracts/ddddd.sol\":3342:3350  isDoctor */\n      0x7\n        /* \"contracts/ddddd.sol\":3342:3359  isDoctor[_doctor] */\n      0x0\n        /* \"contracts/ddddd.sol\":3351:3358  _doctor */\n      dup11\n        /* \"contracts/ddddd.sol\":3342:3359  isDoctor[_doctor] */\n      0xffffffffffffffffffffffffffffffffffffffff\n      and\n      0xffffffffffffffffffffffffffffffffffffffff\n      and\n      dup2\n      mstore\n      0x20\n      add\n      swap1\n      dup2\n      mstore\n      0x20\n      add\n      0x0\n      keccak256\n      0x0\n      swap1\n      sload\n      swap1\n      0x100\n      exp\n      swap1\n      div\n      0xff\n      and\n        /* \"contracts/ddddd.sol\":3341:3359  !isDoctor[_doctor] */\n      iszero\n        /* \"contracts/ddddd.sol\":3333:3360  require(!isDoctor[_doctor]) */\n      iszero\n      iszero\n      tag_184\n      jumpi\n      0x0\n      dup1\n      revert\n    tag_184:\n        /* \"contracts/ddddd.sol\":3379:3385  doctor */\n      0x4\n        /* \"contracts/ddddd.sol\":3379:3394  doctor[_doctor] */\n      0x0\n        /* \"contracts/ddddd.sol\":3386:3393  _doctor */\n      dup11\n        /* \"contracts/ddddd.sol\":3379:3394  doctor[_doctor] */\n      0xffffffffffffffffffffffffffffffffffffffff\n      and\n      0xffffffffffffffffffffffffffffffffffffffff\n      and\n      dup2\n      mstore\n      0x20\n      add\n      swap1\n      dup2\n      mstore\n      0x20\n      add\n      0x0\n      keccak256\n        /* \"contracts/ddddd.sol\":3371:3394  var d = doctor[_doctor] */\n      swap1\n      pop\n        /* \"contracts/ddddd.sol\":3425:3431  _uaeId */\n      dup8\n        /* \"contracts/ddddd.sol\":3415:3416  d */\n      dup2\n        /* \"contracts/ddddd.sol\":3415:3422  d.uaeId */\n      0x0\n      add\n        /* \"contracts/ddddd.sol\":3415:3431  d.uaeId = _uaeId */\n      swap1\n      dup1\n      mload\n      swap1\n      0x20\n      add\n      swap1\n      tag_185\n      swap3\n      swap2\n      swap1\n      jump\t// in(tag_175)\n    tag_185:\n      pop\n        /* \"contracts/ddddd.sol\":3451:3456  _name */\n      dup7\n        /* \"contracts/ddddd.sol\":3442:3443  d */\n      dup2\n        /* \"contracts/ddddd.sol\":3442:3448  d.name */\n      0x1\n      add\n        /* \"contracts/ddddd.sol\":3442:3456  d.name = _name */\n      swap1\n      dup1\n      mload\n      swap1\n      0x20\n      add\n      swap1\n      tag_186\n      swap3\n      swap2\n      swap1\n      jump\t// in(tag_175)\n    tag_186:\n      pop\n        /* \"contracts/ddddd.sol\":3477:3483  _phone */\n      dup6\n        /* \"contracts/ddddd.sol\":3467:3468  d */\n      dup2\n        /* \"contracts/ddddd.sol\":3467:3474  d.phone */\n      0x2\n      add\n        /* \"contracts/ddddd.sol\":3467:3483  d.phone = _phone */\n      swap1\n      dup1\n      mload\n      swap1\n      0x20\n      add\n      swap1\n      tag_187\n      swap3\n      swap2\n      swap1\n      jump\t// in(tag_175)\n    tag_187:\n      pop\n        /* \"contracts/ddddd.sol\":3505:3512  _gender */\n      dup5\n        /* \"contracts/ddddd.sol\":3494:3495  d */\n      dup2\n        /* \"contracts/ddddd.sol\":3494:3502  d.gender */\n      0x3\n      add\n        /* \"contracts/ddddd.sol\":3494:3512  d.gender = _gender */\n      swap1\n      dup1\n      mload\n      swap1\n      0x20\n      add\n      swap1\n      tag_188\n      swap3\n      swap2\n      swap1\n      jump\t// in(tag_175)\n    tag_188:\n      pop\n        /* \"contracts/ddddd.sol\":3531:3535  _dob */\n      dup4\n        /* \"contracts/ddddd.sol\":3523:3524  d */\n      dup2\n        /* \"contracts/ddddd.sol\":3523:3528  d.dob */\n      0x4\n      add\n        /* \"contracts/ddddd.sol\":3523:3535  d.dob = _dob */\n      swap1\n      dup1\n      mload\n      swap1\n      0x20\n      add\n      swap1\n      tag_189\n      swap3\n      swap2\n      swap1\n      jump\t// in(tag_175)\n    tag_189:\n      pop\n        /* \"contracts/ddddd.sol\":3564:3578  _qualification */\n      dup3\n        /* \"contracts/ddddd.sol\":3546:3547  d */\n      dup2\n        /* \"contracts/ddddd.sol\":3546:3561  d.qualification */\n      0x7\n      add\n        /* \"contracts/ddddd.sol\":3546:3578  d.qualification = _qualification */\n      swap1\n      dup1\n      mload\n      swap1\n      0x20\n      add\n      swap1\n      tag_190\n      swap3\n      swap2\n      swap1\n      jump\t// in(tag_175)\n    tag_190:\n      pop\n        /* \"contracts/ddddd.sol\":3599:3605  _major */\n      dup2\n        /* \"contracts/ddddd.sol\":3589:3590  d */\n      dup2\n        /* \"contracts/ddddd.sol\":3589:3596  d.major */\n      0x8\n      add\n        /* \"contracts/ddddd.sol\":3589:3605  d.major = _major */\n      swap1\n      dup1\n      mload\n      swap1\n      0x20\n      add\n      swap1\n      tag_191\n      swap3\n      swap2\n      swap1\n      jump\t// in(tag_175)\n    tag_191:\n      pop\n        /* \"contracts/ddddd.sol\":3629:3636  _doctor */\n      dup9\n        /* \"contracts/ddddd.sol\":3616:3617  d */\n      dup2\n        /* \"contracts/ddddd.sol\":3616:3626  d.eAddress */\n      0x9\n      add\n      0x0\n        /* \"contracts/ddddd.sol\":3616:3636  d.eAddress = _doctor */\n      0x100\n      exp\n      dup2\n      sload\n      dup2\n      0xffffffffffffffffffffffffffffffffffffffff\n      mul\n      not\n      and\n      swap1\n      dup4\n      0xffffffffffffffffffffffffffffffffffffffff\n      and\n      mul\n      or\n      swap1\n      sstore\n      pop\n        /* \"contracts/ddddd.sol\":3656:3671  block.timestamp */\n      timestamp\n        /* \"contracts/ddddd.sol\":3647:3648  d */\n      dup2\n        /* \"contracts/ddddd.sol\":3647:3653  d.date */\n      0xa\n      add\n        /* \"contracts/ddddd.sol\":3647:3671  d.date = block.timestamp */\n      dup2\n      swap1\n      sstore\n      pop\n        /* \"contracts/ddddd.sol\":3692:3702  doctorList */\n      0x2\n        /* \"contracts/ddddd.sol\":3708:3715  _doctor */\n      dup10\n        /* \"contracts/ddddd.sol\":3692:3716  doctorList.push(_doctor) */\n      swap1\n      dup1\n        /* \"--CODEGEN--\":39:40   */\n      0x1\n        /* \"--CODEGEN--\":33:36   */\n      dup2\n        /* \"--CODEGEN--\":27:37   */\n      sload\n        /* \"--CODEGEN--\":23:41   */\n      add\n        /* \"--CODEGEN--\":57:67   */\n      dup1\n        /* \"--CODEGEN--\":52:55   */\n      dup3\n        /* \"--CODEGEN--\":45:68   */\n      sstore\n        /* \"--CODEGEN--\":79:89   */\n      dup1\n        /* \"--CODEGEN--\":72:89   */\n      swap2\n      pop\n        /* \"--CODEGEN--\":0:93   */\n      pop\n        /* \"contracts/ddddd.sol\":3692:3716  doctorList.push(_doctor) */\n      swap1\n      0x1\n      dup3\n      sub\n      swap1\n      0x0\n      mstore\n      keccak256(0x0, 0x20)\n      add\n      0x0\n      swap1\n      swap2\n      swap3\n      swap1\n      swap2\n      swap1\n      swap2\n      0x100\n      exp\n      dup2\n      sload\n      dup2\n      0xffffffffffffffffffffffffffffffffffffffff\n      mul\n      not\n      and\n      swap1\n      dup4\n      0xffffffffffffffffffffffffffffffffffffffff\n      and\n      mul\n      or\n      swap1\n      sstore\n      pop\n      pop\n        /* \"contracts/ddddd.sol\":3747:3751  true */\n      0x1\n        /* \"contracts/ddddd.sol\":3727:3735  isDoctor */\n      0x7\n        /* \"contracts/ddddd.sol\":3727:3744  isDoctor[_doctor] */\n      0x0\n        /* \"contracts/ddddd.sol\":3736:3743  _doctor */\n      dup12\n        /* \"contracts/ddddd.sol\":3727:3744  isDoctor[_doctor] */\n      0xffffffffffffffffffffffffffffffffffffffff\n      and\n      0xffffffffffffffffffffffffffffffffffffffff\n      and\n      dup2\n      mstore\n      0x20\n      add\n      swap1\n      dup2\n      mstore\n      0x20\n      add\n      0x0\n      keccak256\n      0x0\n        /* \"contracts/ddddd.sol\":3727:3751  isDoctor[_doctor] = true */\n      0x100\n      exp\n      dup2\n      sload\n      dup2\n      0xff\n      mul\n      not\n      and\n      swap1\n      dup4\n      iszero\n      iszero\n      mul\n      or\n      swap1\n      sstore\n      pop\n        /* \"contracts/ddddd.sol\":3793:3797  true */\n      0x1\n        /* \"contracts/ddddd.sol\":3762:3772  isApproved */\n      0x5\n        /* \"contracts/ddddd.sol\":3762:3781  isApproved[_doctor] */\n      0x0\n        /* \"contracts/ddddd.sol\":3773:3780  _doctor */\n      dup12\n        /* \"contracts/ddddd.sol\":3762:3781  isApproved[_doctor] */\n      0xffffffffffffffffffffffffffffffffffffffff\n      and\n      0xffffffffffffffffffffffffffffffffffffffff\n      and\n      dup2\n      mstore\n      0x20\n      add\n      swap1\n      dup2\n      mstore\n      0x20\n      add\n      0x0\n      keccak256\n        /* \"contracts/ddddd.sol\":3762:3790  isApproved[_doctor][_doctor] */\n      0x0\n        /* \"contracts/ddddd.sol\":3782:3789  _doctor */\n      dup12\n        /* \"contracts/ddddd.sol\":3762:3790  isApproved[_doctor][_doctor] */\n      0xffffffffffffffffffffffffffffffffffffffff\n      and\n      0xffffffffffffffffffffffffffffffffffffffff\n      and\n      dup2\n      mstore\n      0x20\n      add\n      swap1\n      dup2\n      mstore\n      0x20\n      add\n      0x0\n      keccak256\n      0x0\n        /* \"contracts/ddddd.sol\":3762:3797  isApproved[_doctor][_doctor] = true */\n      0x100\n      exp\n      dup2\n      sload\n      dup2\n      0xff\n      mul\n      not\n      and\n      swap1\n      dup4\n      iszero\n      iszero\n      mul\n      or\n      swap1\n      sstore\n      pop\n        /* \"contracts/ddddd.sol\":3841:3845  true */\n      0x1\n        /* \"contracts/ddddd.sol\":3808:3818  isApproved */\n      0x5\n        /* \"contracts/ddddd.sol\":3808:3827  isApproved[_doctor] */\n      0x0\n        /* \"contracts/ddddd.sol\":3819:3826  _doctor */\n      dup12\n        /* \"contracts/ddddd.sol\":3808:3827  isApproved[_doctor] */\n      0xffffffffffffffffffffffffffffffffffffffff\n      and\n      0xffffffffffffffffffffffffffffffffffffffff\n      and\n      dup2\n      mstore\n      0x20\n      add\n      swap1\n      dup2\n      mstore\n      0x20\n      add\n      0x0\n      keccak256\n        /* \"contracts/ddddd.sol\":3808:3838  isApproved[_doctor][mohAdress] */\n      0x0\n        /* \"contracts/ddddd.sol\":3828:3837  mohAdress */\n      0xc\n      0x0\n      swap1\n      sload\n      swap1\n      0x100\n      exp\n      swap1\n      div\n      0xffffffffffffffffffffffffffffffffffffffff\n      and\n        /* \"contracts/ddddd.sol\":3808:3838  isApproved[_doctor][mohAdress] */\n      0xffffffffffffffffffffffffffffffffffffffff\n      and\n      0xffffffffffffffffffffffffffffffffffffffff\n      and\n      dup2\n      mstore\n      0x20\n      add\n      swap1\n      dup2\n      mstore\n      0x20\n      add\n      0x0\n      keccak256\n      0x0\n        /* \"contracts/ddddd.sol\":3808:3845  isApproved[_doctor][mohAdress] = true */\n      0x100\n      exp\n      dup2\n      sload\n      dup2\n      0xff\n      mul\n      not\n      and\n      swap1\n      dup4\n      iszero\n      iszero\n      mul\n      or\n      swap1\n      sstore\n      pop\n        /* \"contracts/ddddd.sol\":3856:3867  doctorCount */\n      0x9\n      0x0\n        /* \"contracts/ddddd.sol\":3856:3869  doctorCount++ */\n      dup2\n      sload\n      dup1\n      swap3\n      swap2\n      swap1\n      0x1\n      add\n      swap2\n      swap1\n      pop\n      sstore\n      pop\n        /* \"contracts/ddddd.sol\":3116:3877  function doctorRegistration(address _doctor, string _uaeId, string _name, string _phone, string _gender, string _dob, string _qualification, string _major) public {\r... */\n      pop\n      pop\n      pop\n      pop\n      pop\n      pop\n      pop\n      pop\n      pop\n      jump\t// out\n        /* \"contracts/ddddd.sol\":4414:4605  function givePermissionByUser(address _address) public returns(bool success) {\r... */\n    tag_67:\n        /* \"contracts/ddddd.sol\":4477:4489  bool success */\n      0x0\n        /* \"contracts/ddddd.sol\":4537:4541  true */\n      0x1\n        /* \"contracts/ddddd.sol\":4502:4512  isApproved */\n      0x5\n        /* \"contracts/ddddd.sol\":4502:4524  isApproved[msg.sender] */\n      0x0\n        /* \"contracts/ddddd.sol\":4513:4523  msg.sender */\n      caller\n        /* \"contracts/ddddd.sol\":4502:4524  isApproved[msg.sender] */\n      0xffffffffffffffffffffffffffffffffffffffff\n      and\n      0xffffffffffffffffffffffffffffffffffffffff\n      and\n      dup2\n      mstore\n      0x20\n      add\n      swap1\n      dup2\n      mstore\n      0x20\n      add\n      0x0\n      keccak256\n        /* \"contracts/ddddd.sol\":4502:4534  isApproved[msg.sender][_address] */\n      0x0\n        /* \"contracts/ddddd.sol\":4525:4533  _address */\n      dup5\n        /* \"contracts/ddddd.sol\":4502:4534  isApproved[msg.sender][_address] */\n      0xffffffffffffffffffffffffffffffffffffffff\n      and\n      0xffffffffffffffffffffffffffffffffffffffff\n      and\n      dup2\n      mstore\n      0x20\n      add\n      swap1\n      dup2\n      mstore\n      0x20\n      add\n      0x0\n      keccak256\n      0x0\n        /* \"contracts/ddddd.sol\":4502:4541  isApproved[msg.sender][_address] = true */\n      0x100\n      exp\n      dup2\n      sload\n      dup2\n      0xff\n      mul\n      not\n      and\n      swap1\n      dup4\n      iszero\n      iszero\n      mul\n      or\n      swap1\n      sstore\n      pop\n        /* \"contracts/ddddd.sol\":4552:4573  userPermissionCounter */\n      0xb\n      0x0\n        /* \"contracts/ddddd.sol\":4552:4575  userPermissionCounter++ */\n      dup2\n      sload\n      dup1\n      swap3\n      swap2\n      swap1\n      0x1\n      add\n      swap2\n      swap1\n      pop\n      sstore\n      pop\n        /* \"contracts/ddddd.sol\":4593:4597  true */\n      0x1\n        /* \"contracts/ddddd.sol\":4586:4597  return true */\n      swap1\n      pop\n        /* \"contracts/ddddd.sol\":4414:4605  function givePermissionByUser(address _address) public returns(bool success) {\r... */\n      swap2\n      swap1\n      pop\n      jump\t// out\n        /* \"contracts/ddddd.sol\":4875:5033  function userRevokePermission(address _address) public returns(bool success) {\r... */\n    tag_73:\n        /* \"contracts/ddddd.sol\":4938:4950  bool success */\n      0x0\n        /* \"contracts/ddddd.sol\":4998:5003  false */\n      dup1\n        /* \"contracts/ddddd.sol\":4963:4973  isApproved */\n      0x5\n        /* \"contracts/ddddd.sol\":4963:4985  isApproved[msg.sender] */\n      0x0\n        /* \"contracts/ddddd.sol\":4974:4984  msg.sender */\n      caller\n        /* \"contracts/ddddd.sol\":4963:4985  isApproved[msg.sender] */\n      0xffffffffffffffffffffffffffffffffffffffff\n      and\n      0xffffffffffffffffffffffffffffffffffffffff\n      and\n      dup2\n      mstore\n      0x20\n      add\n      swap1\n      dup2\n      mstore\n      0x20\n      add\n      0x0\n      keccak256\n        /* \"contracts/ddddd.sol\":4963:4995  isApproved[msg.sender][_address] */\n      0x0\n        /* \"contracts/ddddd.sol\":4986:4994  _address */\n      dup5\n        /* \"contracts/ddddd.sol\":4963:4995  isApproved[msg.sender][_address] */\n      0xffffffffffffffffffffffffffffffffffffffff\n      and\n      0xffffffffffffffffffffffffffffffffffffffff\n      and\n      dup2\n      mstore\n      0x20\n      add\n      swap1\n      dup2\n      mstore\n      0x20\n      add\n      0x0\n      keccak256\n      0x0\n        /* \"contracts/ddddd.sol\":4963:5003  isApproved[msg.sender][_address] = false */\n      0x100\n      exp\n      dup2\n      sload\n      dup2\n      0xff\n      mul\n      not\n      and\n      swap1\n      dup4\n      iszero\n      iszero\n      mul\n      or\n      swap1\n      sstore\n      pop\n        /* \"contracts/ddddd.sol\":5021:5025  true */\n      0x1\n        /* \"contracts/ddddd.sol\":5014:5025  return true */\n      swap1\n      pop\n        /* \"contracts/ddddd.sol\":4875:5033  function userRevokePermission(address _address) public returns(bool success) {\r... */\n      swap2\n      swap1\n      pop\n      jump\t// out\n        /* \"contracts/ddddd.sol\":1366:2475  function userRegistration(address _user, string _uaeId, string _name, string _phone, string _gender, string _dob, string _addr, string _email, string _nomineeName, string _nomineeContact) public {\r... */\n    tag_79:\n        /* \"contracts/ddddd.sol\":1649:1654  var u */\n      0x0\n        /* \"contracts/ddddd.sol\":1594:1603  mohAdress */\n      0xc\n      0x0\n      swap1\n      sload\n      swap1\n      0x100\n      exp\n      swap1\n      div\n      0xffffffffffffffffffffffffffffffffffffffff\n      and\n        /* \"contracts/ddddd.sol\":1580:1603  msg.sender == mohAdress */\n      0xffffffffffffffffffffffffffffffffffffffff\n      and\n        /* \"contracts/ddddd.sol\":1580:1590  msg.sender */\n      caller\n        /* \"contracts/ddddd.sol\":1580:1603  msg.sender == mohAdress */\n      0xffffffffffffffffffffffffffffffffffffffff\n      and\n      eq\n        /* \"contracts/ddddd.sol\":1572:1604  require(msg.sender == mohAdress) */\n      iszero\n      iszero\n      tag_196\n      jumpi\n      0x0\n      dup1\n      revert\n    tag_196:\n        /* \"contracts/ddddd.sol\":1624:1630  isUser */\n      0x6\n        /* \"contracts/ddddd.sol\":1624:1637  isUser[_user] */\n      0x0\n        /* \"contracts/ddddd.sol\":1631:1636  _user */\n      dup13\n        /* \"contracts/ddddd.sol\":1624:1637  isUser[_user] */\n      0xffffffffffffffffffffffffffffffffffffffff\n      and\n      0xffffffffffffffffffffffffffffffffffffffff\n      and\n      dup2\n      mstore\n      0x20\n      add\n      swap1\n      dup2\n      mstore\n      0x20\n      add\n      0x0\n      keccak256\n      0x0\n      swap1\n      sload\n      swap1\n      0x100\n      exp\n      swap1\n      div\n      0xff\n      and\n        /* \"contracts/ddddd.sol\":1623:1637  !isUser[_user] */\n      iszero\n        /* \"contracts/ddddd.sol\":1615:1638  require(!isUser[_user]) */\n      iszero\n      iszero\n      tag_197\n      jumpi\n      0x0\n      dup1\n      revert\n    tag_197:\n        /* \"contracts/ddddd.sol\":1657:1661  user */\n      0x3\n        /* \"contracts/ddddd.sol\":1657:1668  user[_user] */\n      0x0\n        /* \"contracts/ddddd.sol\":1662:1667  _user */\n      dup13\n        /* \"contracts/ddddd.sol\":1657:1668  user[_user] */\n      0xffffffffffffffffffffffffffffffffffffffff\n      and\n      0xffffffffffffffffffffffffffffffffffffffff\n      and\n      dup2\n      mstore\n      0x20\n      add\n      swap1\n      dup2\n      mstore\n      0x20\n      add\n      0x0\n      keccak256\n        /* \"contracts/ddddd.sol\":1649:1668  var u = user[_user] */\n      swap1\n      pop\n        /* \"contracts/ddddd.sol\":1699:1705  _uaeId */\n      dup10\n        /* \"contracts/ddddd.sol\":1689:1690  u */\n      dup2\n        /* \"contracts/ddddd.sol\":1689:1696  u.uaeId */\n      0x0\n      add\n        /* \"contracts/ddddd.sol\":1689:1705  u.uaeId = _uaeId */\n      swap1\n      dup1\n      mload\n      swap1\n      0x20\n      add\n      swap1\n      tag_198\n      swap3\n      swap2\n      swap1\n      jump\t// in(tag_175)\n    tag_198:\n      pop\n        /* \"contracts/ddddd.sol\":1725:1730  _name */\n      dup9\n        /* \"contracts/ddddd.sol\":1716:1717  u */\n      dup2\n        /* \"contracts/ddddd.sol\":1716:1722  u.name */\n      0x1\n      add\n        /* \"contracts/ddddd.sol\":1716:1730  u.name = _name */\n      swap1\n      dup1\n      mload\n      swap1\n      0x20\n      add\n      swap1\n      tag_199\n      swap3\n      swap2\n      swap1\n      jump\t// in(tag_175)\n    tag_199:\n      pop\n        /* \"contracts/ddddd.sol\":1751:1757  _phone */\n      dup8\n        /* \"contracts/ddddd.sol\":1741:1742  u */\n      dup2\n        /* \"contracts/ddddd.sol\":1741:1748  u.phone */\n      0x2\n      add\n        /* \"contracts/ddddd.sol\":1741:1757  u.phone = _phone */\n      swap1\n      dup1\n      mload\n      swap1\n      0x20\n      add\n      swap1\n      tag_200\n      swap3\n      swap2\n      swap1\n      jump\t// in(tag_175)\n    tag_200:\n      pop\n        /* \"contracts/ddddd.sol\":1779:1786  _gender */\n      dup7\n        /* \"contracts/ddddd.sol\":1768:1769  u */\n      dup2\n        /* \"contracts/ddddd.sol\":1768:1776  u.gender */\n      0x3\n      add\n        /* \"contracts/ddddd.sol\":1768:1786  u.gender = _gender */\n      swap1\n      dup1\n      mload\n      swap1\n      0x20\n      add\n      swap1\n      tag_201\n      swap3\n      swap2\n      swap1\n      jump\t// in(tag_175)\n    tag_201:\n      pop\n        /* \"contracts/ddddd.sol\":1805:1809  _dob */\n      dup6\n        /* \"contracts/ddddd.sol\":1797:1798  u */\n      dup2\n        /* \"contracts/ddddd.sol\":1797:1802  u.dob */\n      0x4\n      add\n        /* \"contracts/ddddd.sol\":1797:1809  u.dob = _dob */\n      swap1\n      dup1\n      mload\n      swap1\n      0x20\n      add\n      swap1\n      tag_202\n      swap3\n      swap2\n      swap1\n      jump\t// in(tag_175)\n    tag_202:\n      pop\n        /* \"contracts/ddddd.sol\":1829:1834  _addr */\n      dup5\n        /* \"contracts/ddddd.sol\":1820:1821  u */\n      dup2\n        /* \"contracts/ddddd.sol\":1820:1826  u.addr */\n      0x5\n      add\n        /* \"contracts/ddddd.sol\":1820:1834  u.addr = _addr */\n      swap1\n      dup1\n      mload\n      swap1\n      0x20\n      add\n      swap1\n      tag_203\n      swap3\n      swap2\n      swap1\n      jump\t// in(tag_175)\n    tag_203:\n      pop\n        /* \"contracts/ddddd.sol\":1855:1861  _email */\n      dup4\n        /* \"contracts/ddddd.sol\":1845:1846  u */\n      dup2\n        /* \"contracts/ddddd.sol\":1845:1852  u.email */\n      0x6\n      add\n        /* \"contracts/ddddd.sol\":1845:1861  u.email = _email */\n      swap1\n      dup1\n      mload\n      swap1\n      0x20\n      add\n      swap1\n      tag_204\n      swap3\n      swap2\n      swap1\n      jump\t// in(tag_175)\n    tag_204:\n      pop\n        /* \"contracts/ddddd.sol\":1888:1900  _nomineeName */\n      dup3\n        /* \"contracts/ddddd.sol\":1872:1873  u */\n      dup2\n        /* \"contracts/ddddd.sol\":1872:1885  u.nomineeName */\n      0x7\n      add\n        /* \"contracts/ddddd.sol\":1872:1900  u.nomineeName = _nomineeName */\n      swap1\n      dup1\n      mload\n      swap1\n      0x20\n      add\n      swap1\n      tag_205\n      swap3\n      swap2\n      swap1\n      jump\t// in(tag_175)\n    tag_205:\n      pop\n        /* \"contracts/ddddd.sol\":1930:1945  _nomineeContact */\n      dup2\n        /* \"contracts/ddddd.sol\":1911:1912  u */\n      dup2\n        /* \"contracts/ddddd.sol\":1911:1927  u.nomineeContact */\n      0x8\n      add\n        /* \"contracts/ddddd.sol\":1911:1945  u.nomineeContact = _nomineeContact */\n      swap1\n      dup1\n      mload\n      swap1\n      0x20\n      add\n      swap1\n      tag_206\n      swap3\n      swap2\n      swap1\n      jump\t// in(tag_175)\n    tag_206:\n      pop\n        /* \"contracts/ddddd.sol\":1969:1974  _user */\n      dup11\n        /* \"contracts/ddddd.sol\":1956:1957  u */\n      dup2\n        /* \"contracts/ddddd.sol\":1956:1966  u.eAddress */\n      0x9\n      add\n      0x0\n        /* \"contracts/ddddd.sol\":1956:1974  u.eAddress = _user */\n      0x100\n      exp\n      dup2\n      sload\n      dup2\n      0xffffffffffffffffffffffffffffffffffffffff\n      mul\n      not\n      and\n      swap1\n      dup4\n      0xffffffffffffffffffffffffffffffffffffffff\n      and\n      mul\n      or\n      swap1\n      sstore\n      pop\n        /* \"contracts/ddddd.sol\":1994:2009  block.timestamp */\n      timestamp\n        /* \"contracts/ddddd.sol\":1985:1986  u */\n      dup2\n        /* \"contracts/ddddd.sol\":1985:1991  u.date */\n      0xa\n      add\n        /* \"contracts/ddddd.sol\":1985:2009  u.date = block.timestamp */\n      dup2\n      swap1\n      sstore\n      pop\n        /* \"contracts/ddddd.sol\":2030:2038  userList */\n      0x1\n        /* \"contracts/ddddd.sol\":2044:2049  _user */\n      dup12\n        /* \"contracts/ddddd.sol\":2030:2050  userList.push(_user) */\n      swap1\n      dup1\n        /* \"--CODEGEN--\":39:40   */\n      0x1\n        /* \"--CODEGEN--\":33:36   */\n      dup2\n        /* \"--CODEGEN--\":27:37   */\n      sload\n        /* \"--CODEGEN--\":23:41   */\n      add\n        /* \"--CODEGEN--\":57:67   */\n      dup1\n        /* \"--CODEGEN--\":52:55   */\n      dup3\n        /* \"--CODEGEN--\":45:68   */\n      sstore\n        /* \"--CODEGEN--\":79:89   */\n      dup1\n        /* \"--CODEGEN--\":72:89   */\n      swap2\n      pop\n        /* \"--CODEGEN--\":0:93   */\n      pop\n        /* \"contracts/ddddd.sol\":2030:2050  userList.push(_user) */\n      swap1\n      0x1\n      dup3\n      sub\n      swap1\n      0x0\n      mstore\n      keccak256(0x0, 0x20)\n      add\n      0x0\n      swap1\n      swap2\n      swap3\n      swap1\n      swap2\n      swap1\n      swap2\n      0x100\n      exp\n      dup2\n      sload\n      dup2\n      0xffffffffffffffffffffffffffffffffffffffff\n      mul\n      not\n      and\n      swap1\n      dup4\n      0xffffffffffffffffffffffffffffffffffffffff\n      and\n      mul\n      or\n      swap1\n      sstore\n      pop\n      pop\n        /* \"contracts/ddddd.sol\":2077:2081  true */\n      0x1\n        /* \"contracts/ddddd.sol\":2061:2067  isUser */\n      0x6\n        /* \"contracts/ddddd.sol\":2061:2074  isUser[_user] */\n      0x0\n        /* \"contracts/ddddd.sol\":2068:2073  _user */\n      dup14\n        /* \"contracts/ddddd.sol\":2061:2074  isUser[_user] */\n      0xffffffffffffffffffffffffffffffffffffffff\n      and\n      0xffffffffffffffffffffffffffffffffffffffff\n      and\n      dup2\n      mstore\n      0x20\n      add\n      swap1\n      dup2\n      mstore\n      0x20\n      add\n      0x0\n      keccak256\n      0x0\n        /* \"contracts/ddddd.sol\":2061:2081  isUser[_user] = true */\n      0x100\n      exp\n      dup2\n      sload\n      dup2\n      0xff\n      mul\n      not\n      and\n      swap1\n      dup4\n      iszero\n      iszero\n      mul\n      or\n      swap1\n      sstore\n      pop\n        /* \"contracts/ddddd.sol\":2119:2123  true */\n      0x1\n        /* \"contracts/ddddd.sol\":2092:2102  isApproved */\n      0x5\n        /* \"contracts/ddddd.sol\":2092:2109  isApproved[_user] */\n      0x0\n        /* \"contracts/ddddd.sol\":2103:2108  _user */\n      dup14\n        /* \"contracts/ddddd.sol\":2092:2109  isApproved[_user] */\n      0xffffffffffffffffffffffffffffffffffffffff\n      and\n      0xffffffffffffffffffffffffffffffffffffffff\n      and\n      dup2\n      mstore\n      0x20\n      add\n      swap1\n      dup2\n      mstore\n      0x20\n      add\n      0x0\n      keccak256\n        /* \"contracts/ddddd.sol\":2092:2116  isApproved[_user][_user] */\n      0x0\n        /* \"contracts/ddddd.sol\":2110:2115  _user */\n      dup14\n        /* \"contracts/ddddd.sol\":2092:2116  isApproved[_user][_user] */\n      0xffffffffffffffffffffffffffffffffffffffff\n      and\n      0xffffffffffffffffffffffffffffffffffffffff\n      and\n      dup2\n      mstore\n      0x20\n      add\n      swap1\n      dup2\n      mstore\n      0x20\n      add\n      0x0\n      keccak256\n      0x0\n        /* \"contracts/ddddd.sol\":2092:2123  isApproved[_user][_user] = true */\n      0x100\n      exp\n      dup2\n      sload\n      dup2\n      0xff\n      mul\n      not\n      and\n      swap1\n      dup4\n      iszero\n      iszero\n      mul\n      or\n      swap1\n      sstore\n      pop\n        /* \"contracts/ddddd.sol\":2165:2169  true */\n      0x1\n        /* \"contracts/ddddd.sol\":2134:2144  isApproved */\n      0x5\n        /* \"contracts/ddddd.sol\":2134:2151  isApproved[_user] */\n      0x0\n        /* \"contracts/ddddd.sol\":2145:2150  _user */\n      dup14\n        /* \"contracts/ddddd.sol\":2134:2151  isApproved[_user] */\n      0xffffffffffffffffffffffffffffffffffffffff\n      and\n      0xffffffffffffffffffffffffffffffffffffffff\n      and\n      dup2\n      mstore\n      0x20\n      add\n      swap1\n      dup2\n      mstore\n      0x20\n      add\n      0x0\n      keccak256\n        /* \"contracts/ddddd.sol\":2134:2162  isApproved[_user][mohAdress] */\n      0x0\n        /* \"contracts/ddddd.sol\":2152:2161  mohAdress */\n      0xc\n      0x0\n      swap1\n      sload\n      swap1\n      0x100\n      exp\n      swap1\n      div\n      0xffffffffffffffffffffffffffffffffffffffff\n      and\n        /* \"contracts/ddddd.sol\":2134:2162  isApproved[_user][mohAdress] */\n      0xffffffffffffffffffffffffffffffffffffffff\n      and\n      0xffffffffffffffffffffffffffffffffffffffff\n      and\n      dup2\n      mstore\n      0x20\n      add\n      swap1\n      dup2\n      mstore\n      0x20\n      add\n      0x0\n      keccak256\n      0x0\n        /* \"contracts/ddddd.sol\":2134:2169  isApproved[_user][mohAdress] = true */\n      0x100\n      exp\n      dup2\n      sload\n      dup2\n      0xff\n      mul\n      not\n      and\n      swap1\n      dup4\n      iszero\n      iszero\n      mul\n      or\n      swap1\n      sstore\n      pop\n        /* \"contracts/ddddd.sol\":2180:2189  userCount */\n      0x8\n      0x0\n        /* \"contracts/ddddd.sol\":2180:2191  userCount++ */\n      dup2\n      sload\n      dup1\n      swap3\n      swap2\n      swap1\n      0x1\n      add\n      swap2\n      swap1\n      pop\n      sstore\n      pop\n        /* \"contracts/ddddd.sol\":1366:2475  function userRegistration(address _user, string _uaeId, string _name, string _phone, string _gender, string _dob, string _addr, string _email, string _nomineeName, string _nomineeContact) public {\r... */\n      pop\n      pop\n      pop\n      pop\n      pop\n      pop\n      pop\n      pop\n      pop\n      pop\n      pop\n      jump\t// out\n        /* \"contracts/ddddd.sol\":2499:3108  function editUser(address _user, string _uaeId, string _name, string _phone, string _gender, string _dob, string _addr, string _email, string _nomineeName, string _nomineeContact) public {\r... */\n    tag_83:\n        /* \"contracts/ddddd.sol\":2773:2778  var u */\n      0x0\n        /* \"contracts/ddddd.sol\":2719:2728  mohAdress */\n      0xc\n      0x0\n      swap1\n      sload\n      swap1\n      0x100\n      exp\n      swap1\n      div\n      0xffffffffffffffffffffffffffffffffffffffff\n      and\n        /* \"contracts/ddddd.sol\":2705:2728  msg.sender == mohAdress */\n      0xffffffffffffffffffffffffffffffffffffffff\n      and\n        /* \"contracts/ddddd.sol\":2705:2715  msg.sender */\n      caller\n        /* \"contracts/ddddd.sol\":2705:2728  msg.sender == mohAdress */\n      0xffffffffffffffffffffffffffffffffffffffff\n      and\n      eq\n        /* \"contracts/ddddd.sol\":2697:2729  require(msg.sender == mohAdress) */\n      iszero\n      iszero\n      tag_209\n      jumpi\n      0x0\n      dup1\n      revert\n    tag_209:\n        /* \"contracts/ddddd.sol\":2748:2754  isUser */\n      0x6\n        /* \"contracts/ddddd.sol\":2748:2761  isUser[_user] */\n      0x0\n        /* \"contracts/ddddd.sol\":2755:2760  _user */\n      dup13\n        /* \"contracts/ddddd.sol\":2748:2761  isUser[_user] */\n      0xffffffffffffffffffffffffffffffffffffffff\n      and\n      0xffffffffffffffffffffffffffffffffffffffff\n      and\n      dup2\n      mstore\n      0x20\n      add\n      swap1\n      dup2\n      mstore\n      0x20\n      add\n      0x0\n      keccak256\n      0x0\n      swap1\n      sload\n      swap1\n      0x100\n      exp\n      swap1\n      div\n      0xff\n      and\n        /* \"contracts/ddddd.sol\":2740:2762  require(isUser[_user]) */\n      iszero\n      iszero\n      tag_210\n      jumpi\n      0x0\n      dup1\n      revert\n    tag_210:\n        /* \"contracts/ddddd.sol\":2781:2785  user */\n      0x3\n        /* \"contracts/ddddd.sol\":2781:2792  user[_user] */\n      0x0\n        /* \"contracts/ddddd.sol\":2786:2791  _user */\n      dup13\n        /* \"contracts/ddddd.sol\":2781:2792  user[_user] */\n      0xffffffffffffffffffffffffffffffffffffffff\n      and\n      0xffffffffffffffffffffffffffffffffffffffff\n      and\n      dup2\n      mstore\n      0x20\n      add\n      swap1\n      dup2\n      mstore\n      0x20\n      add\n      0x0\n      keccak256\n        /* \"contracts/ddddd.sol\":2773:2792  var u = user[_user] */\n      swap1\n      pop\n        /* \"contracts/ddddd.sol\":2823:2829  _uaeId */\n      dup10\n        /* \"contracts/ddddd.sol\":2813:2814  u */\n      dup2\n        /* \"contracts/ddddd.sol\":2813:2820  u.uaeId */\n      0x0\n      add\n        /* \"contracts/ddddd.sol\":2813:2829  u.uaeId = _uaeId */\n      swap1\n      dup1\n      mload\n      swap1\n      0x20\n      add\n      swap1\n      tag_211\n      swap3\n      swap2\n      swap1\n      jump\t// in(tag_175)\n    tag_211:\n      pop\n        /* \"contracts/ddddd.sol\":2849:2854  _name */\n      dup9\n        /* \"contracts/ddddd.sol\":2840:2841  u */\n      dup2\n        /* \"contracts/ddddd.sol\":2840:2846  u.name */\n      0x1\n      add\n        /* \"contracts/ddddd.sol\":2840:2854  u.name = _name */\n      swap1\n      dup1\n      mload\n      swap1\n      0x20\n      add\n      swap1\n      tag_212\n      swap3\n      swap2\n      swap1\n      jump\t// in(tag_175)\n    tag_212:\n      pop\n        /* \"contracts/ddddd.sol\":2875:2881  _phone */\n      dup8\n        /* \"contracts/ddddd.sol\":2865:2866  u */\n      dup2\n        /* \"contracts/ddddd.sol\":2865:2872  u.phone */\n      0x2\n      add\n        /* \"contracts/ddddd.sol\":2865:2881  u.phone = _phone */\n      swap1\n      dup1\n      mload\n      swap1\n      0x20\n      add\n      swap1\n      tag_213\n      swap3\n      swap2\n      swap1\n      jump\t// in(tag_175)\n    tag_213:\n      pop\n        /* \"contracts/ddddd.sol\":2903:2910  _gender */\n      dup7\n        /* \"contracts/ddddd.sol\":2892:2893  u */\n      dup2\n        /* \"contracts/ddddd.sol\":2892:2900  u.gender */\n      0x3\n      add\n        /* \"contracts/ddddd.sol\":2892:2910  u.gender = _gender */\n      swap1\n      dup1\n      mload\n      swap1\n      0x20\n      add\n      swap1\n      tag_214\n      swap3\n      swap2\n      swap1\n      jump\t// in(tag_175)\n    tag_214:\n      pop\n        /* \"contracts/ddddd.sol\":2929:2933  _dob */\n      dup6\n        /* \"contracts/ddddd.sol\":2921:2922  u */\n      dup2\n        /* \"contracts/ddddd.sol\":2921:2926  u.dob */\n      0x4\n      add\n        /* \"contracts/ddddd.sol\":2921:2933  u.dob = _dob */\n      swap1\n      dup1\n      mload\n      swap1\n      0x20\n      add\n      swap1\n      tag_215\n      swap3\n      swap2\n      swap1\n      jump\t// in(tag_175)\n    tag_215:\n      pop\n        /* \"contracts/ddddd.sol\":2953:2958  _addr */\n      dup5\n        /* \"contracts/ddddd.sol\":2944:2945  u */\n      dup2\n        /* \"contracts/ddddd.sol\":2944:2950  u.addr */\n      0x5\n      add\n        /* \"contracts/ddddd.sol\":2944:2958  u.addr = _addr */\n      swap1\n      dup1\n      mload\n      swap1\n      0x20\n      add\n      swap1\n      tag_216\n      swap3\n      swap2\n      swap1\n      jump\t// in(tag_175)\n    tag_216:\n      pop\n        /* \"contracts/ddddd.sol\":2979:2985  _email */\n      dup4\n        /* \"contracts/ddddd.sol\":2969:2970  u */\n      dup2\n        /* \"contracts/ddddd.sol\":2969:2976  u.email */\n      0x6\n      add\n        /* \"contracts/ddddd.sol\":2969:2985  u.email = _email */\n      swap1\n      dup1\n      mload\n      swap1\n      0x20\n      add\n      swap1\n      tag_217\n      swap3\n      swap2\n      swap1\n      jump\t// in(tag_175)\n    tag_217:\n      pop\n        /* \"contracts/ddddd.sol\":3012:3024  _nomineeName */\n      dup3\n        /* \"contracts/ddddd.sol\":2996:2997  u */\n      dup2\n        /* \"contracts/ddddd.sol\":2996:3009  u.nomineeName */\n      0x7\n      add\n        /* \"contracts/ddddd.sol\":2996:3024  u.nomineeName = _nomineeName */\n      swap1\n      dup1\n      mload\n      swap1\n      0x20\n      add\n      swap1\n      tag_218\n      swap3\n      swap2\n      swap1\n      jump\t// in(tag_175)\n    tag_218:\n      pop\n        /* \"contracts/ddddd.sol\":3054:3069  _nomineeContact */\n      dup2\n        /* \"contracts/ddddd.sol\":3035:3036  u */\n      dup2\n        /* \"contracts/ddddd.sol\":3035:3051  u.nomineeContact */\n      0x8\n      add\n        /* \"contracts/ddddd.sol\":3035:3069  u.nomineeContact = _nomineeContact */\n      swap1\n      dup1\n      mload\n      swap1\n      0x20\n      add\n      swap1\n      tag_219\n      swap3\n      swap2\n      swap1\n      jump\t// in(tag_175)\n    tag_219:\n      pop\n        /* \"contracts/ddddd.sol\":3093:3098  _user */\n      dup11\n        /* \"contracts/ddddd.sol\":3080:3081  u */\n      dup2\n        /* \"contracts/ddddd.sol\":3080:3090  u.eAddress */\n      0x9\n      add\n      0x0\n        /* \"contracts/ddddd.sol\":3080:3098  u.eAddress = _user */\n      0x100\n      exp\n      dup2\n      sload\n      dup2\n      0xffffffffffffffffffffffffffffffffffffffff\n      mul\n      not\n      and\n      swap1\n      dup4\n      0xffffffffffffffffffffffffffffffffffffffff\n      and\n      mul\n      or\n      swap1\n      sstore\n      pop\n        /* \"contracts/ddddd.sol\":2499:3108  function editUser(address _user, string _uaeId, string _name, string _phone, string _gender, string _dob, string _addr, string _email, string _nomineeName, string _nomineeContact) public {\r... */\n      pop\n      pop\n      pop\n      pop\n      pop\n      pop\n      pop\n      pop\n      pop\n      pop\n      pop\n      jump\t// out\n        /* \"contracts/ddddd.sol\":1072:1102  uint256 public doctorCount = 0 */\n    tag_86:\n      sload(0x9)\n      dup2\n      jump\t// out\n        /* \"contracts/ddddd.sol\":6551:6643  function getDoctorCount() public view returns(uint256) {\r... */\n    tag_90:\n        /* \"contracts/ddddd.sol\":6597:6604  uint256 */\n      0x0\n        /* \"contracts/ddddd.sol\":6624:6635  doctorCount */\n      sload(0x9)\n        /* \"contracts/ddddd.sol\":6617:6635  return doctorCount */\n      swap1\n      pop\n        /* \"contracts/ddddd.sol\":6551:6643  function getDoctorCount() public view returns(uint256) {\r... */\n      swap1\n      jump\t// out\n        /* \"contracts/ddddd.sol\":689:709  address public owner */\n    tag_94:\n      0x0\n      dup1\n      swap1\n      sload\n      swap1\n      0x100\n      exp\n      swap1\n      div\n      0xffffffffffffffffffffffffffffffffffffffff\n      and\n      dup2\n      jump\t// out\n        /* \"contracts/ddddd.sol\":1286:1354  function ownerAddress() public {\r... */\n    tag_98:\n        /* \"contracts/ddddd.sol\":1336:1346  msg.sender */\n      caller\n        /* \"contracts/ddddd.sol\":1328:1333  owner */\n      0x0\n      dup1\n        /* \"contracts/ddddd.sol\":1328:1346  owner = msg.sender */\n      0x100\n      exp\n      dup2\n      sload\n      dup2\n      0xffffffffffffffffffffffffffffffffffffffff\n      mul\n      not\n      and\n      swap1\n      dup4\n      0xffffffffffffffffffffffffffffffffffffffff\n      and\n      mul\n      or\n      swap1\n      sstore\n      pop\n        /* \"contracts/ddddd.sol\":1286:1354  function ownerAddress() public {\r... */\n      jump\t// out\n        /* \"contracts/ddddd.sol\":1109:1148  uint256 public MoHPermissionCounter = 0 */\n    tag_101:\n      sload(0xa)\n      dup2\n      jump\t// out\n        /* \"contracts/ddddd.sol\":716:741  address[] public userList */\n    tag_106:\n      0x1\n      dup2\n      dup2\n      sload\n      dup2\n      lt\n      iszero\n      iszero\n      tag_222\n      jumpi\n      invalid\n    tag_222:\n      swap1\n      0x0\n      mstore\n      keccak256(0x0, 0x20)\n      add\n      0x0\n      swap2\n      pop\n      sload\n      swap1\n      0x100\n      exp\n      swap1\n      div\n      0xffffffffffffffffffffffffffffffffffffffff\n      and\n      dup2\n      jump\t// out\n        /* \"contracts/ddddd.sol\":5366:5455  function getDoctors() public view returns(address[]) {\r... */\n    tag_110:\n        /* \"contracts/ddddd.sol\":5408:5417  address[] */\n      0x60\n        /* \"contracts/ddddd.sol\":5437:5447  doctorList */\n      0x2\n        /* \"contracts/ddddd.sol\":5430:5447  return doctorList */\n      dup1\n      sload\n      dup1\n      0x20\n      mul\n      0x20\n      add\n      mload(0x40)\n      swap1\n      dup2\n      add\n      0x40\n      mstore\n      dup1\n      swap3\n      swap2\n      swap1\n      dup2\n      dup2\n      mstore\n      0x20\n      add\n      dup3\n      dup1\n      sload\n      dup1\n      iszero\n      tag_225\n      jumpi\n      0x20\n      mul\n      dup3\n      add\n      swap2\n      swap1\n      0x0\n      mstore\n      keccak256(0x0, 0x20)\n      swap1\n    tag_226:\n      dup2\n      0x0\n      swap1\n      sload\n      swap1\n      0x100\n      exp\n      swap1\n      div\n      0xffffffffffffffffffffffffffffffffffffffff\n      and\n      0xffffffffffffffffffffffffffffffffffffffff\n      and\n      dup2\n      mstore\n      0x20\n      add\n      swap1\n      0x1\n      add\n      swap1\n      dup1\n      dup4\n      gt\n      tag_226\n      jumpi\n    tag_225:\n      pop\n      pop\n      pop\n      pop\n      pop\n      swap1\n      pop\n        /* \"contracts/ddddd.sol\":5366:5455  function getDoctors() public view returns(address[]) {\r... */\n      swap1\n      jump\t// out\n        /* \"contracts/ddddd.sol\":6455:6543  function getUserCount() public view returns(uint256) {\r... */\n    tag_114:\n        /* \"contracts/ddddd.sol\":6499:6506  uint256 */\n      0x0\n        /* \"contracts/ddddd.sol\":6526:6535  userCount */\n      sload(0x8)\n        /* \"contracts/ddddd.sol\":6519:6535  return userCount */\n      swap1\n      pop\n        /* \"contracts/ddddd.sol\":6455:6543  function getUserCount() public view returns(uint256) {\r... */\n      swap1\n      jump\t// out\n        /* \"contracts/ddddd.sol\":1204:1273  address public mohAdress = 0xc50C6297f56b033633C30354A854b074749cd2dC */\n    tag_118:\n      0xc\n      0x0\n      swap1\n      sload\n      swap1\n      0x100\n      exp\n      swap1\n      div\n      0xffffffffffffffffffffffffffffffffffffffff\n      and\n      dup2\n      jump\t// out\n        /* \"contracts/ddddd.sol\":5041:5261  function MoHRevokePermission(address _address1, address _address2) public returns(bool success) {\r... */\n    tag_124:\n        /* \"contracts/ddddd.sol\":5123:5135  bool success */\n      0x0\n        /* \"contracts/ddddd.sol\":5170:5179  mohAdress */\n      0xc\n      0x0\n      swap1\n      sload\n      swap1\n      0x100\n      exp\n      swap1\n      div\n      0xffffffffffffffffffffffffffffffffffffffff\n      and\n        /* \"contracts/ddddd.sol\":5156:5179  msg.sender == mohAdress */\n      0xffffffffffffffffffffffffffffffffffffffff\n      and\n        /* \"contracts/ddddd.sol\":5156:5166  msg.sender */\n      caller\n        /* \"contracts/ddddd.sol\":5156:5179  msg.sender == mohAdress */\n      0xffffffffffffffffffffffffffffffffffffffff\n      and\n      eq\n        /* \"contracts/ddddd.sol\":5148:5180  require(msg.sender == mohAdress) */\n      iszero\n      iszero\n      tag_229\n      jumpi\n      0x0\n      dup1\n      revert\n    tag_229:\n        /* \"contracts/ddddd.sol\":5226:5231  false */\n      0x0\n        /* \"contracts/ddddd.sol\":5191:5201  isApproved */\n      0x5\n        /* \"contracts/ddddd.sol\":5191:5212  isApproved[_address1] */\n      0x0\n        /* \"contracts/ddddd.sol\":5202:5211  _address1 */\n      dup6\n        /* \"contracts/ddddd.sol\":5191:5212  isApproved[_address1] */\n      0xffffffffffffffffffffffffffffffffffffffff\n      and\n      0xffffffffffffffffffffffffffffffffffffffff\n      and\n      dup2\n      mstore\n      0x20\n      add\n      swap1\n      dup2\n      mstore\n      0x20\n      add\n      0x0\n      keccak256\n        /* \"contracts/ddddd.sol\":5191:5223  isApproved[_address1][_address2] */\n      0x0\n        /* \"contracts/ddddd.sol\":5213:5222  _address2 */\n      dup5\n        /* \"contracts/ddddd.sol\":5191:5223  isApproved[_address1][_address2] */\n      0xffffffffffffffffffffffffffffffffffffffff\n      and\n      0xffffffffffffffffffffffffffffffffffffffff\n      and\n      dup2\n      mstore\n      0x20\n      add\n      swap1\n      dup2\n      mstore\n      0x20\n      add\n      0x0\n      keccak256\n      0x0\n        /* \"contracts/ddddd.sol\":5191:5231  isApproved[_address1][_address2] = false */\n      0x100\n      exp\n      dup2\n      sload\n      dup2\n      0xff\n      mul\n      not\n      and\n      swap1\n      dup4\n      iszero\n      iszero\n      mul\n      or\n      swap1\n      sstore\n      pop\n        /* \"contracts/ddddd.sol\":5249:5253  true */\n      0x1\n        /* \"contracts/ddddd.sol\":5242:5253  return true */\n      swap1\n      pop\n        /* \"contracts/ddddd.sol\":5041:5261  function MoHRevokePermission(address _address1, address _address2) public returns(bool success) {\r... */\n      swap3\n      swap2\n      pop\n      pop\n      jump\t// out\n        /* \"contracts/ddddd.sol\":1155:1195  uint256 public userPermissionCounter = 0 */\n    tag_128:\n      sload(0xb)\n      dup2\n      jump\t// out\n        /* \"contracts/ddddd.sol\":6145:6439  function searchDoctor(address _address) public view returns(string, string, string, string, string, string, string) {\r... */\n    tag_133:\n        /* \"contracts/ddddd.sol\":6205:6211  string */\n      0x60\n        /* \"contracts/ddddd.sol\":6213:6219  string */\n      dup1\n        /* \"contracts/ddddd.sol\":6221:6227  string */\n      0x60\n        /* \"contracts/ddddd.sol\":6229:6235  string */\n      dup1\n        /* \"contracts/ddddd.sol\":6237:6243  string */\n      0x60\n        /* \"contracts/ddddd.sol\":6245:6251  string */\n      dup1\n        /* \"contracts/ddddd.sol\":6253:6259  string */\n      0x60\n        /* \"contracts/ddddd.sol\":6310:6315  var d */\n      0x0\n        /* \"contracts/ddddd.sol\":6280:6288  isDoctor */\n      0x7\n        /* \"contracts/ddddd.sol\":6280:6298  isDoctor[_address] */\n      0x0\n        /* \"contracts/ddddd.sol\":6289:6297  _address */\n      dup11\n        /* \"contracts/ddddd.sol\":6280:6298  isDoctor[_address] */\n      0xffffffffffffffffffffffffffffffffffffffff\n      and\n      0xffffffffffffffffffffffffffffffffffffffff\n      and\n      dup2\n      mstore\n      0x20\n      add\n      swap1\n      dup2\n      mstore\n      0x20\n      add\n      0x0\n      keccak256\n      0x0\n      swap1\n      sload\n      swap1\n      0x100\n      exp\n      swap1\n      div\n      0xff\n      and\n        /* \"contracts/ddddd.sol\":6272:6299  require(isDoctor[_address]) */\n      iszero\n      iszero\n      tag_231\n      jumpi\n      0x0\n      dup1\n      revert\n    tag_231:\n        /* \"contracts/ddddd.sol\":6318:6324  doctor */\n      0x4\n        /* \"contracts/ddddd.sol\":6318:6334  doctor[_address] */\n      0x0\n        /* \"contracts/ddddd.sol\":6325:6333  _address */\n      dup11\n        /* \"contracts/ddddd.sol\":6318:6334  doctor[_address] */\n      0xffffffffffffffffffffffffffffffffffffffff\n      and\n      0xffffffffffffffffffffffffffffffffffffffff\n      and\n      dup2\n      mstore\n      0x20\n      add\n      swap1\n      dup2\n      mstore\n      0x20\n      add\n      0x0\n      keccak256\n        /* \"contracts/ddddd.sol\":6310:6334  var d = doctor[_address] */\n      swap1\n      pop\n        /* \"contracts/ddddd.sol\":6363:6364  d */\n      dup1\n        /* \"contracts/ddddd.sol\":6363:6370  d.uaeId */\n      0x0\n      add\n        /* \"contracts/ddddd.sol\":6372:6373  d */\n      dup2\n        /* \"contracts/ddddd.sol\":6372:6378  d.name */\n      0x1\n      add\n        /* \"contracts/ddddd.sol\":6380:6381  d */\n      dup3\n        /* \"contracts/ddddd.sol\":6380:6387  d.phone */\n      0x2\n      add\n        /* \"contracts/ddddd.sol\":6389:6390  d */\n      dup4\n        /* \"contracts/ddddd.sol\":6389:6397  d.gender */\n      0x3\n      add\n        /* \"contracts/ddddd.sol\":6399:6400  d */\n      dup5\n        /* \"contracts/ddddd.sol\":6399:6404  d.dob */\n      0x4\n      add\n        /* \"contracts/ddddd.sol\":6406:6407  d */\n      dup6\n        /* \"contracts/ddddd.sol\":6406:6421  d.qualification */\n      0x7\n      add\n        /* \"contracts/ddddd.sol\":6423:6424  d */\n      dup7\n        /* \"contracts/ddddd.sol\":6423:6430  d.major */\n      0x8\n      add\n        /* \"contracts/ddddd.sol\":6355:6431  return (d.uaeId, d.name, d.phone, d.gender, d.dob, d.qualification, d.major) */\n      dup7\n      dup1\n      sload\n      0x1\n      dup2\n      0x1\n      and\n      iszero\n      0x100\n      mul\n      sub\n      and\n      0x2\n      swap1\n      div\n      dup1\n      0x1f\n      add\n      0x20\n      dup1\n      swap2\n      div\n      mul\n      0x20\n      add\n      mload(0x40)\n      swap1\n      dup2\n      add\n      0x40\n      mstore\n      dup1\n      swap3\n      swap2\n      swap1\n      dup2\n      dup2\n      mstore\n      0x20\n      add\n      dup3\n      dup1\n      sload\n      0x1\n      dup2\n      0x1\n      and\n      iszero\n      0x100\n      mul\n      sub\n      and\n      0x2\n      swap1\n      div\n      dup1\n      iszero\n      tag_232\n      jumpi\n      dup1\n      0x1f\n      lt\n      tag_233\n      jumpi\n      0x100\n      dup1\n      dup4\n      sload\n      div\n      mul\n      dup4\n      mstore\n      swap2\n      0x20\n      add\n      swap2\n      jump(tag_232)\n    tag_233:\n      dup3\n      add\n      swap2\n      swap1\n      0x0\n      mstore\n      keccak256(0x0, 0x20)\n      swap1\n    tag_234:\n      dup2\n      sload\n      dup2\n      mstore\n      swap1\n      0x1\n      add\n      swap1\n      0x20\n      add\n      dup1\n      dup4\n      gt\n      tag_234\n      jumpi\n      dup3\n      swap1\n      sub\n      0x1f\n      and\n      dup3\n      add\n      swap2\n    tag_232:\n      pop\n      pop\n      pop\n      pop\n      pop\n      swap7\n      pop\n      dup6\n      dup1\n      sload\n      0x1\n      dup2\n      0x1\n      and\n      iszero\n      0x100\n      mul\n      sub\n      and\n      0x2\n      swap1\n      div\n      dup1\n      0x1f\n      add\n      0x20\n      dup1\n      swap2\n      div\n      mul\n      0x20\n      add\n      mload(0x40)\n      swap1\n      dup2\n      add\n      0x40\n      mstore\n      dup1\n      swap3\n      swap2\n      swap1\n      dup2\n      dup2\n      mstore\n      0x20\n      add\n      dup3\n      dup1\n      sload\n      0x1\n      dup2\n      0x1\n      and\n      iszero\n      0x100\n      mul\n      sub\n      and\n      0x2\n      swap1\n      div\n      dup1\n      iszero\n      tag_235\n      jumpi\n      dup1\n      0x1f\n      lt\n      tag_236\n      jumpi\n      0x100\n      dup1\n      dup4\n      sload\n      div\n      mul\n      dup4\n      mstore\n      swap2\n      0x20\n      add\n      swap2\n      jump(tag_235)\n    tag_236:\n      dup3\n      add\n      swap2\n      swap1\n      0x0\n      mstore\n      keccak256(0x0, 0x20)\n      swap1\n    tag_237:\n      dup2\n      sload\n      dup2\n      mstore\n      swap1\n      0x1\n      add\n      swap1\n      0x20\n      add\n      dup1\n      dup4\n      gt\n      tag_237\n      jumpi\n      dup3\n      swap1\n      sub\n      0x1f\n      and\n      dup3\n      add\n      swap2\n    tag_235:\n      pop\n      pop\n      pop\n      pop\n      pop\n      swap6\n      pop\n      dup5\n      dup1\n      sload\n      0x1\n      dup2\n      0x1\n      and\n      iszero\n      0x100\n      mul\n      sub\n      and\n      0x2\n      swap1\n      div\n      dup1\n      0x1f\n      add\n      0x20\n      dup1\n      swap2\n      div\n      mul\n      0x20\n      add\n      mload(0x40)\n      swap1\n      dup2\n      add\n      0x40\n      mstore\n      dup1\n      swap3\n      swap2\n      swap1\n      dup2\n      dup2\n      mstore\n      0x20\n      add\n      dup3\n      dup1\n      sload\n      0x1\n      dup2\n      0x1\n      and\n      iszero\n      0x100\n      mul\n      sub\n      and\n      0x2\n      swap1\n      div\n      dup1\n      iszero\n      tag_238\n      jumpi\n      dup1\n      0x1f\n      lt\n      tag_239\n      jumpi\n      0x100\n      dup1\n      dup4\n      sload\n      div\n      mul\n      dup4\n      mstore\n      swap2\n      0x20\n      add\n      swap2\n      jump(tag_238)\n    tag_239:\n      dup3\n      add\n      swap2\n      swap1\n      0x0\n      mstore\n      keccak256(0x0, 0x20)\n      swap1\n    tag_240:\n      dup2\n      sload\n      dup2\n      mstore\n      swap1\n      0x1\n      add\n      swap1\n      0x20\n      add\n      dup1\n      dup4\n      gt\n      tag_240\n      jumpi\n      dup3\n      swap1\n      sub\n      0x1f\n      and\n      dup3\n      add\n      swap2\n    tag_238:\n      pop\n      pop\n      pop\n      pop\n      pop\n      swap5\n      pop\n      dup4\n      dup1\n      sload\n      0x1\n      dup2\n      0x1\n      and\n      iszero\n      0x100\n      mul\n      sub\n      and\n      0x2\n      swap1\n      div\n      dup1\n      0x1f\n      add\n      0x20\n      dup1\n      swap2\n      div\n      mul\n      0x20\n      add\n      mload(0x40)\n      swap1\n      dup2\n      add\n      0x40\n      mstore\n      dup1\n      swap3\n      swap2\n      swap1\n      dup2\n      dup2\n      mstore\n      0x20\n      add\n      dup3\n      dup1\n      sload\n      0x1\n      dup2\n      0x1\n      and\n      iszero\n      0x100\n      mul\n      sub\n      and\n      0x2\n      swap1\n      div\n      dup1\n      iszero\n      tag_241\n      jumpi\n      dup1\n      0x1f\n      lt\n      tag_242\n      jumpi\n      0x100\n      dup1\n      dup4\n      sload\n      div\n      mul\n      dup4\n      mstore\n      swap2\n      0x20\n      add\n      swap2\n      jump(tag_241)\n    tag_242:\n      dup3\n      add\n      swap2\n      swap1\n      0x0\n      mstore\n      keccak256(0x0, 0x20)\n      swap1\n    tag_243:\n      dup2\n      sload\n      dup2\n      mstore\n      swap1\n      0x1\n      add\n      swap1\n      0x20\n      add\n      dup1\n      dup4\n      gt\n      tag_243\n      jumpi\n      dup3\n      swap1\n      sub\n      0x1f\n      and\n      dup3\n      add\n      swap2\n    tag_241:\n      pop\n      pop\n      pop\n      pop\n      pop\n      swap4\n      pop\n      dup3\n      dup1\n      sload\n      0x1\n      dup2\n      0x1\n      and\n      iszero\n      0x100\n      mul\n      sub\n      and\n      0x2\n      swap1\n      div\n      dup1\n      0x1f\n      add\n      0x20\n      dup1\n      swap2\n      div\n      mul\n      0x20\n      add\n      mload(0x40)\n      swap1\n      dup2\n      add\n      0x40\n      mstore\n      dup1\n      swap3\n      swap2\n      swap1\n      dup2\n      dup2\n      mstore\n      0x20\n      add\n      dup3\n      dup1\n      sload\n      0x1\n      dup2\n      0x1\n      and\n      iszero\n      0x100\n      mul\n      sub\n      and\n      0x2\n      swap1\n      div\n      dup1\n      iszero\n      tag_244\n      jumpi\n      dup1\n      0x1f\n      lt\n      tag_245\n      jumpi\n      0x100\n      dup1\n      dup4\n      sload\n      div\n      mul\n      dup4\n      mstore\n      swap2\n      0x20\n      add\n      swap2\n      jump(tag_244)\n    tag_245:\n      dup3\n      add\n      swap2\n      swap1\n      0x0\n      mstore\n      keccak256(0x0, 0x20)\n      swap1\n    tag_246:\n      dup2\n      sload\n      dup2\n      mstore\n      swap1\n      0x1\n      add\n      swap1\n      0x20\n      add\n      dup1\n      dup4\n      gt\n      tag_246\n      jumpi\n      dup3\n      swap1\n      sub\n      0x1f\n      and\n      dup3\n      add\n      swap2\n    tag_244:\n      pop\n      pop\n      pop\n      pop\n      pop\n      swap3\n      pop\n      dup2\n      dup1\n      sload\n      0x1\n      dup2\n      0x1\n      and\n      iszero\n      0x100\n      mul\n      sub\n      and\n      0x2\n      swap1\n      div\n      dup1\n      0x1f\n      add\n      0x20\n      dup1\n      swap2\n      div\n      mul\n      0x20\n      add\n      mload(0x40)\n      swap1\n      dup2\n      add\n      0x40\n      mstore\n      dup1\n      swap3\n      swap2\n      swap1\n      dup2\n      dup2\n      mstore\n      0x20\n      add\n      dup3\n      dup1\n      sload\n      0x1\n      dup2\n      0x1\n      and\n      iszero\n      0x100\n      mul\n      sub\n      and\n      0x2\n      swap1\n      div\n      dup1\n      iszero\n      tag_247\n      jumpi\n      dup1\n      0x1f\n      lt\n      tag_248\n      jumpi\n      0x100\n      dup1\n      dup4\n      sload\n      div\n      mul\n      dup4\n      mstore\n      swap2\n      0x20\n      add\n      swap2\n      jump(tag_247)\n    tag_248:\n      dup3\n      add\n      swap2\n      swap1\n      0x0\n      mstore\n      keccak256(0x0, 0x20)\n      swap1\n    tag_249:\n      dup2\n      sload\n      dup2\n      mstore\n      swap1\n      0x1\n      add\n      swap1\n      0x20\n      add\n      dup1\n      dup4\n      gt\n      tag_249\n      jumpi\n      dup3\n      swap1\n      sub\n      0x1f\n      and\n      dup3\n      add\n      swap2\n    tag_247:\n      pop\n      pop\n      pop\n      pop\n      pop\n      swap2\n      pop\n      dup1\n      dup1\n      sload\n      0x1\n      dup2\n      0x1\n      and\n      iszero\n      0x100\n      mul\n      sub\n      and\n      0x2\n      swap1\n      div\n      dup1\n      0x1f\n      add\n      0x20\n      dup1\n      swap2\n      div\n      mul\n      0x20\n      add\n      mload(0x40)\n      swap1\n      dup2\n      add\n      0x40\n      mstore\n      dup1\n      swap3\n      swap2\n      swap1\n      dup2\n      dup2\n      mstore\n      0x20\n      add\n      dup3\n      dup1\n      sload\n      0x1\n      dup2\n      0x1\n      and\n      iszero\n      0x100\n      mul\n      sub\n      and\n      0x2\n      swap1\n      div\n      dup1\n      iszero\n      tag_250\n      jumpi\n      dup1\n      0x1f\n      lt\n      tag_251\n      jumpi\n      0x100\n      dup1\n      dup4\n      sload\n      div\n      mul\n      dup4\n      mstore\n      swap2\n      0x20\n      add\n      swap2\n      jump(tag_250)\n    tag_251:\n      dup3\n      add\n      swap2\n      swap1\n      0x0\n      mstore\n      keccak256(0x0, 0x20)\n      swap1\n    tag_252:\n      dup2\n      sload\n      dup2\n      mstore\n      swap1\n      0x1\n      add\n      swap1\n      0x20\n      add\n      dup1\n      dup4\n      gt\n      tag_252\n      jumpi\n      dup3\n      swap1\n      sub\n      0x1f\n      and\n      dup3\n      add\n      swap2\n    tag_250:\n      pop\n      pop\n      pop\n      pop\n      pop\n      swap1\n      pop\n      swap8\n      pop\n      swap8\n      pop\n      swap8\n      pop\n      swap8\n      pop\n      swap8\n      pop\n      swap8\n      pop\n      swap8\n      pop\n        /* \"contracts/ddddd.sol\":6145:6439  function searchDoctor(address _address) public view returns(string, string, string, string, string, string, string) {\r... */\n      pop\n      swap2\n      swap4\n      swap6\n      swap8\n      swap1\n      swap3\n      swap5\n      swap7\n      pop\n      jump\t// out\n        /* \"contracts/ddddd.sol\":4613:4865  function givePermissionByMoH(address _address1, address _address2) public returns(bool success) {\r... */\n    tag_139:\n        /* \"contracts/ddddd.sol\":4695:4707  bool success */\n      0x0\n        /* \"contracts/ddddd.sol\":4742:4751  mohAdress */\n      0xc\n      0x0\n      swap1\n      sload\n      swap1\n      0x100\n      exp\n      swap1\n      div\n      0xffffffffffffffffffffffffffffffffffffffff\n      and\n        /* \"contracts/ddddd.sol\":4728:4751  msg.sender == mohAdress */\n      0xffffffffffffffffffffffffffffffffffffffff\n      and\n        /* \"contracts/ddddd.sol\":4728:4738  msg.sender */\n      caller\n        /* \"contracts/ddddd.sol\":4728:4751  msg.sender == mohAdress */\n      0xffffffffffffffffffffffffffffffffffffffff\n      and\n      eq\n        /* \"contracts/ddddd.sol\":4720:4752  require(msg.sender == mohAdress) */\n      iszero\n      iszero\n      tag_254\n      jumpi\n      0x0\n      dup1\n      revert\n    tag_254:\n        /* \"contracts/ddddd.sol\":4798:4802  true */\n      0x1\n        /* \"contracts/ddddd.sol\":4763:4773  isApproved */\n      0x5\n        /* \"contracts/ddddd.sol\":4763:4784  isApproved[_address1] */\n      0x0\n        /* \"contracts/ddddd.sol\":4774:4783  _address1 */\n      dup6\n        /* \"contracts/ddddd.sol\":4763:4784  isApproved[_address1] */\n      0xffffffffffffffffffffffffffffffffffffffff\n      and\n      0xffffffffffffffffffffffffffffffffffffffff\n      and\n      dup2\n      mstore\n      0x20\n      add\n      swap1\n      dup2\n      mstore\n      0x20\n      add\n      0x0\n      keccak256\n        /* \"contracts/ddddd.sol\":4763:4795  isApproved[_address1][_address2] */\n      0x0\n        /* \"contracts/ddddd.sol\":4785:4794  _address2 */\n      dup5\n        /* \"contracts/ddddd.sol\":4763:4795  isApproved[_address1][_address2] */\n      0xffffffffffffffffffffffffffffffffffffffff\n      and\n      0xffffffffffffffffffffffffffffffffffffffff\n      and\n      dup2\n      mstore\n      0x20\n      add\n      swap1\n      dup2\n      mstore\n      0x20\n      add\n      0x0\n      keccak256\n      0x0\n        /* \"contracts/ddddd.sol\":4763:4802  isApproved[_address1][_address2] = true */\n      0x100\n      exp\n      dup2\n      sload\n      dup2\n      0xff\n      mul\n      not\n      and\n      swap1\n      dup4\n      iszero\n      iszero\n      mul\n      or\n      swap1\n      sstore\n      pop\n        /* \"contracts/ddddd.sol\":4813:4833  MoHPermissionCounter */\n      0xa\n      0x0\n        /* \"contracts/ddddd.sol\":4813:4835  MoHPermissionCounter++ */\n      dup2\n      sload\n      dup1\n      swap3\n      swap2\n      swap1\n      0x1\n      add\n      swap2\n      swap1\n      pop\n      sstore\n      pop\n        /* \"contracts/ddddd.sol\":4853:4857  true */\n      0x1\n        /* \"contracts/ddddd.sol\":4846:4857  return true */\n      swap1\n      pop\n        /* \"contracts/ddddd.sol\":4613:4865  function givePermissionByMoH(address _address1, address _address2) public returns(bool success) {\r... */\n      swap3\n      swap2\n      pop\n      pop\n      jump\t// out\n        /* \"contracts/ddddd.sol\":6777:6887  function getMoHPermissionCounter() public view returns(uint256) {\r... */\n    tag_143:\n        /* \"contracts/ddddd.sol\":6832:6839  uint256 */\n      0x0\n        /* \"contracts/ddddd.sol\":6859:6879  MoHPermissionCounter */\n      sload(0xa)\n        /* \"contracts/ddddd.sol\":6852:6879  return MoHPermissionCounter */\n      swap1\n      pop\n        /* \"contracts/ddddd.sol\":6777:6887  function getMoHPermissionCounter() public view returns(uint256) {\r... */\n      swap1\n      jump\t// out\n        /* \"contracts/ddddd.sol\":67:6892  contract ddddd {\r... */\n    tag_175:\n      dup3\n      dup1\n      sload\n      0x1\n      dup2\n      0x1\n      and\n      iszero\n      0x100\n      mul\n      sub\n      and\n      0x2\n      swap1\n      div\n      swap1\n      0x0\n      mstore\n      keccak256(0x0, 0x20)\n      swap1\n      0x1f\n      add\n      0x20\n      swap1\n      div\n      dup2\n      add\n      swap3\n      dup3\n      0x1f\n      lt\n      tag_257\n      jumpi\n      dup1\n      mload\n      not(0xff)\n      and\n      dup4\n      dup1\n      add\n      or\n      dup6\n      sstore\n      jump(tag_256)\n    tag_257:\n      dup3\n      dup1\n      add\n      0x1\n      add\n      dup6\n      sstore\n      dup3\n      iszero\n      tag_256\n      jumpi\n      swap2\n      dup3\n      add\n    tag_258:\n      dup3\n      dup2\n      gt\n      iszero\n      tag_259\n      jumpi\n      dup3\n      mload\n      dup3\n      sstore\n      swap2\n      0x20\n      add\n      swap2\n      swap1\n      0x1\n      add\n      swap1\n      jump(tag_258)\n    tag_259:\n    tag_256:\n      pop\n      swap1\n      pop\n      tag_260\n      swap2\n      swap1\n      jump\t// in(tag_261)\n    tag_260:\n      pop\n      swap1\n      jump\t// out\n    tag_261:\n      tag_262\n      swap2\n      swap1\n    tag_263:\n      dup1\n      dup3\n      gt\n      iszero\n      tag_264\n      jumpi\n      0x0\n      dup2\n      0x0\n      swap1\n      sstore\n      pop\n      0x1\n      add\n      jump(tag_263)\n    tag_264:\n      pop\n      swap1\n      jump\n    tag_262:\n      swap1\n      jump\t// out\n        /* \"--CODEGEN--\":5:123   */\n    tag_266:\n      0x0\n        /* \"--CODEGEN--\":72:118   */\n      tag_267\n        /* \"--CODEGEN--\":110:116   */\n      dup3\n        /* \"--CODEGEN--\":97:117   */\n      calldataload\n        /* \"--CODEGEN--\":72:118   */\n      jump(tag_268)\n    tag_267:\n        /* \"--CODEGEN--\":63:118   */\n      swap1\n      pop\n        /* \"--CODEGEN--\":57:123   */\n      swap3\n      swap2\n      pop\n      pop\n      jump\n        /* \"--CODEGEN--\":131:573   */\n    tag_270:\n      0x0\n        /* \"--CODEGEN--\":233:236   */\n      dup3\n        /* \"--CODEGEN--\":226:230   */\n      0x1f\n        /* \"--CODEGEN--\":218:224   */\n      dup4\n        /* \"--CODEGEN--\":214:231   */\n      add\n        /* \"--CODEGEN--\":210:237   */\n      slt\n        /* \"--CODEGEN--\":203:238   */\n      iszero\n        /* \"--CODEGEN--\":200:202   */\n      iszero\n      tag_271\n      jumpi\n        /* \"--CODEGEN--\":251:252   */\n      0x0\n        /* \"--CODEGEN--\":248:249   */\n      dup1\n        /* \"--CODEGEN--\":241:253   */\n      revert\n        /* \"--CODEGEN--\":200:202   */\n    tag_271:\n        /* \"--CODEGEN--\":288:294   */\n      dup2\n        /* \"--CODEGEN--\":275:295   */\n      calldataload\n        /* \"--CODEGEN--\":310:375   */\n      tag_272\n        /* \"--CODEGEN--\":325:374   */\n      tag_273\n        /* \"--CODEGEN--\":367:373   */\n      dup3\n        /* \"--CODEGEN--\":325:374   */\n      jump(tag_274)\n    tag_273:\n        /* \"--CODEGEN--\":310:375   */\n      jump(tag_275)\n    tag_272:\n        /* \"--CODEGEN--\":301:375   */\n      swap2\n      pop\n        /* \"--CODEGEN--\":395:401   */\n      dup1\n        /* \"--CODEGEN--\":388:393   */\n      dup3\n        /* \"--CODEGEN--\":381:402   */\n      mstore\n        /* \"--CODEGEN--\":431:435   */\n      0x20\n        /* \"--CODEGEN--\":423:429   */\n      dup4\n        /* \"--CODEGEN--\":419:436   */\n      add\n        /* \"--CODEGEN--\":464:468   */\n      0x20\n        /* \"--CODEGEN--\":457:462   */\n      dup4\n        /* \"--CODEGEN--\":453:469   */\n      add\n        /* \"--CODEGEN--\":499:502   */\n      dup6\n        /* \"--CODEGEN--\":490:496   */\n      dup4\n        /* \"--CODEGEN--\":485:488   */\n      dup4\n        /* \"--CODEGEN--\":481:497   */\n      add\n        /* \"--CODEGEN--\":478:503   */\n      gt\n        /* \"--CODEGEN--\":475:477   */\n      iszero\n      tag_276\n      jumpi\n        /* \"--CODEGEN--\":516:517   */\n      0x0\n        /* \"--CODEGEN--\":513:514   */\n      dup1\n        /* \"--CODEGEN--\":506:518   */\n      revert\n        /* \"--CODEGEN--\":475:477   */\n    tag_276:\n        /* \"--CODEGEN--\":526:567   */\n      tag_277\n        /* \"--CODEGEN--\":560:566   */\n      dup4\n        /* \"--CODEGEN--\":555:558   */\n      dup3\n        /* \"--CODEGEN--\":550:553   */\n      dup5\n        /* \"--CODEGEN--\":526:567   */\n      jump(tag_278)\n    tag_277:\n        /* \"--CODEGEN--\":193:573   */\n      pop\n      pop\n      pop\n      swap3\n      swap2\n      pop\n      pop\n      jump\n        /* \"--CODEGEN--\":581:699   */\n    tag_280:\n      0x0\n        /* \"--CODEGEN--\":648:694   */\n      tag_281\n        /* \"--CODEGEN--\":686:692   */\n      dup3\n        /* \"--CODEGEN--\":673:693   */\n      calldataload\n        /* \"--CODEGEN--\":648:694   */\n      jump(tag_282)\n    tag_281:\n        /* \"--CODEGEN--\":639:694   */\n      swap1\n      pop\n        /* \"--CODEGEN--\":633:699   */\n      swap3\n      swap2\n      pop\n      pop\n      jump\n        /* \"--CODEGEN--\":706:947   */\n    tag_40:\n      0x0\n        /* \"--CODEGEN--\":810:812   */\n      0x20\n        /* \"--CODEGEN--\":798:807   */\n      dup3\n        /* \"--CODEGEN--\":789:796   */\n      dup5\n        /* \"--CODEGEN--\":785:808   */\n      sub\n        /* \"--CODEGEN--\":781:813   */\n      slt\n        /* \"--CODEGEN--\":778:780   */\n      iszero\n      tag_284\n      jumpi\n        /* \"--CODEGEN--\":826:827   */\n      0x0\n        /* \"--CODEGEN--\":823:824   */\n      dup1\n        /* \"--CODEGEN--\":816:828   */\n      revert\n        /* \"--CODEGEN--\":778:780   */\n    tag_284:\n        /* \"--CODEGEN--\":861:862   */\n      0x0\n        /* \"--CODEGEN--\":878:931   */\n      tag_285\n        /* \"--CODEGEN--\":923:930   */\n      dup5\n        /* \"--CODEGEN--\":914:920   */\n      dup3\n        /* \"--CODEGEN--\":903:912   */\n      dup6\n        /* \"--CODEGEN--\":899:921   */\n      add\n        /* \"--CODEGEN--\":878:931   */\n      jump(tag_266)\n    tag_285:\n        /* \"--CODEGEN--\":868:931   */\n      swap2\n      pop\n        /* \"--CODEGEN--\":840:937   */\n      pop\n        /* \"--CODEGEN--\":772:947   */\n      swap3\n      swap2\n      pop\n      pop\n      jump\n        /* \"--CODEGEN--\":954:1320   */\n    tag_123:\n      0x0\n      dup1\n        /* \"--CODEGEN--\":1075:1077   */\n      0x40\n        /* \"--CODEGEN--\":1063:1072   */\n      dup4\n        /* \"--CODEGEN--\":1054:1061   */\n      dup6\n        /* \"--CODEGEN--\":1050:1073   */\n      sub\n        /* \"--CODEGEN--\":1046:1078   */\n      slt\n        /* \"--CODEGEN--\":1043:1045   */\n      iszero\n      tag_287\n      jumpi\n        /* \"--CODEGEN--\":1091:1092   */\n      0x0\n        /* \"--CODEGEN--\":1088:1089   */\n      dup1\n        /* \"--CODEGEN--\":1081:1093   */\n      revert\n        /* \"--CODEGEN--\":1043:1045   */\n    tag_287:\n        /* \"--CODEGEN--\":1126:1127   */\n      0x0\n        /* \"--CODEGEN--\":1143:1196   */\n      tag_288\n        /* \"--CODEGEN--\":1188:1195   */\n      dup6\n        /* \"--CODEGEN--\":1179:1185   */\n      dup3\n        /* \"--CODEGEN--\":1168:1177   */\n      dup7\n        /* \"--CODEGEN--\":1164:1186   */\n      add\n        /* \"--CODEGEN--\":1143:1196   */\n      jump(tag_266)\n    tag_288:\n        /* \"--CODEGEN--\":1133:1196   */\n      swap3\n      pop\n        /* \"--CODEGEN--\":1105:1202   */\n      pop\n        /* \"--CODEGEN--\":1233:1235   */\n      0x20\n        /* \"--CODEGEN--\":1251:1304   */\n      tag_289\n        /* \"--CODEGEN--\":1296:1303   */\n      dup6\n        /* \"--CODEGEN--\":1287:1293   */\n      dup3\n        /* \"--CODEGEN--\":1276:1285   */\n      dup7\n        /* \"--CODEGEN--\":1272:1294   */\n      add\n        /* \"--CODEGEN--\":1251:1304   */\n      jump(tag_266)\n    tag_289:\n        /* \"--CODEGEN--\":1241:1304   */\n      swap2\n      pop\n        /* \"--CODEGEN--\":1212:1310   */\n      pop\n        /* \"--CODEGEN--\":1037:1320   */\n      swap3\n      pop\n      swap3\n      swap1\n      pop\n      jump\n        /* \"--CODEGEN--\":1327:3190   */\n    tag_58:\n      0x0\n      dup1\n      0x0\n      dup1\n      0x0\n      dup1\n      0x0\n      dup1\n        /* \"--CODEGEN--\":1620:1623   */\n      0x100\n        /* \"--CODEGEN--\":1608:1617   */\n      dup10\n        /* \"--CODEGEN--\":1599:1606   */\n      dup12\n        /* \"--CODEGEN--\":1595:1618   */\n      sub\n        /* \"--CODEGEN--\":1591:1624   */\n      slt\n        /* \"--CODEGEN--\":1588:1590   */\n      iszero\n      tag_291\n      jumpi\n        /* \"--CODEGEN--\":1637:1638   */\n      0x0\n        /* \"--CODEGEN--\":1634:1635   */\n      dup1\n        /* \"--CODEGEN--\":1627:1639   */\n      revert\n        /* \"--CODEGEN--\":1588:1590   */\n    tag_291:\n        /* \"--CODEGEN--\":1672:1673   */\n      0x0\n        /* \"--CODEGEN--\":1689:1742   */\n      tag_292\n        /* \"--CODEGEN--\":1734:1741   */\n      dup12\n        /* \"--CODEGEN--\":1725:1731   */\n      dup3\n        /* \"--CODEGEN--\":1714:1723   */\n      dup13\n        /* \"--CODEGEN--\":1710:1732   */\n      add\n        /* \"--CODEGEN--\":1689:1742   */\n      jump(tag_266)\n    tag_292:\n        /* \"--CODEGEN--\":1679:1742   */\n      swap9\n      pop\n        /* \"--CODEGEN--\":1651:1748   */\n      pop\n        /* \"--CODEGEN--\":1807:1809   */\n      0x20\n        /* \"--CODEGEN--\":1796:1805   */\n      dup10\n        /* \"--CODEGEN--\":1792:1810   */\n      add\n        /* \"--CODEGEN--\":1779:1811   */\n      calldataload\n        /* \"--CODEGEN--\":1831:1849   */\n      0xffffffffffffffff\n        /* \"--CODEGEN--\":1823:1829   */\n      dup2\n        /* \"--CODEGEN--\":1820:1850   */\n      gt\n        /* \"--CODEGEN--\":1817:1819   */\n      iszero\n      tag_293\n      jumpi\n        /* \"--CODEGEN--\":1863:1864   */\n      0x0\n        /* \"--CODEGEN--\":1860:1861   */\n      dup1\n        /* \"--CODEGEN--\":1853:1865   */\n      revert\n        /* \"--CODEGEN--\":1817:1819   */\n    tag_293:\n        /* \"--CODEGEN--\":1883:1946   */\n      tag_294\n        /* \"--CODEGEN--\":1938:1945   */\n      dup12\n        /* \"--CODEGEN--\":1929:1935   */\n      dup3\n        /* \"--CODEGEN--\":1918:1927   */\n      dup13\n        /* \"--CODEGEN--\":1914:1936   */\n      add\n        /* \"--CODEGEN--\":1883:1946   */\n      jump(tag_270)\n    tag_294:\n        /* \"--CODEGEN--\":1873:1946   */\n      swap8\n      pop\n        /* \"--CODEGEN--\":1758:1952   */\n      pop\n        /* \"--CODEGEN--\":2011:2013   */\n      0x40\n        /* \"--CODEGEN--\":2000:2009   */\n      dup10\n        /* \"--CODEGEN--\":1996:2014   */\n      add\n        /* \"--CODEGEN--\":1983:2015   */\n      calldataload\n        /* \"--CODEGEN--\":2035:2053   */\n      0xffffffffffffffff\n        /* \"--CODEGEN--\":2027:2033   */\n      dup2\n        /* \"--CODEGEN--\":2024:2054   */\n      gt\n        /* \"--CODEGEN--\":2021:2023   */\n      iszero\n      tag_295\n      jumpi\n        /* \"--CODEGEN--\":2067:2068   */\n      0x0\n        /* \"--CODEGEN--\":2064:2065   */\n      dup1\n        /* \"--CODEGEN--\":2057:2069   */\n      revert\n        /* \"--CODEGEN--\":2021:2023   */\n    tag_295:\n        /* \"--CODEGEN--\":2087:2150   */\n      tag_296\n        /* \"--CODEGEN--\":2142:2149   */\n      dup12\n        /* \"--CODEGEN--\":2133:2139   */\n      dup3\n        /* \"--CODEGEN--\":2122:2131   */\n      dup13\n        /* \"--CODEGEN--\":2118:2140   */\n      add\n        /* \"--CODEGEN--\":2087:2150   */\n      jump(tag_270)\n    tag_296:\n        /* \"--CODEGEN--\":2077:2150   */\n      swap7\n      pop\n        /* \"--CODEGEN--\":1962:2156   */\n      pop\n        /* \"--CODEGEN--\":2215:2217   */\n      0x60\n        /* \"--CODEGEN--\":2204:2213   */\n      dup10\n        /* \"--CODEGEN--\":2200:2218   */\n      add\n        /* \"--CODEGEN--\":2187:2219   */\n      calldataload\n        /* \"--CODEGEN--\":2239:2257   */\n      0xffffffffffffffff\n        /* \"--CODEGEN--\":2231:2237   */\n      dup2\n        /* \"--CODEGEN--\":2228:2258   */\n      gt\n        /* \"--CODEGEN--\":2225:2227   */\n      iszero\n      tag_297\n      jumpi\n        /* \"--CODEGEN--\":2271:2272   */\n      0x0\n        /* \"--CODEGEN--\":2268:2269   */\n      dup1\n        /* \"--CODEGEN--\":2261:2273   */\n      revert\n        /* \"--CODEGEN--\":2225:2227   */\n    tag_297:\n        /* \"--CODEGEN--\":2291:2354   */\n      tag_298\n        /* \"--CODEGEN--\":2346:2353   */\n      dup12\n        /* \"--CODEGEN--\":2337:2343   */\n      dup3\n        /* \"--CODEGEN--\":2326:2335   */\n      dup13\n        /* \"--CODEGEN--\":2322:2344   */\n      add\n        /* \"--CODEGEN--\":2291:2354   */\n      jump(tag_270)\n    tag_298:\n        /* \"--CODEGEN--\":2281:2354   */\n      swap6\n      pop\n        /* \"--CODEGEN--\":2166:2360   */\n      pop\n        /* \"--CODEGEN--\":2419:2422   */\n      0x80\n        /* \"--CODEGEN--\":2408:2417   */\n      dup10\n        /* \"--CODEGEN--\":2404:2423   */\n      add\n        /* \"--CODEGEN--\":2391:2424   */\n      calldataload\n        /* \"--CODEGEN--\":2444:2462   */\n      0xffffffffffffffff\n        /* \"--CODEGEN--\":2436:2442   */\n      dup2\n        /* \"--CODEGEN--\":2433:2463   */\n      gt\n        /* \"--CODEGEN--\":2430:2432   */\n      iszero\n      tag_299\n      jumpi\n        /* \"--CODEGEN--\":2476:2477   */\n      0x0\n        /* \"--CODEGEN--\":2473:2474   */\n      dup1\n        /* \"--CODEGEN--\":2466:2478   */\n      revert\n        /* \"--CODEGEN--\":2430:2432   */\n    tag_299:\n        /* \"--CODEGEN--\":2496:2559   */\n      tag_300\n        /* \"--CODEGEN--\":2551:2558   */\n      dup12\n        /* \"--CODEGEN--\":2542:2548   */\n      dup3\n        /* \"--CODEGEN--\":2531:2540   */\n      dup13\n        /* \"--CODEGEN--\":2527:2549   */\n      add\n        /* \"--CODEGEN--\":2496:2559   */\n      jump(tag_270)\n    tag_300:\n        /* \"--CODEGEN--\":2486:2559   */\n      swap5\n      pop\n        /* \"--CODEGEN--\":2370:2565   */\n      pop\n        /* \"--CODEGEN--\":2624:2627   */\n      0xa0\n        /* \"--CODEGEN--\":2613:2622   */\n      dup10\n        /* \"--CODEGEN--\":2609:2628   */\n      add\n        /* \"--CODEGEN--\":2596:2629   */\n      calldataload\n        /* \"--CODEGEN--\":2649:2667   */\n      0xffffffffffffffff\n        /* \"--CODEGEN--\":2641:2647   */\n      dup2\n        /* \"--CODEGEN--\":2638:2668   */\n      gt\n        /* \"--CODEGEN--\":2635:2637   */\n      iszero\n      tag_301\n      jumpi\n        /* \"--CODEGEN--\":2681:2682   */\n      0x0\n        /* \"--CODEGEN--\":2678:2679   */\n      dup1\n        /* \"--CODEGEN--\":2671:2683   */\n      revert\n        /* \"--CODEGEN--\":2635:2637   */\n    tag_301:\n        /* \"--CODEGEN--\":2701:2764   */\n      tag_302\n        /* \"--CODEGEN--\":2756:2763   */\n      dup12\n        /* \"--CODEGEN--\":2747:2753   */\n      dup3\n        /* \"--CODEGEN--\":2736:2745   */\n      dup13\n        /* \"--CODEGEN--\":2732:2754   */\n      add\n        /* \"--CODEGEN--\":2701:2764   */\n      jump(tag_270)\n    tag_302:\n        /* \"--CODEGEN--\":2691:2764   */\n      swap4\n      pop\n        /* \"--CODEGEN--\":2575:2770   */\n      pop\n        /* \"--CODEGEN--\":2829:2832   */\n      0xc0\n        /* \"--CODEGEN--\":2818:2827   */\n      dup10\n        /* \"--CODEGEN--\":2814:2833   */\n      add\n        /* \"--CODEGEN--\":2801:2834   */\n      calldataload\n        /* \"--CODEGEN--\":2854:2872   */\n      0xffffffffffffffff\n        /* \"--CODEGEN--\":2846:2852   */\n      dup2\n        /* \"--CODEGEN--\":2843:2873   */\n      gt\n        /* \"--CODEGEN--\":2840:2842   */\n      iszero\n      tag_303\n      jumpi\n        /* \"--CODEGEN--\":2886:2887   */\n      0x0\n        /* \"--CODEGEN--\":2883:2884   */\n      dup1\n        /* \"--CODEGEN--\":2876:2888   */\n      revert\n        /* \"--CODEGEN--\":2840:2842   */\n    tag_303:\n        /* \"--CODEGEN--\":2906:2969   */\n      tag_304\n        /* \"--CODEGEN--\":2961:2968   */\n      dup12\n        /* \"--CODEGEN--\":2952:2958   */\n      dup3\n        /* \"--CODEGEN--\":2941:2950   */\n      dup13\n        /* \"--CODEGEN--\":2937:2959   */\n      add\n        /* \"--CODEGEN--\":2906:2969   */\n      jump(tag_270)\n    tag_304:\n        /* \"--CODEGEN--\":2896:2969   */\n      swap3\n      pop\n        /* \"--CODEGEN--\":2780:2975   */\n      pop\n        /* \"--CODEGEN--\":3034:3037   */\n      0xe0\n        /* \"--CODEGEN--\":3023:3032   */\n      dup10\n        /* \"--CODEGEN--\":3019:3038   */\n      add\n        /* \"--CODEGEN--\":3006:3039   */\n      calldataload\n        /* \"--CODEGEN--\":3059:3077   */\n      0xffffffffffffffff\n        /* \"--CODEGEN--\":3051:3057   */\n      dup2\n        /* \"--CODEGEN--\":3048:3078   */\n      gt\n        /* \"--CODEGEN--\":3045:3047   */\n      iszero\n      tag_305\n      jumpi\n        /* \"--CODEGEN--\":3091:3092   */\n      0x0\n        /* \"--CODEGEN--\":3088:3089   */\n      dup1\n        /* \"--CODEGEN--\":3081:3093   */\n      revert\n        /* \"--CODEGEN--\":3045:3047   */\n    tag_305:\n        /* \"--CODEGEN--\":3111:3174   */\n      tag_306\n        /* \"--CODEGEN--\":3166:3173   */\n      dup12\n        /* \"--CODEGEN--\":3157:3163   */\n      dup3\n        /* \"--CODEGEN--\":3146:3155   */\n      dup13\n        /* \"--CODEGEN--\":3142:3164   */\n      add\n        /* \"--CODEGEN--\":3111:3174   */\n      jump(tag_270)\n    tag_306:\n        /* \"--CODEGEN--\":3101:3174   */\n      swap2\n      pop\n        /* \"--CODEGEN--\":2985:3180   */\n      pop\n        /* \"--CODEGEN--\":1582:3190   */\n      swap3\n      swap6\n      swap9\n      pop\n      swap3\n      swap6\n      swap9\n      swap1\n      swap4\n      swap7\n      pop\n      jump\n        /* \"--CODEGEN--\":3197:5524   */\n    tag_78:\n      0x0\n      dup1\n      0x0\n      dup1\n      0x0\n      dup1\n      0x0\n      dup1\n      0x0\n      dup1\n        /* \"--CODEGEN--\":3544:3547   */\n      0x140\n        /* \"--CODEGEN--\":3532:3541   */\n      dup12\n        /* \"--CODEGEN--\":3523:3530   */\n      dup14\n        /* \"--CODEGEN--\":3519:3542   */\n      sub\n        /* \"--CODEGEN--\":3515:3548   */\n      slt\n        /* \"--CODEGEN--\":3512:3514   */\n      iszero\n      tag_308\n      jumpi\n        /* \"--CODEGEN--\":3561:3562   */\n      0x0\n        /* \"--CODEGEN--\":3558:3559   */\n      dup1\n        /* \"--CODEGEN--\":3551:3563   */\n      revert\n        /* \"--CODEGEN--\":3512:3514   */\n    tag_308:\n        /* \"--CODEGEN--\":3596:3597   */\n      0x0\n        /* \"--CODEGEN--\":3613:3666   */\n      tag_309\n        /* \"--CODEGEN--\":3658:3665   */\n      dup14\n        /* \"--CODEGEN--\":3649:3655   */\n      dup3\n        /* \"--CODEGEN--\":3638:3647   */\n      dup15\n        /* \"--CODEGEN--\":3634:3656   */\n      add\n        /* \"--CODEGEN--\":3613:3666   */\n      jump(tag_266)\n    tag_309:\n        /* \"--CODEGEN--\":3603:3666   */\n      swap11\n      pop\n        /* \"--CODEGEN--\":3575:3672   */\n      pop\n        /* \"--CODEGEN--\":3731:3733   */\n      0x20\n        /* \"--CODEGEN--\":3720:3729   */\n      dup12\n        /* \"--CODEGEN--\":3716:3734   */\n      add\n        /* \"--CODEGEN--\":3703:3735   */\n      calldataload\n        /* \"--CODEGEN--\":3755:3773   */\n      0xffffffffffffffff\n        /* \"--CODEGEN--\":3747:3753   */\n      dup2\n        /* \"--CODEGEN--\":3744:3774   */\n      gt\n        /* \"--CODEGEN--\":3741:3743   */\n      iszero\n      tag_310\n      jumpi\n        /* \"--CODEGEN--\":3787:3788   */\n      0x0\n        /* \"--CODEGEN--\":3784:3785   */\n      dup1\n        /* \"--CODEGEN--\":3777:3789   */\n      revert\n        /* \"--CODEGEN--\":3741:3743   */\n    tag_310:\n        /* \"--CODEGEN--\":3807:3870   */\n      tag_311\n        /* \"--CODEGEN--\":3862:3869   */\n      dup14\n        /* \"--CODEGEN--\":3853:3859   */\n      dup3\n        /* \"--CODEGEN--\":3842:3851   */\n      dup15\n        /* \"--CODEGEN--\":3838:3860   */\n      add\n        /* \"--CODEGEN--\":3807:3870   */\n      jump(tag_270)\n    tag_311:\n        /* \"--CODEGEN--\":3797:3870   */\n      swap10\n      pop\n        /* \"--CODEGEN--\":3682:3876   */\n      pop\n        /* \"--CODEGEN--\":3935:3937   */\n      0x40\n        /* \"--CODEGEN--\":3924:3933   */\n      dup12\n        /* \"--CODEGEN--\":3920:3938   */\n      add\n        /* \"--CODEGEN--\":3907:3939   */\n      calldataload\n        /* \"--CODEGEN--\":3959:3977   */\n      0xffffffffffffffff\n        /* \"--CODEGEN--\":3951:3957   */\n      dup2\n        /* \"--CODEGEN--\":3948:3978   */\n      gt\n        /* \"--CODEGEN--\":3945:3947   */\n      iszero\n      tag_312\n      jumpi\n        /* \"--CODEGEN--\":3991:3992   */\n      0x0\n        /* \"--CODEGEN--\":3988:3989   */\n      dup1\n        /* \"--CODEGEN--\":3981:3993   */\n      revert\n        /* \"--CODEGEN--\":3945:3947   */\n    tag_312:\n        /* \"--CODEGEN--\":4011:4074   */\n      tag_313\n        /* \"--CODEGEN--\":4066:4073   */\n      dup14\n        /* \"--CODEGEN--\":4057:4063   */\n      dup3\n        /* \"--CODEGEN--\":4046:4055   */\n      dup15\n        /* \"--CODEGEN--\":4042:4064   */\n      add\n        /* \"--CODEGEN--\":4011:4074   */\n      jump(tag_270)\n    tag_313:\n        /* \"--CODEGEN--\":4001:4074   */\n      swap9\n      pop\n        /* \"--CODEGEN--\":3886:4080   */\n      pop\n        /* \"--CODEGEN--\":4139:4141   */\n      0x60\n        /* \"--CODEGEN--\":4128:4137   */\n      dup12\n        /* \"--CODEGEN--\":4124:4142   */\n      add\n        /* \"--CODEGEN--\":4111:4143   */\n      calldataload\n        /* \"--CODEGEN--\":4163:4181   */\n      0xffffffffffffffff\n        /* \"--CODEGEN--\":4155:4161   */\n      dup2\n        /* \"--CODEGEN--\":4152:4182   */\n      gt\n        /* \"--CODEGEN--\":4149:4151   */\n      iszero\n      tag_314\n      jumpi\n        /* \"--CODEGEN--\":4195:4196   */\n      0x0\n        /* \"--CODEGEN--\":4192:4193   */\n      dup1\n        /* \"--CODEGEN--\":4185:4197   */\n      revert\n        /* \"--CODEGEN--\":4149:4151   */\n    tag_314:\n        /* \"--CODEGEN--\":4215:4278   */\n      tag_315\n        /* \"--CODEGEN--\":4270:4277   */\n      dup14\n        /* \"--CODEGEN--\":4261:4267   */\n      dup3\n        /* \"--CODEGEN--\":4250:4259   */\n      dup15\n        /* \"--CODEGEN--\":4246:4268   */\n      add\n        /* \"--CODEGEN--\":4215:4278   */\n      jump(tag_270)\n    tag_315:\n        /* \"--CODEGEN--\":4205:4278   */\n      swap8\n      pop\n        /* \"--CODEGEN--\":4090:4284   */\n      pop\n        /* \"--CODEGEN--\":4343:4346   */\n      0x80\n        /* \"--CODEGEN--\":4332:4341   */\n      dup12\n        /* \"--CODEGEN--\":4328:4347   */\n      add\n        /* \"--CODEGEN--\":4315:4348   */\n      calldataload\n        /* \"--CODEGEN--\":4368:4386   */\n      0xffffffffffffffff\n        /* \"--CODEGEN--\":4360:4366   */\n      dup2\n        /* \"--CODEGEN--\":4357:4387   */\n      gt\n        /* \"--CODEGEN--\":4354:4356   */\n      iszero\n      tag_316\n      jumpi\n        /* \"--CODEGEN--\":4400:4401   */\n      0x0\n        /* \"--CODEGEN--\":4397:4398   */\n      dup1\n        /* \"--CODEGEN--\":4390:4402   */\n      revert\n        /* \"--CODEGEN--\":4354:4356   */\n    tag_316:\n        /* \"--CODEGEN--\":4420:4483   */\n      tag_317\n        /* \"--CODEGEN--\":4475:4482   */\n      dup14\n        /* \"--CODEGEN--\":4466:4472   */\n      dup3\n        /* \"--CODEGEN--\":4455:4464   */\n      dup15\n        /* \"--CODEGEN--\":4451:4473   */\n      add\n        /* \"--CODEGEN--\":4420:4483   */\n      jump(tag_270)\n    tag_317:\n        /* \"--CODEGEN--\":4410:4483   */\n      swap7\n      pop\n        /* \"--CODEGEN--\":4294:4489   */\n      pop\n        /* \"--CODEGEN--\":4548:4551   */\n      0xa0\n        /* \"--CODEGEN--\":4537:4546   */\n      dup12\n        /* \"--CODEGEN--\":4533:4552   */\n      add\n        /* \"--CODEGEN--\":4520:4553   */\n      calldataload\n        /* \"--CODEGEN--\":4573:4591   */\n      0xffffffffffffffff\n        /* \"--CODEGEN--\":4565:4571   */\n      dup2\n        /* \"--CODEGEN--\":4562:4592   */\n      gt\n        /* \"--CODEGEN--\":4559:4561   */\n      iszero\n      tag_318\n      jumpi\n        /* \"--CODEGEN--\":4605:4606   */\n      0x0\n        /* \"--CODEGEN--\":4602:4603   */\n      dup1\n        /* \"--CODEGEN--\":4595:4607   */\n      revert\n        /* \"--CODEGEN--\":4559:4561   */\n    tag_318:\n        /* \"--CODEGEN--\":4625:4688   */\n      tag_319\n        /* \"--CODEGEN--\":4680:4687   */\n      dup14\n        /* \"--CODEGEN--\":4671:4677   */\n      dup3\n        /* \"--CODEGEN--\":4660:4669   */\n      dup15\n        /* \"--CODEGEN--\":4656:4678   */\n      add\n        /* \"--CODEGEN--\":4625:4688   */\n      jump(tag_270)\n    tag_319:\n        /* \"--CODEGEN--\":4615:4688   */\n      swap6\n      pop\n        /* \"--CODEGEN--\":4499:4694   */\n      pop\n        /* \"--CODEGEN--\":4753:4756   */\n      0xc0\n        /* \"--CODEGEN--\":4742:4751   */\n      dup12\n        /* \"--CODEGEN--\":4738:4757   */\n      add\n        /* \"--CODEGEN--\":4725:4758   */\n      calldataload\n        /* \"--CODEGEN--\":4778:4796   */\n      0xffffffffffffffff\n        /* \"--CODEGEN--\":4770:4776   */\n      dup2\n        /* \"--CODEGEN--\":4767:4797   */\n      gt\n        /* \"--CODEGEN--\":4764:4766   */\n      iszero\n      tag_320\n      jumpi\n        /* \"--CODEGEN--\":4810:4811   */\n      0x0\n        /* \"--CODEGEN--\":4807:4808   */\n      dup1\n        /* \"--CODEGEN--\":4800:4812   */\n      revert\n        /* \"--CODEGEN--\":4764:4766   */\n    tag_320:\n        /* \"--CODEGEN--\":4830:4893   */\n      tag_321\n        /* \"--CODEGEN--\":4885:4892   */\n      dup14\n        /* \"--CODEGEN--\":4876:4882   */\n      dup3\n        /* \"--CODEGEN--\":4865:4874   */\n      dup15\n        /* \"--CODEGEN--\":4861:4883   */\n      add\n        /* \"--CODEGEN--\":4830:4893   */\n      jump(tag_270)\n    tag_321:\n        /* \"--CODEGEN--\":4820:4893   */\n      swap5\n      pop\n        /* \"--CODEGEN--\":4704:4899   */\n      pop\n        /* \"--CODEGEN--\":4958:4961   */\n      0xe0\n        /* \"--CODEGEN--\":4947:4956   */\n      dup12\n        /* \"--CODEGEN--\":4943:4962   */\n      add\n        /* \"--CODEGEN--\":4930:4963   */\n      calldataload\n        /* \"--CODEGEN--\":4983:5001   */\n      0xffffffffffffffff\n        /* \"--CODEGEN--\":4975:4981   */\n      dup2\n        /* \"--CODEGEN--\":4972:5002   */\n      gt\n        /* \"--CODEGEN--\":4969:4971   */\n      iszero\n      tag_322\n      jumpi\n        /* \"--CODEGEN--\":5015:5016   */\n      0x0\n        /* \"--CODEGEN--\":5012:5013   */\n      dup1\n        /* \"--CODEGEN--\":5005:5017   */\n      revert\n        /* \"--CODEGEN--\":4969:4971   */\n    tag_322:\n        /* \"--CODEGEN--\":5035:5098   */\n      tag_323\n        /* \"--CODEGEN--\":5090:5097   */\n      dup14\n        /* \"--CODEGEN--\":5081:5087   */\n      dup3\n        /* \"--CODEGEN--\":5070:5079   */\n      dup15\n        /* \"--CODEGEN--\":5066:5088   */\n      add\n        /* \"--CODEGEN--\":5035:5098   */\n      jump(tag_270)\n    tag_323:\n        /* \"--CODEGEN--\":5025:5098   */\n      swap4\n      pop\n        /* \"--CODEGEN--\":4909:5104   */\n      pop\n        /* \"--CODEGEN--\":5163:5166   */\n      0x100\n        /* \"--CODEGEN--\":5152:5161   */\n      dup12\n        /* \"--CODEGEN--\":5148:5167   */\n      add\n        /* \"--CODEGEN--\":5135:5168   */\n      calldataload\n        /* \"--CODEGEN--\":5188:5206   */\n      0xffffffffffffffff\n        /* \"--CODEGEN--\":5180:5186   */\n      dup2\n        /* \"--CODEGEN--\":5177:5207   */\n      gt\n        /* \"--CODEGEN--\":5174:5176   */\n      iszero\n      tag_324\n      jumpi\n        /* \"--CODEGEN--\":5220:5221   */\n      0x0\n        /* \"--CODEGEN--\":5217:5218   */\n      dup1\n        /* \"--CODEGEN--\":5210:5222   */\n      revert\n        /* \"--CODEGEN--\":5174:5176   */\n    tag_324:\n        /* \"--CODEGEN--\":5240:5303   */\n      tag_325\n        /* \"--CODEGEN--\":5295:5302   */\n      dup14\n        /* \"--CODEGEN--\":5286:5292   */\n      dup3\n        /* \"--CODEGEN--\":5275:5284   */\n      dup15\n        /* \"--CODEGEN--\":5271:5293   */\n      add\n        /* \"--CODEGEN--\":5240:5303   */\n      jump(tag_270)\n    tag_325:\n        /* \"--CODEGEN--\":5230:5303   */\n      swap3\n      pop\n        /* \"--CODEGEN--\":5114:5309   */\n      pop\n        /* \"--CODEGEN--\":5368:5371   */\n      0x120\n        /* \"--CODEGEN--\":5357:5366   */\n      dup12\n        /* \"--CODEGEN--\":5353:5372   */\n      add\n        /* \"--CODEGEN--\":5340:5373   */\n      calldataload\n        /* \"--CODEGEN--\":5393:5411   */\n      0xffffffffffffffff\n        /* \"--CODEGEN--\":5385:5391   */\n      dup2\n        /* \"--CODEGEN--\":5382:5412   */\n      gt\n        /* \"--CODEGEN--\":5379:5381   */\n      iszero\n      tag_326\n      jumpi\n        /* \"--CODEGEN--\":5425:5426   */\n      0x0\n        /* \"--CODEGEN--\":5422:5423   */\n      dup1\n        /* \"--CODEGEN--\":5415:5427   */\n      revert\n        /* \"--CODEGEN--\":5379:5381   */\n    tag_326:\n        /* \"--CODEGEN--\":5445:5508   */\n      tag_327\n        /* \"--CODEGEN--\":5500:5507   */\n      dup14\n        /* \"--CODEGEN--\":5491:5497   */\n      dup3\n        /* \"--CODEGEN--\":5480:5489   */\n      dup15\n        /* \"--CODEGEN--\":5476:5498   */\n      add\n        /* \"--CODEGEN--\":5445:5508   */\n      jump(tag_270)\n    tag_327:\n        /* \"--CODEGEN--\":5435:5508   */\n      swap2\n      pop\n        /* \"--CODEGEN--\":5319:5514   */\n      pop\n        /* \"--CODEGEN--\":3506:5524   */\n      swap3\n      swap6\n      swap9\n      swap12\n      swap2\n      swap5\n      swap8\n      swap11\n      pop\n      swap3\n      swap6\n      swap9\n      pop\n      jump\n        /* \"--CODEGEN--\":5531:5772   */\n    tag_51:\n      0x0\n        /* \"--CODEGEN--\":5635:5637   */\n      0x20\n        /* \"--CODEGEN--\":5623:5632   */\n      dup3\n        /* \"--CODEGEN--\":5614:5621   */\n      dup5\n        /* \"--CODEGEN--\":5610:5633   */\n      sub\n        /* \"--CODEGEN--\":5606:5638   */\n      slt\n        /* \"--CODEGEN--\":5603:5605   */\n      iszero\n      tag_329\n      jumpi\n        /* \"--CODEGEN--\":5651:5652   */\n      0x0\n        /* \"--CODEGEN--\":5648:5649   */\n      dup1\n        /* \"--CODEGEN--\":5641:5653   */\n      revert\n        /* \"--CODEGEN--\":5603:5605   */\n    tag_329:\n        /* \"--CODEGEN--\":5686:5687   */\n      0x0\n        /* \"--CODEGEN--\":5703:5756   */\n      tag_330\n        /* \"--CODEGEN--\":5748:5755   */\n      dup5\n        /* \"--CODEGEN--\":5739:5745   */\n      dup3\n        /* \"--CODEGEN--\":5728:5737   */\n      dup6\n        /* \"--CODEGEN--\":5724:5746   */\n      add\n        /* \"--CODEGEN--\":5703:5756   */\n      jump(tag_280)\n    tag_330:\n        /* \"--CODEGEN--\":5693:5756   */\n      swap2\n      pop\n        /* \"--CODEGEN--\":5665:5762   */\n      pop\n        /* \"--CODEGEN--\":5597:5772   */\n      swap3\n      swap2\n      pop\n      pop\n      jump\n        /* \"--CODEGEN--\":5779:5889   */\n    tag_332:\n        /* \"--CODEGEN--\":5852:5883   */\n      tag_333\n        /* \"--CODEGEN--\":5877:5882   */\n      dup2\n        /* \"--CODEGEN--\":5852:5883   */\n      jump(tag_334)\n    tag_333:\n        /* \"--CODEGEN--\":5847:5850   */\n      dup3\n        /* \"--CODEGEN--\":5840:5884   */\n      mstore\n        /* \"--CODEGEN--\":5834:5889   */\n      pop\n      pop\n      jump\n        /* \"--CODEGEN--\":5927:6517   */\n    tag_336:\n      0x0\n        /* \"--CODEGEN--\":6062:6116   */\n      tag_337\n        /* \"--CODEGEN--\":6110:6115   */\n      dup3\n        /* \"--CODEGEN--\":6062:6116   */\n      jump(tag_338)\n    tag_337:\n        /* \"--CODEGEN--\":6134:6140   */\n      dup1\n        /* \"--CODEGEN--\":6129:6132   */\n      dup5\n        /* \"--CODEGEN--\":6122:6141   */\n      mstore\n        /* \"--CODEGEN--\":6158:6162   */\n      0x20\n        /* \"--CODEGEN--\":6153:6156   */\n      dup5\n        /* \"--CODEGEN--\":6149:6163   */\n      add\n        /* \"--CODEGEN--\":6142:6163   */\n      swap4\n      pop\n        /* \"--CODEGEN--\":6203:6259   */\n      tag_339\n        /* \"--CODEGEN--\":6253:6258   */\n      dup4\n        /* \"--CODEGEN--\":6203:6259   */\n      jump(tag_340)\n    tag_339:\n        /* \"--CODEGEN--\":6280:6281   */\n      0x0\n        /* \"--CODEGEN--\":6265:6495   */\n    tag_341:\n        /* \"--CODEGEN--\":6290:6296   */\n      dup3\n        /* \"--CODEGEN--\":6287:6288   */\n      dup2\n        /* \"--CODEGEN--\":6284:6297   */\n      lt\n        /* \"--CODEGEN--\":6265:6495   */\n      iszero\n      tag_342\n      jumpi\n        /* \"--CODEGEN--\":6330:6383   */\n      tag_344\n        /* \"--CODEGEN--\":6379:6382   */\n      dup7\n        /* \"--CODEGEN--\":6370:6376   */\n      dup4\n        /* \"--CODEGEN--\":6364:6377   */\n      mload\n        /* \"--CODEGEN--\":6330:6383   */\n      jump(tag_332)\n    tag_344:\n        /* \"--CODEGEN--\":6400:6460   */\n      tag_345\n        /* \"--CODEGEN--\":6453:6459   */\n      dup3\n        /* \"--CODEGEN--\":6400:6460   */\n      jump(tag_346)\n    tag_345:\n        /* \"--CODEGEN--\":6390:6460   */\n      swap2\n      pop\n        /* \"--CODEGEN--\":6483:6487   */\n      0x20\n        /* \"--CODEGEN--\":6478:6481   */\n      dup7\n        /* \"--CODEGEN--\":6474:6488   */\n      add\n        /* \"--CODEGEN--\":6467:6488   */\n      swap6\n      pop\n        /* \"--CODEGEN--\":6312:6313   */\n      0x1\n        /* \"--CODEGEN--\":6309:6310   */\n      dup2\n        /* \"--CODEGEN--\":6305:6314   */\n      add\n        /* \"--CODEGEN--\":6300:6314   */\n      swap1\n      pop\n        /* \"--CODEGEN--\":6265:6495   */\n      jump(tag_341)\n    tag_342:\n        /* \"--CODEGEN--\":6269:6283   */\n      pop\n        /* \"--CODEGEN--\":6508:6511   */\n      dup5\n        /* \"--CODEGEN--\":6501:6511   */\n      swap3\n      pop\n        /* \"--CODEGEN--\":6041:6517   */\n      pop\n      pop\n      swap3\n      swap2\n      pop\n      pop\n      jump\n        /* \"--CODEGEN--\":6525:6626   */\n    tag_348:\n        /* \"--CODEGEN--\":6592:6620   */\n      tag_349\n        /* \"--CODEGEN--\":6614:6619   */\n      dup2\n        /* \"--CODEGEN--\":6592:6620   */\n      jump(tag_350)\n    tag_349:\n        /* \"--CODEGEN--\":6587:6590   */\n      dup3\n        /* \"--CODEGEN--\":6580:6621   */\n      mstore\n        /* \"--CODEGEN--\":6574:6626   */\n      pop\n      pop\n      jump\n        /* \"--CODEGEN--\":6633:6933   */\n    tag_352:\n      0x0\n        /* \"--CODEGEN--\":6735:6774   */\n      tag_353\n        /* \"--CODEGEN--\":6768:6773   */\n      dup3\n        /* \"--CODEGEN--\":6735:6774   */\n      jump(tag_354)\n    tag_353:\n        /* \"--CODEGEN--\":6791:6797   */\n      dup1\n        /* \"--CODEGEN--\":6786:6789   */\n      dup5\n        /* \"--CODEGEN--\":6779:6798   */\n      mstore\n        /* \"--CODEGEN--\":6803:6866   */\n      tag_355\n        /* \"--CODEGEN--\":6859:6865   */\n      dup2\n        /* \"--CODEGEN--\":6852:6856   */\n      0x20\n        /* \"--CODEGEN--\":6847:6850   */\n      dup7\n        /* \"--CODEGEN--\":6843:6857   */\n      add\n        /* \"--CODEGEN--\":6836:6840   */\n      0x20\n        /* \"--CODEGEN--\":6829:6834   */\n      dup7\n        /* \"--CODEGEN--\":6825:6841   */\n      add\n        /* \"--CODEGEN--\":6803:6866   */\n      jump(tag_356)\n    tag_355:\n        /* \"--CODEGEN--\":6898:6927   */\n      tag_357\n        /* \"--CODEGEN--\":6920:6926   */\n      dup2\n        /* \"--CODEGEN--\":6898:6927   */\n      jump(tag_358)\n    tag_357:\n        /* \"--CODEGEN--\":6891:6895   */\n      0x20\n        /* \"--CODEGEN--\":6886:6889   */\n      dup6\n        /* \"--CODEGEN--\":6882:6896   */\n      add\n        /* \"--CODEGEN--\":6878:6928   */\n      add\n        /* \"--CODEGEN--\":6871:6928   */\n      swap2\n      pop\n        /* \"--CODEGEN--\":6715:6933   */\n      pop\n      swap3\n      swap2\n      pop\n      pop\n      jump\n        /* \"--CODEGEN--\":6940:7050   */\n    tag_360:\n        /* \"--CODEGEN--\":7013:7044   */\n      tag_361\n        /* \"--CODEGEN--\":7038:7043   */\n      dup2\n        /* \"--CODEGEN--\":7013:7044   */\n      jump(tag_362)\n    tag_361:\n        /* \"--CODEGEN--\":7008:7011   */\n      dup3\n        /* \"--CODEGEN--\":7001:7045   */\n      mstore\n        /* \"--CODEGEN--\":6995:7050   */\n      pop\n      pop\n      jump\n        /* \"--CODEGEN--\":7057:7250   */\n    tag_54:\n      0x0\n        /* \"--CODEGEN--\":7165:7167   */\n      0x20\n        /* \"--CODEGEN--\":7154:7163   */\n      dup3\n        /* \"--CODEGEN--\":7150:7168   */\n      add\n        /* \"--CODEGEN--\":7142:7168   */\n      swap1\n      pop\n        /* \"--CODEGEN--\":7179:7240   */\n      tag_364\n        /* \"--CODEGEN--\":7237:7238   */\n      0x0\n        /* \"--CODEGEN--\":7226:7235   */\n      dup4\n        /* \"--CODEGEN--\":7222:7239   */\n      add\n        /* \"--CODEGEN--\":7213:7219   */\n      dup5\n        /* \"--CODEGEN--\":7179:7240   */\n      jump(tag_332)\n    tag_364:\n        /* \"--CODEGEN--\":7136:7250   */\n      swap3\n      swap2\n      pop\n      pop\n      jump\n        /* \"--CODEGEN--\":7257:7598   */\n    tag_31:\n      0x0\n        /* \"--CODEGEN--\":7415:7417   */\n      0x20\n        /* \"--CODEGEN--\":7404:7413   */\n      dup3\n        /* \"--CODEGEN--\":7400:7418   */\n      add\n        /* \"--CODEGEN--\":7392:7418   */\n      swap1\n      pop\n        /* \"--CODEGEN--\":7465:7474   */\n      dup2\n        /* \"--CODEGEN--\":7459:7463   */\n      dup2\n        /* \"--CODEGEN--\":7455:7475   */\n      sub\n        /* \"--CODEGEN--\":7451:7452   */\n      0x0\n        /* \"--CODEGEN--\":7440:7449   */\n      dup4\n        /* \"--CODEGEN--\":7436:7453   */\n      add\n        /* \"--CODEGEN--\":7429:7476   */\n      mstore\n        /* \"--CODEGEN--\":7490:7588   */\n      tag_366\n        /* \"--CODEGEN--\":7583:7587   */\n      dup2\n        /* \"--CODEGEN--\":7574:7580   */\n      dup5\n        /* \"--CODEGEN--\":7490:7588   */\n      jump(tag_336)\n    tag_366:\n        /* \"--CODEGEN--\":7482:7588   */\n      swap1\n      pop\n        /* \"--CODEGEN--\":7386:7598   */\n      swap3\n      swap2\n      pop\n      pop\n      jump\n        /* \"--CODEGEN--\":7605:7786   */\n    tag_69:\n      0x0\n        /* \"--CODEGEN--\":7707:7709   */\n      0x20\n        /* \"--CODEGEN--\":7696:7705   */\n      dup3\n        /* \"--CODEGEN--\":7692:7710   */\n      add\n        /* \"--CODEGEN--\":7684:7710   */\n      swap1\n      pop\n        /* \"--CODEGEN--\":7721:7776   */\n      tag_368\n        /* \"--CODEGEN--\":7773:7774   */\n      0x0\n        /* \"--CODEGEN--\":7762:7771   */\n      dup4\n        /* \"--CODEGEN--\":7758:7775   */\n      add\n        /* \"--CODEGEN--\":7749:7755   */\n      dup5\n        /* \"--CODEGEN--\":7721:7776   */\n      jump(tag_348)\n    tag_368:\n        /* \"--CODEGEN--\":7678:7786   */\n      swap3\n      swap2\n      pop\n      pop\n      jump\n        /* \"--CODEGEN--\":7793:9124   */\n    tag_43:\n      0x0\n        /* \"--CODEGEN--\":8189:8192   */\n      0xe0\n        /* \"--CODEGEN--\":8178:8187   */\n      dup3\n        /* \"--CODEGEN--\":8174:8193   */\n      add\n        /* \"--CODEGEN--\":8166:8193   */\n      swap1\n      pop\n        /* \"--CODEGEN--\":8240:8249   */\n      dup2\n        /* \"--CODEGEN--\":8234:8238   */\n      dup2\n        /* \"--CODEGEN--\":8230:8250   */\n      sub\n        /* \"--CODEGEN--\":8226:8227   */\n      0x0\n        /* \"--CODEGEN--\":8215:8224   */\n      dup4\n        /* \"--CODEGEN--\":8211:8228   */\n      add\n        /* \"--CODEGEN--\":8204:8251   */\n      mstore\n        /* \"--CODEGEN--\":8265:8333   */\n      tag_370\n        /* \"--CODEGEN--\":8328:8332   */\n      dup2\n        /* \"--CODEGEN--\":8319:8325   */\n      dup11\n        /* \"--CODEGEN--\":8265:8333   */\n      jump(tag_352)\n    tag_370:\n        /* \"--CODEGEN--\":8257:8333   */\n      swap1\n      pop\n        /* \"--CODEGEN--\":8381:8390   */\n      dup2\n        /* \"--CODEGEN--\":8375:8379   */\n      dup2\n        /* \"--CODEGEN--\":8371:8391   */\n      sub\n        /* \"--CODEGEN--\":8366:8368   */\n      0x20\n        /* \"--CODEGEN--\":8355:8364   */\n      dup4\n        /* \"--CODEGEN--\":8351:8369   */\n      add\n        /* \"--CODEGEN--\":8344:8392   */\n      mstore\n        /* \"--CODEGEN--\":8406:8474   */\n      tag_371\n        /* \"--CODEGEN--\":8469:8473   */\n      dup2\n        /* \"--CODEGEN--\":8460:8466   */\n      dup10\n        /* \"--CODEGEN--\":8406:8474   */\n      jump(tag_352)\n    tag_371:\n        /* \"--CODEGEN--\":8398:8474   */\n      swap1\n      pop\n        /* \"--CODEGEN--\":8522:8531   */\n      dup2\n        /* \"--CODEGEN--\":8516:8520   */\n      dup2\n        /* \"--CODEGEN--\":8512:8532   */\n      sub\n        /* \"--CODEGEN--\":8507:8509   */\n      0x40\n        /* \"--CODEGEN--\":8496:8505   */\n      dup4\n        /* \"--CODEGEN--\":8492:8510   */\n      add\n        /* \"--CODEGEN--\":8485:8533   */\n      mstore\n        /* \"--CODEGEN--\":8547:8615   */\n      tag_372\n        /* \"--CODEGEN--\":8610:8614   */\n      dup2\n        /* \"--CODEGEN--\":8601:8607   */\n      dup9\n        /* \"--CODEGEN--\":8547:8615   */\n      jump(tag_352)\n    tag_372:\n        /* \"--CODEGEN--\":8539:8615   */\n      swap1\n      pop\n        /* \"--CODEGEN--\":8663:8672   */\n      dup2\n        /* \"--CODEGEN--\":8657:8661   */\n      dup2\n        /* \"--CODEGEN--\":8653:8673   */\n      sub\n        /* \"--CODEGEN--\":8648:8650   */\n      0x60\n        /* \"--CODEGEN--\":8637:8646   */\n      dup4\n        /* \"--CODEGEN--\":8633:8651   */\n      add\n        /* \"--CODEGEN--\":8626:8674   */\n      mstore\n        /* \"--CODEGEN--\":8688:8756   */\n      tag_373\n        /* \"--CODEGEN--\":8751:8755   */\n      dup2\n        /* \"--CODEGEN--\":8742:8748   */\n      dup8\n        /* \"--CODEGEN--\":8688:8756   */\n      jump(tag_352)\n    tag_373:\n        /* \"--CODEGEN--\":8680:8756   */\n      swap1\n      pop\n        /* \"--CODEGEN--\":8805:8814   */\n      dup2\n        /* \"--CODEGEN--\":8799:8803   */\n      dup2\n        /* \"--CODEGEN--\":8795:8815   */\n      sub\n        /* \"--CODEGEN--\":8789:8792   */\n      0x80\n        /* \"--CODEGEN--\":8778:8787   */\n      dup4\n        /* \"--CODEGEN--\":8774:8793   */\n      add\n        /* \"--CODEGEN--\":8767:8816   */\n      mstore\n        /* \"--CODEGEN--\":8830:8898   */\n      tag_374\n        /* \"--CODEGEN--\":8893:8897   */\n      dup2\n        /* \"--CODEGEN--\":8884:8890   */\n      dup7\n        /* \"--CODEGEN--\":8830:8898   */\n      jump(tag_352)\n    tag_374:\n        /* \"--CODEGEN--\":8822:8898   */\n      swap1\n      pop\n        /* \"--CODEGEN--\":8947:8956   */\n      dup2\n        /* \"--CODEGEN--\":8941:8945   */\n      dup2\n        /* \"--CODEGEN--\":8937:8957   */\n      sub\n        /* \"--CODEGEN--\":8931:8934   */\n      0xa0\n        /* \"--CODEGEN--\":8920:8929   */\n      dup4\n        /* \"--CODEGEN--\":8916:8935   */\n      add\n        /* \"--CODEGEN--\":8909:8958   */\n      mstore\n        /* \"--CODEGEN--\":8972:9040   */\n      tag_375\n        /* \"--CODEGEN--\":9035:9039   */\n      dup2\n        /* \"--CODEGEN--\":9026:9032   */\n      dup6\n        /* \"--CODEGEN--\":8972:9040   */\n      jump(tag_352)\n    tag_375:\n        /* \"--CODEGEN--\":8964:9040   */\n      swap1\n      pop\n        /* \"--CODEGEN--\":9051:9114   */\n      tag_376\n        /* \"--CODEGEN--\":9109:9112   */\n      0xc0\n        /* \"--CODEGEN--\":9098:9107   */\n      dup4\n        /* \"--CODEGEN--\":9094:9113   */\n      add\n        /* \"--CODEGEN--\":9085:9091   */\n      dup5\n        /* \"--CODEGEN--\":9051:9114   */\n      jump(tag_332)\n    tag_376:\n        /* \"--CODEGEN--\":8160:9124   */\n      swap9\n      swap8\n      pop\n      pop\n      pop\n      pop\n      pop\n      pop\n      pop\n      pop\n      jump\n        /* \"--CODEGEN--\":9131:10550   */\n    tag_135:\n      0x0\n        /* \"--CODEGEN--\":9547:9550   */\n      0xe0\n        /* \"--CODEGEN--\":9536:9545   */\n      dup3\n        /* \"--CODEGEN--\":9532:9551   */\n      add\n        /* \"--CODEGEN--\":9524:9551   */\n      swap1\n      pop\n        /* \"--CODEGEN--\":9598:9607   */\n      dup2\n        /* \"--CODEGEN--\":9592:9596   */\n      dup2\n        /* \"--CODEGEN--\":9588:9608   */\n      sub\n        /* \"--CODEGEN--\":9584:9585   */\n      0x0\n        /* \"--CODEGEN--\":9573:9582   */\n      dup4\n        /* \"--CODEGEN--\":9569:9586   */\n      add\n        /* \"--CODEGEN--\":9562:9609   */\n      mstore\n        /* \"--CODEGEN--\":9623:9691   */\n      tag_378\n        /* \"--CODEGEN--\":9686:9690   */\n      dup2\n        /* \"--CODEGEN--\":9677:9683   */\n      dup11\n        /* \"--CODEGEN--\":9623:9691   */\n      jump(tag_352)\n    tag_378:\n        /* \"--CODEGEN--\":9615:9691   */\n      swap1\n      pop\n        /* \"--CODEGEN--\":9739:9748   */\n      dup2\n        /* \"--CODEGEN--\":9733:9737   */\n      dup2\n        /* \"--CODEGEN--\":9729:9749   */\n      sub\n        /* \"--CODEGEN--\":9724:9726   */\n      0x20\n        /* \"--CODEGEN--\":9713:9722   */\n      dup4\n        /* \"--CODEGEN--\":9709:9727   */\n      add\n        /* \"--CODEGEN--\":9702:9750   */\n      mstore\n        /* \"--CODEGEN--\":9764:9832   */\n      tag_379\n        /* \"--CODEGEN--\":9827:9831   */\n      dup2\n        /* \"--CODEGEN--\":9818:9824   */\n      dup10\n        /* \"--CODEGEN--\":9764:9832   */\n      jump(tag_352)\n    tag_379:\n        /* \"--CODEGEN--\":9756:9832   */\n      swap1\n      pop\n        /* \"--CODEGEN--\":9880:9889   */\n      dup2\n        /* \"--CODEGEN--\":9874:9878   */\n      dup2\n        /* \"--CODEGEN--\":9870:9890   */\n      sub\n        /* \"--CODEGEN--\":9865:9867   */\n      0x40\n        /* \"--CODEGEN--\":9854:9863   */\n      dup4\n        /* \"--CODEGEN--\":9850:9868   */\n      add\n        /* \"--CODEGEN--\":9843:9891   */\n      mstore\n        /* \"--CODEGEN--\":9905:9973   */\n      tag_380\n        /* \"--CODEGEN--\":9968:9972   */\n      dup2\n        /* \"--CODEGEN--\":9959:9965   */\n      dup9\n        /* \"--CODEGEN--\":9905:9973   */\n      jump(tag_352)\n    tag_380:\n        /* \"--CODEGEN--\":9897:9973   */\n      swap1\n      pop\n        /* \"--CODEGEN--\":10021:10030   */\n      dup2\n        /* \"--CODEGEN--\":10015:10019   */\n      dup2\n        /* \"--CODEGEN--\":10011:10031   */\n      sub\n        /* \"--CODEGEN--\":10006:10008   */\n      0x60\n        /* \"--CODEGEN--\":9995:10004   */\n      dup4\n        /* \"--CODEGEN--\":9991:10009   */\n      add\n        /* \"--CODEGEN--\":9984:10032   */\n      mstore\n        /* \"--CODEGEN--\":10046:10114   */\n      tag_381\n        /* \"--CODEGEN--\":10109:10113   */\n      dup2\n        /* \"--CODEGEN--\":10100:10106   */\n      dup8\n        /* \"--CODEGEN--\":10046:10114   */\n      jump(tag_352)\n    tag_381:\n        /* \"--CODEGEN--\":10038:10114   */\n      swap1\n      pop\n        /* \"--CODEGEN--\":10163:10172   */\n      dup2\n        /* \"--CODEGEN--\":10157:10161   */\n      dup2\n        /* \"--CODEGEN--\":10153:10173   */\n      sub\n        /* \"--CODEGEN--\":10147:10150   */\n      0x80\n        /* \"--CODEGEN--\":10136:10145   */\n      dup4\n        /* \"--CODEGEN--\":10132:10151   */\n      add\n        /* \"--CODEGEN--\":10125:10174   */\n      mstore\n        /* \"--CODEGEN--\":10188:10256   */\n      tag_382\n        /* \"--CODEGEN--\":10251:10255   */\n      dup2\n        /* \"--CODEGEN--\":10242:10248   */\n      dup7\n        /* \"--CODEGEN--\":10188:10256   */\n      jump(tag_352)\n    tag_382:\n        /* \"--CODEGEN--\":10180:10256   */\n      swap1\n      pop\n        /* \"--CODEGEN--\":10305:10314   */\n      dup2\n        /* \"--CODEGEN--\":10299:10303   */\n      dup2\n        /* \"--CODEGEN--\":10295:10315   */\n      sub\n        /* \"--CODEGEN--\":10289:10292   */\n      0xa0\n        /* \"--CODEGEN--\":10278:10287   */\n      dup4\n        /* \"--CODEGEN--\":10274:10293   */\n      add\n        /* \"--CODEGEN--\":10267:10316   */\n      mstore\n        /* \"--CODEGEN--\":10330:10398   */\n      tag_383\n        /* \"--CODEGEN--\":10393:10397   */\n      dup2\n        /* \"--CODEGEN--\":10384:10390   */\n      dup6\n        /* \"--CODEGEN--\":10330:10398   */\n      jump(tag_352)\n    tag_383:\n        /* \"--CODEGEN--\":10322:10398   */\n      swap1\n      pop\n        /* \"--CODEGEN--\":10447:10456   */\n      dup2\n        /* \"--CODEGEN--\":10441:10445   */\n      dup2\n        /* \"--CODEGEN--\":10437:10457   */\n      sub\n        /* \"--CODEGEN--\":10431:10434   */\n      0xc0\n        /* \"--CODEGEN--\":10420:10429   */\n      dup4\n        /* \"--CODEGEN--\":10416:10435   */\n      add\n        /* \"--CODEGEN--\":10409:10458   */\n      mstore\n        /* \"--CODEGEN--\":10472:10540   */\n      tag_384\n        /* \"--CODEGEN--\":10535:10539   */\n      dup2\n        /* \"--CODEGEN--\":10526:10532   */\n      dup5\n        /* \"--CODEGEN--\":10472:10540   */\n      jump(tag_352)\n    tag_384:\n        /* \"--CODEGEN--\":10464:10540   */\n      swap1\n      pop\n        /* \"--CODEGEN--\":9518:10550   */\n      swap9\n      swap8\n      pop\n      pop\n      pop\n      pop\n      pop\n      pop\n      pop\n      pop\n      jump\n        /* \"--CODEGEN--\":10557:10750   */\n    tag_36:\n      0x0\n        /* \"--CODEGEN--\":10665:10667   */\n      0x20\n        /* \"--CODEGEN--\":10654:10663   */\n      dup3\n        /* \"--CODEGEN--\":10650:10668   */\n      add\n        /* \"--CODEGEN--\":10642:10668   */\n      swap1\n      pop\n        /* \"--CODEGEN--\":10679:10740   */\n      tag_386\n        /* \"--CODEGEN--\":10737:10738   */\n      0x0\n        /* \"--CODEGEN--\":10726:10735   */\n      dup4\n        /* \"--CODEGEN--\":10722:10739   */\n      add\n        /* \"--CODEGEN--\":10713:10719   */\n      dup5\n        /* \"--CODEGEN--\":10679:10740   */\n      jump(tag_360)\n    tag_386:\n        /* \"--CODEGEN--\":10636:10750   */\n      swap3\n      swap2\n      pop\n      pop\n      jump\n        /* \"--CODEGEN--\":10757:11013   */\n    tag_275:\n      0x0\n        /* \"--CODEGEN--\":10819:10821   */\n      0x40\n        /* \"--CODEGEN--\":10813:10822   */\n      mload\n        /* \"--CODEGEN--\":10803:10822   */\n      swap1\n      pop\n        /* \"--CODEGEN--\":10857:10861   */\n      dup2\n        /* \"--CODEGEN--\":10849:10855   */\n      dup2\n        /* \"--CODEGEN--\":10845:10862   */\n      add\n        /* \"--CODEGEN--\":10956:10962   */\n      dup2\n        /* \"--CODEGEN--\":10944:10954   */\n      dup2\n        /* \"--CODEGEN--\":10941:10963   */\n      lt\n        /* \"--CODEGEN--\":10920:10938   */\n      0xffffffffffffffff\n        /* \"--CODEGEN--\":10908:10918   */\n      dup3\n        /* \"--CODEGEN--\":10905:10939   */\n      gt\n        /* \"--CODEGEN--\":10902:10964   */\n      or\n        /* \"--CODEGEN--\":10899:10901   */\n      iszero\n      tag_388\n      jumpi\n        /* \"--CODEGEN--\":10977:10978   */\n      0x0\n        /* \"--CODEGEN--\":10974:10975   */\n      dup1\n        /* \"--CODEGEN--\":10967:10979   */\n      revert\n        /* \"--CODEGEN--\":10899:10901   */\n    tag_388:\n        /* \"--CODEGEN--\":10997:11007   */\n      dup1\n        /* \"--CODEGEN--\":10993:10995   */\n      0x40\n        /* \"--CODEGEN--\":10986:11008   */\n      mstore\n        /* \"--CODEGEN--\":10797:11013   */\n      pop\n      swap2\n      swap1\n      pop\n      jump\n        /* \"--CODEGEN--\":11020:11279   */\n    tag_274:\n      0x0\n        /* \"--CODEGEN--\":11164:11182   */\n      0xffffffffffffffff\n        /* \"--CODEGEN--\":11156:11162   */\n      dup3\n        /* \"--CODEGEN--\":11153:11183   */\n      gt\n        /* \"--CODEGEN--\":11150:11152   */\n      iszero\n      tag_390\n      jumpi\n        /* \"--CODEGEN--\":11196:11197   */\n      0x0\n        /* \"--CODEGEN--\":11193:11194   */\n      dup1\n        /* \"--CODEGEN--\":11186:11198   */\n      revert\n        /* \"--CODEGEN--\":11150:11152   */\n    tag_390:\n        /* \"--CODEGEN--\":11240:11244   */\n      0x1f\n        /* \"--CODEGEN--\":11236:11245   */\n      not\n        /* \"--CODEGEN--\":11229:11233   */\n      0x1f\n        /* \"--CODEGEN--\":11221:11227   */\n      dup4\n        /* \"--CODEGEN--\":11217:11234   */\n      add\n        /* \"--CODEGEN--\":11213:11246   */\n      and\n        /* \"--CODEGEN--\":11205:11246   */\n      swap1\n      pop\n        /* \"--CODEGEN--\":11269:11273   */\n      0x20\n        /* \"--CODEGEN--\":11263:11267   */\n      dup2\n        /* \"--CODEGEN--\":11259:11274   */\n      add\n        /* \"--CODEGEN--\":11251:11274   */\n      swap1\n      pop\n        /* \"--CODEGEN--\":11087:11279   */\n      swap2\n      swap1\n      pop\n      jump\n        /* \"--CODEGEN--\":11288:11409   */\n    tag_340:\n      0x0\n        /* \"--CODEGEN--\":11397:11401   */\n      0x20\n        /* \"--CODEGEN--\":11389:11395   */\n      dup3\n        /* \"--CODEGEN--\":11385:11402   */\n      add\n        /* \"--CODEGEN--\":11374:11402   */\n      swap1\n      pop\n        /* \"--CODEGEN--\":11366:11409   */\n      swap2\n      swap1\n      pop\n      jump\n        /* \"--CODEGEN--\":11418:11525   */\n    tag_338:\n      0x0\n        /* \"--CODEGEN--\":11514:11519   */\n      dup2\n        /* \"--CODEGEN--\":11508:11520   */\n      mload\n        /* \"--CODEGEN--\":11498:11520   */\n      swap1\n      pop\n        /* \"--CODEGEN--\":11492:11525   */\n      swap2\n      swap1\n      pop\n      jump\n        /* \"--CODEGEN--\":11532:11624   */\n    tag_354:\n      0x0\n        /* \"--CODEGEN--\":11613:11618   */\n      dup2\n        /* \"--CODEGEN--\":11607:11619   */\n      mload\n        /* \"--CODEGEN--\":11597:11619   */\n      swap1\n      pop\n        /* \"--CODEGEN--\":11591:11624   */\n      swap2\n      swap1\n      pop\n      jump\n        /* \"--CODEGEN--\":11632:11754   */\n    tag_346:\n      0x0\n        /* \"--CODEGEN--\":11743:11747   */\n      0x20\n        /* \"--CODEGEN--\":11735:11741   */\n      dup3\n        /* \"--CODEGEN--\":11731:11748   */\n      add\n        /* \"--CODEGEN--\":11720:11748   */\n      swap1\n      pop\n        /* \"--CODEGEN--\":11713:11754   */\n      swap2\n      swap1\n      pop\n      jump\n        /* \"--CODEGEN--\":11762:11890   */\n    tag_334:\n      0x0\n        /* \"--CODEGEN--\":11842:11884   */\n      0xffffffffffffffffffffffffffffffffffffffff\n        /* \"--CODEGEN--\":11835:11840   */\n      dup3\n        /* \"--CODEGEN--\":11831:11885   */\n      and\n        /* \"--CODEGEN--\":11820:11885   */\n      swap1\n      pop\n        /* \"--CODEGEN--\":11814:11890   */\n      swap2\n      swap1\n      pop\n      jump\n        /* \"--CODEGEN--\":11897:11989   */\n    tag_350:\n      0x0\n        /* \"--CODEGEN--\":11977:11982   */\n      dup2\n        /* \"--CODEGEN--\":11970:11983   */\n      iszero\n        /* \"--CODEGEN--\":11963:11984   */\n      iszero\n        /* \"--CODEGEN--\":11952:11984   */\n      swap1\n      pop\n        /* \"--CODEGEN--\":11946:11989   */\n      swap2\n      swap1\n      pop\n      jump\n        /* \"--CODEGEN--\":11996:12075   */\n    tag_362:\n      0x0\n        /* \"--CODEGEN--\":12065:12070   */\n      dup2\n        /* \"--CODEGEN--\":12054:12070   */\n      swap1\n      pop\n        /* \"--CODEGEN--\":12048:12075   */\n      swap2\n      swap1\n      pop\n      jump\n        /* \"--CODEGEN--\":12082:12210   */\n    tag_268:\n      0x0\n        /* \"--CODEGEN--\":12162:12204   */\n      0xffffffffffffffffffffffffffffffffffffffff\n        /* \"--CODEGEN--\":12155:12160   */\n      dup3\n        /* \"--CODEGEN--\":12151:12205   */\n      and\n        /* \"--CODEGEN--\":12140:12205   */\n      swap1\n      pop\n        /* \"--CODEGEN--\":12134:12210   */\n      swap2\n      swap1\n      pop\n      jump\n        /* \"--CODEGEN--\":12217:12296   */\n    tag_282:\n      0x0\n        /* \"--CODEGEN--\":12286:12291   */\n      dup2\n        /* \"--CODEGEN--\":12275:12291   */\n      swap1\n      pop\n        /* \"--CODEGEN--\":12269:12296   */\n      swap2\n      swap1\n      pop\n      jump\n        /* \"--CODEGEN--\":12304:12449   */\n    tag_278:\n        /* \"--CODEGEN--\":12385:12391   */\n      dup3\n        /* \"--CODEGEN--\":12380:12383   */\n      dup2\n        /* \"--CODEGEN--\":12375:12378   */\n      dup4\n        /* \"--CODEGEN--\":12362:12392   */\n      calldatacopy\n        /* \"--CODEGEN--\":12441:12442   */\n      0x0\n        /* \"--CODEGEN--\":12432:12438   */\n      dup4\n        /* \"--CODEGEN--\":12427:12430   */\n      dup4\n        /* \"--CODEGEN--\":12423:12439   */\n      add\n        /* \"--CODEGEN--\":12416:12443   */\n      mstore\n        /* \"--CODEGEN--\":12355:12449   */\n      pop\n      pop\n      pop\n      jump\n        /* \"--CODEGEN--\":12458:12726   */\n    tag_356:\n        /* \"--CODEGEN--\":12523:12524   */\n      0x0\n        /* \"--CODEGEN--\":12530:12631   */\n    tag_402:\n        /* \"--CODEGEN--\":12544:12550   */\n      dup4\n        /* \"--CODEGEN--\":12541:12542   */\n      dup2\n        /* \"--CODEGEN--\":12538:12551   */\n      lt\n        /* \"--CODEGEN--\":12530:12631   */\n      iszero\n      tag_403\n      jumpi\n        /* \"--CODEGEN--\":12620:12621   */\n      dup1\n        /* \"--CODEGEN--\":12615:12618   */\n      dup3\n        /* \"--CODEGEN--\":12611:12622   */\n      add\n        /* \"--CODEGEN--\":12605:12623   */\n      mload\n        /* \"--CODEGEN--\":12601:12602   */\n      dup2\n        /* \"--CODEGEN--\":12596:12599   */\n      dup5\n        /* \"--CODEGEN--\":12592:12603   */\n      add\n        /* \"--CODEGEN--\":12585:12624   */\n      mstore\n        /* \"--CODEGEN--\":12566:12568   */\n      0x20\n        /* \"--CODEGEN--\":12563:12564   */\n      dup2\n        /* \"--CODEGEN--\":12559:12569   */\n      add\n        /* \"--CODEGEN--\":12554:12569   */\n      swap1\n      pop\n        /* \"--CODEGEN--\":12530:12631   */\n      jump(tag_402)\n    tag_403:\n        /* \"--CODEGEN--\":12646:12652   */\n      dup4\n        /* \"--CODEGEN--\":12643:12644   */\n      dup2\n        /* \"--CODEGEN--\":12640:12653   */\n      gt\n        /* \"--CODEGEN--\":12637:12639   */\n      iszero\n      tag_405\n      jumpi\n        /* \"--CODEGEN--\":12711:12712   */\n      0x0\n        /* \"--CODEGEN--\":12702:12708   */\n      dup5\n        /* \"--CODEGEN--\":12697:12700   */\n      dup5\n        /* \"--CODEGEN--\":12693:12709   */\n      add\n        /* \"--CODEGEN--\":12686:12713   */\n      mstore\n        /* \"--CODEGEN--\":12637:12639   */\n    tag_405:\n        /* \"--CODEGEN--\":12507:12726   */\n      pop\n      pop\n      pop\n      pop\n      jump\n        /* \"--CODEGEN--\":12734:12831   */\n    tag_358:\n      0x0\n        /* \"--CODEGEN--\":12822:12824   */\n      0x1f\n        /* \"--CODEGEN--\":12818:12825   */\n      not\n        /* \"--CODEGEN--\":12813:12815   */\n      0x1f\n        /* \"--CODEGEN--\":12806:12811   */\n      dup4\n        /* \"--CODEGEN--\":12802:12816   */\n      add\n        /* \"--CODEGEN--\":12798:12826   */\n      and\n        /* \"--CODEGEN--\":12788:12826   */\n      swap1\n      pop\n        /* \"--CODEGEN--\":12782:12831   */\n      swap2\n      swap1\n      pop\n      jump\n\n    auxdata: 0xa265627a7a7230582049366ebe502c134849148334d3aa779a010756cb40ab0b8bc3eea0502f436ac26c6578706572696d656e74616cf50037\n}\n",
				"bytecode": {
					"linkReferences": {},
					"object": "6080604052600060085560006009556000600a556000600b5573c50c6297f56b033633c30354a854b074749cd2dc600c60006101000a81548173ffffffffffffffffffffffffffffffffffffffff021916908373ffffffffffffffffffffffffffffffffffffffff16021790555034801561007957600080fd5b50612ae5806100896000396000f300608060405260043610610148576000357c0100000000000000000000000000000000000000000000000000000000900463ffffffff168062ce8e3e1461014d578063024decc514610178578063076fd2f8146101a357806307973ccf146101e6578063127ca4b41461021157806316e0a6111461024e57806317e5111114610277578063294a4540146102a05780635fc8e8c6146102dd5780636cdb22781461031a578063779a95761461034357806378522bc41461036c57806379111c1c146103975780638da5cb5b146103c25780638f84aa09146103ed57806399d698c5146104045780639f4216e81461042f578063b13d5d941461046c578063b5cb15f714610497578063b744ff4d146104c2578063c3bf7bf0146104ed578063c543a7181461052a578063caee6c8514610555578063d118404b14610598578063e0df0ac6146105d5575b600080fd5b34801561015957600080fd5b50610162610600565b60405161016f91906127de565b60405180910390f35b34801561018457600080fd5b5061018d61068e565b60405161019a9190612954565b60405180910390f35b3480156101af57600080fd5b506101ca60048036036101c5919081019061236a565b610698565b6040516101dd979695949392919061281b565b60405180910390f35b3480156101f257600080fd5b506101fb610b79565b6040516102089190612954565b60405180910390f35b34801561021d57600080fd5b50610238600480360361023391908101906126dc565b610b7f565b60405161024591906127c3565b60405180910390f35b34801561025a57600080fd5b50610275600480360361027091908101906123cf565b610bbd565b005b34801561028357600080fd5b5061029e600480360361029991908101906123cf565b610db1565b005b3480156102ac57600080fd5b506102c760048036036102c2919081019061236a565b6111cb565b6040516102d49190612800565b60405180910390f35b3480156102e957600080fd5b5061030460048036036102ff919081019061236a565b61127d565b6040516103119190612800565b60405180910390f35b34801561032657600080fd5b50610341600480360361033c9190810190612529565b61131c565b005b34801561034f57600080fd5b5061036a60048036036103659190810190612529565b61176a565b005b34801561037857600080fd5b50610381611992565b60405161038e9190612954565b60405180910390f35b3480156103a357600080fd5b506103ac611998565b6040516103b99190612954565b60405180910390f35b3480156103ce57600080fd5b506103d76119a2565b6040516103e491906127c3565b60405180910390f35b3480156103f957600080fd5b506104026119c7565b005b34801561041057600080fd5b50610419611a09565b6040516104269190612954565b60405180910390f35b34801561043b57600080fd5b50610456600480360361045191908101906126dc565b611a0f565b60405161046391906127c3565b60405180910390f35b34801561047857600080fd5b50610481611a4d565b60405161048e91906127de565b60405180910390f35b3480156104a357600080fd5b506104ac611adb565b6040516104b99190612954565b60405180910390f35b3480156104ce57600080fd5b506104d7611ae5565b6040516104e491906127c3565b60405180910390f35b3480156104f957600080fd5b50610514600480360361050f9190810190612393565b611b0b565b6040516105219190612800565b60405180910390f35b34801561053657600080fd5b5061053f611c08565b60405161054c9190612954565b60405180910390f35b34801561056157600080fd5b5061057c6004803603610577919081019061236a565b611c0e565b60405161058f97969594939291906128b4565b60405180910390f35b3480156105a457600080fd5b506105bf60048036036105ba9190810190612393565b61212e565b6040516105cc9190612800565b60405180910390f35b3480156105e157600080fd5b506105ea61223d565b6040516105f79190612954565b60405180910390f35b6060600180548060200260200160405190810160405280929190818152602001828054801561068457602002820191906000526020600020905b8160009054906101000a900473ffffffffffffffffffffffffffffffffffffffff1673ffffffffffffffffffffffffffffffffffffffff168152602001906001019080831161063a575b5050505050905090565b6000600b54905090565b606080606080606080600080600560008a73ffffffffffffffffffffffffffffffffffffffff1673ffffffffffffffffffffffffffffffffffffffff16815260200190815260200160002060003373ffffffffffffffffffffffffffffffffffffffff1673ffffffffffffffffffffffffffffffffffffffff16815260200190815260200160002060009054906101000a900460ff16151561073957600080fd5b600360008a73ffffffffffffffffffffffffffffffffffffffff1673ffffffffffffffffffffffffffffffffffffffff16815260200190815260200160002090508060000181600101826002018360030184600401856005018660090160009054906101000a900473ffffffffffffffffffffffffffffffffffffffff16868054600181600116156101000203166002900480601f01602080910402602001604051908101604052809291908181526020018280546001816001161561010002031660029004801561084c5780601f106108215761010080835404028352916020019161084c565b820191906000526020600020905b81548152906001019060200180831161082f57829003601f168201915b50505050509650858054600181600116156101000203166002900480601f0160208091040260200160405190810160405280929190818152602001828054600181600116156101000203166002900480156108e85780601f106108bd576101008083540402835291602001916108e8565b820191906000526020600020905b8154815290600101906020018083116108cb57829003601f168201915b50505050509550848054600181600116156101000203166002900480601f0160208091040260200160405190810160405280929190818152602001828054600181600116156101000203166002900480156109845780601f1061095957610100808354040283529160200191610984565b820191906000526020600020905b81548152906001019060200180831161096757829003601f168201915b50505050509450838054600181600116156101000203166002900480601f016020809104026020016040519081016040528092919081815260200182805460018160011615610100020316600290048015610a205780601f106109f557610100808354040283529160200191610a20565b820191906000526020600020905b815481529060010190602001808311610a0357829003601f168201915b50505050509350828054600181600116156101000203166002900480601f016020809104026020016040519081016040528092919081815260200182805460018160011615610100020316600290048015610abc5780601f10610a9157610100808354040283529160200191610abc565b820191906000526020600020905b815481529060010190602001808311610a9f57829003601f168201915b50505050509250818054600181600116156101000203166002900480601f016020809104026020016040519081016040528092919081815260200182805460018160011615610100020316600290048015610b585780601f10610b2d57610100808354040283529160200191610b58565b820191906000526020600020905b815481529060010190602001808311610b3b57829003601f168201915b50505050509150975097509750975097509750975050919395979092949650565b60085481565b600281815481101515610b8e57fe5b906000526020600020016000915054906101000a900473ffffffffffffffffffffffffffffffffffffffff1681565b6000600c60009054906101000a900473ffffffffffffffffffffffffffffffffffffffff1673ffffffffffffffffffffffffffffffffffffffff163373ffffffffffffffffffffffffffffffffffffffff16141515610c1b57600080fd5b600760008a73ffffffffffffffffffffffffffffffffffffffff1673ffffffffffffffffffffffffffffffffffffffff16815260200190815260200160002060009054906101000a900460ff161515610c7357600080fd5b600460008a73ffffffffffffffffffffffffffffffffffffffff1673ffffffffffffffffffffffffffffffffffffffff168152602001908152602001600020905087816000019080519060200190610ccc929190612247565b5086816001019080519060200190610ce5929190612247565b5085816002019080519060200190610cfe929190612247565b5084816003019080519060200190610d17929190612247565b5083816004019080519060200190610d30929190612247565b5082816007019080519060200190610d49929190612247565b5081816008019080519060200190610d62929190612247565b50888160090160006101000a81548173ffffffffffffffffffffffffffffffffffffffff021916908373ffffffffffffffffffffffffffffffffffffffff160217905550505050505050505050565b6000600c60009054906101000a900473ffffffffffffffffffffffffffffffffffffffff1673ffffffffffffffffffffffffffffffffffffffff163373ffffffffffffffffffffffffffffffffffffffff16141515610e0f57600080fd5b600760008a73ffffffffffffffffffffffffffffffffffffffff1673ffffffffffffffffffffffffffffffffffffffff16815260200190815260200160002060009054906101000a900460ff16151515610e6857600080fd5b600460008a73ffffffffffffffffffffffffffffffffffffffff1673ffffffffffffffffffffffffffffffffffffffff168152602001908152602001600020905087816000019080519060200190610ec1929190612247565b5086816001019080519060200190610eda929190612247565b5085816002019080519060200190610ef3929190612247565b5084816003019080519060200190610f0c929190612247565b5083816004019080519060200190610f25929190612247565b5082816007019080519060200190610f3e929190612247565b5081816008019080519060200190610f57929190612247565b50888160090160006101000a81548173ffffffffffffffffffffffffffffffffffffffff021916908373ffffffffffffffffffffffffffffffffffffffff1602179055504281600a018190555060028990806001815401808255809150509060018203906000526020600020016000909192909190916101000a81548173ffffffffffffffffffffffffffffffffffffffff021916908373ffffffffffffffffffffffffffffffffffffffff160217905550506001600760008b73ffffffffffffffffffffffffffffffffffffffff1673ffffffffffffffffffffffffffffffffffffffff16815260200190815260200160002060006101000a81548160ff0219169083151502179055506001600560008b73ffffffffffffffffffffffffffffffffffffffff1673ffffffffffffffffffffffffffffffffffffffff16815260200190815260200160002060008b73ffffffffffffffffffffffffffffffffffffffff1673ffffffffffffffffffffffffffffffffffffffff16815260200190815260200160002060006101000a81548160ff0219169083151502179055506001600560008b73ffffffffffffffffffffffffffffffffffffffff1673ffffffffffffffffffffffffffffffffffffffff1681526020019081526020016000206000600c60009054906101000a900473ffffffffffffffffffffffffffffffffffffffff1673ffffffffffffffffffffffffffffffffffffffff1673ffffffffffffffffffffffffffffffffffffffff16815260200190815260200160002060006101000a81548160ff021916908315150217905550600960008154809291906001019190505550505050505050505050565b60006001600560003373ffffffffffffffffffffffffffffffffffffffff1673ffffffffffffffffffffffffffffffffffffffff16815260200190815260200160002060008473ffffffffffffffffffffffffffffffffffffffff1673ffffffffffffffffffffffffffffffffffffffff16815260200190815260200160002060006101000a81548160ff021916908315150217905550600b6000815480929190600101919050555060019050919050565b600080600560003373ffffffffffffffffffffffffffffffffffffffff1673ffffffffffffffffffffffffffffffffffffffff16815260200190815260200160002060008473ffffffffffffffffffffffffffffffffffffffff1673ffffffffffffffffffffffffffffffffffffffff16815260200190815260200160002060006101000a81548160ff02191690831515021790555060019050919050565b6000600c60009054906101000a900473ffffffffffffffffffffffffffffffffffffffff1673ffffffffffffffffffffffffffffffffffffffff163373ffffffffffffffffffffffffffffffffffffffff1614151561137a57600080fd5b600660008c73ffffffffffffffffffffffffffffffffffffffff1673ffffffffffffffffffffffffffffffffffffffff16815260200190815260200160002060009054906101000a900460ff161515156113d357600080fd5b600360008c73ffffffffffffffffffffffffffffffffffffffff1673ffffffffffffffffffffffffffffffffffffffff16815260200190815260200160002090508981600001908051906020019061142c929190612247565b5088816001019080519060200190611445929190612247565b508781600201908051906020019061145e929190612247565b5086816003019080519060200190611477929190612247565b5085816004019080519060200190611490929190612247565b50848160050190805190602001906114a9929190612247565b50838160060190805190602001906114c2929190612247565b50828160070190805190602001906114db929190612247565b50818160080190805190602001906114f4929190612247565b508a8160090160006101000a81548173ffffffffffffffffffffffffffffffffffffffff021916908373ffffffffffffffffffffffffffffffffffffffff1602179055504281600a018190555060018b90806001815401808255809150509060018203906000526020600020016000909192909190916101000a81548173ffffffffffffffffffffffffffffffffffffffff021916908373ffffffffffffffffffffffffffffffffffffffff160217905550506001600660008d73ffffffffffffffffffffffffffffffffffffffff1673ffffffffffffffffffffffffffffffffffffffff16815260200190815260200160002060006101000a81548160ff0219169083151502179055506001600560008d73ffffffffffffffffffffffffffffffffffffffff1673ffffffffffffffffffffffffffffffffffffffff16815260200190815260200160002060008d73ffffffffffffffffffffffffffffffffffffffff1673ffffffffffffffffffffffffffffffffffffffff16815260200190815260200160002060006101000a81548160ff0219169083151502179055506001600560008d73ffffffffffffffffffffffffffffffffffffffff1673ffffffffffffffffffffffffffffffffffffffff1681526020019081526020016000206000600c60009054906101000a900473ffffffffffffffffffffffffffffffffffffffff1673ffffffffffffffffffffffffffffffffffffffff1673ffffffffffffffffffffffffffffffffffffffff16815260200190815260200160002060006101000a81548160ff0219169083151502179055506008600081548092919060010191905055505050505050505050505050565b6000600c60009054906101000a900473ffffffffffffffffffffffffffffffffffffffff1673ffffffffffffffffffffffffffffffffffffffff163373ffffffffffffffffffffffffffffffffffffffff161415156117c857600080fd5b600660008c73ffffffffffffffffffffffffffffffffffffffff1673ffffffffffffffffffffffffffffffffffffffff16815260200190815260200160002060009054906101000a900460ff16151561182057600080fd5b600360008c73ffffffffffffffffffffffffffffffffffffffff1673ffffffffffffffffffffffffffffffffffffffff168152602001908152602001600020905089816000019080519060200190611879929190612247565b5088816001019080519060200190611892929190612247565b50878160020190805190602001906118ab929190612247565b50868160030190805190602001906118c4929190612247565b50858160040190805190602001906118dd929190612247565b50848160050190805190602001906118f6929190612247565b508381600601908051906020019061190f929190612247565b5082816007019080519060200190611928929190612247565b5081816008019080519060200190611941929190612247565b508a8160090160006101000a81548173ffffffffffffffffffffffffffffffffffffffff021916908373ffffffffffffffffffffffffffffffffffffffff1602179055505050505050505050505050565b60095481565b6000600954905090565b6000809054906101000a900473ffffffffffffffffffffffffffffffffffffffff1681565b336000806101000a81548173ffffffffffffffffffffffffffffffffffffffff021916908373ffffffffffffffffffffffffffffffffffffffff160217905550565b600a5481565b600181815481101515611a1e57fe5b906000526020600020016000915054906101000a900473ffffffffffffffffffffffffffffffffffffffff1681565b60606002805480602002602001604051908101604052809291908181526020018280548015611ad157602002820191906000526020600020905b8160009054906101000a900473ffffffffffffffffffffffffffffffffffffffff1673ffffffffffffffffffffffffffffffffffffffff1681526020019060010190808311611a87575b5050505050905090565b6000600854905090565b600c60009054906101000a900473ffffffffffffffffffffffffffffffffffffffff1681565b6000600c60009054906101000a900473ffffffffffffffffffffffffffffffffffffffff1673ffffffffffffffffffffffffffffffffffffffff163373ffffffffffffffffffffffffffffffffffffffff16141515611b6957600080fd5b6000600560008573ffffffffffffffffffffffffffffffffffffffff1673ffffffffffffffffffffffffffffffffffffffff16815260200190815260200160002060008473ffffffffffffffffffffffffffffffffffffffff1673ffffffffffffffffffffffffffffffffffffffff16815260200190815260200160002060006101000a81548160ff0219169083151502179055506001905092915050565b600b5481565b60608060608060608060606000600760008a73ffffffffffffffffffffffffffffffffffffffff1673ffffffffffffffffffffffffffffffffffffffff16815260200190815260200160002060009054906101000a900460ff161515611c7357600080fd5b600460008a73ffffffffffffffffffffffffffffffffffffffff1673ffffffffffffffffffffffffffffffffffffffff168152602001908152602001600020905080600001816001018260020183600301846004018560070186600801868054600181600116156101000203166002900480601f016020809104026020016040519081016040528092919081815260200182805460018160011615610100020316600290048015611d655780601f10611d3a57610100808354040283529160200191611d65565b820191906000526020600020905b815481529060010190602001808311611d4857829003601f168201915b50505050509650858054600181600116156101000203166002900480601f016020809104026020016040519081016040528092919081815260200182805460018160011615610100020316600290048015611e015780601f10611dd657610100808354040283529160200191611e01565b820191906000526020600020905b815481529060010190602001808311611de457829003601f168201915b50505050509550848054600181600116156101000203166002900480601f016020809104026020016040519081016040528092919081815260200182805460018160011615610100020316600290048015611e9d5780601f10611e7257610100808354040283529160200191611e9d565b820191906000526020600020905b815481529060010190602001808311611e8057829003601f168201915b50505050509450838054600181600116156101000203166002900480601f016020809104026020016040519081016040528092919081815260200182805460018160011615610100020316600290048015611f395780601f10611f0e57610100808354040283529160200191611f39565b820191906000526020600020905b815481529060010190602001808311611f1c57829003601f168201915b50505050509350828054600181600116156101000203166002900480601f016020809104026020016040519081016040528092919081815260200182805460018160011615610100020316600290048015611fd55780601f10611faa57610100808354040283529160200191611fd5565b820191906000526020600020905b815481529060010190602001808311611fb857829003601f168201915b50505050509250818054600181600116156101000203166002900480601f0160208091040260200160405190810160405280929190818152602001828054600181600116156101000203166002900480156120715780601f1061204657610100808354040283529160200191612071565b820191906000526020600020905b81548152906001019060200180831161205457829003601f168201915b50505050509150808054600181600116156101000203166002900480601f01602080910402602001604051908101604052809291908181526020018280546001816001161561010002031660029004801561210d5780601f106120e25761010080835404028352916020019161210d565b820191906000526020600020905b8154815290600101906020018083116120f057829003601f168201915b50505050509050975097509750975097509750975050919395979092949650565b6000600c60009054906101000a900473ffffffffffffffffffffffffffffffffffffffff1673ffffffffffffffffffffffffffffffffffffffff163373ffffffffffffffffffffffffffffffffffffffff1614151561218c57600080fd5b6001600560008573ffffffffffffffffffffffffffffffffffffffff1673ffffffffffffffffffffffffffffffffffffffff16815260200190815260200160002060008473ffffffffffffffffffffffffffffffffffffffff1673ffffffffffffffffffffffffffffffffffffffff16815260200190815260200160002060006101000a81548160ff021916908315150217905550600a600081548092919060010191905055506001905092915050565b6000600a54905090565b828054600181600116156101000203166002900490600052602060002090601f016020900481019282601f1061228857805160ff19168380011785556122b6565b828001600101855582156122b6579182015b828111156122b557825182559160200191906001019061229a565b5b5090506122c391906122c7565b5090565b6122e991905b808211156122e55760008160009055506001016122cd565b5090565b90565b60006122f88235612a2e565b905092915050565b600082601f830112151561231357600080fd5b81356123266123218261299c565b61296f565b9150808252602083016020830185838301111561234257600080fd5b61234d838284612a58565b50505092915050565b60006123628235612a4e565b905092915050565b60006020828403121561237c57600080fd5b600061238a848285016122ec565b91505092915050565b600080604083850312156123a657600080fd5b60006123b4858286016122ec565b92505060206123c5858286016122ec565b9150509250929050565b600080600080600080600080610100898b0312156123ec57600080fd5b60006123fa8b828c016122ec565b985050602089013567ffffffffffffffff81111561241757600080fd5b6124238b828c01612300565b975050604089013567ffffffffffffffff81111561244057600080fd5b61244c8b828c01612300565b965050606089013567ffffffffffffffff81111561246957600080fd5b6124758b828c01612300565b955050608089013567ffffffffffffffff81111561249257600080fd5b61249e8b828c01612300565b94505060a089013567ffffffffffffffff8111156124bb57600080fd5b6124c78b828c01612300565b93505060c089013567ffffffffffffffff8111156124e457600080fd5b6124f08b828c01612300565b92505060e089013567ffffffffffffffff81111561250d57600080fd5b6125198b828c01612300565b9150509295985092959890939650565b6000806000806000806000806000806101408b8d03121561254957600080fd5b60006125578d828e016122ec565b9a505060208b013567ffffffffffffffff81111561257457600080fd5b6125808d828e01612300565b99505060408b013567ffffffffffffffff81111561259d57600080fd5b6125a98d828e01612300565b98505060608b013567ffffffffffffffff8111156125c657600080fd5b6125d28d828e01612300565b97505060808b013567ffffffffffffffff8111156125ef57600080fd5b6125fb8d828e01612300565b96505060a08b013567ffffffffffffffff81111561261857600080fd5b6126248d828e01612300565b95505060c08b013567ffffffffffffffff81111561264157600080fd5b61264d8d828e01612300565b94505060e08b013567ffffffffffffffff81111561266a57600080fd5b6126768d828e01612300565b9350506101008b013567ffffffffffffffff81111561269457600080fd5b6126a08d828e01612300565b9250506101208b013567ffffffffffffffff8111156126be57600080fd5b6126ca8d828e01612300565b9150509295989b9194979a5092959850565b6000602082840312156126ee57600080fd5b60006126fc84828501612356565b91505092915050565b61270e816129f8565b82525050565b600061271f826129d5565b808452602084019350612731836129c8565b60005b8281101561276357612747868351612705565b612750826129eb565b9150602086019550600181019050612734565b50849250505092915050565b61277881612a18565b82525050565b6000612789826129e0565b80845261279d816020860160208601612a67565b6127a681612a9a565b602085010191505092915050565b6127bd81612a24565b82525050565b60006020820190506127d86000830184612705565b92915050565b600060208201905081810360008301526127f88184612714565b905092915050565b6000602082019050612815600083018461276f565b92915050565b600060e0820190508181036000830152612835818a61277e565b90508181036020830152612849818961277e565b9050818103604083015261285d818861277e565b90508181036060830152612871818761277e565b90508181036080830152612885818661277e565b905081810360a0830152612899818561277e565b90506128a860c0830184612705565b98975050505050505050565b600060e08201905081810360008301526128ce818a61277e565b905081810360208301526128e2818961277e565b905081810360408301526128f6818861277e565b9050818103606083015261290a818761277e565b9050818103608083015261291e818661277e565b905081810360a0830152612932818561277e565b905081810360c0830152612946818461277e565b905098975050505050505050565b600060208201905061296960008301846127b4565b92915050565b6000604051905081810181811067ffffffffffffffff8211171561299257600080fd5b8060405250919050565b600067ffffffffffffffff8211156129b357600080fd5b601f19601f8301169050602081019050919050565b6000602082019050919050565b600081519050919050565b600081519050919050565b6000602082019050919050565b600073ffffffffffffffffffffffffffffffffffffffff82169050919050565b60008115159050919050565b6000819050919050565b600073ffffffffffffffffffffffffffffffffffffffff82169050919050565b6000819050919050565b82818337600083830152505050565b60005b83811015612a85578082015181840152602081019050612a6a565b83811115612a94576000848401525b50505050565b6000601f19601f83011690509190505600a265627a7a7230582049366ebe502c134849148334d3aa779a010756cb40ab0b8bc3eea0502f436ac26c6578706572696d656e74616cf50037",
					"opcodes": "PUSH1 0x80 PUSH1 0x40 MSTORE PUSH1 0x0 PUSH1 0x8 SSTORE PUSH1 0x0 PUSH1 0x9 SSTORE PUSH1 0x0 PUSH1 0xA SSTORE PUSH1 0x0 PUSH1 0xB SSTORE PUSH20 0xC50C6297F56B033633C30354A854B074749CD2DC PUSH1 0xC PUSH1 0x0 PUSH2 0x100 EXP DUP2 SLOAD DUP2 PUSH20 0xFFFFFFFFFFFFFFFFFFFFFFFFFFFFFFFFFFFFFFFF MUL NOT AND SWAP1 DUP4 PUSH20 0xFFFFFFFFFFFFFFFFFFFFFFFFFFFFFFFFFFFFFFFF AND MUL OR SWAP1 SSTORE POP CALLVALUE DUP1 ISZERO PUSH2 0x79 JUMPI PUSH1 0x0 DUP1 REVERT JUMPDEST POP PUSH2 0x2AE5 DUP1 PUSH2 0x89 PUSH1 0x0 CODECOPY PUSH1 0x0 RETURN STOP PUSH1 0x80 PUSH1 0x40 MSTORE PUSH1 0x4 CALLDATASIZE LT PUSH2 0x148 JUMPI PUSH1 0x0 CALLDATALOAD PUSH29 0x100000000000000000000000000000000000000000000000000000000 SWAP1 DIV PUSH4 0xFFFFFFFF AND DUP1 PUSH3 0xCE8E3E EQ PUSH2 0x14D JUMPI DUP1 PUSH4 0x24DECC5 EQ PUSH2 0x178 JUMPI DUP1 PUSH4 0x76FD2F8 EQ PUSH2 0x1A3 JUMPI DUP1 PUSH4 0x7973CCF EQ PUSH2 0x1E6 JUMPI DUP1 PUSH4 0x127CA4B4 EQ PUSH2 0x211 JUMPI DUP1 PUSH4 0x16E0A611 EQ PUSH2 0x24E JUMPI DUP1 PUSH4 0x17E51111 EQ PUSH2 0x277 JUMPI DUP1 PUSH4 0x294A4540 EQ PUSH2 0x2A0 JUMPI DUP1 PUSH4 0x5FC8E8C6 EQ PUSH2 0x2DD JUMPI DUP1 PUSH4 0x6CDB2278 EQ PUSH2 0x31A JUMPI DUP1 PUSH4 0x779A9576 EQ PUSH2 0x343 JUMPI DUP1 PUSH4 0x78522BC4 EQ PUSH2 0x36C JUMPI DUP1 PUSH4 0x79111C1C EQ PUSH2 0x397 JUMPI DUP1 PUSH4 0x8DA5CB5B EQ PUSH2 0x3C2 JUMPI DUP1 PUSH4 0x8F84AA09 EQ PUSH2 0x3ED JUMPI DUP1 PUSH4 0x99D698C5 EQ PUSH2 0x404 JUMPI DUP1 PUSH4 0x9F4216E8 EQ PUSH2 0x42F JUMPI DUP1 PUSH4 0xB13D5D94 EQ PUSH2 0x46C JUMPI DUP1 PUSH4 0xB5CB15F7 EQ PUSH2 0x497 JUMPI DUP1 PUSH4 0xB744FF4D EQ PUSH2 0x4C2 JUMPI DUP1 PUSH4 0xC3BF7BF0 EQ PUSH2 0x4ED JUMPI DUP1 PUSH4 0xC543A718 EQ PUSH2 0x52A JUMPI DUP1 PUSH4 0xCAEE6C85 EQ PUSH2 0x555 JUMPI DUP1 PUSH4 0xD118404B EQ PUSH2 0x598 JUMPI DUP1 PUSH4 0xE0DF0AC6 EQ PUSH2 0x5D5 JUMPI JUMPDEST PUSH1 0x0 DUP1 REVERT JUMPDEST CALLVALUE DUP1 ISZERO PUSH2 0x159 JUMPI PUSH1 0x0 DUP1 REVERT JUMPDEST POP PUSH2 0x162 PUSH2 0x600 JUMP JUMPDEST PUSH1 0x40 MLOAD PUSH2 0x16F SWAP2 SWAP1 PUSH2 0x27DE JUMP JUMPDEST PUSH1 0x40 MLOAD DUP1 SWAP2 SUB SWAP1 RETURN JUMPDEST CALLVALUE DUP1 ISZERO PUSH2 0x184 JUMPI PUSH1 0x0 DUP1 REVERT JUMPDEST POP PUSH2 0x18D PUSH2 0x68E JUMP JUMPDEST PUSH1 0x40 MLOAD PUSH2 0x19A SWAP2 SWAP1 PUSH2 0x2954 JUMP JUMPDEST PUSH1 0x40 MLOAD DUP1 SWAP2 SUB SWAP1 RETURN JUMPDEST CALLVALUE DUP1 ISZERO PUSH2 0x1AF JUMPI PUSH1 0x0 DUP1 REVERT JUMPDEST POP PUSH2 0x1CA PUSH1 0x4 DUP1 CALLDATASIZE SUB PUSH2 0x1C5 SWAP2 SWAP1 DUP2 ADD SWAP1 PUSH2 0x236A JUMP JUMPDEST PUSH2 0x698 JUMP JUMPDEST PUSH1 0x40 MLOAD PUSH2 0x1DD SWAP8 SWAP7 SWAP6 SWAP5 SWAP4 SWAP3 SWAP2 SWAP1 PUSH2 0x281B JUMP JUMPDEST PUSH1 0x40 MLOAD DUP1 SWAP2 SUB SWAP1 RETURN JUMPDEST CALLVALUE DUP1 ISZERO PUSH2 0x1F2 JUMPI PUSH1 0x0 DUP1 REVERT JUMPDEST POP PUSH2 0x1FB PUSH2 0xB79 JUMP JUMPDEST PUSH1 0x40 MLOAD PUSH2 0x208 SWAP2 SWAP1 PUSH2 0x2954 JUMP JUMPDEST PUSH1 0x40 MLOAD DUP1 SWAP2 SUB SWAP1 RETURN JUMPDEST CALLVALUE DUP1 ISZERO PUSH2 0x21D JUMPI PUSH1 0x0 DUP1 REVERT JUMPDEST POP PUSH2 0x238 PUSH1 0x4 DUP1 CALLDATASIZE SUB PUSH2 0x233 SWAP2 SWAP1 DUP2 ADD SWAP1 PUSH2 0x26DC JUMP JUMPDEST PUSH2 0xB7F JUMP JUMPDEST PUSH1 0x40 MLOAD PUSH2 0x245 SWAP2 SWAP1 PUSH2 0x27C3 JUMP JUMPDEST PUSH1 0x40 MLOAD DUP1 SWAP2 SUB SWAP1 RETURN JUMPDEST CALLVALUE DUP1 ISZERO PUSH2 0x25A JUMPI PUSH1 0x0 DUP1 REVERT JUMPDEST POP PUSH2 0x275 PUSH1 0x4 DUP1 CALLDATASIZE SUB PUSH2 0x270 SWAP2 SWAP1 DUP2 ADD SWAP1 PUSH2 0x23CF JUMP JUMPDEST PUSH2 0xBBD JUMP JUMPDEST STOP JUMPDEST CALLVALUE DUP1 ISZERO PUSH2 0x283 JUMPI PUSH1 0x0 DUP1 REVERT JUMPDEST POP PUSH2 0x29E PUSH1 0x4 DUP1 CALLDATASIZE SUB PUSH2 0x299 SWAP2 SWAP1 DUP2 ADD SWAP1 PUSH2 0x23CF JUMP JUMPDEST PUSH2 0xDB1 JUMP JUMPDEST STOP JUMPDEST CALLVALUE DUP1 ISZERO PUSH2 0x2AC JUMPI PUSH1 0x0 DUP1 REVERT JUMPDEST POP PUSH2 0x2C7 PUSH1 0x4 DUP1 CALLDATASIZE SUB PUSH2 0x2C2 SWAP2 SWAP1 DUP2 ADD SWAP1 PUSH2 0x236A JUMP JUMPDEST PUSH2 0x11CB JUMP JUMPDEST PUSH1 0x40 MLOAD PUSH2 0x2D4 SWAP2 SWAP1 PUSH2 0x2800 JUMP JUMPDEST PUSH1 0x40 MLOAD DUP1 SWAP2 SUB SWAP1 RETURN JUMPDEST CALLVALUE DUP1 ISZERO PUSH2 0x2E9 JUMPI PUSH1 0x0 DUP1 REVERT JUMPDEST POP PUSH2 0x304 PUSH1 0x4 DUP1 CALLDATASIZE SUB PUSH2 0x2FF SWAP2 SWAP1 DUP2 ADD SWAP1 PUSH2 0x236A JUMP JUMPDEST PUSH2 0x127D JUMP JUMPDEST PUSH1 0x40 MLOAD PUSH2 0x311 SWAP2 SWAP1 PUSH2 0x2800 JUMP JUMPDEST PUSH1 0x40 MLOAD DUP1 SWAP2 SUB SWAP1 RETURN JUMPDEST CALLVALUE DUP1 ISZERO PUSH2 0x326 JUMPI PUSH1 0x0 DUP1 REVERT JUMPDEST POP PUSH2 0x341 PUSH1 0x4 DUP1 CALLDATASIZE SUB PUSH2 0x33C SWAP2 SWAP1 DUP2 ADD SWAP1 PUSH2 0x2529 JUMP JUMPDEST PUSH2 0x131C JUMP JUMPDEST STOP JUMPDEST CALLVALUE DUP1 ISZERO PUSH2 0x34F JUMPI PUSH1 0x0 DUP1 REVERT JUMPDEST POP PUSH2 0x36A PUSH1 0x4 DUP1 CALLDATASIZE SUB PUSH2 0x365 SWAP2 SWAP1 DUP2 ADD SWAP1 PUSH2 0x2529 JUMP JUMPDEST PUSH2 0x176A JUMP JUMPDEST STOP JUMPDEST CALLVALUE DUP1 ISZERO PUSH2 0x378 JUMPI PUSH1 0x0 DUP1 REVERT JUMPDEST POP PUSH2 0x381 PUSH2 0x1992 JUMP JUMPDEST PUSH1 0x40 MLOAD PUSH2 0x38E SWAP2 SWAP1 PUSH2 0x2954 JUMP JUMPDEST PUSH1 0x40 MLOAD DUP1 SWAP2 SUB SWAP1 RETURN JUMPDEST CALLVALUE DUP1 ISZERO PUSH2 0x3A3 JUMPI PUSH1 0x0 DUP1 REVERT JUMPDEST POP PUSH2 0x3AC PUSH2 0x1998 JUMP JUMPDEST PUSH1 0x40 MLOAD PUSH2 0x3B9 SWAP2 SWAP1 PUSH2 0x2954 JUMP JUMPDEST PUSH1 0x40 MLOAD DUP1 SWAP2 SUB SWAP1 RETURN JUMPDEST CALLVALUE DUP1 ISZERO PUSH2 0x3CE JUMPI PUSH1 0x0 DUP1 REVERT JUMPDEST POP PUSH2 0x3D7 PUSH2 0x19A2 JUMP JUMPDEST PUSH1 0x40 MLOAD PUSH2 0x3E4 SWAP2 SWAP1 PUSH2 0x27C3 JUMP JUMPDEST PUSH1 0x40 MLOAD DUP1 SWAP2 SUB SWAP1 RETURN JUMPDEST CALLVALUE DUP1 ISZERO PUSH2 0x3F9 JUMPI PUSH1 0x0 DUP1 REVERT JUMPDEST POP PUSH2 0x402 PUSH2 0x19C7 JUMP JUMPDEST STOP JUMPDEST CALLVALUE DUP1 ISZERO PUSH2 0x410 JUMPI PUSH1 0x0 DUP1 REVERT JUMPDEST POP PUSH2 0x419 PUSH2 0x1A09 JUMP JUMPDEST PUSH1 0x40 MLOAD PUSH2 0x426 SWAP2 SWAP1 PUSH2 0x2954 JUMP JUMPDEST PUSH1 0x40 MLOAD DUP1 SWAP2 SUB SWAP1 RETURN JUMPDEST CALLVALUE DUP1 ISZERO PUSH2 0x43B JUMPI PUSH1 0x0 DUP1 REVERT JUMPDEST POP PUSH2 0x456 PUSH1 0x4 DUP1 CALLDATASIZE SUB PUSH2 0x451 SWAP2 SWAP1 DUP2 ADD SWAP1 PUSH2 0x26DC JUMP JUMPDEST PUSH2 0x1A0F JUMP JUMPDEST PUSH1 0x40 MLOAD PUSH2 0x463 SWAP2 SWAP1 PUSH2 0x27C3 JUMP JUMPDEST PUSH1 0x40 MLOAD DUP1 SWAP2 SUB SWAP1 RETURN JUMPDEST CALLVALUE DUP1 ISZERO PUSH2 0x478 JUMPI PUSH1 0x0 DUP1 REVERT JUMPDEST POP PUSH2 0x481 PUSH2 0x1A4D JUMP JUMPDEST PUSH1 0x40 MLOAD PUSH2 0x48E SWAP2 SWAP1 PUSH2 0x27DE JUMP JUMPDEST PUSH1 0x40 MLOAD DUP1 SWAP2 SUB SWAP1 RETURN JUMPDEST CALLVALUE DUP1 ISZERO PUSH2 0x4A3 JUMPI PUSH1 0x0 DUP1 REVERT JUMPDEST POP PUSH2 0x4AC PUSH2 0x1ADB JUMP JUMPDEST PUSH1 0x40 MLOAD PUSH2 0x4B9 SWAP2 SWAP1 PUSH2 0x2954 JUMP JUMPDEST PUSH1 0x40 MLOAD DUP1 SWAP2 SUB SWAP1 RETURN JUMPDEST CALLVALUE DUP1 ISZERO PUSH2 0x4CE JUMPI PUSH1 0x0 DUP1 REVERT JUMPDEST POP PUSH2 0x4D7 PUSH2 0x1AE5 JUMP JUMPDEST PUSH1 0x40 MLOAD PUSH2 0x4E4 SWAP2 SWAP1 PUSH2 0x27C3 JUMP JUMPDEST PUSH1 0x40 MLOAD DUP1 SWAP2 SUB SWAP1 RETURN JUMPDEST CALLVALUE DUP1 ISZERO PUSH2 0x4F9 JUMPI PUSH1 0x0 DUP1 REVERT JUMPDEST POP PUSH2 0x514 PUSH1 0x4 DUP1 CALLDATASIZE SUB PUSH2 0x50F SWAP2 SWAP1 DUP2 ADD SWAP1 PUSH2 0x2393 JUMP JUMPDEST PUSH2 0x1B0B JUMP JUMPDEST PUSH1 0x40 MLOAD PUSH2 0x521 SWAP2 SWAP1 PUSH2 0x2800 JUMP JUMPDEST PUSH1 0x40 MLOAD DUP1 SWAP2 SUB SWAP1 RETURN JUMPDEST CALLVALUE DUP1 ISZERO PUSH2 0x536 JUMPI PUSH1 0x0 DUP1 REVERT JUMPDEST POP PUSH2 0x53F PUSH2 0x1C08 JUMP JUMPDEST PUSH1 0x40 MLOAD PUSH2 0x54C SWAP2 SWAP1 PUSH2 0x2954 JUMP JUMPDEST PUSH1 0x40 MLOAD DUP1 SWAP2 SUB SWAP1 RETURN JUMPDEST CALLVALUE DUP1 ISZERO PUSH2 0x561 JUMPI PUSH1 0x0 DUP1 REVERT JUMPDEST POP PUSH2 0x57C PUSH1 0x4 DUP1 CALLDATASIZE SUB PUSH2 0x577 SWAP2 SWAP1 DUP2 ADD SWAP1 PUSH2 0x236A JUMP JUMPDEST PUSH2 0x1C0E JUMP JUMPDEST PUSH1 0x40 MLOAD PUSH2 0x58F SWAP8 SWAP7 SWAP6 SWAP5 SWAP4 SWAP3 SWAP2 SWAP1 PUSH2 0x28B4 JUMP JUMPDEST PUSH1 0x40 MLOAD DUP1 SWAP2 SUB SWAP1 RETURN JUMPDEST CALLVALUE DUP1 ISZERO PUSH2 0x5A4 JUMPI PUSH1 0x0 DUP1 REVERT JUMPDEST POP PUSH2 0x5BF PUSH1 0x4 DUP1 CALLDATASIZE SUB PUSH2 0x5BA SWAP2 SWAP1 DUP2 ADD SWAP1 PUSH2 0x2393 JUMP JUMPDEST PUSH2 0x212E JUMP JUMPDEST PUSH1 0x40 MLOAD PUSH2 0x5CC SWAP2 SWAP1 PUSH2 0x2800 JUMP JUMPDEST PUSH1 0x40 MLOAD DUP1 SWAP2 SUB SWAP1 RETURN JUMPDEST CALLVALUE DUP1 ISZERO PUSH2 0x5E1 JUMPI PUSH1 0x0 DUP1 REVERT JUMPDEST POP PUSH2 0x5EA PUSH2 0x223D JUMP JUMPDEST PUSH1 0x40 MLOAD PUSH2 0x5F7 SWAP2 SWAP1 PUSH2 0x2954 JUMP JUMPDEST PUSH1 0x40 MLOAD DUP1 SWAP2 SUB SWAP1 RETURN JUMPDEST PUSH1 0x60 PUSH1 0x1 DUP1 SLOAD DUP1 PUSH1 0x20 MUL PUSH1 0x20 ADD PUSH1 0x40 MLOAD SWAP1 DUP2 ADD PUSH1 0x40 MSTORE DUP1 SWAP3 SWAP2 SWAP1 DUP2 DUP2 MSTORE PUSH1 0x20 ADD DUP3 DUP1 SLOAD DUP1 ISZERO PUSH2 0x684 JUMPI PUSH1 0x20 MUL DUP3 ADD SWAP2 SWAP1 PUSH1 0x0 MSTORE PUSH1 0x20 PUSH1 0x0 KECCAK256 SWAP1 JUMPDEST DUP2 PUSH1 0x0 SWAP1 SLOAD SWAP1 PUSH2 0x100 EXP SWAP1 DIV PUSH20 0xFFFFFFFFFFFFFFFFFFFFFFFFFFFFFFFFFFFFFFFF AND PUSH20 0xFFFFFFFFFFFFFFFFFFFFFFFFFFFFFFFFFFFFFFFF AND DUP2 MSTORE PUSH1 0x20 ADD SWAP1 PUSH1 0x1 ADD SWAP1 DUP1 DUP4 GT PUSH2 0x63A JUMPI JUMPDEST POP POP POP POP POP SWAP1 POP SWAP1 JUMP JUMPDEST PUSH1 0x0 PUSH1 0xB SLOAD SWAP1 POP SWAP1 JUMP JUMPDEST PUSH1 0x60 DUP1 PUSH1 0x60 DUP1 PUSH1 0x60 DUP1 PUSH1 0x0 DUP1 PUSH1 0x5 PUSH1 0x0 DUP11 PUSH20 0xFFFFFFFFFFFFFFFFFFFFFFFFFFFFFFFFFFFFFFFF AND PUSH20 0xFFFFFFFFFFFFFFFFFFFFFFFFFFFFFFFFFFFFFFFF AND DUP2 MSTORE PUSH1 0x20 ADD SWAP1 DUP2 MSTORE PUSH1 0x20 ADD PUSH1 0x0 KECCAK256 PUSH1 0x0 CALLER PUSH20 0xFFFFFFFFFFFFFFFFFFFFFFFFFFFFFFFFFFFFFFFF AND PUSH20 0xFFFFFFFFFFFFFFFFFFFFFFFFFFFFFFFFFFFFFFFF AND DUP2 MSTORE PUSH1 0x20 ADD SWAP1 DUP2 MSTORE PUSH1 0x20 ADD PUSH1 0x0 KECCAK256 PUSH1 0x0 SWAP1 SLOAD SWAP1 PUSH2 0x100 EXP SWAP1 DIV PUSH1 0xFF AND ISZERO ISZERO PUSH2 0x739 JUMPI PUSH1 0x0 DUP1 REVERT JUMPDEST PUSH1 0x3 PUSH1 0x0 DUP11 PUSH20 0xFFFFFFFFFFFFFFFFFFFFFFFFFFFFFFFFFFFFFFFF AND PUSH20 0xFFFFFFFFFFFFFFFFFFFFFFFFFFFFFFFFFFFFFFFF AND DUP2 MSTORE PUSH1 0x20 ADD SWAP1 DUP2 MSTORE PUSH1 0x20 ADD PUSH1 0x0 KECCAK256 SWAP1 POP DUP1 PUSH1 0x0 ADD DUP2 PUSH1 0x1 ADD DUP3 PUSH1 0x2 ADD DUP4 PUSH1 0x3 ADD DUP5 PUSH1 0x4 ADD DUP6 PUSH1 0x5 ADD DUP7 PUSH1 0x9 ADD PUSH1 0x0 SWAP1 SLOAD SWAP1 PUSH2 0x100 EXP SWAP1 DIV PUSH20 0xFFFFFFFFFFFFFFFFFFFFFFFFFFFFFFFFFFFFFFFF AND DUP7 DUP1 SLOAD PUSH1 0x1 DUP2 PUSH1 0x1 AND ISZERO PUSH2 0x100 MUL SUB AND PUSH1 0x2 SWAP1 DIV DUP1 PUSH1 0x1F ADD PUSH1 0x20 DUP1 SWAP2 DIV MUL PUSH1 0x20 ADD PUSH1 0x40 MLOAD SWAP1 DUP2 ADD PUSH1 0x40 MSTORE DUP1 SWAP3 SWAP2 SWAP1 DUP2 DUP2 MSTORE PUSH1 0x20 ADD DUP3 DUP1 SLOAD PUSH1 0x1 DUP2 PUSH1 0x1 AND ISZERO PUSH2 0x100 MUL SUB AND PUSH1 0x2 SWAP1 DIV DUP1 ISZERO PUSH2 0x84C JUMPI DUP1 PUSH1 0x1F LT PUSH2 0x821 JUMPI PUSH2 0x100 DUP1 DUP4 SLOAD DIV MUL DUP4 MSTORE SWAP2 PUSH1 0x20 ADD SWAP2 PUSH2 0x84C JUMP JUMPDEST DUP3 ADD SWAP2 SWAP1 PUSH1 0x0 MSTORE PUSH1 0x20 PUSH1 0x0 KECCAK256 SWAP1 JUMPDEST DUP2 SLOAD DUP2 MSTORE SWAP1 PUSH1 0x1 ADD SWAP1 PUSH1 0x20 ADD DUP1 DUP4 GT PUSH2 0x82F JUMPI DUP3 SWAP1 SUB PUSH1 0x1F AND DUP3 ADD SWAP2 JUMPDEST POP POP POP POP POP SWAP7 POP DUP6 DUP1 SLOAD PUSH1 0x1 DUP2 PUSH1 0x1 AND ISZERO PUSH2 0x100 MUL SUB AND PUSH1 0x2 SWAP1 DIV DUP1 PUSH1 0x1F ADD PUSH1 0x20 DUP1 SWAP2 DIV MUL PUSH1 0x20 ADD PUSH1 0x40 MLOAD SWAP1 DUP2 ADD PUSH1 0x40 MSTORE DUP1 SWAP3 SWAP2 SWAP1 DUP2 DUP2 MSTORE PUSH1 0x20 ADD DUP3 DUP1 SLOAD PUSH1 0x1 DUP2 PUSH1 0x1 AND ISZERO PUSH2 0x100 MUL SUB AND PUSH1 0x2 SWAP1 DIV DUP1 ISZERO PUSH2 0x8E8 JUMPI DUP1 PUSH1 0x1F LT PUSH2 0x8BD JUMPI PUSH2 0x100 DUP1 DUP4 SLOAD DIV MUL DUP4 MSTORE SWAP2 PUSH1 0x20 ADD SWAP2 PUSH2 0x8E8 JUMP JUMPDEST DUP3 ADD SWAP2 SWAP1 PUSH1 0x0 MSTORE PUSH1 0x20 PUSH1 0x0 KECCAK256 SWAP1 JUMPDEST DUP2 SLOAD DUP2 MSTORE SWAP1 PUSH1 0x1 ADD SWAP1 PUSH1 0x20 ADD DUP1 DUP4 GT PUSH2 0x8CB JUMPI DUP3 SWAP1 SUB PUSH1 0x1F AND DUP3 ADD SWAP2 JUMPDEST POP POP POP POP POP SWAP6 POP DUP5 DUP1 SLOAD PUSH1 0x1 DUP2 PUSH1 0x1 AND ISZERO PUSH2 0x100 MUL SUB AND PUSH1 0x2 SWAP1 DIV DUP1 PUSH1 0x1F ADD PUSH1 0x20 DUP1 SWAP2 DIV MUL PUSH1 0x20 ADD PUSH1 0x40 MLOAD SWAP1 DUP2 ADD PUSH1 0x40 MSTORE DUP1 SWAP3 SWAP2 SWAP1 DUP2 DUP2 MSTORE PUSH1 0x20 ADD DUP3 DUP1 SLOAD PUSH1 0x1 DUP2 PUSH1 0x1 AND ISZERO PUSH2 0x100 MUL SUB AND PUSH1 0x2 SWAP1 DIV DUP1 ISZERO PUSH2 0x984 JUMPI DUP1 PUSH1 0x1F LT PUSH2 0x959 JUMPI PUSH2 0x100 DUP1 DUP4 SLOAD DIV MUL DUP4 MSTORE SWAP2 PUSH1 0x20 ADD SWAP2 PUSH2 0x984 JUMP JUMPDEST DUP3 ADD SWAP2 SWAP1 PUSH1 0x0 MSTORE PUSH1 0x20 PUSH1 0x0 KECCAK256 SWAP1 JUMPDEST DUP2 SLOAD DUP2 MSTORE SWAP1 PUSH1 0x1 ADD SWAP1 PUSH1 0x20 ADD DUP1 DUP4 GT PUSH2 0x967 JUMPI DUP3 SWAP1 SUB PUSH1 0x1F AND DUP3 ADD SWAP2 JUMPDEST POP POP POP POP POP SWAP5 POP DUP4 DUP1 SLOAD PUSH1 0x1 DUP2 PUSH1 0x1 AND ISZERO PUSH2 0x100 MUL SUB AND PUSH1 0x2 SWAP1 DIV DUP1 PUSH1 0x1F ADD PUSH1 0x20 DUP1 SWAP2 DIV MUL PUSH1 0x20 ADD PUSH1 0x40 MLOAD SWAP1 DUP2 ADD PUSH1 0x40 MSTORE DUP1 SWAP3 SWAP2 SWAP1 DUP2 DUP2 MSTORE PUSH1 0x20 ADD DUP3 DUP1 SLOAD PUSH1 0x1 DUP2 PUSH1 0x1 AND ISZERO PUSH2 0x100 MUL SUB AND PUSH1 0x2 SWAP1 DIV DUP1 ISZERO PUSH2 0xA20 JUMPI DUP1 PUSH1 0x1F LT PUSH2 0x9F5 JUMPI PUSH2 0x100 DUP1 DUP4 SLOAD DIV MUL DUP4 MSTORE SWAP2 PUSH1 0x20 ADD SWAP2 PUSH2 0xA20 JUMP JUMPDEST DUP3 ADD SWAP2 SWAP1 PUSH1 0x0 MSTORE PUSH1 0x20 PUSH1 0x0 KECCAK256 SWAP1 JUMPDEST DUP2 SLOAD DUP2 MSTORE SWAP1 PUSH1 0x1 ADD SWAP1 PUSH1 0x20 ADD DUP1 DUP4 GT PUSH2 0xA03 JUMPI DUP3 SWAP1 SUB PUSH1 0x1F AND DUP3 ADD SWAP2 JUMPDEST POP POP POP POP POP SWAP4 POP DUP3 DUP1 SLOAD PUSH1 0x1 DUP2 PUSH1 0x1 AND ISZERO PUSH2 0x100 MUL SUB AND PUSH1 0x2 SWAP1 DIV DUP1 PUSH1 0x1F ADD PUSH1 0x20 DUP1 SWAP2 DIV MUL PUSH1 0x20 ADD PUSH1 0x40 MLOAD SWAP1 DUP2 ADD PUSH1 0x40 MSTORE DUP1 SWAP3 SWAP2 SWAP1 DUP2 DUP2 MSTORE PUSH1 0x20 ADD DUP3 DUP1 SLOAD PUSH1 0x1 DUP2 PUSH1 0x1 AND ISZERO PUSH2 0x100 MUL SUB AND PUSH1 0x2 SWAP1 DIV DUP1 ISZERO PUSH2 0xABC JUMPI DUP1 PUSH1 0x1F LT PUSH2 0xA91 JUMPI PUSH2 0x100 DUP1 DUP4 SLOAD DIV MUL DUP4 MSTORE SWAP2 PUSH1 0x20 ADD SWAP2 PUSH2 0xABC JUMP JUMPDEST DUP3 ADD SWAP2 SWAP1 PUSH1 0x0 MSTORE PUSH1 0x20 PUSH1 0x0 KECCAK256 SWAP1 JUMPDEST DUP2 SLOAD DUP2 MSTORE SWAP1 PUSH1 0x1 ADD SWAP1 PUSH1 0x20 ADD DUP1 DUP4 GT PUSH2 0xA9F JUMPI DUP3 SWAP1 SUB PUSH1 0x1F AND DUP3 ADD SWAP2 JUMPDEST POP POP POP POP POP SWAP3 POP DUP2 DUP1 SLOAD PUSH1 0x1 DUP2 PUSH1 0x1 AND ISZERO PUSH2 0x100 MUL SUB AND PUSH1 0x2 SWAP1 DIV DUP1 PUSH1 0x1F ADD PUSH1 0x20 DUP1 SWAP2 DIV MUL PUSH1 0x20 ADD PUSH1 0x40 MLOAD SWAP1 DUP2 ADD PUSH1 0x40 MSTORE DUP1 SWAP3 SWAP2 SWAP1 DUP2 DUP2 MSTORE PUSH1 0x20 ADD DUP3 DUP1 SLOAD PUSH1 0x1 DUP2 PUSH1 0x1 AND ISZERO PUSH2 0x100 MUL SUB AND PUSH1 0x2 SWAP1 DIV DUP1 ISZERO PUSH2 0xB58 JUMPI DUP1 PUSH1 0x1F LT PUSH2 0xB2D JUMPI PUSH2 0x100 DUP1 DUP4 SLOAD DIV MUL DUP4 MSTORE SWAP2 PUSH1 0x20 ADD SWAP2 PUSH2 0xB58 JUMP JUMPDEST DUP3 ADD SWAP2 SWAP1 PUSH1 0x0 MSTORE PUSH1 0x20 PUSH1 0x0 KECCAK256 SWAP1 JUMPDEST DUP2 SLOAD DUP2 MSTORE SWAP1 PUSH1 0x1 ADD SWAP1 PUSH1 0x20 ADD DUP1 DUP4 GT PUSH2 0xB3B JUMPI DUP3 SWAP1 SUB PUSH1 0x1F AND DUP3 ADD SWAP2 JUMPDEST POP POP POP POP POP SWAP2 POP SWAP8 POP SWAP8 POP SWAP8 POP SWAP8 POP SWAP8 POP SWAP8 POP SWAP8 POP POP SWAP2 SWAP4 SWAP6 SWAP8 SWAP1 SWAP3 SWAP5 SWAP7 POP JUMP JUMPDEST PUSH1 0x8 SLOAD DUP2 JUMP JUMPDEST PUSH1 0x2 DUP2 DUP2 SLOAD DUP2 LT ISZERO ISZERO PUSH2 0xB8E JUMPI INVALID JUMPDEST SWAP1 PUSH1 0x0 MSTORE PUSH1 0x20 PUSH1 0x0 KECCAK256 ADD PUSH1 0x0 SWAP2 POP SLOAD SWAP1 PUSH2 0x100 EXP SWAP1 DIV PUSH20 0xFFFFFFFFFFFFFFFFFFFFFFFFFFFFFFFFFFFFFFFF AND DUP2 JUMP JUMPDEST PUSH1 0x0 PUSH1 0xC PUSH1 0x0 SWAP1 SLOAD SWAP1 PUSH2 0x100 EXP SWAP1 DIV PUSH20 0xFFFFFFFFFFFFFFFFFFFFFFFFFFFFFFFFFFFFFFFF AND PUSH20 0xFFFFFFFFFFFFFFFFFFFFFFFFFFFFFFFFFFFFFFFF AND CALLER PUSH20 0xFFFFFFFFFFFFFFFFFFFFFFFFFFFFFFFFFFFFFFFF AND EQ ISZERO ISZERO PUSH2 0xC1B JUMPI PUSH1 0x0 DUP1 REVERT JUMPDEST PUSH1 0x7 PUSH1 0x0 DUP11 PUSH20 0xFFFFFFFFFFFFFFFFFFFFFFFFFFFFFFFFFFFFFFFF AND PUSH20 0xFFFFFFFFFFFFFFFFFFFFFFFFFFFFFFFFFFFFFFFF AND DUP2 MSTORE PUSH1 0x20 ADD SWAP1 DUP2 MSTORE PUSH1 0x20 ADD PUSH1 0x0 KECCAK256 PUSH1 0x0 SWAP1 SLOAD SWAP1 PUSH2 0x100 EXP SWAP1 DIV PUSH1 0xFF AND ISZERO ISZERO PUSH2 0xC73 JUMPI PUSH1 0x0 DUP1 REVERT JUMPDEST PUSH1 0x4 PUSH1 0x0 DUP11 PUSH20 0xFFFFFFFFFFFFFFFFFFFFFFFFFFFFFFFFFFFFFFFF AND PUSH20 0xFFFFFFFFFFFFFFFFFFFFFFFFFFFFFFFFFFFFFFFF AND DUP2 MSTORE PUSH1 0x20 ADD SWAP1 DUP2 MSTORE PUSH1 0x20 ADD PUSH1 0x0 KECCAK256 SWAP1 POP DUP8 DUP2 PUSH1 0x0 ADD SWAP1 DUP1 MLOAD SWAP1 PUSH1 0x20 ADD SWAP1 PUSH2 0xCCC SWAP3 SWAP2 SWAP1 PUSH2 0x2247 JUMP JUMPDEST POP DUP7 DUP2 PUSH1 0x1 ADD SWAP1 DUP1 MLOAD SWAP1 PUSH1 0x20 ADD SWAP1 PUSH2 0xCE5 SWAP3 SWAP2 SWAP1 PUSH2 0x2247 JUMP JUMPDEST POP DUP6 DUP2 PUSH1 0x2 ADD SWAP1 DUP1 MLOAD SWAP1 PUSH1 0x20 ADD SWAP1 PUSH2 0xCFE SWAP3 SWAP2 SWAP1 PUSH2 0x2247 JUMP JUMPDEST POP DUP5 DUP2 PUSH1 0x3 ADD SWAP1 DUP1 MLOAD SWAP1 PUSH1 0x20 ADD SWAP1 PUSH2 0xD17 SWAP3 SWAP2 SWAP1 PUSH2 0x2247 JUMP JUMPDEST POP DUP4 DUP2 PUSH1 0x4 ADD SWAP1 DUP1 MLOAD SWAP1 PUSH1 0x20 ADD SWAP1 PUSH2 0xD30 SWAP3 SWAP2 SWAP1 PUSH2 0x2247 JUMP JUMPDEST POP DUP3 DUP2 PUSH1 0x7 ADD SWAP1 DUP1 MLOAD SWAP1 PUSH1 0x20 ADD SWAP1 PUSH2 0xD49 SWAP3 SWAP2 SWAP1 PUSH2 0x2247 JUMP JUMPDEST POP DUP2 DUP2 PUSH1 0x8 ADD SWAP1 DUP1 MLOAD SWAP1 PUSH1 0x20 ADD SWAP1 PUSH2 0xD62 SWAP3 SWAP2 SWAP1 PUSH2 0x2247 JUMP JUMPDEST POP DUP9 DUP2 PUSH1 0x9 ADD PUSH1 0x0 PUSH2 0x100 EXP DUP2 SLOAD DUP2 PUSH20 0xFFFFFFFFFFFFFFFFFFFFFFFFFFFFFFFFFFFFFFFF MUL NOT AND SWAP1 DUP4 PUSH20 0xFFFFFFFFFFFFFFFFFFFFFFFFFFFFFFFFFFFFFFFF AND MUL OR SWAP1 SSTORE POP POP POP POP POP POP POP POP POP POP JUMP JUMPDEST PUSH1 0x0 PUSH1 0xC PUSH1 0x0 SWAP1 SLOAD SWAP1 PUSH2 0x100 EXP SWAP1 DIV PUSH20 0xFFFFFFFFFFFFFFFFFFFFFFFFFFFFFFFFFFFFFFFF AND PUSH20 0xFFFFFFFFFFFFFFFFFFFFFFFFFFFFFFFFFFFFFFFF AND CALLER PUSH20 0xFFFFFFFFFFFFFFFFFFFFFFFFFFFFFFFFFFFFFFFF AND EQ ISZERO ISZERO PUSH2 0xE0F JUMPI PUSH1 0x0 DUP1 REVERT JUMPDEST PUSH1 0x7 PUSH1 0x0 DUP11 PUSH20 0xFFFFFFFFFFFFFFFFFFFFFFFFFFFFFFFFFFFFFFFF AND PUSH20 0xFFFFFFFFFFFFFFFFFFFFFFFFFFFFFFFFFFFFFFFF AND DUP2 MSTORE PUSH1 0x20 ADD SWAP1 DUP2 MSTORE PUSH1 0x20 ADD PUSH1 0x0 KECCAK256 PUSH1 0x0 SWAP1 SLOAD SWAP1 PUSH2 0x100 EXP SWAP1 DIV PUSH1 0xFF AND ISZERO ISZERO ISZERO PUSH2 0xE68 JUMPI PUSH1 0x0 DUP1 REVERT JUMPDEST PUSH1 0x4 PUSH1 0x0 DUP11 PUSH20 0xFFFFFFFFFFFFFFFFFFFFFFFFFFFFFFFFFFFFFFFF AND PUSH20 0xFFFFFFFFFFFFFFFFFFFFFFFFFFFFFFFFFFFFFFFF AND DUP2 MSTORE PUSH1 0x20 ADD SWAP1 DUP2 MSTORE PUSH1 0x20 ADD PUSH1 0x0 KECCAK256 SWAP1 POP DUP8 DUP2 PUSH1 0x0 ADD SWAP1 DUP1 MLOAD SWAP1 PUSH1 0x20 ADD SWAP1 PUSH2 0xEC1 SWAP3 SWAP2 SWAP1 PUSH2 0x2247 JUMP JUMPDEST POP DUP7 DUP2 PUSH1 0x1 ADD SWAP1 DUP1 MLOAD SWAP1 PUSH1 0x20 ADD SWAP1 PUSH2 0xEDA SWAP3 SWAP2 SWAP1 PUSH2 0x2247 JUMP JUMPDEST POP DUP6 DUP2 PUSH1 0x2 ADD SWAP1 DUP1 MLOAD SWAP1 PUSH1 0x20 ADD SWAP1 PUSH2 0xEF3 SWAP3 SWAP2 SWAP1 PUSH2 0x2247 JUMP JUMPDEST POP DUP5 DUP2 PUSH1 0x3 ADD SWAP1 DUP1 MLOAD SWAP1 PUSH1 0x20 ADD SWAP1 PUSH2 0xF0C SWAP3 SWAP2 SWAP1 PUSH2 0x2247 JUMP JUMPDEST POP DUP4 DUP2 PUSH1 0x4 ADD SWAP1 DUP1 MLOAD SWAP1 PUSH1 0x20 ADD SWAP1 PUSH2 0xF25 SWAP3 SWAP2 SWAP1 PUSH2 0x2247 JUMP JUMPDEST POP DUP3 DUP2 PUSH1 0x7 ADD SWAP1 DUP1 MLOAD SWAP1 PUSH1 0x20 ADD SWAP1 PUSH2 0xF3E SWAP3 SWAP2 SWAP1 PUSH2 0x2247 JUMP JUMPDEST POP DUP2 DUP2 PUSH1 0x8 ADD SWAP1 DUP1 MLOAD SWAP1 PUSH1 0x20 ADD SWAP1 PUSH2 0xF57 SWAP3 SWAP2 SWAP1 PUSH2 0x2247 JUMP JUMPDEST POP DUP9 DUP2 PUSH1 0x9 ADD PUSH1 0x0 PUSH2 0x100 EXP DUP2 SLOAD DUP2 PUSH20 0xFFFFFFFFFFFFFFFFFFFFFFFFFFFFFFFFFFFFFFFF MUL NOT AND SWAP1 DUP4 PUSH20 0xFFFFFFFFFFFFFFFFFFFFFFFFFFFFFFFFFFFFFFFF AND MUL OR SWAP1 SSTORE POP TIMESTAMP DUP2 PUSH1 0xA ADD DUP2 SWAP1 SSTORE POP PUSH1 0x2 DUP10 SWAP1 DUP1 PUSH1 0x1 DUP2 SLOAD ADD DUP1 DUP3 SSTORE DUP1 SWAP2 POP POP SWAP1 PUSH1 0x1 DUP3 SUB SWAP1 PUSH1 0x0 MSTORE PUSH1 0x20 PUSH1 0x0 KECCAK256 ADD PUSH1 0x0 SWAP1 SWAP2 SWAP3 SWAP1 SWAP2 SWAP1 SWAP2 PUSH2 0x100 EXP DUP2 SLOAD DUP2 PUSH20 0xFFFFFFFFFFFFFFFFFFFFFFFFFFFFFFFFFFFFFFFF MUL NOT AND SWAP1 DUP4 PUSH20 0xFFFFFFFFFFFFFFFFFFFFFFFFFFFFFFFFFFFFFFFF AND MUL OR SWAP1 SSTORE POP POP PUSH1 0x1 PUSH1 0x7 PUSH1 0x0 DUP12 PUSH20 0xFFFFFFFFFFFFFFFFFFFFFFFFFFFFFFFFFFFFFFFF AND PUSH20 0xFFFFFFFFFFFFFFFFFFFFFFFFFFFFFFFFFFFFFFFF AND DUP2 MSTORE PUSH1 0x20 ADD SWAP1 DUP2 MSTORE PUSH1 0x20 ADD PUSH1 0x0 KECCAK256 PUSH1 0x0 PUSH2 0x100 EXP DUP2 SLOAD DUP2 PUSH1 0xFF MUL NOT AND SWAP1 DUP4 ISZERO ISZERO MUL OR SWAP1 SSTORE POP PUSH1 0x1 PUSH1 0x5 PUSH1 0x0 DUP12 PUSH20 0xFFFFFFFFFFFFFFFFFFFFFFFFFFFFFFFFFFFFFFFF AND PUSH20 0xFFFFFFFFFFFFFFFFFFFFFFFFFFFFFFFFFFFFFFFF AND DUP2 MSTORE PUSH1 0x20 ADD SWAP1 DUP2 MSTORE PUSH1 0x20 ADD PUSH1 0x0 KECCAK256 PUSH1 0x0 DUP12 PUSH20 0xFFFFFFFFFFFFFFFFFFFFFFFFFFFFFFFFFFFFFFFF AND PUSH20 0xFFFFFFFFFFFFFFFFFFFFFFFFFFFFFFFFFFFFFFFF AND DUP2 MSTORE PUSH1 0x20 ADD SWAP1 DUP2 MSTORE PUSH1 0x20 ADD PUSH1 0x0 KECCAK256 PUSH1 0x0 PUSH2 0x100 EXP DUP2 SLOAD DUP2 PUSH1 0xFF MUL NOT AND SWAP1 DUP4 ISZERO ISZERO MUL OR SWAP1 SSTORE POP PUSH1 0x1 PUSH1 0x5 PUSH1 0x0 DUP12 PUSH20 0xFFFFFFFFFFFFFFFFFFFFFFFFFFFFFFFFFFFFFFFF AND PUSH20 0xFFFFFFFFFFFFFFFFFFFFFFFFFFFFFFFFFFFFFFFF AND DUP2 MSTORE PUSH1 0x20 ADD SWAP1 DUP2 MSTORE PUSH1 0x20 ADD PUSH1 0x0 KECCAK256 PUSH1 0x0 PUSH1 0xC PUSH1 0x0 SWAP1 SLOAD SWAP1 PUSH2 0x100 EXP SWAP1 DIV PUSH20 0xFFFFFFFFFFFFFFFFFFFFFFFFFFFFFFFFFFFFFFFF AND PUSH20 0xFFFFFFFFFFFFFFFFFFFFFFFFFFFFFFFFFFFFFFFF AND PUSH20 0xFFFFFFFFFFFFFFFFFFFFFFFFFFFFFFFFFFFFFFFF AND DUP2 MSTORE PUSH1 0x20 ADD SWAP1 DUP2 MSTORE PUSH1 0x20 ADD PUSH1 0x0 KECCAK256 PUSH1 0x0 PUSH2 0x100 EXP DUP2 SLOAD DUP2 PUSH1 0xFF MUL NOT AND SWAP1 DUP4 ISZERO ISZERO MUL OR SWAP1 SSTORE POP PUSH1 0x9 PUSH1 0x0 DUP2 SLOAD DUP1 SWAP3 SWAP2 SWAP1 PUSH1 0x1 ADD SWAP2 SWAP1 POP SSTORE POP POP POP POP POP POP POP POP POP POP JUMP JUMPDEST PUSH1 0x0 PUSH1 0x1 PUSH1 0x5 PUSH1 0x0 CALLER PUSH20 0xFFFFFFFFFFFFFFFFFFFFFFFFFFFFFFFFFFFFFFFF AND PUSH20 0xFFFFFFFFFFFFFFFFFFFFFFFFFFFFFFFFFFFFFFFF AND DUP2 MSTORE PUSH1 0x20 ADD SWAP1 DUP2 MSTORE PUSH1 0x20 ADD PUSH1 0x0 KECCAK256 PUSH1 0x0 DUP5 PUSH20 0xFFFFFFFFFFFFFFFFFFFFFFFFFFFFFFFFFFFFFFFF AND PUSH20 0xFFFFFFFFFFFFFFFFFFFFFFFFFFFFFFFFFFFFFFFF AND DUP2 MSTORE PUSH1 0x20 ADD SWAP1 DUP2 MSTORE PUSH1 0x20 ADD PUSH1 0x0 KECCAK256 PUSH1 0x0 PUSH2 0x100 EXP DUP2 SLOAD DUP2 PUSH1 0xFF MUL NOT AND SWAP1 DUP4 ISZERO ISZERO MUL OR SWAP1 SSTORE POP PUSH1 0xB PUSH1 0x0 DUP2 SLOAD DUP1 SWAP3 SWAP2 SWAP1 PUSH1 0x1 ADD SWAP2 SWAP1 POP SSTORE POP PUSH1 0x1 SWAP1 POP SWAP2 SWAP1 POP JUMP JUMPDEST PUSH1 0x0 DUP1 PUSH1 0x5 PUSH1 0x0 CALLER PUSH20 0xFFFFFFFFFFFFFFFFFFFFFFFFFFFFFFFFFFFFFFFF AND PUSH20 0xFFFFFFFFFFFFFFFFFFFFFFFFFFFFFFFFFFFFFFFF AND DUP2 MSTORE PUSH1 0x20 ADD SWAP1 DUP2 MSTORE PUSH1 0x20 ADD PUSH1 0x0 KECCAK256 PUSH1 0x0 DUP5 PUSH20 0xFFFFFFFFFFFFFFFFFFFFFFFFFFFFFFFFFFFFFFFF AND PUSH20 0xFFFFFFFFFFFFFFFFFFFFFFFFFFFFFFFFFFFFFFFF AND DUP2 MSTORE PUSH1 0x20 ADD SWAP1 DUP2 MSTORE PUSH1 0x20 ADD PUSH1 0x0 KECCAK256 PUSH1 0x0 PUSH2 0x100 EXP DUP2 SLOAD DUP2 PUSH1 0xFF MUL NOT AND SWAP1 DUP4 ISZERO ISZERO MUL OR SWAP1 SSTORE POP PUSH1 0x1 SWAP1 POP SWAP2 SWAP1 POP JUMP JUMPDEST PUSH1 0x0 PUSH1 0xC PUSH1 0x0 SWAP1 SLOAD SWAP1 PUSH2 0x100 EXP SWAP1 DIV PUSH20 0xFFFFFFFFFFFFFFFFFFFFFFFFFFFFFFFFFFFFFFFF AND PUSH20 0xFFFFFFFFFFFFFFFFFFFFFFFFFFFFFFFFFFFFFFFF AND CALLER PUSH20 0xFFFFFFFFFFFFFFFFFFFFFFFFFFFFFFFFFFFFFFFF AND EQ ISZERO ISZERO PUSH2 0x137A JUMPI PUSH1 0x0 DUP1 REVERT JUMPDEST PUSH1 0x6 PUSH1 0x0 DUP13 PUSH20 0xFFFFFFFFFFFFFFFFFFFFFFFFFFFFFFFFFFFFFFFF AND PUSH20 0xFFFFFFFFFFFFFFFFFFFFFFFFFFFFFFFFFFFFFFFF AND DUP2 MSTORE PUSH1 0x20 ADD SWAP1 DUP2 MSTORE PUSH1 0x20 ADD PUSH1 0x0 KECCAK256 PUSH1 0x0 SWAP1 SLOAD SWAP1 PUSH2 0x100 EXP SWAP1 DIV PUSH1 0xFF AND ISZERO ISZERO ISZERO PUSH2 0x13D3 JUMPI PUSH1 0x0 DUP1 REVERT JUMPDEST PUSH1 0x3 PUSH1 0x0 DUP13 PUSH20 0xFFFFFFFFFFFFFFFFFFFFFFFFFFFFFFFFFFFFFFFF AND PUSH20 0xFFFFFFFFFFFFFFFFFFFFFFFFFFFFFFFFFFFFFFFF AND DUP2 MSTORE PUSH1 0x20 ADD SWAP1 DUP2 MSTORE PUSH1 0x20 ADD PUSH1 0x0 KECCAK256 SWAP1 POP DUP10 DUP2 PUSH1 0x0 ADD SWAP1 DUP1 MLOAD SWAP1 PUSH1 0x20 ADD SWAP1 PUSH2 0x142C SWAP3 SWAP2 SWAP1 PUSH2 0x2247 JUMP JUMPDEST POP DUP9 DUP2 PUSH1 0x1 ADD SWAP1 DUP1 MLOAD SWAP1 PUSH1 0x20 ADD SWAP1 PUSH2 0x1445 SWAP3 SWAP2 SWAP1 PUSH2 0x2247 JUMP JUMPDEST POP DUP8 DUP2 PUSH1 0x2 ADD SWAP1 DUP1 MLOAD SWAP1 PUSH1 0x20 ADD SWAP1 PUSH2 0x145E SWAP3 SWAP2 SWAP1 PUSH2 0x2247 JUMP JUMPDEST POP DUP7 DUP2 PUSH1 0x3 ADD SWAP1 DUP1 MLOAD SWAP1 PUSH1 0x20 ADD SWAP1 PUSH2 0x1477 SWAP3 SWAP2 SWAP1 PUSH2 0x2247 JUMP JUMPDEST POP DUP6 DUP2 PUSH1 0x4 ADD SWAP1 DUP1 MLOAD SWAP1 PUSH1 0x20 ADD SWAP1 PUSH2 0x1490 SWAP3 SWAP2 SWAP1 PUSH2 0x2247 JUMP JUMPDEST POP DUP5 DUP2 PUSH1 0x5 ADD SWAP1 DUP1 MLOAD SWAP1 PUSH1 0x20 ADD SWAP1 PUSH2 0x14A9 SWAP3 SWAP2 SWAP1 PUSH2 0x2247 JUMP JUMPDEST POP DUP4 DUP2 PUSH1 0x6 ADD SWAP1 DUP1 MLOAD SWAP1 PUSH1 0x20 ADD SWAP1 PUSH2 0x14C2 SWAP3 SWAP2 SWAP1 PUSH2 0x2247 JUMP JUMPDEST POP DUP3 DUP2 PUSH1 0x7 ADD SWAP1 DUP1 MLOAD SWAP1 PUSH1 0x20 ADD SWAP1 PUSH2 0x14DB SWAP3 SWAP2 SWAP1 PUSH2 0x2247 JUMP JUMPDEST POP DUP2 DUP2 PUSH1 0x8 ADD SWAP1 DUP1 MLOAD SWAP1 PUSH1 0x20 ADD SWAP1 PUSH2 0x14F4 SWAP3 SWAP2 SWAP1 PUSH2 0x2247 JUMP JUMPDEST POP DUP11 DUP2 PUSH1 0x9 ADD PUSH1 0x0 PUSH2 0x100 EXP DUP2 SLOAD DUP2 PUSH20 0xFFFFFFFFFFFFFFFFFFFFFFFFFFFFFFFFFFFFFFFF MUL NOT AND SWAP1 DUP4 PUSH20 0xFFFFFFFFFFFFFFFFFFFFFFFFFFFFFFFFFFFFFFFF AND MUL OR SWAP1 SSTORE POP TIMESTAMP DUP2 PUSH1 0xA ADD DUP2 SWAP1 SSTORE POP PUSH1 0x1 DUP12 SWAP1 DUP1 PUSH1 0x1 DUP2 SLOAD ADD DUP1 DUP3 SSTORE DUP1 SWAP2 POP POP SWAP1 PUSH1 0x1 DUP3 SUB SWAP1 PUSH1 0x0 MSTORE PUSH1 0x20 PUSH1 0x0 KECCAK256 ADD PUSH1 0x0 SWAP1 SWAP2 SWAP3 SWAP1 SWAP2 SWAP1 SWAP2 PUSH2 0x100 EXP DUP2 SLOAD DUP2 PUSH20 0xFFFFFFFFFFFFFFFFFFFFFFFFFFFFFFFFFFFFFFFF MUL NOT AND SWAP1 DUP4 PUSH20 0xFFFFFFFFFFFFFFFFFFFFFFFFFFFFFFFFFFFFFFFF AND MUL OR SWAP1 SSTORE POP POP PUSH1 0x1 PUSH1 0x6 PUSH1 0x0 DUP14 PUSH20 0xFFFFFFFFFFFFFFFFFFFFFFFFFFFFFFFFFFFFFFFF AND PUSH20 0xFFFFFFFFFFFFFFFFFFFFFFFFFFFFFFFFFFFFFFFF AND DUP2 MSTORE PUSH1 0x20 ADD SWAP1 DUP2 MSTORE PUSH1 0x20 ADD PUSH1 0x0 KECCAK256 PUSH1 0x0 PUSH2 0x100 EXP DUP2 SLOAD DUP2 PUSH1 0xFF MUL NOT AND SWAP1 DUP4 ISZERO ISZERO MUL OR SWAP1 SSTORE POP PUSH1 0x1 PUSH1 0x5 PUSH1 0x0 DUP14 PUSH20 0xFFFFFFFFFFFFFFFFFFFFFFFFFFFFFFFFFFFFFFFF AND PUSH20 0xFFFFFFFFFFFFFFFFFFFFFFFFFFFFFFFFFFFFFFFF AND DUP2 MSTORE PUSH1 0x20 ADD SWAP1 DUP2 MSTORE PUSH1 0x20 ADD PUSH1 0x0 KECCAK256 PUSH1 0x0 DUP14 PUSH20 0xFFFFFFFFFFFFFFFFFFFFFFFFFFFFFFFFFFFFFFFF AND PUSH20 0xFFFFFFFFFFFFFFFFFFFFFFFFFFFFFFFFFFFFFFFF AND DUP2 MSTORE PUSH1 0x20 ADD SWAP1 DUP2 MSTORE PUSH1 0x20 ADD PUSH1 0x0 KECCAK256 PUSH1 0x0 PUSH2 0x100 EXP DUP2 SLOAD DUP2 PUSH1 0xFF MUL NOT AND SWAP1 DUP4 ISZERO ISZERO MUL OR SWAP1 SSTORE POP PUSH1 0x1 PUSH1 0x5 PUSH1 0x0 DUP14 PUSH20 0xFFFFFFFFFFFFFFFFFFFFFFFFFFFFFFFFFFFFFFFF AND PUSH20 0xFFFFFFFFFFFFFFFFFFFFFFFFFFFFFFFFFFFFFFFF AND DUP2 MSTORE PUSH1 0x20 ADD SWAP1 DUP2 MSTORE PUSH1 0x20 ADD PUSH1 0x0 KECCAK256 PUSH1 0x0 PUSH1 0xC PUSH1 0x0 SWAP1 SLOAD SWAP1 PUSH2 0x100 EXP SWAP1 DIV PUSH20 0xFFFFFFFFFFFFFFFFFFFFFFFFFFFFFFFFFFFFFFFF AND PUSH20 0xFFFFFFFFFFFFFFFFFFFFFFFFFFFFFFFFFFFFFFFF AND PUSH20 0xFFFFFFFFFFFFFFFFFFFFFFFFFFFFFFFFFFFFFFFF AND DUP2 MSTORE PUSH1 0x20 ADD SWAP1 DUP2 MSTORE PUSH1 0x20 ADD PUSH1 0x0 KECCAK256 PUSH1 0x0 PUSH2 0x100 EXP DUP2 SLOAD DUP2 PUSH1 0xFF MUL NOT AND SWAP1 DUP4 ISZERO ISZERO MUL OR SWAP1 SSTORE POP PUSH1 0x8 PUSH1 0x0 DUP2 SLOAD DUP1 SWAP3 SWAP2 SWAP1 PUSH1 0x1 ADD SWAP2 SWAP1 POP SSTORE POP POP POP POP POP POP POP POP POP POP POP POP JUMP JUMPDEST PUSH1 0x0 PUSH1 0xC PUSH1 0x0 SWAP1 SLOAD SWAP1 PUSH2 0x100 EXP SWAP1 DIV PUSH20 0xFFFFFFFFFFFFFFFFFFFFFFFFFFFFFFFFFFFFFFFF AND PUSH20 0xFFFFFFFFFFFFFFFFFFFFFFFFFFFFFFFFFFFFFFFF AND CALLER PUSH20 0xFFFFFFFFFFFFFFFFFFFFFFFFFFFFFFFFFFFFFFFF AND EQ ISZERO ISZERO PUSH2 0x17C8 JUMPI PUSH1 0x0 DUP1 REVERT JUMPDEST PUSH1 0x6 PUSH1 0x0 DUP13 PUSH20 0xFFFFFFFFFFFFFFFFFFFFFFFFFFFFFFFFFFFFFFFF AND PUSH20 0xFFFFFFFFFFFFFFFFFFFFFFFFFFFFFFFFFFFFFFFF AND DUP2 MSTORE PUSH1 0x20 ADD SWAP1 DUP2 MSTORE PUSH1 0x20 ADD PUSH1 0x0 KECCAK256 PUSH1 0x0 SWAP1 SLOAD SWAP1 PUSH2 0x100 EXP SWAP1 DIV PUSH1 0xFF AND ISZERO ISZERO PUSH2 0x1820 JUMPI PUSH1 0x0 DUP1 REVERT JUMPDEST PUSH1 0x3 PUSH1 0x0 DUP13 PUSH20 0xFFFFFFFFFFFFFFFFFFFFFFFFFFFFFFFFFFFFFFFF AND PUSH20 0xFFFFFFFFFFFFFFFFFFFFFFFFFFFFFFFFFFFFFFFF AND DUP2 MSTORE PUSH1 0x20 ADD SWAP1 DUP2 MSTORE PUSH1 0x20 ADD PUSH1 0x0 KECCAK256 SWAP1 POP DUP10 DUP2 PUSH1 0x0 ADD SWAP1 DUP1 MLOAD SWAP1 PUSH1 0x20 ADD SWAP1 PUSH2 0x1879 SWAP3 SWAP2 SWAP1 PUSH2 0x2247 JUMP JUMPDEST POP DUP9 DUP2 PUSH1 0x1 ADD SWAP1 DUP1 MLOAD SWAP1 PUSH1 0x20 ADD SWAP1 PUSH2 0x1892 SWAP3 SWAP2 SWAP1 PUSH2 0x2247 JUMP JUMPDEST POP DUP8 DUP2 PUSH1 0x2 ADD SWAP1 DUP1 MLOAD SWAP1 PUSH1 0x20 ADD SWAP1 PUSH2 0x18AB SWAP3 SWAP2 SWAP1 PUSH2 0x2247 JUMP JUMPDEST POP DUP7 DUP2 PUSH1 0x3 ADD SWAP1 DUP1 MLOAD SWAP1 PUSH1 0x20 ADD SWAP1 PUSH2 0x18C4 SWAP3 SWAP2 SWAP1 PUSH2 0x2247 JUMP JUMPDEST POP DUP6 DUP2 PUSH1 0x4 ADD SWAP1 DUP1 MLOAD SWAP1 PUSH1 0x20 ADD SWAP1 PUSH2 0x18DD SWAP3 SWAP2 SWAP1 PUSH2 0x2247 JUMP JUMPDEST POP DUP5 DUP2 PUSH1 0x5 ADD SWAP1 DUP1 MLOAD SWAP1 PUSH1 0x20 ADD SWAP1 PUSH2 0x18F6 SWAP3 SWAP2 SWAP1 PUSH2 0x2247 JUMP JUMPDEST POP DUP4 DUP2 PUSH1 0x6 ADD SWAP1 DUP1 MLOAD SWAP1 PUSH1 0x20 ADD SWAP1 PUSH2 0x190F SWAP3 SWAP2 SWAP1 PUSH2 0x2247 JUMP JUMPDEST POP DUP3 DUP2 PUSH1 0x7 ADD SWAP1 DUP1 MLOAD SWAP1 PUSH1 0x20 ADD SWAP1 PUSH2 0x1928 SWAP3 SWAP2 SWAP1 PUSH2 0x2247 JUMP JUMPDEST POP DUP2 DUP2 PUSH1 0x8 ADD SWAP1 DUP1 MLOAD SWAP1 PUSH1 0x20 ADD SWAP1 PUSH2 0x1941 SWAP3 SWAP2 SWAP1 PUSH2 0x2247 JUMP JUMPDEST POP DUP11 DUP2 PUSH1 0x9 ADD PUSH1 0x0 PUSH2 0x100 EXP DUP2 SLOAD DUP2 PUSH20 0xFFFFFFFFFFFFFFFFFFFFFFFFFFFFFFFFFFFFFFFF MUL NOT AND SWAP1 DUP4 PUSH20 0xFFFFFFFFFFFFFFFFFFFFFFFFFFFFFFFFFFFFFFFF AND MUL OR SWAP1 SSTORE POP POP POP POP POP POP POP POP POP POP POP POP JUMP JUMPDEST PUSH1 0x9 SLOAD DUP2 JUMP JUMPDEST PUSH1 0x0 PUSH1 0x9 SLOAD SWAP1 POP SWAP1 JUMP JUMPDEST PUSH1 0x0 DUP1 SWAP1 SLOAD SWAP1 PUSH2 0x100 EXP SWAP1 DIV PUSH20 0xFFFFFFFFFFFFFFFFFFFFFFFFFFFFFFFFFFFFFFFF AND DUP2 JUMP JUMPDEST CALLER PUSH1 0x0 DUP1 PUSH2 0x100 EXP DUP2 SLOAD DUP2 PUSH20 0xFFFFFFFFFFFFFFFFFFFFFFFFFFFFFFFFFFFFFFFF MUL NOT AND SWAP1 DUP4 PUSH20 0xFFFFFFFFFFFFFFFFFFFFFFFFFFFFFFFFFFFFFFFF AND MUL OR SWAP1 SSTORE POP JUMP JUMPDEST PUSH1 0xA SLOAD DUP2 JUMP JUMPDEST PUSH1 0x1 DUP2 DUP2 SLOAD DUP2 LT ISZERO ISZERO PUSH2 0x1A1E JUMPI INVALID JUMPDEST SWAP1 PUSH1 0x0 MSTORE PUSH1 0x20 PUSH1 0x0 KECCAK256 ADD PUSH1 0x0 SWAP2 POP SLOAD SWAP1 PUSH2 0x100 EXP SWAP1 DIV PUSH20 0xFFFFFFFFFFFFFFFFFFFFFFFFFFFFFFFFFFFFFFFF AND DUP2 JUMP JUMPDEST PUSH1 0x60 PUSH1 0x2 DUP1 SLOAD DUP1 PUSH1 0x20 MUL PUSH1 0x20 ADD PUSH1 0x40 MLOAD SWAP1 DUP2 ADD PUSH1 0x40 MSTORE DUP1 SWAP3 SWAP2 SWAP1 DUP2 DUP2 MSTORE PUSH1 0x20 ADD DUP3 DUP1 SLOAD DUP1 ISZERO PUSH2 0x1AD1 JUMPI PUSH1 0x20 MUL DUP3 ADD SWAP2 SWAP1 PUSH1 0x0 MSTORE PUSH1 0x20 PUSH1 0x0 KECCAK256 SWAP1 JUMPDEST DUP2 PUSH1 0x0 SWAP1 SLOAD SWAP1 PUSH2 0x100 EXP SWAP1 DIV PUSH20 0xFFFFFFFFFFFFFFFFFFFFFFFFFFFFFFFFFFFFFFFF AND PUSH20 0xFFFFFFFFFFFFFFFFFFFFFFFFFFFFFFFFFFFFFFFF AND DUP2 MSTORE PUSH1 0x20 ADD SWAP1 PUSH1 0x1 ADD SWAP1 DUP1 DUP4 GT PUSH2 0x1A87 JUMPI JUMPDEST POP POP POP POP POP SWAP1 POP SWAP1 JUMP JUMPDEST PUSH1 0x0 PUSH1 0x8 SLOAD SWAP1 POP SWAP1 JUMP JUMPDEST PUSH1 0xC PUSH1 0x0 SWAP1 SLOAD SWAP1 PUSH2 0x100 EXP SWAP1 DIV PUSH20 0xFFFFFFFFFFFFFFFFFFFFFFFFFFFFFFFFFFFFFFFF AND DUP2 JUMP JUMPDEST PUSH1 0x0 PUSH1 0xC PUSH1 0x0 SWAP1 SLOAD SWAP1 PUSH2 0x100 EXP SWAP1 DIV PUSH20 0xFFFFFFFFFFFFFFFFFFFFFFFFFFFFFFFFFFFFFFFF AND PUSH20 0xFFFFFFFFFFFFFFFFFFFFFFFFFFFFFFFFFFFFFFFF AND CALLER PUSH20 0xFFFFFFFFFFFFFFFFFFFFFFFFFFFFFFFFFFFFFFFF AND EQ ISZERO ISZERO PUSH2 0x1B69 JUMPI PUSH1 0x0 DUP1 REVERT JUMPDEST PUSH1 0x0 PUSH1 0x5 PUSH1 0x0 DUP6 PUSH20 0xFFFFFFFFFFFFFFFFFFFFFFFFFFFFFFFFFFFFFFFF AND PUSH20 0xFFFFFFFFFFFFFFFFFFFFFFFFFFFFFFFFFFFFFFFF AND DUP2 MSTORE PUSH1 0x20 ADD SWAP1 DUP2 MSTORE PUSH1 0x20 ADD PUSH1 0x0 KECCAK256 PUSH1 0x0 DUP5 PUSH20 0xFFFFFFFFFFFFFFFFFFFFFFFFFFFFFFFFFFFFFFFF AND PUSH20 0xFFFFFFFFFFFFFFFFFFFFFFFFFFFFFFFFFFFFFFFF AND DUP2 MSTORE PUSH1 0x20 ADD SWAP1 DUP2 MSTORE PUSH1 0x20 ADD PUSH1 0x0 KECCAK256 PUSH1 0x0 PUSH2 0x100 EXP DUP2 SLOAD DUP2 PUSH1 0xFF MUL NOT AND SWAP1 DUP4 ISZERO ISZERO MUL OR SWAP1 SSTORE POP PUSH1 0x1 SWAP1 POP SWAP3 SWAP2 POP POP JUMP JUMPDEST PUSH1 0xB SLOAD DUP2 JUMP JUMPDEST PUSH1 0x60 DUP1 PUSH1 0x60 DUP1 PUSH1 0x60 DUP1 PUSH1 0x60 PUSH1 0x0 PUSH1 0x7 PUSH1 0x0 DUP11 PUSH20 0xFFFFFFFFFFFFFFFFFFFFFFFFFFFFFFFFFFFFFFFF AND PUSH20 0xFFFFFFFFFFFFFFFFFFFFFFFFFFFFFFFFFFFFFFFF AND DUP2 MSTORE PUSH1 0x20 ADD SWAP1 DUP2 MSTORE PUSH1 0x20 ADD PUSH1 0x0 KECCAK256 PUSH1 0x0 SWAP1 SLOAD SWAP1 PUSH2 0x100 EXP SWAP1 DIV PUSH1 0xFF AND ISZERO ISZERO PUSH2 0x1C73 JUMPI PUSH1 0x0 DUP1 REVERT JUMPDEST PUSH1 0x4 PUSH1 0x0 DUP11 PUSH20 0xFFFFFFFFFFFFFFFFFFFFFFFFFFFFFFFFFFFFFFFF AND PUSH20 0xFFFFFFFFFFFFFFFFFFFFFFFFFFFFFFFFFFFFFFFF AND DUP2 MSTORE PUSH1 0x20 ADD SWAP1 DUP2 MSTORE PUSH1 0x20 ADD PUSH1 0x0 KECCAK256 SWAP1 POP DUP1 PUSH1 0x0 ADD DUP2 PUSH1 0x1 ADD DUP3 PUSH1 0x2 ADD DUP4 PUSH1 0x3 ADD DUP5 PUSH1 0x4 ADD DUP6 PUSH1 0x7 ADD DUP7 PUSH1 0x8 ADD DUP7 DUP1 SLOAD PUSH1 0x1 DUP2 PUSH1 0x1 AND ISZERO PUSH2 0x100 MUL SUB AND PUSH1 0x2 SWAP1 DIV DUP1 PUSH1 0x1F ADD PUSH1 0x20 DUP1 SWAP2 DIV MUL PUSH1 0x20 ADD PUSH1 0x40 MLOAD SWAP1 DUP2 ADD PUSH1 0x40 MSTORE DUP1 SWAP3 SWAP2 SWAP1 DUP2 DUP2 MSTORE PUSH1 0x20 ADD DUP3 DUP1 SLOAD PUSH1 0x1 DUP2 PUSH1 0x1 AND ISZERO PUSH2 0x100 MUL SUB AND PUSH1 0x2 SWAP1 DIV DUP1 ISZERO PUSH2 0x1D65 JUMPI DUP1 PUSH1 0x1F LT PUSH2 0x1D3A JUMPI PUSH2 0x100 DUP1 DUP4 SLOAD DIV MUL DUP4 MSTORE SWAP2 PUSH1 0x20 ADD SWAP2 PUSH2 0x1D65 JUMP JUMPDEST DUP3 ADD SWAP2 SWAP1 PUSH1 0x0 MSTORE PUSH1 0x20 PUSH1 0x0 KECCAK256 SWAP1 JUMPDEST DUP2 SLOAD DUP2 MSTORE SWAP1 PUSH1 0x1 ADD SWAP1 PUSH1 0x20 ADD DUP1 DUP4 GT PUSH2 0x1D48 JUMPI DUP3 SWAP1 SUB PUSH1 0x1F AND DUP3 ADD SWAP2 JUMPDEST POP POP POP POP POP SWAP7 POP DUP6 DUP1 SLOAD PUSH1 0x1 DUP2 PUSH1 0x1 AND ISZERO PUSH2 0x100 MUL SUB AND PUSH1 0x2 SWAP1 DIV DUP1 PUSH1 0x1F ADD PUSH1 0x20 DUP1 SWAP2 DIV MUL PUSH1 0x20 ADD PUSH1 0x40 MLOAD SWAP1 DUP2 ADD PUSH1 0x40 MSTORE DUP1 SWAP3 SWAP2 SWAP1 DUP2 DUP2 MSTORE PUSH1 0x20 ADD DUP3 DUP1 SLOAD PUSH1 0x1 DUP2 PUSH1 0x1 AND ISZERO PUSH2 0x100 MUL SUB AND PUSH1 0x2 SWAP1 DIV DUP1 ISZERO PUSH2 0x1E01 JUMPI DUP1 PUSH1 0x1F LT PUSH2 0x1DD6 JUMPI PUSH2 0x100 DUP1 DUP4 SLOAD DIV MUL DUP4 MSTORE SWAP2 PUSH1 0x20 ADD SWAP2 PUSH2 0x1E01 JUMP JUMPDEST DUP3 ADD SWAP2 SWAP1 PUSH1 0x0 MSTORE PUSH1 0x20 PUSH1 0x0 KECCAK256 SWAP1 JUMPDEST DUP2 SLOAD DUP2 MSTORE SWAP1 PUSH1 0x1 ADD SWAP1 PUSH1 0x20 ADD DUP1 DUP4 GT PUSH2 0x1DE4 JUMPI DUP3 SWAP1 SUB PUSH1 0x1F AND DUP3 ADD SWAP2 JUMPDEST POP POP POP POP POP SWAP6 POP DUP5 DUP1 SLOAD PUSH1 0x1 DUP2 PUSH1 0x1 AND ISZERO PUSH2 0x100 MUL SUB AND PUSH1 0x2 SWAP1 DIV DUP1 PUSH1 0x1F ADD PUSH1 0x20 DUP1 SWAP2 DIV MUL PUSH1 0x20 ADD PUSH1 0x40 MLOAD SWAP1 DUP2 ADD PUSH1 0x40 MSTORE DUP1 SWAP3 SWAP2 SWAP1 DUP2 DUP2 MSTORE PUSH1 0x20 ADD DUP3 DUP1 SLOAD PUSH1 0x1 DUP2 PUSH1 0x1 AND ISZERO PUSH2 0x100 MUL SUB AND PUSH1 0x2 SWAP1 DIV DUP1 ISZERO PUSH2 0x1E9D JUMPI DUP1 PUSH1 0x1F LT PUSH2 0x1E72 JUMPI PUSH2 0x100 DUP1 DUP4 SLOAD DIV MUL DUP4 MSTORE SWAP2 PUSH1 0x20 ADD SWAP2 PUSH2 0x1E9D JUMP JUMPDEST DUP3 ADD SWAP2 SWAP1 PUSH1 0x0 MSTORE PUSH1 0x20 PUSH1 0x0 KECCAK256 SWAP1 JUMPDEST DUP2 SLOAD DUP2 MSTORE SWAP1 PUSH1 0x1 ADD SWAP1 PUSH1 0x20 ADD DUP1 DUP4 GT PUSH2 0x1E80 JUMPI DUP3 SWAP1 SUB PUSH1 0x1F AND DUP3 ADD SWAP2 JUMPDEST POP POP POP POP POP SWAP5 POP DUP4 DUP1 SLOAD PUSH1 0x1 DUP2 PUSH1 0x1 AND ISZERO PUSH2 0x100 MUL SUB AND PUSH1 0x2 SWAP1 DIV DUP1 PUSH1 0x1F ADD PUSH1 0x20 DUP1 SWAP2 DIV MUL PUSH1 0x20 ADD PUSH1 0x40 MLOAD SWAP1 DUP2 ADD PUSH1 0x40 MSTORE DUP1 SWAP3 SWAP2 SWAP1 DUP2 DUP2 MSTORE PUSH1 0x20 ADD DUP3 DUP1 SLOAD PUSH1 0x1 DUP2 PUSH1 0x1 AND ISZERO PUSH2 0x100 MUL SUB AND PUSH1 0x2 SWAP1 DIV DUP1 ISZERO PUSH2 0x1F39 JUMPI DUP1 PUSH1 0x1F LT PUSH2 0x1F0E JUMPI PUSH2 0x100 DUP1 DUP4 SLOAD DIV MUL DUP4 MSTORE SWAP2 PUSH1 0x20 ADD SWAP2 PUSH2 0x1F39 JUMP JUMPDEST DUP3 ADD SWAP2 SWAP1 PUSH1 0x0 MSTORE PUSH1 0x20 PUSH1 0x0 KECCAK256 SWAP1 JUMPDEST DUP2 SLOAD DUP2 MSTORE SWAP1 PUSH1 0x1 ADD SWAP1 PUSH1 0x20 ADD DUP1 DUP4 GT PUSH2 0x1F1C JUMPI DUP3 SWAP1 SUB PUSH1 0x1F AND DUP3 ADD SWAP2 JUMPDEST POP POP POP POP POP SWAP4 POP DUP3 DUP1 SLOAD PUSH1 0x1 DUP2 PUSH1 0x1 AND ISZERO PUSH2 0x100 MUL SUB AND PUSH1 0x2 SWAP1 DIV DUP1 PUSH1 0x1F ADD PUSH1 0x20 DUP1 SWAP2 DIV MUL PUSH1 0x20 ADD PUSH1 0x40 MLOAD SWAP1 DUP2 ADD PUSH1 0x40 MSTORE DUP1 SWAP3 SWAP2 SWAP1 DUP2 DUP2 MSTORE PUSH1 0x20 ADD DUP3 DUP1 SLOAD PUSH1 0x1 DUP2 PUSH1 0x1 AND ISZERO PUSH2 0x100 MUL SUB AND PUSH1 0x2 SWAP1 DIV DUP1 ISZERO PUSH2 0x1FD5 JUMPI DUP1 PUSH1 0x1F LT PUSH2 0x1FAA JUMPI PUSH2 0x100 DUP1 DUP4 SLOAD DIV MUL DUP4 MSTORE SWAP2 PUSH1 0x20 ADD SWAP2 PUSH2 0x1FD5 JUMP JUMPDEST DUP3 ADD SWAP2 SWAP1 PUSH1 0x0 MSTORE PUSH1 0x20 PUSH1 0x0 KECCAK256 SWAP1 JUMPDEST DUP2 SLOAD DUP2 MSTORE SWAP1 PUSH1 0x1 ADD SWAP1 PUSH1 0x20 ADD DUP1 DUP4 GT PUSH2 0x1FB8 JUMPI DUP3 SWAP1 SUB PUSH1 0x1F AND DUP3 ADD SWAP2 JUMPDEST POP POP POP POP POP SWAP3 POP DUP2 DUP1 SLOAD PUSH1 0x1 DUP2 PUSH1 0x1 AND ISZERO PUSH2 0x100 MUL SUB AND PUSH1 0x2 SWAP1 DIV DUP1 PUSH1 0x1F ADD PUSH1 0x20 DUP1 SWAP2 DIV MUL PUSH1 0x20 ADD PUSH1 0x40 MLOAD SWAP1 DUP2 ADD PUSH1 0x40 MSTORE DUP1 SWAP3 SWAP2 SWAP1 DUP2 DUP2 MSTORE PUSH1 0x20 ADD DUP3 DUP1 SLOAD PUSH1 0x1 DUP2 PUSH1 0x1 AND ISZERO PUSH2 0x100 MUL SUB AND PUSH1 0x2 SWAP1 DIV DUP1 ISZERO PUSH2 0x2071 JUMPI DUP1 PUSH1 0x1F LT PUSH2 0x2046 JUMPI PUSH2 0x100 DUP1 DUP4 SLOAD DIV MUL DUP4 MSTORE SWAP2 PUSH1 0x20 ADD SWAP2 PUSH2 0x2071 JUMP JUMPDEST DUP3 ADD SWAP2 SWAP1 PUSH1 0x0 MSTORE PUSH1 0x20 PUSH1 0x0 KECCAK256 SWAP1 JUMPDEST DUP2 SLOAD DUP2 MSTORE SWAP1 PUSH1 0x1 ADD SWAP1 PUSH1 0x20 ADD DUP1 DUP4 GT PUSH2 0x2054 JUMPI DUP3 SWAP1 SUB PUSH1 0x1F AND DUP3 ADD SWAP2 JUMPDEST POP POP POP POP POP SWAP2 POP DUP1 DUP1 SLOAD PUSH1 0x1 DUP2 PUSH1 0x1 AND ISZERO PUSH2 0x100 MUL SUB AND PUSH1 0x2 SWAP1 DIV DUP1 PUSH1 0x1F ADD PUSH1 0x20 DUP1 SWAP2 DIV MUL PUSH1 0x20 ADD PUSH1 0x40 MLOAD SWAP1 DUP2 ADD PUSH1 0x40 MSTORE DUP1 SWAP3 SWAP2 SWAP1 DUP2 DUP2 MSTORE PUSH1 0x20 ADD DUP3 DUP1 SLOAD PUSH1 0x1 DUP2 PUSH1 0x1 AND ISZERO PUSH2 0x100 MUL SUB AND PUSH1 0x2 SWAP1 DIV DUP1 ISZERO PUSH2 0x210D JUMPI DUP1 PUSH1 0x1F LT PUSH2 0x20E2 JUMPI PUSH2 0x100 DUP1 DUP4 SLOAD DIV MUL DUP4 MSTORE SWAP2 PUSH1 0x20 ADD SWAP2 PUSH2 0x210D JUMP JUMPDEST DUP3 ADD SWAP2 SWAP1 PUSH1 0x0 MSTORE PUSH1 0x20 PUSH1 0x0 KECCAK256 SWAP1 JUMPDEST DUP2 SLOAD DUP2 MSTORE SWAP1 PUSH1 0x1 ADD SWAP1 PUSH1 0x20 ADD DUP1 DUP4 GT PUSH2 0x20F0 JUMPI DUP3 SWAP1 SUB PUSH1 0x1F AND DUP3 ADD SWAP2 JUMPDEST POP POP POP POP POP SWAP1 POP SWAP8 POP SWAP8 POP SWAP8 POP SWAP8 POP SWAP8 POP SWAP8 POP SWAP8 POP POP SWAP2 SWAP4 SWAP6 SWAP8 SWAP1 SWAP3 SWAP5 SWAP7 POP JUMP JUMPDEST PUSH1 0x0 PUSH1 0xC PUSH1 0x0 SWAP1 SLOAD SWAP1 PUSH2 0x100 EXP SWAP1 DIV PUSH20 0xFFFFFFFFFFFFFFFFFFFFFFFFFFFFFFFFFFFFFFFF AND PUSH20 0xFFFFFFFFFFFFFFFFFFFFFFFFFFFFFFFFFFFFFFFF AND CALLER PUSH20 0xFFFFFFFFFFFFFFFFFFFFFFFFFFFFFFFFFFFFFFFF AND EQ ISZERO ISZERO PUSH2 0x218C JUMPI PUSH1 0x0 DUP1 REVERT JUMPDEST PUSH1 0x1 PUSH1 0x5 PUSH1 0x0 DUP6 PUSH20 0xFFFFFFFFFFFFFFFFFFFFFFFFFFFFFFFFFFFFFFFF AND PUSH20 0xFFFFFFFFFFFFFFFFFFFFFFFFFFFFFFFFFFFFFFFF AND DUP2 MSTORE PUSH1 0x20 ADD SWAP1 DUP2 MSTORE PUSH1 0x20 ADD PUSH1 0x0 KECCAK256 PUSH1 0x0 DUP5 PUSH20 0xFFFFFFFFFFFFFFFFFFFFFFFFFFFFFFFFFFFFFFFF AND PUSH20 0xFFFFFFFFFFFFFFFFFFFFFFFFFFFFFFFFFFFFFFFF AND DUP2 MSTORE PUSH1 0x20 ADD SWAP1 DUP2 MSTORE PUSH1 0x20 ADD PUSH1 0x0 KECCAK256 PUSH1 0x0 PUSH2 0x100 EXP DUP2 SLOAD DUP2 PUSH1 0xFF MUL NOT AND SWAP1 DUP4 ISZERO ISZERO MUL OR SWAP1 SSTORE POP PUSH1 0xA PUSH1 0x0 DUP2 SLOAD DUP1 SWAP3 SWAP2 SWAP1 PUSH1 0x1 ADD SWAP2 SWAP1 POP SSTORE POP PUSH1 0x1 SWAP1 POP SWAP3 SWAP2 POP POP JUMP JUMPDEST PUSH1 0x0 PUSH1 0xA SLOAD SWAP1 POP SWAP1 JUMP JUMPDEST DUP3 DUP1 SLOAD PUSH1 0x1 DUP2 PUSH1 0x1 AND ISZERO PUSH2 0x100 MUL SUB AND PUSH1 0x2 SWAP1 DIV SWAP1 PUSH1 0x0 MSTORE PUSH1 0x20 PUSH1 0x0 KECCAK256 SWAP1 PUSH1 0x1F ADD PUSH1 0x20 SWAP1 DIV DUP2 ADD SWAP3 DUP3 PUSH1 0x1F LT PUSH2 0x2288 JUMPI DUP1 MLOAD PUSH1 0xFF NOT AND DUP4 DUP1 ADD OR DUP6 SSTORE PUSH2 0x22B6 JUMP JUMPDEST DUP3 DUP1 ADD PUSH1 0x1 ADD DUP6 SSTORE DUP3 ISZERO PUSH2 0x22B6 JUMPI SWAP2 DUP3 ADD JUMPDEST DUP3 DUP2 GT ISZERO PUSH2 0x22B5 JUMPI DUP3 MLOAD DUP3 SSTORE SWAP2 PUSH1 0x20 ADD SWAP2 SWAP1 PUSH1 0x1 ADD SWAP1 PUSH2 0x229A JUMP JUMPDEST JUMPDEST POP SWAP1 POP PUSH2 0x22C3 SWAP2 SWAP1 PUSH2 0x22C7 JUMP JUMPDEST POP SWAP1 JUMP JUMPDEST PUSH2 0x22E9 SWAP2 SWAP1 JUMPDEST DUP1 DUP3 GT ISZERO PUSH2 0x22E5 JUMPI PUSH1 0x0 DUP2 PUSH1 0x0 SWAP1 SSTORE POP PUSH1 0x1 ADD PUSH2 0x22CD JUMP JUMPDEST POP SWAP1 JUMP JUMPDEST SWAP1 JUMP JUMPDEST PUSH1 0x0 PUSH2 0x22F8 DUP3 CALLDATALOAD PUSH2 0x2A2E JUMP JUMPDEST SWAP1 POP SWAP3 SWAP2 POP POP JUMP JUMPDEST PUSH1 0x0 DUP3 PUSH1 0x1F DUP4 ADD SLT ISZERO ISZERO PUSH2 0x2313 JUMPI PUSH1 0x0 DUP1 REVERT JUMPDEST DUP2 CALLDATALOAD PUSH2 0x2326 PUSH2 0x2321 DUP3 PUSH2 0x299C JUMP JUMPDEST PUSH2 0x296F JUMP JUMPDEST SWAP2 POP DUP1 DUP3 MSTORE PUSH1 0x20 DUP4 ADD PUSH1 0x20 DUP4 ADD DUP6 DUP4 DUP4 ADD GT ISZERO PUSH2 0x2342 JUMPI PUSH1 0x0 DUP1 REVERT JUMPDEST PUSH2 0x234D DUP4 DUP3 DUP5 PUSH2 0x2A58 JUMP JUMPDEST POP POP POP SWAP3 SWAP2 POP POP JUMP JUMPDEST PUSH1 0x0 PUSH2 0x2362 DUP3 CALLDATALOAD PUSH2 0x2A4E JUMP JUMPDEST SWAP1 POP SWAP3 SWAP2 POP POP JUMP JUMPDEST PUSH1 0x0 PUSH1 0x20 DUP3 DUP5 SUB SLT ISZERO PUSH2 0x237C JUMPI PUSH1 0x0 DUP1 REVERT JUMPDEST PUSH1 0x0 PUSH2 0x238A DUP5 DUP3 DUP6 ADD PUSH2 0x22EC JUMP JUMPDEST SWAP2 POP POP SWAP3 SWAP2 POP POP JUMP JUMPDEST PUSH1 0x0 DUP1 PUSH1 0x40 DUP4 DUP6 SUB SLT ISZERO PUSH2 0x23A6 JUMPI PUSH1 0x0 DUP1 REVERT JUMPDEST PUSH1 0x0 PUSH2 0x23B4 DUP6 DUP3 DUP7 ADD PUSH2 0x22EC JUMP JUMPDEST SWAP3 POP POP PUSH1 0x20 PUSH2 0x23C5 DUP6 DUP3 DUP7 ADD PUSH2 0x22EC JUMP JUMPDEST SWAP2 POP POP SWAP3 POP SWAP3 SWAP1 POP JUMP JUMPDEST PUSH1 0x0 DUP1 PUSH1 0x0 DUP1 PUSH1 0x0 DUP1 PUSH1 0x0 DUP1 PUSH2 0x100 DUP10 DUP12 SUB SLT ISZERO PUSH2 0x23EC JUMPI PUSH1 0x0 DUP1 REVERT JUMPDEST PUSH1 0x0 PUSH2 0x23FA DUP12 DUP3 DUP13 ADD PUSH2 0x22EC JUMP JUMPDEST SWAP9 POP POP PUSH1 0x20 DUP10 ADD CALLDATALOAD PUSH8 0xFFFFFFFFFFFFFFFF DUP2 GT ISZERO PUSH2 0x2417 JUMPI PUSH1 0x0 DUP1 REVERT JUMPDEST PUSH2 0x2423 DUP12 DUP3 DUP13 ADD PUSH2 0x2300 JUMP JUMPDEST SWAP8 POP POP PUSH1 0x40 DUP10 ADD CALLDATALOAD PUSH8 0xFFFFFFFFFFFFFFFF DUP2 GT ISZERO PUSH2 0x2440 JUMPI PUSH1 0x0 DUP1 REVERT JUMPDEST PUSH2 0x244C DUP12 DUP3 DUP13 ADD PUSH2 0x2300 JUMP JUMPDEST SWAP7 POP POP PUSH1 0x60 DUP10 ADD CALLDATALOAD PUSH8 0xFFFFFFFFFFFFFFFF DUP2 GT ISZERO PUSH2 0x2469 JUMPI PUSH1 0x0 DUP1 REVERT JUMPDEST PUSH2 0x2475 DUP12 DUP3 DUP13 ADD PUSH2 0x2300 JUMP JUMPDEST SWAP6 POP POP PUSH1 0x80 DUP10 ADD CALLDATALOAD PUSH8 0xFFFFFFFFFFFFFFFF DUP2 GT ISZERO PUSH2 0x2492 JUMPI PUSH1 0x0 DUP1 REVERT JUMPDEST PUSH2 0x249E DUP12 DUP3 DUP13 ADD PUSH2 0x2300 JUMP JUMPDEST SWAP5 POP POP PUSH1 0xA0 DUP10 ADD CALLDATALOAD PUSH8 0xFFFFFFFFFFFFFFFF DUP2 GT ISZERO PUSH2 0x24BB JUMPI PUSH1 0x0 DUP1 REVERT JUMPDEST PUSH2 0x24C7 DUP12 DUP3 DUP13 ADD PUSH2 0x2300 JUMP JUMPDEST SWAP4 POP POP PUSH1 0xC0 DUP10 ADD CALLDATALOAD PUSH8 0xFFFFFFFFFFFFFFFF DUP2 GT ISZERO PUSH2 0x24E4 JUMPI PUSH1 0x0 DUP1 REVERT JUMPDEST PUSH2 0x24F0 DUP12 DUP3 DUP13 ADD PUSH2 0x2300 JUMP JUMPDEST SWAP3 POP POP PUSH1 0xE0 DUP10 ADD CALLDATALOAD PUSH8 0xFFFFFFFFFFFFFFFF DUP2 GT ISZERO PUSH2 0x250D JUMPI PUSH1 0x0 DUP1 REVERT JUMPDEST PUSH2 0x2519 DUP12 DUP3 DUP13 ADD PUSH2 0x2300 JUMP JUMPDEST SWAP2 POP POP SWAP3 SWAP6 SWAP9 POP SWAP3 SWAP6 SWAP9 SWAP1 SWAP4 SWAP7 POP JUMP JUMPDEST PUSH1 0x0 DUP1 PUSH1 0x0 DUP1 PUSH1 0x0 DUP1 PUSH1 0x0 DUP1 PUSH1 0x0 DUP1 PUSH2 0x140 DUP12 DUP14 SUB SLT ISZERO PUSH2 0x2549 JUMPI PUSH1 0x0 DUP1 REVERT JUMPDEST PUSH1 0x0 PUSH2 0x2557 DUP14 DUP3 DUP15 ADD PUSH2 0x22EC JUMP JUMPDEST SWAP11 POP POP PUSH1 0x20 DUP12 ADD CALLDATALOAD PUSH8 0xFFFFFFFFFFFFFFFF DUP2 GT ISZERO PUSH2 0x2574 JUMPI PUSH1 0x0 DUP1 REVERT JUMPDEST PUSH2 0x2580 DUP14 DUP3 DUP15 ADD PUSH2 0x2300 JUMP JUMPDEST SWAP10 POP POP PUSH1 0x40 DUP12 ADD CALLDATALOAD PUSH8 0xFFFFFFFFFFFFFFFF DUP2 GT ISZERO PUSH2 0x259D JUMPI PUSH1 0x0 DUP1 REVERT JUMPDEST PUSH2 0x25A9 DUP14 DUP3 DUP15 ADD PUSH2 0x2300 JUMP JUMPDEST SWAP9 POP POP PUSH1 0x60 DUP12 ADD CALLDATALOAD PUSH8 0xFFFFFFFFFFFFFFFF DUP2 GT ISZERO PUSH2 0x25C6 JUMPI PUSH1 0x0 DUP1 REVERT JUMPDEST PUSH2 0x25D2 DUP14 DUP3 DUP15 ADD PUSH2 0x2300 JUMP JUMPDEST SWAP8 POP POP PUSH1 0x80 DUP12 ADD CALLDATALOAD PUSH8 0xFFFFFFFFFFFFFFFF DUP2 GT ISZERO PUSH2 0x25EF JUMPI PUSH1 0x0 DUP1 REVERT JUMPDEST PUSH2 0x25FB DUP14 DUP3 DUP15 ADD PUSH2 0x2300 JUMP JUMPDEST SWAP7 POP POP PUSH1 0xA0 DUP12 ADD CALLDATALOAD PUSH8 0xFFFFFFFFFFFFFFFF DUP2 GT ISZERO PUSH2 0x2618 JUMPI PUSH1 0x0 DUP1 REVERT JUMPDEST PUSH2 0x2624 DUP14 DUP3 DUP15 ADD PUSH2 0x2300 JUMP JUMPDEST SWAP6 POP POP PUSH1 0xC0 DUP12 ADD CALLDATALOAD PUSH8 0xFFFFFFFFFFFFFFFF DUP2 GT ISZERO PUSH2 0x2641 JUMPI PUSH1 0x0 DUP1 REVERT JUMPDEST PUSH2 0x264D DUP14 DUP3 DUP15 ADD PUSH2 0x2300 JUMP JUMPDEST SWAP5 POP POP PUSH1 0xE0 DUP12 ADD CALLDATALOAD PUSH8 0xFFFFFFFFFFFFFFFF DUP2 GT ISZERO PUSH2 0x266A JUMPI PUSH1 0x0 DUP1 REVERT JUMPDEST PUSH2 0x2676 DUP14 DUP3 DUP15 ADD PUSH2 0x2300 JUMP JUMPDEST SWAP4 POP POP PUSH2 0x100 DUP12 ADD CALLDATALOAD PUSH8 0xFFFFFFFFFFFFFFFF DUP2 GT ISZERO PUSH2 0x2694 JUMPI PUSH1 0x0 DUP1 REVERT JUMPDEST PUSH2 0x26A0 DUP14 DUP3 DUP15 ADD PUSH2 0x2300 JUMP JUMPDEST SWAP3 POP POP PUSH2 0x120 DUP12 ADD CALLDATALOAD PUSH8 0xFFFFFFFFFFFFFFFF DUP2 GT ISZERO PUSH2 0x26BE JUMPI PUSH1 0x0 DUP1 REVERT JUMPDEST PUSH2 0x26CA DUP14 DUP3 DUP15 ADD PUSH2 0x2300 JUMP JUMPDEST SWAP2 POP POP SWAP3 SWAP6 SWAP9 SWAP12 SWAP2 SWAP5 SWAP8 SWAP11 POP SWAP3 SWAP6 SWAP9 POP JUMP JUMPDEST PUSH1 0x0 PUSH1 0x20 DUP3 DUP5 SUB SLT ISZERO PUSH2 0x26EE JUMPI PUSH1 0x0 DUP1 REVERT JUMPDEST PUSH1 0x0 PUSH2 0x26FC DUP5 DUP3 DUP6 ADD PUSH2 0x2356 JUMP JUMPDEST SWAP2 POP POP SWAP3 SWAP2 POP POP JUMP JUMPDEST PUSH2 0x270E DUP2 PUSH2 0x29F8 JUMP JUMPDEST DUP3 MSTORE POP POP JUMP JUMPDEST PUSH1 0x0 PUSH2 0x271F DUP3 PUSH2 0x29D5 JUMP JUMPDEST DUP1 DUP5 MSTORE PUSH1 0x20 DUP5 ADD SWAP4 POP PUSH2 0x2731 DUP4 PUSH2 0x29C8 JUMP JUMPDEST PUSH1 0x0 JUMPDEST DUP3 DUP2 LT ISZERO PUSH2 0x2763 JUMPI PUSH2 0x2747 DUP7 DUP4 MLOAD PUSH2 0x2705 JUMP JUMPDEST PUSH2 0x2750 DUP3 PUSH2 0x29EB JUMP JUMPDEST SWAP2 POP PUSH1 0x20 DUP7 ADD SWAP6 POP PUSH1 0x1 DUP2 ADD SWAP1 POP PUSH2 0x2734 JUMP JUMPDEST POP DUP5 SWAP3 POP POP POP SWAP3 SWAP2 POP POP JUMP JUMPDEST PUSH2 0x2778 DUP2 PUSH2 0x2A18 JUMP JUMPDEST DUP3 MSTORE POP POP JUMP JUMPDEST PUSH1 0x0 PUSH2 0x2789 DUP3 PUSH2 0x29E0 JUMP JUMPDEST DUP1 DUP5 MSTORE PUSH2 0x279D DUP2 PUSH1 0x20 DUP7 ADD PUSH1 0x20 DUP7 ADD PUSH2 0x2A67 JUMP JUMPDEST PUSH2 0x27A6 DUP2 PUSH2 0x2A9A JUMP JUMPDEST PUSH1 0x20 DUP6 ADD ADD SWAP2 POP POP SWAP3 SWAP2 POP POP JUMP JUMPDEST PUSH2 0x27BD DUP2 PUSH2 0x2A24 JUMP JUMPDEST DUP3 MSTORE POP POP JUMP JUMPDEST PUSH1 0x0 PUSH1 0x20 DUP3 ADD SWAP1 POP PUSH2 0x27D8 PUSH1 0x0 DUP4 ADD DUP5 PUSH2 0x2705 JUMP JUMPDEST SWAP3 SWAP2 POP POP JUMP JUMPDEST PUSH1 0x0 PUSH1 0x20 DUP3 ADD SWAP1 POP DUP2 DUP2 SUB PUSH1 0x0 DUP4 ADD MSTORE PUSH2 0x27F8 DUP2 DUP5 PUSH2 0x2714 JUMP JUMPDEST SWAP1 POP SWAP3 SWAP2 POP POP JUMP JUMPDEST PUSH1 0x0 PUSH1 0x20 DUP3 ADD SWAP1 POP PUSH2 0x2815 PUSH1 0x0 DUP4 ADD DUP5 PUSH2 0x276F JUMP JUMPDEST SWAP3 SWAP2 POP POP JUMP JUMPDEST PUSH1 0x0 PUSH1 0xE0 DUP3 ADD SWAP1 POP DUP2 DUP2 SUB PUSH1 0x0 DUP4 ADD MSTORE PUSH2 0x2835 DUP2 DUP11 PUSH2 0x277E JUMP JUMPDEST SWAP1 POP DUP2 DUP2 SUB PUSH1 0x20 DUP4 ADD MSTORE PUSH2 0x2849 DUP2 DUP10 PUSH2 0x277E JUMP JUMPDEST SWAP1 POP DUP2 DUP2 SUB PUSH1 0x40 DUP4 ADD MSTORE PUSH2 0x285D DUP2 DUP9 PUSH2 0x277E JUMP JUMPDEST SWAP1 POP DUP2 DUP2 SUB PUSH1 0x60 DUP4 ADD MSTORE PUSH2 0x2871 DUP2 DUP8 PUSH2 0x277E JUMP JUMPDEST SWAP1 POP DUP2 DUP2 SUB PUSH1 0x80 DUP4 ADD MSTORE PUSH2 0x2885 DUP2 DUP7 PUSH2 0x277E JUMP JUMPDEST SWAP1 POP DUP2 DUP2 SUB PUSH1 0xA0 DUP4 ADD MSTORE PUSH2 0x2899 DUP2 DUP6 PUSH2 0x277E JUMP JUMPDEST SWAP1 POP PUSH2 0x28A8 PUSH1 0xC0 DUP4 ADD DUP5 PUSH2 0x2705 JUMP JUMPDEST SWAP9 SWAP8 POP POP POP POP POP POP POP POP JUMP JUMPDEST PUSH1 0x0 PUSH1 0xE0 DUP3 ADD SWAP1 POP DUP2 DUP2 SUB PUSH1 0x0 DUP4 ADD MSTORE PUSH2 0x28CE DUP2 DUP11 PUSH2 0x277E JUMP JUMPDEST SWAP1 POP DUP2 DUP2 SUB PUSH1 0x20 DUP4 ADD MSTORE PUSH2 0x28E2 DUP2 DUP10 PUSH2 0x277E JUMP JUMPDEST SWAP1 POP DUP2 DUP2 SUB PUSH1 0x40 DUP4 ADD MSTORE PUSH2 0x28F6 DUP2 DUP9 PUSH2 0x277E JUMP JUMPDEST SWAP1 POP DUP2 DUP2 SUB PUSH1 0x60 DUP4 ADD MSTORE PUSH2 0x290A DUP2 DUP8 PUSH2 0x277E JUMP JUMPDEST SWAP1 POP DUP2 DUP2 SUB PUSH1 0x80 DUP4 ADD MSTORE PUSH2 0x291E DUP2 DUP7 PUSH2 0x277E JUMP JUMPDEST SWAP1 POP DUP2 DUP2 SUB PUSH1 0xA0 DUP4 ADD MSTORE PUSH2 0x2932 DUP2 DUP6 PUSH2 0x277E JUMP JUMPDEST SWAP1 POP DUP2 DUP2 SUB PUSH1 0xC0 DUP4 ADD MSTORE PUSH2 0x2946 DUP2 DUP5 PUSH2 0x277E JUMP JUMPDEST SWAP1 POP SWAP9 SWAP8 POP POP POP POP POP POP POP POP JUMP JUMPDEST PUSH1 0x0 PUSH1 0x20 DUP3 ADD SWAP1 POP PUSH2 0x2969 PUSH1 0x0 DUP4 ADD DUP5 PUSH2 0x27B4 JUMP JUMPDEST SWAP3 SWAP2 POP POP JUMP JUMPDEST PUSH1 0x0 PUSH1 0x40 MLOAD SWAP1 POP DUP2 DUP2 ADD DUP2 DUP2 LT PUSH8 0xFFFFFFFFFFFFFFFF DUP3 GT OR ISZERO PUSH2 0x2992 JUMPI PUSH1 0x0 DUP1 REVERT JUMPDEST DUP1 PUSH1 0x40 MSTORE POP SWAP2 SWAP1 POP JUMP JUMPDEST PUSH1 0x0 PUSH8 0xFFFFFFFFFFFFFFFF DUP3 GT ISZERO PUSH2 0x29B3 JUMPI PUSH1 0x0 DUP1 REVERT JUMPDEST PUSH1 0x1F NOT PUSH1 0x1F DUP4 ADD AND SWAP1 POP PUSH1 0x20 DUP2 ADD SWAP1 POP SWAP2 SWAP1 POP JUMP JUMPDEST PUSH1 0x0 PUSH1 0x20 DUP3 ADD SWAP1 POP SWAP2 SWAP1 POP JUMP JUMPDEST PUSH1 0x0 DUP2 MLOAD SWAP1 POP SWAP2 SWAP1 POP JUMP JUMPDEST PUSH1 0x0 DUP2 MLOAD SWAP1 POP SWAP2 SWAP1 POP JUMP JUMPDEST PUSH1 0x0 PUSH1 0x20 DUP3 ADD SWAP1 POP SWAP2 SWAP1 POP JUMP JUMPDEST PUSH1 0x0 PUSH20 0xFFFFFFFFFFFFFFFFFFFFFFFFFFFFFFFFFFFFFFFF DUP3 AND SWAP1 POP SWAP2 SWAP1 POP JUMP JUMPDEST PUSH1 0x0 DUP2 ISZERO ISZERO SWAP1 POP SWAP2 SWAP1 POP JUMP JUMPDEST PUSH1 0x0 DUP2 SWAP1 POP SWAP2 SWAP1 POP JUMP JUMPDEST PUSH1 0x0 PUSH20 0xFFFFFFFFFFFFFFFFFFFFFFFFFFFFFFFFFFFFFFFF DUP3 AND SWAP1 POP SWAP2 SWAP1 POP JUMP JUMPDEST PUSH1 0x0 DUP2 SWAP1 POP SWAP2 SWAP1 POP JUMP JUMPDEST DUP3 DUP2 DUP4 CALLDATACOPY PUSH1 0x0 DUP4 DUP4 ADD MSTORE POP POP POP JUMP JUMPDEST PUSH1 0x0 JUMPDEST DUP4 DUP2 LT ISZERO PUSH2 0x2A85 JUMPI DUP1 DUP3 ADD MLOAD DUP2 DUP5 ADD MSTORE PUSH1 0x20 DUP2 ADD SWAP1 POP PUSH2 0x2A6A JUMP JUMPDEST DUP4 DUP2 GT ISZERO PUSH2 0x2A94 JUMPI PUSH1 0x0 DUP5 DUP5 ADD MSTORE JUMPDEST POP POP POP POP JUMP JUMPDEST PUSH1 0x0 PUSH1 0x1F NOT PUSH1 0x1F DUP4 ADD AND SWAP1 POP SWAP2 SWAP1 POP JUMP STOP LOG2 PUSH6 0x627A7A723058 KECCAK256 0x49 CALLDATASIZE PUSH15 0xBE502C134849148334D3AA779A0107 JUMP 0xcb BLOCKHASH 0xab SIGNEXTEND DUP12 0xc3 0xee LOG0 POP 0x2f NUMBER PUSH11 0xC26C6578706572696D656E PUSH21 0x616CF5003700000000000000000000000000000000 "
				},
				"gasEstimates": {
					"creation": {
						"codeDepositCost": "2196200",
						"executionCost": "42637",
						"totalCost": "2238837"
					},
					"external": {
						"MoHPermissionCounter()": "848",
						"MoHRevokePermission(address,address)": "infinite",
						"doctorCount()": "760",
						"doctorList(uint256)": "1144",
						"doctorRegistration(address,string,string,string,string,string,string,string)": "infinite",
						"editDoctor(address,string,string,string,string,string,string,string)": "infinite",
						"editUser(address,string,string,string,string,string,string,string,string,string)": "infinite",
						"getDoctorCount()": "790",
						"getDoctors()": "infinite",
						"getMoHPermissionCounter()": "1054",
						"getUserCount()": "922",
						"getUserPermissionCounter()": "548",
						"getUsers()": "infinite",
						"givePermissionByMoH(address,address)": "infinite",
						"givePermissionByUser(address)": "41388",
						"mohAdress()": "978",
						"owner()": "846",
						"ownerAddress()": "20707",
						"searchDoctor(address)": "infinite",
						"searchUserformation(address)": "infinite",
						"userCount()": "584",
						"userList(uint256)": "1408",
						"userPermissionCounter()": "980",
						"userRegistration(address,string,string,string,string,string,string,string,string,string)": "infinite",
						"userRevokePermission(address)": "21173"
					}
				},
				"methodIdentifiers": {
					"MoHPermissionCounter()": "99d698c5",
					"MoHRevokePermission(address,address)": "c3bf7bf0",
					"doctorCount()": "78522bc4",
					"doctorList(uint256)": "127ca4b4",
					"doctorRegistration(address,string,string,string,string,string,string,string)": "17e51111",
					"editDoctor(address,string,string,string,string,string,string,string)": "16e0a611",
					"editUser(address,string,string,string,string,string,string,string,string,string)": "779a9576",
					"getDoctorCount()": "79111c1c",
					"getDoctors()": "b13d5d94",
					"getMoHPermissionCounter()": "e0df0ac6",
					"getUserCount()": "b5cb15f7",
					"getUserPermissionCounter()": "024decc5",
					"getUsers()": "00ce8e3e",
					"givePermissionByMoH(address,address)": "d118404b",
					"givePermissionByUser(address)": "294a4540",
					"mohAdress()": "b744ff4d",
					"owner()": "8da5cb5b",
					"ownerAddress()": "8f84aa09",
					"searchDoctor(address)": "caee6c85",
					"searchUserformation(address)": "076fd2f8",
					"userCount()": "07973ccf",
					"userList(uint256)": "9f4216e8",
					"userPermissionCounter()": "c543a718",
					"userRegistration(address,string,string,string,string,string,string,string,string,string)": "6cdb2278",
					"userRevokePermission(address)": "5fc8e8c6"
				}
			},
			"userdoc": {
				"methods": {}
			}
		}
	}
}