{
	"contracts/ddddd.sol": {
		"ddddd": {
			"abi": [
				{
					"constant": true,
					"inputs": [],
					"name": "getUsers",
					"outputs": [
						{
							"name": "",
							"type": "address[]"
						}
					],
					"payable": false,
					"stateMutability": "view",
					"type": "function"
				},
				{
					"constant": true,
					"inputs": [],
					"name": "getUserPermissionCounter",
					"outputs": [
						{
							"name": "",
							"type": "uint256"
						}
					],
					"payable": false,
					"stateMutability": "view",
					"type": "function"
				},
				{
					"constant": true,
					"inputs": [
						{
							"name": "_address",
							"type": "address"
						}
					],
					"name": "searchUserformation",
					"outputs": [
						{
							"name": "",
							"type": "string"
						},
						{
							"name": "",
							"type": "string"
						},
						{
							"name": "",
							"type": "string"
						},
						{
							"name": "",
							"type": "string"
						},
						{
							"name": "",
							"type": "string"
						},
						{
							"name": "",
							"type": "string"
						},
						{
							"name": "",
							"type": "string"
						},
						{
							"name": "",
							"type": "address"
						}
					],
					"payable": false,
					"stateMutability": "view",
					"type": "function"
				},
				{
					"constant": true,
					"inputs": [],
					"name": "userCount",
					"outputs": [
						{
							"name": "",
							"type": "uint256"
						}
					],
					"payable": false,
					"stateMutability": "view",
					"type": "function"
				},
				{
					"constant": true,
					"inputs": [
						{
							"name": "",
							"type": "uint256"
						}
					],
					"name": "doctorList",
					"outputs": [
						{
							"name": "",
							"type": "address"
						}
					],
					"payable": false,
					"stateMutability": "view",
					"type": "function"
				},
				{
					"constant": false,
					"inputs": [
						{
							"name": "_doctor",
							"type": "address"
						},
						{
							"name": "_uaeId",
							"type": "string"
						},
						{
							"name": "_name",
							"type": "string"
						},
						{
							"name": "_phone",
							"type": "string"
						},
						{
							"name": "_gender",
							"type": "string"
						},
						{
							"name": "_email",
							"type": "string"
						},
						{
							"name": "_qualification",
							"type": "string"
						},
						{
							"name": "_major",
							"type": "string"
						}
					],
					"name": "editDoctor",
					"outputs": [],
					"payable": false,
					"stateMutability": "nonpayable",
					"type": "function"
				},
				{
					"constant": false,
					"inputs": [
						{
							"name": "_doctor",
							"type": "address"
						},
						{
							"name": "_uaeId",
							"type": "string"
						},
						{
							"name": "_name",
							"type": "string"
						},
						{
							"name": "_phone",
							"type": "string"
						},
						{
							"name": "_gender",
							"type": "string"
						},
						{
							"name": "_email",
							"type": "string"
						},
						{
							"name": "_qualification",
							"type": "string"
						},
						{
							"name": "_major",
							"type": "string"
						}
					],
					"name": "doctorRegistration",
					"outputs": [],
					"payable": false,
					"stateMutability": "nonpayable",
					"type": "function"
				},
				{
					"constant": false,
					"inputs": [
						{
							"name": "_address",
							"type": "address"
						}
					],
					"name": "givePermissionByUser",
					"outputs": [
						{
							"name": "success",
							"type": "bool"
						}
					],
					"payable": false,
					"stateMutability": "nonpayable",
					"type": "function"
				},
				{
					"constant": false,
					"inputs": [
						{
							"name": "_address1",
							"type": "address"
						},
						{
							"name": "_doctor",
							"type": "address"
						},
						{
							"name": "_vaccine",
							"type": "string"
						},
						{
							"name": "_description",
							"type": "string"
						},
						{
							"name": "_typeOfVaccine",
							"type": "string"
						},
						{
							"name": "_creationDate",
							"type": "uint256"
						}
					],
					"name": "createVaccineRecord",
					"outputs": [
						{
							"name": "success",
							"type": "bool"
						}
					],
					"payable": false,
					"stateMutability": "nonpayable",
					"type": "function"
				},
				{
					"constant": false,
					"inputs": [
						{
							"name": "_address",
							"type": "address"
						}
					],
					"name": "userRevokePermission",
					"outputs": [
						{
							"name": "success",
							"type": "bool"
						}
					],
					"payable": false,
					"stateMutability": "nonpayable",
					"type": "function"
				},
				{
					"constant": false,
					"inputs": [
						{
							"name": "_user",
							"type": "address"
						},
						{
							"name": "_uaeId",
							"type": "string"
						},
						{
							"name": "_name",
							"type": "string"
						},
						{
							"name": "_phone",
							"type": "string"
						},
						{
							"name": "_gender",
							"type": "string"
						},
						{
							"name": "_dob",
							"type": "string"
						},
						{
							"name": "_addr",
							"type": "string"
						},
						{
							"name": "_email",
							"type": "string"
						},
						{
							"name": "_nomineeName",
							"type": "string"
						},
						{
							"name": "_nomineeContact",
							"type": "string"
						}
					],
					"name": "userRegistration",
					"outputs": [],
					"payable": false,
					"stateMutability": "nonpayable",
					"type": "function"
				},
				{
					"constant": false,
					"inputs": [
						{
							"name": "_user",
							"type": "address"
						},
						{
							"name": "_uaeId",
							"type": "string"
						},
						{
							"name": "_name",
							"type": "string"
						},
						{
							"name": "_phone",
							"type": "string"
						},
						{
							"name": "_gender",
							"type": "string"
						},
						{
							"name": "_dob",
							"type": "string"
						},
						{
							"name": "_addr",
							"type": "string"
						},
						{
							"name": "_email",
							"type": "string"
						},
						{
							"name": "_nomineeName",
							"type": "string"
						},
						{
							"name": "_nomineeContact",
							"type": "string"
						}
					],
					"name": "editUser",
					"outputs": [],
					"payable": false,
					"stateMutability": "nonpayable",
					"type": "function"
				},
				{
					"constant": true,
					"inputs": [],
					"name": "doctorCount",
					"outputs": [
						{
							"name": "",
							"type": "uint256"
						}
					],
					"payable": false,
					"stateMutability": "view",
					"type": "function"
				},
				{
					"constant": true,
					"inputs": [],
					"name": "getDoctorCount",
					"outputs": [
						{
							"name": "",
							"type": "uint256"
						}
					],
					"payable": false,
					"stateMutability": "view",
					"type": "function"
				},
				{
					"constant": true,
					"inputs": [
						{
							"name": "_address",
							"type": "address"
						}
					],
					"name": "checkDoctor",
					"outputs": [
						{
							"name": "success",
							"type": "bool"
						}
					],
					"payable": false,
					"stateMutability": "view",
					"type": "function"
				},
				{
					"constant": true,
					"inputs": [
						{
							"name": "_address",
							"type": "address"
						}
					],
					"name": "getVaccinationInfo",
					"outputs": [
						{
							"name": "",
							"type": "string"
						},
						{
							"name": "",
							"type": "string"
						},
						{
							"name": "",
							"type": "string"
						},
						{
							"name": "",
							"type": "uint256"
						},
						{
							"name": "",
							"type": "address"
						},
						{
							"name": "",
							"type": "address"
						}
					],
					"payable": false,
					"stateMutability": "view",
					"type": "function"
				},
				{
					"constant": true,
					"inputs": [],
					"name": "owner",
					"outputs": [
						{
							"name": "",
							"type": "address"
						}
					],
					"payable": false,
					"stateMutability": "view",
					"type": "function"
				},
				{
					"constant": false,
					"inputs": [],
					"name": "ownerAddress",
					"outputs": [
						{
							"name": "",
							"type": "address"
						}
					],
					"payable": false,
					"stateMutability": "nonpayable",
					"type": "function"
				},
				{
					"constant": true,
					"inputs": [],
					"name": "vaccinationRecordsCounter",
					"outputs": [
						{
							"name": "",
							"type": "uint256"
						}
					],
					"payable": false,
					"stateMutability": "view",
					"type": "function"
				},
				{
					"constant": true,
					"inputs": [],
					"name": "MoHPermissionCounter",
					"outputs": [
						{
							"name": "",
							"type": "uint256"
						}
					],
					"payable": false,
					"stateMutability": "view",
					"type": "function"
				},
				{
					"constant": true,
					"inputs": [
						{
							"name": "",
							"type": "uint256"
						}
					],
					"name": "userList",
					"outputs": [
						{
							"name": "",
							"type": "address"
						}
					],
					"payable": false,
					"stateMutability": "view",
					"type": "function"
				},
				{
					"constant": true,
					"inputs": [],
					"name": "getDoctors",
					"outputs": [
						{
							"name": "",
							"type": "address[]"
						}
					],
					"payable": false,
					"stateMutability": "view",
					"type": "function"
				},
				{
					"constant": true,
					"inputs": [],
					"name": "getUserCount",
					"outputs": [
						{
							"name": "",
							"type": "uint256"
						}
					],
					"payable": false,
					"stateMutability": "view",
					"type": "function"
				},
				{
					"constant": true,
					"inputs": [],
					"name": "mohAdress",
					"outputs": [
						{
							"name": "",
							"type": "address"
						}
					],
					"payable": false,
					"stateMutability": "view",
					"type": "function"
				},
				{
					"constant": false,
					"inputs": [
						{
							"name": "_address1",
							"type": "address"
						},
						{
							"name": "_address2",
							"type": "address"
						}
					],
					"name": "MoHRevokePermission",
					"outputs": [
						{
							"name": "success",
							"type": "bool"
						}
					],
					"payable": false,
					"stateMutability": "nonpayable",
					"type": "function"
				},
				{
					"constant": true,
					"inputs": [],
					"name": "userPermissionCounter",
					"outputs": [
						{
							"name": "",
							"type": "uint256"
						}
					],
					"payable": false,
					"stateMutability": "view",
					"type": "function"
				},
				{
					"constant": true,
					"inputs": [
						{
							"name": "_address",
							"type": "address"
						}
					],
					"name": "searchDoctor",
					"outputs": [
						{
							"name": "",
							"type": "string"
						},
						{
							"name": "",
							"type": "string"
						},
						{
							"name": "",
							"type": "string"
						},
						{
							"name": "",
							"type": "string"
						},
						{
							"name": "",
							"type": "string"
						},
						{
							"name": "",
							"type": "string"
						},
						{
							"name": "",
							"type": "string"
						},
						{
							"name": "",
							"type": "address"
						}
					],
					"payable": false,
					"stateMutability": "view",
					"type": "function"
				},
				{
					"constant": false,
					"inputs": [
						{
							"name": "_address1",
							"type": "address"
						},
						{
							"name": "_address2",
							"type": "address"
						}
					],
					"name": "givePermissionByMoH",
					"outputs": [
						{
							"name": "success",
							"type": "bool"
						}
					],
					"payable": false,
					"stateMutability": "nonpayable",
					"type": "function"
				},
				{
					"constant": true,
					"inputs": [],
					"name": "getMoHPermissionCounter",
					"outputs": [
						{
							"name": "",
							"type": "uint256"
						}
					],
					"payable": false,
					"stateMutability": "view",
					"type": "function"
				},
				{
					"constant": true,
					"inputs": [
						{
							"name": "",
							"type": "uint256"
						}
					],
					"name": "vaccinationList",
					"outputs": [
						{
							"name": "",
							"type": "address"
						}
					],
					"payable": false,
					"stateMutability": "view",
					"type": "function"
				}
			],
			"devdoc": {
				"methods": {}
			},
			"evm": {
				"assembly": "    /* \"contracts/ddddd.sol\":91:9248  contract ddddd {\r... */\n  mstore(0x40, 0x80)\n    /* \"contracts/ddddd.sol\":1662:1663  0 */\n  0x0\n    /* \"contracts/ddddd.sol\":1635:1663  uint256 public userCount = 0 */\n  0xb\n  sstore\n    /* \"contracts/ddddd.sol\":1699:1700  0 */\n  0x0\n    /* \"contracts/ddddd.sol\":1670:1700  uint256 public doctorCount = 0 */\n  0xc\n  sstore\n    /* \"contracts/ddddd.sol\":1745:1746  0 */\n  0x0\n    /* \"contracts/ddddd.sol\":1707:1746  uint256 public MoHPermissionCounter = 0 */\n  0xd\n  sstore\n    /* \"contracts/ddddd.sol\":1792:1793  0 */\n  0x0\n    /* \"contracts/ddddd.sol\":1753:1793  uint256 public userPermissionCounter = 0 */\n  0xe\n  sstore\n    /* \"contracts/ddddd.sol\":1843:1844  0 */\n  0x0\n    /* \"contracts/ddddd.sol\":1800:1844  uint256 public vaccinationRecordsCounter = 0 */\n  0xf\n  sstore\n    /* \"contracts/ddddd.sol\":1880:1922  0xc50C6297f56b033633C30354A854b074749cd2dC */\n  0xc50c6297f56b033633c30354a854b074749cd2dc\n    /* \"contracts/ddddd.sol\":1853:1922  address public mohAdress = 0xc50C6297f56b033633C30354A854b074749cd2dC */\n  0x10\n  exp(0x100, 0x0)\n  dup2\n  sload\n  dup2\n  0xffffffffffffffffffffffffffffffffffffffff\n  mul\n  not\n  and\n  swap1\n  dup4\n  0xffffffffffffffffffffffffffffffffffffffff\n  and\n  mul\n  or\n  swap1\n  sstore\n  pop\n    /* \"contracts/ddddd.sol\":91:9248  contract ddddd {\r... */\n  callvalue\n    /* \"--CODEGEN--\":8:17   */\n  dup1\n    /* \"--CODEGEN--\":5:7   */\n  iszero\n  tag_1\n  jumpi\n    /* \"--CODEGEN--\":30:31   */\n  0x0\n    /* \"--CODEGEN--\":27:28   */\n  dup1\n    /* \"--CODEGEN--\":20:32   */\n  revert\n    /* \"--CODEGEN--\":5:7   */\ntag_1:\n    /* \"contracts/ddddd.sol\":91:9248  contract ddddd {\r... */\n  pop\n  dataSize(sub_0)\n  dup1\n  dataOffset(sub_0)\n  0x0\n  codecopy\n  0x0\n  return\nstop\n\nsub_0: assembly {\n        /* \"contracts/ddddd.sol\":91:9248  contract ddddd {\r... */\n      mstore(0x40, 0x80)\n      jumpi(tag_1, lt(calldatasize, 0x4))\n      calldataload(0x0)\n      0x100000000000000000000000000000000000000000000000000000000\n      swap1\n      div\n      0xffffffff\n      and\n      dup1\n      0xce8e3e\n      eq\n      tag_2\n      jumpi\n      dup1\n      0x24decc5\n      eq\n      tag_3\n      jumpi\n      dup1\n      0x76fd2f8\n      eq\n      tag_4\n      jumpi\n      dup1\n      0x7973ccf\n      eq\n      tag_5\n      jumpi\n      dup1\n      0x127ca4b4\n      eq\n      tag_6\n      jumpi\n      dup1\n      0x16e0a611\n      eq\n      tag_7\n      jumpi\n      dup1\n      0x17e51111\n      eq\n      tag_8\n      jumpi\n      dup1\n      0x294a4540\n      eq\n      tag_9\n      jumpi\n      dup1\n      0x341f8105\n      eq\n      tag_10\n      jumpi\n      dup1\n      0x5fc8e8c6\n      eq\n      tag_11\n      jumpi\n      dup1\n      0x6cdb2278\n      eq\n      tag_12\n      jumpi\n      dup1\n      0x779a9576\n      eq\n      tag_13\n      jumpi\n      dup1\n      0x78522bc4\n      eq\n      tag_14\n      jumpi\n      dup1\n      0x79111c1c\n      eq\n      tag_15\n      jumpi\n      dup1\n      0x793de5f0\n      eq\n      tag_16\n      jumpi\n      dup1\n      0x83a28b29\n      eq\n      tag_17\n      jumpi\n      dup1\n      0x8da5cb5b\n      eq\n      tag_18\n      jumpi\n      dup1\n      0x8f84aa09\n      eq\n      tag_19\n      jumpi\n      dup1\n      0x96e39ce0\n      eq\n      tag_20\n      jumpi\n      dup1\n      0x99d698c5\n      eq\n      tag_21\n      jumpi\n      dup1\n      0x9f4216e8\n      eq\n      tag_22\n      jumpi\n      dup1\n      0xb13d5d94\n      eq\n      tag_23\n      jumpi\n      dup1\n      0xb5cb15f7\n      eq\n      tag_24\n      jumpi\n      dup1\n      0xb744ff4d\n      eq\n      tag_25\n      jumpi\n      dup1\n      0xc3bf7bf0\n      eq\n      tag_26\n      jumpi\n      dup1\n      0xc543a718\n      eq\n      tag_27\n      jumpi\n      dup1\n      0xcaee6c85\n      eq\n      tag_28\n      jumpi\n      dup1\n      0xd118404b\n      eq\n      tag_29\n      jumpi\n      dup1\n      0xe0df0ac6\n      eq\n      tag_30\n      jumpi\n      dup1\n      0xff508dab\n      eq\n      tag_31\n      jumpi\n    tag_1:\n      0x0\n      dup1\n      revert\n        /* \"contracts/ddddd.sol\":7223:7308  function getUsers() public view returns(address[]) {\r... */\n    tag_2:\n      callvalue\n        /* \"--CODEGEN--\":8:17   */\n      dup1\n        /* \"--CODEGEN--\":5:7   */\n      iszero\n      tag_32\n      jumpi\n        /* \"--CODEGEN--\":30:31   */\n      0x0\n        /* \"--CODEGEN--\":27:28   */\n      dup1\n        /* \"--CODEGEN--\":20:32   */\n      revert\n        /* \"--CODEGEN--\":5:7   */\n    tag_32:\n        /* \"contracts/ddddd.sol\":7223:7308  function getUsers() public view returns(address[]) {\r... */\n      pop\n      tag_33\n      jump(tag_34)\n    tag_33:\n      mload(0x40)\n      tag_35\n      swap2\n      swap1\n      jump(tag_36)\n    tag_35:\n      mload(0x40)\n      dup1\n      swap2\n      sub\n      swap1\n      return\n        /* \"contracts/ddddd.sol\":8701:8813  function getUserPermissionCounter() public view returns(uint256) {\r... */\n    tag_3:\n      callvalue\n        /* \"--CODEGEN--\":8:17   */\n      dup1\n        /* \"--CODEGEN--\":5:7   */\n      iszero\n      tag_37\n      jumpi\n        /* \"--CODEGEN--\":30:31   */\n      0x0\n        /* \"--CODEGEN--\":27:28   */\n      dup1\n        /* \"--CODEGEN--\":20:32   */\n      revert\n        /* \"--CODEGEN--\":5:7   */\n    tag_37:\n        /* \"contracts/ddddd.sol\":8701:8813  function getUserPermissionCounter() public view returns(uint256) {\r... */\n      pop\n      tag_38\n      jump(tag_39)\n    tag_38:\n      mload(0x40)\n      tag_40\n      swap2\n      swap1\n      jump(tag_41)\n    tag_40:\n      mload(0x40)\n      dup1\n      swap2\n      sub\n      swap1\n      return\n        /* \"contracts/ddddd.sol\":7419:7793  function searchUserformation(address _address) public view returns(string, string, string, string, string, string, string, address) {\r... */\n    tag_4:\n      callvalue\n        /* \"--CODEGEN--\":8:17   */\n      dup1\n        /* \"--CODEGEN--\":5:7   */\n      iszero\n      tag_42\n      jumpi\n        /* \"--CODEGEN--\":30:31   */\n      0x0\n        /* \"--CODEGEN--\":27:28   */\n      dup1\n        /* \"--CODEGEN--\":20:32   */\n      revert\n        /* \"--CODEGEN--\":5:7   */\n    tag_42:\n        /* \"contracts/ddddd.sol\":7419:7793  function searchUserformation(address _address) public view returns(string, string, string, string, string, string, string, address) {\r... */\n      pop\n      tag_43\n      0x4\n      dup1\n      calldatasize\n      sub\n      tag_44\n      swap2\n      swap1\n      dup2\n      add\n      swap1\n      jump(tag_45)\n    tag_44:\n      jump(tag_46)\n    tag_43:\n      mload(0x40)\n      tag_47\n      swap9\n      swap8\n      swap7\n      swap6\n      swap5\n      swap4\n      swap3\n      swap2\n      swap1\n      jump(tag_48)\n    tag_47:\n      mload(0x40)\n      dup1\n      swap2\n      sub\n      swap1\n      return\n        /* \"contracts/ddddd.sol\":1635:1663  uint256 public userCount = 0 */\n    tag_5:\n      callvalue\n        /* \"--CODEGEN--\":8:17   */\n      dup1\n        /* \"--CODEGEN--\":5:7   */\n      iszero\n      tag_49\n      jumpi\n        /* \"--CODEGEN--\":30:31   */\n      0x0\n        /* \"--CODEGEN--\":27:28   */\n      dup1\n        /* \"--CODEGEN--\":20:32   */\n      revert\n        /* \"--CODEGEN--\":5:7   */\n    tag_49:\n        /* \"contracts/ddddd.sol\":1635:1663  uint256 public userCount = 0 */\n      pop\n      tag_50\n      jump(tag_51)\n    tag_50:\n      mload(0x40)\n      tag_52\n      swap2\n      swap1\n      jump(tag_41)\n    tag_52:\n      mload(0x40)\n      dup1\n      swap2\n      sub\n      swap1\n      return\n        /* \"contracts/ddddd.sol\":1097:1124  address[] public doctorList */\n    tag_6:\n      callvalue\n        /* \"--CODEGEN--\":8:17   */\n      dup1\n        /* \"--CODEGEN--\":5:7   */\n      iszero\n      tag_53\n      jumpi\n        /* \"--CODEGEN--\":30:31   */\n      0x0\n        /* \"--CODEGEN--\":27:28   */\n      dup1\n        /* \"--CODEGEN--\":20:32   */\n      revert\n        /* \"--CODEGEN--\":5:7   */\n    tag_53:\n        /* \"contracts/ddddd.sol\":1097:1124  address[] public doctorList */\n      pop\n      tag_54\n      0x4\n      dup1\n      calldatasize\n      sub\n      tag_55\n      swap2\n      swap1\n      dup2\n      add\n      swap1\n      jump(tag_56)\n    tag_55:\n      jump(tag_57)\n    tag_54:\n      mload(0x40)\n      tag_58\n      swap2\n      swap1\n      jump(tag_59)\n    tag_58:\n      mload(0x40)\n      dup1\n      swap2\n      sub\n      swap1\n      return\n        /* \"contracts/ddddd.sol\":4580:5105  function editDoctor(address _doctor, string _uaeId, string _name, string _phone, string _gender, string _email, string _qualification, string _major) public {\r... */\n    tag_7:\n      callvalue\n        /* \"--CODEGEN--\":8:17   */\n      dup1\n        /* \"--CODEGEN--\":5:7   */\n      iszero\n      tag_60\n      jumpi\n        /* \"--CODEGEN--\":30:31   */\n      0x0\n        /* \"--CODEGEN--\":27:28   */\n      dup1\n        /* \"--CODEGEN--\":20:32   */\n      revert\n        /* \"--CODEGEN--\":5:7   */\n    tag_60:\n        /* \"contracts/ddddd.sol\":4580:5105  function editDoctor(address _doctor, string _uaeId, string _name, string _phone, string _gender, string _email, string _qualification, string _major) public {\r... */\n      pop\n      tag_61\n      0x4\n      dup1\n      calldatasize\n      sub\n      tag_62\n      swap2\n      swap1\n      dup2\n      add\n      swap1\n      jump(tag_63)\n    tag_62:\n      jump(tag_64)\n    tag_61:\n      stop\n        /* \"contracts/ddddd.sol\":3805:4572  function doctorRegistration(address _doctor, string _uaeId, string _name, string _phone, string _gender, string _email, string _qualification, string _major) public {\r... */\n    tag_8:\n      callvalue\n        /* \"--CODEGEN--\":8:17   */\n      dup1\n        /* \"--CODEGEN--\":5:7   */\n      iszero\n      tag_65\n      jumpi\n        /* \"--CODEGEN--\":30:31   */\n      0x0\n        /* \"--CODEGEN--\":27:28   */\n      dup1\n        /* \"--CODEGEN--\":20:32   */\n      revert\n        /* \"--CODEGEN--\":5:7   */\n    tag_65:\n        /* \"contracts/ddddd.sol\":3805:4572  function doctorRegistration(address _doctor, string _uaeId, string _name, string _phone, string _gender, string _email, string _qualification, string _major) public {\r... */\n      pop\n      tag_66\n      0x4\n      dup1\n      calldatasize\n      sub\n      tag_67\n      swap2\n      swap1\n      dup2\n      add\n      swap1\n      jump(tag_63)\n    tag_67:\n      jump(tag_68)\n    tag_66:\n      stop\n        /* \"contracts/ddddd.sol\":6366:6557  function givePermissionByUser(address _address) public returns(bool success) {\r... */\n    tag_9:\n      callvalue\n        /* \"--CODEGEN--\":8:17   */\n      dup1\n        /* \"--CODEGEN--\":5:7   */\n      iszero\n      tag_69\n      jumpi\n        /* \"--CODEGEN--\":30:31   */\n      0x0\n        /* \"--CODEGEN--\":27:28   */\n      dup1\n        /* \"--CODEGEN--\":20:32   */\n      revert\n        /* \"--CODEGEN--\":5:7   */\n    tag_69:\n        /* \"contracts/ddddd.sol\":6366:6557  function givePermissionByUser(address _address) public returns(bool success) {\r... */\n      pop\n      tag_70\n      0x4\n      dup1\n      calldatasize\n      sub\n      tag_71\n      swap2\n      swap1\n      dup2\n      add\n      swap1\n      jump(tag_45)\n    tag_71:\n      jump(tag_72)\n    tag_70:\n      mload(0x40)\n      tag_73\n      swap2\n      swap1\n      jump(tag_74)\n    tag_73:\n      mload(0x40)\n      dup1\n      swap2\n      sub\n      swap1\n      return\n        /* \"contracts/ddddd.sol\":5113:6020  function createVaccineRecord(address _address1, address _doctor, string _vaccine, string _description, string _typeOfVaccine, uint _creationDate) public returns(bool success) {\r... */\n    tag_10:\n      callvalue\n        /* \"--CODEGEN--\":8:17   */\n      dup1\n        /* \"--CODEGEN--\":5:7   */\n      iszero\n      tag_75\n      jumpi\n        /* \"--CODEGEN--\":30:31   */\n      0x0\n        /* \"--CODEGEN--\":27:28   */\n      dup1\n        /* \"--CODEGEN--\":20:32   */\n      revert\n        /* \"--CODEGEN--\":5:7   */\n    tag_75:\n        /* \"contracts/ddddd.sol\":5113:6020  function createVaccineRecord(address _address1, address _doctor, string _vaccine, string _description, string _typeOfVaccine, uint _creationDate) public returns(bool success) {\r... */\n      pop\n      tag_76\n      0x4\n      dup1\n      calldatasize\n      sub\n      tag_77\n      swap2\n      swap1\n      dup2\n      add\n      swap1\n      jump(tag_78)\n    tag_77:\n      jump(tag_79)\n    tag_76:\n      mload(0x40)\n      tag_80\n      swap2\n      swap1\n      jump(tag_74)\n    tag_80:\n      mload(0x40)\n      dup1\n      swap2\n      sub\n      swap1\n      return\n        /* \"contracts/ddddd.sol\":6827:6985  function userRevokePermission(address _address) public returns(bool success) {\r... */\n    tag_11:\n      callvalue\n        /* \"--CODEGEN--\":8:17   */\n      dup1\n        /* \"--CODEGEN--\":5:7   */\n      iszero\n      tag_81\n      jumpi\n        /* \"--CODEGEN--\":30:31   */\n      0x0\n        /* \"--CODEGEN--\":27:28   */\n      dup1\n        /* \"--CODEGEN--\":20:32   */\n      revert\n        /* \"--CODEGEN--\":5:7   */\n    tag_81:\n        /* \"contracts/ddddd.sol\":6827:6985  function userRevokePermission(address _address) public returns(bool success) {\r... */\n      pop\n      tag_82\n      0x4\n      dup1\n      calldatasize\n      sub\n      tag_83\n      swap2\n      swap1\n      dup2\n      add\n      swap1\n      jump(tag_45)\n    tag_83:\n      jump(tag_84)\n    tag_82:\n      mload(0x40)\n      tag_85\n      swap2\n      swap1\n      jump(tag_74)\n    tag_85:\n      mload(0x40)\n      dup1\n      swap2\n      sub\n      swap1\n      return\n        /* \"contracts/ddddd.sol\":2055:3164  function userRegistration(address _user, string _uaeId, string _name, string _phone, string _gender, string _dob, string _addr, string _email, string _nomineeName, string _nomineeContact) public {\r... */\n    tag_12:\n      callvalue\n        /* \"--CODEGEN--\":8:17   */\n      dup1\n        /* \"--CODEGEN--\":5:7   */\n      iszero\n      tag_86\n      jumpi\n        /* \"--CODEGEN--\":30:31   */\n      0x0\n        /* \"--CODEGEN--\":27:28   */\n      dup1\n        /* \"--CODEGEN--\":20:32   */\n      revert\n        /* \"--CODEGEN--\":5:7   */\n    tag_86:\n        /* \"contracts/ddddd.sol\":2055:3164  function userRegistration(address _user, string _uaeId, string _name, string _phone, string _gender, string _dob, string _addr, string _email, string _nomineeName, string _nomineeContact) public {\r... */\n      pop\n      tag_87\n      0x4\n      dup1\n      calldatasize\n      sub\n      tag_88\n      swap2\n      swap1\n      dup2\n      add\n      swap1\n      jump(tag_89)\n    tag_88:\n      jump(tag_90)\n    tag_87:\n      stop\n        /* \"contracts/ddddd.sol\":3188:3797  function editUser(address _user, string _uaeId, string _name, string _phone, string _gender, string _dob, string _addr, string _email, string _nomineeName, string _nomineeContact) public {\r... */\n    tag_13:\n      callvalue\n        /* \"--CODEGEN--\":8:17   */\n      dup1\n        /* \"--CODEGEN--\":5:7   */\n      iszero\n      tag_91\n      jumpi\n        /* \"--CODEGEN--\":30:31   */\n      0x0\n        /* \"--CODEGEN--\":27:28   */\n      dup1\n        /* \"--CODEGEN--\":20:32   */\n      revert\n        /* \"--CODEGEN--\":5:7   */\n    tag_91:\n        /* \"contracts/ddddd.sol\":3188:3797  function editUser(address _user, string _uaeId, string _name, string _phone, string _gender, string _dob, string _addr, string _email, string _nomineeName, string _nomineeContact) public {\r... */\n      pop\n      tag_92\n      0x4\n      dup1\n      calldatasize\n      sub\n      tag_93\n      swap2\n      swap1\n      dup2\n      add\n      swap1\n      jump(tag_89)\n    tag_93:\n      jump(tag_94)\n    tag_92:\n      stop\n        /* \"contracts/ddddd.sol\":1670:1700  uint256 public doctorCount = 0 */\n    tag_14:\n      callvalue\n        /* \"--CODEGEN--\":8:17   */\n      dup1\n        /* \"--CODEGEN--\":5:7   */\n      iszero\n      tag_95\n      jumpi\n        /* \"--CODEGEN--\":30:31   */\n      0x0\n        /* \"--CODEGEN--\":27:28   */\n      dup1\n        /* \"--CODEGEN--\":20:32   */\n      revert\n        /* \"--CODEGEN--\":5:7   */\n    tag_95:\n        /* \"contracts/ddddd.sol\":1670:1700  uint256 public doctorCount = 0 */\n      pop\n      tag_96\n      jump(tag_97)\n    tag_96:\n      mload(0x40)\n      tag_98\n      swap2\n      swap1\n      jump(tag_41)\n    tag_98:\n      mload(0x40)\n      dup1\n      swap2\n      sub\n      swap1\n      return\n        /* \"contracts/ddddd.sol\":8595:8687  function getDoctorCount() public view returns(uint256) {\r... */\n    tag_15:\n      callvalue\n        /* \"--CODEGEN--\":8:17   */\n      dup1\n        /* \"--CODEGEN--\":5:7   */\n      iszero\n      tag_99\n      jumpi\n        /* \"--CODEGEN--\":30:31   */\n      0x0\n        /* \"--CODEGEN--\":27:28   */\n      dup1\n        /* \"--CODEGEN--\":20:32   */\n      revert\n        /* \"--CODEGEN--\":5:7   */\n    tag_99:\n        /* \"contracts/ddddd.sol\":8595:8687  function getDoctorCount() public view returns(uint256) {\r... */\n      pop\n      tag_100\n      jump(tag_101)\n    tag_100:\n      mload(0x40)\n      tag_102\n      swap2\n      swap1\n      jump(tag_41)\n    tag_102:\n      mload(0x40)\n      dup1\n      swap2\n      sub\n      swap1\n      return\n        /* \"contracts/ddddd.sol\":8939:9245  function checkDoctor(address _address) public view returns(bool success) {\r... */\n    tag_16:\n      callvalue\n        /* \"--CODEGEN--\":8:17   */\n      dup1\n        /* \"--CODEGEN--\":5:7   */\n      iszero\n      tag_103\n      jumpi\n        /* \"--CODEGEN--\":30:31   */\n      0x0\n        /* \"--CODEGEN--\":27:28   */\n      dup1\n        /* \"--CODEGEN--\":20:32   */\n      revert\n        /* \"--CODEGEN--\":5:7   */\n    tag_103:\n        /* \"contracts/ddddd.sol\":8939:9245  function checkDoctor(address _address) public view returns(bool success) {\r... */\n      pop\n      tag_104\n      0x4\n      dup1\n      calldatasize\n      sub\n      tag_105\n      swap2\n      swap1\n      dup2\n      add\n      swap1\n      jump(tag_45)\n    tag_105:\n      jump(tag_106)\n    tag_104:\n      mload(0x40)\n      tag_107\n      swap2\n      swap1\n      jump(tag_74)\n    tag_107:\n      mload(0x40)\n      dup1\n      swap2\n      sub\n      swap1\n      return\n        /* \"contracts/ddddd.sol\":6028:6356  function getVaccinationInfo(address _address) public view returns(string, string, string, uint256, address, address) {\r... */\n    tag_17:\n      callvalue\n        /* \"--CODEGEN--\":8:17   */\n      dup1\n        /* \"--CODEGEN--\":5:7   */\n      iszero\n      tag_108\n      jumpi\n        /* \"--CODEGEN--\":30:31   */\n      0x0\n        /* \"--CODEGEN--\":27:28   */\n      dup1\n        /* \"--CODEGEN--\":20:32   */\n      revert\n        /* \"--CODEGEN--\":5:7   */\n    tag_108:\n        /* \"contracts/ddddd.sol\":6028:6356  function getVaccinationInfo(address _address) public view returns(string, string, string, uint256, address, address) {\r... */\n      pop\n      tag_109\n      0x4\n      dup1\n      calldatasize\n      sub\n      tag_110\n      swap2\n      swap1\n      dup2\n      add\n      swap1\n      jump(tag_45)\n    tag_110:\n      jump(tag_111)\n    tag_109:\n      mload(0x40)\n      tag_112\n      swap7\n      swap6\n      swap5\n      swap4\n      swap3\n      swap2\n      swap1\n      jump(tag_113)\n    tag_112:\n      mload(0x40)\n      dup1\n      swap2\n      sub\n      swap1\n      return\n        /* \"contracts/ddddd.sol\":1038:1058  address public owner */\n    tag_18:\n      callvalue\n        /* \"--CODEGEN--\":8:17   */\n      dup1\n        /* \"--CODEGEN--\":5:7   */\n      iszero\n      tag_114\n      jumpi\n        /* \"--CODEGEN--\":30:31   */\n      0x0\n        /* \"--CODEGEN--\":27:28   */\n      dup1\n        /* \"--CODEGEN--\":20:32   */\n      revert\n        /* \"--CODEGEN--\":5:7   */\n    tag_114:\n        /* \"contracts/ddddd.sol\":1038:1058  address public owner */\n      pop\n      tag_115\n      jump(tag_116)\n    tag_115:\n      mload(0x40)\n      tag_117\n      swap2\n      swap1\n      jump(tag_59)\n    tag_117:\n      mload(0x40)\n      dup1\n      swap2\n      sub\n      swap1\n      return\n        /* \"contracts/ddddd.sol\":1935:2043  function ownerAddress() public returns(address) {\r... */\n    tag_19:\n      callvalue\n        /* \"--CODEGEN--\":8:17   */\n      dup1\n        /* \"--CODEGEN--\":5:7   */\n      iszero\n      tag_118\n      jumpi\n        /* \"--CODEGEN--\":30:31   */\n      0x0\n        /* \"--CODEGEN--\":27:28   */\n      dup1\n        /* \"--CODEGEN--\":20:32   */\n      revert\n        /* \"--CODEGEN--\":5:7   */\n    tag_118:\n        /* \"contracts/ddddd.sol\":1935:2043  function ownerAddress() public returns(address) {\r... */\n      pop\n      tag_119\n      jump(tag_120)\n    tag_119:\n      mload(0x40)\n      tag_121\n      swap2\n      swap1\n      jump(tag_59)\n    tag_121:\n      mload(0x40)\n      dup1\n      swap2\n      sub\n      swap1\n      return\n        /* \"contracts/ddddd.sol\":1800:1844  uint256 public vaccinationRecordsCounter = 0 */\n    tag_20:\n      callvalue\n        /* \"--CODEGEN--\":8:17   */\n      dup1\n        /* \"--CODEGEN--\":5:7   */\n      iszero\n      tag_122\n      jumpi\n        /* \"--CODEGEN--\":30:31   */\n      0x0\n        /* \"--CODEGEN--\":27:28   */\n      dup1\n        /* \"--CODEGEN--\":20:32   */\n      revert\n        /* \"--CODEGEN--\":5:7   */\n    tag_122:\n        /* \"contracts/ddddd.sol\":1800:1844  uint256 public vaccinationRecordsCounter = 0 */\n      pop\n      tag_123\n      jump(tag_124)\n    tag_123:\n      mload(0x40)\n      tag_125\n      swap2\n      swap1\n      jump(tag_41)\n    tag_125:\n      mload(0x40)\n      dup1\n      swap2\n      sub\n      swap1\n      return\n        /* \"contracts/ddddd.sol\":1707:1746  uint256 public MoHPermissionCounter = 0 */\n    tag_21:\n      callvalue\n        /* \"--CODEGEN--\":8:17   */\n      dup1\n        /* \"--CODEGEN--\":5:7   */\n      iszero\n      tag_126\n      jumpi\n        /* \"--CODEGEN--\":30:31   */\n      0x0\n        /* \"--CODEGEN--\":27:28   */\n      dup1\n        /* \"--CODEGEN--\":20:32   */\n      revert\n        /* \"--CODEGEN--\":5:7   */\n    tag_126:\n        /* \"contracts/ddddd.sol\":1707:1746  uint256 public MoHPermissionCounter = 0 */\n      pop\n      tag_127\n      jump(tag_128)\n    tag_127:\n      mload(0x40)\n      tag_129\n      swap2\n      swap1\n      jump(tag_41)\n    tag_129:\n      mload(0x40)\n      dup1\n      swap2\n      sub\n      swap1\n      return\n        /* \"contracts/ddddd.sol\":1065:1090  address[] public userList */\n    tag_22:\n      callvalue\n        /* \"--CODEGEN--\":8:17   */\n      dup1\n        /* \"--CODEGEN--\":5:7   */\n      iszero\n      tag_130\n      jumpi\n        /* \"--CODEGEN--\":30:31   */\n      0x0\n        /* \"--CODEGEN--\":27:28   */\n      dup1\n        /* \"--CODEGEN--\":20:32   */\n      revert\n        /* \"--CODEGEN--\":5:7   */\n    tag_130:\n        /* \"contracts/ddddd.sol\":1065:1090  address[] public userList */\n      pop\n      tag_131\n      0x4\n      dup1\n      calldatasize\n      sub\n      tag_132\n      swap2\n      swap1\n      dup2\n      add\n      swap1\n      jump(tag_56)\n    tag_132:\n      jump(tag_133)\n    tag_131:\n      mload(0x40)\n      tag_134\n      swap2\n      swap1\n      jump(tag_59)\n    tag_134:\n      mload(0x40)\n      dup1\n      swap2\n      sub\n      swap1\n      return\n        /* \"contracts/ddddd.sol\":7318:7407  function getDoctors() public view returns(address[]) {\r... */\n    tag_23:\n      callvalue\n        /* \"--CODEGEN--\":8:17   */\n      dup1\n        /* \"--CODEGEN--\":5:7   */\n      iszero\n      tag_135\n      jumpi\n        /* \"--CODEGEN--\":30:31   */\n      0x0\n        /* \"--CODEGEN--\":27:28   */\n      dup1\n        /* \"--CODEGEN--\":20:32   */\n      revert\n        /* \"--CODEGEN--\":5:7   */\n    tag_135:\n        /* \"contracts/ddddd.sol\":7318:7407  function getDoctors() public view returns(address[]) {\r... */\n      pop\n      tag_136\n      jump(tag_137)\n    tag_136:\n      mload(0x40)\n      tag_138\n      swap2\n      swap1\n      jump(tag_36)\n    tag_138:\n      mload(0x40)\n      dup1\n      swap2\n      sub\n      swap1\n      return\n        /* \"contracts/ddddd.sol\":8499:8587  function getUserCount() public view returns(uint256) {\r... */\n    tag_24:\n      callvalue\n        /* \"--CODEGEN--\":8:17   */\n      dup1\n        /* \"--CODEGEN--\":5:7   */\n      iszero\n      tag_139\n      jumpi\n        /* \"--CODEGEN--\":30:31   */\n      0x0\n        /* \"--CODEGEN--\":27:28   */\n      dup1\n        /* \"--CODEGEN--\":20:32   */\n      revert\n        /* \"--CODEGEN--\":5:7   */\n    tag_139:\n        /* \"contracts/ddddd.sol\":8499:8587  function getUserCount() public view returns(uint256) {\r... */\n      pop\n      tag_140\n      jump(tag_141)\n    tag_140:\n      mload(0x40)\n      tag_142\n      swap2\n      swap1\n      jump(tag_41)\n    tag_142:\n      mload(0x40)\n      dup1\n      swap2\n      sub\n      swap1\n      return\n        /* \"contracts/ddddd.sol\":1853:1922  address public mohAdress = 0xc50C6297f56b033633C30354A854b074749cd2dC */\n    tag_25:\n      callvalue\n        /* \"--CODEGEN--\":8:17   */\n      dup1\n        /* \"--CODEGEN--\":5:7   */\n      iszero\n      tag_143\n      jumpi\n        /* \"--CODEGEN--\":30:31   */\n      0x0\n        /* \"--CODEGEN--\":27:28   */\n      dup1\n        /* \"--CODEGEN--\":20:32   */\n      revert\n        /* \"--CODEGEN--\":5:7   */\n    tag_143:\n        /* \"contracts/ddddd.sol\":1853:1922  address public mohAdress = 0xc50C6297f56b033633C30354A854b074749cd2dC */\n      pop\n      tag_144\n      jump(tag_145)\n    tag_144:\n      mload(0x40)\n      tag_146\n      swap2\n      swap1\n      jump(tag_59)\n    tag_146:\n      mload(0x40)\n      dup1\n      swap2\n      sub\n      swap1\n      return\n        /* \"contracts/ddddd.sol\":6993:7213  function MoHRevokePermission(address _address1, address _address2) public returns(bool success) {\r... */\n    tag_26:\n      callvalue\n        /* \"--CODEGEN--\":8:17   */\n      dup1\n        /* \"--CODEGEN--\":5:7   */\n      iszero\n      tag_147\n      jumpi\n        /* \"--CODEGEN--\":30:31   */\n      0x0\n        /* \"--CODEGEN--\":27:28   */\n      dup1\n        /* \"--CODEGEN--\":20:32   */\n      revert\n        /* \"--CODEGEN--\":5:7   */\n    tag_147:\n        /* \"contracts/ddddd.sol\":6993:7213  function MoHRevokePermission(address _address1, address _address2) public returns(bool success) {\r... */\n      pop\n      tag_148\n      0x4\n      dup1\n      calldatasize\n      sub\n      tag_149\n      swap2\n      swap1\n      dup2\n      add\n      swap1\n      jump(tag_150)\n    tag_149:\n      jump(tag_151)\n    tag_148:\n      mload(0x40)\n      tag_152\n      swap2\n      swap1\n      jump(tag_74)\n    tag_152:\n      mload(0x40)\n      dup1\n      swap2\n      sub\n      swap1\n      return\n        /* \"contracts/ddddd.sol\":1753:1793  uint256 public userPermissionCounter = 0 */\n    tag_27:\n      callvalue\n        /* \"--CODEGEN--\":8:17   */\n      dup1\n        /* \"--CODEGEN--\":5:7   */\n      iszero\n      tag_153\n      jumpi\n        /* \"--CODEGEN--\":30:31   */\n      0x0\n        /* \"--CODEGEN--\":27:28   */\n      dup1\n        /* \"--CODEGEN--\":20:32   */\n      revert\n        /* \"--CODEGEN--\":5:7   */\n    tag_153:\n        /* \"contracts/ddddd.sol\":1753:1793  uint256 public userPermissionCounter = 0 */\n      pop\n      tag_154\n      jump(tag_155)\n    tag_154:\n      mload(0x40)\n      tag_156\n      swap2\n      swap1\n      jump(tag_41)\n    tag_156:\n      mload(0x40)\n      dup1\n      swap2\n      sub\n      swap1\n      return\n        /* \"contracts/ddddd.sol\":8114:8483  function searchDoctor(address _address) public view returns(string, string, string, string, string, string, string, address) {\r... */\n    tag_28:\n      callvalue\n        /* \"--CODEGEN--\":8:17   */\n      dup1\n        /* \"--CODEGEN--\":5:7   */\n      iszero\n      tag_157\n      jumpi\n        /* \"--CODEGEN--\":30:31   */\n      0x0\n        /* \"--CODEGEN--\":27:28   */\n      dup1\n        /* \"--CODEGEN--\":20:32   */\n      revert\n        /* \"--CODEGEN--\":5:7   */\n    tag_157:\n        /* \"contracts/ddddd.sol\":8114:8483  function searchDoctor(address _address) public view returns(string, string, string, string, string, string, string, address) {\r... */\n      pop\n      tag_158\n      0x4\n      dup1\n      calldatasize\n      sub\n      tag_159\n      swap2\n      swap1\n      dup2\n      add\n      swap1\n      jump(tag_45)\n    tag_159:\n      jump(tag_160)\n    tag_158:\n      mload(0x40)\n      tag_161\n      swap9\n      swap8\n      swap7\n      swap6\n      swap5\n      swap4\n      swap3\n      swap2\n      swap1\n      jump(tag_48)\n    tag_161:\n      mload(0x40)\n      dup1\n      swap2\n      sub\n      swap1\n      return\n        /* \"contracts/ddddd.sol\":6565:6817  function givePermissionByMoH(address _address1, address _address2) public returns(bool success) {\r... */\n    tag_29:\n      callvalue\n        /* \"--CODEGEN--\":8:17   */\n      dup1\n        /* \"--CODEGEN--\":5:7   */\n      iszero\n      tag_162\n      jumpi\n        /* \"--CODEGEN--\":30:31   */\n      0x0\n        /* \"--CODEGEN--\":27:28   */\n      dup1\n        /* \"--CODEGEN--\":20:32   */\n      revert\n        /* \"--CODEGEN--\":5:7   */\n    tag_162:\n        /* \"contracts/ddddd.sol\":6565:6817  function givePermissionByMoH(address _address1, address _address2) public returns(bool success) {\r... */\n      pop\n      tag_163\n      0x4\n      dup1\n      calldatasize\n      sub\n      tag_164\n      swap2\n      swap1\n      dup2\n      add\n      swap1\n      jump(tag_150)\n    tag_164:\n      jump(tag_165)\n    tag_163:\n      mload(0x40)\n      tag_166\n      swap2\n      swap1\n      jump(tag_74)\n    tag_166:\n      mload(0x40)\n      dup1\n      swap2\n      sub\n      swap1\n      return\n        /* \"contracts/ddddd.sol\":8821:8931  function getMoHPermissionCounter() public view returns(uint256) {\r... */\n    tag_30:\n      callvalue\n        /* \"--CODEGEN--\":8:17   */\n      dup1\n        /* \"--CODEGEN--\":5:7   */\n      iszero\n      tag_167\n      jumpi\n        /* \"--CODEGEN--\":30:31   */\n      0x0\n        /* \"--CODEGEN--\":27:28   */\n      dup1\n        /* \"--CODEGEN--\":20:32   */\n      revert\n        /* \"--CODEGEN--\":5:7   */\n    tag_167:\n        /* \"contracts/ddddd.sol\":8821:8931  function getMoHPermissionCounter() public view returns(uint256) {\r... */\n      pop\n      tag_168\n      jump(tag_169)\n    tag_168:\n      mload(0x40)\n      tag_170\n      swap2\n      swap1\n      jump(tag_41)\n    tag_170:\n      mload(0x40)\n      dup1\n      swap2\n      sub\n      swap1\n      return\n        /* \"contracts/ddddd.sol\":1131:1163  address[] public vaccinationList */\n    tag_31:\n      callvalue\n        /* \"--CODEGEN--\":8:17   */\n      dup1\n        /* \"--CODEGEN--\":5:7   */\n      iszero\n      tag_171\n      jumpi\n        /* \"--CODEGEN--\":30:31   */\n      0x0\n        /* \"--CODEGEN--\":27:28   */\n      dup1\n        /* \"--CODEGEN--\":20:32   */\n      revert\n        /* \"--CODEGEN--\":5:7   */\n    tag_171:\n        /* \"contracts/ddddd.sol\":1131:1163  address[] public vaccinationList */\n      pop\n      tag_172\n      0x4\n      dup1\n      calldatasize\n      sub\n      tag_173\n      swap2\n      swap1\n      dup2\n      add\n      swap1\n      jump(tag_56)\n    tag_173:\n      jump(tag_174)\n    tag_172:\n      mload(0x40)\n      tag_175\n      swap2\n      swap1\n      jump(tag_59)\n    tag_175:\n      mload(0x40)\n      dup1\n      swap2\n      sub\n      swap1\n      return\n        /* \"contracts/ddddd.sol\":7223:7308  function getUsers() public view returns(address[]) {\r... */\n    tag_34:\n        /* \"contracts/ddddd.sol\":7263:7272  address[] */\n      0x60\n        /* \"contracts/ddddd.sol\":7292:7300  userList */\n      0x1\n        /* \"contracts/ddddd.sol\":7285:7300  return userList */\n      dup1\n      sload\n      dup1\n      0x20\n      mul\n      0x20\n      add\n      mload(0x40)\n      swap1\n      dup2\n      add\n      0x40\n      mstore\n      dup1\n      swap3\n      swap2\n      swap1\n      dup2\n      dup2\n      mstore\n      0x20\n      add\n      dup3\n      dup1\n      sload\n      dup1\n      iszero\n      tag_177\n      jumpi\n      0x20\n      mul\n      dup3\n      add\n      swap2\n      swap1\n      0x0\n      mstore\n      keccak256(0x0, 0x20)\n      swap1\n    tag_178:\n      dup2\n      0x0\n      swap1\n      sload\n      swap1\n      0x100\n      exp\n      swap1\n      div\n      0xffffffffffffffffffffffffffffffffffffffff\n      and\n      0xffffffffffffffffffffffffffffffffffffffff\n      and\n      dup2\n      mstore\n      0x20\n      add\n      swap1\n      0x1\n      add\n      swap1\n      dup1\n      dup4\n      gt\n      tag_178\n      jumpi\n    tag_177:\n      pop\n      pop\n      pop\n      pop\n      pop\n      swap1\n      pop\n        /* \"contracts/ddddd.sol\":7223:7308  function getUsers() public view returns(address[]) {\r... */\n      swap1\n      jump\t// out\n        /* \"contracts/ddddd.sol\":8701:8813  function getUserPermissionCounter() public view returns(uint256) {\r... */\n    tag_39:\n        /* \"contracts/ddddd.sol\":8757:8764  uint256 */\n      0x0\n        /* \"contracts/ddddd.sol\":8784:8805  userPermissionCounter */\n      sload(0xe)\n        /* \"contracts/ddddd.sol\":8777:8805  return userPermissionCounter */\n      swap1\n      pop\n        /* \"contracts/ddddd.sol\":8701:8813  function getUserPermissionCounter() public view returns(uint256) {\r... */\n      swap1\n      jump\t// out\n        /* \"contracts/ddddd.sol\":7419:7793  function searchUserformation(address _address) public view returns(string, string, string, string, string, string, string, address) {\r... */\n    tag_46:\n        /* \"contracts/ddddd.sol\":7486:7492  string */\n      0x60\n        /* \"contracts/ddddd.sol\":7494:7500  string */\n      dup1\n        /* \"contracts/ddddd.sol\":7502:7508  string */\n      0x60\n        /* \"contracts/ddddd.sol\":7510:7516  string */\n      dup1\n        /* \"contracts/ddddd.sol\":7518:7524  string */\n      0x60\n        /* \"contracts/ddddd.sol\":7526:7532  string */\n      dup1\n        /* \"contracts/ddddd.sol\":7534:7540  string */\n      0x60\n        /* \"contracts/ddddd.sol\":7542:7549  address */\n      0x0\n        /* \"contracts/ddddd.sol\":7614:7619  var u */\n      dup1\n        /* \"contracts/ddddd.sol\":7570:7580  isApproved */\n      0x7\n        /* \"contracts/ddddd.sol\":7570:7590  isApproved[_address] */\n      0x0\n        /* \"contracts/ddddd.sol\":7581:7589  _address */\n      dup12\n        /* \"contracts/ddddd.sol\":7570:7590  isApproved[_address] */\n      0xffffffffffffffffffffffffffffffffffffffff\n      and\n      0xffffffffffffffffffffffffffffffffffffffff\n      and\n      dup2\n      mstore\n      0x20\n      add\n      swap1\n      dup2\n      mstore\n      0x20\n      add\n      0x0\n      keccak256\n        /* \"contracts/ddddd.sol\":7570:7602  isApproved[_address][msg.sender] */\n      0x0\n        /* \"contracts/ddddd.sol\":7591:7601  msg.sender */\n      caller\n        /* \"contracts/ddddd.sol\":7570:7602  isApproved[_address][msg.sender] */\n      0xffffffffffffffffffffffffffffffffffffffff\n      and\n      0xffffffffffffffffffffffffffffffffffffffff\n      and\n      dup2\n      mstore\n      0x20\n      add\n      swap1\n      dup2\n      mstore\n      0x20\n      add\n      0x0\n      keccak256\n      0x0\n      swap1\n      sload\n      swap1\n      0x100\n      exp\n      swap1\n      div\n      0xff\n      and\n        /* \"contracts/ddddd.sol\":7562:7603  require(isApproved[_address][msg.sender]) */\n      iszero\n      iszero\n      tag_181\n      jumpi\n      0x0\n      dup1\n      revert\n    tag_181:\n        /* \"contracts/ddddd.sol\":7622:7626  user */\n      0x4\n        /* \"contracts/ddddd.sol\":7622:7636  user[_address] */\n      0x0\n        /* \"contracts/ddddd.sol\":7627:7635  _address */\n      dup12\n        /* \"contracts/ddddd.sol\":7622:7636  user[_address] */\n      0xffffffffffffffffffffffffffffffffffffffff\n      and\n      0xffffffffffffffffffffffffffffffffffffffff\n      and\n      dup2\n      mstore\n      0x20\n      add\n      swap1\n      dup2\n      mstore\n      0x20\n      add\n      0x0\n      keccak256\n        /* \"contracts/ddddd.sol\":7614:7636  var u = user[_address] */\n      swap1\n      pop\n        /* \"contracts/ddddd.sol\":7655:7656  u */\n      dup1\n        /* \"contracts/ddddd.sol\":7655:7662  u.uaeId */\n      0x0\n      add\n        /* \"contracts/ddddd.sol\":7664:7665  u */\n      dup2\n        /* \"contracts/ddddd.sol\":7664:7670  u.name */\n      0x1\n      add\n        /* \"contracts/ddddd.sol\":7672:7673  u */\n      dup3\n        /* \"contracts/ddddd.sol\":7672:7679  u.email */\n      0x6\n      add\n        /* \"contracts/ddddd.sol\":7681:7682  u */\n      dup4\n        /* \"contracts/ddddd.sol\":7681:7688  u.phone */\n      0x2\n      add\n        /* \"contracts/ddddd.sol\":7690:7691  u */\n      dup5\n        /* \"contracts/ddddd.sol\":7690:7698  u.gender */\n      0x3\n      add\n        /* \"contracts/ddddd.sol\":7700:7701  u */\n      dup6\n        /* \"contracts/ddddd.sol\":7700:7705  u.dob */\n      0x4\n      add\n        /* \"contracts/ddddd.sol\":7707:7708  u */\n      dup7\n        /* \"contracts/ddddd.sol\":7707:7713  u.addr */\n      0x5\n      add\n        /* \"contracts/ddddd.sol\":7715:7716  u */\n      dup8\n        /* \"contracts/ddddd.sol\":7715:7725  u.eAddress */\n      0x9\n      add\n      0x0\n      swap1\n      sload\n      swap1\n      0x100\n      exp\n      swap1\n      div\n      0xffffffffffffffffffffffffffffffffffffffff\n      and\n        /* \"contracts/ddddd.sol\":7647:7726  return (u.uaeId, u.name, u.email, u.phone, u.gender, u.dob, u.addr, u.eAddress) */\n      dup8\n      dup1\n      sload\n      0x1\n      dup2\n      0x1\n      and\n      iszero\n      0x100\n      mul\n      sub\n      and\n      0x2\n      swap1\n      div\n      dup1\n      0x1f\n      add\n      0x20\n      dup1\n      swap2\n      div\n      mul\n      0x20\n      add\n      mload(0x40)\n      swap1\n      dup2\n      add\n      0x40\n      mstore\n      dup1\n      swap3\n      swap2\n      swap1\n      dup2\n      dup2\n      mstore\n      0x20\n      add\n      dup3\n      dup1\n      sload\n      0x1\n      dup2\n      0x1\n      and\n      iszero\n      0x100\n      mul\n      sub\n      and\n      0x2\n      swap1\n      div\n      dup1\n      iszero\n      tag_182\n      jumpi\n      dup1\n      0x1f\n      lt\n      tag_183\n      jumpi\n      0x100\n      dup1\n      dup4\n      sload\n      div\n      mul\n      dup4\n      mstore\n      swap2\n      0x20\n      add\n      swap2\n      jump(tag_182)\n    tag_183:\n      dup3\n      add\n      swap2\n      swap1\n      0x0\n      mstore\n      keccak256(0x0, 0x20)\n      swap1\n    tag_184:\n      dup2\n      sload\n      dup2\n      mstore\n      swap1\n      0x1\n      add\n      swap1\n      0x20\n      add\n      dup1\n      dup4\n      gt\n      tag_184\n      jumpi\n      dup3\n      swap1\n      sub\n      0x1f\n      and\n      dup3\n      add\n      swap2\n    tag_182:\n      pop\n      pop\n      pop\n      pop\n      pop\n      swap8\n      pop\n      dup7\n      dup1\n      sload\n      0x1\n      dup2\n      0x1\n      and\n      iszero\n      0x100\n      mul\n      sub\n      and\n      0x2\n      swap1\n      div\n      dup1\n      0x1f\n      add\n      0x20\n      dup1\n      swap2\n      div\n      mul\n      0x20\n      add\n      mload(0x40)\n      swap1\n      dup2\n      add\n      0x40\n      mstore\n      dup1\n      swap3\n      swap2\n      swap1\n      dup2\n      dup2\n      mstore\n      0x20\n      add\n      dup3\n      dup1\n      sload\n      0x1\n      dup2\n      0x1\n      and\n      iszero\n      0x100\n      mul\n      sub\n      and\n      0x2\n      swap1\n      div\n      dup1\n      iszero\n      tag_185\n      jumpi\n      dup1\n      0x1f\n      lt\n      tag_186\n      jumpi\n      0x100\n      dup1\n      dup4\n      sload\n      div\n      mul\n      dup4\n      mstore\n      swap2\n      0x20\n      add\n      swap2\n      jump(tag_185)\n    tag_186:\n      dup3\n      add\n      swap2\n      swap1\n      0x0\n      mstore\n      keccak256(0x0, 0x20)\n      swap1\n    tag_187:\n      dup2\n      sload\n      dup2\n      mstore\n      swap1\n      0x1\n      add\n      swap1\n      0x20\n      add\n      dup1\n      dup4\n      gt\n      tag_187\n      jumpi\n      dup3\n      swap1\n      sub\n      0x1f\n      and\n      dup3\n      add\n      swap2\n    tag_185:\n      pop\n      pop\n      pop\n      pop\n      pop\n      swap7\n      pop\n      dup6\n      dup1\n      sload\n      0x1\n      dup2\n      0x1\n      and\n      iszero\n      0x100\n      mul\n      sub\n      and\n      0x2\n      swap1\n      div\n      dup1\n      0x1f\n      add\n      0x20\n      dup1\n      swap2\n      div\n      mul\n      0x20\n      add\n      mload(0x40)\n      swap1\n      dup2\n      add\n      0x40\n      mstore\n      dup1\n      swap3\n      swap2\n      swap1\n      dup2\n      dup2\n      mstore\n      0x20\n      add\n      dup3\n      dup1\n      sload\n      0x1\n      dup2\n      0x1\n      and\n      iszero\n      0x100\n      mul\n      sub\n      and\n      0x2\n      swap1\n      div\n      dup1\n      iszero\n      tag_188\n      jumpi\n      dup1\n      0x1f\n      lt\n      tag_189\n      jumpi\n      0x100\n      dup1\n      dup4\n      sload\n      div\n      mul\n      dup4\n      mstore\n      swap2\n      0x20\n      add\n      swap2\n      jump(tag_188)\n    tag_189:\n      dup3\n      add\n      swap2\n      swap1\n      0x0\n      mstore\n      keccak256(0x0, 0x20)\n      swap1\n    tag_190:\n      dup2\n      sload\n      dup2\n      mstore\n      swap1\n      0x1\n      add\n      swap1\n      0x20\n      add\n      dup1\n      dup4\n      gt\n      tag_190\n      jumpi\n      dup3\n      swap1\n      sub\n      0x1f\n      and\n      dup3\n      add\n      swap2\n    tag_188:\n      pop\n      pop\n      pop\n      pop\n      pop\n      swap6\n      pop\n      dup5\n      dup1\n      sload\n      0x1\n      dup2\n      0x1\n      and\n      iszero\n      0x100\n      mul\n      sub\n      and\n      0x2\n      swap1\n      div\n      dup1\n      0x1f\n      add\n      0x20\n      dup1\n      swap2\n      div\n      mul\n      0x20\n      add\n      mload(0x40)\n      swap1\n      dup2\n      add\n      0x40\n      mstore\n      dup1\n      swap3\n      swap2\n      swap1\n      dup2\n      dup2\n      mstore\n      0x20\n      add\n      dup3\n      dup1\n      sload\n      0x1\n      dup2\n      0x1\n      and\n      iszero\n      0x100\n      mul\n      sub\n      and\n      0x2\n      swap1\n      div\n      dup1\n      iszero\n      tag_191\n      jumpi\n      dup1\n      0x1f\n      lt\n      tag_192\n      jumpi\n      0x100\n      dup1\n      dup4\n      sload\n      div\n      mul\n      dup4\n      mstore\n      swap2\n      0x20\n      add\n      swap2\n      jump(tag_191)\n    tag_192:\n      dup3\n      add\n      swap2\n      swap1\n      0x0\n      mstore\n      keccak256(0x0, 0x20)\n      swap1\n    tag_193:\n      dup2\n      sload\n      dup2\n      mstore\n      swap1\n      0x1\n      add\n      swap1\n      0x20\n      add\n      dup1\n      dup4\n      gt\n      tag_193\n      jumpi\n      dup3\n      swap1\n      sub\n      0x1f\n      and\n      dup3\n      add\n      swap2\n    tag_191:\n      pop\n      pop\n      pop\n      pop\n      pop\n      swap5\n      pop\n      dup4\n      dup1\n      sload\n      0x1\n      dup2\n      0x1\n      and\n      iszero\n      0x100\n      mul\n      sub\n      and\n      0x2\n      swap1\n      div\n      dup1\n      0x1f\n      add\n      0x20\n      dup1\n      swap2\n      div\n      mul\n      0x20\n      add\n      mload(0x40)\n      swap1\n      dup2\n      add\n      0x40\n      mstore\n      dup1\n      swap3\n      swap2\n      swap1\n      dup2\n      dup2\n      mstore\n      0x20\n      add\n      dup3\n      dup1\n      sload\n      0x1\n      dup2\n      0x1\n      and\n      iszero\n      0x100\n      mul\n      sub\n      and\n      0x2\n      swap1\n      div\n      dup1\n      iszero\n      tag_194\n      jumpi\n      dup1\n      0x1f\n      lt\n      tag_195\n      jumpi\n      0x100\n      dup1\n      dup4\n      sload\n      div\n      mul\n      dup4\n      mstore\n      swap2\n      0x20\n      add\n      swap2\n      jump(tag_194)\n    tag_195:\n      dup3\n      add\n      swap2\n      swap1\n      0x0\n      mstore\n      keccak256(0x0, 0x20)\n      swap1\n    tag_196:\n      dup2\n      sload\n      dup2\n      mstore\n      swap1\n      0x1\n      add\n      swap1\n      0x20\n      add\n      dup1\n      dup4\n      gt\n      tag_196\n      jumpi\n      dup3\n      swap1\n      sub\n      0x1f\n      and\n      dup3\n      add\n      swap2\n    tag_194:\n      pop\n      pop\n      pop\n      pop\n      pop\n      swap4\n      pop\n      dup3\n      dup1\n      sload\n      0x1\n      dup2\n      0x1\n      and\n      iszero\n      0x100\n      mul\n      sub\n      and\n      0x2\n      swap1\n      div\n      dup1\n      0x1f\n      add\n      0x20\n      dup1\n      swap2\n      div\n      mul\n      0x20\n      add\n      mload(0x40)\n      swap1\n      dup2\n      add\n      0x40\n      mstore\n      dup1\n      swap3\n      swap2\n      swap1\n      dup2\n      dup2\n      mstore\n      0x20\n      add\n      dup3\n      dup1\n      sload\n      0x1\n      dup2\n      0x1\n      and\n      iszero\n      0x100\n      mul\n      sub\n      and\n      0x2\n      swap1\n      div\n      dup1\n      iszero\n      tag_197\n      jumpi\n      dup1\n      0x1f\n      lt\n      tag_198\n      jumpi\n      0x100\n      dup1\n      dup4\n      sload\n      div\n      mul\n      dup4\n      mstore\n      swap2\n      0x20\n      add\n      swap2\n      jump(tag_197)\n    tag_198:\n      dup3\n      add\n      swap2\n      swap1\n      0x0\n      mstore\n      keccak256(0x0, 0x20)\n      swap1\n    tag_199:\n      dup2\n      sload\n      dup2\n      mstore\n      swap1\n      0x1\n      add\n      swap1\n      0x20\n      add\n      dup1\n      dup4\n      gt\n      tag_199\n      jumpi\n      dup3\n      swap1\n      sub\n      0x1f\n      and\n      dup3\n      add\n      swap2\n    tag_197:\n      pop\n      pop\n      pop\n      pop\n      pop\n      swap3\n      pop\n      dup2\n      dup1\n      sload\n      0x1\n      dup2\n      0x1\n      and\n      iszero\n      0x100\n      mul\n      sub\n      and\n      0x2\n      swap1\n      div\n      dup1\n      0x1f\n      add\n      0x20\n      dup1\n      swap2\n      div\n      mul\n      0x20\n      add\n      mload(0x40)\n      swap1\n      dup2\n      add\n      0x40\n      mstore\n      dup1\n      swap3\n      swap2\n      swap1\n      dup2\n      dup2\n      mstore\n      0x20\n      add\n      dup3\n      dup1\n      sload\n      0x1\n      dup2\n      0x1\n      and\n      iszero\n      0x100\n      mul\n      sub\n      and\n      0x2\n      swap1\n      div\n      dup1\n      iszero\n      tag_200\n      jumpi\n      dup1\n      0x1f\n      lt\n      tag_201\n      jumpi\n      0x100\n      dup1\n      dup4\n      sload\n      div\n      mul\n      dup4\n      mstore\n      swap2\n      0x20\n      add\n      swap2\n      jump(tag_200)\n    tag_201:\n      dup3\n      add\n      swap2\n      swap1\n      0x0\n      mstore\n      keccak256(0x0, 0x20)\n      swap1\n    tag_202:\n      dup2\n      sload\n      dup2\n      mstore\n      swap1\n      0x1\n      add\n      swap1\n      0x20\n      add\n      dup1\n      dup4\n      gt\n      tag_202\n      jumpi\n      dup3\n      swap1\n      sub\n      0x1f\n      and\n      dup3\n      add\n      swap2\n    tag_200:\n      pop\n      pop\n      pop\n      pop\n      pop\n      swap2\n      pop\n      swap9\n      pop\n      swap9\n      pop\n      swap9\n      pop\n      swap9\n      pop\n      swap9\n      pop\n      swap9\n      pop\n      swap9\n      pop\n      swap9\n      pop\n        /* \"contracts/ddddd.sol\":7419:7793  function searchUserformation(address _address) public view returns(string, string, string, string, string, string, string, address) {\r... */\n      pop\n      swap2\n      swap4\n      swap6\n      swap8\n      pop\n      swap2\n      swap4\n      swap6\n      swap8\n      jump\t// out\n        /* \"contracts/ddddd.sol\":1635:1663  uint256 public userCount = 0 */\n    tag_51:\n      sload(0xb)\n      dup2\n      jump\t// out\n        /* \"contracts/ddddd.sol\":1097:1124  address[] public doctorList */\n    tag_57:\n      0x2\n      dup2\n      dup2\n      sload\n      dup2\n      lt\n      iszero\n      iszero\n      tag_203\n      jumpi\n      invalid\n    tag_203:\n      swap1\n      0x0\n      mstore\n      keccak256(0x0, 0x20)\n      add\n      0x0\n      swap2\n      pop\n      sload\n      swap1\n      0x100\n      exp\n      swap1\n      div\n      0xffffffffffffffffffffffffffffffffffffffff\n      and\n      dup2\n      jump\t// out\n        /* \"contracts/ddddd.sol\":4580:5105  function editDoctor(address _doctor, string _uaeId, string _name, string _phone, string _gender, string _email, string _qualification, string _major) public {\r... */\n    tag_64:\n        /* \"contracts/ddddd.sol\":4828:4833  var d */\n      0x0\n        /* \"contracts/ddddd.sol\":4770:4779  mohAdress */\n      0x10\n      0x0\n      swap1\n      sload\n      swap1\n      0x100\n      exp\n      swap1\n      div\n      0xffffffffffffffffffffffffffffffffffffffff\n      and\n        /* \"contracts/ddddd.sol\":4756:4779  msg.sender == mohAdress */\n      0xffffffffffffffffffffffffffffffffffffffff\n      and\n        /* \"contracts/ddddd.sol\":4756:4766  msg.sender */\n      caller\n        /* \"contracts/ddddd.sol\":4756:4779  msg.sender == mohAdress */\n      0xffffffffffffffffffffffffffffffffffffffff\n      and\n      eq\n        /* \"contracts/ddddd.sol\":4748:4780  require(msg.sender == mohAdress) */\n      iszero\n      iszero\n      tag_206\n      jumpi\n      0x0\n      dup1\n      revert\n    tag_206:\n        /* \"contracts/ddddd.sol\":4799:4807  isDoctor */\n      0x9\n        /* \"contracts/ddddd.sol\":4799:4816  isDoctor[_doctor] */\n      0x0\n        /* \"contracts/ddddd.sol\":4808:4815  _doctor */\n      dup11\n        /* \"contracts/ddddd.sol\":4799:4816  isDoctor[_doctor] */\n      0xffffffffffffffffffffffffffffffffffffffff\n      and\n      0xffffffffffffffffffffffffffffffffffffffff\n      and\n      dup2\n      mstore\n      0x20\n      add\n      swap1\n      dup2\n      mstore\n      0x20\n      add\n      0x0\n      keccak256\n      0x0\n      swap1\n      sload\n      swap1\n      0x100\n      exp\n      swap1\n      div\n      0xff\n      and\n        /* \"contracts/ddddd.sol\":4791:4817  require(isDoctor[_doctor]) */\n      iszero\n      iszero\n      tag_207\n      jumpi\n      0x0\n      dup1\n      revert\n    tag_207:\n        /* \"contracts/ddddd.sol\":4836:4842  doctor */\n      0x5\n        /* \"contracts/ddddd.sol\":4836:4851  doctor[_doctor] */\n      0x0\n        /* \"contracts/ddddd.sol\":4843:4850  _doctor */\n      dup11\n        /* \"contracts/ddddd.sol\":4836:4851  doctor[_doctor] */\n      0xffffffffffffffffffffffffffffffffffffffff\n      and\n      0xffffffffffffffffffffffffffffffffffffffff\n      and\n      dup2\n      mstore\n      0x20\n      add\n      swap1\n      dup2\n      mstore\n      0x20\n      add\n      0x0\n      keccak256\n        /* \"contracts/ddddd.sol\":4828:4851  var d = doctor[_doctor] */\n      swap1\n      pop\n        /* \"contracts/ddddd.sol\":4882:4888  _uaeId */\n      dup8\n        /* \"contracts/ddddd.sol\":4872:4873  d */\n      dup2\n        /* \"contracts/ddddd.sol\":4872:4879  d.uaeId */\n      0x0\n      add\n        /* \"contracts/ddddd.sol\":4872:4888  d.uaeId = _uaeId */\n      swap1\n      dup1\n      mload\n      swap1\n      0x20\n      add\n      swap1\n      tag_208\n      swap3\n      swap2\n      swap1\n      jump\t// in(tag_209)\n    tag_208:\n      pop\n        /* \"contracts/ddddd.sol\":4908:4913  _name */\n      dup7\n        /* \"contracts/ddddd.sol\":4899:4900  d */\n      dup2\n        /* \"contracts/ddddd.sol\":4899:4905  d.name */\n      0x1\n      add\n        /* \"contracts/ddddd.sol\":4899:4913  d.name = _name */\n      swap1\n      dup1\n      mload\n      swap1\n      0x20\n      add\n      swap1\n      tag_210\n      swap3\n      swap2\n      swap1\n      jump\t// in(tag_209)\n    tag_210:\n      pop\n        /* \"contracts/ddddd.sol\":4934:4940  _phone */\n      dup6\n        /* \"contracts/ddddd.sol\":4924:4925  d */\n      dup2\n        /* \"contracts/ddddd.sol\":4924:4931  d.phone */\n      0x2\n      add\n        /* \"contracts/ddddd.sol\":4924:4940  d.phone = _phone */\n      swap1\n      dup1\n      mload\n      swap1\n      0x20\n      add\n      swap1\n      tag_211\n      swap3\n      swap2\n      swap1\n      jump\t// in(tag_209)\n    tag_211:\n      pop\n        /* \"contracts/ddddd.sol\":4962:4969  _gender */\n      dup5\n        /* \"contracts/ddddd.sol\":4951:4952  d */\n      dup2\n        /* \"contracts/ddddd.sol\":4951:4959  d.gender */\n      0x3\n      add\n        /* \"contracts/ddddd.sol\":4951:4969  d.gender = _gender */\n      swap1\n      dup1\n      mload\n      swap1\n      0x20\n      add\n      swap1\n      tag_212\n      swap3\n      swap2\n      swap1\n      jump\t// in(tag_209)\n    tag_212:\n      pop\n        /* \"contracts/ddddd.sol\":4990:4996  _email */\n      dup4\n        /* \"contracts/ddddd.sol\":4980:4981  d */\n      dup2\n        /* \"contracts/ddddd.sol\":4980:4987  d.email */\n      0x5\n      add\n        /* \"contracts/ddddd.sol\":4980:4996  d.email = _email */\n      swap1\n      dup1\n      mload\n      swap1\n      0x20\n      add\n      swap1\n      tag_213\n      swap3\n      swap2\n      swap1\n      jump\t// in(tag_209)\n    tag_213:\n      pop\n        /* \"contracts/ddddd.sol\":5025:5039  _qualification */\n      dup3\n        /* \"contracts/ddddd.sol\":5007:5008  d */\n      dup2\n        /* \"contracts/ddddd.sol\":5007:5022  d.qualification */\n      0x6\n      add\n        /* \"contracts/ddddd.sol\":5007:5039  d.qualification = _qualification */\n      swap1\n      dup1\n      mload\n      swap1\n      0x20\n      add\n      swap1\n      tag_214\n      swap3\n      swap2\n      swap1\n      jump\t// in(tag_209)\n    tag_214:\n      pop\n        /* \"contracts/ddddd.sol\":5060:5066  _major */\n      dup2\n        /* \"contracts/ddddd.sol\":5050:5051  d */\n      dup2\n        /* \"contracts/ddddd.sol\":5050:5057  d.major */\n      0x7\n      add\n        /* \"contracts/ddddd.sol\":5050:5066  d.major = _major */\n      swap1\n      dup1\n      mload\n      swap1\n      0x20\n      add\n      swap1\n      tag_215\n      swap3\n      swap2\n      swap1\n      jump\t// in(tag_209)\n    tag_215:\n      pop\n        /* \"contracts/ddddd.sol\":5090:5097  _doctor */\n      dup9\n        /* \"contracts/ddddd.sol\":5077:5078  d */\n      dup2\n        /* \"contracts/ddddd.sol\":5077:5087  d.eAddress */\n      0x8\n      add\n      0x0\n        /* \"contracts/ddddd.sol\":5077:5097  d.eAddress = _doctor */\n      0x100\n      exp\n      dup2\n      sload\n      dup2\n      0xffffffffffffffffffffffffffffffffffffffff\n      mul\n      not\n      and\n      swap1\n      dup4\n      0xffffffffffffffffffffffffffffffffffffffff\n      and\n      mul\n      or\n      swap1\n      sstore\n      pop\n        /* \"contracts/ddddd.sol\":4580:5105  function editDoctor(address _doctor, string _uaeId, string _name, string _phone, string _gender, string _email, string _qualification, string _major) public {\r... */\n      pop\n      pop\n      pop\n      pop\n      pop\n      pop\n      pop\n      pop\n      pop\n      jump\t// out\n        /* \"contracts/ddddd.sol\":3805:4572  function doctorRegistration(address _doctor, string _uaeId, string _name, string _phone, string _gender, string _email, string _qualification, string _major) public {\r... */\n    tag_68:\n        /* \"contracts/ddddd.sol\":4062:4067  var d */\n      0x0\n        /* \"contracts/ddddd.sol\":4003:4012  mohAdress */\n      0x10\n      0x0\n      swap1\n      sload\n      swap1\n      0x100\n      exp\n      swap1\n      div\n      0xffffffffffffffffffffffffffffffffffffffff\n      and\n        /* \"contracts/ddddd.sol\":3989:4012  msg.sender == mohAdress */\n      0xffffffffffffffffffffffffffffffffffffffff\n      and\n        /* \"contracts/ddddd.sol\":3989:3999  msg.sender */\n      caller\n        /* \"contracts/ddddd.sol\":3989:4012  msg.sender == mohAdress */\n      0xffffffffffffffffffffffffffffffffffffffff\n      and\n      eq\n        /* \"contracts/ddddd.sol\":3981:4013  require(msg.sender == mohAdress) */\n      iszero\n      iszero\n      tag_217\n      jumpi\n      0x0\n      dup1\n      revert\n    tag_217:\n        /* \"contracts/ddddd.sol\":4033:4041  isDoctor */\n      0x9\n        /* \"contracts/ddddd.sol\":4033:4050  isDoctor[_doctor] */\n      0x0\n        /* \"contracts/ddddd.sol\":4042:4049  _doctor */\n      dup11\n        /* \"contracts/ddddd.sol\":4033:4050  isDoctor[_doctor] */\n      0xffffffffffffffffffffffffffffffffffffffff\n      and\n      0xffffffffffffffffffffffffffffffffffffffff\n      and\n      dup2\n      mstore\n      0x20\n      add\n      swap1\n      dup2\n      mstore\n      0x20\n      add\n      0x0\n      keccak256\n      0x0\n      swap1\n      sload\n      swap1\n      0x100\n      exp\n      swap1\n      div\n      0xff\n      and\n        /* \"contracts/ddddd.sol\":4032:4050  !isDoctor[_doctor] */\n      iszero\n        /* \"contracts/ddddd.sol\":4024:4051  require(!isDoctor[_doctor]) */\n      iszero\n      iszero\n      tag_218\n      jumpi\n      0x0\n      dup1\n      revert\n    tag_218:\n        /* \"contracts/ddddd.sol\":4070:4076  doctor */\n      0x5\n        /* \"contracts/ddddd.sol\":4070:4085  doctor[_doctor] */\n      0x0\n        /* \"contracts/ddddd.sol\":4077:4084  _doctor */\n      dup11\n        /* \"contracts/ddddd.sol\":4070:4085  doctor[_doctor] */\n      0xffffffffffffffffffffffffffffffffffffffff\n      and\n      0xffffffffffffffffffffffffffffffffffffffff\n      and\n      dup2\n      mstore\n      0x20\n      add\n      swap1\n      dup2\n      mstore\n      0x20\n      add\n      0x0\n      keccak256\n        /* \"contracts/ddddd.sol\":4062:4085  var d = doctor[_doctor] */\n      swap1\n      pop\n        /* \"contracts/ddddd.sol\":4116:4122  _uaeId */\n      dup8\n        /* \"contracts/ddddd.sol\":4106:4107  d */\n      dup2\n        /* \"contracts/ddddd.sol\":4106:4113  d.uaeId */\n      0x0\n      add\n        /* \"contracts/ddddd.sol\":4106:4122  d.uaeId = _uaeId */\n      swap1\n      dup1\n      mload\n      swap1\n      0x20\n      add\n      swap1\n      tag_219\n      swap3\n      swap2\n      swap1\n      jump\t// in(tag_209)\n    tag_219:\n      pop\n        /* \"contracts/ddddd.sol\":4142:4147  _name */\n      dup7\n        /* \"contracts/ddddd.sol\":4133:4134  d */\n      dup2\n        /* \"contracts/ddddd.sol\":4133:4139  d.name */\n      0x1\n      add\n        /* \"contracts/ddddd.sol\":4133:4147  d.name = _name */\n      swap1\n      dup1\n      mload\n      swap1\n      0x20\n      add\n      swap1\n      tag_220\n      swap3\n      swap2\n      swap1\n      jump\t// in(tag_209)\n    tag_220:\n      pop\n        /* \"contracts/ddddd.sol\":4168:4174  _phone */\n      dup6\n        /* \"contracts/ddddd.sol\":4158:4159  d */\n      dup2\n        /* \"contracts/ddddd.sol\":4158:4165  d.phone */\n      0x2\n      add\n        /* \"contracts/ddddd.sol\":4158:4174  d.phone = _phone */\n      swap1\n      dup1\n      mload\n      swap1\n      0x20\n      add\n      swap1\n      tag_221\n      swap3\n      swap2\n      swap1\n      jump\t// in(tag_209)\n    tag_221:\n      pop\n        /* \"contracts/ddddd.sol\":4196:4203  _gender */\n      dup5\n        /* \"contracts/ddddd.sol\":4185:4186  d */\n      dup2\n        /* \"contracts/ddddd.sol\":4185:4193  d.gender */\n      0x3\n      add\n        /* \"contracts/ddddd.sol\":4185:4203  d.gender = _gender */\n      swap1\n      dup1\n      mload\n      swap1\n      0x20\n      add\n      swap1\n      tag_222\n      swap3\n      swap2\n      swap1\n      jump\t// in(tag_209)\n    tag_222:\n      pop\n        /* \"contracts/ddddd.sol\":4224:4230  _email */\n      dup4\n        /* \"contracts/ddddd.sol\":4214:4215  d */\n      dup2\n        /* \"contracts/ddddd.sol\":4214:4221  d.email */\n      0x5\n      add\n        /* \"contracts/ddddd.sol\":4214:4230  d.email = _email */\n      swap1\n      dup1\n      mload\n      swap1\n      0x20\n      add\n      swap1\n      tag_223\n      swap3\n      swap2\n      swap1\n      jump\t// in(tag_209)\n    tag_223:\n      pop\n        /* \"contracts/ddddd.sol\":4259:4273  _qualification */\n      dup3\n        /* \"contracts/ddddd.sol\":4241:4242  d */\n      dup2\n        /* \"contracts/ddddd.sol\":4241:4256  d.qualification */\n      0x6\n      add\n        /* \"contracts/ddddd.sol\":4241:4273  d.qualification = _qualification */\n      swap1\n      dup1\n      mload\n      swap1\n      0x20\n      add\n      swap1\n      tag_224\n      swap3\n      swap2\n      swap1\n      jump\t// in(tag_209)\n    tag_224:\n      pop\n        /* \"contracts/ddddd.sol\":4294:4300  _major */\n      dup2\n        /* \"contracts/ddddd.sol\":4284:4285  d */\n      dup2\n        /* \"contracts/ddddd.sol\":4284:4291  d.major */\n      0x7\n      add\n        /* \"contracts/ddddd.sol\":4284:4300  d.major = _major */\n      swap1\n      dup1\n      mload\n      swap1\n      0x20\n      add\n      swap1\n      tag_225\n      swap3\n      swap2\n      swap1\n      jump\t// in(tag_209)\n    tag_225:\n      pop\n        /* \"contracts/ddddd.sol\":4324:4331  _doctor */\n      dup9\n        /* \"contracts/ddddd.sol\":4311:4312  d */\n      dup2\n        /* \"contracts/ddddd.sol\":4311:4321  d.eAddress */\n      0x8\n      add\n      0x0\n        /* \"contracts/ddddd.sol\":4311:4331  d.eAddress = _doctor */\n      0x100\n      exp\n      dup2\n      sload\n      dup2\n      0xffffffffffffffffffffffffffffffffffffffff\n      mul\n      not\n      and\n      swap1\n      dup4\n      0xffffffffffffffffffffffffffffffffffffffff\n      and\n      mul\n      or\n      swap1\n      sstore\n      pop\n        /* \"contracts/ddddd.sol\":4351:4366  block.timestamp */\n      timestamp\n        /* \"contracts/ddddd.sol\":4342:4343  d */\n      dup2\n        /* \"contracts/ddddd.sol\":4342:4348  d.date */\n      0x9\n      add\n        /* \"contracts/ddddd.sol\":4342:4366  d.date = block.timestamp */\n      dup2\n      swap1\n      sstore\n      pop\n        /* \"contracts/ddddd.sol\":4387:4397  doctorList */\n      0x2\n        /* \"contracts/ddddd.sol\":4403:4410  _doctor */\n      dup10\n        /* \"contracts/ddddd.sol\":4387:4411  doctorList.push(_doctor) */\n      swap1\n      dup1\n        /* \"--CODEGEN--\":39:40   */\n      0x1\n        /* \"--CODEGEN--\":33:36   */\n      dup2\n        /* \"--CODEGEN--\":27:37   */\n      sload\n        /* \"--CODEGEN--\":23:41   */\n      add\n        /* \"--CODEGEN--\":57:67   */\n      dup1\n        /* \"--CODEGEN--\":52:55   */\n      dup3\n        /* \"--CODEGEN--\":45:68   */\n      sstore\n        /* \"--CODEGEN--\":79:89   */\n      dup1\n        /* \"--CODEGEN--\":72:89   */\n      swap2\n      pop\n        /* \"--CODEGEN--\":0:93   */\n      pop\n        /* \"contracts/ddddd.sol\":4387:4411  doctorList.push(_doctor) */\n      swap1\n      0x1\n      dup3\n      sub\n      swap1\n      0x0\n      mstore\n      keccak256(0x0, 0x20)\n      add\n      0x0\n      swap1\n      swap2\n      swap3\n      swap1\n      swap2\n      swap1\n      swap2\n      0x100\n      exp\n      dup2\n      sload\n      dup2\n      0xffffffffffffffffffffffffffffffffffffffff\n      mul\n      not\n      and\n      swap1\n      dup4\n      0xffffffffffffffffffffffffffffffffffffffff\n      and\n      mul\n      or\n      swap1\n      sstore\n      pop\n      pop\n        /* \"contracts/ddddd.sol\":4442:4446  true */\n      0x1\n        /* \"contracts/ddddd.sol\":4422:4430  isDoctor */\n      0x9\n        /* \"contracts/ddddd.sol\":4422:4439  isDoctor[_doctor] */\n      0x0\n        /* \"contracts/ddddd.sol\":4431:4438  _doctor */\n      dup12\n        /* \"contracts/ddddd.sol\":4422:4439  isDoctor[_doctor] */\n      0xffffffffffffffffffffffffffffffffffffffff\n      and\n      0xffffffffffffffffffffffffffffffffffffffff\n      and\n      dup2\n      mstore\n      0x20\n      add\n      swap1\n      dup2\n      mstore\n      0x20\n      add\n      0x0\n      keccak256\n      0x0\n        /* \"contracts/ddddd.sol\":4422:4446  isDoctor[_doctor] = true */\n      0x100\n      exp\n      dup2\n      sload\n      dup2\n      0xff\n      mul\n      not\n      and\n      swap1\n      dup4\n      iszero\n      iszero\n      mul\n      or\n      swap1\n      sstore\n      pop\n        /* \"contracts/ddddd.sol\":4488:4492  true */\n      0x1\n        /* \"contracts/ddddd.sol\":4457:4467  isApproved */\n      0x7\n        /* \"contracts/ddddd.sol\":4457:4476  isApproved[_doctor] */\n      0x0\n        /* \"contracts/ddddd.sol\":4468:4475  _doctor */\n      dup12\n        /* \"contracts/ddddd.sol\":4457:4476  isApproved[_doctor] */\n      0xffffffffffffffffffffffffffffffffffffffff\n      and\n      0xffffffffffffffffffffffffffffffffffffffff\n      and\n      dup2\n      mstore\n      0x20\n      add\n      swap1\n      dup2\n      mstore\n      0x20\n      add\n      0x0\n      keccak256\n        /* \"contracts/ddddd.sol\":4457:4485  isApproved[_doctor][_doctor] */\n      0x0\n        /* \"contracts/ddddd.sol\":4477:4484  _doctor */\n      dup12\n        /* \"contracts/ddddd.sol\":4457:4485  isApproved[_doctor][_doctor] */\n      0xffffffffffffffffffffffffffffffffffffffff\n      and\n      0xffffffffffffffffffffffffffffffffffffffff\n      and\n      dup2\n      mstore\n      0x20\n      add\n      swap1\n      dup2\n      mstore\n      0x20\n      add\n      0x0\n      keccak256\n      0x0\n        /* \"contracts/ddddd.sol\":4457:4492  isApproved[_doctor][_doctor] = true */\n      0x100\n      exp\n      dup2\n      sload\n      dup2\n      0xff\n      mul\n      not\n      and\n      swap1\n      dup4\n      iszero\n      iszero\n      mul\n      or\n      swap1\n      sstore\n      pop\n        /* \"contracts/ddddd.sol\":4536:4540  true */\n      0x1\n        /* \"contracts/ddddd.sol\":4503:4513  isApproved */\n      0x7\n        /* \"contracts/ddddd.sol\":4503:4522  isApproved[_doctor] */\n      0x0\n        /* \"contracts/ddddd.sol\":4514:4521  _doctor */\n      dup12\n        /* \"contracts/ddddd.sol\":4503:4522  isApproved[_doctor] */\n      0xffffffffffffffffffffffffffffffffffffffff\n      and\n      0xffffffffffffffffffffffffffffffffffffffff\n      and\n      dup2\n      mstore\n      0x20\n      add\n      swap1\n      dup2\n      mstore\n      0x20\n      add\n      0x0\n      keccak256\n        /* \"contracts/ddddd.sol\":4503:4533  isApproved[_doctor][mohAdress] */\n      0x0\n        /* \"contracts/ddddd.sol\":4523:4532  mohAdress */\n      0x10\n      0x0\n      swap1\n      sload\n      swap1\n      0x100\n      exp\n      swap1\n      div\n      0xffffffffffffffffffffffffffffffffffffffff\n      and\n        /* \"contracts/ddddd.sol\":4503:4533  isApproved[_doctor][mohAdress] */\n      0xffffffffffffffffffffffffffffffffffffffff\n      and\n      0xffffffffffffffffffffffffffffffffffffffff\n      and\n      dup2\n      mstore\n      0x20\n      add\n      swap1\n      dup2\n      mstore\n      0x20\n      add\n      0x0\n      keccak256\n      0x0\n        /* \"contracts/ddddd.sol\":4503:4540  isApproved[_doctor][mohAdress] = true */\n      0x100\n      exp\n      dup2\n      sload\n      dup2\n      0xff\n      mul\n      not\n      and\n      swap1\n      dup4\n      iszero\n      iszero\n      mul\n      or\n      swap1\n      sstore\n      pop\n        /* \"contracts/ddddd.sol\":4551:4562  doctorCount */\n      0xc\n      0x0\n        /* \"contracts/ddddd.sol\":4551:4564  doctorCount++ */\n      dup2\n      sload\n      dup1\n      swap3\n      swap2\n      swap1\n      0x1\n      add\n      swap2\n      swap1\n      pop\n      sstore\n      pop\n        /* \"contracts/ddddd.sol\":3805:4572  function doctorRegistration(address _doctor, string _uaeId, string _name, string _phone, string _gender, string _email, string _qualification, string _major) public {\r... */\n      pop\n      pop\n      pop\n      pop\n      pop\n      pop\n      pop\n      pop\n      pop\n      jump\t// out\n        /* \"contracts/ddddd.sol\":6366:6557  function givePermissionByUser(address _address) public returns(bool success) {\r... */\n    tag_72:\n        /* \"contracts/ddddd.sol\":6429:6441  bool success */\n      0x0\n        /* \"contracts/ddddd.sol\":6489:6493  true */\n      0x1\n        /* \"contracts/ddddd.sol\":6454:6464  isApproved */\n      0x7\n        /* \"contracts/ddddd.sol\":6454:6476  isApproved[msg.sender] */\n      0x0\n        /* \"contracts/ddddd.sol\":6465:6475  msg.sender */\n      caller\n        /* \"contracts/ddddd.sol\":6454:6476  isApproved[msg.sender] */\n      0xffffffffffffffffffffffffffffffffffffffff\n      and\n      0xffffffffffffffffffffffffffffffffffffffff\n      and\n      dup2\n      mstore\n      0x20\n      add\n      swap1\n      dup2\n      mstore\n      0x20\n      add\n      0x0\n      keccak256\n        /* \"contracts/ddddd.sol\":6454:6486  isApproved[msg.sender][_address] */\n      0x0\n        /* \"contracts/ddddd.sol\":6477:6485  _address */\n      dup5\n        /* \"contracts/ddddd.sol\":6454:6486  isApproved[msg.sender][_address] */\n      0xffffffffffffffffffffffffffffffffffffffff\n      and\n      0xffffffffffffffffffffffffffffffffffffffff\n      and\n      dup2\n      mstore\n      0x20\n      add\n      swap1\n      dup2\n      mstore\n      0x20\n      add\n      0x0\n      keccak256\n      0x0\n        /* \"contracts/ddddd.sol\":6454:6493  isApproved[msg.sender][_address] = true */\n      0x100\n      exp\n      dup2\n      sload\n      dup2\n      0xff\n      mul\n      not\n      and\n      swap1\n      dup4\n      iszero\n      iszero\n      mul\n      or\n      swap1\n      sstore\n      pop\n        /* \"contracts/ddddd.sol\":6504:6525  userPermissionCounter */\n      0xe\n      0x0\n        /* \"contracts/ddddd.sol\":6504:6527  userPermissionCounter++ */\n      dup2\n      sload\n      dup1\n      swap3\n      swap2\n      swap1\n      0x1\n      add\n      swap2\n      swap1\n      pop\n      sstore\n      pop\n        /* \"contracts/ddddd.sol\":6545:6549  true */\n      0x1\n        /* \"contracts/ddddd.sol\":6538:6549  return true */\n      swap1\n      pop\n        /* \"contracts/ddddd.sol\":6366:6557  function givePermissionByUser(address _address) public returns(bool success) {\r... */\n      swap2\n      swap1\n      pop\n      jump\t// out\n        /* \"contracts/ddddd.sol\":5113:6020  function createVaccineRecord(address _address1, address _doctor, string _vaccine, string _description, string _typeOfVaccine, uint _creationDate) public returns(bool success) {\r... */\n    tag_79:\n        /* \"contracts/ddddd.sol\":5274:5286  bool success */\n      0x0\n        /* \"contracts/ddddd.sol\":5503:5508  var v */\n      dup1\n        /* \"contracts/ddddd.sol\":5321:5330  mohAdress */\n      0x10\n      0x0\n      swap1\n      sload\n      swap1\n      0x100\n      exp\n      swap1\n      div\n      0xffffffffffffffffffffffffffffffffffffffff\n      and\n        /* \"contracts/ddddd.sol\":5307:5330  msg.sender == mohAdress */\n      0xffffffffffffffffffffffffffffffffffffffff\n      and\n        /* \"contracts/ddddd.sol\":5307:5317  msg.sender */\n      caller\n        /* \"contracts/ddddd.sol\":5307:5330  msg.sender == mohAdress */\n      0xffffffffffffffffffffffffffffffffffffffff\n      and\n      eq\n        /* \"contracts/ddddd.sol\":5299:5331  require(msg.sender == mohAdress) */\n      iszero\n      iszero\n      tag_229\n      jumpi\n      0x0\n      dup1\n      revert\n    tag_229:\n        /* \"contracts/ddddd.sol\":5471:5480  isVaccine */\n      0xa\n        /* \"contracts/ddddd.sol\":5471:5491  isVaccine[_address1] */\n      0x0\n        /* \"contracts/ddddd.sol\":5481:5490  _address1 */\n      dup10\n        /* \"contracts/ddddd.sol\":5471:5491  isVaccine[_address1] */\n      0xffffffffffffffffffffffffffffffffffffffff\n      and\n      0xffffffffffffffffffffffffffffffffffffffff\n      and\n      dup2\n      mstore\n      0x20\n      add\n      swap1\n      dup2\n      mstore\n      0x20\n      add\n      0x0\n      keccak256\n      0x0\n      swap1\n      sload\n      swap1\n      0x100\n      exp\n      swap1\n      div\n      0xff\n      and\n        /* \"contracts/ddddd.sol\":5470:5491  !isVaccine[_address1] */\n      iszero\n        /* \"contracts/ddddd.sol\":5462:5492  require(!isVaccine[_address1]) */\n      iszero\n      iszero\n      tag_230\n      jumpi\n      0x0\n      dup1\n      revert\n    tag_230:\n        /* \"contracts/ddddd.sol\":5511:5522  vaccination */\n      0x6\n        /* \"contracts/ddddd.sol\":5511:5533  vaccination[_address1] */\n      0x0\n        /* \"contracts/ddddd.sol\":5523:5532  _address1 */\n      dup10\n        /* \"contracts/ddddd.sol\":5511:5533  vaccination[_address1] */\n      0xffffffffffffffffffffffffffffffffffffffff\n      and\n      0xffffffffffffffffffffffffffffffffffffffff\n      and\n      dup2\n      mstore\n      0x20\n      add\n      swap1\n      dup2\n      mstore\n      0x20\n      add\n      0x0\n      keccak256\n        /* \"contracts/ddddd.sol\":5503:5533  var v = vaccination[_address1] */\n      swap1\n      pop\n        /* \"contracts/ddddd.sol\":5612:5620  _vaccine */\n      dup6\n        /* \"contracts/ddddd.sol\":5600:5601  v */\n      dup2\n        /* \"contracts/ddddd.sol\":5600:5609  v.vaccine */\n      0x0\n      add\n        /* \"contracts/ddddd.sol\":5600:5620  v.vaccine = _vaccine */\n      swap1\n      dup1\n      mload\n      swap1\n      0x20\n      add\n      swap1\n      tag_231\n      swap3\n      swap2\n      swap1\n      jump\t// in(tag_209)\n    tag_231:\n      pop\n        /* \"contracts/ddddd.sol\":5647:5659  _description */\n      dup5\n        /* \"contracts/ddddd.sol\":5631:5632  v */\n      dup2\n        /* \"contracts/ddddd.sol\":5631:5644  v.description */\n      0x1\n      add\n        /* \"contracts/ddddd.sol\":5631:5659  v.description = _description */\n      swap1\n      dup1\n      mload\n      swap1\n      0x20\n      add\n      swap1\n      tag_232\n      swap3\n      swap2\n      swap1\n      jump\t// in(tag_209)\n    tag_232:\n      pop\n        /* \"contracts/ddddd.sol\":5688:5702  _typeOfVaccine */\n      dup4\n        /* \"contracts/ddddd.sol\":5670:5671  v */\n      dup2\n        /* \"contracts/ddddd.sol\":5670:5685  v.typeOfVaccine */\n      0x2\n      add\n        /* \"contracts/ddddd.sol\":5670:5702  v.typeOfVaccine = _typeOfVaccine */\n      swap1\n      dup1\n      mload\n      swap1\n      0x20\n      add\n      swap1\n      tag_233\n      swap3\n      swap2\n      swap1\n      jump\t// in(tag_209)\n    tag_233:\n      pop\n        /* \"contracts/ddddd.sol\":5843:5856  _creationDate */\n      dup3\n        /* \"contracts/ddddd.sol\":5826:5827  v */\n      dup2\n        /* \"contracts/ddddd.sol\":5826:5840  v.creationDate */\n      0x3\n      add\n        /* \"contracts/ddddd.sol\":5826:5856  v.creationDate = _creationDate */\n      dup2\n      swap1\n      sstore\n      pop\n        /* \"contracts/ddddd.sol\":5884:5893  _address1 */\n      dup8\n        /* \"contracts/ddddd.sol\":5867:5868  v */\n      dup2\n        /* \"contracts/ddddd.sol\":5867:5881  v.userEadderss */\n      0x4\n      add\n      0x0\n        /* \"contracts/ddddd.sol\":5867:5893  v.userEadderss = _address1 */\n      0x100\n      exp\n      dup2\n      sload\n      dup2\n      0xffffffffffffffffffffffffffffffffffffffff\n      mul\n      not\n      and\n      swap1\n      dup4\n      0xffffffffffffffffffffffffffffffffffffffff\n      and\n      mul\n      or\n      swap1\n      sstore\n      pop\n        /* \"contracts/ddddd.sol\":5923:5930  _doctor */\n      dup7\n        /* \"contracts/ddddd.sol\":5904:5905  v */\n      dup2\n        /* \"contracts/ddddd.sol\":5904:5920  v.doctorEaddress */\n      0x5\n      add\n      0x0\n        /* \"contracts/ddddd.sol\":5904:5930  v.doctorEaddress = _doctor */\n      0x100\n      exp\n      dup2\n      sload\n      dup2\n      0xffffffffffffffffffffffffffffffffffffffff\n      mul\n      not\n      and\n      swap1\n      dup4\n      0xffffffffffffffffffffffffffffffffffffffff\n      and\n      mul\n      or\n      swap1\n      sstore\n      pop\n        /* \"contracts/ddddd.sol\":5943:5958  vaccinationList */\n      0x3\n        /* \"contracts/ddddd.sol\":5964:5973  _address1 */\n      dup9\n        /* \"contracts/ddddd.sol\":5943:5974  vaccinationList.push(_address1) */\n      swap1\n      dup1\n        /* \"--CODEGEN--\":39:40   */\n      0x1\n        /* \"--CODEGEN--\":33:36   */\n      dup2\n        /* \"--CODEGEN--\":27:37   */\n      sload\n        /* \"--CODEGEN--\":23:41   */\n      add\n        /* \"--CODEGEN--\":57:67   */\n      dup1\n        /* \"--CODEGEN--\":52:55   */\n      dup3\n        /* \"--CODEGEN--\":45:68   */\n      sstore\n        /* \"--CODEGEN--\":79:89   */\n      dup1\n        /* \"--CODEGEN--\":72:89   */\n      swap2\n      pop\n        /* \"--CODEGEN--\":0:93   */\n      pop\n        /* \"contracts/ddddd.sol\":5943:5974  vaccinationList.push(_address1) */\n      swap1\n      0x1\n      dup3\n      sub\n      swap1\n      0x0\n      mstore\n      keccak256(0x0, 0x20)\n      add\n      0x0\n      swap1\n      swap2\n      swap3\n      swap1\n      swap2\n      swap1\n      swap2\n      0x100\n      exp\n      dup2\n      sload\n      dup2\n      0xffffffffffffffffffffffffffffffffffffffff\n      mul\n      not\n      and\n      swap1\n      dup4\n      0xffffffffffffffffffffffffffffffffffffffff\n      and\n      mul\n      or\n      swap1\n      sstore\n      pop\n      pop\n        /* \"contracts/ddddd.sol\":5985:6010  vaccinationRecordsCounter */\n      0xf\n      0x0\n        /* \"contracts/ddddd.sol\":5985:6012  vaccinationRecordsCounter++ */\n      dup2\n      sload\n      dup1\n      swap3\n      swap2\n      swap1\n      0x1\n      add\n      swap2\n      swap1\n      pop\n      sstore\n      pop\n        /* \"contracts/ddddd.sol\":5113:6020  function createVaccineRecord(address _address1, address _doctor, string _vaccine, string _description, string _typeOfVaccine, uint _creationDate) public returns(bool success) {\r... */\n      pop\n      swap7\n      swap6\n      pop\n      pop\n      pop\n      pop\n      pop\n      pop\n      jump\t// out\n        /* \"contracts/ddddd.sol\":6827:6985  function userRevokePermission(address _address) public returns(bool success) {\r... */\n    tag_84:\n        /* \"contracts/ddddd.sol\":6890:6902  bool success */\n      0x0\n        /* \"contracts/ddddd.sol\":6950:6955  false */\n      dup1\n        /* \"contracts/ddddd.sol\":6915:6925  isApproved */\n      0x7\n        /* \"contracts/ddddd.sol\":6915:6937  isApproved[msg.sender] */\n      0x0\n        /* \"contracts/ddddd.sol\":6926:6936  msg.sender */\n      caller\n        /* \"contracts/ddddd.sol\":6915:6937  isApproved[msg.sender] */\n      0xffffffffffffffffffffffffffffffffffffffff\n      and\n      0xffffffffffffffffffffffffffffffffffffffff\n      and\n      dup2\n      mstore\n      0x20\n      add\n      swap1\n      dup2\n      mstore\n      0x20\n      add\n      0x0\n      keccak256\n        /* \"contracts/ddddd.sol\":6915:6947  isApproved[msg.sender][_address] */\n      0x0\n        /* \"contracts/ddddd.sol\":6938:6946  _address */\n      dup5\n        /* \"contracts/ddddd.sol\":6915:6947  isApproved[msg.sender][_address] */\n      0xffffffffffffffffffffffffffffffffffffffff\n      and\n      0xffffffffffffffffffffffffffffffffffffffff\n      and\n      dup2\n      mstore\n      0x20\n      add\n      swap1\n      dup2\n      mstore\n      0x20\n      add\n      0x0\n      keccak256\n      0x0\n        /* \"contracts/ddddd.sol\":6915:6955  isApproved[msg.sender][_address] = false */\n      0x100\n      exp\n      dup2\n      sload\n      dup2\n      0xff\n      mul\n      not\n      and\n      swap1\n      dup4\n      iszero\n      iszero\n      mul\n      or\n      swap1\n      sstore\n      pop\n        /* \"contracts/ddddd.sol\":6973:6977  true */\n      0x1\n        /* \"contracts/ddddd.sol\":6966:6977  return true */\n      swap1\n      pop\n        /* \"contracts/ddddd.sol\":6827:6985  function userRevokePermission(address _address) public returns(bool success) {\r... */\n      swap2\n      swap1\n      pop\n      jump\t// out\n        /* \"contracts/ddddd.sol\":2055:3164  function userRegistration(address _user, string _uaeId, string _name, string _phone, string _gender, string _dob, string _addr, string _email, string _nomineeName, string _nomineeContact) public {\r... */\n    tag_90:\n        /* \"contracts/ddddd.sol\":2338:2343  var u */\n      0x0\n        /* \"contracts/ddddd.sol\":2283:2292  mohAdress */\n      0x10\n      0x0\n      swap1\n      sload\n      swap1\n      0x100\n      exp\n      swap1\n      div\n      0xffffffffffffffffffffffffffffffffffffffff\n      and\n        /* \"contracts/ddddd.sol\":2269:2292  msg.sender == mohAdress */\n      0xffffffffffffffffffffffffffffffffffffffff\n      and\n        /* \"contracts/ddddd.sol\":2269:2279  msg.sender */\n      caller\n        /* \"contracts/ddddd.sol\":2269:2292  msg.sender == mohAdress */\n      0xffffffffffffffffffffffffffffffffffffffff\n      and\n      eq\n        /* \"contracts/ddddd.sol\":2261:2293  require(msg.sender == mohAdress) */\n      iszero\n      iszero\n      tag_237\n      jumpi\n      0x0\n      dup1\n      revert\n    tag_237:\n        /* \"contracts/ddddd.sol\":2313:2319  isUser */\n      0x8\n        /* \"contracts/ddddd.sol\":2313:2326  isUser[_user] */\n      0x0\n        /* \"contracts/ddddd.sol\":2320:2325  _user */\n      dup13\n        /* \"contracts/ddddd.sol\":2313:2326  isUser[_user] */\n      0xffffffffffffffffffffffffffffffffffffffff\n      and\n      0xffffffffffffffffffffffffffffffffffffffff\n      and\n      dup2\n      mstore\n      0x20\n      add\n      swap1\n      dup2\n      mstore\n      0x20\n      add\n      0x0\n      keccak256\n      0x0\n      swap1\n      sload\n      swap1\n      0x100\n      exp\n      swap1\n      div\n      0xff\n      and\n        /* \"contracts/ddddd.sol\":2312:2326  !isUser[_user] */\n      iszero\n        /* \"contracts/ddddd.sol\":2304:2327  require(!isUser[_user]) */\n      iszero\n      iszero\n      tag_238\n      jumpi\n      0x0\n      dup1\n      revert\n    tag_238:\n        /* \"contracts/ddddd.sol\":2346:2350  user */\n      0x4\n        /* \"contracts/ddddd.sol\":2346:2357  user[_user] */\n      0x0\n        /* \"contracts/ddddd.sol\":2351:2356  _user */\n      dup13\n        /* \"contracts/ddddd.sol\":2346:2357  user[_user] */\n      0xffffffffffffffffffffffffffffffffffffffff\n      and\n      0xffffffffffffffffffffffffffffffffffffffff\n      and\n      dup2\n      mstore\n      0x20\n      add\n      swap1\n      dup2\n      mstore\n      0x20\n      add\n      0x0\n      keccak256\n        /* \"contracts/ddddd.sol\":2338:2357  var u = user[_user] */\n      swap1\n      pop\n        /* \"contracts/ddddd.sol\":2388:2394  _uaeId */\n      dup10\n        /* \"contracts/ddddd.sol\":2378:2379  u */\n      dup2\n        /* \"contracts/ddddd.sol\":2378:2385  u.uaeId */\n      0x0\n      add\n        /* \"contracts/ddddd.sol\":2378:2394  u.uaeId = _uaeId */\n      swap1\n      dup1\n      mload\n      swap1\n      0x20\n      add\n      swap1\n      tag_239\n      swap3\n      swap2\n      swap1\n      jump\t// in(tag_209)\n    tag_239:\n      pop\n        /* \"contracts/ddddd.sol\":2414:2419  _name */\n      dup9\n        /* \"contracts/ddddd.sol\":2405:2406  u */\n      dup2\n        /* \"contracts/ddddd.sol\":2405:2411  u.name */\n      0x1\n      add\n        /* \"contracts/ddddd.sol\":2405:2419  u.name = _name */\n      swap1\n      dup1\n      mload\n      swap1\n      0x20\n      add\n      swap1\n      tag_240\n      swap3\n      swap2\n      swap1\n      jump\t// in(tag_209)\n    tag_240:\n      pop\n        /* \"contracts/ddddd.sol\":2440:2446  _phone */\n      dup8\n        /* \"contracts/ddddd.sol\":2430:2431  u */\n      dup2\n        /* \"contracts/ddddd.sol\":2430:2437  u.phone */\n      0x2\n      add\n        /* \"contracts/ddddd.sol\":2430:2446  u.phone = _phone */\n      swap1\n      dup1\n      mload\n      swap1\n      0x20\n      add\n      swap1\n      tag_241\n      swap3\n      swap2\n      swap1\n      jump\t// in(tag_209)\n    tag_241:\n      pop\n        /* \"contracts/ddddd.sol\":2468:2475  _gender */\n      dup7\n        /* \"contracts/ddddd.sol\":2457:2458  u */\n      dup2\n        /* \"contracts/ddddd.sol\":2457:2465  u.gender */\n      0x3\n      add\n        /* \"contracts/ddddd.sol\":2457:2475  u.gender = _gender */\n      swap1\n      dup1\n      mload\n      swap1\n      0x20\n      add\n      swap1\n      tag_242\n      swap3\n      swap2\n      swap1\n      jump\t// in(tag_209)\n    tag_242:\n      pop\n        /* \"contracts/ddddd.sol\":2494:2498  _dob */\n      dup6\n        /* \"contracts/ddddd.sol\":2486:2487  u */\n      dup2\n        /* \"contracts/ddddd.sol\":2486:2491  u.dob */\n      0x4\n      add\n        /* \"contracts/ddddd.sol\":2486:2498  u.dob = _dob */\n      swap1\n      dup1\n      mload\n      swap1\n      0x20\n      add\n      swap1\n      tag_243\n      swap3\n      swap2\n      swap1\n      jump\t// in(tag_209)\n    tag_243:\n      pop\n        /* \"contracts/ddddd.sol\":2518:2523  _addr */\n      dup5\n        /* \"contracts/ddddd.sol\":2509:2510  u */\n      dup2\n        /* \"contracts/ddddd.sol\":2509:2515  u.addr */\n      0x5\n      add\n        /* \"contracts/ddddd.sol\":2509:2523  u.addr = _addr */\n      swap1\n      dup1\n      mload\n      swap1\n      0x20\n      add\n      swap1\n      tag_244\n      swap3\n      swap2\n      swap1\n      jump\t// in(tag_209)\n    tag_244:\n      pop\n        /* \"contracts/ddddd.sol\":2544:2550  _email */\n      dup4\n        /* \"contracts/ddddd.sol\":2534:2535  u */\n      dup2\n        /* \"contracts/ddddd.sol\":2534:2541  u.email */\n      0x6\n      add\n        /* \"contracts/ddddd.sol\":2534:2550  u.email = _email */\n      swap1\n      dup1\n      mload\n      swap1\n      0x20\n      add\n      swap1\n      tag_245\n      swap3\n      swap2\n      swap1\n      jump\t// in(tag_209)\n    tag_245:\n      pop\n        /* \"contracts/ddddd.sol\":2577:2589  _nomineeName */\n      dup3\n        /* \"contracts/ddddd.sol\":2561:2562  u */\n      dup2\n        /* \"contracts/ddddd.sol\":2561:2574  u.nomineeName */\n      0x7\n      add\n        /* \"contracts/ddddd.sol\":2561:2589  u.nomineeName = _nomineeName */\n      swap1\n      dup1\n      mload\n      swap1\n      0x20\n      add\n      swap1\n      tag_246\n      swap3\n      swap2\n      swap1\n      jump\t// in(tag_209)\n    tag_246:\n      pop\n        /* \"contracts/ddddd.sol\":2619:2634  _nomineeContact */\n      dup2\n        /* \"contracts/ddddd.sol\":2600:2601  u */\n      dup2\n        /* \"contracts/ddddd.sol\":2600:2616  u.nomineeContact */\n      0x8\n      add\n        /* \"contracts/ddddd.sol\":2600:2634  u.nomineeContact = _nomineeContact */\n      swap1\n      dup1\n      mload\n      swap1\n      0x20\n      add\n      swap1\n      tag_247\n      swap3\n      swap2\n      swap1\n      jump\t// in(tag_209)\n    tag_247:\n      pop\n        /* \"contracts/ddddd.sol\":2658:2663  _user */\n      dup11\n        /* \"contracts/ddddd.sol\":2645:2646  u */\n      dup2\n        /* \"contracts/ddddd.sol\":2645:2655  u.eAddress */\n      0x9\n      add\n      0x0\n        /* \"contracts/ddddd.sol\":2645:2663  u.eAddress = _user */\n      0x100\n      exp\n      dup2\n      sload\n      dup2\n      0xffffffffffffffffffffffffffffffffffffffff\n      mul\n      not\n      and\n      swap1\n      dup4\n      0xffffffffffffffffffffffffffffffffffffffff\n      and\n      mul\n      or\n      swap1\n      sstore\n      pop\n        /* \"contracts/ddddd.sol\":2683:2698  block.timestamp */\n      timestamp\n        /* \"contracts/ddddd.sol\":2674:2675  u */\n      dup2\n        /* \"contracts/ddddd.sol\":2674:2680  u.date */\n      0xa\n      add\n        /* \"contracts/ddddd.sol\":2674:2698  u.date = block.timestamp */\n      dup2\n      swap1\n      sstore\n      pop\n        /* \"contracts/ddddd.sol\":2719:2727  userList */\n      0x1\n        /* \"contracts/ddddd.sol\":2733:2738  _user */\n      dup12\n        /* \"contracts/ddddd.sol\":2719:2739  userList.push(_user) */\n      swap1\n      dup1\n        /* \"--CODEGEN--\":39:40   */\n      0x1\n        /* \"--CODEGEN--\":33:36   */\n      dup2\n        /* \"--CODEGEN--\":27:37   */\n      sload\n        /* \"--CODEGEN--\":23:41   */\n      add\n        /* \"--CODEGEN--\":57:67   */\n      dup1\n        /* \"--CODEGEN--\":52:55   */\n      dup3\n        /* \"--CODEGEN--\":45:68   */\n      sstore\n        /* \"--CODEGEN--\":79:89   */\n      dup1\n        /* \"--CODEGEN--\":72:89   */\n      swap2\n      pop\n        /* \"--CODEGEN--\":0:93   */\n      pop\n        /* \"contracts/ddddd.sol\":2719:2739  userList.push(_user) */\n      swap1\n      0x1\n      dup3\n      sub\n      swap1\n      0x0\n      mstore\n      keccak256(0x0, 0x20)\n      add\n      0x0\n      swap1\n      swap2\n      swap3\n      swap1\n      swap2\n      swap1\n      swap2\n      0x100\n      exp\n      dup2\n      sload\n      dup2\n      0xffffffffffffffffffffffffffffffffffffffff\n      mul\n      not\n      and\n      swap1\n      dup4\n      0xffffffffffffffffffffffffffffffffffffffff\n      and\n      mul\n      or\n      swap1\n      sstore\n      pop\n      pop\n        /* \"contracts/ddddd.sol\":2766:2770  true */\n      0x1\n        /* \"contracts/ddddd.sol\":2750:2756  isUser */\n      0x8\n        /* \"contracts/ddddd.sol\":2750:2763  isUser[_user] */\n      0x0\n        /* \"contracts/ddddd.sol\":2757:2762  _user */\n      dup14\n        /* \"contracts/ddddd.sol\":2750:2763  isUser[_user] */\n      0xffffffffffffffffffffffffffffffffffffffff\n      and\n      0xffffffffffffffffffffffffffffffffffffffff\n      and\n      dup2\n      mstore\n      0x20\n      add\n      swap1\n      dup2\n      mstore\n      0x20\n      add\n      0x0\n      keccak256\n      0x0\n        /* \"contracts/ddddd.sol\":2750:2770  isUser[_user] = true */\n      0x100\n      exp\n      dup2\n      sload\n      dup2\n      0xff\n      mul\n      not\n      and\n      swap1\n      dup4\n      iszero\n      iszero\n      mul\n      or\n      swap1\n      sstore\n      pop\n        /* \"contracts/ddddd.sol\":2808:2812  true */\n      0x1\n        /* \"contracts/ddddd.sol\":2781:2791  isApproved */\n      0x7\n        /* \"contracts/ddddd.sol\":2781:2798  isApproved[_user] */\n      0x0\n        /* \"contracts/ddddd.sol\":2792:2797  _user */\n      dup14\n        /* \"contracts/ddddd.sol\":2781:2798  isApproved[_user] */\n      0xffffffffffffffffffffffffffffffffffffffff\n      and\n      0xffffffffffffffffffffffffffffffffffffffff\n      and\n      dup2\n      mstore\n      0x20\n      add\n      swap1\n      dup2\n      mstore\n      0x20\n      add\n      0x0\n      keccak256\n        /* \"contracts/ddddd.sol\":2781:2805  isApproved[_user][_user] */\n      0x0\n        /* \"contracts/ddddd.sol\":2799:2804  _user */\n      dup14\n        /* \"contracts/ddddd.sol\":2781:2805  isApproved[_user][_user] */\n      0xffffffffffffffffffffffffffffffffffffffff\n      and\n      0xffffffffffffffffffffffffffffffffffffffff\n      and\n      dup2\n      mstore\n      0x20\n      add\n      swap1\n      dup2\n      mstore\n      0x20\n      add\n      0x0\n      keccak256\n      0x0\n        /* \"contracts/ddddd.sol\":2781:2812  isApproved[_user][_user] = true */\n      0x100\n      exp\n      dup2\n      sload\n      dup2\n      0xff\n      mul\n      not\n      and\n      swap1\n      dup4\n      iszero\n      iszero\n      mul\n      or\n      swap1\n      sstore\n      pop\n        /* \"contracts/ddddd.sol\":2854:2858  true */\n      0x1\n        /* \"contracts/ddddd.sol\":2823:2833  isApproved */\n      0x7\n        /* \"contracts/ddddd.sol\":2823:2840  isApproved[_user] */\n      0x0\n        /* \"contracts/ddddd.sol\":2834:2839  _user */\n      dup14\n        /* \"contracts/ddddd.sol\":2823:2840  isApproved[_user] */\n      0xffffffffffffffffffffffffffffffffffffffff\n      and\n      0xffffffffffffffffffffffffffffffffffffffff\n      and\n      dup2\n      mstore\n      0x20\n      add\n      swap1\n      dup2\n      mstore\n      0x20\n      add\n      0x0\n      keccak256\n        /* \"contracts/ddddd.sol\":2823:2851  isApproved[_user][mohAdress] */\n      0x0\n        /* \"contracts/ddddd.sol\":2841:2850  mohAdress */\n      0x10\n      0x0\n      swap1\n      sload\n      swap1\n      0x100\n      exp\n      swap1\n      div\n      0xffffffffffffffffffffffffffffffffffffffff\n      and\n        /* \"contracts/ddddd.sol\":2823:2851  isApproved[_user][mohAdress] */\n      0xffffffffffffffffffffffffffffffffffffffff\n      and\n      0xffffffffffffffffffffffffffffffffffffffff\n      and\n      dup2\n      mstore\n      0x20\n      add\n      swap1\n      dup2\n      mstore\n      0x20\n      add\n      0x0\n      keccak256\n      0x0\n        /* \"contracts/ddddd.sol\":2823:2858  isApproved[_user][mohAdress] = true */\n      0x100\n      exp\n      dup2\n      sload\n      dup2\n      0xff\n      mul\n      not\n      and\n      swap1\n      dup4\n      iszero\n      iszero\n      mul\n      or\n      swap1\n      sstore\n      pop\n        /* \"contracts/ddddd.sol\":2869:2878  userCount */\n      0xb\n      0x0\n        /* \"contracts/ddddd.sol\":2869:2880  userCount++ */\n      dup2\n      sload\n      dup1\n      swap3\n      swap2\n      swap1\n      0x1\n      add\n      swap2\n      swap1\n      pop\n      sstore\n      pop\n        /* \"contracts/ddddd.sol\":2055:3164  function userRegistration(address _user, string _uaeId, string _name, string _phone, string _gender, string _dob, string _addr, string _email, string _nomineeName, string _nomineeContact) public {\r... */\n      pop\n      pop\n      pop\n      pop\n      pop\n      pop\n      pop\n      pop\n      pop\n      pop\n      pop\n      jump\t// out\n        /* \"contracts/ddddd.sol\":3188:3797  function editUser(address _user, string _uaeId, string _name, string _phone, string _gender, string _dob, string _addr, string _email, string _nomineeName, string _nomineeContact) public {\r... */\n    tag_94:\n        /* \"contracts/ddddd.sol\":3462:3467  var u */\n      0x0\n        /* \"contracts/ddddd.sol\":3408:3417  mohAdress */\n      0x10\n      0x0\n      swap1\n      sload\n      swap1\n      0x100\n      exp\n      swap1\n      div\n      0xffffffffffffffffffffffffffffffffffffffff\n      and\n        /* \"contracts/ddddd.sol\":3394:3417  msg.sender == mohAdress */\n      0xffffffffffffffffffffffffffffffffffffffff\n      and\n        /* \"contracts/ddddd.sol\":3394:3404  msg.sender */\n      caller\n        /* \"contracts/ddddd.sol\":3394:3417  msg.sender == mohAdress */\n      0xffffffffffffffffffffffffffffffffffffffff\n      and\n      eq\n        /* \"contracts/ddddd.sol\":3386:3418  require(msg.sender == mohAdress) */\n      iszero\n      iszero\n      tag_250\n      jumpi\n      0x0\n      dup1\n      revert\n    tag_250:\n        /* \"contracts/ddddd.sol\":3437:3443  isUser */\n      0x8\n        /* \"contracts/ddddd.sol\":3437:3450  isUser[_user] */\n      0x0\n        /* \"contracts/ddddd.sol\":3444:3449  _user */\n      dup13\n        /* \"contracts/ddddd.sol\":3437:3450  isUser[_user] */\n      0xffffffffffffffffffffffffffffffffffffffff\n      and\n      0xffffffffffffffffffffffffffffffffffffffff\n      and\n      dup2\n      mstore\n      0x20\n      add\n      swap1\n      dup2\n      mstore\n      0x20\n      add\n      0x0\n      keccak256\n      0x0\n      swap1\n      sload\n      swap1\n      0x100\n      exp\n      swap1\n      div\n      0xff\n      and\n        /* \"contracts/ddddd.sol\":3429:3451  require(isUser[_user]) */\n      iszero\n      iszero\n      tag_251\n      jumpi\n      0x0\n      dup1\n      revert\n    tag_251:\n        /* \"contracts/ddddd.sol\":3470:3474  user */\n      0x4\n        /* \"contracts/ddddd.sol\":3470:3481  user[_user] */\n      0x0\n        /* \"contracts/ddddd.sol\":3475:3480  _user */\n      dup13\n        /* \"contracts/ddddd.sol\":3470:3481  user[_user] */\n      0xffffffffffffffffffffffffffffffffffffffff\n      and\n      0xffffffffffffffffffffffffffffffffffffffff\n      and\n      dup2\n      mstore\n      0x20\n      add\n      swap1\n      dup2\n      mstore\n      0x20\n      add\n      0x0\n      keccak256\n        /* \"contracts/ddddd.sol\":3462:3481  var u = user[_user] */\n      swap1\n      pop\n        /* \"contracts/ddddd.sol\":3512:3518  _uaeId */\n      dup10\n        /* \"contracts/ddddd.sol\":3502:3503  u */\n      dup2\n        /* \"contracts/ddddd.sol\":3502:3509  u.uaeId */\n      0x0\n      add\n        /* \"contracts/ddddd.sol\":3502:3518  u.uaeId = _uaeId */\n      swap1\n      dup1\n      mload\n      swap1\n      0x20\n      add\n      swap1\n      tag_252\n      swap3\n      swap2\n      swap1\n      jump\t// in(tag_209)\n    tag_252:\n      pop\n        /* \"contracts/ddddd.sol\":3538:3543  _name */\n      dup9\n        /* \"contracts/ddddd.sol\":3529:3530  u */\n      dup2\n        /* \"contracts/ddddd.sol\":3529:3535  u.name */\n      0x1\n      add\n        /* \"contracts/ddddd.sol\":3529:3543  u.name = _name */\n      swap1\n      dup1\n      mload\n      swap1\n      0x20\n      add\n      swap1\n      tag_253\n      swap3\n      swap2\n      swap1\n      jump\t// in(tag_209)\n    tag_253:\n      pop\n        /* \"contracts/ddddd.sol\":3564:3570  _phone */\n      dup8\n        /* \"contracts/ddddd.sol\":3554:3555  u */\n      dup2\n        /* \"contracts/ddddd.sol\":3554:3561  u.phone */\n      0x2\n      add\n        /* \"contracts/ddddd.sol\":3554:3570  u.phone = _phone */\n      swap1\n      dup1\n      mload\n      swap1\n      0x20\n      add\n      swap1\n      tag_254\n      swap3\n      swap2\n      swap1\n      jump\t// in(tag_209)\n    tag_254:\n      pop\n        /* \"contracts/ddddd.sol\":3592:3599  _gender */\n      dup7\n        /* \"contracts/ddddd.sol\":3581:3582  u */\n      dup2\n        /* \"contracts/ddddd.sol\":3581:3589  u.gender */\n      0x3\n      add\n        /* \"contracts/ddddd.sol\":3581:3599  u.gender = _gender */\n      swap1\n      dup1\n      mload\n      swap1\n      0x20\n      add\n      swap1\n      tag_255\n      swap3\n      swap2\n      swap1\n      jump\t// in(tag_209)\n    tag_255:\n      pop\n        /* \"contracts/ddddd.sol\":3618:3622  _dob */\n      dup6\n        /* \"contracts/ddddd.sol\":3610:3611  u */\n      dup2\n        /* \"contracts/ddddd.sol\":3610:3615  u.dob */\n      0x4\n      add\n        /* \"contracts/ddddd.sol\":3610:3622  u.dob = _dob */\n      swap1\n      dup1\n      mload\n      swap1\n      0x20\n      add\n      swap1\n      tag_256\n      swap3\n      swap2\n      swap1\n      jump\t// in(tag_209)\n    tag_256:\n      pop\n        /* \"contracts/ddddd.sol\":3642:3647  _addr */\n      dup5\n        /* \"contracts/ddddd.sol\":3633:3634  u */\n      dup2\n        /* \"contracts/ddddd.sol\":3633:3639  u.addr */\n      0x5\n      add\n        /* \"contracts/ddddd.sol\":3633:3647  u.addr = _addr */\n      swap1\n      dup1\n      mload\n      swap1\n      0x20\n      add\n      swap1\n      tag_257\n      swap3\n      swap2\n      swap1\n      jump\t// in(tag_209)\n    tag_257:\n      pop\n        /* \"contracts/ddddd.sol\":3668:3674  _email */\n      dup4\n        /* \"contracts/ddddd.sol\":3658:3659  u */\n      dup2\n        /* \"contracts/ddddd.sol\":3658:3665  u.email */\n      0x6\n      add\n        /* \"contracts/ddddd.sol\":3658:3674  u.email = _email */\n      swap1\n      dup1\n      mload\n      swap1\n      0x20\n      add\n      swap1\n      tag_258\n      swap3\n      swap2\n      swap1\n      jump\t// in(tag_209)\n    tag_258:\n      pop\n        /* \"contracts/ddddd.sol\":3701:3713  _nomineeName */\n      dup3\n        /* \"contracts/ddddd.sol\":3685:3686  u */\n      dup2\n        /* \"contracts/ddddd.sol\":3685:3698  u.nomineeName */\n      0x7\n      add\n        /* \"contracts/ddddd.sol\":3685:3713  u.nomineeName = _nomineeName */\n      swap1\n      dup1\n      mload\n      swap1\n      0x20\n      add\n      swap1\n      tag_259\n      swap3\n      swap2\n      swap1\n      jump\t// in(tag_209)\n    tag_259:\n      pop\n        /* \"contracts/ddddd.sol\":3743:3758  _nomineeContact */\n      dup2\n        /* \"contracts/ddddd.sol\":3724:3725  u */\n      dup2\n        /* \"contracts/ddddd.sol\":3724:3740  u.nomineeContact */\n      0x8\n      add\n        /* \"contracts/ddddd.sol\":3724:3758  u.nomineeContact = _nomineeContact */\n      swap1\n      dup1\n      mload\n      swap1\n      0x20\n      add\n      swap1\n      tag_260\n      swap3\n      swap2\n      swap1\n      jump\t// in(tag_209)\n    tag_260:\n      pop\n        /* \"contracts/ddddd.sol\":3782:3787  _user */\n      dup11\n        /* \"contracts/ddddd.sol\":3769:3770  u */\n      dup2\n        /* \"contracts/ddddd.sol\":3769:3779  u.eAddress */\n      0x9\n      add\n      0x0\n        /* \"contracts/ddddd.sol\":3769:3787  u.eAddress = _user */\n      0x100\n      exp\n      dup2\n      sload\n      dup2\n      0xffffffffffffffffffffffffffffffffffffffff\n      mul\n      not\n      and\n      swap1\n      dup4\n      0xffffffffffffffffffffffffffffffffffffffff\n      and\n      mul\n      or\n      swap1\n      sstore\n      pop\n        /* \"contracts/ddddd.sol\":3188:3797  function editUser(address _user, string _uaeId, string _name, string _phone, string _gender, string _dob, string _addr, string _email, string _nomineeName, string _nomineeContact) public {\r... */\n      pop\n      pop\n      pop\n      pop\n      pop\n      pop\n      pop\n      pop\n      pop\n      pop\n      pop\n      jump\t// out\n        /* \"contracts/ddddd.sol\":1670:1700  uint256 public doctorCount = 0 */\n    tag_97:\n      sload(0xc)\n      dup2\n      jump\t// out\n        /* \"contracts/ddddd.sol\":8595:8687  function getDoctorCount() public view returns(uint256) {\r... */\n    tag_101:\n        /* \"contracts/ddddd.sol\":8641:8648  uint256 */\n      0x0\n        /* \"contracts/ddddd.sol\":8668:8679  doctorCount */\n      sload(0xc)\n        /* \"contracts/ddddd.sol\":8661:8679  return doctorCount */\n      swap1\n      pop\n        /* \"contracts/ddddd.sol\":8595:8687  function getDoctorCount() public view returns(uint256) {\r... */\n      swap1\n      jump\t// out\n        /* \"contracts/ddddd.sol\":8939:9245  function checkDoctor(address _address) public view returns(bool success) {\r... */\n    tag_106:\n        /* \"contracts/ddddd.sol\":8998:9010  bool success */\n      0x0\n        /* \"contracts/ddddd.sol\":9028:9034  uint i */\n      dup1\n        /* \"contracts/ddddd.sol\":9037:9038  0 */\n      0x0\n        /* \"contracts/ddddd.sol\":9028:9038  uint i = 0 */\n      swap1\n      pop\n        /* \"contracts/ddddd.sol\":9044:9054  doctorList */\n      0x2\n        /* \"contracts/ddddd.sol\":9044:9061  doctorList.length */\n      dup1\n      sload\n      swap1\n      pop\n        /* \"contracts/ddddd.sol\":9040:9041  i */\n      dup2\n        /* \"contracts/ddddd.sol\":9040:9061  i < doctorList.length */\n      lt\n        /* \"contracts/ddddd.sol\":9023:9238  for (uint i = 0; i < doctorList.length; i++) {\r... */\n      iszero\n      tag_264\n      jumpi\n        /* \"contracts/ddddd.sol\":9109:9113  true */\n      0x1\n        /* \"contracts/ddddd.sol\":9087:9113  isDoctor[_address] == true */\n      iszero\n      iszero\n        /* \"contracts/ddddd.sol\":9087:9095  isDoctor */\n      0x9\n        /* \"contracts/ddddd.sol\":9087:9105  isDoctor[_address] */\n      0x0\n        /* \"contracts/ddddd.sol\":9096:9104  _address */\n      dup6\n        /* \"contracts/ddddd.sol\":9087:9105  isDoctor[_address] */\n      0xffffffffffffffffffffffffffffffffffffffff\n      and\n      0xffffffffffffffffffffffffffffffffffffffff\n      and\n      dup2\n      mstore\n      0x20\n      add\n      swap1\n      dup2\n      mstore\n      0x20\n      add\n      0x0\n      keccak256\n      0x0\n      swap1\n      sload\n      swap1\n      0x100\n      exp\n      swap1\n      div\n      0xff\n      and\n        /* \"contracts/ddddd.sol\":9087:9113  isDoctor[_address] == true */\n      iszero\n      iszero\n      eq\n        /* \"contracts/ddddd.sol\":9083:9227  if (isDoctor[_address] == true) {\r... */\n      iszero\n      tag_266\n      jumpi\n        /* \"contracts/ddddd.sol\":9141:9145  true */\n      0x1\n        /* \"contracts/ddddd.sol\":9134:9145  return true */\n      swap2\n      pop\n      jump(tag_262)\n        /* \"contracts/ddddd.sol\":9083:9227  if (isDoctor[_address] == true) {\r... */\n    tag_266:\n        /* \"contracts/ddddd.sol\":9206:9211  false */\n      0x0\n        /* \"contracts/ddddd.sol\":9199:9211  return false */\n      swap2\n      pop\n      jump(tag_262)\n        /* \"contracts/ddddd.sol\":9023:9238  for (uint i = 0; i < doctorList.length; i++) {\r... */\n    tag_264:\n        /* \"contracts/ddddd.sol\":8939:9245  function checkDoctor(address _address) public view returns(bool success) {\r... */\n    tag_262:\n      pop\n      swap2\n      swap1\n      pop\n      jump\t// out\n        /* \"contracts/ddddd.sol\":6028:6356  function getVaccinationInfo(address _address) public view returns(string, string, string, uint256, address, address) {\r... */\n    tag_111:\n        /* \"contracts/ddddd.sol\":6094:6100  string */\n      0x60\n        /* \"contracts/ddddd.sol\":6102:6108  string */\n      dup1\n        /* \"contracts/ddddd.sol\":6110:6116  string */\n      0x60\n        /* \"contracts/ddddd.sol\":6118:6125  uint256 */\n      0x0\n        /* \"contracts/ddddd.sol\":6127:6134  address */\n      dup1\n        /* \"contracts/ddddd.sol\":6136:6143  address */\n      0x0\n        /* \"contracts/ddddd.sol\":6208:6213  var v */\n      dup1\n        /* \"contracts/ddddd.sol\":6164:6174  isApproved */\n      0x7\n        /* \"contracts/ddddd.sol\":6164:6184  isApproved[_address] */\n      0x0\n        /* \"contracts/ddddd.sol\":6175:6183  _address */\n      dup10\n        /* \"contracts/ddddd.sol\":6164:6184  isApproved[_address] */\n      0xffffffffffffffffffffffffffffffffffffffff\n      and\n      0xffffffffffffffffffffffffffffffffffffffff\n      and\n      dup2\n      mstore\n      0x20\n      add\n      swap1\n      dup2\n      mstore\n      0x20\n      add\n      0x0\n      keccak256\n        /* \"contracts/ddddd.sol\":6164:6196  isApproved[_address][msg.sender] */\n      0x0\n        /* \"contracts/ddddd.sol\":6185:6195  msg.sender */\n      caller\n        /* \"contracts/ddddd.sol\":6164:6196  isApproved[_address][msg.sender] */\n      0xffffffffffffffffffffffffffffffffffffffff\n      and\n      0xffffffffffffffffffffffffffffffffffffffff\n      and\n      dup2\n      mstore\n      0x20\n      add\n      swap1\n      dup2\n      mstore\n      0x20\n      add\n      0x0\n      keccak256\n      0x0\n      swap1\n      sload\n      swap1\n      0x100\n      exp\n      swap1\n      div\n      0xff\n      and\n        /* \"contracts/ddddd.sol\":6156:6197  require(isApproved[_address][msg.sender]) */\n      iszero\n      iszero\n      tag_269\n      jumpi\n      0x0\n      dup1\n      revert\n    tag_269:\n        /* \"contracts/ddddd.sol\":6216:6227  vaccination */\n      0x6\n        /* \"contracts/ddddd.sol\":6216:6237  vaccination[_address] */\n      0x0\n        /* \"contracts/ddddd.sol\":6228:6236  _address */\n      dup10\n        /* \"contracts/ddddd.sol\":6216:6237  vaccination[_address] */\n      0xffffffffffffffffffffffffffffffffffffffff\n      and\n      0xffffffffffffffffffffffffffffffffffffffff\n      and\n      dup2\n      mstore\n      0x20\n      add\n      swap1\n      dup2\n      mstore\n      0x20\n      add\n      0x0\n      keccak256\n        /* \"contracts/ddddd.sol\":6208:6237  var v = vaccination[_address] */\n      swap1\n      pop\n        /* \"contracts/ddddd.sol\":6256:6257  v */\n      dup1\n        /* \"contracts/ddddd.sol\":6256:6265  v.vaccine */\n      0x0\n      add\n        /* \"contracts/ddddd.sol\":6267:6268  v */\n      dup2\n        /* \"contracts/ddddd.sol\":6267:6280  v.description */\n      0x1\n      add\n        /* \"contracts/ddddd.sol\":6282:6283  v */\n      dup3\n        /* \"contracts/ddddd.sol\":6282:6297  v.typeOfVaccine */\n      0x2\n      add\n        /* \"contracts/ddddd.sol\":6299:6300  v */\n      dup4\n        /* \"contracts/ddddd.sol\":6299:6313  v.creationDate */\n      0x3\n      add\n      sload\n        /* \"contracts/ddddd.sol\":6315:6316  v */\n      dup5\n        /* \"contracts/ddddd.sol\":6315:6329  v.userEadderss */\n      0x4\n      add\n      0x0\n      swap1\n      sload\n      swap1\n      0x100\n      exp\n      swap1\n      div\n      0xffffffffffffffffffffffffffffffffffffffff\n      and\n        /* \"contracts/ddddd.sol\":6331:6332  v */\n      dup6\n        /* \"contracts/ddddd.sol\":6331:6347  v.doctorEaddress */\n      0x5\n      add\n      0x0\n      swap1\n      sload\n      swap1\n      0x100\n      exp\n      swap1\n      div\n      0xffffffffffffffffffffffffffffffffffffffff\n      and\n        /* \"contracts/ddddd.sol\":6248:6348  return (v.vaccine, v.description, v.typeOfVaccine, v.creationDate, v.userEadderss, v.doctorEaddress) */\n      dup6\n      dup1\n      sload\n      0x1\n      dup2\n      0x1\n      and\n      iszero\n      0x100\n      mul\n      sub\n      and\n      0x2\n      swap1\n      div\n      dup1\n      0x1f\n      add\n      0x20\n      dup1\n      swap2\n      div\n      mul\n      0x20\n      add\n      mload(0x40)\n      swap1\n      dup2\n      add\n      0x40\n      mstore\n      dup1\n      swap3\n      swap2\n      swap1\n      dup2\n      dup2\n      mstore\n      0x20\n      add\n      dup3\n      dup1\n      sload\n      0x1\n      dup2\n      0x1\n      and\n      iszero\n      0x100\n      mul\n      sub\n      and\n      0x2\n      swap1\n      div\n      dup1\n      iszero\n      tag_270\n      jumpi\n      dup1\n      0x1f\n      lt\n      tag_271\n      jumpi\n      0x100\n      dup1\n      dup4\n      sload\n      div\n      mul\n      dup4\n      mstore\n      swap2\n      0x20\n      add\n      swap2\n      jump(tag_270)\n    tag_271:\n      dup3\n      add\n      swap2\n      swap1\n      0x0\n      mstore\n      keccak256(0x0, 0x20)\n      swap1\n    tag_272:\n      dup2\n      sload\n      dup2\n      mstore\n      swap1\n      0x1\n      add\n      swap1\n      0x20\n      add\n      dup1\n      dup4\n      gt\n      tag_272\n      jumpi\n      dup3\n      swap1\n      sub\n      0x1f\n      and\n      dup3\n      add\n      swap2\n    tag_270:\n      pop\n      pop\n      pop\n      pop\n      pop\n      swap6\n      pop\n      dup5\n      dup1\n      sload\n      0x1\n      dup2\n      0x1\n      and\n      iszero\n      0x100\n      mul\n      sub\n      and\n      0x2\n      swap1\n      div\n      dup1\n      0x1f\n      add\n      0x20\n      dup1\n      swap2\n      div\n      mul\n      0x20\n      add\n      mload(0x40)\n      swap1\n      dup2\n      add\n      0x40\n      mstore\n      dup1\n      swap3\n      swap2\n      swap1\n      dup2\n      dup2\n      mstore\n      0x20\n      add\n      dup3\n      dup1\n      sload\n      0x1\n      dup2\n      0x1\n      and\n      iszero\n      0x100\n      mul\n      sub\n      and\n      0x2\n      swap1\n      div\n      dup1\n      iszero\n      tag_273\n      jumpi\n      dup1\n      0x1f\n      lt\n      tag_274\n      jumpi\n      0x100\n      dup1\n      dup4\n      sload\n      div\n      mul\n      dup4\n      mstore\n      swap2\n      0x20\n      add\n      swap2\n      jump(tag_273)\n    tag_274:\n      dup3\n      add\n      swap2\n      swap1\n      0x0\n      mstore\n      keccak256(0x0, 0x20)\n      swap1\n    tag_275:\n      dup2\n      sload\n      dup2\n      mstore\n      swap1\n      0x1\n      add\n      swap1\n      0x20\n      add\n      dup1\n      dup4\n      gt\n      tag_275\n      jumpi\n      dup3\n      swap1\n      sub\n      0x1f\n      and\n      dup3\n      add\n      swap2\n    tag_273:\n      pop\n      pop\n      pop\n      pop\n      pop\n      swap5\n      pop\n      dup4\n      dup1\n      sload\n      0x1\n      dup2\n      0x1\n      and\n      iszero\n      0x100\n      mul\n      sub\n      and\n      0x2\n      swap1\n      div\n      dup1\n      0x1f\n      add\n      0x20\n      dup1\n      swap2\n      div\n      mul\n      0x20\n      add\n      mload(0x40)\n      swap1\n      dup2\n      add\n      0x40\n      mstore\n      dup1\n      swap3\n      swap2\n      swap1\n      dup2\n      dup2\n      mstore\n      0x20\n      add\n      dup3\n      dup1\n      sload\n      0x1\n      dup2\n      0x1\n      and\n      iszero\n      0x100\n      mul\n      sub\n      and\n      0x2\n      swap1\n      div\n      dup1\n      iszero\n      tag_276\n      jumpi\n      dup1\n      0x1f\n      lt\n      tag_277\n      jumpi\n      0x100\n      dup1\n      dup4\n      sload\n      div\n      mul\n      dup4\n      mstore\n      swap2\n      0x20\n      add\n      swap2\n      jump(tag_276)\n    tag_277:\n      dup3\n      add\n      swap2\n      swap1\n      0x0\n      mstore\n      keccak256(0x0, 0x20)\n      swap1\n    tag_278:\n      dup2\n      sload\n      dup2\n      mstore\n      swap1\n      0x1\n      add\n      swap1\n      0x20\n      add\n      dup1\n      dup4\n      gt\n      tag_278\n      jumpi\n      dup3\n      swap1\n      sub\n      0x1f\n      and\n      dup3\n      add\n      swap2\n    tag_276:\n      pop\n      pop\n      pop\n      pop\n      pop\n      swap4\n      pop\n      swap7\n      pop\n      swap7\n      pop\n      swap7\n      pop\n      swap7\n      pop\n      swap7\n      pop\n      swap7\n      pop\n        /* \"contracts/ddddd.sol\":6028:6356  function getVaccinationInfo(address _address) public view returns(string, string, string, uint256, address, address) {\r... */\n      pop\n      swap2\n      swap4\n      swap6\n      pop\n      swap2\n      swap4\n      swap6\n      jump\t// out\n        /* \"contracts/ddddd.sol\":1038:1058  address public owner */\n    tag_116:\n      0x0\n      dup1\n      swap1\n      sload\n      swap1\n      0x100\n      exp\n      swap1\n      div\n      0xffffffffffffffffffffffffffffffffffffffff\n      and\n      dup2\n      jump\t// out\n        /* \"contracts/ddddd.sol\":1935:2043  function ownerAddress() public returns(address) {\r... */\n    tag_120:\n        /* \"contracts/ddddd.sol\":1974:1981  address */\n      0x0\n        /* \"contracts/ddddd.sol\":2002:2012  msg.sender */\n      caller\n        /* \"contracts/ddddd.sol\":1994:1999  owner */\n      0x0\n      dup1\n        /* \"contracts/ddddd.sol\":1994:2012  owner = msg.sender */\n      0x100\n      exp\n      dup2\n      sload\n      dup2\n      0xffffffffffffffffffffffffffffffffffffffff\n      mul\n      not\n      and\n      swap1\n      dup4\n      0xffffffffffffffffffffffffffffffffffffffff\n      and\n      mul\n      or\n      swap1\n      sstore\n      pop\n        /* \"contracts/ddddd.sol\":2030:2035  owner */\n      0x0\n      dup1\n      swap1\n      sload\n      swap1\n      0x100\n      exp\n      swap1\n      div\n      0xffffffffffffffffffffffffffffffffffffffff\n      and\n        /* \"contracts/ddddd.sol\":2023:2035  return owner */\n      swap1\n      pop\n        /* \"contracts/ddddd.sol\":1935:2043  function ownerAddress() public returns(address) {\r... */\n      swap1\n      jump\t// out\n        /* \"contracts/ddddd.sol\":1800:1844  uint256 public vaccinationRecordsCounter = 0 */\n    tag_124:\n      sload(0xf)\n      dup2\n      jump\t// out\n        /* \"contracts/ddddd.sol\":1707:1746  uint256 public MoHPermissionCounter = 0 */\n    tag_128:\n      sload(0xd)\n      dup2\n      jump\t// out\n        /* \"contracts/ddddd.sol\":1065:1090  address[] public userList */\n    tag_133:\n      0x1\n      dup2\n      dup2\n      sload\n      dup2\n      lt\n      iszero\n      iszero\n      tag_280\n      jumpi\n      invalid\n    tag_280:\n      swap1\n      0x0\n      mstore\n      keccak256(0x0, 0x20)\n      add\n      0x0\n      swap2\n      pop\n      sload\n      swap1\n      0x100\n      exp\n      swap1\n      div\n      0xffffffffffffffffffffffffffffffffffffffff\n      and\n      dup2\n      jump\t// out\n        /* \"contracts/ddddd.sol\":7318:7407  function getDoctors() public view returns(address[]) {\r... */\n    tag_137:\n        /* \"contracts/ddddd.sol\":7360:7369  address[] */\n      0x60\n        /* \"contracts/ddddd.sol\":7389:7399  doctorList */\n      0x2\n        /* \"contracts/ddddd.sol\":7382:7399  return doctorList */\n      dup1\n      sload\n      dup1\n      0x20\n      mul\n      0x20\n      add\n      mload(0x40)\n      swap1\n      dup2\n      add\n      0x40\n      mstore\n      dup1\n      swap3\n      swap2\n      swap1\n      dup2\n      dup2\n      mstore\n      0x20\n      add\n      dup3\n      dup1\n      sload\n      dup1\n      iszero\n      tag_283\n      jumpi\n      0x20\n      mul\n      dup3\n      add\n      swap2\n      swap1\n      0x0\n      mstore\n      keccak256(0x0, 0x20)\n      swap1\n    tag_284:\n      dup2\n      0x0\n      swap1\n      sload\n      swap1\n      0x100\n      exp\n      swap1\n      div\n      0xffffffffffffffffffffffffffffffffffffffff\n      and\n      0xffffffffffffffffffffffffffffffffffffffff\n      and\n      dup2\n      mstore\n      0x20\n      add\n      swap1\n      0x1\n      add\n      swap1\n      dup1\n      dup4\n      gt\n      tag_284\n      jumpi\n    tag_283:\n      pop\n      pop\n      pop\n      pop\n      pop\n      swap1\n      pop\n        /* \"contracts/ddddd.sol\":7318:7407  function getDoctors() public view returns(address[]) {\r... */\n      swap1\n      jump\t// out\n        /* \"contracts/ddddd.sol\":8499:8587  function getUserCount() public view returns(uint256) {\r... */\n    tag_141:\n        /* \"contracts/ddddd.sol\":8543:8550  uint256 */\n      0x0\n        /* \"contracts/ddddd.sol\":8570:8579  userCount */\n      sload(0xb)\n        /* \"contracts/ddddd.sol\":8563:8579  return userCount */\n      swap1\n      pop\n        /* \"contracts/ddddd.sol\":8499:8587  function getUserCount() public view returns(uint256) {\r... */\n      swap1\n      jump\t// out\n        /* \"contracts/ddddd.sol\":1853:1922  address public mohAdress = 0xc50C6297f56b033633C30354A854b074749cd2dC */\n    tag_145:\n      0x10\n      0x0\n      swap1\n      sload\n      swap1\n      0x100\n      exp\n      swap1\n      div\n      0xffffffffffffffffffffffffffffffffffffffff\n      and\n      dup2\n      jump\t// out\n        /* \"contracts/ddddd.sol\":6993:7213  function MoHRevokePermission(address _address1, address _address2) public returns(bool success) {\r... */\n    tag_151:\n        /* \"contracts/ddddd.sol\":7075:7087  bool success */\n      0x0\n        /* \"contracts/ddddd.sol\":7122:7131  mohAdress */\n      0x10\n      0x0\n      swap1\n      sload\n      swap1\n      0x100\n      exp\n      swap1\n      div\n      0xffffffffffffffffffffffffffffffffffffffff\n      and\n        /* \"contracts/ddddd.sol\":7108:7131  msg.sender == mohAdress */\n      0xffffffffffffffffffffffffffffffffffffffff\n      and\n        /* \"contracts/ddddd.sol\":7108:7118  msg.sender */\n      caller\n        /* \"contracts/ddddd.sol\":7108:7131  msg.sender == mohAdress */\n      0xffffffffffffffffffffffffffffffffffffffff\n      and\n      eq\n        /* \"contracts/ddddd.sol\":7100:7132  require(msg.sender == mohAdress) */\n      iszero\n      iszero\n      tag_287\n      jumpi\n      0x0\n      dup1\n      revert\n    tag_287:\n        /* \"contracts/ddddd.sol\":7178:7183  false */\n      0x0\n        /* \"contracts/ddddd.sol\":7143:7153  isApproved */\n      0x7\n        /* \"contracts/ddddd.sol\":7143:7164  isApproved[_address1] */\n      0x0\n        /* \"contracts/ddddd.sol\":7154:7163  _address1 */\n      dup6\n        /* \"contracts/ddddd.sol\":7143:7164  isApproved[_address1] */\n      0xffffffffffffffffffffffffffffffffffffffff\n      and\n      0xffffffffffffffffffffffffffffffffffffffff\n      and\n      dup2\n      mstore\n      0x20\n      add\n      swap1\n      dup2\n      mstore\n      0x20\n      add\n      0x0\n      keccak256\n        /* \"contracts/ddddd.sol\":7143:7175  isApproved[_address1][_address2] */\n      0x0\n        /* \"contracts/ddddd.sol\":7165:7174  _address2 */\n      dup5\n        /* \"contracts/ddddd.sol\":7143:7175  isApproved[_address1][_address2] */\n      0xffffffffffffffffffffffffffffffffffffffff\n      and\n      0xffffffffffffffffffffffffffffffffffffffff\n      and\n      dup2\n      mstore\n      0x20\n      add\n      swap1\n      dup2\n      mstore\n      0x20\n      add\n      0x0\n      keccak256\n      0x0\n        /* \"contracts/ddddd.sol\":7143:7183  isApproved[_address1][_address2] = false */\n      0x100\n      exp\n      dup2\n      sload\n      dup2\n      0xff\n      mul\n      not\n      and\n      swap1\n      dup4\n      iszero\n      iszero\n      mul\n      or\n      swap1\n      sstore\n      pop\n        /* \"contracts/ddddd.sol\":7201:7205  true */\n      0x1\n        /* \"contracts/ddddd.sol\":7194:7205  return true */\n      swap1\n      pop\n        /* \"contracts/ddddd.sol\":6993:7213  function MoHRevokePermission(address _address1, address _address2) public returns(bool success) {\r... */\n      swap3\n      swap2\n      pop\n      pop\n      jump\t// out\n        /* \"contracts/ddddd.sol\":1753:1793  uint256 public userPermissionCounter = 0 */\n    tag_155:\n      sload(0xe)\n      dup2\n      jump\t// out\n        /* \"contracts/ddddd.sol\":8114:8483  function searchDoctor(address _address) public view returns(string, string, string, string, string, string, string, address) {\r... */\n    tag_160:\n        /* \"contracts/ddddd.sol\":8174:8180  string */\n      0x60\n        /* \"contracts/ddddd.sol\":8182:8188  string */\n      dup1\n        /* \"contracts/ddddd.sol\":8190:8196  string */\n      0x60\n        /* \"contracts/ddddd.sol\":8198:8204  string */\n      dup1\n        /* \"contracts/ddddd.sol\":8206:8212  string */\n      0x60\n        /* \"contracts/ddddd.sol\":8214:8220  string */\n      dup1\n        /* \"contracts/ddddd.sol\":8222:8228  string */\n      0x60\n        /* \"contracts/ddddd.sol\":8230:8237  address */\n      0x0\n        /* \"contracts/ddddd.sol\":8340:8345  var d */\n      dup1\n        /* \"contracts/ddddd.sol\":8258:8268  isApproved */\n      0x7\n        /* \"contracts/ddddd.sol\":8258:8278  isApproved[_address] */\n      0x0\n        /* \"contracts/ddddd.sol\":8269:8277  _address */\n      dup12\n        /* \"contracts/ddddd.sol\":8258:8278  isApproved[_address] */\n      0xffffffffffffffffffffffffffffffffffffffff\n      and\n      0xffffffffffffffffffffffffffffffffffffffff\n      and\n      dup2\n      mstore\n      0x20\n      add\n      swap1\n      dup2\n      mstore\n      0x20\n      add\n      0x0\n      keccak256\n        /* \"contracts/ddddd.sol\":8258:8290  isApproved[_address][msg.sender] */\n      0x0\n        /* \"contracts/ddddd.sol\":8279:8289  msg.sender */\n      caller\n        /* \"contracts/ddddd.sol\":8258:8290  isApproved[_address][msg.sender] */\n      0xffffffffffffffffffffffffffffffffffffffff\n      and\n      0xffffffffffffffffffffffffffffffffffffffff\n      and\n      dup2\n      mstore\n      0x20\n      add\n      swap1\n      dup2\n      mstore\n      0x20\n      add\n      0x0\n      keccak256\n      0x0\n      swap1\n      sload\n      swap1\n      0x100\n      exp\n      swap1\n      div\n      0xff\n      and\n        /* \"contracts/ddddd.sol\":8250:8291  require(isApproved[_address][msg.sender]) */\n      iszero\n      iszero\n      tag_289\n      jumpi\n      0x0\n      dup1\n      revert\n    tag_289:\n        /* \"contracts/ddddd.sol\":8310:8318  isDoctor */\n      0x9\n        /* \"contracts/ddddd.sol\":8310:8328  isDoctor[_address] */\n      0x0\n        /* \"contracts/ddddd.sol\":8319:8327  _address */\n      dup12\n        /* \"contracts/ddddd.sol\":8310:8328  isDoctor[_address] */\n      0xffffffffffffffffffffffffffffffffffffffff\n      and\n      0xffffffffffffffffffffffffffffffffffffffff\n      and\n      dup2\n      mstore\n      0x20\n      add\n      swap1\n      dup2\n      mstore\n      0x20\n      add\n      0x0\n      keccak256\n      0x0\n      swap1\n      sload\n      swap1\n      0x100\n      exp\n      swap1\n      div\n      0xff\n      and\n        /* \"contracts/ddddd.sol\":8302:8329  require(isDoctor[_address]) */\n      iszero\n      iszero\n      tag_290\n      jumpi\n      0x0\n      dup1\n      revert\n    tag_290:\n        /* \"contracts/ddddd.sol\":8348:8354  doctor */\n      0x5\n        /* \"contracts/ddddd.sol\":8348:8364  doctor[_address] */\n      0x0\n        /* \"contracts/ddddd.sol\":8355:8363  _address */\n      dup12\n        /* \"contracts/ddddd.sol\":8348:8364  doctor[_address] */\n      0xffffffffffffffffffffffffffffffffffffffff\n      and\n      0xffffffffffffffffffffffffffffffffffffffff\n      and\n      dup2\n      mstore\n      0x20\n      add\n      swap1\n      dup2\n      mstore\n      0x20\n      add\n      0x0\n      keccak256\n        /* \"contracts/ddddd.sol\":8340:8364  var d = doctor[_address] */\n      swap1\n      pop\n        /* \"contracts/ddddd.sol\":8393:8394  d */\n      dup1\n        /* \"contracts/ddddd.sol\":8393:8400  d.uaeId */\n      0x0\n      add\n        /* \"contracts/ddddd.sol\":8402:8403  d */\n      dup2\n        /* \"contracts/ddddd.sol\":8402:8408  d.name */\n      0x1\n      add\n        /* \"contracts/ddddd.sol\":8410:8411  d */\n      dup3\n        /* \"contracts/ddddd.sol\":8410:8417  d.phone */\n      0x2\n      add\n        /* \"contracts/ddddd.sol\":8419:8420  d */\n      dup4\n        /* \"contracts/ddddd.sol\":8419:8427  d.gender */\n      0x3\n      add\n        /* \"contracts/ddddd.sol\":8429:8430  d */\n      dup5\n        /* \"contracts/ddddd.sol\":8429:8436  d.email */\n      0x5\n      add\n        /* \"contracts/ddddd.sol\":8438:8439  d */\n      dup6\n        /* \"contracts/ddddd.sol\":8438:8453  d.qualification */\n      0x6\n      add\n        /* \"contracts/ddddd.sol\":8455:8456  d */\n      dup7\n        /* \"contracts/ddddd.sol\":8455:8462  d.major */\n      0x7\n      add\n        /* \"contracts/ddddd.sol\":8464:8465  d */\n      dup8\n        /* \"contracts/ddddd.sol\":8464:8474  d.eAddress */\n      0x8\n      add\n      0x0\n      swap1\n      sload\n      swap1\n      0x100\n      exp\n      swap1\n      div\n      0xffffffffffffffffffffffffffffffffffffffff\n      and\n        /* \"contracts/ddddd.sol\":8385:8475  return (d.uaeId, d.name, d.phone, d.gender, d.email, d.qualification, d.major, d.eAddress) */\n      dup8\n      dup1\n      sload\n      0x1\n      dup2\n      0x1\n      and\n      iszero\n      0x100\n      mul\n      sub\n      and\n      0x2\n      swap1\n      div\n      dup1\n      0x1f\n      add\n      0x20\n      dup1\n      swap2\n      div\n      mul\n      0x20\n      add\n      mload(0x40)\n      swap1\n      dup2\n      add\n      0x40\n      mstore\n      dup1\n      swap3\n      swap2\n      swap1\n      dup2\n      dup2\n      mstore\n      0x20\n      add\n      dup3\n      dup1\n      sload\n      0x1\n      dup2\n      0x1\n      and\n      iszero\n      0x100\n      mul\n      sub\n      and\n      0x2\n      swap1\n      div\n      dup1\n      iszero\n      tag_291\n      jumpi\n      dup1\n      0x1f\n      lt\n      tag_292\n      jumpi\n      0x100\n      dup1\n      dup4\n      sload\n      div\n      mul\n      dup4\n      mstore\n      swap2\n      0x20\n      add\n      swap2\n      jump(tag_291)\n    tag_292:\n      dup3\n      add\n      swap2\n      swap1\n      0x0\n      mstore\n      keccak256(0x0, 0x20)\n      swap1\n    tag_293:\n      dup2\n      sload\n      dup2\n      mstore\n      swap1\n      0x1\n      add\n      swap1\n      0x20\n      add\n      dup1\n      dup4\n      gt\n      tag_293\n      jumpi\n      dup3\n      swap1\n      sub\n      0x1f\n      and\n      dup3\n      add\n      swap2\n    tag_291:\n      pop\n      pop\n      pop\n      pop\n      pop\n      swap8\n      pop\n      dup7\n      dup1\n      sload\n      0x1\n      dup2\n      0x1\n      and\n      iszero\n      0x100\n      mul\n      sub\n      and\n      0x2\n      swap1\n      div\n      dup1\n      0x1f\n      add\n      0x20\n      dup1\n      swap2\n      div\n      mul\n      0x20\n      add\n      mload(0x40)\n      swap1\n      dup2\n      add\n      0x40\n      mstore\n      dup1\n      swap3\n      swap2\n      swap1\n      dup2\n      dup2\n      mstore\n      0x20\n      add\n      dup3\n      dup1\n      sload\n      0x1\n      dup2\n      0x1\n      and\n      iszero\n      0x100\n      mul\n      sub\n      and\n      0x2\n      swap1\n      div\n      dup1\n      iszero\n      tag_294\n      jumpi\n      dup1\n      0x1f\n      lt\n      tag_295\n      jumpi\n      0x100\n      dup1\n      dup4\n      sload\n      div\n      mul\n      dup4\n      mstore\n      swap2\n      0x20\n      add\n      swap2\n      jump(tag_294)\n    tag_295:\n      dup3\n      add\n      swap2\n      swap1\n      0x0\n      mstore\n      keccak256(0x0, 0x20)\n      swap1\n    tag_296:\n      dup2\n      sload\n      dup2\n      mstore\n      swap1\n      0x1\n      add\n      swap1\n      0x20\n      add\n      dup1\n      dup4\n      gt\n      tag_296\n      jumpi\n      dup3\n      swap1\n      sub\n      0x1f\n      and\n      dup3\n      add\n      swap2\n    tag_294:\n      pop\n      pop\n      pop\n      pop\n      pop\n      swap7\n      pop\n      dup6\n      dup1\n      sload\n      0x1\n      dup2\n      0x1\n      and\n      iszero\n      0x100\n      mul\n      sub\n      and\n      0x2\n      swap1\n      div\n      dup1\n      0x1f\n      add\n      0x20\n      dup1\n      swap2\n      div\n      mul\n      0x20\n      add\n      mload(0x40)\n      swap1\n      dup2\n      add\n      0x40\n      mstore\n      dup1\n      swap3\n      swap2\n      swap1\n      dup2\n      dup2\n      mstore\n      0x20\n      add\n      dup3\n      dup1\n      sload\n      0x1\n      dup2\n      0x1\n      and\n      iszero\n      0x100\n      mul\n      sub\n      and\n      0x2\n      swap1\n      div\n      dup1\n      iszero\n      tag_297\n      jumpi\n      dup1\n      0x1f\n      lt\n      tag_298\n      jumpi\n      0x100\n      dup1\n      dup4\n      sload\n      div\n      mul\n      dup4\n      mstore\n      swap2\n      0x20\n      add\n      swap2\n      jump(tag_297)\n    tag_298:\n      dup3\n      add\n      swap2\n      swap1\n      0x0\n      mstore\n      keccak256(0x0, 0x20)\n      swap1\n    tag_299:\n      dup2\n      sload\n      dup2\n      mstore\n      swap1\n      0x1\n      add\n      swap1\n      0x20\n      add\n      dup1\n      dup4\n      gt\n      tag_299\n      jumpi\n      dup3\n      swap1\n      sub\n      0x1f\n      and\n      dup3\n      add\n      swap2\n    tag_297:\n      pop\n      pop\n      pop\n      pop\n      pop\n      swap6\n      pop\n      dup5\n      dup1\n      sload\n      0x1\n      dup2\n      0x1\n      and\n      iszero\n      0x100\n      mul\n      sub\n      and\n      0x2\n      swap1\n      div\n      dup1\n      0x1f\n      add\n      0x20\n      dup1\n      swap2\n      div\n      mul\n      0x20\n      add\n      mload(0x40)\n      swap1\n      dup2\n      add\n      0x40\n      mstore\n      dup1\n      swap3\n      swap2\n      swap1\n      dup2\n      dup2\n      mstore\n      0x20\n      add\n      dup3\n      dup1\n      sload\n      0x1\n      dup2\n      0x1\n      and\n      iszero\n      0x100\n      mul\n      sub\n      and\n      0x2\n      swap1\n      div\n      dup1\n      iszero\n      tag_300\n      jumpi\n      dup1\n      0x1f\n      lt\n      tag_301\n      jumpi\n      0x100\n      dup1\n      dup4\n      sload\n      div\n      mul\n      dup4\n      mstore\n      swap2\n      0x20\n      add\n      swap2\n      jump(tag_300)\n    tag_301:\n      dup3\n      add\n      swap2\n      swap1\n      0x0\n      mstore\n      keccak256(0x0, 0x20)\n      swap1\n    tag_302:\n      dup2\n      sload\n      dup2\n      mstore\n      swap1\n      0x1\n      add\n      swap1\n      0x20\n      add\n      dup1\n      dup4\n      gt\n      tag_302\n      jumpi\n      dup3\n      swap1\n      sub\n      0x1f\n      and\n      dup3\n      add\n      swap2\n    tag_300:\n      pop\n      pop\n      pop\n      pop\n      pop\n      swap5\n      pop\n      dup4\n      dup1\n      sload\n      0x1\n      dup2\n      0x1\n      and\n      iszero\n      0x100\n      mul\n      sub\n      and\n      0x2\n      swap1\n      div\n      dup1\n      0x1f\n      add\n      0x20\n      dup1\n      swap2\n      div\n      mul\n      0x20\n      add\n      mload(0x40)\n      swap1\n      dup2\n      add\n      0x40\n      mstore\n      dup1\n      swap3\n      swap2\n      swap1\n      dup2\n      dup2\n      mstore\n      0x20\n      add\n      dup3\n      dup1\n      sload\n      0x1\n      dup2\n      0x1\n      and\n      iszero\n      0x100\n      mul\n      sub\n      and\n      0x2\n      swap1\n      div\n      dup1\n      iszero\n      tag_303\n      jumpi\n      dup1\n      0x1f\n      lt\n      tag_304\n      jumpi\n      0x100\n      dup1\n      dup4\n      sload\n      div\n      mul\n      dup4\n      mstore\n      swap2\n      0x20\n      add\n      swap2\n      jump(tag_303)\n    tag_304:\n      dup3\n      add\n      swap2\n      swap1\n      0x0\n      mstore\n      keccak256(0x0, 0x20)\n      swap1\n    tag_305:\n      dup2\n      sload\n      dup2\n      mstore\n      swap1\n      0x1\n      add\n      swap1\n      0x20\n      add\n      dup1\n      dup4\n      gt\n      tag_305\n      jumpi\n      dup3\n      swap1\n      sub\n      0x1f\n      and\n      dup3\n      add\n      swap2\n    tag_303:\n      pop\n      pop\n      pop\n      pop\n      pop\n      swap4\n      pop\n      dup3\n      dup1\n      sload\n      0x1\n      dup2\n      0x1\n      and\n      iszero\n      0x100\n      mul\n      sub\n      and\n      0x2\n      swap1\n      div\n      dup1\n      0x1f\n      add\n      0x20\n      dup1\n      swap2\n      div\n      mul\n      0x20\n      add\n      mload(0x40)\n      swap1\n      dup2\n      add\n      0x40\n      mstore\n      dup1\n      swap3\n      swap2\n      swap1\n      dup2\n      dup2\n      mstore\n      0x20\n      add\n      dup3\n      dup1\n      sload\n      0x1\n      dup2\n      0x1\n      and\n      iszero\n      0x100\n      mul\n      sub\n      and\n      0x2\n      swap1\n      div\n      dup1\n      iszero\n      tag_306\n      jumpi\n      dup1\n      0x1f\n      lt\n      tag_307\n      jumpi\n      0x100\n      dup1\n      dup4\n      sload\n      div\n      mul\n      dup4\n      mstore\n      swap2\n      0x20\n      add\n      swap2\n      jump(tag_306)\n    tag_307:\n      dup3\n      add\n      swap2\n      swap1\n      0x0\n      mstore\n      keccak256(0x0, 0x20)\n      swap1\n    tag_308:\n      dup2\n      sload\n      dup2\n      mstore\n      swap1\n      0x1\n      add\n      swap1\n      0x20\n      add\n      dup1\n      dup4\n      gt\n      tag_308\n      jumpi\n      dup3\n      swap1\n      sub\n      0x1f\n      and\n      dup3\n      add\n      swap2\n    tag_306:\n      pop\n      pop\n      pop\n      pop\n      pop\n      swap3\n      pop\n      dup2\n      dup1\n      sload\n      0x1\n      dup2\n      0x1\n      and\n      iszero\n      0x100\n      mul\n      sub\n      and\n      0x2\n      swap1\n      div\n      dup1\n      0x1f\n      add\n      0x20\n      dup1\n      swap2\n      div\n      mul\n      0x20\n      add\n      mload(0x40)\n      swap1\n      dup2\n      add\n      0x40\n      mstore\n      dup1\n      swap3\n      swap2\n      swap1\n      dup2\n      dup2\n      mstore\n      0x20\n      add\n      dup3\n      dup1\n      sload\n      0x1\n      dup2\n      0x1\n      and\n      iszero\n      0x100\n      mul\n      sub\n      and\n      0x2\n      swap1\n      div\n      dup1\n      iszero\n      tag_309\n      jumpi\n      dup1\n      0x1f\n      lt\n      tag_310\n      jumpi\n      0x100\n      dup1\n      dup4\n      sload\n      div\n      mul\n      dup4\n      mstore\n      swap2\n      0x20\n      add\n      swap2\n      jump(tag_309)\n    tag_310:\n      dup3\n      add\n      swap2\n      swap1\n      0x0\n      mstore\n      keccak256(0x0, 0x20)\n      swap1\n    tag_311:\n      dup2\n      sload\n      dup2\n      mstore\n      swap1\n      0x1\n      add\n      swap1\n      0x20\n      add\n      dup1\n      dup4\n      gt\n      tag_311\n      jumpi\n      dup3\n      swap1\n      sub\n      0x1f\n      and\n      dup3\n      add\n      swap2\n    tag_309:\n      pop\n      pop\n      pop\n      pop\n      pop\n      swap2\n      pop\n      swap9\n      pop\n      swap9\n      pop\n      swap9\n      pop\n      swap9\n      pop\n      swap9\n      pop\n      swap9\n      pop\n      swap9\n      pop\n      swap9\n      pop\n        /* \"contracts/ddddd.sol\":8114:8483  function searchDoctor(address _address) public view returns(string, string, string, string, string, string, string, address) {\r... */\n      pop\n      swap2\n      swap4\n      swap6\n      swap8\n      pop\n      swap2\n      swap4\n      swap6\n      swap8\n      jump\t// out\n        /* \"contracts/ddddd.sol\":6565:6817  function givePermissionByMoH(address _address1, address _address2) public returns(bool success) {\r... */\n    tag_165:\n        /* \"contracts/ddddd.sol\":6647:6659  bool success */\n      0x0\n        /* \"contracts/ddddd.sol\":6694:6703  mohAdress */\n      0x10\n      0x0\n      swap1\n      sload\n      swap1\n      0x100\n      exp\n      swap1\n      div\n      0xffffffffffffffffffffffffffffffffffffffff\n      and\n        /* \"contracts/ddddd.sol\":6680:6703  msg.sender == mohAdress */\n      0xffffffffffffffffffffffffffffffffffffffff\n      and\n        /* \"contracts/ddddd.sol\":6680:6690  msg.sender */\n      caller\n        /* \"contracts/ddddd.sol\":6680:6703  msg.sender == mohAdress */\n      0xffffffffffffffffffffffffffffffffffffffff\n      and\n      eq\n        /* \"contracts/ddddd.sol\":6672:6704  require(msg.sender == mohAdress) */\n      iszero\n      iszero\n      tag_313\n      jumpi\n      0x0\n      dup1\n      revert\n    tag_313:\n        /* \"contracts/ddddd.sol\":6750:6754  true */\n      0x1\n        /* \"contracts/ddddd.sol\":6715:6725  isApproved */\n      0x7\n        /* \"contracts/ddddd.sol\":6715:6736  isApproved[_address1] */\n      0x0\n        /* \"contracts/ddddd.sol\":6726:6735  _address1 */\n      dup6\n        /* \"contracts/ddddd.sol\":6715:6736  isApproved[_address1] */\n      0xffffffffffffffffffffffffffffffffffffffff\n      and\n      0xffffffffffffffffffffffffffffffffffffffff\n      and\n      dup2\n      mstore\n      0x20\n      add\n      swap1\n      dup2\n      mstore\n      0x20\n      add\n      0x0\n      keccak256\n        /* \"contracts/ddddd.sol\":6715:6747  isApproved[_address1][_address2] */\n      0x0\n        /* \"contracts/ddddd.sol\":6737:6746  _address2 */\n      dup5\n        /* \"contracts/ddddd.sol\":6715:6747  isApproved[_address1][_address2] */\n      0xffffffffffffffffffffffffffffffffffffffff\n      and\n      0xffffffffffffffffffffffffffffffffffffffff\n      and\n      dup2\n      mstore\n      0x20\n      add\n      swap1\n      dup2\n      mstore\n      0x20\n      add\n      0x0\n      keccak256\n      0x0\n        /* \"contracts/ddddd.sol\":6715:6754  isApproved[_address1][_address2] = true */\n      0x100\n      exp\n      dup2\n      sload\n      dup2\n      0xff\n      mul\n      not\n      and\n      swap1\n      dup4\n      iszero\n      iszero\n      mul\n      or\n      swap1\n      sstore\n      pop\n        /* \"contracts/ddddd.sol\":6765:6785  MoHPermissionCounter */\n      0xd\n      0x0\n        /* \"contracts/ddddd.sol\":6765:6787  MoHPermissionCounter++ */\n      dup2\n      sload\n      dup1\n      swap3\n      swap2\n      swap1\n      0x1\n      add\n      swap2\n      swap1\n      pop\n      sstore\n      pop\n        /* \"contracts/ddddd.sol\":6805:6809  true */\n      0x1\n        /* \"contracts/ddddd.sol\":6798:6809  return true */\n      swap1\n      pop\n        /* \"contracts/ddddd.sol\":6565:6817  function givePermissionByMoH(address _address1, address _address2) public returns(bool success) {\r... */\n      swap3\n      swap2\n      pop\n      pop\n      jump\t// out\n        /* \"contracts/ddddd.sol\":8821:8931  function getMoHPermissionCounter() public view returns(uint256) {\r... */\n    tag_169:\n        /* \"contracts/ddddd.sol\":8876:8883  uint256 */\n      0x0\n        /* \"contracts/ddddd.sol\":8903:8923  MoHPermissionCounter */\n      sload(0xd)\n        /* \"contracts/ddddd.sol\":8896:8923  return MoHPermissionCounter */\n      swap1\n      pop\n        /* \"contracts/ddddd.sol\":8821:8931  function getMoHPermissionCounter() public view returns(uint256) {\r... */\n      swap1\n      jump\t// out\n        /* \"contracts/ddddd.sol\":1131:1163  address[] public vaccinationList */\n    tag_174:\n      0x3\n      dup2\n      dup2\n      sload\n      dup2\n      lt\n      iszero\n      iszero\n      tag_315\n      jumpi\n      invalid\n    tag_315:\n      swap1\n      0x0\n      mstore\n      keccak256(0x0, 0x20)\n      add\n      0x0\n      swap2\n      pop\n      sload\n      swap1\n      0x100\n      exp\n      swap1\n      div\n      0xffffffffffffffffffffffffffffffffffffffff\n      and\n      dup2\n      jump\t// out\n        /* \"contracts/ddddd.sol\":91:9248  contract ddddd {\r... */\n    tag_209:\n      dup3\n      dup1\n      sload\n      0x1\n      dup2\n      0x1\n      and\n      iszero\n      0x100\n      mul\n      sub\n      and\n      0x2\n      swap1\n      div\n      swap1\n      0x0\n      mstore\n      keccak256(0x0, 0x20)\n      swap1\n      0x1f\n      add\n      0x20\n      swap1\n      div\n      dup2\n      add\n      swap3\n      dup3\n      0x1f\n      lt\n      tag_318\n      jumpi\n      dup1\n      mload\n      not(0xff)\n      and\n      dup4\n      dup1\n      add\n      or\n      dup6\n      sstore\n      jump(tag_317)\n    tag_318:\n      dup3\n      dup1\n      add\n      0x1\n      add\n      dup6\n      sstore\n      dup3\n      iszero\n      tag_317\n      jumpi\n      swap2\n      dup3\n      add\n    tag_319:\n      dup3\n      dup2\n      gt\n      iszero\n      tag_320\n      jumpi\n      dup3\n      mload\n      dup3\n      sstore\n      swap2\n      0x20\n      add\n      swap2\n      swap1\n      0x1\n      add\n      swap1\n      jump(tag_319)\n    tag_320:\n    tag_317:\n      pop\n      swap1\n      pop\n      tag_321\n      swap2\n      swap1\n      jump\t// in(tag_322)\n    tag_321:\n      pop\n      swap1\n      jump\t// out\n    tag_322:\n      tag_323\n      swap2\n      swap1\n    tag_324:\n      dup1\n      dup3\n      gt\n      iszero\n      tag_325\n      jumpi\n      0x0\n      dup2\n      0x0\n      swap1\n      sstore\n      pop\n      0x1\n      add\n      jump(tag_324)\n    tag_325:\n      pop\n      swap1\n      jump\n    tag_323:\n      swap1\n      jump\t// out\n        /* \"--CODEGEN--\":5:123   */\n    tag_327:\n      0x0\n        /* \"--CODEGEN--\":72:118   */\n      tag_328\n        /* \"--CODEGEN--\":110:116   */\n      dup3\n        /* \"--CODEGEN--\":97:117   */\n      calldataload\n        /* \"--CODEGEN--\":72:118   */\n      jump(tag_329)\n    tag_328:\n        /* \"--CODEGEN--\":63:118   */\n      swap1\n      pop\n        /* \"--CODEGEN--\":57:123   */\n      swap3\n      swap2\n      pop\n      pop\n      jump\n        /* \"--CODEGEN--\":131:573   */\n    tag_331:\n      0x0\n        /* \"--CODEGEN--\":233:236   */\n      dup3\n        /* \"--CODEGEN--\":226:230   */\n      0x1f\n        /* \"--CODEGEN--\":218:224   */\n      dup4\n        /* \"--CODEGEN--\":214:231   */\n      add\n        /* \"--CODEGEN--\":210:237   */\n      slt\n        /* \"--CODEGEN--\":203:238   */\n      iszero\n        /* \"--CODEGEN--\":200:202   */\n      iszero\n      tag_332\n      jumpi\n        /* \"--CODEGEN--\":251:252   */\n      0x0\n        /* \"--CODEGEN--\":248:249   */\n      dup1\n        /* \"--CODEGEN--\":241:253   */\n      revert\n        /* \"--CODEGEN--\":200:202   */\n    tag_332:\n        /* \"--CODEGEN--\":288:294   */\n      dup2\n        /* \"--CODEGEN--\":275:295   */\n      calldataload\n        /* \"--CODEGEN--\":310:375   */\n      tag_333\n        /* \"--CODEGEN--\":325:374   */\n      tag_334\n        /* \"--CODEGEN--\":367:373   */\n      dup3\n        /* \"--CODEGEN--\":325:374   */\n      jump(tag_335)\n    tag_334:\n        /* \"--CODEGEN--\":310:375   */\n      jump(tag_336)\n    tag_333:\n        /* \"--CODEGEN--\":301:375   */\n      swap2\n      pop\n        /* \"--CODEGEN--\":395:401   */\n      dup1\n        /* \"--CODEGEN--\":388:393   */\n      dup3\n        /* \"--CODEGEN--\":381:402   */\n      mstore\n        /* \"--CODEGEN--\":431:435   */\n      0x20\n        /* \"--CODEGEN--\":423:429   */\n      dup4\n        /* \"--CODEGEN--\":419:436   */\n      add\n        /* \"--CODEGEN--\":464:468   */\n      0x20\n        /* \"--CODEGEN--\":457:462   */\n      dup4\n        /* \"--CODEGEN--\":453:469   */\n      add\n        /* \"--CODEGEN--\":499:502   */\n      dup6\n        /* \"--CODEGEN--\":490:496   */\n      dup4\n        /* \"--CODEGEN--\":485:488   */\n      dup4\n        /* \"--CODEGEN--\":481:497   */\n      add\n        /* \"--CODEGEN--\":478:503   */\n      gt\n        /* \"--CODEGEN--\":475:477   */\n      iszero\n      tag_337\n      jumpi\n        /* \"--CODEGEN--\":516:517   */\n      0x0\n        /* \"--CODEGEN--\":513:514   */\n      dup1\n        /* \"--CODEGEN--\":506:518   */\n      revert\n        /* \"--CODEGEN--\":475:477   */\n    tag_337:\n        /* \"--CODEGEN--\":526:567   */\n      tag_338\n        /* \"--CODEGEN--\":560:566   */\n      dup4\n        /* \"--CODEGEN--\":555:558   */\n      dup3\n        /* \"--CODEGEN--\":550:553   */\n      dup5\n        /* \"--CODEGEN--\":526:567   */\n      jump(tag_339)\n    tag_338:\n        /* \"--CODEGEN--\":193:573   */\n      pop\n      pop\n      pop\n      swap3\n      swap2\n      pop\n      pop\n      jump\n        /* \"--CODEGEN--\":581:699   */\n    tag_341:\n      0x0\n        /* \"--CODEGEN--\":648:694   */\n      tag_342\n        /* \"--CODEGEN--\":686:692   */\n      dup3\n        /* \"--CODEGEN--\":673:693   */\n      calldataload\n        /* \"--CODEGEN--\":648:694   */\n      jump(tag_343)\n    tag_342:\n        /* \"--CODEGEN--\":639:694   */\n      swap1\n      pop\n        /* \"--CODEGEN--\":633:699   */\n      swap3\n      swap2\n      pop\n      pop\n      jump\n        /* \"--CODEGEN--\":706:947   */\n    tag_45:\n      0x0\n        /* \"--CODEGEN--\":810:812   */\n      0x20\n        /* \"--CODEGEN--\":798:807   */\n      dup3\n        /* \"--CODEGEN--\":789:796   */\n      dup5\n        /* \"--CODEGEN--\":785:808   */\n      sub\n        /* \"--CODEGEN--\":781:813   */\n      slt\n        /* \"--CODEGEN--\":778:780   */\n      iszero\n      tag_345\n      jumpi\n        /* \"--CODEGEN--\":826:827   */\n      0x0\n        /* \"--CODEGEN--\":823:824   */\n      dup1\n        /* \"--CODEGEN--\":816:828   */\n      revert\n        /* \"--CODEGEN--\":778:780   */\n    tag_345:\n        /* \"--CODEGEN--\":861:862   */\n      0x0\n        /* \"--CODEGEN--\":878:931   */\n      tag_346\n        /* \"--CODEGEN--\":923:930   */\n      dup5\n        /* \"--CODEGEN--\":914:920   */\n      dup3\n        /* \"--CODEGEN--\":903:912   */\n      dup6\n        /* \"--CODEGEN--\":899:921   */\n      add\n        /* \"--CODEGEN--\":878:931   */\n      jump(tag_327)\n    tag_346:\n        /* \"--CODEGEN--\":868:931   */\n      swap2\n      pop\n        /* \"--CODEGEN--\":840:937   */\n      pop\n        /* \"--CODEGEN--\":772:947   */\n      swap3\n      swap2\n      pop\n      pop\n      jump\n        /* \"--CODEGEN--\":954:1320   */\n    tag_150:\n      0x0\n      dup1\n        /* \"--CODEGEN--\":1075:1077   */\n      0x40\n        /* \"--CODEGEN--\":1063:1072   */\n      dup4\n        /* \"--CODEGEN--\":1054:1061   */\n      dup6\n        /* \"--CODEGEN--\":1050:1073   */\n      sub\n        /* \"--CODEGEN--\":1046:1078   */\n      slt\n        /* \"--CODEGEN--\":1043:1045   */\n      iszero\n      tag_348\n      jumpi\n        /* \"--CODEGEN--\":1091:1092   */\n      0x0\n        /* \"--CODEGEN--\":1088:1089   */\n      dup1\n        /* \"--CODEGEN--\":1081:1093   */\n      revert\n        /* \"--CODEGEN--\":1043:1045   */\n    tag_348:\n        /* \"--CODEGEN--\":1126:1127   */\n      0x0\n        /* \"--CODEGEN--\":1143:1196   */\n      tag_349\n        /* \"--CODEGEN--\":1188:1195   */\n      dup6\n        /* \"--CODEGEN--\":1179:1185   */\n      dup3\n        /* \"--CODEGEN--\":1168:1177   */\n      dup7\n        /* \"--CODEGEN--\":1164:1186   */\n      add\n        /* \"--CODEGEN--\":1143:1196   */\n      jump(tag_327)\n    tag_349:\n        /* \"--CODEGEN--\":1133:1196   */\n      swap3\n      pop\n        /* \"--CODEGEN--\":1105:1202   */\n      pop\n        /* \"--CODEGEN--\":1233:1235   */\n      0x20\n        /* \"--CODEGEN--\":1251:1304   */\n      tag_350\n        /* \"--CODEGEN--\":1296:1303   */\n      dup6\n        /* \"--CODEGEN--\":1287:1293   */\n      dup3\n        /* \"--CODEGEN--\":1276:1285   */\n      dup7\n        /* \"--CODEGEN--\":1272:1294   */\n      add\n        /* \"--CODEGEN--\":1251:1304   */\n      jump(tag_327)\n    tag_350:\n        /* \"--CODEGEN--\":1241:1304   */\n      swap2\n      pop\n        /* \"--CODEGEN--\":1212:1310   */\n      pop\n        /* \"--CODEGEN--\":1037:1320   */\n      swap3\n      pop\n      swap3\n      swap1\n      pop\n      jump\n        /* \"--CODEGEN--\":1327:2514   */\n    tag_78:\n      0x0\n      dup1\n      0x0\n      dup1\n      0x0\n      dup1\n        /* \"--CODEGEN--\":1546:1549   */\n      0xc0\n        /* \"--CODEGEN--\":1534:1543   */\n      dup8\n        /* \"--CODEGEN--\":1525:1532   */\n      dup10\n        /* \"--CODEGEN--\":1521:1544   */\n      sub\n        /* \"--CODEGEN--\":1517:1550   */\n      slt\n        /* \"--CODEGEN--\":1514:1516   */\n      iszero\n      tag_352\n      jumpi\n        /* \"--CODEGEN--\":1563:1564   */\n      0x0\n        /* \"--CODEGEN--\":1560:1561   */\n      dup1\n        /* \"--CODEGEN--\":1553:1565   */\n      revert\n        /* \"--CODEGEN--\":1514:1516   */\n    tag_352:\n        /* \"--CODEGEN--\":1598:1599   */\n      0x0\n        /* \"--CODEGEN--\":1615:1668   */\n      tag_353\n        /* \"--CODEGEN--\":1660:1667   */\n      dup10\n        /* \"--CODEGEN--\":1651:1657   */\n      dup3\n        /* \"--CODEGEN--\":1640:1649   */\n      dup11\n        /* \"--CODEGEN--\":1636:1658   */\n      add\n        /* \"--CODEGEN--\":1615:1668   */\n      jump(tag_327)\n    tag_353:\n        /* \"--CODEGEN--\":1605:1668   */\n      swap7\n      pop\n        /* \"--CODEGEN--\":1577:1674   */\n      pop\n        /* \"--CODEGEN--\":1705:1707   */\n      0x20\n        /* \"--CODEGEN--\":1723:1776   */\n      tag_354\n        /* \"--CODEGEN--\":1768:1775   */\n      dup10\n        /* \"--CODEGEN--\":1759:1765   */\n      dup3\n        /* \"--CODEGEN--\":1748:1757   */\n      dup11\n        /* \"--CODEGEN--\":1744:1766   */\n      add\n        /* \"--CODEGEN--\":1723:1776   */\n      jump(tag_327)\n    tag_354:\n        /* \"--CODEGEN--\":1713:1776   */\n      swap6\n      pop\n        /* \"--CODEGEN--\":1684:1782   */\n      pop\n        /* \"--CODEGEN--\":1841:1843   */\n      0x40\n        /* \"--CODEGEN--\":1830:1839   */\n      dup8\n        /* \"--CODEGEN--\":1826:1844   */\n      add\n        /* \"--CODEGEN--\":1813:1845   */\n      calldataload\n        /* \"--CODEGEN--\":1865:1883   */\n      0xffffffffffffffff\n        /* \"--CODEGEN--\":1857:1863   */\n      dup2\n        /* \"--CODEGEN--\":1854:1884   */\n      gt\n        /* \"--CODEGEN--\":1851:1853   */\n      iszero\n      tag_355\n      jumpi\n        /* \"--CODEGEN--\":1897:1898   */\n      0x0\n        /* \"--CODEGEN--\":1894:1895   */\n      dup1\n        /* \"--CODEGEN--\":1887:1899   */\n      revert\n        /* \"--CODEGEN--\":1851:1853   */\n    tag_355:\n        /* \"--CODEGEN--\":1917:1980   */\n      tag_356\n        /* \"--CODEGEN--\":1972:1979   */\n      dup10\n        /* \"--CODEGEN--\":1963:1969   */\n      dup3\n        /* \"--CODEGEN--\":1952:1961   */\n      dup11\n        /* \"--CODEGEN--\":1948:1970   */\n      add\n        /* \"--CODEGEN--\":1917:1980   */\n      jump(tag_331)\n    tag_356:\n        /* \"--CODEGEN--\":1907:1980   */\n      swap5\n      pop\n        /* \"--CODEGEN--\":1792:1986   */\n      pop\n        /* \"--CODEGEN--\":2045:2047   */\n      0x60\n        /* \"--CODEGEN--\":2034:2043   */\n      dup8\n        /* \"--CODEGEN--\":2030:2048   */\n      add\n        /* \"--CODEGEN--\":2017:2049   */\n      calldataload\n        /* \"--CODEGEN--\":2069:2087   */\n      0xffffffffffffffff\n        /* \"--CODEGEN--\":2061:2067   */\n      dup2\n        /* \"--CODEGEN--\":2058:2088   */\n      gt\n        /* \"--CODEGEN--\":2055:2057   */\n      iszero\n      tag_357\n      jumpi\n        /* \"--CODEGEN--\":2101:2102   */\n      0x0\n        /* \"--CODEGEN--\":2098:2099   */\n      dup1\n        /* \"--CODEGEN--\":2091:2103   */\n      revert\n        /* \"--CODEGEN--\":2055:2057   */\n    tag_357:\n        /* \"--CODEGEN--\":2121:2184   */\n      tag_358\n        /* \"--CODEGEN--\":2176:2183   */\n      dup10\n        /* \"--CODEGEN--\":2167:2173   */\n      dup3\n        /* \"--CODEGEN--\":2156:2165   */\n      dup11\n        /* \"--CODEGEN--\":2152:2174   */\n      add\n        /* \"--CODEGEN--\":2121:2184   */\n      jump(tag_331)\n    tag_358:\n        /* \"--CODEGEN--\":2111:2184   */\n      swap4\n      pop\n        /* \"--CODEGEN--\":1996:2190   */\n      pop\n        /* \"--CODEGEN--\":2249:2252   */\n      0x80\n        /* \"--CODEGEN--\":2238:2247   */\n      dup8\n        /* \"--CODEGEN--\":2234:2253   */\n      add\n        /* \"--CODEGEN--\":2221:2254   */\n      calldataload\n        /* \"--CODEGEN--\":2274:2292   */\n      0xffffffffffffffff\n        /* \"--CODEGEN--\":2266:2272   */\n      dup2\n        /* \"--CODEGEN--\":2263:2293   */\n      gt\n        /* \"--CODEGEN--\":2260:2262   */\n      iszero\n      tag_359\n      jumpi\n        /* \"--CODEGEN--\":2306:2307   */\n      0x0\n        /* \"--CODEGEN--\":2303:2304   */\n      dup1\n        /* \"--CODEGEN--\":2296:2308   */\n      revert\n        /* \"--CODEGEN--\":2260:2262   */\n    tag_359:\n        /* \"--CODEGEN--\":2326:2389   */\n      tag_360\n        /* \"--CODEGEN--\":2381:2388   */\n      dup10\n        /* \"--CODEGEN--\":2372:2378   */\n      dup3\n        /* \"--CODEGEN--\":2361:2370   */\n      dup11\n        /* \"--CODEGEN--\":2357:2379   */\n      add\n        /* \"--CODEGEN--\":2326:2389   */\n      jump(tag_331)\n    tag_360:\n        /* \"--CODEGEN--\":2316:2389   */\n      swap3\n      pop\n        /* \"--CODEGEN--\":2200:2395   */\n      pop\n        /* \"--CODEGEN--\":2426:2429   */\n      0xa0\n        /* \"--CODEGEN--\":2445:2498   */\n      tag_361\n        /* \"--CODEGEN--\":2490:2497   */\n      dup10\n        /* \"--CODEGEN--\":2481:2487   */\n      dup3\n        /* \"--CODEGEN--\":2470:2479   */\n      dup11\n        /* \"--CODEGEN--\":2466:2488   */\n      add\n        /* \"--CODEGEN--\":2445:2498   */\n      jump(tag_341)\n    tag_361:\n        /* \"--CODEGEN--\":2435:2498   */\n      swap2\n      pop\n        /* \"--CODEGEN--\":2405:2504   */\n      pop\n        /* \"--CODEGEN--\":1508:2514   */\n      swap3\n      swap6\n      pop\n      swap3\n      swap6\n      pop\n      swap3\n      swap6\n      jump\n        /* \"--CODEGEN--\":2521:4384   */\n    tag_63:\n      0x0\n      dup1\n      0x0\n      dup1\n      0x0\n      dup1\n      0x0\n      dup1\n        /* \"--CODEGEN--\":2814:2817   */\n      0x100\n        /* \"--CODEGEN--\":2802:2811   */\n      dup10\n        /* \"--CODEGEN--\":2793:2800   */\n      dup12\n        /* \"--CODEGEN--\":2789:2812   */\n      sub\n        /* \"--CODEGEN--\":2785:2818   */\n      slt\n        /* \"--CODEGEN--\":2782:2784   */\n      iszero\n      tag_363\n      jumpi\n        /* \"--CODEGEN--\":2831:2832   */\n      0x0\n        /* \"--CODEGEN--\":2828:2829   */\n      dup1\n        /* \"--CODEGEN--\":2821:2833   */\n      revert\n        /* \"--CODEGEN--\":2782:2784   */\n    tag_363:\n        /* \"--CODEGEN--\":2866:2867   */\n      0x0\n        /* \"--CODEGEN--\":2883:2936   */\n      tag_364\n        /* \"--CODEGEN--\":2928:2935   */\n      dup12\n        /* \"--CODEGEN--\":2919:2925   */\n      dup3\n        /* \"--CODEGEN--\":2908:2917   */\n      dup13\n        /* \"--CODEGEN--\":2904:2926   */\n      add\n        /* \"--CODEGEN--\":2883:2936   */\n      jump(tag_327)\n    tag_364:\n        /* \"--CODEGEN--\":2873:2936   */\n      swap9\n      pop\n        /* \"--CODEGEN--\":2845:2942   */\n      pop\n        /* \"--CODEGEN--\":3001:3003   */\n      0x20\n        /* \"--CODEGEN--\":2990:2999   */\n      dup10\n        /* \"--CODEGEN--\":2986:3004   */\n      add\n        /* \"--CODEGEN--\":2973:3005   */\n      calldataload\n        /* \"--CODEGEN--\":3025:3043   */\n      0xffffffffffffffff\n        /* \"--CODEGEN--\":3017:3023   */\n      dup2\n        /* \"--CODEGEN--\":3014:3044   */\n      gt\n        /* \"--CODEGEN--\":3011:3013   */\n      iszero\n      tag_365\n      jumpi\n        /* \"--CODEGEN--\":3057:3058   */\n      0x0\n        /* \"--CODEGEN--\":3054:3055   */\n      dup1\n        /* \"--CODEGEN--\":3047:3059   */\n      revert\n        /* \"--CODEGEN--\":3011:3013   */\n    tag_365:\n        /* \"--CODEGEN--\":3077:3140   */\n      tag_366\n        /* \"--CODEGEN--\":3132:3139   */\n      dup12\n        /* \"--CODEGEN--\":3123:3129   */\n      dup3\n        /* \"--CODEGEN--\":3112:3121   */\n      dup13\n        /* \"--CODEGEN--\":3108:3130   */\n      add\n        /* \"--CODEGEN--\":3077:3140   */\n      jump(tag_331)\n    tag_366:\n        /* \"--CODEGEN--\":3067:3140   */\n      swap8\n      pop\n        /* \"--CODEGEN--\":2952:3146   */\n      pop\n        /* \"--CODEGEN--\":3205:3207   */\n      0x40\n        /* \"--CODEGEN--\":3194:3203   */\n      dup10\n        /* \"--CODEGEN--\":3190:3208   */\n      add\n        /* \"--CODEGEN--\":3177:3209   */\n      calldataload\n        /* \"--CODEGEN--\":3229:3247   */\n      0xffffffffffffffff\n        /* \"--CODEGEN--\":3221:3227   */\n      dup2\n        /* \"--CODEGEN--\":3218:3248   */\n      gt\n        /* \"--CODEGEN--\":3215:3217   */\n      iszero\n      tag_367\n      jumpi\n        /* \"--CODEGEN--\":3261:3262   */\n      0x0\n        /* \"--CODEGEN--\":3258:3259   */\n      dup1\n        /* \"--CODEGEN--\":3251:3263   */\n      revert\n        /* \"--CODEGEN--\":3215:3217   */\n    tag_367:\n        /* \"--CODEGEN--\":3281:3344   */\n      tag_368\n        /* \"--CODEGEN--\":3336:3343   */\n      dup12\n        /* \"--CODEGEN--\":3327:3333   */\n      dup3\n        /* \"--CODEGEN--\":3316:3325   */\n      dup13\n        /* \"--CODEGEN--\":3312:3334   */\n      add\n        /* \"--CODEGEN--\":3281:3344   */\n      jump(tag_331)\n    tag_368:\n        /* \"--CODEGEN--\":3271:3344   */\n      swap7\n      pop\n        /* \"--CODEGEN--\":3156:3350   */\n      pop\n        /* \"--CODEGEN--\":3409:3411   */\n      0x60\n        /* \"--CODEGEN--\":3398:3407   */\n      dup10\n        /* \"--CODEGEN--\":3394:3412   */\n      add\n        /* \"--CODEGEN--\":3381:3413   */\n      calldataload\n        /* \"--CODEGEN--\":3433:3451   */\n      0xffffffffffffffff\n        /* \"--CODEGEN--\":3425:3431   */\n      dup2\n        /* \"--CODEGEN--\":3422:3452   */\n      gt\n        /* \"--CODEGEN--\":3419:3421   */\n      iszero\n      tag_369\n      jumpi\n        /* \"--CODEGEN--\":3465:3466   */\n      0x0\n        /* \"--CODEGEN--\":3462:3463   */\n      dup1\n        /* \"--CODEGEN--\":3455:3467   */\n      revert\n        /* \"--CODEGEN--\":3419:3421   */\n    tag_369:\n        /* \"--CODEGEN--\":3485:3548   */\n      tag_370\n        /* \"--CODEGEN--\":3540:3547   */\n      dup12\n        /* \"--CODEGEN--\":3531:3537   */\n      dup3\n        /* \"--CODEGEN--\":3520:3529   */\n      dup13\n        /* \"--CODEGEN--\":3516:3538   */\n      add\n        /* \"--CODEGEN--\":3485:3548   */\n      jump(tag_331)\n    tag_370:\n        /* \"--CODEGEN--\":3475:3548   */\n      swap6\n      pop\n        /* \"--CODEGEN--\":3360:3554   */\n      pop\n        /* \"--CODEGEN--\":3613:3616   */\n      0x80\n        /* \"--CODEGEN--\":3602:3611   */\n      dup10\n        /* \"--CODEGEN--\":3598:3617   */\n      add\n        /* \"--CODEGEN--\":3585:3618   */\n      calldataload\n        /* \"--CODEGEN--\":3638:3656   */\n      0xffffffffffffffff\n        /* \"--CODEGEN--\":3630:3636   */\n      dup2\n        /* \"--CODEGEN--\":3627:3657   */\n      gt\n        /* \"--CODEGEN--\":3624:3626   */\n      iszero\n      tag_371\n      jumpi\n        /* \"--CODEGEN--\":3670:3671   */\n      0x0\n        /* \"--CODEGEN--\":3667:3668   */\n      dup1\n        /* \"--CODEGEN--\":3660:3672   */\n      revert\n        /* \"--CODEGEN--\":3624:3626   */\n    tag_371:\n        /* \"--CODEGEN--\":3690:3753   */\n      tag_372\n        /* \"--CODEGEN--\":3745:3752   */\n      dup12\n        /* \"--CODEGEN--\":3736:3742   */\n      dup3\n        /* \"--CODEGEN--\":3725:3734   */\n      dup13\n        /* \"--CODEGEN--\":3721:3743   */\n      add\n        /* \"--CODEGEN--\":3690:3753   */\n      jump(tag_331)\n    tag_372:\n        /* \"--CODEGEN--\":3680:3753   */\n      swap5\n      pop\n        /* \"--CODEGEN--\":3564:3759   */\n      pop\n        /* \"--CODEGEN--\":3818:3821   */\n      0xa0\n        /* \"--CODEGEN--\":3807:3816   */\n      dup10\n        /* \"--CODEGEN--\":3803:3822   */\n      add\n        /* \"--CODEGEN--\":3790:3823   */\n      calldataload\n        /* \"--CODEGEN--\":3843:3861   */\n      0xffffffffffffffff\n        /* \"--CODEGEN--\":3835:3841   */\n      dup2\n        /* \"--CODEGEN--\":3832:3862   */\n      gt\n        /* \"--CODEGEN--\":3829:3831   */\n      iszero\n      tag_373\n      jumpi\n        /* \"--CODEGEN--\":3875:3876   */\n      0x0\n        /* \"--CODEGEN--\":3872:3873   */\n      dup1\n        /* \"--CODEGEN--\":3865:3877   */\n      revert\n        /* \"--CODEGEN--\":3829:3831   */\n    tag_373:\n        /* \"--CODEGEN--\":3895:3958   */\n      tag_374\n        /* \"--CODEGEN--\":3950:3957   */\n      dup12\n        /* \"--CODEGEN--\":3941:3947   */\n      dup3\n        /* \"--CODEGEN--\":3930:3939   */\n      dup13\n        /* \"--CODEGEN--\":3926:3948   */\n      add\n        /* \"--CODEGEN--\":3895:3958   */\n      jump(tag_331)\n    tag_374:\n        /* \"--CODEGEN--\":3885:3958   */\n      swap4\n      pop\n        /* \"--CODEGEN--\":3769:3964   */\n      pop\n        /* \"--CODEGEN--\":4023:4026   */\n      0xc0\n        /* \"--CODEGEN--\":4012:4021   */\n      dup10\n        /* \"--CODEGEN--\":4008:4027   */\n      add\n        /* \"--CODEGEN--\":3995:4028   */\n      calldataload\n        /* \"--CODEGEN--\":4048:4066   */\n      0xffffffffffffffff\n        /* \"--CODEGEN--\":4040:4046   */\n      dup2\n        /* \"--CODEGEN--\":4037:4067   */\n      gt\n        /* \"--CODEGEN--\":4034:4036   */\n      iszero\n      tag_375\n      jumpi\n        /* \"--CODEGEN--\":4080:4081   */\n      0x0\n        /* \"--CODEGEN--\":4077:4078   */\n      dup1\n        /* \"--CODEGEN--\":4070:4082   */\n      revert\n        /* \"--CODEGEN--\":4034:4036   */\n    tag_375:\n        /* \"--CODEGEN--\":4100:4163   */\n      tag_376\n        /* \"--CODEGEN--\":4155:4162   */\n      dup12\n        /* \"--CODEGEN--\":4146:4152   */\n      dup3\n        /* \"--CODEGEN--\":4135:4144   */\n      dup13\n        /* \"--CODEGEN--\":4131:4153   */\n      add\n        /* \"--CODEGEN--\":4100:4163   */\n      jump(tag_331)\n    tag_376:\n        /* \"--CODEGEN--\":4090:4163   */\n      swap3\n      pop\n        /* \"--CODEGEN--\":3974:4169   */\n      pop\n        /* \"--CODEGEN--\":4228:4231   */\n      0xe0\n        /* \"--CODEGEN--\":4217:4226   */\n      dup10\n        /* \"--CODEGEN--\":4213:4232   */\n      add\n        /* \"--CODEGEN--\":4200:4233   */\n      calldataload\n        /* \"--CODEGEN--\":4253:4271   */\n      0xffffffffffffffff\n        /* \"--CODEGEN--\":4245:4251   */\n      dup2\n        /* \"--CODEGEN--\":4242:4272   */\n      gt\n        /* \"--CODEGEN--\":4239:4241   */\n      iszero\n      tag_377\n      jumpi\n        /* \"--CODEGEN--\":4285:4286   */\n      0x0\n        /* \"--CODEGEN--\":4282:4283   */\n      dup1\n        /* \"--CODEGEN--\":4275:4287   */\n      revert\n        /* \"--CODEGEN--\":4239:4241   */\n    tag_377:\n        /* \"--CODEGEN--\":4305:4368   */\n      tag_378\n        /* \"--CODEGEN--\":4360:4367   */\n      dup12\n        /* \"--CODEGEN--\":4351:4357   */\n      dup3\n        /* \"--CODEGEN--\":4340:4349   */\n      dup13\n        /* \"--CODEGEN--\":4336:4358   */\n      add\n        /* \"--CODEGEN--\":4305:4368   */\n      jump(tag_331)\n    tag_378:\n        /* \"--CODEGEN--\":4295:4368   */\n      swap2\n      pop\n        /* \"--CODEGEN--\":4179:4374   */\n      pop\n        /* \"--CODEGEN--\":2776:4384   */\n      swap3\n      swap6\n      swap9\n      pop\n      swap3\n      swap6\n      swap9\n      swap1\n      swap4\n      swap7\n      pop\n      jump\n        /* \"--CODEGEN--\":4391:6718   */\n    tag_89:\n      0x0\n      dup1\n      0x0\n      dup1\n      0x0\n      dup1\n      0x0\n      dup1\n      0x0\n      dup1\n        /* \"--CODEGEN--\":4738:4741   */\n      0x140\n        /* \"--CODEGEN--\":4726:4735   */\n      dup12\n        /* \"--CODEGEN--\":4717:4724   */\n      dup14\n        /* \"--CODEGEN--\":4713:4736   */\n      sub\n        /* \"--CODEGEN--\":4709:4742   */\n      slt\n        /* \"--CODEGEN--\":4706:4708   */\n      iszero\n      tag_380\n      jumpi\n        /* \"--CODEGEN--\":4755:4756   */\n      0x0\n        /* \"--CODEGEN--\":4752:4753   */\n      dup1\n        /* \"--CODEGEN--\":4745:4757   */\n      revert\n        /* \"--CODEGEN--\":4706:4708   */\n    tag_380:\n        /* \"--CODEGEN--\":4790:4791   */\n      0x0\n        /* \"--CODEGEN--\":4807:4860   */\n      tag_381\n        /* \"--CODEGEN--\":4852:4859   */\n      dup14\n        /* \"--CODEGEN--\":4843:4849   */\n      dup3\n        /* \"--CODEGEN--\":4832:4841   */\n      dup15\n        /* \"--CODEGEN--\":4828:4850   */\n      add\n        /* \"--CODEGEN--\":4807:4860   */\n      jump(tag_327)\n    tag_381:\n        /* \"--CODEGEN--\":4797:4860   */\n      swap11\n      pop\n        /* \"--CODEGEN--\":4769:4866   */\n      pop\n        /* \"--CODEGEN--\":4925:4927   */\n      0x20\n        /* \"--CODEGEN--\":4914:4923   */\n      dup12\n        /* \"--CODEGEN--\":4910:4928   */\n      add\n        /* \"--CODEGEN--\":4897:4929   */\n      calldataload\n        /* \"--CODEGEN--\":4949:4967   */\n      0xffffffffffffffff\n        /* \"--CODEGEN--\":4941:4947   */\n      dup2\n        /* \"--CODEGEN--\":4938:4968   */\n      gt\n        /* \"--CODEGEN--\":4935:4937   */\n      iszero\n      tag_382\n      jumpi\n        /* \"--CODEGEN--\":4981:4982   */\n      0x0\n        /* \"--CODEGEN--\":4978:4979   */\n      dup1\n        /* \"--CODEGEN--\":4971:4983   */\n      revert\n        /* \"--CODEGEN--\":4935:4937   */\n    tag_382:\n        /* \"--CODEGEN--\":5001:5064   */\n      tag_383\n        /* \"--CODEGEN--\":5056:5063   */\n      dup14\n        /* \"--CODEGEN--\":5047:5053   */\n      dup3\n        /* \"--CODEGEN--\":5036:5045   */\n      dup15\n        /* \"--CODEGEN--\":5032:5054   */\n      add\n        /* \"--CODEGEN--\":5001:5064   */\n      jump(tag_331)\n    tag_383:\n        /* \"--CODEGEN--\":4991:5064   */\n      swap10\n      pop\n        /* \"--CODEGEN--\":4876:5070   */\n      pop\n        /* \"--CODEGEN--\":5129:5131   */\n      0x40\n        /* \"--CODEGEN--\":5118:5127   */\n      dup12\n        /* \"--CODEGEN--\":5114:5132   */\n      add\n        /* \"--CODEGEN--\":5101:5133   */\n      calldataload\n        /* \"--CODEGEN--\":5153:5171   */\n      0xffffffffffffffff\n        /* \"--CODEGEN--\":5145:5151   */\n      dup2\n        /* \"--CODEGEN--\":5142:5172   */\n      gt\n        /* \"--CODEGEN--\":5139:5141   */\n      iszero\n      tag_384\n      jumpi\n        /* \"--CODEGEN--\":5185:5186   */\n      0x0\n        /* \"--CODEGEN--\":5182:5183   */\n      dup1\n        /* \"--CODEGEN--\":5175:5187   */\n      revert\n        /* \"--CODEGEN--\":5139:5141   */\n    tag_384:\n        /* \"--CODEGEN--\":5205:5268   */\n      tag_385\n        /* \"--CODEGEN--\":5260:5267   */\n      dup14\n        /* \"--CODEGEN--\":5251:5257   */\n      dup3\n        /* \"--CODEGEN--\":5240:5249   */\n      dup15\n        /* \"--CODEGEN--\":5236:5258   */\n      add\n        /* \"--CODEGEN--\":5205:5268   */\n      jump(tag_331)\n    tag_385:\n        /* \"--CODEGEN--\":5195:5268   */\n      swap9\n      pop\n        /* \"--CODEGEN--\":5080:5274   */\n      pop\n        /* \"--CODEGEN--\":5333:5335   */\n      0x60\n        /* \"--CODEGEN--\":5322:5331   */\n      dup12\n        /* \"--CODEGEN--\":5318:5336   */\n      add\n        /* \"--CODEGEN--\":5305:5337   */\n      calldataload\n        /* \"--CODEGEN--\":5357:5375   */\n      0xffffffffffffffff\n        /* \"--CODEGEN--\":5349:5355   */\n      dup2\n        /* \"--CODEGEN--\":5346:5376   */\n      gt\n        /* \"--CODEGEN--\":5343:5345   */\n      iszero\n      tag_386\n      jumpi\n        /* \"--CODEGEN--\":5389:5390   */\n      0x0\n        /* \"--CODEGEN--\":5386:5387   */\n      dup1\n        /* \"--CODEGEN--\":5379:5391   */\n      revert\n        /* \"--CODEGEN--\":5343:5345   */\n    tag_386:\n        /* \"--CODEGEN--\":5409:5472   */\n      tag_387\n        /* \"--CODEGEN--\":5464:5471   */\n      dup14\n        /* \"--CODEGEN--\":5455:5461   */\n      dup3\n        /* \"--CODEGEN--\":5444:5453   */\n      dup15\n        /* \"--CODEGEN--\":5440:5462   */\n      add\n        /* \"--CODEGEN--\":5409:5472   */\n      jump(tag_331)\n    tag_387:\n        /* \"--CODEGEN--\":5399:5472   */\n      swap8\n      pop\n        /* \"--CODEGEN--\":5284:5478   */\n      pop\n        /* \"--CODEGEN--\":5537:5540   */\n      0x80\n        /* \"--CODEGEN--\":5526:5535   */\n      dup12\n        /* \"--CODEGEN--\":5522:5541   */\n      add\n        /* \"--CODEGEN--\":5509:5542   */\n      calldataload\n        /* \"--CODEGEN--\":5562:5580   */\n      0xffffffffffffffff\n        /* \"--CODEGEN--\":5554:5560   */\n      dup2\n        /* \"--CODEGEN--\":5551:5581   */\n      gt\n        /* \"--CODEGEN--\":5548:5550   */\n      iszero\n      tag_388\n      jumpi\n        /* \"--CODEGEN--\":5594:5595   */\n      0x0\n        /* \"--CODEGEN--\":5591:5592   */\n      dup1\n        /* \"--CODEGEN--\":5584:5596   */\n      revert\n        /* \"--CODEGEN--\":5548:5550   */\n    tag_388:\n        /* \"--CODEGEN--\":5614:5677   */\n      tag_389\n        /* \"--CODEGEN--\":5669:5676   */\n      dup14\n        /* \"--CODEGEN--\":5660:5666   */\n      dup3\n        /* \"--CODEGEN--\":5649:5658   */\n      dup15\n        /* \"--CODEGEN--\":5645:5667   */\n      add\n        /* \"--CODEGEN--\":5614:5677   */\n      jump(tag_331)\n    tag_389:\n        /* \"--CODEGEN--\":5604:5677   */\n      swap7\n      pop\n        /* \"--CODEGEN--\":5488:5683   */\n      pop\n        /* \"--CODEGEN--\":5742:5745   */\n      0xa0\n        /* \"--CODEGEN--\":5731:5740   */\n      dup12\n        /* \"--CODEGEN--\":5727:5746   */\n      add\n        /* \"--CODEGEN--\":5714:5747   */\n      calldataload\n        /* \"--CODEGEN--\":5767:5785   */\n      0xffffffffffffffff\n        /* \"--CODEGEN--\":5759:5765   */\n      dup2\n        /* \"--CODEGEN--\":5756:5786   */\n      gt\n        /* \"--CODEGEN--\":5753:5755   */\n      iszero\n      tag_390\n      jumpi\n        /* \"--CODEGEN--\":5799:5800   */\n      0x0\n        /* \"--CODEGEN--\":5796:5797   */\n      dup1\n        /* \"--CODEGEN--\":5789:5801   */\n      revert\n        /* \"--CODEGEN--\":5753:5755   */\n    tag_390:\n        /* \"--CODEGEN--\":5819:5882   */\n      tag_391\n        /* \"--CODEGEN--\":5874:5881   */\n      dup14\n        /* \"--CODEGEN--\":5865:5871   */\n      dup3\n        /* \"--CODEGEN--\":5854:5863   */\n      dup15\n        /* \"--CODEGEN--\":5850:5872   */\n      add\n        /* \"--CODEGEN--\":5819:5882   */\n      jump(tag_331)\n    tag_391:\n        /* \"--CODEGEN--\":5809:5882   */\n      swap6\n      pop\n        /* \"--CODEGEN--\":5693:5888   */\n      pop\n        /* \"--CODEGEN--\":5947:5950   */\n      0xc0\n        /* \"--CODEGEN--\":5936:5945   */\n      dup12\n        /* \"--CODEGEN--\":5932:5951   */\n      add\n        /* \"--CODEGEN--\":5919:5952   */\n      calldataload\n        /* \"--CODEGEN--\":5972:5990   */\n      0xffffffffffffffff\n        /* \"--CODEGEN--\":5964:5970   */\n      dup2\n        /* \"--CODEGEN--\":5961:5991   */\n      gt\n        /* \"--CODEGEN--\":5958:5960   */\n      iszero\n      tag_392\n      jumpi\n        /* \"--CODEGEN--\":6004:6005   */\n      0x0\n        /* \"--CODEGEN--\":6001:6002   */\n      dup1\n        /* \"--CODEGEN--\":5994:6006   */\n      revert\n        /* \"--CODEGEN--\":5958:5960   */\n    tag_392:\n        /* \"--CODEGEN--\":6024:6087   */\n      tag_393\n        /* \"--CODEGEN--\":6079:6086   */\n      dup14\n        /* \"--CODEGEN--\":6070:6076   */\n      dup3\n        /* \"--CODEGEN--\":6059:6068   */\n      dup15\n        /* \"--CODEGEN--\":6055:6077   */\n      add\n        /* \"--CODEGEN--\":6024:6087   */\n      jump(tag_331)\n    tag_393:\n        /* \"--CODEGEN--\":6014:6087   */\n      swap5\n      pop\n        /* \"--CODEGEN--\":5898:6093   */\n      pop\n        /* \"--CODEGEN--\":6152:6155   */\n      0xe0\n        /* \"--CODEGEN--\":6141:6150   */\n      dup12\n        /* \"--CODEGEN--\":6137:6156   */\n      add\n        /* \"--CODEGEN--\":6124:6157   */\n      calldataload\n        /* \"--CODEGEN--\":6177:6195   */\n      0xffffffffffffffff\n        /* \"--CODEGEN--\":6169:6175   */\n      dup2\n        /* \"--CODEGEN--\":6166:6196   */\n      gt\n        /* \"--CODEGEN--\":6163:6165   */\n      iszero\n      tag_394\n      jumpi\n        /* \"--CODEGEN--\":6209:6210   */\n      0x0\n        /* \"--CODEGEN--\":6206:6207   */\n      dup1\n        /* \"--CODEGEN--\":6199:6211   */\n      revert\n        /* \"--CODEGEN--\":6163:6165   */\n    tag_394:\n        /* \"--CODEGEN--\":6229:6292   */\n      tag_395\n        /* \"--CODEGEN--\":6284:6291   */\n      dup14\n        /* \"--CODEGEN--\":6275:6281   */\n      dup3\n        /* \"--CODEGEN--\":6264:6273   */\n      dup15\n        /* \"--CODEGEN--\":6260:6282   */\n      add\n        /* \"--CODEGEN--\":6229:6292   */\n      jump(tag_331)\n    tag_395:\n        /* \"--CODEGEN--\":6219:6292   */\n      swap4\n      pop\n        /* \"--CODEGEN--\":6103:6298   */\n      pop\n        /* \"--CODEGEN--\":6357:6360   */\n      0x100\n        /* \"--CODEGEN--\":6346:6355   */\n      dup12\n        /* \"--CODEGEN--\":6342:6361   */\n      add\n        /* \"--CODEGEN--\":6329:6362   */\n      calldataload\n        /* \"--CODEGEN--\":6382:6400   */\n      0xffffffffffffffff\n        /* \"--CODEGEN--\":6374:6380   */\n      dup2\n        /* \"--CODEGEN--\":6371:6401   */\n      gt\n        /* \"--CODEGEN--\":6368:6370   */\n      iszero\n      tag_396\n      jumpi\n        /* \"--CODEGEN--\":6414:6415   */\n      0x0\n        /* \"--CODEGEN--\":6411:6412   */\n      dup1\n        /* \"--CODEGEN--\":6404:6416   */\n      revert\n        /* \"--CODEGEN--\":6368:6370   */\n    tag_396:\n        /* \"--CODEGEN--\":6434:6497   */\n      tag_397\n        /* \"--CODEGEN--\":6489:6496   */\n      dup14\n        /* \"--CODEGEN--\":6480:6486   */\n      dup3\n        /* \"--CODEGEN--\":6469:6478   */\n      dup15\n        /* \"--CODEGEN--\":6465:6487   */\n      add\n        /* \"--CODEGEN--\":6434:6497   */\n      jump(tag_331)\n    tag_397:\n        /* \"--CODEGEN--\":6424:6497   */\n      swap3\n      pop\n        /* \"--CODEGEN--\":6308:6503   */\n      pop\n        /* \"--CODEGEN--\":6562:6565   */\n      0x120\n        /* \"--CODEGEN--\":6551:6560   */\n      dup12\n        /* \"--CODEGEN--\":6547:6566   */\n      add\n        /* \"--CODEGEN--\":6534:6567   */\n      calldataload\n        /* \"--CODEGEN--\":6587:6605   */\n      0xffffffffffffffff\n        /* \"--CODEGEN--\":6579:6585   */\n      dup2\n        /* \"--CODEGEN--\":6576:6606   */\n      gt\n        /* \"--CODEGEN--\":6573:6575   */\n      iszero\n      tag_398\n      jumpi\n        /* \"--CODEGEN--\":6619:6620   */\n      0x0\n        /* \"--CODEGEN--\":6616:6617   */\n      dup1\n        /* \"--CODEGEN--\":6609:6621   */\n      revert\n        /* \"--CODEGEN--\":6573:6575   */\n    tag_398:\n        /* \"--CODEGEN--\":6639:6702   */\n      tag_399\n        /* \"--CODEGEN--\":6694:6701   */\n      dup14\n        /* \"--CODEGEN--\":6685:6691   */\n      dup3\n        /* \"--CODEGEN--\":6674:6683   */\n      dup15\n        /* \"--CODEGEN--\":6670:6692   */\n      add\n        /* \"--CODEGEN--\":6639:6702   */\n      jump(tag_331)\n    tag_399:\n        /* \"--CODEGEN--\":6629:6702   */\n      swap2\n      pop\n        /* \"--CODEGEN--\":6513:6708   */\n      pop\n        /* \"--CODEGEN--\":4700:6718   */\n      swap3\n      swap6\n      swap9\n      swap12\n      swap2\n      swap5\n      swap8\n      swap11\n      pop\n      swap3\n      swap6\n      swap9\n      pop\n      jump\n        /* \"--CODEGEN--\":6725:6966   */\n    tag_56:\n      0x0\n        /* \"--CODEGEN--\":6829:6831   */\n      0x20\n        /* \"--CODEGEN--\":6817:6826   */\n      dup3\n        /* \"--CODEGEN--\":6808:6815   */\n      dup5\n        /* \"--CODEGEN--\":6804:6827   */\n      sub\n        /* \"--CODEGEN--\":6800:6832   */\n      slt\n        /* \"--CODEGEN--\":6797:6799   */\n      iszero\n      tag_401\n      jumpi\n        /* \"--CODEGEN--\":6845:6846   */\n      0x0\n        /* \"--CODEGEN--\":6842:6843   */\n      dup1\n        /* \"--CODEGEN--\":6835:6847   */\n      revert\n        /* \"--CODEGEN--\":6797:6799   */\n    tag_401:\n        /* \"--CODEGEN--\":6880:6881   */\n      0x0\n        /* \"--CODEGEN--\":6897:6950   */\n      tag_402\n        /* \"--CODEGEN--\":6942:6949   */\n      dup5\n        /* \"--CODEGEN--\":6933:6939   */\n      dup3\n        /* \"--CODEGEN--\":6922:6931   */\n      dup6\n        /* \"--CODEGEN--\":6918:6940   */\n      add\n        /* \"--CODEGEN--\":6897:6950   */\n      jump(tag_341)\n    tag_402:\n        /* \"--CODEGEN--\":6887:6950   */\n      swap2\n      pop\n        /* \"--CODEGEN--\":6859:6956   */\n      pop\n        /* \"--CODEGEN--\":6791:6966   */\n      swap3\n      swap2\n      pop\n      pop\n      jump\n        /* \"--CODEGEN--\":6973:7083   */\n    tag_404:\n        /* \"--CODEGEN--\":7046:7077   */\n      tag_405\n        /* \"--CODEGEN--\":7071:7076   */\n      dup2\n        /* \"--CODEGEN--\":7046:7077   */\n      jump(tag_406)\n    tag_405:\n        /* \"--CODEGEN--\":7041:7044   */\n      dup3\n        /* \"--CODEGEN--\":7034:7078   */\n      mstore\n        /* \"--CODEGEN--\":7028:7083   */\n      pop\n      pop\n      jump\n        /* \"--CODEGEN--\":7121:7711   */\n    tag_408:\n      0x0\n        /* \"--CODEGEN--\":7256:7310   */\n      tag_409\n        /* \"--CODEGEN--\":7304:7309   */\n      dup3\n        /* \"--CODEGEN--\":7256:7310   */\n      jump(tag_410)\n    tag_409:\n        /* \"--CODEGEN--\":7328:7334   */\n      dup1\n        /* \"--CODEGEN--\":7323:7326   */\n      dup5\n        /* \"--CODEGEN--\":7316:7335   */\n      mstore\n        /* \"--CODEGEN--\":7352:7356   */\n      0x20\n        /* \"--CODEGEN--\":7347:7350   */\n      dup5\n        /* \"--CODEGEN--\":7343:7357   */\n      add\n        /* \"--CODEGEN--\":7336:7357   */\n      swap4\n      pop\n        /* \"--CODEGEN--\":7397:7453   */\n      tag_411\n        /* \"--CODEGEN--\":7447:7452   */\n      dup4\n        /* \"--CODEGEN--\":7397:7453   */\n      jump(tag_412)\n    tag_411:\n        /* \"--CODEGEN--\":7474:7475   */\n      0x0\n        /* \"--CODEGEN--\":7459:7689   */\n    tag_413:\n        /* \"--CODEGEN--\":7484:7490   */\n      dup3\n        /* \"--CODEGEN--\":7481:7482   */\n      dup2\n        /* \"--CODEGEN--\":7478:7491   */\n      lt\n        /* \"--CODEGEN--\":7459:7689   */\n      iszero\n      tag_414\n      jumpi\n        /* \"--CODEGEN--\":7524:7577   */\n      tag_416\n        /* \"--CODEGEN--\":7573:7576   */\n      dup7\n        /* \"--CODEGEN--\":7564:7570   */\n      dup4\n        /* \"--CODEGEN--\":7558:7571   */\n      mload\n        /* \"--CODEGEN--\":7524:7577   */\n      jump(tag_404)\n    tag_416:\n        /* \"--CODEGEN--\":7594:7654   */\n      tag_417\n        /* \"--CODEGEN--\":7647:7653   */\n      dup3\n        /* \"--CODEGEN--\":7594:7654   */\n      jump(tag_418)\n    tag_417:\n        /* \"--CODEGEN--\":7584:7654   */\n      swap2\n      pop\n        /* \"--CODEGEN--\":7677:7681   */\n      0x20\n        /* \"--CODEGEN--\":7672:7675   */\n      dup7\n        /* \"--CODEGEN--\":7668:7682   */\n      add\n        /* \"--CODEGEN--\":7661:7682   */\n      swap6\n      pop\n        /* \"--CODEGEN--\":7506:7507   */\n      0x1\n        /* \"--CODEGEN--\":7503:7504   */\n      dup2\n        /* \"--CODEGEN--\":7499:7508   */\n      add\n        /* \"--CODEGEN--\":7494:7508   */\n      swap1\n      pop\n        /* \"--CODEGEN--\":7459:7689   */\n      jump(tag_413)\n    tag_414:\n        /* \"--CODEGEN--\":7463:7477   */\n      pop\n        /* \"--CODEGEN--\":7702:7705   */\n      dup5\n        /* \"--CODEGEN--\":7695:7705   */\n      swap3\n      pop\n        /* \"--CODEGEN--\":7235:7711   */\n      pop\n      pop\n      swap3\n      swap2\n      pop\n      pop\n      jump\n        /* \"--CODEGEN--\":7719:7820   */\n    tag_420:\n        /* \"--CODEGEN--\":7786:7814   */\n      tag_421\n        /* \"--CODEGEN--\":7808:7813   */\n      dup2\n        /* \"--CODEGEN--\":7786:7814   */\n      jump(tag_422)\n    tag_421:\n        /* \"--CODEGEN--\":7781:7784   */\n      dup3\n        /* \"--CODEGEN--\":7774:7815   */\n      mstore\n        /* \"--CODEGEN--\":7768:7820   */\n      pop\n      pop\n      jump\n        /* \"--CODEGEN--\":7827:8127   */\n    tag_424:\n      0x0\n        /* \"--CODEGEN--\":7929:7968   */\n      tag_425\n        /* \"--CODEGEN--\":7962:7967   */\n      dup3\n        /* \"--CODEGEN--\":7929:7968   */\n      jump(tag_426)\n    tag_425:\n        /* \"--CODEGEN--\":7985:7991   */\n      dup1\n        /* \"--CODEGEN--\":7980:7983   */\n      dup5\n        /* \"--CODEGEN--\":7973:7992   */\n      mstore\n        /* \"--CODEGEN--\":7997:8060   */\n      tag_427\n        /* \"--CODEGEN--\":8053:8059   */\n      dup2\n        /* \"--CODEGEN--\":8046:8050   */\n      0x20\n        /* \"--CODEGEN--\":8041:8044   */\n      dup7\n        /* \"--CODEGEN--\":8037:8051   */\n      add\n        /* \"--CODEGEN--\":8030:8034   */\n      0x20\n        /* \"--CODEGEN--\":8023:8028   */\n      dup7\n        /* \"--CODEGEN--\":8019:8035   */\n      add\n        /* \"--CODEGEN--\":7997:8060   */\n      jump(tag_428)\n    tag_427:\n        /* \"--CODEGEN--\":8092:8121   */\n      tag_429\n        /* \"--CODEGEN--\":8114:8120   */\n      dup2\n        /* \"--CODEGEN--\":8092:8121   */\n      jump(tag_430)\n    tag_429:\n        /* \"--CODEGEN--\":8085:8089   */\n      0x20\n        /* \"--CODEGEN--\":8080:8083   */\n      dup6\n        /* \"--CODEGEN--\":8076:8090   */\n      add\n        /* \"--CODEGEN--\":8072:8122   */\n      add\n        /* \"--CODEGEN--\":8065:8122   */\n      swap2\n      pop\n        /* \"--CODEGEN--\":7909:8127   */\n      pop\n      swap3\n      swap2\n      pop\n      pop\n      jump\n        /* \"--CODEGEN--\":8134:8244   */\n    tag_432:\n        /* \"--CODEGEN--\":8207:8238   */\n      tag_433\n        /* \"--CODEGEN--\":8232:8237   */\n      dup2\n        /* \"--CODEGEN--\":8207:8238   */\n      jump(tag_434)\n    tag_433:\n        /* \"--CODEGEN--\":8202:8205   */\n      dup3\n        /* \"--CODEGEN--\":8195:8239   */\n      mstore\n        /* \"--CODEGEN--\":8189:8244   */\n      pop\n      pop\n      jump\n        /* \"--CODEGEN--\":8251:8444   */\n    tag_59:\n      0x0\n        /* \"--CODEGEN--\":8359:8361   */\n      0x20\n        /* \"--CODEGEN--\":8348:8357   */\n      dup3\n        /* \"--CODEGEN--\":8344:8362   */\n      add\n        /* \"--CODEGEN--\":8336:8362   */\n      swap1\n      pop\n        /* \"--CODEGEN--\":8373:8434   */\n      tag_436\n        /* \"--CODEGEN--\":8431:8432   */\n      0x0\n        /* \"--CODEGEN--\":8420:8429   */\n      dup4\n        /* \"--CODEGEN--\":8416:8433   */\n      add\n        /* \"--CODEGEN--\":8407:8413   */\n      dup5\n        /* \"--CODEGEN--\":8373:8434   */\n      jump(tag_404)\n    tag_436:\n        /* \"--CODEGEN--\":8330:8444   */\n      swap3\n      swap2\n      pop\n      pop\n      jump\n        /* \"--CODEGEN--\":8451:8792   */\n    tag_36:\n      0x0\n        /* \"--CODEGEN--\":8609:8611   */\n      0x20\n        /* \"--CODEGEN--\":8598:8607   */\n      dup3\n        /* \"--CODEGEN--\":8594:8612   */\n      add\n        /* \"--CODEGEN--\":8586:8612   */\n      swap1\n      pop\n        /* \"--CODEGEN--\":8659:8668   */\n      dup2\n        /* \"--CODEGEN--\":8653:8657   */\n      dup2\n        /* \"--CODEGEN--\":8649:8669   */\n      sub\n        /* \"--CODEGEN--\":8645:8646   */\n      0x0\n        /* \"--CODEGEN--\":8634:8643   */\n      dup4\n        /* \"--CODEGEN--\":8630:8647   */\n      add\n        /* \"--CODEGEN--\":8623:8670   */\n      mstore\n        /* \"--CODEGEN--\":8684:8782   */\n      tag_438\n        /* \"--CODEGEN--\":8777:8781   */\n      dup2\n        /* \"--CODEGEN--\":8768:8774   */\n      dup5\n        /* \"--CODEGEN--\":8684:8782   */\n      jump(tag_408)\n    tag_438:\n        /* \"--CODEGEN--\":8676:8782   */\n      swap1\n      pop\n        /* \"--CODEGEN--\":8580:8792   */\n      swap3\n      swap2\n      pop\n      pop\n      jump\n        /* \"--CODEGEN--\":8799:8980   */\n    tag_74:\n      0x0\n        /* \"--CODEGEN--\":8901:8903   */\n      0x20\n        /* \"--CODEGEN--\":8890:8899   */\n      dup3\n        /* \"--CODEGEN--\":8886:8904   */\n      add\n        /* \"--CODEGEN--\":8878:8904   */\n      swap1\n      pop\n        /* \"--CODEGEN--\":8915:8970   */\n      tag_440\n        /* \"--CODEGEN--\":8967:8968   */\n      0x0\n        /* \"--CODEGEN--\":8956:8965   */\n      dup4\n        /* \"--CODEGEN--\":8952:8969   */\n      add\n        /* \"--CODEGEN--\":8943:8949   */\n      dup5\n        /* \"--CODEGEN--\":8915:8970   */\n      jump(tag_420)\n    tag_440:\n        /* \"--CODEGEN--\":8872:8980   */\n      swap3\n      swap2\n      pop\n      pop\n      jump\n        /* \"--CODEGEN--\":8987:10508   */\n    tag_48:\n      0x0\n        /* \"--CODEGEN--\":9431:9434   */\n      0x100\n        /* \"--CODEGEN--\":9420:9429   */\n      dup3\n        /* \"--CODEGEN--\":9416:9435   */\n      add\n        /* \"--CODEGEN--\":9408:9435   */\n      swap1\n      pop\n        /* \"--CODEGEN--\":9482:9491   */\n      dup2\n        /* \"--CODEGEN--\":9476:9480   */\n      dup2\n        /* \"--CODEGEN--\":9472:9492   */\n      sub\n        /* \"--CODEGEN--\":9468:9469   */\n      0x0\n        /* \"--CODEGEN--\":9457:9466   */\n      dup4\n        /* \"--CODEGEN--\":9453:9470   */\n      add\n        /* \"--CODEGEN--\":9446:9493   */\n      mstore\n        /* \"--CODEGEN--\":9507:9575   */\n      tag_442\n        /* \"--CODEGEN--\":9570:9574   */\n      dup2\n        /* \"--CODEGEN--\":9561:9567   */\n      dup12\n        /* \"--CODEGEN--\":9507:9575   */\n      jump(tag_424)\n    tag_442:\n        /* \"--CODEGEN--\":9499:9575   */\n      swap1\n      pop\n        /* \"--CODEGEN--\":9623:9632   */\n      dup2\n        /* \"--CODEGEN--\":9617:9621   */\n      dup2\n        /* \"--CODEGEN--\":9613:9633   */\n      sub\n        /* \"--CODEGEN--\":9608:9610   */\n      0x20\n        /* \"--CODEGEN--\":9597:9606   */\n      dup4\n        /* \"--CODEGEN--\":9593:9611   */\n      add\n        /* \"--CODEGEN--\":9586:9634   */\n      mstore\n        /* \"--CODEGEN--\":9648:9716   */\n      tag_443\n        /* \"--CODEGEN--\":9711:9715   */\n      dup2\n        /* \"--CODEGEN--\":9702:9708   */\n      dup11\n        /* \"--CODEGEN--\":9648:9716   */\n      jump(tag_424)\n    tag_443:\n        /* \"--CODEGEN--\":9640:9716   */\n      swap1\n      pop\n        /* \"--CODEGEN--\":9764:9773   */\n      dup2\n        /* \"--CODEGEN--\":9758:9762   */\n      dup2\n        /* \"--CODEGEN--\":9754:9774   */\n      sub\n        /* \"--CODEGEN--\":9749:9751   */\n      0x40\n        /* \"--CODEGEN--\":9738:9747   */\n      dup4\n        /* \"--CODEGEN--\":9734:9752   */\n      add\n        /* \"--CODEGEN--\":9727:9775   */\n      mstore\n        /* \"--CODEGEN--\":9789:9857   */\n      tag_444\n        /* \"--CODEGEN--\":9852:9856   */\n      dup2\n        /* \"--CODEGEN--\":9843:9849   */\n      dup10\n        /* \"--CODEGEN--\":9789:9857   */\n      jump(tag_424)\n    tag_444:\n        /* \"--CODEGEN--\":9781:9857   */\n      swap1\n      pop\n        /* \"--CODEGEN--\":9905:9914   */\n      dup2\n        /* \"--CODEGEN--\":9899:9903   */\n      dup2\n        /* \"--CODEGEN--\":9895:9915   */\n      sub\n        /* \"--CODEGEN--\":9890:9892   */\n      0x60\n        /* \"--CODEGEN--\":9879:9888   */\n      dup4\n        /* \"--CODEGEN--\":9875:9893   */\n      add\n        /* \"--CODEGEN--\":9868:9916   */\n      mstore\n        /* \"--CODEGEN--\":9930:9998   */\n      tag_445\n        /* \"--CODEGEN--\":9993:9997   */\n      dup2\n        /* \"--CODEGEN--\":9984:9990   */\n      dup9\n        /* \"--CODEGEN--\":9930:9998   */\n      jump(tag_424)\n    tag_445:\n        /* \"--CODEGEN--\":9922:9998   */\n      swap1\n      pop\n        /* \"--CODEGEN--\":10047:10056   */\n      dup2\n        /* \"--CODEGEN--\":10041:10045   */\n      dup2\n        /* \"--CODEGEN--\":10037:10057   */\n      sub\n        /* \"--CODEGEN--\":10031:10034   */\n      0x80\n        /* \"--CODEGEN--\":10020:10029   */\n      dup4\n        /* \"--CODEGEN--\":10016:10035   */\n      add\n        /* \"--CODEGEN--\":10009:10058   */\n      mstore\n        /* \"--CODEGEN--\":10072:10140   */\n      tag_446\n        /* \"--CODEGEN--\":10135:10139   */\n      dup2\n        /* \"--CODEGEN--\":10126:10132   */\n      dup8\n        /* \"--CODEGEN--\":10072:10140   */\n      jump(tag_424)\n    tag_446:\n        /* \"--CODEGEN--\":10064:10140   */\n      swap1\n      pop\n        /* \"--CODEGEN--\":10189:10198   */\n      dup2\n        /* \"--CODEGEN--\":10183:10187   */\n      dup2\n        /* \"--CODEGEN--\":10179:10199   */\n      sub\n        /* \"--CODEGEN--\":10173:10176   */\n      0xa0\n        /* \"--CODEGEN--\":10162:10171   */\n      dup4\n        /* \"--CODEGEN--\":10158:10177   */\n      add\n        /* \"--CODEGEN--\":10151:10200   */\n      mstore\n        /* \"--CODEGEN--\":10214:10282   */\n      tag_447\n        /* \"--CODEGEN--\":10277:10281   */\n      dup2\n        /* \"--CODEGEN--\":10268:10274   */\n      dup7\n        /* \"--CODEGEN--\":10214:10282   */\n      jump(tag_424)\n    tag_447:\n        /* \"--CODEGEN--\":10206:10282   */\n      swap1\n      pop\n        /* \"--CODEGEN--\":10331:10340   */\n      dup2\n        /* \"--CODEGEN--\":10325:10329   */\n      dup2\n        /* \"--CODEGEN--\":10321:10341   */\n      sub\n        /* \"--CODEGEN--\":10315:10318   */\n      0xc0\n        /* \"--CODEGEN--\":10304:10313   */\n      dup4\n        /* \"--CODEGEN--\":10300:10319   */\n      add\n        /* \"--CODEGEN--\":10293:10342   */\n      mstore\n        /* \"--CODEGEN--\":10356:10424   */\n      tag_448\n        /* \"--CODEGEN--\":10419:10423   */\n      dup2\n        /* \"--CODEGEN--\":10410:10416   */\n      dup6\n        /* \"--CODEGEN--\":10356:10424   */\n      jump(tag_424)\n    tag_448:\n        /* \"--CODEGEN--\":10348:10424   */\n      swap1\n      pop\n        /* \"--CODEGEN--\":10435:10498   */\n      tag_449\n        /* \"--CODEGEN--\":10493:10496   */\n      0xe0\n        /* \"--CODEGEN--\":10482:10491   */\n      dup4\n        /* \"--CODEGEN--\":10478:10497   */\n      add\n        /* \"--CODEGEN--\":10469:10475   */\n      dup5\n        /* \"--CODEGEN--\":10435:10498   */\n      jump(tag_404)\n    tag_449:\n        /* \"--CODEGEN--\":9402:10508   */\n      swap10\n      swap9\n      pop\n      pop\n      pop\n      pop\n      pop\n      pop\n      pop\n      pop\n      pop\n      jump\n        /* \"--CODEGEN--\":10515:11480   */\n    tag_113:\n      0x0\n        /* \"--CODEGEN--\":10823:10826   */\n      0xc0\n        /* \"--CODEGEN--\":10812:10821   */\n      dup3\n        /* \"--CODEGEN--\":10808:10827   */\n      add\n        /* \"--CODEGEN--\":10800:10827   */\n      swap1\n      pop\n        /* \"--CODEGEN--\":10874:10883   */\n      dup2\n        /* \"--CODEGEN--\":10868:10872   */\n      dup2\n        /* \"--CODEGEN--\":10864:10884   */\n      sub\n        /* \"--CODEGEN--\":10860:10861   */\n      0x0\n        /* \"--CODEGEN--\":10849:10858   */\n      dup4\n        /* \"--CODEGEN--\":10845:10862   */\n      add\n        /* \"--CODEGEN--\":10838:10885   */\n      mstore\n        /* \"--CODEGEN--\":10899:10967   */\n      tag_451\n        /* \"--CODEGEN--\":10962:10966   */\n      dup2\n        /* \"--CODEGEN--\":10953:10959   */\n      dup10\n        /* \"--CODEGEN--\":10899:10967   */\n      jump(tag_424)\n    tag_451:\n        /* \"--CODEGEN--\":10891:10967   */\n      swap1\n      pop\n        /* \"--CODEGEN--\":11015:11024   */\n      dup2\n        /* \"--CODEGEN--\":11009:11013   */\n      dup2\n        /* \"--CODEGEN--\":11005:11025   */\n      sub\n        /* \"--CODEGEN--\":11000:11002   */\n      0x20\n        /* \"--CODEGEN--\":10989:10998   */\n      dup4\n        /* \"--CODEGEN--\":10985:11003   */\n      add\n        /* \"--CODEGEN--\":10978:11026   */\n      mstore\n        /* \"--CODEGEN--\":11040:11108   */\n      tag_452\n        /* \"--CODEGEN--\":11103:11107   */\n      dup2\n        /* \"--CODEGEN--\":11094:11100   */\n      dup9\n        /* \"--CODEGEN--\":11040:11108   */\n      jump(tag_424)\n    tag_452:\n        /* \"--CODEGEN--\":11032:11108   */\n      swap1\n      pop\n        /* \"--CODEGEN--\":11156:11165   */\n      dup2\n        /* \"--CODEGEN--\":11150:11154   */\n      dup2\n        /* \"--CODEGEN--\":11146:11166   */\n      sub\n        /* \"--CODEGEN--\":11141:11143   */\n      0x40\n        /* \"--CODEGEN--\":11130:11139   */\n      dup4\n        /* \"--CODEGEN--\":11126:11144   */\n      add\n        /* \"--CODEGEN--\":11119:11167   */\n      mstore\n        /* \"--CODEGEN--\":11181:11249   */\n      tag_453\n        /* \"--CODEGEN--\":11244:11248   */\n      dup2\n        /* \"--CODEGEN--\":11235:11241   */\n      dup8\n        /* \"--CODEGEN--\":11181:11249   */\n      jump(tag_424)\n    tag_453:\n        /* \"--CODEGEN--\":11173:11249   */\n      swap1\n      pop\n        /* \"--CODEGEN--\":11260:11322   */\n      tag_454\n        /* \"--CODEGEN--\":11318:11320   */\n      0x60\n        /* \"--CODEGEN--\":11307:11316   */\n      dup4\n        /* \"--CODEGEN--\":11303:11321   */\n      add\n        /* \"--CODEGEN--\":11294:11300   */\n      dup7\n        /* \"--CODEGEN--\":11260:11322   */\n      jump(tag_432)\n    tag_454:\n        /* \"--CODEGEN--\":11333:11396   */\n      tag_455\n        /* \"--CODEGEN--\":11391:11394   */\n      0x80\n        /* \"--CODEGEN--\":11380:11389   */\n      dup4\n        /* \"--CODEGEN--\":11376:11395   */\n      add\n        /* \"--CODEGEN--\":11367:11373   */\n      dup6\n        /* \"--CODEGEN--\":11333:11396   */\n      jump(tag_404)\n    tag_455:\n        /* \"--CODEGEN--\":11407:11470   */\n      tag_456\n        /* \"--CODEGEN--\":11465:11468   */\n      0xa0\n        /* \"--CODEGEN--\":11454:11463   */\n      dup4\n        /* \"--CODEGEN--\":11450:11469   */\n      add\n        /* \"--CODEGEN--\":11441:11447   */\n      dup5\n        /* \"--CODEGEN--\":11407:11470   */\n      jump(tag_404)\n    tag_456:\n        /* \"--CODEGEN--\":10794:11480   */\n      swap8\n      swap7\n      pop\n      pop\n      pop\n      pop\n      pop\n      pop\n      pop\n      jump\n        /* \"--CODEGEN--\":11487:11680   */\n    tag_41:\n      0x0\n        /* \"--CODEGEN--\":11595:11597   */\n      0x20\n        /* \"--CODEGEN--\":11584:11593   */\n      dup3\n        /* \"--CODEGEN--\":11580:11598   */\n      add\n        /* \"--CODEGEN--\":11572:11598   */\n      swap1\n      pop\n        /* \"--CODEGEN--\":11609:11670   */\n      tag_458\n        /* \"--CODEGEN--\":11667:11668   */\n      0x0\n        /* \"--CODEGEN--\":11656:11665   */\n      dup4\n        /* \"--CODEGEN--\":11652:11669   */\n      add\n        /* \"--CODEGEN--\":11643:11649   */\n      dup5\n        /* \"--CODEGEN--\":11609:11670   */\n      jump(tag_432)\n    tag_458:\n        /* \"--CODEGEN--\":11566:11680   */\n      swap3\n      swap2\n      pop\n      pop\n      jump\n        /* \"--CODEGEN--\":11687:11943   */\n    tag_336:\n      0x0\n        /* \"--CODEGEN--\":11749:11751   */\n      0x40\n        /* \"--CODEGEN--\":11743:11752   */\n      mload\n        /* \"--CODEGEN--\":11733:11752   */\n      swap1\n      pop\n        /* \"--CODEGEN--\":11787:11791   */\n      dup2\n        /* \"--CODEGEN--\":11779:11785   */\n      dup2\n        /* \"--CODEGEN--\":11775:11792   */\n      add\n        /* \"--CODEGEN--\":11886:11892   */\n      dup2\n        /* \"--CODEGEN--\":11874:11884   */\n      dup2\n        /* \"--CODEGEN--\":11871:11893   */\n      lt\n        /* \"--CODEGEN--\":11850:11868   */\n      0xffffffffffffffff\n        /* \"--CODEGEN--\":11838:11848   */\n      dup3\n        /* \"--CODEGEN--\":11835:11869   */\n      gt\n        /* \"--CODEGEN--\":11832:11894   */\n      or\n        /* \"--CODEGEN--\":11829:11831   */\n      iszero\n      tag_460\n      jumpi\n        /* \"--CODEGEN--\":11907:11908   */\n      0x0\n        /* \"--CODEGEN--\":11904:11905   */\n      dup1\n        /* \"--CODEGEN--\":11897:11909   */\n      revert\n        /* \"--CODEGEN--\":11829:11831   */\n    tag_460:\n        /* \"--CODEGEN--\":11927:11937   */\n      dup1\n        /* \"--CODEGEN--\":11923:11925   */\n      0x40\n        /* \"--CODEGEN--\":11916:11938   */\n      mstore\n        /* \"--CODEGEN--\":11727:11943   */\n      pop\n      swap2\n      swap1\n      pop\n      jump\n        /* \"--CODEGEN--\":11950:12209   */\n    tag_335:\n      0x0\n        /* \"--CODEGEN--\":12094:12112   */\n      0xffffffffffffffff\n        /* \"--CODEGEN--\":12086:12092   */\n      dup3\n        /* \"--CODEGEN--\":12083:12113   */\n      gt\n        /* \"--CODEGEN--\":12080:12082   */\n      iszero\n      tag_462\n      jumpi\n        /* \"--CODEGEN--\":12126:12127   */\n      0x0\n        /* \"--CODEGEN--\":12123:12124   */\n      dup1\n        /* \"--CODEGEN--\":12116:12128   */\n      revert\n        /* \"--CODEGEN--\":12080:12082   */\n    tag_462:\n        /* \"--CODEGEN--\":12170:12174   */\n      0x1f\n        /* \"--CODEGEN--\":12166:12175   */\n      not\n        /* \"--CODEGEN--\":12159:12163   */\n      0x1f\n        /* \"--CODEGEN--\":12151:12157   */\n      dup4\n        /* \"--CODEGEN--\":12147:12164   */\n      add\n        /* \"--CODEGEN--\":12143:12176   */\n      and\n        /* \"--CODEGEN--\":12135:12176   */\n      swap1\n      pop\n        /* \"--CODEGEN--\":12199:12203   */\n      0x20\n        /* \"--CODEGEN--\":12193:12197   */\n      dup2\n        /* \"--CODEGEN--\":12189:12204   */\n      add\n        /* \"--CODEGEN--\":12181:12204   */\n      swap1\n      pop\n        /* \"--CODEGEN--\":12017:12209   */\n      swap2\n      swap1\n      pop\n      jump\n        /* \"--CODEGEN--\":12218:12339   */\n    tag_412:\n      0x0\n        /* \"--CODEGEN--\":12327:12331   */\n      0x20\n        /* \"--CODEGEN--\":12319:12325   */\n      dup3\n        /* \"--CODEGEN--\":12315:12332   */\n      add\n        /* \"--CODEGEN--\":12304:12332   */\n      swap1\n      pop\n        /* \"--CODEGEN--\":12296:12339   */\n      swap2\n      swap1\n      pop\n      jump\n        /* \"--CODEGEN--\":12348:12455   */\n    tag_410:\n      0x0\n        /* \"--CODEGEN--\":12444:12449   */\n      dup2\n        /* \"--CODEGEN--\":12438:12450   */\n      mload\n        /* \"--CODEGEN--\":12428:12450   */\n      swap1\n      pop\n        /* \"--CODEGEN--\":12422:12455   */\n      swap2\n      swap1\n      pop\n      jump\n        /* \"--CODEGEN--\":12462:12554   */\n    tag_426:\n      0x0\n        /* \"--CODEGEN--\":12543:12548   */\n      dup2\n        /* \"--CODEGEN--\":12537:12549   */\n      mload\n        /* \"--CODEGEN--\":12527:12549   */\n      swap1\n      pop\n        /* \"--CODEGEN--\":12521:12554   */\n      swap2\n      swap1\n      pop\n      jump\n        /* \"--CODEGEN--\":12562:12684   */\n    tag_418:\n      0x0\n        /* \"--CODEGEN--\":12673:12677   */\n      0x20\n        /* \"--CODEGEN--\":12665:12671   */\n      dup3\n        /* \"--CODEGEN--\":12661:12678   */\n      add\n        /* \"--CODEGEN--\":12650:12678   */\n      swap1\n      pop\n        /* \"--CODEGEN--\":12643:12684   */\n      swap2\n      swap1\n      pop\n      jump\n        /* \"--CODEGEN--\":12692:12820   */\n    tag_406:\n      0x0\n        /* \"--CODEGEN--\":12772:12814   */\n      0xffffffffffffffffffffffffffffffffffffffff\n        /* \"--CODEGEN--\":12765:12770   */\n      dup3\n        /* \"--CODEGEN--\":12761:12815   */\n      and\n        /* \"--CODEGEN--\":12750:12815   */\n      swap1\n      pop\n        /* \"--CODEGEN--\":12744:12820   */\n      swap2\n      swap1\n      pop\n      jump\n        /* \"--CODEGEN--\":12827:12919   */\n    tag_422:\n      0x0\n        /* \"--CODEGEN--\":12907:12912   */\n      dup2\n        /* \"--CODEGEN--\":12900:12913   */\n      iszero\n        /* \"--CODEGEN--\":12893:12914   */\n      iszero\n        /* \"--CODEGEN--\":12882:12914   */\n      swap1\n      pop\n        /* \"--CODEGEN--\":12876:12919   */\n      swap2\n      swap1\n      pop\n      jump\n        /* \"--CODEGEN--\":12926:13005   */\n    tag_434:\n      0x0\n        /* \"--CODEGEN--\":12995:13000   */\n      dup2\n        /* \"--CODEGEN--\":12984:13000   */\n      swap1\n      pop\n        /* \"--CODEGEN--\":12978:13005   */\n      swap2\n      swap1\n      pop\n      jump\n        /* \"--CODEGEN--\":13012:13140   */\n    tag_329:\n      0x0\n        /* \"--CODEGEN--\":13092:13134   */\n      0xffffffffffffffffffffffffffffffffffffffff\n        /* \"--CODEGEN--\":13085:13090   */\n      dup3\n        /* \"--CODEGEN--\":13081:13135   */\n      and\n        /* \"--CODEGEN--\":13070:13135   */\n      swap1\n      pop\n        /* \"--CODEGEN--\":13064:13140   */\n      swap2\n      swap1\n      pop\n      jump\n        /* \"--CODEGEN--\":13147:13226   */\n    tag_343:\n      0x0\n        /* \"--CODEGEN--\":13216:13221   */\n      dup2\n        /* \"--CODEGEN--\":13205:13221   */\n      swap1\n      pop\n        /* \"--CODEGEN--\":13199:13226   */\n      swap2\n      swap1\n      pop\n      jump\n        /* \"--CODEGEN--\":13234:13379   */\n    tag_339:\n        /* \"--CODEGEN--\":13315:13321   */\n      dup3\n        /* \"--CODEGEN--\":13310:13313   */\n      dup2\n        /* \"--CODEGEN--\":13305:13308   */\n      dup4\n        /* \"--CODEGEN--\":13292:13322   */\n      calldatacopy\n        /* \"--CODEGEN--\":13371:13372   */\n      0x0\n        /* \"--CODEGEN--\":13362:13368   */\n      dup4\n        /* \"--CODEGEN--\":13357:13360   */\n      dup4\n        /* \"--CODEGEN--\":13353:13369   */\n      add\n        /* \"--CODEGEN--\":13346:13373   */\n      mstore\n        /* \"--CODEGEN--\":13285:13379   */\n      pop\n      pop\n      pop\n      jump\n        /* \"--CODEGEN--\":13388:13656   */\n    tag_428:\n        /* \"--CODEGEN--\":13453:13454   */\n      0x0\n        /* \"--CODEGEN--\":13460:13561   */\n    tag_474:\n        /* \"--CODEGEN--\":13474:13480   */\n      dup4\n        /* \"--CODEGEN--\":13471:13472   */\n      dup2\n        /* \"--CODEGEN--\":13468:13481   */\n      lt\n        /* \"--CODEGEN--\":13460:13561   */\n      iszero\n      tag_475\n      jumpi\n        /* \"--CODEGEN--\":13550:13551   */\n      dup1\n        /* \"--CODEGEN--\":13545:13548   */\n      dup3\n        /* \"--CODEGEN--\":13541:13552   */\n      add\n        /* \"--CODEGEN--\":13535:13553   */\n      mload\n        /* \"--CODEGEN--\":13531:13532   */\n      dup2\n        /* \"--CODEGEN--\":13526:13529   */\n      dup5\n        /* \"--CODEGEN--\":13522:13533   */\n      add\n        /* \"--CODEGEN--\":13515:13554   */\n      mstore\n        /* \"--CODEGEN--\":13496:13498   */\n      0x20\n        /* \"--CODEGEN--\":13493:13494   */\n      dup2\n        /* \"--CODEGEN--\":13489:13499   */\n      add\n        /* \"--CODEGEN--\":13484:13499   */\n      swap1\n      pop\n        /* \"--CODEGEN--\":13460:13561   */\n      jump(tag_474)\n    tag_475:\n        /* \"--CODEGEN--\":13576:13582   */\n      dup4\n        /* \"--CODEGEN--\":13573:13574   */\n      dup2\n        /* \"--CODEGEN--\":13570:13583   */\n      gt\n        /* \"--CODEGEN--\":13567:13569   */\n      iszero\n      tag_477\n      jumpi\n        /* \"--CODEGEN--\":13641:13642   */\n      0x0\n        /* \"--CODEGEN--\":13632:13638   */\n      dup5\n        /* \"--CODEGEN--\":13627:13630   */\n      dup5\n        /* \"--CODEGEN--\":13623:13639   */\n      add\n        /* \"--CODEGEN--\":13616:13643   */\n      mstore\n        /* \"--CODEGEN--\":13567:13569   */\n    tag_477:\n        /* \"--CODEGEN--\":13437:13656   */\n      pop\n      pop\n      pop\n      pop\n      jump\n        /* \"--CODEGEN--\":13664:13761   */\n    tag_430:\n      0x0\n        /* \"--CODEGEN--\":13752:13754   */\n      0x1f\n        /* \"--CODEGEN--\":13748:13755   */\n      not\n        /* \"--CODEGEN--\":13743:13745   */\n      0x1f\n        /* \"--CODEGEN--\":13736:13741   */\n      dup4\n        /* \"--CODEGEN--\":13732:13746   */\n      add\n        /* \"--CODEGEN--\":13728:13756   */\n      and\n        /* \"--CODEGEN--\":13718:13756   */\n      swap1\n      pop\n        /* \"--CODEGEN--\":13712:13761   */\n      swap2\n      swap1\n      pop\n      jump\n\n    auxdata: 0xa265627a7a723058205fb00799be954149bfe5e83d6b5d6c4ffb4e2470f4cbfca0b2754a2aee0b8d646c6578706572696d656e74616cf50037\n}\n",
				"bytecode": {
					"linkReferences": {},
					"object": "60806040526000600b556000600c556000600d556000600e556000600f5573c50c6297f56b033633c30354a854b074749cd2dc601060006101000a81548173ffffffffffffffffffffffffffffffffffffffff021916908373ffffffffffffffffffffffffffffffffffffffff16021790555034801561007e57600080fd5b506134e18061008e6000396000f30060806040526004361061017f576000357c0100000000000000000000000000000000000000000000000000000000900463ffffffff168062ce8e3e14610184578063024decc5146101af578063076fd2f8146101da57806307973ccf1461021e578063127ca4b41461024957806316e0a6111461028657806317e51111146102af578063294a4540146102d8578063341f8105146103155780635fc8e8c6146103525780636cdb22781461038f578063779a9576146103b857806378522bc4146103e157806379111c1c1461040c578063793de5f01461043757806383a28b29146104745780638da5cb5b146104b65780638f84aa09146104e157806396e39ce01461050c57806399d698c5146105375780639f4216e814610562578063b13d5d941461059f578063b5cb15f7146105ca578063b744ff4d146105f5578063c3bf7bf014610620578063c543a7181461065d578063caee6c8514610688578063d118404b146106cc578063e0df0ac614610709578063ff508dab14610734575b600080fd5b34801561019057600080fd5b50610199610771565b6040516101a691906131ee565b60405180910390f35b3480156101bb57600080fd5b506101c46107ff565b6040516101d19190613350565b60405180910390f35b3480156101e657600080fd5b5061020160048036036101fc9190810190612ca9565b610809565b60405161021598979695949392919061322b565b60405180910390f35b34801561022a57600080fd5b50610233610d8e565b6040516102409190613350565b60405180910390f35b34801561025557600080fd5b50610270600480360361026b91908101906130ec565b610d94565b60405161027d91906131d3565b60405180910390f35b34801561029257600080fd5b506102ad60048036036102a89190810190612ddf565b610dd2565b005b3480156102bb57600080fd5b506102d660048036036102d19190810190612ddf565b610fc6565b005b3480156102e457600080fd5b506102ff60048036036102fa9190810190612ca9565b6113e0565b60405161030c9190613210565b60405180910390f35b34801561032157600080fd5b5061033c60048036036103379190810190612d0e565b611492565b6040516103499190613210565b60405180910390f35b34801561035e57600080fd5b5061037960048036036103749190810190612ca9565b6116e8565b6040516103869190613210565b60405180910390f35b34801561039b57600080fd5b506103b660048036036103b19190810190612f39565b611787565b005b3480156103c457600080fd5b506103df60048036036103da9190810190612f39565b611bd5565b005b3480156103ed57600080fd5b506103f6611dfd565b6040516104039190613350565b60405180910390f35b34801561041857600080fd5b50610421611e03565b60405161042e9190613350565b60405180910390f35b34801561044357600080fd5b5061045e60048036036104599190810190612ca9565b611e0d565b60405161046b9190613210565b60405180910390f35b34801561048057600080fd5b5061049b60048036036104969190810190612ca9565b611e93565b6040516104ad969594939291906132da565b60405180910390f35b3480156104c257600080fd5b506104cb6121b9565b6040516104d891906131d3565b60405180910390f35b3480156104ed57600080fd5b506104f66121de565b60405161050391906131d3565b60405180910390f35b34801561051857600080fd5b50610521612247565b60405161052e9190613350565b60405180910390f35b34801561054357600080fd5b5061054c61224d565b6040516105599190613350565b60405180910390f35b34801561056e57600080fd5b50610589600480360361058491908101906130ec565b612253565b60405161059691906131d3565b60405180910390f35b3480156105ab57600080fd5b506105b4612291565b6040516105c191906131ee565b60405180910390f35b3480156105d657600080fd5b506105df61231f565b6040516105ec9190613350565b60405180910390f35b34801561060157600080fd5b5061060a612329565b60405161061791906131d3565b60405180910390f35b34801561062c57600080fd5b5061064760048036036106429190810190612cd2565b61234f565b6040516106549190613210565b60405180910390f35b34801561066957600080fd5b5061067261244c565b60405161067f9190613350565b60405180910390f35b34801561069457600080fd5b506106af60048036036106aa9190810190612ca9565b612452565b6040516106c398979695949392919061322b565b60405180910390f35b3480156106d857600080fd5b506106f360048036036106ee9190810190612cd2565b612a2f565b6040516107009190613210565b60405180910390f35b34801561071557600080fd5b5061071e612b3e565b60405161072b9190613350565b60405180910390f35b34801561074057600080fd5b5061075b600480360361075691908101906130ec565b612b48565b60405161076891906131d3565b60405180910390f35b606060018054806020026020016040519081016040528092919081815260200182805480156107f557602002820191906000526020600020905b8160009054906101000a900473ffffffffffffffffffffffffffffffffffffffff1673ffffffffffffffffffffffffffffffffffffffff16815260200190600101908083116107ab575b5050505050905090565b6000600e54905090565b6060806060806060806060600080600760008b73ffffffffffffffffffffffffffffffffffffffff1673ffffffffffffffffffffffffffffffffffffffff16815260200190815260200160002060003373ffffffffffffffffffffffffffffffffffffffff1673ffffffffffffffffffffffffffffffffffffffff16815260200190815260200160002060009054906101000a900460ff1615156108ac57600080fd5b600460008b73ffffffffffffffffffffffffffffffffffffffff1673ffffffffffffffffffffffffffffffffffffffff1681526020019081526020016000209050806000018160010182600601836002018460030185600401866005018760090160009054906101000a900473ffffffffffffffffffffffffffffffffffffffff16878054600181600116156101000203166002900480601f0160208091040260200160405190810160405280929190818152602001828054600181600116156101000203166002900480156109c35780601f10610998576101008083540402835291602001916109c3565b820191906000526020600020905b8154815290600101906020018083116109a657829003601f168201915b50505050509750868054600181600116156101000203166002900480601f016020809104026020016040519081016040528092919081815260200182805460018160011615610100020316600290048015610a5f5780601f10610a3457610100808354040283529160200191610a5f565b820191906000526020600020905b815481529060010190602001808311610a4257829003601f168201915b50505050509650858054600181600116156101000203166002900480601f016020809104026020016040519081016040528092919081815260200182805460018160011615610100020316600290048015610afb5780601f10610ad057610100808354040283529160200191610afb565b820191906000526020600020905b815481529060010190602001808311610ade57829003601f168201915b50505050509550848054600181600116156101000203166002900480601f016020809104026020016040519081016040528092919081815260200182805460018160011615610100020316600290048015610b975780601f10610b6c57610100808354040283529160200191610b97565b820191906000526020600020905b815481529060010190602001808311610b7a57829003601f168201915b50505050509450838054600181600116156101000203166002900480601f016020809104026020016040519081016040528092919081815260200182805460018160011615610100020316600290048015610c335780601f10610c0857610100808354040283529160200191610c33565b820191906000526020600020905b815481529060010190602001808311610c1657829003601f168201915b50505050509350828054600181600116156101000203166002900480601f016020809104026020016040519081016040528092919081815260200182805460018160011615610100020316600290048015610ccf5780601f10610ca457610100808354040283529160200191610ccf565b820191906000526020600020905b815481529060010190602001808311610cb257829003601f168201915b50505050509250818054600181600116156101000203166002900480601f016020809104026020016040519081016040528092919081815260200182805460018160011615610100020316600290048015610d6b5780601f10610d4057610100808354040283529160200191610d6b565b820191906000526020600020905b815481529060010190602001808311610d4e57829003601f168201915b505050505091509850985098509850985098509850985050919395975091939597565b600b5481565b600281815481101515610da357fe5b906000526020600020016000915054906101000a900473ffffffffffffffffffffffffffffffffffffffff1681565b6000601060009054906101000a900473ffffffffffffffffffffffffffffffffffffffff1673ffffffffffffffffffffffffffffffffffffffff163373ffffffffffffffffffffffffffffffffffffffff16141515610e3057600080fd5b600960008a73ffffffffffffffffffffffffffffffffffffffff1673ffffffffffffffffffffffffffffffffffffffff16815260200190815260200160002060009054906101000a900460ff161515610e8857600080fd5b600560008a73ffffffffffffffffffffffffffffffffffffffff1673ffffffffffffffffffffffffffffffffffffffff168152602001908152602001600020905087816000019080519060200190610ee1929190612b86565b5086816001019080519060200190610efa929190612b86565b5085816002019080519060200190610f13929190612b86565b5084816003019080519060200190610f2c929190612b86565b5083816005019080519060200190610f45929190612b86565b5082816006019080519060200190610f5e929190612b86565b5081816007019080519060200190610f77929190612b86565b50888160080160006101000a81548173ffffffffffffffffffffffffffffffffffffffff021916908373ffffffffffffffffffffffffffffffffffffffff160217905550505050505050505050565b6000601060009054906101000a900473ffffffffffffffffffffffffffffffffffffffff1673ffffffffffffffffffffffffffffffffffffffff163373ffffffffffffffffffffffffffffffffffffffff1614151561102457600080fd5b600960008a73ffffffffffffffffffffffffffffffffffffffff1673ffffffffffffffffffffffffffffffffffffffff16815260200190815260200160002060009054906101000a900460ff1615151561107d57600080fd5b600560008a73ffffffffffffffffffffffffffffffffffffffff1673ffffffffffffffffffffffffffffffffffffffff1681526020019081526020016000209050878160000190805190602001906110d6929190612b86565b50868160010190805190602001906110ef929190612b86565b5085816002019080519060200190611108929190612b86565b5084816003019080519060200190611121929190612b86565b508381600501908051906020019061113a929190612b86565b5082816006019080519060200190611153929190612b86565b508181600701908051906020019061116c929190612b86565b50888160080160006101000a81548173ffffffffffffffffffffffffffffffffffffffff021916908373ffffffffffffffffffffffffffffffffffffffff16021790555042816009018190555060028990806001815401808255809150509060018203906000526020600020016000909192909190916101000a81548173ffffffffffffffffffffffffffffffffffffffff021916908373ffffffffffffffffffffffffffffffffffffffff160217905550506001600960008b73ffffffffffffffffffffffffffffffffffffffff1673ffffffffffffffffffffffffffffffffffffffff16815260200190815260200160002060006101000a81548160ff0219169083151502179055506001600760008b73ffffffffffffffffffffffffffffffffffffffff1673ffffffffffffffffffffffffffffffffffffffff16815260200190815260200160002060008b73ffffffffffffffffffffffffffffffffffffffff1673ffffffffffffffffffffffffffffffffffffffff16815260200190815260200160002060006101000a81548160ff0219169083151502179055506001600760008b73ffffffffffffffffffffffffffffffffffffffff1673ffffffffffffffffffffffffffffffffffffffff1681526020019081526020016000206000601060009054906101000a900473ffffffffffffffffffffffffffffffffffffffff1673ffffffffffffffffffffffffffffffffffffffff1673ffffffffffffffffffffffffffffffffffffffff16815260200190815260200160002060006101000a81548160ff021916908315150217905550600c60008154809291906001019190505550505050505050505050565b60006001600760003373ffffffffffffffffffffffffffffffffffffffff1673ffffffffffffffffffffffffffffffffffffffff16815260200190815260200160002060008473ffffffffffffffffffffffffffffffffffffffff1673ffffffffffffffffffffffffffffffffffffffff16815260200190815260200160002060006101000a81548160ff021916908315150217905550600e6000815480929190600101919050555060019050919050565b600080601060009054906101000a900473ffffffffffffffffffffffffffffffffffffffff1673ffffffffffffffffffffffffffffffffffffffff163373ffffffffffffffffffffffffffffffffffffffff161415156114f157600080fd5b600a60008973ffffffffffffffffffffffffffffffffffffffff1673ffffffffffffffffffffffffffffffffffffffff16815260200190815260200160002060009054906101000a900460ff1615151561154a57600080fd5b600660008973ffffffffffffffffffffffffffffffffffffffff1673ffffffffffffffffffffffffffffffffffffffff1681526020019081526020016000209050858160000190805190602001906115a3929190612b86565b50848160010190805190602001906115bc929190612b86565b50838160020190805190602001906115d5929190612b86565b50828160030181905550878160040160006101000a81548173ffffffffffffffffffffffffffffffffffffffff021916908373ffffffffffffffffffffffffffffffffffffffff160217905550868160050160006101000a81548173ffffffffffffffffffffffffffffffffffffffff021916908373ffffffffffffffffffffffffffffffffffffffff16021790555060038890806001815401808255809150509060018203906000526020600020016000909192909190916101000a81548173ffffffffffffffffffffffffffffffffffffffff021916908373ffffffffffffffffffffffffffffffffffffffff16021790555050600f60008154809291906001019190505550509695505050505050565b600080600760003373ffffffffffffffffffffffffffffffffffffffff1673ffffffffffffffffffffffffffffffffffffffff16815260200190815260200160002060008473ffffffffffffffffffffffffffffffffffffffff1673ffffffffffffffffffffffffffffffffffffffff16815260200190815260200160002060006101000a81548160ff02191690831515021790555060019050919050565b6000601060009054906101000a900473ffffffffffffffffffffffffffffffffffffffff1673ffffffffffffffffffffffffffffffffffffffff163373ffffffffffffffffffffffffffffffffffffffff161415156117e557600080fd5b600860008c73ffffffffffffffffffffffffffffffffffffffff1673ffffffffffffffffffffffffffffffffffffffff16815260200190815260200160002060009054906101000a900460ff1615151561183e57600080fd5b600460008c73ffffffffffffffffffffffffffffffffffffffff1673ffffffffffffffffffffffffffffffffffffffff168152602001908152602001600020905089816000019080519060200190611897929190612b86565b50888160010190805190602001906118b0929190612b86565b50878160020190805190602001906118c9929190612b86565b50868160030190805190602001906118e2929190612b86565b50858160040190805190602001906118fb929190612b86565b5084816005019080519060200190611914929190612b86565b508381600601908051906020019061192d929190612b86565b5082816007019080519060200190611946929190612b86565b508181600801908051906020019061195f929190612b86565b508a8160090160006101000a81548173ffffffffffffffffffffffffffffffffffffffff021916908373ffffffffffffffffffffffffffffffffffffffff1602179055504281600a018190555060018b90806001815401808255809150509060018203906000526020600020016000909192909190916101000a81548173ffffffffffffffffffffffffffffffffffffffff021916908373ffffffffffffffffffffffffffffffffffffffff160217905550506001600860008d73ffffffffffffffffffffffffffffffffffffffff1673ffffffffffffffffffffffffffffffffffffffff16815260200190815260200160002060006101000a81548160ff0219169083151502179055506001600760008d73ffffffffffffffffffffffffffffffffffffffff1673ffffffffffffffffffffffffffffffffffffffff16815260200190815260200160002060008d73ffffffffffffffffffffffffffffffffffffffff1673ffffffffffffffffffffffffffffffffffffffff16815260200190815260200160002060006101000a81548160ff0219169083151502179055506001600760008d73ffffffffffffffffffffffffffffffffffffffff1673ffffffffffffffffffffffffffffffffffffffff1681526020019081526020016000206000601060009054906101000a900473ffffffffffffffffffffffffffffffffffffffff1673ffffffffffffffffffffffffffffffffffffffff1673ffffffffffffffffffffffffffffffffffffffff16815260200190815260200160002060006101000a81548160ff021916908315150217905550600b600081548092919060010191905055505050505050505050505050565b6000601060009054906101000a900473ffffffffffffffffffffffffffffffffffffffff1673ffffffffffffffffffffffffffffffffffffffff163373ffffffffffffffffffffffffffffffffffffffff16141515611c3357600080fd5b600860008c73ffffffffffffffffffffffffffffffffffffffff1673ffffffffffffffffffffffffffffffffffffffff16815260200190815260200160002060009054906101000a900460ff161515611c8b57600080fd5b600460008c73ffffffffffffffffffffffffffffffffffffffff1673ffffffffffffffffffffffffffffffffffffffff168152602001908152602001600020905089816000019080519060200190611ce4929190612b86565b5088816001019080519060200190611cfd929190612b86565b5087816002019080519060200190611d16929190612b86565b5086816003019080519060200190611d2f929190612b86565b5085816004019080519060200190611d48929190612b86565b5084816005019080519060200190611d61929190612b86565b5083816006019080519060200190611d7a929190612b86565b5082816007019080519060200190611d93929190612b86565b5081816008019080519060200190611dac929190612b86565b508a8160090160006101000a81548173ffffffffffffffffffffffffffffffffffffffff021916908373ffffffffffffffffffffffffffffffffffffffff1602179055505050505050505050505050565b600c5481565b6000600c54905090565b60008060009050600280549050811015611e8c5760011515600960008573ffffffffffffffffffffffffffffffffffffffff1673ffffffffffffffffffffffffffffffffffffffff16815260200190815260200160002060009054906101000a900460ff1615151415611e835760019150611e8d565b60009150611e8d565b5b50919050565b6060806060600080600080600760008973ffffffffffffffffffffffffffffffffffffffff1673ffffffffffffffffffffffffffffffffffffffff16815260200190815260200160002060003373ffffffffffffffffffffffffffffffffffffffff1673ffffffffffffffffffffffffffffffffffffffff16815260200190815260200160002060009054906101000a900460ff161515611f3357600080fd5b600660008973ffffffffffffffffffffffffffffffffffffffff1673ffffffffffffffffffffffffffffffffffffffff168152602001908152602001600020905080600001816001018260020183600301548460040160009054906101000a900473ffffffffffffffffffffffffffffffffffffffff168560050160009054906101000a900473ffffffffffffffffffffffffffffffffffffffff16858054600181600116156101000203166002900480601f0160208091040260200160405190810160405280929190818152602001828054600181600116156101000203166002900480156120645780601f1061203957610100808354040283529160200191612064565b820191906000526020600020905b81548152906001019060200180831161204757829003601f168201915b50505050509550848054600181600116156101000203166002900480601f0160208091040260200160405190810160405280929190818152602001828054600181600116156101000203166002900480156121005780601f106120d557610100808354040283529160200191612100565b820191906000526020600020905b8154815290600101906020018083116120e357829003601f168201915b50505050509450838054600181600116156101000203166002900480601f01602080910402602001604051908101604052809291908181526020018280546001816001161561010002031660029004801561219c5780601f106121715761010080835404028352916020019161219c565b820191906000526020600020905b81548152906001019060200180831161217f57829003601f168201915b505050505093509650965096509650965096505091939550919395565b6000809054906101000a900473ffffffffffffffffffffffffffffffffffffffff1681565b6000336000806101000a81548173ffffffffffffffffffffffffffffffffffffffff021916908373ffffffffffffffffffffffffffffffffffffffff1602179055506000809054906101000a900473ffffffffffffffffffffffffffffffffffffffff16905090565b600f5481565b600d5481565b60018181548110151561226257fe5b906000526020600020016000915054906101000a900473ffffffffffffffffffffffffffffffffffffffff1681565b6060600280548060200260200160405190810160405280929190818152602001828054801561231557602002820191906000526020600020905b8160009054906101000a900473ffffffffffffffffffffffffffffffffffffffff1673ffffffffffffffffffffffffffffffffffffffff16815260200190600101908083116122cb575b5050505050905090565b6000600b54905090565b601060009054906101000a900473ffffffffffffffffffffffffffffffffffffffff1681565b6000601060009054906101000a900473ffffffffffffffffffffffffffffffffffffffff1673ffffffffffffffffffffffffffffffffffffffff163373ffffffffffffffffffffffffffffffffffffffff161415156123ad57600080fd5b6000600760008573ffffffffffffffffffffffffffffffffffffffff1673ffffffffffffffffffffffffffffffffffffffff16815260200190815260200160002060008473ffffffffffffffffffffffffffffffffffffffff1673ffffffffffffffffffffffffffffffffffffffff16815260200190815260200160002060006101000a81548160ff0219169083151502179055506001905092915050565b600e5481565b6060806060806060806060600080600760008b73ffffffffffffffffffffffffffffffffffffffff1673ffffffffffffffffffffffffffffffffffffffff16815260200190815260200160002060003373ffffffffffffffffffffffffffffffffffffffff1673ffffffffffffffffffffffffffffffffffffffff16815260200190815260200160002060009054906101000a900460ff1615156124f557600080fd5b600960008b73ffffffffffffffffffffffffffffffffffffffff1673ffffffffffffffffffffffffffffffffffffffff16815260200190815260200160002060009054906101000a900460ff16151561254d57600080fd5b600560008b73ffffffffffffffffffffffffffffffffffffffff1673ffffffffffffffffffffffffffffffffffffffff1681526020019081526020016000209050806000018160010182600201836003018460050185600601866007018760080160009054906101000a900473ffffffffffffffffffffffffffffffffffffffff16878054600181600116156101000203166002900480601f0160208091040260200160405190810160405280929190818152602001828054600181600116156101000203166002900480156126645780601f1061263957610100808354040283529160200191612664565b820191906000526020600020905b81548152906001019060200180831161264757829003601f168201915b50505050509750868054600181600116156101000203166002900480601f0160208091040260200160405190810160405280929190818152602001828054600181600116156101000203166002900480156127005780601f106126d557610100808354040283529160200191612700565b820191906000526020600020905b8154815290600101906020018083116126e357829003601f168201915b50505050509650858054600181600116156101000203166002900480601f01602080910402602001604051908101604052809291908181526020018280546001816001161561010002031660029004801561279c5780601f106127715761010080835404028352916020019161279c565b820191906000526020600020905b81548152906001019060200180831161277f57829003601f168201915b50505050509550848054600181600116156101000203166002900480601f0160208091040260200160405190810160405280929190818152602001828054600181600116156101000203166002900480156128385780601f1061280d57610100808354040283529160200191612838565b820191906000526020600020905b81548152906001019060200180831161281b57829003601f168201915b50505050509450838054600181600116156101000203166002900480601f0160208091040260200160405190810160405280929190818152602001828054600181600116156101000203166002900480156128d45780601f106128a9576101008083540402835291602001916128d4565b820191906000526020600020905b8154815290600101906020018083116128b757829003601f168201915b50505050509350828054600181600116156101000203166002900480601f0160208091040260200160405190810160405280929190818152602001828054600181600116156101000203166002900480156129705780601f1061294557610100808354040283529160200191612970565b820191906000526020600020905b81548152906001019060200180831161295357829003601f168201915b50505050509250818054600181600116156101000203166002900480601f016020809104026020016040519081016040528092919081815260200182805460018160011615610100020316600290048015612a0c5780601f106129e157610100808354040283529160200191612a0c565b820191906000526020600020905b8154815290600101906020018083116129ef57829003601f168201915b505050505091509850985098509850985098509850985050919395975091939597565b6000601060009054906101000a900473ffffffffffffffffffffffffffffffffffffffff1673ffffffffffffffffffffffffffffffffffffffff163373ffffffffffffffffffffffffffffffffffffffff16141515612a8d57600080fd5b6001600760008573ffffffffffffffffffffffffffffffffffffffff1673ffffffffffffffffffffffffffffffffffffffff16815260200190815260200160002060008473ffffffffffffffffffffffffffffffffffffffff1673ffffffffffffffffffffffffffffffffffffffff16815260200190815260200160002060006101000a81548160ff021916908315150217905550600d600081548092919060010191905055506001905092915050565b6000600d54905090565b600381815481101515612b5757fe5b906000526020600020016000915054906101000a900473ffffffffffffffffffffffffffffffffffffffff1681565b828054600181600116156101000203166002900490600052602060002090601f016020900481019282601f10612bc757805160ff1916838001178555612bf5565b82800160010185558215612bf5579182015b82811115612bf4578251825591602001919060010190612bd9565b5b509050612c029190612c06565b5090565b612c2891905b80821115612c24576000816000905550600101612c0c565b5090565b90565b6000612c37823561342a565b905092915050565b600082601f8301121515612c5257600080fd5b8135612c65612c6082613398565b61336b565b91508082526020830160208301858383011115612c8157600080fd5b612c8c838284613454565b50505092915050565b6000612ca1823561344a565b905092915050565b600060208284031215612cbb57600080fd5b6000612cc984828501612c2b565b91505092915050565b60008060408385031215612ce557600080fd5b6000612cf385828601612c2b565b9250506020612d0485828601612c2b565b9150509250929050565b60008060008060008060c08789031215612d2757600080fd5b6000612d3589828a01612c2b565b9650506020612d4689828a01612c2b565b955050604087013567ffffffffffffffff811115612d6357600080fd5b612d6f89828a01612c3f565b945050606087013567ffffffffffffffff811115612d8c57600080fd5b612d9889828a01612c3f565b935050608087013567ffffffffffffffff811115612db557600080fd5b612dc189828a01612c3f565b92505060a0612dd289828a01612c95565b9150509295509295509295565b600080600080600080600080610100898b031215612dfc57600080fd5b6000612e0a8b828c01612c2b565b985050602089013567ffffffffffffffff811115612e2757600080fd5b612e338b828c01612c3f565b975050604089013567ffffffffffffffff811115612e5057600080fd5b612e5c8b828c01612c3f565b965050606089013567ffffffffffffffff811115612e7957600080fd5b612e858b828c01612c3f565b955050608089013567ffffffffffffffff811115612ea257600080fd5b612eae8b828c01612c3f565b94505060a089013567ffffffffffffffff811115612ecb57600080fd5b612ed78b828c01612c3f565b93505060c089013567ffffffffffffffff811115612ef457600080fd5b612f008b828c01612c3f565b92505060e089013567ffffffffffffffff811115612f1d57600080fd5b612f298b828c01612c3f565b9150509295985092959890939650565b6000806000806000806000806000806101408b8d031215612f5957600080fd5b6000612f678d828e01612c2b565b9a505060208b013567ffffffffffffffff811115612f8457600080fd5b612f908d828e01612c3f565b99505060408b013567ffffffffffffffff811115612fad57600080fd5b612fb98d828e01612c3f565b98505060608b013567ffffffffffffffff811115612fd657600080fd5b612fe28d828e01612c3f565b97505060808b013567ffffffffffffffff811115612fff57600080fd5b61300b8d828e01612c3f565b96505060a08b013567ffffffffffffffff81111561302857600080fd5b6130348d828e01612c3f565b95505060c08b013567ffffffffffffffff81111561305157600080fd5b61305d8d828e01612c3f565b94505060e08b013567ffffffffffffffff81111561307a57600080fd5b6130868d828e01612c3f565b9350506101008b013567ffffffffffffffff8111156130a457600080fd5b6130b08d828e01612c3f565b9250506101208b013567ffffffffffffffff8111156130ce57600080fd5b6130da8d828e01612c3f565b9150509295989b9194979a5092959850565b6000602082840312156130fe57600080fd5b600061310c84828501612c95565b91505092915050565b61311e816133f4565b82525050565b600061312f826133d1565b808452602084019350613141836133c4565b60005b8281101561317357613157868351613115565b613160826133e7565b9150602086019550600181019050613144565b50849250505092915050565b61318881613414565b82525050565b6000613199826133dc565b8084526131ad816020860160208601613463565b6131b681613496565b602085010191505092915050565b6131cd81613420565b82525050565b60006020820190506131e86000830184613115565b92915050565b600060208201905081810360008301526132088184613124565b905092915050565b6000602082019050613225600083018461317f565b92915050565b6000610100820190508181036000830152613246818b61318e565b9050818103602083015261325a818a61318e565b9050818103604083015261326e818961318e565b90508181036060830152613282818861318e565b90508181036080830152613296818761318e565b905081810360a08301526132aa818661318e565b905081810360c08301526132be818561318e565b90506132cd60e0830184613115565b9998505050505050505050565b600060c08201905081810360008301526132f4818961318e565b90508181036020830152613308818861318e565b9050818103604083015261331c818761318e565b905061332b60608301866131c4565b6133386080830185613115565b61334560a0830184613115565b979650505050505050565b600060208201905061336560008301846131c4565b92915050565b6000604051905081810181811067ffffffffffffffff8211171561338e57600080fd5b8060405250919050565b600067ffffffffffffffff8211156133af57600080fd5b601f19601f8301169050602081019050919050565b6000602082019050919050565b600081519050919050565b600081519050919050565b6000602082019050919050565b600073ffffffffffffffffffffffffffffffffffffffff82169050919050565b60008115159050919050565b6000819050919050565b600073ffffffffffffffffffffffffffffffffffffffff82169050919050565b6000819050919050565b82818337600083830152505050565b60005b83811015613481578082015181840152602081019050613466565b83811115613490576000848401525b50505050565b6000601f19601f83011690509190505600a265627a7a723058205fb00799be954149bfe5e83d6b5d6c4ffb4e2470f4cbfca0b2754a2aee0b8d646c6578706572696d656e74616cf50037",
					"opcodes": "PUSH1 0x80 PUSH1 0x40 MSTORE PUSH1 0x0 PUSH1 0xB SSTORE PUSH1 0x0 PUSH1 0xC SSTORE PUSH1 0x0 PUSH1 0xD SSTORE PUSH1 0x0 PUSH1 0xE SSTORE PUSH1 0x0 PUSH1 0xF SSTORE PUSH20 0xC50C6297F56B033633C30354A854B074749CD2DC PUSH1 0x10 PUSH1 0x0 PUSH2 0x100 EXP DUP2 SLOAD DUP2 PUSH20 0xFFFFFFFFFFFFFFFFFFFFFFFFFFFFFFFFFFFFFFFF MUL NOT AND SWAP1 DUP4 PUSH20 0xFFFFFFFFFFFFFFFFFFFFFFFFFFFFFFFFFFFFFFFF AND MUL OR SWAP1 SSTORE POP CALLVALUE DUP1 ISZERO PUSH2 0x7E JUMPI PUSH1 0x0 DUP1 REVERT JUMPDEST POP PUSH2 0x34E1 DUP1 PUSH2 0x8E PUSH1 0x0 CODECOPY PUSH1 0x0 RETURN STOP PUSH1 0x80 PUSH1 0x40 MSTORE PUSH1 0x4 CALLDATASIZE LT PUSH2 0x17F JUMPI PUSH1 0x0 CALLDATALOAD PUSH29 0x100000000000000000000000000000000000000000000000000000000 SWAP1 DIV PUSH4 0xFFFFFFFF AND DUP1 PUSH3 0xCE8E3E EQ PUSH2 0x184 JUMPI DUP1 PUSH4 0x24DECC5 EQ PUSH2 0x1AF JUMPI DUP1 PUSH4 0x76FD2F8 EQ PUSH2 0x1DA JUMPI DUP1 PUSH4 0x7973CCF EQ PUSH2 0x21E JUMPI DUP1 PUSH4 0x127CA4B4 EQ PUSH2 0x249 JUMPI DUP1 PUSH4 0x16E0A611 EQ PUSH2 0x286 JUMPI DUP1 PUSH4 0x17E51111 EQ PUSH2 0x2AF JUMPI DUP1 PUSH4 0x294A4540 EQ PUSH2 0x2D8 JUMPI DUP1 PUSH4 0x341F8105 EQ PUSH2 0x315 JUMPI DUP1 PUSH4 0x5FC8E8C6 EQ PUSH2 0x352 JUMPI DUP1 PUSH4 0x6CDB2278 EQ PUSH2 0x38F JUMPI DUP1 PUSH4 0x779A9576 EQ PUSH2 0x3B8 JUMPI DUP1 PUSH4 0x78522BC4 EQ PUSH2 0x3E1 JUMPI DUP1 PUSH4 0x79111C1C EQ PUSH2 0x40C JUMPI DUP1 PUSH4 0x793DE5F0 EQ PUSH2 0x437 JUMPI DUP1 PUSH4 0x83A28B29 EQ PUSH2 0x474 JUMPI DUP1 PUSH4 0x8DA5CB5B EQ PUSH2 0x4B6 JUMPI DUP1 PUSH4 0x8F84AA09 EQ PUSH2 0x4E1 JUMPI DUP1 PUSH4 0x96E39CE0 EQ PUSH2 0x50C JUMPI DUP1 PUSH4 0x99D698C5 EQ PUSH2 0x537 JUMPI DUP1 PUSH4 0x9F4216E8 EQ PUSH2 0x562 JUMPI DUP1 PUSH4 0xB13D5D94 EQ PUSH2 0x59F JUMPI DUP1 PUSH4 0xB5CB15F7 EQ PUSH2 0x5CA JUMPI DUP1 PUSH4 0xB744FF4D EQ PUSH2 0x5F5 JUMPI DUP1 PUSH4 0xC3BF7BF0 EQ PUSH2 0x620 JUMPI DUP1 PUSH4 0xC543A718 EQ PUSH2 0x65D JUMPI DUP1 PUSH4 0xCAEE6C85 EQ PUSH2 0x688 JUMPI DUP1 PUSH4 0xD118404B EQ PUSH2 0x6CC JUMPI DUP1 PUSH4 0xE0DF0AC6 EQ PUSH2 0x709 JUMPI DUP1 PUSH4 0xFF508DAB EQ PUSH2 0x734 JUMPI JUMPDEST PUSH1 0x0 DUP1 REVERT JUMPDEST CALLVALUE DUP1 ISZERO PUSH2 0x190 JUMPI PUSH1 0x0 DUP1 REVERT JUMPDEST POP PUSH2 0x199 PUSH2 0x771 JUMP JUMPDEST PUSH1 0x40 MLOAD PUSH2 0x1A6 SWAP2 SWAP1 PUSH2 0x31EE JUMP JUMPDEST PUSH1 0x40 MLOAD DUP1 SWAP2 SUB SWAP1 RETURN JUMPDEST CALLVALUE DUP1 ISZERO PUSH2 0x1BB JUMPI PUSH1 0x0 DUP1 REVERT JUMPDEST POP PUSH2 0x1C4 PUSH2 0x7FF JUMP JUMPDEST PUSH1 0x40 MLOAD PUSH2 0x1D1 SWAP2 SWAP1 PUSH2 0x3350 JUMP JUMPDEST PUSH1 0x40 MLOAD DUP1 SWAP2 SUB SWAP1 RETURN JUMPDEST CALLVALUE DUP1 ISZERO PUSH2 0x1E6 JUMPI PUSH1 0x0 DUP1 REVERT JUMPDEST POP PUSH2 0x201 PUSH1 0x4 DUP1 CALLDATASIZE SUB PUSH2 0x1FC SWAP2 SWAP1 DUP2 ADD SWAP1 PUSH2 0x2CA9 JUMP JUMPDEST PUSH2 0x809 JUMP JUMPDEST PUSH1 0x40 MLOAD PUSH2 0x215 SWAP9 SWAP8 SWAP7 SWAP6 SWAP5 SWAP4 SWAP3 SWAP2 SWAP1 PUSH2 0x322B JUMP JUMPDEST PUSH1 0x40 MLOAD DUP1 SWAP2 SUB SWAP1 RETURN JUMPDEST CALLVALUE DUP1 ISZERO PUSH2 0x22A JUMPI PUSH1 0x0 DUP1 REVERT JUMPDEST POP PUSH2 0x233 PUSH2 0xD8E JUMP JUMPDEST PUSH1 0x40 MLOAD PUSH2 0x240 SWAP2 SWAP1 PUSH2 0x3350 JUMP JUMPDEST PUSH1 0x40 MLOAD DUP1 SWAP2 SUB SWAP1 RETURN JUMPDEST CALLVALUE DUP1 ISZERO PUSH2 0x255 JUMPI PUSH1 0x0 DUP1 REVERT JUMPDEST POP PUSH2 0x270 PUSH1 0x4 DUP1 CALLDATASIZE SUB PUSH2 0x26B SWAP2 SWAP1 DUP2 ADD SWAP1 PUSH2 0x30EC JUMP JUMPDEST PUSH2 0xD94 JUMP JUMPDEST PUSH1 0x40 MLOAD PUSH2 0x27D SWAP2 SWAP1 PUSH2 0x31D3 JUMP JUMPDEST PUSH1 0x40 MLOAD DUP1 SWAP2 SUB SWAP1 RETURN JUMPDEST CALLVALUE DUP1 ISZERO PUSH2 0x292 JUMPI PUSH1 0x0 DUP1 REVERT JUMPDEST POP PUSH2 0x2AD PUSH1 0x4 DUP1 CALLDATASIZE SUB PUSH2 0x2A8 SWAP2 SWAP1 DUP2 ADD SWAP1 PUSH2 0x2DDF JUMP JUMPDEST PUSH2 0xDD2 JUMP JUMPDEST STOP JUMPDEST CALLVALUE DUP1 ISZERO PUSH2 0x2BB JUMPI PUSH1 0x0 DUP1 REVERT JUMPDEST POP PUSH2 0x2D6 PUSH1 0x4 DUP1 CALLDATASIZE SUB PUSH2 0x2D1 SWAP2 SWAP1 DUP2 ADD SWAP1 PUSH2 0x2DDF JUMP JUMPDEST PUSH2 0xFC6 JUMP JUMPDEST STOP JUMPDEST CALLVALUE DUP1 ISZERO PUSH2 0x2E4 JUMPI PUSH1 0x0 DUP1 REVERT JUMPDEST POP PUSH2 0x2FF PUSH1 0x4 DUP1 CALLDATASIZE SUB PUSH2 0x2FA SWAP2 SWAP1 DUP2 ADD SWAP1 PUSH2 0x2CA9 JUMP JUMPDEST PUSH2 0x13E0 JUMP JUMPDEST PUSH1 0x40 MLOAD PUSH2 0x30C SWAP2 SWAP1 PUSH2 0x3210 JUMP JUMPDEST PUSH1 0x40 MLOAD DUP1 SWAP2 SUB SWAP1 RETURN JUMPDEST CALLVALUE DUP1 ISZERO PUSH2 0x321 JUMPI PUSH1 0x0 DUP1 REVERT JUMPDEST POP PUSH2 0x33C PUSH1 0x4 DUP1 CALLDATASIZE SUB PUSH2 0x337 SWAP2 SWAP1 DUP2 ADD SWAP1 PUSH2 0x2D0E JUMP JUMPDEST PUSH2 0x1492 JUMP JUMPDEST PUSH1 0x40 MLOAD PUSH2 0x349 SWAP2 SWAP1 PUSH2 0x3210 JUMP JUMPDEST PUSH1 0x40 MLOAD DUP1 SWAP2 SUB SWAP1 RETURN JUMPDEST CALLVALUE DUP1 ISZERO PUSH2 0x35E JUMPI PUSH1 0x0 DUP1 REVERT JUMPDEST POP PUSH2 0x379 PUSH1 0x4 DUP1 CALLDATASIZE SUB PUSH2 0x374 SWAP2 SWAP1 DUP2 ADD SWAP1 PUSH2 0x2CA9 JUMP JUMPDEST PUSH2 0x16E8 JUMP JUMPDEST PUSH1 0x40 MLOAD PUSH2 0x386 SWAP2 SWAP1 PUSH2 0x3210 JUMP JUMPDEST PUSH1 0x40 MLOAD DUP1 SWAP2 SUB SWAP1 RETURN JUMPDEST CALLVALUE DUP1 ISZERO PUSH2 0x39B JUMPI PUSH1 0x0 DUP1 REVERT JUMPDEST POP PUSH2 0x3B6 PUSH1 0x4 DUP1 CALLDATASIZE SUB PUSH2 0x3B1 SWAP2 SWAP1 DUP2 ADD SWAP1 PUSH2 0x2F39 JUMP JUMPDEST PUSH2 0x1787 JUMP JUMPDEST STOP JUMPDEST CALLVALUE DUP1 ISZERO PUSH2 0x3C4 JUMPI PUSH1 0x0 DUP1 REVERT JUMPDEST POP PUSH2 0x3DF PUSH1 0x4 DUP1 CALLDATASIZE SUB PUSH2 0x3DA SWAP2 SWAP1 DUP2 ADD SWAP1 PUSH2 0x2F39 JUMP JUMPDEST PUSH2 0x1BD5 JUMP JUMPDEST STOP JUMPDEST CALLVALUE DUP1 ISZERO PUSH2 0x3ED JUMPI PUSH1 0x0 DUP1 REVERT JUMPDEST POP PUSH2 0x3F6 PUSH2 0x1DFD JUMP JUMPDEST PUSH1 0x40 MLOAD PUSH2 0x403 SWAP2 SWAP1 PUSH2 0x3350 JUMP JUMPDEST PUSH1 0x40 MLOAD DUP1 SWAP2 SUB SWAP1 RETURN JUMPDEST CALLVALUE DUP1 ISZERO PUSH2 0x418 JUMPI PUSH1 0x0 DUP1 REVERT JUMPDEST POP PUSH2 0x421 PUSH2 0x1E03 JUMP JUMPDEST PUSH1 0x40 MLOAD PUSH2 0x42E SWAP2 SWAP1 PUSH2 0x3350 JUMP JUMPDEST PUSH1 0x40 MLOAD DUP1 SWAP2 SUB SWAP1 RETURN JUMPDEST CALLVALUE DUP1 ISZERO PUSH2 0x443 JUMPI PUSH1 0x0 DUP1 REVERT JUMPDEST POP PUSH2 0x45E PUSH1 0x4 DUP1 CALLDATASIZE SUB PUSH2 0x459 SWAP2 SWAP1 DUP2 ADD SWAP1 PUSH2 0x2CA9 JUMP JUMPDEST PUSH2 0x1E0D JUMP JUMPDEST PUSH1 0x40 MLOAD PUSH2 0x46B SWAP2 SWAP1 PUSH2 0x3210 JUMP JUMPDEST PUSH1 0x40 MLOAD DUP1 SWAP2 SUB SWAP1 RETURN JUMPDEST CALLVALUE DUP1 ISZERO PUSH2 0x480 JUMPI PUSH1 0x0 DUP1 REVERT JUMPDEST POP PUSH2 0x49B PUSH1 0x4 DUP1 CALLDATASIZE SUB PUSH2 0x496 SWAP2 SWAP1 DUP2 ADD SWAP1 PUSH2 0x2CA9 JUMP JUMPDEST PUSH2 0x1E93 JUMP JUMPDEST PUSH1 0x40 MLOAD PUSH2 0x4AD SWAP7 SWAP6 SWAP5 SWAP4 SWAP3 SWAP2 SWAP1 PUSH2 0x32DA JUMP JUMPDEST PUSH1 0x40 MLOAD DUP1 SWAP2 SUB SWAP1 RETURN JUMPDEST CALLVALUE DUP1 ISZERO PUSH2 0x4C2 JUMPI PUSH1 0x0 DUP1 REVERT JUMPDEST POP PUSH2 0x4CB PUSH2 0x21B9 JUMP JUMPDEST PUSH1 0x40 MLOAD PUSH2 0x4D8 SWAP2 SWAP1 PUSH2 0x31D3 JUMP JUMPDEST PUSH1 0x40 MLOAD DUP1 SWAP2 SUB SWAP1 RETURN JUMPDEST CALLVALUE DUP1 ISZERO PUSH2 0x4ED JUMPI PUSH1 0x0 DUP1 REVERT JUMPDEST POP PUSH2 0x4F6 PUSH2 0x21DE JUMP JUMPDEST PUSH1 0x40 MLOAD PUSH2 0x503 SWAP2 SWAP1 PUSH2 0x31D3 JUMP JUMPDEST PUSH1 0x40 MLOAD DUP1 SWAP2 SUB SWAP1 RETURN JUMPDEST CALLVALUE DUP1 ISZERO PUSH2 0x518 JUMPI PUSH1 0x0 DUP1 REVERT JUMPDEST POP PUSH2 0x521 PUSH2 0x2247 JUMP JUMPDEST PUSH1 0x40 MLOAD PUSH2 0x52E SWAP2 SWAP1 PUSH2 0x3350 JUMP JUMPDEST PUSH1 0x40 MLOAD DUP1 SWAP2 SUB SWAP1 RETURN JUMPDEST CALLVALUE DUP1 ISZERO PUSH2 0x543 JUMPI PUSH1 0x0 DUP1 REVERT JUMPDEST POP PUSH2 0x54C PUSH2 0x224D JUMP JUMPDEST PUSH1 0x40 MLOAD PUSH2 0x559 SWAP2 SWAP1 PUSH2 0x3350 JUMP JUMPDEST PUSH1 0x40 MLOAD DUP1 SWAP2 SUB SWAP1 RETURN JUMPDEST CALLVALUE DUP1 ISZERO PUSH2 0x56E JUMPI PUSH1 0x0 DUP1 REVERT JUMPDEST POP PUSH2 0x589 PUSH1 0x4 DUP1 CALLDATASIZE SUB PUSH2 0x584 SWAP2 SWAP1 DUP2 ADD SWAP1 PUSH2 0x30EC JUMP JUMPDEST PUSH2 0x2253 JUMP JUMPDEST PUSH1 0x40 MLOAD PUSH2 0x596 SWAP2 SWAP1 PUSH2 0x31D3 JUMP JUMPDEST PUSH1 0x40 MLOAD DUP1 SWAP2 SUB SWAP1 RETURN JUMPDEST CALLVALUE DUP1 ISZERO PUSH2 0x5AB JUMPI PUSH1 0x0 DUP1 REVERT JUMPDEST POP PUSH2 0x5B4 PUSH2 0x2291 JUMP JUMPDEST PUSH1 0x40 MLOAD PUSH2 0x5C1 SWAP2 SWAP1 PUSH2 0x31EE JUMP JUMPDEST PUSH1 0x40 MLOAD DUP1 SWAP2 SUB SWAP1 RETURN JUMPDEST CALLVALUE DUP1 ISZERO PUSH2 0x5D6 JUMPI PUSH1 0x0 DUP1 REVERT JUMPDEST POP PUSH2 0x5DF PUSH2 0x231F JUMP JUMPDEST PUSH1 0x40 MLOAD PUSH2 0x5EC SWAP2 SWAP1 PUSH2 0x3350 JUMP JUMPDEST PUSH1 0x40 MLOAD DUP1 SWAP2 SUB SWAP1 RETURN JUMPDEST CALLVALUE DUP1 ISZERO PUSH2 0x601 JUMPI PUSH1 0x0 DUP1 REVERT JUMPDEST POP PUSH2 0x60A PUSH2 0x2329 JUMP JUMPDEST PUSH1 0x40 MLOAD PUSH2 0x617 SWAP2 SWAP1 PUSH2 0x31D3 JUMP JUMPDEST PUSH1 0x40 MLOAD DUP1 SWAP2 SUB SWAP1 RETURN JUMPDEST CALLVALUE DUP1 ISZERO PUSH2 0x62C JUMPI PUSH1 0x0 DUP1 REVERT JUMPDEST POP PUSH2 0x647 PUSH1 0x4 DUP1 CALLDATASIZE SUB PUSH2 0x642 SWAP2 SWAP1 DUP2 ADD SWAP1 PUSH2 0x2CD2 JUMP JUMPDEST PUSH2 0x234F JUMP JUMPDEST PUSH1 0x40 MLOAD PUSH2 0x654 SWAP2 SWAP1 PUSH2 0x3210 JUMP JUMPDEST PUSH1 0x40 MLOAD DUP1 SWAP2 SUB SWAP1 RETURN JUMPDEST CALLVALUE DUP1 ISZERO PUSH2 0x669 JUMPI PUSH1 0x0 DUP1 REVERT JUMPDEST POP PUSH2 0x672 PUSH2 0x244C JUMP JUMPDEST PUSH1 0x40 MLOAD PUSH2 0x67F SWAP2 SWAP1 PUSH2 0x3350 JUMP JUMPDEST PUSH1 0x40 MLOAD DUP1 SWAP2 SUB SWAP1 RETURN JUMPDEST CALLVALUE DUP1 ISZERO PUSH2 0x694 JUMPI PUSH1 0x0 DUP1 REVERT JUMPDEST POP PUSH2 0x6AF PUSH1 0x4 DUP1 CALLDATASIZE SUB PUSH2 0x6AA SWAP2 SWAP1 DUP2 ADD SWAP1 PUSH2 0x2CA9 JUMP JUMPDEST PUSH2 0x2452 JUMP JUMPDEST PUSH1 0x40 MLOAD PUSH2 0x6C3 SWAP9 SWAP8 SWAP7 SWAP6 SWAP5 SWAP4 SWAP3 SWAP2 SWAP1 PUSH2 0x322B JUMP JUMPDEST PUSH1 0x40 MLOAD DUP1 SWAP2 SUB SWAP1 RETURN JUMPDEST CALLVALUE DUP1 ISZERO PUSH2 0x6D8 JUMPI PUSH1 0x0 DUP1 REVERT JUMPDEST POP PUSH2 0x6F3 PUSH1 0x4 DUP1 CALLDATASIZE SUB PUSH2 0x6EE SWAP2 SWAP1 DUP2 ADD SWAP1 PUSH2 0x2CD2 JUMP JUMPDEST PUSH2 0x2A2F JUMP JUMPDEST PUSH1 0x40 MLOAD PUSH2 0x700 SWAP2 SWAP1 PUSH2 0x3210 JUMP JUMPDEST PUSH1 0x40 MLOAD DUP1 SWAP2 SUB SWAP1 RETURN JUMPDEST CALLVALUE DUP1 ISZERO PUSH2 0x715 JUMPI PUSH1 0x0 DUP1 REVERT JUMPDEST POP PUSH2 0x71E PUSH2 0x2B3E JUMP JUMPDEST PUSH1 0x40 MLOAD PUSH2 0x72B SWAP2 SWAP1 PUSH2 0x3350 JUMP JUMPDEST PUSH1 0x40 MLOAD DUP1 SWAP2 SUB SWAP1 RETURN JUMPDEST CALLVALUE DUP1 ISZERO PUSH2 0x740 JUMPI PUSH1 0x0 DUP1 REVERT JUMPDEST POP PUSH2 0x75B PUSH1 0x4 DUP1 CALLDATASIZE SUB PUSH2 0x756 SWAP2 SWAP1 DUP2 ADD SWAP1 PUSH2 0x30EC JUMP JUMPDEST PUSH2 0x2B48 JUMP JUMPDEST PUSH1 0x40 MLOAD PUSH2 0x768 SWAP2 SWAP1 PUSH2 0x31D3 JUMP JUMPDEST PUSH1 0x40 MLOAD DUP1 SWAP2 SUB SWAP1 RETURN JUMPDEST PUSH1 0x60 PUSH1 0x1 DUP1 SLOAD DUP1 PUSH1 0x20 MUL PUSH1 0x20 ADD PUSH1 0x40 MLOAD SWAP1 DUP2 ADD PUSH1 0x40 MSTORE DUP1 SWAP3 SWAP2 SWAP1 DUP2 DUP2 MSTORE PUSH1 0x20 ADD DUP3 DUP1 SLOAD DUP1 ISZERO PUSH2 0x7F5 JUMPI PUSH1 0x20 MUL DUP3 ADD SWAP2 SWAP1 PUSH1 0x0 MSTORE PUSH1 0x20 PUSH1 0x0 KECCAK256 SWAP1 JUMPDEST DUP2 PUSH1 0x0 SWAP1 SLOAD SWAP1 PUSH2 0x100 EXP SWAP1 DIV PUSH20 0xFFFFFFFFFFFFFFFFFFFFFFFFFFFFFFFFFFFFFFFF AND PUSH20 0xFFFFFFFFFFFFFFFFFFFFFFFFFFFFFFFFFFFFFFFF AND DUP2 MSTORE PUSH1 0x20 ADD SWAP1 PUSH1 0x1 ADD SWAP1 DUP1 DUP4 GT PUSH2 0x7AB JUMPI JUMPDEST POP POP POP POP POP SWAP1 POP SWAP1 JUMP JUMPDEST PUSH1 0x0 PUSH1 0xE SLOAD SWAP1 POP SWAP1 JUMP JUMPDEST PUSH1 0x60 DUP1 PUSH1 0x60 DUP1 PUSH1 0x60 DUP1 PUSH1 0x60 PUSH1 0x0 DUP1 PUSH1 0x7 PUSH1 0x0 DUP12 PUSH20 0xFFFFFFFFFFFFFFFFFFFFFFFFFFFFFFFFFFFFFFFF AND PUSH20 0xFFFFFFFFFFFFFFFFFFFFFFFFFFFFFFFFFFFFFFFF AND DUP2 MSTORE PUSH1 0x20 ADD SWAP1 DUP2 MSTORE PUSH1 0x20 ADD PUSH1 0x0 KECCAK256 PUSH1 0x0 CALLER PUSH20 0xFFFFFFFFFFFFFFFFFFFFFFFFFFFFFFFFFFFFFFFF AND PUSH20 0xFFFFFFFFFFFFFFFFFFFFFFFFFFFFFFFFFFFFFFFF AND DUP2 MSTORE PUSH1 0x20 ADD SWAP1 DUP2 MSTORE PUSH1 0x20 ADD PUSH1 0x0 KECCAK256 PUSH1 0x0 SWAP1 SLOAD SWAP1 PUSH2 0x100 EXP SWAP1 DIV PUSH1 0xFF AND ISZERO ISZERO PUSH2 0x8AC JUMPI PUSH1 0x0 DUP1 REVERT JUMPDEST PUSH1 0x4 PUSH1 0x0 DUP12 PUSH20 0xFFFFFFFFFFFFFFFFFFFFFFFFFFFFFFFFFFFFFFFF AND PUSH20 0xFFFFFFFFFFFFFFFFFFFFFFFFFFFFFFFFFFFFFFFF AND DUP2 MSTORE PUSH1 0x20 ADD SWAP1 DUP2 MSTORE PUSH1 0x20 ADD PUSH1 0x0 KECCAK256 SWAP1 POP DUP1 PUSH1 0x0 ADD DUP2 PUSH1 0x1 ADD DUP3 PUSH1 0x6 ADD DUP4 PUSH1 0x2 ADD DUP5 PUSH1 0x3 ADD DUP6 PUSH1 0x4 ADD DUP7 PUSH1 0x5 ADD DUP8 PUSH1 0x9 ADD PUSH1 0x0 SWAP1 SLOAD SWAP1 PUSH2 0x100 EXP SWAP1 DIV PUSH20 0xFFFFFFFFFFFFFFFFFFFFFFFFFFFFFFFFFFFFFFFF AND DUP8 DUP1 SLOAD PUSH1 0x1 DUP2 PUSH1 0x1 AND ISZERO PUSH2 0x100 MUL SUB AND PUSH1 0x2 SWAP1 DIV DUP1 PUSH1 0x1F ADD PUSH1 0x20 DUP1 SWAP2 DIV MUL PUSH1 0x20 ADD PUSH1 0x40 MLOAD SWAP1 DUP2 ADD PUSH1 0x40 MSTORE DUP1 SWAP3 SWAP2 SWAP1 DUP2 DUP2 MSTORE PUSH1 0x20 ADD DUP3 DUP1 SLOAD PUSH1 0x1 DUP2 PUSH1 0x1 AND ISZERO PUSH2 0x100 MUL SUB AND PUSH1 0x2 SWAP1 DIV DUP1 ISZERO PUSH2 0x9C3 JUMPI DUP1 PUSH1 0x1F LT PUSH2 0x998 JUMPI PUSH2 0x100 DUP1 DUP4 SLOAD DIV MUL DUP4 MSTORE SWAP2 PUSH1 0x20 ADD SWAP2 PUSH2 0x9C3 JUMP JUMPDEST DUP3 ADD SWAP2 SWAP1 PUSH1 0x0 MSTORE PUSH1 0x20 PUSH1 0x0 KECCAK256 SWAP1 JUMPDEST DUP2 SLOAD DUP2 MSTORE SWAP1 PUSH1 0x1 ADD SWAP1 PUSH1 0x20 ADD DUP1 DUP4 GT PUSH2 0x9A6 JUMPI DUP3 SWAP1 SUB PUSH1 0x1F AND DUP3 ADD SWAP2 JUMPDEST POP POP POP POP POP SWAP8 POP DUP7 DUP1 SLOAD PUSH1 0x1 DUP2 PUSH1 0x1 AND ISZERO PUSH2 0x100 MUL SUB AND PUSH1 0x2 SWAP1 DIV DUP1 PUSH1 0x1F ADD PUSH1 0x20 DUP1 SWAP2 DIV MUL PUSH1 0x20 ADD PUSH1 0x40 MLOAD SWAP1 DUP2 ADD PUSH1 0x40 MSTORE DUP1 SWAP3 SWAP2 SWAP1 DUP2 DUP2 MSTORE PUSH1 0x20 ADD DUP3 DUP1 SLOAD PUSH1 0x1 DUP2 PUSH1 0x1 AND ISZERO PUSH2 0x100 MUL SUB AND PUSH1 0x2 SWAP1 DIV DUP1 ISZERO PUSH2 0xA5F JUMPI DUP1 PUSH1 0x1F LT PUSH2 0xA34 JUMPI PUSH2 0x100 DUP1 DUP4 SLOAD DIV MUL DUP4 MSTORE SWAP2 PUSH1 0x20 ADD SWAP2 PUSH2 0xA5F JUMP JUMPDEST DUP3 ADD SWAP2 SWAP1 PUSH1 0x0 MSTORE PUSH1 0x20 PUSH1 0x0 KECCAK256 SWAP1 JUMPDEST DUP2 SLOAD DUP2 MSTORE SWAP1 PUSH1 0x1 ADD SWAP1 PUSH1 0x20 ADD DUP1 DUP4 GT PUSH2 0xA42 JUMPI DUP3 SWAP1 SUB PUSH1 0x1F AND DUP3 ADD SWAP2 JUMPDEST POP POP POP POP POP SWAP7 POP DUP6 DUP1 SLOAD PUSH1 0x1 DUP2 PUSH1 0x1 AND ISZERO PUSH2 0x100 MUL SUB AND PUSH1 0x2 SWAP1 DIV DUP1 PUSH1 0x1F ADD PUSH1 0x20 DUP1 SWAP2 DIV MUL PUSH1 0x20 ADD PUSH1 0x40 MLOAD SWAP1 DUP2 ADD PUSH1 0x40 MSTORE DUP1 SWAP3 SWAP2 SWAP1 DUP2 DUP2 MSTORE PUSH1 0x20 ADD DUP3 DUP1 SLOAD PUSH1 0x1 DUP2 PUSH1 0x1 AND ISZERO PUSH2 0x100 MUL SUB AND PUSH1 0x2 SWAP1 DIV DUP1 ISZERO PUSH2 0xAFB JUMPI DUP1 PUSH1 0x1F LT PUSH2 0xAD0 JUMPI PUSH2 0x100 DUP1 DUP4 SLOAD DIV MUL DUP4 MSTORE SWAP2 PUSH1 0x20 ADD SWAP2 PUSH2 0xAFB JUMP JUMPDEST DUP3 ADD SWAP2 SWAP1 PUSH1 0x0 MSTORE PUSH1 0x20 PUSH1 0x0 KECCAK256 SWAP1 JUMPDEST DUP2 SLOAD DUP2 MSTORE SWAP1 PUSH1 0x1 ADD SWAP1 PUSH1 0x20 ADD DUP1 DUP4 GT PUSH2 0xADE JUMPI DUP3 SWAP1 SUB PUSH1 0x1F AND DUP3 ADD SWAP2 JUMPDEST POP POP POP POP POP SWAP6 POP DUP5 DUP1 SLOAD PUSH1 0x1 DUP2 PUSH1 0x1 AND ISZERO PUSH2 0x100 MUL SUB AND PUSH1 0x2 SWAP1 DIV DUP1 PUSH1 0x1F ADD PUSH1 0x20 DUP1 SWAP2 DIV MUL PUSH1 0x20 ADD PUSH1 0x40 MLOAD SWAP1 DUP2 ADD PUSH1 0x40 MSTORE DUP1 SWAP3 SWAP2 SWAP1 DUP2 DUP2 MSTORE PUSH1 0x20 ADD DUP3 DUP1 SLOAD PUSH1 0x1 DUP2 PUSH1 0x1 AND ISZERO PUSH2 0x100 MUL SUB AND PUSH1 0x2 SWAP1 DIV DUP1 ISZERO PUSH2 0xB97 JUMPI DUP1 PUSH1 0x1F LT PUSH2 0xB6C JUMPI PUSH2 0x100 DUP1 DUP4 SLOAD DIV MUL DUP4 MSTORE SWAP2 PUSH1 0x20 ADD SWAP2 PUSH2 0xB97 JUMP JUMPDEST DUP3 ADD SWAP2 SWAP1 PUSH1 0x0 MSTORE PUSH1 0x20 PUSH1 0x0 KECCAK256 SWAP1 JUMPDEST DUP2 SLOAD DUP2 MSTORE SWAP1 PUSH1 0x1 ADD SWAP1 PUSH1 0x20 ADD DUP1 DUP4 GT PUSH2 0xB7A JUMPI DUP3 SWAP1 SUB PUSH1 0x1F AND DUP3 ADD SWAP2 JUMPDEST POP POP POP POP POP SWAP5 POP DUP4 DUP1 SLOAD PUSH1 0x1 DUP2 PUSH1 0x1 AND ISZERO PUSH2 0x100 MUL SUB AND PUSH1 0x2 SWAP1 DIV DUP1 PUSH1 0x1F ADD PUSH1 0x20 DUP1 SWAP2 DIV MUL PUSH1 0x20 ADD PUSH1 0x40 MLOAD SWAP1 DUP2 ADD PUSH1 0x40 MSTORE DUP1 SWAP3 SWAP2 SWAP1 DUP2 DUP2 MSTORE PUSH1 0x20 ADD DUP3 DUP1 SLOAD PUSH1 0x1 DUP2 PUSH1 0x1 AND ISZERO PUSH2 0x100 MUL SUB AND PUSH1 0x2 SWAP1 DIV DUP1 ISZERO PUSH2 0xC33 JUMPI DUP1 PUSH1 0x1F LT PUSH2 0xC08 JUMPI PUSH2 0x100 DUP1 DUP4 SLOAD DIV MUL DUP4 MSTORE SWAP2 PUSH1 0x20 ADD SWAP2 PUSH2 0xC33 JUMP JUMPDEST DUP3 ADD SWAP2 SWAP1 PUSH1 0x0 MSTORE PUSH1 0x20 PUSH1 0x0 KECCAK256 SWAP1 JUMPDEST DUP2 SLOAD DUP2 MSTORE SWAP1 PUSH1 0x1 ADD SWAP1 PUSH1 0x20 ADD DUP1 DUP4 GT PUSH2 0xC16 JUMPI DUP3 SWAP1 SUB PUSH1 0x1F AND DUP3 ADD SWAP2 JUMPDEST POP POP POP POP POP SWAP4 POP DUP3 DUP1 SLOAD PUSH1 0x1 DUP2 PUSH1 0x1 AND ISZERO PUSH2 0x100 MUL SUB AND PUSH1 0x2 SWAP1 DIV DUP1 PUSH1 0x1F ADD PUSH1 0x20 DUP1 SWAP2 DIV MUL PUSH1 0x20 ADD PUSH1 0x40 MLOAD SWAP1 DUP2 ADD PUSH1 0x40 MSTORE DUP1 SWAP3 SWAP2 SWAP1 DUP2 DUP2 MSTORE PUSH1 0x20 ADD DUP3 DUP1 SLOAD PUSH1 0x1 DUP2 PUSH1 0x1 AND ISZERO PUSH2 0x100 MUL SUB AND PUSH1 0x2 SWAP1 DIV DUP1 ISZERO PUSH2 0xCCF JUMPI DUP1 PUSH1 0x1F LT PUSH2 0xCA4 JUMPI PUSH2 0x100 DUP1 DUP4 SLOAD DIV MUL DUP4 MSTORE SWAP2 PUSH1 0x20 ADD SWAP2 PUSH2 0xCCF JUMP JUMPDEST DUP3 ADD SWAP2 SWAP1 PUSH1 0x0 MSTORE PUSH1 0x20 PUSH1 0x0 KECCAK256 SWAP1 JUMPDEST DUP2 SLOAD DUP2 MSTORE SWAP1 PUSH1 0x1 ADD SWAP1 PUSH1 0x20 ADD DUP1 DUP4 GT PUSH2 0xCB2 JUMPI DUP3 SWAP1 SUB PUSH1 0x1F AND DUP3 ADD SWAP2 JUMPDEST POP POP POP POP POP SWAP3 POP DUP2 DUP1 SLOAD PUSH1 0x1 DUP2 PUSH1 0x1 AND ISZERO PUSH2 0x100 MUL SUB AND PUSH1 0x2 SWAP1 DIV DUP1 PUSH1 0x1F ADD PUSH1 0x20 DUP1 SWAP2 DIV MUL PUSH1 0x20 ADD PUSH1 0x40 MLOAD SWAP1 DUP2 ADD PUSH1 0x40 MSTORE DUP1 SWAP3 SWAP2 SWAP1 DUP2 DUP2 MSTORE PUSH1 0x20 ADD DUP3 DUP1 SLOAD PUSH1 0x1 DUP2 PUSH1 0x1 AND ISZERO PUSH2 0x100 MUL SUB AND PUSH1 0x2 SWAP1 DIV DUP1 ISZERO PUSH2 0xD6B JUMPI DUP1 PUSH1 0x1F LT PUSH2 0xD40 JUMPI PUSH2 0x100 DUP1 DUP4 SLOAD DIV MUL DUP4 MSTORE SWAP2 PUSH1 0x20 ADD SWAP2 PUSH2 0xD6B JUMP JUMPDEST DUP3 ADD SWAP2 SWAP1 PUSH1 0x0 MSTORE PUSH1 0x20 PUSH1 0x0 KECCAK256 SWAP1 JUMPDEST DUP2 SLOAD DUP2 MSTORE SWAP1 PUSH1 0x1 ADD SWAP1 PUSH1 0x20 ADD DUP1 DUP4 GT PUSH2 0xD4E JUMPI DUP3 SWAP1 SUB PUSH1 0x1F AND DUP3 ADD SWAP2 JUMPDEST POP POP POP POP POP SWAP2 POP SWAP9 POP SWAP9 POP SWAP9 POP SWAP9 POP SWAP9 POP SWAP9 POP SWAP9 POP SWAP9 POP POP SWAP2 SWAP4 SWAP6 SWAP8 POP SWAP2 SWAP4 SWAP6 SWAP8 JUMP JUMPDEST PUSH1 0xB SLOAD DUP2 JUMP JUMPDEST PUSH1 0x2 DUP2 DUP2 SLOAD DUP2 LT ISZERO ISZERO PUSH2 0xDA3 JUMPI INVALID JUMPDEST SWAP1 PUSH1 0x0 MSTORE PUSH1 0x20 PUSH1 0x0 KECCAK256 ADD PUSH1 0x0 SWAP2 POP SLOAD SWAP1 PUSH2 0x100 EXP SWAP1 DIV PUSH20 0xFFFFFFFFFFFFFFFFFFFFFFFFFFFFFFFFFFFFFFFF AND DUP2 JUMP JUMPDEST PUSH1 0x0 PUSH1 0x10 PUSH1 0x0 SWAP1 SLOAD SWAP1 PUSH2 0x100 EXP SWAP1 DIV PUSH20 0xFFFFFFFFFFFFFFFFFFFFFFFFFFFFFFFFFFFFFFFF AND PUSH20 0xFFFFFFFFFFFFFFFFFFFFFFFFFFFFFFFFFFFFFFFF AND CALLER PUSH20 0xFFFFFFFFFFFFFFFFFFFFFFFFFFFFFFFFFFFFFFFF AND EQ ISZERO ISZERO PUSH2 0xE30 JUMPI PUSH1 0x0 DUP1 REVERT JUMPDEST PUSH1 0x9 PUSH1 0x0 DUP11 PUSH20 0xFFFFFFFFFFFFFFFFFFFFFFFFFFFFFFFFFFFFFFFF AND PUSH20 0xFFFFFFFFFFFFFFFFFFFFFFFFFFFFFFFFFFFFFFFF AND DUP2 MSTORE PUSH1 0x20 ADD SWAP1 DUP2 MSTORE PUSH1 0x20 ADD PUSH1 0x0 KECCAK256 PUSH1 0x0 SWAP1 SLOAD SWAP1 PUSH2 0x100 EXP SWAP1 DIV PUSH1 0xFF AND ISZERO ISZERO PUSH2 0xE88 JUMPI PUSH1 0x0 DUP1 REVERT JUMPDEST PUSH1 0x5 PUSH1 0x0 DUP11 PUSH20 0xFFFFFFFFFFFFFFFFFFFFFFFFFFFFFFFFFFFFFFFF AND PUSH20 0xFFFFFFFFFFFFFFFFFFFFFFFFFFFFFFFFFFFFFFFF AND DUP2 MSTORE PUSH1 0x20 ADD SWAP1 DUP2 MSTORE PUSH1 0x20 ADD PUSH1 0x0 KECCAK256 SWAP1 POP DUP8 DUP2 PUSH1 0x0 ADD SWAP1 DUP1 MLOAD SWAP1 PUSH1 0x20 ADD SWAP1 PUSH2 0xEE1 SWAP3 SWAP2 SWAP1 PUSH2 0x2B86 JUMP JUMPDEST POP DUP7 DUP2 PUSH1 0x1 ADD SWAP1 DUP1 MLOAD SWAP1 PUSH1 0x20 ADD SWAP1 PUSH2 0xEFA SWAP3 SWAP2 SWAP1 PUSH2 0x2B86 JUMP JUMPDEST POP DUP6 DUP2 PUSH1 0x2 ADD SWAP1 DUP1 MLOAD SWAP1 PUSH1 0x20 ADD SWAP1 PUSH2 0xF13 SWAP3 SWAP2 SWAP1 PUSH2 0x2B86 JUMP JUMPDEST POP DUP5 DUP2 PUSH1 0x3 ADD SWAP1 DUP1 MLOAD SWAP1 PUSH1 0x20 ADD SWAP1 PUSH2 0xF2C SWAP3 SWAP2 SWAP1 PUSH2 0x2B86 JUMP JUMPDEST POP DUP4 DUP2 PUSH1 0x5 ADD SWAP1 DUP1 MLOAD SWAP1 PUSH1 0x20 ADD SWAP1 PUSH2 0xF45 SWAP3 SWAP2 SWAP1 PUSH2 0x2B86 JUMP JUMPDEST POP DUP3 DUP2 PUSH1 0x6 ADD SWAP1 DUP1 MLOAD SWAP1 PUSH1 0x20 ADD SWAP1 PUSH2 0xF5E SWAP3 SWAP2 SWAP1 PUSH2 0x2B86 JUMP JUMPDEST POP DUP2 DUP2 PUSH1 0x7 ADD SWAP1 DUP1 MLOAD SWAP1 PUSH1 0x20 ADD SWAP1 PUSH2 0xF77 SWAP3 SWAP2 SWAP1 PUSH2 0x2B86 JUMP JUMPDEST POP DUP9 DUP2 PUSH1 0x8 ADD PUSH1 0x0 PUSH2 0x100 EXP DUP2 SLOAD DUP2 PUSH20 0xFFFFFFFFFFFFFFFFFFFFFFFFFFFFFFFFFFFFFFFF MUL NOT AND SWAP1 DUP4 PUSH20 0xFFFFFFFFFFFFFFFFFFFFFFFFFFFFFFFFFFFFFFFF AND MUL OR SWAP1 SSTORE POP POP POP POP POP POP POP POP POP POP JUMP JUMPDEST PUSH1 0x0 PUSH1 0x10 PUSH1 0x0 SWAP1 SLOAD SWAP1 PUSH2 0x100 EXP SWAP1 DIV PUSH20 0xFFFFFFFFFFFFFFFFFFFFFFFFFFFFFFFFFFFFFFFF AND PUSH20 0xFFFFFFFFFFFFFFFFFFFFFFFFFFFFFFFFFFFFFFFF AND CALLER PUSH20 0xFFFFFFFFFFFFFFFFFFFFFFFFFFFFFFFFFFFFFFFF AND EQ ISZERO ISZERO PUSH2 0x1024 JUMPI PUSH1 0x0 DUP1 REVERT JUMPDEST PUSH1 0x9 PUSH1 0x0 DUP11 PUSH20 0xFFFFFFFFFFFFFFFFFFFFFFFFFFFFFFFFFFFFFFFF AND PUSH20 0xFFFFFFFFFFFFFFFFFFFFFFFFFFFFFFFFFFFFFFFF AND DUP2 MSTORE PUSH1 0x20 ADD SWAP1 DUP2 MSTORE PUSH1 0x20 ADD PUSH1 0x0 KECCAK256 PUSH1 0x0 SWAP1 SLOAD SWAP1 PUSH2 0x100 EXP SWAP1 DIV PUSH1 0xFF AND ISZERO ISZERO ISZERO PUSH2 0x107D JUMPI PUSH1 0x0 DUP1 REVERT JUMPDEST PUSH1 0x5 PUSH1 0x0 DUP11 PUSH20 0xFFFFFFFFFFFFFFFFFFFFFFFFFFFFFFFFFFFFFFFF AND PUSH20 0xFFFFFFFFFFFFFFFFFFFFFFFFFFFFFFFFFFFFFFFF AND DUP2 MSTORE PUSH1 0x20 ADD SWAP1 DUP2 MSTORE PUSH1 0x20 ADD PUSH1 0x0 KECCAK256 SWAP1 POP DUP8 DUP2 PUSH1 0x0 ADD SWAP1 DUP1 MLOAD SWAP1 PUSH1 0x20 ADD SWAP1 PUSH2 0x10D6 SWAP3 SWAP2 SWAP1 PUSH2 0x2B86 JUMP JUMPDEST POP DUP7 DUP2 PUSH1 0x1 ADD SWAP1 DUP1 MLOAD SWAP1 PUSH1 0x20 ADD SWAP1 PUSH2 0x10EF SWAP3 SWAP2 SWAP1 PUSH2 0x2B86 JUMP JUMPDEST POP DUP6 DUP2 PUSH1 0x2 ADD SWAP1 DUP1 MLOAD SWAP1 PUSH1 0x20 ADD SWAP1 PUSH2 0x1108 SWAP3 SWAP2 SWAP1 PUSH2 0x2B86 JUMP JUMPDEST POP DUP5 DUP2 PUSH1 0x3 ADD SWAP1 DUP1 MLOAD SWAP1 PUSH1 0x20 ADD SWAP1 PUSH2 0x1121 SWAP3 SWAP2 SWAP1 PUSH2 0x2B86 JUMP JUMPDEST POP DUP4 DUP2 PUSH1 0x5 ADD SWAP1 DUP1 MLOAD SWAP1 PUSH1 0x20 ADD SWAP1 PUSH2 0x113A SWAP3 SWAP2 SWAP1 PUSH2 0x2B86 JUMP JUMPDEST POP DUP3 DUP2 PUSH1 0x6 ADD SWAP1 DUP1 MLOAD SWAP1 PUSH1 0x20 ADD SWAP1 PUSH2 0x1153 SWAP3 SWAP2 SWAP1 PUSH2 0x2B86 JUMP JUMPDEST POP DUP2 DUP2 PUSH1 0x7 ADD SWAP1 DUP1 MLOAD SWAP1 PUSH1 0x20 ADD SWAP1 PUSH2 0x116C SWAP3 SWAP2 SWAP1 PUSH2 0x2B86 JUMP JUMPDEST POP DUP9 DUP2 PUSH1 0x8 ADD PUSH1 0x0 PUSH2 0x100 EXP DUP2 SLOAD DUP2 PUSH20 0xFFFFFFFFFFFFFFFFFFFFFFFFFFFFFFFFFFFFFFFF MUL NOT AND SWAP1 DUP4 PUSH20 0xFFFFFFFFFFFFFFFFFFFFFFFFFFFFFFFFFFFFFFFF AND MUL OR SWAP1 SSTORE POP TIMESTAMP DUP2 PUSH1 0x9 ADD DUP2 SWAP1 SSTORE POP PUSH1 0x2 DUP10 SWAP1 DUP1 PUSH1 0x1 DUP2 SLOAD ADD DUP1 DUP3 SSTORE DUP1 SWAP2 POP POP SWAP1 PUSH1 0x1 DUP3 SUB SWAP1 PUSH1 0x0 MSTORE PUSH1 0x20 PUSH1 0x0 KECCAK256 ADD PUSH1 0x0 SWAP1 SWAP2 SWAP3 SWAP1 SWAP2 SWAP1 SWAP2 PUSH2 0x100 EXP DUP2 SLOAD DUP2 PUSH20 0xFFFFFFFFFFFFFFFFFFFFFFFFFFFFFFFFFFFFFFFF MUL NOT AND SWAP1 DUP4 PUSH20 0xFFFFFFFFFFFFFFFFFFFFFFFFFFFFFFFFFFFFFFFF AND MUL OR SWAP1 SSTORE POP POP PUSH1 0x1 PUSH1 0x9 PUSH1 0x0 DUP12 PUSH20 0xFFFFFFFFFFFFFFFFFFFFFFFFFFFFFFFFFFFFFFFF AND PUSH20 0xFFFFFFFFFFFFFFFFFFFFFFFFFFFFFFFFFFFFFFFF AND DUP2 MSTORE PUSH1 0x20 ADD SWAP1 DUP2 MSTORE PUSH1 0x20 ADD PUSH1 0x0 KECCAK256 PUSH1 0x0 PUSH2 0x100 EXP DUP2 SLOAD DUP2 PUSH1 0xFF MUL NOT AND SWAP1 DUP4 ISZERO ISZERO MUL OR SWAP1 SSTORE POP PUSH1 0x1 PUSH1 0x7 PUSH1 0x0 DUP12 PUSH20 0xFFFFFFFFFFFFFFFFFFFFFFFFFFFFFFFFFFFFFFFF AND PUSH20 0xFFFFFFFFFFFFFFFFFFFFFFFFFFFFFFFFFFFFFFFF AND DUP2 MSTORE PUSH1 0x20 ADD SWAP1 DUP2 MSTORE PUSH1 0x20 ADD PUSH1 0x0 KECCAK256 PUSH1 0x0 DUP12 PUSH20 0xFFFFFFFFFFFFFFFFFFFFFFFFFFFFFFFFFFFFFFFF AND PUSH20 0xFFFFFFFFFFFFFFFFFFFFFFFFFFFFFFFFFFFFFFFF AND DUP2 MSTORE PUSH1 0x20 ADD SWAP1 DUP2 MSTORE PUSH1 0x20 ADD PUSH1 0x0 KECCAK256 PUSH1 0x0 PUSH2 0x100 EXP DUP2 SLOAD DUP2 PUSH1 0xFF MUL NOT AND SWAP1 DUP4 ISZERO ISZERO MUL OR SWAP1 SSTORE POP PUSH1 0x1 PUSH1 0x7 PUSH1 0x0 DUP12 PUSH20 0xFFFFFFFFFFFFFFFFFFFFFFFFFFFFFFFFFFFFFFFF AND PUSH20 0xFFFFFFFFFFFFFFFFFFFFFFFFFFFFFFFFFFFFFFFF AND DUP2 MSTORE PUSH1 0x20 ADD SWAP1 DUP2 MSTORE PUSH1 0x20 ADD PUSH1 0x0 KECCAK256 PUSH1 0x0 PUSH1 0x10 PUSH1 0x0 SWAP1 SLOAD SWAP1 PUSH2 0x100 EXP SWAP1 DIV PUSH20 0xFFFFFFFFFFFFFFFFFFFFFFFFFFFFFFFFFFFFFFFF AND PUSH20 0xFFFFFFFFFFFFFFFFFFFFFFFFFFFFFFFFFFFFFFFF AND PUSH20 0xFFFFFFFFFFFFFFFFFFFFFFFFFFFFFFFFFFFFFFFF AND DUP2 MSTORE PUSH1 0x20 ADD SWAP1 DUP2 MSTORE PUSH1 0x20 ADD PUSH1 0x0 KECCAK256 PUSH1 0x0 PUSH2 0x100 EXP DUP2 SLOAD DUP2 PUSH1 0xFF MUL NOT AND SWAP1 DUP4 ISZERO ISZERO MUL OR SWAP1 SSTORE POP PUSH1 0xC PUSH1 0x0 DUP2 SLOAD DUP1 SWAP3 SWAP2 SWAP1 PUSH1 0x1 ADD SWAP2 SWAP1 POP SSTORE POP POP POP POP POP POP POP POP POP POP JUMP JUMPDEST PUSH1 0x0 PUSH1 0x1 PUSH1 0x7 PUSH1 0x0 CALLER PUSH20 0xFFFFFFFFFFFFFFFFFFFFFFFFFFFFFFFFFFFFFFFF AND PUSH20 0xFFFFFFFFFFFFFFFFFFFFFFFFFFFFFFFFFFFFFFFF AND DUP2 MSTORE PUSH1 0x20 ADD SWAP1 DUP2 MSTORE PUSH1 0x20 ADD PUSH1 0x0 KECCAK256 PUSH1 0x0 DUP5 PUSH20 0xFFFFFFFFFFFFFFFFFFFFFFFFFFFFFFFFFFFFFFFF AND PUSH20 0xFFFFFFFFFFFFFFFFFFFFFFFFFFFFFFFFFFFFFFFF AND DUP2 MSTORE PUSH1 0x20 ADD SWAP1 DUP2 MSTORE PUSH1 0x20 ADD PUSH1 0x0 KECCAK256 PUSH1 0x0 PUSH2 0x100 EXP DUP2 SLOAD DUP2 PUSH1 0xFF MUL NOT AND SWAP1 DUP4 ISZERO ISZERO MUL OR SWAP1 SSTORE POP PUSH1 0xE PUSH1 0x0 DUP2 SLOAD DUP1 SWAP3 SWAP2 SWAP1 PUSH1 0x1 ADD SWAP2 SWAP1 POP SSTORE POP PUSH1 0x1 SWAP1 POP SWAP2 SWAP1 POP JUMP JUMPDEST PUSH1 0x0 DUP1 PUSH1 0x10 PUSH1 0x0 SWAP1 SLOAD SWAP1 PUSH2 0x100 EXP SWAP1 DIV PUSH20 0xFFFFFFFFFFFFFFFFFFFFFFFFFFFFFFFFFFFFFFFF AND PUSH20 0xFFFFFFFFFFFFFFFFFFFFFFFFFFFFFFFFFFFFFFFF AND CALLER PUSH20 0xFFFFFFFFFFFFFFFFFFFFFFFFFFFFFFFFFFFFFFFF AND EQ ISZERO ISZERO PUSH2 0x14F1 JUMPI PUSH1 0x0 DUP1 REVERT JUMPDEST PUSH1 0xA PUSH1 0x0 DUP10 PUSH20 0xFFFFFFFFFFFFFFFFFFFFFFFFFFFFFFFFFFFFFFFF AND PUSH20 0xFFFFFFFFFFFFFFFFFFFFFFFFFFFFFFFFFFFFFFFF AND DUP2 MSTORE PUSH1 0x20 ADD SWAP1 DUP2 MSTORE PUSH1 0x20 ADD PUSH1 0x0 KECCAK256 PUSH1 0x0 SWAP1 SLOAD SWAP1 PUSH2 0x100 EXP SWAP1 DIV PUSH1 0xFF AND ISZERO ISZERO ISZERO PUSH2 0x154A JUMPI PUSH1 0x0 DUP1 REVERT JUMPDEST PUSH1 0x6 PUSH1 0x0 DUP10 PUSH20 0xFFFFFFFFFFFFFFFFFFFFFFFFFFFFFFFFFFFFFFFF AND PUSH20 0xFFFFFFFFFFFFFFFFFFFFFFFFFFFFFFFFFFFFFFFF AND DUP2 MSTORE PUSH1 0x20 ADD SWAP1 DUP2 MSTORE PUSH1 0x20 ADD PUSH1 0x0 KECCAK256 SWAP1 POP DUP6 DUP2 PUSH1 0x0 ADD SWAP1 DUP1 MLOAD SWAP1 PUSH1 0x20 ADD SWAP1 PUSH2 0x15A3 SWAP3 SWAP2 SWAP1 PUSH2 0x2B86 JUMP JUMPDEST POP DUP5 DUP2 PUSH1 0x1 ADD SWAP1 DUP1 MLOAD SWAP1 PUSH1 0x20 ADD SWAP1 PUSH2 0x15BC SWAP3 SWAP2 SWAP1 PUSH2 0x2B86 JUMP JUMPDEST POP DUP4 DUP2 PUSH1 0x2 ADD SWAP1 DUP1 MLOAD SWAP1 PUSH1 0x20 ADD SWAP1 PUSH2 0x15D5 SWAP3 SWAP2 SWAP1 PUSH2 0x2B86 JUMP JUMPDEST POP DUP3 DUP2 PUSH1 0x3 ADD DUP2 SWAP1 SSTORE POP DUP8 DUP2 PUSH1 0x4 ADD PUSH1 0x0 PUSH2 0x100 EXP DUP2 SLOAD DUP2 PUSH20 0xFFFFFFFFFFFFFFFFFFFFFFFFFFFFFFFFFFFFFFFF MUL NOT AND SWAP1 DUP4 PUSH20 0xFFFFFFFFFFFFFFFFFFFFFFFFFFFFFFFFFFFFFFFF AND MUL OR SWAP1 SSTORE POP DUP7 DUP2 PUSH1 0x5 ADD PUSH1 0x0 PUSH2 0x100 EXP DUP2 SLOAD DUP2 PUSH20 0xFFFFFFFFFFFFFFFFFFFFFFFFFFFFFFFFFFFFFFFF MUL NOT AND SWAP1 DUP4 PUSH20 0xFFFFFFFFFFFFFFFFFFFFFFFFFFFFFFFFFFFFFFFF AND MUL OR SWAP1 SSTORE POP PUSH1 0x3 DUP9 SWAP1 DUP1 PUSH1 0x1 DUP2 SLOAD ADD DUP1 DUP3 SSTORE DUP1 SWAP2 POP POP SWAP1 PUSH1 0x1 DUP3 SUB SWAP1 PUSH1 0x0 MSTORE PUSH1 0x20 PUSH1 0x0 KECCAK256 ADD PUSH1 0x0 SWAP1 SWAP2 SWAP3 SWAP1 SWAP2 SWAP1 SWAP2 PUSH2 0x100 EXP DUP2 SLOAD DUP2 PUSH20 0xFFFFFFFFFFFFFFFFFFFFFFFFFFFFFFFFFFFFFFFF MUL NOT AND SWAP1 DUP4 PUSH20 0xFFFFFFFFFFFFFFFFFFFFFFFFFFFFFFFFFFFFFFFF AND MUL OR SWAP1 SSTORE POP POP PUSH1 0xF PUSH1 0x0 DUP2 SLOAD DUP1 SWAP3 SWAP2 SWAP1 PUSH1 0x1 ADD SWAP2 SWAP1 POP SSTORE POP POP SWAP7 SWAP6 POP POP POP POP POP POP JUMP JUMPDEST PUSH1 0x0 DUP1 PUSH1 0x7 PUSH1 0x0 CALLER PUSH20 0xFFFFFFFFFFFFFFFFFFFFFFFFFFFFFFFFFFFFFFFF AND PUSH20 0xFFFFFFFFFFFFFFFFFFFFFFFFFFFFFFFFFFFFFFFF AND DUP2 MSTORE PUSH1 0x20 ADD SWAP1 DUP2 MSTORE PUSH1 0x20 ADD PUSH1 0x0 KECCAK256 PUSH1 0x0 DUP5 PUSH20 0xFFFFFFFFFFFFFFFFFFFFFFFFFFFFFFFFFFFFFFFF AND PUSH20 0xFFFFFFFFFFFFFFFFFFFFFFFFFFFFFFFFFFFFFFFF AND DUP2 MSTORE PUSH1 0x20 ADD SWAP1 DUP2 MSTORE PUSH1 0x20 ADD PUSH1 0x0 KECCAK256 PUSH1 0x0 PUSH2 0x100 EXP DUP2 SLOAD DUP2 PUSH1 0xFF MUL NOT AND SWAP1 DUP4 ISZERO ISZERO MUL OR SWAP1 SSTORE POP PUSH1 0x1 SWAP1 POP SWAP2 SWAP1 POP JUMP JUMPDEST PUSH1 0x0 PUSH1 0x10 PUSH1 0x0 SWAP1 SLOAD SWAP1 PUSH2 0x100 EXP SWAP1 DIV PUSH20 0xFFFFFFFFFFFFFFFFFFFFFFFFFFFFFFFFFFFFFFFF AND PUSH20 0xFFFFFFFFFFFFFFFFFFFFFFFFFFFFFFFFFFFFFFFF AND CALLER PUSH20 0xFFFFFFFFFFFFFFFFFFFFFFFFFFFFFFFFFFFFFFFF AND EQ ISZERO ISZERO PUSH2 0x17E5 JUMPI PUSH1 0x0 DUP1 REVERT JUMPDEST PUSH1 0x8 PUSH1 0x0 DUP13 PUSH20 0xFFFFFFFFFFFFFFFFFFFFFFFFFFFFFFFFFFFFFFFF AND PUSH20 0xFFFFFFFFFFFFFFFFFFFFFFFFFFFFFFFFFFFFFFFF AND DUP2 MSTORE PUSH1 0x20 ADD SWAP1 DUP2 MSTORE PUSH1 0x20 ADD PUSH1 0x0 KECCAK256 PUSH1 0x0 SWAP1 SLOAD SWAP1 PUSH2 0x100 EXP SWAP1 DIV PUSH1 0xFF AND ISZERO ISZERO ISZERO PUSH2 0x183E JUMPI PUSH1 0x0 DUP1 REVERT JUMPDEST PUSH1 0x4 PUSH1 0x0 DUP13 PUSH20 0xFFFFFFFFFFFFFFFFFFFFFFFFFFFFFFFFFFFFFFFF AND PUSH20 0xFFFFFFFFFFFFFFFFFFFFFFFFFFFFFFFFFFFFFFFF AND DUP2 MSTORE PUSH1 0x20 ADD SWAP1 DUP2 MSTORE PUSH1 0x20 ADD PUSH1 0x0 KECCAK256 SWAP1 POP DUP10 DUP2 PUSH1 0x0 ADD SWAP1 DUP1 MLOAD SWAP1 PUSH1 0x20 ADD SWAP1 PUSH2 0x1897 SWAP3 SWAP2 SWAP1 PUSH2 0x2B86 JUMP JUMPDEST POP DUP9 DUP2 PUSH1 0x1 ADD SWAP1 DUP1 MLOAD SWAP1 PUSH1 0x20 ADD SWAP1 PUSH2 0x18B0 SWAP3 SWAP2 SWAP1 PUSH2 0x2B86 JUMP JUMPDEST POP DUP8 DUP2 PUSH1 0x2 ADD SWAP1 DUP1 MLOAD SWAP1 PUSH1 0x20 ADD SWAP1 PUSH2 0x18C9 SWAP3 SWAP2 SWAP1 PUSH2 0x2B86 JUMP JUMPDEST POP DUP7 DUP2 PUSH1 0x3 ADD SWAP1 DUP1 MLOAD SWAP1 PUSH1 0x20 ADD SWAP1 PUSH2 0x18E2 SWAP3 SWAP2 SWAP1 PUSH2 0x2B86 JUMP JUMPDEST POP DUP6 DUP2 PUSH1 0x4 ADD SWAP1 DUP1 MLOAD SWAP1 PUSH1 0x20 ADD SWAP1 PUSH2 0x18FB SWAP3 SWAP2 SWAP1 PUSH2 0x2B86 JUMP JUMPDEST POP DUP5 DUP2 PUSH1 0x5 ADD SWAP1 DUP1 MLOAD SWAP1 PUSH1 0x20 ADD SWAP1 PUSH2 0x1914 SWAP3 SWAP2 SWAP1 PUSH2 0x2B86 JUMP JUMPDEST POP DUP4 DUP2 PUSH1 0x6 ADD SWAP1 DUP1 MLOAD SWAP1 PUSH1 0x20 ADD SWAP1 PUSH2 0x192D SWAP3 SWAP2 SWAP1 PUSH2 0x2B86 JUMP JUMPDEST POP DUP3 DUP2 PUSH1 0x7 ADD SWAP1 DUP1 MLOAD SWAP1 PUSH1 0x20 ADD SWAP1 PUSH2 0x1946 SWAP3 SWAP2 SWAP1 PUSH2 0x2B86 JUMP JUMPDEST POP DUP2 DUP2 PUSH1 0x8 ADD SWAP1 DUP1 MLOAD SWAP1 PUSH1 0x20 ADD SWAP1 PUSH2 0x195F SWAP3 SWAP2 SWAP1 PUSH2 0x2B86 JUMP JUMPDEST POP DUP11 DUP2 PUSH1 0x9 ADD PUSH1 0x0 PUSH2 0x100 EXP DUP2 SLOAD DUP2 PUSH20 0xFFFFFFFFFFFFFFFFFFFFFFFFFFFFFFFFFFFFFFFF MUL NOT AND SWAP1 DUP4 PUSH20 0xFFFFFFFFFFFFFFFFFFFFFFFFFFFFFFFFFFFFFFFF AND MUL OR SWAP1 SSTORE POP TIMESTAMP DUP2 PUSH1 0xA ADD DUP2 SWAP1 SSTORE POP PUSH1 0x1 DUP12 SWAP1 DUP1 PUSH1 0x1 DUP2 SLOAD ADD DUP1 DUP3 SSTORE DUP1 SWAP2 POP POP SWAP1 PUSH1 0x1 DUP3 SUB SWAP1 PUSH1 0x0 MSTORE PUSH1 0x20 PUSH1 0x0 KECCAK256 ADD PUSH1 0x0 SWAP1 SWAP2 SWAP3 SWAP1 SWAP2 SWAP1 SWAP2 PUSH2 0x100 EXP DUP2 SLOAD DUP2 PUSH20 0xFFFFFFFFFFFFFFFFFFFFFFFFFFFFFFFFFFFFFFFF MUL NOT AND SWAP1 DUP4 PUSH20 0xFFFFFFFFFFFFFFFFFFFFFFFFFFFFFFFFFFFFFFFF AND MUL OR SWAP1 SSTORE POP POP PUSH1 0x1 PUSH1 0x8 PUSH1 0x0 DUP14 PUSH20 0xFFFFFFFFFFFFFFFFFFFFFFFFFFFFFFFFFFFFFFFF AND PUSH20 0xFFFFFFFFFFFFFFFFFFFFFFFFFFFFFFFFFFFFFFFF AND DUP2 MSTORE PUSH1 0x20 ADD SWAP1 DUP2 MSTORE PUSH1 0x20 ADD PUSH1 0x0 KECCAK256 PUSH1 0x0 PUSH2 0x100 EXP DUP2 SLOAD DUP2 PUSH1 0xFF MUL NOT AND SWAP1 DUP4 ISZERO ISZERO MUL OR SWAP1 SSTORE POP PUSH1 0x1 PUSH1 0x7 PUSH1 0x0 DUP14 PUSH20 0xFFFFFFFFFFFFFFFFFFFFFFFFFFFFFFFFFFFFFFFF AND PUSH20 0xFFFFFFFFFFFFFFFFFFFFFFFFFFFFFFFFFFFFFFFF AND DUP2 MSTORE PUSH1 0x20 ADD SWAP1 DUP2 MSTORE PUSH1 0x20 ADD PUSH1 0x0 KECCAK256 PUSH1 0x0 DUP14 PUSH20 0xFFFFFFFFFFFFFFFFFFFFFFFFFFFFFFFFFFFFFFFF AND PUSH20 0xFFFFFFFFFFFFFFFFFFFFFFFFFFFFFFFFFFFFFFFF AND DUP2 MSTORE PUSH1 0x20 ADD SWAP1 DUP2 MSTORE PUSH1 0x20 ADD PUSH1 0x0 KECCAK256 PUSH1 0x0 PUSH2 0x100 EXP DUP2 SLOAD DUP2 PUSH1 0xFF MUL NOT AND SWAP1 DUP4 ISZERO ISZERO MUL OR SWAP1 SSTORE POP PUSH1 0x1 PUSH1 0x7 PUSH1 0x0 DUP14 PUSH20 0xFFFFFFFFFFFFFFFFFFFFFFFFFFFFFFFFFFFFFFFF AND PUSH20 0xFFFFFFFFFFFFFFFFFFFFFFFFFFFFFFFFFFFFFFFF AND DUP2 MSTORE PUSH1 0x20 ADD SWAP1 DUP2 MSTORE PUSH1 0x20 ADD PUSH1 0x0 KECCAK256 PUSH1 0x0 PUSH1 0x10 PUSH1 0x0 SWAP1 SLOAD SWAP1 PUSH2 0x100 EXP SWAP1 DIV PUSH20 0xFFFFFFFFFFFFFFFFFFFFFFFFFFFFFFFFFFFFFFFF AND PUSH20 0xFFFFFFFFFFFFFFFFFFFFFFFFFFFFFFFFFFFFFFFF AND PUSH20 0xFFFFFFFFFFFFFFFFFFFFFFFFFFFFFFFFFFFFFFFF AND DUP2 MSTORE PUSH1 0x20 ADD SWAP1 DUP2 MSTORE PUSH1 0x20 ADD PUSH1 0x0 KECCAK256 PUSH1 0x0 PUSH2 0x100 EXP DUP2 SLOAD DUP2 PUSH1 0xFF MUL NOT AND SWAP1 DUP4 ISZERO ISZERO MUL OR SWAP1 SSTORE POP PUSH1 0xB PUSH1 0x0 DUP2 SLOAD DUP1 SWAP3 SWAP2 SWAP1 PUSH1 0x1 ADD SWAP2 SWAP1 POP SSTORE POP POP POP POP POP POP POP POP POP POP POP POP JUMP JUMPDEST PUSH1 0x0 PUSH1 0x10 PUSH1 0x0 SWAP1 SLOAD SWAP1 PUSH2 0x100 EXP SWAP1 DIV PUSH20 0xFFFFFFFFFFFFFFFFFFFFFFFFFFFFFFFFFFFFFFFF AND PUSH20 0xFFFFFFFFFFFFFFFFFFFFFFFFFFFFFFFFFFFFFFFF AND CALLER PUSH20 0xFFFFFFFFFFFFFFFFFFFFFFFFFFFFFFFFFFFFFFFF AND EQ ISZERO ISZERO PUSH2 0x1C33 JUMPI PUSH1 0x0 DUP1 REVERT JUMPDEST PUSH1 0x8 PUSH1 0x0 DUP13 PUSH20 0xFFFFFFFFFFFFFFFFFFFFFFFFFFFFFFFFFFFFFFFF AND PUSH20 0xFFFFFFFFFFFFFFFFFFFFFFFFFFFFFFFFFFFFFFFF AND DUP2 MSTORE PUSH1 0x20 ADD SWAP1 DUP2 MSTORE PUSH1 0x20 ADD PUSH1 0x0 KECCAK256 PUSH1 0x0 SWAP1 SLOAD SWAP1 PUSH2 0x100 EXP SWAP1 DIV PUSH1 0xFF AND ISZERO ISZERO PUSH2 0x1C8B JUMPI PUSH1 0x0 DUP1 REVERT JUMPDEST PUSH1 0x4 PUSH1 0x0 DUP13 PUSH20 0xFFFFFFFFFFFFFFFFFFFFFFFFFFFFFFFFFFFFFFFF AND PUSH20 0xFFFFFFFFFFFFFFFFFFFFFFFFFFFFFFFFFFFFFFFF AND DUP2 MSTORE PUSH1 0x20 ADD SWAP1 DUP2 MSTORE PUSH1 0x20 ADD PUSH1 0x0 KECCAK256 SWAP1 POP DUP10 DUP2 PUSH1 0x0 ADD SWAP1 DUP1 MLOAD SWAP1 PUSH1 0x20 ADD SWAP1 PUSH2 0x1CE4 SWAP3 SWAP2 SWAP1 PUSH2 0x2B86 JUMP JUMPDEST POP DUP9 DUP2 PUSH1 0x1 ADD SWAP1 DUP1 MLOAD SWAP1 PUSH1 0x20 ADD SWAP1 PUSH2 0x1CFD SWAP3 SWAP2 SWAP1 PUSH2 0x2B86 JUMP JUMPDEST POP DUP8 DUP2 PUSH1 0x2 ADD SWAP1 DUP1 MLOAD SWAP1 PUSH1 0x20 ADD SWAP1 PUSH2 0x1D16 SWAP3 SWAP2 SWAP1 PUSH2 0x2B86 JUMP JUMPDEST POP DUP7 DUP2 PUSH1 0x3 ADD SWAP1 DUP1 MLOAD SWAP1 PUSH1 0x20 ADD SWAP1 PUSH2 0x1D2F SWAP3 SWAP2 SWAP1 PUSH2 0x2B86 JUMP JUMPDEST POP DUP6 DUP2 PUSH1 0x4 ADD SWAP1 DUP1 MLOAD SWAP1 PUSH1 0x20 ADD SWAP1 PUSH2 0x1D48 SWAP3 SWAP2 SWAP1 PUSH2 0x2B86 JUMP JUMPDEST POP DUP5 DUP2 PUSH1 0x5 ADD SWAP1 DUP1 MLOAD SWAP1 PUSH1 0x20 ADD SWAP1 PUSH2 0x1D61 SWAP3 SWAP2 SWAP1 PUSH2 0x2B86 JUMP JUMPDEST POP DUP4 DUP2 PUSH1 0x6 ADD SWAP1 DUP1 MLOAD SWAP1 PUSH1 0x20 ADD SWAP1 PUSH2 0x1D7A SWAP3 SWAP2 SWAP1 PUSH2 0x2B86 JUMP JUMPDEST POP DUP3 DUP2 PUSH1 0x7 ADD SWAP1 DUP1 MLOAD SWAP1 PUSH1 0x20 ADD SWAP1 PUSH2 0x1D93 SWAP3 SWAP2 SWAP1 PUSH2 0x2B86 JUMP JUMPDEST POP DUP2 DUP2 PUSH1 0x8 ADD SWAP1 DUP1 MLOAD SWAP1 PUSH1 0x20 ADD SWAP1 PUSH2 0x1DAC SWAP3 SWAP2 SWAP1 PUSH2 0x2B86 JUMP JUMPDEST POP DUP11 DUP2 PUSH1 0x9 ADD PUSH1 0x0 PUSH2 0x100 EXP DUP2 SLOAD DUP2 PUSH20 0xFFFFFFFFFFFFFFFFFFFFFFFFFFFFFFFFFFFFFFFF MUL NOT AND SWAP1 DUP4 PUSH20 0xFFFFFFFFFFFFFFFFFFFFFFFFFFFFFFFFFFFFFFFF AND MUL OR SWAP1 SSTORE POP POP POP POP POP POP POP POP POP POP POP POP JUMP JUMPDEST PUSH1 0xC SLOAD DUP2 JUMP JUMPDEST PUSH1 0x0 PUSH1 0xC SLOAD SWAP1 POP SWAP1 JUMP JUMPDEST PUSH1 0x0 DUP1 PUSH1 0x0 SWAP1 POP PUSH1 0x2 DUP1 SLOAD SWAP1 POP DUP2 LT ISZERO PUSH2 0x1E8C JUMPI PUSH1 0x1 ISZERO ISZERO PUSH1 0x9 PUSH1 0x0 DUP6 PUSH20 0xFFFFFFFFFFFFFFFFFFFFFFFFFFFFFFFFFFFFFFFF AND PUSH20 0xFFFFFFFFFFFFFFFFFFFFFFFFFFFFFFFFFFFFFFFF AND DUP2 MSTORE PUSH1 0x20 ADD SWAP1 DUP2 MSTORE PUSH1 0x20 ADD PUSH1 0x0 KECCAK256 PUSH1 0x0 SWAP1 SLOAD SWAP1 PUSH2 0x100 EXP SWAP1 DIV PUSH1 0xFF AND ISZERO ISZERO EQ ISZERO PUSH2 0x1E83 JUMPI PUSH1 0x1 SWAP2 POP PUSH2 0x1E8D JUMP JUMPDEST PUSH1 0x0 SWAP2 POP PUSH2 0x1E8D JUMP JUMPDEST JUMPDEST POP SWAP2 SWAP1 POP JUMP JUMPDEST PUSH1 0x60 DUP1 PUSH1 0x60 PUSH1 0x0 DUP1 PUSH1 0x0 DUP1 PUSH1 0x7 PUSH1 0x0 DUP10 PUSH20 0xFFFFFFFFFFFFFFFFFFFFFFFFFFFFFFFFFFFFFFFF AND PUSH20 0xFFFFFFFFFFFFFFFFFFFFFFFFFFFFFFFFFFFFFFFF AND DUP2 MSTORE PUSH1 0x20 ADD SWAP1 DUP2 MSTORE PUSH1 0x20 ADD PUSH1 0x0 KECCAK256 PUSH1 0x0 CALLER PUSH20 0xFFFFFFFFFFFFFFFFFFFFFFFFFFFFFFFFFFFFFFFF AND PUSH20 0xFFFFFFFFFFFFFFFFFFFFFFFFFFFFFFFFFFFFFFFF AND DUP2 MSTORE PUSH1 0x20 ADD SWAP1 DUP2 MSTORE PUSH1 0x20 ADD PUSH1 0x0 KECCAK256 PUSH1 0x0 SWAP1 SLOAD SWAP1 PUSH2 0x100 EXP SWAP1 DIV PUSH1 0xFF AND ISZERO ISZERO PUSH2 0x1F33 JUMPI PUSH1 0x0 DUP1 REVERT JUMPDEST PUSH1 0x6 PUSH1 0x0 DUP10 PUSH20 0xFFFFFFFFFFFFFFFFFFFFFFFFFFFFFFFFFFFFFFFF AND PUSH20 0xFFFFFFFFFFFFFFFFFFFFFFFFFFFFFFFFFFFFFFFF AND DUP2 MSTORE PUSH1 0x20 ADD SWAP1 DUP2 MSTORE PUSH1 0x20 ADD PUSH1 0x0 KECCAK256 SWAP1 POP DUP1 PUSH1 0x0 ADD DUP2 PUSH1 0x1 ADD DUP3 PUSH1 0x2 ADD DUP4 PUSH1 0x3 ADD SLOAD DUP5 PUSH1 0x4 ADD PUSH1 0x0 SWAP1 SLOAD SWAP1 PUSH2 0x100 EXP SWAP1 DIV PUSH20 0xFFFFFFFFFFFFFFFFFFFFFFFFFFFFFFFFFFFFFFFF AND DUP6 PUSH1 0x5 ADD PUSH1 0x0 SWAP1 SLOAD SWAP1 PUSH2 0x100 EXP SWAP1 DIV PUSH20 0xFFFFFFFFFFFFFFFFFFFFFFFFFFFFFFFFFFFFFFFF AND DUP6 DUP1 SLOAD PUSH1 0x1 DUP2 PUSH1 0x1 AND ISZERO PUSH2 0x100 MUL SUB AND PUSH1 0x2 SWAP1 DIV DUP1 PUSH1 0x1F ADD PUSH1 0x20 DUP1 SWAP2 DIV MUL PUSH1 0x20 ADD PUSH1 0x40 MLOAD SWAP1 DUP2 ADD PUSH1 0x40 MSTORE DUP1 SWAP3 SWAP2 SWAP1 DUP2 DUP2 MSTORE PUSH1 0x20 ADD DUP3 DUP1 SLOAD PUSH1 0x1 DUP2 PUSH1 0x1 AND ISZERO PUSH2 0x100 MUL SUB AND PUSH1 0x2 SWAP1 DIV DUP1 ISZERO PUSH2 0x2064 JUMPI DUP1 PUSH1 0x1F LT PUSH2 0x2039 JUMPI PUSH2 0x100 DUP1 DUP4 SLOAD DIV MUL DUP4 MSTORE SWAP2 PUSH1 0x20 ADD SWAP2 PUSH2 0x2064 JUMP JUMPDEST DUP3 ADD SWAP2 SWAP1 PUSH1 0x0 MSTORE PUSH1 0x20 PUSH1 0x0 KECCAK256 SWAP1 JUMPDEST DUP2 SLOAD DUP2 MSTORE SWAP1 PUSH1 0x1 ADD SWAP1 PUSH1 0x20 ADD DUP1 DUP4 GT PUSH2 0x2047 JUMPI DUP3 SWAP1 SUB PUSH1 0x1F AND DUP3 ADD SWAP2 JUMPDEST POP POP POP POP POP SWAP6 POP DUP5 DUP1 SLOAD PUSH1 0x1 DUP2 PUSH1 0x1 AND ISZERO PUSH2 0x100 MUL SUB AND PUSH1 0x2 SWAP1 DIV DUP1 PUSH1 0x1F ADD PUSH1 0x20 DUP1 SWAP2 DIV MUL PUSH1 0x20 ADD PUSH1 0x40 MLOAD SWAP1 DUP2 ADD PUSH1 0x40 MSTORE DUP1 SWAP3 SWAP2 SWAP1 DUP2 DUP2 MSTORE PUSH1 0x20 ADD DUP3 DUP1 SLOAD PUSH1 0x1 DUP2 PUSH1 0x1 AND ISZERO PUSH2 0x100 MUL SUB AND PUSH1 0x2 SWAP1 DIV DUP1 ISZERO PUSH2 0x2100 JUMPI DUP1 PUSH1 0x1F LT PUSH2 0x20D5 JUMPI PUSH2 0x100 DUP1 DUP4 SLOAD DIV MUL DUP4 MSTORE SWAP2 PUSH1 0x20 ADD SWAP2 PUSH2 0x2100 JUMP JUMPDEST DUP3 ADD SWAP2 SWAP1 PUSH1 0x0 MSTORE PUSH1 0x20 PUSH1 0x0 KECCAK256 SWAP1 JUMPDEST DUP2 SLOAD DUP2 MSTORE SWAP1 PUSH1 0x1 ADD SWAP1 PUSH1 0x20 ADD DUP1 DUP4 GT PUSH2 0x20E3 JUMPI DUP3 SWAP1 SUB PUSH1 0x1F AND DUP3 ADD SWAP2 JUMPDEST POP POP POP POP POP SWAP5 POP DUP4 DUP1 SLOAD PUSH1 0x1 DUP2 PUSH1 0x1 AND ISZERO PUSH2 0x100 MUL SUB AND PUSH1 0x2 SWAP1 DIV DUP1 PUSH1 0x1F ADD PUSH1 0x20 DUP1 SWAP2 DIV MUL PUSH1 0x20 ADD PUSH1 0x40 MLOAD SWAP1 DUP2 ADD PUSH1 0x40 MSTORE DUP1 SWAP3 SWAP2 SWAP1 DUP2 DUP2 MSTORE PUSH1 0x20 ADD DUP3 DUP1 SLOAD PUSH1 0x1 DUP2 PUSH1 0x1 AND ISZERO PUSH2 0x100 MUL SUB AND PUSH1 0x2 SWAP1 DIV DUP1 ISZERO PUSH2 0x219C JUMPI DUP1 PUSH1 0x1F LT PUSH2 0x2171 JUMPI PUSH2 0x100 DUP1 DUP4 SLOAD DIV MUL DUP4 MSTORE SWAP2 PUSH1 0x20 ADD SWAP2 PUSH2 0x219C JUMP JUMPDEST DUP3 ADD SWAP2 SWAP1 PUSH1 0x0 MSTORE PUSH1 0x20 PUSH1 0x0 KECCAK256 SWAP1 JUMPDEST DUP2 SLOAD DUP2 MSTORE SWAP1 PUSH1 0x1 ADD SWAP1 PUSH1 0x20 ADD DUP1 DUP4 GT PUSH2 0x217F JUMPI DUP3 SWAP1 SUB PUSH1 0x1F AND DUP3 ADD SWAP2 JUMPDEST POP POP POP POP POP SWAP4 POP SWAP7 POP SWAP7 POP SWAP7 POP SWAP7 POP SWAP7 POP SWAP7 POP POP SWAP2 SWAP4 SWAP6 POP SWAP2 SWAP4 SWAP6 JUMP JUMPDEST PUSH1 0x0 DUP1 SWAP1 SLOAD SWAP1 PUSH2 0x100 EXP SWAP1 DIV PUSH20 0xFFFFFFFFFFFFFFFFFFFFFFFFFFFFFFFFFFFFFFFF AND DUP2 JUMP JUMPDEST PUSH1 0x0 CALLER PUSH1 0x0 DUP1 PUSH2 0x100 EXP DUP2 SLOAD DUP2 PUSH20 0xFFFFFFFFFFFFFFFFFFFFFFFFFFFFFFFFFFFFFFFF MUL NOT AND SWAP1 DUP4 PUSH20 0xFFFFFFFFFFFFFFFFFFFFFFFFFFFFFFFFFFFFFFFF AND MUL OR SWAP1 SSTORE POP PUSH1 0x0 DUP1 SWAP1 SLOAD SWAP1 PUSH2 0x100 EXP SWAP1 DIV PUSH20 0xFFFFFFFFFFFFFFFFFFFFFFFFFFFFFFFFFFFFFFFF AND SWAP1 POP SWAP1 JUMP JUMPDEST PUSH1 0xF SLOAD DUP2 JUMP JUMPDEST PUSH1 0xD SLOAD DUP2 JUMP JUMPDEST PUSH1 0x1 DUP2 DUP2 SLOAD DUP2 LT ISZERO ISZERO PUSH2 0x2262 JUMPI INVALID JUMPDEST SWAP1 PUSH1 0x0 MSTORE PUSH1 0x20 PUSH1 0x0 KECCAK256 ADD PUSH1 0x0 SWAP2 POP SLOAD SWAP1 PUSH2 0x100 EXP SWAP1 DIV PUSH20 0xFFFFFFFFFFFFFFFFFFFFFFFFFFFFFFFFFFFFFFFF AND DUP2 JUMP JUMPDEST PUSH1 0x60 PUSH1 0x2 DUP1 SLOAD DUP1 PUSH1 0x20 MUL PUSH1 0x20 ADD PUSH1 0x40 MLOAD SWAP1 DUP2 ADD PUSH1 0x40 MSTORE DUP1 SWAP3 SWAP2 SWAP1 DUP2 DUP2 MSTORE PUSH1 0x20 ADD DUP3 DUP1 SLOAD DUP1 ISZERO PUSH2 0x2315 JUMPI PUSH1 0x20 MUL DUP3 ADD SWAP2 SWAP1 PUSH1 0x0 MSTORE PUSH1 0x20 PUSH1 0x0 KECCAK256 SWAP1 JUMPDEST DUP2 PUSH1 0x0 SWAP1 SLOAD SWAP1 PUSH2 0x100 EXP SWAP1 DIV PUSH20 0xFFFFFFFFFFFFFFFFFFFFFFFFFFFFFFFFFFFFFFFF AND PUSH20 0xFFFFFFFFFFFFFFFFFFFFFFFFFFFFFFFFFFFFFFFF AND DUP2 MSTORE PUSH1 0x20 ADD SWAP1 PUSH1 0x1 ADD SWAP1 DUP1 DUP4 GT PUSH2 0x22CB JUMPI JUMPDEST POP POP POP POP POP SWAP1 POP SWAP1 JUMP JUMPDEST PUSH1 0x0 PUSH1 0xB SLOAD SWAP1 POP SWAP1 JUMP JUMPDEST PUSH1 0x10 PUSH1 0x0 SWAP1 SLOAD SWAP1 PUSH2 0x100 EXP SWAP1 DIV PUSH20 0xFFFFFFFFFFFFFFFFFFFFFFFFFFFFFFFFFFFFFFFF AND DUP2 JUMP JUMPDEST PUSH1 0x0 PUSH1 0x10 PUSH1 0x0 SWAP1 SLOAD SWAP1 PUSH2 0x100 EXP SWAP1 DIV PUSH20 0xFFFFFFFFFFFFFFFFFFFFFFFFFFFFFFFFFFFFFFFF AND PUSH20 0xFFFFFFFFFFFFFFFFFFFFFFFFFFFFFFFFFFFFFFFF AND CALLER PUSH20 0xFFFFFFFFFFFFFFFFFFFFFFFFFFFFFFFFFFFFFFFF AND EQ ISZERO ISZERO PUSH2 0x23AD JUMPI PUSH1 0x0 DUP1 REVERT JUMPDEST PUSH1 0x0 PUSH1 0x7 PUSH1 0x0 DUP6 PUSH20 0xFFFFFFFFFFFFFFFFFFFFFFFFFFFFFFFFFFFFFFFF AND PUSH20 0xFFFFFFFFFFFFFFFFFFFFFFFFFFFFFFFFFFFFFFFF AND DUP2 MSTORE PUSH1 0x20 ADD SWAP1 DUP2 MSTORE PUSH1 0x20 ADD PUSH1 0x0 KECCAK256 PUSH1 0x0 DUP5 PUSH20 0xFFFFFFFFFFFFFFFFFFFFFFFFFFFFFFFFFFFFFFFF AND PUSH20 0xFFFFFFFFFFFFFFFFFFFFFFFFFFFFFFFFFFFFFFFF AND DUP2 MSTORE PUSH1 0x20 ADD SWAP1 DUP2 MSTORE PUSH1 0x20 ADD PUSH1 0x0 KECCAK256 PUSH1 0x0 PUSH2 0x100 EXP DUP2 SLOAD DUP2 PUSH1 0xFF MUL NOT AND SWAP1 DUP4 ISZERO ISZERO MUL OR SWAP1 SSTORE POP PUSH1 0x1 SWAP1 POP SWAP3 SWAP2 POP POP JUMP JUMPDEST PUSH1 0xE SLOAD DUP2 JUMP JUMPDEST PUSH1 0x60 DUP1 PUSH1 0x60 DUP1 PUSH1 0x60 DUP1 PUSH1 0x60 PUSH1 0x0 DUP1 PUSH1 0x7 PUSH1 0x0 DUP12 PUSH20 0xFFFFFFFFFFFFFFFFFFFFFFFFFFFFFFFFFFFFFFFF AND PUSH20 0xFFFFFFFFFFFFFFFFFFFFFFFFFFFFFFFFFFFFFFFF AND DUP2 MSTORE PUSH1 0x20 ADD SWAP1 DUP2 MSTORE PUSH1 0x20 ADD PUSH1 0x0 KECCAK256 PUSH1 0x0 CALLER PUSH20 0xFFFFFFFFFFFFFFFFFFFFFFFFFFFFFFFFFFFFFFFF AND PUSH20 0xFFFFFFFFFFFFFFFFFFFFFFFFFFFFFFFFFFFFFFFF AND DUP2 MSTORE PUSH1 0x20 ADD SWAP1 DUP2 MSTORE PUSH1 0x20 ADD PUSH1 0x0 KECCAK256 PUSH1 0x0 SWAP1 SLOAD SWAP1 PUSH2 0x100 EXP SWAP1 DIV PUSH1 0xFF AND ISZERO ISZERO PUSH2 0x24F5 JUMPI PUSH1 0x0 DUP1 REVERT JUMPDEST PUSH1 0x9 PUSH1 0x0 DUP12 PUSH20 0xFFFFFFFFFFFFFFFFFFFFFFFFFFFFFFFFFFFFFFFF AND PUSH20 0xFFFFFFFFFFFFFFFFFFFFFFFFFFFFFFFFFFFFFFFF AND DUP2 MSTORE PUSH1 0x20 ADD SWAP1 DUP2 MSTORE PUSH1 0x20 ADD PUSH1 0x0 KECCAK256 PUSH1 0x0 SWAP1 SLOAD SWAP1 PUSH2 0x100 EXP SWAP1 DIV PUSH1 0xFF AND ISZERO ISZERO PUSH2 0x254D JUMPI PUSH1 0x0 DUP1 REVERT JUMPDEST PUSH1 0x5 PUSH1 0x0 DUP12 PUSH20 0xFFFFFFFFFFFFFFFFFFFFFFFFFFFFFFFFFFFFFFFF AND PUSH20 0xFFFFFFFFFFFFFFFFFFFFFFFFFFFFFFFFFFFFFFFF AND DUP2 MSTORE PUSH1 0x20 ADD SWAP1 DUP2 MSTORE PUSH1 0x20 ADD PUSH1 0x0 KECCAK256 SWAP1 POP DUP1 PUSH1 0x0 ADD DUP2 PUSH1 0x1 ADD DUP3 PUSH1 0x2 ADD DUP4 PUSH1 0x3 ADD DUP5 PUSH1 0x5 ADD DUP6 PUSH1 0x6 ADD DUP7 PUSH1 0x7 ADD DUP8 PUSH1 0x8 ADD PUSH1 0x0 SWAP1 SLOAD SWAP1 PUSH2 0x100 EXP SWAP1 DIV PUSH20 0xFFFFFFFFFFFFFFFFFFFFFFFFFFFFFFFFFFFFFFFF AND DUP8 DUP1 SLOAD PUSH1 0x1 DUP2 PUSH1 0x1 AND ISZERO PUSH2 0x100 MUL SUB AND PUSH1 0x2 SWAP1 DIV DUP1 PUSH1 0x1F ADD PUSH1 0x20 DUP1 SWAP2 DIV MUL PUSH1 0x20 ADD PUSH1 0x40 MLOAD SWAP1 DUP2 ADD PUSH1 0x40 MSTORE DUP1 SWAP3 SWAP2 SWAP1 DUP2 DUP2 MSTORE PUSH1 0x20 ADD DUP3 DUP1 SLOAD PUSH1 0x1 DUP2 PUSH1 0x1 AND ISZERO PUSH2 0x100 MUL SUB AND PUSH1 0x2 SWAP1 DIV DUP1 ISZERO PUSH2 0x2664 JUMPI DUP1 PUSH1 0x1F LT PUSH2 0x2639 JUMPI PUSH2 0x100 DUP1 DUP4 SLOAD DIV MUL DUP4 MSTORE SWAP2 PUSH1 0x20 ADD SWAP2 PUSH2 0x2664 JUMP JUMPDEST DUP3 ADD SWAP2 SWAP1 PUSH1 0x0 MSTORE PUSH1 0x20 PUSH1 0x0 KECCAK256 SWAP1 JUMPDEST DUP2 SLOAD DUP2 MSTORE SWAP1 PUSH1 0x1 ADD SWAP1 PUSH1 0x20 ADD DUP1 DUP4 GT PUSH2 0x2647 JUMPI DUP3 SWAP1 SUB PUSH1 0x1F AND DUP3 ADD SWAP2 JUMPDEST POP POP POP POP POP SWAP8 POP DUP7 DUP1 SLOAD PUSH1 0x1 DUP2 PUSH1 0x1 AND ISZERO PUSH2 0x100 MUL SUB AND PUSH1 0x2 SWAP1 DIV DUP1 PUSH1 0x1F ADD PUSH1 0x20 DUP1 SWAP2 DIV MUL PUSH1 0x20 ADD PUSH1 0x40 MLOAD SWAP1 DUP2 ADD PUSH1 0x40 MSTORE DUP1 SWAP3 SWAP2 SWAP1 DUP2 DUP2 MSTORE PUSH1 0x20 ADD DUP3 DUP1 SLOAD PUSH1 0x1 DUP2 PUSH1 0x1 AND ISZERO PUSH2 0x100 MUL SUB AND PUSH1 0x2 SWAP1 DIV DUP1 ISZERO PUSH2 0x2700 JUMPI DUP1 PUSH1 0x1F LT PUSH2 0x26D5 JUMPI PUSH2 0x100 DUP1 DUP4 SLOAD DIV MUL DUP4 MSTORE SWAP2 PUSH1 0x20 ADD SWAP2 PUSH2 0x2700 JUMP JUMPDEST DUP3 ADD SWAP2 SWAP1 PUSH1 0x0 MSTORE PUSH1 0x20 PUSH1 0x0 KECCAK256 SWAP1 JUMPDEST DUP2 SLOAD DUP2 MSTORE SWAP1 PUSH1 0x1 ADD SWAP1 PUSH1 0x20 ADD DUP1 DUP4 GT PUSH2 0x26E3 JUMPI DUP3 SWAP1 SUB PUSH1 0x1F AND DUP3 ADD SWAP2 JUMPDEST POP POP POP POP POP SWAP7 POP DUP6 DUP1 SLOAD PUSH1 0x1 DUP2 PUSH1 0x1 AND ISZERO PUSH2 0x100 MUL SUB AND PUSH1 0x2 SWAP1 DIV DUP1 PUSH1 0x1F ADD PUSH1 0x20 DUP1 SWAP2 DIV MUL PUSH1 0x20 ADD PUSH1 0x40 MLOAD SWAP1 DUP2 ADD PUSH1 0x40 MSTORE DUP1 SWAP3 SWAP2 SWAP1 DUP2 DUP2 MSTORE PUSH1 0x20 ADD DUP3 DUP1 SLOAD PUSH1 0x1 DUP2 PUSH1 0x1 AND ISZERO PUSH2 0x100 MUL SUB AND PUSH1 0x2 SWAP1 DIV DUP1 ISZERO PUSH2 0x279C JUMPI DUP1 PUSH1 0x1F LT PUSH2 0x2771 JUMPI PUSH2 0x100 DUP1 DUP4 SLOAD DIV MUL DUP4 MSTORE SWAP2 PUSH1 0x20 ADD SWAP2 PUSH2 0x279C JUMP JUMPDEST DUP3 ADD SWAP2 SWAP1 PUSH1 0x0 MSTORE PUSH1 0x20 PUSH1 0x0 KECCAK256 SWAP1 JUMPDEST DUP2 SLOAD DUP2 MSTORE SWAP1 PUSH1 0x1 ADD SWAP1 PUSH1 0x20 ADD DUP1 DUP4 GT PUSH2 0x277F JUMPI DUP3 SWAP1 SUB PUSH1 0x1F AND DUP3 ADD SWAP2 JUMPDEST POP POP POP POP POP SWAP6 POP DUP5 DUP1 SLOAD PUSH1 0x1 DUP2 PUSH1 0x1 AND ISZERO PUSH2 0x100 MUL SUB AND PUSH1 0x2 SWAP1 DIV DUP1 PUSH1 0x1F ADD PUSH1 0x20 DUP1 SWAP2 DIV MUL PUSH1 0x20 ADD PUSH1 0x40 MLOAD SWAP1 DUP2 ADD PUSH1 0x40 MSTORE DUP1 SWAP3 SWAP2 SWAP1 DUP2 DUP2 MSTORE PUSH1 0x20 ADD DUP3 DUP1 SLOAD PUSH1 0x1 DUP2 PUSH1 0x1 AND ISZERO PUSH2 0x100 MUL SUB AND PUSH1 0x2 SWAP1 DIV DUP1 ISZERO PUSH2 0x2838 JUMPI DUP1 PUSH1 0x1F LT PUSH2 0x280D JUMPI PUSH2 0x100 DUP1 DUP4 SLOAD DIV MUL DUP4 MSTORE SWAP2 PUSH1 0x20 ADD SWAP2 PUSH2 0x2838 JUMP JUMPDEST DUP3 ADD SWAP2 SWAP1 PUSH1 0x0 MSTORE PUSH1 0x20 PUSH1 0x0 KECCAK256 SWAP1 JUMPDEST DUP2 SLOAD DUP2 MSTORE SWAP1 PUSH1 0x1 ADD SWAP1 PUSH1 0x20 ADD DUP1 DUP4 GT PUSH2 0x281B JUMPI DUP3 SWAP1 SUB PUSH1 0x1F AND DUP3 ADD SWAP2 JUMPDEST POP POP POP POP POP SWAP5 POP DUP4 DUP1 SLOAD PUSH1 0x1 DUP2 PUSH1 0x1 AND ISZERO PUSH2 0x100 MUL SUB AND PUSH1 0x2 SWAP1 DIV DUP1 PUSH1 0x1F ADD PUSH1 0x20 DUP1 SWAP2 DIV MUL PUSH1 0x20 ADD PUSH1 0x40 MLOAD SWAP1 DUP2 ADD PUSH1 0x40 MSTORE DUP1 SWAP3 SWAP2 SWAP1 DUP2 DUP2 MSTORE PUSH1 0x20 ADD DUP3 DUP1 SLOAD PUSH1 0x1 DUP2 PUSH1 0x1 AND ISZERO PUSH2 0x100 MUL SUB AND PUSH1 0x2 SWAP1 DIV DUP1 ISZERO PUSH2 0x28D4 JUMPI DUP1 PUSH1 0x1F LT PUSH2 0x28A9 JUMPI PUSH2 0x100 DUP1 DUP4 SLOAD DIV MUL DUP4 MSTORE SWAP2 PUSH1 0x20 ADD SWAP2 PUSH2 0x28D4 JUMP JUMPDEST DUP3 ADD SWAP2 SWAP1 PUSH1 0x0 MSTORE PUSH1 0x20 PUSH1 0x0 KECCAK256 SWAP1 JUMPDEST DUP2 SLOAD DUP2 MSTORE SWAP1 PUSH1 0x1 ADD SWAP1 PUSH1 0x20 ADD DUP1 DUP4 GT PUSH2 0x28B7 JUMPI DUP3 SWAP1 SUB PUSH1 0x1F AND DUP3 ADD SWAP2 JUMPDEST POP POP POP POP POP SWAP4 POP DUP3 DUP1 SLOAD PUSH1 0x1 DUP2 PUSH1 0x1 AND ISZERO PUSH2 0x100 MUL SUB AND PUSH1 0x2 SWAP1 DIV DUP1 PUSH1 0x1F ADD PUSH1 0x20 DUP1 SWAP2 DIV MUL PUSH1 0x20 ADD PUSH1 0x40 MLOAD SWAP1 DUP2 ADD PUSH1 0x40 MSTORE DUP1 SWAP3 SWAP2 SWAP1 DUP2 DUP2 MSTORE PUSH1 0x20 ADD DUP3 DUP1 SLOAD PUSH1 0x1 DUP2 PUSH1 0x1 AND ISZERO PUSH2 0x100 MUL SUB AND PUSH1 0x2 SWAP1 DIV DUP1 ISZERO PUSH2 0x2970 JUMPI DUP1 PUSH1 0x1F LT PUSH2 0x2945 JUMPI PUSH2 0x100 DUP1 DUP4 SLOAD DIV MUL DUP4 MSTORE SWAP2 PUSH1 0x20 ADD SWAP2 PUSH2 0x2970 JUMP JUMPDEST DUP3 ADD SWAP2 SWAP1 PUSH1 0x0 MSTORE PUSH1 0x20 PUSH1 0x0 KECCAK256 SWAP1 JUMPDEST DUP2 SLOAD DUP2 MSTORE SWAP1 PUSH1 0x1 ADD SWAP1 PUSH1 0x20 ADD DUP1 DUP4 GT PUSH2 0x2953 JUMPI DUP3 SWAP1 SUB PUSH1 0x1F AND DUP3 ADD SWAP2 JUMPDEST POP POP POP POP POP SWAP3 POP DUP2 DUP1 SLOAD PUSH1 0x1 DUP2 PUSH1 0x1 AND ISZERO PUSH2 0x100 MUL SUB AND PUSH1 0x2 SWAP1 DIV DUP1 PUSH1 0x1F ADD PUSH1 0x20 DUP1 SWAP2 DIV MUL PUSH1 0x20 ADD PUSH1 0x40 MLOAD SWAP1 DUP2 ADD PUSH1 0x40 MSTORE DUP1 SWAP3 SWAP2 SWAP1 DUP2 DUP2 MSTORE PUSH1 0x20 ADD DUP3 DUP1 SLOAD PUSH1 0x1 DUP2 PUSH1 0x1 AND ISZERO PUSH2 0x100 MUL SUB AND PUSH1 0x2 SWAP1 DIV DUP1 ISZERO PUSH2 0x2A0C JUMPI DUP1 PUSH1 0x1F LT PUSH2 0x29E1 JUMPI PUSH2 0x100 DUP1 DUP4 SLOAD DIV MUL DUP4 MSTORE SWAP2 PUSH1 0x20 ADD SWAP2 PUSH2 0x2A0C JUMP JUMPDEST DUP3 ADD SWAP2 SWAP1 PUSH1 0x0 MSTORE PUSH1 0x20 PUSH1 0x0 KECCAK256 SWAP1 JUMPDEST DUP2 SLOAD DUP2 MSTORE SWAP1 PUSH1 0x1 ADD SWAP1 PUSH1 0x20 ADD DUP1 DUP4 GT PUSH2 0x29EF JUMPI DUP3 SWAP1 SUB PUSH1 0x1F AND DUP3 ADD SWAP2 JUMPDEST POP POP POP POP POP SWAP2 POP SWAP9 POP SWAP9 POP SWAP9 POP SWAP9 POP SWAP9 POP SWAP9 POP SWAP9 POP SWAP9 POP POP SWAP2 SWAP4 SWAP6 SWAP8 POP SWAP2 SWAP4 SWAP6 SWAP8 JUMP JUMPDEST PUSH1 0x0 PUSH1 0x10 PUSH1 0x0 SWAP1 SLOAD SWAP1 PUSH2 0x100 EXP SWAP1 DIV PUSH20 0xFFFFFFFFFFFFFFFFFFFFFFFFFFFFFFFFFFFFFFFF AND PUSH20 0xFFFFFFFFFFFFFFFFFFFFFFFFFFFFFFFFFFFFFFFF AND CALLER PUSH20 0xFFFFFFFFFFFFFFFFFFFFFFFFFFFFFFFFFFFFFFFF AND EQ ISZERO ISZERO PUSH2 0x2A8D JUMPI PUSH1 0x0 DUP1 REVERT JUMPDEST PUSH1 0x1 PUSH1 0x7 PUSH1 0x0 DUP6 PUSH20 0xFFFFFFFFFFFFFFFFFFFFFFFFFFFFFFFFFFFFFFFF AND PUSH20 0xFFFFFFFFFFFFFFFFFFFFFFFFFFFFFFFFFFFFFFFF AND DUP2 MSTORE PUSH1 0x20 ADD SWAP1 DUP2 MSTORE PUSH1 0x20 ADD PUSH1 0x0 KECCAK256 PUSH1 0x0 DUP5 PUSH20 0xFFFFFFFFFFFFFFFFFFFFFFFFFFFFFFFFFFFFFFFF AND PUSH20 0xFFFFFFFFFFFFFFFFFFFFFFFFFFFFFFFFFFFFFFFF AND DUP2 MSTORE PUSH1 0x20 ADD SWAP1 DUP2 MSTORE PUSH1 0x20 ADD PUSH1 0x0 KECCAK256 PUSH1 0x0 PUSH2 0x100 EXP DUP2 SLOAD DUP2 PUSH1 0xFF MUL NOT AND SWAP1 DUP4 ISZERO ISZERO MUL OR SWAP1 SSTORE POP PUSH1 0xD PUSH1 0x0 DUP2 SLOAD DUP1 SWAP3 SWAP2 SWAP1 PUSH1 0x1 ADD SWAP2 SWAP1 POP SSTORE POP PUSH1 0x1 SWAP1 POP SWAP3 SWAP2 POP POP JUMP JUMPDEST PUSH1 0x0 PUSH1 0xD SLOAD SWAP1 POP SWAP1 JUMP JUMPDEST PUSH1 0x3 DUP2 DUP2 SLOAD DUP2 LT ISZERO ISZERO PUSH2 0x2B57 JUMPI INVALID JUMPDEST SWAP1 PUSH1 0x0 MSTORE PUSH1 0x20 PUSH1 0x0 KECCAK256 ADD PUSH1 0x0 SWAP2 POP SLOAD SWAP1 PUSH2 0x100 EXP SWAP1 DIV PUSH20 0xFFFFFFFFFFFFFFFFFFFFFFFFFFFFFFFFFFFFFFFF AND DUP2 JUMP JUMPDEST DUP3 DUP1 SLOAD PUSH1 0x1 DUP2 PUSH1 0x1 AND ISZERO PUSH2 0x100 MUL SUB AND PUSH1 0x2 SWAP1 DIV SWAP1 PUSH1 0x0 MSTORE PUSH1 0x20 PUSH1 0x0 KECCAK256 SWAP1 PUSH1 0x1F ADD PUSH1 0x20 SWAP1 DIV DUP2 ADD SWAP3 DUP3 PUSH1 0x1F LT PUSH2 0x2BC7 JUMPI DUP1 MLOAD PUSH1 0xFF NOT AND DUP4 DUP1 ADD OR DUP6 SSTORE PUSH2 0x2BF5 JUMP JUMPDEST DUP3 DUP1 ADD PUSH1 0x1 ADD DUP6 SSTORE DUP3 ISZERO PUSH2 0x2BF5 JUMPI SWAP2 DUP3 ADD JUMPDEST DUP3 DUP2 GT ISZERO PUSH2 0x2BF4 JUMPI DUP3 MLOAD DUP3 SSTORE SWAP2 PUSH1 0x20 ADD SWAP2 SWAP1 PUSH1 0x1 ADD SWAP1 PUSH2 0x2BD9 JUMP JUMPDEST JUMPDEST POP SWAP1 POP PUSH2 0x2C02 SWAP2 SWAP1 PUSH2 0x2C06 JUMP JUMPDEST POP SWAP1 JUMP JUMPDEST PUSH2 0x2C28 SWAP2 SWAP1 JUMPDEST DUP1 DUP3 GT ISZERO PUSH2 0x2C24 JUMPI PUSH1 0x0 DUP2 PUSH1 0x0 SWAP1 SSTORE POP PUSH1 0x1 ADD PUSH2 0x2C0C JUMP JUMPDEST POP SWAP1 JUMP JUMPDEST SWAP1 JUMP JUMPDEST PUSH1 0x0 PUSH2 0x2C37 DUP3 CALLDATALOAD PUSH2 0x342A JUMP JUMPDEST SWAP1 POP SWAP3 SWAP2 POP POP JUMP JUMPDEST PUSH1 0x0 DUP3 PUSH1 0x1F DUP4 ADD SLT ISZERO ISZERO PUSH2 0x2C52 JUMPI PUSH1 0x0 DUP1 REVERT JUMPDEST DUP2 CALLDATALOAD PUSH2 0x2C65 PUSH2 0x2C60 DUP3 PUSH2 0x3398 JUMP JUMPDEST PUSH2 0x336B JUMP JUMPDEST SWAP2 POP DUP1 DUP3 MSTORE PUSH1 0x20 DUP4 ADD PUSH1 0x20 DUP4 ADD DUP6 DUP4 DUP4 ADD GT ISZERO PUSH2 0x2C81 JUMPI PUSH1 0x0 DUP1 REVERT JUMPDEST PUSH2 0x2C8C DUP4 DUP3 DUP5 PUSH2 0x3454 JUMP JUMPDEST POP POP POP SWAP3 SWAP2 POP POP JUMP JUMPDEST PUSH1 0x0 PUSH2 0x2CA1 DUP3 CALLDATALOAD PUSH2 0x344A JUMP JUMPDEST SWAP1 POP SWAP3 SWAP2 POP POP JUMP JUMPDEST PUSH1 0x0 PUSH1 0x20 DUP3 DUP5 SUB SLT ISZERO PUSH2 0x2CBB JUMPI PUSH1 0x0 DUP1 REVERT JUMPDEST PUSH1 0x0 PUSH2 0x2CC9 DUP5 DUP3 DUP6 ADD PUSH2 0x2C2B JUMP JUMPDEST SWAP2 POP POP SWAP3 SWAP2 POP POP JUMP JUMPDEST PUSH1 0x0 DUP1 PUSH1 0x40 DUP4 DUP6 SUB SLT ISZERO PUSH2 0x2CE5 JUMPI PUSH1 0x0 DUP1 REVERT JUMPDEST PUSH1 0x0 PUSH2 0x2CF3 DUP6 DUP3 DUP7 ADD PUSH2 0x2C2B JUMP JUMPDEST SWAP3 POP POP PUSH1 0x20 PUSH2 0x2D04 DUP6 DUP3 DUP7 ADD PUSH2 0x2C2B JUMP JUMPDEST SWAP2 POP POP SWAP3 POP SWAP3 SWAP1 POP JUMP JUMPDEST PUSH1 0x0 DUP1 PUSH1 0x0 DUP1 PUSH1 0x0 DUP1 PUSH1 0xC0 DUP8 DUP10 SUB SLT ISZERO PUSH2 0x2D27 JUMPI PUSH1 0x0 DUP1 REVERT JUMPDEST PUSH1 0x0 PUSH2 0x2D35 DUP10 DUP3 DUP11 ADD PUSH2 0x2C2B JUMP JUMPDEST SWAP7 POP POP PUSH1 0x20 PUSH2 0x2D46 DUP10 DUP3 DUP11 ADD PUSH2 0x2C2B JUMP JUMPDEST SWAP6 POP POP PUSH1 0x40 DUP8 ADD CALLDATALOAD PUSH8 0xFFFFFFFFFFFFFFFF DUP2 GT ISZERO PUSH2 0x2D63 JUMPI PUSH1 0x0 DUP1 REVERT JUMPDEST PUSH2 0x2D6F DUP10 DUP3 DUP11 ADD PUSH2 0x2C3F JUMP JUMPDEST SWAP5 POP POP PUSH1 0x60 DUP8 ADD CALLDATALOAD PUSH8 0xFFFFFFFFFFFFFFFF DUP2 GT ISZERO PUSH2 0x2D8C JUMPI PUSH1 0x0 DUP1 REVERT JUMPDEST PUSH2 0x2D98 DUP10 DUP3 DUP11 ADD PUSH2 0x2C3F JUMP JUMPDEST SWAP4 POP POP PUSH1 0x80 DUP8 ADD CALLDATALOAD PUSH8 0xFFFFFFFFFFFFFFFF DUP2 GT ISZERO PUSH2 0x2DB5 JUMPI PUSH1 0x0 DUP1 REVERT JUMPDEST PUSH2 0x2DC1 DUP10 DUP3 DUP11 ADD PUSH2 0x2C3F JUMP JUMPDEST SWAP3 POP POP PUSH1 0xA0 PUSH2 0x2DD2 DUP10 DUP3 DUP11 ADD PUSH2 0x2C95 JUMP JUMPDEST SWAP2 POP POP SWAP3 SWAP6 POP SWAP3 SWAP6 POP SWAP3 SWAP6 JUMP JUMPDEST PUSH1 0x0 DUP1 PUSH1 0x0 DUP1 PUSH1 0x0 DUP1 PUSH1 0x0 DUP1 PUSH2 0x100 DUP10 DUP12 SUB SLT ISZERO PUSH2 0x2DFC JUMPI PUSH1 0x0 DUP1 REVERT JUMPDEST PUSH1 0x0 PUSH2 0x2E0A DUP12 DUP3 DUP13 ADD PUSH2 0x2C2B JUMP JUMPDEST SWAP9 POP POP PUSH1 0x20 DUP10 ADD CALLDATALOAD PUSH8 0xFFFFFFFFFFFFFFFF DUP2 GT ISZERO PUSH2 0x2E27 JUMPI PUSH1 0x0 DUP1 REVERT JUMPDEST PUSH2 0x2E33 DUP12 DUP3 DUP13 ADD PUSH2 0x2C3F JUMP JUMPDEST SWAP8 POP POP PUSH1 0x40 DUP10 ADD CALLDATALOAD PUSH8 0xFFFFFFFFFFFFFFFF DUP2 GT ISZERO PUSH2 0x2E50 JUMPI PUSH1 0x0 DUP1 REVERT JUMPDEST PUSH2 0x2E5C DUP12 DUP3 DUP13 ADD PUSH2 0x2C3F JUMP JUMPDEST SWAP7 POP POP PUSH1 0x60 DUP10 ADD CALLDATALOAD PUSH8 0xFFFFFFFFFFFFFFFF DUP2 GT ISZERO PUSH2 0x2E79 JUMPI PUSH1 0x0 DUP1 REVERT JUMPDEST PUSH2 0x2E85 DUP12 DUP3 DUP13 ADD PUSH2 0x2C3F JUMP JUMPDEST SWAP6 POP POP PUSH1 0x80 DUP10 ADD CALLDATALOAD PUSH8 0xFFFFFFFFFFFFFFFF DUP2 GT ISZERO PUSH2 0x2EA2 JUMPI PUSH1 0x0 DUP1 REVERT JUMPDEST PUSH2 0x2EAE DUP12 DUP3 DUP13 ADD PUSH2 0x2C3F JUMP JUMPDEST SWAP5 POP POP PUSH1 0xA0 DUP10 ADD CALLDATALOAD PUSH8 0xFFFFFFFFFFFFFFFF DUP2 GT ISZERO PUSH2 0x2ECB JUMPI PUSH1 0x0 DUP1 REVERT JUMPDEST PUSH2 0x2ED7 DUP12 DUP3 DUP13 ADD PUSH2 0x2C3F JUMP JUMPDEST SWAP4 POP POP PUSH1 0xC0 DUP10 ADD CALLDATALOAD PUSH8 0xFFFFFFFFFFFFFFFF DUP2 GT ISZERO PUSH2 0x2EF4 JUMPI PUSH1 0x0 DUP1 REVERT JUMPDEST PUSH2 0x2F00 DUP12 DUP3 DUP13 ADD PUSH2 0x2C3F JUMP JUMPDEST SWAP3 POP POP PUSH1 0xE0 DUP10 ADD CALLDATALOAD PUSH8 0xFFFFFFFFFFFFFFFF DUP2 GT ISZERO PUSH2 0x2F1D JUMPI PUSH1 0x0 DUP1 REVERT JUMPDEST PUSH2 0x2F29 DUP12 DUP3 DUP13 ADD PUSH2 0x2C3F JUMP JUMPDEST SWAP2 POP POP SWAP3 SWAP6 SWAP9 POP SWAP3 SWAP6 SWAP9 SWAP1 SWAP4 SWAP7 POP JUMP JUMPDEST PUSH1 0x0 DUP1 PUSH1 0x0 DUP1 PUSH1 0x0 DUP1 PUSH1 0x0 DUP1 PUSH1 0x0 DUP1 PUSH2 0x140 DUP12 DUP14 SUB SLT ISZERO PUSH2 0x2F59 JUMPI PUSH1 0x0 DUP1 REVERT JUMPDEST PUSH1 0x0 PUSH2 0x2F67 DUP14 DUP3 DUP15 ADD PUSH2 0x2C2B JUMP JUMPDEST SWAP11 POP POP PUSH1 0x20 DUP12 ADD CALLDATALOAD PUSH8 0xFFFFFFFFFFFFFFFF DUP2 GT ISZERO PUSH2 0x2F84 JUMPI PUSH1 0x0 DUP1 REVERT JUMPDEST PUSH2 0x2F90 DUP14 DUP3 DUP15 ADD PUSH2 0x2C3F JUMP JUMPDEST SWAP10 POP POP PUSH1 0x40 DUP12 ADD CALLDATALOAD PUSH8 0xFFFFFFFFFFFFFFFF DUP2 GT ISZERO PUSH2 0x2FAD JUMPI PUSH1 0x0 DUP1 REVERT JUMPDEST PUSH2 0x2FB9 DUP14 DUP3 DUP15 ADD PUSH2 0x2C3F JUMP JUMPDEST SWAP9 POP POP PUSH1 0x60 DUP12 ADD CALLDATALOAD PUSH8 0xFFFFFFFFFFFFFFFF DUP2 GT ISZERO PUSH2 0x2FD6 JUMPI PUSH1 0x0 DUP1 REVERT JUMPDEST PUSH2 0x2FE2 DUP14 DUP3 DUP15 ADD PUSH2 0x2C3F JUMP JUMPDEST SWAP8 POP POP PUSH1 0x80 DUP12 ADD CALLDATALOAD PUSH8 0xFFFFFFFFFFFFFFFF DUP2 GT ISZERO PUSH2 0x2FFF JUMPI PUSH1 0x0 DUP1 REVERT JUMPDEST PUSH2 0x300B DUP14 DUP3 DUP15 ADD PUSH2 0x2C3F JUMP JUMPDEST SWAP7 POP POP PUSH1 0xA0 DUP12 ADD CALLDATALOAD PUSH8 0xFFFFFFFFFFFFFFFF DUP2 GT ISZERO PUSH2 0x3028 JUMPI PUSH1 0x0 DUP1 REVERT JUMPDEST PUSH2 0x3034 DUP14 DUP3 DUP15 ADD PUSH2 0x2C3F JUMP JUMPDEST SWAP6 POP POP PUSH1 0xC0 DUP12 ADD CALLDATALOAD PUSH8 0xFFFFFFFFFFFFFFFF DUP2 GT ISZERO PUSH2 0x3051 JUMPI PUSH1 0x0 DUP1 REVERT JUMPDEST PUSH2 0x305D DUP14 DUP3 DUP15 ADD PUSH2 0x2C3F JUMP JUMPDEST SWAP5 POP POP PUSH1 0xE0 DUP12 ADD CALLDATALOAD PUSH8 0xFFFFFFFFFFFFFFFF DUP2 GT ISZERO PUSH2 0x307A JUMPI PUSH1 0x0 DUP1 REVERT JUMPDEST PUSH2 0x3086 DUP14 DUP3 DUP15 ADD PUSH2 0x2C3F JUMP JUMPDEST SWAP4 POP POP PUSH2 0x100 DUP12 ADD CALLDATALOAD PUSH8 0xFFFFFFFFFFFFFFFF DUP2 GT ISZERO PUSH2 0x30A4 JUMPI PUSH1 0x0 DUP1 REVERT JUMPDEST PUSH2 0x30B0 DUP14 DUP3 DUP15 ADD PUSH2 0x2C3F JUMP JUMPDEST SWAP3 POP POP PUSH2 0x120 DUP12 ADD CALLDATALOAD PUSH8 0xFFFFFFFFFFFFFFFF DUP2 GT ISZERO PUSH2 0x30CE JUMPI PUSH1 0x0 DUP1 REVERT JUMPDEST PUSH2 0x30DA DUP14 DUP3 DUP15 ADD PUSH2 0x2C3F JUMP JUMPDEST SWAP2 POP POP SWAP3 SWAP6 SWAP9 SWAP12 SWAP2 SWAP5 SWAP8 SWAP11 POP SWAP3 SWAP6 SWAP9 POP JUMP JUMPDEST PUSH1 0x0 PUSH1 0x20 DUP3 DUP5 SUB SLT ISZERO PUSH2 0x30FE JUMPI PUSH1 0x0 DUP1 REVERT JUMPDEST PUSH1 0x0 PUSH2 0x310C DUP5 DUP3 DUP6 ADD PUSH2 0x2C95 JUMP JUMPDEST SWAP2 POP POP SWAP3 SWAP2 POP POP JUMP JUMPDEST PUSH2 0x311E DUP2 PUSH2 0x33F4 JUMP JUMPDEST DUP3 MSTORE POP POP JUMP JUMPDEST PUSH1 0x0 PUSH2 0x312F DUP3 PUSH2 0x33D1 JUMP JUMPDEST DUP1 DUP5 MSTORE PUSH1 0x20 DUP5 ADD SWAP4 POP PUSH2 0x3141 DUP4 PUSH2 0x33C4 JUMP JUMPDEST PUSH1 0x0 JUMPDEST DUP3 DUP2 LT ISZERO PUSH2 0x3173 JUMPI PUSH2 0x3157 DUP7 DUP4 MLOAD PUSH2 0x3115 JUMP JUMPDEST PUSH2 0x3160 DUP3 PUSH2 0x33E7 JUMP JUMPDEST SWAP2 POP PUSH1 0x20 DUP7 ADD SWAP6 POP PUSH1 0x1 DUP2 ADD SWAP1 POP PUSH2 0x3144 JUMP JUMPDEST POP DUP5 SWAP3 POP POP POP SWAP3 SWAP2 POP POP JUMP JUMPDEST PUSH2 0x3188 DUP2 PUSH2 0x3414 JUMP JUMPDEST DUP3 MSTORE POP POP JUMP JUMPDEST PUSH1 0x0 PUSH2 0x3199 DUP3 PUSH2 0x33DC JUMP JUMPDEST DUP1 DUP5 MSTORE PUSH2 0x31AD DUP2 PUSH1 0x20 DUP7 ADD PUSH1 0x20 DUP7 ADD PUSH2 0x3463 JUMP JUMPDEST PUSH2 0x31B6 DUP2 PUSH2 0x3496 JUMP JUMPDEST PUSH1 0x20 DUP6 ADD ADD SWAP2 POP POP SWAP3 SWAP2 POP POP JUMP JUMPDEST PUSH2 0x31CD DUP2 PUSH2 0x3420 JUMP JUMPDEST DUP3 MSTORE POP POP JUMP JUMPDEST PUSH1 0x0 PUSH1 0x20 DUP3 ADD SWAP1 POP PUSH2 0x31E8 PUSH1 0x0 DUP4 ADD DUP5 PUSH2 0x3115 JUMP JUMPDEST SWAP3 SWAP2 POP POP JUMP JUMPDEST PUSH1 0x0 PUSH1 0x20 DUP3 ADD SWAP1 POP DUP2 DUP2 SUB PUSH1 0x0 DUP4 ADD MSTORE PUSH2 0x3208 DUP2 DUP5 PUSH2 0x3124 JUMP JUMPDEST SWAP1 POP SWAP3 SWAP2 POP POP JUMP JUMPDEST PUSH1 0x0 PUSH1 0x20 DUP3 ADD SWAP1 POP PUSH2 0x3225 PUSH1 0x0 DUP4 ADD DUP5 PUSH2 0x317F JUMP JUMPDEST SWAP3 SWAP2 POP POP JUMP JUMPDEST PUSH1 0x0 PUSH2 0x100 DUP3 ADD SWAP1 POP DUP2 DUP2 SUB PUSH1 0x0 DUP4 ADD MSTORE PUSH2 0x3246 DUP2 DUP12 PUSH2 0x318E JUMP JUMPDEST SWAP1 POP DUP2 DUP2 SUB PUSH1 0x20 DUP4 ADD MSTORE PUSH2 0x325A DUP2 DUP11 PUSH2 0x318E JUMP JUMPDEST SWAP1 POP DUP2 DUP2 SUB PUSH1 0x40 DUP4 ADD MSTORE PUSH2 0x326E DUP2 DUP10 PUSH2 0x318E JUMP JUMPDEST SWAP1 POP DUP2 DUP2 SUB PUSH1 0x60 DUP4 ADD MSTORE PUSH2 0x3282 DUP2 DUP9 PUSH2 0x318E JUMP JUMPDEST SWAP1 POP DUP2 DUP2 SUB PUSH1 0x80 DUP4 ADD MSTORE PUSH2 0x3296 DUP2 DUP8 PUSH2 0x318E JUMP JUMPDEST SWAP1 POP DUP2 DUP2 SUB PUSH1 0xA0 DUP4 ADD MSTORE PUSH2 0x32AA DUP2 DUP7 PUSH2 0x318E JUMP JUMPDEST SWAP1 POP DUP2 DUP2 SUB PUSH1 0xC0 DUP4 ADD MSTORE PUSH2 0x32BE DUP2 DUP6 PUSH2 0x318E JUMP JUMPDEST SWAP1 POP PUSH2 0x32CD PUSH1 0xE0 DUP4 ADD DUP5 PUSH2 0x3115 JUMP JUMPDEST SWAP10 SWAP9 POP POP POP POP POP POP POP POP POP JUMP JUMPDEST PUSH1 0x0 PUSH1 0xC0 DUP3 ADD SWAP1 POP DUP2 DUP2 SUB PUSH1 0x0 DUP4 ADD MSTORE PUSH2 0x32F4 DUP2 DUP10 PUSH2 0x318E JUMP JUMPDEST SWAP1 POP DUP2 DUP2 SUB PUSH1 0x20 DUP4 ADD MSTORE PUSH2 0x3308 DUP2 DUP9 PUSH2 0x318E JUMP JUMPDEST SWAP1 POP DUP2 DUP2 SUB PUSH1 0x40 DUP4 ADD MSTORE PUSH2 0x331C DUP2 DUP8 PUSH2 0x318E JUMP JUMPDEST SWAP1 POP PUSH2 0x332B PUSH1 0x60 DUP4 ADD DUP7 PUSH2 0x31C4 JUMP JUMPDEST PUSH2 0x3338 PUSH1 0x80 DUP4 ADD DUP6 PUSH2 0x3115 JUMP JUMPDEST PUSH2 0x3345 PUSH1 0xA0 DUP4 ADD DUP5 PUSH2 0x3115 JUMP JUMPDEST SWAP8 SWAP7 POP POP POP POP POP POP POP JUMP JUMPDEST PUSH1 0x0 PUSH1 0x20 DUP3 ADD SWAP1 POP PUSH2 0x3365 PUSH1 0x0 DUP4 ADD DUP5 PUSH2 0x31C4 JUMP JUMPDEST SWAP3 SWAP2 POP POP JUMP JUMPDEST PUSH1 0x0 PUSH1 0x40 MLOAD SWAP1 POP DUP2 DUP2 ADD DUP2 DUP2 LT PUSH8 0xFFFFFFFFFFFFFFFF DUP3 GT OR ISZERO PUSH2 0x338E JUMPI PUSH1 0x0 DUP1 REVERT JUMPDEST DUP1 PUSH1 0x40 MSTORE POP SWAP2 SWAP1 POP JUMP JUMPDEST PUSH1 0x0 PUSH8 0xFFFFFFFFFFFFFFFF DUP3 GT ISZERO PUSH2 0x33AF JUMPI PUSH1 0x0 DUP1 REVERT JUMPDEST PUSH1 0x1F NOT PUSH1 0x1F DUP4 ADD AND SWAP1 POP PUSH1 0x20 DUP2 ADD SWAP1 POP SWAP2 SWAP1 POP JUMP JUMPDEST PUSH1 0x0 PUSH1 0x20 DUP3 ADD SWAP1 POP SWAP2 SWAP1 POP JUMP JUMPDEST PUSH1 0x0 DUP2 MLOAD SWAP1 POP SWAP2 SWAP1 POP JUMP JUMPDEST PUSH1 0x0 DUP2 MLOAD SWAP1 POP SWAP2 SWAP1 POP JUMP JUMPDEST PUSH1 0x0 PUSH1 0x20 DUP3 ADD SWAP1 POP SWAP2 SWAP1 POP JUMP JUMPDEST PUSH1 0x0 PUSH20 0xFFFFFFFFFFFFFFFFFFFFFFFFFFFFFFFFFFFFFFFF DUP3 AND SWAP1 POP SWAP2 SWAP1 POP JUMP JUMPDEST PUSH1 0x0 DUP2 ISZERO ISZERO SWAP1 POP SWAP2 SWAP1 POP JUMP JUMPDEST PUSH1 0x0 DUP2 SWAP1 POP SWAP2 SWAP1 POP JUMP JUMPDEST PUSH1 0x0 PUSH20 0xFFFFFFFFFFFFFFFFFFFFFFFFFFFFFFFFFFFFFFFF DUP3 AND SWAP1 POP SWAP2 SWAP1 POP JUMP JUMPDEST PUSH1 0x0 DUP2 SWAP1 POP SWAP2 SWAP1 POP JUMP JUMPDEST DUP3 DUP2 DUP4 CALLDATACOPY PUSH1 0x0 DUP4 DUP4 ADD MSTORE POP POP POP JUMP JUMPDEST PUSH1 0x0 JUMPDEST DUP4 DUP2 LT ISZERO PUSH2 0x3481 JUMPI DUP1 DUP3 ADD MLOAD DUP2 DUP5 ADD MSTORE PUSH1 0x20 DUP2 ADD SWAP1 POP PUSH2 0x3466 JUMP JUMPDEST DUP4 DUP2 GT ISZERO PUSH2 0x3490 JUMPI PUSH1 0x0 DUP5 DUP5 ADD MSTORE JUMPDEST POP POP POP POP JUMP JUMPDEST PUSH1 0x0 PUSH1 0x1F NOT PUSH1 0x1F DUP4 ADD AND SWAP1 POP SWAP2 SWAP1 POP JUMP STOP LOG2 PUSH6 0x627A7A723058 KECCAK256 0x5f 0xb0 SMOD SWAP10 0xbe SWAP6 COINBASE 0x49 0xbf 0xe5 0xe8 RETURNDATASIZE PUSH12 0x5D6C4FFB4E2470F4CBFCA0B2 PUSH22 0x4A2AEE0B8D646C6578706572696D656E74616CF50037 "
				},
				"gasEstimates": {
					"creation": {
						"codeDepositCost": "2707400",
						"executionCost": "48243",
						"totalCost": "2755643"
					},
					"external": {
						"MoHPermissionCounter()": "936",
						"MoHRevokePermission(address,address)": "infinite",
						"checkDoctor(address)": "1481",
						"createVaccineRecord(address,address,string,string,string,uint256)": "infinite",
						"doctorCount()": "782",
						"doctorList(uint256)": "1144",
						"doctorRegistration(address,string,string,string,string,string,string,string)": "infinite",
						"editDoctor(address,string,string,string,string,string,string,string)": "infinite",
						"editUser(address,string,string,string,string,string,string,string,string,string)": "infinite",
						"getDoctorCount()": "812",
						"getDoctors()": "infinite",
						"getMoHPermissionCounter()": "1142",
						"getUserCount()": "1010",
						"getUserPermissionCounter()": "548",
						"getUsers()": "infinite",
						"getVaccinationInfo(address)": "infinite",
						"givePermissionByMoH(address,address)": "infinite",
						"givePermissionByUser(address)": "41388",
						"mohAdress()": "1066",
						"owner()": "912",
						"ownerAddress()": "21208",
						"searchDoctor(address)": "infinite",
						"searchUserformation(address)": "infinite",
						"userCount()": "584",
						"userList(uint256)": "1496",
						"userPermissionCounter()": "1068",
						"userRegistration(address,string,string,string,string,string,string,string,string,string)": "infinite",
						"userRevokePermission(address)": "21195",
						"vaccinationList(uint256)": "1694",
						"vaccinationRecordsCounter()": "914"
					}
				},
				"methodIdentifiers": {
					"MoHPermissionCounter()": "99d698c5",
					"MoHRevokePermission(address,address)": "c3bf7bf0",
					"checkDoctor(address)": "793de5f0",
					"createVaccineRecord(address,address,string,string,string,uint256)": "341f8105",
					"doctorCount()": "78522bc4",
					"doctorList(uint256)": "127ca4b4",
					"doctorRegistration(address,string,string,string,string,string,string,string)": "17e51111",
					"editDoctor(address,string,string,string,string,string,string,string)": "16e0a611",
					"editUser(address,string,string,string,string,string,string,string,string,string)": "779a9576",
					"getDoctorCount()": "79111c1c",
					"getDoctors()": "b13d5d94",
					"getMoHPermissionCounter()": "e0df0ac6",
					"getUserCount()": "b5cb15f7",
					"getUserPermissionCounter()": "024decc5",
					"getUsers()": "00ce8e3e",
					"getVaccinationInfo(address)": "83a28b29",
					"givePermissionByMoH(address,address)": "d118404b",
					"givePermissionByUser(address)": "294a4540",
					"mohAdress()": "b744ff4d",
					"owner()": "8da5cb5b",
					"ownerAddress()": "8f84aa09",
					"searchDoctor(address)": "caee6c85",
					"searchUserformation(address)": "076fd2f8",
					"userCount()": "07973ccf",
					"userList(uint256)": "9f4216e8",
					"userPermissionCounter()": "c543a718",
					"userRegistration(address,string,string,string,string,string,string,string,string,string)": "6cdb2278",
					"userRevokePermission(address)": "5fc8e8c6",
					"vaccinationList(uint256)": "ff508dab",
					"vaccinationRecordsCounter()": "96e39ce0"
				}
			},
			"userdoc": {
				"methods": {}
			}
		}
	}
}