{
	"contracts/ddddd.sol": {
		"ddddd": {
			"abi": [
				{
					"constant": true,
					"inputs": [],
					"name": "getUsers",
					"outputs": [
						{
							"name": "",
							"type": "address[]"
						}
					],
					"payable": false,
					"stateMutability": "view",
					"type": "function"
				},
				{
					"constant": true,
					"inputs": [],
					"name": "getUserPermissionCounter",
					"outputs": [
						{
							"name": "",
							"type": "uint256"
						}
					],
					"payable": false,
					"stateMutability": "view",
					"type": "function"
				},
				{
					"constant": true,
					"inputs": [
						{
							"name": "_address",
							"type": "address"
						}
					],
					"name": "searchUserformation",
					"outputs": [
						{
							"name": "",
							"type": "string"
						},
						{
							"name": "",
							"type": "string"
						},
						{
							"name": "",
							"type": "string"
						},
						{
							"name": "",
							"type": "string"
						},
						{
							"name": "",
							"type": "string"
						},
						{
							"name": "",
							"type": "string"
						},
						{
							"name": "",
							"type": "string"
						},
						{
							"name": "",
							"type": "address"
						}
					],
					"payable": false,
					"stateMutability": "view",
					"type": "function"
				},
				{
					"constant": true,
					"inputs": [],
					"name": "userCount",
					"outputs": [
						{
							"name": "",
							"type": "uint256"
						}
					],
					"payable": false,
					"stateMutability": "view",
					"type": "function"
				},
				{
					"constant": true,
					"inputs": [
						{
							"name": "",
							"type": "uint256"
						}
					],
					"name": "doctorList",
					"outputs": [
						{
							"name": "",
							"type": "address"
						}
					],
					"payable": false,
					"stateMutability": "view",
					"type": "function"
				},
				{
					"constant": false,
					"inputs": [
						{
							"name": "_doctor",
							"type": "address"
						},
						{
							"name": "_uaeId",
							"type": "string"
						},
						{
							"name": "_name",
							"type": "string"
						},
						{
							"name": "_phone",
							"type": "string"
						},
						{
							"name": "_gender",
							"type": "string"
						},
						{
							"name": "_email",
							"type": "string"
						},
						{
							"name": "_qualification",
							"type": "string"
						},
						{
							"name": "_major",
							"type": "string"
						}
					],
					"name": "editDoctor",
					"outputs": [],
					"payable": false,
					"stateMutability": "nonpayable",
					"type": "function"
				},
				{
					"constant": false,
					"inputs": [
						{
							"name": "_doctor",
							"type": "address"
						},
						{
							"name": "_uaeId",
							"type": "string"
						},
						{
							"name": "_name",
							"type": "string"
						},
						{
							"name": "_phone",
							"type": "string"
						},
						{
							"name": "_gender",
							"type": "string"
						},
						{
							"name": "_email",
							"type": "string"
						},
						{
							"name": "_qualification",
							"type": "string"
						},
						{
							"name": "_major",
							"type": "string"
						}
					],
					"name": "doctorRegistration",
					"outputs": [],
					"payable": false,
					"stateMutability": "nonpayable",
					"type": "function"
				},
				{
					"constant": false,
					"inputs": [
						{
							"name": "_address",
							"type": "address"
						}
					],
					"name": "givePermissionByUser",
					"outputs": [
						{
							"name": "success",
							"type": "bool"
						}
					],
					"payable": false,
					"stateMutability": "nonpayable",
					"type": "function"
				},
				{
					"constant": false,
					"inputs": [
						{
							"name": "_address1",
							"type": "address"
						},
						{
							"name": "_doctor",
							"type": "address"
						},
						{
							"name": "_name",
							"type": "string"
						},
						{
							"name": "_vaccine",
							"type": "string"
						},
						{
							"name": "_description",
							"type": "string"
						},
						{
							"name": "_typeOfVaccine",
							"type": "string"
						},
						{
							"name": "_creationDate",
							"type": "uint256"
						}
					],
					"name": "createVaccineRecord",
					"outputs": [
						{
							"name": "success",
							"type": "bool"
						}
					],
					"payable": false,
					"stateMutability": "nonpayable",
					"type": "function"
				},
				{
					"constant": false,
					"inputs": [
						{
							"name": "_address",
							"type": "address"
						}
					],
					"name": "userRevokePermission",
					"outputs": [
						{
							"name": "success",
							"type": "bool"
						}
					],
					"payable": false,
					"stateMutability": "nonpayable",
					"type": "function"
				},
				{
					"constant": false,
					"inputs": [
						{
							"name": "_user",
							"type": "address"
						},
						{
							"name": "_uaeId",
							"type": "string"
						},
						{
							"name": "_name",
							"type": "string"
						},
						{
							"name": "_phone",
							"type": "string"
						},
						{
							"name": "_gender",
							"type": "string"
						},
						{
							"name": "_dob",
							"type": "string"
						},
						{
							"name": "_addr",
							"type": "string"
						},
						{
							"name": "_email",
							"type": "string"
						},
						{
							"name": "_nomineeName",
							"type": "string"
						},
						{
							"name": "_nomineeContact",
							"type": "string"
						}
					],
					"name": "userRegistration",
					"outputs": [],
					"payable": false,
					"stateMutability": "nonpayable",
					"type": "function"
				},
				{
					"constant": false,
					"inputs": [
						{
							"name": "_user",
							"type": "address"
						},
						{
							"name": "_uaeId",
							"type": "string"
						},
						{
							"name": "_name",
							"type": "string"
						},
						{
							"name": "_phone",
							"type": "string"
						},
						{
							"name": "_gender",
							"type": "string"
						},
						{
							"name": "_dob",
							"type": "string"
						},
						{
							"name": "_addr",
							"type": "string"
						},
						{
							"name": "_email",
							"type": "string"
						},
						{
							"name": "_nomineeName",
							"type": "string"
						},
						{
							"name": "_nomineeContact",
							"type": "string"
						}
					],
					"name": "editUser",
					"outputs": [],
					"payable": false,
					"stateMutability": "nonpayable",
					"type": "function"
				},
				{
					"constant": true,
					"inputs": [],
					"name": "doctorCount",
					"outputs": [
						{
							"name": "",
							"type": "uint256"
						}
					],
					"payable": false,
					"stateMutability": "view",
					"type": "function"
				},
				{
					"constant": true,
					"inputs": [],
					"name": "getDoctorCount",
					"outputs": [
						{
							"name": "",
							"type": "uint256"
						}
					],
					"payable": false,
					"stateMutability": "view",
					"type": "function"
				},
				{
					"constant": true,
					"inputs": [
						{
							"name": "_address",
							"type": "address"
						}
					],
					"name": "checkDoctor",
					"outputs": [
						{
							"name": "success",
							"type": "bool"
						}
					],
					"payable": false,
					"stateMutability": "view",
					"type": "function"
				},
				{
					"constant": true,
					"inputs": [
						{
							"name": "_address",
							"type": "address"
						}
					],
					"name": "getVaccinationInfo",
					"outputs": [
						{
							"name": "",
							"type": "string"
						},
						{
							"name": "",
							"type": "string"
						},
						{
							"name": "",
							"type": "string"
						},
						{
							"name": "",
							"type": "uint256"
						},
						{
							"name": "",
							"type": "address"
						},
						{
							"name": "",
							"type": "address"
						}
					],
					"payable": false,
					"stateMutability": "view",
					"type": "function"
				},
				{
					"constant": true,
					"inputs": [],
					"name": "owner",
					"outputs": [
						{
							"name": "",
							"type": "address"
						}
					],
					"payable": false,
					"stateMutability": "view",
					"type": "function"
				},
				{
					"constant": false,
					"inputs": [],
					"name": "ownerAddress",
					"outputs": [
						{
							"name": "",
							"type": "address"
						}
					],
					"payable": false,
					"stateMutability": "nonpayable",
					"type": "function"
				},
				{
					"constant": true,
					"inputs": [],
					"name": "vaccinationRecordsCounter",
					"outputs": [
						{
							"name": "",
							"type": "uint256"
						}
					],
					"payable": false,
					"stateMutability": "view",
					"type": "function"
				},
				{
					"constant": true,
					"inputs": [],
					"name": "MoHPermissionCounter",
					"outputs": [
						{
							"name": "",
							"type": "uint256"
						}
					],
					"payable": false,
					"stateMutability": "view",
					"type": "function"
				},
				{
					"constant": true,
					"inputs": [
						{
							"name": "",
							"type": "uint256"
						}
					],
					"name": "userList",
					"outputs": [
						{
							"name": "",
							"type": "address"
						}
					],
					"payable": false,
					"stateMutability": "view",
					"type": "function"
				},
				{
					"constant": true,
					"inputs": [],
					"name": "getDoctors",
					"outputs": [
						{
							"name": "",
							"type": "address[]"
						}
					],
					"payable": false,
					"stateMutability": "view",
					"type": "function"
				},
				{
					"constant": true,
					"inputs": [],
					"name": "getUserCount",
					"outputs": [
						{
							"name": "",
							"type": "uint256"
						}
					],
					"payable": false,
					"stateMutability": "view",
					"type": "function"
				},
				{
					"constant": true,
					"inputs": [],
					"name": "mohAdress",
					"outputs": [
						{
							"name": "",
							"type": "address"
						}
					],
					"payable": false,
					"stateMutability": "view",
					"type": "function"
				},
				{
					"constant": false,
					"inputs": [
						{
							"name": "_address1",
							"type": "address"
						},
						{
							"name": "_address2",
							"type": "address"
						}
					],
					"name": "MoHRevokePermission",
					"outputs": [
						{
							"name": "success",
							"type": "bool"
						}
					],
					"payable": false,
					"stateMutability": "nonpayable",
					"type": "function"
				},
				{
					"constant": true,
					"inputs": [],
					"name": "userPermissionCounter",
					"outputs": [
						{
							"name": "",
							"type": "uint256"
						}
					],
					"payable": false,
					"stateMutability": "view",
					"type": "function"
				},
				{
					"constant": true,
					"inputs": [
						{
							"name": "_address",
							"type": "address"
						}
					],
					"name": "searchDoctor",
					"outputs": [
						{
							"name": "",
							"type": "string"
						},
						{
							"name": "",
							"type": "string"
						},
						{
							"name": "",
							"type": "string"
						},
						{
							"name": "",
							"type": "string"
						},
						{
							"name": "",
							"type": "string"
						},
						{
							"name": "",
							"type": "string"
						},
						{
							"name": "",
							"type": "string"
						},
						{
							"name": "",
							"type": "address"
						}
					],
					"payable": false,
					"stateMutability": "view",
					"type": "function"
				},
				{
					"constant": false,
					"inputs": [
						{
							"name": "_address1",
							"type": "address"
						},
						{
							"name": "_address2",
							"type": "address"
						}
					],
					"name": "givePermissionByMoH",
					"outputs": [
						{
							"name": "success",
							"type": "bool"
						}
					],
					"payable": false,
					"stateMutability": "nonpayable",
					"type": "function"
				},
				{
					"constant": true,
					"inputs": [],
					"name": "getMoHPermissionCounter",
					"outputs": [
						{
							"name": "",
							"type": "uint256"
						}
					],
					"payable": false,
					"stateMutability": "view",
					"type": "function"
				},
				{
					"constant": true,
					"inputs": [
						{
							"name": "",
							"type": "uint256"
						}
					],
					"name": "vaccinationList",
					"outputs": [
						{
							"name": "",
							"type": "address"
						}
					],
					"payable": false,
					"stateMutability": "view",
					"type": "function"
				}
			],
			"devdoc": {
				"methods": {}
			},
			"evm": {
				"assembly": "    /* \"contracts/ddddd.sol\":91:9231  contract ddddd {\r... */\n  mstore(0x40, 0x80)\n    /* \"contracts/ddddd.sol\":1660:1661  0 */\n  0x0\n    /* \"contracts/ddddd.sol\":1633:1661  uint256 public userCount = 0 */\n  0xb\n  sstore\n    /* \"contracts/ddddd.sol\":1697:1698  0 */\n  0x0\n    /* \"contracts/ddddd.sol\":1668:1698  uint256 public doctorCount = 0 */\n  0xc\n  sstore\n    /* \"contracts/ddddd.sol\":1743:1744  0 */\n  0x0\n    /* \"contracts/ddddd.sol\":1705:1744  uint256 public MoHPermissionCounter = 0 */\n  0xd\n  sstore\n    /* \"contracts/ddddd.sol\":1790:1791  0 */\n  0x0\n    /* \"contracts/ddddd.sol\":1751:1791  uint256 public userPermissionCounter = 0 */\n  0xe\n  sstore\n    /* \"contracts/ddddd.sol\":1841:1842  0 */\n  0x0\n    /* \"contracts/ddddd.sol\":1798:1842  uint256 public vaccinationRecordsCounter = 0 */\n  0xf\n  sstore\n    /* \"contracts/ddddd.sol\":1878:1920  0xc50C6297f56b033633C30354A854b074749cd2dC */\n  0xc50c6297f56b033633c30354a854b074749cd2dc\n    /* \"contracts/ddddd.sol\":1851:1920  address public mohAdress = 0xc50C6297f56b033633C30354A854b074749cd2dC */\n  0x10\n  exp(0x100, 0x0)\n  dup2\n  sload\n  dup2\n  0xffffffffffffffffffffffffffffffffffffffff\n  mul\n  not\n  and\n  swap1\n  dup4\n  0xffffffffffffffffffffffffffffffffffffffff\n  and\n  mul\n  or\n  swap1\n  sstore\n  pop\n    /* \"contracts/ddddd.sol\":91:9231  contract ddddd {\r... */\n  callvalue\n    /* \"--CODEGEN--\":8:17   */\n  dup1\n    /* \"--CODEGEN--\":5:7   */\n  iszero\n  tag_1\n  jumpi\n    /* \"--CODEGEN--\":30:31   */\n  0x0\n    /* \"--CODEGEN--\":27:28   */\n  dup1\n    /* \"--CODEGEN--\":20:32   */\n  revert\n    /* \"--CODEGEN--\":5:7   */\ntag_1:\n    /* \"contracts/ddddd.sol\":91:9231  contract ddddd {\r... */\n  pop\n  dataSize(sub_0)\n  dup1\n  dataOffset(sub_0)\n  0x0\n  codecopy\n  0x0\n  return\nstop\n\nsub_0: assembly {\n        /* \"contracts/ddddd.sol\":91:9231  contract ddddd {\r... */\n      mstore(0x40, 0x80)\n      jumpi(tag_1, lt(calldatasize, 0x4))\n      calldataload(0x0)\n      0x100000000000000000000000000000000000000000000000000000000\n      swap1\n      div\n      0xffffffff\n      and\n      dup1\n      0xce8e3e\n      eq\n      tag_2\n      jumpi\n      dup1\n      0x24decc5\n      eq\n      tag_3\n      jumpi\n      dup1\n      0x76fd2f8\n      eq\n      tag_4\n      jumpi\n      dup1\n      0x7973ccf\n      eq\n      tag_5\n      jumpi\n      dup1\n      0x127ca4b4\n      eq\n      tag_6\n      jumpi\n      dup1\n      0x16e0a611\n      eq\n      tag_7\n      jumpi\n      dup1\n      0x17e51111\n      eq\n      tag_8\n      jumpi\n      dup1\n      0x294a4540\n      eq\n      tag_9\n      jumpi\n      dup1\n      0x44c23f88\n      eq\n      tag_10\n      jumpi\n      dup1\n      0x5fc8e8c6\n      eq\n      tag_11\n      jumpi\n      dup1\n      0x6cdb2278\n      eq\n      tag_12\n      jumpi\n      dup1\n      0x779a9576\n      eq\n      tag_13\n      jumpi\n      dup1\n      0x78522bc4\n      eq\n      tag_14\n      jumpi\n      dup1\n      0x79111c1c\n      eq\n      tag_15\n      jumpi\n      dup1\n      0x793de5f0\n      eq\n      tag_16\n      jumpi\n      dup1\n      0x83a28b29\n      eq\n      tag_17\n      jumpi\n      dup1\n      0x8da5cb5b\n      eq\n      tag_18\n      jumpi\n      dup1\n      0x8f84aa09\n      eq\n      tag_19\n      jumpi\n      dup1\n      0x96e39ce0\n      eq\n      tag_20\n      jumpi\n      dup1\n      0x99d698c5\n      eq\n      tag_21\n      jumpi\n      dup1\n      0x9f4216e8\n      eq\n      tag_22\n      jumpi\n      dup1\n      0xb13d5d94\n      eq\n      tag_23\n      jumpi\n      dup1\n      0xb5cb15f7\n      eq\n      tag_24\n      jumpi\n      dup1\n      0xb744ff4d\n      eq\n      tag_25\n      jumpi\n      dup1\n      0xc3bf7bf0\n      eq\n      tag_26\n      jumpi\n      dup1\n      0xc543a718\n      eq\n      tag_27\n      jumpi\n      dup1\n      0xcaee6c85\n      eq\n      tag_28\n      jumpi\n      dup1\n      0xd118404b\n      eq\n      tag_29\n      jumpi\n      dup1\n      0xe0df0ac6\n      eq\n      tag_30\n      jumpi\n      dup1\n      0xff508dab\n      eq\n      tag_31\n      jumpi\n    tag_1:\n      0x0\n      dup1\n      revert\n        /* \"contracts/ddddd.sol\":7206:7291  function getUsers() public view returns(address[]) {\r... */\n    tag_2:\n      callvalue\n        /* \"--CODEGEN--\":8:17   */\n      dup1\n        /* \"--CODEGEN--\":5:7   */\n      iszero\n      tag_32\n      jumpi\n        /* \"--CODEGEN--\":30:31   */\n      0x0\n        /* \"--CODEGEN--\":27:28   */\n      dup1\n        /* \"--CODEGEN--\":20:32   */\n      revert\n        /* \"--CODEGEN--\":5:7   */\n    tag_32:\n        /* \"contracts/ddddd.sol\":7206:7291  function getUsers() public view returns(address[]) {\r... */\n      pop\n      tag_33\n      jump(tag_34)\n    tag_33:\n      mload(0x40)\n      tag_35\n      swap2\n      swap1\n      jump(tag_36)\n    tag_35:\n      mload(0x40)\n      dup1\n      swap2\n      sub\n      swap1\n      return\n        /* \"contracts/ddddd.sol\":8684:8796  function getUserPermissionCounter() public view returns(uint256) {\r... */\n    tag_3:\n      callvalue\n        /* \"--CODEGEN--\":8:17   */\n      dup1\n        /* \"--CODEGEN--\":5:7   */\n      iszero\n      tag_37\n      jumpi\n        /* \"--CODEGEN--\":30:31   */\n      0x0\n        /* \"--CODEGEN--\":27:28   */\n      dup1\n        /* \"--CODEGEN--\":20:32   */\n      revert\n        /* \"--CODEGEN--\":5:7   */\n    tag_37:\n        /* \"contracts/ddddd.sol\":8684:8796  function getUserPermissionCounter() public view returns(uint256) {\r... */\n      pop\n      tag_38\n      jump(tag_39)\n    tag_38:\n      mload(0x40)\n      tag_40\n      swap2\n      swap1\n      jump(tag_41)\n    tag_40:\n      mload(0x40)\n      dup1\n      swap2\n      sub\n      swap1\n      return\n        /* \"contracts/ddddd.sol\":7402:7776  function searchUserformation(address _address) public view returns(string, string, string, string, string, string, string, address) {\r... */\n    tag_4:\n      callvalue\n        /* \"--CODEGEN--\":8:17   */\n      dup1\n        /* \"--CODEGEN--\":5:7   */\n      iszero\n      tag_42\n      jumpi\n        /* \"--CODEGEN--\":30:31   */\n      0x0\n        /* \"--CODEGEN--\":27:28   */\n      dup1\n        /* \"--CODEGEN--\":20:32   */\n      revert\n        /* \"--CODEGEN--\":5:7   */\n    tag_42:\n        /* \"contracts/ddddd.sol\":7402:7776  function searchUserformation(address _address) public view returns(string, string, string, string, string, string, string, address) {\r... */\n      pop\n      tag_43\n      0x4\n      dup1\n      calldatasize\n      sub\n      tag_44\n      swap2\n      swap1\n      dup2\n      add\n      swap1\n      jump(tag_45)\n    tag_44:\n      jump(tag_46)\n    tag_43:\n      mload(0x40)\n      tag_47\n      swap9\n      swap8\n      swap7\n      swap6\n      swap5\n      swap4\n      swap3\n      swap2\n      swap1\n      jump(tag_48)\n    tag_47:\n      mload(0x40)\n      dup1\n      swap2\n      sub\n      swap1\n      return\n        /* \"contracts/ddddd.sol\":1633:1661  uint256 public userCount = 0 */\n    tag_5:\n      callvalue\n        /* \"--CODEGEN--\":8:17   */\n      dup1\n        /* \"--CODEGEN--\":5:7   */\n      iszero\n      tag_49\n      jumpi\n        /* \"--CODEGEN--\":30:31   */\n      0x0\n        /* \"--CODEGEN--\":27:28   */\n      dup1\n        /* \"--CODEGEN--\":20:32   */\n      revert\n        /* \"--CODEGEN--\":5:7   */\n    tag_49:\n        /* \"contracts/ddddd.sol\":1633:1661  uint256 public userCount = 0 */\n      pop\n      tag_50\n      jump(tag_51)\n    tag_50:\n      mload(0x40)\n      tag_52\n      swap2\n      swap1\n      jump(tag_41)\n    tag_52:\n      mload(0x40)\n      dup1\n      swap2\n      sub\n      swap1\n      return\n        /* \"contracts/ddddd.sol\":1095:1122  address[] public doctorList */\n    tag_6:\n      callvalue\n        /* \"--CODEGEN--\":8:17   */\n      dup1\n        /* \"--CODEGEN--\":5:7   */\n      iszero\n      tag_53\n      jumpi\n        /* \"--CODEGEN--\":30:31   */\n      0x0\n        /* \"--CODEGEN--\":27:28   */\n      dup1\n        /* \"--CODEGEN--\":20:32   */\n      revert\n        /* \"--CODEGEN--\":5:7   */\n    tag_53:\n        /* \"contracts/ddddd.sol\":1095:1122  address[] public doctorList */\n      pop\n      tag_54\n      0x4\n      dup1\n      calldatasize\n      sub\n      tag_55\n      swap2\n      swap1\n      dup2\n      add\n      swap1\n      jump(tag_56)\n    tag_55:\n      jump(tag_57)\n    tag_54:\n      mload(0x40)\n      tag_58\n      swap2\n      swap1\n      jump(tag_59)\n    tag_58:\n      mload(0x40)\n      dup1\n      swap2\n      sub\n      swap1\n      return\n        /* \"contracts/ddddd.sol\":4578:5103  function editDoctor(address _doctor, string _uaeId, string _name, string _phone, string _gender, string _email, string _qualification, string _major) public {\r... */\n    tag_7:\n      callvalue\n        /* \"--CODEGEN--\":8:17   */\n      dup1\n        /* \"--CODEGEN--\":5:7   */\n      iszero\n      tag_60\n      jumpi\n        /* \"--CODEGEN--\":30:31   */\n      0x0\n        /* \"--CODEGEN--\":27:28   */\n      dup1\n        /* \"--CODEGEN--\":20:32   */\n      revert\n        /* \"--CODEGEN--\":5:7   */\n    tag_60:\n        /* \"contracts/ddddd.sol\":4578:5103  function editDoctor(address _doctor, string _uaeId, string _name, string _phone, string _gender, string _email, string _qualification, string _major) public {\r... */\n      pop\n      tag_61\n      0x4\n      dup1\n      calldatasize\n      sub\n      tag_62\n      swap2\n      swap1\n      dup2\n      add\n      swap1\n      jump(tag_63)\n    tag_62:\n      jump(tag_64)\n    tag_61:\n      stop\n        /* \"contracts/ddddd.sol\":3803:4570  function doctorRegistration(address _doctor, string _uaeId, string _name, string _phone, string _gender, string _email, string _qualification, string _major) public {\r... */\n    tag_8:\n      callvalue\n        /* \"--CODEGEN--\":8:17   */\n      dup1\n        /* \"--CODEGEN--\":5:7   */\n      iszero\n      tag_65\n      jumpi\n        /* \"--CODEGEN--\":30:31   */\n      0x0\n        /* \"--CODEGEN--\":27:28   */\n      dup1\n        /* \"--CODEGEN--\":20:32   */\n      revert\n        /* \"--CODEGEN--\":5:7   */\n    tag_65:\n        /* \"contracts/ddddd.sol\":3803:4570  function doctorRegistration(address _doctor, string _uaeId, string _name, string _phone, string _gender, string _email, string _qualification, string _major) public {\r... */\n      pop\n      tag_66\n      0x4\n      dup1\n      calldatasize\n      sub\n      tag_67\n      swap2\n      swap1\n      dup2\n      add\n      swap1\n      jump(tag_63)\n    tag_67:\n      jump(tag_68)\n    tag_66:\n      stop\n        /* \"contracts/ddddd.sol\":6349:6540  function givePermissionByUser(address _address) public returns(bool success) {\r... */\n    tag_9:\n      callvalue\n        /* \"--CODEGEN--\":8:17   */\n      dup1\n        /* \"--CODEGEN--\":5:7   */\n      iszero\n      tag_69\n      jumpi\n        /* \"--CODEGEN--\":30:31   */\n      0x0\n        /* \"--CODEGEN--\":27:28   */\n      dup1\n        /* \"--CODEGEN--\":20:32   */\n      revert\n        /* \"--CODEGEN--\":5:7   */\n    tag_69:\n        /* \"contracts/ddddd.sol\":6349:6540  function givePermissionByUser(address _address) public returns(bool success) {\r... */\n      pop\n      tag_70\n      0x4\n      dup1\n      calldatasize\n      sub\n      tag_71\n      swap2\n      swap1\n      dup2\n      add\n      swap1\n      jump(tag_45)\n    tag_71:\n      jump(tag_72)\n    tag_70:\n      mload(0x40)\n      tag_73\n      swap2\n      swap1\n      jump(tag_74)\n    tag_73:\n      mload(0x40)\n      dup1\n      swap2\n      sub\n      swap1\n      return\n        /* \"contracts/ddddd.sol\":5111:6003  function createVaccineRecord(address _address1, address _doctor, string _name, string _vaccine, string _description, string _typeOfVaccine, uint _creationDate) public returns(bool success) {\r... */\n    tag_10:\n      callvalue\n        /* \"--CODEGEN--\":8:17   */\n      dup1\n        /* \"--CODEGEN--\":5:7   */\n      iszero\n      tag_75\n      jumpi\n        /* \"--CODEGEN--\":30:31   */\n      0x0\n        /* \"--CODEGEN--\":27:28   */\n      dup1\n        /* \"--CODEGEN--\":20:32   */\n      revert\n        /* \"--CODEGEN--\":5:7   */\n    tag_75:\n        /* \"contracts/ddddd.sol\":5111:6003  function createVaccineRecord(address _address1, address _doctor, string _name, string _vaccine, string _description, string _typeOfVaccine, uint _creationDate) public returns(bool success) {\r... */\n      pop\n      tag_76\n      0x4\n      dup1\n      calldatasize\n      sub\n      tag_77\n      swap2\n      swap1\n      dup2\n      add\n      swap1\n      jump(tag_78)\n    tag_77:\n      jump(tag_79)\n    tag_76:\n      mload(0x40)\n      tag_80\n      swap2\n      swap1\n      jump(tag_74)\n    tag_80:\n      mload(0x40)\n      dup1\n      swap2\n      sub\n      swap1\n      return\n        /* \"contracts/ddddd.sol\":6810:6968  function userRevokePermission(address _address) public returns(bool success) {\r... */\n    tag_11:\n      callvalue\n        /* \"--CODEGEN--\":8:17   */\n      dup1\n        /* \"--CODEGEN--\":5:7   */\n      iszero\n      tag_81\n      jumpi\n        /* \"--CODEGEN--\":30:31   */\n      0x0\n        /* \"--CODEGEN--\":27:28   */\n      dup1\n        /* \"--CODEGEN--\":20:32   */\n      revert\n        /* \"--CODEGEN--\":5:7   */\n    tag_81:\n        /* \"contracts/ddddd.sol\":6810:6968  function userRevokePermission(address _address) public returns(bool success) {\r... */\n      pop\n      tag_82\n      0x4\n      dup1\n      calldatasize\n      sub\n      tag_83\n      swap2\n      swap1\n      dup2\n      add\n      swap1\n      jump(tag_45)\n    tag_83:\n      jump(tag_84)\n    tag_82:\n      mload(0x40)\n      tag_85\n      swap2\n      swap1\n      jump(tag_74)\n    tag_85:\n      mload(0x40)\n      dup1\n      swap2\n      sub\n      swap1\n      return\n        /* \"contracts/ddddd.sol\":2053:3162  function userRegistration(address _user, string _uaeId, string _name, string _phone, string _gender, string _dob, string _addr, string _email, string _nomineeName, string _nomineeContact) public {\r... */\n    tag_12:\n      callvalue\n        /* \"--CODEGEN--\":8:17   */\n      dup1\n        /* \"--CODEGEN--\":5:7   */\n      iszero\n      tag_86\n      jumpi\n        /* \"--CODEGEN--\":30:31   */\n      0x0\n        /* \"--CODEGEN--\":27:28   */\n      dup1\n        /* \"--CODEGEN--\":20:32   */\n      revert\n        /* \"--CODEGEN--\":5:7   */\n    tag_86:\n        /* \"contracts/ddddd.sol\":2053:3162  function userRegistration(address _user, string _uaeId, string _name, string _phone, string _gender, string _dob, string _addr, string _email, string _nomineeName, string _nomineeContact) public {\r... */\n      pop\n      tag_87\n      0x4\n      dup1\n      calldatasize\n      sub\n      tag_88\n      swap2\n      swap1\n      dup2\n      add\n      swap1\n      jump(tag_89)\n    tag_88:\n      jump(tag_90)\n    tag_87:\n      stop\n        /* \"contracts/ddddd.sol\":3186:3795  function editUser(address _user, string _uaeId, string _name, string _phone, string _gender, string _dob, string _addr, string _email, string _nomineeName, string _nomineeContact) public {\r... */\n    tag_13:\n      callvalue\n        /* \"--CODEGEN--\":8:17   */\n      dup1\n        /* \"--CODEGEN--\":5:7   */\n      iszero\n      tag_91\n      jumpi\n        /* \"--CODEGEN--\":30:31   */\n      0x0\n        /* \"--CODEGEN--\":27:28   */\n      dup1\n        /* \"--CODEGEN--\":20:32   */\n      revert\n        /* \"--CODEGEN--\":5:7   */\n    tag_91:\n        /* \"contracts/ddddd.sol\":3186:3795  function editUser(address _user, string _uaeId, string _name, string _phone, string _gender, string _dob, string _addr, string _email, string _nomineeName, string _nomineeContact) public {\r... */\n      pop\n      tag_92\n      0x4\n      dup1\n      calldatasize\n      sub\n      tag_93\n      swap2\n      swap1\n      dup2\n      add\n      swap1\n      jump(tag_89)\n    tag_93:\n      jump(tag_94)\n    tag_92:\n      stop\n        /* \"contracts/ddddd.sol\":1668:1698  uint256 public doctorCount = 0 */\n    tag_14:\n      callvalue\n        /* \"--CODEGEN--\":8:17   */\n      dup1\n        /* \"--CODEGEN--\":5:7   */\n      iszero\n      tag_95\n      jumpi\n        /* \"--CODEGEN--\":30:31   */\n      0x0\n        /* \"--CODEGEN--\":27:28   */\n      dup1\n        /* \"--CODEGEN--\":20:32   */\n      revert\n        /* \"--CODEGEN--\":5:7   */\n    tag_95:\n        /* \"contracts/ddddd.sol\":1668:1698  uint256 public doctorCount = 0 */\n      pop\n      tag_96\n      jump(tag_97)\n    tag_96:\n      mload(0x40)\n      tag_98\n      swap2\n      swap1\n      jump(tag_41)\n    tag_98:\n      mload(0x40)\n      dup1\n      swap2\n      sub\n      swap1\n      return\n        /* \"contracts/ddddd.sol\":8578:8670  function getDoctorCount() public view returns(uint256) {\r... */\n    tag_15:\n      callvalue\n        /* \"--CODEGEN--\":8:17   */\n      dup1\n        /* \"--CODEGEN--\":5:7   */\n      iszero\n      tag_99\n      jumpi\n        /* \"--CODEGEN--\":30:31   */\n      0x0\n        /* \"--CODEGEN--\":27:28   */\n      dup1\n        /* \"--CODEGEN--\":20:32   */\n      revert\n        /* \"--CODEGEN--\":5:7   */\n    tag_99:\n        /* \"contracts/ddddd.sol\":8578:8670  function getDoctorCount() public view returns(uint256) {\r... */\n      pop\n      tag_100\n      jump(tag_101)\n    tag_100:\n      mload(0x40)\n      tag_102\n      swap2\n      swap1\n      jump(tag_41)\n    tag_102:\n      mload(0x40)\n      dup1\n      swap2\n      sub\n      swap1\n      return\n        /* \"contracts/ddddd.sol\":8922:9228  function checkDoctor(address _address) public view returns(bool success) {\r... */\n    tag_16:\n      callvalue\n        /* \"--CODEGEN--\":8:17   */\n      dup1\n        /* \"--CODEGEN--\":5:7   */\n      iszero\n      tag_103\n      jumpi\n        /* \"--CODEGEN--\":30:31   */\n      0x0\n        /* \"--CODEGEN--\":27:28   */\n      dup1\n        /* \"--CODEGEN--\":20:32   */\n      revert\n        /* \"--CODEGEN--\":5:7   */\n    tag_103:\n        /* \"contracts/ddddd.sol\":8922:9228  function checkDoctor(address _address) public view returns(bool success) {\r... */\n      pop\n      tag_104\n      0x4\n      dup1\n      calldatasize\n      sub\n      tag_105\n      swap2\n      swap1\n      dup2\n      add\n      swap1\n      jump(tag_45)\n    tag_105:\n      jump(tag_106)\n    tag_104:\n      mload(0x40)\n      tag_107\n      swap2\n      swap1\n      jump(tag_74)\n    tag_107:\n      mload(0x40)\n      dup1\n      swap2\n      sub\n      swap1\n      return\n        /* \"contracts/ddddd.sol\":6011:6339  function getVaccinationInfo(address _address) public view returns(string, string, string, uint256, address, address) {\r... */\n    tag_17:\n      callvalue\n        /* \"--CODEGEN--\":8:17   */\n      dup1\n        /* \"--CODEGEN--\":5:7   */\n      iszero\n      tag_108\n      jumpi\n        /* \"--CODEGEN--\":30:31   */\n      0x0\n        /* \"--CODEGEN--\":27:28   */\n      dup1\n        /* \"--CODEGEN--\":20:32   */\n      revert\n        /* \"--CODEGEN--\":5:7   */\n    tag_108:\n        /* \"contracts/ddddd.sol\":6011:6339  function getVaccinationInfo(address _address) public view returns(string, string, string, uint256, address, address) {\r... */\n      pop\n      tag_109\n      0x4\n      dup1\n      calldatasize\n      sub\n      tag_110\n      swap2\n      swap1\n      dup2\n      add\n      swap1\n      jump(tag_45)\n    tag_110:\n      jump(tag_111)\n    tag_109:\n      mload(0x40)\n      tag_112\n      swap7\n      swap6\n      swap5\n      swap4\n      swap3\n      swap2\n      swap1\n      jump(tag_113)\n    tag_112:\n      mload(0x40)\n      dup1\n      swap2\n      sub\n      swap1\n      return\n        /* \"contracts/ddddd.sol\":1036:1056  address public owner */\n    tag_18:\n      callvalue\n        /* \"--CODEGEN--\":8:17   */\n      dup1\n        /* \"--CODEGEN--\":5:7   */\n      iszero\n      tag_114\n      jumpi\n        /* \"--CODEGEN--\":30:31   */\n      0x0\n        /* \"--CODEGEN--\":27:28   */\n      dup1\n        /* \"--CODEGEN--\":20:32   */\n      revert\n        /* \"--CODEGEN--\":5:7   */\n    tag_114:\n        /* \"contracts/ddddd.sol\":1036:1056  address public owner */\n      pop\n      tag_115\n      jump(tag_116)\n    tag_115:\n      mload(0x40)\n      tag_117\n      swap2\n      swap1\n      jump(tag_59)\n    tag_117:\n      mload(0x40)\n      dup1\n      swap2\n      sub\n      swap1\n      return\n        /* \"contracts/ddddd.sol\":1933:2041  function ownerAddress() public returns(address) {\r... */\n    tag_19:\n      callvalue\n        /* \"--CODEGEN--\":8:17   */\n      dup1\n        /* \"--CODEGEN--\":5:7   */\n      iszero\n      tag_118\n      jumpi\n        /* \"--CODEGEN--\":30:31   */\n      0x0\n        /* \"--CODEGEN--\":27:28   */\n      dup1\n        /* \"--CODEGEN--\":20:32   */\n      revert\n        /* \"--CODEGEN--\":5:7   */\n    tag_118:\n        /* \"contracts/ddddd.sol\":1933:2041  function ownerAddress() public returns(address) {\r... */\n      pop\n      tag_119\n      jump(tag_120)\n    tag_119:\n      mload(0x40)\n      tag_121\n      swap2\n      swap1\n      jump(tag_59)\n    tag_121:\n      mload(0x40)\n      dup1\n      swap2\n      sub\n      swap1\n      return\n        /* \"contracts/ddddd.sol\":1798:1842  uint256 public vaccinationRecordsCounter = 0 */\n    tag_20:\n      callvalue\n        /* \"--CODEGEN--\":8:17   */\n      dup1\n        /* \"--CODEGEN--\":5:7   */\n      iszero\n      tag_122\n      jumpi\n        /* \"--CODEGEN--\":30:31   */\n      0x0\n        /* \"--CODEGEN--\":27:28   */\n      dup1\n        /* \"--CODEGEN--\":20:32   */\n      revert\n        /* \"--CODEGEN--\":5:7   */\n    tag_122:\n        /* \"contracts/ddddd.sol\":1798:1842  uint256 public vaccinationRecordsCounter = 0 */\n      pop\n      tag_123\n      jump(tag_124)\n    tag_123:\n      mload(0x40)\n      tag_125\n      swap2\n      swap1\n      jump(tag_41)\n    tag_125:\n      mload(0x40)\n      dup1\n      swap2\n      sub\n      swap1\n      return\n        /* \"contracts/ddddd.sol\":1705:1744  uint256 public MoHPermissionCounter = 0 */\n    tag_21:\n      callvalue\n        /* \"--CODEGEN--\":8:17   */\n      dup1\n        /* \"--CODEGEN--\":5:7   */\n      iszero\n      tag_126\n      jumpi\n        /* \"--CODEGEN--\":30:31   */\n      0x0\n        /* \"--CODEGEN--\":27:28   */\n      dup1\n        /* \"--CODEGEN--\":20:32   */\n      revert\n        /* \"--CODEGEN--\":5:7   */\n    tag_126:\n        /* \"contracts/ddddd.sol\":1705:1744  uint256 public MoHPermissionCounter = 0 */\n      pop\n      tag_127\n      jump(tag_128)\n    tag_127:\n      mload(0x40)\n      tag_129\n      swap2\n      swap1\n      jump(tag_41)\n    tag_129:\n      mload(0x40)\n      dup1\n      swap2\n      sub\n      swap1\n      return\n        /* \"contracts/ddddd.sol\":1063:1088  address[] public userList */\n    tag_22:\n      callvalue\n        /* \"--CODEGEN--\":8:17   */\n      dup1\n        /* \"--CODEGEN--\":5:7   */\n      iszero\n      tag_130\n      jumpi\n        /* \"--CODEGEN--\":30:31   */\n      0x0\n        /* \"--CODEGEN--\":27:28   */\n      dup1\n        /* \"--CODEGEN--\":20:32   */\n      revert\n        /* \"--CODEGEN--\":5:7   */\n    tag_130:\n        /* \"contracts/ddddd.sol\":1063:1088  address[] public userList */\n      pop\n      tag_131\n      0x4\n      dup1\n      calldatasize\n      sub\n      tag_132\n      swap2\n      swap1\n      dup2\n      add\n      swap1\n      jump(tag_56)\n    tag_132:\n      jump(tag_133)\n    tag_131:\n      mload(0x40)\n      tag_134\n      swap2\n      swap1\n      jump(tag_59)\n    tag_134:\n      mload(0x40)\n      dup1\n      swap2\n      sub\n      swap1\n      return\n        /* \"contracts/ddddd.sol\":7301:7390  function getDoctors() public view returns(address[]) {\r... */\n    tag_23:\n      callvalue\n        /* \"--CODEGEN--\":8:17   */\n      dup1\n        /* \"--CODEGEN--\":5:7   */\n      iszero\n      tag_135\n      jumpi\n        /* \"--CODEGEN--\":30:31   */\n      0x0\n        /* \"--CODEGEN--\":27:28   */\n      dup1\n        /* \"--CODEGEN--\":20:32   */\n      revert\n        /* \"--CODEGEN--\":5:7   */\n    tag_135:\n        /* \"contracts/ddddd.sol\":7301:7390  function getDoctors() public view returns(address[]) {\r... */\n      pop\n      tag_136\n      jump(tag_137)\n    tag_136:\n      mload(0x40)\n      tag_138\n      swap2\n      swap1\n      jump(tag_36)\n    tag_138:\n      mload(0x40)\n      dup1\n      swap2\n      sub\n      swap1\n      return\n        /* \"contracts/ddddd.sol\":8482:8570  function getUserCount() public view returns(uint256) {\r... */\n    tag_24:\n      callvalue\n        /* \"--CODEGEN--\":8:17   */\n      dup1\n        /* \"--CODEGEN--\":5:7   */\n      iszero\n      tag_139\n      jumpi\n        /* \"--CODEGEN--\":30:31   */\n      0x0\n        /* \"--CODEGEN--\":27:28   */\n      dup1\n        /* \"--CODEGEN--\":20:32   */\n      revert\n        /* \"--CODEGEN--\":5:7   */\n    tag_139:\n        /* \"contracts/ddddd.sol\":8482:8570  function getUserCount() public view returns(uint256) {\r... */\n      pop\n      tag_140\n      jump(tag_141)\n    tag_140:\n      mload(0x40)\n      tag_142\n      swap2\n      swap1\n      jump(tag_41)\n    tag_142:\n      mload(0x40)\n      dup1\n      swap2\n      sub\n      swap1\n      return\n        /* \"contracts/ddddd.sol\":1851:1920  address public mohAdress = 0xc50C6297f56b033633C30354A854b074749cd2dC */\n    tag_25:\n      callvalue\n        /* \"--CODEGEN--\":8:17   */\n      dup1\n        /* \"--CODEGEN--\":5:7   */\n      iszero\n      tag_143\n      jumpi\n        /* \"--CODEGEN--\":30:31   */\n      0x0\n        /* \"--CODEGEN--\":27:28   */\n      dup1\n        /* \"--CODEGEN--\":20:32   */\n      revert\n        /* \"--CODEGEN--\":5:7   */\n    tag_143:\n        /* \"contracts/ddddd.sol\":1851:1920  address public mohAdress = 0xc50C6297f56b033633C30354A854b074749cd2dC */\n      pop\n      tag_144\n      jump(tag_145)\n    tag_144:\n      mload(0x40)\n      tag_146\n      swap2\n      swap1\n      jump(tag_59)\n    tag_146:\n      mload(0x40)\n      dup1\n      swap2\n      sub\n      swap1\n      return\n        /* \"contracts/ddddd.sol\":6976:7196  function MoHRevokePermission(address _address1, address _address2) public returns(bool success) {\r... */\n    tag_26:\n      callvalue\n        /* \"--CODEGEN--\":8:17   */\n      dup1\n        /* \"--CODEGEN--\":5:7   */\n      iszero\n      tag_147\n      jumpi\n        /* \"--CODEGEN--\":30:31   */\n      0x0\n        /* \"--CODEGEN--\":27:28   */\n      dup1\n        /* \"--CODEGEN--\":20:32   */\n      revert\n        /* \"--CODEGEN--\":5:7   */\n    tag_147:\n        /* \"contracts/ddddd.sol\":6976:7196  function MoHRevokePermission(address _address1, address _address2) public returns(bool success) {\r... */\n      pop\n      tag_148\n      0x4\n      dup1\n      calldatasize\n      sub\n      tag_149\n      swap2\n      swap1\n      dup2\n      add\n      swap1\n      jump(tag_150)\n    tag_149:\n      jump(tag_151)\n    tag_148:\n      mload(0x40)\n      tag_152\n      swap2\n      swap1\n      jump(tag_74)\n    tag_152:\n      mload(0x40)\n      dup1\n      swap2\n      sub\n      swap1\n      return\n        /* \"contracts/ddddd.sol\":1751:1791  uint256 public userPermissionCounter = 0 */\n    tag_27:\n      callvalue\n        /* \"--CODEGEN--\":8:17   */\n      dup1\n        /* \"--CODEGEN--\":5:7   */\n      iszero\n      tag_153\n      jumpi\n        /* \"--CODEGEN--\":30:31   */\n      0x0\n        /* \"--CODEGEN--\":27:28   */\n      dup1\n        /* \"--CODEGEN--\":20:32   */\n      revert\n        /* \"--CODEGEN--\":5:7   */\n    tag_153:\n        /* \"contracts/ddddd.sol\":1751:1791  uint256 public userPermissionCounter = 0 */\n      pop\n      tag_154\n      jump(tag_155)\n    tag_154:\n      mload(0x40)\n      tag_156\n      swap2\n      swap1\n      jump(tag_41)\n    tag_156:\n      mload(0x40)\n      dup1\n      swap2\n      sub\n      swap1\n      return\n        /* \"contracts/ddddd.sol\":8097:8466  function searchDoctor(address _address) public view returns(string, string, string, string, string, string, string, address) {\r... */\n    tag_28:\n      callvalue\n        /* \"--CODEGEN--\":8:17   */\n      dup1\n        /* \"--CODEGEN--\":5:7   */\n      iszero\n      tag_157\n      jumpi\n        /* \"--CODEGEN--\":30:31   */\n      0x0\n        /* \"--CODEGEN--\":27:28   */\n      dup1\n        /* \"--CODEGEN--\":20:32   */\n      revert\n        /* \"--CODEGEN--\":5:7   */\n    tag_157:\n        /* \"contracts/ddddd.sol\":8097:8466  function searchDoctor(address _address) public view returns(string, string, string, string, string, string, string, address) {\r... */\n      pop\n      tag_158\n      0x4\n      dup1\n      calldatasize\n      sub\n      tag_159\n      swap2\n      swap1\n      dup2\n      add\n      swap1\n      jump(tag_45)\n    tag_159:\n      jump(tag_160)\n    tag_158:\n      mload(0x40)\n      tag_161\n      swap9\n      swap8\n      swap7\n      swap6\n      swap5\n      swap4\n      swap3\n      swap2\n      swap1\n      jump(tag_48)\n    tag_161:\n      mload(0x40)\n      dup1\n      swap2\n      sub\n      swap1\n      return\n        /* \"contracts/ddddd.sol\":6548:6800  function givePermissionByMoH(address _address1, address _address2) public returns(bool success) {\r... */\n    tag_29:\n      callvalue\n        /* \"--CODEGEN--\":8:17   */\n      dup1\n        /* \"--CODEGEN--\":5:7   */\n      iszero\n      tag_162\n      jumpi\n        /* \"--CODEGEN--\":30:31   */\n      0x0\n        /* \"--CODEGEN--\":27:28   */\n      dup1\n        /* \"--CODEGEN--\":20:32   */\n      revert\n        /* \"--CODEGEN--\":5:7   */\n    tag_162:\n        /* \"contracts/ddddd.sol\":6548:6800  function givePermissionByMoH(address _address1, address _address2) public returns(bool success) {\r... */\n      pop\n      tag_163\n      0x4\n      dup1\n      calldatasize\n      sub\n      tag_164\n      swap2\n      swap1\n      dup2\n      add\n      swap1\n      jump(tag_150)\n    tag_164:\n      jump(tag_165)\n    tag_163:\n      mload(0x40)\n      tag_166\n      swap2\n      swap1\n      jump(tag_74)\n    tag_166:\n      mload(0x40)\n      dup1\n      swap2\n      sub\n      swap1\n      return\n        /* \"contracts/ddddd.sol\":8804:8914  function getMoHPermissionCounter() public view returns(uint256) {\r... */\n    tag_30:\n      callvalue\n        /* \"--CODEGEN--\":8:17   */\n      dup1\n        /* \"--CODEGEN--\":5:7   */\n      iszero\n      tag_167\n      jumpi\n        /* \"--CODEGEN--\":30:31   */\n      0x0\n        /* \"--CODEGEN--\":27:28   */\n      dup1\n        /* \"--CODEGEN--\":20:32   */\n      revert\n        /* \"--CODEGEN--\":5:7   */\n    tag_167:\n        /* \"contracts/ddddd.sol\":8804:8914  function getMoHPermissionCounter() public view returns(uint256) {\r... */\n      pop\n      tag_168\n      jump(tag_169)\n    tag_168:\n      mload(0x40)\n      tag_170\n      swap2\n      swap1\n      jump(tag_41)\n    tag_170:\n      mload(0x40)\n      dup1\n      swap2\n      sub\n      swap1\n      return\n        /* \"contracts/ddddd.sol\":1129:1161  address[] public vaccinationList */\n    tag_31:\n      callvalue\n        /* \"--CODEGEN--\":8:17   */\n      dup1\n        /* \"--CODEGEN--\":5:7   */\n      iszero\n      tag_171\n      jumpi\n        /* \"--CODEGEN--\":30:31   */\n      0x0\n        /* \"--CODEGEN--\":27:28   */\n      dup1\n        /* \"--CODEGEN--\":20:32   */\n      revert\n        /* \"--CODEGEN--\":5:7   */\n    tag_171:\n        /* \"contracts/ddddd.sol\":1129:1161  address[] public vaccinationList */\n      pop\n      tag_172\n      0x4\n      dup1\n      calldatasize\n      sub\n      tag_173\n      swap2\n      swap1\n      dup2\n      add\n      swap1\n      jump(tag_56)\n    tag_173:\n      jump(tag_174)\n    tag_172:\n      mload(0x40)\n      tag_175\n      swap2\n      swap1\n      jump(tag_59)\n    tag_175:\n      mload(0x40)\n      dup1\n      swap2\n      sub\n      swap1\n      return\n        /* \"contracts/ddddd.sol\":7206:7291  function getUsers() public view returns(address[]) {\r... */\n    tag_34:\n        /* \"contracts/ddddd.sol\":7246:7255  address[] */\n      0x60\n        /* \"contracts/ddddd.sol\":7275:7283  userList */\n      0x1\n        /* \"contracts/ddddd.sol\":7268:7283  return userList */\n      dup1\n      sload\n      dup1\n      0x20\n      mul\n      0x20\n      add\n      mload(0x40)\n      swap1\n      dup2\n      add\n      0x40\n      mstore\n      dup1\n      swap3\n      swap2\n      swap1\n      dup2\n      dup2\n      mstore\n      0x20\n      add\n      dup3\n      dup1\n      sload\n      dup1\n      iszero\n      tag_177\n      jumpi\n      0x20\n      mul\n      dup3\n      add\n      swap2\n      swap1\n      0x0\n      mstore\n      keccak256(0x0, 0x20)\n      swap1\n    tag_178:\n      dup2\n      0x0\n      swap1\n      sload\n      swap1\n      0x100\n      exp\n      swap1\n      div\n      0xffffffffffffffffffffffffffffffffffffffff\n      and\n      0xffffffffffffffffffffffffffffffffffffffff\n      and\n      dup2\n      mstore\n      0x20\n      add\n      swap1\n      0x1\n      add\n      swap1\n      dup1\n      dup4\n      gt\n      tag_178\n      jumpi\n    tag_177:\n      pop\n      pop\n      pop\n      pop\n      pop\n      swap1\n      pop\n        /* \"contracts/ddddd.sol\":7206:7291  function getUsers() public view returns(address[]) {\r... */\n      swap1\n      jump\t// out\n        /* \"contracts/ddddd.sol\":8684:8796  function getUserPermissionCounter() public view returns(uint256) {\r... */\n    tag_39:\n        /* \"contracts/ddddd.sol\":8740:8747  uint256 */\n      0x0\n        /* \"contracts/ddddd.sol\":8767:8788  userPermissionCounter */\n      sload(0xe)\n        /* \"contracts/ddddd.sol\":8760:8788  return userPermissionCounter */\n      swap1\n      pop\n        /* \"contracts/ddddd.sol\":8684:8796  function getUserPermissionCounter() public view returns(uint256) {\r... */\n      swap1\n      jump\t// out\n        /* \"contracts/ddddd.sol\":7402:7776  function searchUserformation(address _address) public view returns(string, string, string, string, string, string, string, address) {\r... */\n    tag_46:\n        /* \"contracts/ddddd.sol\":7469:7475  string */\n      0x60\n        /* \"contracts/ddddd.sol\":7477:7483  string */\n      dup1\n        /* \"contracts/ddddd.sol\":7485:7491  string */\n      0x60\n        /* \"contracts/ddddd.sol\":7493:7499  string */\n      dup1\n        /* \"contracts/ddddd.sol\":7501:7507  string */\n      0x60\n        /* \"contracts/ddddd.sol\":7509:7515  string */\n      dup1\n        /* \"contracts/ddddd.sol\":7517:7523  string */\n      0x60\n        /* \"contracts/ddddd.sol\":7525:7532  address */\n      0x0\n        /* \"contracts/ddddd.sol\":7597:7602  var u */\n      dup1\n        /* \"contracts/ddddd.sol\":7553:7563  isApproved */\n      0x7\n        /* \"contracts/ddddd.sol\":7553:7573  isApproved[_address] */\n      0x0\n        /* \"contracts/ddddd.sol\":7564:7572  _address */\n      dup12\n        /* \"contracts/ddddd.sol\":7553:7573  isApproved[_address] */\n      0xffffffffffffffffffffffffffffffffffffffff\n      and\n      0xffffffffffffffffffffffffffffffffffffffff\n      and\n      dup2\n      mstore\n      0x20\n      add\n      swap1\n      dup2\n      mstore\n      0x20\n      add\n      0x0\n      keccak256\n        /* \"contracts/ddddd.sol\":7553:7585  isApproved[_address][msg.sender] */\n      0x0\n        /* \"contracts/ddddd.sol\":7574:7584  msg.sender */\n      caller\n        /* \"contracts/ddddd.sol\":7553:7585  isApproved[_address][msg.sender] */\n      0xffffffffffffffffffffffffffffffffffffffff\n      and\n      0xffffffffffffffffffffffffffffffffffffffff\n      and\n      dup2\n      mstore\n      0x20\n      add\n      swap1\n      dup2\n      mstore\n      0x20\n      add\n      0x0\n      keccak256\n      0x0\n      swap1\n      sload\n      swap1\n      0x100\n      exp\n      swap1\n      div\n      0xff\n      and\n        /* \"contracts/ddddd.sol\":7545:7586  require(isApproved[_address][msg.sender]) */\n      iszero\n      iszero\n      tag_181\n      jumpi\n      0x0\n      dup1\n      revert\n    tag_181:\n        /* \"contracts/ddddd.sol\":7605:7609  user */\n      0x4\n        /* \"contracts/ddddd.sol\":7605:7619  user[_address] */\n      0x0\n        /* \"contracts/ddddd.sol\":7610:7618  _address */\n      dup12\n        /* \"contracts/ddddd.sol\":7605:7619  user[_address] */\n      0xffffffffffffffffffffffffffffffffffffffff\n      and\n      0xffffffffffffffffffffffffffffffffffffffff\n      and\n      dup2\n      mstore\n      0x20\n      add\n      swap1\n      dup2\n      mstore\n      0x20\n      add\n      0x0\n      keccak256\n        /* \"contracts/ddddd.sol\":7597:7619  var u = user[_address] */\n      swap1\n      pop\n        /* \"contracts/ddddd.sol\":7638:7639  u */\n      dup1\n        /* \"contracts/ddddd.sol\":7638:7645  u.uaeId */\n      0x0\n      add\n        /* \"contracts/ddddd.sol\":7647:7648  u */\n      dup2\n        /* \"contracts/ddddd.sol\":7647:7653  u.name */\n      0x1\n      add\n        /* \"contracts/ddddd.sol\":7655:7656  u */\n      dup3\n        /* \"contracts/ddddd.sol\":7655:7662  u.email */\n      0x6\n      add\n        /* \"contracts/ddddd.sol\":7664:7665  u */\n      dup4\n        /* \"contracts/ddddd.sol\":7664:7671  u.phone */\n      0x2\n      add\n        /* \"contracts/ddddd.sol\":7673:7674  u */\n      dup5\n        /* \"contracts/ddddd.sol\":7673:7681  u.gender */\n      0x3\n      add\n        /* \"contracts/ddddd.sol\":7683:7684  u */\n      dup6\n        /* \"contracts/ddddd.sol\":7683:7688  u.dob */\n      0x4\n      add\n        /* \"contracts/ddddd.sol\":7690:7691  u */\n      dup7\n        /* \"contracts/ddddd.sol\":7690:7696  u.addr */\n      0x5\n      add\n        /* \"contracts/ddddd.sol\":7698:7699  u */\n      dup8\n        /* \"contracts/ddddd.sol\":7698:7708  u.eAddress */\n      0x9\n      add\n      0x0\n      swap1\n      sload\n      swap1\n      0x100\n      exp\n      swap1\n      div\n      0xffffffffffffffffffffffffffffffffffffffff\n      and\n        /* \"contracts/ddddd.sol\":7630:7709  return (u.uaeId, u.name, u.email, u.phone, u.gender, u.dob, u.addr, u.eAddress) */\n      dup8\n      dup1\n      sload\n      0x1\n      dup2\n      0x1\n      and\n      iszero\n      0x100\n      mul\n      sub\n      and\n      0x2\n      swap1\n      div\n      dup1\n      0x1f\n      add\n      0x20\n      dup1\n      swap2\n      div\n      mul\n      0x20\n      add\n      mload(0x40)\n      swap1\n      dup2\n      add\n      0x40\n      mstore\n      dup1\n      swap3\n      swap2\n      swap1\n      dup2\n      dup2\n      mstore\n      0x20\n      add\n      dup3\n      dup1\n      sload\n      0x1\n      dup2\n      0x1\n      and\n      iszero\n      0x100\n      mul\n      sub\n      and\n      0x2\n      swap1\n      div\n      dup1\n      iszero\n      tag_182\n      jumpi\n      dup1\n      0x1f\n      lt\n      tag_183\n      jumpi\n      0x100\n      dup1\n      dup4\n      sload\n      div\n      mul\n      dup4\n      mstore\n      swap2\n      0x20\n      add\n      swap2\n      jump(tag_182)\n    tag_183:\n      dup3\n      add\n      swap2\n      swap1\n      0x0\n      mstore\n      keccak256(0x0, 0x20)\n      swap1\n    tag_184:\n      dup2\n      sload\n      dup2\n      mstore\n      swap1\n      0x1\n      add\n      swap1\n      0x20\n      add\n      dup1\n      dup4\n      gt\n      tag_184\n      jumpi\n      dup3\n      swap1\n      sub\n      0x1f\n      and\n      dup3\n      add\n      swap2\n    tag_182:\n      pop\n      pop\n      pop\n      pop\n      pop\n      swap8\n      pop\n      dup7\n      dup1\n      sload\n      0x1\n      dup2\n      0x1\n      and\n      iszero\n      0x100\n      mul\n      sub\n      and\n      0x2\n      swap1\n      div\n      dup1\n      0x1f\n      add\n      0x20\n      dup1\n      swap2\n      div\n      mul\n      0x20\n      add\n      mload(0x40)\n      swap1\n      dup2\n      add\n      0x40\n      mstore\n      dup1\n      swap3\n      swap2\n      swap1\n      dup2\n      dup2\n      mstore\n      0x20\n      add\n      dup3\n      dup1\n      sload\n      0x1\n      dup2\n      0x1\n      and\n      iszero\n      0x100\n      mul\n      sub\n      and\n      0x2\n      swap1\n      div\n      dup1\n      iszero\n      tag_185\n      jumpi\n      dup1\n      0x1f\n      lt\n      tag_186\n      jumpi\n      0x100\n      dup1\n      dup4\n      sload\n      div\n      mul\n      dup4\n      mstore\n      swap2\n      0x20\n      add\n      swap2\n      jump(tag_185)\n    tag_186:\n      dup3\n      add\n      swap2\n      swap1\n      0x0\n      mstore\n      keccak256(0x0, 0x20)\n      swap1\n    tag_187:\n      dup2\n      sload\n      dup2\n      mstore\n      swap1\n      0x1\n      add\n      swap1\n      0x20\n      add\n      dup1\n      dup4\n      gt\n      tag_187\n      jumpi\n      dup3\n      swap1\n      sub\n      0x1f\n      and\n      dup3\n      add\n      swap2\n    tag_185:\n      pop\n      pop\n      pop\n      pop\n      pop\n      swap7\n      pop\n      dup6\n      dup1\n      sload\n      0x1\n      dup2\n      0x1\n      and\n      iszero\n      0x100\n      mul\n      sub\n      and\n      0x2\n      swap1\n      div\n      dup1\n      0x1f\n      add\n      0x20\n      dup1\n      swap2\n      div\n      mul\n      0x20\n      add\n      mload(0x40)\n      swap1\n      dup2\n      add\n      0x40\n      mstore\n      dup1\n      swap3\n      swap2\n      swap1\n      dup2\n      dup2\n      mstore\n      0x20\n      add\n      dup3\n      dup1\n      sload\n      0x1\n      dup2\n      0x1\n      and\n      iszero\n      0x100\n      mul\n      sub\n      and\n      0x2\n      swap1\n      div\n      dup1\n      iszero\n      tag_188\n      jumpi\n      dup1\n      0x1f\n      lt\n      tag_189\n      jumpi\n      0x100\n      dup1\n      dup4\n      sload\n      div\n      mul\n      dup4\n      mstore\n      swap2\n      0x20\n      add\n      swap2\n      jump(tag_188)\n    tag_189:\n      dup3\n      add\n      swap2\n      swap1\n      0x0\n      mstore\n      keccak256(0x0, 0x20)\n      swap1\n    tag_190:\n      dup2\n      sload\n      dup2\n      mstore\n      swap1\n      0x1\n      add\n      swap1\n      0x20\n      add\n      dup1\n      dup4\n      gt\n      tag_190\n      jumpi\n      dup3\n      swap1\n      sub\n      0x1f\n      and\n      dup3\n      add\n      swap2\n    tag_188:\n      pop\n      pop\n      pop\n      pop\n      pop\n      swap6\n      pop\n      dup5\n      dup1\n      sload\n      0x1\n      dup2\n      0x1\n      and\n      iszero\n      0x100\n      mul\n      sub\n      and\n      0x2\n      swap1\n      div\n      dup1\n      0x1f\n      add\n      0x20\n      dup1\n      swap2\n      div\n      mul\n      0x20\n      add\n      mload(0x40)\n      swap1\n      dup2\n      add\n      0x40\n      mstore\n      dup1\n      swap3\n      swap2\n      swap1\n      dup2\n      dup2\n      mstore\n      0x20\n      add\n      dup3\n      dup1\n      sload\n      0x1\n      dup2\n      0x1\n      and\n      iszero\n      0x100\n      mul\n      sub\n      and\n      0x2\n      swap1\n      div\n      dup1\n      iszero\n      tag_191\n      jumpi\n      dup1\n      0x1f\n      lt\n      tag_192\n      jumpi\n      0x100\n      dup1\n      dup4\n      sload\n      div\n      mul\n      dup4\n      mstore\n      swap2\n      0x20\n      add\n      swap2\n      jump(tag_191)\n    tag_192:\n      dup3\n      add\n      swap2\n      swap1\n      0x0\n      mstore\n      keccak256(0x0, 0x20)\n      swap1\n    tag_193:\n      dup2\n      sload\n      dup2\n      mstore\n      swap1\n      0x1\n      add\n      swap1\n      0x20\n      add\n      dup1\n      dup4\n      gt\n      tag_193\n      jumpi\n      dup3\n      swap1\n      sub\n      0x1f\n      and\n      dup3\n      add\n      swap2\n    tag_191:\n      pop\n      pop\n      pop\n      pop\n      pop\n      swap5\n      pop\n      dup4\n      dup1\n      sload\n      0x1\n      dup2\n      0x1\n      and\n      iszero\n      0x100\n      mul\n      sub\n      and\n      0x2\n      swap1\n      div\n      dup1\n      0x1f\n      add\n      0x20\n      dup1\n      swap2\n      div\n      mul\n      0x20\n      add\n      mload(0x40)\n      swap1\n      dup2\n      add\n      0x40\n      mstore\n      dup1\n      swap3\n      swap2\n      swap1\n      dup2\n      dup2\n      mstore\n      0x20\n      add\n      dup3\n      dup1\n      sload\n      0x1\n      dup2\n      0x1\n      and\n      iszero\n      0x100\n      mul\n      sub\n      and\n      0x2\n      swap1\n      div\n      dup1\n      iszero\n      tag_194\n      jumpi\n      dup1\n      0x1f\n      lt\n      tag_195\n      jumpi\n      0x100\n      dup1\n      dup4\n      sload\n      div\n      mul\n      dup4\n      mstore\n      swap2\n      0x20\n      add\n      swap2\n      jump(tag_194)\n    tag_195:\n      dup3\n      add\n      swap2\n      swap1\n      0x0\n      mstore\n      keccak256(0x0, 0x20)\n      swap1\n    tag_196:\n      dup2\n      sload\n      dup2\n      mstore\n      swap1\n      0x1\n      add\n      swap1\n      0x20\n      add\n      dup1\n      dup4\n      gt\n      tag_196\n      jumpi\n      dup3\n      swap1\n      sub\n      0x1f\n      and\n      dup3\n      add\n      swap2\n    tag_194:\n      pop\n      pop\n      pop\n      pop\n      pop\n      swap4\n      pop\n      dup3\n      dup1\n      sload\n      0x1\n      dup2\n      0x1\n      and\n      iszero\n      0x100\n      mul\n      sub\n      and\n      0x2\n      swap1\n      div\n      dup1\n      0x1f\n      add\n      0x20\n      dup1\n      swap2\n      div\n      mul\n      0x20\n      add\n      mload(0x40)\n      swap1\n      dup2\n      add\n      0x40\n      mstore\n      dup1\n      swap3\n      swap2\n      swap1\n      dup2\n      dup2\n      mstore\n      0x20\n      add\n      dup3\n      dup1\n      sload\n      0x1\n      dup2\n      0x1\n      and\n      iszero\n      0x100\n      mul\n      sub\n      and\n      0x2\n      swap1\n      div\n      dup1\n      iszero\n      tag_197\n      jumpi\n      dup1\n      0x1f\n      lt\n      tag_198\n      jumpi\n      0x100\n      dup1\n      dup4\n      sload\n      div\n      mul\n      dup4\n      mstore\n      swap2\n      0x20\n      add\n      swap2\n      jump(tag_197)\n    tag_198:\n      dup3\n      add\n      swap2\n      swap1\n      0x0\n      mstore\n      keccak256(0x0, 0x20)\n      swap1\n    tag_199:\n      dup2\n      sload\n      dup2\n      mstore\n      swap1\n      0x1\n      add\n      swap1\n      0x20\n      add\n      dup1\n      dup4\n      gt\n      tag_199\n      jumpi\n      dup3\n      swap1\n      sub\n      0x1f\n      and\n      dup3\n      add\n      swap2\n    tag_197:\n      pop\n      pop\n      pop\n      pop\n      pop\n      swap3\n      pop\n      dup2\n      dup1\n      sload\n      0x1\n      dup2\n      0x1\n      and\n      iszero\n      0x100\n      mul\n      sub\n      and\n      0x2\n      swap1\n      div\n      dup1\n      0x1f\n      add\n      0x20\n      dup1\n      swap2\n      div\n      mul\n      0x20\n      add\n      mload(0x40)\n      swap1\n      dup2\n      add\n      0x40\n      mstore\n      dup1\n      swap3\n      swap2\n      swap1\n      dup2\n      dup2\n      mstore\n      0x20\n      add\n      dup3\n      dup1\n      sload\n      0x1\n      dup2\n      0x1\n      and\n      iszero\n      0x100\n      mul\n      sub\n      and\n      0x2\n      swap1\n      div\n      dup1\n      iszero\n      tag_200\n      jumpi\n      dup1\n      0x1f\n      lt\n      tag_201\n      jumpi\n      0x100\n      dup1\n      dup4\n      sload\n      div\n      mul\n      dup4\n      mstore\n      swap2\n      0x20\n      add\n      swap2\n      jump(tag_200)\n    tag_201:\n      dup3\n      add\n      swap2\n      swap1\n      0x0\n      mstore\n      keccak256(0x0, 0x20)\n      swap1\n    tag_202:\n      dup2\n      sload\n      dup2\n      mstore\n      swap1\n      0x1\n      add\n      swap1\n      0x20\n      add\n      dup1\n      dup4\n      gt\n      tag_202\n      jumpi\n      dup3\n      swap1\n      sub\n      0x1f\n      and\n      dup3\n      add\n      swap2\n    tag_200:\n      pop\n      pop\n      pop\n      pop\n      pop\n      swap2\n      pop\n      swap9\n      pop\n      swap9\n      pop\n      swap9\n      pop\n      swap9\n      pop\n      swap9\n      pop\n      swap9\n      pop\n      swap9\n      pop\n      swap9\n      pop\n        /* \"contracts/ddddd.sol\":7402:7776  function searchUserformation(address _address) public view returns(string, string, string, string, string, string, string, address) {\r... */\n      pop\n      swap2\n      swap4\n      swap6\n      swap8\n      pop\n      swap2\n      swap4\n      swap6\n      swap8\n      jump\t// out\n        /* \"contracts/ddddd.sol\":1633:1661  uint256 public userCount = 0 */\n    tag_51:\n      sload(0xb)\n      dup2\n      jump\t// out\n        /* \"contracts/ddddd.sol\":1095:1122  address[] public doctorList */\n    tag_57:\n      0x2\n      dup2\n      dup2\n      sload\n      dup2\n      lt\n      iszero\n      iszero\n      tag_203\n      jumpi\n      invalid\n    tag_203:\n      swap1\n      0x0\n      mstore\n      keccak256(0x0, 0x20)\n      add\n      0x0\n      swap2\n      pop\n      sload\n      swap1\n      0x100\n      exp\n      swap1\n      div\n      0xffffffffffffffffffffffffffffffffffffffff\n      and\n      dup2\n      jump\t// out\n        /* \"contracts/ddddd.sol\":4578:5103  function editDoctor(address _doctor, string _uaeId, string _name, string _phone, string _gender, string _email, string _qualification, string _major) public {\r... */\n    tag_64:\n        /* \"contracts/ddddd.sol\":4826:4831  var d */\n      0x0\n        /* \"contracts/ddddd.sol\":4768:4777  mohAdress */\n      0x10\n      0x0\n      swap1\n      sload\n      swap1\n      0x100\n      exp\n      swap1\n      div\n      0xffffffffffffffffffffffffffffffffffffffff\n      and\n        /* \"contracts/ddddd.sol\":4754:4777  msg.sender == mohAdress */\n      0xffffffffffffffffffffffffffffffffffffffff\n      and\n        /* \"contracts/ddddd.sol\":4754:4764  msg.sender */\n      caller\n        /* \"contracts/ddddd.sol\":4754:4777  msg.sender == mohAdress */\n      0xffffffffffffffffffffffffffffffffffffffff\n      and\n      eq\n        /* \"contracts/ddddd.sol\":4746:4778  require(msg.sender == mohAdress) */\n      iszero\n      iszero\n      tag_206\n      jumpi\n      0x0\n      dup1\n      revert\n    tag_206:\n        /* \"contracts/ddddd.sol\":4797:4805  isDoctor */\n      0x9\n        /* \"contracts/ddddd.sol\":4797:4814  isDoctor[_doctor] */\n      0x0\n        /* \"contracts/ddddd.sol\":4806:4813  _doctor */\n      dup11\n        /* \"contracts/ddddd.sol\":4797:4814  isDoctor[_doctor] */\n      0xffffffffffffffffffffffffffffffffffffffff\n      and\n      0xffffffffffffffffffffffffffffffffffffffff\n      and\n      dup2\n      mstore\n      0x20\n      add\n      swap1\n      dup2\n      mstore\n      0x20\n      add\n      0x0\n      keccak256\n      0x0\n      swap1\n      sload\n      swap1\n      0x100\n      exp\n      swap1\n      div\n      0xff\n      and\n        /* \"contracts/ddddd.sol\":4789:4815  require(isDoctor[_doctor]) */\n      iszero\n      iszero\n      tag_207\n      jumpi\n      0x0\n      dup1\n      revert\n    tag_207:\n        /* \"contracts/ddddd.sol\":4834:4840  doctor */\n      0x5\n        /* \"contracts/ddddd.sol\":4834:4849  doctor[_doctor] */\n      0x0\n        /* \"contracts/ddddd.sol\":4841:4848  _doctor */\n      dup11\n        /* \"contracts/ddddd.sol\":4834:4849  doctor[_doctor] */\n      0xffffffffffffffffffffffffffffffffffffffff\n      and\n      0xffffffffffffffffffffffffffffffffffffffff\n      and\n      dup2\n      mstore\n      0x20\n      add\n      swap1\n      dup2\n      mstore\n      0x20\n      add\n      0x0\n      keccak256\n        /* \"contracts/ddddd.sol\":4826:4849  var d = doctor[_doctor] */\n      swap1\n      pop\n        /* \"contracts/ddddd.sol\":4880:4886  _uaeId */\n      dup8\n        /* \"contracts/ddddd.sol\":4870:4871  d */\n      dup2\n        /* \"contracts/ddddd.sol\":4870:4877  d.uaeId */\n      0x0\n      add\n        /* \"contracts/ddddd.sol\":4870:4886  d.uaeId = _uaeId */\n      swap1\n      dup1\n      mload\n      swap1\n      0x20\n      add\n      swap1\n      tag_208\n      swap3\n      swap2\n      swap1\n      jump\t// in(tag_209)\n    tag_208:\n      pop\n        /* \"contracts/ddddd.sol\":4906:4911  _name */\n      dup7\n        /* \"contracts/ddddd.sol\":4897:4898  d */\n      dup2\n        /* \"contracts/ddddd.sol\":4897:4903  d.name */\n      0x1\n      add\n        /* \"contracts/ddddd.sol\":4897:4911  d.name = _name */\n      swap1\n      dup1\n      mload\n      swap1\n      0x20\n      add\n      swap1\n      tag_210\n      swap3\n      swap2\n      swap1\n      jump\t// in(tag_209)\n    tag_210:\n      pop\n        /* \"contracts/ddddd.sol\":4932:4938  _phone */\n      dup6\n        /* \"contracts/ddddd.sol\":4922:4923  d */\n      dup2\n        /* \"contracts/ddddd.sol\":4922:4929  d.phone */\n      0x2\n      add\n        /* \"contracts/ddddd.sol\":4922:4938  d.phone = _phone */\n      swap1\n      dup1\n      mload\n      swap1\n      0x20\n      add\n      swap1\n      tag_211\n      swap3\n      swap2\n      swap1\n      jump\t// in(tag_209)\n    tag_211:\n      pop\n        /* \"contracts/ddddd.sol\":4960:4967  _gender */\n      dup5\n        /* \"contracts/ddddd.sol\":4949:4950  d */\n      dup2\n        /* \"contracts/ddddd.sol\":4949:4957  d.gender */\n      0x3\n      add\n        /* \"contracts/ddddd.sol\":4949:4967  d.gender = _gender */\n      swap1\n      dup1\n      mload\n      swap1\n      0x20\n      add\n      swap1\n      tag_212\n      swap3\n      swap2\n      swap1\n      jump\t// in(tag_209)\n    tag_212:\n      pop\n        /* \"contracts/ddddd.sol\":4988:4994  _email */\n      dup4\n        /* \"contracts/ddddd.sol\":4978:4979  d */\n      dup2\n        /* \"contracts/ddddd.sol\":4978:4985  d.email */\n      0x5\n      add\n        /* \"contracts/ddddd.sol\":4978:4994  d.email = _email */\n      swap1\n      dup1\n      mload\n      swap1\n      0x20\n      add\n      swap1\n      tag_213\n      swap3\n      swap2\n      swap1\n      jump\t// in(tag_209)\n    tag_213:\n      pop\n        /* \"contracts/ddddd.sol\":5023:5037  _qualification */\n      dup3\n        /* \"contracts/ddddd.sol\":5005:5006  d */\n      dup2\n        /* \"contracts/ddddd.sol\":5005:5020  d.qualification */\n      0x6\n      add\n        /* \"contracts/ddddd.sol\":5005:5037  d.qualification = _qualification */\n      swap1\n      dup1\n      mload\n      swap1\n      0x20\n      add\n      swap1\n      tag_214\n      swap3\n      swap2\n      swap1\n      jump\t// in(tag_209)\n    tag_214:\n      pop\n        /* \"contracts/ddddd.sol\":5058:5064  _major */\n      dup2\n        /* \"contracts/ddddd.sol\":5048:5049  d */\n      dup2\n        /* \"contracts/ddddd.sol\":5048:5055  d.major */\n      0x7\n      add\n        /* \"contracts/ddddd.sol\":5048:5064  d.major = _major */\n      swap1\n      dup1\n      mload\n      swap1\n      0x20\n      add\n      swap1\n      tag_215\n      swap3\n      swap2\n      swap1\n      jump\t// in(tag_209)\n    tag_215:\n      pop\n        /* \"contracts/ddddd.sol\":5088:5095  _doctor */\n      dup9\n        /* \"contracts/ddddd.sol\":5075:5076  d */\n      dup2\n        /* \"contracts/ddddd.sol\":5075:5085  d.eAddress */\n      0x8\n      add\n      0x0\n        /* \"contracts/ddddd.sol\":5075:5095  d.eAddress = _doctor */\n      0x100\n      exp\n      dup2\n      sload\n      dup2\n      0xffffffffffffffffffffffffffffffffffffffff\n      mul\n      not\n      and\n      swap1\n      dup4\n      0xffffffffffffffffffffffffffffffffffffffff\n      and\n      mul\n      or\n      swap1\n      sstore\n      pop\n        /* \"contracts/ddddd.sol\":4578:5103  function editDoctor(address _doctor, string _uaeId, string _name, string _phone, string _gender, string _email, string _qualification, string _major) public {\r... */\n      pop\n      pop\n      pop\n      pop\n      pop\n      pop\n      pop\n      pop\n      pop\n      jump\t// out\n        /* \"contracts/ddddd.sol\":3803:4570  function doctorRegistration(address _doctor, string _uaeId, string _name, string _phone, string _gender, string _email, string _qualification, string _major) public {\r... */\n    tag_68:\n        /* \"contracts/ddddd.sol\":4060:4065  var d */\n      0x0\n        /* \"contracts/ddddd.sol\":4001:4010  mohAdress */\n      0x10\n      0x0\n      swap1\n      sload\n      swap1\n      0x100\n      exp\n      swap1\n      div\n      0xffffffffffffffffffffffffffffffffffffffff\n      and\n        /* \"contracts/ddddd.sol\":3987:4010  msg.sender == mohAdress */\n      0xffffffffffffffffffffffffffffffffffffffff\n      and\n        /* \"contracts/ddddd.sol\":3987:3997  msg.sender */\n      caller\n        /* \"contracts/ddddd.sol\":3987:4010  msg.sender == mohAdress */\n      0xffffffffffffffffffffffffffffffffffffffff\n      and\n      eq\n        /* \"contracts/ddddd.sol\":3979:4011  require(msg.sender == mohAdress) */\n      iszero\n      iszero\n      tag_217\n      jumpi\n      0x0\n      dup1\n      revert\n    tag_217:\n        /* \"contracts/ddddd.sol\":4031:4039  isDoctor */\n      0x9\n        /* \"contracts/ddddd.sol\":4031:4048  isDoctor[_doctor] */\n      0x0\n        /* \"contracts/ddddd.sol\":4040:4047  _doctor */\n      dup11\n        /* \"contracts/ddddd.sol\":4031:4048  isDoctor[_doctor] */\n      0xffffffffffffffffffffffffffffffffffffffff\n      and\n      0xffffffffffffffffffffffffffffffffffffffff\n      and\n      dup2\n      mstore\n      0x20\n      add\n      swap1\n      dup2\n      mstore\n      0x20\n      add\n      0x0\n      keccak256\n      0x0\n      swap1\n      sload\n      swap1\n      0x100\n      exp\n      swap1\n      div\n      0xff\n      and\n        /* \"contracts/ddddd.sol\":4030:4048  !isDoctor[_doctor] */\n      iszero\n        /* \"contracts/ddddd.sol\":4022:4049  require(!isDoctor[_doctor]) */\n      iszero\n      iszero\n      tag_218\n      jumpi\n      0x0\n      dup1\n      revert\n    tag_218:\n        /* \"contracts/ddddd.sol\":4068:4074  doctor */\n      0x5\n        /* \"contracts/ddddd.sol\":4068:4083  doctor[_doctor] */\n      0x0\n        /* \"contracts/ddddd.sol\":4075:4082  _doctor */\n      dup11\n        /* \"contracts/ddddd.sol\":4068:4083  doctor[_doctor] */\n      0xffffffffffffffffffffffffffffffffffffffff\n      and\n      0xffffffffffffffffffffffffffffffffffffffff\n      and\n      dup2\n      mstore\n      0x20\n      add\n      swap1\n      dup2\n      mstore\n      0x20\n      add\n      0x0\n      keccak256\n        /* \"contracts/ddddd.sol\":4060:4083  var d = doctor[_doctor] */\n      swap1\n      pop\n        /* \"contracts/ddddd.sol\":4114:4120  _uaeId */\n      dup8\n        /* \"contracts/ddddd.sol\":4104:4105  d */\n      dup2\n        /* \"contracts/ddddd.sol\":4104:4111  d.uaeId */\n      0x0\n      add\n        /* \"contracts/ddddd.sol\":4104:4120  d.uaeId = _uaeId */\n      swap1\n      dup1\n      mload\n      swap1\n      0x20\n      add\n      swap1\n      tag_219\n      swap3\n      swap2\n      swap1\n      jump\t// in(tag_209)\n    tag_219:\n      pop\n        /* \"contracts/ddddd.sol\":4140:4145  _name */\n      dup7\n        /* \"contracts/ddddd.sol\":4131:4132  d */\n      dup2\n        /* \"contracts/ddddd.sol\":4131:4137  d.name */\n      0x1\n      add\n        /* \"contracts/ddddd.sol\":4131:4145  d.name = _name */\n      swap1\n      dup1\n      mload\n      swap1\n      0x20\n      add\n      swap1\n      tag_220\n      swap3\n      swap2\n      swap1\n      jump\t// in(tag_209)\n    tag_220:\n      pop\n        /* \"contracts/ddddd.sol\":4166:4172  _phone */\n      dup6\n        /* \"contracts/ddddd.sol\":4156:4157  d */\n      dup2\n        /* \"contracts/ddddd.sol\":4156:4163  d.phone */\n      0x2\n      add\n        /* \"contracts/ddddd.sol\":4156:4172  d.phone = _phone */\n      swap1\n      dup1\n      mload\n      swap1\n      0x20\n      add\n      swap1\n      tag_221\n      swap3\n      swap2\n      swap1\n      jump\t// in(tag_209)\n    tag_221:\n      pop\n        /* \"contracts/ddddd.sol\":4194:4201  _gender */\n      dup5\n        /* \"contracts/ddddd.sol\":4183:4184  d */\n      dup2\n        /* \"contracts/ddddd.sol\":4183:4191  d.gender */\n      0x3\n      add\n        /* \"contracts/ddddd.sol\":4183:4201  d.gender = _gender */\n      swap1\n      dup1\n      mload\n      swap1\n      0x20\n      add\n      swap1\n      tag_222\n      swap3\n      swap2\n      swap1\n      jump\t// in(tag_209)\n    tag_222:\n      pop\n        /* \"contracts/ddddd.sol\":4222:4228  _email */\n      dup4\n        /* \"contracts/ddddd.sol\":4212:4213  d */\n      dup2\n        /* \"contracts/ddddd.sol\":4212:4219  d.email */\n      0x5\n      add\n        /* \"contracts/ddddd.sol\":4212:4228  d.email = _email */\n      swap1\n      dup1\n      mload\n      swap1\n      0x20\n      add\n      swap1\n      tag_223\n      swap3\n      swap2\n      swap1\n      jump\t// in(tag_209)\n    tag_223:\n      pop\n        /* \"contracts/ddddd.sol\":4257:4271  _qualification */\n      dup3\n        /* \"contracts/ddddd.sol\":4239:4240  d */\n      dup2\n        /* \"contracts/ddddd.sol\":4239:4254  d.qualification */\n      0x6\n      add\n        /* \"contracts/ddddd.sol\":4239:4271  d.qualification = _qualification */\n      swap1\n      dup1\n      mload\n      swap1\n      0x20\n      add\n      swap1\n      tag_224\n      swap3\n      swap2\n      swap1\n      jump\t// in(tag_209)\n    tag_224:\n      pop\n        /* \"contracts/ddddd.sol\":4292:4298  _major */\n      dup2\n        /* \"contracts/ddddd.sol\":4282:4283  d */\n      dup2\n        /* \"contracts/ddddd.sol\":4282:4289  d.major */\n      0x7\n      add\n        /* \"contracts/ddddd.sol\":4282:4298  d.major = _major */\n      swap1\n      dup1\n      mload\n      swap1\n      0x20\n      add\n      swap1\n      tag_225\n      swap3\n      swap2\n      swap1\n      jump\t// in(tag_209)\n    tag_225:\n      pop\n        /* \"contracts/ddddd.sol\":4322:4329  _doctor */\n      dup9\n        /* \"contracts/ddddd.sol\":4309:4310  d */\n      dup2\n        /* \"contracts/ddddd.sol\":4309:4319  d.eAddress */\n      0x8\n      add\n      0x0\n        /* \"contracts/ddddd.sol\":4309:4329  d.eAddress = _doctor */\n      0x100\n      exp\n      dup2\n      sload\n      dup2\n      0xffffffffffffffffffffffffffffffffffffffff\n      mul\n      not\n      and\n      swap1\n      dup4\n      0xffffffffffffffffffffffffffffffffffffffff\n      and\n      mul\n      or\n      swap1\n      sstore\n      pop\n        /* \"contracts/ddddd.sol\":4349:4364  block.timestamp */\n      timestamp\n        /* \"contracts/ddddd.sol\":4340:4341  d */\n      dup2\n        /* \"contracts/ddddd.sol\":4340:4346  d.date */\n      0x9\n      add\n        /* \"contracts/ddddd.sol\":4340:4364  d.date = block.timestamp */\n      dup2\n      swap1\n      sstore\n      pop\n        /* \"contracts/ddddd.sol\":4385:4395  doctorList */\n      0x2\n        /* \"contracts/ddddd.sol\":4401:4408  _doctor */\n      dup10\n        /* \"contracts/ddddd.sol\":4385:4409  doctorList.push(_doctor) */\n      swap1\n      dup1\n        /* \"--CODEGEN--\":39:40   */\n      0x1\n        /* \"--CODEGEN--\":33:36   */\n      dup2\n        /* \"--CODEGEN--\":27:37   */\n      sload\n        /* \"--CODEGEN--\":23:41   */\n      add\n        /* \"--CODEGEN--\":57:67   */\n      dup1\n        /* \"--CODEGEN--\":52:55   */\n      dup3\n        /* \"--CODEGEN--\":45:68   */\n      sstore\n        /* \"--CODEGEN--\":79:89   */\n      dup1\n        /* \"--CODEGEN--\":72:89   */\n      swap2\n      pop\n        /* \"--CODEGEN--\":0:93   */\n      pop\n        /* \"contracts/ddddd.sol\":4385:4409  doctorList.push(_doctor) */\n      swap1\n      0x1\n      dup3\n      sub\n      swap1\n      0x0\n      mstore\n      keccak256(0x0, 0x20)\n      add\n      0x0\n      swap1\n      swap2\n      swap3\n      swap1\n      swap2\n      swap1\n      swap2\n      0x100\n      exp\n      dup2\n      sload\n      dup2\n      0xffffffffffffffffffffffffffffffffffffffff\n      mul\n      not\n      and\n      swap1\n      dup4\n      0xffffffffffffffffffffffffffffffffffffffff\n      and\n      mul\n      or\n      swap1\n      sstore\n      pop\n      pop\n        /* \"contracts/ddddd.sol\":4440:4444  true */\n      0x1\n        /* \"contracts/ddddd.sol\":4420:4428  isDoctor */\n      0x9\n        /* \"contracts/ddddd.sol\":4420:4437  isDoctor[_doctor] */\n      0x0\n        /* \"contracts/ddddd.sol\":4429:4436  _doctor */\n      dup12\n        /* \"contracts/ddddd.sol\":4420:4437  isDoctor[_doctor] */\n      0xffffffffffffffffffffffffffffffffffffffff\n      and\n      0xffffffffffffffffffffffffffffffffffffffff\n      and\n      dup2\n      mstore\n      0x20\n      add\n      swap1\n      dup2\n      mstore\n      0x20\n      add\n      0x0\n      keccak256\n      0x0\n        /* \"contracts/ddddd.sol\":4420:4444  isDoctor[_doctor] = true */\n      0x100\n      exp\n      dup2\n      sload\n      dup2\n      0xff\n      mul\n      not\n      and\n      swap1\n      dup4\n      iszero\n      iszero\n      mul\n      or\n      swap1\n      sstore\n      pop\n        /* \"contracts/ddddd.sol\":4486:4490  true */\n      0x1\n        /* \"contracts/ddddd.sol\":4455:4465  isApproved */\n      0x7\n        /* \"contracts/ddddd.sol\":4455:4474  isApproved[_doctor] */\n      0x0\n        /* \"contracts/ddddd.sol\":4466:4473  _doctor */\n      dup12\n        /* \"contracts/ddddd.sol\":4455:4474  isApproved[_doctor] */\n      0xffffffffffffffffffffffffffffffffffffffff\n      and\n      0xffffffffffffffffffffffffffffffffffffffff\n      and\n      dup2\n      mstore\n      0x20\n      add\n      swap1\n      dup2\n      mstore\n      0x20\n      add\n      0x0\n      keccak256\n        /* \"contracts/ddddd.sol\":4455:4483  isApproved[_doctor][_doctor] */\n      0x0\n        /* \"contracts/ddddd.sol\":4475:4482  _doctor */\n      dup12\n        /* \"contracts/ddddd.sol\":4455:4483  isApproved[_doctor][_doctor] */\n      0xffffffffffffffffffffffffffffffffffffffff\n      and\n      0xffffffffffffffffffffffffffffffffffffffff\n      and\n      dup2\n      mstore\n      0x20\n      add\n      swap1\n      dup2\n      mstore\n      0x20\n      add\n      0x0\n      keccak256\n      0x0\n        /* \"contracts/ddddd.sol\":4455:4490  isApproved[_doctor][_doctor] = true */\n      0x100\n      exp\n      dup2\n      sload\n      dup2\n      0xff\n      mul\n      not\n      and\n      swap1\n      dup4\n      iszero\n      iszero\n      mul\n      or\n      swap1\n      sstore\n      pop\n        /* \"contracts/ddddd.sol\":4534:4538  true */\n      0x1\n        /* \"contracts/ddddd.sol\":4501:4511  isApproved */\n      0x7\n        /* \"contracts/ddddd.sol\":4501:4520  isApproved[_doctor] */\n      0x0\n        /* \"contracts/ddddd.sol\":4512:4519  _doctor */\n      dup12\n        /* \"contracts/ddddd.sol\":4501:4520  isApproved[_doctor] */\n      0xffffffffffffffffffffffffffffffffffffffff\n      and\n      0xffffffffffffffffffffffffffffffffffffffff\n      and\n      dup2\n      mstore\n      0x20\n      add\n      swap1\n      dup2\n      mstore\n      0x20\n      add\n      0x0\n      keccak256\n        /* \"contracts/ddddd.sol\":4501:4531  isApproved[_doctor][mohAdress] */\n      0x0\n        /* \"contracts/ddddd.sol\":4521:4530  mohAdress */\n      0x10\n      0x0\n      swap1\n      sload\n      swap1\n      0x100\n      exp\n      swap1\n      div\n      0xffffffffffffffffffffffffffffffffffffffff\n      and\n        /* \"contracts/ddddd.sol\":4501:4531  isApproved[_doctor][mohAdress] */\n      0xffffffffffffffffffffffffffffffffffffffff\n      and\n      0xffffffffffffffffffffffffffffffffffffffff\n      and\n      dup2\n      mstore\n      0x20\n      add\n      swap1\n      dup2\n      mstore\n      0x20\n      add\n      0x0\n      keccak256\n      0x0\n        /* \"contracts/ddddd.sol\":4501:4538  isApproved[_doctor][mohAdress] = true */\n      0x100\n      exp\n      dup2\n      sload\n      dup2\n      0xff\n      mul\n      not\n      and\n      swap1\n      dup4\n      iszero\n      iszero\n      mul\n      or\n      swap1\n      sstore\n      pop\n        /* \"contracts/ddddd.sol\":4549:4560  doctorCount */\n      0xc\n      0x0\n        /* \"contracts/ddddd.sol\":4549:4562  doctorCount++ */\n      dup2\n      sload\n      dup1\n      swap3\n      swap2\n      swap1\n      0x1\n      add\n      swap2\n      swap1\n      pop\n      sstore\n      pop\n        /* \"contracts/ddddd.sol\":3803:4570  function doctorRegistration(address _doctor, string _uaeId, string _name, string _phone, string _gender, string _email, string _qualification, string _major) public {\r... */\n      pop\n      pop\n      pop\n      pop\n      pop\n      pop\n      pop\n      pop\n      pop\n      jump\t// out\n        /* \"contracts/ddddd.sol\":6349:6540  function givePermissionByUser(address _address) public returns(bool success) {\r... */\n    tag_72:\n        /* \"contracts/ddddd.sol\":6412:6424  bool success */\n      0x0\n        /* \"contracts/ddddd.sol\":6472:6476  true */\n      0x1\n        /* \"contracts/ddddd.sol\":6437:6447  isApproved */\n      0x7\n        /* \"contracts/ddddd.sol\":6437:6459  isApproved[msg.sender] */\n      0x0\n        /* \"contracts/ddddd.sol\":6448:6458  msg.sender */\n      caller\n        /* \"contracts/ddddd.sol\":6437:6459  isApproved[msg.sender] */\n      0xffffffffffffffffffffffffffffffffffffffff\n      and\n      0xffffffffffffffffffffffffffffffffffffffff\n      and\n      dup2\n      mstore\n      0x20\n      add\n      swap1\n      dup2\n      mstore\n      0x20\n      add\n      0x0\n      keccak256\n        /* \"contracts/ddddd.sol\":6437:6469  isApproved[msg.sender][_address] */\n      0x0\n        /* \"contracts/ddddd.sol\":6460:6468  _address */\n      dup5\n        /* \"contracts/ddddd.sol\":6437:6469  isApproved[msg.sender][_address] */\n      0xffffffffffffffffffffffffffffffffffffffff\n      and\n      0xffffffffffffffffffffffffffffffffffffffff\n      and\n      dup2\n      mstore\n      0x20\n      add\n      swap1\n      dup2\n      mstore\n      0x20\n      add\n      0x0\n      keccak256\n      0x0\n        /* \"contracts/ddddd.sol\":6437:6476  isApproved[msg.sender][_address] = true */\n      0x100\n      exp\n      dup2\n      sload\n      dup2\n      0xff\n      mul\n      not\n      and\n      swap1\n      dup4\n      iszero\n      iszero\n      mul\n      or\n      swap1\n      sstore\n      pop\n        /* \"contracts/ddddd.sol\":6487:6508  userPermissionCounter */\n      0xe\n      0x0\n        /* \"contracts/ddddd.sol\":6487:6510  userPermissionCounter++ */\n      dup2\n      sload\n      dup1\n      swap3\n      swap2\n      swap1\n      0x1\n      add\n      swap2\n      swap1\n      pop\n      sstore\n      pop\n        /* \"contracts/ddddd.sol\":6528:6532  true */\n      0x1\n        /* \"contracts/ddddd.sol\":6521:6532  return true */\n      swap1\n      pop\n        /* \"contracts/ddddd.sol\":6349:6540  function givePermissionByUser(address _address) public returns(bool success) {\r... */\n      swap2\n      swap1\n      pop\n      jump\t// out\n        /* \"contracts/ddddd.sol\":5111:6003  function createVaccineRecord(address _address1, address _doctor, string _name, string _vaccine, string _description, string _typeOfVaccine, uint _creationDate) public returns(bool success) {\r... */\n    tag_79:\n        /* \"contracts/ddddd.sol\":5286:5298  bool success */\n      0x0\n        /* \"contracts/ddddd.sol\":5515:5520  var v */\n      dup1\n        /* \"contracts/ddddd.sol\":5333:5342  mohAdress */\n      0x10\n      0x0\n      swap1\n      sload\n      swap1\n      0x100\n      exp\n      swap1\n      div\n      0xffffffffffffffffffffffffffffffffffffffff\n      and\n        /* \"contracts/ddddd.sol\":5319:5342  msg.sender == mohAdress */\n      0xffffffffffffffffffffffffffffffffffffffff\n      and\n        /* \"contracts/ddddd.sol\":5319:5329  msg.sender */\n      caller\n        /* \"contracts/ddddd.sol\":5319:5342  msg.sender == mohAdress */\n      0xffffffffffffffffffffffffffffffffffffffff\n      and\n      eq\n        /* \"contracts/ddddd.sol\":5311:5343  require(msg.sender == mohAdress) */\n      iszero\n      iszero\n      tag_229\n      jumpi\n      0x0\n      dup1\n      revert\n    tag_229:\n        /* \"contracts/ddddd.sol\":5483:5492  isVaccine */\n      0xa\n        /* \"contracts/ddddd.sol\":5483:5503  isVaccine[_address1] */\n      0x0\n        /* \"contracts/ddddd.sol\":5493:5502  _address1 */\n      dup11\n        /* \"contracts/ddddd.sol\":5483:5503  isVaccine[_address1] */\n      0xffffffffffffffffffffffffffffffffffffffff\n      and\n      0xffffffffffffffffffffffffffffffffffffffff\n      and\n      dup2\n      mstore\n      0x20\n      add\n      swap1\n      dup2\n      mstore\n      0x20\n      add\n      0x0\n      keccak256\n      0x0\n      swap1\n      sload\n      swap1\n      0x100\n      exp\n      swap1\n      div\n      0xff\n      and\n        /* \"contracts/ddddd.sol\":5482:5503  !isVaccine[_address1] */\n      iszero\n        /* \"contracts/ddddd.sol\":5474:5504  require(!isVaccine[_address1]) */\n      iszero\n      iszero\n      tag_230\n      jumpi\n      0x0\n      dup1\n      revert\n    tag_230:\n        /* \"contracts/ddddd.sol\":5523:5534  vaccination */\n      0x6\n        /* \"contracts/ddddd.sol\":5523:5545  vaccination[_address1] */\n      0x0\n        /* \"contracts/ddddd.sol\":5535:5544  _address1 */\n      dup11\n        /* \"contracts/ddddd.sol\":5523:5545  vaccination[_address1] */\n      0xffffffffffffffffffffffffffffffffffffffff\n      and\n      0xffffffffffffffffffffffffffffffffffffffff\n      and\n      dup2\n      mstore\n      0x20\n      add\n      swap1\n      dup2\n      mstore\n      0x20\n      add\n      0x0\n      keccak256\n        /* \"contracts/ddddd.sol\":5515:5545  var v = vaccination[_address1] */\n      swap1\n      pop\n        /* \"contracts/ddddd.sol\":5567:5572  _name */\n      dup7\n        /* \"contracts/ddddd.sol\":5558:5559  v */\n      dup2\n        /* \"contracts/ddddd.sol\":5558:5564  v.name */\n      0x0\n      add\n        /* \"contracts/ddddd.sol\":5558:5572  v.name = _name */\n      swap1\n      dup1\n      mload\n      swap1\n      0x20\n      add\n      swap1\n      tag_231\n      swap3\n      swap2\n      swap1\n      jump\t// in(tag_209)\n    tag_231:\n      pop\n        /* \"contracts/ddddd.sol\":5595:5603  _vaccine */\n      dup6\n        /* \"contracts/ddddd.sol\":5583:5584  v */\n      dup2\n        /* \"contracts/ddddd.sol\":5583:5592  v.vaccine */\n      0x1\n      add\n        /* \"contracts/ddddd.sol\":5583:5603  v.vaccine = _vaccine */\n      swap1\n      dup1\n      mload\n      swap1\n      0x20\n      add\n      swap1\n      tag_232\n      swap3\n      swap2\n      swap1\n      jump\t// in(tag_209)\n    tag_232:\n      pop\n        /* \"contracts/ddddd.sol\":5630:5642  _description */\n      dup5\n        /* \"contracts/ddddd.sol\":5614:5615  v */\n      dup2\n        /* \"contracts/ddddd.sol\":5614:5627  v.description */\n      0x2\n      add\n        /* \"contracts/ddddd.sol\":5614:5642  v.description = _description */\n      swap1\n      dup1\n      mload\n      swap1\n      0x20\n      add\n      swap1\n      tag_233\n      swap3\n      swap2\n      swap1\n      jump\t// in(tag_209)\n    tag_233:\n      pop\n        /* \"contracts/ddddd.sol\":5671:5685  _typeOfVaccine */\n      dup4\n        /* \"contracts/ddddd.sol\":5653:5654  v */\n      dup2\n        /* \"contracts/ddddd.sol\":5653:5668  v.typeOfVaccine */\n      0x3\n      add\n        /* \"contracts/ddddd.sol\":5653:5685  v.typeOfVaccine = _typeOfVaccine */\n      swap1\n      dup1\n      mload\n      swap1\n      0x20\n      add\n      swap1\n      tag_234\n      swap3\n      swap2\n      swap1\n      jump\t// in(tag_209)\n    tag_234:\n      pop\n        /* \"contracts/ddddd.sol\":5826:5839  _creationDate */\n      dup3\n        /* \"contracts/ddddd.sol\":5809:5810  v */\n      dup2\n        /* \"contracts/ddddd.sol\":5809:5823  v.creationDate */\n      0x4\n      add\n        /* \"contracts/ddddd.sol\":5809:5839  v.creationDate = _creationDate */\n      dup2\n      swap1\n      sstore\n      pop\n        /* \"contracts/ddddd.sol\":5867:5876  _address1 */\n      dup9\n        /* \"contracts/ddddd.sol\":5850:5851  v */\n      dup2\n        /* \"contracts/ddddd.sol\":5850:5864  v.userEadderss */\n      0x5\n      add\n      0x0\n        /* \"contracts/ddddd.sol\":5850:5876  v.userEadderss = _address1 */\n      0x100\n      exp\n      dup2\n      sload\n      dup2\n      0xffffffffffffffffffffffffffffffffffffffff\n      mul\n      not\n      and\n      swap1\n      dup4\n      0xffffffffffffffffffffffffffffffffffffffff\n      and\n      mul\n      or\n      swap1\n      sstore\n      pop\n        /* \"contracts/ddddd.sol\":5906:5913  _doctor */\n      dup8\n        /* \"contracts/ddddd.sol\":5887:5888  v */\n      dup2\n        /* \"contracts/ddddd.sol\":5887:5903  v.doctorEaddress */\n      0x6\n      add\n      0x0\n        /* \"contracts/ddddd.sol\":5887:5913  v.doctorEaddress = _doctor */\n      0x100\n      exp\n      dup2\n      sload\n      dup2\n      0xffffffffffffffffffffffffffffffffffffffff\n      mul\n      not\n      and\n      swap1\n      dup4\n      0xffffffffffffffffffffffffffffffffffffffff\n      and\n      mul\n      or\n      swap1\n      sstore\n      pop\n        /* \"contracts/ddddd.sol\":5926:5941  vaccinationList */\n      0x3\n        /* \"contracts/ddddd.sol\":5947:5956  _address1 */\n      dup10\n        /* \"contracts/ddddd.sol\":5926:5957  vaccinationList.push(_address1) */\n      swap1\n      dup1\n        /* \"--CODEGEN--\":39:40   */\n      0x1\n        /* \"--CODEGEN--\":33:36   */\n      dup2\n        /* \"--CODEGEN--\":27:37   */\n      sload\n        /* \"--CODEGEN--\":23:41   */\n      add\n        /* \"--CODEGEN--\":57:67   */\n      dup1\n        /* \"--CODEGEN--\":52:55   */\n      dup3\n        /* \"--CODEGEN--\":45:68   */\n      sstore\n        /* \"--CODEGEN--\":79:89   */\n      dup1\n        /* \"--CODEGEN--\":72:89   */\n      swap2\n      pop\n        /* \"--CODEGEN--\":0:93   */\n      pop\n        /* \"contracts/ddddd.sol\":5926:5957  vaccinationList.push(_address1) */\n      swap1\n      0x1\n      dup3\n      sub\n      swap1\n      0x0\n      mstore\n      keccak256(0x0, 0x20)\n      add\n      0x0\n      swap1\n      swap2\n      swap3\n      swap1\n      swap2\n      swap1\n      swap2\n      0x100\n      exp\n      dup2\n      sload\n      dup2\n      0xffffffffffffffffffffffffffffffffffffffff\n      mul\n      not\n      and\n      swap1\n      dup4\n      0xffffffffffffffffffffffffffffffffffffffff\n      and\n      mul\n      or\n      swap1\n      sstore\n      pop\n      pop\n        /* \"contracts/ddddd.sol\":5968:5993  vaccinationRecordsCounter */\n      0xf\n      0x0\n        /* \"contracts/ddddd.sol\":5968:5995  vaccinationRecordsCounter++ */\n      dup2\n      sload\n      dup1\n      swap3\n      swap2\n      swap1\n      0x1\n      add\n      swap2\n      swap1\n      pop\n      sstore\n      pop\n        /* \"contracts/ddddd.sol\":5111:6003  function createVaccineRecord(address _address1, address _doctor, string _name, string _vaccine, string _description, string _typeOfVaccine, uint _creationDate) public returns(bool success) {\r... */\n      pop\n      swap8\n      swap7\n      pop\n      pop\n      pop\n      pop\n      pop\n      pop\n      pop\n      jump\t// out\n        /* \"contracts/ddddd.sol\":6810:6968  function userRevokePermission(address _address) public returns(bool success) {\r... */\n    tag_84:\n        /* \"contracts/ddddd.sol\":6873:6885  bool success */\n      0x0\n        /* \"contracts/ddddd.sol\":6933:6938  false */\n      dup1\n        /* \"contracts/ddddd.sol\":6898:6908  isApproved */\n      0x7\n        /* \"contracts/ddddd.sol\":6898:6920  isApproved[msg.sender] */\n      0x0\n        /* \"contracts/ddddd.sol\":6909:6919  msg.sender */\n      caller\n        /* \"contracts/ddddd.sol\":6898:6920  isApproved[msg.sender] */\n      0xffffffffffffffffffffffffffffffffffffffff\n      and\n      0xffffffffffffffffffffffffffffffffffffffff\n      and\n      dup2\n      mstore\n      0x20\n      add\n      swap1\n      dup2\n      mstore\n      0x20\n      add\n      0x0\n      keccak256\n        /* \"contracts/ddddd.sol\":6898:6930  isApproved[msg.sender][_address] */\n      0x0\n        /* \"contracts/ddddd.sol\":6921:6929  _address */\n      dup5\n        /* \"contracts/ddddd.sol\":6898:6930  isApproved[msg.sender][_address] */\n      0xffffffffffffffffffffffffffffffffffffffff\n      and\n      0xffffffffffffffffffffffffffffffffffffffff\n      and\n      dup2\n      mstore\n      0x20\n      add\n      swap1\n      dup2\n      mstore\n      0x20\n      add\n      0x0\n      keccak256\n      0x0\n        /* \"contracts/ddddd.sol\":6898:6938  isApproved[msg.sender][_address] = false */\n      0x100\n      exp\n      dup2\n      sload\n      dup2\n      0xff\n      mul\n      not\n      and\n      swap1\n      dup4\n      iszero\n      iszero\n      mul\n      or\n      swap1\n      sstore\n      pop\n        /* \"contracts/ddddd.sol\":6956:6960  true */\n      0x1\n        /* \"contracts/ddddd.sol\":6949:6960  return true */\n      swap1\n      pop\n        /* \"contracts/ddddd.sol\":6810:6968  function userRevokePermission(address _address) public returns(bool success) {\r... */\n      swap2\n      swap1\n      pop\n      jump\t// out\n        /* \"contracts/ddddd.sol\":2053:3162  function userRegistration(address _user, string _uaeId, string _name, string _phone, string _gender, string _dob, string _addr, string _email, string _nomineeName, string _nomineeContact) public {\r... */\n    tag_90:\n        /* \"contracts/ddddd.sol\":2336:2341  var u */\n      0x0\n        /* \"contracts/ddddd.sol\":2281:2290  mohAdress */\n      0x10\n      0x0\n      swap1\n      sload\n      swap1\n      0x100\n      exp\n      swap1\n      div\n      0xffffffffffffffffffffffffffffffffffffffff\n      and\n        /* \"contracts/ddddd.sol\":2267:2290  msg.sender == mohAdress */\n      0xffffffffffffffffffffffffffffffffffffffff\n      and\n        /* \"contracts/ddddd.sol\":2267:2277  msg.sender */\n      caller\n        /* \"contracts/ddddd.sol\":2267:2290  msg.sender == mohAdress */\n      0xffffffffffffffffffffffffffffffffffffffff\n      and\n      eq\n        /* \"contracts/ddddd.sol\":2259:2291  require(msg.sender == mohAdress) */\n      iszero\n      iszero\n      tag_238\n      jumpi\n      0x0\n      dup1\n      revert\n    tag_238:\n        /* \"contracts/ddddd.sol\":2311:2317  isUser */\n      0x8\n        /* \"contracts/ddddd.sol\":2311:2324  isUser[_user] */\n      0x0\n        /* \"contracts/ddddd.sol\":2318:2323  _user */\n      dup13\n        /* \"contracts/ddddd.sol\":2311:2324  isUser[_user] */\n      0xffffffffffffffffffffffffffffffffffffffff\n      and\n      0xffffffffffffffffffffffffffffffffffffffff\n      and\n      dup2\n      mstore\n      0x20\n      add\n      swap1\n      dup2\n      mstore\n      0x20\n      add\n      0x0\n      keccak256\n      0x0\n      swap1\n      sload\n      swap1\n      0x100\n      exp\n      swap1\n      div\n      0xff\n      and\n        /* \"contracts/ddddd.sol\":2310:2324  !isUser[_user] */\n      iszero\n        /* \"contracts/ddddd.sol\":2302:2325  require(!isUser[_user]) */\n      iszero\n      iszero\n      tag_239\n      jumpi\n      0x0\n      dup1\n      revert\n    tag_239:\n        /* \"contracts/ddddd.sol\":2344:2348  user */\n      0x4\n        /* \"contracts/ddddd.sol\":2344:2355  user[_user] */\n      0x0\n        /* \"contracts/ddddd.sol\":2349:2354  _user */\n      dup13\n        /* \"contracts/ddddd.sol\":2344:2355  user[_user] */\n      0xffffffffffffffffffffffffffffffffffffffff\n      and\n      0xffffffffffffffffffffffffffffffffffffffff\n      and\n      dup2\n      mstore\n      0x20\n      add\n      swap1\n      dup2\n      mstore\n      0x20\n      add\n      0x0\n      keccak256\n        /* \"contracts/ddddd.sol\":2336:2355  var u = user[_user] */\n      swap1\n      pop\n        /* \"contracts/ddddd.sol\":2386:2392  _uaeId */\n      dup10\n        /* \"contracts/ddddd.sol\":2376:2377  u */\n      dup2\n        /* \"contracts/ddddd.sol\":2376:2383  u.uaeId */\n      0x0\n      add\n        /* \"contracts/ddddd.sol\":2376:2392  u.uaeId = _uaeId */\n      swap1\n      dup1\n      mload\n      swap1\n      0x20\n      add\n      swap1\n      tag_240\n      swap3\n      swap2\n      swap1\n      jump\t// in(tag_209)\n    tag_240:\n      pop\n        /* \"contracts/ddddd.sol\":2412:2417  _name */\n      dup9\n        /* \"contracts/ddddd.sol\":2403:2404  u */\n      dup2\n        /* \"contracts/ddddd.sol\":2403:2409  u.name */\n      0x1\n      add\n        /* \"contracts/ddddd.sol\":2403:2417  u.name = _name */\n      swap1\n      dup1\n      mload\n      swap1\n      0x20\n      add\n      swap1\n      tag_241\n      swap3\n      swap2\n      swap1\n      jump\t// in(tag_209)\n    tag_241:\n      pop\n        /* \"contracts/ddddd.sol\":2438:2444  _phone */\n      dup8\n        /* \"contracts/ddddd.sol\":2428:2429  u */\n      dup2\n        /* \"contracts/ddddd.sol\":2428:2435  u.phone */\n      0x2\n      add\n        /* \"contracts/ddddd.sol\":2428:2444  u.phone = _phone */\n      swap1\n      dup1\n      mload\n      swap1\n      0x20\n      add\n      swap1\n      tag_242\n      swap3\n      swap2\n      swap1\n      jump\t// in(tag_209)\n    tag_242:\n      pop\n        /* \"contracts/ddddd.sol\":2466:2473  _gender */\n      dup7\n        /* \"contracts/ddddd.sol\":2455:2456  u */\n      dup2\n        /* \"contracts/ddddd.sol\":2455:2463  u.gender */\n      0x3\n      add\n        /* \"contracts/ddddd.sol\":2455:2473  u.gender = _gender */\n      swap1\n      dup1\n      mload\n      swap1\n      0x20\n      add\n      swap1\n      tag_243\n      swap3\n      swap2\n      swap1\n      jump\t// in(tag_209)\n    tag_243:\n      pop\n        /* \"contracts/ddddd.sol\":2492:2496  _dob */\n      dup6\n        /* \"contracts/ddddd.sol\":2484:2485  u */\n      dup2\n        /* \"contracts/ddddd.sol\":2484:2489  u.dob */\n      0x4\n      add\n        /* \"contracts/ddddd.sol\":2484:2496  u.dob = _dob */\n      swap1\n      dup1\n      mload\n      swap1\n      0x20\n      add\n      swap1\n      tag_244\n      swap3\n      swap2\n      swap1\n      jump\t// in(tag_209)\n    tag_244:\n      pop\n        /* \"contracts/ddddd.sol\":2516:2521  _addr */\n      dup5\n        /* \"contracts/ddddd.sol\":2507:2508  u */\n      dup2\n        /* \"contracts/ddddd.sol\":2507:2513  u.addr */\n      0x5\n      add\n        /* \"contracts/ddddd.sol\":2507:2521  u.addr = _addr */\n      swap1\n      dup1\n      mload\n      swap1\n      0x20\n      add\n      swap1\n      tag_245\n      swap3\n      swap2\n      swap1\n      jump\t// in(tag_209)\n    tag_245:\n      pop\n        /* \"contracts/ddddd.sol\":2542:2548  _email */\n      dup4\n        /* \"contracts/ddddd.sol\":2532:2533  u */\n      dup2\n        /* \"contracts/ddddd.sol\":2532:2539  u.email */\n      0x6\n      add\n        /* \"contracts/ddddd.sol\":2532:2548  u.email = _email */\n      swap1\n      dup1\n      mload\n      swap1\n      0x20\n      add\n      swap1\n      tag_246\n      swap3\n      swap2\n      swap1\n      jump\t// in(tag_209)\n    tag_246:\n      pop\n        /* \"contracts/ddddd.sol\":2575:2587  _nomineeName */\n      dup3\n        /* \"contracts/ddddd.sol\":2559:2560  u */\n      dup2\n        /* \"contracts/ddddd.sol\":2559:2572  u.nomineeName */\n      0x7\n      add\n        /* \"contracts/ddddd.sol\":2559:2587  u.nomineeName = _nomineeName */\n      swap1\n      dup1\n      mload\n      swap1\n      0x20\n      add\n      swap1\n      tag_247\n      swap3\n      swap2\n      swap1\n      jump\t// in(tag_209)\n    tag_247:\n      pop\n        /* \"contracts/ddddd.sol\":2617:2632  _nomineeContact */\n      dup2\n        /* \"contracts/ddddd.sol\":2598:2599  u */\n      dup2\n        /* \"contracts/ddddd.sol\":2598:2614  u.nomineeContact */\n      0x8\n      add\n        /* \"contracts/ddddd.sol\":2598:2632  u.nomineeContact = _nomineeContact */\n      swap1\n      dup1\n      mload\n      swap1\n      0x20\n      add\n      swap1\n      tag_248\n      swap3\n      swap2\n      swap1\n      jump\t// in(tag_209)\n    tag_248:\n      pop\n        /* \"contracts/ddddd.sol\":2656:2661  _user */\n      dup11\n        /* \"contracts/ddddd.sol\":2643:2644  u */\n      dup2\n        /* \"contracts/ddddd.sol\":2643:2653  u.eAddress */\n      0x9\n      add\n      0x0\n        /* \"contracts/ddddd.sol\":2643:2661  u.eAddress = _user */\n      0x100\n      exp\n      dup2\n      sload\n      dup2\n      0xffffffffffffffffffffffffffffffffffffffff\n      mul\n      not\n      and\n      swap1\n      dup4\n      0xffffffffffffffffffffffffffffffffffffffff\n      and\n      mul\n      or\n      swap1\n      sstore\n      pop\n        /* \"contracts/ddddd.sol\":2681:2696  block.timestamp */\n      timestamp\n        /* \"contracts/ddddd.sol\":2672:2673  u */\n      dup2\n        /* \"contracts/ddddd.sol\":2672:2678  u.date */\n      0xa\n      add\n        /* \"contracts/ddddd.sol\":2672:2696  u.date = block.timestamp */\n      dup2\n      swap1\n      sstore\n      pop\n        /* \"contracts/ddddd.sol\":2717:2725  userList */\n      0x1\n        /* \"contracts/ddddd.sol\":2731:2736  _user */\n      dup12\n        /* \"contracts/ddddd.sol\":2717:2737  userList.push(_user) */\n      swap1\n      dup1\n        /* \"--CODEGEN--\":39:40   */\n      0x1\n        /* \"--CODEGEN--\":33:36   */\n      dup2\n        /* \"--CODEGEN--\":27:37   */\n      sload\n        /* \"--CODEGEN--\":23:41   */\n      add\n        /* \"--CODEGEN--\":57:67   */\n      dup1\n        /* \"--CODEGEN--\":52:55   */\n      dup3\n        /* \"--CODEGEN--\":45:68   */\n      sstore\n        /* \"--CODEGEN--\":79:89   */\n      dup1\n        /* \"--CODEGEN--\":72:89   */\n      swap2\n      pop\n        /* \"--CODEGEN--\":0:93   */\n      pop\n        /* \"contracts/ddddd.sol\":2717:2737  userList.push(_user) */\n      swap1\n      0x1\n      dup3\n      sub\n      swap1\n      0x0\n      mstore\n      keccak256(0x0, 0x20)\n      add\n      0x0\n      swap1\n      swap2\n      swap3\n      swap1\n      swap2\n      swap1\n      swap2\n      0x100\n      exp\n      dup2\n      sload\n      dup2\n      0xffffffffffffffffffffffffffffffffffffffff\n      mul\n      not\n      and\n      swap1\n      dup4\n      0xffffffffffffffffffffffffffffffffffffffff\n      and\n      mul\n      or\n      swap1\n      sstore\n      pop\n      pop\n        /* \"contracts/ddddd.sol\":2764:2768  true */\n      0x1\n        /* \"contracts/ddddd.sol\":2748:2754  isUser */\n      0x8\n        /* \"contracts/ddddd.sol\":2748:2761  isUser[_user] */\n      0x0\n        /* \"contracts/ddddd.sol\":2755:2760  _user */\n      dup14\n        /* \"contracts/ddddd.sol\":2748:2761  isUser[_user] */\n      0xffffffffffffffffffffffffffffffffffffffff\n      and\n      0xffffffffffffffffffffffffffffffffffffffff\n      and\n      dup2\n      mstore\n      0x20\n      add\n      swap1\n      dup2\n      mstore\n      0x20\n      add\n      0x0\n      keccak256\n      0x0\n        /* \"contracts/ddddd.sol\":2748:2768  isUser[_user] = true */\n      0x100\n      exp\n      dup2\n      sload\n      dup2\n      0xff\n      mul\n      not\n      and\n      swap1\n      dup4\n      iszero\n      iszero\n      mul\n      or\n      swap1\n      sstore\n      pop\n        /* \"contracts/ddddd.sol\":2806:2810  true */\n      0x1\n        /* \"contracts/ddddd.sol\":2779:2789  isApproved */\n      0x7\n        /* \"contracts/ddddd.sol\":2779:2796  isApproved[_user] */\n      0x0\n        /* \"contracts/ddddd.sol\":2790:2795  _user */\n      dup14\n        /* \"contracts/ddddd.sol\":2779:2796  isApproved[_user] */\n      0xffffffffffffffffffffffffffffffffffffffff\n      and\n      0xffffffffffffffffffffffffffffffffffffffff\n      and\n      dup2\n      mstore\n      0x20\n      add\n      swap1\n      dup2\n      mstore\n      0x20\n      add\n      0x0\n      keccak256\n        /* \"contracts/ddddd.sol\":2779:2803  isApproved[_user][_user] */\n      0x0\n        /* \"contracts/ddddd.sol\":2797:2802  _user */\n      dup14\n        /* \"contracts/ddddd.sol\":2779:2803  isApproved[_user][_user] */\n      0xffffffffffffffffffffffffffffffffffffffff\n      and\n      0xffffffffffffffffffffffffffffffffffffffff\n      and\n      dup2\n      mstore\n      0x20\n      add\n      swap1\n      dup2\n      mstore\n      0x20\n      add\n      0x0\n      keccak256\n      0x0\n        /* \"contracts/ddddd.sol\":2779:2810  isApproved[_user][_user] = true */\n      0x100\n      exp\n      dup2\n      sload\n      dup2\n      0xff\n      mul\n      not\n      and\n      swap1\n      dup4\n      iszero\n      iszero\n      mul\n      or\n      swap1\n      sstore\n      pop\n        /* \"contracts/ddddd.sol\":2852:2856  true */\n      0x1\n        /* \"contracts/ddddd.sol\":2821:2831  isApproved */\n      0x7\n        /* \"contracts/ddddd.sol\":2821:2838  isApproved[_user] */\n      0x0\n        /* \"contracts/ddddd.sol\":2832:2837  _user */\n      dup14\n        /* \"contracts/ddddd.sol\":2821:2838  isApproved[_user] */\n      0xffffffffffffffffffffffffffffffffffffffff\n      and\n      0xffffffffffffffffffffffffffffffffffffffff\n      and\n      dup2\n      mstore\n      0x20\n      add\n      swap1\n      dup2\n      mstore\n      0x20\n      add\n      0x0\n      keccak256\n        /* \"contracts/ddddd.sol\":2821:2849  isApproved[_user][mohAdress] */\n      0x0\n        /* \"contracts/ddddd.sol\":2839:2848  mohAdress */\n      0x10\n      0x0\n      swap1\n      sload\n      swap1\n      0x100\n      exp\n      swap1\n      div\n      0xffffffffffffffffffffffffffffffffffffffff\n      and\n        /* \"contracts/ddddd.sol\":2821:2849  isApproved[_user][mohAdress] */\n      0xffffffffffffffffffffffffffffffffffffffff\n      and\n      0xffffffffffffffffffffffffffffffffffffffff\n      and\n      dup2\n      mstore\n      0x20\n      add\n      swap1\n      dup2\n      mstore\n      0x20\n      add\n      0x0\n      keccak256\n      0x0\n        /* \"contracts/ddddd.sol\":2821:2856  isApproved[_user][mohAdress] = true */\n      0x100\n      exp\n      dup2\n      sload\n      dup2\n      0xff\n      mul\n      not\n      and\n      swap1\n      dup4\n      iszero\n      iszero\n      mul\n      or\n      swap1\n      sstore\n      pop\n        /* \"contracts/ddddd.sol\":2867:2876  userCount */\n      0xb\n      0x0\n        /* \"contracts/ddddd.sol\":2867:2878  userCount++ */\n      dup2\n      sload\n      dup1\n      swap3\n      swap2\n      swap1\n      0x1\n      add\n      swap2\n      swap1\n      pop\n      sstore\n      pop\n        /* \"contracts/ddddd.sol\":2053:3162  function userRegistration(address _user, string _uaeId, string _name, string _phone, string _gender, string _dob, string _addr, string _email, string _nomineeName, string _nomineeContact) public {\r... */\n      pop\n      pop\n      pop\n      pop\n      pop\n      pop\n      pop\n      pop\n      pop\n      pop\n      pop\n      jump\t// out\n        /* \"contracts/ddddd.sol\":3186:3795  function editUser(address _user, string _uaeId, string _name, string _phone, string _gender, string _dob, string _addr, string _email, string _nomineeName, string _nomineeContact) public {\r... */\n    tag_94:\n        /* \"contracts/ddddd.sol\":3460:3465  var u */\n      0x0\n        /* \"contracts/ddddd.sol\":3406:3415  mohAdress */\n      0x10\n      0x0\n      swap1\n      sload\n      swap1\n      0x100\n      exp\n      swap1\n      div\n      0xffffffffffffffffffffffffffffffffffffffff\n      and\n        /* \"contracts/ddddd.sol\":3392:3415  msg.sender == mohAdress */\n      0xffffffffffffffffffffffffffffffffffffffff\n      and\n        /* \"contracts/ddddd.sol\":3392:3402  msg.sender */\n      caller\n        /* \"contracts/ddddd.sol\":3392:3415  msg.sender == mohAdress */\n      0xffffffffffffffffffffffffffffffffffffffff\n      and\n      eq\n        /* \"contracts/ddddd.sol\":3384:3416  require(msg.sender == mohAdress) */\n      iszero\n      iszero\n      tag_251\n      jumpi\n      0x0\n      dup1\n      revert\n    tag_251:\n        /* \"contracts/ddddd.sol\":3435:3441  isUser */\n      0x8\n        /* \"contracts/ddddd.sol\":3435:3448  isUser[_user] */\n      0x0\n        /* \"contracts/ddddd.sol\":3442:3447  _user */\n      dup13\n        /* \"contracts/ddddd.sol\":3435:3448  isUser[_user] */\n      0xffffffffffffffffffffffffffffffffffffffff\n      and\n      0xffffffffffffffffffffffffffffffffffffffff\n      and\n      dup2\n      mstore\n      0x20\n      add\n      swap1\n      dup2\n      mstore\n      0x20\n      add\n      0x0\n      keccak256\n      0x0\n      swap1\n      sload\n      swap1\n      0x100\n      exp\n      swap1\n      div\n      0xff\n      and\n        /* \"contracts/ddddd.sol\":3427:3449  require(isUser[_user]) */\n      iszero\n      iszero\n      tag_252\n      jumpi\n      0x0\n      dup1\n      revert\n    tag_252:\n        /* \"contracts/ddddd.sol\":3468:3472  user */\n      0x4\n        /* \"contracts/ddddd.sol\":3468:3479  user[_user] */\n      0x0\n        /* \"contracts/ddddd.sol\":3473:3478  _user */\n      dup13\n        /* \"contracts/ddddd.sol\":3468:3479  user[_user] */\n      0xffffffffffffffffffffffffffffffffffffffff\n      and\n      0xffffffffffffffffffffffffffffffffffffffff\n      and\n      dup2\n      mstore\n      0x20\n      add\n      swap1\n      dup2\n      mstore\n      0x20\n      add\n      0x0\n      keccak256\n        /* \"contracts/ddddd.sol\":3460:3479  var u = user[_user] */\n      swap1\n      pop\n        /* \"contracts/ddddd.sol\":3510:3516  _uaeId */\n      dup10\n        /* \"contracts/ddddd.sol\":3500:3501  u */\n      dup2\n        /* \"contracts/ddddd.sol\":3500:3507  u.uaeId */\n      0x0\n      add\n        /* \"contracts/ddddd.sol\":3500:3516  u.uaeId = _uaeId */\n      swap1\n      dup1\n      mload\n      swap1\n      0x20\n      add\n      swap1\n      tag_253\n      swap3\n      swap2\n      swap1\n      jump\t// in(tag_209)\n    tag_253:\n      pop\n        /* \"contracts/ddddd.sol\":3536:3541  _name */\n      dup9\n        /* \"contracts/ddddd.sol\":3527:3528  u */\n      dup2\n        /* \"contracts/ddddd.sol\":3527:3533  u.name */\n      0x1\n      add\n        /* \"contracts/ddddd.sol\":3527:3541  u.name = _name */\n      swap1\n      dup1\n      mload\n      swap1\n      0x20\n      add\n      swap1\n      tag_254\n      swap3\n      swap2\n      swap1\n      jump\t// in(tag_209)\n    tag_254:\n      pop\n        /* \"contracts/ddddd.sol\":3562:3568  _phone */\n      dup8\n        /* \"contracts/ddddd.sol\":3552:3553  u */\n      dup2\n        /* \"contracts/ddddd.sol\":3552:3559  u.phone */\n      0x2\n      add\n        /* \"contracts/ddddd.sol\":3552:3568  u.phone = _phone */\n      swap1\n      dup1\n      mload\n      swap1\n      0x20\n      add\n      swap1\n      tag_255\n      swap3\n      swap2\n      swap1\n      jump\t// in(tag_209)\n    tag_255:\n      pop\n        /* \"contracts/ddddd.sol\":3590:3597  _gender */\n      dup7\n        /* \"contracts/ddddd.sol\":3579:3580  u */\n      dup2\n        /* \"contracts/ddddd.sol\":3579:3587  u.gender */\n      0x3\n      add\n        /* \"contracts/ddddd.sol\":3579:3597  u.gender = _gender */\n      swap1\n      dup1\n      mload\n      swap1\n      0x20\n      add\n      swap1\n      tag_256\n      swap3\n      swap2\n      swap1\n      jump\t// in(tag_209)\n    tag_256:\n      pop\n        /* \"contracts/ddddd.sol\":3616:3620  _dob */\n      dup6\n        /* \"contracts/ddddd.sol\":3608:3609  u */\n      dup2\n        /* \"contracts/ddddd.sol\":3608:3613  u.dob */\n      0x4\n      add\n        /* \"contracts/ddddd.sol\":3608:3620  u.dob = _dob */\n      swap1\n      dup1\n      mload\n      swap1\n      0x20\n      add\n      swap1\n      tag_257\n      swap3\n      swap2\n      swap1\n      jump\t// in(tag_209)\n    tag_257:\n      pop\n        /* \"contracts/ddddd.sol\":3640:3645  _addr */\n      dup5\n        /* \"contracts/ddddd.sol\":3631:3632  u */\n      dup2\n        /* \"contracts/ddddd.sol\":3631:3637  u.addr */\n      0x5\n      add\n        /* \"contracts/ddddd.sol\":3631:3645  u.addr = _addr */\n      swap1\n      dup1\n      mload\n      swap1\n      0x20\n      add\n      swap1\n      tag_258\n      swap3\n      swap2\n      swap1\n      jump\t// in(tag_209)\n    tag_258:\n      pop\n        /* \"contracts/ddddd.sol\":3666:3672  _email */\n      dup4\n        /* \"contracts/ddddd.sol\":3656:3657  u */\n      dup2\n        /* \"contracts/ddddd.sol\":3656:3663  u.email */\n      0x6\n      add\n        /* \"contracts/ddddd.sol\":3656:3672  u.email = _email */\n      swap1\n      dup1\n      mload\n      swap1\n      0x20\n      add\n      swap1\n      tag_259\n      swap3\n      swap2\n      swap1\n      jump\t// in(tag_209)\n    tag_259:\n      pop\n        /* \"contracts/ddddd.sol\":3699:3711  _nomineeName */\n      dup3\n        /* \"contracts/ddddd.sol\":3683:3684  u */\n      dup2\n        /* \"contracts/ddddd.sol\":3683:3696  u.nomineeName */\n      0x7\n      add\n        /* \"contracts/ddddd.sol\":3683:3711  u.nomineeName = _nomineeName */\n      swap1\n      dup1\n      mload\n      swap1\n      0x20\n      add\n      swap1\n      tag_260\n      swap3\n      swap2\n      swap1\n      jump\t// in(tag_209)\n    tag_260:\n      pop\n        /* \"contracts/ddddd.sol\":3741:3756  _nomineeContact */\n      dup2\n        /* \"contracts/ddddd.sol\":3722:3723  u */\n      dup2\n        /* \"contracts/ddddd.sol\":3722:3738  u.nomineeContact */\n      0x8\n      add\n        /* \"contracts/ddddd.sol\":3722:3756  u.nomineeContact = _nomineeContact */\n      swap1\n      dup1\n      mload\n      swap1\n      0x20\n      add\n      swap1\n      tag_261\n      swap3\n      swap2\n      swap1\n      jump\t// in(tag_209)\n    tag_261:\n      pop\n        /* \"contracts/ddddd.sol\":3780:3785  _user */\n      dup11\n        /* \"contracts/ddddd.sol\":3767:3768  u */\n      dup2\n        /* \"contracts/ddddd.sol\":3767:3777  u.eAddress */\n      0x9\n      add\n      0x0\n        /* \"contracts/ddddd.sol\":3767:3785  u.eAddress = _user */\n      0x100\n      exp\n      dup2\n      sload\n      dup2\n      0xffffffffffffffffffffffffffffffffffffffff\n      mul\n      not\n      and\n      swap1\n      dup4\n      0xffffffffffffffffffffffffffffffffffffffff\n      and\n      mul\n      or\n      swap1\n      sstore\n      pop\n        /* \"contracts/ddddd.sol\":3186:3795  function editUser(address _user, string _uaeId, string _name, string _phone, string _gender, string _dob, string _addr, string _email, string _nomineeName, string _nomineeContact) public {\r... */\n      pop\n      pop\n      pop\n      pop\n      pop\n      pop\n      pop\n      pop\n      pop\n      pop\n      pop\n      jump\t// out\n        /* \"contracts/ddddd.sol\":1668:1698  uint256 public doctorCount = 0 */\n    tag_97:\n      sload(0xc)\n      dup2\n      jump\t// out\n        /* \"contracts/ddddd.sol\":8578:8670  function getDoctorCount() public view returns(uint256) {\r... */\n    tag_101:\n        /* \"contracts/ddddd.sol\":8624:8631  uint256 */\n      0x0\n        /* \"contracts/ddddd.sol\":8651:8662  doctorCount */\n      sload(0xc)\n        /* \"contracts/ddddd.sol\":8644:8662  return doctorCount */\n      swap1\n      pop\n        /* \"contracts/ddddd.sol\":8578:8670  function getDoctorCount() public view returns(uint256) {\r... */\n      swap1\n      jump\t// out\n        /* \"contracts/ddddd.sol\":8922:9228  function checkDoctor(address _address) public view returns(bool success) {\r... */\n    tag_106:\n        /* \"contracts/ddddd.sol\":8981:8993  bool success */\n      0x0\n        /* \"contracts/ddddd.sol\":9011:9017  uint i */\n      dup1\n        /* \"contracts/ddddd.sol\":9020:9021  0 */\n      0x0\n        /* \"contracts/ddddd.sol\":9011:9021  uint i = 0 */\n      swap1\n      pop\n        /* \"contracts/ddddd.sol\":9027:9037  doctorList */\n      0x2\n        /* \"contracts/ddddd.sol\":9027:9044  doctorList.length */\n      dup1\n      sload\n      swap1\n      pop\n        /* \"contracts/ddddd.sol\":9023:9024  i */\n      dup2\n        /* \"contracts/ddddd.sol\":9023:9044  i < doctorList.length */\n      lt\n        /* \"contracts/ddddd.sol\":9006:9221  for (uint i = 0; i < doctorList.length; i++) {\r... */\n      iszero\n      tag_265\n      jumpi\n        /* \"contracts/ddddd.sol\":9092:9096  true */\n      0x1\n        /* \"contracts/ddddd.sol\":9070:9096  isDoctor[_address] == true */\n      iszero\n      iszero\n        /* \"contracts/ddddd.sol\":9070:9078  isDoctor */\n      0x9\n        /* \"contracts/ddddd.sol\":9070:9088  isDoctor[_address] */\n      0x0\n        /* \"contracts/ddddd.sol\":9079:9087  _address */\n      dup6\n        /* \"contracts/ddddd.sol\":9070:9088  isDoctor[_address] */\n      0xffffffffffffffffffffffffffffffffffffffff\n      and\n      0xffffffffffffffffffffffffffffffffffffffff\n      and\n      dup2\n      mstore\n      0x20\n      add\n      swap1\n      dup2\n      mstore\n      0x20\n      add\n      0x0\n      keccak256\n      0x0\n      swap1\n      sload\n      swap1\n      0x100\n      exp\n      swap1\n      div\n      0xff\n      and\n        /* \"contracts/ddddd.sol\":9070:9096  isDoctor[_address] == true */\n      iszero\n      iszero\n      eq\n        /* \"contracts/ddddd.sol\":9066:9210  if (isDoctor[_address] == true) {\r... */\n      iszero\n      tag_267\n      jumpi\n        /* \"contracts/ddddd.sol\":9124:9128  true */\n      0x1\n        /* \"contracts/ddddd.sol\":9117:9128  return true */\n      swap2\n      pop\n      jump(tag_263)\n        /* \"contracts/ddddd.sol\":9066:9210  if (isDoctor[_address] == true) {\r... */\n    tag_267:\n        /* \"contracts/ddddd.sol\":9189:9194  false */\n      0x0\n        /* \"contracts/ddddd.sol\":9182:9194  return false */\n      swap2\n      pop\n      jump(tag_263)\n        /* \"contracts/ddddd.sol\":9006:9221  for (uint i = 0; i < doctorList.length; i++) {\r... */\n    tag_265:\n        /* \"contracts/ddddd.sol\":8922:9228  function checkDoctor(address _address) public view returns(bool success) {\r... */\n    tag_263:\n      pop\n      swap2\n      swap1\n      pop\n      jump\t// out\n        /* \"contracts/ddddd.sol\":6011:6339  function getVaccinationInfo(address _address) public view returns(string, string, string, uint256, address, address) {\r... */\n    tag_111:\n        /* \"contracts/ddddd.sol\":6077:6083  string */\n      0x60\n        /* \"contracts/ddddd.sol\":6085:6091  string */\n      dup1\n        /* \"contracts/ddddd.sol\":6093:6099  string */\n      0x60\n        /* \"contracts/ddddd.sol\":6101:6108  uint256 */\n      0x0\n        /* \"contracts/ddddd.sol\":6110:6117  address */\n      dup1\n        /* \"contracts/ddddd.sol\":6119:6126  address */\n      0x0\n        /* \"contracts/ddddd.sol\":6191:6196  var v */\n      dup1\n        /* \"contracts/ddddd.sol\":6147:6157  isApproved */\n      0x7\n        /* \"contracts/ddddd.sol\":6147:6167  isApproved[_address] */\n      0x0\n        /* \"contracts/ddddd.sol\":6158:6166  _address */\n      dup10\n        /* \"contracts/ddddd.sol\":6147:6167  isApproved[_address] */\n      0xffffffffffffffffffffffffffffffffffffffff\n      and\n      0xffffffffffffffffffffffffffffffffffffffff\n      and\n      dup2\n      mstore\n      0x20\n      add\n      swap1\n      dup2\n      mstore\n      0x20\n      add\n      0x0\n      keccak256\n        /* \"contracts/ddddd.sol\":6147:6179  isApproved[_address][msg.sender] */\n      0x0\n        /* \"contracts/ddddd.sol\":6168:6178  msg.sender */\n      caller\n        /* \"contracts/ddddd.sol\":6147:6179  isApproved[_address][msg.sender] */\n      0xffffffffffffffffffffffffffffffffffffffff\n      and\n      0xffffffffffffffffffffffffffffffffffffffff\n      and\n      dup2\n      mstore\n      0x20\n      add\n      swap1\n      dup2\n      mstore\n      0x20\n      add\n      0x0\n      keccak256\n      0x0\n      swap1\n      sload\n      swap1\n      0x100\n      exp\n      swap1\n      div\n      0xff\n      and\n        /* \"contracts/ddddd.sol\":6139:6180  require(isApproved[_address][msg.sender]) */\n      iszero\n      iszero\n      tag_270\n      jumpi\n      0x0\n      dup1\n      revert\n    tag_270:\n        /* \"contracts/ddddd.sol\":6199:6210  vaccination */\n      0x6\n        /* \"contracts/ddddd.sol\":6199:6220  vaccination[_address] */\n      0x0\n        /* \"contracts/ddddd.sol\":6211:6219  _address */\n      dup10\n        /* \"contracts/ddddd.sol\":6199:6220  vaccination[_address] */\n      0xffffffffffffffffffffffffffffffffffffffff\n      and\n      0xffffffffffffffffffffffffffffffffffffffff\n      and\n      dup2\n      mstore\n      0x20\n      add\n      swap1\n      dup2\n      mstore\n      0x20\n      add\n      0x0\n      keccak256\n        /* \"contracts/ddddd.sol\":6191:6220  var v = vaccination[_address] */\n      swap1\n      pop\n        /* \"contracts/ddddd.sol\":6239:6240  v */\n      dup1\n        /* \"contracts/ddddd.sol\":6239:6248  v.vaccine */\n      0x1\n      add\n        /* \"contracts/ddddd.sol\":6250:6251  v */\n      dup2\n        /* \"contracts/ddddd.sol\":6250:6263  v.description */\n      0x2\n      add\n        /* \"contracts/ddddd.sol\":6265:6266  v */\n      dup3\n        /* \"contracts/ddddd.sol\":6265:6280  v.typeOfVaccine */\n      0x3\n      add\n        /* \"contracts/ddddd.sol\":6282:6283  v */\n      dup4\n        /* \"contracts/ddddd.sol\":6282:6296  v.creationDate */\n      0x4\n      add\n      sload\n        /* \"contracts/ddddd.sol\":6298:6299  v */\n      dup5\n        /* \"contracts/ddddd.sol\":6298:6312  v.userEadderss */\n      0x5\n      add\n      0x0\n      swap1\n      sload\n      swap1\n      0x100\n      exp\n      swap1\n      div\n      0xffffffffffffffffffffffffffffffffffffffff\n      and\n        /* \"contracts/ddddd.sol\":6314:6315  v */\n      dup6\n        /* \"contracts/ddddd.sol\":6314:6330  v.doctorEaddress */\n      0x6\n      add\n      0x0\n      swap1\n      sload\n      swap1\n      0x100\n      exp\n      swap1\n      div\n      0xffffffffffffffffffffffffffffffffffffffff\n      and\n        /* \"contracts/ddddd.sol\":6231:6331  return (v.vaccine, v.description, v.typeOfVaccine, v.creationDate, v.userEadderss, v.doctorEaddress) */\n      dup6\n      dup1\n      sload\n      0x1\n      dup2\n      0x1\n      and\n      iszero\n      0x100\n      mul\n      sub\n      and\n      0x2\n      swap1\n      div\n      dup1\n      0x1f\n      add\n      0x20\n      dup1\n      swap2\n      div\n      mul\n      0x20\n      add\n      mload(0x40)\n      swap1\n      dup2\n      add\n      0x40\n      mstore\n      dup1\n      swap3\n      swap2\n      swap1\n      dup2\n      dup2\n      mstore\n      0x20\n      add\n      dup3\n      dup1\n      sload\n      0x1\n      dup2\n      0x1\n      and\n      iszero\n      0x100\n      mul\n      sub\n      and\n      0x2\n      swap1\n      div\n      dup1\n      iszero\n      tag_271\n      jumpi\n      dup1\n      0x1f\n      lt\n      tag_272\n      jumpi\n      0x100\n      dup1\n      dup4\n      sload\n      div\n      mul\n      dup4\n      mstore\n      swap2\n      0x20\n      add\n      swap2\n      jump(tag_271)\n    tag_272:\n      dup3\n      add\n      swap2\n      swap1\n      0x0\n      mstore\n      keccak256(0x0, 0x20)\n      swap1\n    tag_273:\n      dup2\n      sload\n      dup2\n      mstore\n      swap1\n      0x1\n      add\n      swap1\n      0x20\n      add\n      dup1\n      dup4\n      gt\n      tag_273\n      jumpi\n      dup3\n      swap1\n      sub\n      0x1f\n      and\n      dup3\n      add\n      swap2\n    tag_271:\n      pop\n      pop\n      pop\n      pop\n      pop\n      swap6\n      pop\n      dup5\n      dup1\n      sload\n      0x1\n      dup2\n      0x1\n      and\n      iszero\n      0x100\n      mul\n      sub\n      and\n      0x2\n      swap1\n      div\n      dup1\n      0x1f\n      add\n      0x20\n      dup1\n      swap2\n      div\n      mul\n      0x20\n      add\n      mload(0x40)\n      swap1\n      dup2\n      add\n      0x40\n      mstore\n      dup1\n      swap3\n      swap2\n      swap1\n      dup2\n      dup2\n      mstore\n      0x20\n      add\n      dup3\n      dup1\n      sload\n      0x1\n      dup2\n      0x1\n      and\n      iszero\n      0x100\n      mul\n      sub\n      and\n      0x2\n      swap1\n      div\n      dup1\n      iszero\n      tag_274\n      jumpi\n      dup1\n      0x1f\n      lt\n      tag_275\n      jumpi\n      0x100\n      dup1\n      dup4\n      sload\n      div\n      mul\n      dup4\n      mstore\n      swap2\n      0x20\n      add\n      swap2\n      jump(tag_274)\n    tag_275:\n      dup3\n      add\n      swap2\n      swap1\n      0x0\n      mstore\n      keccak256(0x0, 0x20)\n      swap1\n    tag_276:\n      dup2\n      sload\n      dup2\n      mstore\n      swap1\n      0x1\n      add\n      swap1\n      0x20\n      add\n      dup1\n      dup4\n      gt\n      tag_276\n      jumpi\n      dup3\n      swap1\n      sub\n      0x1f\n      and\n      dup3\n      add\n      swap2\n    tag_274:\n      pop\n      pop\n      pop\n      pop\n      pop\n      swap5\n      pop\n      dup4\n      dup1\n      sload\n      0x1\n      dup2\n      0x1\n      and\n      iszero\n      0x100\n      mul\n      sub\n      and\n      0x2\n      swap1\n      div\n      dup1\n      0x1f\n      add\n      0x20\n      dup1\n      swap2\n      div\n      mul\n      0x20\n      add\n      mload(0x40)\n      swap1\n      dup2\n      add\n      0x40\n      mstore\n      dup1\n      swap3\n      swap2\n      swap1\n      dup2\n      dup2\n      mstore\n      0x20\n      add\n      dup3\n      dup1\n      sload\n      0x1\n      dup2\n      0x1\n      and\n      iszero\n      0x100\n      mul\n      sub\n      and\n      0x2\n      swap1\n      div\n      dup1\n      iszero\n      tag_277\n      jumpi\n      dup1\n      0x1f\n      lt\n      tag_278\n      jumpi\n      0x100\n      dup1\n      dup4\n      sload\n      div\n      mul\n      dup4\n      mstore\n      swap2\n      0x20\n      add\n      swap2\n      jump(tag_277)\n    tag_278:\n      dup3\n      add\n      swap2\n      swap1\n      0x0\n      mstore\n      keccak256(0x0, 0x20)\n      swap1\n    tag_279:\n      dup2\n      sload\n      dup2\n      mstore\n      swap1\n      0x1\n      add\n      swap1\n      0x20\n      add\n      dup1\n      dup4\n      gt\n      tag_279\n      jumpi\n      dup3\n      swap1\n      sub\n      0x1f\n      and\n      dup3\n      add\n      swap2\n    tag_277:\n      pop\n      pop\n      pop\n      pop\n      pop\n      swap4\n      pop\n      swap7\n      pop\n      swap7\n      pop\n      swap7\n      pop\n      swap7\n      pop\n      swap7\n      pop\n      swap7\n      pop\n        /* \"contracts/ddddd.sol\":6011:6339  function getVaccinationInfo(address _address) public view returns(string, string, string, uint256, address, address) {\r... */\n      pop\n      swap2\n      swap4\n      swap6\n      pop\n      swap2\n      swap4\n      swap6\n      jump\t// out\n        /* \"contracts/ddddd.sol\":1036:1056  address public owner */\n    tag_116:\n      0x0\n      dup1\n      swap1\n      sload\n      swap1\n      0x100\n      exp\n      swap1\n      div\n      0xffffffffffffffffffffffffffffffffffffffff\n      and\n      dup2\n      jump\t// out\n        /* \"contracts/ddddd.sol\":1933:2041  function ownerAddress() public returns(address) {\r... */\n    tag_120:\n        /* \"contracts/ddddd.sol\":1972:1979  address */\n      0x0\n        /* \"contracts/ddddd.sol\":2000:2010  msg.sender */\n      caller\n        /* \"contracts/ddddd.sol\":1992:1997  owner */\n      0x0\n      dup1\n        /* \"contracts/ddddd.sol\":1992:2010  owner = msg.sender */\n      0x100\n      exp\n      dup2\n      sload\n      dup2\n      0xffffffffffffffffffffffffffffffffffffffff\n      mul\n      not\n      and\n      swap1\n      dup4\n      0xffffffffffffffffffffffffffffffffffffffff\n      and\n      mul\n      or\n      swap1\n      sstore\n      pop\n        /* \"contracts/ddddd.sol\":2028:2033  owner */\n      0x0\n      dup1\n      swap1\n      sload\n      swap1\n      0x100\n      exp\n      swap1\n      div\n      0xffffffffffffffffffffffffffffffffffffffff\n      and\n        /* \"contracts/ddddd.sol\":2021:2033  return owner */\n      swap1\n      pop\n        /* \"contracts/ddddd.sol\":1933:2041  function ownerAddress() public returns(address) {\r... */\n      swap1\n      jump\t// out\n        /* \"contracts/ddddd.sol\":1798:1842  uint256 public vaccinationRecordsCounter = 0 */\n    tag_124:\n      sload(0xf)\n      dup2\n      jump\t// out\n        /* \"contracts/ddddd.sol\":1705:1744  uint256 public MoHPermissionCounter = 0 */\n    tag_128:\n      sload(0xd)\n      dup2\n      jump\t// out\n        /* \"contracts/ddddd.sol\":1063:1088  address[] public userList */\n    tag_133:\n      0x1\n      dup2\n      dup2\n      sload\n      dup2\n      lt\n      iszero\n      iszero\n      tag_281\n      jumpi\n      invalid\n    tag_281:\n      swap1\n      0x0\n      mstore\n      keccak256(0x0, 0x20)\n      add\n      0x0\n      swap2\n      pop\n      sload\n      swap1\n      0x100\n      exp\n      swap1\n      div\n      0xffffffffffffffffffffffffffffffffffffffff\n      and\n      dup2\n      jump\t// out\n        /* \"contracts/ddddd.sol\":7301:7390  function getDoctors() public view returns(address[]) {\r... */\n    tag_137:\n        /* \"contracts/ddddd.sol\":7343:7352  address[] */\n      0x60\n        /* \"contracts/ddddd.sol\":7372:7382  doctorList */\n      0x2\n        /* \"contracts/ddddd.sol\":7365:7382  return doctorList */\n      dup1\n      sload\n      dup1\n      0x20\n      mul\n      0x20\n      add\n      mload(0x40)\n      swap1\n      dup2\n      add\n      0x40\n      mstore\n      dup1\n      swap3\n      swap2\n      swap1\n      dup2\n      dup2\n      mstore\n      0x20\n      add\n      dup3\n      dup1\n      sload\n      dup1\n      iszero\n      tag_284\n      jumpi\n      0x20\n      mul\n      dup3\n      add\n      swap2\n      swap1\n      0x0\n      mstore\n      keccak256(0x0, 0x20)\n      swap1\n    tag_285:\n      dup2\n      0x0\n      swap1\n      sload\n      swap1\n      0x100\n      exp\n      swap1\n      div\n      0xffffffffffffffffffffffffffffffffffffffff\n      and\n      0xffffffffffffffffffffffffffffffffffffffff\n      and\n      dup2\n      mstore\n      0x20\n      add\n      swap1\n      0x1\n      add\n      swap1\n      dup1\n      dup4\n      gt\n      tag_285\n      jumpi\n    tag_284:\n      pop\n      pop\n      pop\n      pop\n      pop\n      swap1\n      pop\n        /* \"contracts/ddddd.sol\":7301:7390  function getDoctors() public view returns(address[]) {\r... */\n      swap1\n      jump\t// out\n        /* \"contracts/ddddd.sol\":8482:8570  function getUserCount() public view returns(uint256) {\r... */\n    tag_141:\n        /* \"contracts/ddddd.sol\":8526:8533  uint256 */\n      0x0\n        /* \"contracts/ddddd.sol\":8553:8562  userCount */\n      sload(0xb)\n        /* \"contracts/ddddd.sol\":8546:8562  return userCount */\n      swap1\n      pop\n        /* \"contracts/ddddd.sol\":8482:8570  function getUserCount() public view returns(uint256) {\r... */\n      swap1\n      jump\t// out\n        /* \"contracts/ddddd.sol\":1851:1920  address public mohAdress = 0xc50C6297f56b033633C30354A854b074749cd2dC */\n    tag_145:\n      0x10\n      0x0\n      swap1\n      sload\n      swap1\n      0x100\n      exp\n      swap1\n      div\n      0xffffffffffffffffffffffffffffffffffffffff\n      and\n      dup2\n      jump\t// out\n        /* \"contracts/ddddd.sol\":6976:7196  function MoHRevokePermission(address _address1, address _address2) public returns(bool success) {\r... */\n    tag_151:\n        /* \"contracts/ddddd.sol\":7058:7070  bool success */\n      0x0\n        /* \"contracts/ddddd.sol\":7105:7114  mohAdress */\n      0x10\n      0x0\n      swap1\n      sload\n      swap1\n      0x100\n      exp\n      swap1\n      div\n      0xffffffffffffffffffffffffffffffffffffffff\n      and\n        /* \"contracts/ddddd.sol\":7091:7114  msg.sender == mohAdress */\n      0xffffffffffffffffffffffffffffffffffffffff\n      and\n        /* \"contracts/ddddd.sol\":7091:7101  msg.sender */\n      caller\n        /* \"contracts/ddddd.sol\":7091:7114  msg.sender == mohAdress */\n      0xffffffffffffffffffffffffffffffffffffffff\n      and\n      eq\n        /* \"contracts/ddddd.sol\":7083:7115  require(msg.sender == mohAdress) */\n      iszero\n      iszero\n      tag_288\n      jumpi\n      0x0\n      dup1\n      revert\n    tag_288:\n        /* \"contracts/ddddd.sol\":7161:7166  false */\n      0x0\n        /* \"contracts/ddddd.sol\":7126:7136  isApproved */\n      0x7\n        /* \"contracts/ddddd.sol\":7126:7147  isApproved[_address1] */\n      0x0\n        /* \"contracts/ddddd.sol\":7137:7146  _address1 */\n      dup6\n        /* \"contracts/ddddd.sol\":7126:7147  isApproved[_address1] */\n      0xffffffffffffffffffffffffffffffffffffffff\n      and\n      0xffffffffffffffffffffffffffffffffffffffff\n      and\n      dup2\n      mstore\n      0x20\n      add\n      swap1\n      dup2\n      mstore\n      0x20\n      add\n      0x0\n      keccak256\n        /* \"contracts/ddddd.sol\":7126:7158  isApproved[_address1][_address2] */\n      0x0\n        /* \"contracts/ddddd.sol\":7148:7157  _address2 */\n      dup5\n        /* \"contracts/ddddd.sol\":7126:7158  isApproved[_address1][_address2] */\n      0xffffffffffffffffffffffffffffffffffffffff\n      and\n      0xffffffffffffffffffffffffffffffffffffffff\n      and\n      dup2\n      mstore\n      0x20\n      add\n      swap1\n      dup2\n      mstore\n      0x20\n      add\n      0x0\n      keccak256\n      0x0\n        /* \"contracts/ddddd.sol\":7126:7166  isApproved[_address1][_address2] = false */\n      0x100\n      exp\n      dup2\n      sload\n      dup2\n      0xff\n      mul\n      not\n      and\n      swap1\n      dup4\n      iszero\n      iszero\n      mul\n      or\n      swap1\n      sstore\n      pop\n        /* \"contracts/ddddd.sol\":7184:7188  true */\n      0x1\n        /* \"contracts/ddddd.sol\":7177:7188  return true */\n      swap1\n      pop\n        /* \"contracts/ddddd.sol\":6976:7196  function MoHRevokePermission(address _address1, address _address2) public returns(bool success) {\r... */\n      swap3\n      swap2\n      pop\n      pop\n      jump\t// out\n        /* \"contracts/ddddd.sol\":1751:1791  uint256 public userPermissionCounter = 0 */\n    tag_155:\n      sload(0xe)\n      dup2\n      jump\t// out\n        /* \"contracts/ddddd.sol\":8097:8466  function searchDoctor(address _address) public view returns(string, string, string, string, string, string, string, address) {\r... */\n    tag_160:\n        /* \"contracts/ddddd.sol\":8157:8163  string */\n      0x60\n        /* \"contracts/ddddd.sol\":8165:8171  string */\n      dup1\n        /* \"contracts/ddddd.sol\":8173:8179  string */\n      0x60\n        /* \"contracts/ddddd.sol\":8181:8187  string */\n      dup1\n        /* \"contracts/ddddd.sol\":8189:8195  string */\n      0x60\n        /* \"contracts/ddddd.sol\":8197:8203  string */\n      dup1\n        /* \"contracts/ddddd.sol\":8205:8211  string */\n      0x60\n        /* \"contracts/ddddd.sol\":8213:8220  address */\n      0x0\n        /* \"contracts/ddddd.sol\":8323:8328  var d */\n      dup1\n        /* \"contracts/ddddd.sol\":8241:8251  isApproved */\n      0x7\n        /* \"contracts/ddddd.sol\":8241:8261  isApproved[_address] */\n      0x0\n        /* \"contracts/ddddd.sol\":8252:8260  _address */\n      dup12\n        /* \"contracts/ddddd.sol\":8241:8261  isApproved[_address] */\n      0xffffffffffffffffffffffffffffffffffffffff\n      and\n      0xffffffffffffffffffffffffffffffffffffffff\n      and\n      dup2\n      mstore\n      0x20\n      add\n      swap1\n      dup2\n      mstore\n      0x20\n      add\n      0x0\n      keccak256\n        /* \"contracts/ddddd.sol\":8241:8273  isApproved[_address][msg.sender] */\n      0x0\n        /* \"contracts/ddddd.sol\":8262:8272  msg.sender */\n      caller\n        /* \"contracts/ddddd.sol\":8241:8273  isApproved[_address][msg.sender] */\n      0xffffffffffffffffffffffffffffffffffffffff\n      and\n      0xffffffffffffffffffffffffffffffffffffffff\n      and\n      dup2\n      mstore\n      0x20\n      add\n      swap1\n      dup2\n      mstore\n      0x20\n      add\n      0x0\n      keccak256\n      0x0\n      swap1\n      sload\n      swap1\n      0x100\n      exp\n      swap1\n      div\n      0xff\n      and\n        /* \"contracts/ddddd.sol\":8233:8274  require(isApproved[_address][msg.sender]) */\n      iszero\n      iszero\n      tag_290\n      jumpi\n      0x0\n      dup1\n      revert\n    tag_290:\n        /* \"contracts/ddddd.sol\":8293:8301  isDoctor */\n      0x9\n        /* \"contracts/ddddd.sol\":8293:8311  isDoctor[_address] */\n      0x0\n        /* \"contracts/ddddd.sol\":8302:8310  _address */\n      dup12\n        /* \"contracts/ddddd.sol\":8293:8311  isDoctor[_address] */\n      0xffffffffffffffffffffffffffffffffffffffff\n      and\n      0xffffffffffffffffffffffffffffffffffffffff\n      and\n      dup2\n      mstore\n      0x20\n      add\n      swap1\n      dup2\n      mstore\n      0x20\n      add\n      0x0\n      keccak256\n      0x0\n      swap1\n      sload\n      swap1\n      0x100\n      exp\n      swap1\n      div\n      0xff\n      and\n        /* \"contracts/ddddd.sol\":8285:8312  require(isDoctor[_address]) */\n      iszero\n      iszero\n      tag_291\n      jumpi\n      0x0\n      dup1\n      revert\n    tag_291:\n        /* \"contracts/ddddd.sol\":8331:8337  doctor */\n      0x5\n        /* \"contracts/ddddd.sol\":8331:8347  doctor[_address] */\n      0x0\n        /* \"contracts/ddddd.sol\":8338:8346  _address */\n      dup12\n        /* \"contracts/ddddd.sol\":8331:8347  doctor[_address] */\n      0xffffffffffffffffffffffffffffffffffffffff\n      and\n      0xffffffffffffffffffffffffffffffffffffffff\n      and\n      dup2\n      mstore\n      0x20\n      add\n      swap1\n      dup2\n      mstore\n      0x20\n      add\n      0x0\n      keccak256\n        /* \"contracts/ddddd.sol\":8323:8347  var d = doctor[_address] */\n      swap1\n      pop\n        /* \"contracts/ddddd.sol\":8376:8377  d */\n      dup1\n        /* \"contracts/ddddd.sol\":8376:8383  d.uaeId */\n      0x0\n      add\n        /* \"contracts/ddddd.sol\":8385:8386  d */\n      dup2\n        /* \"contracts/ddddd.sol\":8385:8391  d.name */\n      0x1\n      add\n        /* \"contracts/ddddd.sol\":8393:8394  d */\n      dup3\n        /* \"contracts/ddddd.sol\":8393:8400  d.phone */\n      0x2\n      add\n        /* \"contracts/ddddd.sol\":8402:8403  d */\n      dup4\n        /* \"contracts/ddddd.sol\":8402:8410  d.gender */\n      0x3\n      add\n        /* \"contracts/ddddd.sol\":8412:8413  d */\n      dup5\n        /* \"contracts/ddddd.sol\":8412:8419  d.email */\n      0x5\n      add\n        /* \"contracts/ddddd.sol\":8421:8422  d */\n      dup6\n        /* \"contracts/ddddd.sol\":8421:8436  d.qualification */\n      0x6\n      add\n        /* \"contracts/ddddd.sol\":8438:8439  d */\n      dup7\n        /* \"contracts/ddddd.sol\":8438:8445  d.major */\n      0x7\n      add\n        /* \"contracts/ddddd.sol\":8447:8448  d */\n      dup8\n        /* \"contracts/ddddd.sol\":8447:8457  d.eAddress */\n      0x8\n      add\n      0x0\n      swap1\n      sload\n      swap1\n      0x100\n      exp\n      swap1\n      div\n      0xffffffffffffffffffffffffffffffffffffffff\n      and\n        /* \"contracts/ddddd.sol\":8368:8458  return (d.uaeId, d.name, d.phone, d.gender, d.email, d.qualification, d.major, d.eAddress) */\n      dup8\n      dup1\n      sload\n      0x1\n      dup2\n      0x1\n      and\n      iszero\n      0x100\n      mul\n      sub\n      and\n      0x2\n      swap1\n      div\n      dup1\n      0x1f\n      add\n      0x20\n      dup1\n      swap2\n      div\n      mul\n      0x20\n      add\n      mload(0x40)\n      swap1\n      dup2\n      add\n      0x40\n      mstore\n      dup1\n      swap3\n      swap2\n      swap1\n      dup2\n      dup2\n      mstore\n      0x20\n      add\n      dup3\n      dup1\n      sload\n      0x1\n      dup2\n      0x1\n      and\n      iszero\n      0x100\n      mul\n      sub\n      and\n      0x2\n      swap1\n      div\n      dup1\n      iszero\n      tag_292\n      jumpi\n      dup1\n      0x1f\n      lt\n      tag_293\n      jumpi\n      0x100\n      dup1\n      dup4\n      sload\n      div\n      mul\n      dup4\n      mstore\n      swap2\n      0x20\n      add\n      swap2\n      jump(tag_292)\n    tag_293:\n      dup3\n      add\n      swap2\n      swap1\n      0x0\n      mstore\n      keccak256(0x0, 0x20)\n      swap1\n    tag_294:\n      dup2\n      sload\n      dup2\n      mstore\n      swap1\n      0x1\n      add\n      swap1\n      0x20\n      add\n      dup1\n      dup4\n      gt\n      tag_294\n      jumpi\n      dup3\n      swap1\n      sub\n      0x1f\n      and\n      dup3\n      add\n      swap2\n    tag_292:\n      pop\n      pop\n      pop\n      pop\n      pop\n      swap8\n      pop\n      dup7\n      dup1\n      sload\n      0x1\n      dup2\n      0x1\n      and\n      iszero\n      0x100\n      mul\n      sub\n      and\n      0x2\n      swap1\n      div\n      dup1\n      0x1f\n      add\n      0x20\n      dup1\n      swap2\n      div\n      mul\n      0x20\n      add\n      mload(0x40)\n      swap1\n      dup2\n      add\n      0x40\n      mstore\n      dup1\n      swap3\n      swap2\n      swap1\n      dup2\n      dup2\n      mstore\n      0x20\n      add\n      dup3\n      dup1\n      sload\n      0x1\n      dup2\n      0x1\n      and\n      iszero\n      0x100\n      mul\n      sub\n      and\n      0x2\n      swap1\n      div\n      dup1\n      iszero\n      tag_295\n      jumpi\n      dup1\n      0x1f\n      lt\n      tag_296\n      jumpi\n      0x100\n      dup1\n      dup4\n      sload\n      div\n      mul\n      dup4\n      mstore\n      swap2\n      0x20\n      add\n      swap2\n      jump(tag_295)\n    tag_296:\n      dup3\n      add\n      swap2\n      swap1\n      0x0\n      mstore\n      keccak256(0x0, 0x20)\n      swap1\n    tag_297:\n      dup2\n      sload\n      dup2\n      mstore\n      swap1\n      0x1\n      add\n      swap1\n      0x20\n      add\n      dup1\n      dup4\n      gt\n      tag_297\n      jumpi\n      dup3\n      swap1\n      sub\n      0x1f\n      and\n      dup3\n      add\n      swap2\n    tag_295:\n      pop\n      pop\n      pop\n      pop\n      pop\n      swap7\n      pop\n      dup6\n      dup1\n      sload\n      0x1\n      dup2\n      0x1\n      and\n      iszero\n      0x100\n      mul\n      sub\n      and\n      0x2\n      swap1\n      div\n      dup1\n      0x1f\n      add\n      0x20\n      dup1\n      swap2\n      div\n      mul\n      0x20\n      add\n      mload(0x40)\n      swap1\n      dup2\n      add\n      0x40\n      mstore\n      dup1\n      swap3\n      swap2\n      swap1\n      dup2\n      dup2\n      mstore\n      0x20\n      add\n      dup3\n      dup1\n      sload\n      0x1\n      dup2\n      0x1\n      and\n      iszero\n      0x100\n      mul\n      sub\n      and\n      0x2\n      swap1\n      div\n      dup1\n      iszero\n      tag_298\n      jumpi\n      dup1\n      0x1f\n      lt\n      tag_299\n      jumpi\n      0x100\n      dup1\n      dup4\n      sload\n      div\n      mul\n      dup4\n      mstore\n      swap2\n      0x20\n      add\n      swap2\n      jump(tag_298)\n    tag_299:\n      dup3\n      add\n      swap2\n      swap1\n      0x0\n      mstore\n      keccak256(0x0, 0x20)\n      swap1\n    tag_300:\n      dup2\n      sload\n      dup2\n      mstore\n      swap1\n      0x1\n      add\n      swap1\n      0x20\n      add\n      dup1\n      dup4\n      gt\n      tag_300\n      jumpi\n      dup3\n      swap1\n      sub\n      0x1f\n      and\n      dup3\n      add\n      swap2\n    tag_298:\n      pop\n      pop\n      pop\n      pop\n      pop\n      swap6\n      pop\n      dup5\n      dup1\n      sload\n      0x1\n      dup2\n      0x1\n      and\n      iszero\n      0x100\n      mul\n      sub\n      and\n      0x2\n      swap1\n      div\n      dup1\n      0x1f\n      add\n      0x20\n      dup1\n      swap2\n      div\n      mul\n      0x20\n      add\n      mload(0x40)\n      swap1\n      dup2\n      add\n      0x40\n      mstore\n      dup1\n      swap3\n      swap2\n      swap1\n      dup2\n      dup2\n      mstore\n      0x20\n      add\n      dup3\n      dup1\n      sload\n      0x1\n      dup2\n      0x1\n      and\n      iszero\n      0x100\n      mul\n      sub\n      and\n      0x2\n      swap1\n      div\n      dup1\n      iszero\n      tag_301\n      jumpi\n      dup1\n      0x1f\n      lt\n      tag_302\n      jumpi\n      0x100\n      dup1\n      dup4\n      sload\n      div\n      mul\n      dup4\n      mstore\n      swap2\n      0x20\n      add\n      swap2\n      jump(tag_301)\n    tag_302:\n      dup3\n      add\n      swap2\n      swap1\n      0x0\n      mstore\n      keccak256(0x0, 0x20)\n      swap1\n    tag_303:\n      dup2\n      sload\n      dup2\n      mstore\n      swap1\n      0x1\n      add\n      swap1\n      0x20\n      add\n      dup1\n      dup4\n      gt\n      tag_303\n      jumpi\n      dup3\n      swap1\n      sub\n      0x1f\n      and\n      dup3\n      add\n      swap2\n    tag_301:\n      pop\n      pop\n      pop\n      pop\n      pop\n      swap5\n      pop\n      dup4\n      dup1\n      sload\n      0x1\n      dup2\n      0x1\n      and\n      iszero\n      0x100\n      mul\n      sub\n      and\n      0x2\n      swap1\n      div\n      dup1\n      0x1f\n      add\n      0x20\n      dup1\n      swap2\n      div\n      mul\n      0x20\n      add\n      mload(0x40)\n      swap1\n      dup2\n      add\n      0x40\n      mstore\n      dup1\n      swap3\n      swap2\n      swap1\n      dup2\n      dup2\n      mstore\n      0x20\n      add\n      dup3\n      dup1\n      sload\n      0x1\n      dup2\n      0x1\n      and\n      iszero\n      0x100\n      mul\n      sub\n      and\n      0x2\n      swap1\n      div\n      dup1\n      iszero\n      tag_304\n      jumpi\n      dup1\n      0x1f\n      lt\n      tag_305\n      jumpi\n      0x100\n      dup1\n      dup4\n      sload\n      div\n      mul\n      dup4\n      mstore\n      swap2\n      0x20\n      add\n      swap2\n      jump(tag_304)\n    tag_305:\n      dup3\n      add\n      swap2\n      swap1\n      0x0\n      mstore\n      keccak256(0x0, 0x20)\n      swap1\n    tag_306:\n      dup2\n      sload\n      dup2\n      mstore\n      swap1\n      0x1\n      add\n      swap1\n      0x20\n      add\n      dup1\n      dup4\n      gt\n      tag_306\n      jumpi\n      dup3\n      swap1\n      sub\n      0x1f\n      and\n      dup3\n      add\n      swap2\n    tag_304:\n      pop\n      pop\n      pop\n      pop\n      pop\n      swap4\n      pop\n      dup3\n      dup1\n      sload\n      0x1\n      dup2\n      0x1\n      and\n      iszero\n      0x100\n      mul\n      sub\n      and\n      0x2\n      swap1\n      div\n      dup1\n      0x1f\n      add\n      0x20\n      dup1\n      swap2\n      div\n      mul\n      0x20\n      add\n      mload(0x40)\n      swap1\n      dup2\n      add\n      0x40\n      mstore\n      dup1\n      swap3\n      swap2\n      swap1\n      dup2\n      dup2\n      mstore\n      0x20\n      add\n      dup3\n      dup1\n      sload\n      0x1\n      dup2\n      0x1\n      and\n      iszero\n      0x100\n      mul\n      sub\n      and\n      0x2\n      swap1\n      div\n      dup1\n      iszero\n      tag_307\n      jumpi\n      dup1\n      0x1f\n      lt\n      tag_308\n      jumpi\n      0x100\n      dup1\n      dup4\n      sload\n      div\n      mul\n      dup4\n      mstore\n      swap2\n      0x20\n      add\n      swap2\n      jump(tag_307)\n    tag_308:\n      dup3\n      add\n      swap2\n      swap1\n      0x0\n      mstore\n      keccak256(0x0, 0x20)\n      swap1\n    tag_309:\n      dup2\n      sload\n      dup2\n      mstore\n      swap1\n      0x1\n      add\n      swap1\n      0x20\n      add\n      dup1\n      dup4\n      gt\n      tag_309\n      jumpi\n      dup3\n      swap1\n      sub\n      0x1f\n      and\n      dup3\n      add\n      swap2\n    tag_307:\n      pop\n      pop\n      pop\n      pop\n      pop\n      swap3\n      pop\n      dup2\n      dup1\n      sload\n      0x1\n      dup2\n      0x1\n      and\n      iszero\n      0x100\n      mul\n      sub\n      and\n      0x2\n      swap1\n      div\n      dup1\n      0x1f\n      add\n      0x20\n      dup1\n      swap2\n      div\n      mul\n      0x20\n      add\n      mload(0x40)\n      swap1\n      dup2\n      add\n      0x40\n      mstore\n      dup1\n      swap3\n      swap2\n      swap1\n      dup2\n      dup2\n      mstore\n      0x20\n      add\n      dup3\n      dup1\n      sload\n      0x1\n      dup2\n      0x1\n      and\n      iszero\n      0x100\n      mul\n      sub\n      and\n      0x2\n      swap1\n      div\n      dup1\n      iszero\n      tag_310\n      jumpi\n      dup1\n      0x1f\n      lt\n      tag_311\n      jumpi\n      0x100\n      dup1\n      dup4\n      sload\n      div\n      mul\n      dup4\n      mstore\n      swap2\n      0x20\n      add\n      swap2\n      jump(tag_310)\n    tag_311:\n      dup3\n      add\n      swap2\n      swap1\n      0x0\n      mstore\n      keccak256(0x0, 0x20)\n      swap1\n    tag_312:\n      dup2\n      sload\n      dup2\n      mstore\n      swap1\n      0x1\n      add\n      swap1\n      0x20\n      add\n      dup1\n      dup4\n      gt\n      tag_312\n      jumpi\n      dup3\n      swap1\n      sub\n      0x1f\n      and\n      dup3\n      add\n      swap2\n    tag_310:\n      pop\n      pop\n      pop\n      pop\n      pop\n      swap2\n      pop\n      swap9\n      pop\n      swap9\n      pop\n      swap9\n      pop\n      swap9\n      pop\n      swap9\n      pop\n      swap9\n      pop\n      swap9\n      pop\n      swap9\n      pop\n        /* \"contracts/ddddd.sol\":8097:8466  function searchDoctor(address _address) public view returns(string, string, string, string, string, string, string, address) {\r... */\n      pop\n      swap2\n      swap4\n      swap6\n      swap8\n      pop\n      swap2\n      swap4\n      swap6\n      swap8\n      jump\t// out\n        /* \"contracts/ddddd.sol\":6548:6800  function givePermissionByMoH(address _address1, address _address2) public returns(bool success) {\r... */\n    tag_165:\n        /* \"contracts/ddddd.sol\":6630:6642  bool success */\n      0x0\n        /* \"contracts/ddddd.sol\":6677:6686  mohAdress */\n      0x10\n      0x0\n      swap1\n      sload\n      swap1\n      0x100\n      exp\n      swap1\n      div\n      0xffffffffffffffffffffffffffffffffffffffff\n      and\n        /* \"contracts/ddddd.sol\":6663:6686  msg.sender == mohAdress */\n      0xffffffffffffffffffffffffffffffffffffffff\n      and\n        /* \"contracts/ddddd.sol\":6663:6673  msg.sender */\n      caller\n        /* \"contracts/ddddd.sol\":6663:6686  msg.sender == mohAdress */\n      0xffffffffffffffffffffffffffffffffffffffff\n      and\n      eq\n        /* \"contracts/ddddd.sol\":6655:6687  require(msg.sender == mohAdress) */\n      iszero\n      iszero\n      tag_314\n      jumpi\n      0x0\n      dup1\n      revert\n    tag_314:\n        /* \"contracts/ddddd.sol\":6733:6737  true */\n      0x1\n        /* \"contracts/ddddd.sol\":6698:6708  isApproved */\n      0x7\n        /* \"contracts/ddddd.sol\":6698:6719  isApproved[_address1] */\n      0x0\n        /* \"contracts/ddddd.sol\":6709:6718  _address1 */\n      dup6\n        /* \"contracts/ddddd.sol\":6698:6719  isApproved[_address1] */\n      0xffffffffffffffffffffffffffffffffffffffff\n      and\n      0xffffffffffffffffffffffffffffffffffffffff\n      and\n      dup2\n      mstore\n      0x20\n      add\n      swap1\n      dup2\n      mstore\n      0x20\n      add\n      0x0\n      keccak256\n        /* \"contracts/ddddd.sol\":6698:6730  isApproved[_address1][_address2] */\n      0x0\n        /* \"contracts/ddddd.sol\":6720:6729  _address2 */\n      dup5\n        /* \"contracts/ddddd.sol\":6698:6730  isApproved[_address1][_address2] */\n      0xffffffffffffffffffffffffffffffffffffffff\n      and\n      0xffffffffffffffffffffffffffffffffffffffff\n      and\n      dup2\n      mstore\n      0x20\n      add\n      swap1\n      dup2\n      mstore\n      0x20\n      add\n      0x0\n      keccak256\n      0x0\n        /* \"contracts/ddddd.sol\":6698:6737  isApproved[_address1][_address2] = true */\n      0x100\n      exp\n      dup2\n      sload\n      dup2\n      0xff\n      mul\n      not\n      and\n      swap1\n      dup4\n      iszero\n      iszero\n      mul\n      or\n      swap1\n      sstore\n      pop\n        /* \"contracts/ddddd.sol\":6748:6768  MoHPermissionCounter */\n      0xd\n      0x0\n        /* \"contracts/ddddd.sol\":6748:6770  MoHPermissionCounter++ */\n      dup2\n      sload\n      dup1\n      swap3\n      swap2\n      swap1\n      0x1\n      add\n      swap2\n      swap1\n      pop\n      sstore\n      pop\n        /* \"contracts/ddddd.sol\":6788:6792  true */\n      0x1\n        /* \"contracts/ddddd.sol\":6781:6792  return true */\n      swap1\n      pop\n        /* \"contracts/ddddd.sol\":6548:6800  function givePermissionByMoH(address _address1, address _address2) public returns(bool success) {\r... */\n      swap3\n      swap2\n      pop\n      pop\n      jump\t// out\n        /* \"contracts/ddddd.sol\":8804:8914  function getMoHPermissionCounter() public view returns(uint256) {\r... */\n    tag_169:\n        /* \"contracts/ddddd.sol\":8859:8866  uint256 */\n      0x0\n        /* \"contracts/ddddd.sol\":8886:8906  MoHPermissionCounter */\n      sload(0xd)\n        /* \"contracts/ddddd.sol\":8879:8906  return MoHPermissionCounter */\n      swap1\n      pop\n        /* \"contracts/ddddd.sol\":8804:8914  function getMoHPermissionCounter() public view returns(uint256) {\r... */\n      swap1\n      jump\t// out\n        /* \"contracts/ddddd.sol\":1129:1161  address[] public vaccinationList */\n    tag_174:\n      0x3\n      dup2\n      dup2\n      sload\n      dup2\n      lt\n      iszero\n      iszero\n      tag_316\n      jumpi\n      invalid\n    tag_316:\n      swap1\n      0x0\n      mstore\n      keccak256(0x0, 0x20)\n      add\n      0x0\n      swap2\n      pop\n      sload\n      swap1\n      0x100\n      exp\n      swap1\n      div\n      0xffffffffffffffffffffffffffffffffffffffff\n      and\n      dup2\n      jump\t// out\n        /* \"contracts/ddddd.sol\":91:9231  contract ddddd {\r... */\n    tag_209:\n      dup3\n      dup1\n      sload\n      0x1\n      dup2\n      0x1\n      and\n      iszero\n      0x100\n      mul\n      sub\n      and\n      0x2\n      swap1\n      div\n      swap1\n      0x0\n      mstore\n      keccak256(0x0, 0x20)\n      swap1\n      0x1f\n      add\n      0x20\n      swap1\n      div\n      dup2\n      add\n      swap3\n      dup3\n      0x1f\n      lt\n      tag_319\n      jumpi\n      dup1\n      mload\n      not(0xff)\n      and\n      dup4\n      dup1\n      add\n      or\n      dup6\n      sstore\n      jump(tag_318)\n    tag_319:\n      dup3\n      dup1\n      add\n      0x1\n      add\n      dup6\n      sstore\n      dup3\n      iszero\n      tag_318\n      jumpi\n      swap2\n      dup3\n      add\n    tag_320:\n      dup3\n      dup2\n      gt\n      iszero\n      tag_321\n      jumpi\n      dup3\n      mload\n      dup3\n      sstore\n      swap2\n      0x20\n      add\n      swap2\n      swap1\n      0x1\n      add\n      swap1\n      jump(tag_320)\n    tag_321:\n    tag_318:\n      pop\n      swap1\n      pop\n      tag_322\n      swap2\n      swap1\n      jump\t// in(tag_323)\n    tag_322:\n      pop\n      swap1\n      jump\t// out\n    tag_323:\n      tag_324\n      swap2\n      swap1\n    tag_325:\n      dup1\n      dup3\n      gt\n      iszero\n      tag_326\n      jumpi\n      0x0\n      dup2\n      0x0\n      swap1\n      sstore\n      pop\n      0x1\n      add\n      jump(tag_325)\n    tag_326:\n      pop\n      swap1\n      jump\n    tag_324:\n      swap1\n      jump\t// out\n        /* \"--CODEGEN--\":5:123   */\n    tag_328:\n      0x0\n        /* \"--CODEGEN--\":72:118   */\n      tag_329\n        /* \"--CODEGEN--\":110:116   */\n      dup3\n        /* \"--CODEGEN--\":97:117   */\n      calldataload\n        /* \"--CODEGEN--\":72:118   */\n      jump(tag_330)\n    tag_329:\n        /* \"--CODEGEN--\":63:118   */\n      swap1\n      pop\n        /* \"--CODEGEN--\":57:123   */\n      swap3\n      swap2\n      pop\n      pop\n      jump\n        /* \"--CODEGEN--\":131:573   */\n    tag_332:\n      0x0\n        /* \"--CODEGEN--\":233:236   */\n      dup3\n        /* \"--CODEGEN--\":226:230   */\n      0x1f\n        /* \"--CODEGEN--\":218:224   */\n      dup4\n        /* \"--CODEGEN--\":214:231   */\n      add\n        /* \"--CODEGEN--\":210:237   */\n      slt\n        /* \"--CODEGEN--\":203:238   */\n      iszero\n        /* \"--CODEGEN--\":200:202   */\n      iszero\n      tag_333\n      jumpi\n        /* \"--CODEGEN--\":251:252   */\n      0x0\n        /* \"--CODEGEN--\":248:249   */\n      dup1\n        /* \"--CODEGEN--\":241:253   */\n      revert\n        /* \"--CODEGEN--\":200:202   */\n    tag_333:\n        /* \"--CODEGEN--\":288:294   */\n      dup2\n        /* \"--CODEGEN--\":275:295   */\n      calldataload\n        /* \"--CODEGEN--\":310:375   */\n      tag_334\n        /* \"--CODEGEN--\":325:374   */\n      tag_335\n        /* \"--CODEGEN--\":367:373   */\n      dup3\n        /* \"--CODEGEN--\":325:374   */\n      jump(tag_336)\n    tag_335:\n        /* \"--CODEGEN--\":310:375   */\n      jump(tag_337)\n    tag_334:\n        /* \"--CODEGEN--\":301:375   */\n      swap2\n      pop\n        /* \"--CODEGEN--\":395:401   */\n      dup1\n        /* \"--CODEGEN--\":388:393   */\n      dup3\n        /* \"--CODEGEN--\":381:402   */\n      mstore\n        /* \"--CODEGEN--\":431:435   */\n      0x20\n        /* \"--CODEGEN--\":423:429   */\n      dup4\n        /* \"--CODEGEN--\":419:436   */\n      add\n        /* \"--CODEGEN--\":464:468   */\n      0x20\n        /* \"--CODEGEN--\":457:462   */\n      dup4\n        /* \"--CODEGEN--\":453:469   */\n      add\n        /* \"--CODEGEN--\":499:502   */\n      dup6\n        /* \"--CODEGEN--\":490:496   */\n      dup4\n        /* \"--CODEGEN--\":485:488   */\n      dup4\n        /* \"--CODEGEN--\":481:497   */\n      add\n        /* \"--CODEGEN--\":478:503   */\n      gt\n        /* \"--CODEGEN--\":475:477   */\n      iszero\n      tag_338\n      jumpi\n        /* \"--CODEGEN--\":516:517   */\n      0x0\n        /* \"--CODEGEN--\":513:514   */\n      dup1\n        /* \"--CODEGEN--\":506:518   */\n      revert\n        /* \"--CODEGEN--\":475:477   */\n    tag_338:\n        /* \"--CODEGEN--\":526:567   */\n      tag_339\n        /* \"--CODEGEN--\":560:566   */\n      dup4\n        /* \"--CODEGEN--\":555:558   */\n      dup3\n        /* \"--CODEGEN--\":550:553   */\n      dup5\n        /* \"--CODEGEN--\":526:567   */\n      jump(tag_340)\n    tag_339:\n        /* \"--CODEGEN--\":193:573   */\n      pop\n      pop\n      pop\n      swap3\n      swap2\n      pop\n      pop\n      jump\n        /* \"--CODEGEN--\":581:699   */\n    tag_342:\n      0x0\n        /* \"--CODEGEN--\":648:694   */\n      tag_343\n        /* \"--CODEGEN--\":686:692   */\n      dup3\n        /* \"--CODEGEN--\":673:693   */\n      calldataload\n        /* \"--CODEGEN--\":648:694   */\n      jump(tag_344)\n    tag_343:\n        /* \"--CODEGEN--\":639:694   */\n      swap1\n      pop\n        /* \"--CODEGEN--\":633:699   */\n      swap3\n      swap2\n      pop\n      pop\n      jump\n        /* \"--CODEGEN--\":706:947   */\n    tag_45:\n      0x0\n        /* \"--CODEGEN--\":810:812   */\n      0x20\n        /* \"--CODEGEN--\":798:807   */\n      dup3\n        /* \"--CODEGEN--\":789:796   */\n      dup5\n        /* \"--CODEGEN--\":785:808   */\n      sub\n        /* \"--CODEGEN--\":781:813   */\n      slt\n        /* \"--CODEGEN--\":778:780   */\n      iszero\n      tag_346\n      jumpi\n        /* \"--CODEGEN--\":826:827   */\n      0x0\n        /* \"--CODEGEN--\":823:824   */\n      dup1\n        /* \"--CODEGEN--\":816:828   */\n      revert\n        /* \"--CODEGEN--\":778:780   */\n    tag_346:\n        /* \"--CODEGEN--\":861:862   */\n      0x0\n        /* \"--CODEGEN--\":878:931   */\n      tag_347\n        /* \"--CODEGEN--\":923:930   */\n      dup5\n        /* \"--CODEGEN--\":914:920   */\n      dup3\n        /* \"--CODEGEN--\":903:912   */\n      dup6\n        /* \"--CODEGEN--\":899:921   */\n      add\n        /* \"--CODEGEN--\":878:931   */\n      jump(tag_328)\n    tag_347:\n        /* \"--CODEGEN--\":868:931   */\n      swap2\n      pop\n        /* \"--CODEGEN--\":840:937   */\n      pop\n        /* \"--CODEGEN--\":772:947   */\n      swap3\n      swap2\n      pop\n      pop\n      jump\n        /* \"--CODEGEN--\":954:1320   */\n    tag_150:\n      0x0\n      dup1\n        /* \"--CODEGEN--\":1075:1077   */\n      0x40\n        /* \"--CODEGEN--\":1063:1072   */\n      dup4\n        /* \"--CODEGEN--\":1054:1061   */\n      dup6\n        /* \"--CODEGEN--\":1050:1073   */\n      sub\n        /* \"--CODEGEN--\":1046:1078   */\n      slt\n        /* \"--CODEGEN--\":1043:1045   */\n      iszero\n      tag_349\n      jumpi\n        /* \"--CODEGEN--\":1091:1092   */\n      0x0\n        /* \"--CODEGEN--\":1088:1089   */\n      dup1\n        /* \"--CODEGEN--\":1081:1093   */\n      revert\n        /* \"--CODEGEN--\":1043:1045   */\n    tag_349:\n        /* \"--CODEGEN--\":1126:1127   */\n      0x0\n        /* \"--CODEGEN--\":1143:1196   */\n      tag_350\n        /* \"--CODEGEN--\":1188:1195   */\n      dup6\n        /* \"--CODEGEN--\":1179:1185   */\n      dup3\n        /* \"--CODEGEN--\":1168:1177   */\n      dup7\n        /* \"--CODEGEN--\":1164:1186   */\n      add\n        /* \"--CODEGEN--\":1143:1196   */\n      jump(tag_328)\n    tag_350:\n        /* \"--CODEGEN--\":1133:1196   */\n      swap3\n      pop\n        /* \"--CODEGEN--\":1105:1202   */\n      pop\n        /* \"--CODEGEN--\":1233:1235   */\n      0x20\n        /* \"--CODEGEN--\":1251:1304   */\n      tag_351\n        /* \"--CODEGEN--\":1296:1303   */\n      dup6\n        /* \"--CODEGEN--\":1287:1293   */\n      dup3\n        /* \"--CODEGEN--\":1276:1285   */\n      dup7\n        /* \"--CODEGEN--\":1272:1294   */\n      add\n        /* \"--CODEGEN--\":1251:1304   */\n      jump(tag_328)\n    tag_351:\n        /* \"--CODEGEN--\":1241:1304   */\n      swap2\n      pop\n        /* \"--CODEGEN--\":1212:1310   */\n      pop\n        /* \"--CODEGEN--\":1037:1320   */\n      swap3\n      pop\n      swap3\n      swap1\n      pop\n      jump\n        /* \"--CODEGEN--\":1327:2746   */\n    tag_78:\n      0x0\n      dup1\n      0x0\n      dup1\n      0x0\n      dup1\n      0x0\n        /* \"--CODEGEN--\":1573:1576   */\n      0xe0\n        /* \"--CODEGEN--\":1561:1570   */\n      dup9\n        /* \"--CODEGEN--\":1552:1559   */\n      dup11\n        /* \"--CODEGEN--\":1548:1571   */\n      sub\n        /* \"--CODEGEN--\":1544:1577   */\n      slt\n        /* \"--CODEGEN--\":1541:1543   */\n      iszero\n      tag_353\n      jumpi\n        /* \"--CODEGEN--\":1590:1591   */\n      0x0\n        /* \"--CODEGEN--\":1587:1588   */\n      dup1\n        /* \"--CODEGEN--\":1580:1592   */\n      revert\n        /* \"--CODEGEN--\":1541:1543   */\n    tag_353:\n        /* \"--CODEGEN--\":1625:1626   */\n      0x0\n        /* \"--CODEGEN--\":1642:1695   */\n      tag_354\n        /* \"--CODEGEN--\":1687:1694   */\n      dup11\n        /* \"--CODEGEN--\":1678:1684   */\n      dup3\n        /* \"--CODEGEN--\":1667:1676   */\n      dup12\n        /* \"--CODEGEN--\":1663:1685   */\n      add\n        /* \"--CODEGEN--\":1642:1695   */\n      jump(tag_328)\n    tag_354:\n        /* \"--CODEGEN--\":1632:1695   */\n      swap8\n      pop\n        /* \"--CODEGEN--\":1604:1701   */\n      pop\n        /* \"--CODEGEN--\":1732:1734   */\n      0x20\n        /* \"--CODEGEN--\":1750:1803   */\n      tag_355\n        /* \"--CODEGEN--\":1795:1802   */\n      dup11\n        /* \"--CODEGEN--\":1786:1792   */\n      dup3\n        /* \"--CODEGEN--\":1775:1784   */\n      dup12\n        /* \"--CODEGEN--\":1771:1793   */\n      add\n        /* \"--CODEGEN--\":1750:1803   */\n      jump(tag_328)\n    tag_355:\n        /* \"--CODEGEN--\":1740:1803   */\n      swap7\n      pop\n        /* \"--CODEGEN--\":1711:1809   */\n      pop\n        /* \"--CODEGEN--\":1868:1870   */\n      0x40\n        /* \"--CODEGEN--\":1857:1866   */\n      dup9\n        /* \"--CODEGEN--\":1853:1871   */\n      add\n        /* \"--CODEGEN--\":1840:1872   */\n      calldataload\n        /* \"--CODEGEN--\":1892:1910   */\n      0xffffffffffffffff\n        /* \"--CODEGEN--\":1884:1890   */\n      dup2\n        /* \"--CODEGEN--\":1881:1911   */\n      gt\n        /* \"--CODEGEN--\":1878:1880   */\n      iszero\n      tag_356\n      jumpi\n        /* \"--CODEGEN--\":1924:1925   */\n      0x0\n        /* \"--CODEGEN--\":1921:1922   */\n      dup1\n        /* \"--CODEGEN--\":1914:1926   */\n      revert\n        /* \"--CODEGEN--\":1878:1880   */\n    tag_356:\n        /* \"--CODEGEN--\":1944:2007   */\n      tag_357\n        /* \"--CODEGEN--\":1999:2006   */\n      dup11\n        /* \"--CODEGEN--\":1990:1996   */\n      dup3\n        /* \"--CODEGEN--\":1979:1988   */\n      dup12\n        /* \"--CODEGEN--\":1975:1997   */\n      add\n        /* \"--CODEGEN--\":1944:2007   */\n      jump(tag_332)\n    tag_357:\n        /* \"--CODEGEN--\":1934:2007   */\n      swap6\n      pop\n        /* \"--CODEGEN--\":1819:2013   */\n      pop\n        /* \"--CODEGEN--\":2072:2074   */\n      0x60\n        /* \"--CODEGEN--\":2061:2070   */\n      dup9\n        /* \"--CODEGEN--\":2057:2075   */\n      add\n        /* \"--CODEGEN--\":2044:2076   */\n      calldataload\n        /* \"--CODEGEN--\":2096:2114   */\n      0xffffffffffffffff\n        /* \"--CODEGEN--\":2088:2094   */\n      dup2\n        /* \"--CODEGEN--\":2085:2115   */\n      gt\n        /* \"--CODEGEN--\":2082:2084   */\n      iszero\n      tag_358\n      jumpi\n        /* \"--CODEGEN--\":2128:2129   */\n      0x0\n        /* \"--CODEGEN--\":2125:2126   */\n      dup1\n        /* \"--CODEGEN--\":2118:2130   */\n      revert\n        /* \"--CODEGEN--\":2082:2084   */\n    tag_358:\n        /* \"--CODEGEN--\":2148:2211   */\n      tag_359\n        /* \"--CODEGEN--\":2203:2210   */\n      dup11\n        /* \"--CODEGEN--\":2194:2200   */\n      dup3\n        /* \"--CODEGEN--\":2183:2192   */\n      dup12\n        /* \"--CODEGEN--\":2179:2201   */\n      add\n        /* \"--CODEGEN--\":2148:2211   */\n      jump(tag_332)\n    tag_359:\n        /* \"--CODEGEN--\":2138:2211   */\n      swap5\n      pop\n        /* \"--CODEGEN--\":2023:2217   */\n      pop\n        /* \"--CODEGEN--\":2276:2279   */\n      0x80\n        /* \"--CODEGEN--\":2265:2274   */\n      dup9\n        /* \"--CODEGEN--\":2261:2280   */\n      add\n        /* \"--CODEGEN--\":2248:2281   */\n      calldataload\n        /* \"--CODEGEN--\":2301:2319   */\n      0xffffffffffffffff\n        /* \"--CODEGEN--\":2293:2299   */\n      dup2\n        /* \"--CODEGEN--\":2290:2320   */\n      gt\n        /* \"--CODEGEN--\":2287:2289   */\n      iszero\n      tag_360\n      jumpi\n        /* \"--CODEGEN--\":2333:2334   */\n      0x0\n        /* \"--CODEGEN--\":2330:2331   */\n      dup1\n        /* \"--CODEGEN--\":2323:2335   */\n      revert\n        /* \"--CODEGEN--\":2287:2289   */\n    tag_360:\n        /* \"--CODEGEN--\":2353:2416   */\n      tag_361\n        /* \"--CODEGEN--\":2408:2415   */\n      dup11\n        /* \"--CODEGEN--\":2399:2405   */\n      dup3\n        /* \"--CODEGEN--\":2388:2397   */\n      dup12\n        /* \"--CODEGEN--\":2384:2406   */\n      add\n        /* \"--CODEGEN--\":2353:2416   */\n      jump(tag_332)\n    tag_361:\n        /* \"--CODEGEN--\":2343:2416   */\n      swap4\n      pop\n        /* \"--CODEGEN--\":2227:2422   */\n      pop\n        /* \"--CODEGEN--\":2481:2484   */\n      0xa0\n        /* \"--CODEGEN--\":2470:2479   */\n      dup9\n        /* \"--CODEGEN--\":2466:2485   */\n      add\n        /* \"--CODEGEN--\":2453:2486   */\n      calldataload\n        /* \"--CODEGEN--\":2506:2524   */\n      0xffffffffffffffff\n        /* \"--CODEGEN--\":2498:2504   */\n      dup2\n        /* \"--CODEGEN--\":2495:2525   */\n      gt\n        /* \"--CODEGEN--\":2492:2494   */\n      iszero\n      tag_362\n      jumpi\n        /* \"--CODEGEN--\":2538:2539   */\n      0x0\n        /* \"--CODEGEN--\":2535:2536   */\n      dup1\n        /* \"--CODEGEN--\":2528:2540   */\n      revert\n        /* \"--CODEGEN--\":2492:2494   */\n    tag_362:\n        /* \"--CODEGEN--\":2558:2621   */\n      tag_363\n        /* \"--CODEGEN--\":2613:2620   */\n      dup11\n        /* \"--CODEGEN--\":2604:2610   */\n      dup3\n        /* \"--CODEGEN--\":2593:2602   */\n      dup12\n        /* \"--CODEGEN--\":2589:2611   */\n      add\n        /* \"--CODEGEN--\":2558:2621   */\n      jump(tag_332)\n    tag_363:\n        /* \"--CODEGEN--\":2548:2621   */\n      swap3\n      pop\n        /* \"--CODEGEN--\":2432:2627   */\n      pop\n        /* \"--CODEGEN--\":2658:2661   */\n      0xc0\n        /* \"--CODEGEN--\":2677:2730   */\n      tag_364\n        /* \"--CODEGEN--\":2722:2729   */\n      dup11\n        /* \"--CODEGEN--\":2713:2719   */\n      dup3\n        /* \"--CODEGEN--\":2702:2711   */\n      dup12\n        /* \"--CODEGEN--\":2698:2720   */\n      add\n        /* \"--CODEGEN--\":2677:2730   */\n      jump(tag_342)\n    tag_364:\n        /* \"--CODEGEN--\":2667:2730   */\n      swap2\n      pop\n        /* \"--CODEGEN--\":2637:2736   */\n      pop\n        /* \"--CODEGEN--\":1535:2746   */\n      swap3\n      swap6\n      swap9\n      swap2\n      swap5\n      swap8\n      pop\n      swap3\n      swap6\n      pop\n      jump\n        /* \"--CODEGEN--\":2753:4616   */\n    tag_63:\n      0x0\n      dup1\n      0x0\n      dup1\n      0x0\n      dup1\n      0x0\n      dup1\n        /* \"--CODEGEN--\":3046:3049   */\n      0x100\n        /* \"--CODEGEN--\":3034:3043   */\n      dup10\n        /* \"--CODEGEN--\":3025:3032   */\n      dup12\n        /* \"--CODEGEN--\":3021:3044   */\n      sub\n        /* \"--CODEGEN--\":3017:3050   */\n      slt\n        /* \"--CODEGEN--\":3014:3016   */\n      iszero\n      tag_366\n      jumpi\n        /* \"--CODEGEN--\":3063:3064   */\n      0x0\n        /* \"--CODEGEN--\":3060:3061   */\n      dup1\n        /* \"--CODEGEN--\":3053:3065   */\n      revert\n        /* \"--CODEGEN--\":3014:3016   */\n    tag_366:\n        /* \"--CODEGEN--\":3098:3099   */\n      0x0\n        /* \"--CODEGEN--\":3115:3168   */\n      tag_367\n        /* \"--CODEGEN--\":3160:3167   */\n      dup12\n        /* \"--CODEGEN--\":3151:3157   */\n      dup3\n        /* \"--CODEGEN--\":3140:3149   */\n      dup13\n        /* \"--CODEGEN--\":3136:3158   */\n      add\n        /* \"--CODEGEN--\":3115:3168   */\n      jump(tag_328)\n    tag_367:\n        /* \"--CODEGEN--\":3105:3168   */\n      swap9\n      pop\n        /* \"--CODEGEN--\":3077:3174   */\n      pop\n        /* \"--CODEGEN--\":3233:3235   */\n      0x20\n        /* \"--CODEGEN--\":3222:3231   */\n      dup10\n        /* \"--CODEGEN--\":3218:3236   */\n      add\n        /* \"--CODEGEN--\":3205:3237   */\n      calldataload\n        /* \"--CODEGEN--\":3257:3275   */\n      0xffffffffffffffff\n        /* \"--CODEGEN--\":3249:3255   */\n      dup2\n        /* \"--CODEGEN--\":3246:3276   */\n      gt\n        /* \"--CODEGEN--\":3243:3245   */\n      iszero\n      tag_368\n      jumpi\n        /* \"--CODEGEN--\":3289:3290   */\n      0x0\n        /* \"--CODEGEN--\":3286:3287   */\n      dup1\n        /* \"--CODEGEN--\":3279:3291   */\n      revert\n        /* \"--CODEGEN--\":3243:3245   */\n    tag_368:\n        /* \"--CODEGEN--\":3309:3372   */\n      tag_369\n        /* \"--CODEGEN--\":3364:3371   */\n      dup12\n        /* \"--CODEGEN--\":3355:3361   */\n      dup3\n        /* \"--CODEGEN--\":3344:3353   */\n      dup13\n        /* \"--CODEGEN--\":3340:3362   */\n      add\n        /* \"--CODEGEN--\":3309:3372   */\n      jump(tag_332)\n    tag_369:\n        /* \"--CODEGEN--\":3299:3372   */\n      swap8\n      pop\n        /* \"--CODEGEN--\":3184:3378   */\n      pop\n        /* \"--CODEGEN--\":3437:3439   */\n      0x40\n        /* \"--CODEGEN--\":3426:3435   */\n      dup10\n        /* \"--CODEGEN--\":3422:3440   */\n      add\n        /* \"--CODEGEN--\":3409:3441   */\n      calldataload\n        /* \"--CODEGEN--\":3461:3479   */\n      0xffffffffffffffff\n        /* \"--CODEGEN--\":3453:3459   */\n      dup2\n        /* \"--CODEGEN--\":3450:3480   */\n      gt\n        /* \"--CODEGEN--\":3447:3449   */\n      iszero\n      tag_370\n      jumpi\n        /* \"--CODEGEN--\":3493:3494   */\n      0x0\n        /* \"--CODEGEN--\":3490:3491   */\n      dup1\n        /* \"--CODEGEN--\":3483:3495   */\n      revert\n        /* \"--CODEGEN--\":3447:3449   */\n    tag_370:\n        /* \"--CODEGEN--\":3513:3576   */\n      tag_371\n        /* \"--CODEGEN--\":3568:3575   */\n      dup12\n        /* \"--CODEGEN--\":3559:3565   */\n      dup3\n        /* \"--CODEGEN--\":3548:3557   */\n      dup13\n        /* \"--CODEGEN--\":3544:3566   */\n      add\n        /* \"--CODEGEN--\":3513:3576   */\n      jump(tag_332)\n    tag_371:\n        /* \"--CODEGEN--\":3503:3576   */\n      swap7\n      pop\n        /* \"--CODEGEN--\":3388:3582   */\n      pop\n        /* \"--CODEGEN--\":3641:3643   */\n      0x60\n        /* \"--CODEGEN--\":3630:3639   */\n      dup10\n        /* \"--CODEGEN--\":3626:3644   */\n      add\n        /* \"--CODEGEN--\":3613:3645   */\n      calldataload\n        /* \"--CODEGEN--\":3665:3683   */\n      0xffffffffffffffff\n        /* \"--CODEGEN--\":3657:3663   */\n      dup2\n        /* \"--CODEGEN--\":3654:3684   */\n      gt\n        /* \"--CODEGEN--\":3651:3653   */\n      iszero\n      tag_372\n      jumpi\n        /* \"--CODEGEN--\":3697:3698   */\n      0x0\n        /* \"--CODEGEN--\":3694:3695   */\n      dup1\n        /* \"--CODEGEN--\":3687:3699   */\n      revert\n        /* \"--CODEGEN--\":3651:3653   */\n    tag_372:\n        /* \"--CODEGEN--\":3717:3780   */\n      tag_373\n        /* \"--CODEGEN--\":3772:3779   */\n      dup12\n        /* \"--CODEGEN--\":3763:3769   */\n      dup3\n        /* \"--CODEGEN--\":3752:3761   */\n      dup13\n        /* \"--CODEGEN--\":3748:3770   */\n      add\n        /* \"--CODEGEN--\":3717:3780   */\n      jump(tag_332)\n    tag_373:\n        /* \"--CODEGEN--\":3707:3780   */\n      swap6\n      pop\n        /* \"--CODEGEN--\":3592:3786   */\n      pop\n        /* \"--CODEGEN--\":3845:3848   */\n      0x80\n        /* \"--CODEGEN--\":3834:3843   */\n      dup10\n        /* \"--CODEGEN--\":3830:3849   */\n      add\n        /* \"--CODEGEN--\":3817:3850   */\n      calldataload\n        /* \"--CODEGEN--\":3870:3888   */\n      0xffffffffffffffff\n        /* \"--CODEGEN--\":3862:3868   */\n      dup2\n        /* \"--CODEGEN--\":3859:3889   */\n      gt\n        /* \"--CODEGEN--\":3856:3858   */\n      iszero\n      tag_374\n      jumpi\n        /* \"--CODEGEN--\":3902:3903   */\n      0x0\n        /* \"--CODEGEN--\":3899:3900   */\n      dup1\n        /* \"--CODEGEN--\":3892:3904   */\n      revert\n        /* \"--CODEGEN--\":3856:3858   */\n    tag_374:\n        /* \"--CODEGEN--\":3922:3985   */\n      tag_375\n        /* \"--CODEGEN--\":3977:3984   */\n      dup12\n        /* \"--CODEGEN--\":3968:3974   */\n      dup3\n        /* \"--CODEGEN--\":3957:3966   */\n      dup13\n        /* \"--CODEGEN--\":3953:3975   */\n      add\n        /* \"--CODEGEN--\":3922:3985   */\n      jump(tag_332)\n    tag_375:\n        /* \"--CODEGEN--\":3912:3985   */\n      swap5\n      pop\n        /* \"--CODEGEN--\":3796:3991   */\n      pop\n        /* \"--CODEGEN--\":4050:4053   */\n      0xa0\n        /* \"--CODEGEN--\":4039:4048   */\n      dup10\n        /* \"--CODEGEN--\":4035:4054   */\n      add\n        /* \"--CODEGEN--\":4022:4055   */\n      calldataload\n        /* \"--CODEGEN--\":4075:4093   */\n      0xffffffffffffffff\n        /* \"--CODEGEN--\":4067:4073   */\n      dup2\n        /* \"--CODEGEN--\":4064:4094   */\n      gt\n        /* \"--CODEGEN--\":4061:4063   */\n      iszero\n      tag_376\n      jumpi\n        /* \"--CODEGEN--\":4107:4108   */\n      0x0\n        /* \"--CODEGEN--\":4104:4105   */\n      dup1\n        /* \"--CODEGEN--\":4097:4109   */\n      revert\n        /* \"--CODEGEN--\":4061:4063   */\n    tag_376:\n        /* \"--CODEGEN--\":4127:4190   */\n      tag_377\n        /* \"--CODEGEN--\":4182:4189   */\n      dup12\n        /* \"--CODEGEN--\":4173:4179   */\n      dup3\n        /* \"--CODEGEN--\":4162:4171   */\n      dup13\n        /* \"--CODEGEN--\":4158:4180   */\n      add\n        /* \"--CODEGEN--\":4127:4190   */\n      jump(tag_332)\n    tag_377:\n        /* \"--CODEGEN--\":4117:4190   */\n      swap4\n      pop\n        /* \"--CODEGEN--\":4001:4196   */\n      pop\n        /* \"--CODEGEN--\":4255:4258   */\n      0xc0\n        /* \"--CODEGEN--\":4244:4253   */\n      dup10\n        /* \"--CODEGEN--\":4240:4259   */\n      add\n        /* \"--CODEGEN--\":4227:4260   */\n      calldataload\n        /* \"--CODEGEN--\":4280:4298   */\n      0xffffffffffffffff\n        /* \"--CODEGEN--\":4272:4278   */\n      dup2\n        /* \"--CODEGEN--\":4269:4299   */\n      gt\n        /* \"--CODEGEN--\":4266:4268   */\n      iszero\n      tag_378\n      jumpi\n        /* \"--CODEGEN--\":4312:4313   */\n      0x0\n        /* \"--CODEGEN--\":4309:4310   */\n      dup1\n        /* \"--CODEGEN--\":4302:4314   */\n      revert\n        /* \"--CODEGEN--\":4266:4268   */\n    tag_378:\n        /* \"--CODEGEN--\":4332:4395   */\n      tag_379\n        /* \"--CODEGEN--\":4387:4394   */\n      dup12\n        /* \"--CODEGEN--\":4378:4384   */\n      dup3\n        /* \"--CODEGEN--\":4367:4376   */\n      dup13\n        /* \"--CODEGEN--\":4363:4385   */\n      add\n        /* \"--CODEGEN--\":4332:4395   */\n      jump(tag_332)\n    tag_379:\n        /* \"--CODEGEN--\":4322:4395   */\n      swap3\n      pop\n        /* \"--CODEGEN--\":4206:4401   */\n      pop\n        /* \"--CODEGEN--\":4460:4463   */\n      0xe0\n        /* \"--CODEGEN--\":4449:4458   */\n      dup10\n        /* \"--CODEGEN--\":4445:4464   */\n      add\n        /* \"--CODEGEN--\":4432:4465   */\n      calldataload\n        /* \"--CODEGEN--\":4485:4503   */\n      0xffffffffffffffff\n        /* \"--CODEGEN--\":4477:4483   */\n      dup2\n        /* \"--CODEGEN--\":4474:4504   */\n      gt\n        /* \"--CODEGEN--\":4471:4473   */\n      iszero\n      tag_380\n      jumpi\n        /* \"--CODEGEN--\":4517:4518   */\n      0x0\n        /* \"--CODEGEN--\":4514:4515   */\n      dup1\n        /* \"--CODEGEN--\":4507:4519   */\n      revert\n        /* \"--CODEGEN--\":4471:4473   */\n    tag_380:\n        /* \"--CODEGEN--\":4537:4600   */\n      tag_381\n        /* \"--CODEGEN--\":4592:4599   */\n      dup12\n        /* \"--CODEGEN--\":4583:4589   */\n      dup3\n        /* \"--CODEGEN--\":4572:4581   */\n      dup13\n        /* \"--CODEGEN--\":4568:4590   */\n      add\n        /* \"--CODEGEN--\":4537:4600   */\n      jump(tag_332)\n    tag_381:\n        /* \"--CODEGEN--\":4527:4600   */\n      swap2\n      pop\n        /* \"--CODEGEN--\":4411:4606   */\n      pop\n        /* \"--CODEGEN--\":3008:4616   */\n      swap3\n      swap6\n      swap9\n      pop\n      swap3\n      swap6\n      swap9\n      swap1\n      swap4\n      swap7\n      pop\n      jump\n        /* \"--CODEGEN--\":4623:6950   */\n    tag_89:\n      0x0\n      dup1\n      0x0\n      dup1\n      0x0\n      dup1\n      0x0\n      dup1\n      0x0\n      dup1\n        /* \"--CODEGEN--\":4970:4973   */\n      0x140\n        /* \"--CODEGEN--\":4958:4967   */\n      dup12\n        /* \"--CODEGEN--\":4949:4956   */\n      dup14\n        /* \"--CODEGEN--\":4945:4968   */\n      sub\n        /* \"--CODEGEN--\":4941:4974   */\n      slt\n        /* \"--CODEGEN--\":4938:4940   */\n      iszero\n      tag_383\n      jumpi\n        /* \"--CODEGEN--\":4987:4988   */\n      0x0\n        /* \"--CODEGEN--\":4984:4985   */\n      dup1\n        /* \"--CODEGEN--\":4977:4989   */\n      revert\n        /* \"--CODEGEN--\":4938:4940   */\n    tag_383:\n        /* \"--CODEGEN--\":5022:5023   */\n      0x0\n        /* \"--CODEGEN--\":5039:5092   */\n      tag_384\n        /* \"--CODEGEN--\":5084:5091   */\n      dup14\n        /* \"--CODEGEN--\":5075:5081   */\n      dup3\n        /* \"--CODEGEN--\":5064:5073   */\n      dup15\n        /* \"--CODEGEN--\":5060:5082   */\n      add\n        /* \"--CODEGEN--\":5039:5092   */\n      jump(tag_328)\n    tag_384:\n        /* \"--CODEGEN--\":5029:5092   */\n      swap11\n      pop\n        /* \"--CODEGEN--\":5001:5098   */\n      pop\n        /* \"--CODEGEN--\":5157:5159   */\n      0x20\n        /* \"--CODEGEN--\":5146:5155   */\n      dup12\n        /* \"--CODEGEN--\":5142:5160   */\n      add\n        /* \"--CODEGEN--\":5129:5161   */\n      calldataload\n        /* \"--CODEGEN--\":5181:5199   */\n      0xffffffffffffffff\n        /* \"--CODEGEN--\":5173:5179   */\n      dup2\n        /* \"--CODEGEN--\":5170:5200   */\n      gt\n        /* \"--CODEGEN--\":5167:5169   */\n      iszero\n      tag_385\n      jumpi\n        /* \"--CODEGEN--\":5213:5214   */\n      0x0\n        /* \"--CODEGEN--\":5210:5211   */\n      dup1\n        /* \"--CODEGEN--\":5203:5215   */\n      revert\n        /* \"--CODEGEN--\":5167:5169   */\n    tag_385:\n        /* \"--CODEGEN--\":5233:5296   */\n      tag_386\n        /* \"--CODEGEN--\":5288:5295   */\n      dup14\n        /* \"--CODEGEN--\":5279:5285   */\n      dup3\n        /* \"--CODEGEN--\":5268:5277   */\n      dup15\n        /* \"--CODEGEN--\":5264:5286   */\n      add\n        /* \"--CODEGEN--\":5233:5296   */\n      jump(tag_332)\n    tag_386:\n        /* \"--CODEGEN--\":5223:5296   */\n      swap10\n      pop\n        /* \"--CODEGEN--\":5108:5302   */\n      pop\n        /* \"--CODEGEN--\":5361:5363   */\n      0x40\n        /* \"--CODEGEN--\":5350:5359   */\n      dup12\n        /* \"--CODEGEN--\":5346:5364   */\n      add\n        /* \"--CODEGEN--\":5333:5365   */\n      calldataload\n        /* \"--CODEGEN--\":5385:5403   */\n      0xffffffffffffffff\n        /* \"--CODEGEN--\":5377:5383   */\n      dup2\n        /* \"--CODEGEN--\":5374:5404   */\n      gt\n        /* \"--CODEGEN--\":5371:5373   */\n      iszero\n      tag_387\n      jumpi\n        /* \"--CODEGEN--\":5417:5418   */\n      0x0\n        /* \"--CODEGEN--\":5414:5415   */\n      dup1\n        /* \"--CODEGEN--\":5407:5419   */\n      revert\n        /* \"--CODEGEN--\":5371:5373   */\n    tag_387:\n        /* \"--CODEGEN--\":5437:5500   */\n      tag_388\n        /* \"--CODEGEN--\":5492:5499   */\n      dup14\n        /* \"--CODEGEN--\":5483:5489   */\n      dup3\n        /* \"--CODEGEN--\":5472:5481   */\n      dup15\n        /* \"--CODEGEN--\":5468:5490   */\n      add\n        /* \"--CODEGEN--\":5437:5500   */\n      jump(tag_332)\n    tag_388:\n        /* \"--CODEGEN--\":5427:5500   */\n      swap9\n      pop\n        /* \"--CODEGEN--\":5312:5506   */\n      pop\n        /* \"--CODEGEN--\":5565:5567   */\n      0x60\n        /* \"--CODEGEN--\":5554:5563   */\n      dup12\n        /* \"--CODEGEN--\":5550:5568   */\n      add\n        /* \"--CODEGEN--\":5537:5569   */\n      calldataload\n        /* \"--CODEGEN--\":5589:5607   */\n      0xffffffffffffffff\n        /* \"--CODEGEN--\":5581:5587   */\n      dup2\n        /* \"--CODEGEN--\":5578:5608   */\n      gt\n        /* \"--CODEGEN--\":5575:5577   */\n      iszero\n      tag_389\n      jumpi\n        /* \"--CODEGEN--\":5621:5622   */\n      0x0\n        /* \"--CODEGEN--\":5618:5619   */\n      dup1\n        /* \"--CODEGEN--\":5611:5623   */\n      revert\n        /* \"--CODEGEN--\":5575:5577   */\n    tag_389:\n        /* \"--CODEGEN--\":5641:5704   */\n      tag_390\n        /* \"--CODEGEN--\":5696:5703   */\n      dup14\n        /* \"--CODEGEN--\":5687:5693   */\n      dup3\n        /* \"--CODEGEN--\":5676:5685   */\n      dup15\n        /* \"--CODEGEN--\":5672:5694   */\n      add\n        /* \"--CODEGEN--\":5641:5704   */\n      jump(tag_332)\n    tag_390:\n        /* \"--CODEGEN--\":5631:5704   */\n      swap8\n      pop\n        /* \"--CODEGEN--\":5516:5710   */\n      pop\n        /* \"--CODEGEN--\":5769:5772   */\n      0x80\n        /* \"--CODEGEN--\":5758:5767   */\n      dup12\n        /* \"--CODEGEN--\":5754:5773   */\n      add\n        /* \"--CODEGEN--\":5741:5774   */\n      calldataload\n        /* \"--CODEGEN--\":5794:5812   */\n      0xffffffffffffffff\n        /* \"--CODEGEN--\":5786:5792   */\n      dup2\n        /* \"--CODEGEN--\":5783:5813   */\n      gt\n        /* \"--CODEGEN--\":5780:5782   */\n      iszero\n      tag_391\n      jumpi\n        /* \"--CODEGEN--\":5826:5827   */\n      0x0\n        /* \"--CODEGEN--\":5823:5824   */\n      dup1\n        /* \"--CODEGEN--\":5816:5828   */\n      revert\n        /* \"--CODEGEN--\":5780:5782   */\n    tag_391:\n        /* \"--CODEGEN--\":5846:5909   */\n      tag_392\n        /* \"--CODEGEN--\":5901:5908   */\n      dup14\n        /* \"--CODEGEN--\":5892:5898   */\n      dup3\n        /* \"--CODEGEN--\":5881:5890   */\n      dup15\n        /* \"--CODEGEN--\":5877:5899   */\n      add\n        /* \"--CODEGEN--\":5846:5909   */\n      jump(tag_332)\n    tag_392:\n        /* \"--CODEGEN--\":5836:5909   */\n      swap7\n      pop\n        /* \"--CODEGEN--\":5720:5915   */\n      pop\n        /* \"--CODEGEN--\":5974:5977   */\n      0xa0\n        /* \"--CODEGEN--\":5963:5972   */\n      dup12\n        /* \"--CODEGEN--\":5959:5978   */\n      add\n        /* \"--CODEGEN--\":5946:5979   */\n      calldataload\n        /* \"--CODEGEN--\":5999:6017   */\n      0xffffffffffffffff\n        /* \"--CODEGEN--\":5991:5997   */\n      dup2\n        /* \"--CODEGEN--\":5988:6018   */\n      gt\n        /* \"--CODEGEN--\":5985:5987   */\n      iszero\n      tag_393\n      jumpi\n        /* \"--CODEGEN--\":6031:6032   */\n      0x0\n        /* \"--CODEGEN--\":6028:6029   */\n      dup1\n        /* \"--CODEGEN--\":6021:6033   */\n      revert\n        /* \"--CODEGEN--\":5985:5987   */\n    tag_393:\n        /* \"--CODEGEN--\":6051:6114   */\n      tag_394\n        /* \"--CODEGEN--\":6106:6113   */\n      dup14\n        /* \"--CODEGEN--\":6097:6103   */\n      dup3\n        /* \"--CODEGEN--\":6086:6095   */\n      dup15\n        /* \"--CODEGEN--\":6082:6104   */\n      add\n        /* \"--CODEGEN--\":6051:6114   */\n      jump(tag_332)\n    tag_394:\n        /* \"--CODEGEN--\":6041:6114   */\n      swap6\n      pop\n        /* \"--CODEGEN--\":5925:6120   */\n      pop\n        /* \"--CODEGEN--\":6179:6182   */\n      0xc0\n        /* \"--CODEGEN--\":6168:6177   */\n      dup12\n        /* \"--CODEGEN--\":6164:6183   */\n      add\n        /* \"--CODEGEN--\":6151:6184   */\n      calldataload\n        /* \"--CODEGEN--\":6204:6222   */\n      0xffffffffffffffff\n        /* \"--CODEGEN--\":6196:6202   */\n      dup2\n        /* \"--CODEGEN--\":6193:6223   */\n      gt\n        /* \"--CODEGEN--\":6190:6192   */\n      iszero\n      tag_395\n      jumpi\n        /* \"--CODEGEN--\":6236:6237   */\n      0x0\n        /* \"--CODEGEN--\":6233:6234   */\n      dup1\n        /* \"--CODEGEN--\":6226:6238   */\n      revert\n        /* \"--CODEGEN--\":6190:6192   */\n    tag_395:\n        /* \"--CODEGEN--\":6256:6319   */\n      tag_396\n        /* \"--CODEGEN--\":6311:6318   */\n      dup14\n        /* \"--CODEGEN--\":6302:6308   */\n      dup3\n        /* \"--CODEGEN--\":6291:6300   */\n      dup15\n        /* \"--CODEGEN--\":6287:6309   */\n      add\n        /* \"--CODEGEN--\":6256:6319   */\n      jump(tag_332)\n    tag_396:\n        /* \"--CODEGEN--\":6246:6319   */\n      swap5\n      pop\n        /* \"--CODEGEN--\":6130:6325   */\n      pop\n        /* \"--CODEGEN--\":6384:6387   */\n      0xe0\n        /* \"--CODEGEN--\":6373:6382   */\n      dup12\n        /* \"--CODEGEN--\":6369:6388   */\n      add\n        /* \"--CODEGEN--\":6356:6389   */\n      calldataload\n        /* \"--CODEGEN--\":6409:6427   */\n      0xffffffffffffffff\n        /* \"--CODEGEN--\":6401:6407   */\n      dup2\n        /* \"--CODEGEN--\":6398:6428   */\n      gt\n        /* \"--CODEGEN--\":6395:6397   */\n      iszero\n      tag_397\n      jumpi\n        /* \"--CODEGEN--\":6441:6442   */\n      0x0\n        /* \"--CODEGEN--\":6438:6439   */\n      dup1\n        /* \"--CODEGEN--\":6431:6443   */\n      revert\n        /* \"--CODEGEN--\":6395:6397   */\n    tag_397:\n        /* \"--CODEGEN--\":6461:6524   */\n      tag_398\n        /* \"--CODEGEN--\":6516:6523   */\n      dup14\n        /* \"--CODEGEN--\":6507:6513   */\n      dup3\n        /* \"--CODEGEN--\":6496:6505   */\n      dup15\n        /* \"--CODEGEN--\":6492:6514   */\n      add\n        /* \"--CODEGEN--\":6461:6524   */\n      jump(tag_332)\n    tag_398:\n        /* \"--CODEGEN--\":6451:6524   */\n      swap4\n      pop\n        /* \"--CODEGEN--\":6335:6530   */\n      pop\n        /* \"--CODEGEN--\":6589:6592   */\n      0x100\n        /* \"--CODEGEN--\":6578:6587   */\n      dup12\n        /* \"--CODEGEN--\":6574:6593   */\n      add\n        /* \"--CODEGEN--\":6561:6594   */\n      calldataload\n        /* \"--CODEGEN--\":6614:6632   */\n      0xffffffffffffffff\n        /* \"--CODEGEN--\":6606:6612   */\n      dup2\n        /* \"--CODEGEN--\":6603:6633   */\n      gt\n        /* \"--CODEGEN--\":6600:6602   */\n      iszero\n      tag_399\n      jumpi\n        /* \"--CODEGEN--\":6646:6647   */\n      0x0\n        /* \"--CODEGEN--\":6643:6644   */\n      dup1\n        /* \"--CODEGEN--\":6636:6648   */\n      revert\n        /* \"--CODEGEN--\":6600:6602   */\n    tag_399:\n        /* \"--CODEGEN--\":6666:6729   */\n      tag_400\n        /* \"--CODEGEN--\":6721:6728   */\n      dup14\n        /* \"--CODEGEN--\":6712:6718   */\n      dup3\n        /* \"--CODEGEN--\":6701:6710   */\n      dup15\n        /* \"--CODEGEN--\":6697:6719   */\n      add\n        /* \"--CODEGEN--\":6666:6729   */\n      jump(tag_332)\n    tag_400:\n        /* \"--CODEGEN--\":6656:6729   */\n      swap3\n      pop\n        /* \"--CODEGEN--\":6540:6735   */\n      pop\n        /* \"--CODEGEN--\":6794:6797   */\n      0x120\n        /* \"--CODEGEN--\":6783:6792   */\n      dup12\n        /* \"--CODEGEN--\":6779:6798   */\n      add\n        /* \"--CODEGEN--\":6766:6799   */\n      calldataload\n        /* \"--CODEGEN--\":6819:6837   */\n      0xffffffffffffffff\n        /* \"--CODEGEN--\":6811:6817   */\n      dup2\n        /* \"--CODEGEN--\":6808:6838   */\n      gt\n        /* \"--CODEGEN--\":6805:6807   */\n      iszero\n      tag_401\n      jumpi\n        /* \"--CODEGEN--\":6851:6852   */\n      0x0\n        /* \"--CODEGEN--\":6848:6849   */\n      dup1\n        /* \"--CODEGEN--\":6841:6853   */\n      revert\n        /* \"--CODEGEN--\":6805:6807   */\n    tag_401:\n        /* \"--CODEGEN--\":6871:6934   */\n      tag_402\n        /* \"--CODEGEN--\":6926:6933   */\n      dup14\n        /* \"--CODEGEN--\":6917:6923   */\n      dup3\n        /* \"--CODEGEN--\":6906:6915   */\n      dup15\n        /* \"--CODEGEN--\":6902:6924   */\n      add\n        /* \"--CODEGEN--\":6871:6934   */\n      jump(tag_332)\n    tag_402:\n        /* \"--CODEGEN--\":6861:6934   */\n      swap2\n      pop\n        /* \"--CODEGEN--\":6745:6940   */\n      pop\n        /* \"--CODEGEN--\":4932:6950   */\n      swap3\n      swap6\n      swap9\n      swap12\n      swap2\n      swap5\n      swap8\n      swap11\n      pop\n      swap3\n      swap6\n      swap9\n      pop\n      jump\n        /* \"--CODEGEN--\":6957:7198   */\n    tag_56:\n      0x0\n        /* \"--CODEGEN--\":7061:7063   */\n      0x20\n        /* \"--CODEGEN--\":7049:7058   */\n      dup3\n        /* \"--CODEGEN--\":7040:7047   */\n      dup5\n        /* \"--CODEGEN--\":7036:7059   */\n      sub\n        /* \"--CODEGEN--\":7032:7064   */\n      slt\n        /* \"--CODEGEN--\":7029:7031   */\n      iszero\n      tag_404\n      jumpi\n        /* \"--CODEGEN--\":7077:7078   */\n      0x0\n        /* \"--CODEGEN--\":7074:7075   */\n      dup1\n        /* \"--CODEGEN--\":7067:7079   */\n      revert\n        /* \"--CODEGEN--\":7029:7031   */\n    tag_404:\n        /* \"--CODEGEN--\":7112:7113   */\n      0x0\n        /* \"--CODEGEN--\":7129:7182   */\n      tag_405\n        /* \"--CODEGEN--\":7174:7181   */\n      dup5\n        /* \"--CODEGEN--\":7165:7171   */\n      dup3\n        /* \"--CODEGEN--\":7154:7163   */\n      dup6\n        /* \"--CODEGEN--\":7150:7172   */\n      add\n        /* \"--CODEGEN--\":7129:7182   */\n      jump(tag_342)\n    tag_405:\n        /* \"--CODEGEN--\":7119:7182   */\n      swap2\n      pop\n        /* \"--CODEGEN--\":7091:7188   */\n      pop\n        /* \"--CODEGEN--\":7023:7198   */\n      swap3\n      swap2\n      pop\n      pop\n      jump\n        /* \"--CODEGEN--\":7205:7315   */\n    tag_407:\n        /* \"--CODEGEN--\":7278:7309   */\n      tag_408\n        /* \"--CODEGEN--\":7303:7308   */\n      dup2\n        /* \"--CODEGEN--\":7278:7309   */\n      jump(tag_409)\n    tag_408:\n        /* \"--CODEGEN--\":7273:7276   */\n      dup3\n        /* \"--CODEGEN--\":7266:7310   */\n      mstore\n        /* \"--CODEGEN--\":7260:7315   */\n      pop\n      pop\n      jump\n        /* \"--CODEGEN--\":7353:7943   */\n    tag_411:\n      0x0\n        /* \"--CODEGEN--\":7488:7542   */\n      tag_412\n        /* \"--CODEGEN--\":7536:7541   */\n      dup3\n        /* \"--CODEGEN--\":7488:7542   */\n      jump(tag_413)\n    tag_412:\n        /* \"--CODEGEN--\":7560:7566   */\n      dup1\n        /* \"--CODEGEN--\":7555:7558   */\n      dup5\n        /* \"--CODEGEN--\":7548:7567   */\n      mstore\n        /* \"--CODEGEN--\":7584:7588   */\n      0x20\n        /* \"--CODEGEN--\":7579:7582   */\n      dup5\n        /* \"--CODEGEN--\":7575:7589   */\n      add\n        /* \"--CODEGEN--\":7568:7589   */\n      swap4\n      pop\n        /* \"--CODEGEN--\":7629:7685   */\n      tag_414\n        /* \"--CODEGEN--\":7679:7684   */\n      dup4\n        /* \"--CODEGEN--\":7629:7685   */\n      jump(tag_415)\n    tag_414:\n        /* \"--CODEGEN--\":7706:7707   */\n      0x0\n        /* \"--CODEGEN--\":7691:7921   */\n    tag_416:\n        /* \"--CODEGEN--\":7716:7722   */\n      dup3\n        /* \"--CODEGEN--\":7713:7714   */\n      dup2\n        /* \"--CODEGEN--\":7710:7723   */\n      lt\n        /* \"--CODEGEN--\":7691:7921   */\n      iszero\n      tag_417\n      jumpi\n        /* \"--CODEGEN--\":7756:7809   */\n      tag_419\n        /* \"--CODEGEN--\":7805:7808   */\n      dup7\n        /* \"--CODEGEN--\":7796:7802   */\n      dup4\n        /* \"--CODEGEN--\":7790:7803   */\n      mload\n        /* \"--CODEGEN--\":7756:7809   */\n      jump(tag_407)\n    tag_419:\n        /* \"--CODEGEN--\":7826:7886   */\n      tag_420\n        /* \"--CODEGEN--\":7879:7885   */\n      dup3\n        /* \"--CODEGEN--\":7826:7886   */\n      jump(tag_421)\n    tag_420:\n        /* \"--CODEGEN--\":7816:7886   */\n      swap2\n      pop\n        /* \"--CODEGEN--\":7909:7913   */\n      0x20\n        /* \"--CODEGEN--\":7904:7907   */\n      dup7\n        /* \"--CODEGEN--\":7900:7914   */\n      add\n        /* \"--CODEGEN--\":7893:7914   */\n      swap6\n      pop\n        /* \"--CODEGEN--\":7738:7739   */\n      0x1\n        /* \"--CODEGEN--\":7735:7736   */\n      dup2\n        /* \"--CODEGEN--\":7731:7740   */\n      add\n        /* \"--CODEGEN--\":7726:7740   */\n      swap1\n      pop\n        /* \"--CODEGEN--\":7691:7921   */\n      jump(tag_416)\n    tag_417:\n        /* \"--CODEGEN--\":7695:7709   */\n      pop\n        /* \"--CODEGEN--\":7934:7937   */\n      dup5\n        /* \"--CODEGEN--\":7927:7937   */\n      swap3\n      pop\n        /* \"--CODEGEN--\":7467:7943   */\n      pop\n      pop\n      swap3\n      swap2\n      pop\n      pop\n      jump\n        /* \"--CODEGEN--\":7951:8052   */\n    tag_423:\n        /* \"--CODEGEN--\":8018:8046   */\n      tag_424\n        /* \"--CODEGEN--\":8040:8045   */\n      dup2\n        /* \"--CODEGEN--\":8018:8046   */\n      jump(tag_425)\n    tag_424:\n        /* \"--CODEGEN--\":8013:8016   */\n      dup3\n        /* \"--CODEGEN--\":8006:8047   */\n      mstore\n        /* \"--CODEGEN--\":8000:8052   */\n      pop\n      pop\n      jump\n        /* \"--CODEGEN--\":8059:8359   */\n    tag_427:\n      0x0\n        /* \"--CODEGEN--\":8161:8200   */\n      tag_428\n        /* \"--CODEGEN--\":8194:8199   */\n      dup3\n        /* \"--CODEGEN--\":8161:8200   */\n      jump(tag_429)\n    tag_428:\n        /* \"--CODEGEN--\":8217:8223   */\n      dup1\n        /* \"--CODEGEN--\":8212:8215   */\n      dup5\n        /* \"--CODEGEN--\":8205:8224   */\n      mstore\n        /* \"--CODEGEN--\":8229:8292   */\n      tag_430\n        /* \"--CODEGEN--\":8285:8291   */\n      dup2\n        /* \"--CODEGEN--\":8278:8282   */\n      0x20\n        /* \"--CODEGEN--\":8273:8276   */\n      dup7\n        /* \"--CODEGEN--\":8269:8283   */\n      add\n        /* \"--CODEGEN--\":8262:8266   */\n      0x20\n        /* \"--CODEGEN--\":8255:8260   */\n      dup7\n        /* \"--CODEGEN--\":8251:8267   */\n      add\n        /* \"--CODEGEN--\":8229:8292   */\n      jump(tag_431)\n    tag_430:\n        /* \"--CODEGEN--\":8324:8353   */\n      tag_432\n        /* \"--CODEGEN--\":8346:8352   */\n      dup2\n        /* \"--CODEGEN--\":8324:8353   */\n      jump(tag_433)\n    tag_432:\n        /* \"--CODEGEN--\":8317:8321   */\n      0x20\n        /* \"--CODEGEN--\":8312:8315   */\n      dup6\n        /* \"--CODEGEN--\":8308:8322   */\n      add\n        /* \"--CODEGEN--\":8304:8354   */\n      add\n        /* \"--CODEGEN--\":8297:8354   */\n      swap2\n      pop\n        /* \"--CODEGEN--\":8141:8359   */\n      pop\n      swap3\n      swap2\n      pop\n      pop\n      jump\n        /* \"--CODEGEN--\":8366:8476   */\n    tag_435:\n        /* \"--CODEGEN--\":8439:8470   */\n      tag_436\n        /* \"--CODEGEN--\":8464:8469   */\n      dup2\n        /* \"--CODEGEN--\":8439:8470   */\n      jump(tag_437)\n    tag_436:\n        /* \"--CODEGEN--\":8434:8437   */\n      dup3\n        /* \"--CODEGEN--\":8427:8471   */\n      mstore\n        /* \"--CODEGEN--\":8421:8476   */\n      pop\n      pop\n      jump\n        /* \"--CODEGEN--\":8483:8676   */\n    tag_59:\n      0x0\n        /* \"--CODEGEN--\":8591:8593   */\n      0x20\n        /* \"--CODEGEN--\":8580:8589   */\n      dup3\n        /* \"--CODEGEN--\":8576:8594   */\n      add\n        /* \"--CODEGEN--\":8568:8594   */\n      swap1\n      pop\n        /* \"--CODEGEN--\":8605:8666   */\n      tag_439\n        /* \"--CODEGEN--\":8663:8664   */\n      0x0\n        /* \"--CODEGEN--\":8652:8661   */\n      dup4\n        /* \"--CODEGEN--\":8648:8665   */\n      add\n        /* \"--CODEGEN--\":8639:8645   */\n      dup5\n        /* \"--CODEGEN--\":8605:8666   */\n      jump(tag_407)\n    tag_439:\n        /* \"--CODEGEN--\":8562:8676   */\n      swap3\n      swap2\n      pop\n      pop\n      jump\n        /* \"--CODEGEN--\":8683:9024   */\n    tag_36:\n      0x0\n        /* \"--CODEGEN--\":8841:8843   */\n      0x20\n        /* \"--CODEGEN--\":8830:8839   */\n      dup3\n        /* \"--CODEGEN--\":8826:8844   */\n      add\n        /* \"--CODEGEN--\":8818:8844   */\n      swap1\n      pop\n        /* \"--CODEGEN--\":8891:8900   */\n      dup2\n        /* \"--CODEGEN--\":8885:8889   */\n      dup2\n        /* \"--CODEGEN--\":8881:8901   */\n      sub\n        /* \"--CODEGEN--\":8877:8878   */\n      0x0\n        /* \"--CODEGEN--\":8866:8875   */\n      dup4\n        /* \"--CODEGEN--\":8862:8879   */\n      add\n        /* \"--CODEGEN--\":8855:8902   */\n      mstore\n        /* \"--CODEGEN--\":8916:9014   */\n      tag_441\n        /* \"--CODEGEN--\":9009:9013   */\n      dup2\n        /* \"--CODEGEN--\":9000:9006   */\n      dup5\n        /* \"--CODEGEN--\":8916:9014   */\n      jump(tag_411)\n    tag_441:\n        /* \"--CODEGEN--\":8908:9014   */\n      swap1\n      pop\n        /* \"--CODEGEN--\":8812:9024   */\n      swap3\n      swap2\n      pop\n      pop\n      jump\n        /* \"--CODEGEN--\":9031:9212   */\n    tag_74:\n      0x0\n        /* \"--CODEGEN--\":9133:9135   */\n      0x20\n        /* \"--CODEGEN--\":9122:9131   */\n      dup3\n        /* \"--CODEGEN--\":9118:9136   */\n      add\n        /* \"--CODEGEN--\":9110:9136   */\n      swap1\n      pop\n        /* \"--CODEGEN--\":9147:9202   */\n      tag_443\n        /* \"--CODEGEN--\":9199:9200   */\n      0x0\n        /* \"--CODEGEN--\":9188:9197   */\n      dup4\n        /* \"--CODEGEN--\":9184:9201   */\n      add\n        /* \"--CODEGEN--\":9175:9181   */\n      dup5\n        /* \"--CODEGEN--\":9147:9202   */\n      jump(tag_423)\n    tag_443:\n        /* \"--CODEGEN--\":9104:9212   */\n      swap3\n      swap2\n      pop\n      pop\n      jump\n        /* \"--CODEGEN--\":9219:10740   */\n    tag_48:\n      0x0\n        /* \"--CODEGEN--\":9663:9666   */\n      0x100\n        /* \"--CODEGEN--\":9652:9661   */\n      dup3\n        /* \"--CODEGEN--\":9648:9667   */\n      add\n        /* \"--CODEGEN--\":9640:9667   */\n      swap1\n      pop\n        /* \"--CODEGEN--\":9714:9723   */\n      dup2\n        /* \"--CODEGEN--\":9708:9712   */\n      dup2\n        /* \"--CODEGEN--\":9704:9724   */\n      sub\n        /* \"--CODEGEN--\":9700:9701   */\n      0x0\n        /* \"--CODEGEN--\":9689:9698   */\n      dup4\n        /* \"--CODEGEN--\":9685:9702   */\n      add\n        /* \"--CODEGEN--\":9678:9725   */\n      mstore\n        /* \"--CODEGEN--\":9739:9807   */\n      tag_445\n        /* \"--CODEGEN--\":9802:9806   */\n      dup2\n        /* \"--CODEGEN--\":9793:9799   */\n      dup12\n        /* \"--CODEGEN--\":9739:9807   */\n      jump(tag_427)\n    tag_445:\n        /* \"--CODEGEN--\":9731:9807   */\n      swap1\n      pop\n        /* \"--CODEGEN--\":9855:9864   */\n      dup2\n        /* \"--CODEGEN--\":9849:9853   */\n      dup2\n        /* \"--CODEGEN--\":9845:9865   */\n      sub\n        /* \"--CODEGEN--\":9840:9842   */\n      0x20\n        /* \"--CODEGEN--\":9829:9838   */\n      dup4\n        /* \"--CODEGEN--\":9825:9843   */\n      add\n        /* \"--CODEGEN--\":9818:9866   */\n      mstore\n        /* \"--CODEGEN--\":9880:9948   */\n      tag_446\n        /* \"--CODEGEN--\":9943:9947   */\n      dup2\n        /* \"--CODEGEN--\":9934:9940   */\n      dup11\n        /* \"--CODEGEN--\":9880:9948   */\n      jump(tag_427)\n    tag_446:\n        /* \"--CODEGEN--\":9872:9948   */\n      swap1\n      pop\n        /* \"--CODEGEN--\":9996:10005   */\n      dup2\n        /* \"--CODEGEN--\":9990:9994   */\n      dup2\n        /* \"--CODEGEN--\":9986:10006   */\n      sub\n        /* \"--CODEGEN--\":9981:9983   */\n      0x40\n        /* \"--CODEGEN--\":9970:9979   */\n      dup4\n        /* \"--CODEGEN--\":9966:9984   */\n      add\n        /* \"--CODEGEN--\":9959:10007   */\n      mstore\n        /* \"--CODEGEN--\":10021:10089   */\n      tag_447\n        /* \"--CODEGEN--\":10084:10088   */\n      dup2\n        /* \"--CODEGEN--\":10075:10081   */\n      dup10\n        /* \"--CODEGEN--\":10021:10089   */\n      jump(tag_427)\n    tag_447:\n        /* \"--CODEGEN--\":10013:10089   */\n      swap1\n      pop\n        /* \"--CODEGEN--\":10137:10146   */\n      dup2\n        /* \"--CODEGEN--\":10131:10135   */\n      dup2\n        /* \"--CODEGEN--\":10127:10147   */\n      sub\n        /* \"--CODEGEN--\":10122:10124   */\n      0x60\n        /* \"--CODEGEN--\":10111:10120   */\n      dup4\n        /* \"--CODEGEN--\":10107:10125   */\n      add\n        /* \"--CODEGEN--\":10100:10148   */\n      mstore\n        /* \"--CODEGEN--\":10162:10230   */\n      tag_448\n        /* \"--CODEGEN--\":10225:10229   */\n      dup2\n        /* \"--CODEGEN--\":10216:10222   */\n      dup9\n        /* \"--CODEGEN--\":10162:10230   */\n      jump(tag_427)\n    tag_448:\n        /* \"--CODEGEN--\":10154:10230   */\n      swap1\n      pop\n        /* \"--CODEGEN--\":10279:10288   */\n      dup2\n        /* \"--CODEGEN--\":10273:10277   */\n      dup2\n        /* \"--CODEGEN--\":10269:10289   */\n      sub\n        /* \"--CODEGEN--\":10263:10266   */\n      0x80\n        /* \"--CODEGEN--\":10252:10261   */\n      dup4\n        /* \"--CODEGEN--\":10248:10267   */\n      add\n        /* \"--CODEGEN--\":10241:10290   */\n      mstore\n        /* \"--CODEGEN--\":10304:10372   */\n      tag_449\n        /* \"--CODEGEN--\":10367:10371   */\n      dup2\n        /* \"--CODEGEN--\":10358:10364   */\n      dup8\n        /* \"--CODEGEN--\":10304:10372   */\n      jump(tag_427)\n    tag_449:\n        /* \"--CODEGEN--\":10296:10372   */\n      swap1\n      pop\n        /* \"--CODEGEN--\":10421:10430   */\n      dup2\n        /* \"--CODEGEN--\":10415:10419   */\n      dup2\n        /* \"--CODEGEN--\":10411:10431   */\n      sub\n        /* \"--CODEGEN--\":10405:10408   */\n      0xa0\n        /* \"--CODEGEN--\":10394:10403   */\n      dup4\n        /* \"--CODEGEN--\":10390:10409   */\n      add\n        /* \"--CODEGEN--\":10383:10432   */\n      mstore\n        /* \"--CODEGEN--\":10446:10514   */\n      tag_450\n        /* \"--CODEGEN--\":10509:10513   */\n      dup2\n        /* \"--CODEGEN--\":10500:10506   */\n      dup7\n        /* \"--CODEGEN--\":10446:10514   */\n      jump(tag_427)\n    tag_450:\n        /* \"--CODEGEN--\":10438:10514   */\n      swap1\n      pop\n        /* \"--CODEGEN--\":10563:10572   */\n      dup2\n        /* \"--CODEGEN--\":10557:10561   */\n      dup2\n        /* \"--CODEGEN--\":10553:10573   */\n      sub\n        /* \"--CODEGEN--\":10547:10550   */\n      0xc0\n        /* \"--CODEGEN--\":10536:10545   */\n      dup4\n        /* \"--CODEGEN--\":10532:10551   */\n      add\n        /* \"--CODEGEN--\":10525:10574   */\n      mstore\n        /* \"--CODEGEN--\":10588:10656   */\n      tag_451\n        /* \"--CODEGEN--\":10651:10655   */\n      dup2\n        /* \"--CODEGEN--\":10642:10648   */\n      dup6\n        /* \"--CODEGEN--\":10588:10656   */\n      jump(tag_427)\n    tag_451:\n        /* \"--CODEGEN--\":10580:10656   */\n      swap1\n      pop\n        /* \"--CODEGEN--\":10667:10730   */\n      tag_452\n        /* \"--CODEGEN--\":10725:10728   */\n      0xe0\n        /* \"--CODEGEN--\":10714:10723   */\n      dup4\n        /* \"--CODEGEN--\":10710:10729   */\n      add\n        /* \"--CODEGEN--\":10701:10707   */\n      dup5\n        /* \"--CODEGEN--\":10667:10730   */\n      jump(tag_407)\n    tag_452:\n        /* \"--CODEGEN--\":9634:10740   */\n      swap10\n      swap9\n      pop\n      pop\n      pop\n      pop\n      pop\n      pop\n      pop\n      pop\n      pop\n      jump\n        /* \"--CODEGEN--\":10747:11712   */\n    tag_113:\n      0x0\n        /* \"--CODEGEN--\":11055:11058   */\n      0xc0\n        /* \"--CODEGEN--\":11044:11053   */\n      dup3\n        /* \"--CODEGEN--\":11040:11059   */\n      add\n        /* \"--CODEGEN--\":11032:11059   */\n      swap1\n      pop\n        /* \"--CODEGEN--\":11106:11115   */\n      dup2\n        /* \"--CODEGEN--\":11100:11104   */\n      dup2\n        /* \"--CODEGEN--\":11096:11116   */\n      sub\n        /* \"--CODEGEN--\":11092:11093   */\n      0x0\n        /* \"--CODEGEN--\":11081:11090   */\n      dup4\n        /* \"--CODEGEN--\":11077:11094   */\n      add\n        /* \"--CODEGEN--\":11070:11117   */\n      mstore\n        /* \"--CODEGEN--\":11131:11199   */\n      tag_454\n        /* \"--CODEGEN--\":11194:11198   */\n      dup2\n        /* \"--CODEGEN--\":11185:11191   */\n      dup10\n        /* \"--CODEGEN--\":11131:11199   */\n      jump(tag_427)\n    tag_454:\n        /* \"--CODEGEN--\":11123:11199   */\n      swap1\n      pop\n        /* \"--CODEGEN--\":11247:11256   */\n      dup2\n        /* \"--CODEGEN--\":11241:11245   */\n      dup2\n        /* \"--CODEGEN--\":11237:11257   */\n      sub\n        /* \"--CODEGEN--\":11232:11234   */\n      0x20\n        /* \"--CODEGEN--\":11221:11230   */\n      dup4\n        /* \"--CODEGEN--\":11217:11235   */\n      add\n        /* \"--CODEGEN--\":11210:11258   */\n      mstore\n        /* \"--CODEGEN--\":11272:11340   */\n      tag_455\n        /* \"--CODEGEN--\":11335:11339   */\n      dup2\n        /* \"--CODEGEN--\":11326:11332   */\n      dup9\n        /* \"--CODEGEN--\":11272:11340   */\n      jump(tag_427)\n    tag_455:\n        /* \"--CODEGEN--\":11264:11340   */\n      swap1\n      pop\n        /* \"--CODEGEN--\":11388:11397   */\n      dup2\n        /* \"--CODEGEN--\":11382:11386   */\n      dup2\n        /* \"--CODEGEN--\":11378:11398   */\n      sub\n        /* \"--CODEGEN--\":11373:11375   */\n      0x40\n        /* \"--CODEGEN--\":11362:11371   */\n      dup4\n        /* \"--CODEGEN--\":11358:11376   */\n      add\n        /* \"--CODEGEN--\":11351:11399   */\n      mstore\n        /* \"--CODEGEN--\":11413:11481   */\n      tag_456\n        /* \"--CODEGEN--\":11476:11480   */\n      dup2\n        /* \"--CODEGEN--\":11467:11473   */\n      dup8\n        /* \"--CODEGEN--\":11413:11481   */\n      jump(tag_427)\n    tag_456:\n        /* \"--CODEGEN--\":11405:11481   */\n      swap1\n      pop\n        /* \"--CODEGEN--\":11492:11554   */\n      tag_457\n        /* \"--CODEGEN--\":11550:11552   */\n      0x60\n        /* \"--CODEGEN--\":11539:11548   */\n      dup4\n        /* \"--CODEGEN--\":11535:11553   */\n      add\n        /* \"--CODEGEN--\":11526:11532   */\n      dup7\n        /* \"--CODEGEN--\":11492:11554   */\n      jump(tag_435)\n    tag_457:\n        /* \"--CODEGEN--\":11565:11628   */\n      tag_458\n        /* \"--CODEGEN--\":11623:11626   */\n      0x80\n        /* \"--CODEGEN--\":11612:11621   */\n      dup4\n        /* \"--CODEGEN--\":11608:11627   */\n      add\n        /* \"--CODEGEN--\":11599:11605   */\n      dup6\n        /* \"--CODEGEN--\":11565:11628   */\n      jump(tag_407)\n    tag_458:\n        /* \"--CODEGEN--\":11639:11702   */\n      tag_459\n        /* \"--CODEGEN--\":11697:11700   */\n      0xa0\n        /* \"--CODEGEN--\":11686:11695   */\n      dup4\n        /* \"--CODEGEN--\":11682:11701   */\n      add\n        /* \"--CODEGEN--\":11673:11679   */\n      dup5\n        /* \"--CODEGEN--\":11639:11702   */\n      jump(tag_407)\n    tag_459:\n        /* \"--CODEGEN--\":11026:11712   */\n      swap8\n      swap7\n      pop\n      pop\n      pop\n      pop\n      pop\n      pop\n      pop\n      jump\n        /* \"--CODEGEN--\":11719:11912   */\n    tag_41:\n      0x0\n        /* \"--CODEGEN--\":11827:11829   */\n      0x20\n        /* \"--CODEGEN--\":11816:11825   */\n      dup3\n        /* \"--CODEGEN--\":11812:11830   */\n      add\n        /* \"--CODEGEN--\":11804:11830   */\n      swap1\n      pop\n        /* \"--CODEGEN--\":11841:11902   */\n      tag_461\n        /* \"--CODEGEN--\":11899:11900   */\n      0x0\n        /* \"--CODEGEN--\":11888:11897   */\n      dup4\n        /* \"--CODEGEN--\":11884:11901   */\n      add\n        /* \"--CODEGEN--\":11875:11881   */\n      dup5\n        /* \"--CODEGEN--\":11841:11902   */\n      jump(tag_435)\n    tag_461:\n        /* \"--CODEGEN--\":11798:11912   */\n      swap3\n      swap2\n      pop\n      pop\n      jump\n        /* \"--CODEGEN--\":11919:12175   */\n    tag_337:\n      0x0\n        /* \"--CODEGEN--\":11981:11983   */\n      0x40\n        /* \"--CODEGEN--\":11975:11984   */\n      mload\n        /* \"--CODEGEN--\":11965:11984   */\n      swap1\n      pop\n        /* \"--CODEGEN--\":12019:12023   */\n      dup2\n        /* \"--CODEGEN--\":12011:12017   */\n      dup2\n        /* \"--CODEGEN--\":12007:12024   */\n      add\n        /* \"--CODEGEN--\":12118:12124   */\n      dup2\n        /* \"--CODEGEN--\":12106:12116   */\n      dup2\n        /* \"--CODEGEN--\":12103:12125   */\n      lt\n        /* \"--CODEGEN--\":12082:12100   */\n      0xffffffffffffffff\n        /* \"--CODEGEN--\":12070:12080   */\n      dup3\n        /* \"--CODEGEN--\":12067:12101   */\n      gt\n        /* \"--CODEGEN--\":12064:12126   */\n      or\n        /* \"--CODEGEN--\":12061:12063   */\n      iszero\n      tag_463\n      jumpi\n        /* \"--CODEGEN--\":12139:12140   */\n      0x0\n        /* \"--CODEGEN--\":12136:12137   */\n      dup1\n        /* \"--CODEGEN--\":12129:12141   */\n      revert\n        /* \"--CODEGEN--\":12061:12063   */\n    tag_463:\n        /* \"--CODEGEN--\":12159:12169   */\n      dup1\n        /* \"--CODEGEN--\":12155:12157   */\n      0x40\n        /* \"--CODEGEN--\":12148:12170   */\n      mstore\n        /* \"--CODEGEN--\":11959:12175   */\n      pop\n      swap2\n      swap1\n      pop\n      jump\n        /* \"--CODEGEN--\":12182:12441   */\n    tag_336:\n      0x0\n        /* \"--CODEGEN--\":12326:12344   */\n      0xffffffffffffffff\n        /* \"--CODEGEN--\":12318:12324   */\n      dup3\n        /* \"--CODEGEN--\":12315:12345   */\n      gt\n        /* \"--CODEGEN--\":12312:12314   */\n      iszero\n      tag_465\n      jumpi\n        /* \"--CODEGEN--\":12358:12359   */\n      0x0\n        /* \"--CODEGEN--\":12355:12356   */\n      dup1\n        /* \"--CODEGEN--\":12348:12360   */\n      revert\n        /* \"--CODEGEN--\":12312:12314   */\n    tag_465:\n        /* \"--CODEGEN--\":12402:12406   */\n      0x1f\n        /* \"--CODEGEN--\":12398:12407   */\n      not\n        /* \"--CODEGEN--\":12391:12395   */\n      0x1f\n        /* \"--CODEGEN--\":12383:12389   */\n      dup4\n        /* \"--CODEGEN--\":12379:12396   */\n      add\n        /* \"--CODEGEN--\":12375:12408   */\n      and\n        /* \"--CODEGEN--\":12367:12408   */\n      swap1\n      pop\n        /* \"--CODEGEN--\":12431:12435   */\n      0x20\n        /* \"--CODEGEN--\":12425:12429   */\n      dup2\n        /* \"--CODEGEN--\":12421:12436   */\n      add\n        /* \"--CODEGEN--\":12413:12436   */\n      swap1\n      pop\n        /* \"--CODEGEN--\":12249:12441   */\n      swap2\n      swap1\n      pop\n      jump\n        /* \"--CODEGEN--\":12450:12571   */\n    tag_415:\n      0x0\n        /* \"--CODEGEN--\":12559:12563   */\n      0x20\n        /* \"--CODEGEN--\":12551:12557   */\n      dup3\n        /* \"--CODEGEN--\":12547:12564   */\n      add\n        /* \"--CODEGEN--\":12536:12564   */\n      swap1\n      pop\n        /* \"--CODEGEN--\":12528:12571   */\n      swap2\n      swap1\n      pop\n      jump\n        /* \"--CODEGEN--\":12580:12687   */\n    tag_413:\n      0x0\n        /* \"--CODEGEN--\":12676:12681   */\n      dup2\n        /* \"--CODEGEN--\":12670:12682   */\n      mload\n        /* \"--CODEGEN--\":12660:12682   */\n      swap1\n      pop\n        /* \"--CODEGEN--\":12654:12687   */\n      swap2\n      swap1\n      pop\n      jump\n        /* \"--CODEGEN--\":12694:12786   */\n    tag_429:\n      0x0\n        /* \"--CODEGEN--\":12775:12780   */\n      dup2\n        /* \"--CODEGEN--\":12769:12781   */\n      mload\n        /* \"--CODEGEN--\":12759:12781   */\n      swap1\n      pop\n        /* \"--CODEGEN--\":12753:12786   */\n      swap2\n      swap1\n      pop\n      jump\n        /* \"--CODEGEN--\":12794:12916   */\n    tag_421:\n      0x0\n        /* \"--CODEGEN--\":12905:12909   */\n      0x20\n        /* \"--CODEGEN--\":12897:12903   */\n      dup3\n        /* \"--CODEGEN--\":12893:12910   */\n      add\n        /* \"--CODEGEN--\":12882:12910   */\n      swap1\n      pop\n        /* \"--CODEGEN--\":12875:12916   */\n      swap2\n      swap1\n      pop\n      jump\n        /* \"--CODEGEN--\":12924:13052   */\n    tag_409:\n      0x0\n        /* \"--CODEGEN--\":13004:13046   */\n      0xffffffffffffffffffffffffffffffffffffffff\n        /* \"--CODEGEN--\":12997:13002   */\n      dup3\n        /* \"--CODEGEN--\":12993:13047   */\n      and\n        /* \"--CODEGEN--\":12982:13047   */\n      swap1\n      pop\n        /* \"--CODEGEN--\":12976:13052   */\n      swap2\n      swap1\n      pop\n      jump\n        /* \"--CODEGEN--\":13059:13151   */\n    tag_425:\n      0x0\n        /* \"--CODEGEN--\":13139:13144   */\n      dup2\n        /* \"--CODEGEN--\":13132:13145   */\n      iszero\n        /* \"--CODEGEN--\":13125:13146   */\n      iszero\n        /* \"--CODEGEN--\":13114:13146   */\n      swap1\n      pop\n        /* \"--CODEGEN--\":13108:13151   */\n      swap2\n      swap1\n      pop\n      jump\n        /* \"--CODEGEN--\":13158:13237   */\n    tag_437:\n      0x0\n        /* \"--CODEGEN--\":13227:13232   */\n      dup2\n        /* \"--CODEGEN--\":13216:13232   */\n      swap1\n      pop\n        /* \"--CODEGEN--\":13210:13237   */\n      swap2\n      swap1\n      pop\n      jump\n        /* \"--CODEGEN--\":13244:13372   */\n    tag_330:\n      0x0\n        /* \"--CODEGEN--\":13324:13366   */\n      0xffffffffffffffffffffffffffffffffffffffff\n        /* \"--CODEGEN--\":13317:13322   */\n      dup3\n        /* \"--CODEGEN--\":13313:13367   */\n      and\n        /* \"--CODEGEN--\":13302:13367   */\n      swap1\n      pop\n        /* \"--CODEGEN--\":13296:13372   */\n      swap2\n      swap1\n      pop\n      jump\n        /* \"--CODEGEN--\":13379:13458   */\n    tag_344:\n      0x0\n        /* \"--CODEGEN--\":13448:13453   */\n      dup2\n        /* \"--CODEGEN--\":13437:13453   */\n      swap1\n      pop\n        /* \"--CODEGEN--\":13431:13458   */\n      swap2\n      swap1\n      pop\n      jump\n        /* \"--CODEGEN--\":13466:13611   */\n    tag_340:\n        /* \"--CODEGEN--\":13547:13553   */\n      dup3\n        /* \"--CODEGEN--\":13542:13545   */\n      dup2\n        /* \"--CODEGEN--\":13537:13540   */\n      dup4\n        /* \"--CODEGEN--\":13524:13554   */\n      calldatacopy\n        /* \"--CODEGEN--\":13603:13604   */\n      0x0\n        /* \"--CODEGEN--\":13594:13600   */\n      dup4\n        /* \"--CODEGEN--\":13589:13592   */\n      dup4\n        /* \"--CODEGEN--\":13585:13601   */\n      add\n        /* \"--CODEGEN--\":13578:13605   */\n      mstore\n        /* \"--CODEGEN--\":13517:13611   */\n      pop\n      pop\n      pop\n      jump\n        /* \"--CODEGEN--\":13620:13888   */\n    tag_431:\n        /* \"--CODEGEN--\":13685:13686   */\n      0x0\n        /* \"--CODEGEN--\":13692:13793   */\n    tag_477:\n        /* \"--CODEGEN--\":13706:13712   */\n      dup4\n        /* \"--CODEGEN--\":13703:13704   */\n      dup2\n        /* \"--CODEGEN--\":13700:13713   */\n      lt\n        /* \"--CODEGEN--\":13692:13793   */\n      iszero\n      tag_478\n      jumpi\n        /* \"--CODEGEN--\":13782:13783   */\n      dup1\n        /* \"--CODEGEN--\":13777:13780   */\n      dup3\n        /* \"--CODEGEN--\":13773:13784   */\n      add\n        /* \"--CODEGEN--\":13767:13785   */\n      mload\n        /* \"--CODEGEN--\":13763:13764   */\n      dup2\n        /* \"--CODEGEN--\":13758:13761   */\n      dup5\n        /* \"--CODEGEN--\":13754:13765   */\n      add\n        /* \"--CODEGEN--\":13747:13786   */\n      mstore\n        /* \"--CODEGEN--\":13728:13730   */\n      0x20\n        /* \"--CODEGEN--\":13725:13726   */\n      dup2\n        /* \"--CODEGEN--\":13721:13731   */\n      add\n        /* \"--CODEGEN--\":13716:13731   */\n      swap1\n      pop\n        /* \"--CODEGEN--\":13692:13793   */\n      jump(tag_477)\n    tag_478:\n        /* \"--CODEGEN--\":13808:13814   */\n      dup4\n        /* \"--CODEGEN--\":13805:13806   */\n      dup2\n        /* \"--CODEGEN--\":13802:13815   */\n      gt\n        /* \"--CODEGEN--\":13799:13801   */\n      iszero\n      tag_480\n      jumpi\n        /* \"--CODEGEN--\":13873:13874   */\n      0x0\n        /* \"--CODEGEN--\":13864:13870   */\n      dup5\n        /* \"--CODEGEN--\":13859:13862   */\n      dup5\n        /* \"--CODEGEN--\":13855:13871   */\n      add\n        /* \"--CODEGEN--\":13848:13875   */\n      mstore\n        /* \"--CODEGEN--\":13799:13801   */\n    tag_480:\n        /* \"--CODEGEN--\":13669:13888   */\n      pop\n      pop\n      pop\n      pop\n      jump\n        /* \"--CODEGEN--\":13896:13993   */\n    tag_433:\n      0x0\n        /* \"--CODEGEN--\":13984:13986   */\n      0x1f\n        /* \"--CODEGEN--\":13980:13987   */\n      not\n        /* \"--CODEGEN--\":13975:13977   */\n      0x1f\n        /* \"--CODEGEN--\":13968:13973   */\n      dup4\n        /* \"--CODEGEN--\":13964:13978   */\n      add\n        /* \"--CODEGEN--\":13960:13988   */\n      and\n        /* \"--CODEGEN--\":13950:13988   */\n      swap1\n      pop\n        /* \"--CODEGEN--\":13944:13993   */\n      swap2\n      swap1\n      pop\n      jump\n\n    auxdata: 0xa265627a7a723058204109d37b15811cc2ccc5d20e49a4373eaa971729dab3d6d598ca890128f38c506c6578706572696d656e74616cf50037\n}\n",
				"bytecode": {
					"linkReferences": {},
					"object": "60806040526000600b556000600c556000600d556000600e556000600f5573c50c6297f56b033633c30354a854b074749cd2dc601060006101000a81548173ffffffffffffffffffffffffffffffffffffffff021916908373ffffffffffffffffffffffffffffffffffffffff16021790555034801561007e57600080fd5b506135288061008e6000396000f30060806040526004361061017f576000357c0100000000000000000000000000000000000000000000000000000000900463ffffffff168062ce8e3e14610184578063024decc5146101af578063076fd2f8146101da57806307973ccf1461021e578063127ca4b41461024957806316e0a6111461028657806317e51111146102af578063294a4540146102d857806344c23f88146103155780635fc8e8c6146103525780636cdb22781461038f578063779a9576146103b857806378522bc4146103e157806379111c1c1461040c578063793de5f01461043757806383a28b29146104745780638da5cb5b146104b65780638f84aa09146104e157806396e39ce01461050c57806399d698c5146105375780639f4216e814610562578063b13d5d941461059f578063b5cb15f7146105ca578063b744ff4d146105f5578063c3bf7bf014610620578063c543a7181461065d578063caee6c8514610688578063d118404b146106cc578063e0df0ac614610709578063ff508dab14610734575b600080fd5b34801561019057600080fd5b50610199610771565b6040516101a69190613235565b60405180910390f35b3480156101bb57600080fd5b506101c46107ff565b6040516101d19190613397565b60405180910390f35b3480156101e657600080fd5b5061020160048036036101fc9190810190612cc3565b610809565b604051610215989796959493929190613272565b60405180910390f35b34801561022a57600080fd5b50610233610d8e565b6040516102409190613397565b60405180910390f35b34801561025557600080fd5b50610270600480360361026b9190810190613133565b610d94565b60405161027d919061321a565b60405180910390f35b34801561029257600080fd5b506102ad60048036036102a89190810190612e26565b610dd2565b005b3480156102bb57600080fd5b506102d660048036036102d19190810190612e26565b610fc6565b005b3480156102e457600080fd5b506102ff60048036036102fa9190810190612cc3565b6113e0565b60405161030c9190613257565b60405180910390f35b34801561032157600080fd5b5061033c60048036036103379190810190612d28565b611492565b6040516103499190613257565b60405180910390f35b34801561035e57600080fd5b5061037960048036036103749190810190612cc3565b611702565b6040516103869190613257565b60405180910390f35b34801561039b57600080fd5b506103b660048036036103b19190810190612f80565b6117a1565b005b3480156103c457600080fd5b506103df60048036036103da9190810190612f80565b611bef565b005b3480156103ed57600080fd5b506103f6611e17565b6040516104039190613397565b60405180910390f35b34801561041857600080fd5b50610421611e1d565b60405161042e9190613397565b60405180910390f35b34801561044357600080fd5b5061045e60048036036104599190810190612cc3565b611e27565b60405161046b9190613257565b60405180910390f35b34801561048057600080fd5b5061049b60048036036104969190810190612cc3565b611ead565b6040516104ad96959493929190613321565b60405180910390f35b3480156104c257600080fd5b506104cb6121d3565b6040516104d8919061321a565b60405180910390f35b3480156104ed57600080fd5b506104f66121f8565b604051610503919061321a565b60405180910390f35b34801561051857600080fd5b50610521612261565b60405161052e9190613397565b60405180910390f35b34801561054357600080fd5b5061054c612267565b6040516105599190613397565b60405180910390f35b34801561056e57600080fd5b5061058960048036036105849190810190613133565b61226d565b604051610596919061321a565b60405180910390f35b3480156105ab57600080fd5b506105b46122ab565b6040516105c19190613235565b60405180910390f35b3480156105d657600080fd5b506105df612339565b6040516105ec9190613397565b60405180910390f35b34801561060157600080fd5b5061060a612343565b604051610617919061321a565b60405180910390f35b34801561062c57600080fd5b5061064760048036036106429190810190612cec565b612369565b6040516106549190613257565b60405180910390f35b34801561066957600080fd5b50610672612466565b60405161067f9190613397565b60405180910390f35b34801561069457600080fd5b506106af60048036036106aa9190810190612cc3565b61246c565b6040516106c3989796959493929190613272565b60405180910390f35b3480156106d857600080fd5b506106f360048036036106ee9190810190612cec565b612a49565b6040516107009190613257565b60405180910390f35b34801561071557600080fd5b5061071e612b58565b60405161072b9190613397565b60405180910390f35b34801561074057600080fd5b5061075b60048036036107569190810190613133565b612b62565b604051610768919061321a565b60405180910390f35b606060018054806020026020016040519081016040528092919081815260200182805480156107f557602002820191906000526020600020905b8160009054906101000a900473ffffffffffffffffffffffffffffffffffffffff1673ffffffffffffffffffffffffffffffffffffffff16815260200190600101908083116107ab575b5050505050905090565b6000600e54905090565b6060806060806060806060600080600760008b73ffffffffffffffffffffffffffffffffffffffff1673ffffffffffffffffffffffffffffffffffffffff16815260200190815260200160002060003373ffffffffffffffffffffffffffffffffffffffff1673ffffffffffffffffffffffffffffffffffffffff16815260200190815260200160002060009054906101000a900460ff1615156108ac57600080fd5b600460008b73ffffffffffffffffffffffffffffffffffffffff1673ffffffffffffffffffffffffffffffffffffffff1681526020019081526020016000209050806000018160010182600601836002018460030185600401866005018760090160009054906101000a900473ffffffffffffffffffffffffffffffffffffffff16878054600181600116156101000203166002900480601f0160208091040260200160405190810160405280929190818152602001828054600181600116156101000203166002900480156109c35780601f10610998576101008083540402835291602001916109c3565b820191906000526020600020905b8154815290600101906020018083116109a657829003601f168201915b50505050509750868054600181600116156101000203166002900480601f016020809104026020016040519081016040528092919081815260200182805460018160011615610100020316600290048015610a5f5780601f10610a3457610100808354040283529160200191610a5f565b820191906000526020600020905b815481529060010190602001808311610a4257829003601f168201915b50505050509650858054600181600116156101000203166002900480601f016020809104026020016040519081016040528092919081815260200182805460018160011615610100020316600290048015610afb5780601f10610ad057610100808354040283529160200191610afb565b820191906000526020600020905b815481529060010190602001808311610ade57829003601f168201915b50505050509550848054600181600116156101000203166002900480601f016020809104026020016040519081016040528092919081815260200182805460018160011615610100020316600290048015610b975780601f10610b6c57610100808354040283529160200191610b97565b820191906000526020600020905b815481529060010190602001808311610b7a57829003601f168201915b50505050509450838054600181600116156101000203166002900480601f016020809104026020016040519081016040528092919081815260200182805460018160011615610100020316600290048015610c335780601f10610c0857610100808354040283529160200191610c33565b820191906000526020600020905b815481529060010190602001808311610c1657829003601f168201915b50505050509350828054600181600116156101000203166002900480601f016020809104026020016040519081016040528092919081815260200182805460018160011615610100020316600290048015610ccf5780601f10610ca457610100808354040283529160200191610ccf565b820191906000526020600020905b815481529060010190602001808311610cb257829003601f168201915b50505050509250818054600181600116156101000203166002900480601f016020809104026020016040519081016040528092919081815260200182805460018160011615610100020316600290048015610d6b5780601f10610d4057610100808354040283529160200191610d6b565b820191906000526020600020905b815481529060010190602001808311610d4e57829003601f168201915b505050505091509850985098509850985098509850985050919395975091939597565b600b5481565b600281815481101515610da357fe5b906000526020600020016000915054906101000a900473ffffffffffffffffffffffffffffffffffffffff1681565b6000601060009054906101000a900473ffffffffffffffffffffffffffffffffffffffff1673ffffffffffffffffffffffffffffffffffffffff163373ffffffffffffffffffffffffffffffffffffffff16141515610e3057600080fd5b600960008a73ffffffffffffffffffffffffffffffffffffffff1673ffffffffffffffffffffffffffffffffffffffff16815260200190815260200160002060009054906101000a900460ff161515610e8857600080fd5b600560008a73ffffffffffffffffffffffffffffffffffffffff1673ffffffffffffffffffffffffffffffffffffffff168152602001908152602001600020905087816000019080519060200190610ee1929190612ba0565b5086816001019080519060200190610efa929190612ba0565b5085816002019080519060200190610f13929190612ba0565b5084816003019080519060200190610f2c929190612ba0565b5083816005019080519060200190610f45929190612ba0565b5082816006019080519060200190610f5e929190612ba0565b5081816007019080519060200190610f77929190612ba0565b50888160080160006101000a81548173ffffffffffffffffffffffffffffffffffffffff021916908373ffffffffffffffffffffffffffffffffffffffff160217905550505050505050505050565b6000601060009054906101000a900473ffffffffffffffffffffffffffffffffffffffff1673ffffffffffffffffffffffffffffffffffffffff163373ffffffffffffffffffffffffffffffffffffffff1614151561102457600080fd5b600960008a73ffffffffffffffffffffffffffffffffffffffff1673ffffffffffffffffffffffffffffffffffffffff16815260200190815260200160002060009054906101000a900460ff1615151561107d57600080fd5b600560008a73ffffffffffffffffffffffffffffffffffffffff1673ffffffffffffffffffffffffffffffffffffffff1681526020019081526020016000209050878160000190805190602001906110d6929190612ba0565b50868160010190805190602001906110ef929190612ba0565b5085816002019080519060200190611108929190612ba0565b5084816003019080519060200190611121929190612ba0565b508381600501908051906020019061113a929190612ba0565b5082816006019080519060200190611153929190612ba0565b508181600701908051906020019061116c929190612ba0565b50888160080160006101000a81548173ffffffffffffffffffffffffffffffffffffffff021916908373ffffffffffffffffffffffffffffffffffffffff16021790555042816009018190555060028990806001815401808255809150509060018203906000526020600020016000909192909190916101000a81548173ffffffffffffffffffffffffffffffffffffffff021916908373ffffffffffffffffffffffffffffffffffffffff160217905550506001600960008b73ffffffffffffffffffffffffffffffffffffffff1673ffffffffffffffffffffffffffffffffffffffff16815260200190815260200160002060006101000a81548160ff0219169083151502179055506001600760008b73ffffffffffffffffffffffffffffffffffffffff1673ffffffffffffffffffffffffffffffffffffffff16815260200190815260200160002060008b73ffffffffffffffffffffffffffffffffffffffff1673ffffffffffffffffffffffffffffffffffffffff16815260200190815260200160002060006101000a81548160ff0219169083151502179055506001600760008b73ffffffffffffffffffffffffffffffffffffffff1673ffffffffffffffffffffffffffffffffffffffff1681526020019081526020016000206000601060009054906101000a900473ffffffffffffffffffffffffffffffffffffffff1673ffffffffffffffffffffffffffffffffffffffff1673ffffffffffffffffffffffffffffffffffffffff16815260200190815260200160002060006101000a81548160ff021916908315150217905550600c60008154809291906001019190505550505050505050505050565b60006001600760003373ffffffffffffffffffffffffffffffffffffffff1673ffffffffffffffffffffffffffffffffffffffff16815260200190815260200160002060008473ffffffffffffffffffffffffffffffffffffffff1673ffffffffffffffffffffffffffffffffffffffff16815260200190815260200160002060006101000a81548160ff021916908315150217905550600e6000815480929190600101919050555060019050919050565b600080601060009054906101000a900473ffffffffffffffffffffffffffffffffffffffff1673ffffffffffffffffffffffffffffffffffffffff163373ffffffffffffffffffffffffffffffffffffffff161415156114f157600080fd5b600a60008a73ffffffffffffffffffffffffffffffffffffffff1673ffffffffffffffffffffffffffffffffffffffff16815260200190815260200160002060009054906101000a900460ff1615151561154a57600080fd5b600660008a73ffffffffffffffffffffffffffffffffffffffff1673ffffffffffffffffffffffffffffffffffffffff1681526020019081526020016000209050868160000190805190602001906115a3929190612ba0565b50858160010190805190602001906115bc929190612ba0565b50848160020190805190602001906115d5929190612ba0565b50838160030190805190602001906115ee929190612ba0565b50828160040181905550888160050160006101000a81548173ffffffffffffffffffffffffffffffffffffffff021916908373ffffffffffffffffffffffffffffffffffffffff160217905550878160060160006101000a81548173ffffffffffffffffffffffffffffffffffffffff021916908373ffffffffffffffffffffffffffffffffffffffff16021790555060038990806001815401808255809150509060018203906000526020600020016000909192909190916101000a81548173ffffffffffffffffffffffffffffffffffffffff021916908373ffffffffffffffffffffffffffffffffffffffff16021790555050600f6000815480929190600101919050555050979650505050505050565b600080600760003373ffffffffffffffffffffffffffffffffffffffff1673ffffffffffffffffffffffffffffffffffffffff16815260200190815260200160002060008473ffffffffffffffffffffffffffffffffffffffff1673ffffffffffffffffffffffffffffffffffffffff16815260200190815260200160002060006101000a81548160ff02191690831515021790555060019050919050565b6000601060009054906101000a900473ffffffffffffffffffffffffffffffffffffffff1673ffffffffffffffffffffffffffffffffffffffff163373ffffffffffffffffffffffffffffffffffffffff161415156117ff57600080fd5b600860008c73ffffffffffffffffffffffffffffffffffffffff1673ffffffffffffffffffffffffffffffffffffffff16815260200190815260200160002060009054906101000a900460ff1615151561185857600080fd5b600460008c73ffffffffffffffffffffffffffffffffffffffff1673ffffffffffffffffffffffffffffffffffffffff1681526020019081526020016000209050898160000190805190602001906118b1929190612ba0565b50888160010190805190602001906118ca929190612ba0565b50878160020190805190602001906118e3929190612ba0565b50868160030190805190602001906118fc929190612ba0565b5085816004019080519060200190611915929190612ba0565b508481600501908051906020019061192e929190612ba0565b5083816006019080519060200190611947929190612ba0565b5082816007019080519060200190611960929190612ba0565b5081816008019080519060200190611979929190612ba0565b508a8160090160006101000a81548173ffffffffffffffffffffffffffffffffffffffff021916908373ffffffffffffffffffffffffffffffffffffffff1602179055504281600a018190555060018b90806001815401808255809150509060018203906000526020600020016000909192909190916101000a81548173ffffffffffffffffffffffffffffffffffffffff021916908373ffffffffffffffffffffffffffffffffffffffff160217905550506001600860008d73ffffffffffffffffffffffffffffffffffffffff1673ffffffffffffffffffffffffffffffffffffffff16815260200190815260200160002060006101000a81548160ff0219169083151502179055506001600760008d73ffffffffffffffffffffffffffffffffffffffff1673ffffffffffffffffffffffffffffffffffffffff16815260200190815260200160002060008d73ffffffffffffffffffffffffffffffffffffffff1673ffffffffffffffffffffffffffffffffffffffff16815260200190815260200160002060006101000a81548160ff0219169083151502179055506001600760008d73ffffffffffffffffffffffffffffffffffffffff1673ffffffffffffffffffffffffffffffffffffffff1681526020019081526020016000206000601060009054906101000a900473ffffffffffffffffffffffffffffffffffffffff1673ffffffffffffffffffffffffffffffffffffffff1673ffffffffffffffffffffffffffffffffffffffff16815260200190815260200160002060006101000a81548160ff021916908315150217905550600b600081548092919060010191905055505050505050505050505050565b6000601060009054906101000a900473ffffffffffffffffffffffffffffffffffffffff1673ffffffffffffffffffffffffffffffffffffffff163373ffffffffffffffffffffffffffffffffffffffff16141515611c4d57600080fd5b600860008c73ffffffffffffffffffffffffffffffffffffffff1673ffffffffffffffffffffffffffffffffffffffff16815260200190815260200160002060009054906101000a900460ff161515611ca557600080fd5b600460008c73ffffffffffffffffffffffffffffffffffffffff1673ffffffffffffffffffffffffffffffffffffffff168152602001908152602001600020905089816000019080519060200190611cfe929190612ba0565b5088816001019080519060200190611d17929190612ba0565b5087816002019080519060200190611d30929190612ba0565b5086816003019080519060200190611d49929190612ba0565b5085816004019080519060200190611d62929190612ba0565b5084816005019080519060200190611d7b929190612ba0565b5083816006019080519060200190611d94929190612ba0565b5082816007019080519060200190611dad929190612ba0565b5081816008019080519060200190611dc6929190612ba0565b508a8160090160006101000a81548173ffffffffffffffffffffffffffffffffffffffff021916908373ffffffffffffffffffffffffffffffffffffffff1602179055505050505050505050505050565b600c5481565b6000600c54905090565b60008060009050600280549050811015611ea65760011515600960008573ffffffffffffffffffffffffffffffffffffffff1673ffffffffffffffffffffffffffffffffffffffff16815260200190815260200160002060009054906101000a900460ff1615151415611e9d5760019150611ea7565b60009150611ea7565b5b50919050565b6060806060600080600080600760008973ffffffffffffffffffffffffffffffffffffffff1673ffffffffffffffffffffffffffffffffffffffff16815260200190815260200160002060003373ffffffffffffffffffffffffffffffffffffffff1673ffffffffffffffffffffffffffffffffffffffff16815260200190815260200160002060009054906101000a900460ff161515611f4d57600080fd5b600660008973ffffffffffffffffffffffffffffffffffffffff1673ffffffffffffffffffffffffffffffffffffffff168152602001908152602001600020905080600101816002018260030183600401548460050160009054906101000a900473ffffffffffffffffffffffffffffffffffffffff168560060160009054906101000a900473ffffffffffffffffffffffffffffffffffffffff16858054600181600116156101000203166002900480601f01602080910402602001604051908101604052809291908181526020018280546001816001161561010002031660029004801561207e5780601f106120535761010080835404028352916020019161207e565b820191906000526020600020905b81548152906001019060200180831161206157829003601f168201915b50505050509550848054600181600116156101000203166002900480601f01602080910402602001604051908101604052809291908181526020018280546001816001161561010002031660029004801561211a5780601f106120ef5761010080835404028352916020019161211a565b820191906000526020600020905b8154815290600101906020018083116120fd57829003601f168201915b50505050509450838054600181600116156101000203166002900480601f0160208091040260200160405190810160405280929190818152602001828054600181600116156101000203166002900480156121b65780601f1061218b576101008083540402835291602001916121b6565b820191906000526020600020905b81548152906001019060200180831161219957829003601f168201915b505050505093509650965096509650965096505091939550919395565b6000809054906101000a900473ffffffffffffffffffffffffffffffffffffffff1681565b6000336000806101000a81548173ffffffffffffffffffffffffffffffffffffffff021916908373ffffffffffffffffffffffffffffffffffffffff1602179055506000809054906101000a900473ffffffffffffffffffffffffffffffffffffffff16905090565b600f5481565b600d5481565b60018181548110151561227c57fe5b906000526020600020016000915054906101000a900473ffffffffffffffffffffffffffffffffffffffff1681565b6060600280548060200260200160405190810160405280929190818152602001828054801561232f57602002820191906000526020600020905b8160009054906101000a900473ffffffffffffffffffffffffffffffffffffffff1673ffffffffffffffffffffffffffffffffffffffff16815260200190600101908083116122e5575b5050505050905090565b6000600b54905090565b601060009054906101000a900473ffffffffffffffffffffffffffffffffffffffff1681565b6000601060009054906101000a900473ffffffffffffffffffffffffffffffffffffffff1673ffffffffffffffffffffffffffffffffffffffff163373ffffffffffffffffffffffffffffffffffffffff161415156123c757600080fd5b6000600760008573ffffffffffffffffffffffffffffffffffffffff1673ffffffffffffffffffffffffffffffffffffffff16815260200190815260200160002060008473ffffffffffffffffffffffffffffffffffffffff1673ffffffffffffffffffffffffffffffffffffffff16815260200190815260200160002060006101000a81548160ff0219169083151502179055506001905092915050565b600e5481565b6060806060806060806060600080600760008b73ffffffffffffffffffffffffffffffffffffffff1673ffffffffffffffffffffffffffffffffffffffff16815260200190815260200160002060003373ffffffffffffffffffffffffffffffffffffffff1673ffffffffffffffffffffffffffffffffffffffff16815260200190815260200160002060009054906101000a900460ff16151561250f57600080fd5b600960008b73ffffffffffffffffffffffffffffffffffffffff1673ffffffffffffffffffffffffffffffffffffffff16815260200190815260200160002060009054906101000a900460ff16151561256757600080fd5b600560008b73ffffffffffffffffffffffffffffffffffffffff1673ffffffffffffffffffffffffffffffffffffffff1681526020019081526020016000209050806000018160010182600201836003018460050185600601866007018760080160009054906101000a900473ffffffffffffffffffffffffffffffffffffffff16878054600181600116156101000203166002900480601f01602080910402602001604051908101604052809291908181526020018280546001816001161561010002031660029004801561267e5780601f106126535761010080835404028352916020019161267e565b820191906000526020600020905b81548152906001019060200180831161266157829003601f168201915b50505050509750868054600181600116156101000203166002900480601f01602080910402602001604051908101604052809291908181526020018280546001816001161561010002031660029004801561271a5780601f106126ef5761010080835404028352916020019161271a565b820191906000526020600020905b8154815290600101906020018083116126fd57829003601f168201915b50505050509650858054600181600116156101000203166002900480601f0160208091040260200160405190810160405280929190818152602001828054600181600116156101000203166002900480156127b65780601f1061278b576101008083540402835291602001916127b6565b820191906000526020600020905b81548152906001019060200180831161279957829003601f168201915b50505050509550848054600181600116156101000203166002900480601f0160208091040260200160405190810160405280929190818152602001828054600181600116156101000203166002900480156128525780601f1061282757610100808354040283529160200191612852565b820191906000526020600020905b81548152906001019060200180831161283557829003601f168201915b50505050509450838054600181600116156101000203166002900480601f0160208091040260200160405190810160405280929190818152602001828054600181600116156101000203166002900480156128ee5780601f106128c3576101008083540402835291602001916128ee565b820191906000526020600020905b8154815290600101906020018083116128d157829003601f168201915b50505050509350828054600181600116156101000203166002900480601f01602080910402602001604051908101604052809291908181526020018280546001816001161561010002031660029004801561298a5780601f1061295f5761010080835404028352916020019161298a565b820191906000526020600020905b81548152906001019060200180831161296d57829003601f168201915b50505050509250818054600181600116156101000203166002900480601f016020809104026020016040519081016040528092919081815260200182805460018160011615610100020316600290048015612a265780601f106129fb57610100808354040283529160200191612a26565b820191906000526020600020905b815481529060010190602001808311612a0957829003601f168201915b505050505091509850985098509850985098509850985050919395975091939597565b6000601060009054906101000a900473ffffffffffffffffffffffffffffffffffffffff1673ffffffffffffffffffffffffffffffffffffffff163373ffffffffffffffffffffffffffffffffffffffff16141515612aa757600080fd5b6001600760008573ffffffffffffffffffffffffffffffffffffffff1673ffffffffffffffffffffffffffffffffffffffff16815260200190815260200160002060008473ffffffffffffffffffffffffffffffffffffffff1673ffffffffffffffffffffffffffffffffffffffff16815260200190815260200160002060006101000a81548160ff021916908315150217905550600d600081548092919060010191905055506001905092915050565b6000600d54905090565b600381815481101515612b7157fe5b906000526020600020016000915054906101000a900473ffffffffffffffffffffffffffffffffffffffff1681565b828054600181600116156101000203166002900490600052602060002090601f016020900481019282601f10612be157805160ff1916838001178555612c0f565b82800160010185558215612c0f579182015b82811115612c0e578251825591602001919060010190612bf3565b5b509050612c1c9190612c20565b5090565b612c4291905b80821115612c3e576000816000905550600101612c26565b5090565b90565b6000612c518235613471565b905092915050565b600082601f8301121515612c6c57600080fd5b8135612c7f612c7a826133df565b6133b2565b91508082526020830160208301858383011115612c9b57600080fd5b612ca683828461349b565b50505092915050565b6000612cbb8235613491565b905092915050565b600060208284031215612cd557600080fd5b6000612ce384828501612c45565b91505092915050565b60008060408385031215612cff57600080fd5b6000612d0d85828601612c45565b9250506020612d1e85828601612c45565b9150509250929050565b600080600080600080600060e0888a031215612d4357600080fd5b6000612d518a828b01612c45565b9750506020612d628a828b01612c45565b965050604088013567ffffffffffffffff811115612d7f57600080fd5b612d8b8a828b01612c59565b955050606088013567ffffffffffffffff811115612da857600080fd5b612db48a828b01612c59565b945050608088013567ffffffffffffffff811115612dd157600080fd5b612ddd8a828b01612c59565b93505060a088013567ffffffffffffffff811115612dfa57600080fd5b612e068a828b01612c59565b92505060c0612e178a828b01612caf565b91505092959891949750929550565b600080600080600080600080610100898b031215612e4357600080fd5b6000612e518b828c01612c45565b985050602089013567ffffffffffffffff811115612e6e57600080fd5b612e7a8b828c01612c59565b975050604089013567ffffffffffffffff811115612e9757600080fd5b612ea38b828c01612c59565b965050606089013567ffffffffffffffff811115612ec057600080fd5b612ecc8b828c01612c59565b955050608089013567ffffffffffffffff811115612ee957600080fd5b612ef58b828c01612c59565b94505060a089013567ffffffffffffffff811115612f1257600080fd5b612f1e8b828c01612c59565b93505060c089013567ffffffffffffffff811115612f3b57600080fd5b612f478b828c01612c59565b92505060e089013567ffffffffffffffff811115612f6457600080fd5b612f708b828c01612c59565b9150509295985092959890939650565b6000806000806000806000806000806101408b8d031215612fa057600080fd5b6000612fae8d828e01612c45565b9a505060208b013567ffffffffffffffff811115612fcb57600080fd5b612fd78d828e01612c59565b99505060408b013567ffffffffffffffff811115612ff457600080fd5b6130008d828e01612c59565b98505060608b013567ffffffffffffffff81111561301d57600080fd5b6130298d828e01612c59565b97505060808b013567ffffffffffffffff81111561304657600080fd5b6130528d828e01612c59565b96505060a08b013567ffffffffffffffff81111561306f57600080fd5b61307b8d828e01612c59565b95505060c08b013567ffffffffffffffff81111561309857600080fd5b6130a48d828e01612c59565b94505060e08b013567ffffffffffffffff8111156130c157600080fd5b6130cd8d828e01612c59565b9350506101008b013567ffffffffffffffff8111156130eb57600080fd5b6130f78d828e01612c59565b9250506101208b013567ffffffffffffffff81111561311557600080fd5b6131218d828e01612c59565b9150509295989b9194979a5092959850565b60006020828403121561314557600080fd5b600061315384828501612caf565b91505092915050565b6131658161343b565b82525050565b600061317682613418565b8084526020840193506131888361340b565b60005b828110156131ba5761319e86835161315c565b6131a78261342e565b915060208601955060018101905061318b565b50849250505092915050565b6131cf8161345b565b82525050565b60006131e082613423565b8084526131f48160208601602086016134aa565b6131fd816134dd565b602085010191505092915050565b61321481613467565b82525050565b600060208201905061322f600083018461315c565b92915050565b6000602082019050818103600083015261324f818461316b565b905092915050565b600060208201905061326c60008301846131c6565b92915050565b600061010082019050818103600083015261328d818b6131d5565b905081810360208301526132a1818a6131d5565b905081810360408301526132b581896131d5565b905081810360608301526132c981886131d5565b905081810360808301526132dd81876131d5565b905081810360a08301526132f181866131d5565b905081810360c083015261330581856131d5565b905061331460e083018461315c565b9998505050505050505050565b600060c082019050818103600083015261333b81896131d5565b9050818103602083015261334f81886131d5565b9050818103604083015261336381876131d5565b9050613372606083018661320b565b61337f608083018561315c565b61338c60a083018461315c565b979650505050505050565b60006020820190506133ac600083018461320b565b92915050565b6000604051905081810181811067ffffffffffffffff821117156133d557600080fd5b8060405250919050565b600067ffffffffffffffff8211156133f657600080fd5b601f19601f8301169050602081019050919050565b6000602082019050919050565b600081519050919050565b600081519050919050565b6000602082019050919050565b600073ffffffffffffffffffffffffffffffffffffffff82169050919050565b60008115159050919050565b6000819050919050565b600073ffffffffffffffffffffffffffffffffffffffff82169050919050565b6000819050919050565b82818337600083830152505050565b60005b838110156134c85780820151818401526020810190506134ad565b838111156134d7576000848401525b50505050565b6000601f19601f83011690509190505600a265627a7a723058204109d37b15811cc2ccc5d20e49a4373eaa971729dab3d6d598ca890128f38c506c6578706572696d656e74616cf50037",
					"opcodes": "PUSH1 0x80 PUSH1 0x40 MSTORE PUSH1 0x0 PUSH1 0xB SSTORE PUSH1 0x0 PUSH1 0xC SSTORE PUSH1 0x0 PUSH1 0xD SSTORE PUSH1 0x0 PUSH1 0xE SSTORE PUSH1 0x0 PUSH1 0xF SSTORE PUSH20 0xC50C6297F56B033633C30354A854B074749CD2DC PUSH1 0x10 PUSH1 0x0 PUSH2 0x100 EXP DUP2 SLOAD DUP2 PUSH20 0xFFFFFFFFFFFFFFFFFFFFFFFFFFFFFFFFFFFFFFFF MUL NOT AND SWAP1 DUP4 PUSH20 0xFFFFFFFFFFFFFFFFFFFFFFFFFFFFFFFFFFFFFFFF AND MUL OR SWAP1 SSTORE POP CALLVALUE DUP1 ISZERO PUSH2 0x7E JUMPI PUSH1 0x0 DUP1 REVERT JUMPDEST POP PUSH2 0x3528 DUP1 PUSH2 0x8E PUSH1 0x0 CODECOPY PUSH1 0x0 RETURN STOP PUSH1 0x80 PUSH1 0x40 MSTORE PUSH1 0x4 CALLDATASIZE LT PUSH2 0x17F JUMPI PUSH1 0x0 CALLDATALOAD PUSH29 0x100000000000000000000000000000000000000000000000000000000 SWAP1 DIV PUSH4 0xFFFFFFFF AND DUP1 PUSH3 0xCE8E3E EQ PUSH2 0x184 JUMPI DUP1 PUSH4 0x24DECC5 EQ PUSH2 0x1AF JUMPI DUP1 PUSH4 0x76FD2F8 EQ PUSH2 0x1DA JUMPI DUP1 PUSH4 0x7973CCF EQ PUSH2 0x21E JUMPI DUP1 PUSH4 0x127CA4B4 EQ PUSH2 0x249 JUMPI DUP1 PUSH4 0x16E0A611 EQ PUSH2 0x286 JUMPI DUP1 PUSH4 0x17E51111 EQ PUSH2 0x2AF JUMPI DUP1 PUSH4 0x294A4540 EQ PUSH2 0x2D8 JUMPI DUP1 PUSH4 0x44C23F88 EQ PUSH2 0x315 JUMPI DUP1 PUSH4 0x5FC8E8C6 EQ PUSH2 0x352 JUMPI DUP1 PUSH4 0x6CDB2278 EQ PUSH2 0x38F JUMPI DUP1 PUSH4 0x779A9576 EQ PUSH2 0x3B8 JUMPI DUP1 PUSH4 0x78522BC4 EQ PUSH2 0x3E1 JUMPI DUP1 PUSH4 0x79111C1C EQ PUSH2 0x40C JUMPI DUP1 PUSH4 0x793DE5F0 EQ PUSH2 0x437 JUMPI DUP1 PUSH4 0x83A28B29 EQ PUSH2 0x474 JUMPI DUP1 PUSH4 0x8DA5CB5B EQ PUSH2 0x4B6 JUMPI DUP1 PUSH4 0x8F84AA09 EQ PUSH2 0x4E1 JUMPI DUP1 PUSH4 0x96E39CE0 EQ PUSH2 0x50C JUMPI DUP1 PUSH4 0x99D698C5 EQ PUSH2 0x537 JUMPI DUP1 PUSH4 0x9F4216E8 EQ PUSH2 0x562 JUMPI DUP1 PUSH4 0xB13D5D94 EQ PUSH2 0x59F JUMPI DUP1 PUSH4 0xB5CB15F7 EQ PUSH2 0x5CA JUMPI DUP1 PUSH4 0xB744FF4D EQ PUSH2 0x5F5 JUMPI DUP1 PUSH4 0xC3BF7BF0 EQ PUSH2 0x620 JUMPI DUP1 PUSH4 0xC543A718 EQ PUSH2 0x65D JUMPI DUP1 PUSH4 0xCAEE6C85 EQ PUSH2 0x688 JUMPI DUP1 PUSH4 0xD118404B EQ PUSH2 0x6CC JUMPI DUP1 PUSH4 0xE0DF0AC6 EQ PUSH2 0x709 JUMPI DUP1 PUSH4 0xFF508DAB EQ PUSH2 0x734 JUMPI JUMPDEST PUSH1 0x0 DUP1 REVERT JUMPDEST CALLVALUE DUP1 ISZERO PUSH2 0x190 JUMPI PUSH1 0x0 DUP1 REVERT JUMPDEST POP PUSH2 0x199 PUSH2 0x771 JUMP JUMPDEST PUSH1 0x40 MLOAD PUSH2 0x1A6 SWAP2 SWAP1 PUSH2 0x3235 JUMP JUMPDEST PUSH1 0x40 MLOAD DUP1 SWAP2 SUB SWAP1 RETURN JUMPDEST CALLVALUE DUP1 ISZERO PUSH2 0x1BB JUMPI PUSH1 0x0 DUP1 REVERT JUMPDEST POP PUSH2 0x1C4 PUSH2 0x7FF JUMP JUMPDEST PUSH1 0x40 MLOAD PUSH2 0x1D1 SWAP2 SWAP1 PUSH2 0x3397 JUMP JUMPDEST PUSH1 0x40 MLOAD DUP1 SWAP2 SUB SWAP1 RETURN JUMPDEST CALLVALUE DUP1 ISZERO PUSH2 0x1E6 JUMPI PUSH1 0x0 DUP1 REVERT JUMPDEST POP PUSH2 0x201 PUSH1 0x4 DUP1 CALLDATASIZE SUB PUSH2 0x1FC SWAP2 SWAP1 DUP2 ADD SWAP1 PUSH2 0x2CC3 JUMP JUMPDEST PUSH2 0x809 JUMP JUMPDEST PUSH1 0x40 MLOAD PUSH2 0x215 SWAP9 SWAP8 SWAP7 SWAP6 SWAP5 SWAP4 SWAP3 SWAP2 SWAP1 PUSH2 0x3272 JUMP JUMPDEST PUSH1 0x40 MLOAD DUP1 SWAP2 SUB SWAP1 RETURN JUMPDEST CALLVALUE DUP1 ISZERO PUSH2 0x22A JUMPI PUSH1 0x0 DUP1 REVERT JUMPDEST POP PUSH2 0x233 PUSH2 0xD8E JUMP JUMPDEST PUSH1 0x40 MLOAD PUSH2 0x240 SWAP2 SWAP1 PUSH2 0x3397 JUMP JUMPDEST PUSH1 0x40 MLOAD DUP1 SWAP2 SUB SWAP1 RETURN JUMPDEST CALLVALUE DUP1 ISZERO PUSH2 0x255 JUMPI PUSH1 0x0 DUP1 REVERT JUMPDEST POP PUSH2 0x270 PUSH1 0x4 DUP1 CALLDATASIZE SUB PUSH2 0x26B SWAP2 SWAP1 DUP2 ADD SWAP1 PUSH2 0x3133 JUMP JUMPDEST PUSH2 0xD94 JUMP JUMPDEST PUSH1 0x40 MLOAD PUSH2 0x27D SWAP2 SWAP1 PUSH2 0x321A JUMP JUMPDEST PUSH1 0x40 MLOAD DUP1 SWAP2 SUB SWAP1 RETURN JUMPDEST CALLVALUE DUP1 ISZERO PUSH2 0x292 JUMPI PUSH1 0x0 DUP1 REVERT JUMPDEST POP PUSH2 0x2AD PUSH1 0x4 DUP1 CALLDATASIZE SUB PUSH2 0x2A8 SWAP2 SWAP1 DUP2 ADD SWAP1 PUSH2 0x2E26 JUMP JUMPDEST PUSH2 0xDD2 JUMP JUMPDEST STOP JUMPDEST CALLVALUE DUP1 ISZERO PUSH2 0x2BB JUMPI PUSH1 0x0 DUP1 REVERT JUMPDEST POP PUSH2 0x2D6 PUSH1 0x4 DUP1 CALLDATASIZE SUB PUSH2 0x2D1 SWAP2 SWAP1 DUP2 ADD SWAP1 PUSH2 0x2E26 JUMP JUMPDEST PUSH2 0xFC6 JUMP JUMPDEST STOP JUMPDEST CALLVALUE DUP1 ISZERO PUSH2 0x2E4 JUMPI PUSH1 0x0 DUP1 REVERT JUMPDEST POP PUSH2 0x2FF PUSH1 0x4 DUP1 CALLDATASIZE SUB PUSH2 0x2FA SWAP2 SWAP1 DUP2 ADD SWAP1 PUSH2 0x2CC3 JUMP JUMPDEST PUSH2 0x13E0 JUMP JUMPDEST PUSH1 0x40 MLOAD PUSH2 0x30C SWAP2 SWAP1 PUSH2 0x3257 JUMP JUMPDEST PUSH1 0x40 MLOAD DUP1 SWAP2 SUB SWAP1 RETURN JUMPDEST CALLVALUE DUP1 ISZERO PUSH2 0x321 JUMPI PUSH1 0x0 DUP1 REVERT JUMPDEST POP PUSH2 0x33C PUSH1 0x4 DUP1 CALLDATASIZE SUB PUSH2 0x337 SWAP2 SWAP1 DUP2 ADD SWAP1 PUSH2 0x2D28 JUMP JUMPDEST PUSH2 0x1492 JUMP JUMPDEST PUSH1 0x40 MLOAD PUSH2 0x349 SWAP2 SWAP1 PUSH2 0x3257 JUMP JUMPDEST PUSH1 0x40 MLOAD DUP1 SWAP2 SUB SWAP1 RETURN JUMPDEST CALLVALUE DUP1 ISZERO PUSH2 0x35E JUMPI PUSH1 0x0 DUP1 REVERT JUMPDEST POP PUSH2 0x379 PUSH1 0x4 DUP1 CALLDATASIZE SUB PUSH2 0x374 SWAP2 SWAP1 DUP2 ADD SWAP1 PUSH2 0x2CC3 JUMP JUMPDEST PUSH2 0x1702 JUMP JUMPDEST PUSH1 0x40 MLOAD PUSH2 0x386 SWAP2 SWAP1 PUSH2 0x3257 JUMP JUMPDEST PUSH1 0x40 MLOAD DUP1 SWAP2 SUB SWAP1 RETURN JUMPDEST CALLVALUE DUP1 ISZERO PUSH2 0x39B JUMPI PUSH1 0x0 DUP1 REVERT JUMPDEST POP PUSH2 0x3B6 PUSH1 0x4 DUP1 CALLDATASIZE SUB PUSH2 0x3B1 SWAP2 SWAP1 DUP2 ADD SWAP1 PUSH2 0x2F80 JUMP JUMPDEST PUSH2 0x17A1 JUMP JUMPDEST STOP JUMPDEST CALLVALUE DUP1 ISZERO PUSH2 0x3C4 JUMPI PUSH1 0x0 DUP1 REVERT JUMPDEST POP PUSH2 0x3DF PUSH1 0x4 DUP1 CALLDATASIZE SUB PUSH2 0x3DA SWAP2 SWAP1 DUP2 ADD SWAP1 PUSH2 0x2F80 JUMP JUMPDEST PUSH2 0x1BEF JUMP JUMPDEST STOP JUMPDEST CALLVALUE DUP1 ISZERO PUSH2 0x3ED JUMPI PUSH1 0x0 DUP1 REVERT JUMPDEST POP PUSH2 0x3F6 PUSH2 0x1E17 JUMP JUMPDEST PUSH1 0x40 MLOAD PUSH2 0x403 SWAP2 SWAP1 PUSH2 0x3397 JUMP JUMPDEST PUSH1 0x40 MLOAD DUP1 SWAP2 SUB SWAP1 RETURN JUMPDEST CALLVALUE DUP1 ISZERO PUSH2 0x418 JUMPI PUSH1 0x0 DUP1 REVERT JUMPDEST POP PUSH2 0x421 PUSH2 0x1E1D JUMP JUMPDEST PUSH1 0x40 MLOAD PUSH2 0x42E SWAP2 SWAP1 PUSH2 0x3397 JUMP JUMPDEST PUSH1 0x40 MLOAD DUP1 SWAP2 SUB SWAP1 RETURN JUMPDEST CALLVALUE DUP1 ISZERO PUSH2 0x443 JUMPI PUSH1 0x0 DUP1 REVERT JUMPDEST POP PUSH2 0x45E PUSH1 0x4 DUP1 CALLDATASIZE SUB PUSH2 0x459 SWAP2 SWAP1 DUP2 ADD SWAP1 PUSH2 0x2CC3 JUMP JUMPDEST PUSH2 0x1E27 JUMP JUMPDEST PUSH1 0x40 MLOAD PUSH2 0x46B SWAP2 SWAP1 PUSH2 0x3257 JUMP JUMPDEST PUSH1 0x40 MLOAD DUP1 SWAP2 SUB SWAP1 RETURN JUMPDEST CALLVALUE DUP1 ISZERO PUSH2 0x480 JUMPI PUSH1 0x0 DUP1 REVERT JUMPDEST POP PUSH2 0x49B PUSH1 0x4 DUP1 CALLDATASIZE SUB PUSH2 0x496 SWAP2 SWAP1 DUP2 ADD SWAP1 PUSH2 0x2CC3 JUMP JUMPDEST PUSH2 0x1EAD JUMP JUMPDEST PUSH1 0x40 MLOAD PUSH2 0x4AD SWAP7 SWAP6 SWAP5 SWAP4 SWAP3 SWAP2 SWAP1 PUSH2 0x3321 JUMP JUMPDEST PUSH1 0x40 MLOAD DUP1 SWAP2 SUB SWAP1 RETURN JUMPDEST CALLVALUE DUP1 ISZERO PUSH2 0x4C2 JUMPI PUSH1 0x0 DUP1 REVERT JUMPDEST POP PUSH2 0x4CB PUSH2 0x21D3 JUMP JUMPDEST PUSH1 0x40 MLOAD PUSH2 0x4D8 SWAP2 SWAP1 PUSH2 0x321A JUMP JUMPDEST PUSH1 0x40 MLOAD DUP1 SWAP2 SUB SWAP1 RETURN JUMPDEST CALLVALUE DUP1 ISZERO PUSH2 0x4ED JUMPI PUSH1 0x0 DUP1 REVERT JUMPDEST POP PUSH2 0x4F6 PUSH2 0x21F8 JUMP JUMPDEST PUSH1 0x40 MLOAD PUSH2 0x503 SWAP2 SWAP1 PUSH2 0x321A JUMP JUMPDEST PUSH1 0x40 MLOAD DUP1 SWAP2 SUB SWAP1 RETURN JUMPDEST CALLVALUE DUP1 ISZERO PUSH2 0x518 JUMPI PUSH1 0x0 DUP1 REVERT JUMPDEST POP PUSH2 0x521 PUSH2 0x2261 JUMP JUMPDEST PUSH1 0x40 MLOAD PUSH2 0x52E SWAP2 SWAP1 PUSH2 0x3397 JUMP JUMPDEST PUSH1 0x40 MLOAD DUP1 SWAP2 SUB SWAP1 RETURN JUMPDEST CALLVALUE DUP1 ISZERO PUSH2 0x543 JUMPI PUSH1 0x0 DUP1 REVERT JUMPDEST POP PUSH2 0x54C PUSH2 0x2267 JUMP JUMPDEST PUSH1 0x40 MLOAD PUSH2 0x559 SWAP2 SWAP1 PUSH2 0x3397 JUMP JUMPDEST PUSH1 0x40 MLOAD DUP1 SWAP2 SUB SWAP1 RETURN JUMPDEST CALLVALUE DUP1 ISZERO PUSH2 0x56E JUMPI PUSH1 0x0 DUP1 REVERT JUMPDEST POP PUSH2 0x589 PUSH1 0x4 DUP1 CALLDATASIZE SUB PUSH2 0x584 SWAP2 SWAP1 DUP2 ADD SWAP1 PUSH2 0x3133 JUMP JUMPDEST PUSH2 0x226D JUMP JUMPDEST PUSH1 0x40 MLOAD PUSH2 0x596 SWAP2 SWAP1 PUSH2 0x321A JUMP JUMPDEST PUSH1 0x40 MLOAD DUP1 SWAP2 SUB SWAP1 RETURN JUMPDEST CALLVALUE DUP1 ISZERO PUSH2 0x5AB JUMPI PUSH1 0x0 DUP1 REVERT JUMPDEST POP PUSH2 0x5B4 PUSH2 0x22AB JUMP JUMPDEST PUSH1 0x40 MLOAD PUSH2 0x5C1 SWAP2 SWAP1 PUSH2 0x3235 JUMP JUMPDEST PUSH1 0x40 MLOAD DUP1 SWAP2 SUB SWAP1 RETURN JUMPDEST CALLVALUE DUP1 ISZERO PUSH2 0x5D6 JUMPI PUSH1 0x0 DUP1 REVERT JUMPDEST POP PUSH2 0x5DF PUSH2 0x2339 JUMP JUMPDEST PUSH1 0x40 MLOAD PUSH2 0x5EC SWAP2 SWAP1 PUSH2 0x3397 JUMP JUMPDEST PUSH1 0x40 MLOAD DUP1 SWAP2 SUB SWAP1 RETURN JUMPDEST CALLVALUE DUP1 ISZERO PUSH2 0x601 JUMPI PUSH1 0x0 DUP1 REVERT JUMPDEST POP PUSH2 0x60A PUSH2 0x2343 JUMP JUMPDEST PUSH1 0x40 MLOAD PUSH2 0x617 SWAP2 SWAP1 PUSH2 0x321A JUMP JUMPDEST PUSH1 0x40 MLOAD DUP1 SWAP2 SUB SWAP1 RETURN JUMPDEST CALLVALUE DUP1 ISZERO PUSH2 0x62C JUMPI PUSH1 0x0 DUP1 REVERT JUMPDEST POP PUSH2 0x647 PUSH1 0x4 DUP1 CALLDATASIZE SUB PUSH2 0x642 SWAP2 SWAP1 DUP2 ADD SWAP1 PUSH2 0x2CEC JUMP JUMPDEST PUSH2 0x2369 JUMP JUMPDEST PUSH1 0x40 MLOAD PUSH2 0x654 SWAP2 SWAP1 PUSH2 0x3257 JUMP JUMPDEST PUSH1 0x40 MLOAD DUP1 SWAP2 SUB SWAP1 RETURN JUMPDEST CALLVALUE DUP1 ISZERO PUSH2 0x669 JUMPI PUSH1 0x0 DUP1 REVERT JUMPDEST POP PUSH2 0x672 PUSH2 0x2466 JUMP JUMPDEST PUSH1 0x40 MLOAD PUSH2 0x67F SWAP2 SWAP1 PUSH2 0x3397 JUMP JUMPDEST PUSH1 0x40 MLOAD DUP1 SWAP2 SUB SWAP1 RETURN JUMPDEST CALLVALUE DUP1 ISZERO PUSH2 0x694 JUMPI PUSH1 0x0 DUP1 REVERT JUMPDEST POP PUSH2 0x6AF PUSH1 0x4 DUP1 CALLDATASIZE SUB PUSH2 0x6AA SWAP2 SWAP1 DUP2 ADD SWAP1 PUSH2 0x2CC3 JUMP JUMPDEST PUSH2 0x246C JUMP JUMPDEST PUSH1 0x40 MLOAD PUSH2 0x6C3 SWAP9 SWAP8 SWAP7 SWAP6 SWAP5 SWAP4 SWAP3 SWAP2 SWAP1 PUSH2 0x3272 JUMP JUMPDEST PUSH1 0x40 MLOAD DUP1 SWAP2 SUB SWAP1 RETURN JUMPDEST CALLVALUE DUP1 ISZERO PUSH2 0x6D8 JUMPI PUSH1 0x0 DUP1 REVERT JUMPDEST POP PUSH2 0x6F3 PUSH1 0x4 DUP1 CALLDATASIZE SUB PUSH2 0x6EE SWAP2 SWAP1 DUP2 ADD SWAP1 PUSH2 0x2CEC JUMP JUMPDEST PUSH2 0x2A49 JUMP JUMPDEST PUSH1 0x40 MLOAD PUSH2 0x700 SWAP2 SWAP1 PUSH2 0x3257 JUMP JUMPDEST PUSH1 0x40 MLOAD DUP1 SWAP2 SUB SWAP1 RETURN JUMPDEST CALLVALUE DUP1 ISZERO PUSH2 0x715 JUMPI PUSH1 0x0 DUP1 REVERT JUMPDEST POP PUSH2 0x71E PUSH2 0x2B58 JUMP JUMPDEST PUSH1 0x40 MLOAD PUSH2 0x72B SWAP2 SWAP1 PUSH2 0x3397 JUMP JUMPDEST PUSH1 0x40 MLOAD DUP1 SWAP2 SUB SWAP1 RETURN JUMPDEST CALLVALUE DUP1 ISZERO PUSH2 0x740 JUMPI PUSH1 0x0 DUP1 REVERT JUMPDEST POP PUSH2 0x75B PUSH1 0x4 DUP1 CALLDATASIZE SUB PUSH2 0x756 SWAP2 SWAP1 DUP2 ADD SWAP1 PUSH2 0x3133 JUMP JUMPDEST PUSH2 0x2B62 JUMP JUMPDEST PUSH1 0x40 MLOAD PUSH2 0x768 SWAP2 SWAP1 PUSH2 0x321A JUMP JUMPDEST PUSH1 0x40 MLOAD DUP1 SWAP2 SUB SWAP1 RETURN JUMPDEST PUSH1 0x60 PUSH1 0x1 DUP1 SLOAD DUP1 PUSH1 0x20 MUL PUSH1 0x20 ADD PUSH1 0x40 MLOAD SWAP1 DUP2 ADD PUSH1 0x40 MSTORE DUP1 SWAP3 SWAP2 SWAP1 DUP2 DUP2 MSTORE PUSH1 0x20 ADD DUP3 DUP1 SLOAD DUP1 ISZERO PUSH2 0x7F5 JUMPI PUSH1 0x20 MUL DUP3 ADD SWAP2 SWAP1 PUSH1 0x0 MSTORE PUSH1 0x20 PUSH1 0x0 KECCAK256 SWAP1 JUMPDEST DUP2 PUSH1 0x0 SWAP1 SLOAD SWAP1 PUSH2 0x100 EXP SWAP1 DIV PUSH20 0xFFFFFFFFFFFFFFFFFFFFFFFFFFFFFFFFFFFFFFFF AND PUSH20 0xFFFFFFFFFFFFFFFFFFFFFFFFFFFFFFFFFFFFFFFF AND DUP2 MSTORE PUSH1 0x20 ADD SWAP1 PUSH1 0x1 ADD SWAP1 DUP1 DUP4 GT PUSH2 0x7AB JUMPI JUMPDEST POP POP POP POP POP SWAP1 POP SWAP1 JUMP JUMPDEST PUSH1 0x0 PUSH1 0xE SLOAD SWAP1 POP SWAP1 JUMP JUMPDEST PUSH1 0x60 DUP1 PUSH1 0x60 DUP1 PUSH1 0x60 DUP1 PUSH1 0x60 PUSH1 0x0 DUP1 PUSH1 0x7 PUSH1 0x0 DUP12 PUSH20 0xFFFFFFFFFFFFFFFFFFFFFFFFFFFFFFFFFFFFFFFF AND PUSH20 0xFFFFFFFFFFFFFFFFFFFFFFFFFFFFFFFFFFFFFFFF AND DUP2 MSTORE PUSH1 0x20 ADD SWAP1 DUP2 MSTORE PUSH1 0x20 ADD PUSH1 0x0 KECCAK256 PUSH1 0x0 CALLER PUSH20 0xFFFFFFFFFFFFFFFFFFFFFFFFFFFFFFFFFFFFFFFF AND PUSH20 0xFFFFFFFFFFFFFFFFFFFFFFFFFFFFFFFFFFFFFFFF AND DUP2 MSTORE PUSH1 0x20 ADD SWAP1 DUP2 MSTORE PUSH1 0x20 ADD PUSH1 0x0 KECCAK256 PUSH1 0x0 SWAP1 SLOAD SWAP1 PUSH2 0x100 EXP SWAP1 DIV PUSH1 0xFF AND ISZERO ISZERO PUSH2 0x8AC JUMPI PUSH1 0x0 DUP1 REVERT JUMPDEST PUSH1 0x4 PUSH1 0x0 DUP12 PUSH20 0xFFFFFFFFFFFFFFFFFFFFFFFFFFFFFFFFFFFFFFFF AND PUSH20 0xFFFFFFFFFFFFFFFFFFFFFFFFFFFFFFFFFFFFFFFF AND DUP2 MSTORE PUSH1 0x20 ADD SWAP1 DUP2 MSTORE PUSH1 0x20 ADD PUSH1 0x0 KECCAK256 SWAP1 POP DUP1 PUSH1 0x0 ADD DUP2 PUSH1 0x1 ADD DUP3 PUSH1 0x6 ADD DUP4 PUSH1 0x2 ADD DUP5 PUSH1 0x3 ADD DUP6 PUSH1 0x4 ADD DUP7 PUSH1 0x5 ADD DUP8 PUSH1 0x9 ADD PUSH1 0x0 SWAP1 SLOAD SWAP1 PUSH2 0x100 EXP SWAP1 DIV PUSH20 0xFFFFFFFFFFFFFFFFFFFFFFFFFFFFFFFFFFFFFFFF AND DUP8 DUP1 SLOAD PUSH1 0x1 DUP2 PUSH1 0x1 AND ISZERO PUSH2 0x100 MUL SUB AND PUSH1 0x2 SWAP1 DIV DUP1 PUSH1 0x1F ADD PUSH1 0x20 DUP1 SWAP2 DIV MUL PUSH1 0x20 ADD PUSH1 0x40 MLOAD SWAP1 DUP2 ADD PUSH1 0x40 MSTORE DUP1 SWAP3 SWAP2 SWAP1 DUP2 DUP2 MSTORE PUSH1 0x20 ADD DUP3 DUP1 SLOAD PUSH1 0x1 DUP2 PUSH1 0x1 AND ISZERO PUSH2 0x100 MUL SUB AND PUSH1 0x2 SWAP1 DIV DUP1 ISZERO PUSH2 0x9C3 JUMPI DUP1 PUSH1 0x1F LT PUSH2 0x998 JUMPI PUSH2 0x100 DUP1 DUP4 SLOAD DIV MUL DUP4 MSTORE SWAP2 PUSH1 0x20 ADD SWAP2 PUSH2 0x9C3 JUMP JUMPDEST DUP3 ADD SWAP2 SWAP1 PUSH1 0x0 MSTORE PUSH1 0x20 PUSH1 0x0 KECCAK256 SWAP1 JUMPDEST DUP2 SLOAD DUP2 MSTORE SWAP1 PUSH1 0x1 ADD SWAP1 PUSH1 0x20 ADD DUP1 DUP4 GT PUSH2 0x9A6 JUMPI DUP3 SWAP1 SUB PUSH1 0x1F AND DUP3 ADD SWAP2 JUMPDEST POP POP POP POP POP SWAP8 POP DUP7 DUP1 SLOAD PUSH1 0x1 DUP2 PUSH1 0x1 AND ISZERO PUSH2 0x100 MUL SUB AND PUSH1 0x2 SWAP1 DIV DUP1 PUSH1 0x1F ADD PUSH1 0x20 DUP1 SWAP2 DIV MUL PUSH1 0x20 ADD PUSH1 0x40 MLOAD SWAP1 DUP2 ADD PUSH1 0x40 MSTORE DUP1 SWAP3 SWAP2 SWAP1 DUP2 DUP2 MSTORE PUSH1 0x20 ADD DUP3 DUP1 SLOAD PUSH1 0x1 DUP2 PUSH1 0x1 AND ISZERO PUSH2 0x100 MUL SUB AND PUSH1 0x2 SWAP1 DIV DUP1 ISZERO PUSH2 0xA5F JUMPI DUP1 PUSH1 0x1F LT PUSH2 0xA34 JUMPI PUSH2 0x100 DUP1 DUP4 SLOAD DIV MUL DUP4 MSTORE SWAP2 PUSH1 0x20 ADD SWAP2 PUSH2 0xA5F JUMP JUMPDEST DUP3 ADD SWAP2 SWAP1 PUSH1 0x0 MSTORE PUSH1 0x20 PUSH1 0x0 KECCAK256 SWAP1 JUMPDEST DUP2 SLOAD DUP2 MSTORE SWAP1 PUSH1 0x1 ADD SWAP1 PUSH1 0x20 ADD DUP1 DUP4 GT PUSH2 0xA42 JUMPI DUP3 SWAP1 SUB PUSH1 0x1F AND DUP3 ADD SWAP2 JUMPDEST POP POP POP POP POP SWAP7 POP DUP6 DUP1 SLOAD PUSH1 0x1 DUP2 PUSH1 0x1 AND ISZERO PUSH2 0x100 MUL SUB AND PUSH1 0x2 SWAP1 DIV DUP1 PUSH1 0x1F ADD PUSH1 0x20 DUP1 SWAP2 DIV MUL PUSH1 0x20 ADD PUSH1 0x40 MLOAD SWAP1 DUP2 ADD PUSH1 0x40 MSTORE DUP1 SWAP3 SWAP2 SWAP1 DUP2 DUP2 MSTORE PUSH1 0x20 ADD DUP3 DUP1 SLOAD PUSH1 0x1 DUP2 PUSH1 0x1 AND ISZERO PUSH2 0x100 MUL SUB AND PUSH1 0x2 SWAP1 DIV DUP1 ISZERO PUSH2 0xAFB JUMPI DUP1 PUSH1 0x1F LT PUSH2 0xAD0 JUMPI PUSH2 0x100 DUP1 DUP4 SLOAD DIV MUL DUP4 MSTORE SWAP2 PUSH1 0x20 ADD SWAP2 PUSH2 0xAFB JUMP JUMPDEST DUP3 ADD SWAP2 SWAP1 PUSH1 0x0 MSTORE PUSH1 0x20 PUSH1 0x0 KECCAK256 SWAP1 JUMPDEST DUP2 SLOAD DUP2 MSTORE SWAP1 PUSH1 0x1 ADD SWAP1 PUSH1 0x20 ADD DUP1 DUP4 GT PUSH2 0xADE JUMPI DUP3 SWAP1 SUB PUSH1 0x1F AND DUP3 ADD SWAP2 JUMPDEST POP POP POP POP POP SWAP6 POP DUP5 DUP1 SLOAD PUSH1 0x1 DUP2 PUSH1 0x1 AND ISZERO PUSH2 0x100 MUL SUB AND PUSH1 0x2 SWAP1 DIV DUP1 PUSH1 0x1F ADD PUSH1 0x20 DUP1 SWAP2 DIV MUL PUSH1 0x20 ADD PUSH1 0x40 MLOAD SWAP1 DUP2 ADD PUSH1 0x40 MSTORE DUP1 SWAP3 SWAP2 SWAP1 DUP2 DUP2 MSTORE PUSH1 0x20 ADD DUP3 DUP1 SLOAD PUSH1 0x1 DUP2 PUSH1 0x1 AND ISZERO PUSH2 0x100 MUL SUB AND PUSH1 0x2 SWAP1 DIV DUP1 ISZERO PUSH2 0xB97 JUMPI DUP1 PUSH1 0x1F LT PUSH2 0xB6C JUMPI PUSH2 0x100 DUP1 DUP4 SLOAD DIV MUL DUP4 MSTORE SWAP2 PUSH1 0x20 ADD SWAP2 PUSH2 0xB97 JUMP JUMPDEST DUP3 ADD SWAP2 SWAP1 PUSH1 0x0 MSTORE PUSH1 0x20 PUSH1 0x0 KECCAK256 SWAP1 JUMPDEST DUP2 SLOAD DUP2 MSTORE SWAP1 PUSH1 0x1 ADD SWAP1 PUSH1 0x20 ADD DUP1 DUP4 GT PUSH2 0xB7A JUMPI DUP3 SWAP1 SUB PUSH1 0x1F AND DUP3 ADD SWAP2 JUMPDEST POP POP POP POP POP SWAP5 POP DUP4 DUP1 SLOAD PUSH1 0x1 DUP2 PUSH1 0x1 AND ISZERO PUSH2 0x100 MUL SUB AND PUSH1 0x2 SWAP1 DIV DUP1 PUSH1 0x1F ADD PUSH1 0x20 DUP1 SWAP2 DIV MUL PUSH1 0x20 ADD PUSH1 0x40 MLOAD SWAP1 DUP2 ADD PUSH1 0x40 MSTORE DUP1 SWAP3 SWAP2 SWAP1 DUP2 DUP2 MSTORE PUSH1 0x20 ADD DUP3 DUP1 SLOAD PUSH1 0x1 DUP2 PUSH1 0x1 AND ISZERO PUSH2 0x100 MUL SUB AND PUSH1 0x2 SWAP1 DIV DUP1 ISZERO PUSH2 0xC33 JUMPI DUP1 PUSH1 0x1F LT PUSH2 0xC08 JUMPI PUSH2 0x100 DUP1 DUP4 SLOAD DIV MUL DUP4 MSTORE SWAP2 PUSH1 0x20 ADD SWAP2 PUSH2 0xC33 JUMP JUMPDEST DUP3 ADD SWAP2 SWAP1 PUSH1 0x0 MSTORE PUSH1 0x20 PUSH1 0x0 KECCAK256 SWAP1 JUMPDEST DUP2 SLOAD DUP2 MSTORE SWAP1 PUSH1 0x1 ADD SWAP1 PUSH1 0x20 ADD DUP1 DUP4 GT PUSH2 0xC16 JUMPI DUP3 SWAP1 SUB PUSH1 0x1F AND DUP3 ADD SWAP2 JUMPDEST POP POP POP POP POP SWAP4 POP DUP3 DUP1 SLOAD PUSH1 0x1 DUP2 PUSH1 0x1 AND ISZERO PUSH2 0x100 MUL SUB AND PUSH1 0x2 SWAP1 DIV DUP1 PUSH1 0x1F ADD PUSH1 0x20 DUP1 SWAP2 DIV MUL PUSH1 0x20 ADD PUSH1 0x40 MLOAD SWAP1 DUP2 ADD PUSH1 0x40 MSTORE DUP1 SWAP3 SWAP2 SWAP1 DUP2 DUP2 MSTORE PUSH1 0x20 ADD DUP3 DUP1 SLOAD PUSH1 0x1 DUP2 PUSH1 0x1 AND ISZERO PUSH2 0x100 MUL SUB AND PUSH1 0x2 SWAP1 DIV DUP1 ISZERO PUSH2 0xCCF JUMPI DUP1 PUSH1 0x1F LT PUSH2 0xCA4 JUMPI PUSH2 0x100 DUP1 DUP4 SLOAD DIV MUL DUP4 MSTORE SWAP2 PUSH1 0x20 ADD SWAP2 PUSH2 0xCCF JUMP JUMPDEST DUP3 ADD SWAP2 SWAP1 PUSH1 0x0 MSTORE PUSH1 0x20 PUSH1 0x0 KECCAK256 SWAP1 JUMPDEST DUP2 SLOAD DUP2 MSTORE SWAP1 PUSH1 0x1 ADD SWAP1 PUSH1 0x20 ADD DUP1 DUP4 GT PUSH2 0xCB2 JUMPI DUP3 SWAP1 SUB PUSH1 0x1F AND DUP3 ADD SWAP2 JUMPDEST POP POP POP POP POP SWAP3 POP DUP2 DUP1 SLOAD PUSH1 0x1 DUP2 PUSH1 0x1 AND ISZERO PUSH2 0x100 MUL SUB AND PUSH1 0x2 SWAP1 DIV DUP1 PUSH1 0x1F ADD PUSH1 0x20 DUP1 SWAP2 DIV MUL PUSH1 0x20 ADD PUSH1 0x40 MLOAD SWAP1 DUP2 ADD PUSH1 0x40 MSTORE DUP1 SWAP3 SWAP2 SWAP1 DUP2 DUP2 MSTORE PUSH1 0x20 ADD DUP3 DUP1 SLOAD PUSH1 0x1 DUP2 PUSH1 0x1 AND ISZERO PUSH2 0x100 MUL SUB AND PUSH1 0x2 SWAP1 DIV DUP1 ISZERO PUSH2 0xD6B JUMPI DUP1 PUSH1 0x1F LT PUSH2 0xD40 JUMPI PUSH2 0x100 DUP1 DUP4 SLOAD DIV MUL DUP4 MSTORE SWAP2 PUSH1 0x20 ADD SWAP2 PUSH2 0xD6B JUMP JUMPDEST DUP3 ADD SWAP2 SWAP1 PUSH1 0x0 MSTORE PUSH1 0x20 PUSH1 0x0 KECCAK256 SWAP1 JUMPDEST DUP2 SLOAD DUP2 MSTORE SWAP1 PUSH1 0x1 ADD SWAP1 PUSH1 0x20 ADD DUP1 DUP4 GT PUSH2 0xD4E JUMPI DUP3 SWAP1 SUB PUSH1 0x1F AND DUP3 ADD SWAP2 JUMPDEST POP POP POP POP POP SWAP2 POP SWAP9 POP SWAP9 POP SWAP9 POP SWAP9 POP SWAP9 POP SWAP9 POP SWAP9 POP SWAP9 POP POP SWAP2 SWAP4 SWAP6 SWAP8 POP SWAP2 SWAP4 SWAP6 SWAP8 JUMP JUMPDEST PUSH1 0xB SLOAD DUP2 JUMP JUMPDEST PUSH1 0x2 DUP2 DUP2 SLOAD DUP2 LT ISZERO ISZERO PUSH2 0xDA3 JUMPI INVALID JUMPDEST SWAP1 PUSH1 0x0 MSTORE PUSH1 0x20 PUSH1 0x0 KECCAK256 ADD PUSH1 0x0 SWAP2 POP SLOAD SWAP1 PUSH2 0x100 EXP SWAP1 DIV PUSH20 0xFFFFFFFFFFFFFFFFFFFFFFFFFFFFFFFFFFFFFFFF AND DUP2 JUMP JUMPDEST PUSH1 0x0 PUSH1 0x10 PUSH1 0x0 SWAP1 SLOAD SWAP1 PUSH2 0x100 EXP SWAP1 DIV PUSH20 0xFFFFFFFFFFFFFFFFFFFFFFFFFFFFFFFFFFFFFFFF AND PUSH20 0xFFFFFFFFFFFFFFFFFFFFFFFFFFFFFFFFFFFFFFFF AND CALLER PUSH20 0xFFFFFFFFFFFFFFFFFFFFFFFFFFFFFFFFFFFFFFFF AND EQ ISZERO ISZERO PUSH2 0xE30 JUMPI PUSH1 0x0 DUP1 REVERT JUMPDEST PUSH1 0x9 PUSH1 0x0 DUP11 PUSH20 0xFFFFFFFFFFFFFFFFFFFFFFFFFFFFFFFFFFFFFFFF AND PUSH20 0xFFFFFFFFFFFFFFFFFFFFFFFFFFFFFFFFFFFFFFFF AND DUP2 MSTORE PUSH1 0x20 ADD SWAP1 DUP2 MSTORE PUSH1 0x20 ADD PUSH1 0x0 KECCAK256 PUSH1 0x0 SWAP1 SLOAD SWAP1 PUSH2 0x100 EXP SWAP1 DIV PUSH1 0xFF AND ISZERO ISZERO PUSH2 0xE88 JUMPI PUSH1 0x0 DUP1 REVERT JUMPDEST PUSH1 0x5 PUSH1 0x0 DUP11 PUSH20 0xFFFFFFFFFFFFFFFFFFFFFFFFFFFFFFFFFFFFFFFF AND PUSH20 0xFFFFFFFFFFFFFFFFFFFFFFFFFFFFFFFFFFFFFFFF AND DUP2 MSTORE PUSH1 0x20 ADD SWAP1 DUP2 MSTORE PUSH1 0x20 ADD PUSH1 0x0 KECCAK256 SWAP1 POP DUP8 DUP2 PUSH1 0x0 ADD SWAP1 DUP1 MLOAD SWAP1 PUSH1 0x20 ADD SWAP1 PUSH2 0xEE1 SWAP3 SWAP2 SWAP1 PUSH2 0x2BA0 JUMP JUMPDEST POP DUP7 DUP2 PUSH1 0x1 ADD SWAP1 DUP1 MLOAD SWAP1 PUSH1 0x20 ADD SWAP1 PUSH2 0xEFA SWAP3 SWAP2 SWAP1 PUSH2 0x2BA0 JUMP JUMPDEST POP DUP6 DUP2 PUSH1 0x2 ADD SWAP1 DUP1 MLOAD SWAP1 PUSH1 0x20 ADD SWAP1 PUSH2 0xF13 SWAP3 SWAP2 SWAP1 PUSH2 0x2BA0 JUMP JUMPDEST POP DUP5 DUP2 PUSH1 0x3 ADD SWAP1 DUP1 MLOAD SWAP1 PUSH1 0x20 ADD SWAP1 PUSH2 0xF2C SWAP3 SWAP2 SWAP1 PUSH2 0x2BA0 JUMP JUMPDEST POP DUP4 DUP2 PUSH1 0x5 ADD SWAP1 DUP1 MLOAD SWAP1 PUSH1 0x20 ADD SWAP1 PUSH2 0xF45 SWAP3 SWAP2 SWAP1 PUSH2 0x2BA0 JUMP JUMPDEST POP DUP3 DUP2 PUSH1 0x6 ADD SWAP1 DUP1 MLOAD SWAP1 PUSH1 0x20 ADD SWAP1 PUSH2 0xF5E SWAP3 SWAP2 SWAP1 PUSH2 0x2BA0 JUMP JUMPDEST POP DUP2 DUP2 PUSH1 0x7 ADD SWAP1 DUP1 MLOAD SWAP1 PUSH1 0x20 ADD SWAP1 PUSH2 0xF77 SWAP3 SWAP2 SWAP1 PUSH2 0x2BA0 JUMP JUMPDEST POP DUP9 DUP2 PUSH1 0x8 ADD PUSH1 0x0 PUSH2 0x100 EXP DUP2 SLOAD DUP2 PUSH20 0xFFFFFFFFFFFFFFFFFFFFFFFFFFFFFFFFFFFFFFFF MUL NOT AND SWAP1 DUP4 PUSH20 0xFFFFFFFFFFFFFFFFFFFFFFFFFFFFFFFFFFFFFFFF AND MUL OR SWAP1 SSTORE POP POP POP POP POP POP POP POP POP POP JUMP JUMPDEST PUSH1 0x0 PUSH1 0x10 PUSH1 0x0 SWAP1 SLOAD SWAP1 PUSH2 0x100 EXP SWAP1 DIV PUSH20 0xFFFFFFFFFFFFFFFFFFFFFFFFFFFFFFFFFFFFFFFF AND PUSH20 0xFFFFFFFFFFFFFFFFFFFFFFFFFFFFFFFFFFFFFFFF AND CALLER PUSH20 0xFFFFFFFFFFFFFFFFFFFFFFFFFFFFFFFFFFFFFFFF AND EQ ISZERO ISZERO PUSH2 0x1024 JUMPI PUSH1 0x0 DUP1 REVERT JUMPDEST PUSH1 0x9 PUSH1 0x0 DUP11 PUSH20 0xFFFFFFFFFFFFFFFFFFFFFFFFFFFFFFFFFFFFFFFF AND PUSH20 0xFFFFFFFFFFFFFFFFFFFFFFFFFFFFFFFFFFFFFFFF AND DUP2 MSTORE PUSH1 0x20 ADD SWAP1 DUP2 MSTORE PUSH1 0x20 ADD PUSH1 0x0 KECCAK256 PUSH1 0x0 SWAP1 SLOAD SWAP1 PUSH2 0x100 EXP SWAP1 DIV PUSH1 0xFF AND ISZERO ISZERO ISZERO PUSH2 0x107D JUMPI PUSH1 0x0 DUP1 REVERT JUMPDEST PUSH1 0x5 PUSH1 0x0 DUP11 PUSH20 0xFFFFFFFFFFFFFFFFFFFFFFFFFFFFFFFFFFFFFFFF AND PUSH20 0xFFFFFFFFFFFFFFFFFFFFFFFFFFFFFFFFFFFFFFFF AND DUP2 MSTORE PUSH1 0x20 ADD SWAP1 DUP2 MSTORE PUSH1 0x20 ADD PUSH1 0x0 KECCAK256 SWAP1 POP DUP8 DUP2 PUSH1 0x0 ADD SWAP1 DUP1 MLOAD SWAP1 PUSH1 0x20 ADD SWAP1 PUSH2 0x10D6 SWAP3 SWAP2 SWAP1 PUSH2 0x2BA0 JUMP JUMPDEST POP DUP7 DUP2 PUSH1 0x1 ADD SWAP1 DUP1 MLOAD SWAP1 PUSH1 0x20 ADD SWAP1 PUSH2 0x10EF SWAP3 SWAP2 SWAP1 PUSH2 0x2BA0 JUMP JUMPDEST POP DUP6 DUP2 PUSH1 0x2 ADD SWAP1 DUP1 MLOAD SWAP1 PUSH1 0x20 ADD SWAP1 PUSH2 0x1108 SWAP3 SWAP2 SWAP1 PUSH2 0x2BA0 JUMP JUMPDEST POP DUP5 DUP2 PUSH1 0x3 ADD SWAP1 DUP1 MLOAD SWAP1 PUSH1 0x20 ADD SWAP1 PUSH2 0x1121 SWAP3 SWAP2 SWAP1 PUSH2 0x2BA0 JUMP JUMPDEST POP DUP4 DUP2 PUSH1 0x5 ADD SWAP1 DUP1 MLOAD SWAP1 PUSH1 0x20 ADD SWAP1 PUSH2 0x113A SWAP3 SWAP2 SWAP1 PUSH2 0x2BA0 JUMP JUMPDEST POP DUP3 DUP2 PUSH1 0x6 ADD SWAP1 DUP1 MLOAD SWAP1 PUSH1 0x20 ADD SWAP1 PUSH2 0x1153 SWAP3 SWAP2 SWAP1 PUSH2 0x2BA0 JUMP JUMPDEST POP DUP2 DUP2 PUSH1 0x7 ADD SWAP1 DUP1 MLOAD SWAP1 PUSH1 0x20 ADD SWAP1 PUSH2 0x116C SWAP3 SWAP2 SWAP1 PUSH2 0x2BA0 JUMP JUMPDEST POP DUP9 DUP2 PUSH1 0x8 ADD PUSH1 0x0 PUSH2 0x100 EXP DUP2 SLOAD DUP2 PUSH20 0xFFFFFFFFFFFFFFFFFFFFFFFFFFFFFFFFFFFFFFFF MUL NOT AND SWAP1 DUP4 PUSH20 0xFFFFFFFFFFFFFFFFFFFFFFFFFFFFFFFFFFFFFFFF AND MUL OR SWAP1 SSTORE POP TIMESTAMP DUP2 PUSH1 0x9 ADD DUP2 SWAP1 SSTORE POP PUSH1 0x2 DUP10 SWAP1 DUP1 PUSH1 0x1 DUP2 SLOAD ADD DUP1 DUP3 SSTORE DUP1 SWAP2 POP POP SWAP1 PUSH1 0x1 DUP3 SUB SWAP1 PUSH1 0x0 MSTORE PUSH1 0x20 PUSH1 0x0 KECCAK256 ADD PUSH1 0x0 SWAP1 SWAP2 SWAP3 SWAP1 SWAP2 SWAP1 SWAP2 PUSH2 0x100 EXP DUP2 SLOAD DUP2 PUSH20 0xFFFFFFFFFFFFFFFFFFFFFFFFFFFFFFFFFFFFFFFF MUL NOT AND SWAP1 DUP4 PUSH20 0xFFFFFFFFFFFFFFFFFFFFFFFFFFFFFFFFFFFFFFFF AND MUL OR SWAP1 SSTORE POP POP PUSH1 0x1 PUSH1 0x9 PUSH1 0x0 DUP12 PUSH20 0xFFFFFFFFFFFFFFFFFFFFFFFFFFFFFFFFFFFFFFFF AND PUSH20 0xFFFFFFFFFFFFFFFFFFFFFFFFFFFFFFFFFFFFFFFF AND DUP2 MSTORE PUSH1 0x20 ADD SWAP1 DUP2 MSTORE PUSH1 0x20 ADD PUSH1 0x0 KECCAK256 PUSH1 0x0 PUSH2 0x100 EXP DUP2 SLOAD DUP2 PUSH1 0xFF MUL NOT AND SWAP1 DUP4 ISZERO ISZERO MUL OR SWAP1 SSTORE POP PUSH1 0x1 PUSH1 0x7 PUSH1 0x0 DUP12 PUSH20 0xFFFFFFFFFFFFFFFFFFFFFFFFFFFFFFFFFFFFFFFF AND PUSH20 0xFFFFFFFFFFFFFFFFFFFFFFFFFFFFFFFFFFFFFFFF AND DUP2 MSTORE PUSH1 0x20 ADD SWAP1 DUP2 MSTORE PUSH1 0x20 ADD PUSH1 0x0 KECCAK256 PUSH1 0x0 DUP12 PUSH20 0xFFFFFFFFFFFFFFFFFFFFFFFFFFFFFFFFFFFFFFFF AND PUSH20 0xFFFFFFFFFFFFFFFFFFFFFFFFFFFFFFFFFFFFFFFF AND DUP2 MSTORE PUSH1 0x20 ADD SWAP1 DUP2 MSTORE PUSH1 0x20 ADD PUSH1 0x0 KECCAK256 PUSH1 0x0 PUSH2 0x100 EXP DUP2 SLOAD DUP2 PUSH1 0xFF MUL NOT AND SWAP1 DUP4 ISZERO ISZERO MUL OR SWAP1 SSTORE POP PUSH1 0x1 PUSH1 0x7 PUSH1 0x0 DUP12 PUSH20 0xFFFFFFFFFFFFFFFFFFFFFFFFFFFFFFFFFFFFFFFF AND PUSH20 0xFFFFFFFFFFFFFFFFFFFFFFFFFFFFFFFFFFFFFFFF AND DUP2 MSTORE PUSH1 0x20 ADD SWAP1 DUP2 MSTORE PUSH1 0x20 ADD PUSH1 0x0 KECCAK256 PUSH1 0x0 PUSH1 0x10 PUSH1 0x0 SWAP1 SLOAD SWAP1 PUSH2 0x100 EXP SWAP1 DIV PUSH20 0xFFFFFFFFFFFFFFFFFFFFFFFFFFFFFFFFFFFFFFFF AND PUSH20 0xFFFFFFFFFFFFFFFFFFFFFFFFFFFFFFFFFFFFFFFF AND PUSH20 0xFFFFFFFFFFFFFFFFFFFFFFFFFFFFFFFFFFFFFFFF AND DUP2 MSTORE PUSH1 0x20 ADD SWAP1 DUP2 MSTORE PUSH1 0x20 ADD PUSH1 0x0 KECCAK256 PUSH1 0x0 PUSH2 0x100 EXP DUP2 SLOAD DUP2 PUSH1 0xFF MUL NOT AND SWAP1 DUP4 ISZERO ISZERO MUL OR SWAP1 SSTORE POP PUSH1 0xC PUSH1 0x0 DUP2 SLOAD DUP1 SWAP3 SWAP2 SWAP1 PUSH1 0x1 ADD SWAP2 SWAP1 POP SSTORE POP POP POP POP POP POP POP POP POP POP JUMP JUMPDEST PUSH1 0x0 PUSH1 0x1 PUSH1 0x7 PUSH1 0x0 CALLER PUSH20 0xFFFFFFFFFFFFFFFFFFFFFFFFFFFFFFFFFFFFFFFF AND PUSH20 0xFFFFFFFFFFFFFFFFFFFFFFFFFFFFFFFFFFFFFFFF AND DUP2 MSTORE PUSH1 0x20 ADD SWAP1 DUP2 MSTORE PUSH1 0x20 ADD PUSH1 0x0 KECCAK256 PUSH1 0x0 DUP5 PUSH20 0xFFFFFFFFFFFFFFFFFFFFFFFFFFFFFFFFFFFFFFFF AND PUSH20 0xFFFFFFFFFFFFFFFFFFFFFFFFFFFFFFFFFFFFFFFF AND DUP2 MSTORE PUSH1 0x20 ADD SWAP1 DUP2 MSTORE PUSH1 0x20 ADD PUSH1 0x0 KECCAK256 PUSH1 0x0 PUSH2 0x100 EXP DUP2 SLOAD DUP2 PUSH1 0xFF MUL NOT AND SWAP1 DUP4 ISZERO ISZERO MUL OR SWAP1 SSTORE POP PUSH1 0xE PUSH1 0x0 DUP2 SLOAD DUP1 SWAP3 SWAP2 SWAP1 PUSH1 0x1 ADD SWAP2 SWAP1 POP SSTORE POP PUSH1 0x1 SWAP1 POP SWAP2 SWAP1 POP JUMP JUMPDEST PUSH1 0x0 DUP1 PUSH1 0x10 PUSH1 0x0 SWAP1 SLOAD SWAP1 PUSH2 0x100 EXP SWAP1 DIV PUSH20 0xFFFFFFFFFFFFFFFFFFFFFFFFFFFFFFFFFFFFFFFF AND PUSH20 0xFFFFFFFFFFFFFFFFFFFFFFFFFFFFFFFFFFFFFFFF AND CALLER PUSH20 0xFFFFFFFFFFFFFFFFFFFFFFFFFFFFFFFFFFFFFFFF AND EQ ISZERO ISZERO PUSH2 0x14F1 JUMPI PUSH1 0x0 DUP1 REVERT JUMPDEST PUSH1 0xA PUSH1 0x0 DUP11 PUSH20 0xFFFFFFFFFFFFFFFFFFFFFFFFFFFFFFFFFFFFFFFF AND PUSH20 0xFFFFFFFFFFFFFFFFFFFFFFFFFFFFFFFFFFFFFFFF AND DUP2 MSTORE PUSH1 0x20 ADD SWAP1 DUP2 MSTORE PUSH1 0x20 ADD PUSH1 0x0 KECCAK256 PUSH1 0x0 SWAP1 SLOAD SWAP1 PUSH2 0x100 EXP SWAP1 DIV PUSH1 0xFF AND ISZERO ISZERO ISZERO PUSH2 0x154A JUMPI PUSH1 0x0 DUP1 REVERT JUMPDEST PUSH1 0x6 PUSH1 0x0 DUP11 PUSH20 0xFFFFFFFFFFFFFFFFFFFFFFFFFFFFFFFFFFFFFFFF AND PUSH20 0xFFFFFFFFFFFFFFFFFFFFFFFFFFFFFFFFFFFFFFFF AND DUP2 MSTORE PUSH1 0x20 ADD SWAP1 DUP2 MSTORE PUSH1 0x20 ADD PUSH1 0x0 KECCAK256 SWAP1 POP DUP7 DUP2 PUSH1 0x0 ADD SWAP1 DUP1 MLOAD SWAP1 PUSH1 0x20 ADD SWAP1 PUSH2 0x15A3 SWAP3 SWAP2 SWAP1 PUSH2 0x2BA0 JUMP JUMPDEST POP DUP6 DUP2 PUSH1 0x1 ADD SWAP1 DUP1 MLOAD SWAP1 PUSH1 0x20 ADD SWAP1 PUSH2 0x15BC SWAP3 SWAP2 SWAP1 PUSH2 0x2BA0 JUMP JUMPDEST POP DUP5 DUP2 PUSH1 0x2 ADD SWAP1 DUP1 MLOAD SWAP1 PUSH1 0x20 ADD SWAP1 PUSH2 0x15D5 SWAP3 SWAP2 SWAP1 PUSH2 0x2BA0 JUMP JUMPDEST POP DUP4 DUP2 PUSH1 0x3 ADD SWAP1 DUP1 MLOAD SWAP1 PUSH1 0x20 ADD SWAP1 PUSH2 0x15EE SWAP3 SWAP2 SWAP1 PUSH2 0x2BA0 JUMP JUMPDEST POP DUP3 DUP2 PUSH1 0x4 ADD DUP2 SWAP1 SSTORE POP DUP9 DUP2 PUSH1 0x5 ADD PUSH1 0x0 PUSH2 0x100 EXP DUP2 SLOAD DUP2 PUSH20 0xFFFFFFFFFFFFFFFFFFFFFFFFFFFFFFFFFFFFFFFF MUL NOT AND SWAP1 DUP4 PUSH20 0xFFFFFFFFFFFFFFFFFFFFFFFFFFFFFFFFFFFFFFFF AND MUL OR SWAP1 SSTORE POP DUP8 DUP2 PUSH1 0x6 ADD PUSH1 0x0 PUSH2 0x100 EXP DUP2 SLOAD DUP2 PUSH20 0xFFFFFFFFFFFFFFFFFFFFFFFFFFFFFFFFFFFFFFFF MUL NOT AND SWAP1 DUP4 PUSH20 0xFFFFFFFFFFFFFFFFFFFFFFFFFFFFFFFFFFFFFFFF AND MUL OR SWAP1 SSTORE POP PUSH1 0x3 DUP10 SWAP1 DUP1 PUSH1 0x1 DUP2 SLOAD ADD DUP1 DUP3 SSTORE DUP1 SWAP2 POP POP SWAP1 PUSH1 0x1 DUP3 SUB SWAP1 PUSH1 0x0 MSTORE PUSH1 0x20 PUSH1 0x0 KECCAK256 ADD PUSH1 0x0 SWAP1 SWAP2 SWAP3 SWAP1 SWAP2 SWAP1 SWAP2 PUSH2 0x100 EXP DUP2 SLOAD DUP2 PUSH20 0xFFFFFFFFFFFFFFFFFFFFFFFFFFFFFFFFFFFFFFFF MUL NOT AND SWAP1 DUP4 PUSH20 0xFFFFFFFFFFFFFFFFFFFFFFFFFFFFFFFFFFFFFFFF AND MUL OR SWAP1 SSTORE POP POP PUSH1 0xF PUSH1 0x0 DUP2 SLOAD DUP1 SWAP3 SWAP2 SWAP1 PUSH1 0x1 ADD SWAP2 SWAP1 POP SSTORE POP POP SWAP8 SWAP7 POP POP POP POP POP POP POP JUMP JUMPDEST PUSH1 0x0 DUP1 PUSH1 0x7 PUSH1 0x0 CALLER PUSH20 0xFFFFFFFFFFFFFFFFFFFFFFFFFFFFFFFFFFFFFFFF AND PUSH20 0xFFFFFFFFFFFFFFFFFFFFFFFFFFFFFFFFFFFFFFFF AND DUP2 MSTORE PUSH1 0x20 ADD SWAP1 DUP2 MSTORE PUSH1 0x20 ADD PUSH1 0x0 KECCAK256 PUSH1 0x0 DUP5 PUSH20 0xFFFFFFFFFFFFFFFFFFFFFFFFFFFFFFFFFFFFFFFF AND PUSH20 0xFFFFFFFFFFFFFFFFFFFFFFFFFFFFFFFFFFFFFFFF AND DUP2 MSTORE PUSH1 0x20 ADD SWAP1 DUP2 MSTORE PUSH1 0x20 ADD PUSH1 0x0 KECCAK256 PUSH1 0x0 PUSH2 0x100 EXP DUP2 SLOAD DUP2 PUSH1 0xFF MUL NOT AND SWAP1 DUP4 ISZERO ISZERO MUL OR SWAP1 SSTORE POP PUSH1 0x1 SWAP1 POP SWAP2 SWAP1 POP JUMP JUMPDEST PUSH1 0x0 PUSH1 0x10 PUSH1 0x0 SWAP1 SLOAD SWAP1 PUSH2 0x100 EXP SWAP1 DIV PUSH20 0xFFFFFFFFFFFFFFFFFFFFFFFFFFFFFFFFFFFFFFFF AND PUSH20 0xFFFFFFFFFFFFFFFFFFFFFFFFFFFFFFFFFFFFFFFF AND CALLER PUSH20 0xFFFFFFFFFFFFFFFFFFFFFFFFFFFFFFFFFFFFFFFF AND EQ ISZERO ISZERO PUSH2 0x17FF JUMPI PUSH1 0x0 DUP1 REVERT JUMPDEST PUSH1 0x8 PUSH1 0x0 DUP13 PUSH20 0xFFFFFFFFFFFFFFFFFFFFFFFFFFFFFFFFFFFFFFFF AND PUSH20 0xFFFFFFFFFFFFFFFFFFFFFFFFFFFFFFFFFFFFFFFF AND DUP2 MSTORE PUSH1 0x20 ADD SWAP1 DUP2 MSTORE PUSH1 0x20 ADD PUSH1 0x0 KECCAK256 PUSH1 0x0 SWAP1 SLOAD SWAP1 PUSH2 0x100 EXP SWAP1 DIV PUSH1 0xFF AND ISZERO ISZERO ISZERO PUSH2 0x1858 JUMPI PUSH1 0x0 DUP1 REVERT JUMPDEST PUSH1 0x4 PUSH1 0x0 DUP13 PUSH20 0xFFFFFFFFFFFFFFFFFFFFFFFFFFFFFFFFFFFFFFFF AND PUSH20 0xFFFFFFFFFFFFFFFFFFFFFFFFFFFFFFFFFFFFFFFF AND DUP2 MSTORE PUSH1 0x20 ADD SWAP1 DUP2 MSTORE PUSH1 0x20 ADD PUSH1 0x0 KECCAK256 SWAP1 POP DUP10 DUP2 PUSH1 0x0 ADD SWAP1 DUP1 MLOAD SWAP1 PUSH1 0x20 ADD SWAP1 PUSH2 0x18B1 SWAP3 SWAP2 SWAP1 PUSH2 0x2BA0 JUMP JUMPDEST POP DUP9 DUP2 PUSH1 0x1 ADD SWAP1 DUP1 MLOAD SWAP1 PUSH1 0x20 ADD SWAP1 PUSH2 0x18CA SWAP3 SWAP2 SWAP1 PUSH2 0x2BA0 JUMP JUMPDEST POP DUP8 DUP2 PUSH1 0x2 ADD SWAP1 DUP1 MLOAD SWAP1 PUSH1 0x20 ADD SWAP1 PUSH2 0x18E3 SWAP3 SWAP2 SWAP1 PUSH2 0x2BA0 JUMP JUMPDEST POP DUP7 DUP2 PUSH1 0x3 ADD SWAP1 DUP1 MLOAD SWAP1 PUSH1 0x20 ADD SWAP1 PUSH2 0x18FC SWAP3 SWAP2 SWAP1 PUSH2 0x2BA0 JUMP JUMPDEST POP DUP6 DUP2 PUSH1 0x4 ADD SWAP1 DUP1 MLOAD SWAP1 PUSH1 0x20 ADD SWAP1 PUSH2 0x1915 SWAP3 SWAP2 SWAP1 PUSH2 0x2BA0 JUMP JUMPDEST POP DUP5 DUP2 PUSH1 0x5 ADD SWAP1 DUP1 MLOAD SWAP1 PUSH1 0x20 ADD SWAP1 PUSH2 0x192E SWAP3 SWAP2 SWAP1 PUSH2 0x2BA0 JUMP JUMPDEST POP DUP4 DUP2 PUSH1 0x6 ADD SWAP1 DUP1 MLOAD SWAP1 PUSH1 0x20 ADD SWAP1 PUSH2 0x1947 SWAP3 SWAP2 SWAP1 PUSH2 0x2BA0 JUMP JUMPDEST POP DUP3 DUP2 PUSH1 0x7 ADD SWAP1 DUP1 MLOAD SWAP1 PUSH1 0x20 ADD SWAP1 PUSH2 0x1960 SWAP3 SWAP2 SWAP1 PUSH2 0x2BA0 JUMP JUMPDEST POP DUP2 DUP2 PUSH1 0x8 ADD SWAP1 DUP1 MLOAD SWAP1 PUSH1 0x20 ADD SWAP1 PUSH2 0x1979 SWAP3 SWAP2 SWAP1 PUSH2 0x2BA0 JUMP JUMPDEST POP DUP11 DUP2 PUSH1 0x9 ADD PUSH1 0x0 PUSH2 0x100 EXP DUP2 SLOAD DUP2 PUSH20 0xFFFFFFFFFFFFFFFFFFFFFFFFFFFFFFFFFFFFFFFF MUL NOT AND SWAP1 DUP4 PUSH20 0xFFFFFFFFFFFFFFFFFFFFFFFFFFFFFFFFFFFFFFFF AND MUL OR SWAP1 SSTORE POP TIMESTAMP DUP2 PUSH1 0xA ADD DUP2 SWAP1 SSTORE POP PUSH1 0x1 DUP12 SWAP1 DUP1 PUSH1 0x1 DUP2 SLOAD ADD DUP1 DUP3 SSTORE DUP1 SWAP2 POP POP SWAP1 PUSH1 0x1 DUP3 SUB SWAP1 PUSH1 0x0 MSTORE PUSH1 0x20 PUSH1 0x0 KECCAK256 ADD PUSH1 0x0 SWAP1 SWAP2 SWAP3 SWAP1 SWAP2 SWAP1 SWAP2 PUSH2 0x100 EXP DUP2 SLOAD DUP2 PUSH20 0xFFFFFFFFFFFFFFFFFFFFFFFFFFFFFFFFFFFFFFFF MUL NOT AND SWAP1 DUP4 PUSH20 0xFFFFFFFFFFFFFFFFFFFFFFFFFFFFFFFFFFFFFFFF AND MUL OR SWAP1 SSTORE POP POP PUSH1 0x1 PUSH1 0x8 PUSH1 0x0 DUP14 PUSH20 0xFFFFFFFFFFFFFFFFFFFFFFFFFFFFFFFFFFFFFFFF AND PUSH20 0xFFFFFFFFFFFFFFFFFFFFFFFFFFFFFFFFFFFFFFFF AND DUP2 MSTORE PUSH1 0x20 ADD SWAP1 DUP2 MSTORE PUSH1 0x20 ADD PUSH1 0x0 KECCAK256 PUSH1 0x0 PUSH2 0x100 EXP DUP2 SLOAD DUP2 PUSH1 0xFF MUL NOT AND SWAP1 DUP4 ISZERO ISZERO MUL OR SWAP1 SSTORE POP PUSH1 0x1 PUSH1 0x7 PUSH1 0x0 DUP14 PUSH20 0xFFFFFFFFFFFFFFFFFFFFFFFFFFFFFFFFFFFFFFFF AND PUSH20 0xFFFFFFFFFFFFFFFFFFFFFFFFFFFFFFFFFFFFFFFF AND DUP2 MSTORE PUSH1 0x20 ADD SWAP1 DUP2 MSTORE PUSH1 0x20 ADD PUSH1 0x0 KECCAK256 PUSH1 0x0 DUP14 PUSH20 0xFFFFFFFFFFFFFFFFFFFFFFFFFFFFFFFFFFFFFFFF AND PUSH20 0xFFFFFFFFFFFFFFFFFFFFFFFFFFFFFFFFFFFFFFFF AND DUP2 MSTORE PUSH1 0x20 ADD SWAP1 DUP2 MSTORE PUSH1 0x20 ADD PUSH1 0x0 KECCAK256 PUSH1 0x0 PUSH2 0x100 EXP DUP2 SLOAD DUP2 PUSH1 0xFF MUL NOT AND SWAP1 DUP4 ISZERO ISZERO MUL OR SWAP1 SSTORE POP PUSH1 0x1 PUSH1 0x7 PUSH1 0x0 DUP14 PUSH20 0xFFFFFFFFFFFFFFFFFFFFFFFFFFFFFFFFFFFFFFFF AND PUSH20 0xFFFFFFFFFFFFFFFFFFFFFFFFFFFFFFFFFFFFFFFF AND DUP2 MSTORE PUSH1 0x20 ADD SWAP1 DUP2 MSTORE PUSH1 0x20 ADD PUSH1 0x0 KECCAK256 PUSH1 0x0 PUSH1 0x10 PUSH1 0x0 SWAP1 SLOAD SWAP1 PUSH2 0x100 EXP SWAP1 DIV PUSH20 0xFFFFFFFFFFFFFFFFFFFFFFFFFFFFFFFFFFFFFFFF AND PUSH20 0xFFFFFFFFFFFFFFFFFFFFFFFFFFFFFFFFFFFFFFFF AND PUSH20 0xFFFFFFFFFFFFFFFFFFFFFFFFFFFFFFFFFFFFFFFF AND DUP2 MSTORE PUSH1 0x20 ADD SWAP1 DUP2 MSTORE PUSH1 0x20 ADD PUSH1 0x0 KECCAK256 PUSH1 0x0 PUSH2 0x100 EXP DUP2 SLOAD DUP2 PUSH1 0xFF MUL NOT AND SWAP1 DUP4 ISZERO ISZERO MUL OR SWAP1 SSTORE POP PUSH1 0xB PUSH1 0x0 DUP2 SLOAD DUP1 SWAP3 SWAP2 SWAP1 PUSH1 0x1 ADD SWAP2 SWAP1 POP SSTORE POP POP POP POP POP POP POP POP POP POP POP POP JUMP JUMPDEST PUSH1 0x0 PUSH1 0x10 PUSH1 0x0 SWAP1 SLOAD SWAP1 PUSH2 0x100 EXP SWAP1 DIV PUSH20 0xFFFFFFFFFFFFFFFFFFFFFFFFFFFFFFFFFFFFFFFF AND PUSH20 0xFFFFFFFFFFFFFFFFFFFFFFFFFFFFFFFFFFFFFFFF AND CALLER PUSH20 0xFFFFFFFFFFFFFFFFFFFFFFFFFFFFFFFFFFFFFFFF AND EQ ISZERO ISZERO PUSH2 0x1C4D JUMPI PUSH1 0x0 DUP1 REVERT JUMPDEST PUSH1 0x8 PUSH1 0x0 DUP13 PUSH20 0xFFFFFFFFFFFFFFFFFFFFFFFFFFFFFFFFFFFFFFFF AND PUSH20 0xFFFFFFFFFFFFFFFFFFFFFFFFFFFFFFFFFFFFFFFF AND DUP2 MSTORE PUSH1 0x20 ADD SWAP1 DUP2 MSTORE PUSH1 0x20 ADD PUSH1 0x0 KECCAK256 PUSH1 0x0 SWAP1 SLOAD SWAP1 PUSH2 0x100 EXP SWAP1 DIV PUSH1 0xFF AND ISZERO ISZERO PUSH2 0x1CA5 JUMPI PUSH1 0x0 DUP1 REVERT JUMPDEST PUSH1 0x4 PUSH1 0x0 DUP13 PUSH20 0xFFFFFFFFFFFFFFFFFFFFFFFFFFFFFFFFFFFFFFFF AND PUSH20 0xFFFFFFFFFFFFFFFFFFFFFFFFFFFFFFFFFFFFFFFF AND DUP2 MSTORE PUSH1 0x20 ADD SWAP1 DUP2 MSTORE PUSH1 0x20 ADD PUSH1 0x0 KECCAK256 SWAP1 POP DUP10 DUP2 PUSH1 0x0 ADD SWAP1 DUP1 MLOAD SWAP1 PUSH1 0x20 ADD SWAP1 PUSH2 0x1CFE SWAP3 SWAP2 SWAP1 PUSH2 0x2BA0 JUMP JUMPDEST POP DUP9 DUP2 PUSH1 0x1 ADD SWAP1 DUP1 MLOAD SWAP1 PUSH1 0x20 ADD SWAP1 PUSH2 0x1D17 SWAP3 SWAP2 SWAP1 PUSH2 0x2BA0 JUMP JUMPDEST POP DUP8 DUP2 PUSH1 0x2 ADD SWAP1 DUP1 MLOAD SWAP1 PUSH1 0x20 ADD SWAP1 PUSH2 0x1D30 SWAP3 SWAP2 SWAP1 PUSH2 0x2BA0 JUMP JUMPDEST POP DUP7 DUP2 PUSH1 0x3 ADD SWAP1 DUP1 MLOAD SWAP1 PUSH1 0x20 ADD SWAP1 PUSH2 0x1D49 SWAP3 SWAP2 SWAP1 PUSH2 0x2BA0 JUMP JUMPDEST POP DUP6 DUP2 PUSH1 0x4 ADD SWAP1 DUP1 MLOAD SWAP1 PUSH1 0x20 ADD SWAP1 PUSH2 0x1D62 SWAP3 SWAP2 SWAP1 PUSH2 0x2BA0 JUMP JUMPDEST POP DUP5 DUP2 PUSH1 0x5 ADD SWAP1 DUP1 MLOAD SWAP1 PUSH1 0x20 ADD SWAP1 PUSH2 0x1D7B SWAP3 SWAP2 SWAP1 PUSH2 0x2BA0 JUMP JUMPDEST POP DUP4 DUP2 PUSH1 0x6 ADD SWAP1 DUP1 MLOAD SWAP1 PUSH1 0x20 ADD SWAP1 PUSH2 0x1D94 SWAP3 SWAP2 SWAP1 PUSH2 0x2BA0 JUMP JUMPDEST POP DUP3 DUP2 PUSH1 0x7 ADD SWAP1 DUP1 MLOAD SWAP1 PUSH1 0x20 ADD SWAP1 PUSH2 0x1DAD SWAP3 SWAP2 SWAP1 PUSH2 0x2BA0 JUMP JUMPDEST POP DUP2 DUP2 PUSH1 0x8 ADD SWAP1 DUP1 MLOAD SWAP1 PUSH1 0x20 ADD SWAP1 PUSH2 0x1DC6 SWAP3 SWAP2 SWAP1 PUSH2 0x2BA0 JUMP JUMPDEST POP DUP11 DUP2 PUSH1 0x9 ADD PUSH1 0x0 PUSH2 0x100 EXP DUP2 SLOAD DUP2 PUSH20 0xFFFFFFFFFFFFFFFFFFFFFFFFFFFFFFFFFFFFFFFF MUL NOT AND SWAP1 DUP4 PUSH20 0xFFFFFFFFFFFFFFFFFFFFFFFFFFFFFFFFFFFFFFFF AND MUL OR SWAP1 SSTORE POP POP POP POP POP POP POP POP POP POP POP POP JUMP JUMPDEST PUSH1 0xC SLOAD DUP2 JUMP JUMPDEST PUSH1 0x0 PUSH1 0xC SLOAD SWAP1 POP SWAP1 JUMP JUMPDEST PUSH1 0x0 DUP1 PUSH1 0x0 SWAP1 POP PUSH1 0x2 DUP1 SLOAD SWAP1 POP DUP2 LT ISZERO PUSH2 0x1EA6 JUMPI PUSH1 0x1 ISZERO ISZERO PUSH1 0x9 PUSH1 0x0 DUP6 PUSH20 0xFFFFFFFFFFFFFFFFFFFFFFFFFFFFFFFFFFFFFFFF AND PUSH20 0xFFFFFFFFFFFFFFFFFFFFFFFFFFFFFFFFFFFFFFFF AND DUP2 MSTORE PUSH1 0x20 ADD SWAP1 DUP2 MSTORE PUSH1 0x20 ADD PUSH1 0x0 KECCAK256 PUSH1 0x0 SWAP1 SLOAD SWAP1 PUSH2 0x100 EXP SWAP1 DIV PUSH1 0xFF AND ISZERO ISZERO EQ ISZERO PUSH2 0x1E9D JUMPI PUSH1 0x1 SWAP2 POP PUSH2 0x1EA7 JUMP JUMPDEST PUSH1 0x0 SWAP2 POP PUSH2 0x1EA7 JUMP JUMPDEST JUMPDEST POP SWAP2 SWAP1 POP JUMP JUMPDEST PUSH1 0x60 DUP1 PUSH1 0x60 PUSH1 0x0 DUP1 PUSH1 0x0 DUP1 PUSH1 0x7 PUSH1 0x0 DUP10 PUSH20 0xFFFFFFFFFFFFFFFFFFFFFFFFFFFFFFFFFFFFFFFF AND PUSH20 0xFFFFFFFFFFFFFFFFFFFFFFFFFFFFFFFFFFFFFFFF AND DUP2 MSTORE PUSH1 0x20 ADD SWAP1 DUP2 MSTORE PUSH1 0x20 ADD PUSH1 0x0 KECCAK256 PUSH1 0x0 CALLER PUSH20 0xFFFFFFFFFFFFFFFFFFFFFFFFFFFFFFFFFFFFFFFF AND PUSH20 0xFFFFFFFFFFFFFFFFFFFFFFFFFFFFFFFFFFFFFFFF AND DUP2 MSTORE PUSH1 0x20 ADD SWAP1 DUP2 MSTORE PUSH1 0x20 ADD PUSH1 0x0 KECCAK256 PUSH1 0x0 SWAP1 SLOAD SWAP1 PUSH2 0x100 EXP SWAP1 DIV PUSH1 0xFF AND ISZERO ISZERO PUSH2 0x1F4D JUMPI PUSH1 0x0 DUP1 REVERT JUMPDEST PUSH1 0x6 PUSH1 0x0 DUP10 PUSH20 0xFFFFFFFFFFFFFFFFFFFFFFFFFFFFFFFFFFFFFFFF AND PUSH20 0xFFFFFFFFFFFFFFFFFFFFFFFFFFFFFFFFFFFFFFFF AND DUP2 MSTORE PUSH1 0x20 ADD SWAP1 DUP2 MSTORE PUSH1 0x20 ADD PUSH1 0x0 KECCAK256 SWAP1 POP DUP1 PUSH1 0x1 ADD DUP2 PUSH1 0x2 ADD DUP3 PUSH1 0x3 ADD DUP4 PUSH1 0x4 ADD SLOAD DUP5 PUSH1 0x5 ADD PUSH1 0x0 SWAP1 SLOAD SWAP1 PUSH2 0x100 EXP SWAP1 DIV PUSH20 0xFFFFFFFFFFFFFFFFFFFFFFFFFFFFFFFFFFFFFFFF AND DUP6 PUSH1 0x6 ADD PUSH1 0x0 SWAP1 SLOAD SWAP1 PUSH2 0x100 EXP SWAP1 DIV PUSH20 0xFFFFFFFFFFFFFFFFFFFFFFFFFFFFFFFFFFFFFFFF AND DUP6 DUP1 SLOAD PUSH1 0x1 DUP2 PUSH1 0x1 AND ISZERO PUSH2 0x100 MUL SUB AND PUSH1 0x2 SWAP1 DIV DUP1 PUSH1 0x1F ADD PUSH1 0x20 DUP1 SWAP2 DIV MUL PUSH1 0x20 ADD PUSH1 0x40 MLOAD SWAP1 DUP2 ADD PUSH1 0x40 MSTORE DUP1 SWAP3 SWAP2 SWAP1 DUP2 DUP2 MSTORE PUSH1 0x20 ADD DUP3 DUP1 SLOAD PUSH1 0x1 DUP2 PUSH1 0x1 AND ISZERO PUSH2 0x100 MUL SUB AND PUSH1 0x2 SWAP1 DIV DUP1 ISZERO PUSH2 0x207E JUMPI DUP1 PUSH1 0x1F LT PUSH2 0x2053 JUMPI PUSH2 0x100 DUP1 DUP4 SLOAD DIV MUL DUP4 MSTORE SWAP2 PUSH1 0x20 ADD SWAP2 PUSH2 0x207E JUMP JUMPDEST DUP3 ADD SWAP2 SWAP1 PUSH1 0x0 MSTORE PUSH1 0x20 PUSH1 0x0 KECCAK256 SWAP1 JUMPDEST DUP2 SLOAD DUP2 MSTORE SWAP1 PUSH1 0x1 ADD SWAP1 PUSH1 0x20 ADD DUP1 DUP4 GT PUSH2 0x2061 JUMPI DUP3 SWAP1 SUB PUSH1 0x1F AND DUP3 ADD SWAP2 JUMPDEST POP POP POP POP POP SWAP6 POP DUP5 DUP1 SLOAD PUSH1 0x1 DUP2 PUSH1 0x1 AND ISZERO PUSH2 0x100 MUL SUB AND PUSH1 0x2 SWAP1 DIV DUP1 PUSH1 0x1F ADD PUSH1 0x20 DUP1 SWAP2 DIV MUL PUSH1 0x20 ADD PUSH1 0x40 MLOAD SWAP1 DUP2 ADD PUSH1 0x40 MSTORE DUP1 SWAP3 SWAP2 SWAP1 DUP2 DUP2 MSTORE PUSH1 0x20 ADD DUP3 DUP1 SLOAD PUSH1 0x1 DUP2 PUSH1 0x1 AND ISZERO PUSH2 0x100 MUL SUB AND PUSH1 0x2 SWAP1 DIV DUP1 ISZERO PUSH2 0x211A JUMPI DUP1 PUSH1 0x1F LT PUSH2 0x20EF JUMPI PUSH2 0x100 DUP1 DUP4 SLOAD DIV MUL DUP4 MSTORE SWAP2 PUSH1 0x20 ADD SWAP2 PUSH2 0x211A JUMP JUMPDEST DUP3 ADD SWAP2 SWAP1 PUSH1 0x0 MSTORE PUSH1 0x20 PUSH1 0x0 KECCAK256 SWAP1 JUMPDEST DUP2 SLOAD DUP2 MSTORE SWAP1 PUSH1 0x1 ADD SWAP1 PUSH1 0x20 ADD DUP1 DUP4 GT PUSH2 0x20FD JUMPI DUP3 SWAP1 SUB PUSH1 0x1F AND DUP3 ADD SWAP2 JUMPDEST POP POP POP POP POP SWAP5 POP DUP4 DUP1 SLOAD PUSH1 0x1 DUP2 PUSH1 0x1 AND ISZERO PUSH2 0x100 MUL SUB AND PUSH1 0x2 SWAP1 DIV DUP1 PUSH1 0x1F ADD PUSH1 0x20 DUP1 SWAP2 DIV MUL PUSH1 0x20 ADD PUSH1 0x40 MLOAD SWAP1 DUP2 ADD PUSH1 0x40 MSTORE DUP1 SWAP3 SWAP2 SWAP1 DUP2 DUP2 MSTORE PUSH1 0x20 ADD DUP3 DUP1 SLOAD PUSH1 0x1 DUP2 PUSH1 0x1 AND ISZERO PUSH2 0x100 MUL SUB AND PUSH1 0x2 SWAP1 DIV DUP1 ISZERO PUSH2 0x21B6 JUMPI DUP1 PUSH1 0x1F LT PUSH2 0x218B JUMPI PUSH2 0x100 DUP1 DUP4 SLOAD DIV MUL DUP4 MSTORE SWAP2 PUSH1 0x20 ADD SWAP2 PUSH2 0x21B6 JUMP JUMPDEST DUP3 ADD SWAP2 SWAP1 PUSH1 0x0 MSTORE PUSH1 0x20 PUSH1 0x0 KECCAK256 SWAP1 JUMPDEST DUP2 SLOAD DUP2 MSTORE SWAP1 PUSH1 0x1 ADD SWAP1 PUSH1 0x20 ADD DUP1 DUP4 GT PUSH2 0x2199 JUMPI DUP3 SWAP1 SUB PUSH1 0x1F AND DUP3 ADD SWAP2 JUMPDEST POP POP POP POP POP SWAP4 POP SWAP7 POP SWAP7 POP SWAP7 POP SWAP7 POP SWAP7 POP SWAP7 POP POP SWAP2 SWAP4 SWAP6 POP SWAP2 SWAP4 SWAP6 JUMP JUMPDEST PUSH1 0x0 DUP1 SWAP1 SLOAD SWAP1 PUSH2 0x100 EXP SWAP1 DIV PUSH20 0xFFFFFFFFFFFFFFFFFFFFFFFFFFFFFFFFFFFFFFFF AND DUP2 JUMP JUMPDEST PUSH1 0x0 CALLER PUSH1 0x0 DUP1 PUSH2 0x100 EXP DUP2 SLOAD DUP2 PUSH20 0xFFFFFFFFFFFFFFFFFFFFFFFFFFFFFFFFFFFFFFFF MUL NOT AND SWAP1 DUP4 PUSH20 0xFFFFFFFFFFFFFFFFFFFFFFFFFFFFFFFFFFFFFFFF AND MUL OR SWAP1 SSTORE POP PUSH1 0x0 DUP1 SWAP1 SLOAD SWAP1 PUSH2 0x100 EXP SWAP1 DIV PUSH20 0xFFFFFFFFFFFFFFFFFFFFFFFFFFFFFFFFFFFFFFFF AND SWAP1 POP SWAP1 JUMP JUMPDEST PUSH1 0xF SLOAD DUP2 JUMP JUMPDEST PUSH1 0xD SLOAD DUP2 JUMP JUMPDEST PUSH1 0x1 DUP2 DUP2 SLOAD DUP2 LT ISZERO ISZERO PUSH2 0x227C JUMPI INVALID JUMPDEST SWAP1 PUSH1 0x0 MSTORE PUSH1 0x20 PUSH1 0x0 KECCAK256 ADD PUSH1 0x0 SWAP2 POP SLOAD SWAP1 PUSH2 0x100 EXP SWAP1 DIV PUSH20 0xFFFFFFFFFFFFFFFFFFFFFFFFFFFFFFFFFFFFFFFF AND DUP2 JUMP JUMPDEST PUSH1 0x60 PUSH1 0x2 DUP1 SLOAD DUP1 PUSH1 0x20 MUL PUSH1 0x20 ADD PUSH1 0x40 MLOAD SWAP1 DUP2 ADD PUSH1 0x40 MSTORE DUP1 SWAP3 SWAP2 SWAP1 DUP2 DUP2 MSTORE PUSH1 0x20 ADD DUP3 DUP1 SLOAD DUP1 ISZERO PUSH2 0x232F JUMPI PUSH1 0x20 MUL DUP3 ADD SWAP2 SWAP1 PUSH1 0x0 MSTORE PUSH1 0x20 PUSH1 0x0 KECCAK256 SWAP1 JUMPDEST DUP2 PUSH1 0x0 SWAP1 SLOAD SWAP1 PUSH2 0x100 EXP SWAP1 DIV PUSH20 0xFFFFFFFFFFFFFFFFFFFFFFFFFFFFFFFFFFFFFFFF AND PUSH20 0xFFFFFFFFFFFFFFFFFFFFFFFFFFFFFFFFFFFFFFFF AND DUP2 MSTORE PUSH1 0x20 ADD SWAP1 PUSH1 0x1 ADD SWAP1 DUP1 DUP4 GT PUSH2 0x22E5 JUMPI JUMPDEST POP POP POP POP POP SWAP1 POP SWAP1 JUMP JUMPDEST PUSH1 0x0 PUSH1 0xB SLOAD SWAP1 POP SWAP1 JUMP JUMPDEST PUSH1 0x10 PUSH1 0x0 SWAP1 SLOAD SWAP1 PUSH2 0x100 EXP SWAP1 DIV PUSH20 0xFFFFFFFFFFFFFFFFFFFFFFFFFFFFFFFFFFFFFFFF AND DUP2 JUMP JUMPDEST PUSH1 0x0 PUSH1 0x10 PUSH1 0x0 SWAP1 SLOAD SWAP1 PUSH2 0x100 EXP SWAP1 DIV PUSH20 0xFFFFFFFFFFFFFFFFFFFFFFFFFFFFFFFFFFFFFFFF AND PUSH20 0xFFFFFFFFFFFFFFFFFFFFFFFFFFFFFFFFFFFFFFFF AND CALLER PUSH20 0xFFFFFFFFFFFFFFFFFFFFFFFFFFFFFFFFFFFFFFFF AND EQ ISZERO ISZERO PUSH2 0x23C7 JUMPI PUSH1 0x0 DUP1 REVERT JUMPDEST PUSH1 0x0 PUSH1 0x7 PUSH1 0x0 DUP6 PUSH20 0xFFFFFFFFFFFFFFFFFFFFFFFFFFFFFFFFFFFFFFFF AND PUSH20 0xFFFFFFFFFFFFFFFFFFFFFFFFFFFFFFFFFFFFFFFF AND DUP2 MSTORE PUSH1 0x20 ADD SWAP1 DUP2 MSTORE PUSH1 0x20 ADD PUSH1 0x0 KECCAK256 PUSH1 0x0 DUP5 PUSH20 0xFFFFFFFFFFFFFFFFFFFFFFFFFFFFFFFFFFFFFFFF AND PUSH20 0xFFFFFFFFFFFFFFFFFFFFFFFFFFFFFFFFFFFFFFFF AND DUP2 MSTORE PUSH1 0x20 ADD SWAP1 DUP2 MSTORE PUSH1 0x20 ADD PUSH1 0x0 KECCAK256 PUSH1 0x0 PUSH2 0x100 EXP DUP2 SLOAD DUP2 PUSH1 0xFF MUL NOT AND SWAP1 DUP4 ISZERO ISZERO MUL OR SWAP1 SSTORE POP PUSH1 0x1 SWAP1 POP SWAP3 SWAP2 POP POP JUMP JUMPDEST PUSH1 0xE SLOAD DUP2 JUMP JUMPDEST PUSH1 0x60 DUP1 PUSH1 0x60 DUP1 PUSH1 0x60 DUP1 PUSH1 0x60 PUSH1 0x0 DUP1 PUSH1 0x7 PUSH1 0x0 DUP12 PUSH20 0xFFFFFFFFFFFFFFFFFFFFFFFFFFFFFFFFFFFFFFFF AND PUSH20 0xFFFFFFFFFFFFFFFFFFFFFFFFFFFFFFFFFFFFFFFF AND DUP2 MSTORE PUSH1 0x20 ADD SWAP1 DUP2 MSTORE PUSH1 0x20 ADD PUSH1 0x0 KECCAK256 PUSH1 0x0 CALLER PUSH20 0xFFFFFFFFFFFFFFFFFFFFFFFFFFFFFFFFFFFFFFFF AND PUSH20 0xFFFFFFFFFFFFFFFFFFFFFFFFFFFFFFFFFFFFFFFF AND DUP2 MSTORE PUSH1 0x20 ADD SWAP1 DUP2 MSTORE PUSH1 0x20 ADD PUSH1 0x0 KECCAK256 PUSH1 0x0 SWAP1 SLOAD SWAP1 PUSH2 0x100 EXP SWAP1 DIV PUSH1 0xFF AND ISZERO ISZERO PUSH2 0x250F JUMPI PUSH1 0x0 DUP1 REVERT JUMPDEST PUSH1 0x9 PUSH1 0x0 DUP12 PUSH20 0xFFFFFFFFFFFFFFFFFFFFFFFFFFFFFFFFFFFFFFFF AND PUSH20 0xFFFFFFFFFFFFFFFFFFFFFFFFFFFFFFFFFFFFFFFF AND DUP2 MSTORE PUSH1 0x20 ADD SWAP1 DUP2 MSTORE PUSH1 0x20 ADD PUSH1 0x0 KECCAK256 PUSH1 0x0 SWAP1 SLOAD SWAP1 PUSH2 0x100 EXP SWAP1 DIV PUSH1 0xFF AND ISZERO ISZERO PUSH2 0x2567 JUMPI PUSH1 0x0 DUP1 REVERT JUMPDEST PUSH1 0x5 PUSH1 0x0 DUP12 PUSH20 0xFFFFFFFFFFFFFFFFFFFFFFFFFFFFFFFFFFFFFFFF AND PUSH20 0xFFFFFFFFFFFFFFFFFFFFFFFFFFFFFFFFFFFFFFFF AND DUP2 MSTORE PUSH1 0x20 ADD SWAP1 DUP2 MSTORE PUSH1 0x20 ADD PUSH1 0x0 KECCAK256 SWAP1 POP DUP1 PUSH1 0x0 ADD DUP2 PUSH1 0x1 ADD DUP3 PUSH1 0x2 ADD DUP4 PUSH1 0x3 ADD DUP5 PUSH1 0x5 ADD DUP6 PUSH1 0x6 ADD DUP7 PUSH1 0x7 ADD DUP8 PUSH1 0x8 ADD PUSH1 0x0 SWAP1 SLOAD SWAP1 PUSH2 0x100 EXP SWAP1 DIV PUSH20 0xFFFFFFFFFFFFFFFFFFFFFFFFFFFFFFFFFFFFFFFF AND DUP8 DUP1 SLOAD PUSH1 0x1 DUP2 PUSH1 0x1 AND ISZERO PUSH2 0x100 MUL SUB AND PUSH1 0x2 SWAP1 DIV DUP1 PUSH1 0x1F ADD PUSH1 0x20 DUP1 SWAP2 DIV MUL PUSH1 0x20 ADD PUSH1 0x40 MLOAD SWAP1 DUP2 ADD PUSH1 0x40 MSTORE DUP1 SWAP3 SWAP2 SWAP1 DUP2 DUP2 MSTORE PUSH1 0x20 ADD DUP3 DUP1 SLOAD PUSH1 0x1 DUP2 PUSH1 0x1 AND ISZERO PUSH2 0x100 MUL SUB AND PUSH1 0x2 SWAP1 DIV DUP1 ISZERO PUSH2 0x267E JUMPI DUP1 PUSH1 0x1F LT PUSH2 0x2653 JUMPI PUSH2 0x100 DUP1 DUP4 SLOAD DIV MUL DUP4 MSTORE SWAP2 PUSH1 0x20 ADD SWAP2 PUSH2 0x267E JUMP JUMPDEST DUP3 ADD SWAP2 SWAP1 PUSH1 0x0 MSTORE PUSH1 0x20 PUSH1 0x0 KECCAK256 SWAP1 JUMPDEST DUP2 SLOAD DUP2 MSTORE SWAP1 PUSH1 0x1 ADD SWAP1 PUSH1 0x20 ADD DUP1 DUP4 GT PUSH2 0x2661 JUMPI DUP3 SWAP1 SUB PUSH1 0x1F AND DUP3 ADD SWAP2 JUMPDEST POP POP POP POP POP SWAP8 POP DUP7 DUP1 SLOAD PUSH1 0x1 DUP2 PUSH1 0x1 AND ISZERO PUSH2 0x100 MUL SUB AND PUSH1 0x2 SWAP1 DIV DUP1 PUSH1 0x1F ADD PUSH1 0x20 DUP1 SWAP2 DIV MUL PUSH1 0x20 ADD PUSH1 0x40 MLOAD SWAP1 DUP2 ADD PUSH1 0x40 MSTORE DUP1 SWAP3 SWAP2 SWAP1 DUP2 DUP2 MSTORE PUSH1 0x20 ADD DUP3 DUP1 SLOAD PUSH1 0x1 DUP2 PUSH1 0x1 AND ISZERO PUSH2 0x100 MUL SUB AND PUSH1 0x2 SWAP1 DIV DUP1 ISZERO PUSH2 0x271A JUMPI DUP1 PUSH1 0x1F LT PUSH2 0x26EF JUMPI PUSH2 0x100 DUP1 DUP4 SLOAD DIV MUL DUP4 MSTORE SWAP2 PUSH1 0x20 ADD SWAP2 PUSH2 0x271A JUMP JUMPDEST DUP3 ADD SWAP2 SWAP1 PUSH1 0x0 MSTORE PUSH1 0x20 PUSH1 0x0 KECCAK256 SWAP1 JUMPDEST DUP2 SLOAD DUP2 MSTORE SWAP1 PUSH1 0x1 ADD SWAP1 PUSH1 0x20 ADD DUP1 DUP4 GT PUSH2 0x26FD JUMPI DUP3 SWAP1 SUB PUSH1 0x1F AND DUP3 ADD SWAP2 JUMPDEST POP POP POP POP POP SWAP7 POP DUP6 DUP1 SLOAD PUSH1 0x1 DUP2 PUSH1 0x1 AND ISZERO PUSH2 0x100 MUL SUB AND PUSH1 0x2 SWAP1 DIV DUP1 PUSH1 0x1F ADD PUSH1 0x20 DUP1 SWAP2 DIV MUL PUSH1 0x20 ADD PUSH1 0x40 MLOAD SWAP1 DUP2 ADD PUSH1 0x40 MSTORE DUP1 SWAP3 SWAP2 SWAP1 DUP2 DUP2 MSTORE PUSH1 0x20 ADD DUP3 DUP1 SLOAD PUSH1 0x1 DUP2 PUSH1 0x1 AND ISZERO PUSH2 0x100 MUL SUB AND PUSH1 0x2 SWAP1 DIV DUP1 ISZERO PUSH2 0x27B6 JUMPI DUP1 PUSH1 0x1F LT PUSH2 0x278B JUMPI PUSH2 0x100 DUP1 DUP4 SLOAD DIV MUL DUP4 MSTORE SWAP2 PUSH1 0x20 ADD SWAP2 PUSH2 0x27B6 JUMP JUMPDEST DUP3 ADD SWAP2 SWAP1 PUSH1 0x0 MSTORE PUSH1 0x20 PUSH1 0x0 KECCAK256 SWAP1 JUMPDEST DUP2 SLOAD DUP2 MSTORE SWAP1 PUSH1 0x1 ADD SWAP1 PUSH1 0x20 ADD DUP1 DUP4 GT PUSH2 0x2799 JUMPI DUP3 SWAP1 SUB PUSH1 0x1F AND DUP3 ADD SWAP2 JUMPDEST POP POP POP POP POP SWAP6 POP DUP5 DUP1 SLOAD PUSH1 0x1 DUP2 PUSH1 0x1 AND ISZERO PUSH2 0x100 MUL SUB AND PUSH1 0x2 SWAP1 DIV DUP1 PUSH1 0x1F ADD PUSH1 0x20 DUP1 SWAP2 DIV MUL PUSH1 0x20 ADD PUSH1 0x40 MLOAD SWAP1 DUP2 ADD PUSH1 0x40 MSTORE DUP1 SWAP3 SWAP2 SWAP1 DUP2 DUP2 MSTORE PUSH1 0x20 ADD DUP3 DUP1 SLOAD PUSH1 0x1 DUP2 PUSH1 0x1 AND ISZERO PUSH2 0x100 MUL SUB AND PUSH1 0x2 SWAP1 DIV DUP1 ISZERO PUSH2 0x2852 JUMPI DUP1 PUSH1 0x1F LT PUSH2 0x2827 JUMPI PUSH2 0x100 DUP1 DUP4 SLOAD DIV MUL DUP4 MSTORE SWAP2 PUSH1 0x20 ADD SWAP2 PUSH2 0x2852 JUMP JUMPDEST DUP3 ADD SWAP2 SWAP1 PUSH1 0x0 MSTORE PUSH1 0x20 PUSH1 0x0 KECCAK256 SWAP1 JUMPDEST DUP2 SLOAD DUP2 MSTORE SWAP1 PUSH1 0x1 ADD SWAP1 PUSH1 0x20 ADD DUP1 DUP4 GT PUSH2 0x2835 JUMPI DUP3 SWAP1 SUB PUSH1 0x1F AND DUP3 ADD SWAP2 JUMPDEST POP POP POP POP POP SWAP5 POP DUP4 DUP1 SLOAD PUSH1 0x1 DUP2 PUSH1 0x1 AND ISZERO PUSH2 0x100 MUL SUB AND PUSH1 0x2 SWAP1 DIV DUP1 PUSH1 0x1F ADD PUSH1 0x20 DUP1 SWAP2 DIV MUL PUSH1 0x20 ADD PUSH1 0x40 MLOAD SWAP1 DUP2 ADD PUSH1 0x40 MSTORE DUP1 SWAP3 SWAP2 SWAP1 DUP2 DUP2 MSTORE PUSH1 0x20 ADD DUP3 DUP1 SLOAD PUSH1 0x1 DUP2 PUSH1 0x1 AND ISZERO PUSH2 0x100 MUL SUB AND PUSH1 0x2 SWAP1 DIV DUP1 ISZERO PUSH2 0x28EE JUMPI DUP1 PUSH1 0x1F LT PUSH2 0x28C3 JUMPI PUSH2 0x100 DUP1 DUP4 SLOAD DIV MUL DUP4 MSTORE SWAP2 PUSH1 0x20 ADD SWAP2 PUSH2 0x28EE JUMP JUMPDEST DUP3 ADD SWAP2 SWAP1 PUSH1 0x0 MSTORE PUSH1 0x20 PUSH1 0x0 KECCAK256 SWAP1 JUMPDEST DUP2 SLOAD DUP2 MSTORE SWAP1 PUSH1 0x1 ADD SWAP1 PUSH1 0x20 ADD DUP1 DUP4 GT PUSH2 0x28D1 JUMPI DUP3 SWAP1 SUB PUSH1 0x1F AND DUP3 ADD SWAP2 JUMPDEST POP POP POP POP POP SWAP4 POP DUP3 DUP1 SLOAD PUSH1 0x1 DUP2 PUSH1 0x1 AND ISZERO PUSH2 0x100 MUL SUB AND PUSH1 0x2 SWAP1 DIV DUP1 PUSH1 0x1F ADD PUSH1 0x20 DUP1 SWAP2 DIV MUL PUSH1 0x20 ADD PUSH1 0x40 MLOAD SWAP1 DUP2 ADD PUSH1 0x40 MSTORE DUP1 SWAP3 SWAP2 SWAP1 DUP2 DUP2 MSTORE PUSH1 0x20 ADD DUP3 DUP1 SLOAD PUSH1 0x1 DUP2 PUSH1 0x1 AND ISZERO PUSH2 0x100 MUL SUB AND PUSH1 0x2 SWAP1 DIV DUP1 ISZERO PUSH2 0x298A JUMPI DUP1 PUSH1 0x1F LT PUSH2 0x295F JUMPI PUSH2 0x100 DUP1 DUP4 SLOAD DIV MUL DUP4 MSTORE SWAP2 PUSH1 0x20 ADD SWAP2 PUSH2 0x298A JUMP JUMPDEST DUP3 ADD SWAP2 SWAP1 PUSH1 0x0 MSTORE PUSH1 0x20 PUSH1 0x0 KECCAK256 SWAP1 JUMPDEST DUP2 SLOAD DUP2 MSTORE SWAP1 PUSH1 0x1 ADD SWAP1 PUSH1 0x20 ADD DUP1 DUP4 GT PUSH2 0x296D JUMPI DUP3 SWAP1 SUB PUSH1 0x1F AND DUP3 ADD SWAP2 JUMPDEST POP POP POP POP POP SWAP3 POP DUP2 DUP1 SLOAD PUSH1 0x1 DUP2 PUSH1 0x1 AND ISZERO PUSH2 0x100 MUL SUB AND PUSH1 0x2 SWAP1 DIV DUP1 PUSH1 0x1F ADD PUSH1 0x20 DUP1 SWAP2 DIV MUL PUSH1 0x20 ADD PUSH1 0x40 MLOAD SWAP1 DUP2 ADD PUSH1 0x40 MSTORE DUP1 SWAP3 SWAP2 SWAP1 DUP2 DUP2 MSTORE PUSH1 0x20 ADD DUP3 DUP1 SLOAD PUSH1 0x1 DUP2 PUSH1 0x1 AND ISZERO PUSH2 0x100 MUL SUB AND PUSH1 0x2 SWAP1 DIV DUP1 ISZERO PUSH2 0x2A26 JUMPI DUP1 PUSH1 0x1F LT PUSH2 0x29FB JUMPI PUSH2 0x100 DUP1 DUP4 SLOAD DIV MUL DUP4 MSTORE SWAP2 PUSH1 0x20 ADD SWAP2 PUSH2 0x2A26 JUMP JUMPDEST DUP3 ADD SWAP2 SWAP1 PUSH1 0x0 MSTORE PUSH1 0x20 PUSH1 0x0 KECCAK256 SWAP1 JUMPDEST DUP2 SLOAD DUP2 MSTORE SWAP1 PUSH1 0x1 ADD SWAP1 PUSH1 0x20 ADD DUP1 DUP4 GT PUSH2 0x2A09 JUMPI DUP3 SWAP1 SUB PUSH1 0x1F AND DUP3 ADD SWAP2 JUMPDEST POP POP POP POP POP SWAP2 POP SWAP9 POP SWAP9 POP SWAP9 POP SWAP9 POP SWAP9 POP SWAP9 POP SWAP9 POP SWAP9 POP POP SWAP2 SWAP4 SWAP6 SWAP8 POP SWAP2 SWAP4 SWAP6 SWAP8 JUMP JUMPDEST PUSH1 0x0 PUSH1 0x10 PUSH1 0x0 SWAP1 SLOAD SWAP1 PUSH2 0x100 EXP SWAP1 DIV PUSH20 0xFFFFFFFFFFFFFFFFFFFFFFFFFFFFFFFFFFFFFFFF AND PUSH20 0xFFFFFFFFFFFFFFFFFFFFFFFFFFFFFFFFFFFFFFFF AND CALLER PUSH20 0xFFFFFFFFFFFFFFFFFFFFFFFFFFFFFFFFFFFFFFFF AND EQ ISZERO ISZERO PUSH2 0x2AA7 JUMPI PUSH1 0x0 DUP1 REVERT JUMPDEST PUSH1 0x1 PUSH1 0x7 PUSH1 0x0 DUP6 PUSH20 0xFFFFFFFFFFFFFFFFFFFFFFFFFFFFFFFFFFFFFFFF AND PUSH20 0xFFFFFFFFFFFFFFFFFFFFFFFFFFFFFFFFFFFFFFFF AND DUP2 MSTORE PUSH1 0x20 ADD SWAP1 DUP2 MSTORE PUSH1 0x20 ADD PUSH1 0x0 KECCAK256 PUSH1 0x0 DUP5 PUSH20 0xFFFFFFFFFFFFFFFFFFFFFFFFFFFFFFFFFFFFFFFF AND PUSH20 0xFFFFFFFFFFFFFFFFFFFFFFFFFFFFFFFFFFFFFFFF AND DUP2 MSTORE PUSH1 0x20 ADD SWAP1 DUP2 MSTORE PUSH1 0x20 ADD PUSH1 0x0 KECCAK256 PUSH1 0x0 PUSH2 0x100 EXP DUP2 SLOAD DUP2 PUSH1 0xFF MUL NOT AND SWAP1 DUP4 ISZERO ISZERO MUL OR SWAP1 SSTORE POP PUSH1 0xD PUSH1 0x0 DUP2 SLOAD DUP1 SWAP3 SWAP2 SWAP1 PUSH1 0x1 ADD SWAP2 SWAP1 POP SSTORE POP PUSH1 0x1 SWAP1 POP SWAP3 SWAP2 POP POP JUMP JUMPDEST PUSH1 0x0 PUSH1 0xD SLOAD SWAP1 POP SWAP1 JUMP JUMPDEST PUSH1 0x3 DUP2 DUP2 SLOAD DUP2 LT ISZERO ISZERO PUSH2 0x2B71 JUMPI INVALID JUMPDEST SWAP1 PUSH1 0x0 MSTORE PUSH1 0x20 PUSH1 0x0 KECCAK256 ADD PUSH1 0x0 SWAP2 POP SLOAD SWAP1 PUSH2 0x100 EXP SWAP1 DIV PUSH20 0xFFFFFFFFFFFFFFFFFFFFFFFFFFFFFFFFFFFFFFFF AND DUP2 JUMP JUMPDEST DUP3 DUP1 SLOAD PUSH1 0x1 DUP2 PUSH1 0x1 AND ISZERO PUSH2 0x100 MUL SUB AND PUSH1 0x2 SWAP1 DIV SWAP1 PUSH1 0x0 MSTORE PUSH1 0x20 PUSH1 0x0 KECCAK256 SWAP1 PUSH1 0x1F ADD PUSH1 0x20 SWAP1 DIV DUP2 ADD SWAP3 DUP3 PUSH1 0x1F LT PUSH2 0x2BE1 JUMPI DUP1 MLOAD PUSH1 0xFF NOT AND DUP4 DUP1 ADD OR DUP6 SSTORE PUSH2 0x2C0F JUMP JUMPDEST DUP3 DUP1 ADD PUSH1 0x1 ADD DUP6 SSTORE DUP3 ISZERO PUSH2 0x2C0F JUMPI SWAP2 DUP3 ADD JUMPDEST DUP3 DUP2 GT ISZERO PUSH2 0x2C0E JUMPI DUP3 MLOAD DUP3 SSTORE SWAP2 PUSH1 0x20 ADD SWAP2 SWAP1 PUSH1 0x1 ADD SWAP1 PUSH2 0x2BF3 JUMP JUMPDEST JUMPDEST POP SWAP1 POP PUSH2 0x2C1C SWAP2 SWAP1 PUSH2 0x2C20 JUMP JUMPDEST POP SWAP1 JUMP JUMPDEST PUSH2 0x2C42 SWAP2 SWAP1 JUMPDEST DUP1 DUP3 GT ISZERO PUSH2 0x2C3E JUMPI PUSH1 0x0 DUP2 PUSH1 0x0 SWAP1 SSTORE POP PUSH1 0x1 ADD PUSH2 0x2C26 JUMP JUMPDEST POP SWAP1 JUMP JUMPDEST SWAP1 JUMP JUMPDEST PUSH1 0x0 PUSH2 0x2C51 DUP3 CALLDATALOAD PUSH2 0x3471 JUMP JUMPDEST SWAP1 POP SWAP3 SWAP2 POP POP JUMP JUMPDEST PUSH1 0x0 DUP3 PUSH1 0x1F DUP4 ADD SLT ISZERO ISZERO PUSH2 0x2C6C JUMPI PUSH1 0x0 DUP1 REVERT JUMPDEST DUP2 CALLDATALOAD PUSH2 0x2C7F PUSH2 0x2C7A DUP3 PUSH2 0x33DF JUMP JUMPDEST PUSH2 0x33B2 JUMP JUMPDEST SWAP2 POP DUP1 DUP3 MSTORE PUSH1 0x20 DUP4 ADD PUSH1 0x20 DUP4 ADD DUP6 DUP4 DUP4 ADD GT ISZERO PUSH2 0x2C9B JUMPI PUSH1 0x0 DUP1 REVERT JUMPDEST PUSH2 0x2CA6 DUP4 DUP3 DUP5 PUSH2 0x349B JUMP JUMPDEST POP POP POP SWAP3 SWAP2 POP POP JUMP JUMPDEST PUSH1 0x0 PUSH2 0x2CBB DUP3 CALLDATALOAD PUSH2 0x3491 JUMP JUMPDEST SWAP1 POP SWAP3 SWAP2 POP POP JUMP JUMPDEST PUSH1 0x0 PUSH1 0x20 DUP3 DUP5 SUB SLT ISZERO PUSH2 0x2CD5 JUMPI PUSH1 0x0 DUP1 REVERT JUMPDEST PUSH1 0x0 PUSH2 0x2CE3 DUP5 DUP3 DUP6 ADD PUSH2 0x2C45 JUMP JUMPDEST SWAP2 POP POP SWAP3 SWAP2 POP POP JUMP JUMPDEST PUSH1 0x0 DUP1 PUSH1 0x40 DUP4 DUP6 SUB SLT ISZERO PUSH2 0x2CFF JUMPI PUSH1 0x0 DUP1 REVERT JUMPDEST PUSH1 0x0 PUSH2 0x2D0D DUP6 DUP3 DUP7 ADD PUSH2 0x2C45 JUMP JUMPDEST SWAP3 POP POP PUSH1 0x20 PUSH2 0x2D1E DUP6 DUP3 DUP7 ADD PUSH2 0x2C45 JUMP JUMPDEST SWAP2 POP POP SWAP3 POP SWAP3 SWAP1 POP JUMP JUMPDEST PUSH1 0x0 DUP1 PUSH1 0x0 DUP1 PUSH1 0x0 DUP1 PUSH1 0x0 PUSH1 0xE0 DUP9 DUP11 SUB SLT ISZERO PUSH2 0x2D43 JUMPI PUSH1 0x0 DUP1 REVERT JUMPDEST PUSH1 0x0 PUSH2 0x2D51 DUP11 DUP3 DUP12 ADD PUSH2 0x2C45 JUMP JUMPDEST SWAP8 POP POP PUSH1 0x20 PUSH2 0x2D62 DUP11 DUP3 DUP12 ADD PUSH2 0x2C45 JUMP JUMPDEST SWAP7 POP POP PUSH1 0x40 DUP9 ADD CALLDATALOAD PUSH8 0xFFFFFFFFFFFFFFFF DUP2 GT ISZERO PUSH2 0x2D7F JUMPI PUSH1 0x0 DUP1 REVERT JUMPDEST PUSH2 0x2D8B DUP11 DUP3 DUP12 ADD PUSH2 0x2C59 JUMP JUMPDEST SWAP6 POP POP PUSH1 0x60 DUP9 ADD CALLDATALOAD PUSH8 0xFFFFFFFFFFFFFFFF DUP2 GT ISZERO PUSH2 0x2DA8 JUMPI PUSH1 0x0 DUP1 REVERT JUMPDEST PUSH2 0x2DB4 DUP11 DUP3 DUP12 ADD PUSH2 0x2C59 JUMP JUMPDEST SWAP5 POP POP PUSH1 0x80 DUP9 ADD CALLDATALOAD PUSH8 0xFFFFFFFFFFFFFFFF DUP2 GT ISZERO PUSH2 0x2DD1 JUMPI PUSH1 0x0 DUP1 REVERT JUMPDEST PUSH2 0x2DDD DUP11 DUP3 DUP12 ADD PUSH2 0x2C59 JUMP JUMPDEST SWAP4 POP POP PUSH1 0xA0 DUP9 ADD CALLDATALOAD PUSH8 0xFFFFFFFFFFFFFFFF DUP2 GT ISZERO PUSH2 0x2DFA JUMPI PUSH1 0x0 DUP1 REVERT JUMPDEST PUSH2 0x2E06 DUP11 DUP3 DUP12 ADD PUSH2 0x2C59 JUMP JUMPDEST SWAP3 POP POP PUSH1 0xC0 PUSH2 0x2E17 DUP11 DUP3 DUP12 ADD PUSH2 0x2CAF JUMP JUMPDEST SWAP2 POP POP SWAP3 SWAP6 SWAP9 SWAP2 SWAP5 SWAP8 POP SWAP3 SWAP6 POP JUMP JUMPDEST PUSH1 0x0 DUP1 PUSH1 0x0 DUP1 PUSH1 0x0 DUP1 PUSH1 0x0 DUP1 PUSH2 0x100 DUP10 DUP12 SUB SLT ISZERO PUSH2 0x2E43 JUMPI PUSH1 0x0 DUP1 REVERT JUMPDEST PUSH1 0x0 PUSH2 0x2E51 DUP12 DUP3 DUP13 ADD PUSH2 0x2C45 JUMP JUMPDEST SWAP9 POP POP PUSH1 0x20 DUP10 ADD CALLDATALOAD PUSH8 0xFFFFFFFFFFFFFFFF DUP2 GT ISZERO PUSH2 0x2E6E JUMPI PUSH1 0x0 DUP1 REVERT JUMPDEST PUSH2 0x2E7A DUP12 DUP3 DUP13 ADD PUSH2 0x2C59 JUMP JUMPDEST SWAP8 POP POP PUSH1 0x40 DUP10 ADD CALLDATALOAD PUSH8 0xFFFFFFFFFFFFFFFF DUP2 GT ISZERO PUSH2 0x2E97 JUMPI PUSH1 0x0 DUP1 REVERT JUMPDEST PUSH2 0x2EA3 DUP12 DUP3 DUP13 ADD PUSH2 0x2C59 JUMP JUMPDEST SWAP7 POP POP PUSH1 0x60 DUP10 ADD CALLDATALOAD PUSH8 0xFFFFFFFFFFFFFFFF DUP2 GT ISZERO PUSH2 0x2EC0 JUMPI PUSH1 0x0 DUP1 REVERT JUMPDEST PUSH2 0x2ECC DUP12 DUP3 DUP13 ADD PUSH2 0x2C59 JUMP JUMPDEST SWAP6 POP POP PUSH1 0x80 DUP10 ADD CALLDATALOAD PUSH8 0xFFFFFFFFFFFFFFFF DUP2 GT ISZERO PUSH2 0x2EE9 JUMPI PUSH1 0x0 DUP1 REVERT JUMPDEST PUSH2 0x2EF5 DUP12 DUP3 DUP13 ADD PUSH2 0x2C59 JUMP JUMPDEST SWAP5 POP POP PUSH1 0xA0 DUP10 ADD CALLDATALOAD PUSH8 0xFFFFFFFFFFFFFFFF DUP2 GT ISZERO PUSH2 0x2F12 JUMPI PUSH1 0x0 DUP1 REVERT JUMPDEST PUSH2 0x2F1E DUP12 DUP3 DUP13 ADD PUSH2 0x2C59 JUMP JUMPDEST SWAP4 POP POP PUSH1 0xC0 DUP10 ADD CALLDATALOAD PUSH8 0xFFFFFFFFFFFFFFFF DUP2 GT ISZERO PUSH2 0x2F3B JUMPI PUSH1 0x0 DUP1 REVERT JUMPDEST PUSH2 0x2F47 DUP12 DUP3 DUP13 ADD PUSH2 0x2C59 JUMP JUMPDEST SWAP3 POP POP PUSH1 0xE0 DUP10 ADD CALLDATALOAD PUSH8 0xFFFFFFFFFFFFFFFF DUP2 GT ISZERO PUSH2 0x2F64 JUMPI PUSH1 0x0 DUP1 REVERT JUMPDEST PUSH2 0x2F70 DUP12 DUP3 DUP13 ADD PUSH2 0x2C59 JUMP JUMPDEST SWAP2 POP POP SWAP3 SWAP6 SWAP9 POP SWAP3 SWAP6 SWAP9 SWAP1 SWAP4 SWAP7 POP JUMP JUMPDEST PUSH1 0x0 DUP1 PUSH1 0x0 DUP1 PUSH1 0x0 DUP1 PUSH1 0x0 DUP1 PUSH1 0x0 DUP1 PUSH2 0x140 DUP12 DUP14 SUB SLT ISZERO PUSH2 0x2FA0 JUMPI PUSH1 0x0 DUP1 REVERT JUMPDEST PUSH1 0x0 PUSH2 0x2FAE DUP14 DUP3 DUP15 ADD PUSH2 0x2C45 JUMP JUMPDEST SWAP11 POP POP PUSH1 0x20 DUP12 ADD CALLDATALOAD PUSH8 0xFFFFFFFFFFFFFFFF DUP2 GT ISZERO PUSH2 0x2FCB JUMPI PUSH1 0x0 DUP1 REVERT JUMPDEST PUSH2 0x2FD7 DUP14 DUP3 DUP15 ADD PUSH2 0x2C59 JUMP JUMPDEST SWAP10 POP POP PUSH1 0x40 DUP12 ADD CALLDATALOAD PUSH8 0xFFFFFFFFFFFFFFFF DUP2 GT ISZERO PUSH2 0x2FF4 JUMPI PUSH1 0x0 DUP1 REVERT JUMPDEST PUSH2 0x3000 DUP14 DUP3 DUP15 ADD PUSH2 0x2C59 JUMP JUMPDEST SWAP9 POP POP PUSH1 0x60 DUP12 ADD CALLDATALOAD PUSH8 0xFFFFFFFFFFFFFFFF DUP2 GT ISZERO PUSH2 0x301D JUMPI PUSH1 0x0 DUP1 REVERT JUMPDEST PUSH2 0x3029 DUP14 DUP3 DUP15 ADD PUSH2 0x2C59 JUMP JUMPDEST SWAP8 POP POP PUSH1 0x80 DUP12 ADD CALLDATALOAD PUSH8 0xFFFFFFFFFFFFFFFF DUP2 GT ISZERO PUSH2 0x3046 JUMPI PUSH1 0x0 DUP1 REVERT JUMPDEST PUSH2 0x3052 DUP14 DUP3 DUP15 ADD PUSH2 0x2C59 JUMP JUMPDEST SWAP7 POP POP PUSH1 0xA0 DUP12 ADD CALLDATALOAD PUSH8 0xFFFFFFFFFFFFFFFF DUP2 GT ISZERO PUSH2 0x306F JUMPI PUSH1 0x0 DUP1 REVERT JUMPDEST PUSH2 0x307B DUP14 DUP3 DUP15 ADD PUSH2 0x2C59 JUMP JUMPDEST SWAP6 POP POP PUSH1 0xC0 DUP12 ADD CALLDATALOAD PUSH8 0xFFFFFFFFFFFFFFFF DUP2 GT ISZERO PUSH2 0x3098 JUMPI PUSH1 0x0 DUP1 REVERT JUMPDEST PUSH2 0x30A4 DUP14 DUP3 DUP15 ADD PUSH2 0x2C59 JUMP JUMPDEST SWAP5 POP POP PUSH1 0xE0 DUP12 ADD CALLDATALOAD PUSH8 0xFFFFFFFFFFFFFFFF DUP2 GT ISZERO PUSH2 0x30C1 JUMPI PUSH1 0x0 DUP1 REVERT JUMPDEST PUSH2 0x30CD DUP14 DUP3 DUP15 ADD PUSH2 0x2C59 JUMP JUMPDEST SWAP4 POP POP PUSH2 0x100 DUP12 ADD CALLDATALOAD PUSH8 0xFFFFFFFFFFFFFFFF DUP2 GT ISZERO PUSH2 0x30EB JUMPI PUSH1 0x0 DUP1 REVERT JUMPDEST PUSH2 0x30F7 DUP14 DUP3 DUP15 ADD PUSH2 0x2C59 JUMP JUMPDEST SWAP3 POP POP PUSH2 0x120 DUP12 ADD CALLDATALOAD PUSH8 0xFFFFFFFFFFFFFFFF DUP2 GT ISZERO PUSH2 0x3115 JUMPI PUSH1 0x0 DUP1 REVERT JUMPDEST PUSH2 0x3121 DUP14 DUP3 DUP15 ADD PUSH2 0x2C59 JUMP JUMPDEST SWAP2 POP POP SWAP3 SWAP6 SWAP9 SWAP12 SWAP2 SWAP5 SWAP8 SWAP11 POP SWAP3 SWAP6 SWAP9 POP JUMP JUMPDEST PUSH1 0x0 PUSH1 0x20 DUP3 DUP5 SUB SLT ISZERO PUSH2 0x3145 JUMPI PUSH1 0x0 DUP1 REVERT JUMPDEST PUSH1 0x0 PUSH2 0x3153 DUP5 DUP3 DUP6 ADD PUSH2 0x2CAF JUMP JUMPDEST SWAP2 POP POP SWAP3 SWAP2 POP POP JUMP JUMPDEST PUSH2 0x3165 DUP2 PUSH2 0x343B JUMP JUMPDEST DUP3 MSTORE POP POP JUMP JUMPDEST PUSH1 0x0 PUSH2 0x3176 DUP3 PUSH2 0x3418 JUMP JUMPDEST DUP1 DUP5 MSTORE PUSH1 0x20 DUP5 ADD SWAP4 POP PUSH2 0x3188 DUP4 PUSH2 0x340B JUMP JUMPDEST PUSH1 0x0 JUMPDEST DUP3 DUP2 LT ISZERO PUSH2 0x31BA JUMPI PUSH2 0x319E DUP7 DUP4 MLOAD PUSH2 0x315C JUMP JUMPDEST PUSH2 0x31A7 DUP3 PUSH2 0x342E JUMP JUMPDEST SWAP2 POP PUSH1 0x20 DUP7 ADD SWAP6 POP PUSH1 0x1 DUP2 ADD SWAP1 POP PUSH2 0x318B JUMP JUMPDEST POP DUP5 SWAP3 POP POP POP SWAP3 SWAP2 POP POP JUMP JUMPDEST PUSH2 0x31CF DUP2 PUSH2 0x345B JUMP JUMPDEST DUP3 MSTORE POP POP JUMP JUMPDEST PUSH1 0x0 PUSH2 0x31E0 DUP3 PUSH2 0x3423 JUMP JUMPDEST DUP1 DUP5 MSTORE PUSH2 0x31F4 DUP2 PUSH1 0x20 DUP7 ADD PUSH1 0x20 DUP7 ADD PUSH2 0x34AA JUMP JUMPDEST PUSH2 0x31FD DUP2 PUSH2 0x34DD JUMP JUMPDEST PUSH1 0x20 DUP6 ADD ADD SWAP2 POP POP SWAP3 SWAP2 POP POP JUMP JUMPDEST PUSH2 0x3214 DUP2 PUSH2 0x3467 JUMP JUMPDEST DUP3 MSTORE POP POP JUMP JUMPDEST PUSH1 0x0 PUSH1 0x20 DUP3 ADD SWAP1 POP PUSH2 0x322F PUSH1 0x0 DUP4 ADD DUP5 PUSH2 0x315C JUMP JUMPDEST SWAP3 SWAP2 POP POP JUMP JUMPDEST PUSH1 0x0 PUSH1 0x20 DUP3 ADD SWAP1 POP DUP2 DUP2 SUB PUSH1 0x0 DUP4 ADD MSTORE PUSH2 0x324F DUP2 DUP5 PUSH2 0x316B JUMP JUMPDEST SWAP1 POP SWAP3 SWAP2 POP POP JUMP JUMPDEST PUSH1 0x0 PUSH1 0x20 DUP3 ADD SWAP1 POP PUSH2 0x326C PUSH1 0x0 DUP4 ADD DUP5 PUSH2 0x31C6 JUMP JUMPDEST SWAP3 SWAP2 POP POP JUMP JUMPDEST PUSH1 0x0 PUSH2 0x100 DUP3 ADD SWAP1 POP DUP2 DUP2 SUB PUSH1 0x0 DUP4 ADD MSTORE PUSH2 0x328D DUP2 DUP12 PUSH2 0x31D5 JUMP JUMPDEST SWAP1 POP DUP2 DUP2 SUB PUSH1 0x20 DUP4 ADD MSTORE PUSH2 0x32A1 DUP2 DUP11 PUSH2 0x31D5 JUMP JUMPDEST SWAP1 POP DUP2 DUP2 SUB PUSH1 0x40 DUP4 ADD MSTORE PUSH2 0x32B5 DUP2 DUP10 PUSH2 0x31D5 JUMP JUMPDEST SWAP1 POP DUP2 DUP2 SUB PUSH1 0x60 DUP4 ADD MSTORE PUSH2 0x32C9 DUP2 DUP9 PUSH2 0x31D5 JUMP JUMPDEST SWAP1 POP DUP2 DUP2 SUB PUSH1 0x80 DUP4 ADD MSTORE PUSH2 0x32DD DUP2 DUP8 PUSH2 0x31D5 JUMP JUMPDEST SWAP1 POP DUP2 DUP2 SUB PUSH1 0xA0 DUP4 ADD MSTORE PUSH2 0x32F1 DUP2 DUP7 PUSH2 0x31D5 JUMP JUMPDEST SWAP1 POP DUP2 DUP2 SUB PUSH1 0xC0 DUP4 ADD MSTORE PUSH2 0x3305 DUP2 DUP6 PUSH2 0x31D5 JUMP JUMPDEST SWAP1 POP PUSH2 0x3314 PUSH1 0xE0 DUP4 ADD DUP5 PUSH2 0x315C JUMP JUMPDEST SWAP10 SWAP9 POP POP POP POP POP POP POP POP POP JUMP JUMPDEST PUSH1 0x0 PUSH1 0xC0 DUP3 ADD SWAP1 POP DUP2 DUP2 SUB PUSH1 0x0 DUP4 ADD MSTORE PUSH2 0x333B DUP2 DUP10 PUSH2 0x31D5 JUMP JUMPDEST SWAP1 POP DUP2 DUP2 SUB PUSH1 0x20 DUP4 ADD MSTORE PUSH2 0x334F DUP2 DUP9 PUSH2 0x31D5 JUMP JUMPDEST SWAP1 POP DUP2 DUP2 SUB PUSH1 0x40 DUP4 ADD MSTORE PUSH2 0x3363 DUP2 DUP8 PUSH2 0x31D5 JUMP JUMPDEST SWAP1 POP PUSH2 0x3372 PUSH1 0x60 DUP4 ADD DUP7 PUSH2 0x320B JUMP JUMPDEST PUSH2 0x337F PUSH1 0x80 DUP4 ADD DUP6 PUSH2 0x315C JUMP JUMPDEST PUSH2 0x338C PUSH1 0xA0 DUP4 ADD DUP5 PUSH2 0x315C JUMP JUMPDEST SWAP8 SWAP7 POP POP POP POP POP POP POP JUMP JUMPDEST PUSH1 0x0 PUSH1 0x20 DUP3 ADD SWAP1 POP PUSH2 0x33AC PUSH1 0x0 DUP4 ADD DUP5 PUSH2 0x320B JUMP JUMPDEST SWAP3 SWAP2 POP POP JUMP JUMPDEST PUSH1 0x0 PUSH1 0x40 MLOAD SWAP1 POP DUP2 DUP2 ADD DUP2 DUP2 LT PUSH8 0xFFFFFFFFFFFFFFFF DUP3 GT OR ISZERO PUSH2 0x33D5 JUMPI PUSH1 0x0 DUP1 REVERT JUMPDEST DUP1 PUSH1 0x40 MSTORE POP SWAP2 SWAP1 POP JUMP JUMPDEST PUSH1 0x0 PUSH8 0xFFFFFFFFFFFFFFFF DUP3 GT ISZERO PUSH2 0x33F6 JUMPI PUSH1 0x0 DUP1 REVERT JUMPDEST PUSH1 0x1F NOT PUSH1 0x1F DUP4 ADD AND SWAP1 POP PUSH1 0x20 DUP2 ADD SWAP1 POP SWAP2 SWAP1 POP JUMP JUMPDEST PUSH1 0x0 PUSH1 0x20 DUP3 ADD SWAP1 POP SWAP2 SWAP1 POP JUMP JUMPDEST PUSH1 0x0 DUP2 MLOAD SWAP1 POP SWAP2 SWAP1 POP JUMP JUMPDEST PUSH1 0x0 DUP2 MLOAD SWAP1 POP SWAP2 SWAP1 POP JUMP JUMPDEST PUSH1 0x0 PUSH1 0x20 DUP3 ADD SWAP1 POP SWAP2 SWAP1 POP JUMP JUMPDEST PUSH1 0x0 PUSH20 0xFFFFFFFFFFFFFFFFFFFFFFFFFFFFFFFFFFFFFFFF DUP3 AND SWAP1 POP SWAP2 SWAP1 POP JUMP JUMPDEST PUSH1 0x0 DUP2 ISZERO ISZERO SWAP1 POP SWAP2 SWAP1 POP JUMP JUMPDEST PUSH1 0x0 DUP2 SWAP1 POP SWAP2 SWAP1 POP JUMP JUMPDEST PUSH1 0x0 PUSH20 0xFFFFFFFFFFFFFFFFFFFFFFFFFFFFFFFFFFFFFFFF DUP3 AND SWAP1 POP SWAP2 SWAP1 POP JUMP JUMPDEST PUSH1 0x0 DUP2 SWAP1 POP SWAP2 SWAP1 POP JUMP JUMPDEST DUP3 DUP2 DUP4 CALLDATACOPY PUSH1 0x0 DUP4 DUP4 ADD MSTORE POP POP POP JUMP JUMPDEST PUSH1 0x0 JUMPDEST DUP4 DUP2 LT ISZERO PUSH2 0x34C8 JUMPI DUP1 DUP3 ADD MLOAD DUP2 DUP5 ADD MSTORE PUSH1 0x20 DUP2 ADD SWAP1 POP PUSH2 0x34AD JUMP JUMPDEST DUP4 DUP2 GT ISZERO PUSH2 0x34D7 JUMPI PUSH1 0x0 DUP5 DUP5 ADD MSTORE JUMPDEST POP POP POP POP JUMP JUMPDEST PUSH1 0x0 PUSH1 0x1F NOT PUSH1 0x1F DUP4 ADD AND SWAP1 POP SWAP2 SWAP1 POP JUMP STOP LOG2 PUSH6 0x627A7A723058 KECCAK256 COINBASE MULMOD 0xd3 PUSH28 0x15811CC2CCC5D20E49A4373EAA971729DAB3D6D598CA890128F38C50 PUSH13 0x6578706572696D656E74616CF5 STOP CALLDATACOPY "
				},
				"gasEstimates": {
					"creation": {
						"codeDepositCost": "2721600",
						"executionCost": "48258",
						"totalCost": "2769858"
					},
					"external": {
						"MoHPermissionCounter()": "936",
						"MoHRevokePermission(address,address)": "infinite",
						"checkDoctor(address)": "1481",
						"createVaccineRecord(address,address,string,string,string,string,uint256)": "infinite",
						"doctorCount()": "782",
						"doctorList(uint256)": "1144",
						"doctorRegistration(address,string,string,string,string,string,string,string)": "infinite",
						"editDoctor(address,string,string,string,string,string,string,string)": "infinite",
						"editUser(address,string,string,string,string,string,string,string,string,string)": "infinite",
						"getDoctorCount()": "812",
						"getDoctors()": "infinite",
						"getMoHPermissionCounter()": "1142",
						"getUserCount()": "1010",
						"getUserPermissionCounter()": "548",
						"getUsers()": "infinite",
						"getVaccinationInfo(address)": "infinite",
						"givePermissionByMoH(address,address)": "infinite",
						"givePermissionByUser(address)": "41388",
						"mohAdress()": "1066",
						"owner()": "912",
						"ownerAddress()": "21208",
						"searchDoctor(address)": "infinite",
						"searchUserformation(address)": "infinite",
						"userCount()": "584",
						"userList(uint256)": "1496",
						"userPermissionCounter()": "1068",
						"userRegistration(address,string,string,string,string,string,string,string,string,string)": "infinite",
						"userRevokePermission(address)": "21195",
						"vaccinationList(uint256)": "1694",
						"vaccinationRecordsCounter()": "914"
					}
				},
				"methodIdentifiers": {
					"MoHPermissionCounter()": "99d698c5",
					"MoHRevokePermission(address,address)": "c3bf7bf0",
					"checkDoctor(address)": "793de5f0",
					"createVaccineRecord(address,address,string,string,string,string,uint256)": "44c23f88",
					"doctorCount()": "78522bc4",
					"doctorList(uint256)": "127ca4b4",
					"doctorRegistration(address,string,string,string,string,string,string,string)": "17e51111",
					"editDoctor(address,string,string,string,string,string,string,string)": "16e0a611",
					"editUser(address,string,string,string,string,string,string,string,string,string)": "779a9576",
					"getDoctorCount()": "79111c1c",
					"getDoctors()": "b13d5d94",
					"getMoHPermissionCounter()": "e0df0ac6",
					"getUserCount()": "b5cb15f7",
					"getUserPermissionCounter()": "024decc5",
					"getUsers()": "00ce8e3e",
					"getVaccinationInfo(address)": "83a28b29",
					"givePermissionByMoH(address,address)": "d118404b",
					"givePermissionByUser(address)": "294a4540",
					"mohAdress()": "b744ff4d",
					"owner()": "8da5cb5b",
					"ownerAddress()": "8f84aa09",
					"searchDoctor(address)": "caee6c85",
					"searchUserformation(address)": "076fd2f8",
					"userCount()": "07973ccf",
					"userList(uint256)": "9f4216e8",
					"userPermissionCounter()": "c543a718",
					"userRegistration(address,string,string,string,string,string,string,string,string,string)": "6cdb2278",
					"userRevokePermission(address)": "5fc8e8c6",
					"vaccinationList(uint256)": "ff508dab",
					"vaccinationRecordsCounter()": "96e39ce0"
				}
			},
			"userdoc": {
				"methods": {}
			}
		}
	}
}