{
	"contracts/ddddd.sol": {
		"ddddd": {
			"abi": [
				{
					"constant": true,
					"inputs": [],
					"name": "getUsers",
					"outputs": [
						{
							"name": "",
							"type": "address[]"
						}
					],
					"payable": false,
					"stateMutability": "view",
					"type": "function"
				},
				{
					"constant": false,
					"inputs": [
						{
							"name": "_address",
							"type": "address"
						}
					],
					"name": "RevokePermission",
					"outputs": [
						{
							"name": "success",
							"type": "bool"
						}
					],
					"payable": false,
					"stateMutability": "nonpayable",
					"type": "function"
				},
				{
					"constant": true,
					"inputs": [
						{
							"name": "_address",
							"type": "address"
						}
					],
					"name": "searchUserformation",
					"outputs": [
						{
							"name": "",
							"type": "string"
						},
						{
							"name": "",
							"type": "string"
						},
						{
							"name": "",
							"type": "string"
						},
						{
							"name": "",
							"type": "string"
						},
						{
							"name": "",
							"type": "string"
						},
						{
							"name": "",
							"type": "string"
						}
					],
					"payable": false,
					"stateMutability": "view",
					"type": "function"
				},
				{
					"constant": true,
					"inputs": [],
					"name": "userCount",
					"outputs": [
						{
							"name": "",
							"type": "uint256"
						}
					],
					"payable": false,
					"stateMutability": "view",
					"type": "function"
				},
				{
					"constant": true,
					"inputs": [
						{
							"name": "",
							"type": "uint256"
						}
					],
					"name": "doctorList",
					"outputs": [
						{
							"name": "",
							"type": "address"
						}
					],
					"payable": false,
					"stateMutability": "view",
					"type": "function"
				},
				{
					"constant": false,
					"inputs": [
						{
							"name": "_doctor",
							"type": "address"
						},
						{
							"name": "_uaeId",
							"type": "string"
						},
						{
							"name": "_name",
							"type": "string"
						},
						{
							"name": "_phone",
							"type": "string"
						},
						{
							"name": "_gender",
							"type": "string"
						},
						{
							"name": "_dob",
							"type": "string"
						},
						{
							"name": "_qualification",
							"type": "string"
						},
						{
							"name": "_major",
							"type": "string"
						}
					],
					"name": "editDoctor",
					"outputs": [],
					"payable": false,
					"stateMutability": "nonpayable",
					"type": "function"
				},
				{
					"constant": false,
					"inputs": [
						{
							"name": "_doctor",
							"type": "address"
						},
						{
							"name": "_uaeId",
							"type": "string"
						},
						{
							"name": "_name",
							"type": "string"
						},
						{
							"name": "_phone",
							"type": "string"
						},
						{
							"name": "_gender",
							"type": "string"
						},
						{
							"name": "_dob",
							"type": "string"
						},
						{
							"name": "_qualification",
							"type": "string"
						},
						{
							"name": "_major",
							"type": "string"
						}
					],
					"name": "doctorRegistration",
					"outputs": [],
					"payable": false,
					"stateMutability": "nonpayable",
					"type": "function"
				},
				{
					"constant": true,
					"inputs": [],
					"name": "getPermissionGrantedCount",
					"outputs": [
						{
							"name": "",
							"type": "uint256"
						}
					],
					"payable": false,
					"stateMutability": "view",
					"type": "function"
				},
				{
					"constant": false,
					"inputs": [
						{
							"name": "_address",
							"type": "address"
						}
					],
					"name": "givePermission",
					"outputs": [
						{
							"name": "success",
							"type": "bool"
						}
					],
					"payable": false,
					"stateMutability": "nonpayable",
					"type": "function"
				},
				{
					"constant": false,
					"inputs": [
						{
							"name": "_user",
							"type": "address"
						},
						{
							"name": "_uaeId",
							"type": "string"
						},
						{
							"name": "_name",
							"type": "string"
						},
						{
							"name": "_phone",
							"type": "string"
						},
						{
							"name": "_gender",
							"type": "string"
						},
						{
							"name": "_dob",
							"type": "string"
						},
						{
							"name": "_addr",
							"type": "string"
						},
						{
							"name": "_email",
							"type": "string"
						},
						{
							"name": "_nomineeName",
							"type": "string"
						},
						{
							"name": "_nomineeContact",
							"type": "string"
						}
					],
					"name": "userRegistration",
					"outputs": [],
					"payable": false,
					"stateMutability": "nonpayable",
					"type": "function"
				},
				{
					"constant": false,
					"inputs": [
						{
							"name": "_user",
							"type": "address"
						},
						{
							"name": "_uaeId",
							"type": "string"
						},
						{
							"name": "_name",
							"type": "string"
						},
						{
							"name": "_phone",
							"type": "string"
						},
						{
							"name": "_gender",
							"type": "string"
						},
						{
							"name": "_dob",
							"type": "string"
						},
						{
							"name": "_addr",
							"type": "string"
						},
						{
							"name": "_email",
							"type": "string"
						},
						{
							"name": "_nomineeName",
							"type": "string"
						},
						{
							"name": "_nomineeContact",
							"type": "string"
						}
					],
					"name": "editUser",
					"outputs": [],
					"payable": false,
					"stateMutability": "nonpayable",
					"type": "function"
				},
				{
					"constant": true,
					"inputs": [],
					"name": "doctorCount",
					"outputs": [
						{
							"name": "",
							"type": "uint256"
						}
					],
					"payable": false,
					"stateMutability": "view",
					"type": "function"
				},
				{
					"constant": true,
					"inputs": [],
					"name": "getDoctorCount",
					"outputs": [
						{
							"name": "",
							"type": "uint256"
						}
					],
					"payable": false,
					"stateMutability": "view",
					"type": "function"
				},
				{
					"constant": true,
					"inputs": [],
					"name": "owner",
					"outputs": [
						{
							"name": "",
							"type": "address"
						}
					],
					"payable": false,
					"stateMutability": "view",
					"type": "function"
				},
				{
					"constant": false,
					"inputs": [],
					"name": "ownerAddress",
					"outputs": [],
					"payable": false,
					"stateMutability": "nonpayable",
					"type": "function"
				},
				{
					"constant": true,
					"inputs": [
						{
							"name": "",
							"type": "uint256"
						}
					],
					"name": "userList",
					"outputs": [
						{
							"name": "",
							"type": "address"
						}
					],
					"payable": false,
					"stateMutability": "view",
					"type": "function"
				},
				{
					"constant": true,
					"inputs": [],
					"name": "permissionCounter",
					"outputs": [
						{
							"name": "",
							"type": "uint256"
						}
					],
					"payable": false,
					"stateMutability": "view",
					"type": "function"
				},
				{
					"constant": true,
					"inputs": [],
					"name": "getDoctors",
					"outputs": [
						{
							"name": "",
							"type": "address[]"
						}
					],
					"payable": false,
					"stateMutability": "view",
					"type": "function"
				},
				{
					"constant": true,
					"inputs": [],
					"name": "getUserCount",
					"outputs": [
						{
							"name": "",
							"type": "uint256"
						}
					],
					"payable": false,
					"stateMutability": "view",
					"type": "function"
				},
				{
					"constant": true,
					"inputs": [],
					"name": "mohAdress",
					"outputs": [
						{
							"name": "",
							"type": "address"
						}
					],
					"payable": false,
					"stateMutability": "view",
					"type": "function"
				},
				{
					"constant": true,
					"inputs": [
						{
							"name": "_address",
							"type": "address"
						}
					],
					"name": "searchDoctor",
					"outputs": [
						{
							"name": "",
							"type": "string"
						},
						{
							"name": "",
							"type": "string"
						},
						{
							"name": "",
							"type": "string"
						},
						{
							"name": "",
							"type": "string"
						},
						{
							"name": "",
							"type": "string"
						},
						{
							"name": "",
							"type": "string"
						},
						{
							"name": "",
							"type": "string"
						}
					],
					"payable": false,
					"stateMutability": "view",
					"type": "function"
				}
			],
			"devdoc": {
				"methods": {}
			},
			"evm": {
				"assembly": "    /* \"contracts/ddddd.sol\":67:6192  contract ddddd {\r... */\n  mstore(0x40, 0x80)\n    /* \"contracts/ddddd.sol\":1064:1065  0 */\n  0x0\n    /* \"contracts/ddddd.sol\":1037:1065  uint256 public userCount = 0 */\n  0x8\n  sstore\n    /* \"contracts/ddddd.sol\":1101:1102  0 */\n  0x0\n    /* \"contracts/ddddd.sol\":1072:1102  uint256 public doctorCount = 0 */\n  0x9\n  sstore\n    /* \"contracts/ddddd.sol\":1144:1145  0 */\n  0x0\n    /* \"contracts/ddddd.sol\":1109:1145  uint256 public permissionCounter = 0 */\n  0xa\n  sstore\n    /* \"contracts/ddddd.sol\":1179:1221  0xc50C6297f56b033633C30354A854b074749cd2dC */\n  0xc50c6297f56b033633c30354a854b074749cd2dc\n    /* \"contracts/ddddd.sol\":1152:1221  address public mohAdress = 0xc50C6297f56b033633C30354A854b074749cd2dC */\n  0xb\n  exp(0x100, 0x0)\n  dup2\n  sload\n  dup2\n  0xffffffffffffffffffffffffffffffffffffffff\n  mul\n  not\n  and\n  swap1\n  dup4\n  0xffffffffffffffffffffffffffffffffffffffff\n  and\n  mul\n  or\n  swap1\n  sstore\n  pop\n    /* \"contracts/ddddd.sol\":67:6192  contract ddddd {\r... */\n  callvalue\n    /* \"--CODEGEN--\":8:17   */\n  dup1\n    /* \"--CODEGEN--\":5:7   */\n  iszero\n  tag_1\n  jumpi\n    /* \"--CODEGEN--\":30:31   */\n  0x0\n    /* \"--CODEGEN--\":27:28   */\n  dup1\n    /* \"--CODEGEN--\":20:32   */\n  revert\n    /* \"--CODEGEN--\":5:7   */\ntag_1:\n    /* \"contracts/ddddd.sol\":67:6192  contract ddddd {\r... */\n  pop\n  dataSize(sub_0)\n  dup1\n  dataOffset(sub_0)\n  0x0\n  codecopy\n  0x0\n  return\nstop\n\nsub_0: assembly {\n        /* \"contracts/ddddd.sol\":67:6192  contract ddddd {\r... */\n      mstore(0x40, 0x80)\n      jumpi(tag_1, lt(calldatasize, 0x4))\n      calldataload(0x0)\n      0x100000000000000000000000000000000000000000000000000000000\n      swap1\n      div\n      0xffffffff\n      and\n      dup1\n      0xce8e3e\n      eq\n      tag_2\n      jumpi\n      dup1\n      0x2516abd\n      eq\n      tag_3\n      jumpi\n      dup1\n      0x76fd2f8\n      eq\n      tag_4\n      jumpi\n      dup1\n      0x7973ccf\n      eq\n      tag_5\n      jumpi\n      dup1\n      0x127ca4b4\n      eq\n      tag_6\n      jumpi\n      dup1\n      0x16e0a611\n      eq\n      tag_7\n      jumpi\n      dup1\n      0x17e51111\n      eq\n      tag_8\n      jumpi\n      dup1\n      0x24c24b2b\n      eq\n      tag_9\n      jumpi\n      dup1\n      0x3d391f70\n      eq\n      tag_10\n      jumpi\n      dup1\n      0x6cdb2278\n      eq\n      tag_11\n      jumpi\n      dup1\n      0x779a9576\n      eq\n      tag_12\n      jumpi\n      dup1\n      0x78522bc4\n      eq\n      tag_13\n      jumpi\n      dup1\n      0x79111c1c\n      eq\n      tag_14\n      jumpi\n      dup1\n      0x8da5cb5b\n      eq\n      tag_15\n      jumpi\n      dup1\n      0x8f84aa09\n      eq\n      tag_16\n      jumpi\n      dup1\n      0x9f4216e8\n      eq\n      tag_17\n      jumpi\n      dup1\n      0xa5d043d1\n      eq\n      tag_18\n      jumpi\n      dup1\n      0xb13d5d94\n      eq\n      tag_19\n      jumpi\n      dup1\n      0xb5cb15f7\n      eq\n      tag_20\n      jumpi\n      dup1\n      0xb744ff4d\n      eq\n      tag_21\n      jumpi\n      dup1\n      0xcaee6c85\n      eq\n      tag_22\n      jumpi\n    tag_1:\n      0x0\n      dup1\n      revert\n        /* \"contracts/ddddd.sol\":4717:4802  function getUsers() public view returns(address[]) {\r... */\n    tag_2:\n      callvalue\n        /* \"--CODEGEN--\":8:17   */\n      dup1\n        /* \"--CODEGEN--\":5:7   */\n      iszero\n      tag_23\n      jumpi\n        /* \"--CODEGEN--\":30:31   */\n      0x0\n        /* \"--CODEGEN--\":27:28   */\n      dup1\n        /* \"--CODEGEN--\":20:32   */\n      revert\n        /* \"--CODEGEN--\":5:7   */\n    tag_23:\n        /* \"contracts/ddddd.sol\":4717:4802  function getUsers() public view returns(address[]) {\r... */\n      pop\n      tag_24\n      jump(tag_25)\n    tag_24:\n      mload(0x40)\n      tag_26\n      swap2\n      swap1\n      jump(tag_27)\n    tag_26:\n      mload(0x40)\n      dup1\n      swap2\n      sub\n      swap1\n      return\n        /* \"contracts/ddddd.sol\":4553:4707  function RevokePermission(address _address) public returns(bool success) {\r... */\n    tag_3:\n      callvalue\n        /* \"--CODEGEN--\":8:17   */\n      dup1\n        /* \"--CODEGEN--\":5:7   */\n      iszero\n      tag_28\n      jumpi\n        /* \"--CODEGEN--\":30:31   */\n      0x0\n        /* \"--CODEGEN--\":27:28   */\n      dup1\n        /* \"--CODEGEN--\":20:32   */\n      revert\n        /* \"--CODEGEN--\":5:7   */\n    tag_28:\n        /* \"contracts/ddddd.sol\":4553:4707  function RevokePermission(address _address) public returns(bool success) {\r... */\n      pop\n      tag_29\n      0x4\n      dup1\n      calldatasize\n      sub\n      tag_30\n      swap2\n      swap1\n      dup2\n      add\n      swap1\n      jump(tag_31)\n    tag_30:\n      jump(tag_32)\n    tag_29:\n      mload(0x40)\n      tag_33\n      swap2\n      swap1\n      jump(tag_34)\n    tag_33:\n      mload(0x40)\n      dup1\n      swap2\n      sub\n      swap1\n      return\n        /* \"contracts/ddddd.sol\":4913:5249  function searchUserformation(address _address) public view returns(string, string, string, string, string, string) {\r... */\n    tag_4:\n      callvalue\n        /* \"--CODEGEN--\":8:17   */\n      dup1\n        /* \"--CODEGEN--\":5:7   */\n      iszero\n      tag_35\n      jumpi\n        /* \"--CODEGEN--\":30:31   */\n      0x0\n        /* \"--CODEGEN--\":27:28   */\n      dup1\n        /* \"--CODEGEN--\":20:32   */\n      revert\n        /* \"--CODEGEN--\":5:7   */\n    tag_35:\n        /* \"contracts/ddddd.sol\":4913:5249  function searchUserformation(address _address) public view returns(string, string, string, string, string, string) {\r... */\n      pop\n      tag_36\n      0x4\n      dup1\n      calldatasize\n      sub\n      tag_37\n      swap2\n      swap1\n      dup2\n      add\n      swap1\n      jump(tag_31)\n    tag_37:\n      jump(tag_38)\n    tag_36:\n      mload(0x40)\n      tag_39\n      swap7\n      swap6\n      swap5\n      swap4\n      swap3\n      swap2\n      swap1\n      jump(tag_40)\n    tag_39:\n      mload(0x40)\n      dup1\n      swap2\n      sub\n      swap1\n      return\n        /* \"contracts/ddddd.sol\":1037:1065  uint256 public userCount = 0 */\n    tag_5:\n      callvalue\n        /* \"--CODEGEN--\":8:17   */\n      dup1\n        /* \"--CODEGEN--\":5:7   */\n      iszero\n      tag_41\n      jumpi\n        /* \"--CODEGEN--\":30:31   */\n      0x0\n        /* \"--CODEGEN--\":27:28   */\n      dup1\n        /* \"--CODEGEN--\":20:32   */\n      revert\n        /* \"--CODEGEN--\":5:7   */\n    tag_41:\n        /* \"contracts/ddddd.sol\":1037:1065  uint256 public userCount = 0 */\n      pop\n      tag_42\n      jump(tag_43)\n    tag_42:\n      mload(0x40)\n      tag_44\n      swap2\n      swap1\n      jump(tag_45)\n    tag_44:\n      mload(0x40)\n      dup1\n      swap2\n      sub\n      swap1\n      return\n        /* \"contracts/ddddd.sol\":748:775  address[] public doctorList */\n    tag_6:\n      callvalue\n        /* \"--CODEGEN--\":8:17   */\n      dup1\n        /* \"--CODEGEN--\":5:7   */\n      iszero\n      tag_46\n      jumpi\n        /* \"--CODEGEN--\":30:31   */\n      0x0\n        /* \"--CODEGEN--\":27:28   */\n      dup1\n        /* \"--CODEGEN--\":20:32   */\n      revert\n        /* \"--CODEGEN--\":5:7   */\n    tag_46:\n        /* \"contracts/ddddd.sol\":748:775  address[] public doctorList */\n      pop\n      tag_47\n      0x4\n      dup1\n      calldatasize\n      sub\n      tag_48\n      swap2\n      swap1\n      dup2\n      add\n      swap1\n      jump(tag_49)\n    tag_48:\n      jump(tag_50)\n    tag_47:\n      mload(0x40)\n      tag_51\n      swap2\n      swap1\n      jump(tag_52)\n    tag_51:\n      mload(0x40)\n      dup1\n      swap2\n      sub\n      swap1\n      return\n        /* \"contracts/ddddd.sol\":3833:4352  function editDoctor(address _doctor, string _uaeId, string _name, string _phone, string _gender, string _dob, string _qualification, string _major) public {\r... */\n    tag_7:\n      callvalue\n        /* \"--CODEGEN--\":8:17   */\n      dup1\n        /* \"--CODEGEN--\":5:7   */\n      iszero\n      tag_53\n      jumpi\n        /* \"--CODEGEN--\":30:31   */\n      0x0\n        /* \"--CODEGEN--\":27:28   */\n      dup1\n        /* \"--CODEGEN--\":20:32   */\n      revert\n        /* \"--CODEGEN--\":5:7   */\n    tag_53:\n        /* \"contracts/ddddd.sol\":3833:4352  function editDoctor(address _doctor, string _uaeId, string _name, string _phone, string _gender, string _dob, string _qualification, string _major) public {\r... */\n      pop\n      tag_54\n      0x4\n      dup1\n      calldatasize\n      sub\n      tag_55\n      swap2\n      swap1\n      dup2\n      add\n      swap1\n      jump(tag_56)\n    tag_55:\n      jump(tag_57)\n    tag_54:\n      stop\n        /* \"contracts/ddddd.sol\":3064:3825  function doctorRegistration(address _doctor, string _uaeId, string _name, string _phone, string _gender, string _dob, string _qualification, string _major) public {\r... */\n    tag_8:\n      callvalue\n        /* \"--CODEGEN--\":8:17   */\n      dup1\n        /* \"--CODEGEN--\":5:7   */\n      iszero\n      tag_58\n      jumpi\n        /* \"--CODEGEN--\":30:31   */\n      0x0\n        /* \"--CODEGEN--\":27:28   */\n      dup1\n        /* \"--CODEGEN--\":20:32   */\n      revert\n        /* \"--CODEGEN--\":5:7   */\n    tag_58:\n        /* \"contracts/ddddd.sol\":3064:3825  function doctorRegistration(address _doctor, string _uaeId, string _name, string _phone, string _gender, string _dob, string _qualification, string _major) public {\r... */\n      pop\n      tag_59\n      0x4\n      dup1\n      calldatasize\n      sub\n      tag_60\n      swap2\n      swap1\n      dup2\n      add\n      swap1\n      jump(tag_56)\n    tag_60:\n      jump(tag_61)\n    tag_59:\n      stop\n        /* \"contracts/ddddd.sol\":6076:6185  function getPermissionGrantedCount() public view returns(uint256) {\r... */\n    tag_9:\n      callvalue\n        /* \"--CODEGEN--\":8:17   */\n      dup1\n        /* \"--CODEGEN--\":5:7   */\n      iszero\n      tag_62\n      jumpi\n        /* \"--CODEGEN--\":30:31   */\n      0x0\n        /* \"--CODEGEN--\":27:28   */\n      dup1\n        /* \"--CODEGEN--\":20:32   */\n      revert\n        /* \"--CODEGEN--\":5:7   */\n    tag_62:\n        /* \"contracts/ddddd.sol\":6076:6185  function getPermissionGrantedCount() public view returns(uint256) {\r... */\n      pop\n      tag_63\n      jump(tag_64)\n    tag_63:\n      mload(0x40)\n      tag_65\n      swap2\n      swap1\n      jump(tag_45)\n    tag_65:\n      mload(0x40)\n      dup1\n      swap2\n      sub\n      swap1\n      return\n        /* \"contracts/ddddd.sol\":4362:4543  function givePermission(address _address) public returns(bool success) {\r... */\n    tag_10:\n      callvalue\n        /* \"--CODEGEN--\":8:17   */\n      dup1\n        /* \"--CODEGEN--\":5:7   */\n      iszero\n      tag_66\n      jumpi\n        /* \"--CODEGEN--\":30:31   */\n      0x0\n        /* \"--CODEGEN--\":27:28   */\n      dup1\n        /* \"--CODEGEN--\":20:32   */\n      revert\n        /* \"--CODEGEN--\":5:7   */\n    tag_66:\n        /* \"contracts/ddddd.sol\":4362:4543  function givePermission(address _address) public returns(bool success) {\r... */\n      pop\n      tag_67\n      0x4\n      dup1\n      calldatasize\n      sub\n      tag_68\n      swap2\n      swap1\n      dup2\n      add\n      swap1\n      jump(tag_31)\n    tag_68:\n      jump(tag_69)\n    tag_67:\n      mload(0x40)\n      tag_70\n      swap2\n      swap1\n      jump(tag_34)\n    tag_70:\n      mload(0x40)\n      dup1\n      swap2\n      sub\n      swap1\n      return\n        /* \"contracts/ddddd.sol\":1314:2423  function userRegistration(address _user, string _uaeId, string _name, string _phone, string _gender, string _dob, string _addr, string _email, string _nomineeName, string _nomineeContact) public {\r... */\n    tag_11:\n      callvalue\n        /* \"--CODEGEN--\":8:17   */\n      dup1\n        /* \"--CODEGEN--\":5:7   */\n      iszero\n      tag_71\n      jumpi\n        /* \"--CODEGEN--\":30:31   */\n      0x0\n        /* \"--CODEGEN--\":27:28   */\n      dup1\n        /* \"--CODEGEN--\":20:32   */\n      revert\n        /* \"--CODEGEN--\":5:7   */\n    tag_71:\n        /* \"contracts/ddddd.sol\":1314:2423  function userRegistration(address _user, string _uaeId, string _name, string _phone, string _gender, string _dob, string _addr, string _email, string _nomineeName, string _nomineeContact) public {\r... */\n      pop\n      tag_72\n      0x4\n      dup1\n      calldatasize\n      sub\n      tag_73\n      swap2\n      swap1\n      dup2\n      add\n      swap1\n      jump(tag_74)\n    tag_73:\n      jump(tag_75)\n    tag_72:\n      stop\n        /* \"contracts/ddddd.sol\":2447:3056  function editUser(address _user, string _uaeId, string _name, string _phone, string _gender, string _dob, string _addr, string _email, string _nomineeName, string _nomineeContact) public {\r... */\n    tag_12:\n      callvalue\n        /* \"--CODEGEN--\":8:17   */\n      dup1\n        /* \"--CODEGEN--\":5:7   */\n      iszero\n      tag_76\n      jumpi\n        /* \"--CODEGEN--\":30:31   */\n      0x0\n        /* \"--CODEGEN--\":27:28   */\n      dup1\n        /* \"--CODEGEN--\":20:32   */\n      revert\n        /* \"--CODEGEN--\":5:7   */\n    tag_76:\n        /* \"contracts/ddddd.sol\":2447:3056  function editUser(address _user, string _uaeId, string _name, string _phone, string _gender, string _dob, string _addr, string _email, string _nomineeName, string _nomineeContact) public {\r... */\n      pop\n      tag_77\n      0x4\n      dup1\n      calldatasize\n      sub\n      tag_78\n      swap2\n      swap1\n      dup2\n      add\n      swap1\n      jump(tag_74)\n    tag_78:\n      jump(tag_79)\n    tag_77:\n      stop\n        /* \"contracts/ddddd.sol\":1072:1102  uint256 public doctorCount = 0 */\n    tag_13:\n      callvalue\n        /* \"--CODEGEN--\":8:17   */\n      dup1\n        /* \"--CODEGEN--\":5:7   */\n      iszero\n      tag_80\n      jumpi\n        /* \"--CODEGEN--\":30:31   */\n      0x0\n        /* \"--CODEGEN--\":27:28   */\n      dup1\n        /* \"--CODEGEN--\":20:32   */\n      revert\n        /* \"--CODEGEN--\":5:7   */\n    tag_80:\n        /* \"contracts/ddddd.sol\":1072:1102  uint256 public doctorCount = 0 */\n      pop\n      tag_81\n      jump(tag_82)\n    tag_81:\n      mload(0x40)\n      tag_83\n      swap2\n      swap1\n      jump(tag_45)\n    tag_83:\n      mload(0x40)\n      dup1\n      swap2\n      sub\n      swap1\n      return\n        /* \"contracts/ddddd.sol\":5976:6068  function getDoctorCount() public view returns(uint256) {\r... */\n    tag_14:\n      callvalue\n        /* \"--CODEGEN--\":8:17   */\n      dup1\n        /* \"--CODEGEN--\":5:7   */\n      iszero\n      tag_84\n      jumpi\n        /* \"--CODEGEN--\":30:31   */\n      0x0\n        /* \"--CODEGEN--\":27:28   */\n      dup1\n        /* \"--CODEGEN--\":20:32   */\n      revert\n        /* \"--CODEGEN--\":5:7   */\n    tag_84:\n        /* \"contracts/ddddd.sol\":5976:6068  function getDoctorCount() public view returns(uint256) {\r... */\n      pop\n      tag_85\n      jump(tag_86)\n    tag_85:\n      mload(0x40)\n      tag_87\n      swap2\n      swap1\n      jump(tag_45)\n    tag_87:\n      mload(0x40)\n      dup1\n      swap2\n      sub\n      swap1\n      return\n        /* \"contracts/ddddd.sol\":689:709  address public owner */\n    tag_15:\n      callvalue\n        /* \"--CODEGEN--\":8:17   */\n      dup1\n        /* \"--CODEGEN--\":5:7   */\n      iszero\n      tag_88\n      jumpi\n        /* \"--CODEGEN--\":30:31   */\n      0x0\n        /* \"--CODEGEN--\":27:28   */\n      dup1\n        /* \"--CODEGEN--\":20:32   */\n      revert\n        /* \"--CODEGEN--\":5:7   */\n    tag_88:\n        /* \"contracts/ddddd.sol\":689:709  address public owner */\n      pop\n      tag_89\n      jump(tag_90)\n    tag_89:\n      mload(0x40)\n      tag_91\n      swap2\n      swap1\n      jump(tag_52)\n    tag_91:\n      mload(0x40)\n      dup1\n      swap2\n      sub\n      swap1\n      return\n        /* \"contracts/ddddd.sol\":1234:1302  function ownerAddress() public {\r... */\n    tag_16:\n      callvalue\n        /* \"--CODEGEN--\":8:17   */\n      dup1\n        /* \"--CODEGEN--\":5:7   */\n      iszero\n      tag_92\n      jumpi\n        /* \"--CODEGEN--\":30:31   */\n      0x0\n        /* \"--CODEGEN--\":27:28   */\n      dup1\n        /* \"--CODEGEN--\":20:32   */\n      revert\n        /* \"--CODEGEN--\":5:7   */\n    tag_92:\n        /* \"contracts/ddddd.sol\":1234:1302  function ownerAddress() public {\r... */\n      pop\n      tag_93\n      jump(tag_94)\n    tag_93:\n      stop\n        /* \"contracts/ddddd.sol\":716:741  address[] public userList */\n    tag_17:\n      callvalue\n        /* \"--CODEGEN--\":8:17   */\n      dup1\n        /* \"--CODEGEN--\":5:7   */\n      iszero\n      tag_95\n      jumpi\n        /* \"--CODEGEN--\":30:31   */\n      0x0\n        /* \"--CODEGEN--\":27:28   */\n      dup1\n        /* \"--CODEGEN--\":20:32   */\n      revert\n        /* \"--CODEGEN--\":5:7   */\n    tag_95:\n        /* \"contracts/ddddd.sol\":716:741  address[] public userList */\n      pop\n      tag_96\n      0x4\n      dup1\n      calldatasize\n      sub\n      tag_97\n      swap2\n      swap1\n      dup2\n      add\n      swap1\n      jump(tag_49)\n    tag_97:\n      jump(tag_98)\n    tag_96:\n      mload(0x40)\n      tag_99\n      swap2\n      swap1\n      jump(tag_52)\n    tag_99:\n      mload(0x40)\n      dup1\n      swap2\n      sub\n      swap1\n      return\n        /* \"contracts/ddddd.sol\":1109:1145  uint256 public permissionCounter = 0 */\n    tag_18:\n      callvalue\n        /* \"--CODEGEN--\":8:17   */\n      dup1\n        /* \"--CODEGEN--\":5:7   */\n      iszero\n      tag_100\n      jumpi\n        /* \"--CODEGEN--\":30:31   */\n      0x0\n        /* \"--CODEGEN--\":27:28   */\n      dup1\n        /* \"--CODEGEN--\":20:32   */\n      revert\n        /* \"--CODEGEN--\":5:7   */\n    tag_100:\n        /* \"contracts/ddddd.sol\":1109:1145  uint256 public permissionCounter = 0 */\n      pop\n      tag_101\n      jump(tag_102)\n    tag_101:\n      mload(0x40)\n      tag_103\n      swap2\n      swap1\n      jump(tag_45)\n    tag_103:\n      mload(0x40)\n      dup1\n      swap2\n      sub\n      swap1\n      return\n        /* \"contracts/ddddd.sol\":4812:4901  function getDoctors() public view returns(address[]) {\r... */\n    tag_19:\n      callvalue\n        /* \"--CODEGEN--\":8:17   */\n      dup1\n        /* \"--CODEGEN--\":5:7   */\n      iszero\n      tag_104\n      jumpi\n        /* \"--CODEGEN--\":30:31   */\n      0x0\n        /* \"--CODEGEN--\":27:28   */\n      dup1\n        /* \"--CODEGEN--\":20:32   */\n      revert\n        /* \"--CODEGEN--\":5:7   */\n    tag_104:\n        /* \"contracts/ddddd.sol\":4812:4901  function getDoctors() public view returns(address[]) {\r... */\n      pop\n      tag_105\n      jump(tag_106)\n    tag_105:\n      mload(0x40)\n      tag_107\n      swap2\n      swap1\n      jump(tag_27)\n    tag_107:\n      mload(0x40)\n      dup1\n      swap2\n      sub\n      swap1\n      return\n        /* \"contracts/ddddd.sol\":5880:5968  function getUserCount() public view returns(uint256) {\r... */\n    tag_20:\n      callvalue\n        /* \"--CODEGEN--\":8:17   */\n      dup1\n        /* \"--CODEGEN--\":5:7   */\n      iszero\n      tag_108\n      jumpi\n        /* \"--CODEGEN--\":30:31   */\n      0x0\n        /* \"--CODEGEN--\":27:28   */\n      dup1\n        /* \"--CODEGEN--\":20:32   */\n      revert\n        /* \"--CODEGEN--\":5:7   */\n    tag_108:\n        /* \"contracts/ddddd.sol\":5880:5968  function getUserCount() public view returns(uint256) {\r... */\n      pop\n      tag_109\n      jump(tag_110)\n    tag_109:\n      mload(0x40)\n      tag_111\n      swap2\n      swap1\n      jump(tag_45)\n    tag_111:\n      mload(0x40)\n      dup1\n      swap2\n      sub\n      swap1\n      return\n        /* \"contracts/ddddd.sol\":1152:1221  address public mohAdress = 0xc50C6297f56b033633C30354A854b074749cd2dC */\n    tag_21:\n      callvalue\n        /* \"--CODEGEN--\":8:17   */\n      dup1\n        /* \"--CODEGEN--\":5:7   */\n      iszero\n      tag_112\n      jumpi\n        /* \"--CODEGEN--\":30:31   */\n      0x0\n        /* \"--CODEGEN--\":27:28   */\n      dup1\n        /* \"--CODEGEN--\":20:32   */\n      revert\n        /* \"--CODEGEN--\":5:7   */\n    tag_112:\n        /* \"contracts/ddddd.sol\":1152:1221  address public mohAdress = 0xc50C6297f56b033633C30354A854b074749cd2dC */\n      pop\n      tag_113\n      jump(tag_114)\n    tag_113:\n      mload(0x40)\n      tag_115\n      swap2\n      swap1\n      jump(tag_52)\n    tag_115:\n      mload(0x40)\n      dup1\n      swap2\n      sub\n      swap1\n      return\n        /* \"contracts/ddddd.sol\":5570:5864  function searchDoctor(address _address) public view returns(string, string, string, string, string, string, string) {\r... */\n    tag_22:\n      callvalue\n        /* \"--CODEGEN--\":8:17   */\n      dup1\n        /* \"--CODEGEN--\":5:7   */\n      iszero\n      tag_116\n      jumpi\n        /* \"--CODEGEN--\":30:31   */\n      0x0\n        /* \"--CODEGEN--\":27:28   */\n      dup1\n        /* \"--CODEGEN--\":20:32   */\n      revert\n        /* \"--CODEGEN--\":5:7   */\n    tag_116:\n        /* \"contracts/ddddd.sol\":5570:5864  function searchDoctor(address _address) public view returns(string, string, string, string, string, string, string) {\r... */\n      pop\n      tag_117\n      0x4\n      dup1\n      calldatasize\n      sub\n      tag_118\n      swap2\n      swap1\n      dup2\n      add\n      swap1\n      jump(tag_31)\n    tag_118:\n      jump(tag_119)\n    tag_117:\n      mload(0x40)\n      tag_120\n      swap8\n      swap7\n      swap6\n      swap5\n      swap4\n      swap3\n      swap2\n      swap1\n      jump(tag_121)\n    tag_120:\n      mload(0x40)\n      dup1\n      swap2\n      sub\n      swap1\n      return\n        /* \"contracts/ddddd.sol\":4717:4802  function getUsers() public view returns(address[]) {\r... */\n    tag_25:\n        /* \"contracts/ddddd.sol\":4757:4766  address[] */\n      0x60\n        /* \"contracts/ddddd.sol\":4786:4794  userList */\n      0x1\n        /* \"contracts/ddddd.sol\":4779:4794  return userList */\n      dup1\n      sload\n      dup1\n      0x20\n      mul\n      0x20\n      add\n      mload(0x40)\n      swap1\n      dup2\n      add\n      0x40\n      mstore\n      dup1\n      swap3\n      swap2\n      swap1\n      dup2\n      dup2\n      mstore\n      0x20\n      add\n      dup3\n      dup1\n      sload\n      dup1\n      iszero\n      tag_123\n      jumpi\n      0x20\n      mul\n      dup3\n      add\n      swap2\n      swap1\n      0x0\n      mstore\n      keccak256(0x0, 0x20)\n      swap1\n    tag_124:\n      dup2\n      0x0\n      swap1\n      sload\n      swap1\n      0x100\n      exp\n      swap1\n      div\n      0xffffffffffffffffffffffffffffffffffffffff\n      and\n      0xffffffffffffffffffffffffffffffffffffffff\n      and\n      dup2\n      mstore\n      0x20\n      add\n      swap1\n      0x1\n      add\n      swap1\n      dup1\n      dup4\n      gt\n      tag_124\n      jumpi\n    tag_123:\n      pop\n      pop\n      pop\n      pop\n      pop\n      swap1\n      pop\n        /* \"contracts/ddddd.sol\":4717:4802  function getUsers() public view returns(address[]) {\r... */\n      swap1\n      jump\t// out\n        /* \"contracts/ddddd.sol\":4553:4707  function RevokePermission(address _address) public returns(bool success) {\r... */\n    tag_32:\n        /* \"contracts/ddddd.sol\":4612:4624  bool success */\n      0x0\n        /* \"contracts/ddddd.sol\":4672:4677  false */\n      dup1\n        /* \"contracts/ddddd.sol\":4637:4647  isApproved */\n      0x5\n        /* \"contracts/ddddd.sol\":4637:4659  isApproved[msg.sender] */\n      0x0\n        /* \"contracts/ddddd.sol\":4648:4658  msg.sender */\n      caller\n        /* \"contracts/ddddd.sol\":4637:4659  isApproved[msg.sender] */\n      0xffffffffffffffffffffffffffffffffffffffff\n      and\n      0xffffffffffffffffffffffffffffffffffffffff\n      and\n      dup2\n      mstore\n      0x20\n      add\n      swap1\n      dup2\n      mstore\n      0x20\n      add\n      0x0\n      keccak256\n        /* \"contracts/ddddd.sol\":4637:4669  isApproved[msg.sender][_address] */\n      0x0\n        /* \"contracts/ddddd.sol\":4660:4668  _address */\n      dup5\n        /* \"contracts/ddddd.sol\":4637:4669  isApproved[msg.sender][_address] */\n      0xffffffffffffffffffffffffffffffffffffffff\n      and\n      0xffffffffffffffffffffffffffffffffffffffff\n      and\n      dup2\n      mstore\n      0x20\n      add\n      swap1\n      dup2\n      mstore\n      0x20\n      add\n      0x0\n      keccak256\n      0x0\n        /* \"contracts/ddddd.sol\":4637:4677  isApproved[msg.sender][_address] = false */\n      0x100\n      exp\n      dup2\n      sload\n      dup2\n      0xff\n      mul\n      not\n      and\n      swap1\n      dup4\n      iszero\n      iszero\n      mul\n      or\n      swap1\n      sstore\n      pop\n        /* \"contracts/ddddd.sol\":4695:4699  true */\n      0x1\n        /* \"contracts/ddddd.sol\":4688:4699  return true */\n      swap1\n      pop\n        /* \"contracts/ddddd.sol\":4553:4707  function RevokePermission(address _address) public returns(bool success) {\r... */\n      swap2\n      swap1\n      pop\n      jump\t// out\n        /* \"contracts/ddddd.sol\":4913:5249  function searchUserformation(address _address) public view returns(string, string, string, string, string, string) {\r... */\n    tag_38:\n        /* \"contracts/ddddd.sol\":4980:4986  string */\n      0x60\n        /* \"contracts/ddddd.sol\":4988:4994  string */\n      dup1\n        /* \"contracts/ddddd.sol\":4996:5002  string */\n      0x60\n        /* \"contracts/ddddd.sol\":5004:5010  string */\n      dup1\n        /* \"contracts/ddddd.sol\":5012:5018  string */\n      0x60\n        /* \"contracts/ddddd.sol\":5020:5026  string */\n      dup1\n        /* \"contracts/ddddd.sol\":5091:5096  var u */\n      0x0\n        /* \"contracts/ddddd.sol\":5047:5057  isApproved */\n      0x5\n        /* \"contracts/ddddd.sol\":5047:5067  isApproved[_address] */\n      0x0\n        /* \"contracts/ddddd.sol\":5058:5066  _address */\n      dup10\n        /* \"contracts/ddddd.sol\":5047:5067  isApproved[_address] */\n      0xffffffffffffffffffffffffffffffffffffffff\n      and\n      0xffffffffffffffffffffffffffffffffffffffff\n      and\n      dup2\n      mstore\n      0x20\n      add\n      swap1\n      dup2\n      mstore\n      0x20\n      add\n      0x0\n      keccak256\n        /* \"contracts/ddddd.sol\":5047:5079  isApproved[_address][msg.sender] */\n      0x0\n        /* \"contracts/ddddd.sol\":5068:5078  msg.sender */\n      caller\n        /* \"contracts/ddddd.sol\":5047:5079  isApproved[_address][msg.sender] */\n      0xffffffffffffffffffffffffffffffffffffffff\n      and\n      0xffffffffffffffffffffffffffffffffffffffff\n      and\n      dup2\n      mstore\n      0x20\n      add\n      swap1\n      dup2\n      mstore\n      0x20\n      add\n      0x0\n      keccak256\n      0x0\n      swap1\n      sload\n      swap1\n      0x100\n      exp\n      swap1\n      div\n      0xff\n      and\n        /* \"contracts/ddddd.sol\":5039:5080  require(isApproved[_address][msg.sender]) */\n      iszero\n      iszero\n      tag_127\n      jumpi\n      0x0\n      dup1\n      revert\n    tag_127:\n        /* \"contracts/ddddd.sol\":5099:5103  user */\n      0x3\n        /* \"contracts/ddddd.sol\":5099:5113  user[_address] */\n      0x0\n        /* \"contracts/ddddd.sol\":5104:5112  _address */\n      dup10\n        /* \"contracts/ddddd.sol\":5099:5113  user[_address] */\n      0xffffffffffffffffffffffffffffffffffffffff\n      and\n      0xffffffffffffffffffffffffffffffffffffffff\n      and\n      dup2\n      mstore\n      0x20\n      add\n      swap1\n      dup2\n      mstore\n      0x20\n      add\n      0x0\n      keccak256\n        /* \"contracts/ddddd.sol\":5091:5113  var u = user[_address] */\n      swap1\n      pop\n        /* \"contracts/ddddd.sol\":5132:5133  u */\n      dup1\n        /* \"contracts/ddddd.sol\":5132:5139  u.uaeId */\n      0x0\n      add\n        /* \"contracts/ddddd.sol\":5141:5142  u */\n      dup2\n        /* \"contracts/ddddd.sol\":5141:5147  u.name */\n      0x1\n      add\n        /* \"contracts/ddddd.sol\":5149:5150  u */\n      dup3\n        /* \"contracts/ddddd.sol\":5149:5156  u.phone */\n      0x2\n      add\n        /* \"contracts/ddddd.sol\":5158:5159  u */\n      dup4\n        /* \"contracts/ddddd.sol\":5158:5166  u.gender */\n      0x3\n      add\n        /* \"contracts/ddddd.sol\":5168:5169  u */\n      dup5\n        /* \"contracts/ddddd.sol\":5168:5173  u.dob */\n      0x4\n      add\n        /* \"contracts/ddddd.sol\":5175:5176  u */\n      dup6\n        /* \"contracts/ddddd.sol\":5175:5181  u.addr */\n      0x5\n      add\n        /* \"contracts/ddddd.sol\":5124:5182  return (u.uaeId, u.name, u.phone, u.gender, u.dob, u.addr) */\n      dup6\n      dup1\n      sload\n      0x1\n      dup2\n      0x1\n      and\n      iszero\n      0x100\n      mul\n      sub\n      and\n      0x2\n      swap1\n      div\n      dup1\n      0x1f\n      add\n      0x20\n      dup1\n      swap2\n      div\n      mul\n      0x20\n      add\n      mload(0x40)\n      swap1\n      dup2\n      add\n      0x40\n      mstore\n      dup1\n      swap3\n      swap2\n      swap1\n      dup2\n      dup2\n      mstore\n      0x20\n      add\n      dup3\n      dup1\n      sload\n      0x1\n      dup2\n      0x1\n      and\n      iszero\n      0x100\n      mul\n      sub\n      and\n      0x2\n      swap1\n      div\n      dup1\n      iszero\n      tag_128\n      jumpi\n      dup1\n      0x1f\n      lt\n      tag_129\n      jumpi\n      0x100\n      dup1\n      dup4\n      sload\n      div\n      mul\n      dup4\n      mstore\n      swap2\n      0x20\n      add\n      swap2\n      jump(tag_128)\n    tag_129:\n      dup3\n      add\n      swap2\n      swap1\n      0x0\n      mstore\n      keccak256(0x0, 0x20)\n      swap1\n    tag_130:\n      dup2\n      sload\n      dup2\n      mstore\n      swap1\n      0x1\n      add\n      swap1\n      0x20\n      add\n      dup1\n      dup4\n      gt\n      tag_130\n      jumpi\n      dup3\n      swap1\n      sub\n      0x1f\n      and\n      dup3\n      add\n      swap2\n    tag_128:\n      pop\n      pop\n      pop\n      pop\n      pop\n      swap6\n      pop\n      dup5\n      dup1\n      sload\n      0x1\n      dup2\n      0x1\n      and\n      iszero\n      0x100\n      mul\n      sub\n      and\n      0x2\n      swap1\n      div\n      dup1\n      0x1f\n      add\n      0x20\n      dup1\n      swap2\n      div\n      mul\n      0x20\n      add\n      mload(0x40)\n      swap1\n      dup2\n      add\n      0x40\n      mstore\n      dup1\n      swap3\n      swap2\n      swap1\n      dup2\n      dup2\n      mstore\n      0x20\n      add\n      dup3\n      dup1\n      sload\n      0x1\n      dup2\n      0x1\n      and\n      iszero\n      0x100\n      mul\n      sub\n      and\n      0x2\n      swap1\n      div\n      dup1\n      iszero\n      tag_131\n      jumpi\n      dup1\n      0x1f\n      lt\n      tag_132\n      jumpi\n      0x100\n      dup1\n      dup4\n      sload\n      div\n      mul\n      dup4\n      mstore\n      swap2\n      0x20\n      add\n      swap2\n      jump(tag_131)\n    tag_132:\n      dup3\n      add\n      swap2\n      swap1\n      0x0\n      mstore\n      keccak256(0x0, 0x20)\n      swap1\n    tag_133:\n      dup2\n      sload\n      dup2\n      mstore\n      swap1\n      0x1\n      add\n      swap1\n      0x20\n      add\n      dup1\n      dup4\n      gt\n      tag_133\n      jumpi\n      dup3\n      swap1\n      sub\n      0x1f\n      and\n      dup3\n      add\n      swap2\n    tag_131:\n      pop\n      pop\n      pop\n      pop\n      pop\n      swap5\n      pop\n      dup4\n      dup1\n      sload\n      0x1\n      dup2\n      0x1\n      and\n      iszero\n      0x100\n      mul\n      sub\n      and\n      0x2\n      swap1\n      div\n      dup1\n      0x1f\n      add\n      0x20\n      dup1\n      swap2\n      div\n      mul\n      0x20\n      add\n      mload(0x40)\n      swap1\n      dup2\n      add\n      0x40\n      mstore\n      dup1\n      swap3\n      swap2\n      swap1\n      dup2\n      dup2\n      mstore\n      0x20\n      add\n      dup3\n      dup1\n      sload\n      0x1\n      dup2\n      0x1\n      and\n      iszero\n      0x100\n      mul\n      sub\n      and\n      0x2\n      swap1\n      div\n      dup1\n      iszero\n      tag_134\n      jumpi\n      dup1\n      0x1f\n      lt\n      tag_135\n      jumpi\n      0x100\n      dup1\n      dup4\n      sload\n      div\n      mul\n      dup4\n      mstore\n      swap2\n      0x20\n      add\n      swap2\n      jump(tag_134)\n    tag_135:\n      dup3\n      add\n      swap2\n      swap1\n      0x0\n      mstore\n      keccak256(0x0, 0x20)\n      swap1\n    tag_136:\n      dup2\n      sload\n      dup2\n      mstore\n      swap1\n      0x1\n      add\n      swap1\n      0x20\n      add\n      dup1\n      dup4\n      gt\n      tag_136\n      jumpi\n      dup3\n      swap1\n      sub\n      0x1f\n      and\n      dup3\n      add\n      swap2\n    tag_134:\n      pop\n      pop\n      pop\n      pop\n      pop\n      swap4\n      pop\n      dup3\n      dup1\n      sload\n      0x1\n      dup2\n      0x1\n      and\n      iszero\n      0x100\n      mul\n      sub\n      and\n      0x2\n      swap1\n      div\n      dup1\n      0x1f\n      add\n      0x20\n      dup1\n      swap2\n      div\n      mul\n      0x20\n      add\n      mload(0x40)\n      swap1\n      dup2\n      add\n      0x40\n      mstore\n      dup1\n      swap3\n      swap2\n      swap1\n      dup2\n      dup2\n      mstore\n      0x20\n      add\n      dup3\n      dup1\n      sload\n      0x1\n      dup2\n      0x1\n      and\n      iszero\n      0x100\n      mul\n      sub\n      and\n      0x2\n      swap1\n      div\n      dup1\n      iszero\n      tag_137\n      jumpi\n      dup1\n      0x1f\n      lt\n      tag_138\n      jumpi\n      0x100\n      dup1\n      dup4\n      sload\n      div\n      mul\n      dup4\n      mstore\n      swap2\n      0x20\n      add\n      swap2\n      jump(tag_137)\n    tag_138:\n      dup3\n      add\n      swap2\n      swap1\n      0x0\n      mstore\n      keccak256(0x0, 0x20)\n      swap1\n    tag_139:\n      dup2\n      sload\n      dup2\n      mstore\n      swap1\n      0x1\n      add\n      swap1\n      0x20\n      add\n      dup1\n      dup4\n      gt\n      tag_139\n      jumpi\n      dup3\n      swap1\n      sub\n      0x1f\n      and\n      dup3\n      add\n      swap2\n    tag_137:\n      pop\n      pop\n      pop\n      pop\n      pop\n      swap3\n      pop\n      dup2\n      dup1\n      sload\n      0x1\n      dup2\n      0x1\n      and\n      iszero\n      0x100\n      mul\n      sub\n      and\n      0x2\n      swap1\n      div\n      dup1\n      0x1f\n      add\n      0x20\n      dup1\n      swap2\n      div\n      mul\n      0x20\n      add\n      mload(0x40)\n      swap1\n      dup2\n      add\n      0x40\n      mstore\n      dup1\n      swap3\n      swap2\n      swap1\n      dup2\n      dup2\n      mstore\n      0x20\n      add\n      dup3\n      dup1\n      sload\n      0x1\n      dup2\n      0x1\n      and\n      iszero\n      0x100\n      mul\n      sub\n      and\n      0x2\n      swap1\n      div\n      dup1\n      iszero\n      tag_140\n      jumpi\n      dup1\n      0x1f\n      lt\n      tag_141\n      jumpi\n      0x100\n      dup1\n      dup4\n      sload\n      div\n      mul\n      dup4\n      mstore\n      swap2\n      0x20\n      add\n      swap2\n      jump(tag_140)\n    tag_141:\n      dup3\n      add\n      swap2\n      swap1\n      0x0\n      mstore\n      keccak256(0x0, 0x20)\n      swap1\n    tag_142:\n      dup2\n      sload\n      dup2\n      mstore\n      swap1\n      0x1\n      add\n      swap1\n      0x20\n      add\n      dup1\n      dup4\n      gt\n      tag_142\n      jumpi\n      dup3\n      swap1\n      sub\n      0x1f\n      and\n      dup3\n      add\n      swap2\n    tag_140:\n      pop\n      pop\n      pop\n      pop\n      pop\n      swap2\n      pop\n      dup1\n      dup1\n      sload\n      0x1\n      dup2\n      0x1\n      and\n      iszero\n      0x100\n      mul\n      sub\n      and\n      0x2\n      swap1\n      div\n      dup1\n      0x1f\n      add\n      0x20\n      dup1\n      swap2\n      div\n      mul\n      0x20\n      add\n      mload(0x40)\n      swap1\n      dup2\n      add\n      0x40\n      mstore\n      dup1\n      swap3\n      swap2\n      swap1\n      dup2\n      dup2\n      mstore\n      0x20\n      add\n      dup3\n      dup1\n      sload\n      0x1\n      dup2\n      0x1\n      and\n      iszero\n      0x100\n      mul\n      sub\n      and\n      0x2\n      swap1\n      div\n      dup1\n      iszero\n      tag_143\n      jumpi\n      dup1\n      0x1f\n      lt\n      tag_144\n      jumpi\n      0x100\n      dup1\n      dup4\n      sload\n      div\n      mul\n      dup4\n      mstore\n      swap2\n      0x20\n      add\n      swap2\n      jump(tag_143)\n    tag_144:\n      dup3\n      add\n      swap2\n      swap1\n      0x0\n      mstore\n      keccak256(0x0, 0x20)\n      swap1\n    tag_145:\n      dup2\n      sload\n      dup2\n      mstore\n      swap1\n      0x1\n      add\n      swap1\n      0x20\n      add\n      dup1\n      dup4\n      gt\n      tag_145\n      jumpi\n      dup3\n      swap1\n      sub\n      0x1f\n      and\n      dup3\n      add\n      swap2\n    tag_143:\n      pop\n      pop\n      pop\n      pop\n      pop\n      swap1\n      pop\n      swap7\n      pop\n      swap7\n      pop\n      swap7\n      pop\n      swap7\n      pop\n      swap7\n      pop\n      swap7\n      pop\n        /* \"contracts/ddddd.sol\":4913:5249  function searchUserformation(address _address) public view returns(string, string, string, string, string, string) {\r... */\n      pop\n      swap2\n      swap4\n      swap6\n      pop\n      swap2\n      swap4\n      swap6\n      jump\t// out\n        /* \"contracts/ddddd.sol\":1037:1065  uint256 public userCount = 0 */\n    tag_43:\n      sload(0x8)\n      dup2\n      jump\t// out\n        /* \"contracts/ddddd.sol\":748:775  address[] public doctorList */\n    tag_50:\n      0x2\n      dup2\n      dup2\n      sload\n      dup2\n      lt\n      iszero\n      iszero\n      tag_146\n      jumpi\n      invalid\n    tag_146:\n      swap1\n      0x0\n      mstore\n      keccak256(0x0, 0x20)\n      add\n      0x0\n      swap2\n      pop\n      sload\n      swap1\n      0x100\n      exp\n      swap1\n      div\n      0xffffffffffffffffffffffffffffffffffffffff\n      and\n      dup2\n      jump\t// out\n        /* \"contracts/ddddd.sol\":3833:4352  function editDoctor(address _doctor, string _uaeId, string _name, string _phone, string _gender, string _dob, string _qualification, string _major) public {\r... */\n    tag_57:\n        /* \"contracts/ddddd.sol\":4079:4084  var d */\n      0x0\n        /* \"contracts/ddddd.sol\":4021:4030  mohAdress */\n      0xb\n      0x0\n      swap1\n      sload\n      swap1\n      0x100\n      exp\n      swap1\n      div\n      0xffffffffffffffffffffffffffffffffffffffff\n      and\n        /* \"contracts/ddddd.sol\":4007:4030  msg.sender == mohAdress */\n      0xffffffffffffffffffffffffffffffffffffffff\n      and\n        /* \"contracts/ddddd.sol\":4007:4017  msg.sender */\n      caller\n        /* \"contracts/ddddd.sol\":4007:4030  msg.sender == mohAdress */\n      0xffffffffffffffffffffffffffffffffffffffff\n      and\n      eq\n        /* \"contracts/ddddd.sol\":3999:4031  require(msg.sender == mohAdress) */\n      iszero\n      iszero\n      tag_149\n      jumpi\n      0x0\n      dup1\n      revert\n    tag_149:\n        /* \"contracts/ddddd.sol\":4050:4058  isDoctor */\n      0x7\n        /* \"contracts/ddddd.sol\":4050:4067  isDoctor[_doctor] */\n      0x0\n        /* \"contracts/ddddd.sol\":4059:4066  _doctor */\n      dup11\n        /* \"contracts/ddddd.sol\":4050:4067  isDoctor[_doctor] */\n      0xffffffffffffffffffffffffffffffffffffffff\n      and\n      0xffffffffffffffffffffffffffffffffffffffff\n      and\n      dup2\n      mstore\n      0x20\n      add\n      swap1\n      dup2\n      mstore\n      0x20\n      add\n      0x0\n      keccak256\n      0x0\n      swap1\n      sload\n      swap1\n      0x100\n      exp\n      swap1\n      div\n      0xff\n      and\n        /* \"contracts/ddddd.sol\":4042:4068  require(isDoctor[_doctor]) */\n      iszero\n      iszero\n      tag_150\n      jumpi\n      0x0\n      dup1\n      revert\n    tag_150:\n        /* \"contracts/ddddd.sol\":4087:4093  doctor */\n      0x4\n        /* \"contracts/ddddd.sol\":4087:4102  doctor[_doctor] */\n      0x0\n        /* \"contracts/ddddd.sol\":4094:4101  _doctor */\n      dup11\n        /* \"contracts/ddddd.sol\":4087:4102  doctor[_doctor] */\n      0xffffffffffffffffffffffffffffffffffffffff\n      and\n      0xffffffffffffffffffffffffffffffffffffffff\n      and\n      dup2\n      mstore\n      0x20\n      add\n      swap1\n      dup2\n      mstore\n      0x20\n      add\n      0x0\n      keccak256\n        /* \"contracts/ddddd.sol\":4079:4102  var d = doctor[_doctor] */\n      swap1\n      pop\n        /* \"contracts/ddddd.sol\":4133:4139  _uaeId */\n      dup8\n        /* \"contracts/ddddd.sol\":4123:4124  d */\n      dup2\n        /* \"contracts/ddddd.sol\":4123:4130  d.uaeId */\n      0x0\n      add\n        /* \"contracts/ddddd.sol\":4123:4139  d.uaeId = _uaeId */\n      swap1\n      dup1\n      mload\n      swap1\n      0x20\n      add\n      swap1\n      tag_151\n      swap3\n      swap2\n      swap1\n      jump\t// in(tag_152)\n    tag_151:\n      pop\n        /* \"contracts/ddddd.sol\":4159:4164  _name */\n      dup7\n        /* \"contracts/ddddd.sol\":4150:4151  d */\n      dup2\n        /* \"contracts/ddddd.sol\":4150:4156  d.name */\n      0x1\n      add\n        /* \"contracts/ddddd.sol\":4150:4164  d.name = _name */\n      swap1\n      dup1\n      mload\n      swap1\n      0x20\n      add\n      swap1\n      tag_153\n      swap3\n      swap2\n      swap1\n      jump\t// in(tag_152)\n    tag_153:\n      pop\n        /* \"contracts/ddddd.sol\":4185:4191  _phone */\n      dup6\n        /* \"contracts/ddddd.sol\":4175:4176  d */\n      dup2\n        /* \"contracts/ddddd.sol\":4175:4182  d.phone */\n      0x2\n      add\n        /* \"contracts/ddddd.sol\":4175:4191  d.phone = _phone */\n      swap1\n      dup1\n      mload\n      swap1\n      0x20\n      add\n      swap1\n      tag_154\n      swap3\n      swap2\n      swap1\n      jump\t// in(tag_152)\n    tag_154:\n      pop\n        /* \"contracts/ddddd.sol\":4213:4220  _gender */\n      dup5\n        /* \"contracts/ddddd.sol\":4202:4203  d */\n      dup2\n        /* \"contracts/ddddd.sol\":4202:4210  d.gender */\n      0x3\n      add\n        /* \"contracts/ddddd.sol\":4202:4220  d.gender = _gender */\n      swap1\n      dup1\n      mload\n      swap1\n      0x20\n      add\n      swap1\n      tag_155\n      swap3\n      swap2\n      swap1\n      jump\t// in(tag_152)\n    tag_155:\n      pop\n        /* \"contracts/ddddd.sol\":4239:4243  _dob */\n      dup4\n        /* \"contracts/ddddd.sol\":4231:4232  d */\n      dup2\n        /* \"contracts/ddddd.sol\":4231:4236  d.dob */\n      0x4\n      add\n        /* \"contracts/ddddd.sol\":4231:4243  d.dob = _dob */\n      swap1\n      dup1\n      mload\n      swap1\n      0x20\n      add\n      swap1\n      tag_156\n      swap3\n      swap2\n      swap1\n      jump\t// in(tag_152)\n    tag_156:\n      pop\n        /* \"contracts/ddddd.sol\":4272:4286  _qualification */\n      dup3\n        /* \"contracts/ddddd.sol\":4254:4255  d */\n      dup2\n        /* \"contracts/ddddd.sol\":4254:4269  d.qualification */\n      0x7\n      add\n        /* \"contracts/ddddd.sol\":4254:4286  d.qualification = _qualification */\n      swap1\n      dup1\n      mload\n      swap1\n      0x20\n      add\n      swap1\n      tag_157\n      swap3\n      swap2\n      swap1\n      jump\t// in(tag_152)\n    tag_157:\n      pop\n        /* \"contracts/ddddd.sol\":4307:4313  _major */\n      dup2\n        /* \"contracts/ddddd.sol\":4297:4298  d */\n      dup2\n        /* \"contracts/ddddd.sol\":4297:4304  d.major */\n      0x8\n      add\n        /* \"contracts/ddddd.sol\":4297:4313  d.major = _major */\n      swap1\n      dup1\n      mload\n      swap1\n      0x20\n      add\n      swap1\n      tag_158\n      swap3\n      swap2\n      swap1\n      jump\t// in(tag_152)\n    tag_158:\n      pop\n        /* \"contracts/ddddd.sol\":4337:4344  _doctor */\n      dup9\n        /* \"contracts/ddddd.sol\":4324:4325  d */\n      dup2\n        /* \"contracts/ddddd.sol\":4324:4334  d.eAddress */\n      0x9\n      add\n      0x0\n        /* \"contracts/ddddd.sol\":4324:4344  d.eAddress = _doctor */\n      0x100\n      exp\n      dup2\n      sload\n      dup2\n      0xffffffffffffffffffffffffffffffffffffffff\n      mul\n      not\n      and\n      swap1\n      dup4\n      0xffffffffffffffffffffffffffffffffffffffff\n      and\n      mul\n      or\n      swap1\n      sstore\n      pop\n        /* \"contracts/ddddd.sol\":3833:4352  function editDoctor(address _doctor, string _uaeId, string _name, string _phone, string _gender, string _dob, string _qualification, string _major) public {\r... */\n      pop\n      pop\n      pop\n      pop\n      pop\n      pop\n      pop\n      pop\n      pop\n      jump\t// out\n        /* \"contracts/ddddd.sol\":3064:3825  function doctorRegistration(address _doctor, string _uaeId, string _name, string _phone, string _gender, string _dob, string _qualification, string _major) public {\r... */\n    tag_61:\n        /* \"contracts/ddddd.sol\":3319:3324  var d */\n      0x0\n        /* \"contracts/ddddd.sol\":3260:3269  mohAdress */\n      0xb\n      0x0\n      swap1\n      sload\n      swap1\n      0x100\n      exp\n      swap1\n      div\n      0xffffffffffffffffffffffffffffffffffffffff\n      and\n        /* \"contracts/ddddd.sol\":3246:3269  msg.sender == mohAdress */\n      0xffffffffffffffffffffffffffffffffffffffff\n      and\n        /* \"contracts/ddddd.sol\":3246:3256  msg.sender */\n      caller\n        /* \"contracts/ddddd.sol\":3246:3269  msg.sender == mohAdress */\n      0xffffffffffffffffffffffffffffffffffffffff\n      and\n      eq\n        /* \"contracts/ddddd.sol\":3238:3270  require(msg.sender == mohAdress) */\n      iszero\n      iszero\n      tag_160\n      jumpi\n      0x0\n      dup1\n      revert\n    tag_160:\n        /* \"contracts/ddddd.sol\":3290:3298  isDoctor */\n      0x7\n        /* \"contracts/ddddd.sol\":3290:3307  isDoctor[_doctor] */\n      0x0\n        /* \"contracts/ddddd.sol\":3299:3306  _doctor */\n      dup11\n        /* \"contracts/ddddd.sol\":3290:3307  isDoctor[_doctor] */\n      0xffffffffffffffffffffffffffffffffffffffff\n      and\n      0xffffffffffffffffffffffffffffffffffffffff\n      and\n      dup2\n      mstore\n      0x20\n      add\n      swap1\n      dup2\n      mstore\n      0x20\n      add\n      0x0\n      keccak256\n      0x0\n      swap1\n      sload\n      swap1\n      0x100\n      exp\n      swap1\n      div\n      0xff\n      and\n        /* \"contracts/ddddd.sol\":3289:3307  !isDoctor[_doctor] */\n      iszero\n        /* \"contracts/ddddd.sol\":3281:3308  require(!isDoctor[_doctor]) */\n      iszero\n      iszero\n      tag_161\n      jumpi\n      0x0\n      dup1\n      revert\n    tag_161:\n        /* \"contracts/ddddd.sol\":3327:3333  doctor */\n      0x4\n        /* \"contracts/ddddd.sol\":3327:3342  doctor[_doctor] */\n      0x0\n        /* \"contracts/ddddd.sol\":3334:3341  _doctor */\n      dup11\n        /* \"contracts/ddddd.sol\":3327:3342  doctor[_doctor] */\n      0xffffffffffffffffffffffffffffffffffffffff\n      and\n      0xffffffffffffffffffffffffffffffffffffffff\n      and\n      dup2\n      mstore\n      0x20\n      add\n      swap1\n      dup2\n      mstore\n      0x20\n      add\n      0x0\n      keccak256\n        /* \"contracts/ddddd.sol\":3319:3342  var d = doctor[_doctor] */\n      swap1\n      pop\n        /* \"contracts/ddddd.sol\":3373:3379  _uaeId */\n      dup8\n        /* \"contracts/ddddd.sol\":3363:3364  d */\n      dup2\n        /* \"contracts/ddddd.sol\":3363:3370  d.uaeId */\n      0x0\n      add\n        /* \"contracts/ddddd.sol\":3363:3379  d.uaeId = _uaeId */\n      swap1\n      dup1\n      mload\n      swap1\n      0x20\n      add\n      swap1\n      tag_162\n      swap3\n      swap2\n      swap1\n      jump\t// in(tag_152)\n    tag_162:\n      pop\n        /* \"contracts/ddddd.sol\":3399:3404  _name */\n      dup7\n        /* \"contracts/ddddd.sol\":3390:3391  d */\n      dup2\n        /* \"contracts/ddddd.sol\":3390:3396  d.name */\n      0x1\n      add\n        /* \"contracts/ddddd.sol\":3390:3404  d.name = _name */\n      swap1\n      dup1\n      mload\n      swap1\n      0x20\n      add\n      swap1\n      tag_163\n      swap3\n      swap2\n      swap1\n      jump\t// in(tag_152)\n    tag_163:\n      pop\n        /* \"contracts/ddddd.sol\":3425:3431  _phone */\n      dup6\n        /* \"contracts/ddddd.sol\":3415:3416  d */\n      dup2\n        /* \"contracts/ddddd.sol\":3415:3422  d.phone */\n      0x2\n      add\n        /* \"contracts/ddddd.sol\":3415:3431  d.phone = _phone */\n      swap1\n      dup1\n      mload\n      swap1\n      0x20\n      add\n      swap1\n      tag_164\n      swap3\n      swap2\n      swap1\n      jump\t// in(tag_152)\n    tag_164:\n      pop\n        /* \"contracts/ddddd.sol\":3453:3460  _gender */\n      dup5\n        /* \"contracts/ddddd.sol\":3442:3443  d */\n      dup2\n        /* \"contracts/ddddd.sol\":3442:3450  d.gender */\n      0x3\n      add\n        /* \"contracts/ddddd.sol\":3442:3460  d.gender = _gender */\n      swap1\n      dup1\n      mload\n      swap1\n      0x20\n      add\n      swap1\n      tag_165\n      swap3\n      swap2\n      swap1\n      jump\t// in(tag_152)\n    tag_165:\n      pop\n        /* \"contracts/ddddd.sol\":3479:3483  _dob */\n      dup4\n        /* \"contracts/ddddd.sol\":3471:3472  d */\n      dup2\n        /* \"contracts/ddddd.sol\":3471:3476  d.dob */\n      0x4\n      add\n        /* \"contracts/ddddd.sol\":3471:3483  d.dob = _dob */\n      swap1\n      dup1\n      mload\n      swap1\n      0x20\n      add\n      swap1\n      tag_166\n      swap3\n      swap2\n      swap1\n      jump\t// in(tag_152)\n    tag_166:\n      pop\n        /* \"contracts/ddddd.sol\":3512:3526  _qualification */\n      dup3\n        /* \"contracts/ddddd.sol\":3494:3495  d */\n      dup2\n        /* \"contracts/ddddd.sol\":3494:3509  d.qualification */\n      0x7\n      add\n        /* \"contracts/ddddd.sol\":3494:3526  d.qualification = _qualification */\n      swap1\n      dup1\n      mload\n      swap1\n      0x20\n      add\n      swap1\n      tag_167\n      swap3\n      swap2\n      swap1\n      jump\t// in(tag_152)\n    tag_167:\n      pop\n        /* \"contracts/ddddd.sol\":3547:3553  _major */\n      dup2\n        /* \"contracts/ddddd.sol\":3537:3538  d */\n      dup2\n        /* \"contracts/ddddd.sol\":3537:3544  d.major */\n      0x8\n      add\n        /* \"contracts/ddddd.sol\":3537:3553  d.major = _major */\n      swap1\n      dup1\n      mload\n      swap1\n      0x20\n      add\n      swap1\n      tag_168\n      swap3\n      swap2\n      swap1\n      jump\t// in(tag_152)\n    tag_168:\n      pop\n        /* \"contracts/ddddd.sol\":3577:3584  _doctor */\n      dup9\n        /* \"contracts/ddddd.sol\":3564:3565  d */\n      dup2\n        /* \"contracts/ddddd.sol\":3564:3574  d.eAddress */\n      0x9\n      add\n      0x0\n        /* \"contracts/ddddd.sol\":3564:3584  d.eAddress = _doctor */\n      0x100\n      exp\n      dup2\n      sload\n      dup2\n      0xffffffffffffffffffffffffffffffffffffffff\n      mul\n      not\n      and\n      swap1\n      dup4\n      0xffffffffffffffffffffffffffffffffffffffff\n      and\n      mul\n      or\n      swap1\n      sstore\n      pop\n        /* \"contracts/ddddd.sol\":3604:3619  block.timestamp */\n      timestamp\n        /* \"contracts/ddddd.sol\":3595:3596  d */\n      dup2\n        /* \"contracts/ddddd.sol\":3595:3601  d.date */\n      0xa\n      add\n        /* \"contracts/ddddd.sol\":3595:3619  d.date = block.timestamp */\n      dup2\n      swap1\n      sstore\n      pop\n        /* \"contracts/ddddd.sol\":3640:3650  doctorList */\n      0x2\n        /* \"contracts/ddddd.sol\":3656:3663  _doctor */\n      dup10\n        /* \"contracts/ddddd.sol\":3640:3664  doctorList.push(_doctor) */\n      swap1\n      dup1\n        /* \"--CODEGEN--\":39:40   */\n      0x1\n        /* \"--CODEGEN--\":33:36   */\n      dup2\n        /* \"--CODEGEN--\":27:37   */\n      sload\n        /* \"--CODEGEN--\":23:41   */\n      add\n        /* \"--CODEGEN--\":57:67   */\n      dup1\n        /* \"--CODEGEN--\":52:55   */\n      dup3\n        /* \"--CODEGEN--\":45:68   */\n      sstore\n        /* \"--CODEGEN--\":79:89   */\n      dup1\n        /* \"--CODEGEN--\":72:89   */\n      swap2\n      pop\n        /* \"--CODEGEN--\":0:93   */\n      pop\n        /* \"contracts/ddddd.sol\":3640:3664  doctorList.push(_doctor) */\n      swap1\n      0x1\n      dup3\n      sub\n      swap1\n      0x0\n      mstore\n      keccak256(0x0, 0x20)\n      add\n      0x0\n      swap1\n      swap2\n      swap3\n      swap1\n      swap2\n      swap1\n      swap2\n      0x100\n      exp\n      dup2\n      sload\n      dup2\n      0xffffffffffffffffffffffffffffffffffffffff\n      mul\n      not\n      and\n      swap1\n      dup4\n      0xffffffffffffffffffffffffffffffffffffffff\n      and\n      mul\n      or\n      swap1\n      sstore\n      pop\n      pop\n        /* \"contracts/ddddd.sol\":3695:3699  true */\n      0x1\n        /* \"contracts/ddddd.sol\":3675:3683  isDoctor */\n      0x7\n        /* \"contracts/ddddd.sol\":3675:3692  isDoctor[_doctor] */\n      0x0\n        /* \"contracts/ddddd.sol\":3684:3691  _doctor */\n      dup12\n        /* \"contracts/ddddd.sol\":3675:3692  isDoctor[_doctor] */\n      0xffffffffffffffffffffffffffffffffffffffff\n      and\n      0xffffffffffffffffffffffffffffffffffffffff\n      and\n      dup2\n      mstore\n      0x20\n      add\n      swap1\n      dup2\n      mstore\n      0x20\n      add\n      0x0\n      keccak256\n      0x0\n        /* \"contracts/ddddd.sol\":3675:3699  isDoctor[_doctor] = true */\n      0x100\n      exp\n      dup2\n      sload\n      dup2\n      0xff\n      mul\n      not\n      and\n      swap1\n      dup4\n      iszero\n      iszero\n      mul\n      or\n      swap1\n      sstore\n      pop\n        /* \"contracts/ddddd.sol\":3741:3745  true */\n      0x1\n        /* \"contracts/ddddd.sol\":3710:3720  isApproved */\n      0x5\n        /* \"contracts/ddddd.sol\":3710:3729  isApproved[_doctor] */\n      0x0\n        /* \"contracts/ddddd.sol\":3721:3728  _doctor */\n      dup12\n        /* \"contracts/ddddd.sol\":3710:3729  isApproved[_doctor] */\n      0xffffffffffffffffffffffffffffffffffffffff\n      and\n      0xffffffffffffffffffffffffffffffffffffffff\n      and\n      dup2\n      mstore\n      0x20\n      add\n      swap1\n      dup2\n      mstore\n      0x20\n      add\n      0x0\n      keccak256\n        /* \"contracts/ddddd.sol\":3710:3738  isApproved[_doctor][_doctor] */\n      0x0\n        /* \"contracts/ddddd.sol\":3730:3737  _doctor */\n      dup12\n        /* \"contracts/ddddd.sol\":3710:3738  isApproved[_doctor][_doctor] */\n      0xffffffffffffffffffffffffffffffffffffffff\n      and\n      0xffffffffffffffffffffffffffffffffffffffff\n      and\n      dup2\n      mstore\n      0x20\n      add\n      swap1\n      dup2\n      mstore\n      0x20\n      add\n      0x0\n      keccak256\n      0x0\n        /* \"contracts/ddddd.sol\":3710:3745  isApproved[_doctor][_doctor] = true */\n      0x100\n      exp\n      dup2\n      sload\n      dup2\n      0xff\n      mul\n      not\n      and\n      swap1\n      dup4\n      iszero\n      iszero\n      mul\n      or\n      swap1\n      sstore\n      pop\n        /* \"contracts/ddddd.sol\":3789:3793  true */\n      0x1\n        /* \"contracts/ddddd.sol\":3756:3766  isApproved */\n      0x5\n        /* \"contracts/ddddd.sol\":3756:3775  isApproved[_doctor] */\n      0x0\n        /* \"contracts/ddddd.sol\":3767:3774  _doctor */\n      dup12\n        /* \"contracts/ddddd.sol\":3756:3775  isApproved[_doctor] */\n      0xffffffffffffffffffffffffffffffffffffffff\n      and\n      0xffffffffffffffffffffffffffffffffffffffff\n      and\n      dup2\n      mstore\n      0x20\n      add\n      swap1\n      dup2\n      mstore\n      0x20\n      add\n      0x0\n      keccak256\n        /* \"contracts/ddddd.sol\":3756:3786  isApproved[_doctor][mohAdress] */\n      0x0\n        /* \"contracts/ddddd.sol\":3776:3785  mohAdress */\n      0xb\n      0x0\n      swap1\n      sload\n      swap1\n      0x100\n      exp\n      swap1\n      div\n      0xffffffffffffffffffffffffffffffffffffffff\n      and\n        /* \"contracts/ddddd.sol\":3756:3786  isApproved[_doctor][mohAdress] */\n      0xffffffffffffffffffffffffffffffffffffffff\n      and\n      0xffffffffffffffffffffffffffffffffffffffff\n      and\n      dup2\n      mstore\n      0x20\n      add\n      swap1\n      dup2\n      mstore\n      0x20\n      add\n      0x0\n      keccak256\n      0x0\n        /* \"contracts/ddddd.sol\":3756:3793  isApproved[_doctor][mohAdress] = true */\n      0x100\n      exp\n      dup2\n      sload\n      dup2\n      0xff\n      mul\n      not\n      and\n      swap1\n      dup4\n      iszero\n      iszero\n      mul\n      or\n      swap1\n      sstore\n      pop\n        /* \"contracts/ddddd.sol\":3804:3815  doctorCount */\n      0x9\n      0x0\n        /* \"contracts/ddddd.sol\":3804:3817  doctorCount++ */\n      dup2\n      sload\n      dup1\n      swap3\n      swap2\n      swap1\n      0x1\n      add\n      swap2\n      swap1\n      pop\n      sstore\n      pop\n        /* \"contracts/ddddd.sol\":3064:3825  function doctorRegistration(address _doctor, string _uaeId, string _name, string _phone, string _gender, string _dob, string _qualification, string _major) public {\r... */\n      pop\n      pop\n      pop\n      pop\n      pop\n      pop\n      pop\n      pop\n      pop\n      jump\t// out\n        /* \"contracts/ddddd.sol\":6076:6185  function getPermissionGrantedCount() public view returns(uint256) {\r... */\n    tag_64:\n        /* \"contracts/ddddd.sol\":6133:6140  uint256 */\n      0x0\n        /* \"contracts/ddddd.sol\":6160:6177  permissionCounter */\n      sload(0xa)\n        /* \"contracts/ddddd.sol\":6153:6177  return permissionCounter */\n      swap1\n      pop\n        /* \"contracts/ddddd.sol\":6076:6185  function getPermissionGrantedCount() public view returns(uint256) {\r... */\n      swap1\n      jump\t// out\n        /* \"contracts/ddddd.sol\":4362:4543  function givePermission(address _address) public returns(bool success) {\r... */\n    tag_69:\n        /* \"contracts/ddddd.sol\":4419:4431  bool success */\n      0x0\n        /* \"contracts/ddddd.sol\":4479:4483  true */\n      0x1\n        /* \"contracts/ddddd.sol\":4444:4454  isApproved */\n      0x5\n        /* \"contracts/ddddd.sol\":4444:4466  isApproved[msg.sender] */\n      0x0\n        /* \"contracts/ddddd.sol\":4455:4465  msg.sender */\n      caller\n        /* \"contracts/ddddd.sol\":4444:4466  isApproved[msg.sender] */\n      0xffffffffffffffffffffffffffffffffffffffff\n      and\n      0xffffffffffffffffffffffffffffffffffffffff\n      and\n      dup2\n      mstore\n      0x20\n      add\n      swap1\n      dup2\n      mstore\n      0x20\n      add\n      0x0\n      keccak256\n        /* \"contracts/ddddd.sol\":4444:4476  isApproved[msg.sender][_address] */\n      0x0\n        /* \"contracts/ddddd.sol\":4467:4475  _address */\n      dup5\n        /* \"contracts/ddddd.sol\":4444:4476  isApproved[msg.sender][_address] */\n      0xffffffffffffffffffffffffffffffffffffffff\n      and\n      0xffffffffffffffffffffffffffffffffffffffff\n      and\n      dup2\n      mstore\n      0x20\n      add\n      swap1\n      dup2\n      mstore\n      0x20\n      add\n      0x0\n      keccak256\n      0x0\n        /* \"contracts/ddddd.sol\":4444:4483  isApproved[msg.sender][_address] = true */\n      0x100\n      exp\n      dup2\n      sload\n      dup2\n      0xff\n      mul\n      not\n      and\n      swap1\n      dup4\n      iszero\n      iszero\n      mul\n      or\n      swap1\n      sstore\n      pop\n        /* \"contracts/ddddd.sol\":4494:4511  permissionCounter */\n      0xa\n      0x0\n        /* \"contracts/ddddd.sol\":4494:4513  permissionCounter++ */\n      dup2\n      sload\n      dup1\n      swap3\n      swap2\n      swap1\n      0x1\n      add\n      swap2\n      swap1\n      pop\n      sstore\n      pop\n        /* \"contracts/ddddd.sol\":4531:4535  true */\n      0x1\n        /* \"contracts/ddddd.sol\":4524:4535  return true */\n      swap1\n      pop\n        /* \"contracts/ddddd.sol\":4362:4543  function givePermission(address _address) public returns(bool success) {\r... */\n      swap2\n      swap1\n      pop\n      jump\t// out\n        /* \"contracts/ddddd.sol\":1314:2423  function userRegistration(address _user, string _uaeId, string _name, string _phone, string _gender, string _dob, string _addr, string _email, string _nomineeName, string _nomineeContact) public {\r... */\n    tag_75:\n        /* \"contracts/ddddd.sol\":1597:1602  var u */\n      0x0\n        /* \"contracts/ddddd.sol\":1542:1551  mohAdress */\n      0xb\n      0x0\n      swap1\n      sload\n      swap1\n      0x100\n      exp\n      swap1\n      div\n      0xffffffffffffffffffffffffffffffffffffffff\n      and\n        /* \"contracts/ddddd.sol\":1528:1551  msg.sender == mohAdress */\n      0xffffffffffffffffffffffffffffffffffffffff\n      and\n        /* \"contracts/ddddd.sol\":1528:1538  msg.sender */\n      caller\n        /* \"contracts/ddddd.sol\":1528:1551  msg.sender == mohAdress */\n      0xffffffffffffffffffffffffffffffffffffffff\n      and\n      eq\n        /* \"contracts/ddddd.sol\":1520:1552  require(msg.sender == mohAdress) */\n      iszero\n      iszero\n      tag_173\n      jumpi\n      0x0\n      dup1\n      revert\n    tag_173:\n        /* \"contracts/ddddd.sol\":1572:1578  isUser */\n      0x6\n        /* \"contracts/ddddd.sol\":1572:1585  isUser[_user] */\n      0x0\n        /* \"contracts/ddddd.sol\":1579:1584  _user */\n      dup13\n        /* \"contracts/ddddd.sol\":1572:1585  isUser[_user] */\n      0xffffffffffffffffffffffffffffffffffffffff\n      and\n      0xffffffffffffffffffffffffffffffffffffffff\n      and\n      dup2\n      mstore\n      0x20\n      add\n      swap1\n      dup2\n      mstore\n      0x20\n      add\n      0x0\n      keccak256\n      0x0\n      swap1\n      sload\n      swap1\n      0x100\n      exp\n      swap1\n      div\n      0xff\n      and\n        /* \"contracts/ddddd.sol\":1571:1585  !isUser[_user] */\n      iszero\n        /* \"contracts/ddddd.sol\":1563:1586  require(!isUser[_user]) */\n      iszero\n      iszero\n      tag_174\n      jumpi\n      0x0\n      dup1\n      revert\n    tag_174:\n        /* \"contracts/ddddd.sol\":1605:1609  user */\n      0x3\n        /* \"contracts/ddddd.sol\":1605:1616  user[_user] */\n      0x0\n        /* \"contracts/ddddd.sol\":1610:1615  _user */\n      dup13\n        /* \"contracts/ddddd.sol\":1605:1616  user[_user] */\n      0xffffffffffffffffffffffffffffffffffffffff\n      and\n      0xffffffffffffffffffffffffffffffffffffffff\n      and\n      dup2\n      mstore\n      0x20\n      add\n      swap1\n      dup2\n      mstore\n      0x20\n      add\n      0x0\n      keccak256\n        /* \"contracts/ddddd.sol\":1597:1616  var u = user[_user] */\n      swap1\n      pop\n        /* \"contracts/ddddd.sol\":1647:1653  _uaeId */\n      dup10\n        /* \"contracts/ddddd.sol\":1637:1638  u */\n      dup2\n        /* \"contracts/ddddd.sol\":1637:1644  u.uaeId */\n      0x0\n      add\n        /* \"contracts/ddddd.sol\":1637:1653  u.uaeId = _uaeId */\n      swap1\n      dup1\n      mload\n      swap1\n      0x20\n      add\n      swap1\n      tag_175\n      swap3\n      swap2\n      swap1\n      jump\t// in(tag_152)\n    tag_175:\n      pop\n        /* \"contracts/ddddd.sol\":1673:1678  _name */\n      dup9\n        /* \"contracts/ddddd.sol\":1664:1665  u */\n      dup2\n        /* \"contracts/ddddd.sol\":1664:1670  u.name */\n      0x1\n      add\n        /* \"contracts/ddddd.sol\":1664:1678  u.name = _name */\n      swap1\n      dup1\n      mload\n      swap1\n      0x20\n      add\n      swap1\n      tag_176\n      swap3\n      swap2\n      swap1\n      jump\t// in(tag_152)\n    tag_176:\n      pop\n        /* \"contracts/ddddd.sol\":1699:1705  _phone */\n      dup8\n        /* \"contracts/ddddd.sol\":1689:1690  u */\n      dup2\n        /* \"contracts/ddddd.sol\":1689:1696  u.phone */\n      0x2\n      add\n        /* \"contracts/ddddd.sol\":1689:1705  u.phone = _phone */\n      swap1\n      dup1\n      mload\n      swap1\n      0x20\n      add\n      swap1\n      tag_177\n      swap3\n      swap2\n      swap1\n      jump\t// in(tag_152)\n    tag_177:\n      pop\n        /* \"contracts/ddddd.sol\":1727:1734  _gender */\n      dup7\n        /* \"contracts/ddddd.sol\":1716:1717  u */\n      dup2\n        /* \"contracts/ddddd.sol\":1716:1724  u.gender */\n      0x3\n      add\n        /* \"contracts/ddddd.sol\":1716:1734  u.gender = _gender */\n      swap1\n      dup1\n      mload\n      swap1\n      0x20\n      add\n      swap1\n      tag_178\n      swap3\n      swap2\n      swap1\n      jump\t// in(tag_152)\n    tag_178:\n      pop\n        /* \"contracts/ddddd.sol\":1753:1757  _dob */\n      dup6\n        /* \"contracts/ddddd.sol\":1745:1746  u */\n      dup2\n        /* \"contracts/ddddd.sol\":1745:1750  u.dob */\n      0x4\n      add\n        /* \"contracts/ddddd.sol\":1745:1757  u.dob = _dob */\n      swap1\n      dup1\n      mload\n      swap1\n      0x20\n      add\n      swap1\n      tag_179\n      swap3\n      swap2\n      swap1\n      jump\t// in(tag_152)\n    tag_179:\n      pop\n        /* \"contracts/ddddd.sol\":1777:1782  _addr */\n      dup5\n        /* \"contracts/ddddd.sol\":1768:1769  u */\n      dup2\n        /* \"contracts/ddddd.sol\":1768:1774  u.addr */\n      0x5\n      add\n        /* \"contracts/ddddd.sol\":1768:1782  u.addr = _addr */\n      swap1\n      dup1\n      mload\n      swap1\n      0x20\n      add\n      swap1\n      tag_180\n      swap3\n      swap2\n      swap1\n      jump\t// in(tag_152)\n    tag_180:\n      pop\n        /* \"contracts/ddddd.sol\":1803:1809  _email */\n      dup4\n        /* \"contracts/ddddd.sol\":1793:1794  u */\n      dup2\n        /* \"contracts/ddddd.sol\":1793:1800  u.email */\n      0x6\n      add\n        /* \"contracts/ddddd.sol\":1793:1809  u.email = _email */\n      swap1\n      dup1\n      mload\n      swap1\n      0x20\n      add\n      swap1\n      tag_181\n      swap3\n      swap2\n      swap1\n      jump\t// in(tag_152)\n    tag_181:\n      pop\n        /* \"contracts/ddddd.sol\":1836:1848  _nomineeName */\n      dup3\n        /* \"contracts/ddddd.sol\":1820:1821  u */\n      dup2\n        /* \"contracts/ddddd.sol\":1820:1833  u.nomineeName */\n      0x7\n      add\n        /* \"contracts/ddddd.sol\":1820:1848  u.nomineeName = _nomineeName */\n      swap1\n      dup1\n      mload\n      swap1\n      0x20\n      add\n      swap1\n      tag_182\n      swap3\n      swap2\n      swap1\n      jump\t// in(tag_152)\n    tag_182:\n      pop\n        /* \"contracts/ddddd.sol\":1878:1893  _nomineeContact */\n      dup2\n        /* \"contracts/ddddd.sol\":1859:1860  u */\n      dup2\n        /* \"contracts/ddddd.sol\":1859:1875  u.nomineeContact */\n      0x8\n      add\n        /* \"contracts/ddddd.sol\":1859:1893  u.nomineeContact = _nomineeContact */\n      swap1\n      dup1\n      mload\n      swap1\n      0x20\n      add\n      swap1\n      tag_183\n      swap3\n      swap2\n      swap1\n      jump\t// in(tag_152)\n    tag_183:\n      pop\n        /* \"contracts/ddddd.sol\":1917:1922  _user */\n      dup11\n        /* \"contracts/ddddd.sol\":1904:1905  u */\n      dup2\n        /* \"contracts/ddddd.sol\":1904:1914  u.eAddress */\n      0x9\n      add\n      0x0\n        /* \"contracts/ddddd.sol\":1904:1922  u.eAddress = _user */\n      0x100\n      exp\n      dup2\n      sload\n      dup2\n      0xffffffffffffffffffffffffffffffffffffffff\n      mul\n      not\n      and\n      swap1\n      dup4\n      0xffffffffffffffffffffffffffffffffffffffff\n      and\n      mul\n      or\n      swap1\n      sstore\n      pop\n        /* \"contracts/ddddd.sol\":1942:1957  block.timestamp */\n      timestamp\n        /* \"contracts/ddddd.sol\":1933:1934  u */\n      dup2\n        /* \"contracts/ddddd.sol\":1933:1939  u.date */\n      0xa\n      add\n        /* \"contracts/ddddd.sol\":1933:1957  u.date = block.timestamp */\n      dup2\n      swap1\n      sstore\n      pop\n        /* \"contracts/ddddd.sol\":1978:1986  userList */\n      0x1\n        /* \"contracts/ddddd.sol\":1992:1997  _user */\n      dup12\n        /* \"contracts/ddddd.sol\":1978:1998  userList.push(_user) */\n      swap1\n      dup1\n        /* \"--CODEGEN--\":39:40   */\n      0x1\n        /* \"--CODEGEN--\":33:36   */\n      dup2\n        /* \"--CODEGEN--\":27:37   */\n      sload\n        /* \"--CODEGEN--\":23:41   */\n      add\n        /* \"--CODEGEN--\":57:67   */\n      dup1\n        /* \"--CODEGEN--\":52:55   */\n      dup3\n        /* \"--CODEGEN--\":45:68   */\n      sstore\n        /* \"--CODEGEN--\":79:89   */\n      dup1\n        /* \"--CODEGEN--\":72:89   */\n      swap2\n      pop\n        /* \"--CODEGEN--\":0:93   */\n      pop\n        /* \"contracts/ddddd.sol\":1978:1998  userList.push(_user) */\n      swap1\n      0x1\n      dup3\n      sub\n      swap1\n      0x0\n      mstore\n      keccak256(0x0, 0x20)\n      add\n      0x0\n      swap1\n      swap2\n      swap3\n      swap1\n      swap2\n      swap1\n      swap2\n      0x100\n      exp\n      dup2\n      sload\n      dup2\n      0xffffffffffffffffffffffffffffffffffffffff\n      mul\n      not\n      and\n      swap1\n      dup4\n      0xffffffffffffffffffffffffffffffffffffffff\n      and\n      mul\n      or\n      swap1\n      sstore\n      pop\n      pop\n        /* \"contracts/ddddd.sol\":2025:2029  true */\n      0x1\n        /* \"contracts/ddddd.sol\":2009:2015  isUser */\n      0x6\n        /* \"contracts/ddddd.sol\":2009:2022  isUser[_user] */\n      0x0\n        /* \"contracts/ddddd.sol\":2016:2021  _user */\n      dup14\n        /* \"contracts/ddddd.sol\":2009:2022  isUser[_user] */\n      0xffffffffffffffffffffffffffffffffffffffff\n      and\n      0xffffffffffffffffffffffffffffffffffffffff\n      and\n      dup2\n      mstore\n      0x20\n      add\n      swap1\n      dup2\n      mstore\n      0x20\n      add\n      0x0\n      keccak256\n      0x0\n        /* \"contracts/ddddd.sol\":2009:2029  isUser[_user] = true */\n      0x100\n      exp\n      dup2\n      sload\n      dup2\n      0xff\n      mul\n      not\n      and\n      swap1\n      dup4\n      iszero\n      iszero\n      mul\n      or\n      swap1\n      sstore\n      pop\n        /* \"contracts/ddddd.sol\":2067:2071  true */\n      0x1\n        /* \"contracts/ddddd.sol\":2040:2050  isApproved */\n      0x5\n        /* \"contracts/ddddd.sol\":2040:2057  isApproved[_user] */\n      0x0\n        /* \"contracts/ddddd.sol\":2051:2056  _user */\n      dup14\n        /* \"contracts/ddddd.sol\":2040:2057  isApproved[_user] */\n      0xffffffffffffffffffffffffffffffffffffffff\n      and\n      0xffffffffffffffffffffffffffffffffffffffff\n      and\n      dup2\n      mstore\n      0x20\n      add\n      swap1\n      dup2\n      mstore\n      0x20\n      add\n      0x0\n      keccak256\n        /* \"contracts/ddddd.sol\":2040:2064  isApproved[_user][_user] */\n      0x0\n        /* \"contracts/ddddd.sol\":2058:2063  _user */\n      dup14\n        /* \"contracts/ddddd.sol\":2040:2064  isApproved[_user][_user] */\n      0xffffffffffffffffffffffffffffffffffffffff\n      and\n      0xffffffffffffffffffffffffffffffffffffffff\n      and\n      dup2\n      mstore\n      0x20\n      add\n      swap1\n      dup2\n      mstore\n      0x20\n      add\n      0x0\n      keccak256\n      0x0\n        /* \"contracts/ddddd.sol\":2040:2071  isApproved[_user][_user] = true */\n      0x100\n      exp\n      dup2\n      sload\n      dup2\n      0xff\n      mul\n      not\n      and\n      swap1\n      dup4\n      iszero\n      iszero\n      mul\n      or\n      swap1\n      sstore\n      pop\n        /* \"contracts/ddddd.sol\":2113:2117  true */\n      0x1\n        /* \"contracts/ddddd.sol\":2082:2092  isApproved */\n      0x5\n        /* \"contracts/ddddd.sol\":2082:2099  isApproved[_user] */\n      0x0\n        /* \"contracts/ddddd.sol\":2093:2098  _user */\n      dup14\n        /* \"contracts/ddddd.sol\":2082:2099  isApproved[_user] */\n      0xffffffffffffffffffffffffffffffffffffffff\n      and\n      0xffffffffffffffffffffffffffffffffffffffff\n      and\n      dup2\n      mstore\n      0x20\n      add\n      swap1\n      dup2\n      mstore\n      0x20\n      add\n      0x0\n      keccak256\n        /* \"contracts/ddddd.sol\":2082:2110  isApproved[_user][mohAdress] */\n      0x0\n        /* \"contracts/ddddd.sol\":2100:2109  mohAdress */\n      0xb\n      0x0\n      swap1\n      sload\n      swap1\n      0x100\n      exp\n      swap1\n      div\n      0xffffffffffffffffffffffffffffffffffffffff\n      and\n        /* \"contracts/ddddd.sol\":2082:2110  isApproved[_user][mohAdress] */\n      0xffffffffffffffffffffffffffffffffffffffff\n      and\n      0xffffffffffffffffffffffffffffffffffffffff\n      and\n      dup2\n      mstore\n      0x20\n      add\n      swap1\n      dup2\n      mstore\n      0x20\n      add\n      0x0\n      keccak256\n      0x0\n        /* \"contracts/ddddd.sol\":2082:2117  isApproved[_user][mohAdress] = true */\n      0x100\n      exp\n      dup2\n      sload\n      dup2\n      0xff\n      mul\n      not\n      and\n      swap1\n      dup4\n      iszero\n      iszero\n      mul\n      or\n      swap1\n      sstore\n      pop\n        /* \"contracts/ddddd.sol\":2128:2137  userCount */\n      0x8\n      0x0\n        /* \"contracts/ddddd.sol\":2128:2139  userCount++ */\n      dup2\n      sload\n      dup1\n      swap3\n      swap2\n      swap1\n      0x1\n      add\n      swap2\n      swap1\n      pop\n      sstore\n      pop\n        /* \"contracts/ddddd.sol\":1314:2423  function userRegistration(address _user, string _uaeId, string _name, string _phone, string _gender, string _dob, string _addr, string _email, string _nomineeName, string _nomineeContact) public {\r... */\n      pop\n      pop\n      pop\n      pop\n      pop\n      pop\n      pop\n      pop\n      pop\n      pop\n      pop\n      jump\t// out\n        /* \"contracts/ddddd.sol\":2447:3056  function editUser(address _user, string _uaeId, string _name, string _phone, string _gender, string _dob, string _addr, string _email, string _nomineeName, string _nomineeContact) public {\r... */\n    tag_79:\n        /* \"contracts/ddddd.sol\":2721:2726  var u */\n      0x0\n        /* \"contracts/ddddd.sol\":2667:2676  mohAdress */\n      0xb\n      0x0\n      swap1\n      sload\n      swap1\n      0x100\n      exp\n      swap1\n      div\n      0xffffffffffffffffffffffffffffffffffffffff\n      and\n        /* \"contracts/ddddd.sol\":2653:2676  msg.sender == mohAdress */\n      0xffffffffffffffffffffffffffffffffffffffff\n      and\n        /* \"contracts/ddddd.sol\":2653:2663  msg.sender */\n      caller\n        /* \"contracts/ddddd.sol\":2653:2676  msg.sender == mohAdress */\n      0xffffffffffffffffffffffffffffffffffffffff\n      and\n      eq\n        /* \"contracts/ddddd.sol\":2645:2677  require(msg.sender == mohAdress) */\n      iszero\n      iszero\n      tag_186\n      jumpi\n      0x0\n      dup1\n      revert\n    tag_186:\n        /* \"contracts/ddddd.sol\":2696:2702  isUser */\n      0x6\n        /* \"contracts/ddddd.sol\":2696:2709  isUser[_user] */\n      0x0\n        /* \"contracts/ddddd.sol\":2703:2708  _user */\n      dup13\n        /* \"contracts/ddddd.sol\":2696:2709  isUser[_user] */\n      0xffffffffffffffffffffffffffffffffffffffff\n      and\n      0xffffffffffffffffffffffffffffffffffffffff\n      and\n      dup2\n      mstore\n      0x20\n      add\n      swap1\n      dup2\n      mstore\n      0x20\n      add\n      0x0\n      keccak256\n      0x0\n      swap1\n      sload\n      swap1\n      0x100\n      exp\n      swap1\n      div\n      0xff\n      and\n        /* \"contracts/ddddd.sol\":2688:2710  require(isUser[_user]) */\n      iszero\n      iszero\n      tag_187\n      jumpi\n      0x0\n      dup1\n      revert\n    tag_187:\n        /* \"contracts/ddddd.sol\":2729:2733  user */\n      0x3\n        /* \"contracts/ddddd.sol\":2729:2740  user[_user] */\n      0x0\n        /* \"contracts/ddddd.sol\":2734:2739  _user */\n      dup13\n        /* \"contracts/ddddd.sol\":2729:2740  user[_user] */\n      0xffffffffffffffffffffffffffffffffffffffff\n      and\n      0xffffffffffffffffffffffffffffffffffffffff\n      and\n      dup2\n      mstore\n      0x20\n      add\n      swap1\n      dup2\n      mstore\n      0x20\n      add\n      0x0\n      keccak256\n        /* \"contracts/ddddd.sol\":2721:2740  var u = user[_user] */\n      swap1\n      pop\n        /* \"contracts/ddddd.sol\":2771:2777  _uaeId */\n      dup10\n        /* \"contracts/ddddd.sol\":2761:2762  u */\n      dup2\n        /* \"contracts/ddddd.sol\":2761:2768  u.uaeId */\n      0x0\n      add\n        /* \"contracts/ddddd.sol\":2761:2777  u.uaeId = _uaeId */\n      swap1\n      dup1\n      mload\n      swap1\n      0x20\n      add\n      swap1\n      tag_188\n      swap3\n      swap2\n      swap1\n      jump\t// in(tag_152)\n    tag_188:\n      pop\n        /* \"contracts/ddddd.sol\":2797:2802  _name */\n      dup9\n        /* \"contracts/ddddd.sol\":2788:2789  u */\n      dup2\n        /* \"contracts/ddddd.sol\":2788:2794  u.name */\n      0x1\n      add\n        /* \"contracts/ddddd.sol\":2788:2802  u.name = _name */\n      swap1\n      dup1\n      mload\n      swap1\n      0x20\n      add\n      swap1\n      tag_189\n      swap3\n      swap2\n      swap1\n      jump\t// in(tag_152)\n    tag_189:\n      pop\n        /* \"contracts/ddddd.sol\":2823:2829  _phone */\n      dup8\n        /* \"contracts/ddddd.sol\":2813:2814  u */\n      dup2\n        /* \"contracts/ddddd.sol\":2813:2820  u.phone */\n      0x2\n      add\n        /* \"contracts/ddddd.sol\":2813:2829  u.phone = _phone */\n      swap1\n      dup1\n      mload\n      swap1\n      0x20\n      add\n      swap1\n      tag_190\n      swap3\n      swap2\n      swap1\n      jump\t// in(tag_152)\n    tag_190:\n      pop\n        /* \"contracts/ddddd.sol\":2851:2858  _gender */\n      dup7\n        /* \"contracts/ddddd.sol\":2840:2841  u */\n      dup2\n        /* \"contracts/ddddd.sol\":2840:2848  u.gender */\n      0x3\n      add\n        /* \"contracts/ddddd.sol\":2840:2858  u.gender = _gender */\n      swap1\n      dup1\n      mload\n      swap1\n      0x20\n      add\n      swap1\n      tag_191\n      swap3\n      swap2\n      swap1\n      jump\t// in(tag_152)\n    tag_191:\n      pop\n        /* \"contracts/ddddd.sol\":2877:2881  _dob */\n      dup6\n        /* \"contracts/ddddd.sol\":2869:2870  u */\n      dup2\n        /* \"contracts/ddddd.sol\":2869:2874  u.dob */\n      0x4\n      add\n        /* \"contracts/ddddd.sol\":2869:2881  u.dob = _dob */\n      swap1\n      dup1\n      mload\n      swap1\n      0x20\n      add\n      swap1\n      tag_192\n      swap3\n      swap2\n      swap1\n      jump\t// in(tag_152)\n    tag_192:\n      pop\n        /* \"contracts/ddddd.sol\":2901:2906  _addr */\n      dup5\n        /* \"contracts/ddddd.sol\":2892:2893  u */\n      dup2\n        /* \"contracts/ddddd.sol\":2892:2898  u.addr */\n      0x5\n      add\n        /* \"contracts/ddddd.sol\":2892:2906  u.addr = _addr */\n      swap1\n      dup1\n      mload\n      swap1\n      0x20\n      add\n      swap1\n      tag_193\n      swap3\n      swap2\n      swap1\n      jump\t// in(tag_152)\n    tag_193:\n      pop\n        /* \"contracts/ddddd.sol\":2927:2933  _email */\n      dup4\n        /* \"contracts/ddddd.sol\":2917:2918  u */\n      dup2\n        /* \"contracts/ddddd.sol\":2917:2924  u.email */\n      0x6\n      add\n        /* \"contracts/ddddd.sol\":2917:2933  u.email = _email */\n      swap1\n      dup1\n      mload\n      swap1\n      0x20\n      add\n      swap1\n      tag_194\n      swap3\n      swap2\n      swap1\n      jump\t// in(tag_152)\n    tag_194:\n      pop\n        /* \"contracts/ddddd.sol\":2960:2972  _nomineeName */\n      dup3\n        /* \"contracts/ddddd.sol\":2944:2945  u */\n      dup2\n        /* \"contracts/ddddd.sol\":2944:2957  u.nomineeName */\n      0x7\n      add\n        /* \"contracts/ddddd.sol\":2944:2972  u.nomineeName = _nomineeName */\n      swap1\n      dup1\n      mload\n      swap1\n      0x20\n      add\n      swap1\n      tag_195\n      swap3\n      swap2\n      swap1\n      jump\t// in(tag_152)\n    tag_195:\n      pop\n        /* \"contracts/ddddd.sol\":3002:3017  _nomineeContact */\n      dup2\n        /* \"contracts/ddddd.sol\":2983:2984  u */\n      dup2\n        /* \"contracts/ddddd.sol\":2983:2999  u.nomineeContact */\n      0x8\n      add\n        /* \"contracts/ddddd.sol\":2983:3017  u.nomineeContact = _nomineeContact */\n      swap1\n      dup1\n      mload\n      swap1\n      0x20\n      add\n      swap1\n      tag_196\n      swap3\n      swap2\n      swap1\n      jump\t// in(tag_152)\n    tag_196:\n      pop\n        /* \"contracts/ddddd.sol\":3041:3046  _user */\n      dup11\n        /* \"contracts/ddddd.sol\":3028:3029  u */\n      dup2\n        /* \"contracts/ddddd.sol\":3028:3038  u.eAddress */\n      0x9\n      add\n      0x0\n        /* \"contracts/ddddd.sol\":3028:3046  u.eAddress = _user */\n      0x100\n      exp\n      dup2\n      sload\n      dup2\n      0xffffffffffffffffffffffffffffffffffffffff\n      mul\n      not\n      and\n      swap1\n      dup4\n      0xffffffffffffffffffffffffffffffffffffffff\n      and\n      mul\n      or\n      swap1\n      sstore\n      pop\n        /* \"contracts/ddddd.sol\":2447:3056  function editUser(address _user, string _uaeId, string _name, string _phone, string _gender, string _dob, string _addr, string _email, string _nomineeName, string _nomineeContact) public {\r... */\n      pop\n      pop\n      pop\n      pop\n      pop\n      pop\n      pop\n      pop\n      pop\n      pop\n      pop\n      jump\t// out\n        /* \"contracts/ddddd.sol\":1072:1102  uint256 public doctorCount = 0 */\n    tag_82:\n      sload(0x9)\n      dup2\n      jump\t// out\n        /* \"contracts/ddddd.sol\":5976:6068  function getDoctorCount() public view returns(uint256) {\r... */\n    tag_86:\n        /* \"contracts/ddddd.sol\":6022:6029  uint256 */\n      0x0\n        /* \"contracts/ddddd.sol\":6049:6060  doctorCount */\n      sload(0x9)\n        /* \"contracts/ddddd.sol\":6042:6060  return doctorCount */\n      swap1\n      pop\n        /* \"contracts/ddddd.sol\":5976:6068  function getDoctorCount() public view returns(uint256) {\r... */\n      swap1\n      jump\t// out\n        /* \"contracts/ddddd.sol\":689:709  address public owner */\n    tag_90:\n      0x0\n      dup1\n      swap1\n      sload\n      swap1\n      0x100\n      exp\n      swap1\n      div\n      0xffffffffffffffffffffffffffffffffffffffff\n      and\n      dup2\n      jump\t// out\n        /* \"contracts/ddddd.sol\":1234:1302  function ownerAddress() public {\r... */\n    tag_94:\n        /* \"contracts/ddddd.sol\":1284:1294  msg.sender */\n      caller\n        /* \"contracts/ddddd.sol\":1276:1281  owner */\n      0x0\n      dup1\n        /* \"contracts/ddddd.sol\":1276:1294  owner = msg.sender */\n      0x100\n      exp\n      dup2\n      sload\n      dup2\n      0xffffffffffffffffffffffffffffffffffffffff\n      mul\n      not\n      and\n      swap1\n      dup4\n      0xffffffffffffffffffffffffffffffffffffffff\n      and\n      mul\n      or\n      swap1\n      sstore\n      pop\n        /* \"contracts/ddddd.sol\":1234:1302  function ownerAddress() public {\r... */\n      jump\t// out\n        /* \"contracts/ddddd.sol\":716:741  address[] public userList */\n    tag_98:\n      0x1\n      dup2\n      dup2\n      sload\n      dup2\n      lt\n      iszero\n      iszero\n      tag_199\n      jumpi\n      invalid\n    tag_199:\n      swap1\n      0x0\n      mstore\n      keccak256(0x0, 0x20)\n      add\n      0x0\n      swap2\n      pop\n      sload\n      swap1\n      0x100\n      exp\n      swap1\n      div\n      0xffffffffffffffffffffffffffffffffffffffff\n      and\n      dup2\n      jump\t// out\n        /* \"contracts/ddddd.sol\":1109:1145  uint256 public permissionCounter = 0 */\n    tag_102:\n      sload(0xa)\n      dup2\n      jump\t// out\n        /* \"contracts/ddddd.sol\":4812:4901  function getDoctors() public view returns(address[]) {\r... */\n    tag_106:\n        /* \"contracts/ddddd.sol\":4854:4863  address[] */\n      0x60\n        /* \"contracts/ddddd.sol\":4883:4893  doctorList */\n      0x2\n        /* \"contracts/ddddd.sol\":4876:4893  return doctorList */\n      dup1\n      sload\n      dup1\n      0x20\n      mul\n      0x20\n      add\n      mload(0x40)\n      swap1\n      dup2\n      add\n      0x40\n      mstore\n      dup1\n      swap3\n      swap2\n      swap1\n      dup2\n      dup2\n      mstore\n      0x20\n      add\n      dup3\n      dup1\n      sload\n      dup1\n      iszero\n      tag_202\n      jumpi\n      0x20\n      mul\n      dup3\n      add\n      swap2\n      swap1\n      0x0\n      mstore\n      keccak256(0x0, 0x20)\n      swap1\n    tag_203:\n      dup2\n      0x0\n      swap1\n      sload\n      swap1\n      0x100\n      exp\n      swap1\n      div\n      0xffffffffffffffffffffffffffffffffffffffff\n      and\n      0xffffffffffffffffffffffffffffffffffffffff\n      and\n      dup2\n      mstore\n      0x20\n      add\n      swap1\n      0x1\n      add\n      swap1\n      dup1\n      dup4\n      gt\n      tag_203\n      jumpi\n    tag_202:\n      pop\n      pop\n      pop\n      pop\n      pop\n      swap1\n      pop\n        /* \"contracts/ddddd.sol\":4812:4901  function getDoctors() public view returns(address[]) {\r... */\n      swap1\n      jump\t// out\n        /* \"contracts/ddddd.sol\":5880:5968  function getUserCount() public view returns(uint256) {\r... */\n    tag_110:\n        /* \"contracts/ddddd.sol\":5924:5931  uint256 */\n      0x0\n        /* \"contracts/ddddd.sol\":5951:5960  userCount */\n      sload(0x8)\n        /* \"contracts/ddddd.sol\":5944:5960  return userCount */\n      swap1\n      pop\n        /* \"contracts/ddddd.sol\":5880:5968  function getUserCount() public view returns(uint256) {\r... */\n      swap1\n      jump\t// out\n        /* \"contracts/ddddd.sol\":1152:1221  address public mohAdress = 0xc50C6297f56b033633C30354A854b074749cd2dC */\n    tag_114:\n      0xb\n      0x0\n      swap1\n      sload\n      swap1\n      0x100\n      exp\n      swap1\n      div\n      0xffffffffffffffffffffffffffffffffffffffff\n      and\n      dup2\n      jump\t// out\n        /* \"contracts/ddddd.sol\":5570:5864  function searchDoctor(address _address) public view returns(string, string, string, string, string, string, string) {\r... */\n    tag_119:\n        /* \"contracts/ddddd.sol\":5630:5636  string */\n      0x60\n        /* \"contracts/ddddd.sol\":5638:5644  string */\n      dup1\n        /* \"contracts/ddddd.sol\":5646:5652  string */\n      0x60\n        /* \"contracts/ddddd.sol\":5654:5660  string */\n      dup1\n        /* \"contracts/ddddd.sol\":5662:5668  string */\n      0x60\n        /* \"contracts/ddddd.sol\":5670:5676  string */\n      dup1\n        /* \"contracts/ddddd.sol\":5678:5684  string */\n      0x60\n        /* \"contracts/ddddd.sol\":5735:5740  var d */\n      0x0\n        /* \"contracts/ddddd.sol\":5705:5713  isDoctor */\n      0x7\n        /* \"contracts/ddddd.sol\":5705:5723  isDoctor[_address] */\n      0x0\n        /* \"contracts/ddddd.sol\":5714:5722  _address */\n      dup11\n        /* \"contracts/ddddd.sol\":5705:5723  isDoctor[_address] */\n      0xffffffffffffffffffffffffffffffffffffffff\n      and\n      0xffffffffffffffffffffffffffffffffffffffff\n      and\n      dup2\n      mstore\n      0x20\n      add\n      swap1\n      dup2\n      mstore\n      0x20\n      add\n      0x0\n      keccak256\n      0x0\n      swap1\n      sload\n      swap1\n      0x100\n      exp\n      swap1\n      div\n      0xff\n      and\n        /* \"contracts/ddddd.sol\":5697:5724  require(isDoctor[_address]) */\n      iszero\n      iszero\n      tag_206\n      jumpi\n      0x0\n      dup1\n      revert\n    tag_206:\n        /* \"contracts/ddddd.sol\":5743:5749  doctor */\n      0x4\n        /* \"contracts/ddddd.sol\":5743:5759  doctor[_address] */\n      0x0\n        /* \"contracts/ddddd.sol\":5750:5758  _address */\n      dup11\n        /* \"contracts/ddddd.sol\":5743:5759  doctor[_address] */\n      0xffffffffffffffffffffffffffffffffffffffff\n      and\n      0xffffffffffffffffffffffffffffffffffffffff\n      and\n      dup2\n      mstore\n      0x20\n      add\n      swap1\n      dup2\n      mstore\n      0x20\n      add\n      0x0\n      keccak256\n        /* \"contracts/ddddd.sol\":5735:5759  var d = doctor[_address] */\n      swap1\n      pop\n        /* \"contracts/ddddd.sol\":5788:5789  d */\n      dup1\n        /* \"contracts/ddddd.sol\":5788:5795  d.uaeId */\n      0x0\n      add\n        /* \"contracts/ddddd.sol\":5797:5798  d */\n      dup2\n        /* \"contracts/ddddd.sol\":5797:5803  d.name */\n      0x1\n      add\n        /* \"contracts/ddddd.sol\":5805:5806  d */\n      dup3\n        /* \"contracts/ddddd.sol\":5805:5812  d.phone */\n      0x2\n      add\n        /* \"contracts/ddddd.sol\":5814:5815  d */\n      dup4\n        /* \"contracts/ddddd.sol\":5814:5822  d.gender */\n      0x3\n      add\n        /* \"contracts/ddddd.sol\":5824:5825  d */\n      dup5\n        /* \"contracts/ddddd.sol\":5824:5829  d.dob */\n      0x4\n      add\n        /* \"contracts/ddddd.sol\":5831:5832  d */\n      dup6\n        /* \"contracts/ddddd.sol\":5831:5846  d.qualification */\n      0x7\n      add\n        /* \"contracts/ddddd.sol\":5848:5849  d */\n      dup7\n        /* \"contracts/ddddd.sol\":5848:5855  d.major */\n      0x8\n      add\n        /* \"contracts/ddddd.sol\":5780:5856  return (d.uaeId, d.name, d.phone, d.gender, d.dob, d.qualification, d.major) */\n      dup7\n      dup1\n      sload\n      0x1\n      dup2\n      0x1\n      and\n      iszero\n      0x100\n      mul\n      sub\n      and\n      0x2\n      swap1\n      div\n      dup1\n      0x1f\n      add\n      0x20\n      dup1\n      swap2\n      div\n      mul\n      0x20\n      add\n      mload(0x40)\n      swap1\n      dup2\n      add\n      0x40\n      mstore\n      dup1\n      swap3\n      swap2\n      swap1\n      dup2\n      dup2\n      mstore\n      0x20\n      add\n      dup3\n      dup1\n      sload\n      0x1\n      dup2\n      0x1\n      and\n      iszero\n      0x100\n      mul\n      sub\n      and\n      0x2\n      swap1\n      div\n      dup1\n      iszero\n      tag_207\n      jumpi\n      dup1\n      0x1f\n      lt\n      tag_208\n      jumpi\n      0x100\n      dup1\n      dup4\n      sload\n      div\n      mul\n      dup4\n      mstore\n      swap2\n      0x20\n      add\n      swap2\n      jump(tag_207)\n    tag_208:\n      dup3\n      add\n      swap2\n      swap1\n      0x0\n      mstore\n      keccak256(0x0, 0x20)\n      swap1\n    tag_209:\n      dup2\n      sload\n      dup2\n      mstore\n      swap1\n      0x1\n      add\n      swap1\n      0x20\n      add\n      dup1\n      dup4\n      gt\n      tag_209\n      jumpi\n      dup3\n      swap1\n      sub\n      0x1f\n      and\n      dup3\n      add\n      swap2\n    tag_207:\n      pop\n      pop\n      pop\n      pop\n      pop\n      swap7\n      pop\n      dup6\n      dup1\n      sload\n      0x1\n      dup2\n      0x1\n      and\n      iszero\n      0x100\n      mul\n      sub\n      and\n      0x2\n      swap1\n      div\n      dup1\n      0x1f\n      add\n      0x20\n      dup1\n      swap2\n      div\n      mul\n      0x20\n      add\n      mload(0x40)\n      swap1\n      dup2\n      add\n      0x40\n      mstore\n      dup1\n      swap3\n      swap2\n      swap1\n      dup2\n      dup2\n      mstore\n      0x20\n      add\n      dup3\n      dup1\n      sload\n      0x1\n      dup2\n      0x1\n      and\n      iszero\n      0x100\n      mul\n      sub\n      and\n      0x2\n      swap1\n      div\n      dup1\n      iszero\n      tag_210\n      jumpi\n      dup1\n      0x1f\n      lt\n      tag_211\n      jumpi\n      0x100\n      dup1\n      dup4\n      sload\n      div\n      mul\n      dup4\n      mstore\n      swap2\n      0x20\n      add\n      swap2\n      jump(tag_210)\n    tag_211:\n      dup3\n      add\n      swap2\n      swap1\n      0x0\n      mstore\n      keccak256(0x0, 0x20)\n      swap1\n    tag_212:\n      dup2\n      sload\n      dup2\n      mstore\n      swap1\n      0x1\n      add\n      swap1\n      0x20\n      add\n      dup1\n      dup4\n      gt\n      tag_212\n      jumpi\n      dup3\n      swap1\n      sub\n      0x1f\n      and\n      dup3\n      add\n      swap2\n    tag_210:\n      pop\n      pop\n      pop\n      pop\n      pop\n      swap6\n      pop\n      dup5\n      dup1\n      sload\n      0x1\n      dup2\n      0x1\n      and\n      iszero\n      0x100\n      mul\n      sub\n      and\n      0x2\n      swap1\n      div\n      dup1\n      0x1f\n      add\n      0x20\n      dup1\n      swap2\n      div\n      mul\n      0x20\n      add\n      mload(0x40)\n      swap1\n      dup2\n      add\n      0x40\n      mstore\n      dup1\n      swap3\n      swap2\n      swap1\n      dup2\n      dup2\n      mstore\n      0x20\n      add\n      dup3\n      dup1\n      sload\n      0x1\n      dup2\n      0x1\n      and\n      iszero\n      0x100\n      mul\n      sub\n      and\n      0x2\n      swap1\n      div\n      dup1\n      iszero\n      tag_213\n      jumpi\n      dup1\n      0x1f\n      lt\n      tag_214\n      jumpi\n      0x100\n      dup1\n      dup4\n      sload\n      div\n      mul\n      dup4\n      mstore\n      swap2\n      0x20\n      add\n      swap2\n      jump(tag_213)\n    tag_214:\n      dup3\n      add\n      swap2\n      swap1\n      0x0\n      mstore\n      keccak256(0x0, 0x20)\n      swap1\n    tag_215:\n      dup2\n      sload\n      dup2\n      mstore\n      swap1\n      0x1\n      add\n      swap1\n      0x20\n      add\n      dup1\n      dup4\n      gt\n      tag_215\n      jumpi\n      dup3\n      swap1\n      sub\n      0x1f\n      and\n      dup3\n      add\n      swap2\n    tag_213:\n      pop\n      pop\n      pop\n      pop\n      pop\n      swap5\n      pop\n      dup4\n      dup1\n      sload\n      0x1\n      dup2\n      0x1\n      and\n      iszero\n      0x100\n      mul\n      sub\n      and\n      0x2\n      swap1\n      div\n      dup1\n      0x1f\n      add\n      0x20\n      dup1\n      swap2\n      div\n      mul\n      0x20\n      add\n      mload(0x40)\n      swap1\n      dup2\n      add\n      0x40\n      mstore\n      dup1\n      swap3\n      swap2\n      swap1\n      dup2\n      dup2\n      mstore\n      0x20\n      add\n      dup3\n      dup1\n      sload\n      0x1\n      dup2\n      0x1\n      and\n      iszero\n      0x100\n      mul\n      sub\n      and\n      0x2\n      swap1\n      div\n      dup1\n      iszero\n      tag_216\n      jumpi\n      dup1\n      0x1f\n      lt\n      tag_217\n      jumpi\n      0x100\n      dup1\n      dup4\n      sload\n      div\n      mul\n      dup4\n      mstore\n      swap2\n      0x20\n      add\n      swap2\n      jump(tag_216)\n    tag_217:\n      dup3\n      add\n      swap2\n      swap1\n      0x0\n      mstore\n      keccak256(0x0, 0x20)\n      swap1\n    tag_218:\n      dup2\n      sload\n      dup2\n      mstore\n      swap1\n      0x1\n      add\n      swap1\n      0x20\n      add\n      dup1\n      dup4\n      gt\n      tag_218\n      jumpi\n      dup3\n      swap1\n      sub\n      0x1f\n      and\n      dup3\n      add\n      swap2\n    tag_216:\n      pop\n      pop\n      pop\n      pop\n      pop\n      swap4\n      pop\n      dup3\n      dup1\n      sload\n      0x1\n      dup2\n      0x1\n      and\n      iszero\n      0x100\n      mul\n      sub\n      and\n      0x2\n      swap1\n      div\n      dup1\n      0x1f\n      add\n      0x20\n      dup1\n      swap2\n      div\n      mul\n      0x20\n      add\n      mload(0x40)\n      swap1\n      dup2\n      add\n      0x40\n      mstore\n      dup1\n      swap3\n      swap2\n      swap1\n      dup2\n      dup2\n      mstore\n      0x20\n      add\n      dup3\n      dup1\n      sload\n      0x1\n      dup2\n      0x1\n      and\n      iszero\n      0x100\n      mul\n      sub\n      and\n      0x2\n      swap1\n      div\n      dup1\n      iszero\n      tag_219\n      jumpi\n      dup1\n      0x1f\n      lt\n      tag_220\n      jumpi\n      0x100\n      dup1\n      dup4\n      sload\n      div\n      mul\n      dup4\n      mstore\n      swap2\n      0x20\n      add\n      swap2\n      jump(tag_219)\n    tag_220:\n      dup3\n      add\n      swap2\n      swap1\n      0x0\n      mstore\n      keccak256(0x0, 0x20)\n      swap1\n    tag_221:\n      dup2\n      sload\n      dup2\n      mstore\n      swap1\n      0x1\n      add\n      swap1\n      0x20\n      add\n      dup1\n      dup4\n      gt\n      tag_221\n      jumpi\n      dup3\n      swap1\n      sub\n      0x1f\n      and\n      dup3\n      add\n      swap2\n    tag_219:\n      pop\n      pop\n      pop\n      pop\n      pop\n      swap3\n      pop\n      dup2\n      dup1\n      sload\n      0x1\n      dup2\n      0x1\n      and\n      iszero\n      0x100\n      mul\n      sub\n      and\n      0x2\n      swap1\n      div\n      dup1\n      0x1f\n      add\n      0x20\n      dup1\n      swap2\n      div\n      mul\n      0x20\n      add\n      mload(0x40)\n      swap1\n      dup2\n      add\n      0x40\n      mstore\n      dup1\n      swap3\n      swap2\n      swap1\n      dup2\n      dup2\n      mstore\n      0x20\n      add\n      dup3\n      dup1\n      sload\n      0x1\n      dup2\n      0x1\n      and\n      iszero\n      0x100\n      mul\n      sub\n      and\n      0x2\n      swap1\n      div\n      dup1\n      iszero\n      tag_222\n      jumpi\n      dup1\n      0x1f\n      lt\n      tag_223\n      jumpi\n      0x100\n      dup1\n      dup4\n      sload\n      div\n      mul\n      dup4\n      mstore\n      swap2\n      0x20\n      add\n      swap2\n      jump(tag_222)\n    tag_223:\n      dup3\n      add\n      swap2\n      swap1\n      0x0\n      mstore\n      keccak256(0x0, 0x20)\n      swap1\n    tag_224:\n      dup2\n      sload\n      dup2\n      mstore\n      swap1\n      0x1\n      add\n      swap1\n      0x20\n      add\n      dup1\n      dup4\n      gt\n      tag_224\n      jumpi\n      dup3\n      swap1\n      sub\n      0x1f\n      and\n      dup3\n      add\n      swap2\n    tag_222:\n      pop\n      pop\n      pop\n      pop\n      pop\n      swap2\n      pop\n      dup1\n      dup1\n      sload\n      0x1\n      dup2\n      0x1\n      and\n      iszero\n      0x100\n      mul\n      sub\n      and\n      0x2\n      swap1\n      div\n      dup1\n      0x1f\n      add\n      0x20\n      dup1\n      swap2\n      div\n      mul\n      0x20\n      add\n      mload(0x40)\n      swap1\n      dup2\n      add\n      0x40\n      mstore\n      dup1\n      swap3\n      swap2\n      swap1\n      dup2\n      dup2\n      mstore\n      0x20\n      add\n      dup3\n      dup1\n      sload\n      0x1\n      dup2\n      0x1\n      and\n      iszero\n      0x100\n      mul\n      sub\n      and\n      0x2\n      swap1\n      div\n      dup1\n      iszero\n      tag_225\n      jumpi\n      dup1\n      0x1f\n      lt\n      tag_226\n      jumpi\n      0x100\n      dup1\n      dup4\n      sload\n      div\n      mul\n      dup4\n      mstore\n      swap2\n      0x20\n      add\n      swap2\n      jump(tag_225)\n    tag_226:\n      dup3\n      add\n      swap2\n      swap1\n      0x0\n      mstore\n      keccak256(0x0, 0x20)\n      swap1\n    tag_227:\n      dup2\n      sload\n      dup2\n      mstore\n      swap1\n      0x1\n      add\n      swap1\n      0x20\n      add\n      dup1\n      dup4\n      gt\n      tag_227\n      jumpi\n      dup3\n      swap1\n      sub\n      0x1f\n      and\n      dup3\n      add\n      swap2\n    tag_225:\n      pop\n      pop\n      pop\n      pop\n      pop\n      swap1\n      pop\n      swap8\n      pop\n      swap8\n      pop\n      swap8\n      pop\n      swap8\n      pop\n      swap8\n      pop\n      swap8\n      pop\n      swap8\n      pop\n        /* \"contracts/ddddd.sol\":5570:5864  function searchDoctor(address _address) public view returns(string, string, string, string, string, string, string) {\r... */\n      pop\n      swap2\n      swap4\n      swap6\n      swap8\n      swap1\n      swap3\n      swap5\n      swap7\n      pop\n      jump\t// out\n        /* \"contracts/ddddd.sol\":67:6192  contract ddddd {\r... */\n    tag_152:\n      dup3\n      dup1\n      sload\n      0x1\n      dup2\n      0x1\n      and\n      iszero\n      0x100\n      mul\n      sub\n      and\n      0x2\n      swap1\n      div\n      swap1\n      0x0\n      mstore\n      keccak256(0x0, 0x20)\n      swap1\n      0x1f\n      add\n      0x20\n      swap1\n      div\n      dup2\n      add\n      swap3\n      dup3\n      0x1f\n      lt\n      tag_229\n      jumpi\n      dup1\n      mload\n      not(0xff)\n      and\n      dup4\n      dup1\n      add\n      or\n      dup6\n      sstore\n      jump(tag_228)\n    tag_229:\n      dup3\n      dup1\n      add\n      0x1\n      add\n      dup6\n      sstore\n      dup3\n      iszero\n      tag_228\n      jumpi\n      swap2\n      dup3\n      add\n    tag_230:\n      dup3\n      dup2\n      gt\n      iszero\n      tag_231\n      jumpi\n      dup3\n      mload\n      dup3\n      sstore\n      swap2\n      0x20\n      add\n      swap2\n      swap1\n      0x1\n      add\n      swap1\n      jump(tag_230)\n    tag_231:\n    tag_228:\n      pop\n      swap1\n      pop\n      tag_232\n      swap2\n      swap1\n      jump\t// in(tag_233)\n    tag_232:\n      pop\n      swap1\n      jump\t// out\n    tag_233:\n      tag_234\n      swap2\n      swap1\n    tag_235:\n      dup1\n      dup3\n      gt\n      iszero\n      tag_236\n      jumpi\n      0x0\n      dup2\n      0x0\n      swap1\n      sstore\n      pop\n      0x1\n      add\n      jump(tag_235)\n    tag_236:\n      pop\n      swap1\n      jump\n    tag_234:\n      swap1\n      jump\t// out\n        /* \"--CODEGEN--\":5:123   */\n    tag_238:\n      0x0\n        /* \"--CODEGEN--\":72:118   */\n      tag_239\n        /* \"--CODEGEN--\":110:116   */\n      dup3\n        /* \"--CODEGEN--\":97:117   */\n      calldataload\n        /* \"--CODEGEN--\":72:118   */\n      jump(tag_240)\n    tag_239:\n        /* \"--CODEGEN--\":63:118   */\n      swap1\n      pop\n        /* \"--CODEGEN--\":57:123   */\n      swap3\n      swap2\n      pop\n      pop\n      jump\n        /* \"--CODEGEN--\":131:573   */\n    tag_242:\n      0x0\n        /* \"--CODEGEN--\":233:236   */\n      dup3\n        /* \"--CODEGEN--\":226:230   */\n      0x1f\n        /* \"--CODEGEN--\":218:224   */\n      dup4\n        /* \"--CODEGEN--\":214:231   */\n      add\n        /* \"--CODEGEN--\":210:237   */\n      slt\n        /* \"--CODEGEN--\":203:238   */\n      iszero\n        /* \"--CODEGEN--\":200:202   */\n      iszero\n      tag_243\n      jumpi\n        /* \"--CODEGEN--\":251:252   */\n      0x0\n        /* \"--CODEGEN--\":248:249   */\n      dup1\n        /* \"--CODEGEN--\":241:253   */\n      revert\n        /* \"--CODEGEN--\":200:202   */\n    tag_243:\n        /* \"--CODEGEN--\":288:294   */\n      dup2\n        /* \"--CODEGEN--\":275:295   */\n      calldataload\n        /* \"--CODEGEN--\":310:375   */\n      tag_244\n        /* \"--CODEGEN--\":325:374   */\n      tag_245\n        /* \"--CODEGEN--\":367:373   */\n      dup3\n        /* \"--CODEGEN--\":325:374   */\n      jump(tag_246)\n    tag_245:\n        /* \"--CODEGEN--\":310:375   */\n      jump(tag_247)\n    tag_244:\n        /* \"--CODEGEN--\":301:375   */\n      swap2\n      pop\n        /* \"--CODEGEN--\":395:401   */\n      dup1\n        /* \"--CODEGEN--\":388:393   */\n      dup3\n        /* \"--CODEGEN--\":381:402   */\n      mstore\n        /* \"--CODEGEN--\":431:435   */\n      0x20\n        /* \"--CODEGEN--\":423:429   */\n      dup4\n        /* \"--CODEGEN--\":419:436   */\n      add\n        /* \"--CODEGEN--\":464:468   */\n      0x20\n        /* \"--CODEGEN--\":457:462   */\n      dup4\n        /* \"--CODEGEN--\":453:469   */\n      add\n        /* \"--CODEGEN--\":499:502   */\n      dup6\n        /* \"--CODEGEN--\":490:496   */\n      dup4\n        /* \"--CODEGEN--\":485:488   */\n      dup4\n        /* \"--CODEGEN--\":481:497   */\n      add\n        /* \"--CODEGEN--\":478:503   */\n      gt\n        /* \"--CODEGEN--\":475:477   */\n      iszero\n      tag_248\n      jumpi\n        /* \"--CODEGEN--\":516:517   */\n      0x0\n        /* \"--CODEGEN--\":513:514   */\n      dup1\n        /* \"--CODEGEN--\":506:518   */\n      revert\n        /* \"--CODEGEN--\":475:477   */\n    tag_248:\n        /* \"--CODEGEN--\":526:567   */\n      tag_249\n        /* \"--CODEGEN--\":560:566   */\n      dup4\n        /* \"--CODEGEN--\":555:558   */\n      dup3\n        /* \"--CODEGEN--\":550:553   */\n      dup5\n        /* \"--CODEGEN--\":526:567   */\n      jump(tag_250)\n    tag_249:\n        /* \"--CODEGEN--\":193:573   */\n      pop\n      pop\n      pop\n      swap3\n      swap2\n      pop\n      pop\n      jump\n        /* \"--CODEGEN--\":581:699   */\n    tag_252:\n      0x0\n        /* \"--CODEGEN--\":648:694   */\n      tag_253\n        /* \"--CODEGEN--\":686:692   */\n      dup3\n        /* \"--CODEGEN--\":673:693   */\n      calldataload\n        /* \"--CODEGEN--\":648:694   */\n      jump(tag_254)\n    tag_253:\n        /* \"--CODEGEN--\":639:694   */\n      swap1\n      pop\n        /* \"--CODEGEN--\":633:699   */\n      swap3\n      swap2\n      pop\n      pop\n      jump\n        /* \"--CODEGEN--\":706:947   */\n    tag_31:\n      0x0\n        /* \"--CODEGEN--\":810:812   */\n      0x20\n        /* \"--CODEGEN--\":798:807   */\n      dup3\n        /* \"--CODEGEN--\":789:796   */\n      dup5\n        /* \"--CODEGEN--\":785:808   */\n      sub\n        /* \"--CODEGEN--\":781:813   */\n      slt\n        /* \"--CODEGEN--\":778:780   */\n      iszero\n      tag_256\n      jumpi\n        /* \"--CODEGEN--\":826:827   */\n      0x0\n        /* \"--CODEGEN--\":823:824   */\n      dup1\n        /* \"--CODEGEN--\":816:828   */\n      revert\n        /* \"--CODEGEN--\":778:780   */\n    tag_256:\n        /* \"--CODEGEN--\":861:862   */\n      0x0\n        /* \"--CODEGEN--\":878:931   */\n      tag_257\n        /* \"--CODEGEN--\":923:930   */\n      dup5\n        /* \"--CODEGEN--\":914:920   */\n      dup3\n        /* \"--CODEGEN--\":903:912   */\n      dup6\n        /* \"--CODEGEN--\":899:921   */\n      add\n        /* \"--CODEGEN--\":878:931   */\n      jump(tag_238)\n    tag_257:\n        /* \"--CODEGEN--\":868:931   */\n      swap2\n      pop\n        /* \"--CODEGEN--\":840:937   */\n      pop\n        /* \"--CODEGEN--\":772:947   */\n      swap3\n      swap2\n      pop\n      pop\n      jump\n        /* \"--CODEGEN--\":954:2817   */\n    tag_56:\n      0x0\n      dup1\n      0x0\n      dup1\n      0x0\n      dup1\n      0x0\n      dup1\n        /* \"--CODEGEN--\":1247:1250   */\n      0x100\n        /* \"--CODEGEN--\":1235:1244   */\n      dup10\n        /* \"--CODEGEN--\":1226:1233   */\n      dup12\n        /* \"--CODEGEN--\":1222:1245   */\n      sub\n        /* \"--CODEGEN--\":1218:1251   */\n      slt\n        /* \"--CODEGEN--\":1215:1217   */\n      iszero\n      tag_259\n      jumpi\n        /* \"--CODEGEN--\":1264:1265   */\n      0x0\n        /* \"--CODEGEN--\":1261:1262   */\n      dup1\n        /* \"--CODEGEN--\":1254:1266   */\n      revert\n        /* \"--CODEGEN--\":1215:1217   */\n    tag_259:\n        /* \"--CODEGEN--\":1299:1300   */\n      0x0\n        /* \"--CODEGEN--\":1316:1369   */\n      tag_260\n        /* \"--CODEGEN--\":1361:1368   */\n      dup12\n        /* \"--CODEGEN--\":1352:1358   */\n      dup3\n        /* \"--CODEGEN--\":1341:1350   */\n      dup13\n        /* \"--CODEGEN--\":1337:1359   */\n      add\n        /* \"--CODEGEN--\":1316:1369   */\n      jump(tag_238)\n    tag_260:\n        /* \"--CODEGEN--\":1306:1369   */\n      swap9\n      pop\n        /* \"--CODEGEN--\":1278:1375   */\n      pop\n        /* \"--CODEGEN--\":1434:1436   */\n      0x20\n        /* \"--CODEGEN--\":1423:1432   */\n      dup10\n        /* \"--CODEGEN--\":1419:1437   */\n      add\n        /* \"--CODEGEN--\":1406:1438   */\n      calldataload\n        /* \"--CODEGEN--\":1458:1476   */\n      0xffffffffffffffff\n        /* \"--CODEGEN--\":1450:1456   */\n      dup2\n        /* \"--CODEGEN--\":1447:1477   */\n      gt\n        /* \"--CODEGEN--\":1444:1446   */\n      iszero\n      tag_261\n      jumpi\n        /* \"--CODEGEN--\":1490:1491   */\n      0x0\n        /* \"--CODEGEN--\":1487:1488   */\n      dup1\n        /* \"--CODEGEN--\":1480:1492   */\n      revert\n        /* \"--CODEGEN--\":1444:1446   */\n    tag_261:\n        /* \"--CODEGEN--\":1510:1573   */\n      tag_262\n        /* \"--CODEGEN--\":1565:1572   */\n      dup12\n        /* \"--CODEGEN--\":1556:1562   */\n      dup3\n        /* \"--CODEGEN--\":1545:1554   */\n      dup13\n        /* \"--CODEGEN--\":1541:1563   */\n      add\n        /* \"--CODEGEN--\":1510:1573   */\n      jump(tag_242)\n    tag_262:\n        /* \"--CODEGEN--\":1500:1573   */\n      swap8\n      pop\n        /* \"--CODEGEN--\":1385:1579   */\n      pop\n        /* \"--CODEGEN--\":1638:1640   */\n      0x40\n        /* \"--CODEGEN--\":1627:1636   */\n      dup10\n        /* \"--CODEGEN--\":1623:1641   */\n      add\n        /* \"--CODEGEN--\":1610:1642   */\n      calldataload\n        /* \"--CODEGEN--\":1662:1680   */\n      0xffffffffffffffff\n        /* \"--CODEGEN--\":1654:1660   */\n      dup2\n        /* \"--CODEGEN--\":1651:1681   */\n      gt\n        /* \"--CODEGEN--\":1648:1650   */\n      iszero\n      tag_263\n      jumpi\n        /* \"--CODEGEN--\":1694:1695   */\n      0x0\n        /* \"--CODEGEN--\":1691:1692   */\n      dup1\n        /* \"--CODEGEN--\":1684:1696   */\n      revert\n        /* \"--CODEGEN--\":1648:1650   */\n    tag_263:\n        /* \"--CODEGEN--\":1714:1777   */\n      tag_264\n        /* \"--CODEGEN--\":1769:1776   */\n      dup12\n        /* \"--CODEGEN--\":1760:1766   */\n      dup3\n        /* \"--CODEGEN--\":1749:1758   */\n      dup13\n        /* \"--CODEGEN--\":1745:1767   */\n      add\n        /* \"--CODEGEN--\":1714:1777   */\n      jump(tag_242)\n    tag_264:\n        /* \"--CODEGEN--\":1704:1777   */\n      swap7\n      pop\n        /* \"--CODEGEN--\":1589:1783   */\n      pop\n        /* \"--CODEGEN--\":1842:1844   */\n      0x60\n        /* \"--CODEGEN--\":1831:1840   */\n      dup10\n        /* \"--CODEGEN--\":1827:1845   */\n      add\n        /* \"--CODEGEN--\":1814:1846   */\n      calldataload\n        /* \"--CODEGEN--\":1866:1884   */\n      0xffffffffffffffff\n        /* \"--CODEGEN--\":1858:1864   */\n      dup2\n        /* \"--CODEGEN--\":1855:1885   */\n      gt\n        /* \"--CODEGEN--\":1852:1854   */\n      iszero\n      tag_265\n      jumpi\n        /* \"--CODEGEN--\":1898:1899   */\n      0x0\n        /* \"--CODEGEN--\":1895:1896   */\n      dup1\n        /* \"--CODEGEN--\":1888:1900   */\n      revert\n        /* \"--CODEGEN--\":1852:1854   */\n    tag_265:\n        /* \"--CODEGEN--\":1918:1981   */\n      tag_266\n        /* \"--CODEGEN--\":1973:1980   */\n      dup12\n        /* \"--CODEGEN--\":1964:1970   */\n      dup3\n        /* \"--CODEGEN--\":1953:1962   */\n      dup13\n        /* \"--CODEGEN--\":1949:1971   */\n      add\n        /* \"--CODEGEN--\":1918:1981   */\n      jump(tag_242)\n    tag_266:\n        /* \"--CODEGEN--\":1908:1981   */\n      swap6\n      pop\n        /* \"--CODEGEN--\":1793:1987   */\n      pop\n        /* \"--CODEGEN--\":2046:2049   */\n      0x80\n        /* \"--CODEGEN--\":2035:2044   */\n      dup10\n        /* \"--CODEGEN--\":2031:2050   */\n      add\n        /* \"--CODEGEN--\":2018:2051   */\n      calldataload\n        /* \"--CODEGEN--\":2071:2089   */\n      0xffffffffffffffff\n        /* \"--CODEGEN--\":2063:2069   */\n      dup2\n        /* \"--CODEGEN--\":2060:2090   */\n      gt\n        /* \"--CODEGEN--\":2057:2059   */\n      iszero\n      tag_267\n      jumpi\n        /* \"--CODEGEN--\":2103:2104   */\n      0x0\n        /* \"--CODEGEN--\":2100:2101   */\n      dup1\n        /* \"--CODEGEN--\":2093:2105   */\n      revert\n        /* \"--CODEGEN--\":2057:2059   */\n    tag_267:\n        /* \"--CODEGEN--\":2123:2186   */\n      tag_268\n        /* \"--CODEGEN--\":2178:2185   */\n      dup12\n        /* \"--CODEGEN--\":2169:2175   */\n      dup3\n        /* \"--CODEGEN--\":2158:2167   */\n      dup13\n        /* \"--CODEGEN--\":2154:2176   */\n      add\n        /* \"--CODEGEN--\":2123:2186   */\n      jump(tag_242)\n    tag_268:\n        /* \"--CODEGEN--\":2113:2186   */\n      swap5\n      pop\n        /* \"--CODEGEN--\":1997:2192   */\n      pop\n        /* \"--CODEGEN--\":2251:2254   */\n      0xa0\n        /* \"--CODEGEN--\":2240:2249   */\n      dup10\n        /* \"--CODEGEN--\":2236:2255   */\n      add\n        /* \"--CODEGEN--\":2223:2256   */\n      calldataload\n        /* \"--CODEGEN--\":2276:2294   */\n      0xffffffffffffffff\n        /* \"--CODEGEN--\":2268:2274   */\n      dup2\n        /* \"--CODEGEN--\":2265:2295   */\n      gt\n        /* \"--CODEGEN--\":2262:2264   */\n      iszero\n      tag_269\n      jumpi\n        /* \"--CODEGEN--\":2308:2309   */\n      0x0\n        /* \"--CODEGEN--\":2305:2306   */\n      dup1\n        /* \"--CODEGEN--\":2298:2310   */\n      revert\n        /* \"--CODEGEN--\":2262:2264   */\n    tag_269:\n        /* \"--CODEGEN--\":2328:2391   */\n      tag_270\n        /* \"--CODEGEN--\":2383:2390   */\n      dup12\n        /* \"--CODEGEN--\":2374:2380   */\n      dup3\n        /* \"--CODEGEN--\":2363:2372   */\n      dup13\n        /* \"--CODEGEN--\":2359:2381   */\n      add\n        /* \"--CODEGEN--\":2328:2391   */\n      jump(tag_242)\n    tag_270:\n        /* \"--CODEGEN--\":2318:2391   */\n      swap4\n      pop\n        /* \"--CODEGEN--\":2202:2397   */\n      pop\n        /* \"--CODEGEN--\":2456:2459   */\n      0xc0\n        /* \"--CODEGEN--\":2445:2454   */\n      dup10\n        /* \"--CODEGEN--\":2441:2460   */\n      add\n        /* \"--CODEGEN--\":2428:2461   */\n      calldataload\n        /* \"--CODEGEN--\":2481:2499   */\n      0xffffffffffffffff\n        /* \"--CODEGEN--\":2473:2479   */\n      dup2\n        /* \"--CODEGEN--\":2470:2500   */\n      gt\n        /* \"--CODEGEN--\":2467:2469   */\n      iszero\n      tag_271\n      jumpi\n        /* \"--CODEGEN--\":2513:2514   */\n      0x0\n        /* \"--CODEGEN--\":2510:2511   */\n      dup1\n        /* \"--CODEGEN--\":2503:2515   */\n      revert\n        /* \"--CODEGEN--\":2467:2469   */\n    tag_271:\n        /* \"--CODEGEN--\":2533:2596   */\n      tag_272\n        /* \"--CODEGEN--\":2588:2595   */\n      dup12\n        /* \"--CODEGEN--\":2579:2585   */\n      dup3\n        /* \"--CODEGEN--\":2568:2577   */\n      dup13\n        /* \"--CODEGEN--\":2564:2586   */\n      add\n        /* \"--CODEGEN--\":2533:2596   */\n      jump(tag_242)\n    tag_272:\n        /* \"--CODEGEN--\":2523:2596   */\n      swap3\n      pop\n        /* \"--CODEGEN--\":2407:2602   */\n      pop\n        /* \"--CODEGEN--\":2661:2664   */\n      0xe0\n        /* \"--CODEGEN--\":2650:2659   */\n      dup10\n        /* \"--CODEGEN--\":2646:2665   */\n      add\n        /* \"--CODEGEN--\":2633:2666   */\n      calldataload\n        /* \"--CODEGEN--\":2686:2704   */\n      0xffffffffffffffff\n        /* \"--CODEGEN--\":2678:2684   */\n      dup2\n        /* \"--CODEGEN--\":2675:2705   */\n      gt\n        /* \"--CODEGEN--\":2672:2674   */\n      iszero\n      tag_273\n      jumpi\n        /* \"--CODEGEN--\":2718:2719   */\n      0x0\n        /* \"--CODEGEN--\":2715:2716   */\n      dup1\n        /* \"--CODEGEN--\":2708:2720   */\n      revert\n        /* \"--CODEGEN--\":2672:2674   */\n    tag_273:\n        /* \"--CODEGEN--\":2738:2801   */\n      tag_274\n        /* \"--CODEGEN--\":2793:2800   */\n      dup12\n        /* \"--CODEGEN--\":2784:2790   */\n      dup3\n        /* \"--CODEGEN--\":2773:2782   */\n      dup13\n        /* \"--CODEGEN--\":2769:2791   */\n      add\n        /* \"--CODEGEN--\":2738:2801   */\n      jump(tag_242)\n    tag_274:\n        /* \"--CODEGEN--\":2728:2801   */\n      swap2\n      pop\n        /* \"--CODEGEN--\":2612:2807   */\n      pop\n        /* \"--CODEGEN--\":1209:2817   */\n      swap3\n      swap6\n      swap9\n      pop\n      swap3\n      swap6\n      swap9\n      swap1\n      swap4\n      swap7\n      pop\n      jump\n        /* \"--CODEGEN--\":2824:5151   */\n    tag_74:\n      0x0\n      dup1\n      0x0\n      dup1\n      0x0\n      dup1\n      0x0\n      dup1\n      0x0\n      dup1\n        /* \"--CODEGEN--\":3171:3174   */\n      0x140\n        /* \"--CODEGEN--\":3159:3168   */\n      dup12\n        /* \"--CODEGEN--\":3150:3157   */\n      dup14\n        /* \"--CODEGEN--\":3146:3169   */\n      sub\n        /* \"--CODEGEN--\":3142:3175   */\n      slt\n        /* \"--CODEGEN--\":3139:3141   */\n      iszero\n      tag_276\n      jumpi\n        /* \"--CODEGEN--\":3188:3189   */\n      0x0\n        /* \"--CODEGEN--\":3185:3186   */\n      dup1\n        /* \"--CODEGEN--\":3178:3190   */\n      revert\n        /* \"--CODEGEN--\":3139:3141   */\n    tag_276:\n        /* \"--CODEGEN--\":3223:3224   */\n      0x0\n        /* \"--CODEGEN--\":3240:3293   */\n      tag_277\n        /* \"--CODEGEN--\":3285:3292   */\n      dup14\n        /* \"--CODEGEN--\":3276:3282   */\n      dup3\n        /* \"--CODEGEN--\":3265:3274   */\n      dup15\n        /* \"--CODEGEN--\":3261:3283   */\n      add\n        /* \"--CODEGEN--\":3240:3293   */\n      jump(tag_238)\n    tag_277:\n        /* \"--CODEGEN--\":3230:3293   */\n      swap11\n      pop\n        /* \"--CODEGEN--\":3202:3299   */\n      pop\n        /* \"--CODEGEN--\":3358:3360   */\n      0x20\n        /* \"--CODEGEN--\":3347:3356   */\n      dup12\n        /* \"--CODEGEN--\":3343:3361   */\n      add\n        /* \"--CODEGEN--\":3330:3362   */\n      calldataload\n        /* \"--CODEGEN--\":3382:3400   */\n      0xffffffffffffffff\n        /* \"--CODEGEN--\":3374:3380   */\n      dup2\n        /* \"--CODEGEN--\":3371:3401   */\n      gt\n        /* \"--CODEGEN--\":3368:3370   */\n      iszero\n      tag_278\n      jumpi\n        /* \"--CODEGEN--\":3414:3415   */\n      0x0\n        /* \"--CODEGEN--\":3411:3412   */\n      dup1\n        /* \"--CODEGEN--\":3404:3416   */\n      revert\n        /* \"--CODEGEN--\":3368:3370   */\n    tag_278:\n        /* \"--CODEGEN--\":3434:3497   */\n      tag_279\n        /* \"--CODEGEN--\":3489:3496   */\n      dup14\n        /* \"--CODEGEN--\":3480:3486   */\n      dup3\n        /* \"--CODEGEN--\":3469:3478   */\n      dup15\n        /* \"--CODEGEN--\":3465:3487   */\n      add\n        /* \"--CODEGEN--\":3434:3497   */\n      jump(tag_242)\n    tag_279:\n        /* \"--CODEGEN--\":3424:3497   */\n      swap10\n      pop\n        /* \"--CODEGEN--\":3309:3503   */\n      pop\n        /* \"--CODEGEN--\":3562:3564   */\n      0x40\n        /* \"--CODEGEN--\":3551:3560   */\n      dup12\n        /* \"--CODEGEN--\":3547:3565   */\n      add\n        /* \"--CODEGEN--\":3534:3566   */\n      calldataload\n        /* \"--CODEGEN--\":3586:3604   */\n      0xffffffffffffffff\n        /* \"--CODEGEN--\":3578:3584   */\n      dup2\n        /* \"--CODEGEN--\":3575:3605   */\n      gt\n        /* \"--CODEGEN--\":3572:3574   */\n      iszero\n      tag_280\n      jumpi\n        /* \"--CODEGEN--\":3618:3619   */\n      0x0\n        /* \"--CODEGEN--\":3615:3616   */\n      dup1\n        /* \"--CODEGEN--\":3608:3620   */\n      revert\n        /* \"--CODEGEN--\":3572:3574   */\n    tag_280:\n        /* \"--CODEGEN--\":3638:3701   */\n      tag_281\n        /* \"--CODEGEN--\":3693:3700   */\n      dup14\n        /* \"--CODEGEN--\":3684:3690   */\n      dup3\n        /* \"--CODEGEN--\":3673:3682   */\n      dup15\n        /* \"--CODEGEN--\":3669:3691   */\n      add\n        /* \"--CODEGEN--\":3638:3701   */\n      jump(tag_242)\n    tag_281:\n        /* \"--CODEGEN--\":3628:3701   */\n      swap9\n      pop\n        /* \"--CODEGEN--\":3513:3707   */\n      pop\n        /* \"--CODEGEN--\":3766:3768   */\n      0x60\n        /* \"--CODEGEN--\":3755:3764   */\n      dup12\n        /* \"--CODEGEN--\":3751:3769   */\n      add\n        /* \"--CODEGEN--\":3738:3770   */\n      calldataload\n        /* \"--CODEGEN--\":3790:3808   */\n      0xffffffffffffffff\n        /* \"--CODEGEN--\":3782:3788   */\n      dup2\n        /* \"--CODEGEN--\":3779:3809   */\n      gt\n        /* \"--CODEGEN--\":3776:3778   */\n      iszero\n      tag_282\n      jumpi\n        /* \"--CODEGEN--\":3822:3823   */\n      0x0\n        /* \"--CODEGEN--\":3819:3820   */\n      dup1\n        /* \"--CODEGEN--\":3812:3824   */\n      revert\n        /* \"--CODEGEN--\":3776:3778   */\n    tag_282:\n        /* \"--CODEGEN--\":3842:3905   */\n      tag_283\n        /* \"--CODEGEN--\":3897:3904   */\n      dup14\n        /* \"--CODEGEN--\":3888:3894   */\n      dup3\n        /* \"--CODEGEN--\":3877:3886   */\n      dup15\n        /* \"--CODEGEN--\":3873:3895   */\n      add\n        /* \"--CODEGEN--\":3842:3905   */\n      jump(tag_242)\n    tag_283:\n        /* \"--CODEGEN--\":3832:3905   */\n      swap8\n      pop\n        /* \"--CODEGEN--\":3717:3911   */\n      pop\n        /* \"--CODEGEN--\":3970:3973   */\n      0x80\n        /* \"--CODEGEN--\":3959:3968   */\n      dup12\n        /* \"--CODEGEN--\":3955:3974   */\n      add\n        /* \"--CODEGEN--\":3942:3975   */\n      calldataload\n        /* \"--CODEGEN--\":3995:4013   */\n      0xffffffffffffffff\n        /* \"--CODEGEN--\":3987:3993   */\n      dup2\n        /* \"--CODEGEN--\":3984:4014   */\n      gt\n        /* \"--CODEGEN--\":3981:3983   */\n      iszero\n      tag_284\n      jumpi\n        /* \"--CODEGEN--\":4027:4028   */\n      0x0\n        /* \"--CODEGEN--\":4024:4025   */\n      dup1\n        /* \"--CODEGEN--\":4017:4029   */\n      revert\n        /* \"--CODEGEN--\":3981:3983   */\n    tag_284:\n        /* \"--CODEGEN--\":4047:4110   */\n      tag_285\n        /* \"--CODEGEN--\":4102:4109   */\n      dup14\n        /* \"--CODEGEN--\":4093:4099   */\n      dup3\n        /* \"--CODEGEN--\":4082:4091   */\n      dup15\n        /* \"--CODEGEN--\":4078:4100   */\n      add\n        /* \"--CODEGEN--\":4047:4110   */\n      jump(tag_242)\n    tag_285:\n        /* \"--CODEGEN--\":4037:4110   */\n      swap7\n      pop\n        /* \"--CODEGEN--\":3921:4116   */\n      pop\n        /* \"--CODEGEN--\":4175:4178   */\n      0xa0\n        /* \"--CODEGEN--\":4164:4173   */\n      dup12\n        /* \"--CODEGEN--\":4160:4179   */\n      add\n        /* \"--CODEGEN--\":4147:4180   */\n      calldataload\n        /* \"--CODEGEN--\":4200:4218   */\n      0xffffffffffffffff\n        /* \"--CODEGEN--\":4192:4198   */\n      dup2\n        /* \"--CODEGEN--\":4189:4219   */\n      gt\n        /* \"--CODEGEN--\":4186:4188   */\n      iszero\n      tag_286\n      jumpi\n        /* \"--CODEGEN--\":4232:4233   */\n      0x0\n        /* \"--CODEGEN--\":4229:4230   */\n      dup1\n        /* \"--CODEGEN--\":4222:4234   */\n      revert\n        /* \"--CODEGEN--\":4186:4188   */\n    tag_286:\n        /* \"--CODEGEN--\":4252:4315   */\n      tag_287\n        /* \"--CODEGEN--\":4307:4314   */\n      dup14\n        /* \"--CODEGEN--\":4298:4304   */\n      dup3\n        /* \"--CODEGEN--\":4287:4296   */\n      dup15\n        /* \"--CODEGEN--\":4283:4305   */\n      add\n        /* \"--CODEGEN--\":4252:4315   */\n      jump(tag_242)\n    tag_287:\n        /* \"--CODEGEN--\":4242:4315   */\n      swap6\n      pop\n        /* \"--CODEGEN--\":4126:4321   */\n      pop\n        /* \"--CODEGEN--\":4380:4383   */\n      0xc0\n        /* \"--CODEGEN--\":4369:4378   */\n      dup12\n        /* \"--CODEGEN--\":4365:4384   */\n      add\n        /* \"--CODEGEN--\":4352:4385   */\n      calldataload\n        /* \"--CODEGEN--\":4405:4423   */\n      0xffffffffffffffff\n        /* \"--CODEGEN--\":4397:4403   */\n      dup2\n        /* \"--CODEGEN--\":4394:4424   */\n      gt\n        /* \"--CODEGEN--\":4391:4393   */\n      iszero\n      tag_288\n      jumpi\n        /* \"--CODEGEN--\":4437:4438   */\n      0x0\n        /* \"--CODEGEN--\":4434:4435   */\n      dup1\n        /* \"--CODEGEN--\":4427:4439   */\n      revert\n        /* \"--CODEGEN--\":4391:4393   */\n    tag_288:\n        /* \"--CODEGEN--\":4457:4520   */\n      tag_289\n        /* \"--CODEGEN--\":4512:4519   */\n      dup14\n        /* \"--CODEGEN--\":4503:4509   */\n      dup3\n        /* \"--CODEGEN--\":4492:4501   */\n      dup15\n        /* \"--CODEGEN--\":4488:4510   */\n      add\n        /* \"--CODEGEN--\":4457:4520   */\n      jump(tag_242)\n    tag_289:\n        /* \"--CODEGEN--\":4447:4520   */\n      swap5\n      pop\n        /* \"--CODEGEN--\":4331:4526   */\n      pop\n        /* \"--CODEGEN--\":4585:4588   */\n      0xe0\n        /* \"--CODEGEN--\":4574:4583   */\n      dup12\n        /* \"--CODEGEN--\":4570:4589   */\n      add\n        /* \"--CODEGEN--\":4557:4590   */\n      calldataload\n        /* \"--CODEGEN--\":4610:4628   */\n      0xffffffffffffffff\n        /* \"--CODEGEN--\":4602:4608   */\n      dup2\n        /* \"--CODEGEN--\":4599:4629   */\n      gt\n        /* \"--CODEGEN--\":4596:4598   */\n      iszero\n      tag_290\n      jumpi\n        /* \"--CODEGEN--\":4642:4643   */\n      0x0\n        /* \"--CODEGEN--\":4639:4640   */\n      dup1\n        /* \"--CODEGEN--\":4632:4644   */\n      revert\n        /* \"--CODEGEN--\":4596:4598   */\n    tag_290:\n        /* \"--CODEGEN--\":4662:4725   */\n      tag_291\n        /* \"--CODEGEN--\":4717:4724   */\n      dup14\n        /* \"--CODEGEN--\":4708:4714   */\n      dup3\n        /* \"--CODEGEN--\":4697:4706   */\n      dup15\n        /* \"--CODEGEN--\":4693:4715   */\n      add\n        /* \"--CODEGEN--\":4662:4725   */\n      jump(tag_242)\n    tag_291:\n        /* \"--CODEGEN--\":4652:4725   */\n      swap4\n      pop\n        /* \"--CODEGEN--\":4536:4731   */\n      pop\n        /* \"--CODEGEN--\":4790:4793   */\n      0x100\n        /* \"--CODEGEN--\":4779:4788   */\n      dup12\n        /* \"--CODEGEN--\":4775:4794   */\n      add\n        /* \"--CODEGEN--\":4762:4795   */\n      calldataload\n        /* \"--CODEGEN--\":4815:4833   */\n      0xffffffffffffffff\n        /* \"--CODEGEN--\":4807:4813   */\n      dup2\n        /* \"--CODEGEN--\":4804:4834   */\n      gt\n        /* \"--CODEGEN--\":4801:4803   */\n      iszero\n      tag_292\n      jumpi\n        /* \"--CODEGEN--\":4847:4848   */\n      0x0\n        /* \"--CODEGEN--\":4844:4845   */\n      dup1\n        /* \"--CODEGEN--\":4837:4849   */\n      revert\n        /* \"--CODEGEN--\":4801:4803   */\n    tag_292:\n        /* \"--CODEGEN--\":4867:4930   */\n      tag_293\n        /* \"--CODEGEN--\":4922:4929   */\n      dup14\n        /* \"--CODEGEN--\":4913:4919   */\n      dup3\n        /* \"--CODEGEN--\":4902:4911   */\n      dup15\n        /* \"--CODEGEN--\":4898:4920   */\n      add\n        /* \"--CODEGEN--\":4867:4930   */\n      jump(tag_242)\n    tag_293:\n        /* \"--CODEGEN--\":4857:4930   */\n      swap3\n      pop\n        /* \"--CODEGEN--\":4741:4936   */\n      pop\n        /* \"--CODEGEN--\":4995:4998   */\n      0x120\n        /* \"--CODEGEN--\":4984:4993   */\n      dup12\n        /* \"--CODEGEN--\":4980:4999   */\n      add\n        /* \"--CODEGEN--\":4967:5000   */\n      calldataload\n        /* \"--CODEGEN--\":5020:5038   */\n      0xffffffffffffffff\n        /* \"--CODEGEN--\":5012:5018   */\n      dup2\n        /* \"--CODEGEN--\":5009:5039   */\n      gt\n        /* \"--CODEGEN--\":5006:5008   */\n      iszero\n      tag_294\n      jumpi\n        /* \"--CODEGEN--\":5052:5053   */\n      0x0\n        /* \"--CODEGEN--\":5049:5050   */\n      dup1\n        /* \"--CODEGEN--\":5042:5054   */\n      revert\n        /* \"--CODEGEN--\":5006:5008   */\n    tag_294:\n        /* \"--CODEGEN--\":5072:5135   */\n      tag_295\n        /* \"--CODEGEN--\":5127:5134   */\n      dup14\n        /* \"--CODEGEN--\":5118:5124   */\n      dup3\n        /* \"--CODEGEN--\":5107:5116   */\n      dup15\n        /* \"--CODEGEN--\":5103:5125   */\n      add\n        /* \"--CODEGEN--\":5072:5135   */\n      jump(tag_242)\n    tag_295:\n        /* \"--CODEGEN--\":5062:5135   */\n      swap2\n      pop\n        /* \"--CODEGEN--\":4946:5141   */\n      pop\n        /* \"--CODEGEN--\":3133:5151   */\n      swap3\n      swap6\n      swap9\n      swap12\n      swap2\n      swap5\n      swap8\n      swap11\n      pop\n      swap3\n      swap6\n      swap9\n      pop\n      jump\n        /* \"--CODEGEN--\":5158:5399   */\n    tag_49:\n      0x0\n        /* \"--CODEGEN--\":5262:5264   */\n      0x20\n        /* \"--CODEGEN--\":5250:5259   */\n      dup3\n        /* \"--CODEGEN--\":5241:5248   */\n      dup5\n        /* \"--CODEGEN--\":5237:5260   */\n      sub\n        /* \"--CODEGEN--\":5233:5265   */\n      slt\n        /* \"--CODEGEN--\":5230:5232   */\n      iszero\n      tag_297\n      jumpi\n        /* \"--CODEGEN--\":5278:5279   */\n      0x0\n        /* \"--CODEGEN--\":5275:5276   */\n      dup1\n        /* \"--CODEGEN--\":5268:5280   */\n      revert\n        /* \"--CODEGEN--\":5230:5232   */\n    tag_297:\n        /* \"--CODEGEN--\":5313:5314   */\n      0x0\n        /* \"--CODEGEN--\":5330:5383   */\n      tag_298\n        /* \"--CODEGEN--\":5375:5382   */\n      dup5\n        /* \"--CODEGEN--\":5366:5372   */\n      dup3\n        /* \"--CODEGEN--\":5355:5364   */\n      dup6\n        /* \"--CODEGEN--\":5351:5373   */\n      add\n        /* \"--CODEGEN--\":5330:5383   */\n      jump(tag_252)\n    tag_298:\n        /* \"--CODEGEN--\":5320:5383   */\n      swap2\n      pop\n        /* \"--CODEGEN--\":5292:5389   */\n      pop\n        /* \"--CODEGEN--\":5224:5399   */\n      swap3\n      swap2\n      pop\n      pop\n      jump\n        /* \"--CODEGEN--\":5406:5516   */\n    tag_300:\n        /* \"--CODEGEN--\":5479:5510   */\n      tag_301\n        /* \"--CODEGEN--\":5504:5509   */\n      dup2\n        /* \"--CODEGEN--\":5479:5510   */\n      jump(tag_302)\n    tag_301:\n        /* \"--CODEGEN--\":5474:5477   */\n      dup3\n        /* \"--CODEGEN--\":5467:5511   */\n      mstore\n        /* \"--CODEGEN--\":5461:5516   */\n      pop\n      pop\n      jump\n        /* \"--CODEGEN--\":5554:6144   */\n    tag_304:\n      0x0\n        /* \"--CODEGEN--\":5689:5743   */\n      tag_305\n        /* \"--CODEGEN--\":5737:5742   */\n      dup3\n        /* \"--CODEGEN--\":5689:5743   */\n      jump(tag_306)\n    tag_305:\n        /* \"--CODEGEN--\":5761:5767   */\n      dup1\n        /* \"--CODEGEN--\":5756:5759   */\n      dup5\n        /* \"--CODEGEN--\":5749:5768   */\n      mstore\n        /* \"--CODEGEN--\":5785:5789   */\n      0x20\n        /* \"--CODEGEN--\":5780:5783   */\n      dup5\n        /* \"--CODEGEN--\":5776:5790   */\n      add\n        /* \"--CODEGEN--\":5769:5790   */\n      swap4\n      pop\n        /* \"--CODEGEN--\":5830:5886   */\n      tag_307\n        /* \"--CODEGEN--\":5880:5885   */\n      dup4\n        /* \"--CODEGEN--\":5830:5886   */\n      jump(tag_308)\n    tag_307:\n        /* \"--CODEGEN--\":5907:5908   */\n      0x0\n        /* \"--CODEGEN--\":5892:6122   */\n    tag_309:\n        /* \"--CODEGEN--\":5917:5923   */\n      dup3\n        /* \"--CODEGEN--\":5914:5915   */\n      dup2\n        /* \"--CODEGEN--\":5911:5924   */\n      lt\n        /* \"--CODEGEN--\":5892:6122   */\n      iszero\n      tag_310\n      jumpi\n        /* \"--CODEGEN--\":5957:6010   */\n      tag_312\n        /* \"--CODEGEN--\":6006:6009   */\n      dup7\n        /* \"--CODEGEN--\":5997:6003   */\n      dup4\n        /* \"--CODEGEN--\":5991:6004   */\n      mload\n        /* \"--CODEGEN--\":5957:6010   */\n      jump(tag_300)\n    tag_312:\n        /* \"--CODEGEN--\":6027:6087   */\n      tag_313\n        /* \"--CODEGEN--\":6080:6086   */\n      dup3\n        /* \"--CODEGEN--\":6027:6087   */\n      jump(tag_314)\n    tag_313:\n        /* \"--CODEGEN--\":6017:6087   */\n      swap2\n      pop\n        /* \"--CODEGEN--\":6110:6114   */\n      0x20\n        /* \"--CODEGEN--\":6105:6108   */\n      dup7\n        /* \"--CODEGEN--\":6101:6115   */\n      add\n        /* \"--CODEGEN--\":6094:6115   */\n      swap6\n      pop\n        /* \"--CODEGEN--\":5939:5940   */\n      0x1\n        /* \"--CODEGEN--\":5936:5937   */\n      dup2\n        /* \"--CODEGEN--\":5932:5941   */\n      add\n        /* \"--CODEGEN--\":5927:5941   */\n      swap1\n      pop\n        /* \"--CODEGEN--\":5892:6122   */\n      jump(tag_309)\n    tag_310:\n        /* \"--CODEGEN--\":5896:5910   */\n      pop\n        /* \"--CODEGEN--\":6135:6138   */\n      dup5\n        /* \"--CODEGEN--\":6128:6138   */\n      swap3\n      pop\n        /* \"--CODEGEN--\":5668:6144   */\n      pop\n      pop\n      swap3\n      swap2\n      pop\n      pop\n      jump\n        /* \"--CODEGEN--\":6152:6253   */\n    tag_316:\n        /* \"--CODEGEN--\":6219:6247   */\n      tag_317\n        /* \"--CODEGEN--\":6241:6246   */\n      dup2\n        /* \"--CODEGEN--\":6219:6247   */\n      jump(tag_318)\n    tag_317:\n        /* \"--CODEGEN--\":6214:6217   */\n      dup3\n        /* \"--CODEGEN--\":6207:6248   */\n      mstore\n        /* \"--CODEGEN--\":6201:6253   */\n      pop\n      pop\n      jump\n        /* \"--CODEGEN--\":6260:6560   */\n    tag_320:\n      0x0\n        /* \"--CODEGEN--\":6362:6401   */\n      tag_321\n        /* \"--CODEGEN--\":6395:6400   */\n      dup3\n        /* \"--CODEGEN--\":6362:6401   */\n      jump(tag_322)\n    tag_321:\n        /* \"--CODEGEN--\":6418:6424   */\n      dup1\n        /* \"--CODEGEN--\":6413:6416   */\n      dup5\n        /* \"--CODEGEN--\":6406:6425   */\n      mstore\n        /* \"--CODEGEN--\":6430:6493   */\n      tag_323\n        /* \"--CODEGEN--\":6486:6492   */\n      dup2\n        /* \"--CODEGEN--\":6479:6483   */\n      0x20\n        /* \"--CODEGEN--\":6474:6477   */\n      dup7\n        /* \"--CODEGEN--\":6470:6484   */\n      add\n        /* \"--CODEGEN--\":6463:6467   */\n      0x20\n        /* \"--CODEGEN--\":6456:6461   */\n      dup7\n        /* \"--CODEGEN--\":6452:6468   */\n      add\n        /* \"--CODEGEN--\":6430:6493   */\n      jump(tag_324)\n    tag_323:\n        /* \"--CODEGEN--\":6525:6554   */\n      tag_325\n        /* \"--CODEGEN--\":6547:6553   */\n      dup2\n        /* \"--CODEGEN--\":6525:6554   */\n      jump(tag_326)\n    tag_325:\n        /* \"--CODEGEN--\":6518:6522   */\n      0x20\n        /* \"--CODEGEN--\":6513:6516   */\n      dup6\n        /* \"--CODEGEN--\":6509:6523   */\n      add\n        /* \"--CODEGEN--\":6505:6555   */\n      add\n        /* \"--CODEGEN--\":6498:6555   */\n      swap2\n      pop\n        /* \"--CODEGEN--\":6342:6560   */\n      pop\n      swap3\n      swap2\n      pop\n      pop\n      jump\n        /* \"--CODEGEN--\":6567:6677   */\n    tag_328:\n        /* \"--CODEGEN--\":6640:6671   */\n      tag_329\n        /* \"--CODEGEN--\":6665:6670   */\n      dup2\n        /* \"--CODEGEN--\":6640:6671   */\n      jump(tag_330)\n    tag_329:\n        /* \"--CODEGEN--\":6635:6638   */\n      dup3\n        /* \"--CODEGEN--\":6628:6672   */\n      mstore\n        /* \"--CODEGEN--\":6622:6677   */\n      pop\n      pop\n      jump\n        /* \"--CODEGEN--\":6684:6877   */\n    tag_52:\n      0x0\n        /* \"--CODEGEN--\":6792:6794   */\n      0x20\n        /* \"--CODEGEN--\":6781:6790   */\n      dup3\n        /* \"--CODEGEN--\":6777:6795   */\n      add\n        /* \"--CODEGEN--\":6769:6795   */\n      swap1\n      pop\n        /* \"--CODEGEN--\":6806:6867   */\n      tag_332\n        /* \"--CODEGEN--\":6864:6865   */\n      0x0\n        /* \"--CODEGEN--\":6853:6862   */\n      dup4\n        /* \"--CODEGEN--\":6849:6866   */\n      add\n        /* \"--CODEGEN--\":6840:6846   */\n      dup5\n        /* \"--CODEGEN--\":6806:6867   */\n      jump(tag_300)\n    tag_332:\n        /* \"--CODEGEN--\":6763:6877   */\n      swap3\n      swap2\n      pop\n      pop\n      jump\n        /* \"--CODEGEN--\":6884:7225   */\n    tag_27:\n      0x0\n        /* \"--CODEGEN--\":7042:7044   */\n      0x20\n        /* \"--CODEGEN--\":7031:7040   */\n      dup3\n        /* \"--CODEGEN--\":7027:7045   */\n      add\n        /* \"--CODEGEN--\":7019:7045   */\n      swap1\n      pop\n        /* \"--CODEGEN--\":7092:7101   */\n      dup2\n        /* \"--CODEGEN--\":7086:7090   */\n      dup2\n        /* \"--CODEGEN--\":7082:7102   */\n      sub\n        /* \"--CODEGEN--\":7078:7079   */\n      0x0\n        /* \"--CODEGEN--\":7067:7076   */\n      dup4\n        /* \"--CODEGEN--\":7063:7080   */\n      add\n        /* \"--CODEGEN--\":7056:7103   */\n      mstore\n        /* \"--CODEGEN--\":7117:7215   */\n      tag_334\n        /* \"--CODEGEN--\":7210:7214   */\n      dup2\n        /* \"--CODEGEN--\":7201:7207   */\n      dup5\n        /* \"--CODEGEN--\":7117:7215   */\n      jump(tag_304)\n    tag_334:\n        /* \"--CODEGEN--\":7109:7215   */\n      swap1\n      pop\n        /* \"--CODEGEN--\":7013:7225   */\n      swap3\n      swap2\n      pop\n      pop\n      jump\n        /* \"--CODEGEN--\":7232:7413   */\n    tag_34:\n      0x0\n        /* \"--CODEGEN--\":7334:7336   */\n      0x20\n        /* \"--CODEGEN--\":7323:7332   */\n      dup3\n        /* \"--CODEGEN--\":7319:7337   */\n      add\n        /* \"--CODEGEN--\":7311:7337   */\n      swap1\n      pop\n        /* \"--CODEGEN--\":7348:7403   */\n      tag_336\n        /* \"--CODEGEN--\":7400:7401   */\n      0x0\n        /* \"--CODEGEN--\":7389:7398   */\n      dup4\n        /* \"--CODEGEN--\":7385:7402   */\n      add\n        /* \"--CODEGEN--\":7376:7382   */\n      dup5\n        /* \"--CODEGEN--\":7348:7403   */\n      jump(tag_316)\n    tag_336:\n        /* \"--CODEGEN--\":7305:7413   */\n      swap3\n      swap2\n      pop\n      pop\n      jump\n        /* \"--CODEGEN--\":7420:8649   */\n    tag_40:\n      0x0\n        /* \"--CODEGEN--\":7788:7791   */\n      0xc0\n        /* \"--CODEGEN--\":7777:7786   */\n      dup3\n        /* \"--CODEGEN--\":7773:7792   */\n      add\n        /* \"--CODEGEN--\":7765:7792   */\n      swap1\n      pop\n        /* \"--CODEGEN--\":7839:7848   */\n      dup2\n        /* \"--CODEGEN--\":7833:7837   */\n      dup2\n        /* \"--CODEGEN--\":7829:7849   */\n      sub\n        /* \"--CODEGEN--\":7825:7826   */\n      0x0\n        /* \"--CODEGEN--\":7814:7823   */\n      dup4\n        /* \"--CODEGEN--\":7810:7827   */\n      add\n        /* \"--CODEGEN--\":7803:7850   */\n      mstore\n        /* \"--CODEGEN--\":7864:7932   */\n      tag_338\n        /* \"--CODEGEN--\":7927:7931   */\n      dup2\n        /* \"--CODEGEN--\":7918:7924   */\n      dup10\n        /* \"--CODEGEN--\":7864:7932   */\n      jump(tag_320)\n    tag_338:\n        /* \"--CODEGEN--\":7856:7932   */\n      swap1\n      pop\n        /* \"--CODEGEN--\":7980:7989   */\n      dup2\n        /* \"--CODEGEN--\":7974:7978   */\n      dup2\n        /* \"--CODEGEN--\":7970:7990   */\n      sub\n        /* \"--CODEGEN--\":7965:7967   */\n      0x20\n        /* \"--CODEGEN--\":7954:7963   */\n      dup4\n        /* \"--CODEGEN--\":7950:7968   */\n      add\n        /* \"--CODEGEN--\":7943:7991   */\n      mstore\n        /* \"--CODEGEN--\":8005:8073   */\n      tag_339\n        /* \"--CODEGEN--\":8068:8072   */\n      dup2\n        /* \"--CODEGEN--\":8059:8065   */\n      dup9\n        /* \"--CODEGEN--\":8005:8073   */\n      jump(tag_320)\n    tag_339:\n        /* \"--CODEGEN--\":7997:8073   */\n      swap1\n      pop\n        /* \"--CODEGEN--\":8121:8130   */\n      dup2\n        /* \"--CODEGEN--\":8115:8119   */\n      dup2\n        /* \"--CODEGEN--\":8111:8131   */\n      sub\n        /* \"--CODEGEN--\":8106:8108   */\n      0x40\n        /* \"--CODEGEN--\":8095:8104   */\n      dup4\n        /* \"--CODEGEN--\":8091:8109   */\n      add\n        /* \"--CODEGEN--\":8084:8132   */\n      mstore\n        /* \"--CODEGEN--\":8146:8214   */\n      tag_340\n        /* \"--CODEGEN--\":8209:8213   */\n      dup2\n        /* \"--CODEGEN--\":8200:8206   */\n      dup8\n        /* \"--CODEGEN--\":8146:8214   */\n      jump(tag_320)\n    tag_340:\n        /* \"--CODEGEN--\":8138:8214   */\n      swap1\n      pop\n        /* \"--CODEGEN--\":8262:8271   */\n      dup2\n        /* \"--CODEGEN--\":8256:8260   */\n      dup2\n        /* \"--CODEGEN--\":8252:8272   */\n      sub\n        /* \"--CODEGEN--\":8247:8249   */\n      0x60\n        /* \"--CODEGEN--\":8236:8245   */\n      dup4\n        /* \"--CODEGEN--\":8232:8250   */\n      add\n        /* \"--CODEGEN--\":8225:8273   */\n      mstore\n        /* \"--CODEGEN--\":8287:8355   */\n      tag_341\n        /* \"--CODEGEN--\":8350:8354   */\n      dup2\n        /* \"--CODEGEN--\":8341:8347   */\n      dup7\n        /* \"--CODEGEN--\":8287:8355   */\n      jump(tag_320)\n    tag_341:\n        /* \"--CODEGEN--\":8279:8355   */\n      swap1\n      pop\n        /* \"--CODEGEN--\":8404:8413   */\n      dup2\n        /* \"--CODEGEN--\":8398:8402   */\n      dup2\n        /* \"--CODEGEN--\":8394:8414   */\n      sub\n        /* \"--CODEGEN--\":8388:8391   */\n      0x80\n        /* \"--CODEGEN--\":8377:8386   */\n      dup4\n        /* \"--CODEGEN--\":8373:8392   */\n      add\n        /* \"--CODEGEN--\":8366:8415   */\n      mstore\n        /* \"--CODEGEN--\":8429:8497   */\n      tag_342\n        /* \"--CODEGEN--\":8492:8496   */\n      dup2\n        /* \"--CODEGEN--\":8483:8489   */\n      dup6\n        /* \"--CODEGEN--\":8429:8497   */\n      jump(tag_320)\n    tag_342:\n        /* \"--CODEGEN--\":8421:8497   */\n      swap1\n      pop\n        /* \"--CODEGEN--\":8546:8555   */\n      dup2\n        /* \"--CODEGEN--\":8540:8544   */\n      dup2\n        /* \"--CODEGEN--\":8536:8556   */\n      sub\n        /* \"--CODEGEN--\":8530:8533   */\n      0xa0\n        /* \"--CODEGEN--\":8519:8528   */\n      dup4\n        /* \"--CODEGEN--\":8515:8534   */\n      add\n        /* \"--CODEGEN--\":8508:8557   */\n      mstore\n        /* \"--CODEGEN--\":8571:8639   */\n      tag_343\n        /* \"--CODEGEN--\":8634:8638   */\n      dup2\n        /* \"--CODEGEN--\":8625:8631   */\n      dup5\n        /* \"--CODEGEN--\":8571:8639   */\n      jump(tag_320)\n    tag_343:\n        /* \"--CODEGEN--\":8563:8639   */\n      swap1\n      pop\n        /* \"--CODEGEN--\":7759:8649   */\n      swap8\n      swap7\n      pop\n      pop\n      pop\n      pop\n      pop\n      pop\n      pop\n      jump\n        /* \"--CODEGEN--\":8656:10075   */\n    tag_121:\n      0x0\n        /* \"--CODEGEN--\":9072:9075   */\n      0xe0\n        /* \"--CODEGEN--\":9061:9070   */\n      dup3\n        /* \"--CODEGEN--\":9057:9076   */\n      add\n        /* \"--CODEGEN--\":9049:9076   */\n      swap1\n      pop\n        /* \"--CODEGEN--\":9123:9132   */\n      dup2\n        /* \"--CODEGEN--\":9117:9121   */\n      dup2\n        /* \"--CODEGEN--\":9113:9133   */\n      sub\n        /* \"--CODEGEN--\":9109:9110   */\n      0x0\n        /* \"--CODEGEN--\":9098:9107   */\n      dup4\n        /* \"--CODEGEN--\":9094:9111   */\n      add\n        /* \"--CODEGEN--\":9087:9134   */\n      mstore\n        /* \"--CODEGEN--\":9148:9216   */\n      tag_345\n        /* \"--CODEGEN--\":9211:9215   */\n      dup2\n        /* \"--CODEGEN--\":9202:9208   */\n      dup11\n        /* \"--CODEGEN--\":9148:9216   */\n      jump(tag_320)\n    tag_345:\n        /* \"--CODEGEN--\":9140:9216   */\n      swap1\n      pop\n        /* \"--CODEGEN--\":9264:9273   */\n      dup2\n        /* \"--CODEGEN--\":9258:9262   */\n      dup2\n        /* \"--CODEGEN--\":9254:9274   */\n      sub\n        /* \"--CODEGEN--\":9249:9251   */\n      0x20\n        /* \"--CODEGEN--\":9238:9247   */\n      dup4\n        /* \"--CODEGEN--\":9234:9252   */\n      add\n        /* \"--CODEGEN--\":9227:9275   */\n      mstore\n        /* \"--CODEGEN--\":9289:9357   */\n      tag_346\n        /* \"--CODEGEN--\":9352:9356   */\n      dup2\n        /* \"--CODEGEN--\":9343:9349   */\n      dup10\n        /* \"--CODEGEN--\":9289:9357   */\n      jump(tag_320)\n    tag_346:\n        /* \"--CODEGEN--\":9281:9357   */\n      swap1\n      pop\n        /* \"--CODEGEN--\":9405:9414   */\n      dup2\n        /* \"--CODEGEN--\":9399:9403   */\n      dup2\n        /* \"--CODEGEN--\":9395:9415   */\n      sub\n        /* \"--CODEGEN--\":9390:9392   */\n      0x40\n        /* \"--CODEGEN--\":9379:9388   */\n      dup4\n        /* \"--CODEGEN--\":9375:9393   */\n      add\n        /* \"--CODEGEN--\":9368:9416   */\n      mstore\n        /* \"--CODEGEN--\":9430:9498   */\n      tag_347\n        /* \"--CODEGEN--\":9493:9497   */\n      dup2\n        /* \"--CODEGEN--\":9484:9490   */\n      dup9\n        /* \"--CODEGEN--\":9430:9498   */\n      jump(tag_320)\n    tag_347:\n        /* \"--CODEGEN--\":9422:9498   */\n      swap1\n      pop\n        /* \"--CODEGEN--\":9546:9555   */\n      dup2\n        /* \"--CODEGEN--\":9540:9544   */\n      dup2\n        /* \"--CODEGEN--\":9536:9556   */\n      sub\n        /* \"--CODEGEN--\":9531:9533   */\n      0x60\n        /* \"--CODEGEN--\":9520:9529   */\n      dup4\n        /* \"--CODEGEN--\":9516:9534   */\n      add\n        /* \"--CODEGEN--\":9509:9557   */\n      mstore\n        /* \"--CODEGEN--\":9571:9639   */\n      tag_348\n        /* \"--CODEGEN--\":9634:9638   */\n      dup2\n        /* \"--CODEGEN--\":9625:9631   */\n      dup8\n        /* \"--CODEGEN--\":9571:9639   */\n      jump(tag_320)\n    tag_348:\n        /* \"--CODEGEN--\":9563:9639   */\n      swap1\n      pop\n        /* \"--CODEGEN--\":9688:9697   */\n      dup2\n        /* \"--CODEGEN--\":9682:9686   */\n      dup2\n        /* \"--CODEGEN--\":9678:9698   */\n      sub\n        /* \"--CODEGEN--\":9672:9675   */\n      0x80\n        /* \"--CODEGEN--\":9661:9670   */\n      dup4\n        /* \"--CODEGEN--\":9657:9676   */\n      add\n        /* \"--CODEGEN--\":9650:9699   */\n      mstore\n        /* \"--CODEGEN--\":9713:9781   */\n      tag_349\n        /* \"--CODEGEN--\":9776:9780   */\n      dup2\n        /* \"--CODEGEN--\":9767:9773   */\n      dup7\n        /* \"--CODEGEN--\":9713:9781   */\n      jump(tag_320)\n    tag_349:\n        /* \"--CODEGEN--\":9705:9781   */\n      swap1\n      pop\n        /* \"--CODEGEN--\":9830:9839   */\n      dup2\n        /* \"--CODEGEN--\":9824:9828   */\n      dup2\n        /* \"--CODEGEN--\":9820:9840   */\n      sub\n        /* \"--CODEGEN--\":9814:9817   */\n      0xa0\n        /* \"--CODEGEN--\":9803:9812   */\n      dup4\n        /* \"--CODEGEN--\":9799:9818   */\n      add\n        /* \"--CODEGEN--\":9792:9841   */\n      mstore\n        /* \"--CODEGEN--\":9855:9923   */\n      tag_350\n        /* \"--CODEGEN--\":9918:9922   */\n      dup2\n        /* \"--CODEGEN--\":9909:9915   */\n      dup6\n        /* \"--CODEGEN--\":9855:9923   */\n      jump(tag_320)\n    tag_350:\n        /* \"--CODEGEN--\":9847:9923   */\n      swap1\n      pop\n        /* \"--CODEGEN--\":9972:9981   */\n      dup2\n        /* \"--CODEGEN--\":9966:9970   */\n      dup2\n        /* \"--CODEGEN--\":9962:9982   */\n      sub\n        /* \"--CODEGEN--\":9956:9959   */\n      0xc0\n        /* \"--CODEGEN--\":9945:9954   */\n      dup4\n        /* \"--CODEGEN--\":9941:9960   */\n      add\n        /* \"--CODEGEN--\":9934:9983   */\n      mstore\n        /* \"--CODEGEN--\":9997:10065   */\n      tag_351\n        /* \"--CODEGEN--\":10060:10064   */\n      dup2\n        /* \"--CODEGEN--\":10051:10057   */\n      dup5\n        /* \"--CODEGEN--\":9997:10065   */\n      jump(tag_320)\n    tag_351:\n        /* \"--CODEGEN--\":9989:10065   */\n      swap1\n      pop\n        /* \"--CODEGEN--\":9043:10075   */\n      swap9\n      swap8\n      pop\n      pop\n      pop\n      pop\n      pop\n      pop\n      pop\n      pop\n      jump\n        /* \"--CODEGEN--\":10082:10275   */\n    tag_45:\n      0x0\n        /* \"--CODEGEN--\":10190:10192   */\n      0x20\n        /* \"--CODEGEN--\":10179:10188   */\n      dup3\n        /* \"--CODEGEN--\":10175:10193   */\n      add\n        /* \"--CODEGEN--\":10167:10193   */\n      swap1\n      pop\n        /* \"--CODEGEN--\":10204:10265   */\n      tag_353\n        /* \"--CODEGEN--\":10262:10263   */\n      0x0\n        /* \"--CODEGEN--\":10251:10260   */\n      dup4\n        /* \"--CODEGEN--\":10247:10264   */\n      add\n        /* \"--CODEGEN--\":10238:10244   */\n      dup5\n        /* \"--CODEGEN--\":10204:10265   */\n      jump(tag_328)\n    tag_353:\n        /* \"--CODEGEN--\":10161:10275   */\n      swap3\n      swap2\n      pop\n      pop\n      jump\n        /* \"--CODEGEN--\":10282:10538   */\n    tag_247:\n      0x0\n        /* \"--CODEGEN--\":10344:10346   */\n      0x40\n        /* \"--CODEGEN--\":10338:10347   */\n      mload\n        /* \"--CODEGEN--\":10328:10347   */\n      swap1\n      pop\n        /* \"--CODEGEN--\":10382:10386   */\n      dup2\n        /* \"--CODEGEN--\":10374:10380   */\n      dup2\n        /* \"--CODEGEN--\":10370:10387   */\n      add\n        /* \"--CODEGEN--\":10481:10487   */\n      dup2\n        /* \"--CODEGEN--\":10469:10479   */\n      dup2\n        /* \"--CODEGEN--\":10466:10488   */\n      lt\n        /* \"--CODEGEN--\":10445:10463   */\n      0xffffffffffffffff\n        /* \"--CODEGEN--\":10433:10443   */\n      dup3\n        /* \"--CODEGEN--\":10430:10464   */\n      gt\n        /* \"--CODEGEN--\":10427:10489   */\n      or\n        /* \"--CODEGEN--\":10424:10426   */\n      iszero\n      tag_355\n      jumpi\n        /* \"--CODEGEN--\":10502:10503   */\n      0x0\n        /* \"--CODEGEN--\":10499:10500   */\n      dup1\n        /* \"--CODEGEN--\":10492:10504   */\n      revert\n        /* \"--CODEGEN--\":10424:10426   */\n    tag_355:\n        /* \"--CODEGEN--\":10522:10532   */\n      dup1\n        /* \"--CODEGEN--\":10518:10520   */\n      0x40\n        /* \"--CODEGEN--\":10511:10533   */\n      mstore\n        /* \"--CODEGEN--\":10322:10538   */\n      pop\n      swap2\n      swap1\n      pop\n      jump\n        /* \"--CODEGEN--\":10545:10804   */\n    tag_246:\n      0x0\n        /* \"--CODEGEN--\":10689:10707   */\n      0xffffffffffffffff\n        /* \"--CODEGEN--\":10681:10687   */\n      dup3\n        /* \"--CODEGEN--\":10678:10708   */\n      gt\n        /* \"--CODEGEN--\":10675:10677   */\n      iszero\n      tag_357\n      jumpi\n        /* \"--CODEGEN--\":10721:10722   */\n      0x0\n        /* \"--CODEGEN--\":10718:10719   */\n      dup1\n        /* \"--CODEGEN--\":10711:10723   */\n      revert\n        /* \"--CODEGEN--\":10675:10677   */\n    tag_357:\n        /* \"--CODEGEN--\":10765:10769   */\n      0x1f\n        /* \"--CODEGEN--\":10761:10770   */\n      not\n        /* \"--CODEGEN--\":10754:10758   */\n      0x1f\n        /* \"--CODEGEN--\":10746:10752   */\n      dup4\n        /* \"--CODEGEN--\":10742:10759   */\n      add\n        /* \"--CODEGEN--\":10738:10771   */\n      and\n        /* \"--CODEGEN--\":10730:10771   */\n      swap1\n      pop\n        /* \"--CODEGEN--\":10794:10798   */\n      0x20\n        /* \"--CODEGEN--\":10788:10792   */\n      dup2\n        /* \"--CODEGEN--\":10784:10799   */\n      add\n        /* \"--CODEGEN--\":10776:10799   */\n      swap1\n      pop\n        /* \"--CODEGEN--\":10612:10804   */\n      swap2\n      swap1\n      pop\n      jump\n        /* \"--CODEGEN--\":10813:10934   */\n    tag_308:\n      0x0\n        /* \"--CODEGEN--\":10922:10926   */\n      0x20\n        /* \"--CODEGEN--\":10914:10920   */\n      dup3\n        /* \"--CODEGEN--\":10910:10927   */\n      add\n        /* \"--CODEGEN--\":10899:10927   */\n      swap1\n      pop\n        /* \"--CODEGEN--\":10891:10934   */\n      swap2\n      swap1\n      pop\n      jump\n        /* \"--CODEGEN--\":10943:11050   */\n    tag_306:\n      0x0\n        /* \"--CODEGEN--\":11039:11044   */\n      dup2\n        /* \"--CODEGEN--\":11033:11045   */\n      mload\n        /* \"--CODEGEN--\":11023:11045   */\n      swap1\n      pop\n        /* \"--CODEGEN--\":11017:11050   */\n      swap2\n      swap1\n      pop\n      jump\n        /* \"--CODEGEN--\":11057:11149   */\n    tag_322:\n      0x0\n        /* \"--CODEGEN--\":11138:11143   */\n      dup2\n        /* \"--CODEGEN--\":11132:11144   */\n      mload\n        /* \"--CODEGEN--\":11122:11144   */\n      swap1\n      pop\n        /* \"--CODEGEN--\":11116:11149   */\n      swap2\n      swap1\n      pop\n      jump\n        /* \"--CODEGEN--\":11157:11279   */\n    tag_314:\n      0x0\n        /* \"--CODEGEN--\":11268:11272   */\n      0x20\n        /* \"--CODEGEN--\":11260:11266   */\n      dup3\n        /* \"--CODEGEN--\":11256:11273   */\n      add\n        /* \"--CODEGEN--\":11245:11273   */\n      swap1\n      pop\n        /* \"--CODEGEN--\":11238:11279   */\n      swap2\n      swap1\n      pop\n      jump\n        /* \"--CODEGEN--\":11287:11415   */\n    tag_302:\n      0x0\n        /* \"--CODEGEN--\":11367:11409   */\n      0xffffffffffffffffffffffffffffffffffffffff\n        /* \"--CODEGEN--\":11360:11365   */\n      dup3\n        /* \"--CODEGEN--\":11356:11410   */\n      and\n        /* \"--CODEGEN--\":11345:11410   */\n      swap1\n      pop\n        /* \"--CODEGEN--\":11339:11415   */\n      swap2\n      swap1\n      pop\n      jump\n        /* \"--CODEGEN--\":11422:11514   */\n    tag_318:\n      0x0\n        /* \"--CODEGEN--\":11502:11507   */\n      dup2\n        /* \"--CODEGEN--\":11495:11508   */\n      iszero\n        /* \"--CODEGEN--\":11488:11509   */\n      iszero\n        /* \"--CODEGEN--\":11477:11509   */\n      swap1\n      pop\n        /* \"--CODEGEN--\":11471:11514   */\n      swap2\n      swap1\n      pop\n      jump\n        /* \"--CODEGEN--\":11521:11600   */\n    tag_330:\n      0x0\n        /* \"--CODEGEN--\":11590:11595   */\n      dup2\n        /* \"--CODEGEN--\":11579:11595   */\n      swap1\n      pop\n        /* \"--CODEGEN--\":11573:11600   */\n      swap2\n      swap1\n      pop\n      jump\n        /* \"--CODEGEN--\":11607:11735   */\n    tag_240:\n      0x0\n        /* \"--CODEGEN--\":11687:11729   */\n      0xffffffffffffffffffffffffffffffffffffffff\n        /* \"--CODEGEN--\":11680:11685   */\n      dup3\n        /* \"--CODEGEN--\":11676:11730   */\n      and\n        /* \"--CODEGEN--\":11665:11730   */\n      swap1\n      pop\n        /* \"--CODEGEN--\":11659:11735   */\n      swap2\n      swap1\n      pop\n      jump\n        /* \"--CODEGEN--\":11742:11821   */\n    tag_254:\n      0x0\n        /* \"--CODEGEN--\":11811:11816   */\n      dup2\n        /* \"--CODEGEN--\":11800:11816   */\n      swap1\n      pop\n        /* \"--CODEGEN--\":11794:11821   */\n      swap2\n      swap1\n      pop\n      jump\n        /* \"--CODEGEN--\":11829:11974   */\n    tag_250:\n        /* \"--CODEGEN--\":11910:11916   */\n      dup3\n        /* \"--CODEGEN--\":11905:11908   */\n      dup2\n        /* \"--CODEGEN--\":11900:11903   */\n      dup4\n        /* \"--CODEGEN--\":11887:11917   */\n      calldatacopy\n        /* \"--CODEGEN--\":11966:11967   */\n      0x0\n        /* \"--CODEGEN--\":11957:11963   */\n      dup4\n        /* \"--CODEGEN--\":11952:11955   */\n      dup4\n        /* \"--CODEGEN--\":11948:11964   */\n      add\n        /* \"--CODEGEN--\":11941:11968   */\n      mstore\n        /* \"--CODEGEN--\":11880:11974   */\n      pop\n      pop\n      pop\n      jump\n        /* \"--CODEGEN--\":11983:12251   */\n    tag_324:\n        /* \"--CODEGEN--\":12048:12049   */\n      0x0\n        /* \"--CODEGEN--\":12055:12156   */\n    tag_369:\n        /* \"--CODEGEN--\":12069:12075   */\n      dup4\n        /* \"--CODEGEN--\":12066:12067   */\n      dup2\n        /* \"--CODEGEN--\":12063:12076   */\n      lt\n        /* \"--CODEGEN--\":12055:12156   */\n      iszero\n      tag_370\n      jumpi\n        /* \"--CODEGEN--\":12145:12146   */\n      dup1\n        /* \"--CODEGEN--\":12140:12143   */\n      dup3\n        /* \"--CODEGEN--\":12136:12147   */\n      add\n        /* \"--CODEGEN--\":12130:12148   */\n      mload\n        /* \"--CODEGEN--\":12126:12127   */\n      dup2\n        /* \"--CODEGEN--\":12121:12124   */\n      dup5\n        /* \"--CODEGEN--\":12117:12128   */\n      add\n        /* \"--CODEGEN--\":12110:12149   */\n      mstore\n        /* \"--CODEGEN--\":12091:12093   */\n      0x20\n        /* \"--CODEGEN--\":12088:12089   */\n      dup2\n        /* \"--CODEGEN--\":12084:12094   */\n      add\n        /* \"--CODEGEN--\":12079:12094   */\n      swap1\n      pop\n        /* \"--CODEGEN--\":12055:12156   */\n      jump(tag_369)\n    tag_370:\n        /* \"--CODEGEN--\":12171:12177   */\n      dup4\n        /* \"--CODEGEN--\":12168:12169   */\n      dup2\n        /* \"--CODEGEN--\":12165:12178   */\n      gt\n        /* \"--CODEGEN--\":12162:12164   */\n      iszero\n      tag_372\n      jumpi\n        /* \"--CODEGEN--\":12236:12237   */\n      0x0\n        /* \"--CODEGEN--\":12227:12233   */\n      dup5\n        /* \"--CODEGEN--\":12222:12225   */\n      dup5\n        /* \"--CODEGEN--\":12218:12234   */\n      add\n        /* \"--CODEGEN--\":12211:12238   */\n      mstore\n        /* \"--CODEGEN--\":12162:12164   */\n    tag_372:\n        /* \"--CODEGEN--\":12032:12251   */\n      pop\n      pop\n      pop\n      pop\n      jump\n        /* \"--CODEGEN--\":12259:12356   */\n    tag_326:\n      0x0\n        /* \"--CODEGEN--\":12347:12349   */\n      0x1f\n        /* \"--CODEGEN--\":12343:12350   */\n      not\n        /* \"--CODEGEN--\":12338:12340   */\n      0x1f\n        /* \"--CODEGEN--\":12331:12336   */\n      dup4\n        /* \"--CODEGEN--\":12327:12341   */\n      add\n        /* \"--CODEGEN--\":12323:12351   */\n      and\n        /* \"--CODEGEN--\":12313:12351   */\n      swap1\n      pop\n        /* \"--CODEGEN--\":12307:12356   */\n      swap2\n      swap1\n      pop\n      jump\n\n    auxdata: 0xa265627a7a72305820590d2907cd41b6d42fa37e0aab7370578b80ce5ae2009041c7fc1f11f3f5b18e6c6578706572696d656e74616cf50037\n}\n",
				"bytecode": {
					"linkReferences": {},
					"object": "6080604052600060085560006009556000600a5573c50c6297f56b033633c30354a854b074749cd2dc600b60006101000a81548173ffffffffffffffffffffffffffffffffffffffff021916908373ffffffffffffffffffffffffffffffffffffffff16021790555034801561007457600080fd5b50612758806100846000396000f30060806040526004361061011c576000357c0100000000000000000000000000000000000000000000000000000000900463ffffffff168062ce8e3e1461012157806302516abd1461014c578063076fd2f81461018957806307973ccf146101cb578063127ca4b4146101f657806316e0a6111461023357806317e511111461025c57806324c24b2b146102855780633d391f70146102b05780636cdb2278146102ed578063779a95761461031657806378522bc41461033f57806379111c1c1461036a5780638da5cb5b146103955780638f84aa09146103c05780639f4216e8146103d7578063a5d043d114610414578063b13d5d941461043f578063b5cb15f71461046a578063b744ff4d14610495578063caee6c85146104c0575b600080fd5b34801561012d57600080fd5b50610136610503565b604051610143919061245f565b60405180910390f35b34801561015857600080fd5b50610173600480360361016e9190810190612027565b610591565b6040516101809190612481565b60405180910390f35b34801561019557600080fd5b506101b060048036036101ab9190810190612027565b610630565b6040516101c29695949392919061249c565b60405180910390f35b3480156101d757600080fd5b506101e0610ae7565b6040516101ed91906125c7565b60405180910390f35b34801561020257600080fd5b5061021d6004803603610218919081019061235d565b610aed565b60405161022a9190612444565b60405180910390f35b34801561023f57600080fd5b5061025a60048036036102559190810190612050565b610b2b565b005b34801561026857600080fd5b50610283600480360361027e9190810190612050565b610d1f565b005b34801561029157600080fd5b5061029a611139565b6040516102a791906125c7565b60405180910390f35b3480156102bc57600080fd5b506102d760048036036102d29190810190612027565b611143565b6040516102e49190612481565b60405180910390f35b3480156102f957600080fd5b50610314600480360361030f91908101906121aa565b6111f5565b005b34801561032257600080fd5b5061033d600480360361033891908101906121aa565b611643565b005b34801561034b57600080fd5b5061035461186b565b60405161036191906125c7565b60405180910390f35b34801561037657600080fd5b5061037f611871565b60405161038c91906125c7565b60405180910390f35b3480156103a157600080fd5b506103aa61187b565b6040516103b79190612444565b60405180910390f35b3480156103cc57600080fd5b506103d56118a0565b005b3480156103e357600080fd5b506103fe60048036036103f9919081019061235d565b6118e2565b60405161040b9190612444565b60405180910390f35b34801561042057600080fd5b50610429611920565b60405161043691906125c7565b60405180910390f35b34801561044b57600080fd5b50610454611926565b604051610461919061245f565b60405180910390f35b34801561047657600080fd5b5061047f6119b4565b60405161048c91906125c7565b60405180910390f35b3480156104a157600080fd5b506104aa6119be565b6040516104b79190612444565b60405180910390f35b3480156104cc57600080fd5b506104e760048036036104e29190810190612027565b6119e4565b6040516104fa9796959493929190612527565b60405180910390f35b6060600180548060200260200160405190810160405280929190818152602001828054801561058757602002820191906000526020600020905b8160009054906101000a900473ffffffffffffffffffffffffffffffffffffffff1673ffffffffffffffffffffffffffffffffffffffff168152602001906001019080831161053d575b5050505050905090565b600080600560003373ffffffffffffffffffffffffffffffffffffffff1673ffffffffffffffffffffffffffffffffffffffff16815260200190815260200160002060008473ffffffffffffffffffffffffffffffffffffffff1673ffffffffffffffffffffffffffffffffffffffff16815260200190815260200160002060006101000a81548160ff02191690831515021790555060019050919050565b6060806060806060806000600560008973ffffffffffffffffffffffffffffffffffffffff1673ffffffffffffffffffffffffffffffffffffffff16815260200190815260200160002060003373ffffffffffffffffffffffffffffffffffffffff1673ffffffffffffffffffffffffffffffffffffffff16815260200190815260200160002060009054906101000a900460ff1615156106d057600080fd5b600360008973ffffffffffffffffffffffffffffffffffffffff1673ffffffffffffffffffffffffffffffffffffffff1681526020019081526020016000209050806000018160010182600201836003018460040185600501858054600181600116156101000203166002900480601f0160208091040260200160405190810160405280929190818152602001828054600181600116156101000203166002900480156107be5780601f10610793576101008083540402835291602001916107be565b820191906000526020600020905b8154815290600101906020018083116107a157829003601f168201915b50505050509550848054600181600116156101000203166002900480601f01602080910402602001604051908101604052809291908181526020018280546001816001161561010002031660029004801561085a5780601f1061082f5761010080835404028352916020019161085a565b820191906000526020600020905b81548152906001019060200180831161083d57829003601f168201915b50505050509450838054600181600116156101000203166002900480601f0160208091040260200160405190810160405280929190818152602001828054600181600116156101000203166002900480156108f65780601f106108cb576101008083540402835291602001916108f6565b820191906000526020600020905b8154815290600101906020018083116108d957829003601f168201915b50505050509350828054600181600116156101000203166002900480601f0160208091040260200160405190810160405280929190818152602001828054600181600116156101000203166002900480156109925780601f1061096757610100808354040283529160200191610992565b820191906000526020600020905b81548152906001019060200180831161097557829003601f168201915b50505050509250818054600181600116156101000203166002900480601f016020809104026020016040519081016040528092919081815260200182805460018160011615610100020316600290048015610a2e5780601f10610a0357610100808354040283529160200191610a2e565b820191906000526020600020905b815481529060010190602001808311610a1157829003601f168201915b50505050509150808054600181600116156101000203166002900480601f016020809104026020016040519081016040528092919081815260200182805460018160011615610100020316600290048015610aca5780601f10610a9f57610100808354040283529160200191610aca565b820191906000526020600020905b815481529060010190602001808311610aad57829003601f168201915b505050505090509650965096509650965096505091939550919395565b60085481565b600281815481101515610afc57fe5b906000526020600020016000915054906101000a900473ffffffffffffffffffffffffffffffffffffffff1681565b6000600b60009054906101000a900473ffffffffffffffffffffffffffffffffffffffff1673ffffffffffffffffffffffffffffffffffffffff163373ffffffffffffffffffffffffffffffffffffffff16141515610b8957600080fd5b600760008a73ffffffffffffffffffffffffffffffffffffffff1673ffffffffffffffffffffffffffffffffffffffff16815260200190815260200160002060009054906101000a900460ff161515610be157600080fd5b600460008a73ffffffffffffffffffffffffffffffffffffffff1673ffffffffffffffffffffffffffffffffffffffff168152602001908152602001600020905087816000019080519060200190610c3a929190611f04565b5086816001019080519060200190610c53929190611f04565b5085816002019080519060200190610c6c929190611f04565b5084816003019080519060200190610c85929190611f04565b5083816004019080519060200190610c9e929190611f04565b5082816007019080519060200190610cb7929190611f04565b5081816008019080519060200190610cd0929190611f04565b50888160090160006101000a81548173ffffffffffffffffffffffffffffffffffffffff021916908373ffffffffffffffffffffffffffffffffffffffff160217905550505050505050505050565b6000600b60009054906101000a900473ffffffffffffffffffffffffffffffffffffffff1673ffffffffffffffffffffffffffffffffffffffff163373ffffffffffffffffffffffffffffffffffffffff16141515610d7d57600080fd5b600760008a73ffffffffffffffffffffffffffffffffffffffff1673ffffffffffffffffffffffffffffffffffffffff16815260200190815260200160002060009054906101000a900460ff16151515610dd657600080fd5b600460008a73ffffffffffffffffffffffffffffffffffffffff1673ffffffffffffffffffffffffffffffffffffffff168152602001908152602001600020905087816000019080519060200190610e2f929190611f04565b5086816001019080519060200190610e48929190611f04565b5085816002019080519060200190610e61929190611f04565b5084816003019080519060200190610e7a929190611f04565b5083816004019080519060200190610e93929190611f04565b5082816007019080519060200190610eac929190611f04565b5081816008019080519060200190610ec5929190611f04565b50888160090160006101000a81548173ffffffffffffffffffffffffffffffffffffffff021916908373ffffffffffffffffffffffffffffffffffffffff1602179055504281600a018190555060028990806001815401808255809150509060018203906000526020600020016000909192909190916101000a81548173ffffffffffffffffffffffffffffffffffffffff021916908373ffffffffffffffffffffffffffffffffffffffff160217905550506001600760008b73ffffffffffffffffffffffffffffffffffffffff1673ffffffffffffffffffffffffffffffffffffffff16815260200190815260200160002060006101000a81548160ff0219169083151502179055506001600560008b73ffffffffffffffffffffffffffffffffffffffff1673ffffffffffffffffffffffffffffffffffffffff16815260200190815260200160002060008b73ffffffffffffffffffffffffffffffffffffffff1673ffffffffffffffffffffffffffffffffffffffff16815260200190815260200160002060006101000a81548160ff0219169083151502179055506001600560008b73ffffffffffffffffffffffffffffffffffffffff1673ffffffffffffffffffffffffffffffffffffffff1681526020019081526020016000206000600b60009054906101000a900473ffffffffffffffffffffffffffffffffffffffff1673ffffffffffffffffffffffffffffffffffffffff1673ffffffffffffffffffffffffffffffffffffffff16815260200190815260200160002060006101000a81548160ff021916908315150217905550600960008154809291906001019190505550505050505050505050565b6000600a54905090565b60006001600560003373ffffffffffffffffffffffffffffffffffffffff1673ffffffffffffffffffffffffffffffffffffffff16815260200190815260200160002060008473ffffffffffffffffffffffffffffffffffffffff1673ffffffffffffffffffffffffffffffffffffffff16815260200190815260200160002060006101000a81548160ff021916908315150217905550600a6000815480929190600101919050555060019050919050565b6000600b60009054906101000a900473ffffffffffffffffffffffffffffffffffffffff1673ffffffffffffffffffffffffffffffffffffffff163373ffffffffffffffffffffffffffffffffffffffff1614151561125357600080fd5b600660008c73ffffffffffffffffffffffffffffffffffffffff1673ffffffffffffffffffffffffffffffffffffffff16815260200190815260200160002060009054906101000a900460ff161515156112ac57600080fd5b600360008c73ffffffffffffffffffffffffffffffffffffffff1673ffffffffffffffffffffffffffffffffffffffff168152602001908152602001600020905089816000019080519060200190611305929190611f04565b508881600101908051906020019061131e929190611f04565b5087816002019080519060200190611337929190611f04565b5086816003019080519060200190611350929190611f04565b5085816004019080519060200190611369929190611f04565b5084816005019080519060200190611382929190611f04565b508381600601908051906020019061139b929190611f04565b50828160070190805190602001906113b4929190611f04565b50818160080190805190602001906113cd929190611f04565b508a8160090160006101000a81548173ffffffffffffffffffffffffffffffffffffffff021916908373ffffffffffffffffffffffffffffffffffffffff1602179055504281600a018190555060018b90806001815401808255809150509060018203906000526020600020016000909192909190916101000a81548173ffffffffffffffffffffffffffffffffffffffff021916908373ffffffffffffffffffffffffffffffffffffffff160217905550506001600660008d73ffffffffffffffffffffffffffffffffffffffff1673ffffffffffffffffffffffffffffffffffffffff16815260200190815260200160002060006101000a81548160ff0219169083151502179055506001600560008d73ffffffffffffffffffffffffffffffffffffffff1673ffffffffffffffffffffffffffffffffffffffff16815260200190815260200160002060008d73ffffffffffffffffffffffffffffffffffffffff1673ffffffffffffffffffffffffffffffffffffffff16815260200190815260200160002060006101000a81548160ff0219169083151502179055506001600560008d73ffffffffffffffffffffffffffffffffffffffff1673ffffffffffffffffffffffffffffffffffffffff1681526020019081526020016000206000600b60009054906101000a900473ffffffffffffffffffffffffffffffffffffffff1673ffffffffffffffffffffffffffffffffffffffff1673ffffffffffffffffffffffffffffffffffffffff16815260200190815260200160002060006101000a81548160ff0219169083151502179055506008600081548092919060010191905055505050505050505050505050565b6000600b60009054906101000a900473ffffffffffffffffffffffffffffffffffffffff1673ffffffffffffffffffffffffffffffffffffffff163373ffffffffffffffffffffffffffffffffffffffff161415156116a157600080fd5b600660008c73ffffffffffffffffffffffffffffffffffffffff1673ffffffffffffffffffffffffffffffffffffffff16815260200190815260200160002060009054906101000a900460ff1615156116f957600080fd5b600360008c73ffffffffffffffffffffffffffffffffffffffff1673ffffffffffffffffffffffffffffffffffffffff168152602001908152602001600020905089816000019080519060200190611752929190611f04565b508881600101908051906020019061176b929190611f04565b5087816002019080519060200190611784929190611f04565b508681600301908051906020019061179d929190611f04565b50858160040190805190602001906117b6929190611f04565b50848160050190805190602001906117cf929190611f04565b50838160060190805190602001906117e8929190611f04565b5082816007019080519060200190611801929190611f04565b508181600801908051906020019061181a929190611f04565b508a8160090160006101000a81548173ffffffffffffffffffffffffffffffffffffffff021916908373ffffffffffffffffffffffffffffffffffffffff1602179055505050505050505050505050565b60095481565b6000600954905090565b6000809054906101000a900473ffffffffffffffffffffffffffffffffffffffff1681565b336000806101000a81548173ffffffffffffffffffffffffffffffffffffffff021916908373ffffffffffffffffffffffffffffffffffffffff160217905550565b6001818154811015156118f157fe5b906000526020600020016000915054906101000a900473ffffffffffffffffffffffffffffffffffffffff1681565b600a5481565b606060028054806020026020016040519081016040528092919081815260200182805480156119aa57602002820191906000526020600020905b8160009054906101000a900473ffffffffffffffffffffffffffffffffffffffff1673ffffffffffffffffffffffffffffffffffffffff1681526020019060010190808311611960575b5050505050905090565b6000600854905090565b600b60009054906101000a900473ffffffffffffffffffffffffffffffffffffffff1681565b60608060608060608060606000600760008a73ffffffffffffffffffffffffffffffffffffffff1673ffffffffffffffffffffffffffffffffffffffff16815260200190815260200160002060009054906101000a900460ff161515611a4957600080fd5b600460008a73ffffffffffffffffffffffffffffffffffffffff1673ffffffffffffffffffffffffffffffffffffffff168152602001908152602001600020905080600001816001018260020183600301846004018560070186600801868054600181600116156101000203166002900480601f016020809104026020016040519081016040528092919081815260200182805460018160011615610100020316600290048015611b3b5780601f10611b1057610100808354040283529160200191611b3b565b820191906000526020600020905b815481529060010190602001808311611b1e57829003601f168201915b50505050509650858054600181600116156101000203166002900480601f016020809104026020016040519081016040528092919081815260200182805460018160011615610100020316600290048015611bd75780601f10611bac57610100808354040283529160200191611bd7565b820191906000526020600020905b815481529060010190602001808311611bba57829003601f168201915b50505050509550848054600181600116156101000203166002900480601f016020809104026020016040519081016040528092919081815260200182805460018160011615610100020316600290048015611c735780601f10611c4857610100808354040283529160200191611c73565b820191906000526020600020905b815481529060010190602001808311611c5657829003601f168201915b50505050509450838054600181600116156101000203166002900480601f016020809104026020016040519081016040528092919081815260200182805460018160011615610100020316600290048015611d0f5780601f10611ce457610100808354040283529160200191611d0f565b820191906000526020600020905b815481529060010190602001808311611cf257829003601f168201915b50505050509350828054600181600116156101000203166002900480601f016020809104026020016040519081016040528092919081815260200182805460018160011615610100020316600290048015611dab5780601f10611d8057610100808354040283529160200191611dab565b820191906000526020600020905b815481529060010190602001808311611d8e57829003601f168201915b50505050509250818054600181600116156101000203166002900480601f016020809104026020016040519081016040528092919081815260200182805460018160011615610100020316600290048015611e475780601f10611e1c57610100808354040283529160200191611e47565b820191906000526020600020905b815481529060010190602001808311611e2a57829003601f168201915b50505050509150808054600181600116156101000203166002900480601f016020809104026020016040519081016040528092919081815260200182805460018160011615610100020316600290048015611ee35780601f10611eb857610100808354040283529160200191611ee3565b820191906000526020600020905b815481529060010190602001808311611ec657829003601f168201915b50505050509050975097509750975097509750975050919395979092949650565b828054600181600116156101000203166002900490600052602060002090601f016020900481019282601f10611f4557805160ff1916838001178555611f73565b82800160010185558215611f73579182015b82811115611f72578251825591602001919060010190611f57565b5b509050611f809190611f84565b5090565b611fa691905b80821115611fa2576000816000905550600101611f8a565b5090565b90565b6000611fb582356126a1565b905092915050565b600082601f8301121515611fd057600080fd5b8135611fe3611fde8261260f565b6125e2565b91508082526020830160208301858383011115611fff57600080fd5b61200a8382846126cb565b50505092915050565b600061201f82356126c1565b905092915050565b60006020828403121561203957600080fd5b600061204784828501611fa9565b91505092915050565b600080600080600080600080610100898b03121561206d57600080fd5b600061207b8b828c01611fa9565b985050602089013567ffffffffffffffff81111561209857600080fd5b6120a48b828c01611fbd565b975050604089013567ffffffffffffffff8111156120c157600080fd5b6120cd8b828c01611fbd565b965050606089013567ffffffffffffffff8111156120ea57600080fd5b6120f68b828c01611fbd565b955050608089013567ffffffffffffffff81111561211357600080fd5b61211f8b828c01611fbd565b94505060a089013567ffffffffffffffff81111561213c57600080fd5b6121488b828c01611fbd565b93505060c089013567ffffffffffffffff81111561216557600080fd5b6121718b828c01611fbd565b92505060e089013567ffffffffffffffff81111561218e57600080fd5b61219a8b828c01611fbd565b9150509295985092959890939650565b6000806000806000806000806000806101408b8d0312156121ca57600080fd5b60006121d88d828e01611fa9565b9a505060208b013567ffffffffffffffff8111156121f557600080fd5b6122018d828e01611fbd565b99505060408b013567ffffffffffffffff81111561221e57600080fd5b61222a8d828e01611fbd565b98505060608b013567ffffffffffffffff81111561224757600080fd5b6122538d828e01611fbd565b97505060808b013567ffffffffffffffff81111561227057600080fd5b61227c8d828e01611fbd565b96505060a08b013567ffffffffffffffff81111561229957600080fd5b6122a58d828e01611fbd565b95505060c08b013567ffffffffffffffff8111156122c257600080fd5b6122ce8d828e01611fbd565b94505060e08b013567ffffffffffffffff8111156122eb57600080fd5b6122f78d828e01611fbd565b9350506101008b013567ffffffffffffffff81111561231557600080fd5b6123218d828e01611fbd565b9250506101208b013567ffffffffffffffff81111561233f57600080fd5b61234b8d828e01611fbd565b9150509295989b9194979a5092959850565b60006020828403121561236f57600080fd5b600061237d84828501612013565b91505092915050565b61238f8161266b565b82525050565b60006123a082612648565b8084526020840193506123b28361263b565b60005b828110156123e4576123c8868351612386565b6123d18261265e565b91506020860195506001810190506123b5565b50849250505092915050565b6123f98161268b565b82525050565b600061240a82612653565b80845261241e8160208601602086016126da565b6124278161270d565b602085010191505092915050565b61243e81612697565b82525050565b60006020820190506124596000830184612386565b92915050565b600060208201905081810360008301526124798184612395565b905092915050565b600060208201905061249660008301846123f0565b92915050565b600060c08201905081810360008301526124b681896123ff565b905081810360208301526124ca81886123ff565b905081810360408301526124de81876123ff565b905081810360608301526124f281866123ff565b9050818103608083015261250681856123ff565b905081810360a083015261251a81846123ff565b9050979650505050505050565b600060e0820190508181036000830152612541818a6123ff565b9050818103602083015261255581896123ff565b9050818103604083015261256981886123ff565b9050818103606083015261257d81876123ff565b9050818103608083015261259181866123ff565b905081810360a08301526125a581856123ff565b905081810360c08301526125b981846123ff565b905098975050505050505050565b60006020820190506125dc6000830184612435565b92915050565b6000604051905081810181811067ffffffffffffffff8211171561260557600080fd5b8060405250919050565b600067ffffffffffffffff82111561262657600080fd5b601f19601f8301169050602081019050919050565b6000602082019050919050565b600081519050919050565b600081519050919050565b6000602082019050919050565b600073ffffffffffffffffffffffffffffffffffffffff82169050919050565b60008115159050919050565b6000819050919050565b600073ffffffffffffffffffffffffffffffffffffffff82169050919050565b6000819050919050565b82818337600083830152505050565b60005b838110156126f85780820151818401526020810190506126dd565b83811115612707576000848401525b50505050565b6000601f19601f83011690509190505600a265627a7a72305820590d2907cd41b6d42fa37e0aab7370578b80ce5ae2009041c7fc1f11f3f5b18e6c6578706572696d656e74616cf50037",
					"opcodes": "PUSH1 0x80 PUSH1 0x40 MSTORE PUSH1 0x0 PUSH1 0x8 SSTORE PUSH1 0x0 PUSH1 0x9 SSTORE PUSH1 0x0 PUSH1 0xA SSTORE PUSH20 0xC50C6297F56B033633C30354A854B074749CD2DC PUSH1 0xB PUSH1 0x0 PUSH2 0x100 EXP DUP2 SLOAD DUP2 PUSH20 0xFFFFFFFFFFFFFFFFFFFFFFFFFFFFFFFFFFFFFFFF MUL NOT AND SWAP1 DUP4 PUSH20 0xFFFFFFFFFFFFFFFFFFFFFFFFFFFFFFFFFFFFFFFF AND MUL OR SWAP1 SSTORE POP CALLVALUE DUP1 ISZERO PUSH2 0x74 JUMPI PUSH1 0x0 DUP1 REVERT JUMPDEST POP PUSH2 0x2758 DUP1 PUSH2 0x84 PUSH1 0x0 CODECOPY PUSH1 0x0 RETURN STOP PUSH1 0x80 PUSH1 0x40 MSTORE PUSH1 0x4 CALLDATASIZE LT PUSH2 0x11C JUMPI PUSH1 0x0 CALLDATALOAD PUSH29 0x100000000000000000000000000000000000000000000000000000000 SWAP1 DIV PUSH4 0xFFFFFFFF AND DUP1 PUSH3 0xCE8E3E EQ PUSH2 0x121 JUMPI DUP1 PUSH4 0x2516ABD EQ PUSH2 0x14C JUMPI DUP1 PUSH4 0x76FD2F8 EQ PUSH2 0x189 JUMPI DUP1 PUSH4 0x7973CCF EQ PUSH2 0x1CB JUMPI DUP1 PUSH4 0x127CA4B4 EQ PUSH2 0x1F6 JUMPI DUP1 PUSH4 0x16E0A611 EQ PUSH2 0x233 JUMPI DUP1 PUSH4 0x17E51111 EQ PUSH2 0x25C JUMPI DUP1 PUSH4 0x24C24B2B EQ PUSH2 0x285 JUMPI DUP1 PUSH4 0x3D391F70 EQ PUSH2 0x2B0 JUMPI DUP1 PUSH4 0x6CDB2278 EQ PUSH2 0x2ED JUMPI DUP1 PUSH4 0x779A9576 EQ PUSH2 0x316 JUMPI DUP1 PUSH4 0x78522BC4 EQ PUSH2 0x33F JUMPI DUP1 PUSH4 0x79111C1C EQ PUSH2 0x36A JUMPI DUP1 PUSH4 0x8DA5CB5B EQ PUSH2 0x395 JUMPI DUP1 PUSH4 0x8F84AA09 EQ PUSH2 0x3C0 JUMPI DUP1 PUSH4 0x9F4216E8 EQ PUSH2 0x3D7 JUMPI DUP1 PUSH4 0xA5D043D1 EQ PUSH2 0x414 JUMPI DUP1 PUSH4 0xB13D5D94 EQ PUSH2 0x43F JUMPI DUP1 PUSH4 0xB5CB15F7 EQ PUSH2 0x46A JUMPI DUP1 PUSH4 0xB744FF4D EQ PUSH2 0x495 JUMPI DUP1 PUSH4 0xCAEE6C85 EQ PUSH2 0x4C0 JUMPI JUMPDEST PUSH1 0x0 DUP1 REVERT JUMPDEST CALLVALUE DUP1 ISZERO PUSH2 0x12D JUMPI PUSH1 0x0 DUP1 REVERT JUMPDEST POP PUSH2 0x136 PUSH2 0x503 JUMP JUMPDEST PUSH1 0x40 MLOAD PUSH2 0x143 SWAP2 SWAP1 PUSH2 0x245F JUMP JUMPDEST PUSH1 0x40 MLOAD DUP1 SWAP2 SUB SWAP1 RETURN JUMPDEST CALLVALUE DUP1 ISZERO PUSH2 0x158 JUMPI PUSH1 0x0 DUP1 REVERT JUMPDEST POP PUSH2 0x173 PUSH1 0x4 DUP1 CALLDATASIZE SUB PUSH2 0x16E SWAP2 SWAP1 DUP2 ADD SWAP1 PUSH2 0x2027 JUMP JUMPDEST PUSH2 0x591 JUMP JUMPDEST PUSH1 0x40 MLOAD PUSH2 0x180 SWAP2 SWAP1 PUSH2 0x2481 JUMP JUMPDEST PUSH1 0x40 MLOAD DUP1 SWAP2 SUB SWAP1 RETURN JUMPDEST CALLVALUE DUP1 ISZERO PUSH2 0x195 JUMPI PUSH1 0x0 DUP1 REVERT JUMPDEST POP PUSH2 0x1B0 PUSH1 0x4 DUP1 CALLDATASIZE SUB PUSH2 0x1AB SWAP2 SWAP1 DUP2 ADD SWAP1 PUSH2 0x2027 JUMP JUMPDEST PUSH2 0x630 JUMP JUMPDEST PUSH1 0x40 MLOAD PUSH2 0x1C2 SWAP7 SWAP6 SWAP5 SWAP4 SWAP3 SWAP2 SWAP1 PUSH2 0x249C JUMP JUMPDEST PUSH1 0x40 MLOAD DUP1 SWAP2 SUB SWAP1 RETURN JUMPDEST CALLVALUE DUP1 ISZERO PUSH2 0x1D7 JUMPI PUSH1 0x0 DUP1 REVERT JUMPDEST POP PUSH2 0x1E0 PUSH2 0xAE7 JUMP JUMPDEST PUSH1 0x40 MLOAD PUSH2 0x1ED SWAP2 SWAP1 PUSH2 0x25C7 JUMP JUMPDEST PUSH1 0x40 MLOAD DUP1 SWAP2 SUB SWAP1 RETURN JUMPDEST CALLVALUE DUP1 ISZERO PUSH2 0x202 JUMPI PUSH1 0x0 DUP1 REVERT JUMPDEST POP PUSH2 0x21D PUSH1 0x4 DUP1 CALLDATASIZE SUB PUSH2 0x218 SWAP2 SWAP1 DUP2 ADD SWAP1 PUSH2 0x235D JUMP JUMPDEST PUSH2 0xAED JUMP JUMPDEST PUSH1 0x40 MLOAD PUSH2 0x22A SWAP2 SWAP1 PUSH2 0x2444 JUMP JUMPDEST PUSH1 0x40 MLOAD DUP1 SWAP2 SUB SWAP1 RETURN JUMPDEST CALLVALUE DUP1 ISZERO PUSH2 0x23F JUMPI PUSH1 0x0 DUP1 REVERT JUMPDEST POP PUSH2 0x25A PUSH1 0x4 DUP1 CALLDATASIZE SUB PUSH2 0x255 SWAP2 SWAP1 DUP2 ADD SWAP1 PUSH2 0x2050 JUMP JUMPDEST PUSH2 0xB2B JUMP JUMPDEST STOP JUMPDEST CALLVALUE DUP1 ISZERO PUSH2 0x268 JUMPI PUSH1 0x0 DUP1 REVERT JUMPDEST POP PUSH2 0x283 PUSH1 0x4 DUP1 CALLDATASIZE SUB PUSH2 0x27E SWAP2 SWAP1 DUP2 ADD SWAP1 PUSH2 0x2050 JUMP JUMPDEST PUSH2 0xD1F JUMP JUMPDEST STOP JUMPDEST CALLVALUE DUP1 ISZERO PUSH2 0x291 JUMPI PUSH1 0x0 DUP1 REVERT JUMPDEST POP PUSH2 0x29A PUSH2 0x1139 JUMP JUMPDEST PUSH1 0x40 MLOAD PUSH2 0x2A7 SWAP2 SWAP1 PUSH2 0x25C7 JUMP JUMPDEST PUSH1 0x40 MLOAD DUP1 SWAP2 SUB SWAP1 RETURN JUMPDEST CALLVALUE DUP1 ISZERO PUSH2 0x2BC JUMPI PUSH1 0x0 DUP1 REVERT JUMPDEST POP PUSH2 0x2D7 PUSH1 0x4 DUP1 CALLDATASIZE SUB PUSH2 0x2D2 SWAP2 SWAP1 DUP2 ADD SWAP1 PUSH2 0x2027 JUMP JUMPDEST PUSH2 0x1143 JUMP JUMPDEST PUSH1 0x40 MLOAD PUSH2 0x2E4 SWAP2 SWAP1 PUSH2 0x2481 JUMP JUMPDEST PUSH1 0x40 MLOAD DUP1 SWAP2 SUB SWAP1 RETURN JUMPDEST CALLVALUE DUP1 ISZERO PUSH2 0x2F9 JUMPI PUSH1 0x0 DUP1 REVERT JUMPDEST POP PUSH2 0x314 PUSH1 0x4 DUP1 CALLDATASIZE SUB PUSH2 0x30F SWAP2 SWAP1 DUP2 ADD SWAP1 PUSH2 0x21AA JUMP JUMPDEST PUSH2 0x11F5 JUMP JUMPDEST STOP JUMPDEST CALLVALUE DUP1 ISZERO PUSH2 0x322 JUMPI PUSH1 0x0 DUP1 REVERT JUMPDEST POP PUSH2 0x33D PUSH1 0x4 DUP1 CALLDATASIZE SUB PUSH2 0x338 SWAP2 SWAP1 DUP2 ADD SWAP1 PUSH2 0x21AA JUMP JUMPDEST PUSH2 0x1643 JUMP JUMPDEST STOP JUMPDEST CALLVALUE DUP1 ISZERO PUSH2 0x34B JUMPI PUSH1 0x0 DUP1 REVERT JUMPDEST POP PUSH2 0x354 PUSH2 0x186B JUMP JUMPDEST PUSH1 0x40 MLOAD PUSH2 0x361 SWAP2 SWAP1 PUSH2 0x25C7 JUMP JUMPDEST PUSH1 0x40 MLOAD DUP1 SWAP2 SUB SWAP1 RETURN JUMPDEST CALLVALUE DUP1 ISZERO PUSH2 0x376 JUMPI PUSH1 0x0 DUP1 REVERT JUMPDEST POP PUSH2 0x37F PUSH2 0x1871 JUMP JUMPDEST PUSH1 0x40 MLOAD PUSH2 0x38C SWAP2 SWAP1 PUSH2 0x25C7 JUMP JUMPDEST PUSH1 0x40 MLOAD DUP1 SWAP2 SUB SWAP1 RETURN JUMPDEST CALLVALUE DUP1 ISZERO PUSH2 0x3A1 JUMPI PUSH1 0x0 DUP1 REVERT JUMPDEST POP PUSH2 0x3AA PUSH2 0x187B JUMP JUMPDEST PUSH1 0x40 MLOAD PUSH2 0x3B7 SWAP2 SWAP1 PUSH2 0x2444 JUMP JUMPDEST PUSH1 0x40 MLOAD DUP1 SWAP2 SUB SWAP1 RETURN JUMPDEST CALLVALUE DUP1 ISZERO PUSH2 0x3CC JUMPI PUSH1 0x0 DUP1 REVERT JUMPDEST POP PUSH2 0x3D5 PUSH2 0x18A0 JUMP JUMPDEST STOP JUMPDEST CALLVALUE DUP1 ISZERO PUSH2 0x3E3 JUMPI PUSH1 0x0 DUP1 REVERT JUMPDEST POP PUSH2 0x3FE PUSH1 0x4 DUP1 CALLDATASIZE SUB PUSH2 0x3F9 SWAP2 SWAP1 DUP2 ADD SWAP1 PUSH2 0x235D JUMP JUMPDEST PUSH2 0x18E2 JUMP JUMPDEST PUSH1 0x40 MLOAD PUSH2 0x40B SWAP2 SWAP1 PUSH2 0x2444 JUMP JUMPDEST PUSH1 0x40 MLOAD DUP1 SWAP2 SUB SWAP1 RETURN JUMPDEST CALLVALUE DUP1 ISZERO PUSH2 0x420 JUMPI PUSH1 0x0 DUP1 REVERT JUMPDEST POP PUSH2 0x429 PUSH2 0x1920 JUMP JUMPDEST PUSH1 0x40 MLOAD PUSH2 0x436 SWAP2 SWAP1 PUSH2 0x25C7 JUMP JUMPDEST PUSH1 0x40 MLOAD DUP1 SWAP2 SUB SWAP1 RETURN JUMPDEST CALLVALUE DUP1 ISZERO PUSH2 0x44B JUMPI PUSH1 0x0 DUP1 REVERT JUMPDEST POP PUSH2 0x454 PUSH2 0x1926 JUMP JUMPDEST PUSH1 0x40 MLOAD PUSH2 0x461 SWAP2 SWAP1 PUSH2 0x245F JUMP JUMPDEST PUSH1 0x40 MLOAD DUP1 SWAP2 SUB SWAP1 RETURN JUMPDEST CALLVALUE DUP1 ISZERO PUSH2 0x476 JUMPI PUSH1 0x0 DUP1 REVERT JUMPDEST POP PUSH2 0x47F PUSH2 0x19B4 JUMP JUMPDEST PUSH1 0x40 MLOAD PUSH2 0x48C SWAP2 SWAP1 PUSH2 0x25C7 JUMP JUMPDEST PUSH1 0x40 MLOAD DUP1 SWAP2 SUB SWAP1 RETURN JUMPDEST CALLVALUE DUP1 ISZERO PUSH2 0x4A1 JUMPI PUSH1 0x0 DUP1 REVERT JUMPDEST POP PUSH2 0x4AA PUSH2 0x19BE JUMP JUMPDEST PUSH1 0x40 MLOAD PUSH2 0x4B7 SWAP2 SWAP1 PUSH2 0x2444 JUMP JUMPDEST PUSH1 0x40 MLOAD DUP1 SWAP2 SUB SWAP1 RETURN JUMPDEST CALLVALUE DUP1 ISZERO PUSH2 0x4CC JUMPI PUSH1 0x0 DUP1 REVERT JUMPDEST POP PUSH2 0x4E7 PUSH1 0x4 DUP1 CALLDATASIZE SUB PUSH2 0x4E2 SWAP2 SWAP1 DUP2 ADD SWAP1 PUSH2 0x2027 JUMP JUMPDEST PUSH2 0x19E4 JUMP JUMPDEST PUSH1 0x40 MLOAD PUSH2 0x4FA SWAP8 SWAP7 SWAP6 SWAP5 SWAP4 SWAP3 SWAP2 SWAP1 PUSH2 0x2527 JUMP JUMPDEST PUSH1 0x40 MLOAD DUP1 SWAP2 SUB SWAP1 RETURN JUMPDEST PUSH1 0x60 PUSH1 0x1 DUP1 SLOAD DUP1 PUSH1 0x20 MUL PUSH1 0x20 ADD PUSH1 0x40 MLOAD SWAP1 DUP2 ADD PUSH1 0x40 MSTORE DUP1 SWAP3 SWAP2 SWAP1 DUP2 DUP2 MSTORE PUSH1 0x20 ADD DUP3 DUP1 SLOAD DUP1 ISZERO PUSH2 0x587 JUMPI PUSH1 0x20 MUL DUP3 ADD SWAP2 SWAP1 PUSH1 0x0 MSTORE PUSH1 0x20 PUSH1 0x0 KECCAK256 SWAP1 JUMPDEST DUP2 PUSH1 0x0 SWAP1 SLOAD SWAP1 PUSH2 0x100 EXP SWAP1 DIV PUSH20 0xFFFFFFFFFFFFFFFFFFFFFFFFFFFFFFFFFFFFFFFF AND PUSH20 0xFFFFFFFFFFFFFFFFFFFFFFFFFFFFFFFFFFFFFFFF AND DUP2 MSTORE PUSH1 0x20 ADD SWAP1 PUSH1 0x1 ADD SWAP1 DUP1 DUP4 GT PUSH2 0x53D JUMPI JUMPDEST POP POP POP POP POP SWAP1 POP SWAP1 JUMP JUMPDEST PUSH1 0x0 DUP1 PUSH1 0x5 PUSH1 0x0 CALLER PUSH20 0xFFFFFFFFFFFFFFFFFFFFFFFFFFFFFFFFFFFFFFFF AND PUSH20 0xFFFFFFFFFFFFFFFFFFFFFFFFFFFFFFFFFFFFFFFF AND DUP2 MSTORE PUSH1 0x20 ADD SWAP1 DUP2 MSTORE PUSH1 0x20 ADD PUSH1 0x0 KECCAK256 PUSH1 0x0 DUP5 PUSH20 0xFFFFFFFFFFFFFFFFFFFFFFFFFFFFFFFFFFFFFFFF AND PUSH20 0xFFFFFFFFFFFFFFFFFFFFFFFFFFFFFFFFFFFFFFFF AND DUP2 MSTORE PUSH1 0x20 ADD SWAP1 DUP2 MSTORE PUSH1 0x20 ADD PUSH1 0x0 KECCAK256 PUSH1 0x0 PUSH2 0x100 EXP DUP2 SLOAD DUP2 PUSH1 0xFF MUL NOT AND SWAP1 DUP4 ISZERO ISZERO MUL OR SWAP1 SSTORE POP PUSH1 0x1 SWAP1 POP SWAP2 SWAP1 POP JUMP JUMPDEST PUSH1 0x60 DUP1 PUSH1 0x60 DUP1 PUSH1 0x60 DUP1 PUSH1 0x0 PUSH1 0x5 PUSH1 0x0 DUP10 PUSH20 0xFFFFFFFFFFFFFFFFFFFFFFFFFFFFFFFFFFFFFFFF AND PUSH20 0xFFFFFFFFFFFFFFFFFFFFFFFFFFFFFFFFFFFFFFFF AND DUP2 MSTORE PUSH1 0x20 ADD SWAP1 DUP2 MSTORE PUSH1 0x20 ADD PUSH1 0x0 KECCAK256 PUSH1 0x0 CALLER PUSH20 0xFFFFFFFFFFFFFFFFFFFFFFFFFFFFFFFFFFFFFFFF AND PUSH20 0xFFFFFFFFFFFFFFFFFFFFFFFFFFFFFFFFFFFFFFFF AND DUP2 MSTORE PUSH1 0x20 ADD SWAP1 DUP2 MSTORE PUSH1 0x20 ADD PUSH1 0x0 KECCAK256 PUSH1 0x0 SWAP1 SLOAD SWAP1 PUSH2 0x100 EXP SWAP1 DIV PUSH1 0xFF AND ISZERO ISZERO PUSH2 0x6D0 JUMPI PUSH1 0x0 DUP1 REVERT JUMPDEST PUSH1 0x3 PUSH1 0x0 DUP10 PUSH20 0xFFFFFFFFFFFFFFFFFFFFFFFFFFFFFFFFFFFFFFFF AND PUSH20 0xFFFFFFFFFFFFFFFFFFFFFFFFFFFFFFFFFFFFFFFF AND DUP2 MSTORE PUSH1 0x20 ADD SWAP1 DUP2 MSTORE PUSH1 0x20 ADD PUSH1 0x0 KECCAK256 SWAP1 POP DUP1 PUSH1 0x0 ADD DUP2 PUSH1 0x1 ADD DUP3 PUSH1 0x2 ADD DUP4 PUSH1 0x3 ADD DUP5 PUSH1 0x4 ADD DUP6 PUSH1 0x5 ADD DUP6 DUP1 SLOAD PUSH1 0x1 DUP2 PUSH1 0x1 AND ISZERO PUSH2 0x100 MUL SUB AND PUSH1 0x2 SWAP1 DIV DUP1 PUSH1 0x1F ADD PUSH1 0x20 DUP1 SWAP2 DIV MUL PUSH1 0x20 ADD PUSH1 0x40 MLOAD SWAP1 DUP2 ADD PUSH1 0x40 MSTORE DUP1 SWAP3 SWAP2 SWAP1 DUP2 DUP2 MSTORE PUSH1 0x20 ADD DUP3 DUP1 SLOAD PUSH1 0x1 DUP2 PUSH1 0x1 AND ISZERO PUSH2 0x100 MUL SUB AND PUSH1 0x2 SWAP1 DIV DUP1 ISZERO PUSH2 0x7BE JUMPI DUP1 PUSH1 0x1F LT PUSH2 0x793 JUMPI PUSH2 0x100 DUP1 DUP4 SLOAD DIV MUL DUP4 MSTORE SWAP2 PUSH1 0x20 ADD SWAP2 PUSH2 0x7BE JUMP JUMPDEST DUP3 ADD SWAP2 SWAP1 PUSH1 0x0 MSTORE PUSH1 0x20 PUSH1 0x0 KECCAK256 SWAP1 JUMPDEST DUP2 SLOAD DUP2 MSTORE SWAP1 PUSH1 0x1 ADD SWAP1 PUSH1 0x20 ADD DUP1 DUP4 GT PUSH2 0x7A1 JUMPI DUP3 SWAP1 SUB PUSH1 0x1F AND DUP3 ADD SWAP2 JUMPDEST POP POP POP POP POP SWAP6 POP DUP5 DUP1 SLOAD PUSH1 0x1 DUP2 PUSH1 0x1 AND ISZERO PUSH2 0x100 MUL SUB AND PUSH1 0x2 SWAP1 DIV DUP1 PUSH1 0x1F ADD PUSH1 0x20 DUP1 SWAP2 DIV MUL PUSH1 0x20 ADD PUSH1 0x40 MLOAD SWAP1 DUP2 ADD PUSH1 0x40 MSTORE DUP1 SWAP3 SWAP2 SWAP1 DUP2 DUP2 MSTORE PUSH1 0x20 ADD DUP3 DUP1 SLOAD PUSH1 0x1 DUP2 PUSH1 0x1 AND ISZERO PUSH2 0x100 MUL SUB AND PUSH1 0x2 SWAP1 DIV DUP1 ISZERO PUSH2 0x85A JUMPI DUP1 PUSH1 0x1F LT PUSH2 0x82F JUMPI PUSH2 0x100 DUP1 DUP4 SLOAD DIV MUL DUP4 MSTORE SWAP2 PUSH1 0x20 ADD SWAP2 PUSH2 0x85A JUMP JUMPDEST DUP3 ADD SWAP2 SWAP1 PUSH1 0x0 MSTORE PUSH1 0x20 PUSH1 0x0 KECCAK256 SWAP1 JUMPDEST DUP2 SLOAD DUP2 MSTORE SWAP1 PUSH1 0x1 ADD SWAP1 PUSH1 0x20 ADD DUP1 DUP4 GT PUSH2 0x83D JUMPI DUP3 SWAP1 SUB PUSH1 0x1F AND DUP3 ADD SWAP2 JUMPDEST POP POP POP POP POP SWAP5 POP DUP4 DUP1 SLOAD PUSH1 0x1 DUP2 PUSH1 0x1 AND ISZERO PUSH2 0x100 MUL SUB AND PUSH1 0x2 SWAP1 DIV DUP1 PUSH1 0x1F ADD PUSH1 0x20 DUP1 SWAP2 DIV MUL PUSH1 0x20 ADD PUSH1 0x40 MLOAD SWAP1 DUP2 ADD PUSH1 0x40 MSTORE DUP1 SWAP3 SWAP2 SWAP1 DUP2 DUP2 MSTORE PUSH1 0x20 ADD DUP3 DUP1 SLOAD PUSH1 0x1 DUP2 PUSH1 0x1 AND ISZERO PUSH2 0x100 MUL SUB AND PUSH1 0x2 SWAP1 DIV DUP1 ISZERO PUSH2 0x8F6 JUMPI DUP1 PUSH1 0x1F LT PUSH2 0x8CB JUMPI PUSH2 0x100 DUP1 DUP4 SLOAD DIV MUL DUP4 MSTORE SWAP2 PUSH1 0x20 ADD SWAP2 PUSH2 0x8F6 JUMP JUMPDEST DUP3 ADD SWAP2 SWAP1 PUSH1 0x0 MSTORE PUSH1 0x20 PUSH1 0x0 KECCAK256 SWAP1 JUMPDEST DUP2 SLOAD DUP2 MSTORE SWAP1 PUSH1 0x1 ADD SWAP1 PUSH1 0x20 ADD DUP1 DUP4 GT PUSH2 0x8D9 JUMPI DUP3 SWAP1 SUB PUSH1 0x1F AND DUP3 ADD SWAP2 JUMPDEST POP POP POP POP POP SWAP4 POP DUP3 DUP1 SLOAD PUSH1 0x1 DUP2 PUSH1 0x1 AND ISZERO PUSH2 0x100 MUL SUB AND PUSH1 0x2 SWAP1 DIV DUP1 PUSH1 0x1F ADD PUSH1 0x20 DUP1 SWAP2 DIV MUL PUSH1 0x20 ADD PUSH1 0x40 MLOAD SWAP1 DUP2 ADD PUSH1 0x40 MSTORE DUP1 SWAP3 SWAP2 SWAP1 DUP2 DUP2 MSTORE PUSH1 0x20 ADD DUP3 DUP1 SLOAD PUSH1 0x1 DUP2 PUSH1 0x1 AND ISZERO PUSH2 0x100 MUL SUB AND PUSH1 0x2 SWAP1 DIV DUP1 ISZERO PUSH2 0x992 JUMPI DUP1 PUSH1 0x1F LT PUSH2 0x967 JUMPI PUSH2 0x100 DUP1 DUP4 SLOAD DIV MUL DUP4 MSTORE SWAP2 PUSH1 0x20 ADD SWAP2 PUSH2 0x992 JUMP JUMPDEST DUP3 ADD SWAP2 SWAP1 PUSH1 0x0 MSTORE PUSH1 0x20 PUSH1 0x0 KECCAK256 SWAP1 JUMPDEST DUP2 SLOAD DUP2 MSTORE SWAP1 PUSH1 0x1 ADD SWAP1 PUSH1 0x20 ADD DUP1 DUP4 GT PUSH2 0x975 JUMPI DUP3 SWAP1 SUB PUSH1 0x1F AND DUP3 ADD SWAP2 JUMPDEST POP POP POP POP POP SWAP3 POP DUP2 DUP1 SLOAD PUSH1 0x1 DUP2 PUSH1 0x1 AND ISZERO PUSH2 0x100 MUL SUB AND PUSH1 0x2 SWAP1 DIV DUP1 PUSH1 0x1F ADD PUSH1 0x20 DUP1 SWAP2 DIV MUL PUSH1 0x20 ADD PUSH1 0x40 MLOAD SWAP1 DUP2 ADD PUSH1 0x40 MSTORE DUP1 SWAP3 SWAP2 SWAP1 DUP2 DUP2 MSTORE PUSH1 0x20 ADD DUP3 DUP1 SLOAD PUSH1 0x1 DUP2 PUSH1 0x1 AND ISZERO PUSH2 0x100 MUL SUB AND PUSH1 0x2 SWAP1 DIV DUP1 ISZERO PUSH2 0xA2E JUMPI DUP1 PUSH1 0x1F LT PUSH2 0xA03 JUMPI PUSH2 0x100 DUP1 DUP4 SLOAD DIV MUL DUP4 MSTORE SWAP2 PUSH1 0x20 ADD SWAP2 PUSH2 0xA2E JUMP JUMPDEST DUP3 ADD SWAP2 SWAP1 PUSH1 0x0 MSTORE PUSH1 0x20 PUSH1 0x0 KECCAK256 SWAP1 JUMPDEST DUP2 SLOAD DUP2 MSTORE SWAP1 PUSH1 0x1 ADD SWAP1 PUSH1 0x20 ADD DUP1 DUP4 GT PUSH2 0xA11 JUMPI DUP3 SWAP1 SUB PUSH1 0x1F AND DUP3 ADD SWAP2 JUMPDEST POP POP POP POP POP SWAP2 POP DUP1 DUP1 SLOAD PUSH1 0x1 DUP2 PUSH1 0x1 AND ISZERO PUSH2 0x100 MUL SUB AND PUSH1 0x2 SWAP1 DIV DUP1 PUSH1 0x1F ADD PUSH1 0x20 DUP1 SWAP2 DIV MUL PUSH1 0x20 ADD PUSH1 0x40 MLOAD SWAP1 DUP2 ADD PUSH1 0x40 MSTORE DUP1 SWAP3 SWAP2 SWAP1 DUP2 DUP2 MSTORE PUSH1 0x20 ADD DUP3 DUP1 SLOAD PUSH1 0x1 DUP2 PUSH1 0x1 AND ISZERO PUSH2 0x100 MUL SUB AND PUSH1 0x2 SWAP1 DIV DUP1 ISZERO PUSH2 0xACA JUMPI DUP1 PUSH1 0x1F LT PUSH2 0xA9F JUMPI PUSH2 0x100 DUP1 DUP4 SLOAD DIV MUL DUP4 MSTORE SWAP2 PUSH1 0x20 ADD SWAP2 PUSH2 0xACA JUMP JUMPDEST DUP3 ADD SWAP2 SWAP1 PUSH1 0x0 MSTORE PUSH1 0x20 PUSH1 0x0 KECCAK256 SWAP1 JUMPDEST DUP2 SLOAD DUP2 MSTORE SWAP1 PUSH1 0x1 ADD SWAP1 PUSH1 0x20 ADD DUP1 DUP4 GT PUSH2 0xAAD JUMPI DUP3 SWAP1 SUB PUSH1 0x1F AND DUP3 ADD SWAP2 JUMPDEST POP POP POP POP POP SWAP1 POP SWAP7 POP SWAP7 POP SWAP7 POP SWAP7 POP SWAP7 POP SWAP7 POP POP SWAP2 SWAP4 SWAP6 POP SWAP2 SWAP4 SWAP6 JUMP JUMPDEST PUSH1 0x8 SLOAD DUP2 JUMP JUMPDEST PUSH1 0x2 DUP2 DUP2 SLOAD DUP2 LT ISZERO ISZERO PUSH2 0xAFC JUMPI INVALID JUMPDEST SWAP1 PUSH1 0x0 MSTORE PUSH1 0x20 PUSH1 0x0 KECCAK256 ADD PUSH1 0x0 SWAP2 POP SLOAD SWAP1 PUSH2 0x100 EXP SWAP1 DIV PUSH20 0xFFFFFFFFFFFFFFFFFFFFFFFFFFFFFFFFFFFFFFFF AND DUP2 JUMP JUMPDEST PUSH1 0x0 PUSH1 0xB PUSH1 0x0 SWAP1 SLOAD SWAP1 PUSH2 0x100 EXP SWAP1 DIV PUSH20 0xFFFFFFFFFFFFFFFFFFFFFFFFFFFFFFFFFFFFFFFF AND PUSH20 0xFFFFFFFFFFFFFFFFFFFFFFFFFFFFFFFFFFFFFFFF AND CALLER PUSH20 0xFFFFFFFFFFFFFFFFFFFFFFFFFFFFFFFFFFFFFFFF AND EQ ISZERO ISZERO PUSH2 0xB89 JUMPI PUSH1 0x0 DUP1 REVERT JUMPDEST PUSH1 0x7 PUSH1 0x0 DUP11 PUSH20 0xFFFFFFFFFFFFFFFFFFFFFFFFFFFFFFFFFFFFFFFF AND PUSH20 0xFFFFFFFFFFFFFFFFFFFFFFFFFFFFFFFFFFFFFFFF AND DUP2 MSTORE PUSH1 0x20 ADD SWAP1 DUP2 MSTORE PUSH1 0x20 ADD PUSH1 0x0 KECCAK256 PUSH1 0x0 SWAP1 SLOAD SWAP1 PUSH2 0x100 EXP SWAP1 DIV PUSH1 0xFF AND ISZERO ISZERO PUSH2 0xBE1 JUMPI PUSH1 0x0 DUP1 REVERT JUMPDEST PUSH1 0x4 PUSH1 0x0 DUP11 PUSH20 0xFFFFFFFFFFFFFFFFFFFFFFFFFFFFFFFFFFFFFFFF AND PUSH20 0xFFFFFFFFFFFFFFFFFFFFFFFFFFFFFFFFFFFFFFFF AND DUP2 MSTORE PUSH1 0x20 ADD SWAP1 DUP2 MSTORE PUSH1 0x20 ADD PUSH1 0x0 KECCAK256 SWAP1 POP DUP8 DUP2 PUSH1 0x0 ADD SWAP1 DUP1 MLOAD SWAP1 PUSH1 0x20 ADD SWAP1 PUSH2 0xC3A SWAP3 SWAP2 SWAP1 PUSH2 0x1F04 JUMP JUMPDEST POP DUP7 DUP2 PUSH1 0x1 ADD SWAP1 DUP1 MLOAD SWAP1 PUSH1 0x20 ADD SWAP1 PUSH2 0xC53 SWAP3 SWAP2 SWAP1 PUSH2 0x1F04 JUMP JUMPDEST POP DUP6 DUP2 PUSH1 0x2 ADD SWAP1 DUP1 MLOAD SWAP1 PUSH1 0x20 ADD SWAP1 PUSH2 0xC6C SWAP3 SWAP2 SWAP1 PUSH2 0x1F04 JUMP JUMPDEST POP DUP5 DUP2 PUSH1 0x3 ADD SWAP1 DUP1 MLOAD SWAP1 PUSH1 0x20 ADD SWAP1 PUSH2 0xC85 SWAP3 SWAP2 SWAP1 PUSH2 0x1F04 JUMP JUMPDEST POP DUP4 DUP2 PUSH1 0x4 ADD SWAP1 DUP1 MLOAD SWAP1 PUSH1 0x20 ADD SWAP1 PUSH2 0xC9E SWAP3 SWAP2 SWAP1 PUSH2 0x1F04 JUMP JUMPDEST POP DUP3 DUP2 PUSH1 0x7 ADD SWAP1 DUP1 MLOAD SWAP1 PUSH1 0x20 ADD SWAP1 PUSH2 0xCB7 SWAP3 SWAP2 SWAP1 PUSH2 0x1F04 JUMP JUMPDEST POP DUP2 DUP2 PUSH1 0x8 ADD SWAP1 DUP1 MLOAD SWAP1 PUSH1 0x20 ADD SWAP1 PUSH2 0xCD0 SWAP3 SWAP2 SWAP1 PUSH2 0x1F04 JUMP JUMPDEST POP DUP9 DUP2 PUSH1 0x9 ADD PUSH1 0x0 PUSH2 0x100 EXP DUP2 SLOAD DUP2 PUSH20 0xFFFFFFFFFFFFFFFFFFFFFFFFFFFFFFFFFFFFFFFF MUL NOT AND SWAP1 DUP4 PUSH20 0xFFFFFFFFFFFFFFFFFFFFFFFFFFFFFFFFFFFFFFFF AND MUL OR SWAP1 SSTORE POP POP POP POP POP POP POP POP POP POP JUMP JUMPDEST PUSH1 0x0 PUSH1 0xB PUSH1 0x0 SWAP1 SLOAD SWAP1 PUSH2 0x100 EXP SWAP1 DIV PUSH20 0xFFFFFFFFFFFFFFFFFFFFFFFFFFFFFFFFFFFFFFFF AND PUSH20 0xFFFFFFFFFFFFFFFFFFFFFFFFFFFFFFFFFFFFFFFF AND CALLER PUSH20 0xFFFFFFFFFFFFFFFFFFFFFFFFFFFFFFFFFFFFFFFF AND EQ ISZERO ISZERO PUSH2 0xD7D JUMPI PUSH1 0x0 DUP1 REVERT JUMPDEST PUSH1 0x7 PUSH1 0x0 DUP11 PUSH20 0xFFFFFFFFFFFFFFFFFFFFFFFFFFFFFFFFFFFFFFFF AND PUSH20 0xFFFFFFFFFFFFFFFFFFFFFFFFFFFFFFFFFFFFFFFF AND DUP2 MSTORE PUSH1 0x20 ADD SWAP1 DUP2 MSTORE PUSH1 0x20 ADD PUSH1 0x0 KECCAK256 PUSH1 0x0 SWAP1 SLOAD SWAP1 PUSH2 0x100 EXP SWAP1 DIV PUSH1 0xFF AND ISZERO ISZERO ISZERO PUSH2 0xDD6 JUMPI PUSH1 0x0 DUP1 REVERT JUMPDEST PUSH1 0x4 PUSH1 0x0 DUP11 PUSH20 0xFFFFFFFFFFFFFFFFFFFFFFFFFFFFFFFFFFFFFFFF AND PUSH20 0xFFFFFFFFFFFFFFFFFFFFFFFFFFFFFFFFFFFFFFFF AND DUP2 MSTORE PUSH1 0x20 ADD SWAP1 DUP2 MSTORE PUSH1 0x20 ADD PUSH1 0x0 KECCAK256 SWAP1 POP DUP8 DUP2 PUSH1 0x0 ADD SWAP1 DUP1 MLOAD SWAP1 PUSH1 0x20 ADD SWAP1 PUSH2 0xE2F SWAP3 SWAP2 SWAP1 PUSH2 0x1F04 JUMP JUMPDEST POP DUP7 DUP2 PUSH1 0x1 ADD SWAP1 DUP1 MLOAD SWAP1 PUSH1 0x20 ADD SWAP1 PUSH2 0xE48 SWAP3 SWAP2 SWAP1 PUSH2 0x1F04 JUMP JUMPDEST POP DUP6 DUP2 PUSH1 0x2 ADD SWAP1 DUP1 MLOAD SWAP1 PUSH1 0x20 ADD SWAP1 PUSH2 0xE61 SWAP3 SWAP2 SWAP1 PUSH2 0x1F04 JUMP JUMPDEST POP DUP5 DUP2 PUSH1 0x3 ADD SWAP1 DUP1 MLOAD SWAP1 PUSH1 0x20 ADD SWAP1 PUSH2 0xE7A SWAP3 SWAP2 SWAP1 PUSH2 0x1F04 JUMP JUMPDEST POP DUP4 DUP2 PUSH1 0x4 ADD SWAP1 DUP1 MLOAD SWAP1 PUSH1 0x20 ADD SWAP1 PUSH2 0xE93 SWAP3 SWAP2 SWAP1 PUSH2 0x1F04 JUMP JUMPDEST POP DUP3 DUP2 PUSH1 0x7 ADD SWAP1 DUP1 MLOAD SWAP1 PUSH1 0x20 ADD SWAP1 PUSH2 0xEAC SWAP3 SWAP2 SWAP1 PUSH2 0x1F04 JUMP JUMPDEST POP DUP2 DUP2 PUSH1 0x8 ADD SWAP1 DUP1 MLOAD SWAP1 PUSH1 0x20 ADD SWAP1 PUSH2 0xEC5 SWAP3 SWAP2 SWAP1 PUSH2 0x1F04 JUMP JUMPDEST POP DUP9 DUP2 PUSH1 0x9 ADD PUSH1 0x0 PUSH2 0x100 EXP DUP2 SLOAD DUP2 PUSH20 0xFFFFFFFFFFFFFFFFFFFFFFFFFFFFFFFFFFFFFFFF MUL NOT AND SWAP1 DUP4 PUSH20 0xFFFFFFFFFFFFFFFFFFFFFFFFFFFFFFFFFFFFFFFF AND MUL OR SWAP1 SSTORE POP TIMESTAMP DUP2 PUSH1 0xA ADD DUP2 SWAP1 SSTORE POP PUSH1 0x2 DUP10 SWAP1 DUP1 PUSH1 0x1 DUP2 SLOAD ADD DUP1 DUP3 SSTORE DUP1 SWAP2 POP POP SWAP1 PUSH1 0x1 DUP3 SUB SWAP1 PUSH1 0x0 MSTORE PUSH1 0x20 PUSH1 0x0 KECCAK256 ADD PUSH1 0x0 SWAP1 SWAP2 SWAP3 SWAP1 SWAP2 SWAP1 SWAP2 PUSH2 0x100 EXP DUP2 SLOAD DUP2 PUSH20 0xFFFFFFFFFFFFFFFFFFFFFFFFFFFFFFFFFFFFFFFF MUL NOT AND SWAP1 DUP4 PUSH20 0xFFFFFFFFFFFFFFFFFFFFFFFFFFFFFFFFFFFFFFFF AND MUL OR SWAP1 SSTORE POP POP PUSH1 0x1 PUSH1 0x7 PUSH1 0x0 DUP12 PUSH20 0xFFFFFFFFFFFFFFFFFFFFFFFFFFFFFFFFFFFFFFFF AND PUSH20 0xFFFFFFFFFFFFFFFFFFFFFFFFFFFFFFFFFFFFFFFF AND DUP2 MSTORE PUSH1 0x20 ADD SWAP1 DUP2 MSTORE PUSH1 0x20 ADD PUSH1 0x0 KECCAK256 PUSH1 0x0 PUSH2 0x100 EXP DUP2 SLOAD DUP2 PUSH1 0xFF MUL NOT AND SWAP1 DUP4 ISZERO ISZERO MUL OR SWAP1 SSTORE POP PUSH1 0x1 PUSH1 0x5 PUSH1 0x0 DUP12 PUSH20 0xFFFFFFFFFFFFFFFFFFFFFFFFFFFFFFFFFFFFFFFF AND PUSH20 0xFFFFFFFFFFFFFFFFFFFFFFFFFFFFFFFFFFFFFFFF AND DUP2 MSTORE PUSH1 0x20 ADD SWAP1 DUP2 MSTORE PUSH1 0x20 ADD PUSH1 0x0 KECCAK256 PUSH1 0x0 DUP12 PUSH20 0xFFFFFFFFFFFFFFFFFFFFFFFFFFFFFFFFFFFFFFFF AND PUSH20 0xFFFFFFFFFFFFFFFFFFFFFFFFFFFFFFFFFFFFFFFF AND DUP2 MSTORE PUSH1 0x20 ADD SWAP1 DUP2 MSTORE PUSH1 0x20 ADD PUSH1 0x0 KECCAK256 PUSH1 0x0 PUSH2 0x100 EXP DUP2 SLOAD DUP2 PUSH1 0xFF MUL NOT AND SWAP1 DUP4 ISZERO ISZERO MUL OR SWAP1 SSTORE POP PUSH1 0x1 PUSH1 0x5 PUSH1 0x0 DUP12 PUSH20 0xFFFFFFFFFFFFFFFFFFFFFFFFFFFFFFFFFFFFFFFF AND PUSH20 0xFFFFFFFFFFFFFFFFFFFFFFFFFFFFFFFFFFFFFFFF AND DUP2 MSTORE PUSH1 0x20 ADD SWAP1 DUP2 MSTORE PUSH1 0x20 ADD PUSH1 0x0 KECCAK256 PUSH1 0x0 PUSH1 0xB PUSH1 0x0 SWAP1 SLOAD SWAP1 PUSH2 0x100 EXP SWAP1 DIV PUSH20 0xFFFFFFFFFFFFFFFFFFFFFFFFFFFFFFFFFFFFFFFF AND PUSH20 0xFFFFFFFFFFFFFFFFFFFFFFFFFFFFFFFFFFFFFFFF AND PUSH20 0xFFFFFFFFFFFFFFFFFFFFFFFFFFFFFFFFFFFFFFFF AND DUP2 MSTORE PUSH1 0x20 ADD SWAP1 DUP2 MSTORE PUSH1 0x20 ADD PUSH1 0x0 KECCAK256 PUSH1 0x0 PUSH2 0x100 EXP DUP2 SLOAD DUP2 PUSH1 0xFF MUL NOT AND SWAP1 DUP4 ISZERO ISZERO MUL OR SWAP1 SSTORE POP PUSH1 0x9 PUSH1 0x0 DUP2 SLOAD DUP1 SWAP3 SWAP2 SWAP1 PUSH1 0x1 ADD SWAP2 SWAP1 POP SSTORE POP POP POP POP POP POP POP POP POP POP JUMP JUMPDEST PUSH1 0x0 PUSH1 0xA SLOAD SWAP1 POP SWAP1 JUMP JUMPDEST PUSH1 0x0 PUSH1 0x1 PUSH1 0x5 PUSH1 0x0 CALLER PUSH20 0xFFFFFFFFFFFFFFFFFFFFFFFFFFFFFFFFFFFFFFFF AND PUSH20 0xFFFFFFFFFFFFFFFFFFFFFFFFFFFFFFFFFFFFFFFF AND DUP2 MSTORE PUSH1 0x20 ADD SWAP1 DUP2 MSTORE PUSH1 0x20 ADD PUSH1 0x0 KECCAK256 PUSH1 0x0 DUP5 PUSH20 0xFFFFFFFFFFFFFFFFFFFFFFFFFFFFFFFFFFFFFFFF AND PUSH20 0xFFFFFFFFFFFFFFFFFFFFFFFFFFFFFFFFFFFFFFFF AND DUP2 MSTORE PUSH1 0x20 ADD SWAP1 DUP2 MSTORE PUSH1 0x20 ADD PUSH1 0x0 KECCAK256 PUSH1 0x0 PUSH2 0x100 EXP DUP2 SLOAD DUP2 PUSH1 0xFF MUL NOT AND SWAP1 DUP4 ISZERO ISZERO MUL OR SWAP1 SSTORE POP PUSH1 0xA PUSH1 0x0 DUP2 SLOAD DUP1 SWAP3 SWAP2 SWAP1 PUSH1 0x1 ADD SWAP2 SWAP1 POP SSTORE POP PUSH1 0x1 SWAP1 POP SWAP2 SWAP1 POP JUMP JUMPDEST PUSH1 0x0 PUSH1 0xB PUSH1 0x0 SWAP1 SLOAD SWAP1 PUSH2 0x100 EXP SWAP1 DIV PUSH20 0xFFFFFFFFFFFFFFFFFFFFFFFFFFFFFFFFFFFFFFFF AND PUSH20 0xFFFFFFFFFFFFFFFFFFFFFFFFFFFFFFFFFFFFFFFF AND CALLER PUSH20 0xFFFFFFFFFFFFFFFFFFFFFFFFFFFFFFFFFFFFFFFF AND EQ ISZERO ISZERO PUSH2 0x1253 JUMPI PUSH1 0x0 DUP1 REVERT JUMPDEST PUSH1 0x6 PUSH1 0x0 DUP13 PUSH20 0xFFFFFFFFFFFFFFFFFFFFFFFFFFFFFFFFFFFFFFFF AND PUSH20 0xFFFFFFFFFFFFFFFFFFFFFFFFFFFFFFFFFFFFFFFF AND DUP2 MSTORE PUSH1 0x20 ADD SWAP1 DUP2 MSTORE PUSH1 0x20 ADD PUSH1 0x0 KECCAK256 PUSH1 0x0 SWAP1 SLOAD SWAP1 PUSH2 0x100 EXP SWAP1 DIV PUSH1 0xFF AND ISZERO ISZERO ISZERO PUSH2 0x12AC JUMPI PUSH1 0x0 DUP1 REVERT JUMPDEST PUSH1 0x3 PUSH1 0x0 DUP13 PUSH20 0xFFFFFFFFFFFFFFFFFFFFFFFFFFFFFFFFFFFFFFFF AND PUSH20 0xFFFFFFFFFFFFFFFFFFFFFFFFFFFFFFFFFFFFFFFF AND DUP2 MSTORE PUSH1 0x20 ADD SWAP1 DUP2 MSTORE PUSH1 0x20 ADD PUSH1 0x0 KECCAK256 SWAP1 POP DUP10 DUP2 PUSH1 0x0 ADD SWAP1 DUP1 MLOAD SWAP1 PUSH1 0x20 ADD SWAP1 PUSH2 0x1305 SWAP3 SWAP2 SWAP1 PUSH2 0x1F04 JUMP JUMPDEST POP DUP9 DUP2 PUSH1 0x1 ADD SWAP1 DUP1 MLOAD SWAP1 PUSH1 0x20 ADD SWAP1 PUSH2 0x131E SWAP3 SWAP2 SWAP1 PUSH2 0x1F04 JUMP JUMPDEST POP DUP8 DUP2 PUSH1 0x2 ADD SWAP1 DUP1 MLOAD SWAP1 PUSH1 0x20 ADD SWAP1 PUSH2 0x1337 SWAP3 SWAP2 SWAP1 PUSH2 0x1F04 JUMP JUMPDEST POP DUP7 DUP2 PUSH1 0x3 ADD SWAP1 DUP1 MLOAD SWAP1 PUSH1 0x20 ADD SWAP1 PUSH2 0x1350 SWAP3 SWAP2 SWAP1 PUSH2 0x1F04 JUMP JUMPDEST POP DUP6 DUP2 PUSH1 0x4 ADD SWAP1 DUP1 MLOAD SWAP1 PUSH1 0x20 ADD SWAP1 PUSH2 0x1369 SWAP3 SWAP2 SWAP1 PUSH2 0x1F04 JUMP JUMPDEST POP DUP5 DUP2 PUSH1 0x5 ADD SWAP1 DUP1 MLOAD SWAP1 PUSH1 0x20 ADD SWAP1 PUSH2 0x1382 SWAP3 SWAP2 SWAP1 PUSH2 0x1F04 JUMP JUMPDEST POP DUP4 DUP2 PUSH1 0x6 ADD SWAP1 DUP1 MLOAD SWAP1 PUSH1 0x20 ADD SWAP1 PUSH2 0x139B SWAP3 SWAP2 SWAP1 PUSH2 0x1F04 JUMP JUMPDEST POP DUP3 DUP2 PUSH1 0x7 ADD SWAP1 DUP1 MLOAD SWAP1 PUSH1 0x20 ADD SWAP1 PUSH2 0x13B4 SWAP3 SWAP2 SWAP1 PUSH2 0x1F04 JUMP JUMPDEST POP DUP2 DUP2 PUSH1 0x8 ADD SWAP1 DUP1 MLOAD SWAP1 PUSH1 0x20 ADD SWAP1 PUSH2 0x13CD SWAP3 SWAP2 SWAP1 PUSH2 0x1F04 JUMP JUMPDEST POP DUP11 DUP2 PUSH1 0x9 ADD PUSH1 0x0 PUSH2 0x100 EXP DUP2 SLOAD DUP2 PUSH20 0xFFFFFFFFFFFFFFFFFFFFFFFFFFFFFFFFFFFFFFFF MUL NOT AND SWAP1 DUP4 PUSH20 0xFFFFFFFFFFFFFFFFFFFFFFFFFFFFFFFFFFFFFFFF AND MUL OR SWAP1 SSTORE POP TIMESTAMP DUP2 PUSH1 0xA ADD DUP2 SWAP1 SSTORE POP PUSH1 0x1 DUP12 SWAP1 DUP1 PUSH1 0x1 DUP2 SLOAD ADD DUP1 DUP3 SSTORE DUP1 SWAP2 POP POP SWAP1 PUSH1 0x1 DUP3 SUB SWAP1 PUSH1 0x0 MSTORE PUSH1 0x20 PUSH1 0x0 KECCAK256 ADD PUSH1 0x0 SWAP1 SWAP2 SWAP3 SWAP1 SWAP2 SWAP1 SWAP2 PUSH2 0x100 EXP DUP2 SLOAD DUP2 PUSH20 0xFFFFFFFFFFFFFFFFFFFFFFFFFFFFFFFFFFFFFFFF MUL NOT AND SWAP1 DUP4 PUSH20 0xFFFFFFFFFFFFFFFFFFFFFFFFFFFFFFFFFFFFFFFF AND MUL OR SWAP1 SSTORE POP POP PUSH1 0x1 PUSH1 0x6 PUSH1 0x0 DUP14 PUSH20 0xFFFFFFFFFFFFFFFFFFFFFFFFFFFFFFFFFFFFFFFF AND PUSH20 0xFFFFFFFFFFFFFFFFFFFFFFFFFFFFFFFFFFFFFFFF AND DUP2 MSTORE PUSH1 0x20 ADD SWAP1 DUP2 MSTORE PUSH1 0x20 ADD PUSH1 0x0 KECCAK256 PUSH1 0x0 PUSH2 0x100 EXP DUP2 SLOAD DUP2 PUSH1 0xFF MUL NOT AND SWAP1 DUP4 ISZERO ISZERO MUL OR SWAP1 SSTORE POP PUSH1 0x1 PUSH1 0x5 PUSH1 0x0 DUP14 PUSH20 0xFFFFFFFFFFFFFFFFFFFFFFFFFFFFFFFFFFFFFFFF AND PUSH20 0xFFFFFFFFFFFFFFFFFFFFFFFFFFFFFFFFFFFFFFFF AND DUP2 MSTORE PUSH1 0x20 ADD SWAP1 DUP2 MSTORE PUSH1 0x20 ADD PUSH1 0x0 KECCAK256 PUSH1 0x0 DUP14 PUSH20 0xFFFFFFFFFFFFFFFFFFFFFFFFFFFFFFFFFFFFFFFF AND PUSH20 0xFFFFFFFFFFFFFFFFFFFFFFFFFFFFFFFFFFFFFFFF AND DUP2 MSTORE PUSH1 0x20 ADD SWAP1 DUP2 MSTORE PUSH1 0x20 ADD PUSH1 0x0 KECCAK256 PUSH1 0x0 PUSH2 0x100 EXP DUP2 SLOAD DUP2 PUSH1 0xFF MUL NOT AND SWAP1 DUP4 ISZERO ISZERO MUL OR SWAP1 SSTORE POP PUSH1 0x1 PUSH1 0x5 PUSH1 0x0 DUP14 PUSH20 0xFFFFFFFFFFFFFFFFFFFFFFFFFFFFFFFFFFFFFFFF AND PUSH20 0xFFFFFFFFFFFFFFFFFFFFFFFFFFFFFFFFFFFFFFFF AND DUP2 MSTORE PUSH1 0x20 ADD SWAP1 DUP2 MSTORE PUSH1 0x20 ADD PUSH1 0x0 KECCAK256 PUSH1 0x0 PUSH1 0xB PUSH1 0x0 SWAP1 SLOAD SWAP1 PUSH2 0x100 EXP SWAP1 DIV PUSH20 0xFFFFFFFFFFFFFFFFFFFFFFFFFFFFFFFFFFFFFFFF AND PUSH20 0xFFFFFFFFFFFFFFFFFFFFFFFFFFFFFFFFFFFFFFFF AND PUSH20 0xFFFFFFFFFFFFFFFFFFFFFFFFFFFFFFFFFFFFFFFF AND DUP2 MSTORE PUSH1 0x20 ADD SWAP1 DUP2 MSTORE PUSH1 0x20 ADD PUSH1 0x0 KECCAK256 PUSH1 0x0 PUSH2 0x100 EXP DUP2 SLOAD DUP2 PUSH1 0xFF MUL NOT AND SWAP1 DUP4 ISZERO ISZERO MUL OR SWAP1 SSTORE POP PUSH1 0x8 PUSH1 0x0 DUP2 SLOAD DUP1 SWAP3 SWAP2 SWAP1 PUSH1 0x1 ADD SWAP2 SWAP1 POP SSTORE POP POP POP POP POP POP POP POP POP POP POP POP JUMP JUMPDEST PUSH1 0x0 PUSH1 0xB PUSH1 0x0 SWAP1 SLOAD SWAP1 PUSH2 0x100 EXP SWAP1 DIV PUSH20 0xFFFFFFFFFFFFFFFFFFFFFFFFFFFFFFFFFFFFFFFF AND PUSH20 0xFFFFFFFFFFFFFFFFFFFFFFFFFFFFFFFFFFFFFFFF AND CALLER PUSH20 0xFFFFFFFFFFFFFFFFFFFFFFFFFFFFFFFFFFFFFFFF AND EQ ISZERO ISZERO PUSH2 0x16A1 JUMPI PUSH1 0x0 DUP1 REVERT JUMPDEST PUSH1 0x6 PUSH1 0x0 DUP13 PUSH20 0xFFFFFFFFFFFFFFFFFFFFFFFFFFFFFFFFFFFFFFFF AND PUSH20 0xFFFFFFFFFFFFFFFFFFFFFFFFFFFFFFFFFFFFFFFF AND DUP2 MSTORE PUSH1 0x20 ADD SWAP1 DUP2 MSTORE PUSH1 0x20 ADD PUSH1 0x0 KECCAK256 PUSH1 0x0 SWAP1 SLOAD SWAP1 PUSH2 0x100 EXP SWAP1 DIV PUSH1 0xFF AND ISZERO ISZERO PUSH2 0x16F9 JUMPI PUSH1 0x0 DUP1 REVERT JUMPDEST PUSH1 0x3 PUSH1 0x0 DUP13 PUSH20 0xFFFFFFFFFFFFFFFFFFFFFFFFFFFFFFFFFFFFFFFF AND PUSH20 0xFFFFFFFFFFFFFFFFFFFFFFFFFFFFFFFFFFFFFFFF AND DUP2 MSTORE PUSH1 0x20 ADD SWAP1 DUP2 MSTORE PUSH1 0x20 ADD PUSH1 0x0 KECCAK256 SWAP1 POP DUP10 DUP2 PUSH1 0x0 ADD SWAP1 DUP1 MLOAD SWAP1 PUSH1 0x20 ADD SWAP1 PUSH2 0x1752 SWAP3 SWAP2 SWAP1 PUSH2 0x1F04 JUMP JUMPDEST POP DUP9 DUP2 PUSH1 0x1 ADD SWAP1 DUP1 MLOAD SWAP1 PUSH1 0x20 ADD SWAP1 PUSH2 0x176B SWAP3 SWAP2 SWAP1 PUSH2 0x1F04 JUMP JUMPDEST POP DUP8 DUP2 PUSH1 0x2 ADD SWAP1 DUP1 MLOAD SWAP1 PUSH1 0x20 ADD SWAP1 PUSH2 0x1784 SWAP3 SWAP2 SWAP1 PUSH2 0x1F04 JUMP JUMPDEST POP DUP7 DUP2 PUSH1 0x3 ADD SWAP1 DUP1 MLOAD SWAP1 PUSH1 0x20 ADD SWAP1 PUSH2 0x179D SWAP3 SWAP2 SWAP1 PUSH2 0x1F04 JUMP JUMPDEST POP DUP6 DUP2 PUSH1 0x4 ADD SWAP1 DUP1 MLOAD SWAP1 PUSH1 0x20 ADD SWAP1 PUSH2 0x17B6 SWAP3 SWAP2 SWAP1 PUSH2 0x1F04 JUMP JUMPDEST POP DUP5 DUP2 PUSH1 0x5 ADD SWAP1 DUP1 MLOAD SWAP1 PUSH1 0x20 ADD SWAP1 PUSH2 0x17CF SWAP3 SWAP2 SWAP1 PUSH2 0x1F04 JUMP JUMPDEST POP DUP4 DUP2 PUSH1 0x6 ADD SWAP1 DUP1 MLOAD SWAP1 PUSH1 0x20 ADD SWAP1 PUSH2 0x17E8 SWAP3 SWAP2 SWAP1 PUSH2 0x1F04 JUMP JUMPDEST POP DUP3 DUP2 PUSH1 0x7 ADD SWAP1 DUP1 MLOAD SWAP1 PUSH1 0x20 ADD SWAP1 PUSH2 0x1801 SWAP3 SWAP2 SWAP1 PUSH2 0x1F04 JUMP JUMPDEST POP DUP2 DUP2 PUSH1 0x8 ADD SWAP1 DUP1 MLOAD SWAP1 PUSH1 0x20 ADD SWAP1 PUSH2 0x181A SWAP3 SWAP2 SWAP1 PUSH2 0x1F04 JUMP JUMPDEST POP DUP11 DUP2 PUSH1 0x9 ADD PUSH1 0x0 PUSH2 0x100 EXP DUP2 SLOAD DUP2 PUSH20 0xFFFFFFFFFFFFFFFFFFFFFFFFFFFFFFFFFFFFFFFF MUL NOT AND SWAP1 DUP4 PUSH20 0xFFFFFFFFFFFFFFFFFFFFFFFFFFFFFFFFFFFFFFFF AND MUL OR SWAP1 SSTORE POP POP POP POP POP POP POP POP POP POP POP POP JUMP JUMPDEST PUSH1 0x9 SLOAD DUP2 JUMP JUMPDEST PUSH1 0x0 PUSH1 0x9 SLOAD SWAP1 POP SWAP1 JUMP JUMPDEST PUSH1 0x0 DUP1 SWAP1 SLOAD SWAP1 PUSH2 0x100 EXP SWAP1 DIV PUSH20 0xFFFFFFFFFFFFFFFFFFFFFFFFFFFFFFFFFFFFFFFF AND DUP2 JUMP JUMPDEST CALLER PUSH1 0x0 DUP1 PUSH2 0x100 EXP DUP2 SLOAD DUP2 PUSH20 0xFFFFFFFFFFFFFFFFFFFFFFFFFFFFFFFFFFFFFFFF MUL NOT AND SWAP1 DUP4 PUSH20 0xFFFFFFFFFFFFFFFFFFFFFFFFFFFFFFFFFFFFFFFF AND MUL OR SWAP1 SSTORE POP JUMP JUMPDEST PUSH1 0x1 DUP2 DUP2 SLOAD DUP2 LT ISZERO ISZERO PUSH2 0x18F1 JUMPI INVALID JUMPDEST SWAP1 PUSH1 0x0 MSTORE PUSH1 0x20 PUSH1 0x0 KECCAK256 ADD PUSH1 0x0 SWAP2 POP SLOAD SWAP1 PUSH2 0x100 EXP SWAP1 DIV PUSH20 0xFFFFFFFFFFFFFFFFFFFFFFFFFFFFFFFFFFFFFFFF AND DUP2 JUMP JUMPDEST PUSH1 0xA SLOAD DUP2 JUMP JUMPDEST PUSH1 0x60 PUSH1 0x2 DUP1 SLOAD DUP1 PUSH1 0x20 MUL PUSH1 0x20 ADD PUSH1 0x40 MLOAD SWAP1 DUP2 ADD PUSH1 0x40 MSTORE DUP1 SWAP3 SWAP2 SWAP1 DUP2 DUP2 MSTORE PUSH1 0x20 ADD DUP3 DUP1 SLOAD DUP1 ISZERO PUSH2 0x19AA JUMPI PUSH1 0x20 MUL DUP3 ADD SWAP2 SWAP1 PUSH1 0x0 MSTORE PUSH1 0x20 PUSH1 0x0 KECCAK256 SWAP1 JUMPDEST DUP2 PUSH1 0x0 SWAP1 SLOAD SWAP1 PUSH2 0x100 EXP SWAP1 DIV PUSH20 0xFFFFFFFFFFFFFFFFFFFFFFFFFFFFFFFFFFFFFFFF AND PUSH20 0xFFFFFFFFFFFFFFFFFFFFFFFFFFFFFFFFFFFFFFFF AND DUP2 MSTORE PUSH1 0x20 ADD SWAP1 PUSH1 0x1 ADD SWAP1 DUP1 DUP4 GT PUSH2 0x1960 JUMPI JUMPDEST POP POP POP POP POP SWAP1 POP SWAP1 JUMP JUMPDEST PUSH1 0x0 PUSH1 0x8 SLOAD SWAP1 POP SWAP1 JUMP JUMPDEST PUSH1 0xB PUSH1 0x0 SWAP1 SLOAD SWAP1 PUSH2 0x100 EXP SWAP1 DIV PUSH20 0xFFFFFFFFFFFFFFFFFFFFFFFFFFFFFFFFFFFFFFFF AND DUP2 JUMP JUMPDEST PUSH1 0x60 DUP1 PUSH1 0x60 DUP1 PUSH1 0x60 DUP1 PUSH1 0x60 PUSH1 0x0 PUSH1 0x7 PUSH1 0x0 DUP11 PUSH20 0xFFFFFFFFFFFFFFFFFFFFFFFFFFFFFFFFFFFFFFFF AND PUSH20 0xFFFFFFFFFFFFFFFFFFFFFFFFFFFFFFFFFFFFFFFF AND DUP2 MSTORE PUSH1 0x20 ADD SWAP1 DUP2 MSTORE PUSH1 0x20 ADD PUSH1 0x0 KECCAK256 PUSH1 0x0 SWAP1 SLOAD SWAP1 PUSH2 0x100 EXP SWAP1 DIV PUSH1 0xFF AND ISZERO ISZERO PUSH2 0x1A49 JUMPI PUSH1 0x0 DUP1 REVERT JUMPDEST PUSH1 0x4 PUSH1 0x0 DUP11 PUSH20 0xFFFFFFFFFFFFFFFFFFFFFFFFFFFFFFFFFFFFFFFF AND PUSH20 0xFFFFFFFFFFFFFFFFFFFFFFFFFFFFFFFFFFFFFFFF AND DUP2 MSTORE PUSH1 0x20 ADD SWAP1 DUP2 MSTORE PUSH1 0x20 ADD PUSH1 0x0 KECCAK256 SWAP1 POP DUP1 PUSH1 0x0 ADD DUP2 PUSH1 0x1 ADD DUP3 PUSH1 0x2 ADD DUP4 PUSH1 0x3 ADD DUP5 PUSH1 0x4 ADD DUP6 PUSH1 0x7 ADD DUP7 PUSH1 0x8 ADD DUP7 DUP1 SLOAD PUSH1 0x1 DUP2 PUSH1 0x1 AND ISZERO PUSH2 0x100 MUL SUB AND PUSH1 0x2 SWAP1 DIV DUP1 PUSH1 0x1F ADD PUSH1 0x20 DUP1 SWAP2 DIV MUL PUSH1 0x20 ADD PUSH1 0x40 MLOAD SWAP1 DUP2 ADD PUSH1 0x40 MSTORE DUP1 SWAP3 SWAP2 SWAP1 DUP2 DUP2 MSTORE PUSH1 0x20 ADD DUP3 DUP1 SLOAD PUSH1 0x1 DUP2 PUSH1 0x1 AND ISZERO PUSH2 0x100 MUL SUB AND PUSH1 0x2 SWAP1 DIV DUP1 ISZERO PUSH2 0x1B3B JUMPI DUP1 PUSH1 0x1F LT PUSH2 0x1B10 JUMPI PUSH2 0x100 DUP1 DUP4 SLOAD DIV MUL DUP4 MSTORE SWAP2 PUSH1 0x20 ADD SWAP2 PUSH2 0x1B3B JUMP JUMPDEST DUP3 ADD SWAP2 SWAP1 PUSH1 0x0 MSTORE PUSH1 0x20 PUSH1 0x0 KECCAK256 SWAP1 JUMPDEST DUP2 SLOAD DUP2 MSTORE SWAP1 PUSH1 0x1 ADD SWAP1 PUSH1 0x20 ADD DUP1 DUP4 GT PUSH2 0x1B1E JUMPI DUP3 SWAP1 SUB PUSH1 0x1F AND DUP3 ADD SWAP2 JUMPDEST POP POP POP POP POP SWAP7 POP DUP6 DUP1 SLOAD PUSH1 0x1 DUP2 PUSH1 0x1 AND ISZERO PUSH2 0x100 MUL SUB AND PUSH1 0x2 SWAP1 DIV DUP1 PUSH1 0x1F ADD PUSH1 0x20 DUP1 SWAP2 DIV MUL PUSH1 0x20 ADD PUSH1 0x40 MLOAD SWAP1 DUP2 ADD PUSH1 0x40 MSTORE DUP1 SWAP3 SWAP2 SWAP1 DUP2 DUP2 MSTORE PUSH1 0x20 ADD DUP3 DUP1 SLOAD PUSH1 0x1 DUP2 PUSH1 0x1 AND ISZERO PUSH2 0x100 MUL SUB AND PUSH1 0x2 SWAP1 DIV DUP1 ISZERO PUSH2 0x1BD7 JUMPI DUP1 PUSH1 0x1F LT PUSH2 0x1BAC JUMPI PUSH2 0x100 DUP1 DUP4 SLOAD DIV MUL DUP4 MSTORE SWAP2 PUSH1 0x20 ADD SWAP2 PUSH2 0x1BD7 JUMP JUMPDEST DUP3 ADD SWAP2 SWAP1 PUSH1 0x0 MSTORE PUSH1 0x20 PUSH1 0x0 KECCAK256 SWAP1 JUMPDEST DUP2 SLOAD DUP2 MSTORE SWAP1 PUSH1 0x1 ADD SWAP1 PUSH1 0x20 ADD DUP1 DUP4 GT PUSH2 0x1BBA JUMPI DUP3 SWAP1 SUB PUSH1 0x1F AND DUP3 ADD SWAP2 JUMPDEST POP POP POP POP POP SWAP6 POP DUP5 DUP1 SLOAD PUSH1 0x1 DUP2 PUSH1 0x1 AND ISZERO PUSH2 0x100 MUL SUB AND PUSH1 0x2 SWAP1 DIV DUP1 PUSH1 0x1F ADD PUSH1 0x20 DUP1 SWAP2 DIV MUL PUSH1 0x20 ADD PUSH1 0x40 MLOAD SWAP1 DUP2 ADD PUSH1 0x40 MSTORE DUP1 SWAP3 SWAP2 SWAP1 DUP2 DUP2 MSTORE PUSH1 0x20 ADD DUP3 DUP1 SLOAD PUSH1 0x1 DUP2 PUSH1 0x1 AND ISZERO PUSH2 0x100 MUL SUB AND PUSH1 0x2 SWAP1 DIV DUP1 ISZERO PUSH2 0x1C73 JUMPI DUP1 PUSH1 0x1F LT PUSH2 0x1C48 JUMPI PUSH2 0x100 DUP1 DUP4 SLOAD DIV MUL DUP4 MSTORE SWAP2 PUSH1 0x20 ADD SWAP2 PUSH2 0x1C73 JUMP JUMPDEST DUP3 ADD SWAP2 SWAP1 PUSH1 0x0 MSTORE PUSH1 0x20 PUSH1 0x0 KECCAK256 SWAP1 JUMPDEST DUP2 SLOAD DUP2 MSTORE SWAP1 PUSH1 0x1 ADD SWAP1 PUSH1 0x20 ADD DUP1 DUP4 GT PUSH2 0x1C56 JUMPI DUP3 SWAP1 SUB PUSH1 0x1F AND DUP3 ADD SWAP2 JUMPDEST POP POP POP POP POP SWAP5 POP DUP4 DUP1 SLOAD PUSH1 0x1 DUP2 PUSH1 0x1 AND ISZERO PUSH2 0x100 MUL SUB AND PUSH1 0x2 SWAP1 DIV DUP1 PUSH1 0x1F ADD PUSH1 0x20 DUP1 SWAP2 DIV MUL PUSH1 0x20 ADD PUSH1 0x40 MLOAD SWAP1 DUP2 ADD PUSH1 0x40 MSTORE DUP1 SWAP3 SWAP2 SWAP1 DUP2 DUP2 MSTORE PUSH1 0x20 ADD DUP3 DUP1 SLOAD PUSH1 0x1 DUP2 PUSH1 0x1 AND ISZERO PUSH2 0x100 MUL SUB AND PUSH1 0x2 SWAP1 DIV DUP1 ISZERO PUSH2 0x1D0F JUMPI DUP1 PUSH1 0x1F LT PUSH2 0x1CE4 JUMPI PUSH2 0x100 DUP1 DUP4 SLOAD DIV MUL DUP4 MSTORE SWAP2 PUSH1 0x20 ADD SWAP2 PUSH2 0x1D0F JUMP JUMPDEST DUP3 ADD SWAP2 SWAP1 PUSH1 0x0 MSTORE PUSH1 0x20 PUSH1 0x0 KECCAK256 SWAP1 JUMPDEST DUP2 SLOAD DUP2 MSTORE SWAP1 PUSH1 0x1 ADD SWAP1 PUSH1 0x20 ADD DUP1 DUP4 GT PUSH2 0x1CF2 JUMPI DUP3 SWAP1 SUB PUSH1 0x1F AND DUP3 ADD SWAP2 JUMPDEST POP POP POP POP POP SWAP4 POP DUP3 DUP1 SLOAD PUSH1 0x1 DUP2 PUSH1 0x1 AND ISZERO PUSH2 0x100 MUL SUB AND PUSH1 0x2 SWAP1 DIV DUP1 PUSH1 0x1F ADD PUSH1 0x20 DUP1 SWAP2 DIV MUL PUSH1 0x20 ADD PUSH1 0x40 MLOAD SWAP1 DUP2 ADD PUSH1 0x40 MSTORE DUP1 SWAP3 SWAP2 SWAP1 DUP2 DUP2 MSTORE PUSH1 0x20 ADD DUP3 DUP1 SLOAD PUSH1 0x1 DUP2 PUSH1 0x1 AND ISZERO PUSH2 0x100 MUL SUB AND PUSH1 0x2 SWAP1 DIV DUP1 ISZERO PUSH2 0x1DAB JUMPI DUP1 PUSH1 0x1F LT PUSH2 0x1D80 JUMPI PUSH2 0x100 DUP1 DUP4 SLOAD DIV MUL DUP4 MSTORE SWAP2 PUSH1 0x20 ADD SWAP2 PUSH2 0x1DAB JUMP JUMPDEST DUP3 ADD SWAP2 SWAP1 PUSH1 0x0 MSTORE PUSH1 0x20 PUSH1 0x0 KECCAK256 SWAP1 JUMPDEST DUP2 SLOAD DUP2 MSTORE SWAP1 PUSH1 0x1 ADD SWAP1 PUSH1 0x20 ADD DUP1 DUP4 GT PUSH2 0x1D8E JUMPI DUP3 SWAP1 SUB PUSH1 0x1F AND DUP3 ADD SWAP2 JUMPDEST POP POP POP POP POP SWAP3 POP DUP2 DUP1 SLOAD PUSH1 0x1 DUP2 PUSH1 0x1 AND ISZERO PUSH2 0x100 MUL SUB AND PUSH1 0x2 SWAP1 DIV DUP1 PUSH1 0x1F ADD PUSH1 0x20 DUP1 SWAP2 DIV MUL PUSH1 0x20 ADD PUSH1 0x40 MLOAD SWAP1 DUP2 ADD PUSH1 0x40 MSTORE DUP1 SWAP3 SWAP2 SWAP1 DUP2 DUP2 MSTORE PUSH1 0x20 ADD DUP3 DUP1 SLOAD PUSH1 0x1 DUP2 PUSH1 0x1 AND ISZERO PUSH2 0x100 MUL SUB AND PUSH1 0x2 SWAP1 DIV DUP1 ISZERO PUSH2 0x1E47 JUMPI DUP1 PUSH1 0x1F LT PUSH2 0x1E1C JUMPI PUSH2 0x100 DUP1 DUP4 SLOAD DIV MUL DUP4 MSTORE SWAP2 PUSH1 0x20 ADD SWAP2 PUSH2 0x1E47 JUMP JUMPDEST DUP3 ADD SWAP2 SWAP1 PUSH1 0x0 MSTORE PUSH1 0x20 PUSH1 0x0 KECCAK256 SWAP1 JUMPDEST DUP2 SLOAD DUP2 MSTORE SWAP1 PUSH1 0x1 ADD SWAP1 PUSH1 0x20 ADD DUP1 DUP4 GT PUSH2 0x1E2A JUMPI DUP3 SWAP1 SUB PUSH1 0x1F AND DUP3 ADD SWAP2 JUMPDEST POP POP POP POP POP SWAP2 POP DUP1 DUP1 SLOAD PUSH1 0x1 DUP2 PUSH1 0x1 AND ISZERO PUSH2 0x100 MUL SUB AND PUSH1 0x2 SWAP1 DIV DUP1 PUSH1 0x1F ADD PUSH1 0x20 DUP1 SWAP2 DIV MUL PUSH1 0x20 ADD PUSH1 0x40 MLOAD SWAP1 DUP2 ADD PUSH1 0x40 MSTORE DUP1 SWAP3 SWAP2 SWAP1 DUP2 DUP2 MSTORE PUSH1 0x20 ADD DUP3 DUP1 SLOAD PUSH1 0x1 DUP2 PUSH1 0x1 AND ISZERO PUSH2 0x100 MUL SUB AND PUSH1 0x2 SWAP1 DIV DUP1 ISZERO PUSH2 0x1EE3 JUMPI DUP1 PUSH1 0x1F LT PUSH2 0x1EB8 JUMPI PUSH2 0x100 DUP1 DUP4 SLOAD DIV MUL DUP4 MSTORE SWAP2 PUSH1 0x20 ADD SWAP2 PUSH2 0x1EE3 JUMP JUMPDEST DUP3 ADD SWAP2 SWAP1 PUSH1 0x0 MSTORE PUSH1 0x20 PUSH1 0x0 KECCAK256 SWAP1 JUMPDEST DUP2 SLOAD DUP2 MSTORE SWAP1 PUSH1 0x1 ADD SWAP1 PUSH1 0x20 ADD DUP1 DUP4 GT PUSH2 0x1EC6 JUMPI DUP3 SWAP1 SUB PUSH1 0x1F AND DUP3 ADD SWAP2 JUMPDEST POP POP POP POP POP SWAP1 POP SWAP8 POP SWAP8 POP SWAP8 POP SWAP8 POP SWAP8 POP SWAP8 POP SWAP8 POP POP SWAP2 SWAP4 SWAP6 SWAP8 SWAP1 SWAP3 SWAP5 SWAP7 POP JUMP JUMPDEST DUP3 DUP1 SLOAD PUSH1 0x1 DUP2 PUSH1 0x1 AND ISZERO PUSH2 0x100 MUL SUB AND PUSH1 0x2 SWAP1 DIV SWAP1 PUSH1 0x0 MSTORE PUSH1 0x20 PUSH1 0x0 KECCAK256 SWAP1 PUSH1 0x1F ADD PUSH1 0x20 SWAP1 DIV DUP2 ADD SWAP3 DUP3 PUSH1 0x1F LT PUSH2 0x1F45 JUMPI DUP1 MLOAD PUSH1 0xFF NOT AND DUP4 DUP1 ADD OR DUP6 SSTORE PUSH2 0x1F73 JUMP JUMPDEST DUP3 DUP1 ADD PUSH1 0x1 ADD DUP6 SSTORE DUP3 ISZERO PUSH2 0x1F73 JUMPI SWAP2 DUP3 ADD JUMPDEST DUP3 DUP2 GT ISZERO PUSH2 0x1F72 JUMPI DUP3 MLOAD DUP3 SSTORE SWAP2 PUSH1 0x20 ADD SWAP2 SWAP1 PUSH1 0x1 ADD SWAP1 PUSH2 0x1F57 JUMP JUMPDEST JUMPDEST POP SWAP1 POP PUSH2 0x1F80 SWAP2 SWAP1 PUSH2 0x1F84 JUMP JUMPDEST POP SWAP1 JUMP JUMPDEST PUSH2 0x1FA6 SWAP2 SWAP1 JUMPDEST DUP1 DUP3 GT ISZERO PUSH2 0x1FA2 JUMPI PUSH1 0x0 DUP2 PUSH1 0x0 SWAP1 SSTORE POP PUSH1 0x1 ADD PUSH2 0x1F8A JUMP JUMPDEST POP SWAP1 JUMP JUMPDEST SWAP1 JUMP JUMPDEST PUSH1 0x0 PUSH2 0x1FB5 DUP3 CALLDATALOAD PUSH2 0x26A1 JUMP JUMPDEST SWAP1 POP SWAP3 SWAP2 POP POP JUMP JUMPDEST PUSH1 0x0 DUP3 PUSH1 0x1F DUP4 ADD SLT ISZERO ISZERO PUSH2 0x1FD0 JUMPI PUSH1 0x0 DUP1 REVERT JUMPDEST DUP2 CALLDATALOAD PUSH2 0x1FE3 PUSH2 0x1FDE DUP3 PUSH2 0x260F JUMP JUMPDEST PUSH2 0x25E2 JUMP JUMPDEST SWAP2 POP DUP1 DUP3 MSTORE PUSH1 0x20 DUP4 ADD PUSH1 0x20 DUP4 ADD DUP6 DUP4 DUP4 ADD GT ISZERO PUSH2 0x1FFF JUMPI PUSH1 0x0 DUP1 REVERT JUMPDEST PUSH2 0x200A DUP4 DUP3 DUP5 PUSH2 0x26CB JUMP JUMPDEST POP POP POP SWAP3 SWAP2 POP POP JUMP JUMPDEST PUSH1 0x0 PUSH2 0x201F DUP3 CALLDATALOAD PUSH2 0x26C1 JUMP JUMPDEST SWAP1 POP SWAP3 SWAP2 POP POP JUMP JUMPDEST PUSH1 0x0 PUSH1 0x20 DUP3 DUP5 SUB SLT ISZERO PUSH2 0x2039 JUMPI PUSH1 0x0 DUP1 REVERT JUMPDEST PUSH1 0x0 PUSH2 0x2047 DUP5 DUP3 DUP6 ADD PUSH2 0x1FA9 JUMP JUMPDEST SWAP2 POP POP SWAP3 SWAP2 POP POP JUMP JUMPDEST PUSH1 0x0 DUP1 PUSH1 0x0 DUP1 PUSH1 0x0 DUP1 PUSH1 0x0 DUP1 PUSH2 0x100 DUP10 DUP12 SUB SLT ISZERO PUSH2 0x206D JUMPI PUSH1 0x0 DUP1 REVERT JUMPDEST PUSH1 0x0 PUSH2 0x207B DUP12 DUP3 DUP13 ADD PUSH2 0x1FA9 JUMP JUMPDEST SWAP9 POP POP PUSH1 0x20 DUP10 ADD CALLDATALOAD PUSH8 0xFFFFFFFFFFFFFFFF DUP2 GT ISZERO PUSH2 0x2098 JUMPI PUSH1 0x0 DUP1 REVERT JUMPDEST PUSH2 0x20A4 DUP12 DUP3 DUP13 ADD PUSH2 0x1FBD JUMP JUMPDEST SWAP8 POP POP PUSH1 0x40 DUP10 ADD CALLDATALOAD PUSH8 0xFFFFFFFFFFFFFFFF DUP2 GT ISZERO PUSH2 0x20C1 JUMPI PUSH1 0x0 DUP1 REVERT JUMPDEST PUSH2 0x20CD DUP12 DUP3 DUP13 ADD PUSH2 0x1FBD JUMP JUMPDEST SWAP7 POP POP PUSH1 0x60 DUP10 ADD CALLDATALOAD PUSH8 0xFFFFFFFFFFFFFFFF DUP2 GT ISZERO PUSH2 0x20EA JUMPI PUSH1 0x0 DUP1 REVERT JUMPDEST PUSH2 0x20F6 DUP12 DUP3 DUP13 ADD PUSH2 0x1FBD JUMP JUMPDEST SWAP6 POP POP PUSH1 0x80 DUP10 ADD CALLDATALOAD PUSH8 0xFFFFFFFFFFFFFFFF DUP2 GT ISZERO PUSH2 0x2113 JUMPI PUSH1 0x0 DUP1 REVERT JUMPDEST PUSH2 0x211F DUP12 DUP3 DUP13 ADD PUSH2 0x1FBD JUMP JUMPDEST SWAP5 POP POP PUSH1 0xA0 DUP10 ADD CALLDATALOAD PUSH8 0xFFFFFFFFFFFFFFFF DUP2 GT ISZERO PUSH2 0x213C JUMPI PUSH1 0x0 DUP1 REVERT JUMPDEST PUSH2 0x2148 DUP12 DUP3 DUP13 ADD PUSH2 0x1FBD JUMP JUMPDEST SWAP4 POP POP PUSH1 0xC0 DUP10 ADD CALLDATALOAD PUSH8 0xFFFFFFFFFFFFFFFF DUP2 GT ISZERO PUSH2 0x2165 JUMPI PUSH1 0x0 DUP1 REVERT JUMPDEST PUSH2 0x2171 DUP12 DUP3 DUP13 ADD PUSH2 0x1FBD JUMP JUMPDEST SWAP3 POP POP PUSH1 0xE0 DUP10 ADD CALLDATALOAD PUSH8 0xFFFFFFFFFFFFFFFF DUP2 GT ISZERO PUSH2 0x218E JUMPI PUSH1 0x0 DUP1 REVERT JUMPDEST PUSH2 0x219A DUP12 DUP3 DUP13 ADD PUSH2 0x1FBD JUMP JUMPDEST SWAP2 POP POP SWAP3 SWAP6 SWAP9 POP SWAP3 SWAP6 SWAP9 SWAP1 SWAP4 SWAP7 POP JUMP JUMPDEST PUSH1 0x0 DUP1 PUSH1 0x0 DUP1 PUSH1 0x0 DUP1 PUSH1 0x0 DUP1 PUSH1 0x0 DUP1 PUSH2 0x140 DUP12 DUP14 SUB SLT ISZERO PUSH2 0x21CA JUMPI PUSH1 0x0 DUP1 REVERT JUMPDEST PUSH1 0x0 PUSH2 0x21D8 DUP14 DUP3 DUP15 ADD PUSH2 0x1FA9 JUMP JUMPDEST SWAP11 POP POP PUSH1 0x20 DUP12 ADD CALLDATALOAD PUSH8 0xFFFFFFFFFFFFFFFF DUP2 GT ISZERO PUSH2 0x21F5 JUMPI PUSH1 0x0 DUP1 REVERT JUMPDEST PUSH2 0x2201 DUP14 DUP3 DUP15 ADD PUSH2 0x1FBD JUMP JUMPDEST SWAP10 POP POP PUSH1 0x40 DUP12 ADD CALLDATALOAD PUSH8 0xFFFFFFFFFFFFFFFF DUP2 GT ISZERO PUSH2 0x221E JUMPI PUSH1 0x0 DUP1 REVERT JUMPDEST PUSH2 0x222A DUP14 DUP3 DUP15 ADD PUSH2 0x1FBD JUMP JUMPDEST SWAP9 POP POP PUSH1 0x60 DUP12 ADD CALLDATALOAD PUSH8 0xFFFFFFFFFFFFFFFF DUP2 GT ISZERO PUSH2 0x2247 JUMPI PUSH1 0x0 DUP1 REVERT JUMPDEST PUSH2 0x2253 DUP14 DUP3 DUP15 ADD PUSH2 0x1FBD JUMP JUMPDEST SWAP8 POP POP PUSH1 0x80 DUP12 ADD CALLDATALOAD PUSH8 0xFFFFFFFFFFFFFFFF DUP2 GT ISZERO PUSH2 0x2270 JUMPI PUSH1 0x0 DUP1 REVERT JUMPDEST PUSH2 0x227C DUP14 DUP3 DUP15 ADD PUSH2 0x1FBD JUMP JUMPDEST SWAP7 POP POP PUSH1 0xA0 DUP12 ADD CALLDATALOAD PUSH8 0xFFFFFFFFFFFFFFFF DUP2 GT ISZERO PUSH2 0x2299 JUMPI PUSH1 0x0 DUP1 REVERT JUMPDEST PUSH2 0x22A5 DUP14 DUP3 DUP15 ADD PUSH2 0x1FBD JUMP JUMPDEST SWAP6 POP POP PUSH1 0xC0 DUP12 ADD CALLDATALOAD PUSH8 0xFFFFFFFFFFFFFFFF DUP2 GT ISZERO PUSH2 0x22C2 JUMPI PUSH1 0x0 DUP1 REVERT JUMPDEST PUSH2 0x22CE DUP14 DUP3 DUP15 ADD PUSH2 0x1FBD JUMP JUMPDEST SWAP5 POP POP PUSH1 0xE0 DUP12 ADD CALLDATALOAD PUSH8 0xFFFFFFFFFFFFFFFF DUP2 GT ISZERO PUSH2 0x22EB JUMPI PUSH1 0x0 DUP1 REVERT JUMPDEST PUSH2 0x22F7 DUP14 DUP3 DUP15 ADD PUSH2 0x1FBD JUMP JUMPDEST SWAP4 POP POP PUSH2 0x100 DUP12 ADD CALLDATALOAD PUSH8 0xFFFFFFFFFFFFFFFF DUP2 GT ISZERO PUSH2 0x2315 JUMPI PUSH1 0x0 DUP1 REVERT JUMPDEST PUSH2 0x2321 DUP14 DUP3 DUP15 ADD PUSH2 0x1FBD JUMP JUMPDEST SWAP3 POP POP PUSH2 0x120 DUP12 ADD CALLDATALOAD PUSH8 0xFFFFFFFFFFFFFFFF DUP2 GT ISZERO PUSH2 0x233F JUMPI PUSH1 0x0 DUP1 REVERT JUMPDEST PUSH2 0x234B DUP14 DUP3 DUP15 ADD PUSH2 0x1FBD JUMP JUMPDEST SWAP2 POP POP SWAP3 SWAP6 SWAP9 SWAP12 SWAP2 SWAP5 SWAP8 SWAP11 POP SWAP3 SWAP6 SWAP9 POP JUMP JUMPDEST PUSH1 0x0 PUSH1 0x20 DUP3 DUP5 SUB SLT ISZERO PUSH2 0x236F JUMPI PUSH1 0x0 DUP1 REVERT JUMPDEST PUSH1 0x0 PUSH2 0x237D DUP5 DUP3 DUP6 ADD PUSH2 0x2013 JUMP JUMPDEST SWAP2 POP POP SWAP3 SWAP2 POP POP JUMP JUMPDEST PUSH2 0x238F DUP2 PUSH2 0x266B JUMP JUMPDEST DUP3 MSTORE POP POP JUMP JUMPDEST PUSH1 0x0 PUSH2 0x23A0 DUP3 PUSH2 0x2648 JUMP JUMPDEST DUP1 DUP5 MSTORE PUSH1 0x20 DUP5 ADD SWAP4 POP PUSH2 0x23B2 DUP4 PUSH2 0x263B JUMP JUMPDEST PUSH1 0x0 JUMPDEST DUP3 DUP2 LT ISZERO PUSH2 0x23E4 JUMPI PUSH2 0x23C8 DUP7 DUP4 MLOAD PUSH2 0x2386 JUMP JUMPDEST PUSH2 0x23D1 DUP3 PUSH2 0x265E JUMP JUMPDEST SWAP2 POP PUSH1 0x20 DUP7 ADD SWAP6 POP PUSH1 0x1 DUP2 ADD SWAP1 POP PUSH2 0x23B5 JUMP JUMPDEST POP DUP5 SWAP3 POP POP POP SWAP3 SWAP2 POP POP JUMP JUMPDEST PUSH2 0x23F9 DUP2 PUSH2 0x268B JUMP JUMPDEST DUP3 MSTORE POP POP JUMP JUMPDEST PUSH1 0x0 PUSH2 0x240A DUP3 PUSH2 0x2653 JUMP JUMPDEST DUP1 DUP5 MSTORE PUSH2 0x241E DUP2 PUSH1 0x20 DUP7 ADD PUSH1 0x20 DUP7 ADD PUSH2 0x26DA JUMP JUMPDEST PUSH2 0x2427 DUP2 PUSH2 0x270D JUMP JUMPDEST PUSH1 0x20 DUP6 ADD ADD SWAP2 POP POP SWAP3 SWAP2 POP POP JUMP JUMPDEST PUSH2 0x243E DUP2 PUSH2 0x2697 JUMP JUMPDEST DUP3 MSTORE POP POP JUMP JUMPDEST PUSH1 0x0 PUSH1 0x20 DUP3 ADD SWAP1 POP PUSH2 0x2459 PUSH1 0x0 DUP4 ADD DUP5 PUSH2 0x2386 JUMP JUMPDEST SWAP3 SWAP2 POP POP JUMP JUMPDEST PUSH1 0x0 PUSH1 0x20 DUP3 ADD SWAP1 POP DUP2 DUP2 SUB PUSH1 0x0 DUP4 ADD MSTORE PUSH2 0x2479 DUP2 DUP5 PUSH2 0x2395 JUMP JUMPDEST SWAP1 POP SWAP3 SWAP2 POP POP JUMP JUMPDEST PUSH1 0x0 PUSH1 0x20 DUP3 ADD SWAP1 POP PUSH2 0x2496 PUSH1 0x0 DUP4 ADD DUP5 PUSH2 0x23F0 JUMP JUMPDEST SWAP3 SWAP2 POP POP JUMP JUMPDEST PUSH1 0x0 PUSH1 0xC0 DUP3 ADD SWAP1 POP DUP2 DUP2 SUB PUSH1 0x0 DUP4 ADD MSTORE PUSH2 0x24B6 DUP2 DUP10 PUSH2 0x23FF JUMP JUMPDEST SWAP1 POP DUP2 DUP2 SUB PUSH1 0x20 DUP4 ADD MSTORE PUSH2 0x24CA DUP2 DUP9 PUSH2 0x23FF JUMP JUMPDEST SWAP1 POP DUP2 DUP2 SUB PUSH1 0x40 DUP4 ADD MSTORE PUSH2 0x24DE DUP2 DUP8 PUSH2 0x23FF JUMP JUMPDEST SWAP1 POP DUP2 DUP2 SUB PUSH1 0x60 DUP4 ADD MSTORE PUSH2 0x24F2 DUP2 DUP7 PUSH2 0x23FF JUMP JUMPDEST SWAP1 POP DUP2 DUP2 SUB PUSH1 0x80 DUP4 ADD MSTORE PUSH2 0x2506 DUP2 DUP6 PUSH2 0x23FF JUMP JUMPDEST SWAP1 POP DUP2 DUP2 SUB PUSH1 0xA0 DUP4 ADD MSTORE PUSH2 0x251A DUP2 DUP5 PUSH2 0x23FF JUMP JUMPDEST SWAP1 POP SWAP8 SWAP7 POP POP POP POP POP POP POP JUMP JUMPDEST PUSH1 0x0 PUSH1 0xE0 DUP3 ADD SWAP1 POP DUP2 DUP2 SUB PUSH1 0x0 DUP4 ADD MSTORE PUSH2 0x2541 DUP2 DUP11 PUSH2 0x23FF JUMP JUMPDEST SWAP1 POP DUP2 DUP2 SUB PUSH1 0x20 DUP4 ADD MSTORE PUSH2 0x2555 DUP2 DUP10 PUSH2 0x23FF JUMP JUMPDEST SWAP1 POP DUP2 DUP2 SUB PUSH1 0x40 DUP4 ADD MSTORE PUSH2 0x2569 DUP2 DUP9 PUSH2 0x23FF JUMP JUMPDEST SWAP1 POP DUP2 DUP2 SUB PUSH1 0x60 DUP4 ADD MSTORE PUSH2 0x257D DUP2 DUP8 PUSH2 0x23FF JUMP JUMPDEST SWAP1 POP DUP2 DUP2 SUB PUSH1 0x80 DUP4 ADD MSTORE PUSH2 0x2591 DUP2 DUP7 PUSH2 0x23FF JUMP JUMPDEST SWAP1 POP DUP2 DUP2 SUB PUSH1 0xA0 DUP4 ADD MSTORE PUSH2 0x25A5 DUP2 DUP6 PUSH2 0x23FF JUMP JUMPDEST SWAP1 POP DUP2 DUP2 SUB PUSH1 0xC0 DUP4 ADD MSTORE PUSH2 0x25B9 DUP2 DUP5 PUSH2 0x23FF JUMP JUMPDEST SWAP1 POP SWAP9 SWAP8 POP POP POP POP POP POP POP POP JUMP JUMPDEST PUSH1 0x0 PUSH1 0x20 DUP3 ADD SWAP1 POP PUSH2 0x25DC PUSH1 0x0 DUP4 ADD DUP5 PUSH2 0x2435 JUMP JUMPDEST SWAP3 SWAP2 POP POP JUMP JUMPDEST PUSH1 0x0 PUSH1 0x40 MLOAD SWAP1 POP DUP2 DUP2 ADD DUP2 DUP2 LT PUSH8 0xFFFFFFFFFFFFFFFF DUP3 GT OR ISZERO PUSH2 0x2605 JUMPI PUSH1 0x0 DUP1 REVERT JUMPDEST DUP1 PUSH1 0x40 MSTORE POP SWAP2 SWAP1 POP JUMP JUMPDEST PUSH1 0x0 PUSH8 0xFFFFFFFFFFFFFFFF DUP3 GT ISZERO PUSH2 0x2626 JUMPI PUSH1 0x0 DUP1 REVERT JUMPDEST PUSH1 0x1F NOT PUSH1 0x1F DUP4 ADD AND SWAP1 POP PUSH1 0x20 DUP2 ADD SWAP1 POP SWAP2 SWAP1 POP JUMP JUMPDEST PUSH1 0x0 PUSH1 0x20 DUP3 ADD SWAP1 POP SWAP2 SWAP1 POP JUMP JUMPDEST PUSH1 0x0 DUP2 MLOAD SWAP1 POP SWAP2 SWAP1 POP JUMP JUMPDEST PUSH1 0x0 DUP2 MLOAD SWAP1 POP SWAP2 SWAP1 POP JUMP JUMPDEST PUSH1 0x0 PUSH1 0x20 DUP3 ADD SWAP1 POP SWAP2 SWAP1 POP JUMP JUMPDEST PUSH1 0x0 PUSH20 0xFFFFFFFFFFFFFFFFFFFFFFFFFFFFFFFFFFFFFFFF DUP3 AND SWAP1 POP SWAP2 SWAP1 POP JUMP JUMPDEST PUSH1 0x0 DUP2 ISZERO ISZERO SWAP1 POP SWAP2 SWAP1 POP JUMP JUMPDEST PUSH1 0x0 DUP2 SWAP1 POP SWAP2 SWAP1 POP JUMP JUMPDEST PUSH1 0x0 PUSH20 0xFFFFFFFFFFFFFFFFFFFFFFFFFFFFFFFFFFFFFFFF DUP3 AND SWAP1 POP SWAP2 SWAP1 POP JUMP JUMPDEST PUSH1 0x0 DUP2 SWAP1 POP SWAP2 SWAP1 POP JUMP JUMPDEST DUP3 DUP2 DUP4 CALLDATACOPY PUSH1 0x0 DUP4 DUP4 ADD MSTORE POP POP POP JUMP JUMPDEST PUSH1 0x0 JUMPDEST DUP4 DUP2 LT ISZERO PUSH2 0x26F8 JUMPI DUP1 DUP3 ADD MLOAD DUP2 DUP5 ADD MSTORE PUSH1 0x20 DUP2 ADD SWAP1 POP PUSH2 0x26DD JUMP JUMPDEST DUP4 DUP2 GT ISZERO PUSH2 0x2707 JUMPI PUSH1 0x0 DUP5 DUP5 ADD MSTORE JUMPDEST POP POP POP POP JUMP JUMPDEST PUSH1 0x0 PUSH1 0x1F NOT PUSH1 0x1F DUP4 ADD AND SWAP1 POP SWAP2 SWAP1 POP JUMP STOP LOG2 PUSH6 0x627A7A723058 KECCAK256 MSIZE 0xd 0x29 SMOD 0xcd COINBASE 0xb6 0xd4 0x2f LOG3 PUSH31 0xAAB7370578B80CE5AE2009041C7FC1F11F3F5B18E6C6578706572696D656E PUSH21 0x616CF5003700000000000000000000000000000000 "
				},
				"gasEstimates": {
					"creation": {
						"codeDepositCost": "2014400",
						"executionCost": "37419",
						"totalCost": "2051819"
					},
					"external": {
						"RevokePermission(address)": "21019",
						"doctorCount()": "760",
						"doctorList(uint256)": "1144",
						"doctorRegistration(address,string,string,string,string,string,string,string)": "infinite",
						"editDoctor(address,string,string,string,string,string,string,string)": "infinite",
						"editUser(address,string,string,string,string,string,string,string,string,string)": "infinite",
						"getDoctorCount()": "790",
						"getDoctors()": "infinite",
						"getPermissionGrantedCount()": "680",
						"getUserCount()": "922",
						"getUsers()": "infinite",
						"givePermission(address)": "41410",
						"mohAdress()": "978",
						"owner()": "846",
						"ownerAddress()": "20707",
						"permissionCounter()": "870",
						"searchDoctor(address)": "infinite",
						"searchUserformation(address)": "infinite",
						"userCount()": "584",
						"userList(uint256)": "1386",
						"userRegistration(address,string,string,string,string,string,string,string,string,string)": "infinite"
					}
				},
				"methodIdentifiers": {
					"RevokePermission(address)": "02516abd",
					"doctorCount()": "78522bc4",
					"doctorList(uint256)": "127ca4b4",
					"doctorRegistration(address,string,string,string,string,string,string,string)": "17e51111",
					"editDoctor(address,string,string,string,string,string,string,string)": "16e0a611",
					"editUser(address,string,string,string,string,string,string,string,string,string)": "779a9576",
					"getDoctorCount()": "79111c1c",
					"getDoctors()": "b13d5d94",
					"getPermissionGrantedCount()": "24c24b2b",
					"getUserCount()": "b5cb15f7",
					"getUsers()": "00ce8e3e",
					"givePermission(address)": "3d391f70",
					"mohAdress()": "b744ff4d",
					"owner()": "8da5cb5b",
					"ownerAddress()": "8f84aa09",
					"permissionCounter()": "a5d043d1",
					"searchDoctor(address)": "caee6c85",
					"searchUserformation(address)": "076fd2f8",
					"userCount()": "07973ccf",
					"userList(uint256)": "9f4216e8",
					"userRegistration(address,string,string,string,string,string,string,string,string,string)": "6cdb2278"
				}
			},
			"userdoc": {
				"methods": {}
			}
		}
	}
}