{
	"contracts/ddddd.sol": {
		"ddddd": {
			"abi": [
				{
					"constant": true,
					"inputs": [],
					"name": "getUsers",
					"outputs": [
						{
							"name": "",
							"type": "address[]"
						}
					],
					"payable": false,
					"stateMutability": "view",
					"type": "function"
				},
				{
					"constant": true,
					"inputs": [],
					"name": "getUserPermissionCounter",
					"outputs": [
						{
							"name": "",
							"type": "uint256"
						}
					],
					"payable": false,
					"stateMutability": "view",
					"type": "function"
				},
				{
					"constant": true,
					"inputs": [
						{
							"name": "_address",
							"type": "address"
						}
					],
					"name": "searchUserformation",
					"outputs": [
						{
							"name": "",
							"type": "string"
						},
						{
							"name": "",
							"type": "string"
						},
						{
							"name": "",
							"type": "string"
						},
						{
							"name": "",
							"type": "string"
						},
						{
							"name": "",
							"type": "string"
						},
						{
							"name": "",
							"type": "string"
						},
						{
							"name": "",
							"type": "string"
						},
						{
							"name": "",
							"type": "address"
						}
					],
					"payable": false,
					"stateMutability": "view",
					"type": "function"
				},
				{
					"constant": true,
					"inputs": [],
					"name": "userCount",
					"outputs": [
						{
							"name": "",
							"type": "uint256"
						}
					],
					"payable": false,
					"stateMutability": "view",
					"type": "function"
				},
				{
					"constant": true,
					"inputs": [
						{
							"name": "",
							"type": "uint256"
						}
					],
					"name": "doctorList",
					"outputs": [
						{
							"name": "",
							"type": "address"
						}
					],
					"payable": false,
					"stateMutability": "view",
					"type": "function"
				},
				{
					"constant": false,
					"inputs": [
						{
							"name": "_doctor",
							"type": "address"
						},
						{
							"name": "_uaeId",
							"type": "string"
						},
						{
							"name": "_name",
							"type": "string"
						},
						{
							"name": "_phone",
							"type": "string"
						},
						{
							"name": "_gender",
							"type": "string"
						},
						{
							"name": "_email",
							"type": "string"
						},
						{
							"name": "_qualification",
							"type": "string"
						},
						{
							"name": "_major",
							"type": "string"
						}
					],
					"name": "editDoctor",
					"outputs": [],
					"payable": false,
					"stateMutability": "nonpayable",
					"type": "function"
				},
				{
					"constant": false,
					"inputs": [
						{
							"name": "_doctor",
							"type": "address"
						},
						{
							"name": "_uaeId",
							"type": "string"
						},
						{
							"name": "_name",
							"type": "string"
						},
						{
							"name": "_phone",
							"type": "string"
						},
						{
							"name": "_gender",
							"type": "string"
						},
						{
							"name": "_email",
							"type": "string"
						},
						{
							"name": "_qualification",
							"type": "string"
						},
						{
							"name": "_major",
							"type": "string"
						}
					],
					"name": "doctorRegistration",
					"outputs": [],
					"payable": false,
					"stateMutability": "nonpayable",
					"type": "function"
				},
				{
					"constant": false,
					"inputs": [
						{
							"name": "_address",
							"type": "address"
						}
					],
					"name": "givePermissionByUser",
					"outputs": [
						{
							"name": "success",
							"type": "bool"
						}
					],
					"payable": false,
					"stateMutability": "nonpayable",
					"type": "function"
				},
				{
					"constant": false,
					"inputs": [
						{
							"name": "_address1",
							"type": "address"
						},
						{
							"name": "_doctor",
							"type": "address"
						},
						{
							"name": "_name",
							"type": "string"
						},
						{
							"name": "_vaccine",
							"type": "string"
						},
						{
							"name": "_description",
							"type": "string"
						},
						{
							"name": "_typeOfVaccine",
							"type": "string"
						},
						{
							"name": "_creationDate",
							"type": "uint256"
						}
					],
					"name": "createVaccineRecord",
					"outputs": [
						{
							"name": "success",
							"type": "bool"
						}
					],
					"payable": false,
					"stateMutability": "nonpayable",
					"type": "function"
				},
				{
					"constant": false,
					"inputs": [
						{
							"name": "_address",
							"type": "address"
						}
					],
					"name": "userRevokePermission",
					"outputs": [
						{
							"name": "success",
							"type": "bool"
						}
					],
					"payable": false,
					"stateMutability": "nonpayable",
					"type": "function"
				},
				{
					"constant": false,
					"inputs": [
						{
							"name": "_user",
							"type": "address"
						},
						{
							"name": "_uaeId",
							"type": "string"
						},
						{
							"name": "_name",
							"type": "string"
						},
						{
							"name": "_phone",
							"type": "string"
						},
						{
							"name": "_gender",
							"type": "string"
						},
						{
							"name": "_dob",
							"type": "string"
						},
						{
							"name": "_addr",
							"type": "string"
						},
						{
							"name": "_email",
							"type": "string"
						},
						{
							"name": "_nomineeName",
							"type": "string"
						},
						{
							"name": "_nomineeContact",
							"type": "string"
						}
					],
					"name": "userRegistration",
					"outputs": [],
					"payable": false,
					"stateMutability": "nonpayable",
					"type": "function"
				},
				{
					"constant": false,
					"inputs": [
						{
							"name": "_user",
							"type": "address"
						},
						{
							"name": "_uaeId",
							"type": "string"
						},
						{
							"name": "_name",
							"type": "string"
						},
						{
							"name": "_phone",
							"type": "string"
						},
						{
							"name": "_gender",
							"type": "string"
						},
						{
							"name": "_dob",
							"type": "string"
						},
						{
							"name": "_addr",
							"type": "string"
						},
						{
							"name": "_email",
							"type": "string"
						},
						{
							"name": "_nomineeName",
							"type": "string"
						},
						{
							"name": "_nomineeContact",
							"type": "string"
						}
					],
					"name": "editUser",
					"outputs": [],
					"payable": false,
					"stateMutability": "nonpayable",
					"type": "function"
				},
				{
					"constant": true,
					"inputs": [],
					"name": "doctorCount",
					"outputs": [
						{
							"name": "",
							"type": "uint256"
						}
					],
					"payable": false,
					"stateMutability": "view",
					"type": "function"
				},
				{
					"constant": true,
					"inputs": [],
					"name": "getDoctorCount",
					"outputs": [
						{
							"name": "",
							"type": "uint256"
						}
					],
					"payable": false,
					"stateMutability": "view",
					"type": "function"
				},
				{
					"constant": true,
					"inputs": [
						{
							"name": "_address",
							"type": "address"
						}
					],
					"name": "checkDoctor",
					"outputs": [
						{
							"name": "success",
							"type": "bool"
						}
					],
					"payable": false,
					"stateMutability": "view",
					"type": "function"
				},
				{
					"constant": true,
					"inputs": [
						{
							"name": "_address",
							"type": "address"
						}
					],
					"name": "getVaccinationInfo",
					"outputs": [
						{
							"name": "",
							"type": "string"
						},
						{
							"name": "",
							"type": "string"
						},
						{
							"name": "",
							"type": "string"
						},
						{
							"name": "",
							"type": "string"
						},
						{
							"name": "",
							"type": "uint256"
						},
						{
							"name": "",
							"type": "address"
						},
						{
							"name": "",
							"type": "address"
						}
					],
					"payable": false,
					"stateMutability": "view",
					"type": "function"
				},
				{
					"constant": true,
					"inputs": [],
					"name": "owner",
					"outputs": [
						{
							"name": "",
							"type": "address"
						}
					],
					"payable": false,
					"stateMutability": "view",
					"type": "function"
				},
				{
					"constant": true,
					"inputs": [],
					"name": "ownerAddress",
					"outputs": [
						{
							"name": "",
							"type": "address"
						}
					],
					"payable": false,
					"stateMutability": "view",
					"type": "function"
				},
				{
					"constant": true,
					"inputs": [],
					"name": "vaccinationRecordsCounter",
					"outputs": [
						{
							"name": "",
							"type": "uint256"
						}
					],
					"payable": false,
					"stateMutability": "view",
					"type": "function"
				},
				{
					"constant": true,
					"inputs": [],
					"name": "MoHPermissionCounter",
					"outputs": [
						{
							"name": "",
							"type": "uint256"
						}
					],
					"payable": false,
					"stateMutability": "view",
					"type": "function"
				},
				{
					"constant": true,
					"inputs": [
						{
							"name": "",
							"type": "uint256"
						}
					],
					"name": "userList",
					"outputs": [
						{
							"name": "",
							"type": "address"
						}
					],
					"payable": false,
					"stateMutability": "view",
					"type": "function"
				},
				{
					"constant": true,
					"inputs": [],
					"name": "getDoctors",
					"outputs": [
						{
							"name": "",
							"type": "address[]"
						}
					],
					"payable": false,
					"stateMutability": "view",
					"type": "function"
				},
				{
					"constant": true,
					"inputs": [],
					"name": "getUserCount",
					"outputs": [
						{
							"name": "",
							"type": "uint256"
						}
					],
					"payable": false,
					"stateMutability": "view",
					"type": "function"
				},
				{
					"constant": true,
					"inputs": [],
					"name": "mohAdress",
					"outputs": [
						{
							"name": "",
							"type": "address"
						}
					],
					"payable": false,
					"stateMutability": "view",
					"type": "function"
				},
				{
					"constant": false,
					"inputs": [
						{
							"name": "_address1",
							"type": "address"
						},
						{
							"name": "_address2",
							"type": "address"
						}
					],
					"name": "MoHRevokePermission",
					"outputs": [
						{
							"name": "success",
							"type": "bool"
						}
					],
					"payable": false,
					"stateMutability": "nonpayable",
					"type": "function"
				},
				{
					"constant": true,
					"inputs": [],
					"name": "userPermissionCounter",
					"outputs": [
						{
							"name": "",
							"type": "uint256"
						}
					],
					"payable": false,
					"stateMutability": "view",
					"type": "function"
				},
				{
					"constant": true,
					"inputs": [
						{
							"name": "_address",
							"type": "address"
						}
					],
					"name": "searchDoctor",
					"outputs": [
						{
							"name": "",
							"type": "string"
						},
						{
							"name": "",
							"type": "string"
						},
						{
							"name": "",
							"type": "string"
						},
						{
							"name": "",
							"type": "string"
						},
						{
							"name": "",
							"type": "string"
						},
						{
							"name": "",
							"type": "string"
						},
						{
							"name": "",
							"type": "string"
						},
						{
							"name": "",
							"type": "address"
						}
					],
					"payable": false,
					"stateMutability": "view",
					"type": "function"
				},
				{
					"constant": false,
					"inputs": [
						{
							"name": "_address1",
							"type": "address"
						},
						{
							"name": "_address2",
							"type": "address"
						}
					],
					"name": "givePermissionByMoH",
					"outputs": [
						{
							"name": "success",
							"type": "bool"
						}
					],
					"payable": false,
					"stateMutability": "nonpayable",
					"type": "function"
				},
				{
					"constant": true,
					"inputs": [],
					"name": "getMoHPermissionCounter",
					"outputs": [
						{
							"name": "",
							"type": "uint256"
						}
					],
					"payable": false,
					"stateMutability": "view",
					"type": "function"
				},
				{
					"constant": true,
					"inputs": [
						{
							"name": "",
							"type": "uint256"
						}
					],
					"name": "vaccinationList",
					"outputs": [
						{
							"name": "",
							"type": "address"
						}
					],
					"payable": false,
					"stateMutability": "view",
					"type": "function"
				}
			],
			"devdoc": {
				"methods": {}
			},
			"evm": {
				"assembly": "    /* \"contracts/ddddd.sol\":91:9227  contract ddddd {\r... */\n  mstore(0x40, 0x80)\n    /* \"contracts/ddddd.sol\":1660:1661  0 */\n  0x0\n    /* \"contracts/ddddd.sol\":1633:1661  uint256 public userCount = 0 */\n  0xb\n  sstore\n    /* \"contracts/ddddd.sol\":1697:1698  0 */\n  0x0\n    /* \"contracts/ddddd.sol\":1668:1698  uint256 public doctorCount = 0 */\n  0xc\n  sstore\n    /* \"contracts/ddddd.sol\":1743:1744  0 */\n  0x0\n    /* \"contracts/ddddd.sol\":1705:1744  uint256 public MoHPermissionCounter = 0 */\n  0xd\n  sstore\n    /* \"contracts/ddddd.sol\":1790:1791  0 */\n  0x0\n    /* \"contracts/ddddd.sol\":1751:1791  uint256 public userPermissionCounter = 0 */\n  0xe\n  sstore\n    /* \"contracts/ddddd.sol\":1841:1842  0 */\n  0x0\n    /* \"contracts/ddddd.sol\":1798:1842  uint256 public vaccinationRecordsCounter = 0 */\n  0xf\n  sstore\n    /* \"contracts/ddddd.sol\":1878:1920  0xc50C6297f56b033633C30354A854b074749cd2dC */\n  0xc50c6297f56b033633c30354a854b074749cd2dc\n    /* \"contracts/ddddd.sol\":1851:1920  address public mohAdress = 0xc50C6297f56b033633C30354A854b074749cd2dC */\n  0x10\n  exp(0x100, 0x0)\n  dup2\n  sload\n  dup2\n  0xffffffffffffffffffffffffffffffffffffffff\n  mul\n  not\n  and\n  swap1\n  dup4\n  0xffffffffffffffffffffffffffffffffffffffff\n  and\n  mul\n  or\n  swap1\n  sstore\n  pop\n    /* \"contracts/ddddd.sol\":91:9227  contract ddddd {\r... */\n  callvalue\n    /* \"--CODEGEN--\":8:17   */\n  dup1\n    /* \"--CODEGEN--\":5:7   */\n  iszero\n  tag_1\n  jumpi\n    /* \"--CODEGEN--\":30:31   */\n  0x0\n    /* \"--CODEGEN--\":27:28   */\n  dup1\n    /* \"--CODEGEN--\":20:32   */\n  revert\n    /* \"--CODEGEN--\":5:7   */\ntag_1:\n    /* \"contracts/ddddd.sol\":91:9227  contract ddddd {\r... */\n  pop\n  dataSize(sub_0)\n  dup1\n  dataOffset(sub_0)\n  0x0\n  codecopy\n  0x0\n  return\nstop\n\nsub_0: assembly {\n        /* \"contracts/ddddd.sol\":91:9227  contract ddddd {\r... */\n      mstore(0x40, 0x80)\n      jumpi(tag_1, lt(calldatasize, 0x4))\n      calldataload(0x0)\n      0x100000000000000000000000000000000000000000000000000000000\n      swap1\n      div\n      0xffffffff\n      and\n      dup1\n      0xce8e3e\n      eq\n      tag_2\n      jumpi\n      dup1\n      0x24decc5\n      eq\n      tag_3\n      jumpi\n      dup1\n      0x76fd2f8\n      eq\n      tag_4\n      jumpi\n      dup1\n      0x7973ccf\n      eq\n      tag_5\n      jumpi\n      dup1\n      0x127ca4b4\n      eq\n      tag_6\n      jumpi\n      dup1\n      0x16e0a611\n      eq\n      tag_7\n      jumpi\n      dup1\n      0x17e51111\n      eq\n      tag_8\n      jumpi\n      dup1\n      0x294a4540\n      eq\n      tag_9\n      jumpi\n      dup1\n      0x44c23f88\n      eq\n      tag_10\n      jumpi\n      dup1\n      0x5fc8e8c6\n      eq\n      tag_11\n      jumpi\n      dup1\n      0x6cdb2278\n      eq\n      tag_12\n      jumpi\n      dup1\n      0x779a9576\n      eq\n      tag_13\n      jumpi\n      dup1\n      0x78522bc4\n      eq\n      tag_14\n      jumpi\n      dup1\n      0x79111c1c\n      eq\n      tag_15\n      jumpi\n      dup1\n      0x793de5f0\n      eq\n      tag_16\n      jumpi\n      dup1\n      0x83a28b29\n      eq\n      tag_17\n      jumpi\n      dup1\n      0x8da5cb5b\n      eq\n      tag_18\n      jumpi\n      dup1\n      0x8f84aa09\n      eq\n      tag_19\n      jumpi\n      dup1\n      0x96e39ce0\n      eq\n      tag_20\n      jumpi\n      dup1\n      0x99d698c5\n      eq\n      tag_21\n      jumpi\n      dup1\n      0x9f4216e8\n      eq\n      tag_22\n      jumpi\n      dup1\n      0xb13d5d94\n      eq\n      tag_23\n      jumpi\n      dup1\n      0xb5cb15f7\n      eq\n      tag_24\n      jumpi\n      dup1\n      0xb744ff4d\n      eq\n      tag_25\n      jumpi\n      dup1\n      0xc3bf7bf0\n      eq\n      tag_26\n      jumpi\n      dup1\n      0xc543a718\n      eq\n      tag_27\n      jumpi\n      dup1\n      0xcaee6c85\n      eq\n      tag_28\n      jumpi\n      dup1\n      0xd118404b\n      eq\n      tag_29\n      jumpi\n      dup1\n      0xe0df0ac6\n      eq\n      tag_30\n      jumpi\n      dup1\n      0xff508dab\n      eq\n      tag_31\n      jumpi\n    tag_1:\n      0x0\n      dup1\n      revert\n        /* \"contracts/ddddd.sol\":7202:7287  function getUsers() public view returns(address[]) {\r... */\n    tag_2:\n      callvalue\n        /* \"--CODEGEN--\":8:17   */\n      dup1\n        /* \"--CODEGEN--\":5:7   */\n      iszero\n      tag_32\n      jumpi\n        /* \"--CODEGEN--\":30:31   */\n      0x0\n        /* \"--CODEGEN--\":27:28   */\n      dup1\n        /* \"--CODEGEN--\":20:32   */\n      revert\n        /* \"--CODEGEN--\":5:7   */\n    tag_32:\n        /* \"contracts/ddddd.sol\":7202:7287  function getUsers() public view returns(address[]) {\r... */\n      pop\n      tag_33\n      jump(tag_34)\n    tag_33:\n      mload(0x40)\n      tag_35\n      swap2\n      swap1\n      jump(tag_36)\n    tag_35:\n      mload(0x40)\n      dup1\n      swap2\n      sub\n      swap1\n      return\n        /* \"contracts/ddddd.sol\":8680:8792  function getUserPermissionCounter() public view returns(uint256) {\r... */\n    tag_3:\n      callvalue\n        /* \"--CODEGEN--\":8:17   */\n      dup1\n        /* \"--CODEGEN--\":5:7   */\n      iszero\n      tag_37\n      jumpi\n        /* \"--CODEGEN--\":30:31   */\n      0x0\n        /* \"--CODEGEN--\":27:28   */\n      dup1\n        /* \"--CODEGEN--\":20:32   */\n      revert\n        /* \"--CODEGEN--\":5:7   */\n    tag_37:\n        /* \"contracts/ddddd.sol\":8680:8792  function getUserPermissionCounter() public view returns(uint256) {\r... */\n      pop\n      tag_38\n      jump(tag_39)\n    tag_38:\n      mload(0x40)\n      tag_40\n      swap2\n      swap1\n      jump(tag_41)\n    tag_40:\n      mload(0x40)\n      dup1\n      swap2\n      sub\n      swap1\n      return\n        /* \"contracts/ddddd.sol\":7398:7772  function searchUserformation(address _address) public view returns(string, string, string, string, string, string, string, address) {\r... */\n    tag_4:\n      callvalue\n        /* \"--CODEGEN--\":8:17   */\n      dup1\n        /* \"--CODEGEN--\":5:7   */\n      iszero\n      tag_42\n      jumpi\n        /* \"--CODEGEN--\":30:31   */\n      0x0\n        /* \"--CODEGEN--\":27:28   */\n      dup1\n        /* \"--CODEGEN--\":20:32   */\n      revert\n        /* \"--CODEGEN--\":5:7   */\n    tag_42:\n        /* \"contracts/ddddd.sol\":7398:7772  function searchUserformation(address _address) public view returns(string, string, string, string, string, string, string, address) {\r... */\n      pop\n      tag_43\n      0x4\n      dup1\n      calldatasize\n      sub\n      tag_44\n      swap2\n      swap1\n      dup2\n      add\n      swap1\n      jump(tag_45)\n    tag_44:\n      jump(tag_46)\n    tag_43:\n      mload(0x40)\n      tag_47\n      swap9\n      swap8\n      swap7\n      swap6\n      swap5\n      swap4\n      swap3\n      swap2\n      swap1\n      jump(tag_48)\n    tag_47:\n      mload(0x40)\n      dup1\n      swap2\n      sub\n      swap1\n      return\n        /* \"contracts/ddddd.sol\":1633:1661  uint256 public userCount = 0 */\n    tag_5:\n      callvalue\n        /* \"--CODEGEN--\":8:17   */\n      dup1\n        /* \"--CODEGEN--\":5:7   */\n      iszero\n      tag_49\n      jumpi\n        /* \"--CODEGEN--\":30:31   */\n      0x0\n        /* \"--CODEGEN--\":27:28   */\n      dup1\n        /* \"--CODEGEN--\":20:32   */\n      revert\n        /* \"--CODEGEN--\":5:7   */\n    tag_49:\n        /* \"contracts/ddddd.sol\":1633:1661  uint256 public userCount = 0 */\n      pop\n      tag_50\n      jump(tag_51)\n    tag_50:\n      mload(0x40)\n      tag_52\n      swap2\n      swap1\n      jump(tag_41)\n    tag_52:\n      mload(0x40)\n      dup1\n      swap2\n      sub\n      swap1\n      return\n        /* \"contracts/ddddd.sol\":1095:1122  address[] public doctorList */\n    tag_6:\n      callvalue\n        /* \"--CODEGEN--\":8:17   */\n      dup1\n        /* \"--CODEGEN--\":5:7   */\n      iszero\n      tag_53\n      jumpi\n        /* \"--CODEGEN--\":30:31   */\n      0x0\n        /* \"--CODEGEN--\":27:28   */\n      dup1\n        /* \"--CODEGEN--\":20:32   */\n      revert\n        /* \"--CODEGEN--\":5:7   */\n    tag_53:\n        /* \"contracts/ddddd.sol\":1095:1122  address[] public doctorList */\n      pop\n      tag_54\n      0x4\n      dup1\n      calldatasize\n      sub\n      tag_55\n      swap2\n      swap1\n      dup2\n      add\n      swap1\n      jump(tag_56)\n    tag_55:\n      jump(tag_57)\n    tag_54:\n      mload(0x40)\n      tag_58\n      swap2\n      swap1\n      jump(tag_59)\n    tag_58:\n      mload(0x40)\n      dup1\n      swap2\n      sub\n      swap1\n      return\n        /* \"contracts/ddddd.sol\":4558:5083  function editDoctor(address _doctor, string _uaeId, string _name, string _phone, string _gender, string _email, string _qualification, string _major) public {\r... */\n    tag_7:\n      callvalue\n        /* \"--CODEGEN--\":8:17   */\n      dup1\n        /* \"--CODEGEN--\":5:7   */\n      iszero\n      tag_60\n      jumpi\n        /* \"--CODEGEN--\":30:31   */\n      0x0\n        /* \"--CODEGEN--\":27:28   */\n      dup1\n        /* \"--CODEGEN--\":20:32   */\n      revert\n        /* \"--CODEGEN--\":5:7   */\n    tag_60:\n        /* \"contracts/ddddd.sol\":4558:5083  function editDoctor(address _doctor, string _uaeId, string _name, string _phone, string _gender, string _email, string _qualification, string _major) public {\r... */\n      pop\n      tag_61\n      0x4\n      dup1\n      calldatasize\n      sub\n      tag_62\n      swap2\n      swap1\n      dup2\n      add\n      swap1\n      jump(tag_63)\n    tag_62:\n      jump(tag_64)\n    tag_61:\n      stop\n        /* \"contracts/ddddd.sol\":3783:4550  function doctorRegistration(address _doctor, string _uaeId, string _name, string _phone, string _gender, string _email, string _qualification, string _major) public {\r... */\n    tag_8:\n      callvalue\n        /* \"--CODEGEN--\":8:17   */\n      dup1\n        /* \"--CODEGEN--\":5:7   */\n      iszero\n      tag_65\n      jumpi\n        /* \"--CODEGEN--\":30:31   */\n      0x0\n        /* \"--CODEGEN--\":27:28   */\n      dup1\n        /* \"--CODEGEN--\":20:32   */\n      revert\n        /* \"--CODEGEN--\":5:7   */\n    tag_65:\n        /* \"contracts/ddddd.sol\":3783:4550  function doctorRegistration(address _doctor, string _uaeId, string _name, string _phone, string _gender, string _email, string _qualification, string _major) public {\r... */\n      pop\n      tag_66\n      0x4\n      dup1\n      calldatasize\n      sub\n      tag_67\n      swap2\n      swap1\n      dup2\n      add\n      swap1\n      jump(tag_63)\n    tag_67:\n      jump(tag_68)\n    tag_66:\n      stop\n        /* \"contracts/ddddd.sol\":6345:6536  function givePermissionByUser(address _address) public returns(bool success) {\r... */\n    tag_9:\n      callvalue\n        /* \"--CODEGEN--\":8:17   */\n      dup1\n        /* \"--CODEGEN--\":5:7   */\n      iszero\n      tag_69\n      jumpi\n        /* \"--CODEGEN--\":30:31   */\n      0x0\n        /* \"--CODEGEN--\":27:28   */\n      dup1\n        /* \"--CODEGEN--\":20:32   */\n      revert\n        /* \"--CODEGEN--\":5:7   */\n    tag_69:\n        /* \"contracts/ddddd.sol\":6345:6536  function givePermissionByUser(address _address) public returns(bool success) {\r... */\n      pop\n      tag_70\n      0x4\n      dup1\n      calldatasize\n      sub\n      tag_71\n      swap2\n      swap1\n      dup2\n      add\n      swap1\n      jump(tag_45)\n    tag_71:\n      jump(tag_72)\n    tag_70:\n      mload(0x40)\n      tag_73\n      swap2\n      swap1\n      jump(tag_74)\n    tag_73:\n      mload(0x40)\n      dup1\n      swap2\n      sub\n      swap1\n      return\n        /* \"contracts/ddddd.sol\":5091:5983  function createVaccineRecord(address _address1, address _doctor, string _name, string _vaccine, string _description, string _typeOfVaccine, uint _creationDate) public returns(bool success) {\r... */\n    tag_10:\n      callvalue\n        /* \"--CODEGEN--\":8:17   */\n      dup1\n        /* \"--CODEGEN--\":5:7   */\n      iszero\n      tag_75\n      jumpi\n        /* \"--CODEGEN--\":30:31   */\n      0x0\n        /* \"--CODEGEN--\":27:28   */\n      dup1\n        /* \"--CODEGEN--\":20:32   */\n      revert\n        /* \"--CODEGEN--\":5:7   */\n    tag_75:\n        /* \"contracts/ddddd.sol\":5091:5983  function createVaccineRecord(address _address1, address _doctor, string _name, string _vaccine, string _description, string _typeOfVaccine, uint _creationDate) public returns(bool success) {\r... */\n      pop\n      tag_76\n      0x4\n      dup1\n      calldatasize\n      sub\n      tag_77\n      swap2\n      swap1\n      dup2\n      add\n      swap1\n      jump(tag_78)\n    tag_77:\n      jump(tag_79)\n    tag_76:\n      mload(0x40)\n      tag_80\n      swap2\n      swap1\n      jump(tag_74)\n    tag_80:\n      mload(0x40)\n      dup1\n      swap2\n      sub\n      swap1\n      return\n        /* \"contracts/ddddd.sol\":6806:6964  function userRevokePermission(address _address) public returns(bool success) {\r... */\n    tag_11:\n      callvalue\n        /* \"--CODEGEN--\":8:17   */\n      dup1\n        /* \"--CODEGEN--\":5:7   */\n      iszero\n      tag_81\n      jumpi\n        /* \"--CODEGEN--\":30:31   */\n      0x0\n        /* \"--CODEGEN--\":27:28   */\n      dup1\n        /* \"--CODEGEN--\":20:32   */\n      revert\n        /* \"--CODEGEN--\":5:7   */\n    tag_81:\n        /* \"contracts/ddddd.sol\":6806:6964  function userRevokePermission(address _address) public returns(bool success) {\r... */\n      pop\n      tag_82\n      0x4\n      dup1\n      calldatasize\n      sub\n      tag_83\n      swap2\n      swap1\n      dup2\n      add\n      swap1\n      jump(tag_45)\n    tag_83:\n      jump(tag_84)\n    tag_82:\n      mload(0x40)\n      tag_85\n      swap2\n      swap1\n      jump(tag_74)\n    tag_85:\n      mload(0x40)\n      dup1\n      swap2\n      sub\n      swap1\n      return\n        /* \"contracts/ddddd.sol\":2033:3142  function userRegistration(address _user, string _uaeId, string _name, string _phone, string _gender, string _dob, string _addr, string _email, string _nomineeName, string _nomineeContact) public {\r... */\n    tag_12:\n      callvalue\n        /* \"--CODEGEN--\":8:17   */\n      dup1\n        /* \"--CODEGEN--\":5:7   */\n      iszero\n      tag_86\n      jumpi\n        /* \"--CODEGEN--\":30:31   */\n      0x0\n        /* \"--CODEGEN--\":27:28   */\n      dup1\n        /* \"--CODEGEN--\":20:32   */\n      revert\n        /* \"--CODEGEN--\":5:7   */\n    tag_86:\n        /* \"contracts/ddddd.sol\":2033:3142  function userRegistration(address _user, string _uaeId, string _name, string _phone, string _gender, string _dob, string _addr, string _email, string _nomineeName, string _nomineeContact) public {\r... */\n      pop\n      tag_87\n      0x4\n      dup1\n      calldatasize\n      sub\n      tag_88\n      swap2\n      swap1\n      dup2\n      add\n      swap1\n      jump(tag_89)\n    tag_88:\n      jump(tag_90)\n    tag_87:\n      stop\n        /* \"contracts/ddddd.sol\":3166:3775  function editUser(address _user, string _uaeId, string _name, string _phone, string _gender, string _dob, string _addr, string _email, string _nomineeName, string _nomineeContact) public {\r... */\n    tag_13:\n      callvalue\n        /* \"--CODEGEN--\":8:17   */\n      dup1\n        /* \"--CODEGEN--\":5:7   */\n      iszero\n      tag_91\n      jumpi\n        /* \"--CODEGEN--\":30:31   */\n      0x0\n        /* \"--CODEGEN--\":27:28   */\n      dup1\n        /* \"--CODEGEN--\":20:32   */\n      revert\n        /* \"--CODEGEN--\":5:7   */\n    tag_91:\n        /* \"contracts/ddddd.sol\":3166:3775  function editUser(address _user, string _uaeId, string _name, string _phone, string _gender, string _dob, string _addr, string _email, string _nomineeName, string _nomineeContact) public {\r... */\n      pop\n      tag_92\n      0x4\n      dup1\n      calldatasize\n      sub\n      tag_93\n      swap2\n      swap1\n      dup2\n      add\n      swap1\n      jump(tag_89)\n    tag_93:\n      jump(tag_94)\n    tag_92:\n      stop\n        /* \"contracts/ddddd.sol\":1668:1698  uint256 public doctorCount = 0 */\n    tag_14:\n      callvalue\n        /* \"--CODEGEN--\":8:17   */\n      dup1\n        /* \"--CODEGEN--\":5:7   */\n      iszero\n      tag_95\n      jumpi\n        /* \"--CODEGEN--\":30:31   */\n      0x0\n        /* \"--CODEGEN--\":27:28   */\n      dup1\n        /* \"--CODEGEN--\":20:32   */\n      revert\n        /* \"--CODEGEN--\":5:7   */\n    tag_95:\n        /* \"contracts/ddddd.sol\":1668:1698  uint256 public doctorCount = 0 */\n      pop\n      tag_96\n      jump(tag_97)\n    tag_96:\n      mload(0x40)\n      tag_98\n      swap2\n      swap1\n      jump(tag_41)\n    tag_98:\n      mload(0x40)\n      dup1\n      swap2\n      sub\n      swap1\n      return\n        /* \"contracts/ddddd.sol\":8574:8666  function getDoctorCount() public view returns(uint256) {\r... */\n    tag_15:\n      callvalue\n        /* \"--CODEGEN--\":8:17   */\n      dup1\n        /* \"--CODEGEN--\":5:7   */\n      iszero\n      tag_99\n      jumpi\n        /* \"--CODEGEN--\":30:31   */\n      0x0\n        /* \"--CODEGEN--\":27:28   */\n      dup1\n        /* \"--CODEGEN--\":20:32   */\n      revert\n        /* \"--CODEGEN--\":5:7   */\n    tag_99:\n        /* \"contracts/ddddd.sol\":8574:8666  function getDoctorCount() public view returns(uint256) {\r... */\n      pop\n      tag_100\n      jump(tag_101)\n    tag_100:\n      mload(0x40)\n      tag_102\n      swap2\n      swap1\n      jump(tag_41)\n    tag_102:\n      mload(0x40)\n      dup1\n      swap2\n      sub\n      swap1\n      return\n        /* \"contracts/ddddd.sol\":8918:9224  function checkDoctor(address _address) public view returns(bool success) {\r... */\n    tag_16:\n      callvalue\n        /* \"--CODEGEN--\":8:17   */\n      dup1\n        /* \"--CODEGEN--\":5:7   */\n      iszero\n      tag_103\n      jumpi\n        /* \"--CODEGEN--\":30:31   */\n      0x0\n        /* \"--CODEGEN--\":27:28   */\n      dup1\n        /* \"--CODEGEN--\":20:32   */\n      revert\n        /* \"--CODEGEN--\":5:7   */\n    tag_103:\n        /* \"contracts/ddddd.sol\":8918:9224  function checkDoctor(address _address) public view returns(bool success) {\r... */\n      pop\n      tag_104\n      0x4\n      dup1\n      calldatasize\n      sub\n      tag_105\n      swap2\n      swap1\n      dup2\n      add\n      swap1\n      jump(tag_45)\n    tag_105:\n      jump(tag_106)\n    tag_104:\n      mload(0x40)\n      tag_107\n      swap2\n      swap1\n      jump(tag_74)\n    tag_107:\n      mload(0x40)\n      dup1\n      swap2\n      sub\n      swap1\n      return\n        /* \"contracts/ddddd.sol\":5991:6335  function getVaccinationInfo(address _address) public view returns(string, string, string, string, uint256, address, address) {\r... */\n    tag_17:\n      callvalue\n        /* \"--CODEGEN--\":8:17   */\n      dup1\n        /* \"--CODEGEN--\":5:7   */\n      iszero\n      tag_108\n      jumpi\n        /* \"--CODEGEN--\":30:31   */\n      0x0\n        /* \"--CODEGEN--\":27:28   */\n      dup1\n        /* \"--CODEGEN--\":20:32   */\n      revert\n        /* \"--CODEGEN--\":5:7   */\n    tag_108:\n        /* \"contracts/ddddd.sol\":5991:6335  function getVaccinationInfo(address _address) public view returns(string, string, string, string, uint256, address, address) {\r... */\n      pop\n      tag_109\n      0x4\n      dup1\n      calldatasize\n      sub\n      tag_110\n      swap2\n      swap1\n      dup2\n      add\n      swap1\n      jump(tag_45)\n    tag_110:\n      jump(tag_111)\n    tag_109:\n      mload(0x40)\n      tag_112\n      swap8\n      swap7\n      swap6\n      swap5\n      swap4\n      swap3\n      swap2\n      swap1\n      jump(tag_113)\n    tag_112:\n      mload(0x40)\n      dup1\n      swap2\n      sub\n      swap1\n      return\n        /* \"contracts/ddddd.sol\":1036:1056  address public owner */\n    tag_18:\n      callvalue\n        /* \"--CODEGEN--\":8:17   */\n      dup1\n        /* \"--CODEGEN--\":5:7   */\n      iszero\n      tag_114\n      jumpi\n        /* \"--CODEGEN--\":30:31   */\n      0x0\n        /* \"--CODEGEN--\":27:28   */\n      dup1\n        /* \"--CODEGEN--\":20:32   */\n      revert\n        /* \"--CODEGEN--\":5:7   */\n    tag_114:\n        /* \"contracts/ddddd.sol\":1036:1056  address public owner */\n      pop\n      tag_115\n      jump(tag_116)\n    tag_115:\n      mload(0x40)\n      tag_117\n      swap2\n      swap1\n      jump(tag_59)\n    tag_117:\n      mload(0x40)\n      dup1\n      swap2\n      sub\n      swap1\n      return\n        /* \"contracts/ddddd.sol\":1933:2021  function ownerAddress() public view returns(address) {\r... */\n    tag_19:\n      callvalue\n        /* \"--CODEGEN--\":8:17   */\n      dup1\n        /* \"--CODEGEN--\":5:7   */\n      iszero\n      tag_118\n      jumpi\n        /* \"--CODEGEN--\":30:31   */\n      0x0\n        /* \"--CODEGEN--\":27:28   */\n      dup1\n        /* \"--CODEGEN--\":20:32   */\n      revert\n        /* \"--CODEGEN--\":5:7   */\n    tag_118:\n        /* \"contracts/ddddd.sol\":1933:2021  function ownerAddress() public view returns(address) {\r... */\n      pop\n      tag_119\n      jump(tag_120)\n    tag_119:\n      mload(0x40)\n      tag_121\n      swap2\n      swap1\n      jump(tag_59)\n    tag_121:\n      mload(0x40)\n      dup1\n      swap2\n      sub\n      swap1\n      return\n        /* \"contracts/ddddd.sol\":1798:1842  uint256 public vaccinationRecordsCounter = 0 */\n    tag_20:\n      callvalue\n        /* \"--CODEGEN--\":8:17   */\n      dup1\n        /* \"--CODEGEN--\":5:7   */\n      iszero\n      tag_122\n      jumpi\n        /* \"--CODEGEN--\":30:31   */\n      0x0\n        /* \"--CODEGEN--\":27:28   */\n      dup1\n        /* \"--CODEGEN--\":20:32   */\n      revert\n        /* \"--CODEGEN--\":5:7   */\n    tag_122:\n        /* \"contracts/ddddd.sol\":1798:1842  uint256 public vaccinationRecordsCounter = 0 */\n      pop\n      tag_123\n      jump(tag_124)\n    tag_123:\n      mload(0x40)\n      tag_125\n      swap2\n      swap1\n      jump(tag_41)\n    tag_125:\n      mload(0x40)\n      dup1\n      swap2\n      sub\n      swap1\n      return\n        /* \"contracts/ddddd.sol\":1705:1744  uint256 public MoHPermissionCounter = 0 */\n    tag_21:\n      callvalue\n        /* \"--CODEGEN--\":8:17   */\n      dup1\n        /* \"--CODEGEN--\":5:7   */\n      iszero\n      tag_126\n      jumpi\n        /* \"--CODEGEN--\":30:31   */\n      0x0\n        /* \"--CODEGEN--\":27:28   */\n      dup1\n        /* \"--CODEGEN--\":20:32   */\n      revert\n        /* \"--CODEGEN--\":5:7   */\n    tag_126:\n        /* \"contracts/ddddd.sol\":1705:1744  uint256 public MoHPermissionCounter = 0 */\n      pop\n      tag_127\n      jump(tag_128)\n    tag_127:\n      mload(0x40)\n      tag_129\n      swap2\n      swap1\n      jump(tag_41)\n    tag_129:\n      mload(0x40)\n      dup1\n      swap2\n      sub\n      swap1\n      return\n        /* \"contracts/ddddd.sol\":1063:1088  address[] public userList */\n    tag_22:\n      callvalue\n        /* \"--CODEGEN--\":8:17   */\n      dup1\n        /* \"--CODEGEN--\":5:7   */\n      iszero\n      tag_130\n      jumpi\n        /* \"--CODEGEN--\":30:31   */\n      0x0\n        /* \"--CODEGEN--\":27:28   */\n      dup1\n        /* \"--CODEGEN--\":20:32   */\n      revert\n        /* \"--CODEGEN--\":5:7   */\n    tag_130:\n        /* \"contracts/ddddd.sol\":1063:1088  address[] public userList */\n      pop\n      tag_131\n      0x4\n      dup1\n      calldatasize\n      sub\n      tag_132\n      swap2\n      swap1\n      dup2\n      add\n      swap1\n      jump(tag_56)\n    tag_132:\n      jump(tag_133)\n    tag_131:\n      mload(0x40)\n      tag_134\n      swap2\n      swap1\n      jump(tag_59)\n    tag_134:\n      mload(0x40)\n      dup1\n      swap2\n      sub\n      swap1\n      return\n        /* \"contracts/ddddd.sol\":7297:7386  function getDoctors() public view returns(address[]) {\r... */\n    tag_23:\n      callvalue\n        /* \"--CODEGEN--\":8:17   */\n      dup1\n        /* \"--CODEGEN--\":5:7   */\n      iszero\n      tag_135\n      jumpi\n        /* \"--CODEGEN--\":30:31   */\n      0x0\n        /* \"--CODEGEN--\":27:28   */\n      dup1\n        /* \"--CODEGEN--\":20:32   */\n      revert\n        /* \"--CODEGEN--\":5:7   */\n    tag_135:\n        /* \"contracts/ddddd.sol\":7297:7386  function getDoctors() public view returns(address[]) {\r... */\n      pop\n      tag_136\n      jump(tag_137)\n    tag_136:\n      mload(0x40)\n      tag_138\n      swap2\n      swap1\n      jump(tag_36)\n    tag_138:\n      mload(0x40)\n      dup1\n      swap2\n      sub\n      swap1\n      return\n        /* \"contracts/ddddd.sol\":8478:8566  function getUserCount() public view returns(uint256) {\r... */\n    tag_24:\n      callvalue\n        /* \"--CODEGEN--\":8:17   */\n      dup1\n        /* \"--CODEGEN--\":5:7   */\n      iszero\n      tag_139\n      jumpi\n        /* \"--CODEGEN--\":30:31   */\n      0x0\n        /* \"--CODEGEN--\":27:28   */\n      dup1\n        /* \"--CODEGEN--\":20:32   */\n      revert\n        /* \"--CODEGEN--\":5:7   */\n    tag_139:\n        /* \"contracts/ddddd.sol\":8478:8566  function getUserCount() public view returns(uint256) {\r... */\n      pop\n      tag_140\n      jump(tag_141)\n    tag_140:\n      mload(0x40)\n      tag_142\n      swap2\n      swap1\n      jump(tag_41)\n    tag_142:\n      mload(0x40)\n      dup1\n      swap2\n      sub\n      swap1\n      return\n        /* \"contracts/ddddd.sol\":1851:1920  address public mohAdress = 0xc50C6297f56b033633C30354A854b074749cd2dC */\n    tag_25:\n      callvalue\n        /* \"--CODEGEN--\":8:17   */\n      dup1\n        /* \"--CODEGEN--\":5:7   */\n      iszero\n      tag_143\n      jumpi\n        /* \"--CODEGEN--\":30:31   */\n      0x0\n        /* \"--CODEGEN--\":27:28   */\n      dup1\n        /* \"--CODEGEN--\":20:32   */\n      revert\n        /* \"--CODEGEN--\":5:7   */\n    tag_143:\n        /* \"contracts/ddddd.sol\":1851:1920  address public mohAdress = 0xc50C6297f56b033633C30354A854b074749cd2dC */\n      pop\n      tag_144\n      jump(tag_145)\n    tag_144:\n      mload(0x40)\n      tag_146\n      swap2\n      swap1\n      jump(tag_59)\n    tag_146:\n      mload(0x40)\n      dup1\n      swap2\n      sub\n      swap1\n      return\n        /* \"contracts/ddddd.sol\":6972:7192  function MoHRevokePermission(address _address1, address _address2) public returns(bool success) {\r... */\n    tag_26:\n      callvalue\n        /* \"--CODEGEN--\":8:17   */\n      dup1\n        /* \"--CODEGEN--\":5:7   */\n      iszero\n      tag_147\n      jumpi\n        /* \"--CODEGEN--\":30:31   */\n      0x0\n        /* \"--CODEGEN--\":27:28   */\n      dup1\n        /* \"--CODEGEN--\":20:32   */\n      revert\n        /* \"--CODEGEN--\":5:7   */\n    tag_147:\n        /* \"contracts/ddddd.sol\":6972:7192  function MoHRevokePermission(address _address1, address _address2) public returns(bool success) {\r... */\n      pop\n      tag_148\n      0x4\n      dup1\n      calldatasize\n      sub\n      tag_149\n      swap2\n      swap1\n      dup2\n      add\n      swap1\n      jump(tag_150)\n    tag_149:\n      jump(tag_151)\n    tag_148:\n      mload(0x40)\n      tag_152\n      swap2\n      swap1\n      jump(tag_74)\n    tag_152:\n      mload(0x40)\n      dup1\n      swap2\n      sub\n      swap1\n      return\n        /* \"contracts/ddddd.sol\":1751:1791  uint256 public userPermissionCounter = 0 */\n    tag_27:\n      callvalue\n        /* \"--CODEGEN--\":8:17   */\n      dup1\n        /* \"--CODEGEN--\":5:7   */\n      iszero\n      tag_153\n      jumpi\n        /* \"--CODEGEN--\":30:31   */\n      0x0\n        /* \"--CODEGEN--\":27:28   */\n      dup1\n        /* \"--CODEGEN--\":20:32   */\n      revert\n        /* \"--CODEGEN--\":5:7   */\n    tag_153:\n        /* \"contracts/ddddd.sol\":1751:1791  uint256 public userPermissionCounter = 0 */\n      pop\n      tag_154\n      jump(tag_155)\n    tag_154:\n      mload(0x40)\n      tag_156\n      swap2\n      swap1\n      jump(tag_41)\n    tag_156:\n      mload(0x40)\n      dup1\n      swap2\n      sub\n      swap1\n      return\n        /* \"contracts/ddddd.sol\":8093:8462  function searchDoctor(address _address) public view returns(string, string, string, string, string, string, string, address) {\r... */\n    tag_28:\n      callvalue\n        /* \"--CODEGEN--\":8:17   */\n      dup1\n        /* \"--CODEGEN--\":5:7   */\n      iszero\n      tag_157\n      jumpi\n        /* \"--CODEGEN--\":30:31   */\n      0x0\n        /* \"--CODEGEN--\":27:28   */\n      dup1\n        /* \"--CODEGEN--\":20:32   */\n      revert\n        /* \"--CODEGEN--\":5:7   */\n    tag_157:\n        /* \"contracts/ddddd.sol\":8093:8462  function searchDoctor(address _address) public view returns(string, string, string, string, string, string, string, address) {\r... */\n      pop\n      tag_158\n      0x4\n      dup1\n      calldatasize\n      sub\n      tag_159\n      swap2\n      swap1\n      dup2\n      add\n      swap1\n      jump(tag_45)\n    tag_159:\n      jump(tag_160)\n    tag_158:\n      mload(0x40)\n      tag_161\n      swap9\n      swap8\n      swap7\n      swap6\n      swap5\n      swap4\n      swap3\n      swap2\n      swap1\n      jump(tag_48)\n    tag_161:\n      mload(0x40)\n      dup1\n      swap2\n      sub\n      swap1\n      return\n        /* \"contracts/ddddd.sol\":6544:6796  function givePermissionByMoH(address _address1, address _address2) public returns(bool success) {\r... */\n    tag_29:\n      callvalue\n        /* \"--CODEGEN--\":8:17   */\n      dup1\n        /* \"--CODEGEN--\":5:7   */\n      iszero\n      tag_162\n      jumpi\n        /* \"--CODEGEN--\":30:31   */\n      0x0\n        /* \"--CODEGEN--\":27:28   */\n      dup1\n        /* \"--CODEGEN--\":20:32   */\n      revert\n        /* \"--CODEGEN--\":5:7   */\n    tag_162:\n        /* \"contracts/ddddd.sol\":6544:6796  function givePermissionByMoH(address _address1, address _address2) public returns(bool success) {\r... */\n      pop\n      tag_163\n      0x4\n      dup1\n      calldatasize\n      sub\n      tag_164\n      swap2\n      swap1\n      dup2\n      add\n      swap1\n      jump(tag_150)\n    tag_164:\n      jump(tag_165)\n    tag_163:\n      mload(0x40)\n      tag_166\n      swap2\n      swap1\n      jump(tag_74)\n    tag_166:\n      mload(0x40)\n      dup1\n      swap2\n      sub\n      swap1\n      return\n        /* \"contracts/ddddd.sol\":8800:8910  function getMoHPermissionCounter() public view returns(uint256) {\r... */\n    tag_30:\n      callvalue\n        /* \"--CODEGEN--\":8:17   */\n      dup1\n        /* \"--CODEGEN--\":5:7   */\n      iszero\n      tag_167\n      jumpi\n        /* \"--CODEGEN--\":30:31   */\n      0x0\n        /* \"--CODEGEN--\":27:28   */\n      dup1\n        /* \"--CODEGEN--\":20:32   */\n      revert\n        /* \"--CODEGEN--\":5:7   */\n    tag_167:\n        /* \"contracts/ddddd.sol\":8800:8910  function getMoHPermissionCounter() public view returns(uint256) {\r... */\n      pop\n      tag_168\n      jump(tag_169)\n    tag_168:\n      mload(0x40)\n      tag_170\n      swap2\n      swap1\n      jump(tag_41)\n    tag_170:\n      mload(0x40)\n      dup1\n      swap2\n      sub\n      swap1\n      return\n        /* \"contracts/ddddd.sol\":1129:1161  address[] public vaccinationList */\n    tag_31:\n      callvalue\n        /* \"--CODEGEN--\":8:17   */\n      dup1\n        /* \"--CODEGEN--\":5:7   */\n      iszero\n      tag_171\n      jumpi\n        /* \"--CODEGEN--\":30:31   */\n      0x0\n        /* \"--CODEGEN--\":27:28   */\n      dup1\n        /* \"--CODEGEN--\":20:32   */\n      revert\n        /* \"--CODEGEN--\":5:7   */\n    tag_171:\n        /* \"contracts/ddddd.sol\":1129:1161  address[] public vaccinationList */\n      pop\n      tag_172\n      0x4\n      dup1\n      calldatasize\n      sub\n      tag_173\n      swap2\n      swap1\n      dup2\n      add\n      swap1\n      jump(tag_56)\n    tag_173:\n      jump(tag_174)\n    tag_172:\n      mload(0x40)\n      tag_175\n      swap2\n      swap1\n      jump(tag_59)\n    tag_175:\n      mload(0x40)\n      dup1\n      swap2\n      sub\n      swap1\n      return\n        /* \"contracts/ddddd.sol\":7202:7287  function getUsers() public view returns(address[]) {\r... */\n    tag_34:\n        /* \"contracts/ddddd.sol\":7242:7251  address[] */\n      0x60\n        /* \"contracts/ddddd.sol\":7271:7279  userList */\n      0x1\n        /* \"contracts/ddddd.sol\":7264:7279  return userList */\n      dup1\n      sload\n      dup1\n      0x20\n      mul\n      0x20\n      add\n      mload(0x40)\n      swap1\n      dup2\n      add\n      0x40\n      mstore\n      dup1\n      swap3\n      swap2\n      swap1\n      dup2\n      dup2\n      mstore\n      0x20\n      add\n      dup3\n      dup1\n      sload\n      dup1\n      iszero\n      tag_177\n      jumpi\n      0x20\n      mul\n      dup3\n      add\n      swap2\n      swap1\n      0x0\n      mstore\n      keccak256(0x0, 0x20)\n      swap1\n    tag_178:\n      dup2\n      0x0\n      swap1\n      sload\n      swap1\n      0x100\n      exp\n      swap1\n      div\n      0xffffffffffffffffffffffffffffffffffffffff\n      and\n      0xffffffffffffffffffffffffffffffffffffffff\n      and\n      dup2\n      mstore\n      0x20\n      add\n      swap1\n      0x1\n      add\n      swap1\n      dup1\n      dup4\n      gt\n      tag_178\n      jumpi\n    tag_177:\n      pop\n      pop\n      pop\n      pop\n      pop\n      swap1\n      pop\n        /* \"contracts/ddddd.sol\":7202:7287  function getUsers() public view returns(address[]) {\r... */\n      swap1\n      jump\t// out\n        /* \"contracts/ddddd.sol\":8680:8792  function getUserPermissionCounter() public view returns(uint256) {\r... */\n    tag_39:\n        /* \"contracts/ddddd.sol\":8736:8743  uint256 */\n      0x0\n        /* \"contracts/ddddd.sol\":8763:8784  userPermissionCounter */\n      sload(0xe)\n        /* \"contracts/ddddd.sol\":8756:8784  return userPermissionCounter */\n      swap1\n      pop\n        /* \"contracts/ddddd.sol\":8680:8792  function getUserPermissionCounter() public view returns(uint256) {\r... */\n      swap1\n      jump\t// out\n        /* \"contracts/ddddd.sol\":7398:7772  function searchUserformation(address _address) public view returns(string, string, string, string, string, string, string, address) {\r... */\n    tag_46:\n        /* \"contracts/ddddd.sol\":7465:7471  string */\n      0x60\n        /* \"contracts/ddddd.sol\":7473:7479  string */\n      dup1\n        /* \"contracts/ddddd.sol\":7481:7487  string */\n      0x60\n        /* \"contracts/ddddd.sol\":7489:7495  string */\n      dup1\n        /* \"contracts/ddddd.sol\":7497:7503  string */\n      0x60\n        /* \"contracts/ddddd.sol\":7505:7511  string */\n      dup1\n        /* \"contracts/ddddd.sol\":7513:7519  string */\n      0x60\n        /* \"contracts/ddddd.sol\":7521:7528  address */\n      0x0\n        /* \"contracts/ddddd.sol\":7593:7598  var u */\n      dup1\n        /* \"contracts/ddddd.sol\":7549:7559  isApproved */\n      0x7\n        /* \"contracts/ddddd.sol\":7549:7569  isApproved[_address] */\n      0x0\n        /* \"contracts/ddddd.sol\":7560:7568  _address */\n      dup12\n        /* \"contracts/ddddd.sol\":7549:7569  isApproved[_address] */\n      0xffffffffffffffffffffffffffffffffffffffff\n      and\n      0xffffffffffffffffffffffffffffffffffffffff\n      and\n      dup2\n      mstore\n      0x20\n      add\n      swap1\n      dup2\n      mstore\n      0x20\n      add\n      0x0\n      keccak256\n        /* \"contracts/ddddd.sol\":7549:7581  isApproved[_address][msg.sender] */\n      0x0\n        /* \"contracts/ddddd.sol\":7570:7580  msg.sender */\n      caller\n        /* \"contracts/ddddd.sol\":7549:7581  isApproved[_address][msg.sender] */\n      0xffffffffffffffffffffffffffffffffffffffff\n      and\n      0xffffffffffffffffffffffffffffffffffffffff\n      and\n      dup2\n      mstore\n      0x20\n      add\n      swap1\n      dup2\n      mstore\n      0x20\n      add\n      0x0\n      keccak256\n      0x0\n      swap1\n      sload\n      swap1\n      0x100\n      exp\n      swap1\n      div\n      0xff\n      and\n        /* \"contracts/ddddd.sol\":7541:7582  require(isApproved[_address][msg.sender]) */\n      iszero\n      iszero\n      tag_181\n      jumpi\n      0x0\n      dup1\n      revert\n    tag_181:\n        /* \"contracts/ddddd.sol\":7601:7605  user */\n      0x4\n        /* \"contracts/ddddd.sol\":7601:7615  user[_address] */\n      0x0\n        /* \"contracts/ddddd.sol\":7606:7614  _address */\n      dup12\n        /* \"contracts/ddddd.sol\":7601:7615  user[_address] */\n      0xffffffffffffffffffffffffffffffffffffffff\n      and\n      0xffffffffffffffffffffffffffffffffffffffff\n      and\n      dup2\n      mstore\n      0x20\n      add\n      swap1\n      dup2\n      mstore\n      0x20\n      add\n      0x0\n      keccak256\n        /* \"contracts/ddddd.sol\":7593:7615  var u = user[_address] */\n      swap1\n      pop\n        /* \"contracts/ddddd.sol\":7634:7635  u */\n      dup1\n        /* \"contracts/ddddd.sol\":7634:7641  u.uaeId */\n      0x0\n      add\n        /* \"contracts/ddddd.sol\":7643:7644  u */\n      dup2\n        /* \"contracts/ddddd.sol\":7643:7649  u.name */\n      0x1\n      add\n        /* \"contracts/ddddd.sol\":7651:7652  u */\n      dup3\n        /* \"contracts/ddddd.sol\":7651:7658  u.email */\n      0x6\n      add\n        /* \"contracts/ddddd.sol\":7660:7661  u */\n      dup4\n        /* \"contracts/ddddd.sol\":7660:7667  u.phone */\n      0x2\n      add\n        /* \"contracts/ddddd.sol\":7669:7670  u */\n      dup5\n        /* \"contracts/ddddd.sol\":7669:7677  u.gender */\n      0x3\n      add\n        /* \"contracts/ddddd.sol\":7679:7680  u */\n      dup6\n        /* \"contracts/ddddd.sol\":7679:7684  u.dob */\n      0x4\n      add\n        /* \"contracts/ddddd.sol\":7686:7687  u */\n      dup7\n        /* \"contracts/ddddd.sol\":7686:7692  u.addr */\n      0x5\n      add\n        /* \"contracts/ddddd.sol\":7694:7695  u */\n      dup8\n        /* \"contracts/ddddd.sol\":7694:7704  u.eAddress */\n      0x9\n      add\n      0x0\n      swap1\n      sload\n      swap1\n      0x100\n      exp\n      swap1\n      div\n      0xffffffffffffffffffffffffffffffffffffffff\n      and\n        /* \"contracts/ddddd.sol\":7626:7705  return (u.uaeId, u.name, u.email, u.phone, u.gender, u.dob, u.addr, u.eAddress) */\n      dup8\n      dup1\n      sload\n      0x1\n      dup2\n      0x1\n      and\n      iszero\n      0x100\n      mul\n      sub\n      and\n      0x2\n      swap1\n      div\n      dup1\n      0x1f\n      add\n      0x20\n      dup1\n      swap2\n      div\n      mul\n      0x20\n      add\n      mload(0x40)\n      swap1\n      dup2\n      add\n      0x40\n      mstore\n      dup1\n      swap3\n      swap2\n      swap1\n      dup2\n      dup2\n      mstore\n      0x20\n      add\n      dup3\n      dup1\n      sload\n      0x1\n      dup2\n      0x1\n      and\n      iszero\n      0x100\n      mul\n      sub\n      and\n      0x2\n      swap1\n      div\n      dup1\n      iszero\n      tag_182\n      jumpi\n      dup1\n      0x1f\n      lt\n      tag_183\n      jumpi\n      0x100\n      dup1\n      dup4\n      sload\n      div\n      mul\n      dup4\n      mstore\n      swap2\n      0x20\n      add\n      swap2\n      jump(tag_182)\n    tag_183:\n      dup3\n      add\n      swap2\n      swap1\n      0x0\n      mstore\n      keccak256(0x0, 0x20)\n      swap1\n    tag_184:\n      dup2\n      sload\n      dup2\n      mstore\n      swap1\n      0x1\n      add\n      swap1\n      0x20\n      add\n      dup1\n      dup4\n      gt\n      tag_184\n      jumpi\n      dup3\n      swap1\n      sub\n      0x1f\n      and\n      dup3\n      add\n      swap2\n    tag_182:\n      pop\n      pop\n      pop\n      pop\n      pop\n      swap8\n      pop\n      dup7\n      dup1\n      sload\n      0x1\n      dup2\n      0x1\n      and\n      iszero\n      0x100\n      mul\n      sub\n      and\n      0x2\n      swap1\n      div\n      dup1\n      0x1f\n      add\n      0x20\n      dup1\n      swap2\n      div\n      mul\n      0x20\n      add\n      mload(0x40)\n      swap1\n      dup2\n      add\n      0x40\n      mstore\n      dup1\n      swap3\n      swap2\n      swap1\n      dup2\n      dup2\n      mstore\n      0x20\n      add\n      dup3\n      dup1\n      sload\n      0x1\n      dup2\n      0x1\n      and\n      iszero\n      0x100\n      mul\n      sub\n      and\n      0x2\n      swap1\n      div\n      dup1\n      iszero\n      tag_185\n      jumpi\n      dup1\n      0x1f\n      lt\n      tag_186\n      jumpi\n      0x100\n      dup1\n      dup4\n      sload\n      div\n      mul\n      dup4\n      mstore\n      swap2\n      0x20\n      add\n      swap2\n      jump(tag_185)\n    tag_186:\n      dup3\n      add\n      swap2\n      swap1\n      0x0\n      mstore\n      keccak256(0x0, 0x20)\n      swap1\n    tag_187:\n      dup2\n      sload\n      dup2\n      mstore\n      swap1\n      0x1\n      add\n      swap1\n      0x20\n      add\n      dup1\n      dup4\n      gt\n      tag_187\n      jumpi\n      dup3\n      swap1\n      sub\n      0x1f\n      and\n      dup3\n      add\n      swap2\n    tag_185:\n      pop\n      pop\n      pop\n      pop\n      pop\n      swap7\n      pop\n      dup6\n      dup1\n      sload\n      0x1\n      dup2\n      0x1\n      and\n      iszero\n      0x100\n      mul\n      sub\n      and\n      0x2\n      swap1\n      div\n      dup1\n      0x1f\n      add\n      0x20\n      dup1\n      swap2\n      div\n      mul\n      0x20\n      add\n      mload(0x40)\n      swap1\n      dup2\n      add\n      0x40\n      mstore\n      dup1\n      swap3\n      swap2\n      swap1\n      dup2\n      dup2\n      mstore\n      0x20\n      add\n      dup3\n      dup1\n      sload\n      0x1\n      dup2\n      0x1\n      and\n      iszero\n      0x100\n      mul\n      sub\n      and\n      0x2\n      swap1\n      div\n      dup1\n      iszero\n      tag_188\n      jumpi\n      dup1\n      0x1f\n      lt\n      tag_189\n      jumpi\n      0x100\n      dup1\n      dup4\n      sload\n      div\n      mul\n      dup4\n      mstore\n      swap2\n      0x20\n      add\n      swap2\n      jump(tag_188)\n    tag_189:\n      dup3\n      add\n      swap2\n      swap1\n      0x0\n      mstore\n      keccak256(0x0, 0x20)\n      swap1\n    tag_190:\n      dup2\n      sload\n      dup2\n      mstore\n      swap1\n      0x1\n      add\n      swap1\n      0x20\n      add\n      dup1\n      dup4\n      gt\n      tag_190\n      jumpi\n      dup3\n      swap1\n      sub\n      0x1f\n      and\n      dup3\n      add\n      swap2\n    tag_188:\n      pop\n      pop\n      pop\n      pop\n      pop\n      swap6\n      pop\n      dup5\n      dup1\n      sload\n      0x1\n      dup2\n      0x1\n      and\n      iszero\n      0x100\n      mul\n      sub\n      and\n      0x2\n      swap1\n      div\n      dup1\n      0x1f\n      add\n      0x20\n      dup1\n      swap2\n      div\n      mul\n      0x20\n      add\n      mload(0x40)\n      swap1\n      dup2\n      add\n      0x40\n      mstore\n      dup1\n      swap3\n      swap2\n      swap1\n      dup2\n      dup2\n      mstore\n      0x20\n      add\n      dup3\n      dup1\n      sload\n      0x1\n      dup2\n      0x1\n      and\n      iszero\n      0x100\n      mul\n      sub\n      and\n      0x2\n      swap1\n      div\n      dup1\n      iszero\n      tag_191\n      jumpi\n      dup1\n      0x1f\n      lt\n      tag_192\n      jumpi\n      0x100\n      dup1\n      dup4\n      sload\n      div\n      mul\n      dup4\n      mstore\n      swap2\n      0x20\n      add\n      swap2\n      jump(tag_191)\n    tag_192:\n      dup3\n      add\n      swap2\n      swap1\n      0x0\n      mstore\n      keccak256(0x0, 0x20)\n      swap1\n    tag_193:\n      dup2\n      sload\n      dup2\n      mstore\n      swap1\n      0x1\n      add\n      swap1\n      0x20\n      add\n      dup1\n      dup4\n      gt\n      tag_193\n      jumpi\n      dup3\n      swap1\n      sub\n      0x1f\n      and\n      dup3\n      add\n      swap2\n    tag_191:\n      pop\n      pop\n      pop\n      pop\n      pop\n      swap5\n      pop\n      dup4\n      dup1\n      sload\n      0x1\n      dup2\n      0x1\n      and\n      iszero\n      0x100\n      mul\n      sub\n      and\n      0x2\n      swap1\n      div\n      dup1\n      0x1f\n      add\n      0x20\n      dup1\n      swap2\n      div\n      mul\n      0x20\n      add\n      mload(0x40)\n      swap1\n      dup2\n      add\n      0x40\n      mstore\n      dup1\n      swap3\n      swap2\n      swap1\n      dup2\n      dup2\n      mstore\n      0x20\n      add\n      dup3\n      dup1\n      sload\n      0x1\n      dup2\n      0x1\n      and\n      iszero\n      0x100\n      mul\n      sub\n      and\n      0x2\n      swap1\n      div\n      dup1\n      iszero\n      tag_194\n      jumpi\n      dup1\n      0x1f\n      lt\n      tag_195\n      jumpi\n      0x100\n      dup1\n      dup4\n      sload\n      div\n      mul\n      dup4\n      mstore\n      swap2\n      0x20\n      add\n      swap2\n      jump(tag_194)\n    tag_195:\n      dup3\n      add\n      swap2\n      swap1\n      0x0\n      mstore\n      keccak256(0x0, 0x20)\n      swap1\n    tag_196:\n      dup2\n      sload\n      dup2\n      mstore\n      swap1\n      0x1\n      add\n      swap1\n      0x20\n      add\n      dup1\n      dup4\n      gt\n      tag_196\n      jumpi\n      dup3\n      swap1\n      sub\n      0x1f\n      and\n      dup3\n      add\n      swap2\n    tag_194:\n      pop\n      pop\n      pop\n      pop\n      pop\n      swap4\n      pop\n      dup3\n      dup1\n      sload\n      0x1\n      dup2\n      0x1\n      and\n      iszero\n      0x100\n      mul\n      sub\n      and\n      0x2\n      swap1\n      div\n      dup1\n      0x1f\n      add\n      0x20\n      dup1\n      swap2\n      div\n      mul\n      0x20\n      add\n      mload(0x40)\n      swap1\n      dup2\n      add\n      0x40\n      mstore\n      dup1\n      swap3\n      swap2\n      swap1\n      dup2\n      dup2\n      mstore\n      0x20\n      add\n      dup3\n      dup1\n      sload\n      0x1\n      dup2\n      0x1\n      and\n      iszero\n      0x100\n      mul\n      sub\n      and\n      0x2\n      swap1\n      div\n      dup1\n      iszero\n      tag_197\n      jumpi\n      dup1\n      0x1f\n      lt\n      tag_198\n      jumpi\n      0x100\n      dup1\n      dup4\n      sload\n      div\n      mul\n      dup4\n      mstore\n      swap2\n      0x20\n      add\n      swap2\n      jump(tag_197)\n    tag_198:\n      dup3\n      add\n      swap2\n      swap1\n      0x0\n      mstore\n      keccak256(0x0, 0x20)\n      swap1\n    tag_199:\n      dup2\n      sload\n      dup2\n      mstore\n      swap1\n      0x1\n      add\n      swap1\n      0x20\n      add\n      dup1\n      dup4\n      gt\n      tag_199\n      jumpi\n      dup3\n      swap1\n      sub\n      0x1f\n      and\n      dup3\n      add\n      swap2\n    tag_197:\n      pop\n      pop\n      pop\n      pop\n      pop\n      swap3\n      pop\n      dup2\n      dup1\n      sload\n      0x1\n      dup2\n      0x1\n      and\n      iszero\n      0x100\n      mul\n      sub\n      and\n      0x2\n      swap1\n      div\n      dup1\n      0x1f\n      add\n      0x20\n      dup1\n      swap2\n      div\n      mul\n      0x20\n      add\n      mload(0x40)\n      swap1\n      dup2\n      add\n      0x40\n      mstore\n      dup1\n      swap3\n      swap2\n      swap1\n      dup2\n      dup2\n      mstore\n      0x20\n      add\n      dup3\n      dup1\n      sload\n      0x1\n      dup2\n      0x1\n      and\n      iszero\n      0x100\n      mul\n      sub\n      and\n      0x2\n      swap1\n      div\n      dup1\n      iszero\n      tag_200\n      jumpi\n      dup1\n      0x1f\n      lt\n      tag_201\n      jumpi\n      0x100\n      dup1\n      dup4\n      sload\n      div\n      mul\n      dup4\n      mstore\n      swap2\n      0x20\n      add\n      swap2\n      jump(tag_200)\n    tag_201:\n      dup3\n      add\n      swap2\n      swap1\n      0x0\n      mstore\n      keccak256(0x0, 0x20)\n      swap1\n    tag_202:\n      dup2\n      sload\n      dup2\n      mstore\n      swap1\n      0x1\n      add\n      swap1\n      0x20\n      add\n      dup1\n      dup4\n      gt\n      tag_202\n      jumpi\n      dup3\n      swap1\n      sub\n      0x1f\n      and\n      dup3\n      add\n      swap2\n    tag_200:\n      pop\n      pop\n      pop\n      pop\n      pop\n      swap2\n      pop\n      swap9\n      pop\n      swap9\n      pop\n      swap9\n      pop\n      swap9\n      pop\n      swap9\n      pop\n      swap9\n      pop\n      swap9\n      pop\n      swap9\n      pop\n        /* \"contracts/ddddd.sol\":7398:7772  function searchUserformation(address _address) public view returns(string, string, string, string, string, string, string, address) {\r... */\n      pop\n      swap2\n      swap4\n      swap6\n      swap8\n      pop\n      swap2\n      swap4\n      swap6\n      swap8\n      jump\t// out\n        /* \"contracts/ddddd.sol\":1633:1661  uint256 public userCount = 0 */\n    tag_51:\n      sload(0xb)\n      dup2\n      jump\t// out\n        /* \"contracts/ddddd.sol\":1095:1122  address[] public doctorList */\n    tag_57:\n      0x2\n      dup2\n      dup2\n      sload\n      dup2\n      lt\n      iszero\n      iszero\n      tag_203\n      jumpi\n      invalid\n    tag_203:\n      swap1\n      0x0\n      mstore\n      keccak256(0x0, 0x20)\n      add\n      0x0\n      swap2\n      pop\n      sload\n      swap1\n      0x100\n      exp\n      swap1\n      div\n      0xffffffffffffffffffffffffffffffffffffffff\n      and\n      dup2\n      jump\t// out\n        /* \"contracts/ddddd.sol\":4558:5083  function editDoctor(address _doctor, string _uaeId, string _name, string _phone, string _gender, string _email, string _qualification, string _major) public {\r... */\n    tag_64:\n        /* \"contracts/ddddd.sol\":4806:4811  var d */\n      0x0\n        /* \"contracts/ddddd.sol\":4748:4757  mohAdress */\n      0x10\n      0x0\n      swap1\n      sload\n      swap1\n      0x100\n      exp\n      swap1\n      div\n      0xffffffffffffffffffffffffffffffffffffffff\n      and\n        /* \"contracts/ddddd.sol\":4734:4757  msg.sender == mohAdress */\n      0xffffffffffffffffffffffffffffffffffffffff\n      and\n        /* \"contracts/ddddd.sol\":4734:4744  msg.sender */\n      caller\n        /* \"contracts/ddddd.sol\":4734:4757  msg.sender == mohAdress */\n      0xffffffffffffffffffffffffffffffffffffffff\n      and\n      eq\n        /* \"contracts/ddddd.sol\":4726:4758  require(msg.sender == mohAdress) */\n      iszero\n      iszero\n      tag_206\n      jumpi\n      0x0\n      dup1\n      revert\n    tag_206:\n        /* \"contracts/ddddd.sol\":4777:4785  isDoctor */\n      0x9\n        /* \"contracts/ddddd.sol\":4777:4794  isDoctor[_doctor] */\n      0x0\n        /* \"contracts/ddddd.sol\":4786:4793  _doctor */\n      dup11\n        /* \"contracts/ddddd.sol\":4777:4794  isDoctor[_doctor] */\n      0xffffffffffffffffffffffffffffffffffffffff\n      and\n      0xffffffffffffffffffffffffffffffffffffffff\n      and\n      dup2\n      mstore\n      0x20\n      add\n      swap1\n      dup2\n      mstore\n      0x20\n      add\n      0x0\n      keccak256\n      0x0\n      swap1\n      sload\n      swap1\n      0x100\n      exp\n      swap1\n      div\n      0xff\n      and\n        /* \"contracts/ddddd.sol\":4769:4795  require(isDoctor[_doctor]) */\n      iszero\n      iszero\n      tag_207\n      jumpi\n      0x0\n      dup1\n      revert\n    tag_207:\n        /* \"contracts/ddddd.sol\":4814:4820  doctor */\n      0x5\n        /* \"contracts/ddddd.sol\":4814:4829  doctor[_doctor] */\n      0x0\n        /* \"contracts/ddddd.sol\":4821:4828  _doctor */\n      dup11\n        /* \"contracts/ddddd.sol\":4814:4829  doctor[_doctor] */\n      0xffffffffffffffffffffffffffffffffffffffff\n      and\n      0xffffffffffffffffffffffffffffffffffffffff\n      and\n      dup2\n      mstore\n      0x20\n      add\n      swap1\n      dup2\n      mstore\n      0x20\n      add\n      0x0\n      keccak256\n        /* \"contracts/ddddd.sol\":4806:4829  var d = doctor[_doctor] */\n      swap1\n      pop\n        /* \"contracts/ddddd.sol\":4860:4866  _uaeId */\n      dup8\n        /* \"contracts/ddddd.sol\":4850:4851  d */\n      dup2\n        /* \"contracts/ddddd.sol\":4850:4857  d.uaeId */\n      0x0\n      add\n        /* \"contracts/ddddd.sol\":4850:4866  d.uaeId = _uaeId */\n      swap1\n      dup1\n      mload\n      swap1\n      0x20\n      add\n      swap1\n      tag_208\n      swap3\n      swap2\n      swap1\n      jump\t// in(tag_209)\n    tag_208:\n      pop\n        /* \"contracts/ddddd.sol\":4886:4891  _name */\n      dup7\n        /* \"contracts/ddddd.sol\":4877:4878  d */\n      dup2\n        /* \"contracts/ddddd.sol\":4877:4883  d.name */\n      0x1\n      add\n        /* \"contracts/ddddd.sol\":4877:4891  d.name = _name */\n      swap1\n      dup1\n      mload\n      swap1\n      0x20\n      add\n      swap1\n      tag_210\n      swap3\n      swap2\n      swap1\n      jump\t// in(tag_209)\n    tag_210:\n      pop\n        /* \"contracts/ddddd.sol\":4912:4918  _phone */\n      dup6\n        /* \"contracts/ddddd.sol\":4902:4903  d */\n      dup2\n        /* \"contracts/ddddd.sol\":4902:4909  d.phone */\n      0x2\n      add\n        /* \"contracts/ddddd.sol\":4902:4918  d.phone = _phone */\n      swap1\n      dup1\n      mload\n      swap1\n      0x20\n      add\n      swap1\n      tag_211\n      swap3\n      swap2\n      swap1\n      jump\t// in(tag_209)\n    tag_211:\n      pop\n        /* \"contracts/ddddd.sol\":4940:4947  _gender */\n      dup5\n        /* \"contracts/ddddd.sol\":4929:4930  d */\n      dup2\n        /* \"contracts/ddddd.sol\":4929:4937  d.gender */\n      0x3\n      add\n        /* \"contracts/ddddd.sol\":4929:4947  d.gender = _gender */\n      swap1\n      dup1\n      mload\n      swap1\n      0x20\n      add\n      swap1\n      tag_212\n      swap3\n      swap2\n      swap1\n      jump\t// in(tag_209)\n    tag_212:\n      pop\n        /* \"contracts/ddddd.sol\":4968:4974  _email */\n      dup4\n        /* \"contracts/ddddd.sol\":4958:4959  d */\n      dup2\n        /* \"contracts/ddddd.sol\":4958:4965  d.email */\n      0x5\n      add\n        /* \"contracts/ddddd.sol\":4958:4974  d.email = _email */\n      swap1\n      dup1\n      mload\n      swap1\n      0x20\n      add\n      swap1\n      tag_213\n      swap3\n      swap2\n      swap1\n      jump\t// in(tag_209)\n    tag_213:\n      pop\n        /* \"contracts/ddddd.sol\":5003:5017  _qualification */\n      dup3\n        /* \"contracts/ddddd.sol\":4985:4986  d */\n      dup2\n        /* \"contracts/ddddd.sol\":4985:5000  d.qualification */\n      0x6\n      add\n        /* \"contracts/ddddd.sol\":4985:5017  d.qualification = _qualification */\n      swap1\n      dup1\n      mload\n      swap1\n      0x20\n      add\n      swap1\n      tag_214\n      swap3\n      swap2\n      swap1\n      jump\t// in(tag_209)\n    tag_214:\n      pop\n        /* \"contracts/ddddd.sol\":5038:5044  _major */\n      dup2\n        /* \"contracts/ddddd.sol\":5028:5029  d */\n      dup2\n        /* \"contracts/ddddd.sol\":5028:5035  d.major */\n      0x7\n      add\n        /* \"contracts/ddddd.sol\":5028:5044  d.major = _major */\n      swap1\n      dup1\n      mload\n      swap1\n      0x20\n      add\n      swap1\n      tag_215\n      swap3\n      swap2\n      swap1\n      jump\t// in(tag_209)\n    tag_215:\n      pop\n        /* \"contracts/ddddd.sol\":5068:5075  _doctor */\n      dup9\n        /* \"contracts/ddddd.sol\":5055:5056  d */\n      dup2\n        /* \"contracts/ddddd.sol\":5055:5065  d.eAddress */\n      0x8\n      add\n      0x0\n        /* \"contracts/ddddd.sol\":5055:5075  d.eAddress = _doctor */\n      0x100\n      exp\n      dup2\n      sload\n      dup2\n      0xffffffffffffffffffffffffffffffffffffffff\n      mul\n      not\n      and\n      swap1\n      dup4\n      0xffffffffffffffffffffffffffffffffffffffff\n      and\n      mul\n      or\n      swap1\n      sstore\n      pop\n        /* \"contracts/ddddd.sol\":4558:5083  function editDoctor(address _doctor, string _uaeId, string _name, string _phone, string _gender, string _email, string _qualification, string _major) public {\r... */\n      pop\n      pop\n      pop\n      pop\n      pop\n      pop\n      pop\n      pop\n      pop\n      jump\t// out\n        /* \"contracts/ddddd.sol\":3783:4550  function doctorRegistration(address _doctor, string _uaeId, string _name, string _phone, string _gender, string _email, string _qualification, string _major) public {\r... */\n    tag_68:\n        /* \"contracts/ddddd.sol\":4040:4045  var d */\n      0x0\n        /* \"contracts/ddddd.sol\":3981:3990  mohAdress */\n      0x10\n      0x0\n      swap1\n      sload\n      swap1\n      0x100\n      exp\n      swap1\n      div\n      0xffffffffffffffffffffffffffffffffffffffff\n      and\n        /* \"contracts/ddddd.sol\":3967:3990  msg.sender == mohAdress */\n      0xffffffffffffffffffffffffffffffffffffffff\n      and\n        /* \"contracts/ddddd.sol\":3967:3977  msg.sender */\n      caller\n        /* \"contracts/ddddd.sol\":3967:3990  msg.sender == mohAdress */\n      0xffffffffffffffffffffffffffffffffffffffff\n      and\n      eq\n        /* \"contracts/ddddd.sol\":3959:3991  require(msg.sender == mohAdress) */\n      iszero\n      iszero\n      tag_217\n      jumpi\n      0x0\n      dup1\n      revert\n    tag_217:\n        /* \"contracts/ddddd.sol\":4011:4019  isDoctor */\n      0x9\n        /* \"contracts/ddddd.sol\":4011:4028  isDoctor[_doctor] */\n      0x0\n        /* \"contracts/ddddd.sol\":4020:4027  _doctor */\n      dup11\n        /* \"contracts/ddddd.sol\":4011:4028  isDoctor[_doctor] */\n      0xffffffffffffffffffffffffffffffffffffffff\n      and\n      0xffffffffffffffffffffffffffffffffffffffff\n      and\n      dup2\n      mstore\n      0x20\n      add\n      swap1\n      dup2\n      mstore\n      0x20\n      add\n      0x0\n      keccak256\n      0x0\n      swap1\n      sload\n      swap1\n      0x100\n      exp\n      swap1\n      div\n      0xff\n      and\n        /* \"contracts/ddddd.sol\":4010:4028  !isDoctor[_doctor] */\n      iszero\n        /* \"contracts/ddddd.sol\":4002:4029  require(!isDoctor[_doctor]) */\n      iszero\n      iszero\n      tag_218\n      jumpi\n      0x0\n      dup1\n      revert\n    tag_218:\n        /* \"contracts/ddddd.sol\":4048:4054  doctor */\n      0x5\n        /* \"contracts/ddddd.sol\":4048:4063  doctor[_doctor] */\n      0x0\n        /* \"contracts/ddddd.sol\":4055:4062  _doctor */\n      dup11\n        /* \"contracts/ddddd.sol\":4048:4063  doctor[_doctor] */\n      0xffffffffffffffffffffffffffffffffffffffff\n      and\n      0xffffffffffffffffffffffffffffffffffffffff\n      and\n      dup2\n      mstore\n      0x20\n      add\n      swap1\n      dup2\n      mstore\n      0x20\n      add\n      0x0\n      keccak256\n        /* \"contracts/ddddd.sol\":4040:4063  var d = doctor[_doctor] */\n      swap1\n      pop\n        /* \"contracts/ddddd.sol\":4094:4100  _uaeId */\n      dup8\n        /* \"contracts/ddddd.sol\":4084:4085  d */\n      dup2\n        /* \"contracts/ddddd.sol\":4084:4091  d.uaeId */\n      0x0\n      add\n        /* \"contracts/ddddd.sol\":4084:4100  d.uaeId = _uaeId */\n      swap1\n      dup1\n      mload\n      swap1\n      0x20\n      add\n      swap1\n      tag_219\n      swap3\n      swap2\n      swap1\n      jump\t// in(tag_209)\n    tag_219:\n      pop\n        /* \"contracts/ddddd.sol\":4120:4125  _name */\n      dup7\n        /* \"contracts/ddddd.sol\":4111:4112  d */\n      dup2\n        /* \"contracts/ddddd.sol\":4111:4117  d.name */\n      0x1\n      add\n        /* \"contracts/ddddd.sol\":4111:4125  d.name = _name */\n      swap1\n      dup1\n      mload\n      swap1\n      0x20\n      add\n      swap1\n      tag_220\n      swap3\n      swap2\n      swap1\n      jump\t// in(tag_209)\n    tag_220:\n      pop\n        /* \"contracts/ddddd.sol\":4146:4152  _phone */\n      dup6\n        /* \"contracts/ddddd.sol\":4136:4137  d */\n      dup2\n        /* \"contracts/ddddd.sol\":4136:4143  d.phone */\n      0x2\n      add\n        /* \"contracts/ddddd.sol\":4136:4152  d.phone = _phone */\n      swap1\n      dup1\n      mload\n      swap1\n      0x20\n      add\n      swap1\n      tag_221\n      swap3\n      swap2\n      swap1\n      jump\t// in(tag_209)\n    tag_221:\n      pop\n        /* \"contracts/ddddd.sol\":4174:4181  _gender */\n      dup5\n        /* \"contracts/ddddd.sol\":4163:4164  d */\n      dup2\n        /* \"contracts/ddddd.sol\":4163:4171  d.gender */\n      0x3\n      add\n        /* \"contracts/ddddd.sol\":4163:4181  d.gender = _gender */\n      swap1\n      dup1\n      mload\n      swap1\n      0x20\n      add\n      swap1\n      tag_222\n      swap3\n      swap2\n      swap1\n      jump\t// in(tag_209)\n    tag_222:\n      pop\n        /* \"contracts/ddddd.sol\":4202:4208  _email */\n      dup4\n        /* \"contracts/ddddd.sol\":4192:4193  d */\n      dup2\n        /* \"contracts/ddddd.sol\":4192:4199  d.email */\n      0x5\n      add\n        /* \"contracts/ddddd.sol\":4192:4208  d.email = _email */\n      swap1\n      dup1\n      mload\n      swap1\n      0x20\n      add\n      swap1\n      tag_223\n      swap3\n      swap2\n      swap1\n      jump\t// in(tag_209)\n    tag_223:\n      pop\n        /* \"contracts/ddddd.sol\":4237:4251  _qualification */\n      dup3\n        /* \"contracts/ddddd.sol\":4219:4220  d */\n      dup2\n        /* \"contracts/ddddd.sol\":4219:4234  d.qualification */\n      0x6\n      add\n        /* \"contracts/ddddd.sol\":4219:4251  d.qualification = _qualification */\n      swap1\n      dup1\n      mload\n      swap1\n      0x20\n      add\n      swap1\n      tag_224\n      swap3\n      swap2\n      swap1\n      jump\t// in(tag_209)\n    tag_224:\n      pop\n        /* \"contracts/ddddd.sol\":4272:4278  _major */\n      dup2\n        /* \"contracts/ddddd.sol\":4262:4263  d */\n      dup2\n        /* \"contracts/ddddd.sol\":4262:4269  d.major */\n      0x7\n      add\n        /* \"contracts/ddddd.sol\":4262:4278  d.major = _major */\n      swap1\n      dup1\n      mload\n      swap1\n      0x20\n      add\n      swap1\n      tag_225\n      swap3\n      swap2\n      swap1\n      jump\t// in(tag_209)\n    tag_225:\n      pop\n        /* \"contracts/ddddd.sol\":4302:4309  _doctor */\n      dup9\n        /* \"contracts/ddddd.sol\":4289:4290  d */\n      dup2\n        /* \"contracts/ddddd.sol\":4289:4299  d.eAddress */\n      0x8\n      add\n      0x0\n        /* \"contracts/ddddd.sol\":4289:4309  d.eAddress = _doctor */\n      0x100\n      exp\n      dup2\n      sload\n      dup2\n      0xffffffffffffffffffffffffffffffffffffffff\n      mul\n      not\n      and\n      swap1\n      dup4\n      0xffffffffffffffffffffffffffffffffffffffff\n      and\n      mul\n      or\n      swap1\n      sstore\n      pop\n        /* \"contracts/ddddd.sol\":4329:4344  block.timestamp */\n      timestamp\n        /* \"contracts/ddddd.sol\":4320:4321  d */\n      dup2\n        /* \"contracts/ddddd.sol\":4320:4326  d.date */\n      0x9\n      add\n        /* \"contracts/ddddd.sol\":4320:4344  d.date = block.timestamp */\n      dup2\n      swap1\n      sstore\n      pop\n        /* \"contracts/ddddd.sol\":4365:4375  doctorList */\n      0x2\n        /* \"contracts/ddddd.sol\":4381:4388  _doctor */\n      dup10\n        /* \"contracts/ddddd.sol\":4365:4389  doctorList.push(_doctor) */\n      swap1\n      dup1\n        /* \"--CODEGEN--\":39:40   */\n      0x1\n        /* \"--CODEGEN--\":33:36   */\n      dup2\n        /* \"--CODEGEN--\":27:37   */\n      sload\n        /* \"--CODEGEN--\":23:41   */\n      add\n        /* \"--CODEGEN--\":57:67   */\n      dup1\n        /* \"--CODEGEN--\":52:55   */\n      dup3\n        /* \"--CODEGEN--\":45:68   */\n      sstore\n        /* \"--CODEGEN--\":79:89   */\n      dup1\n        /* \"--CODEGEN--\":72:89   */\n      swap2\n      pop\n        /* \"--CODEGEN--\":0:93   */\n      pop\n        /* \"contracts/ddddd.sol\":4365:4389  doctorList.push(_doctor) */\n      swap1\n      0x1\n      dup3\n      sub\n      swap1\n      0x0\n      mstore\n      keccak256(0x0, 0x20)\n      add\n      0x0\n      swap1\n      swap2\n      swap3\n      swap1\n      swap2\n      swap1\n      swap2\n      0x100\n      exp\n      dup2\n      sload\n      dup2\n      0xffffffffffffffffffffffffffffffffffffffff\n      mul\n      not\n      and\n      swap1\n      dup4\n      0xffffffffffffffffffffffffffffffffffffffff\n      and\n      mul\n      or\n      swap1\n      sstore\n      pop\n      pop\n        /* \"contracts/ddddd.sol\":4420:4424  true */\n      0x1\n        /* \"contracts/ddddd.sol\":4400:4408  isDoctor */\n      0x9\n        /* \"contracts/ddddd.sol\":4400:4417  isDoctor[_doctor] */\n      0x0\n        /* \"contracts/ddddd.sol\":4409:4416  _doctor */\n      dup12\n        /* \"contracts/ddddd.sol\":4400:4417  isDoctor[_doctor] */\n      0xffffffffffffffffffffffffffffffffffffffff\n      and\n      0xffffffffffffffffffffffffffffffffffffffff\n      and\n      dup2\n      mstore\n      0x20\n      add\n      swap1\n      dup2\n      mstore\n      0x20\n      add\n      0x0\n      keccak256\n      0x0\n        /* \"contracts/ddddd.sol\":4400:4424  isDoctor[_doctor] = true */\n      0x100\n      exp\n      dup2\n      sload\n      dup2\n      0xff\n      mul\n      not\n      and\n      swap1\n      dup4\n      iszero\n      iszero\n      mul\n      or\n      swap1\n      sstore\n      pop\n        /* \"contracts/ddddd.sol\":4466:4470  true */\n      0x1\n        /* \"contracts/ddddd.sol\":4435:4445  isApproved */\n      0x7\n        /* \"contracts/ddddd.sol\":4435:4454  isApproved[_doctor] */\n      0x0\n        /* \"contracts/ddddd.sol\":4446:4453  _doctor */\n      dup12\n        /* \"contracts/ddddd.sol\":4435:4454  isApproved[_doctor] */\n      0xffffffffffffffffffffffffffffffffffffffff\n      and\n      0xffffffffffffffffffffffffffffffffffffffff\n      and\n      dup2\n      mstore\n      0x20\n      add\n      swap1\n      dup2\n      mstore\n      0x20\n      add\n      0x0\n      keccak256\n        /* \"contracts/ddddd.sol\":4435:4463  isApproved[_doctor][_doctor] */\n      0x0\n        /* \"contracts/ddddd.sol\":4455:4462  _doctor */\n      dup12\n        /* \"contracts/ddddd.sol\":4435:4463  isApproved[_doctor][_doctor] */\n      0xffffffffffffffffffffffffffffffffffffffff\n      and\n      0xffffffffffffffffffffffffffffffffffffffff\n      and\n      dup2\n      mstore\n      0x20\n      add\n      swap1\n      dup2\n      mstore\n      0x20\n      add\n      0x0\n      keccak256\n      0x0\n        /* \"contracts/ddddd.sol\":4435:4470  isApproved[_doctor][_doctor] = true */\n      0x100\n      exp\n      dup2\n      sload\n      dup2\n      0xff\n      mul\n      not\n      and\n      swap1\n      dup4\n      iszero\n      iszero\n      mul\n      or\n      swap1\n      sstore\n      pop\n        /* \"contracts/ddddd.sol\":4514:4518  true */\n      0x1\n        /* \"contracts/ddddd.sol\":4481:4491  isApproved */\n      0x7\n        /* \"contracts/ddddd.sol\":4481:4500  isApproved[_doctor] */\n      0x0\n        /* \"contracts/ddddd.sol\":4492:4499  _doctor */\n      dup12\n        /* \"contracts/ddddd.sol\":4481:4500  isApproved[_doctor] */\n      0xffffffffffffffffffffffffffffffffffffffff\n      and\n      0xffffffffffffffffffffffffffffffffffffffff\n      and\n      dup2\n      mstore\n      0x20\n      add\n      swap1\n      dup2\n      mstore\n      0x20\n      add\n      0x0\n      keccak256\n        /* \"contracts/ddddd.sol\":4481:4511  isApproved[_doctor][mohAdress] */\n      0x0\n        /* \"contracts/ddddd.sol\":4501:4510  mohAdress */\n      0x10\n      0x0\n      swap1\n      sload\n      swap1\n      0x100\n      exp\n      swap1\n      div\n      0xffffffffffffffffffffffffffffffffffffffff\n      and\n        /* \"contracts/ddddd.sol\":4481:4511  isApproved[_doctor][mohAdress] */\n      0xffffffffffffffffffffffffffffffffffffffff\n      and\n      0xffffffffffffffffffffffffffffffffffffffff\n      and\n      dup2\n      mstore\n      0x20\n      add\n      swap1\n      dup2\n      mstore\n      0x20\n      add\n      0x0\n      keccak256\n      0x0\n        /* \"contracts/ddddd.sol\":4481:4518  isApproved[_doctor][mohAdress] = true */\n      0x100\n      exp\n      dup2\n      sload\n      dup2\n      0xff\n      mul\n      not\n      and\n      swap1\n      dup4\n      iszero\n      iszero\n      mul\n      or\n      swap1\n      sstore\n      pop\n        /* \"contracts/ddddd.sol\":4529:4540  doctorCount */\n      0xc\n      0x0\n        /* \"contracts/ddddd.sol\":4529:4542  doctorCount++ */\n      dup2\n      sload\n      dup1\n      swap3\n      swap2\n      swap1\n      0x1\n      add\n      swap2\n      swap1\n      pop\n      sstore\n      pop\n        /* \"contracts/ddddd.sol\":3783:4550  function doctorRegistration(address _doctor, string _uaeId, string _name, string _phone, string _gender, string _email, string _qualification, string _major) public {\r... */\n      pop\n      pop\n      pop\n      pop\n      pop\n      pop\n      pop\n      pop\n      pop\n      jump\t// out\n        /* \"contracts/ddddd.sol\":6345:6536  function givePermissionByUser(address _address) public returns(bool success) {\r... */\n    tag_72:\n        /* \"contracts/ddddd.sol\":6408:6420  bool success */\n      0x0\n        /* \"contracts/ddddd.sol\":6468:6472  true */\n      0x1\n        /* \"contracts/ddddd.sol\":6433:6443  isApproved */\n      0x7\n        /* \"contracts/ddddd.sol\":6433:6455  isApproved[msg.sender] */\n      0x0\n        /* \"contracts/ddddd.sol\":6444:6454  msg.sender */\n      caller\n        /* \"contracts/ddddd.sol\":6433:6455  isApproved[msg.sender] */\n      0xffffffffffffffffffffffffffffffffffffffff\n      and\n      0xffffffffffffffffffffffffffffffffffffffff\n      and\n      dup2\n      mstore\n      0x20\n      add\n      swap1\n      dup2\n      mstore\n      0x20\n      add\n      0x0\n      keccak256\n        /* \"contracts/ddddd.sol\":6433:6465  isApproved[msg.sender][_address] */\n      0x0\n        /* \"contracts/ddddd.sol\":6456:6464  _address */\n      dup5\n        /* \"contracts/ddddd.sol\":6433:6465  isApproved[msg.sender][_address] */\n      0xffffffffffffffffffffffffffffffffffffffff\n      and\n      0xffffffffffffffffffffffffffffffffffffffff\n      and\n      dup2\n      mstore\n      0x20\n      add\n      swap1\n      dup2\n      mstore\n      0x20\n      add\n      0x0\n      keccak256\n      0x0\n        /* \"contracts/ddddd.sol\":6433:6472  isApproved[msg.sender][_address] = true */\n      0x100\n      exp\n      dup2\n      sload\n      dup2\n      0xff\n      mul\n      not\n      and\n      swap1\n      dup4\n      iszero\n      iszero\n      mul\n      or\n      swap1\n      sstore\n      pop\n        /* \"contracts/ddddd.sol\":6483:6504  userPermissionCounter */\n      0xe\n      0x0\n        /* \"contracts/ddddd.sol\":6483:6506  userPermissionCounter++ */\n      dup2\n      sload\n      dup1\n      swap3\n      swap2\n      swap1\n      0x1\n      add\n      swap2\n      swap1\n      pop\n      sstore\n      pop\n        /* \"contracts/ddddd.sol\":6524:6528  true */\n      0x1\n        /* \"contracts/ddddd.sol\":6517:6528  return true */\n      swap1\n      pop\n        /* \"contracts/ddddd.sol\":6345:6536  function givePermissionByUser(address _address) public returns(bool success) {\r... */\n      swap2\n      swap1\n      pop\n      jump\t// out\n        /* \"contracts/ddddd.sol\":5091:5983  function createVaccineRecord(address _address1, address _doctor, string _name, string _vaccine, string _description, string _typeOfVaccine, uint _creationDate) public returns(bool success) {\r... */\n    tag_79:\n        /* \"contracts/ddddd.sol\":5266:5278  bool success */\n      0x0\n        /* \"contracts/ddddd.sol\":5495:5500  var v */\n      dup1\n        /* \"contracts/ddddd.sol\":5313:5322  mohAdress */\n      0x10\n      0x0\n      swap1\n      sload\n      swap1\n      0x100\n      exp\n      swap1\n      div\n      0xffffffffffffffffffffffffffffffffffffffff\n      and\n        /* \"contracts/ddddd.sol\":5299:5322  msg.sender == mohAdress */\n      0xffffffffffffffffffffffffffffffffffffffff\n      and\n        /* \"contracts/ddddd.sol\":5299:5309  msg.sender */\n      caller\n        /* \"contracts/ddddd.sol\":5299:5322  msg.sender == mohAdress */\n      0xffffffffffffffffffffffffffffffffffffffff\n      and\n      eq\n        /* \"contracts/ddddd.sol\":5291:5323  require(msg.sender == mohAdress) */\n      iszero\n      iszero\n      tag_229\n      jumpi\n      0x0\n      dup1\n      revert\n    tag_229:\n        /* \"contracts/ddddd.sol\":5463:5472  isVaccine */\n      0xa\n        /* \"contracts/ddddd.sol\":5463:5483  isVaccine[_address1] */\n      0x0\n        /* \"contracts/ddddd.sol\":5473:5482  _address1 */\n      dup11\n        /* \"contracts/ddddd.sol\":5463:5483  isVaccine[_address1] */\n      0xffffffffffffffffffffffffffffffffffffffff\n      and\n      0xffffffffffffffffffffffffffffffffffffffff\n      and\n      dup2\n      mstore\n      0x20\n      add\n      swap1\n      dup2\n      mstore\n      0x20\n      add\n      0x0\n      keccak256\n      0x0\n      swap1\n      sload\n      swap1\n      0x100\n      exp\n      swap1\n      div\n      0xff\n      and\n        /* \"contracts/ddddd.sol\":5462:5483  !isVaccine[_address1] */\n      iszero\n        /* \"contracts/ddddd.sol\":5454:5484  require(!isVaccine[_address1]) */\n      iszero\n      iszero\n      tag_230\n      jumpi\n      0x0\n      dup1\n      revert\n    tag_230:\n        /* \"contracts/ddddd.sol\":5503:5514  vaccination */\n      0x6\n        /* \"contracts/ddddd.sol\":5503:5525  vaccination[_address1] */\n      0x0\n        /* \"contracts/ddddd.sol\":5515:5524  _address1 */\n      dup11\n        /* \"contracts/ddddd.sol\":5503:5525  vaccination[_address1] */\n      0xffffffffffffffffffffffffffffffffffffffff\n      and\n      0xffffffffffffffffffffffffffffffffffffffff\n      and\n      dup2\n      mstore\n      0x20\n      add\n      swap1\n      dup2\n      mstore\n      0x20\n      add\n      0x0\n      keccak256\n        /* \"contracts/ddddd.sol\":5495:5525  var v = vaccination[_address1] */\n      swap1\n      pop\n        /* \"contracts/ddddd.sol\":5547:5552  _name */\n      dup7\n        /* \"contracts/ddddd.sol\":5538:5539  v */\n      dup2\n        /* \"contracts/ddddd.sol\":5538:5544  v.name */\n      0x0\n      add\n        /* \"contracts/ddddd.sol\":5538:5552  v.name = _name */\n      swap1\n      dup1\n      mload\n      swap1\n      0x20\n      add\n      swap1\n      tag_231\n      swap3\n      swap2\n      swap1\n      jump\t// in(tag_209)\n    tag_231:\n      pop\n        /* \"contracts/ddddd.sol\":5575:5583  _vaccine */\n      dup6\n        /* \"contracts/ddddd.sol\":5563:5564  v */\n      dup2\n        /* \"contracts/ddddd.sol\":5563:5572  v.vaccine */\n      0x1\n      add\n        /* \"contracts/ddddd.sol\":5563:5583  v.vaccine = _vaccine */\n      swap1\n      dup1\n      mload\n      swap1\n      0x20\n      add\n      swap1\n      tag_232\n      swap3\n      swap2\n      swap1\n      jump\t// in(tag_209)\n    tag_232:\n      pop\n        /* \"contracts/ddddd.sol\":5610:5622  _description */\n      dup5\n        /* \"contracts/ddddd.sol\":5594:5595  v */\n      dup2\n        /* \"contracts/ddddd.sol\":5594:5607  v.description */\n      0x2\n      add\n        /* \"contracts/ddddd.sol\":5594:5622  v.description = _description */\n      swap1\n      dup1\n      mload\n      swap1\n      0x20\n      add\n      swap1\n      tag_233\n      swap3\n      swap2\n      swap1\n      jump\t// in(tag_209)\n    tag_233:\n      pop\n        /* \"contracts/ddddd.sol\":5651:5665  _typeOfVaccine */\n      dup4\n        /* \"contracts/ddddd.sol\":5633:5634  v */\n      dup2\n        /* \"contracts/ddddd.sol\":5633:5648  v.typeOfVaccine */\n      0x3\n      add\n        /* \"contracts/ddddd.sol\":5633:5665  v.typeOfVaccine = _typeOfVaccine */\n      swap1\n      dup1\n      mload\n      swap1\n      0x20\n      add\n      swap1\n      tag_234\n      swap3\n      swap2\n      swap1\n      jump\t// in(tag_209)\n    tag_234:\n      pop\n        /* \"contracts/ddddd.sol\":5806:5819  _creationDate */\n      dup3\n        /* \"contracts/ddddd.sol\":5789:5790  v */\n      dup2\n        /* \"contracts/ddddd.sol\":5789:5803  v.creationDate */\n      0x4\n      add\n        /* \"contracts/ddddd.sol\":5789:5819  v.creationDate = _creationDate */\n      dup2\n      swap1\n      sstore\n      pop\n        /* \"contracts/ddddd.sol\":5847:5856  _address1 */\n      dup9\n        /* \"contracts/ddddd.sol\":5830:5831  v */\n      dup2\n        /* \"contracts/ddddd.sol\":5830:5844  v.userEadderss */\n      0x5\n      add\n      0x0\n        /* \"contracts/ddddd.sol\":5830:5856  v.userEadderss = _address1 */\n      0x100\n      exp\n      dup2\n      sload\n      dup2\n      0xffffffffffffffffffffffffffffffffffffffff\n      mul\n      not\n      and\n      swap1\n      dup4\n      0xffffffffffffffffffffffffffffffffffffffff\n      and\n      mul\n      or\n      swap1\n      sstore\n      pop\n        /* \"contracts/ddddd.sol\":5886:5893  _doctor */\n      dup8\n        /* \"contracts/ddddd.sol\":5867:5868  v */\n      dup2\n        /* \"contracts/ddddd.sol\":5867:5883  v.doctorEaddress */\n      0x6\n      add\n      0x0\n        /* \"contracts/ddddd.sol\":5867:5893  v.doctorEaddress = _doctor */\n      0x100\n      exp\n      dup2\n      sload\n      dup2\n      0xffffffffffffffffffffffffffffffffffffffff\n      mul\n      not\n      and\n      swap1\n      dup4\n      0xffffffffffffffffffffffffffffffffffffffff\n      and\n      mul\n      or\n      swap1\n      sstore\n      pop\n        /* \"contracts/ddddd.sol\":5906:5921  vaccinationList */\n      0x3\n        /* \"contracts/ddddd.sol\":5927:5936  _address1 */\n      dup10\n        /* \"contracts/ddddd.sol\":5906:5937  vaccinationList.push(_address1) */\n      swap1\n      dup1\n        /* \"--CODEGEN--\":39:40   */\n      0x1\n        /* \"--CODEGEN--\":33:36   */\n      dup2\n        /* \"--CODEGEN--\":27:37   */\n      sload\n        /* \"--CODEGEN--\":23:41   */\n      add\n        /* \"--CODEGEN--\":57:67   */\n      dup1\n        /* \"--CODEGEN--\":52:55   */\n      dup3\n        /* \"--CODEGEN--\":45:68   */\n      sstore\n        /* \"--CODEGEN--\":79:89   */\n      dup1\n        /* \"--CODEGEN--\":72:89   */\n      swap2\n      pop\n        /* \"--CODEGEN--\":0:93   */\n      pop\n        /* \"contracts/ddddd.sol\":5906:5937  vaccinationList.push(_address1) */\n      swap1\n      0x1\n      dup3\n      sub\n      swap1\n      0x0\n      mstore\n      keccak256(0x0, 0x20)\n      add\n      0x0\n      swap1\n      swap2\n      swap3\n      swap1\n      swap2\n      swap1\n      swap2\n      0x100\n      exp\n      dup2\n      sload\n      dup2\n      0xffffffffffffffffffffffffffffffffffffffff\n      mul\n      not\n      and\n      swap1\n      dup4\n      0xffffffffffffffffffffffffffffffffffffffff\n      and\n      mul\n      or\n      swap1\n      sstore\n      pop\n      pop\n        /* \"contracts/ddddd.sol\":5948:5973  vaccinationRecordsCounter */\n      0xf\n      0x0\n        /* \"contracts/ddddd.sol\":5948:5975  vaccinationRecordsCounter++ */\n      dup2\n      sload\n      dup1\n      swap3\n      swap2\n      swap1\n      0x1\n      add\n      swap2\n      swap1\n      pop\n      sstore\n      pop\n        /* \"contracts/ddddd.sol\":5091:5983  function createVaccineRecord(address _address1, address _doctor, string _name, string _vaccine, string _description, string _typeOfVaccine, uint _creationDate) public returns(bool success) {\r... */\n      pop\n      swap8\n      swap7\n      pop\n      pop\n      pop\n      pop\n      pop\n      pop\n      pop\n      jump\t// out\n        /* \"contracts/ddddd.sol\":6806:6964  function userRevokePermission(address _address) public returns(bool success) {\r... */\n    tag_84:\n        /* \"contracts/ddddd.sol\":6869:6881  bool success */\n      0x0\n        /* \"contracts/ddddd.sol\":6929:6934  false */\n      dup1\n        /* \"contracts/ddddd.sol\":6894:6904  isApproved */\n      0x7\n        /* \"contracts/ddddd.sol\":6894:6916  isApproved[msg.sender] */\n      0x0\n        /* \"contracts/ddddd.sol\":6905:6915  msg.sender */\n      caller\n        /* \"contracts/ddddd.sol\":6894:6916  isApproved[msg.sender] */\n      0xffffffffffffffffffffffffffffffffffffffff\n      and\n      0xffffffffffffffffffffffffffffffffffffffff\n      and\n      dup2\n      mstore\n      0x20\n      add\n      swap1\n      dup2\n      mstore\n      0x20\n      add\n      0x0\n      keccak256\n        /* \"contracts/ddddd.sol\":6894:6926  isApproved[msg.sender][_address] */\n      0x0\n        /* \"contracts/ddddd.sol\":6917:6925  _address */\n      dup5\n        /* \"contracts/ddddd.sol\":6894:6926  isApproved[msg.sender][_address] */\n      0xffffffffffffffffffffffffffffffffffffffff\n      and\n      0xffffffffffffffffffffffffffffffffffffffff\n      and\n      dup2\n      mstore\n      0x20\n      add\n      swap1\n      dup2\n      mstore\n      0x20\n      add\n      0x0\n      keccak256\n      0x0\n        /* \"contracts/ddddd.sol\":6894:6934  isApproved[msg.sender][_address] = false */\n      0x100\n      exp\n      dup2\n      sload\n      dup2\n      0xff\n      mul\n      not\n      and\n      swap1\n      dup4\n      iszero\n      iszero\n      mul\n      or\n      swap1\n      sstore\n      pop\n        /* \"contracts/ddddd.sol\":6952:6956  true */\n      0x1\n        /* \"contracts/ddddd.sol\":6945:6956  return true */\n      swap1\n      pop\n        /* \"contracts/ddddd.sol\":6806:6964  function userRevokePermission(address _address) public returns(bool success) {\r... */\n      swap2\n      swap1\n      pop\n      jump\t// out\n        /* \"contracts/ddddd.sol\":2033:3142  function userRegistration(address _user, string _uaeId, string _name, string _phone, string _gender, string _dob, string _addr, string _email, string _nomineeName, string _nomineeContact) public {\r... */\n    tag_90:\n        /* \"contracts/ddddd.sol\":2316:2321  var u */\n      0x0\n        /* \"contracts/ddddd.sol\":2261:2270  mohAdress */\n      0x10\n      0x0\n      swap1\n      sload\n      swap1\n      0x100\n      exp\n      swap1\n      div\n      0xffffffffffffffffffffffffffffffffffffffff\n      and\n        /* \"contracts/ddddd.sol\":2247:2270  msg.sender == mohAdress */\n      0xffffffffffffffffffffffffffffffffffffffff\n      and\n        /* \"contracts/ddddd.sol\":2247:2257  msg.sender */\n      caller\n        /* \"contracts/ddddd.sol\":2247:2270  msg.sender == mohAdress */\n      0xffffffffffffffffffffffffffffffffffffffff\n      and\n      eq\n        /* \"contracts/ddddd.sol\":2239:2271  require(msg.sender == mohAdress) */\n      iszero\n      iszero\n      tag_238\n      jumpi\n      0x0\n      dup1\n      revert\n    tag_238:\n        /* \"contracts/ddddd.sol\":2291:2297  isUser */\n      0x8\n        /* \"contracts/ddddd.sol\":2291:2304  isUser[_user] */\n      0x0\n        /* \"contracts/ddddd.sol\":2298:2303  _user */\n      dup13\n        /* \"contracts/ddddd.sol\":2291:2304  isUser[_user] */\n      0xffffffffffffffffffffffffffffffffffffffff\n      and\n      0xffffffffffffffffffffffffffffffffffffffff\n      and\n      dup2\n      mstore\n      0x20\n      add\n      swap1\n      dup2\n      mstore\n      0x20\n      add\n      0x0\n      keccak256\n      0x0\n      swap1\n      sload\n      swap1\n      0x100\n      exp\n      swap1\n      div\n      0xff\n      and\n        /* \"contracts/ddddd.sol\":2290:2304  !isUser[_user] */\n      iszero\n        /* \"contracts/ddddd.sol\":2282:2305  require(!isUser[_user]) */\n      iszero\n      iszero\n      tag_239\n      jumpi\n      0x0\n      dup1\n      revert\n    tag_239:\n        /* \"contracts/ddddd.sol\":2324:2328  user */\n      0x4\n        /* \"contracts/ddddd.sol\":2324:2335  user[_user] */\n      0x0\n        /* \"contracts/ddddd.sol\":2329:2334  _user */\n      dup13\n        /* \"contracts/ddddd.sol\":2324:2335  user[_user] */\n      0xffffffffffffffffffffffffffffffffffffffff\n      and\n      0xffffffffffffffffffffffffffffffffffffffff\n      and\n      dup2\n      mstore\n      0x20\n      add\n      swap1\n      dup2\n      mstore\n      0x20\n      add\n      0x0\n      keccak256\n        /* \"contracts/ddddd.sol\":2316:2335  var u = user[_user] */\n      swap1\n      pop\n        /* \"contracts/ddddd.sol\":2366:2372  _uaeId */\n      dup10\n        /* \"contracts/ddddd.sol\":2356:2357  u */\n      dup2\n        /* \"contracts/ddddd.sol\":2356:2363  u.uaeId */\n      0x0\n      add\n        /* \"contracts/ddddd.sol\":2356:2372  u.uaeId = _uaeId */\n      swap1\n      dup1\n      mload\n      swap1\n      0x20\n      add\n      swap1\n      tag_240\n      swap3\n      swap2\n      swap1\n      jump\t// in(tag_209)\n    tag_240:\n      pop\n        /* \"contracts/ddddd.sol\":2392:2397  _name */\n      dup9\n        /* \"contracts/ddddd.sol\":2383:2384  u */\n      dup2\n        /* \"contracts/ddddd.sol\":2383:2389  u.name */\n      0x1\n      add\n        /* \"contracts/ddddd.sol\":2383:2397  u.name = _name */\n      swap1\n      dup1\n      mload\n      swap1\n      0x20\n      add\n      swap1\n      tag_241\n      swap3\n      swap2\n      swap1\n      jump\t// in(tag_209)\n    tag_241:\n      pop\n        /* \"contracts/ddddd.sol\":2418:2424  _phone */\n      dup8\n        /* \"contracts/ddddd.sol\":2408:2409  u */\n      dup2\n        /* \"contracts/ddddd.sol\":2408:2415  u.phone */\n      0x2\n      add\n        /* \"contracts/ddddd.sol\":2408:2424  u.phone = _phone */\n      swap1\n      dup1\n      mload\n      swap1\n      0x20\n      add\n      swap1\n      tag_242\n      swap3\n      swap2\n      swap1\n      jump\t// in(tag_209)\n    tag_242:\n      pop\n        /* \"contracts/ddddd.sol\":2446:2453  _gender */\n      dup7\n        /* \"contracts/ddddd.sol\":2435:2436  u */\n      dup2\n        /* \"contracts/ddddd.sol\":2435:2443  u.gender */\n      0x3\n      add\n        /* \"contracts/ddddd.sol\":2435:2453  u.gender = _gender */\n      swap1\n      dup1\n      mload\n      swap1\n      0x20\n      add\n      swap1\n      tag_243\n      swap3\n      swap2\n      swap1\n      jump\t// in(tag_209)\n    tag_243:\n      pop\n        /* \"contracts/ddddd.sol\":2472:2476  _dob */\n      dup6\n        /* \"contracts/ddddd.sol\":2464:2465  u */\n      dup2\n        /* \"contracts/ddddd.sol\":2464:2469  u.dob */\n      0x4\n      add\n        /* \"contracts/ddddd.sol\":2464:2476  u.dob = _dob */\n      swap1\n      dup1\n      mload\n      swap1\n      0x20\n      add\n      swap1\n      tag_244\n      swap3\n      swap2\n      swap1\n      jump\t// in(tag_209)\n    tag_244:\n      pop\n        /* \"contracts/ddddd.sol\":2496:2501  _addr */\n      dup5\n        /* \"contracts/ddddd.sol\":2487:2488  u */\n      dup2\n        /* \"contracts/ddddd.sol\":2487:2493  u.addr */\n      0x5\n      add\n        /* \"contracts/ddddd.sol\":2487:2501  u.addr = _addr */\n      swap1\n      dup1\n      mload\n      swap1\n      0x20\n      add\n      swap1\n      tag_245\n      swap3\n      swap2\n      swap1\n      jump\t// in(tag_209)\n    tag_245:\n      pop\n        /* \"contracts/ddddd.sol\":2522:2528  _email */\n      dup4\n        /* \"contracts/ddddd.sol\":2512:2513  u */\n      dup2\n        /* \"contracts/ddddd.sol\":2512:2519  u.email */\n      0x6\n      add\n        /* \"contracts/ddddd.sol\":2512:2528  u.email = _email */\n      swap1\n      dup1\n      mload\n      swap1\n      0x20\n      add\n      swap1\n      tag_246\n      swap3\n      swap2\n      swap1\n      jump\t// in(tag_209)\n    tag_246:\n      pop\n        /* \"contracts/ddddd.sol\":2555:2567  _nomineeName */\n      dup3\n        /* \"contracts/ddddd.sol\":2539:2540  u */\n      dup2\n        /* \"contracts/ddddd.sol\":2539:2552  u.nomineeName */\n      0x7\n      add\n        /* \"contracts/ddddd.sol\":2539:2567  u.nomineeName = _nomineeName */\n      swap1\n      dup1\n      mload\n      swap1\n      0x20\n      add\n      swap1\n      tag_247\n      swap3\n      swap2\n      swap1\n      jump\t// in(tag_209)\n    tag_247:\n      pop\n        /* \"contracts/ddddd.sol\":2597:2612  _nomineeContact */\n      dup2\n        /* \"contracts/ddddd.sol\":2578:2579  u */\n      dup2\n        /* \"contracts/ddddd.sol\":2578:2594  u.nomineeContact */\n      0x8\n      add\n        /* \"contracts/ddddd.sol\":2578:2612  u.nomineeContact = _nomineeContact */\n      swap1\n      dup1\n      mload\n      swap1\n      0x20\n      add\n      swap1\n      tag_248\n      swap3\n      swap2\n      swap1\n      jump\t// in(tag_209)\n    tag_248:\n      pop\n        /* \"contracts/ddddd.sol\":2636:2641  _user */\n      dup11\n        /* \"contracts/ddddd.sol\":2623:2624  u */\n      dup2\n        /* \"contracts/ddddd.sol\":2623:2633  u.eAddress */\n      0x9\n      add\n      0x0\n        /* \"contracts/ddddd.sol\":2623:2641  u.eAddress = _user */\n      0x100\n      exp\n      dup2\n      sload\n      dup2\n      0xffffffffffffffffffffffffffffffffffffffff\n      mul\n      not\n      and\n      swap1\n      dup4\n      0xffffffffffffffffffffffffffffffffffffffff\n      and\n      mul\n      or\n      swap1\n      sstore\n      pop\n        /* \"contracts/ddddd.sol\":2661:2676  block.timestamp */\n      timestamp\n        /* \"contracts/ddddd.sol\":2652:2653  u */\n      dup2\n        /* \"contracts/ddddd.sol\":2652:2658  u.date */\n      0xa\n      add\n        /* \"contracts/ddddd.sol\":2652:2676  u.date = block.timestamp */\n      dup2\n      swap1\n      sstore\n      pop\n        /* \"contracts/ddddd.sol\":2697:2705  userList */\n      0x1\n        /* \"contracts/ddddd.sol\":2711:2716  _user */\n      dup12\n        /* \"contracts/ddddd.sol\":2697:2717  userList.push(_user) */\n      swap1\n      dup1\n        /* \"--CODEGEN--\":39:40   */\n      0x1\n        /* \"--CODEGEN--\":33:36   */\n      dup2\n        /* \"--CODEGEN--\":27:37   */\n      sload\n        /* \"--CODEGEN--\":23:41   */\n      add\n        /* \"--CODEGEN--\":57:67   */\n      dup1\n        /* \"--CODEGEN--\":52:55   */\n      dup3\n        /* \"--CODEGEN--\":45:68   */\n      sstore\n        /* \"--CODEGEN--\":79:89   */\n      dup1\n        /* \"--CODEGEN--\":72:89   */\n      swap2\n      pop\n        /* \"--CODEGEN--\":0:93   */\n      pop\n        /* \"contracts/ddddd.sol\":2697:2717  userList.push(_user) */\n      swap1\n      0x1\n      dup3\n      sub\n      swap1\n      0x0\n      mstore\n      keccak256(0x0, 0x20)\n      add\n      0x0\n      swap1\n      swap2\n      swap3\n      swap1\n      swap2\n      swap1\n      swap2\n      0x100\n      exp\n      dup2\n      sload\n      dup2\n      0xffffffffffffffffffffffffffffffffffffffff\n      mul\n      not\n      and\n      swap1\n      dup4\n      0xffffffffffffffffffffffffffffffffffffffff\n      and\n      mul\n      or\n      swap1\n      sstore\n      pop\n      pop\n        /* \"contracts/ddddd.sol\":2744:2748  true */\n      0x1\n        /* \"contracts/ddddd.sol\":2728:2734  isUser */\n      0x8\n        /* \"contracts/ddddd.sol\":2728:2741  isUser[_user] */\n      0x0\n        /* \"contracts/ddddd.sol\":2735:2740  _user */\n      dup14\n        /* \"contracts/ddddd.sol\":2728:2741  isUser[_user] */\n      0xffffffffffffffffffffffffffffffffffffffff\n      and\n      0xffffffffffffffffffffffffffffffffffffffff\n      and\n      dup2\n      mstore\n      0x20\n      add\n      swap1\n      dup2\n      mstore\n      0x20\n      add\n      0x0\n      keccak256\n      0x0\n        /* \"contracts/ddddd.sol\":2728:2748  isUser[_user] = true */\n      0x100\n      exp\n      dup2\n      sload\n      dup2\n      0xff\n      mul\n      not\n      and\n      swap1\n      dup4\n      iszero\n      iszero\n      mul\n      or\n      swap1\n      sstore\n      pop\n        /* \"contracts/ddddd.sol\":2786:2790  true */\n      0x1\n        /* \"contracts/ddddd.sol\":2759:2769  isApproved */\n      0x7\n        /* \"contracts/ddddd.sol\":2759:2776  isApproved[_user] */\n      0x0\n        /* \"contracts/ddddd.sol\":2770:2775  _user */\n      dup14\n        /* \"contracts/ddddd.sol\":2759:2776  isApproved[_user] */\n      0xffffffffffffffffffffffffffffffffffffffff\n      and\n      0xffffffffffffffffffffffffffffffffffffffff\n      and\n      dup2\n      mstore\n      0x20\n      add\n      swap1\n      dup2\n      mstore\n      0x20\n      add\n      0x0\n      keccak256\n        /* \"contracts/ddddd.sol\":2759:2783  isApproved[_user][_user] */\n      0x0\n        /* \"contracts/ddddd.sol\":2777:2782  _user */\n      dup14\n        /* \"contracts/ddddd.sol\":2759:2783  isApproved[_user][_user] */\n      0xffffffffffffffffffffffffffffffffffffffff\n      and\n      0xffffffffffffffffffffffffffffffffffffffff\n      and\n      dup2\n      mstore\n      0x20\n      add\n      swap1\n      dup2\n      mstore\n      0x20\n      add\n      0x0\n      keccak256\n      0x0\n        /* \"contracts/ddddd.sol\":2759:2790  isApproved[_user][_user] = true */\n      0x100\n      exp\n      dup2\n      sload\n      dup2\n      0xff\n      mul\n      not\n      and\n      swap1\n      dup4\n      iszero\n      iszero\n      mul\n      or\n      swap1\n      sstore\n      pop\n        /* \"contracts/ddddd.sol\":2832:2836  true */\n      0x1\n        /* \"contracts/ddddd.sol\":2801:2811  isApproved */\n      0x7\n        /* \"contracts/ddddd.sol\":2801:2818  isApproved[_user] */\n      0x0\n        /* \"contracts/ddddd.sol\":2812:2817  _user */\n      dup14\n        /* \"contracts/ddddd.sol\":2801:2818  isApproved[_user] */\n      0xffffffffffffffffffffffffffffffffffffffff\n      and\n      0xffffffffffffffffffffffffffffffffffffffff\n      and\n      dup2\n      mstore\n      0x20\n      add\n      swap1\n      dup2\n      mstore\n      0x20\n      add\n      0x0\n      keccak256\n        /* \"contracts/ddddd.sol\":2801:2829  isApproved[_user][mohAdress] */\n      0x0\n        /* \"contracts/ddddd.sol\":2819:2828  mohAdress */\n      0x10\n      0x0\n      swap1\n      sload\n      swap1\n      0x100\n      exp\n      swap1\n      div\n      0xffffffffffffffffffffffffffffffffffffffff\n      and\n        /* \"contracts/ddddd.sol\":2801:2829  isApproved[_user][mohAdress] */\n      0xffffffffffffffffffffffffffffffffffffffff\n      and\n      0xffffffffffffffffffffffffffffffffffffffff\n      and\n      dup2\n      mstore\n      0x20\n      add\n      swap1\n      dup2\n      mstore\n      0x20\n      add\n      0x0\n      keccak256\n      0x0\n        /* \"contracts/ddddd.sol\":2801:2836  isApproved[_user][mohAdress] = true */\n      0x100\n      exp\n      dup2\n      sload\n      dup2\n      0xff\n      mul\n      not\n      and\n      swap1\n      dup4\n      iszero\n      iszero\n      mul\n      or\n      swap1\n      sstore\n      pop\n        /* \"contracts/ddddd.sol\":2847:2856  userCount */\n      0xb\n      0x0\n        /* \"contracts/ddddd.sol\":2847:2858  userCount++ */\n      dup2\n      sload\n      dup1\n      swap3\n      swap2\n      swap1\n      0x1\n      add\n      swap2\n      swap1\n      pop\n      sstore\n      pop\n        /* \"contracts/ddddd.sol\":2033:3142  function userRegistration(address _user, string _uaeId, string _name, string _phone, string _gender, string _dob, string _addr, string _email, string _nomineeName, string _nomineeContact) public {\r... */\n      pop\n      pop\n      pop\n      pop\n      pop\n      pop\n      pop\n      pop\n      pop\n      pop\n      pop\n      jump\t// out\n        /* \"contracts/ddddd.sol\":3166:3775  function editUser(address _user, string _uaeId, string _name, string _phone, string _gender, string _dob, string _addr, string _email, string _nomineeName, string _nomineeContact) public {\r... */\n    tag_94:\n        /* \"contracts/ddddd.sol\":3440:3445  var u */\n      0x0\n        /* \"contracts/ddddd.sol\":3386:3395  mohAdress */\n      0x10\n      0x0\n      swap1\n      sload\n      swap1\n      0x100\n      exp\n      swap1\n      div\n      0xffffffffffffffffffffffffffffffffffffffff\n      and\n        /* \"contracts/ddddd.sol\":3372:3395  msg.sender == mohAdress */\n      0xffffffffffffffffffffffffffffffffffffffff\n      and\n        /* \"contracts/ddddd.sol\":3372:3382  msg.sender */\n      caller\n        /* \"contracts/ddddd.sol\":3372:3395  msg.sender == mohAdress */\n      0xffffffffffffffffffffffffffffffffffffffff\n      and\n      eq\n        /* \"contracts/ddddd.sol\":3364:3396  require(msg.sender == mohAdress) */\n      iszero\n      iszero\n      tag_251\n      jumpi\n      0x0\n      dup1\n      revert\n    tag_251:\n        /* \"contracts/ddddd.sol\":3415:3421  isUser */\n      0x8\n        /* \"contracts/ddddd.sol\":3415:3428  isUser[_user] */\n      0x0\n        /* \"contracts/ddddd.sol\":3422:3427  _user */\n      dup13\n        /* \"contracts/ddddd.sol\":3415:3428  isUser[_user] */\n      0xffffffffffffffffffffffffffffffffffffffff\n      and\n      0xffffffffffffffffffffffffffffffffffffffff\n      and\n      dup2\n      mstore\n      0x20\n      add\n      swap1\n      dup2\n      mstore\n      0x20\n      add\n      0x0\n      keccak256\n      0x0\n      swap1\n      sload\n      swap1\n      0x100\n      exp\n      swap1\n      div\n      0xff\n      and\n        /* \"contracts/ddddd.sol\":3407:3429  require(isUser[_user]) */\n      iszero\n      iszero\n      tag_252\n      jumpi\n      0x0\n      dup1\n      revert\n    tag_252:\n        /* \"contracts/ddddd.sol\":3448:3452  user */\n      0x4\n        /* \"contracts/ddddd.sol\":3448:3459  user[_user] */\n      0x0\n        /* \"contracts/ddddd.sol\":3453:3458  _user */\n      dup13\n        /* \"contracts/ddddd.sol\":3448:3459  user[_user] */\n      0xffffffffffffffffffffffffffffffffffffffff\n      and\n      0xffffffffffffffffffffffffffffffffffffffff\n      and\n      dup2\n      mstore\n      0x20\n      add\n      swap1\n      dup2\n      mstore\n      0x20\n      add\n      0x0\n      keccak256\n        /* \"contracts/ddddd.sol\":3440:3459  var u = user[_user] */\n      swap1\n      pop\n        /* \"contracts/ddddd.sol\":3490:3496  _uaeId */\n      dup10\n        /* \"contracts/ddddd.sol\":3480:3481  u */\n      dup2\n        /* \"contracts/ddddd.sol\":3480:3487  u.uaeId */\n      0x0\n      add\n        /* \"contracts/ddddd.sol\":3480:3496  u.uaeId = _uaeId */\n      swap1\n      dup1\n      mload\n      swap1\n      0x20\n      add\n      swap1\n      tag_253\n      swap3\n      swap2\n      swap1\n      jump\t// in(tag_209)\n    tag_253:\n      pop\n        /* \"contracts/ddddd.sol\":3516:3521  _name */\n      dup9\n        /* \"contracts/ddddd.sol\":3507:3508  u */\n      dup2\n        /* \"contracts/ddddd.sol\":3507:3513  u.name */\n      0x1\n      add\n        /* \"contracts/ddddd.sol\":3507:3521  u.name = _name */\n      swap1\n      dup1\n      mload\n      swap1\n      0x20\n      add\n      swap1\n      tag_254\n      swap3\n      swap2\n      swap1\n      jump\t// in(tag_209)\n    tag_254:\n      pop\n        /* \"contracts/ddddd.sol\":3542:3548  _phone */\n      dup8\n        /* \"contracts/ddddd.sol\":3532:3533  u */\n      dup2\n        /* \"contracts/ddddd.sol\":3532:3539  u.phone */\n      0x2\n      add\n        /* \"contracts/ddddd.sol\":3532:3548  u.phone = _phone */\n      swap1\n      dup1\n      mload\n      swap1\n      0x20\n      add\n      swap1\n      tag_255\n      swap3\n      swap2\n      swap1\n      jump\t// in(tag_209)\n    tag_255:\n      pop\n        /* \"contracts/ddddd.sol\":3570:3577  _gender */\n      dup7\n        /* \"contracts/ddddd.sol\":3559:3560  u */\n      dup2\n        /* \"contracts/ddddd.sol\":3559:3567  u.gender */\n      0x3\n      add\n        /* \"contracts/ddddd.sol\":3559:3577  u.gender = _gender */\n      swap1\n      dup1\n      mload\n      swap1\n      0x20\n      add\n      swap1\n      tag_256\n      swap3\n      swap2\n      swap1\n      jump\t// in(tag_209)\n    tag_256:\n      pop\n        /* \"contracts/ddddd.sol\":3596:3600  _dob */\n      dup6\n        /* \"contracts/ddddd.sol\":3588:3589  u */\n      dup2\n        /* \"contracts/ddddd.sol\":3588:3593  u.dob */\n      0x4\n      add\n        /* \"contracts/ddddd.sol\":3588:3600  u.dob = _dob */\n      swap1\n      dup1\n      mload\n      swap1\n      0x20\n      add\n      swap1\n      tag_257\n      swap3\n      swap2\n      swap1\n      jump\t// in(tag_209)\n    tag_257:\n      pop\n        /* \"contracts/ddddd.sol\":3620:3625  _addr */\n      dup5\n        /* \"contracts/ddddd.sol\":3611:3612  u */\n      dup2\n        /* \"contracts/ddddd.sol\":3611:3617  u.addr */\n      0x5\n      add\n        /* \"contracts/ddddd.sol\":3611:3625  u.addr = _addr */\n      swap1\n      dup1\n      mload\n      swap1\n      0x20\n      add\n      swap1\n      tag_258\n      swap3\n      swap2\n      swap1\n      jump\t// in(tag_209)\n    tag_258:\n      pop\n        /* \"contracts/ddddd.sol\":3646:3652  _email */\n      dup4\n        /* \"contracts/ddddd.sol\":3636:3637  u */\n      dup2\n        /* \"contracts/ddddd.sol\":3636:3643  u.email */\n      0x6\n      add\n        /* \"contracts/ddddd.sol\":3636:3652  u.email = _email */\n      swap1\n      dup1\n      mload\n      swap1\n      0x20\n      add\n      swap1\n      tag_259\n      swap3\n      swap2\n      swap1\n      jump\t// in(tag_209)\n    tag_259:\n      pop\n        /* \"contracts/ddddd.sol\":3679:3691  _nomineeName */\n      dup3\n        /* \"contracts/ddddd.sol\":3663:3664  u */\n      dup2\n        /* \"contracts/ddddd.sol\":3663:3676  u.nomineeName */\n      0x7\n      add\n        /* \"contracts/ddddd.sol\":3663:3691  u.nomineeName = _nomineeName */\n      swap1\n      dup1\n      mload\n      swap1\n      0x20\n      add\n      swap1\n      tag_260\n      swap3\n      swap2\n      swap1\n      jump\t// in(tag_209)\n    tag_260:\n      pop\n        /* \"contracts/ddddd.sol\":3721:3736  _nomineeContact */\n      dup2\n        /* \"contracts/ddddd.sol\":3702:3703  u */\n      dup2\n        /* \"contracts/ddddd.sol\":3702:3718  u.nomineeContact */\n      0x8\n      add\n        /* \"contracts/ddddd.sol\":3702:3736  u.nomineeContact = _nomineeContact */\n      swap1\n      dup1\n      mload\n      swap1\n      0x20\n      add\n      swap1\n      tag_261\n      swap3\n      swap2\n      swap1\n      jump\t// in(tag_209)\n    tag_261:\n      pop\n        /* \"contracts/ddddd.sol\":3760:3765  _user */\n      dup11\n        /* \"contracts/ddddd.sol\":3747:3748  u */\n      dup2\n        /* \"contracts/ddddd.sol\":3747:3757  u.eAddress */\n      0x9\n      add\n      0x0\n        /* \"contracts/ddddd.sol\":3747:3765  u.eAddress = _user */\n      0x100\n      exp\n      dup2\n      sload\n      dup2\n      0xffffffffffffffffffffffffffffffffffffffff\n      mul\n      not\n      and\n      swap1\n      dup4\n      0xffffffffffffffffffffffffffffffffffffffff\n      and\n      mul\n      or\n      swap1\n      sstore\n      pop\n        /* \"contracts/ddddd.sol\":3166:3775  function editUser(address _user, string _uaeId, string _name, string _phone, string _gender, string _dob, string _addr, string _email, string _nomineeName, string _nomineeContact) public {\r... */\n      pop\n      pop\n      pop\n      pop\n      pop\n      pop\n      pop\n      pop\n      pop\n      pop\n      pop\n      jump\t// out\n        /* \"contracts/ddddd.sol\":1668:1698  uint256 public doctorCount = 0 */\n    tag_97:\n      sload(0xc)\n      dup2\n      jump\t// out\n        /* \"contracts/ddddd.sol\":8574:8666  function getDoctorCount() public view returns(uint256) {\r... */\n    tag_101:\n        /* \"contracts/ddddd.sol\":8620:8627  uint256 */\n      0x0\n        /* \"contracts/ddddd.sol\":8647:8658  doctorCount */\n      sload(0xc)\n        /* \"contracts/ddddd.sol\":8640:8658  return doctorCount */\n      swap1\n      pop\n        /* \"contracts/ddddd.sol\":8574:8666  function getDoctorCount() public view returns(uint256) {\r... */\n      swap1\n      jump\t// out\n        /* \"contracts/ddddd.sol\":8918:9224  function checkDoctor(address _address) public view returns(bool success) {\r... */\n    tag_106:\n        /* \"contracts/ddddd.sol\":8977:8989  bool success */\n      0x0\n        /* \"contracts/ddddd.sol\":9007:9013  uint i */\n      dup1\n        /* \"contracts/ddddd.sol\":9016:9017  0 */\n      0x0\n        /* \"contracts/ddddd.sol\":9007:9017  uint i = 0 */\n      swap1\n      pop\n        /* \"contracts/ddddd.sol\":9023:9033  doctorList */\n      0x2\n        /* \"contracts/ddddd.sol\":9023:9040  doctorList.length */\n      dup1\n      sload\n      swap1\n      pop\n        /* \"contracts/ddddd.sol\":9019:9020  i */\n      dup2\n        /* \"contracts/ddddd.sol\":9019:9040  i < doctorList.length */\n      lt\n        /* \"contracts/ddddd.sol\":9002:9217  for (uint i = 0; i < doctorList.length; i++) {\r... */\n      iszero\n      tag_265\n      jumpi\n        /* \"contracts/ddddd.sol\":9088:9092  true */\n      0x1\n        /* \"contracts/ddddd.sol\":9066:9092  isDoctor[_address] == true */\n      iszero\n      iszero\n        /* \"contracts/ddddd.sol\":9066:9074  isDoctor */\n      0x9\n        /* \"contracts/ddddd.sol\":9066:9084  isDoctor[_address] */\n      0x0\n        /* \"contracts/ddddd.sol\":9075:9083  _address */\n      dup6\n        /* \"contracts/ddddd.sol\":9066:9084  isDoctor[_address] */\n      0xffffffffffffffffffffffffffffffffffffffff\n      and\n      0xffffffffffffffffffffffffffffffffffffffff\n      and\n      dup2\n      mstore\n      0x20\n      add\n      swap1\n      dup2\n      mstore\n      0x20\n      add\n      0x0\n      keccak256\n      0x0\n      swap1\n      sload\n      swap1\n      0x100\n      exp\n      swap1\n      div\n      0xff\n      and\n        /* \"contracts/ddddd.sol\":9066:9092  isDoctor[_address] == true */\n      iszero\n      iszero\n      eq\n        /* \"contracts/ddddd.sol\":9062:9206  if (isDoctor[_address] == true) {\r... */\n      iszero\n      tag_267\n      jumpi\n        /* \"contracts/ddddd.sol\":9120:9124  true */\n      0x1\n        /* \"contracts/ddddd.sol\":9113:9124  return true */\n      swap2\n      pop\n      jump(tag_263)\n        /* \"contracts/ddddd.sol\":9062:9206  if (isDoctor[_address] == true) {\r... */\n    tag_267:\n        /* \"contracts/ddddd.sol\":9185:9190  false */\n      0x0\n        /* \"contracts/ddddd.sol\":9178:9190  return false */\n      swap2\n      pop\n      jump(tag_263)\n        /* \"contracts/ddddd.sol\":9002:9217  for (uint i = 0; i < doctorList.length; i++) {\r... */\n    tag_265:\n        /* \"contracts/ddddd.sol\":8918:9224  function checkDoctor(address _address) public view returns(bool success) {\r... */\n    tag_263:\n      pop\n      swap2\n      swap1\n      pop\n      jump\t// out\n        /* \"contracts/ddddd.sol\":5991:6335  function getVaccinationInfo(address _address) public view returns(string, string, string, string, uint256, address, address) {\r... */\n    tag_111:\n        /* \"contracts/ddddd.sol\":6057:6063  string */\n      0x60\n        /* \"contracts/ddddd.sol\":6065:6071  string */\n      dup1\n        /* \"contracts/ddddd.sol\":6073:6079  string */\n      0x60\n        /* \"contracts/ddddd.sol\":6081:6087  string */\n      dup1\n        /* \"contracts/ddddd.sol\":6089:6096  uint256 */\n      0x0\n        /* \"contracts/ddddd.sol\":6098:6105  address */\n      dup1\n        /* \"contracts/ddddd.sol\":6107:6114  address */\n      0x0\n        /* \"contracts/ddddd.sol\":6179:6184  var v */\n      dup1\n        /* \"contracts/ddddd.sol\":6135:6145  isApproved */\n      0x7\n        /* \"contracts/ddddd.sol\":6135:6155  isApproved[_address] */\n      0x0\n        /* \"contracts/ddddd.sol\":6146:6154  _address */\n      dup11\n        /* \"contracts/ddddd.sol\":6135:6155  isApproved[_address] */\n      0xffffffffffffffffffffffffffffffffffffffff\n      and\n      0xffffffffffffffffffffffffffffffffffffffff\n      and\n      dup2\n      mstore\n      0x20\n      add\n      swap1\n      dup2\n      mstore\n      0x20\n      add\n      0x0\n      keccak256\n        /* \"contracts/ddddd.sol\":6135:6167  isApproved[_address][msg.sender] */\n      0x0\n        /* \"contracts/ddddd.sol\":6156:6166  msg.sender */\n      caller\n        /* \"contracts/ddddd.sol\":6135:6167  isApproved[_address][msg.sender] */\n      0xffffffffffffffffffffffffffffffffffffffff\n      and\n      0xffffffffffffffffffffffffffffffffffffffff\n      and\n      dup2\n      mstore\n      0x20\n      add\n      swap1\n      dup2\n      mstore\n      0x20\n      add\n      0x0\n      keccak256\n      0x0\n      swap1\n      sload\n      swap1\n      0x100\n      exp\n      swap1\n      div\n      0xff\n      and\n        /* \"contracts/ddddd.sol\":6127:6168  require(isApproved[_address][msg.sender]) */\n      iszero\n      iszero\n      tag_270\n      jumpi\n      0x0\n      dup1\n      revert\n    tag_270:\n        /* \"contracts/ddddd.sol\":6187:6198  vaccination */\n      0x6\n        /* \"contracts/ddddd.sol\":6187:6208  vaccination[_address] */\n      0x0\n        /* \"contracts/ddddd.sol\":6199:6207  _address */\n      dup11\n        /* \"contracts/ddddd.sol\":6187:6208  vaccination[_address] */\n      0xffffffffffffffffffffffffffffffffffffffff\n      and\n      0xffffffffffffffffffffffffffffffffffffffff\n      and\n      dup2\n      mstore\n      0x20\n      add\n      swap1\n      dup2\n      mstore\n      0x20\n      add\n      0x0\n      keccak256\n        /* \"contracts/ddddd.sol\":6179:6208  var v = vaccination[_address] */\n      swap1\n      pop\n        /* \"contracts/ddddd.sol\":6227:6228  v */\n      dup1\n        /* \"contracts/ddddd.sol\":6227:6236  v.vaccine */\n      0x1\n      add\n        /* \"contracts/ddddd.sol\":6238:6239  v */\n      dup2\n        /* \"contracts/ddddd.sol\":6238:6244  v.name */\n      0x0\n      add\n        /* \"contracts/ddddd.sol\":6246:6247  v */\n      dup3\n        /* \"contracts/ddddd.sol\":6246:6259  v.description */\n      0x2\n      add\n        /* \"contracts/ddddd.sol\":6261:6262  v */\n      dup4\n        /* \"contracts/ddddd.sol\":6261:6276  v.typeOfVaccine */\n      0x3\n      add\n        /* \"contracts/ddddd.sol\":6278:6279  v */\n      dup5\n        /* \"contracts/ddddd.sol\":6278:6292  v.creationDate */\n      0x4\n      add\n      sload\n        /* \"contracts/ddddd.sol\":6294:6295  v */\n      dup6\n        /* \"contracts/ddddd.sol\":6294:6308  v.userEadderss */\n      0x5\n      add\n      0x0\n      swap1\n      sload\n      swap1\n      0x100\n      exp\n      swap1\n      div\n      0xffffffffffffffffffffffffffffffffffffffff\n      and\n        /* \"contracts/ddddd.sol\":6310:6311  v */\n      dup7\n        /* \"contracts/ddddd.sol\":6310:6326  v.doctorEaddress */\n      0x6\n      add\n      0x0\n      swap1\n      sload\n      swap1\n      0x100\n      exp\n      swap1\n      div\n      0xffffffffffffffffffffffffffffffffffffffff\n      and\n        /* \"contracts/ddddd.sol\":6219:6327  return (v.vaccine, v.name, v.description, v.typeOfVaccine, v.creationDate, v.userEadderss, v.doctorEaddress) */\n      dup7\n      dup1\n      sload\n      0x1\n      dup2\n      0x1\n      and\n      iszero\n      0x100\n      mul\n      sub\n      and\n      0x2\n      swap1\n      div\n      dup1\n      0x1f\n      add\n      0x20\n      dup1\n      swap2\n      div\n      mul\n      0x20\n      add\n      mload(0x40)\n      swap1\n      dup2\n      add\n      0x40\n      mstore\n      dup1\n      swap3\n      swap2\n      swap1\n      dup2\n      dup2\n      mstore\n      0x20\n      add\n      dup3\n      dup1\n      sload\n      0x1\n      dup2\n      0x1\n      and\n      iszero\n      0x100\n      mul\n      sub\n      and\n      0x2\n      swap1\n      div\n      dup1\n      iszero\n      tag_271\n      jumpi\n      dup1\n      0x1f\n      lt\n      tag_272\n      jumpi\n      0x100\n      dup1\n      dup4\n      sload\n      div\n      mul\n      dup4\n      mstore\n      swap2\n      0x20\n      add\n      swap2\n      jump(tag_271)\n    tag_272:\n      dup3\n      add\n      swap2\n      swap1\n      0x0\n      mstore\n      keccak256(0x0, 0x20)\n      swap1\n    tag_273:\n      dup2\n      sload\n      dup2\n      mstore\n      swap1\n      0x1\n      add\n      swap1\n      0x20\n      add\n      dup1\n      dup4\n      gt\n      tag_273\n      jumpi\n      dup3\n      swap1\n      sub\n      0x1f\n      and\n      dup3\n      add\n      swap2\n    tag_271:\n      pop\n      pop\n      pop\n      pop\n      pop\n      swap7\n      pop\n      dup6\n      dup1\n      sload\n      0x1\n      dup2\n      0x1\n      and\n      iszero\n      0x100\n      mul\n      sub\n      and\n      0x2\n      swap1\n      div\n      dup1\n      0x1f\n      add\n      0x20\n      dup1\n      swap2\n      div\n      mul\n      0x20\n      add\n      mload(0x40)\n      swap1\n      dup2\n      add\n      0x40\n      mstore\n      dup1\n      swap3\n      swap2\n      swap1\n      dup2\n      dup2\n      mstore\n      0x20\n      add\n      dup3\n      dup1\n      sload\n      0x1\n      dup2\n      0x1\n      and\n      iszero\n      0x100\n      mul\n      sub\n      and\n      0x2\n      swap1\n      div\n      dup1\n      iszero\n      tag_274\n      jumpi\n      dup1\n      0x1f\n      lt\n      tag_275\n      jumpi\n      0x100\n      dup1\n      dup4\n      sload\n      div\n      mul\n      dup4\n      mstore\n      swap2\n      0x20\n      add\n      swap2\n      jump(tag_274)\n    tag_275:\n      dup3\n      add\n      swap2\n      swap1\n      0x0\n      mstore\n      keccak256(0x0, 0x20)\n      swap1\n    tag_276:\n      dup2\n      sload\n      dup2\n      mstore\n      swap1\n      0x1\n      add\n      swap1\n      0x20\n      add\n      dup1\n      dup4\n      gt\n      tag_276\n      jumpi\n      dup3\n      swap1\n      sub\n      0x1f\n      and\n      dup3\n      add\n      swap2\n    tag_274:\n      pop\n      pop\n      pop\n      pop\n      pop\n      swap6\n      pop\n      dup5\n      dup1\n      sload\n      0x1\n      dup2\n      0x1\n      and\n      iszero\n      0x100\n      mul\n      sub\n      and\n      0x2\n      swap1\n      div\n      dup1\n      0x1f\n      add\n      0x20\n      dup1\n      swap2\n      div\n      mul\n      0x20\n      add\n      mload(0x40)\n      swap1\n      dup2\n      add\n      0x40\n      mstore\n      dup1\n      swap3\n      swap2\n      swap1\n      dup2\n      dup2\n      mstore\n      0x20\n      add\n      dup3\n      dup1\n      sload\n      0x1\n      dup2\n      0x1\n      and\n      iszero\n      0x100\n      mul\n      sub\n      and\n      0x2\n      swap1\n      div\n      dup1\n      iszero\n      tag_277\n      jumpi\n      dup1\n      0x1f\n      lt\n      tag_278\n      jumpi\n      0x100\n      dup1\n      dup4\n      sload\n      div\n      mul\n      dup4\n      mstore\n      swap2\n      0x20\n      add\n      swap2\n      jump(tag_277)\n    tag_278:\n      dup3\n      add\n      swap2\n      swap1\n      0x0\n      mstore\n      keccak256(0x0, 0x20)\n      swap1\n    tag_279:\n      dup2\n      sload\n      dup2\n      mstore\n      swap1\n      0x1\n      add\n      swap1\n      0x20\n      add\n      dup1\n      dup4\n      gt\n      tag_279\n      jumpi\n      dup3\n      swap1\n      sub\n      0x1f\n      and\n      dup3\n      add\n      swap2\n    tag_277:\n      pop\n      pop\n      pop\n      pop\n      pop\n      swap5\n      pop\n      dup4\n      dup1\n      sload\n      0x1\n      dup2\n      0x1\n      and\n      iszero\n      0x100\n      mul\n      sub\n      and\n      0x2\n      swap1\n      div\n      dup1\n      0x1f\n      add\n      0x20\n      dup1\n      swap2\n      div\n      mul\n      0x20\n      add\n      mload(0x40)\n      swap1\n      dup2\n      add\n      0x40\n      mstore\n      dup1\n      swap3\n      swap2\n      swap1\n      dup2\n      dup2\n      mstore\n      0x20\n      add\n      dup3\n      dup1\n      sload\n      0x1\n      dup2\n      0x1\n      and\n      iszero\n      0x100\n      mul\n      sub\n      and\n      0x2\n      swap1\n      div\n      dup1\n      iszero\n      tag_280\n      jumpi\n      dup1\n      0x1f\n      lt\n      tag_281\n      jumpi\n      0x100\n      dup1\n      dup4\n      sload\n      div\n      mul\n      dup4\n      mstore\n      swap2\n      0x20\n      add\n      swap2\n      jump(tag_280)\n    tag_281:\n      dup3\n      add\n      swap2\n      swap1\n      0x0\n      mstore\n      keccak256(0x0, 0x20)\n      swap1\n    tag_282:\n      dup2\n      sload\n      dup2\n      mstore\n      swap1\n      0x1\n      add\n      swap1\n      0x20\n      add\n      dup1\n      dup4\n      gt\n      tag_282\n      jumpi\n      dup3\n      swap1\n      sub\n      0x1f\n      and\n      dup3\n      add\n      swap2\n    tag_280:\n      pop\n      pop\n      pop\n      pop\n      pop\n      swap4\n      pop\n      swap8\n      pop\n      swap8\n      pop\n      swap8\n      pop\n      swap8\n      pop\n      swap8\n      pop\n      swap8\n      pop\n      swap8\n      pop\n        /* \"contracts/ddddd.sol\":5991:6335  function getVaccinationInfo(address _address) public view returns(string, string, string, string, uint256, address, address) {\r... */\n      pop\n      swap2\n      swap4\n      swap6\n      swap8\n      swap1\n      swap3\n      swap5\n      swap7\n      pop\n      jump\t// out\n        /* \"contracts/ddddd.sol\":1036:1056  address public owner */\n    tag_116:\n      0x0\n      dup1\n      swap1\n      sload\n      swap1\n      0x100\n      exp\n      swap1\n      div\n      0xffffffffffffffffffffffffffffffffffffffff\n      and\n      dup2\n      jump\t// out\n        /* \"contracts/ddddd.sol\":1933:2021  function ownerAddress() public view returns(address) {\r... */\n    tag_120:\n        /* \"contracts/ddddd.sol\":1977:1984  address */\n      0x0\n        /* \"contracts/ddddd.sol\":2004:2013  mohAdress */\n      0x10\n      0x0\n      swap1\n      sload\n      swap1\n      0x100\n      exp\n      swap1\n      div\n      0xffffffffffffffffffffffffffffffffffffffff\n      and\n        /* \"contracts/ddddd.sol\":1997:2013  return mohAdress */\n      swap1\n      pop\n        /* \"contracts/ddddd.sol\":1933:2021  function ownerAddress() public view returns(address) {\r... */\n      swap1\n      jump\t// out\n        /* \"contracts/ddddd.sol\":1798:1842  uint256 public vaccinationRecordsCounter = 0 */\n    tag_124:\n      sload(0xf)\n      dup2\n      jump\t// out\n        /* \"contracts/ddddd.sol\":1705:1744  uint256 public MoHPermissionCounter = 0 */\n    tag_128:\n      sload(0xd)\n      dup2\n      jump\t// out\n        /* \"contracts/ddddd.sol\":1063:1088  address[] public userList */\n    tag_133:\n      0x1\n      dup2\n      dup2\n      sload\n      dup2\n      lt\n      iszero\n      iszero\n      tag_284\n      jumpi\n      invalid\n    tag_284:\n      swap1\n      0x0\n      mstore\n      keccak256(0x0, 0x20)\n      add\n      0x0\n      swap2\n      pop\n      sload\n      swap1\n      0x100\n      exp\n      swap1\n      div\n      0xffffffffffffffffffffffffffffffffffffffff\n      and\n      dup2\n      jump\t// out\n        /* \"contracts/ddddd.sol\":7297:7386  function getDoctors() public view returns(address[]) {\r... */\n    tag_137:\n        /* \"contracts/ddddd.sol\":7339:7348  address[] */\n      0x60\n        /* \"contracts/ddddd.sol\":7368:7378  doctorList */\n      0x2\n        /* \"contracts/ddddd.sol\":7361:7378  return doctorList */\n      dup1\n      sload\n      dup1\n      0x20\n      mul\n      0x20\n      add\n      mload(0x40)\n      swap1\n      dup2\n      add\n      0x40\n      mstore\n      dup1\n      swap3\n      swap2\n      swap1\n      dup2\n      dup2\n      mstore\n      0x20\n      add\n      dup3\n      dup1\n      sload\n      dup1\n      iszero\n      tag_287\n      jumpi\n      0x20\n      mul\n      dup3\n      add\n      swap2\n      swap1\n      0x0\n      mstore\n      keccak256(0x0, 0x20)\n      swap1\n    tag_288:\n      dup2\n      0x0\n      swap1\n      sload\n      swap1\n      0x100\n      exp\n      swap1\n      div\n      0xffffffffffffffffffffffffffffffffffffffff\n      and\n      0xffffffffffffffffffffffffffffffffffffffff\n      and\n      dup2\n      mstore\n      0x20\n      add\n      swap1\n      0x1\n      add\n      swap1\n      dup1\n      dup4\n      gt\n      tag_288\n      jumpi\n    tag_287:\n      pop\n      pop\n      pop\n      pop\n      pop\n      swap1\n      pop\n        /* \"contracts/ddddd.sol\":7297:7386  function getDoctors() public view returns(address[]) {\r... */\n      swap1\n      jump\t// out\n        /* \"contracts/ddddd.sol\":8478:8566  function getUserCount() public view returns(uint256) {\r... */\n    tag_141:\n        /* \"contracts/ddddd.sol\":8522:8529  uint256 */\n      0x0\n        /* \"contracts/ddddd.sol\":8549:8558  userCount */\n      sload(0xb)\n        /* \"contracts/ddddd.sol\":8542:8558  return userCount */\n      swap1\n      pop\n        /* \"contracts/ddddd.sol\":8478:8566  function getUserCount() public view returns(uint256) {\r... */\n      swap1\n      jump\t// out\n        /* \"contracts/ddddd.sol\":1851:1920  address public mohAdress = 0xc50C6297f56b033633C30354A854b074749cd2dC */\n    tag_145:\n      0x10\n      0x0\n      swap1\n      sload\n      swap1\n      0x100\n      exp\n      swap1\n      div\n      0xffffffffffffffffffffffffffffffffffffffff\n      and\n      dup2\n      jump\t// out\n        /* \"contracts/ddddd.sol\":6972:7192  function MoHRevokePermission(address _address1, address _address2) public returns(bool success) {\r... */\n    tag_151:\n        /* \"contracts/ddddd.sol\":7054:7066  bool success */\n      0x0\n        /* \"contracts/ddddd.sol\":7101:7110  mohAdress */\n      0x10\n      0x0\n      swap1\n      sload\n      swap1\n      0x100\n      exp\n      swap1\n      div\n      0xffffffffffffffffffffffffffffffffffffffff\n      and\n        /* \"contracts/ddddd.sol\":7087:7110  msg.sender == mohAdress */\n      0xffffffffffffffffffffffffffffffffffffffff\n      and\n        /* \"contracts/ddddd.sol\":7087:7097  msg.sender */\n      caller\n        /* \"contracts/ddddd.sol\":7087:7110  msg.sender == mohAdress */\n      0xffffffffffffffffffffffffffffffffffffffff\n      and\n      eq\n        /* \"contracts/ddddd.sol\":7079:7111  require(msg.sender == mohAdress) */\n      iszero\n      iszero\n      tag_291\n      jumpi\n      0x0\n      dup1\n      revert\n    tag_291:\n        /* \"contracts/ddddd.sol\":7157:7162  false */\n      0x0\n        /* \"contracts/ddddd.sol\":7122:7132  isApproved */\n      0x7\n        /* \"contracts/ddddd.sol\":7122:7143  isApproved[_address1] */\n      0x0\n        /* \"contracts/ddddd.sol\":7133:7142  _address1 */\n      dup6\n        /* \"contracts/ddddd.sol\":7122:7143  isApproved[_address1] */\n      0xffffffffffffffffffffffffffffffffffffffff\n      and\n      0xffffffffffffffffffffffffffffffffffffffff\n      and\n      dup2\n      mstore\n      0x20\n      add\n      swap1\n      dup2\n      mstore\n      0x20\n      add\n      0x0\n      keccak256\n        /* \"contracts/ddddd.sol\":7122:7154  isApproved[_address1][_address2] */\n      0x0\n        /* \"contracts/ddddd.sol\":7144:7153  _address2 */\n      dup5\n        /* \"contracts/ddddd.sol\":7122:7154  isApproved[_address1][_address2] */\n      0xffffffffffffffffffffffffffffffffffffffff\n      and\n      0xffffffffffffffffffffffffffffffffffffffff\n      and\n      dup2\n      mstore\n      0x20\n      add\n      swap1\n      dup2\n      mstore\n      0x20\n      add\n      0x0\n      keccak256\n      0x0\n        /* \"contracts/ddddd.sol\":7122:7162  isApproved[_address1][_address2] = false */\n      0x100\n      exp\n      dup2\n      sload\n      dup2\n      0xff\n      mul\n      not\n      and\n      swap1\n      dup4\n      iszero\n      iszero\n      mul\n      or\n      swap1\n      sstore\n      pop\n        /* \"contracts/ddddd.sol\":7180:7184  true */\n      0x1\n        /* \"contracts/ddddd.sol\":7173:7184  return true */\n      swap1\n      pop\n        /* \"contracts/ddddd.sol\":6972:7192  function MoHRevokePermission(address _address1, address _address2) public returns(bool success) {\r... */\n      swap3\n      swap2\n      pop\n      pop\n      jump\t// out\n        /* \"contracts/ddddd.sol\":1751:1791  uint256 public userPermissionCounter = 0 */\n    tag_155:\n      sload(0xe)\n      dup2\n      jump\t// out\n        /* \"contracts/ddddd.sol\":8093:8462  function searchDoctor(address _address) public view returns(string, string, string, string, string, string, string, address) {\r... */\n    tag_160:\n        /* \"contracts/ddddd.sol\":8153:8159  string */\n      0x60\n        /* \"contracts/ddddd.sol\":8161:8167  string */\n      dup1\n        /* \"contracts/ddddd.sol\":8169:8175  string */\n      0x60\n        /* \"contracts/ddddd.sol\":8177:8183  string */\n      dup1\n        /* \"contracts/ddddd.sol\":8185:8191  string */\n      0x60\n        /* \"contracts/ddddd.sol\":8193:8199  string */\n      dup1\n        /* \"contracts/ddddd.sol\":8201:8207  string */\n      0x60\n        /* \"contracts/ddddd.sol\":8209:8216  address */\n      0x0\n        /* \"contracts/ddddd.sol\":8319:8324  var d */\n      dup1\n        /* \"contracts/ddddd.sol\":8237:8247  isApproved */\n      0x7\n        /* \"contracts/ddddd.sol\":8237:8257  isApproved[_address] */\n      0x0\n        /* \"contracts/ddddd.sol\":8248:8256  _address */\n      dup12\n        /* \"contracts/ddddd.sol\":8237:8257  isApproved[_address] */\n      0xffffffffffffffffffffffffffffffffffffffff\n      and\n      0xffffffffffffffffffffffffffffffffffffffff\n      and\n      dup2\n      mstore\n      0x20\n      add\n      swap1\n      dup2\n      mstore\n      0x20\n      add\n      0x0\n      keccak256\n        /* \"contracts/ddddd.sol\":8237:8269  isApproved[_address][msg.sender] */\n      0x0\n        /* \"contracts/ddddd.sol\":8258:8268  msg.sender */\n      caller\n        /* \"contracts/ddddd.sol\":8237:8269  isApproved[_address][msg.sender] */\n      0xffffffffffffffffffffffffffffffffffffffff\n      and\n      0xffffffffffffffffffffffffffffffffffffffff\n      and\n      dup2\n      mstore\n      0x20\n      add\n      swap1\n      dup2\n      mstore\n      0x20\n      add\n      0x0\n      keccak256\n      0x0\n      swap1\n      sload\n      swap1\n      0x100\n      exp\n      swap1\n      div\n      0xff\n      and\n        /* \"contracts/ddddd.sol\":8229:8270  require(isApproved[_address][msg.sender]) */\n      iszero\n      iszero\n      tag_293\n      jumpi\n      0x0\n      dup1\n      revert\n    tag_293:\n        /* \"contracts/ddddd.sol\":8289:8297  isDoctor */\n      0x9\n        /* \"contracts/ddddd.sol\":8289:8307  isDoctor[_address] */\n      0x0\n        /* \"contracts/ddddd.sol\":8298:8306  _address */\n      dup12\n        /* \"contracts/ddddd.sol\":8289:8307  isDoctor[_address] */\n      0xffffffffffffffffffffffffffffffffffffffff\n      and\n      0xffffffffffffffffffffffffffffffffffffffff\n      and\n      dup2\n      mstore\n      0x20\n      add\n      swap1\n      dup2\n      mstore\n      0x20\n      add\n      0x0\n      keccak256\n      0x0\n      swap1\n      sload\n      swap1\n      0x100\n      exp\n      swap1\n      div\n      0xff\n      and\n        /* \"contracts/ddddd.sol\":8281:8308  require(isDoctor[_address]) */\n      iszero\n      iszero\n      tag_294\n      jumpi\n      0x0\n      dup1\n      revert\n    tag_294:\n        /* \"contracts/ddddd.sol\":8327:8333  doctor */\n      0x5\n        /* \"contracts/ddddd.sol\":8327:8343  doctor[_address] */\n      0x0\n        /* \"contracts/ddddd.sol\":8334:8342  _address */\n      dup12\n        /* \"contracts/ddddd.sol\":8327:8343  doctor[_address] */\n      0xffffffffffffffffffffffffffffffffffffffff\n      and\n      0xffffffffffffffffffffffffffffffffffffffff\n      and\n      dup2\n      mstore\n      0x20\n      add\n      swap1\n      dup2\n      mstore\n      0x20\n      add\n      0x0\n      keccak256\n        /* \"contracts/ddddd.sol\":8319:8343  var d = doctor[_address] */\n      swap1\n      pop\n        /* \"contracts/ddddd.sol\":8372:8373  d */\n      dup1\n        /* \"contracts/ddddd.sol\":8372:8379  d.uaeId */\n      0x0\n      add\n        /* \"contracts/ddddd.sol\":8381:8382  d */\n      dup2\n        /* \"contracts/ddddd.sol\":8381:8387  d.name */\n      0x1\n      add\n        /* \"contracts/ddddd.sol\":8389:8390  d */\n      dup3\n        /* \"contracts/ddddd.sol\":8389:8396  d.phone */\n      0x2\n      add\n        /* \"contracts/ddddd.sol\":8398:8399  d */\n      dup4\n        /* \"contracts/ddddd.sol\":8398:8406  d.gender */\n      0x3\n      add\n        /* \"contracts/ddddd.sol\":8408:8409  d */\n      dup5\n        /* \"contracts/ddddd.sol\":8408:8415  d.email */\n      0x5\n      add\n        /* \"contracts/ddddd.sol\":8417:8418  d */\n      dup6\n        /* \"contracts/ddddd.sol\":8417:8432  d.qualification */\n      0x6\n      add\n        /* \"contracts/ddddd.sol\":8434:8435  d */\n      dup7\n        /* \"contracts/ddddd.sol\":8434:8441  d.major */\n      0x7\n      add\n        /* \"contracts/ddddd.sol\":8443:8444  d */\n      dup8\n        /* \"contracts/ddddd.sol\":8443:8453  d.eAddress */\n      0x8\n      add\n      0x0\n      swap1\n      sload\n      swap1\n      0x100\n      exp\n      swap1\n      div\n      0xffffffffffffffffffffffffffffffffffffffff\n      and\n        /* \"contracts/ddddd.sol\":8364:8454  return (d.uaeId, d.name, d.phone, d.gender, d.email, d.qualification, d.major, d.eAddress) */\n      dup8\n      dup1\n      sload\n      0x1\n      dup2\n      0x1\n      and\n      iszero\n      0x100\n      mul\n      sub\n      and\n      0x2\n      swap1\n      div\n      dup1\n      0x1f\n      add\n      0x20\n      dup1\n      swap2\n      div\n      mul\n      0x20\n      add\n      mload(0x40)\n      swap1\n      dup2\n      add\n      0x40\n      mstore\n      dup1\n      swap3\n      swap2\n      swap1\n      dup2\n      dup2\n      mstore\n      0x20\n      add\n      dup3\n      dup1\n      sload\n      0x1\n      dup2\n      0x1\n      and\n      iszero\n      0x100\n      mul\n      sub\n      and\n      0x2\n      swap1\n      div\n      dup1\n      iszero\n      tag_295\n      jumpi\n      dup1\n      0x1f\n      lt\n      tag_296\n      jumpi\n      0x100\n      dup1\n      dup4\n      sload\n      div\n      mul\n      dup4\n      mstore\n      swap2\n      0x20\n      add\n      swap2\n      jump(tag_295)\n    tag_296:\n      dup3\n      add\n      swap2\n      swap1\n      0x0\n      mstore\n      keccak256(0x0, 0x20)\n      swap1\n    tag_297:\n      dup2\n      sload\n      dup2\n      mstore\n      swap1\n      0x1\n      add\n      swap1\n      0x20\n      add\n      dup1\n      dup4\n      gt\n      tag_297\n      jumpi\n      dup3\n      swap1\n      sub\n      0x1f\n      and\n      dup3\n      add\n      swap2\n    tag_295:\n      pop\n      pop\n      pop\n      pop\n      pop\n      swap8\n      pop\n      dup7\n      dup1\n      sload\n      0x1\n      dup2\n      0x1\n      and\n      iszero\n      0x100\n      mul\n      sub\n      and\n      0x2\n      swap1\n      div\n      dup1\n      0x1f\n      add\n      0x20\n      dup1\n      swap2\n      div\n      mul\n      0x20\n      add\n      mload(0x40)\n      swap1\n      dup2\n      add\n      0x40\n      mstore\n      dup1\n      swap3\n      swap2\n      swap1\n      dup2\n      dup2\n      mstore\n      0x20\n      add\n      dup3\n      dup1\n      sload\n      0x1\n      dup2\n      0x1\n      and\n      iszero\n      0x100\n      mul\n      sub\n      and\n      0x2\n      swap1\n      div\n      dup1\n      iszero\n      tag_298\n      jumpi\n      dup1\n      0x1f\n      lt\n      tag_299\n      jumpi\n      0x100\n      dup1\n      dup4\n      sload\n      div\n      mul\n      dup4\n      mstore\n      swap2\n      0x20\n      add\n      swap2\n      jump(tag_298)\n    tag_299:\n      dup3\n      add\n      swap2\n      swap1\n      0x0\n      mstore\n      keccak256(0x0, 0x20)\n      swap1\n    tag_300:\n      dup2\n      sload\n      dup2\n      mstore\n      swap1\n      0x1\n      add\n      swap1\n      0x20\n      add\n      dup1\n      dup4\n      gt\n      tag_300\n      jumpi\n      dup3\n      swap1\n      sub\n      0x1f\n      and\n      dup3\n      add\n      swap2\n    tag_298:\n      pop\n      pop\n      pop\n      pop\n      pop\n      swap7\n      pop\n      dup6\n      dup1\n      sload\n      0x1\n      dup2\n      0x1\n      and\n      iszero\n      0x100\n      mul\n      sub\n      and\n      0x2\n      swap1\n      div\n      dup1\n      0x1f\n      add\n      0x20\n      dup1\n      swap2\n      div\n      mul\n      0x20\n      add\n      mload(0x40)\n      swap1\n      dup2\n      add\n      0x40\n      mstore\n      dup1\n      swap3\n      swap2\n      swap1\n      dup2\n      dup2\n      mstore\n      0x20\n      add\n      dup3\n      dup1\n      sload\n      0x1\n      dup2\n      0x1\n      and\n      iszero\n      0x100\n      mul\n      sub\n      and\n      0x2\n      swap1\n      div\n      dup1\n      iszero\n      tag_301\n      jumpi\n      dup1\n      0x1f\n      lt\n      tag_302\n      jumpi\n      0x100\n      dup1\n      dup4\n      sload\n      div\n      mul\n      dup4\n      mstore\n      swap2\n      0x20\n      add\n      swap2\n      jump(tag_301)\n    tag_302:\n      dup3\n      add\n      swap2\n      swap1\n      0x0\n      mstore\n      keccak256(0x0, 0x20)\n      swap1\n    tag_303:\n      dup2\n      sload\n      dup2\n      mstore\n      swap1\n      0x1\n      add\n      swap1\n      0x20\n      add\n      dup1\n      dup4\n      gt\n      tag_303\n      jumpi\n      dup3\n      swap1\n      sub\n      0x1f\n      and\n      dup3\n      add\n      swap2\n    tag_301:\n      pop\n      pop\n      pop\n      pop\n      pop\n      swap6\n      pop\n      dup5\n      dup1\n      sload\n      0x1\n      dup2\n      0x1\n      and\n      iszero\n      0x100\n      mul\n      sub\n      and\n      0x2\n      swap1\n      div\n      dup1\n      0x1f\n      add\n      0x20\n      dup1\n      swap2\n      div\n      mul\n      0x20\n      add\n      mload(0x40)\n      swap1\n      dup2\n      add\n      0x40\n      mstore\n      dup1\n      swap3\n      swap2\n      swap1\n      dup2\n      dup2\n      mstore\n      0x20\n      add\n      dup3\n      dup1\n      sload\n      0x1\n      dup2\n      0x1\n      and\n      iszero\n      0x100\n      mul\n      sub\n      and\n      0x2\n      swap1\n      div\n      dup1\n      iszero\n      tag_304\n      jumpi\n      dup1\n      0x1f\n      lt\n      tag_305\n      jumpi\n      0x100\n      dup1\n      dup4\n      sload\n      div\n      mul\n      dup4\n      mstore\n      swap2\n      0x20\n      add\n      swap2\n      jump(tag_304)\n    tag_305:\n      dup3\n      add\n      swap2\n      swap1\n      0x0\n      mstore\n      keccak256(0x0, 0x20)\n      swap1\n    tag_306:\n      dup2\n      sload\n      dup2\n      mstore\n      swap1\n      0x1\n      add\n      swap1\n      0x20\n      add\n      dup1\n      dup4\n      gt\n      tag_306\n      jumpi\n      dup3\n      swap1\n      sub\n      0x1f\n      and\n      dup3\n      add\n      swap2\n    tag_304:\n      pop\n      pop\n      pop\n      pop\n      pop\n      swap5\n      pop\n      dup4\n      dup1\n      sload\n      0x1\n      dup2\n      0x1\n      and\n      iszero\n      0x100\n      mul\n      sub\n      and\n      0x2\n      swap1\n      div\n      dup1\n      0x1f\n      add\n      0x20\n      dup1\n      swap2\n      div\n      mul\n      0x20\n      add\n      mload(0x40)\n      swap1\n      dup2\n      add\n      0x40\n      mstore\n      dup1\n      swap3\n      swap2\n      swap1\n      dup2\n      dup2\n      mstore\n      0x20\n      add\n      dup3\n      dup1\n      sload\n      0x1\n      dup2\n      0x1\n      and\n      iszero\n      0x100\n      mul\n      sub\n      and\n      0x2\n      swap1\n      div\n      dup1\n      iszero\n      tag_307\n      jumpi\n      dup1\n      0x1f\n      lt\n      tag_308\n      jumpi\n      0x100\n      dup1\n      dup4\n      sload\n      div\n      mul\n      dup4\n      mstore\n      swap2\n      0x20\n      add\n      swap2\n      jump(tag_307)\n    tag_308:\n      dup3\n      add\n      swap2\n      swap1\n      0x0\n      mstore\n      keccak256(0x0, 0x20)\n      swap1\n    tag_309:\n      dup2\n      sload\n      dup2\n      mstore\n      swap1\n      0x1\n      add\n      swap1\n      0x20\n      add\n      dup1\n      dup4\n      gt\n      tag_309\n      jumpi\n      dup3\n      swap1\n      sub\n      0x1f\n      and\n      dup3\n      add\n      swap2\n    tag_307:\n      pop\n      pop\n      pop\n      pop\n      pop\n      swap4\n      pop\n      dup3\n      dup1\n      sload\n      0x1\n      dup2\n      0x1\n      and\n      iszero\n      0x100\n      mul\n      sub\n      and\n      0x2\n      swap1\n      div\n      dup1\n      0x1f\n      add\n      0x20\n      dup1\n      swap2\n      div\n      mul\n      0x20\n      add\n      mload(0x40)\n      swap1\n      dup2\n      add\n      0x40\n      mstore\n      dup1\n      swap3\n      swap2\n      swap1\n      dup2\n      dup2\n      mstore\n      0x20\n      add\n      dup3\n      dup1\n      sload\n      0x1\n      dup2\n      0x1\n      and\n      iszero\n      0x100\n      mul\n      sub\n      and\n      0x2\n      swap1\n      div\n      dup1\n      iszero\n      tag_310\n      jumpi\n      dup1\n      0x1f\n      lt\n      tag_311\n      jumpi\n      0x100\n      dup1\n      dup4\n      sload\n      div\n      mul\n      dup4\n      mstore\n      swap2\n      0x20\n      add\n      swap2\n      jump(tag_310)\n    tag_311:\n      dup3\n      add\n      swap2\n      swap1\n      0x0\n      mstore\n      keccak256(0x0, 0x20)\n      swap1\n    tag_312:\n      dup2\n      sload\n      dup2\n      mstore\n      swap1\n      0x1\n      add\n      swap1\n      0x20\n      add\n      dup1\n      dup4\n      gt\n      tag_312\n      jumpi\n      dup3\n      swap1\n      sub\n      0x1f\n      and\n      dup3\n      add\n      swap2\n    tag_310:\n      pop\n      pop\n      pop\n      pop\n      pop\n      swap3\n      pop\n      dup2\n      dup1\n      sload\n      0x1\n      dup2\n      0x1\n      and\n      iszero\n      0x100\n      mul\n      sub\n      and\n      0x2\n      swap1\n      div\n      dup1\n      0x1f\n      add\n      0x20\n      dup1\n      swap2\n      div\n      mul\n      0x20\n      add\n      mload(0x40)\n      swap1\n      dup2\n      add\n      0x40\n      mstore\n      dup1\n      swap3\n      swap2\n      swap1\n      dup2\n      dup2\n      mstore\n      0x20\n      add\n      dup3\n      dup1\n      sload\n      0x1\n      dup2\n      0x1\n      and\n      iszero\n      0x100\n      mul\n      sub\n      and\n      0x2\n      swap1\n      div\n      dup1\n      iszero\n      tag_313\n      jumpi\n      dup1\n      0x1f\n      lt\n      tag_314\n      jumpi\n      0x100\n      dup1\n      dup4\n      sload\n      div\n      mul\n      dup4\n      mstore\n      swap2\n      0x20\n      add\n      swap2\n      jump(tag_313)\n    tag_314:\n      dup3\n      add\n      swap2\n      swap1\n      0x0\n      mstore\n      keccak256(0x0, 0x20)\n      swap1\n    tag_315:\n      dup2\n      sload\n      dup2\n      mstore\n      swap1\n      0x1\n      add\n      swap1\n      0x20\n      add\n      dup1\n      dup4\n      gt\n      tag_315\n      jumpi\n      dup3\n      swap1\n      sub\n      0x1f\n      and\n      dup3\n      add\n      swap2\n    tag_313:\n      pop\n      pop\n      pop\n      pop\n      pop\n      swap2\n      pop\n      swap9\n      pop\n      swap9\n      pop\n      swap9\n      pop\n      swap9\n      pop\n      swap9\n      pop\n      swap9\n      pop\n      swap9\n      pop\n      swap9\n      pop\n        /* \"contracts/ddddd.sol\":8093:8462  function searchDoctor(address _address) public view returns(string, string, string, string, string, string, string, address) {\r... */\n      pop\n      swap2\n      swap4\n      swap6\n      swap8\n      pop\n      swap2\n      swap4\n      swap6\n      swap8\n      jump\t// out\n        /* \"contracts/ddddd.sol\":6544:6796  function givePermissionByMoH(address _address1, address _address2) public returns(bool success) {\r... */\n    tag_165:\n        /* \"contracts/ddddd.sol\":6626:6638  bool success */\n      0x0\n        /* \"contracts/ddddd.sol\":6673:6682  mohAdress */\n      0x10\n      0x0\n      swap1\n      sload\n      swap1\n      0x100\n      exp\n      swap1\n      div\n      0xffffffffffffffffffffffffffffffffffffffff\n      and\n        /* \"contracts/ddddd.sol\":6659:6682  msg.sender == mohAdress */\n      0xffffffffffffffffffffffffffffffffffffffff\n      and\n        /* \"contracts/ddddd.sol\":6659:6669  msg.sender */\n      caller\n        /* \"contracts/ddddd.sol\":6659:6682  msg.sender == mohAdress */\n      0xffffffffffffffffffffffffffffffffffffffff\n      and\n      eq\n        /* \"contracts/ddddd.sol\":6651:6683  require(msg.sender == mohAdress) */\n      iszero\n      iszero\n      tag_317\n      jumpi\n      0x0\n      dup1\n      revert\n    tag_317:\n        /* \"contracts/ddddd.sol\":6729:6733  true */\n      0x1\n        /* \"contracts/ddddd.sol\":6694:6704  isApproved */\n      0x7\n        /* \"contracts/ddddd.sol\":6694:6715  isApproved[_address1] */\n      0x0\n        /* \"contracts/ddddd.sol\":6705:6714  _address1 */\n      dup6\n        /* \"contracts/ddddd.sol\":6694:6715  isApproved[_address1] */\n      0xffffffffffffffffffffffffffffffffffffffff\n      and\n      0xffffffffffffffffffffffffffffffffffffffff\n      and\n      dup2\n      mstore\n      0x20\n      add\n      swap1\n      dup2\n      mstore\n      0x20\n      add\n      0x0\n      keccak256\n        /* \"contracts/ddddd.sol\":6694:6726  isApproved[_address1][_address2] */\n      0x0\n        /* \"contracts/ddddd.sol\":6716:6725  _address2 */\n      dup5\n        /* \"contracts/ddddd.sol\":6694:6726  isApproved[_address1][_address2] */\n      0xffffffffffffffffffffffffffffffffffffffff\n      and\n      0xffffffffffffffffffffffffffffffffffffffff\n      and\n      dup2\n      mstore\n      0x20\n      add\n      swap1\n      dup2\n      mstore\n      0x20\n      add\n      0x0\n      keccak256\n      0x0\n        /* \"contracts/ddddd.sol\":6694:6733  isApproved[_address1][_address2] = true */\n      0x100\n      exp\n      dup2\n      sload\n      dup2\n      0xff\n      mul\n      not\n      and\n      swap1\n      dup4\n      iszero\n      iszero\n      mul\n      or\n      swap1\n      sstore\n      pop\n        /* \"contracts/ddddd.sol\":6744:6764  MoHPermissionCounter */\n      0xd\n      0x0\n        /* \"contracts/ddddd.sol\":6744:6766  MoHPermissionCounter++ */\n      dup2\n      sload\n      dup1\n      swap3\n      swap2\n      swap1\n      0x1\n      add\n      swap2\n      swap1\n      pop\n      sstore\n      pop\n        /* \"contracts/ddddd.sol\":6784:6788  true */\n      0x1\n        /* \"contracts/ddddd.sol\":6777:6788  return true */\n      swap1\n      pop\n        /* \"contracts/ddddd.sol\":6544:6796  function givePermissionByMoH(address _address1, address _address2) public returns(bool success) {\r... */\n      swap3\n      swap2\n      pop\n      pop\n      jump\t// out\n        /* \"contracts/ddddd.sol\":8800:8910  function getMoHPermissionCounter() public view returns(uint256) {\r... */\n    tag_169:\n        /* \"contracts/ddddd.sol\":8855:8862  uint256 */\n      0x0\n        /* \"contracts/ddddd.sol\":8882:8902  MoHPermissionCounter */\n      sload(0xd)\n        /* \"contracts/ddddd.sol\":8875:8902  return MoHPermissionCounter */\n      swap1\n      pop\n        /* \"contracts/ddddd.sol\":8800:8910  function getMoHPermissionCounter() public view returns(uint256) {\r... */\n      swap1\n      jump\t// out\n        /* \"contracts/ddddd.sol\":1129:1161  address[] public vaccinationList */\n    tag_174:\n      0x3\n      dup2\n      dup2\n      sload\n      dup2\n      lt\n      iszero\n      iszero\n      tag_319\n      jumpi\n      invalid\n    tag_319:\n      swap1\n      0x0\n      mstore\n      keccak256(0x0, 0x20)\n      add\n      0x0\n      swap2\n      pop\n      sload\n      swap1\n      0x100\n      exp\n      swap1\n      div\n      0xffffffffffffffffffffffffffffffffffffffff\n      and\n      dup2\n      jump\t// out\n        /* \"contracts/ddddd.sol\":91:9227  contract ddddd {\r... */\n    tag_209:\n      dup3\n      dup1\n      sload\n      0x1\n      dup2\n      0x1\n      and\n      iszero\n      0x100\n      mul\n      sub\n      and\n      0x2\n      swap1\n      div\n      swap1\n      0x0\n      mstore\n      keccak256(0x0, 0x20)\n      swap1\n      0x1f\n      add\n      0x20\n      swap1\n      div\n      dup2\n      add\n      swap3\n      dup3\n      0x1f\n      lt\n      tag_322\n      jumpi\n      dup1\n      mload\n      not(0xff)\n      and\n      dup4\n      dup1\n      add\n      or\n      dup6\n      sstore\n      jump(tag_321)\n    tag_322:\n      dup3\n      dup1\n      add\n      0x1\n      add\n      dup6\n      sstore\n      dup3\n      iszero\n      tag_321\n      jumpi\n      swap2\n      dup3\n      add\n    tag_323:\n      dup3\n      dup2\n      gt\n      iszero\n      tag_324\n      jumpi\n      dup3\n      mload\n      dup3\n      sstore\n      swap2\n      0x20\n      add\n      swap2\n      swap1\n      0x1\n      add\n      swap1\n      jump(tag_323)\n    tag_324:\n    tag_321:\n      pop\n      swap1\n      pop\n      tag_325\n      swap2\n      swap1\n      jump\t// in(tag_326)\n    tag_325:\n      pop\n      swap1\n      jump\t// out\n    tag_326:\n      tag_327\n      swap2\n      swap1\n    tag_328:\n      dup1\n      dup3\n      gt\n      iszero\n      tag_329\n      jumpi\n      0x0\n      dup2\n      0x0\n      swap1\n      sstore\n      pop\n      0x1\n      add\n      jump(tag_328)\n    tag_329:\n      pop\n      swap1\n      jump\n    tag_327:\n      swap1\n      jump\t// out\n        /* \"--CODEGEN--\":5:123   */\n    tag_331:\n      0x0\n        /* \"--CODEGEN--\":72:118   */\n      tag_332\n        /* \"--CODEGEN--\":110:116   */\n      dup3\n        /* \"--CODEGEN--\":97:117   */\n      calldataload\n        /* \"--CODEGEN--\":72:118   */\n      jump(tag_333)\n    tag_332:\n        /* \"--CODEGEN--\":63:118   */\n      swap1\n      pop\n        /* \"--CODEGEN--\":57:123   */\n      swap3\n      swap2\n      pop\n      pop\n      jump\n        /* \"--CODEGEN--\":131:573   */\n    tag_335:\n      0x0\n        /* \"--CODEGEN--\":233:236   */\n      dup3\n        /* \"--CODEGEN--\":226:230   */\n      0x1f\n        /* \"--CODEGEN--\":218:224   */\n      dup4\n        /* \"--CODEGEN--\":214:231   */\n      add\n        /* \"--CODEGEN--\":210:237   */\n      slt\n        /* \"--CODEGEN--\":203:238   */\n      iszero\n        /* \"--CODEGEN--\":200:202   */\n      iszero\n      tag_336\n      jumpi\n        /* \"--CODEGEN--\":251:252   */\n      0x0\n        /* \"--CODEGEN--\":248:249   */\n      dup1\n        /* \"--CODEGEN--\":241:253   */\n      revert\n        /* \"--CODEGEN--\":200:202   */\n    tag_336:\n        /* \"--CODEGEN--\":288:294   */\n      dup2\n        /* \"--CODEGEN--\":275:295   */\n      calldataload\n        /* \"--CODEGEN--\":310:375   */\n      tag_337\n        /* \"--CODEGEN--\":325:374   */\n      tag_338\n        /* \"--CODEGEN--\":367:373   */\n      dup3\n        /* \"--CODEGEN--\":325:374   */\n      jump(tag_339)\n    tag_338:\n        /* \"--CODEGEN--\":310:375   */\n      jump(tag_340)\n    tag_337:\n        /* \"--CODEGEN--\":301:375   */\n      swap2\n      pop\n        /* \"--CODEGEN--\":395:401   */\n      dup1\n        /* \"--CODEGEN--\":388:393   */\n      dup3\n        /* \"--CODEGEN--\":381:402   */\n      mstore\n        /* \"--CODEGEN--\":431:435   */\n      0x20\n        /* \"--CODEGEN--\":423:429   */\n      dup4\n        /* \"--CODEGEN--\":419:436   */\n      add\n        /* \"--CODEGEN--\":464:468   */\n      0x20\n        /* \"--CODEGEN--\":457:462   */\n      dup4\n        /* \"--CODEGEN--\":453:469   */\n      add\n        /* \"--CODEGEN--\":499:502   */\n      dup6\n        /* \"--CODEGEN--\":490:496   */\n      dup4\n        /* \"--CODEGEN--\":485:488   */\n      dup4\n        /* \"--CODEGEN--\":481:497   */\n      add\n        /* \"--CODEGEN--\":478:503   */\n      gt\n        /* \"--CODEGEN--\":475:477   */\n      iszero\n      tag_341\n      jumpi\n        /* \"--CODEGEN--\":516:517   */\n      0x0\n        /* \"--CODEGEN--\":513:514   */\n      dup1\n        /* \"--CODEGEN--\":506:518   */\n      revert\n        /* \"--CODEGEN--\":475:477   */\n    tag_341:\n        /* \"--CODEGEN--\":526:567   */\n      tag_342\n        /* \"--CODEGEN--\":560:566   */\n      dup4\n        /* \"--CODEGEN--\":555:558   */\n      dup3\n        /* \"--CODEGEN--\":550:553   */\n      dup5\n        /* \"--CODEGEN--\":526:567   */\n      jump(tag_343)\n    tag_342:\n        /* \"--CODEGEN--\":193:573   */\n      pop\n      pop\n      pop\n      swap3\n      swap2\n      pop\n      pop\n      jump\n        /* \"--CODEGEN--\":581:699   */\n    tag_345:\n      0x0\n        /* \"--CODEGEN--\":648:694   */\n      tag_346\n        /* \"--CODEGEN--\":686:692   */\n      dup3\n        /* \"--CODEGEN--\":673:693   */\n      calldataload\n        /* \"--CODEGEN--\":648:694   */\n      jump(tag_347)\n    tag_346:\n        /* \"--CODEGEN--\":639:694   */\n      swap1\n      pop\n        /* \"--CODEGEN--\":633:699   */\n      swap3\n      swap2\n      pop\n      pop\n      jump\n        /* \"--CODEGEN--\":706:947   */\n    tag_45:\n      0x0\n        /* \"--CODEGEN--\":810:812   */\n      0x20\n        /* \"--CODEGEN--\":798:807   */\n      dup3\n        /* \"--CODEGEN--\":789:796   */\n      dup5\n        /* \"--CODEGEN--\":785:808   */\n      sub\n        /* \"--CODEGEN--\":781:813   */\n      slt\n        /* \"--CODEGEN--\":778:780   */\n      iszero\n      tag_349\n      jumpi\n        /* \"--CODEGEN--\":826:827   */\n      0x0\n        /* \"--CODEGEN--\":823:824   */\n      dup1\n        /* \"--CODEGEN--\":816:828   */\n      revert\n        /* \"--CODEGEN--\":778:780   */\n    tag_349:\n        /* \"--CODEGEN--\":861:862   */\n      0x0\n        /* \"--CODEGEN--\":878:931   */\n      tag_350\n        /* \"--CODEGEN--\":923:930   */\n      dup5\n        /* \"--CODEGEN--\":914:920   */\n      dup3\n        /* \"--CODEGEN--\":903:912   */\n      dup6\n        /* \"--CODEGEN--\":899:921   */\n      add\n        /* \"--CODEGEN--\":878:931   */\n      jump(tag_331)\n    tag_350:\n        /* \"--CODEGEN--\":868:931   */\n      swap2\n      pop\n        /* \"--CODEGEN--\":840:937   */\n      pop\n        /* \"--CODEGEN--\":772:947   */\n      swap3\n      swap2\n      pop\n      pop\n      jump\n        /* \"--CODEGEN--\":954:1320   */\n    tag_150:\n      0x0\n      dup1\n        /* \"--CODEGEN--\":1075:1077   */\n      0x40\n        /* \"--CODEGEN--\":1063:1072   */\n      dup4\n        /* \"--CODEGEN--\":1054:1061   */\n      dup6\n        /* \"--CODEGEN--\":1050:1073   */\n      sub\n        /* \"--CODEGEN--\":1046:1078   */\n      slt\n        /* \"--CODEGEN--\":1043:1045   */\n      iszero\n      tag_352\n      jumpi\n        /* \"--CODEGEN--\":1091:1092   */\n      0x0\n        /* \"--CODEGEN--\":1088:1089   */\n      dup1\n        /* \"--CODEGEN--\":1081:1093   */\n      revert\n        /* \"--CODEGEN--\":1043:1045   */\n    tag_352:\n        /* \"--CODEGEN--\":1126:1127   */\n      0x0\n        /* \"--CODEGEN--\":1143:1196   */\n      tag_353\n        /* \"--CODEGEN--\":1188:1195   */\n      dup6\n        /* \"--CODEGEN--\":1179:1185   */\n      dup3\n        /* \"--CODEGEN--\":1168:1177   */\n      dup7\n        /* \"--CODEGEN--\":1164:1186   */\n      add\n        /* \"--CODEGEN--\":1143:1196   */\n      jump(tag_331)\n    tag_353:\n        /* \"--CODEGEN--\":1133:1196   */\n      swap3\n      pop\n        /* \"--CODEGEN--\":1105:1202   */\n      pop\n        /* \"--CODEGEN--\":1233:1235   */\n      0x20\n        /* \"--CODEGEN--\":1251:1304   */\n      tag_354\n        /* \"--CODEGEN--\":1296:1303   */\n      dup6\n        /* \"--CODEGEN--\":1287:1293   */\n      dup3\n        /* \"--CODEGEN--\":1276:1285   */\n      dup7\n        /* \"--CODEGEN--\":1272:1294   */\n      add\n        /* \"--CODEGEN--\":1251:1304   */\n      jump(tag_331)\n    tag_354:\n        /* \"--CODEGEN--\":1241:1304   */\n      swap2\n      pop\n        /* \"--CODEGEN--\":1212:1310   */\n      pop\n        /* \"--CODEGEN--\":1037:1320   */\n      swap3\n      pop\n      swap3\n      swap1\n      pop\n      jump\n        /* \"--CODEGEN--\":1327:2746   */\n    tag_78:\n      0x0\n      dup1\n      0x0\n      dup1\n      0x0\n      dup1\n      0x0\n        /* \"--CODEGEN--\":1573:1576   */\n      0xe0\n        /* \"--CODEGEN--\":1561:1570   */\n      dup9\n        /* \"--CODEGEN--\":1552:1559   */\n      dup11\n        /* \"--CODEGEN--\":1548:1571   */\n      sub\n        /* \"--CODEGEN--\":1544:1577   */\n      slt\n        /* \"--CODEGEN--\":1541:1543   */\n      iszero\n      tag_356\n      jumpi\n        /* \"--CODEGEN--\":1590:1591   */\n      0x0\n        /* \"--CODEGEN--\":1587:1588   */\n      dup1\n        /* \"--CODEGEN--\":1580:1592   */\n      revert\n        /* \"--CODEGEN--\":1541:1543   */\n    tag_356:\n        /* \"--CODEGEN--\":1625:1626   */\n      0x0\n        /* \"--CODEGEN--\":1642:1695   */\n      tag_357\n        /* \"--CODEGEN--\":1687:1694   */\n      dup11\n        /* \"--CODEGEN--\":1678:1684   */\n      dup3\n        /* \"--CODEGEN--\":1667:1676   */\n      dup12\n        /* \"--CODEGEN--\":1663:1685   */\n      add\n        /* \"--CODEGEN--\":1642:1695   */\n      jump(tag_331)\n    tag_357:\n        /* \"--CODEGEN--\":1632:1695   */\n      swap8\n      pop\n        /* \"--CODEGEN--\":1604:1701   */\n      pop\n        /* \"--CODEGEN--\":1732:1734   */\n      0x20\n        /* \"--CODEGEN--\":1750:1803   */\n      tag_358\n        /* \"--CODEGEN--\":1795:1802   */\n      dup11\n        /* \"--CODEGEN--\":1786:1792   */\n      dup3\n        /* \"--CODEGEN--\":1775:1784   */\n      dup12\n        /* \"--CODEGEN--\":1771:1793   */\n      add\n        /* \"--CODEGEN--\":1750:1803   */\n      jump(tag_331)\n    tag_358:\n        /* \"--CODEGEN--\":1740:1803   */\n      swap7\n      pop\n        /* \"--CODEGEN--\":1711:1809   */\n      pop\n        /* \"--CODEGEN--\":1868:1870   */\n      0x40\n        /* \"--CODEGEN--\":1857:1866   */\n      dup9\n        /* \"--CODEGEN--\":1853:1871   */\n      add\n        /* \"--CODEGEN--\":1840:1872   */\n      calldataload\n        /* \"--CODEGEN--\":1892:1910   */\n      0xffffffffffffffff\n        /* \"--CODEGEN--\":1884:1890   */\n      dup2\n        /* \"--CODEGEN--\":1881:1911   */\n      gt\n        /* \"--CODEGEN--\":1878:1880   */\n      iszero\n      tag_359\n      jumpi\n        /* \"--CODEGEN--\":1924:1925   */\n      0x0\n        /* \"--CODEGEN--\":1921:1922   */\n      dup1\n        /* \"--CODEGEN--\":1914:1926   */\n      revert\n        /* \"--CODEGEN--\":1878:1880   */\n    tag_359:\n        /* \"--CODEGEN--\":1944:2007   */\n      tag_360\n        /* \"--CODEGEN--\":1999:2006   */\n      dup11\n        /* \"--CODEGEN--\":1990:1996   */\n      dup3\n        /* \"--CODEGEN--\":1979:1988   */\n      dup12\n        /* \"--CODEGEN--\":1975:1997   */\n      add\n        /* \"--CODEGEN--\":1944:2007   */\n      jump(tag_335)\n    tag_360:\n        /* \"--CODEGEN--\":1934:2007   */\n      swap6\n      pop\n        /* \"--CODEGEN--\":1819:2013   */\n      pop\n        /* \"--CODEGEN--\":2072:2074   */\n      0x60\n        /* \"--CODEGEN--\":2061:2070   */\n      dup9\n        /* \"--CODEGEN--\":2057:2075   */\n      add\n        /* \"--CODEGEN--\":2044:2076   */\n      calldataload\n        /* \"--CODEGEN--\":2096:2114   */\n      0xffffffffffffffff\n        /* \"--CODEGEN--\":2088:2094   */\n      dup2\n        /* \"--CODEGEN--\":2085:2115   */\n      gt\n        /* \"--CODEGEN--\":2082:2084   */\n      iszero\n      tag_361\n      jumpi\n        /* \"--CODEGEN--\":2128:2129   */\n      0x0\n        /* \"--CODEGEN--\":2125:2126   */\n      dup1\n        /* \"--CODEGEN--\":2118:2130   */\n      revert\n        /* \"--CODEGEN--\":2082:2084   */\n    tag_361:\n        /* \"--CODEGEN--\":2148:2211   */\n      tag_362\n        /* \"--CODEGEN--\":2203:2210   */\n      dup11\n        /* \"--CODEGEN--\":2194:2200   */\n      dup3\n        /* \"--CODEGEN--\":2183:2192   */\n      dup12\n        /* \"--CODEGEN--\":2179:2201   */\n      add\n        /* \"--CODEGEN--\":2148:2211   */\n      jump(tag_335)\n    tag_362:\n        /* \"--CODEGEN--\":2138:2211   */\n      swap5\n      pop\n        /* \"--CODEGEN--\":2023:2217   */\n      pop\n        /* \"--CODEGEN--\":2276:2279   */\n      0x80\n        /* \"--CODEGEN--\":2265:2274   */\n      dup9\n        /* \"--CODEGEN--\":2261:2280   */\n      add\n        /* \"--CODEGEN--\":2248:2281   */\n      calldataload\n        /* \"--CODEGEN--\":2301:2319   */\n      0xffffffffffffffff\n        /* \"--CODEGEN--\":2293:2299   */\n      dup2\n        /* \"--CODEGEN--\":2290:2320   */\n      gt\n        /* \"--CODEGEN--\":2287:2289   */\n      iszero\n      tag_363\n      jumpi\n        /* \"--CODEGEN--\":2333:2334   */\n      0x0\n        /* \"--CODEGEN--\":2330:2331   */\n      dup1\n        /* \"--CODEGEN--\":2323:2335   */\n      revert\n        /* \"--CODEGEN--\":2287:2289   */\n    tag_363:\n        /* \"--CODEGEN--\":2353:2416   */\n      tag_364\n        /* \"--CODEGEN--\":2408:2415   */\n      dup11\n        /* \"--CODEGEN--\":2399:2405   */\n      dup3\n        /* \"--CODEGEN--\":2388:2397   */\n      dup12\n        /* \"--CODEGEN--\":2384:2406   */\n      add\n        /* \"--CODEGEN--\":2353:2416   */\n      jump(tag_335)\n    tag_364:\n        /* \"--CODEGEN--\":2343:2416   */\n      swap4\n      pop\n        /* \"--CODEGEN--\":2227:2422   */\n      pop\n        /* \"--CODEGEN--\":2481:2484   */\n      0xa0\n        /* \"--CODEGEN--\":2470:2479   */\n      dup9\n        /* \"--CODEGEN--\":2466:2485   */\n      add\n        /* \"--CODEGEN--\":2453:2486   */\n      calldataload\n        /* \"--CODEGEN--\":2506:2524   */\n      0xffffffffffffffff\n        /* \"--CODEGEN--\":2498:2504   */\n      dup2\n        /* \"--CODEGEN--\":2495:2525   */\n      gt\n        /* \"--CODEGEN--\":2492:2494   */\n      iszero\n      tag_365\n      jumpi\n        /* \"--CODEGEN--\":2538:2539   */\n      0x0\n        /* \"--CODEGEN--\":2535:2536   */\n      dup1\n        /* \"--CODEGEN--\":2528:2540   */\n      revert\n        /* \"--CODEGEN--\":2492:2494   */\n    tag_365:\n        /* \"--CODEGEN--\":2558:2621   */\n      tag_366\n        /* \"--CODEGEN--\":2613:2620   */\n      dup11\n        /* \"--CODEGEN--\":2604:2610   */\n      dup3\n        /* \"--CODEGEN--\":2593:2602   */\n      dup12\n        /* \"--CODEGEN--\":2589:2611   */\n      add\n        /* \"--CODEGEN--\":2558:2621   */\n      jump(tag_335)\n    tag_366:\n        /* \"--CODEGEN--\":2548:2621   */\n      swap3\n      pop\n        /* \"--CODEGEN--\":2432:2627   */\n      pop\n        /* \"--CODEGEN--\":2658:2661   */\n      0xc0\n        /* \"--CODEGEN--\":2677:2730   */\n      tag_367\n        /* \"--CODEGEN--\":2722:2729   */\n      dup11\n        /* \"--CODEGEN--\":2713:2719   */\n      dup3\n        /* \"--CODEGEN--\":2702:2711   */\n      dup12\n        /* \"--CODEGEN--\":2698:2720   */\n      add\n        /* \"--CODEGEN--\":2677:2730   */\n      jump(tag_345)\n    tag_367:\n        /* \"--CODEGEN--\":2667:2730   */\n      swap2\n      pop\n        /* \"--CODEGEN--\":2637:2736   */\n      pop\n        /* \"--CODEGEN--\":1535:2746   */\n      swap3\n      swap6\n      swap9\n      swap2\n      swap5\n      swap8\n      pop\n      swap3\n      swap6\n      pop\n      jump\n        /* \"--CODEGEN--\":2753:4616   */\n    tag_63:\n      0x0\n      dup1\n      0x0\n      dup1\n      0x0\n      dup1\n      0x0\n      dup1\n        /* \"--CODEGEN--\":3046:3049   */\n      0x100\n        /* \"--CODEGEN--\":3034:3043   */\n      dup10\n        /* \"--CODEGEN--\":3025:3032   */\n      dup12\n        /* \"--CODEGEN--\":3021:3044   */\n      sub\n        /* \"--CODEGEN--\":3017:3050   */\n      slt\n        /* \"--CODEGEN--\":3014:3016   */\n      iszero\n      tag_369\n      jumpi\n        /* \"--CODEGEN--\":3063:3064   */\n      0x0\n        /* \"--CODEGEN--\":3060:3061   */\n      dup1\n        /* \"--CODEGEN--\":3053:3065   */\n      revert\n        /* \"--CODEGEN--\":3014:3016   */\n    tag_369:\n        /* \"--CODEGEN--\":3098:3099   */\n      0x0\n        /* \"--CODEGEN--\":3115:3168   */\n      tag_370\n        /* \"--CODEGEN--\":3160:3167   */\n      dup12\n        /* \"--CODEGEN--\":3151:3157   */\n      dup3\n        /* \"--CODEGEN--\":3140:3149   */\n      dup13\n        /* \"--CODEGEN--\":3136:3158   */\n      add\n        /* \"--CODEGEN--\":3115:3168   */\n      jump(tag_331)\n    tag_370:\n        /* \"--CODEGEN--\":3105:3168   */\n      swap9\n      pop\n        /* \"--CODEGEN--\":3077:3174   */\n      pop\n        /* \"--CODEGEN--\":3233:3235   */\n      0x20\n        /* \"--CODEGEN--\":3222:3231   */\n      dup10\n        /* \"--CODEGEN--\":3218:3236   */\n      add\n        /* \"--CODEGEN--\":3205:3237   */\n      calldataload\n        /* \"--CODEGEN--\":3257:3275   */\n      0xffffffffffffffff\n        /* \"--CODEGEN--\":3249:3255   */\n      dup2\n        /* \"--CODEGEN--\":3246:3276   */\n      gt\n        /* \"--CODEGEN--\":3243:3245   */\n      iszero\n      tag_371\n      jumpi\n        /* \"--CODEGEN--\":3289:3290   */\n      0x0\n        /* \"--CODEGEN--\":3286:3287   */\n      dup1\n        /* \"--CODEGEN--\":3279:3291   */\n      revert\n        /* \"--CODEGEN--\":3243:3245   */\n    tag_371:\n        /* \"--CODEGEN--\":3309:3372   */\n      tag_372\n        /* \"--CODEGEN--\":3364:3371   */\n      dup12\n        /* \"--CODEGEN--\":3355:3361   */\n      dup3\n        /* \"--CODEGEN--\":3344:3353   */\n      dup13\n        /* \"--CODEGEN--\":3340:3362   */\n      add\n        /* \"--CODEGEN--\":3309:3372   */\n      jump(tag_335)\n    tag_372:\n        /* \"--CODEGEN--\":3299:3372   */\n      swap8\n      pop\n        /* \"--CODEGEN--\":3184:3378   */\n      pop\n        /* \"--CODEGEN--\":3437:3439   */\n      0x40\n        /* \"--CODEGEN--\":3426:3435   */\n      dup10\n        /* \"--CODEGEN--\":3422:3440   */\n      add\n        /* \"--CODEGEN--\":3409:3441   */\n      calldataload\n        /* \"--CODEGEN--\":3461:3479   */\n      0xffffffffffffffff\n        /* \"--CODEGEN--\":3453:3459   */\n      dup2\n        /* \"--CODEGEN--\":3450:3480   */\n      gt\n        /* \"--CODEGEN--\":3447:3449   */\n      iszero\n      tag_373\n      jumpi\n        /* \"--CODEGEN--\":3493:3494   */\n      0x0\n        /* \"--CODEGEN--\":3490:3491   */\n      dup1\n        /* \"--CODEGEN--\":3483:3495   */\n      revert\n        /* \"--CODEGEN--\":3447:3449   */\n    tag_373:\n        /* \"--CODEGEN--\":3513:3576   */\n      tag_374\n        /* \"--CODEGEN--\":3568:3575   */\n      dup12\n        /* \"--CODEGEN--\":3559:3565   */\n      dup3\n        /* \"--CODEGEN--\":3548:3557   */\n      dup13\n        /* \"--CODEGEN--\":3544:3566   */\n      add\n        /* \"--CODEGEN--\":3513:3576   */\n      jump(tag_335)\n    tag_374:\n        /* \"--CODEGEN--\":3503:3576   */\n      swap7\n      pop\n        /* \"--CODEGEN--\":3388:3582   */\n      pop\n        /* \"--CODEGEN--\":3641:3643   */\n      0x60\n        /* \"--CODEGEN--\":3630:3639   */\n      dup10\n        /* \"--CODEGEN--\":3626:3644   */\n      add\n        /* \"--CODEGEN--\":3613:3645   */\n      calldataload\n        /* \"--CODEGEN--\":3665:3683   */\n      0xffffffffffffffff\n        /* \"--CODEGEN--\":3657:3663   */\n      dup2\n        /* \"--CODEGEN--\":3654:3684   */\n      gt\n        /* \"--CODEGEN--\":3651:3653   */\n      iszero\n      tag_375\n      jumpi\n        /* \"--CODEGEN--\":3697:3698   */\n      0x0\n        /* \"--CODEGEN--\":3694:3695   */\n      dup1\n        /* \"--CODEGEN--\":3687:3699   */\n      revert\n        /* \"--CODEGEN--\":3651:3653   */\n    tag_375:\n        /* \"--CODEGEN--\":3717:3780   */\n      tag_376\n        /* \"--CODEGEN--\":3772:3779   */\n      dup12\n        /* \"--CODEGEN--\":3763:3769   */\n      dup3\n        /* \"--CODEGEN--\":3752:3761   */\n      dup13\n        /* \"--CODEGEN--\":3748:3770   */\n      add\n        /* \"--CODEGEN--\":3717:3780   */\n      jump(tag_335)\n    tag_376:\n        /* \"--CODEGEN--\":3707:3780   */\n      swap6\n      pop\n        /* \"--CODEGEN--\":3592:3786   */\n      pop\n        /* \"--CODEGEN--\":3845:3848   */\n      0x80\n        /* \"--CODEGEN--\":3834:3843   */\n      dup10\n        /* \"--CODEGEN--\":3830:3849   */\n      add\n        /* \"--CODEGEN--\":3817:3850   */\n      calldataload\n        /* \"--CODEGEN--\":3870:3888   */\n      0xffffffffffffffff\n        /* \"--CODEGEN--\":3862:3868   */\n      dup2\n        /* \"--CODEGEN--\":3859:3889   */\n      gt\n        /* \"--CODEGEN--\":3856:3858   */\n      iszero\n      tag_377\n      jumpi\n        /* \"--CODEGEN--\":3902:3903   */\n      0x0\n        /* \"--CODEGEN--\":3899:3900   */\n      dup1\n        /* \"--CODEGEN--\":3892:3904   */\n      revert\n        /* \"--CODEGEN--\":3856:3858   */\n    tag_377:\n        /* \"--CODEGEN--\":3922:3985   */\n      tag_378\n        /* \"--CODEGEN--\":3977:3984   */\n      dup12\n        /* \"--CODEGEN--\":3968:3974   */\n      dup3\n        /* \"--CODEGEN--\":3957:3966   */\n      dup13\n        /* \"--CODEGEN--\":3953:3975   */\n      add\n        /* \"--CODEGEN--\":3922:3985   */\n      jump(tag_335)\n    tag_378:\n        /* \"--CODEGEN--\":3912:3985   */\n      swap5\n      pop\n        /* \"--CODEGEN--\":3796:3991   */\n      pop\n        /* \"--CODEGEN--\":4050:4053   */\n      0xa0\n        /* \"--CODEGEN--\":4039:4048   */\n      dup10\n        /* \"--CODEGEN--\":4035:4054   */\n      add\n        /* \"--CODEGEN--\":4022:4055   */\n      calldataload\n        /* \"--CODEGEN--\":4075:4093   */\n      0xffffffffffffffff\n        /* \"--CODEGEN--\":4067:4073   */\n      dup2\n        /* \"--CODEGEN--\":4064:4094   */\n      gt\n        /* \"--CODEGEN--\":4061:4063   */\n      iszero\n      tag_379\n      jumpi\n        /* \"--CODEGEN--\":4107:4108   */\n      0x0\n        /* \"--CODEGEN--\":4104:4105   */\n      dup1\n        /* \"--CODEGEN--\":4097:4109   */\n      revert\n        /* \"--CODEGEN--\":4061:4063   */\n    tag_379:\n        /* \"--CODEGEN--\":4127:4190   */\n      tag_380\n        /* \"--CODEGEN--\":4182:4189   */\n      dup12\n        /* \"--CODEGEN--\":4173:4179   */\n      dup3\n        /* \"--CODEGEN--\":4162:4171   */\n      dup13\n        /* \"--CODEGEN--\":4158:4180   */\n      add\n        /* \"--CODEGEN--\":4127:4190   */\n      jump(tag_335)\n    tag_380:\n        /* \"--CODEGEN--\":4117:4190   */\n      swap4\n      pop\n        /* \"--CODEGEN--\":4001:4196   */\n      pop\n        /* \"--CODEGEN--\":4255:4258   */\n      0xc0\n        /* \"--CODEGEN--\":4244:4253   */\n      dup10\n        /* \"--CODEGEN--\":4240:4259   */\n      add\n        /* \"--CODEGEN--\":4227:4260   */\n      calldataload\n        /* \"--CODEGEN--\":4280:4298   */\n      0xffffffffffffffff\n        /* \"--CODEGEN--\":4272:4278   */\n      dup2\n        /* \"--CODEGEN--\":4269:4299   */\n      gt\n        /* \"--CODEGEN--\":4266:4268   */\n      iszero\n      tag_381\n      jumpi\n        /* \"--CODEGEN--\":4312:4313   */\n      0x0\n        /* \"--CODEGEN--\":4309:4310   */\n      dup1\n        /* \"--CODEGEN--\":4302:4314   */\n      revert\n        /* \"--CODEGEN--\":4266:4268   */\n    tag_381:\n        /* \"--CODEGEN--\":4332:4395   */\n      tag_382\n        /* \"--CODEGEN--\":4387:4394   */\n      dup12\n        /* \"--CODEGEN--\":4378:4384   */\n      dup3\n        /* \"--CODEGEN--\":4367:4376   */\n      dup13\n        /* \"--CODEGEN--\":4363:4385   */\n      add\n        /* \"--CODEGEN--\":4332:4395   */\n      jump(tag_335)\n    tag_382:\n        /* \"--CODEGEN--\":4322:4395   */\n      swap3\n      pop\n        /* \"--CODEGEN--\":4206:4401   */\n      pop\n        /* \"--CODEGEN--\":4460:4463   */\n      0xe0\n        /* \"--CODEGEN--\":4449:4458   */\n      dup10\n        /* \"--CODEGEN--\":4445:4464   */\n      add\n        /* \"--CODEGEN--\":4432:4465   */\n      calldataload\n        /* \"--CODEGEN--\":4485:4503   */\n      0xffffffffffffffff\n        /* \"--CODEGEN--\":4477:4483   */\n      dup2\n        /* \"--CODEGEN--\":4474:4504   */\n      gt\n        /* \"--CODEGEN--\":4471:4473   */\n      iszero\n      tag_383\n      jumpi\n        /* \"--CODEGEN--\":4517:4518   */\n      0x0\n        /* \"--CODEGEN--\":4514:4515   */\n      dup1\n        /* \"--CODEGEN--\":4507:4519   */\n      revert\n        /* \"--CODEGEN--\":4471:4473   */\n    tag_383:\n        /* \"--CODEGEN--\":4537:4600   */\n      tag_384\n        /* \"--CODEGEN--\":4592:4599   */\n      dup12\n        /* \"--CODEGEN--\":4583:4589   */\n      dup3\n        /* \"--CODEGEN--\":4572:4581   */\n      dup13\n        /* \"--CODEGEN--\":4568:4590   */\n      add\n        /* \"--CODEGEN--\":4537:4600   */\n      jump(tag_335)\n    tag_384:\n        /* \"--CODEGEN--\":4527:4600   */\n      swap2\n      pop\n        /* \"--CODEGEN--\":4411:4606   */\n      pop\n        /* \"--CODEGEN--\":3008:4616   */\n      swap3\n      swap6\n      swap9\n      pop\n      swap3\n      swap6\n      swap9\n      swap1\n      swap4\n      swap7\n      pop\n      jump\n        /* \"--CODEGEN--\":4623:6950   */\n    tag_89:\n      0x0\n      dup1\n      0x0\n      dup1\n      0x0\n      dup1\n      0x0\n      dup1\n      0x0\n      dup1\n        /* \"--CODEGEN--\":4970:4973   */\n      0x140\n        /* \"--CODEGEN--\":4958:4967   */\n      dup12\n        /* \"--CODEGEN--\":4949:4956   */\n      dup14\n        /* \"--CODEGEN--\":4945:4968   */\n      sub\n        /* \"--CODEGEN--\":4941:4974   */\n      slt\n        /* \"--CODEGEN--\":4938:4940   */\n      iszero\n      tag_386\n      jumpi\n        /* \"--CODEGEN--\":4987:4988   */\n      0x0\n        /* \"--CODEGEN--\":4984:4985   */\n      dup1\n        /* \"--CODEGEN--\":4977:4989   */\n      revert\n        /* \"--CODEGEN--\":4938:4940   */\n    tag_386:\n        /* \"--CODEGEN--\":5022:5023   */\n      0x0\n        /* \"--CODEGEN--\":5039:5092   */\n      tag_387\n        /* \"--CODEGEN--\":5084:5091   */\n      dup14\n        /* \"--CODEGEN--\":5075:5081   */\n      dup3\n        /* \"--CODEGEN--\":5064:5073   */\n      dup15\n        /* \"--CODEGEN--\":5060:5082   */\n      add\n        /* \"--CODEGEN--\":5039:5092   */\n      jump(tag_331)\n    tag_387:\n        /* \"--CODEGEN--\":5029:5092   */\n      swap11\n      pop\n        /* \"--CODEGEN--\":5001:5098   */\n      pop\n        /* \"--CODEGEN--\":5157:5159   */\n      0x20\n        /* \"--CODEGEN--\":5146:5155   */\n      dup12\n        /* \"--CODEGEN--\":5142:5160   */\n      add\n        /* \"--CODEGEN--\":5129:5161   */\n      calldataload\n        /* \"--CODEGEN--\":5181:5199   */\n      0xffffffffffffffff\n        /* \"--CODEGEN--\":5173:5179   */\n      dup2\n        /* \"--CODEGEN--\":5170:5200   */\n      gt\n        /* \"--CODEGEN--\":5167:5169   */\n      iszero\n      tag_388\n      jumpi\n        /* \"--CODEGEN--\":5213:5214   */\n      0x0\n        /* \"--CODEGEN--\":5210:5211   */\n      dup1\n        /* \"--CODEGEN--\":5203:5215   */\n      revert\n        /* \"--CODEGEN--\":5167:5169   */\n    tag_388:\n        /* \"--CODEGEN--\":5233:5296   */\n      tag_389\n        /* \"--CODEGEN--\":5288:5295   */\n      dup14\n        /* \"--CODEGEN--\":5279:5285   */\n      dup3\n        /* \"--CODEGEN--\":5268:5277   */\n      dup15\n        /* \"--CODEGEN--\":5264:5286   */\n      add\n        /* \"--CODEGEN--\":5233:5296   */\n      jump(tag_335)\n    tag_389:\n        /* \"--CODEGEN--\":5223:5296   */\n      swap10\n      pop\n        /* \"--CODEGEN--\":5108:5302   */\n      pop\n        /* \"--CODEGEN--\":5361:5363   */\n      0x40\n        /* \"--CODEGEN--\":5350:5359   */\n      dup12\n        /* \"--CODEGEN--\":5346:5364   */\n      add\n        /* \"--CODEGEN--\":5333:5365   */\n      calldataload\n        /* \"--CODEGEN--\":5385:5403   */\n      0xffffffffffffffff\n        /* \"--CODEGEN--\":5377:5383   */\n      dup2\n        /* \"--CODEGEN--\":5374:5404   */\n      gt\n        /* \"--CODEGEN--\":5371:5373   */\n      iszero\n      tag_390\n      jumpi\n        /* \"--CODEGEN--\":5417:5418   */\n      0x0\n        /* \"--CODEGEN--\":5414:5415   */\n      dup1\n        /* \"--CODEGEN--\":5407:5419   */\n      revert\n        /* \"--CODEGEN--\":5371:5373   */\n    tag_390:\n        /* \"--CODEGEN--\":5437:5500   */\n      tag_391\n        /* \"--CODEGEN--\":5492:5499   */\n      dup14\n        /* \"--CODEGEN--\":5483:5489   */\n      dup3\n        /* \"--CODEGEN--\":5472:5481   */\n      dup15\n        /* \"--CODEGEN--\":5468:5490   */\n      add\n        /* \"--CODEGEN--\":5437:5500   */\n      jump(tag_335)\n    tag_391:\n        /* \"--CODEGEN--\":5427:5500   */\n      swap9\n      pop\n        /* \"--CODEGEN--\":5312:5506   */\n      pop\n        /* \"--CODEGEN--\":5565:5567   */\n      0x60\n        /* \"--CODEGEN--\":5554:5563   */\n      dup12\n        /* \"--CODEGEN--\":5550:5568   */\n      add\n        /* \"--CODEGEN--\":5537:5569   */\n      calldataload\n        /* \"--CODEGEN--\":5589:5607   */\n      0xffffffffffffffff\n        /* \"--CODEGEN--\":5581:5587   */\n      dup2\n        /* \"--CODEGEN--\":5578:5608   */\n      gt\n        /* \"--CODEGEN--\":5575:5577   */\n      iszero\n      tag_392\n      jumpi\n        /* \"--CODEGEN--\":5621:5622   */\n      0x0\n        /* \"--CODEGEN--\":5618:5619   */\n      dup1\n        /* \"--CODEGEN--\":5611:5623   */\n      revert\n        /* \"--CODEGEN--\":5575:5577   */\n    tag_392:\n        /* \"--CODEGEN--\":5641:5704   */\n      tag_393\n        /* \"--CODEGEN--\":5696:5703   */\n      dup14\n        /* \"--CODEGEN--\":5687:5693   */\n      dup3\n        /* \"--CODEGEN--\":5676:5685   */\n      dup15\n        /* \"--CODEGEN--\":5672:5694   */\n      add\n        /* \"--CODEGEN--\":5641:5704   */\n      jump(tag_335)\n    tag_393:\n        /* \"--CODEGEN--\":5631:5704   */\n      swap8\n      pop\n        /* \"--CODEGEN--\":5516:5710   */\n      pop\n        /* \"--CODEGEN--\":5769:5772   */\n      0x80\n        /* \"--CODEGEN--\":5758:5767   */\n      dup12\n        /* \"--CODEGEN--\":5754:5773   */\n      add\n        /* \"--CODEGEN--\":5741:5774   */\n      calldataload\n        /* \"--CODEGEN--\":5794:5812   */\n      0xffffffffffffffff\n        /* \"--CODEGEN--\":5786:5792   */\n      dup2\n        /* \"--CODEGEN--\":5783:5813   */\n      gt\n        /* \"--CODEGEN--\":5780:5782   */\n      iszero\n      tag_394\n      jumpi\n        /* \"--CODEGEN--\":5826:5827   */\n      0x0\n        /* \"--CODEGEN--\":5823:5824   */\n      dup1\n        /* \"--CODEGEN--\":5816:5828   */\n      revert\n        /* \"--CODEGEN--\":5780:5782   */\n    tag_394:\n        /* \"--CODEGEN--\":5846:5909   */\n      tag_395\n        /* \"--CODEGEN--\":5901:5908   */\n      dup14\n        /* \"--CODEGEN--\":5892:5898   */\n      dup3\n        /* \"--CODEGEN--\":5881:5890   */\n      dup15\n        /* \"--CODEGEN--\":5877:5899   */\n      add\n        /* \"--CODEGEN--\":5846:5909   */\n      jump(tag_335)\n    tag_395:\n        /* \"--CODEGEN--\":5836:5909   */\n      swap7\n      pop\n        /* \"--CODEGEN--\":5720:5915   */\n      pop\n        /* \"--CODEGEN--\":5974:5977   */\n      0xa0\n        /* \"--CODEGEN--\":5963:5972   */\n      dup12\n        /* \"--CODEGEN--\":5959:5978   */\n      add\n        /* \"--CODEGEN--\":5946:5979   */\n      calldataload\n        /* \"--CODEGEN--\":5999:6017   */\n      0xffffffffffffffff\n        /* \"--CODEGEN--\":5991:5997   */\n      dup2\n        /* \"--CODEGEN--\":5988:6018   */\n      gt\n        /* \"--CODEGEN--\":5985:5987   */\n      iszero\n      tag_396\n      jumpi\n        /* \"--CODEGEN--\":6031:6032   */\n      0x0\n        /* \"--CODEGEN--\":6028:6029   */\n      dup1\n        /* \"--CODEGEN--\":6021:6033   */\n      revert\n        /* \"--CODEGEN--\":5985:5987   */\n    tag_396:\n        /* \"--CODEGEN--\":6051:6114   */\n      tag_397\n        /* \"--CODEGEN--\":6106:6113   */\n      dup14\n        /* \"--CODEGEN--\":6097:6103   */\n      dup3\n        /* \"--CODEGEN--\":6086:6095   */\n      dup15\n        /* \"--CODEGEN--\":6082:6104   */\n      add\n        /* \"--CODEGEN--\":6051:6114   */\n      jump(tag_335)\n    tag_397:\n        /* \"--CODEGEN--\":6041:6114   */\n      swap6\n      pop\n        /* \"--CODEGEN--\":5925:6120   */\n      pop\n        /* \"--CODEGEN--\":6179:6182   */\n      0xc0\n        /* \"--CODEGEN--\":6168:6177   */\n      dup12\n        /* \"--CODEGEN--\":6164:6183   */\n      add\n        /* \"--CODEGEN--\":6151:6184   */\n      calldataload\n        /* \"--CODEGEN--\":6204:6222   */\n      0xffffffffffffffff\n        /* \"--CODEGEN--\":6196:6202   */\n      dup2\n        /* \"--CODEGEN--\":6193:6223   */\n      gt\n        /* \"--CODEGEN--\":6190:6192   */\n      iszero\n      tag_398\n      jumpi\n        /* \"--CODEGEN--\":6236:6237   */\n      0x0\n        /* \"--CODEGEN--\":6233:6234   */\n      dup1\n        /* \"--CODEGEN--\":6226:6238   */\n      revert\n        /* \"--CODEGEN--\":6190:6192   */\n    tag_398:\n        /* \"--CODEGEN--\":6256:6319   */\n      tag_399\n        /* \"--CODEGEN--\":6311:6318   */\n      dup14\n        /* \"--CODEGEN--\":6302:6308   */\n      dup3\n        /* \"--CODEGEN--\":6291:6300   */\n      dup15\n        /* \"--CODEGEN--\":6287:6309   */\n      add\n        /* \"--CODEGEN--\":6256:6319   */\n      jump(tag_335)\n    tag_399:\n        /* \"--CODEGEN--\":6246:6319   */\n      swap5\n      pop\n        /* \"--CODEGEN--\":6130:6325   */\n      pop\n        /* \"--CODEGEN--\":6384:6387   */\n      0xe0\n        /* \"--CODEGEN--\":6373:6382   */\n      dup12\n        /* \"--CODEGEN--\":6369:6388   */\n      add\n        /* \"--CODEGEN--\":6356:6389   */\n      calldataload\n        /* \"--CODEGEN--\":6409:6427   */\n      0xffffffffffffffff\n        /* \"--CODEGEN--\":6401:6407   */\n      dup2\n        /* \"--CODEGEN--\":6398:6428   */\n      gt\n        /* \"--CODEGEN--\":6395:6397   */\n      iszero\n      tag_400\n      jumpi\n        /* \"--CODEGEN--\":6441:6442   */\n      0x0\n        /* \"--CODEGEN--\":6438:6439   */\n      dup1\n        /* \"--CODEGEN--\":6431:6443   */\n      revert\n        /* \"--CODEGEN--\":6395:6397   */\n    tag_400:\n        /* \"--CODEGEN--\":6461:6524   */\n      tag_401\n        /* \"--CODEGEN--\":6516:6523   */\n      dup14\n        /* \"--CODEGEN--\":6507:6513   */\n      dup3\n        /* \"--CODEGEN--\":6496:6505   */\n      dup15\n        /* \"--CODEGEN--\":6492:6514   */\n      add\n        /* \"--CODEGEN--\":6461:6524   */\n      jump(tag_335)\n    tag_401:\n        /* \"--CODEGEN--\":6451:6524   */\n      swap4\n      pop\n        /* \"--CODEGEN--\":6335:6530   */\n      pop\n        /* \"--CODEGEN--\":6589:6592   */\n      0x100\n        /* \"--CODEGEN--\":6578:6587   */\n      dup12\n        /* \"--CODEGEN--\":6574:6593   */\n      add\n        /* \"--CODEGEN--\":6561:6594   */\n      calldataload\n        /* \"--CODEGEN--\":6614:6632   */\n      0xffffffffffffffff\n        /* \"--CODEGEN--\":6606:6612   */\n      dup2\n        /* \"--CODEGEN--\":6603:6633   */\n      gt\n        /* \"--CODEGEN--\":6600:6602   */\n      iszero\n      tag_402\n      jumpi\n        /* \"--CODEGEN--\":6646:6647   */\n      0x0\n        /* \"--CODEGEN--\":6643:6644   */\n      dup1\n        /* \"--CODEGEN--\":6636:6648   */\n      revert\n        /* \"--CODEGEN--\":6600:6602   */\n    tag_402:\n        /* \"--CODEGEN--\":6666:6729   */\n      tag_403\n        /* \"--CODEGEN--\":6721:6728   */\n      dup14\n        /* \"--CODEGEN--\":6712:6718   */\n      dup3\n        /* \"--CODEGEN--\":6701:6710   */\n      dup15\n        /* \"--CODEGEN--\":6697:6719   */\n      add\n        /* \"--CODEGEN--\":6666:6729   */\n      jump(tag_335)\n    tag_403:\n        /* \"--CODEGEN--\":6656:6729   */\n      swap3\n      pop\n        /* \"--CODEGEN--\":6540:6735   */\n      pop\n        /* \"--CODEGEN--\":6794:6797   */\n      0x120\n        /* \"--CODEGEN--\":6783:6792   */\n      dup12\n        /* \"--CODEGEN--\":6779:6798   */\n      add\n        /* \"--CODEGEN--\":6766:6799   */\n      calldataload\n        /* \"--CODEGEN--\":6819:6837   */\n      0xffffffffffffffff\n        /* \"--CODEGEN--\":6811:6817   */\n      dup2\n        /* \"--CODEGEN--\":6808:6838   */\n      gt\n        /* \"--CODEGEN--\":6805:6807   */\n      iszero\n      tag_404\n      jumpi\n        /* \"--CODEGEN--\":6851:6852   */\n      0x0\n        /* \"--CODEGEN--\":6848:6849   */\n      dup1\n        /* \"--CODEGEN--\":6841:6853   */\n      revert\n        /* \"--CODEGEN--\":6805:6807   */\n    tag_404:\n        /* \"--CODEGEN--\":6871:6934   */\n      tag_405\n        /* \"--CODEGEN--\":6926:6933   */\n      dup14\n        /* \"--CODEGEN--\":6917:6923   */\n      dup3\n        /* \"--CODEGEN--\":6906:6915   */\n      dup15\n        /* \"--CODEGEN--\":6902:6924   */\n      add\n        /* \"--CODEGEN--\":6871:6934   */\n      jump(tag_335)\n    tag_405:\n        /* \"--CODEGEN--\":6861:6934   */\n      swap2\n      pop\n        /* \"--CODEGEN--\":6745:6940   */\n      pop\n        /* \"--CODEGEN--\":4932:6950   */\n      swap3\n      swap6\n      swap9\n      swap12\n      swap2\n      swap5\n      swap8\n      swap11\n      pop\n      swap3\n      swap6\n      swap9\n      pop\n      jump\n        /* \"--CODEGEN--\":6957:7198   */\n    tag_56:\n      0x0\n        /* \"--CODEGEN--\":7061:7063   */\n      0x20\n        /* \"--CODEGEN--\":7049:7058   */\n      dup3\n        /* \"--CODEGEN--\":7040:7047   */\n      dup5\n        /* \"--CODEGEN--\":7036:7059   */\n      sub\n        /* \"--CODEGEN--\":7032:7064   */\n      slt\n        /* \"--CODEGEN--\":7029:7031   */\n      iszero\n      tag_407\n      jumpi\n        /* \"--CODEGEN--\":7077:7078   */\n      0x0\n        /* \"--CODEGEN--\":7074:7075   */\n      dup1\n        /* \"--CODEGEN--\":7067:7079   */\n      revert\n        /* \"--CODEGEN--\":7029:7031   */\n    tag_407:\n        /* \"--CODEGEN--\":7112:7113   */\n      0x0\n        /* \"--CODEGEN--\":7129:7182   */\n      tag_408\n        /* \"--CODEGEN--\":7174:7181   */\n      dup5\n        /* \"--CODEGEN--\":7165:7171   */\n      dup3\n        /* \"--CODEGEN--\":7154:7163   */\n      dup6\n        /* \"--CODEGEN--\":7150:7172   */\n      add\n        /* \"--CODEGEN--\":7129:7182   */\n      jump(tag_345)\n    tag_408:\n        /* \"--CODEGEN--\":7119:7182   */\n      swap2\n      pop\n        /* \"--CODEGEN--\":7091:7188   */\n      pop\n        /* \"--CODEGEN--\":7023:7198   */\n      swap3\n      swap2\n      pop\n      pop\n      jump\n        /* \"--CODEGEN--\":7205:7315   */\n    tag_410:\n        /* \"--CODEGEN--\":7278:7309   */\n      tag_411\n        /* \"--CODEGEN--\":7303:7308   */\n      dup2\n        /* \"--CODEGEN--\":7278:7309   */\n      jump(tag_412)\n    tag_411:\n        /* \"--CODEGEN--\":7273:7276   */\n      dup3\n        /* \"--CODEGEN--\":7266:7310   */\n      mstore\n        /* \"--CODEGEN--\":7260:7315   */\n      pop\n      pop\n      jump\n        /* \"--CODEGEN--\":7353:7943   */\n    tag_414:\n      0x0\n        /* \"--CODEGEN--\":7488:7542   */\n      tag_415\n        /* \"--CODEGEN--\":7536:7541   */\n      dup3\n        /* \"--CODEGEN--\":7488:7542   */\n      jump(tag_416)\n    tag_415:\n        /* \"--CODEGEN--\":7560:7566   */\n      dup1\n        /* \"--CODEGEN--\":7555:7558   */\n      dup5\n        /* \"--CODEGEN--\":7548:7567   */\n      mstore\n        /* \"--CODEGEN--\":7584:7588   */\n      0x20\n        /* \"--CODEGEN--\":7579:7582   */\n      dup5\n        /* \"--CODEGEN--\":7575:7589   */\n      add\n        /* \"--CODEGEN--\":7568:7589   */\n      swap4\n      pop\n        /* \"--CODEGEN--\":7629:7685   */\n      tag_417\n        /* \"--CODEGEN--\":7679:7684   */\n      dup4\n        /* \"--CODEGEN--\":7629:7685   */\n      jump(tag_418)\n    tag_417:\n        /* \"--CODEGEN--\":7706:7707   */\n      0x0\n        /* \"--CODEGEN--\":7691:7921   */\n    tag_419:\n        /* \"--CODEGEN--\":7716:7722   */\n      dup3\n        /* \"--CODEGEN--\":7713:7714   */\n      dup2\n        /* \"--CODEGEN--\":7710:7723   */\n      lt\n        /* \"--CODEGEN--\":7691:7921   */\n      iszero\n      tag_420\n      jumpi\n        /* \"--CODEGEN--\":7756:7809   */\n      tag_422\n        /* \"--CODEGEN--\":7805:7808   */\n      dup7\n        /* \"--CODEGEN--\":7796:7802   */\n      dup4\n        /* \"--CODEGEN--\":7790:7803   */\n      mload\n        /* \"--CODEGEN--\":7756:7809   */\n      jump(tag_410)\n    tag_422:\n        /* \"--CODEGEN--\":7826:7886   */\n      tag_423\n        /* \"--CODEGEN--\":7879:7885   */\n      dup3\n        /* \"--CODEGEN--\":7826:7886   */\n      jump(tag_424)\n    tag_423:\n        /* \"--CODEGEN--\":7816:7886   */\n      swap2\n      pop\n        /* \"--CODEGEN--\":7909:7913   */\n      0x20\n        /* \"--CODEGEN--\":7904:7907   */\n      dup7\n        /* \"--CODEGEN--\":7900:7914   */\n      add\n        /* \"--CODEGEN--\":7893:7914   */\n      swap6\n      pop\n        /* \"--CODEGEN--\":7738:7739   */\n      0x1\n        /* \"--CODEGEN--\":7735:7736   */\n      dup2\n        /* \"--CODEGEN--\":7731:7740   */\n      add\n        /* \"--CODEGEN--\":7726:7740   */\n      swap1\n      pop\n        /* \"--CODEGEN--\":7691:7921   */\n      jump(tag_419)\n    tag_420:\n        /* \"--CODEGEN--\":7695:7709   */\n      pop\n        /* \"--CODEGEN--\":7934:7937   */\n      dup5\n        /* \"--CODEGEN--\":7927:7937   */\n      swap3\n      pop\n        /* \"--CODEGEN--\":7467:7943   */\n      pop\n      pop\n      swap3\n      swap2\n      pop\n      pop\n      jump\n        /* \"--CODEGEN--\":7951:8052   */\n    tag_426:\n        /* \"--CODEGEN--\":8018:8046   */\n      tag_427\n        /* \"--CODEGEN--\":8040:8045   */\n      dup2\n        /* \"--CODEGEN--\":8018:8046   */\n      jump(tag_428)\n    tag_427:\n        /* \"--CODEGEN--\":8013:8016   */\n      dup3\n        /* \"--CODEGEN--\":8006:8047   */\n      mstore\n        /* \"--CODEGEN--\":8000:8052   */\n      pop\n      pop\n      jump\n        /* \"--CODEGEN--\":8059:8359   */\n    tag_430:\n      0x0\n        /* \"--CODEGEN--\":8161:8200   */\n      tag_431\n        /* \"--CODEGEN--\":8194:8199   */\n      dup3\n        /* \"--CODEGEN--\":8161:8200   */\n      jump(tag_432)\n    tag_431:\n        /* \"--CODEGEN--\":8217:8223   */\n      dup1\n        /* \"--CODEGEN--\":8212:8215   */\n      dup5\n        /* \"--CODEGEN--\":8205:8224   */\n      mstore\n        /* \"--CODEGEN--\":8229:8292   */\n      tag_433\n        /* \"--CODEGEN--\":8285:8291   */\n      dup2\n        /* \"--CODEGEN--\":8278:8282   */\n      0x20\n        /* \"--CODEGEN--\":8273:8276   */\n      dup7\n        /* \"--CODEGEN--\":8269:8283   */\n      add\n        /* \"--CODEGEN--\":8262:8266   */\n      0x20\n        /* \"--CODEGEN--\":8255:8260   */\n      dup7\n        /* \"--CODEGEN--\":8251:8267   */\n      add\n        /* \"--CODEGEN--\":8229:8292   */\n      jump(tag_434)\n    tag_433:\n        /* \"--CODEGEN--\":8324:8353   */\n      tag_435\n        /* \"--CODEGEN--\":8346:8352   */\n      dup2\n        /* \"--CODEGEN--\":8324:8353   */\n      jump(tag_436)\n    tag_435:\n        /* \"--CODEGEN--\":8317:8321   */\n      0x20\n        /* \"--CODEGEN--\":8312:8315   */\n      dup6\n        /* \"--CODEGEN--\":8308:8322   */\n      add\n        /* \"--CODEGEN--\":8304:8354   */\n      add\n        /* \"--CODEGEN--\":8297:8354   */\n      swap2\n      pop\n        /* \"--CODEGEN--\":8141:8359   */\n      pop\n      swap3\n      swap2\n      pop\n      pop\n      jump\n        /* \"--CODEGEN--\":8366:8476   */\n    tag_438:\n        /* \"--CODEGEN--\":8439:8470   */\n      tag_439\n        /* \"--CODEGEN--\":8464:8469   */\n      dup2\n        /* \"--CODEGEN--\":8439:8470   */\n      jump(tag_440)\n    tag_439:\n        /* \"--CODEGEN--\":8434:8437   */\n      dup3\n        /* \"--CODEGEN--\":8427:8471   */\n      mstore\n        /* \"--CODEGEN--\":8421:8476   */\n      pop\n      pop\n      jump\n        /* \"--CODEGEN--\":8483:8676   */\n    tag_59:\n      0x0\n        /* \"--CODEGEN--\":8591:8593   */\n      0x20\n        /* \"--CODEGEN--\":8580:8589   */\n      dup3\n        /* \"--CODEGEN--\":8576:8594   */\n      add\n        /* \"--CODEGEN--\":8568:8594   */\n      swap1\n      pop\n        /* \"--CODEGEN--\":8605:8666   */\n      tag_442\n        /* \"--CODEGEN--\":8663:8664   */\n      0x0\n        /* \"--CODEGEN--\":8652:8661   */\n      dup4\n        /* \"--CODEGEN--\":8648:8665   */\n      add\n        /* \"--CODEGEN--\":8639:8645   */\n      dup5\n        /* \"--CODEGEN--\":8605:8666   */\n      jump(tag_410)\n    tag_442:\n        /* \"--CODEGEN--\":8562:8676   */\n      swap3\n      swap2\n      pop\n      pop\n      jump\n        /* \"--CODEGEN--\":8683:9024   */\n    tag_36:\n      0x0\n        /* \"--CODEGEN--\":8841:8843   */\n      0x20\n        /* \"--CODEGEN--\":8830:8839   */\n      dup3\n        /* \"--CODEGEN--\":8826:8844   */\n      add\n        /* \"--CODEGEN--\":8818:8844   */\n      swap1\n      pop\n        /* \"--CODEGEN--\":8891:8900   */\n      dup2\n        /* \"--CODEGEN--\":8885:8889   */\n      dup2\n        /* \"--CODEGEN--\":8881:8901   */\n      sub\n        /* \"--CODEGEN--\":8877:8878   */\n      0x0\n        /* \"--CODEGEN--\":8866:8875   */\n      dup4\n        /* \"--CODEGEN--\":8862:8879   */\n      add\n        /* \"--CODEGEN--\":8855:8902   */\n      mstore\n        /* \"--CODEGEN--\":8916:9014   */\n      tag_444\n        /* \"--CODEGEN--\":9009:9013   */\n      dup2\n        /* \"--CODEGEN--\":9000:9006   */\n      dup5\n        /* \"--CODEGEN--\":8916:9014   */\n      jump(tag_414)\n    tag_444:\n        /* \"--CODEGEN--\":8908:9014   */\n      swap1\n      pop\n        /* \"--CODEGEN--\":8812:9024   */\n      swap3\n      swap2\n      pop\n      pop\n      jump\n        /* \"--CODEGEN--\":9031:9212   */\n    tag_74:\n      0x0\n        /* \"--CODEGEN--\":9133:9135   */\n      0x20\n        /* \"--CODEGEN--\":9122:9131   */\n      dup3\n        /* \"--CODEGEN--\":9118:9136   */\n      add\n        /* \"--CODEGEN--\":9110:9136   */\n      swap1\n      pop\n        /* \"--CODEGEN--\":9147:9202   */\n      tag_446\n        /* \"--CODEGEN--\":9199:9200   */\n      0x0\n        /* \"--CODEGEN--\":9188:9197   */\n      dup4\n        /* \"--CODEGEN--\":9184:9201   */\n      add\n        /* \"--CODEGEN--\":9175:9181   */\n      dup5\n        /* \"--CODEGEN--\":9147:9202   */\n      jump(tag_426)\n    tag_446:\n        /* \"--CODEGEN--\":9104:9212   */\n      swap3\n      swap2\n      pop\n      pop\n      jump\n        /* \"--CODEGEN--\":9219:10740   */\n    tag_48:\n      0x0\n        /* \"--CODEGEN--\":9663:9666   */\n      0x100\n        /* \"--CODEGEN--\":9652:9661   */\n      dup3\n        /* \"--CODEGEN--\":9648:9667   */\n      add\n        /* \"--CODEGEN--\":9640:9667   */\n      swap1\n      pop\n        /* \"--CODEGEN--\":9714:9723   */\n      dup2\n        /* \"--CODEGEN--\":9708:9712   */\n      dup2\n        /* \"--CODEGEN--\":9704:9724   */\n      sub\n        /* \"--CODEGEN--\":9700:9701   */\n      0x0\n        /* \"--CODEGEN--\":9689:9698   */\n      dup4\n        /* \"--CODEGEN--\":9685:9702   */\n      add\n        /* \"--CODEGEN--\":9678:9725   */\n      mstore\n        /* \"--CODEGEN--\":9739:9807   */\n      tag_448\n        /* \"--CODEGEN--\":9802:9806   */\n      dup2\n        /* \"--CODEGEN--\":9793:9799   */\n      dup12\n        /* \"--CODEGEN--\":9739:9807   */\n      jump(tag_430)\n    tag_448:\n        /* \"--CODEGEN--\":9731:9807   */\n      swap1\n      pop\n        /* \"--CODEGEN--\":9855:9864   */\n      dup2\n        /* \"--CODEGEN--\":9849:9853   */\n      dup2\n        /* \"--CODEGEN--\":9845:9865   */\n      sub\n        /* \"--CODEGEN--\":9840:9842   */\n      0x20\n        /* \"--CODEGEN--\":9829:9838   */\n      dup4\n        /* \"--CODEGEN--\":9825:9843   */\n      add\n        /* \"--CODEGEN--\":9818:9866   */\n      mstore\n        /* \"--CODEGEN--\":9880:9948   */\n      tag_449\n        /* \"--CODEGEN--\":9943:9947   */\n      dup2\n        /* \"--CODEGEN--\":9934:9940   */\n      dup11\n        /* \"--CODEGEN--\":9880:9948   */\n      jump(tag_430)\n    tag_449:\n        /* \"--CODEGEN--\":9872:9948   */\n      swap1\n      pop\n        /* \"--CODEGEN--\":9996:10005   */\n      dup2\n        /* \"--CODEGEN--\":9990:9994   */\n      dup2\n        /* \"--CODEGEN--\":9986:10006   */\n      sub\n        /* \"--CODEGEN--\":9981:9983   */\n      0x40\n        /* \"--CODEGEN--\":9970:9979   */\n      dup4\n        /* \"--CODEGEN--\":9966:9984   */\n      add\n        /* \"--CODEGEN--\":9959:10007   */\n      mstore\n        /* \"--CODEGEN--\":10021:10089   */\n      tag_450\n        /* \"--CODEGEN--\":10084:10088   */\n      dup2\n        /* \"--CODEGEN--\":10075:10081   */\n      dup10\n        /* \"--CODEGEN--\":10021:10089   */\n      jump(tag_430)\n    tag_450:\n        /* \"--CODEGEN--\":10013:10089   */\n      swap1\n      pop\n        /* \"--CODEGEN--\":10137:10146   */\n      dup2\n        /* \"--CODEGEN--\":10131:10135   */\n      dup2\n        /* \"--CODEGEN--\":10127:10147   */\n      sub\n        /* \"--CODEGEN--\":10122:10124   */\n      0x60\n        /* \"--CODEGEN--\":10111:10120   */\n      dup4\n        /* \"--CODEGEN--\":10107:10125   */\n      add\n        /* \"--CODEGEN--\":10100:10148   */\n      mstore\n        /* \"--CODEGEN--\":10162:10230   */\n      tag_451\n        /* \"--CODEGEN--\":10225:10229   */\n      dup2\n        /* \"--CODEGEN--\":10216:10222   */\n      dup9\n        /* \"--CODEGEN--\":10162:10230   */\n      jump(tag_430)\n    tag_451:\n        /* \"--CODEGEN--\":10154:10230   */\n      swap1\n      pop\n        /* \"--CODEGEN--\":10279:10288   */\n      dup2\n        /* \"--CODEGEN--\":10273:10277   */\n      dup2\n        /* \"--CODEGEN--\":10269:10289   */\n      sub\n        /* \"--CODEGEN--\":10263:10266   */\n      0x80\n        /* \"--CODEGEN--\":10252:10261   */\n      dup4\n        /* \"--CODEGEN--\":10248:10267   */\n      add\n        /* \"--CODEGEN--\":10241:10290   */\n      mstore\n        /* \"--CODEGEN--\":10304:10372   */\n      tag_452\n        /* \"--CODEGEN--\":10367:10371   */\n      dup2\n        /* \"--CODEGEN--\":10358:10364   */\n      dup8\n        /* \"--CODEGEN--\":10304:10372   */\n      jump(tag_430)\n    tag_452:\n        /* \"--CODEGEN--\":10296:10372   */\n      swap1\n      pop\n        /* \"--CODEGEN--\":10421:10430   */\n      dup2\n        /* \"--CODEGEN--\":10415:10419   */\n      dup2\n        /* \"--CODEGEN--\":10411:10431   */\n      sub\n        /* \"--CODEGEN--\":10405:10408   */\n      0xa0\n        /* \"--CODEGEN--\":10394:10403   */\n      dup4\n        /* \"--CODEGEN--\":10390:10409   */\n      add\n        /* \"--CODEGEN--\":10383:10432   */\n      mstore\n        /* \"--CODEGEN--\":10446:10514   */\n      tag_453\n        /* \"--CODEGEN--\":10509:10513   */\n      dup2\n        /* \"--CODEGEN--\":10500:10506   */\n      dup7\n        /* \"--CODEGEN--\":10446:10514   */\n      jump(tag_430)\n    tag_453:\n        /* \"--CODEGEN--\":10438:10514   */\n      swap1\n      pop\n        /* \"--CODEGEN--\":10563:10572   */\n      dup2\n        /* \"--CODEGEN--\":10557:10561   */\n      dup2\n        /* \"--CODEGEN--\":10553:10573   */\n      sub\n        /* \"--CODEGEN--\":10547:10550   */\n      0xc0\n        /* \"--CODEGEN--\":10536:10545   */\n      dup4\n        /* \"--CODEGEN--\":10532:10551   */\n      add\n        /* \"--CODEGEN--\":10525:10574   */\n      mstore\n        /* \"--CODEGEN--\":10588:10656   */\n      tag_454\n        /* \"--CODEGEN--\":10651:10655   */\n      dup2\n        /* \"--CODEGEN--\":10642:10648   */\n      dup6\n        /* \"--CODEGEN--\":10588:10656   */\n      jump(tag_430)\n    tag_454:\n        /* \"--CODEGEN--\":10580:10656   */\n      swap1\n      pop\n        /* \"--CODEGEN--\":10667:10730   */\n      tag_455\n        /* \"--CODEGEN--\":10725:10728   */\n      0xe0\n        /* \"--CODEGEN--\":10714:10723   */\n      dup4\n        /* \"--CODEGEN--\":10710:10729   */\n      add\n        /* \"--CODEGEN--\":10701:10707   */\n      dup5\n        /* \"--CODEGEN--\":10667:10730   */\n      jump(tag_410)\n    tag_455:\n        /* \"--CODEGEN--\":9634:10740   */\n      swap10\n      swap9\n      pop\n      pop\n      pop\n      pop\n      pop\n      pop\n      pop\n      pop\n      pop\n      jump\n        /* \"--CODEGEN--\":10747:11902   */\n    tag_113:\n      0x0\n        /* \"--CODEGEN--\":11103:11106   */\n      0xe0\n        /* \"--CODEGEN--\":11092:11101   */\n      dup3\n        /* \"--CODEGEN--\":11088:11107   */\n      add\n        /* \"--CODEGEN--\":11080:11107   */\n      swap1\n      pop\n        /* \"--CODEGEN--\":11154:11163   */\n      dup2\n        /* \"--CODEGEN--\":11148:11152   */\n      dup2\n        /* \"--CODEGEN--\":11144:11164   */\n      sub\n        /* \"--CODEGEN--\":11140:11141   */\n      0x0\n        /* \"--CODEGEN--\":11129:11138   */\n      dup4\n        /* \"--CODEGEN--\":11125:11142   */\n      add\n        /* \"--CODEGEN--\":11118:11165   */\n      mstore\n        /* \"--CODEGEN--\":11179:11247   */\n      tag_457\n        /* \"--CODEGEN--\":11242:11246   */\n      dup2\n        /* \"--CODEGEN--\":11233:11239   */\n      dup11\n        /* \"--CODEGEN--\":11179:11247   */\n      jump(tag_430)\n    tag_457:\n        /* \"--CODEGEN--\":11171:11247   */\n      swap1\n      pop\n        /* \"--CODEGEN--\":11295:11304   */\n      dup2\n        /* \"--CODEGEN--\":11289:11293   */\n      dup2\n        /* \"--CODEGEN--\":11285:11305   */\n      sub\n        /* \"--CODEGEN--\":11280:11282   */\n      0x20\n        /* \"--CODEGEN--\":11269:11278   */\n      dup4\n        /* \"--CODEGEN--\":11265:11283   */\n      add\n        /* \"--CODEGEN--\":11258:11306   */\n      mstore\n        /* \"--CODEGEN--\":11320:11388   */\n      tag_458\n        /* \"--CODEGEN--\":11383:11387   */\n      dup2\n        /* \"--CODEGEN--\":11374:11380   */\n      dup10\n        /* \"--CODEGEN--\":11320:11388   */\n      jump(tag_430)\n    tag_458:\n        /* \"--CODEGEN--\":11312:11388   */\n      swap1\n      pop\n        /* \"--CODEGEN--\":11436:11445   */\n      dup2\n        /* \"--CODEGEN--\":11430:11434   */\n      dup2\n        /* \"--CODEGEN--\":11426:11446   */\n      sub\n        /* \"--CODEGEN--\":11421:11423   */\n      0x40\n        /* \"--CODEGEN--\":11410:11419   */\n      dup4\n        /* \"--CODEGEN--\":11406:11424   */\n      add\n        /* \"--CODEGEN--\":11399:11447   */\n      mstore\n        /* \"--CODEGEN--\":11461:11529   */\n      tag_459\n        /* \"--CODEGEN--\":11524:11528   */\n      dup2\n        /* \"--CODEGEN--\":11515:11521   */\n      dup9\n        /* \"--CODEGEN--\":11461:11529   */\n      jump(tag_430)\n    tag_459:\n        /* \"--CODEGEN--\":11453:11529   */\n      swap1\n      pop\n        /* \"--CODEGEN--\":11577:11586   */\n      dup2\n        /* \"--CODEGEN--\":11571:11575   */\n      dup2\n        /* \"--CODEGEN--\":11567:11587   */\n      sub\n        /* \"--CODEGEN--\":11562:11564   */\n      0x60\n        /* \"--CODEGEN--\":11551:11560   */\n      dup4\n        /* \"--CODEGEN--\":11547:11565   */\n      add\n        /* \"--CODEGEN--\":11540:11588   */\n      mstore\n        /* \"--CODEGEN--\":11602:11670   */\n      tag_460\n        /* \"--CODEGEN--\":11665:11669   */\n      dup2\n        /* \"--CODEGEN--\":11656:11662   */\n      dup8\n        /* \"--CODEGEN--\":11602:11670   */\n      jump(tag_430)\n    tag_460:\n        /* \"--CODEGEN--\":11594:11670   */\n      swap1\n      pop\n        /* \"--CODEGEN--\":11681:11744   */\n      tag_461\n        /* \"--CODEGEN--\":11739:11742   */\n      0x80\n        /* \"--CODEGEN--\":11728:11737   */\n      dup4\n        /* \"--CODEGEN--\":11724:11743   */\n      add\n        /* \"--CODEGEN--\":11715:11721   */\n      dup7\n        /* \"--CODEGEN--\":11681:11744   */\n      jump(tag_438)\n    tag_461:\n        /* \"--CODEGEN--\":11755:11818   */\n      tag_462\n        /* \"--CODEGEN--\":11813:11816   */\n      0xa0\n        /* \"--CODEGEN--\":11802:11811   */\n      dup4\n        /* \"--CODEGEN--\":11798:11817   */\n      add\n        /* \"--CODEGEN--\":11789:11795   */\n      dup6\n        /* \"--CODEGEN--\":11755:11818   */\n      jump(tag_410)\n    tag_462:\n        /* \"--CODEGEN--\":11829:11892   */\n      tag_463\n        /* \"--CODEGEN--\":11887:11890   */\n      0xc0\n        /* \"--CODEGEN--\":11876:11885   */\n      dup4\n        /* \"--CODEGEN--\":11872:11891   */\n      add\n        /* \"--CODEGEN--\":11863:11869   */\n      dup5\n        /* \"--CODEGEN--\":11829:11892   */\n      jump(tag_410)\n    tag_463:\n        /* \"--CODEGEN--\":11074:11902   */\n      swap9\n      swap8\n      pop\n      pop\n      pop\n      pop\n      pop\n      pop\n      pop\n      pop\n      jump\n        /* \"--CODEGEN--\":11909:12102   */\n    tag_41:\n      0x0\n        /* \"--CODEGEN--\":12017:12019   */\n      0x20\n        /* \"--CODEGEN--\":12006:12015   */\n      dup3\n        /* \"--CODEGEN--\":12002:12020   */\n      add\n        /* \"--CODEGEN--\":11994:12020   */\n      swap1\n      pop\n        /* \"--CODEGEN--\":12031:12092   */\n      tag_465\n        /* \"--CODEGEN--\":12089:12090   */\n      0x0\n        /* \"--CODEGEN--\":12078:12087   */\n      dup4\n        /* \"--CODEGEN--\":12074:12091   */\n      add\n        /* \"--CODEGEN--\":12065:12071   */\n      dup5\n        /* \"--CODEGEN--\":12031:12092   */\n      jump(tag_438)\n    tag_465:\n        /* \"--CODEGEN--\":11988:12102   */\n      swap3\n      swap2\n      pop\n      pop\n      jump\n        /* \"--CODEGEN--\":12109:12365   */\n    tag_340:\n      0x0\n        /* \"--CODEGEN--\":12171:12173   */\n      0x40\n        /* \"--CODEGEN--\":12165:12174   */\n      mload\n        /* \"--CODEGEN--\":12155:12174   */\n      swap1\n      pop\n        /* \"--CODEGEN--\":12209:12213   */\n      dup2\n        /* \"--CODEGEN--\":12201:12207   */\n      dup2\n        /* \"--CODEGEN--\":12197:12214   */\n      add\n        /* \"--CODEGEN--\":12308:12314   */\n      dup2\n        /* \"--CODEGEN--\":12296:12306   */\n      dup2\n        /* \"--CODEGEN--\":12293:12315   */\n      lt\n        /* \"--CODEGEN--\":12272:12290   */\n      0xffffffffffffffff\n        /* \"--CODEGEN--\":12260:12270   */\n      dup3\n        /* \"--CODEGEN--\":12257:12291   */\n      gt\n        /* \"--CODEGEN--\":12254:12316   */\n      or\n        /* \"--CODEGEN--\":12251:12253   */\n      iszero\n      tag_467\n      jumpi\n        /* \"--CODEGEN--\":12329:12330   */\n      0x0\n        /* \"--CODEGEN--\":12326:12327   */\n      dup1\n        /* \"--CODEGEN--\":12319:12331   */\n      revert\n        /* \"--CODEGEN--\":12251:12253   */\n    tag_467:\n        /* \"--CODEGEN--\":12349:12359   */\n      dup1\n        /* \"--CODEGEN--\":12345:12347   */\n      0x40\n        /* \"--CODEGEN--\":12338:12360   */\n      mstore\n        /* \"--CODEGEN--\":12149:12365   */\n      pop\n      swap2\n      swap1\n      pop\n      jump\n        /* \"--CODEGEN--\":12372:12631   */\n    tag_339:\n      0x0\n        /* \"--CODEGEN--\":12516:12534   */\n      0xffffffffffffffff\n        /* \"--CODEGEN--\":12508:12514   */\n      dup3\n        /* \"--CODEGEN--\":12505:12535   */\n      gt\n        /* \"--CODEGEN--\":12502:12504   */\n      iszero\n      tag_469\n      jumpi\n        /* \"--CODEGEN--\":12548:12549   */\n      0x0\n        /* \"--CODEGEN--\":12545:12546   */\n      dup1\n        /* \"--CODEGEN--\":12538:12550   */\n      revert\n        /* \"--CODEGEN--\":12502:12504   */\n    tag_469:\n        /* \"--CODEGEN--\":12592:12596   */\n      0x1f\n        /* \"--CODEGEN--\":12588:12597   */\n      not\n        /* \"--CODEGEN--\":12581:12585   */\n      0x1f\n        /* \"--CODEGEN--\":12573:12579   */\n      dup4\n        /* \"--CODEGEN--\":12569:12586   */\n      add\n        /* \"--CODEGEN--\":12565:12598   */\n      and\n        /* \"--CODEGEN--\":12557:12598   */\n      swap1\n      pop\n        /* \"--CODEGEN--\":12621:12625   */\n      0x20\n        /* \"--CODEGEN--\":12615:12619   */\n      dup2\n        /* \"--CODEGEN--\":12611:12626   */\n      add\n        /* \"--CODEGEN--\":12603:12626   */\n      swap1\n      pop\n        /* \"--CODEGEN--\":12439:12631   */\n      swap2\n      swap1\n      pop\n      jump\n        /* \"--CODEGEN--\":12640:12761   */\n    tag_418:\n      0x0\n        /* \"--CODEGEN--\":12749:12753   */\n      0x20\n        /* \"--CODEGEN--\":12741:12747   */\n      dup3\n        /* \"--CODEGEN--\":12737:12754   */\n      add\n        /* \"--CODEGEN--\":12726:12754   */\n      swap1\n      pop\n        /* \"--CODEGEN--\":12718:12761   */\n      swap2\n      swap1\n      pop\n      jump\n        /* \"--CODEGEN--\":12770:12877   */\n    tag_416:\n      0x0\n        /* \"--CODEGEN--\":12866:12871   */\n      dup2\n        /* \"--CODEGEN--\":12860:12872   */\n      mload\n        /* \"--CODEGEN--\":12850:12872   */\n      swap1\n      pop\n        /* \"--CODEGEN--\":12844:12877   */\n      swap2\n      swap1\n      pop\n      jump\n        /* \"--CODEGEN--\":12884:12976   */\n    tag_432:\n      0x0\n        /* \"--CODEGEN--\":12965:12970   */\n      dup2\n        /* \"--CODEGEN--\":12959:12971   */\n      mload\n        /* \"--CODEGEN--\":12949:12971   */\n      swap1\n      pop\n        /* \"--CODEGEN--\":12943:12976   */\n      swap2\n      swap1\n      pop\n      jump\n        /* \"--CODEGEN--\":12984:13106   */\n    tag_424:\n      0x0\n        /* \"--CODEGEN--\":13095:13099   */\n      0x20\n        /* \"--CODEGEN--\":13087:13093   */\n      dup3\n        /* \"--CODEGEN--\":13083:13100   */\n      add\n        /* \"--CODEGEN--\":13072:13100   */\n      swap1\n      pop\n        /* \"--CODEGEN--\":13065:13106   */\n      swap2\n      swap1\n      pop\n      jump\n        /* \"--CODEGEN--\":13114:13242   */\n    tag_412:\n      0x0\n        /* \"--CODEGEN--\":13194:13236   */\n      0xffffffffffffffffffffffffffffffffffffffff\n        /* \"--CODEGEN--\":13187:13192   */\n      dup3\n        /* \"--CODEGEN--\":13183:13237   */\n      and\n        /* \"--CODEGEN--\":13172:13237   */\n      swap1\n      pop\n        /* \"--CODEGEN--\":13166:13242   */\n      swap2\n      swap1\n      pop\n      jump\n        /* \"--CODEGEN--\":13249:13341   */\n    tag_428:\n      0x0\n        /* \"--CODEGEN--\":13329:13334   */\n      dup2\n        /* \"--CODEGEN--\":13322:13335   */\n      iszero\n        /* \"--CODEGEN--\":13315:13336   */\n      iszero\n        /* \"--CODEGEN--\":13304:13336   */\n      swap1\n      pop\n        /* \"--CODEGEN--\":13298:13341   */\n      swap2\n      swap1\n      pop\n      jump\n        /* \"--CODEGEN--\":13348:13427   */\n    tag_440:\n      0x0\n        /* \"--CODEGEN--\":13417:13422   */\n      dup2\n        /* \"--CODEGEN--\":13406:13422   */\n      swap1\n      pop\n        /* \"--CODEGEN--\":13400:13427   */\n      swap2\n      swap1\n      pop\n      jump\n        /* \"--CODEGEN--\":13434:13562   */\n    tag_333:\n      0x0\n        /* \"--CODEGEN--\":13514:13556   */\n      0xffffffffffffffffffffffffffffffffffffffff\n        /* \"--CODEGEN--\":13507:13512   */\n      dup3\n        /* \"--CODEGEN--\":13503:13557   */\n      and\n        /* \"--CODEGEN--\":13492:13557   */\n      swap1\n      pop\n        /* \"--CODEGEN--\":13486:13562   */\n      swap2\n      swap1\n      pop\n      jump\n        /* \"--CODEGEN--\":13569:13648   */\n    tag_347:\n      0x0\n        /* \"--CODEGEN--\":13638:13643   */\n      dup2\n        /* \"--CODEGEN--\":13627:13643   */\n      swap1\n      pop\n        /* \"--CODEGEN--\":13621:13648   */\n      swap2\n      swap1\n      pop\n      jump\n        /* \"--CODEGEN--\":13656:13801   */\n    tag_343:\n        /* \"--CODEGEN--\":13737:13743   */\n      dup3\n        /* \"--CODEGEN--\":13732:13735   */\n      dup2\n        /* \"--CODEGEN--\":13727:13730   */\n      dup4\n        /* \"--CODEGEN--\":13714:13744   */\n      calldatacopy\n        /* \"--CODEGEN--\":13793:13794   */\n      0x0\n        /* \"--CODEGEN--\":13784:13790   */\n      dup4\n        /* \"--CODEGEN--\":13779:13782   */\n      dup4\n        /* \"--CODEGEN--\":13775:13791   */\n      add\n        /* \"--CODEGEN--\":13768:13795   */\n      mstore\n        /* \"--CODEGEN--\":13707:13801   */\n      pop\n      pop\n      pop\n      jump\n        /* \"--CODEGEN--\":13810:14078   */\n    tag_434:\n        /* \"--CODEGEN--\":13875:13876   */\n      0x0\n        /* \"--CODEGEN--\":13882:13983   */\n    tag_481:\n        /* \"--CODEGEN--\":13896:13902   */\n      dup4\n        /* \"--CODEGEN--\":13893:13894   */\n      dup2\n        /* \"--CODEGEN--\":13890:13903   */\n      lt\n        /* \"--CODEGEN--\":13882:13983   */\n      iszero\n      tag_482\n      jumpi\n        /* \"--CODEGEN--\":13972:13973   */\n      dup1\n        /* \"--CODEGEN--\":13967:13970   */\n      dup3\n        /* \"--CODEGEN--\":13963:13974   */\n      add\n        /* \"--CODEGEN--\":13957:13975   */\n      mload\n        /* \"--CODEGEN--\":13953:13954   */\n      dup2\n        /* \"--CODEGEN--\":13948:13951   */\n      dup5\n        /* \"--CODEGEN--\":13944:13955   */\n      add\n        /* \"--CODEGEN--\":13937:13976   */\n      mstore\n        /* \"--CODEGEN--\":13918:13920   */\n      0x20\n        /* \"--CODEGEN--\":13915:13916   */\n      dup2\n        /* \"--CODEGEN--\":13911:13921   */\n      add\n        /* \"--CODEGEN--\":13906:13921   */\n      swap1\n      pop\n        /* \"--CODEGEN--\":13882:13983   */\n      jump(tag_481)\n    tag_482:\n        /* \"--CODEGEN--\":13998:14004   */\n      dup4\n        /* \"--CODEGEN--\":13995:13996   */\n      dup2\n        /* \"--CODEGEN--\":13992:14005   */\n      gt\n        /* \"--CODEGEN--\":13989:13991   */\n      iszero\n      tag_484\n      jumpi\n        /* \"--CODEGEN--\":14063:14064   */\n      0x0\n        /* \"--CODEGEN--\":14054:14060   */\n      dup5\n        /* \"--CODEGEN--\":14049:14052   */\n      dup5\n        /* \"--CODEGEN--\":14045:14061   */\n      add\n        /* \"--CODEGEN--\":14038:14065   */\n      mstore\n        /* \"--CODEGEN--\":13989:13991   */\n    tag_484:\n        /* \"--CODEGEN--\":13859:14078   */\n      pop\n      pop\n      pop\n      pop\n      jump\n        /* \"--CODEGEN--\":14086:14183   */\n    tag_436:\n      0x0\n        /* \"--CODEGEN--\":14174:14176   */\n      0x1f\n        /* \"--CODEGEN--\":14170:14177   */\n      not\n        /* \"--CODEGEN--\":14165:14167   */\n      0x1f\n        /* \"--CODEGEN--\":14158:14163   */\n      dup4\n        /* \"--CODEGEN--\":14154:14168   */\n      add\n        /* \"--CODEGEN--\":14150:14178   */\n      and\n        /* \"--CODEGEN--\":14140:14178   */\n      swap1\n      pop\n        /* \"--CODEGEN--\":14134:14183   */\n      swap2\n      swap1\n      pop\n      jump\n\n    auxdata: 0xa265627a7a72305820fa247dd6d225d54ce6940b0ec69c2e101cd153c2b14721184ef151eccb7a149b6c6578706572696d656e74616cf50037\n}\n",
				"bytecode": {
					"linkReferences": {},
					"object": "60806040526000600b556000600c556000600d556000600e556000600f5573c50c6297f56b033633c30354a854b074749cd2dc601060006101000a81548173ffffffffffffffffffffffffffffffffffffffff021916908373ffffffffffffffffffffffffffffffffffffffff16021790555034801561007e57600080fd5b506135a48061008e6000396000f30060806040526004361061017f576000357c0100000000000000000000000000000000000000000000000000000000900463ffffffff168062ce8e3e14610184578063024decc5146101af578063076fd2f8146101da57806307973ccf1461021e578063127ca4b41461024957806316e0a6111461028657806317e51111146102af578063294a4540146102d857806344c23f88146103155780635fc8e8c6146103525780636cdb22781461038f578063779a9576146103b857806378522bc4146103e157806379111c1c1461040c578063793de5f01461043757806383a28b29146104745780638da5cb5b146104b75780638f84aa09146104e257806396e39ce01461050d57806399d698c5146105385780639f4216e814610563578063b13d5d94146105a0578063b5cb15f7146105cb578063b744ff4d146105f6578063c3bf7bf014610621578063c543a7181461065e578063caee6c8514610689578063d118404b146106cd578063e0df0ac61461070a578063ff508dab14610735575b600080fd5b34801561019057600080fd5b50610199610772565b6040516101a6919061329c565b60405180910390f35b3480156101bb57600080fd5b506101c4610800565b6040516101d19190613413565b60405180910390f35b3480156101e657600080fd5b5061020160048036036101fc9190810190612d2a565b61080a565b6040516102159897969594939291906132d9565b60405180910390f35b34801561022a57600080fd5b50610233610d8f565b6040516102409190613413565b60405180910390f35b34801561025557600080fd5b50610270600480360361026b919081019061319a565b610d95565b60405161027d9190613281565b60405180910390f35b34801561029257600080fd5b506102ad60048036036102a89190810190612e8d565b610dd3565b005b3480156102bb57600080fd5b506102d660048036036102d19190810190612e8d565b610fc7565b005b3480156102e457600080fd5b506102ff60048036036102fa9190810190612d2a565b6113e1565b60405161030c91906132be565b60405180910390f35b34801561032157600080fd5b5061033c60048036036103379190810190612d8f565b611493565b60405161034991906132be565b60405180910390f35b34801561035e57600080fd5b5061037960048036036103749190810190612d2a565b611703565b60405161038691906132be565b60405180910390f35b34801561039b57600080fd5b506103b660048036036103b19190810190612fe7565b6117a2565b005b3480156103c457600080fd5b506103df60048036036103da9190810190612fe7565b611bf0565b005b3480156103ed57600080fd5b506103f6611e18565b6040516104039190613413565b60405180910390f35b34801561041857600080fd5b50610421611e1e565b60405161042e9190613413565b60405180910390f35b34801561044357600080fd5b5061045e60048036036104599190810190612d2a565b611e28565b60405161046b91906132be565b60405180910390f35b34801561048057600080fd5b5061049b60048036036104969190810190612d2a565b611eae565b6040516104ae9796959493929190613388565b60405180910390f35b3480156104c357600080fd5b506104cc612279565b6040516104d99190613281565b60405180910390f35b3480156104ee57600080fd5b506104f761229e565b6040516105049190613281565b60405180910390f35b34801561051957600080fd5b506105226122c8565b60405161052f9190613413565b60405180910390f35b34801561054457600080fd5b5061054d6122ce565b60405161055a9190613413565b60405180910390f35b34801561056f57600080fd5b5061058a6004803603610585919081019061319a565b6122d4565b6040516105979190613281565b60405180910390f35b3480156105ac57600080fd5b506105b5612312565b6040516105c2919061329c565b60405180910390f35b3480156105d757600080fd5b506105e06123a0565b6040516105ed9190613413565b60405180910390f35b34801561060257600080fd5b5061060b6123aa565b6040516106189190613281565b60405180910390f35b34801561062d57600080fd5b5061064860048036036106439190810190612d53565b6123d0565b60405161065591906132be565b60405180910390f35b34801561066a57600080fd5b506106736124cd565b6040516106809190613413565b60405180910390f35b34801561069557600080fd5b506106b060048036036106ab9190810190612d2a565b6124d3565b6040516106c49897969594939291906132d9565b60405180910390f35b3480156106d957600080fd5b506106f460048036036106ef9190810190612d53565b612ab0565b60405161070191906132be565b60405180910390f35b34801561071657600080fd5b5061071f612bbf565b60405161072c9190613413565b60405180910390f35b34801561074157600080fd5b5061075c6004803603610757919081019061319a565b612bc9565b6040516107699190613281565b60405180910390f35b606060018054806020026020016040519081016040528092919081815260200182805480156107f657602002820191906000526020600020905b8160009054906101000a900473ffffffffffffffffffffffffffffffffffffffff1673ffffffffffffffffffffffffffffffffffffffff16815260200190600101908083116107ac575b5050505050905090565b6000600e54905090565b6060806060806060806060600080600760008b73ffffffffffffffffffffffffffffffffffffffff1673ffffffffffffffffffffffffffffffffffffffff16815260200190815260200160002060003373ffffffffffffffffffffffffffffffffffffffff1673ffffffffffffffffffffffffffffffffffffffff16815260200190815260200160002060009054906101000a900460ff1615156108ad57600080fd5b600460008b73ffffffffffffffffffffffffffffffffffffffff1673ffffffffffffffffffffffffffffffffffffffff1681526020019081526020016000209050806000018160010182600601836002018460030185600401866005018760090160009054906101000a900473ffffffffffffffffffffffffffffffffffffffff16878054600181600116156101000203166002900480601f0160208091040260200160405190810160405280929190818152602001828054600181600116156101000203166002900480156109c45780601f10610999576101008083540402835291602001916109c4565b820191906000526020600020905b8154815290600101906020018083116109a757829003601f168201915b50505050509750868054600181600116156101000203166002900480601f016020809104026020016040519081016040528092919081815260200182805460018160011615610100020316600290048015610a605780601f10610a3557610100808354040283529160200191610a60565b820191906000526020600020905b815481529060010190602001808311610a4357829003601f168201915b50505050509650858054600181600116156101000203166002900480601f016020809104026020016040519081016040528092919081815260200182805460018160011615610100020316600290048015610afc5780601f10610ad157610100808354040283529160200191610afc565b820191906000526020600020905b815481529060010190602001808311610adf57829003601f168201915b50505050509550848054600181600116156101000203166002900480601f016020809104026020016040519081016040528092919081815260200182805460018160011615610100020316600290048015610b985780601f10610b6d57610100808354040283529160200191610b98565b820191906000526020600020905b815481529060010190602001808311610b7b57829003601f168201915b50505050509450838054600181600116156101000203166002900480601f016020809104026020016040519081016040528092919081815260200182805460018160011615610100020316600290048015610c345780601f10610c0957610100808354040283529160200191610c34565b820191906000526020600020905b815481529060010190602001808311610c1757829003601f168201915b50505050509350828054600181600116156101000203166002900480601f016020809104026020016040519081016040528092919081815260200182805460018160011615610100020316600290048015610cd05780601f10610ca557610100808354040283529160200191610cd0565b820191906000526020600020905b815481529060010190602001808311610cb357829003601f168201915b50505050509250818054600181600116156101000203166002900480601f016020809104026020016040519081016040528092919081815260200182805460018160011615610100020316600290048015610d6c5780601f10610d4157610100808354040283529160200191610d6c565b820191906000526020600020905b815481529060010190602001808311610d4f57829003601f168201915b505050505091509850985098509850985098509850985050919395975091939597565b600b5481565b600281815481101515610da457fe5b906000526020600020016000915054906101000a900473ffffffffffffffffffffffffffffffffffffffff1681565b6000601060009054906101000a900473ffffffffffffffffffffffffffffffffffffffff1673ffffffffffffffffffffffffffffffffffffffff163373ffffffffffffffffffffffffffffffffffffffff16141515610e3157600080fd5b600960008a73ffffffffffffffffffffffffffffffffffffffff1673ffffffffffffffffffffffffffffffffffffffff16815260200190815260200160002060009054906101000a900460ff161515610e8957600080fd5b600560008a73ffffffffffffffffffffffffffffffffffffffff1673ffffffffffffffffffffffffffffffffffffffff168152602001908152602001600020905087816000019080519060200190610ee2929190612c07565b5086816001019080519060200190610efb929190612c07565b5085816002019080519060200190610f14929190612c07565b5084816003019080519060200190610f2d929190612c07565b5083816005019080519060200190610f46929190612c07565b5082816006019080519060200190610f5f929190612c07565b5081816007019080519060200190610f78929190612c07565b50888160080160006101000a81548173ffffffffffffffffffffffffffffffffffffffff021916908373ffffffffffffffffffffffffffffffffffffffff160217905550505050505050505050565b6000601060009054906101000a900473ffffffffffffffffffffffffffffffffffffffff1673ffffffffffffffffffffffffffffffffffffffff163373ffffffffffffffffffffffffffffffffffffffff1614151561102557600080fd5b600960008a73ffffffffffffffffffffffffffffffffffffffff1673ffffffffffffffffffffffffffffffffffffffff16815260200190815260200160002060009054906101000a900460ff1615151561107e57600080fd5b600560008a73ffffffffffffffffffffffffffffffffffffffff1673ffffffffffffffffffffffffffffffffffffffff1681526020019081526020016000209050878160000190805190602001906110d7929190612c07565b50868160010190805190602001906110f0929190612c07565b5085816002019080519060200190611109929190612c07565b5084816003019080519060200190611122929190612c07565b508381600501908051906020019061113b929190612c07565b5082816006019080519060200190611154929190612c07565b508181600701908051906020019061116d929190612c07565b50888160080160006101000a81548173ffffffffffffffffffffffffffffffffffffffff021916908373ffffffffffffffffffffffffffffffffffffffff16021790555042816009018190555060028990806001815401808255809150509060018203906000526020600020016000909192909190916101000a81548173ffffffffffffffffffffffffffffffffffffffff021916908373ffffffffffffffffffffffffffffffffffffffff160217905550506001600960008b73ffffffffffffffffffffffffffffffffffffffff1673ffffffffffffffffffffffffffffffffffffffff16815260200190815260200160002060006101000a81548160ff0219169083151502179055506001600760008b73ffffffffffffffffffffffffffffffffffffffff1673ffffffffffffffffffffffffffffffffffffffff16815260200190815260200160002060008b73ffffffffffffffffffffffffffffffffffffffff1673ffffffffffffffffffffffffffffffffffffffff16815260200190815260200160002060006101000a81548160ff0219169083151502179055506001600760008b73ffffffffffffffffffffffffffffffffffffffff1673ffffffffffffffffffffffffffffffffffffffff1681526020019081526020016000206000601060009054906101000a900473ffffffffffffffffffffffffffffffffffffffff1673ffffffffffffffffffffffffffffffffffffffff1673ffffffffffffffffffffffffffffffffffffffff16815260200190815260200160002060006101000a81548160ff021916908315150217905550600c60008154809291906001019190505550505050505050505050565b60006001600760003373ffffffffffffffffffffffffffffffffffffffff1673ffffffffffffffffffffffffffffffffffffffff16815260200190815260200160002060008473ffffffffffffffffffffffffffffffffffffffff1673ffffffffffffffffffffffffffffffffffffffff16815260200190815260200160002060006101000a81548160ff021916908315150217905550600e6000815480929190600101919050555060019050919050565b600080601060009054906101000a900473ffffffffffffffffffffffffffffffffffffffff1673ffffffffffffffffffffffffffffffffffffffff163373ffffffffffffffffffffffffffffffffffffffff161415156114f257600080fd5b600a60008a73ffffffffffffffffffffffffffffffffffffffff1673ffffffffffffffffffffffffffffffffffffffff16815260200190815260200160002060009054906101000a900460ff1615151561154b57600080fd5b600660008a73ffffffffffffffffffffffffffffffffffffffff1673ffffffffffffffffffffffffffffffffffffffff1681526020019081526020016000209050868160000190805190602001906115a4929190612c07565b50858160010190805190602001906115bd929190612c07565b50848160020190805190602001906115d6929190612c07565b50838160030190805190602001906115ef929190612c07565b50828160040181905550888160050160006101000a81548173ffffffffffffffffffffffffffffffffffffffff021916908373ffffffffffffffffffffffffffffffffffffffff160217905550878160060160006101000a81548173ffffffffffffffffffffffffffffffffffffffff021916908373ffffffffffffffffffffffffffffffffffffffff16021790555060038990806001815401808255809150509060018203906000526020600020016000909192909190916101000a81548173ffffffffffffffffffffffffffffffffffffffff021916908373ffffffffffffffffffffffffffffffffffffffff16021790555050600f6000815480929190600101919050555050979650505050505050565b600080600760003373ffffffffffffffffffffffffffffffffffffffff1673ffffffffffffffffffffffffffffffffffffffff16815260200190815260200160002060008473ffffffffffffffffffffffffffffffffffffffff1673ffffffffffffffffffffffffffffffffffffffff16815260200190815260200160002060006101000a81548160ff02191690831515021790555060019050919050565b6000601060009054906101000a900473ffffffffffffffffffffffffffffffffffffffff1673ffffffffffffffffffffffffffffffffffffffff163373ffffffffffffffffffffffffffffffffffffffff1614151561180057600080fd5b600860008c73ffffffffffffffffffffffffffffffffffffffff1673ffffffffffffffffffffffffffffffffffffffff16815260200190815260200160002060009054906101000a900460ff1615151561185957600080fd5b600460008c73ffffffffffffffffffffffffffffffffffffffff1673ffffffffffffffffffffffffffffffffffffffff1681526020019081526020016000209050898160000190805190602001906118b2929190612c07565b50888160010190805190602001906118cb929190612c07565b50878160020190805190602001906118e4929190612c07565b50868160030190805190602001906118fd929190612c07565b5085816004019080519060200190611916929190612c07565b508481600501908051906020019061192f929190612c07565b5083816006019080519060200190611948929190612c07565b5082816007019080519060200190611961929190612c07565b508181600801908051906020019061197a929190612c07565b508a8160090160006101000a81548173ffffffffffffffffffffffffffffffffffffffff021916908373ffffffffffffffffffffffffffffffffffffffff1602179055504281600a018190555060018b90806001815401808255809150509060018203906000526020600020016000909192909190916101000a81548173ffffffffffffffffffffffffffffffffffffffff021916908373ffffffffffffffffffffffffffffffffffffffff160217905550506001600860008d73ffffffffffffffffffffffffffffffffffffffff1673ffffffffffffffffffffffffffffffffffffffff16815260200190815260200160002060006101000a81548160ff0219169083151502179055506001600760008d73ffffffffffffffffffffffffffffffffffffffff1673ffffffffffffffffffffffffffffffffffffffff16815260200190815260200160002060008d73ffffffffffffffffffffffffffffffffffffffff1673ffffffffffffffffffffffffffffffffffffffff16815260200190815260200160002060006101000a81548160ff0219169083151502179055506001600760008d73ffffffffffffffffffffffffffffffffffffffff1673ffffffffffffffffffffffffffffffffffffffff1681526020019081526020016000206000601060009054906101000a900473ffffffffffffffffffffffffffffffffffffffff1673ffffffffffffffffffffffffffffffffffffffff1673ffffffffffffffffffffffffffffffffffffffff16815260200190815260200160002060006101000a81548160ff021916908315150217905550600b600081548092919060010191905055505050505050505050505050565b6000601060009054906101000a900473ffffffffffffffffffffffffffffffffffffffff1673ffffffffffffffffffffffffffffffffffffffff163373ffffffffffffffffffffffffffffffffffffffff16141515611c4e57600080fd5b600860008c73ffffffffffffffffffffffffffffffffffffffff1673ffffffffffffffffffffffffffffffffffffffff16815260200190815260200160002060009054906101000a900460ff161515611ca657600080fd5b600460008c73ffffffffffffffffffffffffffffffffffffffff1673ffffffffffffffffffffffffffffffffffffffff168152602001908152602001600020905089816000019080519060200190611cff929190612c07565b5088816001019080519060200190611d18929190612c07565b5087816002019080519060200190611d31929190612c07565b5086816003019080519060200190611d4a929190612c07565b5085816004019080519060200190611d63929190612c07565b5084816005019080519060200190611d7c929190612c07565b5083816006019080519060200190611d95929190612c07565b5082816007019080519060200190611dae929190612c07565b5081816008019080519060200190611dc7929190612c07565b508a8160090160006101000a81548173ffffffffffffffffffffffffffffffffffffffff021916908373ffffffffffffffffffffffffffffffffffffffff1602179055505050505050505050505050565b600c5481565b6000600c54905090565b60008060009050600280549050811015611ea75760011515600960008573ffffffffffffffffffffffffffffffffffffffff1673ffffffffffffffffffffffffffffffffffffffff16815260200190815260200160002060009054906101000a900460ff1615151415611e9e5760019150611ea8565b60009150611ea8565b5b50919050565b606080606080600080600080600760008a73ffffffffffffffffffffffffffffffffffffffff1673ffffffffffffffffffffffffffffffffffffffff16815260200190815260200160002060003373ffffffffffffffffffffffffffffffffffffffff1673ffffffffffffffffffffffffffffffffffffffff16815260200190815260200160002060009054906101000a900460ff161515611f4f57600080fd5b600660008a73ffffffffffffffffffffffffffffffffffffffff1673ffffffffffffffffffffffffffffffffffffffff16815260200190815260200160002090508060010181600001826002018360030184600401548560050160009054906101000a900473ffffffffffffffffffffffffffffffffffffffff168660060160009054906101000a900473ffffffffffffffffffffffffffffffffffffffff16868054600181600116156101000203166002900480601f0160208091040260200160405190810160405280929190818152602001828054600181600116156101000203166002900480156120845780601f1061205957610100808354040283529160200191612084565b820191906000526020600020905b81548152906001019060200180831161206757829003601f168201915b50505050509650858054600181600116156101000203166002900480601f0160208091040260200160405190810160405280929190818152602001828054600181600116156101000203166002900480156121205780601f106120f557610100808354040283529160200191612120565b820191906000526020600020905b81548152906001019060200180831161210357829003601f168201915b50505050509550848054600181600116156101000203166002900480601f0160208091040260200160405190810160405280929190818152602001828054600181600116156101000203166002900480156121bc5780601f10612191576101008083540402835291602001916121bc565b820191906000526020600020905b81548152906001019060200180831161219f57829003601f168201915b50505050509450838054600181600116156101000203166002900480601f0160208091040260200160405190810160405280929190818152602001828054600181600116156101000203166002900480156122585780601f1061222d57610100808354040283529160200191612258565b820191906000526020600020905b81548152906001019060200180831161223b57829003601f168201915b50505050509350975097509750975097509750975050919395979092949650565b6000809054906101000a900473ffffffffffffffffffffffffffffffffffffffff1681565b6000601060009054906101000a900473ffffffffffffffffffffffffffffffffffffffff16905090565b600f5481565b600d5481565b6001818154811015156122e357fe5b906000526020600020016000915054906101000a900473ffffffffffffffffffffffffffffffffffffffff1681565b6060600280548060200260200160405190810160405280929190818152602001828054801561239657602002820191906000526020600020905b8160009054906101000a900473ffffffffffffffffffffffffffffffffffffffff1673ffffffffffffffffffffffffffffffffffffffff168152602001906001019080831161234c575b5050505050905090565b6000600b54905090565b601060009054906101000a900473ffffffffffffffffffffffffffffffffffffffff1681565b6000601060009054906101000a900473ffffffffffffffffffffffffffffffffffffffff1673ffffffffffffffffffffffffffffffffffffffff163373ffffffffffffffffffffffffffffffffffffffff1614151561242e57600080fd5b6000600760008573ffffffffffffffffffffffffffffffffffffffff1673ffffffffffffffffffffffffffffffffffffffff16815260200190815260200160002060008473ffffffffffffffffffffffffffffffffffffffff1673ffffffffffffffffffffffffffffffffffffffff16815260200190815260200160002060006101000a81548160ff0219169083151502179055506001905092915050565b600e5481565b6060806060806060806060600080600760008b73ffffffffffffffffffffffffffffffffffffffff1673ffffffffffffffffffffffffffffffffffffffff16815260200190815260200160002060003373ffffffffffffffffffffffffffffffffffffffff1673ffffffffffffffffffffffffffffffffffffffff16815260200190815260200160002060009054906101000a900460ff16151561257657600080fd5b600960008b73ffffffffffffffffffffffffffffffffffffffff1673ffffffffffffffffffffffffffffffffffffffff16815260200190815260200160002060009054906101000a900460ff1615156125ce57600080fd5b600560008b73ffffffffffffffffffffffffffffffffffffffff1673ffffffffffffffffffffffffffffffffffffffff1681526020019081526020016000209050806000018160010182600201836003018460050185600601866007018760080160009054906101000a900473ffffffffffffffffffffffffffffffffffffffff16878054600181600116156101000203166002900480601f0160208091040260200160405190810160405280929190818152602001828054600181600116156101000203166002900480156126e55780601f106126ba576101008083540402835291602001916126e5565b820191906000526020600020905b8154815290600101906020018083116126c857829003601f168201915b50505050509750868054600181600116156101000203166002900480601f0160208091040260200160405190810160405280929190818152602001828054600181600116156101000203166002900480156127815780601f1061275657610100808354040283529160200191612781565b820191906000526020600020905b81548152906001019060200180831161276457829003601f168201915b50505050509650858054600181600116156101000203166002900480601f01602080910402602001604051908101604052809291908181526020018280546001816001161561010002031660029004801561281d5780601f106127f25761010080835404028352916020019161281d565b820191906000526020600020905b81548152906001019060200180831161280057829003601f168201915b50505050509550848054600181600116156101000203166002900480601f0160208091040260200160405190810160405280929190818152602001828054600181600116156101000203166002900480156128b95780601f1061288e576101008083540402835291602001916128b9565b820191906000526020600020905b81548152906001019060200180831161289c57829003601f168201915b50505050509450838054600181600116156101000203166002900480601f0160208091040260200160405190810160405280929190818152602001828054600181600116156101000203166002900480156129555780601f1061292a57610100808354040283529160200191612955565b820191906000526020600020905b81548152906001019060200180831161293857829003601f168201915b50505050509350828054600181600116156101000203166002900480601f0160208091040260200160405190810160405280929190818152602001828054600181600116156101000203166002900480156129f15780601f106129c6576101008083540402835291602001916129f1565b820191906000526020600020905b8154815290600101906020018083116129d457829003601f168201915b50505050509250818054600181600116156101000203166002900480601f016020809104026020016040519081016040528092919081815260200182805460018160011615610100020316600290048015612a8d5780601f10612a6257610100808354040283529160200191612a8d565b820191906000526020600020905b815481529060010190602001808311612a7057829003601f168201915b505050505091509850985098509850985098509850985050919395975091939597565b6000601060009054906101000a900473ffffffffffffffffffffffffffffffffffffffff1673ffffffffffffffffffffffffffffffffffffffff163373ffffffffffffffffffffffffffffffffffffffff16141515612b0e57600080fd5b6001600760008573ffffffffffffffffffffffffffffffffffffffff1673ffffffffffffffffffffffffffffffffffffffff16815260200190815260200160002060008473ffffffffffffffffffffffffffffffffffffffff1673ffffffffffffffffffffffffffffffffffffffff16815260200190815260200160002060006101000a81548160ff021916908315150217905550600d600081548092919060010191905055506001905092915050565b6000600d54905090565b600381815481101515612bd857fe5b906000526020600020016000915054906101000a900473ffffffffffffffffffffffffffffffffffffffff1681565b828054600181600116156101000203166002900490600052602060002090601f016020900481019282601f10612c4857805160ff1916838001178555612c76565b82800160010185558215612c76579182015b82811115612c75578251825591602001919060010190612c5a565b5b509050612c839190612c87565b5090565b612ca991905b80821115612ca5576000816000905550600101612c8d565b5090565b90565b6000612cb882356134ed565b905092915050565b600082601f8301121515612cd357600080fd5b8135612ce6612ce18261345b565b61342e565b91508082526020830160208301858383011115612d0257600080fd5b612d0d838284613517565b50505092915050565b6000612d22823561350d565b905092915050565b600060208284031215612d3c57600080fd5b6000612d4a84828501612cac565b91505092915050565b60008060408385031215612d6657600080fd5b6000612d7485828601612cac565b9250506020612d8585828601612cac565b9150509250929050565b600080600080600080600060e0888a031215612daa57600080fd5b6000612db88a828b01612cac565b9750506020612dc98a828b01612cac565b965050604088013567ffffffffffffffff811115612de657600080fd5b612df28a828b01612cc0565b955050606088013567ffffffffffffffff811115612e0f57600080fd5b612e1b8a828b01612cc0565b945050608088013567ffffffffffffffff811115612e3857600080fd5b612e448a828b01612cc0565b93505060a088013567ffffffffffffffff811115612e6157600080fd5b612e6d8a828b01612cc0565b92505060c0612e7e8a828b01612d16565b91505092959891949750929550565b600080600080600080600080610100898b031215612eaa57600080fd5b6000612eb88b828c01612cac565b985050602089013567ffffffffffffffff811115612ed557600080fd5b612ee18b828c01612cc0565b975050604089013567ffffffffffffffff811115612efe57600080fd5b612f0a8b828c01612cc0565b965050606089013567ffffffffffffffff811115612f2757600080fd5b612f338b828c01612cc0565b955050608089013567ffffffffffffffff811115612f5057600080fd5b612f5c8b828c01612cc0565b94505060a089013567ffffffffffffffff811115612f7957600080fd5b612f858b828c01612cc0565b93505060c089013567ffffffffffffffff811115612fa257600080fd5b612fae8b828c01612cc0565b92505060e089013567ffffffffffffffff811115612fcb57600080fd5b612fd78b828c01612cc0565b9150509295985092959890939650565b6000806000806000806000806000806101408b8d03121561300757600080fd5b60006130158d828e01612cac565b9a505060208b013567ffffffffffffffff81111561303257600080fd5b61303e8d828e01612cc0565b99505060408b013567ffffffffffffffff81111561305b57600080fd5b6130678d828e01612cc0565b98505060608b013567ffffffffffffffff81111561308457600080fd5b6130908d828e01612cc0565b97505060808b013567ffffffffffffffff8111156130ad57600080fd5b6130b98d828e01612cc0565b96505060a08b013567ffffffffffffffff8111156130d657600080fd5b6130e28d828e01612cc0565b95505060c08b013567ffffffffffffffff8111156130ff57600080fd5b61310b8d828e01612cc0565b94505060e08b013567ffffffffffffffff81111561312857600080fd5b6131348d828e01612cc0565b9350506101008b013567ffffffffffffffff81111561315257600080fd5b61315e8d828e01612cc0565b9250506101208b013567ffffffffffffffff81111561317c57600080fd5b6131888d828e01612cc0565b9150509295989b9194979a5092959850565b6000602082840312156131ac57600080fd5b60006131ba84828501612d16565b91505092915050565b6131cc816134b7565b82525050565b60006131dd82613494565b8084526020840193506131ef83613487565b60005b82811015613221576132058683516131c3565b61320e826134aa565b91506020860195506001810190506131f2565b50849250505092915050565b613236816134d7565b82525050565b60006132478261349f565b80845261325b816020860160208601613526565b61326481613559565b602085010191505092915050565b61327b816134e3565b82525050565b600060208201905061329660008301846131c3565b92915050565b600060208201905081810360008301526132b681846131d2565b905092915050565b60006020820190506132d3600083018461322d565b92915050565b60006101008201905081810360008301526132f4818b61323c565b90508181036020830152613308818a61323c565b9050818103604083015261331c818961323c565b90508181036060830152613330818861323c565b90508181036080830152613344818761323c565b905081810360a0830152613358818661323c565b905081810360c083015261336c818561323c565b905061337b60e08301846131c3565b9998505050505050505050565b600060e08201905081810360008301526133a2818a61323c565b905081810360208301526133b6818961323c565b905081810360408301526133ca818861323c565b905081810360608301526133de818761323c565b90506133ed6080830186613272565b6133fa60a08301856131c3565b61340760c08301846131c3565b98975050505050505050565b60006020820190506134286000830184613272565b92915050565b6000604051905081810181811067ffffffffffffffff8211171561345157600080fd5b8060405250919050565b600067ffffffffffffffff82111561347257600080fd5b601f19601f8301169050602081019050919050565b6000602082019050919050565b600081519050919050565b600081519050919050565b6000602082019050919050565b600073ffffffffffffffffffffffffffffffffffffffff82169050919050565b60008115159050919050565b6000819050919050565b600073ffffffffffffffffffffffffffffffffffffffff82169050919050565b6000819050919050565b82818337600083830152505050565b60005b83811015613544578082015181840152602081019050613529565b83811115613553576000848401525b50505050565b6000601f19601f83011690509190505600a265627a7a72305820fa247dd6d225d54ce6940b0ec69c2e101cd153c2b14721184ef151eccb7a149b6c6578706572696d656e74616cf50037",
					"opcodes": "PUSH1 0x80 PUSH1 0x40 MSTORE PUSH1 0x0 PUSH1 0xB SSTORE PUSH1 0x0 PUSH1 0xC SSTORE PUSH1 0x0 PUSH1 0xD SSTORE PUSH1 0x0 PUSH1 0xE SSTORE PUSH1 0x0 PUSH1 0xF SSTORE PUSH20 0xC50C6297F56B033633C30354A854B074749CD2DC PUSH1 0x10 PUSH1 0x0 PUSH2 0x100 EXP DUP2 SLOAD DUP2 PUSH20 0xFFFFFFFFFFFFFFFFFFFFFFFFFFFFFFFFFFFFFFFF MUL NOT AND SWAP1 DUP4 PUSH20 0xFFFFFFFFFFFFFFFFFFFFFFFFFFFFFFFFFFFFFFFF AND MUL OR SWAP1 SSTORE POP CALLVALUE DUP1 ISZERO PUSH2 0x7E JUMPI PUSH1 0x0 DUP1 REVERT JUMPDEST POP PUSH2 0x35A4 DUP1 PUSH2 0x8E PUSH1 0x0 CODECOPY PUSH1 0x0 RETURN STOP PUSH1 0x80 PUSH1 0x40 MSTORE PUSH1 0x4 CALLDATASIZE LT PUSH2 0x17F JUMPI PUSH1 0x0 CALLDATALOAD PUSH29 0x100000000000000000000000000000000000000000000000000000000 SWAP1 DIV PUSH4 0xFFFFFFFF AND DUP1 PUSH3 0xCE8E3E EQ PUSH2 0x184 JUMPI DUP1 PUSH4 0x24DECC5 EQ PUSH2 0x1AF JUMPI DUP1 PUSH4 0x76FD2F8 EQ PUSH2 0x1DA JUMPI DUP1 PUSH4 0x7973CCF EQ PUSH2 0x21E JUMPI DUP1 PUSH4 0x127CA4B4 EQ PUSH2 0x249 JUMPI DUP1 PUSH4 0x16E0A611 EQ PUSH2 0x286 JUMPI DUP1 PUSH4 0x17E51111 EQ PUSH2 0x2AF JUMPI DUP1 PUSH4 0x294A4540 EQ PUSH2 0x2D8 JUMPI DUP1 PUSH4 0x44C23F88 EQ PUSH2 0x315 JUMPI DUP1 PUSH4 0x5FC8E8C6 EQ PUSH2 0x352 JUMPI DUP1 PUSH4 0x6CDB2278 EQ PUSH2 0x38F JUMPI DUP1 PUSH4 0x779A9576 EQ PUSH2 0x3B8 JUMPI DUP1 PUSH4 0x78522BC4 EQ PUSH2 0x3E1 JUMPI DUP1 PUSH4 0x79111C1C EQ PUSH2 0x40C JUMPI DUP1 PUSH4 0x793DE5F0 EQ PUSH2 0x437 JUMPI DUP1 PUSH4 0x83A28B29 EQ PUSH2 0x474 JUMPI DUP1 PUSH4 0x8DA5CB5B EQ PUSH2 0x4B7 JUMPI DUP1 PUSH4 0x8F84AA09 EQ PUSH2 0x4E2 JUMPI DUP1 PUSH4 0x96E39CE0 EQ PUSH2 0x50D JUMPI DUP1 PUSH4 0x99D698C5 EQ PUSH2 0x538 JUMPI DUP1 PUSH4 0x9F4216E8 EQ PUSH2 0x563 JUMPI DUP1 PUSH4 0xB13D5D94 EQ PUSH2 0x5A0 JUMPI DUP1 PUSH4 0xB5CB15F7 EQ PUSH2 0x5CB JUMPI DUP1 PUSH4 0xB744FF4D EQ PUSH2 0x5F6 JUMPI DUP1 PUSH4 0xC3BF7BF0 EQ PUSH2 0x621 JUMPI DUP1 PUSH4 0xC543A718 EQ PUSH2 0x65E JUMPI DUP1 PUSH4 0xCAEE6C85 EQ PUSH2 0x689 JUMPI DUP1 PUSH4 0xD118404B EQ PUSH2 0x6CD JUMPI DUP1 PUSH4 0xE0DF0AC6 EQ PUSH2 0x70A JUMPI DUP1 PUSH4 0xFF508DAB EQ PUSH2 0x735 JUMPI JUMPDEST PUSH1 0x0 DUP1 REVERT JUMPDEST CALLVALUE DUP1 ISZERO PUSH2 0x190 JUMPI PUSH1 0x0 DUP1 REVERT JUMPDEST POP PUSH2 0x199 PUSH2 0x772 JUMP JUMPDEST PUSH1 0x40 MLOAD PUSH2 0x1A6 SWAP2 SWAP1 PUSH2 0x329C JUMP JUMPDEST PUSH1 0x40 MLOAD DUP1 SWAP2 SUB SWAP1 RETURN JUMPDEST CALLVALUE DUP1 ISZERO PUSH2 0x1BB JUMPI PUSH1 0x0 DUP1 REVERT JUMPDEST POP PUSH2 0x1C4 PUSH2 0x800 JUMP JUMPDEST PUSH1 0x40 MLOAD PUSH2 0x1D1 SWAP2 SWAP1 PUSH2 0x3413 JUMP JUMPDEST PUSH1 0x40 MLOAD DUP1 SWAP2 SUB SWAP1 RETURN JUMPDEST CALLVALUE DUP1 ISZERO PUSH2 0x1E6 JUMPI PUSH1 0x0 DUP1 REVERT JUMPDEST POP PUSH2 0x201 PUSH1 0x4 DUP1 CALLDATASIZE SUB PUSH2 0x1FC SWAP2 SWAP1 DUP2 ADD SWAP1 PUSH2 0x2D2A JUMP JUMPDEST PUSH2 0x80A JUMP JUMPDEST PUSH1 0x40 MLOAD PUSH2 0x215 SWAP9 SWAP8 SWAP7 SWAP6 SWAP5 SWAP4 SWAP3 SWAP2 SWAP1 PUSH2 0x32D9 JUMP JUMPDEST PUSH1 0x40 MLOAD DUP1 SWAP2 SUB SWAP1 RETURN JUMPDEST CALLVALUE DUP1 ISZERO PUSH2 0x22A JUMPI PUSH1 0x0 DUP1 REVERT JUMPDEST POP PUSH2 0x233 PUSH2 0xD8F JUMP JUMPDEST PUSH1 0x40 MLOAD PUSH2 0x240 SWAP2 SWAP1 PUSH2 0x3413 JUMP JUMPDEST PUSH1 0x40 MLOAD DUP1 SWAP2 SUB SWAP1 RETURN JUMPDEST CALLVALUE DUP1 ISZERO PUSH2 0x255 JUMPI PUSH1 0x0 DUP1 REVERT JUMPDEST POP PUSH2 0x270 PUSH1 0x4 DUP1 CALLDATASIZE SUB PUSH2 0x26B SWAP2 SWAP1 DUP2 ADD SWAP1 PUSH2 0x319A JUMP JUMPDEST PUSH2 0xD95 JUMP JUMPDEST PUSH1 0x40 MLOAD PUSH2 0x27D SWAP2 SWAP1 PUSH2 0x3281 JUMP JUMPDEST PUSH1 0x40 MLOAD DUP1 SWAP2 SUB SWAP1 RETURN JUMPDEST CALLVALUE DUP1 ISZERO PUSH2 0x292 JUMPI PUSH1 0x0 DUP1 REVERT JUMPDEST POP PUSH2 0x2AD PUSH1 0x4 DUP1 CALLDATASIZE SUB PUSH2 0x2A8 SWAP2 SWAP1 DUP2 ADD SWAP1 PUSH2 0x2E8D JUMP JUMPDEST PUSH2 0xDD3 JUMP JUMPDEST STOP JUMPDEST CALLVALUE DUP1 ISZERO PUSH2 0x2BB JUMPI PUSH1 0x0 DUP1 REVERT JUMPDEST POP PUSH2 0x2D6 PUSH1 0x4 DUP1 CALLDATASIZE SUB PUSH2 0x2D1 SWAP2 SWAP1 DUP2 ADD SWAP1 PUSH2 0x2E8D JUMP JUMPDEST PUSH2 0xFC7 JUMP JUMPDEST STOP JUMPDEST CALLVALUE DUP1 ISZERO PUSH2 0x2E4 JUMPI PUSH1 0x0 DUP1 REVERT JUMPDEST POP PUSH2 0x2FF PUSH1 0x4 DUP1 CALLDATASIZE SUB PUSH2 0x2FA SWAP2 SWAP1 DUP2 ADD SWAP1 PUSH2 0x2D2A JUMP JUMPDEST PUSH2 0x13E1 JUMP JUMPDEST PUSH1 0x40 MLOAD PUSH2 0x30C SWAP2 SWAP1 PUSH2 0x32BE JUMP JUMPDEST PUSH1 0x40 MLOAD DUP1 SWAP2 SUB SWAP1 RETURN JUMPDEST CALLVALUE DUP1 ISZERO PUSH2 0x321 JUMPI PUSH1 0x0 DUP1 REVERT JUMPDEST POP PUSH2 0x33C PUSH1 0x4 DUP1 CALLDATASIZE SUB PUSH2 0x337 SWAP2 SWAP1 DUP2 ADD SWAP1 PUSH2 0x2D8F JUMP JUMPDEST PUSH2 0x1493 JUMP JUMPDEST PUSH1 0x40 MLOAD PUSH2 0x349 SWAP2 SWAP1 PUSH2 0x32BE JUMP JUMPDEST PUSH1 0x40 MLOAD DUP1 SWAP2 SUB SWAP1 RETURN JUMPDEST CALLVALUE DUP1 ISZERO PUSH2 0x35E JUMPI PUSH1 0x0 DUP1 REVERT JUMPDEST POP PUSH2 0x379 PUSH1 0x4 DUP1 CALLDATASIZE SUB PUSH2 0x374 SWAP2 SWAP1 DUP2 ADD SWAP1 PUSH2 0x2D2A JUMP JUMPDEST PUSH2 0x1703 JUMP JUMPDEST PUSH1 0x40 MLOAD PUSH2 0x386 SWAP2 SWAP1 PUSH2 0x32BE JUMP JUMPDEST PUSH1 0x40 MLOAD DUP1 SWAP2 SUB SWAP1 RETURN JUMPDEST CALLVALUE DUP1 ISZERO PUSH2 0x39B JUMPI PUSH1 0x0 DUP1 REVERT JUMPDEST POP PUSH2 0x3B6 PUSH1 0x4 DUP1 CALLDATASIZE SUB PUSH2 0x3B1 SWAP2 SWAP1 DUP2 ADD SWAP1 PUSH2 0x2FE7 JUMP JUMPDEST PUSH2 0x17A2 JUMP JUMPDEST STOP JUMPDEST CALLVALUE DUP1 ISZERO PUSH2 0x3C4 JUMPI PUSH1 0x0 DUP1 REVERT JUMPDEST POP PUSH2 0x3DF PUSH1 0x4 DUP1 CALLDATASIZE SUB PUSH2 0x3DA SWAP2 SWAP1 DUP2 ADD SWAP1 PUSH2 0x2FE7 JUMP JUMPDEST PUSH2 0x1BF0 JUMP JUMPDEST STOP JUMPDEST CALLVALUE DUP1 ISZERO PUSH2 0x3ED JUMPI PUSH1 0x0 DUP1 REVERT JUMPDEST POP PUSH2 0x3F6 PUSH2 0x1E18 JUMP JUMPDEST PUSH1 0x40 MLOAD PUSH2 0x403 SWAP2 SWAP1 PUSH2 0x3413 JUMP JUMPDEST PUSH1 0x40 MLOAD DUP1 SWAP2 SUB SWAP1 RETURN JUMPDEST CALLVALUE DUP1 ISZERO PUSH2 0x418 JUMPI PUSH1 0x0 DUP1 REVERT JUMPDEST POP PUSH2 0x421 PUSH2 0x1E1E JUMP JUMPDEST PUSH1 0x40 MLOAD PUSH2 0x42E SWAP2 SWAP1 PUSH2 0x3413 JUMP JUMPDEST PUSH1 0x40 MLOAD DUP1 SWAP2 SUB SWAP1 RETURN JUMPDEST CALLVALUE DUP1 ISZERO PUSH2 0x443 JUMPI PUSH1 0x0 DUP1 REVERT JUMPDEST POP PUSH2 0x45E PUSH1 0x4 DUP1 CALLDATASIZE SUB PUSH2 0x459 SWAP2 SWAP1 DUP2 ADD SWAP1 PUSH2 0x2D2A JUMP JUMPDEST PUSH2 0x1E28 JUMP JUMPDEST PUSH1 0x40 MLOAD PUSH2 0x46B SWAP2 SWAP1 PUSH2 0x32BE JUMP JUMPDEST PUSH1 0x40 MLOAD DUP1 SWAP2 SUB SWAP1 RETURN JUMPDEST CALLVALUE DUP1 ISZERO PUSH2 0x480 JUMPI PUSH1 0x0 DUP1 REVERT JUMPDEST POP PUSH2 0x49B PUSH1 0x4 DUP1 CALLDATASIZE SUB PUSH2 0x496 SWAP2 SWAP1 DUP2 ADD SWAP1 PUSH2 0x2D2A JUMP JUMPDEST PUSH2 0x1EAE JUMP JUMPDEST PUSH1 0x40 MLOAD PUSH2 0x4AE SWAP8 SWAP7 SWAP6 SWAP5 SWAP4 SWAP3 SWAP2 SWAP1 PUSH2 0x3388 JUMP JUMPDEST PUSH1 0x40 MLOAD DUP1 SWAP2 SUB SWAP1 RETURN JUMPDEST CALLVALUE DUP1 ISZERO PUSH2 0x4C3 JUMPI PUSH1 0x0 DUP1 REVERT JUMPDEST POP PUSH2 0x4CC PUSH2 0x2279 JUMP JUMPDEST PUSH1 0x40 MLOAD PUSH2 0x4D9 SWAP2 SWAP1 PUSH2 0x3281 JUMP JUMPDEST PUSH1 0x40 MLOAD DUP1 SWAP2 SUB SWAP1 RETURN JUMPDEST CALLVALUE DUP1 ISZERO PUSH2 0x4EE JUMPI PUSH1 0x0 DUP1 REVERT JUMPDEST POP PUSH2 0x4F7 PUSH2 0x229E JUMP JUMPDEST PUSH1 0x40 MLOAD PUSH2 0x504 SWAP2 SWAP1 PUSH2 0x3281 JUMP JUMPDEST PUSH1 0x40 MLOAD DUP1 SWAP2 SUB SWAP1 RETURN JUMPDEST CALLVALUE DUP1 ISZERO PUSH2 0x519 JUMPI PUSH1 0x0 DUP1 REVERT JUMPDEST POP PUSH2 0x522 PUSH2 0x22C8 JUMP JUMPDEST PUSH1 0x40 MLOAD PUSH2 0x52F SWAP2 SWAP1 PUSH2 0x3413 JUMP JUMPDEST PUSH1 0x40 MLOAD DUP1 SWAP2 SUB SWAP1 RETURN JUMPDEST CALLVALUE DUP1 ISZERO PUSH2 0x544 JUMPI PUSH1 0x0 DUP1 REVERT JUMPDEST POP PUSH2 0x54D PUSH2 0x22CE JUMP JUMPDEST PUSH1 0x40 MLOAD PUSH2 0x55A SWAP2 SWAP1 PUSH2 0x3413 JUMP JUMPDEST PUSH1 0x40 MLOAD DUP1 SWAP2 SUB SWAP1 RETURN JUMPDEST CALLVALUE DUP1 ISZERO PUSH2 0x56F JUMPI PUSH1 0x0 DUP1 REVERT JUMPDEST POP PUSH2 0x58A PUSH1 0x4 DUP1 CALLDATASIZE SUB PUSH2 0x585 SWAP2 SWAP1 DUP2 ADD SWAP1 PUSH2 0x319A JUMP JUMPDEST PUSH2 0x22D4 JUMP JUMPDEST PUSH1 0x40 MLOAD PUSH2 0x597 SWAP2 SWAP1 PUSH2 0x3281 JUMP JUMPDEST PUSH1 0x40 MLOAD DUP1 SWAP2 SUB SWAP1 RETURN JUMPDEST CALLVALUE DUP1 ISZERO PUSH2 0x5AC JUMPI PUSH1 0x0 DUP1 REVERT JUMPDEST POP PUSH2 0x5B5 PUSH2 0x2312 JUMP JUMPDEST PUSH1 0x40 MLOAD PUSH2 0x5C2 SWAP2 SWAP1 PUSH2 0x329C JUMP JUMPDEST PUSH1 0x40 MLOAD DUP1 SWAP2 SUB SWAP1 RETURN JUMPDEST CALLVALUE DUP1 ISZERO PUSH2 0x5D7 JUMPI PUSH1 0x0 DUP1 REVERT JUMPDEST POP PUSH2 0x5E0 PUSH2 0x23A0 JUMP JUMPDEST PUSH1 0x40 MLOAD PUSH2 0x5ED SWAP2 SWAP1 PUSH2 0x3413 JUMP JUMPDEST PUSH1 0x40 MLOAD DUP1 SWAP2 SUB SWAP1 RETURN JUMPDEST CALLVALUE DUP1 ISZERO PUSH2 0x602 JUMPI PUSH1 0x0 DUP1 REVERT JUMPDEST POP PUSH2 0x60B PUSH2 0x23AA JUMP JUMPDEST PUSH1 0x40 MLOAD PUSH2 0x618 SWAP2 SWAP1 PUSH2 0x3281 JUMP JUMPDEST PUSH1 0x40 MLOAD DUP1 SWAP2 SUB SWAP1 RETURN JUMPDEST CALLVALUE DUP1 ISZERO PUSH2 0x62D JUMPI PUSH1 0x0 DUP1 REVERT JUMPDEST POP PUSH2 0x648 PUSH1 0x4 DUP1 CALLDATASIZE SUB PUSH2 0x643 SWAP2 SWAP1 DUP2 ADD SWAP1 PUSH2 0x2D53 JUMP JUMPDEST PUSH2 0x23D0 JUMP JUMPDEST PUSH1 0x40 MLOAD PUSH2 0x655 SWAP2 SWAP1 PUSH2 0x32BE JUMP JUMPDEST PUSH1 0x40 MLOAD DUP1 SWAP2 SUB SWAP1 RETURN JUMPDEST CALLVALUE DUP1 ISZERO PUSH2 0x66A JUMPI PUSH1 0x0 DUP1 REVERT JUMPDEST POP PUSH2 0x673 PUSH2 0x24CD JUMP JUMPDEST PUSH1 0x40 MLOAD PUSH2 0x680 SWAP2 SWAP1 PUSH2 0x3413 JUMP JUMPDEST PUSH1 0x40 MLOAD DUP1 SWAP2 SUB SWAP1 RETURN JUMPDEST CALLVALUE DUP1 ISZERO PUSH2 0x695 JUMPI PUSH1 0x0 DUP1 REVERT JUMPDEST POP PUSH2 0x6B0 PUSH1 0x4 DUP1 CALLDATASIZE SUB PUSH2 0x6AB SWAP2 SWAP1 DUP2 ADD SWAP1 PUSH2 0x2D2A JUMP JUMPDEST PUSH2 0x24D3 JUMP JUMPDEST PUSH1 0x40 MLOAD PUSH2 0x6C4 SWAP9 SWAP8 SWAP7 SWAP6 SWAP5 SWAP4 SWAP3 SWAP2 SWAP1 PUSH2 0x32D9 JUMP JUMPDEST PUSH1 0x40 MLOAD DUP1 SWAP2 SUB SWAP1 RETURN JUMPDEST CALLVALUE DUP1 ISZERO PUSH2 0x6D9 JUMPI PUSH1 0x0 DUP1 REVERT JUMPDEST POP PUSH2 0x6F4 PUSH1 0x4 DUP1 CALLDATASIZE SUB PUSH2 0x6EF SWAP2 SWAP1 DUP2 ADD SWAP1 PUSH2 0x2D53 JUMP JUMPDEST PUSH2 0x2AB0 JUMP JUMPDEST PUSH1 0x40 MLOAD PUSH2 0x701 SWAP2 SWAP1 PUSH2 0x32BE JUMP JUMPDEST PUSH1 0x40 MLOAD DUP1 SWAP2 SUB SWAP1 RETURN JUMPDEST CALLVALUE DUP1 ISZERO PUSH2 0x716 JUMPI PUSH1 0x0 DUP1 REVERT JUMPDEST POP PUSH2 0x71F PUSH2 0x2BBF JUMP JUMPDEST PUSH1 0x40 MLOAD PUSH2 0x72C SWAP2 SWAP1 PUSH2 0x3413 JUMP JUMPDEST PUSH1 0x40 MLOAD DUP1 SWAP2 SUB SWAP1 RETURN JUMPDEST CALLVALUE DUP1 ISZERO PUSH2 0x741 JUMPI PUSH1 0x0 DUP1 REVERT JUMPDEST POP PUSH2 0x75C PUSH1 0x4 DUP1 CALLDATASIZE SUB PUSH2 0x757 SWAP2 SWAP1 DUP2 ADD SWAP1 PUSH2 0x319A JUMP JUMPDEST PUSH2 0x2BC9 JUMP JUMPDEST PUSH1 0x40 MLOAD PUSH2 0x769 SWAP2 SWAP1 PUSH2 0x3281 JUMP JUMPDEST PUSH1 0x40 MLOAD DUP1 SWAP2 SUB SWAP1 RETURN JUMPDEST PUSH1 0x60 PUSH1 0x1 DUP1 SLOAD DUP1 PUSH1 0x20 MUL PUSH1 0x20 ADD PUSH1 0x40 MLOAD SWAP1 DUP2 ADD PUSH1 0x40 MSTORE DUP1 SWAP3 SWAP2 SWAP1 DUP2 DUP2 MSTORE PUSH1 0x20 ADD DUP3 DUP1 SLOAD DUP1 ISZERO PUSH2 0x7F6 JUMPI PUSH1 0x20 MUL DUP3 ADD SWAP2 SWAP1 PUSH1 0x0 MSTORE PUSH1 0x20 PUSH1 0x0 KECCAK256 SWAP1 JUMPDEST DUP2 PUSH1 0x0 SWAP1 SLOAD SWAP1 PUSH2 0x100 EXP SWAP1 DIV PUSH20 0xFFFFFFFFFFFFFFFFFFFFFFFFFFFFFFFFFFFFFFFF AND PUSH20 0xFFFFFFFFFFFFFFFFFFFFFFFFFFFFFFFFFFFFFFFF AND DUP2 MSTORE PUSH1 0x20 ADD SWAP1 PUSH1 0x1 ADD SWAP1 DUP1 DUP4 GT PUSH2 0x7AC JUMPI JUMPDEST POP POP POP POP POP SWAP1 POP SWAP1 JUMP JUMPDEST PUSH1 0x0 PUSH1 0xE SLOAD SWAP1 POP SWAP1 JUMP JUMPDEST PUSH1 0x60 DUP1 PUSH1 0x60 DUP1 PUSH1 0x60 DUP1 PUSH1 0x60 PUSH1 0x0 DUP1 PUSH1 0x7 PUSH1 0x0 DUP12 PUSH20 0xFFFFFFFFFFFFFFFFFFFFFFFFFFFFFFFFFFFFFFFF AND PUSH20 0xFFFFFFFFFFFFFFFFFFFFFFFFFFFFFFFFFFFFFFFF AND DUP2 MSTORE PUSH1 0x20 ADD SWAP1 DUP2 MSTORE PUSH1 0x20 ADD PUSH1 0x0 KECCAK256 PUSH1 0x0 CALLER PUSH20 0xFFFFFFFFFFFFFFFFFFFFFFFFFFFFFFFFFFFFFFFF AND PUSH20 0xFFFFFFFFFFFFFFFFFFFFFFFFFFFFFFFFFFFFFFFF AND DUP2 MSTORE PUSH1 0x20 ADD SWAP1 DUP2 MSTORE PUSH1 0x20 ADD PUSH1 0x0 KECCAK256 PUSH1 0x0 SWAP1 SLOAD SWAP1 PUSH2 0x100 EXP SWAP1 DIV PUSH1 0xFF AND ISZERO ISZERO PUSH2 0x8AD JUMPI PUSH1 0x0 DUP1 REVERT JUMPDEST PUSH1 0x4 PUSH1 0x0 DUP12 PUSH20 0xFFFFFFFFFFFFFFFFFFFFFFFFFFFFFFFFFFFFFFFF AND PUSH20 0xFFFFFFFFFFFFFFFFFFFFFFFFFFFFFFFFFFFFFFFF AND DUP2 MSTORE PUSH1 0x20 ADD SWAP1 DUP2 MSTORE PUSH1 0x20 ADD PUSH1 0x0 KECCAK256 SWAP1 POP DUP1 PUSH1 0x0 ADD DUP2 PUSH1 0x1 ADD DUP3 PUSH1 0x6 ADD DUP4 PUSH1 0x2 ADD DUP5 PUSH1 0x3 ADD DUP6 PUSH1 0x4 ADD DUP7 PUSH1 0x5 ADD DUP8 PUSH1 0x9 ADD PUSH1 0x0 SWAP1 SLOAD SWAP1 PUSH2 0x100 EXP SWAP1 DIV PUSH20 0xFFFFFFFFFFFFFFFFFFFFFFFFFFFFFFFFFFFFFFFF AND DUP8 DUP1 SLOAD PUSH1 0x1 DUP2 PUSH1 0x1 AND ISZERO PUSH2 0x100 MUL SUB AND PUSH1 0x2 SWAP1 DIV DUP1 PUSH1 0x1F ADD PUSH1 0x20 DUP1 SWAP2 DIV MUL PUSH1 0x20 ADD PUSH1 0x40 MLOAD SWAP1 DUP2 ADD PUSH1 0x40 MSTORE DUP1 SWAP3 SWAP2 SWAP1 DUP2 DUP2 MSTORE PUSH1 0x20 ADD DUP3 DUP1 SLOAD PUSH1 0x1 DUP2 PUSH1 0x1 AND ISZERO PUSH2 0x100 MUL SUB AND PUSH1 0x2 SWAP1 DIV DUP1 ISZERO PUSH2 0x9C4 JUMPI DUP1 PUSH1 0x1F LT PUSH2 0x999 JUMPI PUSH2 0x100 DUP1 DUP4 SLOAD DIV MUL DUP4 MSTORE SWAP2 PUSH1 0x20 ADD SWAP2 PUSH2 0x9C4 JUMP JUMPDEST DUP3 ADD SWAP2 SWAP1 PUSH1 0x0 MSTORE PUSH1 0x20 PUSH1 0x0 KECCAK256 SWAP1 JUMPDEST DUP2 SLOAD DUP2 MSTORE SWAP1 PUSH1 0x1 ADD SWAP1 PUSH1 0x20 ADD DUP1 DUP4 GT PUSH2 0x9A7 JUMPI DUP3 SWAP1 SUB PUSH1 0x1F AND DUP3 ADD SWAP2 JUMPDEST POP POP POP POP POP SWAP8 POP DUP7 DUP1 SLOAD PUSH1 0x1 DUP2 PUSH1 0x1 AND ISZERO PUSH2 0x100 MUL SUB AND PUSH1 0x2 SWAP1 DIV DUP1 PUSH1 0x1F ADD PUSH1 0x20 DUP1 SWAP2 DIV MUL PUSH1 0x20 ADD PUSH1 0x40 MLOAD SWAP1 DUP2 ADD PUSH1 0x40 MSTORE DUP1 SWAP3 SWAP2 SWAP1 DUP2 DUP2 MSTORE PUSH1 0x20 ADD DUP3 DUP1 SLOAD PUSH1 0x1 DUP2 PUSH1 0x1 AND ISZERO PUSH2 0x100 MUL SUB AND PUSH1 0x2 SWAP1 DIV DUP1 ISZERO PUSH2 0xA60 JUMPI DUP1 PUSH1 0x1F LT PUSH2 0xA35 JUMPI PUSH2 0x100 DUP1 DUP4 SLOAD DIV MUL DUP4 MSTORE SWAP2 PUSH1 0x20 ADD SWAP2 PUSH2 0xA60 JUMP JUMPDEST DUP3 ADD SWAP2 SWAP1 PUSH1 0x0 MSTORE PUSH1 0x20 PUSH1 0x0 KECCAK256 SWAP1 JUMPDEST DUP2 SLOAD DUP2 MSTORE SWAP1 PUSH1 0x1 ADD SWAP1 PUSH1 0x20 ADD DUP1 DUP4 GT PUSH2 0xA43 JUMPI DUP3 SWAP1 SUB PUSH1 0x1F AND DUP3 ADD SWAP2 JUMPDEST POP POP POP POP POP SWAP7 POP DUP6 DUP1 SLOAD PUSH1 0x1 DUP2 PUSH1 0x1 AND ISZERO PUSH2 0x100 MUL SUB AND PUSH1 0x2 SWAP1 DIV DUP1 PUSH1 0x1F ADD PUSH1 0x20 DUP1 SWAP2 DIV MUL PUSH1 0x20 ADD PUSH1 0x40 MLOAD SWAP1 DUP2 ADD PUSH1 0x40 MSTORE DUP1 SWAP3 SWAP2 SWAP1 DUP2 DUP2 MSTORE PUSH1 0x20 ADD DUP3 DUP1 SLOAD PUSH1 0x1 DUP2 PUSH1 0x1 AND ISZERO PUSH2 0x100 MUL SUB AND PUSH1 0x2 SWAP1 DIV DUP1 ISZERO PUSH2 0xAFC JUMPI DUP1 PUSH1 0x1F LT PUSH2 0xAD1 JUMPI PUSH2 0x100 DUP1 DUP4 SLOAD DIV MUL DUP4 MSTORE SWAP2 PUSH1 0x20 ADD SWAP2 PUSH2 0xAFC JUMP JUMPDEST DUP3 ADD SWAP2 SWAP1 PUSH1 0x0 MSTORE PUSH1 0x20 PUSH1 0x0 KECCAK256 SWAP1 JUMPDEST DUP2 SLOAD DUP2 MSTORE SWAP1 PUSH1 0x1 ADD SWAP1 PUSH1 0x20 ADD DUP1 DUP4 GT PUSH2 0xADF JUMPI DUP3 SWAP1 SUB PUSH1 0x1F AND DUP3 ADD SWAP2 JUMPDEST POP POP POP POP POP SWAP6 POP DUP5 DUP1 SLOAD PUSH1 0x1 DUP2 PUSH1 0x1 AND ISZERO PUSH2 0x100 MUL SUB AND PUSH1 0x2 SWAP1 DIV DUP1 PUSH1 0x1F ADD PUSH1 0x20 DUP1 SWAP2 DIV MUL PUSH1 0x20 ADD PUSH1 0x40 MLOAD SWAP1 DUP2 ADD PUSH1 0x40 MSTORE DUP1 SWAP3 SWAP2 SWAP1 DUP2 DUP2 MSTORE PUSH1 0x20 ADD DUP3 DUP1 SLOAD PUSH1 0x1 DUP2 PUSH1 0x1 AND ISZERO PUSH2 0x100 MUL SUB AND PUSH1 0x2 SWAP1 DIV DUP1 ISZERO PUSH2 0xB98 JUMPI DUP1 PUSH1 0x1F LT PUSH2 0xB6D JUMPI PUSH2 0x100 DUP1 DUP4 SLOAD DIV MUL DUP4 MSTORE SWAP2 PUSH1 0x20 ADD SWAP2 PUSH2 0xB98 JUMP JUMPDEST DUP3 ADD SWAP2 SWAP1 PUSH1 0x0 MSTORE PUSH1 0x20 PUSH1 0x0 KECCAK256 SWAP1 JUMPDEST DUP2 SLOAD DUP2 MSTORE SWAP1 PUSH1 0x1 ADD SWAP1 PUSH1 0x20 ADD DUP1 DUP4 GT PUSH2 0xB7B JUMPI DUP3 SWAP1 SUB PUSH1 0x1F AND DUP3 ADD SWAP2 JUMPDEST POP POP POP POP POP SWAP5 POP DUP4 DUP1 SLOAD PUSH1 0x1 DUP2 PUSH1 0x1 AND ISZERO PUSH2 0x100 MUL SUB AND PUSH1 0x2 SWAP1 DIV DUP1 PUSH1 0x1F ADD PUSH1 0x20 DUP1 SWAP2 DIV MUL PUSH1 0x20 ADD PUSH1 0x40 MLOAD SWAP1 DUP2 ADD PUSH1 0x40 MSTORE DUP1 SWAP3 SWAP2 SWAP1 DUP2 DUP2 MSTORE PUSH1 0x20 ADD DUP3 DUP1 SLOAD PUSH1 0x1 DUP2 PUSH1 0x1 AND ISZERO PUSH2 0x100 MUL SUB AND PUSH1 0x2 SWAP1 DIV DUP1 ISZERO PUSH2 0xC34 JUMPI DUP1 PUSH1 0x1F LT PUSH2 0xC09 JUMPI PUSH2 0x100 DUP1 DUP4 SLOAD DIV MUL DUP4 MSTORE SWAP2 PUSH1 0x20 ADD SWAP2 PUSH2 0xC34 JUMP JUMPDEST DUP3 ADD SWAP2 SWAP1 PUSH1 0x0 MSTORE PUSH1 0x20 PUSH1 0x0 KECCAK256 SWAP1 JUMPDEST DUP2 SLOAD DUP2 MSTORE SWAP1 PUSH1 0x1 ADD SWAP1 PUSH1 0x20 ADD DUP1 DUP4 GT PUSH2 0xC17 JUMPI DUP3 SWAP1 SUB PUSH1 0x1F AND DUP3 ADD SWAP2 JUMPDEST POP POP POP POP POP SWAP4 POP DUP3 DUP1 SLOAD PUSH1 0x1 DUP2 PUSH1 0x1 AND ISZERO PUSH2 0x100 MUL SUB AND PUSH1 0x2 SWAP1 DIV DUP1 PUSH1 0x1F ADD PUSH1 0x20 DUP1 SWAP2 DIV MUL PUSH1 0x20 ADD PUSH1 0x40 MLOAD SWAP1 DUP2 ADD PUSH1 0x40 MSTORE DUP1 SWAP3 SWAP2 SWAP1 DUP2 DUP2 MSTORE PUSH1 0x20 ADD DUP3 DUP1 SLOAD PUSH1 0x1 DUP2 PUSH1 0x1 AND ISZERO PUSH2 0x100 MUL SUB AND PUSH1 0x2 SWAP1 DIV DUP1 ISZERO PUSH2 0xCD0 JUMPI DUP1 PUSH1 0x1F LT PUSH2 0xCA5 JUMPI PUSH2 0x100 DUP1 DUP4 SLOAD DIV MUL DUP4 MSTORE SWAP2 PUSH1 0x20 ADD SWAP2 PUSH2 0xCD0 JUMP JUMPDEST DUP3 ADD SWAP2 SWAP1 PUSH1 0x0 MSTORE PUSH1 0x20 PUSH1 0x0 KECCAK256 SWAP1 JUMPDEST DUP2 SLOAD DUP2 MSTORE SWAP1 PUSH1 0x1 ADD SWAP1 PUSH1 0x20 ADD DUP1 DUP4 GT PUSH2 0xCB3 JUMPI DUP3 SWAP1 SUB PUSH1 0x1F AND DUP3 ADD SWAP2 JUMPDEST POP POP POP POP POP SWAP3 POP DUP2 DUP1 SLOAD PUSH1 0x1 DUP2 PUSH1 0x1 AND ISZERO PUSH2 0x100 MUL SUB AND PUSH1 0x2 SWAP1 DIV DUP1 PUSH1 0x1F ADD PUSH1 0x20 DUP1 SWAP2 DIV MUL PUSH1 0x20 ADD PUSH1 0x40 MLOAD SWAP1 DUP2 ADD PUSH1 0x40 MSTORE DUP1 SWAP3 SWAP2 SWAP1 DUP2 DUP2 MSTORE PUSH1 0x20 ADD DUP3 DUP1 SLOAD PUSH1 0x1 DUP2 PUSH1 0x1 AND ISZERO PUSH2 0x100 MUL SUB AND PUSH1 0x2 SWAP1 DIV DUP1 ISZERO PUSH2 0xD6C JUMPI DUP1 PUSH1 0x1F LT PUSH2 0xD41 JUMPI PUSH2 0x100 DUP1 DUP4 SLOAD DIV MUL DUP4 MSTORE SWAP2 PUSH1 0x20 ADD SWAP2 PUSH2 0xD6C JUMP JUMPDEST DUP3 ADD SWAP2 SWAP1 PUSH1 0x0 MSTORE PUSH1 0x20 PUSH1 0x0 KECCAK256 SWAP1 JUMPDEST DUP2 SLOAD DUP2 MSTORE SWAP1 PUSH1 0x1 ADD SWAP1 PUSH1 0x20 ADD DUP1 DUP4 GT PUSH2 0xD4F JUMPI DUP3 SWAP1 SUB PUSH1 0x1F AND DUP3 ADD SWAP2 JUMPDEST POP POP POP POP POP SWAP2 POP SWAP9 POP SWAP9 POP SWAP9 POP SWAP9 POP SWAP9 POP SWAP9 POP SWAP9 POP SWAP9 POP POP SWAP2 SWAP4 SWAP6 SWAP8 POP SWAP2 SWAP4 SWAP6 SWAP8 JUMP JUMPDEST PUSH1 0xB SLOAD DUP2 JUMP JUMPDEST PUSH1 0x2 DUP2 DUP2 SLOAD DUP2 LT ISZERO ISZERO PUSH2 0xDA4 JUMPI INVALID JUMPDEST SWAP1 PUSH1 0x0 MSTORE PUSH1 0x20 PUSH1 0x0 KECCAK256 ADD PUSH1 0x0 SWAP2 POP SLOAD SWAP1 PUSH2 0x100 EXP SWAP1 DIV PUSH20 0xFFFFFFFFFFFFFFFFFFFFFFFFFFFFFFFFFFFFFFFF AND DUP2 JUMP JUMPDEST PUSH1 0x0 PUSH1 0x10 PUSH1 0x0 SWAP1 SLOAD SWAP1 PUSH2 0x100 EXP SWAP1 DIV PUSH20 0xFFFFFFFFFFFFFFFFFFFFFFFFFFFFFFFFFFFFFFFF AND PUSH20 0xFFFFFFFFFFFFFFFFFFFFFFFFFFFFFFFFFFFFFFFF AND CALLER PUSH20 0xFFFFFFFFFFFFFFFFFFFFFFFFFFFFFFFFFFFFFFFF AND EQ ISZERO ISZERO PUSH2 0xE31 JUMPI PUSH1 0x0 DUP1 REVERT JUMPDEST PUSH1 0x9 PUSH1 0x0 DUP11 PUSH20 0xFFFFFFFFFFFFFFFFFFFFFFFFFFFFFFFFFFFFFFFF AND PUSH20 0xFFFFFFFFFFFFFFFFFFFFFFFFFFFFFFFFFFFFFFFF AND DUP2 MSTORE PUSH1 0x20 ADD SWAP1 DUP2 MSTORE PUSH1 0x20 ADD PUSH1 0x0 KECCAK256 PUSH1 0x0 SWAP1 SLOAD SWAP1 PUSH2 0x100 EXP SWAP1 DIV PUSH1 0xFF AND ISZERO ISZERO PUSH2 0xE89 JUMPI PUSH1 0x0 DUP1 REVERT JUMPDEST PUSH1 0x5 PUSH1 0x0 DUP11 PUSH20 0xFFFFFFFFFFFFFFFFFFFFFFFFFFFFFFFFFFFFFFFF AND PUSH20 0xFFFFFFFFFFFFFFFFFFFFFFFFFFFFFFFFFFFFFFFF AND DUP2 MSTORE PUSH1 0x20 ADD SWAP1 DUP2 MSTORE PUSH1 0x20 ADD PUSH1 0x0 KECCAK256 SWAP1 POP DUP8 DUP2 PUSH1 0x0 ADD SWAP1 DUP1 MLOAD SWAP1 PUSH1 0x20 ADD SWAP1 PUSH2 0xEE2 SWAP3 SWAP2 SWAP1 PUSH2 0x2C07 JUMP JUMPDEST POP DUP7 DUP2 PUSH1 0x1 ADD SWAP1 DUP1 MLOAD SWAP1 PUSH1 0x20 ADD SWAP1 PUSH2 0xEFB SWAP3 SWAP2 SWAP1 PUSH2 0x2C07 JUMP JUMPDEST POP DUP6 DUP2 PUSH1 0x2 ADD SWAP1 DUP1 MLOAD SWAP1 PUSH1 0x20 ADD SWAP1 PUSH2 0xF14 SWAP3 SWAP2 SWAP1 PUSH2 0x2C07 JUMP JUMPDEST POP DUP5 DUP2 PUSH1 0x3 ADD SWAP1 DUP1 MLOAD SWAP1 PUSH1 0x20 ADD SWAP1 PUSH2 0xF2D SWAP3 SWAP2 SWAP1 PUSH2 0x2C07 JUMP JUMPDEST POP DUP4 DUP2 PUSH1 0x5 ADD SWAP1 DUP1 MLOAD SWAP1 PUSH1 0x20 ADD SWAP1 PUSH2 0xF46 SWAP3 SWAP2 SWAP1 PUSH2 0x2C07 JUMP JUMPDEST POP DUP3 DUP2 PUSH1 0x6 ADD SWAP1 DUP1 MLOAD SWAP1 PUSH1 0x20 ADD SWAP1 PUSH2 0xF5F SWAP3 SWAP2 SWAP1 PUSH2 0x2C07 JUMP JUMPDEST POP DUP2 DUP2 PUSH1 0x7 ADD SWAP1 DUP1 MLOAD SWAP1 PUSH1 0x20 ADD SWAP1 PUSH2 0xF78 SWAP3 SWAP2 SWAP1 PUSH2 0x2C07 JUMP JUMPDEST POP DUP9 DUP2 PUSH1 0x8 ADD PUSH1 0x0 PUSH2 0x100 EXP DUP2 SLOAD DUP2 PUSH20 0xFFFFFFFFFFFFFFFFFFFFFFFFFFFFFFFFFFFFFFFF MUL NOT AND SWAP1 DUP4 PUSH20 0xFFFFFFFFFFFFFFFFFFFFFFFFFFFFFFFFFFFFFFFF AND MUL OR SWAP1 SSTORE POP POP POP POP POP POP POP POP POP POP JUMP JUMPDEST PUSH1 0x0 PUSH1 0x10 PUSH1 0x0 SWAP1 SLOAD SWAP1 PUSH2 0x100 EXP SWAP1 DIV PUSH20 0xFFFFFFFFFFFFFFFFFFFFFFFFFFFFFFFFFFFFFFFF AND PUSH20 0xFFFFFFFFFFFFFFFFFFFFFFFFFFFFFFFFFFFFFFFF AND CALLER PUSH20 0xFFFFFFFFFFFFFFFFFFFFFFFFFFFFFFFFFFFFFFFF AND EQ ISZERO ISZERO PUSH2 0x1025 JUMPI PUSH1 0x0 DUP1 REVERT JUMPDEST PUSH1 0x9 PUSH1 0x0 DUP11 PUSH20 0xFFFFFFFFFFFFFFFFFFFFFFFFFFFFFFFFFFFFFFFF AND PUSH20 0xFFFFFFFFFFFFFFFFFFFFFFFFFFFFFFFFFFFFFFFF AND DUP2 MSTORE PUSH1 0x20 ADD SWAP1 DUP2 MSTORE PUSH1 0x20 ADD PUSH1 0x0 KECCAK256 PUSH1 0x0 SWAP1 SLOAD SWAP1 PUSH2 0x100 EXP SWAP1 DIV PUSH1 0xFF AND ISZERO ISZERO ISZERO PUSH2 0x107E JUMPI PUSH1 0x0 DUP1 REVERT JUMPDEST PUSH1 0x5 PUSH1 0x0 DUP11 PUSH20 0xFFFFFFFFFFFFFFFFFFFFFFFFFFFFFFFFFFFFFFFF AND PUSH20 0xFFFFFFFFFFFFFFFFFFFFFFFFFFFFFFFFFFFFFFFF AND DUP2 MSTORE PUSH1 0x20 ADD SWAP1 DUP2 MSTORE PUSH1 0x20 ADD PUSH1 0x0 KECCAK256 SWAP1 POP DUP8 DUP2 PUSH1 0x0 ADD SWAP1 DUP1 MLOAD SWAP1 PUSH1 0x20 ADD SWAP1 PUSH2 0x10D7 SWAP3 SWAP2 SWAP1 PUSH2 0x2C07 JUMP JUMPDEST POP DUP7 DUP2 PUSH1 0x1 ADD SWAP1 DUP1 MLOAD SWAP1 PUSH1 0x20 ADD SWAP1 PUSH2 0x10F0 SWAP3 SWAP2 SWAP1 PUSH2 0x2C07 JUMP JUMPDEST POP DUP6 DUP2 PUSH1 0x2 ADD SWAP1 DUP1 MLOAD SWAP1 PUSH1 0x20 ADD SWAP1 PUSH2 0x1109 SWAP3 SWAP2 SWAP1 PUSH2 0x2C07 JUMP JUMPDEST POP DUP5 DUP2 PUSH1 0x3 ADD SWAP1 DUP1 MLOAD SWAP1 PUSH1 0x20 ADD SWAP1 PUSH2 0x1122 SWAP3 SWAP2 SWAP1 PUSH2 0x2C07 JUMP JUMPDEST POP DUP4 DUP2 PUSH1 0x5 ADD SWAP1 DUP1 MLOAD SWAP1 PUSH1 0x20 ADD SWAP1 PUSH2 0x113B SWAP3 SWAP2 SWAP1 PUSH2 0x2C07 JUMP JUMPDEST POP DUP3 DUP2 PUSH1 0x6 ADD SWAP1 DUP1 MLOAD SWAP1 PUSH1 0x20 ADD SWAP1 PUSH2 0x1154 SWAP3 SWAP2 SWAP1 PUSH2 0x2C07 JUMP JUMPDEST POP DUP2 DUP2 PUSH1 0x7 ADD SWAP1 DUP1 MLOAD SWAP1 PUSH1 0x20 ADD SWAP1 PUSH2 0x116D SWAP3 SWAP2 SWAP1 PUSH2 0x2C07 JUMP JUMPDEST POP DUP9 DUP2 PUSH1 0x8 ADD PUSH1 0x0 PUSH2 0x100 EXP DUP2 SLOAD DUP2 PUSH20 0xFFFFFFFFFFFFFFFFFFFFFFFFFFFFFFFFFFFFFFFF MUL NOT AND SWAP1 DUP4 PUSH20 0xFFFFFFFFFFFFFFFFFFFFFFFFFFFFFFFFFFFFFFFF AND MUL OR SWAP1 SSTORE POP TIMESTAMP DUP2 PUSH1 0x9 ADD DUP2 SWAP1 SSTORE POP PUSH1 0x2 DUP10 SWAP1 DUP1 PUSH1 0x1 DUP2 SLOAD ADD DUP1 DUP3 SSTORE DUP1 SWAP2 POP POP SWAP1 PUSH1 0x1 DUP3 SUB SWAP1 PUSH1 0x0 MSTORE PUSH1 0x20 PUSH1 0x0 KECCAK256 ADD PUSH1 0x0 SWAP1 SWAP2 SWAP3 SWAP1 SWAP2 SWAP1 SWAP2 PUSH2 0x100 EXP DUP2 SLOAD DUP2 PUSH20 0xFFFFFFFFFFFFFFFFFFFFFFFFFFFFFFFFFFFFFFFF MUL NOT AND SWAP1 DUP4 PUSH20 0xFFFFFFFFFFFFFFFFFFFFFFFFFFFFFFFFFFFFFFFF AND MUL OR SWAP1 SSTORE POP POP PUSH1 0x1 PUSH1 0x9 PUSH1 0x0 DUP12 PUSH20 0xFFFFFFFFFFFFFFFFFFFFFFFFFFFFFFFFFFFFFFFF AND PUSH20 0xFFFFFFFFFFFFFFFFFFFFFFFFFFFFFFFFFFFFFFFF AND DUP2 MSTORE PUSH1 0x20 ADD SWAP1 DUP2 MSTORE PUSH1 0x20 ADD PUSH1 0x0 KECCAK256 PUSH1 0x0 PUSH2 0x100 EXP DUP2 SLOAD DUP2 PUSH1 0xFF MUL NOT AND SWAP1 DUP4 ISZERO ISZERO MUL OR SWAP1 SSTORE POP PUSH1 0x1 PUSH1 0x7 PUSH1 0x0 DUP12 PUSH20 0xFFFFFFFFFFFFFFFFFFFFFFFFFFFFFFFFFFFFFFFF AND PUSH20 0xFFFFFFFFFFFFFFFFFFFFFFFFFFFFFFFFFFFFFFFF AND DUP2 MSTORE PUSH1 0x20 ADD SWAP1 DUP2 MSTORE PUSH1 0x20 ADD PUSH1 0x0 KECCAK256 PUSH1 0x0 DUP12 PUSH20 0xFFFFFFFFFFFFFFFFFFFFFFFFFFFFFFFFFFFFFFFF AND PUSH20 0xFFFFFFFFFFFFFFFFFFFFFFFFFFFFFFFFFFFFFFFF AND DUP2 MSTORE PUSH1 0x20 ADD SWAP1 DUP2 MSTORE PUSH1 0x20 ADD PUSH1 0x0 KECCAK256 PUSH1 0x0 PUSH2 0x100 EXP DUP2 SLOAD DUP2 PUSH1 0xFF MUL NOT AND SWAP1 DUP4 ISZERO ISZERO MUL OR SWAP1 SSTORE POP PUSH1 0x1 PUSH1 0x7 PUSH1 0x0 DUP12 PUSH20 0xFFFFFFFFFFFFFFFFFFFFFFFFFFFFFFFFFFFFFFFF AND PUSH20 0xFFFFFFFFFFFFFFFFFFFFFFFFFFFFFFFFFFFFFFFF AND DUP2 MSTORE PUSH1 0x20 ADD SWAP1 DUP2 MSTORE PUSH1 0x20 ADD PUSH1 0x0 KECCAK256 PUSH1 0x0 PUSH1 0x10 PUSH1 0x0 SWAP1 SLOAD SWAP1 PUSH2 0x100 EXP SWAP1 DIV PUSH20 0xFFFFFFFFFFFFFFFFFFFFFFFFFFFFFFFFFFFFFFFF AND PUSH20 0xFFFFFFFFFFFFFFFFFFFFFFFFFFFFFFFFFFFFFFFF AND PUSH20 0xFFFFFFFFFFFFFFFFFFFFFFFFFFFFFFFFFFFFFFFF AND DUP2 MSTORE PUSH1 0x20 ADD SWAP1 DUP2 MSTORE PUSH1 0x20 ADD PUSH1 0x0 KECCAK256 PUSH1 0x0 PUSH2 0x100 EXP DUP2 SLOAD DUP2 PUSH1 0xFF MUL NOT AND SWAP1 DUP4 ISZERO ISZERO MUL OR SWAP1 SSTORE POP PUSH1 0xC PUSH1 0x0 DUP2 SLOAD DUP1 SWAP3 SWAP2 SWAP1 PUSH1 0x1 ADD SWAP2 SWAP1 POP SSTORE POP POP POP POP POP POP POP POP POP POP JUMP JUMPDEST PUSH1 0x0 PUSH1 0x1 PUSH1 0x7 PUSH1 0x0 CALLER PUSH20 0xFFFFFFFFFFFFFFFFFFFFFFFFFFFFFFFFFFFFFFFF AND PUSH20 0xFFFFFFFFFFFFFFFFFFFFFFFFFFFFFFFFFFFFFFFF AND DUP2 MSTORE PUSH1 0x20 ADD SWAP1 DUP2 MSTORE PUSH1 0x20 ADD PUSH1 0x0 KECCAK256 PUSH1 0x0 DUP5 PUSH20 0xFFFFFFFFFFFFFFFFFFFFFFFFFFFFFFFFFFFFFFFF AND PUSH20 0xFFFFFFFFFFFFFFFFFFFFFFFFFFFFFFFFFFFFFFFF AND DUP2 MSTORE PUSH1 0x20 ADD SWAP1 DUP2 MSTORE PUSH1 0x20 ADD PUSH1 0x0 KECCAK256 PUSH1 0x0 PUSH2 0x100 EXP DUP2 SLOAD DUP2 PUSH1 0xFF MUL NOT AND SWAP1 DUP4 ISZERO ISZERO MUL OR SWAP1 SSTORE POP PUSH1 0xE PUSH1 0x0 DUP2 SLOAD DUP1 SWAP3 SWAP2 SWAP1 PUSH1 0x1 ADD SWAP2 SWAP1 POP SSTORE POP PUSH1 0x1 SWAP1 POP SWAP2 SWAP1 POP JUMP JUMPDEST PUSH1 0x0 DUP1 PUSH1 0x10 PUSH1 0x0 SWAP1 SLOAD SWAP1 PUSH2 0x100 EXP SWAP1 DIV PUSH20 0xFFFFFFFFFFFFFFFFFFFFFFFFFFFFFFFFFFFFFFFF AND PUSH20 0xFFFFFFFFFFFFFFFFFFFFFFFFFFFFFFFFFFFFFFFF AND CALLER PUSH20 0xFFFFFFFFFFFFFFFFFFFFFFFFFFFFFFFFFFFFFFFF AND EQ ISZERO ISZERO PUSH2 0x14F2 JUMPI PUSH1 0x0 DUP1 REVERT JUMPDEST PUSH1 0xA PUSH1 0x0 DUP11 PUSH20 0xFFFFFFFFFFFFFFFFFFFFFFFFFFFFFFFFFFFFFFFF AND PUSH20 0xFFFFFFFFFFFFFFFFFFFFFFFFFFFFFFFFFFFFFFFF AND DUP2 MSTORE PUSH1 0x20 ADD SWAP1 DUP2 MSTORE PUSH1 0x20 ADD PUSH1 0x0 KECCAK256 PUSH1 0x0 SWAP1 SLOAD SWAP1 PUSH2 0x100 EXP SWAP1 DIV PUSH1 0xFF AND ISZERO ISZERO ISZERO PUSH2 0x154B JUMPI PUSH1 0x0 DUP1 REVERT JUMPDEST PUSH1 0x6 PUSH1 0x0 DUP11 PUSH20 0xFFFFFFFFFFFFFFFFFFFFFFFFFFFFFFFFFFFFFFFF AND PUSH20 0xFFFFFFFFFFFFFFFFFFFFFFFFFFFFFFFFFFFFFFFF AND DUP2 MSTORE PUSH1 0x20 ADD SWAP1 DUP2 MSTORE PUSH1 0x20 ADD PUSH1 0x0 KECCAK256 SWAP1 POP DUP7 DUP2 PUSH1 0x0 ADD SWAP1 DUP1 MLOAD SWAP1 PUSH1 0x20 ADD SWAP1 PUSH2 0x15A4 SWAP3 SWAP2 SWAP1 PUSH2 0x2C07 JUMP JUMPDEST POP DUP6 DUP2 PUSH1 0x1 ADD SWAP1 DUP1 MLOAD SWAP1 PUSH1 0x20 ADD SWAP1 PUSH2 0x15BD SWAP3 SWAP2 SWAP1 PUSH2 0x2C07 JUMP JUMPDEST POP DUP5 DUP2 PUSH1 0x2 ADD SWAP1 DUP1 MLOAD SWAP1 PUSH1 0x20 ADD SWAP1 PUSH2 0x15D6 SWAP3 SWAP2 SWAP1 PUSH2 0x2C07 JUMP JUMPDEST POP DUP4 DUP2 PUSH1 0x3 ADD SWAP1 DUP1 MLOAD SWAP1 PUSH1 0x20 ADD SWAP1 PUSH2 0x15EF SWAP3 SWAP2 SWAP1 PUSH2 0x2C07 JUMP JUMPDEST POP DUP3 DUP2 PUSH1 0x4 ADD DUP2 SWAP1 SSTORE POP DUP9 DUP2 PUSH1 0x5 ADD PUSH1 0x0 PUSH2 0x100 EXP DUP2 SLOAD DUP2 PUSH20 0xFFFFFFFFFFFFFFFFFFFFFFFFFFFFFFFFFFFFFFFF MUL NOT AND SWAP1 DUP4 PUSH20 0xFFFFFFFFFFFFFFFFFFFFFFFFFFFFFFFFFFFFFFFF AND MUL OR SWAP1 SSTORE POP DUP8 DUP2 PUSH1 0x6 ADD PUSH1 0x0 PUSH2 0x100 EXP DUP2 SLOAD DUP2 PUSH20 0xFFFFFFFFFFFFFFFFFFFFFFFFFFFFFFFFFFFFFFFF MUL NOT AND SWAP1 DUP4 PUSH20 0xFFFFFFFFFFFFFFFFFFFFFFFFFFFFFFFFFFFFFFFF AND MUL OR SWAP1 SSTORE POP PUSH1 0x3 DUP10 SWAP1 DUP1 PUSH1 0x1 DUP2 SLOAD ADD DUP1 DUP3 SSTORE DUP1 SWAP2 POP POP SWAP1 PUSH1 0x1 DUP3 SUB SWAP1 PUSH1 0x0 MSTORE PUSH1 0x20 PUSH1 0x0 KECCAK256 ADD PUSH1 0x0 SWAP1 SWAP2 SWAP3 SWAP1 SWAP2 SWAP1 SWAP2 PUSH2 0x100 EXP DUP2 SLOAD DUP2 PUSH20 0xFFFFFFFFFFFFFFFFFFFFFFFFFFFFFFFFFFFFFFFF MUL NOT AND SWAP1 DUP4 PUSH20 0xFFFFFFFFFFFFFFFFFFFFFFFFFFFFFFFFFFFFFFFF AND MUL OR SWAP1 SSTORE POP POP PUSH1 0xF PUSH1 0x0 DUP2 SLOAD DUP1 SWAP3 SWAP2 SWAP1 PUSH1 0x1 ADD SWAP2 SWAP1 POP SSTORE POP POP SWAP8 SWAP7 POP POP POP POP POP POP POP JUMP JUMPDEST PUSH1 0x0 DUP1 PUSH1 0x7 PUSH1 0x0 CALLER PUSH20 0xFFFFFFFFFFFFFFFFFFFFFFFFFFFFFFFFFFFFFFFF AND PUSH20 0xFFFFFFFFFFFFFFFFFFFFFFFFFFFFFFFFFFFFFFFF AND DUP2 MSTORE PUSH1 0x20 ADD SWAP1 DUP2 MSTORE PUSH1 0x20 ADD PUSH1 0x0 KECCAK256 PUSH1 0x0 DUP5 PUSH20 0xFFFFFFFFFFFFFFFFFFFFFFFFFFFFFFFFFFFFFFFF AND PUSH20 0xFFFFFFFFFFFFFFFFFFFFFFFFFFFFFFFFFFFFFFFF AND DUP2 MSTORE PUSH1 0x20 ADD SWAP1 DUP2 MSTORE PUSH1 0x20 ADD PUSH1 0x0 KECCAK256 PUSH1 0x0 PUSH2 0x100 EXP DUP2 SLOAD DUP2 PUSH1 0xFF MUL NOT AND SWAP1 DUP4 ISZERO ISZERO MUL OR SWAP1 SSTORE POP PUSH1 0x1 SWAP1 POP SWAP2 SWAP1 POP JUMP JUMPDEST PUSH1 0x0 PUSH1 0x10 PUSH1 0x0 SWAP1 SLOAD SWAP1 PUSH2 0x100 EXP SWAP1 DIV PUSH20 0xFFFFFFFFFFFFFFFFFFFFFFFFFFFFFFFFFFFFFFFF AND PUSH20 0xFFFFFFFFFFFFFFFFFFFFFFFFFFFFFFFFFFFFFFFF AND CALLER PUSH20 0xFFFFFFFFFFFFFFFFFFFFFFFFFFFFFFFFFFFFFFFF AND EQ ISZERO ISZERO PUSH2 0x1800 JUMPI PUSH1 0x0 DUP1 REVERT JUMPDEST PUSH1 0x8 PUSH1 0x0 DUP13 PUSH20 0xFFFFFFFFFFFFFFFFFFFFFFFFFFFFFFFFFFFFFFFF AND PUSH20 0xFFFFFFFFFFFFFFFFFFFFFFFFFFFFFFFFFFFFFFFF AND DUP2 MSTORE PUSH1 0x20 ADD SWAP1 DUP2 MSTORE PUSH1 0x20 ADD PUSH1 0x0 KECCAK256 PUSH1 0x0 SWAP1 SLOAD SWAP1 PUSH2 0x100 EXP SWAP1 DIV PUSH1 0xFF AND ISZERO ISZERO ISZERO PUSH2 0x1859 JUMPI PUSH1 0x0 DUP1 REVERT JUMPDEST PUSH1 0x4 PUSH1 0x0 DUP13 PUSH20 0xFFFFFFFFFFFFFFFFFFFFFFFFFFFFFFFFFFFFFFFF AND PUSH20 0xFFFFFFFFFFFFFFFFFFFFFFFFFFFFFFFFFFFFFFFF AND DUP2 MSTORE PUSH1 0x20 ADD SWAP1 DUP2 MSTORE PUSH1 0x20 ADD PUSH1 0x0 KECCAK256 SWAP1 POP DUP10 DUP2 PUSH1 0x0 ADD SWAP1 DUP1 MLOAD SWAP1 PUSH1 0x20 ADD SWAP1 PUSH2 0x18B2 SWAP3 SWAP2 SWAP1 PUSH2 0x2C07 JUMP JUMPDEST POP DUP9 DUP2 PUSH1 0x1 ADD SWAP1 DUP1 MLOAD SWAP1 PUSH1 0x20 ADD SWAP1 PUSH2 0x18CB SWAP3 SWAP2 SWAP1 PUSH2 0x2C07 JUMP JUMPDEST POP DUP8 DUP2 PUSH1 0x2 ADD SWAP1 DUP1 MLOAD SWAP1 PUSH1 0x20 ADD SWAP1 PUSH2 0x18E4 SWAP3 SWAP2 SWAP1 PUSH2 0x2C07 JUMP JUMPDEST POP DUP7 DUP2 PUSH1 0x3 ADD SWAP1 DUP1 MLOAD SWAP1 PUSH1 0x20 ADD SWAP1 PUSH2 0x18FD SWAP3 SWAP2 SWAP1 PUSH2 0x2C07 JUMP JUMPDEST POP DUP6 DUP2 PUSH1 0x4 ADD SWAP1 DUP1 MLOAD SWAP1 PUSH1 0x20 ADD SWAP1 PUSH2 0x1916 SWAP3 SWAP2 SWAP1 PUSH2 0x2C07 JUMP JUMPDEST POP DUP5 DUP2 PUSH1 0x5 ADD SWAP1 DUP1 MLOAD SWAP1 PUSH1 0x20 ADD SWAP1 PUSH2 0x192F SWAP3 SWAP2 SWAP1 PUSH2 0x2C07 JUMP JUMPDEST POP DUP4 DUP2 PUSH1 0x6 ADD SWAP1 DUP1 MLOAD SWAP1 PUSH1 0x20 ADD SWAP1 PUSH2 0x1948 SWAP3 SWAP2 SWAP1 PUSH2 0x2C07 JUMP JUMPDEST POP DUP3 DUP2 PUSH1 0x7 ADD SWAP1 DUP1 MLOAD SWAP1 PUSH1 0x20 ADD SWAP1 PUSH2 0x1961 SWAP3 SWAP2 SWAP1 PUSH2 0x2C07 JUMP JUMPDEST POP DUP2 DUP2 PUSH1 0x8 ADD SWAP1 DUP1 MLOAD SWAP1 PUSH1 0x20 ADD SWAP1 PUSH2 0x197A SWAP3 SWAP2 SWAP1 PUSH2 0x2C07 JUMP JUMPDEST POP DUP11 DUP2 PUSH1 0x9 ADD PUSH1 0x0 PUSH2 0x100 EXP DUP2 SLOAD DUP2 PUSH20 0xFFFFFFFFFFFFFFFFFFFFFFFFFFFFFFFFFFFFFFFF MUL NOT AND SWAP1 DUP4 PUSH20 0xFFFFFFFFFFFFFFFFFFFFFFFFFFFFFFFFFFFFFFFF AND MUL OR SWAP1 SSTORE POP TIMESTAMP DUP2 PUSH1 0xA ADD DUP2 SWAP1 SSTORE POP PUSH1 0x1 DUP12 SWAP1 DUP1 PUSH1 0x1 DUP2 SLOAD ADD DUP1 DUP3 SSTORE DUP1 SWAP2 POP POP SWAP1 PUSH1 0x1 DUP3 SUB SWAP1 PUSH1 0x0 MSTORE PUSH1 0x20 PUSH1 0x0 KECCAK256 ADD PUSH1 0x0 SWAP1 SWAP2 SWAP3 SWAP1 SWAP2 SWAP1 SWAP2 PUSH2 0x100 EXP DUP2 SLOAD DUP2 PUSH20 0xFFFFFFFFFFFFFFFFFFFFFFFFFFFFFFFFFFFFFFFF MUL NOT AND SWAP1 DUP4 PUSH20 0xFFFFFFFFFFFFFFFFFFFFFFFFFFFFFFFFFFFFFFFF AND MUL OR SWAP1 SSTORE POP POP PUSH1 0x1 PUSH1 0x8 PUSH1 0x0 DUP14 PUSH20 0xFFFFFFFFFFFFFFFFFFFFFFFFFFFFFFFFFFFFFFFF AND PUSH20 0xFFFFFFFFFFFFFFFFFFFFFFFFFFFFFFFFFFFFFFFF AND DUP2 MSTORE PUSH1 0x20 ADD SWAP1 DUP2 MSTORE PUSH1 0x20 ADD PUSH1 0x0 KECCAK256 PUSH1 0x0 PUSH2 0x100 EXP DUP2 SLOAD DUP2 PUSH1 0xFF MUL NOT AND SWAP1 DUP4 ISZERO ISZERO MUL OR SWAP1 SSTORE POP PUSH1 0x1 PUSH1 0x7 PUSH1 0x0 DUP14 PUSH20 0xFFFFFFFFFFFFFFFFFFFFFFFFFFFFFFFFFFFFFFFF AND PUSH20 0xFFFFFFFFFFFFFFFFFFFFFFFFFFFFFFFFFFFFFFFF AND DUP2 MSTORE PUSH1 0x20 ADD SWAP1 DUP2 MSTORE PUSH1 0x20 ADD PUSH1 0x0 KECCAK256 PUSH1 0x0 DUP14 PUSH20 0xFFFFFFFFFFFFFFFFFFFFFFFFFFFFFFFFFFFFFFFF AND PUSH20 0xFFFFFFFFFFFFFFFFFFFFFFFFFFFFFFFFFFFFFFFF AND DUP2 MSTORE PUSH1 0x20 ADD SWAP1 DUP2 MSTORE PUSH1 0x20 ADD PUSH1 0x0 KECCAK256 PUSH1 0x0 PUSH2 0x100 EXP DUP2 SLOAD DUP2 PUSH1 0xFF MUL NOT AND SWAP1 DUP4 ISZERO ISZERO MUL OR SWAP1 SSTORE POP PUSH1 0x1 PUSH1 0x7 PUSH1 0x0 DUP14 PUSH20 0xFFFFFFFFFFFFFFFFFFFFFFFFFFFFFFFFFFFFFFFF AND PUSH20 0xFFFFFFFFFFFFFFFFFFFFFFFFFFFFFFFFFFFFFFFF AND DUP2 MSTORE PUSH1 0x20 ADD SWAP1 DUP2 MSTORE PUSH1 0x20 ADD PUSH1 0x0 KECCAK256 PUSH1 0x0 PUSH1 0x10 PUSH1 0x0 SWAP1 SLOAD SWAP1 PUSH2 0x100 EXP SWAP1 DIV PUSH20 0xFFFFFFFFFFFFFFFFFFFFFFFFFFFFFFFFFFFFFFFF AND PUSH20 0xFFFFFFFFFFFFFFFFFFFFFFFFFFFFFFFFFFFFFFFF AND PUSH20 0xFFFFFFFFFFFFFFFFFFFFFFFFFFFFFFFFFFFFFFFF AND DUP2 MSTORE PUSH1 0x20 ADD SWAP1 DUP2 MSTORE PUSH1 0x20 ADD PUSH1 0x0 KECCAK256 PUSH1 0x0 PUSH2 0x100 EXP DUP2 SLOAD DUP2 PUSH1 0xFF MUL NOT AND SWAP1 DUP4 ISZERO ISZERO MUL OR SWAP1 SSTORE POP PUSH1 0xB PUSH1 0x0 DUP2 SLOAD DUP1 SWAP3 SWAP2 SWAP1 PUSH1 0x1 ADD SWAP2 SWAP1 POP SSTORE POP POP POP POP POP POP POP POP POP POP POP POP JUMP JUMPDEST PUSH1 0x0 PUSH1 0x10 PUSH1 0x0 SWAP1 SLOAD SWAP1 PUSH2 0x100 EXP SWAP1 DIV PUSH20 0xFFFFFFFFFFFFFFFFFFFFFFFFFFFFFFFFFFFFFFFF AND PUSH20 0xFFFFFFFFFFFFFFFFFFFFFFFFFFFFFFFFFFFFFFFF AND CALLER PUSH20 0xFFFFFFFFFFFFFFFFFFFFFFFFFFFFFFFFFFFFFFFF AND EQ ISZERO ISZERO PUSH2 0x1C4E JUMPI PUSH1 0x0 DUP1 REVERT JUMPDEST PUSH1 0x8 PUSH1 0x0 DUP13 PUSH20 0xFFFFFFFFFFFFFFFFFFFFFFFFFFFFFFFFFFFFFFFF AND PUSH20 0xFFFFFFFFFFFFFFFFFFFFFFFFFFFFFFFFFFFFFFFF AND DUP2 MSTORE PUSH1 0x20 ADD SWAP1 DUP2 MSTORE PUSH1 0x20 ADD PUSH1 0x0 KECCAK256 PUSH1 0x0 SWAP1 SLOAD SWAP1 PUSH2 0x100 EXP SWAP1 DIV PUSH1 0xFF AND ISZERO ISZERO PUSH2 0x1CA6 JUMPI PUSH1 0x0 DUP1 REVERT JUMPDEST PUSH1 0x4 PUSH1 0x0 DUP13 PUSH20 0xFFFFFFFFFFFFFFFFFFFFFFFFFFFFFFFFFFFFFFFF AND PUSH20 0xFFFFFFFFFFFFFFFFFFFFFFFFFFFFFFFFFFFFFFFF AND DUP2 MSTORE PUSH1 0x20 ADD SWAP1 DUP2 MSTORE PUSH1 0x20 ADD PUSH1 0x0 KECCAK256 SWAP1 POP DUP10 DUP2 PUSH1 0x0 ADD SWAP1 DUP1 MLOAD SWAP1 PUSH1 0x20 ADD SWAP1 PUSH2 0x1CFF SWAP3 SWAP2 SWAP1 PUSH2 0x2C07 JUMP JUMPDEST POP DUP9 DUP2 PUSH1 0x1 ADD SWAP1 DUP1 MLOAD SWAP1 PUSH1 0x20 ADD SWAP1 PUSH2 0x1D18 SWAP3 SWAP2 SWAP1 PUSH2 0x2C07 JUMP JUMPDEST POP DUP8 DUP2 PUSH1 0x2 ADD SWAP1 DUP1 MLOAD SWAP1 PUSH1 0x20 ADD SWAP1 PUSH2 0x1D31 SWAP3 SWAP2 SWAP1 PUSH2 0x2C07 JUMP JUMPDEST POP DUP7 DUP2 PUSH1 0x3 ADD SWAP1 DUP1 MLOAD SWAP1 PUSH1 0x20 ADD SWAP1 PUSH2 0x1D4A SWAP3 SWAP2 SWAP1 PUSH2 0x2C07 JUMP JUMPDEST POP DUP6 DUP2 PUSH1 0x4 ADD SWAP1 DUP1 MLOAD SWAP1 PUSH1 0x20 ADD SWAP1 PUSH2 0x1D63 SWAP3 SWAP2 SWAP1 PUSH2 0x2C07 JUMP JUMPDEST POP DUP5 DUP2 PUSH1 0x5 ADD SWAP1 DUP1 MLOAD SWAP1 PUSH1 0x20 ADD SWAP1 PUSH2 0x1D7C SWAP3 SWAP2 SWAP1 PUSH2 0x2C07 JUMP JUMPDEST POP DUP4 DUP2 PUSH1 0x6 ADD SWAP1 DUP1 MLOAD SWAP1 PUSH1 0x20 ADD SWAP1 PUSH2 0x1D95 SWAP3 SWAP2 SWAP1 PUSH2 0x2C07 JUMP JUMPDEST POP DUP3 DUP2 PUSH1 0x7 ADD SWAP1 DUP1 MLOAD SWAP1 PUSH1 0x20 ADD SWAP1 PUSH2 0x1DAE SWAP3 SWAP2 SWAP1 PUSH2 0x2C07 JUMP JUMPDEST POP DUP2 DUP2 PUSH1 0x8 ADD SWAP1 DUP1 MLOAD SWAP1 PUSH1 0x20 ADD SWAP1 PUSH2 0x1DC7 SWAP3 SWAP2 SWAP1 PUSH2 0x2C07 JUMP JUMPDEST POP DUP11 DUP2 PUSH1 0x9 ADD PUSH1 0x0 PUSH2 0x100 EXP DUP2 SLOAD DUP2 PUSH20 0xFFFFFFFFFFFFFFFFFFFFFFFFFFFFFFFFFFFFFFFF MUL NOT AND SWAP1 DUP4 PUSH20 0xFFFFFFFFFFFFFFFFFFFFFFFFFFFFFFFFFFFFFFFF AND MUL OR SWAP1 SSTORE POP POP POP POP POP POP POP POP POP POP POP POP JUMP JUMPDEST PUSH1 0xC SLOAD DUP2 JUMP JUMPDEST PUSH1 0x0 PUSH1 0xC SLOAD SWAP1 POP SWAP1 JUMP JUMPDEST PUSH1 0x0 DUP1 PUSH1 0x0 SWAP1 POP PUSH1 0x2 DUP1 SLOAD SWAP1 POP DUP2 LT ISZERO PUSH2 0x1EA7 JUMPI PUSH1 0x1 ISZERO ISZERO PUSH1 0x9 PUSH1 0x0 DUP6 PUSH20 0xFFFFFFFFFFFFFFFFFFFFFFFFFFFFFFFFFFFFFFFF AND PUSH20 0xFFFFFFFFFFFFFFFFFFFFFFFFFFFFFFFFFFFFFFFF AND DUP2 MSTORE PUSH1 0x20 ADD SWAP1 DUP2 MSTORE PUSH1 0x20 ADD PUSH1 0x0 KECCAK256 PUSH1 0x0 SWAP1 SLOAD SWAP1 PUSH2 0x100 EXP SWAP1 DIV PUSH1 0xFF AND ISZERO ISZERO EQ ISZERO PUSH2 0x1E9E JUMPI PUSH1 0x1 SWAP2 POP PUSH2 0x1EA8 JUMP JUMPDEST PUSH1 0x0 SWAP2 POP PUSH2 0x1EA8 JUMP JUMPDEST JUMPDEST POP SWAP2 SWAP1 POP JUMP JUMPDEST PUSH1 0x60 DUP1 PUSH1 0x60 DUP1 PUSH1 0x0 DUP1 PUSH1 0x0 DUP1 PUSH1 0x7 PUSH1 0x0 DUP11 PUSH20 0xFFFFFFFFFFFFFFFFFFFFFFFFFFFFFFFFFFFFFFFF AND PUSH20 0xFFFFFFFFFFFFFFFFFFFFFFFFFFFFFFFFFFFFFFFF AND DUP2 MSTORE PUSH1 0x20 ADD SWAP1 DUP2 MSTORE PUSH1 0x20 ADD PUSH1 0x0 KECCAK256 PUSH1 0x0 CALLER PUSH20 0xFFFFFFFFFFFFFFFFFFFFFFFFFFFFFFFFFFFFFFFF AND PUSH20 0xFFFFFFFFFFFFFFFFFFFFFFFFFFFFFFFFFFFFFFFF AND DUP2 MSTORE PUSH1 0x20 ADD SWAP1 DUP2 MSTORE PUSH1 0x20 ADD PUSH1 0x0 KECCAK256 PUSH1 0x0 SWAP1 SLOAD SWAP1 PUSH2 0x100 EXP SWAP1 DIV PUSH1 0xFF AND ISZERO ISZERO PUSH2 0x1F4F JUMPI PUSH1 0x0 DUP1 REVERT JUMPDEST PUSH1 0x6 PUSH1 0x0 DUP11 PUSH20 0xFFFFFFFFFFFFFFFFFFFFFFFFFFFFFFFFFFFFFFFF AND PUSH20 0xFFFFFFFFFFFFFFFFFFFFFFFFFFFFFFFFFFFFFFFF AND DUP2 MSTORE PUSH1 0x20 ADD SWAP1 DUP2 MSTORE PUSH1 0x20 ADD PUSH1 0x0 KECCAK256 SWAP1 POP DUP1 PUSH1 0x1 ADD DUP2 PUSH1 0x0 ADD DUP3 PUSH1 0x2 ADD DUP4 PUSH1 0x3 ADD DUP5 PUSH1 0x4 ADD SLOAD DUP6 PUSH1 0x5 ADD PUSH1 0x0 SWAP1 SLOAD SWAP1 PUSH2 0x100 EXP SWAP1 DIV PUSH20 0xFFFFFFFFFFFFFFFFFFFFFFFFFFFFFFFFFFFFFFFF AND DUP7 PUSH1 0x6 ADD PUSH1 0x0 SWAP1 SLOAD SWAP1 PUSH2 0x100 EXP SWAP1 DIV PUSH20 0xFFFFFFFFFFFFFFFFFFFFFFFFFFFFFFFFFFFFFFFF AND DUP7 DUP1 SLOAD PUSH1 0x1 DUP2 PUSH1 0x1 AND ISZERO PUSH2 0x100 MUL SUB AND PUSH1 0x2 SWAP1 DIV DUP1 PUSH1 0x1F ADD PUSH1 0x20 DUP1 SWAP2 DIV MUL PUSH1 0x20 ADD PUSH1 0x40 MLOAD SWAP1 DUP2 ADD PUSH1 0x40 MSTORE DUP1 SWAP3 SWAP2 SWAP1 DUP2 DUP2 MSTORE PUSH1 0x20 ADD DUP3 DUP1 SLOAD PUSH1 0x1 DUP2 PUSH1 0x1 AND ISZERO PUSH2 0x100 MUL SUB AND PUSH1 0x2 SWAP1 DIV DUP1 ISZERO PUSH2 0x2084 JUMPI DUP1 PUSH1 0x1F LT PUSH2 0x2059 JUMPI PUSH2 0x100 DUP1 DUP4 SLOAD DIV MUL DUP4 MSTORE SWAP2 PUSH1 0x20 ADD SWAP2 PUSH2 0x2084 JUMP JUMPDEST DUP3 ADD SWAP2 SWAP1 PUSH1 0x0 MSTORE PUSH1 0x20 PUSH1 0x0 KECCAK256 SWAP1 JUMPDEST DUP2 SLOAD DUP2 MSTORE SWAP1 PUSH1 0x1 ADD SWAP1 PUSH1 0x20 ADD DUP1 DUP4 GT PUSH2 0x2067 JUMPI DUP3 SWAP1 SUB PUSH1 0x1F AND DUP3 ADD SWAP2 JUMPDEST POP POP POP POP POP SWAP7 POP DUP6 DUP1 SLOAD PUSH1 0x1 DUP2 PUSH1 0x1 AND ISZERO PUSH2 0x100 MUL SUB AND PUSH1 0x2 SWAP1 DIV DUP1 PUSH1 0x1F ADD PUSH1 0x20 DUP1 SWAP2 DIV MUL PUSH1 0x20 ADD PUSH1 0x40 MLOAD SWAP1 DUP2 ADD PUSH1 0x40 MSTORE DUP1 SWAP3 SWAP2 SWAP1 DUP2 DUP2 MSTORE PUSH1 0x20 ADD DUP3 DUP1 SLOAD PUSH1 0x1 DUP2 PUSH1 0x1 AND ISZERO PUSH2 0x100 MUL SUB AND PUSH1 0x2 SWAP1 DIV DUP1 ISZERO PUSH2 0x2120 JUMPI DUP1 PUSH1 0x1F LT PUSH2 0x20F5 JUMPI PUSH2 0x100 DUP1 DUP4 SLOAD DIV MUL DUP4 MSTORE SWAP2 PUSH1 0x20 ADD SWAP2 PUSH2 0x2120 JUMP JUMPDEST DUP3 ADD SWAP2 SWAP1 PUSH1 0x0 MSTORE PUSH1 0x20 PUSH1 0x0 KECCAK256 SWAP1 JUMPDEST DUP2 SLOAD DUP2 MSTORE SWAP1 PUSH1 0x1 ADD SWAP1 PUSH1 0x20 ADD DUP1 DUP4 GT PUSH2 0x2103 JUMPI DUP3 SWAP1 SUB PUSH1 0x1F AND DUP3 ADD SWAP2 JUMPDEST POP POP POP POP POP SWAP6 POP DUP5 DUP1 SLOAD PUSH1 0x1 DUP2 PUSH1 0x1 AND ISZERO PUSH2 0x100 MUL SUB AND PUSH1 0x2 SWAP1 DIV DUP1 PUSH1 0x1F ADD PUSH1 0x20 DUP1 SWAP2 DIV MUL PUSH1 0x20 ADD PUSH1 0x40 MLOAD SWAP1 DUP2 ADD PUSH1 0x40 MSTORE DUP1 SWAP3 SWAP2 SWAP1 DUP2 DUP2 MSTORE PUSH1 0x20 ADD DUP3 DUP1 SLOAD PUSH1 0x1 DUP2 PUSH1 0x1 AND ISZERO PUSH2 0x100 MUL SUB AND PUSH1 0x2 SWAP1 DIV DUP1 ISZERO PUSH2 0x21BC JUMPI DUP1 PUSH1 0x1F LT PUSH2 0x2191 JUMPI PUSH2 0x100 DUP1 DUP4 SLOAD DIV MUL DUP4 MSTORE SWAP2 PUSH1 0x20 ADD SWAP2 PUSH2 0x21BC JUMP JUMPDEST DUP3 ADD SWAP2 SWAP1 PUSH1 0x0 MSTORE PUSH1 0x20 PUSH1 0x0 KECCAK256 SWAP1 JUMPDEST DUP2 SLOAD DUP2 MSTORE SWAP1 PUSH1 0x1 ADD SWAP1 PUSH1 0x20 ADD DUP1 DUP4 GT PUSH2 0x219F JUMPI DUP3 SWAP1 SUB PUSH1 0x1F AND DUP3 ADD SWAP2 JUMPDEST POP POP POP POP POP SWAP5 POP DUP4 DUP1 SLOAD PUSH1 0x1 DUP2 PUSH1 0x1 AND ISZERO PUSH2 0x100 MUL SUB AND PUSH1 0x2 SWAP1 DIV DUP1 PUSH1 0x1F ADD PUSH1 0x20 DUP1 SWAP2 DIV MUL PUSH1 0x20 ADD PUSH1 0x40 MLOAD SWAP1 DUP2 ADD PUSH1 0x40 MSTORE DUP1 SWAP3 SWAP2 SWAP1 DUP2 DUP2 MSTORE PUSH1 0x20 ADD DUP3 DUP1 SLOAD PUSH1 0x1 DUP2 PUSH1 0x1 AND ISZERO PUSH2 0x100 MUL SUB AND PUSH1 0x2 SWAP1 DIV DUP1 ISZERO PUSH2 0x2258 JUMPI DUP1 PUSH1 0x1F LT PUSH2 0x222D JUMPI PUSH2 0x100 DUP1 DUP4 SLOAD DIV MUL DUP4 MSTORE SWAP2 PUSH1 0x20 ADD SWAP2 PUSH2 0x2258 JUMP JUMPDEST DUP3 ADD SWAP2 SWAP1 PUSH1 0x0 MSTORE PUSH1 0x20 PUSH1 0x0 KECCAK256 SWAP1 JUMPDEST DUP2 SLOAD DUP2 MSTORE SWAP1 PUSH1 0x1 ADD SWAP1 PUSH1 0x20 ADD DUP1 DUP4 GT PUSH2 0x223B JUMPI DUP3 SWAP1 SUB PUSH1 0x1F AND DUP3 ADD SWAP2 JUMPDEST POP POP POP POP POP SWAP4 POP SWAP8 POP SWAP8 POP SWAP8 POP SWAP8 POP SWAP8 POP SWAP8 POP SWAP8 POP POP SWAP2 SWAP4 SWAP6 SWAP8 SWAP1 SWAP3 SWAP5 SWAP7 POP JUMP JUMPDEST PUSH1 0x0 DUP1 SWAP1 SLOAD SWAP1 PUSH2 0x100 EXP SWAP1 DIV PUSH20 0xFFFFFFFFFFFFFFFFFFFFFFFFFFFFFFFFFFFFFFFF AND DUP2 JUMP JUMPDEST PUSH1 0x0 PUSH1 0x10 PUSH1 0x0 SWAP1 SLOAD SWAP1 PUSH2 0x100 EXP SWAP1 DIV PUSH20 0xFFFFFFFFFFFFFFFFFFFFFFFFFFFFFFFFFFFFFFFF AND SWAP1 POP SWAP1 JUMP JUMPDEST PUSH1 0xF SLOAD DUP2 JUMP JUMPDEST PUSH1 0xD SLOAD DUP2 JUMP JUMPDEST PUSH1 0x1 DUP2 DUP2 SLOAD DUP2 LT ISZERO ISZERO PUSH2 0x22E3 JUMPI INVALID JUMPDEST SWAP1 PUSH1 0x0 MSTORE PUSH1 0x20 PUSH1 0x0 KECCAK256 ADD PUSH1 0x0 SWAP2 POP SLOAD SWAP1 PUSH2 0x100 EXP SWAP1 DIV PUSH20 0xFFFFFFFFFFFFFFFFFFFFFFFFFFFFFFFFFFFFFFFF AND DUP2 JUMP JUMPDEST PUSH1 0x60 PUSH1 0x2 DUP1 SLOAD DUP1 PUSH1 0x20 MUL PUSH1 0x20 ADD PUSH1 0x40 MLOAD SWAP1 DUP2 ADD PUSH1 0x40 MSTORE DUP1 SWAP3 SWAP2 SWAP1 DUP2 DUP2 MSTORE PUSH1 0x20 ADD DUP3 DUP1 SLOAD DUP1 ISZERO PUSH2 0x2396 JUMPI PUSH1 0x20 MUL DUP3 ADD SWAP2 SWAP1 PUSH1 0x0 MSTORE PUSH1 0x20 PUSH1 0x0 KECCAK256 SWAP1 JUMPDEST DUP2 PUSH1 0x0 SWAP1 SLOAD SWAP1 PUSH2 0x100 EXP SWAP1 DIV PUSH20 0xFFFFFFFFFFFFFFFFFFFFFFFFFFFFFFFFFFFFFFFF AND PUSH20 0xFFFFFFFFFFFFFFFFFFFFFFFFFFFFFFFFFFFFFFFF AND DUP2 MSTORE PUSH1 0x20 ADD SWAP1 PUSH1 0x1 ADD SWAP1 DUP1 DUP4 GT PUSH2 0x234C JUMPI JUMPDEST POP POP POP POP POP SWAP1 POP SWAP1 JUMP JUMPDEST PUSH1 0x0 PUSH1 0xB SLOAD SWAP1 POP SWAP1 JUMP JUMPDEST PUSH1 0x10 PUSH1 0x0 SWAP1 SLOAD SWAP1 PUSH2 0x100 EXP SWAP1 DIV PUSH20 0xFFFFFFFFFFFFFFFFFFFFFFFFFFFFFFFFFFFFFFFF AND DUP2 JUMP JUMPDEST PUSH1 0x0 PUSH1 0x10 PUSH1 0x0 SWAP1 SLOAD SWAP1 PUSH2 0x100 EXP SWAP1 DIV PUSH20 0xFFFFFFFFFFFFFFFFFFFFFFFFFFFFFFFFFFFFFFFF AND PUSH20 0xFFFFFFFFFFFFFFFFFFFFFFFFFFFFFFFFFFFFFFFF AND CALLER PUSH20 0xFFFFFFFFFFFFFFFFFFFFFFFFFFFFFFFFFFFFFFFF AND EQ ISZERO ISZERO PUSH2 0x242E JUMPI PUSH1 0x0 DUP1 REVERT JUMPDEST PUSH1 0x0 PUSH1 0x7 PUSH1 0x0 DUP6 PUSH20 0xFFFFFFFFFFFFFFFFFFFFFFFFFFFFFFFFFFFFFFFF AND PUSH20 0xFFFFFFFFFFFFFFFFFFFFFFFFFFFFFFFFFFFFFFFF AND DUP2 MSTORE PUSH1 0x20 ADD SWAP1 DUP2 MSTORE PUSH1 0x20 ADD PUSH1 0x0 KECCAK256 PUSH1 0x0 DUP5 PUSH20 0xFFFFFFFFFFFFFFFFFFFFFFFFFFFFFFFFFFFFFFFF AND PUSH20 0xFFFFFFFFFFFFFFFFFFFFFFFFFFFFFFFFFFFFFFFF AND DUP2 MSTORE PUSH1 0x20 ADD SWAP1 DUP2 MSTORE PUSH1 0x20 ADD PUSH1 0x0 KECCAK256 PUSH1 0x0 PUSH2 0x100 EXP DUP2 SLOAD DUP2 PUSH1 0xFF MUL NOT AND SWAP1 DUP4 ISZERO ISZERO MUL OR SWAP1 SSTORE POP PUSH1 0x1 SWAP1 POP SWAP3 SWAP2 POP POP JUMP JUMPDEST PUSH1 0xE SLOAD DUP2 JUMP JUMPDEST PUSH1 0x60 DUP1 PUSH1 0x60 DUP1 PUSH1 0x60 DUP1 PUSH1 0x60 PUSH1 0x0 DUP1 PUSH1 0x7 PUSH1 0x0 DUP12 PUSH20 0xFFFFFFFFFFFFFFFFFFFFFFFFFFFFFFFFFFFFFFFF AND PUSH20 0xFFFFFFFFFFFFFFFFFFFFFFFFFFFFFFFFFFFFFFFF AND DUP2 MSTORE PUSH1 0x20 ADD SWAP1 DUP2 MSTORE PUSH1 0x20 ADD PUSH1 0x0 KECCAK256 PUSH1 0x0 CALLER PUSH20 0xFFFFFFFFFFFFFFFFFFFFFFFFFFFFFFFFFFFFFFFF AND PUSH20 0xFFFFFFFFFFFFFFFFFFFFFFFFFFFFFFFFFFFFFFFF AND DUP2 MSTORE PUSH1 0x20 ADD SWAP1 DUP2 MSTORE PUSH1 0x20 ADD PUSH1 0x0 KECCAK256 PUSH1 0x0 SWAP1 SLOAD SWAP1 PUSH2 0x100 EXP SWAP1 DIV PUSH1 0xFF AND ISZERO ISZERO PUSH2 0x2576 JUMPI PUSH1 0x0 DUP1 REVERT JUMPDEST PUSH1 0x9 PUSH1 0x0 DUP12 PUSH20 0xFFFFFFFFFFFFFFFFFFFFFFFFFFFFFFFFFFFFFFFF AND PUSH20 0xFFFFFFFFFFFFFFFFFFFFFFFFFFFFFFFFFFFFFFFF AND DUP2 MSTORE PUSH1 0x20 ADD SWAP1 DUP2 MSTORE PUSH1 0x20 ADD PUSH1 0x0 KECCAK256 PUSH1 0x0 SWAP1 SLOAD SWAP1 PUSH2 0x100 EXP SWAP1 DIV PUSH1 0xFF AND ISZERO ISZERO PUSH2 0x25CE JUMPI PUSH1 0x0 DUP1 REVERT JUMPDEST PUSH1 0x5 PUSH1 0x0 DUP12 PUSH20 0xFFFFFFFFFFFFFFFFFFFFFFFFFFFFFFFFFFFFFFFF AND PUSH20 0xFFFFFFFFFFFFFFFFFFFFFFFFFFFFFFFFFFFFFFFF AND DUP2 MSTORE PUSH1 0x20 ADD SWAP1 DUP2 MSTORE PUSH1 0x20 ADD PUSH1 0x0 KECCAK256 SWAP1 POP DUP1 PUSH1 0x0 ADD DUP2 PUSH1 0x1 ADD DUP3 PUSH1 0x2 ADD DUP4 PUSH1 0x3 ADD DUP5 PUSH1 0x5 ADD DUP6 PUSH1 0x6 ADD DUP7 PUSH1 0x7 ADD DUP8 PUSH1 0x8 ADD PUSH1 0x0 SWAP1 SLOAD SWAP1 PUSH2 0x100 EXP SWAP1 DIV PUSH20 0xFFFFFFFFFFFFFFFFFFFFFFFFFFFFFFFFFFFFFFFF AND DUP8 DUP1 SLOAD PUSH1 0x1 DUP2 PUSH1 0x1 AND ISZERO PUSH2 0x100 MUL SUB AND PUSH1 0x2 SWAP1 DIV DUP1 PUSH1 0x1F ADD PUSH1 0x20 DUP1 SWAP2 DIV MUL PUSH1 0x20 ADD PUSH1 0x40 MLOAD SWAP1 DUP2 ADD PUSH1 0x40 MSTORE DUP1 SWAP3 SWAP2 SWAP1 DUP2 DUP2 MSTORE PUSH1 0x20 ADD DUP3 DUP1 SLOAD PUSH1 0x1 DUP2 PUSH1 0x1 AND ISZERO PUSH2 0x100 MUL SUB AND PUSH1 0x2 SWAP1 DIV DUP1 ISZERO PUSH2 0x26E5 JUMPI DUP1 PUSH1 0x1F LT PUSH2 0x26BA JUMPI PUSH2 0x100 DUP1 DUP4 SLOAD DIV MUL DUP4 MSTORE SWAP2 PUSH1 0x20 ADD SWAP2 PUSH2 0x26E5 JUMP JUMPDEST DUP3 ADD SWAP2 SWAP1 PUSH1 0x0 MSTORE PUSH1 0x20 PUSH1 0x0 KECCAK256 SWAP1 JUMPDEST DUP2 SLOAD DUP2 MSTORE SWAP1 PUSH1 0x1 ADD SWAP1 PUSH1 0x20 ADD DUP1 DUP4 GT PUSH2 0x26C8 JUMPI DUP3 SWAP1 SUB PUSH1 0x1F AND DUP3 ADD SWAP2 JUMPDEST POP POP POP POP POP SWAP8 POP DUP7 DUP1 SLOAD PUSH1 0x1 DUP2 PUSH1 0x1 AND ISZERO PUSH2 0x100 MUL SUB AND PUSH1 0x2 SWAP1 DIV DUP1 PUSH1 0x1F ADD PUSH1 0x20 DUP1 SWAP2 DIV MUL PUSH1 0x20 ADD PUSH1 0x40 MLOAD SWAP1 DUP2 ADD PUSH1 0x40 MSTORE DUP1 SWAP3 SWAP2 SWAP1 DUP2 DUP2 MSTORE PUSH1 0x20 ADD DUP3 DUP1 SLOAD PUSH1 0x1 DUP2 PUSH1 0x1 AND ISZERO PUSH2 0x100 MUL SUB AND PUSH1 0x2 SWAP1 DIV DUP1 ISZERO PUSH2 0x2781 JUMPI DUP1 PUSH1 0x1F LT PUSH2 0x2756 JUMPI PUSH2 0x100 DUP1 DUP4 SLOAD DIV MUL DUP4 MSTORE SWAP2 PUSH1 0x20 ADD SWAP2 PUSH2 0x2781 JUMP JUMPDEST DUP3 ADD SWAP2 SWAP1 PUSH1 0x0 MSTORE PUSH1 0x20 PUSH1 0x0 KECCAK256 SWAP1 JUMPDEST DUP2 SLOAD DUP2 MSTORE SWAP1 PUSH1 0x1 ADD SWAP1 PUSH1 0x20 ADD DUP1 DUP4 GT PUSH2 0x2764 JUMPI DUP3 SWAP1 SUB PUSH1 0x1F AND DUP3 ADD SWAP2 JUMPDEST POP POP POP POP POP SWAP7 POP DUP6 DUP1 SLOAD PUSH1 0x1 DUP2 PUSH1 0x1 AND ISZERO PUSH2 0x100 MUL SUB AND PUSH1 0x2 SWAP1 DIV DUP1 PUSH1 0x1F ADD PUSH1 0x20 DUP1 SWAP2 DIV MUL PUSH1 0x20 ADD PUSH1 0x40 MLOAD SWAP1 DUP2 ADD PUSH1 0x40 MSTORE DUP1 SWAP3 SWAP2 SWAP1 DUP2 DUP2 MSTORE PUSH1 0x20 ADD DUP3 DUP1 SLOAD PUSH1 0x1 DUP2 PUSH1 0x1 AND ISZERO PUSH2 0x100 MUL SUB AND PUSH1 0x2 SWAP1 DIV DUP1 ISZERO PUSH2 0x281D JUMPI DUP1 PUSH1 0x1F LT PUSH2 0x27F2 JUMPI PUSH2 0x100 DUP1 DUP4 SLOAD DIV MUL DUP4 MSTORE SWAP2 PUSH1 0x20 ADD SWAP2 PUSH2 0x281D JUMP JUMPDEST DUP3 ADD SWAP2 SWAP1 PUSH1 0x0 MSTORE PUSH1 0x20 PUSH1 0x0 KECCAK256 SWAP1 JUMPDEST DUP2 SLOAD DUP2 MSTORE SWAP1 PUSH1 0x1 ADD SWAP1 PUSH1 0x20 ADD DUP1 DUP4 GT PUSH2 0x2800 JUMPI DUP3 SWAP1 SUB PUSH1 0x1F AND DUP3 ADD SWAP2 JUMPDEST POP POP POP POP POP SWAP6 POP DUP5 DUP1 SLOAD PUSH1 0x1 DUP2 PUSH1 0x1 AND ISZERO PUSH2 0x100 MUL SUB AND PUSH1 0x2 SWAP1 DIV DUP1 PUSH1 0x1F ADD PUSH1 0x20 DUP1 SWAP2 DIV MUL PUSH1 0x20 ADD PUSH1 0x40 MLOAD SWAP1 DUP2 ADD PUSH1 0x40 MSTORE DUP1 SWAP3 SWAP2 SWAP1 DUP2 DUP2 MSTORE PUSH1 0x20 ADD DUP3 DUP1 SLOAD PUSH1 0x1 DUP2 PUSH1 0x1 AND ISZERO PUSH2 0x100 MUL SUB AND PUSH1 0x2 SWAP1 DIV DUP1 ISZERO PUSH2 0x28B9 JUMPI DUP1 PUSH1 0x1F LT PUSH2 0x288E JUMPI PUSH2 0x100 DUP1 DUP4 SLOAD DIV MUL DUP4 MSTORE SWAP2 PUSH1 0x20 ADD SWAP2 PUSH2 0x28B9 JUMP JUMPDEST DUP3 ADD SWAP2 SWAP1 PUSH1 0x0 MSTORE PUSH1 0x20 PUSH1 0x0 KECCAK256 SWAP1 JUMPDEST DUP2 SLOAD DUP2 MSTORE SWAP1 PUSH1 0x1 ADD SWAP1 PUSH1 0x20 ADD DUP1 DUP4 GT PUSH2 0x289C JUMPI DUP3 SWAP1 SUB PUSH1 0x1F AND DUP3 ADD SWAP2 JUMPDEST POP POP POP POP POP SWAP5 POP DUP4 DUP1 SLOAD PUSH1 0x1 DUP2 PUSH1 0x1 AND ISZERO PUSH2 0x100 MUL SUB AND PUSH1 0x2 SWAP1 DIV DUP1 PUSH1 0x1F ADD PUSH1 0x20 DUP1 SWAP2 DIV MUL PUSH1 0x20 ADD PUSH1 0x40 MLOAD SWAP1 DUP2 ADD PUSH1 0x40 MSTORE DUP1 SWAP3 SWAP2 SWAP1 DUP2 DUP2 MSTORE PUSH1 0x20 ADD DUP3 DUP1 SLOAD PUSH1 0x1 DUP2 PUSH1 0x1 AND ISZERO PUSH2 0x100 MUL SUB AND PUSH1 0x2 SWAP1 DIV DUP1 ISZERO PUSH2 0x2955 JUMPI DUP1 PUSH1 0x1F LT PUSH2 0x292A JUMPI PUSH2 0x100 DUP1 DUP4 SLOAD DIV MUL DUP4 MSTORE SWAP2 PUSH1 0x20 ADD SWAP2 PUSH2 0x2955 JUMP JUMPDEST DUP3 ADD SWAP2 SWAP1 PUSH1 0x0 MSTORE PUSH1 0x20 PUSH1 0x0 KECCAK256 SWAP1 JUMPDEST DUP2 SLOAD DUP2 MSTORE SWAP1 PUSH1 0x1 ADD SWAP1 PUSH1 0x20 ADD DUP1 DUP4 GT PUSH2 0x2938 JUMPI DUP3 SWAP1 SUB PUSH1 0x1F AND DUP3 ADD SWAP2 JUMPDEST POP POP POP POP POP SWAP4 POP DUP3 DUP1 SLOAD PUSH1 0x1 DUP2 PUSH1 0x1 AND ISZERO PUSH2 0x100 MUL SUB AND PUSH1 0x2 SWAP1 DIV DUP1 PUSH1 0x1F ADD PUSH1 0x20 DUP1 SWAP2 DIV MUL PUSH1 0x20 ADD PUSH1 0x40 MLOAD SWAP1 DUP2 ADD PUSH1 0x40 MSTORE DUP1 SWAP3 SWAP2 SWAP1 DUP2 DUP2 MSTORE PUSH1 0x20 ADD DUP3 DUP1 SLOAD PUSH1 0x1 DUP2 PUSH1 0x1 AND ISZERO PUSH2 0x100 MUL SUB AND PUSH1 0x2 SWAP1 DIV DUP1 ISZERO PUSH2 0x29F1 JUMPI DUP1 PUSH1 0x1F LT PUSH2 0x29C6 JUMPI PUSH2 0x100 DUP1 DUP4 SLOAD DIV MUL DUP4 MSTORE SWAP2 PUSH1 0x20 ADD SWAP2 PUSH2 0x29F1 JUMP JUMPDEST DUP3 ADD SWAP2 SWAP1 PUSH1 0x0 MSTORE PUSH1 0x20 PUSH1 0x0 KECCAK256 SWAP1 JUMPDEST DUP2 SLOAD DUP2 MSTORE SWAP1 PUSH1 0x1 ADD SWAP1 PUSH1 0x20 ADD DUP1 DUP4 GT PUSH2 0x29D4 JUMPI DUP3 SWAP1 SUB PUSH1 0x1F AND DUP3 ADD SWAP2 JUMPDEST POP POP POP POP POP SWAP3 POP DUP2 DUP1 SLOAD PUSH1 0x1 DUP2 PUSH1 0x1 AND ISZERO PUSH2 0x100 MUL SUB AND PUSH1 0x2 SWAP1 DIV DUP1 PUSH1 0x1F ADD PUSH1 0x20 DUP1 SWAP2 DIV MUL PUSH1 0x20 ADD PUSH1 0x40 MLOAD SWAP1 DUP2 ADD PUSH1 0x40 MSTORE DUP1 SWAP3 SWAP2 SWAP1 DUP2 DUP2 MSTORE PUSH1 0x20 ADD DUP3 DUP1 SLOAD PUSH1 0x1 DUP2 PUSH1 0x1 AND ISZERO PUSH2 0x100 MUL SUB AND PUSH1 0x2 SWAP1 DIV DUP1 ISZERO PUSH2 0x2A8D JUMPI DUP1 PUSH1 0x1F LT PUSH2 0x2A62 JUMPI PUSH2 0x100 DUP1 DUP4 SLOAD DIV MUL DUP4 MSTORE SWAP2 PUSH1 0x20 ADD SWAP2 PUSH2 0x2A8D JUMP JUMPDEST DUP3 ADD SWAP2 SWAP1 PUSH1 0x0 MSTORE PUSH1 0x20 PUSH1 0x0 KECCAK256 SWAP1 JUMPDEST DUP2 SLOAD DUP2 MSTORE SWAP1 PUSH1 0x1 ADD SWAP1 PUSH1 0x20 ADD DUP1 DUP4 GT PUSH2 0x2A70 JUMPI DUP3 SWAP1 SUB PUSH1 0x1F AND DUP3 ADD SWAP2 JUMPDEST POP POP POP POP POP SWAP2 POP SWAP9 POP SWAP9 POP SWAP9 POP SWAP9 POP SWAP9 POP SWAP9 POP SWAP9 POP SWAP9 POP POP SWAP2 SWAP4 SWAP6 SWAP8 POP SWAP2 SWAP4 SWAP6 SWAP8 JUMP JUMPDEST PUSH1 0x0 PUSH1 0x10 PUSH1 0x0 SWAP1 SLOAD SWAP1 PUSH2 0x100 EXP SWAP1 DIV PUSH20 0xFFFFFFFFFFFFFFFFFFFFFFFFFFFFFFFFFFFFFFFF AND PUSH20 0xFFFFFFFFFFFFFFFFFFFFFFFFFFFFFFFFFFFFFFFF AND CALLER PUSH20 0xFFFFFFFFFFFFFFFFFFFFFFFFFFFFFFFFFFFFFFFF AND EQ ISZERO ISZERO PUSH2 0x2B0E JUMPI PUSH1 0x0 DUP1 REVERT JUMPDEST PUSH1 0x1 PUSH1 0x7 PUSH1 0x0 DUP6 PUSH20 0xFFFFFFFFFFFFFFFFFFFFFFFFFFFFFFFFFFFFFFFF AND PUSH20 0xFFFFFFFFFFFFFFFFFFFFFFFFFFFFFFFFFFFFFFFF AND DUP2 MSTORE PUSH1 0x20 ADD SWAP1 DUP2 MSTORE PUSH1 0x20 ADD PUSH1 0x0 KECCAK256 PUSH1 0x0 DUP5 PUSH20 0xFFFFFFFFFFFFFFFFFFFFFFFFFFFFFFFFFFFFFFFF AND PUSH20 0xFFFFFFFFFFFFFFFFFFFFFFFFFFFFFFFFFFFFFFFF AND DUP2 MSTORE PUSH1 0x20 ADD SWAP1 DUP2 MSTORE PUSH1 0x20 ADD PUSH1 0x0 KECCAK256 PUSH1 0x0 PUSH2 0x100 EXP DUP2 SLOAD DUP2 PUSH1 0xFF MUL NOT AND SWAP1 DUP4 ISZERO ISZERO MUL OR SWAP1 SSTORE POP PUSH1 0xD PUSH1 0x0 DUP2 SLOAD DUP1 SWAP3 SWAP2 SWAP1 PUSH1 0x1 ADD SWAP2 SWAP1 POP SSTORE POP PUSH1 0x1 SWAP1 POP SWAP3 SWAP2 POP POP JUMP JUMPDEST PUSH1 0x0 PUSH1 0xD SLOAD SWAP1 POP SWAP1 JUMP JUMPDEST PUSH1 0x3 DUP2 DUP2 SLOAD DUP2 LT ISZERO ISZERO PUSH2 0x2BD8 JUMPI INVALID JUMPDEST SWAP1 PUSH1 0x0 MSTORE PUSH1 0x20 PUSH1 0x0 KECCAK256 ADD PUSH1 0x0 SWAP2 POP SLOAD SWAP1 PUSH2 0x100 EXP SWAP1 DIV PUSH20 0xFFFFFFFFFFFFFFFFFFFFFFFFFFFFFFFFFFFFFFFF AND DUP2 JUMP JUMPDEST DUP3 DUP1 SLOAD PUSH1 0x1 DUP2 PUSH1 0x1 AND ISZERO PUSH2 0x100 MUL SUB AND PUSH1 0x2 SWAP1 DIV SWAP1 PUSH1 0x0 MSTORE PUSH1 0x20 PUSH1 0x0 KECCAK256 SWAP1 PUSH1 0x1F ADD PUSH1 0x20 SWAP1 DIV DUP2 ADD SWAP3 DUP3 PUSH1 0x1F LT PUSH2 0x2C48 JUMPI DUP1 MLOAD PUSH1 0xFF NOT AND DUP4 DUP1 ADD OR DUP6 SSTORE PUSH2 0x2C76 JUMP JUMPDEST DUP3 DUP1 ADD PUSH1 0x1 ADD DUP6 SSTORE DUP3 ISZERO PUSH2 0x2C76 JUMPI SWAP2 DUP3 ADD JUMPDEST DUP3 DUP2 GT ISZERO PUSH2 0x2C75 JUMPI DUP3 MLOAD DUP3 SSTORE SWAP2 PUSH1 0x20 ADD SWAP2 SWAP1 PUSH1 0x1 ADD SWAP1 PUSH2 0x2C5A JUMP JUMPDEST JUMPDEST POP SWAP1 POP PUSH2 0x2C83 SWAP2 SWAP1 PUSH2 0x2C87 JUMP JUMPDEST POP SWAP1 JUMP JUMPDEST PUSH2 0x2CA9 SWAP2 SWAP1 JUMPDEST DUP1 DUP3 GT ISZERO PUSH2 0x2CA5 JUMPI PUSH1 0x0 DUP2 PUSH1 0x0 SWAP1 SSTORE POP PUSH1 0x1 ADD PUSH2 0x2C8D JUMP JUMPDEST POP SWAP1 JUMP JUMPDEST SWAP1 JUMP JUMPDEST PUSH1 0x0 PUSH2 0x2CB8 DUP3 CALLDATALOAD PUSH2 0x34ED JUMP JUMPDEST SWAP1 POP SWAP3 SWAP2 POP POP JUMP JUMPDEST PUSH1 0x0 DUP3 PUSH1 0x1F DUP4 ADD SLT ISZERO ISZERO PUSH2 0x2CD3 JUMPI PUSH1 0x0 DUP1 REVERT JUMPDEST DUP2 CALLDATALOAD PUSH2 0x2CE6 PUSH2 0x2CE1 DUP3 PUSH2 0x345B JUMP JUMPDEST PUSH2 0x342E JUMP JUMPDEST SWAP2 POP DUP1 DUP3 MSTORE PUSH1 0x20 DUP4 ADD PUSH1 0x20 DUP4 ADD DUP6 DUP4 DUP4 ADD GT ISZERO PUSH2 0x2D02 JUMPI PUSH1 0x0 DUP1 REVERT JUMPDEST PUSH2 0x2D0D DUP4 DUP3 DUP5 PUSH2 0x3517 JUMP JUMPDEST POP POP POP SWAP3 SWAP2 POP POP JUMP JUMPDEST PUSH1 0x0 PUSH2 0x2D22 DUP3 CALLDATALOAD PUSH2 0x350D JUMP JUMPDEST SWAP1 POP SWAP3 SWAP2 POP POP JUMP JUMPDEST PUSH1 0x0 PUSH1 0x20 DUP3 DUP5 SUB SLT ISZERO PUSH2 0x2D3C JUMPI PUSH1 0x0 DUP1 REVERT JUMPDEST PUSH1 0x0 PUSH2 0x2D4A DUP5 DUP3 DUP6 ADD PUSH2 0x2CAC JUMP JUMPDEST SWAP2 POP POP SWAP3 SWAP2 POP POP JUMP JUMPDEST PUSH1 0x0 DUP1 PUSH1 0x40 DUP4 DUP6 SUB SLT ISZERO PUSH2 0x2D66 JUMPI PUSH1 0x0 DUP1 REVERT JUMPDEST PUSH1 0x0 PUSH2 0x2D74 DUP6 DUP3 DUP7 ADD PUSH2 0x2CAC JUMP JUMPDEST SWAP3 POP POP PUSH1 0x20 PUSH2 0x2D85 DUP6 DUP3 DUP7 ADD PUSH2 0x2CAC JUMP JUMPDEST SWAP2 POP POP SWAP3 POP SWAP3 SWAP1 POP JUMP JUMPDEST PUSH1 0x0 DUP1 PUSH1 0x0 DUP1 PUSH1 0x0 DUP1 PUSH1 0x0 PUSH1 0xE0 DUP9 DUP11 SUB SLT ISZERO PUSH2 0x2DAA JUMPI PUSH1 0x0 DUP1 REVERT JUMPDEST PUSH1 0x0 PUSH2 0x2DB8 DUP11 DUP3 DUP12 ADD PUSH2 0x2CAC JUMP JUMPDEST SWAP8 POP POP PUSH1 0x20 PUSH2 0x2DC9 DUP11 DUP3 DUP12 ADD PUSH2 0x2CAC JUMP JUMPDEST SWAP7 POP POP PUSH1 0x40 DUP9 ADD CALLDATALOAD PUSH8 0xFFFFFFFFFFFFFFFF DUP2 GT ISZERO PUSH2 0x2DE6 JUMPI PUSH1 0x0 DUP1 REVERT JUMPDEST PUSH2 0x2DF2 DUP11 DUP3 DUP12 ADD PUSH2 0x2CC0 JUMP JUMPDEST SWAP6 POP POP PUSH1 0x60 DUP9 ADD CALLDATALOAD PUSH8 0xFFFFFFFFFFFFFFFF DUP2 GT ISZERO PUSH2 0x2E0F JUMPI PUSH1 0x0 DUP1 REVERT JUMPDEST PUSH2 0x2E1B DUP11 DUP3 DUP12 ADD PUSH2 0x2CC0 JUMP JUMPDEST SWAP5 POP POP PUSH1 0x80 DUP9 ADD CALLDATALOAD PUSH8 0xFFFFFFFFFFFFFFFF DUP2 GT ISZERO PUSH2 0x2E38 JUMPI PUSH1 0x0 DUP1 REVERT JUMPDEST PUSH2 0x2E44 DUP11 DUP3 DUP12 ADD PUSH2 0x2CC0 JUMP JUMPDEST SWAP4 POP POP PUSH1 0xA0 DUP9 ADD CALLDATALOAD PUSH8 0xFFFFFFFFFFFFFFFF DUP2 GT ISZERO PUSH2 0x2E61 JUMPI PUSH1 0x0 DUP1 REVERT JUMPDEST PUSH2 0x2E6D DUP11 DUP3 DUP12 ADD PUSH2 0x2CC0 JUMP JUMPDEST SWAP3 POP POP PUSH1 0xC0 PUSH2 0x2E7E DUP11 DUP3 DUP12 ADD PUSH2 0x2D16 JUMP JUMPDEST SWAP2 POP POP SWAP3 SWAP6 SWAP9 SWAP2 SWAP5 SWAP8 POP SWAP3 SWAP6 POP JUMP JUMPDEST PUSH1 0x0 DUP1 PUSH1 0x0 DUP1 PUSH1 0x0 DUP1 PUSH1 0x0 DUP1 PUSH2 0x100 DUP10 DUP12 SUB SLT ISZERO PUSH2 0x2EAA JUMPI PUSH1 0x0 DUP1 REVERT JUMPDEST PUSH1 0x0 PUSH2 0x2EB8 DUP12 DUP3 DUP13 ADD PUSH2 0x2CAC JUMP JUMPDEST SWAP9 POP POP PUSH1 0x20 DUP10 ADD CALLDATALOAD PUSH8 0xFFFFFFFFFFFFFFFF DUP2 GT ISZERO PUSH2 0x2ED5 JUMPI PUSH1 0x0 DUP1 REVERT JUMPDEST PUSH2 0x2EE1 DUP12 DUP3 DUP13 ADD PUSH2 0x2CC0 JUMP JUMPDEST SWAP8 POP POP PUSH1 0x40 DUP10 ADD CALLDATALOAD PUSH8 0xFFFFFFFFFFFFFFFF DUP2 GT ISZERO PUSH2 0x2EFE JUMPI PUSH1 0x0 DUP1 REVERT JUMPDEST PUSH2 0x2F0A DUP12 DUP3 DUP13 ADD PUSH2 0x2CC0 JUMP JUMPDEST SWAP7 POP POP PUSH1 0x60 DUP10 ADD CALLDATALOAD PUSH8 0xFFFFFFFFFFFFFFFF DUP2 GT ISZERO PUSH2 0x2F27 JUMPI PUSH1 0x0 DUP1 REVERT JUMPDEST PUSH2 0x2F33 DUP12 DUP3 DUP13 ADD PUSH2 0x2CC0 JUMP JUMPDEST SWAP6 POP POP PUSH1 0x80 DUP10 ADD CALLDATALOAD PUSH8 0xFFFFFFFFFFFFFFFF DUP2 GT ISZERO PUSH2 0x2F50 JUMPI PUSH1 0x0 DUP1 REVERT JUMPDEST PUSH2 0x2F5C DUP12 DUP3 DUP13 ADD PUSH2 0x2CC0 JUMP JUMPDEST SWAP5 POP POP PUSH1 0xA0 DUP10 ADD CALLDATALOAD PUSH8 0xFFFFFFFFFFFFFFFF DUP2 GT ISZERO PUSH2 0x2F79 JUMPI PUSH1 0x0 DUP1 REVERT JUMPDEST PUSH2 0x2F85 DUP12 DUP3 DUP13 ADD PUSH2 0x2CC0 JUMP JUMPDEST SWAP4 POP POP PUSH1 0xC0 DUP10 ADD CALLDATALOAD PUSH8 0xFFFFFFFFFFFFFFFF DUP2 GT ISZERO PUSH2 0x2FA2 JUMPI PUSH1 0x0 DUP1 REVERT JUMPDEST PUSH2 0x2FAE DUP12 DUP3 DUP13 ADD PUSH2 0x2CC0 JUMP JUMPDEST SWAP3 POP POP PUSH1 0xE0 DUP10 ADD CALLDATALOAD PUSH8 0xFFFFFFFFFFFFFFFF DUP2 GT ISZERO PUSH2 0x2FCB JUMPI PUSH1 0x0 DUP1 REVERT JUMPDEST PUSH2 0x2FD7 DUP12 DUP3 DUP13 ADD PUSH2 0x2CC0 JUMP JUMPDEST SWAP2 POP POP SWAP3 SWAP6 SWAP9 POP SWAP3 SWAP6 SWAP9 SWAP1 SWAP4 SWAP7 POP JUMP JUMPDEST PUSH1 0x0 DUP1 PUSH1 0x0 DUP1 PUSH1 0x0 DUP1 PUSH1 0x0 DUP1 PUSH1 0x0 DUP1 PUSH2 0x140 DUP12 DUP14 SUB SLT ISZERO PUSH2 0x3007 JUMPI PUSH1 0x0 DUP1 REVERT JUMPDEST PUSH1 0x0 PUSH2 0x3015 DUP14 DUP3 DUP15 ADD PUSH2 0x2CAC JUMP JUMPDEST SWAP11 POP POP PUSH1 0x20 DUP12 ADD CALLDATALOAD PUSH8 0xFFFFFFFFFFFFFFFF DUP2 GT ISZERO PUSH2 0x3032 JUMPI PUSH1 0x0 DUP1 REVERT JUMPDEST PUSH2 0x303E DUP14 DUP3 DUP15 ADD PUSH2 0x2CC0 JUMP JUMPDEST SWAP10 POP POP PUSH1 0x40 DUP12 ADD CALLDATALOAD PUSH8 0xFFFFFFFFFFFFFFFF DUP2 GT ISZERO PUSH2 0x305B JUMPI PUSH1 0x0 DUP1 REVERT JUMPDEST PUSH2 0x3067 DUP14 DUP3 DUP15 ADD PUSH2 0x2CC0 JUMP JUMPDEST SWAP9 POP POP PUSH1 0x60 DUP12 ADD CALLDATALOAD PUSH8 0xFFFFFFFFFFFFFFFF DUP2 GT ISZERO PUSH2 0x3084 JUMPI PUSH1 0x0 DUP1 REVERT JUMPDEST PUSH2 0x3090 DUP14 DUP3 DUP15 ADD PUSH2 0x2CC0 JUMP JUMPDEST SWAP8 POP POP PUSH1 0x80 DUP12 ADD CALLDATALOAD PUSH8 0xFFFFFFFFFFFFFFFF DUP2 GT ISZERO PUSH2 0x30AD JUMPI PUSH1 0x0 DUP1 REVERT JUMPDEST PUSH2 0x30B9 DUP14 DUP3 DUP15 ADD PUSH2 0x2CC0 JUMP JUMPDEST SWAP7 POP POP PUSH1 0xA0 DUP12 ADD CALLDATALOAD PUSH8 0xFFFFFFFFFFFFFFFF DUP2 GT ISZERO PUSH2 0x30D6 JUMPI PUSH1 0x0 DUP1 REVERT JUMPDEST PUSH2 0x30E2 DUP14 DUP3 DUP15 ADD PUSH2 0x2CC0 JUMP JUMPDEST SWAP6 POP POP PUSH1 0xC0 DUP12 ADD CALLDATALOAD PUSH8 0xFFFFFFFFFFFFFFFF DUP2 GT ISZERO PUSH2 0x30FF JUMPI PUSH1 0x0 DUP1 REVERT JUMPDEST PUSH2 0x310B DUP14 DUP3 DUP15 ADD PUSH2 0x2CC0 JUMP JUMPDEST SWAP5 POP POP PUSH1 0xE0 DUP12 ADD CALLDATALOAD PUSH8 0xFFFFFFFFFFFFFFFF DUP2 GT ISZERO PUSH2 0x3128 JUMPI PUSH1 0x0 DUP1 REVERT JUMPDEST PUSH2 0x3134 DUP14 DUP3 DUP15 ADD PUSH2 0x2CC0 JUMP JUMPDEST SWAP4 POP POP PUSH2 0x100 DUP12 ADD CALLDATALOAD PUSH8 0xFFFFFFFFFFFFFFFF DUP2 GT ISZERO PUSH2 0x3152 JUMPI PUSH1 0x0 DUP1 REVERT JUMPDEST PUSH2 0x315E DUP14 DUP3 DUP15 ADD PUSH2 0x2CC0 JUMP JUMPDEST SWAP3 POP POP PUSH2 0x120 DUP12 ADD CALLDATALOAD PUSH8 0xFFFFFFFFFFFFFFFF DUP2 GT ISZERO PUSH2 0x317C JUMPI PUSH1 0x0 DUP1 REVERT JUMPDEST PUSH2 0x3188 DUP14 DUP3 DUP15 ADD PUSH2 0x2CC0 JUMP JUMPDEST SWAP2 POP POP SWAP3 SWAP6 SWAP9 SWAP12 SWAP2 SWAP5 SWAP8 SWAP11 POP SWAP3 SWAP6 SWAP9 POP JUMP JUMPDEST PUSH1 0x0 PUSH1 0x20 DUP3 DUP5 SUB SLT ISZERO PUSH2 0x31AC JUMPI PUSH1 0x0 DUP1 REVERT JUMPDEST PUSH1 0x0 PUSH2 0x31BA DUP5 DUP3 DUP6 ADD PUSH2 0x2D16 JUMP JUMPDEST SWAP2 POP POP SWAP3 SWAP2 POP POP JUMP JUMPDEST PUSH2 0x31CC DUP2 PUSH2 0x34B7 JUMP JUMPDEST DUP3 MSTORE POP POP JUMP JUMPDEST PUSH1 0x0 PUSH2 0x31DD DUP3 PUSH2 0x3494 JUMP JUMPDEST DUP1 DUP5 MSTORE PUSH1 0x20 DUP5 ADD SWAP4 POP PUSH2 0x31EF DUP4 PUSH2 0x3487 JUMP JUMPDEST PUSH1 0x0 JUMPDEST DUP3 DUP2 LT ISZERO PUSH2 0x3221 JUMPI PUSH2 0x3205 DUP7 DUP4 MLOAD PUSH2 0x31C3 JUMP JUMPDEST PUSH2 0x320E DUP3 PUSH2 0x34AA JUMP JUMPDEST SWAP2 POP PUSH1 0x20 DUP7 ADD SWAP6 POP PUSH1 0x1 DUP2 ADD SWAP1 POP PUSH2 0x31F2 JUMP JUMPDEST POP DUP5 SWAP3 POP POP POP SWAP3 SWAP2 POP POP JUMP JUMPDEST PUSH2 0x3236 DUP2 PUSH2 0x34D7 JUMP JUMPDEST DUP3 MSTORE POP POP JUMP JUMPDEST PUSH1 0x0 PUSH2 0x3247 DUP3 PUSH2 0x349F JUMP JUMPDEST DUP1 DUP5 MSTORE PUSH2 0x325B DUP2 PUSH1 0x20 DUP7 ADD PUSH1 0x20 DUP7 ADD PUSH2 0x3526 JUMP JUMPDEST PUSH2 0x3264 DUP2 PUSH2 0x3559 JUMP JUMPDEST PUSH1 0x20 DUP6 ADD ADD SWAP2 POP POP SWAP3 SWAP2 POP POP JUMP JUMPDEST PUSH2 0x327B DUP2 PUSH2 0x34E3 JUMP JUMPDEST DUP3 MSTORE POP POP JUMP JUMPDEST PUSH1 0x0 PUSH1 0x20 DUP3 ADD SWAP1 POP PUSH2 0x3296 PUSH1 0x0 DUP4 ADD DUP5 PUSH2 0x31C3 JUMP JUMPDEST SWAP3 SWAP2 POP POP JUMP JUMPDEST PUSH1 0x0 PUSH1 0x20 DUP3 ADD SWAP1 POP DUP2 DUP2 SUB PUSH1 0x0 DUP4 ADD MSTORE PUSH2 0x32B6 DUP2 DUP5 PUSH2 0x31D2 JUMP JUMPDEST SWAP1 POP SWAP3 SWAP2 POP POP JUMP JUMPDEST PUSH1 0x0 PUSH1 0x20 DUP3 ADD SWAP1 POP PUSH2 0x32D3 PUSH1 0x0 DUP4 ADD DUP5 PUSH2 0x322D JUMP JUMPDEST SWAP3 SWAP2 POP POP JUMP JUMPDEST PUSH1 0x0 PUSH2 0x100 DUP3 ADD SWAP1 POP DUP2 DUP2 SUB PUSH1 0x0 DUP4 ADD MSTORE PUSH2 0x32F4 DUP2 DUP12 PUSH2 0x323C JUMP JUMPDEST SWAP1 POP DUP2 DUP2 SUB PUSH1 0x20 DUP4 ADD MSTORE PUSH2 0x3308 DUP2 DUP11 PUSH2 0x323C JUMP JUMPDEST SWAP1 POP DUP2 DUP2 SUB PUSH1 0x40 DUP4 ADD MSTORE PUSH2 0x331C DUP2 DUP10 PUSH2 0x323C JUMP JUMPDEST SWAP1 POP DUP2 DUP2 SUB PUSH1 0x60 DUP4 ADD MSTORE PUSH2 0x3330 DUP2 DUP9 PUSH2 0x323C JUMP JUMPDEST SWAP1 POP DUP2 DUP2 SUB PUSH1 0x80 DUP4 ADD MSTORE PUSH2 0x3344 DUP2 DUP8 PUSH2 0x323C JUMP JUMPDEST SWAP1 POP DUP2 DUP2 SUB PUSH1 0xA0 DUP4 ADD MSTORE PUSH2 0x3358 DUP2 DUP7 PUSH2 0x323C JUMP JUMPDEST SWAP1 POP DUP2 DUP2 SUB PUSH1 0xC0 DUP4 ADD MSTORE PUSH2 0x336C DUP2 DUP6 PUSH2 0x323C JUMP JUMPDEST SWAP1 POP PUSH2 0x337B PUSH1 0xE0 DUP4 ADD DUP5 PUSH2 0x31C3 JUMP JUMPDEST SWAP10 SWAP9 POP POP POP POP POP POP POP POP POP JUMP JUMPDEST PUSH1 0x0 PUSH1 0xE0 DUP3 ADD SWAP1 POP DUP2 DUP2 SUB PUSH1 0x0 DUP4 ADD MSTORE PUSH2 0x33A2 DUP2 DUP11 PUSH2 0x323C JUMP JUMPDEST SWAP1 POP DUP2 DUP2 SUB PUSH1 0x20 DUP4 ADD MSTORE PUSH2 0x33B6 DUP2 DUP10 PUSH2 0x323C JUMP JUMPDEST SWAP1 POP DUP2 DUP2 SUB PUSH1 0x40 DUP4 ADD MSTORE PUSH2 0x33CA DUP2 DUP9 PUSH2 0x323C JUMP JUMPDEST SWAP1 POP DUP2 DUP2 SUB PUSH1 0x60 DUP4 ADD MSTORE PUSH2 0x33DE DUP2 DUP8 PUSH2 0x323C JUMP JUMPDEST SWAP1 POP PUSH2 0x33ED PUSH1 0x80 DUP4 ADD DUP7 PUSH2 0x3272 JUMP JUMPDEST PUSH2 0x33FA PUSH1 0xA0 DUP4 ADD DUP6 PUSH2 0x31C3 JUMP JUMPDEST PUSH2 0x3407 PUSH1 0xC0 DUP4 ADD DUP5 PUSH2 0x31C3 JUMP JUMPDEST SWAP9 SWAP8 POP POP POP POP POP POP POP POP JUMP JUMPDEST PUSH1 0x0 PUSH1 0x20 DUP3 ADD SWAP1 POP PUSH2 0x3428 PUSH1 0x0 DUP4 ADD DUP5 PUSH2 0x3272 JUMP JUMPDEST SWAP3 SWAP2 POP POP JUMP JUMPDEST PUSH1 0x0 PUSH1 0x40 MLOAD SWAP1 POP DUP2 DUP2 ADD DUP2 DUP2 LT PUSH8 0xFFFFFFFFFFFFFFFF DUP3 GT OR ISZERO PUSH2 0x3451 JUMPI PUSH1 0x0 DUP1 REVERT JUMPDEST DUP1 PUSH1 0x40 MSTORE POP SWAP2 SWAP1 POP JUMP JUMPDEST PUSH1 0x0 PUSH8 0xFFFFFFFFFFFFFFFF DUP3 GT ISZERO PUSH2 0x3472 JUMPI PUSH1 0x0 DUP1 REVERT JUMPDEST PUSH1 0x1F NOT PUSH1 0x1F DUP4 ADD AND SWAP1 POP PUSH1 0x20 DUP2 ADD SWAP1 POP SWAP2 SWAP1 POP JUMP JUMPDEST PUSH1 0x0 PUSH1 0x20 DUP3 ADD SWAP1 POP SWAP2 SWAP1 POP JUMP JUMPDEST PUSH1 0x0 DUP2 MLOAD SWAP1 POP SWAP2 SWAP1 POP JUMP JUMPDEST PUSH1 0x0 DUP2 MLOAD SWAP1 POP SWAP2 SWAP1 POP JUMP JUMPDEST PUSH1 0x0 PUSH1 0x20 DUP3 ADD SWAP1 POP SWAP2 SWAP1 POP JUMP JUMPDEST PUSH1 0x0 PUSH20 0xFFFFFFFFFFFFFFFFFFFFFFFFFFFFFFFFFFFFFFFF DUP3 AND SWAP1 POP SWAP2 SWAP1 POP JUMP JUMPDEST PUSH1 0x0 DUP2 ISZERO ISZERO SWAP1 POP SWAP2 SWAP1 POP JUMP JUMPDEST PUSH1 0x0 DUP2 SWAP1 POP SWAP2 SWAP1 POP JUMP JUMPDEST PUSH1 0x0 PUSH20 0xFFFFFFFFFFFFFFFFFFFFFFFFFFFFFFFFFFFFFFFF DUP3 AND SWAP1 POP SWAP2 SWAP1 POP JUMP JUMPDEST PUSH1 0x0 DUP2 SWAP1 POP SWAP2 SWAP1 POP JUMP JUMPDEST DUP3 DUP2 DUP4 CALLDATACOPY PUSH1 0x0 DUP4 DUP4 ADD MSTORE POP POP POP JUMP JUMPDEST PUSH1 0x0 JUMPDEST DUP4 DUP2 LT ISZERO PUSH2 0x3544 JUMPI DUP1 DUP3 ADD MLOAD DUP2 DUP5 ADD MSTORE PUSH1 0x20 DUP2 ADD SWAP1 POP PUSH2 0x3529 JUMP JUMPDEST DUP4 DUP2 GT ISZERO PUSH2 0x3553 JUMPI PUSH1 0x0 DUP5 DUP5 ADD MSTORE JUMPDEST POP POP POP POP JUMP JUMPDEST PUSH1 0x0 PUSH1 0x1F NOT PUSH1 0x1F DUP4 ADD AND SWAP1 POP SWAP2 SWAP1 POP JUMP STOP LOG2 PUSH6 0x627A7A723058 KECCAK256 STATICCALL 0x24 PUSH30 0xD6D225D54CE6940B0EC69C2E101CD153C2B14721184EF151ECCB7A149B6C PUSH6 0x78706572696D PUSH6 0x6E74616CF500 CALLDATACOPY "
				},
				"gasEstimates": {
					"creation": {
						"codeDepositCost": "2746400",
						"executionCost": "48289",
						"totalCost": "2794689"
					},
					"external": {
						"MoHPermissionCounter()": "936",
						"MoHRevokePermission(address,address)": "infinite",
						"checkDoctor(address)": "1481",
						"createVaccineRecord(address,address,string,string,string,string,uint256)": "infinite",
						"doctorCount()": "782",
						"doctorList(uint256)": "1144",
						"doctorRegistration(address,string,string,string,string,string,string,string)": "infinite",
						"editDoctor(address,string,string,string,string,string,string,string)": "infinite",
						"editUser(address,string,string,string,string,string,string,string,string,string)": "infinite",
						"getDoctorCount()": "812",
						"getDoctors()": "infinite",
						"getMoHPermissionCounter()": "1142",
						"getUserCount()": "1010",
						"getUserPermissionCounter()": "548",
						"getUsers()": "infinite",
						"getVaccinationInfo(address)": "infinite",
						"givePermissionByMoH(address,address)": "infinite",
						"givePermissionByUser(address)": "41388",
						"mohAdress()": "1066",
						"owner()": "912",
						"ownerAddress()": "942",
						"searchDoctor(address)": "infinite",
						"searchUserformation(address)": "infinite",
						"userCount()": "584",
						"userList(uint256)": "1496",
						"userPermissionCounter()": "1068",
						"userRegistration(address,string,string,string,string,string,string,string,string,string)": "infinite",
						"userRevokePermission(address)": "21195",
						"vaccinationList(uint256)": "1694",
						"vaccinationRecordsCounter()": "914"
					}
				},
				"methodIdentifiers": {
					"MoHPermissionCounter()": "99d698c5",
					"MoHRevokePermission(address,address)": "c3bf7bf0",
					"checkDoctor(address)": "793de5f0",
					"createVaccineRecord(address,address,string,string,string,string,uint256)": "44c23f88",
					"doctorCount()": "78522bc4",
					"doctorList(uint256)": "127ca4b4",
					"doctorRegistration(address,string,string,string,string,string,string,string)": "17e51111",
					"editDoctor(address,string,string,string,string,string,string,string)": "16e0a611",
					"editUser(address,string,string,string,string,string,string,string,string,string)": "779a9576",
					"getDoctorCount()": "79111c1c",
					"getDoctors()": "b13d5d94",
					"getMoHPermissionCounter()": "e0df0ac6",
					"getUserCount()": "b5cb15f7",
					"getUserPermissionCounter()": "024decc5",
					"getUsers()": "00ce8e3e",
					"getVaccinationInfo(address)": "83a28b29",
					"givePermissionByMoH(address,address)": "d118404b",
					"givePermissionByUser(address)": "294a4540",
					"mohAdress()": "b744ff4d",
					"owner()": "8da5cb5b",
					"ownerAddress()": "8f84aa09",
					"searchDoctor(address)": "caee6c85",
					"searchUserformation(address)": "076fd2f8",
					"userCount()": "07973ccf",
					"userList(uint256)": "9f4216e8",
					"userPermissionCounter()": "c543a718",
					"userRegistration(address,string,string,string,string,string,string,string,string,string)": "6cdb2278",
					"userRevokePermission(address)": "5fc8e8c6",
					"vaccinationList(uint256)": "ff508dab",
					"vaccinationRecordsCounter()": "96e39ce0"
				}
			},
			"userdoc": {
				"methods": {}
			}
		}
	}
}