{
	"contracts/ddddd.sol": {
		"ddddd": {
			"abi": [
				{
					"constant": true,
					"inputs": [],
					"name": "getUsers",
					"outputs": [
						{
							"name": "",
							"type": "address[]"
						}
					],
					"payable": false,
					"stateMutability": "view",
					"type": "function"
				},
				{
					"constant": true,
					"inputs": [],
					"name": "getUserPermissionCounter",
					"outputs": [
						{
							"name": "",
							"type": "uint256"
						}
					],
					"payable": false,
					"stateMutability": "view",
					"type": "function"
				},
				{
					"constant": true,
					"inputs": [
						{
							"name": "_address",
							"type": "address"
						}
					],
					"name": "searchUserformation",
					"outputs": [
						{
							"name": "",
							"type": "string"
						},
						{
							"name": "",
							"type": "string"
						},
						{
							"name": "",
							"type": "string"
						},
						{
							"name": "",
							"type": "string"
						},
						{
							"name": "",
							"type": "string"
						},
						{
							"name": "",
							"type": "string"
						},
						{
							"name": "",
							"type": "address"
						}
					],
					"payable": false,
					"stateMutability": "view",
					"type": "function"
				},
				{
					"constant": true,
					"inputs": [],
					"name": "userCount",
					"outputs": [
						{
							"name": "",
							"type": "uint256"
						}
					],
					"payable": false,
					"stateMutability": "view",
					"type": "function"
				},
				{
					"constant": true,
					"inputs": [
						{
							"name": "",
							"type": "uint256"
						}
					],
					"name": "doctorList",
					"outputs": [
						{
							"name": "",
							"type": "address"
						}
					],
					"payable": false,
					"stateMutability": "view",
					"type": "function"
				},
				{
					"constant": false,
					"inputs": [
						{
							"name": "_doctor",
							"type": "address"
						},
						{
							"name": "_uaeId",
							"type": "string"
						},
						{
							"name": "_name",
							"type": "string"
						},
						{
							"name": "_phone",
							"type": "string"
						},
						{
							"name": "_gender",
							"type": "string"
						},
						{
							"name": "_dob",
							"type": "string"
						},
						{
							"name": "_qualification",
							"type": "string"
						},
						{
							"name": "_major",
							"type": "string"
						}
					],
					"name": "editDoctor",
					"outputs": [],
					"payable": false,
					"stateMutability": "nonpayable",
					"type": "function"
				},
				{
					"constant": false,
					"inputs": [
						{
							"name": "_doctor",
							"type": "address"
						},
						{
							"name": "_uaeId",
							"type": "string"
						},
						{
							"name": "_name",
							"type": "string"
						},
						{
							"name": "_phone",
							"type": "string"
						},
						{
							"name": "_gender",
							"type": "string"
						},
						{
							"name": "_dob",
							"type": "string"
						},
						{
							"name": "_qualification",
							"type": "string"
						},
						{
							"name": "_major",
							"type": "string"
						}
					],
					"name": "doctorRegistration",
					"outputs": [],
					"payable": false,
					"stateMutability": "nonpayable",
					"type": "function"
				},
				{
					"constant": false,
					"inputs": [
						{
							"name": "_address",
							"type": "address"
						}
					],
					"name": "givePermissionByUser",
					"outputs": [
						{
							"name": "success",
							"type": "bool"
						}
					],
					"payable": false,
					"stateMutability": "nonpayable",
					"type": "function"
				},
				{
					"constant": false,
					"inputs": [
						{
							"name": "_address",
							"type": "address"
						}
					],
					"name": "userRevokePermission",
					"outputs": [
						{
							"name": "success",
							"type": "bool"
						}
					],
					"payable": false,
					"stateMutability": "nonpayable",
					"type": "function"
				},
				{
					"constant": false,
					"inputs": [
						{
							"name": "_user",
							"type": "address"
						},
						{
							"name": "_uaeId",
							"type": "string"
						},
						{
							"name": "_name",
							"type": "string"
						},
						{
							"name": "_phone",
							"type": "string"
						},
						{
							"name": "_gender",
							"type": "string"
						},
						{
							"name": "_dob",
							"type": "string"
						},
						{
							"name": "_addr",
							"type": "string"
						},
						{
							"name": "_email",
							"type": "string"
						},
						{
							"name": "_nomineeName",
							"type": "string"
						},
						{
							"name": "_nomineeContact",
							"type": "string"
						}
					],
					"name": "userRegistration",
					"outputs": [],
					"payable": false,
					"stateMutability": "nonpayable",
					"type": "function"
				},
				{
					"constant": false,
					"inputs": [
						{
							"name": "_user",
							"type": "address"
						},
						{
							"name": "_uaeId",
							"type": "string"
						},
						{
							"name": "_name",
							"type": "string"
						},
						{
							"name": "_phone",
							"type": "string"
						},
						{
							"name": "_gender",
							"type": "string"
						},
						{
							"name": "_dob",
							"type": "string"
						},
						{
							"name": "_addr",
							"type": "string"
						},
						{
							"name": "_email",
							"type": "string"
						},
						{
							"name": "_nomineeName",
							"type": "string"
						},
						{
							"name": "_nomineeContact",
							"type": "string"
						}
					],
					"name": "editUser",
					"outputs": [],
					"payable": false,
					"stateMutability": "nonpayable",
					"type": "function"
				},
				{
					"constant": true,
					"inputs": [],
					"name": "doctorCount",
					"outputs": [
						{
							"name": "",
							"type": "uint256"
						}
					],
					"payable": false,
					"stateMutability": "view",
					"type": "function"
				},
				{
					"constant": true,
					"inputs": [],
					"name": "getDoctorCount",
					"outputs": [
						{
							"name": "",
							"type": "uint256"
						}
					],
					"payable": false,
					"stateMutability": "view",
					"type": "function"
				},
				{
					"constant": true,
					"inputs": [],
					"name": "owner",
					"outputs": [
						{
							"name": "",
							"type": "address"
						}
					],
					"payable": false,
					"stateMutability": "view",
					"type": "function"
				},
				{
					"constant": false,
					"inputs": [],
					"name": "ownerAddress",
					"outputs": [
						{
							"name": "",
							"type": "address"
						}
					],
					"payable": false,
					"stateMutability": "nonpayable",
					"type": "function"
				},
				{
					"constant": true,
					"inputs": [],
					"name": "vaccinationRecordsCounter",
					"outputs": [
						{
							"name": "",
							"type": "uint256"
						}
					],
					"payable": false,
					"stateMutability": "view",
					"type": "function"
				},
				{
					"constant": true,
					"inputs": [],
					"name": "MoHPermissionCounter",
					"outputs": [
						{
							"name": "",
							"type": "uint256"
						}
					],
					"payable": false,
					"stateMutability": "view",
					"type": "function"
				},
				{
					"constant": true,
					"inputs": [
						{
							"name": "",
							"type": "uint256"
						}
					],
					"name": "userList",
					"outputs": [
						{
							"name": "",
							"type": "address"
						}
					],
					"payable": false,
					"stateMutability": "view",
					"type": "function"
				},
				{
					"constant": true,
					"inputs": [],
					"name": "getDoctors",
					"outputs": [
						{
							"name": "",
							"type": "address[]"
						}
					],
					"payable": false,
					"stateMutability": "view",
					"type": "function"
				},
				{
					"constant": true,
					"inputs": [],
					"name": "getUserCount",
					"outputs": [
						{
							"name": "",
							"type": "uint256"
						}
					],
					"payable": false,
					"stateMutability": "view",
					"type": "function"
				},
				{
					"constant": true,
					"inputs": [],
					"name": "mohAdress",
					"outputs": [
						{
							"name": "",
							"type": "address"
						}
					],
					"payable": false,
					"stateMutability": "view",
					"type": "function"
				},
				{
					"constant": false,
					"inputs": [
						{
							"name": "_address1",
							"type": "address"
						},
						{
							"name": "_address2",
							"type": "address"
						}
					],
					"name": "MoHRevokePermission",
					"outputs": [
						{
							"name": "success",
							"type": "bool"
						}
					],
					"payable": false,
					"stateMutability": "nonpayable",
					"type": "function"
				},
				{
					"constant": true,
					"inputs": [],
					"name": "userPermissionCounter",
					"outputs": [
						{
							"name": "",
							"type": "uint256"
						}
					],
					"payable": false,
					"stateMutability": "view",
					"type": "function"
				},
				{
					"constant": true,
					"inputs": [
						{
							"name": "_address",
							"type": "address"
						}
					],
					"name": "searchDoctor",
					"outputs": [
						{
							"name": "",
							"type": "string"
						},
						{
							"name": "",
							"type": "string"
						},
						{
							"name": "",
							"type": "string"
						},
						{
							"name": "",
							"type": "string"
						},
						{
							"name": "",
							"type": "string"
						},
						{
							"name": "",
							"type": "string"
						},
						{
							"name": "",
							"type": "string"
						}
					],
					"payable": false,
					"stateMutability": "view",
					"type": "function"
				},
				{
					"constant": false,
					"inputs": [
						{
							"name": "_address1",
							"type": "address"
						},
						{
							"name": "_address2",
							"type": "address"
						}
					],
					"name": "givePermissionByMoH",
					"outputs": [
						{
							"name": "success",
							"type": "bool"
						}
					],
					"payable": false,
					"stateMutability": "nonpayable",
					"type": "function"
				},
				{
					"constant": true,
					"inputs": [],
					"name": "getMoHPermissionCounter",
					"outputs": [
						{
							"name": "",
							"type": "uint256"
						}
					],
					"payable": false,
					"stateMutability": "view",
					"type": "function"
				},
				{
					"constant": false,
					"inputs": [
						{
							"name": "_address1",
							"type": "address"
						},
						{
							"name": "_doctor",
							"type": "address"
						},
						{
							"name": "_vaccine",
							"type": "string"
						},
						{
							"name": "_description",
							"type": "string"
						},
						{
							"name": "_typeOfVaccine",
							"type": "string"
						},
						{
							"name": "_creationDate",
							"type": "uint256"
						},
						{
							"name": "_userEadderss",
							"type": "address"
						},
						{
							"name": "_doctorEaddress",
							"type": "address"
						}
					],
					"name": "createVaccineRecord",
					"outputs": [
						{
							"name": "success",
							"type": "bool"
						}
					],
					"payable": false,
					"stateMutability": "nonpayable",
					"type": "function"
				},
				{
					"constant": true,
					"inputs": [
						{
							"name": "",
							"type": "uint256"
						}
					],
					"name": "vaccinationList",
					"outputs": [
						{
							"name": "",
							"type": "address"
						}
					],
					"payable": false,
					"stateMutability": "view",
					"type": "function"
				}
			],
			"devdoc": {
				"methods": {}
			},
			"evm": {
				"assembly": "    /* \"contracts/ddddd.sol\":89:8581  contract ddddd {\r... */\n  mstore(0x40, 0x80)\n    /* \"contracts/ddddd.sol\":1633:1634  0 */\n  0x0\n    /* \"contracts/ddddd.sol\":1606:1634  uint256 public userCount = 0 */\n  0xb\n  sstore\n    /* \"contracts/ddddd.sol\":1670:1671  0 */\n  0x0\n    /* \"contracts/ddddd.sol\":1641:1671  uint256 public doctorCount = 0 */\n  0xc\n  sstore\n    /* \"contracts/ddddd.sol\":1716:1717  0 */\n  0x0\n    /* \"contracts/ddddd.sol\":1678:1717  uint256 public MoHPermissionCounter = 0 */\n  0xd\n  sstore\n    /* \"contracts/ddddd.sol\":1763:1764  0 */\n  0x0\n    /* \"contracts/ddddd.sol\":1724:1764  uint256 public userPermissionCounter = 0 */\n  0xe\n  sstore\n    /* \"contracts/ddddd.sol\":1814:1815  0 */\n  0x0\n    /* \"contracts/ddddd.sol\":1771:1815  uint256 public vaccinationRecordsCounter = 0 */\n  0xf\n  sstore\n    /* \"contracts/ddddd.sol\":1851:1893  0xc50C6297f56b033633C30354A854b074749cd2dC */\n  0xc50c6297f56b033633c30354a854b074749cd2dc\n    /* \"contracts/ddddd.sol\":1824:1893  address public mohAdress = 0xc50C6297f56b033633C30354A854b074749cd2dC */\n  0x10\n  exp(0x100, 0x0)\n  dup2\n  sload\n  dup2\n  0xffffffffffffffffffffffffffffffffffffffff\n  mul\n  not\n  and\n  swap1\n  dup4\n  0xffffffffffffffffffffffffffffffffffffffff\n  and\n  mul\n  or\n  swap1\n  sstore\n  pop\n    /* \"contracts/ddddd.sol\":89:8581  contract ddddd {\r... */\n  callvalue\n    /* \"--CODEGEN--\":8:17   */\n  dup1\n    /* \"--CODEGEN--\":5:7   */\n  iszero\n  tag_1\n  jumpi\n    /* \"--CODEGEN--\":30:31   */\n  0x0\n    /* \"--CODEGEN--\":27:28   */\n  dup1\n    /* \"--CODEGEN--\":20:32   */\n  revert\n    /* \"--CODEGEN--\":5:7   */\ntag_1:\n    /* \"contracts/ddddd.sol\":89:8581  contract ddddd {\r... */\n  pop\n  dataSize(sub_0)\n  dup1\n  dataOffset(sub_0)\n  0x0\n  codecopy\n  0x0\n  return\nstop\n\nsub_0: assembly {\n        /* \"contracts/ddddd.sol\":89:8581  contract ddddd {\r... */\n      mstore(0x40, 0x80)\n      jumpi(tag_1, lt(calldatasize, 0x4))\n      calldataload(0x0)\n      0x100000000000000000000000000000000000000000000000000000000\n      swap1\n      div\n      0xffffffff\n      and\n      dup1\n      0xce8e3e\n      eq\n      tag_2\n      jumpi\n      dup1\n      0x24decc5\n      eq\n      tag_3\n      jumpi\n      dup1\n      0x76fd2f8\n      eq\n      tag_4\n      jumpi\n      dup1\n      0x7973ccf\n      eq\n      tag_5\n      jumpi\n      dup1\n      0x127ca4b4\n      eq\n      tag_6\n      jumpi\n      dup1\n      0x16e0a611\n      eq\n      tag_7\n      jumpi\n      dup1\n      0x17e51111\n      eq\n      tag_8\n      jumpi\n      dup1\n      0x294a4540\n      eq\n      tag_9\n      jumpi\n      dup1\n      0x5fc8e8c6\n      eq\n      tag_10\n      jumpi\n      dup1\n      0x6cdb2278\n      eq\n      tag_11\n      jumpi\n      dup1\n      0x779a9576\n      eq\n      tag_12\n      jumpi\n      dup1\n      0x78522bc4\n      eq\n      tag_13\n      jumpi\n      dup1\n      0x79111c1c\n      eq\n      tag_14\n      jumpi\n      dup1\n      0x8da5cb5b\n      eq\n      tag_15\n      jumpi\n      dup1\n      0x8f84aa09\n      eq\n      tag_16\n      jumpi\n      dup1\n      0x96e39ce0\n      eq\n      tag_17\n      jumpi\n      dup1\n      0x99d698c5\n      eq\n      tag_18\n      jumpi\n      dup1\n      0x9f4216e8\n      eq\n      tag_19\n      jumpi\n      dup1\n      0xb13d5d94\n      eq\n      tag_20\n      jumpi\n      dup1\n      0xb5cb15f7\n      eq\n      tag_21\n      jumpi\n      dup1\n      0xb744ff4d\n      eq\n      tag_22\n      jumpi\n      dup1\n      0xc3bf7bf0\n      eq\n      tag_23\n      jumpi\n      dup1\n      0xc543a718\n      eq\n      tag_24\n      jumpi\n      dup1\n      0xcaee6c85\n      eq\n      tag_25\n      jumpi\n      dup1\n      0xd118404b\n      eq\n      tag_26\n      jumpi\n      dup1\n      0xe0df0ac6\n      eq\n      tag_27\n      jumpi\n      dup1\n      0xe1f2d3ec\n      eq\n      tag_28\n      jumpi\n      dup1\n      0xff508dab\n      eq\n      tag_29\n      jumpi\n    tag_1:\n      0x0\n      dup1\n      revert\n        /* \"contracts/ddddd.sol\":6908:6993  function getUsers() public view returns(address[]) {\r... */\n    tag_2:\n      callvalue\n        /* \"--CODEGEN--\":8:17   */\n      dup1\n        /* \"--CODEGEN--\":5:7   */\n      iszero\n      tag_30\n      jumpi\n        /* \"--CODEGEN--\":30:31   */\n      0x0\n        /* \"--CODEGEN--\":27:28   */\n      dup1\n        /* \"--CODEGEN--\":20:32   */\n      revert\n        /* \"--CODEGEN--\":5:7   */\n    tag_30:\n        /* \"contracts/ddddd.sol\":6908:6993  function getUsers() public view returns(address[]) {\r... */\n      pop\n      tag_31\n      jump(tag_32)\n    tag_31:\n      mload(0x40)\n      tag_33\n      swap2\n      swap1\n      jump(tag_34)\n    tag_33:\n      mload(0x40)\n      dup1\n      swap2\n      sub\n      swap1\n      return\n        /* \"contracts/ddddd.sol\":8346:8458  function getUserPermissionCounter() public view returns(uint256) {\r... */\n    tag_3:\n      callvalue\n        /* \"--CODEGEN--\":8:17   */\n      dup1\n        /* \"--CODEGEN--\":5:7   */\n      iszero\n      tag_35\n      jumpi\n        /* \"--CODEGEN--\":30:31   */\n      0x0\n        /* \"--CODEGEN--\":27:28   */\n      dup1\n        /* \"--CODEGEN--\":20:32   */\n      revert\n        /* \"--CODEGEN--\":5:7   */\n    tag_35:\n        /* \"contracts/ddddd.sol\":8346:8458  function getUserPermissionCounter() public view returns(uint256) {\r... */\n      pop\n      tag_36\n      jump(tag_37)\n    tag_36:\n      mload(0x40)\n      tag_38\n      swap2\n      swap1\n      jump(tag_39)\n    tag_38:\n      mload(0x40)\n      dup1\n      swap2\n      sub\n      swap1\n      return\n        /* \"contracts/ddddd.sol\":7104:7461  function searchUserformation(address _address) public view returns(string, string, string, string, string, string, address) {\r... */\n    tag_4:\n      callvalue\n        /* \"--CODEGEN--\":8:17   */\n      dup1\n        /* \"--CODEGEN--\":5:7   */\n      iszero\n      tag_40\n      jumpi\n        /* \"--CODEGEN--\":30:31   */\n      0x0\n        /* \"--CODEGEN--\":27:28   */\n      dup1\n        /* \"--CODEGEN--\":20:32   */\n      revert\n        /* \"--CODEGEN--\":5:7   */\n    tag_40:\n        /* \"contracts/ddddd.sol\":7104:7461  function searchUserformation(address _address) public view returns(string, string, string, string, string, string, address) {\r... */\n      pop\n      tag_41\n      0x4\n      dup1\n      calldatasize\n      sub\n      tag_42\n      swap2\n      swap1\n      dup2\n      add\n      swap1\n      jump(tag_43)\n    tag_42:\n      jump(tag_44)\n    tag_41:\n      mload(0x40)\n      tag_45\n      swap8\n      swap7\n      swap6\n      swap5\n      swap4\n      swap3\n      swap2\n      swap1\n      jump(tag_46)\n    tag_45:\n      mload(0x40)\n      dup1\n      swap2\n      sub\n      swap1\n      return\n        /* \"contracts/ddddd.sol\":1606:1634  uint256 public userCount = 0 */\n    tag_5:\n      callvalue\n        /* \"--CODEGEN--\":8:17   */\n      dup1\n        /* \"--CODEGEN--\":5:7   */\n      iszero\n      tag_47\n      jumpi\n        /* \"--CODEGEN--\":30:31   */\n      0x0\n        /* \"--CODEGEN--\":27:28   */\n      dup1\n        /* \"--CODEGEN--\":20:32   */\n      revert\n        /* \"--CODEGEN--\":5:7   */\n    tag_47:\n        /* \"contracts/ddddd.sol\":1606:1634  uint256 public userCount = 0 */\n      pop\n      tag_48\n      jump(tag_49)\n    tag_48:\n      mload(0x40)\n      tag_50\n      swap2\n      swap1\n      jump(tag_39)\n    tag_50:\n      mload(0x40)\n      dup1\n      swap2\n      sub\n      swap1\n      return\n        /* \"contracts/ddddd.sol\":1116:1143  address[] public doctorList */\n    tag_6:\n      callvalue\n        /* \"--CODEGEN--\":8:17   */\n      dup1\n        /* \"--CODEGEN--\":5:7   */\n      iszero\n      tag_51\n      jumpi\n        /* \"--CODEGEN--\":30:31   */\n      0x0\n        /* \"--CODEGEN--\":27:28   */\n      dup1\n        /* \"--CODEGEN--\":20:32   */\n      revert\n        /* \"--CODEGEN--\":5:7   */\n    tag_51:\n        /* \"contracts/ddddd.sol\":1116:1143  address[] public doctorList */\n      pop\n      tag_52\n      0x4\n      dup1\n      calldatasize\n      sub\n      tag_53\n      swap2\n      swap1\n      dup2\n      add\n      swap1\n      jump(tag_54)\n    tag_53:\n      jump(tag_55)\n    tag_52:\n      mload(0x40)\n      tag_56\n      swap2\n      swap1\n      jump(tag_57)\n    tag_56:\n      mload(0x40)\n      dup1\n      swap2\n      sub\n      swap1\n      return\n        /* \"contracts/ddddd.sol\":4545:5064  function editDoctor(address _doctor, string _uaeId, string _name, string _phone, string _gender, string _dob, string _qualification, string _major) public {\r... */\n    tag_7:\n      callvalue\n        /* \"--CODEGEN--\":8:17   */\n      dup1\n        /* \"--CODEGEN--\":5:7   */\n      iszero\n      tag_58\n      jumpi\n        /* \"--CODEGEN--\":30:31   */\n      0x0\n        /* \"--CODEGEN--\":27:28   */\n      dup1\n        /* \"--CODEGEN--\":20:32   */\n      revert\n        /* \"--CODEGEN--\":5:7   */\n    tag_58:\n        /* \"contracts/ddddd.sol\":4545:5064  function editDoctor(address _doctor, string _uaeId, string _name, string _phone, string _gender, string _dob, string _qualification, string _major) public {\r... */\n      pop\n      tag_59\n      0x4\n      dup1\n      calldatasize\n      sub\n      tag_60\n      swap2\n      swap1\n      dup2\n      add\n      swap1\n      jump(tag_61)\n    tag_60:\n      jump(tag_62)\n    tag_59:\n      stop\n        /* \"contracts/ddddd.sol\":3776:4537  function doctorRegistration(address _doctor, string _uaeId, string _name, string _phone, string _gender, string _dob, string _qualification, string _major) public {\r... */\n    tag_8:\n      callvalue\n        /* \"--CODEGEN--\":8:17   */\n      dup1\n        /* \"--CODEGEN--\":5:7   */\n      iszero\n      tag_63\n      jumpi\n        /* \"--CODEGEN--\":30:31   */\n      0x0\n        /* \"--CODEGEN--\":27:28   */\n      dup1\n        /* \"--CODEGEN--\":20:32   */\n      revert\n        /* \"--CODEGEN--\":5:7   */\n    tag_63:\n        /* \"contracts/ddddd.sol\":3776:4537  function doctorRegistration(address _doctor, string _uaeId, string _name, string _phone, string _gender, string _dob, string _qualification, string _major) public {\r... */\n      pop\n      tag_64\n      0x4\n      dup1\n      calldatasize\n      sub\n      tag_65\n      swap2\n      swap1\n      dup2\n      add\n      swap1\n      jump(tag_61)\n    tag_65:\n      jump(tag_66)\n    tag_64:\n      stop\n        /* \"contracts/ddddd.sol\":6051:6242  function givePermissionByUser(address _address) public returns(bool success) {\r... */\n    tag_9:\n      callvalue\n        /* \"--CODEGEN--\":8:17   */\n      dup1\n        /* \"--CODEGEN--\":5:7   */\n      iszero\n      tag_67\n      jumpi\n        /* \"--CODEGEN--\":30:31   */\n      0x0\n        /* \"--CODEGEN--\":27:28   */\n      dup1\n        /* \"--CODEGEN--\":20:32   */\n      revert\n        /* \"--CODEGEN--\":5:7   */\n    tag_67:\n        /* \"contracts/ddddd.sol\":6051:6242  function givePermissionByUser(address _address) public returns(bool success) {\r... */\n      pop\n      tag_68\n      0x4\n      dup1\n      calldatasize\n      sub\n      tag_69\n      swap2\n      swap1\n      dup2\n      add\n      swap1\n      jump(tag_43)\n    tag_69:\n      jump(tag_70)\n    tag_68:\n      mload(0x40)\n      tag_71\n      swap2\n      swap1\n      jump(tag_72)\n    tag_71:\n      mload(0x40)\n      dup1\n      swap2\n      sub\n      swap1\n      return\n        /* \"contracts/ddddd.sol\":6512:6670  function userRevokePermission(address _address) public returns(bool success) {\r... */\n    tag_10:\n      callvalue\n        /* \"--CODEGEN--\":8:17   */\n      dup1\n        /* \"--CODEGEN--\":5:7   */\n      iszero\n      tag_73\n      jumpi\n        /* \"--CODEGEN--\":30:31   */\n      0x0\n        /* \"--CODEGEN--\":27:28   */\n      dup1\n        /* \"--CODEGEN--\":20:32   */\n      revert\n        /* \"--CODEGEN--\":5:7   */\n    tag_73:\n        /* \"contracts/ddddd.sol\":6512:6670  function userRevokePermission(address _address) public returns(bool success) {\r... */\n      pop\n      tag_74\n      0x4\n      dup1\n      calldatasize\n      sub\n      tag_75\n      swap2\n      swap1\n      dup2\n      add\n      swap1\n      jump(tag_43)\n    tag_75:\n      jump(tag_76)\n    tag_74:\n      mload(0x40)\n      tag_77\n      swap2\n      swap1\n      jump(tag_72)\n    tag_77:\n      mload(0x40)\n      dup1\n      swap2\n      sub\n      swap1\n      return\n        /* \"contracts/ddddd.sol\":2026:3135  function userRegistration(address _user, string _uaeId, string _name, string _phone, string _gender, string _dob, string _addr, string _email, string _nomineeName, string _nomineeContact) public {\r... */\n    tag_11:\n      callvalue\n        /* \"--CODEGEN--\":8:17   */\n      dup1\n        /* \"--CODEGEN--\":5:7   */\n      iszero\n      tag_78\n      jumpi\n        /* \"--CODEGEN--\":30:31   */\n      0x0\n        /* \"--CODEGEN--\":27:28   */\n      dup1\n        /* \"--CODEGEN--\":20:32   */\n      revert\n        /* \"--CODEGEN--\":5:7   */\n    tag_78:\n        /* \"contracts/ddddd.sol\":2026:3135  function userRegistration(address _user, string _uaeId, string _name, string _phone, string _gender, string _dob, string _addr, string _email, string _nomineeName, string _nomineeContact) public {\r... */\n      pop\n      tag_79\n      0x4\n      dup1\n      calldatasize\n      sub\n      tag_80\n      swap2\n      swap1\n      dup2\n      add\n      swap1\n      jump(tag_81)\n    tag_80:\n      jump(tag_82)\n    tag_79:\n      stop\n        /* \"contracts/ddddd.sol\":3159:3768  function editUser(address _user, string _uaeId, string _name, string _phone, string _gender, string _dob, string _addr, string _email, string _nomineeName, string _nomineeContact) public {\r... */\n    tag_12:\n      callvalue\n        /* \"--CODEGEN--\":8:17   */\n      dup1\n        /* \"--CODEGEN--\":5:7   */\n      iszero\n      tag_83\n      jumpi\n        /* \"--CODEGEN--\":30:31   */\n      0x0\n        /* \"--CODEGEN--\":27:28   */\n      dup1\n        /* \"--CODEGEN--\":20:32   */\n      revert\n        /* \"--CODEGEN--\":5:7   */\n    tag_83:\n        /* \"contracts/ddddd.sol\":3159:3768  function editUser(address _user, string _uaeId, string _name, string _phone, string _gender, string _dob, string _addr, string _email, string _nomineeName, string _nomineeContact) public {\r... */\n      pop\n      tag_84\n      0x4\n      dup1\n      calldatasize\n      sub\n      tag_85\n      swap2\n      swap1\n      dup2\n      add\n      swap1\n      jump(tag_81)\n    tag_85:\n      jump(tag_86)\n    tag_84:\n      stop\n        /* \"contracts/ddddd.sol\":1641:1671  uint256 public doctorCount = 0 */\n    tag_13:\n      callvalue\n        /* \"--CODEGEN--\":8:17   */\n      dup1\n        /* \"--CODEGEN--\":5:7   */\n      iszero\n      tag_87\n      jumpi\n        /* \"--CODEGEN--\":30:31   */\n      0x0\n        /* \"--CODEGEN--\":27:28   */\n      dup1\n        /* \"--CODEGEN--\":20:32   */\n      revert\n        /* \"--CODEGEN--\":5:7   */\n    tag_87:\n        /* \"contracts/ddddd.sol\":1641:1671  uint256 public doctorCount = 0 */\n      pop\n      tag_88\n      jump(tag_89)\n    tag_88:\n      mload(0x40)\n      tag_90\n      swap2\n      swap1\n      jump(tag_39)\n    tag_90:\n      mload(0x40)\n      dup1\n      swap2\n      sub\n      swap1\n      return\n        /* \"contracts/ddddd.sol\":8240:8332  function getDoctorCount() public view returns(uint256) {\r... */\n    tag_14:\n      callvalue\n        /* \"--CODEGEN--\":8:17   */\n      dup1\n        /* \"--CODEGEN--\":5:7   */\n      iszero\n      tag_91\n      jumpi\n        /* \"--CODEGEN--\":30:31   */\n      0x0\n        /* \"--CODEGEN--\":27:28   */\n      dup1\n        /* \"--CODEGEN--\":20:32   */\n      revert\n        /* \"--CODEGEN--\":5:7   */\n    tag_91:\n        /* \"contracts/ddddd.sol\":8240:8332  function getDoctorCount() public view returns(uint256) {\r... */\n      pop\n      tag_92\n      jump(tag_93)\n    tag_92:\n      mload(0x40)\n      tag_94\n      swap2\n      swap1\n      jump(tag_39)\n    tag_94:\n      mload(0x40)\n      dup1\n      swap2\n      sub\n      swap1\n      return\n        /* \"contracts/ddddd.sol\":1057:1077  address public owner */\n    tag_15:\n      callvalue\n        /* \"--CODEGEN--\":8:17   */\n      dup1\n        /* \"--CODEGEN--\":5:7   */\n      iszero\n      tag_95\n      jumpi\n        /* \"--CODEGEN--\":30:31   */\n      0x0\n        /* \"--CODEGEN--\":27:28   */\n      dup1\n        /* \"--CODEGEN--\":20:32   */\n      revert\n        /* \"--CODEGEN--\":5:7   */\n    tag_95:\n        /* \"contracts/ddddd.sol\":1057:1077  address public owner */\n      pop\n      tag_96\n      jump(tag_97)\n    tag_96:\n      mload(0x40)\n      tag_98\n      swap2\n      swap1\n      jump(tag_57)\n    tag_98:\n      mload(0x40)\n      dup1\n      swap2\n      sub\n      swap1\n      return\n        /* \"contracts/ddddd.sol\":1906:2014  function ownerAddress() public returns(address) {\r... */\n    tag_16:\n      callvalue\n        /* \"--CODEGEN--\":8:17   */\n      dup1\n        /* \"--CODEGEN--\":5:7   */\n      iszero\n      tag_99\n      jumpi\n        /* \"--CODEGEN--\":30:31   */\n      0x0\n        /* \"--CODEGEN--\":27:28   */\n      dup1\n        /* \"--CODEGEN--\":20:32   */\n      revert\n        /* \"--CODEGEN--\":5:7   */\n    tag_99:\n        /* \"contracts/ddddd.sol\":1906:2014  function ownerAddress() public returns(address) {\r... */\n      pop\n      tag_100\n      jump(tag_101)\n    tag_100:\n      mload(0x40)\n      tag_102\n      swap2\n      swap1\n      jump(tag_57)\n    tag_102:\n      mload(0x40)\n      dup1\n      swap2\n      sub\n      swap1\n      return\n        /* \"contracts/ddddd.sol\":1771:1815  uint256 public vaccinationRecordsCounter = 0 */\n    tag_17:\n      callvalue\n        /* \"--CODEGEN--\":8:17   */\n      dup1\n        /* \"--CODEGEN--\":5:7   */\n      iszero\n      tag_103\n      jumpi\n        /* \"--CODEGEN--\":30:31   */\n      0x0\n        /* \"--CODEGEN--\":27:28   */\n      dup1\n        /* \"--CODEGEN--\":20:32   */\n      revert\n        /* \"--CODEGEN--\":5:7   */\n    tag_103:\n        /* \"contracts/ddddd.sol\":1771:1815  uint256 public vaccinationRecordsCounter = 0 */\n      pop\n      tag_104\n      jump(tag_105)\n    tag_104:\n      mload(0x40)\n      tag_106\n      swap2\n      swap1\n      jump(tag_39)\n    tag_106:\n      mload(0x40)\n      dup1\n      swap2\n      sub\n      swap1\n      return\n        /* \"contracts/ddddd.sol\":1678:1717  uint256 public MoHPermissionCounter = 0 */\n    tag_18:\n      callvalue\n        /* \"--CODEGEN--\":8:17   */\n      dup1\n        /* \"--CODEGEN--\":5:7   */\n      iszero\n      tag_107\n      jumpi\n        /* \"--CODEGEN--\":30:31   */\n      0x0\n        /* \"--CODEGEN--\":27:28   */\n      dup1\n        /* \"--CODEGEN--\":20:32   */\n      revert\n        /* \"--CODEGEN--\":5:7   */\n    tag_107:\n        /* \"contracts/ddddd.sol\":1678:1717  uint256 public MoHPermissionCounter = 0 */\n      pop\n      tag_108\n      jump(tag_109)\n    tag_108:\n      mload(0x40)\n      tag_110\n      swap2\n      swap1\n      jump(tag_39)\n    tag_110:\n      mload(0x40)\n      dup1\n      swap2\n      sub\n      swap1\n      return\n        /* \"contracts/ddddd.sol\":1084:1109  address[] public userList */\n    tag_19:\n      callvalue\n        /* \"--CODEGEN--\":8:17   */\n      dup1\n        /* \"--CODEGEN--\":5:7   */\n      iszero\n      tag_111\n      jumpi\n        /* \"--CODEGEN--\":30:31   */\n      0x0\n        /* \"--CODEGEN--\":27:28   */\n      dup1\n        /* \"--CODEGEN--\":20:32   */\n      revert\n        /* \"--CODEGEN--\":5:7   */\n    tag_111:\n        /* \"contracts/ddddd.sol\":1084:1109  address[] public userList */\n      pop\n      tag_112\n      0x4\n      dup1\n      calldatasize\n      sub\n      tag_113\n      swap2\n      swap1\n      dup2\n      add\n      swap1\n      jump(tag_54)\n    tag_113:\n      jump(tag_114)\n    tag_112:\n      mload(0x40)\n      tag_115\n      swap2\n      swap1\n      jump(tag_57)\n    tag_115:\n      mload(0x40)\n      dup1\n      swap2\n      sub\n      swap1\n      return\n        /* \"contracts/ddddd.sol\":7003:7092  function getDoctors() public view returns(address[]) {\r... */\n    tag_20:\n      callvalue\n        /* \"--CODEGEN--\":8:17   */\n      dup1\n        /* \"--CODEGEN--\":5:7   */\n      iszero\n      tag_116\n      jumpi\n        /* \"--CODEGEN--\":30:31   */\n      0x0\n        /* \"--CODEGEN--\":27:28   */\n      dup1\n        /* \"--CODEGEN--\":20:32   */\n      revert\n        /* \"--CODEGEN--\":5:7   */\n    tag_116:\n        /* \"contracts/ddddd.sol\":7003:7092  function getDoctors() public view returns(address[]) {\r... */\n      pop\n      tag_117\n      jump(tag_118)\n    tag_117:\n      mload(0x40)\n      tag_119\n      swap2\n      swap1\n      jump(tag_34)\n    tag_119:\n      mload(0x40)\n      dup1\n      swap2\n      sub\n      swap1\n      return\n        /* \"contracts/ddddd.sol\":8144:8232  function getUserCount() public view returns(uint256) {\r... */\n    tag_21:\n      callvalue\n        /* \"--CODEGEN--\":8:17   */\n      dup1\n        /* \"--CODEGEN--\":5:7   */\n      iszero\n      tag_120\n      jumpi\n        /* \"--CODEGEN--\":30:31   */\n      0x0\n        /* \"--CODEGEN--\":27:28   */\n      dup1\n        /* \"--CODEGEN--\":20:32   */\n      revert\n        /* \"--CODEGEN--\":5:7   */\n    tag_120:\n        /* \"contracts/ddddd.sol\":8144:8232  function getUserCount() public view returns(uint256) {\r... */\n      pop\n      tag_121\n      jump(tag_122)\n    tag_121:\n      mload(0x40)\n      tag_123\n      swap2\n      swap1\n      jump(tag_39)\n    tag_123:\n      mload(0x40)\n      dup1\n      swap2\n      sub\n      swap1\n      return\n        /* \"contracts/ddddd.sol\":1824:1893  address public mohAdress = 0xc50C6297f56b033633C30354A854b074749cd2dC */\n    tag_22:\n      callvalue\n        /* \"--CODEGEN--\":8:17   */\n      dup1\n        /* \"--CODEGEN--\":5:7   */\n      iszero\n      tag_124\n      jumpi\n        /* \"--CODEGEN--\":30:31   */\n      0x0\n        /* \"--CODEGEN--\":27:28   */\n      dup1\n        /* \"--CODEGEN--\":20:32   */\n      revert\n        /* \"--CODEGEN--\":5:7   */\n    tag_124:\n        /* \"contracts/ddddd.sol\":1824:1893  address public mohAdress = 0xc50C6297f56b033633C30354A854b074749cd2dC */\n      pop\n      tag_125\n      jump(tag_126)\n    tag_125:\n      mload(0x40)\n      tag_127\n      swap2\n      swap1\n      jump(tag_57)\n    tag_127:\n      mload(0x40)\n      dup1\n      swap2\n      sub\n      swap1\n      return\n        /* \"contracts/ddddd.sol\":6678:6898  function MoHRevokePermission(address _address1, address _address2) public returns(bool success) {\r... */\n    tag_23:\n      callvalue\n        /* \"--CODEGEN--\":8:17   */\n      dup1\n        /* \"--CODEGEN--\":5:7   */\n      iszero\n      tag_128\n      jumpi\n        /* \"--CODEGEN--\":30:31   */\n      0x0\n        /* \"--CODEGEN--\":27:28   */\n      dup1\n        /* \"--CODEGEN--\":20:32   */\n      revert\n        /* \"--CODEGEN--\":5:7   */\n    tag_128:\n        /* \"contracts/ddddd.sol\":6678:6898  function MoHRevokePermission(address _address1, address _address2) public returns(bool success) {\r... */\n      pop\n      tag_129\n      0x4\n      dup1\n      calldatasize\n      sub\n      tag_130\n      swap2\n      swap1\n      dup2\n      add\n      swap1\n      jump(tag_131)\n    tag_130:\n      jump(tag_132)\n    tag_129:\n      mload(0x40)\n      tag_133\n      swap2\n      swap1\n      jump(tag_72)\n    tag_133:\n      mload(0x40)\n      dup1\n      swap2\n      sub\n      swap1\n      return\n        /* \"contracts/ddddd.sol\":1724:1764  uint256 public userPermissionCounter = 0 */\n    tag_24:\n      callvalue\n        /* \"--CODEGEN--\":8:17   */\n      dup1\n        /* \"--CODEGEN--\":5:7   */\n      iszero\n      tag_134\n      jumpi\n        /* \"--CODEGEN--\":30:31   */\n      0x0\n        /* \"--CODEGEN--\":27:28   */\n      dup1\n        /* \"--CODEGEN--\":20:32   */\n      revert\n        /* \"--CODEGEN--\":5:7   */\n    tag_134:\n        /* \"contracts/ddddd.sol\":1724:1764  uint256 public userPermissionCounter = 0 */\n      pop\n      tag_135\n      jump(tag_136)\n    tag_135:\n      mload(0x40)\n      tag_137\n      swap2\n      swap1\n      jump(tag_39)\n    tag_137:\n      mload(0x40)\n      dup1\n      swap2\n      sub\n      swap1\n      return\n        /* \"contracts/ddddd.sol\":7782:8128  function searchDoctor(address _address) public view returns(string, string, string, string, string, string, string) {\r... */\n    tag_25:\n      callvalue\n        /* \"--CODEGEN--\":8:17   */\n      dup1\n        /* \"--CODEGEN--\":5:7   */\n      iszero\n      tag_138\n      jumpi\n        /* \"--CODEGEN--\":30:31   */\n      0x0\n        /* \"--CODEGEN--\":27:28   */\n      dup1\n        /* \"--CODEGEN--\":20:32   */\n      revert\n        /* \"--CODEGEN--\":5:7   */\n    tag_138:\n        /* \"contracts/ddddd.sol\":7782:8128  function searchDoctor(address _address) public view returns(string, string, string, string, string, string, string) {\r... */\n      pop\n      tag_139\n      0x4\n      dup1\n      calldatasize\n      sub\n      tag_140\n      swap2\n      swap1\n      dup2\n      add\n      swap1\n      jump(tag_43)\n    tag_140:\n      jump(tag_141)\n    tag_139:\n      mload(0x40)\n      tag_142\n      swap8\n      swap7\n      swap6\n      swap5\n      swap4\n      swap3\n      swap2\n      swap1\n      jump(tag_143)\n    tag_142:\n      mload(0x40)\n      dup1\n      swap2\n      sub\n      swap1\n      return\n        /* \"contracts/ddddd.sol\":6250:6502  function givePermissionByMoH(address _address1, address _address2) public returns(bool success) {\r... */\n    tag_26:\n      callvalue\n        /* \"--CODEGEN--\":8:17   */\n      dup1\n        /* \"--CODEGEN--\":5:7   */\n      iszero\n      tag_144\n      jumpi\n        /* \"--CODEGEN--\":30:31   */\n      0x0\n        /* \"--CODEGEN--\":27:28   */\n      dup1\n        /* \"--CODEGEN--\":20:32   */\n      revert\n        /* \"--CODEGEN--\":5:7   */\n    tag_144:\n        /* \"contracts/ddddd.sol\":6250:6502  function givePermissionByMoH(address _address1, address _address2) public returns(bool success) {\r... */\n      pop\n      tag_145\n      0x4\n      dup1\n      calldatasize\n      sub\n      tag_146\n      swap2\n      swap1\n      dup2\n      add\n      swap1\n      jump(tag_131)\n    tag_146:\n      jump(tag_147)\n    tag_145:\n      mload(0x40)\n      tag_148\n      swap2\n      swap1\n      jump(tag_72)\n    tag_148:\n      mload(0x40)\n      dup1\n      swap2\n      sub\n      swap1\n      return\n        /* \"contracts/ddddd.sol\":8466:8576  function getMoHPermissionCounter() public view returns(uint256) {\r... */\n    tag_27:\n      callvalue\n        /* \"--CODEGEN--\":8:17   */\n      dup1\n        /* \"--CODEGEN--\":5:7   */\n      iszero\n      tag_149\n      jumpi\n        /* \"--CODEGEN--\":30:31   */\n      0x0\n        /* \"--CODEGEN--\":27:28   */\n      dup1\n        /* \"--CODEGEN--\":20:32   */\n      revert\n        /* \"--CODEGEN--\":5:7   */\n    tag_149:\n        /* \"contracts/ddddd.sol\":8466:8576  function getMoHPermissionCounter() public view returns(uint256) {\r... */\n      pop\n      tag_150\n      jump(tag_151)\n    tag_150:\n      mload(0x40)\n      tag_152\n      swap2\n      swap1\n      jump(tag_39)\n    tag_152:\n      mload(0x40)\n      dup1\n      swap2\n      sub\n      swap1\n      return\n        /* \"contracts/ddddd.sol\":5072:6041  function createVaccineRecord(address _address1, address _doctor, string _vaccine, string _description, string _typeOfVaccine, uint _creationDate, address _userEadderss, address _doctorEaddress) public returns(bool success) {\r... */\n    tag_28:\n      callvalue\n        /* \"--CODEGEN--\":8:17   */\n      dup1\n        /* \"--CODEGEN--\":5:7   */\n      iszero\n      tag_153\n      jumpi\n        /* \"--CODEGEN--\":30:31   */\n      0x0\n        /* \"--CODEGEN--\":27:28   */\n      dup1\n        /* \"--CODEGEN--\":20:32   */\n      revert\n        /* \"--CODEGEN--\":5:7   */\n    tag_153:\n        /* \"contracts/ddddd.sol\":5072:6041  function createVaccineRecord(address _address1, address _doctor, string _vaccine, string _description, string _typeOfVaccine, uint _creationDate, address _userEadderss, address _doctorEaddress) public returns(bool success) {\r... */\n      pop\n      tag_154\n      0x4\n      dup1\n      calldatasize\n      sub\n      tag_155\n      swap2\n      swap1\n      dup2\n      add\n      swap1\n      jump(tag_156)\n    tag_155:\n      jump(tag_157)\n    tag_154:\n      mload(0x40)\n      tag_158\n      swap2\n      swap1\n      jump(tag_72)\n    tag_158:\n      mload(0x40)\n      dup1\n      swap2\n      sub\n      swap1\n      return\n        /* \"contracts/ddddd.sol\":1150:1182  address[] public vaccinationList */\n    tag_29:\n      callvalue\n        /* \"--CODEGEN--\":8:17   */\n      dup1\n        /* \"--CODEGEN--\":5:7   */\n      iszero\n      tag_159\n      jumpi\n        /* \"--CODEGEN--\":30:31   */\n      0x0\n        /* \"--CODEGEN--\":27:28   */\n      dup1\n        /* \"--CODEGEN--\":20:32   */\n      revert\n        /* \"--CODEGEN--\":5:7   */\n    tag_159:\n        /* \"contracts/ddddd.sol\":1150:1182  address[] public vaccinationList */\n      pop\n      tag_160\n      0x4\n      dup1\n      calldatasize\n      sub\n      tag_161\n      swap2\n      swap1\n      dup2\n      add\n      swap1\n      jump(tag_54)\n    tag_161:\n      jump(tag_162)\n    tag_160:\n      mload(0x40)\n      tag_163\n      swap2\n      swap1\n      jump(tag_57)\n    tag_163:\n      mload(0x40)\n      dup1\n      swap2\n      sub\n      swap1\n      return\n        /* \"contracts/ddddd.sol\":6908:6993  function getUsers() public view returns(address[]) {\r... */\n    tag_32:\n        /* \"contracts/ddddd.sol\":6948:6957  address[] */\n      0x60\n        /* \"contracts/ddddd.sol\":6977:6985  userList */\n      0x1\n        /* \"contracts/ddddd.sol\":6970:6985  return userList */\n      dup1\n      sload\n      dup1\n      0x20\n      mul\n      0x20\n      add\n      mload(0x40)\n      swap1\n      dup2\n      add\n      0x40\n      mstore\n      dup1\n      swap3\n      swap2\n      swap1\n      dup2\n      dup2\n      mstore\n      0x20\n      add\n      dup3\n      dup1\n      sload\n      dup1\n      iszero\n      tag_165\n      jumpi\n      0x20\n      mul\n      dup3\n      add\n      swap2\n      swap1\n      0x0\n      mstore\n      keccak256(0x0, 0x20)\n      swap1\n    tag_166:\n      dup2\n      0x0\n      swap1\n      sload\n      swap1\n      0x100\n      exp\n      swap1\n      div\n      0xffffffffffffffffffffffffffffffffffffffff\n      and\n      0xffffffffffffffffffffffffffffffffffffffff\n      and\n      dup2\n      mstore\n      0x20\n      add\n      swap1\n      0x1\n      add\n      swap1\n      dup1\n      dup4\n      gt\n      tag_166\n      jumpi\n    tag_165:\n      pop\n      pop\n      pop\n      pop\n      pop\n      swap1\n      pop\n        /* \"contracts/ddddd.sol\":6908:6993  function getUsers() public view returns(address[]) {\r... */\n      swap1\n      jump\t// out\n        /* \"contracts/ddddd.sol\":8346:8458  function getUserPermissionCounter() public view returns(uint256) {\r... */\n    tag_37:\n        /* \"contracts/ddddd.sol\":8402:8409  uint256 */\n      0x0\n        /* \"contracts/ddddd.sol\":8429:8450  userPermissionCounter */\n      sload(0xe)\n        /* \"contracts/ddddd.sol\":8422:8450  return userPermissionCounter */\n      swap1\n      pop\n        /* \"contracts/ddddd.sol\":8346:8458  function getUserPermissionCounter() public view returns(uint256) {\r... */\n      swap1\n      jump\t// out\n        /* \"contracts/ddddd.sol\":7104:7461  function searchUserformation(address _address) public view returns(string, string, string, string, string, string, address) {\r... */\n    tag_44:\n        /* \"contracts/ddddd.sol\":7171:7177  string */\n      0x60\n        /* \"contracts/ddddd.sol\":7179:7185  string */\n      dup1\n        /* \"contracts/ddddd.sol\":7187:7193  string */\n      0x60\n        /* \"contracts/ddddd.sol\":7195:7201  string */\n      dup1\n        /* \"contracts/ddddd.sol\":7203:7209  string */\n      0x60\n        /* \"contracts/ddddd.sol\":7211:7217  string */\n      dup1\n        /* \"contracts/ddddd.sol\":7219:7226  address */\n      0x0\n        /* \"contracts/ddddd.sol\":7291:7296  var u */\n      dup1\n        /* \"contracts/ddddd.sol\":7247:7257  isApproved */\n      0x7\n        /* \"contracts/ddddd.sol\":7247:7267  isApproved[_address] */\n      0x0\n        /* \"contracts/ddddd.sol\":7258:7266  _address */\n      dup11\n        /* \"contracts/ddddd.sol\":7247:7267  isApproved[_address] */\n      0xffffffffffffffffffffffffffffffffffffffff\n      and\n      0xffffffffffffffffffffffffffffffffffffffff\n      and\n      dup2\n      mstore\n      0x20\n      add\n      swap1\n      dup2\n      mstore\n      0x20\n      add\n      0x0\n      keccak256\n        /* \"contracts/ddddd.sol\":7247:7279  isApproved[_address][msg.sender] */\n      0x0\n        /* \"contracts/ddddd.sol\":7268:7278  msg.sender */\n      caller\n        /* \"contracts/ddddd.sol\":7247:7279  isApproved[_address][msg.sender] */\n      0xffffffffffffffffffffffffffffffffffffffff\n      and\n      0xffffffffffffffffffffffffffffffffffffffff\n      and\n      dup2\n      mstore\n      0x20\n      add\n      swap1\n      dup2\n      mstore\n      0x20\n      add\n      0x0\n      keccak256\n      0x0\n      swap1\n      sload\n      swap1\n      0x100\n      exp\n      swap1\n      div\n      0xff\n      and\n        /* \"contracts/ddddd.sol\":7239:7280  require(isApproved[_address][msg.sender]) */\n      iszero\n      iszero\n      tag_169\n      jumpi\n      0x0\n      dup1\n      revert\n    tag_169:\n        /* \"contracts/ddddd.sol\":7299:7303  user */\n      0x4\n        /* \"contracts/ddddd.sol\":7299:7313  user[_address] */\n      0x0\n        /* \"contracts/ddddd.sol\":7304:7312  _address */\n      dup11\n        /* \"contracts/ddddd.sol\":7299:7313  user[_address] */\n      0xffffffffffffffffffffffffffffffffffffffff\n      and\n      0xffffffffffffffffffffffffffffffffffffffff\n      and\n      dup2\n      mstore\n      0x20\n      add\n      swap1\n      dup2\n      mstore\n      0x20\n      add\n      0x0\n      keccak256\n        /* \"contracts/ddddd.sol\":7291:7313  var u = user[_address] */\n      swap1\n      pop\n        /* \"contracts/ddddd.sol\":7332:7333  u */\n      dup1\n        /* \"contracts/ddddd.sol\":7332:7339  u.uaeId */\n      0x0\n      add\n        /* \"contracts/ddddd.sol\":7341:7342  u */\n      dup2\n        /* \"contracts/ddddd.sol\":7341:7347  u.name */\n      0x1\n      add\n        /* \"contracts/ddddd.sol\":7349:7350  u */\n      dup3\n        /* \"contracts/ddddd.sol\":7349:7356  u.phone */\n      0x2\n      add\n        /* \"contracts/ddddd.sol\":7358:7359  u */\n      dup4\n        /* \"contracts/ddddd.sol\":7358:7366  u.gender */\n      0x3\n      add\n        /* \"contracts/ddddd.sol\":7368:7369  u */\n      dup5\n        /* \"contracts/ddddd.sol\":7368:7373  u.dob */\n      0x4\n      add\n        /* \"contracts/ddddd.sol\":7375:7376  u */\n      dup6\n        /* \"contracts/ddddd.sol\":7375:7381  u.addr */\n      0x5\n      add\n        /* \"contracts/ddddd.sol\":7383:7384  u */\n      dup7\n        /* \"contracts/ddddd.sol\":7383:7393  u.eAddress */\n      0x9\n      add\n      0x0\n      swap1\n      sload\n      swap1\n      0x100\n      exp\n      swap1\n      div\n      0xffffffffffffffffffffffffffffffffffffffff\n      and\n        /* \"contracts/ddddd.sol\":7324:7394  return (u.uaeId, u.name, u.phone, u.gender, u.dob, u.addr, u.eAddress) */\n      dup7\n      dup1\n      sload\n      0x1\n      dup2\n      0x1\n      and\n      iszero\n      0x100\n      mul\n      sub\n      and\n      0x2\n      swap1\n      div\n      dup1\n      0x1f\n      add\n      0x20\n      dup1\n      swap2\n      div\n      mul\n      0x20\n      add\n      mload(0x40)\n      swap1\n      dup2\n      add\n      0x40\n      mstore\n      dup1\n      swap3\n      swap2\n      swap1\n      dup2\n      dup2\n      mstore\n      0x20\n      add\n      dup3\n      dup1\n      sload\n      0x1\n      dup2\n      0x1\n      and\n      iszero\n      0x100\n      mul\n      sub\n      and\n      0x2\n      swap1\n      div\n      dup1\n      iszero\n      tag_170\n      jumpi\n      dup1\n      0x1f\n      lt\n      tag_171\n      jumpi\n      0x100\n      dup1\n      dup4\n      sload\n      div\n      mul\n      dup4\n      mstore\n      swap2\n      0x20\n      add\n      swap2\n      jump(tag_170)\n    tag_171:\n      dup3\n      add\n      swap2\n      swap1\n      0x0\n      mstore\n      keccak256(0x0, 0x20)\n      swap1\n    tag_172:\n      dup2\n      sload\n      dup2\n      mstore\n      swap1\n      0x1\n      add\n      swap1\n      0x20\n      add\n      dup1\n      dup4\n      gt\n      tag_172\n      jumpi\n      dup3\n      swap1\n      sub\n      0x1f\n      and\n      dup3\n      add\n      swap2\n    tag_170:\n      pop\n      pop\n      pop\n      pop\n      pop\n      swap7\n      pop\n      dup6\n      dup1\n      sload\n      0x1\n      dup2\n      0x1\n      and\n      iszero\n      0x100\n      mul\n      sub\n      and\n      0x2\n      swap1\n      div\n      dup1\n      0x1f\n      add\n      0x20\n      dup1\n      swap2\n      div\n      mul\n      0x20\n      add\n      mload(0x40)\n      swap1\n      dup2\n      add\n      0x40\n      mstore\n      dup1\n      swap3\n      swap2\n      swap1\n      dup2\n      dup2\n      mstore\n      0x20\n      add\n      dup3\n      dup1\n      sload\n      0x1\n      dup2\n      0x1\n      and\n      iszero\n      0x100\n      mul\n      sub\n      and\n      0x2\n      swap1\n      div\n      dup1\n      iszero\n      tag_173\n      jumpi\n      dup1\n      0x1f\n      lt\n      tag_174\n      jumpi\n      0x100\n      dup1\n      dup4\n      sload\n      div\n      mul\n      dup4\n      mstore\n      swap2\n      0x20\n      add\n      swap2\n      jump(tag_173)\n    tag_174:\n      dup3\n      add\n      swap2\n      swap1\n      0x0\n      mstore\n      keccak256(0x0, 0x20)\n      swap1\n    tag_175:\n      dup2\n      sload\n      dup2\n      mstore\n      swap1\n      0x1\n      add\n      swap1\n      0x20\n      add\n      dup1\n      dup4\n      gt\n      tag_175\n      jumpi\n      dup3\n      swap1\n      sub\n      0x1f\n      and\n      dup3\n      add\n      swap2\n    tag_173:\n      pop\n      pop\n      pop\n      pop\n      pop\n      swap6\n      pop\n      dup5\n      dup1\n      sload\n      0x1\n      dup2\n      0x1\n      and\n      iszero\n      0x100\n      mul\n      sub\n      and\n      0x2\n      swap1\n      div\n      dup1\n      0x1f\n      add\n      0x20\n      dup1\n      swap2\n      div\n      mul\n      0x20\n      add\n      mload(0x40)\n      swap1\n      dup2\n      add\n      0x40\n      mstore\n      dup1\n      swap3\n      swap2\n      swap1\n      dup2\n      dup2\n      mstore\n      0x20\n      add\n      dup3\n      dup1\n      sload\n      0x1\n      dup2\n      0x1\n      and\n      iszero\n      0x100\n      mul\n      sub\n      and\n      0x2\n      swap1\n      div\n      dup1\n      iszero\n      tag_176\n      jumpi\n      dup1\n      0x1f\n      lt\n      tag_177\n      jumpi\n      0x100\n      dup1\n      dup4\n      sload\n      div\n      mul\n      dup4\n      mstore\n      swap2\n      0x20\n      add\n      swap2\n      jump(tag_176)\n    tag_177:\n      dup3\n      add\n      swap2\n      swap1\n      0x0\n      mstore\n      keccak256(0x0, 0x20)\n      swap1\n    tag_178:\n      dup2\n      sload\n      dup2\n      mstore\n      swap1\n      0x1\n      add\n      swap1\n      0x20\n      add\n      dup1\n      dup4\n      gt\n      tag_178\n      jumpi\n      dup3\n      swap1\n      sub\n      0x1f\n      and\n      dup3\n      add\n      swap2\n    tag_176:\n      pop\n      pop\n      pop\n      pop\n      pop\n      swap5\n      pop\n      dup4\n      dup1\n      sload\n      0x1\n      dup2\n      0x1\n      and\n      iszero\n      0x100\n      mul\n      sub\n      and\n      0x2\n      swap1\n      div\n      dup1\n      0x1f\n      add\n      0x20\n      dup1\n      swap2\n      div\n      mul\n      0x20\n      add\n      mload(0x40)\n      swap1\n      dup2\n      add\n      0x40\n      mstore\n      dup1\n      swap3\n      swap2\n      swap1\n      dup2\n      dup2\n      mstore\n      0x20\n      add\n      dup3\n      dup1\n      sload\n      0x1\n      dup2\n      0x1\n      and\n      iszero\n      0x100\n      mul\n      sub\n      and\n      0x2\n      swap1\n      div\n      dup1\n      iszero\n      tag_179\n      jumpi\n      dup1\n      0x1f\n      lt\n      tag_180\n      jumpi\n      0x100\n      dup1\n      dup4\n      sload\n      div\n      mul\n      dup4\n      mstore\n      swap2\n      0x20\n      add\n      swap2\n      jump(tag_179)\n    tag_180:\n      dup3\n      add\n      swap2\n      swap1\n      0x0\n      mstore\n      keccak256(0x0, 0x20)\n      swap1\n    tag_181:\n      dup2\n      sload\n      dup2\n      mstore\n      swap1\n      0x1\n      add\n      swap1\n      0x20\n      add\n      dup1\n      dup4\n      gt\n      tag_181\n      jumpi\n      dup3\n      swap1\n      sub\n      0x1f\n      and\n      dup3\n      add\n      swap2\n    tag_179:\n      pop\n      pop\n      pop\n      pop\n      pop\n      swap4\n      pop\n      dup3\n      dup1\n      sload\n      0x1\n      dup2\n      0x1\n      and\n      iszero\n      0x100\n      mul\n      sub\n      and\n      0x2\n      swap1\n      div\n      dup1\n      0x1f\n      add\n      0x20\n      dup1\n      swap2\n      div\n      mul\n      0x20\n      add\n      mload(0x40)\n      swap1\n      dup2\n      add\n      0x40\n      mstore\n      dup1\n      swap3\n      swap2\n      swap1\n      dup2\n      dup2\n      mstore\n      0x20\n      add\n      dup3\n      dup1\n      sload\n      0x1\n      dup2\n      0x1\n      and\n      iszero\n      0x100\n      mul\n      sub\n      and\n      0x2\n      swap1\n      div\n      dup1\n      iszero\n      tag_182\n      jumpi\n      dup1\n      0x1f\n      lt\n      tag_183\n      jumpi\n      0x100\n      dup1\n      dup4\n      sload\n      div\n      mul\n      dup4\n      mstore\n      swap2\n      0x20\n      add\n      swap2\n      jump(tag_182)\n    tag_183:\n      dup3\n      add\n      swap2\n      swap1\n      0x0\n      mstore\n      keccak256(0x0, 0x20)\n      swap1\n    tag_184:\n      dup2\n      sload\n      dup2\n      mstore\n      swap1\n      0x1\n      add\n      swap1\n      0x20\n      add\n      dup1\n      dup4\n      gt\n      tag_184\n      jumpi\n      dup3\n      swap1\n      sub\n      0x1f\n      and\n      dup3\n      add\n      swap2\n    tag_182:\n      pop\n      pop\n      pop\n      pop\n      pop\n      swap3\n      pop\n      dup2\n      dup1\n      sload\n      0x1\n      dup2\n      0x1\n      and\n      iszero\n      0x100\n      mul\n      sub\n      and\n      0x2\n      swap1\n      div\n      dup1\n      0x1f\n      add\n      0x20\n      dup1\n      swap2\n      div\n      mul\n      0x20\n      add\n      mload(0x40)\n      swap1\n      dup2\n      add\n      0x40\n      mstore\n      dup1\n      swap3\n      swap2\n      swap1\n      dup2\n      dup2\n      mstore\n      0x20\n      add\n      dup3\n      dup1\n      sload\n      0x1\n      dup2\n      0x1\n      and\n      iszero\n      0x100\n      mul\n      sub\n      and\n      0x2\n      swap1\n      div\n      dup1\n      iszero\n      tag_185\n      jumpi\n      dup1\n      0x1f\n      lt\n      tag_186\n      jumpi\n      0x100\n      dup1\n      dup4\n      sload\n      div\n      mul\n      dup4\n      mstore\n      swap2\n      0x20\n      add\n      swap2\n      jump(tag_185)\n    tag_186:\n      dup3\n      add\n      swap2\n      swap1\n      0x0\n      mstore\n      keccak256(0x0, 0x20)\n      swap1\n    tag_187:\n      dup2\n      sload\n      dup2\n      mstore\n      swap1\n      0x1\n      add\n      swap1\n      0x20\n      add\n      dup1\n      dup4\n      gt\n      tag_187\n      jumpi\n      dup3\n      swap1\n      sub\n      0x1f\n      and\n      dup3\n      add\n      swap2\n    tag_185:\n      pop\n      pop\n      pop\n      pop\n      pop\n      swap2\n      pop\n      swap8\n      pop\n      swap8\n      pop\n      swap8\n      pop\n      swap8\n      pop\n      swap8\n      pop\n      swap8\n      pop\n      swap8\n      pop\n        /* \"contracts/ddddd.sol\":7104:7461  function searchUserformation(address _address) public view returns(string, string, string, string, string, string, address) {\r... */\n      pop\n      swap2\n      swap4\n      swap6\n      swap8\n      swap1\n      swap3\n      swap5\n      swap7\n      pop\n      jump\t// out\n        /* \"contracts/ddddd.sol\":1606:1634  uint256 public userCount = 0 */\n    tag_49:\n      sload(0xb)\n      dup2\n      jump\t// out\n        /* \"contracts/ddddd.sol\":1116:1143  address[] public doctorList */\n    tag_55:\n      0x2\n      dup2\n      dup2\n      sload\n      dup2\n      lt\n      iszero\n      iszero\n      tag_188\n      jumpi\n      invalid\n    tag_188:\n      swap1\n      0x0\n      mstore\n      keccak256(0x0, 0x20)\n      add\n      0x0\n      swap2\n      pop\n      sload\n      swap1\n      0x100\n      exp\n      swap1\n      div\n      0xffffffffffffffffffffffffffffffffffffffff\n      and\n      dup2\n      jump\t// out\n        /* \"contracts/ddddd.sol\":4545:5064  function editDoctor(address _doctor, string _uaeId, string _name, string _phone, string _gender, string _dob, string _qualification, string _major) public {\r... */\n    tag_62:\n        /* \"contracts/ddddd.sol\":4791:4796  var d */\n      0x0\n        /* \"contracts/ddddd.sol\":4733:4742  mohAdress */\n      0x10\n      0x0\n      swap1\n      sload\n      swap1\n      0x100\n      exp\n      swap1\n      div\n      0xffffffffffffffffffffffffffffffffffffffff\n      and\n        /* \"contracts/ddddd.sol\":4719:4742  msg.sender == mohAdress */\n      0xffffffffffffffffffffffffffffffffffffffff\n      and\n        /* \"contracts/ddddd.sol\":4719:4729  msg.sender */\n      caller\n        /* \"contracts/ddddd.sol\":4719:4742  msg.sender == mohAdress */\n      0xffffffffffffffffffffffffffffffffffffffff\n      and\n      eq\n        /* \"contracts/ddddd.sol\":4711:4743  require(msg.sender == mohAdress) */\n      iszero\n      iszero\n      tag_191\n      jumpi\n      0x0\n      dup1\n      revert\n    tag_191:\n        /* \"contracts/ddddd.sol\":4762:4770  isDoctor */\n      0x9\n        /* \"contracts/ddddd.sol\":4762:4779  isDoctor[_doctor] */\n      0x0\n        /* \"contracts/ddddd.sol\":4771:4778  _doctor */\n      dup11\n        /* \"contracts/ddddd.sol\":4762:4779  isDoctor[_doctor] */\n      0xffffffffffffffffffffffffffffffffffffffff\n      and\n      0xffffffffffffffffffffffffffffffffffffffff\n      and\n      dup2\n      mstore\n      0x20\n      add\n      swap1\n      dup2\n      mstore\n      0x20\n      add\n      0x0\n      keccak256\n      0x0\n      swap1\n      sload\n      swap1\n      0x100\n      exp\n      swap1\n      div\n      0xff\n      and\n        /* \"contracts/ddddd.sol\":4754:4780  require(isDoctor[_doctor]) */\n      iszero\n      iszero\n      tag_192\n      jumpi\n      0x0\n      dup1\n      revert\n    tag_192:\n        /* \"contracts/ddddd.sol\":4799:4805  doctor */\n      0x5\n        /* \"contracts/ddddd.sol\":4799:4814  doctor[_doctor] */\n      0x0\n        /* \"contracts/ddddd.sol\":4806:4813  _doctor */\n      dup11\n        /* \"contracts/ddddd.sol\":4799:4814  doctor[_doctor] */\n      0xffffffffffffffffffffffffffffffffffffffff\n      and\n      0xffffffffffffffffffffffffffffffffffffffff\n      and\n      dup2\n      mstore\n      0x20\n      add\n      swap1\n      dup2\n      mstore\n      0x20\n      add\n      0x0\n      keccak256\n        /* \"contracts/ddddd.sol\":4791:4814  var d = doctor[_doctor] */\n      swap1\n      pop\n        /* \"contracts/ddddd.sol\":4845:4851  _uaeId */\n      dup8\n        /* \"contracts/ddddd.sol\":4835:4836  d */\n      dup2\n        /* \"contracts/ddddd.sol\":4835:4842  d.uaeId */\n      0x0\n      add\n        /* \"contracts/ddddd.sol\":4835:4851  d.uaeId = _uaeId */\n      swap1\n      dup1\n      mload\n      swap1\n      0x20\n      add\n      swap1\n      tag_193\n      swap3\n      swap2\n      swap1\n      jump\t// in(tag_194)\n    tag_193:\n      pop\n        /* \"contracts/ddddd.sol\":4871:4876  _name */\n      dup7\n        /* \"contracts/ddddd.sol\":4862:4863  d */\n      dup2\n        /* \"contracts/ddddd.sol\":4862:4868  d.name */\n      0x1\n      add\n        /* \"contracts/ddddd.sol\":4862:4876  d.name = _name */\n      swap1\n      dup1\n      mload\n      swap1\n      0x20\n      add\n      swap1\n      tag_195\n      swap3\n      swap2\n      swap1\n      jump\t// in(tag_194)\n    tag_195:\n      pop\n        /* \"contracts/ddddd.sol\":4897:4903  _phone */\n      dup6\n        /* \"contracts/ddddd.sol\":4887:4888  d */\n      dup2\n        /* \"contracts/ddddd.sol\":4887:4894  d.phone */\n      0x2\n      add\n        /* \"contracts/ddddd.sol\":4887:4903  d.phone = _phone */\n      swap1\n      dup1\n      mload\n      swap1\n      0x20\n      add\n      swap1\n      tag_196\n      swap3\n      swap2\n      swap1\n      jump\t// in(tag_194)\n    tag_196:\n      pop\n        /* \"contracts/ddddd.sol\":4925:4932  _gender */\n      dup5\n        /* \"contracts/ddddd.sol\":4914:4915  d */\n      dup2\n        /* \"contracts/ddddd.sol\":4914:4922  d.gender */\n      0x3\n      add\n        /* \"contracts/ddddd.sol\":4914:4932  d.gender = _gender */\n      swap1\n      dup1\n      mload\n      swap1\n      0x20\n      add\n      swap1\n      tag_197\n      swap3\n      swap2\n      swap1\n      jump\t// in(tag_194)\n    tag_197:\n      pop\n        /* \"contracts/ddddd.sol\":4951:4955  _dob */\n      dup4\n        /* \"contracts/ddddd.sol\":4943:4944  d */\n      dup2\n        /* \"contracts/ddddd.sol\":4943:4948  d.dob */\n      0x4\n      add\n        /* \"contracts/ddddd.sol\":4943:4955  d.dob = _dob */\n      swap1\n      dup1\n      mload\n      swap1\n      0x20\n      add\n      swap1\n      tag_198\n      swap3\n      swap2\n      swap1\n      jump\t// in(tag_194)\n    tag_198:\n      pop\n        /* \"contracts/ddddd.sol\":4984:4998  _qualification */\n      dup3\n        /* \"contracts/ddddd.sol\":4966:4967  d */\n      dup2\n        /* \"contracts/ddddd.sol\":4966:4981  d.qualification */\n      0x7\n      add\n        /* \"contracts/ddddd.sol\":4966:4998  d.qualification = _qualification */\n      swap1\n      dup1\n      mload\n      swap1\n      0x20\n      add\n      swap1\n      tag_199\n      swap3\n      swap2\n      swap1\n      jump\t// in(tag_194)\n    tag_199:\n      pop\n        /* \"contracts/ddddd.sol\":5019:5025  _major */\n      dup2\n        /* \"contracts/ddddd.sol\":5009:5010  d */\n      dup2\n        /* \"contracts/ddddd.sol\":5009:5016  d.major */\n      0x8\n      add\n        /* \"contracts/ddddd.sol\":5009:5025  d.major = _major */\n      swap1\n      dup1\n      mload\n      swap1\n      0x20\n      add\n      swap1\n      tag_200\n      swap3\n      swap2\n      swap1\n      jump\t// in(tag_194)\n    tag_200:\n      pop\n        /* \"contracts/ddddd.sol\":5049:5056  _doctor */\n      dup9\n        /* \"contracts/ddddd.sol\":5036:5037  d */\n      dup2\n        /* \"contracts/ddddd.sol\":5036:5046  d.eAddress */\n      0x9\n      add\n      0x0\n        /* \"contracts/ddddd.sol\":5036:5056  d.eAddress = _doctor */\n      0x100\n      exp\n      dup2\n      sload\n      dup2\n      0xffffffffffffffffffffffffffffffffffffffff\n      mul\n      not\n      and\n      swap1\n      dup4\n      0xffffffffffffffffffffffffffffffffffffffff\n      and\n      mul\n      or\n      swap1\n      sstore\n      pop\n        /* \"contracts/ddddd.sol\":4545:5064  function editDoctor(address _doctor, string _uaeId, string _name, string _phone, string _gender, string _dob, string _qualification, string _major) public {\r... */\n      pop\n      pop\n      pop\n      pop\n      pop\n      pop\n      pop\n      pop\n      pop\n      jump\t// out\n        /* \"contracts/ddddd.sol\":3776:4537  function doctorRegistration(address _doctor, string _uaeId, string _name, string _phone, string _gender, string _dob, string _qualification, string _major) public {\r... */\n    tag_66:\n        /* \"contracts/ddddd.sol\":4031:4036  var d */\n      0x0\n        /* \"contracts/ddddd.sol\":3972:3981  mohAdress */\n      0x10\n      0x0\n      swap1\n      sload\n      swap1\n      0x100\n      exp\n      swap1\n      div\n      0xffffffffffffffffffffffffffffffffffffffff\n      and\n        /* \"contracts/ddddd.sol\":3958:3981  msg.sender == mohAdress */\n      0xffffffffffffffffffffffffffffffffffffffff\n      and\n        /* \"contracts/ddddd.sol\":3958:3968  msg.sender */\n      caller\n        /* \"contracts/ddddd.sol\":3958:3981  msg.sender == mohAdress */\n      0xffffffffffffffffffffffffffffffffffffffff\n      and\n      eq\n        /* \"contracts/ddddd.sol\":3950:3982  require(msg.sender == mohAdress) */\n      iszero\n      iszero\n      tag_202\n      jumpi\n      0x0\n      dup1\n      revert\n    tag_202:\n        /* \"contracts/ddddd.sol\":4002:4010  isDoctor */\n      0x9\n        /* \"contracts/ddddd.sol\":4002:4019  isDoctor[_doctor] */\n      0x0\n        /* \"contracts/ddddd.sol\":4011:4018  _doctor */\n      dup11\n        /* \"contracts/ddddd.sol\":4002:4019  isDoctor[_doctor] */\n      0xffffffffffffffffffffffffffffffffffffffff\n      and\n      0xffffffffffffffffffffffffffffffffffffffff\n      and\n      dup2\n      mstore\n      0x20\n      add\n      swap1\n      dup2\n      mstore\n      0x20\n      add\n      0x0\n      keccak256\n      0x0\n      swap1\n      sload\n      swap1\n      0x100\n      exp\n      swap1\n      div\n      0xff\n      and\n        /* \"contracts/ddddd.sol\":4001:4019  !isDoctor[_doctor] */\n      iszero\n        /* \"contracts/ddddd.sol\":3993:4020  require(!isDoctor[_doctor]) */\n      iszero\n      iszero\n      tag_203\n      jumpi\n      0x0\n      dup1\n      revert\n    tag_203:\n        /* \"contracts/ddddd.sol\":4039:4045  doctor */\n      0x5\n        /* \"contracts/ddddd.sol\":4039:4054  doctor[_doctor] */\n      0x0\n        /* \"contracts/ddddd.sol\":4046:4053  _doctor */\n      dup11\n        /* \"contracts/ddddd.sol\":4039:4054  doctor[_doctor] */\n      0xffffffffffffffffffffffffffffffffffffffff\n      and\n      0xffffffffffffffffffffffffffffffffffffffff\n      and\n      dup2\n      mstore\n      0x20\n      add\n      swap1\n      dup2\n      mstore\n      0x20\n      add\n      0x0\n      keccak256\n        /* \"contracts/ddddd.sol\":4031:4054  var d = doctor[_doctor] */\n      swap1\n      pop\n        /* \"contracts/ddddd.sol\":4085:4091  _uaeId */\n      dup8\n        /* \"contracts/ddddd.sol\":4075:4076  d */\n      dup2\n        /* \"contracts/ddddd.sol\":4075:4082  d.uaeId */\n      0x0\n      add\n        /* \"contracts/ddddd.sol\":4075:4091  d.uaeId = _uaeId */\n      swap1\n      dup1\n      mload\n      swap1\n      0x20\n      add\n      swap1\n      tag_204\n      swap3\n      swap2\n      swap1\n      jump\t// in(tag_194)\n    tag_204:\n      pop\n        /* \"contracts/ddddd.sol\":4111:4116  _name */\n      dup7\n        /* \"contracts/ddddd.sol\":4102:4103  d */\n      dup2\n        /* \"contracts/ddddd.sol\":4102:4108  d.name */\n      0x1\n      add\n        /* \"contracts/ddddd.sol\":4102:4116  d.name = _name */\n      swap1\n      dup1\n      mload\n      swap1\n      0x20\n      add\n      swap1\n      tag_205\n      swap3\n      swap2\n      swap1\n      jump\t// in(tag_194)\n    tag_205:\n      pop\n        /* \"contracts/ddddd.sol\":4137:4143  _phone */\n      dup6\n        /* \"contracts/ddddd.sol\":4127:4128  d */\n      dup2\n        /* \"contracts/ddddd.sol\":4127:4134  d.phone */\n      0x2\n      add\n        /* \"contracts/ddddd.sol\":4127:4143  d.phone = _phone */\n      swap1\n      dup1\n      mload\n      swap1\n      0x20\n      add\n      swap1\n      tag_206\n      swap3\n      swap2\n      swap1\n      jump\t// in(tag_194)\n    tag_206:\n      pop\n        /* \"contracts/ddddd.sol\":4165:4172  _gender */\n      dup5\n        /* \"contracts/ddddd.sol\":4154:4155  d */\n      dup2\n        /* \"contracts/ddddd.sol\":4154:4162  d.gender */\n      0x3\n      add\n        /* \"contracts/ddddd.sol\":4154:4172  d.gender = _gender */\n      swap1\n      dup1\n      mload\n      swap1\n      0x20\n      add\n      swap1\n      tag_207\n      swap3\n      swap2\n      swap1\n      jump\t// in(tag_194)\n    tag_207:\n      pop\n        /* \"contracts/ddddd.sol\":4191:4195  _dob */\n      dup4\n        /* \"contracts/ddddd.sol\":4183:4184  d */\n      dup2\n        /* \"contracts/ddddd.sol\":4183:4188  d.dob */\n      0x4\n      add\n        /* \"contracts/ddddd.sol\":4183:4195  d.dob = _dob */\n      swap1\n      dup1\n      mload\n      swap1\n      0x20\n      add\n      swap1\n      tag_208\n      swap3\n      swap2\n      swap1\n      jump\t// in(tag_194)\n    tag_208:\n      pop\n        /* \"contracts/ddddd.sol\":4224:4238  _qualification */\n      dup3\n        /* \"contracts/ddddd.sol\":4206:4207  d */\n      dup2\n        /* \"contracts/ddddd.sol\":4206:4221  d.qualification */\n      0x7\n      add\n        /* \"contracts/ddddd.sol\":4206:4238  d.qualification = _qualification */\n      swap1\n      dup1\n      mload\n      swap1\n      0x20\n      add\n      swap1\n      tag_209\n      swap3\n      swap2\n      swap1\n      jump\t// in(tag_194)\n    tag_209:\n      pop\n        /* \"contracts/ddddd.sol\":4259:4265  _major */\n      dup2\n        /* \"contracts/ddddd.sol\":4249:4250  d */\n      dup2\n        /* \"contracts/ddddd.sol\":4249:4256  d.major */\n      0x8\n      add\n        /* \"contracts/ddddd.sol\":4249:4265  d.major = _major */\n      swap1\n      dup1\n      mload\n      swap1\n      0x20\n      add\n      swap1\n      tag_210\n      swap3\n      swap2\n      swap1\n      jump\t// in(tag_194)\n    tag_210:\n      pop\n        /* \"contracts/ddddd.sol\":4289:4296  _doctor */\n      dup9\n        /* \"contracts/ddddd.sol\":4276:4277  d */\n      dup2\n        /* \"contracts/ddddd.sol\":4276:4286  d.eAddress */\n      0x9\n      add\n      0x0\n        /* \"contracts/ddddd.sol\":4276:4296  d.eAddress = _doctor */\n      0x100\n      exp\n      dup2\n      sload\n      dup2\n      0xffffffffffffffffffffffffffffffffffffffff\n      mul\n      not\n      and\n      swap1\n      dup4\n      0xffffffffffffffffffffffffffffffffffffffff\n      and\n      mul\n      or\n      swap1\n      sstore\n      pop\n        /* \"contracts/ddddd.sol\":4316:4331  block.timestamp */\n      timestamp\n        /* \"contracts/ddddd.sol\":4307:4308  d */\n      dup2\n        /* \"contracts/ddddd.sol\":4307:4313  d.date */\n      0xa\n      add\n        /* \"contracts/ddddd.sol\":4307:4331  d.date = block.timestamp */\n      dup2\n      swap1\n      sstore\n      pop\n        /* \"contracts/ddddd.sol\":4352:4362  doctorList */\n      0x2\n        /* \"contracts/ddddd.sol\":4368:4375  _doctor */\n      dup10\n        /* \"contracts/ddddd.sol\":4352:4376  doctorList.push(_doctor) */\n      swap1\n      dup1\n        /* \"--CODEGEN--\":39:40   */\n      0x1\n        /* \"--CODEGEN--\":33:36   */\n      dup2\n        /* \"--CODEGEN--\":27:37   */\n      sload\n        /* \"--CODEGEN--\":23:41   */\n      add\n        /* \"--CODEGEN--\":57:67   */\n      dup1\n        /* \"--CODEGEN--\":52:55   */\n      dup3\n        /* \"--CODEGEN--\":45:68   */\n      sstore\n        /* \"--CODEGEN--\":79:89   */\n      dup1\n        /* \"--CODEGEN--\":72:89   */\n      swap2\n      pop\n        /* \"--CODEGEN--\":0:93   */\n      pop\n        /* \"contracts/ddddd.sol\":4352:4376  doctorList.push(_doctor) */\n      swap1\n      0x1\n      dup3\n      sub\n      swap1\n      0x0\n      mstore\n      keccak256(0x0, 0x20)\n      add\n      0x0\n      swap1\n      swap2\n      swap3\n      swap1\n      swap2\n      swap1\n      swap2\n      0x100\n      exp\n      dup2\n      sload\n      dup2\n      0xffffffffffffffffffffffffffffffffffffffff\n      mul\n      not\n      and\n      swap1\n      dup4\n      0xffffffffffffffffffffffffffffffffffffffff\n      and\n      mul\n      or\n      swap1\n      sstore\n      pop\n      pop\n        /* \"contracts/ddddd.sol\":4407:4411  true */\n      0x1\n        /* \"contracts/ddddd.sol\":4387:4395  isDoctor */\n      0x9\n        /* \"contracts/ddddd.sol\":4387:4404  isDoctor[_doctor] */\n      0x0\n        /* \"contracts/ddddd.sol\":4396:4403  _doctor */\n      dup12\n        /* \"contracts/ddddd.sol\":4387:4404  isDoctor[_doctor] */\n      0xffffffffffffffffffffffffffffffffffffffff\n      and\n      0xffffffffffffffffffffffffffffffffffffffff\n      and\n      dup2\n      mstore\n      0x20\n      add\n      swap1\n      dup2\n      mstore\n      0x20\n      add\n      0x0\n      keccak256\n      0x0\n        /* \"contracts/ddddd.sol\":4387:4411  isDoctor[_doctor] = true */\n      0x100\n      exp\n      dup2\n      sload\n      dup2\n      0xff\n      mul\n      not\n      and\n      swap1\n      dup4\n      iszero\n      iszero\n      mul\n      or\n      swap1\n      sstore\n      pop\n        /* \"contracts/ddddd.sol\":4453:4457  true */\n      0x1\n        /* \"contracts/ddddd.sol\":4422:4432  isApproved */\n      0x7\n        /* \"contracts/ddddd.sol\":4422:4441  isApproved[_doctor] */\n      0x0\n        /* \"contracts/ddddd.sol\":4433:4440  _doctor */\n      dup12\n        /* \"contracts/ddddd.sol\":4422:4441  isApproved[_doctor] */\n      0xffffffffffffffffffffffffffffffffffffffff\n      and\n      0xffffffffffffffffffffffffffffffffffffffff\n      and\n      dup2\n      mstore\n      0x20\n      add\n      swap1\n      dup2\n      mstore\n      0x20\n      add\n      0x0\n      keccak256\n        /* \"contracts/ddddd.sol\":4422:4450  isApproved[_doctor][_doctor] */\n      0x0\n        /* \"contracts/ddddd.sol\":4442:4449  _doctor */\n      dup12\n        /* \"contracts/ddddd.sol\":4422:4450  isApproved[_doctor][_doctor] */\n      0xffffffffffffffffffffffffffffffffffffffff\n      and\n      0xffffffffffffffffffffffffffffffffffffffff\n      and\n      dup2\n      mstore\n      0x20\n      add\n      swap1\n      dup2\n      mstore\n      0x20\n      add\n      0x0\n      keccak256\n      0x0\n        /* \"contracts/ddddd.sol\":4422:4457  isApproved[_doctor][_doctor] = true */\n      0x100\n      exp\n      dup2\n      sload\n      dup2\n      0xff\n      mul\n      not\n      and\n      swap1\n      dup4\n      iszero\n      iszero\n      mul\n      or\n      swap1\n      sstore\n      pop\n        /* \"contracts/ddddd.sol\":4501:4505  true */\n      0x1\n        /* \"contracts/ddddd.sol\":4468:4478  isApproved */\n      0x7\n        /* \"contracts/ddddd.sol\":4468:4487  isApproved[_doctor] */\n      0x0\n        /* \"contracts/ddddd.sol\":4479:4486  _doctor */\n      dup12\n        /* \"contracts/ddddd.sol\":4468:4487  isApproved[_doctor] */\n      0xffffffffffffffffffffffffffffffffffffffff\n      and\n      0xffffffffffffffffffffffffffffffffffffffff\n      and\n      dup2\n      mstore\n      0x20\n      add\n      swap1\n      dup2\n      mstore\n      0x20\n      add\n      0x0\n      keccak256\n        /* \"contracts/ddddd.sol\":4468:4498  isApproved[_doctor][mohAdress] */\n      0x0\n        /* \"contracts/ddddd.sol\":4488:4497  mohAdress */\n      0x10\n      0x0\n      swap1\n      sload\n      swap1\n      0x100\n      exp\n      swap1\n      div\n      0xffffffffffffffffffffffffffffffffffffffff\n      and\n        /* \"contracts/ddddd.sol\":4468:4498  isApproved[_doctor][mohAdress] */\n      0xffffffffffffffffffffffffffffffffffffffff\n      and\n      0xffffffffffffffffffffffffffffffffffffffff\n      and\n      dup2\n      mstore\n      0x20\n      add\n      swap1\n      dup2\n      mstore\n      0x20\n      add\n      0x0\n      keccak256\n      0x0\n        /* \"contracts/ddddd.sol\":4468:4505  isApproved[_doctor][mohAdress] = true */\n      0x100\n      exp\n      dup2\n      sload\n      dup2\n      0xff\n      mul\n      not\n      and\n      swap1\n      dup4\n      iszero\n      iszero\n      mul\n      or\n      swap1\n      sstore\n      pop\n        /* \"contracts/ddddd.sol\":4516:4527  doctorCount */\n      0xc\n      0x0\n        /* \"contracts/ddddd.sol\":4516:4529  doctorCount++ */\n      dup2\n      sload\n      dup1\n      swap3\n      swap2\n      swap1\n      0x1\n      add\n      swap2\n      swap1\n      pop\n      sstore\n      pop\n        /* \"contracts/ddddd.sol\":3776:4537  function doctorRegistration(address _doctor, string _uaeId, string _name, string _phone, string _gender, string _dob, string _qualification, string _major) public {\r... */\n      pop\n      pop\n      pop\n      pop\n      pop\n      pop\n      pop\n      pop\n      pop\n      jump\t// out\n        /* \"contracts/ddddd.sol\":6051:6242  function givePermissionByUser(address _address) public returns(bool success) {\r... */\n    tag_70:\n        /* \"contracts/ddddd.sol\":6114:6126  bool success */\n      0x0\n        /* \"contracts/ddddd.sol\":6174:6178  true */\n      0x1\n        /* \"contracts/ddddd.sol\":6139:6149  isApproved */\n      0x7\n        /* \"contracts/ddddd.sol\":6139:6161  isApproved[msg.sender] */\n      0x0\n        /* \"contracts/ddddd.sol\":6150:6160  msg.sender */\n      caller\n        /* \"contracts/ddddd.sol\":6139:6161  isApproved[msg.sender] */\n      0xffffffffffffffffffffffffffffffffffffffff\n      and\n      0xffffffffffffffffffffffffffffffffffffffff\n      and\n      dup2\n      mstore\n      0x20\n      add\n      swap1\n      dup2\n      mstore\n      0x20\n      add\n      0x0\n      keccak256\n        /* \"contracts/ddddd.sol\":6139:6171  isApproved[msg.sender][_address] */\n      0x0\n        /* \"contracts/ddddd.sol\":6162:6170  _address */\n      dup5\n        /* \"contracts/ddddd.sol\":6139:6171  isApproved[msg.sender][_address] */\n      0xffffffffffffffffffffffffffffffffffffffff\n      and\n      0xffffffffffffffffffffffffffffffffffffffff\n      and\n      dup2\n      mstore\n      0x20\n      add\n      swap1\n      dup2\n      mstore\n      0x20\n      add\n      0x0\n      keccak256\n      0x0\n        /* \"contracts/ddddd.sol\":6139:6178  isApproved[msg.sender][_address] = true */\n      0x100\n      exp\n      dup2\n      sload\n      dup2\n      0xff\n      mul\n      not\n      and\n      swap1\n      dup4\n      iszero\n      iszero\n      mul\n      or\n      swap1\n      sstore\n      pop\n        /* \"contracts/ddddd.sol\":6189:6210  userPermissionCounter */\n      0xe\n      0x0\n        /* \"contracts/ddddd.sol\":6189:6212  userPermissionCounter++ */\n      dup2\n      sload\n      dup1\n      swap3\n      swap2\n      swap1\n      0x1\n      add\n      swap2\n      swap1\n      pop\n      sstore\n      pop\n        /* \"contracts/ddddd.sol\":6230:6234  true */\n      0x1\n        /* \"contracts/ddddd.sol\":6223:6234  return true */\n      swap1\n      pop\n        /* \"contracts/ddddd.sol\":6051:6242  function givePermissionByUser(address _address) public returns(bool success) {\r... */\n      swap2\n      swap1\n      pop\n      jump\t// out\n        /* \"contracts/ddddd.sol\":6512:6670  function userRevokePermission(address _address) public returns(bool success) {\r... */\n    tag_76:\n        /* \"contracts/ddddd.sol\":6575:6587  bool success */\n      0x0\n        /* \"contracts/ddddd.sol\":6635:6640  false */\n      dup1\n        /* \"contracts/ddddd.sol\":6600:6610  isApproved */\n      0x7\n        /* \"contracts/ddddd.sol\":6600:6622  isApproved[msg.sender] */\n      0x0\n        /* \"contracts/ddddd.sol\":6611:6621  msg.sender */\n      caller\n        /* \"contracts/ddddd.sol\":6600:6622  isApproved[msg.sender] */\n      0xffffffffffffffffffffffffffffffffffffffff\n      and\n      0xffffffffffffffffffffffffffffffffffffffff\n      and\n      dup2\n      mstore\n      0x20\n      add\n      swap1\n      dup2\n      mstore\n      0x20\n      add\n      0x0\n      keccak256\n        /* \"contracts/ddddd.sol\":6600:6632  isApproved[msg.sender][_address] */\n      0x0\n        /* \"contracts/ddddd.sol\":6623:6631  _address */\n      dup5\n        /* \"contracts/ddddd.sol\":6600:6632  isApproved[msg.sender][_address] */\n      0xffffffffffffffffffffffffffffffffffffffff\n      and\n      0xffffffffffffffffffffffffffffffffffffffff\n      and\n      dup2\n      mstore\n      0x20\n      add\n      swap1\n      dup2\n      mstore\n      0x20\n      add\n      0x0\n      keccak256\n      0x0\n        /* \"contracts/ddddd.sol\":6600:6640  isApproved[msg.sender][_address] = false */\n      0x100\n      exp\n      dup2\n      sload\n      dup2\n      0xff\n      mul\n      not\n      and\n      swap1\n      dup4\n      iszero\n      iszero\n      mul\n      or\n      swap1\n      sstore\n      pop\n        /* \"contracts/ddddd.sol\":6658:6662  true */\n      0x1\n        /* \"contracts/ddddd.sol\":6651:6662  return true */\n      swap1\n      pop\n        /* \"contracts/ddddd.sol\":6512:6670  function userRevokePermission(address _address) public returns(bool success) {\r... */\n      swap2\n      swap1\n      pop\n      jump\t// out\n        /* \"contracts/ddddd.sol\":2026:3135  function userRegistration(address _user, string _uaeId, string _name, string _phone, string _gender, string _dob, string _addr, string _email, string _nomineeName, string _nomineeContact) public {\r... */\n    tag_82:\n        /* \"contracts/ddddd.sol\":2309:2314  var u */\n      0x0\n        /* \"contracts/ddddd.sol\":2254:2263  mohAdress */\n      0x10\n      0x0\n      swap1\n      sload\n      swap1\n      0x100\n      exp\n      swap1\n      div\n      0xffffffffffffffffffffffffffffffffffffffff\n      and\n        /* \"contracts/ddddd.sol\":2240:2263  msg.sender == mohAdress */\n      0xffffffffffffffffffffffffffffffffffffffff\n      and\n        /* \"contracts/ddddd.sol\":2240:2250  msg.sender */\n      caller\n        /* \"contracts/ddddd.sol\":2240:2263  msg.sender == mohAdress */\n      0xffffffffffffffffffffffffffffffffffffffff\n      and\n      eq\n        /* \"contracts/ddddd.sol\":2232:2264  require(msg.sender == mohAdress) */\n      iszero\n      iszero\n      tag_215\n      jumpi\n      0x0\n      dup1\n      revert\n    tag_215:\n        /* \"contracts/ddddd.sol\":2284:2290  isUser */\n      0x8\n        /* \"contracts/ddddd.sol\":2284:2297  isUser[_user] */\n      0x0\n        /* \"contracts/ddddd.sol\":2291:2296  _user */\n      dup13\n        /* \"contracts/ddddd.sol\":2284:2297  isUser[_user] */\n      0xffffffffffffffffffffffffffffffffffffffff\n      and\n      0xffffffffffffffffffffffffffffffffffffffff\n      and\n      dup2\n      mstore\n      0x20\n      add\n      swap1\n      dup2\n      mstore\n      0x20\n      add\n      0x0\n      keccak256\n      0x0\n      swap1\n      sload\n      swap1\n      0x100\n      exp\n      swap1\n      div\n      0xff\n      and\n        /* \"contracts/ddddd.sol\":2283:2297  !isUser[_user] */\n      iszero\n        /* \"contracts/ddddd.sol\":2275:2298  require(!isUser[_user]) */\n      iszero\n      iszero\n      tag_216\n      jumpi\n      0x0\n      dup1\n      revert\n    tag_216:\n        /* \"contracts/ddddd.sol\":2317:2321  user */\n      0x4\n        /* \"contracts/ddddd.sol\":2317:2328  user[_user] */\n      0x0\n        /* \"contracts/ddddd.sol\":2322:2327  _user */\n      dup13\n        /* \"contracts/ddddd.sol\":2317:2328  user[_user] */\n      0xffffffffffffffffffffffffffffffffffffffff\n      and\n      0xffffffffffffffffffffffffffffffffffffffff\n      and\n      dup2\n      mstore\n      0x20\n      add\n      swap1\n      dup2\n      mstore\n      0x20\n      add\n      0x0\n      keccak256\n        /* \"contracts/ddddd.sol\":2309:2328  var u = user[_user] */\n      swap1\n      pop\n        /* \"contracts/ddddd.sol\":2359:2365  _uaeId */\n      dup10\n        /* \"contracts/ddddd.sol\":2349:2350  u */\n      dup2\n        /* \"contracts/ddddd.sol\":2349:2356  u.uaeId */\n      0x0\n      add\n        /* \"contracts/ddddd.sol\":2349:2365  u.uaeId = _uaeId */\n      swap1\n      dup1\n      mload\n      swap1\n      0x20\n      add\n      swap1\n      tag_217\n      swap3\n      swap2\n      swap1\n      jump\t// in(tag_194)\n    tag_217:\n      pop\n        /* \"contracts/ddddd.sol\":2385:2390  _name */\n      dup9\n        /* \"contracts/ddddd.sol\":2376:2377  u */\n      dup2\n        /* \"contracts/ddddd.sol\":2376:2382  u.name */\n      0x1\n      add\n        /* \"contracts/ddddd.sol\":2376:2390  u.name = _name */\n      swap1\n      dup1\n      mload\n      swap1\n      0x20\n      add\n      swap1\n      tag_218\n      swap3\n      swap2\n      swap1\n      jump\t// in(tag_194)\n    tag_218:\n      pop\n        /* \"contracts/ddddd.sol\":2411:2417  _phone */\n      dup8\n        /* \"contracts/ddddd.sol\":2401:2402  u */\n      dup2\n        /* \"contracts/ddddd.sol\":2401:2408  u.phone */\n      0x2\n      add\n        /* \"contracts/ddddd.sol\":2401:2417  u.phone = _phone */\n      swap1\n      dup1\n      mload\n      swap1\n      0x20\n      add\n      swap1\n      tag_219\n      swap3\n      swap2\n      swap1\n      jump\t// in(tag_194)\n    tag_219:\n      pop\n        /* \"contracts/ddddd.sol\":2439:2446  _gender */\n      dup7\n        /* \"contracts/ddddd.sol\":2428:2429  u */\n      dup2\n        /* \"contracts/ddddd.sol\":2428:2436  u.gender */\n      0x3\n      add\n        /* \"contracts/ddddd.sol\":2428:2446  u.gender = _gender */\n      swap1\n      dup1\n      mload\n      swap1\n      0x20\n      add\n      swap1\n      tag_220\n      swap3\n      swap2\n      swap1\n      jump\t// in(tag_194)\n    tag_220:\n      pop\n        /* \"contracts/ddddd.sol\":2465:2469  _dob */\n      dup6\n        /* \"contracts/ddddd.sol\":2457:2458  u */\n      dup2\n        /* \"contracts/ddddd.sol\":2457:2462  u.dob */\n      0x4\n      add\n        /* \"contracts/ddddd.sol\":2457:2469  u.dob = _dob */\n      swap1\n      dup1\n      mload\n      swap1\n      0x20\n      add\n      swap1\n      tag_221\n      swap3\n      swap2\n      swap1\n      jump\t// in(tag_194)\n    tag_221:\n      pop\n        /* \"contracts/ddddd.sol\":2489:2494  _addr */\n      dup5\n        /* \"contracts/ddddd.sol\":2480:2481  u */\n      dup2\n        /* \"contracts/ddddd.sol\":2480:2486  u.addr */\n      0x5\n      add\n        /* \"contracts/ddddd.sol\":2480:2494  u.addr = _addr */\n      swap1\n      dup1\n      mload\n      swap1\n      0x20\n      add\n      swap1\n      tag_222\n      swap3\n      swap2\n      swap1\n      jump\t// in(tag_194)\n    tag_222:\n      pop\n        /* \"contracts/ddddd.sol\":2515:2521  _email */\n      dup4\n        /* \"contracts/ddddd.sol\":2505:2506  u */\n      dup2\n        /* \"contracts/ddddd.sol\":2505:2512  u.email */\n      0x6\n      add\n        /* \"contracts/ddddd.sol\":2505:2521  u.email = _email */\n      swap1\n      dup1\n      mload\n      swap1\n      0x20\n      add\n      swap1\n      tag_223\n      swap3\n      swap2\n      swap1\n      jump\t// in(tag_194)\n    tag_223:\n      pop\n        /* \"contracts/ddddd.sol\":2548:2560  _nomineeName */\n      dup3\n        /* \"contracts/ddddd.sol\":2532:2533  u */\n      dup2\n        /* \"contracts/ddddd.sol\":2532:2545  u.nomineeName */\n      0x7\n      add\n        /* \"contracts/ddddd.sol\":2532:2560  u.nomineeName = _nomineeName */\n      swap1\n      dup1\n      mload\n      swap1\n      0x20\n      add\n      swap1\n      tag_224\n      swap3\n      swap2\n      swap1\n      jump\t// in(tag_194)\n    tag_224:\n      pop\n        /* \"contracts/ddddd.sol\":2590:2605  _nomineeContact */\n      dup2\n        /* \"contracts/ddddd.sol\":2571:2572  u */\n      dup2\n        /* \"contracts/ddddd.sol\":2571:2587  u.nomineeContact */\n      0x8\n      add\n        /* \"contracts/ddddd.sol\":2571:2605  u.nomineeContact = _nomineeContact */\n      swap1\n      dup1\n      mload\n      swap1\n      0x20\n      add\n      swap1\n      tag_225\n      swap3\n      swap2\n      swap1\n      jump\t// in(tag_194)\n    tag_225:\n      pop\n        /* \"contracts/ddddd.sol\":2629:2634  _user */\n      dup11\n        /* \"contracts/ddddd.sol\":2616:2617  u */\n      dup2\n        /* \"contracts/ddddd.sol\":2616:2626  u.eAddress */\n      0x9\n      add\n      0x0\n        /* \"contracts/ddddd.sol\":2616:2634  u.eAddress = _user */\n      0x100\n      exp\n      dup2\n      sload\n      dup2\n      0xffffffffffffffffffffffffffffffffffffffff\n      mul\n      not\n      and\n      swap1\n      dup4\n      0xffffffffffffffffffffffffffffffffffffffff\n      and\n      mul\n      or\n      swap1\n      sstore\n      pop\n        /* \"contracts/ddddd.sol\":2654:2669  block.timestamp */\n      timestamp\n        /* \"contracts/ddddd.sol\":2645:2646  u */\n      dup2\n        /* \"contracts/ddddd.sol\":2645:2651  u.date */\n      0xa\n      add\n        /* \"contracts/ddddd.sol\":2645:2669  u.date = block.timestamp */\n      dup2\n      swap1\n      sstore\n      pop\n        /* \"contracts/ddddd.sol\":2690:2698  userList */\n      0x1\n        /* \"contracts/ddddd.sol\":2704:2709  _user */\n      dup12\n        /* \"contracts/ddddd.sol\":2690:2710  userList.push(_user) */\n      swap1\n      dup1\n        /* \"--CODEGEN--\":39:40   */\n      0x1\n        /* \"--CODEGEN--\":33:36   */\n      dup2\n        /* \"--CODEGEN--\":27:37   */\n      sload\n        /* \"--CODEGEN--\":23:41   */\n      add\n        /* \"--CODEGEN--\":57:67   */\n      dup1\n        /* \"--CODEGEN--\":52:55   */\n      dup3\n        /* \"--CODEGEN--\":45:68   */\n      sstore\n        /* \"--CODEGEN--\":79:89   */\n      dup1\n        /* \"--CODEGEN--\":72:89   */\n      swap2\n      pop\n        /* \"--CODEGEN--\":0:93   */\n      pop\n        /* \"contracts/ddddd.sol\":2690:2710  userList.push(_user) */\n      swap1\n      0x1\n      dup3\n      sub\n      swap1\n      0x0\n      mstore\n      keccak256(0x0, 0x20)\n      add\n      0x0\n      swap1\n      swap2\n      swap3\n      swap1\n      swap2\n      swap1\n      swap2\n      0x100\n      exp\n      dup2\n      sload\n      dup2\n      0xffffffffffffffffffffffffffffffffffffffff\n      mul\n      not\n      and\n      swap1\n      dup4\n      0xffffffffffffffffffffffffffffffffffffffff\n      and\n      mul\n      or\n      swap1\n      sstore\n      pop\n      pop\n        /* \"contracts/ddddd.sol\":2737:2741  true */\n      0x1\n        /* \"contracts/ddddd.sol\":2721:2727  isUser */\n      0x8\n        /* \"contracts/ddddd.sol\":2721:2734  isUser[_user] */\n      0x0\n        /* \"contracts/ddddd.sol\":2728:2733  _user */\n      dup14\n        /* \"contracts/ddddd.sol\":2721:2734  isUser[_user] */\n      0xffffffffffffffffffffffffffffffffffffffff\n      and\n      0xffffffffffffffffffffffffffffffffffffffff\n      and\n      dup2\n      mstore\n      0x20\n      add\n      swap1\n      dup2\n      mstore\n      0x20\n      add\n      0x0\n      keccak256\n      0x0\n        /* \"contracts/ddddd.sol\":2721:2741  isUser[_user] = true */\n      0x100\n      exp\n      dup2\n      sload\n      dup2\n      0xff\n      mul\n      not\n      and\n      swap1\n      dup4\n      iszero\n      iszero\n      mul\n      or\n      swap1\n      sstore\n      pop\n        /* \"contracts/ddddd.sol\":2779:2783  true */\n      0x1\n        /* \"contracts/ddddd.sol\":2752:2762  isApproved */\n      0x7\n        /* \"contracts/ddddd.sol\":2752:2769  isApproved[_user] */\n      0x0\n        /* \"contracts/ddddd.sol\":2763:2768  _user */\n      dup14\n        /* \"contracts/ddddd.sol\":2752:2769  isApproved[_user] */\n      0xffffffffffffffffffffffffffffffffffffffff\n      and\n      0xffffffffffffffffffffffffffffffffffffffff\n      and\n      dup2\n      mstore\n      0x20\n      add\n      swap1\n      dup2\n      mstore\n      0x20\n      add\n      0x0\n      keccak256\n        /* \"contracts/ddddd.sol\":2752:2776  isApproved[_user][_user] */\n      0x0\n        /* \"contracts/ddddd.sol\":2770:2775  _user */\n      dup14\n        /* \"contracts/ddddd.sol\":2752:2776  isApproved[_user][_user] */\n      0xffffffffffffffffffffffffffffffffffffffff\n      and\n      0xffffffffffffffffffffffffffffffffffffffff\n      and\n      dup2\n      mstore\n      0x20\n      add\n      swap1\n      dup2\n      mstore\n      0x20\n      add\n      0x0\n      keccak256\n      0x0\n        /* \"contracts/ddddd.sol\":2752:2783  isApproved[_user][_user] = true */\n      0x100\n      exp\n      dup2\n      sload\n      dup2\n      0xff\n      mul\n      not\n      and\n      swap1\n      dup4\n      iszero\n      iszero\n      mul\n      or\n      swap1\n      sstore\n      pop\n        /* \"contracts/ddddd.sol\":2825:2829  true */\n      0x1\n        /* \"contracts/ddddd.sol\":2794:2804  isApproved */\n      0x7\n        /* \"contracts/ddddd.sol\":2794:2811  isApproved[_user] */\n      0x0\n        /* \"contracts/ddddd.sol\":2805:2810  _user */\n      dup14\n        /* \"contracts/ddddd.sol\":2794:2811  isApproved[_user] */\n      0xffffffffffffffffffffffffffffffffffffffff\n      and\n      0xffffffffffffffffffffffffffffffffffffffff\n      and\n      dup2\n      mstore\n      0x20\n      add\n      swap1\n      dup2\n      mstore\n      0x20\n      add\n      0x0\n      keccak256\n        /* \"contracts/ddddd.sol\":2794:2822  isApproved[_user][mohAdress] */\n      0x0\n        /* \"contracts/ddddd.sol\":2812:2821  mohAdress */\n      0x10\n      0x0\n      swap1\n      sload\n      swap1\n      0x100\n      exp\n      swap1\n      div\n      0xffffffffffffffffffffffffffffffffffffffff\n      and\n        /* \"contracts/ddddd.sol\":2794:2822  isApproved[_user][mohAdress] */\n      0xffffffffffffffffffffffffffffffffffffffff\n      and\n      0xffffffffffffffffffffffffffffffffffffffff\n      and\n      dup2\n      mstore\n      0x20\n      add\n      swap1\n      dup2\n      mstore\n      0x20\n      add\n      0x0\n      keccak256\n      0x0\n        /* \"contracts/ddddd.sol\":2794:2829  isApproved[_user][mohAdress] = true */\n      0x100\n      exp\n      dup2\n      sload\n      dup2\n      0xff\n      mul\n      not\n      and\n      swap1\n      dup4\n      iszero\n      iszero\n      mul\n      or\n      swap1\n      sstore\n      pop\n        /* \"contracts/ddddd.sol\":2840:2849  userCount */\n      0xb\n      0x0\n        /* \"contracts/ddddd.sol\":2840:2851  userCount++ */\n      dup2\n      sload\n      dup1\n      swap3\n      swap2\n      swap1\n      0x1\n      add\n      swap2\n      swap1\n      pop\n      sstore\n      pop\n        /* \"contracts/ddddd.sol\":2026:3135  function userRegistration(address _user, string _uaeId, string _name, string _phone, string _gender, string _dob, string _addr, string _email, string _nomineeName, string _nomineeContact) public {\r... */\n      pop\n      pop\n      pop\n      pop\n      pop\n      pop\n      pop\n      pop\n      pop\n      pop\n      pop\n      jump\t// out\n        /* \"contracts/ddddd.sol\":3159:3768  function editUser(address _user, string _uaeId, string _name, string _phone, string _gender, string _dob, string _addr, string _email, string _nomineeName, string _nomineeContact) public {\r... */\n    tag_86:\n        /* \"contracts/ddddd.sol\":3433:3438  var u */\n      0x0\n        /* \"contracts/ddddd.sol\":3379:3388  mohAdress */\n      0x10\n      0x0\n      swap1\n      sload\n      swap1\n      0x100\n      exp\n      swap1\n      div\n      0xffffffffffffffffffffffffffffffffffffffff\n      and\n        /* \"contracts/ddddd.sol\":3365:3388  msg.sender == mohAdress */\n      0xffffffffffffffffffffffffffffffffffffffff\n      and\n        /* \"contracts/ddddd.sol\":3365:3375  msg.sender */\n      caller\n        /* \"contracts/ddddd.sol\":3365:3388  msg.sender == mohAdress */\n      0xffffffffffffffffffffffffffffffffffffffff\n      and\n      eq\n        /* \"contracts/ddddd.sol\":3357:3389  require(msg.sender == mohAdress) */\n      iszero\n      iszero\n      tag_228\n      jumpi\n      0x0\n      dup1\n      revert\n    tag_228:\n        /* \"contracts/ddddd.sol\":3408:3414  isUser */\n      0x8\n        /* \"contracts/ddddd.sol\":3408:3421  isUser[_user] */\n      0x0\n        /* \"contracts/ddddd.sol\":3415:3420  _user */\n      dup13\n        /* \"contracts/ddddd.sol\":3408:3421  isUser[_user] */\n      0xffffffffffffffffffffffffffffffffffffffff\n      and\n      0xffffffffffffffffffffffffffffffffffffffff\n      and\n      dup2\n      mstore\n      0x20\n      add\n      swap1\n      dup2\n      mstore\n      0x20\n      add\n      0x0\n      keccak256\n      0x0\n      swap1\n      sload\n      swap1\n      0x100\n      exp\n      swap1\n      div\n      0xff\n      and\n        /* \"contracts/ddddd.sol\":3400:3422  require(isUser[_user]) */\n      iszero\n      iszero\n      tag_229\n      jumpi\n      0x0\n      dup1\n      revert\n    tag_229:\n        /* \"contracts/ddddd.sol\":3441:3445  user */\n      0x4\n        /* \"contracts/ddddd.sol\":3441:3452  user[_user] */\n      0x0\n        /* \"contracts/ddddd.sol\":3446:3451  _user */\n      dup13\n        /* \"contracts/ddddd.sol\":3441:3452  user[_user] */\n      0xffffffffffffffffffffffffffffffffffffffff\n      and\n      0xffffffffffffffffffffffffffffffffffffffff\n      and\n      dup2\n      mstore\n      0x20\n      add\n      swap1\n      dup2\n      mstore\n      0x20\n      add\n      0x0\n      keccak256\n        /* \"contracts/ddddd.sol\":3433:3452  var u = user[_user] */\n      swap1\n      pop\n        /* \"contracts/ddddd.sol\":3483:3489  _uaeId */\n      dup10\n        /* \"contracts/ddddd.sol\":3473:3474  u */\n      dup2\n        /* \"contracts/ddddd.sol\":3473:3480  u.uaeId */\n      0x0\n      add\n        /* \"contracts/ddddd.sol\":3473:3489  u.uaeId = _uaeId */\n      swap1\n      dup1\n      mload\n      swap1\n      0x20\n      add\n      swap1\n      tag_230\n      swap3\n      swap2\n      swap1\n      jump\t// in(tag_194)\n    tag_230:\n      pop\n        /* \"contracts/ddddd.sol\":3509:3514  _name */\n      dup9\n        /* \"contracts/ddddd.sol\":3500:3501  u */\n      dup2\n        /* \"contracts/ddddd.sol\":3500:3506  u.name */\n      0x1\n      add\n        /* \"contracts/ddddd.sol\":3500:3514  u.name = _name */\n      swap1\n      dup1\n      mload\n      swap1\n      0x20\n      add\n      swap1\n      tag_231\n      swap3\n      swap2\n      swap1\n      jump\t// in(tag_194)\n    tag_231:\n      pop\n        /* \"contracts/ddddd.sol\":3535:3541  _phone */\n      dup8\n        /* \"contracts/ddddd.sol\":3525:3526  u */\n      dup2\n        /* \"contracts/ddddd.sol\":3525:3532  u.phone */\n      0x2\n      add\n        /* \"contracts/ddddd.sol\":3525:3541  u.phone = _phone */\n      swap1\n      dup1\n      mload\n      swap1\n      0x20\n      add\n      swap1\n      tag_232\n      swap3\n      swap2\n      swap1\n      jump\t// in(tag_194)\n    tag_232:\n      pop\n        /* \"contracts/ddddd.sol\":3563:3570  _gender */\n      dup7\n        /* \"contracts/ddddd.sol\":3552:3553  u */\n      dup2\n        /* \"contracts/ddddd.sol\":3552:3560  u.gender */\n      0x3\n      add\n        /* \"contracts/ddddd.sol\":3552:3570  u.gender = _gender */\n      swap1\n      dup1\n      mload\n      swap1\n      0x20\n      add\n      swap1\n      tag_233\n      swap3\n      swap2\n      swap1\n      jump\t// in(tag_194)\n    tag_233:\n      pop\n        /* \"contracts/ddddd.sol\":3589:3593  _dob */\n      dup6\n        /* \"contracts/ddddd.sol\":3581:3582  u */\n      dup2\n        /* \"contracts/ddddd.sol\":3581:3586  u.dob */\n      0x4\n      add\n        /* \"contracts/ddddd.sol\":3581:3593  u.dob = _dob */\n      swap1\n      dup1\n      mload\n      swap1\n      0x20\n      add\n      swap1\n      tag_234\n      swap3\n      swap2\n      swap1\n      jump\t// in(tag_194)\n    tag_234:\n      pop\n        /* \"contracts/ddddd.sol\":3613:3618  _addr */\n      dup5\n        /* \"contracts/ddddd.sol\":3604:3605  u */\n      dup2\n        /* \"contracts/ddddd.sol\":3604:3610  u.addr */\n      0x5\n      add\n        /* \"contracts/ddddd.sol\":3604:3618  u.addr = _addr */\n      swap1\n      dup1\n      mload\n      swap1\n      0x20\n      add\n      swap1\n      tag_235\n      swap3\n      swap2\n      swap1\n      jump\t// in(tag_194)\n    tag_235:\n      pop\n        /* \"contracts/ddddd.sol\":3639:3645  _email */\n      dup4\n        /* \"contracts/ddddd.sol\":3629:3630  u */\n      dup2\n        /* \"contracts/ddddd.sol\":3629:3636  u.email */\n      0x6\n      add\n        /* \"contracts/ddddd.sol\":3629:3645  u.email = _email */\n      swap1\n      dup1\n      mload\n      swap1\n      0x20\n      add\n      swap1\n      tag_236\n      swap3\n      swap2\n      swap1\n      jump\t// in(tag_194)\n    tag_236:\n      pop\n        /* \"contracts/ddddd.sol\":3672:3684  _nomineeName */\n      dup3\n        /* \"contracts/ddddd.sol\":3656:3657  u */\n      dup2\n        /* \"contracts/ddddd.sol\":3656:3669  u.nomineeName */\n      0x7\n      add\n        /* \"contracts/ddddd.sol\":3656:3684  u.nomineeName = _nomineeName */\n      swap1\n      dup1\n      mload\n      swap1\n      0x20\n      add\n      swap1\n      tag_237\n      swap3\n      swap2\n      swap1\n      jump\t// in(tag_194)\n    tag_237:\n      pop\n        /* \"contracts/ddddd.sol\":3714:3729  _nomineeContact */\n      dup2\n        /* \"contracts/ddddd.sol\":3695:3696  u */\n      dup2\n        /* \"contracts/ddddd.sol\":3695:3711  u.nomineeContact */\n      0x8\n      add\n        /* \"contracts/ddddd.sol\":3695:3729  u.nomineeContact = _nomineeContact */\n      swap1\n      dup1\n      mload\n      swap1\n      0x20\n      add\n      swap1\n      tag_238\n      swap3\n      swap2\n      swap1\n      jump\t// in(tag_194)\n    tag_238:\n      pop\n        /* \"contracts/ddddd.sol\":3753:3758  _user */\n      dup11\n        /* \"contracts/ddddd.sol\":3740:3741  u */\n      dup2\n        /* \"contracts/ddddd.sol\":3740:3750  u.eAddress */\n      0x9\n      add\n      0x0\n        /* \"contracts/ddddd.sol\":3740:3758  u.eAddress = _user */\n      0x100\n      exp\n      dup2\n      sload\n      dup2\n      0xffffffffffffffffffffffffffffffffffffffff\n      mul\n      not\n      and\n      swap1\n      dup4\n      0xffffffffffffffffffffffffffffffffffffffff\n      and\n      mul\n      or\n      swap1\n      sstore\n      pop\n        /* \"contracts/ddddd.sol\":3159:3768  function editUser(address _user, string _uaeId, string _name, string _phone, string _gender, string _dob, string _addr, string _email, string _nomineeName, string _nomineeContact) public {\r... */\n      pop\n      pop\n      pop\n      pop\n      pop\n      pop\n      pop\n      pop\n      pop\n      pop\n      pop\n      jump\t// out\n        /* \"contracts/ddddd.sol\":1641:1671  uint256 public doctorCount = 0 */\n    tag_89:\n      sload(0xc)\n      dup2\n      jump\t// out\n        /* \"contracts/ddddd.sol\":8240:8332  function getDoctorCount() public view returns(uint256) {\r... */\n    tag_93:\n        /* \"contracts/ddddd.sol\":8286:8293  uint256 */\n      0x0\n        /* \"contracts/ddddd.sol\":8313:8324  doctorCount */\n      sload(0xc)\n        /* \"contracts/ddddd.sol\":8306:8324  return doctorCount */\n      swap1\n      pop\n        /* \"contracts/ddddd.sol\":8240:8332  function getDoctorCount() public view returns(uint256) {\r... */\n      swap1\n      jump\t// out\n        /* \"contracts/ddddd.sol\":1057:1077  address public owner */\n    tag_97:\n      0x0\n      dup1\n      swap1\n      sload\n      swap1\n      0x100\n      exp\n      swap1\n      div\n      0xffffffffffffffffffffffffffffffffffffffff\n      and\n      dup2\n      jump\t// out\n        /* \"contracts/ddddd.sol\":1906:2014  function ownerAddress() public returns(address) {\r... */\n    tag_101:\n        /* \"contracts/ddddd.sol\":1945:1952  address */\n      0x0\n        /* \"contracts/ddddd.sol\":1973:1983  msg.sender */\n      caller\n        /* \"contracts/ddddd.sol\":1965:1970  owner */\n      0x0\n      dup1\n        /* \"contracts/ddddd.sol\":1965:1983  owner = msg.sender */\n      0x100\n      exp\n      dup2\n      sload\n      dup2\n      0xffffffffffffffffffffffffffffffffffffffff\n      mul\n      not\n      and\n      swap1\n      dup4\n      0xffffffffffffffffffffffffffffffffffffffff\n      and\n      mul\n      or\n      swap1\n      sstore\n      pop\n        /* \"contracts/ddddd.sol\":2001:2006  owner */\n      0x0\n      dup1\n      swap1\n      sload\n      swap1\n      0x100\n      exp\n      swap1\n      div\n      0xffffffffffffffffffffffffffffffffffffffff\n      and\n        /* \"contracts/ddddd.sol\":1994:2006  return owner */\n      swap1\n      pop\n        /* \"contracts/ddddd.sol\":1906:2014  function ownerAddress() public returns(address) {\r... */\n      swap1\n      jump\t// out\n        /* \"contracts/ddddd.sol\":1771:1815  uint256 public vaccinationRecordsCounter = 0 */\n    tag_105:\n      sload(0xf)\n      dup2\n      jump\t// out\n        /* \"contracts/ddddd.sol\":1678:1717  uint256 public MoHPermissionCounter = 0 */\n    tag_109:\n      sload(0xd)\n      dup2\n      jump\t// out\n        /* \"contracts/ddddd.sol\":1084:1109  address[] public userList */\n    tag_114:\n      0x1\n      dup2\n      dup2\n      sload\n      dup2\n      lt\n      iszero\n      iszero\n      tag_241\n      jumpi\n      invalid\n    tag_241:\n      swap1\n      0x0\n      mstore\n      keccak256(0x0, 0x20)\n      add\n      0x0\n      swap2\n      pop\n      sload\n      swap1\n      0x100\n      exp\n      swap1\n      div\n      0xffffffffffffffffffffffffffffffffffffffff\n      and\n      dup2\n      jump\t// out\n        /* \"contracts/ddddd.sol\":7003:7092  function getDoctors() public view returns(address[]) {\r... */\n    tag_118:\n        /* \"contracts/ddddd.sol\":7045:7054  address[] */\n      0x60\n        /* \"contracts/ddddd.sol\":7074:7084  doctorList */\n      0x2\n        /* \"contracts/ddddd.sol\":7067:7084  return doctorList */\n      dup1\n      sload\n      dup1\n      0x20\n      mul\n      0x20\n      add\n      mload(0x40)\n      swap1\n      dup2\n      add\n      0x40\n      mstore\n      dup1\n      swap3\n      swap2\n      swap1\n      dup2\n      dup2\n      mstore\n      0x20\n      add\n      dup3\n      dup1\n      sload\n      dup1\n      iszero\n      tag_244\n      jumpi\n      0x20\n      mul\n      dup3\n      add\n      swap2\n      swap1\n      0x0\n      mstore\n      keccak256(0x0, 0x20)\n      swap1\n    tag_245:\n      dup2\n      0x0\n      swap1\n      sload\n      swap1\n      0x100\n      exp\n      swap1\n      div\n      0xffffffffffffffffffffffffffffffffffffffff\n      and\n      0xffffffffffffffffffffffffffffffffffffffff\n      and\n      dup2\n      mstore\n      0x20\n      add\n      swap1\n      0x1\n      add\n      swap1\n      dup1\n      dup4\n      gt\n      tag_245\n      jumpi\n    tag_244:\n      pop\n      pop\n      pop\n      pop\n      pop\n      swap1\n      pop\n        /* \"contracts/ddddd.sol\":7003:7092  function getDoctors() public view returns(address[]) {\r... */\n      swap1\n      jump\t// out\n        /* \"contracts/ddddd.sol\":8144:8232  function getUserCount() public view returns(uint256) {\r... */\n    tag_122:\n        /* \"contracts/ddddd.sol\":8188:8195  uint256 */\n      0x0\n        /* \"contracts/ddddd.sol\":8215:8224  userCount */\n      sload(0xb)\n        /* \"contracts/ddddd.sol\":8208:8224  return userCount */\n      swap1\n      pop\n        /* \"contracts/ddddd.sol\":8144:8232  function getUserCount() public view returns(uint256) {\r... */\n      swap1\n      jump\t// out\n        /* \"contracts/ddddd.sol\":1824:1893  address public mohAdress = 0xc50C6297f56b033633C30354A854b074749cd2dC */\n    tag_126:\n      0x10\n      0x0\n      swap1\n      sload\n      swap1\n      0x100\n      exp\n      swap1\n      div\n      0xffffffffffffffffffffffffffffffffffffffff\n      and\n      dup2\n      jump\t// out\n        /* \"contracts/ddddd.sol\":6678:6898  function MoHRevokePermission(address _address1, address _address2) public returns(bool success) {\r... */\n    tag_132:\n        /* \"contracts/ddddd.sol\":6760:6772  bool success */\n      0x0\n        /* \"contracts/ddddd.sol\":6807:6816  mohAdress */\n      0x10\n      0x0\n      swap1\n      sload\n      swap1\n      0x100\n      exp\n      swap1\n      div\n      0xffffffffffffffffffffffffffffffffffffffff\n      and\n        /* \"contracts/ddddd.sol\":6793:6816  msg.sender == mohAdress */\n      0xffffffffffffffffffffffffffffffffffffffff\n      and\n        /* \"contracts/ddddd.sol\":6793:6803  msg.sender */\n      caller\n        /* \"contracts/ddddd.sol\":6793:6816  msg.sender == mohAdress */\n      0xffffffffffffffffffffffffffffffffffffffff\n      and\n      eq\n        /* \"contracts/ddddd.sol\":6785:6817  require(msg.sender == mohAdress) */\n      iszero\n      iszero\n      tag_248\n      jumpi\n      0x0\n      dup1\n      revert\n    tag_248:\n        /* \"contracts/ddddd.sol\":6863:6868  false */\n      0x0\n        /* \"contracts/ddddd.sol\":6828:6838  isApproved */\n      0x7\n        /* \"contracts/ddddd.sol\":6828:6849  isApproved[_address1] */\n      0x0\n        /* \"contracts/ddddd.sol\":6839:6848  _address1 */\n      dup6\n        /* \"contracts/ddddd.sol\":6828:6849  isApproved[_address1] */\n      0xffffffffffffffffffffffffffffffffffffffff\n      and\n      0xffffffffffffffffffffffffffffffffffffffff\n      and\n      dup2\n      mstore\n      0x20\n      add\n      swap1\n      dup2\n      mstore\n      0x20\n      add\n      0x0\n      keccak256\n        /* \"contracts/ddddd.sol\":6828:6860  isApproved[_address1][_address2] */\n      0x0\n        /* \"contracts/ddddd.sol\":6850:6859  _address2 */\n      dup5\n        /* \"contracts/ddddd.sol\":6828:6860  isApproved[_address1][_address2] */\n      0xffffffffffffffffffffffffffffffffffffffff\n      and\n      0xffffffffffffffffffffffffffffffffffffffff\n      and\n      dup2\n      mstore\n      0x20\n      add\n      swap1\n      dup2\n      mstore\n      0x20\n      add\n      0x0\n      keccak256\n      0x0\n        /* \"contracts/ddddd.sol\":6828:6868  isApproved[_address1][_address2] = false */\n      0x100\n      exp\n      dup2\n      sload\n      dup2\n      0xff\n      mul\n      not\n      and\n      swap1\n      dup4\n      iszero\n      iszero\n      mul\n      or\n      swap1\n      sstore\n      pop\n        /* \"contracts/ddddd.sol\":6886:6890  true */\n      0x1\n        /* \"contracts/ddddd.sol\":6879:6890  return true */\n      swap1\n      pop\n        /* \"contracts/ddddd.sol\":6678:6898  function MoHRevokePermission(address _address1, address _address2) public returns(bool success) {\r... */\n      swap3\n      swap2\n      pop\n      pop\n      jump\t// out\n        /* \"contracts/ddddd.sol\":1724:1764  uint256 public userPermissionCounter = 0 */\n    tag_136:\n      sload(0xe)\n      dup2\n      jump\t// out\n        /* \"contracts/ddddd.sol\":7782:8128  function searchDoctor(address _address) public view returns(string, string, string, string, string, string, string) {\r... */\n    tag_141:\n        /* \"contracts/ddddd.sol\":7842:7848  string */\n      0x60\n        /* \"contracts/ddddd.sol\":7850:7856  string */\n      dup1\n        /* \"contracts/ddddd.sol\":7858:7864  string */\n      0x60\n        /* \"contracts/ddddd.sol\":7866:7872  string */\n      dup1\n        /* \"contracts/ddddd.sol\":7874:7880  string */\n      0x60\n        /* \"contracts/ddddd.sol\":7882:7888  string */\n      dup1\n        /* \"contracts/ddddd.sol\":7890:7896  string */\n      0x60\n        /* \"contracts/ddddd.sol\":7999:8004  var d */\n      0x0\n        /* \"contracts/ddddd.sol\":7917:7927  isApproved */\n      0x7\n        /* \"contracts/ddddd.sol\":7917:7937  isApproved[_address] */\n      0x0\n        /* \"contracts/ddddd.sol\":7928:7936  _address */\n      dup11\n        /* \"contracts/ddddd.sol\":7917:7937  isApproved[_address] */\n      0xffffffffffffffffffffffffffffffffffffffff\n      and\n      0xffffffffffffffffffffffffffffffffffffffff\n      and\n      dup2\n      mstore\n      0x20\n      add\n      swap1\n      dup2\n      mstore\n      0x20\n      add\n      0x0\n      keccak256\n        /* \"contracts/ddddd.sol\":7917:7949  isApproved[_address][msg.sender] */\n      0x0\n        /* \"contracts/ddddd.sol\":7938:7948  msg.sender */\n      caller\n        /* \"contracts/ddddd.sol\":7917:7949  isApproved[_address][msg.sender] */\n      0xffffffffffffffffffffffffffffffffffffffff\n      and\n      0xffffffffffffffffffffffffffffffffffffffff\n      and\n      dup2\n      mstore\n      0x20\n      add\n      swap1\n      dup2\n      mstore\n      0x20\n      add\n      0x0\n      keccak256\n      0x0\n      swap1\n      sload\n      swap1\n      0x100\n      exp\n      swap1\n      div\n      0xff\n      and\n        /* \"contracts/ddddd.sol\":7909:7950  require(isApproved[_address][msg.sender]) */\n      iszero\n      iszero\n      tag_250\n      jumpi\n      0x0\n      dup1\n      revert\n    tag_250:\n        /* \"contracts/ddddd.sol\":7969:7977  isDoctor */\n      0x9\n        /* \"contracts/ddddd.sol\":7969:7987  isDoctor[_address] */\n      0x0\n        /* \"contracts/ddddd.sol\":7978:7986  _address */\n      dup11\n        /* \"contracts/ddddd.sol\":7969:7987  isDoctor[_address] */\n      0xffffffffffffffffffffffffffffffffffffffff\n      and\n      0xffffffffffffffffffffffffffffffffffffffff\n      and\n      dup2\n      mstore\n      0x20\n      add\n      swap1\n      dup2\n      mstore\n      0x20\n      add\n      0x0\n      keccak256\n      0x0\n      swap1\n      sload\n      swap1\n      0x100\n      exp\n      swap1\n      div\n      0xff\n      and\n        /* \"contracts/ddddd.sol\":7961:7988  require(isDoctor[_address]) */\n      iszero\n      iszero\n      tag_251\n      jumpi\n      0x0\n      dup1\n      revert\n    tag_251:\n        /* \"contracts/ddddd.sol\":8007:8013  doctor */\n      0x5\n        /* \"contracts/ddddd.sol\":8007:8023  doctor[_address] */\n      0x0\n        /* \"contracts/ddddd.sol\":8014:8022  _address */\n      dup11\n        /* \"contracts/ddddd.sol\":8007:8023  doctor[_address] */\n      0xffffffffffffffffffffffffffffffffffffffff\n      and\n      0xffffffffffffffffffffffffffffffffffffffff\n      and\n      dup2\n      mstore\n      0x20\n      add\n      swap1\n      dup2\n      mstore\n      0x20\n      add\n      0x0\n      keccak256\n        /* \"contracts/ddddd.sol\":7999:8023  var d = doctor[_address] */\n      swap1\n      pop\n        /* \"contracts/ddddd.sol\":8052:8053  d */\n      dup1\n        /* \"contracts/ddddd.sol\":8052:8059  d.uaeId */\n      0x0\n      add\n        /* \"contracts/ddddd.sol\":8061:8062  d */\n      dup2\n        /* \"contracts/ddddd.sol\":8061:8067  d.name */\n      0x1\n      add\n        /* \"contracts/ddddd.sol\":8069:8070  d */\n      dup3\n        /* \"contracts/ddddd.sol\":8069:8076  d.phone */\n      0x2\n      add\n        /* \"contracts/ddddd.sol\":8078:8079  d */\n      dup4\n        /* \"contracts/ddddd.sol\":8078:8086  d.gender */\n      0x3\n      add\n        /* \"contracts/ddddd.sol\":8088:8089  d */\n      dup5\n        /* \"contracts/ddddd.sol\":8088:8093  d.dob */\n      0x4\n      add\n        /* \"contracts/ddddd.sol\":8095:8096  d */\n      dup6\n        /* \"contracts/ddddd.sol\":8095:8110  d.qualification */\n      0x7\n      add\n        /* \"contracts/ddddd.sol\":8112:8113  d */\n      dup7\n        /* \"contracts/ddddd.sol\":8112:8119  d.major */\n      0x8\n      add\n        /* \"contracts/ddddd.sol\":8044:8120  return (d.uaeId, d.name, d.phone, d.gender, d.dob, d.qualification, d.major) */\n      dup7\n      dup1\n      sload\n      0x1\n      dup2\n      0x1\n      and\n      iszero\n      0x100\n      mul\n      sub\n      and\n      0x2\n      swap1\n      div\n      dup1\n      0x1f\n      add\n      0x20\n      dup1\n      swap2\n      div\n      mul\n      0x20\n      add\n      mload(0x40)\n      swap1\n      dup2\n      add\n      0x40\n      mstore\n      dup1\n      swap3\n      swap2\n      swap1\n      dup2\n      dup2\n      mstore\n      0x20\n      add\n      dup3\n      dup1\n      sload\n      0x1\n      dup2\n      0x1\n      and\n      iszero\n      0x100\n      mul\n      sub\n      and\n      0x2\n      swap1\n      div\n      dup1\n      iszero\n      tag_252\n      jumpi\n      dup1\n      0x1f\n      lt\n      tag_253\n      jumpi\n      0x100\n      dup1\n      dup4\n      sload\n      div\n      mul\n      dup4\n      mstore\n      swap2\n      0x20\n      add\n      swap2\n      jump(tag_252)\n    tag_253:\n      dup3\n      add\n      swap2\n      swap1\n      0x0\n      mstore\n      keccak256(0x0, 0x20)\n      swap1\n    tag_254:\n      dup2\n      sload\n      dup2\n      mstore\n      swap1\n      0x1\n      add\n      swap1\n      0x20\n      add\n      dup1\n      dup4\n      gt\n      tag_254\n      jumpi\n      dup3\n      swap1\n      sub\n      0x1f\n      and\n      dup3\n      add\n      swap2\n    tag_252:\n      pop\n      pop\n      pop\n      pop\n      pop\n      swap7\n      pop\n      dup6\n      dup1\n      sload\n      0x1\n      dup2\n      0x1\n      and\n      iszero\n      0x100\n      mul\n      sub\n      and\n      0x2\n      swap1\n      div\n      dup1\n      0x1f\n      add\n      0x20\n      dup1\n      swap2\n      div\n      mul\n      0x20\n      add\n      mload(0x40)\n      swap1\n      dup2\n      add\n      0x40\n      mstore\n      dup1\n      swap3\n      swap2\n      swap1\n      dup2\n      dup2\n      mstore\n      0x20\n      add\n      dup3\n      dup1\n      sload\n      0x1\n      dup2\n      0x1\n      and\n      iszero\n      0x100\n      mul\n      sub\n      and\n      0x2\n      swap1\n      div\n      dup1\n      iszero\n      tag_255\n      jumpi\n      dup1\n      0x1f\n      lt\n      tag_256\n      jumpi\n      0x100\n      dup1\n      dup4\n      sload\n      div\n      mul\n      dup4\n      mstore\n      swap2\n      0x20\n      add\n      swap2\n      jump(tag_255)\n    tag_256:\n      dup3\n      add\n      swap2\n      swap1\n      0x0\n      mstore\n      keccak256(0x0, 0x20)\n      swap1\n    tag_257:\n      dup2\n      sload\n      dup2\n      mstore\n      swap1\n      0x1\n      add\n      swap1\n      0x20\n      add\n      dup1\n      dup4\n      gt\n      tag_257\n      jumpi\n      dup3\n      swap1\n      sub\n      0x1f\n      and\n      dup3\n      add\n      swap2\n    tag_255:\n      pop\n      pop\n      pop\n      pop\n      pop\n      swap6\n      pop\n      dup5\n      dup1\n      sload\n      0x1\n      dup2\n      0x1\n      and\n      iszero\n      0x100\n      mul\n      sub\n      and\n      0x2\n      swap1\n      div\n      dup1\n      0x1f\n      add\n      0x20\n      dup1\n      swap2\n      div\n      mul\n      0x20\n      add\n      mload(0x40)\n      swap1\n      dup2\n      add\n      0x40\n      mstore\n      dup1\n      swap3\n      swap2\n      swap1\n      dup2\n      dup2\n      mstore\n      0x20\n      add\n      dup3\n      dup1\n      sload\n      0x1\n      dup2\n      0x1\n      and\n      iszero\n      0x100\n      mul\n      sub\n      and\n      0x2\n      swap1\n      div\n      dup1\n      iszero\n      tag_258\n      jumpi\n      dup1\n      0x1f\n      lt\n      tag_259\n      jumpi\n      0x100\n      dup1\n      dup4\n      sload\n      div\n      mul\n      dup4\n      mstore\n      swap2\n      0x20\n      add\n      swap2\n      jump(tag_258)\n    tag_259:\n      dup3\n      add\n      swap2\n      swap1\n      0x0\n      mstore\n      keccak256(0x0, 0x20)\n      swap1\n    tag_260:\n      dup2\n      sload\n      dup2\n      mstore\n      swap1\n      0x1\n      add\n      swap1\n      0x20\n      add\n      dup1\n      dup4\n      gt\n      tag_260\n      jumpi\n      dup3\n      swap1\n      sub\n      0x1f\n      and\n      dup3\n      add\n      swap2\n    tag_258:\n      pop\n      pop\n      pop\n      pop\n      pop\n      swap5\n      pop\n      dup4\n      dup1\n      sload\n      0x1\n      dup2\n      0x1\n      and\n      iszero\n      0x100\n      mul\n      sub\n      and\n      0x2\n      swap1\n      div\n      dup1\n      0x1f\n      add\n      0x20\n      dup1\n      swap2\n      div\n      mul\n      0x20\n      add\n      mload(0x40)\n      swap1\n      dup2\n      add\n      0x40\n      mstore\n      dup1\n      swap3\n      swap2\n      swap1\n      dup2\n      dup2\n      mstore\n      0x20\n      add\n      dup3\n      dup1\n      sload\n      0x1\n      dup2\n      0x1\n      and\n      iszero\n      0x100\n      mul\n      sub\n      and\n      0x2\n      swap1\n      div\n      dup1\n      iszero\n      tag_261\n      jumpi\n      dup1\n      0x1f\n      lt\n      tag_262\n      jumpi\n      0x100\n      dup1\n      dup4\n      sload\n      div\n      mul\n      dup4\n      mstore\n      swap2\n      0x20\n      add\n      swap2\n      jump(tag_261)\n    tag_262:\n      dup3\n      add\n      swap2\n      swap1\n      0x0\n      mstore\n      keccak256(0x0, 0x20)\n      swap1\n    tag_263:\n      dup2\n      sload\n      dup2\n      mstore\n      swap1\n      0x1\n      add\n      swap1\n      0x20\n      add\n      dup1\n      dup4\n      gt\n      tag_263\n      jumpi\n      dup3\n      swap1\n      sub\n      0x1f\n      and\n      dup3\n      add\n      swap2\n    tag_261:\n      pop\n      pop\n      pop\n      pop\n      pop\n      swap4\n      pop\n      dup3\n      dup1\n      sload\n      0x1\n      dup2\n      0x1\n      and\n      iszero\n      0x100\n      mul\n      sub\n      and\n      0x2\n      swap1\n      div\n      dup1\n      0x1f\n      add\n      0x20\n      dup1\n      swap2\n      div\n      mul\n      0x20\n      add\n      mload(0x40)\n      swap1\n      dup2\n      add\n      0x40\n      mstore\n      dup1\n      swap3\n      swap2\n      swap1\n      dup2\n      dup2\n      mstore\n      0x20\n      add\n      dup3\n      dup1\n      sload\n      0x1\n      dup2\n      0x1\n      and\n      iszero\n      0x100\n      mul\n      sub\n      and\n      0x2\n      swap1\n      div\n      dup1\n      iszero\n      tag_264\n      jumpi\n      dup1\n      0x1f\n      lt\n      tag_265\n      jumpi\n      0x100\n      dup1\n      dup4\n      sload\n      div\n      mul\n      dup4\n      mstore\n      swap2\n      0x20\n      add\n      swap2\n      jump(tag_264)\n    tag_265:\n      dup3\n      add\n      swap2\n      swap1\n      0x0\n      mstore\n      keccak256(0x0, 0x20)\n      swap1\n    tag_266:\n      dup2\n      sload\n      dup2\n      mstore\n      swap1\n      0x1\n      add\n      swap1\n      0x20\n      add\n      dup1\n      dup4\n      gt\n      tag_266\n      jumpi\n      dup3\n      swap1\n      sub\n      0x1f\n      and\n      dup3\n      add\n      swap2\n    tag_264:\n      pop\n      pop\n      pop\n      pop\n      pop\n      swap3\n      pop\n      dup2\n      dup1\n      sload\n      0x1\n      dup2\n      0x1\n      and\n      iszero\n      0x100\n      mul\n      sub\n      and\n      0x2\n      swap1\n      div\n      dup1\n      0x1f\n      add\n      0x20\n      dup1\n      swap2\n      div\n      mul\n      0x20\n      add\n      mload(0x40)\n      swap1\n      dup2\n      add\n      0x40\n      mstore\n      dup1\n      swap3\n      swap2\n      swap1\n      dup2\n      dup2\n      mstore\n      0x20\n      add\n      dup3\n      dup1\n      sload\n      0x1\n      dup2\n      0x1\n      and\n      iszero\n      0x100\n      mul\n      sub\n      and\n      0x2\n      swap1\n      div\n      dup1\n      iszero\n      tag_267\n      jumpi\n      dup1\n      0x1f\n      lt\n      tag_268\n      jumpi\n      0x100\n      dup1\n      dup4\n      sload\n      div\n      mul\n      dup4\n      mstore\n      swap2\n      0x20\n      add\n      swap2\n      jump(tag_267)\n    tag_268:\n      dup3\n      add\n      swap2\n      swap1\n      0x0\n      mstore\n      keccak256(0x0, 0x20)\n      swap1\n    tag_269:\n      dup2\n      sload\n      dup2\n      mstore\n      swap1\n      0x1\n      add\n      swap1\n      0x20\n      add\n      dup1\n      dup4\n      gt\n      tag_269\n      jumpi\n      dup3\n      swap1\n      sub\n      0x1f\n      and\n      dup3\n      add\n      swap2\n    tag_267:\n      pop\n      pop\n      pop\n      pop\n      pop\n      swap2\n      pop\n      dup1\n      dup1\n      sload\n      0x1\n      dup2\n      0x1\n      and\n      iszero\n      0x100\n      mul\n      sub\n      and\n      0x2\n      swap1\n      div\n      dup1\n      0x1f\n      add\n      0x20\n      dup1\n      swap2\n      div\n      mul\n      0x20\n      add\n      mload(0x40)\n      swap1\n      dup2\n      add\n      0x40\n      mstore\n      dup1\n      swap3\n      swap2\n      swap1\n      dup2\n      dup2\n      mstore\n      0x20\n      add\n      dup3\n      dup1\n      sload\n      0x1\n      dup2\n      0x1\n      and\n      iszero\n      0x100\n      mul\n      sub\n      and\n      0x2\n      swap1\n      div\n      dup1\n      iszero\n      tag_270\n      jumpi\n      dup1\n      0x1f\n      lt\n      tag_271\n      jumpi\n      0x100\n      dup1\n      dup4\n      sload\n      div\n      mul\n      dup4\n      mstore\n      swap2\n      0x20\n      add\n      swap2\n      jump(tag_270)\n    tag_271:\n      dup3\n      add\n      swap2\n      swap1\n      0x0\n      mstore\n      keccak256(0x0, 0x20)\n      swap1\n    tag_272:\n      dup2\n      sload\n      dup2\n      mstore\n      swap1\n      0x1\n      add\n      swap1\n      0x20\n      add\n      dup1\n      dup4\n      gt\n      tag_272\n      jumpi\n      dup3\n      swap1\n      sub\n      0x1f\n      and\n      dup3\n      add\n      swap2\n    tag_270:\n      pop\n      pop\n      pop\n      pop\n      pop\n      swap1\n      pop\n      swap8\n      pop\n      swap8\n      pop\n      swap8\n      pop\n      swap8\n      pop\n      swap8\n      pop\n      swap8\n      pop\n      swap8\n      pop\n        /* \"contracts/ddddd.sol\":7782:8128  function searchDoctor(address _address) public view returns(string, string, string, string, string, string, string) {\r... */\n      pop\n      swap2\n      swap4\n      swap6\n      swap8\n      swap1\n      swap3\n      swap5\n      swap7\n      pop\n      jump\t// out\n        /* \"contracts/ddddd.sol\":6250:6502  function givePermissionByMoH(address _address1, address _address2) public returns(bool success) {\r... */\n    tag_147:\n        /* \"contracts/ddddd.sol\":6332:6344  bool success */\n      0x0\n        /* \"contracts/ddddd.sol\":6379:6388  mohAdress */\n      0x10\n      0x0\n      swap1\n      sload\n      swap1\n      0x100\n      exp\n      swap1\n      div\n      0xffffffffffffffffffffffffffffffffffffffff\n      and\n        /* \"contracts/ddddd.sol\":6365:6388  msg.sender == mohAdress */\n      0xffffffffffffffffffffffffffffffffffffffff\n      and\n        /* \"contracts/ddddd.sol\":6365:6375  msg.sender */\n      caller\n        /* \"contracts/ddddd.sol\":6365:6388  msg.sender == mohAdress */\n      0xffffffffffffffffffffffffffffffffffffffff\n      and\n      eq\n        /* \"contracts/ddddd.sol\":6357:6389  require(msg.sender == mohAdress) */\n      iszero\n      iszero\n      tag_274\n      jumpi\n      0x0\n      dup1\n      revert\n    tag_274:\n        /* \"contracts/ddddd.sol\":6435:6439  true */\n      0x1\n        /* \"contracts/ddddd.sol\":6400:6410  isApproved */\n      0x7\n        /* \"contracts/ddddd.sol\":6400:6421  isApproved[_address1] */\n      0x0\n        /* \"contracts/ddddd.sol\":6411:6420  _address1 */\n      dup6\n        /* \"contracts/ddddd.sol\":6400:6421  isApproved[_address1] */\n      0xffffffffffffffffffffffffffffffffffffffff\n      and\n      0xffffffffffffffffffffffffffffffffffffffff\n      and\n      dup2\n      mstore\n      0x20\n      add\n      swap1\n      dup2\n      mstore\n      0x20\n      add\n      0x0\n      keccak256\n        /* \"contracts/ddddd.sol\":6400:6432  isApproved[_address1][_address2] */\n      0x0\n        /* \"contracts/ddddd.sol\":6422:6431  _address2 */\n      dup5\n        /* \"contracts/ddddd.sol\":6400:6432  isApproved[_address1][_address2] */\n      0xffffffffffffffffffffffffffffffffffffffff\n      and\n      0xffffffffffffffffffffffffffffffffffffffff\n      and\n      dup2\n      mstore\n      0x20\n      add\n      swap1\n      dup2\n      mstore\n      0x20\n      add\n      0x0\n      keccak256\n      0x0\n        /* \"contracts/ddddd.sol\":6400:6439  isApproved[_address1][_address2] = true */\n      0x100\n      exp\n      dup2\n      sload\n      dup2\n      0xff\n      mul\n      not\n      and\n      swap1\n      dup4\n      iszero\n      iszero\n      mul\n      or\n      swap1\n      sstore\n      pop\n        /* \"contracts/ddddd.sol\":6450:6470  MoHPermissionCounter */\n      0xd\n      0x0\n        /* \"contracts/ddddd.sol\":6450:6472  MoHPermissionCounter++ */\n      dup2\n      sload\n      dup1\n      swap3\n      swap2\n      swap1\n      0x1\n      add\n      swap2\n      swap1\n      pop\n      sstore\n      pop\n        /* \"contracts/ddddd.sol\":6490:6494  true */\n      0x1\n        /* \"contracts/ddddd.sol\":6483:6494  return true */\n      swap1\n      pop\n        /* \"contracts/ddddd.sol\":6250:6502  function givePermissionByMoH(address _address1, address _address2) public returns(bool success) {\r... */\n      swap3\n      swap2\n      pop\n      pop\n      jump\t// out\n        /* \"contracts/ddddd.sol\":8466:8576  function getMoHPermissionCounter() public view returns(uint256) {\r... */\n    tag_151:\n        /* \"contracts/ddddd.sol\":8521:8528  uint256 */\n      0x0\n        /* \"contracts/ddddd.sol\":8548:8568  MoHPermissionCounter */\n      sload(0xd)\n        /* \"contracts/ddddd.sol\":8541:8568  return MoHPermissionCounter */\n      swap1\n      pop\n        /* \"contracts/ddddd.sol\":8466:8576  function getMoHPermissionCounter() public view returns(uint256) {\r... */\n      swap1\n      jump\t// out\n        /* \"contracts/ddddd.sol\":5072:6041  function createVaccineRecord(address _address1, address _doctor, string _vaccine, string _description, string _typeOfVaccine, uint _creationDate, address _userEadderss, address _doctorEaddress) public returns(bool success) {\r... */\n    tag_157:\n        /* \"contracts/ddddd.sol\":5281:5293  bool success */\n      0x0\n        /* \"contracts/ddddd.sol\":5510:5515  var v */\n      dup1\n        /* \"contracts/ddddd.sol\":5328:5337  mohAdress */\n      0x10\n      0x0\n      swap1\n      sload\n      swap1\n      0x100\n      exp\n      swap1\n      div\n      0xffffffffffffffffffffffffffffffffffffffff\n      and\n        /* \"contracts/ddddd.sol\":5314:5337  msg.sender == mohAdress */\n      0xffffffffffffffffffffffffffffffffffffffff\n      and\n        /* \"contracts/ddddd.sol\":5314:5324  msg.sender */\n      caller\n        /* \"contracts/ddddd.sol\":5314:5337  msg.sender == mohAdress */\n      0xffffffffffffffffffffffffffffffffffffffff\n      and\n      eq\n        /* \"contracts/ddddd.sol\":5306:5338  require(msg.sender == mohAdress) */\n      iszero\n      iszero\n      tag_277\n      jumpi\n      0x0\n      dup1\n      revert\n    tag_277:\n        /* \"contracts/ddddd.sol\":5478:5487  isVaccine */\n      0xa\n        /* \"contracts/ddddd.sol\":5478:5498  isVaccine[_address1] */\n      0x0\n        /* \"contracts/ddddd.sol\":5488:5497  _address1 */\n      dup12\n        /* \"contracts/ddddd.sol\":5478:5498  isVaccine[_address1] */\n      0xffffffffffffffffffffffffffffffffffffffff\n      and\n      0xffffffffffffffffffffffffffffffffffffffff\n      and\n      dup2\n      mstore\n      0x20\n      add\n      swap1\n      dup2\n      mstore\n      0x20\n      add\n      0x0\n      keccak256\n      0x0\n      swap1\n      sload\n      swap1\n      0x100\n      exp\n      swap1\n      div\n      0xff\n      and\n        /* \"contracts/ddddd.sol\":5477:5498  !isVaccine[_address1] */\n      iszero\n        /* \"contracts/ddddd.sol\":5469:5499  require(!isVaccine[_address1]) */\n      iszero\n      iszero\n      tag_278\n      jumpi\n      0x0\n      dup1\n      revert\n    tag_278:\n        /* \"contracts/ddddd.sol\":5518:5529  vaccination */\n      0x6\n        /* \"contracts/ddddd.sol\":5518:5540  vaccination[_address1] */\n      0x0\n        /* \"contracts/ddddd.sol\":5530:5539  _address1 */\n      dup12\n        /* \"contracts/ddddd.sol\":5518:5540  vaccination[_address1] */\n      0xffffffffffffffffffffffffffffffffffffffff\n      and\n      0xffffffffffffffffffffffffffffffffffffffff\n      and\n      dup2\n      mstore\n      0x20\n      add\n      swap1\n      dup2\n      mstore\n      0x20\n      add\n      0x0\n      keccak256\n        /* \"contracts/ddddd.sol\":5510:5540  var v = vaccination[_address1] */\n      swap1\n      pop\n        /* \"contracts/ddddd.sol\":5619:5627  _vaccine */\n      dup8\n        /* \"contracts/ddddd.sol\":5607:5608  v */\n      dup2\n        /* \"contracts/ddddd.sol\":5607:5616  v.vaccine */\n      0x0\n      add\n        /* \"contracts/ddddd.sol\":5607:5627  v.vaccine = _vaccine */\n      swap1\n      dup1\n      mload\n      swap1\n      0x20\n      add\n      swap1\n      tag_279\n      swap3\n      swap2\n      swap1\n      jump\t// in(tag_194)\n    tag_279:\n      pop\n        /* \"contracts/ddddd.sol\":5654:5666  _description */\n      dup7\n        /* \"contracts/ddddd.sol\":5638:5639  v */\n      dup2\n        /* \"contracts/ddddd.sol\":5638:5651  v.description */\n      0x1\n      add\n        /* \"contracts/ddddd.sol\":5638:5666  v.description = _description */\n      swap1\n      dup1\n      mload\n      swap1\n      0x20\n      add\n      swap1\n      tag_280\n      swap3\n      swap2\n      swap1\n      jump\t// in(tag_194)\n    tag_280:\n      pop\n        /* \"contracts/ddddd.sol\":5695:5709  _typeOfVaccine */\n      dup6\n        /* \"contracts/ddddd.sol\":5677:5678  v */\n      dup2\n        /* \"contracts/ddddd.sol\":5677:5692  v.typeOfVaccine */\n      0x2\n      add\n        /* \"contracts/ddddd.sol\":5677:5709  v.typeOfVaccine = _typeOfVaccine */\n      swap1\n      dup1\n      mload\n      swap1\n      0x20\n      add\n      swap1\n      tag_281\n      swap3\n      swap2\n      swap1\n      jump\t// in(tag_194)\n    tag_281:\n      pop\n        /* \"contracts/ddddd.sol\":5850:5863  _creationDate */\n      dup5\n        /* \"contracts/ddddd.sol\":5833:5834  v */\n      dup2\n        /* \"contracts/ddddd.sol\":5833:5847  v.creationDate */\n      0x3\n      add\n        /* \"contracts/ddddd.sol\":5833:5863  v.creationDate = _creationDate */\n      dup2\n      swap1\n      sstore\n      pop\n        /* \"contracts/ddddd.sol\":5891:5904  _userEadderss */\n      dup4\n        /* \"contracts/ddddd.sol\":5874:5875  v */\n      dup2\n        /* \"contracts/ddddd.sol\":5874:5888  v.userEadderss */\n      0x4\n      add\n      0x0\n        /* \"contracts/ddddd.sol\":5874:5904  v.userEadderss = _userEadderss */\n      0x100\n      exp\n      dup2\n      sload\n      dup2\n      0xffffffffffffffffffffffffffffffffffffffff\n      mul\n      not\n      and\n      swap1\n      dup4\n      0xffffffffffffffffffffffffffffffffffffffff\n      and\n      mul\n      or\n      swap1\n      sstore\n      pop\n        /* \"contracts/ddddd.sol\":5934:5949  _doctorEaddress */\n      dup3\n        /* \"contracts/ddddd.sol\":5915:5916  v */\n      dup2\n        /* \"contracts/ddddd.sol\":5915:5931  v.doctorEaddress */\n      0x5\n      add\n      0x0\n        /* \"contracts/ddddd.sol\":5915:5949  v.doctorEaddress = _doctorEaddress */\n      0x100\n      exp\n      dup2\n      sload\n      dup2\n      0xffffffffffffffffffffffffffffffffffffffff\n      mul\n      not\n      and\n      swap1\n      dup4\n      0xffffffffffffffffffffffffffffffffffffffff\n      and\n      mul\n      or\n      swap1\n      sstore\n      pop\n        /* \"contracts/ddddd.sol\":5962:5977  vaccinationList */\n      0x3\n        /* \"contracts/ddddd.sol\":5983:5992  _address1 */\n      dup11\n        /* \"contracts/ddddd.sol\":5962:5993  vaccinationList.push(_address1) */\n      swap1\n      dup1\n        /* \"--CODEGEN--\":39:40   */\n      0x1\n        /* \"--CODEGEN--\":33:36   */\n      dup2\n        /* \"--CODEGEN--\":27:37   */\n      sload\n        /* \"--CODEGEN--\":23:41   */\n      add\n        /* \"--CODEGEN--\":57:67   */\n      dup1\n        /* \"--CODEGEN--\":52:55   */\n      dup3\n        /* \"--CODEGEN--\":45:68   */\n      sstore\n        /* \"--CODEGEN--\":79:89   */\n      dup1\n        /* \"--CODEGEN--\":72:89   */\n      swap2\n      pop\n        /* \"--CODEGEN--\":0:93   */\n      pop\n        /* \"contracts/ddddd.sol\":5962:5993  vaccinationList.push(_address1) */\n      swap1\n      0x1\n      dup3\n      sub\n      swap1\n      0x0\n      mstore\n      keccak256(0x0, 0x20)\n      add\n      0x0\n      swap1\n      swap2\n      swap3\n      swap1\n      swap2\n      swap1\n      swap2\n      0x100\n      exp\n      dup2\n      sload\n      dup2\n      0xffffffffffffffffffffffffffffffffffffffff\n      mul\n      not\n      and\n      swap1\n      dup4\n      0xffffffffffffffffffffffffffffffffffffffff\n      and\n      mul\n      or\n      swap1\n      sstore\n      pop\n      pop\n        /* \"contracts/ddddd.sol\":6004:6029  vaccinationRecordsCounter */\n      0xf\n      0x0\n        /* \"contracts/ddddd.sol\":6004:6031  vaccinationRecordsCounter++ */\n      dup2\n      sload\n      dup1\n      swap3\n      swap2\n      swap1\n      0x1\n      add\n      swap2\n      swap1\n      pop\n      sstore\n      pop\n        /* \"contracts/ddddd.sol\":5072:6041  function createVaccineRecord(address _address1, address _doctor, string _vaccine, string _description, string _typeOfVaccine, uint _creationDate, address _userEadderss, address _doctorEaddress) public returns(bool success) {\r... */\n      pop\n      swap9\n      swap8\n      pop\n      pop\n      pop\n      pop\n      pop\n      pop\n      pop\n      pop\n      jump\t// out\n        /* \"contracts/ddddd.sol\":1150:1182  address[] public vaccinationList */\n    tag_162:\n      0x3\n      dup2\n      dup2\n      sload\n      dup2\n      lt\n      iszero\n      iszero\n      tag_283\n      jumpi\n      invalid\n    tag_283:\n      swap1\n      0x0\n      mstore\n      keccak256(0x0, 0x20)\n      add\n      0x0\n      swap2\n      pop\n      sload\n      swap1\n      0x100\n      exp\n      swap1\n      div\n      0xffffffffffffffffffffffffffffffffffffffff\n      and\n      dup2\n      jump\t// out\n        /* \"contracts/ddddd.sol\":89:8581  contract ddddd {\r... */\n    tag_194:\n      dup3\n      dup1\n      sload\n      0x1\n      dup2\n      0x1\n      and\n      iszero\n      0x100\n      mul\n      sub\n      and\n      0x2\n      swap1\n      div\n      swap1\n      0x0\n      mstore\n      keccak256(0x0, 0x20)\n      swap1\n      0x1f\n      add\n      0x20\n      swap1\n      div\n      dup2\n      add\n      swap3\n      dup3\n      0x1f\n      lt\n      tag_286\n      jumpi\n      dup1\n      mload\n      not(0xff)\n      and\n      dup4\n      dup1\n      add\n      or\n      dup6\n      sstore\n      jump(tag_285)\n    tag_286:\n      dup3\n      dup1\n      add\n      0x1\n      add\n      dup6\n      sstore\n      dup3\n      iszero\n      tag_285\n      jumpi\n      swap2\n      dup3\n      add\n    tag_287:\n      dup3\n      dup2\n      gt\n      iszero\n      tag_288\n      jumpi\n      dup3\n      mload\n      dup3\n      sstore\n      swap2\n      0x20\n      add\n      swap2\n      swap1\n      0x1\n      add\n      swap1\n      jump(tag_287)\n    tag_288:\n    tag_285:\n      pop\n      swap1\n      pop\n      tag_289\n      swap2\n      swap1\n      jump\t// in(tag_290)\n    tag_289:\n      pop\n      swap1\n      jump\t// out\n    tag_290:\n      tag_291\n      swap2\n      swap1\n    tag_292:\n      dup1\n      dup3\n      gt\n      iszero\n      tag_293\n      jumpi\n      0x0\n      dup2\n      0x0\n      swap1\n      sstore\n      pop\n      0x1\n      add\n      jump(tag_292)\n    tag_293:\n      pop\n      swap1\n      jump\n    tag_291:\n      swap1\n      jump\t// out\n        /* \"--CODEGEN--\":5:123   */\n    tag_295:\n      0x0\n        /* \"--CODEGEN--\":72:118   */\n      tag_296\n        /* \"--CODEGEN--\":110:116   */\n      dup3\n        /* \"--CODEGEN--\":97:117   */\n      calldataload\n        /* \"--CODEGEN--\":72:118   */\n      jump(tag_297)\n    tag_296:\n        /* \"--CODEGEN--\":63:118   */\n      swap1\n      pop\n        /* \"--CODEGEN--\":57:123   */\n      swap3\n      swap2\n      pop\n      pop\n      jump\n        /* \"--CODEGEN--\":131:573   */\n    tag_299:\n      0x0\n        /* \"--CODEGEN--\":233:236   */\n      dup3\n        /* \"--CODEGEN--\":226:230   */\n      0x1f\n        /* \"--CODEGEN--\":218:224   */\n      dup4\n        /* \"--CODEGEN--\":214:231   */\n      add\n        /* \"--CODEGEN--\":210:237   */\n      slt\n        /* \"--CODEGEN--\":203:238   */\n      iszero\n        /* \"--CODEGEN--\":200:202   */\n      iszero\n      tag_300\n      jumpi\n        /* \"--CODEGEN--\":251:252   */\n      0x0\n        /* \"--CODEGEN--\":248:249   */\n      dup1\n        /* \"--CODEGEN--\":241:253   */\n      revert\n        /* \"--CODEGEN--\":200:202   */\n    tag_300:\n        /* \"--CODEGEN--\":288:294   */\n      dup2\n        /* \"--CODEGEN--\":275:295   */\n      calldataload\n        /* \"--CODEGEN--\":310:375   */\n      tag_301\n        /* \"--CODEGEN--\":325:374   */\n      tag_302\n        /* \"--CODEGEN--\":367:373   */\n      dup3\n        /* \"--CODEGEN--\":325:374   */\n      jump(tag_303)\n    tag_302:\n        /* \"--CODEGEN--\":310:375   */\n      jump(tag_304)\n    tag_301:\n        /* \"--CODEGEN--\":301:375   */\n      swap2\n      pop\n        /* \"--CODEGEN--\":395:401   */\n      dup1\n        /* \"--CODEGEN--\":388:393   */\n      dup3\n        /* \"--CODEGEN--\":381:402   */\n      mstore\n        /* \"--CODEGEN--\":431:435   */\n      0x20\n        /* \"--CODEGEN--\":423:429   */\n      dup4\n        /* \"--CODEGEN--\":419:436   */\n      add\n        /* \"--CODEGEN--\":464:468   */\n      0x20\n        /* \"--CODEGEN--\":457:462   */\n      dup4\n        /* \"--CODEGEN--\":453:469   */\n      add\n        /* \"--CODEGEN--\":499:502   */\n      dup6\n        /* \"--CODEGEN--\":490:496   */\n      dup4\n        /* \"--CODEGEN--\":485:488   */\n      dup4\n        /* \"--CODEGEN--\":481:497   */\n      add\n        /* \"--CODEGEN--\":478:503   */\n      gt\n        /* \"--CODEGEN--\":475:477   */\n      iszero\n      tag_305\n      jumpi\n        /* \"--CODEGEN--\":516:517   */\n      0x0\n        /* \"--CODEGEN--\":513:514   */\n      dup1\n        /* \"--CODEGEN--\":506:518   */\n      revert\n        /* \"--CODEGEN--\":475:477   */\n    tag_305:\n        /* \"--CODEGEN--\":526:567   */\n      tag_306\n        /* \"--CODEGEN--\":560:566   */\n      dup4\n        /* \"--CODEGEN--\":555:558   */\n      dup3\n        /* \"--CODEGEN--\":550:553   */\n      dup5\n        /* \"--CODEGEN--\":526:567   */\n      jump(tag_307)\n    tag_306:\n        /* \"--CODEGEN--\":193:573   */\n      pop\n      pop\n      pop\n      swap3\n      swap2\n      pop\n      pop\n      jump\n        /* \"--CODEGEN--\":581:699   */\n    tag_309:\n      0x0\n        /* \"--CODEGEN--\":648:694   */\n      tag_310\n        /* \"--CODEGEN--\":686:692   */\n      dup3\n        /* \"--CODEGEN--\":673:693   */\n      calldataload\n        /* \"--CODEGEN--\":648:694   */\n      jump(tag_311)\n    tag_310:\n        /* \"--CODEGEN--\":639:694   */\n      swap1\n      pop\n        /* \"--CODEGEN--\":633:699   */\n      swap3\n      swap2\n      pop\n      pop\n      jump\n        /* \"--CODEGEN--\":706:947   */\n    tag_43:\n      0x0\n        /* \"--CODEGEN--\":810:812   */\n      0x20\n        /* \"--CODEGEN--\":798:807   */\n      dup3\n        /* \"--CODEGEN--\":789:796   */\n      dup5\n        /* \"--CODEGEN--\":785:808   */\n      sub\n        /* \"--CODEGEN--\":781:813   */\n      slt\n        /* \"--CODEGEN--\":778:780   */\n      iszero\n      tag_313\n      jumpi\n        /* \"--CODEGEN--\":826:827   */\n      0x0\n        /* \"--CODEGEN--\":823:824   */\n      dup1\n        /* \"--CODEGEN--\":816:828   */\n      revert\n        /* \"--CODEGEN--\":778:780   */\n    tag_313:\n        /* \"--CODEGEN--\":861:862   */\n      0x0\n        /* \"--CODEGEN--\":878:931   */\n      tag_314\n        /* \"--CODEGEN--\":923:930   */\n      dup5\n        /* \"--CODEGEN--\":914:920   */\n      dup3\n        /* \"--CODEGEN--\":903:912   */\n      dup6\n        /* \"--CODEGEN--\":899:921   */\n      add\n        /* \"--CODEGEN--\":878:931   */\n      jump(tag_295)\n    tag_314:\n        /* \"--CODEGEN--\":868:931   */\n      swap2\n      pop\n        /* \"--CODEGEN--\":840:937   */\n      pop\n        /* \"--CODEGEN--\":772:947   */\n      swap3\n      swap2\n      pop\n      pop\n      jump\n        /* \"--CODEGEN--\":954:1320   */\n    tag_131:\n      0x0\n      dup1\n        /* \"--CODEGEN--\":1075:1077   */\n      0x40\n        /* \"--CODEGEN--\":1063:1072   */\n      dup4\n        /* \"--CODEGEN--\":1054:1061   */\n      dup6\n        /* \"--CODEGEN--\":1050:1073   */\n      sub\n        /* \"--CODEGEN--\":1046:1078   */\n      slt\n        /* \"--CODEGEN--\":1043:1045   */\n      iszero\n      tag_316\n      jumpi\n        /* \"--CODEGEN--\":1091:1092   */\n      0x0\n        /* \"--CODEGEN--\":1088:1089   */\n      dup1\n        /* \"--CODEGEN--\":1081:1093   */\n      revert\n        /* \"--CODEGEN--\":1043:1045   */\n    tag_316:\n        /* \"--CODEGEN--\":1126:1127   */\n      0x0\n        /* \"--CODEGEN--\":1143:1196   */\n      tag_317\n        /* \"--CODEGEN--\":1188:1195   */\n      dup6\n        /* \"--CODEGEN--\":1179:1185   */\n      dup3\n        /* \"--CODEGEN--\":1168:1177   */\n      dup7\n        /* \"--CODEGEN--\":1164:1186   */\n      add\n        /* \"--CODEGEN--\":1143:1196   */\n      jump(tag_295)\n    tag_317:\n        /* \"--CODEGEN--\":1133:1196   */\n      swap3\n      pop\n        /* \"--CODEGEN--\":1105:1202   */\n      pop\n        /* \"--CODEGEN--\":1233:1235   */\n      0x20\n        /* \"--CODEGEN--\":1251:1304   */\n      tag_318\n        /* \"--CODEGEN--\":1296:1303   */\n      dup6\n        /* \"--CODEGEN--\":1287:1293   */\n      dup3\n        /* \"--CODEGEN--\":1276:1285   */\n      dup7\n        /* \"--CODEGEN--\":1272:1294   */\n      add\n        /* \"--CODEGEN--\":1251:1304   */\n      jump(tag_295)\n    tag_318:\n        /* \"--CODEGEN--\":1241:1304   */\n      swap2\n      pop\n        /* \"--CODEGEN--\":1212:1310   */\n      pop\n        /* \"--CODEGEN--\":1037:1320   */\n      swap3\n      pop\n      swap3\n      swap1\n      pop\n      jump\n        /* \"--CODEGEN--\":1327:2766   */\n    tag_156:\n      0x0\n      dup1\n      0x0\n      dup1\n      0x0\n      dup1\n      0x0\n      dup1\n        /* \"--CODEGEN--\":1580:1583   */\n      0x100\n        /* \"--CODEGEN--\":1568:1577   */\n      dup10\n        /* \"--CODEGEN--\":1559:1566   */\n      dup12\n        /* \"--CODEGEN--\":1555:1578   */\n      sub\n        /* \"--CODEGEN--\":1551:1584   */\n      slt\n        /* \"--CODEGEN--\":1548:1550   */\n      iszero\n      tag_320\n      jumpi\n        /* \"--CODEGEN--\":1597:1598   */\n      0x0\n        /* \"--CODEGEN--\":1594:1595   */\n      dup1\n        /* \"--CODEGEN--\":1587:1599   */\n      revert\n        /* \"--CODEGEN--\":1548:1550   */\n    tag_320:\n        /* \"--CODEGEN--\":1632:1633   */\n      0x0\n        /* \"--CODEGEN--\":1649:1702   */\n      tag_321\n        /* \"--CODEGEN--\":1694:1701   */\n      dup12\n        /* \"--CODEGEN--\":1685:1691   */\n      dup3\n        /* \"--CODEGEN--\":1674:1683   */\n      dup13\n        /* \"--CODEGEN--\":1670:1692   */\n      add\n        /* \"--CODEGEN--\":1649:1702   */\n      jump(tag_295)\n    tag_321:\n        /* \"--CODEGEN--\":1639:1702   */\n      swap9\n      pop\n        /* \"--CODEGEN--\":1611:1708   */\n      pop\n        /* \"--CODEGEN--\":1739:1741   */\n      0x20\n        /* \"--CODEGEN--\":1757:1810   */\n      tag_322\n        /* \"--CODEGEN--\":1802:1809   */\n      dup12\n        /* \"--CODEGEN--\":1793:1799   */\n      dup3\n        /* \"--CODEGEN--\":1782:1791   */\n      dup13\n        /* \"--CODEGEN--\":1778:1800   */\n      add\n        /* \"--CODEGEN--\":1757:1810   */\n      jump(tag_295)\n    tag_322:\n        /* \"--CODEGEN--\":1747:1810   */\n      swap8\n      pop\n        /* \"--CODEGEN--\":1718:1816   */\n      pop\n        /* \"--CODEGEN--\":1875:1877   */\n      0x40\n        /* \"--CODEGEN--\":1864:1873   */\n      dup10\n        /* \"--CODEGEN--\":1860:1878   */\n      add\n        /* \"--CODEGEN--\":1847:1879   */\n      calldataload\n        /* \"--CODEGEN--\":1899:1917   */\n      0xffffffffffffffff\n        /* \"--CODEGEN--\":1891:1897   */\n      dup2\n        /* \"--CODEGEN--\":1888:1918   */\n      gt\n        /* \"--CODEGEN--\":1885:1887   */\n      iszero\n      tag_323\n      jumpi\n        /* \"--CODEGEN--\":1931:1932   */\n      0x0\n        /* \"--CODEGEN--\":1928:1929   */\n      dup1\n        /* \"--CODEGEN--\":1921:1933   */\n      revert\n        /* \"--CODEGEN--\":1885:1887   */\n    tag_323:\n        /* \"--CODEGEN--\":1951:2014   */\n      tag_324\n        /* \"--CODEGEN--\":2006:2013   */\n      dup12\n        /* \"--CODEGEN--\":1997:2003   */\n      dup3\n        /* \"--CODEGEN--\":1986:1995   */\n      dup13\n        /* \"--CODEGEN--\":1982:2004   */\n      add\n        /* \"--CODEGEN--\":1951:2014   */\n      jump(tag_299)\n    tag_324:\n        /* \"--CODEGEN--\":1941:2014   */\n      swap7\n      pop\n        /* \"--CODEGEN--\":1826:2020   */\n      pop\n        /* \"--CODEGEN--\":2079:2081   */\n      0x60\n        /* \"--CODEGEN--\":2068:2077   */\n      dup10\n        /* \"--CODEGEN--\":2064:2082   */\n      add\n        /* \"--CODEGEN--\":2051:2083   */\n      calldataload\n        /* \"--CODEGEN--\":2103:2121   */\n      0xffffffffffffffff\n        /* \"--CODEGEN--\":2095:2101   */\n      dup2\n        /* \"--CODEGEN--\":2092:2122   */\n      gt\n        /* \"--CODEGEN--\":2089:2091   */\n      iszero\n      tag_325\n      jumpi\n        /* \"--CODEGEN--\":2135:2136   */\n      0x0\n        /* \"--CODEGEN--\":2132:2133   */\n      dup1\n        /* \"--CODEGEN--\":2125:2137   */\n      revert\n        /* \"--CODEGEN--\":2089:2091   */\n    tag_325:\n        /* \"--CODEGEN--\":2155:2218   */\n      tag_326\n        /* \"--CODEGEN--\":2210:2217   */\n      dup12\n        /* \"--CODEGEN--\":2201:2207   */\n      dup3\n        /* \"--CODEGEN--\":2190:2199   */\n      dup13\n        /* \"--CODEGEN--\":2186:2208   */\n      add\n        /* \"--CODEGEN--\":2155:2218   */\n      jump(tag_299)\n    tag_326:\n        /* \"--CODEGEN--\":2145:2218   */\n      swap6\n      pop\n        /* \"--CODEGEN--\":2030:2224   */\n      pop\n        /* \"--CODEGEN--\":2283:2286   */\n      0x80\n        /* \"--CODEGEN--\":2272:2281   */\n      dup10\n        /* \"--CODEGEN--\":2268:2287   */\n      add\n        /* \"--CODEGEN--\":2255:2288   */\n      calldataload\n        /* \"--CODEGEN--\":2308:2326   */\n      0xffffffffffffffff\n        /* \"--CODEGEN--\":2300:2306   */\n      dup2\n        /* \"--CODEGEN--\":2297:2327   */\n      gt\n        /* \"--CODEGEN--\":2294:2296   */\n      iszero\n      tag_327\n      jumpi\n        /* \"--CODEGEN--\":2340:2341   */\n      0x0\n        /* \"--CODEGEN--\":2337:2338   */\n      dup1\n        /* \"--CODEGEN--\":2330:2342   */\n      revert\n        /* \"--CODEGEN--\":2294:2296   */\n    tag_327:\n        /* \"--CODEGEN--\":2360:2423   */\n      tag_328\n        /* \"--CODEGEN--\":2415:2422   */\n      dup12\n        /* \"--CODEGEN--\":2406:2412   */\n      dup3\n        /* \"--CODEGEN--\":2395:2404   */\n      dup13\n        /* \"--CODEGEN--\":2391:2413   */\n      add\n        /* \"--CODEGEN--\":2360:2423   */\n      jump(tag_299)\n    tag_328:\n        /* \"--CODEGEN--\":2350:2423   */\n      swap5\n      pop\n        /* \"--CODEGEN--\":2234:2429   */\n      pop\n        /* \"--CODEGEN--\":2460:2463   */\n      0xa0\n        /* \"--CODEGEN--\":2479:2532   */\n      tag_329\n        /* \"--CODEGEN--\":2524:2531   */\n      dup12\n        /* \"--CODEGEN--\":2515:2521   */\n      dup3\n        /* \"--CODEGEN--\":2504:2513   */\n      dup13\n        /* \"--CODEGEN--\":2500:2522   */\n      add\n        /* \"--CODEGEN--\":2479:2532   */\n      jump(tag_309)\n    tag_329:\n        /* \"--CODEGEN--\":2469:2532   */\n      swap4\n      pop\n        /* \"--CODEGEN--\":2439:2538   */\n      pop\n        /* \"--CODEGEN--\":2569:2572   */\n      0xc0\n        /* \"--CODEGEN--\":2588:2641   */\n      tag_330\n        /* \"--CODEGEN--\":2633:2640   */\n      dup12\n        /* \"--CODEGEN--\":2624:2630   */\n      dup3\n        /* \"--CODEGEN--\":2613:2622   */\n      dup13\n        /* \"--CODEGEN--\":2609:2631   */\n      add\n        /* \"--CODEGEN--\":2588:2641   */\n      jump(tag_295)\n    tag_330:\n        /* \"--CODEGEN--\":2578:2641   */\n      swap3\n      pop\n        /* \"--CODEGEN--\":2548:2647   */\n      pop\n        /* \"--CODEGEN--\":2678:2681   */\n      0xe0\n        /* \"--CODEGEN--\":2697:2750   */\n      tag_331\n        /* \"--CODEGEN--\":2742:2749   */\n      dup12\n        /* \"--CODEGEN--\":2733:2739   */\n      dup3\n        /* \"--CODEGEN--\":2722:2731   */\n      dup13\n        /* \"--CODEGEN--\":2718:2740   */\n      add\n        /* \"--CODEGEN--\":2697:2750   */\n      jump(tag_295)\n    tag_331:\n        /* \"--CODEGEN--\":2687:2750   */\n      swap2\n      pop\n        /* \"--CODEGEN--\":2657:2756   */\n      pop\n        /* \"--CODEGEN--\":1542:2766   */\n      swap3\n      swap6\n      swap9\n      pop\n      swap3\n      swap6\n      swap9\n      swap1\n      swap4\n      swap7\n      pop\n      jump\n        /* \"--CODEGEN--\":2773:4636   */\n    tag_61:\n      0x0\n      dup1\n      0x0\n      dup1\n      0x0\n      dup1\n      0x0\n      dup1\n        /* \"--CODEGEN--\":3066:3069   */\n      0x100\n        /* \"--CODEGEN--\":3054:3063   */\n      dup10\n        /* \"--CODEGEN--\":3045:3052   */\n      dup12\n        /* \"--CODEGEN--\":3041:3064   */\n      sub\n        /* \"--CODEGEN--\":3037:3070   */\n      slt\n        /* \"--CODEGEN--\":3034:3036   */\n      iszero\n      tag_333\n      jumpi\n        /* \"--CODEGEN--\":3083:3084   */\n      0x0\n        /* \"--CODEGEN--\":3080:3081   */\n      dup1\n        /* \"--CODEGEN--\":3073:3085   */\n      revert\n        /* \"--CODEGEN--\":3034:3036   */\n    tag_333:\n        /* \"--CODEGEN--\":3118:3119   */\n      0x0\n        /* \"--CODEGEN--\":3135:3188   */\n      tag_334\n        /* \"--CODEGEN--\":3180:3187   */\n      dup12\n        /* \"--CODEGEN--\":3171:3177   */\n      dup3\n        /* \"--CODEGEN--\":3160:3169   */\n      dup13\n        /* \"--CODEGEN--\":3156:3178   */\n      add\n        /* \"--CODEGEN--\":3135:3188   */\n      jump(tag_295)\n    tag_334:\n        /* \"--CODEGEN--\":3125:3188   */\n      swap9\n      pop\n        /* \"--CODEGEN--\":3097:3194   */\n      pop\n        /* \"--CODEGEN--\":3253:3255   */\n      0x20\n        /* \"--CODEGEN--\":3242:3251   */\n      dup10\n        /* \"--CODEGEN--\":3238:3256   */\n      add\n        /* \"--CODEGEN--\":3225:3257   */\n      calldataload\n        /* \"--CODEGEN--\":3277:3295   */\n      0xffffffffffffffff\n        /* \"--CODEGEN--\":3269:3275   */\n      dup2\n        /* \"--CODEGEN--\":3266:3296   */\n      gt\n        /* \"--CODEGEN--\":3263:3265   */\n      iszero\n      tag_335\n      jumpi\n        /* \"--CODEGEN--\":3309:3310   */\n      0x0\n        /* \"--CODEGEN--\":3306:3307   */\n      dup1\n        /* \"--CODEGEN--\":3299:3311   */\n      revert\n        /* \"--CODEGEN--\":3263:3265   */\n    tag_335:\n        /* \"--CODEGEN--\":3329:3392   */\n      tag_336\n        /* \"--CODEGEN--\":3384:3391   */\n      dup12\n        /* \"--CODEGEN--\":3375:3381   */\n      dup3\n        /* \"--CODEGEN--\":3364:3373   */\n      dup13\n        /* \"--CODEGEN--\":3360:3382   */\n      add\n        /* \"--CODEGEN--\":3329:3392   */\n      jump(tag_299)\n    tag_336:\n        /* \"--CODEGEN--\":3319:3392   */\n      swap8\n      pop\n        /* \"--CODEGEN--\":3204:3398   */\n      pop\n        /* \"--CODEGEN--\":3457:3459   */\n      0x40\n        /* \"--CODEGEN--\":3446:3455   */\n      dup10\n        /* \"--CODEGEN--\":3442:3460   */\n      add\n        /* \"--CODEGEN--\":3429:3461   */\n      calldataload\n        /* \"--CODEGEN--\":3481:3499   */\n      0xffffffffffffffff\n        /* \"--CODEGEN--\":3473:3479   */\n      dup2\n        /* \"--CODEGEN--\":3470:3500   */\n      gt\n        /* \"--CODEGEN--\":3467:3469   */\n      iszero\n      tag_337\n      jumpi\n        /* \"--CODEGEN--\":3513:3514   */\n      0x0\n        /* \"--CODEGEN--\":3510:3511   */\n      dup1\n        /* \"--CODEGEN--\":3503:3515   */\n      revert\n        /* \"--CODEGEN--\":3467:3469   */\n    tag_337:\n        /* \"--CODEGEN--\":3533:3596   */\n      tag_338\n        /* \"--CODEGEN--\":3588:3595   */\n      dup12\n        /* \"--CODEGEN--\":3579:3585   */\n      dup3\n        /* \"--CODEGEN--\":3568:3577   */\n      dup13\n        /* \"--CODEGEN--\":3564:3586   */\n      add\n        /* \"--CODEGEN--\":3533:3596   */\n      jump(tag_299)\n    tag_338:\n        /* \"--CODEGEN--\":3523:3596   */\n      swap7\n      pop\n        /* \"--CODEGEN--\":3408:3602   */\n      pop\n        /* \"--CODEGEN--\":3661:3663   */\n      0x60\n        /* \"--CODEGEN--\":3650:3659   */\n      dup10\n        /* \"--CODEGEN--\":3646:3664   */\n      add\n        /* \"--CODEGEN--\":3633:3665   */\n      calldataload\n        /* \"--CODEGEN--\":3685:3703   */\n      0xffffffffffffffff\n        /* \"--CODEGEN--\":3677:3683   */\n      dup2\n        /* \"--CODEGEN--\":3674:3704   */\n      gt\n        /* \"--CODEGEN--\":3671:3673   */\n      iszero\n      tag_339\n      jumpi\n        /* \"--CODEGEN--\":3717:3718   */\n      0x0\n        /* \"--CODEGEN--\":3714:3715   */\n      dup1\n        /* \"--CODEGEN--\":3707:3719   */\n      revert\n        /* \"--CODEGEN--\":3671:3673   */\n    tag_339:\n        /* \"--CODEGEN--\":3737:3800   */\n      tag_340\n        /* \"--CODEGEN--\":3792:3799   */\n      dup12\n        /* \"--CODEGEN--\":3783:3789   */\n      dup3\n        /* \"--CODEGEN--\":3772:3781   */\n      dup13\n        /* \"--CODEGEN--\":3768:3790   */\n      add\n        /* \"--CODEGEN--\":3737:3800   */\n      jump(tag_299)\n    tag_340:\n        /* \"--CODEGEN--\":3727:3800   */\n      swap6\n      pop\n        /* \"--CODEGEN--\":3612:3806   */\n      pop\n        /* \"--CODEGEN--\":3865:3868   */\n      0x80\n        /* \"--CODEGEN--\":3854:3863   */\n      dup10\n        /* \"--CODEGEN--\":3850:3869   */\n      add\n        /* \"--CODEGEN--\":3837:3870   */\n      calldataload\n        /* \"--CODEGEN--\":3890:3908   */\n      0xffffffffffffffff\n        /* \"--CODEGEN--\":3882:3888   */\n      dup2\n        /* \"--CODEGEN--\":3879:3909   */\n      gt\n        /* \"--CODEGEN--\":3876:3878   */\n      iszero\n      tag_341\n      jumpi\n        /* \"--CODEGEN--\":3922:3923   */\n      0x0\n        /* \"--CODEGEN--\":3919:3920   */\n      dup1\n        /* \"--CODEGEN--\":3912:3924   */\n      revert\n        /* \"--CODEGEN--\":3876:3878   */\n    tag_341:\n        /* \"--CODEGEN--\":3942:4005   */\n      tag_342\n        /* \"--CODEGEN--\":3997:4004   */\n      dup12\n        /* \"--CODEGEN--\":3988:3994   */\n      dup3\n        /* \"--CODEGEN--\":3977:3986   */\n      dup13\n        /* \"--CODEGEN--\":3973:3995   */\n      add\n        /* \"--CODEGEN--\":3942:4005   */\n      jump(tag_299)\n    tag_342:\n        /* \"--CODEGEN--\":3932:4005   */\n      swap5\n      pop\n        /* \"--CODEGEN--\":3816:4011   */\n      pop\n        /* \"--CODEGEN--\":4070:4073   */\n      0xa0\n        /* \"--CODEGEN--\":4059:4068   */\n      dup10\n        /* \"--CODEGEN--\":4055:4074   */\n      add\n        /* \"--CODEGEN--\":4042:4075   */\n      calldataload\n        /* \"--CODEGEN--\":4095:4113   */\n      0xffffffffffffffff\n        /* \"--CODEGEN--\":4087:4093   */\n      dup2\n        /* \"--CODEGEN--\":4084:4114   */\n      gt\n        /* \"--CODEGEN--\":4081:4083   */\n      iszero\n      tag_343\n      jumpi\n        /* \"--CODEGEN--\":4127:4128   */\n      0x0\n        /* \"--CODEGEN--\":4124:4125   */\n      dup1\n        /* \"--CODEGEN--\":4117:4129   */\n      revert\n        /* \"--CODEGEN--\":4081:4083   */\n    tag_343:\n        /* \"--CODEGEN--\":4147:4210   */\n      tag_344\n        /* \"--CODEGEN--\":4202:4209   */\n      dup12\n        /* \"--CODEGEN--\":4193:4199   */\n      dup3\n        /* \"--CODEGEN--\":4182:4191   */\n      dup13\n        /* \"--CODEGEN--\":4178:4200   */\n      add\n        /* \"--CODEGEN--\":4147:4210   */\n      jump(tag_299)\n    tag_344:\n        /* \"--CODEGEN--\":4137:4210   */\n      swap4\n      pop\n        /* \"--CODEGEN--\":4021:4216   */\n      pop\n        /* \"--CODEGEN--\":4275:4278   */\n      0xc0\n        /* \"--CODEGEN--\":4264:4273   */\n      dup10\n        /* \"--CODEGEN--\":4260:4279   */\n      add\n        /* \"--CODEGEN--\":4247:4280   */\n      calldataload\n        /* \"--CODEGEN--\":4300:4318   */\n      0xffffffffffffffff\n        /* \"--CODEGEN--\":4292:4298   */\n      dup2\n        /* \"--CODEGEN--\":4289:4319   */\n      gt\n        /* \"--CODEGEN--\":4286:4288   */\n      iszero\n      tag_345\n      jumpi\n        /* \"--CODEGEN--\":4332:4333   */\n      0x0\n        /* \"--CODEGEN--\":4329:4330   */\n      dup1\n        /* \"--CODEGEN--\":4322:4334   */\n      revert\n        /* \"--CODEGEN--\":4286:4288   */\n    tag_345:\n        /* \"--CODEGEN--\":4352:4415   */\n      tag_346\n        /* \"--CODEGEN--\":4407:4414   */\n      dup12\n        /* \"--CODEGEN--\":4398:4404   */\n      dup3\n        /* \"--CODEGEN--\":4387:4396   */\n      dup13\n        /* \"--CODEGEN--\":4383:4405   */\n      add\n        /* \"--CODEGEN--\":4352:4415   */\n      jump(tag_299)\n    tag_346:\n        /* \"--CODEGEN--\":4342:4415   */\n      swap3\n      pop\n        /* \"--CODEGEN--\":4226:4421   */\n      pop\n        /* \"--CODEGEN--\":4480:4483   */\n      0xe0\n        /* \"--CODEGEN--\":4469:4478   */\n      dup10\n        /* \"--CODEGEN--\":4465:4484   */\n      add\n        /* \"--CODEGEN--\":4452:4485   */\n      calldataload\n        /* \"--CODEGEN--\":4505:4523   */\n      0xffffffffffffffff\n        /* \"--CODEGEN--\":4497:4503   */\n      dup2\n        /* \"--CODEGEN--\":4494:4524   */\n      gt\n        /* \"--CODEGEN--\":4491:4493   */\n      iszero\n      tag_347\n      jumpi\n        /* \"--CODEGEN--\":4537:4538   */\n      0x0\n        /* \"--CODEGEN--\":4534:4535   */\n      dup1\n        /* \"--CODEGEN--\":4527:4539   */\n      revert\n        /* \"--CODEGEN--\":4491:4493   */\n    tag_347:\n        /* \"--CODEGEN--\":4557:4620   */\n      tag_348\n        /* \"--CODEGEN--\":4612:4619   */\n      dup12\n        /* \"--CODEGEN--\":4603:4609   */\n      dup3\n        /* \"--CODEGEN--\":4592:4601   */\n      dup13\n        /* \"--CODEGEN--\":4588:4610   */\n      add\n        /* \"--CODEGEN--\":4557:4620   */\n      jump(tag_299)\n    tag_348:\n        /* \"--CODEGEN--\":4547:4620   */\n      swap2\n      pop\n        /* \"--CODEGEN--\":4431:4626   */\n      pop\n        /* \"--CODEGEN--\":3028:4636   */\n      swap3\n      swap6\n      swap9\n      pop\n      swap3\n      swap6\n      swap9\n      swap1\n      swap4\n      swap7\n      pop\n      jump\n        /* \"--CODEGEN--\":4643:6970   */\n    tag_81:\n      0x0\n      dup1\n      0x0\n      dup1\n      0x0\n      dup1\n      0x0\n      dup1\n      0x0\n      dup1\n        /* \"--CODEGEN--\":4990:4993   */\n      0x140\n        /* \"--CODEGEN--\":4978:4987   */\n      dup12\n        /* \"--CODEGEN--\":4969:4976   */\n      dup14\n        /* \"--CODEGEN--\":4965:4988   */\n      sub\n        /* \"--CODEGEN--\":4961:4994   */\n      slt\n        /* \"--CODEGEN--\":4958:4960   */\n      iszero\n      tag_350\n      jumpi\n        /* \"--CODEGEN--\":5007:5008   */\n      0x0\n        /* \"--CODEGEN--\":5004:5005   */\n      dup1\n        /* \"--CODEGEN--\":4997:5009   */\n      revert\n        /* \"--CODEGEN--\":4958:4960   */\n    tag_350:\n        /* \"--CODEGEN--\":5042:5043   */\n      0x0\n        /* \"--CODEGEN--\":5059:5112   */\n      tag_351\n        /* \"--CODEGEN--\":5104:5111   */\n      dup14\n        /* \"--CODEGEN--\":5095:5101   */\n      dup3\n        /* \"--CODEGEN--\":5084:5093   */\n      dup15\n        /* \"--CODEGEN--\":5080:5102   */\n      add\n        /* \"--CODEGEN--\":5059:5112   */\n      jump(tag_295)\n    tag_351:\n        /* \"--CODEGEN--\":5049:5112   */\n      swap11\n      pop\n        /* \"--CODEGEN--\":5021:5118   */\n      pop\n        /* \"--CODEGEN--\":5177:5179   */\n      0x20\n        /* \"--CODEGEN--\":5166:5175   */\n      dup12\n        /* \"--CODEGEN--\":5162:5180   */\n      add\n        /* \"--CODEGEN--\":5149:5181   */\n      calldataload\n        /* \"--CODEGEN--\":5201:5219   */\n      0xffffffffffffffff\n        /* \"--CODEGEN--\":5193:5199   */\n      dup2\n        /* \"--CODEGEN--\":5190:5220   */\n      gt\n        /* \"--CODEGEN--\":5187:5189   */\n      iszero\n      tag_352\n      jumpi\n        /* \"--CODEGEN--\":5233:5234   */\n      0x0\n        /* \"--CODEGEN--\":5230:5231   */\n      dup1\n        /* \"--CODEGEN--\":5223:5235   */\n      revert\n        /* \"--CODEGEN--\":5187:5189   */\n    tag_352:\n        /* \"--CODEGEN--\":5253:5316   */\n      tag_353\n        /* \"--CODEGEN--\":5308:5315   */\n      dup14\n        /* \"--CODEGEN--\":5299:5305   */\n      dup3\n        /* \"--CODEGEN--\":5288:5297   */\n      dup15\n        /* \"--CODEGEN--\":5284:5306   */\n      add\n        /* \"--CODEGEN--\":5253:5316   */\n      jump(tag_299)\n    tag_353:\n        /* \"--CODEGEN--\":5243:5316   */\n      swap10\n      pop\n        /* \"--CODEGEN--\":5128:5322   */\n      pop\n        /* \"--CODEGEN--\":5381:5383   */\n      0x40\n        /* \"--CODEGEN--\":5370:5379   */\n      dup12\n        /* \"--CODEGEN--\":5366:5384   */\n      add\n        /* \"--CODEGEN--\":5353:5385   */\n      calldataload\n        /* \"--CODEGEN--\":5405:5423   */\n      0xffffffffffffffff\n        /* \"--CODEGEN--\":5397:5403   */\n      dup2\n        /* \"--CODEGEN--\":5394:5424   */\n      gt\n        /* \"--CODEGEN--\":5391:5393   */\n      iszero\n      tag_354\n      jumpi\n        /* \"--CODEGEN--\":5437:5438   */\n      0x0\n        /* \"--CODEGEN--\":5434:5435   */\n      dup1\n        /* \"--CODEGEN--\":5427:5439   */\n      revert\n        /* \"--CODEGEN--\":5391:5393   */\n    tag_354:\n        /* \"--CODEGEN--\":5457:5520   */\n      tag_355\n        /* \"--CODEGEN--\":5512:5519   */\n      dup14\n        /* \"--CODEGEN--\":5503:5509   */\n      dup3\n        /* \"--CODEGEN--\":5492:5501   */\n      dup15\n        /* \"--CODEGEN--\":5488:5510   */\n      add\n        /* \"--CODEGEN--\":5457:5520   */\n      jump(tag_299)\n    tag_355:\n        /* \"--CODEGEN--\":5447:5520   */\n      swap9\n      pop\n        /* \"--CODEGEN--\":5332:5526   */\n      pop\n        /* \"--CODEGEN--\":5585:5587   */\n      0x60\n        /* \"--CODEGEN--\":5574:5583   */\n      dup12\n        /* \"--CODEGEN--\":5570:5588   */\n      add\n        /* \"--CODEGEN--\":5557:5589   */\n      calldataload\n        /* \"--CODEGEN--\":5609:5627   */\n      0xffffffffffffffff\n        /* \"--CODEGEN--\":5601:5607   */\n      dup2\n        /* \"--CODEGEN--\":5598:5628   */\n      gt\n        /* \"--CODEGEN--\":5595:5597   */\n      iszero\n      tag_356\n      jumpi\n        /* \"--CODEGEN--\":5641:5642   */\n      0x0\n        /* \"--CODEGEN--\":5638:5639   */\n      dup1\n        /* \"--CODEGEN--\":5631:5643   */\n      revert\n        /* \"--CODEGEN--\":5595:5597   */\n    tag_356:\n        /* \"--CODEGEN--\":5661:5724   */\n      tag_357\n        /* \"--CODEGEN--\":5716:5723   */\n      dup14\n        /* \"--CODEGEN--\":5707:5713   */\n      dup3\n        /* \"--CODEGEN--\":5696:5705   */\n      dup15\n        /* \"--CODEGEN--\":5692:5714   */\n      add\n        /* \"--CODEGEN--\":5661:5724   */\n      jump(tag_299)\n    tag_357:\n        /* \"--CODEGEN--\":5651:5724   */\n      swap8\n      pop\n        /* \"--CODEGEN--\":5536:5730   */\n      pop\n        /* \"--CODEGEN--\":5789:5792   */\n      0x80\n        /* \"--CODEGEN--\":5778:5787   */\n      dup12\n        /* \"--CODEGEN--\":5774:5793   */\n      add\n        /* \"--CODEGEN--\":5761:5794   */\n      calldataload\n        /* \"--CODEGEN--\":5814:5832   */\n      0xffffffffffffffff\n        /* \"--CODEGEN--\":5806:5812   */\n      dup2\n        /* \"--CODEGEN--\":5803:5833   */\n      gt\n        /* \"--CODEGEN--\":5800:5802   */\n      iszero\n      tag_358\n      jumpi\n        /* \"--CODEGEN--\":5846:5847   */\n      0x0\n        /* \"--CODEGEN--\":5843:5844   */\n      dup1\n        /* \"--CODEGEN--\":5836:5848   */\n      revert\n        /* \"--CODEGEN--\":5800:5802   */\n    tag_358:\n        /* \"--CODEGEN--\":5866:5929   */\n      tag_359\n        /* \"--CODEGEN--\":5921:5928   */\n      dup14\n        /* \"--CODEGEN--\":5912:5918   */\n      dup3\n        /* \"--CODEGEN--\":5901:5910   */\n      dup15\n        /* \"--CODEGEN--\":5897:5919   */\n      add\n        /* \"--CODEGEN--\":5866:5929   */\n      jump(tag_299)\n    tag_359:\n        /* \"--CODEGEN--\":5856:5929   */\n      swap7\n      pop\n        /* \"--CODEGEN--\":5740:5935   */\n      pop\n        /* \"--CODEGEN--\":5994:5997   */\n      0xa0\n        /* \"--CODEGEN--\":5983:5992   */\n      dup12\n        /* \"--CODEGEN--\":5979:5998   */\n      add\n        /* \"--CODEGEN--\":5966:5999   */\n      calldataload\n        /* \"--CODEGEN--\":6019:6037   */\n      0xffffffffffffffff\n        /* \"--CODEGEN--\":6011:6017   */\n      dup2\n        /* \"--CODEGEN--\":6008:6038   */\n      gt\n        /* \"--CODEGEN--\":6005:6007   */\n      iszero\n      tag_360\n      jumpi\n        /* \"--CODEGEN--\":6051:6052   */\n      0x0\n        /* \"--CODEGEN--\":6048:6049   */\n      dup1\n        /* \"--CODEGEN--\":6041:6053   */\n      revert\n        /* \"--CODEGEN--\":6005:6007   */\n    tag_360:\n        /* \"--CODEGEN--\":6071:6134   */\n      tag_361\n        /* \"--CODEGEN--\":6126:6133   */\n      dup14\n        /* \"--CODEGEN--\":6117:6123   */\n      dup3\n        /* \"--CODEGEN--\":6106:6115   */\n      dup15\n        /* \"--CODEGEN--\":6102:6124   */\n      add\n        /* \"--CODEGEN--\":6071:6134   */\n      jump(tag_299)\n    tag_361:\n        /* \"--CODEGEN--\":6061:6134   */\n      swap6\n      pop\n        /* \"--CODEGEN--\":5945:6140   */\n      pop\n        /* \"--CODEGEN--\":6199:6202   */\n      0xc0\n        /* \"--CODEGEN--\":6188:6197   */\n      dup12\n        /* \"--CODEGEN--\":6184:6203   */\n      add\n        /* \"--CODEGEN--\":6171:6204   */\n      calldataload\n        /* \"--CODEGEN--\":6224:6242   */\n      0xffffffffffffffff\n        /* \"--CODEGEN--\":6216:6222   */\n      dup2\n        /* \"--CODEGEN--\":6213:6243   */\n      gt\n        /* \"--CODEGEN--\":6210:6212   */\n      iszero\n      tag_362\n      jumpi\n        /* \"--CODEGEN--\":6256:6257   */\n      0x0\n        /* \"--CODEGEN--\":6253:6254   */\n      dup1\n        /* \"--CODEGEN--\":6246:6258   */\n      revert\n        /* \"--CODEGEN--\":6210:6212   */\n    tag_362:\n        /* \"--CODEGEN--\":6276:6339   */\n      tag_363\n        /* \"--CODEGEN--\":6331:6338   */\n      dup14\n        /* \"--CODEGEN--\":6322:6328   */\n      dup3\n        /* \"--CODEGEN--\":6311:6320   */\n      dup15\n        /* \"--CODEGEN--\":6307:6329   */\n      add\n        /* \"--CODEGEN--\":6276:6339   */\n      jump(tag_299)\n    tag_363:\n        /* \"--CODEGEN--\":6266:6339   */\n      swap5\n      pop\n        /* \"--CODEGEN--\":6150:6345   */\n      pop\n        /* \"--CODEGEN--\":6404:6407   */\n      0xe0\n        /* \"--CODEGEN--\":6393:6402   */\n      dup12\n        /* \"--CODEGEN--\":6389:6408   */\n      add\n        /* \"--CODEGEN--\":6376:6409   */\n      calldataload\n        /* \"--CODEGEN--\":6429:6447   */\n      0xffffffffffffffff\n        /* \"--CODEGEN--\":6421:6427   */\n      dup2\n        /* \"--CODEGEN--\":6418:6448   */\n      gt\n        /* \"--CODEGEN--\":6415:6417   */\n      iszero\n      tag_364\n      jumpi\n        /* \"--CODEGEN--\":6461:6462   */\n      0x0\n        /* \"--CODEGEN--\":6458:6459   */\n      dup1\n        /* \"--CODEGEN--\":6451:6463   */\n      revert\n        /* \"--CODEGEN--\":6415:6417   */\n    tag_364:\n        /* \"--CODEGEN--\":6481:6544   */\n      tag_365\n        /* \"--CODEGEN--\":6536:6543   */\n      dup14\n        /* \"--CODEGEN--\":6527:6533   */\n      dup3\n        /* \"--CODEGEN--\":6516:6525   */\n      dup15\n        /* \"--CODEGEN--\":6512:6534   */\n      add\n        /* \"--CODEGEN--\":6481:6544   */\n      jump(tag_299)\n    tag_365:\n        /* \"--CODEGEN--\":6471:6544   */\n      swap4\n      pop\n        /* \"--CODEGEN--\":6355:6550   */\n      pop\n        /* \"--CODEGEN--\":6609:6612   */\n      0x100\n        /* \"--CODEGEN--\":6598:6607   */\n      dup12\n        /* \"--CODEGEN--\":6594:6613   */\n      add\n        /* \"--CODEGEN--\":6581:6614   */\n      calldataload\n        /* \"--CODEGEN--\":6634:6652   */\n      0xffffffffffffffff\n        /* \"--CODEGEN--\":6626:6632   */\n      dup2\n        /* \"--CODEGEN--\":6623:6653   */\n      gt\n        /* \"--CODEGEN--\":6620:6622   */\n      iszero\n      tag_366\n      jumpi\n        /* \"--CODEGEN--\":6666:6667   */\n      0x0\n        /* \"--CODEGEN--\":6663:6664   */\n      dup1\n        /* \"--CODEGEN--\":6656:6668   */\n      revert\n        /* \"--CODEGEN--\":6620:6622   */\n    tag_366:\n        /* \"--CODEGEN--\":6686:6749   */\n      tag_367\n        /* \"--CODEGEN--\":6741:6748   */\n      dup14\n        /* \"--CODEGEN--\":6732:6738   */\n      dup3\n        /* \"--CODEGEN--\":6721:6730   */\n      dup15\n        /* \"--CODEGEN--\":6717:6739   */\n      add\n        /* \"--CODEGEN--\":6686:6749   */\n      jump(tag_299)\n    tag_367:\n        /* \"--CODEGEN--\":6676:6749   */\n      swap3\n      pop\n        /* \"--CODEGEN--\":6560:6755   */\n      pop\n        /* \"--CODEGEN--\":6814:6817   */\n      0x120\n        /* \"--CODEGEN--\":6803:6812   */\n      dup12\n        /* \"--CODEGEN--\":6799:6818   */\n      add\n        /* \"--CODEGEN--\":6786:6819   */\n      calldataload\n        /* \"--CODEGEN--\":6839:6857   */\n      0xffffffffffffffff\n        /* \"--CODEGEN--\":6831:6837   */\n      dup2\n        /* \"--CODEGEN--\":6828:6858   */\n      gt\n        /* \"--CODEGEN--\":6825:6827   */\n      iszero\n      tag_368\n      jumpi\n        /* \"--CODEGEN--\":6871:6872   */\n      0x0\n        /* \"--CODEGEN--\":6868:6869   */\n      dup1\n        /* \"--CODEGEN--\":6861:6873   */\n      revert\n        /* \"--CODEGEN--\":6825:6827   */\n    tag_368:\n        /* \"--CODEGEN--\":6891:6954   */\n      tag_369\n        /* \"--CODEGEN--\":6946:6953   */\n      dup14\n        /* \"--CODEGEN--\":6937:6943   */\n      dup3\n        /* \"--CODEGEN--\":6926:6935   */\n      dup15\n        /* \"--CODEGEN--\":6922:6944   */\n      add\n        /* \"--CODEGEN--\":6891:6954   */\n      jump(tag_299)\n    tag_369:\n        /* \"--CODEGEN--\":6881:6954   */\n      swap2\n      pop\n        /* \"--CODEGEN--\":6765:6960   */\n      pop\n        /* \"--CODEGEN--\":4952:6970   */\n      swap3\n      swap6\n      swap9\n      swap12\n      swap2\n      swap5\n      swap8\n      swap11\n      pop\n      swap3\n      swap6\n      swap9\n      pop\n      jump\n        /* \"--CODEGEN--\":6977:7218   */\n    tag_54:\n      0x0\n        /* \"--CODEGEN--\":7081:7083   */\n      0x20\n        /* \"--CODEGEN--\":7069:7078   */\n      dup3\n        /* \"--CODEGEN--\":7060:7067   */\n      dup5\n        /* \"--CODEGEN--\":7056:7079   */\n      sub\n        /* \"--CODEGEN--\":7052:7084   */\n      slt\n        /* \"--CODEGEN--\":7049:7051   */\n      iszero\n      tag_371\n      jumpi\n        /* \"--CODEGEN--\":7097:7098   */\n      0x0\n        /* \"--CODEGEN--\":7094:7095   */\n      dup1\n        /* \"--CODEGEN--\":7087:7099   */\n      revert\n        /* \"--CODEGEN--\":7049:7051   */\n    tag_371:\n        /* \"--CODEGEN--\":7132:7133   */\n      0x0\n        /* \"--CODEGEN--\":7149:7202   */\n      tag_372\n        /* \"--CODEGEN--\":7194:7201   */\n      dup5\n        /* \"--CODEGEN--\":7185:7191   */\n      dup3\n        /* \"--CODEGEN--\":7174:7183   */\n      dup6\n        /* \"--CODEGEN--\":7170:7192   */\n      add\n        /* \"--CODEGEN--\":7149:7202   */\n      jump(tag_309)\n    tag_372:\n        /* \"--CODEGEN--\":7139:7202   */\n      swap2\n      pop\n        /* \"--CODEGEN--\":7111:7208   */\n      pop\n        /* \"--CODEGEN--\":7043:7218   */\n      swap3\n      swap2\n      pop\n      pop\n      jump\n        /* \"--CODEGEN--\":7225:7335   */\n    tag_374:\n        /* \"--CODEGEN--\":7298:7329   */\n      tag_375\n        /* \"--CODEGEN--\":7323:7328   */\n      dup2\n        /* \"--CODEGEN--\":7298:7329   */\n      jump(tag_376)\n    tag_375:\n        /* \"--CODEGEN--\":7293:7296   */\n      dup3\n        /* \"--CODEGEN--\":7286:7330   */\n      mstore\n        /* \"--CODEGEN--\":7280:7335   */\n      pop\n      pop\n      jump\n        /* \"--CODEGEN--\":7373:7963   */\n    tag_378:\n      0x0\n        /* \"--CODEGEN--\":7508:7562   */\n      tag_379\n        /* \"--CODEGEN--\":7556:7561   */\n      dup3\n        /* \"--CODEGEN--\":7508:7562   */\n      jump(tag_380)\n    tag_379:\n        /* \"--CODEGEN--\":7580:7586   */\n      dup1\n        /* \"--CODEGEN--\":7575:7578   */\n      dup5\n        /* \"--CODEGEN--\":7568:7587   */\n      mstore\n        /* \"--CODEGEN--\":7604:7608   */\n      0x20\n        /* \"--CODEGEN--\":7599:7602   */\n      dup5\n        /* \"--CODEGEN--\":7595:7609   */\n      add\n        /* \"--CODEGEN--\":7588:7609   */\n      swap4\n      pop\n        /* \"--CODEGEN--\":7649:7705   */\n      tag_381\n        /* \"--CODEGEN--\":7699:7704   */\n      dup4\n        /* \"--CODEGEN--\":7649:7705   */\n      jump(tag_382)\n    tag_381:\n        /* \"--CODEGEN--\":7726:7727   */\n      0x0\n        /* \"--CODEGEN--\":7711:7941   */\n    tag_383:\n        /* \"--CODEGEN--\":7736:7742   */\n      dup3\n        /* \"--CODEGEN--\":7733:7734   */\n      dup2\n        /* \"--CODEGEN--\":7730:7743   */\n      lt\n        /* \"--CODEGEN--\":7711:7941   */\n      iszero\n      tag_384\n      jumpi\n        /* \"--CODEGEN--\":7776:7829   */\n      tag_386\n        /* \"--CODEGEN--\":7825:7828   */\n      dup7\n        /* \"--CODEGEN--\":7816:7822   */\n      dup4\n        /* \"--CODEGEN--\":7810:7823   */\n      mload\n        /* \"--CODEGEN--\":7776:7829   */\n      jump(tag_374)\n    tag_386:\n        /* \"--CODEGEN--\":7846:7906   */\n      tag_387\n        /* \"--CODEGEN--\":7899:7905   */\n      dup3\n        /* \"--CODEGEN--\":7846:7906   */\n      jump(tag_388)\n    tag_387:\n        /* \"--CODEGEN--\":7836:7906   */\n      swap2\n      pop\n        /* \"--CODEGEN--\":7929:7933   */\n      0x20\n        /* \"--CODEGEN--\":7924:7927   */\n      dup7\n        /* \"--CODEGEN--\":7920:7934   */\n      add\n        /* \"--CODEGEN--\":7913:7934   */\n      swap6\n      pop\n        /* \"--CODEGEN--\":7758:7759   */\n      0x1\n        /* \"--CODEGEN--\":7755:7756   */\n      dup2\n        /* \"--CODEGEN--\":7751:7760   */\n      add\n        /* \"--CODEGEN--\":7746:7760   */\n      swap1\n      pop\n        /* \"--CODEGEN--\":7711:7941   */\n      jump(tag_383)\n    tag_384:\n        /* \"--CODEGEN--\":7715:7729   */\n      pop\n        /* \"--CODEGEN--\":7954:7957   */\n      dup5\n        /* \"--CODEGEN--\":7947:7957   */\n      swap3\n      pop\n        /* \"--CODEGEN--\":7487:7963   */\n      pop\n      pop\n      swap3\n      swap2\n      pop\n      pop\n      jump\n        /* \"--CODEGEN--\":7971:8072   */\n    tag_390:\n        /* \"--CODEGEN--\":8038:8066   */\n      tag_391\n        /* \"--CODEGEN--\":8060:8065   */\n      dup2\n        /* \"--CODEGEN--\":8038:8066   */\n      jump(tag_392)\n    tag_391:\n        /* \"--CODEGEN--\":8033:8036   */\n      dup3\n        /* \"--CODEGEN--\":8026:8067   */\n      mstore\n        /* \"--CODEGEN--\":8020:8072   */\n      pop\n      pop\n      jump\n        /* \"--CODEGEN--\":8079:8379   */\n    tag_394:\n      0x0\n        /* \"--CODEGEN--\":8181:8220   */\n      tag_395\n        /* \"--CODEGEN--\":8214:8219   */\n      dup3\n        /* \"--CODEGEN--\":8181:8220   */\n      jump(tag_396)\n    tag_395:\n        /* \"--CODEGEN--\":8237:8243   */\n      dup1\n        /* \"--CODEGEN--\":8232:8235   */\n      dup5\n        /* \"--CODEGEN--\":8225:8244   */\n      mstore\n        /* \"--CODEGEN--\":8249:8312   */\n      tag_397\n        /* \"--CODEGEN--\":8305:8311   */\n      dup2\n        /* \"--CODEGEN--\":8298:8302   */\n      0x20\n        /* \"--CODEGEN--\":8293:8296   */\n      dup7\n        /* \"--CODEGEN--\":8289:8303   */\n      add\n        /* \"--CODEGEN--\":8282:8286   */\n      0x20\n        /* \"--CODEGEN--\":8275:8280   */\n      dup7\n        /* \"--CODEGEN--\":8271:8287   */\n      add\n        /* \"--CODEGEN--\":8249:8312   */\n      jump(tag_398)\n    tag_397:\n        /* \"--CODEGEN--\":8344:8373   */\n      tag_399\n        /* \"--CODEGEN--\":8366:8372   */\n      dup2\n        /* \"--CODEGEN--\":8344:8373   */\n      jump(tag_400)\n    tag_399:\n        /* \"--CODEGEN--\":8337:8341   */\n      0x20\n        /* \"--CODEGEN--\":8332:8335   */\n      dup6\n        /* \"--CODEGEN--\":8328:8342   */\n      add\n        /* \"--CODEGEN--\":8324:8374   */\n      add\n        /* \"--CODEGEN--\":8317:8374   */\n      swap2\n      pop\n        /* \"--CODEGEN--\":8161:8379   */\n      pop\n      swap3\n      swap2\n      pop\n      pop\n      jump\n        /* \"--CODEGEN--\":8386:8496   */\n    tag_402:\n        /* \"--CODEGEN--\":8459:8490   */\n      tag_403\n        /* \"--CODEGEN--\":8484:8489   */\n      dup2\n        /* \"--CODEGEN--\":8459:8490   */\n      jump(tag_404)\n    tag_403:\n        /* \"--CODEGEN--\":8454:8457   */\n      dup3\n        /* \"--CODEGEN--\":8447:8491   */\n      mstore\n        /* \"--CODEGEN--\":8441:8496   */\n      pop\n      pop\n      jump\n        /* \"--CODEGEN--\":8503:8696   */\n    tag_57:\n      0x0\n        /* \"--CODEGEN--\":8611:8613   */\n      0x20\n        /* \"--CODEGEN--\":8600:8609   */\n      dup3\n        /* \"--CODEGEN--\":8596:8614   */\n      add\n        /* \"--CODEGEN--\":8588:8614   */\n      swap1\n      pop\n        /* \"--CODEGEN--\":8625:8686   */\n      tag_406\n        /* \"--CODEGEN--\":8683:8684   */\n      0x0\n        /* \"--CODEGEN--\":8672:8681   */\n      dup4\n        /* \"--CODEGEN--\":8668:8685   */\n      add\n        /* \"--CODEGEN--\":8659:8665   */\n      dup5\n        /* \"--CODEGEN--\":8625:8686   */\n      jump(tag_374)\n    tag_406:\n        /* \"--CODEGEN--\":8582:8696   */\n      swap3\n      swap2\n      pop\n      pop\n      jump\n        /* \"--CODEGEN--\":8703:9044   */\n    tag_34:\n      0x0\n        /* \"--CODEGEN--\":8861:8863   */\n      0x20\n        /* \"--CODEGEN--\":8850:8859   */\n      dup3\n        /* \"--CODEGEN--\":8846:8864   */\n      add\n        /* \"--CODEGEN--\":8838:8864   */\n      swap1\n      pop\n        /* \"--CODEGEN--\":8911:8920   */\n      dup2\n        /* \"--CODEGEN--\":8905:8909   */\n      dup2\n        /* \"--CODEGEN--\":8901:8921   */\n      sub\n        /* \"--CODEGEN--\":8897:8898   */\n      0x0\n        /* \"--CODEGEN--\":8886:8895   */\n      dup4\n        /* \"--CODEGEN--\":8882:8899   */\n      add\n        /* \"--CODEGEN--\":8875:8922   */\n      mstore\n        /* \"--CODEGEN--\":8936:9034   */\n      tag_408\n        /* \"--CODEGEN--\":9029:9033   */\n      dup2\n        /* \"--CODEGEN--\":9020:9026   */\n      dup5\n        /* \"--CODEGEN--\":8936:9034   */\n      jump(tag_378)\n    tag_408:\n        /* \"--CODEGEN--\":8928:9034   */\n      swap1\n      pop\n        /* \"--CODEGEN--\":8832:9044   */\n      swap3\n      swap2\n      pop\n      pop\n      jump\n        /* \"--CODEGEN--\":9051:9232   */\n    tag_72:\n      0x0\n        /* \"--CODEGEN--\":9153:9155   */\n      0x20\n        /* \"--CODEGEN--\":9142:9151   */\n      dup3\n        /* \"--CODEGEN--\":9138:9156   */\n      add\n        /* \"--CODEGEN--\":9130:9156   */\n      swap1\n      pop\n        /* \"--CODEGEN--\":9167:9222   */\n      tag_410\n        /* \"--CODEGEN--\":9219:9220   */\n      0x0\n        /* \"--CODEGEN--\":9208:9217   */\n      dup4\n        /* \"--CODEGEN--\":9204:9221   */\n      add\n        /* \"--CODEGEN--\":9195:9201   */\n      dup5\n        /* \"--CODEGEN--\":9167:9222   */\n      jump(tag_390)\n    tag_410:\n        /* \"--CODEGEN--\":9124:9232   */\n      swap3\n      swap2\n      pop\n      pop\n      jump\n        /* \"--CODEGEN--\":9239:10570   */\n    tag_46:\n      0x0\n        /* \"--CODEGEN--\":9635:9638   */\n      0xe0\n        /* \"--CODEGEN--\":9624:9633   */\n      dup3\n        /* \"--CODEGEN--\":9620:9639   */\n      add\n        /* \"--CODEGEN--\":9612:9639   */\n      swap1\n      pop\n        /* \"--CODEGEN--\":9686:9695   */\n      dup2\n        /* \"--CODEGEN--\":9680:9684   */\n      dup2\n        /* \"--CODEGEN--\":9676:9696   */\n      sub\n        /* \"--CODEGEN--\":9672:9673   */\n      0x0\n        /* \"--CODEGEN--\":9661:9670   */\n      dup4\n        /* \"--CODEGEN--\":9657:9674   */\n      add\n        /* \"--CODEGEN--\":9650:9697   */\n      mstore\n        /* \"--CODEGEN--\":9711:9779   */\n      tag_412\n        /* \"--CODEGEN--\":9774:9778   */\n      dup2\n        /* \"--CODEGEN--\":9765:9771   */\n      dup11\n        /* \"--CODEGEN--\":9711:9779   */\n      jump(tag_394)\n    tag_412:\n        /* \"--CODEGEN--\":9703:9779   */\n      swap1\n      pop\n        /* \"--CODEGEN--\":9827:9836   */\n      dup2\n        /* \"--CODEGEN--\":9821:9825   */\n      dup2\n        /* \"--CODEGEN--\":9817:9837   */\n      sub\n        /* \"--CODEGEN--\":9812:9814   */\n      0x20\n        /* \"--CODEGEN--\":9801:9810   */\n      dup4\n        /* \"--CODEGEN--\":9797:9815   */\n      add\n        /* \"--CODEGEN--\":9790:9838   */\n      mstore\n        /* \"--CODEGEN--\":9852:9920   */\n      tag_413\n        /* \"--CODEGEN--\":9915:9919   */\n      dup2\n        /* \"--CODEGEN--\":9906:9912   */\n      dup10\n        /* \"--CODEGEN--\":9852:9920   */\n      jump(tag_394)\n    tag_413:\n        /* \"--CODEGEN--\":9844:9920   */\n      swap1\n      pop\n        /* \"--CODEGEN--\":9968:9977   */\n      dup2\n        /* \"--CODEGEN--\":9962:9966   */\n      dup2\n        /* \"--CODEGEN--\":9958:9978   */\n      sub\n        /* \"--CODEGEN--\":9953:9955   */\n      0x40\n        /* \"--CODEGEN--\":9942:9951   */\n      dup4\n        /* \"--CODEGEN--\":9938:9956   */\n      add\n        /* \"--CODEGEN--\":9931:9979   */\n      mstore\n        /* \"--CODEGEN--\":9993:10061   */\n      tag_414\n        /* \"--CODEGEN--\":10056:10060   */\n      dup2\n        /* \"--CODEGEN--\":10047:10053   */\n      dup9\n        /* \"--CODEGEN--\":9993:10061   */\n      jump(tag_394)\n    tag_414:\n        /* \"--CODEGEN--\":9985:10061   */\n      swap1\n      pop\n        /* \"--CODEGEN--\":10109:10118   */\n      dup2\n        /* \"--CODEGEN--\":10103:10107   */\n      dup2\n        /* \"--CODEGEN--\":10099:10119   */\n      sub\n        /* \"--CODEGEN--\":10094:10096   */\n      0x60\n        /* \"--CODEGEN--\":10083:10092   */\n      dup4\n        /* \"--CODEGEN--\":10079:10097   */\n      add\n        /* \"--CODEGEN--\":10072:10120   */\n      mstore\n        /* \"--CODEGEN--\":10134:10202   */\n      tag_415\n        /* \"--CODEGEN--\":10197:10201   */\n      dup2\n        /* \"--CODEGEN--\":10188:10194   */\n      dup8\n        /* \"--CODEGEN--\":10134:10202   */\n      jump(tag_394)\n    tag_415:\n        /* \"--CODEGEN--\":10126:10202   */\n      swap1\n      pop\n        /* \"--CODEGEN--\":10251:10260   */\n      dup2\n        /* \"--CODEGEN--\":10245:10249   */\n      dup2\n        /* \"--CODEGEN--\":10241:10261   */\n      sub\n        /* \"--CODEGEN--\":10235:10238   */\n      0x80\n        /* \"--CODEGEN--\":10224:10233   */\n      dup4\n        /* \"--CODEGEN--\":10220:10239   */\n      add\n        /* \"--CODEGEN--\":10213:10262   */\n      mstore\n        /* \"--CODEGEN--\":10276:10344   */\n      tag_416\n        /* \"--CODEGEN--\":10339:10343   */\n      dup2\n        /* \"--CODEGEN--\":10330:10336   */\n      dup7\n        /* \"--CODEGEN--\":10276:10344   */\n      jump(tag_394)\n    tag_416:\n        /* \"--CODEGEN--\":10268:10344   */\n      swap1\n      pop\n        /* \"--CODEGEN--\":10393:10402   */\n      dup2\n        /* \"--CODEGEN--\":10387:10391   */\n      dup2\n        /* \"--CODEGEN--\":10383:10403   */\n      sub\n        /* \"--CODEGEN--\":10377:10380   */\n      0xa0\n        /* \"--CODEGEN--\":10366:10375   */\n      dup4\n        /* \"--CODEGEN--\":10362:10381   */\n      add\n        /* \"--CODEGEN--\":10355:10404   */\n      mstore\n        /* \"--CODEGEN--\":10418:10486   */\n      tag_417\n        /* \"--CODEGEN--\":10481:10485   */\n      dup2\n        /* \"--CODEGEN--\":10472:10478   */\n      dup6\n        /* \"--CODEGEN--\":10418:10486   */\n      jump(tag_394)\n    tag_417:\n        /* \"--CODEGEN--\":10410:10486   */\n      swap1\n      pop\n        /* \"--CODEGEN--\":10497:10560   */\n      tag_418\n        /* \"--CODEGEN--\":10555:10558   */\n      0xc0\n        /* \"--CODEGEN--\":10544:10553   */\n      dup4\n        /* \"--CODEGEN--\":10540:10559   */\n      add\n        /* \"--CODEGEN--\":10531:10537   */\n      dup5\n        /* \"--CODEGEN--\":10497:10560   */\n      jump(tag_374)\n    tag_418:\n        /* \"--CODEGEN--\":9606:10570   */\n      swap9\n      swap8\n      pop\n      pop\n      pop\n      pop\n      pop\n      pop\n      pop\n      pop\n      jump\n        /* \"--CODEGEN--\":10577:11996   */\n    tag_143:\n      0x0\n        /* \"--CODEGEN--\":10993:10996   */\n      0xe0\n        /* \"--CODEGEN--\":10982:10991   */\n      dup3\n        /* \"--CODEGEN--\":10978:10997   */\n      add\n        /* \"--CODEGEN--\":10970:10997   */\n      swap1\n      pop\n        /* \"--CODEGEN--\":11044:11053   */\n      dup2\n        /* \"--CODEGEN--\":11038:11042   */\n      dup2\n        /* \"--CODEGEN--\":11034:11054   */\n      sub\n        /* \"--CODEGEN--\":11030:11031   */\n      0x0\n        /* \"--CODEGEN--\":11019:11028   */\n      dup4\n        /* \"--CODEGEN--\":11015:11032   */\n      add\n        /* \"--CODEGEN--\":11008:11055   */\n      mstore\n        /* \"--CODEGEN--\":11069:11137   */\n      tag_420\n        /* \"--CODEGEN--\":11132:11136   */\n      dup2\n        /* \"--CODEGEN--\":11123:11129   */\n      dup11\n        /* \"--CODEGEN--\":11069:11137   */\n      jump(tag_394)\n    tag_420:\n        /* \"--CODEGEN--\":11061:11137   */\n      swap1\n      pop\n        /* \"--CODEGEN--\":11185:11194   */\n      dup2\n        /* \"--CODEGEN--\":11179:11183   */\n      dup2\n        /* \"--CODEGEN--\":11175:11195   */\n      sub\n        /* \"--CODEGEN--\":11170:11172   */\n      0x20\n        /* \"--CODEGEN--\":11159:11168   */\n      dup4\n        /* \"--CODEGEN--\":11155:11173   */\n      add\n        /* \"--CODEGEN--\":11148:11196   */\n      mstore\n        /* \"--CODEGEN--\":11210:11278   */\n      tag_421\n        /* \"--CODEGEN--\":11273:11277   */\n      dup2\n        /* \"--CODEGEN--\":11264:11270   */\n      dup10\n        /* \"--CODEGEN--\":11210:11278   */\n      jump(tag_394)\n    tag_421:\n        /* \"--CODEGEN--\":11202:11278   */\n      swap1\n      pop\n        /* \"--CODEGEN--\":11326:11335   */\n      dup2\n        /* \"--CODEGEN--\":11320:11324   */\n      dup2\n        /* \"--CODEGEN--\":11316:11336   */\n      sub\n        /* \"--CODEGEN--\":11311:11313   */\n      0x40\n        /* \"--CODEGEN--\":11300:11309   */\n      dup4\n        /* \"--CODEGEN--\":11296:11314   */\n      add\n        /* \"--CODEGEN--\":11289:11337   */\n      mstore\n        /* \"--CODEGEN--\":11351:11419   */\n      tag_422\n        /* \"--CODEGEN--\":11414:11418   */\n      dup2\n        /* \"--CODEGEN--\":11405:11411   */\n      dup9\n        /* \"--CODEGEN--\":11351:11419   */\n      jump(tag_394)\n    tag_422:\n        /* \"--CODEGEN--\":11343:11419   */\n      swap1\n      pop\n        /* \"--CODEGEN--\":11467:11476   */\n      dup2\n        /* \"--CODEGEN--\":11461:11465   */\n      dup2\n        /* \"--CODEGEN--\":11457:11477   */\n      sub\n        /* \"--CODEGEN--\":11452:11454   */\n      0x60\n        /* \"--CODEGEN--\":11441:11450   */\n      dup4\n        /* \"--CODEGEN--\":11437:11455   */\n      add\n        /* \"--CODEGEN--\":11430:11478   */\n      mstore\n        /* \"--CODEGEN--\":11492:11560   */\n      tag_423\n        /* \"--CODEGEN--\":11555:11559   */\n      dup2\n        /* \"--CODEGEN--\":11546:11552   */\n      dup8\n        /* \"--CODEGEN--\":11492:11560   */\n      jump(tag_394)\n    tag_423:\n        /* \"--CODEGEN--\":11484:11560   */\n      swap1\n      pop\n        /* \"--CODEGEN--\":11609:11618   */\n      dup2\n        /* \"--CODEGEN--\":11603:11607   */\n      dup2\n        /* \"--CODEGEN--\":11599:11619   */\n      sub\n        /* \"--CODEGEN--\":11593:11596   */\n      0x80\n        /* \"--CODEGEN--\":11582:11591   */\n      dup4\n        /* \"--CODEGEN--\":11578:11597   */\n      add\n        /* \"--CODEGEN--\":11571:11620   */\n      mstore\n        /* \"--CODEGEN--\":11634:11702   */\n      tag_424\n        /* \"--CODEGEN--\":11697:11701   */\n      dup2\n        /* \"--CODEGEN--\":11688:11694   */\n      dup7\n        /* \"--CODEGEN--\":11634:11702   */\n      jump(tag_394)\n    tag_424:\n        /* \"--CODEGEN--\":11626:11702   */\n      swap1\n      pop\n        /* \"--CODEGEN--\":11751:11760   */\n      dup2\n        /* \"--CODEGEN--\":11745:11749   */\n      dup2\n        /* \"--CODEGEN--\":11741:11761   */\n      sub\n        /* \"--CODEGEN--\":11735:11738   */\n      0xa0\n        /* \"--CODEGEN--\":11724:11733   */\n      dup4\n        /* \"--CODEGEN--\":11720:11739   */\n      add\n        /* \"--CODEGEN--\":11713:11762   */\n      mstore\n        /* \"--CODEGEN--\":11776:11844   */\n      tag_425\n        /* \"--CODEGEN--\":11839:11843   */\n      dup2\n        /* \"--CODEGEN--\":11830:11836   */\n      dup6\n        /* \"--CODEGEN--\":11776:11844   */\n      jump(tag_394)\n    tag_425:\n        /* \"--CODEGEN--\":11768:11844   */\n      swap1\n      pop\n        /* \"--CODEGEN--\":11893:11902   */\n      dup2\n        /* \"--CODEGEN--\":11887:11891   */\n      dup2\n        /* \"--CODEGEN--\":11883:11903   */\n      sub\n        /* \"--CODEGEN--\":11877:11880   */\n      0xc0\n        /* \"--CODEGEN--\":11866:11875   */\n      dup4\n        /* \"--CODEGEN--\":11862:11881   */\n      add\n        /* \"--CODEGEN--\":11855:11904   */\n      mstore\n        /* \"--CODEGEN--\":11918:11986   */\n      tag_426\n        /* \"--CODEGEN--\":11981:11985   */\n      dup2\n        /* \"--CODEGEN--\":11972:11978   */\n      dup5\n        /* \"--CODEGEN--\":11918:11986   */\n      jump(tag_394)\n    tag_426:\n        /* \"--CODEGEN--\":11910:11986   */\n      swap1\n      pop\n        /* \"--CODEGEN--\":10964:11996   */\n      swap9\n      swap8\n      pop\n      pop\n      pop\n      pop\n      pop\n      pop\n      pop\n      pop\n      jump\n        /* \"--CODEGEN--\":12003:12196   */\n    tag_39:\n      0x0\n        /* \"--CODEGEN--\":12111:12113   */\n      0x20\n        /* \"--CODEGEN--\":12100:12109   */\n      dup3\n        /* \"--CODEGEN--\":12096:12114   */\n      add\n        /* \"--CODEGEN--\":12088:12114   */\n      swap1\n      pop\n        /* \"--CODEGEN--\":12125:12186   */\n      tag_428\n        /* \"--CODEGEN--\":12183:12184   */\n      0x0\n        /* \"--CODEGEN--\":12172:12181   */\n      dup4\n        /* \"--CODEGEN--\":12168:12185   */\n      add\n        /* \"--CODEGEN--\":12159:12165   */\n      dup5\n        /* \"--CODEGEN--\":12125:12186   */\n      jump(tag_402)\n    tag_428:\n        /* \"--CODEGEN--\":12082:12196   */\n      swap3\n      swap2\n      pop\n      pop\n      jump\n        /* \"--CODEGEN--\":12203:12459   */\n    tag_304:\n      0x0\n        /* \"--CODEGEN--\":12265:12267   */\n      0x40\n        /* \"--CODEGEN--\":12259:12268   */\n      mload\n        /* \"--CODEGEN--\":12249:12268   */\n      swap1\n      pop\n        /* \"--CODEGEN--\":12303:12307   */\n      dup2\n        /* \"--CODEGEN--\":12295:12301   */\n      dup2\n        /* \"--CODEGEN--\":12291:12308   */\n      add\n        /* \"--CODEGEN--\":12402:12408   */\n      dup2\n        /* \"--CODEGEN--\":12390:12400   */\n      dup2\n        /* \"--CODEGEN--\":12387:12409   */\n      lt\n        /* \"--CODEGEN--\":12366:12384   */\n      0xffffffffffffffff\n        /* \"--CODEGEN--\":12354:12364   */\n      dup3\n        /* \"--CODEGEN--\":12351:12385   */\n      gt\n        /* \"--CODEGEN--\":12348:12410   */\n      or\n        /* \"--CODEGEN--\":12345:12347   */\n      iszero\n      tag_430\n      jumpi\n        /* \"--CODEGEN--\":12423:12424   */\n      0x0\n        /* \"--CODEGEN--\":12420:12421   */\n      dup1\n        /* \"--CODEGEN--\":12413:12425   */\n      revert\n        /* \"--CODEGEN--\":12345:12347   */\n    tag_430:\n        /* \"--CODEGEN--\":12443:12453   */\n      dup1\n        /* \"--CODEGEN--\":12439:12441   */\n      0x40\n        /* \"--CODEGEN--\":12432:12454   */\n      mstore\n        /* \"--CODEGEN--\":12243:12459   */\n      pop\n      swap2\n      swap1\n      pop\n      jump\n        /* \"--CODEGEN--\":12466:12725   */\n    tag_303:\n      0x0\n        /* \"--CODEGEN--\":12610:12628   */\n      0xffffffffffffffff\n        /* \"--CODEGEN--\":12602:12608   */\n      dup3\n        /* \"--CODEGEN--\":12599:12629   */\n      gt\n        /* \"--CODEGEN--\":12596:12598   */\n      iszero\n      tag_432\n      jumpi\n        /* \"--CODEGEN--\":12642:12643   */\n      0x0\n        /* \"--CODEGEN--\":12639:12640   */\n      dup1\n        /* \"--CODEGEN--\":12632:12644   */\n      revert\n        /* \"--CODEGEN--\":12596:12598   */\n    tag_432:\n        /* \"--CODEGEN--\":12686:12690   */\n      0x1f\n        /* \"--CODEGEN--\":12682:12691   */\n      not\n        /* \"--CODEGEN--\":12675:12679   */\n      0x1f\n        /* \"--CODEGEN--\":12667:12673   */\n      dup4\n        /* \"--CODEGEN--\":12663:12680   */\n      add\n        /* \"--CODEGEN--\":12659:12692   */\n      and\n        /* \"--CODEGEN--\":12651:12692   */\n      swap1\n      pop\n        /* \"--CODEGEN--\":12715:12719   */\n      0x20\n        /* \"--CODEGEN--\":12709:12713   */\n      dup2\n        /* \"--CODEGEN--\":12705:12720   */\n      add\n        /* \"--CODEGEN--\":12697:12720   */\n      swap1\n      pop\n        /* \"--CODEGEN--\":12533:12725   */\n      swap2\n      swap1\n      pop\n      jump\n        /* \"--CODEGEN--\":12734:12855   */\n    tag_382:\n      0x0\n        /* \"--CODEGEN--\":12843:12847   */\n      0x20\n        /* \"--CODEGEN--\":12835:12841   */\n      dup3\n        /* \"--CODEGEN--\":12831:12848   */\n      add\n        /* \"--CODEGEN--\":12820:12848   */\n      swap1\n      pop\n        /* \"--CODEGEN--\":12812:12855   */\n      swap2\n      swap1\n      pop\n      jump\n        /* \"--CODEGEN--\":12864:12971   */\n    tag_380:\n      0x0\n        /* \"--CODEGEN--\":12960:12965   */\n      dup2\n        /* \"--CODEGEN--\":12954:12966   */\n      mload\n        /* \"--CODEGEN--\":12944:12966   */\n      swap1\n      pop\n        /* \"--CODEGEN--\":12938:12971   */\n      swap2\n      swap1\n      pop\n      jump\n        /* \"--CODEGEN--\":12978:13070   */\n    tag_396:\n      0x0\n        /* \"--CODEGEN--\":13059:13064   */\n      dup2\n        /* \"--CODEGEN--\":13053:13065   */\n      mload\n        /* \"--CODEGEN--\":13043:13065   */\n      swap1\n      pop\n        /* \"--CODEGEN--\":13037:13070   */\n      swap2\n      swap1\n      pop\n      jump\n        /* \"--CODEGEN--\":13078:13200   */\n    tag_388:\n      0x0\n        /* \"--CODEGEN--\":13189:13193   */\n      0x20\n        /* \"--CODEGEN--\":13181:13187   */\n      dup3\n        /* \"--CODEGEN--\":13177:13194   */\n      add\n        /* \"--CODEGEN--\":13166:13194   */\n      swap1\n      pop\n        /* \"--CODEGEN--\":13159:13200   */\n      swap2\n      swap1\n      pop\n      jump\n        /* \"--CODEGEN--\":13208:13336   */\n    tag_376:\n      0x0\n        /* \"--CODEGEN--\":13288:13330   */\n      0xffffffffffffffffffffffffffffffffffffffff\n        /* \"--CODEGEN--\":13281:13286   */\n      dup3\n        /* \"--CODEGEN--\":13277:13331   */\n      and\n        /* \"--CODEGEN--\":13266:13331   */\n      swap1\n      pop\n        /* \"--CODEGEN--\":13260:13336   */\n      swap2\n      swap1\n      pop\n      jump\n        /* \"--CODEGEN--\":13343:13435   */\n    tag_392:\n      0x0\n        /* \"--CODEGEN--\":13423:13428   */\n      dup2\n        /* \"--CODEGEN--\":13416:13429   */\n      iszero\n        /* \"--CODEGEN--\":13409:13430   */\n      iszero\n        /* \"--CODEGEN--\":13398:13430   */\n      swap1\n      pop\n        /* \"--CODEGEN--\":13392:13435   */\n      swap2\n      swap1\n      pop\n      jump\n        /* \"--CODEGEN--\":13442:13521   */\n    tag_404:\n      0x0\n        /* \"--CODEGEN--\":13511:13516   */\n      dup2\n        /* \"--CODEGEN--\":13500:13516   */\n      swap1\n      pop\n        /* \"--CODEGEN--\":13494:13521   */\n      swap2\n      swap1\n      pop\n      jump\n        /* \"--CODEGEN--\":13528:13656   */\n    tag_297:\n      0x0\n        /* \"--CODEGEN--\":13608:13650   */\n      0xffffffffffffffffffffffffffffffffffffffff\n        /* \"--CODEGEN--\":13601:13606   */\n      dup3\n        /* \"--CODEGEN--\":13597:13651   */\n      and\n        /* \"--CODEGEN--\":13586:13651   */\n      swap1\n      pop\n        /* \"--CODEGEN--\":13580:13656   */\n      swap2\n      swap1\n      pop\n      jump\n        /* \"--CODEGEN--\":13663:13742   */\n    tag_311:\n      0x0\n        /* \"--CODEGEN--\":13732:13737   */\n      dup2\n        /* \"--CODEGEN--\":13721:13737   */\n      swap1\n      pop\n        /* \"--CODEGEN--\":13715:13742   */\n      swap2\n      swap1\n      pop\n      jump\n        /* \"--CODEGEN--\":13750:13895   */\n    tag_307:\n        /* \"--CODEGEN--\":13831:13837   */\n      dup3\n        /* \"--CODEGEN--\":13826:13829   */\n      dup2\n        /* \"--CODEGEN--\":13821:13824   */\n      dup4\n        /* \"--CODEGEN--\":13808:13838   */\n      calldatacopy\n        /* \"--CODEGEN--\":13887:13888   */\n      0x0\n        /* \"--CODEGEN--\":13878:13884   */\n      dup4\n        /* \"--CODEGEN--\":13873:13876   */\n      dup4\n        /* \"--CODEGEN--\":13869:13885   */\n      add\n        /* \"--CODEGEN--\":13862:13889   */\n      mstore\n        /* \"--CODEGEN--\":13801:13895   */\n      pop\n      pop\n      pop\n      jump\n        /* \"--CODEGEN--\":13904:14172   */\n    tag_398:\n        /* \"--CODEGEN--\":13969:13970   */\n      0x0\n        /* \"--CODEGEN--\":13976:14077   */\n    tag_444:\n        /* \"--CODEGEN--\":13990:13996   */\n      dup4\n        /* \"--CODEGEN--\":13987:13988   */\n      dup2\n        /* \"--CODEGEN--\":13984:13997   */\n      lt\n        /* \"--CODEGEN--\":13976:14077   */\n      iszero\n      tag_445\n      jumpi\n        /* \"--CODEGEN--\":14066:14067   */\n      dup1\n        /* \"--CODEGEN--\":14061:14064   */\n      dup3\n        /* \"--CODEGEN--\":14057:14068   */\n      add\n        /* \"--CODEGEN--\":14051:14069   */\n      mload\n        /* \"--CODEGEN--\":14047:14048   */\n      dup2\n        /* \"--CODEGEN--\":14042:14045   */\n      dup5\n        /* \"--CODEGEN--\":14038:14049   */\n      add\n        /* \"--CODEGEN--\":14031:14070   */\n      mstore\n        /* \"--CODEGEN--\":14012:14014   */\n      0x20\n        /* \"--CODEGEN--\":14009:14010   */\n      dup2\n        /* \"--CODEGEN--\":14005:14015   */\n      add\n        /* \"--CODEGEN--\":14000:14015   */\n      swap1\n      pop\n        /* \"--CODEGEN--\":13976:14077   */\n      jump(tag_444)\n    tag_445:\n        /* \"--CODEGEN--\":14092:14098   */\n      dup4\n        /* \"--CODEGEN--\":14089:14090   */\n      dup2\n        /* \"--CODEGEN--\":14086:14099   */\n      gt\n        /* \"--CODEGEN--\":14083:14085   */\n      iszero\n      tag_447\n      jumpi\n        /* \"--CODEGEN--\":14157:14158   */\n      0x0\n        /* \"--CODEGEN--\":14148:14154   */\n      dup5\n        /* \"--CODEGEN--\":14143:14146   */\n      dup5\n        /* \"--CODEGEN--\":14139:14155   */\n      add\n        /* \"--CODEGEN--\":14132:14159   */\n      mstore\n        /* \"--CODEGEN--\":14083:14085   */\n    tag_447:\n        /* \"--CODEGEN--\":13953:14172   */\n      pop\n      pop\n      pop\n      pop\n      jump\n        /* \"--CODEGEN--\":14180:14277   */\n    tag_400:\n      0x0\n        /* \"--CODEGEN--\":14268:14270   */\n      0x1f\n        /* \"--CODEGEN--\":14264:14271   */\n      not\n        /* \"--CODEGEN--\":14259:14261   */\n      0x1f\n        /* \"--CODEGEN--\":14252:14257   */\n      dup4\n        /* \"--CODEGEN--\":14248:14262   */\n      add\n        /* \"--CODEGEN--\":14244:14272   */\n      and\n        /* \"--CODEGEN--\":14234:14272   */\n      swap1\n      pop\n        /* \"--CODEGEN--\":14228:14277   */\n      swap2\n      swap1\n      pop\n      jump\n\n    auxdata: 0xa265627a7a72305820f314f8ad6cc9a7051b13bd0ac04c0c8c85f402cd4eef7da039eec7b98c990d686c6578706572696d656e74616cf50037\n}\n",
				"bytecode": {
					"linkReferences": {},
					"object": "60806040526000600b556000600c556000600d556000600e556000600f5573c50c6297f56b033633c30354a854b074749cd2dc601060006101000a81548173ffffffffffffffffffffffffffffffffffffffff021916908373ffffffffffffffffffffffffffffffffffffffff16021790555034801561007e57600080fd5b506130118061008e6000396000f300608060405260043610610169576000357c0100000000000000000000000000000000000000000000000000000000900463ffffffff168062ce8e3e1461016e578063024decc514610199578063076fd2f8146101c457806307973ccf14610207578063127ca4b41461023257806316e0a6111461026f57806317e5111114610298578063294a4540146102c15780635fc8e8c6146102fe5780636cdb22781461033b578063779a95761461036457806378522bc41461038d57806379111c1c146103b85780638da5cb5b146103e35780638f84aa091461040e57806396e39ce01461043957806399d698c5146104645780639f4216e81461048f578063b13d5d94146104cc578063b5cb15f7146104f7578063b744ff4d14610522578063c3bf7bf01461054d578063c543a7181461058a578063caee6c85146105b5578063d118404b146105f8578063e0df0ac614610635578063e1f2d3ec14610660578063ff508dab1461069d575b600080fd5b34801561017a57600080fd5b506101836106da565b6040516101909190612d0a565b60405180910390f35b3480156101a557600080fd5b506101ae610768565b6040516101bb9190612e80565b60405180910390f35b3480156101d057600080fd5b506101eb60048036036101e6919081019061279c565b610772565b6040516101fe9796959493929190612d47565b60405180910390f35b34801561021357600080fd5b5061021c610c53565b6040516102299190612e80565b60405180910390f35b34801561023e57600080fd5b5061025960048036036102549190810190612c08565b610c59565b6040516102669190612cef565b60405180910390f35b34801561027b57600080fd5b50610296600480360361029191908101906128fb565b610c97565b005b3480156102a457600080fd5b506102bf60048036036102ba91908101906128fb565b610e8b565b005b3480156102cd57600080fd5b506102e860048036036102e3919081019061279c565b6112a5565b6040516102f59190612d2c565b60405180910390f35b34801561030a57600080fd5b506103256004803603610320919081019061279c565b611357565b6040516103329190612d2c565b60405180910390f35b34801561034757600080fd5b50610362600480360361035d9190810190612a55565b6113f6565b005b34801561037057600080fd5b5061038b60048036036103869190810190612a55565b611844565b005b34801561039957600080fd5b506103a2611a6c565b6040516103af9190612e80565b60405180910390f35b3480156103c457600080fd5b506103cd611a72565b6040516103da9190612e80565b60405180910390f35b3480156103ef57600080fd5b506103f8611a7c565b6040516104059190612cef565b60405180910390f35b34801561041a57600080fd5b50610423611aa1565b6040516104309190612cef565b60405180910390f35b34801561044557600080fd5b5061044e611b0a565b60405161045b9190612e80565b60405180910390f35b34801561047057600080fd5b50610479611b10565b6040516104869190612e80565b60405180910390f35b34801561049b57600080fd5b506104b660048036036104b19190810190612c08565b611b16565b6040516104c39190612cef565b60405180910390f35b3480156104d857600080fd5b506104e1611b54565b6040516104ee9190612d0a565b60405180910390f35b34801561050357600080fd5b5061050c611be2565b6040516105199190612e80565b60405180910390f35b34801561052e57600080fd5b50610537611bec565b6040516105449190612cef565b60405180910390f35b34801561055957600080fd5b50610574600480360361056f91908101906127c5565b611c12565b6040516105819190612d2c565b60405180910390f35b34801561059657600080fd5b5061059f611d0f565b6040516105ac9190612e80565b60405180910390f35b3480156105c157600080fd5b506105dc60048036036105d7919081019061279c565b611d15565b6040516105ef9796959493929190612de0565b60405180910390f35b34801561060457600080fd5b5061061f600480360361061a91908101906127c5565b6122ca565b60405161062c9190612d2c565b60405180910390f35b34801561064157600080fd5b5061064a6123d9565b6040516106579190612e80565b60405180910390f35b34801561066c57600080fd5b5061068760048036036106829190810190612801565b6123e3565b6040516106949190612d2c565b60405180910390f35b3480156106a957600080fd5b506106c460048036036106bf9190810190612c08565b61263b565b6040516106d19190612cef565b60405180910390f35b6060600180548060200260200160405190810160405280929190818152602001828054801561075e57602002820191906000526020600020905b8160009054906101000a900473ffffffffffffffffffffffffffffffffffffffff1673ffffffffffffffffffffffffffffffffffffffff1681526020019060010190808311610714575b5050505050905090565b6000600e54905090565b606080606080606080600080600760008a73ffffffffffffffffffffffffffffffffffffffff1673ffffffffffffffffffffffffffffffffffffffff16815260200190815260200160002060003373ffffffffffffffffffffffffffffffffffffffff1673ffffffffffffffffffffffffffffffffffffffff16815260200190815260200160002060009054906101000a900460ff16151561081357600080fd5b600460008a73ffffffffffffffffffffffffffffffffffffffff1673ffffffffffffffffffffffffffffffffffffffff16815260200190815260200160002090508060000181600101826002018360030184600401856005018660090160009054906101000a900473ffffffffffffffffffffffffffffffffffffffff16868054600181600116156101000203166002900480601f0160208091040260200160405190810160405280929190818152602001828054600181600116156101000203166002900480156109265780601f106108fb57610100808354040283529160200191610926565b820191906000526020600020905b81548152906001019060200180831161090957829003601f168201915b50505050509650858054600181600116156101000203166002900480601f0160208091040260200160405190810160405280929190818152602001828054600181600116156101000203166002900480156109c25780601f10610997576101008083540402835291602001916109c2565b820191906000526020600020905b8154815290600101906020018083116109a557829003601f168201915b50505050509550848054600181600116156101000203166002900480601f016020809104026020016040519081016040528092919081815260200182805460018160011615610100020316600290048015610a5e5780601f10610a3357610100808354040283529160200191610a5e565b820191906000526020600020905b815481529060010190602001808311610a4157829003601f168201915b50505050509450838054600181600116156101000203166002900480601f016020809104026020016040519081016040528092919081815260200182805460018160011615610100020316600290048015610afa5780601f10610acf57610100808354040283529160200191610afa565b820191906000526020600020905b815481529060010190602001808311610add57829003601f168201915b50505050509350828054600181600116156101000203166002900480601f016020809104026020016040519081016040528092919081815260200182805460018160011615610100020316600290048015610b965780601f10610b6b57610100808354040283529160200191610b96565b820191906000526020600020905b815481529060010190602001808311610b7957829003601f168201915b50505050509250818054600181600116156101000203166002900480601f016020809104026020016040519081016040528092919081815260200182805460018160011615610100020316600290048015610c325780601f10610c0757610100808354040283529160200191610c32565b820191906000526020600020905b815481529060010190602001808311610c1557829003601f168201915b50505050509150975097509750975097509750975050919395979092949650565b600b5481565b600281815481101515610c6857fe5b906000526020600020016000915054906101000a900473ffffffffffffffffffffffffffffffffffffffff1681565b6000601060009054906101000a900473ffffffffffffffffffffffffffffffffffffffff1673ffffffffffffffffffffffffffffffffffffffff163373ffffffffffffffffffffffffffffffffffffffff16141515610cf557600080fd5b600960008a73ffffffffffffffffffffffffffffffffffffffff1673ffffffffffffffffffffffffffffffffffffffff16815260200190815260200160002060009054906101000a900460ff161515610d4d57600080fd5b600560008a73ffffffffffffffffffffffffffffffffffffffff1673ffffffffffffffffffffffffffffffffffffffff168152602001908152602001600020905087816000019080519060200190610da6929190612679565b5086816001019080519060200190610dbf929190612679565b5085816002019080519060200190610dd8929190612679565b5084816003019080519060200190610df1929190612679565b5083816004019080519060200190610e0a929190612679565b5082816007019080519060200190610e23929190612679565b5081816008019080519060200190610e3c929190612679565b50888160090160006101000a81548173ffffffffffffffffffffffffffffffffffffffff021916908373ffffffffffffffffffffffffffffffffffffffff160217905550505050505050505050565b6000601060009054906101000a900473ffffffffffffffffffffffffffffffffffffffff1673ffffffffffffffffffffffffffffffffffffffff163373ffffffffffffffffffffffffffffffffffffffff16141515610ee957600080fd5b600960008a73ffffffffffffffffffffffffffffffffffffffff1673ffffffffffffffffffffffffffffffffffffffff16815260200190815260200160002060009054906101000a900460ff16151515610f4257600080fd5b600560008a73ffffffffffffffffffffffffffffffffffffffff1673ffffffffffffffffffffffffffffffffffffffff168152602001908152602001600020905087816000019080519060200190610f9b929190612679565b5086816001019080519060200190610fb4929190612679565b5085816002019080519060200190610fcd929190612679565b5084816003019080519060200190610fe6929190612679565b5083816004019080519060200190610fff929190612679565b5082816007019080519060200190611018929190612679565b5081816008019080519060200190611031929190612679565b50888160090160006101000a81548173ffffffffffffffffffffffffffffffffffffffff021916908373ffffffffffffffffffffffffffffffffffffffff1602179055504281600a018190555060028990806001815401808255809150509060018203906000526020600020016000909192909190916101000a81548173ffffffffffffffffffffffffffffffffffffffff021916908373ffffffffffffffffffffffffffffffffffffffff160217905550506001600960008b73ffffffffffffffffffffffffffffffffffffffff1673ffffffffffffffffffffffffffffffffffffffff16815260200190815260200160002060006101000a81548160ff0219169083151502179055506001600760008b73ffffffffffffffffffffffffffffffffffffffff1673ffffffffffffffffffffffffffffffffffffffff16815260200190815260200160002060008b73ffffffffffffffffffffffffffffffffffffffff1673ffffffffffffffffffffffffffffffffffffffff16815260200190815260200160002060006101000a81548160ff0219169083151502179055506001600760008b73ffffffffffffffffffffffffffffffffffffffff1673ffffffffffffffffffffffffffffffffffffffff1681526020019081526020016000206000601060009054906101000a900473ffffffffffffffffffffffffffffffffffffffff1673ffffffffffffffffffffffffffffffffffffffff1673ffffffffffffffffffffffffffffffffffffffff16815260200190815260200160002060006101000a81548160ff021916908315150217905550600c60008154809291906001019190505550505050505050505050565b60006001600760003373ffffffffffffffffffffffffffffffffffffffff1673ffffffffffffffffffffffffffffffffffffffff16815260200190815260200160002060008473ffffffffffffffffffffffffffffffffffffffff1673ffffffffffffffffffffffffffffffffffffffff16815260200190815260200160002060006101000a81548160ff021916908315150217905550600e6000815480929190600101919050555060019050919050565b600080600760003373ffffffffffffffffffffffffffffffffffffffff1673ffffffffffffffffffffffffffffffffffffffff16815260200190815260200160002060008473ffffffffffffffffffffffffffffffffffffffff1673ffffffffffffffffffffffffffffffffffffffff16815260200190815260200160002060006101000a81548160ff02191690831515021790555060019050919050565b6000601060009054906101000a900473ffffffffffffffffffffffffffffffffffffffff1673ffffffffffffffffffffffffffffffffffffffff163373ffffffffffffffffffffffffffffffffffffffff1614151561145457600080fd5b600860008c73ffffffffffffffffffffffffffffffffffffffff1673ffffffffffffffffffffffffffffffffffffffff16815260200190815260200160002060009054906101000a900460ff161515156114ad57600080fd5b600460008c73ffffffffffffffffffffffffffffffffffffffff1673ffffffffffffffffffffffffffffffffffffffff168152602001908152602001600020905089816000019080519060200190611506929190612679565b508881600101908051906020019061151f929190612679565b5087816002019080519060200190611538929190612679565b5086816003019080519060200190611551929190612679565b508581600401908051906020019061156a929190612679565b5084816005019080519060200190611583929190612679565b508381600601908051906020019061159c929190612679565b50828160070190805190602001906115b5929190612679565b50818160080190805190602001906115ce929190612679565b508a8160090160006101000a81548173ffffffffffffffffffffffffffffffffffffffff021916908373ffffffffffffffffffffffffffffffffffffffff1602179055504281600a018190555060018b90806001815401808255809150509060018203906000526020600020016000909192909190916101000a81548173ffffffffffffffffffffffffffffffffffffffff021916908373ffffffffffffffffffffffffffffffffffffffff160217905550506001600860008d73ffffffffffffffffffffffffffffffffffffffff1673ffffffffffffffffffffffffffffffffffffffff16815260200190815260200160002060006101000a81548160ff0219169083151502179055506001600760008d73ffffffffffffffffffffffffffffffffffffffff1673ffffffffffffffffffffffffffffffffffffffff16815260200190815260200160002060008d73ffffffffffffffffffffffffffffffffffffffff1673ffffffffffffffffffffffffffffffffffffffff16815260200190815260200160002060006101000a81548160ff0219169083151502179055506001600760008d73ffffffffffffffffffffffffffffffffffffffff1673ffffffffffffffffffffffffffffffffffffffff1681526020019081526020016000206000601060009054906101000a900473ffffffffffffffffffffffffffffffffffffffff1673ffffffffffffffffffffffffffffffffffffffff1673ffffffffffffffffffffffffffffffffffffffff16815260200190815260200160002060006101000a81548160ff021916908315150217905550600b600081548092919060010191905055505050505050505050505050565b6000601060009054906101000a900473ffffffffffffffffffffffffffffffffffffffff1673ffffffffffffffffffffffffffffffffffffffff163373ffffffffffffffffffffffffffffffffffffffff161415156118a257600080fd5b600860008c73ffffffffffffffffffffffffffffffffffffffff1673ffffffffffffffffffffffffffffffffffffffff16815260200190815260200160002060009054906101000a900460ff1615156118fa57600080fd5b600460008c73ffffffffffffffffffffffffffffffffffffffff1673ffffffffffffffffffffffffffffffffffffffff168152602001908152602001600020905089816000019080519060200190611953929190612679565b508881600101908051906020019061196c929190612679565b5087816002019080519060200190611985929190612679565b508681600301908051906020019061199e929190612679565b50858160040190805190602001906119b7929190612679565b50848160050190805190602001906119d0929190612679565b50838160060190805190602001906119e9929190612679565b5082816007019080519060200190611a02929190612679565b5081816008019080519060200190611a1b929190612679565b508a8160090160006101000a81548173ffffffffffffffffffffffffffffffffffffffff021916908373ffffffffffffffffffffffffffffffffffffffff1602179055505050505050505050505050565b600c5481565b6000600c54905090565b6000809054906101000a900473ffffffffffffffffffffffffffffffffffffffff1681565b6000336000806101000a81548173ffffffffffffffffffffffffffffffffffffffff021916908373ffffffffffffffffffffffffffffffffffffffff1602179055506000809054906101000a900473ffffffffffffffffffffffffffffffffffffffff16905090565b600f5481565b600d5481565b600181815481101515611b2557fe5b906000526020600020016000915054906101000a900473ffffffffffffffffffffffffffffffffffffffff1681565b60606002805480602002602001604051908101604052809291908181526020018280548015611bd857602002820191906000526020600020905b8160009054906101000a900473ffffffffffffffffffffffffffffffffffffffff1673ffffffffffffffffffffffffffffffffffffffff1681526020019060010190808311611b8e575b5050505050905090565b6000600b54905090565b601060009054906101000a900473ffffffffffffffffffffffffffffffffffffffff1681565b6000601060009054906101000a900473ffffffffffffffffffffffffffffffffffffffff1673ffffffffffffffffffffffffffffffffffffffff163373ffffffffffffffffffffffffffffffffffffffff16141515611c7057600080fd5b6000600760008573ffffffffffffffffffffffffffffffffffffffff1673ffffffffffffffffffffffffffffffffffffffff16815260200190815260200160002060008473ffffffffffffffffffffffffffffffffffffffff1673ffffffffffffffffffffffffffffffffffffffff16815260200190815260200160002060006101000a81548160ff0219169083151502179055506001905092915050565b600e5481565b60608060608060608060606000600760008a73ffffffffffffffffffffffffffffffffffffffff1673ffffffffffffffffffffffffffffffffffffffff16815260200190815260200160002060003373ffffffffffffffffffffffffffffffffffffffff1673ffffffffffffffffffffffffffffffffffffffff16815260200190815260200160002060009054906101000a900460ff161515611db757600080fd5b600960008a73ffffffffffffffffffffffffffffffffffffffff1673ffffffffffffffffffffffffffffffffffffffff16815260200190815260200160002060009054906101000a900460ff161515611e0f57600080fd5b600560008a73ffffffffffffffffffffffffffffffffffffffff1673ffffffffffffffffffffffffffffffffffffffff168152602001908152602001600020905080600001816001018260020183600301846004018560070186600801868054600181600116156101000203166002900480601f016020809104026020016040519081016040528092919081815260200182805460018160011615610100020316600290048015611f015780601f10611ed657610100808354040283529160200191611f01565b820191906000526020600020905b815481529060010190602001808311611ee457829003601f168201915b50505050509650858054600181600116156101000203166002900480601f016020809104026020016040519081016040528092919081815260200182805460018160011615610100020316600290048015611f9d5780601f10611f7257610100808354040283529160200191611f9d565b820191906000526020600020905b815481529060010190602001808311611f8057829003601f168201915b50505050509550848054600181600116156101000203166002900480601f0160208091040260200160405190810160405280929190818152602001828054600181600116156101000203166002900480156120395780601f1061200e57610100808354040283529160200191612039565b820191906000526020600020905b81548152906001019060200180831161201c57829003601f168201915b50505050509450838054600181600116156101000203166002900480601f0160208091040260200160405190810160405280929190818152602001828054600181600116156101000203166002900480156120d55780601f106120aa576101008083540402835291602001916120d5565b820191906000526020600020905b8154815290600101906020018083116120b857829003601f168201915b50505050509350828054600181600116156101000203166002900480601f0160208091040260200160405190810160405280929190818152602001828054600181600116156101000203166002900480156121715780601f1061214657610100808354040283529160200191612171565b820191906000526020600020905b81548152906001019060200180831161215457829003601f168201915b50505050509250818054600181600116156101000203166002900480601f01602080910402602001604051908101604052809291908181526020018280546001816001161561010002031660029004801561220d5780601f106121e25761010080835404028352916020019161220d565b820191906000526020600020905b8154815290600101906020018083116121f057829003601f168201915b50505050509150808054600181600116156101000203166002900480601f0160208091040260200160405190810160405280929190818152602001828054600181600116156101000203166002900480156122a95780601f1061227e576101008083540402835291602001916122a9565b820191906000526020600020905b81548152906001019060200180831161228c57829003601f168201915b50505050509050975097509750975097509750975050919395979092949650565b6000601060009054906101000a900473ffffffffffffffffffffffffffffffffffffffff1673ffffffffffffffffffffffffffffffffffffffff163373ffffffffffffffffffffffffffffffffffffffff1614151561232857600080fd5b6001600760008573ffffffffffffffffffffffffffffffffffffffff1673ffffffffffffffffffffffffffffffffffffffff16815260200190815260200160002060008473ffffffffffffffffffffffffffffffffffffffff1673ffffffffffffffffffffffffffffffffffffffff16815260200190815260200160002060006101000a81548160ff021916908315150217905550600d600081548092919060010191905055506001905092915050565b6000600d54905090565b600080601060009054906101000a900473ffffffffffffffffffffffffffffffffffffffff1673ffffffffffffffffffffffffffffffffffffffff163373ffffffffffffffffffffffffffffffffffffffff1614151561244257600080fd5b600a60008b73ffffffffffffffffffffffffffffffffffffffff1673ffffffffffffffffffffffffffffffffffffffff16815260200190815260200160002060009054906101000a900460ff1615151561249b57600080fd5b600660008b73ffffffffffffffffffffffffffffffffffffffff1673ffffffffffffffffffffffffffffffffffffffff1681526020019081526020016000209050878160000190805190602001906124f4929190612679565b508681600101908051906020019061250d929190612679565b5085816002019080519060200190612526929190612679565b50848160030181905550838160040160006101000a81548173ffffffffffffffffffffffffffffffffffffffff021916908373ffffffffffffffffffffffffffffffffffffffff160217905550828160050160006101000a81548173ffffffffffffffffffffffffffffffffffffffff021916908373ffffffffffffffffffffffffffffffffffffffff16021790555060038a90806001815401808255809150509060018203906000526020600020016000909192909190916101000a81548173ffffffffffffffffffffffffffffffffffffffff021916908373ffffffffffffffffffffffffffffffffffffffff16021790555050600f600081548092919060010191905055505098975050505050505050565b60038181548110151561264a57fe5b906000526020600020016000915054906101000a900473ffffffffffffffffffffffffffffffffffffffff1681565b828054600181600116156101000203166002900490600052602060002090601f016020900481019282601f106126ba57805160ff19168380011785556126e8565b828001600101855582156126e8579182015b828111156126e75782518255916020019190600101906126cc565b5b5090506126f591906126f9565b5090565b61271b91905b808211156127175760008160009055506001016126ff565b5090565b90565b600061272a8235612f5a565b905092915050565b600082601f830112151561274557600080fd5b813561275861275382612ec8565b612e9b565b9150808252602083016020830185838301111561277457600080fd5b61277f838284612f84565b50505092915050565b60006127948235612f7a565b905092915050565b6000602082840312156127ae57600080fd5b60006127bc8482850161271e565b91505092915050565b600080604083850312156127d857600080fd5b60006127e68582860161271e565b92505060206127f78582860161271e565b9150509250929050565b600080600080600080600080610100898b03121561281e57600080fd5b600061282c8b828c0161271e565b985050602061283d8b828c0161271e565b975050604089013567ffffffffffffffff81111561285a57600080fd5b6128668b828c01612732565b965050606089013567ffffffffffffffff81111561288357600080fd5b61288f8b828c01612732565b955050608089013567ffffffffffffffff8111156128ac57600080fd5b6128b88b828c01612732565b94505060a06128c98b828c01612788565b93505060c06128da8b828c0161271e565b92505060e06128eb8b828c0161271e565b9150509295985092959890939650565b600080600080600080600080610100898b03121561291857600080fd5b60006129268b828c0161271e565b985050602089013567ffffffffffffffff81111561294357600080fd5b61294f8b828c01612732565b975050604089013567ffffffffffffffff81111561296c57600080fd5b6129788b828c01612732565b965050606089013567ffffffffffffffff81111561299557600080fd5b6129a18b828c01612732565b955050608089013567ffffffffffffffff8111156129be57600080fd5b6129ca8b828c01612732565b94505060a089013567ffffffffffffffff8111156129e757600080fd5b6129f38b828c01612732565b93505060c089013567ffffffffffffffff811115612a1057600080fd5b612a1c8b828c01612732565b92505060e089013567ffffffffffffffff811115612a3957600080fd5b612a458b828c01612732565b9150509295985092959890939650565b6000806000806000806000806000806101408b8d031215612a7557600080fd5b6000612a838d828e0161271e565b9a505060208b013567ffffffffffffffff811115612aa057600080fd5b612aac8d828e01612732565b99505060408b013567ffffffffffffffff811115612ac957600080fd5b612ad58d828e01612732565b98505060608b013567ffffffffffffffff811115612af257600080fd5b612afe8d828e01612732565b97505060808b013567ffffffffffffffff811115612b1b57600080fd5b612b278d828e01612732565b96505060a08b013567ffffffffffffffff811115612b4457600080fd5b612b508d828e01612732565b95505060c08b013567ffffffffffffffff811115612b6d57600080fd5b612b798d828e01612732565b94505060e08b013567ffffffffffffffff811115612b9657600080fd5b612ba28d828e01612732565b9350506101008b013567ffffffffffffffff811115612bc057600080fd5b612bcc8d828e01612732565b9250506101208b013567ffffffffffffffff811115612bea57600080fd5b612bf68d828e01612732565b9150509295989b9194979a5092959850565b600060208284031215612c1a57600080fd5b6000612c2884828501612788565b91505092915050565b612c3a81612f24565b82525050565b6000612c4b82612f01565b808452602084019350612c5d83612ef4565b60005b82811015612c8f57612c73868351612c31565b612c7c82612f17565b9150602086019550600181019050612c60565b50849250505092915050565b612ca481612f44565b82525050565b6000612cb582612f0c565b808452612cc9816020860160208601612f93565b612cd281612fc6565b602085010191505092915050565b612ce981612f50565b82525050565b6000602082019050612d046000830184612c31565b92915050565b60006020820190508181036000830152612d248184612c40565b905092915050565b6000602082019050612d416000830184612c9b565b92915050565b600060e0820190508181036000830152612d61818a612caa565b90508181036020830152612d758189612caa565b90508181036040830152612d898188612caa565b90508181036060830152612d9d8187612caa565b90508181036080830152612db18186612caa565b905081810360a0830152612dc58185612caa565b9050612dd460c0830184612c31565b98975050505050505050565b600060e0820190508181036000830152612dfa818a612caa565b90508181036020830152612e0e8189612caa565b90508181036040830152612e228188612caa565b90508181036060830152612e368187612caa565b90508181036080830152612e4a8186612caa565b905081810360a0830152612e5e8185612caa565b905081810360c0830152612e728184612caa565b905098975050505050505050565b6000602082019050612e956000830184612ce0565b92915050565b6000604051905081810181811067ffffffffffffffff82111715612ebe57600080fd5b8060405250919050565b600067ffffffffffffffff821115612edf57600080fd5b601f19601f8301169050602081019050919050565b6000602082019050919050565b600081519050919050565b600081519050919050565b6000602082019050919050565b600073ffffffffffffffffffffffffffffffffffffffff82169050919050565b60008115159050919050565b6000819050919050565b600073ffffffffffffffffffffffffffffffffffffffff82169050919050565b6000819050919050565b82818337600083830152505050565b60005b83811015612fb1578082015181840152602081019050612f96565b83811115612fc0576000848401525b50505050565b6000601f19601f83011690509190505600a265627a7a72305820f314f8ad6cc9a7051b13bd0ac04c0c8c85f402cd4eef7da039eec7b98c990d686c6578706572696d656e74616cf50037",
					"opcodes": "PUSH1 0x80 PUSH1 0x40 MSTORE PUSH1 0x0 PUSH1 0xB SSTORE PUSH1 0x0 PUSH1 0xC SSTORE PUSH1 0x0 PUSH1 0xD SSTORE PUSH1 0x0 PUSH1 0xE SSTORE PUSH1 0x0 PUSH1 0xF SSTORE PUSH20 0xC50C6297F56B033633C30354A854B074749CD2DC PUSH1 0x10 PUSH1 0x0 PUSH2 0x100 EXP DUP2 SLOAD DUP2 PUSH20 0xFFFFFFFFFFFFFFFFFFFFFFFFFFFFFFFFFFFFFFFF MUL NOT AND SWAP1 DUP4 PUSH20 0xFFFFFFFFFFFFFFFFFFFFFFFFFFFFFFFFFFFFFFFF AND MUL OR SWAP1 SSTORE POP CALLVALUE DUP1 ISZERO PUSH2 0x7E JUMPI PUSH1 0x0 DUP1 REVERT JUMPDEST POP PUSH2 0x3011 DUP1 PUSH2 0x8E PUSH1 0x0 CODECOPY PUSH1 0x0 RETURN STOP PUSH1 0x80 PUSH1 0x40 MSTORE PUSH1 0x4 CALLDATASIZE LT PUSH2 0x169 JUMPI PUSH1 0x0 CALLDATALOAD PUSH29 0x100000000000000000000000000000000000000000000000000000000 SWAP1 DIV PUSH4 0xFFFFFFFF AND DUP1 PUSH3 0xCE8E3E EQ PUSH2 0x16E JUMPI DUP1 PUSH4 0x24DECC5 EQ PUSH2 0x199 JUMPI DUP1 PUSH4 0x76FD2F8 EQ PUSH2 0x1C4 JUMPI DUP1 PUSH4 0x7973CCF EQ PUSH2 0x207 JUMPI DUP1 PUSH4 0x127CA4B4 EQ PUSH2 0x232 JUMPI DUP1 PUSH4 0x16E0A611 EQ PUSH2 0x26F JUMPI DUP1 PUSH4 0x17E51111 EQ PUSH2 0x298 JUMPI DUP1 PUSH4 0x294A4540 EQ PUSH2 0x2C1 JUMPI DUP1 PUSH4 0x5FC8E8C6 EQ PUSH2 0x2FE JUMPI DUP1 PUSH4 0x6CDB2278 EQ PUSH2 0x33B JUMPI DUP1 PUSH4 0x779A9576 EQ PUSH2 0x364 JUMPI DUP1 PUSH4 0x78522BC4 EQ PUSH2 0x38D JUMPI DUP1 PUSH4 0x79111C1C EQ PUSH2 0x3B8 JUMPI DUP1 PUSH4 0x8DA5CB5B EQ PUSH2 0x3E3 JUMPI DUP1 PUSH4 0x8F84AA09 EQ PUSH2 0x40E JUMPI DUP1 PUSH4 0x96E39CE0 EQ PUSH2 0x439 JUMPI DUP1 PUSH4 0x99D698C5 EQ PUSH2 0x464 JUMPI DUP1 PUSH4 0x9F4216E8 EQ PUSH2 0x48F JUMPI DUP1 PUSH4 0xB13D5D94 EQ PUSH2 0x4CC JUMPI DUP1 PUSH4 0xB5CB15F7 EQ PUSH2 0x4F7 JUMPI DUP1 PUSH4 0xB744FF4D EQ PUSH2 0x522 JUMPI DUP1 PUSH4 0xC3BF7BF0 EQ PUSH2 0x54D JUMPI DUP1 PUSH4 0xC543A718 EQ PUSH2 0x58A JUMPI DUP1 PUSH4 0xCAEE6C85 EQ PUSH2 0x5B5 JUMPI DUP1 PUSH4 0xD118404B EQ PUSH2 0x5F8 JUMPI DUP1 PUSH4 0xE0DF0AC6 EQ PUSH2 0x635 JUMPI DUP1 PUSH4 0xE1F2D3EC EQ PUSH2 0x660 JUMPI DUP1 PUSH4 0xFF508DAB EQ PUSH2 0x69D JUMPI JUMPDEST PUSH1 0x0 DUP1 REVERT JUMPDEST CALLVALUE DUP1 ISZERO PUSH2 0x17A JUMPI PUSH1 0x0 DUP1 REVERT JUMPDEST POP PUSH2 0x183 PUSH2 0x6DA JUMP JUMPDEST PUSH1 0x40 MLOAD PUSH2 0x190 SWAP2 SWAP1 PUSH2 0x2D0A JUMP JUMPDEST PUSH1 0x40 MLOAD DUP1 SWAP2 SUB SWAP1 RETURN JUMPDEST CALLVALUE DUP1 ISZERO PUSH2 0x1A5 JUMPI PUSH1 0x0 DUP1 REVERT JUMPDEST POP PUSH2 0x1AE PUSH2 0x768 JUMP JUMPDEST PUSH1 0x40 MLOAD PUSH2 0x1BB SWAP2 SWAP1 PUSH2 0x2E80 JUMP JUMPDEST PUSH1 0x40 MLOAD DUP1 SWAP2 SUB SWAP1 RETURN JUMPDEST CALLVALUE DUP1 ISZERO PUSH2 0x1D0 JUMPI PUSH1 0x0 DUP1 REVERT JUMPDEST POP PUSH2 0x1EB PUSH1 0x4 DUP1 CALLDATASIZE SUB PUSH2 0x1E6 SWAP2 SWAP1 DUP2 ADD SWAP1 PUSH2 0x279C JUMP JUMPDEST PUSH2 0x772 JUMP JUMPDEST PUSH1 0x40 MLOAD PUSH2 0x1FE SWAP8 SWAP7 SWAP6 SWAP5 SWAP4 SWAP3 SWAP2 SWAP1 PUSH2 0x2D47 JUMP JUMPDEST PUSH1 0x40 MLOAD DUP1 SWAP2 SUB SWAP1 RETURN JUMPDEST CALLVALUE DUP1 ISZERO PUSH2 0x213 JUMPI PUSH1 0x0 DUP1 REVERT JUMPDEST POP PUSH2 0x21C PUSH2 0xC53 JUMP JUMPDEST PUSH1 0x40 MLOAD PUSH2 0x229 SWAP2 SWAP1 PUSH2 0x2E80 JUMP JUMPDEST PUSH1 0x40 MLOAD DUP1 SWAP2 SUB SWAP1 RETURN JUMPDEST CALLVALUE DUP1 ISZERO PUSH2 0x23E JUMPI PUSH1 0x0 DUP1 REVERT JUMPDEST POP PUSH2 0x259 PUSH1 0x4 DUP1 CALLDATASIZE SUB PUSH2 0x254 SWAP2 SWAP1 DUP2 ADD SWAP1 PUSH2 0x2C08 JUMP JUMPDEST PUSH2 0xC59 JUMP JUMPDEST PUSH1 0x40 MLOAD PUSH2 0x266 SWAP2 SWAP1 PUSH2 0x2CEF JUMP JUMPDEST PUSH1 0x40 MLOAD DUP1 SWAP2 SUB SWAP1 RETURN JUMPDEST CALLVALUE DUP1 ISZERO PUSH2 0x27B JUMPI PUSH1 0x0 DUP1 REVERT JUMPDEST POP PUSH2 0x296 PUSH1 0x4 DUP1 CALLDATASIZE SUB PUSH2 0x291 SWAP2 SWAP1 DUP2 ADD SWAP1 PUSH2 0x28FB JUMP JUMPDEST PUSH2 0xC97 JUMP JUMPDEST STOP JUMPDEST CALLVALUE DUP1 ISZERO PUSH2 0x2A4 JUMPI PUSH1 0x0 DUP1 REVERT JUMPDEST POP PUSH2 0x2BF PUSH1 0x4 DUP1 CALLDATASIZE SUB PUSH2 0x2BA SWAP2 SWAP1 DUP2 ADD SWAP1 PUSH2 0x28FB JUMP JUMPDEST PUSH2 0xE8B JUMP JUMPDEST STOP JUMPDEST CALLVALUE DUP1 ISZERO PUSH2 0x2CD JUMPI PUSH1 0x0 DUP1 REVERT JUMPDEST POP PUSH2 0x2E8 PUSH1 0x4 DUP1 CALLDATASIZE SUB PUSH2 0x2E3 SWAP2 SWAP1 DUP2 ADD SWAP1 PUSH2 0x279C JUMP JUMPDEST PUSH2 0x12A5 JUMP JUMPDEST PUSH1 0x40 MLOAD PUSH2 0x2F5 SWAP2 SWAP1 PUSH2 0x2D2C JUMP JUMPDEST PUSH1 0x40 MLOAD DUP1 SWAP2 SUB SWAP1 RETURN JUMPDEST CALLVALUE DUP1 ISZERO PUSH2 0x30A JUMPI PUSH1 0x0 DUP1 REVERT JUMPDEST POP PUSH2 0x325 PUSH1 0x4 DUP1 CALLDATASIZE SUB PUSH2 0x320 SWAP2 SWAP1 DUP2 ADD SWAP1 PUSH2 0x279C JUMP JUMPDEST PUSH2 0x1357 JUMP JUMPDEST PUSH1 0x40 MLOAD PUSH2 0x332 SWAP2 SWAP1 PUSH2 0x2D2C JUMP JUMPDEST PUSH1 0x40 MLOAD DUP1 SWAP2 SUB SWAP1 RETURN JUMPDEST CALLVALUE DUP1 ISZERO PUSH2 0x347 JUMPI PUSH1 0x0 DUP1 REVERT JUMPDEST POP PUSH2 0x362 PUSH1 0x4 DUP1 CALLDATASIZE SUB PUSH2 0x35D SWAP2 SWAP1 DUP2 ADD SWAP1 PUSH2 0x2A55 JUMP JUMPDEST PUSH2 0x13F6 JUMP JUMPDEST STOP JUMPDEST CALLVALUE DUP1 ISZERO PUSH2 0x370 JUMPI PUSH1 0x0 DUP1 REVERT JUMPDEST POP PUSH2 0x38B PUSH1 0x4 DUP1 CALLDATASIZE SUB PUSH2 0x386 SWAP2 SWAP1 DUP2 ADD SWAP1 PUSH2 0x2A55 JUMP JUMPDEST PUSH2 0x1844 JUMP JUMPDEST STOP JUMPDEST CALLVALUE DUP1 ISZERO PUSH2 0x399 JUMPI PUSH1 0x0 DUP1 REVERT JUMPDEST POP PUSH2 0x3A2 PUSH2 0x1A6C JUMP JUMPDEST PUSH1 0x40 MLOAD PUSH2 0x3AF SWAP2 SWAP1 PUSH2 0x2E80 JUMP JUMPDEST PUSH1 0x40 MLOAD DUP1 SWAP2 SUB SWAP1 RETURN JUMPDEST CALLVALUE DUP1 ISZERO PUSH2 0x3C4 JUMPI PUSH1 0x0 DUP1 REVERT JUMPDEST POP PUSH2 0x3CD PUSH2 0x1A72 JUMP JUMPDEST PUSH1 0x40 MLOAD PUSH2 0x3DA SWAP2 SWAP1 PUSH2 0x2E80 JUMP JUMPDEST PUSH1 0x40 MLOAD DUP1 SWAP2 SUB SWAP1 RETURN JUMPDEST CALLVALUE DUP1 ISZERO PUSH2 0x3EF JUMPI PUSH1 0x0 DUP1 REVERT JUMPDEST POP PUSH2 0x3F8 PUSH2 0x1A7C JUMP JUMPDEST PUSH1 0x40 MLOAD PUSH2 0x405 SWAP2 SWAP1 PUSH2 0x2CEF JUMP JUMPDEST PUSH1 0x40 MLOAD DUP1 SWAP2 SUB SWAP1 RETURN JUMPDEST CALLVALUE DUP1 ISZERO PUSH2 0x41A JUMPI PUSH1 0x0 DUP1 REVERT JUMPDEST POP PUSH2 0x423 PUSH2 0x1AA1 JUMP JUMPDEST PUSH1 0x40 MLOAD PUSH2 0x430 SWAP2 SWAP1 PUSH2 0x2CEF JUMP JUMPDEST PUSH1 0x40 MLOAD DUP1 SWAP2 SUB SWAP1 RETURN JUMPDEST CALLVALUE DUP1 ISZERO PUSH2 0x445 JUMPI PUSH1 0x0 DUP1 REVERT JUMPDEST POP PUSH2 0x44E PUSH2 0x1B0A JUMP JUMPDEST PUSH1 0x40 MLOAD PUSH2 0x45B SWAP2 SWAP1 PUSH2 0x2E80 JUMP JUMPDEST PUSH1 0x40 MLOAD DUP1 SWAP2 SUB SWAP1 RETURN JUMPDEST CALLVALUE DUP1 ISZERO PUSH2 0x470 JUMPI PUSH1 0x0 DUP1 REVERT JUMPDEST POP PUSH2 0x479 PUSH2 0x1B10 JUMP JUMPDEST PUSH1 0x40 MLOAD PUSH2 0x486 SWAP2 SWAP1 PUSH2 0x2E80 JUMP JUMPDEST PUSH1 0x40 MLOAD DUP1 SWAP2 SUB SWAP1 RETURN JUMPDEST CALLVALUE DUP1 ISZERO PUSH2 0x49B JUMPI PUSH1 0x0 DUP1 REVERT JUMPDEST POP PUSH2 0x4B6 PUSH1 0x4 DUP1 CALLDATASIZE SUB PUSH2 0x4B1 SWAP2 SWAP1 DUP2 ADD SWAP1 PUSH2 0x2C08 JUMP JUMPDEST PUSH2 0x1B16 JUMP JUMPDEST PUSH1 0x40 MLOAD PUSH2 0x4C3 SWAP2 SWAP1 PUSH2 0x2CEF JUMP JUMPDEST PUSH1 0x40 MLOAD DUP1 SWAP2 SUB SWAP1 RETURN JUMPDEST CALLVALUE DUP1 ISZERO PUSH2 0x4D8 JUMPI PUSH1 0x0 DUP1 REVERT JUMPDEST POP PUSH2 0x4E1 PUSH2 0x1B54 JUMP JUMPDEST PUSH1 0x40 MLOAD PUSH2 0x4EE SWAP2 SWAP1 PUSH2 0x2D0A JUMP JUMPDEST PUSH1 0x40 MLOAD DUP1 SWAP2 SUB SWAP1 RETURN JUMPDEST CALLVALUE DUP1 ISZERO PUSH2 0x503 JUMPI PUSH1 0x0 DUP1 REVERT JUMPDEST POP PUSH2 0x50C PUSH2 0x1BE2 JUMP JUMPDEST PUSH1 0x40 MLOAD PUSH2 0x519 SWAP2 SWAP1 PUSH2 0x2E80 JUMP JUMPDEST PUSH1 0x40 MLOAD DUP1 SWAP2 SUB SWAP1 RETURN JUMPDEST CALLVALUE DUP1 ISZERO PUSH2 0x52E JUMPI PUSH1 0x0 DUP1 REVERT JUMPDEST POP PUSH2 0x537 PUSH2 0x1BEC JUMP JUMPDEST PUSH1 0x40 MLOAD PUSH2 0x544 SWAP2 SWAP1 PUSH2 0x2CEF JUMP JUMPDEST PUSH1 0x40 MLOAD DUP1 SWAP2 SUB SWAP1 RETURN JUMPDEST CALLVALUE DUP1 ISZERO PUSH2 0x559 JUMPI PUSH1 0x0 DUP1 REVERT JUMPDEST POP PUSH2 0x574 PUSH1 0x4 DUP1 CALLDATASIZE SUB PUSH2 0x56F SWAP2 SWAP1 DUP2 ADD SWAP1 PUSH2 0x27C5 JUMP JUMPDEST PUSH2 0x1C12 JUMP JUMPDEST PUSH1 0x40 MLOAD PUSH2 0x581 SWAP2 SWAP1 PUSH2 0x2D2C JUMP JUMPDEST PUSH1 0x40 MLOAD DUP1 SWAP2 SUB SWAP1 RETURN JUMPDEST CALLVALUE DUP1 ISZERO PUSH2 0x596 JUMPI PUSH1 0x0 DUP1 REVERT JUMPDEST POP PUSH2 0x59F PUSH2 0x1D0F JUMP JUMPDEST PUSH1 0x40 MLOAD PUSH2 0x5AC SWAP2 SWAP1 PUSH2 0x2E80 JUMP JUMPDEST PUSH1 0x40 MLOAD DUP1 SWAP2 SUB SWAP1 RETURN JUMPDEST CALLVALUE DUP1 ISZERO PUSH2 0x5C1 JUMPI PUSH1 0x0 DUP1 REVERT JUMPDEST POP PUSH2 0x5DC PUSH1 0x4 DUP1 CALLDATASIZE SUB PUSH2 0x5D7 SWAP2 SWAP1 DUP2 ADD SWAP1 PUSH2 0x279C JUMP JUMPDEST PUSH2 0x1D15 JUMP JUMPDEST PUSH1 0x40 MLOAD PUSH2 0x5EF SWAP8 SWAP7 SWAP6 SWAP5 SWAP4 SWAP3 SWAP2 SWAP1 PUSH2 0x2DE0 JUMP JUMPDEST PUSH1 0x40 MLOAD DUP1 SWAP2 SUB SWAP1 RETURN JUMPDEST CALLVALUE DUP1 ISZERO PUSH2 0x604 JUMPI PUSH1 0x0 DUP1 REVERT JUMPDEST POP PUSH2 0x61F PUSH1 0x4 DUP1 CALLDATASIZE SUB PUSH2 0x61A SWAP2 SWAP1 DUP2 ADD SWAP1 PUSH2 0x27C5 JUMP JUMPDEST PUSH2 0x22CA JUMP JUMPDEST PUSH1 0x40 MLOAD PUSH2 0x62C SWAP2 SWAP1 PUSH2 0x2D2C JUMP JUMPDEST PUSH1 0x40 MLOAD DUP1 SWAP2 SUB SWAP1 RETURN JUMPDEST CALLVALUE DUP1 ISZERO PUSH2 0x641 JUMPI PUSH1 0x0 DUP1 REVERT JUMPDEST POP PUSH2 0x64A PUSH2 0x23D9 JUMP JUMPDEST PUSH1 0x40 MLOAD PUSH2 0x657 SWAP2 SWAP1 PUSH2 0x2E80 JUMP JUMPDEST PUSH1 0x40 MLOAD DUP1 SWAP2 SUB SWAP1 RETURN JUMPDEST CALLVALUE DUP1 ISZERO PUSH2 0x66C JUMPI PUSH1 0x0 DUP1 REVERT JUMPDEST POP PUSH2 0x687 PUSH1 0x4 DUP1 CALLDATASIZE SUB PUSH2 0x682 SWAP2 SWAP1 DUP2 ADD SWAP1 PUSH2 0x2801 JUMP JUMPDEST PUSH2 0x23E3 JUMP JUMPDEST PUSH1 0x40 MLOAD PUSH2 0x694 SWAP2 SWAP1 PUSH2 0x2D2C JUMP JUMPDEST PUSH1 0x40 MLOAD DUP1 SWAP2 SUB SWAP1 RETURN JUMPDEST CALLVALUE DUP1 ISZERO PUSH2 0x6A9 JUMPI PUSH1 0x0 DUP1 REVERT JUMPDEST POP PUSH2 0x6C4 PUSH1 0x4 DUP1 CALLDATASIZE SUB PUSH2 0x6BF SWAP2 SWAP1 DUP2 ADD SWAP1 PUSH2 0x2C08 JUMP JUMPDEST PUSH2 0x263B JUMP JUMPDEST PUSH1 0x40 MLOAD PUSH2 0x6D1 SWAP2 SWAP1 PUSH2 0x2CEF JUMP JUMPDEST PUSH1 0x40 MLOAD DUP1 SWAP2 SUB SWAP1 RETURN JUMPDEST PUSH1 0x60 PUSH1 0x1 DUP1 SLOAD DUP1 PUSH1 0x20 MUL PUSH1 0x20 ADD PUSH1 0x40 MLOAD SWAP1 DUP2 ADD PUSH1 0x40 MSTORE DUP1 SWAP3 SWAP2 SWAP1 DUP2 DUP2 MSTORE PUSH1 0x20 ADD DUP3 DUP1 SLOAD DUP1 ISZERO PUSH2 0x75E JUMPI PUSH1 0x20 MUL DUP3 ADD SWAP2 SWAP1 PUSH1 0x0 MSTORE PUSH1 0x20 PUSH1 0x0 KECCAK256 SWAP1 JUMPDEST DUP2 PUSH1 0x0 SWAP1 SLOAD SWAP1 PUSH2 0x100 EXP SWAP1 DIV PUSH20 0xFFFFFFFFFFFFFFFFFFFFFFFFFFFFFFFFFFFFFFFF AND PUSH20 0xFFFFFFFFFFFFFFFFFFFFFFFFFFFFFFFFFFFFFFFF AND DUP2 MSTORE PUSH1 0x20 ADD SWAP1 PUSH1 0x1 ADD SWAP1 DUP1 DUP4 GT PUSH2 0x714 JUMPI JUMPDEST POP POP POP POP POP SWAP1 POP SWAP1 JUMP JUMPDEST PUSH1 0x0 PUSH1 0xE SLOAD SWAP1 POP SWAP1 JUMP JUMPDEST PUSH1 0x60 DUP1 PUSH1 0x60 DUP1 PUSH1 0x60 DUP1 PUSH1 0x0 DUP1 PUSH1 0x7 PUSH1 0x0 DUP11 PUSH20 0xFFFFFFFFFFFFFFFFFFFFFFFFFFFFFFFFFFFFFFFF AND PUSH20 0xFFFFFFFFFFFFFFFFFFFFFFFFFFFFFFFFFFFFFFFF AND DUP2 MSTORE PUSH1 0x20 ADD SWAP1 DUP2 MSTORE PUSH1 0x20 ADD PUSH1 0x0 KECCAK256 PUSH1 0x0 CALLER PUSH20 0xFFFFFFFFFFFFFFFFFFFFFFFFFFFFFFFFFFFFFFFF AND PUSH20 0xFFFFFFFFFFFFFFFFFFFFFFFFFFFFFFFFFFFFFFFF AND DUP2 MSTORE PUSH1 0x20 ADD SWAP1 DUP2 MSTORE PUSH1 0x20 ADD PUSH1 0x0 KECCAK256 PUSH1 0x0 SWAP1 SLOAD SWAP1 PUSH2 0x100 EXP SWAP1 DIV PUSH1 0xFF AND ISZERO ISZERO PUSH2 0x813 JUMPI PUSH1 0x0 DUP1 REVERT JUMPDEST PUSH1 0x4 PUSH1 0x0 DUP11 PUSH20 0xFFFFFFFFFFFFFFFFFFFFFFFFFFFFFFFFFFFFFFFF AND PUSH20 0xFFFFFFFFFFFFFFFFFFFFFFFFFFFFFFFFFFFFFFFF AND DUP2 MSTORE PUSH1 0x20 ADD SWAP1 DUP2 MSTORE PUSH1 0x20 ADD PUSH1 0x0 KECCAK256 SWAP1 POP DUP1 PUSH1 0x0 ADD DUP2 PUSH1 0x1 ADD DUP3 PUSH1 0x2 ADD DUP4 PUSH1 0x3 ADD DUP5 PUSH1 0x4 ADD DUP6 PUSH1 0x5 ADD DUP7 PUSH1 0x9 ADD PUSH1 0x0 SWAP1 SLOAD SWAP1 PUSH2 0x100 EXP SWAP1 DIV PUSH20 0xFFFFFFFFFFFFFFFFFFFFFFFFFFFFFFFFFFFFFFFF AND DUP7 DUP1 SLOAD PUSH1 0x1 DUP2 PUSH1 0x1 AND ISZERO PUSH2 0x100 MUL SUB AND PUSH1 0x2 SWAP1 DIV DUP1 PUSH1 0x1F ADD PUSH1 0x20 DUP1 SWAP2 DIV MUL PUSH1 0x20 ADD PUSH1 0x40 MLOAD SWAP1 DUP2 ADD PUSH1 0x40 MSTORE DUP1 SWAP3 SWAP2 SWAP1 DUP2 DUP2 MSTORE PUSH1 0x20 ADD DUP3 DUP1 SLOAD PUSH1 0x1 DUP2 PUSH1 0x1 AND ISZERO PUSH2 0x100 MUL SUB AND PUSH1 0x2 SWAP1 DIV DUP1 ISZERO PUSH2 0x926 JUMPI DUP1 PUSH1 0x1F LT PUSH2 0x8FB JUMPI PUSH2 0x100 DUP1 DUP4 SLOAD DIV MUL DUP4 MSTORE SWAP2 PUSH1 0x20 ADD SWAP2 PUSH2 0x926 JUMP JUMPDEST DUP3 ADD SWAP2 SWAP1 PUSH1 0x0 MSTORE PUSH1 0x20 PUSH1 0x0 KECCAK256 SWAP1 JUMPDEST DUP2 SLOAD DUP2 MSTORE SWAP1 PUSH1 0x1 ADD SWAP1 PUSH1 0x20 ADD DUP1 DUP4 GT PUSH2 0x909 JUMPI DUP3 SWAP1 SUB PUSH1 0x1F AND DUP3 ADD SWAP2 JUMPDEST POP POP POP POP POP SWAP7 POP DUP6 DUP1 SLOAD PUSH1 0x1 DUP2 PUSH1 0x1 AND ISZERO PUSH2 0x100 MUL SUB AND PUSH1 0x2 SWAP1 DIV DUP1 PUSH1 0x1F ADD PUSH1 0x20 DUP1 SWAP2 DIV MUL PUSH1 0x20 ADD PUSH1 0x40 MLOAD SWAP1 DUP2 ADD PUSH1 0x40 MSTORE DUP1 SWAP3 SWAP2 SWAP1 DUP2 DUP2 MSTORE PUSH1 0x20 ADD DUP3 DUP1 SLOAD PUSH1 0x1 DUP2 PUSH1 0x1 AND ISZERO PUSH2 0x100 MUL SUB AND PUSH1 0x2 SWAP1 DIV DUP1 ISZERO PUSH2 0x9C2 JUMPI DUP1 PUSH1 0x1F LT PUSH2 0x997 JUMPI PUSH2 0x100 DUP1 DUP4 SLOAD DIV MUL DUP4 MSTORE SWAP2 PUSH1 0x20 ADD SWAP2 PUSH2 0x9C2 JUMP JUMPDEST DUP3 ADD SWAP2 SWAP1 PUSH1 0x0 MSTORE PUSH1 0x20 PUSH1 0x0 KECCAK256 SWAP1 JUMPDEST DUP2 SLOAD DUP2 MSTORE SWAP1 PUSH1 0x1 ADD SWAP1 PUSH1 0x20 ADD DUP1 DUP4 GT PUSH2 0x9A5 JUMPI DUP3 SWAP1 SUB PUSH1 0x1F AND DUP3 ADD SWAP2 JUMPDEST POP POP POP POP POP SWAP6 POP DUP5 DUP1 SLOAD PUSH1 0x1 DUP2 PUSH1 0x1 AND ISZERO PUSH2 0x100 MUL SUB AND PUSH1 0x2 SWAP1 DIV DUP1 PUSH1 0x1F ADD PUSH1 0x20 DUP1 SWAP2 DIV MUL PUSH1 0x20 ADD PUSH1 0x40 MLOAD SWAP1 DUP2 ADD PUSH1 0x40 MSTORE DUP1 SWAP3 SWAP2 SWAP1 DUP2 DUP2 MSTORE PUSH1 0x20 ADD DUP3 DUP1 SLOAD PUSH1 0x1 DUP2 PUSH1 0x1 AND ISZERO PUSH2 0x100 MUL SUB AND PUSH1 0x2 SWAP1 DIV DUP1 ISZERO PUSH2 0xA5E JUMPI DUP1 PUSH1 0x1F LT PUSH2 0xA33 JUMPI PUSH2 0x100 DUP1 DUP4 SLOAD DIV MUL DUP4 MSTORE SWAP2 PUSH1 0x20 ADD SWAP2 PUSH2 0xA5E JUMP JUMPDEST DUP3 ADD SWAP2 SWAP1 PUSH1 0x0 MSTORE PUSH1 0x20 PUSH1 0x0 KECCAK256 SWAP1 JUMPDEST DUP2 SLOAD DUP2 MSTORE SWAP1 PUSH1 0x1 ADD SWAP1 PUSH1 0x20 ADD DUP1 DUP4 GT PUSH2 0xA41 JUMPI DUP3 SWAP1 SUB PUSH1 0x1F AND DUP3 ADD SWAP2 JUMPDEST POP POP POP POP POP SWAP5 POP DUP4 DUP1 SLOAD PUSH1 0x1 DUP2 PUSH1 0x1 AND ISZERO PUSH2 0x100 MUL SUB AND PUSH1 0x2 SWAP1 DIV DUP1 PUSH1 0x1F ADD PUSH1 0x20 DUP1 SWAP2 DIV MUL PUSH1 0x20 ADD PUSH1 0x40 MLOAD SWAP1 DUP2 ADD PUSH1 0x40 MSTORE DUP1 SWAP3 SWAP2 SWAP1 DUP2 DUP2 MSTORE PUSH1 0x20 ADD DUP3 DUP1 SLOAD PUSH1 0x1 DUP2 PUSH1 0x1 AND ISZERO PUSH2 0x100 MUL SUB AND PUSH1 0x2 SWAP1 DIV DUP1 ISZERO PUSH2 0xAFA JUMPI DUP1 PUSH1 0x1F LT PUSH2 0xACF JUMPI PUSH2 0x100 DUP1 DUP4 SLOAD DIV MUL DUP4 MSTORE SWAP2 PUSH1 0x20 ADD SWAP2 PUSH2 0xAFA JUMP JUMPDEST DUP3 ADD SWAP2 SWAP1 PUSH1 0x0 MSTORE PUSH1 0x20 PUSH1 0x0 KECCAK256 SWAP1 JUMPDEST DUP2 SLOAD DUP2 MSTORE SWAP1 PUSH1 0x1 ADD SWAP1 PUSH1 0x20 ADD DUP1 DUP4 GT PUSH2 0xADD JUMPI DUP3 SWAP1 SUB PUSH1 0x1F AND DUP3 ADD SWAP2 JUMPDEST POP POP POP POP POP SWAP4 POP DUP3 DUP1 SLOAD PUSH1 0x1 DUP2 PUSH1 0x1 AND ISZERO PUSH2 0x100 MUL SUB AND PUSH1 0x2 SWAP1 DIV DUP1 PUSH1 0x1F ADD PUSH1 0x20 DUP1 SWAP2 DIV MUL PUSH1 0x20 ADD PUSH1 0x40 MLOAD SWAP1 DUP2 ADD PUSH1 0x40 MSTORE DUP1 SWAP3 SWAP2 SWAP1 DUP2 DUP2 MSTORE PUSH1 0x20 ADD DUP3 DUP1 SLOAD PUSH1 0x1 DUP2 PUSH1 0x1 AND ISZERO PUSH2 0x100 MUL SUB AND PUSH1 0x2 SWAP1 DIV DUP1 ISZERO PUSH2 0xB96 JUMPI DUP1 PUSH1 0x1F LT PUSH2 0xB6B JUMPI PUSH2 0x100 DUP1 DUP4 SLOAD DIV MUL DUP4 MSTORE SWAP2 PUSH1 0x20 ADD SWAP2 PUSH2 0xB96 JUMP JUMPDEST DUP3 ADD SWAP2 SWAP1 PUSH1 0x0 MSTORE PUSH1 0x20 PUSH1 0x0 KECCAK256 SWAP1 JUMPDEST DUP2 SLOAD DUP2 MSTORE SWAP1 PUSH1 0x1 ADD SWAP1 PUSH1 0x20 ADD DUP1 DUP4 GT PUSH2 0xB79 JUMPI DUP3 SWAP1 SUB PUSH1 0x1F AND DUP3 ADD SWAP2 JUMPDEST POP POP POP POP POP SWAP3 POP DUP2 DUP1 SLOAD PUSH1 0x1 DUP2 PUSH1 0x1 AND ISZERO PUSH2 0x100 MUL SUB AND PUSH1 0x2 SWAP1 DIV DUP1 PUSH1 0x1F ADD PUSH1 0x20 DUP1 SWAP2 DIV MUL PUSH1 0x20 ADD PUSH1 0x40 MLOAD SWAP1 DUP2 ADD PUSH1 0x40 MSTORE DUP1 SWAP3 SWAP2 SWAP1 DUP2 DUP2 MSTORE PUSH1 0x20 ADD DUP3 DUP1 SLOAD PUSH1 0x1 DUP2 PUSH1 0x1 AND ISZERO PUSH2 0x100 MUL SUB AND PUSH1 0x2 SWAP1 DIV DUP1 ISZERO PUSH2 0xC32 JUMPI DUP1 PUSH1 0x1F LT PUSH2 0xC07 JUMPI PUSH2 0x100 DUP1 DUP4 SLOAD DIV MUL DUP4 MSTORE SWAP2 PUSH1 0x20 ADD SWAP2 PUSH2 0xC32 JUMP JUMPDEST DUP3 ADD SWAP2 SWAP1 PUSH1 0x0 MSTORE PUSH1 0x20 PUSH1 0x0 KECCAK256 SWAP1 JUMPDEST DUP2 SLOAD DUP2 MSTORE SWAP1 PUSH1 0x1 ADD SWAP1 PUSH1 0x20 ADD DUP1 DUP4 GT PUSH2 0xC15 JUMPI DUP3 SWAP1 SUB PUSH1 0x1F AND DUP3 ADD SWAP2 JUMPDEST POP POP POP POP POP SWAP2 POP SWAP8 POP SWAP8 POP SWAP8 POP SWAP8 POP SWAP8 POP SWAP8 POP SWAP8 POP POP SWAP2 SWAP4 SWAP6 SWAP8 SWAP1 SWAP3 SWAP5 SWAP7 POP JUMP JUMPDEST PUSH1 0xB SLOAD DUP2 JUMP JUMPDEST PUSH1 0x2 DUP2 DUP2 SLOAD DUP2 LT ISZERO ISZERO PUSH2 0xC68 JUMPI INVALID JUMPDEST SWAP1 PUSH1 0x0 MSTORE PUSH1 0x20 PUSH1 0x0 KECCAK256 ADD PUSH1 0x0 SWAP2 POP SLOAD SWAP1 PUSH2 0x100 EXP SWAP1 DIV PUSH20 0xFFFFFFFFFFFFFFFFFFFFFFFFFFFFFFFFFFFFFFFF AND DUP2 JUMP JUMPDEST PUSH1 0x0 PUSH1 0x10 PUSH1 0x0 SWAP1 SLOAD SWAP1 PUSH2 0x100 EXP SWAP1 DIV PUSH20 0xFFFFFFFFFFFFFFFFFFFFFFFFFFFFFFFFFFFFFFFF AND PUSH20 0xFFFFFFFFFFFFFFFFFFFFFFFFFFFFFFFFFFFFFFFF AND CALLER PUSH20 0xFFFFFFFFFFFFFFFFFFFFFFFFFFFFFFFFFFFFFFFF AND EQ ISZERO ISZERO PUSH2 0xCF5 JUMPI PUSH1 0x0 DUP1 REVERT JUMPDEST PUSH1 0x9 PUSH1 0x0 DUP11 PUSH20 0xFFFFFFFFFFFFFFFFFFFFFFFFFFFFFFFFFFFFFFFF AND PUSH20 0xFFFFFFFFFFFFFFFFFFFFFFFFFFFFFFFFFFFFFFFF AND DUP2 MSTORE PUSH1 0x20 ADD SWAP1 DUP2 MSTORE PUSH1 0x20 ADD PUSH1 0x0 KECCAK256 PUSH1 0x0 SWAP1 SLOAD SWAP1 PUSH2 0x100 EXP SWAP1 DIV PUSH1 0xFF AND ISZERO ISZERO PUSH2 0xD4D JUMPI PUSH1 0x0 DUP1 REVERT JUMPDEST PUSH1 0x5 PUSH1 0x0 DUP11 PUSH20 0xFFFFFFFFFFFFFFFFFFFFFFFFFFFFFFFFFFFFFFFF AND PUSH20 0xFFFFFFFFFFFFFFFFFFFFFFFFFFFFFFFFFFFFFFFF AND DUP2 MSTORE PUSH1 0x20 ADD SWAP1 DUP2 MSTORE PUSH1 0x20 ADD PUSH1 0x0 KECCAK256 SWAP1 POP DUP8 DUP2 PUSH1 0x0 ADD SWAP1 DUP1 MLOAD SWAP1 PUSH1 0x20 ADD SWAP1 PUSH2 0xDA6 SWAP3 SWAP2 SWAP1 PUSH2 0x2679 JUMP JUMPDEST POP DUP7 DUP2 PUSH1 0x1 ADD SWAP1 DUP1 MLOAD SWAP1 PUSH1 0x20 ADD SWAP1 PUSH2 0xDBF SWAP3 SWAP2 SWAP1 PUSH2 0x2679 JUMP JUMPDEST POP DUP6 DUP2 PUSH1 0x2 ADD SWAP1 DUP1 MLOAD SWAP1 PUSH1 0x20 ADD SWAP1 PUSH2 0xDD8 SWAP3 SWAP2 SWAP1 PUSH2 0x2679 JUMP JUMPDEST POP DUP5 DUP2 PUSH1 0x3 ADD SWAP1 DUP1 MLOAD SWAP1 PUSH1 0x20 ADD SWAP1 PUSH2 0xDF1 SWAP3 SWAP2 SWAP1 PUSH2 0x2679 JUMP JUMPDEST POP DUP4 DUP2 PUSH1 0x4 ADD SWAP1 DUP1 MLOAD SWAP1 PUSH1 0x20 ADD SWAP1 PUSH2 0xE0A SWAP3 SWAP2 SWAP1 PUSH2 0x2679 JUMP JUMPDEST POP DUP3 DUP2 PUSH1 0x7 ADD SWAP1 DUP1 MLOAD SWAP1 PUSH1 0x20 ADD SWAP1 PUSH2 0xE23 SWAP3 SWAP2 SWAP1 PUSH2 0x2679 JUMP JUMPDEST POP DUP2 DUP2 PUSH1 0x8 ADD SWAP1 DUP1 MLOAD SWAP1 PUSH1 0x20 ADD SWAP1 PUSH2 0xE3C SWAP3 SWAP2 SWAP1 PUSH2 0x2679 JUMP JUMPDEST POP DUP9 DUP2 PUSH1 0x9 ADD PUSH1 0x0 PUSH2 0x100 EXP DUP2 SLOAD DUP2 PUSH20 0xFFFFFFFFFFFFFFFFFFFFFFFFFFFFFFFFFFFFFFFF MUL NOT AND SWAP1 DUP4 PUSH20 0xFFFFFFFFFFFFFFFFFFFFFFFFFFFFFFFFFFFFFFFF AND MUL OR SWAP1 SSTORE POP POP POP POP POP POP POP POP POP POP JUMP JUMPDEST PUSH1 0x0 PUSH1 0x10 PUSH1 0x0 SWAP1 SLOAD SWAP1 PUSH2 0x100 EXP SWAP1 DIV PUSH20 0xFFFFFFFFFFFFFFFFFFFFFFFFFFFFFFFFFFFFFFFF AND PUSH20 0xFFFFFFFFFFFFFFFFFFFFFFFFFFFFFFFFFFFFFFFF AND CALLER PUSH20 0xFFFFFFFFFFFFFFFFFFFFFFFFFFFFFFFFFFFFFFFF AND EQ ISZERO ISZERO PUSH2 0xEE9 JUMPI PUSH1 0x0 DUP1 REVERT JUMPDEST PUSH1 0x9 PUSH1 0x0 DUP11 PUSH20 0xFFFFFFFFFFFFFFFFFFFFFFFFFFFFFFFFFFFFFFFF AND PUSH20 0xFFFFFFFFFFFFFFFFFFFFFFFFFFFFFFFFFFFFFFFF AND DUP2 MSTORE PUSH1 0x20 ADD SWAP1 DUP2 MSTORE PUSH1 0x20 ADD PUSH1 0x0 KECCAK256 PUSH1 0x0 SWAP1 SLOAD SWAP1 PUSH2 0x100 EXP SWAP1 DIV PUSH1 0xFF AND ISZERO ISZERO ISZERO PUSH2 0xF42 JUMPI PUSH1 0x0 DUP1 REVERT JUMPDEST PUSH1 0x5 PUSH1 0x0 DUP11 PUSH20 0xFFFFFFFFFFFFFFFFFFFFFFFFFFFFFFFFFFFFFFFF AND PUSH20 0xFFFFFFFFFFFFFFFFFFFFFFFFFFFFFFFFFFFFFFFF AND DUP2 MSTORE PUSH1 0x20 ADD SWAP1 DUP2 MSTORE PUSH1 0x20 ADD PUSH1 0x0 KECCAK256 SWAP1 POP DUP8 DUP2 PUSH1 0x0 ADD SWAP1 DUP1 MLOAD SWAP1 PUSH1 0x20 ADD SWAP1 PUSH2 0xF9B SWAP3 SWAP2 SWAP1 PUSH2 0x2679 JUMP JUMPDEST POP DUP7 DUP2 PUSH1 0x1 ADD SWAP1 DUP1 MLOAD SWAP1 PUSH1 0x20 ADD SWAP1 PUSH2 0xFB4 SWAP3 SWAP2 SWAP1 PUSH2 0x2679 JUMP JUMPDEST POP DUP6 DUP2 PUSH1 0x2 ADD SWAP1 DUP1 MLOAD SWAP1 PUSH1 0x20 ADD SWAP1 PUSH2 0xFCD SWAP3 SWAP2 SWAP1 PUSH2 0x2679 JUMP JUMPDEST POP DUP5 DUP2 PUSH1 0x3 ADD SWAP1 DUP1 MLOAD SWAP1 PUSH1 0x20 ADD SWAP1 PUSH2 0xFE6 SWAP3 SWAP2 SWAP1 PUSH2 0x2679 JUMP JUMPDEST POP DUP4 DUP2 PUSH1 0x4 ADD SWAP1 DUP1 MLOAD SWAP1 PUSH1 0x20 ADD SWAP1 PUSH2 0xFFF SWAP3 SWAP2 SWAP1 PUSH2 0x2679 JUMP JUMPDEST POP DUP3 DUP2 PUSH1 0x7 ADD SWAP1 DUP1 MLOAD SWAP1 PUSH1 0x20 ADD SWAP1 PUSH2 0x1018 SWAP3 SWAP2 SWAP1 PUSH2 0x2679 JUMP JUMPDEST POP DUP2 DUP2 PUSH1 0x8 ADD SWAP1 DUP1 MLOAD SWAP1 PUSH1 0x20 ADD SWAP1 PUSH2 0x1031 SWAP3 SWAP2 SWAP1 PUSH2 0x2679 JUMP JUMPDEST POP DUP9 DUP2 PUSH1 0x9 ADD PUSH1 0x0 PUSH2 0x100 EXP DUP2 SLOAD DUP2 PUSH20 0xFFFFFFFFFFFFFFFFFFFFFFFFFFFFFFFFFFFFFFFF MUL NOT AND SWAP1 DUP4 PUSH20 0xFFFFFFFFFFFFFFFFFFFFFFFFFFFFFFFFFFFFFFFF AND MUL OR SWAP1 SSTORE POP TIMESTAMP DUP2 PUSH1 0xA ADD DUP2 SWAP1 SSTORE POP PUSH1 0x2 DUP10 SWAP1 DUP1 PUSH1 0x1 DUP2 SLOAD ADD DUP1 DUP3 SSTORE DUP1 SWAP2 POP POP SWAP1 PUSH1 0x1 DUP3 SUB SWAP1 PUSH1 0x0 MSTORE PUSH1 0x20 PUSH1 0x0 KECCAK256 ADD PUSH1 0x0 SWAP1 SWAP2 SWAP3 SWAP1 SWAP2 SWAP1 SWAP2 PUSH2 0x100 EXP DUP2 SLOAD DUP2 PUSH20 0xFFFFFFFFFFFFFFFFFFFFFFFFFFFFFFFFFFFFFFFF MUL NOT AND SWAP1 DUP4 PUSH20 0xFFFFFFFFFFFFFFFFFFFFFFFFFFFFFFFFFFFFFFFF AND MUL OR SWAP1 SSTORE POP POP PUSH1 0x1 PUSH1 0x9 PUSH1 0x0 DUP12 PUSH20 0xFFFFFFFFFFFFFFFFFFFFFFFFFFFFFFFFFFFFFFFF AND PUSH20 0xFFFFFFFFFFFFFFFFFFFFFFFFFFFFFFFFFFFFFFFF AND DUP2 MSTORE PUSH1 0x20 ADD SWAP1 DUP2 MSTORE PUSH1 0x20 ADD PUSH1 0x0 KECCAK256 PUSH1 0x0 PUSH2 0x100 EXP DUP2 SLOAD DUP2 PUSH1 0xFF MUL NOT AND SWAP1 DUP4 ISZERO ISZERO MUL OR SWAP1 SSTORE POP PUSH1 0x1 PUSH1 0x7 PUSH1 0x0 DUP12 PUSH20 0xFFFFFFFFFFFFFFFFFFFFFFFFFFFFFFFFFFFFFFFF AND PUSH20 0xFFFFFFFFFFFFFFFFFFFFFFFFFFFFFFFFFFFFFFFF AND DUP2 MSTORE PUSH1 0x20 ADD SWAP1 DUP2 MSTORE PUSH1 0x20 ADD PUSH1 0x0 KECCAK256 PUSH1 0x0 DUP12 PUSH20 0xFFFFFFFFFFFFFFFFFFFFFFFFFFFFFFFFFFFFFFFF AND PUSH20 0xFFFFFFFFFFFFFFFFFFFFFFFFFFFFFFFFFFFFFFFF AND DUP2 MSTORE PUSH1 0x20 ADD SWAP1 DUP2 MSTORE PUSH1 0x20 ADD PUSH1 0x0 KECCAK256 PUSH1 0x0 PUSH2 0x100 EXP DUP2 SLOAD DUP2 PUSH1 0xFF MUL NOT AND SWAP1 DUP4 ISZERO ISZERO MUL OR SWAP1 SSTORE POP PUSH1 0x1 PUSH1 0x7 PUSH1 0x0 DUP12 PUSH20 0xFFFFFFFFFFFFFFFFFFFFFFFFFFFFFFFFFFFFFFFF AND PUSH20 0xFFFFFFFFFFFFFFFFFFFFFFFFFFFFFFFFFFFFFFFF AND DUP2 MSTORE PUSH1 0x20 ADD SWAP1 DUP2 MSTORE PUSH1 0x20 ADD PUSH1 0x0 KECCAK256 PUSH1 0x0 PUSH1 0x10 PUSH1 0x0 SWAP1 SLOAD SWAP1 PUSH2 0x100 EXP SWAP1 DIV PUSH20 0xFFFFFFFFFFFFFFFFFFFFFFFFFFFFFFFFFFFFFFFF AND PUSH20 0xFFFFFFFFFFFFFFFFFFFFFFFFFFFFFFFFFFFFFFFF AND PUSH20 0xFFFFFFFFFFFFFFFFFFFFFFFFFFFFFFFFFFFFFFFF AND DUP2 MSTORE PUSH1 0x20 ADD SWAP1 DUP2 MSTORE PUSH1 0x20 ADD PUSH1 0x0 KECCAK256 PUSH1 0x0 PUSH2 0x100 EXP DUP2 SLOAD DUP2 PUSH1 0xFF MUL NOT AND SWAP1 DUP4 ISZERO ISZERO MUL OR SWAP1 SSTORE POP PUSH1 0xC PUSH1 0x0 DUP2 SLOAD DUP1 SWAP3 SWAP2 SWAP1 PUSH1 0x1 ADD SWAP2 SWAP1 POP SSTORE POP POP POP POP POP POP POP POP POP POP JUMP JUMPDEST PUSH1 0x0 PUSH1 0x1 PUSH1 0x7 PUSH1 0x0 CALLER PUSH20 0xFFFFFFFFFFFFFFFFFFFFFFFFFFFFFFFFFFFFFFFF AND PUSH20 0xFFFFFFFFFFFFFFFFFFFFFFFFFFFFFFFFFFFFFFFF AND DUP2 MSTORE PUSH1 0x20 ADD SWAP1 DUP2 MSTORE PUSH1 0x20 ADD PUSH1 0x0 KECCAK256 PUSH1 0x0 DUP5 PUSH20 0xFFFFFFFFFFFFFFFFFFFFFFFFFFFFFFFFFFFFFFFF AND PUSH20 0xFFFFFFFFFFFFFFFFFFFFFFFFFFFFFFFFFFFFFFFF AND DUP2 MSTORE PUSH1 0x20 ADD SWAP1 DUP2 MSTORE PUSH1 0x20 ADD PUSH1 0x0 KECCAK256 PUSH1 0x0 PUSH2 0x100 EXP DUP2 SLOAD DUP2 PUSH1 0xFF MUL NOT AND SWAP1 DUP4 ISZERO ISZERO MUL OR SWAP1 SSTORE POP PUSH1 0xE PUSH1 0x0 DUP2 SLOAD DUP1 SWAP3 SWAP2 SWAP1 PUSH1 0x1 ADD SWAP2 SWAP1 POP SSTORE POP PUSH1 0x1 SWAP1 POP SWAP2 SWAP1 POP JUMP JUMPDEST PUSH1 0x0 DUP1 PUSH1 0x7 PUSH1 0x0 CALLER PUSH20 0xFFFFFFFFFFFFFFFFFFFFFFFFFFFFFFFFFFFFFFFF AND PUSH20 0xFFFFFFFFFFFFFFFFFFFFFFFFFFFFFFFFFFFFFFFF AND DUP2 MSTORE PUSH1 0x20 ADD SWAP1 DUP2 MSTORE PUSH1 0x20 ADD PUSH1 0x0 KECCAK256 PUSH1 0x0 DUP5 PUSH20 0xFFFFFFFFFFFFFFFFFFFFFFFFFFFFFFFFFFFFFFFF AND PUSH20 0xFFFFFFFFFFFFFFFFFFFFFFFFFFFFFFFFFFFFFFFF AND DUP2 MSTORE PUSH1 0x20 ADD SWAP1 DUP2 MSTORE PUSH1 0x20 ADD PUSH1 0x0 KECCAK256 PUSH1 0x0 PUSH2 0x100 EXP DUP2 SLOAD DUP2 PUSH1 0xFF MUL NOT AND SWAP1 DUP4 ISZERO ISZERO MUL OR SWAP1 SSTORE POP PUSH1 0x1 SWAP1 POP SWAP2 SWAP1 POP JUMP JUMPDEST PUSH1 0x0 PUSH1 0x10 PUSH1 0x0 SWAP1 SLOAD SWAP1 PUSH2 0x100 EXP SWAP1 DIV PUSH20 0xFFFFFFFFFFFFFFFFFFFFFFFFFFFFFFFFFFFFFFFF AND PUSH20 0xFFFFFFFFFFFFFFFFFFFFFFFFFFFFFFFFFFFFFFFF AND CALLER PUSH20 0xFFFFFFFFFFFFFFFFFFFFFFFFFFFFFFFFFFFFFFFF AND EQ ISZERO ISZERO PUSH2 0x1454 JUMPI PUSH1 0x0 DUP1 REVERT JUMPDEST PUSH1 0x8 PUSH1 0x0 DUP13 PUSH20 0xFFFFFFFFFFFFFFFFFFFFFFFFFFFFFFFFFFFFFFFF AND PUSH20 0xFFFFFFFFFFFFFFFFFFFFFFFFFFFFFFFFFFFFFFFF AND DUP2 MSTORE PUSH1 0x20 ADD SWAP1 DUP2 MSTORE PUSH1 0x20 ADD PUSH1 0x0 KECCAK256 PUSH1 0x0 SWAP1 SLOAD SWAP1 PUSH2 0x100 EXP SWAP1 DIV PUSH1 0xFF AND ISZERO ISZERO ISZERO PUSH2 0x14AD JUMPI PUSH1 0x0 DUP1 REVERT JUMPDEST PUSH1 0x4 PUSH1 0x0 DUP13 PUSH20 0xFFFFFFFFFFFFFFFFFFFFFFFFFFFFFFFFFFFFFFFF AND PUSH20 0xFFFFFFFFFFFFFFFFFFFFFFFFFFFFFFFFFFFFFFFF AND DUP2 MSTORE PUSH1 0x20 ADD SWAP1 DUP2 MSTORE PUSH1 0x20 ADD PUSH1 0x0 KECCAK256 SWAP1 POP DUP10 DUP2 PUSH1 0x0 ADD SWAP1 DUP1 MLOAD SWAP1 PUSH1 0x20 ADD SWAP1 PUSH2 0x1506 SWAP3 SWAP2 SWAP1 PUSH2 0x2679 JUMP JUMPDEST POP DUP9 DUP2 PUSH1 0x1 ADD SWAP1 DUP1 MLOAD SWAP1 PUSH1 0x20 ADD SWAP1 PUSH2 0x151F SWAP3 SWAP2 SWAP1 PUSH2 0x2679 JUMP JUMPDEST POP DUP8 DUP2 PUSH1 0x2 ADD SWAP1 DUP1 MLOAD SWAP1 PUSH1 0x20 ADD SWAP1 PUSH2 0x1538 SWAP3 SWAP2 SWAP1 PUSH2 0x2679 JUMP JUMPDEST POP DUP7 DUP2 PUSH1 0x3 ADD SWAP1 DUP1 MLOAD SWAP1 PUSH1 0x20 ADD SWAP1 PUSH2 0x1551 SWAP3 SWAP2 SWAP1 PUSH2 0x2679 JUMP JUMPDEST POP DUP6 DUP2 PUSH1 0x4 ADD SWAP1 DUP1 MLOAD SWAP1 PUSH1 0x20 ADD SWAP1 PUSH2 0x156A SWAP3 SWAP2 SWAP1 PUSH2 0x2679 JUMP JUMPDEST POP DUP5 DUP2 PUSH1 0x5 ADD SWAP1 DUP1 MLOAD SWAP1 PUSH1 0x20 ADD SWAP1 PUSH2 0x1583 SWAP3 SWAP2 SWAP1 PUSH2 0x2679 JUMP JUMPDEST POP DUP4 DUP2 PUSH1 0x6 ADD SWAP1 DUP1 MLOAD SWAP1 PUSH1 0x20 ADD SWAP1 PUSH2 0x159C SWAP3 SWAP2 SWAP1 PUSH2 0x2679 JUMP JUMPDEST POP DUP3 DUP2 PUSH1 0x7 ADD SWAP1 DUP1 MLOAD SWAP1 PUSH1 0x20 ADD SWAP1 PUSH2 0x15B5 SWAP3 SWAP2 SWAP1 PUSH2 0x2679 JUMP JUMPDEST POP DUP2 DUP2 PUSH1 0x8 ADD SWAP1 DUP1 MLOAD SWAP1 PUSH1 0x20 ADD SWAP1 PUSH2 0x15CE SWAP3 SWAP2 SWAP1 PUSH2 0x2679 JUMP JUMPDEST POP DUP11 DUP2 PUSH1 0x9 ADD PUSH1 0x0 PUSH2 0x100 EXP DUP2 SLOAD DUP2 PUSH20 0xFFFFFFFFFFFFFFFFFFFFFFFFFFFFFFFFFFFFFFFF MUL NOT AND SWAP1 DUP4 PUSH20 0xFFFFFFFFFFFFFFFFFFFFFFFFFFFFFFFFFFFFFFFF AND MUL OR SWAP1 SSTORE POP TIMESTAMP DUP2 PUSH1 0xA ADD DUP2 SWAP1 SSTORE POP PUSH1 0x1 DUP12 SWAP1 DUP1 PUSH1 0x1 DUP2 SLOAD ADD DUP1 DUP3 SSTORE DUP1 SWAP2 POP POP SWAP1 PUSH1 0x1 DUP3 SUB SWAP1 PUSH1 0x0 MSTORE PUSH1 0x20 PUSH1 0x0 KECCAK256 ADD PUSH1 0x0 SWAP1 SWAP2 SWAP3 SWAP1 SWAP2 SWAP1 SWAP2 PUSH2 0x100 EXP DUP2 SLOAD DUP2 PUSH20 0xFFFFFFFFFFFFFFFFFFFFFFFFFFFFFFFFFFFFFFFF MUL NOT AND SWAP1 DUP4 PUSH20 0xFFFFFFFFFFFFFFFFFFFFFFFFFFFFFFFFFFFFFFFF AND MUL OR SWAP1 SSTORE POP POP PUSH1 0x1 PUSH1 0x8 PUSH1 0x0 DUP14 PUSH20 0xFFFFFFFFFFFFFFFFFFFFFFFFFFFFFFFFFFFFFFFF AND PUSH20 0xFFFFFFFFFFFFFFFFFFFFFFFFFFFFFFFFFFFFFFFF AND DUP2 MSTORE PUSH1 0x20 ADD SWAP1 DUP2 MSTORE PUSH1 0x20 ADD PUSH1 0x0 KECCAK256 PUSH1 0x0 PUSH2 0x100 EXP DUP2 SLOAD DUP2 PUSH1 0xFF MUL NOT AND SWAP1 DUP4 ISZERO ISZERO MUL OR SWAP1 SSTORE POP PUSH1 0x1 PUSH1 0x7 PUSH1 0x0 DUP14 PUSH20 0xFFFFFFFFFFFFFFFFFFFFFFFFFFFFFFFFFFFFFFFF AND PUSH20 0xFFFFFFFFFFFFFFFFFFFFFFFFFFFFFFFFFFFFFFFF AND DUP2 MSTORE PUSH1 0x20 ADD SWAP1 DUP2 MSTORE PUSH1 0x20 ADD PUSH1 0x0 KECCAK256 PUSH1 0x0 DUP14 PUSH20 0xFFFFFFFFFFFFFFFFFFFFFFFFFFFFFFFFFFFFFFFF AND PUSH20 0xFFFFFFFFFFFFFFFFFFFFFFFFFFFFFFFFFFFFFFFF AND DUP2 MSTORE PUSH1 0x20 ADD SWAP1 DUP2 MSTORE PUSH1 0x20 ADD PUSH1 0x0 KECCAK256 PUSH1 0x0 PUSH2 0x100 EXP DUP2 SLOAD DUP2 PUSH1 0xFF MUL NOT AND SWAP1 DUP4 ISZERO ISZERO MUL OR SWAP1 SSTORE POP PUSH1 0x1 PUSH1 0x7 PUSH1 0x0 DUP14 PUSH20 0xFFFFFFFFFFFFFFFFFFFFFFFFFFFFFFFFFFFFFFFF AND PUSH20 0xFFFFFFFFFFFFFFFFFFFFFFFFFFFFFFFFFFFFFFFF AND DUP2 MSTORE PUSH1 0x20 ADD SWAP1 DUP2 MSTORE PUSH1 0x20 ADD PUSH1 0x0 KECCAK256 PUSH1 0x0 PUSH1 0x10 PUSH1 0x0 SWAP1 SLOAD SWAP1 PUSH2 0x100 EXP SWAP1 DIV PUSH20 0xFFFFFFFFFFFFFFFFFFFFFFFFFFFFFFFFFFFFFFFF AND PUSH20 0xFFFFFFFFFFFFFFFFFFFFFFFFFFFFFFFFFFFFFFFF AND PUSH20 0xFFFFFFFFFFFFFFFFFFFFFFFFFFFFFFFFFFFFFFFF AND DUP2 MSTORE PUSH1 0x20 ADD SWAP1 DUP2 MSTORE PUSH1 0x20 ADD PUSH1 0x0 KECCAK256 PUSH1 0x0 PUSH2 0x100 EXP DUP2 SLOAD DUP2 PUSH1 0xFF MUL NOT AND SWAP1 DUP4 ISZERO ISZERO MUL OR SWAP1 SSTORE POP PUSH1 0xB PUSH1 0x0 DUP2 SLOAD DUP1 SWAP3 SWAP2 SWAP1 PUSH1 0x1 ADD SWAP2 SWAP1 POP SSTORE POP POP POP POP POP POP POP POP POP POP POP POP JUMP JUMPDEST PUSH1 0x0 PUSH1 0x10 PUSH1 0x0 SWAP1 SLOAD SWAP1 PUSH2 0x100 EXP SWAP1 DIV PUSH20 0xFFFFFFFFFFFFFFFFFFFFFFFFFFFFFFFFFFFFFFFF AND PUSH20 0xFFFFFFFFFFFFFFFFFFFFFFFFFFFFFFFFFFFFFFFF AND CALLER PUSH20 0xFFFFFFFFFFFFFFFFFFFFFFFFFFFFFFFFFFFFFFFF AND EQ ISZERO ISZERO PUSH2 0x18A2 JUMPI PUSH1 0x0 DUP1 REVERT JUMPDEST PUSH1 0x8 PUSH1 0x0 DUP13 PUSH20 0xFFFFFFFFFFFFFFFFFFFFFFFFFFFFFFFFFFFFFFFF AND PUSH20 0xFFFFFFFFFFFFFFFFFFFFFFFFFFFFFFFFFFFFFFFF AND DUP2 MSTORE PUSH1 0x20 ADD SWAP1 DUP2 MSTORE PUSH1 0x20 ADD PUSH1 0x0 KECCAK256 PUSH1 0x0 SWAP1 SLOAD SWAP1 PUSH2 0x100 EXP SWAP1 DIV PUSH1 0xFF AND ISZERO ISZERO PUSH2 0x18FA JUMPI PUSH1 0x0 DUP1 REVERT JUMPDEST PUSH1 0x4 PUSH1 0x0 DUP13 PUSH20 0xFFFFFFFFFFFFFFFFFFFFFFFFFFFFFFFFFFFFFFFF AND PUSH20 0xFFFFFFFFFFFFFFFFFFFFFFFFFFFFFFFFFFFFFFFF AND DUP2 MSTORE PUSH1 0x20 ADD SWAP1 DUP2 MSTORE PUSH1 0x20 ADD PUSH1 0x0 KECCAK256 SWAP1 POP DUP10 DUP2 PUSH1 0x0 ADD SWAP1 DUP1 MLOAD SWAP1 PUSH1 0x20 ADD SWAP1 PUSH2 0x1953 SWAP3 SWAP2 SWAP1 PUSH2 0x2679 JUMP JUMPDEST POP DUP9 DUP2 PUSH1 0x1 ADD SWAP1 DUP1 MLOAD SWAP1 PUSH1 0x20 ADD SWAP1 PUSH2 0x196C SWAP3 SWAP2 SWAP1 PUSH2 0x2679 JUMP JUMPDEST POP DUP8 DUP2 PUSH1 0x2 ADD SWAP1 DUP1 MLOAD SWAP1 PUSH1 0x20 ADD SWAP1 PUSH2 0x1985 SWAP3 SWAP2 SWAP1 PUSH2 0x2679 JUMP JUMPDEST POP DUP7 DUP2 PUSH1 0x3 ADD SWAP1 DUP1 MLOAD SWAP1 PUSH1 0x20 ADD SWAP1 PUSH2 0x199E SWAP3 SWAP2 SWAP1 PUSH2 0x2679 JUMP JUMPDEST POP DUP6 DUP2 PUSH1 0x4 ADD SWAP1 DUP1 MLOAD SWAP1 PUSH1 0x20 ADD SWAP1 PUSH2 0x19B7 SWAP3 SWAP2 SWAP1 PUSH2 0x2679 JUMP JUMPDEST POP DUP5 DUP2 PUSH1 0x5 ADD SWAP1 DUP1 MLOAD SWAP1 PUSH1 0x20 ADD SWAP1 PUSH2 0x19D0 SWAP3 SWAP2 SWAP1 PUSH2 0x2679 JUMP JUMPDEST POP DUP4 DUP2 PUSH1 0x6 ADD SWAP1 DUP1 MLOAD SWAP1 PUSH1 0x20 ADD SWAP1 PUSH2 0x19E9 SWAP3 SWAP2 SWAP1 PUSH2 0x2679 JUMP JUMPDEST POP DUP3 DUP2 PUSH1 0x7 ADD SWAP1 DUP1 MLOAD SWAP1 PUSH1 0x20 ADD SWAP1 PUSH2 0x1A02 SWAP3 SWAP2 SWAP1 PUSH2 0x2679 JUMP JUMPDEST POP DUP2 DUP2 PUSH1 0x8 ADD SWAP1 DUP1 MLOAD SWAP1 PUSH1 0x20 ADD SWAP1 PUSH2 0x1A1B SWAP3 SWAP2 SWAP1 PUSH2 0x2679 JUMP JUMPDEST POP DUP11 DUP2 PUSH1 0x9 ADD PUSH1 0x0 PUSH2 0x100 EXP DUP2 SLOAD DUP2 PUSH20 0xFFFFFFFFFFFFFFFFFFFFFFFFFFFFFFFFFFFFFFFF MUL NOT AND SWAP1 DUP4 PUSH20 0xFFFFFFFFFFFFFFFFFFFFFFFFFFFFFFFFFFFFFFFF AND MUL OR SWAP1 SSTORE POP POP POP POP POP POP POP POP POP POP POP POP JUMP JUMPDEST PUSH1 0xC SLOAD DUP2 JUMP JUMPDEST PUSH1 0x0 PUSH1 0xC SLOAD SWAP1 POP SWAP1 JUMP JUMPDEST PUSH1 0x0 DUP1 SWAP1 SLOAD SWAP1 PUSH2 0x100 EXP SWAP1 DIV PUSH20 0xFFFFFFFFFFFFFFFFFFFFFFFFFFFFFFFFFFFFFFFF AND DUP2 JUMP JUMPDEST PUSH1 0x0 CALLER PUSH1 0x0 DUP1 PUSH2 0x100 EXP DUP2 SLOAD DUP2 PUSH20 0xFFFFFFFFFFFFFFFFFFFFFFFFFFFFFFFFFFFFFFFF MUL NOT AND SWAP1 DUP4 PUSH20 0xFFFFFFFFFFFFFFFFFFFFFFFFFFFFFFFFFFFFFFFF AND MUL OR SWAP1 SSTORE POP PUSH1 0x0 DUP1 SWAP1 SLOAD SWAP1 PUSH2 0x100 EXP SWAP1 DIV PUSH20 0xFFFFFFFFFFFFFFFFFFFFFFFFFFFFFFFFFFFFFFFF AND SWAP1 POP SWAP1 JUMP JUMPDEST PUSH1 0xF SLOAD DUP2 JUMP JUMPDEST PUSH1 0xD SLOAD DUP2 JUMP JUMPDEST PUSH1 0x1 DUP2 DUP2 SLOAD DUP2 LT ISZERO ISZERO PUSH2 0x1B25 JUMPI INVALID JUMPDEST SWAP1 PUSH1 0x0 MSTORE PUSH1 0x20 PUSH1 0x0 KECCAK256 ADD PUSH1 0x0 SWAP2 POP SLOAD SWAP1 PUSH2 0x100 EXP SWAP1 DIV PUSH20 0xFFFFFFFFFFFFFFFFFFFFFFFFFFFFFFFFFFFFFFFF AND DUP2 JUMP JUMPDEST PUSH1 0x60 PUSH1 0x2 DUP1 SLOAD DUP1 PUSH1 0x20 MUL PUSH1 0x20 ADD PUSH1 0x40 MLOAD SWAP1 DUP2 ADD PUSH1 0x40 MSTORE DUP1 SWAP3 SWAP2 SWAP1 DUP2 DUP2 MSTORE PUSH1 0x20 ADD DUP3 DUP1 SLOAD DUP1 ISZERO PUSH2 0x1BD8 JUMPI PUSH1 0x20 MUL DUP3 ADD SWAP2 SWAP1 PUSH1 0x0 MSTORE PUSH1 0x20 PUSH1 0x0 KECCAK256 SWAP1 JUMPDEST DUP2 PUSH1 0x0 SWAP1 SLOAD SWAP1 PUSH2 0x100 EXP SWAP1 DIV PUSH20 0xFFFFFFFFFFFFFFFFFFFFFFFFFFFFFFFFFFFFFFFF AND PUSH20 0xFFFFFFFFFFFFFFFFFFFFFFFFFFFFFFFFFFFFFFFF AND DUP2 MSTORE PUSH1 0x20 ADD SWAP1 PUSH1 0x1 ADD SWAP1 DUP1 DUP4 GT PUSH2 0x1B8E JUMPI JUMPDEST POP POP POP POP POP SWAP1 POP SWAP1 JUMP JUMPDEST PUSH1 0x0 PUSH1 0xB SLOAD SWAP1 POP SWAP1 JUMP JUMPDEST PUSH1 0x10 PUSH1 0x0 SWAP1 SLOAD SWAP1 PUSH2 0x100 EXP SWAP1 DIV PUSH20 0xFFFFFFFFFFFFFFFFFFFFFFFFFFFFFFFFFFFFFFFF AND DUP2 JUMP JUMPDEST PUSH1 0x0 PUSH1 0x10 PUSH1 0x0 SWAP1 SLOAD SWAP1 PUSH2 0x100 EXP SWAP1 DIV PUSH20 0xFFFFFFFFFFFFFFFFFFFFFFFFFFFFFFFFFFFFFFFF AND PUSH20 0xFFFFFFFFFFFFFFFFFFFFFFFFFFFFFFFFFFFFFFFF AND CALLER PUSH20 0xFFFFFFFFFFFFFFFFFFFFFFFFFFFFFFFFFFFFFFFF AND EQ ISZERO ISZERO PUSH2 0x1C70 JUMPI PUSH1 0x0 DUP1 REVERT JUMPDEST PUSH1 0x0 PUSH1 0x7 PUSH1 0x0 DUP6 PUSH20 0xFFFFFFFFFFFFFFFFFFFFFFFFFFFFFFFFFFFFFFFF AND PUSH20 0xFFFFFFFFFFFFFFFFFFFFFFFFFFFFFFFFFFFFFFFF AND DUP2 MSTORE PUSH1 0x20 ADD SWAP1 DUP2 MSTORE PUSH1 0x20 ADD PUSH1 0x0 KECCAK256 PUSH1 0x0 DUP5 PUSH20 0xFFFFFFFFFFFFFFFFFFFFFFFFFFFFFFFFFFFFFFFF AND PUSH20 0xFFFFFFFFFFFFFFFFFFFFFFFFFFFFFFFFFFFFFFFF AND DUP2 MSTORE PUSH1 0x20 ADD SWAP1 DUP2 MSTORE PUSH1 0x20 ADD PUSH1 0x0 KECCAK256 PUSH1 0x0 PUSH2 0x100 EXP DUP2 SLOAD DUP2 PUSH1 0xFF MUL NOT AND SWAP1 DUP4 ISZERO ISZERO MUL OR SWAP1 SSTORE POP PUSH1 0x1 SWAP1 POP SWAP3 SWAP2 POP POP JUMP JUMPDEST PUSH1 0xE SLOAD DUP2 JUMP JUMPDEST PUSH1 0x60 DUP1 PUSH1 0x60 DUP1 PUSH1 0x60 DUP1 PUSH1 0x60 PUSH1 0x0 PUSH1 0x7 PUSH1 0x0 DUP11 PUSH20 0xFFFFFFFFFFFFFFFFFFFFFFFFFFFFFFFFFFFFFFFF AND PUSH20 0xFFFFFFFFFFFFFFFFFFFFFFFFFFFFFFFFFFFFFFFF AND DUP2 MSTORE PUSH1 0x20 ADD SWAP1 DUP2 MSTORE PUSH1 0x20 ADD PUSH1 0x0 KECCAK256 PUSH1 0x0 CALLER PUSH20 0xFFFFFFFFFFFFFFFFFFFFFFFFFFFFFFFFFFFFFFFF AND PUSH20 0xFFFFFFFFFFFFFFFFFFFFFFFFFFFFFFFFFFFFFFFF AND DUP2 MSTORE PUSH1 0x20 ADD SWAP1 DUP2 MSTORE PUSH1 0x20 ADD PUSH1 0x0 KECCAK256 PUSH1 0x0 SWAP1 SLOAD SWAP1 PUSH2 0x100 EXP SWAP1 DIV PUSH1 0xFF AND ISZERO ISZERO PUSH2 0x1DB7 JUMPI PUSH1 0x0 DUP1 REVERT JUMPDEST PUSH1 0x9 PUSH1 0x0 DUP11 PUSH20 0xFFFFFFFFFFFFFFFFFFFFFFFFFFFFFFFFFFFFFFFF AND PUSH20 0xFFFFFFFFFFFFFFFFFFFFFFFFFFFFFFFFFFFFFFFF AND DUP2 MSTORE PUSH1 0x20 ADD SWAP1 DUP2 MSTORE PUSH1 0x20 ADD PUSH1 0x0 KECCAK256 PUSH1 0x0 SWAP1 SLOAD SWAP1 PUSH2 0x100 EXP SWAP1 DIV PUSH1 0xFF AND ISZERO ISZERO PUSH2 0x1E0F JUMPI PUSH1 0x0 DUP1 REVERT JUMPDEST PUSH1 0x5 PUSH1 0x0 DUP11 PUSH20 0xFFFFFFFFFFFFFFFFFFFFFFFFFFFFFFFFFFFFFFFF AND PUSH20 0xFFFFFFFFFFFFFFFFFFFFFFFFFFFFFFFFFFFFFFFF AND DUP2 MSTORE PUSH1 0x20 ADD SWAP1 DUP2 MSTORE PUSH1 0x20 ADD PUSH1 0x0 KECCAK256 SWAP1 POP DUP1 PUSH1 0x0 ADD DUP2 PUSH1 0x1 ADD DUP3 PUSH1 0x2 ADD DUP4 PUSH1 0x3 ADD DUP5 PUSH1 0x4 ADD DUP6 PUSH1 0x7 ADD DUP7 PUSH1 0x8 ADD DUP7 DUP1 SLOAD PUSH1 0x1 DUP2 PUSH1 0x1 AND ISZERO PUSH2 0x100 MUL SUB AND PUSH1 0x2 SWAP1 DIV DUP1 PUSH1 0x1F ADD PUSH1 0x20 DUP1 SWAP2 DIV MUL PUSH1 0x20 ADD PUSH1 0x40 MLOAD SWAP1 DUP2 ADD PUSH1 0x40 MSTORE DUP1 SWAP3 SWAP2 SWAP1 DUP2 DUP2 MSTORE PUSH1 0x20 ADD DUP3 DUP1 SLOAD PUSH1 0x1 DUP2 PUSH1 0x1 AND ISZERO PUSH2 0x100 MUL SUB AND PUSH1 0x2 SWAP1 DIV DUP1 ISZERO PUSH2 0x1F01 JUMPI DUP1 PUSH1 0x1F LT PUSH2 0x1ED6 JUMPI PUSH2 0x100 DUP1 DUP4 SLOAD DIV MUL DUP4 MSTORE SWAP2 PUSH1 0x20 ADD SWAP2 PUSH2 0x1F01 JUMP JUMPDEST DUP3 ADD SWAP2 SWAP1 PUSH1 0x0 MSTORE PUSH1 0x20 PUSH1 0x0 KECCAK256 SWAP1 JUMPDEST DUP2 SLOAD DUP2 MSTORE SWAP1 PUSH1 0x1 ADD SWAP1 PUSH1 0x20 ADD DUP1 DUP4 GT PUSH2 0x1EE4 JUMPI DUP3 SWAP1 SUB PUSH1 0x1F AND DUP3 ADD SWAP2 JUMPDEST POP POP POP POP POP SWAP7 POP DUP6 DUP1 SLOAD PUSH1 0x1 DUP2 PUSH1 0x1 AND ISZERO PUSH2 0x100 MUL SUB AND PUSH1 0x2 SWAP1 DIV DUP1 PUSH1 0x1F ADD PUSH1 0x20 DUP1 SWAP2 DIV MUL PUSH1 0x20 ADD PUSH1 0x40 MLOAD SWAP1 DUP2 ADD PUSH1 0x40 MSTORE DUP1 SWAP3 SWAP2 SWAP1 DUP2 DUP2 MSTORE PUSH1 0x20 ADD DUP3 DUP1 SLOAD PUSH1 0x1 DUP2 PUSH1 0x1 AND ISZERO PUSH2 0x100 MUL SUB AND PUSH1 0x2 SWAP1 DIV DUP1 ISZERO PUSH2 0x1F9D JUMPI DUP1 PUSH1 0x1F LT PUSH2 0x1F72 JUMPI PUSH2 0x100 DUP1 DUP4 SLOAD DIV MUL DUP4 MSTORE SWAP2 PUSH1 0x20 ADD SWAP2 PUSH2 0x1F9D JUMP JUMPDEST DUP3 ADD SWAP2 SWAP1 PUSH1 0x0 MSTORE PUSH1 0x20 PUSH1 0x0 KECCAK256 SWAP1 JUMPDEST DUP2 SLOAD DUP2 MSTORE SWAP1 PUSH1 0x1 ADD SWAP1 PUSH1 0x20 ADD DUP1 DUP4 GT PUSH2 0x1F80 JUMPI DUP3 SWAP1 SUB PUSH1 0x1F AND DUP3 ADD SWAP2 JUMPDEST POP POP POP POP POP SWAP6 POP DUP5 DUP1 SLOAD PUSH1 0x1 DUP2 PUSH1 0x1 AND ISZERO PUSH2 0x100 MUL SUB AND PUSH1 0x2 SWAP1 DIV DUP1 PUSH1 0x1F ADD PUSH1 0x20 DUP1 SWAP2 DIV MUL PUSH1 0x20 ADD PUSH1 0x40 MLOAD SWAP1 DUP2 ADD PUSH1 0x40 MSTORE DUP1 SWAP3 SWAP2 SWAP1 DUP2 DUP2 MSTORE PUSH1 0x20 ADD DUP3 DUP1 SLOAD PUSH1 0x1 DUP2 PUSH1 0x1 AND ISZERO PUSH2 0x100 MUL SUB AND PUSH1 0x2 SWAP1 DIV DUP1 ISZERO PUSH2 0x2039 JUMPI DUP1 PUSH1 0x1F LT PUSH2 0x200E JUMPI PUSH2 0x100 DUP1 DUP4 SLOAD DIV MUL DUP4 MSTORE SWAP2 PUSH1 0x20 ADD SWAP2 PUSH2 0x2039 JUMP JUMPDEST DUP3 ADD SWAP2 SWAP1 PUSH1 0x0 MSTORE PUSH1 0x20 PUSH1 0x0 KECCAK256 SWAP1 JUMPDEST DUP2 SLOAD DUP2 MSTORE SWAP1 PUSH1 0x1 ADD SWAP1 PUSH1 0x20 ADD DUP1 DUP4 GT PUSH2 0x201C JUMPI DUP3 SWAP1 SUB PUSH1 0x1F AND DUP3 ADD SWAP2 JUMPDEST POP POP POP POP POP SWAP5 POP DUP4 DUP1 SLOAD PUSH1 0x1 DUP2 PUSH1 0x1 AND ISZERO PUSH2 0x100 MUL SUB AND PUSH1 0x2 SWAP1 DIV DUP1 PUSH1 0x1F ADD PUSH1 0x20 DUP1 SWAP2 DIV MUL PUSH1 0x20 ADD PUSH1 0x40 MLOAD SWAP1 DUP2 ADD PUSH1 0x40 MSTORE DUP1 SWAP3 SWAP2 SWAP1 DUP2 DUP2 MSTORE PUSH1 0x20 ADD DUP3 DUP1 SLOAD PUSH1 0x1 DUP2 PUSH1 0x1 AND ISZERO PUSH2 0x100 MUL SUB AND PUSH1 0x2 SWAP1 DIV DUP1 ISZERO PUSH2 0x20D5 JUMPI DUP1 PUSH1 0x1F LT PUSH2 0x20AA JUMPI PUSH2 0x100 DUP1 DUP4 SLOAD DIV MUL DUP4 MSTORE SWAP2 PUSH1 0x20 ADD SWAP2 PUSH2 0x20D5 JUMP JUMPDEST DUP3 ADD SWAP2 SWAP1 PUSH1 0x0 MSTORE PUSH1 0x20 PUSH1 0x0 KECCAK256 SWAP1 JUMPDEST DUP2 SLOAD DUP2 MSTORE SWAP1 PUSH1 0x1 ADD SWAP1 PUSH1 0x20 ADD DUP1 DUP4 GT PUSH2 0x20B8 JUMPI DUP3 SWAP1 SUB PUSH1 0x1F AND DUP3 ADD SWAP2 JUMPDEST POP POP POP POP POP SWAP4 POP DUP3 DUP1 SLOAD PUSH1 0x1 DUP2 PUSH1 0x1 AND ISZERO PUSH2 0x100 MUL SUB AND PUSH1 0x2 SWAP1 DIV DUP1 PUSH1 0x1F ADD PUSH1 0x20 DUP1 SWAP2 DIV MUL PUSH1 0x20 ADD PUSH1 0x40 MLOAD SWAP1 DUP2 ADD PUSH1 0x40 MSTORE DUP1 SWAP3 SWAP2 SWAP1 DUP2 DUP2 MSTORE PUSH1 0x20 ADD DUP3 DUP1 SLOAD PUSH1 0x1 DUP2 PUSH1 0x1 AND ISZERO PUSH2 0x100 MUL SUB AND PUSH1 0x2 SWAP1 DIV DUP1 ISZERO PUSH2 0x2171 JUMPI DUP1 PUSH1 0x1F LT PUSH2 0x2146 JUMPI PUSH2 0x100 DUP1 DUP4 SLOAD DIV MUL DUP4 MSTORE SWAP2 PUSH1 0x20 ADD SWAP2 PUSH2 0x2171 JUMP JUMPDEST DUP3 ADD SWAP2 SWAP1 PUSH1 0x0 MSTORE PUSH1 0x20 PUSH1 0x0 KECCAK256 SWAP1 JUMPDEST DUP2 SLOAD DUP2 MSTORE SWAP1 PUSH1 0x1 ADD SWAP1 PUSH1 0x20 ADD DUP1 DUP4 GT PUSH2 0x2154 JUMPI DUP3 SWAP1 SUB PUSH1 0x1F AND DUP3 ADD SWAP2 JUMPDEST POP POP POP POP POP SWAP3 POP DUP2 DUP1 SLOAD PUSH1 0x1 DUP2 PUSH1 0x1 AND ISZERO PUSH2 0x100 MUL SUB AND PUSH1 0x2 SWAP1 DIV DUP1 PUSH1 0x1F ADD PUSH1 0x20 DUP1 SWAP2 DIV MUL PUSH1 0x20 ADD PUSH1 0x40 MLOAD SWAP1 DUP2 ADD PUSH1 0x40 MSTORE DUP1 SWAP3 SWAP2 SWAP1 DUP2 DUP2 MSTORE PUSH1 0x20 ADD DUP3 DUP1 SLOAD PUSH1 0x1 DUP2 PUSH1 0x1 AND ISZERO PUSH2 0x100 MUL SUB AND PUSH1 0x2 SWAP1 DIV DUP1 ISZERO PUSH2 0x220D JUMPI DUP1 PUSH1 0x1F LT PUSH2 0x21E2 JUMPI PUSH2 0x100 DUP1 DUP4 SLOAD DIV MUL DUP4 MSTORE SWAP2 PUSH1 0x20 ADD SWAP2 PUSH2 0x220D JUMP JUMPDEST DUP3 ADD SWAP2 SWAP1 PUSH1 0x0 MSTORE PUSH1 0x20 PUSH1 0x0 KECCAK256 SWAP1 JUMPDEST DUP2 SLOAD DUP2 MSTORE SWAP1 PUSH1 0x1 ADD SWAP1 PUSH1 0x20 ADD DUP1 DUP4 GT PUSH2 0x21F0 JUMPI DUP3 SWAP1 SUB PUSH1 0x1F AND DUP3 ADD SWAP2 JUMPDEST POP POP POP POP POP SWAP2 POP DUP1 DUP1 SLOAD PUSH1 0x1 DUP2 PUSH1 0x1 AND ISZERO PUSH2 0x100 MUL SUB AND PUSH1 0x2 SWAP1 DIV DUP1 PUSH1 0x1F ADD PUSH1 0x20 DUP1 SWAP2 DIV MUL PUSH1 0x20 ADD PUSH1 0x40 MLOAD SWAP1 DUP2 ADD PUSH1 0x40 MSTORE DUP1 SWAP3 SWAP2 SWAP1 DUP2 DUP2 MSTORE PUSH1 0x20 ADD DUP3 DUP1 SLOAD PUSH1 0x1 DUP2 PUSH1 0x1 AND ISZERO PUSH2 0x100 MUL SUB AND PUSH1 0x2 SWAP1 DIV DUP1 ISZERO PUSH2 0x22A9 JUMPI DUP1 PUSH1 0x1F LT PUSH2 0x227E JUMPI PUSH2 0x100 DUP1 DUP4 SLOAD DIV MUL DUP4 MSTORE SWAP2 PUSH1 0x20 ADD SWAP2 PUSH2 0x22A9 JUMP JUMPDEST DUP3 ADD SWAP2 SWAP1 PUSH1 0x0 MSTORE PUSH1 0x20 PUSH1 0x0 KECCAK256 SWAP1 JUMPDEST DUP2 SLOAD DUP2 MSTORE SWAP1 PUSH1 0x1 ADD SWAP1 PUSH1 0x20 ADD DUP1 DUP4 GT PUSH2 0x228C JUMPI DUP3 SWAP1 SUB PUSH1 0x1F AND DUP3 ADD SWAP2 JUMPDEST POP POP POP POP POP SWAP1 POP SWAP8 POP SWAP8 POP SWAP8 POP SWAP8 POP SWAP8 POP SWAP8 POP SWAP8 POP POP SWAP2 SWAP4 SWAP6 SWAP8 SWAP1 SWAP3 SWAP5 SWAP7 POP JUMP JUMPDEST PUSH1 0x0 PUSH1 0x10 PUSH1 0x0 SWAP1 SLOAD SWAP1 PUSH2 0x100 EXP SWAP1 DIV PUSH20 0xFFFFFFFFFFFFFFFFFFFFFFFFFFFFFFFFFFFFFFFF AND PUSH20 0xFFFFFFFFFFFFFFFFFFFFFFFFFFFFFFFFFFFFFFFF AND CALLER PUSH20 0xFFFFFFFFFFFFFFFFFFFFFFFFFFFFFFFFFFFFFFFF AND EQ ISZERO ISZERO PUSH2 0x2328 JUMPI PUSH1 0x0 DUP1 REVERT JUMPDEST PUSH1 0x1 PUSH1 0x7 PUSH1 0x0 DUP6 PUSH20 0xFFFFFFFFFFFFFFFFFFFFFFFFFFFFFFFFFFFFFFFF AND PUSH20 0xFFFFFFFFFFFFFFFFFFFFFFFFFFFFFFFFFFFFFFFF AND DUP2 MSTORE PUSH1 0x20 ADD SWAP1 DUP2 MSTORE PUSH1 0x20 ADD PUSH1 0x0 KECCAK256 PUSH1 0x0 DUP5 PUSH20 0xFFFFFFFFFFFFFFFFFFFFFFFFFFFFFFFFFFFFFFFF AND PUSH20 0xFFFFFFFFFFFFFFFFFFFFFFFFFFFFFFFFFFFFFFFF AND DUP2 MSTORE PUSH1 0x20 ADD SWAP1 DUP2 MSTORE PUSH1 0x20 ADD PUSH1 0x0 KECCAK256 PUSH1 0x0 PUSH2 0x100 EXP DUP2 SLOAD DUP2 PUSH1 0xFF MUL NOT AND SWAP1 DUP4 ISZERO ISZERO MUL OR SWAP1 SSTORE POP PUSH1 0xD PUSH1 0x0 DUP2 SLOAD DUP1 SWAP3 SWAP2 SWAP1 PUSH1 0x1 ADD SWAP2 SWAP1 POP SSTORE POP PUSH1 0x1 SWAP1 POP SWAP3 SWAP2 POP POP JUMP JUMPDEST PUSH1 0x0 PUSH1 0xD SLOAD SWAP1 POP SWAP1 JUMP JUMPDEST PUSH1 0x0 DUP1 PUSH1 0x10 PUSH1 0x0 SWAP1 SLOAD SWAP1 PUSH2 0x100 EXP SWAP1 DIV PUSH20 0xFFFFFFFFFFFFFFFFFFFFFFFFFFFFFFFFFFFFFFFF AND PUSH20 0xFFFFFFFFFFFFFFFFFFFFFFFFFFFFFFFFFFFFFFFF AND CALLER PUSH20 0xFFFFFFFFFFFFFFFFFFFFFFFFFFFFFFFFFFFFFFFF AND EQ ISZERO ISZERO PUSH2 0x2442 JUMPI PUSH1 0x0 DUP1 REVERT JUMPDEST PUSH1 0xA PUSH1 0x0 DUP12 PUSH20 0xFFFFFFFFFFFFFFFFFFFFFFFFFFFFFFFFFFFFFFFF AND PUSH20 0xFFFFFFFFFFFFFFFFFFFFFFFFFFFFFFFFFFFFFFFF AND DUP2 MSTORE PUSH1 0x20 ADD SWAP1 DUP2 MSTORE PUSH1 0x20 ADD PUSH1 0x0 KECCAK256 PUSH1 0x0 SWAP1 SLOAD SWAP1 PUSH2 0x100 EXP SWAP1 DIV PUSH1 0xFF AND ISZERO ISZERO ISZERO PUSH2 0x249B JUMPI PUSH1 0x0 DUP1 REVERT JUMPDEST PUSH1 0x6 PUSH1 0x0 DUP12 PUSH20 0xFFFFFFFFFFFFFFFFFFFFFFFFFFFFFFFFFFFFFFFF AND PUSH20 0xFFFFFFFFFFFFFFFFFFFFFFFFFFFFFFFFFFFFFFFF AND DUP2 MSTORE PUSH1 0x20 ADD SWAP1 DUP2 MSTORE PUSH1 0x20 ADD PUSH1 0x0 KECCAK256 SWAP1 POP DUP8 DUP2 PUSH1 0x0 ADD SWAP1 DUP1 MLOAD SWAP1 PUSH1 0x20 ADD SWAP1 PUSH2 0x24F4 SWAP3 SWAP2 SWAP1 PUSH2 0x2679 JUMP JUMPDEST POP DUP7 DUP2 PUSH1 0x1 ADD SWAP1 DUP1 MLOAD SWAP1 PUSH1 0x20 ADD SWAP1 PUSH2 0x250D SWAP3 SWAP2 SWAP1 PUSH2 0x2679 JUMP JUMPDEST POP DUP6 DUP2 PUSH1 0x2 ADD SWAP1 DUP1 MLOAD SWAP1 PUSH1 0x20 ADD SWAP1 PUSH2 0x2526 SWAP3 SWAP2 SWAP1 PUSH2 0x2679 JUMP JUMPDEST POP DUP5 DUP2 PUSH1 0x3 ADD DUP2 SWAP1 SSTORE POP DUP4 DUP2 PUSH1 0x4 ADD PUSH1 0x0 PUSH2 0x100 EXP DUP2 SLOAD DUP2 PUSH20 0xFFFFFFFFFFFFFFFFFFFFFFFFFFFFFFFFFFFFFFFF MUL NOT AND SWAP1 DUP4 PUSH20 0xFFFFFFFFFFFFFFFFFFFFFFFFFFFFFFFFFFFFFFFF AND MUL OR SWAP1 SSTORE POP DUP3 DUP2 PUSH1 0x5 ADD PUSH1 0x0 PUSH2 0x100 EXP DUP2 SLOAD DUP2 PUSH20 0xFFFFFFFFFFFFFFFFFFFFFFFFFFFFFFFFFFFFFFFF MUL NOT AND SWAP1 DUP4 PUSH20 0xFFFFFFFFFFFFFFFFFFFFFFFFFFFFFFFFFFFFFFFF AND MUL OR SWAP1 SSTORE POP PUSH1 0x3 DUP11 SWAP1 DUP1 PUSH1 0x1 DUP2 SLOAD ADD DUP1 DUP3 SSTORE DUP1 SWAP2 POP POP SWAP1 PUSH1 0x1 DUP3 SUB SWAP1 PUSH1 0x0 MSTORE PUSH1 0x20 PUSH1 0x0 KECCAK256 ADD PUSH1 0x0 SWAP1 SWAP2 SWAP3 SWAP1 SWAP2 SWAP1 SWAP2 PUSH2 0x100 EXP DUP2 SLOAD DUP2 PUSH20 0xFFFFFFFFFFFFFFFFFFFFFFFFFFFFFFFFFFFFFFFF MUL NOT AND SWAP1 DUP4 PUSH20 0xFFFFFFFFFFFFFFFFFFFFFFFFFFFFFFFFFFFFFFFF AND MUL OR SWAP1 SSTORE POP POP PUSH1 0xF PUSH1 0x0 DUP2 SLOAD DUP1 SWAP3 SWAP2 SWAP1 PUSH1 0x1 ADD SWAP2 SWAP1 POP SSTORE POP POP SWAP9 SWAP8 POP POP POP POP POP POP POP POP JUMP JUMPDEST PUSH1 0x3 DUP2 DUP2 SLOAD DUP2 LT ISZERO ISZERO PUSH2 0x264A JUMPI INVALID JUMPDEST SWAP1 PUSH1 0x0 MSTORE PUSH1 0x20 PUSH1 0x0 KECCAK256 ADD PUSH1 0x0 SWAP2 POP SLOAD SWAP1 PUSH2 0x100 EXP SWAP1 DIV PUSH20 0xFFFFFFFFFFFFFFFFFFFFFFFFFFFFFFFFFFFFFFFF AND DUP2 JUMP JUMPDEST DUP3 DUP1 SLOAD PUSH1 0x1 DUP2 PUSH1 0x1 AND ISZERO PUSH2 0x100 MUL SUB AND PUSH1 0x2 SWAP1 DIV SWAP1 PUSH1 0x0 MSTORE PUSH1 0x20 PUSH1 0x0 KECCAK256 SWAP1 PUSH1 0x1F ADD PUSH1 0x20 SWAP1 DIV DUP2 ADD SWAP3 DUP3 PUSH1 0x1F LT PUSH2 0x26BA JUMPI DUP1 MLOAD PUSH1 0xFF NOT AND DUP4 DUP1 ADD OR DUP6 SSTORE PUSH2 0x26E8 JUMP JUMPDEST DUP3 DUP1 ADD PUSH1 0x1 ADD DUP6 SSTORE DUP3 ISZERO PUSH2 0x26E8 JUMPI SWAP2 DUP3 ADD JUMPDEST DUP3 DUP2 GT ISZERO PUSH2 0x26E7 JUMPI DUP3 MLOAD DUP3 SSTORE SWAP2 PUSH1 0x20 ADD SWAP2 SWAP1 PUSH1 0x1 ADD SWAP1 PUSH2 0x26CC JUMP JUMPDEST JUMPDEST POP SWAP1 POP PUSH2 0x26F5 SWAP2 SWAP1 PUSH2 0x26F9 JUMP JUMPDEST POP SWAP1 JUMP JUMPDEST PUSH2 0x271B SWAP2 SWAP1 JUMPDEST DUP1 DUP3 GT ISZERO PUSH2 0x2717 JUMPI PUSH1 0x0 DUP2 PUSH1 0x0 SWAP1 SSTORE POP PUSH1 0x1 ADD PUSH2 0x26FF JUMP JUMPDEST POP SWAP1 JUMP JUMPDEST SWAP1 JUMP JUMPDEST PUSH1 0x0 PUSH2 0x272A DUP3 CALLDATALOAD PUSH2 0x2F5A JUMP JUMPDEST SWAP1 POP SWAP3 SWAP2 POP POP JUMP JUMPDEST PUSH1 0x0 DUP3 PUSH1 0x1F DUP4 ADD SLT ISZERO ISZERO PUSH2 0x2745 JUMPI PUSH1 0x0 DUP1 REVERT JUMPDEST DUP2 CALLDATALOAD PUSH2 0x2758 PUSH2 0x2753 DUP3 PUSH2 0x2EC8 JUMP JUMPDEST PUSH2 0x2E9B JUMP JUMPDEST SWAP2 POP DUP1 DUP3 MSTORE PUSH1 0x20 DUP4 ADD PUSH1 0x20 DUP4 ADD DUP6 DUP4 DUP4 ADD GT ISZERO PUSH2 0x2774 JUMPI PUSH1 0x0 DUP1 REVERT JUMPDEST PUSH2 0x277F DUP4 DUP3 DUP5 PUSH2 0x2F84 JUMP JUMPDEST POP POP POP SWAP3 SWAP2 POP POP JUMP JUMPDEST PUSH1 0x0 PUSH2 0x2794 DUP3 CALLDATALOAD PUSH2 0x2F7A JUMP JUMPDEST SWAP1 POP SWAP3 SWAP2 POP POP JUMP JUMPDEST PUSH1 0x0 PUSH1 0x20 DUP3 DUP5 SUB SLT ISZERO PUSH2 0x27AE JUMPI PUSH1 0x0 DUP1 REVERT JUMPDEST PUSH1 0x0 PUSH2 0x27BC DUP5 DUP3 DUP6 ADD PUSH2 0x271E JUMP JUMPDEST SWAP2 POP POP SWAP3 SWAP2 POP POP JUMP JUMPDEST PUSH1 0x0 DUP1 PUSH1 0x40 DUP4 DUP6 SUB SLT ISZERO PUSH2 0x27D8 JUMPI PUSH1 0x0 DUP1 REVERT JUMPDEST PUSH1 0x0 PUSH2 0x27E6 DUP6 DUP3 DUP7 ADD PUSH2 0x271E JUMP JUMPDEST SWAP3 POP POP PUSH1 0x20 PUSH2 0x27F7 DUP6 DUP3 DUP7 ADD PUSH2 0x271E JUMP JUMPDEST SWAP2 POP POP SWAP3 POP SWAP3 SWAP1 POP JUMP JUMPDEST PUSH1 0x0 DUP1 PUSH1 0x0 DUP1 PUSH1 0x0 DUP1 PUSH1 0x0 DUP1 PUSH2 0x100 DUP10 DUP12 SUB SLT ISZERO PUSH2 0x281E JUMPI PUSH1 0x0 DUP1 REVERT JUMPDEST PUSH1 0x0 PUSH2 0x282C DUP12 DUP3 DUP13 ADD PUSH2 0x271E JUMP JUMPDEST SWAP9 POP POP PUSH1 0x20 PUSH2 0x283D DUP12 DUP3 DUP13 ADD PUSH2 0x271E JUMP JUMPDEST SWAP8 POP POP PUSH1 0x40 DUP10 ADD CALLDATALOAD PUSH8 0xFFFFFFFFFFFFFFFF DUP2 GT ISZERO PUSH2 0x285A JUMPI PUSH1 0x0 DUP1 REVERT JUMPDEST PUSH2 0x2866 DUP12 DUP3 DUP13 ADD PUSH2 0x2732 JUMP JUMPDEST SWAP7 POP POP PUSH1 0x60 DUP10 ADD CALLDATALOAD PUSH8 0xFFFFFFFFFFFFFFFF DUP2 GT ISZERO PUSH2 0x2883 JUMPI PUSH1 0x0 DUP1 REVERT JUMPDEST PUSH2 0x288F DUP12 DUP3 DUP13 ADD PUSH2 0x2732 JUMP JUMPDEST SWAP6 POP POP PUSH1 0x80 DUP10 ADD CALLDATALOAD PUSH8 0xFFFFFFFFFFFFFFFF DUP2 GT ISZERO PUSH2 0x28AC JUMPI PUSH1 0x0 DUP1 REVERT JUMPDEST PUSH2 0x28B8 DUP12 DUP3 DUP13 ADD PUSH2 0x2732 JUMP JUMPDEST SWAP5 POP POP PUSH1 0xA0 PUSH2 0x28C9 DUP12 DUP3 DUP13 ADD PUSH2 0x2788 JUMP JUMPDEST SWAP4 POP POP PUSH1 0xC0 PUSH2 0x28DA DUP12 DUP3 DUP13 ADD PUSH2 0x271E JUMP JUMPDEST SWAP3 POP POP PUSH1 0xE0 PUSH2 0x28EB DUP12 DUP3 DUP13 ADD PUSH2 0x271E JUMP JUMPDEST SWAP2 POP POP SWAP3 SWAP6 SWAP9 POP SWAP3 SWAP6 SWAP9 SWAP1 SWAP4 SWAP7 POP JUMP JUMPDEST PUSH1 0x0 DUP1 PUSH1 0x0 DUP1 PUSH1 0x0 DUP1 PUSH1 0x0 DUP1 PUSH2 0x100 DUP10 DUP12 SUB SLT ISZERO PUSH2 0x2918 JUMPI PUSH1 0x0 DUP1 REVERT JUMPDEST PUSH1 0x0 PUSH2 0x2926 DUP12 DUP3 DUP13 ADD PUSH2 0x271E JUMP JUMPDEST SWAP9 POP POP PUSH1 0x20 DUP10 ADD CALLDATALOAD PUSH8 0xFFFFFFFFFFFFFFFF DUP2 GT ISZERO PUSH2 0x2943 JUMPI PUSH1 0x0 DUP1 REVERT JUMPDEST PUSH2 0x294F DUP12 DUP3 DUP13 ADD PUSH2 0x2732 JUMP JUMPDEST SWAP8 POP POP PUSH1 0x40 DUP10 ADD CALLDATALOAD PUSH8 0xFFFFFFFFFFFFFFFF DUP2 GT ISZERO PUSH2 0x296C JUMPI PUSH1 0x0 DUP1 REVERT JUMPDEST PUSH2 0x2978 DUP12 DUP3 DUP13 ADD PUSH2 0x2732 JUMP JUMPDEST SWAP7 POP POP PUSH1 0x60 DUP10 ADD CALLDATALOAD PUSH8 0xFFFFFFFFFFFFFFFF DUP2 GT ISZERO PUSH2 0x2995 JUMPI PUSH1 0x0 DUP1 REVERT JUMPDEST PUSH2 0x29A1 DUP12 DUP3 DUP13 ADD PUSH2 0x2732 JUMP JUMPDEST SWAP6 POP POP PUSH1 0x80 DUP10 ADD CALLDATALOAD PUSH8 0xFFFFFFFFFFFFFFFF DUP2 GT ISZERO PUSH2 0x29BE JUMPI PUSH1 0x0 DUP1 REVERT JUMPDEST PUSH2 0x29CA DUP12 DUP3 DUP13 ADD PUSH2 0x2732 JUMP JUMPDEST SWAP5 POP POP PUSH1 0xA0 DUP10 ADD CALLDATALOAD PUSH8 0xFFFFFFFFFFFFFFFF DUP2 GT ISZERO PUSH2 0x29E7 JUMPI PUSH1 0x0 DUP1 REVERT JUMPDEST PUSH2 0x29F3 DUP12 DUP3 DUP13 ADD PUSH2 0x2732 JUMP JUMPDEST SWAP4 POP POP PUSH1 0xC0 DUP10 ADD CALLDATALOAD PUSH8 0xFFFFFFFFFFFFFFFF DUP2 GT ISZERO PUSH2 0x2A10 JUMPI PUSH1 0x0 DUP1 REVERT JUMPDEST PUSH2 0x2A1C DUP12 DUP3 DUP13 ADD PUSH2 0x2732 JUMP JUMPDEST SWAP3 POP POP PUSH1 0xE0 DUP10 ADD CALLDATALOAD PUSH8 0xFFFFFFFFFFFFFFFF DUP2 GT ISZERO PUSH2 0x2A39 JUMPI PUSH1 0x0 DUP1 REVERT JUMPDEST PUSH2 0x2A45 DUP12 DUP3 DUP13 ADD PUSH2 0x2732 JUMP JUMPDEST SWAP2 POP POP SWAP3 SWAP6 SWAP9 POP SWAP3 SWAP6 SWAP9 SWAP1 SWAP4 SWAP7 POP JUMP JUMPDEST PUSH1 0x0 DUP1 PUSH1 0x0 DUP1 PUSH1 0x0 DUP1 PUSH1 0x0 DUP1 PUSH1 0x0 DUP1 PUSH2 0x140 DUP12 DUP14 SUB SLT ISZERO PUSH2 0x2A75 JUMPI PUSH1 0x0 DUP1 REVERT JUMPDEST PUSH1 0x0 PUSH2 0x2A83 DUP14 DUP3 DUP15 ADD PUSH2 0x271E JUMP JUMPDEST SWAP11 POP POP PUSH1 0x20 DUP12 ADD CALLDATALOAD PUSH8 0xFFFFFFFFFFFFFFFF DUP2 GT ISZERO PUSH2 0x2AA0 JUMPI PUSH1 0x0 DUP1 REVERT JUMPDEST PUSH2 0x2AAC DUP14 DUP3 DUP15 ADD PUSH2 0x2732 JUMP JUMPDEST SWAP10 POP POP PUSH1 0x40 DUP12 ADD CALLDATALOAD PUSH8 0xFFFFFFFFFFFFFFFF DUP2 GT ISZERO PUSH2 0x2AC9 JUMPI PUSH1 0x0 DUP1 REVERT JUMPDEST PUSH2 0x2AD5 DUP14 DUP3 DUP15 ADD PUSH2 0x2732 JUMP JUMPDEST SWAP9 POP POP PUSH1 0x60 DUP12 ADD CALLDATALOAD PUSH8 0xFFFFFFFFFFFFFFFF DUP2 GT ISZERO PUSH2 0x2AF2 JUMPI PUSH1 0x0 DUP1 REVERT JUMPDEST PUSH2 0x2AFE DUP14 DUP3 DUP15 ADD PUSH2 0x2732 JUMP JUMPDEST SWAP8 POP POP PUSH1 0x80 DUP12 ADD CALLDATALOAD PUSH8 0xFFFFFFFFFFFFFFFF DUP2 GT ISZERO PUSH2 0x2B1B JUMPI PUSH1 0x0 DUP1 REVERT JUMPDEST PUSH2 0x2B27 DUP14 DUP3 DUP15 ADD PUSH2 0x2732 JUMP JUMPDEST SWAP7 POP POP PUSH1 0xA0 DUP12 ADD CALLDATALOAD PUSH8 0xFFFFFFFFFFFFFFFF DUP2 GT ISZERO PUSH2 0x2B44 JUMPI PUSH1 0x0 DUP1 REVERT JUMPDEST PUSH2 0x2B50 DUP14 DUP3 DUP15 ADD PUSH2 0x2732 JUMP JUMPDEST SWAP6 POP POP PUSH1 0xC0 DUP12 ADD CALLDATALOAD PUSH8 0xFFFFFFFFFFFFFFFF DUP2 GT ISZERO PUSH2 0x2B6D JUMPI PUSH1 0x0 DUP1 REVERT JUMPDEST PUSH2 0x2B79 DUP14 DUP3 DUP15 ADD PUSH2 0x2732 JUMP JUMPDEST SWAP5 POP POP PUSH1 0xE0 DUP12 ADD CALLDATALOAD PUSH8 0xFFFFFFFFFFFFFFFF DUP2 GT ISZERO PUSH2 0x2B96 JUMPI PUSH1 0x0 DUP1 REVERT JUMPDEST PUSH2 0x2BA2 DUP14 DUP3 DUP15 ADD PUSH2 0x2732 JUMP JUMPDEST SWAP4 POP POP PUSH2 0x100 DUP12 ADD CALLDATALOAD PUSH8 0xFFFFFFFFFFFFFFFF DUP2 GT ISZERO PUSH2 0x2BC0 JUMPI PUSH1 0x0 DUP1 REVERT JUMPDEST PUSH2 0x2BCC DUP14 DUP3 DUP15 ADD PUSH2 0x2732 JUMP JUMPDEST SWAP3 POP POP PUSH2 0x120 DUP12 ADD CALLDATALOAD PUSH8 0xFFFFFFFFFFFFFFFF DUP2 GT ISZERO PUSH2 0x2BEA JUMPI PUSH1 0x0 DUP1 REVERT JUMPDEST PUSH2 0x2BF6 DUP14 DUP3 DUP15 ADD PUSH2 0x2732 JUMP JUMPDEST SWAP2 POP POP SWAP3 SWAP6 SWAP9 SWAP12 SWAP2 SWAP5 SWAP8 SWAP11 POP SWAP3 SWAP6 SWAP9 POP JUMP JUMPDEST PUSH1 0x0 PUSH1 0x20 DUP3 DUP5 SUB SLT ISZERO PUSH2 0x2C1A JUMPI PUSH1 0x0 DUP1 REVERT JUMPDEST PUSH1 0x0 PUSH2 0x2C28 DUP5 DUP3 DUP6 ADD PUSH2 0x2788 JUMP JUMPDEST SWAP2 POP POP SWAP3 SWAP2 POP POP JUMP JUMPDEST PUSH2 0x2C3A DUP2 PUSH2 0x2F24 JUMP JUMPDEST DUP3 MSTORE POP POP JUMP JUMPDEST PUSH1 0x0 PUSH2 0x2C4B DUP3 PUSH2 0x2F01 JUMP JUMPDEST DUP1 DUP5 MSTORE PUSH1 0x20 DUP5 ADD SWAP4 POP PUSH2 0x2C5D DUP4 PUSH2 0x2EF4 JUMP JUMPDEST PUSH1 0x0 JUMPDEST DUP3 DUP2 LT ISZERO PUSH2 0x2C8F JUMPI PUSH2 0x2C73 DUP7 DUP4 MLOAD PUSH2 0x2C31 JUMP JUMPDEST PUSH2 0x2C7C DUP3 PUSH2 0x2F17 JUMP JUMPDEST SWAP2 POP PUSH1 0x20 DUP7 ADD SWAP6 POP PUSH1 0x1 DUP2 ADD SWAP1 POP PUSH2 0x2C60 JUMP JUMPDEST POP DUP5 SWAP3 POP POP POP SWAP3 SWAP2 POP POP JUMP JUMPDEST PUSH2 0x2CA4 DUP2 PUSH2 0x2F44 JUMP JUMPDEST DUP3 MSTORE POP POP JUMP JUMPDEST PUSH1 0x0 PUSH2 0x2CB5 DUP3 PUSH2 0x2F0C JUMP JUMPDEST DUP1 DUP5 MSTORE PUSH2 0x2CC9 DUP2 PUSH1 0x20 DUP7 ADD PUSH1 0x20 DUP7 ADD PUSH2 0x2F93 JUMP JUMPDEST PUSH2 0x2CD2 DUP2 PUSH2 0x2FC6 JUMP JUMPDEST PUSH1 0x20 DUP6 ADD ADD SWAP2 POP POP SWAP3 SWAP2 POP POP JUMP JUMPDEST PUSH2 0x2CE9 DUP2 PUSH2 0x2F50 JUMP JUMPDEST DUP3 MSTORE POP POP JUMP JUMPDEST PUSH1 0x0 PUSH1 0x20 DUP3 ADD SWAP1 POP PUSH2 0x2D04 PUSH1 0x0 DUP4 ADD DUP5 PUSH2 0x2C31 JUMP JUMPDEST SWAP3 SWAP2 POP POP JUMP JUMPDEST PUSH1 0x0 PUSH1 0x20 DUP3 ADD SWAP1 POP DUP2 DUP2 SUB PUSH1 0x0 DUP4 ADD MSTORE PUSH2 0x2D24 DUP2 DUP5 PUSH2 0x2C40 JUMP JUMPDEST SWAP1 POP SWAP3 SWAP2 POP POP JUMP JUMPDEST PUSH1 0x0 PUSH1 0x20 DUP3 ADD SWAP1 POP PUSH2 0x2D41 PUSH1 0x0 DUP4 ADD DUP5 PUSH2 0x2C9B JUMP JUMPDEST SWAP3 SWAP2 POP POP JUMP JUMPDEST PUSH1 0x0 PUSH1 0xE0 DUP3 ADD SWAP1 POP DUP2 DUP2 SUB PUSH1 0x0 DUP4 ADD MSTORE PUSH2 0x2D61 DUP2 DUP11 PUSH2 0x2CAA JUMP JUMPDEST SWAP1 POP DUP2 DUP2 SUB PUSH1 0x20 DUP4 ADD MSTORE PUSH2 0x2D75 DUP2 DUP10 PUSH2 0x2CAA JUMP JUMPDEST SWAP1 POP DUP2 DUP2 SUB PUSH1 0x40 DUP4 ADD MSTORE PUSH2 0x2D89 DUP2 DUP9 PUSH2 0x2CAA JUMP JUMPDEST SWAP1 POP DUP2 DUP2 SUB PUSH1 0x60 DUP4 ADD MSTORE PUSH2 0x2D9D DUP2 DUP8 PUSH2 0x2CAA JUMP JUMPDEST SWAP1 POP DUP2 DUP2 SUB PUSH1 0x80 DUP4 ADD MSTORE PUSH2 0x2DB1 DUP2 DUP7 PUSH2 0x2CAA JUMP JUMPDEST SWAP1 POP DUP2 DUP2 SUB PUSH1 0xA0 DUP4 ADD MSTORE PUSH2 0x2DC5 DUP2 DUP6 PUSH2 0x2CAA JUMP JUMPDEST SWAP1 POP PUSH2 0x2DD4 PUSH1 0xC0 DUP4 ADD DUP5 PUSH2 0x2C31 JUMP JUMPDEST SWAP9 SWAP8 POP POP POP POP POP POP POP POP JUMP JUMPDEST PUSH1 0x0 PUSH1 0xE0 DUP3 ADD SWAP1 POP DUP2 DUP2 SUB PUSH1 0x0 DUP4 ADD MSTORE PUSH2 0x2DFA DUP2 DUP11 PUSH2 0x2CAA JUMP JUMPDEST SWAP1 POP DUP2 DUP2 SUB PUSH1 0x20 DUP4 ADD MSTORE PUSH2 0x2E0E DUP2 DUP10 PUSH2 0x2CAA JUMP JUMPDEST SWAP1 POP DUP2 DUP2 SUB PUSH1 0x40 DUP4 ADD MSTORE PUSH2 0x2E22 DUP2 DUP9 PUSH2 0x2CAA JUMP JUMPDEST SWAP1 POP DUP2 DUP2 SUB PUSH1 0x60 DUP4 ADD MSTORE PUSH2 0x2E36 DUP2 DUP8 PUSH2 0x2CAA JUMP JUMPDEST SWAP1 POP DUP2 DUP2 SUB PUSH1 0x80 DUP4 ADD MSTORE PUSH2 0x2E4A DUP2 DUP7 PUSH2 0x2CAA JUMP JUMPDEST SWAP1 POP DUP2 DUP2 SUB PUSH1 0xA0 DUP4 ADD MSTORE PUSH2 0x2E5E DUP2 DUP6 PUSH2 0x2CAA JUMP JUMPDEST SWAP1 POP DUP2 DUP2 SUB PUSH1 0xC0 DUP4 ADD MSTORE PUSH2 0x2E72 DUP2 DUP5 PUSH2 0x2CAA JUMP JUMPDEST SWAP1 POP SWAP9 SWAP8 POP POP POP POP POP POP POP POP JUMP JUMPDEST PUSH1 0x0 PUSH1 0x20 DUP3 ADD SWAP1 POP PUSH2 0x2E95 PUSH1 0x0 DUP4 ADD DUP5 PUSH2 0x2CE0 JUMP JUMPDEST SWAP3 SWAP2 POP POP JUMP JUMPDEST PUSH1 0x0 PUSH1 0x40 MLOAD SWAP1 POP DUP2 DUP2 ADD DUP2 DUP2 LT PUSH8 0xFFFFFFFFFFFFFFFF DUP3 GT OR ISZERO PUSH2 0x2EBE JUMPI PUSH1 0x0 DUP1 REVERT JUMPDEST DUP1 PUSH1 0x40 MSTORE POP SWAP2 SWAP1 POP JUMP JUMPDEST PUSH1 0x0 PUSH8 0xFFFFFFFFFFFFFFFF DUP3 GT ISZERO PUSH2 0x2EDF JUMPI PUSH1 0x0 DUP1 REVERT JUMPDEST PUSH1 0x1F NOT PUSH1 0x1F DUP4 ADD AND SWAP1 POP PUSH1 0x20 DUP2 ADD SWAP1 POP SWAP2 SWAP1 POP JUMP JUMPDEST PUSH1 0x0 PUSH1 0x20 DUP3 ADD SWAP1 POP SWAP2 SWAP1 POP JUMP JUMPDEST PUSH1 0x0 DUP2 MLOAD SWAP1 POP SWAP2 SWAP1 POP JUMP JUMPDEST PUSH1 0x0 DUP2 MLOAD SWAP1 POP SWAP2 SWAP1 POP JUMP JUMPDEST PUSH1 0x0 PUSH1 0x20 DUP3 ADD SWAP1 POP SWAP2 SWAP1 POP JUMP JUMPDEST PUSH1 0x0 PUSH20 0xFFFFFFFFFFFFFFFFFFFFFFFFFFFFFFFFFFFFFFFF DUP3 AND SWAP1 POP SWAP2 SWAP1 POP JUMP JUMPDEST PUSH1 0x0 DUP2 ISZERO ISZERO SWAP1 POP SWAP2 SWAP1 POP JUMP JUMPDEST PUSH1 0x0 DUP2 SWAP1 POP SWAP2 SWAP1 POP JUMP JUMPDEST PUSH1 0x0 PUSH20 0xFFFFFFFFFFFFFFFFFFFFFFFFFFFFFFFFFFFFFFFF DUP3 AND SWAP1 POP SWAP2 SWAP1 POP JUMP JUMPDEST PUSH1 0x0 DUP2 SWAP1 POP SWAP2 SWAP1 POP JUMP JUMPDEST DUP3 DUP2 DUP4 CALLDATACOPY PUSH1 0x0 DUP4 DUP4 ADD MSTORE POP POP POP JUMP JUMPDEST PUSH1 0x0 JUMPDEST DUP4 DUP2 LT ISZERO PUSH2 0x2FB1 JUMPI DUP1 DUP3 ADD MLOAD DUP2 DUP5 ADD MSTORE PUSH1 0x20 DUP2 ADD SWAP1 POP PUSH2 0x2F96 JUMP JUMPDEST DUP4 DUP2 GT ISZERO PUSH2 0x2FC0 JUMPI PUSH1 0x0 DUP5 DUP5 ADD MSTORE JUMPDEST POP POP POP POP JUMP JUMPDEST PUSH1 0x0 PUSH1 0x1F NOT PUSH1 0x1F DUP4 ADD AND SWAP1 POP SWAP2 SWAP1 POP JUMP STOP LOG2 PUSH6 0x627A7A723058 KECCAK256 RETURN EQ 0xf8 0xad PUSH13 0xC9A7051B13BD0AC04C0C8C85F4 MUL 0xcd 0x4e 0xef PUSH30 0xA039EEC7B98C990D686C6578706572696D656E74616CF500370000000000 "
				},
				"gasEstimates": {
					"creation": {
						"codeDepositCost": "2461000",
						"executionCost": "47947",
						"totalCost": "2508947"
					},
					"external": {
						"MoHPermissionCounter()": "870",
						"MoHRevokePermission(address,address)": "infinite",
						"createVaccineRecord(address,address,string,string,string,uint256,address,address)": "infinite",
						"doctorCount()": "760",
						"doctorList(uint256)": "1144",
						"doctorRegistration(address,string,string,string,string,string,string,string)": "infinite",
						"editDoctor(address,string,string,string,string,string,string,string)": "infinite",
						"editUser(address,string,string,string,string,string,string,string,string,string)": "infinite",
						"getDoctorCount()": "790",
						"getDoctors()": "infinite",
						"getMoHPermissionCounter()": "1076",
						"getUserCount()": "944",
						"getUserPermissionCounter()": "548",
						"getUsers()": "infinite",
						"givePermissionByMoH(address,address)": "infinite",
						"givePermissionByUser(address)": "41388",
						"mohAdress()": "1000",
						"owner()": "846",
						"ownerAddress()": "21142",
						"searchDoctor(address)": "infinite",
						"searchUserformation(address)": "infinite",
						"userCount()": "584",
						"userList(uint256)": "1430",
						"userPermissionCounter()": "1002",
						"userRegistration(address,string,string,string,string,string,string,string,string,string)": "infinite",
						"userRevokePermission(address)": "21173",
						"vaccinationList(uint256)": "1650",
						"vaccinationRecordsCounter()": "848"
					}
				},
				"methodIdentifiers": {
					"MoHPermissionCounter()": "99d698c5",
					"MoHRevokePermission(address,address)": "c3bf7bf0",
					"createVaccineRecord(address,address,string,string,string,uint256,address,address)": "e1f2d3ec",
					"doctorCount()": "78522bc4",
					"doctorList(uint256)": "127ca4b4",
					"doctorRegistration(address,string,string,string,string,string,string,string)": "17e51111",
					"editDoctor(address,string,string,string,string,string,string,string)": "16e0a611",
					"editUser(address,string,string,string,string,string,string,string,string,string)": "779a9576",
					"getDoctorCount()": "79111c1c",
					"getDoctors()": "b13d5d94",
					"getMoHPermissionCounter()": "e0df0ac6",
					"getUserCount()": "b5cb15f7",
					"getUserPermissionCounter()": "024decc5",
					"getUsers()": "00ce8e3e",
					"givePermissionByMoH(address,address)": "d118404b",
					"givePermissionByUser(address)": "294a4540",
					"mohAdress()": "b744ff4d",
					"owner()": "8da5cb5b",
					"ownerAddress()": "8f84aa09",
					"searchDoctor(address)": "caee6c85",
					"searchUserformation(address)": "076fd2f8",
					"userCount()": "07973ccf",
					"userList(uint256)": "9f4216e8",
					"userPermissionCounter()": "c543a718",
					"userRegistration(address,string,string,string,string,string,string,string,string,string)": "6cdb2278",
					"userRevokePermission(address)": "5fc8e8c6",
					"vaccinationList(uint256)": "ff508dab",
					"vaccinationRecordsCounter()": "96e39ce0"
				}
			},
			"userdoc": {
				"methods": {}
			}
		}
	}
}