{
	"contracts/ddddd.sol": {
		"ddddd": {
			"abi": [
				{
					"constant": true,
					"inputs": [],
					"name": "getUsers",
					"outputs": [
						{
							"name": "",
							"type": "address[]"
						}
					],
					"payable": false,
					"stateMutability": "view",
					"type": "function"
				},
				{
					"constant": true,
					"inputs": [],
					"name": "getUserPermissionCounter",
					"outputs": [
						{
							"name": "",
							"type": "uint256"
						}
					],
					"payable": false,
					"stateMutability": "view",
					"type": "function"
				},
				{
					"constant": true,
					"inputs": [
						{
							"name": "_address",
							"type": "address"
						}
					],
					"name": "searchUserformation",
					"outputs": [
						{
							"name": "",
							"type": "string"
						},
						{
							"name": "",
							"type": "string"
						},
						{
							"name": "",
							"type": "string"
						},
						{
							"name": "",
							"type": "string"
						},
						{
							"name": "",
							"type": "string"
						},
						{
							"name": "",
							"type": "string"
						},
						{
							"name": "",
							"type": "string"
						},
						{
							"name": "",
							"type": "address"
						}
					],
					"payable": false,
					"stateMutability": "view",
					"type": "function"
				},
				{
					"constant": true,
					"inputs": [],
					"name": "userCount",
					"outputs": [
						{
							"name": "",
							"type": "uint256"
						}
					],
					"payable": false,
					"stateMutability": "view",
					"type": "function"
				},
				{
					"constant": true,
					"inputs": [
						{
							"name": "",
							"type": "uint256"
						}
					],
					"name": "doctorList",
					"outputs": [
						{
							"name": "",
							"type": "address"
						}
					],
					"payable": false,
					"stateMutability": "view",
					"type": "function"
				},
				{
					"constant": false,
					"inputs": [
						{
							"name": "_doctor",
							"type": "address"
						},
						{
							"name": "_uaeId",
							"type": "string"
						},
						{
							"name": "_name",
							"type": "string"
						},
						{
							"name": "_phone",
							"type": "string"
						},
						{
							"name": "_gender",
							"type": "string"
						},
						{
							"name": "_email",
							"type": "string"
						},
						{
							"name": "_qualification",
							"type": "string"
						},
						{
							"name": "_major",
							"type": "string"
						}
					],
					"name": "editDoctor",
					"outputs": [],
					"payable": false,
					"stateMutability": "nonpayable",
					"type": "function"
				},
				{
					"constant": false,
					"inputs": [
						{
							"name": "_doctor",
							"type": "address"
						},
						{
							"name": "_uaeId",
							"type": "string"
						},
						{
							"name": "_name",
							"type": "string"
						},
						{
							"name": "_phone",
							"type": "string"
						},
						{
							"name": "_gender",
							"type": "string"
						},
						{
							"name": "_email",
							"type": "string"
						},
						{
							"name": "_qualification",
							"type": "string"
						},
						{
							"name": "_major",
							"type": "string"
						}
					],
					"name": "doctorRegistration",
					"outputs": [],
					"payable": false,
					"stateMutability": "nonpayable",
					"type": "function"
				},
				{
					"constant": false,
					"inputs": [
						{
							"name": "_address",
							"type": "address"
						}
					],
					"name": "givePermissionByUser",
					"outputs": [
						{
							"name": "success",
							"type": "bool"
						}
					],
					"payable": false,
					"stateMutability": "nonpayable",
					"type": "function"
				},
				{
					"constant": false,
					"inputs": [
						{
							"name": "_address1",
							"type": "address"
						},
						{
							"name": "_doctor",
							"type": "address"
						},
						{
							"name": "_vaccine",
							"type": "string"
						},
						{
							"name": "_description",
							"type": "string"
						},
						{
							"name": "_typeOfVaccine",
							"type": "string"
						},
						{
							"name": "_creationDate",
							"type": "uint256"
						}
					],
					"name": "createVaccineRecord",
					"outputs": [
						{
							"name": "success",
							"type": "bool"
						}
					],
					"payable": false,
					"stateMutability": "nonpayable",
					"type": "function"
				},
				{
					"constant": false,
					"inputs": [
						{
							"name": "_address",
							"type": "address"
						}
					],
					"name": "userRevokePermission",
					"outputs": [
						{
							"name": "success",
							"type": "bool"
						}
					],
					"payable": false,
					"stateMutability": "nonpayable",
					"type": "function"
				},
				{
					"constant": false,
					"inputs": [
						{
							"name": "_user",
							"type": "address"
						},
						{
							"name": "_uaeId",
							"type": "string"
						},
						{
							"name": "_name",
							"type": "string"
						},
						{
							"name": "_phone",
							"type": "string"
						},
						{
							"name": "_gender",
							"type": "string"
						},
						{
							"name": "_dob",
							"type": "string"
						},
						{
							"name": "_addr",
							"type": "string"
						},
						{
							"name": "_email",
							"type": "string"
						},
						{
							"name": "_nomineeName",
							"type": "string"
						},
						{
							"name": "_nomineeContact",
							"type": "string"
						}
					],
					"name": "userRegistration",
					"outputs": [],
					"payable": false,
					"stateMutability": "nonpayable",
					"type": "function"
				},
				{
					"constant": false,
					"inputs": [
						{
							"name": "_user",
							"type": "address"
						},
						{
							"name": "_uaeId",
							"type": "string"
						},
						{
							"name": "_name",
							"type": "string"
						},
						{
							"name": "_phone",
							"type": "string"
						},
						{
							"name": "_gender",
							"type": "string"
						},
						{
							"name": "_dob",
							"type": "string"
						},
						{
							"name": "_addr",
							"type": "string"
						},
						{
							"name": "_email",
							"type": "string"
						},
						{
							"name": "_nomineeName",
							"type": "string"
						},
						{
							"name": "_nomineeContact",
							"type": "string"
						}
					],
					"name": "editUser",
					"outputs": [],
					"payable": false,
					"stateMutability": "nonpayable",
					"type": "function"
				},
				{
					"constant": true,
					"inputs": [],
					"name": "doctorCount",
					"outputs": [
						{
							"name": "",
							"type": "uint256"
						}
					],
					"payable": false,
					"stateMutability": "view",
					"type": "function"
				},
				{
					"constant": true,
					"inputs": [],
					"name": "getDoctorCount",
					"outputs": [
						{
							"name": "",
							"type": "uint256"
						}
					],
					"payable": false,
					"stateMutability": "view",
					"type": "function"
				},
				{
					"constant": true,
					"inputs": [
						{
							"name": "_address",
							"type": "address"
						}
					],
					"name": "checkDoctor",
					"outputs": [
						{
							"name": "success",
							"type": "bool"
						}
					],
					"payable": false,
					"stateMutability": "view",
					"type": "function"
				},
				{
					"constant": true,
					"inputs": [
						{
							"name": "_address",
							"type": "address"
						}
					],
					"name": "getVaccinationInfo",
					"outputs": [
						{
							"name": "",
							"type": "string"
						},
						{
							"name": "",
							"type": "string"
						},
						{
							"name": "",
							"type": "string"
						},
						{
							"name": "",
							"type": "uint256"
						},
						{
							"name": "",
							"type": "address"
						},
						{
							"name": "",
							"type": "address"
						}
					],
					"payable": false,
					"stateMutability": "view",
					"type": "function"
				},
				{
					"constant": true,
					"inputs": [],
					"name": "owner",
					"outputs": [
						{
							"name": "",
							"type": "address"
						}
					],
					"payable": false,
					"stateMutability": "view",
					"type": "function"
				},
				{
					"constant": false,
					"inputs": [],
					"name": "ownerAddress",
					"outputs": [
						{
							"name": "",
							"type": "address"
						}
					],
					"payable": false,
					"stateMutability": "nonpayable",
					"type": "function"
				},
				{
					"constant": true,
					"inputs": [],
					"name": "vaccinationRecordsCounter",
					"outputs": [
						{
							"name": "",
							"type": "uint256"
						}
					],
					"payable": false,
					"stateMutability": "view",
					"type": "function"
				},
				{
					"constant": true,
					"inputs": [],
					"name": "MoHPermissionCounter",
					"outputs": [
						{
							"name": "",
							"type": "uint256"
						}
					],
					"payable": false,
					"stateMutability": "view",
					"type": "function"
				},
				{
					"constant": true,
					"inputs": [
						{
							"name": "",
							"type": "uint256"
						}
					],
					"name": "userList",
					"outputs": [
						{
							"name": "",
							"type": "address"
						}
					],
					"payable": false,
					"stateMutability": "view",
					"type": "function"
				},
				{
					"constant": true,
					"inputs": [],
					"name": "getDoctors",
					"outputs": [
						{
							"name": "",
							"type": "address[]"
						}
					],
					"payable": false,
					"stateMutability": "view",
					"type": "function"
				},
				{
					"constant": true,
					"inputs": [],
					"name": "getUserCount",
					"outputs": [
						{
							"name": "",
							"type": "uint256"
						}
					],
					"payable": false,
					"stateMutability": "view",
					"type": "function"
				},
				{
					"constant": true,
					"inputs": [],
					"name": "mohAdress",
					"outputs": [
						{
							"name": "",
							"type": "address"
						}
					],
					"payable": false,
					"stateMutability": "view",
					"type": "function"
				},
				{
					"constant": false,
					"inputs": [
						{
							"name": "_address1",
							"type": "address"
						},
						{
							"name": "_address2",
							"type": "address"
						}
					],
					"name": "MoHRevokePermission",
					"outputs": [
						{
							"name": "success",
							"type": "bool"
						}
					],
					"payable": false,
					"stateMutability": "nonpayable",
					"type": "function"
				},
				{
					"constant": true,
					"inputs": [],
					"name": "userPermissionCounter",
					"outputs": [
						{
							"name": "",
							"type": "uint256"
						}
					],
					"payable": false,
					"stateMutability": "view",
					"type": "function"
				},
				{
					"constant": true,
					"inputs": [
						{
							"name": "_address",
							"type": "address"
						}
					],
					"name": "searchDoctor",
					"outputs": [
						{
							"name": "",
							"type": "string"
						},
						{
							"name": "",
							"type": "string"
						},
						{
							"name": "",
							"type": "string"
						},
						{
							"name": "",
							"type": "string"
						},
						{
							"name": "",
							"type": "string"
						},
						{
							"name": "",
							"type": "string"
						},
						{
							"name": "",
							"type": "string"
						}
					],
					"payable": false,
					"stateMutability": "view",
					"type": "function"
				},
				{
					"constant": false,
					"inputs": [
						{
							"name": "_address1",
							"type": "address"
						},
						{
							"name": "_address2",
							"type": "address"
						}
					],
					"name": "givePermissionByMoH",
					"outputs": [
						{
							"name": "success",
							"type": "bool"
						}
					],
					"payable": false,
					"stateMutability": "nonpayable",
					"type": "function"
				},
				{
					"constant": true,
					"inputs": [],
					"name": "getMoHPermissionCounter",
					"outputs": [
						{
							"name": "",
							"type": "uint256"
						}
					],
					"payable": false,
					"stateMutability": "view",
					"type": "function"
				},
				{
					"constant": true,
					"inputs": [
						{
							"name": "",
							"type": "uint256"
						}
					],
					"name": "vaccinationList",
					"outputs": [
						{
							"name": "",
							"type": "address"
						}
					],
					"payable": false,
					"stateMutability": "view",
					"type": "function"
				}
			],
			"devdoc": {
				"methods": {}
			},
			"evm": {
				"assembly": "    /* \"contracts/ddddd.sol\":91:9227  contract ddddd {\r... */\n  mstore(0x40, 0x80)\n    /* \"contracts/ddddd.sol\":1662:1663  0 */\n  0x0\n    /* \"contracts/ddddd.sol\":1635:1663  uint256 public userCount = 0 */\n  0xb\n  sstore\n    /* \"contracts/ddddd.sol\":1699:1700  0 */\n  0x0\n    /* \"contracts/ddddd.sol\":1670:1700  uint256 public doctorCount = 0 */\n  0xc\n  sstore\n    /* \"contracts/ddddd.sol\":1745:1746  0 */\n  0x0\n    /* \"contracts/ddddd.sol\":1707:1746  uint256 public MoHPermissionCounter = 0 */\n  0xd\n  sstore\n    /* \"contracts/ddddd.sol\":1792:1793  0 */\n  0x0\n    /* \"contracts/ddddd.sol\":1753:1793  uint256 public userPermissionCounter = 0 */\n  0xe\n  sstore\n    /* \"contracts/ddddd.sol\":1843:1844  0 */\n  0x0\n    /* \"contracts/ddddd.sol\":1800:1844  uint256 public vaccinationRecordsCounter = 0 */\n  0xf\n  sstore\n    /* \"contracts/ddddd.sol\":1880:1922  0xc50C6297f56b033633C30354A854b074749cd2dC */\n  0xc50c6297f56b033633c30354a854b074749cd2dc\n    /* \"contracts/ddddd.sol\":1853:1922  address public mohAdress = 0xc50C6297f56b033633C30354A854b074749cd2dC */\n  0x10\n  exp(0x100, 0x0)\n  dup2\n  sload\n  dup2\n  0xffffffffffffffffffffffffffffffffffffffff\n  mul\n  not\n  and\n  swap1\n  dup4\n  0xffffffffffffffffffffffffffffffffffffffff\n  and\n  mul\n  or\n  swap1\n  sstore\n  pop\n    /* \"contracts/ddddd.sol\":91:9227  contract ddddd {\r... */\n  callvalue\n    /* \"--CODEGEN--\":8:17   */\n  dup1\n    /* \"--CODEGEN--\":5:7   */\n  iszero\n  tag_1\n  jumpi\n    /* \"--CODEGEN--\":30:31   */\n  0x0\n    /* \"--CODEGEN--\":27:28   */\n  dup1\n    /* \"--CODEGEN--\":20:32   */\n  revert\n    /* \"--CODEGEN--\":5:7   */\ntag_1:\n    /* \"contracts/ddddd.sol\":91:9227  contract ddddd {\r... */\n  pop\n  dataSize(sub_0)\n  dup1\n  dataOffset(sub_0)\n  0x0\n  codecopy\n  0x0\n  return\nstop\n\nsub_0: assembly {\n        /* \"contracts/ddddd.sol\":91:9227  contract ddddd {\r... */\n      mstore(0x40, 0x80)\n      jumpi(tag_1, lt(calldatasize, 0x4))\n      calldataload(0x0)\n      0x100000000000000000000000000000000000000000000000000000000\n      swap1\n      div\n      0xffffffff\n      and\n      dup1\n      0xce8e3e\n      eq\n      tag_2\n      jumpi\n      dup1\n      0x24decc5\n      eq\n      tag_3\n      jumpi\n      dup1\n      0x76fd2f8\n      eq\n      tag_4\n      jumpi\n      dup1\n      0x7973ccf\n      eq\n      tag_5\n      jumpi\n      dup1\n      0x127ca4b4\n      eq\n      tag_6\n      jumpi\n      dup1\n      0x16e0a611\n      eq\n      tag_7\n      jumpi\n      dup1\n      0x17e51111\n      eq\n      tag_8\n      jumpi\n      dup1\n      0x294a4540\n      eq\n      tag_9\n      jumpi\n      dup1\n      0x341f8105\n      eq\n      tag_10\n      jumpi\n      dup1\n      0x5fc8e8c6\n      eq\n      tag_11\n      jumpi\n      dup1\n      0x6cdb2278\n      eq\n      tag_12\n      jumpi\n      dup1\n      0x779a9576\n      eq\n      tag_13\n      jumpi\n      dup1\n      0x78522bc4\n      eq\n      tag_14\n      jumpi\n      dup1\n      0x79111c1c\n      eq\n      tag_15\n      jumpi\n      dup1\n      0x793de5f0\n      eq\n      tag_16\n      jumpi\n      dup1\n      0x83a28b29\n      eq\n      tag_17\n      jumpi\n      dup1\n      0x8da5cb5b\n      eq\n      tag_18\n      jumpi\n      dup1\n      0x8f84aa09\n      eq\n      tag_19\n      jumpi\n      dup1\n      0x96e39ce0\n      eq\n      tag_20\n      jumpi\n      dup1\n      0x99d698c5\n      eq\n      tag_21\n      jumpi\n      dup1\n      0x9f4216e8\n      eq\n      tag_22\n      jumpi\n      dup1\n      0xb13d5d94\n      eq\n      tag_23\n      jumpi\n      dup1\n      0xb5cb15f7\n      eq\n      tag_24\n      jumpi\n      dup1\n      0xb744ff4d\n      eq\n      tag_25\n      jumpi\n      dup1\n      0xc3bf7bf0\n      eq\n      tag_26\n      jumpi\n      dup1\n      0xc543a718\n      eq\n      tag_27\n      jumpi\n      dup1\n      0xcaee6c85\n      eq\n      tag_28\n      jumpi\n      dup1\n      0xd118404b\n      eq\n      tag_29\n      jumpi\n      dup1\n      0xe0df0ac6\n      eq\n      tag_30\n      jumpi\n      dup1\n      0xff508dab\n      eq\n      tag_31\n      jumpi\n    tag_1:\n      0x0\n      dup1\n      revert\n        /* \"contracts/ddddd.sol\":7223:7308  function getUsers() public view returns(address[]) {\r... */\n    tag_2:\n      callvalue\n        /* \"--CODEGEN--\":8:17   */\n      dup1\n        /* \"--CODEGEN--\":5:7   */\n      iszero\n      tag_32\n      jumpi\n        /* \"--CODEGEN--\":30:31   */\n      0x0\n        /* \"--CODEGEN--\":27:28   */\n      dup1\n        /* \"--CODEGEN--\":20:32   */\n      revert\n        /* \"--CODEGEN--\":5:7   */\n    tag_32:\n        /* \"contracts/ddddd.sol\":7223:7308  function getUsers() public view returns(address[]) {\r... */\n      pop\n      tag_33\n      jump(tag_34)\n    tag_33:\n      mload(0x40)\n      tag_35\n      swap2\n      swap1\n      jump(tag_36)\n    tag_35:\n      mload(0x40)\n      dup1\n      swap2\n      sub\n      swap1\n      return\n        /* \"contracts/ddddd.sol\":8680:8792  function getUserPermissionCounter() public view returns(uint256) {\r... */\n    tag_3:\n      callvalue\n        /* \"--CODEGEN--\":8:17   */\n      dup1\n        /* \"--CODEGEN--\":5:7   */\n      iszero\n      tag_37\n      jumpi\n        /* \"--CODEGEN--\":30:31   */\n      0x0\n        /* \"--CODEGEN--\":27:28   */\n      dup1\n        /* \"--CODEGEN--\":20:32   */\n      revert\n        /* \"--CODEGEN--\":5:7   */\n    tag_37:\n        /* \"contracts/ddddd.sol\":8680:8792  function getUserPermissionCounter() public view returns(uint256) {\r... */\n      pop\n      tag_38\n      jump(tag_39)\n    tag_38:\n      mload(0x40)\n      tag_40\n      swap2\n      swap1\n      jump(tag_41)\n    tag_40:\n      mload(0x40)\n      dup1\n      swap2\n      sub\n      swap1\n      return\n        /* \"contracts/ddddd.sol\":7419:7793  function searchUserformation(address _address) public view returns(string, string, string, string, string, string, string, address) {\r... */\n    tag_4:\n      callvalue\n        /* \"--CODEGEN--\":8:17   */\n      dup1\n        /* \"--CODEGEN--\":5:7   */\n      iszero\n      tag_42\n      jumpi\n        /* \"--CODEGEN--\":30:31   */\n      0x0\n        /* \"--CODEGEN--\":27:28   */\n      dup1\n        /* \"--CODEGEN--\":20:32   */\n      revert\n        /* \"--CODEGEN--\":5:7   */\n    tag_42:\n        /* \"contracts/ddddd.sol\":7419:7793  function searchUserformation(address _address) public view returns(string, string, string, string, string, string, string, address) {\r... */\n      pop\n      tag_43\n      0x4\n      dup1\n      calldatasize\n      sub\n      tag_44\n      swap2\n      swap1\n      dup2\n      add\n      swap1\n      jump(tag_45)\n    tag_44:\n      jump(tag_46)\n    tag_43:\n      mload(0x40)\n      tag_47\n      swap9\n      swap8\n      swap7\n      swap6\n      swap5\n      swap4\n      swap3\n      swap2\n      swap1\n      jump(tag_48)\n    tag_47:\n      mload(0x40)\n      dup1\n      swap2\n      sub\n      swap1\n      return\n        /* \"contracts/ddddd.sol\":1635:1663  uint256 public userCount = 0 */\n    tag_5:\n      callvalue\n        /* \"--CODEGEN--\":8:17   */\n      dup1\n        /* \"--CODEGEN--\":5:7   */\n      iszero\n      tag_49\n      jumpi\n        /* \"--CODEGEN--\":30:31   */\n      0x0\n        /* \"--CODEGEN--\":27:28   */\n      dup1\n        /* \"--CODEGEN--\":20:32   */\n      revert\n        /* \"--CODEGEN--\":5:7   */\n    tag_49:\n        /* \"contracts/ddddd.sol\":1635:1663  uint256 public userCount = 0 */\n      pop\n      tag_50\n      jump(tag_51)\n    tag_50:\n      mload(0x40)\n      tag_52\n      swap2\n      swap1\n      jump(tag_41)\n    tag_52:\n      mload(0x40)\n      dup1\n      swap2\n      sub\n      swap1\n      return\n        /* \"contracts/ddddd.sol\":1097:1124  address[] public doctorList */\n    tag_6:\n      callvalue\n        /* \"--CODEGEN--\":8:17   */\n      dup1\n        /* \"--CODEGEN--\":5:7   */\n      iszero\n      tag_53\n      jumpi\n        /* \"--CODEGEN--\":30:31   */\n      0x0\n        /* \"--CODEGEN--\":27:28   */\n      dup1\n        /* \"--CODEGEN--\":20:32   */\n      revert\n        /* \"--CODEGEN--\":5:7   */\n    tag_53:\n        /* \"contracts/ddddd.sol\":1097:1124  address[] public doctorList */\n      pop\n      tag_54\n      0x4\n      dup1\n      calldatasize\n      sub\n      tag_55\n      swap2\n      swap1\n      dup2\n      add\n      swap1\n      jump(tag_56)\n    tag_55:\n      jump(tag_57)\n    tag_54:\n      mload(0x40)\n      tag_58\n      swap2\n      swap1\n      jump(tag_59)\n    tag_58:\n      mload(0x40)\n      dup1\n      swap2\n      sub\n      swap1\n      return\n        /* \"contracts/ddddd.sol\":4580:5105  function editDoctor(address _doctor, string _uaeId, string _name, string _phone, string _gender, string _email, string _qualification, string _major) public {\r... */\n    tag_7:\n      callvalue\n        /* \"--CODEGEN--\":8:17   */\n      dup1\n        /* \"--CODEGEN--\":5:7   */\n      iszero\n      tag_60\n      jumpi\n        /* \"--CODEGEN--\":30:31   */\n      0x0\n        /* \"--CODEGEN--\":27:28   */\n      dup1\n        /* \"--CODEGEN--\":20:32   */\n      revert\n        /* \"--CODEGEN--\":5:7   */\n    tag_60:\n        /* \"contracts/ddddd.sol\":4580:5105  function editDoctor(address _doctor, string _uaeId, string _name, string _phone, string _gender, string _email, string _qualification, string _major) public {\r... */\n      pop\n      tag_61\n      0x4\n      dup1\n      calldatasize\n      sub\n      tag_62\n      swap2\n      swap1\n      dup2\n      add\n      swap1\n      jump(tag_63)\n    tag_62:\n      jump(tag_64)\n    tag_61:\n      stop\n        /* \"contracts/ddddd.sol\":3805:4572  function doctorRegistration(address _doctor, string _uaeId, string _name, string _phone, string _gender, string _email, string _qualification, string _major) public {\r... */\n    tag_8:\n      callvalue\n        /* \"--CODEGEN--\":8:17   */\n      dup1\n        /* \"--CODEGEN--\":5:7   */\n      iszero\n      tag_65\n      jumpi\n        /* \"--CODEGEN--\":30:31   */\n      0x0\n        /* \"--CODEGEN--\":27:28   */\n      dup1\n        /* \"--CODEGEN--\":20:32   */\n      revert\n        /* \"--CODEGEN--\":5:7   */\n    tag_65:\n        /* \"contracts/ddddd.sol\":3805:4572  function doctorRegistration(address _doctor, string _uaeId, string _name, string _phone, string _gender, string _email, string _qualification, string _major) public {\r... */\n      pop\n      tag_66\n      0x4\n      dup1\n      calldatasize\n      sub\n      tag_67\n      swap2\n      swap1\n      dup2\n      add\n      swap1\n      jump(tag_63)\n    tag_67:\n      jump(tag_68)\n    tag_66:\n      stop\n        /* \"contracts/ddddd.sol\":6366:6557  function givePermissionByUser(address _address) public returns(bool success) {\r... */\n    tag_9:\n      callvalue\n        /* \"--CODEGEN--\":8:17   */\n      dup1\n        /* \"--CODEGEN--\":5:7   */\n      iszero\n      tag_69\n      jumpi\n        /* \"--CODEGEN--\":30:31   */\n      0x0\n        /* \"--CODEGEN--\":27:28   */\n      dup1\n        /* \"--CODEGEN--\":20:32   */\n      revert\n        /* \"--CODEGEN--\":5:7   */\n    tag_69:\n        /* \"contracts/ddddd.sol\":6366:6557  function givePermissionByUser(address _address) public returns(bool success) {\r... */\n      pop\n      tag_70\n      0x4\n      dup1\n      calldatasize\n      sub\n      tag_71\n      swap2\n      swap1\n      dup2\n      add\n      swap1\n      jump(tag_45)\n    tag_71:\n      jump(tag_72)\n    tag_70:\n      mload(0x40)\n      tag_73\n      swap2\n      swap1\n      jump(tag_74)\n    tag_73:\n      mload(0x40)\n      dup1\n      swap2\n      sub\n      swap1\n      return\n        /* \"contracts/ddddd.sol\":5113:6020  function createVaccineRecord(address _address1, address _doctor, string _vaccine, string _description, string _typeOfVaccine, uint _creationDate) public returns(bool success) {\r... */\n    tag_10:\n      callvalue\n        /* \"--CODEGEN--\":8:17   */\n      dup1\n        /* \"--CODEGEN--\":5:7   */\n      iszero\n      tag_75\n      jumpi\n        /* \"--CODEGEN--\":30:31   */\n      0x0\n        /* \"--CODEGEN--\":27:28   */\n      dup1\n        /* \"--CODEGEN--\":20:32   */\n      revert\n        /* \"--CODEGEN--\":5:7   */\n    tag_75:\n        /* \"contracts/ddddd.sol\":5113:6020  function createVaccineRecord(address _address1, address _doctor, string _vaccine, string _description, string _typeOfVaccine, uint _creationDate) public returns(bool success) {\r... */\n      pop\n      tag_76\n      0x4\n      dup1\n      calldatasize\n      sub\n      tag_77\n      swap2\n      swap1\n      dup2\n      add\n      swap1\n      jump(tag_78)\n    tag_77:\n      jump(tag_79)\n    tag_76:\n      mload(0x40)\n      tag_80\n      swap2\n      swap1\n      jump(tag_74)\n    tag_80:\n      mload(0x40)\n      dup1\n      swap2\n      sub\n      swap1\n      return\n        /* \"contracts/ddddd.sol\":6827:6985  function userRevokePermission(address _address) public returns(bool success) {\r... */\n    tag_11:\n      callvalue\n        /* \"--CODEGEN--\":8:17   */\n      dup1\n        /* \"--CODEGEN--\":5:7   */\n      iszero\n      tag_81\n      jumpi\n        /* \"--CODEGEN--\":30:31   */\n      0x0\n        /* \"--CODEGEN--\":27:28   */\n      dup1\n        /* \"--CODEGEN--\":20:32   */\n      revert\n        /* \"--CODEGEN--\":5:7   */\n    tag_81:\n        /* \"contracts/ddddd.sol\":6827:6985  function userRevokePermission(address _address) public returns(bool success) {\r... */\n      pop\n      tag_82\n      0x4\n      dup1\n      calldatasize\n      sub\n      tag_83\n      swap2\n      swap1\n      dup2\n      add\n      swap1\n      jump(tag_45)\n    tag_83:\n      jump(tag_84)\n    tag_82:\n      mload(0x40)\n      tag_85\n      swap2\n      swap1\n      jump(tag_74)\n    tag_85:\n      mload(0x40)\n      dup1\n      swap2\n      sub\n      swap1\n      return\n        /* \"contracts/ddddd.sol\":2055:3164  function userRegistration(address _user, string _uaeId, string _name, string _phone, string _gender, string _dob, string _addr, string _email, string _nomineeName, string _nomineeContact) public {\r... */\n    tag_12:\n      callvalue\n        /* \"--CODEGEN--\":8:17   */\n      dup1\n        /* \"--CODEGEN--\":5:7   */\n      iszero\n      tag_86\n      jumpi\n        /* \"--CODEGEN--\":30:31   */\n      0x0\n        /* \"--CODEGEN--\":27:28   */\n      dup1\n        /* \"--CODEGEN--\":20:32   */\n      revert\n        /* \"--CODEGEN--\":5:7   */\n    tag_86:\n        /* \"contracts/ddddd.sol\":2055:3164  function userRegistration(address _user, string _uaeId, string _name, string _phone, string _gender, string _dob, string _addr, string _email, string _nomineeName, string _nomineeContact) public {\r... */\n      pop\n      tag_87\n      0x4\n      dup1\n      calldatasize\n      sub\n      tag_88\n      swap2\n      swap1\n      dup2\n      add\n      swap1\n      jump(tag_89)\n    tag_88:\n      jump(tag_90)\n    tag_87:\n      stop\n        /* \"contracts/ddddd.sol\":3188:3797  function editUser(address _user, string _uaeId, string _name, string _phone, string _gender, string _dob, string _addr, string _email, string _nomineeName, string _nomineeContact) public {\r... */\n    tag_13:\n      callvalue\n        /* \"--CODEGEN--\":8:17   */\n      dup1\n        /* \"--CODEGEN--\":5:7   */\n      iszero\n      tag_91\n      jumpi\n        /* \"--CODEGEN--\":30:31   */\n      0x0\n        /* \"--CODEGEN--\":27:28   */\n      dup1\n        /* \"--CODEGEN--\":20:32   */\n      revert\n        /* \"--CODEGEN--\":5:7   */\n    tag_91:\n        /* \"contracts/ddddd.sol\":3188:3797  function editUser(address _user, string _uaeId, string _name, string _phone, string _gender, string _dob, string _addr, string _email, string _nomineeName, string _nomineeContact) public {\r... */\n      pop\n      tag_92\n      0x4\n      dup1\n      calldatasize\n      sub\n      tag_93\n      swap2\n      swap1\n      dup2\n      add\n      swap1\n      jump(tag_89)\n    tag_93:\n      jump(tag_94)\n    tag_92:\n      stop\n        /* \"contracts/ddddd.sol\":1670:1700  uint256 public doctorCount = 0 */\n    tag_14:\n      callvalue\n        /* \"--CODEGEN--\":8:17   */\n      dup1\n        /* \"--CODEGEN--\":5:7   */\n      iszero\n      tag_95\n      jumpi\n        /* \"--CODEGEN--\":30:31   */\n      0x0\n        /* \"--CODEGEN--\":27:28   */\n      dup1\n        /* \"--CODEGEN--\":20:32   */\n      revert\n        /* \"--CODEGEN--\":5:7   */\n    tag_95:\n        /* \"contracts/ddddd.sol\":1670:1700  uint256 public doctorCount = 0 */\n      pop\n      tag_96\n      jump(tag_97)\n    tag_96:\n      mload(0x40)\n      tag_98\n      swap2\n      swap1\n      jump(tag_41)\n    tag_98:\n      mload(0x40)\n      dup1\n      swap2\n      sub\n      swap1\n      return\n        /* \"contracts/ddddd.sol\":8574:8666  function getDoctorCount() public view returns(uint256) {\r... */\n    tag_15:\n      callvalue\n        /* \"--CODEGEN--\":8:17   */\n      dup1\n        /* \"--CODEGEN--\":5:7   */\n      iszero\n      tag_99\n      jumpi\n        /* \"--CODEGEN--\":30:31   */\n      0x0\n        /* \"--CODEGEN--\":27:28   */\n      dup1\n        /* \"--CODEGEN--\":20:32   */\n      revert\n        /* \"--CODEGEN--\":5:7   */\n    tag_99:\n        /* \"contracts/ddddd.sol\":8574:8666  function getDoctorCount() public view returns(uint256) {\r... */\n      pop\n      tag_100\n      jump(tag_101)\n    tag_100:\n      mload(0x40)\n      tag_102\n      swap2\n      swap1\n      jump(tag_41)\n    tag_102:\n      mload(0x40)\n      dup1\n      swap2\n      sub\n      swap1\n      return\n        /* \"contracts/ddddd.sol\":8918:9224  function checkDoctor(address _address) public view returns(bool success) {\r... */\n    tag_16:\n      callvalue\n        /* \"--CODEGEN--\":8:17   */\n      dup1\n        /* \"--CODEGEN--\":5:7   */\n      iszero\n      tag_103\n      jumpi\n        /* \"--CODEGEN--\":30:31   */\n      0x0\n        /* \"--CODEGEN--\":27:28   */\n      dup1\n        /* \"--CODEGEN--\":20:32   */\n      revert\n        /* \"--CODEGEN--\":5:7   */\n    tag_103:\n        /* \"contracts/ddddd.sol\":8918:9224  function checkDoctor(address _address) public view returns(bool success) {\r... */\n      pop\n      tag_104\n      0x4\n      dup1\n      calldatasize\n      sub\n      tag_105\n      swap2\n      swap1\n      dup2\n      add\n      swap1\n      jump(tag_45)\n    tag_105:\n      jump(tag_106)\n    tag_104:\n      mload(0x40)\n      tag_107\n      swap2\n      swap1\n      jump(tag_74)\n    tag_107:\n      mload(0x40)\n      dup1\n      swap2\n      sub\n      swap1\n      return\n        /* \"contracts/ddddd.sol\":6028:6356  function getVaccinationInfo(address _address) public view returns(string, string, string, uint256, address, address) {\r... */\n    tag_17:\n      callvalue\n        /* \"--CODEGEN--\":8:17   */\n      dup1\n        /* \"--CODEGEN--\":5:7   */\n      iszero\n      tag_108\n      jumpi\n        /* \"--CODEGEN--\":30:31   */\n      0x0\n        /* \"--CODEGEN--\":27:28   */\n      dup1\n        /* \"--CODEGEN--\":20:32   */\n      revert\n        /* \"--CODEGEN--\":5:7   */\n    tag_108:\n        /* \"contracts/ddddd.sol\":6028:6356  function getVaccinationInfo(address _address) public view returns(string, string, string, uint256, address, address) {\r... */\n      pop\n      tag_109\n      0x4\n      dup1\n      calldatasize\n      sub\n      tag_110\n      swap2\n      swap1\n      dup2\n      add\n      swap1\n      jump(tag_45)\n    tag_110:\n      jump(tag_111)\n    tag_109:\n      mload(0x40)\n      tag_112\n      swap7\n      swap6\n      swap5\n      swap4\n      swap3\n      swap2\n      swap1\n      jump(tag_113)\n    tag_112:\n      mload(0x40)\n      dup1\n      swap2\n      sub\n      swap1\n      return\n        /* \"contracts/ddddd.sol\":1038:1058  address public owner */\n    tag_18:\n      callvalue\n        /* \"--CODEGEN--\":8:17   */\n      dup1\n        /* \"--CODEGEN--\":5:7   */\n      iszero\n      tag_114\n      jumpi\n        /* \"--CODEGEN--\":30:31   */\n      0x0\n        /* \"--CODEGEN--\":27:28   */\n      dup1\n        /* \"--CODEGEN--\":20:32   */\n      revert\n        /* \"--CODEGEN--\":5:7   */\n    tag_114:\n        /* \"contracts/ddddd.sol\":1038:1058  address public owner */\n      pop\n      tag_115\n      jump(tag_116)\n    tag_115:\n      mload(0x40)\n      tag_117\n      swap2\n      swap1\n      jump(tag_59)\n    tag_117:\n      mload(0x40)\n      dup1\n      swap2\n      sub\n      swap1\n      return\n        /* \"contracts/ddddd.sol\":1935:2043  function ownerAddress() public returns(address) {\r... */\n    tag_19:\n      callvalue\n        /* \"--CODEGEN--\":8:17   */\n      dup1\n        /* \"--CODEGEN--\":5:7   */\n      iszero\n      tag_118\n      jumpi\n        /* \"--CODEGEN--\":30:31   */\n      0x0\n        /* \"--CODEGEN--\":27:28   */\n      dup1\n        /* \"--CODEGEN--\":20:32   */\n      revert\n        /* \"--CODEGEN--\":5:7   */\n    tag_118:\n        /* \"contracts/ddddd.sol\":1935:2043  function ownerAddress() public returns(address) {\r... */\n      pop\n      tag_119\n      jump(tag_120)\n    tag_119:\n      mload(0x40)\n      tag_121\n      swap2\n      swap1\n      jump(tag_59)\n    tag_121:\n      mload(0x40)\n      dup1\n      swap2\n      sub\n      swap1\n      return\n        /* \"contracts/ddddd.sol\":1800:1844  uint256 public vaccinationRecordsCounter = 0 */\n    tag_20:\n      callvalue\n        /* \"--CODEGEN--\":8:17   */\n      dup1\n        /* \"--CODEGEN--\":5:7   */\n      iszero\n      tag_122\n      jumpi\n        /* \"--CODEGEN--\":30:31   */\n      0x0\n        /* \"--CODEGEN--\":27:28   */\n      dup1\n        /* \"--CODEGEN--\":20:32   */\n      revert\n        /* \"--CODEGEN--\":5:7   */\n    tag_122:\n        /* \"contracts/ddddd.sol\":1800:1844  uint256 public vaccinationRecordsCounter = 0 */\n      pop\n      tag_123\n      jump(tag_124)\n    tag_123:\n      mload(0x40)\n      tag_125\n      swap2\n      swap1\n      jump(tag_41)\n    tag_125:\n      mload(0x40)\n      dup1\n      swap2\n      sub\n      swap1\n      return\n        /* \"contracts/ddddd.sol\":1707:1746  uint256 public MoHPermissionCounter = 0 */\n    tag_21:\n      callvalue\n        /* \"--CODEGEN--\":8:17   */\n      dup1\n        /* \"--CODEGEN--\":5:7   */\n      iszero\n      tag_126\n      jumpi\n        /* \"--CODEGEN--\":30:31   */\n      0x0\n        /* \"--CODEGEN--\":27:28   */\n      dup1\n        /* \"--CODEGEN--\":20:32   */\n      revert\n        /* \"--CODEGEN--\":5:7   */\n    tag_126:\n        /* \"contracts/ddddd.sol\":1707:1746  uint256 public MoHPermissionCounter = 0 */\n      pop\n      tag_127\n      jump(tag_128)\n    tag_127:\n      mload(0x40)\n      tag_129\n      swap2\n      swap1\n      jump(tag_41)\n    tag_129:\n      mload(0x40)\n      dup1\n      swap2\n      sub\n      swap1\n      return\n        /* \"contracts/ddddd.sol\":1065:1090  address[] public userList */\n    tag_22:\n      callvalue\n        /* \"--CODEGEN--\":8:17   */\n      dup1\n        /* \"--CODEGEN--\":5:7   */\n      iszero\n      tag_130\n      jumpi\n        /* \"--CODEGEN--\":30:31   */\n      0x0\n        /* \"--CODEGEN--\":27:28   */\n      dup1\n        /* \"--CODEGEN--\":20:32   */\n      revert\n        /* \"--CODEGEN--\":5:7   */\n    tag_130:\n        /* \"contracts/ddddd.sol\":1065:1090  address[] public userList */\n      pop\n      tag_131\n      0x4\n      dup1\n      calldatasize\n      sub\n      tag_132\n      swap2\n      swap1\n      dup2\n      add\n      swap1\n      jump(tag_56)\n    tag_132:\n      jump(tag_133)\n    tag_131:\n      mload(0x40)\n      tag_134\n      swap2\n      swap1\n      jump(tag_59)\n    tag_134:\n      mload(0x40)\n      dup1\n      swap2\n      sub\n      swap1\n      return\n        /* \"contracts/ddddd.sol\":7318:7407  function getDoctors() public view returns(address[]) {\r... */\n    tag_23:\n      callvalue\n        /* \"--CODEGEN--\":8:17   */\n      dup1\n        /* \"--CODEGEN--\":5:7   */\n      iszero\n      tag_135\n      jumpi\n        /* \"--CODEGEN--\":30:31   */\n      0x0\n        /* \"--CODEGEN--\":27:28   */\n      dup1\n        /* \"--CODEGEN--\":20:32   */\n      revert\n        /* \"--CODEGEN--\":5:7   */\n    tag_135:\n        /* \"contracts/ddddd.sol\":7318:7407  function getDoctors() public view returns(address[]) {\r... */\n      pop\n      tag_136\n      jump(tag_137)\n    tag_136:\n      mload(0x40)\n      tag_138\n      swap2\n      swap1\n      jump(tag_36)\n    tag_138:\n      mload(0x40)\n      dup1\n      swap2\n      sub\n      swap1\n      return\n        /* \"contracts/ddddd.sol\":8478:8566  function getUserCount() public view returns(uint256) {\r... */\n    tag_24:\n      callvalue\n        /* \"--CODEGEN--\":8:17   */\n      dup1\n        /* \"--CODEGEN--\":5:7   */\n      iszero\n      tag_139\n      jumpi\n        /* \"--CODEGEN--\":30:31   */\n      0x0\n        /* \"--CODEGEN--\":27:28   */\n      dup1\n        /* \"--CODEGEN--\":20:32   */\n      revert\n        /* \"--CODEGEN--\":5:7   */\n    tag_139:\n        /* \"contracts/ddddd.sol\":8478:8566  function getUserCount() public view returns(uint256) {\r... */\n      pop\n      tag_140\n      jump(tag_141)\n    tag_140:\n      mload(0x40)\n      tag_142\n      swap2\n      swap1\n      jump(tag_41)\n    tag_142:\n      mload(0x40)\n      dup1\n      swap2\n      sub\n      swap1\n      return\n        /* \"contracts/ddddd.sol\":1853:1922  address public mohAdress = 0xc50C6297f56b033633C30354A854b074749cd2dC */\n    tag_25:\n      callvalue\n        /* \"--CODEGEN--\":8:17   */\n      dup1\n        /* \"--CODEGEN--\":5:7   */\n      iszero\n      tag_143\n      jumpi\n        /* \"--CODEGEN--\":30:31   */\n      0x0\n        /* \"--CODEGEN--\":27:28   */\n      dup1\n        /* \"--CODEGEN--\":20:32   */\n      revert\n        /* \"--CODEGEN--\":5:7   */\n    tag_143:\n        /* \"contracts/ddddd.sol\":1853:1922  address public mohAdress = 0xc50C6297f56b033633C30354A854b074749cd2dC */\n      pop\n      tag_144\n      jump(tag_145)\n    tag_144:\n      mload(0x40)\n      tag_146\n      swap2\n      swap1\n      jump(tag_59)\n    tag_146:\n      mload(0x40)\n      dup1\n      swap2\n      sub\n      swap1\n      return\n        /* \"contracts/ddddd.sol\":6993:7213  function MoHRevokePermission(address _address1, address _address2) public returns(bool success) {\r... */\n    tag_26:\n      callvalue\n        /* \"--CODEGEN--\":8:17   */\n      dup1\n        /* \"--CODEGEN--\":5:7   */\n      iszero\n      tag_147\n      jumpi\n        /* \"--CODEGEN--\":30:31   */\n      0x0\n        /* \"--CODEGEN--\":27:28   */\n      dup1\n        /* \"--CODEGEN--\":20:32   */\n      revert\n        /* \"--CODEGEN--\":5:7   */\n    tag_147:\n        /* \"contracts/ddddd.sol\":6993:7213  function MoHRevokePermission(address _address1, address _address2) public returns(bool success) {\r... */\n      pop\n      tag_148\n      0x4\n      dup1\n      calldatasize\n      sub\n      tag_149\n      swap2\n      swap1\n      dup2\n      add\n      swap1\n      jump(tag_150)\n    tag_149:\n      jump(tag_151)\n    tag_148:\n      mload(0x40)\n      tag_152\n      swap2\n      swap1\n      jump(tag_74)\n    tag_152:\n      mload(0x40)\n      dup1\n      swap2\n      sub\n      swap1\n      return\n        /* \"contracts/ddddd.sol\":1753:1793  uint256 public userPermissionCounter = 0 */\n    tag_27:\n      callvalue\n        /* \"--CODEGEN--\":8:17   */\n      dup1\n        /* \"--CODEGEN--\":5:7   */\n      iszero\n      tag_153\n      jumpi\n        /* \"--CODEGEN--\":30:31   */\n      0x0\n        /* \"--CODEGEN--\":27:28   */\n      dup1\n        /* \"--CODEGEN--\":20:32   */\n      revert\n        /* \"--CODEGEN--\":5:7   */\n    tag_153:\n        /* \"contracts/ddddd.sol\":1753:1793  uint256 public userPermissionCounter = 0 */\n      pop\n      tag_154\n      jump(tag_155)\n    tag_154:\n      mload(0x40)\n      tag_156\n      swap2\n      swap1\n      jump(tag_41)\n    tag_156:\n      mload(0x40)\n      dup1\n      swap2\n      sub\n      swap1\n      return\n        /* \"contracts/ddddd.sol\":8114:8462  function searchDoctor(address _address) public view returns(string, string, string, string, string, string, string) {\r... */\n    tag_28:\n      callvalue\n        /* \"--CODEGEN--\":8:17   */\n      dup1\n        /* \"--CODEGEN--\":5:7   */\n      iszero\n      tag_157\n      jumpi\n        /* \"--CODEGEN--\":30:31   */\n      0x0\n        /* \"--CODEGEN--\":27:28   */\n      dup1\n        /* \"--CODEGEN--\":20:32   */\n      revert\n        /* \"--CODEGEN--\":5:7   */\n    tag_157:\n        /* \"contracts/ddddd.sol\":8114:8462  function searchDoctor(address _address) public view returns(string, string, string, string, string, string, string) {\r... */\n      pop\n      tag_158\n      0x4\n      dup1\n      calldatasize\n      sub\n      tag_159\n      swap2\n      swap1\n      dup2\n      add\n      swap1\n      jump(tag_45)\n    tag_159:\n      jump(tag_160)\n    tag_158:\n      mload(0x40)\n      tag_161\n      swap8\n      swap7\n      swap6\n      swap5\n      swap4\n      swap3\n      swap2\n      swap1\n      jump(tag_162)\n    tag_161:\n      mload(0x40)\n      dup1\n      swap2\n      sub\n      swap1\n      return\n        /* \"contracts/ddddd.sol\":6565:6817  function givePermissionByMoH(address _address1, address _address2) public returns(bool success) {\r... */\n    tag_29:\n      callvalue\n        /* \"--CODEGEN--\":8:17   */\n      dup1\n        /* \"--CODEGEN--\":5:7   */\n      iszero\n      tag_163\n      jumpi\n        /* \"--CODEGEN--\":30:31   */\n      0x0\n        /* \"--CODEGEN--\":27:28   */\n      dup1\n        /* \"--CODEGEN--\":20:32   */\n      revert\n        /* \"--CODEGEN--\":5:7   */\n    tag_163:\n        /* \"contracts/ddddd.sol\":6565:6817  function givePermissionByMoH(address _address1, address _address2) public returns(bool success) {\r... */\n      pop\n      tag_164\n      0x4\n      dup1\n      calldatasize\n      sub\n      tag_165\n      swap2\n      swap1\n      dup2\n      add\n      swap1\n      jump(tag_150)\n    tag_165:\n      jump(tag_166)\n    tag_164:\n      mload(0x40)\n      tag_167\n      swap2\n      swap1\n      jump(tag_74)\n    tag_167:\n      mload(0x40)\n      dup1\n      swap2\n      sub\n      swap1\n      return\n        /* \"contracts/ddddd.sol\":8800:8910  function getMoHPermissionCounter() public view returns(uint256) {\r... */\n    tag_30:\n      callvalue\n        /* \"--CODEGEN--\":8:17   */\n      dup1\n        /* \"--CODEGEN--\":5:7   */\n      iszero\n      tag_168\n      jumpi\n        /* \"--CODEGEN--\":30:31   */\n      0x0\n        /* \"--CODEGEN--\":27:28   */\n      dup1\n        /* \"--CODEGEN--\":20:32   */\n      revert\n        /* \"--CODEGEN--\":5:7   */\n    tag_168:\n        /* \"contracts/ddddd.sol\":8800:8910  function getMoHPermissionCounter() public view returns(uint256) {\r... */\n      pop\n      tag_169\n      jump(tag_170)\n    tag_169:\n      mload(0x40)\n      tag_171\n      swap2\n      swap1\n      jump(tag_41)\n    tag_171:\n      mload(0x40)\n      dup1\n      swap2\n      sub\n      swap1\n      return\n        /* \"contracts/ddddd.sol\":1131:1163  address[] public vaccinationList */\n    tag_31:\n      callvalue\n        /* \"--CODEGEN--\":8:17   */\n      dup1\n        /* \"--CODEGEN--\":5:7   */\n      iszero\n      tag_172\n      jumpi\n        /* \"--CODEGEN--\":30:31   */\n      0x0\n        /* \"--CODEGEN--\":27:28   */\n      dup1\n        /* \"--CODEGEN--\":20:32   */\n      revert\n        /* \"--CODEGEN--\":5:7   */\n    tag_172:\n        /* \"contracts/ddddd.sol\":1131:1163  address[] public vaccinationList */\n      pop\n      tag_173\n      0x4\n      dup1\n      calldatasize\n      sub\n      tag_174\n      swap2\n      swap1\n      dup2\n      add\n      swap1\n      jump(tag_56)\n    tag_174:\n      jump(tag_175)\n    tag_173:\n      mload(0x40)\n      tag_176\n      swap2\n      swap1\n      jump(tag_59)\n    tag_176:\n      mload(0x40)\n      dup1\n      swap2\n      sub\n      swap1\n      return\n        /* \"contracts/ddddd.sol\":7223:7308  function getUsers() public view returns(address[]) {\r... */\n    tag_34:\n        /* \"contracts/ddddd.sol\":7263:7272  address[] */\n      0x60\n        /* \"contracts/ddddd.sol\":7292:7300  userList */\n      0x1\n        /* \"contracts/ddddd.sol\":7285:7300  return userList */\n      dup1\n      sload\n      dup1\n      0x20\n      mul\n      0x20\n      add\n      mload(0x40)\n      swap1\n      dup2\n      add\n      0x40\n      mstore\n      dup1\n      swap3\n      swap2\n      swap1\n      dup2\n      dup2\n      mstore\n      0x20\n      add\n      dup3\n      dup1\n      sload\n      dup1\n      iszero\n      tag_178\n      jumpi\n      0x20\n      mul\n      dup3\n      add\n      swap2\n      swap1\n      0x0\n      mstore\n      keccak256(0x0, 0x20)\n      swap1\n    tag_179:\n      dup2\n      0x0\n      swap1\n      sload\n      swap1\n      0x100\n      exp\n      swap1\n      div\n      0xffffffffffffffffffffffffffffffffffffffff\n      and\n      0xffffffffffffffffffffffffffffffffffffffff\n      and\n      dup2\n      mstore\n      0x20\n      add\n      swap1\n      0x1\n      add\n      swap1\n      dup1\n      dup4\n      gt\n      tag_179\n      jumpi\n    tag_178:\n      pop\n      pop\n      pop\n      pop\n      pop\n      swap1\n      pop\n        /* \"contracts/ddddd.sol\":7223:7308  function getUsers() public view returns(address[]) {\r... */\n      swap1\n      jump\t// out\n        /* \"contracts/ddddd.sol\":8680:8792  function getUserPermissionCounter() public view returns(uint256) {\r... */\n    tag_39:\n        /* \"contracts/ddddd.sol\":8736:8743  uint256 */\n      0x0\n        /* \"contracts/ddddd.sol\":8763:8784  userPermissionCounter */\n      sload(0xe)\n        /* \"contracts/ddddd.sol\":8756:8784  return userPermissionCounter */\n      swap1\n      pop\n        /* \"contracts/ddddd.sol\":8680:8792  function getUserPermissionCounter() public view returns(uint256) {\r... */\n      swap1\n      jump\t// out\n        /* \"contracts/ddddd.sol\":7419:7793  function searchUserformation(address _address) public view returns(string, string, string, string, string, string, string, address) {\r... */\n    tag_46:\n        /* \"contracts/ddddd.sol\":7486:7492  string */\n      0x60\n        /* \"contracts/ddddd.sol\":7494:7500  string */\n      dup1\n        /* \"contracts/ddddd.sol\":7502:7508  string */\n      0x60\n        /* \"contracts/ddddd.sol\":7510:7516  string */\n      dup1\n        /* \"contracts/ddddd.sol\":7518:7524  string */\n      0x60\n        /* \"contracts/ddddd.sol\":7526:7532  string */\n      dup1\n        /* \"contracts/ddddd.sol\":7534:7540  string */\n      0x60\n        /* \"contracts/ddddd.sol\":7542:7549  address */\n      0x0\n        /* \"contracts/ddddd.sol\":7614:7619  var u */\n      dup1\n        /* \"contracts/ddddd.sol\":7570:7580  isApproved */\n      0x7\n        /* \"contracts/ddddd.sol\":7570:7590  isApproved[_address] */\n      0x0\n        /* \"contracts/ddddd.sol\":7581:7589  _address */\n      dup12\n        /* \"contracts/ddddd.sol\":7570:7590  isApproved[_address] */\n      0xffffffffffffffffffffffffffffffffffffffff\n      and\n      0xffffffffffffffffffffffffffffffffffffffff\n      and\n      dup2\n      mstore\n      0x20\n      add\n      swap1\n      dup2\n      mstore\n      0x20\n      add\n      0x0\n      keccak256\n        /* \"contracts/ddddd.sol\":7570:7602  isApproved[_address][msg.sender] */\n      0x0\n        /* \"contracts/ddddd.sol\":7591:7601  msg.sender */\n      caller\n        /* \"contracts/ddddd.sol\":7570:7602  isApproved[_address][msg.sender] */\n      0xffffffffffffffffffffffffffffffffffffffff\n      and\n      0xffffffffffffffffffffffffffffffffffffffff\n      and\n      dup2\n      mstore\n      0x20\n      add\n      swap1\n      dup2\n      mstore\n      0x20\n      add\n      0x0\n      keccak256\n      0x0\n      swap1\n      sload\n      swap1\n      0x100\n      exp\n      swap1\n      div\n      0xff\n      and\n        /* \"contracts/ddddd.sol\":7562:7603  require(isApproved[_address][msg.sender]) */\n      iszero\n      iszero\n      tag_182\n      jumpi\n      0x0\n      dup1\n      revert\n    tag_182:\n        /* \"contracts/ddddd.sol\":7622:7626  user */\n      0x4\n        /* \"contracts/ddddd.sol\":7622:7636  user[_address] */\n      0x0\n        /* \"contracts/ddddd.sol\":7627:7635  _address */\n      dup12\n        /* \"contracts/ddddd.sol\":7622:7636  user[_address] */\n      0xffffffffffffffffffffffffffffffffffffffff\n      and\n      0xffffffffffffffffffffffffffffffffffffffff\n      and\n      dup2\n      mstore\n      0x20\n      add\n      swap1\n      dup2\n      mstore\n      0x20\n      add\n      0x0\n      keccak256\n        /* \"contracts/ddddd.sol\":7614:7636  var u = user[_address] */\n      swap1\n      pop\n        /* \"contracts/ddddd.sol\":7655:7656  u */\n      dup1\n        /* \"contracts/ddddd.sol\":7655:7662  u.uaeId */\n      0x0\n      add\n        /* \"contracts/ddddd.sol\":7664:7665  u */\n      dup2\n        /* \"contracts/ddddd.sol\":7664:7670  u.name */\n      0x1\n      add\n        /* \"contracts/ddddd.sol\":7672:7673  u */\n      dup3\n        /* \"contracts/ddddd.sol\":7672:7679  u.email */\n      0x6\n      add\n        /* \"contracts/ddddd.sol\":7681:7682  u */\n      dup4\n        /* \"contracts/ddddd.sol\":7681:7688  u.phone */\n      0x2\n      add\n        /* \"contracts/ddddd.sol\":7690:7691  u */\n      dup5\n        /* \"contracts/ddddd.sol\":7690:7698  u.gender */\n      0x3\n      add\n        /* \"contracts/ddddd.sol\":7700:7701  u */\n      dup6\n        /* \"contracts/ddddd.sol\":7700:7705  u.dob */\n      0x4\n      add\n        /* \"contracts/ddddd.sol\":7707:7708  u */\n      dup7\n        /* \"contracts/ddddd.sol\":7707:7713  u.addr */\n      0x5\n      add\n        /* \"contracts/ddddd.sol\":7715:7716  u */\n      dup8\n        /* \"contracts/ddddd.sol\":7715:7725  u.eAddress */\n      0x9\n      add\n      0x0\n      swap1\n      sload\n      swap1\n      0x100\n      exp\n      swap1\n      div\n      0xffffffffffffffffffffffffffffffffffffffff\n      and\n        /* \"contracts/ddddd.sol\":7647:7726  return (u.uaeId, u.name, u.email, u.phone, u.gender, u.dob, u.addr, u.eAddress) */\n      dup8\n      dup1\n      sload\n      0x1\n      dup2\n      0x1\n      and\n      iszero\n      0x100\n      mul\n      sub\n      and\n      0x2\n      swap1\n      div\n      dup1\n      0x1f\n      add\n      0x20\n      dup1\n      swap2\n      div\n      mul\n      0x20\n      add\n      mload(0x40)\n      swap1\n      dup2\n      add\n      0x40\n      mstore\n      dup1\n      swap3\n      swap2\n      swap1\n      dup2\n      dup2\n      mstore\n      0x20\n      add\n      dup3\n      dup1\n      sload\n      0x1\n      dup2\n      0x1\n      and\n      iszero\n      0x100\n      mul\n      sub\n      and\n      0x2\n      swap1\n      div\n      dup1\n      iszero\n      tag_183\n      jumpi\n      dup1\n      0x1f\n      lt\n      tag_184\n      jumpi\n      0x100\n      dup1\n      dup4\n      sload\n      div\n      mul\n      dup4\n      mstore\n      swap2\n      0x20\n      add\n      swap2\n      jump(tag_183)\n    tag_184:\n      dup3\n      add\n      swap2\n      swap1\n      0x0\n      mstore\n      keccak256(0x0, 0x20)\n      swap1\n    tag_185:\n      dup2\n      sload\n      dup2\n      mstore\n      swap1\n      0x1\n      add\n      swap1\n      0x20\n      add\n      dup1\n      dup4\n      gt\n      tag_185\n      jumpi\n      dup3\n      swap1\n      sub\n      0x1f\n      and\n      dup3\n      add\n      swap2\n    tag_183:\n      pop\n      pop\n      pop\n      pop\n      pop\n      swap8\n      pop\n      dup7\n      dup1\n      sload\n      0x1\n      dup2\n      0x1\n      and\n      iszero\n      0x100\n      mul\n      sub\n      and\n      0x2\n      swap1\n      div\n      dup1\n      0x1f\n      add\n      0x20\n      dup1\n      swap2\n      div\n      mul\n      0x20\n      add\n      mload(0x40)\n      swap1\n      dup2\n      add\n      0x40\n      mstore\n      dup1\n      swap3\n      swap2\n      swap1\n      dup2\n      dup2\n      mstore\n      0x20\n      add\n      dup3\n      dup1\n      sload\n      0x1\n      dup2\n      0x1\n      and\n      iszero\n      0x100\n      mul\n      sub\n      and\n      0x2\n      swap1\n      div\n      dup1\n      iszero\n      tag_186\n      jumpi\n      dup1\n      0x1f\n      lt\n      tag_187\n      jumpi\n      0x100\n      dup1\n      dup4\n      sload\n      div\n      mul\n      dup4\n      mstore\n      swap2\n      0x20\n      add\n      swap2\n      jump(tag_186)\n    tag_187:\n      dup3\n      add\n      swap2\n      swap1\n      0x0\n      mstore\n      keccak256(0x0, 0x20)\n      swap1\n    tag_188:\n      dup2\n      sload\n      dup2\n      mstore\n      swap1\n      0x1\n      add\n      swap1\n      0x20\n      add\n      dup1\n      dup4\n      gt\n      tag_188\n      jumpi\n      dup3\n      swap1\n      sub\n      0x1f\n      and\n      dup3\n      add\n      swap2\n    tag_186:\n      pop\n      pop\n      pop\n      pop\n      pop\n      swap7\n      pop\n      dup6\n      dup1\n      sload\n      0x1\n      dup2\n      0x1\n      and\n      iszero\n      0x100\n      mul\n      sub\n      and\n      0x2\n      swap1\n      div\n      dup1\n      0x1f\n      add\n      0x20\n      dup1\n      swap2\n      div\n      mul\n      0x20\n      add\n      mload(0x40)\n      swap1\n      dup2\n      add\n      0x40\n      mstore\n      dup1\n      swap3\n      swap2\n      swap1\n      dup2\n      dup2\n      mstore\n      0x20\n      add\n      dup3\n      dup1\n      sload\n      0x1\n      dup2\n      0x1\n      and\n      iszero\n      0x100\n      mul\n      sub\n      and\n      0x2\n      swap1\n      div\n      dup1\n      iszero\n      tag_189\n      jumpi\n      dup1\n      0x1f\n      lt\n      tag_190\n      jumpi\n      0x100\n      dup1\n      dup4\n      sload\n      div\n      mul\n      dup4\n      mstore\n      swap2\n      0x20\n      add\n      swap2\n      jump(tag_189)\n    tag_190:\n      dup3\n      add\n      swap2\n      swap1\n      0x0\n      mstore\n      keccak256(0x0, 0x20)\n      swap1\n    tag_191:\n      dup2\n      sload\n      dup2\n      mstore\n      swap1\n      0x1\n      add\n      swap1\n      0x20\n      add\n      dup1\n      dup4\n      gt\n      tag_191\n      jumpi\n      dup3\n      swap1\n      sub\n      0x1f\n      and\n      dup3\n      add\n      swap2\n    tag_189:\n      pop\n      pop\n      pop\n      pop\n      pop\n      swap6\n      pop\n      dup5\n      dup1\n      sload\n      0x1\n      dup2\n      0x1\n      and\n      iszero\n      0x100\n      mul\n      sub\n      and\n      0x2\n      swap1\n      div\n      dup1\n      0x1f\n      add\n      0x20\n      dup1\n      swap2\n      div\n      mul\n      0x20\n      add\n      mload(0x40)\n      swap1\n      dup2\n      add\n      0x40\n      mstore\n      dup1\n      swap3\n      swap2\n      swap1\n      dup2\n      dup2\n      mstore\n      0x20\n      add\n      dup3\n      dup1\n      sload\n      0x1\n      dup2\n      0x1\n      and\n      iszero\n      0x100\n      mul\n      sub\n      and\n      0x2\n      swap1\n      div\n      dup1\n      iszero\n      tag_192\n      jumpi\n      dup1\n      0x1f\n      lt\n      tag_193\n      jumpi\n      0x100\n      dup1\n      dup4\n      sload\n      div\n      mul\n      dup4\n      mstore\n      swap2\n      0x20\n      add\n      swap2\n      jump(tag_192)\n    tag_193:\n      dup3\n      add\n      swap2\n      swap1\n      0x0\n      mstore\n      keccak256(0x0, 0x20)\n      swap1\n    tag_194:\n      dup2\n      sload\n      dup2\n      mstore\n      swap1\n      0x1\n      add\n      swap1\n      0x20\n      add\n      dup1\n      dup4\n      gt\n      tag_194\n      jumpi\n      dup3\n      swap1\n      sub\n      0x1f\n      and\n      dup3\n      add\n      swap2\n    tag_192:\n      pop\n      pop\n      pop\n      pop\n      pop\n      swap5\n      pop\n      dup4\n      dup1\n      sload\n      0x1\n      dup2\n      0x1\n      and\n      iszero\n      0x100\n      mul\n      sub\n      and\n      0x2\n      swap1\n      div\n      dup1\n      0x1f\n      add\n      0x20\n      dup1\n      swap2\n      div\n      mul\n      0x20\n      add\n      mload(0x40)\n      swap1\n      dup2\n      add\n      0x40\n      mstore\n      dup1\n      swap3\n      swap2\n      swap1\n      dup2\n      dup2\n      mstore\n      0x20\n      add\n      dup3\n      dup1\n      sload\n      0x1\n      dup2\n      0x1\n      and\n      iszero\n      0x100\n      mul\n      sub\n      and\n      0x2\n      swap1\n      div\n      dup1\n      iszero\n      tag_195\n      jumpi\n      dup1\n      0x1f\n      lt\n      tag_196\n      jumpi\n      0x100\n      dup1\n      dup4\n      sload\n      div\n      mul\n      dup4\n      mstore\n      swap2\n      0x20\n      add\n      swap2\n      jump(tag_195)\n    tag_196:\n      dup3\n      add\n      swap2\n      swap1\n      0x0\n      mstore\n      keccak256(0x0, 0x20)\n      swap1\n    tag_197:\n      dup2\n      sload\n      dup2\n      mstore\n      swap1\n      0x1\n      add\n      swap1\n      0x20\n      add\n      dup1\n      dup4\n      gt\n      tag_197\n      jumpi\n      dup3\n      swap1\n      sub\n      0x1f\n      and\n      dup3\n      add\n      swap2\n    tag_195:\n      pop\n      pop\n      pop\n      pop\n      pop\n      swap4\n      pop\n      dup3\n      dup1\n      sload\n      0x1\n      dup2\n      0x1\n      and\n      iszero\n      0x100\n      mul\n      sub\n      and\n      0x2\n      swap1\n      div\n      dup1\n      0x1f\n      add\n      0x20\n      dup1\n      swap2\n      div\n      mul\n      0x20\n      add\n      mload(0x40)\n      swap1\n      dup2\n      add\n      0x40\n      mstore\n      dup1\n      swap3\n      swap2\n      swap1\n      dup2\n      dup2\n      mstore\n      0x20\n      add\n      dup3\n      dup1\n      sload\n      0x1\n      dup2\n      0x1\n      and\n      iszero\n      0x100\n      mul\n      sub\n      and\n      0x2\n      swap1\n      div\n      dup1\n      iszero\n      tag_198\n      jumpi\n      dup1\n      0x1f\n      lt\n      tag_199\n      jumpi\n      0x100\n      dup1\n      dup4\n      sload\n      div\n      mul\n      dup4\n      mstore\n      swap2\n      0x20\n      add\n      swap2\n      jump(tag_198)\n    tag_199:\n      dup3\n      add\n      swap2\n      swap1\n      0x0\n      mstore\n      keccak256(0x0, 0x20)\n      swap1\n    tag_200:\n      dup2\n      sload\n      dup2\n      mstore\n      swap1\n      0x1\n      add\n      swap1\n      0x20\n      add\n      dup1\n      dup4\n      gt\n      tag_200\n      jumpi\n      dup3\n      swap1\n      sub\n      0x1f\n      and\n      dup3\n      add\n      swap2\n    tag_198:\n      pop\n      pop\n      pop\n      pop\n      pop\n      swap3\n      pop\n      dup2\n      dup1\n      sload\n      0x1\n      dup2\n      0x1\n      and\n      iszero\n      0x100\n      mul\n      sub\n      and\n      0x2\n      swap1\n      div\n      dup1\n      0x1f\n      add\n      0x20\n      dup1\n      swap2\n      div\n      mul\n      0x20\n      add\n      mload(0x40)\n      swap1\n      dup2\n      add\n      0x40\n      mstore\n      dup1\n      swap3\n      swap2\n      swap1\n      dup2\n      dup2\n      mstore\n      0x20\n      add\n      dup3\n      dup1\n      sload\n      0x1\n      dup2\n      0x1\n      and\n      iszero\n      0x100\n      mul\n      sub\n      and\n      0x2\n      swap1\n      div\n      dup1\n      iszero\n      tag_201\n      jumpi\n      dup1\n      0x1f\n      lt\n      tag_202\n      jumpi\n      0x100\n      dup1\n      dup4\n      sload\n      div\n      mul\n      dup4\n      mstore\n      swap2\n      0x20\n      add\n      swap2\n      jump(tag_201)\n    tag_202:\n      dup3\n      add\n      swap2\n      swap1\n      0x0\n      mstore\n      keccak256(0x0, 0x20)\n      swap1\n    tag_203:\n      dup2\n      sload\n      dup2\n      mstore\n      swap1\n      0x1\n      add\n      swap1\n      0x20\n      add\n      dup1\n      dup4\n      gt\n      tag_203\n      jumpi\n      dup3\n      swap1\n      sub\n      0x1f\n      and\n      dup3\n      add\n      swap2\n    tag_201:\n      pop\n      pop\n      pop\n      pop\n      pop\n      swap2\n      pop\n      swap9\n      pop\n      swap9\n      pop\n      swap9\n      pop\n      swap9\n      pop\n      swap9\n      pop\n      swap9\n      pop\n      swap9\n      pop\n      swap9\n      pop\n        /* \"contracts/ddddd.sol\":7419:7793  function searchUserformation(address _address) public view returns(string, string, string, string, string, string, string, address) {\r... */\n      pop\n      swap2\n      swap4\n      swap6\n      swap8\n      pop\n      swap2\n      swap4\n      swap6\n      swap8\n      jump\t// out\n        /* \"contracts/ddddd.sol\":1635:1663  uint256 public userCount = 0 */\n    tag_51:\n      sload(0xb)\n      dup2\n      jump\t// out\n        /* \"contracts/ddddd.sol\":1097:1124  address[] public doctorList */\n    tag_57:\n      0x2\n      dup2\n      dup2\n      sload\n      dup2\n      lt\n      iszero\n      iszero\n      tag_204\n      jumpi\n      invalid\n    tag_204:\n      swap1\n      0x0\n      mstore\n      keccak256(0x0, 0x20)\n      add\n      0x0\n      swap2\n      pop\n      sload\n      swap1\n      0x100\n      exp\n      swap1\n      div\n      0xffffffffffffffffffffffffffffffffffffffff\n      and\n      dup2\n      jump\t// out\n        /* \"contracts/ddddd.sol\":4580:5105  function editDoctor(address _doctor, string _uaeId, string _name, string _phone, string _gender, string _email, string _qualification, string _major) public {\r... */\n    tag_64:\n        /* \"contracts/ddddd.sol\":4828:4833  var d */\n      0x0\n        /* \"contracts/ddddd.sol\":4770:4779  mohAdress */\n      0x10\n      0x0\n      swap1\n      sload\n      swap1\n      0x100\n      exp\n      swap1\n      div\n      0xffffffffffffffffffffffffffffffffffffffff\n      and\n        /* \"contracts/ddddd.sol\":4756:4779  msg.sender == mohAdress */\n      0xffffffffffffffffffffffffffffffffffffffff\n      and\n        /* \"contracts/ddddd.sol\":4756:4766  msg.sender */\n      caller\n        /* \"contracts/ddddd.sol\":4756:4779  msg.sender == mohAdress */\n      0xffffffffffffffffffffffffffffffffffffffff\n      and\n      eq\n        /* \"contracts/ddddd.sol\":4748:4780  require(msg.sender == mohAdress) */\n      iszero\n      iszero\n      tag_207\n      jumpi\n      0x0\n      dup1\n      revert\n    tag_207:\n        /* \"contracts/ddddd.sol\":4799:4807  isDoctor */\n      0x9\n        /* \"contracts/ddddd.sol\":4799:4816  isDoctor[_doctor] */\n      0x0\n        /* \"contracts/ddddd.sol\":4808:4815  _doctor */\n      dup11\n        /* \"contracts/ddddd.sol\":4799:4816  isDoctor[_doctor] */\n      0xffffffffffffffffffffffffffffffffffffffff\n      and\n      0xffffffffffffffffffffffffffffffffffffffff\n      and\n      dup2\n      mstore\n      0x20\n      add\n      swap1\n      dup2\n      mstore\n      0x20\n      add\n      0x0\n      keccak256\n      0x0\n      swap1\n      sload\n      swap1\n      0x100\n      exp\n      swap1\n      div\n      0xff\n      and\n        /* \"contracts/ddddd.sol\":4791:4817  require(isDoctor[_doctor]) */\n      iszero\n      iszero\n      tag_208\n      jumpi\n      0x0\n      dup1\n      revert\n    tag_208:\n        /* \"contracts/ddddd.sol\":4836:4842  doctor */\n      0x5\n        /* \"contracts/ddddd.sol\":4836:4851  doctor[_doctor] */\n      0x0\n        /* \"contracts/ddddd.sol\":4843:4850  _doctor */\n      dup11\n        /* \"contracts/ddddd.sol\":4836:4851  doctor[_doctor] */\n      0xffffffffffffffffffffffffffffffffffffffff\n      and\n      0xffffffffffffffffffffffffffffffffffffffff\n      and\n      dup2\n      mstore\n      0x20\n      add\n      swap1\n      dup2\n      mstore\n      0x20\n      add\n      0x0\n      keccak256\n        /* \"contracts/ddddd.sol\":4828:4851  var d = doctor[_doctor] */\n      swap1\n      pop\n        /* \"contracts/ddddd.sol\":4882:4888  _uaeId */\n      dup8\n        /* \"contracts/ddddd.sol\":4872:4873  d */\n      dup2\n        /* \"contracts/ddddd.sol\":4872:4879  d.uaeId */\n      0x0\n      add\n        /* \"contracts/ddddd.sol\":4872:4888  d.uaeId = _uaeId */\n      swap1\n      dup1\n      mload\n      swap1\n      0x20\n      add\n      swap1\n      tag_209\n      swap3\n      swap2\n      swap1\n      jump\t// in(tag_210)\n    tag_209:\n      pop\n        /* \"contracts/ddddd.sol\":4908:4913  _name */\n      dup7\n        /* \"contracts/ddddd.sol\":4899:4900  d */\n      dup2\n        /* \"contracts/ddddd.sol\":4899:4905  d.name */\n      0x1\n      add\n        /* \"contracts/ddddd.sol\":4899:4913  d.name = _name */\n      swap1\n      dup1\n      mload\n      swap1\n      0x20\n      add\n      swap1\n      tag_211\n      swap3\n      swap2\n      swap1\n      jump\t// in(tag_210)\n    tag_211:\n      pop\n        /* \"contracts/ddddd.sol\":4934:4940  _phone */\n      dup6\n        /* \"contracts/ddddd.sol\":4924:4925  d */\n      dup2\n        /* \"contracts/ddddd.sol\":4924:4931  d.phone */\n      0x2\n      add\n        /* \"contracts/ddddd.sol\":4924:4940  d.phone = _phone */\n      swap1\n      dup1\n      mload\n      swap1\n      0x20\n      add\n      swap1\n      tag_212\n      swap3\n      swap2\n      swap1\n      jump\t// in(tag_210)\n    tag_212:\n      pop\n        /* \"contracts/ddddd.sol\":4962:4969  _gender */\n      dup5\n        /* \"contracts/ddddd.sol\":4951:4952  d */\n      dup2\n        /* \"contracts/ddddd.sol\":4951:4959  d.gender */\n      0x3\n      add\n        /* \"contracts/ddddd.sol\":4951:4969  d.gender = _gender */\n      swap1\n      dup1\n      mload\n      swap1\n      0x20\n      add\n      swap1\n      tag_213\n      swap3\n      swap2\n      swap1\n      jump\t// in(tag_210)\n    tag_213:\n      pop\n        /* \"contracts/ddddd.sol\":4990:4996  _email */\n      dup4\n        /* \"contracts/ddddd.sol\":4980:4981  d */\n      dup2\n        /* \"contracts/ddddd.sol\":4980:4987  d.email */\n      0x5\n      add\n        /* \"contracts/ddddd.sol\":4980:4996  d.email = _email */\n      swap1\n      dup1\n      mload\n      swap1\n      0x20\n      add\n      swap1\n      tag_214\n      swap3\n      swap2\n      swap1\n      jump\t// in(tag_210)\n    tag_214:\n      pop\n        /* \"contracts/ddddd.sol\":5025:5039  _qualification */\n      dup3\n        /* \"contracts/ddddd.sol\":5007:5008  d */\n      dup2\n        /* \"contracts/ddddd.sol\":5007:5022  d.qualification */\n      0x6\n      add\n        /* \"contracts/ddddd.sol\":5007:5039  d.qualification = _qualification */\n      swap1\n      dup1\n      mload\n      swap1\n      0x20\n      add\n      swap1\n      tag_215\n      swap3\n      swap2\n      swap1\n      jump\t// in(tag_210)\n    tag_215:\n      pop\n        /* \"contracts/ddddd.sol\":5060:5066  _major */\n      dup2\n        /* \"contracts/ddddd.sol\":5050:5051  d */\n      dup2\n        /* \"contracts/ddddd.sol\":5050:5057  d.major */\n      0x7\n      add\n        /* \"contracts/ddddd.sol\":5050:5066  d.major = _major */\n      swap1\n      dup1\n      mload\n      swap1\n      0x20\n      add\n      swap1\n      tag_216\n      swap3\n      swap2\n      swap1\n      jump\t// in(tag_210)\n    tag_216:\n      pop\n        /* \"contracts/ddddd.sol\":5090:5097  _doctor */\n      dup9\n        /* \"contracts/ddddd.sol\":5077:5078  d */\n      dup2\n        /* \"contracts/ddddd.sol\":5077:5087  d.eAddress */\n      0x8\n      add\n      0x0\n        /* \"contracts/ddddd.sol\":5077:5097  d.eAddress = _doctor */\n      0x100\n      exp\n      dup2\n      sload\n      dup2\n      0xffffffffffffffffffffffffffffffffffffffff\n      mul\n      not\n      and\n      swap1\n      dup4\n      0xffffffffffffffffffffffffffffffffffffffff\n      and\n      mul\n      or\n      swap1\n      sstore\n      pop\n        /* \"contracts/ddddd.sol\":4580:5105  function editDoctor(address _doctor, string _uaeId, string _name, string _phone, string _gender, string _email, string _qualification, string _major) public {\r... */\n      pop\n      pop\n      pop\n      pop\n      pop\n      pop\n      pop\n      pop\n      pop\n      jump\t// out\n        /* \"contracts/ddddd.sol\":3805:4572  function doctorRegistration(address _doctor, string _uaeId, string _name, string _phone, string _gender, string _email, string _qualification, string _major) public {\r... */\n    tag_68:\n        /* \"contracts/ddddd.sol\":4062:4067  var d */\n      0x0\n        /* \"contracts/ddddd.sol\":4003:4012  mohAdress */\n      0x10\n      0x0\n      swap1\n      sload\n      swap1\n      0x100\n      exp\n      swap1\n      div\n      0xffffffffffffffffffffffffffffffffffffffff\n      and\n        /* \"contracts/ddddd.sol\":3989:4012  msg.sender == mohAdress */\n      0xffffffffffffffffffffffffffffffffffffffff\n      and\n        /* \"contracts/ddddd.sol\":3989:3999  msg.sender */\n      caller\n        /* \"contracts/ddddd.sol\":3989:4012  msg.sender == mohAdress */\n      0xffffffffffffffffffffffffffffffffffffffff\n      and\n      eq\n        /* \"contracts/ddddd.sol\":3981:4013  require(msg.sender == mohAdress) */\n      iszero\n      iszero\n      tag_218\n      jumpi\n      0x0\n      dup1\n      revert\n    tag_218:\n        /* \"contracts/ddddd.sol\":4033:4041  isDoctor */\n      0x9\n        /* \"contracts/ddddd.sol\":4033:4050  isDoctor[_doctor] */\n      0x0\n        /* \"contracts/ddddd.sol\":4042:4049  _doctor */\n      dup11\n        /* \"contracts/ddddd.sol\":4033:4050  isDoctor[_doctor] */\n      0xffffffffffffffffffffffffffffffffffffffff\n      and\n      0xffffffffffffffffffffffffffffffffffffffff\n      and\n      dup2\n      mstore\n      0x20\n      add\n      swap1\n      dup2\n      mstore\n      0x20\n      add\n      0x0\n      keccak256\n      0x0\n      swap1\n      sload\n      swap1\n      0x100\n      exp\n      swap1\n      div\n      0xff\n      and\n        /* \"contracts/ddddd.sol\":4032:4050  !isDoctor[_doctor] */\n      iszero\n        /* \"contracts/ddddd.sol\":4024:4051  require(!isDoctor[_doctor]) */\n      iszero\n      iszero\n      tag_219\n      jumpi\n      0x0\n      dup1\n      revert\n    tag_219:\n        /* \"contracts/ddddd.sol\":4070:4076  doctor */\n      0x5\n        /* \"contracts/ddddd.sol\":4070:4085  doctor[_doctor] */\n      0x0\n        /* \"contracts/ddddd.sol\":4077:4084  _doctor */\n      dup11\n        /* \"contracts/ddddd.sol\":4070:4085  doctor[_doctor] */\n      0xffffffffffffffffffffffffffffffffffffffff\n      and\n      0xffffffffffffffffffffffffffffffffffffffff\n      and\n      dup2\n      mstore\n      0x20\n      add\n      swap1\n      dup2\n      mstore\n      0x20\n      add\n      0x0\n      keccak256\n        /* \"contracts/ddddd.sol\":4062:4085  var d = doctor[_doctor] */\n      swap1\n      pop\n        /* \"contracts/ddddd.sol\":4116:4122  _uaeId */\n      dup8\n        /* \"contracts/ddddd.sol\":4106:4107  d */\n      dup2\n        /* \"contracts/ddddd.sol\":4106:4113  d.uaeId */\n      0x0\n      add\n        /* \"contracts/ddddd.sol\":4106:4122  d.uaeId = _uaeId */\n      swap1\n      dup1\n      mload\n      swap1\n      0x20\n      add\n      swap1\n      tag_220\n      swap3\n      swap2\n      swap1\n      jump\t// in(tag_210)\n    tag_220:\n      pop\n        /* \"contracts/ddddd.sol\":4142:4147  _name */\n      dup7\n        /* \"contracts/ddddd.sol\":4133:4134  d */\n      dup2\n        /* \"contracts/ddddd.sol\":4133:4139  d.name */\n      0x1\n      add\n        /* \"contracts/ddddd.sol\":4133:4147  d.name = _name */\n      swap1\n      dup1\n      mload\n      swap1\n      0x20\n      add\n      swap1\n      tag_221\n      swap3\n      swap2\n      swap1\n      jump\t// in(tag_210)\n    tag_221:\n      pop\n        /* \"contracts/ddddd.sol\":4168:4174  _phone */\n      dup6\n        /* \"contracts/ddddd.sol\":4158:4159  d */\n      dup2\n        /* \"contracts/ddddd.sol\":4158:4165  d.phone */\n      0x2\n      add\n        /* \"contracts/ddddd.sol\":4158:4174  d.phone = _phone */\n      swap1\n      dup1\n      mload\n      swap1\n      0x20\n      add\n      swap1\n      tag_222\n      swap3\n      swap2\n      swap1\n      jump\t// in(tag_210)\n    tag_222:\n      pop\n        /* \"contracts/ddddd.sol\":4196:4203  _gender */\n      dup5\n        /* \"contracts/ddddd.sol\":4185:4186  d */\n      dup2\n        /* \"contracts/ddddd.sol\":4185:4193  d.gender */\n      0x3\n      add\n        /* \"contracts/ddddd.sol\":4185:4203  d.gender = _gender */\n      swap1\n      dup1\n      mload\n      swap1\n      0x20\n      add\n      swap1\n      tag_223\n      swap3\n      swap2\n      swap1\n      jump\t// in(tag_210)\n    tag_223:\n      pop\n        /* \"contracts/ddddd.sol\":4224:4230  _email */\n      dup4\n        /* \"contracts/ddddd.sol\":4214:4215  d */\n      dup2\n        /* \"contracts/ddddd.sol\":4214:4221  d.email */\n      0x5\n      add\n        /* \"contracts/ddddd.sol\":4214:4230  d.email = _email */\n      swap1\n      dup1\n      mload\n      swap1\n      0x20\n      add\n      swap1\n      tag_224\n      swap3\n      swap2\n      swap1\n      jump\t// in(tag_210)\n    tag_224:\n      pop\n        /* \"contracts/ddddd.sol\":4259:4273  _qualification */\n      dup3\n        /* \"contracts/ddddd.sol\":4241:4242  d */\n      dup2\n        /* \"contracts/ddddd.sol\":4241:4256  d.qualification */\n      0x6\n      add\n        /* \"contracts/ddddd.sol\":4241:4273  d.qualification = _qualification */\n      swap1\n      dup1\n      mload\n      swap1\n      0x20\n      add\n      swap1\n      tag_225\n      swap3\n      swap2\n      swap1\n      jump\t// in(tag_210)\n    tag_225:\n      pop\n        /* \"contracts/ddddd.sol\":4294:4300  _major */\n      dup2\n        /* \"contracts/ddddd.sol\":4284:4285  d */\n      dup2\n        /* \"contracts/ddddd.sol\":4284:4291  d.major */\n      0x7\n      add\n        /* \"contracts/ddddd.sol\":4284:4300  d.major = _major */\n      swap1\n      dup1\n      mload\n      swap1\n      0x20\n      add\n      swap1\n      tag_226\n      swap3\n      swap2\n      swap1\n      jump\t// in(tag_210)\n    tag_226:\n      pop\n        /* \"contracts/ddddd.sol\":4324:4331  _doctor */\n      dup9\n        /* \"contracts/ddddd.sol\":4311:4312  d */\n      dup2\n        /* \"contracts/ddddd.sol\":4311:4321  d.eAddress */\n      0x8\n      add\n      0x0\n        /* \"contracts/ddddd.sol\":4311:4331  d.eAddress = _doctor */\n      0x100\n      exp\n      dup2\n      sload\n      dup2\n      0xffffffffffffffffffffffffffffffffffffffff\n      mul\n      not\n      and\n      swap1\n      dup4\n      0xffffffffffffffffffffffffffffffffffffffff\n      and\n      mul\n      or\n      swap1\n      sstore\n      pop\n        /* \"contracts/ddddd.sol\":4351:4366  block.timestamp */\n      timestamp\n        /* \"contracts/ddddd.sol\":4342:4343  d */\n      dup2\n        /* \"contracts/ddddd.sol\":4342:4348  d.date */\n      0x9\n      add\n        /* \"contracts/ddddd.sol\":4342:4366  d.date = block.timestamp */\n      dup2\n      swap1\n      sstore\n      pop\n        /* \"contracts/ddddd.sol\":4387:4397  doctorList */\n      0x2\n        /* \"contracts/ddddd.sol\":4403:4410  _doctor */\n      dup10\n        /* \"contracts/ddddd.sol\":4387:4411  doctorList.push(_doctor) */\n      swap1\n      dup1\n        /* \"--CODEGEN--\":39:40   */\n      0x1\n        /* \"--CODEGEN--\":33:36   */\n      dup2\n        /* \"--CODEGEN--\":27:37   */\n      sload\n        /* \"--CODEGEN--\":23:41   */\n      add\n        /* \"--CODEGEN--\":57:67   */\n      dup1\n        /* \"--CODEGEN--\":52:55   */\n      dup3\n        /* \"--CODEGEN--\":45:68   */\n      sstore\n        /* \"--CODEGEN--\":79:89   */\n      dup1\n        /* \"--CODEGEN--\":72:89   */\n      swap2\n      pop\n        /* \"--CODEGEN--\":0:93   */\n      pop\n        /* \"contracts/ddddd.sol\":4387:4411  doctorList.push(_doctor) */\n      swap1\n      0x1\n      dup3\n      sub\n      swap1\n      0x0\n      mstore\n      keccak256(0x0, 0x20)\n      add\n      0x0\n      swap1\n      swap2\n      swap3\n      swap1\n      swap2\n      swap1\n      swap2\n      0x100\n      exp\n      dup2\n      sload\n      dup2\n      0xffffffffffffffffffffffffffffffffffffffff\n      mul\n      not\n      and\n      swap1\n      dup4\n      0xffffffffffffffffffffffffffffffffffffffff\n      and\n      mul\n      or\n      swap1\n      sstore\n      pop\n      pop\n        /* \"contracts/ddddd.sol\":4442:4446  true */\n      0x1\n        /* \"contracts/ddddd.sol\":4422:4430  isDoctor */\n      0x9\n        /* \"contracts/ddddd.sol\":4422:4439  isDoctor[_doctor] */\n      0x0\n        /* \"contracts/ddddd.sol\":4431:4438  _doctor */\n      dup12\n        /* \"contracts/ddddd.sol\":4422:4439  isDoctor[_doctor] */\n      0xffffffffffffffffffffffffffffffffffffffff\n      and\n      0xffffffffffffffffffffffffffffffffffffffff\n      and\n      dup2\n      mstore\n      0x20\n      add\n      swap1\n      dup2\n      mstore\n      0x20\n      add\n      0x0\n      keccak256\n      0x0\n        /* \"contracts/ddddd.sol\":4422:4446  isDoctor[_doctor] = true */\n      0x100\n      exp\n      dup2\n      sload\n      dup2\n      0xff\n      mul\n      not\n      and\n      swap1\n      dup4\n      iszero\n      iszero\n      mul\n      or\n      swap1\n      sstore\n      pop\n        /* \"contracts/ddddd.sol\":4488:4492  true */\n      0x1\n        /* \"contracts/ddddd.sol\":4457:4467  isApproved */\n      0x7\n        /* \"contracts/ddddd.sol\":4457:4476  isApproved[_doctor] */\n      0x0\n        /* \"contracts/ddddd.sol\":4468:4475  _doctor */\n      dup12\n        /* \"contracts/ddddd.sol\":4457:4476  isApproved[_doctor] */\n      0xffffffffffffffffffffffffffffffffffffffff\n      and\n      0xffffffffffffffffffffffffffffffffffffffff\n      and\n      dup2\n      mstore\n      0x20\n      add\n      swap1\n      dup2\n      mstore\n      0x20\n      add\n      0x0\n      keccak256\n        /* \"contracts/ddddd.sol\":4457:4485  isApproved[_doctor][_doctor] */\n      0x0\n        /* \"contracts/ddddd.sol\":4477:4484  _doctor */\n      dup12\n        /* \"contracts/ddddd.sol\":4457:4485  isApproved[_doctor][_doctor] */\n      0xffffffffffffffffffffffffffffffffffffffff\n      and\n      0xffffffffffffffffffffffffffffffffffffffff\n      and\n      dup2\n      mstore\n      0x20\n      add\n      swap1\n      dup2\n      mstore\n      0x20\n      add\n      0x0\n      keccak256\n      0x0\n        /* \"contracts/ddddd.sol\":4457:4492  isApproved[_doctor][_doctor] = true */\n      0x100\n      exp\n      dup2\n      sload\n      dup2\n      0xff\n      mul\n      not\n      and\n      swap1\n      dup4\n      iszero\n      iszero\n      mul\n      or\n      swap1\n      sstore\n      pop\n        /* \"contracts/ddddd.sol\":4536:4540  true */\n      0x1\n        /* \"contracts/ddddd.sol\":4503:4513  isApproved */\n      0x7\n        /* \"contracts/ddddd.sol\":4503:4522  isApproved[_doctor] */\n      0x0\n        /* \"contracts/ddddd.sol\":4514:4521  _doctor */\n      dup12\n        /* \"contracts/ddddd.sol\":4503:4522  isApproved[_doctor] */\n      0xffffffffffffffffffffffffffffffffffffffff\n      and\n      0xffffffffffffffffffffffffffffffffffffffff\n      and\n      dup2\n      mstore\n      0x20\n      add\n      swap1\n      dup2\n      mstore\n      0x20\n      add\n      0x0\n      keccak256\n        /* \"contracts/ddddd.sol\":4503:4533  isApproved[_doctor][mohAdress] */\n      0x0\n        /* \"contracts/ddddd.sol\":4523:4532  mohAdress */\n      0x10\n      0x0\n      swap1\n      sload\n      swap1\n      0x100\n      exp\n      swap1\n      div\n      0xffffffffffffffffffffffffffffffffffffffff\n      and\n        /* \"contracts/ddddd.sol\":4503:4533  isApproved[_doctor][mohAdress] */\n      0xffffffffffffffffffffffffffffffffffffffff\n      and\n      0xffffffffffffffffffffffffffffffffffffffff\n      and\n      dup2\n      mstore\n      0x20\n      add\n      swap1\n      dup2\n      mstore\n      0x20\n      add\n      0x0\n      keccak256\n      0x0\n        /* \"contracts/ddddd.sol\":4503:4540  isApproved[_doctor][mohAdress] = true */\n      0x100\n      exp\n      dup2\n      sload\n      dup2\n      0xff\n      mul\n      not\n      and\n      swap1\n      dup4\n      iszero\n      iszero\n      mul\n      or\n      swap1\n      sstore\n      pop\n        /* \"contracts/ddddd.sol\":4551:4562  doctorCount */\n      0xc\n      0x0\n        /* \"contracts/ddddd.sol\":4551:4564  doctorCount++ */\n      dup2\n      sload\n      dup1\n      swap3\n      swap2\n      swap1\n      0x1\n      add\n      swap2\n      swap1\n      pop\n      sstore\n      pop\n        /* \"contracts/ddddd.sol\":3805:4572  function doctorRegistration(address _doctor, string _uaeId, string _name, string _phone, string _gender, string _email, string _qualification, string _major) public {\r... */\n      pop\n      pop\n      pop\n      pop\n      pop\n      pop\n      pop\n      pop\n      pop\n      jump\t// out\n        /* \"contracts/ddddd.sol\":6366:6557  function givePermissionByUser(address _address) public returns(bool success) {\r... */\n    tag_72:\n        /* \"contracts/ddddd.sol\":6429:6441  bool success */\n      0x0\n        /* \"contracts/ddddd.sol\":6489:6493  true */\n      0x1\n        /* \"contracts/ddddd.sol\":6454:6464  isApproved */\n      0x7\n        /* \"contracts/ddddd.sol\":6454:6476  isApproved[msg.sender] */\n      0x0\n        /* \"contracts/ddddd.sol\":6465:6475  msg.sender */\n      caller\n        /* \"contracts/ddddd.sol\":6454:6476  isApproved[msg.sender] */\n      0xffffffffffffffffffffffffffffffffffffffff\n      and\n      0xffffffffffffffffffffffffffffffffffffffff\n      and\n      dup2\n      mstore\n      0x20\n      add\n      swap1\n      dup2\n      mstore\n      0x20\n      add\n      0x0\n      keccak256\n        /* \"contracts/ddddd.sol\":6454:6486  isApproved[msg.sender][_address] */\n      0x0\n        /* \"contracts/ddddd.sol\":6477:6485  _address */\n      dup5\n        /* \"contracts/ddddd.sol\":6454:6486  isApproved[msg.sender][_address] */\n      0xffffffffffffffffffffffffffffffffffffffff\n      and\n      0xffffffffffffffffffffffffffffffffffffffff\n      and\n      dup2\n      mstore\n      0x20\n      add\n      swap1\n      dup2\n      mstore\n      0x20\n      add\n      0x0\n      keccak256\n      0x0\n        /* \"contracts/ddddd.sol\":6454:6493  isApproved[msg.sender][_address] = true */\n      0x100\n      exp\n      dup2\n      sload\n      dup2\n      0xff\n      mul\n      not\n      and\n      swap1\n      dup4\n      iszero\n      iszero\n      mul\n      or\n      swap1\n      sstore\n      pop\n        /* \"contracts/ddddd.sol\":6504:6525  userPermissionCounter */\n      0xe\n      0x0\n        /* \"contracts/ddddd.sol\":6504:6527  userPermissionCounter++ */\n      dup2\n      sload\n      dup1\n      swap3\n      swap2\n      swap1\n      0x1\n      add\n      swap2\n      swap1\n      pop\n      sstore\n      pop\n        /* \"contracts/ddddd.sol\":6545:6549  true */\n      0x1\n        /* \"contracts/ddddd.sol\":6538:6549  return true */\n      swap1\n      pop\n        /* \"contracts/ddddd.sol\":6366:6557  function givePermissionByUser(address _address) public returns(bool success) {\r... */\n      swap2\n      swap1\n      pop\n      jump\t// out\n        /* \"contracts/ddddd.sol\":5113:6020  function createVaccineRecord(address _address1, address _doctor, string _vaccine, string _description, string _typeOfVaccine, uint _creationDate) public returns(bool success) {\r... */\n    tag_79:\n        /* \"contracts/ddddd.sol\":5274:5286  bool success */\n      0x0\n        /* \"contracts/ddddd.sol\":5503:5508  var v */\n      dup1\n        /* \"contracts/ddddd.sol\":5321:5330  mohAdress */\n      0x10\n      0x0\n      swap1\n      sload\n      swap1\n      0x100\n      exp\n      swap1\n      div\n      0xffffffffffffffffffffffffffffffffffffffff\n      and\n        /* \"contracts/ddddd.sol\":5307:5330  msg.sender == mohAdress */\n      0xffffffffffffffffffffffffffffffffffffffff\n      and\n        /* \"contracts/ddddd.sol\":5307:5317  msg.sender */\n      caller\n        /* \"contracts/ddddd.sol\":5307:5330  msg.sender == mohAdress */\n      0xffffffffffffffffffffffffffffffffffffffff\n      and\n      eq\n        /* \"contracts/ddddd.sol\":5299:5331  require(msg.sender == mohAdress) */\n      iszero\n      iszero\n      tag_230\n      jumpi\n      0x0\n      dup1\n      revert\n    tag_230:\n        /* \"contracts/ddddd.sol\":5471:5480  isVaccine */\n      0xa\n        /* \"contracts/ddddd.sol\":5471:5491  isVaccine[_address1] */\n      0x0\n        /* \"contracts/ddddd.sol\":5481:5490  _address1 */\n      dup10\n        /* \"contracts/ddddd.sol\":5471:5491  isVaccine[_address1] */\n      0xffffffffffffffffffffffffffffffffffffffff\n      and\n      0xffffffffffffffffffffffffffffffffffffffff\n      and\n      dup2\n      mstore\n      0x20\n      add\n      swap1\n      dup2\n      mstore\n      0x20\n      add\n      0x0\n      keccak256\n      0x0\n      swap1\n      sload\n      swap1\n      0x100\n      exp\n      swap1\n      div\n      0xff\n      and\n        /* \"contracts/ddddd.sol\":5470:5491  !isVaccine[_address1] */\n      iszero\n        /* \"contracts/ddddd.sol\":5462:5492  require(!isVaccine[_address1]) */\n      iszero\n      iszero\n      tag_231\n      jumpi\n      0x0\n      dup1\n      revert\n    tag_231:\n        /* \"contracts/ddddd.sol\":5511:5522  vaccination */\n      0x6\n        /* \"contracts/ddddd.sol\":5511:5533  vaccination[_address1] */\n      0x0\n        /* \"contracts/ddddd.sol\":5523:5532  _address1 */\n      dup10\n        /* \"contracts/ddddd.sol\":5511:5533  vaccination[_address1] */\n      0xffffffffffffffffffffffffffffffffffffffff\n      and\n      0xffffffffffffffffffffffffffffffffffffffff\n      and\n      dup2\n      mstore\n      0x20\n      add\n      swap1\n      dup2\n      mstore\n      0x20\n      add\n      0x0\n      keccak256\n        /* \"contracts/ddddd.sol\":5503:5533  var v = vaccination[_address1] */\n      swap1\n      pop\n        /* \"contracts/ddddd.sol\":5612:5620  _vaccine */\n      dup6\n        /* \"contracts/ddddd.sol\":5600:5601  v */\n      dup2\n        /* \"contracts/ddddd.sol\":5600:5609  v.vaccine */\n      0x0\n      add\n        /* \"contracts/ddddd.sol\":5600:5620  v.vaccine = _vaccine */\n      swap1\n      dup1\n      mload\n      swap1\n      0x20\n      add\n      swap1\n      tag_232\n      swap3\n      swap2\n      swap1\n      jump\t// in(tag_210)\n    tag_232:\n      pop\n        /* \"contracts/ddddd.sol\":5647:5659  _description */\n      dup5\n        /* \"contracts/ddddd.sol\":5631:5632  v */\n      dup2\n        /* \"contracts/ddddd.sol\":5631:5644  v.description */\n      0x1\n      add\n        /* \"contracts/ddddd.sol\":5631:5659  v.description = _description */\n      swap1\n      dup1\n      mload\n      swap1\n      0x20\n      add\n      swap1\n      tag_233\n      swap3\n      swap2\n      swap1\n      jump\t// in(tag_210)\n    tag_233:\n      pop\n        /* \"contracts/ddddd.sol\":5688:5702  _typeOfVaccine */\n      dup4\n        /* \"contracts/ddddd.sol\":5670:5671  v */\n      dup2\n        /* \"contracts/ddddd.sol\":5670:5685  v.typeOfVaccine */\n      0x2\n      add\n        /* \"contracts/ddddd.sol\":5670:5702  v.typeOfVaccine = _typeOfVaccine */\n      swap1\n      dup1\n      mload\n      swap1\n      0x20\n      add\n      swap1\n      tag_234\n      swap3\n      swap2\n      swap1\n      jump\t// in(tag_210)\n    tag_234:\n      pop\n        /* \"contracts/ddddd.sol\":5843:5856  _creationDate */\n      dup3\n        /* \"contracts/ddddd.sol\":5826:5827  v */\n      dup2\n        /* \"contracts/ddddd.sol\":5826:5840  v.creationDate */\n      0x3\n      add\n        /* \"contracts/ddddd.sol\":5826:5856  v.creationDate = _creationDate */\n      dup2\n      swap1\n      sstore\n      pop\n        /* \"contracts/ddddd.sol\":5884:5893  _address1 */\n      dup8\n        /* \"contracts/ddddd.sol\":5867:5868  v */\n      dup2\n        /* \"contracts/ddddd.sol\":5867:5881  v.userEadderss */\n      0x4\n      add\n      0x0\n        /* \"contracts/ddddd.sol\":5867:5893  v.userEadderss = _address1 */\n      0x100\n      exp\n      dup2\n      sload\n      dup2\n      0xffffffffffffffffffffffffffffffffffffffff\n      mul\n      not\n      and\n      swap1\n      dup4\n      0xffffffffffffffffffffffffffffffffffffffff\n      and\n      mul\n      or\n      swap1\n      sstore\n      pop\n        /* \"contracts/ddddd.sol\":5923:5930  _doctor */\n      dup7\n        /* \"contracts/ddddd.sol\":5904:5905  v */\n      dup2\n        /* \"contracts/ddddd.sol\":5904:5920  v.doctorEaddress */\n      0x5\n      add\n      0x0\n        /* \"contracts/ddddd.sol\":5904:5930  v.doctorEaddress = _doctor */\n      0x100\n      exp\n      dup2\n      sload\n      dup2\n      0xffffffffffffffffffffffffffffffffffffffff\n      mul\n      not\n      and\n      swap1\n      dup4\n      0xffffffffffffffffffffffffffffffffffffffff\n      and\n      mul\n      or\n      swap1\n      sstore\n      pop\n        /* \"contracts/ddddd.sol\":5943:5958  vaccinationList */\n      0x3\n        /* \"contracts/ddddd.sol\":5964:5973  _address1 */\n      dup9\n        /* \"contracts/ddddd.sol\":5943:5974  vaccinationList.push(_address1) */\n      swap1\n      dup1\n        /* \"--CODEGEN--\":39:40   */\n      0x1\n        /* \"--CODEGEN--\":33:36   */\n      dup2\n        /* \"--CODEGEN--\":27:37   */\n      sload\n        /* \"--CODEGEN--\":23:41   */\n      add\n        /* \"--CODEGEN--\":57:67   */\n      dup1\n        /* \"--CODEGEN--\":52:55   */\n      dup3\n        /* \"--CODEGEN--\":45:68   */\n      sstore\n        /* \"--CODEGEN--\":79:89   */\n      dup1\n        /* \"--CODEGEN--\":72:89   */\n      swap2\n      pop\n        /* \"--CODEGEN--\":0:93   */\n      pop\n        /* \"contracts/ddddd.sol\":5943:5974  vaccinationList.push(_address1) */\n      swap1\n      0x1\n      dup3\n      sub\n      swap1\n      0x0\n      mstore\n      keccak256(0x0, 0x20)\n      add\n      0x0\n      swap1\n      swap2\n      swap3\n      swap1\n      swap2\n      swap1\n      swap2\n      0x100\n      exp\n      dup2\n      sload\n      dup2\n      0xffffffffffffffffffffffffffffffffffffffff\n      mul\n      not\n      and\n      swap1\n      dup4\n      0xffffffffffffffffffffffffffffffffffffffff\n      and\n      mul\n      or\n      swap1\n      sstore\n      pop\n      pop\n        /* \"contracts/ddddd.sol\":5985:6010  vaccinationRecordsCounter */\n      0xf\n      0x0\n        /* \"contracts/ddddd.sol\":5985:6012  vaccinationRecordsCounter++ */\n      dup2\n      sload\n      dup1\n      swap3\n      swap2\n      swap1\n      0x1\n      add\n      swap2\n      swap1\n      pop\n      sstore\n      pop\n        /* \"contracts/ddddd.sol\":5113:6020  function createVaccineRecord(address _address1, address _doctor, string _vaccine, string _description, string _typeOfVaccine, uint _creationDate) public returns(bool success) {\r... */\n      pop\n      swap7\n      swap6\n      pop\n      pop\n      pop\n      pop\n      pop\n      pop\n      jump\t// out\n        /* \"contracts/ddddd.sol\":6827:6985  function userRevokePermission(address _address) public returns(bool success) {\r... */\n    tag_84:\n        /* \"contracts/ddddd.sol\":6890:6902  bool success */\n      0x0\n        /* \"contracts/ddddd.sol\":6950:6955  false */\n      dup1\n        /* \"contracts/ddddd.sol\":6915:6925  isApproved */\n      0x7\n        /* \"contracts/ddddd.sol\":6915:6937  isApproved[msg.sender] */\n      0x0\n        /* \"contracts/ddddd.sol\":6926:6936  msg.sender */\n      caller\n        /* \"contracts/ddddd.sol\":6915:6937  isApproved[msg.sender] */\n      0xffffffffffffffffffffffffffffffffffffffff\n      and\n      0xffffffffffffffffffffffffffffffffffffffff\n      and\n      dup2\n      mstore\n      0x20\n      add\n      swap1\n      dup2\n      mstore\n      0x20\n      add\n      0x0\n      keccak256\n        /* \"contracts/ddddd.sol\":6915:6947  isApproved[msg.sender][_address] */\n      0x0\n        /* \"contracts/ddddd.sol\":6938:6946  _address */\n      dup5\n        /* \"contracts/ddddd.sol\":6915:6947  isApproved[msg.sender][_address] */\n      0xffffffffffffffffffffffffffffffffffffffff\n      and\n      0xffffffffffffffffffffffffffffffffffffffff\n      and\n      dup2\n      mstore\n      0x20\n      add\n      swap1\n      dup2\n      mstore\n      0x20\n      add\n      0x0\n      keccak256\n      0x0\n        /* \"contracts/ddddd.sol\":6915:6955  isApproved[msg.sender][_address] = false */\n      0x100\n      exp\n      dup2\n      sload\n      dup2\n      0xff\n      mul\n      not\n      and\n      swap1\n      dup4\n      iszero\n      iszero\n      mul\n      or\n      swap1\n      sstore\n      pop\n        /* \"contracts/ddddd.sol\":6973:6977  true */\n      0x1\n        /* \"contracts/ddddd.sol\":6966:6977  return true */\n      swap1\n      pop\n        /* \"contracts/ddddd.sol\":6827:6985  function userRevokePermission(address _address) public returns(bool success) {\r... */\n      swap2\n      swap1\n      pop\n      jump\t// out\n        /* \"contracts/ddddd.sol\":2055:3164  function userRegistration(address _user, string _uaeId, string _name, string _phone, string _gender, string _dob, string _addr, string _email, string _nomineeName, string _nomineeContact) public {\r... */\n    tag_90:\n        /* \"contracts/ddddd.sol\":2338:2343  var u */\n      0x0\n        /* \"contracts/ddddd.sol\":2283:2292  mohAdress */\n      0x10\n      0x0\n      swap1\n      sload\n      swap1\n      0x100\n      exp\n      swap1\n      div\n      0xffffffffffffffffffffffffffffffffffffffff\n      and\n        /* \"contracts/ddddd.sol\":2269:2292  msg.sender == mohAdress */\n      0xffffffffffffffffffffffffffffffffffffffff\n      and\n        /* \"contracts/ddddd.sol\":2269:2279  msg.sender */\n      caller\n        /* \"contracts/ddddd.sol\":2269:2292  msg.sender == mohAdress */\n      0xffffffffffffffffffffffffffffffffffffffff\n      and\n      eq\n        /* \"contracts/ddddd.sol\":2261:2293  require(msg.sender == mohAdress) */\n      iszero\n      iszero\n      tag_238\n      jumpi\n      0x0\n      dup1\n      revert\n    tag_238:\n        /* \"contracts/ddddd.sol\":2313:2319  isUser */\n      0x8\n        /* \"contracts/ddddd.sol\":2313:2326  isUser[_user] */\n      0x0\n        /* \"contracts/ddddd.sol\":2320:2325  _user */\n      dup13\n        /* \"contracts/ddddd.sol\":2313:2326  isUser[_user] */\n      0xffffffffffffffffffffffffffffffffffffffff\n      and\n      0xffffffffffffffffffffffffffffffffffffffff\n      and\n      dup2\n      mstore\n      0x20\n      add\n      swap1\n      dup2\n      mstore\n      0x20\n      add\n      0x0\n      keccak256\n      0x0\n      swap1\n      sload\n      swap1\n      0x100\n      exp\n      swap1\n      div\n      0xff\n      and\n        /* \"contracts/ddddd.sol\":2312:2326  !isUser[_user] */\n      iszero\n        /* \"contracts/ddddd.sol\":2304:2327  require(!isUser[_user]) */\n      iszero\n      iszero\n      tag_239\n      jumpi\n      0x0\n      dup1\n      revert\n    tag_239:\n        /* \"contracts/ddddd.sol\":2346:2350  user */\n      0x4\n        /* \"contracts/ddddd.sol\":2346:2357  user[_user] */\n      0x0\n        /* \"contracts/ddddd.sol\":2351:2356  _user */\n      dup13\n        /* \"contracts/ddddd.sol\":2346:2357  user[_user] */\n      0xffffffffffffffffffffffffffffffffffffffff\n      and\n      0xffffffffffffffffffffffffffffffffffffffff\n      and\n      dup2\n      mstore\n      0x20\n      add\n      swap1\n      dup2\n      mstore\n      0x20\n      add\n      0x0\n      keccak256\n        /* \"contracts/ddddd.sol\":2338:2357  var u = user[_user] */\n      swap1\n      pop\n        /* \"contracts/ddddd.sol\":2388:2394  _uaeId */\n      dup10\n        /* \"contracts/ddddd.sol\":2378:2379  u */\n      dup2\n        /* \"contracts/ddddd.sol\":2378:2385  u.uaeId */\n      0x0\n      add\n        /* \"contracts/ddddd.sol\":2378:2394  u.uaeId = _uaeId */\n      swap1\n      dup1\n      mload\n      swap1\n      0x20\n      add\n      swap1\n      tag_240\n      swap3\n      swap2\n      swap1\n      jump\t// in(tag_210)\n    tag_240:\n      pop\n        /* \"contracts/ddddd.sol\":2414:2419  _name */\n      dup9\n        /* \"contracts/ddddd.sol\":2405:2406  u */\n      dup2\n        /* \"contracts/ddddd.sol\":2405:2411  u.name */\n      0x1\n      add\n        /* \"contracts/ddddd.sol\":2405:2419  u.name = _name */\n      swap1\n      dup1\n      mload\n      swap1\n      0x20\n      add\n      swap1\n      tag_241\n      swap3\n      swap2\n      swap1\n      jump\t// in(tag_210)\n    tag_241:\n      pop\n        /* \"contracts/ddddd.sol\":2440:2446  _phone */\n      dup8\n        /* \"contracts/ddddd.sol\":2430:2431  u */\n      dup2\n        /* \"contracts/ddddd.sol\":2430:2437  u.phone */\n      0x2\n      add\n        /* \"contracts/ddddd.sol\":2430:2446  u.phone = _phone */\n      swap1\n      dup1\n      mload\n      swap1\n      0x20\n      add\n      swap1\n      tag_242\n      swap3\n      swap2\n      swap1\n      jump\t// in(tag_210)\n    tag_242:\n      pop\n        /* \"contracts/ddddd.sol\":2468:2475  _gender */\n      dup7\n        /* \"contracts/ddddd.sol\":2457:2458  u */\n      dup2\n        /* \"contracts/ddddd.sol\":2457:2465  u.gender */\n      0x3\n      add\n        /* \"contracts/ddddd.sol\":2457:2475  u.gender = _gender */\n      swap1\n      dup1\n      mload\n      swap1\n      0x20\n      add\n      swap1\n      tag_243\n      swap3\n      swap2\n      swap1\n      jump\t// in(tag_210)\n    tag_243:\n      pop\n        /* \"contracts/ddddd.sol\":2494:2498  _dob */\n      dup6\n        /* \"contracts/ddddd.sol\":2486:2487  u */\n      dup2\n        /* \"contracts/ddddd.sol\":2486:2491  u.dob */\n      0x4\n      add\n        /* \"contracts/ddddd.sol\":2486:2498  u.dob = _dob */\n      swap1\n      dup1\n      mload\n      swap1\n      0x20\n      add\n      swap1\n      tag_244\n      swap3\n      swap2\n      swap1\n      jump\t// in(tag_210)\n    tag_244:\n      pop\n        /* \"contracts/ddddd.sol\":2518:2523  _addr */\n      dup5\n        /* \"contracts/ddddd.sol\":2509:2510  u */\n      dup2\n        /* \"contracts/ddddd.sol\":2509:2515  u.addr */\n      0x5\n      add\n        /* \"contracts/ddddd.sol\":2509:2523  u.addr = _addr */\n      swap1\n      dup1\n      mload\n      swap1\n      0x20\n      add\n      swap1\n      tag_245\n      swap3\n      swap2\n      swap1\n      jump\t// in(tag_210)\n    tag_245:\n      pop\n        /* \"contracts/ddddd.sol\":2544:2550  _email */\n      dup4\n        /* \"contracts/ddddd.sol\":2534:2535  u */\n      dup2\n        /* \"contracts/ddddd.sol\":2534:2541  u.email */\n      0x6\n      add\n        /* \"contracts/ddddd.sol\":2534:2550  u.email = _email */\n      swap1\n      dup1\n      mload\n      swap1\n      0x20\n      add\n      swap1\n      tag_246\n      swap3\n      swap2\n      swap1\n      jump\t// in(tag_210)\n    tag_246:\n      pop\n        /* \"contracts/ddddd.sol\":2577:2589  _nomineeName */\n      dup3\n        /* \"contracts/ddddd.sol\":2561:2562  u */\n      dup2\n        /* \"contracts/ddddd.sol\":2561:2574  u.nomineeName */\n      0x7\n      add\n        /* \"contracts/ddddd.sol\":2561:2589  u.nomineeName = _nomineeName */\n      swap1\n      dup1\n      mload\n      swap1\n      0x20\n      add\n      swap1\n      tag_247\n      swap3\n      swap2\n      swap1\n      jump\t// in(tag_210)\n    tag_247:\n      pop\n        /* \"contracts/ddddd.sol\":2619:2634  _nomineeContact */\n      dup2\n        /* \"contracts/ddddd.sol\":2600:2601  u */\n      dup2\n        /* \"contracts/ddddd.sol\":2600:2616  u.nomineeContact */\n      0x8\n      add\n        /* \"contracts/ddddd.sol\":2600:2634  u.nomineeContact = _nomineeContact */\n      swap1\n      dup1\n      mload\n      swap1\n      0x20\n      add\n      swap1\n      tag_248\n      swap3\n      swap2\n      swap1\n      jump\t// in(tag_210)\n    tag_248:\n      pop\n        /* \"contracts/ddddd.sol\":2658:2663  _user */\n      dup11\n        /* \"contracts/ddddd.sol\":2645:2646  u */\n      dup2\n        /* \"contracts/ddddd.sol\":2645:2655  u.eAddress */\n      0x9\n      add\n      0x0\n        /* \"contracts/ddddd.sol\":2645:2663  u.eAddress = _user */\n      0x100\n      exp\n      dup2\n      sload\n      dup2\n      0xffffffffffffffffffffffffffffffffffffffff\n      mul\n      not\n      and\n      swap1\n      dup4\n      0xffffffffffffffffffffffffffffffffffffffff\n      and\n      mul\n      or\n      swap1\n      sstore\n      pop\n        /* \"contracts/ddddd.sol\":2683:2698  block.timestamp */\n      timestamp\n        /* \"contracts/ddddd.sol\":2674:2675  u */\n      dup2\n        /* \"contracts/ddddd.sol\":2674:2680  u.date */\n      0xa\n      add\n        /* \"contracts/ddddd.sol\":2674:2698  u.date = block.timestamp */\n      dup2\n      swap1\n      sstore\n      pop\n        /* \"contracts/ddddd.sol\":2719:2727  userList */\n      0x1\n        /* \"contracts/ddddd.sol\":2733:2738  _user */\n      dup12\n        /* \"contracts/ddddd.sol\":2719:2739  userList.push(_user) */\n      swap1\n      dup1\n        /* \"--CODEGEN--\":39:40   */\n      0x1\n        /* \"--CODEGEN--\":33:36   */\n      dup2\n        /* \"--CODEGEN--\":27:37   */\n      sload\n        /* \"--CODEGEN--\":23:41   */\n      add\n        /* \"--CODEGEN--\":57:67   */\n      dup1\n        /* \"--CODEGEN--\":52:55   */\n      dup3\n        /* \"--CODEGEN--\":45:68   */\n      sstore\n        /* \"--CODEGEN--\":79:89   */\n      dup1\n        /* \"--CODEGEN--\":72:89   */\n      swap2\n      pop\n        /* \"--CODEGEN--\":0:93   */\n      pop\n        /* \"contracts/ddddd.sol\":2719:2739  userList.push(_user) */\n      swap1\n      0x1\n      dup3\n      sub\n      swap1\n      0x0\n      mstore\n      keccak256(0x0, 0x20)\n      add\n      0x0\n      swap1\n      swap2\n      swap3\n      swap1\n      swap2\n      swap1\n      swap2\n      0x100\n      exp\n      dup2\n      sload\n      dup2\n      0xffffffffffffffffffffffffffffffffffffffff\n      mul\n      not\n      and\n      swap1\n      dup4\n      0xffffffffffffffffffffffffffffffffffffffff\n      and\n      mul\n      or\n      swap1\n      sstore\n      pop\n      pop\n        /* \"contracts/ddddd.sol\":2766:2770  true */\n      0x1\n        /* \"contracts/ddddd.sol\":2750:2756  isUser */\n      0x8\n        /* \"contracts/ddddd.sol\":2750:2763  isUser[_user] */\n      0x0\n        /* \"contracts/ddddd.sol\":2757:2762  _user */\n      dup14\n        /* \"contracts/ddddd.sol\":2750:2763  isUser[_user] */\n      0xffffffffffffffffffffffffffffffffffffffff\n      and\n      0xffffffffffffffffffffffffffffffffffffffff\n      and\n      dup2\n      mstore\n      0x20\n      add\n      swap1\n      dup2\n      mstore\n      0x20\n      add\n      0x0\n      keccak256\n      0x0\n        /* \"contracts/ddddd.sol\":2750:2770  isUser[_user] = true */\n      0x100\n      exp\n      dup2\n      sload\n      dup2\n      0xff\n      mul\n      not\n      and\n      swap1\n      dup4\n      iszero\n      iszero\n      mul\n      or\n      swap1\n      sstore\n      pop\n        /* \"contracts/ddddd.sol\":2808:2812  true */\n      0x1\n        /* \"contracts/ddddd.sol\":2781:2791  isApproved */\n      0x7\n        /* \"contracts/ddddd.sol\":2781:2798  isApproved[_user] */\n      0x0\n        /* \"contracts/ddddd.sol\":2792:2797  _user */\n      dup14\n        /* \"contracts/ddddd.sol\":2781:2798  isApproved[_user] */\n      0xffffffffffffffffffffffffffffffffffffffff\n      and\n      0xffffffffffffffffffffffffffffffffffffffff\n      and\n      dup2\n      mstore\n      0x20\n      add\n      swap1\n      dup2\n      mstore\n      0x20\n      add\n      0x0\n      keccak256\n        /* \"contracts/ddddd.sol\":2781:2805  isApproved[_user][_user] */\n      0x0\n        /* \"contracts/ddddd.sol\":2799:2804  _user */\n      dup14\n        /* \"contracts/ddddd.sol\":2781:2805  isApproved[_user][_user] */\n      0xffffffffffffffffffffffffffffffffffffffff\n      and\n      0xffffffffffffffffffffffffffffffffffffffff\n      and\n      dup2\n      mstore\n      0x20\n      add\n      swap1\n      dup2\n      mstore\n      0x20\n      add\n      0x0\n      keccak256\n      0x0\n        /* \"contracts/ddddd.sol\":2781:2812  isApproved[_user][_user] = true */\n      0x100\n      exp\n      dup2\n      sload\n      dup2\n      0xff\n      mul\n      not\n      and\n      swap1\n      dup4\n      iszero\n      iszero\n      mul\n      or\n      swap1\n      sstore\n      pop\n        /* \"contracts/ddddd.sol\":2854:2858  true */\n      0x1\n        /* \"contracts/ddddd.sol\":2823:2833  isApproved */\n      0x7\n        /* \"contracts/ddddd.sol\":2823:2840  isApproved[_user] */\n      0x0\n        /* \"contracts/ddddd.sol\":2834:2839  _user */\n      dup14\n        /* \"contracts/ddddd.sol\":2823:2840  isApproved[_user] */\n      0xffffffffffffffffffffffffffffffffffffffff\n      and\n      0xffffffffffffffffffffffffffffffffffffffff\n      and\n      dup2\n      mstore\n      0x20\n      add\n      swap1\n      dup2\n      mstore\n      0x20\n      add\n      0x0\n      keccak256\n        /* \"contracts/ddddd.sol\":2823:2851  isApproved[_user][mohAdress] */\n      0x0\n        /* \"contracts/ddddd.sol\":2841:2850  mohAdress */\n      0x10\n      0x0\n      swap1\n      sload\n      swap1\n      0x100\n      exp\n      swap1\n      div\n      0xffffffffffffffffffffffffffffffffffffffff\n      and\n        /* \"contracts/ddddd.sol\":2823:2851  isApproved[_user][mohAdress] */\n      0xffffffffffffffffffffffffffffffffffffffff\n      and\n      0xffffffffffffffffffffffffffffffffffffffff\n      and\n      dup2\n      mstore\n      0x20\n      add\n      swap1\n      dup2\n      mstore\n      0x20\n      add\n      0x0\n      keccak256\n      0x0\n        /* \"contracts/ddddd.sol\":2823:2858  isApproved[_user][mohAdress] = true */\n      0x100\n      exp\n      dup2\n      sload\n      dup2\n      0xff\n      mul\n      not\n      and\n      swap1\n      dup4\n      iszero\n      iszero\n      mul\n      or\n      swap1\n      sstore\n      pop\n        /* \"contracts/ddddd.sol\":2869:2878  userCount */\n      0xb\n      0x0\n        /* \"contracts/ddddd.sol\":2869:2880  userCount++ */\n      dup2\n      sload\n      dup1\n      swap3\n      swap2\n      swap1\n      0x1\n      add\n      swap2\n      swap1\n      pop\n      sstore\n      pop\n        /* \"contracts/ddddd.sol\":2055:3164  function userRegistration(address _user, string _uaeId, string _name, string _phone, string _gender, string _dob, string _addr, string _email, string _nomineeName, string _nomineeContact) public {\r... */\n      pop\n      pop\n      pop\n      pop\n      pop\n      pop\n      pop\n      pop\n      pop\n      pop\n      pop\n      jump\t// out\n        /* \"contracts/ddddd.sol\":3188:3797  function editUser(address _user, string _uaeId, string _name, string _phone, string _gender, string _dob, string _addr, string _email, string _nomineeName, string _nomineeContact) public {\r... */\n    tag_94:\n        /* \"contracts/ddddd.sol\":3462:3467  var u */\n      0x0\n        /* \"contracts/ddddd.sol\":3408:3417  mohAdress */\n      0x10\n      0x0\n      swap1\n      sload\n      swap1\n      0x100\n      exp\n      swap1\n      div\n      0xffffffffffffffffffffffffffffffffffffffff\n      and\n        /* \"contracts/ddddd.sol\":3394:3417  msg.sender == mohAdress */\n      0xffffffffffffffffffffffffffffffffffffffff\n      and\n        /* \"contracts/ddddd.sol\":3394:3404  msg.sender */\n      caller\n        /* \"contracts/ddddd.sol\":3394:3417  msg.sender == mohAdress */\n      0xffffffffffffffffffffffffffffffffffffffff\n      and\n      eq\n        /* \"contracts/ddddd.sol\":3386:3418  require(msg.sender == mohAdress) */\n      iszero\n      iszero\n      tag_251\n      jumpi\n      0x0\n      dup1\n      revert\n    tag_251:\n        /* \"contracts/ddddd.sol\":3437:3443  isUser */\n      0x8\n        /* \"contracts/ddddd.sol\":3437:3450  isUser[_user] */\n      0x0\n        /* \"contracts/ddddd.sol\":3444:3449  _user */\n      dup13\n        /* \"contracts/ddddd.sol\":3437:3450  isUser[_user] */\n      0xffffffffffffffffffffffffffffffffffffffff\n      and\n      0xffffffffffffffffffffffffffffffffffffffff\n      and\n      dup2\n      mstore\n      0x20\n      add\n      swap1\n      dup2\n      mstore\n      0x20\n      add\n      0x0\n      keccak256\n      0x0\n      swap1\n      sload\n      swap1\n      0x100\n      exp\n      swap1\n      div\n      0xff\n      and\n        /* \"contracts/ddddd.sol\":3429:3451  require(isUser[_user]) */\n      iszero\n      iszero\n      tag_252\n      jumpi\n      0x0\n      dup1\n      revert\n    tag_252:\n        /* \"contracts/ddddd.sol\":3470:3474  user */\n      0x4\n        /* \"contracts/ddddd.sol\":3470:3481  user[_user] */\n      0x0\n        /* \"contracts/ddddd.sol\":3475:3480  _user */\n      dup13\n        /* \"contracts/ddddd.sol\":3470:3481  user[_user] */\n      0xffffffffffffffffffffffffffffffffffffffff\n      and\n      0xffffffffffffffffffffffffffffffffffffffff\n      and\n      dup2\n      mstore\n      0x20\n      add\n      swap1\n      dup2\n      mstore\n      0x20\n      add\n      0x0\n      keccak256\n        /* \"contracts/ddddd.sol\":3462:3481  var u = user[_user] */\n      swap1\n      pop\n        /* \"contracts/ddddd.sol\":3512:3518  _uaeId */\n      dup10\n        /* \"contracts/ddddd.sol\":3502:3503  u */\n      dup2\n        /* \"contracts/ddddd.sol\":3502:3509  u.uaeId */\n      0x0\n      add\n        /* \"contracts/ddddd.sol\":3502:3518  u.uaeId = _uaeId */\n      swap1\n      dup1\n      mload\n      swap1\n      0x20\n      add\n      swap1\n      tag_253\n      swap3\n      swap2\n      swap1\n      jump\t// in(tag_210)\n    tag_253:\n      pop\n        /* \"contracts/ddddd.sol\":3538:3543  _name */\n      dup9\n        /* \"contracts/ddddd.sol\":3529:3530  u */\n      dup2\n        /* \"contracts/ddddd.sol\":3529:3535  u.name */\n      0x1\n      add\n        /* \"contracts/ddddd.sol\":3529:3543  u.name = _name */\n      swap1\n      dup1\n      mload\n      swap1\n      0x20\n      add\n      swap1\n      tag_254\n      swap3\n      swap2\n      swap1\n      jump\t// in(tag_210)\n    tag_254:\n      pop\n        /* \"contracts/ddddd.sol\":3564:3570  _phone */\n      dup8\n        /* \"contracts/ddddd.sol\":3554:3555  u */\n      dup2\n        /* \"contracts/ddddd.sol\":3554:3561  u.phone */\n      0x2\n      add\n        /* \"contracts/ddddd.sol\":3554:3570  u.phone = _phone */\n      swap1\n      dup1\n      mload\n      swap1\n      0x20\n      add\n      swap1\n      tag_255\n      swap3\n      swap2\n      swap1\n      jump\t// in(tag_210)\n    tag_255:\n      pop\n        /* \"contracts/ddddd.sol\":3592:3599  _gender */\n      dup7\n        /* \"contracts/ddddd.sol\":3581:3582  u */\n      dup2\n        /* \"contracts/ddddd.sol\":3581:3589  u.gender */\n      0x3\n      add\n        /* \"contracts/ddddd.sol\":3581:3599  u.gender = _gender */\n      swap1\n      dup1\n      mload\n      swap1\n      0x20\n      add\n      swap1\n      tag_256\n      swap3\n      swap2\n      swap1\n      jump\t// in(tag_210)\n    tag_256:\n      pop\n        /* \"contracts/ddddd.sol\":3618:3622  _dob */\n      dup6\n        /* \"contracts/ddddd.sol\":3610:3611  u */\n      dup2\n        /* \"contracts/ddddd.sol\":3610:3615  u.dob */\n      0x4\n      add\n        /* \"contracts/ddddd.sol\":3610:3622  u.dob = _dob */\n      swap1\n      dup1\n      mload\n      swap1\n      0x20\n      add\n      swap1\n      tag_257\n      swap3\n      swap2\n      swap1\n      jump\t// in(tag_210)\n    tag_257:\n      pop\n        /* \"contracts/ddddd.sol\":3642:3647  _addr */\n      dup5\n        /* \"contracts/ddddd.sol\":3633:3634  u */\n      dup2\n        /* \"contracts/ddddd.sol\":3633:3639  u.addr */\n      0x5\n      add\n        /* \"contracts/ddddd.sol\":3633:3647  u.addr = _addr */\n      swap1\n      dup1\n      mload\n      swap1\n      0x20\n      add\n      swap1\n      tag_258\n      swap3\n      swap2\n      swap1\n      jump\t// in(tag_210)\n    tag_258:\n      pop\n        /* \"contracts/ddddd.sol\":3668:3674  _email */\n      dup4\n        /* \"contracts/ddddd.sol\":3658:3659  u */\n      dup2\n        /* \"contracts/ddddd.sol\":3658:3665  u.email */\n      0x6\n      add\n        /* \"contracts/ddddd.sol\":3658:3674  u.email = _email */\n      swap1\n      dup1\n      mload\n      swap1\n      0x20\n      add\n      swap1\n      tag_259\n      swap3\n      swap2\n      swap1\n      jump\t// in(tag_210)\n    tag_259:\n      pop\n        /* \"contracts/ddddd.sol\":3701:3713  _nomineeName */\n      dup3\n        /* \"contracts/ddddd.sol\":3685:3686  u */\n      dup2\n        /* \"contracts/ddddd.sol\":3685:3698  u.nomineeName */\n      0x7\n      add\n        /* \"contracts/ddddd.sol\":3685:3713  u.nomineeName = _nomineeName */\n      swap1\n      dup1\n      mload\n      swap1\n      0x20\n      add\n      swap1\n      tag_260\n      swap3\n      swap2\n      swap1\n      jump\t// in(tag_210)\n    tag_260:\n      pop\n        /* \"contracts/ddddd.sol\":3743:3758  _nomineeContact */\n      dup2\n        /* \"contracts/ddddd.sol\":3724:3725  u */\n      dup2\n        /* \"contracts/ddddd.sol\":3724:3740  u.nomineeContact */\n      0x8\n      add\n        /* \"contracts/ddddd.sol\":3724:3758  u.nomineeContact = _nomineeContact */\n      swap1\n      dup1\n      mload\n      swap1\n      0x20\n      add\n      swap1\n      tag_261\n      swap3\n      swap2\n      swap1\n      jump\t// in(tag_210)\n    tag_261:\n      pop\n        /* \"contracts/ddddd.sol\":3782:3787  _user */\n      dup11\n        /* \"contracts/ddddd.sol\":3769:3770  u */\n      dup2\n        /* \"contracts/ddddd.sol\":3769:3779  u.eAddress */\n      0x9\n      add\n      0x0\n        /* \"contracts/ddddd.sol\":3769:3787  u.eAddress = _user */\n      0x100\n      exp\n      dup2\n      sload\n      dup2\n      0xffffffffffffffffffffffffffffffffffffffff\n      mul\n      not\n      and\n      swap1\n      dup4\n      0xffffffffffffffffffffffffffffffffffffffff\n      and\n      mul\n      or\n      swap1\n      sstore\n      pop\n        /* \"contracts/ddddd.sol\":3188:3797  function editUser(address _user, string _uaeId, string _name, string _phone, string _gender, string _dob, string _addr, string _email, string _nomineeName, string _nomineeContact) public {\r... */\n      pop\n      pop\n      pop\n      pop\n      pop\n      pop\n      pop\n      pop\n      pop\n      pop\n      pop\n      jump\t// out\n        /* \"contracts/ddddd.sol\":1670:1700  uint256 public doctorCount = 0 */\n    tag_97:\n      sload(0xc)\n      dup2\n      jump\t// out\n        /* \"contracts/ddddd.sol\":8574:8666  function getDoctorCount() public view returns(uint256) {\r... */\n    tag_101:\n        /* \"contracts/ddddd.sol\":8620:8627  uint256 */\n      0x0\n        /* \"contracts/ddddd.sol\":8647:8658  doctorCount */\n      sload(0xc)\n        /* \"contracts/ddddd.sol\":8640:8658  return doctorCount */\n      swap1\n      pop\n        /* \"contracts/ddddd.sol\":8574:8666  function getDoctorCount() public view returns(uint256) {\r... */\n      swap1\n      jump\t// out\n        /* \"contracts/ddddd.sol\":8918:9224  function checkDoctor(address _address) public view returns(bool success) {\r... */\n    tag_106:\n        /* \"contracts/ddddd.sol\":8977:8989  bool success */\n      0x0\n        /* \"contracts/ddddd.sol\":9007:9013  uint i */\n      dup1\n        /* \"contracts/ddddd.sol\":9016:9017  0 */\n      0x0\n        /* \"contracts/ddddd.sol\":9007:9017  uint i = 0 */\n      swap1\n      pop\n        /* \"contracts/ddddd.sol\":9023:9033  doctorList */\n      0x2\n        /* \"contracts/ddddd.sol\":9023:9040  doctorList.length */\n      dup1\n      sload\n      swap1\n      pop\n        /* \"contracts/ddddd.sol\":9019:9020  i */\n      dup2\n        /* \"contracts/ddddd.sol\":9019:9040  i < doctorList.length */\n      lt\n        /* \"contracts/ddddd.sol\":9002:9217  for (uint i = 0; i < doctorList.length; i++) {\r... */\n      iszero\n      tag_265\n      jumpi\n        /* \"contracts/ddddd.sol\":9088:9092  true */\n      0x1\n        /* \"contracts/ddddd.sol\":9066:9092  isDoctor[_address] == true */\n      iszero\n      iszero\n        /* \"contracts/ddddd.sol\":9066:9074  isDoctor */\n      0x9\n        /* \"contracts/ddddd.sol\":9066:9084  isDoctor[_address] */\n      0x0\n        /* \"contracts/ddddd.sol\":9075:9083  _address */\n      dup6\n        /* \"contracts/ddddd.sol\":9066:9084  isDoctor[_address] */\n      0xffffffffffffffffffffffffffffffffffffffff\n      and\n      0xffffffffffffffffffffffffffffffffffffffff\n      and\n      dup2\n      mstore\n      0x20\n      add\n      swap1\n      dup2\n      mstore\n      0x20\n      add\n      0x0\n      keccak256\n      0x0\n      swap1\n      sload\n      swap1\n      0x100\n      exp\n      swap1\n      div\n      0xff\n      and\n        /* \"contracts/ddddd.sol\":9066:9092  isDoctor[_address] == true */\n      iszero\n      iszero\n      eq\n        /* \"contracts/ddddd.sol\":9062:9206  if (isDoctor[_address] == true) {\r... */\n      iszero\n      tag_267\n      jumpi\n        /* \"contracts/ddddd.sol\":9120:9124  true */\n      0x1\n        /* \"contracts/ddddd.sol\":9113:9124  return true */\n      swap2\n      pop\n      jump(tag_263)\n        /* \"contracts/ddddd.sol\":9062:9206  if (isDoctor[_address] == true) {\r... */\n    tag_267:\n        /* \"contracts/ddddd.sol\":9185:9190  false */\n      0x0\n        /* \"contracts/ddddd.sol\":9178:9190  return false */\n      swap2\n      pop\n      jump(tag_263)\n        /* \"contracts/ddddd.sol\":9002:9217  for (uint i = 0; i < doctorList.length; i++) {\r... */\n    tag_265:\n        /* \"contracts/ddddd.sol\":8918:9224  function checkDoctor(address _address) public view returns(bool success) {\r... */\n    tag_263:\n      pop\n      swap2\n      swap1\n      pop\n      jump\t// out\n        /* \"contracts/ddddd.sol\":6028:6356  function getVaccinationInfo(address _address) public view returns(string, string, string, uint256, address, address) {\r... */\n    tag_111:\n        /* \"contracts/ddddd.sol\":6094:6100  string */\n      0x60\n        /* \"contracts/ddddd.sol\":6102:6108  string */\n      dup1\n        /* \"contracts/ddddd.sol\":6110:6116  string */\n      0x60\n        /* \"contracts/ddddd.sol\":6118:6125  uint256 */\n      0x0\n        /* \"contracts/ddddd.sol\":6127:6134  address */\n      dup1\n        /* \"contracts/ddddd.sol\":6136:6143  address */\n      0x0\n        /* \"contracts/ddddd.sol\":6208:6213  var v */\n      dup1\n        /* \"contracts/ddddd.sol\":6164:6174  isApproved */\n      0x7\n        /* \"contracts/ddddd.sol\":6164:6184  isApproved[_address] */\n      0x0\n        /* \"contracts/ddddd.sol\":6175:6183  _address */\n      dup10\n        /* \"contracts/ddddd.sol\":6164:6184  isApproved[_address] */\n      0xffffffffffffffffffffffffffffffffffffffff\n      and\n      0xffffffffffffffffffffffffffffffffffffffff\n      and\n      dup2\n      mstore\n      0x20\n      add\n      swap1\n      dup2\n      mstore\n      0x20\n      add\n      0x0\n      keccak256\n        /* \"contracts/ddddd.sol\":6164:6196  isApproved[_address][msg.sender] */\n      0x0\n        /* \"contracts/ddddd.sol\":6185:6195  msg.sender */\n      caller\n        /* \"contracts/ddddd.sol\":6164:6196  isApproved[_address][msg.sender] */\n      0xffffffffffffffffffffffffffffffffffffffff\n      and\n      0xffffffffffffffffffffffffffffffffffffffff\n      and\n      dup2\n      mstore\n      0x20\n      add\n      swap1\n      dup2\n      mstore\n      0x20\n      add\n      0x0\n      keccak256\n      0x0\n      swap1\n      sload\n      swap1\n      0x100\n      exp\n      swap1\n      div\n      0xff\n      and\n        /* \"contracts/ddddd.sol\":6156:6197  require(isApproved[_address][msg.sender]) */\n      iszero\n      iszero\n      tag_270\n      jumpi\n      0x0\n      dup1\n      revert\n    tag_270:\n        /* \"contracts/ddddd.sol\":6216:6227  vaccination */\n      0x6\n        /* \"contracts/ddddd.sol\":6216:6237  vaccination[_address] */\n      0x0\n        /* \"contracts/ddddd.sol\":6228:6236  _address */\n      dup10\n        /* \"contracts/ddddd.sol\":6216:6237  vaccination[_address] */\n      0xffffffffffffffffffffffffffffffffffffffff\n      and\n      0xffffffffffffffffffffffffffffffffffffffff\n      and\n      dup2\n      mstore\n      0x20\n      add\n      swap1\n      dup2\n      mstore\n      0x20\n      add\n      0x0\n      keccak256\n        /* \"contracts/ddddd.sol\":6208:6237  var v = vaccination[_address] */\n      swap1\n      pop\n        /* \"contracts/ddddd.sol\":6256:6257  v */\n      dup1\n        /* \"contracts/ddddd.sol\":6256:6265  v.vaccine */\n      0x0\n      add\n        /* \"contracts/ddddd.sol\":6267:6268  v */\n      dup2\n        /* \"contracts/ddddd.sol\":6267:6280  v.description */\n      0x1\n      add\n        /* \"contracts/ddddd.sol\":6282:6283  v */\n      dup3\n        /* \"contracts/ddddd.sol\":6282:6297  v.typeOfVaccine */\n      0x2\n      add\n        /* \"contracts/ddddd.sol\":6299:6300  v */\n      dup4\n        /* \"contracts/ddddd.sol\":6299:6313  v.creationDate */\n      0x3\n      add\n      sload\n        /* \"contracts/ddddd.sol\":6315:6316  v */\n      dup5\n        /* \"contracts/ddddd.sol\":6315:6329  v.userEadderss */\n      0x4\n      add\n      0x0\n      swap1\n      sload\n      swap1\n      0x100\n      exp\n      swap1\n      div\n      0xffffffffffffffffffffffffffffffffffffffff\n      and\n        /* \"contracts/ddddd.sol\":6331:6332  v */\n      dup6\n        /* \"contracts/ddddd.sol\":6331:6347  v.doctorEaddress */\n      0x5\n      add\n      0x0\n      swap1\n      sload\n      swap1\n      0x100\n      exp\n      swap1\n      div\n      0xffffffffffffffffffffffffffffffffffffffff\n      and\n        /* \"contracts/ddddd.sol\":6248:6348  return (v.vaccine, v.description, v.typeOfVaccine, v.creationDate, v.userEadderss, v.doctorEaddress) */\n      dup6\n      dup1\n      sload\n      0x1\n      dup2\n      0x1\n      and\n      iszero\n      0x100\n      mul\n      sub\n      and\n      0x2\n      swap1\n      div\n      dup1\n      0x1f\n      add\n      0x20\n      dup1\n      swap2\n      div\n      mul\n      0x20\n      add\n      mload(0x40)\n      swap1\n      dup2\n      add\n      0x40\n      mstore\n      dup1\n      swap3\n      swap2\n      swap1\n      dup2\n      dup2\n      mstore\n      0x20\n      add\n      dup3\n      dup1\n      sload\n      0x1\n      dup2\n      0x1\n      and\n      iszero\n      0x100\n      mul\n      sub\n      and\n      0x2\n      swap1\n      div\n      dup1\n      iszero\n      tag_271\n      jumpi\n      dup1\n      0x1f\n      lt\n      tag_272\n      jumpi\n      0x100\n      dup1\n      dup4\n      sload\n      div\n      mul\n      dup4\n      mstore\n      swap2\n      0x20\n      add\n      swap2\n      jump(tag_271)\n    tag_272:\n      dup3\n      add\n      swap2\n      swap1\n      0x0\n      mstore\n      keccak256(0x0, 0x20)\n      swap1\n    tag_273:\n      dup2\n      sload\n      dup2\n      mstore\n      swap1\n      0x1\n      add\n      swap1\n      0x20\n      add\n      dup1\n      dup4\n      gt\n      tag_273\n      jumpi\n      dup3\n      swap1\n      sub\n      0x1f\n      and\n      dup3\n      add\n      swap2\n    tag_271:\n      pop\n      pop\n      pop\n      pop\n      pop\n      swap6\n      pop\n      dup5\n      dup1\n      sload\n      0x1\n      dup2\n      0x1\n      and\n      iszero\n      0x100\n      mul\n      sub\n      and\n      0x2\n      swap1\n      div\n      dup1\n      0x1f\n      add\n      0x20\n      dup1\n      swap2\n      div\n      mul\n      0x20\n      add\n      mload(0x40)\n      swap1\n      dup2\n      add\n      0x40\n      mstore\n      dup1\n      swap3\n      swap2\n      swap1\n      dup2\n      dup2\n      mstore\n      0x20\n      add\n      dup3\n      dup1\n      sload\n      0x1\n      dup2\n      0x1\n      and\n      iszero\n      0x100\n      mul\n      sub\n      and\n      0x2\n      swap1\n      div\n      dup1\n      iszero\n      tag_274\n      jumpi\n      dup1\n      0x1f\n      lt\n      tag_275\n      jumpi\n      0x100\n      dup1\n      dup4\n      sload\n      div\n      mul\n      dup4\n      mstore\n      swap2\n      0x20\n      add\n      swap2\n      jump(tag_274)\n    tag_275:\n      dup3\n      add\n      swap2\n      swap1\n      0x0\n      mstore\n      keccak256(0x0, 0x20)\n      swap1\n    tag_276:\n      dup2\n      sload\n      dup2\n      mstore\n      swap1\n      0x1\n      add\n      swap1\n      0x20\n      add\n      dup1\n      dup4\n      gt\n      tag_276\n      jumpi\n      dup3\n      swap1\n      sub\n      0x1f\n      and\n      dup3\n      add\n      swap2\n    tag_274:\n      pop\n      pop\n      pop\n      pop\n      pop\n      swap5\n      pop\n      dup4\n      dup1\n      sload\n      0x1\n      dup2\n      0x1\n      and\n      iszero\n      0x100\n      mul\n      sub\n      and\n      0x2\n      swap1\n      div\n      dup1\n      0x1f\n      add\n      0x20\n      dup1\n      swap2\n      div\n      mul\n      0x20\n      add\n      mload(0x40)\n      swap1\n      dup2\n      add\n      0x40\n      mstore\n      dup1\n      swap3\n      swap2\n      swap1\n      dup2\n      dup2\n      mstore\n      0x20\n      add\n      dup3\n      dup1\n      sload\n      0x1\n      dup2\n      0x1\n      and\n      iszero\n      0x100\n      mul\n      sub\n      and\n      0x2\n      swap1\n      div\n      dup1\n      iszero\n      tag_277\n      jumpi\n      dup1\n      0x1f\n      lt\n      tag_278\n      jumpi\n      0x100\n      dup1\n      dup4\n      sload\n      div\n      mul\n      dup4\n      mstore\n      swap2\n      0x20\n      add\n      swap2\n      jump(tag_277)\n    tag_278:\n      dup3\n      add\n      swap2\n      swap1\n      0x0\n      mstore\n      keccak256(0x0, 0x20)\n      swap1\n    tag_279:\n      dup2\n      sload\n      dup2\n      mstore\n      swap1\n      0x1\n      add\n      swap1\n      0x20\n      add\n      dup1\n      dup4\n      gt\n      tag_279\n      jumpi\n      dup3\n      swap1\n      sub\n      0x1f\n      and\n      dup3\n      add\n      swap2\n    tag_277:\n      pop\n      pop\n      pop\n      pop\n      pop\n      swap4\n      pop\n      swap7\n      pop\n      swap7\n      pop\n      swap7\n      pop\n      swap7\n      pop\n      swap7\n      pop\n      swap7\n      pop\n        /* \"contracts/ddddd.sol\":6028:6356  function getVaccinationInfo(address _address) public view returns(string, string, string, uint256, address, address) {\r... */\n      pop\n      swap2\n      swap4\n      swap6\n      pop\n      swap2\n      swap4\n      swap6\n      jump\t// out\n        /* \"contracts/ddddd.sol\":1038:1058  address public owner */\n    tag_116:\n      0x0\n      dup1\n      swap1\n      sload\n      swap1\n      0x100\n      exp\n      swap1\n      div\n      0xffffffffffffffffffffffffffffffffffffffff\n      and\n      dup2\n      jump\t// out\n        /* \"contracts/ddddd.sol\":1935:2043  function ownerAddress() public returns(address) {\r... */\n    tag_120:\n        /* \"contracts/ddddd.sol\":1974:1981  address */\n      0x0\n        /* \"contracts/ddddd.sol\":2002:2012  msg.sender */\n      caller\n        /* \"contracts/ddddd.sol\":1994:1999  owner */\n      0x0\n      dup1\n        /* \"contracts/ddddd.sol\":1994:2012  owner = msg.sender */\n      0x100\n      exp\n      dup2\n      sload\n      dup2\n      0xffffffffffffffffffffffffffffffffffffffff\n      mul\n      not\n      and\n      swap1\n      dup4\n      0xffffffffffffffffffffffffffffffffffffffff\n      and\n      mul\n      or\n      swap1\n      sstore\n      pop\n        /* \"contracts/ddddd.sol\":2030:2035  owner */\n      0x0\n      dup1\n      swap1\n      sload\n      swap1\n      0x100\n      exp\n      swap1\n      div\n      0xffffffffffffffffffffffffffffffffffffffff\n      and\n        /* \"contracts/ddddd.sol\":2023:2035  return owner */\n      swap1\n      pop\n        /* \"contracts/ddddd.sol\":1935:2043  function ownerAddress() public returns(address) {\r... */\n      swap1\n      jump\t// out\n        /* \"contracts/ddddd.sol\":1800:1844  uint256 public vaccinationRecordsCounter = 0 */\n    tag_124:\n      sload(0xf)\n      dup2\n      jump\t// out\n        /* \"contracts/ddddd.sol\":1707:1746  uint256 public MoHPermissionCounter = 0 */\n    tag_128:\n      sload(0xd)\n      dup2\n      jump\t// out\n        /* \"contracts/ddddd.sol\":1065:1090  address[] public userList */\n    tag_133:\n      0x1\n      dup2\n      dup2\n      sload\n      dup2\n      lt\n      iszero\n      iszero\n      tag_281\n      jumpi\n      invalid\n    tag_281:\n      swap1\n      0x0\n      mstore\n      keccak256(0x0, 0x20)\n      add\n      0x0\n      swap2\n      pop\n      sload\n      swap1\n      0x100\n      exp\n      swap1\n      div\n      0xffffffffffffffffffffffffffffffffffffffff\n      and\n      dup2\n      jump\t// out\n        /* \"contracts/ddddd.sol\":7318:7407  function getDoctors() public view returns(address[]) {\r... */\n    tag_137:\n        /* \"contracts/ddddd.sol\":7360:7369  address[] */\n      0x60\n        /* \"contracts/ddddd.sol\":7389:7399  doctorList */\n      0x2\n        /* \"contracts/ddddd.sol\":7382:7399  return doctorList */\n      dup1\n      sload\n      dup1\n      0x20\n      mul\n      0x20\n      add\n      mload(0x40)\n      swap1\n      dup2\n      add\n      0x40\n      mstore\n      dup1\n      swap3\n      swap2\n      swap1\n      dup2\n      dup2\n      mstore\n      0x20\n      add\n      dup3\n      dup1\n      sload\n      dup1\n      iszero\n      tag_284\n      jumpi\n      0x20\n      mul\n      dup3\n      add\n      swap2\n      swap1\n      0x0\n      mstore\n      keccak256(0x0, 0x20)\n      swap1\n    tag_285:\n      dup2\n      0x0\n      swap1\n      sload\n      swap1\n      0x100\n      exp\n      swap1\n      div\n      0xffffffffffffffffffffffffffffffffffffffff\n      and\n      0xffffffffffffffffffffffffffffffffffffffff\n      and\n      dup2\n      mstore\n      0x20\n      add\n      swap1\n      0x1\n      add\n      swap1\n      dup1\n      dup4\n      gt\n      tag_285\n      jumpi\n    tag_284:\n      pop\n      pop\n      pop\n      pop\n      pop\n      swap1\n      pop\n        /* \"contracts/ddddd.sol\":7318:7407  function getDoctors() public view returns(address[]) {\r... */\n      swap1\n      jump\t// out\n        /* \"contracts/ddddd.sol\":8478:8566  function getUserCount() public view returns(uint256) {\r... */\n    tag_141:\n        /* \"contracts/ddddd.sol\":8522:8529  uint256 */\n      0x0\n        /* \"contracts/ddddd.sol\":8549:8558  userCount */\n      sload(0xb)\n        /* \"contracts/ddddd.sol\":8542:8558  return userCount */\n      swap1\n      pop\n        /* \"contracts/ddddd.sol\":8478:8566  function getUserCount() public view returns(uint256) {\r... */\n      swap1\n      jump\t// out\n        /* \"contracts/ddddd.sol\":1853:1922  address public mohAdress = 0xc50C6297f56b033633C30354A854b074749cd2dC */\n    tag_145:\n      0x10\n      0x0\n      swap1\n      sload\n      swap1\n      0x100\n      exp\n      swap1\n      div\n      0xffffffffffffffffffffffffffffffffffffffff\n      and\n      dup2\n      jump\t// out\n        /* \"contracts/ddddd.sol\":6993:7213  function MoHRevokePermission(address _address1, address _address2) public returns(bool success) {\r... */\n    tag_151:\n        /* \"contracts/ddddd.sol\":7075:7087  bool success */\n      0x0\n        /* \"contracts/ddddd.sol\":7122:7131  mohAdress */\n      0x10\n      0x0\n      swap1\n      sload\n      swap1\n      0x100\n      exp\n      swap1\n      div\n      0xffffffffffffffffffffffffffffffffffffffff\n      and\n        /* \"contracts/ddddd.sol\":7108:7131  msg.sender == mohAdress */\n      0xffffffffffffffffffffffffffffffffffffffff\n      and\n        /* \"contracts/ddddd.sol\":7108:7118  msg.sender */\n      caller\n        /* \"contracts/ddddd.sol\":7108:7131  msg.sender == mohAdress */\n      0xffffffffffffffffffffffffffffffffffffffff\n      and\n      eq\n        /* \"contracts/ddddd.sol\":7100:7132  require(msg.sender == mohAdress) */\n      iszero\n      iszero\n      tag_288\n      jumpi\n      0x0\n      dup1\n      revert\n    tag_288:\n        /* \"contracts/ddddd.sol\":7178:7183  false */\n      0x0\n        /* \"contracts/ddddd.sol\":7143:7153  isApproved */\n      0x7\n        /* \"contracts/ddddd.sol\":7143:7164  isApproved[_address1] */\n      0x0\n        /* \"contracts/ddddd.sol\":7154:7163  _address1 */\n      dup6\n        /* \"contracts/ddddd.sol\":7143:7164  isApproved[_address1] */\n      0xffffffffffffffffffffffffffffffffffffffff\n      and\n      0xffffffffffffffffffffffffffffffffffffffff\n      and\n      dup2\n      mstore\n      0x20\n      add\n      swap1\n      dup2\n      mstore\n      0x20\n      add\n      0x0\n      keccak256\n        /* \"contracts/ddddd.sol\":7143:7175  isApproved[_address1][_address2] */\n      0x0\n        /* \"contracts/ddddd.sol\":7165:7174  _address2 */\n      dup5\n        /* \"contracts/ddddd.sol\":7143:7175  isApproved[_address1][_address2] */\n      0xffffffffffffffffffffffffffffffffffffffff\n      and\n      0xffffffffffffffffffffffffffffffffffffffff\n      and\n      dup2\n      mstore\n      0x20\n      add\n      swap1\n      dup2\n      mstore\n      0x20\n      add\n      0x0\n      keccak256\n      0x0\n        /* \"contracts/ddddd.sol\":7143:7183  isApproved[_address1][_address2] = false */\n      0x100\n      exp\n      dup2\n      sload\n      dup2\n      0xff\n      mul\n      not\n      and\n      swap1\n      dup4\n      iszero\n      iszero\n      mul\n      or\n      swap1\n      sstore\n      pop\n        /* \"contracts/ddddd.sol\":7201:7205  true */\n      0x1\n        /* \"contracts/ddddd.sol\":7194:7205  return true */\n      swap1\n      pop\n        /* \"contracts/ddddd.sol\":6993:7213  function MoHRevokePermission(address _address1, address _address2) public returns(bool success) {\r... */\n      swap3\n      swap2\n      pop\n      pop\n      jump\t// out\n        /* \"contracts/ddddd.sol\":1753:1793  uint256 public userPermissionCounter = 0 */\n    tag_155:\n      sload(0xe)\n      dup2\n      jump\t// out\n        /* \"contracts/ddddd.sol\":8114:8462  function searchDoctor(address _address) public view returns(string, string, string, string, string, string, string) {\r... */\n    tag_160:\n        /* \"contracts/ddddd.sol\":8174:8180  string */\n      0x60\n        /* \"contracts/ddddd.sol\":8182:8188  string */\n      dup1\n        /* \"contracts/ddddd.sol\":8190:8196  string */\n      0x60\n        /* \"contracts/ddddd.sol\":8198:8204  string */\n      dup1\n        /* \"contracts/ddddd.sol\":8206:8212  string */\n      0x60\n        /* \"contracts/ddddd.sol\":8214:8220  string */\n      dup1\n        /* \"contracts/ddddd.sol\":8222:8228  string */\n      0x60\n        /* \"contracts/ddddd.sol\":8331:8336  var d */\n      0x0\n        /* \"contracts/ddddd.sol\":8249:8259  isApproved */\n      0x7\n        /* \"contracts/ddddd.sol\":8249:8269  isApproved[_address] */\n      0x0\n        /* \"contracts/ddddd.sol\":8260:8268  _address */\n      dup11\n        /* \"contracts/ddddd.sol\":8249:8269  isApproved[_address] */\n      0xffffffffffffffffffffffffffffffffffffffff\n      and\n      0xffffffffffffffffffffffffffffffffffffffff\n      and\n      dup2\n      mstore\n      0x20\n      add\n      swap1\n      dup2\n      mstore\n      0x20\n      add\n      0x0\n      keccak256\n        /* \"contracts/ddddd.sol\":8249:8281  isApproved[_address][msg.sender] */\n      0x0\n        /* \"contracts/ddddd.sol\":8270:8280  msg.sender */\n      caller\n        /* \"contracts/ddddd.sol\":8249:8281  isApproved[_address][msg.sender] */\n      0xffffffffffffffffffffffffffffffffffffffff\n      and\n      0xffffffffffffffffffffffffffffffffffffffff\n      and\n      dup2\n      mstore\n      0x20\n      add\n      swap1\n      dup2\n      mstore\n      0x20\n      add\n      0x0\n      keccak256\n      0x0\n      swap1\n      sload\n      swap1\n      0x100\n      exp\n      swap1\n      div\n      0xff\n      and\n        /* \"contracts/ddddd.sol\":8241:8282  require(isApproved[_address][msg.sender]) */\n      iszero\n      iszero\n      tag_290\n      jumpi\n      0x0\n      dup1\n      revert\n    tag_290:\n        /* \"contracts/ddddd.sol\":8301:8309  isDoctor */\n      0x9\n        /* \"contracts/ddddd.sol\":8301:8319  isDoctor[_address] */\n      0x0\n        /* \"contracts/ddddd.sol\":8310:8318  _address */\n      dup11\n        /* \"contracts/ddddd.sol\":8301:8319  isDoctor[_address] */\n      0xffffffffffffffffffffffffffffffffffffffff\n      and\n      0xffffffffffffffffffffffffffffffffffffffff\n      and\n      dup2\n      mstore\n      0x20\n      add\n      swap1\n      dup2\n      mstore\n      0x20\n      add\n      0x0\n      keccak256\n      0x0\n      swap1\n      sload\n      swap1\n      0x100\n      exp\n      swap1\n      div\n      0xff\n      and\n        /* \"contracts/ddddd.sol\":8293:8320  require(isDoctor[_address]) */\n      iszero\n      iszero\n      tag_291\n      jumpi\n      0x0\n      dup1\n      revert\n    tag_291:\n        /* \"contracts/ddddd.sol\":8339:8345  doctor */\n      0x5\n        /* \"contracts/ddddd.sol\":8339:8355  doctor[_address] */\n      0x0\n        /* \"contracts/ddddd.sol\":8346:8354  _address */\n      dup11\n        /* \"contracts/ddddd.sol\":8339:8355  doctor[_address] */\n      0xffffffffffffffffffffffffffffffffffffffff\n      and\n      0xffffffffffffffffffffffffffffffffffffffff\n      and\n      dup2\n      mstore\n      0x20\n      add\n      swap1\n      dup2\n      mstore\n      0x20\n      add\n      0x0\n      keccak256\n        /* \"contracts/ddddd.sol\":8331:8355  var d = doctor[_address] */\n      swap1\n      pop\n        /* \"contracts/ddddd.sol\":8384:8385  d */\n      dup1\n        /* \"contracts/ddddd.sol\":8384:8391  d.uaeId */\n      0x0\n      add\n        /* \"contracts/ddddd.sol\":8393:8394  d */\n      dup2\n        /* \"contracts/ddddd.sol\":8393:8399  d.name */\n      0x1\n      add\n        /* \"contracts/ddddd.sol\":8401:8402  d */\n      dup3\n        /* \"contracts/ddddd.sol\":8401:8408  d.phone */\n      0x2\n      add\n        /* \"contracts/ddddd.sol\":8410:8411  d */\n      dup4\n        /* \"contracts/ddddd.sol\":8410:8418  d.gender */\n      0x3\n      add\n        /* \"contracts/ddddd.sol\":8420:8421  d */\n      dup5\n        /* \"contracts/ddddd.sol\":8420:8427  d.email */\n      0x5\n      add\n        /* \"contracts/ddddd.sol\":8429:8430  d */\n      dup6\n        /* \"contracts/ddddd.sol\":8429:8444  d.qualification */\n      0x6\n      add\n        /* \"contracts/ddddd.sol\":8446:8447  d */\n      dup7\n        /* \"contracts/ddddd.sol\":8446:8453  d.major */\n      0x7\n      add\n        /* \"contracts/ddddd.sol\":8376:8454  return (d.uaeId, d.name, d.phone, d.gender, d.email, d.qualification, d.major) */\n      dup7\n      dup1\n      sload\n      0x1\n      dup2\n      0x1\n      and\n      iszero\n      0x100\n      mul\n      sub\n      and\n      0x2\n      swap1\n      div\n      dup1\n      0x1f\n      add\n      0x20\n      dup1\n      swap2\n      div\n      mul\n      0x20\n      add\n      mload(0x40)\n      swap1\n      dup2\n      add\n      0x40\n      mstore\n      dup1\n      swap3\n      swap2\n      swap1\n      dup2\n      dup2\n      mstore\n      0x20\n      add\n      dup3\n      dup1\n      sload\n      0x1\n      dup2\n      0x1\n      and\n      iszero\n      0x100\n      mul\n      sub\n      and\n      0x2\n      swap1\n      div\n      dup1\n      iszero\n      tag_292\n      jumpi\n      dup1\n      0x1f\n      lt\n      tag_293\n      jumpi\n      0x100\n      dup1\n      dup4\n      sload\n      div\n      mul\n      dup4\n      mstore\n      swap2\n      0x20\n      add\n      swap2\n      jump(tag_292)\n    tag_293:\n      dup3\n      add\n      swap2\n      swap1\n      0x0\n      mstore\n      keccak256(0x0, 0x20)\n      swap1\n    tag_294:\n      dup2\n      sload\n      dup2\n      mstore\n      swap1\n      0x1\n      add\n      swap1\n      0x20\n      add\n      dup1\n      dup4\n      gt\n      tag_294\n      jumpi\n      dup3\n      swap1\n      sub\n      0x1f\n      and\n      dup3\n      add\n      swap2\n    tag_292:\n      pop\n      pop\n      pop\n      pop\n      pop\n      swap7\n      pop\n      dup6\n      dup1\n      sload\n      0x1\n      dup2\n      0x1\n      and\n      iszero\n      0x100\n      mul\n      sub\n      and\n      0x2\n      swap1\n      div\n      dup1\n      0x1f\n      add\n      0x20\n      dup1\n      swap2\n      div\n      mul\n      0x20\n      add\n      mload(0x40)\n      swap1\n      dup2\n      add\n      0x40\n      mstore\n      dup1\n      swap3\n      swap2\n      swap1\n      dup2\n      dup2\n      mstore\n      0x20\n      add\n      dup3\n      dup1\n      sload\n      0x1\n      dup2\n      0x1\n      and\n      iszero\n      0x100\n      mul\n      sub\n      and\n      0x2\n      swap1\n      div\n      dup1\n      iszero\n      tag_295\n      jumpi\n      dup1\n      0x1f\n      lt\n      tag_296\n      jumpi\n      0x100\n      dup1\n      dup4\n      sload\n      div\n      mul\n      dup4\n      mstore\n      swap2\n      0x20\n      add\n      swap2\n      jump(tag_295)\n    tag_296:\n      dup3\n      add\n      swap2\n      swap1\n      0x0\n      mstore\n      keccak256(0x0, 0x20)\n      swap1\n    tag_297:\n      dup2\n      sload\n      dup2\n      mstore\n      swap1\n      0x1\n      add\n      swap1\n      0x20\n      add\n      dup1\n      dup4\n      gt\n      tag_297\n      jumpi\n      dup3\n      swap1\n      sub\n      0x1f\n      and\n      dup3\n      add\n      swap2\n    tag_295:\n      pop\n      pop\n      pop\n      pop\n      pop\n      swap6\n      pop\n      dup5\n      dup1\n      sload\n      0x1\n      dup2\n      0x1\n      and\n      iszero\n      0x100\n      mul\n      sub\n      and\n      0x2\n      swap1\n      div\n      dup1\n      0x1f\n      add\n      0x20\n      dup1\n      swap2\n      div\n      mul\n      0x20\n      add\n      mload(0x40)\n      swap1\n      dup2\n      add\n      0x40\n      mstore\n      dup1\n      swap3\n      swap2\n      swap1\n      dup2\n      dup2\n      mstore\n      0x20\n      add\n      dup3\n      dup1\n      sload\n      0x1\n      dup2\n      0x1\n      and\n      iszero\n      0x100\n      mul\n      sub\n      and\n      0x2\n      swap1\n      div\n      dup1\n      iszero\n      tag_298\n      jumpi\n      dup1\n      0x1f\n      lt\n      tag_299\n      jumpi\n      0x100\n      dup1\n      dup4\n      sload\n      div\n      mul\n      dup4\n      mstore\n      swap2\n      0x20\n      add\n      swap2\n      jump(tag_298)\n    tag_299:\n      dup3\n      add\n      swap2\n      swap1\n      0x0\n      mstore\n      keccak256(0x0, 0x20)\n      swap1\n    tag_300:\n      dup2\n      sload\n      dup2\n      mstore\n      swap1\n      0x1\n      add\n      swap1\n      0x20\n      add\n      dup1\n      dup4\n      gt\n      tag_300\n      jumpi\n      dup3\n      swap1\n      sub\n      0x1f\n      and\n      dup3\n      add\n      swap2\n    tag_298:\n      pop\n      pop\n      pop\n      pop\n      pop\n      swap5\n      pop\n      dup4\n      dup1\n      sload\n      0x1\n      dup2\n      0x1\n      and\n      iszero\n      0x100\n      mul\n      sub\n      and\n      0x2\n      swap1\n      div\n      dup1\n      0x1f\n      add\n      0x20\n      dup1\n      swap2\n      div\n      mul\n      0x20\n      add\n      mload(0x40)\n      swap1\n      dup2\n      add\n      0x40\n      mstore\n      dup1\n      swap3\n      swap2\n      swap1\n      dup2\n      dup2\n      mstore\n      0x20\n      add\n      dup3\n      dup1\n      sload\n      0x1\n      dup2\n      0x1\n      and\n      iszero\n      0x100\n      mul\n      sub\n      and\n      0x2\n      swap1\n      div\n      dup1\n      iszero\n      tag_301\n      jumpi\n      dup1\n      0x1f\n      lt\n      tag_302\n      jumpi\n      0x100\n      dup1\n      dup4\n      sload\n      div\n      mul\n      dup4\n      mstore\n      swap2\n      0x20\n      add\n      swap2\n      jump(tag_301)\n    tag_302:\n      dup3\n      add\n      swap2\n      swap1\n      0x0\n      mstore\n      keccak256(0x0, 0x20)\n      swap1\n    tag_303:\n      dup2\n      sload\n      dup2\n      mstore\n      swap1\n      0x1\n      add\n      swap1\n      0x20\n      add\n      dup1\n      dup4\n      gt\n      tag_303\n      jumpi\n      dup3\n      swap1\n      sub\n      0x1f\n      and\n      dup3\n      add\n      swap2\n    tag_301:\n      pop\n      pop\n      pop\n      pop\n      pop\n      swap4\n      pop\n      dup3\n      dup1\n      sload\n      0x1\n      dup2\n      0x1\n      and\n      iszero\n      0x100\n      mul\n      sub\n      and\n      0x2\n      swap1\n      div\n      dup1\n      0x1f\n      add\n      0x20\n      dup1\n      swap2\n      div\n      mul\n      0x20\n      add\n      mload(0x40)\n      swap1\n      dup2\n      add\n      0x40\n      mstore\n      dup1\n      swap3\n      swap2\n      swap1\n      dup2\n      dup2\n      mstore\n      0x20\n      add\n      dup3\n      dup1\n      sload\n      0x1\n      dup2\n      0x1\n      and\n      iszero\n      0x100\n      mul\n      sub\n      and\n      0x2\n      swap1\n      div\n      dup1\n      iszero\n      tag_304\n      jumpi\n      dup1\n      0x1f\n      lt\n      tag_305\n      jumpi\n      0x100\n      dup1\n      dup4\n      sload\n      div\n      mul\n      dup4\n      mstore\n      swap2\n      0x20\n      add\n      swap2\n      jump(tag_304)\n    tag_305:\n      dup3\n      add\n      swap2\n      swap1\n      0x0\n      mstore\n      keccak256(0x0, 0x20)\n      swap1\n    tag_306:\n      dup2\n      sload\n      dup2\n      mstore\n      swap1\n      0x1\n      add\n      swap1\n      0x20\n      add\n      dup1\n      dup4\n      gt\n      tag_306\n      jumpi\n      dup3\n      swap1\n      sub\n      0x1f\n      and\n      dup3\n      add\n      swap2\n    tag_304:\n      pop\n      pop\n      pop\n      pop\n      pop\n      swap3\n      pop\n      dup2\n      dup1\n      sload\n      0x1\n      dup2\n      0x1\n      and\n      iszero\n      0x100\n      mul\n      sub\n      and\n      0x2\n      swap1\n      div\n      dup1\n      0x1f\n      add\n      0x20\n      dup1\n      swap2\n      div\n      mul\n      0x20\n      add\n      mload(0x40)\n      swap1\n      dup2\n      add\n      0x40\n      mstore\n      dup1\n      swap3\n      swap2\n      swap1\n      dup2\n      dup2\n      mstore\n      0x20\n      add\n      dup3\n      dup1\n      sload\n      0x1\n      dup2\n      0x1\n      and\n      iszero\n      0x100\n      mul\n      sub\n      and\n      0x2\n      swap1\n      div\n      dup1\n      iszero\n      tag_307\n      jumpi\n      dup1\n      0x1f\n      lt\n      tag_308\n      jumpi\n      0x100\n      dup1\n      dup4\n      sload\n      div\n      mul\n      dup4\n      mstore\n      swap2\n      0x20\n      add\n      swap2\n      jump(tag_307)\n    tag_308:\n      dup3\n      add\n      swap2\n      swap1\n      0x0\n      mstore\n      keccak256(0x0, 0x20)\n      swap1\n    tag_309:\n      dup2\n      sload\n      dup2\n      mstore\n      swap1\n      0x1\n      add\n      swap1\n      0x20\n      add\n      dup1\n      dup4\n      gt\n      tag_309\n      jumpi\n      dup3\n      swap1\n      sub\n      0x1f\n      and\n      dup3\n      add\n      swap2\n    tag_307:\n      pop\n      pop\n      pop\n      pop\n      pop\n      swap2\n      pop\n      dup1\n      dup1\n      sload\n      0x1\n      dup2\n      0x1\n      and\n      iszero\n      0x100\n      mul\n      sub\n      and\n      0x2\n      swap1\n      div\n      dup1\n      0x1f\n      add\n      0x20\n      dup1\n      swap2\n      div\n      mul\n      0x20\n      add\n      mload(0x40)\n      swap1\n      dup2\n      add\n      0x40\n      mstore\n      dup1\n      swap3\n      swap2\n      swap1\n      dup2\n      dup2\n      mstore\n      0x20\n      add\n      dup3\n      dup1\n      sload\n      0x1\n      dup2\n      0x1\n      and\n      iszero\n      0x100\n      mul\n      sub\n      and\n      0x2\n      swap1\n      div\n      dup1\n      iszero\n      tag_310\n      jumpi\n      dup1\n      0x1f\n      lt\n      tag_311\n      jumpi\n      0x100\n      dup1\n      dup4\n      sload\n      div\n      mul\n      dup4\n      mstore\n      swap2\n      0x20\n      add\n      swap2\n      jump(tag_310)\n    tag_311:\n      dup3\n      add\n      swap2\n      swap1\n      0x0\n      mstore\n      keccak256(0x0, 0x20)\n      swap1\n    tag_312:\n      dup2\n      sload\n      dup2\n      mstore\n      swap1\n      0x1\n      add\n      swap1\n      0x20\n      add\n      dup1\n      dup4\n      gt\n      tag_312\n      jumpi\n      dup3\n      swap1\n      sub\n      0x1f\n      and\n      dup3\n      add\n      swap2\n    tag_310:\n      pop\n      pop\n      pop\n      pop\n      pop\n      swap1\n      pop\n      swap8\n      pop\n      swap8\n      pop\n      swap8\n      pop\n      swap8\n      pop\n      swap8\n      pop\n      swap8\n      pop\n      swap8\n      pop\n        /* \"contracts/ddddd.sol\":8114:8462  function searchDoctor(address _address) public view returns(string, string, string, string, string, string, string) {\r... */\n      pop\n      swap2\n      swap4\n      swap6\n      swap8\n      swap1\n      swap3\n      swap5\n      swap7\n      pop\n      jump\t// out\n        /* \"contracts/ddddd.sol\":6565:6817  function givePermissionByMoH(address _address1, address _address2) public returns(bool success) {\r... */\n    tag_166:\n        /* \"contracts/ddddd.sol\":6647:6659  bool success */\n      0x0\n        /* \"contracts/ddddd.sol\":6694:6703  mohAdress */\n      0x10\n      0x0\n      swap1\n      sload\n      swap1\n      0x100\n      exp\n      swap1\n      div\n      0xffffffffffffffffffffffffffffffffffffffff\n      and\n        /* \"contracts/ddddd.sol\":6680:6703  msg.sender == mohAdress */\n      0xffffffffffffffffffffffffffffffffffffffff\n      and\n        /* \"contracts/ddddd.sol\":6680:6690  msg.sender */\n      caller\n        /* \"contracts/ddddd.sol\":6680:6703  msg.sender == mohAdress */\n      0xffffffffffffffffffffffffffffffffffffffff\n      and\n      eq\n        /* \"contracts/ddddd.sol\":6672:6704  require(msg.sender == mohAdress) */\n      iszero\n      iszero\n      tag_314\n      jumpi\n      0x0\n      dup1\n      revert\n    tag_314:\n        /* \"contracts/ddddd.sol\":6750:6754  true */\n      0x1\n        /* \"contracts/ddddd.sol\":6715:6725  isApproved */\n      0x7\n        /* \"contracts/ddddd.sol\":6715:6736  isApproved[_address1] */\n      0x0\n        /* \"contracts/ddddd.sol\":6726:6735  _address1 */\n      dup6\n        /* \"contracts/ddddd.sol\":6715:6736  isApproved[_address1] */\n      0xffffffffffffffffffffffffffffffffffffffff\n      and\n      0xffffffffffffffffffffffffffffffffffffffff\n      and\n      dup2\n      mstore\n      0x20\n      add\n      swap1\n      dup2\n      mstore\n      0x20\n      add\n      0x0\n      keccak256\n        /* \"contracts/ddddd.sol\":6715:6747  isApproved[_address1][_address2] */\n      0x0\n        /* \"contracts/ddddd.sol\":6737:6746  _address2 */\n      dup5\n        /* \"contracts/ddddd.sol\":6715:6747  isApproved[_address1][_address2] */\n      0xffffffffffffffffffffffffffffffffffffffff\n      and\n      0xffffffffffffffffffffffffffffffffffffffff\n      and\n      dup2\n      mstore\n      0x20\n      add\n      swap1\n      dup2\n      mstore\n      0x20\n      add\n      0x0\n      keccak256\n      0x0\n        /* \"contracts/ddddd.sol\":6715:6754  isApproved[_address1][_address2] = true */\n      0x100\n      exp\n      dup2\n      sload\n      dup2\n      0xff\n      mul\n      not\n      and\n      swap1\n      dup4\n      iszero\n      iszero\n      mul\n      or\n      swap1\n      sstore\n      pop\n        /* \"contracts/ddddd.sol\":6765:6785  MoHPermissionCounter */\n      0xd\n      0x0\n        /* \"contracts/ddddd.sol\":6765:6787  MoHPermissionCounter++ */\n      dup2\n      sload\n      dup1\n      swap3\n      swap2\n      swap1\n      0x1\n      add\n      swap2\n      swap1\n      pop\n      sstore\n      pop\n        /* \"contracts/ddddd.sol\":6805:6809  true */\n      0x1\n        /* \"contracts/ddddd.sol\":6798:6809  return true */\n      swap1\n      pop\n        /* \"contracts/ddddd.sol\":6565:6817  function givePermissionByMoH(address _address1, address _address2) public returns(bool success) {\r... */\n      swap3\n      swap2\n      pop\n      pop\n      jump\t// out\n        /* \"contracts/ddddd.sol\":8800:8910  function getMoHPermissionCounter() public view returns(uint256) {\r... */\n    tag_170:\n        /* \"contracts/ddddd.sol\":8855:8862  uint256 */\n      0x0\n        /* \"contracts/ddddd.sol\":8882:8902  MoHPermissionCounter */\n      sload(0xd)\n        /* \"contracts/ddddd.sol\":8875:8902  return MoHPermissionCounter */\n      swap1\n      pop\n        /* \"contracts/ddddd.sol\":8800:8910  function getMoHPermissionCounter() public view returns(uint256) {\r... */\n      swap1\n      jump\t// out\n        /* \"contracts/ddddd.sol\":1131:1163  address[] public vaccinationList */\n    tag_175:\n      0x3\n      dup2\n      dup2\n      sload\n      dup2\n      lt\n      iszero\n      iszero\n      tag_316\n      jumpi\n      invalid\n    tag_316:\n      swap1\n      0x0\n      mstore\n      keccak256(0x0, 0x20)\n      add\n      0x0\n      swap2\n      pop\n      sload\n      swap1\n      0x100\n      exp\n      swap1\n      div\n      0xffffffffffffffffffffffffffffffffffffffff\n      and\n      dup2\n      jump\t// out\n        /* \"contracts/ddddd.sol\":91:9227  contract ddddd {\r... */\n    tag_210:\n      dup3\n      dup1\n      sload\n      0x1\n      dup2\n      0x1\n      and\n      iszero\n      0x100\n      mul\n      sub\n      and\n      0x2\n      swap1\n      div\n      swap1\n      0x0\n      mstore\n      keccak256(0x0, 0x20)\n      swap1\n      0x1f\n      add\n      0x20\n      swap1\n      div\n      dup2\n      add\n      swap3\n      dup3\n      0x1f\n      lt\n      tag_319\n      jumpi\n      dup1\n      mload\n      not(0xff)\n      and\n      dup4\n      dup1\n      add\n      or\n      dup6\n      sstore\n      jump(tag_318)\n    tag_319:\n      dup3\n      dup1\n      add\n      0x1\n      add\n      dup6\n      sstore\n      dup3\n      iszero\n      tag_318\n      jumpi\n      swap2\n      dup3\n      add\n    tag_320:\n      dup3\n      dup2\n      gt\n      iszero\n      tag_321\n      jumpi\n      dup3\n      mload\n      dup3\n      sstore\n      swap2\n      0x20\n      add\n      swap2\n      swap1\n      0x1\n      add\n      swap1\n      jump(tag_320)\n    tag_321:\n    tag_318:\n      pop\n      swap1\n      pop\n      tag_322\n      swap2\n      swap1\n      jump\t// in(tag_323)\n    tag_322:\n      pop\n      swap1\n      jump\t// out\n    tag_323:\n      tag_324\n      swap2\n      swap1\n    tag_325:\n      dup1\n      dup3\n      gt\n      iszero\n      tag_326\n      jumpi\n      0x0\n      dup2\n      0x0\n      swap1\n      sstore\n      pop\n      0x1\n      add\n      jump(tag_325)\n    tag_326:\n      pop\n      swap1\n      jump\n    tag_324:\n      swap1\n      jump\t// out\n        /* \"--CODEGEN--\":5:123   */\n    tag_328:\n      0x0\n        /* \"--CODEGEN--\":72:118   */\n      tag_329\n        /* \"--CODEGEN--\":110:116   */\n      dup3\n        /* \"--CODEGEN--\":97:117   */\n      calldataload\n        /* \"--CODEGEN--\":72:118   */\n      jump(tag_330)\n    tag_329:\n        /* \"--CODEGEN--\":63:118   */\n      swap1\n      pop\n        /* \"--CODEGEN--\":57:123   */\n      swap3\n      swap2\n      pop\n      pop\n      jump\n        /* \"--CODEGEN--\":131:573   */\n    tag_332:\n      0x0\n        /* \"--CODEGEN--\":233:236   */\n      dup3\n        /* \"--CODEGEN--\":226:230   */\n      0x1f\n        /* \"--CODEGEN--\":218:224   */\n      dup4\n        /* \"--CODEGEN--\":214:231   */\n      add\n        /* \"--CODEGEN--\":210:237   */\n      slt\n        /* \"--CODEGEN--\":203:238   */\n      iszero\n        /* \"--CODEGEN--\":200:202   */\n      iszero\n      tag_333\n      jumpi\n        /* \"--CODEGEN--\":251:252   */\n      0x0\n        /* \"--CODEGEN--\":248:249   */\n      dup1\n        /* \"--CODEGEN--\":241:253   */\n      revert\n        /* \"--CODEGEN--\":200:202   */\n    tag_333:\n        /* \"--CODEGEN--\":288:294   */\n      dup2\n        /* \"--CODEGEN--\":275:295   */\n      calldataload\n        /* \"--CODEGEN--\":310:375   */\n      tag_334\n        /* \"--CODEGEN--\":325:374   */\n      tag_335\n        /* \"--CODEGEN--\":367:373   */\n      dup3\n        /* \"--CODEGEN--\":325:374   */\n      jump(tag_336)\n    tag_335:\n        /* \"--CODEGEN--\":310:375   */\n      jump(tag_337)\n    tag_334:\n        /* \"--CODEGEN--\":301:375   */\n      swap2\n      pop\n        /* \"--CODEGEN--\":395:401   */\n      dup1\n        /* \"--CODEGEN--\":388:393   */\n      dup3\n        /* \"--CODEGEN--\":381:402   */\n      mstore\n        /* \"--CODEGEN--\":431:435   */\n      0x20\n        /* \"--CODEGEN--\":423:429   */\n      dup4\n        /* \"--CODEGEN--\":419:436   */\n      add\n        /* \"--CODEGEN--\":464:468   */\n      0x20\n        /* \"--CODEGEN--\":457:462   */\n      dup4\n        /* \"--CODEGEN--\":453:469   */\n      add\n        /* \"--CODEGEN--\":499:502   */\n      dup6\n        /* \"--CODEGEN--\":490:496   */\n      dup4\n        /* \"--CODEGEN--\":485:488   */\n      dup4\n        /* \"--CODEGEN--\":481:497   */\n      add\n        /* \"--CODEGEN--\":478:503   */\n      gt\n        /* \"--CODEGEN--\":475:477   */\n      iszero\n      tag_338\n      jumpi\n        /* \"--CODEGEN--\":516:517   */\n      0x0\n        /* \"--CODEGEN--\":513:514   */\n      dup1\n        /* \"--CODEGEN--\":506:518   */\n      revert\n        /* \"--CODEGEN--\":475:477   */\n    tag_338:\n        /* \"--CODEGEN--\":526:567   */\n      tag_339\n        /* \"--CODEGEN--\":560:566   */\n      dup4\n        /* \"--CODEGEN--\":555:558   */\n      dup3\n        /* \"--CODEGEN--\":550:553   */\n      dup5\n        /* \"--CODEGEN--\":526:567   */\n      jump(tag_340)\n    tag_339:\n        /* \"--CODEGEN--\":193:573   */\n      pop\n      pop\n      pop\n      swap3\n      swap2\n      pop\n      pop\n      jump\n        /* \"--CODEGEN--\":581:699   */\n    tag_342:\n      0x0\n        /* \"--CODEGEN--\":648:694   */\n      tag_343\n        /* \"--CODEGEN--\":686:692   */\n      dup3\n        /* \"--CODEGEN--\":673:693   */\n      calldataload\n        /* \"--CODEGEN--\":648:694   */\n      jump(tag_344)\n    tag_343:\n        /* \"--CODEGEN--\":639:694   */\n      swap1\n      pop\n        /* \"--CODEGEN--\":633:699   */\n      swap3\n      swap2\n      pop\n      pop\n      jump\n        /* \"--CODEGEN--\":706:947   */\n    tag_45:\n      0x0\n        /* \"--CODEGEN--\":810:812   */\n      0x20\n        /* \"--CODEGEN--\":798:807   */\n      dup3\n        /* \"--CODEGEN--\":789:796   */\n      dup5\n        /* \"--CODEGEN--\":785:808   */\n      sub\n        /* \"--CODEGEN--\":781:813   */\n      slt\n        /* \"--CODEGEN--\":778:780   */\n      iszero\n      tag_346\n      jumpi\n        /* \"--CODEGEN--\":826:827   */\n      0x0\n        /* \"--CODEGEN--\":823:824   */\n      dup1\n        /* \"--CODEGEN--\":816:828   */\n      revert\n        /* \"--CODEGEN--\":778:780   */\n    tag_346:\n        /* \"--CODEGEN--\":861:862   */\n      0x0\n        /* \"--CODEGEN--\":878:931   */\n      tag_347\n        /* \"--CODEGEN--\":923:930   */\n      dup5\n        /* \"--CODEGEN--\":914:920   */\n      dup3\n        /* \"--CODEGEN--\":903:912   */\n      dup6\n        /* \"--CODEGEN--\":899:921   */\n      add\n        /* \"--CODEGEN--\":878:931   */\n      jump(tag_328)\n    tag_347:\n        /* \"--CODEGEN--\":868:931   */\n      swap2\n      pop\n        /* \"--CODEGEN--\":840:937   */\n      pop\n        /* \"--CODEGEN--\":772:947   */\n      swap3\n      swap2\n      pop\n      pop\n      jump\n        /* \"--CODEGEN--\":954:1320   */\n    tag_150:\n      0x0\n      dup1\n        /* \"--CODEGEN--\":1075:1077   */\n      0x40\n        /* \"--CODEGEN--\":1063:1072   */\n      dup4\n        /* \"--CODEGEN--\":1054:1061   */\n      dup6\n        /* \"--CODEGEN--\":1050:1073   */\n      sub\n        /* \"--CODEGEN--\":1046:1078   */\n      slt\n        /* \"--CODEGEN--\":1043:1045   */\n      iszero\n      tag_349\n      jumpi\n        /* \"--CODEGEN--\":1091:1092   */\n      0x0\n        /* \"--CODEGEN--\":1088:1089   */\n      dup1\n        /* \"--CODEGEN--\":1081:1093   */\n      revert\n        /* \"--CODEGEN--\":1043:1045   */\n    tag_349:\n        /* \"--CODEGEN--\":1126:1127   */\n      0x0\n        /* \"--CODEGEN--\":1143:1196   */\n      tag_350\n        /* \"--CODEGEN--\":1188:1195   */\n      dup6\n        /* \"--CODEGEN--\":1179:1185   */\n      dup3\n        /* \"--CODEGEN--\":1168:1177   */\n      dup7\n        /* \"--CODEGEN--\":1164:1186   */\n      add\n        /* \"--CODEGEN--\":1143:1196   */\n      jump(tag_328)\n    tag_350:\n        /* \"--CODEGEN--\":1133:1196   */\n      swap3\n      pop\n        /* \"--CODEGEN--\":1105:1202   */\n      pop\n        /* \"--CODEGEN--\":1233:1235   */\n      0x20\n        /* \"--CODEGEN--\":1251:1304   */\n      tag_351\n        /* \"--CODEGEN--\":1296:1303   */\n      dup6\n        /* \"--CODEGEN--\":1287:1293   */\n      dup3\n        /* \"--CODEGEN--\":1276:1285   */\n      dup7\n        /* \"--CODEGEN--\":1272:1294   */\n      add\n        /* \"--CODEGEN--\":1251:1304   */\n      jump(tag_328)\n    tag_351:\n        /* \"--CODEGEN--\":1241:1304   */\n      swap2\n      pop\n        /* \"--CODEGEN--\":1212:1310   */\n      pop\n        /* \"--CODEGEN--\":1037:1320   */\n      swap3\n      pop\n      swap3\n      swap1\n      pop\n      jump\n        /* \"--CODEGEN--\":1327:2514   */\n    tag_78:\n      0x0\n      dup1\n      0x0\n      dup1\n      0x0\n      dup1\n        /* \"--CODEGEN--\":1546:1549   */\n      0xc0\n        /* \"--CODEGEN--\":1534:1543   */\n      dup8\n        /* \"--CODEGEN--\":1525:1532   */\n      dup10\n        /* \"--CODEGEN--\":1521:1544   */\n      sub\n        /* \"--CODEGEN--\":1517:1550   */\n      slt\n        /* \"--CODEGEN--\":1514:1516   */\n      iszero\n      tag_353\n      jumpi\n        /* \"--CODEGEN--\":1563:1564   */\n      0x0\n        /* \"--CODEGEN--\":1560:1561   */\n      dup1\n        /* \"--CODEGEN--\":1553:1565   */\n      revert\n        /* \"--CODEGEN--\":1514:1516   */\n    tag_353:\n        /* \"--CODEGEN--\":1598:1599   */\n      0x0\n        /* \"--CODEGEN--\":1615:1668   */\n      tag_354\n        /* \"--CODEGEN--\":1660:1667   */\n      dup10\n        /* \"--CODEGEN--\":1651:1657   */\n      dup3\n        /* \"--CODEGEN--\":1640:1649   */\n      dup11\n        /* \"--CODEGEN--\":1636:1658   */\n      add\n        /* \"--CODEGEN--\":1615:1668   */\n      jump(tag_328)\n    tag_354:\n        /* \"--CODEGEN--\":1605:1668   */\n      swap7\n      pop\n        /* \"--CODEGEN--\":1577:1674   */\n      pop\n        /* \"--CODEGEN--\":1705:1707   */\n      0x20\n        /* \"--CODEGEN--\":1723:1776   */\n      tag_355\n        /* \"--CODEGEN--\":1768:1775   */\n      dup10\n        /* \"--CODEGEN--\":1759:1765   */\n      dup3\n        /* \"--CODEGEN--\":1748:1757   */\n      dup11\n        /* \"--CODEGEN--\":1744:1766   */\n      add\n        /* \"--CODEGEN--\":1723:1776   */\n      jump(tag_328)\n    tag_355:\n        /* \"--CODEGEN--\":1713:1776   */\n      swap6\n      pop\n        /* \"--CODEGEN--\":1684:1782   */\n      pop\n        /* \"--CODEGEN--\":1841:1843   */\n      0x40\n        /* \"--CODEGEN--\":1830:1839   */\n      dup8\n        /* \"--CODEGEN--\":1826:1844   */\n      add\n        /* \"--CODEGEN--\":1813:1845   */\n      calldataload\n        /* \"--CODEGEN--\":1865:1883   */\n      0xffffffffffffffff\n        /* \"--CODEGEN--\":1857:1863   */\n      dup2\n        /* \"--CODEGEN--\":1854:1884   */\n      gt\n        /* \"--CODEGEN--\":1851:1853   */\n      iszero\n      tag_356\n      jumpi\n        /* \"--CODEGEN--\":1897:1898   */\n      0x0\n        /* \"--CODEGEN--\":1894:1895   */\n      dup1\n        /* \"--CODEGEN--\":1887:1899   */\n      revert\n        /* \"--CODEGEN--\":1851:1853   */\n    tag_356:\n        /* \"--CODEGEN--\":1917:1980   */\n      tag_357\n        /* \"--CODEGEN--\":1972:1979   */\n      dup10\n        /* \"--CODEGEN--\":1963:1969   */\n      dup3\n        /* \"--CODEGEN--\":1952:1961   */\n      dup11\n        /* \"--CODEGEN--\":1948:1970   */\n      add\n        /* \"--CODEGEN--\":1917:1980   */\n      jump(tag_332)\n    tag_357:\n        /* \"--CODEGEN--\":1907:1980   */\n      swap5\n      pop\n        /* \"--CODEGEN--\":1792:1986   */\n      pop\n        /* \"--CODEGEN--\":2045:2047   */\n      0x60\n        /* \"--CODEGEN--\":2034:2043   */\n      dup8\n        /* \"--CODEGEN--\":2030:2048   */\n      add\n        /* \"--CODEGEN--\":2017:2049   */\n      calldataload\n        /* \"--CODEGEN--\":2069:2087   */\n      0xffffffffffffffff\n        /* \"--CODEGEN--\":2061:2067   */\n      dup2\n        /* \"--CODEGEN--\":2058:2088   */\n      gt\n        /* \"--CODEGEN--\":2055:2057   */\n      iszero\n      tag_358\n      jumpi\n        /* \"--CODEGEN--\":2101:2102   */\n      0x0\n        /* \"--CODEGEN--\":2098:2099   */\n      dup1\n        /* \"--CODEGEN--\":2091:2103   */\n      revert\n        /* \"--CODEGEN--\":2055:2057   */\n    tag_358:\n        /* \"--CODEGEN--\":2121:2184   */\n      tag_359\n        /* \"--CODEGEN--\":2176:2183   */\n      dup10\n        /* \"--CODEGEN--\":2167:2173   */\n      dup3\n        /* \"--CODEGEN--\":2156:2165   */\n      dup11\n        /* \"--CODEGEN--\":2152:2174   */\n      add\n        /* \"--CODEGEN--\":2121:2184   */\n      jump(tag_332)\n    tag_359:\n        /* \"--CODEGEN--\":2111:2184   */\n      swap4\n      pop\n        /* \"--CODEGEN--\":1996:2190   */\n      pop\n        /* \"--CODEGEN--\":2249:2252   */\n      0x80\n        /* \"--CODEGEN--\":2238:2247   */\n      dup8\n        /* \"--CODEGEN--\":2234:2253   */\n      add\n        /* \"--CODEGEN--\":2221:2254   */\n      calldataload\n        /* \"--CODEGEN--\":2274:2292   */\n      0xffffffffffffffff\n        /* \"--CODEGEN--\":2266:2272   */\n      dup2\n        /* \"--CODEGEN--\":2263:2293   */\n      gt\n        /* \"--CODEGEN--\":2260:2262   */\n      iszero\n      tag_360\n      jumpi\n        /* \"--CODEGEN--\":2306:2307   */\n      0x0\n        /* \"--CODEGEN--\":2303:2304   */\n      dup1\n        /* \"--CODEGEN--\":2296:2308   */\n      revert\n        /* \"--CODEGEN--\":2260:2262   */\n    tag_360:\n        /* \"--CODEGEN--\":2326:2389   */\n      tag_361\n        /* \"--CODEGEN--\":2381:2388   */\n      dup10\n        /* \"--CODEGEN--\":2372:2378   */\n      dup3\n        /* \"--CODEGEN--\":2361:2370   */\n      dup11\n        /* \"--CODEGEN--\":2357:2379   */\n      add\n        /* \"--CODEGEN--\":2326:2389   */\n      jump(tag_332)\n    tag_361:\n        /* \"--CODEGEN--\":2316:2389   */\n      swap3\n      pop\n        /* \"--CODEGEN--\":2200:2395   */\n      pop\n        /* \"--CODEGEN--\":2426:2429   */\n      0xa0\n        /* \"--CODEGEN--\":2445:2498   */\n      tag_362\n        /* \"--CODEGEN--\":2490:2497   */\n      dup10\n        /* \"--CODEGEN--\":2481:2487   */\n      dup3\n        /* \"--CODEGEN--\":2470:2479   */\n      dup11\n        /* \"--CODEGEN--\":2466:2488   */\n      add\n        /* \"--CODEGEN--\":2445:2498   */\n      jump(tag_342)\n    tag_362:\n        /* \"--CODEGEN--\":2435:2498   */\n      swap2\n      pop\n        /* \"--CODEGEN--\":2405:2504   */\n      pop\n        /* \"--CODEGEN--\":1508:2514   */\n      swap3\n      swap6\n      pop\n      swap3\n      swap6\n      pop\n      swap3\n      swap6\n      jump\n        /* \"--CODEGEN--\":2521:4384   */\n    tag_63:\n      0x0\n      dup1\n      0x0\n      dup1\n      0x0\n      dup1\n      0x0\n      dup1\n        /* \"--CODEGEN--\":2814:2817   */\n      0x100\n        /* \"--CODEGEN--\":2802:2811   */\n      dup10\n        /* \"--CODEGEN--\":2793:2800   */\n      dup12\n        /* \"--CODEGEN--\":2789:2812   */\n      sub\n        /* \"--CODEGEN--\":2785:2818   */\n      slt\n        /* \"--CODEGEN--\":2782:2784   */\n      iszero\n      tag_364\n      jumpi\n        /* \"--CODEGEN--\":2831:2832   */\n      0x0\n        /* \"--CODEGEN--\":2828:2829   */\n      dup1\n        /* \"--CODEGEN--\":2821:2833   */\n      revert\n        /* \"--CODEGEN--\":2782:2784   */\n    tag_364:\n        /* \"--CODEGEN--\":2866:2867   */\n      0x0\n        /* \"--CODEGEN--\":2883:2936   */\n      tag_365\n        /* \"--CODEGEN--\":2928:2935   */\n      dup12\n        /* \"--CODEGEN--\":2919:2925   */\n      dup3\n        /* \"--CODEGEN--\":2908:2917   */\n      dup13\n        /* \"--CODEGEN--\":2904:2926   */\n      add\n        /* \"--CODEGEN--\":2883:2936   */\n      jump(tag_328)\n    tag_365:\n        /* \"--CODEGEN--\":2873:2936   */\n      swap9\n      pop\n        /* \"--CODEGEN--\":2845:2942   */\n      pop\n        /* \"--CODEGEN--\":3001:3003   */\n      0x20\n        /* \"--CODEGEN--\":2990:2999   */\n      dup10\n        /* \"--CODEGEN--\":2986:3004   */\n      add\n        /* \"--CODEGEN--\":2973:3005   */\n      calldataload\n        /* \"--CODEGEN--\":3025:3043   */\n      0xffffffffffffffff\n        /* \"--CODEGEN--\":3017:3023   */\n      dup2\n        /* \"--CODEGEN--\":3014:3044   */\n      gt\n        /* \"--CODEGEN--\":3011:3013   */\n      iszero\n      tag_366\n      jumpi\n        /* \"--CODEGEN--\":3057:3058   */\n      0x0\n        /* \"--CODEGEN--\":3054:3055   */\n      dup1\n        /* \"--CODEGEN--\":3047:3059   */\n      revert\n        /* \"--CODEGEN--\":3011:3013   */\n    tag_366:\n        /* \"--CODEGEN--\":3077:3140   */\n      tag_367\n        /* \"--CODEGEN--\":3132:3139   */\n      dup12\n        /* \"--CODEGEN--\":3123:3129   */\n      dup3\n        /* \"--CODEGEN--\":3112:3121   */\n      dup13\n        /* \"--CODEGEN--\":3108:3130   */\n      add\n        /* \"--CODEGEN--\":3077:3140   */\n      jump(tag_332)\n    tag_367:\n        /* \"--CODEGEN--\":3067:3140   */\n      swap8\n      pop\n        /* \"--CODEGEN--\":2952:3146   */\n      pop\n        /* \"--CODEGEN--\":3205:3207   */\n      0x40\n        /* \"--CODEGEN--\":3194:3203   */\n      dup10\n        /* \"--CODEGEN--\":3190:3208   */\n      add\n        /* \"--CODEGEN--\":3177:3209   */\n      calldataload\n        /* \"--CODEGEN--\":3229:3247   */\n      0xffffffffffffffff\n        /* \"--CODEGEN--\":3221:3227   */\n      dup2\n        /* \"--CODEGEN--\":3218:3248   */\n      gt\n        /* \"--CODEGEN--\":3215:3217   */\n      iszero\n      tag_368\n      jumpi\n        /* \"--CODEGEN--\":3261:3262   */\n      0x0\n        /* \"--CODEGEN--\":3258:3259   */\n      dup1\n        /* \"--CODEGEN--\":3251:3263   */\n      revert\n        /* \"--CODEGEN--\":3215:3217   */\n    tag_368:\n        /* \"--CODEGEN--\":3281:3344   */\n      tag_369\n        /* \"--CODEGEN--\":3336:3343   */\n      dup12\n        /* \"--CODEGEN--\":3327:3333   */\n      dup3\n        /* \"--CODEGEN--\":3316:3325   */\n      dup13\n        /* \"--CODEGEN--\":3312:3334   */\n      add\n        /* \"--CODEGEN--\":3281:3344   */\n      jump(tag_332)\n    tag_369:\n        /* \"--CODEGEN--\":3271:3344   */\n      swap7\n      pop\n        /* \"--CODEGEN--\":3156:3350   */\n      pop\n        /* \"--CODEGEN--\":3409:3411   */\n      0x60\n        /* \"--CODEGEN--\":3398:3407   */\n      dup10\n        /* \"--CODEGEN--\":3394:3412   */\n      add\n        /* \"--CODEGEN--\":3381:3413   */\n      calldataload\n        /* \"--CODEGEN--\":3433:3451   */\n      0xffffffffffffffff\n        /* \"--CODEGEN--\":3425:3431   */\n      dup2\n        /* \"--CODEGEN--\":3422:3452   */\n      gt\n        /* \"--CODEGEN--\":3419:3421   */\n      iszero\n      tag_370\n      jumpi\n        /* \"--CODEGEN--\":3465:3466   */\n      0x0\n        /* \"--CODEGEN--\":3462:3463   */\n      dup1\n        /* \"--CODEGEN--\":3455:3467   */\n      revert\n        /* \"--CODEGEN--\":3419:3421   */\n    tag_370:\n        /* \"--CODEGEN--\":3485:3548   */\n      tag_371\n        /* \"--CODEGEN--\":3540:3547   */\n      dup12\n        /* \"--CODEGEN--\":3531:3537   */\n      dup3\n        /* \"--CODEGEN--\":3520:3529   */\n      dup13\n        /* \"--CODEGEN--\":3516:3538   */\n      add\n        /* \"--CODEGEN--\":3485:3548   */\n      jump(tag_332)\n    tag_371:\n        /* \"--CODEGEN--\":3475:3548   */\n      swap6\n      pop\n        /* \"--CODEGEN--\":3360:3554   */\n      pop\n        /* \"--CODEGEN--\":3613:3616   */\n      0x80\n        /* \"--CODEGEN--\":3602:3611   */\n      dup10\n        /* \"--CODEGEN--\":3598:3617   */\n      add\n        /* \"--CODEGEN--\":3585:3618   */\n      calldataload\n        /* \"--CODEGEN--\":3638:3656   */\n      0xffffffffffffffff\n        /* \"--CODEGEN--\":3630:3636   */\n      dup2\n        /* \"--CODEGEN--\":3627:3657   */\n      gt\n        /* \"--CODEGEN--\":3624:3626   */\n      iszero\n      tag_372\n      jumpi\n        /* \"--CODEGEN--\":3670:3671   */\n      0x0\n        /* \"--CODEGEN--\":3667:3668   */\n      dup1\n        /* \"--CODEGEN--\":3660:3672   */\n      revert\n        /* \"--CODEGEN--\":3624:3626   */\n    tag_372:\n        /* \"--CODEGEN--\":3690:3753   */\n      tag_373\n        /* \"--CODEGEN--\":3745:3752   */\n      dup12\n        /* \"--CODEGEN--\":3736:3742   */\n      dup3\n        /* \"--CODEGEN--\":3725:3734   */\n      dup13\n        /* \"--CODEGEN--\":3721:3743   */\n      add\n        /* \"--CODEGEN--\":3690:3753   */\n      jump(tag_332)\n    tag_373:\n        /* \"--CODEGEN--\":3680:3753   */\n      swap5\n      pop\n        /* \"--CODEGEN--\":3564:3759   */\n      pop\n        /* \"--CODEGEN--\":3818:3821   */\n      0xa0\n        /* \"--CODEGEN--\":3807:3816   */\n      dup10\n        /* \"--CODEGEN--\":3803:3822   */\n      add\n        /* \"--CODEGEN--\":3790:3823   */\n      calldataload\n        /* \"--CODEGEN--\":3843:3861   */\n      0xffffffffffffffff\n        /* \"--CODEGEN--\":3835:3841   */\n      dup2\n        /* \"--CODEGEN--\":3832:3862   */\n      gt\n        /* \"--CODEGEN--\":3829:3831   */\n      iszero\n      tag_374\n      jumpi\n        /* \"--CODEGEN--\":3875:3876   */\n      0x0\n        /* \"--CODEGEN--\":3872:3873   */\n      dup1\n        /* \"--CODEGEN--\":3865:3877   */\n      revert\n        /* \"--CODEGEN--\":3829:3831   */\n    tag_374:\n        /* \"--CODEGEN--\":3895:3958   */\n      tag_375\n        /* \"--CODEGEN--\":3950:3957   */\n      dup12\n        /* \"--CODEGEN--\":3941:3947   */\n      dup3\n        /* \"--CODEGEN--\":3930:3939   */\n      dup13\n        /* \"--CODEGEN--\":3926:3948   */\n      add\n        /* \"--CODEGEN--\":3895:3958   */\n      jump(tag_332)\n    tag_375:\n        /* \"--CODEGEN--\":3885:3958   */\n      swap4\n      pop\n        /* \"--CODEGEN--\":3769:3964   */\n      pop\n        /* \"--CODEGEN--\":4023:4026   */\n      0xc0\n        /* \"--CODEGEN--\":4012:4021   */\n      dup10\n        /* \"--CODEGEN--\":4008:4027   */\n      add\n        /* \"--CODEGEN--\":3995:4028   */\n      calldataload\n        /* \"--CODEGEN--\":4048:4066   */\n      0xffffffffffffffff\n        /* \"--CODEGEN--\":4040:4046   */\n      dup2\n        /* \"--CODEGEN--\":4037:4067   */\n      gt\n        /* \"--CODEGEN--\":4034:4036   */\n      iszero\n      tag_376\n      jumpi\n        /* \"--CODEGEN--\":4080:4081   */\n      0x0\n        /* \"--CODEGEN--\":4077:4078   */\n      dup1\n        /* \"--CODEGEN--\":4070:4082   */\n      revert\n        /* \"--CODEGEN--\":4034:4036   */\n    tag_376:\n        /* \"--CODEGEN--\":4100:4163   */\n      tag_377\n        /* \"--CODEGEN--\":4155:4162   */\n      dup12\n        /* \"--CODEGEN--\":4146:4152   */\n      dup3\n        /* \"--CODEGEN--\":4135:4144   */\n      dup13\n        /* \"--CODEGEN--\":4131:4153   */\n      add\n        /* \"--CODEGEN--\":4100:4163   */\n      jump(tag_332)\n    tag_377:\n        /* \"--CODEGEN--\":4090:4163   */\n      swap3\n      pop\n        /* \"--CODEGEN--\":3974:4169   */\n      pop\n        /* \"--CODEGEN--\":4228:4231   */\n      0xe0\n        /* \"--CODEGEN--\":4217:4226   */\n      dup10\n        /* \"--CODEGEN--\":4213:4232   */\n      add\n        /* \"--CODEGEN--\":4200:4233   */\n      calldataload\n        /* \"--CODEGEN--\":4253:4271   */\n      0xffffffffffffffff\n        /* \"--CODEGEN--\":4245:4251   */\n      dup2\n        /* \"--CODEGEN--\":4242:4272   */\n      gt\n        /* \"--CODEGEN--\":4239:4241   */\n      iszero\n      tag_378\n      jumpi\n        /* \"--CODEGEN--\":4285:4286   */\n      0x0\n        /* \"--CODEGEN--\":4282:4283   */\n      dup1\n        /* \"--CODEGEN--\":4275:4287   */\n      revert\n        /* \"--CODEGEN--\":4239:4241   */\n    tag_378:\n        /* \"--CODEGEN--\":4305:4368   */\n      tag_379\n        /* \"--CODEGEN--\":4360:4367   */\n      dup12\n        /* \"--CODEGEN--\":4351:4357   */\n      dup3\n        /* \"--CODEGEN--\":4340:4349   */\n      dup13\n        /* \"--CODEGEN--\":4336:4358   */\n      add\n        /* \"--CODEGEN--\":4305:4368   */\n      jump(tag_332)\n    tag_379:\n        /* \"--CODEGEN--\":4295:4368   */\n      swap2\n      pop\n        /* \"--CODEGEN--\":4179:4374   */\n      pop\n        /* \"--CODEGEN--\":2776:4384   */\n      swap3\n      swap6\n      swap9\n      pop\n      swap3\n      swap6\n      swap9\n      swap1\n      swap4\n      swap7\n      pop\n      jump\n        /* \"--CODEGEN--\":4391:6718   */\n    tag_89:\n      0x0\n      dup1\n      0x0\n      dup1\n      0x0\n      dup1\n      0x0\n      dup1\n      0x0\n      dup1\n        /* \"--CODEGEN--\":4738:4741   */\n      0x140\n        /* \"--CODEGEN--\":4726:4735   */\n      dup12\n        /* \"--CODEGEN--\":4717:4724   */\n      dup14\n        /* \"--CODEGEN--\":4713:4736   */\n      sub\n        /* \"--CODEGEN--\":4709:4742   */\n      slt\n        /* \"--CODEGEN--\":4706:4708   */\n      iszero\n      tag_381\n      jumpi\n        /* \"--CODEGEN--\":4755:4756   */\n      0x0\n        /* \"--CODEGEN--\":4752:4753   */\n      dup1\n        /* \"--CODEGEN--\":4745:4757   */\n      revert\n        /* \"--CODEGEN--\":4706:4708   */\n    tag_381:\n        /* \"--CODEGEN--\":4790:4791   */\n      0x0\n        /* \"--CODEGEN--\":4807:4860   */\n      tag_382\n        /* \"--CODEGEN--\":4852:4859   */\n      dup14\n        /* \"--CODEGEN--\":4843:4849   */\n      dup3\n        /* \"--CODEGEN--\":4832:4841   */\n      dup15\n        /* \"--CODEGEN--\":4828:4850   */\n      add\n        /* \"--CODEGEN--\":4807:4860   */\n      jump(tag_328)\n    tag_382:\n        /* \"--CODEGEN--\":4797:4860   */\n      swap11\n      pop\n        /* \"--CODEGEN--\":4769:4866   */\n      pop\n        /* \"--CODEGEN--\":4925:4927   */\n      0x20\n        /* \"--CODEGEN--\":4914:4923   */\n      dup12\n        /* \"--CODEGEN--\":4910:4928   */\n      add\n        /* \"--CODEGEN--\":4897:4929   */\n      calldataload\n        /* \"--CODEGEN--\":4949:4967   */\n      0xffffffffffffffff\n        /* \"--CODEGEN--\":4941:4947   */\n      dup2\n        /* \"--CODEGEN--\":4938:4968   */\n      gt\n        /* \"--CODEGEN--\":4935:4937   */\n      iszero\n      tag_383\n      jumpi\n        /* \"--CODEGEN--\":4981:4982   */\n      0x0\n        /* \"--CODEGEN--\":4978:4979   */\n      dup1\n        /* \"--CODEGEN--\":4971:4983   */\n      revert\n        /* \"--CODEGEN--\":4935:4937   */\n    tag_383:\n        /* \"--CODEGEN--\":5001:5064   */\n      tag_384\n        /* \"--CODEGEN--\":5056:5063   */\n      dup14\n        /* \"--CODEGEN--\":5047:5053   */\n      dup3\n        /* \"--CODEGEN--\":5036:5045   */\n      dup15\n        /* \"--CODEGEN--\":5032:5054   */\n      add\n        /* \"--CODEGEN--\":5001:5064   */\n      jump(tag_332)\n    tag_384:\n        /* \"--CODEGEN--\":4991:5064   */\n      swap10\n      pop\n        /* \"--CODEGEN--\":4876:5070   */\n      pop\n        /* \"--CODEGEN--\":5129:5131   */\n      0x40\n        /* \"--CODEGEN--\":5118:5127   */\n      dup12\n        /* \"--CODEGEN--\":5114:5132   */\n      add\n        /* \"--CODEGEN--\":5101:5133   */\n      calldataload\n        /* \"--CODEGEN--\":5153:5171   */\n      0xffffffffffffffff\n        /* \"--CODEGEN--\":5145:5151   */\n      dup2\n        /* \"--CODEGEN--\":5142:5172   */\n      gt\n        /* \"--CODEGEN--\":5139:5141   */\n      iszero\n      tag_385\n      jumpi\n        /* \"--CODEGEN--\":5185:5186   */\n      0x0\n        /* \"--CODEGEN--\":5182:5183   */\n      dup1\n        /* \"--CODEGEN--\":5175:5187   */\n      revert\n        /* \"--CODEGEN--\":5139:5141   */\n    tag_385:\n        /* \"--CODEGEN--\":5205:5268   */\n      tag_386\n        /* \"--CODEGEN--\":5260:5267   */\n      dup14\n        /* \"--CODEGEN--\":5251:5257   */\n      dup3\n        /* \"--CODEGEN--\":5240:5249   */\n      dup15\n        /* \"--CODEGEN--\":5236:5258   */\n      add\n        /* \"--CODEGEN--\":5205:5268   */\n      jump(tag_332)\n    tag_386:\n        /* \"--CODEGEN--\":5195:5268   */\n      swap9\n      pop\n        /* \"--CODEGEN--\":5080:5274   */\n      pop\n        /* \"--CODEGEN--\":5333:5335   */\n      0x60\n        /* \"--CODEGEN--\":5322:5331   */\n      dup12\n        /* \"--CODEGEN--\":5318:5336   */\n      add\n        /* \"--CODEGEN--\":5305:5337   */\n      calldataload\n        /* \"--CODEGEN--\":5357:5375   */\n      0xffffffffffffffff\n        /* \"--CODEGEN--\":5349:5355   */\n      dup2\n        /* \"--CODEGEN--\":5346:5376   */\n      gt\n        /* \"--CODEGEN--\":5343:5345   */\n      iszero\n      tag_387\n      jumpi\n        /* \"--CODEGEN--\":5389:5390   */\n      0x0\n        /* \"--CODEGEN--\":5386:5387   */\n      dup1\n        /* \"--CODEGEN--\":5379:5391   */\n      revert\n        /* \"--CODEGEN--\":5343:5345   */\n    tag_387:\n        /* \"--CODEGEN--\":5409:5472   */\n      tag_388\n        /* \"--CODEGEN--\":5464:5471   */\n      dup14\n        /* \"--CODEGEN--\":5455:5461   */\n      dup3\n        /* \"--CODEGEN--\":5444:5453   */\n      dup15\n        /* \"--CODEGEN--\":5440:5462   */\n      add\n        /* \"--CODEGEN--\":5409:5472   */\n      jump(tag_332)\n    tag_388:\n        /* \"--CODEGEN--\":5399:5472   */\n      swap8\n      pop\n        /* \"--CODEGEN--\":5284:5478   */\n      pop\n        /* \"--CODEGEN--\":5537:5540   */\n      0x80\n        /* \"--CODEGEN--\":5526:5535   */\n      dup12\n        /* \"--CODEGEN--\":5522:5541   */\n      add\n        /* \"--CODEGEN--\":5509:5542   */\n      calldataload\n        /* \"--CODEGEN--\":5562:5580   */\n      0xffffffffffffffff\n        /* \"--CODEGEN--\":5554:5560   */\n      dup2\n        /* \"--CODEGEN--\":5551:5581   */\n      gt\n        /* \"--CODEGEN--\":5548:5550   */\n      iszero\n      tag_389\n      jumpi\n        /* \"--CODEGEN--\":5594:5595   */\n      0x0\n        /* \"--CODEGEN--\":5591:5592   */\n      dup1\n        /* \"--CODEGEN--\":5584:5596   */\n      revert\n        /* \"--CODEGEN--\":5548:5550   */\n    tag_389:\n        /* \"--CODEGEN--\":5614:5677   */\n      tag_390\n        /* \"--CODEGEN--\":5669:5676   */\n      dup14\n        /* \"--CODEGEN--\":5660:5666   */\n      dup3\n        /* \"--CODEGEN--\":5649:5658   */\n      dup15\n        /* \"--CODEGEN--\":5645:5667   */\n      add\n        /* \"--CODEGEN--\":5614:5677   */\n      jump(tag_332)\n    tag_390:\n        /* \"--CODEGEN--\":5604:5677   */\n      swap7\n      pop\n        /* \"--CODEGEN--\":5488:5683   */\n      pop\n        /* \"--CODEGEN--\":5742:5745   */\n      0xa0\n        /* \"--CODEGEN--\":5731:5740   */\n      dup12\n        /* \"--CODEGEN--\":5727:5746   */\n      add\n        /* \"--CODEGEN--\":5714:5747   */\n      calldataload\n        /* \"--CODEGEN--\":5767:5785   */\n      0xffffffffffffffff\n        /* \"--CODEGEN--\":5759:5765   */\n      dup2\n        /* \"--CODEGEN--\":5756:5786   */\n      gt\n        /* \"--CODEGEN--\":5753:5755   */\n      iszero\n      tag_391\n      jumpi\n        /* \"--CODEGEN--\":5799:5800   */\n      0x0\n        /* \"--CODEGEN--\":5796:5797   */\n      dup1\n        /* \"--CODEGEN--\":5789:5801   */\n      revert\n        /* \"--CODEGEN--\":5753:5755   */\n    tag_391:\n        /* \"--CODEGEN--\":5819:5882   */\n      tag_392\n        /* \"--CODEGEN--\":5874:5881   */\n      dup14\n        /* \"--CODEGEN--\":5865:5871   */\n      dup3\n        /* \"--CODEGEN--\":5854:5863   */\n      dup15\n        /* \"--CODEGEN--\":5850:5872   */\n      add\n        /* \"--CODEGEN--\":5819:5882   */\n      jump(tag_332)\n    tag_392:\n        /* \"--CODEGEN--\":5809:5882   */\n      swap6\n      pop\n        /* \"--CODEGEN--\":5693:5888   */\n      pop\n        /* \"--CODEGEN--\":5947:5950   */\n      0xc0\n        /* \"--CODEGEN--\":5936:5945   */\n      dup12\n        /* \"--CODEGEN--\":5932:5951   */\n      add\n        /* \"--CODEGEN--\":5919:5952   */\n      calldataload\n        /* \"--CODEGEN--\":5972:5990   */\n      0xffffffffffffffff\n        /* \"--CODEGEN--\":5964:5970   */\n      dup2\n        /* \"--CODEGEN--\":5961:5991   */\n      gt\n        /* \"--CODEGEN--\":5958:5960   */\n      iszero\n      tag_393\n      jumpi\n        /* \"--CODEGEN--\":6004:6005   */\n      0x0\n        /* \"--CODEGEN--\":6001:6002   */\n      dup1\n        /* \"--CODEGEN--\":5994:6006   */\n      revert\n        /* \"--CODEGEN--\":5958:5960   */\n    tag_393:\n        /* \"--CODEGEN--\":6024:6087   */\n      tag_394\n        /* \"--CODEGEN--\":6079:6086   */\n      dup14\n        /* \"--CODEGEN--\":6070:6076   */\n      dup3\n        /* \"--CODEGEN--\":6059:6068   */\n      dup15\n        /* \"--CODEGEN--\":6055:6077   */\n      add\n        /* \"--CODEGEN--\":6024:6087   */\n      jump(tag_332)\n    tag_394:\n        /* \"--CODEGEN--\":6014:6087   */\n      swap5\n      pop\n        /* \"--CODEGEN--\":5898:6093   */\n      pop\n        /* \"--CODEGEN--\":6152:6155   */\n      0xe0\n        /* \"--CODEGEN--\":6141:6150   */\n      dup12\n        /* \"--CODEGEN--\":6137:6156   */\n      add\n        /* \"--CODEGEN--\":6124:6157   */\n      calldataload\n        /* \"--CODEGEN--\":6177:6195   */\n      0xffffffffffffffff\n        /* \"--CODEGEN--\":6169:6175   */\n      dup2\n        /* \"--CODEGEN--\":6166:6196   */\n      gt\n        /* \"--CODEGEN--\":6163:6165   */\n      iszero\n      tag_395\n      jumpi\n        /* \"--CODEGEN--\":6209:6210   */\n      0x0\n        /* \"--CODEGEN--\":6206:6207   */\n      dup1\n        /* \"--CODEGEN--\":6199:6211   */\n      revert\n        /* \"--CODEGEN--\":6163:6165   */\n    tag_395:\n        /* \"--CODEGEN--\":6229:6292   */\n      tag_396\n        /* \"--CODEGEN--\":6284:6291   */\n      dup14\n        /* \"--CODEGEN--\":6275:6281   */\n      dup3\n        /* \"--CODEGEN--\":6264:6273   */\n      dup15\n        /* \"--CODEGEN--\":6260:6282   */\n      add\n        /* \"--CODEGEN--\":6229:6292   */\n      jump(tag_332)\n    tag_396:\n        /* \"--CODEGEN--\":6219:6292   */\n      swap4\n      pop\n        /* \"--CODEGEN--\":6103:6298   */\n      pop\n        /* \"--CODEGEN--\":6357:6360   */\n      0x100\n        /* \"--CODEGEN--\":6346:6355   */\n      dup12\n        /* \"--CODEGEN--\":6342:6361   */\n      add\n        /* \"--CODEGEN--\":6329:6362   */\n      calldataload\n        /* \"--CODEGEN--\":6382:6400   */\n      0xffffffffffffffff\n        /* \"--CODEGEN--\":6374:6380   */\n      dup2\n        /* \"--CODEGEN--\":6371:6401   */\n      gt\n        /* \"--CODEGEN--\":6368:6370   */\n      iszero\n      tag_397\n      jumpi\n        /* \"--CODEGEN--\":6414:6415   */\n      0x0\n        /* \"--CODEGEN--\":6411:6412   */\n      dup1\n        /* \"--CODEGEN--\":6404:6416   */\n      revert\n        /* \"--CODEGEN--\":6368:6370   */\n    tag_397:\n        /* \"--CODEGEN--\":6434:6497   */\n      tag_398\n        /* \"--CODEGEN--\":6489:6496   */\n      dup14\n        /* \"--CODEGEN--\":6480:6486   */\n      dup3\n        /* \"--CODEGEN--\":6469:6478   */\n      dup15\n        /* \"--CODEGEN--\":6465:6487   */\n      add\n        /* \"--CODEGEN--\":6434:6497   */\n      jump(tag_332)\n    tag_398:\n        /* \"--CODEGEN--\":6424:6497   */\n      swap3\n      pop\n        /* \"--CODEGEN--\":6308:6503   */\n      pop\n        /* \"--CODEGEN--\":6562:6565   */\n      0x120\n        /* \"--CODEGEN--\":6551:6560   */\n      dup12\n        /* \"--CODEGEN--\":6547:6566   */\n      add\n        /* \"--CODEGEN--\":6534:6567   */\n      calldataload\n        /* \"--CODEGEN--\":6587:6605   */\n      0xffffffffffffffff\n        /* \"--CODEGEN--\":6579:6585   */\n      dup2\n        /* \"--CODEGEN--\":6576:6606   */\n      gt\n        /* \"--CODEGEN--\":6573:6575   */\n      iszero\n      tag_399\n      jumpi\n        /* \"--CODEGEN--\":6619:6620   */\n      0x0\n        /* \"--CODEGEN--\":6616:6617   */\n      dup1\n        /* \"--CODEGEN--\":6609:6621   */\n      revert\n        /* \"--CODEGEN--\":6573:6575   */\n    tag_399:\n        /* \"--CODEGEN--\":6639:6702   */\n      tag_400\n        /* \"--CODEGEN--\":6694:6701   */\n      dup14\n        /* \"--CODEGEN--\":6685:6691   */\n      dup3\n        /* \"--CODEGEN--\":6674:6683   */\n      dup15\n        /* \"--CODEGEN--\":6670:6692   */\n      add\n        /* \"--CODEGEN--\":6639:6702   */\n      jump(tag_332)\n    tag_400:\n        /* \"--CODEGEN--\":6629:6702   */\n      swap2\n      pop\n        /* \"--CODEGEN--\":6513:6708   */\n      pop\n        /* \"--CODEGEN--\":4700:6718   */\n      swap3\n      swap6\n      swap9\n      swap12\n      swap2\n      swap5\n      swap8\n      swap11\n      pop\n      swap3\n      swap6\n      swap9\n      pop\n      jump\n        /* \"--CODEGEN--\":6725:6966   */\n    tag_56:\n      0x0\n        /* \"--CODEGEN--\":6829:6831   */\n      0x20\n        /* \"--CODEGEN--\":6817:6826   */\n      dup3\n        /* \"--CODEGEN--\":6808:6815   */\n      dup5\n        /* \"--CODEGEN--\":6804:6827   */\n      sub\n        /* \"--CODEGEN--\":6800:6832   */\n      slt\n        /* \"--CODEGEN--\":6797:6799   */\n      iszero\n      tag_402\n      jumpi\n        /* \"--CODEGEN--\":6845:6846   */\n      0x0\n        /* \"--CODEGEN--\":6842:6843   */\n      dup1\n        /* \"--CODEGEN--\":6835:6847   */\n      revert\n        /* \"--CODEGEN--\":6797:6799   */\n    tag_402:\n        /* \"--CODEGEN--\":6880:6881   */\n      0x0\n        /* \"--CODEGEN--\":6897:6950   */\n      tag_403\n        /* \"--CODEGEN--\":6942:6949   */\n      dup5\n        /* \"--CODEGEN--\":6933:6939   */\n      dup3\n        /* \"--CODEGEN--\":6922:6931   */\n      dup6\n        /* \"--CODEGEN--\":6918:6940   */\n      add\n        /* \"--CODEGEN--\":6897:6950   */\n      jump(tag_342)\n    tag_403:\n        /* \"--CODEGEN--\":6887:6950   */\n      swap2\n      pop\n        /* \"--CODEGEN--\":6859:6956   */\n      pop\n        /* \"--CODEGEN--\":6791:6966   */\n      swap3\n      swap2\n      pop\n      pop\n      jump\n        /* \"--CODEGEN--\":6973:7083   */\n    tag_405:\n        /* \"--CODEGEN--\":7046:7077   */\n      tag_406\n        /* \"--CODEGEN--\":7071:7076   */\n      dup2\n        /* \"--CODEGEN--\":7046:7077   */\n      jump(tag_407)\n    tag_406:\n        /* \"--CODEGEN--\":7041:7044   */\n      dup3\n        /* \"--CODEGEN--\":7034:7078   */\n      mstore\n        /* \"--CODEGEN--\":7028:7083   */\n      pop\n      pop\n      jump\n        /* \"--CODEGEN--\":7121:7711   */\n    tag_409:\n      0x0\n        /* \"--CODEGEN--\":7256:7310   */\n      tag_410\n        /* \"--CODEGEN--\":7304:7309   */\n      dup3\n        /* \"--CODEGEN--\":7256:7310   */\n      jump(tag_411)\n    tag_410:\n        /* \"--CODEGEN--\":7328:7334   */\n      dup1\n        /* \"--CODEGEN--\":7323:7326   */\n      dup5\n        /* \"--CODEGEN--\":7316:7335   */\n      mstore\n        /* \"--CODEGEN--\":7352:7356   */\n      0x20\n        /* \"--CODEGEN--\":7347:7350   */\n      dup5\n        /* \"--CODEGEN--\":7343:7357   */\n      add\n        /* \"--CODEGEN--\":7336:7357   */\n      swap4\n      pop\n        /* \"--CODEGEN--\":7397:7453   */\n      tag_412\n        /* \"--CODEGEN--\":7447:7452   */\n      dup4\n        /* \"--CODEGEN--\":7397:7453   */\n      jump(tag_413)\n    tag_412:\n        /* \"--CODEGEN--\":7474:7475   */\n      0x0\n        /* \"--CODEGEN--\":7459:7689   */\n    tag_414:\n        /* \"--CODEGEN--\":7484:7490   */\n      dup3\n        /* \"--CODEGEN--\":7481:7482   */\n      dup2\n        /* \"--CODEGEN--\":7478:7491   */\n      lt\n        /* \"--CODEGEN--\":7459:7689   */\n      iszero\n      tag_415\n      jumpi\n        /* \"--CODEGEN--\":7524:7577   */\n      tag_417\n        /* \"--CODEGEN--\":7573:7576   */\n      dup7\n        /* \"--CODEGEN--\":7564:7570   */\n      dup4\n        /* \"--CODEGEN--\":7558:7571   */\n      mload\n        /* \"--CODEGEN--\":7524:7577   */\n      jump(tag_405)\n    tag_417:\n        /* \"--CODEGEN--\":7594:7654   */\n      tag_418\n        /* \"--CODEGEN--\":7647:7653   */\n      dup3\n        /* \"--CODEGEN--\":7594:7654   */\n      jump(tag_419)\n    tag_418:\n        /* \"--CODEGEN--\":7584:7654   */\n      swap2\n      pop\n        /* \"--CODEGEN--\":7677:7681   */\n      0x20\n        /* \"--CODEGEN--\":7672:7675   */\n      dup7\n        /* \"--CODEGEN--\":7668:7682   */\n      add\n        /* \"--CODEGEN--\":7661:7682   */\n      swap6\n      pop\n        /* \"--CODEGEN--\":7506:7507   */\n      0x1\n        /* \"--CODEGEN--\":7503:7504   */\n      dup2\n        /* \"--CODEGEN--\":7499:7508   */\n      add\n        /* \"--CODEGEN--\":7494:7508   */\n      swap1\n      pop\n        /* \"--CODEGEN--\":7459:7689   */\n      jump(tag_414)\n    tag_415:\n        /* \"--CODEGEN--\":7463:7477   */\n      pop\n        /* \"--CODEGEN--\":7702:7705   */\n      dup5\n        /* \"--CODEGEN--\":7695:7705   */\n      swap3\n      pop\n        /* \"--CODEGEN--\":7235:7711   */\n      pop\n      pop\n      swap3\n      swap2\n      pop\n      pop\n      jump\n        /* \"--CODEGEN--\":7719:7820   */\n    tag_421:\n        /* \"--CODEGEN--\":7786:7814   */\n      tag_422\n        /* \"--CODEGEN--\":7808:7813   */\n      dup2\n        /* \"--CODEGEN--\":7786:7814   */\n      jump(tag_423)\n    tag_422:\n        /* \"--CODEGEN--\":7781:7784   */\n      dup3\n        /* \"--CODEGEN--\":7774:7815   */\n      mstore\n        /* \"--CODEGEN--\":7768:7820   */\n      pop\n      pop\n      jump\n        /* \"--CODEGEN--\":7827:8127   */\n    tag_425:\n      0x0\n        /* \"--CODEGEN--\":7929:7968   */\n      tag_426\n        /* \"--CODEGEN--\":7962:7967   */\n      dup3\n        /* \"--CODEGEN--\":7929:7968   */\n      jump(tag_427)\n    tag_426:\n        /* \"--CODEGEN--\":7985:7991   */\n      dup1\n        /* \"--CODEGEN--\":7980:7983   */\n      dup5\n        /* \"--CODEGEN--\":7973:7992   */\n      mstore\n        /* \"--CODEGEN--\":7997:8060   */\n      tag_428\n        /* \"--CODEGEN--\":8053:8059   */\n      dup2\n        /* \"--CODEGEN--\":8046:8050   */\n      0x20\n        /* \"--CODEGEN--\":8041:8044   */\n      dup7\n        /* \"--CODEGEN--\":8037:8051   */\n      add\n        /* \"--CODEGEN--\":8030:8034   */\n      0x20\n        /* \"--CODEGEN--\":8023:8028   */\n      dup7\n        /* \"--CODEGEN--\":8019:8035   */\n      add\n        /* \"--CODEGEN--\":7997:8060   */\n      jump(tag_429)\n    tag_428:\n        /* \"--CODEGEN--\":8092:8121   */\n      tag_430\n        /* \"--CODEGEN--\":8114:8120   */\n      dup2\n        /* \"--CODEGEN--\":8092:8121   */\n      jump(tag_431)\n    tag_430:\n        /* \"--CODEGEN--\":8085:8089   */\n      0x20\n        /* \"--CODEGEN--\":8080:8083   */\n      dup6\n        /* \"--CODEGEN--\":8076:8090   */\n      add\n        /* \"--CODEGEN--\":8072:8122   */\n      add\n        /* \"--CODEGEN--\":8065:8122   */\n      swap2\n      pop\n        /* \"--CODEGEN--\":7909:8127   */\n      pop\n      swap3\n      swap2\n      pop\n      pop\n      jump\n        /* \"--CODEGEN--\":8134:8244   */\n    tag_433:\n        /* \"--CODEGEN--\":8207:8238   */\n      tag_434\n        /* \"--CODEGEN--\":8232:8237   */\n      dup2\n        /* \"--CODEGEN--\":8207:8238   */\n      jump(tag_435)\n    tag_434:\n        /* \"--CODEGEN--\":8202:8205   */\n      dup3\n        /* \"--CODEGEN--\":8195:8239   */\n      mstore\n        /* \"--CODEGEN--\":8189:8244   */\n      pop\n      pop\n      jump\n        /* \"--CODEGEN--\":8251:8444   */\n    tag_59:\n      0x0\n        /* \"--CODEGEN--\":8359:8361   */\n      0x20\n        /* \"--CODEGEN--\":8348:8357   */\n      dup3\n        /* \"--CODEGEN--\":8344:8362   */\n      add\n        /* \"--CODEGEN--\":8336:8362   */\n      swap1\n      pop\n        /* \"--CODEGEN--\":8373:8434   */\n      tag_437\n        /* \"--CODEGEN--\":8431:8432   */\n      0x0\n        /* \"--CODEGEN--\":8420:8429   */\n      dup4\n        /* \"--CODEGEN--\":8416:8433   */\n      add\n        /* \"--CODEGEN--\":8407:8413   */\n      dup5\n        /* \"--CODEGEN--\":8373:8434   */\n      jump(tag_405)\n    tag_437:\n        /* \"--CODEGEN--\":8330:8444   */\n      swap3\n      swap2\n      pop\n      pop\n      jump\n        /* \"--CODEGEN--\":8451:8792   */\n    tag_36:\n      0x0\n        /* \"--CODEGEN--\":8609:8611   */\n      0x20\n        /* \"--CODEGEN--\":8598:8607   */\n      dup3\n        /* \"--CODEGEN--\":8594:8612   */\n      add\n        /* \"--CODEGEN--\":8586:8612   */\n      swap1\n      pop\n        /* \"--CODEGEN--\":8659:8668   */\n      dup2\n        /* \"--CODEGEN--\":8653:8657   */\n      dup2\n        /* \"--CODEGEN--\":8649:8669   */\n      sub\n        /* \"--CODEGEN--\":8645:8646   */\n      0x0\n        /* \"--CODEGEN--\":8634:8643   */\n      dup4\n        /* \"--CODEGEN--\":8630:8647   */\n      add\n        /* \"--CODEGEN--\":8623:8670   */\n      mstore\n        /* \"--CODEGEN--\":8684:8782   */\n      tag_439\n        /* \"--CODEGEN--\":8777:8781   */\n      dup2\n        /* \"--CODEGEN--\":8768:8774   */\n      dup5\n        /* \"--CODEGEN--\":8684:8782   */\n      jump(tag_409)\n    tag_439:\n        /* \"--CODEGEN--\":8676:8782   */\n      swap1\n      pop\n        /* \"--CODEGEN--\":8580:8792   */\n      swap3\n      swap2\n      pop\n      pop\n      jump\n        /* \"--CODEGEN--\":8799:8980   */\n    tag_74:\n      0x0\n        /* \"--CODEGEN--\":8901:8903   */\n      0x20\n        /* \"--CODEGEN--\":8890:8899   */\n      dup3\n        /* \"--CODEGEN--\":8886:8904   */\n      add\n        /* \"--CODEGEN--\":8878:8904   */\n      swap1\n      pop\n        /* \"--CODEGEN--\":8915:8970   */\n      tag_441\n        /* \"--CODEGEN--\":8967:8968   */\n      0x0\n        /* \"--CODEGEN--\":8956:8965   */\n      dup4\n        /* \"--CODEGEN--\":8952:8969   */\n      add\n        /* \"--CODEGEN--\":8943:8949   */\n      dup5\n        /* \"--CODEGEN--\":8915:8970   */\n      jump(tag_421)\n    tag_441:\n        /* \"--CODEGEN--\":8872:8980   */\n      swap3\n      swap2\n      pop\n      pop\n      jump\n        /* \"--CODEGEN--\":8987:10406   */\n    tag_162:\n      0x0\n        /* \"--CODEGEN--\":9403:9406   */\n      0xe0\n        /* \"--CODEGEN--\":9392:9401   */\n      dup3\n        /* \"--CODEGEN--\":9388:9407   */\n      add\n        /* \"--CODEGEN--\":9380:9407   */\n      swap1\n      pop\n        /* \"--CODEGEN--\":9454:9463   */\n      dup2\n        /* \"--CODEGEN--\":9448:9452   */\n      dup2\n        /* \"--CODEGEN--\":9444:9464   */\n      sub\n        /* \"--CODEGEN--\":9440:9441   */\n      0x0\n        /* \"--CODEGEN--\":9429:9438   */\n      dup4\n        /* \"--CODEGEN--\":9425:9442   */\n      add\n        /* \"--CODEGEN--\":9418:9465   */\n      mstore\n        /* \"--CODEGEN--\":9479:9547   */\n      tag_443\n        /* \"--CODEGEN--\":9542:9546   */\n      dup2\n        /* \"--CODEGEN--\":9533:9539   */\n      dup11\n        /* \"--CODEGEN--\":9479:9547   */\n      jump(tag_425)\n    tag_443:\n        /* \"--CODEGEN--\":9471:9547   */\n      swap1\n      pop\n        /* \"--CODEGEN--\":9595:9604   */\n      dup2\n        /* \"--CODEGEN--\":9589:9593   */\n      dup2\n        /* \"--CODEGEN--\":9585:9605   */\n      sub\n        /* \"--CODEGEN--\":9580:9582   */\n      0x20\n        /* \"--CODEGEN--\":9569:9578   */\n      dup4\n        /* \"--CODEGEN--\":9565:9583   */\n      add\n        /* \"--CODEGEN--\":9558:9606   */\n      mstore\n        /* \"--CODEGEN--\":9620:9688   */\n      tag_444\n        /* \"--CODEGEN--\":9683:9687   */\n      dup2\n        /* \"--CODEGEN--\":9674:9680   */\n      dup10\n        /* \"--CODEGEN--\":9620:9688   */\n      jump(tag_425)\n    tag_444:\n        /* \"--CODEGEN--\":9612:9688   */\n      swap1\n      pop\n        /* \"--CODEGEN--\":9736:9745   */\n      dup2\n        /* \"--CODEGEN--\":9730:9734   */\n      dup2\n        /* \"--CODEGEN--\":9726:9746   */\n      sub\n        /* \"--CODEGEN--\":9721:9723   */\n      0x40\n        /* \"--CODEGEN--\":9710:9719   */\n      dup4\n        /* \"--CODEGEN--\":9706:9724   */\n      add\n        /* \"--CODEGEN--\":9699:9747   */\n      mstore\n        /* \"--CODEGEN--\":9761:9829   */\n      tag_445\n        /* \"--CODEGEN--\":9824:9828   */\n      dup2\n        /* \"--CODEGEN--\":9815:9821   */\n      dup9\n        /* \"--CODEGEN--\":9761:9829   */\n      jump(tag_425)\n    tag_445:\n        /* \"--CODEGEN--\":9753:9829   */\n      swap1\n      pop\n        /* \"--CODEGEN--\":9877:9886   */\n      dup2\n        /* \"--CODEGEN--\":9871:9875   */\n      dup2\n        /* \"--CODEGEN--\":9867:9887   */\n      sub\n        /* \"--CODEGEN--\":9862:9864   */\n      0x60\n        /* \"--CODEGEN--\":9851:9860   */\n      dup4\n        /* \"--CODEGEN--\":9847:9865   */\n      add\n        /* \"--CODEGEN--\":9840:9888   */\n      mstore\n        /* \"--CODEGEN--\":9902:9970   */\n      tag_446\n        /* \"--CODEGEN--\":9965:9969   */\n      dup2\n        /* \"--CODEGEN--\":9956:9962   */\n      dup8\n        /* \"--CODEGEN--\":9902:9970   */\n      jump(tag_425)\n    tag_446:\n        /* \"--CODEGEN--\":9894:9970   */\n      swap1\n      pop\n        /* \"--CODEGEN--\":10019:10028   */\n      dup2\n        /* \"--CODEGEN--\":10013:10017   */\n      dup2\n        /* \"--CODEGEN--\":10009:10029   */\n      sub\n        /* \"--CODEGEN--\":10003:10006   */\n      0x80\n        /* \"--CODEGEN--\":9992:10001   */\n      dup4\n        /* \"--CODEGEN--\":9988:10007   */\n      add\n        /* \"--CODEGEN--\":9981:10030   */\n      mstore\n        /* \"--CODEGEN--\":10044:10112   */\n      tag_447\n        /* \"--CODEGEN--\":10107:10111   */\n      dup2\n        /* \"--CODEGEN--\":10098:10104   */\n      dup7\n        /* \"--CODEGEN--\":10044:10112   */\n      jump(tag_425)\n    tag_447:\n        /* \"--CODEGEN--\":10036:10112   */\n      swap1\n      pop\n        /* \"--CODEGEN--\":10161:10170   */\n      dup2\n        /* \"--CODEGEN--\":10155:10159   */\n      dup2\n        /* \"--CODEGEN--\":10151:10171   */\n      sub\n        /* \"--CODEGEN--\":10145:10148   */\n      0xa0\n        /* \"--CODEGEN--\":10134:10143   */\n      dup4\n        /* \"--CODEGEN--\":10130:10149   */\n      add\n        /* \"--CODEGEN--\":10123:10172   */\n      mstore\n        /* \"--CODEGEN--\":10186:10254   */\n      tag_448\n        /* \"--CODEGEN--\":10249:10253   */\n      dup2\n        /* \"--CODEGEN--\":10240:10246   */\n      dup6\n        /* \"--CODEGEN--\":10186:10254   */\n      jump(tag_425)\n    tag_448:\n        /* \"--CODEGEN--\":10178:10254   */\n      swap1\n      pop\n        /* \"--CODEGEN--\":10303:10312   */\n      dup2\n        /* \"--CODEGEN--\":10297:10301   */\n      dup2\n        /* \"--CODEGEN--\":10293:10313   */\n      sub\n        /* \"--CODEGEN--\":10287:10290   */\n      0xc0\n        /* \"--CODEGEN--\":10276:10285   */\n      dup4\n        /* \"--CODEGEN--\":10272:10291   */\n      add\n        /* \"--CODEGEN--\":10265:10314   */\n      mstore\n        /* \"--CODEGEN--\":10328:10396   */\n      tag_449\n        /* \"--CODEGEN--\":10391:10395   */\n      dup2\n        /* \"--CODEGEN--\":10382:10388   */\n      dup5\n        /* \"--CODEGEN--\":10328:10396   */\n      jump(tag_425)\n    tag_449:\n        /* \"--CODEGEN--\":10320:10396   */\n      swap1\n      pop\n        /* \"--CODEGEN--\":9374:10406   */\n      swap9\n      swap8\n      pop\n      pop\n      pop\n      pop\n      pop\n      pop\n      pop\n      pop\n      jump\n        /* \"--CODEGEN--\":10413:11934   */\n    tag_48:\n      0x0\n        /* \"--CODEGEN--\":10857:10860   */\n      0x100\n        /* \"--CODEGEN--\":10846:10855   */\n      dup3\n        /* \"--CODEGEN--\":10842:10861   */\n      add\n        /* \"--CODEGEN--\":10834:10861   */\n      swap1\n      pop\n        /* \"--CODEGEN--\":10908:10917   */\n      dup2\n        /* \"--CODEGEN--\":10902:10906   */\n      dup2\n        /* \"--CODEGEN--\":10898:10918   */\n      sub\n        /* \"--CODEGEN--\":10894:10895   */\n      0x0\n        /* \"--CODEGEN--\":10883:10892   */\n      dup4\n        /* \"--CODEGEN--\":10879:10896   */\n      add\n        /* \"--CODEGEN--\":10872:10919   */\n      mstore\n        /* \"--CODEGEN--\":10933:11001   */\n      tag_451\n        /* \"--CODEGEN--\":10996:11000   */\n      dup2\n        /* \"--CODEGEN--\":10987:10993   */\n      dup12\n        /* \"--CODEGEN--\":10933:11001   */\n      jump(tag_425)\n    tag_451:\n        /* \"--CODEGEN--\":10925:11001   */\n      swap1\n      pop\n        /* \"--CODEGEN--\":11049:11058   */\n      dup2\n        /* \"--CODEGEN--\":11043:11047   */\n      dup2\n        /* \"--CODEGEN--\":11039:11059   */\n      sub\n        /* \"--CODEGEN--\":11034:11036   */\n      0x20\n        /* \"--CODEGEN--\":11023:11032   */\n      dup4\n        /* \"--CODEGEN--\":11019:11037   */\n      add\n        /* \"--CODEGEN--\":11012:11060   */\n      mstore\n        /* \"--CODEGEN--\":11074:11142   */\n      tag_452\n        /* \"--CODEGEN--\":11137:11141   */\n      dup2\n        /* \"--CODEGEN--\":11128:11134   */\n      dup11\n        /* \"--CODEGEN--\":11074:11142   */\n      jump(tag_425)\n    tag_452:\n        /* \"--CODEGEN--\":11066:11142   */\n      swap1\n      pop\n        /* \"--CODEGEN--\":11190:11199   */\n      dup2\n        /* \"--CODEGEN--\":11184:11188   */\n      dup2\n        /* \"--CODEGEN--\":11180:11200   */\n      sub\n        /* \"--CODEGEN--\":11175:11177   */\n      0x40\n        /* \"--CODEGEN--\":11164:11173   */\n      dup4\n        /* \"--CODEGEN--\":11160:11178   */\n      add\n        /* \"--CODEGEN--\":11153:11201   */\n      mstore\n        /* \"--CODEGEN--\":11215:11283   */\n      tag_453\n        /* \"--CODEGEN--\":11278:11282   */\n      dup2\n        /* \"--CODEGEN--\":11269:11275   */\n      dup10\n        /* \"--CODEGEN--\":11215:11283   */\n      jump(tag_425)\n    tag_453:\n        /* \"--CODEGEN--\":11207:11283   */\n      swap1\n      pop\n        /* \"--CODEGEN--\":11331:11340   */\n      dup2\n        /* \"--CODEGEN--\":11325:11329   */\n      dup2\n        /* \"--CODEGEN--\":11321:11341   */\n      sub\n        /* \"--CODEGEN--\":11316:11318   */\n      0x60\n        /* \"--CODEGEN--\":11305:11314   */\n      dup4\n        /* \"--CODEGEN--\":11301:11319   */\n      add\n        /* \"--CODEGEN--\":11294:11342   */\n      mstore\n        /* \"--CODEGEN--\":11356:11424   */\n      tag_454\n        /* \"--CODEGEN--\":11419:11423   */\n      dup2\n        /* \"--CODEGEN--\":11410:11416   */\n      dup9\n        /* \"--CODEGEN--\":11356:11424   */\n      jump(tag_425)\n    tag_454:\n        /* \"--CODEGEN--\":11348:11424   */\n      swap1\n      pop\n        /* \"--CODEGEN--\":11473:11482   */\n      dup2\n        /* \"--CODEGEN--\":11467:11471   */\n      dup2\n        /* \"--CODEGEN--\":11463:11483   */\n      sub\n        /* \"--CODEGEN--\":11457:11460   */\n      0x80\n        /* \"--CODEGEN--\":11446:11455   */\n      dup4\n        /* \"--CODEGEN--\":11442:11461   */\n      add\n        /* \"--CODEGEN--\":11435:11484   */\n      mstore\n        /* \"--CODEGEN--\":11498:11566   */\n      tag_455\n        /* \"--CODEGEN--\":11561:11565   */\n      dup2\n        /* \"--CODEGEN--\":11552:11558   */\n      dup8\n        /* \"--CODEGEN--\":11498:11566   */\n      jump(tag_425)\n    tag_455:\n        /* \"--CODEGEN--\":11490:11566   */\n      swap1\n      pop\n        /* \"--CODEGEN--\":11615:11624   */\n      dup2\n        /* \"--CODEGEN--\":11609:11613   */\n      dup2\n        /* \"--CODEGEN--\":11605:11625   */\n      sub\n        /* \"--CODEGEN--\":11599:11602   */\n      0xa0\n        /* \"--CODEGEN--\":11588:11597   */\n      dup4\n        /* \"--CODEGEN--\":11584:11603   */\n      add\n        /* \"--CODEGEN--\":11577:11626   */\n      mstore\n        /* \"--CODEGEN--\":11640:11708   */\n      tag_456\n        /* \"--CODEGEN--\":11703:11707   */\n      dup2\n        /* \"--CODEGEN--\":11694:11700   */\n      dup7\n        /* \"--CODEGEN--\":11640:11708   */\n      jump(tag_425)\n    tag_456:\n        /* \"--CODEGEN--\":11632:11708   */\n      swap1\n      pop\n        /* \"--CODEGEN--\":11757:11766   */\n      dup2\n        /* \"--CODEGEN--\":11751:11755   */\n      dup2\n        /* \"--CODEGEN--\":11747:11767   */\n      sub\n        /* \"--CODEGEN--\":11741:11744   */\n      0xc0\n        /* \"--CODEGEN--\":11730:11739   */\n      dup4\n        /* \"--CODEGEN--\":11726:11745   */\n      add\n        /* \"--CODEGEN--\":11719:11768   */\n      mstore\n        /* \"--CODEGEN--\":11782:11850   */\n      tag_457\n        /* \"--CODEGEN--\":11845:11849   */\n      dup2\n        /* \"--CODEGEN--\":11836:11842   */\n      dup6\n        /* \"--CODEGEN--\":11782:11850   */\n      jump(tag_425)\n    tag_457:\n        /* \"--CODEGEN--\":11774:11850   */\n      swap1\n      pop\n        /* \"--CODEGEN--\":11861:11924   */\n      tag_458\n        /* \"--CODEGEN--\":11919:11922   */\n      0xe0\n        /* \"--CODEGEN--\":11908:11917   */\n      dup4\n        /* \"--CODEGEN--\":11904:11923   */\n      add\n        /* \"--CODEGEN--\":11895:11901   */\n      dup5\n        /* \"--CODEGEN--\":11861:11924   */\n      jump(tag_405)\n    tag_458:\n        /* \"--CODEGEN--\":10828:11934   */\n      swap10\n      swap9\n      pop\n      pop\n      pop\n      pop\n      pop\n      pop\n      pop\n      pop\n      pop\n      jump\n        /* \"--CODEGEN--\":11941:12906   */\n    tag_113:\n      0x0\n        /* \"--CODEGEN--\":12249:12252   */\n      0xc0\n        /* \"--CODEGEN--\":12238:12247   */\n      dup3\n        /* \"--CODEGEN--\":12234:12253   */\n      add\n        /* \"--CODEGEN--\":12226:12253   */\n      swap1\n      pop\n        /* \"--CODEGEN--\":12300:12309   */\n      dup2\n        /* \"--CODEGEN--\":12294:12298   */\n      dup2\n        /* \"--CODEGEN--\":12290:12310   */\n      sub\n        /* \"--CODEGEN--\":12286:12287   */\n      0x0\n        /* \"--CODEGEN--\":12275:12284   */\n      dup4\n        /* \"--CODEGEN--\":12271:12288   */\n      add\n        /* \"--CODEGEN--\":12264:12311   */\n      mstore\n        /* \"--CODEGEN--\":12325:12393   */\n      tag_460\n        /* \"--CODEGEN--\":12388:12392   */\n      dup2\n        /* \"--CODEGEN--\":12379:12385   */\n      dup10\n        /* \"--CODEGEN--\":12325:12393   */\n      jump(tag_425)\n    tag_460:\n        /* \"--CODEGEN--\":12317:12393   */\n      swap1\n      pop\n        /* \"--CODEGEN--\":12441:12450   */\n      dup2\n        /* \"--CODEGEN--\":12435:12439   */\n      dup2\n        /* \"--CODEGEN--\":12431:12451   */\n      sub\n        /* \"--CODEGEN--\":12426:12428   */\n      0x20\n        /* \"--CODEGEN--\":12415:12424   */\n      dup4\n        /* \"--CODEGEN--\":12411:12429   */\n      add\n        /* \"--CODEGEN--\":12404:12452   */\n      mstore\n        /* \"--CODEGEN--\":12466:12534   */\n      tag_461\n        /* \"--CODEGEN--\":12529:12533   */\n      dup2\n        /* \"--CODEGEN--\":12520:12526   */\n      dup9\n        /* \"--CODEGEN--\":12466:12534   */\n      jump(tag_425)\n    tag_461:\n        /* \"--CODEGEN--\":12458:12534   */\n      swap1\n      pop\n        /* \"--CODEGEN--\":12582:12591   */\n      dup2\n        /* \"--CODEGEN--\":12576:12580   */\n      dup2\n        /* \"--CODEGEN--\":12572:12592   */\n      sub\n        /* \"--CODEGEN--\":12567:12569   */\n      0x40\n        /* \"--CODEGEN--\":12556:12565   */\n      dup4\n        /* \"--CODEGEN--\":12552:12570   */\n      add\n        /* \"--CODEGEN--\":12545:12593   */\n      mstore\n        /* \"--CODEGEN--\":12607:12675   */\n      tag_462\n        /* \"--CODEGEN--\":12670:12674   */\n      dup2\n        /* \"--CODEGEN--\":12661:12667   */\n      dup8\n        /* \"--CODEGEN--\":12607:12675   */\n      jump(tag_425)\n    tag_462:\n        /* \"--CODEGEN--\":12599:12675   */\n      swap1\n      pop\n        /* \"--CODEGEN--\":12686:12748   */\n      tag_463\n        /* \"--CODEGEN--\":12744:12746   */\n      0x60\n        /* \"--CODEGEN--\":12733:12742   */\n      dup4\n        /* \"--CODEGEN--\":12729:12747   */\n      add\n        /* \"--CODEGEN--\":12720:12726   */\n      dup7\n        /* \"--CODEGEN--\":12686:12748   */\n      jump(tag_433)\n    tag_463:\n        /* \"--CODEGEN--\":12759:12822   */\n      tag_464\n        /* \"--CODEGEN--\":12817:12820   */\n      0x80\n        /* \"--CODEGEN--\":12806:12815   */\n      dup4\n        /* \"--CODEGEN--\":12802:12821   */\n      add\n        /* \"--CODEGEN--\":12793:12799   */\n      dup6\n        /* \"--CODEGEN--\":12759:12822   */\n      jump(tag_405)\n    tag_464:\n        /* \"--CODEGEN--\":12833:12896   */\n      tag_465\n        /* \"--CODEGEN--\":12891:12894   */\n      0xa0\n        /* \"--CODEGEN--\":12880:12889   */\n      dup4\n        /* \"--CODEGEN--\":12876:12895   */\n      add\n        /* \"--CODEGEN--\":12867:12873   */\n      dup5\n        /* \"--CODEGEN--\":12833:12896   */\n      jump(tag_405)\n    tag_465:\n        /* \"--CODEGEN--\":12220:12906   */\n      swap8\n      swap7\n      pop\n      pop\n      pop\n      pop\n      pop\n      pop\n      pop\n      jump\n        /* \"--CODEGEN--\":12913:13106   */\n    tag_41:\n      0x0\n        /* \"--CODEGEN--\":13021:13023   */\n      0x20\n        /* \"--CODEGEN--\":13010:13019   */\n      dup3\n        /* \"--CODEGEN--\":13006:13024   */\n      add\n        /* \"--CODEGEN--\":12998:13024   */\n      swap1\n      pop\n        /* \"--CODEGEN--\":13035:13096   */\n      tag_467\n        /* \"--CODEGEN--\":13093:13094   */\n      0x0\n        /* \"--CODEGEN--\":13082:13091   */\n      dup4\n        /* \"--CODEGEN--\":13078:13095   */\n      add\n        /* \"--CODEGEN--\":13069:13075   */\n      dup5\n        /* \"--CODEGEN--\":13035:13096   */\n      jump(tag_433)\n    tag_467:\n        /* \"--CODEGEN--\":12992:13106   */\n      swap3\n      swap2\n      pop\n      pop\n      jump\n        /* \"--CODEGEN--\":13113:13369   */\n    tag_337:\n      0x0\n        /* \"--CODEGEN--\":13175:13177   */\n      0x40\n        /* \"--CODEGEN--\":13169:13178   */\n      mload\n        /* \"--CODEGEN--\":13159:13178   */\n      swap1\n      pop\n        /* \"--CODEGEN--\":13213:13217   */\n      dup2\n        /* \"--CODEGEN--\":13205:13211   */\n      dup2\n        /* \"--CODEGEN--\":13201:13218   */\n      add\n        /* \"--CODEGEN--\":13312:13318   */\n      dup2\n        /* \"--CODEGEN--\":13300:13310   */\n      dup2\n        /* \"--CODEGEN--\":13297:13319   */\n      lt\n        /* \"--CODEGEN--\":13276:13294   */\n      0xffffffffffffffff\n        /* \"--CODEGEN--\":13264:13274   */\n      dup3\n        /* \"--CODEGEN--\":13261:13295   */\n      gt\n        /* \"--CODEGEN--\":13258:13320   */\n      or\n        /* \"--CODEGEN--\":13255:13257   */\n      iszero\n      tag_469\n      jumpi\n        /* \"--CODEGEN--\":13333:13334   */\n      0x0\n        /* \"--CODEGEN--\":13330:13331   */\n      dup1\n        /* \"--CODEGEN--\":13323:13335   */\n      revert\n        /* \"--CODEGEN--\":13255:13257   */\n    tag_469:\n        /* \"--CODEGEN--\":13353:13363   */\n      dup1\n        /* \"--CODEGEN--\":13349:13351   */\n      0x40\n        /* \"--CODEGEN--\":13342:13364   */\n      mstore\n        /* \"--CODEGEN--\":13153:13369   */\n      pop\n      swap2\n      swap1\n      pop\n      jump\n        /* \"--CODEGEN--\":13376:13635   */\n    tag_336:\n      0x0\n        /* \"--CODEGEN--\":13520:13538   */\n      0xffffffffffffffff\n        /* \"--CODEGEN--\":13512:13518   */\n      dup3\n        /* \"--CODEGEN--\":13509:13539   */\n      gt\n        /* \"--CODEGEN--\":13506:13508   */\n      iszero\n      tag_471\n      jumpi\n        /* \"--CODEGEN--\":13552:13553   */\n      0x0\n        /* \"--CODEGEN--\":13549:13550   */\n      dup1\n        /* \"--CODEGEN--\":13542:13554   */\n      revert\n        /* \"--CODEGEN--\":13506:13508   */\n    tag_471:\n        /* \"--CODEGEN--\":13596:13600   */\n      0x1f\n        /* \"--CODEGEN--\":13592:13601   */\n      not\n        /* \"--CODEGEN--\":13585:13589   */\n      0x1f\n        /* \"--CODEGEN--\":13577:13583   */\n      dup4\n        /* \"--CODEGEN--\":13573:13590   */\n      add\n        /* \"--CODEGEN--\":13569:13602   */\n      and\n        /* \"--CODEGEN--\":13561:13602   */\n      swap1\n      pop\n        /* \"--CODEGEN--\":13625:13629   */\n      0x20\n        /* \"--CODEGEN--\":13619:13623   */\n      dup2\n        /* \"--CODEGEN--\":13615:13630   */\n      add\n        /* \"--CODEGEN--\":13607:13630   */\n      swap1\n      pop\n        /* \"--CODEGEN--\":13443:13635   */\n      swap2\n      swap1\n      pop\n      jump\n        /* \"--CODEGEN--\":13644:13765   */\n    tag_413:\n      0x0\n        /* \"--CODEGEN--\":13753:13757   */\n      0x20\n        /* \"--CODEGEN--\":13745:13751   */\n      dup3\n        /* \"--CODEGEN--\":13741:13758   */\n      add\n        /* \"--CODEGEN--\":13730:13758   */\n      swap1\n      pop\n        /* \"--CODEGEN--\":13722:13765   */\n      swap2\n      swap1\n      pop\n      jump\n        /* \"--CODEGEN--\":13774:13881   */\n    tag_411:\n      0x0\n        /* \"--CODEGEN--\":13870:13875   */\n      dup2\n        /* \"--CODEGEN--\":13864:13876   */\n      mload\n        /* \"--CODEGEN--\":13854:13876   */\n      swap1\n      pop\n        /* \"--CODEGEN--\":13848:13881   */\n      swap2\n      swap1\n      pop\n      jump\n        /* \"--CODEGEN--\":13888:13980   */\n    tag_427:\n      0x0\n        /* \"--CODEGEN--\":13969:13974   */\n      dup2\n        /* \"--CODEGEN--\":13963:13975   */\n      mload\n        /* \"--CODEGEN--\":13953:13975   */\n      swap1\n      pop\n        /* \"--CODEGEN--\":13947:13980   */\n      swap2\n      swap1\n      pop\n      jump\n        /* \"--CODEGEN--\":13988:14110   */\n    tag_419:\n      0x0\n        /* \"--CODEGEN--\":14099:14103   */\n      0x20\n        /* \"--CODEGEN--\":14091:14097   */\n      dup3\n        /* \"--CODEGEN--\":14087:14104   */\n      add\n        /* \"--CODEGEN--\":14076:14104   */\n      swap1\n      pop\n        /* \"--CODEGEN--\":14069:14110   */\n      swap2\n      swap1\n      pop\n      jump\n        /* \"--CODEGEN--\":14118:14246   */\n    tag_407:\n      0x0\n        /* \"--CODEGEN--\":14198:14240   */\n      0xffffffffffffffffffffffffffffffffffffffff\n        /* \"--CODEGEN--\":14191:14196   */\n      dup3\n        /* \"--CODEGEN--\":14187:14241   */\n      and\n        /* \"--CODEGEN--\":14176:14241   */\n      swap1\n      pop\n        /* \"--CODEGEN--\":14170:14246   */\n      swap2\n      swap1\n      pop\n      jump\n        /* \"--CODEGEN--\":14253:14345   */\n    tag_423:\n      0x0\n        /* \"--CODEGEN--\":14333:14338   */\n      dup2\n        /* \"--CODEGEN--\":14326:14339   */\n      iszero\n        /* \"--CODEGEN--\":14319:14340   */\n      iszero\n        /* \"--CODEGEN--\":14308:14340   */\n      swap1\n      pop\n        /* \"--CODEGEN--\":14302:14345   */\n      swap2\n      swap1\n      pop\n      jump\n        /* \"--CODEGEN--\":14352:14431   */\n    tag_435:\n      0x0\n        /* \"--CODEGEN--\":14421:14426   */\n      dup2\n        /* \"--CODEGEN--\":14410:14426   */\n      swap1\n      pop\n        /* \"--CODEGEN--\":14404:14431   */\n      swap2\n      swap1\n      pop\n      jump\n        /* \"--CODEGEN--\":14438:14566   */\n    tag_330:\n      0x0\n        /* \"--CODEGEN--\":14518:14560   */\n      0xffffffffffffffffffffffffffffffffffffffff\n        /* \"--CODEGEN--\":14511:14516   */\n      dup3\n        /* \"--CODEGEN--\":14507:14561   */\n      and\n        /* \"--CODEGEN--\":14496:14561   */\n      swap1\n      pop\n        /* \"--CODEGEN--\":14490:14566   */\n      swap2\n      swap1\n      pop\n      jump\n        /* \"--CODEGEN--\":14573:14652   */\n    tag_344:\n      0x0\n        /* \"--CODEGEN--\":14642:14647   */\n      dup2\n        /* \"--CODEGEN--\":14631:14647   */\n      swap1\n      pop\n        /* \"--CODEGEN--\":14625:14652   */\n      swap2\n      swap1\n      pop\n      jump\n        /* \"--CODEGEN--\":14660:14805   */\n    tag_340:\n        /* \"--CODEGEN--\":14741:14747   */\n      dup3\n        /* \"--CODEGEN--\":14736:14739   */\n      dup2\n        /* \"--CODEGEN--\":14731:14734   */\n      dup4\n        /* \"--CODEGEN--\":14718:14748   */\n      calldatacopy\n        /* \"--CODEGEN--\":14797:14798   */\n      0x0\n        /* \"--CODEGEN--\":14788:14794   */\n      dup4\n        /* \"--CODEGEN--\":14783:14786   */\n      dup4\n        /* \"--CODEGEN--\":14779:14795   */\n      add\n        /* \"--CODEGEN--\":14772:14799   */\n      mstore\n        /* \"--CODEGEN--\":14711:14805   */\n      pop\n      pop\n      pop\n      jump\n        /* \"--CODEGEN--\":14814:15082   */\n    tag_429:\n        /* \"--CODEGEN--\":14879:14880   */\n      0x0\n        /* \"--CODEGEN--\":14886:14987   */\n    tag_483:\n        /* \"--CODEGEN--\":14900:14906   */\n      dup4\n        /* \"--CODEGEN--\":14897:14898   */\n      dup2\n        /* \"--CODEGEN--\":14894:14907   */\n      lt\n        /* \"--CODEGEN--\":14886:14987   */\n      iszero\n      tag_484\n      jumpi\n        /* \"--CODEGEN--\":14976:14977   */\n      dup1\n        /* \"--CODEGEN--\":14971:14974   */\n      dup3\n        /* \"--CODEGEN--\":14967:14978   */\n      add\n        /* \"--CODEGEN--\":14961:14979   */\n      mload\n        /* \"--CODEGEN--\":14957:14958   */\n      dup2\n        /* \"--CODEGEN--\":14952:14955   */\n      dup5\n        /* \"--CODEGEN--\":14948:14959   */\n      add\n        /* \"--CODEGEN--\":14941:14980   */\n      mstore\n        /* \"--CODEGEN--\":14922:14924   */\n      0x20\n        /* \"--CODEGEN--\":14919:14920   */\n      dup2\n        /* \"--CODEGEN--\":14915:14925   */\n      add\n        /* \"--CODEGEN--\":14910:14925   */\n      swap1\n      pop\n        /* \"--CODEGEN--\":14886:14987   */\n      jump(tag_483)\n    tag_484:\n        /* \"--CODEGEN--\":15002:15008   */\n      dup4\n        /* \"--CODEGEN--\":14999:15000   */\n      dup2\n        /* \"--CODEGEN--\":14996:15009   */\n      gt\n        /* \"--CODEGEN--\":14993:14995   */\n      iszero\n      tag_486\n      jumpi\n        /* \"--CODEGEN--\":15067:15068   */\n      0x0\n        /* \"--CODEGEN--\":15058:15064   */\n      dup5\n        /* \"--CODEGEN--\":15053:15056   */\n      dup5\n        /* \"--CODEGEN--\":15049:15065   */\n      add\n        /* \"--CODEGEN--\":15042:15069   */\n      mstore\n        /* \"--CODEGEN--\":14993:14995   */\n    tag_486:\n        /* \"--CODEGEN--\":14863:15082   */\n      pop\n      pop\n      pop\n      pop\n      jump\n        /* \"--CODEGEN--\":15090:15187   */\n    tag_431:\n      0x0\n        /* \"--CODEGEN--\":15178:15180   */\n      0x1f\n        /* \"--CODEGEN--\":15174:15181   */\n      not\n        /* \"--CODEGEN--\":15169:15171   */\n      0x1f\n        /* \"--CODEGEN--\":15162:15167   */\n      dup4\n        /* \"--CODEGEN--\":15158:15172   */\n      add\n        /* \"--CODEGEN--\":15154:15182   */\n      and\n        /* \"--CODEGEN--\":15144:15182   */\n      swap1\n      pop\n        /* \"--CODEGEN--\":15138:15187   */\n      swap2\n      swap1\n      pop\n      jump\n\n    auxdata: 0xa265627a7a723058205868f0a2954f872164d79f0a97c2c4242b1098fdf1b0d6db0ef10fb4b9c162796c6578706572696d656e74616cf50037\n}\n",
				"bytecode": {
					"linkReferences": {},
					"object": "60806040526000600b556000600c556000600d556000600e556000600f5573c50c6297f56b033633c30354a854b074749cd2dc601060006101000a81548173ffffffffffffffffffffffffffffffffffffffff021916908373ffffffffffffffffffffffffffffffffffffffff16021790555034801561007e57600080fd5b506135588061008e6000396000f30060806040526004361061017f576000357c0100000000000000000000000000000000000000000000000000000000900463ffffffff168062ce8e3e14610184578063024decc5146101af578063076fd2f8146101da57806307973ccf1461021e578063127ca4b41461024957806316e0a6111461028657806317e51111146102af578063294a4540146102d8578063341f8105146103155780635fc8e8c6146103525780636cdb22781461038f578063779a9576146103b857806378522bc4146103e157806379111c1c1461040c578063793de5f01461043757806383a28b29146104745780638da5cb5b146104b65780638f84aa09146104e157806396e39ce01461050c57806399d698c5146105375780639f4216e814610562578063b13d5d941461059f578063b5cb15f7146105ca578063b744ff4d146105f5578063c3bf7bf014610620578063c543a7181461065d578063caee6c8514610688578063d118404b146106cb578063e0df0ac614610708578063ff508dab14610733575b600080fd5b34801561019057600080fd5b50610199610770565b6040516101a691906131c5565b60405180910390f35b3480156101bb57600080fd5b506101c46107fe565b6040516101d191906133c7565b60405180910390f35b3480156101e657600080fd5b5061020160048036036101fc9190810190612c80565b610808565b6040516102159897969594939291906132a2565b60405180910390f35b34801561022a57600080fd5b50610233610d8d565b60405161024091906133c7565b60405180910390f35b34801561025557600080fd5b50610270600480360361026b91908101906130c3565b610d93565b60405161027d91906131aa565b60405180910390f35b34801561029257600080fd5b506102ad60048036036102a89190810190612db6565b610dd1565b005b3480156102bb57600080fd5b506102d660048036036102d19190810190612db6565b610fc5565b005b3480156102e457600080fd5b506102ff60048036036102fa9190810190612c80565b6113df565b60405161030c91906131e7565b60405180910390f35b34801561032157600080fd5b5061033c60048036036103379190810190612ce5565b611491565b60405161034991906131e7565b60405180910390f35b34801561035e57600080fd5b5061037960048036036103749190810190612c80565b6116e7565b60405161038691906131e7565b60405180910390f35b34801561039b57600080fd5b506103b660048036036103b19190810190612f10565b611786565b005b3480156103c457600080fd5b506103df60048036036103da9190810190612f10565b611bd4565b005b3480156103ed57600080fd5b506103f6611dfc565b60405161040391906133c7565b60405180910390f35b34801561041857600080fd5b50610421611e02565b60405161042e91906133c7565b60405180910390f35b34801561044357600080fd5b5061045e60048036036104599190810190612c80565b611e0c565b60405161046b91906131e7565b60405180910390f35b34801561048057600080fd5b5061049b60048036036104969190810190612c80565b611e92565b6040516104ad96959493929190613351565b60405180910390f35b3480156104c257600080fd5b506104cb6121b8565b6040516104d891906131aa565b60405180910390f35b3480156104ed57600080fd5b506104f66121dd565b60405161050391906131aa565b60405180910390f35b34801561051857600080fd5b50610521612246565b60405161052e91906133c7565b60405180910390f35b34801561054357600080fd5b5061054c61224c565b60405161055991906133c7565b60405180910390f35b34801561056e57600080fd5b50610589600480360361058491908101906130c3565b612252565b60405161059691906131aa565b60405180910390f35b3480156105ab57600080fd5b506105b4612290565b6040516105c191906131c5565b60405180910390f35b3480156105d657600080fd5b506105df61231e565b6040516105ec91906133c7565b60405180910390f35b34801561060157600080fd5b5061060a612328565b60405161061791906131aa565b60405180910390f35b34801561062c57600080fd5b5061064760048036036106429190810190612ca9565b61234e565b60405161065491906131e7565b60405180910390f35b34801561066957600080fd5b5061067261244b565b60405161067f91906133c7565b60405180910390f35b34801561069457600080fd5b506106af60048036036106aa9190810190612c80565b612451565b6040516106c29796959493929190613202565b60405180910390f35b3480156106d757600080fd5b506106f260048036036106ed9190810190612ca9565b612a06565b6040516106ff91906131e7565b60405180910390f35b34801561071457600080fd5b5061071d612b15565b60405161072a91906133c7565b60405180910390f35b34801561073f57600080fd5b5061075a600480360361075591908101906130c3565b612b1f565b60405161076791906131aa565b60405180910390f35b606060018054806020026020016040519081016040528092919081815260200182805480156107f457602002820191906000526020600020905b8160009054906101000a900473ffffffffffffffffffffffffffffffffffffffff1673ffffffffffffffffffffffffffffffffffffffff16815260200190600101908083116107aa575b5050505050905090565b6000600e54905090565b6060806060806060806060600080600760008b73ffffffffffffffffffffffffffffffffffffffff1673ffffffffffffffffffffffffffffffffffffffff16815260200190815260200160002060003373ffffffffffffffffffffffffffffffffffffffff1673ffffffffffffffffffffffffffffffffffffffff16815260200190815260200160002060009054906101000a900460ff1615156108ab57600080fd5b600460008b73ffffffffffffffffffffffffffffffffffffffff1673ffffffffffffffffffffffffffffffffffffffff1681526020019081526020016000209050806000018160010182600601836002018460030185600401866005018760090160009054906101000a900473ffffffffffffffffffffffffffffffffffffffff16878054600181600116156101000203166002900480601f0160208091040260200160405190810160405280929190818152602001828054600181600116156101000203166002900480156109c25780601f10610997576101008083540402835291602001916109c2565b820191906000526020600020905b8154815290600101906020018083116109a557829003601f168201915b50505050509750868054600181600116156101000203166002900480601f016020809104026020016040519081016040528092919081815260200182805460018160011615610100020316600290048015610a5e5780601f10610a3357610100808354040283529160200191610a5e565b820191906000526020600020905b815481529060010190602001808311610a4157829003601f168201915b50505050509650858054600181600116156101000203166002900480601f016020809104026020016040519081016040528092919081815260200182805460018160011615610100020316600290048015610afa5780601f10610acf57610100808354040283529160200191610afa565b820191906000526020600020905b815481529060010190602001808311610add57829003601f168201915b50505050509550848054600181600116156101000203166002900480601f016020809104026020016040519081016040528092919081815260200182805460018160011615610100020316600290048015610b965780601f10610b6b57610100808354040283529160200191610b96565b820191906000526020600020905b815481529060010190602001808311610b7957829003601f168201915b50505050509450838054600181600116156101000203166002900480601f016020809104026020016040519081016040528092919081815260200182805460018160011615610100020316600290048015610c325780601f10610c0757610100808354040283529160200191610c32565b820191906000526020600020905b815481529060010190602001808311610c1557829003601f168201915b50505050509350828054600181600116156101000203166002900480601f016020809104026020016040519081016040528092919081815260200182805460018160011615610100020316600290048015610cce5780601f10610ca357610100808354040283529160200191610cce565b820191906000526020600020905b815481529060010190602001808311610cb157829003601f168201915b50505050509250818054600181600116156101000203166002900480601f016020809104026020016040519081016040528092919081815260200182805460018160011615610100020316600290048015610d6a5780601f10610d3f57610100808354040283529160200191610d6a565b820191906000526020600020905b815481529060010190602001808311610d4d57829003601f168201915b505050505091509850985098509850985098509850985050919395975091939597565b600b5481565b600281815481101515610da257fe5b906000526020600020016000915054906101000a900473ffffffffffffffffffffffffffffffffffffffff1681565b6000601060009054906101000a900473ffffffffffffffffffffffffffffffffffffffff1673ffffffffffffffffffffffffffffffffffffffff163373ffffffffffffffffffffffffffffffffffffffff16141515610e2f57600080fd5b600960008a73ffffffffffffffffffffffffffffffffffffffff1673ffffffffffffffffffffffffffffffffffffffff16815260200190815260200160002060009054906101000a900460ff161515610e8757600080fd5b600560008a73ffffffffffffffffffffffffffffffffffffffff1673ffffffffffffffffffffffffffffffffffffffff168152602001908152602001600020905087816000019080519060200190610ee0929190612b5d565b5086816001019080519060200190610ef9929190612b5d565b5085816002019080519060200190610f12929190612b5d565b5084816003019080519060200190610f2b929190612b5d565b5083816005019080519060200190610f44929190612b5d565b5082816006019080519060200190610f5d929190612b5d565b5081816007019080519060200190610f76929190612b5d565b50888160080160006101000a81548173ffffffffffffffffffffffffffffffffffffffff021916908373ffffffffffffffffffffffffffffffffffffffff160217905550505050505050505050565b6000601060009054906101000a900473ffffffffffffffffffffffffffffffffffffffff1673ffffffffffffffffffffffffffffffffffffffff163373ffffffffffffffffffffffffffffffffffffffff1614151561102357600080fd5b600960008a73ffffffffffffffffffffffffffffffffffffffff1673ffffffffffffffffffffffffffffffffffffffff16815260200190815260200160002060009054906101000a900460ff1615151561107c57600080fd5b600560008a73ffffffffffffffffffffffffffffffffffffffff1673ffffffffffffffffffffffffffffffffffffffff1681526020019081526020016000209050878160000190805190602001906110d5929190612b5d565b50868160010190805190602001906110ee929190612b5d565b5085816002019080519060200190611107929190612b5d565b5084816003019080519060200190611120929190612b5d565b5083816005019080519060200190611139929190612b5d565b5082816006019080519060200190611152929190612b5d565b508181600701908051906020019061116b929190612b5d565b50888160080160006101000a81548173ffffffffffffffffffffffffffffffffffffffff021916908373ffffffffffffffffffffffffffffffffffffffff16021790555042816009018190555060028990806001815401808255809150509060018203906000526020600020016000909192909190916101000a81548173ffffffffffffffffffffffffffffffffffffffff021916908373ffffffffffffffffffffffffffffffffffffffff160217905550506001600960008b73ffffffffffffffffffffffffffffffffffffffff1673ffffffffffffffffffffffffffffffffffffffff16815260200190815260200160002060006101000a81548160ff0219169083151502179055506001600760008b73ffffffffffffffffffffffffffffffffffffffff1673ffffffffffffffffffffffffffffffffffffffff16815260200190815260200160002060008b73ffffffffffffffffffffffffffffffffffffffff1673ffffffffffffffffffffffffffffffffffffffff16815260200190815260200160002060006101000a81548160ff0219169083151502179055506001600760008b73ffffffffffffffffffffffffffffffffffffffff1673ffffffffffffffffffffffffffffffffffffffff1681526020019081526020016000206000601060009054906101000a900473ffffffffffffffffffffffffffffffffffffffff1673ffffffffffffffffffffffffffffffffffffffff1673ffffffffffffffffffffffffffffffffffffffff16815260200190815260200160002060006101000a81548160ff021916908315150217905550600c60008154809291906001019190505550505050505050505050565b60006001600760003373ffffffffffffffffffffffffffffffffffffffff1673ffffffffffffffffffffffffffffffffffffffff16815260200190815260200160002060008473ffffffffffffffffffffffffffffffffffffffff1673ffffffffffffffffffffffffffffffffffffffff16815260200190815260200160002060006101000a81548160ff021916908315150217905550600e6000815480929190600101919050555060019050919050565b600080601060009054906101000a900473ffffffffffffffffffffffffffffffffffffffff1673ffffffffffffffffffffffffffffffffffffffff163373ffffffffffffffffffffffffffffffffffffffff161415156114f057600080fd5b600a60008973ffffffffffffffffffffffffffffffffffffffff1673ffffffffffffffffffffffffffffffffffffffff16815260200190815260200160002060009054906101000a900460ff1615151561154957600080fd5b600660008973ffffffffffffffffffffffffffffffffffffffff1673ffffffffffffffffffffffffffffffffffffffff1681526020019081526020016000209050858160000190805190602001906115a2929190612b5d565b50848160010190805190602001906115bb929190612b5d565b50838160020190805190602001906115d4929190612b5d565b50828160030181905550878160040160006101000a81548173ffffffffffffffffffffffffffffffffffffffff021916908373ffffffffffffffffffffffffffffffffffffffff160217905550868160050160006101000a81548173ffffffffffffffffffffffffffffffffffffffff021916908373ffffffffffffffffffffffffffffffffffffffff16021790555060038890806001815401808255809150509060018203906000526020600020016000909192909190916101000a81548173ffffffffffffffffffffffffffffffffffffffff021916908373ffffffffffffffffffffffffffffffffffffffff16021790555050600f60008154809291906001019190505550509695505050505050565b600080600760003373ffffffffffffffffffffffffffffffffffffffff1673ffffffffffffffffffffffffffffffffffffffff16815260200190815260200160002060008473ffffffffffffffffffffffffffffffffffffffff1673ffffffffffffffffffffffffffffffffffffffff16815260200190815260200160002060006101000a81548160ff02191690831515021790555060019050919050565b6000601060009054906101000a900473ffffffffffffffffffffffffffffffffffffffff1673ffffffffffffffffffffffffffffffffffffffff163373ffffffffffffffffffffffffffffffffffffffff161415156117e457600080fd5b600860008c73ffffffffffffffffffffffffffffffffffffffff1673ffffffffffffffffffffffffffffffffffffffff16815260200190815260200160002060009054906101000a900460ff1615151561183d57600080fd5b600460008c73ffffffffffffffffffffffffffffffffffffffff1673ffffffffffffffffffffffffffffffffffffffff168152602001908152602001600020905089816000019080519060200190611896929190612b5d565b50888160010190805190602001906118af929190612b5d565b50878160020190805190602001906118c8929190612b5d565b50868160030190805190602001906118e1929190612b5d565b50858160040190805190602001906118fa929190612b5d565b5084816005019080519060200190611913929190612b5d565b508381600601908051906020019061192c929190612b5d565b5082816007019080519060200190611945929190612b5d565b508181600801908051906020019061195e929190612b5d565b508a8160090160006101000a81548173ffffffffffffffffffffffffffffffffffffffff021916908373ffffffffffffffffffffffffffffffffffffffff1602179055504281600a018190555060018b90806001815401808255809150509060018203906000526020600020016000909192909190916101000a81548173ffffffffffffffffffffffffffffffffffffffff021916908373ffffffffffffffffffffffffffffffffffffffff160217905550506001600860008d73ffffffffffffffffffffffffffffffffffffffff1673ffffffffffffffffffffffffffffffffffffffff16815260200190815260200160002060006101000a81548160ff0219169083151502179055506001600760008d73ffffffffffffffffffffffffffffffffffffffff1673ffffffffffffffffffffffffffffffffffffffff16815260200190815260200160002060008d73ffffffffffffffffffffffffffffffffffffffff1673ffffffffffffffffffffffffffffffffffffffff16815260200190815260200160002060006101000a81548160ff0219169083151502179055506001600760008d73ffffffffffffffffffffffffffffffffffffffff1673ffffffffffffffffffffffffffffffffffffffff1681526020019081526020016000206000601060009054906101000a900473ffffffffffffffffffffffffffffffffffffffff1673ffffffffffffffffffffffffffffffffffffffff1673ffffffffffffffffffffffffffffffffffffffff16815260200190815260200160002060006101000a81548160ff021916908315150217905550600b600081548092919060010191905055505050505050505050505050565b6000601060009054906101000a900473ffffffffffffffffffffffffffffffffffffffff1673ffffffffffffffffffffffffffffffffffffffff163373ffffffffffffffffffffffffffffffffffffffff16141515611c3257600080fd5b600860008c73ffffffffffffffffffffffffffffffffffffffff1673ffffffffffffffffffffffffffffffffffffffff16815260200190815260200160002060009054906101000a900460ff161515611c8a57600080fd5b600460008c73ffffffffffffffffffffffffffffffffffffffff1673ffffffffffffffffffffffffffffffffffffffff168152602001908152602001600020905089816000019080519060200190611ce3929190612b5d565b5088816001019080519060200190611cfc929190612b5d565b5087816002019080519060200190611d15929190612b5d565b5086816003019080519060200190611d2e929190612b5d565b5085816004019080519060200190611d47929190612b5d565b5084816005019080519060200190611d60929190612b5d565b5083816006019080519060200190611d79929190612b5d565b5082816007019080519060200190611d92929190612b5d565b5081816008019080519060200190611dab929190612b5d565b508a8160090160006101000a81548173ffffffffffffffffffffffffffffffffffffffff021916908373ffffffffffffffffffffffffffffffffffffffff1602179055505050505050505050505050565b600c5481565b6000600c54905090565b60008060009050600280549050811015611e8b5760011515600960008573ffffffffffffffffffffffffffffffffffffffff1673ffffffffffffffffffffffffffffffffffffffff16815260200190815260200160002060009054906101000a900460ff1615151415611e825760019150611e8c565b60009150611e8c565b5b50919050565b6060806060600080600080600760008973ffffffffffffffffffffffffffffffffffffffff1673ffffffffffffffffffffffffffffffffffffffff16815260200190815260200160002060003373ffffffffffffffffffffffffffffffffffffffff1673ffffffffffffffffffffffffffffffffffffffff16815260200190815260200160002060009054906101000a900460ff161515611f3257600080fd5b600660008973ffffffffffffffffffffffffffffffffffffffff1673ffffffffffffffffffffffffffffffffffffffff168152602001908152602001600020905080600001816001018260020183600301548460040160009054906101000a900473ffffffffffffffffffffffffffffffffffffffff168560050160009054906101000a900473ffffffffffffffffffffffffffffffffffffffff16858054600181600116156101000203166002900480601f0160208091040260200160405190810160405280929190818152602001828054600181600116156101000203166002900480156120635780601f1061203857610100808354040283529160200191612063565b820191906000526020600020905b81548152906001019060200180831161204657829003601f168201915b50505050509550848054600181600116156101000203166002900480601f0160208091040260200160405190810160405280929190818152602001828054600181600116156101000203166002900480156120ff5780601f106120d4576101008083540402835291602001916120ff565b820191906000526020600020905b8154815290600101906020018083116120e257829003601f168201915b50505050509450838054600181600116156101000203166002900480601f01602080910402602001604051908101604052809291908181526020018280546001816001161561010002031660029004801561219b5780601f106121705761010080835404028352916020019161219b565b820191906000526020600020905b81548152906001019060200180831161217e57829003601f168201915b505050505093509650965096509650965096505091939550919395565b6000809054906101000a900473ffffffffffffffffffffffffffffffffffffffff1681565b6000336000806101000a81548173ffffffffffffffffffffffffffffffffffffffff021916908373ffffffffffffffffffffffffffffffffffffffff1602179055506000809054906101000a900473ffffffffffffffffffffffffffffffffffffffff16905090565b600f5481565b600d5481565b60018181548110151561226157fe5b906000526020600020016000915054906101000a900473ffffffffffffffffffffffffffffffffffffffff1681565b6060600280548060200260200160405190810160405280929190818152602001828054801561231457602002820191906000526020600020905b8160009054906101000a900473ffffffffffffffffffffffffffffffffffffffff1673ffffffffffffffffffffffffffffffffffffffff16815260200190600101908083116122ca575b5050505050905090565b6000600b54905090565b601060009054906101000a900473ffffffffffffffffffffffffffffffffffffffff1681565b6000601060009054906101000a900473ffffffffffffffffffffffffffffffffffffffff1673ffffffffffffffffffffffffffffffffffffffff163373ffffffffffffffffffffffffffffffffffffffff161415156123ac57600080fd5b6000600760008573ffffffffffffffffffffffffffffffffffffffff1673ffffffffffffffffffffffffffffffffffffffff16815260200190815260200160002060008473ffffffffffffffffffffffffffffffffffffffff1673ffffffffffffffffffffffffffffffffffffffff16815260200190815260200160002060006101000a81548160ff0219169083151502179055506001905092915050565b600e5481565b60608060608060608060606000600760008a73ffffffffffffffffffffffffffffffffffffffff1673ffffffffffffffffffffffffffffffffffffffff16815260200190815260200160002060003373ffffffffffffffffffffffffffffffffffffffff1673ffffffffffffffffffffffffffffffffffffffff16815260200190815260200160002060009054906101000a900460ff1615156124f357600080fd5b600960008a73ffffffffffffffffffffffffffffffffffffffff1673ffffffffffffffffffffffffffffffffffffffff16815260200190815260200160002060009054906101000a900460ff16151561254b57600080fd5b600560008a73ffffffffffffffffffffffffffffffffffffffff1673ffffffffffffffffffffffffffffffffffffffff168152602001908152602001600020905080600001816001018260020183600301846005018560060186600701868054600181600116156101000203166002900480601f01602080910402602001604051908101604052809291908181526020018280546001816001161561010002031660029004801561263d5780601f106126125761010080835404028352916020019161263d565b820191906000526020600020905b81548152906001019060200180831161262057829003601f168201915b50505050509650858054600181600116156101000203166002900480601f0160208091040260200160405190810160405280929190818152602001828054600181600116156101000203166002900480156126d95780601f106126ae576101008083540402835291602001916126d9565b820191906000526020600020905b8154815290600101906020018083116126bc57829003601f168201915b50505050509550848054600181600116156101000203166002900480601f0160208091040260200160405190810160405280929190818152602001828054600181600116156101000203166002900480156127755780601f1061274a57610100808354040283529160200191612775565b820191906000526020600020905b81548152906001019060200180831161275857829003601f168201915b50505050509450838054600181600116156101000203166002900480601f0160208091040260200160405190810160405280929190818152602001828054600181600116156101000203166002900480156128115780601f106127e657610100808354040283529160200191612811565b820191906000526020600020905b8154815290600101906020018083116127f457829003601f168201915b50505050509350828054600181600116156101000203166002900480601f0160208091040260200160405190810160405280929190818152602001828054600181600116156101000203166002900480156128ad5780601f10612882576101008083540402835291602001916128ad565b820191906000526020600020905b81548152906001019060200180831161289057829003601f168201915b50505050509250818054600181600116156101000203166002900480601f0160208091040260200160405190810160405280929190818152602001828054600181600116156101000203166002900480156129495780601f1061291e57610100808354040283529160200191612949565b820191906000526020600020905b81548152906001019060200180831161292c57829003601f168201915b50505050509150808054600181600116156101000203166002900480601f0160208091040260200160405190810160405280929190818152602001828054600181600116156101000203166002900480156129e55780601f106129ba576101008083540402835291602001916129e5565b820191906000526020600020905b8154815290600101906020018083116129c857829003601f168201915b50505050509050975097509750975097509750975050919395979092949650565b6000601060009054906101000a900473ffffffffffffffffffffffffffffffffffffffff1673ffffffffffffffffffffffffffffffffffffffff163373ffffffffffffffffffffffffffffffffffffffff16141515612a6457600080fd5b6001600760008573ffffffffffffffffffffffffffffffffffffffff1673ffffffffffffffffffffffffffffffffffffffff16815260200190815260200160002060008473ffffffffffffffffffffffffffffffffffffffff1673ffffffffffffffffffffffffffffffffffffffff16815260200190815260200160002060006101000a81548160ff021916908315150217905550600d600081548092919060010191905055506001905092915050565b6000600d54905090565b600381815481101515612b2e57fe5b906000526020600020016000915054906101000a900473ffffffffffffffffffffffffffffffffffffffff1681565b828054600181600116156101000203166002900490600052602060002090601f016020900481019282601f10612b9e57805160ff1916838001178555612bcc565b82800160010185558215612bcc579182015b82811115612bcb578251825591602001919060010190612bb0565b5b509050612bd99190612bdd565b5090565b612bff91905b80821115612bfb576000816000905550600101612be3565b5090565b90565b6000612c0e82356134a1565b905092915050565b600082601f8301121515612c2957600080fd5b8135612c3c612c378261340f565b6133e2565b91508082526020830160208301858383011115612c5857600080fd5b612c638382846134cb565b50505092915050565b6000612c7882356134c1565b905092915050565b600060208284031215612c9257600080fd5b6000612ca084828501612c02565b91505092915050565b60008060408385031215612cbc57600080fd5b6000612cca85828601612c02565b9250506020612cdb85828601612c02565b9150509250929050565b60008060008060008060c08789031215612cfe57600080fd5b6000612d0c89828a01612c02565b9650506020612d1d89828a01612c02565b955050604087013567ffffffffffffffff811115612d3a57600080fd5b612d4689828a01612c16565b945050606087013567ffffffffffffffff811115612d6357600080fd5b612d6f89828a01612c16565b935050608087013567ffffffffffffffff811115612d8c57600080fd5b612d9889828a01612c16565b92505060a0612da989828a01612c6c565b9150509295509295509295565b600080600080600080600080610100898b031215612dd357600080fd5b6000612de18b828c01612c02565b985050602089013567ffffffffffffffff811115612dfe57600080fd5b612e0a8b828c01612c16565b975050604089013567ffffffffffffffff811115612e2757600080fd5b612e338b828c01612c16565b965050606089013567ffffffffffffffff811115612e5057600080fd5b612e5c8b828c01612c16565b955050608089013567ffffffffffffffff811115612e7957600080fd5b612e858b828c01612c16565b94505060a089013567ffffffffffffffff811115612ea257600080fd5b612eae8b828c01612c16565b93505060c089013567ffffffffffffffff811115612ecb57600080fd5b612ed78b828c01612c16565b92505060e089013567ffffffffffffffff811115612ef457600080fd5b612f008b828c01612c16565b9150509295985092959890939650565b6000806000806000806000806000806101408b8d031215612f3057600080fd5b6000612f3e8d828e01612c02565b9a505060208b013567ffffffffffffffff811115612f5b57600080fd5b612f678d828e01612c16565b99505060408b013567ffffffffffffffff811115612f8457600080fd5b612f908d828e01612c16565b98505060608b013567ffffffffffffffff811115612fad57600080fd5b612fb98d828e01612c16565b97505060808b013567ffffffffffffffff811115612fd657600080fd5b612fe28d828e01612c16565b96505060a08b013567ffffffffffffffff811115612fff57600080fd5b61300b8d828e01612c16565b95505060c08b013567ffffffffffffffff81111561302857600080fd5b6130348d828e01612c16565b94505060e08b013567ffffffffffffffff81111561305157600080fd5b61305d8d828e01612c16565b9350506101008b013567ffffffffffffffff81111561307b57600080fd5b6130878d828e01612c16565b9250506101208b013567ffffffffffffffff8111156130a557600080fd5b6130b18d828e01612c16565b9150509295989b9194979a5092959850565b6000602082840312156130d557600080fd5b60006130e384828501612c6c565b91505092915050565b6130f58161346b565b82525050565b600061310682613448565b8084526020840193506131188361343b565b60005b8281101561314a5761312e8683516130ec565b6131378261345e565b915060208601955060018101905061311b565b50849250505092915050565b61315f8161348b565b82525050565b600061317082613453565b8084526131848160208601602086016134da565b61318d8161350d565b602085010191505092915050565b6131a481613497565b82525050565b60006020820190506131bf60008301846130ec565b92915050565b600060208201905081810360008301526131df81846130fb565b905092915050565b60006020820190506131fc6000830184613156565b92915050565b600060e082019050818103600083015261321c818a613165565b905081810360208301526132308189613165565b905081810360408301526132448188613165565b905081810360608301526132588187613165565b9050818103608083015261326c8186613165565b905081810360a08301526132808185613165565b905081810360c08301526132948184613165565b905098975050505050505050565b60006101008201905081810360008301526132bd818b613165565b905081810360208301526132d1818a613165565b905081810360408301526132e58189613165565b905081810360608301526132f98188613165565b9050818103608083015261330d8187613165565b905081810360a08301526133218186613165565b905081810360c08301526133358185613165565b905061334460e08301846130ec565b9998505050505050505050565b600060c082019050818103600083015261336b8189613165565b9050818103602083015261337f8188613165565b905081810360408301526133938187613165565b90506133a2606083018661319b565b6133af60808301856130ec565b6133bc60a08301846130ec565b979650505050505050565b60006020820190506133dc600083018461319b565b92915050565b6000604051905081810181811067ffffffffffffffff8211171561340557600080fd5b8060405250919050565b600067ffffffffffffffff82111561342657600080fd5b601f19601f8301169050602081019050919050565b6000602082019050919050565b600081519050919050565b600081519050919050565b6000602082019050919050565b600073ffffffffffffffffffffffffffffffffffffffff82169050919050565b60008115159050919050565b6000819050919050565b600073ffffffffffffffffffffffffffffffffffffffff82169050919050565b6000819050919050565b82818337600083830152505050565b60005b838110156134f85780820151818401526020810190506134dd565b83811115613507576000848401525b50505050565b6000601f19601f83011690509190505600a265627a7a723058205868f0a2954f872164d79f0a97c2c4242b1098fdf1b0d6db0ef10fb4b9c162796c6578706572696d656e74616cf50037",
					"opcodes": "PUSH1 0x80 PUSH1 0x40 MSTORE PUSH1 0x0 PUSH1 0xB SSTORE PUSH1 0x0 PUSH1 0xC SSTORE PUSH1 0x0 PUSH1 0xD SSTORE PUSH1 0x0 PUSH1 0xE SSTORE PUSH1 0x0 PUSH1 0xF SSTORE PUSH20 0xC50C6297F56B033633C30354A854B074749CD2DC PUSH1 0x10 PUSH1 0x0 PUSH2 0x100 EXP DUP2 SLOAD DUP2 PUSH20 0xFFFFFFFFFFFFFFFFFFFFFFFFFFFFFFFFFFFFFFFF MUL NOT AND SWAP1 DUP4 PUSH20 0xFFFFFFFFFFFFFFFFFFFFFFFFFFFFFFFFFFFFFFFF AND MUL OR SWAP1 SSTORE POP CALLVALUE DUP1 ISZERO PUSH2 0x7E JUMPI PUSH1 0x0 DUP1 REVERT JUMPDEST POP PUSH2 0x3558 DUP1 PUSH2 0x8E PUSH1 0x0 CODECOPY PUSH1 0x0 RETURN STOP PUSH1 0x80 PUSH1 0x40 MSTORE PUSH1 0x4 CALLDATASIZE LT PUSH2 0x17F JUMPI PUSH1 0x0 CALLDATALOAD PUSH29 0x100000000000000000000000000000000000000000000000000000000 SWAP1 DIV PUSH4 0xFFFFFFFF AND DUP1 PUSH3 0xCE8E3E EQ PUSH2 0x184 JUMPI DUP1 PUSH4 0x24DECC5 EQ PUSH2 0x1AF JUMPI DUP1 PUSH4 0x76FD2F8 EQ PUSH2 0x1DA JUMPI DUP1 PUSH4 0x7973CCF EQ PUSH2 0x21E JUMPI DUP1 PUSH4 0x127CA4B4 EQ PUSH2 0x249 JUMPI DUP1 PUSH4 0x16E0A611 EQ PUSH2 0x286 JUMPI DUP1 PUSH4 0x17E51111 EQ PUSH2 0x2AF JUMPI DUP1 PUSH4 0x294A4540 EQ PUSH2 0x2D8 JUMPI DUP1 PUSH4 0x341F8105 EQ PUSH2 0x315 JUMPI DUP1 PUSH4 0x5FC8E8C6 EQ PUSH2 0x352 JUMPI DUP1 PUSH4 0x6CDB2278 EQ PUSH2 0x38F JUMPI DUP1 PUSH4 0x779A9576 EQ PUSH2 0x3B8 JUMPI DUP1 PUSH4 0x78522BC4 EQ PUSH2 0x3E1 JUMPI DUP1 PUSH4 0x79111C1C EQ PUSH2 0x40C JUMPI DUP1 PUSH4 0x793DE5F0 EQ PUSH2 0x437 JUMPI DUP1 PUSH4 0x83A28B29 EQ PUSH2 0x474 JUMPI DUP1 PUSH4 0x8DA5CB5B EQ PUSH2 0x4B6 JUMPI DUP1 PUSH4 0x8F84AA09 EQ PUSH2 0x4E1 JUMPI DUP1 PUSH4 0x96E39CE0 EQ PUSH2 0x50C JUMPI DUP1 PUSH4 0x99D698C5 EQ PUSH2 0x537 JUMPI DUP1 PUSH4 0x9F4216E8 EQ PUSH2 0x562 JUMPI DUP1 PUSH4 0xB13D5D94 EQ PUSH2 0x59F JUMPI DUP1 PUSH4 0xB5CB15F7 EQ PUSH2 0x5CA JUMPI DUP1 PUSH4 0xB744FF4D EQ PUSH2 0x5F5 JUMPI DUP1 PUSH4 0xC3BF7BF0 EQ PUSH2 0x620 JUMPI DUP1 PUSH4 0xC543A718 EQ PUSH2 0x65D JUMPI DUP1 PUSH4 0xCAEE6C85 EQ PUSH2 0x688 JUMPI DUP1 PUSH4 0xD118404B EQ PUSH2 0x6CB JUMPI DUP1 PUSH4 0xE0DF0AC6 EQ PUSH2 0x708 JUMPI DUP1 PUSH4 0xFF508DAB EQ PUSH2 0x733 JUMPI JUMPDEST PUSH1 0x0 DUP1 REVERT JUMPDEST CALLVALUE DUP1 ISZERO PUSH2 0x190 JUMPI PUSH1 0x0 DUP1 REVERT JUMPDEST POP PUSH2 0x199 PUSH2 0x770 JUMP JUMPDEST PUSH1 0x40 MLOAD PUSH2 0x1A6 SWAP2 SWAP1 PUSH2 0x31C5 JUMP JUMPDEST PUSH1 0x40 MLOAD DUP1 SWAP2 SUB SWAP1 RETURN JUMPDEST CALLVALUE DUP1 ISZERO PUSH2 0x1BB JUMPI PUSH1 0x0 DUP1 REVERT JUMPDEST POP PUSH2 0x1C4 PUSH2 0x7FE JUMP JUMPDEST PUSH1 0x40 MLOAD PUSH2 0x1D1 SWAP2 SWAP1 PUSH2 0x33C7 JUMP JUMPDEST PUSH1 0x40 MLOAD DUP1 SWAP2 SUB SWAP1 RETURN JUMPDEST CALLVALUE DUP1 ISZERO PUSH2 0x1E6 JUMPI PUSH1 0x0 DUP1 REVERT JUMPDEST POP PUSH2 0x201 PUSH1 0x4 DUP1 CALLDATASIZE SUB PUSH2 0x1FC SWAP2 SWAP1 DUP2 ADD SWAP1 PUSH2 0x2C80 JUMP JUMPDEST PUSH2 0x808 JUMP JUMPDEST PUSH1 0x40 MLOAD PUSH2 0x215 SWAP9 SWAP8 SWAP7 SWAP6 SWAP5 SWAP4 SWAP3 SWAP2 SWAP1 PUSH2 0x32A2 JUMP JUMPDEST PUSH1 0x40 MLOAD DUP1 SWAP2 SUB SWAP1 RETURN JUMPDEST CALLVALUE DUP1 ISZERO PUSH2 0x22A JUMPI PUSH1 0x0 DUP1 REVERT JUMPDEST POP PUSH2 0x233 PUSH2 0xD8D JUMP JUMPDEST PUSH1 0x40 MLOAD PUSH2 0x240 SWAP2 SWAP1 PUSH2 0x33C7 JUMP JUMPDEST PUSH1 0x40 MLOAD DUP1 SWAP2 SUB SWAP1 RETURN JUMPDEST CALLVALUE DUP1 ISZERO PUSH2 0x255 JUMPI PUSH1 0x0 DUP1 REVERT JUMPDEST POP PUSH2 0x270 PUSH1 0x4 DUP1 CALLDATASIZE SUB PUSH2 0x26B SWAP2 SWAP1 DUP2 ADD SWAP1 PUSH2 0x30C3 JUMP JUMPDEST PUSH2 0xD93 JUMP JUMPDEST PUSH1 0x40 MLOAD PUSH2 0x27D SWAP2 SWAP1 PUSH2 0x31AA JUMP JUMPDEST PUSH1 0x40 MLOAD DUP1 SWAP2 SUB SWAP1 RETURN JUMPDEST CALLVALUE DUP1 ISZERO PUSH2 0x292 JUMPI PUSH1 0x0 DUP1 REVERT JUMPDEST POP PUSH2 0x2AD PUSH1 0x4 DUP1 CALLDATASIZE SUB PUSH2 0x2A8 SWAP2 SWAP1 DUP2 ADD SWAP1 PUSH2 0x2DB6 JUMP JUMPDEST PUSH2 0xDD1 JUMP JUMPDEST STOP JUMPDEST CALLVALUE DUP1 ISZERO PUSH2 0x2BB JUMPI PUSH1 0x0 DUP1 REVERT JUMPDEST POP PUSH2 0x2D6 PUSH1 0x4 DUP1 CALLDATASIZE SUB PUSH2 0x2D1 SWAP2 SWAP1 DUP2 ADD SWAP1 PUSH2 0x2DB6 JUMP JUMPDEST PUSH2 0xFC5 JUMP JUMPDEST STOP JUMPDEST CALLVALUE DUP1 ISZERO PUSH2 0x2E4 JUMPI PUSH1 0x0 DUP1 REVERT JUMPDEST POP PUSH2 0x2FF PUSH1 0x4 DUP1 CALLDATASIZE SUB PUSH2 0x2FA SWAP2 SWAP1 DUP2 ADD SWAP1 PUSH2 0x2C80 JUMP JUMPDEST PUSH2 0x13DF JUMP JUMPDEST PUSH1 0x40 MLOAD PUSH2 0x30C SWAP2 SWAP1 PUSH2 0x31E7 JUMP JUMPDEST PUSH1 0x40 MLOAD DUP1 SWAP2 SUB SWAP1 RETURN JUMPDEST CALLVALUE DUP1 ISZERO PUSH2 0x321 JUMPI PUSH1 0x0 DUP1 REVERT JUMPDEST POP PUSH2 0x33C PUSH1 0x4 DUP1 CALLDATASIZE SUB PUSH2 0x337 SWAP2 SWAP1 DUP2 ADD SWAP1 PUSH2 0x2CE5 JUMP JUMPDEST PUSH2 0x1491 JUMP JUMPDEST PUSH1 0x40 MLOAD PUSH2 0x349 SWAP2 SWAP1 PUSH2 0x31E7 JUMP JUMPDEST PUSH1 0x40 MLOAD DUP1 SWAP2 SUB SWAP1 RETURN JUMPDEST CALLVALUE DUP1 ISZERO PUSH2 0x35E JUMPI PUSH1 0x0 DUP1 REVERT JUMPDEST POP PUSH2 0x379 PUSH1 0x4 DUP1 CALLDATASIZE SUB PUSH2 0x374 SWAP2 SWAP1 DUP2 ADD SWAP1 PUSH2 0x2C80 JUMP JUMPDEST PUSH2 0x16E7 JUMP JUMPDEST PUSH1 0x40 MLOAD PUSH2 0x386 SWAP2 SWAP1 PUSH2 0x31E7 JUMP JUMPDEST PUSH1 0x40 MLOAD DUP1 SWAP2 SUB SWAP1 RETURN JUMPDEST CALLVALUE DUP1 ISZERO PUSH2 0x39B JUMPI PUSH1 0x0 DUP1 REVERT JUMPDEST POP PUSH2 0x3B6 PUSH1 0x4 DUP1 CALLDATASIZE SUB PUSH2 0x3B1 SWAP2 SWAP1 DUP2 ADD SWAP1 PUSH2 0x2F10 JUMP JUMPDEST PUSH2 0x1786 JUMP JUMPDEST STOP JUMPDEST CALLVALUE DUP1 ISZERO PUSH2 0x3C4 JUMPI PUSH1 0x0 DUP1 REVERT JUMPDEST POP PUSH2 0x3DF PUSH1 0x4 DUP1 CALLDATASIZE SUB PUSH2 0x3DA SWAP2 SWAP1 DUP2 ADD SWAP1 PUSH2 0x2F10 JUMP JUMPDEST PUSH2 0x1BD4 JUMP JUMPDEST STOP JUMPDEST CALLVALUE DUP1 ISZERO PUSH2 0x3ED JUMPI PUSH1 0x0 DUP1 REVERT JUMPDEST POP PUSH2 0x3F6 PUSH2 0x1DFC JUMP JUMPDEST PUSH1 0x40 MLOAD PUSH2 0x403 SWAP2 SWAP1 PUSH2 0x33C7 JUMP JUMPDEST PUSH1 0x40 MLOAD DUP1 SWAP2 SUB SWAP1 RETURN JUMPDEST CALLVALUE DUP1 ISZERO PUSH2 0x418 JUMPI PUSH1 0x0 DUP1 REVERT JUMPDEST POP PUSH2 0x421 PUSH2 0x1E02 JUMP JUMPDEST PUSH1 0x40 MLOAD PUSH2 0x42E SWAP2 SWAP1 PUSH2 0x33C7 JUMP JUMPDEST PUSH1 0x40 MLOAD DUP1 SWAP2 SUB SWAP1 RETURN JUMPDEST CALLVALUE DUP1 ISZERO PUSH2 0x443 JUMPI PUSH1 0x0 DUP1 REVERT JUMPDEST POP PUSH2 0x45E PUSH1 0x4 DUP1 CALLDATASIZE SUB PUSH2 0x459 SWAP2 SWAP1 DUP2 ADD SWAP1 PUSH2 0x2C80 JUMP JUMPDEST PUSH2 0x1E0C JUMP JUMPDEST PUSH1 0x40 MLOAD PUSH2 0x46B SWAP2 SWAP1 PUSH2 0x31E7 JUMP JUMPDEST PUSH1 0x40 MLOAD DUP1 SWAP2 SUB SWAP1 RETURN JUMPDEST CALLVALUE DUP1 ISZERO PUSH2 0x480 JUMPI PUSH1 0x0 DUP1 REVERT JUMPDEST POP PUSH2 0x49B PUSH1 0x4 DUP1 CALLDATASIZE SUB PUSH2 0x496 SWAP2 SWAP1 DUP2 ADD SWAP1 PUSH2 0x2C80 JUMP JUMPDEST PUSH2 0x1E92 JUMP JUMPDEST PUSH1 0x40 MLOAD PUSH2 0x4AD SWAP7 SWAP6 SWAP5 SWAP4 SWAP3 SWAP2 SWAP1 PUSH2 0x3351 JUMP JUMPDEST PUSH1 0x40 MLOAD DUP1 SWAP2 SUB SWAP1 RETURN JUMPDEST CALLVALUE DUP1 ISZERO PUSH2 0x4C2 JUMPI PUSH1 0x0 DUP1 REVERT JUMPDEST POP PUSH2 0x4CB PUSH2 0x21B8 JUMP JUMPDEST PUSH1 0x40 MLOAD PUSH2 0x4D8 SWAP2 SWAP1 PUSH2 0x31AA JUMP JUMPDEST PUSH1 0x40 MLOAD DUP1 SWAP2 SUB SWAP1 RETURN JUMPDEST CALLVALUE DUP1 ISZERO PUSH2 0x4ED JUMPI PUSH1 0x0 DUP1 REVERT JUMPDEST POP PUSH2 0x4F6 PUSH2 0x21DD JUMP JUMPDEST PUSH1 0x40 MLOAD PUSH2 0x503 SWAP2 SWAP1 PUSH2 0x31AA JUMP JUMPDEST PUSH1 0x40 MLOAD DUP1 SWAP2 SUB SWAP1 RETURN JUMPDEST CALLVALUE DUP1 ISZERO PUSH2 0x518 JUMPI PUSH1 0x0 DUP1 REVERT JUMPDEST POP PUSH2 0x521 PUSH2 0x2246 JUMP JUMPDEST PUSH1 0x40 MLOAD PUSH2 0x52E SWAP2 SWAP1 PUSH2 0x33C7 JUMP JUMPDEST PUSH1 0x40 MLOAD DUP1 SWAP2 SUB SWAP1 RETURN JUMPDEST CALLVALUE DUP1 ISZERO PUSH2 0x543 JUMPI PUSH1 0x0 DUP1 REVERT JUMPDEST POP PUSH2 0x54C PUSH2 0x224C JUMP JUMPDEST PUSH1 0x40 MLOAD PUSH2 0x559 SWAP2 SWAP1 PUSH2 0x33C7 JUMP JUMPDEST PUSH1 0x40 MLOAD DUP1 SWAP2 SUB SWAP1 RETURN JUMPDEST CALLVALUE DUP1 ISZERO PUSH2 0x56E JUMPI PUSH1 0x0 DUP1 REVERT JUMPDEST POP PUSH2 0x589 PUSH1 0x4 DUP1 CALLDATASIZE SUB PUSH2 0x584 SWAP2 SWAP1 DUP2 ADD SWAP1 PUSH2 0x30C3 JUMP JUMPDEST PUSH2 0x2252 JUMP JUMPDEST PUSH1 0x40 MLOAD PUSH2 0x596 SWAP2 SWAP1 PUSH2 0x31AA JUMP JUMPDEST PUSH1 0x40 MLOAD DUP1 SWAP2 SUB SWAP1 RETURN JUMPDEST CALLVALUE DUP1 ISZERO PUSH2 0x5AB JUMPI PUSH1 0x0 DUP1 REVERT JUMPDEST POP PUSH2 0x5B4 PUSH2 0x2290 JUMP JUMPDEST PUSH1 0x40 MLOAD PUSH2 0x5C1 SWAP2 SWAP1 PUSH2 0x31C5 JUMP JUMPDEST PUSH1 0x40 MLOAD DUP1 SWAP2 SUB SWAP1 RETURN JUMPDEST CALLVALUE DUP1 ISZERO PUSH2 0x5D6 JUMPI PUSH1 0x0 DUP1 REVERT JUMPDEST POP PUSH2 0x5DF PUSH2 0x231E JUMP JUMPDEST PUSH1 0x40 MLOAD PUSH2 0x5EC SWAP2 SWAP1 PUSH2 0x33C7 JUMP JUMPDEST PUSH1 0x40 MLOAD DUP1 SWAP2 SUB SWAP1 RETURN JUMPDEST CALLVALUE DUP1 ISZERO PUSH2 0x601 JUMPI PUSH1 0x0 DUP1 REVERT JUMPDEST POP PUSH2 0x60A PUSH2 0x2328 JUMP JUMPDEST PUSH1 0x40 MLOAD PUSH2 0x617 SWAP2 SWAP1 PUSH2 0x31AA JUMP JUMPDEST PUSH1 0x40 MLOAD DUP1 SWAP2 SUB SWAP1 RETURN JUMPDEST CALLVALUE DUP1 ISZERO PUSH2 0x62C JUMPI PUSH1 0x0 DUP1 REVERT JUMPDEST POP PUSH2 0x647 PUSH1 0x4 DUP1 CALLDATASIZE SUB PUSH2 0x642 SWAP2 SWAP1 DUP2 ADD SWAP1 PUSH2 0x2CA9 JUMP JUMPDEST PUSH2 0x234E JUMP JUMPDEST PUSH1 0x40 MLOAD PUSH2 0x654 SWAP2 SWAP1 PUSH2 0x31E7 JUMP JUMPDEST PUSH1 0x40 MLOAD DUP1 SWAP2 SUB SWAP1 RETURN JUMPDEST CALLVALUE DUP1 ISZERO PUSH2 0x669 JUMPI PUSH1 0x0 DUP1 REVERT JUMPDEST POP PUSH2 0x672 PUSH2 0x244B JUMP JUMPDEST PUSH1 0x40 MLOAD PUSH2 0x67F SWAP2 SWAP1 PUSH2 0x33C7 JUMP JUMPDEST PUSH1 0x40 MLOAD DUP1 SWAP2 SUB SWAP1 RETURN JUMPDEST CALLVALUE DUP1 ISZERO PUSH2 0x694 JUMPI PUSH1 0x0 DUP1 REVERT JUMPDEST POP PUSH2 0x6AF PUSH1 0x4 DUP1 CALLDATASIZE SUB PUSH2 0x6AA SWAP2 SWAP1 DUP2 ADD SWAP1 PUSH2 0x2C80 JUMP JUMPDEST PUSH2 0x2451 JUMP JUMPDEST PUSH1 0x40 MLOAD PUSH2 0x6C2 SWAP8 SWAP7 SWAP6 SWAP5 SWAP4 SWAP3 SWAP2 SWAP1 PUSH2 0x3202 JUMP JUMPDEST PUSH1 0x40 MLOAD DUP1 SWAP2 SUB SWAP1 RETURN JUMPDEST CALLVALUE DUP1 ISZERO PUSH2 0x6D7 JUMPI PUSH1 0x0 DUP1 REVERT JUMPDEST POP PUSH2 0x6F2 PUSH1 0x4 DUP1 CALLDATASIZE SUB PUSH2 0x6ED SWAP2 SWAP1 DUP2 ADD SWAP1 PUSH2 0x2CA9 JUMP JUMPDEST PUSH2 0x2A06 JUMP JUMPDEST PUSH1 0x40 MLOAD PUSH2 0x6FF SWAP2 SWAP1 PUSH2 0x31E7 JUMP JUMPDEST PUSH1 0x40 MLOAD DUP1 SWAP2 SUB SWAP1 RETURN JUMPDEST CALLVALUE DUP1 ISZERO PUSH2 0x714 JUMPI PUSH1 0x0 DUP1 REVERT JUMPDEST POP PUSH2 0x71D PUSH2 0x2B15 JUMP JUMPDEST PUSH1 0x40 MLOAD PUSH2 0x72A SWAP2 SWAP1 PUSH2 0x33C7 JUMP JUMPDEST PUSH1 0x40 MLOAD DUP1 SWAP2 SUB SWAP1 RETURN JUMPDEST CALLVALUE DUP1 ISZERO PUSH2 0x73F JUMPI PUSH1 0x0 DUP1 REVERT JUMPDEST POP PUSH2 0x75A PUSH1 0x4 DUP1 CALLDATASIZE SUB PUSH2 0x755 SWAP2 SWAP1 DUP2 ADD SWAP1 PUSH2 0x30C3 JUMP JUMPDEST PUSH2 0x2B1F JUMP JUMPDEST PUSH1 0x40 MLOAD PUSH2 0x767 SWAP2 SWAP1 PUSH2 0x31AA JUMP JUMPDEST PUSH1 0x40 MLOAD DUP1 SWAP2 SUB SWAP1 RETURN JUMPDEST PUSH1 0x60 PUSH1 0x1 DUP1 SLOAD DUP1 PUSH1 0x20 MUL PUSH1 0x20 ADD PUSH1 0x40 MLOAD SWAP1 DUP2 ADD PUSH1 0x40 MSTORE DUP1 SWAP3 SWAP2 SWAP1 DUP2 DUP2 MSTORE PUSH1 0x20 ADD DUP3 DUP1 SLOAD DUP1 ISZERO PUSH2 0x7F4 JUMPI PUSH1 0x20 MUL DUP3 ADD SWAP2 SWAP1 PUSH1 0x0 MSTORE PUSH1 0x20 PUSH1 0x0 KECCAK256 SWAP1 JUMPDEST DUP2 PUSH1 0x0 SWAP1 SLOAD SWAP1 PUSH2 0x100 EXP SWAP1 DIV PUSH20 0xFFFFFFFFFFFFFFFFFFFFFFFFFFFFFFFFFFFFFFFF AND PUSH20 0xFFFFFFFFFFFFFFFFFFFFFFFFFFFFFFFFFFFFFFFF AND DUP2 MSTORE PUSH1 0x20 ADD SWAP1 PUSH1 0x1 ADD SWAP1 DUP1 DUP4 GT PUSH2 0x7AA JUMPI JUMPDEST POP POP POP POP POP SWAP1 POP SWAP1 JUMP JUMPDEST PUSH1 0x0 PUSH1 0xE SLOAD SWAP1 POP SWAP1 JUMP JUMPDEST PUSH1 0x60 DUP1 PUSH1 0x60 DUP1 PUSH1 0x60 DUP1 PUSH1 0x60 PUSH1 0x0 DUP1 PUSH1 0x7 PUSH1 0x0 DUP12 PUSH20 0xFFFFFFFFFFFFFFFFFFFFFFFFFFFFFFFFFFFFFFFF AND PUSH20 0xFFFFFFFFFFFFFFFFFFFFFFFFFFFFFFFFFFFFFFFF AND DUP2 MSTORE PUSH1 0x20 ADD SWAP1 DUP2 MSTORE PUSH1 0x20 ADD PUSH1 0x0 KECCAK256 PUSH1 0x0 CALLER PUSH20 0xFFFFFFFFFFFFFFFFFFFFFFFFFFFFFFFFFFFFFFFF AND PUSH20 0xFFFFFFFFFFFFFFFFFFFFFFFFFFFFFFFFFFFFFFFF AND DUP2 MSTORE PUSH1 0x20 ADD SWAP1 DUP2 MSTORE PUSH1 0x20 ADD PUSH1 0x0 KECCAK256 PUSH1 0x0 SWAP1 SLOAD SWAP1 PUSH2 0x100 EXP SWAP1 DIV PUSH1 0xFF AND ISZERO ISZERO PUSH2 0x8AB JUMPI PUSH1 0x0 DUP1 REVERT JUMPDEST PUSH1 0x4 PUSH1 0x0 DUP12 PUSH20 0xFFFFFFFFFFFFFFFFFFFFFFFFFFFFFFFFFFFFFFFF AND PUSH20 0xFFFFFFFFFFFFFFFFFFFFFFFFFFFFFFFFFFFFFFFF AND DUP2 MSTORE PUSH1 0x20 ADD SWAP1 DUP2 MSTORE PUSH1 0x20 ADD PUSH1 0x0 KECCAK256 SWAP1 POP DUP1 PUSH1 0x0 ADD DUP2 PUSH1 0x1 ADD DUP3 PUSH1 0x6 ADD DUP4 PUSH1 0x2 ADD DUP5 PUSH1 0x3 ADD DUP6 PUSH1 0x4 ADD DUP7 PUSH1 0x5 ADD DUP8 PUSH1 0x9 ADD PUSH1 0x0 SWAP1 SLOAD SWAP1 PUSH2 0x100 EXP SWAP1 DIV PUSH20 0xFFFFFFFFFFFFFFFFFFFFFFFFFFFFFFFFFFFFFFFF AND DUP8 DUP1 SLOAD PUSH1 0x1 DUP2 PUSH1 0x1 AND ISZERO PUSH2 0x100 MUL SUB AND PUSH1 0x2 SWAP1 DIV DUP1 PUSH1 0x1F ADD PUSH1 0x20 DUP1 SWAP2 DIV MUL PUSH1 0x20 ADD PUSH1 0x40 MLOAD SWAP1 DUP2 ADD PUSH1 0x40 MSTORE DUP1 SWAP3 SWAP2 SWAP1 DUP2 DUP2 MSTORE PUSH1 0x20 ADD DUP3 DUP1 SLOAD PUSH1 0x1 DUP2 PUSH1 0x1 AND ISZERO PUSH2 0x100 MUL SUB AND PUSH1 0x2 SWAP1 DIV DUP1 ISZERO PUSH2 0x9C2 JUMPI DUP1 PUSH1 0x1F LT PUSH2 0x997 JUMPI PUSH2 0x100 DUP1 DUP4 SLOAD DIV MUL DUP4 MSTORE SWAP2 PUSH1 0x20 ADD SWAP2 PUSH2 0x9C2 JUMP JUMPDEST DUP3 ADD SWAP2 SWAP1 PUSH1 0x0 MSTORE PUSH1 0x20 PUSH1 0x0 KECCAK256 SWAP1 JUMPDEST DUP2 SLOAD DUP2 MSTORE SWAP1 PUSH1 0x1 ADD SWAP1 PUSH1 0x20 ADD DUP1 DUP4 GT PUSH2 0x9A5 JUMPI DUP3 SWAP1 SUB PUSH1 0x1F AND DUP3 ADD SWAP2 JUMPDEST POP POP POP POP POP SWAP8 POP DUP7 DUP1 SLOAD PUSH1 0x1 DUP2 PUSH1 0x1 AND ISZERO PUSH2 0x100 MUL SUB AND PUSH1 0x2 SWAP1 DIV DUP1 PUSH1 0x1F ADD PUSH1 0x20 DUP1 SWAP2 DIV MUL PUSH1 0x20 ADD PUSH1 0x40 MLOAD SWAP1 DUP2 ADD PUSH1 0x40 MSTORE DUP1 SWAP3 SWAP2 SWAP1 DUP2 DUP2 MSTORE PUSH1 0x20 ADD DUP3 DUP1 SLOAD PUSH1 0x1 DUP2 PUSH1 0x1 AND ISZERO PUSH2 0x100 MUL SUB AND PUSH1 0x2 SWAP1 DIV DUP1 ISZERO PUSH2 0xA5E JUMPI DUP1 PUSH1 0x1F LT PUSH2 0xA33 JUMPI PUSH2 0x100 DUP1 DUP4 SLOAD DIV MUL DUP4 MSTORE SWAP2 PUSH1 0x20 ADD SWAP2 PUSH2 0xA5E JUMP JUMPDEST DUP3 ADD SWAP2 SWAP1 PUSH1 0x0 MSTORE PUSH1 0x20 PUSH1 0x0 KECCAK256 SWAP1 JUMPDEST DUP2 SLOAD DUP2 MSTORE SWAP1 PUSH1 0x1 ADD SWAP1 PUSH1 0x20 ADD DUP1 DUP4 GT PUSH2 0xA41 JUMPI DUP3 SWAP1 SUB PUSH1 0x1F AND DUP3 ADD SWAP2 JUMPDEST POP POP POP POP POP SWAP7 POP DUP6 DUP1 SLOAD PUSH1 0x1 DUP2 PUSH1 0x1 AND ISZERO PUSH2 0x100 MUL SUB AND PUSH1 0x2 SWAP1 DIV DUP1 PUSH1 0x1F ADD PUSH1 0x20 DUP1 SWAP2 DIV MUL PUSH1 0x20 ADD PUSH1 0x40 MLOAD SWAP1 DUP2 ADD PUSH1 0x40 MSTORE DUP1 SWAP3 SWAP2 SWAP1 DUP2 DUP2 MSTORE PUSH1 0x20 ADD DUP3 DUP1 SLOAD PUSH1 0x1 DUP2 PUSH1 0x1 AND ISZERO PUSH2 0x100 MUL SUB AND PUSH1 0x2 SWAP1 DIV DUP1 ISZERO PUSH2 0xAFA JUMPI DUP1 PUSH1 0x1F LT PUSH2 0xACF JUMPI PUSH2 0x100 DUP1 DUP4 SLOAD DIV MUL DUP4 MSTORE SWAP2 PUSH1 0x20 ADD SWAP2 PUSH2 0xAFA JUMP JUMPDEST DUP3 ADD SWAP2 SWAP1 PUSH1 0x0 MSTORE PUSH1 0x20 PUSH1 0x0 KECCAK256 SWAP1 JUMPDEST DUP2 SLOAD DUP2 MSTORE SWAP1 PUSH1 0x1 ADD SWAP1 PUSH1 0x20 ADD DUP1 DUP4 GT PUSH2 0xADD JUMPI DUP3 SWAP1 SUB PUSH1 0x1F AND DUP3 ADD SWAP2 JUMPDEST POP POP POP POP POP SWAP6 POP DUP5 DUP1 SLOAD PUSH1 0x1 DUP2 PUSH1 0x1 AND ISZERO PUSH2 0x100 MUL SUB AND PUSH1 0x2 SWAP1 DIV DUP1 PUSH1 0x1F ADD PUSH1 0x20 DUP1 SWAP2 DIV MUL PUSH1 0x20 ADD PUSH1 0x40 MLOAD SWAP1 DUP2 ADD PUSH1 0x40 MSTORE DUP1 SWAP3 SWAP2 SWAP1 DUP2 DUP2 MSTORE PUSH1 0x20 ADD DUP3 DUP1 SLOAD PUSH1 0x1 DUP2 PUSH1 0x1 AND ISZERO PUSH2 0x100 MUL SUB AND PUSH1 0x2 SWAP1 DIV DUP1 ISZERO PUSH2 0xB96 JUMPI DUP1 PUSH1 0x1F LT PUSH2 0xB6B JUMPI PUSH2 0x100 DUP1 DUP4 SLOAD DIV MUL DUP4 MSTORE SWAP2 PUSH1 0x20 ADD SWAP2 PUSH2 0xB96 JUMP JUMPDEST DUP3 ADD SWAP2 SWAP1 PUSH1 0x0 MSTORE PUSH1 0x20 PUSH1 0x0 KECCAK256 SWAP1 JUMPDEST DUP2 SLOAD DUP2 MSTORE SWAP1 PUSH1 0x1 ADD SWAP1 PUSH1 0x20 ADD DUP1 DUP4 GT PUSH2 0xB79 JUMPI DUP3 SWAP1 SUB PUSH1 0x1F AND DUP3 ADD SWAP2 JUMPDEST POP POP POP POP POP SWAP5 POP DUP4 DUP1 SLOAD PUSH1 0x1 DUP2 PUSH1 0x1 AND ISZERO PUSH2 0x100 MUL SUB AND PUSH1 0x2 SWAP1 DIV DUP1 PUSH1 0x1F ADD PUSH1 0x20 DUP1 SWAP2 DIV MUL PUSH1 0x20 ADD PUSH1 0x40 MLOAD SWAP1 DUP2 ADD PUSH1 0x40 MSTORE DUP1 SWAP3 SWAP2 SWAP1 DUP2 DUP2 MSTORE PUSH1 0x20 ADD DUP3 DUP1 SLOAD PUSH1 0x1 DUP2 PUSH1 0x1 AND ISZERO PUSH2 0x100 MUL SUB AND PUSH1 0x2 SWAP1 DIV DUP1 ISZERO PUSH2 0xC32 JUMPI DUP1 PUSH1 0x1F LT PUSH2 0xC07 JUMPI PUSH2 0x100 DUP1 DUP4 SLOAD DIV MUL DUP4 MSTORE SWAP2 PUSH1 0x20 ADD SWAP2 PUSH2 0xC32 JUMP JUMPDEST DUP3 ADD SWAP2 SWAP1 PUSH1 0x0 MSTORE PUSH1 0x20 PUSH1 0x0 KECCAK256 SWAP1 JUMPDEST DUP2 SLOAD DUP2 MSTORE SWAP1 PUSH1 0x1 ADD SWAP1 PUSH1 0x20 ADD DUP1 DUP4 GT PUSH2 0xC15 JUMPI DUP3 SWAP1 SUB PUSH1 0x1F AND DUP3 ADD SWAP2 JUMPDEST POP POP POP POP POP SWAP4 POP DUP3 DUP1 SLOAD PUSH1 0x1 DUP2 PUSH1 0x1 AND ISZERO PUSH2 0x100 MUL SUB AND PUSH1 0x2 SWAP1 DIV DUP1 PUSH1 0x1F ADD PUSH1 0x20 DUP1 SWAP2 DIV MUL PUSH1 0x20 ADD PUSH1 0x40 MLOAD SWAP1 DUP2 ADD PUSH1 0x40 MSTORE DUP1 SWAP3 SWAP2 SWAP1 DUP2 DUP2 MSTORE PUSH1 0x20 ADD DUP3 DUP1 SLOAD PUSH1 0x1 DUP2 PUSH1 0x1 AND ISZERO PUSH2 0x100 MUL SUB AND PUSH1 0x2 SWAP1 DIV DUP1 ISZERO PUSH2 0xCCE JUMPI DUP1 PUSH1 0x1F LT PUSH2 0xCA3 JUMPI PUSH2 0x100 DUP1 DUP4 SLOAD DIV MUL DUP4 MSTORE SWAP2 PUSH1 0x20 ADD SWAP2 PUSH2 0xCCE JUMP JUMPDEST DUP3 ADD SWAP2 SWAP1 PUSH1 0x0 MSTORE PUSH1 0x20 PUSH1 0x0 KECCAK256 SWAP1 JUMPDEST DUP2 SLOAD DUP2 MSTORE SWAP1 PUSH1 0x1 ADD SWAP1 PUSH1 0x20 ADD DUP1 DUP4 GT PUSH2 0xCB1 JUMPI DUP3 SWAP1 SUB PUSH1 0x1F AND DUP3 ADD SWAP2 JUMPDEST POP POP POP POP POP SWAP3 POP DUP2 DUP1 SLOAD PUSH1 0x1 DUP2 PUSH1 0x1 AND ISZERO PUSH2 0x100 MUL SUB AND PUSH1 0x2 SWAP1 DIV DUP1 PUSH1 0x1F ADD PUSH1 0x20 DUP1 SWAP2 DIV MUL PUSH1 0x20 ADD PUSH1 0x40 MLOAD SWAP1 DUP2 ADD PUSH1 0x40 MSTORE DUP1 SWAP3 SWAP2 SWAP1 DUP2 DUP2 MSTORE PUSH1 0x20 ADD DUP3 DUP1 SLOAD PUSH1 0x1 DUP2 PUSH1 0x1 AND ISZERO PUSH2 0x100 MUL SUB AND PUSH1 0x2 SWAP1 DIV DUP1 ISZERO PUSH2 0xD6A JUMPI DUP1 PUSH1 0x1F LT PUSH2 0xD3F JUMPI PUSH2 0x100 DUP1 DUP4 SLOAD DIV MUL DUP4 MSTORE SWAP2 PUSH1 0x20 ADD SWAP2 PUSH2 0xD6A JUMP JUMPDEST DUP3 ADD SWAP2 SWAP1 PUSH1 0x0 MSTORE PUSH1 0x20 PUSH1 0x0 KECCAK256 SWAP1 JUMPDEST DUP2 SLOAD DUP2 MSTORE SWAP1 PUSH1 0x1 ADD SWAP1 PUSH1 0x20 ADD DUP1 DUP4 GT PUSH2 0xD4D JUMPI DUP3 SWAP1 SUB PUSH1 0x1F AND DUP3 ADD SWAP2 JUMPDEST POP POP POP POP POP SWAP2 POP SWAP9 POP SWAP9 POP SWAP9 POP SWAP9 POP SWAP9 POP SWAP9 POP SWAP9 POP SWAP9 POP POP SWAP2 SWAP4 SWAP6 SWAP8 POP SWAP2 SWAP4 SWAP6 SWAP8 JUMP JUMPDEST PUSH1 0xB SLOAD DUP2 JUMP JUMPDEST PUSH1 0x2 DUP2 DUP2 SLOAD DUP2 LT ISZERO ISZERO PUSH2 0xDA2 JUMPI INVALID JUMPDEST SWAP1 PUSH1 0x0 MSTORE PUSH1 0x20 PUSH1 0x0 KECCAK256 ADD PUSH1 0x0 SWAP2 POP SLOAD SWAP1 PUSH2 0x100 EXP SWAP1 DIV PUSH20 0xFFFFFFFFFFFFFFFFFFFFFFFFFFFFFFFFFFFFFFFF AND DUP2 JUMP JUMPDEST PUSH1 0x0 PUSH1 0x10 PUSH1 0x0 SWAP1 SLOAD SWAP1 PUSH2 0x100 EXP SWAP1 DIV PUSH20 0xFFFFFFFFFFFFFFFFFFFFFFFFFFFFFFFFFFFFFFFF AND PUSH20 0xFFFFFFFFFFFFFFFFFFFFFFFFFFFFFFFFFFFFFFFF AND CALLER PUSH20 0xFFFFFFFFFFFFFFFFFFFFFFFFFFFFFFFFFFFFFFFF AND EQ ISZERO ISZERO PUSH2 0xE2F JUMPI PUSH1 0x0 DUP1 REVERT JUMPDEST PUSH1 0x9 PUSH1 0x0 DUP11 PUSH20 0xFFFFFFFFFFFFFFFFFFFFFFFFFFFFFFFFFFFFFFFF AND PUSH20 0xFFFFFFFFFFFFFFFFFFFFFFFFFFFFFFFFFFFFFFFF AND DUP2 MSTORE PUSH1 0x20 ADD SWAP1 DUP2 MSTORE PUSH1 0x20 ADD PUSH1 0x0 KECCAK256 PUSH1 0x0 SWAP1 SLOAD SWAP1 PUSH2 0x100 EXP SWAP1 DIV PUSH1 0xFF AND ISZERO ISZERO PUSH2 0xE87 JUMPI PUSH1 0x0 DUP1 REVERT JUMPDEST PUSH1 0x5 PUSH1 0x0 DUP11 PUSH20 0xFFFFFFFFFFFFFFFFFFFFFFFFFFFFFFFFFFFFFFFF AND PUSH20 0xFFFFFFFFFFFFFFFFFFFFFFFFFFFFFFFFFFFFFFFF AND DUP2 MSTORE PUSH1 0x20 ADD SWAP1 DUP2 MSTORE PUSH1 0x20 ADD PUSH1 0x0 KECCAK256 SWAP1 POP DUP8 DUP2 PUSH1 0x0 ADD SWAP1 DUP1 MLOAD SWAP1 PUSH1 0x20 ADD SWAP1 PUSH2 0xEE0 SWAP3 SWAP2 SWAP1 PUSH2 0x2B5D JUMP JUMPDEST POP DUP7 DUP2 PUSH1 0x1 ADD SWAP1 DUP1 MLOAD SWAP1 PUSH1 0x20 ADD SWAP1 PUSH2 0xEF9 SWAP3 SWAP2 SWAP1 PUSH2 0x2B5D JUMP JUMPDEST POP DUP6 DUP2 PUSH1 0x2 ADD SWAP1 DUP1 MLOAD SWAP1 PUSH1 0x20 ADD SWAP1 PUSH2 0xF12 SWAP3 SWAP2 SWAP1 PUSH2 0x2B5D JUMP JUMPDEST POP DUP5 DUP2 PUSH1 0x3 ADD SWAP1 DUP1 MLOAD SWAP1 PUSH1 0x20 ADD SWAP1 PUSH2 0xF2B SWAP3 SWAP2 SWAP1 PUSH2 0x2B5D JUMP JUMPDEST POP DUP4 DUP2 PUSH1 0x5 ADD SWAP1 DUP1 MLOAD SWAP1 PUSH1 0x20 ADD SWAP1 PUSH2 0xF44 SWAP3 SWAP2 SWAP1 PUSH2 0x2B5D JUMP JUMPDEST POP DUP3 DUP2 PUSH1 0x6 ADD SWAP1 DUP1 MLOAD SWAP1 PUSH1 0x20 ADD SWAP1 PUSH2 0xF5D SWAP3 SWAP2 SWAP1 PUSH2 0x2B5D JUMP JUMPDEST POP DUP2 DUP2 PUSH1 0x7 ADD SWAP1 DUP1 MLOAD SWAP1 PUSH1 0x20 ADD SWAP1 PUSH2 0xF76 SWAP3 SWAP2 SWAP1 PUSH2 0x2B5D JUMP JUMPDEST POP DUP9 DUP2 PUSH1 0x8 ADD PUSH1 0x0 PUSH2 0x100 EXP DUP2 SLOAD DUP2 PUSH20 0xFFFFFFFFFFFFFFFFFFFFFFFFFFFFFFFFFFFFFFFF MUL NOT AND SWAP1 DUP4 PUSH20 0xFFFFFFFFFFFFFFFFFFFFFFFFFFFFFFFFFFFFFFFF AND MUL OR SWAP1 SSTORE POP POP POP POP POP POP POP POP POP POP JUMP JUMPDEST PUSH1 0x0 PUSH1 0x10 PUSH1 0x0 SWAP1 SLOAD SWAP1 PUSH2 0x100 EXP SWAP1 DIV PUSH20 0xFFFFFFFFFFFFFFFFFFFFFFFFFFFFFFFFFFFFFFFF AND PUSH20 0xFFFFFFFFFFFFFFFFFFFFFFFFFFFFFFFFFFFFFFFF AND CALLER PUSH20 0xFFFFFFFFFFFFFFFFFFFFFFFFFFFFFFFFFFFFFFFF AND EQ ISZERO ISZERO PUSH2 0x1023 JUMPI PUSH1 0x0 DUP1 REVERT JUMPDEST PUSH1 0x9 PUSH1 0x0 DUP11 PUSH20 0xFFFFFFFFFFFFFFFFFFFFFFFFFFFFFFFFFFFFFFFF AND PUSH20 0xFFFFFFFFFFFFFFFFFFFFFFFFFFFFFFFFFFFFFFFF AND DUP2 MSTORE PUSH1 0x20 ADD SWAP1 DUP2 MSTORE PUSH1 0x20 ADD PUSH1 0x0 KECCAK256 PUSH1 0x0 SWAP1 SLOAD SWAP1 PUSH2 0x100 EXP SWAP1 DIV PUSH1 0xFF AND ISZERO ISZERO ISZERO PUSH2 0x107C JUMPI PUSH1 0x0 DUP1 REVERT JUMPDEST PUSH1 0x5 PUSH1 0x0 DUP11 PUSH20 0xFFFFFFFFFFFFFFFFFFFFFFFFFFFFFFFFFFFFFFFF AND PUSH20 0xFFFFFFFFFFFFFFFFFFFFFFFFFFFFFFFFFFFFFFFF AND DUP2 MSTORE PUSH1 0x20 ADD SWAP1 DUP2 MSTORE PUSH1 0x20 ADD PUSH1 0x0 KECCAK256 SWAP1 POP DUP8 DUP2 PUSH1 0x0 ADD SWAP1 DUP1 MLOAD SWAP1 PUSH1 0x20 ADD SWAP1 PUSH2 0x10D5 SWAP3 SWAP2 SWAP1 PUSH2 0x2B5D JUMP JUMPDEST POP DUP7 DUP2 PUSH1 0x1 ADD SWAP1 DUP1 MLOAD SWAP1 PUSH1 0x20 ADD SWAP1 PUSH2 0x10EE SWAP3 SWAP2 SWAP1 PUSH2 0x2B5D JUMP JUMPDEST POP DUP6 DUP2 PUSH1 0x2 ADD SWAP1 DUP1 MLOAD SWAP1 PUSH1 0x20 ADD SWAP1 PUSH2 0x1107 SWAP3 SWAP2 SWAP1 PUSH2 0x2B5D JUMP JUMPDEST POP DUP5 DUP2 PUSH1 0x3 ADD SWAP1 DUP1 MLOAD SWAP1 PUSH1 0x20 ADD SWAP1 PUSH2 0x1120 SWAP3 SWAP2 SWAP1 PUSH2 0x2B5D JUMP JUMPDEST POP DUP4 DUP2 PUSH1 0x5 ADD SWAP1 DUP1 MLOAD SWAP1 PUSH1 0x20 ADD SWAP1 PUSH2 0x1139 SWAP3 SWAP2 SWAP1 PUSH2 0x2B5D JUMP JUMPDEST POP DUP3 DUP2 PUSH1 0x6 ADD SWAP1 DUP1 MLOAD SWAP1 PUSH1 0x20 ADD SWAP1 PUSH2 0x1152 SWAP3 SWAP2 SWAP1 PUSH2 0x2B5D JUMP JUMPDEST POP DUP2 DUP2 PUSH1 0x7 ADD SWAP1 DUP1 MLOAD SWAP1 PUSH1 0x20 ADD SWAP1 PUSH2 0x116B SWAP3 SWAP2 SWAP1 PUSH2 0x2B5D JUMP JUMPDEST POP DUP9 DUP2 PUSH1 0x8 ADD PUSH1 0x0 PUSH2 0x100 EXP DUP2 SLOAD DUP2 PUSH20 0xFFFFFFFFFFFFFFFFFFFFFFFFFFFFFFFFFFFFFFFF MUL NOT AND SWAP1 DUP4 PUSH20 0xFFFFFFFFFFFFFFFFFFFFFFFFFFFFFFFFFFFFFFFF AND MUL OR SWAP1 SSTORE POP TIMESTAMP DUP2 PUSH1 0x9 ADD DUP2 SWAP1 SSTORE POP PUSH1 0x2 DUP10 SWAP1 DUP1 PUSH1 0x1 DUP2 SLOAD ADD DUP1 DUP3 SSTORE DUP1 SWAP2 POP POP SWAP1 PUSH1 0x1 DUP3 SUB SWAP1 PUSH1 0x0 MSTORE PUSH1 0x20 PUSH1 0x0 KECCAK256 ADD PUSH1 0x0 SWAP1 SWAP2 SWAP3 SWAP1 SWAP2 SWAP1 SWAP2 PUSH2 0x100 EXP DUP2 SLOAD DUP2 PUSH20 0xFFFFFFFFFFFFFFFFFFFFFFFFFFFFFFFFFFFFFFFF MUL NOT AND SWAP1 DUP4 PUSH20 0xFFFFFFFFFFFFFFFFFFFFFFFFFFFFFFFFFFFFFFFF AND MUL OR SWAP1 SSTORE POP POP PUSH1 0x1 PUSH1 0x9 PUSH1 0x0 DUP12 PUSH20 0xFFFFFFFFFFFFFFFFFFFFFFFFFFFFFFFFFFFFFFFF AND PUSH20 0xFFFFFFFFFFFFFFFFFFFFFFFFFFFFFFFFFFFFFFFF AND DUP2 MSTORE PUSH1 0x20 ADD SWAP1 DUP2 MSTORE PUSH1 0x20 ADD PUSH1 0x0 KECCAK256 PUSH1 0x0 PUSH2 0x100 EXP DUP2 SLOAD DUP2 PUSH1 0xFF MUL NOT AND SWAP1 DUP4 ISZERO ISZERO MUL OR SWAP1 SSTORE POP PUSH1 0x1 PUSH1 0x7 PUSH1 0x0 DUP12 PUSH20 0xFFFFFFFFFFFFFFFFFFFFFFFFFFFFFFFFFFFFFFFF AND PUSH20 0xFFFFFFFFFFFFFFFFFFFFFFFFFFFFFFFFFFFFFFFF AND DUP2 MSTORE PUSH1 0x20 ADD SWAP1 DUP2 MSTORE PUSH1 0x20 ADD PUSH1 0x0 KECCAK256 PUSH1 0x0 DUP12 PUSH20 0xFFFFFFFFFFFFFFFFFFFFFFFFFFFFFFFFFFFFFFFF AND PUSH20 0xFFFFFFFFFFFFFFFFFFFFFFFFFFFFFFFFFFFFFFFF AND DUP2 MSTORE PUSH1 0x20 ADD SWAP1 DUP2 MSTORE PUSH1 0x20 ADD PUSH1 0x0 KECCAK256 PUSH1 0x0 PUSH2 0x100 EXP DUP2 SLOAD DUP2 PUSH1 0xFF MUL NOT AND SWAP1 DUP4 ISZERO ISZERO MUL OR SWAP1 SSTORE POP PUSH1 0x1 PUSH1 0x7 PUSH1 0x0 DUP12 PUSH20 0xFFFFFFFFFFFFFFFFFFFFFFFFFFFFFFFFFFFFFFFF AND PUSH20 0xFFFFFFFFFFFFFFFFFFFFFFFFFFFFFFFFFFFFFFFF AND DUP2 MSTORE PUSH1 0x20 ADD SWAP1 DUP2 MSTORE PUSH1 0x20 ADD PUSH1 0x0 KECCAK256 PUSH1 0x0 PUSH1 0x10 PUSH1 0x0 SWAP1 SLOAD SWAP1 PUSH2 0x100 EXP SWAP1 DIV PUSH20 0xFFFFFFFFFFFFFFFFFFFFFFFFFFFFFFFFFFFFFFFF AND PUSH20 0xFFFFFFFFFFFFFFFFFFFFFFFFFFFFFFFFFFFFFFFF AND PUSH20 0xFFFFFFFFFFFFFFFFFFFFFFFFFFFFFFFFFFFFFFFF AND DUP2 MSTORE PUSH1 0x20 ADD SWAP1 DUP2 MSTORE PUSH1 0x20 ADD PUSH1 0x0 KECCAK256 PUSH1 0x0 PUSH2 0x100 EXP DUP2 SLOAD DUP2 PUSH1 0xFF MUL NOT AND SWAP1 DUP4 ISZERO ISZERO MUL OR SWAP1 SSTORE POP PUSH1 0xC PUSH1 0x0 DUP2 SLOAD DUP1 SWAP3 SWAP2 SWAP1 PUSH1 0x1 ADD SWAP2 SWAP1 POP SSTORE POP POP POP POP POP POP POP POP POP POP JUMP JUMPDEST PUSH1 0x0 PUSH1 0x1 PUSH1 0x7 PUSH1 0x0 CALLER PUSH20 0xFFFFFFFFFFFFFFFFFFFFFFFFFFFFFFFFFFFFFFFF AND PUSH20 0xFFFFFFFFFFFFFFFFFFFFFFFFFFFFFFFFFFFFFFFF AND DUP2 MSTORE PUSH1 0x20 ADD SWAP1 DUP2 MSTORE PUSH1 0x20 ADD PUSH1 0x0 KECCAK256 PUSH1 0x0 DUP5 PUSH20 0xFFFFFFFFFFFFFFFFFFFFFFFFFFFFFFFFFFFFFFFF AND PUSH20 0xFFFFFFFFFFFFFFFFFFFFFFFFFFFFFFFFFFFFFFFF AND DUP2 MSTORE PUSH1 0x20 ADD SWAP1 DUP2 MSTORE PUSH1 0x20 ADD PUSH1 0x0 KECCAK256 PUSH1 0x0 PUSH2 0x100 EXP DUP2 SLOAD DUP2 PUSH1 0xFF MUL NOT AND SWAP1 DUP4 ISZERO ISZERO MUL OR SWAP1 SSTORE POP PUSH1 0xE PUSH1 0x0 DUP2 SLOAD DUP1 SWAP3 SWAP2 SWAP1 PUSH1 0x1 ADD SWAP2 SWAP1 POP SSTORE POP PUSH1 0x1 SWAP1 POP SWAP2 SWAP1 POP JUMP JUMPDEST PUSH1 0x0 DUP1 PUSH1 0x10 PUSH1 0x0 SWAP1 SLOAD SWAP1 PUSH2 0x100 EXP SWAP1 DIV PUSH20 0xFFFFFFFFFFFFFFFFFFFFFFFFFFFFFFFFFFFFFFFF AND PUSH20 0xFFFFFFFFFFFFFFFFFFFFFFFFFFFFFFFFFFFFFFFF AND CALLER PUSH20 0xFFFFFFFFFFFFFFFFFFFFFFFFFFFFFFFFFFFFFFFF AND EQ ISZERO ISZERO PUSH2 0x14F0 JUMPI PUSH1 0x0 DUP1 REVERT JUMPDEST PUSH1 0xA PUSH1 0x0 DUP10 PUSH20 0xFFFFFFFFFFFFFFFFFFFFFFFFFFFFFFFFFFFFFFFF AND PUSH20 0xFFFFFFFFFFFFFFFFFFFFFFFFFFFFFFFFFFFFFFFF AND DUP2 MSTORE PUSH1 0x20 ADD SWAP1 DUP2 MSTORE PUSH1 0x20 ADD PUSH1 0x0 KECCAK256 PUSH1 0x0 SWAP1 SLOAD SWAP1 PUSH2 0x100 EXP SWAP1 DIV PUSH1 0xFF AND ISZERO ISZERO ISZERO PUSH2 0x1549 JUMPI PUSH1 0x0 DUP1 REVERT JUMPDEST PUSH1 0x6 PUSH1 0x0 DUP10 PUSH20 0xFFFFFFFFFFFFFFFFFFFFFFFFFFFFFFFFFFFFFFFF AND PUSH20 0xFFFFFFFFFFFFFFFFFFFFFFFFFFFFFFFFFFFFFFFF AND DUP2 MSTORE PUSH1 0x20 ADD SWAP1 DUP2 MSTORE PUSH1 0x20 ADD PUSH1 0x0 KECCAK256 SWAP1 POP DUP6 DUP2 PUSH1 0x0 ADD SWAP1 DUP1 MLOAD SWAP1 PUSH1 0x20 ADD SWAP1 PUSH2 0x15A2 SWAP3 SWAP2 SWAP1 PUSH2 0x2B5D JUMP JUMPDEST POP DUP5 DUP2 PUSH1 0x1 ADD SWAP1 DUP1 MLOAD SWAP1 PUSH1 0x20 ADD SWAP1 PUSH2 0x15BB SWAP3 SWAP2 SWAP1 PUSH2 0x2B5D JUMP JUMPDEST POP DUP4 DUP2 PUSH1 0x2 ADD SWAP1 DUP1 MLOAD SWAP1 PUSH1 0x20 ADD SWAP1 PUSH2 0x15D4 SWAP3 SWAP2 SWAP1 PUSH2 0x2B5D JUMP JUMPDEST POP DUP3 DUP2 PUSH1 0x3 ADD DUP2 SWAP1 SSTORE POP DUP8 DUP2 PUSH1 0x4 ADD PUSH1 0x0 PUSH2 0x100 EXP DUP2 SLOAD DUP2 PUSH20 0xFFFFFFFFFFFFFFFFFFFFFFFFFFFFFFFFFFFFFFFF MUL NOT AND SWAP1 DUP4 PUSH20 0xFFFFFFFFFFFFFFFFFFFFFFFFFFFFFFFFFFFFFFFF AND MUL OR SWAP1 SSTORE POP DUP7 DUP2 PUSH1 0x5 ADD PUSH1 0x0 PUSH2 0x100 EXP DUP2 SLOAD DUP2 PUSH20 0xFFFFFFFFFFFFFFFFFFFFFFFFFFFFFFFFFFFFFFFF MUL NOT AND SWAP1 DUP4 PUSH20 0xFFFFFFFFFFFFFFFFFFFFFFFFFFFFFFFFFFFFFFFF AND MUL OR SWAP1 SSTORE POP PUSH1 0x3 DUP9 SWAP1 DUP1 PUSH1 0x1 DUP2 SLOAD ADD DUP1 DUP3 SSTORE DUP1 SWAP2 POP POP SWAP1 PUSH1 0x1 DUP3 SUB SWAP1 PUSH1 0x0 MSTORE PUSH1 0x20 PUSH1 0x0 KECCAK256 ADD PUSH1 0x0 SWAP1 SWAP2 SWAP3 SWAP1 SWAP2 SWAP1 SWAP2 PUSH2 0x100 EXP DUP2 SLOAD DUP2 PUSH20 0xFFFFFFFFFFFFFFFFFFFFFFFFFFFFFFFFFFFFFFFF MUL NOT AND SWAP1 DUP4 PUSH20 0xFFFFFFFFFFFFFFFFFFFFFFFFFFFFFFFFFFFFFFFF AND MUL OR SWAP1 SSTORE POP POP PUSH1 0xF PUSH1 0x0 DUP2 SLOAD DUP1 SWAP3 SWAP2 SWAP1 PUSH1 0x1 ADD SWAP2 SWAP1 POP SSTORE POP POP SWAP7 SWAP6 POP POP POP POP POP POP JUMP JUMPDEST PUSH1 0x0 DUP1 PUSH1 0x7 PUSH1 0x0 CALLER PUSH20 0xFFFFFFFFFFFFFFFFFFFFFFFFFFFFFFFFFFFFFFFF AND PUSH20 0xFFFFFFFFFFFFFFFFFFFFFFFFFFFFFFFFFFFFFFFF AND DUP2 MSTORE PUSH1 0x20 ADD SWAP1 DUP2 MSTORE PUSH1 0x20 ADD PUSH1 0x0 KECCAK256 PUSH1 0x0 DUP5 PUSH20 0xFFFFFFFFFFFFFFFFFFFFFFFFFFFFFFFFFFFFFFFF AND PUSH20 0xFFFFFFFFFFFFFFFFFFFFFFFFFFFFFFFFFFFFFFFF AND DUP2 MSTORE PUSH1 0x20 ADD SWAP1 DUP2 MSTORE PUSH1 0x20 ADD PUSH1 0x0 KECCAK256 PUSH1 0x0 PUSH2 0x100 EXP DUP2 SLOAD DUP2 PUSH1 0xFF MUL NOT AND SWAP1 DUP4 ISZERO ISZERO MUL OR SWAP1 SSTORE POP PUSH1 0x1 SWAP1 POP SWAP2 SWAP1 POP JUMP JUMPDEST PUSH1 0x0 PUSH1 0x10 PUSH1 0x0 SWAP1 SLOAD SWAP1 PUSH2 0x100 EXP SWAP1 DIV PUSH20 0xFFFFFFFFFFFFFFFFFFFFFFFFFFFFFFFFFFFFFFFF AND PUSH20 0xFFFFFFFFFFFFFFFFFFFFFFFFFFFFFFFFFFFFFFFF AND CALLER PUSH20 0xFFFFFFFFFFFFFFFFFFFFFFFFFFFFFFFFFFFFFFFF AND EQ ISZERO ISZERO PUSH2 0x17E4 JUMPI PUSH1 0x0 DUP1 REVERT JUMPDEST PUSH1 0x8 PUSH1 0x0 DUP13 PUSH20 0xFFFFFFFFFFFFFFFFFFFFFFFFFFFFFFFFFFFFFFFF AND PUSH20 0xFFFFFFFFFFFFFFFFFFFFFFFFFFFFFFFFFFFFFFFF AND DUP2 MSTORE PUSH1 0x20 ADD SWAP1 DUP2 MSTORE PUSH1 0x20 ADD PUSH1 0x0 KECCAK256 PUSH1 0x0 SWAP1 SLOAD SWAP1 PUSH2 0x100 EXP SWAP1 DIV PUSH1 0xFF AND ISZERO ISZERO ISZERO PUSH2 0x183D JUMPI PUSH1 0x0 DUP1 REVERT JUMPDEST PUSH1 0x4 PUSH1 0x0 DUP13 PUSH20 0xFFFFFFFFFFFFFFFFFFFFFFFFFFFFFFFFFFFFFFFF AND PUSH20 0xFFFFFFFFFFFFFFFFFFFFFFFFFFFFFFFFFFFFFFFF AND DUP2 MSTORE PUSH1 0x20 ADD SWAP1 DUP2 MSTORE PUSH1 0x20 ADD PUSH1 0x0 KECCAK256 SWAP1 POP DUP10 DUP2 PUSH1 0x0 ADD SWAP1 DUP1 MLOAD SWAP1 PUSH1 0x20 ADD SWAP1 PUSH2 0x1896 SWAP3 SWAP2 SWAP1 PUSH2 0x2B5D JUMP JUMPDEST POP DUP9 DUP2 PUSH1 0x1 ADD SWAP1 DUP1 MLOAD SWAP1 PUSH1 0x20 ADD SWAP1 PUSH2 0x18AF SWAP3 SWAP2 SWAP1 PUSH2 0x2B5D JUMP JUMPDEST POP DUP8 DUP2 PUSH1 0x2 ADD SWAP1 DUP1 MLOAD SWAP1 PUSH1 0x20 ADD SWAP1 PUSH2 0x18C8 SWAP3 SWAP2 SWAP1 PUSH2 0x2B5D JUMP JUMPDEST POP DUP7 DUP2 PUSH1 0x3 ADD SWAP1 DUP1 MLOAD SWAP1 PUSH1 0x20 ADD SWAP1 PUSH2 0x18E1 SWAP3 SWAP2 SWAP1 PUSH2 0x2B5D JUMP JUMPDEST POP DUP6 DUP2 PUSH1 0x4 ADD SWAP1 DUP1 MLOAD SWAP1 PUSH1 0x20 ADD SWAP1 PUSH2 0x18FA SWAP3 SWAP2 SWAP1 PUSH2 0x2B5D JUMP JUMPDEST POP DUP5 DUP2 PUSH1 0x5 ADD SWAP1 DUP1 MLOAD SWAP1 PUSH1 0x20 ADD SWAP1 PUSH2 0x1913 SWAP3 SWAP2 SWAP1 PUSH2 0x2B5D JUMP JUMPDEST POP DUP4 DUP2 PUSH1 0x6 ADD SWAP1 DUP1 MLOAD SWAP1 PUSH1 0x20 ADD SWAP1 PUSH2 0x192C SWAP3 SWAP2 SWAP1 PUSH2 0x2B5D JUMP JUMPDEST POP DUP3 DUP2 PUSH1 0x7 ADD SWAP1 DUP1 MLOAD SWAP1 PUSH1 0x20 ADD SWAP1 PUSH2 0x1945 SWAP3 SWAP2 SWAP1 PUSH2 0x2B5D JUMP JUMPDEST POP DUP2 DUP2 PUSH1 0x8 ADD SWAP1 DUP1 MLOAD SWAP1 PUSH1 0x20 ADD SWAP1 PUSH2 0x195E SWAP3 SWAP2 SWAP1 PUSH2 0x2B5D JUMP JUMPDEST POP DUP11 DUP2 PUSH1 0x9 ADD PUSH1 0x0 PUSH2 0x100 EXP DUP2 SLOAD DUP2 PUSH20 0xFFFFFFFFFFFFFFFFFFFFFFFFFFFFFFFFFFFFFFFF MUL NOT AND SWAP1 DUP4 PUSH20 0xFFFFFFFFFFFFFFFFFFFFFFFFFFFFFFFFFFFFFFFF AND MUL OR SWAP1 SSTORE POP TIMESTAMP DUP2 PUSH1 0xA ADD DUP2 SWAP1 SSTORE POP PUSH1 0x1 DUP12 SWAP1 DUP1 PUSH1 0x1 DUP2 SLOAD ADD DUP1 DUP3 SSTORE DUP1 SWAP2 POP POP SWAP1 PUSH1 0x1 DUP3 SUB SWAP1 PUSH1 0x0 MSTORE PUSH1 0x20 PUSH1 0x0 KECCAK256 ADD PUSH1 0x0 SWAP1 SWAP2 SWAP3 SWAP1 SWAP2 SWAP1 SWAP2 PUSH2 0x100 EXP DUP2 SLOAD DUP2 PUSH20 0xFFFFFFFFFFFFFFFFFFFFFFFFFFFFFFFFFFFFFFFF MUL NOT AND SWAP1 DUP4 PUSH20 0xFFFFFFFFFFFFFFFFFFFFFFFFFFFFFFFFFFFFFFFF AND MUL OR SWAP1 SSTORE POP POP PUSH1 0x1 PUSH1 0x8 PUSH1 0x0 DUP14 PUSH20 0xFFFFFFFFFFFFFFFFFFFFFFFFFFFFFFFFFFFFFFFF AND PUSH20 0xFFFFFFFFFFFFFFFFFFFFFFFFFFFFFFFFFFFFFFFF AND DUP2 MSTORE PUSH1 0x20 ADD SWAP1 DUP2 MSTORE PUSH1 0x20 ADD PUSH1 0x0 KECCAK256 PUSH1 0x0 PUSH2 0x100 EXP DUP2 SLOAD DUP2 PUSH1 0xFF MUL NOT AND SWAP1 DUP4 ISZERO ISZERO MUL OR SWAP1 SSTORE POP PUSH1 0x1 PUSH1 0x7 PUSH1 0x0 DUP14 PUSH20 0xFFFFFFFFFFFFFFFFFFFFFFFFFFFFFFFFFFFFFFFF AND PUSH20 0xFFFFFFFFFFFFFFFFFFFFFFFFFFFFFFFFFFFFFFFF AND DUP2 MSTORE PUSH1 0x20 ADD SWAP1 DUP2 MSTORE PUSH1 0x20 ADD PUSH1 0x0 KECCAK256 PUSH1 0x0 DUP14 PUSH20 0xFFFFFFFFFFFFFFFFFFFFFFFFFFFFFFFFFFFFFFFF AND PUSH20 0xFFFFFFFFFFFFFFFFFFFFFFFFFFFFFFFFFFFFFFFF AND DUP2 MSTORE PUSH1 0x20 ADD SWAP1 DUP2 MSTORE PUSH1 0x20 ADD PUSH1 0x0 KECCAK256 PUSH1 0x0 PUSH2 0x100 EXP DUP2 SLOAD DUP2 PUSH1 0xFF MUL NOT AND SWAP1 DUP4 ISZERO ISZERO MUL OR SWAP1 SSTORE POP PUSH1 0x1 PUSH1 0x7 PUSH1 0x0 DUP14 PUSH20 0xFFFFFFFFFFFFFFFFFFFFFFFFFFFFFFFFFFFFFFFF AND PUSH20 0xFFFFFFFFFFFFFFFFFFFFFFFFFFFFFFFFFFFFFFFF AND DUP2 MSTORE PUSH1 0x20 ADD SWAP1 DUP2 MSTORE PUSH1 0x20 ADD PUSH1 0x0 KECCAK256 PUSH1 0x0 PUSH1 0x10 PUSH1 0x0 SWAP1 SLOAD SWAP1 PUSH2 0x100 EXP SWAP1 DIV PUSH20 0xFFFFFFFFFFFFFFFFFFFFFFFFFFFFFFFFFFFFFFFF AND PUSH20 0xFFFFFFFFFFFFFFFFFFFFFFFFFFFFFFFFFFFFFFFF AND PUSH20 0xFFFFFFFFFFFFFFFFFFFFFFFFFFFFFFFFFFFFFFFF AND DUP2 MSTORE PUSH1 0x20 ADD SWAP1 DUP2 MSTORE PUSH1 0x20 ADD PUSH1 0x0 KECCAK256 PUSH1 0x0 PUSH2 0x100 EXP DUP2 SLOAD DUP2 PUSH1 0xFF MUL NOT AND SWAP1 DUP4 ISZERO ISZERO MUL OR SWAP1 SSTORE POP PUSH1 0xB PUSH1 0x0 DUP2 SLOAD DUP1 SWAP3 SWAP2 SWAP1 PUSH1 0x1 ADD SWAP2 SWAP1 POP SSTORE POP POP POP POP POP POP POP POP POP POP POP POP JUMP JUMPDEST PUSH1 0x0 PUSH1 0x10 PUSH1 0x0 SWAP1 SLOAD SWAP1 PUSH2 0x100 EXP SWAP1 DIV PUSH20 0xFFFFFFFFFFFFFFFFFFFFFFFFFFFFFFFFFFFFFFFF AND PUSH20 0xFFFFFFFFFFFFFFFFFFFFFFFFFFFFFFFFFFFFFFFF AND CALLER PUSH20 0xFFFFFFFFFFFFFFFFFFFFFFFFFFFFFFFFFFFFFFFF AND EQ ISZERO ISZERO PUSH2 0x1C32 JUMPI PUSH1 0x0 DUP1 REVERT JUMPDEST PUSH1 0x8 PUSH1 0x0 DUP13 PUSH20 0xFFFFFFFFFFFFFFFFFFFFFFFFFFFFFFFFFFFFFFFF AND PUSH20 0xFFFFFFFFFFFFFFFFFFFFFFFFFFFFFFFFFFFFFFFF AND DUP2 MSTORE PUSH1 0x20 ADD SWAP1 DUP2 MSTORE PUSH1 0x20 ADD PUSH1 0x0 KECCAK256 PUSH1 0x0 SWAP1 SLOAD SWAP1 PUSH2 0x100 EXP SWAP1 DIV PUSH1 0xFF AND ISZERO ISZERO PUSH2 0x1C8A JUMPI PUSH1 0x0 DUP1 REVERT JUMPDEST PUSH1 0x4 PUSH1 0x0 DUP13 PUSH20 0xFFFFFFFFFFFFFFFFFFFFFFFFFFFFFFFFFFFFFFFF AND PUSH20 0xFFFFFFFFFFFFFFFFFFFFFFFFFFFFFFFFFFFFFFFF AND DUP2 MSTORE PUSH1 0x20 ADD SWAP1 DUP2 MSTORE PUSH1 0x20 ADD PUSH1 0x0 KECCAK256 SWAP1 POP DUP10 DUP2 PUSH1 0x0 ADD SWAP1 DUP1 MLOAD SWAP1 PUSH1 0x20 ADD SWAP1 PUSH2 0x1CE3 SWAP3 SWAP2 SWAP1 PUSH2 0x2B5D JUMP JUMPDEST POP DUP9 DUP2 PUSH1 0x1 ADD SWAP1 DUP1 MLOAD SWAP1 PUSH1 0x20 ADD SWAP1 PUSH2 0x1CFC SWAP3 SWAP2 SWAP1 PUSH2 0x2B5D JUMP JUMPDEST POP DUP8 DUP2 PUSH1 0x2 ADD SWAP1 DUP1 MLOAD SWAP1 PUSH1 0x20 ADD SWAP1 PUSH2 0x1D15 SWAP3 SWAP2 SWAP1 PUSH2 0x2B5D JUMP JUMPDEST POP DUP7 DUP2 PUSH1 0x3 ADD SWAP1 DUP1 MLOAD SWAP1 PUSH1 0x20 ADD SWAP1 PUSH2 0x1D2E SWAP3 SWAP2 SWAP1 PUSH2 0x2B5D JUMP JUMPDEST POP DUP6 DUP2 PUSH1 0x4 ADD SWAP1 DUP1 MLOAD SWAP1 PUSH1 0x20 ADD SWAP1 PUSH2 0x1D47 SWAP3 SWAP2 SWAP1 PUSH2 0x2B5D JUMP JUMPDEST POP DUP5 DUP2 PUSH1 0x5 ADD SWAP1 DUP1 MLOAD SWAP1 PUSH1 0x20 ADD SWAP1 PUSH2 0x1D60 SWAP3 SWAP2 SWAP1 PUSH2 0x2B5D JUMP JUMPDEST POP DUP4 DUP2 PUSH1 0x6 ADD SWAP1 DUP1 MLOAD SWAP1 PUSH1 0x20 ADD SWAP1 PUSH2 0x1D79 SWAP3 SWAP2 SWAP1 PUSH2 0x2B5D JUMP JUMPDEST POP DUP3 DUP2 PUSH1 0x7 ADD SWAP1 DUP1 MLOAD SWAP1 PUSH1 0x20 ADD SWAP1 PUSH2 0x1D92 SWAP3 SWAP2 SWAP1 PUSH2 0x2B5D JUMP JUMPDEST POP DUP2 DUP2 PUSH1 0x8 ADD SWAP1 DUP1 MLOAD SWAP1 PUSH1 0x20 ADD SWAP1 PUSH2 0x1DAB SWAP3 SWAP2 SWAP1 PUSH2 0x2B5D JUMP JUMPDEST POP DUP11 DUP2 PUSH1 0x9 ADD PUSH1 0x0 PUSH2 0x100 EXP DUP2 SLOAD DUP2 PUSH20 0xFFFFFFFFFFFFFFFFFFFFFFFFFFFFFFFFFFFFFFFF MUL NOT AND SWAP1 DUP4 PUSH20 0xFFFFFFFFFFFFFFFFFFFFFFFFFFFFFFFFFFFFFFFF AND MUL OR SWAP1 SSTORE POP POP POP POP POP POP POP POP POP POP POP POP JUMP JUMPDEST PUSH1 0xC SLOAD DUP2 JUMP JUMPDEST PUSH1 0x0 PUSH1 0xC SLOAD SWAP1 POP SWAP1 JUMP JUMPDEST PUSH1 0x0 DUP1 PUSH1 0x0 SWAP1 POP PUSH1 0x2 DUP1 SLOAD SWAP1 POP DUP2 LT ISZERO PUSH2 0x1E8B JUMPI PUSH1 0x1 ISZERO ISZERO PUSH1 0x9 PUSH1 0x0 DUP6 PUSH20 0xFFFFFFFFFFFFFFFFFFFFFFFFFFFFFFFFFFFFFFFF AND PUSH20 0xFFFFFFFFFFFFFFFFFFFFFFFFFFFFFFFFFFFFFFFF AND DUP2 MSTORE PUSH1 0x20 ADD SWAP1 DUP2 MSTORE PUSH1 0x20 ADD PUSH1 0x0 KECCAK256 PUSH1 0x0 SWAP1 SLOAD SWAP1 PUSH2 0x100 EXP SWAP1 DIV PUSH1 0xFF AND ISZERO ISZERO EQ ISZERO PUSH2 0x1E82 JUMPI PUSH1 0x1 SWAP2 POP PUSH2 0x1E8C JUMP JUMPDEST PUSH1 0x0 SWAP2 POP PUSH2 0x1E8C JUMP JUMPDEST JUMPDEST POP SWAP2 SWAP1 POP JUMP JUMPDEST PUSH1 0x60 DUP1 PUSH1 0x60 PUSH1 0x0 DUP1 PUSH1 0x0 DUP1 PUSH1 0x7 PUSH1 0x0 DUP10 PUSH20 0xFFFFFFFFFFFFFFFFFFFFFFFFFFFFFFFFFFFFFFFF AND PUSH20 0xFFFFFFFFFFFFFFFFFFFFFFFFFFFFFFFFFFFFFFFF AND DUP2 MSTORE PUSH1 0x20 ADD SWAP1 DUP2 MSTORE PUSH1 0x20 ADD PUSH1 0x0 KECCAK256 PUSH1 0x0 CALLER PUSH20 0xFFFFFFFFFFFFFFFFFFFFFFFFFFFFFFFFFFFFFFFF AND PUSH20 0xFFFFFFFFFFFFFFFFFFFFFFFFFFFFFFFFFFFFFFFF AND DUP2 MSTORE PUSH1 0x20 ADD SWAP1 DUP2 MSTORE PUSH1 0x20 ADD PUSH1 0x0 KECCAK256 PUSH1 0x0 SWAP1 SLOAD SWAP1 PUSH2 0x100 EXP SWAP1 DIV PUSH1 0xFF AND ISZERO ISZERO PUSH2 0x1F32 JUMPI PUSH1 0x0 DUP1 REVERT JUMPDEST PUSH1 0x6 PUSH1 0x0 DUP10 PUSH20 0xFFFFFFFFFFFFFFFFFFFFFFFFFFFFFFFFFFFFFFFF AND PUSH20 0xFFFFFFFFFFFFFFFFFFFFFFFFFFFFFFFFFFFFFFFF AND DUP2 MSTORE PUSH1 0x20 ADD SWAP1 DUP2 MSTORE PUSH1 0x20 ADD PUSH1 0x0 KECCAK256 SWAP1 POP DUP1 PUSH1 0x0 ADD DUP2 PUSH1 0x1 ADD DUP3 PUSH1 0x2 ADD DUP4 PUSH1 0x3 ADD SLOAD DUP5 PUSH1 0x4 ADD PUSH1 0x0 SWAP1 SLOAD SWAP1 PUSH2 0x100 EXP SWAP1 DIV PUSH20 0xFFFFFFFFFFFFFFFFFFFFFFFFFFFFFFFFFFFFFFFF AND DUP6 PUSH1 0x5 ADD PUSH1 0x0 SWAP1 SLOAD SWAP1 PUSH2 0x100 EXP SWAP1 DIV PUSH20 0xFFFFFFFFFFFFFFFFFFFFFFFFFFFFFFFFFFFFFFFF AND DUP6 DUP1 SLOAD PUSH1 0x1 DUP2 PUSH1 0x1 AND ISZERO PUSH2 0x100 MUL SUB AND PUSH1 0x2 SWAP1 DIV DUP1 PUSH1 0x1F ADD PUSH1 0x20 DUP1 SWAP2 DIV MUL PUSH1 0x20 ADD PUSH1 0x40 MLOAD SWAP1 DUP2 ADD PUSH1 0x40 MSTORE DUP1 SWAP3 SWAP2 SWAP1 DUP2 DUP2 MSTORE PUSH1 0x20 ADD DUP3 DUP1 SLOAD PUSH1 0x1 DUP2 PUSH1 0x1 AND ISZERO PUSH2 0x100 MUL SUB AND PUSH1 0x2 SWAP1 DIV DUP1 ISZERO PUSH2 0x2063 JUMPI DUP1 PUSH1 0x1F LT PUSH2 0x2038 JUMPI PUSH2 0x100 DUP1 DUP4 SLOAD DIV MUL DUP4 MSTORE SWAP2 PUSH1 0x20 ADD SWAP2 PUSH2 0x2063 JUMP JUMPDEST DUP3 ADD SWAP2 SWAP1 PUSH1 0x0 MSTORE PUSH1 0x20 PUSH1 0x0 KECCAK256 SWAP1 JUMPDEST DUP2 SLOAD DUP2 MSTORE SWAP1 PUSH1 0x1 ADD SWAP1 PUSH1 0x20 ADD DUP1 DUP4 GT PUSH2 0x2046 JUMPI DUP3 SWAP1 SUB PUSH1 0x1F AND DUP3 ADD SWAP2 JUMPDEST POP POP POP POP POP SWAP6 POP DUP5 DUP1 SLOAD PUSH1 0x1 DUP2 PUSH1 0x1 AND ISZERO PUSH2 0x100 MUL SUB AND PUSH1 0x2 SWAP1 DIV DUP1 PUSH1 0x1F ADD PUSH1 0x20 DUP1 SWAP2 DIV MUL PUSH1 0x20 ADD PUSH1 0x40 MLOAD SWAP1 DUP2 ADD PUSH1 0x40 MSTORE DUP1 SWAP3 SWAP2 SWAP1 DUP2 DUP2 MSTORE PUSH1 0x20 ADD DUP3 DUP1 SLOAD PUSH1 0x1 DUP2 PUSH1 0x1 AND ISZERO PUSH2 0x100 MUL SUB AND PUSH1 0x2 SWAP1 DIV DUP1 ISZERO PUSH2 0x20FF JUMPI DUP1 PUSH1 0x1F LT PUSH2 0x20D4 JUMPI PUSH2 0x100 DUP1 DUP4 SLOAD DIV MUL DUP4 MSTORE SWAP2 PUSH1 0x20 ADD SWAP2 PUSH2 0x20FF JUMP JUMPDEST DUP3 ADD SWAP2 SWAP1 PUSH1 0x0 MSTORE PUSH1 0x20 PUSH1 0x0 KECCAK256 SWAP1 JUMPDEST DUP2 SLOAD DUP2 MSTORE SWAP1 PUSH1 0x1 ADD SWAP1 PUSH1 0x20 ADD DUP1 DUP4 GT PUSH2 0x20E2 JUMPI DUP3 SWAP1 SUB PUSH1 0x1F AND DUP3 ADD SWAP2 JUMPDEST POP POP POP POP POP SWAP5 POP DUP4 DUP1 SLOAD PUSH1 0x1 DUP2 PUSH1 0x1 AND ISZERO PUSH2 0x100 MUL SUB AND PUSH1 0x2 SWAP1 DIV DUP1 PUSH1 0x1F ADD PUSH1 0x20 DUP1 SWAP2 DIV MUL PUSH1 0x20 ADD PUSH1 0x40 MLOAD SWAP1 DUP2 ADD PUSH1 0x40 MSTORE DUP1 SWAP3 SWAP2 SWAP1 DUP2 DUP2 MSTORE PUSH1 0x20 ADD DUP3 DUP1 SLOAD PUSH1 0x1 DUP2 PUSH1 0x1 AND ISZERO PUSH2 0x100 MUL SUB AND PUSH1 0x2 SWAP1 DIV DUP1 ISZERO PUSH2 0x219B JUMPI DUP1 PUSH1 0x1F LT PUSH2 0x2170 JUMPI PUSH2 0x100 DUP1 DUP4 SLOAD DIV MUL DUP4 MSTORE SWAP2 PUSH1 0x20 ADD SWAP2 PUSH2 0x219B JUMP JUMPDEST DUP3 ADD SWAP2 SWAP1 PUSH1 0x0 MSTORE PUSH1 0x20 PUSH1 0x0 KECCAK256 SWAP1 JUMPDEST DUP2 SLOAD DUP2 MSTORE SWAP1 PUSH1 0x1 ADD SWAP1 PUSH1 0x20 ADD DUP1 DUP4 GT PUSH2 0x217E JUMPI DUP3 SWAP1 SUB PUSH1 0x1F AND DUP3 ADD SWAP2 JUMPDEST POP POP POP POP POP SWAP4 POP SWAP7 POP SWAP7 POP SWAP7 POP SWAP7 POP SWAP7 POP SWAP7 POP POP SWAP2 SWAP4 SWAP6 POP SWAP2 SWAP4 SWAP6 JUMP JUMPDEST PUSH1 0x0 DUP1 SWAP1 SLOAD SWAP1 PUSH2 0x100 EXP SWAP1 DIV PUSH20 0xFFFFFFFFFFFFFFFFFFFFFFFFFFFFFFFFFFFFFFFF AND DUP2 JUMP JUMPDEST PUSH1 0x0 CALLER PUSH1 0x0 DUP1 PUSH2 0x100 EXP DUP2 SLOAD DUP2 PUSH20 0xFFFFFFFFFFFFFFFFFFFFFFFFFFFFFFFFFFFFFFFF MUL NOT AND SWAP1 DUP4 PUSH20 0xFFFFFFFFFFFFFFFFFFFFFFFFFFFFFFFFFFFFFFFF AND MUL OR SWAP1 SSTORE POP PUSH1 0x0 DUP1 SWAP1 SLOAD SWAP1 PUSH2 0x100 EXP SWAP1 DIV PUSH20 0xFFFFFFFFFFFFFFFFFFFFFFFFFFFFFFFFFFFFFFFF AND SWAP1 POP SWAP1 JUMP JUMPDEST PUSH1 0xF SLOAD DUP2 JUMP JUMPDEST PUSH1 0xD SLOAD DUP2 JUMP JUMPDEST PUSH1 0x1 DUP2 DUP2 SLOAD DUP2 LT ISZERO ISZERO PUSH2 0x2261 JUMPI INVALID JUMPDEST SWAP1 PUSH1 0x0 MSTORE PUSH1 0x20 PUSH1 0x0 KECCAK256 ADD PUSH1 0x0 SWAP2 POP SLOAD SWAP1 PUSH2 0x100 EXP SWAP1 DIV PUSH20 0xFFFFFFFFFFFFFFFFFFFFFFFFFFFFFFFFFFFFFFFF AND DUP2 JUMP JUMPDEST PUSH1 0x60 PUSH1 0x2 DUP1 SLOAD DUP1 PUSH1 0x20 MUL PUSH1 0x20 ADD PUSH1 0x40 MLOAD SWAP1 DUP2 ADD PUSH1 0x40 MSTORE DUP1 SWAP3 SWAP2 SWAP1 DUP2 DUP2 MSTORE PUSH1 0x20 ADD DUP3 DUP1 SLOAD DUP1 ISZERO PUSH2 0x2314 JUMPI PUSH1 0x20 MUL DUP3 ADD SWAP2 SWAP1 PUSH1 0x0 MSTORE PUSH1 0x20 PUSH1 0x0 KECCAK256 SWAP1 JUMPDEST DUP2 PUSH1 0x0 SWAP1 SLOAD SWAP1 PUSH2 0x100 EXP SWAP1 DIV PUSH20 0xFFFFFFFFFFFFFFFFFFFFFFFFFFFFFFFFFFFFFFFF AND PUSH20 0xFFFFFFFFFFFFFFFFFFFFFFFFFFFFFFFFFFFFFFFF AND DUP2 MSTORE PUSH1 0x20 ADD SWAP1 PUSH1 0x1 ADD SWAP1 DUP1 DUP4 GT PUSH2 0x22CA JUMPI JUMPDEST POP POP POP POP POP SWAP1 POP SWAP1 JUMP JUMPDEST PUSH1 0x0 PUSH1 0xB SLOAD SWAP1 POP SWAP1 JUMP JUMPDEST PUSH1 0x10 PUSH1 0x0 SWAP1 SLOAD SWAP1 PUSH2 0x100 EXP SWAP1 DIV PUSH20 0xFFFFFFFFFFFFFFFFFFFFFFFFFFFFFFFFFFFFFFFF AND DUP2 JUMP JUMPDEST PUSH1 0x0 PUSH1 0x10 PUSH1 0x0 SWAP1 SLOAD SWAP1 PUSH2 0x100 EXP SWAP1 DIV PUSH20 0xFFFFFFFFFFFFFFFFFFFFFFFFFFFFFFFFFFFFFFFF AND PUSH20 0xFFFFFFFFFFFFFFFFFFFFFFFFFFFFFFFFFFFFFFFF AND CALLER PUSH20 0xFFFFFFFFFFFFFFFFFFFFFFFFFFFFFFFFFFFFFFFF AND EQ ISZERO ISZERO PUSH2 0x23AC JUMPI PUSH1 0x0 DUP1 REVERT JUMPDEST PUSH1 0x0 PUSH1 0x7 PUSH1 0x0 DUP6 PUSH20 0xFFFFFFFFFFFFFFFFFFFFFFFFFFFFFFFFFFFFFFFF AND PUSH20 0xFFFFFFFFFFFFFFFFFFFFFFFFFFFFFFFFFFFFFFFF AND DUP2 MSTORE PUSH1 0x20 ADD SWAP1 DUP2 MSTORE PUSH1 0x20 ADD PUSH1 0x0 KECCAK256 PUSH1 0x0 DUP5 PUSH20 0xFFFFFFFFFFFFFFFFFFFFFFFFFFFFFFFFFFFFFFFF AND PUSH20 0xFFFFFFFFFFFFFFFFFFFFFFFFFFFFFFFFFFFFFFFF AND DUP2 MSTORE PUSH1 0x20 ADD SWAP1 DUP2 MSTORE PUSH1 0x20 ADD PUSH1 0x0 KECCAK256 PUSH1 0x0 PUSH2 0x100 EXP DUP2 SLOAD DUP2 PUSH1 0xFF MUL NOT AND SWAP1 DUP4 ISZERO ISZERO MUL OR SWAP1 SSTORE POP PUSH1 0x1 SWAP1 POP SWAP3 SWAP2 POP POP JUMP JUMPDEST PUSH1 0xE SLOAD DUP2 JUMP JUMPDEST PUSH1 0x60 DUP1 PUSH1 0x60 DUP1 PUSH1 0x60 DUP1 PUSH1 0x60 PUSH1 0x0 PUSH1 0x7 PUSH1 0x0 DUP11 PUSH20 0xFFFFFFFFFFFFFFFFFFFFFFFFFFFFFFFFFFFFFFFF AND PUSH20 0xFFFFFFFFFFFFFFFFFFFFFFFFFFFFFFFFFFFFFFFF AND DUP2 MSTORE PUSH1 0x20 ADD SWAP1 DUP2 MSTORE PUSH1 0x20 ADD PUSH1 0x0 KECCAK256 PUSH1 0x0 CALLER PUSH20 0xFFFFFFFFFFFFFFFFFFFFFFFFFFFFFFFFFFFFFFFF AND PUSH20 0xFFFFFFFFFFFFFFFFFFFFFFFFFFFFFFFFFFFFFFFF AND DUP2 MSTORE PUSH1 0x20 ADD SWAP1 DUP2 MSTORE PUSH1 0x20 ADD PUSH1 0x0 KECCAK256 PUSH1 0x0 SWAP1 SLOAD SWAP1 PUSH2 0x100 EXP SWAP1 DIV PUSH1 0xFF AND ISZERO ISZERO PUSH2 0x24F3 JUMPI PUSH1 0x0 DUP1 REVERT JUMPDEST PUSH1 0x9 PUSH1 0x0 DUP11 PUSH20 0xFFFFFFFFFFFFFFFFFFFFFFFFFFFFFFFFFFFFFFFF AND PUSH20 0xFFFFFFFFFFFFFFFFFFFFFFFFFFFFFFFFFFFFFFFF AND DUP2 MSTORE PUSH1 0x20 ADD SWAP1 DUP2 MSTORE PUSH1 0x20 ADD PUSH1 0x0 KECCAK256 PUSH1 0x0 SWAP1 SLOAD SWAP1 PUSH2 0x100 EXP SWAP1 DIV PUSH1 0xFF AND ISZERO ISZERO PUSH2 0x254B JUMPI PUSH1 0x0 DUP1 REVERT JUMPDEST PUSH1 0x5 PUSH1 0x0 DUP11 PUSH20 0xFFFFFFFFFFFFFFFFFFFFFFFFFFFFFFFFFFFFFFFF AND PUSH20 0xFFFFFFFFFFFFFFFFFFFFFFFFFFFFFFFFFFFFFFFF AND DUP2 MSTORE PUSH1 0x20 ADD SWAP1 DUP2 MSTORE PUSH1 0x20 ADD PUSH1 0x0 KECCAK256 SWAP1 POP DUP1 PUSH1 0x0 ADD DUP2 PUSH1 0x1 ADD DUP3 PUSH1 0x2 ADD DUP4 PUSH1 0x3 ADD DUP5 PUSH1 0x5 ADD DUP6 PUSH1 0x6 ADD DUP7 PUSH1 0x7 ADD DUP7 DUP1 SLOAD PUSH1 0x1 DUP2 PUSH1 0x1 AND ISZERO PUSH2 0x100 MUL SUB AND PUSH1 0x2 SWAP1 DIV DUP1 PUSH1 0x1F ADD PUSH1 0x20 DUP1 SWAP2 DIV MUL PUSH1 0x20 ADD PUSH1 0x40 MLOAD SWAP1 DUP2 ADD PUSH1 0x40 MSTORE DUP1 SWAP3 SWAP2 SWAP1 DUP2 DUP2 MSTORE PUSH1 0x20 ADD DUP3 DUP1 SLOAD PUSH1 0x1 DUP2 PUSH1 0x1 AND ISZERO PUSH2 0x100 MUL SUB AND PUSH1 0x2 SWAP1 DIV DUP1 ISZERO PUSH2 0x263D JUMPI DUP1 PUSH1 0x1F LT PUSH2 0x2612 JUMPI PUSH2 0x100 DUP1 DUP4 SLOAD DIV MUL DUP4 MSTORE SWAP2 PUSH1 0x20 ADD SWAP2 PUSH2 0x263D JUMP JUMPDEST DUP3 ADD SWAP2 SWAP1 PUSH1 0x0 MSTORE PUSH1 0x20 PUSH1 0x0 KECCAK256 SWAP1 JUMPDEST DUP2 SLOAD DUP2 MSTORE SWAP1 PUSH1 0x1 ADD SWAP1 PUSH1 0x20 ADD DUP1 DUP4 GT PUSH2 0x2620 JUMPI DUP3 SWAP1 SUB PUSH1 0x1F AND DUP3 ADD SWAP2 JUMPDEST POP POP POP POP POP SWAP7 POP DUP6 DUP1 SLOAD PUSH1 0x1 DUP2 PUSH1 0x1 AND ISZERO PUSH2 0x100 MUL SUB AND PUSH1 0x2 SWAP1 DIV DUP1 PUSH1 0x1F ADD PUSH1 0x20 DUP1 SWAP2 DIV MUL PUSH1 0x20 ADD PUSH1 0x40 MLOAD SWAP1 DUP2 ADD PUSH1 0x40 MSTORE DUP1 SWAP3 SWAP2 SWAP1 DUP2 DUP2 MSTORE PUSH1 0x20 ADD DUP3 DUP1 SLOAD PUSH1 0x1 DUP2 PUSH1 0x1 AND ISZERO PUSH2 0x100 MUL SUB AND PUSH1 0x2 SWAP1 DIV DUP1 ISZERO PUSH2 0x26D9 JUMPI DUP1 PUSH1 0x1F LT PUSH2 0x26AE JUMPI PUSH2 0x100 DUP1 DUP4 SLOAD DIV MUL DUP4 MSTORE SWAP2 PUSH1 0x20 ADD SWAP2 PUSH2 0x26D9 JUMP JUMPDEST DUP3 ADD SWAP2 SWAP1 PUSH1 0x0 MSTORE PUSH1 0x20 PUSH1 0x0 KECCAK256 SWAP1 JUMPDEST DUP2 SLOAD DUP2 MSTORE SWAP1 PUSH1 0x1 ADD SWAP1 PUSH1 0x20 ADD DUP1 DUP4 GT PUSH2 0x26BC JUMPI DUP3 SWAP1 SUB PUSH1 0x1F AND DUP3 ADD SWAP2 JUMPDEST POP POP POP POP POP SWAP6 POP DUP5 DUP1 SLOAD PUSH1 0x1 DUP2 PUSH1 0x1 AND ISZERO PUSH2 0x100 MUL SUB AND PUSH1 0x2 SWAP1 DIV DUP1 PUSH1 0x1F ADD PUSH1 0x20 DUP1 SWAP2 DIV MUL PUSH1 0x20 ADD PUSH1 0x40 MLOAD SWAP1 DUP2 ADD PUSH1 0x40 MSTORE DUP1 SWAP3 SWAP2 SWAP1 DUP2 DUP2 MSTORE PUSH1 0x20 ADD DUP3 DUP1 SLOAD PUSH1 0x1 DUP2 PUSH1 0x1 AND ISZERO PUSH2 0x100 MUL SUB AND PUSH1 0x2 SWAP1 DIV DUP1 ISZERO PUSH2 0x2775 JUMPI DUP1 PUSH1 0x1F LT PUSH2 0x274A JUMPI PUSH2 0x100 DUP1 DUP4 SLOAD DIV MUL DUP4 MSTORE SWAP2 PUSH1 0x20 ADD SWAP2 PUSH2 0x2775 JUMP JUMPDEST DUP3 ADD SWAP2 SWAP1 PUSH1 0x0 MSTORE PUSH1 0x20 PUSH1 0x0 KECCAK256 SWAP1 JUMPDEST DUP2 SLOAD DUP2 MSTORE SWAP1 PUSH1 0x1 ADD SWAP1 PUSH1 0x20 ADD DUP1 DUP4 GT PUSH2 0x2758 JUMPI DUP3 SWAP1 SUB PUSH1 0x1F AND DUP3 ADD SWAP2 JUMPDEST POP POP POP POP POP SWAP5 POP DUP4 DUP1 SLOAD PUSH1 0x1 DUP2 PUSH1 0x1 AND ISZERO PUSH2 0x100 MUL SUB AND PUSH1 0x2 SWAP1 DIV DUP1 PUSH1 0x1F ADD PUSH1 0x20 DUP1 SWAP2 DIV MUL PUSH1 0x20 ADD PUSH1 0x40 MLOAD SWAP1 DUP2 ADD PUSH1 0x40 MSTORE DUP1 SWAP3 SWAP2 SWAP1 DUP2 DUP2 MSTORE PUSH1 0x20 ADD DUP3 DUP1 SLOAD PUSH1 0x1 DUP2 PUSH1 0x1 AND ISZERO PUSH2 0x100 MUL SUB AND PUSH1 0x2 SWAP1 DIV DUP1 ISZERO PUSH2 0x2811 JUMPI DUP1 PUSH1 0x1F LT PUSH2 0x27E6 JUMPI PUSH2 0x100 DUP1 DUP4 SLOAD DIV MUL DUP4 MSTORE SWAP2 PUSH1 0x20 ADD SWAP2 PUSH2 0x2811 JUMP JUMPDEST DUP3 ADD SWAP2 SWAP1 PUSH1 0x0 MSTORE PUSH1 0x20 PUSH1 0x0 KECCAK256 SWAP1 JUMPDEST DUP2 SLOAD DUP2 MSTORE SWAP1 PUSH1 0x1 ADD SWAP1 PUSH1 0x20 ADD DUP1 DUP4 GT PUSH2 0x27F4 JUMPI DUP3 SWAP1 SUB PUSH1 0x1F AND DUP3 ADD SWAP2 JUMPDEST POP POP POP POP POP SWAP4 POP DUP3 DUP1 SLOAD PUSH1 0x1 DUP2 PUSH1 0x1 AND ISZERO PUSH2 0x100 MUL SUB AND PUSH1 0x2 SWAP1 DIV DUP1 PUSH1 0x1F ADD PUSH1 0x20 DUP1 SWAP2 DIV MUL PUSH1 0x20 ADD PUSH1 0x40 MLOAD SWAP1 DUP2 ADD PUSH1 0x40 MSTORE DUP1 SWAP3 SWAP2 SWAP1 DUP2 DUP2 MSTORE PUSH1 0x20 ADD DUP3 DUP1 SLOAD PUSH1 0x1 DUP2 PUSH1 0x1 AND ISZERO PUSH2 0x100 MUL SUB AND PUSH1 0x2 SWAP1 DIV DUP1 ISZERO PUSH2 0x28AD JUMPI DUP1 PUSH1 0x1F LT PUSH2 0x2882 JUMPI PUSH2 0x100 DUP1 DUP4 SLOAD DIV MUL DUP4 MSTORE SWAP2 PUSH1 0x20 ADD SWAP2 PUSH2 0x28AD JUMP JUMPDEST DUP3 ADD SWAP2 SWAP1 PUSH1 0x0 MSTORE PUSH1 0x20 PUSH1 0x0 KECCAK256 SWAP1 JUMPDEST DUP2 SLOAD DUP2 MSTORE SWAP1 PUSH1 0x1 ADD SWAP1 PUSH1 0x20 ADD DUP1 DUP4 GT PUSH2 0x2890 JUMPI DUP3 SWAP1 SUB PUSH1 0x1F AND DUP3 ADD SWAP2 JUMPDEST POP POP POP POP POP SWAP3 POP DUP2 DUP1 SLOAD PUSH1 0x1 DUP2 PUSH1 0x1 AND ISZERO PUSH2 0x100 MUL SUB AND PUSH1 0x2 SWAP1 DIV DUP1 PUSH1 0x1F ADD PUSH1 0x20 DUP1 SWAP2 DIV MUL PUSH1 0x20 ADD PUSH1 0x40 MLOAD SWAP1 DUP2 ADD PUSH1 0x40 MSTORE DUP1 SWAP3 SWAP2 SWAP1 DUP2 DUP2 MSTORE PUSH1 0x20 ADD DUP3 DUP1 SLOAD PUSH1 0x1 DUP2 PUSH1 0x1 AND ISZERO PUSH2 0x100 MUL SUB AND PUSH1 0x2 SWAP1 DIV DUP1 ISZERO PUSH2 0x2949 JUMPI DUP1 PUSH1 0x1F LT PUSH2 0x291E JUMPI PUSH2 0x100 DUP1 DUP4 SLOAD DIV MUL DUP4 MSTORE SWAP2 PUSH1 0x20 ADD SWAP2 PUSH2 0x2949 JUMP JUMPDEST DUP3 ADD SWAP2 SWAP1 PUSH1 0x0 MSTORE PUSH1 0x20 PUSH1 0x0 KECCAK256 SWAP1 JUMPDEST DUP2 SLOAD DUP2 MSTORE SWAP1 PUSH1 0x1 ADD SWAP1 PUSH1 0x20 ADD DUP1 DUP4 GT PUSH2 0x292C JUMPI DUP3 SWAP1 SUB PUSH1 0x1F AND DUP3 ADD SWAP2 JUMPDEST POP POP POP POP POP SWAP2 POP DUP1 DUP1 SLOAD PUSH1 0x1 DUP2 PUSH1 0x1 AND ISZERO PUSH2 0x100 MUL SUB AND PUSH1 0x2 SWAP1 DIV DUP1 PUSH1 0x1F ADD PUSH1 0x20 DUP1 SWAP2 DIV MUL PUSH1 0x20 ADD PUSH1 0x40 MLOAD SWAP1 DUP2 ADD PUSH1 0x40 MSTORE DUP1 SWAP3 SWAP2 SWAP1 DUP2 DUP2 MSTORE PUSH1 0x20 ADD DUP3 DUP1 SLOAD PUSH1 0x1 DUP2 PUSH1 0x1 AND ISZERO PUSH2 0x100 MUL SUB AND PUSH1 0x2 SWAP1 DIV DUP1 ISZERO PUSH2 0x29E5 JUMPI DUP1 PUSH1 0x1F LT PUSH2 0x29BA JUMPI PUSH2 0x100 DUP1 DUP4 SLOAD DIV MUL DUP4 MSTORE SWAP2 PUSH1 0x20 ADD SWAP2 PUSH2 0x29E5 JUMP JUMPDEST DUP3 ADD SWAP2 SWAP1 PUSH1 0x0 MSTORE PUSH1 0x20 PUSH1 0x0 KECCAK256 SWAP1 JUMPDEST DUP2 SLOAD DUP2 MSTORE SWAP1 PUSH1 0x1 ADD SWAP1 PUSH1 0x20 ADD DUP1 DUP4 GT PUSH2 0x29C8 JUMPI DUP3 SWAP1 SUB PUSH1 0x1F AND DUP3 ADD SWAP2 JUMPDEST POP POP POP POP POP SWAP1 POP SWAP8 POP SWAP8 POP SWAP8 POP SWAP8 POP SWAP8 POP SWAP8 POP SWAP8 POP POP SWAP2 SWAP4 SWAP6 SWAP8 SWAP1 SWAP3 SWAP5 SWAP7 POP JUMP JUMPDEST PUSH1 0x0 PUSH1 0x10 PUSH1 0x0 SWAP1 SLOAD SWAP1 PUSH2 0x100 EXP SWAP1 DIV PUSH20 0xFFFFFFFFFFFFFFFFFFFFFFFFFFFFFFFFFFFFFFFF AND PUSH20 0xFFFFFFFFFFFFFFFFFFFFFFFFFFFFFFFFFFFFFFFF AND CALLER PUSH20 0xFFFFFFFFFFFFFFFFFFFFFFFFFFFFFFFFFFFFFFFF AND EQ ISZERO ISZERO PUSH2 0x2A64 JUMPI PUSH1 0x0 DUP1 REVERT JUMPDEST PUSH1 0x1 PUSH1 0x7 PUSH1 0x0 DUP6 PUSH20 0xFFFFFFFFFFFFFFFFFFFFFFFFFFFFFFFFFFFFFFFF AND PUSH20 0xFFFFFFFFFFFFFFFFFFFFFFFFFFFFFFFFFFFFFFFF AND DUP2 MSTORE PUSH1 0x20 ADD SWAP1 DUP2 MSTORE PUSH1 0x20 ADD PUSH1 0x0 KECCAK256 PUSH1 0x0 DUP5 PUSH20 0xFFFFFFFFFFFFFFFFFFFFFFFFFFFFFFFFFFFFFFFF AND PUSH20 0xFFFFFFFFFFFFFFFFFFFFFFFFFFFFFFFFFFFFFFFF AND DUP2 MSTORE PUSH1 0x20 ADD SWAP1 DUP2 MSTORE PUSH1 0x20 ADD PUSH1 0x0 KECCAK256 PUSH1 0x0 PUSH2 0x100 EXP DUP2 SLOAD DUP2 PUSH1 0xFF MUL NOT AND SWAP1 DUP4 ISZERO ISZERO MUL OR SWAP1 SSTORE POP PUSH1 0xD PUSH1 0x0 DUP2 SLOAD DUP1 SWAP3 SWAP2 SWAP1 PUSH1 0x1 ADD SWAP2 SWAP1 POP SSTORE POP PUSH1 0x1 SWAP1 POP SWAP3 SWAP2 POP POP JUMP JUMPDEST PUSH1 0x0 PUSH1 0xD SLOAD SWAP1 POP SWAP1 JUMP JUMPDEST PUSH1 0x3 DUP2 DUP2 SLOAD DUP2 LT ISZERO ISZERO PUSH2 0x2B2E JUMPI INVALID JUMPDEST SWAP1 PUSH1 0x0 MSTORE PUSH1 0x20 PUSH1 0x0 KECCAK256 ADD PUSH1 0x0 SWAP2 POP SLOAD SWAP1 PUSH2 0x100 EXP SWAP1 DIV PUSH20 0xFFFFFFFFFFFFFFFFFFFFFFFFFFFFFFFFFFFFFFFF AND DUP2 JUMP JUMPDEST DUP3 DUP1 SLOAD PUSH1 0x1 DUP2 PUSH1 0x1 AND ISZERO PUSH2 0x100 MUL SUB AND PUSH1 0x2 SWAP1 DIV SWAP1 PUSH1 0x0 MSTORE PUSH1 0x20 PUSH1 0x0 KECCAK256 SWAP1 PUSH1 0x1F ADD PUSH1 0x20 SWAP1 DIV DUP2 ADD SWAP3 DUP3 PUSH1 0x1F LT PUSH2 0x2B9E JUMPI DUP1 MLOAD PUSH1 0xFF NOT AND DUP4 DUP1 ADD OR DUP6 SSTORE PUSH2 0x2BCC JUMP JUMPDEST DUP3 DUP1 ADD PUSH1 0x1 ADD DUP6 SSTORE DUP3 ISZERO PUSH2 0x2BCC JUMPI SWAP2 DUP3 ADD JUMPDEST DUP3 DUP2 GT ISZERO PUSH2 0x2BCB JUMPI DUP3 MLOAD DUP3 SSTORE SWAP2 PUSH1 0x20 ADD SWAP2 SWAP1 PUSH1 0x1 ADD SWAP1 PUSH2 0x2BB0 JUMP JUMPDEST JUMPDEST POP SWAP1 POP PUSH2 0x2BD9 SWAP2 SWAP1 PUSH2 0x2BDD JUMP JUMPDEST POP SWAP1 JUMP JUMPDEST PUSH2 0x2BFF SWAP2 SWAP1 JUMPDEST DUP1 DUP3 GT ISZERO PUSH2 0x2BFB JUMPI PUSH1 0x0 DUP2 PUSH1 0x0 SWAP1 SSTORE POP PUSH1 0x1 ADD PUSH2 0x2BE3 JUMP JUMPDEST POP SWAP1 JUMP JUMPDEST SWAP1 JUMP JUMPDEST PUSH1 0x0 PUSH2 0x2C0E DUP3 CALLDATALOAD PUSH2 0x34A1 JUMP JUMPDEST SWAP1 POP SWAP3 SWAP2 POP POP JUMP JUMPDEST PUSH1 0x0 DUP3 PUSH1 0x1F DUP4 ADD SLT ISZERO ISZERO PUSH2 0x2C29 JUMPI PUSH1 0x0 DUP1 REVERT JUMPDEST DUP2 CALLDATALOAD PUSH2 0x2C3C PUSH2 0x2C37 DUP3 PUSH2 0x340F JUMP JUMPDEST PUSH2 0x33E2 JUMP JUMPDEST SWAP2 POP DUP1 DUP3 MSTORE PUSH1 0x20 DUP4 ADD PUSH1 0x20 DUP4 ADD DUP6 DUP4 DUP4 ADD GT ISZERO PUSH2 0x2C58 JUMPI PUSH1 0x0 DUP1 REVERT JUMPDEST PUSH2 0x2C63 DUP4 DUP3 DUP5 PUSH2 0x34CB JUMP JUMPDEST POP POP POP SWAP3 SWAP2 POP POP JUMP JUMPDEST PUSH1 0x0 PUSH2 0x2C78 DUP3 CALLDATALOAD PUSH2 0x34C1 JUMP JUMPDEST SWAP1 POP SWAP3 SWAP2 POP POP JUMP JUMPDEST PUSH1 0x0 PUSH1 0x20 DUP3 DUP5 SUB SLT ISZERO PUSH2 0x2C92 JUMPI PUSH1 0x0 DUP1 REVERT JUMPDEST PUSH1 0x0 PUSH2 0x2CA0 DUP5 DUP3 DUP6 ADD PUSH2 0x2C02 JUMP JUMPDEST SWAP2 POP POP SWAP3 SWAP2 POP POP JUMP JUMPDEST PUSH1 0x0 DUP1 PUSH1 0x40 DUP4 DUP6 SUB SLT ISZERO PUSH2 0x2CBC JUMPI PUSH1 0x0 DUP1 REVERT JUMPDEST PUSH1 0x0 PUSH2 0x2CCA DUP6 DUP3 DUP7 ADD PUSH2 0x2C02 JUMP JUMPDEST SWAP3 POP POP PUSH1 0x20 PUSH2 0x2CDB DUP6 DUP3 DUP7 ADD PUSH2 0x2C02 JUMP JUMPDEST SWAP2 POP POP SWAP3 POP SWAP3 SWAP1 POP JUMP JUMPDEST PUSH1 0x0 DUP1 PUSH1 0x0 DUP1 PUSH1 0x0 DUP1 PUSH1 0xC0 DUP8 DUP10 SUB SLT ISZERO PUSH2 0x2CFE JUMPI PUSH1 0x0 DUP1 REVERT JUMPDEST PUSH1 0x0 PUSH2 0x2D0C DUP10 DUP3 DUP11 ADD PUSH2 0x2C02 JUMP JUMPDEST SWAP7 POP POP PUSH1 0x20 PUSH2 0x2D1D DUP10 DUP3 DUP11 ADD PUSH2 0x2C02 JUMP JUMPDEST SWAP6 POP POP PUSH1 0x40 DUP8 ADD CALLDATALOAD PUSH8 0xFFFFFFFFFFFFFFFF DUP2 GT ISZERO PUSH2 0x2D3A JUMPI PUSH1 0x0 DUP1 REVERT JUMPDEST PUSH2 0x2D46 DUP10 DUP3 DUP11 ADD PUSH2 0x2C16 JUMP JUMPDEST SWAP5 POP POP PUSH1 0x60 DUP8 ADD CALLDATALOAD PUSH8 0xFFFFFFFFFFFFFFFF DUP2 GT ISZERO PUSH2 0x2D63 JUMPI PUSH1 0x0 DUP1 REVERT JUMPDEST PUSH2 0x2D6F DUP10 DUP3 DUP11 ADD PUSH2 0x2C16 JUMP JUMPDEST SWAP4 POP POP PUSH1 0x80 DUP8 ADD CALLDATALOAD PUSH8 0xFFFFFFFFFFFFFFFF DUP2 GT ISZERO PUSH2 0x2D8C JUMPI PUSH1 0x0 DUP1 REVERT JUMPDEST PUSH2 0x2D98 DUP10 DUP3 DUP11 ADD PUSH2 0x2C16 JUMP JUMPDEST SWAP3 POP POP PUSH1 0xA0 PUSH2 0x2DA9 DUP10 DUP3 DUP11 ADD PUSH2 0x2C6C JUMP JUMPDEST SWAP2 POP POP SWAP3 SWAP6 POP SWAP3 SWAP6 POP SWAP3 SWAP6 JUMP JUMPDEST PUSH1 0x0 DUP1 PUSH1 0x0 DUP1 PUSH1 0x0 DUP1 PUSH1 0x0 DUP1 PUSH2 0x100 DUP10 DUP12 SUB SLT ISZERO PUSH2 0x2DD3 JUMPI PUSH1 0x0 DUP1 REVERT JUMPDEST PUSH1 0x0 PUSH2 0x2DE1 DUP12 DUP3 DUP13 ADD PUSH2 0x2C02 JUMP JUMPDEST SWAP9 POP POP PUSH1 0x20 DUP10 ADD CALLDATALOAD PUSH8 0xFFFFFFFFFFFFFFFF DUP2 GT ISZERO PUSH2 0x2DFE JUMPI PUSH1 0x0 DUP1 REVERT JUMPDEST PUSH2 0x2E0A DUP12 DUP3 DUP13 ADD PUSH2 0x2C16 JUMP JUMPDEST SWAP8 POP POP PUSH1 0x40 DUP10 ADD CALLDATALOAD PUSH8 0xFFFFFFFFFFFFFFFF DUP2 GT ISZERO PUSH2 0x2E27 JUMPI PUSH1 0x0 DUP1 REVERT JUMPDEST PUSH2 0x2E33 DUP12 DUP3 DUP13 ADD PUSH2 0x2C16 JUMP JUMPDEST SWAP7 POP POP PUSH1 0x60 DUP10 ADD CALLDATALOAD PUSH8 0xFFFFFFFFFFFFFFFF DUP2 GT ISZERO PUSH2 0x2E50 JUMPI PUSH1 0x0 DUP1 REVERT JUMPDEST PUSH2 0x2E5C DUP12 DUP3 DUP13 ADD PUSH2 0x2C16 JUMP JUMPDEST SWAP6 POP POP PUSH1 0x80 DUP10 ADD CALLDATALOAD PUSH8 0xFFFFFFFFFFFFFFFF DUP2 GT ISZERO PUSH2 0x2E79 JUMPI PUSH1 0x0 DUP1 REVERT JUMPDEST PUSH2 0x2E85 DUP12 DUP3 DUP13 ADD PUSH2 0x2C16 JUMP JUMPDEST SWAP5 POP POP PUSH1 0xA0 DUP10 ADD CALLDATALOAD PUSH8 0xFFFFFFFFFFFFFFFF DUP2 GT ISZERO PUSH2 0x2EA2 JUMPI PUSH1 0x0 DUP1 REVERT JUMPDEST PUSH2 0x2EAE DUP12 DUP3 DUP13 ADD PUSH2 0x2C16 JUMP JUMPDEST SWAP4 POP POP PUSH1 0xC0 DUP10 ADD CALLDATALOAD PUSH8 0xFFFFFFFFFFFFFFFF DUP2 GT ISZERO PUSH2 0x2ECB JUMPI PUSH1 0x0 DUP1 REVERT JUMPDEST PUSH2 0x2ED7 DUP12 DUP3 DUP13 ADD PUSH2 0x2C16 JUMP JUMPDEST SWAP3 POP POP PUSH1 0xE0 DUP10 ADD CALLDATALOAD PUSH8 0xFFFFFFFFFFFFFFFF DUP2 GT ISZERO PUSH2 0x2EF4 JUMPI PUSH1 0x0 DUP1 REVERT JUMPDEST PUSH2 0x2F00 DUP12 DUP3 DUP13 ADD PUSH2 0x2C16 JUMP JUMPDEST SWAP2 POP POP SWAP3 SWAP6 SWAP9 POP SWAP3 SWAP6 SWAP9 SWAP1 SWAP4 SWAP7 POP JUMP JUMPDEST PUSH1 0x0 DUP1 PUSH1 0x0 DUP1 PUSH1 0x0 DUP1 PUSH1 0x0 DUP1 PUSH1 0x0 DUP1 PUSH2 0x140 DUP12 DUP14 SUB SLT ISZERO PUSH2 0x2F30 JUMPI PUSH1 0x0 DUP1 REVERT JUMPDEST PUSH1 0x0 PUSH2 0x2F3E DUP14 DUP3 DUP15 ADD PUSH2 0x2C02 JUMP JUMPDEST SWAP11 POP POP PUSH1 0x20 DUP12 ADD CALLDATALOAD PUSH8 0xFFFFFFFFFFFFFFFF DUP2 GT ISZERO PUSH2 0x2F5B JUMPI PUSH1 0x0 DUP1 REVERT JUMPDEST PUSH2 0x2F67 DUP14 DUP3 DUP15 ADD PUSH2 0x2C16 JUMP JUMPDEST SWAP10 POP POP PUSH1 0x40 DUP12 ADD CALLDATALOAD PUSH8 0xFFFFFFFFFFFFFFFF DUP2 GT ISZERO PUSH2 0x2F84 JUMPI PUSH1 0x0 DUP1 REVERT JUMPDEST PUSH2 0x2F90 DUP14 DUP3 DUP15 ADD PUSH2 0x2C16 JUMP JUMPDEST SWAP9 POP POP PUSH1 0x60 DUP12 ADD CALLDATALOAD PUSH8 0xFFFFFFFFFFFFFFFF DUP2 GT ISZERO PUSH2 0x2FAD JUMPI PUSH1 0x0 DUP1 REVERT JUMPDEST PUSH2 0x2FB9 DUP14 DUP3 DUP15 ADD PUSH2 0x2C16 JUMP JUMPDEST SWAP8 POP POP PUSH1 0x80 DUP12 ADD CALLDATALOAD PUSH8 0xFFFFFFFFFFFFFFFF DUP2 GT ISZERO PUSH2 0x2FD6 JUMPI PUSH1 0x0 DUP1 REVERT JUMPDEST PUSH2 0x2FE2 DUP14 DUP3 DUP15 ADD PUSH2 0x2C16 JUMP JUMPDEST SWAP7 POP POP PUSH1 0xA0 DUP12 ADD CALLDATALOAD PUSH8 0xFFFFFFFFFFFFFFFF DUP2 GT ISZERO PUSH2 0x2FFF JUMPI PUSH1 0x0 DUP1 REVERT JUMPDEST PUSH2 0x300B DUP14 DUP3 DUP15 ADD PUSH2 0x2C16 JUMP JUMPDEST SWAP6 POP POP PUSH1 0xC0 DUP12 ADD CALLDATALOAD PUSH8 0xFFFFFFFFFFFFFFFF DUP2 GT ISZERO PUSH2 0x3028 JUMPI PUSH1 0x0 DUP1 REVERT JUMPDEST PUSH2 0x3034 DUP14 DUP3 DUP15 ADD PUSH2 0x2C16 JUMP JUMPDEST SWAP5 POP POP PUSH1 0xE0 DUP12 ADD CALLDATALOAD PUSH8 0xFFFFFFFFFFFFFFFF DUP2 GT ISZERO PUSH2 0x3051 JUMPI PUSH1 0x0 DUP1 REVERT JUMPDEST PUSH2 0x305D DUP14 DUP3 DUP15 ADD PUSH2 0x2C16 JUMP JUMPDEST SWAP4 POP POP PUSH2 0x100 DUP12 ADD CALLDATALOAD PUSH8 0xFFFFFFFFFFFFFFFF DUP2 GT ISZERO PUSH2 0x307B JUMPI PUSH1 0x0 DUP1 REVERT JUMPDEST PUSH2 0x3087 DUP14 DUP3 DUP15 ADD PUSH2 0x2C16 JUMP JUMPDEST SWAP3 POP POP PUSH2 0x120 DUP12 ADD CALLDATALOAD PUSH8 0xFFFFFFFFFFFFFFFF DUP2 GT ISZERO PUSH2 0x30A5 JUMPI PUSH1 0x0 DUP1 REVERT JUMPDEST PUSH2 0x30B1 DUP14 DUP3 DUP15 ADD PUSH2 0x2C16 JUMP JUMPDEST SWAP2 POP POP SWAP3 SWAP6 SWAP9 SWAP12 SWAP2 SWAP5 SWAP8 SWAP11 POP SWAP3 SWAP6 SWAP9 POP JUMP JUMPDEST PUSH1 0x0 PUSH1 0x20 DUP3 DUP5 SUB SLT ISZERO PUSH2 0x30D5 JUMPI PUSH1 0x0 DUP1 REVERT JUMPDEST PUSH1 0x0 PUSH2 0x30E3 DUP5 DUP3 DUP6 ADD PUSH2 0x2C6C JUMP JUMPDEST SWAP2 POP POP SWAP3 SWAP2 POP POP JUMP JUMPDEST PUSH2 0x30F5 DUP2 PUSH2 0x346B JUMP JUMPDEST DUP3 MSTORE POP POP JUMP JUMPDEST PUSH1 0x0 PUSH2 0x3106 DUP3 PUSH2 0x3448 JUMP JUMPDEST DUP1 DUP5 MSTORE PUSH1 0x20 DUP5 ADD SWAP4 POP PUSH2 0x3118 DUP4 PUSH2 0x343B JUMP JUMPDEST PUSH1 0x0 JUMPDEST DUP3 DUP2 LT ISZERO PUSH2 0x314A JUMPI PUSH2 0x312E DUP7 DUP4 MLOAD PUSH2 0x30EC JUMP JUMPDEST PUSH2 0x3137 DUP3 PUSH2 0x345E JUMP JUMPDEST SWAP2 POP PUSH1 0x20 DUP7 ADD SWAP6 POP PUSH1 0x1 DUP2 ADD SWAP1 POP PUSH2 0x311B JUMP JUMPDEST POP DUP5 SWAP3 POP POP POP SWAP3 SWAP2 POP POP JUMP JUMPDEST PUSH2 0x315F DUP2 PUSH2 0x348B JUMP JUMPDEST DUP3 MSTORE POP POP JUMP JUMPDEST PUSH1 0x0 PUSH2 0x3170 DUP3 PUSH2 0x3453 JUMP JUMPDEST DUP1 DUP5 MSTORE PUSH2 0x3184 DUP2 PUSH1 0x20 DUP7 ADD PUSH1 0x20 DUP7 ADD PUSH2 0x34DA JUMP JUMPDEST PUSH2 0x318D DUP2 PUSH2 0x350D JUMP JUMPDEST PUSH1 0x20 DUP6 ADD ADD SWAP2 POP POP SWAP3 SWAP2 POP POP JUMP JUMPDEST PUSH2 0x31A4 DUP2 PUSH2 0x3497 JUMP JUMPDEST DUP3 MSTORE POP POP JUMP JUMPDEST PUSH1 0x0 PUSH1 0x20 DUP3 ADD SWAP1 POP PUSH2 0x31BF PUSH1 0x0 DUP4 ADD DUP5 PUSH2 0x30EC JUMP JUMPDEST SWAP3 SWAP2 POP POP JUMP JUMPDEST PUSH1 0x0 PUSH1 0x20 DUP3 ADD SWAP1 POP DUP2 DUP2 SUB PUSH1 0x0 DUP4 ADD MSTORE PUSH2 0x31DF DUP2 DUP5 PUSH2 0x30FB JUMP JUMPDEST SWAP1 POP SWAP3 SWAP2 POP POP JUMP JUMPDEST PUSH1 0x0 PUSH1 0x20 DUP3 ADD SWAP1 POP PUSH2 0x31FC PUSH1 0x0 DUP4 ADD DUP5 PUSH2 0x3156 JUMP JUMPDEST SWAP3 SWAP2 POP POP JUMP JUMPDEST PUSH1 0x0 PUSH1 0xE0 DUP3 ADD SWAP1 POP DUP2 DUP2 SUB PUSH1 0x0 DUP4 ADD MSTORE PUSH2 0x321C DUP2 DUP11 PUSH2 0x3165 JUMP JUMPDEST SWAP1 POP DUP2 DUP2 SUB PUSH1 0x20 DUP4 ADD MSTORE PUSH2 0x3230 DUP2 DUP10 PUSH2 0x3165 JUMP JUMPDEST SWAP1 POP DUP2 DUP2 SUB PUSH1 0x40 DUP4 ADD MSTORE PUSH2 0x3244 DUP2 DUP9 PUSH2 0x3165 JUMP JUMPDEST SWAP1 POP DUP2 DUP2 SUB PUSH1 0x60 DUP4 ADD MSTORE PUSH2 0x3258 DUP2 DUP8 PUSH2 0x3165 JUMP JUMPDEST SWAP1 POP DUP2 DUP2 SUB PUSH1 0x80 DUP4 ADD MSTORE PUSH2 0x326C DUP2 DUP7 PUSH2 0x3165 JUMP JUMPDEST SWAP1 POP DUP2 DUP2 SUB PUSH1 0xA0 DUP4 ADD MSTORE PUSH2 0x3280 DUP2 DUP6 PUSH2 0x3165 JUMP JUMPDEST SWAP1 POP DUP2 DUP2 SUB PUSH1 0xC0 DUP4 ADD MSTORE PUSH2 0x3294 DUP2 DUP5 PUSH2 0x3165 JUMP JUMPDEST SWAP1 POP SWAP9 SWAP8 POP POP POP POP POP POP POP POP JUMP JUMPDEST PUSH1 0x0 PUSH2 0x100 DUP3 ADD SWAP1 POP DUP2 DUP2 SUB PUSH1 0x0 DUP4 ADD MSTORE PUSH2 0x32BD DUP2 DUP12 PUSH2 0x3165 JUMP JUMPDEST SWAP1 POP DUP2 DUP2 SUB PUSH1 0x20 DUP4 ADD MSTORE PUSH2 0x32D1 DUP2 DUP11 PUSH2 0x3165 JUMP JUMPDEST SWAP1 POP DUP2 DUP2 SUB PUSH1 0x40 DUP4 ADD MSTORE PUSH2 0x32E5 DUP2 DUP10 PUSH2 0x3165 JUMP JUMPDEST SWAP1 POP DUP2 DUP2 SUB PUSH1 0x60 DUP4 ADD MSTORE PUSH2 0x32F9 DUP2 DUP9 PUSH2 0x3165 JUMP JUMPDEST SWAP1 POP DUP2 DUP2 SUB PUSH1 0x80 DUP4 ADD MSTORE PUSH2 0x330D DUP2 DUP8 PUSH2 0x3165 JUMP JUMPDEST SWAP1 POP DUP2 DUP2 SUB PUSH1 0xA0 DUP4 ADD MSTORE PUSH2 0x3321 DUP2 DUP7 PUSH2 0x3165 JUMP JUMPDEST SWAP1 POP DUP2 DUP2 SUB PUSH1 0xC0 DUP4 ADD MSTORE PUSH2 0x3335 DUP2 DUP6 PUSH2 0x3165 JUMP JUMPDEST SWAP1 POP PUSH2 0x3344 PUSH1 0xE0 DUP4 ADD DUP5 PUSH2 0x30EC JUMP JUMPDEST SWAP10 SWAP9 POP POP POP POP POP POP POP POP POP JUMP JUMPDEST PUSH1 0x0 PUSH1 0xC0 DUP3 ADD SWAP1 POP DUP2 DUP2 SUB PUSH1 0x0 DUP4 ADD MSTORE PUSH2 0x336B DUP2 DUP10 PUSH2 0x3165 JUMP JUMPDEST SWAP1 POP DUP2 DUP2 SUB PUSH1 0x20 DUP4 ADD MSTORE PUSH2 0x337F DUP2 DUP9 PUSH2 0x3165 JUMP JUMPDEST SWAP1 POP DUP2 DUP2 SUB PUSH1 0x40 DUP4 ADD MSTORE PUSH2 0x3393 DUP2 DUP8 PUSH2 0x3165 JUMP JUMPDEST SWAP1 POP PUSH2 0x33A2 PUSH1 0x60 DUP4 ADD DUP7 PUSH2 0x319B JUMP JUMPDEST PUSH2 0x33AF PUSH1 0x80 DUP4 ADD DUP6 PUSH2 0x30EC JUMP JUMPDEST PUSH2 0x33BC PUSH1 0xA0 DUP4 ADD DUP5 PUSH2 0x30EC JUMP JUMPDEST SWAP8 SWAP7 POP POP POP POP POP POP POP JUMP JUMPDEST PUSH1 0x0 PUSH1 0x20 DUP3 ADD SWAP1 POP PUSH2 0x33DC PUSH1 0x0 DUP4 ADD DUP5 PUSH2 0x319B JUMP JUMPDEST SWAP3 SWAP2 POP POP JUMP JUMPDEST PUSH1 0x0 PUSH1 0x40 MLOAD SWAP1 POP DUP2 DUP2 ADD DUP2 DUP2 LT PUSH8 0xFFFFFFFFFFFFFFFF DUP3 GT OR ISZERO PUSH2 0x3405 JUMPI PUSH1 0x0 DUP1 REVERT JUMPDEST DUP1 PUSH1 0x40 MSTORE POP SWAP2 SWAP1 POP JUMP JUMPDEST PUSH1 0x0 PUSH8 0xFFFFFFFFFFFFFFFF DUP3 GT ISZERO PUSH2 0x3426 JUMPI PUSH1 0x0 DUP1 REVERT JUMPDEST PUSH1 0x1F NOT PUSH1 0x1F DUP4 ADD AND SWAP1 POP PUSH1 0x20 DUP2 ADD SWAP1 POP SWAP2 SWAP1 POP JUMP JUMPDEST PUSH1 0x0 PUSH1 0x20 DUP3 ADD SWAP1 POP SWAP2 SWAP1 POP JUMP JUMPDEST PUSH1 0x0 DUP2 MLOAD SWAP1 POP SWAP2 SWAP1 POP JUMP JUMPDEST PUSH1 0x0 DUP2 MLOAD SWAP1 POP SWAP2 SWAP1 POP JUMP JUMPDEST PUSH1 0x0 PUSH1 0x20 DUP3 ADD SWAP1 POP SWAP2 SWAP1 POP JUMP JUMPDEST PUSH1 0x0 PUSH20 0xFFFFFFFFFFFFFFFFFFFFFFFFFFFFFFFFFFFFFFFF DUP3 AND SWAP1 POP SWAP2 SWAP1 POP JUMP JUMPDEST PUSH1 0x0 DUP2 ISZERO ISZERO SWAP1 POP SWAP2 SWAP1 POP JUMP JUMPDEST PUSH1 0x0 DUP2 SWAP1 POP SWAP2 SWAP1 POP JUMP JUMPDEST PUSH1 0x0 PUSH20 0xFFFFFFFFFFFFFFFFFFFFFFFFFFFFFFFFFFFFFFFF DUP3 AND SWAP1 POP SWAP2 SWAP1 POP JUMP JUMPDEST PUSH1 0x0 DUP2 SWAP1 POP SWAP2 SWAP1 POP JUMP JUMPDEST DUP3 DUP2 DUP4 CALLDATACOPY PUSH1 0x0 DUP4 DUP4 ADD MSTORE POP POP POP JUMP JUMPDEST PUSH1 0x0 JUMPDEST DUP4 DUP2 LT ISZERO PUSH2 0x34F8 JUMPI DUP1 DUP3 ADD MLOAD DUP2 DUP5 ADD MSTORE PUSH1 0x20 DUP2 ADD SWAP1 POP PUSH2 0x34DD JUMP JUMPDEST DUP4 DUP2 GT ISZERO PUSH2 0x3507 JUMPI PUSH1 0x0 DUP5 DUP5 ADD MSTORE JUMPDEST POP POP POP POP JUMP JUMPDEST PUSH1 0x0 PUSH1 0x1F NOT PUSH1 0x1F DUP4 ADD AND SWAP1 POP SWAP2 SWAP1 POP JUMP STOP LOG2 PUSH6 0x627A7A723058 KECCAK256 PC PUSH9 0xF0A2954F872164D79F EXP SWAP8 0xc2 0xc4 0x24 0x2b LT SWAP9 REVERT CALL 0xb0 0xd6 0xdb 0xe CALL 0xf 0xb4 0xb9 0xc1 PUSH3 0x796C65 PUSH25 0x706572696D656E74616CF50037000000000000000000000000 "
				},
				"gasEstimates": {
					"creation": {
						"codeDepositCost": "2731200",
						"executionCost": "48266",
						"totalCost": "2779466"
					},
					"external": {
						"MoHPermissionCounter()": "936",
						"MoHRevokePermission(address,address)": "infinite",
						"checkDoctor(address)": "1481",
						"createVaccineRecord(address,address,string,string,string,uint256)": "infinite",
						"doctorCount()": "782",
						"doctorList(uint256)": "1144",
						"doctorRegistration(address,string,string,string,string,string,string,string)": "infinite",
						"editDoctor(address,string,string,string,string,string,string,string)": "infinite",
						"editUser(address,string,string,string,string,string,string,string,string,string)": "infinite",
						"getDoctorCount()": "812",
						"getDoctors()": "infinite",
						"getMoHPermissionCounter()": "1142",
						"getUserCount()": "1010",
						"getUserPermissionCounter()": "548",
						"getUsers()": "infinite",
						"getVaccinationInfo(address)": "infinite",
						"givePermissionByMoH(address,address)": "infinite",
						"givePermissionByUser(address)": "41388",
						"mohAdress()": "1066",
						"owner()": "912",
						"ownerAddress()": "21208",
						"searchDoctor(address)": "infinite",
						"searchUserformation(address)": "infinite",
						"userCount()": "584",
						"userList(uint256)": "1496",
						"userPermissionCounter()": "1068",
						"userRegistration(address,string,string,string,string,string,string,string,string,string)": "infinite",
						"userRevokePermission(address)": "21195",
						"vaccinationList(uint256)": "1694",
						"vaccinationRecordsCounter()": "914"
					}
				},
				"methodIdentifiers": {
					"MoHPermissionCounter()": "99d698c5",
					"MoHRevokePermission(address,address)": "c3bf7bf0",
					"checkDoctor(address)": "793de5f0",
					"createVaccineRecord(address,address,string,string,string,uint256)": "341f8105",
					"doctorCount()": "78522bc4",
					"doctorList(uint256)": "127ca4b4",
					"doctorRegistration(address,string,string,string,string,string,string,string)": "17e51111",
					"editDoctor(address,string,string,string,string,string,string,string)": "16e0a611",
					"editUser(address,string,string,string,string,string,string,string,string,string)": "779a9576",
					"getDoctorCount()": "79111c1c",
					"getDoctors()": "b13d5d94",
					"getMoHPermissionCounter()": "e0df0ac6",
					"getUserCount()": "b5cb15f7",
					"getUserPermissionCounter()": "024decc5",
					"getUsers()": "00ce8e3e",
					"getVaccinationInfo(address)": "83a28b29",
					"givePermissionByMoH(address,address)": "d118404b",
					"givePermissionByUser(address)": "294a4540",
					"mohAdress()": "b744ff4d",
					"owner()": "8da5cb5b",
					"ownerAddress()": "8f84aa09",
					"searchDoctor(address)": "caee6c85",
					"searchUserformation(address)": "076fd2f8",
					"userCount()": "07973ccf",
					"userList(uint256)": "9f4216e8",
					"userPermissionCounter()": "c543a718",
					"userRegistration(address,string,string,string,string,string,string,string,string,string)": "6cdb2278",
					"userRevokePermission(address)": "5fc8e8c6",
					"vaccinationList(uint256)": "ff508dab",
					"vaccinationRecordsCounter()": "96e39ce0"
				}
			},
			"userdoc": {
				"methods": {}
			}
		}
	}
}