{
	"contracts/ddddd.sol": {
		"ddddd": {
			"abi": [
				{
					"constant": true,
					"inputs": [],
					"name": "getUsers",
					"outputs": [
						{
							"name": "",
							"type": "address[]"
						}
					],
					"payable": false,
					"stateMutability": "view",
					"type": "function"
				},
				{
					"constant": true,
					"inputs": [],
					"name": "getUserPermissionCounter",
					"outputs": [
						{
							"name": "",
							"type": "uint256"
						}
					],
					"payable": false,
					"stateMutability": "view",
					"type": "function"
				},
				{
					"constant": true,
					"inputs": [
						{
							"name": "_address",
							"type": "address"
						}
					],
					"name": "searchUserformation",
					"outputs": [
						{
							"name": "",
							"type": "string"
						},
						{
							"name": "",
							"type": "string"
						},
						{
							"name": "",
							"type": "string"
						},
						{
							"name": "",
							"type": "string"
						},
						{
							"name": "",
							"type": "string"
						},
						{
							"name": "",
							"type": "string"
						},
						{
							"name": "",
							"type": "string"
						},
						{
							"name": "",
							"type": "address"
						}
					],
					"payable": false,
					"stateMutability": "view",
					"type": "function"
				},
				{
					"constant": true,
					"inputs": [],
					"name": "userCount",
					"outputs": [
						{
							"name": "",
							"type": "uint256"
						}
					],
					"payable": false,
					"stateMutability": "view",
					"type": "function"
				},
				{
					"constant": true,
					"inputs": [
						{
							"name": "",
							"type": "uint256"
						}
					],
					"name": "doctorList",
					"outputs": [
						{
							"name": "",
							"type": "address"
						}
					],
					"payable": false,
					"stateMutability": "view",
					"type": "function"
				},
				{
					"constant": false,
					"inputs": [
						{
							"name": "_doctor",
							"type": "address"
						},
						{
							"name": "_uaeId",
							"type": "string"
						},
						{
							"name": "_name",
							"type": "string"
						},
						{
							"name": "_phone",
							"type": "string"
						},
						{
							"name": "_gender",
							"type": "string"
						},
						{
							"name": "_email",
							"type": "string"
						},
						{
							"name": "_qualification",
							"type": "string"
						},
						{
							"name": "_major",
							"type": "string"
						}
					],
					"name": "editDoctor",
					"outputs": [],
					"payable": false,
					"stateMutability": "nonpayable",
					"type": "function"
				},
				{
					"constant": false,
					"inputs": [
						{
							"name": "_doctor",
							"type": "address"
						},
						{
							"name": "_uaeId",
							"type": "string"
						},
						{
							"name": "_name",
							"type": "string"
						},
						{
							"name": "_phone",
							"type": "string"
						},
						{
							"name": "_gender",
							"type": "string"
						},
						{
							"name": "_email",
							"type": "string"
						},
						{
							"name": "_qualification",
							"type": "string"
						},
						{
							"name": "_major",
							"type": "string"
						}
					],
					"name": "doctorRegistration",
					"outputs": [],
					"payable": false,
					"stateMutability": "nonpayable",
					"type": "function"
				},
				{
					"constant": true,
					"inputs": [
						{
							"name": "_admin",
							"type": "address"
						}
					],
					"name": "ownerAddress",
					"outputs": [
						{
							"name": "",
							"type": "bool"
						}
					],
					"payable": false,
					"stateMutability": "view",
					"type": "function"
				},
				{
					"constant": false,
					"inputs": [
						{
							"name": "_address",
							"type": "address"
						}
					],
					"name": "givePermissionByUser",
					"outputs": [
						{
							"name": "success",
							"type": "bool"
						}
					],
					"payable": false,
					"stateMutability": "nonpayable",
					"type": "function"
				},
				{
					"constant": false,
					"inputs": [
						{
							"name": "_address1",
							"type": "address"
						},
						{
							"name": "_doctor",
							"type": "address"
						},
						{
							"name": "_name",
							"type": "string"
						},
						{
							"name": "_vaccine",
							"type": "string"
						},
						{
							"name": "_description",
							"type": "string"
						},
						{
							"name": "_typeOfVaccine",
							"type": "string"
						},
						{
							"name": "_creationDate",
							"type": "uint256"
						}
					],
					"name": "createVaccineRecord",
					"outputs": [
						{
							"name": "success",
							"type": "bool"
						}
					],
					"payable": false,
					"stateMutability": "nonpayable",
					"type": "function"
				},
				{
					"constant": false,
					"inputs": [
						{
							"name": "_address",
							"type": "address"
						}
					],
					"name": "userRevokePermission",
					"outputs": [
						{
							"name": "success",
							"type": "bool"
						}
					],
					"payable": false,
					"stateMutability": "nonpayable",
					"type": "function"
				},
				{
					"constant": false,
					"inputs": [
						{
							"name": "_user",
							"type": "address"
						},
						{
							"name": "_uaeId",
							"type": "string"
						},
						{
							"name": "_name",
							"type": "string"
						},
						{
							"name": "_phone",
							"type": "string"
						},
						{
							"name": "_gender",
							"type": "string"
						},
						{
							"name": "_dob",
							"type": "string"
						},
						{
							"name": "_addr",
							"type": "string"
						},
						{
							"name": "_email",
							"type": "string"
						},
						{
							"name": "_nomineeName",
							"type": "string"
						},
						{
							"name": "_nomineeContact",
							"type": "string"
						}
					],
					"name": "userRegistration",
					"outputs": [],
					"payable": false,
					"stateMutability": "nonpayable",
					"type": "function"
				},
				{
					"constant": false,
					"inputs": [
						{
							"name": "_user",
							"type": "address"
						},
						{
							"name": "_uaeId",
							"type": "string"
						},
						{
							"name": "_name",
							"type": "string"
						},
						{
							"name": "_phone",
							"type": "string"
						},
						{
							"name": "_gender",
							"type": "string"
						},
						{
							"name": "_dob",
							"type": "string"
						},
						{
							"name": "_addr",
							"type": "string"
						},
						{
							"name": "_email",
							"type": "string"
						},
						{
							"name": "_nomineeName",
							"type": "string"
						},
						{
							"name": "_nomineeContact",
							"type": "string"
						}
					],
					"name": "editUser",
					"outputs": [],
					"payable": false,
					"stateMutability": "nonpayable",
					"type": "function"
				},
				{
					"constant": true,
					"inputs": [],
					"name": "doctorCount",
					"outputs": [
						{
							"name": "",
							"type": "uint256"
						}
					],
					"payable": false,
					"stateMutability": "view",
					"type": "function"
				},
				{
					"constant": true,
					"inputs": [],
					"name": "getDoctorCount",
					"outputs": [
						{
							"name": "",
							"type": "uint256"
						}
					],
					"payable": false,
					"stateMutability": "view",
					"type": "function"
				},
				{
					"constant": true,
					"inputs": [
						{
							"name": "_address",
							"type": "address"
						}
					],
					"name": "checkDoctor",
					"outputs": [
						{
							"name": "success",
							"type": "bool"
						}
					],
					"payable": false,
					"stateMutability": "view",
					"type": "function"
				},
				{
					"constant": true,
					"inputs": [
						{
							"name": "_address",
							"type": "address"
						}
					],
					"name": "getVaccinationInfo",
					"outputs": [
						{
							"name": "",
							"type": "string"
						},
						{
							"name": "",
							"type": "string"
						},
						{
							"name": "",
							"type": "string"
						},
						{
							"name": "",
							"type": "string"
						},
						{
							"name": "",
							"type": "uint256"
						},
						{
							"name": "",
							"type": "address"
						},
						{
							"name": "",
							"type": "address"
						}
					],
					"payable": false,
					"stateMutability": "view",
					"type": "function"
				},
				{
					"constant": true,
					"inputs": [],
					"name": "owner",
					"outputs": [
						{
							"name": "",
							"type": "address"
						}
					],
					"payable": false,
					"stateMutability": "view",
					"type": "function"
				},
				{
					"constant": true,
					"inputs": [],
					"name": "vaccinationRecordsCounter",
					"outputs": [
						{
							"name": "",
							"type": "uint256"
						}
					],
					"payable": false,
					"stateMutability": "view",
					"type": "function"
				},
				{
					"constant": true,
					"inputs": [],
					"name": "MoHPermissionCounter",
					"outputs": [
						{
							"name": "",
							"type": "uint256"
						}
					],
					"payable": false,
					"stateMutability": "view",
					"type": "function"
				},
				{
					"constant": true,
					"inputs": [
						{
							"name": "",
							"type": "uint256"
						}
					],
					"name": "userList",
					"outputs": [
						{
							"name": "",
							"type": "address"
						}
					],
					"payable": false,
					"stateMutability": "view",
					"type": "function"
				},
				{
					"constant": true,
					"inputs": [],
					"name": "getDoctors",
					"outputs": [
						{
							"name": "",
							"type": "address[]"
						}
					],
					"payable": false,
					"stateMutability": "view",
					"type": "function"
				},
				{
					"constant": true,
					"inputs": [],
					"name": "getUserCount",
					"outputs": [
						{
							"name": "",
							"type": "uint256"
						}
					],
					"payable": false,
					"stateMutability": "view",
					"type": "function"
				},
				{
					"constant": true,
					"inputs": [],
					"name": "mohAdress",
					"outputs": [
						{
							"name": "",
							"type": "address"
						}
					],
					"payable": false,
					"stateMutability": "view",
					"type": "function"
				},
				{
					"constant": false,
					"inputs": [
						{
							"name": "_address1",
							"type": "address"
						},
						{
							"name": "_address2",
							"type": "address"
						}
					],
					"name": "MoHRevokePermission",
					"outputs": [
						{
							"name": "success",
							"type": "bool"
						}
					],
					"payable": false,
					"stateMutability": "nonpayable",
					"type": "function"
				},
				{
					"constant": true,
					"inputs": [],
					"name": "userPermissionCounter",
					"outputs": [
						{
							"name": "",
							"type": "uint256"
						}
					],
					"payable": false,
					"stateMutability": "view",
					"type": "function"
				},
				{
					"constant": true,
					"inputs": [
						{
							"name": "_address",
							"type": "address"
						}
					],
					"name": "searchDoctor",
					"outputs": [
						{
							"name": "",
							"type": "string"
						},
						{
							"name": "",
							"type": "string"
						},
						{
							"name": "",
							"type": "string"
						},
						{
							"name": "",
							"type": "string"
						},
						{
							"name": "",
							"type": "string"
						},
						{
							"name": "",
							"type": "string"
						},
						{
							"name": "",
							"type": "string"
						},
						{
							"name": "",
							"type": "address"
						}
					],
					"payable": false,
					"stateMutability": "view",
					"type": "function"
				},
				{
					"constant": false,
					"inputs": [
						{
							"name": "_address1",
							"type": "address"
						},
						{
							"name": "_address2",
							"type": "address"
						}
					],
					"name": "givePermissionByMoH",
					"outputs": [
						{
							"name": "success",
							"type": "bool"
						}
					],
					"payable": false,
					"stateMutability": "nonpayable",
					"type": "function"
				},
				{
					"constant": true,
					"inputs": [],
					"name": "getMoHPermissionCounter",
					"outputs": [
						{
							"name": "",
							"type": "uint256"
						}
					],
					"payable": false,
					"stateMutability": "view",
					"type": "function"
				},
				{
					"constant": true,
					"inputs": [
						{
							"name": "",
							"type": "uint256"
						}
					],
					"name": "vaccinationList",
					"outputs": [
						{
							"name": "",
							"type": "address"
						}
					],
					"payable": false,
					"stateMutability": "view",
					"type": "function"
				}
			],
			"devdoc": {
				"methods": {}
			},
			"evm": {
				"assembly": "    /* \"contracts/ddddd.sol\":91:9369  contract ddddd {\r... */\n  mstore(0x40, 0x80)\n    /* \"contracts/ddddd.sol\":1660:1661  0 */\n  0x0\n    /* \"contracts/ddddd.sol\":1633:1661  uint256 public userCount = 0 */\n  0xb\n  sstore\n    /* \"contracts/ddddd.sol\":1697:1698  0 */\n  0x0\n    /* \"contracts/ddddd.sol\":1668:1698  uint256 public doctorCount = 0 */\n  0xc\n  sstore\n    /* \"contracts/ddddd.sol\":1743:1744  0 */\n  0x0\n    /* \"contracts/ddddd.sol\":1705:1744  uint256 public MoHPermissionCounter = 0 */\n  0xd\n  sstore\n    /* \"contracts/ddddd.sol\":1790:1791  0 */\n  0x0\n    /* \"contracts/ddddd.sol\":1751:1791  uint256 public userPermissionCounter = 0 */\n  0xe\n  sstore\n    /* \"contracts/ddddd.sol\":1841:1842  0 */\n  0x0\n    /* \"contracts/ddddd.sol\":1798:1842  uint256 public vaccinationRecordsCounter = 0 */\n  0xf\n  sstore\n    /* \"contracts/ddddd.sol\":1878:1920  0xc50C6297f56b033633C30354A854b074749cd2dC */\n  0xc50c6297f56b033633c30354a854b074749cd2dc\n    /* \"contracts/ddddd.sol\":1851:1920  address public mohAdress = 0xc50C6297f56b033633C30354A854b074749cd2dC */\n  0x10\n  exp(0x100, 0x0)\n  dup2\n  sload\n  dup2\n  0xffffffffffffffffffffffffffffffffffffffff\n  mul\n  not\n  and\n  swap1\n  dup4\n  0xffffffffffffffffffffffffffffffffffffffff\n  and\n  mul\n  or\n  swap1\n  sstore\n  pop\n    /* \"contracts/ddddd.sol\":91:9369  contract ddddd {\r... */\n  callvalue\n    /* \"--CODEGEN--\":8:17   */\n  dup1\n    /* \"--CODEGEN--\":5:7   */\n  iszero\n  tag_1\n  jumpi\n    /* \"--CODEGEN--\":30:31   */\n  0x0\n    /* \"--CODEGEN--\":27:28   */\n  dup1\n    /* \"--CODEGEN--\":20:32   */\n  revert\n    /* \"--CODEGEN--\":5:7   */\ntag_1:\n    /* \"contracts/ddddd.sol\":91:9369  contract ddddd {\r... */\n  pop\n  dataSize(sub_0)\n  dup1\n  dataOffset(sub_0)\n  0x0\n  codecopy\n  0x0\n  return\nstop\n\nsub_0: assembly {\n        /* \"contracts/ddddd.sol\":91:9369  contract ddddd {\r... */\n      mstore(0x40, 0x80)\n      jumpi(tag_1, lt(calldatasize, 0x4))\n      calldataload(0x0)\n      0x100000000000000000000000000000000000000000000000000000000\n      swap1\n      div\n      0xffffffff\n      and\n      dup1\n      0xce8e3e\n      eq\n      tag_2\n      jumpi\n      dup1\n      0x24decc5\n      eq\n      tag_3\n      jumpi\n      dup1\n      0x76fd2f8\n      eq\n      tag_4\n      jumpi\n      dup1\n      0x7973ccf\n      eq\n      tag_5\n      jumpi\n      dup1\n      0x127ca4b4\n      eq\n      tag_6\n      jumpi\n      dup1\n      0x16e0a611\n      eq\n      tag_7\n      jumpi\n      dup1\n      0x17e51111\n      eq\n      tag_8\n      jumpi\n      dup1\n      0x28f6daac\n      eq\n      tag_9\n      jumpi\n      dup1\n      0x294a4540\n      eq\n      tag_10\n      jumpi\n      dup1\n      0x44c23f88\n      eq\n      tag_11\n      jumpi\n      dup1\n      0x5fc8e8c6\n      eq\n      tag_12\n      jumpi\n      dup1\n      0x6cdb2278\n      eq\n      tag_13\n      jumpi\n      dup1\n      0x779a9576\n      eq\n      tag_14\n      jumpi\n      dup1\n      0x78522bc4\n      eq\n      tag_15\n      jumpi\n      dup1\n      0x79111c1c\n      eq\n      tag_16\n      jumpi\n      dup1\n      0x793de5f0\n      eq\n      tag_17\n      jumpi\n      dup1\n      0x83a28b29\n      eq\n      tag_18\n      jumpi\n      dup1\n      0x8da5cb5b\n      eq\n      tag_19\n      jumpi\n      dup1\n      0x96e39ce0\n      eq\n      tag_20\n      jumpi\n      dup1\n      0x99d698c5\n      eq\n      tag_21\n      jumpi\n      dup1\n      0x9f4216e8\n      eq\n      tag_22\n      jumpi\n      dup1\n      0xb13d5d94\n      eq\n      tag_23\n      jumpi\n      dup1\n      0xb5cb15f7\n      eq\n      tag_24\n      jumpi\n      dup1\n      0xb744ff4d\n      eq\n      tag_25\n      jumpi\n      dup1\n      0xc3bf7bf0\n      eq\n      tag_26\n      jumpi\n      dup1\n      0xc543a718\n      eq\n      tag_27\n      jumpi\n      dup1\n      0xcaee6c85\n      eq\n      tag_28\n      jumpi\n      dup1\n      0xd118404b\n      eq\n      tag_29\n      jumpi\n      dup1\n      0xe0df0ac6\n      eq\n      tag_30\n      jumpi\n      dup1\n      0xff508dab\n      eq\n      tag_31\n      jumpi\n    tag_1:\n      0x0\n      dup1\n      revert\n        /* \"contracts/ddddd.sol\":7344:7429  function getUsers() public view returns(address[]) {\r... */\n    tag_2:\n      callvalue\n        /* \"--CODEGEN--\":8:17   */\n      dup1\n        /* \"--CODEGEN--\":5:7   */\n      iszero\n      tag_32\n      jumpi\n        /* \"--CODEGEN--\":30:31   */\n      0x0\n        /* \"--CODEGEN--\":27:28   */\n      dup1\n        /* \"--CODEGEN--\":20:32   */\n      revert\n        /* \"--CODEGEN--\":5:7   */\n    tag_32:\n        /* \"contracts/ddddd.sol\":7344:7429  function getUsers() public view returns(address[]) {\r... */\n      pop\n      tag_33\n      jump(tag_34)\n    tag_33:\n      mload(0x40)\n      tag_35\n      swap2\n      swap1\n      jump(tag_36)\n    tag_35:\n      mload(0x40)\n      dup1\n      swap2\n      sub\n      swap1\n      return\n        /* \"contracts/ddddd.sol\":8822:8934  function getUserPermissionCounter() public view returns(uint256) {\r... */\n    tag_3:\n      callvalue\n        /* \"--CODEGEN--\":8:17   */\n      dup1\n        /* \"--CODEGEN--\":5:7   */\n      iszero\n      tag_37\n      jumpi\n        /* \"--CODEGEN--\":30:31   */\n      0x0\n        /* \"--CODEGEN--\":27:28   */\n      dup1\n        /* \"--CODEGEN--\":20:32   */\n      revert\n        /* \"--CODEGEN--\":5:7   */\n    tag_37:\n        /* \"contracts/ddddd.sol\":8822:8934  function getUserPermissionCounter() public view returns(uint256) {\r... */\n      pop\n      tag_38\n      jump(tag_39)\n    tag_38:\n      mload(0x40)\n      tag_40\n      swap2\n      swap1\n      jump(tag_41)\n    tag_40:\n      mload(0x40)\n      dup1\n      swap2\n      sub\n      swap1\n      return\n        /* \"contracts/ddddd.sol\":7540:7914  function searchUserformation(address _address) public view returns(string, string, string, string, string, string, string, address) {\r... */\n    tag_4:\n      callvalue\n        /* \"--CODEGEN--\":8:17   */\n      dup1\n        /* \"--CODEGEN--\":5:7   */\n      iszero\n      tag_42\n      jumpi\n        /* \"--CODEGEN--\":30:31   */\n      0x0\n        /* \"--CODEGEN--\":27:28   */\n      dup1\n        /* \"--CODEGEN--\":20:32   */\n      revert\n        /* \"--CODEGEN--\":5:7   */\n    tag_42:\n        /* \"contracts/ddddd.sol\":7540:7914  function searchUserformation(address _address) public view returns(string, string, string, string, string, string, string, address) {\r... */\n      pop\n      tag_43\n      0x4\n      dup1\n      calldatasize\n      sub\n      tag_44\n      swap2\n      swap1\n      dup2\n      add\n      swap1\n      jump(tag_45)\n    tag_44:\n      jump(tag_46)\n    tag_43:\n      mload(0x40)\n      tag_47\n      swap9\n      swap8\n      swap7\n      swap6\n      swap5\n      swap4\n      swap3\n      swap2\n      swap1\n      jump(tag_48)\n    tag_47:\n      mload(0x40)\n      dup1\n      swap2\n      sub\n      swap1\n      return\n        /* \"contracts/ddddd.sol\":1633:1661  uint256 public userCount = 0 */\n    tag_5:\n      callvalue\n        /* \"--CODEGEN--\":8:17   */\n      dup1\n        /* \"--CODEGEN--\":5:7   */\n      iszero\n      tag_49\n      jumpi\n        /* \"--CODEGEN--\":30:31   */\n      0x0\n        /* \"--CODEGEN--\":27:28   */\n      dup1\n        /* \"--CODEGEN--\":20:32   */\n      revert\n        /* \"--CODEGEN--\":5:7   */\n    tag_49:\n        /* \"contracts/ddddd.sol\":1633:1661  uint256 public userCount = 0 */\n      pop\n      tag_50\n      jump(tag_51)\n    tag_50:\n      mload(0x40)\n      tag_52\n      swap2\n      swap1\n      jump(tag_41)\n    tag_52:\n      mload(0x40)\n      dup1\n      swap2\n      sub\n      swap1\n      return\n        /* \"contracts/ddddd.sol\":1095:1122  address[] public doctorList */\n    tag_6:\n      callvalue\n        /* \"--CODEGEN--\":8:17   */\n      dup1\n        /* \"--CODEGEN--\":5:7   */\n      iszero\n      tag_53\n      jumpi\n        /* \"--CODEGEN--\":30:31   */\n      0x0\n        /* \"--CODEGEN--\":27:28   */\n      dup1\n        /* \"--CODEGEN--\":20:32   */\n      revert\n        /* \"--CODEGEN--\":5:7   */\n    tag_53:\n        /* \"contracts/ddddd.sol\":1095:1122  address[] public doctorList */\n      pop\n      tag_54\n      0x4\n      dup1\n      calldatasize\n      sub\n      tag_55\n      swap2\n      swap1\n      dup2\n      add\n      swap1\n      jump(tag_56)\n    tag_55:\n      jump(tag_57)\n    tag_54:\n      mload(0x40)\n      tag_58\n      swap2\n      swap1\n      jump(tag_59)\n    tag_58:\n      mload(0x40)\n      dup1\n      swap2\n      sub\n      swap1\n      return\n        /* \"contracts/ddddd.sol\":4700:5225  function editDoctor(address _doctor, string _uaeId, string _name, string _phone, string _gender, string _email, string _qualification, string _major) public {\r... */\n    tag_7:\n      callvalue\n        /* \"--CODEGEN--\":8:17   */\n      dup1\n        /* \"--CODEGEN--\":5:7   */\n      iszero\n      tag_60\n      jumpi\n        /* \"--CODEGEN--\":30:31   */\n      0x0\n        /* \"--CODEGEN--\":27:28   */\n      dup1\n        /* \"--CODEGEN--\":20:32   */\n      revert\n        /* \"--CODEGEN--\":5:7   */\n    tag_60:\n        /* \"contracts/ddddd.sol\":4700:5225  function editDoctor(address _doctor, string _uaeId, string _name, string _phone, string _gender, string _email, string _qualification, string _major) public {\r... */\n      pop\n      tag_61\n      0x4\n      dup1\n      calldatasize\n      sub\n      tag_62\n      swap2\n      swap1\n      dup2\n      add\n      swap1\n      jump(tag_63)\n    tag_62:\n      jump(tag_64)\n    tag_61:\n      stop\n        /* \"contracts/ddddd.sol\":3925:4692  function doctorRegistration(address _doctor, string _uaeId, string _name, string _phone, string _gender, string _email, string _qualification, string _major) public {\r... */\n    tag_8:\n      callvalue\n        /* \"--CODEGEN--\":8:17   */\n      dup1\n        /* \"--CODEGEN--\":5:7   */\n      iszero\n      tag_65\n      jumpi\n        /* \"--CODEGEN--\":30:31   */\n      0x0\n        /* \"--CODEGEN--\":27:28   */\n      dup1\n        /* \"--CODEGEN--\":20:32   */\n      revert\n        /* \"--CODEGEN--\":5:7   */\n    tag_65:\n        /* \"contracts/ddddd.sol\":3925:4692  function doctorRegistration(address _doctor, string _uaeId, string _name, string _phone, string _gender, string _email, string _qualification, string _major) public {\r... */\n      pop\n      tag_66\n      0x4\n      dup1\n      calldatasize\n      sub\n      tag_67\n      swap2\n      swap1\n      dup2\n      add\n      swap1\n      jump(tag_63)\n    tag_67:\n      jump(tag_68)\n    tag_66:\n      stop\n        /* \"contracts/ddddd.sol\":1933:2163  function ownerAddress(address _admin) public view returns(bool) {\r... */\n    tag_9:\n      callvalue\n        /* \"--CODEGEN--\":8:17   */\n      dup1\n        /* \"--CODEGEN--\":5:7   */\n      iszero\n      tag_69\n      jumpi\n        /* \"--CODEGEN--\":30:31   */\n      0x0\n        /* \"--CODEGEN--\":27:28   */\n      dup1\n        /* \"--CODEGEN--\":20:32   */\n      revert\n        /* \"--CODEGEN--\":5:7   */\n    tag_69:\n        /* \"contracts/ddddd.sol\":1933:2163  function ownerAddress(address _admin) public view returns(bool) {\r... */\n      pop\n      tag_70\n      0x4\n      dup1\n      calldatasize\n      sub\n      tag_71\n      swap2\n      swap1\n      dup2\n      add\n      swap1\n      jump(tag_45)\n    tag_71:\n      jump(tag_72)\n    tag_70:\n      mload(0x40)\n      tag_73\n      swap2\n      swap1\n      jump(tag_74)\n    tag_73:\n      mload(0x40)\n      dup1\n      swap2\n      sub\n      swap1\n      return\n        /* \"contracts/ddddd.sol\":6487:6678  function givePermissionByUser(address _address) public returns(bool success) {\r... */\n    tag_10:\n      callvalue\n        /* \"--CODEGEN--\":8:17   */\n      dup1\n        /* \"--CODEGEN--\":5:7   */\n      iszero\n      tag_75\n      jumpi\n        /* \"--CODEGEN--\":30:31   */\n      0x0\n        /* \"--CODEGEN--\":27:28   */\n      dup1\n        /* \"--CODEGEN--\":20:32   */\n      revert\n        /* \"--CODEGEN--\":5:7   */\n    tag_75:\n        /* \"contracts/ddddd.sol\":6487:6678  function givePermissionByUser(address _address) public returns(bool success) {\r... */\n      pop\n      tag_76\n      0x4\n      dup1\n      calldatasize\n      sub\n      tag_77\n      swap2\n      swap1\n      dup2\n      add\n      swap1\n      jump(tag_45)\n    tag_77:\n      jump(tag_78)\n    tag_76:\n      mload(0x40)\n      tag_79\n      swap2\n      swap1\n      jump(tag_74)\n    tag_79:\n      mload(0x40)\n      dup1\n      swap2\n      sub\n      swap1\n      return\n        /* \"contracts/ddddd.sol\":5233:6125  function createVaccineRecord(address _address1, address _doctor, string _name, string _vaccine, string _description, string _typeOfVaccine, uint _creationDate) public returns(bool success) {\r... */\n    tag_11:\n      callvalue\n        /* \"--CODEGEN--\":8:17   */\n      dup1\n        /* \"--CODEGEN--\":5:7   */\n      iszero\n      tag_80\n      jumpi\n        /* \"--CODEGEN--\":30:31   */\n      0x0\n        /* \"--CODEGEN--\":27:28   */\n      dup1\n        /* \"--CODEGEN--\":20:32   */\n      revert\n        /* \"--CODEGEN--\":5:7   */\n    tag_80:\n        /* \"contracts/ddddd.sol\":5233:6125  function createVaccineRecord(address _address1, address _doctor, string _name, string _vaccine, string _description, string _typeOfVaccine, uint _creationDate) public returns(bool success) {\r... */\n      pop\n      tag_81\n      0x4\n      dup1\n      calldatasize\n      sub\n      tag_82\n      swap2\n      swap1\n      dup2\n      add\n      swap1\n      jump(tag_83)\n    tag_82:\n      jump(tag_84)\n    tag_81:\n      mload(0x40)\n      tag_85\n      swap2\n      swap1\n      jump(tag_74)\n    tag_85:\n      mload(0x40)\n      dup1\n      swap2\n      sub\n      swap1\n      return\n        /* \"contracts/ddddd.sol\":6948:7106  function userRevokePermission(address _address) public returns(bool success) {\r... */\n    tag_12:\n      callvalue\n        /* \"--CODEGEN--\":8:17   */\n      dup1\n        /* \"--CODEGEN--\":5:7   */\n      iszero\n      tag_86\n      jumpi\n        /* \"--CODEGEN--\":30:31   */\n      0x0\n        /* \"--CODEGEN--\":27:28   */\n      dup1\n        /* \"--CODEGEN--\":20:32   */\n      revert\n        /* \"--CODEGEN--\":5:7   */\n    tag_86:\n        /* \"contracts/ddddd.sol\":6948:7106  function userRevokePermission(address _address) public returns(bool success) {\r... */\n      pop\n      tag_87\n      0x4\n      dup1\n      calldatasize\n      sub\n      tag_88\n      swap2\n      swap1\n      dup2\n      add\n      swap1\n      jump(tag_45)\n    tag_88:\n      jump(tag_89)\n    tag_87:\n      mload(0x40)\n      tag_90\n      swap2\n      swap1\n      jump(tag_74)\n    tag_90:\n      mload(0x40)\n      dup1\n      swap2\n      sub\n      swap1\n      return\n        /* \"contracts/ddddd.sol\":2175:3284  function userRegistration(address _user, string _uaeId, string _name, string _phone, string _gender, string _dob, string _addr, string _email, string _nomineeName, string _nomineeContact) public {\r... */\n    tag_13:\n      callvalue\n        /* \"--CODEGEN--\":8:17   */\n      dup1\n        /* \"--CODEGEN--\":5:7   */\n      iszero\n      tag_91\n      jumpi\n        /* \"--CODEGEN--\":30:31   */\n      0x0\n        /* \"--CODEGEN--\":27:28   */\n      dup1\n        /* \"--CODEGEN--\":20:32   */\n      revert\n        /* \"--CODEGEN--\":5:7   */\n    tag_91:\n        /* \"contracts/ddddd.sol\":2175:3284  function userRegistration(address _user, string _uaeId, string _name, string _phone, string _gender, string _dob, string _addr, string _email, string _nomineeName, string _nomineeContact) public {\r... */\n      pop\n      tag_92\n      0x4\n      dup1\n      calldatasize\n      sub\n      tag_93\n      swap2\n      swap1\n      dup2\n      add\n      swap1\n      jump(tag_94)\n    tag_93:\n      jump(tag_95)\n    tag_92:\n      stop\n        /* \"contracts/ddddd.sol\":3308:3917  function editUser(address _user, string _uaeId, string _name, string _phone, string _gender, string _dob, string _addr, string _email, string _nomineeName, string _nomineeContact) public {\r... */\n    tag_14:\n      callvalue\n        /* \"--CODEGEN--\":8:17   */\n      dup1\n        /* \"--CODEGEN--\":5:7   */\n      iszero\n      tag_96\n      jumpi\n        /* \"--CODEGEN--\":30:31   */\n      0x0\n        /* \"--CODEGEN--\":27:28   */\n      dup1\n        /* \"--CODEGEN--\":20:32   */\n      revert\n        /* \"--CODEGEN--\":5:7   */\n    tag_96:\n        /* \"contracts/ddddd.sol\":3308:3917  function editUser(address _user, string _uaeId, string _name, string _phone, string _gender, string _dob, string _addr, string _email, string _nomineeName, string _nomineeContact) public {\r... */\n      pop\n      tag_97\n      0x4\n      dup1\n      calldatasize\n      sub\n      tag_98\n      swap2\n      swap1\n      dup2\n      add\n      swap1\n      jump(tag_94)\n    tag_98:\n      jump(tag_99)\n    tag_97:\n      stop\n        /* \"contracts/ddddd.sol\":1668:1698  uint256 public doctorCount = 0 */\n    tag_15:\n      callvalue\n        /* \"--CODEGEN--\":8:17   */\n      dup1\n        /* \"--CODEGEN--\":5:7   */\n      iszero\n      tag_100\n      jumpi\n        /* \"--CODEGEN--\":30:31   */\n      0x0\n        /* \"--CODEGEN--\":27:28   */\n      dup1\n        /* \"--CODEGEN--\":20:32   */\n      revert\n        /* \"--CODEGEN--\":5:7   */\n    tag_100:\n        /* \"contracts/ddddd.sol\":1668:1698  uint256 public doctorCount = 0 */\n      pop\n      tag_101\n      jump(tag_102)\n    tag_101:\n      mload(0x40)\n      tag_103\n      swap2\n      swap1\n      jump(tag_41)\n    tag_103:\n      mload(0x40)\n      dup1\n      swap2\n      sub\n      swap1\n      return\n        /* \"contracts/ddddd.sol\":8716:8808  function getDoctorCount() public view returns(uint256) {\r... */\n    tag_16:\n      callvalue\n        /* \"--CODEGEN--\":8:17   */\n      dup1\n        /* \"--CODEGEN--\":5:7   */\n      iszero\n      tag_104\n      jumpi\n        /* \"--CODEGEN--\":30:31   */\n      0x0\n        /* \"--CODEGEN--\":27:28   */\n      dup1\n        /* \"--CODEGEN--\":20:32   */\n      revert\n        /* \"--CODEGEN--\":5:7   */\n    tag_104:\n        /* \"contracts/ddddd.sol\":8716:8808  function getDoctorCount() public view returns(uint256) {\r... */\n      pop\n      tag_105\n      jump(tag_106)\n    tag_105:\n      mload(0x40)\n      tag_107\n      swap2\n      swap1\n      jump(tag_41)\n    tag_107:\n      mload(0x40)\n      dup1\n      swap2\n      sub\n      swap1\n      return\n        /* \"contracts/ddddd.sol\":9060:9366  function checkDoctor(address _address) public view returns(bool success) {\r... */\n    tag_17:\n      callvalue\n        /* \"--CODEGEN--\":8:17   */\n      dup1\n        /* \"--CODEGEN--\":5:7   */\n      iszero\n      tag_108\n      jumpi\n        /* \"--CODEGEN--\":30:31   */\n      0x0\n        /* \"--CODEGEN--\":27:28   */\n      dup1\n        /* \"--CODEGEN--\":20:32   */\n      revert\n        /* \"--CODEGEN--\":5:7   */\n    tag_108:\n        /* \"contracts/ddddd.sol\":9060:9366  function checkDoctor(address _address) public view returns(bool success) {\r... */\n      pop\n      tag_109\n      0x4\n      dup1\n      calldatasize\n      sub\n      tag_110\n      swap2\n      swap1\n      dup2\n      add\n      swap1\n      jump(tag_45)\n    tag_110:\n      jump(tag_111)\n    tag_109:\n      mload(0x40)\n      tag_112\n      swap2\n      swap1\n      jump(tag_74)\n    tag_112:\n      mload(0x40)\n      dup1\n      swap2\n      sub\n      swap1\n      return\n        /* \"contracts/ddddd.sol\":6133:6477  function getVaccinationInfo(address _address) public view returns(string, string, string, string, uint256, address, address) {\r... */\n    tag_18:\n      callvalue\n        /* \"--CODEGEN--\":8:17   */\n      dup1\n        /* \"--CODEGEN--\":5:7   */\n      iszero\n      tag_113\n      jumpi\n        /* \"--CODEGEN--\":30:31   */\n      0x0\n        /* \"--CODEGEN--\":27:28   */\n      dup1\n        /* \"--CODEGEN--\":20:32   */\n      revert\n        /* \"--CODEGEN--\":5:7   */\n    tag_113:\n        /* \"contracts/ddddd.sol\":6133:6477  function getVaccinationInfo(address _address) public view returns(string, string, string, string, uint256, address, address) {\r... */\n      pop\n      tag_114\n      0x4\n      dup1\n      calldatasize\n      sub\n      tag_115\n      swap2\n      swap1\n      dup2\n      add\n      swap1\n      jump(tag_45)\n    tag_115:\n      jump(tag_116)\n    tag_114:\n      mload(0x40)\n      tag_117\n      swap8\n      swap7\n      swap6\n      swap5\n      swap4\n      swap3\n      swap2\n      swap1\n      jump(tag_118)\n    tag_117:\n      mload(0x40)\n      dup1\n      swap2\n      sub\n      swap1\n      return\n        /* \"contracts/ddddd.sol\":1036:1056  address public owner */\n    tag_19:\n      callvalue\n        /* \"--CODEGEN--\":8:17   */\n      dup1\n        /* \"--CODEGEN--\":5:7   */\n      iszero\n      tag_119\n      jumpi\n        /* \"--CODEGEN--\":30:31   */\n      0x0\n        /* \"--CODEGEN--\":27:28   */\n      dup1\n        /* \"--CODEGEN--\":20:32   */\n      revert\n        /* \"--CODEGEN--\":5:7   */\n    tag_119:\n        /* \"contracts/ddddd.sol\":1036:1056  address public owner */\n      pop\n      tag_120\n      jump(tag_121)\n    tag_120:\n      mload(0x40)\n      tag_122\n      swap2\n      swap1\n      jump(tag_59)\n    tag_122:\n      mload(0x40)\n      dup1\n      swap2\n      sub\n      swap1\n      return\n        /* \"contracts/ddddd.sol\":1798:1842  uint256 public vaccinationRecordsCounter = 0 */\n    tag_20:\n      callvalue\n        /* \"--CODEGEN--\":8:17   */\n      dup1\n        /* \"--CODEGEN--\":5:7   */\n      iszero\n      tag_123\n      jumpi\n        /* \"--CODEGEN--\":30:31   */\n      0x0\n        /* \"--CODEGEN--\":27:28   */\n      dup1\n        /* \"--CODEGEN--\":20:32   */\n      revert\n        /* \"--CODEGEN--\":5:7   */\n    tag_123:\n        /* \"contracts/ddddd.sol\":1798:1842  uint256 public vaccinationRecordsCounter = 0 */\n      pop\n      tag_124\n      jump(tag_125)\n    tag_124:\n      mload(0x40)\n      tag_126\n      swap2\n      swap1\n      jump(tag_41)\n    tag_126:\n      mload(0x40)\n      dup1\n      swap2\n      sub\n      swap1\n      return\n        /* \"contracts/ddddd.sol\":1705:1744  uint256 public MoHPermissionCounter = 0 */\n    tag_21:\n      callvalue\n        /* \"--CODEGEN--\":8:17   */\n      dup1\n        /* \"--CODEGEN--\":5:7   */\n      iszero\n      tag_127\n      jumpi\n        /* \"--CODEGEN--\":30:31   */\n      0x0\n        /* \"--CODEGEN--\":27:28   */\n      dup1\n        /* \"--CODEGEN--\":20:32   */\n      revert\n        /* \"--CODEGEN--\":5:7   */\n    tag_127:\n        /* \"contracts/ddddd.sol\":1705:1744  uint256 public MoHPermissionCounter = 0 */\n      pop\n      tag_128\n      jump(tag_129)\n    tag_128:\n      mload(0x40)\n      tag_130\n      swap2\n      swap1\n      jump(tag_41)\n    tag_130:\n      mload(0x40)\n      dup1\n      swap2\n      sub\n      swap1\n      return\n        /* \"contracts/ddddd.sol\":1063:1088  address[] public userList */\n    tag_22:\n      callvalue\n        /* \"--CODEGEN--\":8:17   */\n      dup1\n        /* \"--CODEGEN--\":5:7   */\n      iszero\n      tag_131\n      jumpi\n        /* \"--CODEGEN--\":30:31   */\n      0x0\n        /* \"--CODEGEN--\":27:28   */\n      dup1\n        /* \"--CODEGEN--\":20:32   */\n      revert\n        /* \"--CODEGEN--\":5:7   */\n    tag_131:\n        /* \"contracts/ddddd.sol\":1063:1088  address[] public userList */\n      pop\n      tag_132\n      0x4\n      dup1\n      calldatasize\n      sub\n      tag_133\n      swap2\n      swap1\n      dup2\n      add\n      swap1\n      jump(tag_56)\n    tag_133:\n      jump(tag_134)\n    tag_132:\n      mload(0x40)\n      tag_135\n      swap2\n      swap1\n      jump(tag_59)\n    tag_135:\n      mload(0x40)\n      dup1\n      swap2\n      sub\n      swap1\n      return\n        /* \"contracts/ddddd.sol\":7439:7528  function getDoctors() public view returns(address[]) {\r... */\n    tag_23:\n      callvalue\n        /* \"--CODEGEN--\":8:17   */\n      dup1\n        /* \"--CODEGEN--\":5:7   */\n      iszero\n      tag_136\n      jumpi\n        /* \"--CODEGEN--\":30:31   */\n      0x0\n        /* \"--CODEGEN--\":27:28   */\n      dup1\n        /* \"--CODEGEN--\":20:32   */\n      revert\n        /* \"--CODEGEN--\":5:7   */\n    tag_136:\n        /* \"contracts/ddddd.sol\":7439:7528  function getDoctors() public view returns(address[]) {\r... */\n      pop\n      tag_137\n      jump(tag_138)\n    tag_137:\n      mload(0x40)\n      tag_139\n      swap2\n      swap1\n      jump(tag_36)\n    tag_139:\n      mload(0x40)\n      dup1\n      swap2\n      sub\n      swap1\n      return\n        /* \"contracts/ddddd.sol\":8620:8708  function getUserCount() public view returns(uint256) {\r... */\n    tag_24:\n      callvalue\n        /* \"--CODEGEN--\":8:17   */\n      dup1\n        /* \"--CODEGEN--\":5:7   */\n      iszero\n      tag_140\n      jumpi\n        /* \"--CODEGEN--\":30:31   */\n      0x0\n        /* \"--CODEGEN--\":27:28   */\n      dup1\n        /* \"--CODEGEN--\":20:32   */\n      revert\n        /* \"--CODEGEN--\":5:7   */\n    tag_140:\n        /* \"contracts/ddddd.sol\":8620:8708  function getUserCount() public view returns(uint256) {\r... */\n      pop\n      tag_141\n      jump(tag_142)\n    tag_141:\n      mload(0x40)\n      tag_143\n      swap2\n      swap1\n      jump(tag_41)\n    tag_143:\n      mload(0x40)\n      dup1\n      swap2\n      sub\n      swap1\n      return\n        /* \"contracts/ddddd.sol\":1851:1920  address public mohAdress = 0xc50C6297f56b033633C30354A854b074749cd2dC */\n    tag_25:\n      callvalue\n        /* \"--CODEGEN--\":8:17   */\n      dup1\n        /* \"--CODEGEN--\":5:7   */\n      iszero\n      tag_144\n      jumpi\n        /* \"--CODEGEN--\":30:31   */\n      0x0\n        /* \"--CODEGEN--\":27:28   */\n      dup1\n        /* \"--CODEGEN--\":20:32   */\n      revert\n        /* \"--CODEGEN--\":5:7   */\n    tag_144:\n        /* \"contracts/ddddd.sol\":1851:1920  address public mohAdress = 0xc50C6297f56b033633C30354A854b074749cd2dC */\n      pop\n      tag_145\n      jump(tag_146)\n    tag_145:\n      mload(0x40)\n      tag_147\n      swap2\n      swap1\n      jump(tag_59)\n    tag_147:\n      mload(0x40)\n      dup1\n      swap2\n      sub\n      swap1\n      return\n        /* \"contracts/ddddd.sol\":7114:7334  function MoHRevokePermission(address _address1, address _address2) public returns(bool success) {\r... */\n    tag_26:\n      callvalue\n        /* \"--CODEGEN--\":8:17   */\n      dup1\n        /* \"--CODEGEN--\":5:7   */\n      iszero\n      tag_148\n      jumpi\n        /* \"--CODEGEN--\":30:31   */\n      0x0\n        /* \"--CODEGEN--\":27:28   */\n      dup1\n        /* \"--CODEGEN--\":20:32   */\n      revert\n        /* \"--CODEGEN--\":5:7   */\n    tag_148:\n        /* \"contracts/ddddd.sol\":7114:7334  function MoHRevokePermission(address _address1, address _address2) public returns(bool success) {\r... */\n      pop\n      tag_149\n      0x4\n      dup1\n      calldatasize\n      sub\n      tag_150\n      swap2\n      swap1\n      dup2\n      add\n      swap1\n      jump(tag_151)\n    tag_150:\n      jump(tag_152)\n    tag_149:\n      mload(0x40)\n      tag_153\n      swap2\n      swap1\n      jump(tag_74)\n    tag_153:\n      mload(0x40)\n      dup1\n      swap2\n      sub\n      swap1\n      return\n        /* \"contracts/ddddd.sol\":1751:1791  uint256 public userPermissionCounter = 0 */\n    tag_27:\n      callvalue\n        /* \"--CODEGEN--\":8:17   */\n      dup1\n        /* \"--CODEGEN--\":5:7   */\n      iszero\n      tag_154\n      jumpi\n        /* \"--CODEGEN--\":30:31   */\n      0x0\n        /* \"--CODEGEN--\":27:28   */\n      dup1\n        /* \"--CODEGEN--\":20:32   */\n      revert\n        /* \"--CODEGEN--\":5:7   */\n    tag_154:\n        /* \"contracts/ddddd.sol\":1751:1791  uint256 public userPermissionCounter = 0 */\n      pop\n      tag_155\n      jump(tag_156)\n    tag_155:\n      mload(0x40)\n      tag_157\n      swap2\n      swap1\n      jump(tag_41)\n    tag_157:\n      mload(0x40)\n      dup1\n      swap2\n      sub\n      swap1\n      return\n        /* \"contracts/ddddd.sol\":8235:8604  function searchDoctor(address _address) public view returns(string, string, string, string, string, string, string, address) {\r... */\n    tag_28:\n      callvalue\n        /* \"--CODEGEN--\":8:17   */\n      dup1\n        /* \"--CODEGEN--\":5:7   */\n      iszero\n      tag_158\n      jumpi\n        /* \"--CODEGEN--\":30:31   */\n      0x0\n        /* \"--CODEGEN--\":27:28   */\n      dup1\n        /* \"--CODEGEN--\":20:32   */\n      revert\n        /* \"--CODEGEN--\":5:7   */\n    tag_158:\n        /* \"contracts/ddddd.sol\":8235:8604  function searchDoctor(address _address) public view returns(string, string, string, string, string, string, string, address) {\r... */\n      pop\n      tag_159\n      0x4\n      dup1\n      calldatasize\n      sub\n      tag_160\n      swap2\n      swap1\n      dup2\n      add\n      swap1\n      jump(tag_45)\n    tag_160:\n      jump(tag_161)\n    tag_159:\n      mload(0x40)\n      tag_162\n      swap9\n      swap8\n      swap7\n      swap6\n      swap5\n      swap4\n      swap3\n      swap2\n      swap1\n      jump(tag_48)\n    tag_162:\n      mload(0x40)\n      dup1\n      swap2\n      sub\n      swap1\n      return\n        /* \"contracts/ddddd.sol\":6686:6938  function givePermissionByMoH(address _address1, address _address2) public returns(bool success) {\r... */\n    tag_29:\n      callvalue\n        /* \"--CODEGEN--\":8:17   */\n      dup1\n        /* \"--CODEGEN--\":5:7   */\n      iszero\n      tag_163\n      jumpi\n        /* \"--CODEGEN--\":30:31   */\n      0x0\n        /* \"--CODEGEN--\":27:28   */\n      dup1\n        /* \"--CODEGEN--\":20:32   */\n      revert\n        /* \"--CODEGEN--\":5:7   */\n    tag_163:\n        /* \"contracts/ddddd.sol\":6686:6938  function givePermissionByMoH(address _address1, address _address2) public returns(bool success) {\r... */\n      pop\n      tag_164\n      0x4\n      dup1\n      calldatasize\n      sub\n      tag_165\n      swap2\n      swap1\n      dup2\n      add\n      swap1\n      jump(tag_151)\n    tag_165:\n      jump(tag_166)\n    tag_164:\n      mload(0x40)\n      tag_167\n      swap2\n      swap1\n      jump(tag_74)\n    tag_167:\n      mload(0x40)\n      dup1\n      swap2\n      sub\n      swap1\n      return\n        /* \"contracts/ddddd.sol\":8942:9052  function getMoHPermissionCounter() public view returns(uint256) {\r... */\n    tag_30:\n      callvalue\n        /* \"--CODEGEN--\":8:17   */\n      dup1\n        /* \"--CODEGEN--\":5:7   */\n      iszero\n      tag_168\n      jumpi\n        /* \"--CODEGEN--\":30:31   */\n      0x0\n        /* \"--CODEGEN--\":27:28   */\n      dup1\n        /* \"--CODEGEN--\":20:32   */\n      revert\n        /* \"--CODEGEN--\":5:7   */\n    tag_168:\n        /* \"contracts/ddddd.sol\":8942:9052  function getMoHPermissionCounter() public view returns(uint256) {\r... */\n      pop\n      tag_169\n      jump(tag_170)\n    tag_169:\n      mload(0x40)\n      tag_171\n      swap2\n      swap1\n      jump(tag_41)\n    tag_171:\n      mload(0x40)\n      dup1\n      swap2\n      sub\n      swap1\n      return\n        /* \"contracts/ddddd.sol\":1129:1161  address[] public vaccinationList */\n    tag_31:\n      callvalue\n        /* \"--CODEGEN--\":8:17   */\n      dup1\n        /* \"--CODEGEN--\":5:7   */\n      iszero\n      tag_172\n      jumpi\n        /* \"--CODEGEN--\":30:31   */\n      0x0\n        /* \"--CODEGEN--\":27:28   */\n      dup1\n        /* \"--CODEGEN--\":20:32   */\n      revert\n        /* \"--CODEGEN--\":5:7   */\n    tag_172:\n        /* \"contracts/ddddd.sol\":1129:1161  address[] public vaccinationList */\n      pop\n      tag_173\n      0x4\n      dup1\n      calldatasize\n      sub\n      tag_174\n      swap2\n      swap1\n      dup2\n      add\n      swap1\n      jump(tag_56)\n    tag_174:\n      jump(tag_175)\n    tag_173:\n      mload(0x40)\n      tag_176\n      swap2\n      swap1\n      jump(tag_59)\n    tag_176:\n      mload(0x40)\n      dup1\n      swap2\n      sub\n      swap1\n      return\n        /* \"contracts/ddddd.sol\":7344:7429  function getUsers() public view returns(address[]) {\r... */\n    tag_34:\n        /* \"contracts/ddddd.sol\":7384:7393  address[] */\n      0x60\n        /* \"contracts/ddddd.sol\":7413:7421  userList */\n      0x1\n        /* \"contracts/ddddd.sol\":7406:7421  return userList */\n      dup1\n      sload\n      dup1\n      0x20\n      mul\n      0x20\n      add\n      mload(0x40)\n      swap1\n      dup2\n      add\n      0x40\n      mstore\n      dup1\n      swap3\n      swap2\n      swap1\n      dup2\n      dup2\n      mstore\n      0x20\n      add\n      dup3\n      dup1\n      sload\n      dup1\n      iszero\n      tag_178\n      jumpi\n      0x20\n      mul\n      dup3\n      add\n      swap2\n      swap1\n      0x0\n      mstore\n      keccak256(0x0, 0x20)\n      swap1\n    tag_179:\n      dup2\n      0x0\n      swap1\n      sload\n      swap1\n      0x100\n      exp\n      swap1\n      div\n      0xffffffffffffffffffffffffffffffffffffffff\n      and\n      0xffffffffffffffffffffffffffffffffffffffff\n      and\n      dup2\n      mstore\n      0x20\n      add\n      swap1\n      0x1\n      add\n      swap1\n      dup1\n      dup4\n      gt\n      tag_179\n      jumpi\n    tag_178:\n      pop\n      pop\n      pop\n      pop\n      pop\n      swap1\n      pop\n        /* \"contracts/ddddd.sol\":7344:7429  function getUsers() public view returns(address[]) {\r... */\n      swap1\n      jump\t// out\n        /* \"contracts/ddddd.sol\":8822:8934  function getUserPermissionCounter() public view returns(uint256) {\r... */\n    tag_39:\n        /* \"contracts/ddddd.sol\":8878:8885  uint256 */\n      0x0\n        /* \"contracts/ddddd.sol\":8905:8926  userPermissionCounter */\n      sload(0xe)\n        /* \"contracts/ddddd.sol\":8898:8926  return userPermissionCounter */\n      swap1\n      pop\n        /* \"contracts/ddddd.sol\":8822:8934  function getUserPermissionCounter() public view returns(uint256) {\r... */\n      swap1\n      jump\t// out\n        /* \"contracts/ddddd.sol\":7540:7914  function searchUserformation(address _address) public view returns(string, string, string, string, string, string, string, address) {\r... */\n    tag_46:\n        /* \"contracts/ddddd.sol\":7607:7613  string */\n      0x60\n        /* \"contracts/ddddd.sol\":7615:7621  string */\n      dup1\n        /* \"contracts/ddddd.sol\":7623:7629  string */\n      0x60\n        /* \"contracts/ddddd.sol\":7631:7637  string */\n      dup1\n        /* \"contracts/ddddd.sol\":7639:7645  string */\n      0x60\n        /* \"contracts/ddddd.sol\":7647:7653  string */\n      dup1\n        /* \"contracts/ddddd.sol\":7655:7661  string */\n      0x60\n        /* \"contracts/ddddd.sol\":7663:7670  address */\n      0x0\n        /* \"contracts/ddddd.sol\":7735:7740  var u */\n      dup1\n        /* \"contracts/ddddd.sol\":7691:7701  isApproved */\n      0x7\n        /* \"contracts/ddddd.sol\":7691:7711  isApproved[_address] */\n      0x0\n        /* \"contracts/ddddd.sol\":7702:7710  _address */\n      dup12\n        /* \"contracts/ddddd.sol\":7691:7711  isApproved[_address] */\n      0xffffffffffffffffffffffffffffffffffffffff\n      and\n      0xffffffffffffffffffffffffffffffffffffffff\n      and\n      dup2\n      mstore\n      0x20\n      add\n      swap1\n      dup2\n      mstore\n      0x20\n      add\n      0x0\n      keccak256\n        /* \"contracts/ddddd.sol\":7691:7723  isApproved[_address][msg.sender] */\n      0x0\n        /* \"contracts/ddddd.sol\":7712:7722  msg.sender */\n      caller\n        /* \"contracts/ddddd.sol\":7691:7723  isApproved[_address][msg.sender] */\n      0xffffffffffffffffffffffffffffffffffffffff\n      and\n      0xffffffffffffffffffffffffffffffffffffffff\n      and\n      dup2\n      mstore\n      0x20\n      add\n      swap1\n      dup2\n      mstore\n      0x20\n      add\n      0x0\n      keccak256\n      0x0\n      swap1\n      sload\n      swap1\n      0x100\n      exp\n      swap1\n      div\n      0xff\n      and\n        /* \"contracts/ddddd.sol\":7683:7724  require(isApproved[_address][msg.sender]) */\n      iszero\n      iszero\n      tag_182\n      jumpi\n      0x0\n      dup1\n      revert\n    tag_182:\n        /* \"contracts/ddddd.sol\":7743:7747  user */\n      0x4\n        /* \"contracts/ddddd.sol\":7743:7757  user[_address] */\n      0x0\n        /* \"contracts/ddddd.sol\":7748:7756  _address */\n      dup12\n        /* \"contracts/ddddd.sol\":7743:7757  user[_address] */\n      0xffffffffffffffffffffffffffffffffffffffff\n      and\n      0xffffffffffffffffffffffffffffffffffffffff\n      and\n      dup2\n      mstore\n      0x20\n      add\n      swap1\n      dup2\n      mstore\n      0x20\n      add\n      0x0\n      keccak256\n        /* \"contracts/ddddd.sol\":7735:7757  var u = user[_address] */\n      swap1\n      pop\n        /* \"contracts/ddddd.sol\":7776:7777  u */\n      dup1\n        /* \"contracts/ddddd.sol\":7776:7783  u.uaeId */\n      0x0\n      add\n        /* \"contracts/ddddd.sol\":7785:7786  u */\n      dup2\n        /* \"contracts/ddddd.sol\":7785:7791  u.name */\n      0x1\n      add\n        /* \"contracts/ddddd.sol\":7793:7794  u */\n      dup3\n        /* \"contracts/ddddd.sol\":7793:7800  u.email */\n      0x6\n      add\n        /* \"contracts/ddddd.sol\":7802:7803  u */\n      dup4\n        /* \"contracts/ddddd.sol\":7802:7809  u.phone */\n      0x2\n      add\n        /* \"contracts/ddddd.sol\":7811:7812  u */\n      dup5\n        /* \"contracts/ddddd.sol\":7811:7819  u.gender */\n      0x3\n      add\n        /* \"contracts/ddddd.sol\":7821:7822  u */\n      dup6\n        /* \"contracts/ddddd.sol\":7821:7826  u.dob */\n      0x4\n      add\n        /* \"contracts/ddddd.sol\":7828:7829  u */\n      dup7\n        /* \"contracts/ddddd.sol\":7828:7834  u.addr */\n      0x5\n      add\n        /* \"contracts/ddddd.sol\":7836:7837  u */\n      dup8\n        /* \"contracts/ddddd.sol\":7836:7846  u.eAddress */\n      0x9\n      add\n      0x0\n      swap1\n      sload\n      swap1\n      0x100\n      exp\n      swap1\n      div\n      0xffffffffffffffffffffffffffffffffffffffff\n      and\n        /* \"contracts/ddddd.sol\":7768:7847  return (u.uaeId, u.name, u.email, u.phone, u.gender, u.dob, u.addr, u.eAddress) */\n      dup8\n      dup1\n      sload\n      0x1\n      dup2\n      0x1\n      and\n      iszero\n      0x100\n      mul\n      sub\n      and\n      0x2\n      swap1\n      div\n      dup1\n      0x1f\n      add\n      0x20\n      dup1\n      swap2\n      div\n      mul\n      0x20\n      add\n      mload(0x40)\n      swap1\n      dup2\n      add\n      0x40\n      mstore\n      dup1\n      swap3\n      swap2\n      swap1\n      dup2\n      dup2\n      mstore\n      0x20\n      add\n      dup3\n      dup1\n      sload\n      0x1\n      dup2\n      0x1\n      and\n      iszero\n      0x100\n      mul\n      sub\n      and\n      0x2\n      swap1\n      div\n      dup1\n      iszero\n      tag_183\n      jumpi\n      dup1\n      0x1f\n      lt\n      tag_184\n      jumpi\n      0x100\n      dup1\n      dup4\n      sload\n      div\n      mul\n      dup4\n      mstore\n      swap2\n      0x20\n      add\n      swap2\n      jump(tag_183)\n    tag_184:\n      dup3\n      add\n      swap2\n      swap1\n      0x0\n      mstore\n      keccak256(0x0, 0x20)\n      swap1\n    tag_185:\n      dup2\n      sload\n      dup2\n      mstore\n      swap1\n      0x1\n      add\n      swap1\n      0x20\n      add\n      dup1\n      dup4\n      gt\n      tag_185\n      jumpi\n      dup3\n      swap1\n      sub\n      0x1f\n      and\n      dup3\n      add\n      swap2\n    tag_183:\n      pop\n      pop\n      pop\n      pop\n      pop\n      swap8\n      pop\n      dup7\n      dup1\n      sload\n      0x1\n      dup2\n      0x1\n      and\n      iszero\n      0x100\n      mul\n      sub\n      and\n      0x2\n      swap1\n      div\n      dup1\n      0x1f\n      add\n      0x20\n      dup1\n      swap2\n      div\n      mul\n      0x20\n      add\n      mload(0x40)\n      swap1\n      dup2\n      add\n      0x40\n      mstore\n      dup1\n      swap3\n      swap2\n      swap1\n      dup2\n      dup2\n      mstore\n      0x20\n      add\n      dup3\n      dup1\n      sload\n      0x1\n      dup2\n      0x1\n      and\n      iszero\n      0x100\n      mul\n      sub\n      and\n      0x2\n      swap1\n      div\n      dup1\n      iszero\n      tag_186\n      jumpi\n      dup1\n      0x1f\n      lt\n      tag_187\n      jumpi\n      0x100\n      dup1\n      dup4\n      sload\n      div\n      mul\n      dup4\n      mstore\n      swap2\n      0x20\n      add\n      swap2\n      jump(tag_186)\n    tag_187:\n      dup3\n      add\n      swap2\n      swap1\n      0x0\n      mstore\n      keccak256(0x0, 0x20)\n      swap1\n    tag_188:\n      dup2\n      sload\n      dup2\n      mstore\n      swap1\n      0x1\n      add\n      swap1\n      0x20\n      add\n      dup1\n      dup4\n      gt\n      tag_188\n      jumpi\n      dup3\n      swap1\n      sub\n      0x1f\n      and\n      dup3\n      add\n      swap2\n    tag_186:\n      pop\n      pop\n      pop\n      pop\n      pop\n      swap7\n      pop\n      dup6\n      dup1\n      sload\n      0x1\n      dup2\n      0x1\n      and\n      iszero\n      0x100\n      mul\n      sub\n      and\n      0x2\n      swap1\n      div\n      dup1\n      0x1f\n      add\n      0x20\n      dup1\n      swap2\n      div\n      mul\n      0x20\n      add\n      mload(0x40)\n      swap1\n      dup2\n      add\n      0x40\n      mstore\n      dup1\n      swap3\n      swap2\n      swap1\n      dup2\n      dup2\n      mstore\n      0x20\n      add\n      dup3\n      dup1\n      sload\n      0x1\n      dup2\n      0x1\n      and\n      iszero\n      0x100\n      mul\n      sub\n      and\n      0x2\n      swap1\n      div\n      dup1\n      iszero\n      tag_189\n      jumpi\n      dup1\n      0x1f\n      lt\n      tag_190\n      jumpi\n      0x100\n      dup1\n      dup4\n      sload\n      div\n      mul\n      dup4\n      mstore\n      swap2\n      0x20\n      add\n      swap2\n      jump(tag_189)\n    tag_190:\n      dup3\n      add\n      swap2\n      swap1\n      0x0\n      mstore\n      keccak256(0x0, 0x20)\n      swap1\n    tag_191:\n      dup2\n      sload\n      dup2\n      mstore\n      swap1\n      0x1\n      add\n      swap1\n      0x20\n      add\n      dup1\n      dup4\n      gt\n      tag_191\n      jumpi\n      dup3\n      swap1\n      sub\n      0x1f\n      and\n      dup3\n      add\n      swap2\n    tag_189:\n      pop\n      pop\n      pop\n      pop\n      pop\n      swap6\n      pop\n      dup5\n      dup1\n      sload\n      0x1\n      dup2\n      0x1\n      and\n      iszero\n      0x100\n      mul\n      sub\n      and\n      0x2\n      swap1\n      div\n      dup1\n      0x1f\n      add\n      0x20\n      dup1\n      swap2\n      div\n      mul\n      0x20\n      add\n      mload(0x40)\n      swap1\n      dup2\n      add\n      0x40\n      mstore\n      dup1\n      swap3\n      swap2\n      swap1\n      dup2\n      dup2\n      mstore\n      0x20\n      add\n      dup3\n      dup1\n      sload\n      0x1\n      dup2\n      0x1\n      and\n      iszero\n      0x100\n      mul\n      sub\n      and\n      0x2\n      swap1\n      div\n      dup1\n      iszero\n      tag_192\n      jumpi\n      dup1\n      0x1f\n      lt\n      tag_193\n      jumpi\n      0x100\n      dup1\n      dup4\n      sload\n      div\n      mul\n      dup4\n      mstore\n      swap2\n      0x20\n      add\n      swap2\n      jump(tag_192)\n    tag_193:\n      dup3\n      add\n      swap2\n      swap1\n      0x0\n      mstore\n      keccak256(0x0, 0x20)\n      swap1\n    tag_194:\n      dup2\n      sload\n      dup2\n      mstore\n      swap1\n      0x1\n      add\n      swap1\n      0x20\n      add\n      dup1\n      dup4\n      gt\n      tag_194\n      jumpi\n      dup3\n      swap1\n      sub\n      0x1f\n      and\n      dup3\n      add\n      swap2\n    tag_192:\n      pop\n      pop\n      pop\n      pop\n      pop\n      swap5\n      pop\n      dup4\n      dup1\n      sload\n      0x1\n      dup2\n      0x1\n      and\n      iszero\n      0x100\n      mul\n      sub\n      and\n      0x2\n      swap1\n      div\n      dup1\n      0x1f\n      add\n      0x20\n      dup1\n      swap2\n      div\n      mul\n      0x20\n      add\n      mload(0x40)\n      swap1\n      dup2\n      add\n      0x40\n      mstore\n      dup1\n      swap3\n      swap2\n      swap1\n      dup2\n      dup2\n      mstore\n      0x20\n      add\n      dup3\n      dup1\n      sload\n      0x1\n      dup2\n      0x1\n      and\n      iszero\n      0x100\n      mul\n      sub\n      and\n      0x2\n      swap1\n      div\n      dup1\n      iszero\n      tag_195\n      jumpi\n      dup1\n      0x1f\n      lt\n      tag_196\n      jumpi\n      0x100\n      dup1\n      dup4\n      sload\n      div\n      mul\n      dup4\n      mstore\n      swap2\n      0x20\n      add\n      swap2\n      jump(tag_195)\n    tag_196:\n      dup3\n      add\n      swap2\n      swap1\n      0x0\n      mstore\n      keccak256(0x0, 0x20)\n      swap1\n    tag_197:\n      dup2\n      sload\n      dup2\n      mstore\n      swap1\n      0x1\n      add\n      swap1\n      0x20\n      add\n      dup1\n      dup4\n      gt\n      tag_197\n      jumpi\n      dup3\n      swap1\n      sub\n      0x1f\n      and\n      dup3\n      add\n      swap2\n    tag_195:\n      pop\n      pop\n      pop\n      pop\n      pop\n      swap4\n      pop\n      dup3\n      dup1\n      sload\n      0x1\n      dup2\n      0x1\n      and\n      iszero\n      0x100\n      mul\n      sub\n      and\n      0x2\n      swap1\n      div\n      dup1\n      0x1f\n      add\n      0x20\n      dup1\n      swap2\n      div\n      mul\n      0x20\n      add\n      mload(0x40)\n      swap1\n      dup2\n      add\n      0x40\n      mstore\n      dup1\n      swap3\n      swap2\n      swap1\n      dup2\n      dup2\n      mstore\n      0x20\n      add\n      dup3\n      dup1\n      sload\n      0x1\n      dup2\n      0x1\n      and\n      iszero\n      0x100\n      mul\n      sub\n      and\n      0x2\n      swap1\n      div\n      dup1\n      iszero\n      tag_198\n      jumpi\n      dup1\n      0x1f\n      lt\n      tag_199\n      jumpi\n      0x100\n      dup1\n      dup4\n      sload\n      div\n      mul\n      dup4\n      mstore\n      swap2\n      0x20\n      add\n      swap2\n      jump(tag_198)\n    tag_199:\n      dup3\n      add\n      swap2\n      swap1\n      0x0\n      mstore\n      keccak256(0x0, 0x20)\n      swap1\n    tag_200:\n      dup2\n      sload\n      dup2\n      mstore\n      swap1\n      0x1\n      add\n      swap1\n      0x20\n      add\n      dup1\n      dup4\n      gt\n      tag_200\n      jumpi\n      dup3\n      swap1\n      sub\n      0x1f\n      and\n      dup3\n      add\n      swap2\n    tag_198:\n      pop\n      pop\n      pop\n      pop\n      pop\n      swap3\n      pop\n      dup2\n      dup1\n      sload\n      0x1\n      dup2\n      0x1\n      and\n      iszero\n      0x100\n      mul\n      sub\n      and\n      0x2\n      swap1\n      div\n      dup1\n      0x1f\n      add\n      0x20\n      dup1\n      swap2\n      div\n      mul\n      0x20\n      add\n      mload(0x40)\n      swap1\n      dup2\n      add\n      0x40\n      mstore\n      dup1\n      swap3\n      swap2\n      swap1\n      dup2\n      dup2\n      mstore\n      0x20\n      add\n      dup3\n      dup1\n      sload\n      0x1\n      dup2\n      0x1\n      and\n      iszero\n      0x100\n      mul\n      sub\n      and\n      0x2\n      swap1\n      div\n      dup1\n      iszero\n      tag_201\n      jumpi\n      dup1\n      0x1f\n      lt\n      tag_202\n      jumpi\n      0x100\n      dup1\n      dup4\n      sload\n      div\n      mul\n      dup4\n      mstore\n      swap2\n      0x20\n      add\n      swap2\n      jump(tag_201)\n    tag_202:\n      dup3\n      add\n      swap2\n      swap1\n      0x0\n      mstore\n      keccak256(0x0, 0x20)\n      swap1\n    tag_203:\n      dup2\n      sload\n      dup2\n      mstore\n      swap1\n      0x1\n      add\n      swap1\n      0x20\n      add\n      dup1\n      dup4\n      gt\n      tag_203\n      jumpi\n      dup3\n      swap1\n      sub\n      0x1f\n      and\n      dup3\n      add\n      swap2\n    tag_201:\n      pop\n      pop\n      pop\n      pop\n      pop\n      swap2\n      pop\n      swap9\n      pop\n      swap9\n      pop\n      swap9\n      pop\n      swap9\n      pop\n      swap9\n      pop\n      swap9\n      pop\n      swap9\n      pop\n      swap9\n      pop\n        /* \"contracts/ddddd.sol\":7540:7914  function searchUserformation(address _address) public view returns(string, string, string, string, string, string, string, address) {\r... */\n      pop\n      swap2\n      swap4\n      swap6\n      swap8\n      pop\n      swap2\n      swap4\n      swap6\n      swap8\n      jump\t// out\n        /* \"contracts/ddddd.sol\":1633:1661  uint256 public userCount = 0 */\n    tag_51:\n      sload(0xb)\n      dup2\n      jump\t// out\n        /* \"contracts/ddddd.sol\":1095:1122  address[] public doctorList */\n    tag_57:\n      0x2\n      dup2\n      dup2\n      sload\n      dup2\n      lt\n      iszero\n      iszero\n      tag_204\n      jumpi\n      invalid\n    tag_204:\n      swap1\n      0x0\n      mstore\n      keccak256(0x0, 0x20)\n      add\n      0x0\n      swap2\n      pop\n      sload\n      swap1\n      0x100\n      exp\n      swap1\n      div\n      0xffffffffffffffffffffffffffffffffffffffff\n      and\n      dup2\n      jump\t// out\n        /* \"contracts/ddddd.sol\":4700:5225  function editDoctor(address _doctor, string _uaeId, string _name, string _phone, string _gender, string _email, string _qualification, string _major) public {\r... */\n    tag_64:\n        /* \"contracts/ddddd.sol\":4948:4953  var d */\n      0x0\n        /* \"contracts/ddddd.sol\":4890:4899  mohAdress */\n      0x10\n      0x0\n      swap1\n      sload\n      swap1\n      0x100\n      exp\n      swap1\n      div\n      0xffffffffffffffffffffffffffffffffffffffff\n      and\n        /* \"contracts/ddddd.sol\":4876:4899  msg.sender == mohAdress */\n      0xffffffffffffffffffffffffffffffffffffffff\n      and\n        /* \"contracts/ddddd.sol\":4876:4886  msg.sender */\n      caller\n        /* \"contracts/ddddd.sol\":4876:4899  msg.sender == mohAdress */\n      0xffffffffffffffffffffffffffffffffffffffff\n      and\n      eq\n        /* \"contracts/ddddd.sol\":4868:4900  require(msg.sender == mohAdress) */\n      iszero\n      iszero\n      tag_207\n      jumpi\n      0x0\n      dup1\n      revert\n    tag_207:\n        /* \"contracts/ddddd.sol\":4919:4927  isDoctor */\n      0x9\n        /* \"contracts/ddddd.sol\":4919:4936  isDoctor[_doctor] */\n      0x0\n        /* \"contracts/ddddd.sol\":4928:4935  _doctor */\n      dup11\n        /* \"contracts/ddddd.sol\":4919:4936  isDoctor[_doctor] */\n      0xffffffffffffffffffffffffffffffffffffffff\n      and\n      0xffffffffffffffffffffffffffffffffffffffff\n      and\n      dup2\n      mstore\n      0x20\n      add\n      swap1\n      dup2\n      mstore\n      0x20\n      add\n      0x0\n      keccak256\n      0x0\n      swap1\n      sload\n      swap1\n      0x100\n      exp\n      swap1\n      div\n      0xff\n      and\n        /* \"contracts/ddddd.sol\":4911:4937  require(isDoctor[_doctor]) */\n      iszero\n      iszero\n      tag_208\n      jumpi\n      0x0\n      dup1\n      revert\n    tag_208:\n        /* \"contracts/ddddd.sol\":4956:4962  doctor */\n      0x5\n        /* \"contracts/ddddd.sol\":4956:4971  doctor[_doctor] */\n      0x0\n        /* \"contracts/ddddd.sol\":4963:4970  _doctor */\n      dup11\n        /* \"contracts/ddddd.sol\":4956:4971  doctor[_doctor] */\n      0xffffffffffffffffffffffffffffffffffffffff\n      and\n      0xffffffffffffffffffffffffffffffffffffffff\n      and\n      dup2\n      mstore\n      0x20\n      add\n      swap1\n      dup2\n      mstore\n      0x20\n      add\n      0x0\n      keccak256\n        /* \"contracts/ddddd.sol\":4948:4971  var d = doctor[_doctor] */\n      swap1\n      pop\n        /* \"contracts/ddddd.sol\":5002:5008  _uaeId */\n      dup8\n        /* \"contracts/ddddd.sol\":4992:4993  d */\n      dup2\n        /* \"contracts/ddddd.sol\":4992:4999  d.uaeId */\n      0x0\n      add\n        /* \"contracts/ddddd.sol\":4992:5008  d.uaeId = _uaeId */\n      swap1\n      dup1\n      mload\n      swap1\n      0x20\n      add\n      swap1\n      tag_209\n      swap3\n      swap2\n      swap1\n      jump\t// in(tag_210)\n    tag_209:\n      pop\n        /* \"contracts/ddddd.sol\":5028:5033  _name */\n      dup7\n        /* \"contracts/ddddd.sol\":5019:5020  d */\n      dup2\n        /* \"contracts/ddddd.sol\":5019:5025  d.name */\n      0x1\n      add\n        /* \"contracts/ddddd.sol\":5019:5033  d.name = _name */\n      swap1\n      dup1\n      mload\n      swap1\n      0x20\n      add\n      swap1\n      tag_211\n      swap3\n      swap2\n      swap1\n      jump\t// in(tag_210)\n    tag_211:\n      pop\n        /* \"contracts/ddddd.sol\":5054:5060  _phone */\n      dup6\n        /* \"contracts/ddddd.sol\":5044:5045  d */\n      dup2\n        /* \"contracts/ddddd.sol\":5044:5051  d.phone */\n      0x2\n      add\n        /* \"contracts/ddddd.sol\":5044:5060  d.phone = _phone */\n      swap1\n      dup1\n      mload\n      swap1\n      0x20\n      add\n      swap1\n      tag_212\n      swap3\n      swap2\n      swap1\n      jump\t// in(tag_210)\n    tag_212:\n      pop\n        /* \"contracts/ddddd.sol\":5082:5089  _gender */\n      dup5\n        /* \"contracts/ddddd.sol\":5071:5072  d */\n      dup2\n        /* \"contracts/ddddd.sol\":5071:5079  d.gender */\n      0x3\n      add\n        /* \"contracts/ddddd.sol\":5071:5089  d.gender = _gender */\n      swap1\n      dup1\n      mload\n      swap1\n      0x20\n      add\n      swap1\n      tag_213\n      swap3\n      swap2\n      swap1\n      jump\t// in(tag_210)\n    tag_213:\n      pop\n        /* \"contracts/ddddd.sol\":5110:5116  _email */\n      dup4\n        /* \"contracts/ddddd.sol\":5100:5101  d */\n      dup2\n        /* \"contracts/ddddd.sol\":5100:5107  d.email */\n      0x5\n      add\n        /* \"contracts/ddddd.sol\":5100:5116  d.email = _email */\n      swap1\n      dup1\n      mload\n      swap1\n      0x20\n      add\n      swap1\n      tag_214\n      swap3\n      swap2\n      swap1\n      jump\t// in(tag_210)\n    tag_214:\n      pop\n        /* \"contracts/ddddd.sol\":5145:5159  _qualification */\n      dup3\n        /* \"contracts/ddddd.sol\":5127:5128  d */\n      dup2\n        /* \"contracts/ddddd.sol\":5127:5142  d.qualification */\n      0x6\n      add\n        /* \"contracts/ddddd.sol\":5127:5159  d.qualification = _qualification */\n      swap1\n      dup1\n      mload\n      swap1\n      0x20\n      add\n      swap1\n      tag_215\n      swap3\n      swap2\n      swap1\n      jump\t// in(tag_210)\n    tag_215:\n      pop\n        /* \"contracts/ddddd.sol\":5180:5186  _major */\n      dup2\n        /* \"contracts/ddddd.sol\":5170:5171  d */\n      dup2\n        /* \"contracts/ddddd.sol\":5170:5177  d.major */\n      0x7\n      add\n        /* \"contracts/ddddd.sol\":5170:5186  d.major = _major */\n      swap1\n      dup1\n      mload\n      swap1\n      0x20\n      add\n      swap1\n      tag_216\n      swap3\n      swap2\n      swap1\n      jump\t// in(tag_210)\n    tag_216:\n      pop\n        /* \"contracts/ddddd.sol\":5210:5217  _doctor */\n      dup9\n        /* \"contracts/ddddd.sol\":5197:5198  d */\n      dup2\n        /* \"contracts/ddddd.sol\":5197:5207  d.eAddress */\n      0x8\n      add\n      0x0\n        /* \"contracts/ddddd.sol\":5197:5217  d.eAddress = _doctor */\n      0x100\n      exp\n      dup2\n      sload\n      dup2\n      0xffffffffffffffffffffffffffffffffffffffff\n      mul\n      not\n      and\n      swap1\n      dup4\n      0xffffffffffffffffffffffffffffffffffffffff\n      and\n      mul\n      or\n      swap1\n      sstore\n      pop\n        /* \"contracts/ddddd.sol\":4700:5225  function editDoctor(address _doctor, string _uaeId, string _name, string _phone, string _gender, string _email, string _qualification, string _major) public {\r... */\n      pop\n      pop\n      pop\n      pop\n      pop\n      pop\n      pop\n      pop\n      pop\n      jump\t// out\n        /* \"contracts/ddddd.sol\":3925:4692  function doctorRegistration(address _doctor, string _uaeId, string _name, string _phone, string _gender, string _email, string _qualification, string _major) public {\r... */\n    tag_68:\n        /* \"contracts/ddddd.sol\":4182:4187  var d */\n      0x0\n        /* \"contracts/ddddd.sol\":4123:4132  mohAdress */\n      0x10\n      0x0\n      swap1\n      sload\n      swap1\n      0x100\n      exp\n      swap1\n      div\n      0xffffffffffffffffffffffffffffffffffffffff\n      and\n        /* \"contracts/ddddd.sol\":4109:4132  msg.sender == mohAdress */\n      0xffffffffffffffffffffffffffffffffffffffff\n      and\n        /* \"contracts/ddddd.sol\":4109:4119  msg.sender */\n      caller\n        /* \"contracts/ddddd.sol\":4109:4132  msg.sender == mohAdress */\n      0xffffffffffffffffffffffffffffffffffffffff\n      and\n      eq\n        /* \"contracts/ddddd.sol\":4101:4133  require(msg.sender == mohAdress) */\n      iszero\n      iszero\n      tag_218\n      jumpi\n      0x0\n      dup1\n      revert\n    tag_218:\n        /* \"contracts/ddddd.sol\":4153:4161  isDoctor */\n      0x9\n        /* \"contracts/ddddd.sol\":4153:4170  isDoctor[_doctor] */\n      0x0\n        /* \"contracts/ddddd.sol\":4162:4169  _doctor */\n      dup11\n        /* \"contracts/ddddd.sol\":4153:4170  isDoctor[_doctor] */\n      0xffffffffffffffffffffffffffffffffffffffff\n      and\n      0xffffffffffffffffffffffffffffffffffffffff\n      and\n      dup2\n      mstore\n      0x20\n      add\n      swap1\n      dup2\n      mstore\n      0x20\n      add\n      0x0\n      keccak256\n      0x0\n      swap1\n      sload\n      swap1\n      0x100\n      exp\n      swap1\n      div\n      0xff\n      and\n        /* \"contracts/ddddd.sol\":4152:4170  !isDoctor[_doctor] */\n      iszero\n        /* \"contracts/ddddd.sol\":4144:4171  require(!isDoctor[_doctor]) */\n      iszero\n      iszero\n      tag_219\n      jumpi\n      0x0\n      dup1\n      revert\n    tag_219:\n        /* \"contracts/ddddd.sol\":4190:4196  doctor */\n      0x5\n        /* \"contracts/ddddd.sol\":4190:4205  doctor[_doctor] */\n      0x0\n        /* \"contracts/ddddd.sol\":4197:4204  _doctor */\n      dup11\n        /* \"contracts/ddddd.sol\":4190:4205  doctor[_doctor] */\n      0xffffffffffffffffffffffffffffffffffffffff\n      and\n      0xffffffffffffffffffffffffffffffffffffffff\n      and\n      dup2\n      mstore\n      0x20\n      add\n      swap1\n      dup2\n      mstore\n      0x20\n      add\n      0x0\n      keccak256\n        /* \"contracts/ddddd.sol\":4182:4205  var d = doctor[_doctor] */\n      swap1\n      pop\n        /* \"contracts/ddddd.sol\":4236:4242  _uaeId */\n      dup8\n        /* \"contracts/ddddd.sol\":4226:4227  d */\n      dup2\n        /* \"contracts/ddddd.sol\":4226:4233  d.uaeId */\n      0x0\n      add\n        /* \"contracts/ddddd.sol\":4226:4242  d.uaeId = _uaeId */\n      swap1\n      dup1\n      mload\n      swap1\n      0x20\n      add\n      swap1\n      tag_220\n      swap3\n      swap2\n      swap1\n      jump\t// in(tag_210)\n    tag_220:\n      pop\n        /* \"contracts/ddddd.sol\":4262:4267  _name */\n      dup7\n        /* \"contracts/ddddd.sol\":4253:4254  d */\n      dup2\n        /* \"contracts/ddddd.sol\":4253:4259  d.name */\n      0x1\n      add\n        /* \"contracts/ddddd.sol\":4253:4267  d.name = _name */\n      swap1\n      dup1\n      mload\n      swap1\n      0x20\n      add\n      swap1\n      tag_221\n      swap3\n      swap2\n      swap1\n      jump\t// in(tag_210)\n    tag_221:\n      pop\n        /* \"contracts/ddddd.sol\":4288:4294  _phone */\n      dup6\n        /* \"contracts/ddddd.sol\":4278:4279  d */\n      dup2\n        /* \"contracts/ddddd.sol\":4278:4285  d.phone */\n      0x2\n      add\n        /* \"contracts/ddddd.sol\":4278:4294  d.phone = _phone */\n      swap1\n      dup1\n      mload\n      swap1\n      0x20\n      add\n      swap1\n      tag_222\n      swap3\n      swap2\n      swap1\n      jump\t// in(tag_210)\n    tag_222:\n      pop\n        /* \"contracts/ddddd.sol\":4316:4323  _gender */\n      dup5\n        /* \"contracts/ddddd.sol\":4305:4306  d */\n      dup2\n        /* \"contracts/ddddd.sol\":4305:4313  d.gender */\n      0x3\n      add\n        /* \"contracts/ddddd.sol\":4305:4323  d.gender = _gender */\n      swap1\n      dup1\n      mload\n      swap1\n      0x20\n      add\n      swap1\n      tag_223\n      swap3\n      swap2\n      swap1\n      jump\t// in(tag_210)\n    tag_223:\n      pop\n        /* \"contracts/ddddd.sol\":4344:4350  _email */\n      dup4\n        /* \"contracts/ddddd.sol\":4334:4335  d */\n      dup2\n        /* \"contracts/ddddd.sol\":4334:4341  d.email */\n      0x5\n      add\n        /* \"contracts/ddddd.sol\":4334:4350  d.email = _email */\n      swap1\n      dup1\n      mload\n      swap1\n      0x20\n      add\n      swap1\n      tag_224\n      swap3\n      swap2\n      swap1\n      jump\t// in(tag_210)\n    tag_224:\n      pop\n        /* \"contracts/ddddd.sol\":4379:4393  _qualification */\n      dup3\n        /* \"contracts/ddddd.sol\":4361:4362  d */\n      dup2\n        /* \"contracts/ddddd.sol\":4361:4376  d.qualification */\n      0x6\n      add\n        /* \"contracts/ddddd.sol\":4361:4393  d.qualification = _qualification */\n      swap1\n      dup1\n      mload\n      swap1\n      0x20\n      add\n      swap1\n      tag_225\n      swap3\n      swap2\n      swap1\n      jump\t// in(tag_210)\n    tag_225:\n      pop\n        /* \"contracts/ddddd.sol\":4414:4420  _major */\n      dup2\n        /* \"contracts/ddddd.sol\":4404:4405  d */\n      dup2\n        /* \"contracts/ddddd.sol\":4404:4411  d.major */\n      0x7\n      add\n        /* \"contracts/ddddd.sol\":4404:4420  d.major = _major */\n      swap1\n      dup1\n      mload\n      swap1\n      0x20\n      add\n      swap1\n      tag_226\n      swap3\n      swap2\n      swap1\n      jump\t// in(tag_210)\n    tag_226:\n      pop\n        /* \"contracts/ddddd.sol\":4444:4451  _doctor */\n      dup9\n        /* \"contracts/ddddd.sol\":4431:4432  d */\n      dup2\n        /* \"contracts/ddddd.sol\":4431:4441  d.eAddress */\n      0x8\n      add\n      0x0\n        /* \"contracts/ddddd.sol\":4431:4451  d.eAddress = _doctor */\n      0x100\n      exp\n      dup2\n      sload\n      dup2\n      0xffffffffffffffffffffffffffffffffffffffff\n      mul\n      not\n      and\n      swap1\n      dup4\n      0xffffffffffffffffffffffffffffffffffffffff\n      and\n      mul\n      or\n      swap1\n      sstore\n      pop\n        /* \"contracts/ddddd.sol\":4471:4486  block.timestamp */\n      timestamp\n        /* \"contracts/ddddd.sol\":4462:4463  d */\n      dup2\n        /* \"contracts/ddddd.sol\":4462:4468  d.date */\n      0x9\n      add\n        /* \"contracts/ddddd.sol\":4462:4486  d.date = block.timestamp */\n      dup2\n      swap1\n      sstore\n      pop\n        /* \"contracts/ddddd.sol\":4507:4517  doctorList */\n      0x2\n        /* \"contracts/ddddd.sol\":4523:4530  _doctor */\n      dup10\n        /* \"contracts/ddddd.sol\":4507:4531  doctorList.push(_doctor) */\n      swap1\n      dup1\n        /* \"--CODEGEN--\":39:40   */\n      0x1\n        /* \"--CODEGEN--\":33:36   */\n      dup2\n        /* \"--CODEGEN--\":27:37   */\n      sload\n        /* \"--CODEGEN--\":23:41   */\n      add\n        /* \"--CODEGEN--\":57:67   */\n      dup1\n        /* \"--CODEGEN--\":52:55   */\n      dup3\n        /* \"--CODEGEN--\":45:68   */\n      sstore\n        /* \"--CODEGEN--\":79:89   */\n      dup1\n        /* \"--CODEGEN--\":72:89   */\n      swap2\n      pop\n        /* \"--CODEGEN--\":0:93   */\n      pop\n        /* \"contracts/ddddd.sol\":4507:4531  doctorList.push(_doctor) */\n      swap1\n      0x1\n      dup3\n      sub\n      swap1\n      0x0\n      mstore\n      keccak256(0x0, 0x20)\n      add\n      0x0\n      swap1\n      swap2\n      swap3\n      swap1\n      swap2\n      swap1\n      swap2\n      0x100\n      exp\n      dup2\n      sload\n      dup2\n      0xffffffffffffffffffffffffffffffffffffffff\n      mul\n      not\n      and\n      swap1\n      dup4\n      0xffffffffffffffffffffffffffffffffffffffff\n      and\n      mul\n      or\n      swap1\n      sstore\n      pop\n      pop\n        /* \"contracts/ddddd.sol\":4562:4566  true */\n      0x1\n        /* \"contracts/ddddd.sol\":4542:4550  isDoctor */\n      0x9\n        /* \"contracts/ddddd.sol\":4542:4559  isDoctor[_doctor] */\n      0x0\n        /* \"contracts/ddddd.sol\":4551:4558  _doctor */\n      dup12\n        /* \"contracts/ddddd.sol\":4542:4559  isDoctor[_doctor] */\n      0xffffffffffffffffffffffffffffffffffffffff\n      and\n      0xffffffffffffffffffffffffffffffffffffffff\n      and\n      dup2\n      mstore\n      0x20\n      add\n      swap1\n      dup2\n      mstore\n      0x20\n      add\n      0x0\n      keccak256\n      0x0\n        /* \"contracts/ddddd.sol\":4542:4566  isDoctor[_doctor] = true */\n      0x100\n      exp\n      dup2\n      sload\n      dup2\n      0xff\n      mul\n      not\n      and\n      swap1\n      dup4\n      iszero\n      iszero\n      mul\n      or\n      swap1\n      sstore\n      pop\n        /* \"contracts/ddddd.sol\":4608:4612  true */\n      0x1\n        /* \"contracts/ddddd.sol\":4577:4587  isApproved */\n      0x7\n        /* \"contracts/ddddd.sol\":4577:4596  isApproved[_doctor] */\n      0x0\n        /* \"contracts/ddddd.sol\":4588:4595  _doctor */\n      dup12\n        /* \"contracts/ddddd.sol\":4577:4596  isApproved[_doctor] */\n      0xffffffffffffffffffffffffffffffffffffffff\n      and\n      0xffffffffffffffffffffffffffffffffffffffff\n      and\n      dup2\n      mstore\n      0x20\n      add\n      swap1\n      dup2\n      mstore\n      0x20\n      add\n      0x0\n      keccak256\n        /* \"contracts/ddddd.sol\":4577:4605  isApproved[_doctor][_doctor] */\n      0x0\n        /* \"contracts/ddddd.sol\":4597:4604  _doctor */\n      dup12\n        /* \"contracts/ddddd.sol\":4577:4605  isApproved[_doctor][_doctor] */\n      0xffffffffffffffffffffffffffffffffffffffff\n      and\n      0xffffffffffffffffffffffffffffffffffffffff\n      and\n      dup2\n      mstore\n      0x20\n      add\n      swap1\n      dup2\n      mstore\n      0x20\n      add\n      0x0\n      keccak256\n      0x0\n        /* \"contracts/ddddd.sol\":4577:4612  isApproved[_doctor][_doctor] = true */\n      0x100\n      exp\n      dup2\n      sload\n      dup2\n      0xff\n      mul\n      not\n      and\n      swap1\n      dup4\n      iszero\n      iszero\n      mul\n      or\n      swap1\n      sstore\n      pop\n        /* \"contracts/ddddd.sol\":4656:4660  true */\n      0x1\n        /* \"contracts/ddddd.sol\":4623:4633  isApproved */\n      0x7\n        /* \"contracts/ddddd.sol\":4623:4642  isApproved[_doctor] */\n      0x0\n        /* \"contracts/ddddd.sol\":4634:4641  _doctor */\n      dup12\n        /* \"contracts/ddddd.sol\":4623:4642  isApproved[_doctor] */\n      0xffffffffffffffffffffffffffffffffffffffff\n      and\n      0xffffffffffffffffffffffffffffffffffffffff\n      and\n      dup2\n      mstore\n      0x20\n      add\n      swap1\n      dup2\n      mstore\n      0x20\n      add\n      0x0\n      keccak256\n        /* \"contracts/ddddd.sol\":4623:4653  isApproved[_doctor][mohAdress] */\n      0x0\n        /* \"contracts/ddddd.sol\":4643:4652  mohAdress */\n      0x10\n      0x0\n      swap1\n      sload\n      swap1\n      0x100\n      exp\n      swap1\n      div\n      0xffffffffffffffffffffffffffffffffffffffff\n      and\n        /* \"contracts/ddddd.sol\":4623:4653  isApproved[_doctor][mohAdress] */\n      0xffffffffffffffffffffffffffffffffffffffff\n      and\n      0xffffffffffffffffffffffffffffffffffffffff\n      and\n      dup2\n      mstore\n      0x20\n      add\n      swap1\n      dup2\n      mstore\n      0x20\n      add\n      0x0\n      keccak256\n      0x0\n        /* \"contracts/ddddd.sol\":4623:4660  isApproved[_doctor][mohAdress] = true */\n      0x100\n      exp\n      dup2\n      sload\n      dup2\n      0xff\n      mul\n      not\n      and\n      swap1\n      dup4\n      iszero\n      iszero\n      mul\n      or\n      swap1\n      sstore\n      pop\n        /* \"contracts/ddddd.sol\":4671:4682  doctorCount */\n      0xc\n      0x0\n        /* \"contracts/ddddd.sol\":4671:4684  doctorCount++ */\n      dup2\n      sload\n      dup1\n      swap3\n      swap2\n      swap1\n      0x1\n      add\n      swap2\n      swap1\n      pop\n      sstore\n      pop\n        /* \"contracts/ddddd.sol\":3925:4692  function doctorRegistration(address _doctor, string _uaeId, string _name, string _phone, string _gender, string _email, string _qualification, string _major) public {\r... */\n      pop\n      pop\n      pop\n      pop\n      pop\n      pop\n      pop\n      pop\n      pop\n      jump\t// out\n        /* \"contracts/ddddd.sol\":1933:2163  function ownerAddress(address _admin) public view returns(bool) {\r... */\n    tag_72:\n        /* \"contracts/ddddd.sol\":1991:1995  bool */\n      0x0\n        /* \"contracts/ddddd.sol\":2008:2021  address admin */\n      dup1\n        /* \"contracts/ddddd.sol\":2024:2030  _admin */\n      dup3\n        /* \"contracts/ddddd.sol\":2008:2030  address admin = _admin */\n      swap1\n      pop\n        /* \"contracts/ddddd.sol\":2054:2063  mohAdress */\n      0x10\n      0x0\n      swap1\n      sload\n      swap1\n      0x100\n      exp\n      swap1\n      div\n      0xffffffffffffffffffffffffffffffffffffffff\n      and\n        /* \"contracts/ddddd.sol\":2045:2063  admin == mohAdress */\n      0xffffffffffffffffffffffffffffffffffffffff\n      and\n        /* \"contracts/ddddd.sol\":2045:2050  admin */\n      dup2\n        /* \"contracts/ddddd.sol\":2045:2063  admin == mohAdress */\n      0xffffffffffffffffffffffffffffffffffffffff\n      and\n      eq\n        /* \"contracts/ddddd.sol\":2041:2156  if (admin == mohAdress){\r... */\n      iszero\n      tag_229\n      jumpi\n        /* \"contracts/ddddd.sol\":2086:2090  true */\n      0x1\n        /* \"contracts/ddddd.sol\":2079:2090  return true */\n      swap2\n      pop\n      jump(tag_228)\n        /* \"contracts/ddddd.sol\":2041:2156  if (admin == mohAdress){\r... */\n    tag_229:\n        /* \"contracts/ddddd.sol\":2139:2144  false */\n      0x0\n        /* \"contracts/ddddd.sol\":2132:2144  return false */\n      swap2\n      pop\n        /* \"contracts/ddddd.sol\":1933:2163  function ownerAddress(address _admin) public view returns(bool) {\r... */\n    tag_228:\n      pop\n      swap2\n      swap1\n      pop\n      jump\t// out\n        /* \"contracts/ddddd.sol\":6487:6678  function givePermissionByUser(address _address) public returns(bool success) {\r... */\n    tag_78:\n        /* \"contracts/ddddd.sol\":6550:6562  bool success */\n      0x0\n        /* \"contracts/ddddd.sol\":6610:6614  true */\n      0x1\n        /* \"contracts/ddddd.sol\":6575:6585  isApproved */\n      0x7\n        /* \"contracts/ddddd.sol\":6575:6597  isApproved[msg.sender] */\n      0x0\n        /* \"contracts/ddddd.sol\":6586:6596  msg.sender */\n      caller\n        /* \"contracts/ddddd.sol\":6575:6597  isApproved[msg.sender] */\n      0xffffffffffffffffffffffffffffffffffffffff\n      and\n      0xffffffffffffffffffffffffffffffffffffffff\n      and\n      dup2\n      mstore\n      0x20\n      add\n      swap1\n      dup2\n      mstore\n      0x20\n      add\n      0x0\n      keccak256\n        /* \"contracts/ddddd.sol\":6575:6607  isApproved[msg.sender][_address] */\n      0x0\n        /* \"contracts/ddddd.sol\":6598:6606  _address */\n      dup5\n        /* \"contracts/ddddd.sol\":6575:6607  isApproved[msg.sender][_address] */\n      0xffffffffffffffffffffffffffffffffffffffff\n      and\n      0xffffffffffffffffffffffffffffffffffffffff\n      and\n      dup2\n      mstore\n      0x20\n      add\n      swap1\n      dup2\n      mstore\n      0x20\n      add\n      0x0\n      keccak256\n      0x0\n        /* \"contracts/ddddd.sol\":6575:6614  isApproved[msg.sender][_address] = true */\n      0x100\n      exp\n      dup2\n      sload\n      dup2\n      0xff\n      mul\n      not\n      and\n      swap1\n      dup4\n      iszero\n      iszero\n      mul\n      or\n      swap1\n      sstore\n      pop\n        /* \"contracts/ddddd.sol\":6625:6646  userPermissionCounter */\n      0xe\n      0x0\n        /* \"contracts/ddddd.sol\":6625:6648  userPermissionCounter++ */\n      dup2\n      sload\n      dup1\n      swap3\n      swap2\n      swap1\n      0x1\n      add\n      swap2\n      swap1\n      pop\n      sstore\n      pop\n        /* \"contracts/ddddd.sol\":6666:6670  true */\n      0x1\n        /* \"contracts/ddddd.sol\":6659:6670  return true */\n      swap1\n      pop\n        /* \"contracts/ddddd.sol\":6487:6678  function givePermissionByUser(address _address) public returns(bool success) {\r... */\n      swap2\n      swap1\n      pop\n      jump\t// out\n        /* \"contracts/ddddd.sol\":5233:6125  function createVaccineRecord(address _address1, address _doctor, string _name, string _vaccine, string _description, string _typeOfVaccine, uint _creationDate) public returns(bool success) {\r... */\n    tag_84:\n        /* \"contracts/ddddd.sol\":5408:5420  bool success */\n      0x0\n        /* \"contracts/ddddd.sol\":5637:5642  var v */\n      dup1\n        /* \"contracts/ddddd.sol\":5455:5464  mohAdress */\n      0x10\n      0x0\n      swap1\n      sload\n      swap1\n      0x100\n      exp\n      swap1\n      div\n      0xffffffffffffffffffffffffffffffffffffffff\n      and\n        /* \"contracts/ddddd.sol\":5441:5464  msg.sender == mohAdress */\n      0xffffffffffffffffffffffffffffffffffffffff\n      and\n        /* \"contracts/ddddd.sol\":5441:5451  msg.sender */\n      caller\n        /* \"contracts/ddddd.sol\":5441:5464  msg.sender == mohAdress */\n      0xffffffffffffffffffffffffffffffffffffffff\n      and\n      eq\n        /* \"contracts/ddddd.sol\":5433:5465  require(msg.sender == mohAdress) */\n      iszero\n      iszero\n      tag_233\n      jumpi\n      0x0\n      dup1\n      revert\n    tag_233:\n        /* \"contracts/ddddd.sol\":5605:5614  isVaccine */\n      0xa\n        /* \"contracts/ddddd.sol\":5605:5625  isVaccine[_address1] */\n      0x0\n        /* \"contracts/ddddd.sol\":5615:5624  _address1 */\n      dup11\n        /* \"contracts/ddddd.sol\":5605:5625  isVaccine[_address1] */\n      0xffffffffffffffffffffffffffffffffffffffff\n      and\n      0xffffffffffffffffffffffffffffffffffffffff\n      and\n      dup2\n      mstore\n      0x20\n      add\n      swap1\n      dup2\n      mstore\n      0x20\n      add\n      0x0\n      keccak256\n      0x0\n      swap1\n      sload\n      swap1\n      0x100\n      exp\n      swap1\n      div\n      0xff\n      and\n        /* \"contracts/ddddd.sol\":5604:5625  !isVaccine[_address1] */\n      iszero\n        /* \"contracts/ddddd.sol\":5596:5626  require(!isVaccine[_address1]) */\n      iszero\n      iszero\n      tag_234\n      jumpi\n      0x0\n      dup1\n      revert\n    tag_234:\n        /* \"contracts/ddddd.sol\":5645:5656  vaccination */\n      0x6\n        /* \"contracts/ddddd.sol\":5645:5667  vaccination[_address1] */\n      0x0\n        /* \"contracts/ddddd.sol\":5657:5666  _address1 */\n      dup11\n        /* \"contracts/ddddd.sol\":5645:5667  vaccination[_address1] */\n      0xffffffffffffffffffffffffffffffffffffffff\n      and\n      0xffffffffffffffffffffffffffffffffffffffff\n      and\n      dup2\n      mstore\n      0x20\n      add\n      swap1\n      dup2\n      mstore\n      0x20\n      add\n      0x0\n      keccak256\n        /* \"contracts/ddddd.sol\":5637:5667  var v = vaccination[_address1] */\n      swap1\n      pop\n        /* \"contracts/ddddd.sol\":5689:5694  _name */\n      dup7\n        /* \"contracts/ddddd.sol\":5680:5681  v */\n      dup2\n        /* \"contracts/ddddd.sol\":5680:5686  v.name */\n      0x0\n      add\n        /* \"contracts/ddddd.sol\":5680:5694  v.name = _name */\n      swap1\n      dup1\n      mload\n      swap1\n      0x20\n      add\n      swap1\n      tag_235\n      swap3\n      swap2\n      swap1\n      jump\t// in(tag_210)\n    tag_235:\n      pop\n        /* \"contracts/ddddd.sol\":5717:5725  _vaccine */\n      dup6\n        /* \"contracts/ddddd.sol\":5705:5706  v */\n      dup2\n        /* \"contracts/ddddd.sol\":5705:5714  v.vaccine */\n      0x1\n      add\n        /* \"contracts/ddddd.sol\":5705:5725  v.vaccine = _vaccine */\n      swap1\n      dup1\n      mload\n      swap1\n      0x20\n      add\n      swap1\n      tag_236\n      swap3\n      swap2\n      swap1\n      jump\t// in(tag_210)\n    tag_236:\n      pop\n        /* \"contracts/ddddd.sol\":5752:5764  _description */\n      dup5\n        /* \"contracts/ddddd.sol\":5736:5737  v */\n      dup2\n        /* \"contracts/ddddd.sol\":5736:5749  v.description */\n      0x2\n      add\n        /* \"contracts/ddddd.sol\":5736:5764  v.description = _description */\n      swap1\n      dup1\n      mload\n      swap1\n      0x20\n      add\n      swap1\n      tag_237\n      swap3\n      swap2\n      swap1\n      jump\t// in(tag_210)\n    tag_237:\n      pop\n        /* \"contracts/ddddd.sol\":5793:5807  _typeOfVaccine */\n      dup4\n        /* \"contracts/ddddd.sol\":5775:5776  v */\n      dup2\n        /* \"contracts/ddddd.sol\":5775:5790  v.typeOfVaccine */\n      0x3\n      add\n        /* \"contracts/ddddd.sol\":5775:5807  v.typeOfVaccine = _typeOfVaccine */\n      swap1\n      dup1\n      mload\n      swap1\n      0x20\n      add\n      swap1\n      tag_238\n      swap3\n      swap2\n      swap1\n      jump\t// in(tag_210)\n    tag_238:\n      pop\n        /* \"contracts/ddddd.sol\":5948:5961  _creationDate */\n      dup3\n        /* \"contracts/ddddd.sol\":5931:5932  v */\n      dup2\n        /* \"contracts/ddddd.sol\":5931:5945  v.creationDate */\n      0x4\n      add\n        /* \"contracts/ddddd.sol\":5931:5961  v.creationDate = _creationDate */\n      dup2\n      swap1\n      sstore\n      pop\n        /* \"contracts/ddddd.sol\":5989:5998  _address1 */\n      dup9\n        /* \"contracts/ddddd.sol\":5972:5973  v */\n      dup2\n        /* \"contracts/ddddd.sol\":5972:5986  v.userEadderss */\n      0x5\n      add\n      0x0\n        /* \"contracts/ddddd.sol\":5972:5998  v.userEadderss = _address1 */\n      0x100\n      exp\n      dup2\n      sload\n      dup2\n      0xffffffffffffffffffffffffffffffffffffffff\n      mul\n      not\n      and\n      swap1\n      dup4\n      0xffffffffffffffffffffffffffffffffffffffff\n      and\n      mul\n      or\n      swap1\n      sstore\n      pop\n        /* \"contracts/ddddd.sol\":6028:6035  _doctor */\n      dup8\n        /* \"contracts/ddddd.sol\":6009:6010  v */\n      dup2\n        /* \"contracts/ddddd.sol\":6009:6025  v.doctorEaddress */\n      0x6\n      add\n      0x0\n        /* \"contracts/ddddd.sol\":6009:6035  v.doctorEaddress = _doctor */\n      0x100\n      exp\n      dup2\n      sload\n      dup2\n      0xffffffffffffffffffffffffffffffffffffffff\n      mul\n      not\n      and\n      swap1\n      dup4\n      0xffffffffffffffffffffffffffffffffffffffff\n      and\n      mul\n      or\n      swap1\n      sstore\n      pop\n        /* \"contracts/ddddd.sol\":6048:6063  vaccinationList */\n      0x3\n        /* \"contracts/ddddd.sol\":6069:6078  _address1 */\n      dup10\n        /* \"contracts/ddddd.sol\":6048:6079  vaccinationList.push(_address1) */\n      swap1\n      dup1\n        /* \"--CODEGEN--\":39:40   */\n      0x1\n        /* \"--CODEGEN--\":33:36   */\n      dup2\n        /* \"--CODEGEN--\":27:37   */\n      sload\n        /* \"--CODEGEN--\":23:41   */\n      add\n        /* \"--CODEGEN--\":57:67   */\n      dup1\n        /* \"--CODEGEN--\":52:55   */\n      dup3\n        /* \"--CODEGEN--\":45:68   */\n      sstore\n        /* \"--CODEGEN--\":79:89   */\n      dup1\n        /* \"--CODEGEN--\":72:89   */\n      swap2\n      pop\n        /* \"--CODEGEN--\":0:93   */\n      pop\n        /* \"contracts/ddddd.sol\":6048:6079  vaccinationList.push(_address1) */\n      swap1\n      0x1\n      dup3\n      sub\n      swap1\n      0x0\n      mstore\n      keccak256(0x0, 0x20)\n      add\n      0x0\n      swap1\n      swap2\n      swap3\n      swap1\n      swap2\n      swap1\n      swap2\n      0x100\n      exp\n      dup2\n      sload\n      dup2\n      0xffffffffffffffffffffffffffffffffffffffff\n      mul\n      not\n      and\n      swap1\n      dup4\n      0xffffffffffffffffffffffffffffffffffffffff\n      and\n      mul\n      or\n      swap1\n      sstore\n      pop\n      pop\n        /* \"contracts/ddddd.sol\":6090:6115  vaccinationRecordsCounter */\n      0xf\n      0x0\n        /* \"contracts/ddddd.sol\":6090:6117  vaccinationRecordsCounter++ */\n      dup2\n      sload\n      dup1\n      swap3\n      swap2\n      swap1\n      0x1\n      add\n      swap2\n      swap1\n      pop\n      sstore\n      pop\n        /* \"contracts/ddddd.sol\":5233:6125  function createVaccineRecord(address _address1, address _doctor, string _name, string _vaccine, string _description, string _typeOfVaccine, uint _creationDate) public returns(bool success) {\r... */\n      pop\n      swap8\n      swap7\n      pop\n      pop\n      pop\n      pop\n      pop\n      pop\n      pop\n      jump\t// out\n        /* \"contracts/ddddd.sol\":6948:7106  function userRevokePermission(address _address) public returns(bool success) {\r... */\n    tag_89:\n        /* \"contracts/ddddd.sol\":7011:7023  bool success */\n      0x0\n        /* \"contracts/ddddd.sol\":7071:7076  false */\n      dup1\n        /* \"contracts/ddddd.sol\":7036:7046  isApproved */\n      0x7\n        /* \"contracts/ddddd.sol\":7036:7058  isApproved[msg.sender] */\n      0x0\n        /* \"contracts/ddddd.sol\":7047:7057  msg.sender */\n      caller\n        /* \"contracts/ddddd.sol\":7036:7058  isApproved[msg.sender] */\n      0xffffffffffffffffffffffffffffffffffffffff\n      and\n      0xffffffffffffffffffffffffffffffffffffffff\n      and\n      dup2\n      mstore\n      0x20\n      add\n      swap1\n      dup2\n      mstore\n      0x20\n      add\n      0x0\n      keccak256\n        /* \"contracts/ddddd.sol\":7036:7068  isApproved[msg.sender][_address] */\n      0x0\n        /* \"contracts/ddddd.sol\":7059:7067  _address */\n      dup5\n        /* \"contracts/ddddd.sol\":7036:7068  isApproved[msg.sender][_address] */\n      0xffffffffffffffffffffffffffffffffffffffff\n      and\n      0xffffffffffffffffffffffffffffffffffffffff\n      and\n      dup2\n      mstore\n      0x20\n      add\n      swap1\n      dup2\n      mstore\n      0x20\n      add\n      0x0\n      keccak256\n      0x0\n        /* \"contracts/ddddd.sol\":7036:7076  isApproved[msg.sender][_address] = false */\n      0x100\n      exp\n      dup2\n      sload\n      dup2\n      0xff\n      mul\n      not\n      and\n      swap1\n      dup4\n      iszero\n      iszero\n      mul\n      or\n      swap1\n      sstore\n      pop\n        /* \"contracts/ddddd.sol\":7094:7098  true */\n      0x1\n        /* \"contracts/ddddd.sol\":7087:7098  return true */\n      swap1\n      pop\n        /* \"contracts/ddddd.sol\":6948:7106  function userRevokePermission(address _address) public returns(bool success) {\r... */\n      swap2\n      swap1\n      pop\n      jump\t// out\n        /* \"contracts/ddddd.sol\":2175:3284  function userRegistration(address _user, string _uaeId, string _name, string _phone, string _gender, string _dob, string _addr, string _email, string _nomineeName, string _nomineeContact) public {\r... */\n    tag_95:\n        /* \"contracts/ddddd.sol\":2458:2463  var u */\n      0x0\n        /* \"contracts/ddddd.sol\":2403:2412  mohAdress */\n      0x10\n      0x0\n      swap1\n      sload\n      swap1\n      0x100\n      exp\n      swap1\n      div\n      0xffffffffffffffffffffffffffffffffffffffff\n      and\n        /* \"contracts/ddddd.sol\":2389:2412  msg.sender == mohAdress */\n      0xffffffffffffffffffffffffffffffffffffffff\n      and\n        /* \"contracts/ddddd.sol\":2389:2399  msg.sender */\n      caller\n        /* \"contracts/ddddd.sol\":2389:2412  msg.sender == mohAdress */\n      0xffffffffffffffffffffffffffffffffffffffff\n      and\n      eq\n        /* \"contracts/ddddd.sol\":2381:2413  require(msg.sender == mohAdress) */\n      iszero\n      iszero\n      tag_242\n      jumpi\n      0x0\n      dup1\n      revert\n    tag_242:\n        /* \"contracts/ddddd.sol\":2433:2439  isUser */\n      0x8\n        /* \"contracts/ddddd.sol\":2433:2446  isUser[_user] */\n      0x0\n        /* \"contracts/ddddd.sol\":2440:2445  _user */\n      dup13\n        /* \"contracts/ddddd.sol\":2433:2446  isUser[_user] */\n      0xffffffffffffffffffffffffffffffffffffffff\n      and\n      0xffffffffffffffffffffffffffffffffffffffff\n      and\n      dup2\n      mstore\n      0x20\n      add\n      swap1\n      dup2\n      mstore\n      0x20\n      add\n      0x0\n      keccak256\n      0x0\n      swap1\n      sload\n      swap1\n      0x100\n      exp\n      swap1\n      div\n      0xff\n      and\n        /* \"contracts/ddddd.sol\":2432:2446  !isUser[_user] */\n      iszero\n        /* \"contracts/ddddd.sol\":2424:2447  require(!isUser[_user]) */\n      iszero\n      iszero\n      tag_243\n      jumpi\n      0x0\n      dup1\n      revert\n    tag_243:\n        /* \"contracts/ddddd.sol\":2466:2470  user */\n      0x4\n        /* \"contracts/ddddd.sol\":2466:2477  user[_user] */\n      0x0\n        /* \"contracts/ddddd.sol\":2471:2476  _user */\n      dup13\n        /* \"contracts/ddddd.sol\":2466:2477  user[_user] */\n      0xffffffffffffffffffffffffffffffffffffffff\n      and\n      0xffffffffffffffffffffffffffffffffffffffff\n      and\n      dup2\n      mstore\n      0x20\n      add\n      swap1\n      dup2\n      mstore\n      0x20\n      add\n      0x0\n      keccak256\n        /* \"contracts/ddddd.sol\":2458:2477  var u = user[_user] */\n      swap1\n      pop\n        /* \"contracts/ddddd.sol\":2508:2514  _uaeId */\n      dup10\n        /* \"contracts/ddddd.sol\":2498:2499  u */\n      dup2\n        /* \"contracts/ddddd.sol\":2498:2505  u.uaeId */\n      0x0\n      add\n        /* \"contracts/ddddd.sol\":2498:2514  u.uaeId = _uaeId */\n      swap1\n      dup1\n      mload\n      swap1\n      0x20\n      add\n      swap1\n      tag_244\n      swap3\n      swap2\n      swap1\n      jump\t// in(tag_210)\n    tag_244:\n      pop\n        /* \"contracts/ddddd.sol\":2534:2539  _name */\n      dup9\n        /* \"contracts/ddddd.sol\":2525:2526  u */\n      dup2\n        /* \"contracts/ddddd.sol\":2525:2531  u.name */\n      0x1\n      add\n        /* \"contracts/ddddd.sol\":2525:2539  u.name = _name */\n      swap1\n      dup1\n      mload\n      swap1\n      0x20\n      add\n      swap1\n      tag_245\n      swap3\n      swap2\n      swap1\n      jump\t// in(tag_210)\n    tag_245:\n      pop\n        /* \"contracts/ddddd.sol\":2560:2566  _phone */\n      dup8\n        /* \"contracts/ddddd.sol\":2550:2551  u */\n      dup2\n        /* \"contracts/ddddd.sol\":2550:2557  u.phone */\n      0x2\n      add\n        /* \"contracts/ddddd.sol\":2550:2566  u.phone = _phone */\n      swap1\n      dup1\n      mload\n      swap1\n      0x20\n      add\n      swap1\n      tag_246\n      swap3\n      swap2\n      swap1\n      jump\t// in(tag_210)\n    tag_246:\n      pop\n        /* \"contracts/ddddd.sol\":2588:2595  _gender */\n      dup7\n        /* \"contracts/ddddd.sol\":2577:2578  u */\n      dup2\n        /* \"contracts/ddddd.sol\":2577:2585  u.gender */\n      0x3\n      add\n        /* \"contracts/ddddd.sol\":2577:2595  u.gender = _gender */\n      swap1\n      dup1\n      mload\n      swap1\n      0x20\n      add\n      swap1\n      tag_247\n      swap3\n      swap2\n      swap1\n      jump\t// in(tag_210)\n    tag_247:\n      pop\n        /* \"contracts/ddddd.sol\":2614:2618  _dob */\n      dup6\n        /* \"contracts/ddddd.sol\":2606:2607  u */\n      dup2\n        /* \"contracts/ddddd.sol\":2606:2611  u.dob */\n      0x4\n      add\n        /* \"contracts/ddddd.sol\":2606:2618  u.dob = _dob */\n      swap1\n      dup1\n      mload\n      swap1\n      0x20\n      add\n      swap1\n      tag_248\n      swap3\n      swap2\n      swap1\n      jump\t// in(tag_210)\n    tag_248:\n      pop\n        /* \"contracts/ddddd.sol\":2638:2643  _addr */\n      dup5\n        /* \"contracts/ddddd.sol\":2629:2630  u */\n      dup2\n        /* \"contracts/ddddd.sol\":2629:2635  u.addr */\n      0x5\n      add\n        /* \"contracts/ddddd.sol\":2629:2643  u.addr = _addr */\n      swap1\n      dup1\n      mload\n      swap1\n      0x20\n      add\n      swap1\n      tag_249\n      swap3\n      swap2\n      swap1\n      jump\t// in(tag_210)\n    tag_249:\n      pop\n        /* \"contracts/ddddd.sol\":2664:2670  _email */\n      dup4\n        /* \"contracts/ddddd.sol\":2654:2655  u */\n      dup2\n        /* \"contracts/ddddd.sol\":2654:2661  u.email */\n      0x6\n      add\n        /* \"contracts/ddddd.sol\":2654:2670  u.email = _email */\n      swap1\n      dup1\n      mload\n      swap1\n      0x20\n      add\n      swap1\n      tag_250\n      swap3\n      swap2\n      swap1\n      jump\t// in(tag_210)\n    tag_250:\n      pop\n        /* \"contracts/ddddd.sol\":2697:2709  _nomineeName */\n      dup3\n        /* \"contracts/ddddd.sol\":2681:2682  u */\n      dup2\n        /* \"contracts/ddddd.sol\":2681:2694  u.nomineeName */\n      0x7\n      add\n        /* \"contracts/ddddd.sol\":2681:2709  u.nomineeName = _nomineeName */\n      swap1\n      dup1\n      mload\n      swap1\n      0x20\n      add\n      swap1\n      tag_251\n      swap3\n      swap2\n      swap1\n      jump\t// in(tag_210)\n    tag_251:\n      pop\n        /* \"contracts/ddddd.sol\":2739:2754  _nomineeContact */\n      dup2\n        /* \"contracts/ddddd.sol\":2720:2721  u */\n      dup2\n        /* \"contracts/ddddd.sol\":2720:2736  u.nomineeContact */\n      0x8\n      add\n        /* \"contracts/ddddd.sol\":2720:2754  u.nomineeContact = _nomineeContact */\n      swap1\n      dup1\n      mload\n      swap1\n      0x20\n      add\n      swap1\n      tag_252\n      swap3\n      swap2\n      swap1\n      jump\t// in(tag_210)\n    tag_252:\n      pop\n        /* \"contracts/ddddd.sol\":2778:2783  _user */\n      dup11\n        /* \"contracts/ddddd.sol\":2765:2766  u */\n      dup2\n        /* \"contracts/ddddd.sol\":2765:2775  u.eAddress */\n      0x9\n      add\n      0x0\n        /* \"contracts/ddddd.sol\":2765:2783  u.eAddress = _user */\n      0x100\n      exp\n      dup2\n      sload\n      dup2\n      0xffffffffffffffffffffffffffffffffffffffff\n      mul\n      not\n      and\n      swap1\n      dup4\n      0xffffffffffffffffffffffffffffffffffffffff\n      and\n      mul\n      or\n      swap1\n      sstore\n      pop\n        /* \"contracts/ddddd.sol\":2803:2818  block.timestamp */\n      timestamp\n        /* \"contracts/ddddd.sol\":2794:2795  u */\n      dup2\n        /* \"contracts/ddddd.sol\":2794:2800  u.date */\n      0xa\n      add\n        /* \"contracts/ddddd.sol\":2794:2818  u.date = block.timestamp */\n      dup2\n      swap1\n      sstore\n      pop\n        /* \"contracts/ddddd.sol\":2839:2847  userList */\n      0x1\n        /* \"contracts/ddddd.sol\":2853:2858  _user */\n      dup12\n        /* \"contracts/ddddd.sol\":2839:2859  userList.push(_user) */\n      swap1\n      dup1\n        /* \"--CODEGEN--\":39:40   */\n      0x1\n        /* \"--CODEGEN--\":33:36   */\n      dup2\n        /* \"--CODEGEN--\":27:37   */\n      sload\n        /* \"--CODEGEN--\":23:41   */\n      add\n        /* \"--CODEGEN--\":57:67   */\n      dup1\n        /* \"--CODEGEN--\":52:55   */\n      dup3\n        /* \"--CODEGEN--\":45:68   */\n      sstore\n        /* \"--CODEGEN--\":79:89   */\n      dup1\n        /* \"--CODEGEN--\":72:89   */\n      swap2\n      pop\n        /* \"--CODEGEN--\":0:93   */\n      pop\n        /* \"contracts/ddddd.sol\":2839:2859  userList.push(_user) */\n      swap1\n      0x1\n      dup3\n      sub\n      swap1\n      0x0\n      mstore\n      keccak256(0x0, 0x20)\n      add\n      0x0\n      swap1\n      swap2\n      swap3\n      swap1\n      swap2\n      swap1\n      swap2\n      0x100\n      exp\n      dup2\n      sload\n      dup2\n      0xffffffffffffffffffffffffffffffffffffffff\n      mul\n      not\n      and\n      swap1\n      dup4\n      0xffffffffffffffffffffffffffffffffffffffff\n      and\n      mul\n      or\n      swap1\n      sstore\n      pop\n      pop\n        /* \"contracts/ddddd.sol\":2886:2890  true */\n      0x1\n        /* \"contracts/ddddd.sol\":2870:2876  isUser */\n      0x8\n        /* \"contracts/ddddd.sol\":2870:2883  isUser[_user] */\n      0x0\n        /* \"contracts/ddddd.sol\":2877:2882  _user */\n      dup14\n        /* \"contracts/ddddd.sol\":2870:2883  isUser[_user] */\n      0xffffffffffffffffffffffffffffffffffffffff\n      and\n      0xffffffffffffffffffffffffffffffffffffffff\n      and\n      dup2\n      mstore\n      0x20\n      add\n      swap1\n      dup2\n      mstore\n      0x20\n      add\n      0x0\n      keccak256\n      0x0\n        /* \"contracts/ddddd.sol\":2870:2890  isUser[_user] = true */\n      0x100\n      exp\n      dup2\n      sload\n      dup2\n      0xff\n      mul\n      not\n      and\n      swap1\n      dup4\n      iszero\n      iszero\n      mul\n      or\n      swap1\n      sstore\n      pop\n        /* \"contracts/ddddd.sol\":2928:2932  true */\n      0x1\n        /* \"contracts/ddddd.sol\":2901:2911  isApproved */\n      0x7\n        /* \"contracts/ddddd.sol\":2901:2918  isApproved[_user] */\n      0x0\n        /* \"contracts/ddddd.sol\":2912:2917  _user */\n      dup14\n        /* \"contracts/ddddd.sol\":2901:2918  isApproved[_user] */\n      0xffffffffffffffffffffffffffffffffffffffff\n      and\n      0xffffffffffffffffffffffffffffffffffffffff\n      and\n      dup2\n      mstore\n      0x20\n      add\n      swap1\n      dup2\n      mstore\n      0x20\n      add\n      0x0\n      keccak256\n        /* \"contracts/ddddd.sol\":2901:2925  isApproved[_user][_user] */\n      0x0\n        /* \"contracts/ddddd.sol\":2919:2924  _user */\n      dup14\n        /* \"contracts/ddddd.sol\":2901:2925  isApproved[_user][_user] */\n      0xffffffffffffffffffffffffffffffffffffffff\n      and\n      0xffffffffffffffffffffffffffffffffffffffff\n      and\n      dup2\n      mstore\n      0x20\n      add\n      swap1\n      dup2\n      mstore\n      0x20\n      add\n      0x0\n      keccak256\n      0x0\n        /* \"contracts/ddddd.sol\":2901:2932  isApproved[_user][_user] = true */\n      0x100\n      exp\n      dup2\n      sload\n      dup2\n      0xff\n      mul\n      not\n      and\n      swap1\n      dup4\n      iszero\n      iszero\n      mul\n      or\n      swap1\n      sstore\n      pop\n        /* \"contracts/ddddd.sol\":2974:2978  true */\n      0x1\n        /* \"contracts/ddddd.sol\":2943:2953  isApproved */\n      0x7\n        /* \"contracts/ddddd.sol\":2943:2960  isApproved[_user] */\n      0x0\n        /* \"contracts/ddddd.sol\":2954:2959  _user */\n      dup14\n        /* \"contracts/ddddd.sol\":2943:2960  isApproved[_user] */\n      0xffffffffffffffffffffffffffffffffffffffff\n      and\n      0xffffffffffffffffffffffffffffffffffffffff\n      and\n      dup2\n      mstore\n      0x20\n      add\n      swap1\n      dup2\n      mstore\n      0x20\n      add\n      0x0\n      keccak256\n        /* \"contracts/ddddd.sol\":2943:2971  isApproved[_user][mohAdress] */\n      0x0\n        /* \"contracts/ddddd.sol\":2961:2970  mohAdress */\n      0x10\n      0x0\n      swap1\n      sload\n      swap1\n      0x100\n      exp\n      swap1\n      div\n      0xffffffffffffffffffffffffffffffffffffffff\n      and\n        /* \"contracts/ddddd.sol\":2943:2971  isApproved[_user][mohAdress] */\n      0xffffffffffffffffffffffffffffffffffffffff\n      and\n      0xffffffffffffffffffffffffffffffffffffffff\n      and\n      dup2\n      mstore\n      0x20\n      add\n      swap1\n      dup2\n      mstore\n      0x20\n      add\n      0x0\n      keccak256\n      0x0\n        /* \"contracts/ddddd.sol\":2943:2978  isApproved[_user][mohAdress] = true */\n      0x100\n      exp\n      dup2\n      sload\n      dup2\n      0xff\n      mul\n      not\n      and\n      swap1\n      dup4\n      iszero\n      iszero\n      mul\n      or\n      swap1\n      sstore\n      pop\n        /* \"contracts/ddddd.sol\":2989:2998  userCount */\n      0xb\n      0x0\n        /* \"contracts/ddddd.sol\":2989:3000  userCount++ */\n      dup2\n      sload\n      dup1\n      swap3\n      swap2\n      swap1\n      0x1\n      add\n      swap2\n      swap1\n      pop\n      sstore\n      pop\n        /* \"contracts/ddddd.sol\":2175:3284  function userRegistration(address _user, string _uaeId, string _name, string _phone, string _gender, string _dob, string _addr, string _email, string _nomineeName, string _nomineeContact) public {\r... */\n      pop\n      pop\n      pop\n      pop\n      pop\n      pop\n      pop\n      pop\n      pop\n      pop\n      pop\n      jump\t// out\n        /* \"contracts/ddddd.sol\":3308:3917  function editUser(address _user, string _uaeId, string _name, string _phone, string _gender, string _dob, string _addr, string _email, string _nomineeName, string _nomineeContact) public {\r... */\n    tag_99:\n        /* \"contracts/ddddd.sol\":3582:3587  var u */\n      0x0\n        /* \"contracts/ddddd.sol\":3528:3537  mohAdress */\n      0x10\n      0x0\n      swap1\n      sload\n      swap1\n      0x100\n      exp\n      swap1\n      div\n      0xffffffffffffffffffffffffffffffffffffffff\n      and\n        /* \"contracts/ddddd.sol\":3514:3537  msg.sender == mohAdress */\n      0xffffffffffffffffffffffffffffffffffffffff\n      and\n        /* \"contracts/ddddd.sol\":3514:3524  msg.sender */\n      caller\n        /* \"contracts/ddddd.sol\":3514:3537  msg.sender == mohAdress */\n      0xffffffffffffffffffffffffffffffffffffffff\n      and\n      eq\n        /* \"contracts/ddddd.sol\":3506:3538  require(msg.sender == mohAdress) */\n      iszero\n      iszero\n      tag_255\n      jumpi\n      0x0\n      dup1\n      revert\n    tag_255:\n        /* \"contracts/ddddd.sol\":3557:3563  isUser */\n      0x8\n        /* \"contracts/ddddd.sol\":3557:3570  isUser[_user] */\n      0x0\n        /* \"contracts/ddddd.sol\":3564:3569  _user */\n      dup13\n        /* \"contracts/ddddd.sol\":3557:3570  isUser[_user] */\n      0xffffffffffffffffffffffffffffffffffffffff\n      and\n      0xffffffffffffffffffffffffffffffffffffffff\n      and\n      dup2\n      mstore\n      0x20\n      add\n      swap1\n      dup2\n      mstore\n      0x20\n      add\n      0x0\n      keccak256\n      0x0\n      swap1\n      sload\n      swap1\n      0x100\n      exp\n      swap1\n      div\n      0xff\n      and\n        /* \"contracts/ddddd.sol\":3549:3571  require(isUser[_user]) */\n      iszero\n      iszero\n      tag_256\n      jumpi\n      0x0\n      dup1\n      revert\n    tag_256:\n        /* \"contracts/ddddd.sol\":3590:3594  user */\n      0x4\n        /* \"contracts/ddddd.sol\":3590:3601  user[_user] */\n      0x0\n        /* \"contracts/ddddd.sol\":3595:3600  _user */\n      dup13\n        /* \"contracts/ddddd.sol\":3590:3601  user[_user] */\n      0xffffffffffffffffffffffffffffffffffffffff\n      and\n      0xffffffffffffffffffffffffffffffffffffffff\n      and\n      dup2\n      mstore\n      0x20\n      add\n      swap1\n      dup2\n      mstore\n      0x20\n      add\n      0x0\n      keccak256\n        /* \"contracts/ddddd.sol\":3582:3601  var u = user[_user] */\n      swap1\n      pop\n        /* \"contracts/ddddd.sol\":3632:3638  _uaeId */\n      dup10\n        /* \"contracts/ddddd.sol\":3622:3623  u */\n      dup2\n        /* \"contracts/ddddd.sol\":3622:3629  u.uaeId */\n      0x0\n      add\n        /* \"contracts/ddddd.sol\":3622:3638  u.uaeId = _uaeId */\n      swap1\n      dup1\n      mload\n      swap1\n      0x20\n      add\n      swap1\n      tag_257\n      swap3\n      swap2\n      swap1\n      jump\t// in(tag_210)\n    tag_257:\n      pop\n        /* \"contracts/ddddd.sol\":3658:3663  _name */\n      dup9\n        /* \"contracts/ddddd.sol\":3649:3650  u */\n      dup2\n        /* \"contracts/ddddd.sol\":3649:3655  u.name */\n      0x1\n      add\n        /* \"contracts/ddddd.sol\":3649:3663  u.name = _name */\n      swap1\n      dup1\n      mload\n      swap1\n      0x20\n      add\n      swap1\n      tag_258\n      swap3\n      swap2\n      swap1\n      jump\t// in(tag_210)\n    tag_258:\n      pop\n        /* \"contracts/ddddd.sol\":3684:3690  _phone */\n      dup8\n        /* \"contracts/ddddd.sol\":3674:3675  u */\n      dup2\n        /* \"contracts/ddddd.sol\":3674:3681  u.phone */\n      0x2\n      add\n        /* \"contracts/ddddd.sol\":3674:3690  u.phone = _phone */\n      swap1\n      dup1\n      mload\n      swap1\n      0x20\n      add\n      swap1\n      tag_259\n      swap3\n      swap2\n      swap1\n      jump\t// in(tag_210)\n    tag_259:\n      pop\n        /* \"contracts/ddddd.sol\":3712:3719  _gender */\n      dup7\n        /* \"contracts/ddddd.sol\":3701:3702  u */\n      dup2\n        /* \"contracts/ddddd.sol\":3701:3709  u.gender */\n      0x3\n      add\n        /* \"contracts/ddddd.sol\":3701:3719  u.gender = _gender */\n      swap1\n      dup1\n      mload\n      swap1\n      0x20\n      add\n      swap1\n      tag_260\n      swap3\n      swap2\n      swap1\n      jump\t// in(tag_210)\n    tag_260:\n      pop\n        /* \"contracts/ddddd.sol\":3738:3742  _dob */\n      dup6\n        /* \"contracts/ddddd.sol\":3730:3731  u */\n      dup2\n        /* \"contracts/ddddd.sol\":3730:3735  u.dob */\n      0x4\n      add\n        /* \"contracts/ddddd.sol\":3730:3742  u.dob = _dob */\n      swap1\n      dup1\n      mload\n      swap1\n      0x20\n      add\n      swap1\n      tag_261\n      swap3\n      swap2\n      swap1\n      jump\t// in(tag_210)\n    tag_261:\n      pop\n        /* \"contracts/ddddd.sol\":3762:3767  _addr */\n      dup5\n        /* \"contracts/ddddd.sol\":3753:3754  u */\n      dup2\n        /* \"contracts/ddddd.sol\":3753:3759  u.addr */\n      0x5\n      add\n        /* \"contracts/ddddd.sol\":3753:3767  u.addr = _addr */\n      swap1\n      dup1\n      mload\n      swap1\n      0x20\n      add\n      swap1\n      tag_262\n      swap3\n      swap2\n      swap1\n      jump\t// in(tag_210)\n    tag_262:\n      pop\n        /* \"contracts/ddddd.sol\":3788:3794  _email */\n      dup4\n        /* \"contracts/ddddd.sol\":3778:3779  u */\n      dup2\n        /* \"contracts/ddddd.sol\":3778:3785  u.email */\n      0x6\n      add\n        /* \"contracts/ddddd.sol\":3778:3794  u.email = _email */\n      swap1\n      dup1\n      mload\n      swap1\n      0x20\n      add\n      swap1\n      tag_263\n      swap3\n      swap2\n      swap1\n      jump\t// in(tag_210)\n    tag_263:\n      pop\n        /* \"contracts/ddddd.sol\":3821:3833  _nomineeName */\n      dup3\n        /* \"contracts/ddddd.sol\":3805:3806  u */\n      dup2\n        /* \"contracts/ddddd.sol\":3805:3818  u.nomineeName */\n      0x7\n      add\n        /* \"contracts/ddddd.sol\":3805:3833  u.nomineeName = _nomineeName */\n      swap1\n      dup1\n      mload\n      swap1\n      0x20\n      add\n      swap1\n      tag_264\n      swap3\n      swap2\n      swap1\n      jump\t// in(tag_210)\n    tag_264:\n      pop\n        /* \"contracts/ddddd.sol\":3863:3878  _nomineeContact */\n      dup2\n        /* \"contracts/ddddd.sol\":3844:3845  u */\n      dup2\n        /* \"contracts/ddddd.sol\":3844:3860  u.nomineeContact */\n      0x8\n      add\n        /* \"contracts/ddddd.sol\":3844:3878  u.nomineeContact = _nomineeContact */\n      swap1\n      dup1\n      mload\n      swap1\n      0x20\n      add\n      swap1\n      tag_265\n      swap3\n      swap2\n      swap1\n      jump\t// in(tag_210)\n    tag_265:\n      pop\n        /* \"contracts/ddddd.sol\":3902:3907  _user */\n      dup11\n        /* \"contracts/ddddd.sol\":3889:3890  u */\n      dup2\n        /* \"contracts/ddddd.sol\":3889:3899  u.eAddress */\n      0x9\n      add\n      0x0\n        /* \"contracts/ddddd.sol\":3889:3907  u.eAddress = _user */\n      0x100\n      exp\n      dup2\n      sload\n      dup2\n      0xffffffffffffffffffffffffffffffffffffffff\n      mul\n      not\n      and\n      swap1\n      dup4\n      0xffffffffffffffffffffffffffffffffffffffff\n      and\n      mul\n      or\n      swap1\n      sstore\n      pop\n        /* \"contracts/ddddd.sol\":3308:3917  function editUser(address _user, string _uaeId, string _name, string _phone, string _gender, string _dob, string _addr, string _email, string _nomineeName, string _nomineeContact) public {\r... */\n      pop\n      pop\n      pop\n      pop\n      pop\n      pop\n      pop\n      pop\n      pop\n      pop\n      pop\n      jump\t// out\n        /* \"contracts/ddddd.sol\":1668:1698  uint256 public doctorCount = 0 */\n    tag_102:\n      sload(0xc)\n      dup2\n      jump\t// out\n        /* \"contracts/ddddd.sol\":8716:8808  function getDoctorCount() public view returns(uint256) {\r... */\n    tag_106:\n        /* \"contracts/ddddd.sol\":8762:8769  uint256 */\n      0x0\n        /* \"contracts/ddddd.sol\":8789:8800  doctorCount */\n      sload(0xc)\n        /* \"contracts/ddddd.sol\":8782:8800  return doctorCount */\n      swap1\n      pop\n        /* \"contracts/ddddd.sol\":8716:8808  function getDoctorCount() public view returns(uint256) {\r... */\n      swap1\n      jump\t// out\n        /* \"contracts/ddddd.sol\":9060:9366  function checkDoctor(address _address) public view returns(bool success) {\r... */\n    tag_111:\n        /* \"contracts/ddddd.sol\":9119:9131  bool success */\n      0x0\n        /* \"contracts/ddddd.sol\":9149:9155  uint i */\n      dup1\n        /* \"contracts/ddddd.sol\":9158:9159  0 */\n      0x0\n        /* \"contracts/ddddd.sol\":9149:9159  uint i = 0 */\n      swap1\n      pop\n        /* \"contracts/ddddd.sol\":9165:9175  doctorList */\n      0x2\n        /* \"contracts/ddddd.sol\":9165:9182  doctorList.length */\n      dup1\n      sload\n      swap1\n      pop\n        /* \"contracts/ddddd.sol\":9161:9162  i */\n      dup2\n        /* \"contracts/ddddd.sol\":9161:9182  i < doctorList.length */\n      lt\n        /* \"contracts/ddddd.sol\":9144:9359  for (uint i = 0; i < doctorList.length; i++) {\r... */\n      iszero\n      tag_269\n      jumpi\n        /* \"contracts/ddddd.sol\":9230:9234  true */\n      0x1\n        /* \"contracts/ddddd.sol\":9208:9234  isDoctor[_address] == true */\n      iszero\n      iszero\n        /* \"contracts/ddddd.sol\":9208:9216  isDoctor */\n      0x9\n        /* \"contracts/ddddd.sol\":9208:9226  isDoctor[_address] */\n      0x0\n        /* \"contracts/ddddd.sol\":9217:9225  _address */\n      dup6\n        /* \"contracts/ddddd.sol\":9208:9226  isDoctor[_address] */\n      0xffffffffffffffffffffffffffffffffffffffff\n      and\n      0xffffffffffffffffffffffffffffffffffffffff\n      and\n      dup2\n      mstore\n      0x20\n      add\n      swap1\n      dup2\n      mstore\n      0x20\n      add\n      0x0\n      keccak256\n      0x0\n      swap1\n      sload\n      swap1\n      0x100\n      exp\n      swap1\n      div\n      0xff\n      and\n        /* \"contracts/ddddd.sol\":9208:9234  isDoctor[_address] == true */\n      iszero\n      iszero\n      eq\n        /* \"contracts/ddddd.sol\":9204:9348  if (isDoctor[_address] == true) {\r... */\n      iszero\n      tag_271\n      jumpi\n        /* \"contracts/ddddd.sol\":9262:9266  true */\n      0x1\n        /* \"contracts/ddddd.sol\":9255:9266  return true */\n      swap2\n      pop\n      jump(tag_267)\n        /* \"contracts/ddddd.sol\":9204:9348  if (isDoctor[_address] == true) {\r... */\n    tag_271:\n        /* \"contracts/ddddd.sol\":9327:9332  false */\n      0x0\n        /* \"contracts/ddddd.sol\":9320:9332  return false */\n      swap2\n      pop\n      jump(tag_267)\n        /* \"contracts/ddddd.sol\":9144:9359  for (uint i = 0; i < doctorList.length; i++) {\r... */\n    tag_269:\n        /* \"contracts/ddddd.sol\":9060:9366  function checkDoctor(address _address) public view returns(bool success) {\r... */\n    tag_267:\n      pop\n      swap2\n      swap1\n      pop\n      jump\t// out\n        /* \"contracts/ddddd.sol\":6133:6477  function getVaccinationInfo(address _address) public view returns(string, string, string, string, uint256, address, address) {\r... */\n    tag_116:\n        /* \"contracts/ddddd.sol\":6199:6205  string */\n      0x60\n        /* \"contracts/ddddd.sol\":6207:6213  string */\n      dup1\n        /* \"contracts/ddddd.sol\":6215:6221  string */\n      0x60\n        /* \"contracts/ddddd.sol\":6223:6229  string */\n      dup1\n        /* \"contracts/ddddd.sol\":6231:6238  uint256 */\n      0x0\n        /* \"contracts/ddddd.sol\":6240:6247  address */\n      dup1\n        /* \"contracts/ddddd.sol\":6249:6256  address */\n      0x0\n        /* \"contracts/ddddd.sol\":6321:6326  var v */\n      dup1\n        /* \"contracts/ddddd.sol\":6277:6287  isApproved */\n      0x7\n        /* \"contracts/ddddd.sol\":6277:6297  isApproved[_address] */\n      0x0\n        /* \"contracts/ddddd.sol\":6288:6296  _address */\n      dup11\n        /* \"contracts/ddddd.sol\":6277:6297  isApproved[_address] */\n      0xffffffffffffffffffffffffffffffffffffffff\n      and\n      0xffffffffffffffffffffffffffffffffffffffff\n      and\n      dup2\n      mstore\n      0x20\n      add\n      swap1\n      dup2\n      mstore\n      0x20\n      add\n      0x0\n      keccak256\n        /* \"contracts/ddddd.sol\":6277:6309  isApproved[_address][msg.sender] */\n      0x0\n        /* \"contracts/ddddd.sol\":6298:6308  msg.sender */\n      caller\n        /* \"contracts/ddddd.sol\":6277:6309  isApproved[_address][msg.sender] */\n      0xffffffffffffffffffffffffffffffffffffffff\n      and\n      0xffffffffffffffffffffffffffffffffffffffff\n      and\n      dup2\n      mstore\n      0x20\n      add\n      swap1\n      dup2\n      mstore\n      0x20\n      add\n      0x0\n      keccak256\n      0x0\n      swap1\n      sload\n      swap1\n      0x100\n      exp\n      swap1\n      div\n      0xff\n      and\n        /* \"contracts/ddddd.sol\":6269:6310  require(isApproved[_address][msg.sender]) */\n      iszero\n      iszero\n      tag_274\n      jumpi\n      0x0\n      dup1\n      revert\n    tag_274:\n        /* \"contracts/ddddd.sol\":6329:6340  vaccination */\n      0x6\n        /* \"contracts/ddddd.sol\":6329:6350  vaccination[_address] */\n      0x0\n        /* \"contracts/ddddd.sol\":6341:6349  _address */\n      dup11\n        /* \"contracts/ddddd.sol\":6329:6350  vaccination[_address] */\n      0xffffffffffffffffffffffffffffffffffffffff\n      and\n      0xffffffffffffffffffffffffffffffffffffffff\n      and\n      dup2\n      mstore\n      0x20\n      add\n      swap1\n      dup2\n      mstore\n      0x20\n      add\n      0x0\n      keccak256\n        /* \"contracts/ddddd.sol\":6321:6350  var v = vaccination[_address] */\n      swap1\n      pop\n        /* \"contracts/ddddd.sol\":6369:6370  v */\n      dup1\n        /* \"contracts/ddddd.sol\":6369:6378  v.vaccine */\n      0x1\n      add\n        /* \"contracts/ddddd.sol\":6380:6381  v */\n      dup2\n        /* \"contracts/ddddd.sol\":6380:6386  v.name */\n      0x0\n      add\n        /* \"contracts/ddddd.sol\":6388:6389  v */\n      dup3\n        /* \"contracts/ddddd.sol\":6388:6401  v.description */\n      0x2\n      add\n        /* \"contracts/ddddd.sol\":6403:6404  v */\n      dup4\n        /* \"contracts/ddddd.sol\":6403:6418  v.typeOfVaccine */\n      0x3\n      add\n        /* \"contracts/ddddd.sol\":6420:6421  v */\n      dup5\n        /* \"contracts/ddddd.sol\":6420:6434  v.creationDate */\n      0x4\n      add\n      sload\n        /* \"contracts/ddddd.sol\":6436:6437  v */\n      dup6\n        /* \"contracts/ddddd.sol\":6436:6450  v.userEadderss */\n      0x5\n      add\n      0x0\n      swap1\n      sload\n      swap1\n      0x100\n      exp\n      swap1\n      div\n      0xffffffffffffffffffffffffffffffffffffffff\n      and\n        /* \"contracts/ddddd.sol\":6452:6453  v */\n      dup7\n        /* \"contracts/ddddd.sol\":6452:6468  v.doctorEaddress */\n      0x6\n      add\n      0x0\n      swap1\n      sload\n      swap1\n      0x100\n      exp\n      swap1\n      div\n      0xffffffffffffffffffffffffffffffffffffffff\n      and\n        /* \"contracts/ddddd.sol\":6361:6469  return (v.vaccine, v.name, v.description, v.typeOfVaccine, v.creationDate, v.userEadderss, v.doctorEaddress) */\n      dup7\n      dup1\n      sload\n      0x1\n      dup2\n      0x1\n      and\n      iszero\n      0x100\n      mul\n      sub\n      and\n      0x2\n      swap1\n      div\n      dup1\n      0x1f\n      add\n      0x20\n      dup1\n      swap2\n      div\n      mul\n      0x20\n      add\n      mload(0x40)\n      swap1\n      dup2\n      add\n      0x40\n      mstore\n      dup1\n      swap3\n      swap2\n      swap1\n      dup2\n      dup2\n      mstore\n      0x20\n      add\n      dup3\n      dup1\n      sload\n      0x1\n      dup2\n      0x1\n      and\n      iszero\n      0x100\n      mul\n      sub\n      and\n      0x2\n      swap1\n      div\n      dup1\n      iszero\n      tag_275\n      jumpi\n      dup1\n      0x1f\n      lt\n      tag_276\n      jumpi\n      0x100\n      dup1\n      dup4\n      sload\n      div\n      mul\n      dup4\n      mstore\n      swap2\n      0x20\n      add\n      swap2\n      jump(tag_275)\n    tag_276:\n      dup3\n      add\n      swap2\n      swap1\n      0x0\n      mstore\n      keccak256(0x0, 0x20)\n      swap1\n    tag_277:\n      dup2\n      sload\n      dup2\n      mstore\n      swap1\n      0x1\n      add\n      swap1\n      0x20\n      add\n      dup1\n      dup4\n      gt\n      tag_277\n      jumpi\n      dup3\n      swap1\n      sub\n      0x1f\n      and\n      dup3\n      add\n      swap2\n    tag_275:\n      pop\n      pop\n      pop\n      pop\n      pop\n      swap7\n      pop\n      dup6\n      dup1\n      sload\n      0x1\n      dup2\n      0x1\n      and\n      iszero\n      0x100\n      mul\n      sub\n      and\n      0x2\n      swap1\n      div\n      dup1\n      0x1f\n      add\n      0x20\n      dup1\n      swap2\n      div\n      mul\n      0x20\n      add\n      mload(0x40)\n      swap1\n      dup2\n      add\n      0x40\n      mstore\n      dup1\n      swap3\n      swap2\n      swap1\n      dup2\n      dup2\n      mstore\n      0x20\n      add\n      dup3\n      dup1\n      sload\n      0x1\n      dup2\n      0x1\n      and\n      iszero\n      0x100\n      mul\n      sub\n      and\n      0x2\n      swap1\n      div\n      dup1\n      iszero\n      tag_278\n      jumpi\n      dup1\n      0x1f\n      lt\n      tag_279\n      jumpi\n      0x100\n      dup1\n      dup4\n      sload\n      div\n      mul\n      dup4\n      mstore\n      swap2\n      0x20\n      add\n      swap2\n      jump(tag_278)\n    tag_279:\n      dup3\n      add\n      swap2\n      swap1\n      0x0\n      mstore\n      keccak256(0x0, 0x20)\n      swap1\n    tag_280:\n      dup2\n      sload\n      dup2\n      mstore\n      swap1\n      0x1\n      add\n      swap1\n      0x20\n      add\n      dup1\n      dup4\n      gt\n      tag_280\n      jumpi\n      dup3\n      swap1\n      sub\n      0x1f\n      and\n      dup3\n      add\n      swap2\n    tag_278:\n      pop\n      pop\n      pop\n      pop\n      pop\n      swap6\n      pop\n      dup5\n      dup1\n      sload\n      0x1\n      dup2\n      0x1\n      and\n      iszero\n      0x100\n      mul\n      sub\n      and\n      0x2\n      swap1\n      div\n      dup1\n      0x1f\n      add\n      0x20\n      dup1\n      swap2\n      div\n      mul\n      0x20\n      add\n      mload(0x40)\n      swap1\n      dup2\n      add\n      0x40\n      mstore\n      dup1\n      swap3\n      swap2\n      swap1\n      dup2\n      dup2\n      mstore\n      0x20\n      add\n      dup3\n      dup1\n      sload\n      0x1\n      dup2\n      0x1\n      and\n      iszero\n      0x100\n      mul\n      sub\n      and\n      0x2\n      swap1\n      div\n      dup1\n      iszero\n      tag_281\n      jumpi\n      dup1\n      0x1f\n      lt\n      tag_282\n      jumpi\n      0x100\n      dup1\n      dup4\n      sload\n      div\n      mul\n      dup4\n      mstore\n      swap2\n      0x20\n      add\n      swap2\n      jump(tag_281)\n    tag_282:\n      dup3\n      add\n      swap2\n      swap1\n      0x0\n      mstore\n      keccak256(0x0, 0x20)\n      swap1\n    tag_283:\n      dup2\n      sload\n      dup2\n      mstore\n      swap1\n      0x1\n      add\n      swap1\n      0x20\n      add\n      dup1\n      dup4\n      gt\n      tag_283\n      jumpi\n      dup3\n      swap1\n      sub\n      0x1f\n      and\n      dup3\n      add\n      swap2\n    tag_281:\n      pop\n      pop\n      pop\n      pop\n      pop\n      swap5\n      pop\n      dup4\n      dup1\n      sload\n      0x1\n      dup2\n      0x1\n      and\n      iszero\n      0x100\n      mul\n      sub\n      and\n      0x2\n      swap1\n      div\n      dup1\n      0x1f\n      add\n      0x20\n      dup1\n      swap2\n      div\n      mul\n      0x20\n      add\n      mload(0x40)\n      swap1\n      dup2\n      add\n      0x40\n      mstore\n      dup1\n      swap3\n      swap2\n      swap1\n      dup2\n      dup2\n      mstore\n      0x20\n      add\n      dup3\n      dup1\n      sload\n      0x1\n      dup2\n      0x1\n      and\n      iszero\n      0x100\n      mul\n      sub\n      and\n      0x2\n      swap1\n      div\n      dup1\n      iszero\n      tag_284\n      jumpi\n      dup1\n      0x1f\n      lt\n      tag_285\n      jumpi\n      0x100\n      dup1\n      dup4\n      sload\n      div\n      mul\n      dup4\n      mstore\n      swap2\n      0x20\n      add\n      swap2\n      jump(tag_284)\n    tag_285:\n      dup3\n      add\n      swap2\n      swap1\n      0x0\n      mstore\n      keccak256(0x0, 0x20)\n      swap1\n    tag_286:\n      dup2\n      sload\n      dup2\n      mstore\n      swap1\n      0x1\n      add\n      swap1\n      0x20\n      add\n      dup1\n      dup4\n      gt\n      tag_286\n      jumpi\n      dup3\n      swap1\n      sub\n      0x1f\n      and\n      dup3\n      add\n      swap2\n    tag_284:\n      pop\n      pop\n      pop\n      pop\n      pop\n      swap4\n      pop\n      swap8\n      pop\n      swap8\n      pop\n      swap8\n      pop\n      swap8\n      pop\n      swap8\n      pop\n      swap8\n      pop\n      swap8\n      pop\n        /* \"contracts/ddddd.sol\":6133:6477  function getVaccinationInfo(address _address) public view returns(string, string, string, string, uint256, address, address) {\r... */\n      pop\n      swap2\n      swap4\n      swap6\n      swap8\n      swap1\n      swap3\n      swap5\n      swap7\n      pop\n      jump\t// out\n        /* \"contracts/ddddd.sol\":1036:1056  address public owner */\n    tag_121:\n      0x0\n      dup1\n      swap1\n      sload\n      swap1\n      0x100\n      exp\n      swap1\n      div\n      0xffffffffffffffffffffffffffffffffffffffff\n      and\n      dup2\n      jump\t// out\n        /* \"contracts/ddddd.sol\":1798:1842  uint256 public vaccinationRecordsCounter = 0 */\n    tag_125:\n      sload(0xf)\n      dup2\n      jump\t// out\n        /* \"contracts/ddddd.sol\":1705:1744  uint256 public MoHPermissionCounter = 0 */\n    tag_129:\n      sload(0xd)\n      dup2\n      jump\t// out\n        /* \"contracts/ddddd.sol\":1063:1088  address[] public userList */\n    tag_134:\n      0x1\n      dup2\n      dup2\n      sload\n      dup2\n      lt\n      iszero\n      iszero\n      tag_287\n      jumpi\n      invalid\n    tag_287:\n      swap1\n      0x0\n      mstore\n      keccak256(0x0, 0x20)\n      add\n      0x0\n      swap2\n      pop\n      sload\n      swap1\n      0x100\n      exp\n      swap1\n      div\n      0xffffffffffffffffffffffffffffffffffffffff\n      and\n      dup2\n      jump\t// out\n        /* \"contracts/ddddd.sol\":7439:7528  function getDoctors() public view returns(address[]) {\r... */\n    tag_138:\n        /* \"contracts/ddddd.sol\":7481:7490  address[] */\n      0x60\n        /* \"contracts/ddddd.sol\":7510:7520  doctorList */\n      0x2\n        /* \"contracts/ddddd.sol\":7503:7520  return doctorList */\n      dup1\n      sload\n      dup1\n      0x20\n      mul\n      0x20\n      add\n      mload(0x40)\n      swap1\n      dup2\n      add\n      0x40\n      mstore\n      dup1\n      swap3\n      swap2\n      swap1\n      dup2\n      dup2\n      mstore\n      0x20\n      add\n      dup3\n      dup1\n      sload\n      dup1\n      iszero\n      tag_290\n      jumpi\n      0x20\n      mul\n      dup3\n      add\n      swap2\n      swap1\n      0x0\n      mstore\n      keccak256(0x0, 0x20)\n      swap1\n    tag_291:\n      dup2\n      0x0\n      swap1\n      sload\n      swap1\n      0x100\n      exp\n      swap1\n      div\n      0xffffffffffffffffffffffffffffffffffffffff\n      and\n      0xffffffffffffffffffffffffffffffffffffffff\n      and\n      dup2\n      mstore\n      0x20\n      add\n      swap1\n      0x1\n      add\n      swap1\n      dup1\n      dup4\n      gt\n      tag_291\n      jumpi\n    tag_290:\n      pop\n      pop\n      pop\n      pop\n      pop\n      swap1\n      pop\n        /* \"contracts/ddddd.sol\":7439:7528  function getDoctors() public view returns(address[]) {\r... */\n      swap1\n      jump\t// out\n        /* \"contracts/ddddd.sol\":8620:8708  function getUserCount() public view returns(uint256) {\r... */\n    tag_142:\n        /* \"contracts/ddddd.sol\":8664:8671  uint256 */\n      0x0\n        /* \"contracts/ddddd.sol\":8691:8700  userCount */\n      sload(0xb)\n        /* \"contracts/ddddd.sol\":8684:8700  return userCount */\n      swap1\n      pop\n        /* \"contracts/ddddd.sol\":8620:8708  function getUserCount() public view returns(uint256) {\r... */\n      swap1\n      jump\t// out\n        /* \"contracts/ddddd.sol\":1851:1920  address public mohAdress = 0xc50C6297f56b033633C30354A854b074749cd2dC */\n    tag_146:\n      0x10\n      0x0\n      swap1\n      sload\n      swap1\n      0x100\n      exp\n      swap1\n      div\n      0xffffffffffffffffffffffffffffffffffffffff\n      and\n      dup2\n      jump\t// out\n        /* \"contracts/ddddd.sol\":7114:7334  function MoHRevokePermission(address _address1, address _address2) public returns(bool success) {\r... */\n    tag_152:\n        /* \"contracts/ddddd.sol\":7196:7208  bool success */\n      0x0\n        /* \"contracts/ddddd.sol\":7243:7252  mohAdress */\n      0x10\n      0x0\n      swap1\n      sload\n      swap1\n      0x100\n      exp\n      swap1\n      div\n      0xffffffffffffffffffffffffffffffffffffffff\n      and\n        /* \"contracts/ddddd.sol\":7229:7252  msg.sender == mohAdress */\n      0xffffffffffffffffffffffffffffffffffffffff\n      and\n        /* \"contracts/ddddd.sol\":7229:7239  msg.sender */\n      caller\n        /* \"contracts/ddddd.sol\":7229:7252  msg.sender == mohAdress */\n      0xffffffffffffffffffffffffffffffffffffffff\n      and\n      eq\n        /* \"contracts/ddddd.sol\":7221:7253  require(msg.sender == mohAdress) */\n      iszero\n      iszero\n      tag_294\n      jumpi\n      0x0\n      dup1\n      revert\n    tag_294:\n        /* \"contracts/ddddd.sol\":7299:7304  false */\n      0x0\n        /* \"contracts/ddddd.sol\":7264:7274  isApproved */\n      0x7\n        /* \"contracts/ddddd.sol\":7264:7285  isApproved[_address1] */\n      0x0\n        /* \"contracts/ddddd.sol\":7275:7284  _address1 */\n      dup6\n        /* \"contracts/ddddd.sol\":7264:7285  isApproved[_address1] */\n      0xffffffffffffffffffffffffffffffffffffffff\n      and\n      0xffffffffffffffffffffffffffffffffffffffff\n      and\n      dup2\n      mstore\n      0x20\n      add\n      swap1\n      dup2\n      mstore\n      0x20\n      add\n      0x0\n      keccak256\n        /* \"contracts/ddddd.sol\":7264:7296  isApproved[_address1][_address2] */\n      0x0\n        /* \"contracts/ddddd.sol\":7286:7295  _address2 */\n      dup5\n        /* \"contracts/ddddd.sol\":7264:7296  isApproved[_address1][_address2] */\n      0xffffffffffffffffffffffffffffffffffffffff\n      and\n      0xffffffffffffffffffffffffffffffffffffffff\n      and\n      dup2\n      mstore\n      0x20\n      add\n      swap1\n      dup2\n      mstore\n      0x20\n      add\n      0x0\n      keccak256\n      0x0\n        /* \"contracts/ddddd.sol\":7264:7304  isApproved[_address1][_address2] = false */\n      0x100\n      exp\n      dup2\n      sload\n      dup2\n      0xff\n      mul\n      not\n      and\n      swap1\n      dup4\n      iszero\n      iszero\n      mul\n      or\n      swap1\n      sstore\n      pop\n        /* \"contracts/ddddd.sol\":7322:7326  true */\n      0x1\n        /* \"contracts/ddddd.sol\":7315:7326  return true */\n      swap1\n      pop\n        /* \"contracts/ddddd.sol\":7114:7334  function MoHRevokePermission(address _address1, address _address2) public returns(bool success) {\r... */\n      swap3\n      swap2\n      pop\n      pop\n      jump\t// out\n        /* \"contracts/ddddd.sol\":1751:1791  uint256 public userPermissionCounter = 0 */\n    tag_156:\n      sload(0xe)\n      dup2\n      jump\t// out\n        /* \"contracts/ddddd.sol\":8235:8604  function searchDoctor(address _address) public view returns(string, string, string, string, string, string, string, address) {\r... */\n    tag_161:\n        /* \"contracts/ddddd.sol\":8295:8301  string */\n      0x60\n        /* \"contracts/ddddd.sol\":8303:8309  string */\n      dup1\n        /* \"contracts/ddddd.sol\":8311:8317  string */\n      0x60\n        /* \"contracts/ddddd.sol\":8319:8325  string */\n      dup1\n        /* \"contracts/ddddd.sol\":8327:8333  string */\n      0x60\n        /* \"contracts/ddddd.sol\":8335:8341  string */\n      dup1\n        /* \"contracts/ddddd.sol\":8343:8349  string */\n      0x60\n        /* \"contracts/ddddd.sol\":8351:8358  address */\n      0x0\n        /* \"contracts/ddddd.sol\":8461:8466  var d */\n      dup1\n        /* \"contracts/ddddd.sol\":8379:8389  isApproved */\n      0x7\n        /* \"contracts/ddddd.sol\":8379:8399  isApproved[_address] */\n      0x0\n        /* \"contracts/ddddd.sol\":8390:8398  _address */\n      dup12\n        /* \"contracts/ddddd.sol\":8379:8399  isApproved[_address] */\n      0xffffffffffffffffffffffffffffffffffffffff\n      and\n      0xffffffffffffffffffffffffffffffffffffffff\n      and\n      dup2\n      mstore\n      0x20\n      add\n      swap1\n      dup2\n      mstore\n      0x20\n      add\n      0x0\n      keccak256\n        /* \"contracts/ddddd.sol\":8379:8411  isApproved[_address][msg.sender] */\n      0x0\n        /* \"contracts/ddddd.sol\":8400:8410  msg.sender */\n      caller\n        /* \"contracts/ddddd.sol\":8379:8411  isApproved[_address][msg.sender] */\n      0xffffffffffffffffffffffffffffffffffffffff\n      and\n      0xffffffffffffffffffffffffffffffffffffffff\n      and\n      dup2\n      mstore\n      0x20\n      add\n      swap1\n      dup2\n      mstore\n      0x20\n      add\n      0x0\n      keccak256\n      0x0\n      swap1\n      sload\n      swap1\n      0x100\n      exp\n      swap1\n      div\n      0xff\n      and\n        /* \"contracts/ddddd.sol\":8371:8412  require(isApproved[_address][msg.sender]) */\n      iszero\n      iszero\n      tag_296\n      jumpi\n      0x0\n      dup1\n      revert\n    tag_296:\n        /* \"contracts/ddddd.sol\":8431:8439  isDoctor */\n      0x9\n        /* \"contracts/ddddd.sol\":8431:8449  isDoctor[_address] */\n      0x0\n        /* \"contracts/ddddd.sol\":8440:8448  _address */\n      dup12\n        /* \"contracts/ddddd.sol\":8431:8449  isDoctor[_address] */\n      0xffffffffffffffffffffffffffffffffffffffff\n      and\n      0xffffffffffffffffffffffffffffffffffffffff\n      and\n      dup2\n      mstore\n      0x20\n      add\n      swap1\n      dup2\n      mstore\n      0x20\n      add\n      0x0\n      keccak256\n      0x0\n      swap1\n      sload\n      swap1\n      0x100\n      exp\n      swap1\n      div\n      0xff\n      and\n        /* \"contracts/ddddd.sol\":8423:8450  require(isDoctor[_address]) */\n      iszero\n      iszero\n      tag_297\n      jumpi\n      0x0\n      dup1\n      revert\n    tag_297:\n        /* \"contracts/ddddd.sol\":8469:8475  doctor */\n      0x5\n        /* \"contracts/ddddd.sol\":8469:8485  doctor[_address] */\n      0x0\n        /* \"contracts/ddddd.sol\":8476:8484  _address */\n      dup12\n        /* \"contracts/ddddd.sol\":8469:8485  doctor[_address] */\n      0xffffffffffffffffffffffffffffffffffffffff\n      and\n      0xffffffffffffffffffffffffffffffffffffffff\n      and\n      dup2\n      mstore\n      0x20\n      add\n      swap1\n      dup2\n      mstore\n      0x20\n      add\n      0x0\n      keccak256\n        /* \"contracts/ddddd.sol\":8461:8485  var d = doctor[_address] */\n      swap1\n      pop\n        /* \"contracts/ddddd.sol\":8514:8515  d */\n      dup1\n        /* \"contracts/ddddd.sol\":8514:8521  d.uaeId */\n      0x0\n      add\n        /* \"contracts/ddddd.sol\":8523:8524  d */\n      dup2\n        /* \"contracts/ddddd.sol\":8523:8529  d.name */\n      0x1\n      add\n        /* \"contracts/ddddd.sol\":8531:8532  d */\n      dup3\n        /* \"contracts/ddddd.sol\":8531:8538  d.phone */\n      0x2\n      add\n        /* \"contracts/ddddd.sol\":8540:8541  d */\n      dup4\n        /* \"contracts/ddddd.sol\":8540:8548  d.gender */\n      0x3\n      add\n        /* \"contracts/ddddd.sol\":8550:8551  d */\n      dup5\n        /* \"contracts/ddddd.sol\":8550:8557  d.email */\n      0x5\n      add\n        /* \"contracts/ddddd.sol\":8559:8560  d */\n      dup6\n        /* \"contracts/ddddd.sol\":8559:8574  d.qualification */\n      0x6\n      add\n        /* \"contracts/ddddd.sol\":8576:8577  d */\n      dup7\n        /* \"contracts/ddddd.sol\":8576:8583  d.major */\n      0x7\n      add\n        /* \"contracts/ddddd.sol\":8585:8586  d */\n      dup8\n        /* \"contracts/ddddd.sol\":8585:8595  d.eAddress */\n      0x8\n      add\n      0x0\n      swap1\n      sload\n      swap1\n      0x100\n      exp\n      swap1\n      div\n      0xffffffffffffffffffffffffffffffffffffffff\n      and\n        /* \"contracts/ddddd.sol\":8506:8596  return (d.uaeId, d.name, d.phone, d.gender, d.email, d.qualification, d.major, d.eAddress) */\n      dup8\n      dup1\n      sload\n      0x1\n      dup2\n      0x1\n      and\n      iszero\n      0x100\n      mul\n      sub\n      and\n      0x2\n      swap1\n      div\n      dup1\n      0x1f\n      add\n      0x20\n      dup1\n      swap2\n      div\n      mul\n      0x20\n      add\n      mload(0x40)\n      swap1\n      dup2\n      add\n      0x40\n      mstore\n      dup1\n      swap3\n      swap2\n      swap1\n      dup2\n      dup2\n      mstore\n      0x20\n      add\n      dup3\n      dup1\n      sload\n      0x1\n      dup2\n      0x1\n      and\n      iszero\n      0x100\n      mul\n      sub\n      and\n      0x2\n      swap1\n      div\n      dup1\n      iszero\n      tag_298\n      jumpi\n      dup1\n      0x1f\n      lt\n      tag_299\n      jumpi\n      0x100\n      dup1\n      dup4\n      sload\n      div\n      mul\n      dup4\n      mstore\n      swap2\n      0x20\n      add\n      swap2\n      jump(tag_298)\n    tag_299:\n      dup3\n      add\n      swap2\n      swap1\n      0x0\n      mstore\n      keccak256(0x0, 0x20)\n      swap1\n    tag_300:\n      dup2\n      sload\n      dup2\n      mstore\n      swap1\n      0x1\n      add\n      swap1\n      0x20\n      add\n      dup1\n      dup4\n      gt\n      tag_300\n      jumpi\n      dup3\n      swap1\n      sub\n      0x1f\n      and\n      dup3\n      add\n      swap2\n    tag_298:\n      pop\n      pop\n      pop\n      pop\n      pop\n      swap8\n      pop\n      dup7\n      dup1\n      sload\n      0x1\n      dup2\n      0x1\n      and\n      iszero\n      0x100\n      mul\n      sub\n      and\n      0x2\n      swap1\n      div\n      dup1\n      0x1f\n      add\n      0x20\n      dup1\n      swap2\n      div\n      mul\n      0x20\n      add\n      mload(0x40)\n      swap1\n      dup2\n      add\n      0x40\n      mstore\n      dup1\n      swap3\n      swap2\n      swap1\n      dup2\n      dup2\n      mstore\n      0x20\n      add\n      dup3\n      dup1\n      sload\n      0x1\n      dup2\n      0x1\n      and\n      iszero\n      0x100\n      mul\n      sub\n      and\n      0x2\n      swap1\n      div\n      dup1\n      iszero\n      tag_301\n      jumpi\n      dup1\n      0x1f\n      lt\n      tag_302\n      jumpi\n      0x100\n      dup1\n      dup4\n      sload\n      div\n      mul\n      dup4\n      mstore\n      swap2\n      0x20\n      add\n      swap2\n      jump(tag_301)\n    tag_302:\n      dup3\n      add\n      swap2\n      swap1\n      0x0\n      mstore\n      keccak256(0x0, 0x20)\n      swap1\n    tag_303:\n      dup2\n      sload\n      dup2\n      mstore\n      swap1\n      0x1\n      add\n      swap1\n      0x20\n      add\n      dup1\n      dup4\n      gt\n      tag_303\n      jumpi\n      dup3\n      swap1\n      sub\n      0x1f\n      and\n      dup3\n      add\n      swap2\n    tag_301:\n      pop\n      pop\n      pop\n      pop\n      pop\n      swap7\n      pop\n      dup6\n      dup1\n      sload\n      0x1\n      dup2\n      0x1\n      and\n      iszero\n      0x100\n      mul\n      sub\n      and\n      0x2\n      swap1\n      div\n      dup1\n      0x1f\n      add\n      0x20\n      dup1\n      swap2\n      div\n      mul\n      0x20\n      add\n      mload(0x40)\n      swap1\n      dup2\n      add\n      0x40\n      mstore\n      dup1\n      swap3\n      swap2\n      swap1\n      dup2\n      dup2\n      mstore\n      0x20\n      add\n      dup3\n      dup1\n      sload\n      0x1\n      dup2\n      0x1\n      and\n      iszero\n      0x100\n      mul\n      sub\n      and\n      0x2\n      swap1\n      div\n      dup1\n      iszero\n      tag_304\n      jumpi\n      dup1\n      0x1f\n      lt\n      tag_305\n      jumpi\n      0x100\n      dup1\n      dup4\n      sload\n      div\n      mul\n      dup4\n      mstore\n      swap2\n      0x20\n      add\n      swap2\n      jump(tag_304)\n    tag_305:\n      dup3\n      add\n      swap2\n      swap1\n      0x0\n      mstore\n      keccak256(0x0, 0x20)\n      swap1\n    tag_306:\n      dup2\n      sload\n      dup2\n      mstore\n      swap1\n      0x1\n      add\n      swap1\n      0x20\n      add\n      dup1\n      dup4\n      gt\n      tag_306\n      jumpi\n      dup3\n      swap1\n      sub\n      0x1f\n      and\n      dup3\n      add\n      swap2\n    tag_304:\n      pop\n      pop\n      pop\n      pop\n      pop\n      swap6\n      pop\n      dup5\n      dup1\n      sload\n      0x1\n      dup2\n      0x1\n      and\n      iszero\n      0x100\n      mul\n      sub\n      and\n      0x2\n      swap1\n      div\n      dup1\n      0x1f\n      add\n      0x20\n      dup1\n      swap2\n      div\n      mul\n      0x20\n      add\n      mload(0x40)\n      swap1\n      dup2\n      add\n      0x40\n      mstore\n      dup1\n      swap3\n      swap2\n      swap1\n      dup2\n      dup2\n      mstore\n      0x20\n      add\n      dup3\n      dup1\n      sload\n      0x1\n      dup2\n      0x1\n      and\n      iszero\n      0x100\n      mul\n      sub\n      and\n      0x2\n      swap1\n      div\n      dup1\n      iszero\n      tag_307\n      jumpi\n      dup1\n      0x1f\n      lt\n      tag_308\n      jumpi\n      0x100\n      dup1\n      dup4\n      sload\n      div\n      mul\n      dup4\n      mstore\n      swap2\n      0x20\n      add\n      swap2\n      jump(tag_307)\n    tag_308:\n      dup3\n      add\n      swap2\n      swap1\n      0x0\n      mstore\n      keccak256(0x0, 0x20)\n      swap1\n    tag_309:\n      dup2\n      sload\n      dup2\n      mstore\n      swap1\n      0x1\n      add\n      swap1\n      0x20\n      add\n      dup1\n      dup4\n      gt\n      tag_309\n      jumpi\n      dup3\n      swap1\n      sub\n      0x1f\n      and\n      dup3\n      add\n      swap2\n    tag_307:\n      pop\n      pop\n      pop\n      pop\n      pop\n      swap5\n      pop\n      dup4\n      dup1\n      sload\n      0x1\n      dup2\n      0x1\n      and\n      iszero\n      0x100\n      mul\n      sub\n      and\n      0x2\n      swap1\n      div\n      dup1\n      0x1f\n      add\n      0x20\n      dup1\n      swap2\n      div\n      mul\n      0x20\n      add\n      mload(0x40)\n      swap1\n      dup2\n      add\n      0x40\n      mstore\n      dup1\n      swap3\n      swap2\n      swap1\n      dup2\n      dup2\n      mstore\n      0x20\n      add\n      dup3\n      dup1\n      sload\n      0x1\n      dup2\n      0x1\n      and\n      iszero\n      0x100\n      mul\n      sub\n      and\n      0x2\n      swap1\n      div\n      dup1\n      iszero\n      tag_310\n      jumpi\n      dup1\n      0x1f\n      lt\n      tag_311\n      jumpi\n      0x100\n      dup1\n      dup4\n      sload\n      div\n      mul\n      dup4\n      mstore\n      swap2\n      0x20\n      add\n      swap2\n      jump(tag_310)\n    tag_311:\n      dup3\n      add\n      swap2\n      swap1\n      0x0\n      mstore\n      keccak256(0x0, 0x20)\n      swap1\n    tag_312:\n      dup2\n      sload\n      dup2\n      mstore\n      swap1\n      0x1\n      add\n      swap1\n      0x20\n      add\n      dup1\n      dup4\n      gt\n      tag_312\n      jumpi\n      dup3\n      swap1\n      sub\n      0x1f\n      and\n      dup3\n      add\n      swap2\n    tag_310:\n      pop\n      pop\n      pop\n      pop\n      pop\n      swap4\n      pop\n      dup3\n      dup1\n      sload\n      0x1\n      dup2\n      0x1\n      and\n      iszero\n      0x100\n      mul\n      sub\n      and\n      0x2\n      swap1\n      div\n      dup1\n      0x1f\n      add\n      0x20\n      dup1\n      swap2\n      div\n      mul\n      0x20\n      add\n      mload(0x40)\n      swap1\n      dup2\n      add\n      0x40\n      mstore\n      dup1\n      swap3\n      swap2\n      swap1\n      dup2\n      dup2\n      mstore\n      0x20\n      add\n      dup3\n      dup1\n      sload\n      0x1\n      dup2\n      0x1\n      and\n      iszero\n      0x100\n      mul\n      sub\n      and\n      0x2\n      swap1\n      div\n      dup1\n      iszero\n      tag_313\n      jumpi\n      dup1\n      0x1f\n      lt\n      tag_314\n      jumpi\n      0x100\n      dup1\n      dup4\n      sload\n      div\n      mul\n      dup4\n      mstore\n      swap2\n      0x20\n      add\n      swap2\n      jump(tag_313)\n    tag_314:\n      dup3\n      add\n      swap2\n      swap1\n      0x0\n      mstore\n      keccak256(0x0, 0x20)\n      swap1\n    tag_315:\n      dup2\n      sload\n      dup2\n      mstore\n      swap1\n      0x1\n      add\n      swap1\n      0x20\n      add\n      dup1\n      dup4\n      gt\n      tag_315\n      jumpi\n      dup3\n      swap1\n      sub\n      0x1f\n      and\n      dup3\n      add\n      swap2\n    tag_313:\n      pop\n      pop\n      pop\n      pop\n      pop\n      swap3\n      pop\n      dup2\n      dup1\n      sload\n      0x1\n      dup2\n      0x1\n      and\n      iszero\n      0x100\n      mul\n      sub\n      and\n      0x2\n      swap1\n      div\n      dup1\n      0x1f\n      add\n      0x20\n      dup1\n      swap2\n      div\n      mul\n      0x20\n      add\n      mload(0x40)\n      swap1\n      dup2\n      add\n      0x40\n      mstore\n      dup1\n      swap3\n      swap2\n      swap1\n      dup2\n      dup2\n      mstore\n      0x20\n      add\n      dup3\n      dup1\n      sload\n      0x1\n      dup2\n      0x1\n      and\n      iszero\n      0x100\n      mul\n      sub\n      and\n      0x2\n      swap1\n      div\n      dup1\n      iszero\n      tag_316\n      jumpi\n      dup1\n      0x1f\n      lt\n      tag_317\n      jumpi\n      0x100\n      dup1\n      dup4\n      sload\n      div\n      mul\n      dup4\n      mstore\n      swap2\n      0x20\n      add\n      swap2\n      jump(tag_316)\n    tag_317:\n      dup3\n      add\n      swap2\n      swap1\n      0x0\n      mstore\n      keccak256(0x0, 0x20)\n      swap1\n    tag_318:\n      dup2\n      sload\n      dup2\n      mstore\n      swap1\n      0x1\n      add\n      swap1\n      0x20\n      add\n      dup1\n      dup4\n      gt\n      tag_318\n      jumpi\n      dup3\n      swap1\n      sub\n      0x1f\n      and\n      dup3\n      add\n      swap2\n    tag_316:\n      pop\n      pop\n      pop\n      pop\n      pop\n      swap2\n      pop\n      swap9\n      pop\n      swap9\n      pop\n      swap9\n      pop\n      swap9\n      pop\n      swap9\n      pop\n      swap9\n      pop\n      swap9\n      pop\n      swap9\n      pop\n        /* \"contracts/ddddd.sol\":8235:8604  function searchDoctor(address _address) public view returns(string, string, string, string, string, string, string, address) {\r... */\n      pop\n      swap2\n      swap4\n      swap6\n      swap8\n      pop\n      swap2\n      swap4\n      swap6\n      swap8\n      jump\t// out\n        /* \"contracts/ddddd.sol\":6686:6938  function givePermissionByMoH(address _address1, address _address2) public returns(bool success) {\r... */\n    tag_166:\n        /* \"contracts/ddddd.sol\":6768:6780  bool success */\n      0x0\n        /* \"contracts/ddddd.sol\":6815:6824  mohAdress */\n      0x10\n      0x0\n      swap1\n      sload\n      swap1\n      0x100\n      exp\n      swap1\n      div\n      0xffffffffffffffffffffffffffffffffffffffff\n      and\n        /* \"contracts/ddddd.sol\":6801:6824  msg.sender == mohAdress */\n      0xffffffffffffffffffffffffffffffffffffffff\n      and\n        /* \"contracts/ddddd.sol\":6801:6811  msg.sender */\n      caller\n        /* \"contracts/ddddd.sol\":6801:6824  msg.sender == mohAdress */\n      0xffffffffffffffffffffffffffffffffffffffff\n      and\n      eq\n        /* \"contracts/ddddd.sol\":6793:6825  require(msg.sender == mohAdress) */\n      iszero\n      iszero\n      tag_320\n      jumpi\n      0x0\n      dup1\n      revert\n    tag_320:\n        /* \"contracts/ddddd.sol\":6871:6875  true */\n      0x1\n        /* \"contracts/ddddd.sol\":6836:6846  isApproved */\n      0x7\n        /* \"contracts/ddddd.sol\":6836:6857  isApproved[_address1] */\n      0x0\n        /* \"contracts/ddddd.sol\":6847:6856  _address1 */\n      dup6\n        /* \"contracts/ddddd.sol\":6836:6857  isApproved[_address1] */\n      0xffffffffffffffffffffffffffffffffffffffff\n      and\n      0xffffffffffffffffffffffffffffffffffffffff\n      and\n      dup2\n      mstore\n      0x20\n      add\n      swap1\n      dup2\n      mstore\n      0x20\n      add\n      0x0\n      keccak256\n        /* \"contracts/ddddd.sol\":6836:6868  isApproved[_address1][_address2] */\n      0x0\n        /* \"contracts/ddddd.sol\":6858:6867  _address2 */\n      dup5\n        /* \"contracts/ddddd.sol\":6836:6868  isApproved[_address1][_address2] */\n      0xffffffffffffffffffffffffffffffffffffffff\n      and\n      0xffffffffffffffffffffffffffffffffffffffff\n      and\n      dup2\n      mstore\n      0x20\n      add\n      swap1\n      dup2\n      mstore\n      0x20\n      add\n      0x0\n      keccak256\n      0x0\n        /* \"contracts/ddddd.sol\":6836:6875  isApproved[_address1][_address2] = true */\n      0x100\n      exp\n      dup2\n      sload\n      dup2\n      0xff\n      mul\n      not\n      and\n      swap1\n      dup4\n      iszero\n      iszero\n      mul\n      or\n      swap1\n      sstore\n      pop\n        /* \"contracts/ddddd.sol\":6886:6906  MoHPermissionCounter */\n      0xd\n      0x0\n        /* \"contracts/ddddd.sol\":6886:6908  MoHPermissionCounter++ */\n      dup2\n      sload\n      dup1\n      swap3\n      swap2\n      swap1\n      0x1\n      add\n      swap2\n      swap1\n      pop\n      sstore\n      pop\n        /* \"contracts/ddddd.sol\":6926:6930  true */\n      0x1\n        /* \"contracts/ddddd.sol\":6919:6930  return true */\n      swap1\n      pop\n        /* \"contracts/ddddd.sol\":6686:6938  function givePermissionByMoH(address _address1, address _address2) public returns(bool success) {\r... */\n      swap3\n      swap2\n      pop\n      pop\n      jump\t// out\n        /* \"contracts/ddddd.sol\":8942:9052  function getMoHPermissionCounter() public view returns(uint256) {\r... */\n    tag_170:\n        /* \"contracts/ddddd.sol\":8997:9004  uint256 */\n      0x0\n        /* \"contracts/ddddd.sol\":9024:9044  MoHPermissionCounter */\n      sload(0xd)\n        /* \"contracts/ddddd.sol\":9017:9044  return MoHPermissionCounter */\n      swap1\n      pop\n        /* \"contracts/ddddd.sol\":8942:9052  function getMoHPermissionCounter() public view returns(uint256) {\r... */\n      swap1\n      jump\t// out\n        /* \"contracts/ddddd.sol\":1129:1161  address[] public vaccinationList */\n    tag_175:\n      0x3\n      dup2\n      dup2\n      sload\n      dup2\n      lt\n      iszero\n      iszero\n      tag_322\n      jumpi\n      invalid\n    tag_322:\n      swap1\n      0x0\n      mstore\n      keccak256(0x0, 0x20)\n      add\n      0x0\n      swap2\n      pop\n      sload\n      swap1\n      0x100\n      exp\n      swap1\n      div\n      0xffffffffffffffffffffffffffffffffffffffff\n      and\n      dup2\n      jump\t// out\n        /* \"contracts/ddddd.sol\":91:9369  contract ddddd {\r... */\n    tag_210:\n      dup3\n      dup1\n      sload\n      0x1\n      dup2\n      0x1\n      and\n      iszero\n      0x100\n      mul\n      sub\n      and\n      0x2\n      swap1\n      div\n      swap1\n      0x0\n      mstore\n      keccak256(0x0, 0x20)\n      swap1\n      0x1f\n      add\n      0x20\n      swap1\n      div\n      dup2\n      add\n      swap3\n      dup3\n      0x1f\n      lt\n      tag_325\n      jumpi\n      dup1\n      mload\n      not(0xff)\n      and\n      dup4\n      dup1\n      add\n      or\n      dup6\n      sstore\n      jump(tag_324)\n    tag_325:\n      dup3\n      dup1\n      add\n      0x1\n      add\n      dup6\n      sstore\n      dup3\n      iszero\n      tag_324\n      jumpi\n      swap2\n      dup3\n      add\n    tag_326:\n      dup3\n      dup2\n      gt\n      iszero\n      tag_327\n      jumpi\n      dup3\n      mload\n      dup3\n      sstore\n      swap2\n      0x20\n      add\n      swap2\n      swap1\n      0x1\n      add\n      swap1\n      jump(tag_326)\n    tag_327:\n    tag_324:\n      pop\n      swap1\n      pop\n      tag_328\n      swap2\n      swap1\n      jump\t// in(tag_329)\n    tag_328:\n      pop\n      swap1\n      jump\t// out\n    tag_329:\n      tag_330\n      swap2\n      swap1\n    tag_331:\n      dup1\n      dup3\n      gt\n      iszero\n      tag_332\n      jumpi\n      0x0\n      dup2\n      0x0\n      swap1\n      sstore\n      pop\n      0x1\n      add\n      jump(tag_331)\n    tag_332:\n      pop\n      swap1\n      jump\n    tag_330:\n      swap1\n      jump\t// out\n        /* \"--CODEGEN--\":5:123   */\n    tag_334:\n      0x0\n        /* \"--CODEGEN--\":72:118   */\n      tag_335\n        /* \"--CODEGEN--\":110:116   */\n      dup3\n        /* \"--CODEGEN--\":97:117   */\n      calldataload\n        /* \"--CODEGEN--\":72:118   */\n      jump(tag_336)\n    tag_335:\n        /* \"--CODEGEN--\":63:118   */\n      swap1\n      pop\n        /* \"--CODEGEN--\":57:123   */\n      swap3\n      swap2\n      pop\n      pop\n      jump\n        /* \"--CODEGEN--\":131:573   */\n    tag_338:\n      0x0\n        /* \"--CODEGEN--\":233:236   */\n      dup3\n        /* \"--CODEGEN--\":226:230   */\n      0x1f\n        /* \"--CODEGEN--\":218:224   */\n      dup4\n        /* \"--CODEGEN--\":214:231   */\n      add\n        /* \"--CODEGEN--\":210:237   */\n      slt\n        /* \"--CODEGEN--\":203:238   */\n      iszero\n        /* \"--CODEGEN--\":200:202   */\n      iszero\n      tag_339\n      jumpi\n        /* \"--CODEGEN--\":251:252   */\n      0x0\n        /* \"--CODEGEN--\":248:249   */\n      dup1\n        /* \"--CODEGEN--\":241:253   */\n      revert\n        /* \"--CODEGEN--\":200:202   */\n    tag_339:\n        /* \"--CODEGEN--\":288:294   */\n      dup2\n        /* \"--CODEGEN--\":275:295   */\n      calldataload\n        /* \"--CODEGEN--\":310:375   */\n      tag_340\n        /* \"--CODEGEN--\":325:374   */\n      tag_341\n        /* \"--CODEGEN--\":367:373   */\n      dup3\n        /* \"--CODEGEN--\":325:374   */\n      jump(tag_342)\n    tag_341:\n        /* \"--CODEGEN--\":310:375   */\n      jump(tag_343)\n    tag_340:\n        /* \"--CODEGEN--\":301:375   */\n      swap2\n      pop\n        /* \"--CODEGEN--\":395:401   */\n      dup1\n        /* \"--CODEGEN--\":388:393   */\n      dup3\n        /* \"--CODEGEN--\":381:402   */\n      mstore\n        /* \"--CODEGEN--\":431:435   */\n      0x20\n        /* \"--CODEGEN--\":423:429   */\n      dup4\n        /* \"--CODEGEN--\":419:436   */\n      add\n        /* \"--CODEGEN--\":464:468   */\n      0x20\n        /* \"--CODEGEN--\":457:462   */\n      dup4\n        /* \"--CODEGEN--\":453:469   */\n      add\n        /* \"--CODEGEN--\":499:502   */\n      dup6\n        /* \"--CODEGEN--\":490:496   */\n      dup4\n        /* \"--CODEGEN--\":485:488   */\n      dup4\n        /* \"--CODEGEN--\":481:497   */\n      add\n        /* \"--CODEGEN--\":478:503   */\n      gt\n        /* \"--CODEGEN--\":475:477   */\n      iszero\n      tag_344\n      jumpi\n        /* \"--CODEGEN--\":516:517   */\n      0x0\n        /* \"--CODEGEN--\":513:514   */\n      dup1\n        /* \"--CODEGEN--\":506:518   */\n      revert\n        /* \"--CODEGEN--\":475:477   */\n    tag_344:\n        /* \"--CODEGEN--\":526:567   */\n      tag_345\n        /* \"--CODEGEN--\":560:566   */\n      dup4\n        /* \"--CODEGEN--\":555:558   */\n      dup3\n        /* \"--CODEGEN--\":550:553   */\n      dup5\n        /* \"--CODEGEN--\":526:567   */\n      jump(tag_346)\n    tag_345:\n        /* \"--CODEGEN--\":193:573   */\n      pop\n      pop\n      pop\n      swap3\n      swap2\n      pop\n      pop\n      jump\n        /* \"--CODEGEN--\":581:699   */\n    tag_348:\n      0x0\n        /* \"--CODEGEN--\":648:694   */\n      tag_349\n        /* \"--CODEGEN--\":686:692   */\n      dup3\n        /* \"--CODEGEN--\":673:693   */\n      calldataload\n        /* \"--CODEGEN--\":648:694   */\n      jump(tag_350)\n    tag_349:\n        /* \"--CODEGEN--\":639:694   */\n      swap1\n      pop\n        /* \"--CODEGEN--\":633:699   */\n      swap3\n      swap2\n      pop\n      pop\n      jump\n        /* \"--CODEGEN--\":706:947   */\n    tag_45:\n      0x0\n        /* \"--CODEGEN--\":810:812   */\n      0x20\n        /* \"--CODEGEN--\":798:807   */\n      dup3\n        /* \"--CODEGEN--\":789:796   */\n      dup5\n        /* \"--CODEGEN--\":785:808   */\n      sub\n        /* \"--CODEGEN--\":781:813   */\n      slt\n        /* \"--CODEGEN--\":778:780   */\n      iszero\n      tag_352\n      jumpi\n        /* \"--CODEGEN--\":826:827   */\n      0x0\n        /* \"--CODEGEN--\":823:824   */\n      dup1\n        /* \"--CODEGEN--\":816:828   */\n      revert\n        /* \"--CODEGEN--\":778:780   */\n    tag_352:\n        /* \"--CODEGEN--\":861:862   */\n      0x0\n        /* \"--CODEGEN--\":878:931   */\n      tag_353\n        /* \"--CODEGEN--\":923:930   */\n      dup5\n        /* \"--CODEGEN--\":914:920   */\n      dup3\n        /* \"--CODEGEN--\":903:912   */\n      dup6\n        /* \"--CODEGEN--\":899:921   */\n      add\n        /* \"--CODEGEN--\":878:931   */\n      jump(tag_334)\n    tag_353:\n        /* \"--CODEGEN--\":868:931   */\n      swap2\n      pop\n        /* \"--CODEGEN--\":840:937   */\n      pop\n        /* \"--CODEGEN--\":772:947   */\n      swap3\n      swap2\n      pop\n      pop\n      jump\n        /* \"--CODEGEN--\":954:1320   */\n    tag_151:\n      0x0\n      dup1\n        /* \"--CODEGEN--\":1075:1077   */\n      0x40\n        /* \"--CODEGEN--\":1063:1072   */\n      dup4\n        /* \"--CODEGEN--\":1054:1061   */\n      dup6\n        /* \"--CODEGEN--\":1050:1073   */\n      sub\n        /* \"--CODEGEN--\":1046:1078   */\n      slt\n        /* \"--CODEGEN--\":1043:1045   */\n      iszero\n      tag_355\n      jumpi\n        /* \"--CODEGEN--\":1091:1092   */\n      0x0\n        /* \"--CODEGEN--\":1088:1089   */\n      dup1\n        /* \"--CODEGEN--\":1081:1093   */\n      revert\n        /* \"--CODEGEN--\":1043:1045   */\n    tag_355:\n        /* \"--CODEGEN--\":1126:1127   */\n      0x0\n        /* \"--CODEGEN--\":1143:1196   */\n      tag_356\n        /* \"--CODEGEN--\":1188:1195   */\n      dup6\n        /* \"--CODEGEN--\":1179:1185   */\n      dup3\n        /* \"--CODEGEN--\":1168:1177   */\n      dup7\n        /* \"--CODEGEN--\":1164:1186   */\n      add\n        /* \"--CODEGEN--\":1143:1196   */\n      jump(tag_334)\n    tag_356:\n        /* \"--CODEGEN--\":1133:1196   */\n      swap3\n      pop\n        /* \"--CODEGEN--\":1105:1202   */\n      pop\n        /* \"--CODEGEN--\":1233:1235   */\n      0x20\n        /* \"--CODEGEN--\":1251:1304   */\n      tag_357\n        /* \"--CODEGEN--\":1296:1303   */\n      dup6\n        /* \"--CODEGEN--\":1287:1293   */\n      dup3\n        /* \"--CODEGEN--\":1276:1285   */\n      dup7\n        /* \"--CODEGEN--\":1272:1294   */\n      add\n        /* \"--CODEGEN--\":1251:1304   */\n      jump(tag_334)\n    tag_357:\n        /* \"--CODEGEN--\":1241:1304   */\n      swap2\n      pop\n        /* \"--CODEGEN--\":1212:1310   */\n      pop\n        /* \"--CODEGEN--\":1037:1320   */\n      swap3\n      pop\n      swap3\n      swap1\n      pop\n      jump\n        /* \"--CODEGEN--\":1327:2746   */\n    tag_83:\n      0x0\n      dup1\n      0x0\n      dup1\n      0x0\n      dup1\n      0x0\n        /* \"--CODEGEN--\":1573:1576   */\n      0xe0\n        /* \"--CODEGEN--\":1561:1570   */\n      dup9\n        /* \"--CODEGEN--\":1552:1559   */\n      dup11\n        /* \"--CODEGEN--\":1548:1571   */\n      sub\n        /* \"--CODEGEN--\":1544:1577   */\n      slt\n        /* \"--CODEGEN--\":1541:1543   */\n      iszero\n      tag_359\n      jumpi\n        /* \"--CODEGEN--\":1590:1591   */\n      0x0\n        /* \"--CODEGEN--\":1587:1588   */\n      dup1\n        /* \"--CODEGEN--\":1580:1592   */\n      revert\n        /* \"--CODEGEN--\":1541:1543   */\n    tag_359:\n        /* \"--CODEGEN--\":1625:1626   */\n      0x0\n        /* \"--CODEGEN--\":1642:1695   */\n      tag_360\n        /* \"--CODEGEN--\":1687:1694   */\n      dup11\n        /* \"--CODEGEN--\":1678:1684   */\n      dup3\n        /* \"--CODEGEN--\":1667:1676   */\n      dup12\n        /* \"--CODEGEN--\":1663:1685   */\n      add\n        /* \"--CODEGEN--\":1642:1695   */\n      jump(tag_334)\n    tag_360:\n        /* \"--CODEGEN--\":1632:1695   */\n      swap8\n      pop\n        /* \"--CODEGEN--\":1604:1701   */\n      pop\n        /* \"--CODEGEN--\":1732:1734   */\n      0x20\n        /* \"--CODEGEN--\":1750:1803   */\n      tag_361\n        /* \"--CODEGEN--\":1795:1802   */\n      dup11\n        /* \"--CODEGEN--\":1786:1792   */\n      dup3\n        /* \"--CODEGEN--\":1775:1784   */\n      dup12\n        /* \"--CODEGEN--\":1771:1793   */\n      add\n        /* \"--CODEGEN--\":1750:1803   */\n      jump(tag_334)\n    tag_361:\n        /* \"--CODEGEN--\":1740:1803   */\n      swap7\n      pop\n        /* \"--CODEGEN--\":1711:1809   */\n      pop\n        /* \"--CODEGEN--\":1868:1870   */\n      0x40\n        /* \"--CODEGEN--\":1857:1866   */\n      dup9\n        /* \"--CODEGEN--\":1853:1871   */\n      add\n        /* \"--CODEGEN--\":1840:1872   */\n      calldataload\n        /* \"--CODEGEN--\":1892:1910   */\n      0xffffffffffffffff\n        /* \"--CODEGEN--\":1884:1890   */\n      dup2\n        /* \"--CODEGEN--\":1881:1911   */\n      gt\n        /* \"--CODEGEN--\":1878:1880   */\n      iszero\n      tag_362\n      jumpi\n        /* \"--CODEGEN--\":1924:1925   */\n      0x0\n        /* \"--CODEGEN--\":1921:1922   */\n      dup1\n        /* \"--CODEGEN--\":1914:1926   */\n      revert\n        /* \"--CODEGEN--\":1878:1880   */\n    tag_362:\n        /* \"--CODEGEN--\":1944:2007   */\n      tag_363\n        /* \"--CODEGEN--\":1999:2006   */\n      dup11\n        /* \"--CODEGEN--\":1990:1996   */\n      dup3\n        /* \"--CODEGEN--\":1979:1988   */\n      dup12\n        /* \"--CODEGEN--\":1975:1997   */\n      add\n        /* \"--CODEGEN--\":1944:2007   */\n      jump(tag_338)\n    tag_363:\n        /* \"--CODEGEN--\":1934:2007   */\n      swap6\n      pop\n        /* \"--CODEGEN--\":1819:2013   */\n      pop\n        /* \"--CODEGEN--\":2072:2074   */\n      0x60\n        /* \"--CODEGEN--\":2061:2070   */\n      dup9\n        /* \"--CODEGEN--\":2057:2075   */\n      add\n        /* \"--CODEGEN--\":2044:2076   */\n      calldataload\n        /* \"--CODEGEN--\":2096:2114   */\n      0xffffffffffffffff\n        /* \"--CODEGEN--\":2088:2094   */\n      dup2\n        /* \"--CODEGEN--\":2085:2115   */\n      gt\n        /* \"--CODEGEN--\":2082:2084   */\n      iszero\n      tag_364\n      jumpi\n        /* \"--CODEGEN--\":2128:2129   */\n      0x0\n        /* \"--CODEGEN--\":2125:2126   */\n      dup1\n        /* \"--CODEGEN--\":2118:2130   */\n      revert\n        /* \"--CODEGEN--\":2082:2084   */\n    tag_364:\n        /* \"--CODEGEN--\":2148:2211   */\n      tag_365\n        /* \"--CODEGEN--\":2203:2210   */\n      dup11\n        /* \"--CODEGEN--\":2194:2200   */\n      dup3\n        /* \"--CODEGEN--\":2183:2192   */\n      dup12\n        /* \"--CODEGEN--\":2179:2201   */\n      add\n        /* \"--CODEGEN--\":2148:2211   */\n      jump(tag_338)\n    tag_365:\n        /* \"--CODEGEN--\":2138:2211   */\n      swap5\n      pop\n        /* \"--CODEGEN--\":2023:2217   */\n      pop\n        /* \"--CODEGEN--\":2276:2279   */\n      0x80\n        /* \"--CODEGEN--\":2265:2274   */\n      dup9\n        /* \"--CODEGEN--\":2261:2280   */\n      add\n        /* \"--CODEGEN--\":2248:2281   */\n      calldataload\n        /* \"--CODEGEN--\":2301:2319   */\n      0xffffffffffffffff\n        /* \"--CODEGEN--\":2293:2299   */\n      dup2\n        /* \"--CODEGEN--\":2290:2320   */\n      gt\n        /* \"--CODEGEN--\":2287:2289   */\n      iszero\n      tag_366\n      jumpi\n        /* \"--CODEGEN--\":2333:2334   */\n      0x0\n        /* \"--CODEGEN--\":2330:2331   */\n      dup1\n        /* \"--CODEGEN--\":2323:2335   */\n      revert\n        /* \"--CODEGEN--\":2287:2289   */\n    tag_366:\n        /* \"--CODEGEN--\":2353:2416   */\n      tag_367\n        /* \"--CODEGEN--\":2408:2415   */\n      dup11\n        /* \"--CODEGEN--\":2399:2405   */\n      dup3\n        /* \"--CODEGEN--\":2388:2397   */\n      dup12\n        /* \"--CODEGEN--\":2384:2406   */\n      add\n        /* \"--CODEGEN--\":2353:2416   */\n      jump(tag_338)\n    tag_367:\n        /* \"--CODEGEN--\":2343:2416   */\n      swap4\n      pop\n        /* \"--CODEGEN--\":2227:2422   */\n      pop\n        /* \"--CODEGEN--\":2481:2484   */\n      0xa0\n        /* \"--CODEGEN--\":2470:2479   */\n      dup9\n        /* \"--CODEGEN--\":2466:2485   */\n      add\n        /* \"--CODEGEN--\":2453:2486   */\n      calldataload\n        /* \"--CODEGEN--\":2506:2524   */\n      0xffffffffffffffff\n        /* \"--CODEGEN--\":2498:2504   */\n      dup2\n        /* \"--CODEGEN--\":2495:2525   */\n      gt\n        /* \"--CODEGEN--\":2492:2494   */\n      iszero\n      tag_368\n      jumpi\n        /* \"--CODEGEN--\":2538:2539   */\n      0x0\n        /* \"--CODEGEN--\":2535:2536   */\n      dup1\n        /* \"--CODEGEN--\":2528:2540   */\n      revert\n        /* \"--CODEGEN--\":2492:2494   */\n    tag_368:\n        /* \"--CODEGEN--\":2558:2621   */\n      tag_369\n        /* \"--CODEGEN--\":2613:2620   */\n      dup11\n        /* \"--CODEGEN--\":2604:2610   */\n      dup3\n        /* \"--CODEGEN--\":2593:2602   */\n      dup12\n        /* \"--CODEGEN--\":2589:2611   */\n      add\n        /* \"--CODEGEN--\":2558:2621   */\n      jump(tag_338)\n    tag_369:\n        /* \"--CODEGEN--\":2548:2621   */\n      swap3\n      pop\n        /* \"--CODEGEN--\":2432:2627   */\n      pop\n        /* \"--CODEGEN--\":2658:2661   */\n      0xc0\n        /* \"--CODEGEN--\":2677:2730   */\n      tag_370\n        /* \"--CODEGEN--\":2722:2729   */\n      dup11\n        /* \"--CODEGEN--\":2713:2719   */\n      dup3\n        /* \"--CODEGEN--\":2702:2711   */\n      dup12\n        /* \"--CODEGEN--\":2698:2720   */\n      add\n        /* \"--CODEGEN--\":2677:2730   */\n      jump(tag_348)\n    tag_370:\n        /* \"--CODEGEN--\":2667:2730   */\n      swap2\n      pop\n        /* \"--CODEGEN--\":2637:2736   */\n      pop\n        /* \"--CODEGEN--\":1535:2746   */\n      swap3\n      swap6\n      swap9\n      swap2\n      swap5\n      swap8\n      pop\n      swap3\n      swap6\n      pop\n      jump\n        /* \"--CODEGEN--\":2753:4616   */\n    tag_63:\n      0x0\n      dup1\n      0x0\n      dup1\n      0x0\n      dup1\n      0x0\n      dup1\n        /* \"--CODEGEN--\":3046:3049   */\n      0x100\n        /* \"--CODEGEN--\":3034:3043   */\n      dup10\n        /* \"--CODEGEN--\":3025:3032   */\n      dup12\n        /* \"--CODEGEN--\":3021:3044   */\n      sub\n        /* \"--CODEGEN--\":3017:3050   */\n      slt\n        /* \"--CODEGEN--\":3014:3016   */\n      iszero\n      tag_372\n      jumpi\n        /* \"--CODEGEN--\":3063:3064   */\n      0x0\n        /* \"--CODEGEN--\":3060:3061   */\n      dup1\n        /* \"--CODEGEN--\":3053:3065   */\n      revert\n        /* \"--CODEGEN--\":3014:3016   */\n    tag_372:\n        /* \"--CODEGEN--\":3098:3099   */\n      0x0\n        /* \"--CODEGEN--\":3115:3168   */\n      tag_373\n        /* \"--CODEGEN--\":3160:3167   */\n      dup12\n        /* \"--CODEGEN--\":3151:3157   */\n      dup3\n        /* \"--CODEGEN--\":3140:3149   */\n      dup13\n        /* \"--CODEGEN--\":3136:3158   */\n      add\n        /* \"--CODEGEN--\":3115:3168   */\n      jump(tag_334)\n    tag_373:\n        /* \"--CODEGEN--\":3105:3168   */\n      swap9\n      pop\n        /* \"--CODEGEN--\":3077:3174   */\n      pop\n        /* \"--CODEGEN--\":3233:3235   */\n      0x20\n        /* \"--CODEGEN--\":3222:3231   */\n      dup10\n        /* \"--CODEGEN--\":3218:3236   */\n      add\n        /* \"--CODEGEN--\":3205:3237   */\n      calldataload\n        /* \"--CODEGEN--\":3257:3275   */\n      0xffffffffffffffff\n        /* \"--CODEGEN--\":3249:3255   */\n      dup2\n        /* \"--CODEGEN--\":3246:3276   */\n      gt\n        /* \"--CODEGEN--\":3243:3245   */\n      iszero\n      tag_374\n      jumpi\n        /* \"--CODEGEN--\":3289:3290   */\n      0x0\n        /* \"--CODEGEN--\":3286:3287   */\n      dup1\n        /* \"--CODEGEN--\":3279:3291   */\n      revert\n        /* \"--CODEGEN--\":3243:3245   */\n    tag_374:\n        /* \"--CODEGEN--\":3309:3372   */\n      tag_375\n        /* \"--CODEGEN--\":3364:3371   */\n      dup12\n        /* \"--CODEGEN--\":3355:3361   */\n      dup3\n        /* \"--CODEGEN--\":3344:3353   */\n      dup13\n        /* \"--CODEGEN--\":3340:3362   */\n      add\n        /* \"--CODEGEN--\":3309:3372   */\n      jump(tag_338)\n    tag_375:\n        /* \"--CODEGEN--\":3299:3372   */\n      swap8\n      pop\n        /* \"--CODEGEN--\":3184:3378   */\n      pop\n        /* \"--CODEGEN--\":3437:3439   */\n      0x40\n        /* \"--CODEGEN--\":3426:3435   */\n      dup10\n        /* \"--CODEGEN--\":3422:3440   */\n      add\n        /* \"--CODEGEN--\":3409:3441   */\n      calldataload\n        /* \"--CODEGEN--\":3461:3479   */\n      0xffffffffffffffff\n        /* \"--CODEGEN--\":3453:3459   */\n      dup2\n        /* \"--CODEGEN--\":3450:3480   */\n      gt\n        /* \"--CODEGEN--\":3447:3449   */\n      iszero\n      tag_376\n      jumpi\n        /* \"--CODEGEN--\":3493:3494   */\n      0x0\n        /* \"--CODEGEN--\":3490:3491   */\n      dup1\n        /* \"--CODEGEN--\":3483:3495   */\n      revert\n        /* \"--CODEGEN--\":3447:3449   */\n    tag_376:\n        /* \"--CODEGEN--\":3513:3576   */\n      tag_377\n        /* \"--CODEGEN--\":3568:3575   */\n      dup12\n        /* \"--CODEGEN--\":3559:3565   */\n      dup3\n        /* \"--CODEGEN--\":3548:3557   */\n      dup13\n        /* \"--CODEGEN--\":3544:3566   */\n      add\n        /* \"--CODEGEN--\":3513:3576   */\n      jump(tag_338)\n    tag_377:\n        /* \"--CODEGEN--\":3503:3576   */\n      swap7\n      pop\n        /* \"--CODEGEN--\":3388:3582   */\n      pop\n        /* \"--CODEGEN--\":3641:3643   */\n      0x60\n        /* \"--CODEGEN--\":3630:3639   */\n      dup10\n        /* \"--CODEGEN--\":3626:3644   */\n      add\n        /* \"--CODEGEN--\":3613:3645   */\n      calldataload\n        /* \"--CODEGEN--\":3665:3683   */\n      0xffffffffffffffff\n        /* \"--CODEGEN--\":3657:3663   */\n      dup2\n        /* \"--CODEGEN--\":3654:3684   */\n      gt\n        /* \"--CODEGEN--\":3651:3653   */\n      iszero\n      tag_378\n      jumpi\n        /* \"--CODEGEN--\":3697:3698   */\n      0x0\n        /* \"--CODEGEN--\":3694:3695   */\n      dup1\n        /* \"--CODEGEN--\":3687:3699   */\n      revert\n        /* \"--CODEGEN--\":3651:3653   */\n    tag_378:\n        /* \"--CODEGEN--\":3717:3780   */\n      tag_379\n        /* \"--CODEGEN--\":3772:3779   */\n      dup12\n        /* \"--CODEGEN--\":3763:3769   */\n      dup3\n        /* \"--CODEGEN--\":3752:3761   */\n      dup13\n        /* \"--CODEGEN--\":3748:3770   */\n      add\n        /* \"--CODEGEN--\":3717:3780   */\n      jump(tag_338)\n    tag_379:\n        /* \"--CODEGEN--\":3707:3780   */\n      swap6\n      pop\n        /* \"--CODEGEN--\":3592:3786   */\n      pop\n        /* \"--CODEGEN--\":3845:3848   */\n      0x80\n        /* \"--CODEGEN--\":3834:3843   */\n      dup10\n        /* \"--CODEGEN--\":3830:3849   */\n      add\n        /* \"--CODEGEN--\":3817:3850   */\n      calldataload\n        /* \"--CODEGEN--\":3870:3888   */\n      0xffffffffffffffff\n        /* \"--CODEGEN--\":3862:3868   */\n      dup2\n        /* \"--CODEGEN--\":3859:3889   */\n      gt\n        /* \"--CODEGEN--\":3856:3858   */\n      iszero\n      tag_380\n      jumpi\n        /* \"--CODEGEN--\":3902:3903   */\n      0x0\n        /* \"--CODEGEN--\":3899:3900   */\n      dup1\n        /* \"--CODEGEN--\":3892:3904   */\n      revert\n        /* \"--CODEGEN--\":3856:3858   */\n    tag_380:\n        /* \"--CODEGEN--\":3922:3985   */\n      tag_381\n        /* \"--CODEGEN--\":3977:3984   */\n      dup12\n        /* \"--CODEGEN--\":3968:3974   */\n      dup3\n        /* \"--CODEGEN--\":3957:3966   */\n      dup13\n        /* \"--CODEGEN--\":3953:3975   */\n      add\n        /* \"--CODEGEN--\":3922:3985   */\n      jump(tag_338)\n    tag_381:\n        /* \"--CODEGEN--\":3912:3985   */\n      swap5\n      pop\n        /* \"--CODEGEN--\":3796:3991   */\n      pop\n        /* \"--CODEGEN--\":4050:4053   */\n      0xa0\n        /* \"--CODEGEN--\":4039:4048   */\n      dup10\n        /* \"--CODEGEN--\":4035:4054   */\n      add\n        /* \"--CODEGEN--\":4022:4055   */\n      calldataload\n        /* \"--CODEGEN--\":4075:4093   */\n      0xffffffffffffffff\n        /* \"--CODEGEN--\":4067:4073   */\n      dup2\n        /* \"--CODEGEN--\":4064:4094   */\n      gt\n        /* \"--CODEGEN--\":4061:4063   */\n      iszero\n      tag_382\n      jumpi\n        /* \"--CODEGEN--\":4107:4108   */\n      0x0\n        /* \"--CODEGEN--\":4104:4105   */\n      dup1\n        /* \"--CODEGEN--\":4097:4109   */\n      revert\n        /* \"--CODEGEN--\":4061:4063   */\n    tag_382:\n        /* \"--CODEGEN--\":4127:4190   */\n      tag_383\n        /* \"--CODEGEN--\":4182:4189   */\n      dup12\n        /* \"--CODEGEN--\":4173:4179   */\n      dup3\n        /* \"--CODEGEN--\":4162:4171   */\n      dup13\n        /* \"--CODEGEN--\":4158:4180   */\n      add\n        /* \"--CODEGEN--\":4127:4190   */\n      jump(tag_338)\n    tag_383:\n        /* \"--CODEGEN--\":4117:4190   */\n      swap4\n      pop\n        /* \"--CODEGEN--\":4001:4196   */\n      pop\n        /* \"--CODEGEN--\":4255:4258   */\n      0xc0\n        /* \"--CODEGEN--\":4244:4253   */\n      dup10\n        /* \"--CODEGEN--\":4240:4259   */\n      add\n        /* \"--CODEGEN--\":4227:4260   */\n      calldataload\n        /* \"--CODEGEN--\":4280:4298   */\n      0xffffffffffffffff\n        /* \"--CODEGEN--\":4272:4278   */\n      dup2\n        /* \"--CODEGEN--\":4269:4299   */\n      gt\n        /* \"--CODEGEN--\":4266:4268   */\n      iszero\n      tag_384\n      jumpi\n        /* \"--CODEGEN--\":4312:4313   */\n      0x0\n        /* \"--CODEGEN--\":4309:4310   */\n      dup1\n        /* \"--CODEGEN--\":4302:4314   */\n      revert\n        /* \"--CODEGEN--\":4266:4268   */\n    tag_384:\n        /* \"--CODEGEN--\":4332:4395   */\n      tag_385\n        /* \"--CODEGEN--\":4387:4394   */\n      dup12\n        /* \"--CODEGEN--\":4378:4384   */\n      dup3\n        /* \"--CODEGEN--\":4367:4376   */\n      dup13\n        /* \"--CODEGEN--\":4363:4385   */\n      add\n        /* \"--CODEGEN--\":4332:4395   */\n      jump(tag_338)\n    tag_385:\n        /* \"--CODEGEN--\":4322:4395   */\n      swap3\n      pop\n        /* \"--CODEGEN--\":4206:4401   */\n      pop\n        /* \"--CODEGEN--\":4460:4463   */\n      0xe0\n        /* \"--CODEGEN--\":4449:4458   */\n      dup10\n        /* \"--CODEGEN--\":4445:4464   */\n      add\n        /* \"--CODEGEN--\":4432:4465   */\n      calldataload\n        /* \"--CODEGEN--\":4485:4503   */\n      0xffffffffffffffff\n        /* \"--CODEGEN--\":4477:4483   */\n      dup2\n        /* \"--CODEGEN--\":4474:4504   */\n      gt\n        /* \"--CODEGEN--\":4471:4473   */\n      iszero\n      tag_386\n      jumpi\n        /* \"--CODEGEN--\":4517:4518   */\n      0x0\n        /* \"--CODEGEN--\":4514:4515   */\n      dup1\n        /* \"--CODEGEN--\":4507:4519   */\n      revert\n        /* \"--CODEGEN--\":4471:4473   */\n    tag_386:\n        /* \"--CODEGEN--\":4537:4600   */\n      tag_387\n        /* \"--CODEGEN--\":4592:4599   */\n      dup12\n        /* \"--CODEGEN--\":4583:4589   */\n      dup3\n        /* \"--CODEGEN--\":4572:4581   */\n      dup13\n        /* \"--CODEGEN--\":4568:4590   */\n      add\n        /* \"--CODEGEN--\":4537:4600   */\n      jump(tag_338)\n    tag_387:\n        /* \"--CODEGEN--\":4527:4600   */\n      swap2\n      pop\n        /* \"--CODEGEN--\":4411:4606   */\n      pop\n        /* \"--CODEGEN--\":3008:4616   */\n      swap3\n      swap6\n      swap9\n      pop\n      swap3\n      swap6\n      swap9\n      swap1\n      swap4\n      swap7\n      pop\n      jump\n        /* \"--CODEGEN--\":4623:6950   */\n    tag_94:\n      0x0\n      dup1\n      0x0\n      dup1\n      0x0\n      dup1\n      0x0\n      dup1\n      0x0\n      dup1\n        /* \"--CODEGEN--\":4970:4973   */\n      0x140\n        /* \"--CODEGEN--\":4958:4967   */\n      dup12\n        /* \"--CODEGEN--\":4949:4956   */\n      dup14\n        /* \"--CODEGEN--\":4945:4968   */\n      sub\n        /* \"--CODEGEN--\":4941:4974   */\n      slt\n        /* \"--CODEGEN--\":4938:4940   */\n      iszero\n      tag_389\n      jumpi\n        /* \"--CODEGEN--\":4987:4988   */\n      0x0\n        /* \"--CODEGEN--\":4984:4985   */\n      dup1\n        /* \"--CODEGEN--\":4977:4989   */\n      revert\n        /* \"--CODEGEN--\":4938:4940   */\n    tag_389:\n        /* \"--CODEGEN--\":5022:5023   */\n      0x0\n        /* \"--CODEGEN--\":5039:5092   */\n      tag_390\n        /* \"--CODEGEN--\":5084:5091   */\n      dup14\n        /* \"--CODEGEN--\":5075:5081   */\n      dup3\n        /* \"--CODEGEN--\":5064:5073   */\n      dup15\n        /* \"--CODEGEN--\":5060:5082   */\n      add\n        /* \"--CODEGEN--\":5039:5092   */\n      jump(tag_334)\n    tag_390:\n        /* \"--CODEGEN--\":5029:5092   */\n      swap11\n      pop\n        /* \"--CODEGEN--\":5001:5098   */\n      pop\n        /* \"--CODEGEN--\":5157:5159   */\n      0x20\n        /* \"--CODEGEN--\":5146:5155   */\n      dup12\n        /* \"--CODEGEN--\":5142:5160   */\n      add\n        /* \"--CODEGEN--\":5129:5161   */\n      calldataload\n        /* \"--CODEGEN--\":5181:5199   */\n      0xffffffffffffffff\n        /* \"--CODEGEN--\":5173:5179   */\n      dup2\n        /* \"--CODEGEN--\":5170:5200   */\n      gt\n        /* \"--CODEGEN--\":5167:5169   */\n      iszero\n      tag_391\n      jumpi\n        /* \"--CODEGEN--\":5213:5214   */\n      0x0\n        /* \"--CODEGEN--\":5210:5211   */\n      dup1\n        /* \"--CODEGEN--\":5203:5215   */\n      revert\n        /* \"--CODEGEN--\":5167:5169   */\n    tag_391:\n        /* \"--CODEGEN--\":5233:5296   */\n      tag_392\n        /* \"--CODEGEN--\":5288:5295   */\n      dup14\n        /* \"--CODEGEN--\":5279:5285   */\n      dup3\n        /* \"--CODEGEN--\":5268:5277   */\n      dup15\n        /* \"--CODEGEN--\":5264:5286   */\n      add\n        /* \"--CODEGEN--\":5233:5296   */\n      jump(tag_338)\n    tag_392:\n        /* \"--CODEGEN--\":5223:5296   */\n      swap10\n      pop\n        /* \"--CODEGEN--\":5108:5302   */\n      pop\n        /* \"--CODEGEN--\":5361:5363   */\n      0x40\n        /* \"--CODEGEN--\":5350:5359   */\n      dup12\n        /* \"--CODEGEN--\":5346:5364   */\n      add\n        /* \"--CODEGEN--\":5333:5365   */\n      calldataload\n        /* \"--CODEGEN--\":5385:5403   */\n      0xffffffffffffffff\n        /* \"--CODEGEN--\":5377:5383   */\n      dup2\n        /* \"--CODEGEN--\":5374:5404   */\n      gt\n        /* \"--CODEGEN--\":5371:5373   */\n      iszero\n      tag_393\n      jumpi\n        /* \"--CODEGEN--\":5417:5418   */\n      0x0\n        /* \"--CODEGEN--\":5414:5415   */\n      dup1\n        /* \"--CODEGEN--\":5407:5419   */\n      revert\n        /* \"--CODEGEN--\":5371:5373   */\n    tag_393:\n        /* \"--CODEGEN--\":5437:5500   */\n      tag_394\n        /* \"--CODEGEN--\":5492:5499   */\n      dup14\n        /* \"--CODEGEN--\":5483:5489   */\n      dup3\n        /* \"--CODEGEN--\":5472:5481   */\n      dup15\n        /* \"--CODEGEN--\":5468:5490   */\n      add\n        /* \"--CODEGEN--\":5437:5500   */\n      jump(tag_338)\n    tag_394:\n        /* \"--CODEGEN--\":5427:5500   */\n      swap9\n      pop\n        /* \"--CODEGEN--\":5312:5506   */\n      pop\n        /* \"--CODEGEN--\":5565:5567   */\n      0x60\n        /* \"--CODEGEN--\":5554:5563   */\n      dup12\n        /* \"--CODEGEN--\":5550:5568   */\n      add\n        /* \"--CODEGEN--\":5537:5569   */\n      calldataload\n        /* \"--CODEGEN--\":5589:5607   */\n      0xffffffffffffffff\n        /* \"--CODEGEN--\":5581:5587   */\n      dup2\n        /* \"--CODEGEN--\":5578:5608   */\n      gt\n        /* \"--CODEGEN--\":5575:5577   */\n      iszero\n      tag_395\n      jumpi\n        /* \"--CODEGEN--\":5621:5622   */\n      0x0\n        /* \"--CODEGEN--\":5618:5619   */\n      dup1\n        /* \"--CODEGEN--\":5611:5623   */\n      revert\n        /* \"--CODEGEN--\":5575:5577   */\n    tag_395:\n        /* \"--CODEGEN--\":5641:5704   */\n      tag_396\n        /* \"--CODEGEN--\":5696:5703   */\n      dup14\n        /* \"--CODEGEN--\":5687:5693   */\n      dup3\n        /* \"--CODEGEN--\":5676:5685   */\n      dup15\n        /* \"--CODEGEN--\":5672:5694   */\n      add\n        /* \"--CODEGEN--\":5641:5704   */\n      jump(tag_338)\n    tag_396:\n        /* \"--CODEGEN--\":5631:5704   */\n      swap8\n      pop\n        /* \"--CODEGEN--\":5516:5710   */\n      pop\n        /* \"--CODEGEN--\":5769:5772   */\n      0x80\n        /* \"--CODEGEN--\":5758:5767   */\n      dup12\n        /* \"--CODEGEN--\":5754:5773   */\n      add\n        /* \"--CODEGEN--\":5741:5774   */\n      calldataload\n        /* \"--CODEGEN--\":5794:5812   */\n      0xffffffffffffffff\n        /* \"--CODEGEN--\":5786:5792   */\n      dup2\n        /* \"--CODEGEN--\":5783:5813   */\n      gt\n        /* \"--CODEGEN--\":5780:5782   */\n      iszero\n      tag_397\n      jumpi\n        /* \"--CODEGEN--\":5826:5827   */\n      0x0\n        /* \"--CODEGEN--\":5823:5824   */\n      dup1\n        /* \"--CODEGEN--\":5816:5828   */\n      revert\n        /* \"--CODEGEN--\":5780:5782   */\n    tag_397:\n        /* \"--CODEGEN--\":5846:5909   */\n      tag_398\n        /* \"--CODEGEN--\":5901:5908   */\n      dup14\n        /* \"--CODEGEN--\":5892:5898   */\n      dup3\n        /* \"--CODEGEN--\":5881:5890   */\n      dup15\n        /* \"--CODEGEN--\":5877:5899   */\n      add\n        /* \"--CODEGEN--\":5846:5909   */\n      jump(tag_338)\n    tag_398:\n        /* \"--CODEGEN--\":5836:5909   */\n      swap7\n      pop\n        /* \"--CODEGEN--\":5720:5915   */\n      pop\n        /* \"--CODEGEN--\":5974:5977   */\n      0xa0\n        /* \"--CODEGEN--\":5963:5972   */\n      dup12\n        /* \"--CODEGEN--\":5959:5978   */\n      add\n        /* \"--CODEGEN--\":5946:5979   */\n      calldataload\n        /* \"--CODEGEN--\":5999:6017   */\n      0xffffffffffffffff\n        /* \"--CODEGEN--\":5991:5997   */\n      dup2\n        /* \"--CODEGEN--\":5988:6018   */\n      gt\n        /* \"--CODEGEN--\":5985:5987   */\n      iszero\n      tag_399\n      jumpi\n        /* \"--CODEGEN--\":6031:6032   */\n      0x0\n        /* \"--CODEGEN--\":6028:6029   */\n      dup1\n        /* \"--CODEGEN--\":6021:6033   */\n      revert\n        /* \"--CODEGEN--\":5985:5987   */\n    tag_399:\n        /* \"--CODEGEN--\":6051:6114   */\n      tag_400\n        /* \"--CODEGEN--\":6106:6113   */\n      dup14\n        /* \"--CODEGEN--\":6097:6103   */\n      dup3\n        /* \"--CODEGEN--\":6086:6095   */\n      dup15\n        /* \"--CODEGEN--\":6082:6104   */\n      add\n        /* \"--CODEGEN--\":6051:6114   */\n      jump(tag_338)\n    tag_400:\n        /* \"--CODEGEN--\":6041:6114   */\n      swap6\n      pop\n        /* \"--CODEGEN--\":5925:6120   */\n      pop\n        /* \"--CODEGEN--\":6179:6182   */\n      0xc0\n        /* \"--CODEGEN--\":6168:6177   */\n      dup12\n        /* \"--CODEGEN--\":6164:6183   */\n      add\n        /* \"--CODEGEN--\":6151:6184   */\n      calldataload\n        /* \"--CODEGEN--\":6204:6222   */\n      0xffffffffffffffff\n        /* \"--CODEGEN--\":6196:6202   */\n      dup2\n        /* \"--CODEGEN--\":6193:6223   */\n      gt\n        /* \"--CODEGEN--\":6190:6192   */\n      iszero\n      tag_401\n      jumpi\n        /* \"--CODEGEN--\":6236:6237   */\n      0x0\n        /* \"--CODEGEN--\":6233:6234   */\n      dup1\n        /* \"--CODEGEN--\":6226:6238   */\n      revert\n        /* \"--CODEGEN--\":6190:6192   */\n    tag_401:\n        /* \"--CODEGEN--\":6256:6319   */\n      tag_402\n        /* \"--CODEGEN--\":6311:6318   */\n      dup14\n        /* \"--CODEGEN--\":6302:6308   */\n      dup3\n        /* \"--CODEGEN--\":6291:6300   */\n      dup15\n        /* \"--CODEGEN--\":6287:6309   */\n      add\n        /* \"--CODEGEN--\":6256:6319   */\n      jump(tag_338)\n    tag_402:\n        /* \"--CODEGEN--\":6246:6319   */\n      swap5\n      pop\n        /* \"--CODEGEN--\":6130:6325   */\n      pop\n        /* \"--CODEGEN--\":6384:6387   */\n      0xe0\n        /* \"--CODEGEN--\":6373:6382   */\n      dup12\n        /* \"--CODEGEN--\":6369:6388   */\n      add\n        /* \"--CODEGEN--\":6356:6389   */\n      calldataload\n        /* \"--CODEGEN--\":6409:6427   */\n      0xffffffffffffffff\n        /* \"--CODEGEN--\":6401:6407   */\n      dup2\n        /* \"--CODEGEN--\":6398:6428   */\n      gt\n        /* \"--CODEGEN--\":6395:6397   */\n      iszero\n      tag_403\n      jumpi\n        /* \"--CODEGEN--\":6441:6442   */\n      0x0\n        /* \"--CODEGEN--\":6438:6439   */\n      dup1\n        /* \"--CODEGEN--\":6431:6443   */\n      revert\n        /* \"--CODEGEN--\":6395:6397   */\n    tag_403:\n        /* \"--CODEGEN--\":6461:6524   */\n      tag_404\n        /* \"--CODEGEN--\":6516:6523   */\n      dup14\n        /* \"--CODEGEN--\":6507:6513   */\n      dup3\n        /* \"--CODEGEN--\":6496:6505   */\n      dup15\n        /* \"--CODEGEN--\":6492:6514   */\n      add\n        /* \"--CODEGEN--\":6461:6524   */\n      jump(tag_338)\n    tag_404:\n        /* \"--CODEGEN--\":6451:6524   */\n      swap4\n      pop\n        /* \"--CODEGEN--\":6335:6530   */\n      pop\n        /* \"--CODEGEN--\":6589:6592   */\n      0x100\n        /* \"--CODEGEN--\":6578:6587   */\n      dup12\n        /* \"--CODEGEN--\":6574:6593   */\n      add\n        /* \"--CODEGEN--\":6561:6594   */\n      calldataload\n        /* \"--CODEGEN--\":6614:6632   */\n      0xffffffffffffffff\n        /* \"--CODEGEN--\":6606:6612   */\n      dup2\n        /* \"--CODEGEN--\":6603:6633   */\n      gt\n        /* \"--CODEGEN--\":6600:6602   */\n      iszero\n      tag_405\n      jumpi\n        /* \"--CODEGEN--\":6646:6647   */\n      0x0\n        /* \"--CODEGEN--\":6643:6644   */\n      dup1\n        /* \"--CODEGEN--\":6636:6648   */\n      revert\n        /* \"--CODEGEN--\":6600:6602   */\n    tag_405:\n        /* \"--CODEGEN--\":6666:6729   */\n      tag_406\n        /* \"--CODEGEN--\":6721:6728   */\n      dup14\n        /* \"--CODEGEN--\":6712:6718   */\n      dup3\n        /* \"--CODEGEN--\":6701:6710   */\n      dup15\n        /* \"--CODEGEN--\":6697:6719   */\n      add\n        /* \"--CODEGEN--\":6666:6729   */\n      jump(tag_338)\n    tag_406:\n        /* \"--CODEGEN--\":6656:6729   */\n      swap3\n      pop\n        /* \"--CODEGEN--\":6540:6735   */\n      pop\n        /* \"--CODEGEN--\":6794:6797   */\n      0x120\n        /* \"--CODEGEN--\":6783:6792   */\n      dup12\n        /* \"--CODEGEN--\":6779:6798   */\n      add\n        /* \"--CODEGEN--\":6766:6799   */\n      calldataload\n        /* \"--CODEGEN--\":6819:6837   */\n      0xffffffffffffffff\n        /* \"--CODEGEN--\":6811:6817   */\n      dup2\n        /* \"--CODEGEN--\":6808:6838   */\n      gt\n        /* \"--CODEGEN--\":6805:6807   */\n      iszero\n      tag_407\n      jumpi\n        /* \"--CODEGEN--\":6851:6852   */\n      0x0\n        /* \"--CODEGEN--\":6848:6849   */\n      dup1\n        /* \"--CODEGEN--\":6841:6853   */\n      revert\n        /* \"--CODEGEN--\":6805:6807   */\n    tag_407:\n        /* \"--CODEGEN--\":6871:6934   */\n      tag_408\n        /* \"--CODEGEN--\":6926:6933   */\n      dup14\n        /* \"--CODEGEN--\":6917:6923   */\n      dup3\n        /* \"--CODEGEN--\":6906:6915   */\n      dup15\n        /* \"--CODEGEN--\":6902:6924   */\n      add\n        /* \"--CODEGEN--\":6871:6934   */\n      jump(tag_338)\n    tag_408:\n        /* \"--CODEGEN--\":6861:6934   */\n      swap2\n      pop\n        /* \"--CODEGEN--\":6745:6940   */\n      pop\n        /* \"--CODEGEN--\":4932:6950   */\n      swap3\n      swap6\n      swap9\n      swap12\n      swap2\n      swap5\n      swap8\n      swap11\n      pop\n      swap3\n      swap6\n      swap9\n      pop\n      jump\n        /* \"--CODEGEN--\":6957:7198   */\n    tag_56:\n      0x0\n        /* \"--CODEGEN--\":7061:7063   */\n      0x20\n        /* \"--CODEGEN--\":7049:7058   */\n      dup3\n        /* \"--CODEGEN--\":7040:7047   */\n      dup5\n        /* \"--CODEGEN--\":7036:7059   */\n      sub\n        /* \"--CODEGEN--\":7032:7064   */\n      slt\n        /* \"--CODEGEN--\":7029:7031   */\n      iszero\n      tag_410\n      jumpi\n        /* \"--CODEGEN--\":7077:7078   */\n      0x0\n        /* \"--CODEGEN--\":7074:7075   */\n      dup1\n        /* \"--CODEGEN--\":7067:7079   */\n      revert\n        /* \"--CODEGEN--\":7029:7031   */\n    tag_410:\n        /* \"--CODEGEN--\":7112:7113   */\n      0x0\n        /* \"--CODEGEN--\":7129:7182   */\n      tag_411\n        /* \"--CODEGEN--\":7174:7181   */\n      dup5\n        /* \"--CODEGEN--\":7165:7171   */\n      dup3\n        /* \"--CODEGEN--\":7154:7163   */\n      dup6\n        /* \"--CODEGEN--\":7150:7172   */\n      add\n        /* \"--CODEGEN--\":7129:7182   */\n      jump(tag_348)\n    tag_411:\n        /* \"--CODEGEN--\":7119:7182   */\n      swap2\n      pop\n        /* \"--CODEGEN--\":7091:7188   */\n      pop\n        /* \"--CODEGEN--\":7023:7198   */\n      swap3\n      swap2\n      pop\n      pop\n      jump\n        /* \"--CODEGEN--\":7205:7315   */\n    tag_413:\n        /* \"--CODEGEN--\":7278:7309   */\n      tag_414\n        /* \"--CODEGEN--\":7303:7308   */\n      dup2\n        /* \"--CODEGEN--\":7278:7309   */\n      jump(tag_415)\n    tag_414:\n        /* \"--CODEGEN--\":7273:7276   */\n      dup3\n        /* \"--CODEGEN--\":7266:7310   */\n      mstore\n        /* \"--CODEGEN--\":7260:7315   */\n      pop\n      pop\n      jump\n        /* \"--CODEGEN--\":7353:7943   */\n    tag_417:\n      0x0\n        /* \"--CODEGEN--\":7488:7542   */\n      tag_418\n        /* \"--CODEGEN--\":7536:7541   */\n      dup3\n        /* \"--CODEGEN--\":7488:7542   */\n      jump(tag_419)\n    tag_418:\n        /* \"--CODEGEN--\":7560:7566   */\n      dup1\n        /* \"--CODEGEN--\":7555:7558   */\n      dup5\n        /* \"--CODEGEN--\":7548:7567   */\n      mstore\n        /* \"--CODEGEN--\":7584:7588   */\n      0x20\n        /* \"--CODEGEN--\":7579:7582   */\n      dup5\n        /* \"--CODEGEN--\":7575:7589   */\n      add\n        /* \"--CODEGEN--\":7568:7589   */\n      swap4\n      pop\n        /* \"--CODEGEN--\":7629:7685   */\n      tag_420\n        /* \"--CODEGEN--\":7679:7684   */\n      dup4\n        /* \"--CODEGEN--\":7629:7685   */\n      jump(tag_421)\n    tag_420:\n        /* \"--CODEGEN--\":7706:7707   */\n      0x0\n        /* \"--CODEGEN--\":7691:7921   */\n    tag_422:\n        /* \"--CODEGEN--\":7716:7722   */\n      dup3\n        /* \"--CODEGEN--\":7713:7714   */\n      dup2\n        /* \"--CODEGEN--\":7710:7723   */\n      lt\n        /* \"--CODEGEN--\":7691:7921   */\n      iszero\n      tag_423\n      jumpi\n        /* \"--CODEGEN--\":7756:7809   */\n      tag_425\n        /* \"--CODEGEN--\":7805:7808   */\n      dup7\n        /* \"--CODEGEN--\":7796:7802   */\n      dup4\n        /* \"--CODEGEN--\":7790:7803   */\n      mload\n        /* \"--CODEGEN--\":7756:7809   */\n      jump(tag_413)\n    tag_425:\n        /* \"--CODEGEN--\":7826:7886   */\n      tag_426\n        /* \"--CODEGEN--\":7879:7885   */\n      dup3\n        /* \"--CODEGEN--\":7826:7886   */\n      jump(tag_427)\n    tag_426:\n        /* \"--CODEGEN--\":7816:7886   */\n      swap2\n      pop\n        /* \"--CODEGEN--\":7909:7913   */\n      0x20\n        /* \"--CODEGEN--\":7904:7907   */\n      dup7\n        /* \"--CODEGEN--\":7900:7914   */\n      add\n        /* \"--CODEGEN--\":7893:7914   */\n      swap6\n      pop\n        /* \"--CODEGEN--\":7738:7739   */\n      0x1\n        /* \"--CODEGEN--\":7735:7736   */\n      dup2\n        /* \"--CODEGEN--\":7731:7740   */\n      add\n        /* \"--CODEGEN--\":7726:7740   */\n      swap1\n      pop\n        /* \"--CODEGEN--\":7691:7921   */\n      jump(tag_422)\n    tag_423:\n        /* \"--CODEGEN--\":7695:7709   */\n      pop\n        /* \"--CODEGEN--\":7934:7937   */\n      dup5\n        /* \"--CODEGEN--\":7927:7937   */\n      swap3\n      pop\n        /* \"--CODEGEN--\":7467:7943   */\n      pop\n      pop\n      swap3\n      swap2\n      pop\n      pop\n      jump\n        /* \"--CODEGEN--\":7951:8052   */\n    tag_429:\n        /* \"--CODEGEN--\":8018:8046   */\n      tag_430\n        /* \"--CODEGEN--\":8040:8045   */\n      dup2\n        /* \"--CODEGEN--\":8018:8046   */\n      jump(tag_431)\n    tag_430:\n        /* \"--CODEGEN--\":8013:8016   */\n      dup3\n        /* \"--CODEGEN--\":8006:8047   */\n      mstore\n        /* \"--CODEGEN--\":8000:8052   */\n      pop\n      pop\n      jump\n        /* \"--CODEGEN--\":8059:8359   */\n    tag_433:\n      0x0\n        /* \"--CODEGEN--\":8161:8200   */\n      tag_434\n        /* \"--CODEGEN--\":8194:8199   */\n      dup3\n        /* \"--CODEGEN--\":8161:8200   */\n      jump(tag_435)\n    tag_434:\n        /* \"--CODEGEN--\":8217:8223   */\n      dup1\n        /* \"--CODEGEN--\":8212:8215   */\n      dup5\n        /* \"--CODEGEN--\":8205:8224   */\n      mstore\n        /* \"--CODEGEN--\":8229:8292   */\n      tag_436\n        /* \"--CODEGEN--\":8285:8291   */\n      dup2\n        /* \"--CODEGEN--\":8278:8282   */\n      0x20\n        /* \"--CODEGEN--\":8273:8276   */\n      dup7\n        /* \"--CODEGEN--\":8269:8283   */\n      add\n        /* \"--CODEGEN--\":8262:8266   */\n      0x20\n        /* \"--CODEGEN--\":8255:8260   */\n      dup7\n        /* \"--CODEGEN--\":8251:8267   */\n      add\n        /* \"--CODEGEN--\":8229:8292   */\n      jump(tag_437)\n    tag_436:\n        /* \"--CODEGEN--\":8324:8353   */\n      tag_438\n        /* \"--CODEGEN--\":8346:8352   */\n      dup2\n        /* \"--CODEGEN--\":8324:8353   */\n      jump(tag_439)\n    tag_438:\n        /* \"--CODEGEN--\":8317:8321   */\n      0x20\n        /* \"--CODEGEN--\":8312:8315   */\n      dup6\n        /* \"--CODEGEN--\":8308:8322   */\n      add\n        /* \"--CODEGEN--\":8304:8354   */\n      add\n        /* \"--CODEGEN--\":8297:8354   */\n      swap2\n      pop\n        /* \"--CODEGEN--\":8141:8359   */\n      pop\n      swap3\n      swap2\n      pop\n      pop\n      jump\n        /* \"--CODEGEN--\":8366:8476   */\n    tag_441:\n        /* \"--CODEGEN--\":8439:8470   */\n      tag_442\n        /* \"--CODEGEN--\":8464:8469   */\n      dup2\n        /* \"--CODEGEN--\":8439:8470   */\n      jump(tag_443)\n    tag_442:\n        /* \"--CODEGEN--\":8434:8437   */\n      dup3\n        /* \"--CODEGEN--\":8427:8471   */\n      mstore\n        /* \"--CODEGEN--\":8421:8476   */\n      pop\n      pop\n      jump\n        /* \"--CODEGEN--\":8483:8676   */\n    tag_59:\n      0x0\n        /* \"--CODEGEN--\":8591:8593   */\n      0x20\n        /* \"--CODEGEN--\":8580:8589   */\n      dup3\n        /* \"--CODEGEN--\":8576:8594   */\n      add\n        /* \"--CODEGEN--\":8568:8594   */\n      swap1\n      pop\n        /* \"--CODEGEN--\":8605:8666   */\n      tag_445\n        /* \"--CODEGEN--\":8663:8664   */\n      0x0\n        /* \"--CODEGEN--\":8652:8661   */\n      dup4\n        /* \"--CODEGEN--\":8648:8665   */\n      add\n        /* \"--CODEGEN--\":8639:8645   */\n      dup5\n        /* \"--CODEGEN--\":8605:8666   */\n      jump(tag_413)\n    tag_445:\n        /* \"--CODEGEN--\":8562:8676   */\n      swap3\n      swap2\n      pop\n      pop\n      jump\n        /* \"--CODEGEN--\":8683:9024   */\n    tag_36:\n      0x0\n        /* \"--CODEGEN--\":8841:8843   */\n      0x20\n        /* \"--CODEGEN--\":8830:8839   */\n      dup3\n        /* \"--CODEGEN--\":8826:8844   */\n      add\n        /* \"--CODEGEN--\":8818:8844   */\n      swap1\n      pop\n        /* \"--CODEGEN--\":8891:8900   */\n      dup2\n        /* \"--CODEGEN--\":8885:8889   */\n      dup2\n        /* \"--CODEGEN--\":8881:8901   */\n      sub\n        /* \"--CODEGEN--\":8877:8878   */\n      0x0\n        /* \"--CODEGEN--\":8866:8875   */\n      dup4\n        /* \"--CODEGEN--\":8862:8879   */\n      add\n        /* \"--CODEGEN--\":8855:8902   */\n      mstore\n        /* \"--CODEGEN--\":8916:9014   */\n      tag_447\n        /* \"--CODEGEN--\":9009:9013   */\n      dup2\n        /* \"--CODEGEN--\":9000:9006   */\n      dup5\n        /* \"--CODEGEN--\":8916:9014   */\n      jump(tag_417)\n    tag_447:\n        /* \"--CODEGEN--\":8908:9014   */\n      swap1\n      pop\n        /* \"--CODEGEN--\":8812:9024   */\n      swap3\n      swap2\n      pop\n      pop\n      jump\n        /* \"--CODEGEN--\":9031:9212   */\n    tag_74:\n      0x0\n        /* \"--CODEGEN--\":9133:9135   */\n      0x20\n        /* \"--CODEGEN--\":9122:9131   */\n      dup3\n        /* \"--CODEGEN--\":9118:9136   */\n      add\n        /* \"--CODEGEN--\":9110:9136   */\n      swap1\n      pop\n        /* \"--CODEGEN--\":9147:9202   */\n      tag_449\n        /* \"--CODEGEN--\":9199:9200   */\n      0x0\n        /* \"--CODEGEN--\":9188:9197   */\n      dup4\n        /* \"--CODEGEN--\":9184:9201   */\n      add\n        /* \"--CODEGEN--\":9175:9181   */\n      dup5\n        /* \"--CODEGEN--\":9147:9202   */\n      jump(tag_429)\n    tag_449:\n        /* \"--CODEGEN--\":9104:9212   */\n      swap3\n      swap2\n      pop\n      pop\n      jump\n        /* \"--CODEGEN--\":9219:10740   */\n    tag_48:\n      0x0\n        /* \"--CODEGEN--\":9663:9666   */\n      0x100\n        /* \"--CODEGEN--\":9652:9661   */\n      dup3\n        /* \"--CODEGEN--\":9648:9667   */\n      add\n        /* \"--CODEGEN--\":9640:9667   */\n      swap1\n      pop\n        /* \"--CODEGEN--\":9714:9723   */\n      dup2\n        /* \"--CODEGEN--\":9708:9712   */\n      dup2\n        /* \"--CODEGEN--\":9704:9724   */\n      sub\n        /* \"--CODEGEN--\":9700:9701   */\n      0x0\n        /* \"--CODEGEN--\":9689:9698   */\n      dup4\n        /* \"--CODEGEN--\":9685:9702   */\n      add\n        /* \"--CODEGEN--\":9678:9725   */\n      mstore\n        /* \"--CODEGEN--\":9739:9807   */\n      tag_451\n        /* \"--CODEGEN--\":9802:9806   */\n      dup2\n        /* \"--CODEGEN--\":9793:9799   */\n      dup12\n        /* \"--CODEGEN--\":9739:9807   */\n      jump(tag_433)\n    tag_451:\n        /* \"--CODEGEN--\":9731:9807   */\n      swap1\n      pop\n        /* \"--CODEGEN--\":9855:9864   */\n      dup2\n        /* \"--CODEGEN--\":9849:9853   */\n      dup2\n        /* \"--CODEGEN--\":9845:9865   */\n      sub\n        /* \"--CODEGEN--\":9840:9842   */\n      0x20\n        /* \"--CODEGEN--\":9829:9838   */\n      dup4\n        /* \"--CODEGEN--\":9825:9843   */\n      add\n        /* \"--CODEGEN--\":9818:9866   */\n      mstore\n        /* \"--CODEGEN--\":9880:9948   */\n      tag_452\n        /* \"--CODEGEN--\":9943:9947   */\n      dup2\n        /* \"--CODEGEN--\":9934:9940   */\n      dup11\n        /* \"--CODEGEN--\":9880:9948   */\n      jump(tag_433)\n    tag_452:\n        /* \"--CODEGEN--\":9872:9948   */\n      swap1\n      pop\n        /* \"--CODEGEN--\":9996:10005   */\n      dup2\n        /* \"--CODEGEN--\":9990:9994   */\n      dup2\n        /* \"--CODEGEN--\":9986:10006   */\n      sub\n        /* \"--CODEGEN--\":9981:9983   */\n      0x40\n        /* \"--CODEGEN--\":9970:9979   */\n      dup4\n        /* \"--CODEGEN--\":9966:9984   */\n      add\n        /* \"--CODEGEN--\":9959:10007   */\n      mstore\n        /* \"--CODEGEN--\":10021:10089   */\n      tag_453\n        /* \"--CODEGEN--\":10084:10088   */\n      dup2\n        /* \"--CODEGEN--\":10075:10081   */\n      dup10\n        /* \"--CODEGEN--\":10021:10089   */\n      jump(tag_433)\n    tag_453:\n        /* \"--CODEGEN--\":10013:10089   */\n      swap1\n      pop\n        /* \"--CODEGEN--\":10137:10146   */\n      dup2\n        /* \"--CODEGEN--\":10131:10135   */\n      dup2\n        /* \"--CODEGEN--\":10127:10147   */\n      sub\n        /* \"--CODEGEN--\":10122:10124   */\n      0x60\n        /* \"--CODEGEN--\":10111:10120   */\n      dup4\n        /* \"--CODEGEN--\":10107:10125   */\n      add\n        /* \"--CODEGEN--\":10100:10148   */\n      mstore\n        /* \"--CODEGEN--\":10162:10230   */\n      tag_454\n        /* \"--CODEGEN--\":10225:10229   */\n      dup2\n        /* \"--CODEGEN--\":10216:10222   */\n      dup9\n        /* \"--CODEGEN--\":10162:10230   */\n      jump(tag_433)\n    tag_454:\n        /* \"--CODEGEN--\":10154:10230   */\n      swap1\n      pop\n        /* \"--CODEGEN--\":10279:10288   */\n      dup2\n        /* \"--CODEGEN--\":10273:10277   */\n      dup2\n        /* \"--CODEGEN--\":10269:10289   */\n      sub\n        /* \"--CODEGEN--\":10263:10266   */\n      0x80\n        /* \"--CODEGEN--\":10252:10261   */\n      dup4\n        /* \"--CODEGEN--\":10248:10267   */\n      add\n        /* \"--CODEGEN--\":10241:10290   */\n      mstore\n        /* \"--CODEGEN--\":10304:10372   */\n      tag_455\n        /* \"--CODEGEN--\":10367:10371   */\n      dup2\n        /* \"--CODEGEN--\":10358:10364   */\n      dup8\n        /* \"--CODEGEN--\":10304:10372   */\n      jump(tag_433)\n    tag_455:\n        /* \"--CODEGEN--\":10296:10372   */\n      swap1\n      pop\n        /* \"--CODEGEN--\":10421:10430   */\n      dup2\n        /* \"--CODEGEN--\":10415:10419   */\n      dup2\n        /* \"--CODEGEN--\":10411:10431   */\n      sub\n        /* \"--CODEGEN--\":10405:10408   */\n      0xa0\n        /* \"--CODEGEN--\":10394:10403   */\n      dup4\n        /* \"--CODEGEN--\":10390:10409   */\n      add\n        /* \"--CODEGEN--\":10383:10432   */\n      mstore\n        /* \"--CODEGEN--\":10446:10514   */\n      tag_456\n        /* \"--CODEGEN--\":10509:10513   */\n      dup2\n        /* \"--CODEGEN--\":10500:10506   */\n      dup7\n        /* \"--CODEGEN--\":10446:10514   */\n      jump(tag_433)\n    tag_456:\n        /* \"--CODEGEN--\":10438:10514   */\n      swap1\n      pop\n        /* \"--CODEGEN--\":10563:10572   */\n      dup2\n        /* \"--CODEGEN--\":10557:10561   */\n      dup2\n        /* \"--CODEGEN--\":10553:10573   */\n      sub\n        /* \"--CODEGEN--\":10547:10550   */\n      0xc0\n        /* \"--CODEGEN--\":10536:10545   */\n      dup4\n        /* \"--CODEGEN--\":10532:10551   */\n      add\n        /* \"--CODEGEN--\":10525:10574   */\n      mstore\n        /* \"--CODEGEN--\":10588:10656   */\n      tag_457\n        /* \"--CODEGEN--\":10651:10655   */\n      dup2\n        /* \"--CODEGEN--\":10642:10648   */\n      dup6\n        /* \"--CODEGEN--\":10588:10656   */\n      jump(tag_433)\n    tag_457:\n        /* \"--CODEGEN--\":10580:10656   */\n      swap1\n      pop\n        /* \"--CODEGEN--\":10667:10730   */\n      tag_458\n        /* \"--CODEGEN--\":10725:10728   */\n      0xe0\n        /* \"--CODEGEN--\":10714:10723   */\n      dup4\n        /* \"--CODEGEN--\":10710:10729   */\n      add\n        /* \"--CODEGEN--\":10701:10707   */\n      dup5\n        /* \"--CODEGEN--\":10667:10730   */\n      jump(tag_413)\n    tag_458:\n        /* \"--CODEGEN--\":9634:10740   */\n      swap10\n      swap9\n      pop\n      pop\n      pop\n      pop\n      pop\n      pop\n      pop\n      pop\n      pop\n      jump\n        /* \"--CODEGEN--\":10747:11902   */\n    tag_118:\n      0x0\n        /* \"--CODEGEN--\":11103:11106   */\n      0xe0\n        /* \"--CODEGEN--\":11092:11101   */\n      dup3\n        /* \"--CODEGEN--\":11088:11107   */\n      add\n        /* \"--CODEGEN--\":11080:11107   */\n      swap1\n      pop\n        /* \"--CODEGEN--\":11154:11163   */\n      dup2\n        /* \"--CODEGEN--\":11148:11152   */\n      dup2\n        /* \"--CODEGEN--\":11144:11164   */\n      sub\n        /* \"--CODEGEN--\":11140:11141   */\n      0x0\n        /* \"--CODEGEN--\":11129:11138   */\n      dup4\n        /* \"--CODEGEN--\":11125:11142   */\n      add\n        /* \"--CODEGEN--\":11118:11165   */\n      mstore\n        /* \"--CODEGEN--\":11179:11247   */\n      tag_460\n        /* \"--CODEGEN--\":11242:11246   */\n      dup2\n        /* \"--CODEGEN--\":11233:11239   */\n      dup11\n        /* \"--CODEGEN--\":11179:11247   */\n      jump(tag_433)\n    tag_460:\n        /* \"--CODEGEN--\":11171:11247   */\n      swap1\n      pop\n        /* \"--CODEGEN--\":11295:11304   */\n      dup2\n        /* \"--CODEGEN--\":11289:11293   */\n      dup2\n        /* \"--CODEGEN--\":11285:11305   */\n      sub\n        /* \"--CODEGEN--\":11280:11282   */\n      0x20\n        /* \"--CODEGEN--\":11269:11278   */\n      dup4\n        /* \"--CODEGEN--\":11265:11283   */\n      add\n        /* \"--CODEGEN--\":11258:11306   */\n      mstore\n        /* \"--CODEGEN--\":11320:11388   */\n      tag_461\n        /* \"--CODEGEN--\":11383:11387   */\n      dup2\n        /* \"--CODEGEN--\":11374:11380   */\n      dup10\n        /* \"--CODEGEN--\":11320:11388   */\n      jump(tag_433)\n    tag_461:\n        /* \"--CODEGEN--\":11312:11388   */\n      swap1\n      pop\n        /* \"--CODEGEN--\":11436:11445   */\n      dup2\n        /* \"--CODEGEN--\":11430:11434   */\n      dup2\n        /* \"--CODEGEN--\":11426:11446   */\n      sub\n        /* \"--CODEGEN--\":11421:11423   */\n      0x40\n        /* \"--CODEGEN--\":11410:11419   */\n      dup4\n        /* \"--CODEGEN--\":11406:11424   */\n      add\n        /* \"--CODEGEN--\":11399:11447   */\n      mstore\n        /* \"--CODEGEN--\":11461:11529   */\n      tag_462\n        /* \"--CODEGEN--\":11524:11528   */\n      dup2\n        /* \"--CODEGEN--\":11515:11521   */\n      dup9\n        /* \"--CODEGEN--\":11461:11529   */\n      jump(tag_433)\n    tag_462:\n        /* \"--CODEGEN--\":11453:11529   */\n      swap1\n      pop\n        /* \"--CODEGEN--\":11577:11586   */\n      dup2\n        /* \"--CODEGEN--\":11571:11575   */\n      dup2\n        /* \"--CODEGEN--\":11567:11587   */\n      sub\n        /* \"--CODEGEN--\":11562:11564   */\n      0x60\n        /* \"--CODEGEN--\":11551:11560   */\n      dup4\n        /* \"--CODEGEN--\":11547:11565   */\n      add\n        /* \"--CODEGEN--\":11540:11588   */\n      mstore\n        /* \"--CODEGEN--\":11602:11670   */\n      tag_463\n        /* \"--CODEGEN--\":11665:11669   */\n      dup2\n        /* \"--CODEGEN--\":11656:11662   */\n      dup8\n        /* \"--CODEGEN--\":11602:11670   */\n      jump(tag_433)\n    tag_463:\n        /* \"--CODEGEN--\":11594:11670   */\n      swap1\n      pop\n        /* \"--CODEGEN--\":11681:11744   */\n      tag_464\n        /* \"--CODEGEN--\":11739:11742   */\n      0x80\n        /* \"--CODEGEN--\":11728:11737   */\n      dup4\n        /* \"--CODEGEN--\":11724:11743   */\n      add\n        /* \"--CODEGEN--\":11715:11721   */\n      dup7\n        /* \"--CODEGEN--\":11681:11744   */\n      jump(tag_441)\n    tag_464:\n        /* \"--CODEGEN--\":11755:11818   */\n      tag_465\n        /* \"--CODEGEN--\":11813:11816   */\n      0xa0\n        /* \"--CODEGEN--\":11802:11811   */\n      dup4\n        /* \"--CODEGEN--\":11798:11817   */\n      add\n        /* \"--CODEGEN--\":11789:11795   */\n      dup6\n        /* \"--CODEGEN--\":11755:11818   */\n      jump(tag_413)\n    tag_465:\n        /* \"--CODEGEN--\":11829:11892   */\n      tag_466\n        /* \"--CODEGEN--\":11887:11890   */\n      0xc0\n        /* \"--CODEGEN--\":11876:11885   */\n      dup4\n        /* \"--CODEGEN--\":11872:11891   */\n      add\n        /* \"--CODEGEN--\":11863:11869   */\n      dup5\n        /* \"--CODEGEN--\":11829:11892   */\n      jump(tag_413)\n    tag_466:\n        /* \"--CODEGEN--\":11074:11902   */\n      swap9\n      swap8\n      pop\n      pop\n      pop\n      pop\n      pop\n      pop\n      pop\n      pop\n      jump\n        /* \"--CODEGEN--\":11909:12102   */\n    tag_41:\n      0x0\n        /* \"--CODEGEN--\":12017:12019   */\n      0x20\n        /* \"--CODEGEN--\":12006:12015   */\n      dup3\n        /* \"--CODEGEN--\":12002:12020   */\n      add\n        /* \"--CODEGEN--\":11994:12020   */\n      swap1\n      pop\n        /* \"--CODEGEN--\":12031:12092   */\n      tag_468\n        /* \"--CODEGEN--\":12089:12090   */\n      0x0\n        /* \"--CODEGEN--\":12078:12087   */\n      dup4\n        /* \"--CODEGEN--\":12074:12091   */\n      add\n        /* \"--CODEGEN--\":12065:12071   */\n      dup5\n        /* \"--CODEGEN--\":12031:12092   */\n      jump(tag_441)\n    tag_468:\n        /* \"--CODEGEN--\":11988:12102   */\n      swap3\n      swap2\n      pop\n      pop\n      jump\n        /* \"--CODEGEN--\":12109:12365   */\n    tag_343:\n      0x0\n        /* \"--CODEGEN--\":12171:12173   */\n      0x40\n        /* \"--CODEGEN--\":12165:12174   */\n      mload\n        /* \"--CODEGEN--\":12155:12174   */\n      swap1\n      pop\n        /* \"--CODEGEN--\":12209:12213   */\n      dup2\n        /* \"--CODEGEN--\":12201:12207   */\n      dup2\n        /* \"--CODEGEN--\":12197:12214   */\n      add\n        /* \"--CODEGEN--\":12308:12314   */\n      dup2\n        /* \"--CODEGEN--\":12296:12306   */\n      dup2\n        /* \"--CODEGEN--\":12293:12315   */\n      lt\n        /* \"--CODEGEN--\":12272:12290   */\n      0xffffffffffffffff\n        /* \"--CODEGEN--\":12260:12270   */\n      dup3\n        /* \"--CODEGEN--\":12257:12291   */\n      gt\n        /* \"--CODEGEN--\":12254:12316   */\n      or\n        /* \"--CODEGEN--\":12251:12253   */\n      iszero\n      tag_470\n      jumpi\n        /* \"--CODEGEN--\":12329:12330   */\n      0x0\n        /* \"--CODEGEN--\":12326:12327   */\n      dup1\n        /* \"--CODEGEN--\":12319:12331   */\n      revert\n        /* \"--CODEGEN--\":12251:12253   */\n    tag_470:\n        /* \"--CODEGEN--\":12349:12359   */\n      dup1\n        /* \"--CODEGEN--\":12345:12347   */\n      0x40\n        /* \"--CODEGEN--\":12338:12360   */\n      mstore\n        /* \"--CODEGEN--\":12149:12365   */\n      pop\n      swap2\n      swap1\n      pop\n      jump\n        /* \"--CODEGEN--\":12372:12631   */\n    tag_342:\n      0x0\n        /* \"--CODEGEN--\":12516:12534   */\n      0xffffffffffffffff\n        /* \"--CODEGEN--\":12508:12514   */\n      dup3\n        /* \"--CODEGEN--\":12505:12535   */\n      gt\n        /* \"--CODEGEN--\":12502:12504   */\n      iszero\n      tag_472\n      jumpi\n        /* \"--CODEGEN--\":12548:12549   */\n      0x0\n        /* \"--CODEGEN--\":12545:12546   */\n      dup1\n        /* \"--CODEGEN--\":12538:12550   */\n      revert\n        /* \"--CODEGEN--\":12502:12504   */\n    tag_472:\n        /* \"--CODEGEN--\":12592:12596   */\n      0x1f\n        /* \"--CODEGEN--\":12588:12597   */\n      not\n        /* \"--CODEGEN--\":12581:12585   */\n      0x1f\n        /* \"--CODEGEN--\":12573:12579   */\n      dup4\n        /* \"--CODEGEN--\":12569:12586   */\n      add\n        /* \"--CODEGEN--\":12565:12598   */\n      and\n        /* \"--CODEGEN--\":12557:12598   */\n      swap1\n      pop\n        /* \"--CODEGEN--\":12621:12625   */\n      0x20\n        /* \"--CODEGEN--\":12615:12619   */\n      dup2\n        /* \"--CODEGEN--\":12611:12626   */\n      add\n        /* \"--CODEGEN--\":12603:12626   */\n      swap1\n      pop\n        /* \"--CODEGEN--\":12439:12631   */\n      swap2\n      swap1\n      pop\n      jump\n        /* \"--CODEGEN--\":12640:12761   */\n    tag_421:\n      0x0\n        /* \"--CODEGEN--\":12749:12753   */\n      0x20\n        /* \"--CODEGEN--\":12741:12747   */\n      dup3\n        /* \"--CODEGEN--\":12737:12754   */\n      add\n        /* \"--CODEGEN--\":12726:12754   */\n      swap1\n      pop\n        /* \"--CODEGEN--\":12718:12761   */\n      swap2\n      swap1\n      pop\n      jump\n        /* \"--CODEGEN--\":12770:12877   */\n    tag_419:\n      0x0\n        /* \"--CODEGEN--\":12866:12871   */\n      dup2\n        /* \"--CODEGEN--\":12860:12872   */\n      mload\n        /* \"--CODEGEN--\":12850:12872   */\n      swap1\n      pop\n        /* \"--CODEGEN--\":12844:12877   */\n      swap2\n      swap1\n      pop\n      jump\n        /* \"--CODEGEN--\":12884:12976   */\n    tag_435:\n      0x0\n        /* \"--CODEGEN--\":12965:12970   */\n      dup2\n        /* \"--CODEGEN--\":12959:12971   */\n      mload\n        /* \"--CODEGEN--\":12949:12971   */\n      swap1\n      pop\n        /* \"--CODEGEN--\":12943:12976   */\n      swap2\n      swap1\n      pop\n      jump\n        /* \"--CODEGEN--\":12984:13106   */\n    tag_427:\n      0x0\n        /* \"--CODEGEN--\":13095:13099   */\n      0x20\n        /* \"--CODEGEN--\":13087:13093   */\n      dup3\n        /* \"--CODEGEN--\":13083:13100   */\n      add\n        /* \"--CODEGEN--\":13072:13100   */\n      swap1\n      pop\n        /* \"--CODEGEN--\":13065:13106   */\n      swap2\n      swap1\n      pop\n      jump\n        /* \"--CODEGEN--\":13114:13242   */\n    tag_415:\n      0x0\n        /* \"--CODEGEN--\":13194:13236   */\n      0xffffffffffffffffffffffffffffffffffffffff\n        /* \"--CODEGEN--\":13187:13192   */\n      dup3\n        /* \"--CODEGEN--\":13183:13237   */\n      and\n        /* \"--CODEGEN--\":13172:13237   */\n      swap1\n      pop\n        /* \"--CODEGEN--\":13166:13242   */\n      swap2\n      swap1\n      pop\n      jump\n        /* \"--CODEGEN--\":13249:13341   */\n    tag_431:\n      0x0\n        /* \"--CODEGEN--\":13329:13334   */\n      dup2\n        /* \"--CODEGEN--\":13322:13335   */\n      iszero\n        /* \"--CODEGEN--\":13315:13336   */\n      iszero\n        /* \"--CODEGEN--\":13304:13336   */\n      swap1\n      pop\n        /* \"--CODEGEN--\":13298:13341   */\n      swap2\n      swap1\n      pop\n      jump\n        /* \"--CODEGEN--\":13348:13427   */\n    tag_443:\n      0x0\n        /* \"--CODEGEN--\":13417:13422   */\n      dup2\n        /* \"--CODEGEN--\":13406:13422   */\n      swap1\n      pop\n        /* \"--CODEGEN--\":13400:13427   */\n      swap2\n      swap1\n      pop\n      jump\n        /* \"--CODEGEN--\":13434:13562   */\n    tag_336:\n      0x0\n        /* \"--CODEGEN--\":13514:13556   */\n      0xffffffffffffffffffffffffffffffffffffffff\n        /* \"--CODEGEN--\":13507:13512   */\n      dup3\n        /* \"--CODEGEN--\":13503:13557   */\n      and\n        /* \"--CODEGEN--\":13492:13557   */\n      swap1\n      pop\n        /* \"--CODEGEN--\":13486:13562   */\n      swap2\n      swap1\n      pop\n      jump\n        /* \"--CODEGEN--\":13569:13648   */\n    tag_350:\n      0x0\n        /* \"--CODEGEN--\":13638:13643   */\n      dup2\n        /* \"--CODEGEN--\":13627:13643   */\n      swap1\n      pop\n        /* \"--CODEGEN--\":13621:13648   */\n      swap2\n      swap1\n      pop\n      jump\n        /* \"--CODEGEN--\":13656:13801   */\n    tag_346:\n        /* \"--CODEGEN--\":13737:13743   */\n      dup3\n        /* \"--CODEGEN--\":13732:13735   */\n      dup2\n        /* \"--CODEGEN--\":13727:13730   */\n      dup4\n        /* \"--CODEGEN--\":13714:13744   */\n      calldatacopy\n        /* \"--CODEGEN--\":13793:13794   */\n      0x0\n        /* \"--CODEGEN--\":13784:13790   */\n      dup4\n        /* \"--CODEGEN--\":13779:13782   */\n      dup4\n        /* \"--CODEGEN--\":13775:13791   */\n      add\n        /* \"--CODEGEN--\":13768:13795   */\n      mstore\n        /* \"--CODEGEN--\":13707:13801   */\n      pop\n      pop\n      pop\n      jump\n        /* \"--CODEGEN--\":13810:14078   */\n    tag_437:\n        /* \"--CODEGEN--\":13875:13876   */\n      0x0\n        /* \"--CODEGEN--\":13882:13983   */\n    tag_484:\n        /* \"--CODEGEN--\":13896:13902   */\n      dup4\n        /* \"--CODEGEN--\":13893:13894   */\n      dup2\n        /* \"--CODEGEN--\":13890:13903   */\n      lt\n        /* \"--CODEGEN--\":13882:13983   */\n      iszero\n      tag_485\n      jumpi\n        /* \"--CODEGEN--\":13972:13973   */\n      dup1\n        /* \"--CODEGEN--\":13967:13970   */\n      dup3\n        /* \"--CODEGEN--\":13963:13974   */\n      add\n        /* \"--CODEGEN--\":13957:13975   */\n      mload\n        /* \"--CODEGEN--\":13953:13954   */\n      dup2\n        /* \"--CODEGEN--\":13948:13951   */\n      dup5\n        /* \"--CODEGEN--\":13944:13955   */\n      add\n        /* \"--CODEGEN--\":13937:13976   */\n      mstore\n        /* \"--CODEGEN--\":13918:13920   */\n      0x20\n        /* \"--CODEGEN--\":13915:13916   */\n      dup2\n        /* \"--CODEGEN--\":13911:13921   */\n      add\n        /* \"--CODEGEN--\":13906:13921   */\n      swap1\n      pop\n        /* \"--CODEGEN--\":13882:13983   */\n      jump(tag_484)\n    tag_485:\n        /* \"--CODEGEN--\":13998:14004   */\n      dup4\n        /* \"--CODEGEN--\":13995:13996   */\n      dup2\n        /* \"--CODEGEN--\":13992:14005   */\n      gt\n        /* \"--CODEGEN--\":13989:13991   */\n      iszero\n      tag_487\n      jumpi\n        /* \"--CODEGEN--\":14063:14064   */\n      0x0\n        /* \"--CODEGEN--\":14054:14060   */\n      dup5\n        /* \"--CODEGEN--\":14049:14052   */\n      dup5\n        /* \"--CODEGEN--\":14045:14061   */\n      add\n        /* \"--CODEGEN--\":14038:14065   */\n      mstore\n        /* \"--CODEGEN--\":13989:13991   */\n    tag_487:\n        /* \"--CODEGEN--\":13859:14078   */\n      pop\n      pop\n      pop\n      pop\n      jump\n        /* \"--CODEGEN--\":14086:14183   */\n    tag_439:\n      0x0\n        /* \"--CODEGEN--\":14174:14176   */\n      0x1f\n        /* \"--CODEGEN--\":14170:14177   */\n      not\n        /* \"--CODEGEN--\":14165:14167   */\n      0x1f\n        /* \"--CODEGEN--\":14158:14163   */\n      dup4\n        /* \"--CODEGEN--\":14154:14168   */\n      add\n        /* \"--CODEGEN--\":14150:14178   */\n      and\n        /* \"--CODEGEN--\":14140:14178   */\n      swap1\n      pop\n        /* \"--CODEGEN--\":14134:14183   */\n      swap2\n      swap1\n      pop\n      jump\n\n    auxdata: 0xa265627a7a72305820abc6a15b0fd08e7c9b4110d59af43340d4d48f6270ad815ff46162dc9fecf88d6c6578706572696d656e74616cf50037\n}\n",
				"bytecode": {
					"linkReferences": {},
					"object": "60806040526000600b556000600c556000600d556000600e556000600f5573c50c6297f56b033633c30354a854b074749cd2dc601060006101000a81548173ffffffffffffffffffffffffffffffffffffffff021916908373ffffffffffffffffffffffffffffffffffffffff16021790555034801561007e57600080fd5b506135fc8061008e6000396000f30060806040526004361061017f576000357c0100000000000000000000000000000000000000000000000000000000900463ffffffff168062ce8e3e14610184578063024decc5146101af578063076fd2f8146101da57806307973ccf1461021e578063127ca4b41461024957806316e0a6111461028657806317e51111146102af57806328f6daac146102d8578063294a45401461031557806344c23f88146103525780635fc8e8c61461038f5780636cdb2278146103cc578063779a9576146103f557806378522bc41461041e57806379111c1c14610449578063793de5f01461047457806383a28b29146104b15780638da5cb5b146104f457806396e39ce01461051f57806399d698c51461054a5780639f4216e814610575578063b13d5d94146105b2578063b5cb15f7146105dd578063b744ff4d14610608578063c3bf7bf014610633578063c543a71814610670578063caee6c851461069b578063d118404b146106df578063e0df0ac61461071c578063ff508dab14610747575b600080fd5b34801561019057600080fd5b50610199610784565b6040516101a691906132f4565b60405180910390f35b3480156101bb57600080fd5b506101c4610812565b6040516101d1919061346b565b60405180910390f35b3480156101e657600080fd5b5061020160048036036101fc9190810190612d82565b61081c565b604051610215989796959493929190613331565b60405180910390f35b34801561022a57600080fd5b50610233610da1565b604051610240919061346b565b60405180910390f35b34801561025557600080fd5b50610270600480360361026b91908101906131f2565b610da7565b60405161027d91906132d9565b60405180910390f35b34801561029257600080fd5b506102ad60048036036102a89190810190612ee5565b610de5565b005b3480156102bb57600080fd5b506102d660048036036102d19190810190612ee5565b610fd9565b005b3480156102e457600080fd5b506102ff60048036036102fa9190810190612d82565b6113f3565b60405161030c9190613316565b60405180910390f35b34801561032157600080fd5b5061033c60048036036103379190810190612d82565b611463565b6040516103499190613316565b60405180910390f35b34801561035e57600080fd5b5061037960048036036103749190810190612de7565b611515565b6040516103869190613316565b60405180910390f35b34801561039b57600080fd5b506103b660048036036103b19190810190612d82565b611785565b6040516103c39190613316565b60405180910390f35b3480156103d857600080fd5b506103f360048036036103ee919081019061303f565b611824565b005b34801561040157600080fd5b5061041c6004803603610417919081019061303f565b611c72565b005b34801561042a57600080fd5b50610433611e9a565b604051610440919061346b565b60405180910390f35b34801561045557600080fd5b5061045e611ea0565b60405161046b919061346b565b60405180910390f35b34801561048057600080fd5b5061049b60048036036104969190810190612d82565b611eaa565b6040516104a89190613316565b60405180910390f35b3480156104bd57600080fd5b506104d860048036036104d39190810190612d82565b611f30565b6040516104eb97969594939291906133e0565b60405180910390f35b34801561050057600080fd5b506105096122fb565b60405161051691906132d9565b60405180910390f35b34801561052b57600080fd5b50610534612320565b604051610541919061346b565b60405180910390f35b34801561055657600080fd5b5061055f612326565b60405161056c919061346b565b60405180910390f35b34801561058157600080fd5b5061059c600480360361059791908101906131f2565b61232c565b6040516105a991906132d9565b60405180910390f35b3480156105be57600080fd5b506105c761236a565b6040516105d491906132f4565b60405180910390f35b3480156105e957600080fd5b506105f26123f8565b6040516105ff919061346b565b60405180910390f35b34801561061457600080fd5b5061061d612402565b60405161062a91906132d9565b60405180910390f35b34801561063f57600080fd5b5061065a60048036036106559190810190612dab565b612428565b6040516106679190613316565b60405180910390f35b34801561067c57600080fd5b50610685612525565b604051610692919061346b565b60405180910390f35b3480156106a757600080fd5b506106c260048036036106bd9190810190612d82565b61252b565b6040516106d6989796959493929190613331565b60405180910390f35b3480156106eb57600080fd5b5061070660048036036107019190810190612dab565b612b08565b6040516107139190613316565b60405180910390f35b34801561072857600080fd5b50610731612c17565b60405161073e919061346b565b60405180910390f35b34801561075357600080fd5b5061076e600480360361076991908101906131f2565b612c21565b60405161077b91906132d9565b60405180910390f35b6060600180548060200260200160405190810160405280929190818152602001828054801561080857602002820191906000526020600020905b8160009054906101000a900473ffffffffffffffffffffffffffffffffffffffff1673ffffffffffffffffffffffffffffffffffffffff16815260200190600101908083116107be575b5050505050905090565b6000600e54905090565b6060806060806060806060600080600760008b73ffffffffffffffffffffffffffffffffffffffff1673ffffffffffffffffffffffffffffffffffffffff16815260200190815260200160002060003373ffffffffffffffffffffffffffffffffffffffff1673ffffffffffffffffffffffffffffffffffffffff16815260200190815260200160002060009054906101000a900460ff1615156108bf57600080fd5b600460008b73ffffffffffffffffffffffffffffffffffffffff1673ffffffffffffffffffffffffffffffffffffffff1681526020019081526020016000209050806000018160010182600601836002018460030185600401866005018760090160009054906101000a900473ffffffffffffffffffffffffffffffffffffffff16878054600181600116156101000203166002900480601f0160208091040260200160405190810160405280929190818152602001828054600181600116156101000203166002900480156109d65780601f106109ab576101008083540402835291602001916109d6565b820191906000526020600020905b8154815290600101906020018083116109b957829003601f168201915b50505050509750868054600181600116156101000203166002900480601f016020809104026020016040519081016040528092919081815260200182805460018160011615610100020316600290048015610a725780601f10610a4757610100808354040283529160200191610a72565b820191906000526020600020905b815481529060010190602001808311610a5557829003601f168201915b50505050509650858054600181600116156101000203166002900480601f016020809104026020016040519081016040528092919081815260200182805460018160011615610100020316600290048015610b0e5780601f10610ae357610100808354040283529160200191610b0e565b820191906000526020600020905b815481529060010190602001808311610af157829003601f168201915b50505050509550848054600181600116156101000203166002900480601f016020809104026020016040519081016040528092919081815260200182805460018160011615610100020316600290048015610baa5780601f10610b7f57610100808354040283529160200191610baa565b820191906000526020600020905b815481529060010190602001808311610b8d57829003601f168201915b50505050509450838054600181600116156101000203166002900480601f016020809104026020016040519081016040528092919081815260200182805460018160011615610100020316600290048015610c465780601f10610c1b57610100808354040283529160200191610c46565b820191906000526020600020905b815481529060010190602001808311610c2957829003601f168201915b50505050509350828054600181600116156101000203166002900480601f016020809104026020016040519081016040528092919081815260200182805460018160011615610100020316600290048015610ce25780601f10610cb757610100808354040283529160200191610ce2565b820191906000526020600020905b815481529060010190602001808311610cc557829003601f168201915b50505050509250818054600181600116156101000203166002900480601f016020809104026020016040519081016040528092919081815260200182805460018160011615610100020316600290048015610d7e5780601f10610d5357610100808354040283529160200191610d7e565b820191906000526020600020905b815481529060010190602001808311610d6157829003601f168201915b505050505091509850985098509850985098509850985050919395975091939597565b600b5481565b600281815481101515610db657fe5b906000526020600020016000915054906101000a900473ffffffffffffffffffffffffffffffffffffffff1681565b6000601060009054906101000a900473ffffffffffffffffffffffffffffffffffffffff1673ffffffffffffffffffffffffffffffffffffffff163373ffffffffffffffffffffffffffffffffffffffff16141515610e4357600080fd5b600960008a73ffffffffffffffffffffffffffffffffffffffff1673ffffffffffffffffffffffffffffffffffffffff16815260200190815260200160002060009054906101000a900460ff161515610e9b57600080fd5b600560008a73ffffffffffffffffffffffffffffffffffffffff1673ffffffffffffffffffffffffffffffffffffffff168152602001908152602001600020905087816000019080519060200190610ef4929190612c5f565b5086816001019080519060200190610f0d929190612c5f565b5085816002019080519060200190610f26929190612c5f565b5084816003019080519060200190610f3f929190612c5f565b5083816005019080519060200190610f58929190612c5f565b5082816006019080519060200190610f71929190612c5f565b5081816007019080519060200190610f8a929190612c5f565b50888160080160006101000a81548173ffffffffffffffffffffffffffffffffffffffff021916908373ffffffffffffffffffffffffffffffffffffffff160217905550505050505050505050565b6000601060009054906101000a900473ffffffffffffffffffffffffffffffffffffffff1673ffffffffffffffffffffffffffffffffffffffff163373ffffffffffffffffffffffffffffffffffffffff1614151561103757600080fd5b600960008a73ffffffffffffffffffffffffffffffffffffffff1673ffffffffffffffffffffffffffffffffffffffff16815260200190815260200160002060009054906101000a900460ff1615151561109057600080fd5b600560008a73ffffffffffffffffffffffffffffffffffffffff1673ffffffffffffffffffffffffffffffffffffffff1681526020019081526020016000209050878160000190805190602001906110e9929190612c5f565b5086816001019080519060200190611102929190612c5f565b508581600201908051906020019061111b929190612c5f565b5084816003019080519060200190611134929190612c5f565b508381600501908051906020019061114d929190612c5f565b5082816006019080519060200190611166929190612c5f565b508181600701908051906020019061117f929190612c5f565b50888160080160006101000a81548173ffffffffffffffffffffffffffffffffffffffff021916908373ffffffffffffffffffffffffffffffffffffffff16021790555042816009018190555060028990806001815401808255809150509060018203906000526020600020016000909192909190916101000a81548173ffffffffffffffffffffffffffffffffffffffff021916908373ffffffffffffffffffffffffffffffffffffffff160217905550506001600960008b73ffffffffffffffffffffffffffffffffffffffff1673ffffffffffffffffffffffffffffffffffffffff16815260200190815260200160002060006101000a81548160ff0219169083151502179055506001600760008b73ffffffffffffffffffffffffffffffffffffffff1673ffffffffffffffffffffffffffffffffffffffff16815260200190815260200160002060008b73ffffffffffffffffffffffffffffffffffffffff1673ffffffffffffffffffffffffffffffffffffffff16815260200190815260200160002060006101000a81548160ff0219169083151502179055506001600760008b73ffffffffffffffffffffffffffffffffffffffff1673ffffffffffffffffffffffffffffffffffffffff1681526020019081526020016000206000601060009054906101000a900473ffffffffffffffffffffffffffffffffffffffff1673ffffffffffffffffffffffffffffffffffffffff1673ffffffffffffffffffffffffffffffffffffffff16815260200190815260200160002060006101000a81548160ff021916908315150217905550600c60008154809291906001019190505550505050505050505050565b600080829050601060009054906101000a900473ffffffffffffffffffffffffffffffffffffffff1673ffffffffffffffffffffffffffffffffffffffff168173ffffffffffffffffffffffffffffffffffffffff161415611458576001915061145d565b600091505b50919050565b60006001600760003373ffffffffffffffffffffffffffffffffffffffff1673ffffffffffffffffffffffffffffffffffffffff16815260200190815260200160002060008473ffffffffffffffffffffffffffffffffffffffff1673ffffffffffffffffffffffffffffffffffffffff16815260200190815260200160002060006101000a81548160ff021916908315150217905550600e6000815480929190600101919050555060019050919050565b600080601060009054906101000a900473ffffffffffffffffffffffffffffffffffffffff1673ffffffffffffffffffffffffffffffffffffffff163373ffffffffffffffffffffffffffffffffffffffff1614151561157457600080fd5b600a60008a73ffffffffffffffffffffffffffffffffffffffff1673ffffffffffffffffffffffffffffffffffffffff16815260200190815260200160002060009054906101000a900460ff161515156115cd57600080fd5b600660008a73ffffffffffffffffffffffffffffffffffffffff1673ffffffffffffffffffffffffffffffffffffffff168152602001908152602001600020905086816000019080519060200190611626929190612c5f565b508581600101908051906020019061163f929190612c5f565b5084816002019080519060200190611658929190612c5f565b5083816003019080519060200190611671929190612c5f565b50828160040181905550888160050160006101000a81548173ffffffffffffffffffffffffffffffffffffffff021916908373ffffffffffffffffffffffffffffffffffffffff160217905550878160060160006101000a81548173ffffffffffffffffffffffffffffffffffffffff021916908373ffffffffffffffffffffffffffffffffffffffff16021790555060038990806001815401808255809150509060018203906000526020600020016000909192909190916101000a81548173ffffffffffffffffffffffffffffffffffffffff021916908373ffffffffffffffffffffffffffffffffffffffff16021790555050600f6000815480929190600101919050555050979650505050505050565b600080600760003373ffffffffffffffffffffffffffffffffffffffff1673ffffffffffffffffffffffffffffffffffffffff16815260200190815260200160002060008473ffffffffffffffffffffffffffffffffffffffff1673ffffffffffffffffffffffffffffffffffffffff16815260200190815260200160002060006101000a81548160ff02191690831515021790555060019050919050565b6000601060009054906101000a900473ffffffffffffffffffffffffffffffffffffffff1673ffffffffffffffffffffffffffffffffffffffff163373ffffffffffffffffffffffffffffffffffffffff1614151561188257600080fd5b600860008c73ffffffffffffffffffffffffffffffffffffffff1673ffffffffffffffffffffffffffffffffffffffff16815260200190815260200160002060009054906101000a900460ff161515156118db57600080fd5b600460008c73ffffffffffffffffffffffffffffffffffffffff1673ffffffffffffffffffffffffffffffffffffffff168152602001908152602001600020905089816000019080519060200190611934929190612c5f565b508881600101908051906020019061194d929190612c5f565b5087816002019080519060200190611966929190612c5f565b508681600301908051906020019061197f929190612c5f565b5085816004019080519060200190611998929190612c5f565b50848160050190805190602001906119b1929190612c5f565b50838160060190805190602001906119ca929190612c5f565b50828160070190805190602001906119e3929190612c5f565b50818160080190805190602001906119fc929190612c5f565b508a8160090160006101000a81548173ffffffffffffffffffffffffffffffffffffffff021916908373ffffffffffffffffffffffffffffffffffffffff1602179055504281600a018190555060018b90806001815401808255809150509060018203906000526020600020016000909192909190916101000a81548173ffffffffffffffffffffffffffffffffffffffff021916908373ffffffffffffffffffffffffffffffffffffffff160217905550506001600860008d73ffffffffffffffffffffffffffffffffffffffff1673ffffffffffffffffffffffffffffffffffffffff16815260200190815260200160002060006101000a81548160ff0219169083151502179055506001600760008d73ffffffffffffffffffffffffffffffffffffffff1673ffffffffffffffffffffffffffffffffffffffff16815260200190815260200160002060008d73ffffffffffffffffffffffffffffffffffffffff1673ffffffffffffffffffffffffffffffffffffffff16815260200190815260200160002060006101000a81548160ff0219169083151502179055506001600760008d73ffffffffffffffffffffffffffffffffffffffff1673ffffffffffffffffffffffffffffffffffffffff1681526020019081526020016000206000601060009054906101000a900473ffffffffffffffffffffffffffffffffffffffff1673ffffffffffffffffffffffffffffffffffffffff1673ffffffffffffffffffffffffffffffffffffffff16815260200190815260200160002060006101000a81548160ff021916908315150217905550600b600081548092919060010191905055505050505050505050505050565b6000601060009054906101000a900473ffffffffffffffffffffffffffffffffffffffff1673ffffffffffffffffffffffffffffffffffffffff163373ffffffffffffffffffffffffffffffffffffffff16141515611cd057600080fd5b600860008c73ffffffffffffffffffffffffffffffffffffffff1673ffffffffffffffffffffffffffffffffffffffff16815260200190815260200160002060009054906101000a900460ff161515611d2857600080fd5b600460008c73ffffffffffffffffffffffffffffffffffffffff1673ffffffffffffffffffffffffffffffffffffffff168152602001908152602001600020905089816000019080519060200190611d81929190612c5f565b5088816001019080519060200190611d9a929190612c5f565b5087816002019080519060200190611db3929190612c5f565b5086816003019080519060200190611dcc929190612c5f565b5085816004019080519060200190611de5929190612c5f565b5084816005019080519060200190611dfe929190612c5f565b5083816006019080519060200190611e17929190612c5f565b5082816007019080519060200190611e30929190612c5f565b5081816008019080519060200190611e49929190612c5f565b508a8160090160006101000a81548173ffffffffffffffffffffffffffffffffffffffff021916908373ffffffffffffffffffffffffffffffffffffffff1602179055505050505050505050505050565b600c5481565b6000600c54905090565b60008060009050600280549050811015611f295760011515600960008573ffffffffffffffffffffffffffffffffffffffff1673ffffffffffffffffffffffffffffffffffffffff16815260200190815260200160002060009054906101000a900460ff1615151415611f205760019150611f2a565b60009150611f2a565b5b50919050565b606080606080600080600080600760008a73ffffffffffffffffffffffffffffffffffffffff1673ffffffffffffffffffffffffffffffffffffffff16815260200190815260200160002060003373ffffffffffffffffffffffffffffffffffffffff1673ffffffffffffffffffffffffffffffffffffffff16815260200190815260200160002060009054906101000a900460ff161515611fd157600080fd5b600660008a73ffffffffffffffffffffffffffffffffffffffff1673ffffffffffffffffffffffffffffffffffffffff16815260200190815260200160002090508060010181600001826002018360030184600401548560050160009054906101000a900473ffffffffffffffffffffffffffffffffffffffff168660060160009054906101000a900473ffffffffffffffffffffffffffffffffffffffff16868054600181600116156101000203166002900480601f0160208091040260200160405190810160405280929190818152602001828054600181600116156101000203166002900480156121065780601f106120db57610100808354040283529160200191612106565b820191906000526020600020905b8154815290600101906020018083116120e957829003601f168201915b50505050509650858054600181600116156101000203166002900480601f0160208091040260200160405190810160405280929190818152602001828054600181600116156101000203166002900480156121a25780601f10612177576101008083540402835291602001916121a2565b820191906000526020600020905b81548152906001019060200180831161218557829003601f168201915b50505050509550848054600181600116156101000203166002900480601f01602080910402602001604051908101604052809291908181526020018280546001816001161561010002031660029004801561223e5780601f106122135761010080835404028352916020019161223e565b820191906000526020600020905b81548152906001019060200180831161222157829003601f168201915b50505050509450838054600181600116156101000203166002900480601f0160208091040260200160405190810160405280929190818152602001828054600181600116156101000203166002900480156122da5780601f106122af576101008083540402835291602001916122da565b820191906000526020600020905b8154815290600101906020018083116122bd57829003601f168201915b50505050509350975097509750975097509750975050919395979092949650565b6000809054906101000a900473ffffffffffffffffffffffffffffffffffffffff1681565b600f5481565b600d5481565b60018181548110151561233b57fe5b906000526020600020016000915054906101000a900473ffffffffffffffffffffffffffffffffffffffff1681565b606060028054806020026020016040519081016040528092919081815260200182805480156123ee57602002820191906000526020600020905b8160009054906101000a900473ffffffffffffffffffffffffffffffffffffffff1673ffffffffffffffffffffffffffffffffffffffff16815260200190600101908083116123a4575b5050505050905090565b6000600b54905090565b601060009054906101000a900473ffffffffffffffffffffffffffffffffffffffff1681565b6000601060009054906101000a900473ffffffffffffffffffffffffffffffffffffffff1673ffffffffffffffffffffffffffffffffffffffff163373ffffffffffffffffffffffffffffffffffffffff1614151561248657600080fd5b6000600760008573ffffffffffffffffffffffffffffffffffffffff1673ffffffffffffffffffffffffffffffffffffffff16815260200190815260200160002060008473ffffffffffffffffffffffffffffffffffffffff1673ffffffffffffffffffffffffffffffffffffffff16815260200190815260200160002060006101000a81548160ff0219169083151502179055506001905092915050565b600e5481565b6060806060806060806060600080600760008b73ffffffffffffffffffffffffffffffffffffffff1673ffffffffffffffffffffffffffffffffffffffff16815260200190815260200160002060003373ffffffffffffffffffffffffffffffffffffffff1673ffffffffffffffffffffffffffffffffffffffff16815260200190815260200160002060009054906101000a900460ff1615156125ce57600080fd5b600960008b73ffffffffffffffffffffffffffffffffffffffff1673ffffffffffffffffffffffffffffffffffffffff16815260200190815260200160002060009054906101000a900460ff16151561262657600080fd5b600560008b73ffffffffffffffffffffffffffffffffffffffff1673ffffffffffffffffffffffffffffffffffffffff1681526020019081526020016000209050806000018160010182600201836003018460050185600601866007018760080160009054906101000a900473ffffffffffffffffffffffffffffffffffffffff16878054600181600116156101000203166002900480601f01602080910402602001604051908101604052809291908181526020018280546001816001161561010002031660029004801561273d5780601f106127125761010080835404028352916020019161273d565b820191906000526020600020905b81548152906001019060200180831161272057829003601f168201915b50505050509750868054600181600116156101000203166002900480601f0160208091040260200160405190810160405280929190818152602001828054600181600116156101000203166002900480156127d95780601f106127ae576101008083540402835291602001916127d9565b820191906000526020600020905b8154815290600101906020018083116127bc57829003601f168201915b50505050509650858054600181600116156101000203166002900480601f0160208091040260200160405190810160405280929190818152602001828054600181600116156101000203166002900480156128755780601f1061284a57610100808354040283529160200191612875565b820191906000526020600020905b81548152906001019060200180831161285857829003601f168201915b50505050509550848054600181600116156101000203166002900480601f0160208091040260200160405190810160405280929190818152602001828054600181600116156101000203166002900480156129115780601f106128e657610100808354040283529160200191612911565b820191906000526020600020905b8154815290600101906020018083116128f457829003601f168201915b50505050509450838054600181600116156101000203166002900480601f0160208091040260200160405190810160405280929190818152602001828054600181600116156101000203166002900480156129ad5780601f10612982576101008083540402835291602001916129ad565b820191906000526020600020905b81548152906001019060200180831161299057829003601f168201915b50505050509350828054600181600116156101000203166002900480601f016020809104026020016040519081016040528092919081815260200182805460018160011615610100020316600290048015612a495780601f10612a1e57610100808354040283529160200191612a49565b820191906000526020600020905b815481529060010190602001808311612a2c57829003601f168201915b50505050509250818054600181600116156101000203166002900480601f016020809104026020016040519081016040528092919081815260200182805460018160011615610100020316600290048015612ae55780601f10612aba57610100808354040283529160200191612ae5565b820191906000526020600020905b815481529060010190602001808311612ac857829003601f168201915b505050505091509850985098509850985098509850985050919395975091939597565b6000601060009054906101000a900473ffffffffffffffffffffffffffffffffffffffff1673ffffffffffffffffffffffffffffffffffffffff163373ffffffffffffffffffffffffffffffffffffffff16141515612b6657600080fd5b6001600760008573ffffffffffffffffffffffffffffffffffffffff1673ffffffffffffffffffffffffffffffffffffffff16815260200190815260200160002060008473ffffffffffffffffffffffffffffffffffffffff1673ffffffffffffffffffffffffffffffffffffffff16815260200190815260200160002060006101000a81548160ff021916908315150217905550600d600081548092919060010191905055506001905092915050565b6000600d54905090565b600381815481101515612c3057fe5b906000526020600020016000915054906101000a900473ffffffffffffffffffffffffffffffffffffffff1681565b828054600181600116156101000203166002900490600052602060002090601f016020900481019282601f10612ca057805160ff1916838001178555612cce565b82800160010185558215612cce579182015b82811115612ccd578251825591602001919060010190612cb2565b5b509050612cdb9190612cdf565b5090565b612d0191905b80821115612cfd576000816000905550600101612ce5565b5090565b90565b6000612d108235613545565b905092915050565b600082601f8301121515612d2b57600080fd5b8135612d3e612d39826134b3565b613486565b91508082526020830160208301858383011115612d5a57600080fd5b612d6583828461356f565b50505092915050565b6000612d7a8235613565565b905092915050565b600060208284031215612d9457600080fd5b6000612da284828501612d04565b91505092915050565b60008060408385031215612dbe57600080fd5b6000612dcc85828601612d04565b9250506020612ddd85828601612d04565b9150509250929050565b600080600080600080600060e0888a031215612e0257600080fd5b6000612e108a828b01612d04565b9750506020612e218a828b01612d04565b965050604088013567ffffffffffffffff811115612e3e57600080fd5b612e4a8a828b01612d18565b955050606088013567ffffffffffffffff811115612e6757600080fd5b612e738a828b01612d18565b945050608088013567ffffffffffffffff811115612e9057600080fd5b612e9c8a828b01612d18565b93505060a088013567ffffffffffffffff811115612eb957600080fd5b612ec58a828b01612d18565b92505060c0612ed68a828b01612d6e565b91505092959891949750929550565b600080600080600080600080610100898b031215612f0257600080fd5b6000612f108b828c01612d04565b985050602089013567ffffffffffffffff811115612f2d57600080fd5b612f398b828c01612d18565b975050604089013567ffffffffffffffff811115612f5657600080fd5b612f628b828c01612d18565b965050606089013567ffffffffffffffff811115612f7f57600080fd5b612f8b8b828c01612d18565b955050608089013567ffffffffffffffff811115612fa857600080fd5b612fb48b828c01612d18565b94505060a089013567ffffffffffffffff811115612fd157600080fd5b612fdd8b828c01612d18565b93505060c089013567ffffffffffffffff811115612ffa57600080fd5b6130068b828c01612d18565b92505060e089013567ffffffffffffffff81111561302357600080fd5b61302f8b828c01612d18565b9150509295985092959890939650565b6000806000806000806000806000806101408b8d03121561305f57600080fd5b600061306d8d828e01612d04565b9a505060208b013567ffffffffffffffff81111561308a57600080fd5b6130968d828e01612d18565b99505060408b013567ffffffffffffffff8111156130b357600080fd5b6130bf8d828e01612d18565b98505060608b013567ffffffffffffffff8111156130dc57600080fd5b6130e88d828e01612d18565b97505060808b013567ffffffffffffffff81111561310557600080fd5b6131118d828e01612d18565b96505060a08b013567ffffffffffffffff81111561312e57600080fd5b61313a8d828e01612d18565b95505060c08b013567ffffffffffffffff81111561315757600080fd5b6131638d828e01612d18565b94505060e08b013567ffffffffffffffff81111561318057600080fd5b61318c8d828e01612d18565b9350506101008b013567ffffffffffffffff8111156131aa57600080fd5b6131b68d828e01612d18565b9250506101208b013567ffffffffffffffff8111156131d457600080fd5b6131e08d828e01612d18565b9150509295989b9194979a5092959850565b60006020828403121561320457600080fd5b600061321284828501612d6e565b91505092915050565b6132248161350f565b82525050565b6000613235826134ec565b808452602084019350613247836134df565b60005b828110156132795761325d86835161321b565b61326682613502565b915060208601955060018101905061324a565b50849250505092915050565b61328e8161352f565b82525050565b600061329f826134f7565b8084526132b381602086016020860161357e565b6132bc816135b1565b602085010191505092915050565b6132d38161353b565b82525050565b60006020820190506132ee600083018461321b565b92915050565b6000602082019050818103600083015261330e818461322a565b905092915050565b600060208201905061332b6000830184613285565b92915050565b600061010082019050818103600083015261334c818b613294565b90508181036020830152613360818a613294565b905081810360408301526133748189613294565b905081810360608301526133888188613294565b9050818103608083015261339c8187613294565b905081810360a08301526133b08186613294565b905081810360c08301526133c48185613294565b90506133d360e083018461321b565b9998505050505050505050565b600060e08201905081810360008301526133fa818a613294565b9050818103602083015261340e8189613294565b905081810360408301526134228188613294565b905081810360608301526134368187613294565b905061344560808301866132ca565b61345260a083018561321b565b61345f60c083018461321b565b98975050505050505050565b600060208201905061348060008301846132ca565b92915050565b6000604051905081810181811067ffffffffffffffff821117156134a957600080fd5b8060405250919050565b600067ffffffffffffffff8211156134ca57600080fd5b601f19601f8301169050602081019050919050565b6000602082019050919050565b600081519050919050565b600081519050919050565b6000602082019050919050565b600073ffffffffffffffffffffffffffffffffffffffff82169050919050565b60008115159050919050565b6000819050919050565b600073ffffffffffffffffffffffffffffffffffffffff82169050919050565b6000819050919050565b82818337600083830152505050565b60005b8381101561359c578082015181840152602081019050613581565b838111156135ab576000848401525b50505050565b6000601f19601f83011690509190505600a265627a7a72305820abc6a15b0fd08e7c9b4110d59af43340d4d48f6270ad815ff46162dc9fecf88d6c6578706572696d656e74616cf50037",
					"opcodes": "PUSH1 0x80 PUSH1 0x40 MSTORE PUSH1 0x0 PUSH1 0xB SSTORE PUSH1 0x0 PUSH1 0xC SSTORE PUSH1 0x0 PUSH1 0xD SSTORE PUSH1 0x0 PUSH1 0xE SSTORE PUSH1 0x0 PUSH1 0xF SSTORE PUSH20 0xC50C6297F56B033633C30354A854B074749CD2DC PUSH1 0x10 PUSH1 0x0 PUSH2 0x100 EXP DUP2 SLOAD DUP2 PUSH20 0xFFFFFFFFFFFFFFFFFFFFFFFFFFFFFFFFFFFFFFFF MUL NOT AND SWAP1 DUP4 PUSH20 0xFFFFFFFFFFFFFFFFFFFFFFFFFFFFFFFFFFFFFFFF AND MUL OR SWAP1 SSTORE POP CALLVALUE DUP1 ISZERO PUSH2 0x7E JUMPI PUSH1 0x0 DUP1 REVERT JUMPDEST POP PUSH2 0x35FC DUP1 PUSH2 0x8E PUSH1 0x0 CODECOPY PUSH1 0x0 RETURN STOP PUSH1 0x80 PUSH1 0x40 MSTORE PUSH1 0x4 CALLDATASIZE LT PUSH2 0x17F JUMPI PUSH1 0x0 CALLDATALOAD PUSH29 0x100000000000000000000000000000000000000000000000000000000 SWAP1 DIV PUSH4 0xFFFFFFFF AND DUP1 PUSH3 0xCE8E3E EQ PUSH2 0x184 JUMPI DUP1 PUSH4 0x24DECC5 EQ PUSH2 0x1AF JUMPI DUP1 PUSH4 0x76FD2F8 EQ PUSH2 0x1DA JUMPI DUP1 PUSH4 0x7973CCF EQ PUSH2 0x21E JUMPI DUP1 PUSH4 0x127CA4B4 EQ PUSH2 0x249 JUMPI DUP1 PUSH4 0x16E0A611 EQ PUSH2 0x286 JUMPI DUP1 PUSH4 0x17E51111 EQ PUSH2 0x2AF JUMPI DUP1 PUSH4 0x28F6DAAC EQ PUSH2 0x2D8 JUMPI DUP1 PUSH4 0x294A4540 EQ PUSH2 0x315 JUMPI DUP1 PUSH4 0x44C23F88 EQ PUSH2 0x352 JUMPI DUP1 PUSH4 0x5FC8E8C6 EQ PUSH2 0x38F JUMPI DUP1 PUSH4 0x6CDB2278 EQ PUSH2 0x3CC JUMPI DUP1 PUSH4 0x779A9576 EQ PUSH2 0x3F5 JUMPI DUP1 PUSH4 0x78522BC4 EQ PUSH2 0x41E JUMPI DUP1 PUSH4 0x79111C1C EQ PUSH2 0x449 JUMPI DUP1 PUSH4 0x793DE5F0 EQ PUSH2 0x474 JUMPI DUP1 PUSH4 0x83A28B29 EQ PUSH2 0x4B1 JUMPI DUP1 PUSH4 0x8DA5CB5B EQ PUSH2 0x4F4 JUMPI DUP1 PUSH4 0x96E39CE0 EQ PUSH2 0x51F JUMPI DUP1 PUSH4 0x99D698C5 EQ PUSH2 0x54A JUMPI DUP1 PUSH4 0x9F4216E8 EQ PUSH2 0x575 JUMPI DUP1 PUSH4 0xB13D5D94 EQ PUSH2 0x5B2 JUMPI DUP1 PUSH4 0xB5CB15F7 EQ PUSH2 0x5DD JUMPI DUP1 PUSH4 0xB744FF4D EQ PUSH2 0x608 JUMPI DUP1 PUSH4 0xC3BF7BF0 EQ PUSH2 0x633 JUMPI DUP1 PUSH4 0xC543A718 EQ PUSH2 0x670 JUMPI DUP1 PUSH4 0xCAEE6C85 EQ PUSH2 0x69B JUMPI DUP1 PUSH4 0xD118404B EQ PUSH2 0x6DF JUMPI DUP1 PUSH4 0xE0DF0AC6 EQ PUSH2 0x71C JUMPI DUP1 PUSH4 0xFF508DAB EQ PUSH2 0x747 JUMPI JUMPDEST PUSH1 0x0 DUP1 REVERT JUMPDEST CALLVALUE DUP1 ISZERO PUSH2 0x190 JUMPI PUSH1 0x0 DUP1 REVERT JUMPDEST POP PUSH2 0x199 PUSH2 0x784 JUMP JUMPDEST PUSH1 0x40 MLOAD PUSH2 0x1A6 SWAP2 SWAP1 PUSH2 0x32F4 JUMP JUMPDEST PUSH1 0x40 MLOAD DUP1 SWAP2 SUB SWAP1 RETURN JUMPDEST CALLVALUE DUP1 ISZERO PUSH2 0x1BB JUMPI PUSH1 0x0 DUP1 REVERT JUMPDEST POP PUSH2 0x1C4 PUSH2 0x812 JUMP JUMPDEST PUSH1 0x40 MLOAD PUSH2 0x1D1 SWAP2 SWAP1 PUSH2 0x346B JUMP JUMPDEST PUSH1 0x40 MLOAD DUP1 SWAP2 SUB SWAP1 RETURN JUMPDEST CALLVALUE DUP1 ISZERO PUSH2 0x1E6 JUMPI PUSH1 0x0 DUP1 REVERT JUMPDEST POP PUSH2 0x201 PUSH1 0x4 DUP1 CALLDATASIZE SUB PUSH2 0x1FC SWAP2 SWAP1 DUP2 ADD SWAP1 PUSH2 0x2D82 JUMP JUMPDEST PUSH2 0x81C JUMP JUMPDEST PUSH1 0x40 MLOAD PUSH2 0x215 SWAP9 SWAP8 SWAP7 SWAP6 SWAP5 SWAP4 SWAP3 SWAP2 SWAP1 PUSH2 0x3331 JUMP JUMPDEST PUSH1 0x40 MLOAD DUP1 SWAP2 SUB SWAP1 RETURN JUMPDEST CALLVALUE DUP1 ISZERO PUSH2 0x22A JUMPI PUSH1 0x0 DUP1 REVERT JUMPDEST POP PUSH2 0x233 PUSH2 0xDA1 JUMP JUMPDEST PUSH1 0x40 MLOAD PUSH2 0x240 SWAP2 SWAP1 PUSH2 0x346B JUMP JUMPDEST PUSH1 0x40 MLOAD DUP1 SWAP2 SUB SWAP1 RETURN JUMPDEST CALLVALUE DUP1 ISZERO PUSH2 0x255 JUMPI PUSH1 0x0 DUP1 REVERT JUMPDEST POP PUSH2 0x270 PUSH1 0x4 DUP1 CALLDATASIZE SUB PUSH2 0x26B SWAP2 SWAP1 DUP2 ADD SWAP1 PUSH2 0x31F2 JUMP JUMPDEST PUSH2 0xDA7 JUMP JUMPDEST PUSH1 0x40 MLOAD PUSH2 0x27D SWAP2 SWAP1 PUSH2 0x32D9 JUMP JUMPDEST PUSH1 0x40 MLOAD DUP1 SWAP2 SUB SWAP1 RETURN JUMPDEST CALLVALUE DUP1 ISZERO PUSH2 0x292 JUMPI PUSH1 0x0 DUP1 REVERT JUMPDEST POP PUSH2 0x2AD PUSH1 0x4 DUP1 CALLDATASIZE SUB PUSH2 0x2A8 SWAP2 SWAP1 DUP2 ADD SWAP1 PUSH2 0x2EE5 JUMP JUMPDEST PUSH2 0xDE5 JUMP JUMPDEST STOP JUMPDEST CALLVALUE DUP1 ISZERO PUSH2 0x2BB JUMPI PUSH1 0x0 DUP1 REVERT JUMPDEST POP PUSH2 0x2D6 PUSH1 0x4 DUP1 CALLDATASIZE SUB PUSH2 0x2D1 SWAP2 SWAP1 DUP2 ADD SWAP1 PUSH2 0x2EE5 JUMP JUMPDEST PUSH2 0xFD9 JUMP JUMPDEST STOP JUMPDEST CALLVALUE DUP1 ISZERO PUSH2 0x2E4 JUMPI PUSH1 0x0 DUP1 REVERT JUMPDEST POP PUSH2 0x2FF PUSH1 0x4 DUP1 CALLDATASIZE SUB PUSH2 0x2FA SWAP2 SWAP1 DUP2 ADD SWAP1 PUSH2 0x2D82 JUMP JUMPDEST PUSH2 0x13F3 JUMP JUMPDEST PUSH1 0x40 MLOAD PUSH2 0x30C SWAP2 SWAP1 PUSH2 0x3316 JUMP JUMPDEST PUSH1 0x40 MLOAD DUP1 SWAP2 SUB SWAP1 RETURN JUMPDEST CALLVALUE DUP1 ISZERO PUSH2 0x321 JUMPI PUSH1 0x0 DUP1 REVERT JUMPDEST POP PUSH2 0x33C PUSH1 0x4 DUP1 CALLDATASIZE SUB PUSH2 0x337 SWAP2 SWAP1 DUP2 ADD SWAP1 PUSH2 0x2D82 JUMP JUMPDEST PUSH2 0x1463 JUMP JUMPDEST PUSH1 0x40 MLOAD PUSH2 0x349 SWAP2 SWAP1 PUSH2 0x3316 JUMP JUMPDEST PUSH1 0x40 MLOAD DUP1 SWAP2 SUB SWAP1 RETURN JUMPDEST CALLVALUE DUP1 ISZERO PUSH2 0x35E JUMPI PUSH1 0x0 DUP1 REVERT JUMPDEST POP PUSH2 0x379 PUSH1 0x4 DUP1 CALLDATASIZE SUB PUSH2 0x374 SWAP2 SWAP1 DUP2 ADD SWAP1 PUSH2 0x2DE7 JUMP JUMPDEST PUSH2 0x1515 JUMP JUMPDEST PUSH1 0x40 MLOAD PUSH2 0x386 SWAP2 SWAP1 PUSH2 0x3316 JUMP JUMPDEST PUSH1 0x40 MLOAD DUP1 SWAP2 SUB SWAP1 RETURN JUMPDEST CALLVALUE DUP1 ISZERO PUSH2 0x39B JUMPI PUSH1 0x0 DUP1 REVERT JUMPDEST POP PUSH2 0x3B6 PUSH1 0x4 DUP1 CALLDATASIZE SUB PUSH2 0x3B1 SWAP2 SWAP1 DUP2 ADD SWAP1 PUSH2 0x2D82 JUMP JUMPDEST PUSH2 0x1785 JUMP JUMPDEST PUSH1 0x40 MLOAD PUSH2 0x3C3 SWAP2 SWAP1 PUSH2 0x3316 JUMP JUMPDEST PUSH1 0x40 MLOAD DUP1 SWAP2 SUB SWAP1 RETURN JUMPDEST CALLVALUE DUP1 ISZERO PUSH2 0x3D8 JUMPI PUSH1 0x0 DUP1 REVERT JUMPDEST POP PUSH2 0x3F3 PUSH1 0x4 DUP1 CALLDATASIZE SUB PUSH2 0x3EE SWAP2 SWAP1 DUP2 ADD SWAP1 PUSH2 0x303F JUMP JUMPDEST PUSH2 0x1824 JUMP JUMPDEST STOP JUMPDEST CALLVALUE DUP1 ISZERO PUSH2 0x401 JUMPI PUSH1 0x0 DUP1 REVERT JUMPDEST POP PUSH2 0x41C PUSH1 0x4 DUP1 CALLDATASIZE SUB PUSH2 0x417 SWAP2 SWAP1 DUP2 ADD SWAP1 PUSH2 0x303F JUMP JUMPDEST PUSH2 0x1C72 JUMP JUMPDEST STOP JUMPDEST CALLVALUE DUP1 ISZERO PUSH2 0x42A JUMPI PUSH1 0x0 DUP1 REVERT JUMPDEST POP PUSH2 0x433 PUSH2 0x1E9A JUMP JUMPDEST PUSH1 0x40 MLOAD PUSH2 0x440 SWAP2 SWAP1 PUSH2 0x346B JUMP JUMPDEST PUSH1 0x40 MLOAD DUP1 SWAP2 SUB SWAP1 RETURN JUMPDEST CALLVALUE DUP1 ISZERO PUSH2 0x455 JUMPI PUSH1 0x0 DUP1 REVERT JUMPDEST POP PUSH2 0x45E PUSH2 0x1EA0 JUMP JUMPDEST PUSH1 0x40 MLOAD PUSH2 0x46B SWAP2 SWAP1 PUSH2 0x346B JUMP JUMPDEST PUSH1 0x40 MLOAD DUP1 SWAP2 SUB SWAP1 RETURN JUMPDEST CALLVALUE DUP1 ISZERO PUSH2 0x480 JUMPI PUSH1 0x0 DUP1 REVERT JUMPDEST POP PUSH2 0x49B PUSH1 0x4 DUP1 CALLDATASIZE SUB PUSH2 0x496 SWAP2 SWAP1 DUP2 ADD SWAP1 PUSH2 0x2D82 JUMP JUMPDEST PUSH2 0x1EAA JUMP JUMPDEST PUSH1 0x40 MLOAD PUSH2 0x4A8 SWAP2 SWAP1 PUSH2 0x3316 JUMP JUMPDEST PUSH1 0x40 MLOAD DUP1 SWAP2 SUB SWAP1 RETURN JUMPDEST CALLVALUE DUP1 ISZERO PUSH2 0x4BD JUMPI PUSH1 0x0 DUP1 REVERT JUMPDEST POP PUSH2 0x4D8 PUSH1 0x4 DUP1 CALLDATASIZE SUB PUSH2 0x4D3 SWAP2 SWAP1 DUP2 ADD SWAP1 PUSH2 0x2D82 JUMP JUMPDEST PUSH2 0x1F30 JUMP JUMPDEST PUSH1 0x40 MLOAD PUSH2 0x4EB SWAP8 SWAP7 SWAP6 SWAP5 SWAP4 SWAP3 SWAP2 SWAP1 PUSH2 0x33E0 JUMP JUMPDEST PUSH1 0x40 MLOAD DUP1 SWAP2 SUB SWAP1 RETURN JUMPDEST CALLVALUE DUP1 ISZERO PUSH2 0x500 JUMPI PUSH1 0x0 DUP1 REVERT JUMPDEST POP PUSH2 0x509 PUSH2 0x22FB JUMP JUMPDEST PUSH1 0x40 MLOAD PUSH2 0x516 SWAP2 SWAP1 PUSH2 0x32D9 JUMP JUMPDEST PUSH1 0x40 MLOAD DUP1 SWAP2 SUB SWAP1 RETURN JUMPDEST CALLVALUE DUP1 ISZERO PUSH2 0x52B JUMPI PUSH1 0x0 DUP1 REVERT JUMPDEST POP PUSH2 0x534 PUSH2 0x2320 JUMP JUMPDEST PUSH1 0x40 MLOAD PUSH2 0x541 SWAP2 SWAP1 PUSH2 0x346B JUMP JUMPDEST PUSH1 0x40 MLOAD DUP1 SWAP2 SUB SWAP1 RETURN JUMPDEST CALLVALUE DUP1 ISZERO PUSH2 0x556 JUMPI PUSH1 0x0 DUP1 REVERT JUMPDEST POP PUSH2 0x55F PUSH2 0x2326 JUMP JUMPDEST PUSH1 0x40 MLOAD PUSH2 0x56C SWAP2 SWAP1 PUSH2 0x346B JUMP JUMPDEST PUSH1 0x40 MLOAD DUP1 SWAP2 SUB SWAP1 RETURN JUMPDEST CALLVALUE DUP1 ISZERO PUSH2 0x581 JUMPI PUSH1 0x0 DUP1 REVERT JUMPDEST POP PUSH2 0x59C PUSH1 0x4 DUP1 CALLDATASIZE SUB PUSH2 0x597 SWAP2 SWAP1 DUP2 ADD SWAP1 PUSH2 0x31F2 JUMP JUMPDEST PUSH2 0x232C JUMP JUMPDEST PUSH1 0x40 MLOAD PUSH2 0x5A9 SWAP2 SWAP1 PUSH2 0x32D9 JUMP JUMPDEST PUSH1 0x40 MLOAD DUP1 SWAP2 SUB SWAP1 RETURN JUMPDEST CALLVALUE DUP1 ISZERO PUSH2 0x5BE JUMPI PUSH1 0x0 DUP1 REVERT JUMPDEST POP PUSH2 0x5C7 PUSH2 0x236A JUMP JUMPDEST PUSH1 0x40 MLOAD PUSH2 0x5D4 SWAP2 SWAP1 PUSH2 0x32F4 JUMP JUMPDEST PUSH1 0x40 MLOAD DUP1 SWAP2 SUB SWAP1 RETURN JUMPDEST CALLVALUE DUP1 ISZERO PUSH2 0x5E9 JUMPI PUSH1 0x0 DUP1 REVERT JUMPDEST POP PUSH2 0x5F2 PUSH2 0x23F8 JUMP JUMPDEST PUSH1 0x40 MLOAD PUSH2 0x5FF SWAP2 SWAP1 PUSH2 0x346B JUMP JUMPDEST PUSH1 0x40 MLOAD DUP1 SWAP2 SUB SWAP1 RETURN JUMPDEST CALLVALUE DUP1 ISZERO PUSH2 0x614 JUMPI PUSH1 0x0 DUP1 REVERT JUMPDEST POP PUSH2 0x61D PUSH2 0x2402 JUMP JUMPDEST PUSH1 0x40 MLOAD PUSH2 0x62A SWAP2 SWAP1 PUSH2 0x32D9 JUMP JUMPDEST PUSH1 0x40 MLOAD DUP1 SWAP2 SUB SWAP1 RETURN JUMPDEST CALLVALUE DUP1 ISZERO PUSH2 0x63F JUMPI PUSH1 0x0 DUP1 REVERT JUMPDEST POP PUSH2 0x65A PUSH1 0x4 DUP1 CALLDATASIZE SUB PUSH2 0x655 SWAP2 SWAP1 DUP2 ADD SWAP1 PUSH2 0x2DAB JUMP JUMPDEST PUSH2 0x2428 JUMP JUMPDEST PUSH1 0x40 MLOAD PUSH2 0x667 SWAP2 SWAP1 PUSH2 0x3316 JUMP JUMPDEST PUSH1 0x40 MLOAD DUP1 SWAP2 SUB SWAP1 RETURN JUMPDEST CALLVALUE DUP1 ISZERO PUSH2 0x67C JUMPI PUSH1 0x0 DUP1 REVERT JUMPDEST POP PUSH2 0x685 PUSH2 0x2525 JUMP JUMPDEST PUSH1 0x40 MLOAD PUSH2 0x692 SWAP2 SWAP1 PUSH2 0x346B JUMP JUMPDEST PUSH1 0x40 MLOAD DUP1 SWAP2 SUB SWAP1 RETURN JUMPDEST CALLVALUE DUP1 ISZERO PUSH2 0x6A7 JUMPI PUSH1 0x0 DUP1 REVERT JUMPDEST POP PUSH2 0x6C2 PUSH1 0x4 DUP1 CALLDATASIZE SUB PUSH2 0x6BD SWAP2 SWAP1 DUP2 ADD SWAP1 PUSH2 0x2D82 JUMP JUMPDEST PUSH2 0x252B JUMP JUMPDEST PUSH1 0x40 MLOAD PUSH2 0x6D6 SWAP9 SWAP8 SWAP7 SWAP6 SWAP5 SWAP4 SWAP3 SWAP2 SWAP1 PUSH2 0x3331 JUMP JUMPDEST PUSH1 0x40 MLOAD DUP1 SWAP2 SUB SWAP1 RETURN JUMPDEST CALLVALUE DUP1 ISZERO PUSH2 0x6EB JUMPI PUSH1 0x0 DUP1 REVERT JUMPDEST POP PUSH2 0x706 PUSH1 0x4 DUP1 CALLDATASIZE SUB PUSH2 0x701 SWAP2 SWAP1 DUP2 ADD SWAP1 PUSH2 0x2DAB JUMP JUMPDEST PUSH2 0x2B08 JUMP JUMPDEST PUSH1 0x40 MLOAD PUSH2 0x713 SWAP2 SWAP1 PUSH2 0x3316 JUMP JUMPDEST PUSH1 0x40 MLOAD DUP1 SWAP2 SUB SWAP1 RETURN JUMPDEST CALLVALUE DUP1 ISZERO PUSH2 0x728 JUMPI PUSH1 0x0 DUP1 REVERT JUMPDEST POP PUSH2 0x731 PUSH2 0x2C17 JUMP JUMPDEST PUSH1 0x40 MLOAD PUSH2 0x73E SWAP2 SWAP1 PUSH2 0x346B JUMP JUMPDEST PUSH1 0x40 MLOAD DUP1 SWAP2 SUB SWAP1 RETURN JUMPDEST CALLVALUE DUP1 ISZERO PUSH2 0x753 JUMPI PUSH1 0x0 DUP1 REVERT JUMPDEST POP PUSH2 0x76E PUSH1 0x4 DUP1 CALLDATASIZE SUB PUSH2 0x769 SWAP2 SWAP1 DUP2 ADD SWAP1 PUSH2 0x31F2 JUMP JUMPDEST PUSH2 0x2C21 JUMP JUMPDEST PUSH1 0x40 MLOAD PUSH2 0x77B SWAP2 SWAP1 PUSH2 0x32D9 JUMP JUMPDEST PUSH1 0x40 MLOAD DUP1 SWAP2 SUB SWAP1 RETURN JUMPDEST PUSH1 0x60 PUSH1 0x1 DUP1 SLOAD DUP1 PUSH1 0x20 MUL PUSH1 0x20 ADD PUSH1 0x40 MLOAD SWAP1 DUP2 ADD PUSH1 0x40 MSTORE DUP1 SWAP3 SWAP2 SWAP1 DUP2 DUP2 MSTORE PUSH1 0x20 ADD DUP3 DUP1 SLOAD DUP1 ISZERO PUSH2 0x808 JUMPI PUSH1 0x20 MUL DUP3 ADD SWAP2 SWAP1 PUSH1 0x0 MSTORE PUSH1 0x20 PUSH1 0x0 KECCAK256 SWAP1 JUMPDEST DUP2 PUSH1 0x0 SWAP1 SLOAD SWAP1 PUSH2 0x100 EXP SWAP1 DIV PUSH20 0xFFFFFFFFFFFFFFFFFFFFFFFFFFFFFFFFFFFFFFFF AND PUSH20 0xFFFFFFFFFFFFFFFFFFFFFFFFFFFFFFFFFFFFFFFF AND DUP2 MSTORE PUSH1 0x20 ADD SWAP1 PUSH1 0x1 ADD SWAP1 DUP1 DUP4 GT PUSH2 0x7BE JUMPI JUMPDEST POP POP POP POP POP SWAP1 POP SWAP1 JUMP JUMPDEST PUSH1 0x0 PUSH1 0xE SLOAD SWAP1 POP SWAP1 JUMP JUMPDEST PUSH1 0x60 DUP1 PUSH1 0x60 DUP1 PUSH1 0x60 DUP1 PUSH1 0x60 PUSH1 0x0 DUP1 PUSH1 0x7 PUSH1 0x0 DUP12 PUSH20 0xFFFFFFFFFFFFFFFFFFFFFFFFFFFFFFFFFFFFFFFF AND PUSH20 0xFFFFFFFFFFFFFFFFFFFFFFFFFFFFFFFFFFFFFFFF AND DUP2 MSTORE PUSH1 0x20 ADD SWAP1 DUP2 MSTORE PUSH1 0x20 ADD PUSH1 0x0 KECCAK256 PUSH1 0x0 CALLER PUSH20 0xFFFFFFFFFFFFFFFFFFFFFFFFFFFFFFFFFFFFFFFF AND PUSH20 0xFFFFFFFFFFFFFFFFFFFFFFFFFFFFFFFFFFFFFFFF AND DUP2 MSTORE PUSH1 0x20 ADD SWAP1 DUP2 MSTORE PUSH1 0x20 ADD PUSH1 0x0 KECCAK256 PUSH1 0x0 SWAP1 SLOAD SWAP1 PUSH2 0x100 EXP SWAP1 DIV PUSH1 0xFF AND ISZERO ISZERO PUSH2 0x8BF JUMPI PUSH1 0x0 DUP1 REVERT JUMPDEST PUSH1 0x4 PUSH1 0x0 DUP12 PUSH20 0xFFFFFFFFFFFFFFFFFFFFFFFFFFFFFFFFFFFFFFFF AND PUSH20 0xFFFFFFFFFFFFFFFFFFFFFFFFFFFFFFFFFFFFFFFF AND DUP2 MSTORE PUSH1 0x20 ADD SWAP1 DUP2 MSTORE PUSH1 0x20 ADD PUSH1 0x0 KECCAK256 SWAP1 POP DUP1 PUSH1 0x0 ADD DUP2 PUSH1 0x1 ADD DUP3 PUSH1 0x6 ADD DUP4 PUSH1 0x2 ADD DUP5 PUSH1 0x3 ADD DUP6 PUSH1 0x4 ADD DUP7 PUSH1 0x5 ADD DUP8 PUSH1 0x9 ADD PUSH1 0x0 SWAP1 SLOAD SWAP1 PUSH2 0x100 EXP SWAP1 DIV PUSH20 0xFFFFFFFFFFFFFFFFFFFFFFFFFFFFFFFFFFFFFFFF AND DUP8 DUP1 SLOAD PUSH1 0x1 DUP2 PUSH1 0x1 AND ISZERO PUSH2 0x100 MUL SUB AND PUSH1 0x2 SWAP1 DIV DUP1 PUSH1 0x1F ADD PUSH1 0x20 DUP1 SWAP2 DIV MUL PUSH1 0x20 ADD PUSH1 0x40 MLOAD SWAP1 DUP2 ADD PUSH1 0x40 MSTORE DUP1 SWAP3 SWAP2 SWAP1 DUP2 DUP2 MSTORE PUSH1 0x20 ADD DUP3 DUP1 SLOAD PUSH1 0x1 DUP2 PUSH1 0x1 AND ISZERO PUSH2 0x100 MUL SUB AND PUSH1 0x2 SWAP1 DIV DUP1 ISZERO PUSH2 0x9D6 JUMPI DUP1 PUSH1 0x1F LT PUSH2 0x9AB JUMPI PUSH2 0x100 DUP1 DUP4 SLOAD DIV MUL DUP4 MSTORE SWAP2 PUSH1 0x20 ADD SWAP2 PUSH2 0x9D6 JUMP JUMPDEST DUP3 ADD SWAP2 SWAP1 PUSH1 0x0 MSTORE PUSH1 0x20 PUSH1 0x0 KECCAK256 SWAP1 JUMPDEST DUP2 SLOAD DUP2 MSTORE SWAP1 PUSH1 0x1 ADD SWAP1 PUSH1 0x20 ADD DUP1 DUP4 GT PUSH2 0x9B9 JUMPI DUP3 SWAP1 SUB PUSH1 0x1F AND DUP3 ADD SWAP2 JUMPDEST POP POP POP POP POP SWAP8 POP DUP7 DUP1 SLOAD PUSH1 0x1 DUP2 PUSH1 0x1 AND ISZERO PUSH2 0x100 MUL SUB AND PUSH1 0x2 SWAP1 DIV DUP1 PUSH1 0x1F ADD PUSH1 0x20 DUP1 SWAP2 DIV MUL PUSH1 0x20 ADD PUSH1 0x40 MLOAD SWAP1 DUP2 ADD PUSH1 0x40 MSTORE DUP1 SWAP3 SWAP2 SWAP1 DUP2 DUP2 MSTORE PUSH1 0x20 ADD DUP3 DUP1 SLOAD PUSH1 0x1 DUP2 PUSH1 0x1 AND ISZERO PUSH2 0x100 MUL SUB AND PUSH1 0x2 SWAP1 DIV DUP1 ISZERO PUSH2 0xA72 JUMPI DUP1 PUSH1 0x1F LT PUSH2 0xA47 JUMPI PUSH2 0x100 DUP1 DUP4 SLOAD DIV MUL DUP4 MSTORE SWAP2 PUSH1 0x20 ADD SWAP2 PUSH2 0xA72 JUMP JUMPDEST DUP3 ADD SWAP2 SWAP1 PUSH1 0x0 MSTORE PUSH1 0x20 PUSH1 0x0 KECCAK256 SWAP1 JUMPDEST DUP2 SLOAD DUP2 MSTORE SWAP1 PUSH1 0x1 ADD SWAP1 PUSH1 0x20 ADD DUP1 DUP4 GT PUSH2 0xA55 JUMPI DUP3 SWAP1 SUB PUSH1 0x1F AND DUP3 ADD SWAP2 JUMPDEST POP POP POP POP POP SWAP7 POP DUP6 DUP1 SLOAD PUSH1 0x1 DUP2 PUSH1 0x1 AND ISZERO PUSH2 0x100 MUL SUB AND PUSH1 0x2 SWAP1 DIV DUP1 PUSH1 0x1F ADD PUSH1 0x20 DUP1 SWAP2 DIV MUL PUSH1 0x20 ADD PUSH1 0x40 MLOAD SWAP1 DUP2 ADD PUSH1 0x40 MSTORE DUP1 SWAP3 SWAP2 SWAP1 DUP2 DUP2 MSTORE PUSH1 0x20 ADD DUP3 DUP1 SLOAD PUSH1 0x1 DUP2 PUSH1 0x1 AND ISZERO PUSH2 0x100 MUL SUB AND PUSH1 0x2 SWAP1 DIV DUP1 ISZERO PUSH2 0xB0E JUMPI DUP1 PUSH1 0x1F LT PUSH2 0xAE3 JUMPI PUSH2 0x100 DUP1 DUP4 SLOAD DIV MUL DUP4 MSTORE SWAP2 PUSH1 0x20 ADD SWAP2 PUSH2 0xB0E JUMP JUMPDEST DUP3 ADD SWAP2 SWAP1 PUSH1 0x0 MSTORE PUSH1 0x20 PUSH1 0x0 KECCAK256 SWAP1 JUMPDEST DUP2 SLOAD DUP2 MSTORE SWAP1 PUSH1 0x1 ADD SWAP1 PUSH1 0x20 ADD DUP1 DUP4 GT PUSH2 0xAF1 JUMPI DUP3 SWAP1 SUB PUSH1 0x1F AND DUP3 ADD SWAP2 JUMPDEST POP POP POP POP POP SWAP6 POP DUP5 DUP1 SLOAD PUSH1 0x1 DUP2 PUSH1 0x1 AND ISZERO PUSH2 0x100 MUL SUB AND PUSH1 0x2 SWAP1 DIV DUP1 PUSH1 0x1F ADD PUSH1 0x20 DUP1 SWAP2 DIV MUL PUSH1 0x20 ADD PUSH1 0x40 MLOAD SWAP1 DUP2 ADD PUSH1 0x40 MSTORE DUP1 SWAP3 SWAP2 SWAP1 DUP2 DUP2 MSTORE PUSH1 0x20 ADD DUP3 DUP1 SLOAD PUSH1 0x1 DUP2 PUSH1 0x1 AND ISZERO PUSH2 0x100 MUL SUB AND PUSH1 0x2 SWAP1 DIV DUP1 ISZERO PUSH2 0xBAA JUMPI DUP1 PUSH1 0x1F LT PUSH2 0xB7F JUMPI PUSH2 0x100 DUP1 DUP4 SLOAD DIV MUL DUP4 MSTORE SWAP2 PUSH1 0x20 ADD SWAP2 PUSH2 0xBAA JUMP JUMPDEST DUP3 ADD SWAP2 SWAP1 PUSH1 0x0 MSTORE PUSH1 0x20 PUSH1 0x0 KECCAK256 SWAP1 JUMPDEST DUP2 SLOAD DUP2 MSTORE SWAP1 PUSH1 0x1 ADD SWAP1 PUSH1 0x20 ADD DUP1 DUP4 GT PUSH2 0xB8D JUMPI DUP3 SWAP1 SUB PUSH1 0x1F AND DUP3 ADD SWAP2 JUMPDEST POP POP POP POP POP SWAP5 POP DUP4 DUP1 SLOAD PUSH1 0x1 DUP2 PUSH1 0x1 AND ISZERO PUSH2 0x100 MUL SUB AND PUSH1 0x2 SWAP1 DIV DUP1 PUSH1 0x1F ADD PUSH1 0x20 DUP1 SWAP2 DIV MUL PUSH1 0x20 ADD PUSH1 0x40 MLOAD SWAP1 DUP2 ADD PUSH1 0x40 MSTORE DUP1 SWAP3 SWAP2 SWAP1 DUP2 DUP2 MSTORE PUSH1 0x20 ADD DUP3 DUP1 SLOAD PUSH1 0x1 DUP2 PUSH1 0x1 AND ISZERO PUSH2 0x100 MUL SUB AND PUSH1 0x2 SWAP1 DIV DUP1 ISZERO PUSH2 0xC46 JUMPI DUP1 PUSH1 0x1F LT PUSH2 0xC1B JUMPI PUSH2 0x100 DUP1 DUP4 SLOAD DIV MUL DUP4 MSTORE SWAP2 PUSH1 0x20 ADD SWAP2 PUSH2 0xC46 JUMP JUMPDEST DUP3 ADD SWAP2 SWAP1 PUSH1 0x0 MSTORE PUSH1 0x20 PUSH1 0x0 KECCAK256 SWAP1 JUMPDEST DUP2 SLOAD DUP2 MSTORE SWAP1 PUSH1 0x1 ADD SWAP1 PUSH1 0x20 ADD DUP1 DUP4 GT PUSH2 0xC29 JUMPI DUP3 SWAP1 SUB PUSH1 0x1F AND DUP3 ADD SWAP2 JUMPDEST POP POP POP POP POP SWAP4 POP DUP3 DUP1 SLOAD PUSH1 0x1 DUP2 PUSH1 0x1 AND ISZERO PUSH2 0x100 MUL SUB AND PUSH1 0x2 SWAP1 DIV DUP1 PUSH1 0x1F ADD PUSH1 0x20 DUP1 SWAP2 DIV MUL PUSH1 0x20 ADD PUSH1 0x40 MLOAD SWAP1 DUP2 ADD PUSH1 0x40 MSTORE DUP1 SWAP3 SWAP2 SWAP1 DUP2 DUP2 MSTORE PUSH1 0x20 ADD DUP3 DUP1 SLOAD PUSH1 0x1 DUP2 PUSH1 0x1 AND ISZERO PUSH2 0x100 MUL SUB AND PUSH1 0x2 SWAP1 DIV DUP1 ISZERO PUSH2 0xCE2 JUMPI DUP1 PUSH1 0x1F LT PUSH2 0xCB7 JUMPI PUSH2 0x100 DUP1 DUP4 SLOAD DIV MUL DUP4 MSTORE SWAP2 PUSH1 0x20 ADD SWAP2 PUSH2 0xCE2 JUMP JUMPDEST DUP3 ADD SWAP2 SWAP1 PUSH1 0x0 MSTORE PUSH1 0x20 PUSH1 0x0 KECCAK256 SWAP1 JUMPDEST DUP2 SLOAD DUP2 MSTORE SWAP1 PUSH1 0x1 ADD SWAP1 PUSH1 0x20 ADD DUP1 DUP4 GT PUSH2 0xCC5 JUMPI DUP3 SWAP1 SUB PUSH1 0x1F AND DUP3 ADD SWAP2 JUMPDEST POP POP POP POP POP SWAP3 POP DUP2 DUP1 SLOAD PUSH1 0x1 DUP2 PUSH1 0x1 AND ISZERO PUSH2 0x100 MUL SUB AND PUSH1 0x2 SWAP1 DIV DUP1 PUSH1 0x1F ADD PUSH1 0x20 DUP1 SWAP2 DIV MUL PUSH1 0x20 ADD PUSH1 0x40 MLOAD SWAP1 DUP2 ADD PUSH1 0x40 MSTORE DUP1 SWAP3 SWAP2 SWAP1 DUP2 DUP2 MSTORE PUSH1 0x20 ADD DUP3 DUP1 SLOAD PUSH1 0x1 DUP2 PUSH1 0x1 AND ISZERO PUSH2 0x100 MUL SUB AND PUSH1 0x2 SWAP1 DIV DUP1 ISZERO PUSH2 0xD7E JUMPI DUP1 PUSH1 0x1F LT PUSH2 0xD53 JUMPI PUSH2 0x100 DUP1 DUP4 SLOAD DIV MUL DUP4 MSTORE SWAP2 PUSH1 0x20 ADD SWAP2 PUSH2 0xD7E JUMP JUMPDEST DUP3 ADD SWAP2 SWAP1 PUSH1 0x0 MSTORE PUSH1 0x20 PUSH1 0x0 KECCAK256 SWAP1 JUMPDEST DUP2 SLOAD DUP2 MSTORE SWAP1 PUSH1 0x1 ADD SWAP1 PUSH1 0x20 ADD DUP1 DUP4 GT PUSH2 0xD61 JUMPI DUP3 SWAP1 SUB PUSH1 0x1F AND DUP3 ADD SWAP2 JUMPDEST POP POP POP POP POP SWAP2 POP SWAP9 POP SWAP9 POP SWAP9 POP SWAP9 POP SWAP9 POP SWAP9 POP SWAP9 POP SWAP9 POP POP SWAP2 SWAP4 SWAP6 SWAP8 POP SWAP2 SWAP4 SWAP6 SWAP8 JUMP JUMPDEST PUSH1 0xB SLOAD DUP2 JUMP JUMPDEST PUSH1 0x2 DUP2 DUP2 SLOAD DUP2 LT ISZERO ISZERO PUSH2 0xDB6 JUMPI INVALID JUMPDEST SWAP1 PUSH1 0x0 MSTORE PUSH1 0x20 PUSH1 0x0 KECCAK256 ADD PUSH1 0x0 SWAP2 POP SLOAD SWAP1 PUSH2 0x100 EXP SWAP1 DIV PUSH20 0xFFFFFFFFFFFFFFFFFFFFFFFFFFFFFFFFFFFFFFFF AND DUP2 JUMP JUMPDEST PUSH1 0x0 PUSH1 0x10 PUSH1 0x0 SWAP1 SLOAD SWAP1 PUSH2 0x100 EXP SWAP1 DIV PUSH20 0xFFFFFFFFFFFFFFFFFFFFFFFFFFFFFFFFFFFFFFFF AND PUSH20 0xFFFFFFFFFFFFFFFFFFFFFFFFFFFFFFFFFFFFFFFF AND CALLER PUSH20 0xFFFFFFFFFFFFFFFFFFFFFFFFFFFFFFFFFFFFFFFF AND EQ ISZERO ISZERO PUSH2 0xE43 JUMPI PUSH1 0x0 DUP1 REVERT JUMPDEST PUSH1 0x9 PUSH1 0x0 DUP11 PUSH20 0xFFFFFFFFFFFFFFFFFFFFFFFFFFFFFFFFFFFFFFFF AND PUSH20 0xFFFFFFFFFFFFFFFFFFFFFFFFFFFFFFFFFFFFFFFF AND DUP2 MSTORE PUSH1 0x20 ADD SWAP1 DUP2 MSTORE PUSH1 0x20 ADD PUSH1 0x0 KECCAK256 PUSH1 0x0 SWAP1 SLOAD SWAP1 PUSH2 0x100 EXP SWAP1 DIV PUSH1 0xFF AND ISZERO ISZERO PUSH2 0xE9B JUMPI PUSH1 0x0 DUP1 REVERT JUMPDEST PUSH1 0x5 PUSH1 0x0 DUP11 PUSH20 0xFFFFFFFFFFFFFFFFFFFFFFFFFFFFFFFFFFFFFFFF AND PUSH20 0xFFFFFFFFFFFFFFFFFFFFFFFFFFFFFFFFFFFFFFFF AND DUP2 MSTORE PUSH1 0x20 ADD SWAP1 DUP2 MSTORE PUSH1 0x20 ADD PUSH1 0x0 KECCAK256 SWAP1 POP DUP8 DUP2 PUSH1 0x0 ADD SWAP1 DUP1 MLOAD SWAP1 PUSH1 0x20 ADD SWAP1 PUSH2 0xEF4 SWAP3 SWAP2 SWAP1 PUSH2 0x2C5F JUMP JUMPDEST POP DUP7 DUP2 PUSH1 0x1 ADD SWAP1 DUP1 MLOAD SWAP1 PUSH1 0x20 ADD SWAP1 PUSH2 0xF0D SWAP3 SWAP2 SWAP1 PUSH2 0x2C5F JUMP JUMPDEST POP DUP6 DUP2 PUSH1 0x2 ADD SWAP1 DUP1 MLOAD SWAP1 PUSH1 0x20 ADD SWAP1 PUSH2 0xF26 SWAP3 SWAP2 SWAP1 PUSH2 0x2C5F JUMP JUMPDEST POP DUP5 DUP2 PUSH1 0x3 ADD SWAP1 DUP1 MLOAD SWAP1 PUSH1 0x20 ADD SWAP1 PUSH2 0xF3F SWAP3 SWAP2 SWAP1 PUSH2 0x2C5F JUMP JUMPDEST POP DUP4 DUP2 PUSH1 0x5 ADD SWAP1 DUP1 MLOAD SWAP1 PUSH1 0x20 ADD SWAP1 PUSH2 0xF58 SWAP3 SWAP2 SWAP1 PUSH2 0x2C5F JUMP JUMPDEST POP DUP3 DUP2 PUSH1 0x6 ADD SWAP1 DUP1 MLOAD SWAP1 PUSH1 0x20 ADD SWAP1 PUSH2 0xF71 SWAP3 SWAP2 SWAP1 PUSH2 0x2C5F JUMP JUMPDEST POP DUP2 DUP2 PUSH1 0x7 ADD SWAP1 DUP1 MLOAD SWAP1 PUSH1 0x20 ADD SWAP1 PUSH2 0xF8A SWAP3 SWAP2 SWAP1 PUSH2 0x2C5F JUMP JUMPDEST POP DUP9 DUP2 PUSH1 0x8 ADD PUSH1 0x0 PUSH2 0x100 EXP DUP2 SLOAD DUP2 PUSH20 0xFFFFFFFFFFFFFFFFFFFFFFFFFFFFFFFFFFFFFFFF MUL NOT AND SWAP1 DUP4 PUSH20 0xFFFFFFFFFFFFFFFFFFFFFFFFFFFFFFFFFFFFFFFF AND MUL OR SWAP1 SSTORE POP POP POP POP POP POP POP POP POP POP JUMP JUMPDEST PUSH1 0x0 PUSH1 0x10 PUSH1 0x0 SWAP1 SLOAD SWAP1 PUSH2 0x100 EXP SWAP1 DIV PUSH20 0xFFFFFFFFFFFFFFFFFFFFFFFFFFFFFFFFFFFFFFFF AND PUSH20 0xFFFFFFFFFFFFFFFFFFFFFFFFFFFFFFFFFFFFFFFF AND CALLER PUSH20 0xFFFFFFFFFFFFFFFFFFFFFFFFFFFFFFFFFFFFFFFF AND EQ ISZERO ISZERO PUSH2 0x1037 JUMPI PUSH1 0x0 DUP1 REVERT JUMPDEST PUSH1 0x9 PUSH1 0x0 DUP11 PUSH20 0xFFFFFFFFFFFFFFFFFFFFFFFFFFFFFFFFFFFFFFFF AND PUSH20 0xFFFFFFFFFFFFFFFFFFFFFFFFFFFFFFFFFFFFFFFF AND DUP2 MSTORE PUSH1 0x20 ADD SWAP1 DUP2 MSTORE PUSH1 0x20 ADD PUSH1 0x0 KECCAK256 PUSH1 0x0 SWAP1 SLOAD SWAP1 PUSH2 0x100 EXP SWAP1 DIV PUSH1 0xFF AND ISZERO ISZERO ISZERO PUSH2 0x1090 JUMPI PUSH1 0x0 DUP1 REVERT JUMPDEST PUSH1 0x5 PUSH1 0x0 DUP11 PUSH20 0xFFFFFFFFFFFFFFFFFFFFFFFFFFFFFFFFFFFFFFFF AND PUSH20 0xFFFFFFFFFFFFFFFFFFFFFFFFFFFFFFFFFFFFFFFF AND DUP2 MSTORE PUSH1 0x20 ADD SWAP1 DUP2 MSTORE PUSH1 0x20 ADD PUSH1 0x0 KECCAK256 SWAP1 POP DUP8 DUP2 PUSH1 0x0 ADD SWAP1 DUP1 MLOAD SWAP1 PUSH1 0x20 ADD SWAP1 PUSH2 0x10E9 SWAP3 SWAP2 SWAP1 PUSH2 0x2C5F JUMP JUMPDEST POP DUP7 DUP2 PUSH1 0x1 ADD SWAP1 DUP1 MLOAD SWAP1 PUSH1 0x20 ADD SWAP1 PUSH2 0x1102 SWAP3 SWAP2 SWAP1 PUSH2 0x2C5F JUMP JUMPDEST POP DUP6 DUP2 PUSH1 0x2 ADD SWAP1 DUP1 MLOAD SWAP1 PUSH1 0x20 ADD SWAP1 PUSH2 0x111B SWAP3 SWAP2 SWAP1 PUSH2 0x2C5F JUMP JUMPDEST POP DUP5 DUP2 PUSH1 0x3 ADD SWAP1 DUP1 MLOAD SWAP1 PUSH1 0x20 ADD SWAP1 PUSH2 0x1134 SWAP3 SWAP2 SWAP1 PUSH2 0x2C5F JUMP JUMPDEST POP DUP4 DUP2 PUSH1 0x5 ADD SWAP1 DUP1 MLOAD SWAP1 PUSH1 0x20 ADD SWAP1 PUSH2 0x114D SWAP3 SWAP2 SWAP1 PUSH2 0x2C5F JUMP JUMPDEST POP DUP3 DUP2 PUSH1 0x6 ADD SWAP1 DUP1 MLOAD SWAP1 PUSH1 0x20 ADD SWAP1 PUSH2 0x1166 SWAP3 SWAP2 SWAP1 PUSH2 0x2C5F JUMP JUMPDEST POP DUP2 DUP2 PUSH1 0x7 ADD SWAP1 DUP1 MLOAD SWAP1 PUSH1 0x20 ADD SWAP1 PUSH2 0x117F SWAP3 SWAP2 SWAP1 PUSH2 0x2C5F JUMP JUMPDEST POP DUP9 DUP2 PUSH1 0x8 ADD PUSH1 0x0 PUSH2 0x100 EXP DUP2 SLOAD DUP2 PUSH20 0xFFFFFFFFFFFFFFFFFFFFFFFFFFFFFFFFFFFFFFFF MUL NOT AND SWAP1 DUP4 PUSH20 0xFFFFFFFFFFFFFFFFFFFFFFFFFFFFFFFFFFFFFFFF AND MUL OR SWAP1 SSTORE POP TIMESTAMP DUP2 PUSH1 0x9 ADD DUP2 SWAP1 SSTORE POP PUSH1 0x2 DUP10 SWAP1 DUP1 PUSH1 0x1 DUP2 SLOAD ADD DUP1 DUP3 SSTORE DUP1 SWAP2 POP POP SWAP1 PUSH1 0x1 DUP3 SUB SWAP1 PUSH1 0x0 MSTORE PUSH1 0x20 PUSH1 0x0 KECCAK256 ADD PUSH1 0x0 SWAP1 SWAP2 SWAP3 SWAP1 SWAP2 SWAP1 SWAP2 PUSH2 0x100 EXP DUP2 SLOAD DUP2 PUSH20 0xFFFFFFFFFFFFFFFFFFFFFFFFFFFFFFFFFFFFFFFF MUL NOT AND SWAP1 DUP4 PUSH20 0xFFFFFFFFFFFFFFFFFFFFFFFFFFFFFFFFFFFFFFFF AND MUL OR SWAP1 SSTORE POP POP PUSH1 0x1 PUSH1 0x9 PUSH1 0x0 DUP12 PUSH20 0xFFFFFFFFFFFFFFFFFFFFFFFFFFFFFFFFFFFFFFFF AND PUSH20 0xFFFFFFFFFFFFFFFFFFFFFFFFFFFFFFFFFFFFFFFF AND DUP2 MSTORE PUSH1 0x20 ADD SWAP1 DUP2 MSTORE PUSH1 0x20 ADD PUSH1 0x0 KECCAK256 PUSH1 0x0 PUSH2 0x100 EXP DUP2 SLOAD DUP2 PUSH1 0xFF MUL NOT AND SWAP1 DUP4 ISZERO ISZERO MUL OR SWAP1 SSTORE POP PUSH1 0x1 PUSH1 0x7 PUSH1 0x0 DUP12 PUSH20 0xFFFFFFFFFFFFFFFFFFFFFFFFFFFFFFFFFFFFFFFF AND PUSH20 0xFFFFFFFFFFFFFFFFFFFFFFFFFFFFFFFFFFFFFFFF AND DUP2 MSTORE PUSH1 0x20 ADD SWAP1 DUP2 MSTORE PUSH1 0x20 ADD PUSH1 0x0 KECCAK256 PUSH1 0x0 DUP12 PUSH20 0xFFFFFFFFFFFFFFFFFFFFFFFFFFFFFFFFFFFFFFFF AND PUSH20 0xFFFFFFFFFFFFFFFFFFFFFFFFFFFFFFFFFFFFFFFF AND DUP2 MSTORE PUSH1 0x20 ADD SWAP1 DUP2 MSTORE PUSH1 0x20 ADD PUSH1 0x0 KECCAK256 PUSH1 0x0 PUSH2 0x100 EXP DUP2 SLOAD DUP2 PUSH1 0xFF MUL NOT AND SWAP1 DUP4 ISZERO ISZERO MUL OR SWAP1 SSTORE POP PUSH1 0x1 PUSH1 0x7 PUSH1 0x0 DUP12 PUSH20 0xFFFFFFFFFFFFFFFFFFFFFFFFFFFFFFFFFFFFFFFF AND PUSH20 0xFFFFFFFFFFFFFFFFFFFFFFFFFFFFFFFFFFFFFFFF AND DUP2 MSTORE PUSH1 0x20 ADD SWAP1 DUP2 MSTORE PUSH1 0x20 ADD PUSH1 0x0 KECCAK256 PUSH1 0x0 PUSH1 0x10 PUSH1 0x0 SWAP1 SLOAD SWAP1 PUSH2 0x100 EXP SWAP1 DIV PUSH20 0xFFFFFFFFFFFFFFFFFFFFFFFFFFFFFFFFFFFFFFFF AND PUSH20 0xFFFFFFFFFFFFFFFFFFFFFFFFFFFFFFFFFFFFFFFF AND PUSH20 0xFFFFFFFFFFFFFFFFFFFFFFFFFFFFFFFFFFFFFFFF AND DUP2 MSTORE PUSH1 0x20 ADD SWAP1 DUP2 MSTORE PUSH1 0x20 ADD PUSH1 0x0 KECCAK256 PUSH1 0x0 PUSH2 0x100 EXP DUP2 SLOAD DUP2 PUSH1 0xFF MUL NOT AND SWAP1 DUP4 ISZERO ISZERO MUL OR SWAP1 SSTORE POP PUSH1 0xC PUSH1 0x0 DUP2 SLOAD DUP1 SWAP3 SWAP2 SWAP1 PUSH1 0x1 ADD SWAP2 SWAP1 POP SSTORE POP POP POP POP POP POP POP POP POP POP JUMP JUMPDEST PUSH1 0x0 DUP1 DUP3 SWAP1 POP PUSH1 0x10 PUSH1 0x0 SWAP1 SLOAD SWAP1 PUSH2 0x100 EXP SWAP1 DIV PUSH20 0xFFFFFFFFFFFFFFFFFFFFFFFFFFFFFFFFFFFFFFFF AND PUSH20 0xFFFFFFFFFFFFFFFFFFFFFFFFFFFFFFFFFFFFFFFF AND DUP2 PUSH20 0xFFFFFFFFFFFFFFFFFFFFFFFFFFFFFFFFFFFFFFFF AND EQ ISZERO PUSH2 0x1458 JUMPI PUSH1 0x1 SWAP2 POP PUSH2 0x145D JUMP JUMPDEST PUSH1 0x0 SWAP2 POP JUMPDEST POP SWAP2 SWAP1 POP JUMP JUMPDEST PUSH1 0x0 PUSH1 0x1 PUSH1 0x7 PUSH1 0x0 CALLER PUSH20 0xFFFFFFFFFFFFFFFFFFFFFFFFFFFFFFFFFFFFFFFF AND PUSH20 0xFFFFFFFFFFFFFFFFFFFFFFFFFFFFFFFFFFFFFFFF AND DUP2 MSTORE PUSH1 0x20 ADD SWAP1 DUP2 MSTORE PUSH1 0x20 ADD PUSH1 0x0 KECCAK256 PUSH1 0x0 DUP5 PUSH20 0xFFFFFFFFFFFFFFFFFFFFFFFFFFFFFFFFFFFFFFFF AND PUSH20 0xFFFFFFFFFFFFFFFFFFFFFFFFFFFFFFFFFFFFFFFF AND DUP2 MSTORE PUSH1 0x20 ADD SWAP1 DUP2 MSTORE PUSH1 0x20 ADD PUSH1 0x0 KECCAK256 PUSH1 0x0 PUSH2 0x100 EXP DUP2 SLOAD DUP2 PUSH1 0xFF MUL NOT AND SWAP1 DUP4 ISZERO ISZERO MUL OR SWAP1 SSTORE POP PUSH1 0xE PUSH1 0x0 DUP2 SLOAD DUP1 SWAP3 SWAP2 SWAP1 PUSH1 0x1 ADD SWAP2 SWAP1 POP SSTORE POP PUSH1 0x1 SWAP1 POP SWAP2 SWAP1 POP JUMP JUMPDEST PUSH1 0x0 DUP1 PUSH1 0x10 PUSH1 0x0 SWAP1 SLOAD SWAP1 PUSH2 0x100 EXP SWAP1 DIV PUSH20 0xFFFFFFFFFFFFFFFFFFFFFFFFFFFFFFFFFFFFFFFF AND PUSH20 0xFFFFFFFFFFFFFFFFFFFFFFFFFFFFFFFFFFFFFFFF AND CALLER PUSH20 0xFFFFFFFFFFFFFFFFFFFFFFFFFFFFFFFFFFFFFFFF AND EQ ISZERO ISZERO PUSH2 0x1574 JUMPI PUSH1 0x0 DUP1 REVERT JUMPDEST PUSH1 0xA PUSH1 0x0 DUP11 PUSH20 0xFFFFFFFFFFFFFFFFFFFFFFFFFFFFFFFFFFFFFFFF AND PUSH20 0xFFFFFFFFFFFFFFFFFFFFFFFFFFFFFFFFFFFFFFFF AND DUP2 MSTORE PUSH1 0x20 ADD SWAP1 DUP2 MSTORE PUSH1 0x20 ADD PUSH1 0x0 KECCAK256 PUSH1 0x0 SWAP1 SLOAD SWAP1 PUSH2 0x100 EXP SWAP1 DIV PUSH1 0xFF AND ISZERO ISZERO ISZERO PUSH2 0x15CD JUMPI PUSH1 0x0 DUP1 REVERT JUMPDEST PUSH1 0x6 PUSH1 0x0 DUP11 PUSH20 0xFFFFFFFFFFFFFFFFFFFFFFFFFFFFFFFFFFFFFFFF AND PUSH20 0xFFFFFFFFFFFFFFFFFFFFFFFFFFFFFFFFFFFFFFFF AND DUP2 MSTORE PUSH1 0x20 ADD SWAP1 DUP2 MSTORE PUSH1 0x20 ADD PUSH1 0x0 KECCAK256 SWAP1 POP DUP7 DUP2 PUSH1 0x0 ADD SWAP1 DUP1 MLOAD SWAP1 PUSH1 0x20 ADD SWAP1 PUSH2 0x1626 SWAP3 SWAP2 SWAP1 PUSH2 0x2C5F JUMP JUMPDEST POP DUP6 DUP2 PUSH1 0x1 ADD SWAP1 DUP1 MLOAD SWAP1 PUSH1 0x20 ADD SWAP1 PUSH2 0x163F SWAP3 SWAP2 SWAP1 PUSH2 0x2C5F JUMP JUMPDEST POP DUP5 DUP2 PUSH1 0x2 ADD SWAP1 DUP1 MLOAD SWAP1 PUSH1 0x20 ADD SWAP1 PUSH2 0x1658 SWAP3 SWAP2 SWAP1 PUSH2 0x2C5F JUMP JUMPDEST POP DUP4 DUP2 PUSH1 0x3 ADD SWAP1 DUP1 MLOAD SWAP1 PUSH1 0x20 ADD SWAP1 PUSH2 0x1671 SWAP3 SWAP2 SWAP1 PUSH2 0x2C5F JUMP JUMPDEST POP DUP3 DUP2 PUSH1 0x4 ADD DUP2 SWAP1 SSTORE POP DUP9 DUP2 PUSH1 0x5 ADD PUSH1 0x0 PUSH2 0x100 EXP DUP2 SLOAD DUP2 PUSH20 0xFFFFFFFFFFFFFFFFFFFFFFFFFFFFFFFFFFFFFFFF MUL NOT AND SWAP1 DUP4 PUSH20 0xFFFFFFFFFFFFFFFFFFFFFFFFFFFFFFFFFFFFFFFF AND MUL OR SWAP1 SSTORE POP DUP8 DUP2 PUSH1 0x6 ADD PUSH1 0x0 PUSH2 0x100 EXP DUP2 SLOAD DUP2 PUSH20 0xFFFFFFFFFFFFFFFFFFFFFFFFFFFFFFFFFFFFFFFF MUL NOT AND SWAP1 DUP4 PUSH20 0xFFFFFFFFFFFFFFFFFFFFFFFFFFFFFFFFFFFFFFFF AND MUL OR SWAP1 SSTORE POP PUSH1 0x3 DUP10 SWAP1 DUP1 PUSH1 0x1 DUP2 SLOAD ADD DUP1 DUP3 SSTORE DUP1 SWAP2 POP POP SWAP1 PUSH1 0x1 DUP3 SUB SWAP1 PUSH1 0x0 MSTORE PUSH1 0x20 PUSH1 0x0 KECCAK256 ADD PUSH1 0x0 SWAP1 SWAP2 SWAP3 SWAP1 SWAP2 SWAP1 SWAP2 PUSH2 0x100 EXP DUP2 SLOAD DUP2 PUSH20 0xFFFFFFFFFFFFFFFFFFFFFFFFFFFFFFFFFFFFFFFF MUL NOT AND SWAP1 DUP4 PUSH20 0xFFFFFFFFFFFFFFFFFFFFFFFFFFFFFFFFFFFFFFFF AND MUL OR SWAP1 SSTORE POP POP PUSH1 0xF PUSH1 0x0 DUP2 SLOAD DUP1 SWAP3 SWAP2 SWAP1 PUSH1 0x1 ADD SWAP2 SWAP1 POP SSTORE POP POP SWAP8 SWAP7 POP POP POP POP POP POP POP JUMP JUMPDEST PUSH1 0x0 DUP1 PUSH1 0x7 PUSH1 0x0 CALLER PUSH20 0xFFFFFFFFFFFFFFFFFFFFFFFFFFFFFFFFFFFFFFFF AND PUSH20 0xFFFFFFFFFFFFFFFFFFFFFFFFFFFFFFFFFFFFFFFF AND DUP2 MSTORE PUSH1 0x20 ADD SWAP1 DUP2 MSTORE PUSH1 0x20 ADD PUSH1 0x0 KECCAK256 PUSH1 0x0 DUP5 PUSH20 0xFFFFFFFFFFFFFFFFFFFFFFFFFFFFFFFFFFFFFFFF AND PUSH20 0xFFFFFFFFFFFFFFFFFFFFFFFFFFFFFFFFFFFFFFFF AND DUP2 MSTORE PUSH1 0x20 ADD SWAP1 DUP2 MSTORE PUSH1 0x20 ADD PUSH1 0x0 KECCAK256 PUSH1 0x0 PUSH2 0x100 EXP DUP2 SLOAD DUP2 PUSH1 0xFF MUL NOT AND SWAP1 DUP4 ISZERO ISZERO MUL OR SWAP1 SSTORE POP PUSH1 0x1 SWAP1 POP SWAP2 SWAP1 POP JUMP JUMPDEST PUSH1 0x0 PUSH1 0x10 PUSH1 0x0 SWAP1 SLOAD SWAP1 PUSH2 0x100 EXP SWAP1 DIV PUSH20 0xFFFFFFFFFFFFFFFFFFFFFFFFFFFFFFFFFFFFFFFF AND PUSH20 0xFFFFFFFFFFFFFFFFFFFFFFFFFFFFFFFFFFFFFFFF AND CALLER PUSH20 0xFFFFFFFFFFFFFFFFFFFFFFFFFFFFFFFFFFFFFFFF AND EQ ISZERO ISZERO PUSH2 0x1882 JUMPI PUSH1 0x0 DUP1 REVERT JUMPDEST PUSH1 0x8 PUSH1 0x0 DUP13 PUSH20 0xFFFFFFFFFFFFFFFFFFFFFFFFFFFFFFFFFFFFFFFF AND PUSH20 0xFFFFFFFFFFFFFFFFFFFFFFFFFFFFFFFFFFFFFFFF AND DUP2 MSTORE PUSH1 0x20 ADD SWAP1 DUP2 MSTORE PUSH1 0x20 ADD PUSH1 0x0 KECCAK256 PUSH1 0x0 SWAP1 SLOAD SWAP1 PUSH2 0x100 EXP SWAP1 DIV PUSH1 0xFF AND ISZERO ISZERO ISZERO PUSH2 0x18DB JUMPI PUSH1 0x0 DUP1 REVERT JUMPDEST PUSH1 0x4 PUSH1 0x0 DUP13 PUSH20 0xFFFFFFFFFFFFFFFFFFFFFFFFFFFFFFFFFFFFFFFF AND PUSH20 0xFFFFFFFFFFFFFFFFFFFFFFFFFFFFFFFFFFFFFFFF AND DUP2 MSTORE PUSH1 0x20 ADD SWAP1 DUP2 MSTORE PUSH1 0x20 ADD PUSH1 0x0 KECCAK256 SWAP1 POP DUP10 DUP2 PUSH1 0x0 ADD SWAP1 DUP1 MLOAD SWAP1 PUSH1 0x20 ADD SWAP1 PUSH2 0x1934 SWAP3 SWAP2 SWAP1 PUSH2 0x2C5F JUMP JUMPDEST POP DUP9 DUP2 PUSH1 0x1 ADD SWAP1 DUP1 MLOAD SWAP1 PUSH1 0x20 ADD SWAP1 PUSH2 0x194D SWAP3 SWAP2 SWAP1 PUSH2 0x2C5F JUMP JUMPDEST POP DUP8 DUP2 PUSH1 0x2 ADD SWAP1 DUP1 MLOAD SWAP1 PUSH1 0x20 ADD SWAP1 PUSH2 0x1966 SWAP3 SWAP2 SWAP1 PUSH2 0x2C5F JUMP JUMPDEST POP DUP7 DUP2 PUSH1 0x3 ADD SWAP1 DUP1 MLOAD SWAP1 PUSH1 0x20 ADD SWAP1 PUSH2 0x197F SWAP3 SWAP2 SWAP1 PUSH2 0x2C5F JUMP JUMPDEST POP DUP6 DUP2 PUSH1 0x4 ADD SWAP1 DUP1 MLOAD SWAP1 PUSH1 0x20 ADD SWAP1 PUSH2 0x1998 SWAP3 SWAP2 SWAP1 PUSH2 0x2C5F JUMP JUMPDEST POP DUP5 DUP2 PUSH1 0x5 ADD SWAP1 DUP1 MLOAD SWAP1 PUSH1 0x20 ADD SWAP1 PUSH2 0x19B1 SWAP3 SWAP2 SWAP1 PUSH2 0x2C5F JUMP JUMPDEST POP DUP4 DUP2 PUSH1 0x6 ADD SWAP1 DUP1 MLOAD SWAP1 PUSH1 0x20 ADD SWAP1 PUSH2 0x19CA SWAP3 SWAP2 SWAP1 PUSH2 0x2C5F JUMP JUMPDEST POP DUP3 DUP2 PUSH1 0x7 ADD SWAP1 DUP1 MLOAD SWAP1 PUSH1 0x20 ADD SWAP1 PUSH2 0x19E3 SWAP3 SWAP2 SWAP1 PUSH2 0x2C5F JUMP JUMPDEST POP DUP2 DUP2 PUSH1 0x8 ADD SWAP1 DUP1 MLOAD SWAP1 PUSH1 0x20 ADD SWAP1 PUSH2 0x19FC SWAP3 SWAP2 SWAP1 PUSH2 0x2C5F JUMP JUMPDEST POP DUP11 DUP2 PUSH1 0x9 ADD PUSH1 0x0 PUSH2 0x100 EXP DUP2 SLOAD DUP2 PUSH20 0xFFFFFFFFFFFFFFFFFFFFFFFFFFFFFFFFFFFFFFFF MUL NOT AND SWAP1 DUP4 PUSH20 0xFFFFFFFFFFFFFFFFFFFFFFFFFFFFFFFFFFFFFFFF AND MUL OR SWAP1 SSTORE POP TIMESTAMP DUP2 PUSH1 0xA ADD DUP2 SWAP1 SSTORE POP PUSH1 0x1 DUP12 SWAP1 DUP1 PUSH1 0x1 DUP2 SLOAD ADD DUP1 DUP3 SSTORE DUP1 SWAP2 POP POP SWAP1 PUSH1 0x1 DUP3 SUB SWAP1 PUSH1 0x0 MSTORE PUSH1 0x20 PUSH1 0x0 KECCAK256 ADD PUSH1 0x0 SWAP1 SWAP2 SWAP3 SWAP1 SWAP2 SWAP1 SWAP2 PUSH2 0x100 EXP DUP2 SLOAD DUP2 PUSH20 0xFFFFFFFFFFFFFFFFFFFFFFFFFFFFFFFFFFFFFFFF MUL NOT AND SWAP1 DUP4 PUSH20 0xFFFFFFFFFFFFFFFFFFFFFFFFFFFFFFFFFFFFFFFF AND MUL OR SWAP1 SSTORE POP POP PUSH1 0x1 PUSH1 0x8 PUSH1 0x0 DUP14 PUSH20 0xFFFFFFFFFFFFFFFFFFFFFFFFFFFFFFFFFFFFFFFF AND PUSH20 0xFFFFFFFFFFFFFFFFFFFFFFFFFFFFFFFFFFFFFFFF AND DUP2 MSTORE PUSH1 0x20 ADD SWAP1 DUP2 MSTORE PUSH1 0x20 ADD PUSH1 0x0 KECCAK256 PUSH1 0x0 PUSH2 0x100 EXP DUP2 SLOAD DUP2 PUSH1 0xFF MUL NOT AND SWAP1 DUP4 ISZERO ISZERO MUL OR SWAP1 SSTORE POP PUSH1 0x1 PUSH1 0x7 PUSH1 0x0 DUP14 PUSH20 0xFFFFFFFFFFFFFFFFFFFFFFFFFFFFFFFFFFFFFFFF AND PUSH20 0xFFFFFFFFFFFFFFFFFFFFFFFFFFFFFFFFFFFFFFFF AND DUP2 MSTORE PUSH1 0x20 ADD SWAP1 DUP2 MSTORE PUSH1 0x20 ADD PUSH1 0x0 KECCAK256 PUSH1 0x0 DUP14 PUSH20 0xFFFFFFFFFFFFFFFFFFFFFFFFFFFFFFFFFFFFFFFF AND PUSH20 0xFFFFFFFFFFFFFFFFFFFFFFFFFFFFFFFFFFFFFFFF AND DUP2 MSTORE PUSH1 0x20 ADD SWAP1 DUP2 MSTORE PUSH1 0x20 ADD PUSH1 0x0 KECCAK256 PUSH1 0x0 PUSH2 0x100 EXP DUP2 SLOAD DUP2 PUSH1 0xFF MUL NOT AND SWAP1 DUP4 ISZERO ISZERO MUL OR SWAP1 SSTORE POP PUSH1 0x1 PUSH1 0x7 PUSH1 0x0 DUP14 PUSH20 0xFFFFFFFFFFFFFFFFFFFFFFFFFFFFFFFFFFFFFFFF AND PUSH20 0xFFFFFFFFFFFFFFFFFFFFFFFFFFFFFFFFFFFFFFFF AND DUP2 MSTORE PUSH1 0x20 ADD SWAP1 DUP2 MSTORE PUSH1 0x20 ADD PUSH1 0x0 KECCAK256 PUSH1 0x0 PUSH1 0x10 PUSH1 0x0 SWAP1 SLOAD SWAP1 PUSH2 0x100 EXP SWAP1 DIV PUSH20 0xFFFFFFFFFFFFFFFFFFFFFFFFFFFFFFFFFFFFFFFF AND PUSH20 0xFFFFFFFFFFFFFFFFFFFFFFFFFFFFFFFFFFFFFFFF AND PUSH20 0xFFFFFFFFFFFFFFFFFFFFFFFFFFFFFFFFFFFFFFFF AND DUP2 MSTORE PUSH1 0x20 ADD SWAP1 DUP2 MSTORE PUSH1 0x20 ADD PUSH1 0x0 KECCAK256 PUSH1 0x0 PUSH2 0x100 EXP DUP2 SLOAD DUP2 PUSH1 0xFF MUL NOT AND SWAP1 DUP4 ISZERO ISZERO MUL OR SWAP1 SSTORE POP PUSH1 0xB PUSH1 0x0 DUP2 SLOAD DUP1 SWAP3 SWAP2 SWAP1 PUSH1 0x1 ADD SWAP2 SWAP1 POP SSTORE POP POP POP POP POP POP POP POP POP POP POP POP JUMP JUMPDEST PUSH1 0x0 PUSH1 0x10 PUSH1 0x0 SWAP1 SLOAD SWAP1 PUSH2 0x100 EXP SWAP1 DIV PUSH20 0xFFFFFFFFFFFFFFFFFFFFFFFFFFFFFFFFFFFFFFFF AND PUSH20 0xFFFFFFFFFFFFFFFFFFFFFFFFFFFFFFFFFFFFFFFF AND CALLER PUSH20 0xFFFFFFFFFFFFFFFFFFFFFFFFFFFFFFFFFFFFFFFF AND EQ ISZERO ISZERO PUSH2 0x1CD0 JUMPI PUSH1 0x0 DUP1 REVERT JUMPDEST PUSH1 0x8 PUSH1 0x0 DUP13 PUSH20 0xFFFFFFFFFFFFFFFFFFFFFFFFFFFFFFFFFFFFFFFF AND PUSH20 0xFFFFFFFFFFFFFFFFFFFFFFFFFFFFFFFFFFFFFFFF AND DUP2 MSTORE PUSH1 0x20 ADD SWAP1 DUP2 MSTORE PUSH1 0x20 ADD PUSH1 0x0 KECCAK256 PUSH1 0x0 SWAP1 SLOAD SWAP1 PUSH2 0x100 EXP SWAP1 DIV PUSH1 0xFF AND ISZERO ISZERO PUSH2 0x1D28 JUMPI PUSH1 0x0 DUP1 REVERT JUMPDEST PUSH1 0x4 PUSH1 0x0 DUP13 PUSH20 0xFFFFFFFFFFFFFFFFFFFFFFFFFFFFFFFFFFFFFFFF AND PUSH20 0xFFFFFFFFFFFFFFFFFFFFFFFFFFFFFFFFFFFFFFFF AND DUP2 MSTORE PUSH1 0x20 ADD SWAP1 DUP2 MSTORE PUSH1 0x20 ADD PUSH1 0x0 KECCAK256 SWAP1 POP DUP10 DUP2 PUSH1 0x0 ADD SWAP1 DUP1 MLOAD SWAP1 PUSH1 0x20 ADD SWAP1 PUSH2 0x1D81 SWAP3 SWAP2 SWAP1 PUSH2 0x2C5F JUMP JUMPDEST POP DUP9 DUP2 PUSH1 0x1 ADD SWAP1 DUP1 MLOAD SWAP1 PUSH1 0x20 ADD SWAP1 PUSH2 0x1D9A SWAP3 SWAP2 SWAP1 PUSH2 0x2C5F JUMP JUMPDEST POP DUP8 DUP2 PUSH1 0x2 ADD SWAP1 DUP1 MLOAD SWAP1 PUSH1 0x20 ADD SWAP1 PUSH2 0x1DB3 SWAP3 SWAP2 SWAP1 PUSH2 0x2C5F JUMP JUMPDEST POP DUP7 DUP2 PUSH1 0x3 ADD SWAP1 DUP1 MLOAD SWAP1 PUSH1 0x20 ADD SWAP1 PUSH2 0x1DCC SWAP3 SWAP2 SWAP1 PUSH2 0x2C5F JUMP JUMPDEST POP DUP6 DUP2 PUSH1 0x4 ADD SWAP1 DUP1 MLOAD SWAP1 PUSH1 0x20 ADD SWAP1 PUSH2 0x1DE5 SWAP3 SWAP2 SWAP1 PUSH2 0x2C5F JUMP JUMPDEST POP DUP5 DUP2 PUSH1 0x5 ADD SWAP1 DUP1 MLOAD SWAP1 PUSH1 0x20 ADD SWAP1 PUSH2 0x1DFE SWAP3 SWAP2 SWAP1 PUSH2 0x2C5F JUMP JUMPDEST POP DUP4 DUP2 PUSH1 0x6 ADD SWAP1 DUP1 MLOAD SWAP1 PUSH1 0x20 ADD SWAP1 PUSH2 0x1E17 SWAP3 SWAP2 SWAP1 PUSH2 0x2C5F JUMP JUMPDEST POP DUP3 DUP2 PUSH1 0x7 ADD SWAP1 DUP1 MLOAD SWAP1 PUSH1 0x20 ADD SWAP1 PUSH2 0x1E30 SWAP3 SWAP2 SWAP1 PUSH2 0x2C5F JUMP JUMPDEST POP DUP2 DUP2 PUSH1 0x8 ADD SWAP1 DUP1 MLOAD SWAP1 PUSH1 0x20 ADD SWAP1 PUSH2 0x1E49 SWAP3 SWAP2 SWAP1 PUSH2 0x2C5F JUMP JUMPDEST POP DUP11 DUP2 PUSH1 0x9 ADD PUSH1 0x0 PUSH2 0x100 EXP DUP2 SLOAD DUP2 PUSH20 0xFFFFFFFFFFFFFFFFFFFFFFFFFFFFFFFFFFFFFFFF MUL NOT AND SWAP1 DUP4 PUSH20 0xFFFFFFFFFFFFFFFFFFFFFFFFFFFFFFFFFFFFFFFF AND MUL OR SWAP1 SSTORE POP POP POP POP POP POP POP POP POP POP POP POP JUMP JUMPDEST PUSH1 0xC SLOAD DUP2 JUMP JUMPDEST PUSH1 0x0 PUSH1 0xC SLOAD SWAP1 POP SWAP1 JUMP JUMPDEST PUSH1 0x0 DUP1 PUSH1 0x0 SWAP1 POP PUSH1 0x2 DUP1 SLOAD SWAP1 POP DUP2 LT ISZERO PUSH2 0x1F29 JUMPI PUSH1 0x1 ISZERO ISZERO PUSH1 0x9 PUSH1 0x0 DUP6 PUSH20 0xFFFFFFFFFFFFFFFFFFFFFFFFFFFFFFFFFFFFFFFF AND PUSH20 0xFFFFFFFFFFFFFFFFFFFFFFFFFFFFFFFFFFFFFFFF AND DUP2 MSTORE PUSH1 0x20 ADD SWAP1 DUP2 MSTORE PUSH1 0x20 ADD PUSH1 0x0 KECCAK256 PUSH1 0x0 SWAP1 SLOAD SWAP1 PUSH2 0x100 EXP SWAP1 DIV PUSH1 0xFF AND ISZERO ISZERO EQ ISZERO PUSH2 0x1F20 JUMPI PUSH1 0x1 SWAP2 POP PUSH2 0x1F2A JUMP JUMPDEST PUSH1 0x0 SWAP2 POP PUSH2 0x1F2A JUMP JUMPDEST JUMPDEST POP SWAP2 SWAP1 POP JUMP JUMPDEST PUSH1 0x60 DUP1 PUSH1 0x60 DUP1 PUSH1 0x0 DUP1 PUSH1 0x0 DUP1 PUSH1 0x7 PUSH1 0x0 DUP11 PUSH20 0xFFFFFFFFFFFFFFFFFFFFFFFFFFFFFFFFFFFFFFFF AND PUSH20 0xFFFFFFFFFFFFFFFFFFFFFFFFFFFFFFFFFFFFFFFF AND DUP2 MSTORE PUSH1 0x20 ADD SWAP1 DUP2 MSTORE PUSH1 0x20 ADD PUSH1 0x0 KECCAK256 PUSH1 0x0 CALLER PUSH20 0xFFFFFFFFFFFFFFFFFFFFFFFFFFFFFFFFFFFFFFFF AND PUSH20 0xFFFFFFFFFFFFFFFFFFFFFFFFFFFFFFFFFFFFFFFF AND DUP2 MSTORE PUSH1 0x20 ADD SWAP1 DUP2 MSTORE PUSH1 0x20 ADD PUSH1 0x0 KECCAK256 PUSH1 0x0 SWAP1 SLOAD SWAP1 PUSH2 0x100 EXP SWAP1 DIV PUSH1 0xFF AND ISZERO ISZERO PUSH2 0x1FD1 JUMPI PUSH1 0x0 DUP1 REVERT JUMPDEST PUSH1 0x6 PUSH1 0x0 DUP11 PUSH20 0xFFFFFFFFFFFFFFFFFFFFFFFFFFFFFFFFFFFFFFFF AND PUSH20 0xFFFFFFFFFFFFFFFFFFFFFFFFFFFFFFFFFFFFFFFF AND DUP2 MSTORE PUSH1 0x20 ADD SWAP1 DUP2 MSTORE PUSH1 0x20 ADD PUSH1 0x0 KECCAK256 SWAP1 POP DUP1 PUSH1 0x1 ADD DUP2 PUSH1 0x0 ADD DUP3 PUSH1 0x2 ADD DUP4 PUSH1 0x3 ADD DUP5 PUSH1 0x4 ADD SLOAD DUP6 PUSH1 0x5 ADD PUSH1 0x0 SWAP1 SLOAD SWAP1 PUSH2 0x100 EXP SWAP1 DIV PUSH20 0xFFFFFFFFFFFFFFFFFFFFFFFFFFFFFFFFFFFFFFFF AND DUP7 PUSH1 0x6 ADD PUSH1 0x0 SWAP1 SLOAD SWAP1 PUSH2 0x100 EXP SWAP1 DIV PUSH20 0xFFFFFFFFFFFFFFFFFFFFFFFFFFFFFFFFFFFFFFFF AND DUP7 DUP1 SLOAD PUSH1 0x1 DUP2 PUSH1 0x1 AND ISZERO PUSH2 0x100 MUL SUB AND PUSH1 0x2 SWAP1 DIV DUP1 PUSH1 0x1F ADD PUSH1 0x20 DUP1 SWAP2 DIV MUL PUSH1 0x20 ADD PUSH1 0x40 MLOAD SWAP1 DUP2 ADD PUSH1 0x40 MSTORE DUP1 SWAP3 SWAP2 SWAP1 DUP2 DUP2 MSTORE PUSH1 0x20 ADD DUP3 DUP1 SLOAD PUSH1 0x1 DUP2 PUSH1 0x1 AND ISZERO PUSH2 0x100 MUL SUB AND PUSH1 0x2 SWAP1 DIV DUP1 ISZERO PUSH2 0x2106 JUMPI DUP1 PUSH1 0x1F LT PUSH2 0x20DB JUMPI PUSH2 0x100 DUP1 DUP4 SLOAD DIV MUL DUP4 MSTORE SWAP2 PUSH1 0x20 ADD SWAP2 PUSH2 0x2106 JUMP JUMPDEST DUP3 ADD SWAP2 SWAP1 PUSH1 0x0 MSTORE PUSH1 0x20 PUSH1 0x0 KECCAK256 SWAP1 JUMPDEST DUP2 SLOAD DUP2 MSTORE SWAP1 PUSH1 0x1 ADD SWAP1 PUSH1 0x20 ADD DUP1 DUP4 GT PUSH2 0x20E9 JUMPI DUP3 SWAP1 SUB PUSH1 0x1F AND DUP3 ADD SWAP2 JUMPDEST POP POP POP POP POP SWAP7 POP DUP6 DUP1 SLOAD PUSH1 0x1 DUP2 PUSH1 0x1 AND ISZERO PUSH2 0x100 MUL SUB AND PUSH1 0x2 SWAP1 DIV DUP1 PUSH1 0x1F ADD PUSH1 0x20 DUP1 SWAP2 DIV MUL PUSH1 0x20 ADD PUSH1 0x40 MLOAD SWAP1 DUP2 ADD PUSH1 0x40 MSTORE DUP1 SWAP3 SWAP2 SWAP1 DUP2 DUP2 MSTORE PUSH1 0x20 ADD DUP3 DUP1 SLOAD PUSH1 0x1 DUP2 PUSH1 0x1 AND ISZERO PUSH2 0x100 MUL SUB AND PUSH1 0x2 SWAP1 DIV DUP1 ISZERO PUSH2 0x21A2 JUMPI DUP1 PUSH1 0x1F LT PUSH2 0x2177 JUMPI PUSH2 0x100 DUP1 DUP4 SLOAD DIV MUL DUP4 MSTORE SWAP2 PUSH1 0x20 ADD SWAP2 PUSH2 0x21A2 JUMP JUMPDEST DUP3 ADD SWAP2 SWAP1 PUSH1 0x0 MSTORE PUSH1 0x20 PUSH1 0x0 KECCAK256 SWAP1 JUMPDEST DUP2 SLOAD DUP2 MSTORE SWAP1 PUSH1 0x1 ADD SWAP1 PUSH1 0x20 ADD DUP1 DUP4 GT PUSH2 0x2185 JUMPI DUP3 SWAP1 SUB PUSH1 0x1F AND DUP3 ADD SWAP2 JUMPDEST POP POP POP POP POP SWAP6 POP DUP5 DUP1 SLOAD PUSH1 0x1 DUP2 PUSH1 0x1 AND ISZERO PUSH2 0x100 MUL SUB AND PUSH1 0x2 SWAP1 DIV DUP1 PUSH1 0x1F ADD PUSH1 0x20 DUP1 SWAP2 DIV MUL PUSH1 0x20 ADD PUSH1 0x40 MLOAD SWAP1 DUP2 ADD PUSH1 0x40 MSTORE DUP1 SWAP3 SWAP2 SWAP1 DUP2 DUP2 MSTORE PUSH1 0x20 ADD DUP3 DUP1 SLOAD PUSH1 0x1 DUP2 PUSH1 0x1 AND ISZERO PUSH2 0x100 MUL SUB AND PUSH1 0x2 SWAP1 DIV DUP1 ISZERO PUSH2 0x223E JUMPI DUP1 PUSH1 0x1F LT PUSH2 0x2213 JUMPI PUSH2 0x100 DUP1 DUP4 SLOAD DIV MUL DUP4 MSTORE SWAP2 PUSH1 0x20 ADD SWAP2 PUSH2 0x223E JUMP JUMPDEST DUP3 ADD SWAP2 SWAP1 PUSH1 0x0 MSTORE PUSH1 0x20 PUSH1 0x0 KECCAK256 SWAP1 JUMPDEST DUP2 SLOAD DUP2 MSTORE SWAP1 PUSH1 0x1 ADD SWAP1 PUSH1 0x20 ADD DUP1 DUP4 GT PUSH2 0x2221 JUMPI DUP3 SWAP1 SUB PUSH1 0x1F AND DUP3 ADD SWAP2 JUMPDEST POP POP POP POP POP SWAP5 POP DUP4 DUP1 SLOAD PUSH1 0x1 DUP2 PUSH1 0x1 AND ISZERO PUSH2 0x100 MUL SUB AND PUSH1 0x2 SWAP1 DIV DUP1 PUSH1 0x1F ADD PUSH1 0x20 DUP1 SWAP2 DIV MUL PUSH1 0x20 ADD PUSH1 0x40 MLOAD SWAP1 DUP2 ADD PUSH1 0x40 MSTORE DUP1 SWAP3 SWAP2 SWAP1 DUP2 DUP2 MSTORE PUSH1 0x20 ADD DUP3 DUP1 SLOAD PUSH1 0x1 DUP2 PUSH1 0x1 AND ISZERO PUSH2 0x100 MUL SUB AND PUSH1 0x2 SWAP1 DIV DUP1 ISZERO PUSH2 0x22DA JUMPI DUP1 PUSH1 0x1F LT PUSH2 0x22AF JUMPI PUSH2 0x100 DUP1 DUP4 SLOAD DIV MUL DUP4 MSTORE SWAP2 PUSH1 0x20 ADD SWAP2 PUSH2 0x22DA JUMP JUMPDEST DUP3 ADD SWAP2 SWAP1 PUSH1 0x0 MSTORE PUSH1 0x20 PUSH1 0x0 KECCAK256 SWAP1 JUMPDEST DUP2 SLOAD DUP2 MSTORE SWAP1 PUSH1 0x1 ADD SWAP1 PUSH1 0x20 ADD DUP1 DUP4 GT PUSH2 0x22BD JUMPI DUP3 SWAP1 SUB PUSH1 0x1F AND DUP3 ADD SWAP2 JUMPDEST POP POP POP POP POP SWAP4 POP SWAP8 POP SWAP8 POP SWAP8 POP SWAP8 POP SWAP8 POP SWAP8 POP SWAP8 POP POP SWAP2 SWAP4 SWAP6 SWAP8 SWAP1 SWAP3 SWAP5 SWAP7 POP JUMP JUMPDEST PUSH1 0x0 DUP1 SWAP1 SLOAD SWAP1 PUSH2 0x100 EXP SWAP1 DIV PUSH20 0xFFFFFFFFFFFFFFFFFFFFFFFFFFFFFFFFFFFFFFFF AND DUP2 JUMP JUMPDEST PUSH1 0xF SLOAD DUP2 JUMP JUMPDEST PUSH1 0xD SLOAD DUP2 JUMP JUMPDEST PUSH1 0x1 DUP2 DUP2 SLOAD DUP2 LT ISZERO ISZERO PUSH2 0x233B JUMPI INVALID JUMPDEST SWAP1 PUSH1 0x0 MSTORE PUSH1 0x20 PUSH1 0x0 KECCAK256 ADD PUSH1 0x0 SWAP2 POP SLOAD SWAP1 PUSH2 0x100 EXP SWAP1 DIV PUSH20 0xFFFFFFFFFFFFFFFFFFFFFFFFFFFFFFFFFFFFFFFF AND DUP2 JUMP JUMPDEST PUSH1 0x60 PUSH1 0x2 DUP1 SLOAD DUP1 PUSH1 0x20 MUL PUSH1 0x20 ADD PUSH1 0x40 MLOAD SWAP1 DUP2 ADD PUSH1 0x40 MSTORE DUP1 SWAP3 SWAP2 SWAP1 DUP2 DUP2 MSTORE PUSH1 0x20 ADD DUP3 DUP1 SLOAD DUP1 ISZERO PUSH2 0x23EE JUMPI PUSH1 0x20 MUL DUP3 ADD SWAP2 SWAP1 PUSH1 0x0 MSTORE PUSH1 0x20 PUSH1 0x0 KECCAK256 SWAP1 JUMPDEST DUP2 PUSH1 0x0 SWAP1 SLOAD SWAP1 PUSH2 0x100 EXP SWAP1 DIV PUSH20 0xFFFFFFFFFFFFFFFFFFFFFFFFFFFFFFFFFFFFFFFF AND PUSH20 0xFFFFFFFFFFFFFFFFFFFFFFFFFFFFFFFFFFFFFFFF AND DUP2 MSTORE PUSH1 0x20 ADD SWAP1 PUSH1 0x1 ADD SWAP1 DUP1 DUP4 GT PUSH2 0x23A4 JUMPI JUMPDEST POP POP POP POP POP SWAP1 POP SWAP1 JUMP JUMPDEST PUSH1 0x0 PUSH1 0xB SLOAD SWAP1 POP SWAP1 JUMP JUMPDEST PUSH1 0x10 PUSH1 0x0 SWAP1 SLOAD SWAP1 PUSH2 0x100 EXP SWAP1 DIV PUSH20 0xFFFFFFFFFFFFFFFFFFFFFFFFFFFFFFFFFFFFFFFF AND DUP2 JUMP JUMPDEST PUSH1 0x0 PUSH1 0x10 PUSH1 0x0 SWAP1 SLOAD SWAP1 PUSH2 0x100 EXP SWAP1 DIV PUSH20 0xFFFFFFFFFFFFFFFFFFFFFFFFFFFFFFFFFFFFFFFF AND PUSH20 0xFFFFFFFFFFFFFFFFFFFFFFFFFFFFFFFFFFFFFFFF AND CALLER PUSH20 0xFFFFFFFFFFFFFFFFFFFFFFFFFFFFFFFFFFFFFFFF AND EQ ISZERO ISZERO PUSH2 0x2486 JUMPI PUSH1 0x0 DUP1 REVERT JUMPDEST PUSH1 0x0 PUSH1 0x7 PUSH1 0x0 DUP6 PUSH20 0xFFFFFFFFFFFFFFFFFFFFFFFFFFFFFFFFFFFFFFFF AND PUSH20 0xFFFFFFFFFFFFFFFFFFFFFFFFFFFFFFFFFFFFFFFF AND DUP2 MSTORE PUSH1 0x20 ADD SWAP1 DUP2 MSTORE PUSH1 0x20 ADD PUSH1 0x0 KECCAK256 PUSH1 0x0 DUP5 PUSH20 0xFFFFFFFFFFFFFFFFFFFFFFFFFFFFFFFFFFFFFFFF AND PUSH20 0xFFFFFFFFFFFFFFFFFFFFFFFFFFFFFFFFFFFFFFFF AND DUP2 MSTORE PUSH1 0x20 ADD SWAP1 DUP2 MSTORE PUSH1 0x20 ADD PUSH1 0x0 KECCAK256 PUSH1 0x0 PUSH2 0x100 EXP DUP2 SLOAD DUP2 PUSH1 0xFF MUL NOT AND SWAP1 DUP4 ISZERO ISZERO MUL OR SWAP1 SSTORE POP PUSH1 0x1 SWAP1 POP SWAP3 SWAP2 POP POP JUMP JUMPDEST PUSH1 0xE SLOAD DUP2 JUMP JUMPDEST PUSH1 0x60 DUP1 PUSH1 0x60 DUP1 PUSH1 0x60 DUP1 PUSH1 0x60 PUSH1 0x0 DUP1 PUSH1 0x7 PUSH1 0x0 DUP12 PUSH20 0xFFFFFFFFFFFFFFFFFFFFFFFFFFFFFFFFFFFFFFFF AND PUSH20 0xFFFFFFFFFFFFFFFFFFFFFFFFFFFFFFFFFFFFFFFF AND DUP2 MSTORE PUSH1 0x20 ADD SWAP1 DUP2 MSTORE PUSH1 0x20 ADD PUSH1 0x0 KECCAK256 PUSH1 0x0 CALLER PUSH20 0xFFFFFFFFFFFFFFFFFFFFFFFFFFFFFFFFFFFFFFFF AND PUSH20 0xFFFFFFFFFFFFFFFFFFFFFFFFFFFFFFFFFFFFFFFF AND DUP2 MSTORE PUSH1 0x20 ADD SWAP1 DUP2 MSTORE PUSH1 0x20 ADD PUSH1 0x0 KECCAK256 PUSH1 0x0 SWAP1 SLOAD SWAP1 PUSH2 0x100 EXP SWAP1 DIV PUSH1 0xFF AND ISZERO ISZERO PUSH2 0x25CE JUMPI PUSH1 0x0 DUP1 REVERT JUMPDEST PUSH1 0x9 PUSH1 0x0 DUP12 PUSH20 0xFFFFFFFFFFFFFFFFFFFFFFFFFFFFFFFFFFFFFFFF AND PUSH20 0xFFFFFFFFFFFFFFFFFFFFFFFFFFFFFFFFFFFFFFFF AND DUP2 MSTORE PUSH1 0x20 ADD SWAP1 DUP2 MSTORE PUSH1 0x20 ADD PUSH1 0x0 KECCAK256 PUSH1 0x0 SWAP1 SLOAD SWAP1 PUSH2 0x100 EXP SWAP1 DIV PUSH1 0xFF AND ISZERO ISZERO PUSH2 0x2626 JUMPI PUSH1 0x0 DUP1 REVERT JUMPDEST PUSH1 0x5 PUSH1 0x0 DUP12 PUSH20 0xFFFFFFFFFFFFFFFFFFFFFFFFFFFFFFFFFFFFFFFF AND PUSH20 0xFFFFFFFFFFFFFFFFFFFFFFFFFFFFFFFFFFFFFFFF AND DUP2 MSTORE PUSH1 0x20 ADD SWAP1 DUP2 MSTORE PUSH1 0x20 ADD PUSH1 0x0 KECCAK256 SWAP1 POP DUP1 PUSH1 0x0 ADD DUP2 PUSH1 0x1 ADD DUP3 PUSH1 0x2 ADD DUP4 PUSH1 0x3 ADD DUP5 PUSH1 0x5 ADD DUP6 PUSH1 0x6 ADD DUP7 PUSH1 0x7 ADD DUP8 PUSH1 0x8 ADD PUSH1 0x0 SWAP1 SLOAD SWAP1 PUSH2 0x100 EXP SWAP1 DIV PUSH20 0xFFFFFFFFFFFFFFFFFFFFFFFFFFFFFFFFFFFFFFFF AND DUP8 DUP1 SLOAD PUSH1 0x1 DUP2 PUSH1 0x1 AND ISZERO PUSH2 0x100 MUL SUB AND PUSH1 0x2 SWAP1 DIV DUP1 PUSH1 0x1F ADD PUSH1 0x20 DUP1 SWAP2 DIV MUL PUSH1 0x20 ADD PUSH1 0x40 MLOAD SWAP1 DUP2 ADD PUSH1 0x40 MSTORE DUP1 SWAP3 SWAP2 SWAP1 DUP2 DUP2 MSTORE PUSH1 0x20 ADD DUP3 DUP1 SLOAD PUSH1 0x1 DUP2 PUSH1 0x1 AND ISZERO PUSH2 0x100 MUL SUB AND PUSH1 0x2 SWAP1 DIV DUP1 ISZERO PUSH2 0x273D JUMPI DUP1 PUSH1 0x1F LT PUSH2 0x2712 JUMPI PUSH2 0x100 DUP1 DUP4 SLOAD DIV MUL DUP4 MSTORE SWAP2 PUSH1 0x20 ADD SWAP2 PUSH2 0x273D JUMP JUMPDEST DUP3 ADD SWAP2 SWAP1 PUSH1 0x0 MSTORE PUSH1 0x20 PUSH1 0x0 KECCAK256 SWAP1 JUMPDEST DUP2 SLOAD DUP2 MSTORE SWAP1 PUSH1 0x1 ADD SWAP1 PUSH1 0x20 ADD DUP1 DUP4 GT PUSH2 0x2720 JUMPI DUP3 SWAP1 SUB PUSH1 0x1F AND DUP3 ADD SWAP2 JUMPDEST POP POP POP POP POP SWAP8 POP DUP7 DUP1 SLOAD PUSH1 0x1 DUP2 PUSH1 0x1 AND ISZERO PUSH2 0x100 MUL SUB AND PUSH1 0x2 SWAP1 DIV DUP1 PUSH1 0x1F ADD PUSH1 0x20 DUP1 SWAP2 DIV MUL PUSH1 0x20 ADD PUSH1 0x40 MLOAD SWAP1 DUP2 ADD PUSH1 0x40 MSTORE DUP1 SWAP3 SWAP2 SWAP1 DUP2 DUP2 MSTORE PUSH1 0x20 ADD DUP3 DUP1 SLOAD PUSH1 0x1 DUP2 PUSH1 0x1 AND ISZERO PUSH2 0x100 MUL SUB AND PUSH1 0x2 SWAP1 DIV DUP1 ISZERO PUSH2 0x27D9 JUMPI DUP1 PUSH1 0x1F LT PUSH2 0x27AE JUMPI PUSH2 0x100 DUP1 DUP4 SLOAD DIV MUL DUP4 MSTORE SWAP2 PUSH1 0x20 ADD SWAP2 PUSH2 0x27D9 JUMP JUMPDEST DUP3 ADD SWAP2 SWAP1 PUSH1 0x0 MSTORE PUSH1 0x20 PUSH1 0x0 KECCAK256 SWAP1 JUMPDEST DUP2 SLOAD DUP2 MSTORE SWAP1 PUSH1 0x1 ADD SWAP1 PUSH1 0x20 ADD DUP1 DUP4 GT PUSH2 0x27BC JUMPI DUP3 SWAP1 SUB PUSH1 0x1F AND DUP3 ADD SWAP2 JUMPDEST POP POP POP POP POP SWAP7 POP DUP6 DUP1 SLOAD PUSH1 0x1 DUP2 PUSH1 0x1 AND ISZERO PUSH2 0x100 MUL SUB AND PUSH1 0x2 SWAP1 DIV DUP1 PUSH1 0x1F ADD PUSH1 0x20 DUP1 SWAP2 DIV MUL PUSH1 0x20 ADD PUSH1 0x40 MLOAD SWAP1 DUP2 ADD PUSH1 0x40 MSTORE DUP1 SWAP3 SWAP2 SWAP1 DUP2 DUP2 MSTORE PUSH1 0x20 ADD DUP3 DUP1 SLOAD PUSH1 0x1 DUP2 PUSH1 0x1 AND ISZERO PUSH2 0x100 MUL SUB AND PUSH1 0x2 SWAP1 DIV DUP1 ISZERO PUSH2 0x2875 JUMPI DUP1 PUSH1 0x1F LT PUSH2 0x284A JUMPI PUSH2 0x100 DUP1 DUP4 SLOAD DIV MUL DUP4 MSTORE SWAP2 PUSH1 0x20 ADD SWAP2 PUSH2 0x2875 JUMP JUMPDEST DUP3 ADD SWAP2 SWAP1 PUSH1 0x0 MSTORE PUSH1 0x20 PUSH1 0x0 KECCAK256 SWAP1 JUMPDEST DUP2 SLOAD DUP2 MSTORE SWAP1 PUSH1 0x1 ADD SWAP1 PUSH1 0x20 ADD DUP1 DUP4 GT PUSH2 0x2858 JUMPI DUP3 SWAP1 SUB PUSH1 0x1F AND DUP3 ADD SWAP2 JUMPDEST POP POP POP POP POP SWAP6 POP DUP5 DUP1 SLOAD PUSH1 0x1 DUP2 PUSH1 0x1 AND ISZERO PUSH2 0x100 MUL SUB AND PUSH1 0x2 SWAP1 DIV DUP1 PUSH1 0x1F ADD PUSH1 0x20 DUP1 SWAP2 DIV MUL PUSH1 0x20 ADD PUSH1 0x40 MLOAD SWAP1 DUP2 ADD PUSH1 0x40 MSTORE DUP1 SWAP3 SWAP2 SWAP1 DUP2 DUP2 MSTORE PUSH1 0x20 ADD DUP3 DUP1 SLOAD PUSH1 0x1 DUP2 PUSH1 0x1 AND ISZERO PUSH2 0x100 MUL SUB AND PUSH1 0x2 SWAP1 DIV DUP1 ISZERO PUSH2 0x2911 JUMPI DUP1 PUSH1 0x1F LT PUSH2 0x28E6 JUMPI PUSH2 0x100 DUP1 DUP4 SLOAD DIV MUL DUP4 MSTORE SWAP2 PUSH1 0x20 ADD SWAP2 PUSH2 0x2911 JUMP JUMPDEST DUP3 ADD SWAP2 SWAP1 PUSH1 0x0 MSTORE PUSH1 0x20 PUSH1 0x0 KECCAK256 SWAP1 JUMPDEST DUP2 SLOAD DUP2 MSTORE SWAP1 PUSH1 0x1 ADD SWAP1 PUSH1 0x20 ADD DUP1 DUP4 GT PUSH2 0x28F4 JUMPI DUP3 SWAP1 SUB PUSH1 0x1F AND DUP3 ADD SWAP2 JUMPDEST POP POP POP POP POP SWAP5 POP DUP4 DUP1 SLOAD PUSH1 0x1 DUP2 PUSH1 0x1 AND ISZERO PUSH2 0x100 MUL SUB AND PUSH1 0x2 SWAP1 DIV DUP1 PUSH1 0x1F ADD PUSH1 0x20 DUP1 SWAP2 DIV MUL PUSH1 0x20 ADD PUSH1 0x40 MLOAD SWAP1 DUP2 ADD PUSH1 0x40 MSTORE DUP1 SWAP3 SWAP2 SWAP1 DUP2 DUP2 MSTORE PUSH1 0x20 ADD DUP3 DUP1 SLOAD PUSH1 0x1 DUP2 PUSH1 0x1 AND ISZERO PUSH2 0x100 MUL SUB AND PUSH1 0x2 SWAP1 DIV DUP1 ISZERO PUSH2 0x29AD JUMPI DUP1 PUSH1 0x1F LT PUSH2 0x2982 JUMPI PUSH2 0x100 DUP1 DUP4 SLOAD DIV MUL DUP4 MSTORE SWAP2 PUSH1 0x20 ADD SWAP2 PUSH2 0x29AD JUMP JUMPDEST DUP3 ADD SWAP2 SWAP1 PUSH1 0x0 MSTORE PUSH1 0x20 PUSH1 0x0 KECCAK256 SWAP1 JUMPDEST DUP2 SLOAD DUP2 MSTORE SWAP1 PUSH1 0x1 ADD SWAP1 PUSH1 0x20 ADD DUP1 DUP4 GT PUSH2 0x2990 JUMPI DUP3 SWAP1 SUB PUSH1 0x1F AND DUP3 ADD SWAP2 JUMPDEST POP POP POP POP POP SWAP4 POP DUP3 DUP1 SLOAD PUSH1 0x1 DUP2 PUSH1 0x1 AND ISZERO PUSH2 0x100 MUL SUB AND PUSH1 0x2 SWAP1 DIV DUP1 PUSH1 0x1F ADD PUSH1 0x20 DUP1 SWAP2 DIV MUL PUSH1 0x20 ADD PUSH1 0x40 MLOAD SWAP1 DUP2 ADD PUSH1 0x40 MSTORE DUP1 SWAP3 SWAP2 SWAP1 DUP2 DUP2 MSTORE PUSH1 0x20 ADD DUP3 DUP1 SLOAD PUSH1 0x1 DUP2 PUSH1 0x1 AND ISZERO PUSH2 0x100 MUL SUB AND PUSH1 0x2 SWAP1 DIV DUP1 ISZERO PUSH2 0x2A49 JUMPI DUP1 PUSH1 0x1F LT PUSH2 0x2A1E JUMPI PUSH2 0x100 DUP1 DUP4 SLOAD DIV MUL DUP4 MSTORE SWAP2 PUSH1 0x20 ADD SWAP2 PUSH2 0x2A49 JUMP JUMPDEST DUP3 ADD SWAP2 SWAP1 PUSH1 0x0 MSTORE PUSH1 0x20 PUSH1 0x0 KECCAK256 SWAP1 JUMPDEST DUP2 SLOAD DUP2 MSTORE SWAP1 PUSH1 0x1 ADD SWAP1 PUSH1 0x20 ADD DUP1 DUP4 GT PUSH2 0x2A2C JUMPI DUP3 SWAP1 SUB PUSH1 0x1F AND DUP3 ADD SWAP2 JUMPDEST POP POP POP POP POP SWAP3 POP DUP2 DUP1 SLOAD PUSH1 0x1 DUP2 PUSH1 0x1 AND ISZERO PUSH2 0x100 MUL SUB AND PUSH1 0x2 SWAP1 DIV DUP1 PUSH1 0x1F ADD PUSH1 0x20 DUP1 SWAP2 DIV MUL PUSH1 0x20 ADD PUSH1 0x40 MLOAD SWAP1 DUP2 ADD PUSH1 0x40 MSTORE DUP1 SWAP3 SWAP2 SWAP1 DUP2 DUP2 MSTORE PUSH1 0x20 ADD DUP3 DUP1 SLOAD PUSH1 0x1 DUP2 PUSH1 0x1 AND ISZERO PUSH2 0x100 MUL SUB AND PUSH1 0x2 SWAP1 DIV DUP1 ISZERO PUSH2 0x2AE5 JUMPI DUP1 PUSH1 0x1F LT PUSH2 0x2ABA JUMPI PUSH2 0x100 DUP1 DUP4 SLOAD DIV MUL DUP4 MSTORE SWAP2 PUSH1 0x20 ADD SWAP2 PUSH2 0x2AE5 JUMP JUMPDEST DUP3 ADD SWAP2 SWAP1 PUSH1 0x0 MSTORE PUSH1 0x20 PUSH1 0x0 KECCAK256 SWAP1 JUMPDEST DUP2 SLOAD DUP2 MSTORE SWAP1 PUSH1 0x1 ADD SWAP1 PUSH1 0x20 ADD DUP1 DUP4 GT PUSH2 0x2AC8 JUMPI DUP3 SWAP1 SUB PUSH1 0x1F AND DUP3 ADD SWAP2 JUMPDEST POP POP POP POP POP SWAP2 POP SWAP9 POP SWAP9 POP SWAP9 POP SWAP9 POP SWAP9 POP SWAP9 POP SWAP9 POP SWAP9 POP POP SWAP2 SWAP4 SWAP6 SWAP8 POP SWAP2 SWAP4 SWAP6 SWAP8 JUMP JUMPDEST PUSH1 0x0 PUSH1 0x10 PUSH1 0x0 SWAP1 SLOAD SWAP1 PUSH2 0x100 EXP SWAP1 DIV PUSH20 0xFFFFFFFFFFFFFFFFFFFFFFFFFFFFFFFFFFFFFFFF AND PUSH20 0xFFFFFFFFFFFFFFFFFFFFFFFFFFFFFFFFFFFFFFFF AND CALLER PUSH20 0xFFFFFFFFFFFFFFFFFFFFFFFFFFFFFFFFFFFFFFFF AND EQ ISZERO ISZERO PUSH2 0x2B66 JUMPI PUSH1 0x0 DUP1 REVERT JUMPDEST PUSH1 0x1 PUSH1 0x7 PUSH1 0x0 DUP6 PUSH20 0xFFFFFFFFFFFFFFFFFFFFFFFFFFFFFFFFFFFFFFFF AND PUSH20 0xFFFFFFFFFFFFFFFFFFFFFFFFFFFFFFFFFFFFFFFF AND DUP2 MSTORE PUSH1 0x20 ADD SWAP1 DUP2 MSTORE PUSH1 0x20 ADD PUSH1 0x0 KECCAK256 PUSH1 0x0 DUP5 PUSH20 0xFFFFFFFFFFFFFFFFFFFFFFFFFFFFFFFFFFFFFFFF AND PUSH20 0xFFFFFFFFFFFFFFFFFFFFFFFFFFFFFFFFFFFFFFFF AND DUP2 MSTORE PUSH1 0x20 ADD SWAP1 DUP2 MSTORE PUSH1 0x20 ADD PUSH1 0x0 KECCAK256 PUSH1 0x0 PUSH2 0x100 EXP DUP2 SLOAD DUP2 PUSH1 0xFF MUL NOT AND SWAP1 DUP4 ISZERO ISZERO MUL OR SWAP1 SSTORE POP PUSH1 0xD PUSH1 0x0 DUP2 SLOAD DUP1 SWAP3 SWAP2 SWAP1 PUSH1 0x1 ADD SWAP2 SWAP1 POP SSTORE POP PUSH1 0x1 SWAP1 POP SWAP3 SWAP2 POP POP JUMP JUMPDEST PUSH1 0x0 PUSH1 0xD SLOAD SWAP1 POP SWAP1 JUMP JUMPDEST PUSH1 0x3 DUP2 DUP2 SLOAD DUP2 LT ISZERO ISZERO PUSH2 0x2C30 JUMPI INVALID JUMPDEST SWAP1 PUSH1 0x0 MSTORE PUSH1 0x20 PUSH1 0x0 KECCAK256 ADD PUSH1 0x0 SWAP2 POP SLOAD SWAP1 PUSH2 0x100 EXP SWAP1 DIV PUSH20 0xFFFFFFFFFFFFFFFFFFFFFFFFFFFFFFFFFFFFFFFF AND DUP2 JUMP JUMPDEST DUP3 DUP1 SLOAD PUSH1 0x1 DUP2 PUSH1 0x1 AND ISZERO PUSH2 0x100 MUL SUB AND PUSH1 0x2 SWAP1 DIV SWAP1 PUSH1 0x0 MSTORE PUSH1 0x20 PUSH1 0x0 KECCAK256 SWAP1 PUSH1 0x1F ADD PUSH1 0x20 SWAP1 DIV DUP2 ADD SWAP3 DUP3 PUSH1 0x1F LT PUSH2 0x2CA0 JUMPI DUP1 MLOAD PUSH1 0xFF NOT AND DUP4 DUP1 ADD OR DUP6 SSTORE PUSH2 0x2CCE JUMP JUMPDEST DUP3 DUP1 ADD PUSH1 0x1 ADD DUP6 SSTORE DUP3 ISZERO PUSH2 0x2CCE JUMPI SWAP2 DUP3 ADD JUMPDEST DUP3 DUP2 GT ISZERO PUSH2 0x2CCD JUMPI DUP3 MLOAD DUP3 SSTORE SWAP2 PUSH1 0x20 ADD SWAP2 SWAP1 PUSH1 0x1 ADD SWAP1 PUSH2 0x2CB2 JUMP JUMPDEST JUMPDEST POP SWAP1 POP PUSH2 0x2CDB SWAP2 SWAP1 PUSH2 0x2CDF JUMP JUMPDEST POP SWAP1 JUMP JUMPDEST PUSH2 0x2D01 SWAP2 SWAP1 JUMPDEST DUP1 DUP3 GT ISZERO PUSH2 0x2CFD JUMPI PUSH1 0x0 DUP2 PUSH1 0x0 SWAP1 SSTORE POP PUSH1 0x1 ADD PUSH2 0x2CE5 JUMP JUMPDEST POP SWAP1 JUMP JUMPDEST SWAP1 JUMP JUMPDEST PUSH1 0x0 PUSH2 0x2D10 DUP3 CALLDATALOAD PUSH2 0x3545 JUMP JUMPDEST SWAP1 POP SWAP3 SWAP2 POP POP JUMP JUMPDEST PUSH1 0x0 DUP3 PUSH1 0x1F DUP4 ADD SLT ISZERO ISZERO PUSH2 0x2D2B JUMPI PUSH1 0x0 DUP1 REVERT JUMPDEST DUP2 CALLDATALOAD PUSH2 0x2D3E PUSH2 0x2D39 DUP3 PUSH2 0x34B3 JUMP JUMPDEST PUSH2 0x3486 JUMP JUMPDEST SWAP2 POP DUP1 DUP3 MSTORE PUSH1 0x20 DUP4 ADD PUSH1 0x20 DUP4 ADD DUP6 DUP4 DUP4 ADD GT ISZERO PUSH2 0x2D5A JUMPI PUSH1 0x0 DUP1 REVERT JUMPDEST PUSH2 0x2D65 DUP4 DUP3 DUP5 PUSH2 0x356F JUMP JUMPDEST POP POP POP SWAP3 SWAP2 POP POP JUMP JUMPDEST PUSH1 0x0 PUSH2 0x2D7A DUP3 CALLDATALOAD PUSH2 0x3565 JUMP JUMPDEST SWAP1 POP SWAP3 SWAP2 POP POP JUMP JUMPDEST PUSH1 0x0 PUSH1 0x20 DUP3 DUP5 SUB SLT ISZERO PUSH2 0x2D94 JUMPI PUSH1 0x0 DUP1 REVERT JUMPDEST PUSH1 0x0 PUSH2 0x2DA2 DUP5 DUP3 DUP6 ADD PUSH2 0x2D04 JUMP JUMPDEST SWAP2 POP POP SWAP3 SWAP2 POP POP JUMP JUMPDEST PUSH1 0x0 DUP1 PUSH1 0x40 DUP4 DUP6 SUB SLT ISZERO PUSH2 0x2DBE JUMPI PUSH1 0x0 DUP1 REVERT JUMPDEST PUSH1 0x0 PUSH2 0x2DCC DUP6 DUP3 DUP7 ADD PUSH2 0x2D04 JUMP JUMPDEST SWAP3 POP POP PUSH1 0x20 PUSH2 0x2DDD DUP6 DUP3 DUP7 ADD PUSH2 0x2D04 JUMP JUMPDEST SWAP2 POP POP SWAP3 POP SWAP3 SWAP1 POP JUMP JUMPDEST PUSH1 0x0 DUP1 PUSH1 0x0 DUP1 PUSH1 0x0 DUP1 PUSH1 0x0 PUSH1 0xE0 DUP9 DUP11 SUB SLT ISZERO PUSH2 0x2E02 JUMPI PUSH1 0x0 DUP1 REVERT JUMPDEST PUSH1 0x0 PUSH2 0x2E10 DUP11 DUP3 DUP12 ADD PUSH2 0x2D04 JUMP JUMPDEST SWAP8 POP POP PUSH1 0x20 PUSH2 0x2E21 DUP11 DUP3 DUP12 ADD PUSH2 0x2D04 JUMP JUMPDEST SWAP7 POP POP PUSH1 0x40 DUP9 ADD CALLDATALOAD PUSH8 0xFFFFFFFFFFFFFFFF DUP2 GT ISZERO PUSH2 0x2E3E JUMPI PUSH1 0x0 DUP1 REVERT JUMPDEST PUSH2 0x2E4A DUP11 DUP3 DUP12 ADD PUSH2 0x2D18 JUMP JUMPDEST SWAP6 POP POP PUSH1 0x60 DUP9 ADD CALLDATALOAD PUSH8 0xFFFFFFFFFFFFFFFF DUP2 GT ISZERO PUSH2 0x2E67 JUMPI PUSH1 0x0 DUP1 REVERT JUMPDEST PUSH2 0x2E73 DUP11 DUP3 DUP12 ADD PUSH2 0x2D18 JUMP JUMPDEST SWAP5 POP POP PUSH1 0x80 DUP9 ADD CALLDATALOAD PUSH8 0xFFFFFFFFFFFFFFFF DUP2 GT ISZERO PUSH2 0x2E90 JUMPI PUSH1 0x0 DUP1 REVERT JUMPDEST PUSH2 0x2E9C DUP11 DUP3 DUP12 ADD PUSH2 0x2D18 JUMP JUMPDEST SWAP4 POP POP PUSH1 0xA0 DUP9 ADD CALLDATALOAD PUSH8 0xFFFFFFFFFFFFFFFF DUP2 GT ISZERO PUSH2 0x2EB9 JUMPI PUSH1 0x0 DUP1 REVERT JUMPDEST PUSH2 0x2EC5 DUP11 DUP3 DUP12 ADD PUSH2 0x2D18 JUMP JUMPDEST SWAP3 POP POP PUSH1 0xC0 PUSH2 0x2ED6 DUP11 DUP3 DUP12 ADD PUSH2 0x2D6E JUMP JUMPDEST SWAP2 POP POP SWAP3 SWAP6 SWAP9 SWAP2 SWAP5 SWAP8 POP SWAP3 SWAP6 POP JUMP JUMPDEST PUSH1 0x0 DUP1 PUSH1 0x0 DUP1 PUSH1 0x0 DUP1 PUSH1 0x0 DUP1 PUSH2 0x100 DUP10 DUP12 SUB SLT ISZERO PUSH2 0x2F02 JUMPI PUSH1 0x0 DUP1 REVERT JUMPDEST PUSH1 0x0 PUSH2 0x2F10 DUP12 DUP3 DUP13 ADD PUSH2 0x2D04 JUMP JUMPDEST SWAP9 POP POP PUSH1 0x20 DUP10 ADD CALLDATALOAD PUSH8 0xFFFFFFFFFFFFFFFF DUP2 GT ISZERO PUSH2 0x2F2D JUMPI PUSH1 0x0 DUP1 REVERT JUMPDEST PUSH2 0x2F39 DUP12 DUP3 DUP13 ADD PUSH2 0x2D18 JUMP JUMPDEST SWAP8 POP POP PUSH1 0x40 DUP10 ADD CALLDATALOAD PUSH8 0xFFFFFFFFFFFFFFFF DUP2 GT ISZERO PUSH2 0x2F56 JUMPI PUSH1 0x0 DUP1 REVERT JUMPDEST PUSH2 0x2F62 DUP12 DUP3 DUP13 ADD PUSH2 0x2D18 JUMP JUMPDEST SWAP7 POP POP PUSH1 0x60 DUP10 ADD CALLDATALOAD PUSH8 0xFFFFFFFFFFFFFFFF DUP2 GT ISZERO PUSH2 0x2F7F JUMPI PUSH1 0x0 DUP1 REVERT JUMPDEST PUSH2 0x2F8B DUP12 DUP3 DUP13 ADD PUSH2 0x2D18 JUMP JUMPDEST SWAP6 POP POP PUSH1 0x80 DUP10 ADD CALLDATALOAD PUSH8 0xFFFFFFFFFFFFFFFF DUP2 GT ISZERO PUSH2 0x2FA8 JUMPI PUSH1 0x0 DUP1 REVERT JUMPDEST PUSH2 0x2FB4 DUP12 DUP3 DUP13 ADD PUSH2 0x2D18 JUMP JUMPDEST SWAP5 POP POP PUSH1 0xA0 DUP10 ADD CALLDATALOAD PUSH8 0xFFFFFFFFFFFFFFFF DUP2 GT ISZERO PUSH2 0x2FD1 JUMPI PUSH1 0x0 DUP1 REVERT JUMPDEST PUSH2 0x2FDD DUP12 DUP3 DUP13 ADD PUSH2 0x2D18 JUMP JUMPDEST SWAP4 POP POP PUSH1 0xC0 DUP10 ADD CALLDATALOAD PUSH8 0xFFFFFFFFFFFFFFFF DUP2 GT ISZERO PUSH2 0x2FFA JUMPI PUSH1 0x0 DUP1 REVERT JUMPDEST PUSH2 0x3006 DUP12 DUP3 DUP13 ADD PUSH2 0x2D18 JUMP JUMPDEST SWAP3 POP POP PUSH1 0xE0 DUP10 ADD CALLDATALOAD PUSH8 0xFFFFFFFFFFFFFFFF DUP2 GT ISZERO PUSH2 0x3023 JUMPI PUSH1 0x0 DUP1 REVERT JUMPDEST PUSH2 0x302F DUP12 DUP3 DUP13 ADD PUSH2 0x2D18 JUMP JUMPDEST SWAP2 POP POP SWAP3 SWAP6 SWAP9 POP SWAP3 SWAP6 SWAP9 SWAP1 SWAP4 SWAP7 POP JUMP JUMPDEST PUSH1 0x0 DUP1 PUSH1 0x0 DUP1 PUSH1 0x0 DUP1 PUSH1 0x0 DUP1 PUSH1 0x0 DUP1 PUSH2 0x140 DUP12 DUP14 SUB SLT ISZERO PUSH2 0x305F JUMPI PUSH1 0x0 DUP1 REVERT JUMPDEST PUSH1 0x0 PUSH2 0x306D DUP14 DUP3 DUP15 ADD PUSH2 0x2D04 JUMP JUMPDEST SWAP11 POP POP PUSH1 0x20 DUP12 ADD CALLDATALOAD PUSH8 0xFFFFFFFFFFFFFFFF DUP2 GT ISZERO PUSH2 0x308A JUMPI PUSH1 0x0 DUP1 REVERT JUMPDEST PUSH2 0x3096 DUP14 DUP3 DUP15 ADD PUSH2 0x2D18 JUMP JUMPDEST SWAP10 POP POP PUSH1 0x40 DUP12 ADD CALLDATALOAD PUSH8 0xFFFFFFFFFFFFFFFF DUP2 GT ISZERO PUSH2 0x30B3 JUMPI PUSH1 0x0 DUP1 REVERT JUMPDEST PUSH2 0x30BF DUP14 DUP3 DUP15 ADD PUSH2 0x2D18 JUMP JUMPDEST SWAP9 POP POP PUSH1 0x60 DUP12 ADD CALLDATALOAD PUSH8 0xFFFFFFFFFFFFFFFF DUP2 GT ISZERO PUSH2 0x30DC JUMPI PUSH1 0x0 DUP1 REVERT JUMPDEST PUSH2 0x30E8 DUP14 DUP3 DUP15 ADD PUSH2 0x2D18 JUMP JUMPDEST SWAP8 POP POP PUSH1 0x80 DUP12 ADD CALLDATALOAD PUSH8 0xFFFFFFFFFFFFFFFF DUP2 GT ISZERO PUSH2 0x3105 JUMPI PUSH1 0x0 DUP1 REVERT JUMPDEST PUSH2 0x3111 DUP14 DUP3 DUP15 ADD PUSH2 0x2D18 JUMP JUMPDEST SWAP7 POP POP PUSH1 0xA0 DUP12 ADD CALLDATALOAD PUSH8 0xFFFFFFFFFFFFFFFF DUP2 GT ISZERO PUSH2 0x312E JUMPI PUSH1 0x0 DUP1 REVERT JUMPDEST PUSH2 0x313A DUP14 DUP3 DUP15 ADD PUSH2 0x2D18 JUMP JUMPDEST SWAP6 POP POP PUSH1 0xC0 DUP12 ADD CALLDATALOAD PUSH8 0xFFFFFFFFFFFFFFFF DUP2 GT ISZERO PUSH2 0x3157 JUMPI PUSH1 0x0 DUP1 REVERT JUMPDEST PUSH2 0x3163 DUP14 DUP3 DUP15 ADD PUSH2 0x2D18 JUMP JUMPDEST SWAP5 POP POP PUSH1 0xE0 DUP12 ADD CALLDATALOAD PUSH8 0xFFFFFFFFFFFFFFFF DUP2 GT ISZERO PUSH2 0x3180 JUMPI PUSH1 0x0 DUP1 REVERT JUMPDEST PUSH2 0x318C DUP14 DUP3 DUP15 ADD PUSH2 0x2D18 JUMP JUMPDEST SWAP4 POP POP PUSH2 0x100 DUP12 ADD CALLDATALOAD PUSH8 0xFFFFFFFFFFFFFFFF DUP2 GT ISZERO PUSH2 0x31AA JUMPI PUSH1 0x0 DUP1 REVERT JUMPDEST PUSH2 0x31B6 DUP14 DUP3 DUP15 ADD PUSH2 0x2D18 JUMP JUMPDEST SWAP3 POP POP PUSH2 0x120 DUP12 ADD CALLDATALOAD PUSH8 0xFFFFFFFFFFFFFFFF DUP2 GT ISZERO PUSH2 0x31D4 JUMPI PUSH1 0x0 DUP1 REVERT JUMPDEST PUSH2 0x31E0 DUP14 DUP3 DUP15 ADD PUSH2 0x2D18 JUMP JUMPDEST SWAP2 POP POP SWAP3 SWAP6 SWAP9 SWAP12 SWAP2 SWAP5 SWAP8 SWAP11 POP SWAP3 SWAP6 SWAP9 POP JUMP JUMPDEST PUSH1 0x0 PUSH1 0x20 DUP3 DUP5 SUB SLT ISZERO PUSH2 0x3204 JUMPI PUSH1 0x0 DUP1 REVERT JUMPDEST PUSH1 0x0 PUSH2 0x3212 DUP5 DUP3 DUP6 ADD PUSH2 0x2D6E JUMP JUMPDEST SWAP2 POP POP SWAP3 SWAP2 POP POP JUMP JUMPDEST PUSH2 0x3224 DUP2 PUSH2 0x350F JUMP JUMPDEST DUP3 MSTORE POP POP JUMP JUMPDEST PUSH1 0x0 PUSH2 0x3235 DUP3 PUSH2 0x34EC JUMP JUMPDEST DUP1 DUP5 MSTORE PUSH1 0x20 DUP5 ADD SWAP4 POP PUSH2 0x3247 DUP4 PUSH2 0x34DF JUMP JUMPDEST PUSH1 0x0 JUMPDEST DUP3 DUP2 LT ISZERO PUSH2 0x3279 JUMPI PUSH2 0x325D DUP7 DUP4 MLOAD PUSH2 0x321B JUMP JUMPDEST PUSH2 0x3266 DUP3 PUSH2 0x3502 JUMP JUMPDEST SWAP2 POP PUSH1 0x20 DUP7 ADD SWAP6 POP PUSH1 0x1 DUP2 ADD SWAP1 POP PUSH2 0x324A JUMP JUMPDEST POP DUP5 SWAP3 POP POP POP SWAP3 SWAP2 POP POP JUMP JUMPDEST PUSH2 0x328E DUP2 PUSH2 0x352F JUMP JUMPDEST DUP3 MSTORE POP POP JUMP JUMPDEST PUSH1 0x0 PUSH2 0x329F DUP3 PUSH2 0x34F7 JUMP JUMPDEST DUP1 DUP5 MSTORE PUSH2 0x32B3 DUP2 PUSH1 0x20 DUP7 ADD PUSH1 0x20 DUP7 ADD PUSH2 0x357E JUMP JUMPDEST PUSH2 0x32BC DUP2 PUSH2 0x35B1 JUMP JUMPDEST PUSH1 0x20 DUP6 ADD ADD SWAP2 POP POP SWAP3 SWAP2 POP POP JUMP JUMPDEST PUSH2 0x32D3 DUP2 PUSH2 0x353B JUMP JUMPDEST DUP3 MSTORE POP POP JUMP JUMPDEST PUSH1 0x0 PUSH1 0x20 DUP3 ADD SWAP1 POP PUSH2 0x32EE PUSH1 0x0 DUP4 ADD DUP5 PUSH2 0x321B JUMP JUMPDEST SWAP3 SWAP2 POP POP JUMP JUMPDEST PUSH1 0x0 PUSH1 0x20 DUP3 ADD SWAP1 POP DUP2 DUP2 SUB PUSH1 0x0 DUP4 ADD MSTORE PUSH2 0x330E DUP2 DUP5 PUSH2 0x322A JUMP JUMPDEST SWAP1 POP SWAP3 SWAP2 POP POP JUMP JUMPDEST PUSH1 0x0 PUSH1 0x20 DUP3 ADD SWAP1 POP PUSH2 0x332B PUSH1 0x0 DUP4 ADD DUP5 PUSH2 0x3285 JUMP JUMPDEST SWAP3 SWAP2 POP POP JUMP JUMPDEST PUSH1 0x0 PUSH2 0x100 DUP3 ADD SWAP1 POP DUP2 DUP2 SUB PUSH1 0x0 DUP4 ADD MSTORE PUSH2 0x334C DUP2 DUP12 PUSH2 0x3294 JUMP JUMPDEST SWAP1 POP DUP2 DUP2 SUB PUSH1 0x20 DUP4 ADD MSTORE PUSH2 0x3360 DUP2 DUP11 PUSH2 0x3294 JUMP JUMPDEST SWAP1 POP DUP2 DUP2 SUB PUSH1 0x40 DUP4 ADD MSTORE PUSH2 0x3374 DUP2 DUP10 PUSH2 0x3294 JUMP JUMPDEST SWAP1 POP DUP2 DUP2 SUB PUSH1 0x60 DUP4 ADD MSTORE PUSH2 0x3388 DUP2 DUP9 PUSH2 0x3294 JUMP JUMPDEST SWAP1 POP DUP2 DUP2 SUB PUSH1 0x80 DUP4 ADD MSTORE PUSH2 0x339C DUP2 DUP8 PUSH2 0x3294 JUMP JUMPDEST SWAP1 POP DUP2 DUP2 SUB PUSH1 0xA0 DUP4 ADD MSTORE PUSH2 0x33B0 DUP2 DUP7 PUSH2 0x3294 JUMP JUMPDEST SWAP1 POP DUP2 DUP2 SUB PUSH1 0xC0 DUP4 ADD MSTORE PUSH2 0x33C4 DUP2 DUP6 PUSH2 0x3294 JUMP JUMPDEST SWAP1 POP PUSH2 0x33D3 PUSH1 0xE0 DUP4 ADD DUP5 PUSH2 0x321B JUMP JUMPDEST SWAP10 SWAP9 POP POP POP POP POP POP POP POP POP JUMP JUMPDEST PUSH1 0x0 PUSH1 0xE0 DUP3 ADD SWAP1 POP DUP2 DUP2 SUB PUSH1 0x0 DUP4 ADD MSTORE PUSH2 0x33FA DUP2 DUP11 PUSH2 0x3294 JUMP JUMPDEST SWAP1 POP DUP2 DUP2 SUB PUSH1 0x20 DUP4 ADD MSTORE PUSH2 0x340E DUP2 DUP10 PUSH2 0x3294 JUMP JUMPDEST SWAP1 POP DUP2 DUP2 SUB PUSH1 0x40 DUP4 ADD MSTORE PUSH2 0x3422 DUP2 DUP9 PUSH2 0x3294 JUMP JUMPDEST SWAP1 POP DUP2 DUP2 SUB PUSH1 0x60 DUP4 ADD MSTORE PUSH2 0x3436 DUP2 DUP8 PUSH2 0x3294 JUMP JUMPDEST SWAP1 POP PUSH2 0x3445 PUSH1 0x80 DUP4 ADD DUP7 PUSH2 0x32CA JUMP JUMPDEST PUSH2 0x3452 PUSH1 0xA0 DUP4 ADD DUP6 PUSH2 0x321B JUMP JUMPDEST PUSH2 0x345F PUSH1 0xC0 DUP4 ADD DUP5 PUSH2 0x321B JUMP JUMPDEST SWAP9 SWAP8 POP POP POP POP POP POP POP POP JUMP JUMPDEST PUSH1 0x0 PUSH1 0x20 DUP3 ADD SWAP1 POP PUSH2 0x3480 PUSH1 0x0 DUP4 ADD DUP5 PUSH2 0x32CA JUMP JUMPDEST SWAP3 SWAP2 POP POP JUMP JUMPDEST PUSH1 0x0 PUSH1 0x40 MLOAD SWAP1 POP DUP2 DUP2 ADD DUP2 DUP2 LT PUSH8 0xFFFFFFFFFFFFFFFF DUP3 GT OR ISZERO PUSH2 0x34A9 JUMPI PUSH1 0x0 DUP1 REVERT JUMPDEST DUP1 PUSH1 0x40 MSTORE POP SWAP2 SWAP1 POP JUMP JUMPDEST PUSH1 0x0 PUSH8 0xFFFFFFFFFFFFFFFF DUP3 GT ISZERO PUSH2 0x34CA JUMPI PUSH1 0x0 DUP1 REVERT JUMPDEST PUSH1 0x1F NOT PUSH1 0x1F DUP4 ADD AND SWAP1 POP PUSH1 0x20 DUP2 ADD SWAP1 POP SWAP2 SWAP1 POP JUMP JUMPDEST PUSH1 0x0 PUSH1 0x20 DUP3 ADD SWAP1 POP SWAP2 SWAP1 POP JUMP JUMPDEST PUSH1 0x0 DUP2 MLOAD SWAP1 POP SWAP2 SWAP1 POP JUMP JUMPDEST PUSH1 0x0 DUP2 MLOAD SWAP1 POP SWAP2 SWAP1 POP JUMP JUMPDEST PUSH1 0x0 PUSH1 0x20 DUP3 ADD SWAP1 POP SWAP2 SWAP1 POP JUMP JUMPDEST PUSH1 0x0 PUSH20 0xFFFFFFFFFFFFFFFFFFFFFFFFFFFFFFFFFFFFFFFF DUP3 AND SWAP1 POP SWAP2 SWAP1 POP JUMP JUMPDEST PUSH1 0x0 DUP2 ISZERO ISZERO SWAP1 POP SWAP2 SWAP1 POP JUMP JUMPDEST PUSH1 0x0 DUP2 SWAP1 POP SWAP2 SWAP1 POP JUMP JUMPDEST PUSH1 0x0 PUSH20 0xFFFFFFFFFFFFFFFFFFFFFFFFFFFFFFFFFFFFFFFF DUP3 AND SWAP1 POP SWAP2 SWAP1 POP JUMP JUMPDEST PUSH1 0x0 DUP2 SWAP1 POP SWAP2 SWAP1 POP JUMP JUMPDEST DUP3 DUP2 DUP4 CALLDATACOPY PUSH1 0x0 DUP4 DUP4 ADD MSTORE POP POP POP JUMP JUMPDEST PUSH1 0x0 JUMPDEST DUP4 DUP2 LT ISZERO PUSH2 0x359C JUMPI DUP1 DUP3 ADD MLOAD DUP2 DUP5 ADD MSTORE PUSH1 0x20 DUP2 ADD SWAP1 POP PUSH2 0x3581 JUMP JUMPDEST DUP4 DUP2 GT ISZERO PUSH2 0x35AB JUMPI PUSH1 0x0 DUP5 DUP5 ADD MSTORE JUMPDEST POP POP POP POP JUMP JUMPDEST PUSH1 0x0 PUSH1 0x1F NOT PUSH1 0x1F DUP4 ADD AND SWAP1 POP SWAP2 SWAP1 POP JUMP STOP LOG2 PUSH6 0x627A7A723058 KECCAK256 0xab 0xc6 LOG1 JUMPDEST 0xf 0xd0 DUP15 PUSH29 0x9B4110D59AF43340D4D48F6270AD815FF46162DC9FECF88D6C65787065 PUSH19 0x696D656E74616CF50037000000000000000000 "
				},
				"gasEstimates": {
					"creation": {
						"codeDepositCost": "2764000",
						"executionCost": "48304",
						"totalCost": "2812304"
					},
					"external": {
						"MoHPermissionCounter()": "936",
						"MoHRevokePermission(address,address)": "infinite",
						"checkDoctor(address)": "1503",
						"createVaccineRecord(address,address,string,string,string,string,uint256)": "infinite",
						"doctorCount()": "804",
						"doctorList(uint256)": "1144",
						"doctorRegistration(address,string,string,string,string,string,string,string)": "infinite",
						"editDoctor(address,string,string,string,string,string,string,string)": "infinite",
						"editUser(address,string,string,string,string,string,string,string,string,string)": "infinite",
						"getDoctorCount()": "834",
						"getDoctors()": "infinite",
						"getMoHPermissionCounter()": "1142",
						"getUserCount()": "1010",
						"getUserPermissionCounter()": "548",
						"getUsers()": "infinite",
						"getVaccinationInfo(address)": "infinite",
						"givePermissionByMoH(address,address)": "infinite",
						"givePermissionByUser(address)": "41410",
						"mohAdress()": "1066",
						"owner()": "934",
						"ownerAddress(address)": "1003",
						"searchDoctor(address)": "infinite",
						"searchUserformation(address)": "infinite",
						"userCount()": "584",
						"userList(uint256)": "1496",
						"userPermissionCounter()": "1068",
						"userRegistration(address,string,string,string,string,string,string,string,string,string)": "infinite",
						"userRevokePermission(address)": "21217",
						"vaccinationList(uint256)": "1694",
						"vaccinationRecordsCounter()": "914"
					}
				},
				"methodIdentifiers": {
					"MoHPermissionCounter()": "99d698c5",
					"MoHRevokePermission(address,address)": "c3bf7bf0",
					"checkDoctor(address)": "793de5f0",
					"createVaccineRecord(address,address,string,string,string,string,uint256)": "44c23f88",
					"doctorCount()": "78522bc4",
					"doctorList(uint256)": "127ca4b4",
					"doctorRegistration(address,string,string,string,string,string,string,string)": "17e51111",
					"editDoctor(address,string,string,string,string,string,string,string)": "16e0a611",
					"editUser(address,string,string,string,string,string,string,string,string,string)": "779a9576",
					"getDoctorCount()": "79111c1c",
					"getDoctors()": "b13d5d94",
					"getMoHPermissionCounter()": "e0df0ac6",
					"getUserCount()": "b5cb15f7",
					"getUserPermissionCounter()": "024decc5",
					"getUsers()": "00ce8e3e",
					"getVaccinationInfo(address)": "83a28b29",
					"givePermissionByMoH(address,address)": "d118404b",
					"givePermissionByUser(address)": "294a4540",
					"mohAdress()": "b744ff4d",
					"owner()": "8da5cb5b",
					"ownerAddress(address)": "28f6daac",
					"searchDoctor(address)": "caee6c85",
					"searchUserformation(address)": "076fd2f8",
					"userCount()": "07973ccf",
					"userList(uint256)": "9f4216e8",
					"userPermissionCounter()": "c543a718",
					"userRegistration(address,string,string,string,string,string,string,string,string,string)": "6cdb2278",
					"userRevokePermission(address)": "5fc8e8c6",
					"vaccinationList(uint256)": "ff508dab",
					"vaccinationRecordsCounter()": "96e39ce0"
				}
			},
			"userdoc": {
				"methods": {}
			}
		}
	}
}