{
	"contracts/ddddd.sol": {
		"ddddd": {
			"abi": [
				{
					"constant": true,
					"inputs": [],
					"name": "getUsers",
					"outputs": [
						{
							"name": "",
							"type": "address[]"
						}
					],
					"payable": false,
					"stateMutability": "view",
					"type": "function"
				},
				{
					"constant": true,
					"inputs": [],
					"name": "getUserPermissionCounter",
					"outputs": [
						{
							"name": "",
							"type": "uint256"
						}
					],
					"payable": false,
					"stateMutability": "view",
					"type": "function"
				},
				{
					"constant": true,
					"inputs": [
						{
							"name": "_address",
							"type": "address"
						}
					],
					"name": "searchUserformation",
					"outputs": [
						{
							"name": "",
							"type": "string"
						},
						{
							"name": "",
							"type": "string"
						},
						{
							"name": "",
							"type": "string"
						},
						{
							"name": "",
							"type": "string"
						},
						{
							"name": "",
							"type": "string"
						},
						{
							"name": "",
							"type": "string"
						},
						{
							"name": "",
							"type": "address"
						}
					],
					"payable": false,
					"stateMutability": "view",
					"type": "function"
				},
				{
					"constant": true,
					"inputs": [],
					"name": "userCount",
					"outputs": [
						{
							"name": "",
							"type": "uint256"
						}
					],
					"payable": false,
					"stateMutability": "view",
					"type": "function"
				},
				{
					"constant": true,
					"inputs": [
						{
							"name": "",
							"type": "uint256"
						}
					],
					"name": "doctorList",
					"outputs": [
						{
							"name": "",
							"type": "address"
						}
					],
					"payable": false,
					"stateMutability": "view",
					"type": "function"
				},
				{
					"constant": false,
					"inputs": [
						{
							"name": "_doctor",
							"type": "address"
						},
						{
							"name": "_uaeId",
							"type": "string"
						},
						{
							"name": "_name",
							"type": "string"
						},
						{
							"name": "_phone",
							"type": "string"
						},
						{
							"name": "_gender",
							"type": "string"
						},
						{
							"name": "_dob",
							"type": "string"
						},
						{
							"name": "_qualification",
							"type": "string"
						},
						{
							"name": "_major",
							"type": "string"
						}
					],
					"name": "editDoctor",
					"outputs": [],
					"payable": false,
					"stateMutability": "nonpayable",
					"type": "function"
				},
				{
					"constant": false,
					"inputs": [
						{
							"name": "_doctor",
							"type": "address"
						},
						{
							"name": "_uaeId",
							"type": "string"
						},
						{
							"name": "_name",
							"type": "string"
						},
						{
							"name": "_phone",
							"type": "string"
						},
						{
							"name": "_gender",
							"type": "string"
						},
						{
							"name": "_dob",
							"type": "string"
						},
						{
							"name": "_qualification",
							"type": "string"
						},
						{
							"name": "_major",
							"type": "string"
						}
					],
					"name": "doctorRegistration",
					"outputs": [],
					"payable": false,
					"stateMutability": "nonpayable",
					"type": "function"
				},
				{
					"constant": false,
					"inputs": [
						{
							"name": "_address",
							"type": "address"
						}
					],
					"name": "givePermissionByUser",
					"outputs": [
						{
							"name": "success",
							"type": "bool"
						}
					],
					"payable": false,
					"stateMutability": "nonpayable",
					"type": "function"
				},
				{
					"constant": false,
					"inputs": [
						{
							"name": "_address1",
							"type": "address"
						},
						{
							"name": "_doctor",
							"type": "address"
						},
						{
							"name": "_vaccine",
							"type": "string"
						},
						{
							"name": "_description",
							"type": "string"
						},
						{
							"name": "_typeOfVaccine",
							"type": "string"
						},
						{
							"name": "_creationDate",
							"type": "uint256"
						}
					],
					"name": "createVaccineRecord",
					"outputs": [
						{
							"name": "success",
							"type": "bool"
						}
					],
					"payable": false,
					"stateMutability": "nonpayable",
					"type": "function"
				},
				{
					"constant": false,
					"inputs": [
						{
							"name": "_address",
							"type": "address"
						}
					],
					"name": "userRevokePermission",
					"outputs": [
						{
							"name": "success",
							"type": "bool"
						}
					],
					"payable": false,
					"stateMutability": "nonpayable",
					"type": "function"
				},
				{
					"constant": false,
					"inputs": [
						{
							"name": "_user",
							"type": "address"
						},
						{
							"name": "_uaeId",
							"type": "string"
						},
						{
							"name": "_name",
							"type": "string"
						},
						{
							"name": "_phone",
							"type": "string"
						},
						{
							"name": "_gender",
							"type": "string"
						},
						{
							"name": "_dob",
							"type": "string"
						},
						{
							"name": "_addr",
							"type": "string"
						},
						{
							"name": "_email",
							"type": "string"
						},
						{
							"name": "_nomineeName",
							"type": "string"
						},
						{
							"name": "_nomineeContact",
							"type": "string"
						}
					],
					"name": "userRegistration",
					"outputs": [],
					"payable": false,
					"stateMutability": "nonpayable",
					"type": "function"
				},
				{
					"constant": false,
					"inputs": [
						{
							"name": "_user",
							"type": "address"
						},
						{
							"name": "_uaeId",
							"type": "string"
						},
						{
							"name": "_name",
							"type": "string"
						},
						{
							"name": "_phone",
							"type": "string"
						},
						{
							"name": "_gender",
							"type": "string"
						},
						{
							"name": "_dob",
							"type": "string"
						},
						{
							"name": "_addr",
							"type": "string"
						},
						{
							"name": "_email",
							"type": "string"
						},
						{
							"name": "_nomineeName",
							"type": "string"
						},
						{
							"name": "_nomineeContact",
							"type": "string"
						}
					],
					"name": "editUser",
					"outputs": [],
					"payable": false,
					"stateMutability": "nonpayable",
					"type": "function"
				},
				{
					"constant": true,
					"inputs": [],
					"name": "doctorCount",
					"outputs": [
						{
							"name": "",
							"type": "uint256"
						}
					],
					"payable": false,
					"stateMutability": "view",
					"type": "function"
				},
				{
					"constant": true,
					"inputs": [],
					"name": "getDoctorCount",
					"outputs": [
						{
							"name": "",
							"type": "uint256"
						}
					],
					"payable": false,
					"stateMutability": "view",
					"type": "function"
				},
				{
					"constant": true,
					"inputs": [
						{
							"name": "_address",
							"type": "address"
						}
					],
					"name": "getVaccinationInfo",
					"outputs": [
						{
							"name": "",
							"type": "string"
						},
						{
							"name": "",
							"type": "string"
						},
						{
							"name": "",
							"type": "string"
						},
						{
							"name": "",
							"type": "uint256"
						},
						{
							"name": "",
							"type": "address"
						},
						{
							"name": "",
							"type": "address"
						}
					],
					"payable": false,
					"stateMutability": "view",
					"type": "function"
				},
				{
					"constant": true,
					"inputs": [],
					"name": "owner",
					"outputs": [
						{
							"name": "",
							"type": "address"
						}
					],
					"payable": false,
					"stateMutability": "view",
					"type": "function"
				},
				{
					"constant": false,
					"inputs": [],
					"name": "ownerAddress",
					"outputs": [
						{
							"name": "",
							"type": "address"
						}
					],
					"payable": false,
					"stateMutability": "nonpayable",
					"type": "function"
				},
				{
					"constant": true,
					"inputs": [],
					"name": "vaccinationRecordsCounter",
					"outputs": [
						{
							"name": "",
							"type": "uint256"
						}
					],
					"payable": false,
					"stateMutability": "view",
					"type": "function"
				},
				{
					"constant": true,
					"inputs": [],
					"name": "MoHPermissionCounter",
					"outputs": [
						{
							"name": "",
							"type": "uint256"
						}
					],
					"payable": false,
					"stateMutability": "view",
					"type": "function"
				},
				{
					"constant": true,
					"inputs": [
						{
							"name": "",
							"type": "uint256"
						}
					],
					"name": "userList",
					"outputs": [
						{
							"name": "",
							"type": "address"
						}
					],
					"payable": false,
					"stateMutability": "view",
					"type": "function"
				},
				{
					"constant": true,
					"inputs": [],
					"name": "getDoctors",
					"outputs": [
						{
							"name": "",
							"type": "address[]"
						}
					],
					"payable": false,
					"stateMutability": "view",
					"type": "function"
				},
				{
					"constant": true,
					"inputs": [],
					"name": "getUserCount",
					"outputs": [
						{
							"name": "",
							"type": "uint256"
						}
					],
					"payable": false,
					"stateMutability": "view",
					"type": "function"
				},
				{
					"constant": true,
					"inputs": [],
					"name": "mohAdress",
					"outputs": [
						{
							"name": "",
							"type": "address"
						}
					],
					"payable": false,
					"stateMutability": "view",
					"type": "function"
				},
				{
					"constant": false,
					"inputs": [
						{
							"name": "_address1",
							"type": "address"
						},
						{
							"name": "_address2",
							"type": "address"
						}
					],
					"name": "MoHRevokePermission",
					"outputs": [
						{
							"name": "success",
							"type": "bool"
						}
					],
					"payable": false,
					"stateMutability": "nonpayable",
					"type": "function"
				},
				{
					"constant": true,
					"inputs": [],
					"name": "userPermissionCounter",
					"outputs": [
						{
							"name": "",
							"type": "uint256"
						}
					],
					"payable": false,
					"stateMutability": "view",
					"type": "function"
				},
				{
					"constant": true,
					"inputs": [
						{
							"name": "_address",
							"type": "address"
						}
					],
					"name": "searchDoctor",
					"outputs": [
						{
							"name": "",
							"type": "string"
						},
						{
							"name": "",
							"type": "string"
						},
						{
							"name": "",
							"type": "string"
						},
						{
							"name": "",
							"type": "string"
						},
						{
							"name": "",
							"type": "string"
						},
						{
							"name": "",
							"type": "string"
						},
						{
							"name": "",
							"type": "string"
						}
					],
					"payable": false,
					"stateMutability": "view",
					"type": "function"
				},
				{
					"constant": false,
					"inputs": [
						{
							"name": "_address1",
							"type": "address"
						},
						{
							"name": "_address2",
							"type": "address"
						}
					],
					"name": "givePermissionByMoH",
					"outputs": [
						{
							"name": "success",
							"type": "bool"
						}
					],
					"payable": false,
					"stateMutability": "nonpayable",
					"type": "function"
				},
				{
					"constant": true,
					"inputs": [],
					"name": "getMoHPermissionCounter",
					"outputs": [
						{
							"name": "",
							"type": "uint256"
						}
					],
					"payable": false,
					"stateMutability": "view",
					"type": "function"
				},
				{
					"constant": true,
					"inputs": [
						{
							"name": "",
							"type": "uint256"
						}
					],
					"name": "vaccinationList",
					"outputs": [
						{
							"name": "",
							"type": "address"
						}
					],
					"payable": false,
					"stateMutability": "view",
					"type": "function"
				}
			],
			"devdoc": {
				"methods": {}
			},
			"evm": {
				"assembly": "    /* \"contracts/ddddd.sol\":91:8855  contract ddddd {\r... */\n  mstore(0x40, 0x80)\n    /* \"contracts/ddddd.sol\":1685:1686  0 */\n  0x0\n    /* \"contracts/ddddd.sol\":1658:1686  uint256 public userCount = 0 */\n  0xb\n  sstore\n    /* \"contracts/ddddd.sol\":1722:1723  0 */\n  0x0\n    /* \"contracts/ddddd.sol\":1693:1723  uint256 public doctorCount = 0 */\n  0xc\n  sstore\n    /* \"contracts/ddddd.sol\":1768:1769  0 */\n  0x0\n    /* \"contracts/ddddd.sol\":1730:1769  uint256 public MoHPermissionCounter = 0 */\n  0xd\n  sstore\n    /* \"contracts/ddddd.sol\":1815:1816  0 */\n  0x0\n    /* \"contracts/ddddd.sol\":1776:1816  uint256 public userPermissionCounter = 0 */\n  0xe\n  sstore\n    /* \"contracts/ddddd.sol\":1866:1867  0 */\n  0x0\n    /* \"contracts/ddddd.sol\":1823:1867  uint256 public vaccinationRecordsCounter = 0 */\n  0xf\n  sstore\n    /* \"contracts/ddddd.sol\":1903:1945  0xc50C6297f56b033633C30354A854b074749cd2dC */\n  0xc50c6297f56b033633c30354a854b074749cd2dc\n    /* \"contracts/ddddd.sol\":1876:1945  address public mohAdress = 0xc50C6297f56b033633C30354A854b074749cd2dC */\n  0x10\n  exp(0x100, 0x0)\n  dup2\n  sload\n  dup2\n  0xffffffffffffffffffffffffffffffffffffffff\n  mul\n  not\n  and\n  swap1\n  dup4\n  0xffffffffffffffffffffffffffffffffffffffff\n  and\n  mul\n  or\n  swap1\n  sstore\n  pop\n    /* \"contracts/ddddd.sol\":91:8855  contract ddddd {\r... */\n  callvalue\n    /* \"--CODEGEN--\":8:17   */\n  dup1\n    /* \"--CODEGEN--\":5:7   */\n  iszero\n  tag_1\n  jumpi\n    /* \"--CODEGEN--\":30:31   */\n  0x0\n    /* \"--CODEGEN--\":27:28   */\n  dup1\n    /* \"--CODEGEN--\":20:32   */\n  revert\n    /* \"--CODEGEN--\":5:7   */\ntag_1:\n    /* \"contracts/ddddd.sol\":91:8855  contract ddddd {\r... */\n  pop\n  dataSize(sub_0)\n  dup1\n  dataOffset(sub_0)\n  0x0\n  codecopy\n  0x0\n  return\nstop\n\nsub_0: assembly {\n        /* \"contracts/ddddd.sol\":91:8855  contract ddddd {\r... */\n      mstore(0x40, 0x80)\n      jumpi(tag_1, lt(calldatasize, 0x4))\n      calldataload(0x0)\n      0x100000000000000000000000000000000000000000000000000000000\n      swap1\n      div\n      0xffffffff\n      and\n      dup1\n      0xce8e3e\n      eq\n      tag_2\n      jumpi\n      dup1\n      0x24decc5\n      eq\n      tag_3\n      jumpi\n      dup1\n      0x76fd2f8\n      eq\n      tag_4\n      jumpi\n      dup1\n      0x7973ccf\n      eq\n      tag_5\n      jumpi\n      dup1\n      0x127ca4b4\n      eq\n      tag_6\n      jumpi\n      dup1\n      0x16e0a611\n      eq\n      tag_7\n      jumpi\n      dup1\n      0x17e51111\n      eq\n      tag_8\n      jumpi\n      dup1\n      0x294a4540\n      eq\n      tag_9\n      jumpi\n      dup1\n      0x341f8105\n      eq\n      tag_10\n      jumpi\n      dup1\n      0x5fc8e8c6\n      eq\n      tag_11\n      jumpi\n      dup1\n      0x6cdb2278\n      eq\n      tag_12\n      jumpi\n      dup1\n      0x779a9576\n      eq\n      tag_13\n      jumpi\n      dup1\n      0x78522bc4\n      eq\n      tag_14\n      jumpi\n      dup1\n      0x79111c1c\n      eq\n      tag_15\n      jumpi\n      dup1\n      0x83a28b29\n      eq\n      tag_16\n      jumpi\n      dup1\n      0x8da5cb5b\n      eq\n      tag_17\n      jumpi\n      dup1\n      0x8f84aa09\n      eq\n      tag_18\n      jumpi\n      dup1\n      0x96e39ce0\n      eq\n      tag_19\n      jumpi\n      dup1\n      0x99d698c5\n      eq\n      tag_20\n      jumpi\n      dup1\n      0x9f4216e8\n      eq\n      tag_21\n      jumpi\n      dup1\n      0xb13d5d94\n      eq\n      tag_22\n      jumpi\n      dup1\n      0xb5cb15f7\n      eq\n      tag_23\n      jumpi\n      dup1\n      0xb744ff4d\n      eq\n      tag_24\n      jumpi\n      dup1\n      0xc3bf7bf0\n      eq\n      tag_25\n      jumpi\n      dup1\n      0xc543a718\n      eq\n      tag_26\n      jumpi\n      dup1\n      0xcaee6c85\n      eq\n      tag_27\n      jumpi\n      dup1\n      0xd118404b\n      eq\n      tag_28\n      jumpi\n      dup1\n      0xe0df0ac6\n      eq\n      tag_29\n      jumpi\n      dup1\n      0xff508dab\n      eq\n      tag_30\n      jumpi\n    tag_1:\n      0x0\n      dup1\n      revert\n        /* \"contracts/ddddd.sol\":7182:7267  function getUsers() public view returns(address[]) {\r... */\n    tag_2:\n      callvalue\n        /* \"--CODEGEN--\":8:17   */\n      dup1\n        /* \"--CODEGEN--\":5:7   */\n      iszero\n      tag_31\n      jumpi\n        /* \"--CODEGEN--\":30:31   */\n      0x0\n        /* \"--CODEGEN--\":27:28   */\n      dup1\n        /* \"--CODEGEN--\":20:32   */\n      revert\n        /* \"--CODEGEN--\":5:7   */\n    tag_31:\n        /* \"contracts/ddddd.sol\":7182:7267  function getUsers() public view returns(address[]) {\r... */\n      pop\n      tag_32\n      jump(tag_33)\n    tag_32:\n      mload(0x40)\n      tag_34\n      swap2\n      swap1\n      jump(tag_35)\n    tag_34:\n      mload(0x40)\n      dup1\n      swap2\n      sub\n      swap1\n      return\n        /* \"contracts/ddddd.sol\":8620:8732  function getUserPermissionCounter() public view returns(uint256) {\r... */\n    tag_3:\n      callvalue\n        /* \"--CODEGEN--\":8:17   */\n      dup1\n        /* \"--CODEGEN--\":5:7   */\n      iszero\n      tag_36\n      jumpi\n        /* \"--CODEGEN--\":30:31   */\n      0x0\n        /* \"--CODEGEN--\":27:28   */\n      dup1\n        /* \"--CODEGEN--\":20:32   */\n      revert\n        /* \"--CODEGEN--\":5:7   */\n    tag_36:\n        /* \"contracts/ddddd.sol\":8620:8732  function getUserPermissionCounter() public view returns(uint256) {\r... */\n      pop\n      tag_37\n      jump(tag_38)\n    tag_37:\n      mload(0x40)\n      tag_39\n      swap2\n      swap1\n      jump(tag_40)\n    tag_39:\n      mload(0x40)\n      dup1\n      swap2\n      sub\n      swap1\n      return\n        /* \"contracts/ddddd.sol\":7378:7735  function searchUserformation(address _address) public view returns(string, string, string, string, string, string, address) {\r... */\n    tag_4:\n      callvalue\n        /* \"--CODEGEN--\":8:17   */\n      dup1\n        /* \"--CODEGEN--\":5:7   */\n      iszero\n      tag_41\n      jumpi\n        /* \"--CODEGEN--\":30:31   */\n      0x0\n        /* \"--CODEGEN--\":27:28   */\n      dup1\n        /* \"--CODEGEN--\":20:32   */\n      revert\n        /* \"--CODEGEN--\":5:7   */\n    tag_41:\n        /* \"contracts/ddddd.sol\":7378:7735  function searchUserformation(address _address) public view returns(string, string, string, string, string, string, address) {\r... */\n      pop\n      tag_42\n      0x4\n      dup1\n      calldatasize\n      sub\n      tag_43\n      swap2\n      swap1\n      dup2\n      add\n      swap1\n      jump(tag_44)\n    tag_43:\n      jump(tag_45)\n    tag_42:\n      mload(0x40)\n      tag_46\n      swap8\n      swap7\n      swap6\n      swap5\n      swap4\n      swap3\n      swap2\n      swap1\n      jump(tag_47)\n    tag_46:\n      mload(0x40)\n      dup1\n      swap2\n      sub\n      swap1\n      return\n        /* \"contracts/ddddd.sol\":1658:1686  uint256 public userCount = 0 */\n    tag_5:\n      callvalue\n        /* \"--CODEGEN--\":8:17   */\n      dup1\n        /* \"--CODEGEN--\":5:7   */\n      iszero\n      tag_48\n      jumpi\n        /* \"--CODEGEN--\":30:31   */\n      0x0\n        /* \"--CODEGEN--\":27:28   */\n      dup1\n        /* \"--CODEGEN--\":20:32   */\n      revert\n        /* \"--CODEGEN--\":5:7   */\n    tag_48:\n        /* \"contracts/ddddd.sol\":1658:1686  uint256 public userCount = 0 */\n      pop\n      tag_49\n      jump(tag_50)\n    tag_49:\n      mload(0x40)\n      tag_51\n      swap2\n      swap1\n      jump(tag_40)\n    tag_51:\n      mload(0x40)\n      dup1\n      swap2\n      sub\n      swap1\n      return\n        /* \"contracts/ddddd.sol\":1120:1147  address[] public doctorList */\n    tag_6:\n      callvalue\n        /* \"--CODEGEN--\":8:17   */\n      dup1\n        /* \"--CODEGEN--\":5:7   */\n      iszero\n      tag_52\n      jumpi\n        /* \"--CODEGEN--\":30:31   */\n      0x0\n        /* \"--CODEGEN--\":27:28   */\n      dup1\n        /* \"--CODEGEN--\":20:32   */\n      revert\n        /* \"--CODEGEN--\":5:7   */\n    tag_52:\n        /* \"contracts/ddddd.sol\":1120:1147  address[] public doctorList */\n      pop\n      tag_53\n      0x4\n      dup1\n      calldatasize\n      sub\n      tag_54\n      swap2\n      swap1\n      dup2\n      add\n      swap1\n      jump(tag_55)\n    tag_54:\n      jump(tag_56)\n    tag_53:\n      mload(0x40)\n      tag_57\n      swap2\n      swap1\n      jump(tag_58)\n    tag_57:\n      mload(0x40)\n      dup1\n      swap2\n      sub\n      swap1\n      return\n        /* \"contracts/ddddd.sol\":4597:5116  function editDoctor(address _doctor, string _uaeId, string _name, string _phone, string _gender, string _dob, string _qualification, string _major) public {\r... */\n    tag_7:\n      callvalue\n        /* \"--CODEGEN--\":8:17   */\n      dup1\n        /* \"--CODEGEN--\":5:7   */\n      iszero\n      tag_59\n      jumpi\n        /* \"--CODEGEN--\":30:31   */\n      0x0\n        /* \"--CODEGEN--\":27:28   */\n      dup1\n        /* \"--CODEGEN--\":20:32   */\n      revert\n        /* \"--CODEGEN--\":5:7   */\n    tag_59:\n        /* \"contracts/ddddd.sol\":4597:5116  function editDoctor(address _doctor, string _uaeId, string _name, string _phone, string _gender, string _dob, string _qualification, string _major) public {\r... */\n      pop\n      tag_60\n      0x4\n      dup1\n      calldatasize\n      sub\n      tag_61\n      swap2\n      swap1\n      dup2\n      add\n      swap1\n      jump(tag_62)\n    tag_61:\n      jump(tag_63)\n    tag_60:\n      stop\n        /* \"contracts/ddddd.sol\":3828:4589  function doctorRegistration(address _doctor, string _uaeId, string _name, string _phone, string _gender, string _dob, string _qualification, string _major) public {\r... */\n    tag_8:\n      callvalue\n        /* \"--CODEGEN--\":8:17   */\n      dup1\n        /* \"--CODEGEN--\":5:7   */\n      iszero\n      tag_64\n      jumpi\n        /* \"--CODEGEN--\":30:31   */\n      0x0\n        /* \"--CODEGEN--\":27:28   */\n      dup1\n        /* \"--CODEGEN--\":20:32   */\n      revert\n        /* \"--CODEGEN--\":5:7   */\n    tag_64:\n        /* \"contracts/ddddd.sol\":3828:4589  function doctorRegistration(address _doctor, string _uaeId, string _name, string _phone, string _gender, string _dob, string _qualification, string _major) public {\r... */\n      pop\n      tag_65\n      0x4\n      dup1\n      calldatasize\n      sub\n      tag_66\n      swap2\n      swap1\n      dup2\n      add\n      swap1\n      jump(tag_62)\n    tag_66:\n      jump(tag_67)\n    tag_65:\n      stop\n        /* \"contracts/ddddd.sol\":6325:6516  function givePermissionByUser(address _address) public returns(bool success) {\r... */\n    tag_9:\n      callvalue\n        /* \"--CODEGEN--\":8:17   */\n      dup1\n        /* \"--CODEGEN--\":5:7   */\n      iszero\n      tag_68\n      jumpi\n        /* \"--CODEGEN--\":30:31   */\n      0x0\n        /* \"--CODEGEN--\":27:28   */\n      dup1\n        /* \"--CODEGEN--\":20:32   */\n      revert\n        /* \"--CODEGEN--\":5:7   */\n    tag_68:\n        /* \"contracts/ddddd.sol\":6325:6516  function givePermissionByUser(address _address) public returns(bool success) {\r... */\n      pop\n      tag_69\n      0x4\n      dup1\n      calldatasize\n      sub\n      tag_70\n      swap2\n      swap1\n      dup2\n      add\n      swap1\n      jump(tag_44)\n    tag_70:\n      jump(tag_71)\n    tag_69:\n      mload(0x40)\n      tag_72\n      swap2\n      swap1\n      jump(tag_73)\n    tag_72:\n      mload(0x40)\n      dup1\n      swap2\n      sub\n      swap1\n      return\n        /* \"contracts/ddddd.sol\":5124:6031  function createVaccineRecord(address _address1, address _doctor, string _vaccine, string _description, string _typeOfVaccine, uint _creationDate) public returns(bool success) {\r... */\n    tag_10:\n      callvalue\n        /* \"--CODEGEN--\":8:17   */\n      dup1\n        /* \"--CODEGEN--\":5:7   */\n      iszero\n      tag_74\n      jumpi\n        /* \"--CODEGEN--\":30:31   */\n      0x0\n        /* \"--CODEGEN--\":27:28   */\n      dup1\n        /* \"--CODEGEN--\":20:32   */\n      revert\n        /* \"--CODEGEN--\":5:7   */\n    tag_74:\n        /* \"contracts/ddddd.sol\":5124:6031  function createVaccineRecord(address _address1, address _doctor, string _vaccine, string _description, string _typeOfVaccine, uint _creationDate) public returns(bool success) {\r... */\n      pop\n      tag_75\n      0x4\n      dup1\n      calldatasize\n      sub\n      tag_76\n      swap2\n      swap1\n      dup2\n      add\n      swap1\n      jump(tag_77)\n    tag_76:\n      jump(tag_78)\n    tag_75:\n      mload(0x40)\n      tag_79\n      swap2\n      swap1\n      jump(tag_73)\n    tag_79:\n      mload(0x40)\n      dup1\n      swap2\n      sub\n      swap1\n      return\n        /* \"contracts/ddddd.sol\":6786:6944  function userRevokePermission(address _address) public returns(bool success) {\r... */\n    tag_11:\n      callvalue\n        /* \"--CODEGEN--\":8:17   */\n      dup1\n        /* \"--CODEGEN--\":5:7   */\n      iszero\n      tag_80\n      jumpi\n        /* \"--CODEGEN--\":30:31   */\n      0x0\n        /* \"--CODEGEN--\":27:28   */\n      dup1\n        /* \"--CODEGEN--\":20:32   */\n      revert\n        /* \"--CODEGEN--\":5:7   */\n    tag_80:\n        /* \"contracts/ddddd.sol\":6786:6944  function userRevokePermission(address _address) public returns(bool success) {\r... */\n      pop\n      tag_81\n      0x4\n      dup1\n      calldatasize\n      sub\n      tag_82\n      swap2\n      swap1\n      dup2\n      add\n      swap1\n      jump(tag_44)\n    tag_82:\n      jump(tag_83)\n    tag_81:\n      mload(0x40)\n      tag_84\n      swap2\n      swap1\n      jump(tag_73)\n    tag_84:\n      mload(0x40)\n      dup1\n      swap2\n      sub\n      swap1\n      return\n        /* \"contracts/ddddd.sol\":2078:3187  function userRegistration(address _user, string _uaeId, string _name, string _phone, string _gender, string _dob, string _addr, string _email, string _nomineeName, string _nomineeContact) public {\r... */\n    tag_12:\n      callvalue\n        /* \"--CODEGEN--\":8:17   */\n      dup1\n        /* \"--CODEGEN--\":5:7   */\n      iszero\n      tag_85\n      jumpi\n        /* \"--CODEGEN--\":30:31   */\n      0x0\n        /* \"--CODEGEN--\":27:28   */\n      dup1\n        /* \"--CODEGEN--\":20:32   */\n      revert\n        /* \"--CODEGEN--\":5:7   */\n    tag_85:\n        /* \"contracts/ddddd.sol\":2078:3187  function userRegistration(address _user, string _uaeId, string _name, string _phone, string _gender, string _dob, string _addr, string _email, string _nomineeName, string _nomineeContact) public {\r... */\n      pop\n      tag_86\n      0x4\n      dup1\n      calldatasize\n      sub\n      tag_87\n      swap2\n      swap1\n      dup2\n      add\n      swap1\n      jump(tag_88)\n    tag_87:\n      jump(tag_89)\n    tag_86:\n      stop\n        /* \"contracts/ddddd.sol\":3211:3820  function editUser(address _user, string _uaeId, string _name, string _phone, string _gender, string _dob, string _addr, string _email, string _nomineeName, string _nomineeContact) public {\r... */\n    tag_13:\n      callvalue\n        /* \"--CODEGEN--\":8:17   */\n      dup1\n        /* \"--CODEGEN--\":5:7   */\n      iszero\n      tag_90\n      jumpi\n        /* \"--CODEGEN--\":30:31   */\n      0x0\n        /* \"--CODEGEN--\":27:28   */\n      dup1\n        /* \"--CODEGEN--\":20:32   */\n      revert\n        /* \"--CODEGEN--\":5:7   */\n    tag_90:\n        /* \"contracts/ddddd.sol\":3211:3820  function editUser(address _user, string _uaeId, string _name, string _phone, string _gender, string _dob, string _addr, string _email, string _nomineeName, string _nomineeContact) public {\r... */\n      pop\n      tag_91\n      0x4\n      dup1\n      calldatasize\n      sub\n      tag_92\n      swap2\n      swap1\n      dup2\n      add\n      swap1\n      jump(tag_88)\n    tag_92:\n      jump(tag_93)\n    tag_91:\n      stop\n        /* \"contracts/ddddd.sol\":1693:1723  uint256 public doctorCount = 0 */\n    tag_14:\n      callvalue\n        /* \"--CODEGEN--\":8:17   */\n      dup1\n        /* \"--CODEGEN--\":5:7   */\n      iszero\n      tag_94\n      jumpi\n        /* \"--CODEGEN--\":30:31   */\n      0x0\n        /* \"--CODEGEN--\":27:28   */\n      dup1\n        /* \"--CODEGEN--\":20:32   */\n      revert\n        /* \"--CODEGEN--\":5:7   */\n    tag_94:\n        /* \"contracts/ddddd.sol\":1693:1723  uint256 public doctorCount = 0 */\n      pop\n      tag_95\n      jump(tag_96)\n    tag_95:\n      mload(0x40)\n      tag_97\n      swap2\n      swap1\n      jump(tag_40)\n    tag_97:\n      mload(0x40)\n      dup1\n      swap2\n      sub\n      swap1\n      return\n        /* \"contracts/ddddd.sol\":8514:8606  function getDoctorCount() public view returns(uint256) {\r... */\n    tag_15:\n      callvalue\n        /* \"--CODEGEN--\":8:17   */\n      dup1\n        /* \"--CODEGEN--\":5:7   */\n      iszero\n      tag_98\n      jumpi\n        /* \"--CODEGEN--\":30:31   */\n      0x0\n        /* \"--CODEGEN--\":27:28   */\n      dup1\n        /* \"--CODEGEN--\":20:32   */\n      revert\n        /* \"--CODEGEN--\":5:7   */\n    tag_98:\n        /* \"contracts/ddddd.sol\":8514:8606  function getDoctorCount() public view returns(uint256) {\r... */\n      pop\n      tag_99\n      jump(tag_100)\n    tag_99:\n      mload(0x40)\n      tag_101\n      swap2\n      swap1\n      jump(tag_40)\n    tag_101:\n      mload(0x40)\n      dup1\n      swap2\n      sub\n      swap1\n      return\n        /* \"contracts/ddddd.sol\":6039:6315  function getVaccinationInfo(address _address) public view returns(string, string, string, uint256, address, address) {\r... */\n    tag_16:\n      callvalue\n        /* \"--CODEGEN--\":8:17   */\n      dup1\n        /* \"--CODEGEN--\":5:7   */\n      iszero\n      tag_102\n      jumpi\n        /* \"--CODEGEN--\":30:31   */\n      0x0\n        /* \"--CODEGEN--\":27:28   */\n      dup1\n        /* \"--CODEGEN--\":20:32   */\n      revert\n        /* \"--CODEGEN--\":5:7   */\n    tag_102:\n        /* \"contracts/ddddd.sol\":6039:6315  function getVaccinationInfo(address _address) public view returns(string, string, string, uint256, address, address) {\r... */\n      pop\n      tag_103\n      0x4\n      dup1\n      calldatasize\n      sub\n      tag_104\n      swap2\n      swap1\n      dup2\n      add\n      swap1\n      jump(tag_44)\n    tag_104:\n      jump(tag_105)\n    tag_103:\n      mload(0x40)\n      tag_106\n      swap7\n      swap6\n      swap5\n      swap4\n      swap3\n      swap2\n      swap1\n      jump(tag_107)\n    tag_106:\n      mload(0x40)\n      dup1\n      swap2\n      sub\n      swap1\n      return\n        /* \"contracts/ddddd.sol\":1061:1081  address public owner */\n    tag_17:\n      callvalue\n        /* \"--CODEGEN--\":8:17   */\n      dup1\n        /* \"--CODEGEN--\":5:7   */\n      iszero\n      tag_108\n      jumpi\n        /* \"--CODEGEN--\":30:31   */\n      0x0\n        /* \"--CODEGEN--\":27:28   */\n      dup1\n        /* \"--CODEGEN--\":20:32   */\n      revert\n        /* \"--CODEGEN--\":5:7   */\n    tag_108:\n        /* \"contracts/ddddd.sol\":1061:1081  address public owner */\n      pop\n      tag_109\n      jump(tag_110)\n    tag_109:\n      mload(0x40)\n      tag_111\n      swap2\n      swap1\n      jump(tag_58)\n    tag_111:\n      mload(0x40)\n      dup1\n      swap2\n      sub\n      swap1\n      return\n        /* \"contracts/ddddd.sol\":1958:2066  function ownerAddress() public returns(address) {\r... */\n    tag_18:\n      callvalue\n        /* \"--CODEGEN--\":8:17   */\n      dup1\n        /* \"--CODEGEN--\":5:7   */\n      iszero\n      tag_112\n      jumpi\n        /* \"--CODEGEN--\":30:31   */\n      0x0\n        /* \"--CODEGEN--\":27:28   */\n      dup1\n        /* \"--CODEGEN--\":20:32   */\n      revert\n        /* \"--CODEGEN--\":5:7   */\n    tag_112:\n        /* \"contracts/ddddd.sol\":1958:2066  function ownerAddress() public returns(address) {\r... */\n      pop\n      tag_113\n      jump(tag_114)\n    tag_113:\n      mload(0x40)\n      tag_115\n      swap2\n      swap1\n      jump(tag_58)\n    tag_115:\n      mload(0x40)\n      dup1\n      swap2\n      sub\n      swap1\n      return\n        /* \"contracts/ddddd.sol\":1823:1867  uint256 public vaccinationRecordsCounter = 0 */\n    tag_19:\n      callvalue\n        /* \"--CODEGEN--\":8:17   */\n      dup1\n        /* \"--CODEGEN--\":5:7   */\n      iszero\n      tag_116\n      jumpi\n        /* \"--CODEGEN--\":30:31   */\n      0x0\n        /* \"--CODEGEN--\":27:28   */\n      dup1\n        /* \"--CODEGEN--\":20:32   */\n      revert\n        /* \"--CODEGEN--\":5:7   */\n    tag_116:\n        /* \"contracts/ddddd.sol\":1823:1867  uint256 public vaccinationRecordsCounter = 0 */\n      pop\n      tag_117\n      jump(tag_118)\n    tag_117:\n      mload(0x40)\n      tag_119\n      swap2\n      swap1\n      jump(tag_40)\n    tag_119:\n      mload(0x40)\n      dup1\n      swap2\n      sub\n      swap1\n      return\n        /* \"contracts/ddddd.sol\":1730:1769  uint256 public MoHPermissionCounter = 0 */\n    tag_20:\n      callvalue\n        /* \"--CODEGEN--\":8:17   */\n      dup1\n        /* \"--CODEGEN--\":5:7   */\n      iszero\n      tag_120\n      jumpi\n        /* \"--CODEGEN--\":30:31   */\n      0x0\n        /* \"--CODEGEN--\":27:28   */\n      dup1\n        /* \"--CODEGEN--\":20:32   */\n      revert\n        /* \"--CODEGEN--\":5:7   */\n    tag_120:\n        /* \"contracts/ddddd.sol\":1730:1769  uint256 public MoHPermissionCounter = 0 */\n      pop\n      tag_121\n      jump(tag_122)\n    tag_121:\n      mload(0x40)\n      tag_123\n      swap2\n      swap1\n      jump(tag_40)\n    tag_123:\n      mload(0x40)\n      dup1\n      swap2\n      sub\n      swap1\n      return\n        /* \"contracts/ddddd.sol\":1088:1113  address[] public userList */\n    tag_21:\n      callvalue\n        /* \"--CODEGEN--\":8:17   */\n      dup1\n        /* \"--CODEGEN--\":5:7   */\n      iszero\n      tag_124\n      jumpi\n        /* \"--CODEGEN--\":30:31   */\n      0x0\n        /* \"--CODEGEN--\":27:28   */\n      dup1\n        /* \"--CODEGEN--\":20:32   */\n      revert\n        /* \"--CODEGEN--\":5:7   */\n    tag_124:\n        /* \"contracts/ddddd.sol\":1088:1113  address[] public userList */\n      pop\n      tag_125\n      0x4\n      dup1\n      calldatasize\n      sub\n      tag_126\n      swap2\n      swap1\n      dup2\n      add\n      swap1\n      jump(tag_55)\n    tag_126:\n      jump(tag_127)\n    tag_125:\n      mload(0x40)\n      tag_128\n      swap2\n      swap1\n      jump(tag_58)\n    tag_128:\n      mload(0x40)\n      dup1\n      swap2\n      sub\n      swap1\n      return\n        /* \"contracts/ddddd.sol\":7277:7366  function getDoctors() public view returns(address[]) {\r... */\n    tag_22:\n      callvalue\n        /* \"--CODEGEN--\":8:17   */\n      dup1\n        /* \"--CODEGEN--\":5:7   */\n      iszero\n      tag_129\n      jumpi\n        /* \"--CODEGEN--\":30:31   */\n      0x0\n        /* \"--CODEGEN--\":27:28   */\n      dup1\n        /* \"--CODEGEN--\":20:32   */\n      revert\n        /* \"--CODEGEN--\":5:7   */\n    tag_129:\n        /* \"contracts/ddddd.sol\":7277:7366  function getDoctors() public view returns(address[]) {\r... */\n      pop\n      tag_130\n      jump(tag_131)\n    tag_130:\n      mload(0x40)\n      tag_132\n      swap2\n      swap1\n      jump(tag_35)\n    tag_132:\n      mload(0x40)\n      dup1\n      swap2\n      sub\n      swap1\n      return\n        /* \"contracts/ddddd.sol\":8418:8506  function getUserCount() public view returns(uint256) {\r... */\n    tag_23:\n      callvalue\n        /* \"--CODEGEN--\":8:17   */\n      dup1\n        /* \"--CODEGEN--\":5:7   */\n      iszero\n      tag_133\n      jumpi\n        /* \"--CODEGEN--\":30:31   */\n      0x0\n        /* \"--CODEGEN--\":27:28   */\n      dup1\n        /* \"--CODEGEN--\":20:32   */\n      revert\n        /* \"--CODEGEN--\":5:7   */\n    tag_133:\n        /* \"contracts/ddddd.sol\":8418:8506  function getUserCount() public view returns(uint256) {\r... */\n      pop\n      tag_134\n      jump(tag_135)\n    tag_134:\n      mload(0x40)\n      tag_136\n      swap2\n      swap1\n      jump(tag_40)\n    tag_136:\n      mload(0x40)\n      dup1\n      swap2\n      sub\n      swap1\n      return\n        /* \"contracts/ddddd.sol\":1876:1945  address public mohAdress = 0xc50C6297f56b033633C30354A854b074749cd2dC */\n    tag_24:\n      callvalue\n        /* \"--CODEGEN--\":8:17   */\n      dup1\n        /* \"--CODEGEN--\":5:7   */\n      iszero\n      tag_137\n      jumpi\n        /* \"--CODEGEN--\":30:31   */\n      0x0\n        /* \"--CODEGEN--\":27:28   */\n      dup1\n        /* \"--CODEGEN--\":20:32   */\n      revert\n        /* \"--CODEGEN--\":5:7   */\n    tag_137:\n        /* \"contracts/ddddd.sol\":1876:1945  address public mohAdress = 0xc50C6297f56b033633C30354A854b074749cd2dC */\n      pop\n      tag_138\n      jump(tag_139)\n    tag_138:\n      mload(0x40)\n      tag_140\n      swap2\n      swap1\n      jump(tag_58)\n    tag_140:\n      mload(0x40)\n      dup1\n      swap2\n      sub\n      swap1\n      return\n        /* \"contracts/ddddd.sol\":6952:7172  function MoHRevokePermission(address _address1, address _address2) public returns(bool success) {\r... */\n    tag_25:\n      callvalue\n        /* \"--CODEGEN--\":8:17   */\n      dup1\n        /* \"--CODEGEN--\":5:7   */\n      iszero\n      tag_141\n      jumpi\n        /* \"--CODEGEN--\":30:31   */\n      0x0\n        /* \"--CODEGEN--\":27:28   */\n      dup1\n        /* \"--CODEGEN--\":20:32   */\n      revert\n        /* \"--CODEGEN--\":5:7   */\n    tag_141:\n        /* \"contracts/ddddd.sol\":6952:7172  function MoHRevokePermission(address _address1, address _address2) public returns(bool success) {\r... */\n      pop\n      tag_142\n      0x4\n      dup1\n      calldatasize\n      sub\n      tag_143\n      swap2\n      swap1\n      dup2\n      add\n      swap1\n      jump(tag_144)\n    tag_143:\n      jump(tag_145)\n    tag_142:\n      mload(0x40)\n      tag_146\n      swap2\n      swap1\n      jump(tag_73)\n    tag_146:\n      mload(0x40)\n      dup1\n      swap2\n      sub\n      swap1\n      return\n        /* \"contracts/ddddd.sol\":1776:1816  uint256 public userPermissionCounter = 0 */\n    tag_26:\n      callvalue\n        /* \"--CODEGEN--\":8:17   */\n      dup1\n        /* \"--CODEGEN--\":5:7   */\n      iszero\n      tag_147\n      jumpi\n        /* \"--CODEGEN--\":30:31   */\n      0x0\n        /* \"--CODEGEN--\":27:28   */\n      dup1\n        /* \"--CODEGEN--\":20:32   */\n      revert\n        /* \"--CODEGEN--\":5:7   */\n    tag_147:\n        /* \"contracts/ddddd.sol\":1776:1816  uint256 public userPermissionCounter = 0 */\n      pop\n      tag_148\n      jump(tag_149)\n    tag_148:\n      mload(0x40)\n      tag_150\n      swap2\n      swap1\n      jump(tag_40)\n    tag_150:\n      mload(0x40)\n      dup1\n      swap2\n      sub\n      swap1\n      return\n        /* \"contracts/ddddd.sol\":8056:8402  function searchDoctor(address _address) public view returns(string, string, string, string, string, string, string) {\r... */\n    tag_27:\n      callvalue\n        /* \"--CODEGEN--\":8:17   */\n      dup1\n        /* \"--CODEGEN--\":5:7   */\n      iszero\n      tag_151\n      jumpi\n        /* \"--CODEGEN--\":30:31   */\n      0x0\n        /* \"--CODEGEN--\":27:28   */\n      dup1\n        /* \"--CODEGEN--\":20:32   */\n      revert\n        /* \"--CODEGEN--\":5:7   */\n    tag_151:\n        /* \"contracts/ddddd.sol\":8056:8402  function searchDoctor(address _address) public view returns(string, string, string, string, string, string, string) {\r... */\n      pop\n      tag_152\n      0x4\n      dup1\n      calldatasize\n      sub\n      tag_153\n      swap2\n      swap1\n      dup2\n      add\n      swap1\n      jump(tag_44)\n    tag_153:\n      jump(tag_154)\n    tag_152:\n      mload(0x40)\n      tag_155\n      swap8\n      swap7\n      swap6\n      swap5\n      swap4\n      swap3\n      swap2\n      swap1\n      jump(tag_156)\n    tag_155:\n      mload(0x40)\n      dup1\n      swap2\n      sub\n      swap1\n      return\n        /* \"contracts/ddddd.sol\":6524:6776  function givePermissionByMoH(address _address1, address _address2) public returns(bool success) {\r... */\n    tag_28:\n      callvalue\n        /* \"--CODEGEN--\":8:17   */\n      dup1\n        /* \"--CODEGEN--\":5:7   */\n      iszero\n      tag_157\n      jumpi\n        /* \"--CODEGEN--\":30:31   */\n      0x0\n        /* \"--CODEGEN--\":27:28   */\n      dup1\n        /* \"--CODEGEN--\":20:32   */\n      revert\n        /* \"--CODEGEN--\":5:7   */\n    tag_157:\n        /* \"contracts/ddddd.sol\":6524:6776  function givePermissionByMoH(address _address1, address _address2) public returns(bool success) {\r... */\n      pop\n      tag_158\n      0x4\n      dup1\n      calldatasize\n      sub\n      tag_159\n      swap2\n      swap1\n      dup2\n      add\n      swap1\n      jump(tag_144)\n    tag_159:\n      jump(tag_160)\n    tag_158:\n      mload(0x40)\n      tag_161\n      swap2\n      swap1\n      jump(tag_73)\n    tag_161:\n      mload(0x40)\n      dup1\n      swap2\n      sub\n      swap1\n      return\n        /* \"contracts/ddddd.sol\":8740:8850  function getMoHPermissionCounter() public view returns(uint256) {\r... */\n    tag_29:\n      callvalue\n        /* \"--CODEGEN--\":8:17   */\n      dup1\n        /* \"--CODEGEN--\":5:7   */\n      iszero\n      tag_162\n      jumpi\n        /* \"--CODEGEN--\":30:31   */\n      0x0\n        /* \"--CODEGEN--\":27:28   */\n      dup1\n        /* \"--CODEGEN--\":20:32   */\n      revert\n        /* \"--CODEGEN--\":5:7   */\n    tag_162:\n        /* \"contracts/ddddd.sol\":8740:8850  function getMoHPermissionCounter() public view returns(uint256) {\r... */\n      pop\n      tag_163\n      jump(tag_164)\n    tag_163:\n      mload(0x40)\n      tag_165\n      swap2\n      swap1\n      jump(tag_40)\n    tag_165:\n      mload(0x40)\n      dup1\n      swap2\n      sub\n      swap1\n      return\n        /* \"contracts/ddddd.sol\":1154:1186  address[] public vaccinationList */\n    tag_30:\n      callvalue\n        /* \"--CODEGEN--\":8:17   */\n      dup1\n        /* \"--CODEGEN--\":5:7   */\n      iszero\n      tag_166\n      jumpi\n        /* \"--CODEGEN--\":30:31   */\n      0x0\n        /* \"--CODEGEN--\":27:28   */\n      dup1\n        /* \"--CODEGEN--\":20:32   */\n      revert\n        /* \"--CODEGEN--\":5:7   */\n    tag_166:\n        /* \"contracts/ddddd.sol\":1154:1186  address[] public vaccinationList */\n      pop\n      tag_167\n      0x4\n      dup1\n      calldatasize\n      sub\n      tag_168\n      swap2\n      swap1\n      dup2\n      add\n      swap1\n      jump(tag_55)\n    tag_168:\n      jump(tag_169)\n    tag_167:\n      mload(0x40)\n      tag_170\n      swap2\n      swap1\n      jump(tag_58)\n    tag_170:\n      mload(0x40)\n      dup1\n      swap2\n      sub\n      swap1\n      return\n        /* \"contracts/ddddd.sol\":7182:7267  function getUsers() public view returns(address[]) {\r... */\n    tag_33:\n        /* \"contracts/ddddd.sol\":7222:7231  address[] */\n      0x60\n        /* \"contracts/ddddd.sol\":7251:7259  userList */\n      0x1\n        /* \"contracts/ddddd.sol\":7244:7259  return userList */\n      dup1\n      sload\n      dup1\n      0x20\n      mul\n      0x20\n      add\n      mload(0x40)\n      swap1\n      dup2\n      add\n      0x40\n      mstore\n      dup1\n      swap3\n      swap2\n      swap1\n      dup2\n      dup2\n      mstore\n      0x20\n      add\n      dup3\n      dup1\n      sload\n      dup1\n      iszero\n      tag_172\n      jumpi\n      0x20\n      mul\n      dup3\n      add\n      swap2\n      swap1\n      0x0\n      mstore\n      keccak256(0x0, 0x20)\n      swap1\n    tag_173:\n      dup2\n      0x0\n      swap1\n      sload\n      swap1\n      0x100\n      exp\n      swap1\n      div\n      0xffffffffffffffffffffffffffffffffffffffff\n      and\n      0xffffffffffffffffffffffffffffffffffffffff\n      and\n      dup2\n      mstore\n      0x20\n      add\n      swap1\n      0x1\n      add\n      swap1\n      dup1\n      dup4\n      gt\n      tag_173\n      jumpi\n    tag_172:\n      pop\n      pop\n      pop\n      pop\n      pop\n      swap1\n      pop\n        /* \"contracts/ddddd.sol\":7182:7267  function getUsers() public view returns(address[]) {\r... */\n      swap1\n      jump\t// out\n        /* \"contracts/ddddd.sol\":8620:8732  function getUserPermissionCounter() public view returns(uint256) {\r... */\n    tag_38:\n        /* \"contracts/ddddd.sol\":8676:8683  uint256 */\n      0x0\n        /* \"contracts/ddddd.sol\":8703:8724  userPermissionCounter */\n      sload(0xe)\n        /* \"contracts/ddddd.sol\":8696:8724  return userPermissionCounter */\n      swap1\n      pop\n        /* \"contracts/ddddd.sol\":8620:8732  function getUserPermissionCounter() public view returns(uint256) {\r... */\n      swap1\n      jump\t// out\n        /* \"contracts/ddddd.sol\":7378:7735  function searchUserformation(address _address) public view returns(string, string, string, string, string, string, address) {\r... */\n    tag_45:\n        /* \"contracts/ddddd.sol\":7445:7451  string */\n      0x60\n        /* \"contracts/ddddd.sol\":7453:7459  string */\n      dup1\n        /* \"contracts/ddddd.sol\":7461:7467  string */\n      0x60\n        /* \"contracts/ddddd.sol\":7469:7475  string */\n      dup1\n        /* \"contracts/ddddd.sol\":7477:7483  string */\n      0x60\n        /* \"contracts/ddddd.sol\":7485:7491  string */\n      dup1\n        /* \"contracts/ddddd.sol\":7493:7500  address */\n      0x0\n        /* \"contracts/ddddd.sol\":7565:7570  var u */\n      dup1\n        /* \"contracts/ddddd.sol\":7521:7531  isApproved */\n      0x7\n        /* \"contracts/ddddd.sol\":7521:7541  isApproved[_address] */\n      0x0\n        /* \"contracts/ddddd.sol\":7532:7540  _address */\n      dup11\n        /* \"contracts/ddddd.sol\":7521:7541  isApproved[_address] */\n      0xffffffffffffffffffffffffffffffffffffffff\n      and\n      0xffffffffffffffffffffffffffffffffffffffff\n      and\n      dup2\n      mstore\n      0x20\n      add\n      swap1\n      dup2\n      mstore\n      0x20\n      add\n      0x0\n      keccak256\n        /* \"contracts/ddddd.sol\":7521:7553  isApproved[_address][msg.sender] */\n      0x0\n        /* \"contracts/ddddd.sol\":7542:7552  msg.sender */\n      caller\n        /* \"contracts/ddddd.sol\":7521:7553  isApproved[_address][msg.sender] */\n      0xffffffffffffffffffffffffffffffffffffffff\n      and\n      0xffffffffffffffffffffffffffffffffffffffff\n      and\n      dup2\n      mstore\n      0x20\n      add\n      swap1\n      dup2\n      mstore\n      0x20\n      add\n      0x0\n      keccak256\n      0x0\n      swap1\n      sload\n      swap1\n      0x100\n      exp\n      swap1\n      div\n      0xff\n      and\n        /* \"contracts/ddddd.sol\":7513:7554  require(isApproved[_address][msg.sender]) */\n      iszero\n      iszero\n      tag_176\n      jumpi\n      0x0\n      dup1\n      revert\n    tag_176:\n        /* \"contracts/ddddd.sol\":7573:7577  user */\n      0x4\n        /* \"contracts/ddddd.sol\":7573:7587  user[_address] */\n      0x0\n        /* \"contracts/ddddd.sol\":7578:7586  _address */\n      dup11\n        /* \"contracts/ddddd.sol\":7573:7587  user[_address] */\n      0xffffffffffffffffffffffffffffffffffffffff\n      and\n      0xffffffffffffffffffffffffffffffffffffffff\n      and\n      dup2\n      mstore\n      0x20\n      add\n      swap1\n      dup2\n      mstore\n      0x20\n      add\n      0x0\n      keccak256\n        /* \"contracts/ddddd.sol\":7565:7587  var u = user[_address] */\n      swap1\n      pop\n        /* \"contracts/ddddd.sol\":7606:7607  u */\n      dup1\n        /* \"contracts/ddddd.sol\":7606:7613  u.uaeId */\n      0x0\n      add\n        /* \"contracts/ddddd.sol\":7615:7616  u */\n      dup2\n        /* \"contracts/ddddd.sol\":7615:7621  u.name */\n      0x1\n      add\n        /* \"contracts/ddddd.sol\":7623:7624  u */\n      dup3\n        /* \"contracts/ddddd.sol\":7623:7630  u.phone */\n      0x2\n      add\n        /* \"contracts/ddddd.sol\":7632:7633  u */\n      dup4\n        /* \"contracts/ddddd.sol\":7632:7640  u.gender */\n      0x3\n      add\n        /* \"contracts/ddddd.sol\":7642:7643  u */\n      dup5\n        /* \"contracts/ddddd.sol\":7642:7647  u.dob */\n      0x4\n      add\n        /* \"contracts/ddddd.sol\":7649:7650  u */\n      dup6\n        /* \"contracts/ddddd.sol\":7649:7655  u.addr */\n      0x5\n      add\n        /* \"contracts/ddddd.sol\":7657:7658  u */\n      dup7\n        /* \"contracts/ddddd.sol\":7657:7667  u.eAddress */\n      0x9\n      add\n      0x0\n      swap1\n      sload\n      swap1\n      0x100\n      exp\n      swap1\n      div\n      0xffffffffffffffffffffffffffffffffffffffff\n      and\n        /* \"contracts/ddddd.sol\":7598:7668  return (u.uaeId, u.name, u.phone, u.gender, u.dob, u.addr, u.eAddress) */\n      dup7\n      dup1\n      sload\n      0x1\n      dup2\n      0x1\n      and\n      iszero\n      0x100\n      mul\n      sub\n      and\n      0x2\n      swap1\n      div\n      dup1\n      0x1f\n      add\n      0x20\n      dup1\n      swap2\n      div\n      mul\n      0x20\n      add\n      mload(0x40)\n      swap1\n      dup2\n      add\n      0x40\n      mstore\n      dup1\n      swap3\n      swap2\n      swap1\n      dup2\n      dup2\n      mstore\n      0x20\n      add\n      dup3\n      dup1\n      sload\n      0x1\n      dup2\n      0x1\n      and\n      iszero\n      0x100\n      mul\n      sub\n      and\n      0x2\n      swap1\n      div\n      dup1\n      iszero\n      tag_177\n      jumpi\n      dup1\n      0x1f\n      lt\n      tag_178\n      jumpi\n      0x100\n      dup1\n      dup4\n      sload\n      div\n      mul\n      dup4\n      mstore\n      swap2\n      0x20\n      add\n      swap2\n      jump(tag_177)\n    tag_178:\n      dup3\n      add\n      swap2\n      swap1\n      0x0\n      mstore\n      keccak256(0x0, 0x20)\n      swap1\n    tag_179:\n      dup2\n      sload\n      dup2\n      mstore\n      swap1\n      0x1\n      add\n      swap1\n      0x20\n      add\n      dup1\n      dup4\n      gt\n      tag_179\n      jumpi\n      dup3\n      swap1\n      sub\n      0x1f\n      and\n      dup3\n      add\n      swap2\n    tag_177:\n      pop\n      pop\n      pop\n      pop\n      pop\n      swap7\n      pop\n      dup6\n      dup1\n      sload\n      0x1\n      dup2\n      0x1\n      and\n      iszero\n      0x100\n      mul\n      sub\n      and\n      0x2\n      swap1\n      div\n      dup1\n      0x1f\n      add\n      0x20\n      dup1\n      swap2\n      div\n      mul\n      0x20\n      add\n      mload(0x40)\n      swap1\n      dup2\n      add\n      0x40\n      mstore\n      dup1\n      swap3\n      swap2\n      swap1\n      dup2\n      dup2\n      mstore\n      0x20\n      add\n      dup3\n      dup1\n      sload\n      0x1\n      dup2\n      0x1\n      and\n      iszero\n      0x100\n      mul\n      sub\n      and\n      0x2\n      swap1\n      div\n      dup1\n      iszero\n      tag_180\n      jumpi\n      dup1\n      0x1f\n      lt\n      tag_181\n      jumpi\n      0x100\n      dup1\n      dup4\n      sload\n      div\n      mul\n      dup4\n      mstore\n      swap2\n      0x20\n      add\n      swap2\n      jump(tag_180)\n    tag_181:\n      dup3\n      add\n      swap2\n      swap1\n      0x0\n      mstore\n      keccak256(0x0, 0x20)\n      swap1\n    tag_182:\n      dup2\n      sload\n      dup2\n      mstore\n      swap1\n      0x1\n      add\n      swap1\n      0x20\n      add\n      dup1\n      dup4\n      gt\n      tag_182\n      jumpi\n      dup3\n      swap1\n      sub\n      0x1f\n      and\n      dup3\n      add\n      swap2\n    tag_180:\n      pop\n      pop\n      pop\n      pop\n      pop\n      swap6\n      pop\n      dup5\n      dup1\n      sload\n      0x1\n      dup2\n      0x1\n      and\n      iszero\n      0x100\n      mul\n      sub\n      and\n      0x2\n      swap1\n      div\n      dup1\n      0x1f\n      add\n      0x20\n      dup1\n      swap2\n      div\n      mul\n      0x20\n      add\n      mload(0x40)\n      swap1\n      dup2\n      add\n      0x40\n      mstore\n      dup1\n      swap3\n      swap2\n      swap1\n      dup2\n      dup2\n      mstore\n      0x20\n      add\n      dup3\n      dup1\n      sload\n      0x1\n      dup2\n      0x1\n      and\n      iszero\n      0x100\n      mul\n      sub\n      and\n      0x2\n      swap1\n      div\n      dup1\n      iszero\n      tag_183\n      jumpi\n      dup1\n      0x1f\n      lt\n      tag_184\n      jumpi\n      0x100\n      dup1\n      dup4\n      sload\n      div\n      mul\n      dup4\n      mstore\n      swap2\n      0x20\n      add\n      swap2\n      jump(tag_183)\n    tag_184:\n      dup3\n      add\n      swap2\n      swap1\n      0x0\n      mstore\n      keccak256(0x0, 0x20)\n      swap1\n    tag_185:\n      dup2\n      sload\n      dup2\n      mstore\n      swap1\n      0x1\n      add\n      swap1\n      0x20\n      add\n      dup1\n      dup4\n      gt\n      tag_185\n      jumpi\n      dup3\n      swap1\n      sub\n      0x1f\n      and\n      dup3\n      add\n      swap2\n    tag_183:\n      pop\n      pop\n      pop\n      pop\n      pop\n      swap5\n      pop\n      dup4\n      dup1\n      sload\n      0x1\n      dup2\n      0x1\n      and\n      iszero\n      0x100\n      mul\n      sub\n      and\n      0x2\n      swap1\n      div\n      dup1\n      0x1f\n      add\n      0x20\n      dup1\n      swap2\n      div\n      mul\n      0x20\n      add\n      mload(0x40)\n      swap1\n      dup2\n      add\n      0x40\n      mstore\n      dup1\n      swap3\n      swap2\n      swap1\n      dup2\n      dup2\n      mstore\n      0x20\n      add\n      dup3\n      dup1\n      sload\n      0x1\n      dup2\n      0x1\n      and\n      iszero\n      0x100\n      mul\n      sub\n      and\n      0x2\n      swap1\n      div\n      dup1\n      iszero\n      tag_186\n      jumpi\n      dup1\n      0x1f\n      lt\n      tag_187\n      jumpi\n      0x100\n      dup1\n      dup4\n      sload\n      div\n      mul\n      dup4\n      mstore\n      swap2\n      0x20\n      add\n      swap2\n      jump(tag_186)\n    tag_187:\n      dup3\n      add\n      swap2\n      swap1\n      0x0\n      mstore\n      keccak256(0x0, 0x20)\n      swap1\n    tag_188:\n      dup2\n      sload\n      dup2\n      mstore\n      swap1\n      0x1\n      add\n      swap1\n      0x20\n      add\n      dup1\n      dup4\n      gt\n      tag_188\n      jumpi\n      dup3\n      swap1\n      sub\n      0x1f\n      and\n      dup3\n      add\n      swap2\n    tag_186:\n      pop\n      pop\n      pop\n      pop\n      pop\n      swap4\n      pop\n      dup3\n      dup1\n      sload\n      0x1\n      dup2\n      0x1\n      and\n      iszero\n      0x100\n      mul\n      sub\n      and\n      0x2\n      swap1\n      div\n      dup1\n      0x1f\n      add\n      0x20\n      dup1\n      swap2\n      div\n      mul\n      0x20\n      add\n      mload(0x40)\n      swap1\n      dup2\n      add\n      0x40\n      mstore\n      dup1\n      swap3\n      swap2\n      swap1\n      dup2\n      dup2\n      mstore\n      0x20\n      add\n      dup3\n      dup1\n      sload\n      0x1\n      dup2\n      0x1\n      and\n      iszero\n      0x100\n      mul\n      sub\n      and\n      0x2\n      swap1\n      div\n      dup1\n      iszero\n      tag_189\n      jumpi\n      dup1\n      0x1f\n      lt\n      tag_190\n      jumpi\n      0x100\n      dup1\n      dup4\n      sload\n      div\n      mul\n      dup4\n      mstore\n      swap2\n      0x20\n      add\n      swap2\n      jump(tag_189)\n    tag_190:\n      dup3\n      add\n      swap2\n      swap1\n      0x0\n      mstore\n      keccak256(0x0, 0x20)\n      swap1\n    tag_191:\n      dup2\n      sload\n      dup2\n      mstore\n      swap1\n      0x1\n      add\n      swap1\n      0x20\n      add\n      dup1\n      dup4\n      gt\n      tag_191\n      jumpi\n      dup3\n      swap1\n      sub\n      0x1f\n      and\n      dup3\n      add\n      swap2\n    tag_189:\n      pop\n      pop\n      pop\n      pop\n      pop\n      swap3\n      pop\n      dup2\n      dup1\n      sload\n      0x1\n      dup2\n      0x1\n      and\n      iszero\n      0x100\n      mul\n      sub\n      and\n      0x2\n      swap1\n      div\n      dup1\n      0x1f\n      add\n      0x20\n      dup1\n      swap2\n      div\n      mul\n      0x20\n      add\n      mload(0x40)\n      swap1\n      dup2\n      add\n      0x40\n      mstore\n      dup1\n      swap3\n      swap2\n      swap1\n      dup2\n      dup2\n      mstore\n      0x20\n      add\n      dup3\n      dup1\n      sload\n      0x1\n      dup2\n      0x1\n      and\n      iszero\n      0x100\n      mul\n      sub\n      and\n      0x2\n      swap1\n      div\n      dup1\n      iszero\n      tag_192\n      jumpi\n      dup1\n      0x1f\n      lt\n      tag_193\n      jumpi\n      0x100\n      dup1\n      dup4\n      sload\n      div\n      mul\n      dup4\n      mstore\n      swap2\n      0x20\n      add\n      swap2\n      jump(tag_192)\n    tag_193:\n      dup3\n      add\n      swap2\n      swap1\n      0x0\n      mstore\n      keccak256(0x0, 0x20)\n      swap1\n    tag_194:\n      dup2\n      sload\n      dup2\n      mstore\n      swap1\n      0x1\n      add\n      swap1\n      0x20\n      add\n      dup1\n      dup4\n      gt\n      tag_194\n      jumpi\n      dup3\n      swap1\n      sub\n      0x1f\n      and\n      dup3\n      add\n      swap2\n    tag_192:\n      pop\n      pop\n      pop\n      pop\n      pop\n      swap2\n      pop\n      swap8\n      pop\n      swap8\n      pop\n      swap8\n      pop\n      swap8\n      pop\n      swap8\n      pop\n      swap8\n      pop\n      swap8\n      pop\n        /* \"contracts/ddddd.sol\":7378:7735  function searchUserformation(address _address) public view returns(string, string, string, string, string, string, address) {\r... */\n      pop\n      swap2\n      swap4\n      swap6\n      swap8\n      swap1\n      swap3\n      swap5\n      swap7\n      pop\n      jump\t// out\n        /* \"contracts/ddddd.sol\":1658:1686  uint256 public userCount = 0 */\n    tag_50:\n      sload(0xb)\n      dup2\n      jump\t// out\n        /* \"contracts/ddddd.sol\":1120:1147  address[] public doctorList */\n    tag_56:\n      0x2\n      dup2\n      dup2\n      sload\n      dup2\n      lt\n      iszero\n      iszero\n      tag_195\n      jumpi\n      invalid\n    tag_195:\n      swap1\n      0x0\n      mstore\n      keccak256(0x0, 0x20)\n      add\n      0x0\n      swap2\n      pop\n      sload\n      swap1\n      0x100\n      exp\n      swap1\n      div\n      0xffffffffffffffffffffffffffffffffffffffff\n      and\n      dup2\n      jump\t// out\n        /* \"contracts/ddddd.sol\":4597:5116  function editDoctor(address _doctor, string _uaeId, string _name, string _phone, string _gender, string _dob, string _qualification, string _major) public {\r... */\n    tag_63:\n        /* \"contracts/ddddd.sol\":4843:4848  var d */\n      0x0\n        /* \"contracts/ddddd.sol\":4785:4794  mohAdress */\n      0x10\n      0x0\n      swap1\n      sload\n      swap1\n      0x100\n      exp\n      swap1\n      div\n      0xffffffffffffffffffffffffffffffffffffffff\n      and\n        /* \"contracts/ddddd.sol\":4771:4794  msg.sender == mohAdress */\n      0xffffffffffffffffffffffffffffffffffffffff\n      and\n        /* \"contracts/ddddd.sol\":4771:4781  msg.sender */\n      caller\n        /* \"contracts/ddddd.sol\":4771:4794  msg.sender == mohAdress */\n      0xffffffffffffffffffffffffffffffffffffffff\n      and\n      eq\n        /* \"contracts/ddddd.sol\":4763:4795  require(msg.sender == mohAdress) */\n      iszero\n      iszero\n      tag_198\n      jumpi\n      0x0\n      dup1\n      revert\n    tag_198:\n        /* \"contracts/ddddd.sol\":4814:4822  isDoctor */\n      0x9\n        /* \"contracts/ddddd.sol\":4814:4831  isDoctor[_doctor] */\n      0x0\n        /* \"contracts/ddddd.sol\":4823:4830  _doctor */\n      dup11\n        /* \"contracts/ddddd.sol\":4814:4831  isDoctor[_doctor] */\n      0xffffffffffffffffffffffffffffffffffffffff\n      and\n      0xffffffffffffffffffffffffffffffffffffffff\n      and\n      dup2\n      mstore\n      0x20\n      add\n      swap1\n      dup2\n      mstore\n      0x20\n      add\n      0x0\n      keccak256\n      0x0\n      swap1\n      sload\n      swap1\n      0x100\n      exp\n      swap1\n      div\n      0xff\n      and\n        /* \"contracts/ddddd.sol\":4806:4832  require(isDoctor[_doctor]) */\n      iszero\n      iszero\n      tag_199\n      jumpi\n      0x0\n      dup1\n      revert\n    tag_199:\n        /* \"contracts/ddddd.sol\":4851:4857  doctor */\n      0x5\n        /* \"contracts/ddddd.sol\":4851:4866  doctor[_doctor] */\n      0x0\n        /* \"contracts/ddddd.sol\":4858:4865  _doctor */\n      dup11\n        /* \"contracts/ddddd.sol\":4851:4866  doctor[_doctor] */\n      0xffffffffffffffffffffffffffffffffffffffff\n      and\n      0xffffffffffffffffffffffffffffffffffffffff\n      and\n      dup2\n      mstore\n      0x20\n      add\n      swap1\n      dup2\n      mstore\n      0x20\n      add\n      0x0\n      keccak256\n        /* \"contracts/ddddd.sol\":4843:4866  var d = doctor[_doctor] */\n      swap1\n      pop\n        /* \"contracts/ddddd.sol\":4897:4903  _uaeId */\n      dup8\n        /* \"contracts/ddddd.sol\":4887:4888  d */\n      dup2\n        /* \"contracts/ddddd.sol\":4887:4894  d.uaeId */\n      0x0\n      add\n        /* \"contracts/ddddd.sol\":4887:4903  d.uaeId = _uaeId */\n      swap1\n      dup1\n      mload\n      swap1\n      0x20\n      add\n      swap1\n      tag_200\n      swap3\n      swap2\n      swap1\n      jump\t// in(tag_201)\n    tag_200:\n      pop\n        /* \"contracts/ddddd.sol\":4923:4928  _name */\n      dup7\n        /* \"contracts/ddddd.sol\":4914:4915  d */\n      dup2\n        /* \"contracts/ddddd.sol\":4914:4920  d.name */\n      0x1\n      add\n        /* \"contracts/ddddd.sol\":4914:4928  d.name = _name */\n      swap1\n      dup1\n      mload\n      swap1\n      0x20\n      add\n      swap1\n      tag_202\n      swap3\n      swap2\n      swap1\n      jump\t// in(tag_201)\n    tag_202:\n      pop\n        /* \"contracts/ddddd.sol\":4949:4955  _phone */\n      dup6\n        /* \"contracts/ddddd.sol\":4939:4940  d */\n      dup2\n        /* \"contracts/ddddd.sol\":4939:4946  d.phone */\n      0x2\n      add\n        /* \"contracts/ddddd.sol\":4939:4955  d.phone = _phone */\n      swap1\n      dup1\n      mload\n      swap1\n      0x20\n      add\n      swap1\n      tag_203\n      swap3\n      swap2\n      swap1\n      jump\t// in(tag_201)\n    tag_203:\n      pop\n        /* \"contracts/ddddd.sol\":4977:4984  _gender */\n      dup5\n        /* \"contracts/ddddd.sol\":4966:4967  d */\n      dup2\n        /* \"contracts/ddddd.sol\":4966:4974  d.gender */\n      0x3\n      add\n        /* \"contracts/ddddd.sol\":4966:4984  d.gender = _gender */\n      swap1\n      dup1\n      mload\n      swap1\n      0x20\n      add\n      swap1\n      tag_204\n      swap3\n      swap2\n      swap1\n      jump\t// in(tag_201)\n    tag_204:\n      pop\n        /* \"contracts/ddddd.sol\":5003:5007  _dob */\n      dup4\n        /* \"contracts/ddddd.sol\":4995:4996  d */\n      dup2\n        /* \"contracts/ddddd.sol\":4995:5000  d.dob */\n      0x4\n      add\n        /* \"contracts/ddddd.sol\":4995:5007  d.dob = _dob */\n      swap1\n      dup1\n      mload\n      swap1\n      0x20\n      add\n      swap1\n      tag_205\n      swap3\n      swap2\n      swap1\n      jump\t// in(tag_201)\n    tag_205:\n      pop\n        /* \"contracts/ddddd.sol\":5036:5050  _qualification */\n      dup3\n        /* \"contracts/ddddd.sol\":5018:5019  d */\n      dup2\n        /* \"contracts/ddddd.sol\":5018:5033  d.qualification */\n      0x6\n      add\n        /* \"contracts/ddddd.sol\":5018:5050  d.qualification = _qualification */\n      swap1\n      dup1\n      mload\n      swap1\n      0x20\n      add\n      swap1\n      tag_206\n      swap3\n      swap2\n      swap1\n      jump\t// in(tag_201)\n    tag_206:\n      pop\n        /* \"contracts/ddddd.sol\":5071:5077  _major */\n      dup2\n        /* \"contracts/ddddd.sol\":5061:5062  d */\n      dup2\n        /* \"contracts/ddddd.sol\":5061:5068  d.major */\n      0x7\n      add\n        /* \"contracts/ddddd.sol\":5061:5077  d.major = _major */\n      swap1\n      dup1\n      mload\n      swap1\n      0x20\n      add\n      swap1\n      tag_207\n      swap3\n      swap2\n      swap1\n      jump\t// in(tag_201)\n    tag_207:\n      pop\n        /* \"contracts/ddddd.sol\":5101:5108  _doctor */\n      dup9\n        /* \"contracts/ddddd.sol\":5088:5089  d */\n      dup2\n        /* \"contracts/ddddd.sol\":5088:5098  d.eAddress */\n      0x8\n      add\n      0x0\n        /* \"contracts/ddddd.sol\":5088:5108  d.eAddress = _doctor */\n      0x100\n      exp\n      dup2\n      sload\n      dup2\n      0xffffffffffffffffffffffffffffffffffffffff\n      mul\n      not\n      and\n      swap1\n      dup4\n      0xffffffffffffffffffffffffffffffffffffffff\n      and\n      mul\n      or\n      swap1\n      sstore\n      pop\n        /* \"contracts/ddddd.sol\":4597:5116  function editDoctor(address _doctor, string _uaeId, string _name, string _phone, string _gender, string _dob, string _qualification, string _major) public {\r... */\n      pop\n      pop\n      pop\n      pop\n      pop\n      pop\n      pop\n      pop\n      pop\n      jump\t// out\n        /* \"contracts/ddddd.sol\":3828:4589  function doctorRegistration(address _doctor, string _uaeId, string _name, string _phone, string _gender, string _dob, string _qualification, string _major) public {\r... */\n    tag_67:\n        /* \"contracts/ddddd.sol\":4083:4088  var d */\n      0x0\n        /* \"contracts/ddddd.sol\":4024:4033  mohAdress */\n      0x10\n      0x0\n      swap1\n      sload\n      swap1\n      0x100\n      exp\n      swap1\n      div\n      0xffffffffffffffffffffffffffffffffffffffff\n      and\n        /* \"contracts/ddddd.sol\":4010:4033  msg.sender == mohAdress */\n      0xffffffffffffffffffffffffffffffffffffffff\n      and\n        /* \"contracts/ddddd.sol\":4010:4020  msg.sender */\n      caller\n        /* \"contracts/ddddd.sol\":4010:4033  msg.sender == mohAdress */\n      0xffffffffffffffffffffffffffffffffffffffff\n      and\n      eq\n        /* \"contracts/ddddd.sol\":4002:4034  require(msg.sender == mohAdress) */\n      iszero\n      iszero\n      tag_209\n      jumpi\n      0x0\n      dup1\n      revert\n    tag_209:\n        /* \"contracts/ddddd.sol\":4054:4062  isDoctor */\n      0x9\n        /* \"contracts/ddddd.sol\":4054:4071  isDoctor[_doctor] */\n      0x0\n        /* \"contracts/ddddd.sol\":4063:4070  _doctor */\n      dup11\n        /* \"contracts/ddddd.sol\":4054:4071  isDoctor[_doctor] */\n      0xffffffffffffffffffffffffffffffffffffffff\n      and\n      0xffffffffffffffffffffffffffffffffffffffff\n      and\n      dup2\n      mstore\n      0x20\n      add\n      swap1\n      dup2\n      mstore\n      0x20\n      add\n      0x0\n      keccak256\n      0x0\n      swap1\n      sload\n      swap1\n      0x100\n      exp\n      swap1\n      div\n      0xff\n      and\n        /* \"contracts/ddddd.sol\":4053:4071  !isDoctor[_doctor] */\n      iszero\n        /* \"contracts/ddddd.sol\":4045:4072  require(!isDoctor[_doctor]) */\n      iszero\n      iszero\n      tag_210\n      jumpi\n      0x0\n      dup1\n      revert\n    tag_210:\n        /* \"contracts/ddddd.sol\":4091:4097  doctor */\n      0x5\n        /* \"contracts/ddddd.sol\":4091:4106  doctor[_doctor] */\n      0x0\n        /* \"contracts/ddddd.sol\":4098:4105  _doctor */\n      dup11\n        /* \"contracts/ddddd.sol\":4091:4106  doctor[_doctor] */\n      0xffffffffffffffffffffffffffffffffffffffff\n      and\n      0xffffffffffffffffffffffffffffffffffffffff\n      and\n      dup2\n      mstore\n      0x20\n      add\n      swap1\n      dup2\n      mstore\n      0x20\n      add\n      0x0\n      keccak256\n        /* \"contracts/ddddd.sol\":4083:4106  var d = doctor[_doctor] */\n      swap1\n      pop\n        /* \"contracts/ddddd.sol\":4137:4143  _uaeId */\n      dup8\n        /* \"contracts/ddddd.sol\":4127:4128  d */\n      dup2\n        /* \"contracts/ddddd.sol\":4127:4134  d.uaeId */\n      0x0\n      add\n        /* \"contracts/ddddd.sol\":4127:4143  d.uaeId = _uaeId */\n      swap1\n      dup1\n      mload\n      swap1\n      0x20\n      add\n      swap1\n      tag_211\n      swap3\n      swap2\n      swap1\n      jump\t// in(tag_201)\n    tag_211:\n      pop\n        /* \"contracts/ddddd.sol\":4163:4168  _name */\n      dup7\n        /* \"contracts/ddddd.sol\":4154:4155  d */\n      dup2\n        /* \"contracts/ddddd.sol\":4154:4160  d.name */\n      0x1\n      add\n        /* \"contracts/ddddd.sol\":4154:4168  d.name = _name */\n      swap1\n      dup1\n      mload\n      swap1\n      0x20\n      add\n      swap1\n      tag_212\n      swap3\n      swap2\n      swap1\n      jump\t// in(tag_201)\n    tag_212:\n      pop\n        /* \"contracts/ddddd.sol\":4189:4195  _phone */\n      dup6\n        /* \"contracts/ddddd.sol\":4179:4180  d */\n      dup2\n        /* \"contracts/ddddd.sol\":4179:4186  d.phone */\n      0x2\n      add\n        /* \"contracts/ddddd.sol\":4179:4195  d.phone = _phone */\n      swap1\n      dup1\n      mload\n      swap1\n      0x20\n      add\n      swap1\n      tag_213\n      swap3\n      swap2\n      swap1\n      jump\t// in(tag_201)\n    tag_213:\n      pop\n        /* \"contracts/ddddd.sol\":4217:4224  _gender */\n      dup5\n        /* \"contracts/ddddd.sol\":4206:4207  d */\n      dup2\n        /* \"contracts/ddddd.sol\":4206:4214  d.gender */\n      0x3\n      add\n        /* \"contracts/ddddd.sol\":4206:4224  d.gender = _gender */\n      swap1\n      dup1\n      mload\n      swap1\n      0x20\n      add\n      swap1\n      tag_214\n      swap3\n      swap2\n      swap1\n      jump\t// in(tag_201)\n    tag_214:\n      pop\n        /* \"contracts/ddddd.sol\":4243:4247  _dob */\n      dup4\n        /* \"contracts/ddddd.sol\":4235:4236  d */\n      dup2\n        /* \"contracts/ddddd.sol\":4235:4240  d.dob */\n      0x4\n      add\n        /* \"contracts/ddddd.sol\":4235:4247  d.dob = _dob */\n      swap1\n      dup1\n      mload\n      swap1\n      0x20\n      add\n      swap1\n      tag_215\n      swap3\n      swap2\n      swap1\n      jump\t// in(tag_201)\n    tag_215:\n      pop\n        /* \"contracts/ddddd.sol\":4276:4290  _qualification */\n      dup3\n        /* \"contracts/ddddd.sol\":4258:4259  d */\n      dup2\n        /* \"contracts/ddddd.sol\":4258:4273  d.qualification */\n      0x6\n      add\n        /* \"contracts/ddddd.sol\":4258:4290  d.qualification = _qualification */\n      swap1\n      dup1\n      mload\n      swap1\n      0x20\n      add\n      swap1\n      tag_216\n      swap3\n      swap2\n      swap1\n      jump\t// in(tag_201)\n    tag_216:\n      pop\n        /* \"contracts/ddddd.sol\":4311:4317  _major */\n      dup2\n        /* \"contracts/ddddd.sol\":4301:4302  d */\n      dup2\n        /* \"contracts/ddddd.sol\":4301:4308  d.major */\n      0x7\n      add\n        /* \"contracts/ddddd.sol\":4301:4317  d.major = _major */\n      swap1\n      dup1\n      mload\n      swap1\n      0x20\n      add\n      swap1\n      tag_217\n      swap3\n      swap2\n      swap1\n      jump\t// in(tag_201)\n    tag_217:\n      pop\n        /* \"contracts/ddddd.sol\":4341:4348  _doctor */\n      dup9\n        /* \"contracts/ddddd.sol\":4328:4329  d */\n      dup2\n        /* \"contracts/ddddd.sol\":4328:4338  d.eAddress */\n      0x8\n      add\n      0x0\n        /* \"contracts/ddddd.sol\":4328:4348  d.eAddress = _doctor */\n      0x100\n      exp\n      dup2\n      sload\n      dup2\n      0xffffffffffffffffffffffffffffffffffffffff\n      mul\n      not\n      and\n      swap1\n      dup4\n      0xffffffffffffffffffffffffffffffffffffffff\n      and\n      mul\n      or\n      swap1\n      sstore\n      pop\n        /* \"contracts/ddddd.sol\":4368:4383  block.timestamp */\n      timestamp\n        /* \"contracts/ddddd.sol\":4359:4360  d */\n      dup2\n        /* \"contracts/ddddd.sol\":4359:4365  d.date */\n      0x9\n      add\n        /* \"contracts/ddddd.sol\":4359:4383  d.date = block.timestamp */\n      dup2\n      swap1\n      sstore\n      pop\n        /* \"contracts/ddddd.sol\":4404:4414  doctorList */\n      0x2\n        /* \"contracts/ddddd.sol\":4420:4427  _doctor */\n      dup10\n        /* \"contracts/ddddd.sol\":4404:4428  doctorList.push(_doctor) */\n      swap1\n      dup1\n        /* \"--CODEGEN--\":39:40   */\n      0x1\n        /* \"--CODEGEN--\":33:36   */\n      dup2\n        /* \"--CODEGEN--\":27:37   */\n      sload\n        /* \"--CODEGEN--\":23:41   */\n      add\n        /* \"--CODEGEN--\":57:67   */\n      dup1\n        /* \"--CODEGEN--\":52:55   */\n      dup3\n        /* \"--CODEGEN--\":45:68   */\n      sstore\n        /* \"--CODEGEN--\":79:89   */\n      dup1\n        /* \"--CODEGEN--\":72:89   */\n      swap2\n      pop\n        /* \"--CODEGEN--\":0:93   */\n      pop\n        /* \"contracts/ddddd.sol\":4404:4428  doctorList.push(_doctor) */\n      swap1\n      0x1\n      dup3\n      sub\n      swap1\n      0x0\n      mstore\n      keccak256(0x0, 0x20)\n      add\n      0x0\n      swap1\n      swap2\n      swap3\n      swap1\n      swap2\n      swap1\n      swap2\n      0x100\n      exp\n      dup2\n      sload\n      dup2\n      0xffffffffffffffffffffffffffffffffffffffff\n      mul\n      not\n      and\n      swap1\n      dup4\n      0xffffffffffffffffffffffffffffffffffffffff\n      and\n      mul\n      or\n      swap1\n      sstore\n      pop\n      pop\n        /* \"contracts/ddddd.sol\":4459:4463  true */\n      0x1\n        /* \"contracts/ddddd.sol\":4439:4447  isDoctor */\n      0x9\n        /* \"contracts/ddddd.sol\":4439:4456  isDoctor[_doctor] */\n      0x0\n        /* \"contracts/ddddd.sol\":4448:4455  _doctor */\n      dup12\n        /* \"contracts/ddddd.sol\":4439:4456  isDoctor[_doctor] */\n      0xffffffffffffffffffffffffffffffffffffffff\n      and\n      0xffffffffffffffffffffffffffffffffffffffff\n      and\n      dup2\n      mstore\n      0x20\n      add\n      swap1\n      dup2\n      mstore\n      0x20\n      add\n      0x0\n      keccak256\n      0x0\n        /* \"contracts/ddddd.sol\":4439:4463  isDoctor[_doctor] = true */\n      0x100\n      exp\n      dup2\n      sload\n      dup2\n      0xff\n      mul\n      not\n      and\n      swap1\n      dup4\n      iszero\n      iszero\n      mul\n      or\n      swap1\n      sstore\n      pop\n        /* \"contracts/ddddd.sol\":4505:4509  true */\n      0x1\n        /* \"contracts/ddddd.sol\":4474:4484  isApproved */\n      0x7\n        /* \"contracts/ddddd.sol\":4474:4493  isApproved[_doctor] */\n      0x0\n        /* \"contracts/ddddd.sol\":4485:4492  _doctor */\n      dup12\n        /* \"contracts/ddddd.sol\":4474:4493  isApproved[_doctor] */\n      0xffffffffffffffffffffffffffffffffffffffff\n      and\n      0xffffffffffffffffffffffffffffffffffffffff\n      and\n      dup2\n      mstore\n      0x20\n      add\n      swap1\n      dup2\n      mstore\n      0x20\n      add\n      0x0\n      keccak256\n        /* \"contracts/ddddd.sol\":4474:4502  isApproved[_doctor][_doctor] */\n      0x0\n        /* \"contracts/ddddd.sol\":4494:4501  _doctor */\n      dup12\n        /* \"contracts/ddddd.sol\":4474:4502  isApproved[_doctor][_doctor] */\n      0xffffffffffffffffffffffffffffffffffffffff\n      and\n      0xffffffffffffffffffffffffffffffffffffffff\n      and\n      dup2\n      mstore\n      0x20\n      add\n      swap1\n      dup2\n      mstore\n      0x20\n      add\n      0x0\n      keccak256\n      0x0\n        /* \"contracts/ddddd.sol\":4474:4509  isApproved[_doctor][_doctor] = true */\n      0x100\n      exp\n      dup2\n      sload\n      dup2\n      0xff\n      mul\n      not\n      and\n      swap1\n      dup4\n      iszero\n      iszero\n      mul\n      or\n      swap1\n      sstore\n      pop\n        /* \"contracts/ddddd.sol\":4553:4557  true */\n      0x1\n        /* \"contracts/ddddd.sol\":4520:4530  isApproved */\n      0x7\n        /* \"contracts/ddddd.sol\":4520:4539  isApproved[_doctor] */\n      0x0\n        /* \"contracts/ddddd.sol\":4531:4538  _doctor */\n      dup12\n        /* \"contracts/ddddd.sol\":4520:4539  isApproved[_doctor] */\n      0xffffffffffffffffffffffffffffffffffffffff\n      and\n      0xffffffffffffffffffffffffffffffffffffffff\n      and\n      dup2\n      mstore\n      0x20\n      add\n      swap1\n      dup2\n      mstore\n      0x20\n      add\n      0x0\n      keccak256\n        /* \"contracts/ddddd.sol\":4520:4550  isApproved[_doctor][mohAdress] */\n      0x0\n        /* \"contracts/ddddd.sol\":4540:4549  mohAdress */\n      0x10\n      0x0\n      swap1\n      sload\n      swap1\n      0x100\n      exp\n      swap1\n      div\n      0xffffffffffffffffffffffffffffffffffffffff\n      and\n        /* \"contracts/ddddd.sol\":4520:4550  isApproved[_doctor][mohAdress] */\n      0xffffffffffffffffffffffffffffffffffffffff\n      and\n      0xffffffffffffffffffffffffffffffffffffffff\n      and\n      dup2\n      mstore\n      0x20\n      add\n      swap1\n      dup2\n      mstore\n      0x20\n      add\n      0x0\n      keccak256\n      0x0\n        /* \"contracts/ddddd.sol\":4520:4557  isApproved[_doctor][mohAdress] = true */\n      0x100\n      exp\n      dup2\n      sload\n      dup2\n      0xff\n      mul\n      not\n      and\n      swap1\n      dup4\n      iszero\n      iszero\n      mul\n      or\n      swap1\n      sstore\n      pop\n        /* \"contracts/ddddd.sol\":4568:4579  doctorCount */\n      0xc\n      0x0\n        /* \"contracts/ddddd.sol\":4568:4581  doctorCount++ */\n      dup2\n      sload\n      dup1\n      swap3\n      swap2\n      swap1\n      0x1\n      add\n      swap2\n      swap1\n      pop\n      sstore\n      pop\n        /* \"contracts/ddddd.sol\":3828:4589  function doctorRegistration(address _doctor, string _uaeId, string _name, string _phone, string _gender, string _dob, string _qualification, string _major) public {\r... */\n      pop\n      pop\n      pop\n      pop\n      pop\n      pop\n      pop\n      pop\n      pop\n      jump\t// out\n        /* \"contracts/ddddd.sol\":6325:6516  function givePermissionByUser(address _address) public returns(bool success) {\r... */\n    tag_71:\n        /* \"contracts/ddddd.sol\":6388:6400  bool success */\n      0x0\n        /* \"contracts/ddddd.sol\":6448:6452  true */\n      0x1\n        /* \"contracts/ddddd.sol\":6413:6423  isApproved */\n      0x7\n        /* \"contracts/ddddd.sol\":6413:6435  isApproved[msg.sender] */\n      0x0\n        /* \"contracts/ddddd.sol\":6424:6434  msg.sender */\n      caller\n        /* \"contracts/ddddd.sol\":6413:6435  isApproved[msg.sender] */\n      0xffffffffffffffffffffffffffffffffffffffff\n      and\n      0xffffffffffffffffffffffffffffffffffffffff\n      and\n      dup2\n      mstore\n      0x20\n      add\n      swap1\n      dup2\n      mstore\n      0x20\n      add\n      0x0\n      keccak256\n        /* \"contracts/ddddd.sol\":6413:6445  isApproved[msg.sender][_address] */\n      0x0\n        /* \"contracts/ddddd.sol\":6436:6444  _address */\n      dup5\n        /* \"contracts/ddddd.sol\":6413:6445  isApproved[msg.sender][_address] */\n      0xffffffffffffffffffffffffffffffffffffffff\n      and\n      0xffffffffffffffffffffffffffffffffffffffff\n      and\n      dup2\n      mstore\n      0x20\n      add\n      swap1\n      dup2\n      mstore\n      0x20\n      add\n      0x0\n      keccak256\n      0x0\n        /* \"contracts/ddddd.sol\":6413:6452  isApproved[msg.sender][_address] = true */\n      0x100\n      exp\n      dup2\n      sload\n      dup2\n      0xff\n      mul\n      not\n      and\n      swap1\n      dup4\n      iszero\n      iszero\n      mul\n      or\n      swap1\n      sstore\n      pop\n        /* \"contracts/ddddd.sol\":6463:6484  userPermissionCounter */\n      0xe\n      0x0\n        /* \"contracts/ddddd.sol\":6463:6486  userPermissionCounter++ */\n      dup2\n      sload\n      dup1\n      swap3\n      swap2\n      swap1\n      0x1\n      add\n      swap2\n      swap1\n      pop\n      sstore\n      pop\n        /* \"contracts/ddddd.sol\":6504:6508  true */\n      0x1\n        /* \"contracts/ddddd.sol\":6497:6508  return true */\n      swap1\n      pop\n        /* \"contracts/ddddd.sol\":6325:6516  function givePermissionByUser(address _address) public returns(bool success) {\r... */\n      swap2\n      swap1\n      pop\n      jump\t// out\n        /* \"contracts/ddddd.sol\":5124:6031  function createVaccineRecord(address _address1, address _doctor, string _vaccine, string _description, string _typeOfVaccine, uint _creationDate) public returns(bool success) {\r... */\n    tag_78:\n        /* \"contracts/ddddd.sol\":5285:5297  bool success */\n      0x0\n        /* \"contracts/ddddd.sol\":5514:5519  var v */\n      dup1\n        /* \"contracts/ddddd.sol\":5332:5341  mohAdress */\n      0x10\n      0x0\n      swap1\n      sload\n      swap1\n      0x100\n      exp\n      swap1\n      div\n      0xffffffffffffffffffffffffffffffffffffffff\n      and\n        /* \"contracts/ddddd.sol\":5318:5341  msg.sender == mohAdress */\n      0xffffffffffffffffffffffffffffffffffffffff\n      and\n        /* \"contracts/ddddd.sol\":5318:5328  msg.sender */\n      caller\n        /* \"contracts/ddddd.sol\":5318:5341  msg.sender == mohAdress */\n      0xffffffffffffffffffffffffffffffffffffffff\n      and\n      eq\n        /* \"contracts/ddddd.sol\":5310:5342  require(msg.sender == mohAdress) */\n      iszero\n      iszero\n      tag_221\n      jumpi\n      0x0\n      dup1\n      revert\n    tag_221:\n        /* \"contracts/ddddd.sol\":5482:5491  isVaccine */\n      0xa\n        /* \"contracts/ddddd.sol\":5482:5502  isVaccine[_address1] */\n      0x0\n        /* \"contracts/ddddd.sol\":5492:5501  _address1 */\n      dup10\n        /* \"contracts/ddddd.sol\":5482:5502  isVaccine[_address1] */\n      0xffffffffffffffffffffffffffffffffffffffff\n      and\n      0xffffffffffffffffffffffffffffffffffffffff\n      and\n      dup2\n      mstore\n      0x20\n      add\n      swap1\n      dup2\n      mstore\n      0x20\n      add\n      0x0\n      keccak256\n      0x0\n      swap1\n      sload\n      swap1\n      0x100\n      exp\n      swap1\n      div\n      0xff\n      and\n        /* \"contracts/ddddd.sol\":5481:5502  !isVaccine[_address1] */\n      iszero\n        /* \"contracts/ddddd.sol\":5473:5503  require(!isVaccine[_address1]) */\n      iszero\n      iszero\n      tag_222\n      jumpi\n      0x0\n      dup1\n      revert\n    tag_222:\n        /* \"contracts/ddddd.sol\":5522:5533  vaccination */\n      0x6\n        /* \"contracts/ddddd.sol\":5522:5544  vaccination[_address1] */\n      0x0\n        /* \"contracts/ddddd.sol\":5534:5543  _address1 */\n      dup10\n        /* \"contracts/ddddd.sol\":5522:5544  vaccination[_address1] */\n      0xffffffffffffffffffffffffffffffffffffffff\n      and\n      0xffffffffffffffffffffffffffffffffffffffff\n      and\n      dup2\n      mstore\n      0x20\n      add\n      swap1\n      dup2\n      mstore\n      0x20\n      add\n      0x0\n      keccak256\n        /* \"contracts/ddddd.sol\":5514:5544  var v = vaccination[_address1] */\n      swap1\n      pop\n        /* \"contracts/ddddd.sol\":5623:5631  _vaccine */\n      dup6\n        /* \"contracts/ddddd.sol\":5611:5612  v */\n      dup2\n        /* \"contracts/ddddd.sol\":5611:5620  v.vaccine */\n      0x0\n      add\n        /* \"contracts/ddddd.sol\":5611:5631  v.vaccine = _vaccine */\n      swap1\n      dup1\n      mload\n      swap1\n      0x20\n      add\n      swap1\n      tag_223\n      swap3\n      swap2\n      swap1\n      jump\t// in(tag_201)\n    tag_223:\n      pop\n        /* \"contracts/ddddd.sol\":5658:5670  _description */\n      dup5\n        /* \"contracts/ddddd.sol\":5642:5643  v */\n      dup2\n        /* \"contracts/ddddd.sol\":5642:5655  v.description */\n      0x1\n      add\n        /* \"contracts/ddddd.sol\":5642:5670  v.description = _description */\n      swap1\n      dup1\n      mload\n      swap1\n      0x20\n      add\n      swap1\n      tag_224\n      swap3\n      swap2\n      swap1\n      jump\t// in(tag_201)\n    tag_224:\n      pop\n        /* \"contracts/ddddd.sol\":5699:5713  _typeOfVaccine */\n      dup4\n        /* \"contracts/ddddd.sol\":5681:5682  v */\n      dup2\n        /* \"contracts/ddddd.sol\":5681:5696  v.typeOfVaccine */\n      0x2\n      add\n        /* \"contracts/ddddd.sol\":5681:5713  v.typeOfVaccine = _typeOfVaccine */\n      swap1\n      dup1\n      mload\n      swap1\n      0x20\n      add\n      swap1\n      tag_225\n      swap3\n      swap2\n      swap1\n      jump\t// in(tag_201)\n    tag_225:\n      pop\n        /* \"contracts/ddddd.sol\":5854:5867  _creationDate */\n      dup3\n        /* \"contracts/ddddd.sol\":5837:5838  v */\n      dup2\n        /* \"contracts/ddddd.sol\":5837:5851  v.creationDate */\n      0x3\n      add\n        /* \"contracts/ddddd.sol\":5837:5867  v.creationDate = _creationDate */\n      dup2\n      swap1\n      sstore\n      pop\n        /* \"contracts/ddddd.sol\":5895:5904  _address1 */\n      dup8\n        /* \"contracts/ddddd.sol\":5878:5879  v */\n      dup2\n        /* \"contracts/ddddd.sol\":5878:5892  v.userEadderss */\n      0x4\n      add\n      0x0\n        /* \"contracts/ddddd.sol\":5878:5904  v.userEadderss = _address1 */\n      0x100\n      exp\n      dup2\n      sload\n      dup2\n      0xffffffffffffffffffffffffffffffffffffffff\n      mul\n      not\n      and\n      swap1\n      dup4\n      0xffffffffffffffffffffffffffffffffffffffff\n      and\n      mul\n      or\n      swap1\n      sstore\n      pop\n        /* \"contracts/ddddd.sol\":5934:5941  _doctor */\n      dup7\n        /* \"contracts/ddddd.sol\":5915:5916  v */\n      dup2\n        /* \"contracts/ddddd.sol\":5915:5931  v.doctorEaddress */\n      0x5\n      add\n      0x0\n        /* \"contracts/ddddd.sol\":5915:5941  v.doctorEaddress = _doctor */\n      0x100\n      exp\n      dup2\n      sload\n      dup2\n      0xffffffffffffffffffffffffffffffffffffffff\n      mul\n      not\n      and\n      swap1\n      dup4\n      0xffffffffffffffffffffffffffffffffffffffff\n      and\n      mul\n      or\n      swap1\n      sstore\n      pop\n        /* \"contracts/ddddd.sol\":5954:5969  vaccinationList */\n      0x3\n        /* \"contracts/ddddd.sol\":5975:5984  _address1 */\n      dup9\n        /* \"contracts/ddddd.sol\":5954:5985  vaccinationList.push(_address1) */\n      swap1\n      dup1\n        /* \"--CODEGEN--\":39:40   */\n      0x1\n        /* \"--CODEGEN--\":33:36   */\n      dup2\n        /* \"--CODEGEN--\":27:37   */\n      sload\n        /* \"--CODEGEN--\":23:41   */\n      add\n        /* \"--CODEGEN--\":57:67   */\n      dup1\n        /* \"--CODEGEN--\":52:55   */\n      dup3\n        /* \"--CODEGEN--\":45:68   */\n      sstore\n        /* \"--CODEGEN--\":79:89   */\n      dup1\n        /* \"--CODEGEN--\":72:89   */\n      swap2\n      pop\n        /* \"--CODEGEN--\":0:93   */\n      pop\n        /* \"contracts/ddddd.sol\":5954:5985  vaccinationList.push(_address1) */\n      swap1\n      0x1\n      dup3\n      sub\n      swap1\n      0x0\n      mstore\n      keccak256(0x0, 0x20)\n      add\n      0x0\n      swap1\n      swap2\n      swap3\n      swap1\n      swap2\n      swap1\n      swap2\n      0x100\n      exp\n      dup2\n      sload\n      dup2\n      0xffffffffffffffffffffffffffffffffffffffff\n      mul\n      not\n      and\n      swap1\n      dup4\n      0xffffffffffffffffffffffffffffffffffffffff\n      and\n      mul\n      or\n      swap1\n      sstore\n      pop\n      pop\n        /* \"contracts/ddddd.sol\":5996:6021  vaccinationRecordsCounter */\n      0xf\n      0x0\n        /* \"contracts/ddddd.sol\":5996:6023  vaccinationRecordsCounter++ */\n      dup2\n      sload\n      dup1\n      swap3\n      swap2\n      swap1\n      0x1\n      add\n      swap2\n      swap1\n      pop\n      sstore\n      pop\n        /* \"contracts/ddddd.sol\":5124:6031  function createVaccineRecord(address _address1, address _doctor, string _vaccine, string _description, string _typeOfVaccine, uint _creationDate) public returns(bool success) {\r... */\n      pop\n      swap7\n      swap6\n      pop\n      pop\n      pop\n      pop\n      pop\n      pop\n      jump\t// out\n        /* \"contracts/ddddd.sol\":6786:6944  function userRevokePermission(address _address) public returns(bool success) {\r... */\n    tag_83:\n        /* \"contracts/ddddd.sol\":6849:6861  bool success */\n      0x0\n        /* \"contracts/ddddd.sol\":6909:6914  false */\n      dup1\n        /* \"contracts/ddddd.sol\":6874:6884  isApproved */\n      0x7\n        /* \"contracts/ddddd.sol\":6874:6896  isApproved[msg.sender] */\n      0x0\n        /* \"contracts/ddddd.sol\":6885:6895  msg.sender */\n      caller\n        /* \"contracts/ddddd.sol\":6874:6896  isApproved[msg.sender] */\n      0xffffffffffffffffffffffffffffffffffffffff\n      and\n      0xffffffffffffffffffffffffffffffffffffffff\n      and\n      dup2\n      mstore\n      0x20\n      add\n      swap1\n      dup2\n      mstore\n      0x20\n      add\n      0x0\n      keccak256\n        /* \"contracts/ddddd.sol\":6874:6906  isApproved[msg.sender][_address] */\n      0x0\n        /* \"contracts/ddddd.sol\":6897:6905  _address */\n      dup5\n        /* \"contracts/ddddd.sol\":6874:6906  isApproved[msg.sender][_address] */\n      0xffffffffffffffffffffffffffffffffffffffff\n      and\n      0xffffffffffffffffffffffffffffffffffffffff\n      and\n      dup2\n      mstore\n      0x20\n      add\n      swap1\n      dup2\n      mstore\n      0x20\n      add\n      0x0\n      keccak256\n      0x0\n        /* \"contracts/ddddd.sol\":6874:6914  isApproved[msg.sender][_address] = false */\n      0x100\n      exp\n      dup2\n      sload\n      dup2\n      0xff\n      mul\n      not\n      and\n      swap1\n      dup4\n      iszero\n      iszero\n      mul\n      or\n      swap1\n      sstore\n      pop\n        /* \"contracts/ddddd.sol\":6932:6936  true */\n      0x1\n        /* \"contracts/ddddd.sol\":6925:6936  return true */\n      swap1\n      pop\n        /* \"contracts/ddddd.sol\":6786:6944  function userRevokePermission(address _address) public returns(bool success) {\r... */\n      swap2\n      swap1\n      pop\n      jump\t// out\n        /* \"contracts/ddddd.sol\":2078:3187  function userRegistration(address _user, string _uaeId, string _name, string _phone, string _gender, string _dob, string _addr, string _email, string _nomineeName, string _nomineeContact) public {\r... */\n    tag_89:\n        /* \"contracts/ddddd.sol\":2361:2366  var u */\n      0x0\n        /* \"contracts/ddddd.sol\":2306:2315  mohAdress */\n      0x10\n      0x0\n      swap1\n      sload\n      swap1\n      0x100\n      exp\n      swap1\n      div\n      0xffffffffffffffffffffffffffffffffffffffff\n      and\n        /* \"contracts/ddddd.sol\":2292:2315  msg.sender == mohAdress */\n      0xffffffffffffffffffffffffffffffffffffffff\n      and\n        /* \"contracts/ddddd.sol\":2292:2302  msg.sender */\n      caller\n        /* \"contracts/ddddd.sol\":2292:2315  msg.sender == mohAdress */\n      0xffffffffffffffffffffffffffffffffffffffff\n      and\n      eq\n        /* \"contracts/ddddd.sol\":2284:2316  require(msg.sender == mohAdress) */\n      iszero\n      iszero\n      tag_229\n      jumpi\n      0x0\n      dup1\n      revert\n    tag_229:\n        /* \"contracts/ddddd.sol\":2336:2342  isUser */\n      0x8\n        /* \"contracts/ddddd.sol\":2336:2349  isUser[_user] */\n      0x0\n        /* \"contracts/ddddd.sol\":2343:2348  _user */\n      dup13\n        /* \"contracts/ddddd.sol\":2336:2349  isUser[_user] */\n      0xffffffffffffffffffffffffffffffffffffffff\n      and\n      0xffffffffffffffffffffffffffffffffffffffff\n      and\n      dup2\n      mstore\n      0x20\n      add\n      swap1\n      dup2\n      mstore\n      0x20\n      add\n      0x0\n      keccak256\n      0x0\n      swap1\n      sload\n      swap1\n      0x100\n      exp\n      swap1\n      div\n      0xff\n      and\n        /* \"contracts/ddddd.sol\":2335:2349  !isUser[_user] */\n      iszero\n        /* \"contracts/ddddd.sol\":2327:2350  require(!isUser[_user]) */\n      iszero\n      iszero\n      tag_230\n      jumpi\n      0x0\n      dup1\n      revert\n    tag_230:\n        /* \"contracts/ddddd.sol\":2369:2373  user */\n      0x4\n        /* \"contracts/ddddd.sol\":2369:2380  user[_user] */\n      0x0\n        /* \"contracts/ddddd.sol\":2374:2379  _user */\n      dup13\n        /* \"contracts/ddddd.sol\":2369:2380  user[_user] */\n      0xffffffffffffffffffffffffffffffffffffffff\n      and\n      0xffffffffffffffffffffffffffffffffffffffff\n      and\n      dup2\n      mstore\n      0x20\n      add\n      swap1\n      dup2\n      mstore\n      0x20\n      add\n      0x0\n      keccak256\n        /* \"contracts/ddddd.sol\":2361:2380  var u = user[_user] */\n      swap1\n      pop\n        /* \"contracts/ddddd.sol\":2411:2417  _uaeId */\n      dup10\n        /* \"contracts/ddddd.sol\":2401:2402  u */\n      dup2\n        /* \"contracts/ddddd.sol\":2401:2408  u.uaeId */\n      0x0\n      add\n        /* \"contracts/ddddd.sol\":2401:2417  u.uaeId = _uaeId */\n      swap1\n      dup1\n      mload\n      swap1\n      0x20\n      add\n      swap1\n      tag_231\n      swap3\n      swap2\n      swap1\n      jump\t// in(tag_201)\n    tag_231:\n      pop\n        /* \"contracts/ddddd.sol\":2437:2442  _name */\n      dup9\n        /* \"contracts/ddddd.sol\":2428:2429  u */\n      dup2\n        /* \"contracts/ddddd.sol\":2428:2434  u.name */\n      0x1\n      add\n        /* \"contracts/ddddd.sol\":2428:2442  u.name = _name */\n      swap1\n      dup1\n      mload\n      swap1\n      0x20\n      add\n      swap1\n      tag_232\n      swap3\n      swap2\n      swap1\n      jump\t// in(tag_201)\n    tag_232:\n      pop\n        /* \"contracts/ddddd.sol\":2463:2469  _phone */\n      dup8\n        /* \"contracts/ddddd.sol\":2453:2454  u */\n      dup2\n        /* \"contracts/ddddd.sol\":2453:2460  u.phone */\n      0x2\n      add\n        /* \"contracts/ddddd.sol\":2453:2469  u.phone = _phone */\n      swap1\n      dup1\n      mload\n      swap1\n      0x20\n      add\n      swap1\n      tag_233\n      swap3\n      swap2\n      swap1\n      jump\t// in(tag_201)\n    tag_233:\n      pop\n        /* \"contracts/ddddd.sol\":2491:2498  _gender */\n      dup7\n        /* \"contracts/ddddd.sol\":2480:2481  u */\n      dup2\n        /* \"contracts/ddddd.sol\":2480:2488  u.gender */\n      0x3\n      add\n        /* \"contracts/ddddd.sol\":2480:2498  u.gender = _gender */\n      swap1\n      dup1\n      mload\n      swap1\n      0x20\n      add\n      swap1\n      tag_234\n      swap3\n      swap2\n      swap1\n      jump\t// in(tag_201)\n    tag_234:\n      pop\n        /* \"contracts/ddddd.sol\":2517:2521  _dob */\n      dup6\n        /* \"contracts/ddddd.sol\":2509:2510  u */\n      dup2\n        /* \"contracts/ddddd.sol\":2509:2514  u.dob */\n      0x4\n      add\n        /* \"contracts/ddddd.sol\":2509:2521  u.dob = _dob */\n      swap1\n      dup1\n      mload\n      swap1\n      0x20\n      add\n      swap1\n      tag_235\n      swap3\n      swap2\n      swap1\n      jump\t// in(tag_201)\n    tag_235:\n      pop\n        /* \"contracts/ddddd.sol\":2541:2546  _addr */\n      dup5\n        /* \"contracts/ddddd.sol\":2532:2533  u */\n      dup2\n        /* \"contracts/ddddd.sol\":2532:2538  u.addr */\n      0x5\n      add\n        /* \"contracts/ddddd.sol\":2532:2546  u.addr = _addr */\n      swap1\n      dup1\n      mload\n      swap1\n      0x20\n      add\n      swap1\n      tag_236\n      swap3\n      swap2\n      swap1\n      jump\t// in(tag_201)\n    tag_236:\n      pop\n        /* \"contracts/ddddd.sol\":2567:2573  _email */\n      dup4\n        /* \"contracts/ddddd.sol\":2557:2558  u */\n      dup2\n        /* \"contracts/ddddd.sol\":2557:2564  u.email */\n      0x6\n      add\n        /* \"contracts/ddddd.sol\":2557:2573  u.email = _email */\n      swap1\n      dup1\n      mload\n      swap1\n      0x20\n      add\n      swap1\n      tag_237\n      swap3\n      swap2\n      swap1\n      jump\t// in(tag_201)\n    tag_237:\n      pop\n        /* \"contracts/ddddd.sol\":2600:2612  _nomineeName */\n      dup3\n        /* \"contracts/ddddd.sol\":2584:2585  u */\n      dup2\n        /* \"contracts/ddddd.sol\":2584:2597  u.nomineeName */\n      0x7\n      add\n        /* \"contracts/ddddd.sol\":2584:2612  u.nomineeName = _nomineeName */\n      swap1\n      dup1\n      mload\n      swap1\n      0x20\n      add\n      swap1\n      tag_238\n      swap3\n      swap2\n      swap1\n      jump\t// in(tag_201)\n    tag_238:\n      pop\n        /* \"contracts/ddddd.sol\":2642:2657  _nomineeContact */\n      dup2\n        /* \"contracts/ddddd.sol\":2623:2624  u */\n      dup2\n        /* \"contracts/ddddd.sol\":2623:2639  u.nomineeContact */\n      0x8\n      add\n        /* \"contracts/ddddd.sol\":2623:2657  u.nomineeContact = _nomineeContact */\n      swap1\n      dup1\n      mload\n      swap1\n      0x20\n      add\n      swap1\n      tag_239\n      swap3\n      swap2\n      swap1\n      jump\t// in(tag_201)\n    tag_239:\n      pop\n        /* \"contracts/ddddd.sol\":2681:2686  _user */\n      dup11\n        /* \"contracts/ddddd.sol\":2668:2669  u */\n      dup2\n        /* \"contracts/ddddd.sol\":2668:2678  u.eAddress */\n      0x9\n      add\n      0x0\n        /* \"contracts/ddddd.sol\":2668:2686  u.eAddress = _user */\n      0x100\n      exp\n      dup2\n      sload\n      dup2\n      0xffffffffffffffffffffffffffffffffffffffff\n      mul\n      not\n      and\n      swap1\n      dup4\n      0xffffffffffffffffffffffffffffffffffffffff\n      and\n      mul\n      or\n      swap1\n      sstore\n      pop\n        /* \"contracts/ddddd.sol\":2706:2721  block.timestamp */\n      timestamp\n        /* \"contracts/ddddd.sol\":2697:2698  u */\n      dup2\n        /* \"contracts/ddddd.sol\":2697:2703  u.date */\n      0xa\n      add\n        /* \"contracts/ddddd.sol\":2697:2721  u.date = block.timestamp */\n      dup2\n      swap1\n      sstore\n      pop\n        /* \"contracts/ddddd.sol\":2742:2750  userList */\n      0x1\n        /* \"contracts/ddddd.sol\":2756:2761  _user */\n      dup12\n        /* \"contracts/ddddd.sol\":2742:2762  userList.push(_user) */\n      swap1\n      dup1\n        /* \"--CODEGEN--\":39:40   */\n      0x1\n        /* \"--CODEGEN--\":33:36   */\n      dup2\n        /* \"--CODEGEN--\":27:37   */\n      sload\n        /* \"--CODEGEN--\":23:41   */\n      add\n        /* \"--CODEGEN--\":57:67   */\n      dup1\n        /* \"--CODEGEN--\":52:55   */\n      dup3\n        /* \"--CODEGEN--\":45:68   */\n      sstore\n        /* \"--CODEGEN--\":79:89   */\n      dup1\n        /* \"--CODEGEN--\":72:89   */\n      swap2\n      pop\n        /* \"--CODEGEN--\":0:93   */\n      pop\n        /* \"contracts/ddddd.sol\":2742:2762  userList.push(_user) */\n      swap1\n      0x1\n      dup3\n      sub\n      swap1\n      0x0\n      mstore\n      keccak256(0x0, 0x20)\n      add\n      0x0\n      swap1\n      swap2\n      swap3\n      swap1\n      swap2\n      swap1\n      swap2\n      0x100\n      exp\n      dup2\n      sload\n      dup2\n      0xffffffffffffffffffffffffffffffffffffffff\n      mul\n      not\n      and\n      swap1\n      dup4\n      0xffffffffffffffffffffffffffffffffffffffff\n      and\n      mul\n      or\n      swap1\n      sstore\n      pop\n      pop\n        /* \"contracts/ddddd.sol\":2789:2793  true */\n      0x1\n        /* \"contracts/ddddd.sol\":2773:2779  isUser */\n      0x8\n        /* \"contracts/ddddd.sol\":2773:2786  isUser[_user] */\n      0x0\n        /* \"contracts/ddddd.sol\":2780:2785  _user */\n      dup14\n        /* \"contracts/ddddd.sol\":2773:2786  isUser[_user] */\n      0xffffffffffffffffffffffffffffffffffffffff\n      and\n      0xffffffffffffffffffffffffffffffffffffffff\n      and\n      dup2\n      mstore\n      0x20\n      add\n      swap1\n      dup2\n      mstore\n      0x20\n      add\n      0x0\n      keccak256\n      0x0\n        /* \"contracts/ddddd.sol\":2773:2793  isUser[_user] = true */\n      0x100\n      exp\n      dup2\n      sload\n      dup2\n      0xff\n      mul\n      not\n      and\n      swap1\n      dup4\n      iszero\n      iszero\n      mul\n      or\n      swap1\n      sstore\n      pop\n        /* \"contracts/ddddd.sol\":2831:2835  true */\n      0x1\n        /* \"contracts/ddddd.sol\":2804:2814  isApproved */\n      0x7\n        /* \"contracts/ddddd.sol\":2804:2821  isApproved[_user] */\n      0x0\n        /* \"contracts/ddddd.sol\":2815:2820  _user */\n      dup14\n        /* \"contracts/ddddd.sol\":2804:2821  isApproved[_user] */\n      0xffffffffffffffffffffffffffffffffffffffff\n      and\n      0xffffffffffffffffffffffffffffffffffffffff\n      and\n      dup2\n      mstore\n      0x20\n      add\n      swap1\n      dup2\n      mstore\n      0x20\n      add\n      0x0\n      keccak256\n        /* \"contracts/ddddd.sol\":2804:2828  isApproved[_user][_user] */\n      0x0\n        /* \"contracts/ddddd.sol\":2822:2827  _user */\n      dup14\n        /* \"contracts/ddddd.sol\":2804:2828  isApproved[_user][_user] */\n      0xffffffffffffffffffffffffffffffffffffffff\n      and\n      0xffffffffffffffffffffffffffffffffffffffff\n      and\n      dup2\n      mstore\n      0x20\n      add\n      swap1\n      dup2\n      mstore\n      0x20\n      add\n      0x0\n      keccak256\n      0x0\n        /* \"contracts/ddddd.sol\":2804:2835  isApproved[_user][_user] = true */\n      0x100\n      exp\n      dup2\n      sload\n      dup2\n      0xff\n      mul\n      not\n      and\n      swap1\n      dup4\n      iszero\n      iszero\n      mul\n      or\n      swap1\n      sstore\n      pop\n        /* \"contracts/ddddd.sol\":2877:2881  true */\n      0x1\n        /* \"contracts/ddddd.sol\":2846:2856  isApproved */\n      0x7\n        /* \"contracts/ddddd.sol\":2846:2863  isApproved[_user] */\n      0x0\n        /* \"contracts/ddddd.sol\":2857:2862  _user */\n      dup14\n        /* \"contracts/ddddd.sol\":2846:2863  isApproved[_user] */\n      0xffffffffffffffffffffffffffffffffffffffff\n      and\n      0xffffffffffffffffffffffffffffffffffffffff\n      and\n      dup2\n      mstore\n      0x20\n      add\n      swap1\n      dup2\n      mstore\n      0x20\n      add\n      0x0\n      keccak256\n        /* \"contracts/ddddd.sol\":2846:2874  isApproved[_user][mohAdress] */\n      0x0\n        /* \"contracts/ddddd.sol\":2864:2873  mohAdress */\n      0x10\n      0x0\n      swap1\n      sload\n      swap1\n      0x100\n      exp\n      swap1\n      div\n      0xffffffffffffffffffffffffffffffffffffffff\n      and\n        /* \"contracts/ddddd.sol\":2846:2874  isApproved[_user][mohAdress] */\n      0xffffffffffffffffffffffffffffffffffffffff\n      and\n      0xffffffffffffffffffffffffffffffffffffffff\n      and\n      dup2\n      mstore\n      0x20\n      add\n      swap1\n      dup2\n      mstore\n      0x20\n      add\n      0x0\n      keccak256\n      0x0\n        /* \"contracts/ddddd.sol\":2846:2881  isApproved[_user][mohAdress] = true */\n      0x100\n      exp\n      dup2\n      sload\n      dup2\n      0xff\n      mul\n      not\n      and\n      swap1\n      dup4\n      iszero\n      iszero\n      mul\n      or\n      swap1\n      sstore\n      pop\n        /* \"contracts/ddddd.sol\":2892:2901  userCount */\n      0xb\n      0x0\n        /* \"contracts/ddddd.sol\":2892:2903  userCount++ */\n      dup2\n      sload\n      dup1\n      swap3\n      swap2\n      swap1\n      0x1\n      add\n      swap2\n      swap1\n      pop\n      sstore\n      pop\n        /* \"contracts/ddddd.sol\":2078:3187  function userRegistration(address _user, string _uaeId, string _name, string _phone, string _gender, string _dob, string _addr, string _email, string _nomineeName, string _nomineeContact) public {\r... */\n      pop\n      pop\n      pop\n      pop\n      pop\n      pop\n      pop\n      pop\n      pop\n      pop\n      pop\n      jump\t// out\n        /* \"contracts/ddddd.sol\":3211:3820  function editUser(address _user, string _uaeId, string _name, string _phone, string _gender, string _dob, string _addr, string _email, string _nomineeName, string _nomineeContact) public {\r... */\n    tag_93:\n        /* \"contracts/ddddd.sol\":3485:3490  var u */\n      0x0\n        /* \"contracts/ddddd.sol\":3431:3440  mohAdress */\n      0x10\n      0x0\n      swap1\n      sload\n      swap1\n      0x100\n      exp\n      swap1\n      div\n      0xffffffffffffffffffffffffffffffffffffffff\n      and\n        /* \"contracts/ddddd.sol\":3417:3440  msg.sender == mohAdress */\n      0xffffffffffffffffffffffffffffffffffffffff\n      and\n        /* \"contracts/ddddd.sol\":3417:3427  msg.sender */\n      caller\n        /* \"contracts/ddddd.sol\":3417:3440  msg.sender == mohAdress */\n      0xffffffffffffffffffffffffffffffffffffffff\n      and\n      eq\n        /* \"contracts/ddddd.sol\":3409:3441  require(msg.sender == mohAdress) */\n      iszero\n      iszero\n      tag_242\n      jumpi\n      0x0\n      dup1\n      revert\n    tag_242:\n        /* \"contracts/ddddd.sol\":3460:3466  isUser */\n      0x8\n        /* \"contracts/ddddd.sol\":3460:3473  isUser[_user] */\n      0x0\n        /* \"contracts/ddddd.sol\":3467:3472  _user */\n      dup13\n        /* \"contracts/ddddd.sol\":3460:3473  isUser[_user] */\n      0xffffffffffffffffffffffffffffffffffffffff\n      and\n      0xffffffffffffffffffffffffffffffffffffffff\n      and\n      dup2\n      mstore\n      0x20\n      add\n      swap1\n      dup2\n      mstore\n      0x20\n      add\n      0x0\n      keccak256\n      0x0\n      swap1\n      sload\n      swap1\n      0x100\n      exp\n      swap1\n      div\n      0xff\n      and\n        /* \"contracts/ddddd.sol\":3452:3474  require(isUser[_user]) */\n      iszero\n      iszero\n      tag_243\n      jumpi\n      0x0\n      dup1\n      revert\n    tag_243:\n        /* \"contracts/ddddd.sol\":3493:3497  user */\n      0x4\n        /* \"contracts/ddddd.sol\":3493:3504  user[_user] */\n      0x0\n        /* \"contracts/ddddd.sol\":3498:3503  _user */\n      dup13\n        /* \"contracts/ddddd.sol\":3493:3504  user[_user] */\n      0xffffffffffffffffffffffffffffffffffffffff\n      and\n      0xffffffffffffffffffffffffffffffffffffffff\n      and\n      dup2\n      mstore\n      0x20\n      add\n      swap1\n      dup2\n      mstore\n      0x20\n      add\n      0x0\n      keccak256\n        /* \"contracts/ddddd.sol\":3485:3504  var u = user[_user] */\n      swap1\n      pop\n        /* \"contracts/ddddd.sol\":3535:3541  _uaeId */\n      dup10\n        /* \"contracts/ddddd.sol\":3525:3526  u */\n      dup2\n        /* \"contracts/ddddd.sol\":3525:3532  u.uaeId */\n      0x0\n      add\n        /* \"contracts/ddddd.sol\":3525:3541  u.uaeId = _uaeId */\n      swap1\n      dup1\n      mload\n      swap1\n      0x20\n      add\n      swap1\n      tag_244\n      swap3\n      swap2\n      swap1\n      jump\t// in(tag_201)\n    tag_244:\n      pop\n        /* \"contracts/ddddd.sol\":3561:3566  _name */\n      dup9\n        /* \"contracts/ddddd.sol\":3552:3553  u */\n      dup2\n        /* \"contracts/ddddd.sol\":3552:3558  u.name */\n      0x1\n      add\n        /* \"contracts/ddddd.sol\":3552:3566  u.name = _name */\n      swap1\n      dup1\n      mload\n      swap1\n      0x20\n      add\n      swap1\n      tag_245\n      swap3\n      swap2\n      swap1\n      jump\t// in(tag_201)\n    tag_245:\n      pop\n        /* \"contracts/ddddd.sol\":3587:3593  _phone */\n      dup8\n        /* \"contracts/ddddd.sol\":3577:3578  u */\n      dup2\n        /* \"contracts/ddddd.sol\":3577:3584  u.phone */\n      0x2\n      add\n        /* \"contracts/ddddd.sol\":3577:3593  u.phone = _phone */\n      swap1\n      dup1\n      mload\n      swap1\n      0x20\n      add\n      swap1\n      tag_246\n      swap3\n      swap2\n      swap1\n      jump\t// in(tag_201)\n    tag_246:\n      pop\n        /* \"contracts/ddddd.sol\":3615:3622  _gender */\n      dup7\n        /* \"contracts/ddddd.sol\":3604:3605  u */\n      dup2\n        /* \"contracts/ddddd.sol\":3604:3612  u.gender */\n      0x3\n      add\n        /* \"contracts/ddddd.sol\":3604:3622  u.gender = _gender */\n      swap1\n      dup1\n      mload\n      swap1\n      0x20\n      add\n      swap1\n      tag_247\n      swap3\n      swap2\n      swap1\n      jump\t// in(tag_201)\n    tag_247:\n      pop\n        /* \"contracts/ddddd.sol\":3641:3645  _dob */\n      dup6\n        /* \"contracts/ddddd.sol\":3633:3634  u */\n      dup2\n        /* \"contracts/ddddd.sol\":3633:3638  u.dob */\n      0x4\n      add\n        /* \"contracts/ddddd.sol\":3633:3645  u.dob = _dob */\n      swap1\n      dup1\n      mload\n      swap1\n      0x20\n      add\n      swap1\n      tag_248\n      swap3\n      swap2\n      swap1\n      jump\t// in(tag_201)\n    tag_248:\n      pop\n        /* \"contracts/ddddd.sol\":3665:3670  _addr */\n      dup5\n        /* \"contracts/ddddd.sol\":3656:3657  u */\n      dup2\n        /* \"contracts/ddddd.sol\":3656:3662  u.addr */\n      0x5\n      add\n        /* \"contracts/ddddd.sol\":3656:3670  u.addr = _addr */\n      swap1\n      dup1\n      mload\n      swap1\n      0x20\n      add\n      swap1\n      tag_249\n      swap3\n      swap2\n      swap1\n      jump\t// in(tag_201)\n    tag_249:\n      pop\n        /* \"contracts/ddddd.sol\":3691:3697  _email */\n      dup4\n        /* \"contracts/ddddd.sol\":3681:3682  u */\n      dup2\n        /* \"contracts/ddddd.sol\":3681:3688  u.email */\n      0x6\n      add\n        /* \"contracts/ddddd.sol\":3681:3697  u.email = _email */\n      swap1\n      dup1\n      mload\n      swap1\n      0x20\n      add\n      swap1\n      tag_250\n      swap3\n      swap2\n      swap1\n      jump\t// in(tag_201)\n    tag_250:\n      pop\n        /* \"contracts/ddddd.sol\":3724:3736  _nomineeName */\n      dup3\n        /* \"contracts/ddddd.sol\":3708:3709  u */\n      dup2\n        /* \"contracts/ddddd.sol\":3708:3721  u.nomineeName */\n      0x7\n      add\n        /* \"contracts/ddddd.sol\":3708:3736  u.nomineeName = _nomineeName */\n      swap1\n      dup1\n      mload\n      swap1\n      0x20\n      add\n      swap1\n      tag_251\n      swap3\n      swap2\n      swap1\n      jump\t// in(tag_201)\n    tag_251:\n      pop\n        /* \"contracts/ddddd.sol\":3766:3781  _nomineeContact */\n      dup2\n        /* \"contracts/ddddd.sol\":3747:3748  u */\n      dup2\n        /* \"contracts/ddddd.sol\":3747:3763  u.nomineeContact */\n      0x8\n      add\n        /* \"contracts/ddddd.sol\":3747:3781  u.nomineeContact = _nomineeContact */\n      swap1\n      dup1\n      mload\n      swap1\n      0x20\n      add\n      swap1\n      tag_252\n      swap3\n      swap2\n      swap1\n      jump\t// in(tag_201)\n    tag_252:\n      pop\n        /* \"contracts/ddddd.sol\":3805:3810  _user */\n      dup11\n        /* \"contracts/ddddd.sol\":3792:3793  u */\n      dup2\n        /* \"contracts/ddddd.sol\":3792:3802  u.eAddress */\n      0x9\n      add\n      0x0\n        /* \"contracts/ddddd.sol\":3792:3810  u.eAddress = _user */\n      0x100\n      exp\n      dup2\n      sload\n      dup2\n      0xffffffffffffffffffffffffffffffffffffffff\n      mul\n      not\n      and\n      swap1\n      dup4\n      0xffffffffffffffffffffffffffffffffffffffff\n      and\n      mul\n      or\n      swap1\n      sstore\n      pop\n        /* \"contracts/ddddd.sol\":3211:3820  function editUser(address _user, string _uaeId, string _name, string _phone, string _gender, string _dob, string _addr, string _email, string _nomineeName, string _nomineeContact) public {\r... */\n      pop\n      pop\n      pop\n      pop\n      pop\n      pop\n      pop\n      pop\n      pop\n      pop\n      pop\n      jump\t// out\n        /* \"contracts/ddddd.sol\":1693:1723  uint256 public doctorCount = 0 */\n    tag_96:\n      sload(0xc)\n      dup2\n      jump\t// out\n        /* \"contracts/ddddd.sol\":8514:8606  function getDoctorCount() public view returns(uint256) {\r... */\n    tag_100:\n        /* \"contracts/ddddd.sol\":8560:8567  uint256 */\n      0x0\n        /* \"contracts/ddddd.sol\":8587:8598  doctorCount */\n      sload(0xc)\n        /* \"contracts/ddddd.sol\":8580:8598  return doctorCount */\n      swap1\n      pop\n        /* \"contracts/ddddd.sol\":8514:8606  function getDoctorCount() public view returns(uint256) {\r... */\n      swap1\n      jump\t// out\n        /* \"contracts/ddddd.sol\":6039:6315  function getVaccinationInfo(address _address) public view returns(string, string, string, uint256, address, address) {\r... */\n    tag_105:\n        /* \"contracts/ddddd.sol\":6105:6111  string */\n      0x60\n        /* \"contracts/ddddd.sol\":6113:6119  string */\n      dup1\n        /* \"contracts/ddddd.sol\":6121:6127  string */\n      0x60\n        /* \"contracts/ddddd.sol\":6129:6136  uint256 */\n      0x0\n        /* \"contracts/ddddd.sol\":6138:6145  address */\n      dup1\n        /* \"contracts/ddddd.sol\":6147:6154  address */\n      0x0\n        /* \"contracts/ddddd.sol\":6167:6172  var v */\n      dup1\n        /* \"contracts/ddddd.sol\":6175:6186  vaccination */\n      0x6\n        /* \"contracts/ddddd.sol\":6175:6196  vaccination[_address] */\n      0x0\n        /* \"contracts/ddddd.sol\":6187:6195  _address */\n      dup10\n        /* \"contracts/ddddd.sol\":6175:6196  vaccination[_address] */\n      0xffffffffffffffffffffffffffffffffffffffff\n      and\n      0xffffffffffffffffffffffffffffffffffffffff\n      and\n      dup2\n      mstore\n      0x20\n      add\n      swap1\n      dup2\n      mstore\n      0x20\n      add\n      0x0\n      keccak256\n        /* \"contracts/ddddd.sol\":6167:6196  var v = vaccination[_address] */\n      swap1\n      pop\n        /* \"contracts/ddddd.sol\":6215:6216  v */\n      dup1\n        /* \"contracts/ddddd.sol\":6215:6224  v.vaccine */\n      0x0\n      add\n        /* \"contracts/ddddd.sol\":6226:6227  v */\n      dup2\n        /* \"contracts/ddddd.sol\":6226:6239  v.description */\n      0x1\n      add\n        /* \"contracts/ddddd.sol\":6241:6242  v */\n      dup3\n        /* \"contracts/ddddd.sol\":6241:6256  v.typeOfVaccine */\n      0x2\n      add\n        /* \"contracts/ddddd.sol\":6258:6259  v */\n      dup4\n        /* \"contracts/ddddd.sol\":6258:6272  v.creationDate */\n      0x3\n      add\n      sload\n        /* \"contracts/ddddd.sol\":6274:6275  v */\n      dup5\n        /* \"contracts/ddddd.sol\":6274:6288  v.userEadderss */\n      0x4\n      add\n      0x0\n      swap1\n      sload\n      swap1\n      0x100\n      exp\n      swap1\n      div\n      0xffffffffffffffffffffffffffffffffffffffff\n      and\n        /* \"contracts/ddddd.sol\":6290:6291  v */\n      dup6\n        /* \"contracts/ddddd.sol\":6290:6306  v.doctorEaddress */\n      0x5\n      add\n      0x0\n      swap1\n      sload\n      swap1\n      0x100\n      exp\n      swap1\n      div\n      0xffffffffffffffffffffffffffffffffffffffff\n      and\n        /* \"contracts/ddddd.sol\":6207:6307  return (v.vaccine, v.description, v.typeOfVaccine, v.creationDate, v.userEadderss, v.doctorEaddress) */\n      dup6\n      dup1\n      sload\n      0x1\n      dup2\n      0x1\n      and\n      iszero\n      0x100\n      mul\n      sub\n      and\n      0x2\n      swap1\n      div\n      dup1\n      0x1f\n      add\n      0x20\n      dup1\n      swap2\n      div\n      mul\n      0x20\n      add\n      mload(0x40)\n      swap1\n      dup2\n      add\n      0x40\n      mstore\n      dup1\n      swap3\n      swap2\n      swap1\n      dup2\n      dup2\n      mstore\n      0x20\n      add\n      dup3\n      dup1\n      sload\n      0x1\n      dup2\n      0x1\n      and\n      iszero\n      0x100\n      mul\n      sub\n      and\n      0x2\n      swap1\n      div\n      dup1\n      iszero\n      tag_255\n      jumpi\n      dup1\n      0x1f\n      lt\n      tag_256\n      jumpi\n      0x100\n      dup1\n      dup4\n      sload\n      div\n      mul\n      dup4\n      mstore\n      swap2\n      0x20\n      add\n      swap2\n      jump(tag_255)\n    tag_256:\n      dup3\n      add\n      swap2\n      swap1\n      0x0\n      mstore\n      keccak256(0x0, 0x20)\n      swap1\n    tag_257:\n      dup2\n      sload\n      dup2\n      mstore\n      swap1\n      0x1\n      add\n      swap1\n      0x20\n      add\n      dup1\n      dup4\n      gt\n      tag_257\n      jumpi\n      dup3\n      swap1\n      sub\n      0x1f\n      and\n      dup3\n      add\n      swap2\n    tag_255:\n      pop\n      pop\n      pop\n      pop\n      pop\n      swap6\n      pop\n      dup5\n      dup1\n      sload\n      0x1\n      dup2\n      0x1\n      and\n      iszero\n      0x100\n      mul\n      sub\n      and\n      0x2\n      swap1\n      div\n      dup1\n      0x1f\n      add\n      0x20\n      dup1\n      swap2\n      div\n      mul\n      0x20\n      add\n      mload(0x40)\n      swap1\n      dup2\n      add\n      0x40\n      mstore\n      dup1\n      swap3\n      swap2\n      swap1\n      dup2\n      dup2\n      mstore\n      0x20\n      add\n      dup3\n      dup1\n      sload\n      0x1\n      dup2\n      0x1\n      and\n      iszero\n      0x100\n      mul\n      sub\n      and\n      0x2\n      swap1\n      div\n      dup1\n      iszero\n      tag_258\n      jumpi\n      dup1\n      0x1f\n      lt\n      tag_259\n      jumpi\n      0x100\n      dup1\n      dup4\n      sload\n      div\n      mul\n      dup4\n      mstore\n      swap2\n      0x20\n      add\n      swap2\n      jump(tag_258)\n    tag_259:\n      dup3\n      add\n      swap2\n      swap1\n      0x0\n      mstore\n      keccak256(0x0, 0x20)\n      swap1\n    tag_260:\n      dup2\n      sload\n      dup2\n      mstore\n      swap1\n      0x1\n      add\n      swap1\n      0x20\n      add\n      dup1\n      dup4\n      gt\n      tag_260\n      jumpi\n      dup3\n      swap1\n      sub\n      0x1f\n      and\n      dup3\n      add\n      swap2\n    tag_258:\n      pop\n      pop\n      pop\n      pop\n      pop\n      swap5\n      pop\n      dup4\n      dup1\n      sload\n      0x1\n      dup2\n      0x1\n      and\n      iszero\n      0x100\n      mul\n      sub\n      and\n      0x2\n      swap1\n      div\n      dup1\n      0x1f\n      add\n      0x20\n      dup1\n      swap2\n      div\n      mul\n      0x20\n      add\n      mload(0x40)\n      swap1\n      dup2\n      add\n      0x40\n      mstore\n      dup1\n      swap3\n      swap2\n      swap1\n      dup2\n      dup2\n      mstore\n      0x20\n      add\n      dup3\n      dup1\n      sload\n      0x1\n      dup2\n      0x1\n      and\n      iszero\n      0x100\n      mul\n      sub\n      and\n      0x2\n      swap1\n      div\n      dup1\n      iszero\n      tag_261\n      jumpi\n      dup1\n      0x1f\n      lt\n      tag_262\n      jumpi\n      0x100\n      dup1\n      dup4\n      sload\n      div\n      mul\n      dup4\n      mstore\n      swap2\n      0x20\n      add\n      swap2\n      jump(tag_261)\n    tag_262:\n      dup3\n      add\n      swap2\n      swap1\n      0x0\n      mstore\n      keccak256(0x0, 0x20)\n      swap1\n    tag_263:\n      dup2\n      sload\n      dup2\n      mstore\n      swap1\n      0x1\n      add\n      swap1\n      0x20\n      add\n      dup1\n      dup4\n      gt\n      tag_263\n      jumpi\n      dup3\n      swap1\n      sub\n      0x1f\n      and\n      dup3\n      add\n      swap2\n    tag_261:\n      pop\n      pop\n      pop\n      pop\n      pop\n      swap4\n      pop\n      swap7\n      pop\n      swap7\n      pop\n      swap7\n      pop\n      swap7\n      pop\n      swap7\n      pop\n      swap7\n      pop\n        /* \"contracts/ddddd.sol\":6039:6315  function getVaccinationInfo(address _address) public view returns(string, string, string, uint256, address, address) {\r... */\n      pop\n      swap2\n      swap4\n      swap6\n      pop\n      swap2\n      swap4\n      swap6\n      jump\t// out\n        /* \"contracts/ddddd.sol\":1061:1081  address public owner */\n    tag_110:\n      0x0\n      dup1\n      swap1\n      sload\n      swap1\n      0x100\n      exp\n      swap1\n      div\n      0xffffffffffffffffffffffffffffffffffffffff\n      and\n      dup2\n      jump\t// out\n        /* \"contracts/ddddd.sol\":1958:2066  function ownerAddress() public returns(address) {\r... */\n    tag_114:\n        /* \"contracts/ddddd.sol\":1997:2004  address */\n      0x0\n        /* \"contracts/ddddd.sol\":2025:2035  msg.sender */\n      caller\n        /* \"contracts/ddddd.sol\":2017:2022  owner */\n      0x0\n      dup1\n        /* \"contracts/ddddd.sol\":2017:2035  owner = msg.sender */\n      0x100\n      exp\n      dup2\n      sload\n      dup2\n      0xffffffffffffffffffffffffffffffffffffffff\n      mul\n      not\n      and\n      swap1\n      dup4\n      0xffffffffffffffffffffffffffffffffffffffff\n      and\n      mul\n      or\n      swap1\n      sstore\n      pop\n        /* \"contracts/ddddd.sol\":2053:2058  owner */\n      0x0\n      dup1\n      swap1\n      sload\n      swap1\n      0x100\n      exp\n      swap1\n      div\n      0xffffffffffffffffffffffffffffffffffffffff\n      and\n        /* \"contracts/ddddd.sol\":2046:2058  return owner */\n      swap1\n      pop\n        /* \"contracts/ddddd.sol\":1958:2066  function ownerAddress() public returns(address) {\r... */\n      swap1\n      jump\t// out\n        /* \"contracts/ddddd.sol\":1823:1867  uint256 public vaccinationRecordsCounter = 0 */\n    tag_118:\n      sload(0xf)\n      dup2\n      jump\t// out\n        /* \"contracts/ddddd.sol\":1730:1769  uint256 public MoHPermissionCounter = 0 */\n    tag_122:\n      sload(0xd)\n      dup2\n      jump\t// out\n        /* \"contracts/ddddd.sol\":1088:1113  address[] public userList */\n    tag_127:\n      0x1\n      dup2\n      dup2\n      sload\n      dup2\n      lt\n      iszero\n      iszero\n      tag_265\n      jumpi\n      invalid\n    tag_265:\n      swap1\n      0x0\n      mstore\n      keccak256(0x0, 0x20)\n      add\n      0x0\n      swap2\n      pop\n      sload\n      swap1\n      0x100\n      exp\n      swap1\n      div\n      0xffffffffffffffffffffffffffffffffffffffff\n      and\n      dup2\n      jump\t// out\n        /* \"contracts/ddddd.sol\":7277:7366  function getDoctors() public view returns(address[]) {\r... */\n    tag_131:\n        /* \"contracts/ddddd.sol\":7319:7328  address[] */\n      0x60\n        /* \"contracts/ddddd.sol\":7348:7358  doctorList */\n      0x2\n        /* \"contracts/ddddd.sol\":7341:7358  return doctorList */\n      dup1\n      sload\n      dup1\n      0x20\n      mul\n      0x20\n      add\n      mload(0x40)\n      swap1\n      dup2\n      add\n      0x40\n      mstore\n      dup1\n      swap3\n      swap2\n      swap1\n      dup2\n      dup2\n      mstore\n      0x20\n      add\n      dup3\n      dup1\n      sload\n      dup1\n      iszero\n      tag_268\n      jumpi\n      0x20\n      mul\n      dup3\n      add\n      swap2\n      swap1\n      0x0\n      mstore\n      keccak256(0x0, 0x20)\n      swap1\n    tag_269:\n      dup2\n      0x0\n      swap1\n      sload\n      swap1\n      0x100\n      exp\n      swap1\n      div\n      0xffffffffffffffffffffffffffffffffffffffff\n      and\n      0xffffffffffffffffffffffffffffffffffffffff\n      and\n      dup2\n      mstore\n      0x20\n      add\n      swap1\n      0x1\n      add\n      swap1\n      dup1\n      dup4\n      gt\n      tag_269\n      jumpi\n    tag_268:\n      pop\n      pop\n      pop\n      pop\n      pop\n      swap1\n      pop\n        /* \"contracts/ddddd.sol\":7277:7366  function getDoctors() public view returns(address[]) {\r... */\n      swap1\n      jump\t// out\n        /* \"contracts/ddddd.sol\":8418:8506  function getUserCount() public view returns(uint256) {\r... */\n    tag_135:\n        /* \"contracts/ddddd.sol\":8462:8469  uint256 */\n      0x0\n        /* \"contracts/ddddd.sol\":8489:8498  userCount */\n      sload(0xb)\n        /* \"contracts/ddddd.sol\":8482:8498  return userCount */\n      swap1\n      pop\n        /* \"contracts/ddddd.sol\":8418:8506  function getUserCount() public view returns(uint256) {\r... */\n      swap1\n      jump\t// out\n        /* \"contracts/ddddd.sol\":1876:1945  address public mohAdress = 0xc50C6297f56b033633C30354A854b074749cd2dC */\n    tag_139:\n      0x10\n      0x0\n      swap1\n      sload\n      swap1\n      0x100\n      exp\n      swap1\n      div\n      0xffffffffffffffffffffffffffffffffffffffff\n      and\n      dup2\n      jump\t// out\n        /* \"contracts/ddddd.sol\":6952:7172  function MoHRevokePermission(address _address1, address _address2) public returns(bool success) {\r... */\n    tag_145:\n        /* \"contracts/ddddd.sol\":7034:7046  bool success */\n      0x0\n        /* \"contracts/ddddd.sol\":7081:7090  mohAdress */\n      0x10\n      0x0\n      swap1\n      sload\n      swap1\n      0x100\n      exp\n      swap1\n      div\n      0xffffffffffffffffffffffffffffffffffffffff\n      and\n        /* \"contracts/ddddd.sol\":7067:7090  msg.sender == mohAdress */\n      0xffffffffffffffffffffffffffffffffffffffff\n      and\n        /* \"contracts/ddddd.sol\":7067:7077  msg.sender */\n      caller\n        /* \"contracts/ddddd.sol\":7067:7090  msg.sender == mohAdress */\n      0xffffffffffffffffffffffffffffffffffffffff\n      and\n      eq\n        /* \"contracts/ddddd.sol\":7059:7091  require(msg.sender == mohAdress) */\n      iszero\n      iszero\n      tag_272\n      jumpi\n      0x0\n      dup1\n      revert\n    tag_272:\n        /* \"contracts/ddddd.sol\":7137:7142  false */\n      0x0\n        /* \"contracts/ddddd.sol\":7102:7112  isApproved */\n      0x7\n        /* \"contracts/ddddd.sol\":7102:7123  isApproved[_address1] */\n      0x0\n        /* \"contracts/ddddd.sol\":7113:7122  _address1 */\n      dup6\n        /* \"contracts/ddddd.sol\":7102:7123  isApproved[_address1] */\n      0xffffffffffffffffffffffffffffffffffffffff\n      and\n      0xffffffffffffffffffffffffffffffffffffffff\n      and\n      dup2\n      mstore\n      0x20\n      add\n      swap1\n      dup2\n      mstore\n      0x20\n      add\n      0x0\n      keccak256\n        /* \"contracts/ddddd.sol\":7102:7134  isApproved[_address1][_address2] */\n      0x0\n        /* \"contracts/ddddd.sol\":7124:7133  _address2 */\n      dup5\n        /* \"contracts/ddddd.sol\":7102:7134  isApproved[_address1][_address2] */\n      0xffffffffffffffffffffffffffffffffffffffff\n      and\n      0xffffffffffffffffffffffffffffffffffffffff\n      and\n      dup2\n      mstore\n      0x20\n      add\n      swap1\n      dup2\n      mstore\n      0x20\n      add\n      0x0\n      keccak256\n      0x0\n        /* \"contracts/ddddd.sol\":7102:7142  isApproved[_address1][_address2] = false */\n      0x100\n      exp\n      dup2\n      sload\n      dup2\n      0xff\n      mul\n      not\n      and\n      swap1\n      dup4\n      iszero\n      iszero\n      mul\n      or\n      swap1\n      sstore\n      pop\n        /* \"contracts/ddddd.sol\":7160:7164  true */\n      0x1\n        /* \"contracts/ddddd.sol\":7153:7164  return true */\n      swap1\n      pop\n        /* \"contracts/ddddd.sol\":6952:7172  function MoHRevokePermission(address _address1, address _address2) public returns(bool success) {\r... */\n      swap3\n      swap2\n      pop\n      pop\n      jump\t// out\n        /* \"contracts/ddddd.sol\":1776:1816  uint256 public userPermissionCounter = 0 */\n    tag_149:\n      sload(0xe)\n      dup2\n      jump\t// out\n        /* \"contracts/ddddd.sol\":8056:8402  function searchDoctor(address _address) public view returns(string, string, string, string, string, string, string) {\r... */\n    tag_154:\n        /* \"contracts/ddddd.sol\":8116:8122  string */\n      0x60\n        /* \"contracts/ddddd.sol\":8124:8130  string */\n      dup1\n        /* \"contracts/ddddd.sol\":8132:8138  string */\n      0x60\n        /* \"contracts/ddddd.sol\":8140:8146  string */\n      dup1\n        /* \"contracts/ddddd.sol\":8148:8154  string */\n      0x60\n        /* \"contracts/ddddd.sol\":8156:8162  string */\n      dup1\n        /* \"contracts/ddddd.sol\":8164:8170  string */\n      0x60\n        /* \"contracts/ddddd.sol\":8273:8278  var d */\n      0x0\n        /* \"contracts/ddddd.sol\":8191:8201  isApproved */\n      0x7\n        /* \"contracts/ddddd.sol\":8191:8211  isApproved[_address] */\n      0x0\n        /* \"contracts/ddddd.sol\":8202:8210  _address */\n      dup11\n        /* \"contracts/ddddd.sol\":8191:8211  isApproved[_address] */\n      0xffffffffffffffffffffffffffffffffffffffff\n      and\n      0xffffffffffffffffffffffffffffffffffffffff\n      and\n      dup2\n      mstore\n      0x20\n      add\n      swap1\n      dup2\n      mstore\n      0x20\n      add\n      0x0\n      keccak256\n        /* \"contracts/ddddd.sol\":8191:8223  isApproved[_address][msg.sender] */\n      0x0\n        /* \"contracts/ddddd.sol\":8212:8222  msg.sender */\n      caller\n        /* \"contracts/ddddd.sol\":8191:8223  isApproved[_address][msg.sender] */\n      0xffffffffffffffffffffffffffffffffffffffff\n      and\n      0xffffffffffffffffffffffffffffffffffffffff\n      and\n      dup2\n      mstore\n      0x20\n      add\n      swap1\n      dup2\n      mstore\n      0x20\n      add\n      0x0\n      keccak256\n      0x0\n      swap1\n      sload\n      swap1\n      0x100\n      exp\n      swap1\n      div\n      0xff\n      and\n        /* \"contracts/ddddd.sol\":8183:8224  require(isApproved[_address][msg.sender]) */\n      iszero\n      iszero\n      tag_274\n      jumpi\n      0x0\n      dup1\n      revert\n    tag_274:\n        /* \"contracts/ddddd.sol\":8243:8251  isDoctor */\n      0x9\n        /* \"contracts/ddddd.sol\":8243:8261  isDoctor[_address] */\n      0x0\n        /* \"contracts/ddddd.sol\":8252:8260  _address */\n      dup11\n        /* \"contracts/ddddd.sol\":8243:8261  isDoctor[_address] */\n      0xffffffffffffffffffffffffffffffffffffffff\n      and\n      0xffffffffffffffffffffffffffffffffffffffff\n      and\n      dup2\n      mstore\n      0x20\n      add\n      swap1\n      dup2\n      mstore\n      0x20\n      add\n      0x0\n      keccak256\n      0x0\n      swap1\n      sload\n      swap1\n      0x100\n      exp\n      swap1\n      div\n      0xff\n      and\n        /* \"contracts/ddddd.sol\":8235:8262  require(isDoctor[_address]) */\n      iszero\n      iszero\n      tag_275\n      jumpi\n      0x0\n      dup1\n      revert\n    tag_275:\n        /* \"contracts/ddddd.sol\":8281:8287  doctor */\n      0x5\n        /* \"contracts/ddddd.sol\":8281:8297  doctor[_address] */\n      0x0\n        /* \"contracts/ddddd.sol\":8288:8296  _address */\n      dup11\n        /* \"contracts/ddddd.sol\":8281:8297  doctor[_address] */\n      0xffffffffffffffffffffffffffffffffffffffff\n      and\n      0xffffffffffffffffffffffffffffffffffffffff\n      and\n      dup2\n      mstore\n      0x20\n      add\n      swap1\n      dup2\n      mstore\n      0x20\n      add\n      0x0\n      keccak256\n        /* \"contracts/ddddd.sol\":8273:8297  var d = doctor[_address] */\n      swap1\n      pop\n        /* \"contracts/ddddd.sol\":8326:8327  d */\n      dup1\n        /* \"contracts/ddddd.sol\":8326:8333  d.uaeId */\n      0x0\n      add\n        /* \"contracts/ddddd.sol\":8335:8336  d */\n      dup2\n        /* \"contracts/ddddd.sol\":8335:8341  d.name */\n      0x1\n      add\n        /* \"contracts/ddddd.sol\":8343:8344  d */\n      dup3\n        /* \"contracts/ddddd.sol\":8343:8350  d.phone */\n      0x2\n      add\n        /* \"contracts/ddddd.sol\":8352:8353  d */\n      dup4\n        /* \"contracts/ddddd.sol\":8352:8360  d.gender */\n      0x3\n      add\n        /* \"contracts/ddddd.sol\":8362:8363  d */\n      dup5\n        /* \"contracts/ddddd.sol\":8362:8367  d.dob */\n      0x4\n      add\n        /* \"contracts/ddddd.sol\":8369:8370  d */\n      dup6\n        /* \"contracts/ddddd.sol\":8369:8384  d.qualification */\n      0x6\n      add\n        /* \"contracts/ddddd.sol\":8386:8387  d */\n      dup7\n        /* \"contracts/ddddd.sol\":8386:8393  d.major */\n      0x7\n      add\n        /* \"contracts/ddddd.sol\":8318:8394  return (d.uaeId, d.name, d.phone, d.gender, d.dob, d.qualification, d.major) */\n      dup7\n      dup1\n      sload\n      0x1\n      dup2\n      0x1\n      and\n      iszero\n      0x100\n      mul\n      sub\n      and\n      0x2\n      swap1\n      div\n      dup1\n      0x1f\n      add\n      0x20\n      dup1\n      swap2\n      div\n      mul\n      0x20\n      add\n      mload(0x40)\n      swap1\n      dup2\n      add\n      0x40\n      mstore\n      dup1\n      swap3\n      swap2\n      swap1\n      dup2\n      dup2\n      mstore\n      0x20\n      add\n      dup3\n      dup1\n      sload\n      0x1\n      dup2\n      0x1\n      and\n      iszero\n      0x100\n      mul\n      sub\n      and\n      0x2\n      swap1\n      div\n      dup1\n      iszero\n      tag_276\n      jumpi\n      dup1\n      0x1f\n      lt\n      tag_277\n      jumpi\n      0x100\n      dup1\n      dup4\n      sload\n      div\n      mul\n      dup4\n      mstore\n      swap2\n      0x20\n      add\n      swap2\n      jump(tag_276)\n    tag_277:\n      dup3\n      add\n      swap2\n      swap1\n      0x0\n      mstore\n      keccak256(0x0, 0x20)\n      swap1\n    tag_278:\n      dup2\n      sload\n      dup2\n      mstore\n      swap1\n      0x1\n      add\n      swap1\n      0x20\n      add\n      dup1\n      dup4\n      gt\n      tag_278\n      jumpi\n      dup3\n      swap1\n      sub\n      0x1f\n      and\n      dup3\n      add\n      swap2\n    tag_276:\n      pop\n      pop\n      pop\n      pop\n      pop\n      swap7\n      pop\n      dup6\n      dup1\n      sload\n      0x1\n      dup2\n      0x1\n      and\n      iszero\n      0x100\n      mul\n      sub\n      and\n      0x2\n      swap1\n      div\n      dup1\n      0x1f\n      add\n      0x20\n      dup1\n      swap2\n      div\n      mul\n      0x20\n      add\n      mload(0x40)\n      swap1\n      dup2\n      add\n      0x40\n      mstore\n      dup1\n      swap3\n      swap2\n      swap1\n      dup2\n      dup2\n      mstore\n      0x20\n      add\n      dup3\n      dup1\n      sload\n      0x1\n      dup2\n      0x1\n      and\n      iszero\n      0x100\n      mul\n      sub\n      and\n      0x2\n      swap1\n      div\n      dup1\n      iszero\n      tag_279\n      jumpi\n      dup1\n      0x1f\n      lt\n      tag_280\n      jumpi\n      0x100\n      dup1\n      dup4\n      sload\n      div\n      mul\n      dup4\n      mstore\n      swap2\n      0x20\n      add\n      swap2\n      jump(tag_279)\n    tag_280:\n      dup3\n      add\n      swap2\n      swap1\n      0x0\n      mstore\n      keccak256(0x0, 0x20)\n      swap1\n    tag_281:\n      dup2\n      sload\n      dup2\n      mstore\n      swap1\n      0x1\n      add\n      swap1\n      0x20\n      add\n      dup1\n      dup4\n      gt\n      tag_281\n      jumpi\n      dup3\n      swap1\n      sub\n      0x1f\n      and\n      dup3\n      add\n      swap2\n    tag_279:\n      pop\n      pop\n      pop\n      pop\n      pop\n      swap6\n      pop\n      dup5\n      dup1\n      sload\n      0x1\n      dup2\n      0x1\n      and\n      iszero\n      0x100\n      mul\n      sub\n      and\n      0x2\n      swap1\n      div\n      dup1\n      0x1f\n      add\n      0x20\n      dup1\n      swap2\n      div\n      mul\n      0x20\n      add\n      mload(0x40)\n      swap1\n      dup2\n      add\n      0x40\n      mstore\n      dup1\n      swap3\n      swap2\n      swap1\n      dup2\n      dup2\n      mstore\n      0x20\n      add\n      dup3\n      dup1\n      sload\n      0x1\n      dup2\n      0x1\n      and\n      iszero\n      0x100\n      mul\n      sub\n      and\n      0x2\n      swap1\n      div\n      dup1\n      iszero\n      tag_282\n      jumpi\n      dup1\n      0x1f\n      lt\n      tag_283\n      jumpi\n      0x100\n      dup1\n      dup4\n      sload\n      div\n      mul\n      dup4\n      mstore\n      swap2\n      0x20\n      add\n      swap2\n      jump(tag_282)\n    tag_283:\n      dup3\n      add\n      swap2\n      swap1\n      0x0\n      mstore\n      keccak256(0x0, 0x20)\n      swap1\n    tag_284:\n      dup2\n      sload\n      dup2\n      mstore\n      swap1\n      0x1\n      add\n      swap1\n      0x20\n      add\n      dup1\n      dup4\n      gt\n      tag_284\n      jumpi\n      dup3\n      swap1\n      sub\n      0x1f\n      and\n      dup3\n      add\n      swap2\n    tag_282:\n      pop\n      pop\n      pop\n      pop\n      pop\n      swap5\n      pop\n      dup4\n      dup1\n      sload\n      0x1\n      dup2\n      0x1\n      and\n      iszero\n      0x100\n      mul\n      sub\n      and\n      0x2\n      swap1\n      div\n      dup1\n      0x1f\n      add\n      0x20\n      dup1\n      swap2\n      div\n      mul\n      0x20\n      add\n      mload(0x40)\n      swap1\n      dup2\n      add\n      0x40\n      mstore\n      dup1\n      swap3\n      swap2\n      swap1\n      dup2\n      dup2\n      mstore\n      0x20\n      add\n      dup3\n      dup1\n      sload\n      0x1\n      dup2\n      0x1\n      and\n      iszero\n      0x100\n      mul\n      sub\n      and\n      0x2\n      swap1\n      div\n      dup1\n      iszero\n      tag_285\n      jumpi\n      dup1\n      0x1f\n      lt\n      tag_286\n      jumpi\n      0x100\n      dup1\n      dup4\n      sload\n      div\n      mul\n      dup4\n      mstore\n      swap2\n      0x20\n      add\n      swap2\n      jump(tag_285)\n    tag_286:\n      dup3\n      add\n      swap2\n      swap1\n      0x0\n      mstore\n      keccak256(0x0, 0x20)\n      swap1\n    tag_287:\n      dup2\n      sload\n      dup2\n      mstore\n      swap1\n      0x1\n      add\n      swap1\n      0x20\n      add\n      dup1\n      dup4\n      gt\n      tag_287\n      jumpi\n      dup3\n      swap1\n      sub\n      0x1f\n      and\n      dup3\n      add\n      swap2\n    tag_285:\n      pop\n      pop\n      pop\n      pop\n      pop\n      swap4\n      pop\n      dup3\n      dup1\n      sload\n      0x1\n      dup2\n      0x1\n      and\n      iszero\n      0x100\n      mul\n      sub\n      and\n      0x2\n      swap1\n      div\n      dup1\n      0x1f\n      add\n      0x20\n      dup1\n      swap2\n      div\n      mul\n      0x20\n      add\n      mload(0x40)\n      swap1\n      dup2\n      add\n      0x40\n      mstore\n      dup1\n      swap3\n      swap2\n      swap1\n      dup2\n      dup2\n      mstore\n      0x20\n      add\n      dup3\n      dup1\n      sload\n      0x1\n      dup2\n      0x1\n      and\n      iszero\n      0x100\n      mul\n      sub\n      and\n      0x2\n      swap1\n      div\n      dup1\n      iszero\n      tag_288\n      jumpi\n      dup1\n      0x1f\n      lt\n      tag_289\n      jumpi\n      0x100\n      dup1\n      dup4\n      sload\n      div\n      mul\n      dup4\n      mstore\n      swap2\n      0x20\n      add\n      swap2\n      jump(tag_288)\n    tag_289:\n      dup3\n      add\n      swap2\n      swap1\n      0x0\n      mstore\n      keccak256(0x0, 0x20)\n      swap1\n    tag_290:\n      dup2\n      sload\n      dup2\n      mstore\n      swap1\n      0x1\n      add\n      swap1\n      0x20\n      add\n      dup1\n      dup4\n      gt\n      tag_290\n      jumpi\n      dup3\n      swap1\n      sub\n      0x1f\n      and\n      dup3\n      add\n      swap2\n    tag_288:\n      pop\n      pop\n      pop\n      pop\n      pop\n      swap3\n      pop\n      dup2\n      dup1\n      sload\n      0x1\n      dup2\n      0x1\n      and\n      iszero\n      0x100\n      mul\n      sub\n      and\n      0x2\n      swap1\n      div\n      dup1\n      0x1f\n      add\n      0x20\n      dup1\n      swap2\n      div\n      mul\n      0x20\n      add\n      mload(0x40)\n      swap1\n      dup2\n      add\n      0x40\n      mstore\n      dup1\n      swap3\n      swap2\n      swap1\n      dup2\n      dup2\n      mstore\n      0x20\n      add\n      dup3\n      dup1\n      sload\n      0x1\n      dup2\n      0x1\n      and\n      iszero\n      0x100\n      mul\n      sub\n      and\n      0x2\n      swap1\n      div\n      dup1\n      iszero\n      tag_291\n      jumpi\n      dup1\n      0x1f\n      lt\n      tag_292\n      jumpi\n      0x100\n      dup1\n      dup4\n      sload\n      div\n      mul\n      dup4\n      mstore\n      swap2\n      0x20\n      add\n      swap2\n      jump(tag_291)\n    tag_292:\n      dup3\n      add\n      swap2\n      swap1\n      0x0\n      mstore\n      keccak256(0x0, 0x20)\n      swap1\n    tag_293:\n      dup2\n      sload\n      dup2\n      mstore\n      swap1\n      0x1\n      add\n      swap1\n      0x20\n      add\n      dup1\n      dup4\n      gt\n      tag_293\n      jumpi\n      dup3\n      swap1\n      sub\n      0x1f\n      and\n      dup3\n      add\n      swap2\n    tag_291:\n      pop\n      pop\n      pop\n      pop\n      pop\n      swap2\n      pop\n      dup1\n      dup1\n      sload\n      0x1\n      dup2\n      0x1\n      and\n      iszero\n      0x100\n      mul\n      sub\n      and\n      0x2\n      swap1\n      div\n      dup1\n      0x1f\n      add\n      0x20\n      dup1\n      swap2\n      div\n      mul\n      0x20\n      add\n      mload(0x40)\n      swap1\n      dup2\n      add\n      0x40\n      mstore\n      dup1\n      swap3\n      swap2\n      swap1\n      dup2\n      dup2\n      mstore\n      0x20\n      add\n      dup3\n      dup1\n      sload\n      0x1\n      dup2\n      0x1\n      and\n      iszero\n      0x100\n      mul\n      sub\n      and\n      0x2\n      swap1\n      div\n      dup1\n      iszero\n      tag_294\n      jumpi\n      dup1\n      0x1f\n      lt\n      tag_295\n      jumpi\n      0x100\n      dup1\n      dup4\n      sload\n      div\n      mul\n      dup4\n      mstore\n      swap2\n      0x20\n      add\n      swap2\n      jump(tag_294)\n    tag_295:\n      dup3\n      add\n      swap2\n      swap1\n      0x0\n      mstore\n      keccak256(0x0, 0x20)\n      swap1\n    tag_296:\n      dup2\n      sload\n      dup2\n      mstore\n      swap1\n      0x1\n      add\n      swap1\n      0x20\n      add\n      dup1\n      dup4\n      gt\n      tag_296\n      jumpi\n      dup3\n      swap1\n      sub\n      0x1f\n      and\n      dup3\n      add\n      swap2\n    tag_294:\n      pop\n      pop\n      pop\n      pop\n      pop\n      swap1\n      pop\n      swap8\n      pop\n      swap8\n      pop\n      swap8\n      pop\n      swap8\n      pop\n      swap8\n      pop\n      swap8\n      pop\n      swap8\n      pop\n        /* \"contracts/ddddd.sol\":8056:8402  function searchDoctor(address _address) public view returns(string, string, string, string, string, string, string) {\r... */\n      pop\n      swap2\n      swap4\n      swap6\n      swap8\n      swap1\n      swap3\n      swap5\n      swap7\n      pop\n      jump\t// out\n        /* \"contracts/ddddd.sol\":6524:6776  function givePermissionByMoH(address _address1, address _address2) public returns(bool success) {\r... */\n    tag_160:\n        /* \"contracts/ddddd.sol\":6606:6618  bool success */\n      0x0\n        /* \"contracts/ddddd.sol\":6653:6662  mohAdress */\n      0x10\n      0x0\n      swap1\n      sload\n      swap1\n      0x100\n      exp\n      swap1\n      div\n      0xffffffffffffffffffffffffffffffffffffffff\n      and\n        /* \"contracts/ddddd.sol\":6639:6662  msg.sender == mohAdress */\n      0xffffffffffffffffffffffffffffffffffffffff\n      and\n        /* \"contracts/ddddd.sol\":6639:6649  msg.sender */\n      caller\n        /* \"contracts/ddddd.sol\":6639:6662  msg.sender == mohAdress */\n      0xffffffffffffffffffffffffffffffffffffffff\n      and\n      eq\n        /* \"contracts/ddddd.sol\":6631:6663  require(msg.sender == mohAdress) */\n      iszero\n      iszero\n      tag_298\n      jumpi\n      0x0\n      dup1\n      revert\n    tag_298:\n        /* \"contracts/ddddd.sol\":6709:6713  true */\n      0x1\n        /* \"contracts/ddddd.sol\":6674:6684  isApproved */\n      0x7\n        /* \"contracts/ddddd.sol\":6674:6695  isApproved[_address1] */\n      0x0\n        /* \"contracts/ddddd.sol\":6685:6694  _address1 */\n      dup6\n        /* \"contracts/ddddd.sol\":6674:6695  isApproved[_address1] */\n      0xffffffffffffffffffffffffffffffffffffffff\n      and\n      0xffffffffffffffffffffffffffffffffffffffff\n      and\n      dup2\n      mstore\n      0x20\n      add\n      swap1\n      dup2\n      mstore\n      0x20\n      add\n      0x0\n      keccak256\n        /* \"contracts/ddddd.sol\":6674:6706  isApproved[_address1][_address2] */\n      0x0\n        /* \"contracts/ddddd.sol\":6696:6705  _address2 */\n      dup5\n        /* \"contracts/ddddd.sol\":6674:6706  isApproved[_address1][_address2] */\n      0xffffffffffffffffffffffffffffffffffffffff\n      and\n      0xffffffffffffffffffffffffffffffffffffffff\n      and\n      dup2\n      mstore\n      0x20\n      add\n      swap1\n      dup2\n      mstore\n      0x20\n      add\n      0x0\n      keccak256\n      0x0\n        /* \"contracts/ddddd.sol\":6674:6713  isApproved[_address1][_address2] = true */\n      0x100\n      exp\n      dup2\n      sload\n      dup2\n      0xff\n      mul\n      not\n      and\n      swap1\n      dup4\n      iszero\n      iszero\n      mul\n      or\n      swap1\n      sstore\n      pop\n        /* \"contracts/ddddd.sol\":6724:6744  MoHPermissionCounter */\n      0xd\n      0x0\n        /* \"contracts/ddddd.sol\":6724:6746  MoHPermissionCounter++ */\n      dup2\n      sload\n      dup1\n      swap3\n      swap2\n      swap1\n      0x1\n      add\n      swap2\n      swap1\n      pop\n      sstore\n      pop\n        /* \"contracts/ddddd.sol\":6764:6768  true */\n      0x1\n        /* \"contracts/ddddd.sol\":6757:6768  return true */\n      swap1\n      pop\n        /* \"contracts/ddddd.sol\":6524:6776  function givePermissionByMoH(address _address1, address _address2) public returns(bool success) {\r... */\n      swap3\n      swap2\n      pop\n      pop\n      jump\t// out\n        /* \"contracts/ddddd.sol\":8740:8850  function getMoHPermissionCounter() public view returns(uint256) {\r... */\n    tag_164:\n        /* \"contracts/ddddd.sol\":8795:8802  uint256 */\n      0x0\n        /* \"contracts/ddddd.sol\":8822:8842  MoHPermissionCounter */\n      sload(0xd)\n        /* \"contracts/ddddd.sol\":8815:8842  return MoHPermissionCounter */\n      swap1\n      pop\n        /* \"contracts/ddddd.sol\":8740:8850  function getMoHPermissionCounter() public view returns(uint256) {\r... */\n      swap1\n      jump\t// out\n        /* \"contracts/ddddd.sol\":1154:1186  address[] public vaccinationList */\n    tag_169:\n      0x3\n      dup2\n      dup2\n      sload\n      dup2\n      lt\n      iszero\n      iszero\n      tag_300\n      jumpi\n      invalid\n    tag_300:\n      swap1\n      0x0\n      mstore\n      keccak256(0x0, 0x20)\n      add\n      0x0\n      swap2\n      pop\n      sload\n      swap1\n      0x100\n      exp\n      swap1\n      div\n      0xffffffffffffffffffffffffffffffffffffffff\n      and\n      dup2\n      jump\t// out\n        /* \"contracts/ddddd.sol\":91:8855  contract ddddd {\r... */\n    tag_201:\n      dup3\n      dup1\n      sload\n      0x1\n      dup2\n      0x1\n      and\n      iszero\n      0x100\n      mul\n      sub\n      and\n      0x2\n      swap1\n      div\n      swap1\n      0x0\n      mstore\n      keccak256(0x0, 0x20)\n      swap1\n      0x1f\n      add\n      0x20\n      swap1\n      div\n      dup2\n      add\n      swap3\n      dup3\n      0x1f\n      lt\n      tag_303\n      jumpi\n      dup1\n      mload\n      not(0xff)\n      and\n      dup4\n      dup1\n      add\n      or\n      dup6\n      sstore\n      jump(tag_302)\n    tag_303:\n      dup3\n      dup1\n      add\n      0x1\n      add\n      dup6\n      sstore\n      dup3\n      iszero\n      tag_302\n      jumpi\n      swap2\n      dup3\n      add\n    tag_304:\n      dup3\n      dup2\n      gt\n      iszero\n      tag_305\n      jumpi\n      dup3\n      mload\n      dup3\n      sstore\n      swap2\n      0x20\n      add\n      swap2\n      swap1\n      0x1\n      add\n      swap1\n      jump(tag_304)\n    tag_305:\n    tag_302:\n      pop\n      swap1\n      pop\n      tag_306\n      swap2\n      swap1\n      jump\t// in(tag_307)\n    tag_306:\n      pop\n      swap1\n      jump\t// out\n    tag_307:\n      tag_308\n      swap2\n      swap1\n    tag_309:\n      dup1\n      dup3\n      gt\n      iszero\n      tag_310\n      jumpi\n      0x0\n      dup2\n      0x0\n      swap1\n      sstore\n      pop\n      0x1\n      add\n      jump(tag_309)\n    tag_310:\n      pop\n      swap1\n      jump\n    tag_308:\n      swap1\n      jump\t// out\n        /* \"--CODEGEN--\":5:123   */\n    tag_312:\n      0x0\n        /* \"--CODEGEN--\":72:118   */\n      tag_313\n        /* \"--CODEGEN--\":110:116   */\n      dup3\n        /* \"--CODEGEN--\":97:117   */\n      calldataload\n        /* \"--CODEGEN--\":72:118   */\n      jump(tag_314)\n    tag_313:\n        /* \"--CODEGEN--\":63:118   */\n      swap1\n      pop\n        /* \"--CODEGEN--\":57:123   */\n      swap3\n      swap2\n      pop\n      pop\n      jump\n        /* \"--CODEGEN--\":131:573   */\n    tag_316:\n      0x0\n        /* \"--CODEGEN--\":233:236   */\n      dup3\n        /* \"--CODEGEN--\":226:230   */\n      0x1f\n        /* \"--CODEGEN--\":218:224   */\n      dup4\n        /* \"--CODEGEN--\":214:231   */\n      add\n        /* \"--CODEGEN--\":210:237   */\n      slt\n        /* \"--CODEGEN--\":203:238   */\n      iszero\n        /* \"--CODEGEN--\":200:202   */\n      iszero\n      tag_317\n      jumpi\n        /* \"--CODEGEN--\":251:252   */\n      0x0\n        /* \"--CODEGEN--\":248:249   */\n      dup1\n        /* \"--CODEGEN--\":241:253   */\n      revert\n        /* \"--CODEGEN--\":200:202   */\n    tag_317:\n        /* \"--CODEGEN--\":288:294   */\n      dup2\n        /* \"--CODEGEN--\":275:295   */\n      calldataload\n        /* \"--CODEGEN--\":310:375   */\n      tag_318\n        /* \"--CODEGEN--\":325:374   */\n      tag_319\n        /* \"--CODEGEN--\":367:373   */\n      dup3\n        /* \"--CODEGEN--\":325:374   */\n      jump(tag_320)\n    tag_319:\n        /* \"--CODEGEN--\":310:375   */\n      jump(tag_321)\n    tag_318:\n        /* \"--CODEGEN--\":301:375   */\n      swap2\n      pop\n        /* \"--CODEGEN--\":395:401   */\n      dup1\n        /* \"--CODEGEN--\":388:393   */\n      dup3\n        /* \"--CODEGEN--\":381:402   */\n      mstore\n        /* \"--CODEGEN--\":431:435   */\n      0x20\n        /* \"--CODEGEN--\":423:429   */\n      dup4\n        /* \"--CODEGEN--\":419:436   */\n      add\n        /* \"--CODEGEN--\":464:468   */\n      0x20\n        /* \"--CODEGEN--\":457:462   */\n      dup4\n        /* \"--CODEGEN--\":453:469   */\n      add\n        /* \"--CODEGEN--\":499:502   */\n      dup6\n        /* \"--CODEGEN--\":490:496   */\n      dup4\n        /* \"--CODEGEN--\":485:488   */\n      dup4\n        /* \"--CODEGEN--\":481:497   */\n      add\n        /* \"--CODEGEN--\":478:503   */\n      gt\n        /* \"--CODEGEN--\":475:477   */\n      iszero\n      tag_322\n      jumpi\n        /* \"--CODEGEN--\":516:517   */\n      0x0\n        /* \"--CODEGEN--\":513:514   */\n      dup1\n        /* \"--CODEGEN--\":506:518   */\n      revert\n        /* \"--CODEGEN--\":475:477   */\n    tag_322:\n        /* \"--CODEGEN--\":526:567   */\n      tag_323\n        /* \"--CODEGEN--\":560:566   */\n      dup4\n        /* \"--CODEGEN--\":555:558   */\n      dup3\n        /* \"--CODEGEN--\":550:553   */\n      dup5\n        /* \"--CODEGEN--\":526:567   */\n      jump(tag_324)\n    tag_323:\n        /* \"--CODEGEN--\":193:573   */\n      pop\n      pop\n      pop\n      swap3\n      swap2\n      pop\n      pop\n      jump\n        /* \"--CODEGEN--\":581:699   */\n    tag_326:\n      0x0\n        /* \"--CODEGEN--\":648:694   */\n      tag_327\n        /* \"--CODEGEN--\":686:692   */\n      dup3\n        /* \"--CODEGEN--\":673:693   */\n      calldataload\n        /* \"--CODEGEN--\":648:694   */\n      jump(tag_328)\n    tag_327:\n        /* \"--CODEGEN--\":639:694   */\n      swap1\n      pop\n        /* \"--CODEGEN--\":633:699   */\n      swap3\n      swap2\n      pop\n      pop\n      jump\n        /* \"--CODEGEN--\":706:947   */\n    tag_44:\n      0x0\n        /* \"--CODEGEN--\":810:812   */\n      0x20\n        /* \"--CODEGEN--\":798:807   */\n      dup3\n        /* \"--CODEGEN--\":789:796   */\n      dup5\n        /* \"--CODEGEN--\":785:808   */\n      sub\n        /* \"--CODEGEN--\":781:813   */\n      slt\n        /* \"--CODEGEN--\":778:780   */\n      iszero\n      tag_330\n      jumpi\n        /* \"--CODEGEN--\":826:827   */\n      0x0\n        /* \"--CODEGEN--\":823:824   */\n      dup1\n        /* \"--CODEGEN--\":816:828   */\n      revert\n        /* \"--CODEGEN--\":778:780   */\n    tag_330:\n        /* \"--CODEGEN--\":861:862   */\n      0x0\n        /* \"--CODEGEN--\":878:931   */\n      tag_331\n        /* \"--CODEGEN--\":923:930   */\n      dup5\n        /* \"--CODEGEN--\":914:920   */\n      dup3\n        /* \"--CODEGEN--\":903:912   */\n      dup6\n        /* \"--CODEGEN--\":899:921   */\n      add\n        /* \"--CODEGEN--\":878:931   */\n      jump(tag_312)\n    tag_331:\n        /* \"--CODEGEN--\":868:931   */\n      swap2\n      pop\n        /* \"--CODEGEN--\":840:937   */\n      pop\n        /* \"--CODEGEN--\":772:947   */\n      swap3\n      swap2\n      pop\n      pop\n      jump\n        /* \"--CODEGEN--\":954:1320   */\n    tag_144:\n      0x0\n      dup1\n        /* \"--CODEGEN--\":1075:1077   */\n      0x40\n        /* \"--CODEGEN--\":1063:1072   */\n      dup4\n        /* \"--CODEGEN--\":1054:1061   */\n      dup6\n        /* \"--CODEGEN--\":1050:1073   */\n      sub\n        /* \"--CODEGEN--\":1046:1078   */\n      slt\n        /* \"--CODEGEN--\":1043:1045   */\n      iszero\n      tag_333\n      jumpi\n        /* \"--CODEGEN--\":1091:1092   */\n      0x0\n        /* \"--CODEGEN--\":1088:1089   */\n      dup1\n        /* \"--CODEGEN--\":1081:1093   */\n      revert\n        /* \"--CODEGEN--\":1043:1045   */\n    tag_333:\n        /* \"--CODEGEN--\":1126:1127   */\n      0x0\n        /* \"--CODEGEN--\":1143:1196   */\n      tag_334\n        /* \"--CODEGEN--\":1188:1195   */\n      dup6\n        /* \"--CODEGEN--\":1179:1185   */\n      dup3\n        /* \"--CODEGEN--\":1168:1177   */\n      dup7\n        /* \"--CODEGEN--\":1164:1186   */\n      add\n        /* \"--CODEGEN--\":1143:1196   */\n      jump(tag_312)\n    tag_334:\n        /* \"--CODEGEN--\":1133:1196   */\n      swap3\n      pop\n        /* \"--CODEGEN--\":1105:1202   */\n      pop\n        /* \"--CODEGEN--\":1233:1235   */\n      0x20\n        /* \"--CODEGEN--\":1251:1304   */\n      tag_335\n        /* \"--CODEGEN--\":1296:1303   */\n      dup6\n        /* \"--CODEGEN--\":1287:1293   */\n      dup3\n        /* \"--CODEGEN--\":1276:1285   */\n      dup7\n        /* \"--CODEGEN--\":1272:1294   */\n      add\n        /* \"--CODEGEN--\":1251:1304   */\n      jump(tag_312)\n    tag_335:\n        /* \"--CODEGEN--\":1241:1304   */\n      swap2\n      pop\n        /* \"--CODEGEN--\":1212:1310   */\n      pop\n        /* \"--CODEGEN--\":1037:1320   */\n      swap3\n      pop\n      swap3\n      swap1\n      pop\n      jump\n        /* \"--CODEGEN--\":1327:2514   */\n    tag_77:\n      0x0\n      dup1\n      0x0\n      dup1\n      0x0\n      dup1\n        /* \"--CODEGEN--\":1546:1549   */\n      0xc0\n        /* \"--CODEGEN--\":1534:1543   */\n      dup8\n        /* \"--CODEGEN--\":1525:1532   */\n      dup10\n        /* \"--CODEGEN--\":1521:1544   */\n      sub\n        /* \"--CODEGEN--\":1517:1550   */\n      slt\n        /* \"--CODEGEN--\":1514:1516   */\n      iszero\n      tag_337\n      jumpi\n        /* \"--CODEGEN--\":1563:1564   */\n      0x0\n        /* \"--CODEGEN--\":1560:1561   */\n      dup1\n        /* \"--CODEGEN--\":1553:1565   */\n      revert\n        /* \"--CODEGEN--\":1514:1516   */\n    tag_337:\n        /* \"--CODEGEN--\":1598:1599   */\n      0x0\n        /* \"--CODEGEN--\":1615:1668   */\n      tag_338\n        /* \"--CODEGEN--\":1660:1667   */\n      dup10\n        /* \"--CODEGEN--\":1651:1657   */\n      dup3\n        /* \"--CODEGEN--\":1640:1649   */\n      dup11\n        /* \"--CODEGEN--\":1636:1658   */\n      add\n        /* \"--CODEGEN--\":1615:1668   */\n      jump(tag_312)\n    tag_338:\n        /* \"--CODEGEN--\":1605:1668   */\n      swap7\n      pop\n        /* \"--CODEGEN--\":1577:1674   */\n      pop\n        /* \"--CODEGEN--\":1705:1707   */\n      0x20\n        /* \"--CODEGEN--\":1723:1776   */\n      tag_339\n        /* \"--CODEGEN--\":1768:1775   */\n      dup10\n        /* \"--CODEGEN--\":1759:1765   */\n      dup3\n        /* \"--CODEGEN--\":1748:1757   */\n      dup11\n        /* \"--CODEGEN--\":1744:1766   */\n      add\n        /* \"--CODEGEN--\":1723:1776   */\n      jump(tag_312)\n    tag_339:\n        /* \"--CODEGEN--\":1713:1776   */\n      swap6\n      pop\n        /* \"--CODEGEN--\":1684:1782   */\n      pop\n        /* \"--CODEGEN--\":1841:1843   */\n      0x40\n        /* \"--CODEGEN--\":1830:1839   */\n      dup8\n        /* \"--CODEGEN--\":1826:1844   */\n      add\n        /* \"--CODEGEN--\":1813:1845   */\n      calldataload\n        /* \"--CODEGEN--\":1865:1883   */\n      0xffffffffffffffff\n        /* \"--CODEGEN--\":1857:1863   */\n      dup2\n        /* \"--CODEGEN--\":1854:1884   */\n      gt\n        /* \"--CODEGEN--\":1851:1853   */\n      iszero\n      tag_340\n      jumpi\n        /* \"--CODEGEN--\":1897:1898   */\n      0x0\n        /* \"--CODEGEN--\":1894:1895   */\n      dup1\n        /* \"--CODEGEN--\":1887:1899   */\n      revert\n        /* \"--CODEGEN--\":1851:1853   */\n    tag_340:\n        /* \"--CODEGEN--\":1917:1980   */\n      tag_341\n        /* \"--CODEGEN--\":1972:1979   */\n      dup10\n        /* \"--CODEGEN--\":1963:1969   */\n      dup3\n        /* \"--CODEGEN--\":1952:1961   */\n      dup11\n        /* \"--CODEGEN--\":1948:1970   */\n      add\n        /* \"--CODEGEN--\":1917:1980   */\n      jump(tag_316)\n    tag_341:\n        /* \"--CODEGEN--\":1907:1980   */\n      swap5\n      pop\n        /* \"--CODEGEN--\":1792:1986   */\n      pop\n        /* \"--CODEGEN--\":2045:2047   */\n      0x60\n        /* \"--CODEGEN--\":2034:2043   */\n      dup8\n        /* \"--CODEGEN--\":2030:2048   */\n      add\n        /* \"--CODEGEN--\":2017:2049   */\n      calldataload\n        /* \"--CODEGEN--\":2069:2087   */\n      0xffffffffffffffff\n        /* \"--CODEGEN--\":2061:2067   */\n      dup2\n        /* \"--CODEGEN--\":2058:2088   */\n      gt\n        /* \"--CODEGEN--\":2055:2057   */\n      iszero\n      tag_342\n      jumpi\n        /* \"--CODEGEN--\":2101:2102   */\n      0x0\n        /* \"--CODEGEN--\":2098:2099   */\n      dup1\n        /* \"--CODEGEN--\":2091:2103   */\n      revert\n        /* \"--CODEGEN--\":2055:2057   */\n    tag_342:\n        /* \"--CODEGEN--\":2121:2184   */\n      tag_343\n        /* \"--CODEGEN--\":2176:2183   */\n      dup10\n        /* \"--CODEGEN--\":2167:2173   */\n      dup3\n        /* \"--CODEGEN--\":2156:2165   */\n      dup11\n        /* \"--CODEGEN--\":2152:2174   */\n      add\n        /* \"--CODEGEN--\":2121:2184   */\n      jump(tag_316)\n    tag_343:\n        /* \"--CODEGEN--\":2111:2184   */\n      swap4\n      pop\n        /* \"--CODEGEN--\":1996:2190   */\n      pop\n        /* \"--CODEGEN--\":2249:2252   */\n      0x80\n        /* \"--CODEGEN--\":2238:2247   */\n      dup8\n        /* \"--CODEGEN--\":2234:2253   */\n      add\n        /* \"--CODEGEN--\":2221:2254   */\n      calldataload\n        /* \"--CODEGEN--\":2274:2292   */\n      0xffffffffffffffff\n        /* \"--CODEGEN--\":2266:2272   */\n      dup2\n        /* \"--CODEGEN--\":2263:2293   */\n      gt\n        /* \"--CODEGEN--\":2260:2262   */\n      iszero\n      tag_344\n      jumpi\n        /* \"--CODEGEN--\":2306:2307   */\n      0x0\n        /* \"--CODEGEN--\":2303:2304   */\n      dup1\n        /* \"--CODEGEN--\":2296:2308   */\n      revert\n        /* \"--CODEGEN--\":2260:2262   */\n    tag_344:\n        /* \"--CODEGEN--\":2326:2389   */\n      tag_345\n        /* \"--CODEGEN--\":2381:2388   */\n      dup10\n        /* \"--CODEGEN--\":2372:2378   */\n      dup3\n        /* \"--CODEGEN--\":2361:2370   */\n      dup11\n        /* \"--CODEGEN--\":2357:2379   */\n      add\n        /* \"--CODEGEN--\":2326:2389   */\n      jump(tag_316)\n    tag_345:\n        /* \"--CODEGEN--\":2316:2389   */\n      swap3\n      pop\n        /* \"--CODEGEN--\":2200:2395   */\n      pop\n        /* \"--CODEGEN--\":2426:2429   */\n      0xa0\n        /* \"--CODEGEN--\":2445:2498   */\n      tag_346\n        /* \"--CODEGEN--\":2490:2497   */\n      dup10\n        /* \"--CODEGEN--\":2481:2487   */\n      dup3\n        /* \"--CODEGEN--\":2470:2479   */\n      dup11\n        /* \"--CODEGEN--\":2466:2488   */\n      add\n        /* \"--CODEGEN--\":2445:2498   */\n      jump(tag_326)\n    tag_346:\n        /* \"--CODEGEN--\":2435:2498   */\n      swap2\n      pop\n        /* \"--CODEGEN--\":2405:2504   */\n      pop\n        /* \"--CODEGEN--\":1508:2514   */\n      swap3\n      swap6\n      pop\n      swap3\n      swap6\n      pop\n      swap3\n      swap6\n      jump\n        /* \"--CODEGEN--\":2521:4384   */\n    tag_62:\n      0x0\n      dup1\n      0x0\n      dup1\n      0x0\n      dup1\n      0x0\n      dup1\n        /* \"--CODEGEN--\":2814:2817   */\n      0x100\n        /* \"--CODEGEN--\":2802:2811   */\n      dup10\n        /* \"--CODEGEN--\":2793:2800   */\n      dup12\n        /* \"--CODEGEN--\":2789:2812   */\n      sub\n        /* \"--CODEGEN--\":2785:2818   */\n      slt\n        /* \"--CODEGEN--\":2782:2784   */\n      iszero\n      tag_348\n      jumpi\n        /* \"--CODEGEN--\":2831:2832   */\n      0x0\n        /* \"--CODEGEN--\":2828:2829   */\n      dup1\n        /* \"--CODEGEN--\":2821:2833   */\n      revert\n        /* \"--CODEGEN--\":2782:2784   */\n    tag_348:\n        /* \"--CODEGEN--\":2866:2867   */\n      0x0\n        /* \"--CODEGEN--\":2883:2936   */\n      tag_349\n        /* \"--CODEGEN--\":2928:2935   */\n      dup12\n        /* \"--CODEGEN--\":2919:2925   */\n      dup3\n        /* \"--CODEGEN--\":2908:2917   */\n      dup13\n        /* \"--CODEGEN--\":2904:2926   */\n      add\n        /* \"--CODEGEN--\":2883:2936   */\n      jump(tag_312)\n    tag_349:\n        /* \"--CODEGEN--\":2873:2936   */\n      swap9\n      pop\n        /* \"--CODEGEN--\":2845:2942   */\n      pop\n        /* \"--CODEGEN--\":3001:3003   */\n      0x20\n        /* \"--CODEGEN--\":2990:2999   */\n      dup10\n        /* \"--CODEGEN--\":2986:3004   */\n      add\n        /* \"--CODEGEN--\":2973:3005   */\n      calldataload\n        /* \"--CODEGEN--\":3025:3043   */\n      0xffffffffffffffff\n        /* \"--CODEGEN--\":3017:3023   */\n      dup2\n        /* \"--CODEGEN--\":3014:3044   */\n      gt\n        /* \"--CODEGEN--\":3011:3013   */\n      iszero\n      tag_350\n      jumpi\n        /* \"--CODEGEN--\":3057:3058   */\n      0x0\n        /* \"--CODEGEN--\":3054:3055   */\n      dup1\n        /* \"--CODEGEN--\":3047:3059   */\n      revert\n        /* \"--CODEGEN--\":3011:3013   */\n    tag_350:\n        /* \"--CODEGEN--\":3077:3140   */\n      tag_351\n        /* \"--CODEGEN--\":3132:3139   */\n      dup12\n        /* \"--CODEGEN--\":3123:3129   */\n      dup3\n        /* \"--CODEGEN--\":3112:3121   */\n      dup13\n        /* \"--CODEGEN--\":3108:3130   */\n      add\n        /* \"--CODEGEN--\":3077:3140   */\n      jump(tag_316)\n    tag_351:\n        /* \"--CODEGEN--\":3067:3140   */\n      swap8\n      pop\n        /* \"--CODEGEN--\":2952:3146   */\n      pop\n        /* \"--CODEGEN--\":3205:3207   */\n      0x40\n        /* \"--CODEGEN--\":3194:3203   */\n      dup10\n        /* \"--CODEGEN--\":3190:3208   */\n      add\n        /* \"--CODEGEN--\":3177:3209   */\n      calldataload\n        /* \"--CODEGEN--\":3229:3247   */\n      0xffffffffffffffff\n        /* \"--CODEGEN--\":3221:3227   */\n      dup2\n        /* \"--CODEGEN--\":3218:3248   */\n      gt\n        /* \"--CODEGEN--\":3215:3217   */\n      iszero\n      tag_352\n      jumpi\n        /* \"--CODEGEN--\":3261:3262   */\n      0x0\n        /* \"--CODEGEN--\":3258:3259   */\n      dup1\n        /* \"--CODEGEN--\":3251:3263   */\n      revert\n        /* \"--CODEGEN--\":3215:3217   */\n    tag_352:\n        /* \"--CODEGEN--\":3281:3344   */\n      tag_353\n        /* \"--CODEGEN--\":3336:3343   */\n      dup12\n        /* \"--CODEGEN--\":3327:3333   */\n      dup3\n        /* \"--CODEGEN--\":3316:3325   */\n      dup13\n        /* \"--CODEGEN--\":3312:3334   */\n      add\n        /* \"--CODEGEN--\":3281:3344   */\n      jump(tag_316)\n    tag_353:\n        /* \"--CODEGEN--\":3271:3344   */\n      swap7\n      pop\n        /* \"--CODEGEN--\":3156:3350   */\n      pop\n        /* \"--CODEGEN--\":3409:3411   */\n      0x60\n        /* \"--CODEGEN--\":3398:3407   */\n      dup10\n        /* \"--CODEGEN--\":3394:3412   */\n      add\n        /* \"--CODEGEN--\":3381:3413   */\n      calldataload\n        /* \"--CODEGEN--\":3433:3451   */\n      0xffffffffffffffff\n        /* \"--CODEGEN--\":3425:3431   */\n      dup2\n        /* \"--CODEGEN--\":3422:3452   */\n      gt\n        /* \"--CODEGEN--\":3419:3421   */\n      iszero\n      tag_354\n      jumpi\n        /* \"--CODEGEN--\":3465:3466   */\n      0x0\n        /* \"--CODEGEN--\":3462:3463   */\n      dup1\n        /* \"--CODEGEN--\":3455:3467   */\n      revert\n        /* \"--CODEGEN--\":3419:3421   */\n    tag_354:\n        /* \"--CODEGEN--\":3485:3548   */\n      tag_355\n        /* \"--CODEGEN--\":3540:3547   */\n      dup12\n        /* \"--CODEGEN--\":3531:3537   */\n      dup3\n        /* \"--CODEGEN--\":3520:3529   */\n      dup13\n        /* \"--CODEGEN--\":3516:3538   */\n      add\n        /* \"--CODEGEN--\":3485:3548   */\n      jump(tag_316)\n    tag_355:\n        /* \"--CODEGEN--\":3475:3548   */\n      swap6\n      pop\n        /* \"--CODEGEN--\":3360:3554   */\n      pop\n        /* \"--CODEGEN--\":3613:3616   */\n      0x80\n        /* \"--CODEGEN--\":3602:3611   */\n      dup10\n        /* \"--CODEGEN--\":3598:3617   */\n      add\n        /* \"--CODEGEN--\":3585:3618   */\n      calldataload\n        /* \"--CODEGEN--\":3638:3656   */\n      0xffffffffffffffff\n        /* \"--CODEGEN--\":3630:3636   */\n      dup2\n        /* \"--CODEGEN--\":3627:3657   */\n      gt\n        /* \"--CODEGEN--\":3624:3626   */\n      iszero\n      tag_356\n      jumpi\n        /* \"--CODEGEN--\":3670:3671   */\n      0x0\n        /* \"--CODEGEN--\":3667:3668   */\n      dup1\n        /* \"--CODEGEN--\":3660:3672   */\n      revert\n        /* \"--CODEGEN--\":3624:3626   */\n    tag_356:\n        /* \"--CODEGEN--\":3690:3753   */\n      tag_357\n        /* \"--CODEGEN--\":3745:3752   */\n      dup12\n        /* \"--CODEGEN--\":3736:3742   */\n      dup3\n        /* \"--CODEGEN--\":3725:3734   */\n      dup13\n        /* \"--CODEGEN--\":3721:3743   */\n      add\n        /* \"--CODEGEN--\":3690:3753   */\n      jump(tag_316)\n    tag_357:\n        /* \"--CODEGEN--\":3680:3753   */\n      swap5\n      pop\n        /* \"--CODEGEN--\":3564:3759   */\n      pop\n        /* \"--CODEGEN--\":3818:3821   */\n      0xa0\n        /* \"--CODEGEN--\":3807:3816   */\n      dup10\n        /* \"--CODEGEN--\":3803:3822   */\n      add\n        /* \"--CODEGEN--\":3790:3823   */\n      calldataload\n        /* \"--CODEGEN--\":3843:3861   */\n      0xffffffffffffffff\n        /* \"--CODEGEN--\":3835:3841   */\n      dup2\n        /* \"--CODEGEN--\":3832:3862   */\n      gt\n        /* \"--CODEGEN--\":3829:3831   */\n      iszero\n      tag_358\n      jumpi\n        /* \"--CODEGEN--\":3875:3876   */\n      0x0\n        /* \"--CODEGEN--\":3872:3873   */\n      dup1\n        /* \"--CODEGEN--\":3865:3877   */\n      revert\n        /* \"--CODEGEN--\":3829:3831   */\n    tag_358:\n        /* \"--CODEGEN--\":3895:3958   */\n      tag_359\n        /* \"--CODEGEN--\":3950:3957   */\n      dup12\n        /* \"--CODEGEN--\":3941:3947   */\n      dup3\n        /* \"--CODEGEN--\":3930:3939   */\n      dup13\n        /* \"--CODEGEN--\":3926:3948   */\n      add\n        /* \"--CODEGEN--\":3895:3958   */\n      jump(tag_316)\n    tag_359:\n        /* \"--CODEGEN--\":3885:3958   */\n      swap4\n      pop\n        /* \"--CODEGEN--\":3769:3964   */\n      pop\n        /* \"--CODEGEN--\":4023:4026   */\n      0xc0\n        /* \"--CODEGEN--\":4012:4021   */\n      dup10\n        /* \"--CODEGEN--\":4008:4027   */\n      add\n        /* \"--CODEGEN--\":3995:4028   */\n      calldataload\n        /* \"--CODEGEN--\":4048:4066   */\n      0xffffffffffffffff\n        /* \"--CODEGEN--\":4040:4046   */\n      dup2\n        /* \"--CODEGEN--\":4037:4067   */\n      gt\n        /* \"--CODEGEN--\":4034:4036   */\n      iszero\n      tag_360\n      jumpi\n        /* \"--CODEGEN--\":4080:4081   */\n      0x0\n        /* \"--CODEGEN--\":4077:4078   */\n      dup1\n        /* \"--CODEGEN--\":4070:4082   */\n      revert\n        /* \"--CODEGEN--\":4034:4036   */\n    tag_360:\n        /* \"--CODEGEN--\":4100:4163   */\n      tag_361\n        /* \"--CODEGEN--\":4155:4162   */\n      dup12\n        /* \"--CODEGEN--\":4146:4152   */\n      dup3\n        /* \"--CODEGEN--\":4135:4144   */\n      dup13\n        /* \"--CODEGEN--\":4131:4153   */\n      add\n        /* \"--CODEGEN--\":4100:4163   */\n      jump(tag_316)\n    tag_361:\n        /* \"--CODEGEN--\":4090:4163   */\n      swap3\n      pop\n        /* \"--CODEGEN--\":3974:4169   */\n      pop\n        /* \"--CODEGEN--\":4228:4231   */\n      0xe0\n        /* \"--CODEGEN--\":4217:4226   */\n      dup10\n        /* \"--CODEGEN--\":4213:4232   */\n      add\n        /* \"--CODEGEN--\":4200:4233   */\n      calldataload\n        /* \"--CODEGEN--\":4253:4271   */\n      0xffffffffffffffff\n        /* \"--CODEGEN--\":4245:4251   */\n      dup2\n        /* \"--CODEGEN--\":4242:4272   */\n      gt\n        /* \"--CODEGEN--\":4239:4241   */\n      iszero\n      tag_362\n      jumpi\n        /* \"--CODEGEN--\":4285:4286   */\n      0x0\n        /* \"--CODEGEN--\":4282:4283   */\n      dup1\n        /* \"--CODEGEN--\":4275:4287   */\n      revert\n        /* \"--CODEGEN--\":4239:4241   */\n    tag_362:\n        /* \"--CODEGEN--\":4305:4368   */\n      tag_363\n        /* \"--CODEGEN--\":4360:4367   */\n      dup12\n        /* \"--CODEGEN--\":4351:4357   */\n      dup3\n        /* \"--CODEGEN--\":4340:4349   */\n      dup13\n        /* \"--CODEGEN--\":4336:4358   */\n      add\n        /* \"--CODEGEN--\":4305:4368   */\n      jump(tag_316)\n    tag_363:\n        /* \"--CODEGEN--\":4295:4368   */\n      swap2\n      pop\n        /* \"--CODEGEN--\":4179:4374   */\n      pop\n        /* \"--CODEGEN--\":2776:4384   */\n      swap3\n      swap6\n      swap9\n      pop\n      swap3\n      swap6\n      swap9\n      swap1\n      swap4\n      swap7\n      pop\n      jump\n        /* \"--CODEGEN--\":4391:6718   */\n    tag_88:\n      0x0\n      dup1\n      0x0\n      dup1\n      0x0\n      dup1\n      0x0\n      dup1\n      0x0\n      dup1\n        /* \"--CODEGEN--\":4738:4741   */\n      0x140\n        /* \"--CODEGEN--\":4726:4735   */\n      dup12\n        /* \"--CODEGEN--\":4717:4724   */\n      dup14\n        /* \"--CODEGEN--\":4713:4736   */\n      sub\n        /* \"--CODEGEN--\":4709:4742   */\n      slt\n        /* \"--CODEGEN--\":4706:4708   */\n      iszero\n      tag_365\n      jumpi\n        /* \"--CODEGEN--\":4755:4756   */\n      0x0\n        /* \"--CODEGEN--\":4752:4753   */\n      dup1\n        /* \"--CODEGEN--\":4745:4757   */\n      revert\n        /* \"--CODEGEN--\":4706:4708   */\n    tag_365:\n        /* \"--CODEGEN--\":4790:4791   */\n      0x0\n        /* \"--CODEGEN--\":4807:4860   */\n      tag_366\n        /* \"--CODEGEN--\":4852:4859   */\n      dup14\n        /* \"--CODEGEN--\":4843:4849   */\n      dup3\n        /* \"--CODEGEN--\":4832:4841   */\n      dup15\n        /* \"--CODEGEN--\":4828:4850   */\n      add\n        /* \"--CODEGEN--\":4807:4860   */\n      jump(tag_312)\n    tag_366:\n        /* \"--CODEGEN--\":4797:4860   */\n      swap11\n      pop\n        /* \"--CODEGEN--\":4769:4866   */\n      pop\n        /* \"--CODEGEN--\":4925:4927   */\n      0x20\n        /* \"--CODEGEN--\":4914:4923   */\n      dup12\n        /* \"--CODEGEN--\":4910:4928   */\n      add\n        /* \"--CODEGEN--\":4897:4929   */\n      calldataload\n        /* \"--CODEGEN--\":4949:4967   */\n      0xffffffffffffffff\n        /* \"--CODEGEN--\":4941:4947   */\n      dup2\n        /* \"--CODEGEN--\":4938:4968   */\n      gt\n        /* \"--CODEGEN--\":4935:4937   */\n      iszero\n      tag_367\n      jumpi\n        /* \"--CODEGEN--\":4981:4982   */\n      0x0\n        /* \"--CODEGEN--\":4978:4979   */\n      dup1\n        /* \"--CODEGEN--\":4971:4983   */\n      revert\n        /* \"--CODEGEN--\":4935:4937   */\n    tag_367:\n        /* \"--CODEGEN--\":5001:5064   */\n      tag_368\n        /* \"--CODEGEN--\":5056:5063   */\n      dup14\n        /* \"--CODEGEN--\":5047:5053   */\n      dup3\n        /* \"--CODEGEN--\":5036:5045   */\n      dup15\n        /* \"--CODEGEN--\":5032:5054   */\n      add\n        /* \"--CODEGEN--\":5001:5064   */\n      jump(tag_316)\n    tag_368:\n        /* \"--CODEGEN--\":4991:5064   */\n      swap10\n      pop\n        /* \"--CODEGEN--\":4876:5070   */\n      pop\n        /* \"--CODEGEN--\":5129:5131   */\n      0x40\n        /* \"--CODEGEN--\":5118:5127   */\n      dup12\n        /* \"--CODEGEN--\":5114:5132   */\n      add\n        /* \"--CODEGEN--\":5101:5133   */\n      calldataload\n        /* \"--CODEGEN--\":5153:5171   */\n      0xffffffffffffffff\n        /* \"--CODEGEN--\":5145:5151   */\n      dup2\n        /* \"--CODEGEN--\":5142:5172   */\n      gt\n        /* \"--CODEGEN--\":5139:5141   */\n      iszero\n      tag_369\n      jumpi\n        /* \"--CODEGEN--\":5185:5186   */\n      0x0\n        /* \"--CODEGEN--\":5182:5183   */\n      dup1\n        /* \"--CODEGEN--\":5175:5187   */\n      revert\n        /* \"--CODEGEN--\":5139:5141   */\n    tag_369:\n        /* \"--CODEGEN--\":5205:5268   */\n      tag_370\n        /* \"--CODEGEN--\":5260:5267   */\n      dup14\n        /* \"--CODEGEN--\":5251:5257   */\n      dup3\n        /* \"--CODEGEN--\":5240:5249   */\n      dup15\n        /* \"--CODEGEN--\":5236:5258   */\n      add\n        /* \"--CODEGEN--\":5205:5268   */\n      jump(tag_316)\n    tag_370:\n        /* \"--CODEGEN--\":5195:5268   */\n      swap9\n      pop\n        /* \"--CODEGEN--\":5080:5274   */\n      pop\n        /* \"--CODEGEN--\":5333:5335   */\n      0x60\n        /* \"--CODEGEN--\":5322:5331   */\n      dup12\n        /* \"--CODEGEN--\":5318:5336   */\n      add\n        /* \"--CODEGEN--\":5305:5337   */\n      calldataload\n        /* \"--CODEGEN--\":5357:5375   */\n      0xffffffffffffffff\n        /* \"--CODEGEN--\":5349:5355   */\n      dup2\n        /* \"--CODEGEN--\":5346:5376   */\n      gt\n        /* \"--CODEGEN--\":5343:5345   */\n      iszero\n      tag_371\n      jumpi\n        /* \"--CODEGEN--\":5389:5390   */\n      0x0\n        /* \"--CODEGEN--\":5386:5387   */\n      dup1\n        /* \"--CODEGEN--\":5379:5391   */\n      revert\n        /* \"--CODEGEN--\":5343:5345   */\n    tag_371:\n        /* \"--CODEGEN--\":5409:5472   */\n      tag_372\n        /* \"--CODEGEN--\":5464:5471   */\n      dup14\n        /* \"--CODEGEN--\":5455:5461   */\n      dup3\n        /* \"--CODEGEN--\":5444:5453   */\n      dup15\n        /* \"--CODEGEN--\":5440:5462   */\n      add\n        /* \"--CODEGEN--\":5409:5472   */\n      jump(tag_316)\n    tag_372:\n        /* \"--CODEGEN--\":5399:5472   */\n      swap8\n      pop\n        /* \"--CODEGEN--\":5284:5478   */\n      pop\n        /* \"--CODEGEN--\":5537:5540   */\n      0x80\n        /* \"--CODEGEN--\":5526:5535   */\n      dup12\n        /* \"--CODEGEN--\":5522:5541   */\n      add\n        /* \"--CODEGEN--\":5509:5542   */\n      calldataload\n        /* \"--CODEGEN--\":5562:5580   */\n      0xffffffffffffffff\n        /* \"--CODEGEN--\":5554:5560   */\n      dup2\n        /* \"--CODEGEN--\":5551:5581   */\n      gt\n        /* \"--CODEGEN--\":5548:5550   */\n      iszero\n      tag_373\n      jumpi\n        /* \"--CODEGEN--\":5594:5595   */\n      0x0\n        /* \"--CODEGEN--\":5591:5592   */\n      dup1\n        /* \"--CODEGEN--\":5584:5596   */\n      revert\n        /* \"--CODEGEN--\":5548:5550   */\n    tag_373:\n        /* \"--CODEGEN--\":5614:5677   */\n      tag_374\n        /* \"--CODEGEN--\":5669:5676   */\n      dup14\n        /* \"--CODEGEN--\":5660:5666   */\n      dup3\n        /* \"--CODEGEN--\":5649:5658   */\n      dup15\n        /* \"--CODEGEN--\":5645:5667   */\n      add\n        /* \"--CODEGEN--\":5614:5677   */\n      jump(tag_316)\n    tag_374:\n        /* \"--CODEGEN--\":5604:5677   */\n      swap7\n      pop\n        /* \"--CODEGEN--\":5488:5683   */\n      pop\n        /* \"--CODEGEN--\":5742:5745   */\n      0xa0\n        /* \"--CODEGEN--\":5731:5740   */\n      dup12\n        /* \"--CODEGEN--\":5727:5746   */\n      add\n        /* \"--CODEGEN--\":5714:5747   */\n      calldataload\n        /* \"--CODEGEN--\":5767:5785   */\n      0xffffffffffffffff\n        /* \"--CODEGEN--\":5759:5765   */\n      dup2\n        /* \"--CODEGEN--\":5756:5786   */\n      gt\n        /* \"--CODEGEN--\":5753:5755   */\n      iszero\n      tag_375\n      jumpi\n        /* \"--CODEGEN--\":5799:5800   */\n      0x0\n        /* \"--CODEGEN--\":5796:5797   */\n      dup1\n        /* \"--CODEGEN--\":5789:5801   */\n      revert\n        /* \"--CODEGEN--\":5753:5755   */\n    tag_375:\n        /* \"--CODEGEN--\":5819:5882   */\n      tag_376\n        /* \"--CODEGEN--\":5874:5881   */\n      dup14\n        /* \"--CODEGEN--\":5865:5871   */\n      dup3\n        /* \"--CODEGEN--\":5854:5863   */\n      dup15\n        /* \"--CODEGEN--\":5850:5872   */\n      add\n        /* \"--CODEGEN--\":5819:5882   */\n      jump(tag_316)\n    tag_376:\n        /* \"--CODEGEN--\":5809:5882   */\n      swap6\n      pop\n        /* \"--CODEGEN--\":5693:5888   */\n      pop\n        /* \"--CODEGEN--\":5947:5950   */\n      0xc0\n        /* \"--CODEGEN--\":5936:5945   */\n      dup12\n        /* \"--CODEGEN--\":5932:5951   */\n      add\n        /* \"--CODEGEN--\":5919:5952   */\n      calldataload\n        /* \"--CODEGEN--\":5972:5990   */\n      0xffffffffffffffff\n        /* \"--CODEGEN--\":5964:5970   */\n      dup2\n        /* \"--CODEGEN--\":5961:5991   */\n      gt\n        /* \"--CODEGEN--\":5958:5960   */\n      iszero\n      tag_377\n      jumpi\n        /* \"--CODEGEN--\":6004:6005   */\n      0x0\n        /* \"--CODEGEN--\":6001:6002   */\n      dup1\n        /* \"--CODEGEN--\":5994:6006   */\n      revert\n        /* \"--CODEGEN--\":5958:5960   */\n    tag_377:\n        /* \"--CODEGEN--\":6024:6087   */\n      tag_378\n        /* \"--CODEGEN--\":6079:6086   */\n      dup14\n        /* \"--CODEGEN--\":6070:6076   */\n      dup3\n        /* \"--CODEGEN--\":6059:6068   */\n      dup15\n        /* \"--CODEGEN--\":6055:6077   */\n      add\n        /* \"--CODEGEN--\":6024:6087   */\n      jump(tag_316)\n    tag_378:\n        /* \"--CODEGEN--\":6014:6087   */\n      swap5\n      pop\n        /* \"--CODEGEN--\":5898:6093   */\n      pop\n        /* \"--CODEGEN--\":6152:6155   */\n      0xe0\n        /* \"--CODEGEN--\":6141:6150   */\n      dup12\n        /* \"--CODEGEN--\":6137:6156   */\n      add\n        /* \"--CODEGEN--\":6124:6157   */\n      calldataload\n        /* \"--CODEGEN--\":6177:6195   */\n      0xffffffffffffffff\n        /* \"--CODEGEN--\":6169:6175   */\n      dup2\n        /* \"--CODEGEN--\":6166:6196   */\n      gt\n        /* \"--CODEGEN--\":6163:6165   */\n      iszero\n      tag_379\n      jumpi\n        /* \"--CODEGEN--\":6209:6210   */\n      0x0\n        /* \"--CODEGEN--\":6206:6207   */\n      dup1\n        /* \"--CODEGEN--\":6199:6211   */\n      revert\n        /* \"--CODEGEN--\":6163:6165   */\n    tag_379:\n        /* \"--CODEGEN--\":6229:6292   */\n      tag_380\n        /* \"--CODEGEN--\":6284:6291   */\n      dup14\n        /* \"--CODEGEN--\":6275:6281   */\n      dup3\n        /* \"--CODEGEN--\":6264:6273   */\n      dup15\n        /* \"--CODEGEN--\":6260:6282   */\n      add\n        /* \"--CODEGEN--\":6229:6292   */\n      jump(tag_316)\n    tag_380:\n        /* \"--CODEGEN--\":6219:6292   */\n      swap4\n      pop\n        /* \"--CODEGEN--\":6103:6298   */\n      pop\n        /* \"--CODEGEN--\":6357:6360   */\n      0x100\n        /* \"--CODEGEN--\":6346:6355   */\n      dup12\n        /* \"--CODEGEN--\":6342:6361   */\n      add\n        /* \"--CODEGEN--\":6329:6362   */\n      calldataload\n        /* \"--CODEGEN--\":6382:6400   */\n      0xffffffffffffffff\n        /* \"--CODEGEN--\":6374:6380   */\n      dup2\n        /* \"--CODEGEN--\":6371:6401   */\n      gt\n        /* \"--CODEGEN--\":6368:6370   */\n      iszero\n      tag_381\n      jumpi\n        /* \"--CODEGEN--\":6414:6415   */\n      0x0\n        /* \"--CODEGEN--\":6411:6412   */\n      dup1\n        /* \"--CODEGEN--\":6404:6416   */\n      revert\n        /* \"--CODEGEN--\":6368:6370   */\n    tag_381:\n        /* \"--CODEGEN--\":6434:6497   */\n      tag_382\n        /* \"--CODEGEN--\":6489:6496   */\n      dup14\n        /* \"--CODEGEN--\":6480:6486   */\n      dup3\n        /* \"--CODEGEN--\":6469:6478   */\n      dup15\n        /* \"--CODEGEN--\":6465:6487   */\n      add\n        /* \"--CODEGEN--\":6434:6497   */\n      jump(tag_316)\n    tag_382:\n        /* \"--CODEGEN--\":6424:6497   */\n      swap3\n      pop\n        /* \"--CODEGEN--\":6308:6503   */\n      pop\n        /* \"--CODEGEN--\":6562:6565   */\n      0x120\n        /* \"--CODEGEN--\":6551:6560   */\n      dup12\n        /* \"--CODEGEN--\":6547:6566   */\n      add\n        /* \"--CODEGEN--\":6534:6567   */\n      calldataload\n        /* \"--CODEGEN--\":6587:6605   */\n      0xffffffffffffffff\n        /* \"--CODEGEN--\":6579:6585   */\n      dup2\n        /* \"--CODEGEN--\":6576:6606   */\n      gt\n        /* \"--CODEGEN--\":6573:6575   */\n      iszero\n      tag_383\n      jumpi\n        /* \"--CODEGEN--\":6619:6620   */\n      0x0\n        /* \"--CODEGEN--\":6616:6617   */\n      dup1\n        /* \"--CODEGEN--\":6609:6621   */\n      revert\n        /* \"--CODEGEN--\":6573:6575   */\n    tag_383:\n        /* \"--CODEGEN--\":6639:6702   */\n      tag_384\n        /* \"--CODEGEN--\":6694:6701   */\n      dup14\n        /* \"--CODEGEN--\":6685:6691   */\n      dup3\n        /* \"--CODEGEN--\":6674:6683   */\n      dup15\n        /* \"--CODEGEN--\":6670:6692   */\n      add\n        /* \"--CODEGEN--\":6639:6702   */\n      jump(tag_316)\n    tag_384:\n        /* \"--CODEGEN--\":6629:6702   */\n      swap2\n      pop\n        /* \"--CODEGEN--\":6513:6708   */\n      pop\n        /* \"--CODEGEN--\":4700:6718   */\n      swap3\n      swap6\n      swap9\n      swap12\n      swap2\n      swap5\n      swap8\n      swap11\n      pop\n      swap3\n      swap6\n      swap9\n      pop\n      jump\n        /* \"--CODEGEN--\":6725:6966   */\n    tag_55:\n      0x0\n        /* \"--CODEGEN--\":6829:6831   */\n      0x20\n        /* \"--CODEGEN--\":6817:6826   */\n      dup3\n        /* \"--CODEGEN--\":6808:6815   */\n      dup5\n        /* \"--CODEGEN--\":6804:6827   */\n      sub\n        /* \"--CODEGEN--\":6800:6832   */\n      slt\n        /* \"--CODEGEN--\":6797:6799   */\n      iszero\n      tag_386\n      jumpi\n        /* \"--CODEGEN--\":6845:6846   */\n      0x0\n        /* \"--CODEGEN--\":6842:6843   */\n      dup1\n        /* \"--CODEGEN--\":6835:6847   */\n      revert\n        /* \"--CODEGEN--\":6797:6799   */\n    tag_386:\n        /* \"--CODEGEN--\":6880:6881   */\n      0x0\n        /* \"--CODEGEN--\":6897:6950   */\n      tag_387\n        /* \"--CODEGEN--\":6942:6949   */\n      dup5\n        /* \"--CODEGEN--\":6933:6939   */\n      dup3\n        /* \"--CODEGEN--\":6922:6931   */\n      dup6\n        /* \"--CODEGEN--\":6918:6940   */\n      add\n        /* \"--CODEGEN--\":6897:6950   */\n      jump(tag_326)\n    tag_387:\n        /* \"--CODEGEN--\":6887:6950   */\n      swap2\n      pop\n        /* \"--CODEGEN--\":6859:6956   */\n      pop\n        /* \"--CODEGEN--\":6791:6966   */\n      swap3\n      swap2\n      pop\n      pop\n      jump\n        /* \"--CODEGEN--\":6973:7083   */\n    tag_389:\n        /* \"--CODEGEN--\":7046:7077   */\n      tag_390\n        /* \"--CODEGEN--\":7071:7076   */\n      dup2\n        /* \"--CODEGEN--\":7046:7077   */\n      jump(tag_391)\n    tag_390:\n        /* \"--CODEGEN--\":7041:7044   */\n      dup3\n        /* \"--CODEGEN--\":7034:7078   */\n      mstore\n        /* \"--CODEGEN--\":7028:7083   */\n      pop\n      pop\n      jump\n        /* \"--CODEGEN--\":7121:7711   */\n    tag_393:\n      0x0\n        /* \"--CODEGEN--\":7256:7310   */\n      tag_394\n        /* \"--CODEGEN--\":7304:7309   */\n      dup3\n        /* \"--CODEGEN--\":7256:7310   */\n      jump(tag_395)\n    tag_394:\n        /* \"--CODEGEN--\":7328:7334   */\n      dup1\n        /* \"--CODEGEN--\":7323:7326   */\n      dup5\n        /* \"--CODEGEN--\":7316:7335   */\n      mstore\n        /* \"--CODEGEN--\":7352:7356   */\n      0x20\n        /* \"--CODEGEN--\":7347:7350   */\n      dup5\n        /* \"--CODEGEN--\":7343:7357   */\n      add\n        /* \"--CODEGEN--\":7336:7357   */\n      swap4\n      pop\n        /* \"--CODEGEN--\":7397:7453   */\n      tag_396\n        /* \"--CODEGEN--\":7447:7452   */\n      dup4\n        /* \"--CODEGEN--\":7397:7453   */\n      jump(tag_397)\n    tag_396:\n        /* \"--CODEGEN--\":7474:7475   */\n      0x0\n        /* \"--CODEGEN--\":7459:7689   */\n    tag_398:\n        /* \"--CODEGEN--\":7484:7490   */\n      dup3\n        /* \"--CODEGEN--\":7481:7482   */\n      dup2\n        /* \"--CODEGEN--\":7478:7491   */\n      lt\n        /* \"--CODEGEN--\":7459:7689   */\n      iszero\n      tag_399\n      jumpi\n        /* \"--CODEGEN--\":7524:7577   */\n      tag_401\n        /* \"--CODEGEN--\":7573:7576   */\n      dup7\n        /* \"--CODEGEN--\":7564:7570   */\n      dup4\n        /* \"--CODEGEN--\":7558:7571   */\n      mload\n        /* \"--CODEGEN--\":7524:7577   */\n      jump(tag_389)\n    tag_401:\n        /* \"--CODEGEN--\":7594:7654   */\n      tag_402\n        /* \"--CODEGEN--\":7647:7653   */\n      dup3\n        /* \"--CODEGEN--\":7594:7654   */\n      jump(tag_403)\n    tag_402:\n        /* \"--CODEGEN--\":7584:7654   */\n      swap2\n      pop\n        /* \"--CODEGEN--\":7677:7681   */\n      0x20\n        /* \"--CODEGEN--\":7672:7675   */\n      dup7\n        /* \"--CODEGEN--\":7668:7682   */\n      add\n        /* \"--CODEGEN--\":7661:7682   */\n      swap6\n      pop\n        /* \"--CODEGEN--\":7506:7507   */\n      0x1\n        /* \"--CODEGEN--\":7503:7504   */\n      dup2\n        /* \"--CODEGEN--\":7499:7508   */\n      add\n        /* \"--CODEGEN--\":7494:7508   */\n      swap1\n      pop\n        /* \"--CODEGEN--\":7459:7689   */\n      jump(tag_398)\n    tag_399:\n        /* \"--CODEGEN--\":7463:7477   */\n      pop\n        /* \"--CODEGEN--\":7702:7705   */\n      dup5\n        /* \"--CODEGEN--\":7695:7705   */\n      swap3\n      pop\n        /* \"--CODEGEN--\":7235:7711   */\n      pop\n      pop\n      swap3\n      swap2\n      pop\n      pop\n      jump\n        /* \"--CODEGEN--\":7719:7820   */\n    tag_405:\n        /* \"--CODEGEN--\":7786:7814   */\n      tag_406\n        /* \"--CODEGEN--\":7808:7813   */\n      dup2\n        /* \"--CODEGEN--\":7786:7814   */\n      jump(tag_407)\n    tag_406:\n        /* \"--CODEGEN--\":7781:7784   */\n      dup3\n        /* \"--CODEGEN--\":7774:7815   */\n      mstore\n        /* \"--CODEGEN--\":7768:7820   */\n      pop\n      pop\n      jump\n        /* \"--CODEGEN--\":7827:8127   */\n    tag_409:\n      0x0\n        /* \"--CODEGEN--\":7929:7968   */\n      tag_410\n        /* \"--CODEGEN--\":7962:7967   */\n      dup3\n        /* \"--CODEGEN--\":7929:7968   */\n      jump(tag_411)\n    tag_410:\n        /* \"--CODEGEN--\":7985:7991   */\n      dup1\n        /* \"--CODEGEN--\":7980:7983   */\n      dup5\n        /* \"--CODEGEN--\":7973:7992   */\n      mstore\n        /* \"--CODEGEN--\":7997:8060   */\n      tag_412\n        /* \"--CODEGEN--\":8053:8059   */\n      dup2\n        /* \"--CODEGEN--\":8046:8050   */\n      0x20\n        /* \"--CODEGEN--\":8041:8044   */\n      dup7\n        /* \"--CODEGEN--\":8037:8051   */\n      add\n        /* \"--CODEGEN--\":8030:8034   */\n      0x20\n        /* \"--CODEGEN--\":8023:8028   */\n      dup7\n        /* \"--CODEGEN--\":8019:8035   */\n      add\n        /* \"--CODEGEN--\":7997:8060   */\n      jump(tag_413)\n    tag_412:\n        /* \"--CODEGEN--\":8092:8121   */\n      tag_414\n        /* \"--CODEGEN--\":8114:8120   */\n      dup2\n        /* \"--CODEGEN--\":8092:8121   */\n      jump(tag_415)\n    tag_414:\n        /* \"--CODEGEN--\":8085:8089   */\n      0x20\n        /* \"--CODEGEN--\":8080:8083   */\n      dup6\n        /* \"--CODEGEN--\":8076:8090   */\n      add\n        /* \"--CODEGEN--\":8072:8122   */\n      add\n        /* \"--CODEGEN--\":8065:8122   */\n      swap2\n      pop\n        /* \"--CODEGEN--\":7909:8127   */\n      pop\n      swap3\n      swap2\n      pop\n      pop\n      jump\n        /* \"--CODEGEN--\":8134:8244   */\n    tag_417:\n        /* \"--CODEGEN--\":8207:8238   */\n      tag_418\n        /* \"--CODEGEN--\":8232:8237   */\n      dup2\n        /* \"--CODEGEN--\":8207:8238   */\n      jump(tag_419)\n    tag_418:\n        /* \"--CODEGEN--\":8202:8205   */\n      dup3\n        /* \"--CODEGEN--\":8195:8239   */\n      mstore\n        /* \"--CODEGEN--\":8189:8244   */\n      pop\n      pop\n      jump\n        /* \"--CODEGEN--\":8251:8444   */\n    tag_58:\n      0x0\n        /* \"--CODEGEN--\":8359:8361   */\n      0x20\n        /* \"--CODEGEN--\":8348:8357   */\n      dup3\n        /* \"--CODEGEN--\":8344:8362   */\n      add\n        /* \"--CODEGEN--\":8336:8362   */\n      swap1\n      pop\n        /* \"--CODEGEN--\":8373:8434   */\n      tag_421\n        /* \"--CODEGEN--\":8431:8432   */\n      0x0\n        /* \"--CODEGEN--\":8420:8429   */\n      dup4\n        /* \"--CODEGEN--\":8416:8433   */\n      add\n        /* \"--CODEGEN--\":8407:8413   */\n      dup5\n        /* \"--CODEGEN--\":8373:8434   */\n      jump(tag_389)\n    tag_421:\n        /* \"--CODEGEN--\":8330:8444   */\n      swap3\n      swap2\n      pop\n      pop\n      jump\n        /* \"--CODEGEN--\":8451:8792   */\n    tag_35:\n      0x0\n        /* \"--CODEGEN--\":8609:8611   */\n      0x20\n        /* \"--CODEGEN--\":8598:8607   */\n      dup3\n        /* \"--CODEGEN--\":8594:8612   */\n      add\n        /* \"--CODEGEN--\":8586:8612   */\n      swap1\n      pop\n        /* \"--CODEGEN--\":8659:8668   */\n      dup2\n        /* \"--CODEGEN--\":8653:8657   */\n      dup2\n        /* \"--CODEGEN--\":8649:8669   */\n      sub\n        /* \"--CODEGEN--\":8645:8646   */\n      0x0\n        /* \"--CODEGEN--\":8634:8643   */\n      dup4\n        /* \"--CODEGEN--\":8630:8647   */\n      add\n        /* \"--CODEGEN--\":8623:8670   */\n      mstore\n        /* \"--CODEGEN--\":8684:8782   */\n      tag_423\n        /* \"--CODEGEN--\":8777:8781   */\n      dup2\n        /* \"--CODEGEN--\":8768:8774   */\n      dup5\n        /* \"--CODEGEN--\":8684:8782   */\n      jump(tag_393)\n    tag_423:\n        /* \"--CODEGEN--\":8676:8782   */\n      swap1\n      pop\n        /* \"--CODEGEN--\":8580:8792   */\n      swap3\n      swap2\n      pop\n      pop\n      jump\n        /* \"--CODEGEN--\":8799:8980   */\n    tag_73:\n      0x0\n        /* \"--CODEGEN--\":8901:8903   */\n      0x20\n        /* \"--CODEGEN--\":8890:8899   */\n      dup3\n        /* \"--CODEGEN--\":8886:8904   */\n      add\n        /* \"--CODEGEN--\":8878:8904   */\n      swap1\n      pop\n        /* \"--CODEGEN--\":8915:8970   */\n      tag_425\n        /* \"--CODEGEN--\":8967:8968   */\n      0x0\n        /* \"--CODEGEN--\":8956:8965   */\n      dup4\n        /* \"--CODEGEN--\":8952:8969   */\n      add\n        /* \"--CODEGEN--\":8943:8949   */\n      dup5\n        /* \"--CODEGEN--\":8915:8970   */\n      jump(tag_405)\n    tag_425:\n        /* \"--CODEGEN--\":8872:8980   */\n      swap3\n      swap2\n      pop\n      pop\n      jump\n        /* \"--CODEGEN--\":8987:10318   */\n    tag_47:\n      0x0\n        /* \"--CODEGEN--\":9383:9386   */\n      0xe0\n        /* \"--CODEGEN--\":9372:9381   */\n      dup3\n        /* \"--CODEGEN--\":9368:9387   */\n      add\n        /* \"--CODEGEN--\":9360:9387   */\n      swap1\n      pop\n        /* \"--CODEGEN--\":9434:9443   */\n      dup2\n        /* \"--CODEGEN--\":9428:9432   */\n      dup2\n        /* \"--CODEGEN--\":9424:9444   */\n      sub\n        /* \"--CODEGEN--\":9420:9421   */\n      0x0\n        /* \"--CODEGEN--\":9409:9418   */\n      dup4\n        /* \"--CODEGEN--\":9405:9422   */\n      add\n        /* \"--CODEGEN--\":9398:9445   */\n      mstore\n        /* \"--CODEGEN--\":9459:9527   */\n      tag_427\n        /* \"--CODEGEN--\":9522:9526   */\n      dup2\n        /* \"--CODEGEN--\":9513:9519   */\n      dup11\n        /* \"--CODEGEN--\":9459:9527   */\n      jump(tag_409)\n    tag_427:\n        /* \"--CODEGEN--\":9451:9527   */\n      swap1\n      pop\n        /* \"--CODEGEN--\":9575:9584   */\n      dup2\n        /* \"--CODEGEN--\":9569:9573   */\n      dup2\n        /* \"--CODEGEN--\":9565:9585   */\n      sub\n        /* \"--CODEGEN--\":9560:9562   */\n      0x20\n        /* \"--CODEGEN--\":9549:9558   */\n      dup4\n        /* \"--CODEGEN--\":9545:9563   */\n      add\n        /* \"--CODEGEN--\":9538:9586   */\n      mstore\n        /* \"--CODEGEN--\":9600:9668   */\n      tag_428\n        /* \"--CODEGEN--\":9663:9667   */\n      dup2\n        /* \"--CODEGEN--\":9654:9660   */\n      dup10\n        /* \"--CODEGEN--\":9600:9668   */\n      jump(tag_409)\n    tag_428:\n        /* \"--CODEGEN--\":9592:9668   */\n      swap1\n      pop\n        /* \"--CODEGEN--\":9716:9725   */\n      dup2\n        /* \"--CODEGEN--\":9710:9714   */\n      dup2\n        /* \"--CODEGEN--\":9706:9726   */\n      sub\n        /* \"--CODEGEN--\":9701:9703   */\n      0x40\n        /* \"--CODEGEN--\":9690:9699   */\n      dup4\n        /* \"--CODEGEN--\":9686:9704   */\n      add\n        /* \"--CODEGEN--\":9679:9727   */\n      mstore\n        /* \"--CODEGEN--\":9741:9809   */\n      tag_429\n        /* \"--CODEGEN--\":9804:9808   */\n      dup2\n        /* \"--CODEGEN--\":9795:9801   */\n      dup9\n        /* \"--CODEGEN--\":9741:9809   */\n      jump(tag_409)\n    tag_429:\n        /* \"--CODEGEN--\":9733:9809   */\n      swap1\n      pop\n        /* \"--CODEGEN--\":9857:9866   */\n      dup2\n        /* \"--CODEGEN--\":9851:9855   */\n      dup2\n        /* \"--CODEGEN--\":9847:9867   */\n      sub\n        /* \"--CODEGEN--\":9842:9844   */\n      0x60\n        /* \"--CODEGEN--\":9831:9840   */\n      dup4\n        /* \"--CODEGEN--\":9827:9845   */\n      add\n        /* \"--CODEGEN--\":9820:9868   */\n      mstore\n        /* \"--CODEGEN--\":9882:9950   */\n      tag_430\n        /* \"--CODEGEN--\":9945:9949   */\n      dup2\n        /* \"--CODEGEN--\":9936:9942   */\n      dup8\n        /* \"--CODEGEN--\":9882:9950   */\n      jump(tag_409)\n    tag_430:\n        /* \"--CODEGEN--\":9874:9950   */\n      swap1\n      pop\n        /* \"--CODEGEN--\":9999:10008   */\n      dup2\n        /* \"--CODEGEN--\":9993:9997   */\n      dup2\n        /* \"--CODEGEN--\":9989:10009   */\n      sub\n        /* \"--CODEGEN--\":9983:9986   */\n      0x80\n        /* \"--CODEGEN--\":9972:9981   */\n      dup4\n        /* \"--CODEGEN--\":9968:9987   */\n      add\n        /* \"--CODEGEN--\":9961:10010   */\n      mstore\n        /* \"--CODEGEN--\":10024:10092   */\n      tag_431\n        /* \"--CODEGEN--\":10087:10091   */\n      dup2\n        /* \"--CODEGEN--\":10078:10084   */\n      dup7\n        /* \"--CODEGEN--\":10024:10092   */\n      jump(tag_409)\n    tag_431:\n        /* \"--CODEGEN--\":10016:10092   */\n      swap1\n      pop\n        /* \"--CODEGEN--\":10141:10150   */\n      dup2\n        /* \"--CODEGEN--\":10135:10139   */\n      dup2\n        /* \"--CODEGEN--\":10131:10151   */\n      sub\n        /* \"--CODEGEN--\":10125:10128   */\n      0xa0\n        /* \"--CODEGEN--\":10114:10123   */\n      dup4\n        /* \"--CODEGEN--\":10110:10129   */\n      add\n        /* \"--CODEGEN--\":10103:10152   */\n      mstore\n        /* \"--CODEGEN--\":10166:10234   */\n      tag_432\n        /* \"--CODEGEN--\":10229:10233   */\n      dup2\n        /* \"--CODEGEN--\":10220:10226   */\n      dup6\n        /* \"--CODEGEN--\":10166:10234   */\n      jump(tag_409)\n    tag_432:\n        /* \"--CODEGEN--\":10158:10234   */\n      swap1\n      pop\n        /* \"--CODEGEN--\":10245:10308   */\n      tag_433\n        /* \"--CODEGEN--\":10303:10306   */\n      0xc0\n        /* \"--CODEGEN--\":10292:10301   */\n      dup4\n        /* \"--CODEGEN--\":10288:10307   */\n      add\n        /* \"--CODEGEN--\":10279:10285   */\n      dup5\n        /* \"--CODEGEN--\":10245:10308   */\n      jump(tag_389)\n    tag_433:\n        /* \"--CODEGEN--\":9354:10318   */\n      swap9\n      swap8\n      pop\n      pop\n      pop\n      pop\n      pop\n      pop\n      pop\n      pop\n      jump\n        /* \"--CODEGEN--\":10325:11744   */\n    tag_156:\n      0x0\n        /* \"--CODEGEN--\":10741:10744   */\n      0xe0\n        /* \"--CODEGEN--\":10730:10739   */\n      dup3\n        /* \"--CODEGEN--\":10726:10745   */\n      add\n        /* \"--CODEGEN--\":10718:10745   */\n      swap1\n      pop\n        /* \"--CODEGEN--\":10792:10801   */\n      dup2\n        /* \"--CODEGEN--\":10786:10790   */\n      dup2\n        /* \"--CODEGEN--\":10782:10802   */\n      sub\n        /* \"--CODEGEN--\":10778:10779   */\n      0x0\n        /* \"--CODEGEN--\":10767:10776   */\n      dup4\n        /* \"--CODEGEN--\":10763:10780   */\n      add\n        /* \"--CODEGEN--\":10756:10803   */\n      mstore\n        /* \"--CODEGEN--\":10817:10885   */\n      tag_435\n        /* \"--CODEGEN--\":10880:10884   */\n      dup2\n        /* \"--CODEGEN--\":10871:10877   */\n      dup11\n        /* \"--CODEGEN--\":10817:10885   */\n      jump(tag_409)\n    tag_435:\n        /* \"--CODEGEN--\":10809:10885   */\n      swap1\n      pop\n        /* \"--CODEGEN--\":10933:10942   */\n      dup2\n        /* \"--CODEGEN--\":10927:10931   */\n      dup2\n        /* \"--CODEGEN--\":10923:10943   */\n      sub\n        /* \"--CODEGEN--\":10918:10920   */\n      0x20\n        /* \"--CODEGEN--\":10907:10916   */\n      dup4\n        /* \"--CODEGEN--\":10903:10921   */\n      add\n        /* \"--CODEGEN--\":10896:10944   */\n      mstore\n        /* \"--CODEGEN--\":10958:11026   */\n      tag_436\n        /* \"--CODEGEN--\":11021:11025   */\n      dup2\n        /* \"--CODEGEN--\":11012:11018   */\n      dup10\n        /* \"--CODEGEN--\":10958:11026   */\n      jump(tag_409)\n    tag_436:\n        /* \"--CODEGEN--\":10950:11026   */\n      swap1\n      pop\n        /* \"--CODEGEN--\":11074:11083   */\n      dup2\n        /* \"--CODEGEN--\":11068:11072   */\n      dup2\n        /* \"--CODEGEN--\":11064:11084   */\n      sub\n        /* \"--CODEGEN--\":11059:11061   */\n      0x40\n        /* \"--CODEGEN--\":11048:11057   */\n      dup4\n        /* \"--CODEGEN--\":11044:11062   */\n      add\n        /* \"--CODEGEN--\":11037:11085   */\n      mstore\n        /* \"--CODEGEN--\":11099:11167   */\n      tag_437\n        /* \"--CODEGEN--\":11162:11166   */\n      dup2\n        /* \"--CODEGEN--\":11153:11159   */\n      dup9\n        /* \"--CODEGEN--\":11099:11167   */\n      jump(tag_409)\n    tag_437:\n        /* \"--CODEGEN--\":11091:11167   */\n      swap1\n      pop\n        /* \"--CODEGEN--\":11215:11224   */\n      dup2\n        /* \"--CODEGEN--\":11209:11213   */\n      dup2\n        /* \"--CODEGEN--\":11205:11225   */\n      sub\n        /* \"--CODEGEN--\":11200:11202   */\n      0x60\n        /* \"--CODEGEN--\":11189:11198   */\n      dup4\n        /* \"--CODEGEN--\":11185:11203   */\n      add\n        /* \"--CODEGEN--\":11178:11226   */\n      mstore\n        /* \"--CODEGEN--\":11240:11308   */\n      tag_438\n        /* \"--CODEGEN--\":11303:11307   */\n      dup2\n        /* \"--CODEGEN--\":11294:11300   */\n      dup8\n        /* \"--CODEGEN--\":11240:11308   */\n      jump(tag_409)\n    tag_438:\n        /* \"--CODEGEN--\":11232:11308   */\n      swap1\n      pop\n        /* \"--CODEGEN--\":11357:11366   */\n      dup2\n        /* \"--CODEGEN--\":11351:11355   */\n      dup2\n        /* \"--CODEGEN--\":11347:11367   */\n      sub\n        /* \"--CODEGEN--\":11341:11344   */\n      0x80\n        /* \"--CODEGEN--\":11330:11339   */\n      dup4\n        /* \"--CODEGEN--\":11326:11345   */\n      add\n        /* \"--CODEGEN--\":11319:11368   */\n      mstore\n        /* \"--CODEGEN--\":11382:11450   */\n      tag_439\n        /* \"--CODEGEN--\":11445:11449   */\n      dup2\n        /* \"--CODEGEN--\":11436:11442   */\n      dup7\n        /* \"--CODEGEN--\":11382:11450   */\n      jump(tag_409)\n    tag_439:\n        /* \"--CODEGEN--\":11374:11450   */\n      swap1\n      pop\n        /* \"--CODEGEN--\":11499:11508   */\n      dup2\n        /* \"--CODEGEN--\":11493:11497   */\n      dup2\n        /* \"--CODEGEN--\":11489:11509   */\n      sub\n        /* \"--CODEGEN--\":11483:11486   */\n      0xa0\n        /* \"--CODEGEN--\":11472:11481   */\n      dup4\n        /* \"--CODEGEN--\":11468:11487   */\n      add\n        /* \"--CODEGEN--\":11461:11510   */\n      mstore\n        /* \"--CODEGEN--\":11524:11592   */\n      tag_440\n        /* \"--CODEGEN--\":11587:11591   */\n      dup2\n        /* \"--CODEGEN--\":11578:11584   */\n      dup6\n        /* \"--CODEGEN--\":11524:11592   */\n      jump(tag_409)\n    tag_440:\n        /* \"--CODEGEN--\":11516:11592   */\n      swap1\n      pop\n        /* \"--CODEGEN--\":11641:11650   */\n      dup2\n        /* \"--CODEGEN--\":11635:11639   */\n      dup2\n        /* \"--CODEGEN--\":11631:11651   */\n      sub\n        /* \"--CODEGEN--\":11625:11628   */\n      0xc0\n        /* \"--CODEGEN--\":11614:11623   */\n      dup4\n        /* \"--CODEGEN--\":11610:11629   */\n      add\n        /* \"--CODEGEN--\":11603:11652   */\n      mstore\n        /* \"--CODEGEN--\":11666:11734   */\n      tag_441\n        /* \"--CODEGEN--\":11729:11733   */\n      dup2\n        /* \"--CODEGEN--\":11720:11726   */\n      dup5\n        /* \"--CODEGEN--\":11666:11734   */\n      jump(tag_409)\n    tag_441:\n        /* \"--CODEGEN--\":11658:11734   */\n      swap1\n      pop\n        /* \"--CODEGEN--\":10712:11744   */\n      swap9\n      swap8\n      pop\n      pop\n      pop\n      pop\n      pop\n      pop\n      pop\n      pop\n      jump\n        /* \"--CODEGEN--\":11751:12716   */\n    tag_107:\n      0x0\n        /* \"--CODEGEN--\":12059:12062   */\n      0xc0\n        /* \"--CODEGEN--\":12048:12057   */\n      dup3\n        /* \"--CODEGEN--\":12044:12063   */\n      add\n        /* \"--CODEGEN--\":12036:12063   */\n      swap1\n      pop\n        /* \"--CODEGEN--\":12110:12119   */\n      dup2\n        /* \"--CODEGEN--\":12104:12108   */\n      dup2\n        /* \"--CODEGEN--\":12100:12120   */\n      sub\n        /* \"--CODEGEN--\":12096:12097   */\n      0x0\n        /* \"--CODEGEN--\":12085:12094   */\n      dup4\n        /* \"--CODEGEN--\":12081:12098   */\n      add\n        /* \"--CODEGEN--\":12074:12121   */\n      mstore\n        /* \"--CODEGEN--\":12135:12203   */\n      tag_443\n        /* \"--CODEGEN--\":12198:12202   */\n      dup2\n        /* \"--CODEGEN--\":12189:12195   */\n      dup10\n        /* \"--CODEGEN--\":12135:12203   */\n      jump(tag_409)\n    tag_443:\n        /* \"--CODEGEN--\":12127:12203   */\n      swap1\n      pop\n        /* \"--CODEGEN--\":12251:12260   */\n      dup2\n        /* \"--CODEGEN--\":12245:12249   */\n      dup2\n        /* \"--CODEGEN--\":12241:12261   */\n      sub\n        /* \"--CODEGEN--\":12236:12238   */\n      0x20\n        /* \"--CODEGEN--\":12225:12234   */\n      dup4\n        /* \"--CODEGEN--\":12221:12239   */\n      add\n        /* \"--CODEGEN--\":12214:12262   */\n      mstore\n        /* \"--CODEGEN--\":12276:12344   */\n      tag_444\n        /* \"--CODEGEN--\":12339:12343   */\n      dup2\n        /* \"--CODEGEN--\":12330:12336   */\n      dup9\n        /* \"--CODEGEN--\":12276:12344   */\n      jump(tag_409)\n    tag_444:\n        /* \"--CODEGEN--\":12268:12344   */\n      swap1\n      pop\n        /* \"--CODEGEN--\":12392:12401   */\n      dup2\n        /* \"--CODEGEN--\":12386:12390   */\n      dup2\n        /* \"--CODEGEN--\":12382:12402   */\n      sub\n        /* \"--CODEGEN--\":12377:12379   */\n      0x40\n        /* \"--CODEGEN--\":12366:12375   */\n      dup4\n        /* \"--CODEGEN--\":12362:12380   */\n      add\n        /* \"--CODEGEN--\":12355:12403   */\n      mstore\n        /* \"--CODEGEN--\":12417:12485   */\n      tag_445\n        /* \"--CODEGEN--\":12480:12484   */\n      dup2\n        /* \"--CODEGEN--\":12471:12477   */\n      dup8\n        /* \"--CODEGEN--\":12417:12485   */\n      jump(tag_409)\n    tag_445:\n        /* \"--CODEGEN--\":12409:12485   */\n      swap1\n      pop\n        /* \"--CODEGEN--\":12496:12558   */\n      tag_446\n        /* \"--CODEGEN--\":12554:12556   */\n      0x60\n        /* \"--CODEGEN--\":12543:12552   */\n      dup4\n        /* \"--CODEGEN--\":12539:12557   */\n      add\n        /* \"--CODEGEN--\":12530:12536   */\n      dup7\n        /* \"--CODEGEN--\":12496:12558   */\n      jump(tag_417)\n    tag_446:\n        /* \"--CODEGEN--\":12569:12632   */\n      tag_447\n        /* \"--CODEGEN--\":12627:12630   */\n      0x80\n        /* \"--CODEGEN--\":12616:12625   */\n      dup4\n        /* \"--CODEGEN--\":12612:12631   */\n      add\n        /* \"--CODEGEN--\":12603:12609   */\n      dup6\n        /* \"--CODEGEN--\":12569:12632   */\n      jump(tag_389)\n    tag_447:\n        /* \"--CODEGEN--\":12643:12706   */\n      tag_448\n        /* \"--CODEGEN--\":12701:12704   */\n      0xa0\n        /* \"--CODEGEN--\":12690:12699   */\n      dup4\n        /* \"--CODEGEN--\":12686:12705   */\n      add\n        /* \"--CODEGEN--\":12677:12683   */\n      dup5\n        /* \"--CODEGEN--\":12643:12706   */\n      jump(tag_389)\n    tag_448:\n        /* \"--CODEGEN--\":12030:12716   */\n      swap8\n      swap7\n      pop\n      pop\n      pop\n      pop\n      pop\n      pop\n      pop\n      jump\n        /* \"--CODEGEN--\":12723:12916   */\n    tag_40:\n      0x0\n        /* \"--CODEGEN--\":12831:12833   */\n      0x20\n        /* \"--CODEGEN--\":12820:12829   */\n      dup3\n        /* \"--CODEGEN--\":12816:12834   */\n      add\n        /* \"--CODEGEN--\":12808:12834   */\n      swap1\n      pop\n        /* \"--CODEGEN--\":12845:12906   */\n      tag_450\n        /* \"--CODEGEN--\":12903:12904   */\n      0x0\n        /* \"--CODEGEN--\":12892:12901   */\n      dup4\n        /* \"--CODEGEN--\":12888:12905   */\n      add\n        /* \"--CODEGEN--\":12879:12885   */\n      dup5\n        /* \"--CODEGEN--\":12845:12906   */\n      jump(tag_417)\n    tag_450:\n        /* \"--CODEGEN--\":12802:12916   */\n      swap3\n      swap2\n      pop\n      pop\n      jump\n        /* \"--CODEGEN--\":12923:13179   */\n    tag_321:\n      0x0\n        /* \"--CODEGEN--\":12985:12987   */\n      0x40\n        /* \"--CODEGEN--\":12979:12988   */\n      mload\n        /* \"--CODEGEN--\":12969:12988   */\n      swap1\n      pop\n        /* \"--CODEGEN--\":13023:13027   */\n      dup2\n        /* \"--CODEGEN--\":13015:13021   */\n      dup2\n        /* \"--CODEGEN--\":13011:13028   */\n      add\n        /* \"--CODEGEN--\":13122:13128   */\n      dup2\n        /* \"--CODEGEN--\":13110:13120   */\n      dup2\n        /* \"--CODEGEN--\":13107:13129   */\n      lt\n        /* \"--CODEGEN--\":13086:13104   */\n      0xffffffffffffffff\n        /* \"--CODEGEN--\":13074:13084   */\n      dup3\n        /* \"--CODEGEN--\":13071:13105   */\n      gt\n        /* \"--CODEGEN--\":13068:13130   */\n      or\n        /* \"--CODEGEN--\":13065:13067   */\n      iszero\n      tag_452\n      jumpi\n        /* \"--CODEGEN--\":13143:13144   */\n      0x0\n        /* \"--CODEGEN--\":13140:13141   */\n      dup1\n        /* \"--CODEGEN--\":13133:13145   */\n      revert\n        /* \"--CODEGEN--\":13065:13067   */\n    tag_452:\n        /* \"--CODEGEN--\":13163:13173   */\n      dup1\n        /* \"--CODEGEN--\":13159:13161   */\n      0x40\n        /* \"--CODEGEN--\":13152:13174   */\n      mstore\n        /* \"--CODEGEN--\":12963:13179   */\n      pop\n      swap2\n      swap1\n      pop\n      jump\n        /* \"--CODEGEN--\":13186:13445   */\n    tag_320:\n      0x0\n        /* \"--CODEGEN--\":13330:13348   */\n      0xffffffffffffffff\n        /* \"--CODEGEN--\":13322:13328   */\n      dup3\n        /* \"--CODEGEN--\":13319:13349   */\n      gt\n        /* \"--CODEGEN--\":13316:13318   */\n      iszero\n      tag_454\n      jumpi\n        /* \"--CODEGEN--\":13362:13363   */\n      0x0\n        /* \"--CODEGEN--\":13359:13360   */\n      dup1\n        /* \"--CODEGEN--\":13352:13364   */\n      revert\n        /* \"--CODEGEN--\":13316:13318   */\n    tag_454:\n        /* \"--CODEGEN--\":13406:13410   */\n      0x1f\n        /* \"--CODEGEN--\":13402:13411   */\n      not\n        /* \"--CODEGEN--\":13395:13399   */\n      0x1f\n        /* \"--CODEGEN--\":13387:13393   */\n      dup4\n        /* \"--CODEGEN--\":13383:13400   */\n      add\n        /* \"--CODEGEN--\":13379:13412   */\n      and\n        /* \"--CODEGEN--\":13371:13412   */\n      swap1\n      pop\n        /* \"--CODEGEN--\":13435:13439   */\n      0x20\n        /* \"--CODEGEN--\":13429:13433   */\n      dup2\n        /* \"--CODEGEN--\":13425:13440   */\n      add\n        /* \"--CODEGEN--\":13417:13440   */\n      swap1\n      pop\n        /* \"--CODEGEN--\":13253:13445   */\n      swap2\n      swap1\n      pop\n      jump\n        /* \"--CODEGEN--\":13454:13575   */\n    tag_397:\n      0x0\n        /* \"--CODEGEN--\":13563:13567   */\n      0x20\n        /* \"--CODEGEN--\":13555:13561   */\n      dup3\n        /* \"--CODEGEN--\":13551:13568   */\n      add\n        /* \"--CODEGEN--\":13540:13568   */\n      swap1\n      pop\n        /* \"--CODEGEN--\":13532:13575   */\n      swap2\n      swap1\n      pop\n      jump\n        /* \"--CODEGEN--\":13584:13691   */\n    tag_395:\n      0x0\n        /* \"--CODEGEN--\":13680:13685   */\n      dup2\n        /* \"--CODEGEN--\":13674:13686   */\n      mload\n        /* \"--CODEGEN--\":13664:13686   */\n      swap1\n      pop\n        /* \"--CODEGEN--\":13658:13691   */\n      swap2\n      swap1\n      pop\n      jump\n        /* \"--CODEGEN--\":13698:13790   */\n    tag_411:\n      0x0\n        /* \"--CODEGEN--\":13779:13784   */\n      dup2\n        /* \"--CODEGEN--\":13773:13785   */\n      mload\n        /* \"--CODEGEN--\":13763:13785   */\n      swap1\n      pop\n        /* \"--CODEGEN--\":13757:13790   */\n      swap2\n      swap1\n      pop\n      jump\n        /* \"--CODEGEN--\":13798:13920   */\n    tag_403:\n      0x0\n        /* \"--CODEGEN--\":13909:13913   */\n      0x20\n        /* \"--CODEGEN--\":13901:13907   */\n      dup3\n        /* \"--CODEGEN--\":13897:13914   */\n      add\n        /* \"--CODEGEN--\":13886:13914   */\n      swap1\n      pop\n        /* \"--CODEGEN--\":13879:13920   */\n      swap2\n      swap1\n      pop\n      jump\n        /* \"--CODEGEN--\":13928:14056   */\n    tag_391:\n      0x0\n        /* \"--CODEGEN--\":14008:14050   */\n      0xffffffffffffffffffffffffffffffffffffffff\n        /* \"--CODEGEN--\":14001:14006   */\n      dup3\n        /* \"--CODEGEN--\":13997:14051   */\n      and\n        /* \"--CODEGEN--\":13986:14051   */\n      swap1\n      pop\n        /* \"--CODEGEN--\":13980:14056   */\n      swap2\n      swap1\n      pop\n      jump\n        /* \"--CODEGEN--\":14063:14155   */\n    tag_407:\n      0x0\n        /* \"--CODEGEN--\":14143:14148   */\n      dup2\n        /* \"--CODEGEN--\":14136:14149   */\n      iszero\n        /* \"--CODEGEN--\":14129:14150   */\n      iszero\n        /* \"--CODEGEN--\":14118:14150   */\n      swap1\n      pop\n        /* \"--CODEGEN--\":14112:14155   */\n      swap2\n      swap1\n      pop\n      jump\n        /* \"--CODEGEN--\":14162:14241   */\n    tag_419:\n      0x0\n        /* \"--CODEGEN--\":14231:14236   */\n      dup2\n        /* \"--CODEGEN--\":14220:14236   */\n      swap1\n      pop\n        /* \"--CODEGEN--\":14214:14241   */\n      swap2\n      swap1\n      pop\n      jump\n        /* \"--CODEGEN--\":14248:14376   */\n    tag_314:\n      0x0\n        /* \"--CODEGEN--\":14328:14370   */\n      0xffffffffffffffffffffffffffffffffffffffff\n        /* \"--CODEGEN--\":14321:14326   */\n      dup3\n        /* \"--CODEGEN--\":14317:14371   */\n      and\n        /* \"--CODEGEN--\":14306:14371   */\n      swap1\n      pop\n        /* \"--CODEGEN--\":14300:14376   */\n      swap2\n      swap1\n      pop\n      jump\n        /* \"--CODEGEN--\":14383:14462   */\n    tag_328:\n      0x0\n        /* \"--CODEGEN--\":14452:14457   */\n      dup2\n        /* \"--CODEGEN--\":14441:14457   */\n      swap1\n      pop\n        /* \"--CODEGEN--\":14435:14462   */\n      swap2\n      swap1\n      pop\n      jump\n        /* \"--CODEGEN--\":14470:14615   */\n    tag_324:\n        /* \"--CODEGEN--\":14551:14557   */\n      dup3\n        /* \"--CODEGEN--\":14546:14549   */\n      dup2\n        /* \"--CODEGEN--\":14541:14544   */\n      dup4\n        /* \"--CODEGEN--\":14528:14558   */\n      calldatacopy\n        /* \"--CODEGEN--\":14607:14608   */\n      0x0\n        /* \"--CODEGEN--\":14598:14604   */\n      dup4\n        /* \"--CODEGEN--\":14593:14596   */\n      dup4\n        /* \"--CODEGEN--\":14589:14605   */\n      add\n        /* \"--CODEGEN--\":14582:14609   */\n      mstore\n        /* \"--CODEGEN--\":14521:14615   */\n      pop\n      pop\n      pop\n      jump\n        /* \"--CODEGEN--\":14624:14892   */\n    tag_413:\n        /* \"--CODEGEN--\":14689:14690   */\n      0x0\n        /* \"--CODEGEN--\":14696:14797   */\n    tag_466:\n        /* \"--CODEGEN--\":14710:14716   */\n      dup4\n        /* \"--CODEGEN--\":14707:14708   */\n      dup2\n        /* \"--CODEGEN--\":14704:14717   */\n      lt\n        /* \"--CODEGEN--\":14696:14797   */\n      iszero\n      tag_467\n      jumpi\n        /* \"--CODEGEN--\":14786:14787   */\n      dup1\n        /* \"--CODEGEN--\":14781:14784   */\n      dup3\n        /* \"--CODEGEN--\":14777:14788   */\n      add\n        /* \"--CODEGEN--\":14771:14789   */\n      mload\n        /* \"--CODEGEN--\":14767:14768   */\n      dup2\n        /* \"--CODEGEN--\":14762:14765   */\n      dup5\n        /* \"--CODEGEN--\":14758:14769   */\n      add\n        /* \"--CODEGEN--\":14751:14790   */\n      mstore\n        /* \"--CODEGEN--\":14732:14734   */\n      0x20\n        /* \"--CODEGEN--\":14729:14730   */\n      dup2\n        /* \"--CODEGEN--\":14725:14735   */\n      add\n        /* \"--CODEGEN--\":14720:14735   */\n      swap1\n      pop\n        /* \"--CODEGEN--\":14696:14797   */\n      jump(tag_466)\n    tag_467:\n        /* \"--CODEGEN--\":14812:14818   */\n      dup4\n        /* \"--CODEGEN--\":14809:14810   */\n      dup2\n        /* \"--CODEGEN--\":14806:14819   */\n      gt\n        /* \"--CODEGEN--\":14803:14805   */\n      iszero\n      tag_469\n      jumpi\n        /* \"--CODEGEN--\":14877:14878   */\n      0x0\n        /* \"--CODEGEN--\":14868:14874   */\n      dup5\n        /* \"--CODEGEN--\":14863:14866   */\n      dup5\n        /* \"--CODEGEN--\":14859:14875   */\n      add\n        /* \"--CODEGEN--\":14852:14879   */\n      mstore\n        /* \"--CODEGEN--\":14803:14805   */\n    tag_469:\n        /* \"--CODEGEN--\":14673:14892   */\n      pop\n      pop\n      pop\n      pop\n      jump\n        /* \"--CODEGEN--\":14900:14997   */\n    tag_415:\n      0x0\n        /* \"--CODEGEN--\":14988:14990   */\n      0x1f\n        /* \"--CODEGEN--\":14984:14991   */\n      not\n        /* \"--CODEGEN--\":14979:14981   */\n      0x1f\n        /* \"--CODEGEN--\":14972:14977   */\n      dup4\n        /* \"--CODEGEN--\":14968:14982   */\n      add\n        /* \"--CODEGEN--\":14964:14992   */\n      and\n        /* \"--CODEGEN--\":14954:14992   */\n      swap1\n      pop\n        /* \"--CODEGEN--\":14948:14997   */\n      swap2\n      swap1\n      pop\n      jump\n\n    auxdata: 0xa265627a7a723058200a41d1f986d031a7a116887175a2c501242bbb5187dfd99144fababb683cce786c6578706572696d656e74616cf50037\n}\n",
				"bytecode": {
					"linkReferences": {},
					"object": "60806040526000600b556000600c556000600d556000600e556000600f5573c50c6297f56b033633c30354a854b074749cd2dc601060006101000a81548173ffffffffffffffffffffffffffffffffffffffff021916908373ffffffffffffffffffffffffffffffffffffffff16021790555034801561007e57600080fd5b5061333a8061008e6000396000f300608060405260043610610174576000357c0100000000000000000000000000000000000000000000000000000000900463ffffffff168062ce8e3e14610179578063024decc5146101a4578063076fd2f8146101cf57806307973ccf14610212578063127ca4b41461023d57806316e0a6111461027a57806317e51111146102a3578063294a4540146102cc578063341f8105146103095780635fc8e8c6146103465780636cdb227814610383578063779a9576146103ac57806378522bc4146103d557806379111c1c1461040057806383a28b291461042b5780638da5cb5b1461046d5780638f84aa091461049857806396e39ce0146104c357806399d698c5146104ee5780639f4216e814610519578063b13d5d9414610556578063b5cb15f714610581578063b744ff4d146105ac578063c3bf7bf0146105d7578063c543a71814610614578063caee6c851461063f578063d118404b14610682578063e0df0ac6146106bf578063ff508dab146106ea575b600080fd5b34801561018557600080fd5b5061018e610727565b60405161019b9190612fbd565b60405180910390f35b3480156101b057600080fd5b506101b96107b5565b6040516101c691906131a9565b60405180910390f35b3480156101db57600080fd5b506101f660048036036101f19190810190612a78565b6107bf565b6040516102099796959493929190612ffa565b60405180910390f35b34801561021e57600080fd5b50610227610ca0565b60405161023491906131a9565b60405180910390f35b34801561024957600080fd5b50610264600480360361025f9190810190612ebb565b610ca6565b6040516102719190612fa2565b60405180910390f35b34801561028657600080fd5b506102a1600480360361029c9190810190612bae565b610ce4565b005b3480156102af57600080fd5b506102ca60048036036102c59190810190612bae565b610ed8565b005b3480156102d857600080fd5b506102f360048036036102ee9190810190612a78565b6112f2565b6040516103009190612fdf565b60405180910390f35b34801561031557600080fd5b50610330600480360361032b9190810190612add565b6113a4565b60405161033d9190612fdf565b60405180910390f35b34801561035257600080fd5b5061036d60048036036103689190810190612a78565b6115fa565b60405161037a9190612fdf565b60405180910390f35b34801561038f57600080fd5b506103aa60048036036103a59190810190612d08565b611699565b005b3480156103b857600080fd5b506103d360048036036103ce9190810190612d08565b611ae7565b005b3480156103e157600080fd5b506103ea611d0f565b6040516103f791906131a9565b60405180910390f35b34801561040c57600080fd5b50610415611d15565b60405161042291906131a9565b60405180910390f35b34801561043757600080fd5b50610452600480360361044d9190810190612a78565b611d1f565b60405161046496959493929190613133565b60405180910390f35b34801561047957600080fd5b50610482611fb0565b60405161048f9190612fa2565b60405180910390f35b3480156104a457600080fd5b506104ad611fd5565b6040516104ba9190612fa2565b60405180910390f35b3480156104cf57600080fd5b506104d861203e565b6040516104e591906131a9565b60405180910390f35b3480156104fa57600080fd5b50610503612044565b60405161051091906131a9565b60405180910390f35b34801561052557600080fd5b50610540600480360361053b9190810190612ebb565b61204a565b60405161054d9190612fa2565b60405180910390f35b34801561056257600080fd5b5061056b612088565b6040516105789190612fbd565b60405180910390f35b34801561058d57600080fd5b50610596612116565b6040516105a391906131a9565b60405180910390f35b3480156105b857600080fd5b506105c1612120565b6040516105ce9190612fa2565b60405180910390f35b3480156105e357600080fd5b506105fe60048036036105f99190810190612aa1565b612146565b60405161060b9190612fdf565b60405180910390f35b34801561062057600080fd5b50610629612243565b60405161063691906131a9565b60405180910390f35b34801561064b57600080fd5b5061066660048036036106619190810190612a78565b612249565b6040516106799796959493929190613093565b60405180910390f35b34801561068e57600080fd5b506106a960048036036106a49190810190612aa1565b6127fe565b6040516106b69190612fdf565b60405180910390f35b3480156106cb57600080fd5b506106d461290d565b6040516106e191906131a9565b60405180910390f35b3480156106f657600080fd5b50610711600480360361070c9190810190612ebb565b612917565b60405161071e9190612fa2565b60405180910390f35b606060018054806020026020016040519081016040528092919081815260200182805480156107ab57602002820191906000526020600020905b8160009054906101000a900473ffffffffffffffffffffffffffffffffffffffff1673ffffffffffffffffffffffffffffffffffffffff1681526020019060010190808311610761575b5050505050905090565b6000600e54905090565b606080606080606080600080600760008a73ffffffffffffffffffffffffffffffffffffffff1673ffffffffffffffffffffffffffffffffffffffff16815260200190815260200160002060003373ffffffffffffffffffffffffffffffffffffffff1673ffffffffffffffffffffffffffffffffffffffff16815260200190815260200160002060009054906101000a900460ff16151561086057600080fd5b600460008a73ffffffffffffffffffffffffffffffffffffffff1673ffffffffffffffffffffffffffffffffffffffff16815260200190815260200160002090508060000181600101826002018360030184600401856005018660090160009054906101000a900473ffffffffffffffffffffffffffffffffffffffff16868054600181600116156101000203166002900480601f0160208091040260200160405190810160405280929190818152602001828054600181600116156101000203166002900480156109735780601f1061094857610100808354040283529160200191610973565b820191906000526020600020905b81548152906001019060200180831161095657829003601f168201915b50505050509650858054600181600116156101000203166002900480601f016020809104026020016040519081016040528092919081815260200182805460018160011615610100020316600290048015610a0f5780601f106109e457610100808354040283529160200191610a0f565b820191906000526020600020905b8154815290600101906020018083116109f257829003601f168201915b50505050509550848054600181600116156101000203166002900480601f016020809104026020016040519081016040528092919081815260200182805460018160011615610100020316600290048015610aab5780601f10610a8057610100808354040283529160200191610aab565b820191906000526020600020905b815481529060010190602001808311610a8e57829003601f168201915b50505050509450838054600181600116156101000203166002900480601f016020809104026020016040519081016040528092919081815260200182805460018160011615610100020316600290048015610b475780601f10610b1c57610100808354040283529160200191610b47565b820191906000526020600020905b815481529060010190602001808311610b2a57829003601f168201915b50505050509350828054600181600116156101000203166002900480601f016020809104026020016040519081016040528092919081815260200182805460018160011615610100020316600290048015610be35780601f10610bb857610100808354040283529160200191610be3565b820191906000526020600020905b815481529060010190602001808311610bc657829003601f168201915b50505050509250818054600181600116156101000203166002900480601f016020809104026020016040519081016040528092919081815260200182805460018160011615610100020316600290048015610c7f5780601f10610c5457610100808354040283529160200191610c7f565b820191906000526020600020905b815481529060010190602001808311610c6257829003601f168201915b50505050509150975097509750975097509750975050919395979092949650565b600b5481565b600281815481101515610cb557fe5b906000526020600020016000915054906101000a900473ffffffffffffffffffffffffffffffffffffffff1681565b6000601060009054906101000a900473ffffffffffffffffffffffffffffffffffffffff1673ffffffffffffffffffffffffffffffffffffffff163373ffffffffffffffffffffffffffffffffffffffff16141515610d4257600080fd5b600960008a73ffffffffffffffffffffffffffffffffffffffff1673ffffffffffffffffffffffffffffffffffffffff16815260200190815260200160002060009054906101000a900460ff161515610d9a57600080fd5b600560008a73ffffffffffffffffffffffffffffffffffffffff1673ffffffffffffffffffffffffffffffffffffffff168152602001908152602001600020905087816000019080519060200190610df3929190612955565b5086816001019080519060200190610e0c929190612955565b5085816002019080519060200190610e25929190612955565b5084816003019080519060200190610e3e929190612955565b5083816004019080519060200190610e57929190612955565b5082816006019080519060200190610e70929190612955565b5081816007019080519060200190610e89929190612955565b50888160080160006101000a81548173ffffffffffffffffffffffffffffffffffffffff021916908373ffffffffffffffffffffffffffffffffffffffff160217905550505050505050505050565b6000601060009054906101000a900473ffffffffffffffffffffffffffffffffffffffff1673ffffffffffffffffffffffffffffffffffffffff163373ffffffffffffffffffffffffffffffffffffffff16141515610f3657600080fd5b600960008a73ffffffffffffffffffffffffffffffffffffffff1673ffffffffffffffffffffffffffffffffffffffff16815260200190815260200160002060009054906101000a900460ff16151515610f8f57600080fd5b600560008a73ffffffffffffffffffffffffffffffffffffffff1673ffffffffffffffffffffffffffffffffffffffff168152602001908152602001600020905087816000019080519060200190610fe8929190612955565b5086816001019080519060200190611001929190612955565b508581600201908051906020019061101a929190612955565b5084816003019080519060200190611033929190612955565b508381600401908051906020019061104c929190612955565b5082816006019080519060200190611065929190612955565b508181600701908051906020019061107e929190612955565b50888160080160006101000a81548173ffffffffffffffffffffffffffffffffffffffff021916908373ffffffffffffffffffffffffffffffffffffffff16021790555042816009018190555060028990806001815401808255809150509060018203906000526020600020016000909192909190916101000a81548173ffffffffffffffffffffffffffffffffffffffff021916908373ffffffffffffffffffffffffffffffffffffffff160217905550506001600960008b73ffffffffffffffffffffffffffffffffffffffff1673ffffffffffffffffffffffffffffffffffffffff16815260200190815260200160002060006101000a81548160ff0219169083151502179055506001600760008b73ffffffffffffffffffffffffffffffffffffffff1673ffffffffffffffffffffffffffffffffffffffff16815260200190815260200160002060008b73ffffffffffffffffffffffffffffffffffffffff1673ffffffffffffffffffffffffffffffffffffffff16815260200190815260200160002060006101000a81548160ff0219169083151502179055506001600760008b73ffffffffffffffffffffffffffffffffffffffff1673ffffffffffffffffffffffffffffffffffffffff1681526020019081526020016000206000601060009054906101000a900473ffffffffffffffffffffffffffffffffffffffff1673ffffffffffffffffffffffffffffffffffffffff1673ffffffffffffffffffffffffffffffffffffffff16815260200190815260200160002060006101000a81548160ff021916908315150217905550600c60008154809291906001019190505550505050505050505050565b60006001600760003373ffffffffffffffffffffffffffffffffffffffff1673ffffffffffffffffffffffffffffffffffffffff16815260200190815260200160002060008473ffffffffffffffffffffffffffffffffffffffff1673ffffffffffffffffffffffffffffffffffffffff16815260200190815260200160002060006101000a81548160ff021916908315150217905550600e6000815480929190600101919050555060019050919050565b600080601060009054906101000a900473ffffffffffffffffffffffffffffffffffffffff1673ffffffffffffffffffffffffffffffffffffffff163373ffffffffffffffffffffffffffffffffffffffff1614151561140357600080fd5b600a60008973ffffffffffffffffffffffffffffffffffffffff1673ffffffffffffffffffffffffffffffffffffffff16815260200190815260200160002060009054906101000a900460ff1615151561145c57600080fd5b600660008973ffffffffffffffffffffffffffffffffffffffff1673ffffffffffffffffffffffffffffffffffffffff1681526020019081526020016000209050858160000190805190602001906114b5929190612955565b50848160010190805190602001906114ce929190612955565b50838160020190805190602001906114e7929190612955565b50828160030181905550878160040160006101000a81548173ffffffffffffffffffffffffffffffffffffffff021916908373ffffffffffffffffffffffffffffffffffffffff160217905550868160050160006101000a81548173ffffffffffffffffffffffffffffffffffffffff021916908373ffffffffffffffffffffffffffffffffffffffff16021790555060038890806001815401808255809150509060018203906000526020600020016000909192909190916101000a81548173ffffffffffffffffffffffffffffffffffffffff021916908373ffffffffffffffffffffffffffffffffffffffff16021790555050600f60008154809291906001019190505550509695505050505050565b600080600760003373ffffffffffffffffffffffffffffffffffffffff1673ffffffffffffffffffffffffffffffffffffffff16815260200190815260200160002060008473ffffffffffffffffffffffffffffffffffffffff1673ffffffffffffffffffffffffffffffffffffffff16815260200190815260200160002060006101000a81548160ff02191690831515021790555060019050919050565b6000601060009054906101000a900473ffffffffffffffffffffffffffffffffffffffff1673ffffffffffffffffffffffffffffffffffffffff163373ffffffffffffffffffffffffffffffffffffffff161415156116f757600080fd5b600860008c73ffffffffffffffffffffffffffffffffffffffff1673ffffffffffffffffffffffffffffffffffffffff16815260200190815260200160002060009054906101000a900460ff1615151561175057600080fd5b600460008c73ffffffffffffffffffffffffffffffffffffffff1673ffffffffffffffffffffffffffffffffffffffff1681526020019081526020016000209050898160000190805190602001906117a9929190612955565b50888160010190805190602001906117c2929190612955565b50878160020190805190602001906117db929190612955565b50868160030190805190602001906117f4929190612955565b508581600401908051906020019061180d929190612955565b5084816005019080519060200190611826929190612955565b508381600601908051906020019061183f929190612955565b5082816007019080519060200190611858929190612955565b5081816008019080519060200190611871929190612955565b508a8160090160006101000a81548173ffffffffffffffffffffffffffffffffffffffff021916908373ffffffffffffffffffffffffffffffffffffffff1602179055504281600a018190555060018b90806001815401808255809150509060018203906000526020600020016000909192909190916101000a81548173ffffffffffffffffffffffffffffffffffffffff021916908373ffffffffffffffffffffffffffffffffffffffff160217905550506001600860008d73ffffffffffffffffffffffffffffffffffffffff1673ffffffffffffffffffffffffffffffffffffffff16815260200190815260200160002060006101000a81548160ff0219169083151502179055506001600760008d73ffffffffffffffffffffffffffffffffffffffff1673ffffffffffffffffffffffffffffffffffffffff16815260200190815260200160002060008d73ffffffffffffffffffffffffffffffffffffffff1673ffffffffffffffffffffffffffffffffffffffff16815260200190815260200160002060006101000a81548160ff0219169083151502179055506001600760008d73ffffffffffffffffffffffffffffffffffffffff1673ffffffffffffffffffffffffffffffffffffffff1681526020019081526020016000206000601060009054906101000a900473ffffffffffffffffffffffffffffffffffffffff1673ffffffffffffffffffffffffffffffffffffffff1673ffffffffffffffffffffffffffffffffffffffff16815260200190815260200160002060006101000a81548160ff021916908315150217905550600b600081548092919060010191905055505050505050505050505050565b6000601060009054906101000a900473ffffffffffffffffffffffffffffffffffffffff1673ffffffffffffffffffffffffffffffffffffffff163373ffffffffffffffffffffffffffffffffffffffff16141515611b4557600080fd5b600860008c73ffffffffffffffffffffffffffffffffffffffff1673ffffffffffffffffffffffffffffffffffffffff16815260200190815260200160002060009054906101000a900460ff161515611b9d57600080fd5b600460008c73ffffffffffffffffffffffffffffffffffffffff1673ffffffffffffffffffffffffffffffffffffffff168152602001908152602001600020905089816000019080519060200190611bf6929190612955565b5088816001019080519060200190611c0f929190612955565b5087816002019080519060200190611c28929190612955565b5086816003019080519060200190611c41929190612955565b5085816004019080519060200190611c5a929190612955565b5084816005019080519060200190611c73929190612955565b5083816006019080519060200190611c8c929190612955565b5082816007019080519060200190611ca5929190612955565b5081816008019080519060200190611cbe929190612955565b508a8160090160006101000a81548173ffffffffffffffffffffffffffffffffffffffff021916908373ffffffffffffffffffffffffffffffffffffffff1602179055505050505050505050505050565b600c5481565b6000600c54905090565b6060806060600080600080600660008973ffffffffffffffffffffffffffffffffffffffff1673ffffffffffffffffffffffffffffffffffffffff168152602001908152602001600020905080600001816001018260020183600301548460040160009054906101000a900473ffffffffffffffffffffffffffffffffffffffff168560050160009054906101000a900473ffffffffffffffffffffffffffffffffffffffff16858054600181600116156101000203166002900480601f016020809104026020016040519081016040528092919081815260200182805460018160011615610100020316600290048015611e5b5780601f10611e3057610100808354040283529160200191611e5b565b820191906000526020600020905b815481529060010190602001808311611e3e57829003601f168201915b50505050509550848054600181600116156101000203166002900480601f016020809104026020016040519081016040528092919081815260200182805460018160011615610100020316600290048015611ef75780601f10611ecc57610100808354040283529160200191611ef7565b820191906000526020600020905b815481529060010190602001808311611eda57829003601f168201915b50505050509450838054600181600116156101000203166002900480601f016020809104026020016040519081016040528092919081815260200182805460018160011615610100020316600290048015611f935780601f10611f6857610100808354040283529160200191611f93565b820191906000526020600020905b815481529060010190602001808311611f7657829003601f168201915b505050505093509650965096509650965096505091939550919395565b6000809054906101000a900473ffffffffffffffffffffffffffffffffffffffff1681565b6000336000806101000a81548173ffffffffffffffffffffffffffffffffffffffff021916908373ffffffffffffffffffffffffffffffffffffffff1602179055506000809054906101000a900473ffffffffffffffffffffffffffffffffffffffff16905090565b600f5481565b600d5481565b60018181548110151561205957fe5b906000526020600020016000915054906101000a900473ffffffffffffffffffffffffffffffffffffffff1681565b6060600280548060200260200160405190810160405280929190818152602001828054801561210c57602002820191906000526020600020905b8160009054906101000a900473ffffffffffffffffffffffffffffffffffffffff1673ffffffffffffffffffffffffffffffffffffffff16815260200190600101908083116120c2575b5050505050905090565b6000600b54905090565b601060009054906101000a900473ffffffffffffffffffffffffffffffffffffffff1681565b6000601060009054906101000a900473ffffffffffffffffffffffffffffffffffffffff1673ffffffffffffffffffffffffffffffffffffffff163373ffffffffffffffffffffffffffffffffffffffff161415156121a457600080fd5b6000600760008573ffffffffffffffffffffffffffffffffffffffff1673ffffffffffffffffffffffffffffffffffffffff16815260200190815260200160002060008473ffffffffffffffffffffffffffffffffffffffff1673ffffffffffffffffffffffffffffffffffffffff16815260200190815260200160002060006101000a81548160ff0219169083151502179055506001905092915050565b600e5481565b60608060608060608060606000600760008a73ffffffffffffffffffffffffffffffffffffffff1673ffffffffffffffffffffffffffffffffffffffff16815260200190815260200160002060003373ffffffffffffffffffffffffffffffffffffffff1673ffffffffffffffffffffffffffffffffffffffff16815260200190815260200160002060009054906101000a900460ff1615156122eb57600080fd5b600960008a73ffffffffffffffffffffffffffffffffffffffff1673ffffffffffffffffffffffffffffffffffffffff16815260200190815260200160002060009054906101000a900460ff16151561234357600080fd5b600560008a73ffffffffffffffffffffffffffffffffffffffff1673ffffffffffffffffffffffffffffffffffffffff168152602001908152602001600020905080600001816001018260020183600301846004018560060186600701868054600181600116156101000203166002900480601f0160208091040260200160405190810160405280929190818152602001828054600181600116156101000203166002900480156124355780601f1061240a57610100808354040283529160200191612435565b820191906000526020600020905b81548152906001019060200180831161241857829003601f168201915b50505050509650858054600181600116156101000203166002900480601f0160208091040260200160405190810160405280929190818152602001828054600181600116156101000203166002900480156124d15780601f106124a6576101008083540402835291602001916124d1565b820191906000526020600020905b8154815290600101906020018083116124b457829003601f168201915b50505050509550848054600181600116156101000203166002900480601f01602080910402602001604051908101604052809291908181526020018280546001816001161561010002031660029004801561256d5780601f106125425761010080835404028352916020019161256d565b820191906000526020600020905b81548152906001019060200180831161255057829003601f168201915b50505050509450838054600181600116156101000203166002900480601f0160208091040260200160405190810160405280929190818152602001828054600181600116156101000203166002900480156126095780601f106125de57610100808354040283529160200191612609565b820191906000526020600020905b8154815290600101906020018083116125ec57829003601f168201915b50505050509350828054600181600116156101000203166002900480601f0160208091040260200160405190810160405280929190818152602001828054600181600116156101000203166002900480156126a55780601f1061267a576101008083540402835291602001916126a5565b820191906000526020600020905b81548152906001019060200180831161268857829003601f168201915b50505050509250818054600181600116156101000203166002900480601f0160208091040260200160405190810160405280929190818152602001828054600181600116156101000203166002900480156127415780601f1061271657610100808354040283529160200191612741565b820191906000526020600020905b81548152906001019060200180831161272457829003601f168201915b50505050509150808054600181600116156101000203166002900480601f0160208091040260200160405190810160405280929190818152602001828054600181600116156101000203166002900480156127dd5780601f106127b2576101008083540402835291602001916127dd565b820191906000526020600020905b8154815290600101906020018083116127c057829003601f168201915b50505050509050975097509750975097509750975050919395979092949650565b6000601060009054906101000a900473ffffffffffffffffffffffffffffffffffffffff1673ffffffffffffffffffffffffffffffffffffffff163373ffffffffffffffffffffffffffffffffffffffff1614151561285c57600080fd5b6001600760008573ffffffffffffffffffffffffffffffffffffffff1673ffffffffffffffffffffffffffffffffffffffff16815260200190815260200160002060008473ffffffffffffffffffffffffffffffffffffffff1673ffffffffffffffffffffffffffffffffffffffff16815260200190815260200160002060006101000a81548160ff021916908315150217905550600d600081548092919060010191905055506001905092915050565b6000600d54905090565b60038181548110151561292657fe5b906000526020600020016000915054906101000a900473ffffffffffffffffffffffffffffffffffffffff1681565b828054600181600116156101000203166002900490600052602060002090601f016020900481019282601f1061299657805160ff19168380011785556129c4565b828001600101855582156129c4579182015b828111156129c35782518255916020019190600101906129a8565b5b5090506129d191906129d5565b5090565b6129f791905b808211156129f35760008160009055506001016129db565b5090565b90565b6000612a068235613283565b905092915050565b600082601f8301121515612a2157600080fd5b8135612a34612a2f826131f1565b6131c4565b91508082526020830160208301858383011115612a5057600080fd5b612a5b8382846132ad565b50505092915050565b6000612a7082356132a3565b905092915050565b600060208284031215612a8a57600080fd5b6000612a98848285016129fa565b91505092915050565b60008060408385031215612ab457600080fd5b6000612ac2858286016129fa565b9250506020612ad3858286016129fa565b9150509250929050565b60008060008060008060c08789031215612af657600080fd5b6000612b0489828a016129fa565b9650506020612b1589828a016129fa565b955050604087013567ffffffffffffffff811115612b3257600080fd5b612b3e89828a01612a0e565b945050606087013567ffffffffffffffff811115612b5b57600080fd5b612b6789828a01612a0e565b935050608087013567ffffffffffffffff811115612b8457600080fd5b612b9089828a01612a0e565b92505060a0612ba189828a01612a64565b9150509295509295509295565b600080600080600080600080610100898b031215612bcb57600080fd5b6000612bd98b828c016129fa565b985050602089013567ffffffffffffffff811115612bf657600080fd5b612c028b828c01612a0e565b975050604089013567ffffffffffffffff811115612c1f57600080fd5b612c2b8b828c01612a0e565b965050606089013567ffffffffffffffff811115612c4857600080fd5b612c548b828c01612a0e565b955050608089013567ffffffffffffffff811115612c7157600080fd5b612c7d8b828c01612a0e565b94505060a089013567ffffffffffffffff811115612c9a57600080fd5b612ca68b828c01612a0e565b93505060c089013567ffffffffffffffff811115612cc357600080fd5b612ccf8b828c01612a0e565b92505060e089013567ffffffffffffffff811115612cec57600080fd5b612cf88b828c01612a0e565b9150509295985092959890939650565b6000806000806000806000806000806101408b8d031215612d2857600080fd5b6000612d368d828e016129fa565b9a505060208b013567ffffffffffffffff811115612d5357600080fd5b612d5f8d828e01612a0e565b99505060408b013567ffffffffffffffff811115612d7c57600080fd5b612d888d828e01612a0e565b98505060608b013567ffffffffffffffff811115612da557600080fd5b612db18d828e01612a0e565b97505060808b013567ffffffffffffffff811115612dce57600080fd5b612dda8d828e01612a0e565b96505060a08b013567ffffffffffffffff811115612df757600080fd5b612e038d828e01612a0e565b95505060c08b013567ffffffffffffffff811115612e2057600080fd5b612e2c8d828e01612a0e565b94505060e08b013567ffffffffffffffff811115612e4957600080fd5b612e558d828e01612a0e565b9350506101008b013567ffffffffffffffff811115612e7357600080fd5b612e7f8d828e01612a0e565b9250506101208b013567ffffffffffffffff811115612e9d57600080fd5b612ea98d828e01612a0e565b9150509295989b9194979a5092959850565b600060208284031215612ecd57600080fd5b6000612edb84828501612a64565b91505092915050565b612eed8161324d565b82525050565b6000612efe8261322a565b808452602084019350612f108361321d565b60005b82811015612f4257612f26868351612ee4565b612f2f82613240565b9150602086019550600181019050612f13565b50849250505092915050565b612f578161326d565b82525050565b6000612f6882613235565b808452612f7c8160208601602086016132bc565b612f85816132ef565b602085010191505092915050565b612f9c81613279565b82525050565b6000602082019050612fb76000830184612ee4565b92915050565b60006020820190508181036000830152612fd78184612ef3565b905092915050565b6000602082019050612ff46000830184612f4e565b92915050565b600060e0820190508181036000830152613014818a612f5d565b905081810360208301526130288189612f5d565b9050818103604083015261303c8188612f5d565b905081810360608301526130508187612f5d565b905081810360808301526130648186612f5d565b905081810360a08301526130788185612f5d565b905061308760c0830184612ee4565b98975050505050505050565b600060e08201905081810360008301526130ad818a612f5d565b905081810360208301526130c18189612f5d565b905081810360408301526130d58188612f5d565b905081810360608301526130e98187612f5d565b905081810360808301526130fd8186612f5d565b905081810360a08301526131118185612f5d565b905081810360c08301526131258184612f5d565b905098975050505050505050565b600060c082019050818103600083015261314d8189612f5d565b905081810360208301526131618188612f5d565b905081810360408301526131758187612f5d565b90506131846060830186612f93565b6131916080830185612ee4565b61319e60a0830184612ee4565b979650505050505050565b60006020820190506131be6000830184612f93565b92915050565b6000604051905081810181811067ffffffffffffffff821117156131e757600080fd5b8060405250919050565b600067ffffffffffffffff82111561320857600080fd5b601f19601f8301169050602081019050919050565b6000602082019050919050565b600081519050919050565b600081519050919050565b6000602082019050919050565b600073ffffffffffffffffffffffffffffffffffffffff82169050919050565b60008115159050919050565b6000819050919050565b600073ffffffffffffffffffffffffffffffffffffffff82169050919050565b6000819050919050565b82818337600083830152505050565b60005b838110156132da5780820151818401526020810190506132bf565b838111156132e9576000848401525b50505050565b6000601f19601f83011690509190505600a265627a7a723058200a41d1f986d031a7a116887175a2c501242bbb5187dfd99144fababb683cce786c6578706572696d656e74616cf50037",
					"opcodes": "PUSH1 0x80 PUSH1 0x40 MSTORE PUSH1 0x0 PUSH1 0xB SSTORE PUSH1 0x0 PUSH1 0xC SSTORE PUSH1 0x0 PUSH1 0xD SSTORE PUSH1 0x0 PUSH1 0xE SSTORE PUSH1 0x0 PUSH1 0xF SSTORE PUSH20 0xC50C6297F56B033633C30354A854B074749CD2DC PUSH1 0x10 PUSH1 0x0 PUSH2 0x100 EXP DUP2 SLOAD DUP2 PUSH20 0xFFFFFFFFFFFFFFFFFFFFFFFFFFFFFFFFFFFFFFFF MUL NOT AND SWAP1 DUP4 PUSH20 0xFFFFFFFFFFFFFFFFFFFFFFFFFFFFFFFFFFFFFFFF AND MUL OR SWAP1 SSTORE POP CALLVALUE DUP1 ISZERO PUSH2 0x7E JUMPI PUSH1 0x0 DUP1 REVERT JUMPDEST POP PUSH2 0x333A DUP1 PUSH2 0x8E PUSH1 0x0 CODECOPY PUSH1 0x0 RETURN STOP PUSH1 0x80 PUSH1 0x40 MSTORE PUSH1 0x4 CALLDATASIZE LT PUSH2 0x174 JUMPI PUSH1 0x0 CALLDATALOAD PUSH29 0x100000000000000000000000000000000000000000000000000000000 SWAP1 DIV PUSH4 0xFFFFFFFF AND DUP1 PUSH3 0xCE8E3E EQ PUSH2 0x179 JUMPI DUP1 PUSH4 0x24DECC5 EQ PUSH2 0x1A4 JUMPI DUP1 PUSH4 0x76FD2F8 EQ PUSH2 0x1CF JUMPI DUP1 PUSH4 0x7973CCF EQ PUSH2 0x212 JUMPI DUP1 PUSH4 0x127CA4B4 EQ PUSH2 0x23D JUMPI DUP1 PUSH4 0x16E0A611 EQ PUSH2 0x27A JUMPI DUP1 PUSH4 0x17E51111 EQ PUSH2 0x2A3 JUMPI DUP1 PUSH4 0x294A4540 EQ PUSH2 0x2CC JUMPI DUP1 PUSH4 0x341F8105 EQ PUSH2 0x309 JUMPI DUP1 PUSH4 0x5FC8E8C6 EQ PUSH2 0x346 JUMPI DUP1 PUSH4 0x6CDB2278 EQ PUSH2 0x383 JUMPI DUP1 PUSH4 0x779A9576 EQ PUSH2 0x3AC JUMPI DUP1 PUSH4 0x78522BC4 EQ PUSH2 0x3D5 JUMPI DUP1 PUSH4 0x79111C1C EQ PUSH2 0x400 JUMPI DUP1 PUSH4 0x83A28B29 EQ PUSH2 0x42B JUMPI DUP1 PUSH4 0x8DA5CB5B EQ PUSH2 0x46D JUMPI DUP1 PUSH4 0x8F84AA09 EQ PUSH2 0x498 JUMPI DUP1 PUSH4 0x96E39CE0 EQ PUSH2 0x4C3 JUMPI DUP1 PUSH4 0x99D698C5 EQ PUSH2 0x4EE JUMPI DUP1 PUSH4 0x9F4216E8 EQ PUSH2 0x519 JUMPI DUP1 PUSH4 0xB13D5D94 EQ PUSH2 0x556 JUMPI DUP1 PUSH4 0xB5CB15F7 EQ PUSH2 0x581 JUMPI DUP1 PUSH4 0xB744FF4D EQ PUSH2 0x5AC JUMPI DUP1 PUSH4 0xC3BF7BF0 EQ PUSH2 0x5D7 JUMPI DUP1 PUSH4 0xC543A718 EQ PUSH2 0x614 JUMPI DUP1 PUSH4 0xCAEE6C85 EQ PUSH2 0x63F JUMPI DUP1 PUSH4 0xD118404B EQ PUSH2 0x682 JUMPI DUP1 PUSH4 0xE0DF0AC6 EQ PUSH2 0x6BF JUMPI DUP1 PUSH4 0xFF508DAB EQ PUSH2 0x6EA JUMPI JUMPDEST PUSH1 0x0 DUP1 REVERT JUMPDEST CALLVALUE DUP1 ISZERO PUSH2 0x185 JUMPI PUSH1 0x0 DUP1 REVERT JUMPDEST POP PUSH2 0x18E PUSH2 0x727 JUMP JUMPDEST PUSH1 0x40 MLOAD PUSH2 0x19B SWAP2 SWAP1 PUSH2 0x2FBD JUMP JUMPDEST PUSH1 0x40 MLOAD DUP1 SWAP2 SUB SWAP1 RETURN JUMPDEST CALLVALUE DUP1 ISZERO PUSH2 0x1B0 JUMPI PUSH1 0x0 DUP1 REVERT JUMPDEST POP PUSH2 0x1B9 PUSH2 0x7B5 JUMP JUMPDEST PUSH1 0x40 MLOAD PUSH2 0x1C6 SWAP2 SWAP1 PUSH2 0x31A9 JUMP JUMPDEST PUSH1 0x40 MLOAD DUP1 SWAP2 SUB SWAP1 RETURN JUMPDEST CALLVALUE DUP1 ISZERO PUSH2 0x1DB JUMPI PUSH1 0x0 DUP1 REVERT JUMPDEST POP PUSH2 0x1F6 PUSH1 0x4 DUP1 CALLDATASIZE SUB PUSH2 0x1F1 SWAP2 SWAP1 DUP2 ADD SWAP1 PUSH2 0x2A78 JUMP JUMPDEST PUSH2 0x7BF JUMP JUMPDEST PUSH1 0x40 MLOAD PUSH2 0x209 SWAP8 SWAP7 SWAP6 SWAP5 SWAP4 SWAP3 SWAP2 SWAP1 PUSH2 0x2FFA JUMP JUMPDEST PUSH1 0x40 MLOAD DUP1 SWAP2 SUB SWAP1 RETURN JUMPDEST CALLVALUE DUP1 ISZERO PUSH2 0x21E JUMPI PUSH1 0x0 DUP1 REVERT JUMPDEST POP PUSH2 0x227 PUSH2 0xCA0 JUMP JUMPDEST PUSH1 0x40 MLOAD PUSH2 0x234 SWAP2 SWAP1 PUSH2 0x31A9 JUMP JUMPDEST PUSH1 0x40 MLOAD DUP1 SWAP2 SUB SWAP1 RETURN JUMPDEST CALLVALUE DUP1 ISZERO PUSH2 0x249 JUMPI PUSH1 0x0 DUP1 REVERT JUMPDEST POP PUSH2 0x264 PUSH1 0x4 DUP1 CALLDATASIZE SUB PUSH2 0x25F SWAP2 SWAP1 DUP2 ADD SWAP1 PUSH2 0x2EBB JUMP JUMPDEST PUSH2 0xCA6 JUMP JUMPDEST PUSH1 0x40 MLOAD PUSH2 0x271 SWAP2 SWAP1 PUSH2 0x2FA2 JUMP JUMPDEST PUSH1 0x40 MLOAD DUP1 SWAP2 SUB SWAP1 RETURN JUMPDEST CALLVALUE DUP1 ISZERO PUSH2 0x286 JUMPI PUSH1 0x0 DUP1 REVERT JUMPDEST POP PUSH2 0x2A1 PUSH1 0x4 DUP1 CALLDATASIZE SUB PUSH2 0x29C SWAP2 SWAP1 DUP2 ADD SWAP1 PUSH2 0x2BAE JUMP JUMPDEST PUSH2 0xCE4 JUMP JUMPDEST STOP JUMPDEST CALLVALUE DUP1 ISZERO PUSH2 0x2AF JUMPI PUSH1 0x0 DUP1 REVERT JUMPDEST POP PUSH2 0x2CA PUSH1 0x4 DUP1 CALLDATASIZE SUB PUSH2 0x2C5 SWAP2 SWAP1 DUP2 ADD SWAP1 PUSH2 0x2BAE JUMP JUMPDEST PUSH2 0xED8 JUMP JUMPDEST STOP JUMPDEST CALLVALUE DUP1 ISZERO PUSH2 0x2D8 JUMPI PUSH1 0x0 DUP1 REVERT JUMPDEST POP PUSH2 0x2F3 PUSH1 0x4 DUP1 CALLDATASIZE SUB PUSH2 0x2EE SWAP2 SWAP1 DUP2 ADD SWAP1 PUSH2 0x2A78 JUMP JUMPDEST PUSH2 0x12F2 JUMP JUMPDEST PUSH1 0x40 MLOAD PUSH2 0x300 SWAP2 SWAP1 PUSH2 0x2FDF JUMP JUMPDEST PUSH1 0x40 MLOAD DUP1 SWAP2 SUB SWAP1 RETURN JUMPDEST CALLVALUE DUP1 ISZERO PUSH2 0x315 JUMPI PUSH1 0x0 DUP1 REVERT JUMPDEST POP PUSH2 0x330 PUSH1 0x4 DUP1 CALLDATASIZE SUB PUSH2 0x32B SWAP2 SWAP1 DUP2 ADD SWAP1 PUSH2 0x2ADD JUMP JUMPDEST PUSH2 0x13A4 JUMP JUMPDEST PUSH1 0x40 MLOAD PUSH2 0x33D SWAP2 SWAP1 PUSH2 0x2FDF JUMP JUMPDEST PUSH1 0x40 MLOAD DUP1 SWAP2 SUB SWAP1 RETURN JUMPDEST CALLVALUE DUP1 ISZERO PUSH2 0x352 JUMPI PUSH1 0x0 DUP1 REVERT JUMPDEST POP PUSH2 0x36D PUSH1 0x4 DUP1 CALLDATASIZE SUB PUSH2 0x368 SWAP2 SWAP1 DUP2 ADD SWAP1 PUSH2 0x2A78 JUMP JUMPDEST PUSH2 0x15FA JUMP JUMPDEST PUSH1 0x40 MLOAD PUSH2 0x37A SWAP2 SWAP1 PUSH2 0x2FDF JUMP JUMPDEST PUSH1 0x40 MLOAD DUP1 SWAP2 SUB SWAP1 RETURN JUMPDEST CALLVALUE DUP1 ISZERO PUSH2 0x38F JUMPI PUSH1 0x0 DUP1 REVERT JUMPDEST POP PUSH2 0x3AA PUSH1 0x4 DUP1 CALLDATASIZE SUB PUSH2 0x3A5 SWAP2 SWAP1 DUP2 ADD SWAP1 PUSH2 0x2D08 JUMP JUMPDEST PUSH2 0x1699 JUMP JUMPDEST STOP JUMPDEST CALLVALUE DUP1 ISZERO PUSH2 0x3B8 JUMPI PUSH1 0x0 DUP1 REVERT JUMPDEST POP PUSH2 0x3D3 PUSH1 0x4 DUP1 CALLDATASIZE SUB PUSH2 0x3CE SWAP2 SWAP1 DUP2 ADD SWAP1 PUSH2 0x2D08 JUMP JUMPDEST PUSH2 0x1AE7 JUMP JUMPDEST STOP JUMPDEST CALLVALUE DUP1 ISZERO PUSH2 0x3E1 JUMPI PUSH1 0x0 DUP1 REVERT JUMPDEST POP PUSH2 0x3EA PUSH2 0x1D0F JUMP JUMPDEST PUSH1 0x40 MLOAD PUSH2 0x3F7 SWAP2 SWAP1 PUSH2 0x31A9 JUMP JUMPDEST PUSH1 0x40 MLOAD DUP1 SWAP2 SUB SWAP1 RETURN JUMPDEST CALLVALUE DUP1 ISZERO PUSH2 0x40C JUMPI PUSH1 0x0 DUP1 REVERT JUMPDEST POP PUSH2 0x415 PUSH2 0x1D15 JUMP JUMPDEST PUSH1 0x40 MLOAD PUSH2 0x422 SWAP2 SWAP1 PUSH2 0x31A9 JUMP JUMPDEST PUSH1 0x40 MLOAD DUP1 SWAP2 SUB SWAP1 RETURN JUMPDEST CALLVALUE DUP1 ISZERO PUSH2 0x437 JUMPI PUSH1 0x0 DUP1 REVERT JUMPDEST POP PUSH2 0x452 PUSH1 0x4 DUP1 CALLDATASIZE SUB PUSH2 0x44D SWAP2 SWAP1 DUP2 ADD SWAP1 PUSH2 0x2A78 JUMP JUMPDEST PUSH2 0x1D1F JUMP JUMPDEST PUSH1 0x40 MLOAD PUSH2 0x464 SWAP7 SWAP6 SWAP5 SWAP4 SWAP3 SWAP2 SWAP1 PUSH2 0x3133 JUMP JUMPDEST PUSH1 0x40 MLOAD DUP1 SWAP2 SUB SWAP1 RETURN JUMPDEST CALLVALUE DUP1 ISZERO PUSH2 0x479 JUMPI PUSH1 0x0 DUP1 REVERT JUMPDEST POP PUSH2 0x482 PUSH2 0x1FB0 JUMP JUMPDEST PUSH1 0x40 MLOAD PUSH2 0x48F SWAP2 SWAP1 PUSH2 0x2FA2 JUMP JUMPDEST PUSH1 0x40 MLOAD DUP1 SWAP2 SUB SWAP1 RETURN JUMPDEST CALLVALUE DUP1 ISZERO PUSH2 0x4A4 JUMPI PUSH1 0x0 DUP1 REVERT JUMPDEST POP PUSH2 0x4AD PUSH2 0x1FD5 JUMP JUMPDEST PUSH1 0x40 MLOAD PUSH2 0x4BA SWAP2 SWAP1 PUSH2 0x2FA2 JUMP JUMPDEST PUSH1 0x40 MLOAD DUP1 SWAP2 SUB SWAP1 RETURN JUMPDEST CALLVALUE DUP1 ISZERO PUSH2 0x4CF JUMPI PUSH1 0x0 DUP1 REVERT JUMPDEST POP PUSH2 0x4D8 PUSH2 0x203E JUMP JUMPDEST PUSH1 0x40 MLOAD PUSH2 0x4E5 SWAP2 SWAP1 PUSH2 0x31A9 JUMP JUMPDEST PUSH1 0x40 MLOAD DUP1 SWAP2 SUB SWAP1 RETURN JUMPDEST CALLVALUE DUP1 ISZERO PUSH2 0x4FA JUMPI PUSH1 0x0 DUP1 REVERT JUMPDEST POP PUSH2 0x503 PUSH2 0x2044 JUMP JUMPDEST PUSH1 0x40 MLOAD PUSH2 0x510 SWAP2 SWAP1 PUSH2 0x31A9 JUMP JUMPDEST PUSH1 0x40 MLOAD DUP1 SWAP2 SUB SWAP1 RETURN JUMPDEST CALLVALUE DUP1 ISZERO PUSH2 0x525 JUMPI PUSH1 0x0 DUP1 REVERT JUMPDEST POP PUSH2 0x540 PUSH1 0x4 DUP1 CALLDATASIZE SUB PUSH2 0x53B SWAP2 SWAP1 DUP2 ADD SWAP1 PUSH2 0x2EBB JUMP JUMPDEST PUSH2 0x204A JUMP JUMPDEST PUSH1 0x40 MLOAD PUSH2 0x54D SWAP2 SWAP1 PUSH2 0x2FA2 JUMP JUMPDEST PUSH1 0x40 MLOAD DUP1 SWAP2 SUB SWAP1 RETURN JUMPDEST CALLVALUE DUP1 ISZERO PUSH2 0x562 JUMPI PUSH1 0x0 DUP1 REVERT JUMPDEST POP PUSH2 0x56B PUSH2 0x2088 JUMP JUMPDEST PUSH1 0x40 MLOAD PUSH2 0x578 SWAP2 SWAP1 PUSH2 0x2FBD JUMP JUMPDEST PUSH1 0x40 MLOAD DUP1 SWAP2 SUB SWAP1 RETURN JUMPDEST CALLVALUE DUP1 ISZERO PUSH2 0x58D JUMPI PUSH1 0x0 DUP1 REVERT JUMPDEST POP PUSH2 0x596 PUSH2 0x2116 JUMP JUMPDEST PUSH1 0x40 MLOAD PUSH2 0x5A3 SWAP2 SWAP1 PUSH2 0x31A9 JUMP JUMPDEST PUSH1 0x40 MLOAD DUP1 SWAP2 SUB SWAP1 RETURN JUMPDEST CALLVALUE DUP1 ISZERO PUSH2 0x5B8 JUMPI PUSH1 0x0 DUP1 REVERT JUMPDEST POP PUSH2 0x5C1 PUSH2 0x2120 JUMP JUMPDEST PUSH1 0x40 MLOAD PUSH2 0x5CE SWAP2 SWAP1 PUSH2 0x2FA2 JUMP JUMPDEST PUSH1 0x40 MLOAD DUP1 SWAP2 SUB SWAP1 RETURN JUMPDEST CALLVALUE DUP1 ISZERO PUSH2 0x5E3 JUMPI PUSH1 0x0 DUP1 REVERT JUMPDEST POP PUSH2 0x5FE PUSH1 0x4 DUP1 CALLDATASIZE SUB PUSH2 0x5F9 SWAP2 SWAP1 DUP2 ADD SWAP1 PUSH2 0x2AA1 JUMP JUMPDEST PUSH2 0x2146 JUMP JUMPDEST PUSH1 0x40 MLOAD PUSH2 0x60B SWAP2 SWAP1 PUSH2 0x2FDF JUMP JUMPDEST PUSH1 0x40 MLOAD DUP1 SWAP2 SUB SWAP1 RETURN JUMPDEST CALLVALUE DUP1 ISZERO PUSH2 0x620 JUMPI PUSH1 0x0 DUP1 REVERT JUMPDEST POP PUSH2 0x629 PUSH2 0x2243 JUMP JUMPDEST PUSH1 0x40 MLOAD PUSH2 0x636 SWAP2 SWAP1 PUSH2 0x31A9 JUMP JUMPDEST PUSH1 0x40 MLOAD DUP1 SWAP2 SUB SWAP1 RETURN JUMPDEST CALLVALUE DUP1 ISZERO PUSH2 0x64B JUMPI PUSH1 0x0 DUP1 REVERT JUMPDEST POP PUSH2 0x666 PUSH1 0x4 DUP1 CALLDATASIZE SUB PUSH2 0x661 SWAP2 SWAP1 DUP2 ADD SWAP1 PUSH2 0x2A78 JUMP JUMPDEST PUSH2 0x2249 JUMP JUMPDEST PUSH1 0x40 MLOAD PUSH2 0x679 SWAP8 SWAP7 SWAP6 SWAP5 SWAP4 SWAP3 SWAP2 SWAP1 PUSH2 0x3093 JUMP JUMPDEST PUSH1 0x40 MLOAD DUP1 SWAP2 SUB SWAP1 RETURN JUMPDEST CALLVALUE DUP1 ISZERO PUSH2 0x68E JUMPI PUSH1 0x0 DUP1 REVERT JUMPDEST POP PUSH2 0x6A9 PUSH1 0x4 DUP1 CALLDATASIZE SUB PUSH2 0x6A4 SWAP2 SWAP1 DUP2 ADD SWAP1 PUSH2 0x2AA1 JUMP JUMPDEST PUSH2 0x27FE JUMP JUMPDEST PUSH1 0x40 MLOAD PUSH2 0x6B6 SWAP2 SWAP1 PUSH2 0x2FDF JUMP JUMPDEST PUSH1 0x40 MLOAD DUP1 SWAP2 SUB SWAP1 RETURN JUMPDEST CALLVALUE DUP1 ISZERO PUSH2 0x6CB JUMPI PUSH1 0x0 DUP1 REVERT JUMPDEST POP PUSH2 0x6D4 PUSH2 0x290D JUMP JUMPDEST PUSH1 0x40 MLOAD PUSH2 0x6E1 SWAP2 SWAP1 PUSH2 0x31A9 JUMP JUMPDEST PUSH1 0x40 MLOAD DUP1 SWAP2 SUB SWAP1 RETURN JUMPDEST CALLVALUE DUP1 ISZERO PUSH2 0x6F6 JUMPI PUSH1 0x0 DUP1 REVERT JUMPDEST POP PUSH2 0x711 PUSH1 0x4 DUP1 CALLDATASIZE SUB PUSH2 0x70C SWAP2 SWAP1 DUP2 ADD SWAP1 PUSH2 0x2EBB JUMP JUMPDEST PUSH2 0x2917 JUMP JUMPDEST PUSH1 0x40 MLOAD PUSH2 0x71E SWAP2 SWAP1 PUSH2 0x2FA2 JUMP JUMPDEST PUSH1 0x40 MLOAD DUP1 SWAP2 SUB SWAP1 RETURN JUMPDEST PUSH1 0x60 PUSH1 0x1 DUP1 SLOAD DUP1 PUSH1 0x20 MUL PUSH1 0x20 ADD PUSH1 0x40 MLOAD SWAP1 DUP2 ADD PUSH1 0x40 MSTORE DUP1 SWAP3 SWAP2 SWAP1 DUP2 DUP2 MSTORE PUSH1 0x20 ADD DUP3 DUP1 SLOAD DUP1 ISZERO PUSH2 0x7AB JUMPI PUSH1 0x20 MUL DUP3 ADD SWAP2 SWAP1 PUSH1 0x0 MSTORE PUSH1 0x20 PUSH1 0x0 KECCAK256 SWAP1 JUMPDEST DUP2 PUSH1 0x0 SWAP1 SLOAD SWAP1 PUSH2 0x100 EXP SWAP1 DIV PUSH20 0xFFFFFFFFFFFFFFFFFFFFFFFFFFFFFFFFFFFFFFFF AND PUSH20 0xFFFFFFFFFFFFFFFFFFFFFFFFFFFFFFFFFFFFFFFF AND DUP2 MSTORE PUSH1 0x20 ADD SWAP1 PUSH1 0x1 ADD SWAP1 DUP1 DUP4 GT PUSH2 0x761 JUMPI JUMPDEST POP POP POP POP POP SWAP1 POP SWAP1 JUMP JUMPDEST PUSH1 0x0 PUSH1 0xE SLOAD SWAP1 POP SWAP1 JUMP JUMPDEST PUSH1 0x60 DUP1 PUSH1 0x60 DUP1 PUSH1 0x60 DUP1 PUSH1 0x0 DUP1 PUSH1 0x7 PUSH1 0x0 DUP11 PUSH20 0xFFFFFFFFFFFFFFFFFFFFFFFFFFFFFFFFFFFFFFFF AND PUSH20 0xFFFFFFFFFFFFFFFFFFFFFFFFFFFFFFFFFFFFFFFF AND DUP2 MSTORE PUSH1 0x20 ADD SWAP1 DUP2 MSTORE PUSH1 0x20 ADD PUSH1 0x0 KECCAK256 PUSH1 0x0 CALLER PUSH20 0xFFFFFFFFFFFFFFFFFFFFFFFFFFFFFFFFFFFFFFFF AND PUSH20 0xFFFFFFFFFFFFFFFFFFFFFFFFFFFFFFFFFFFFFFFF AND DUP2 MSTORE PUSH1 0x20 ADD SWAP1 DUP2 MSTORE PUSH1 0x20 ADD PUSH1 0x0 KECCAK256 PUSH1 0x0 SWAP1 SLOAD SWAP1 PUSH2 0x100 EXP SWAP1 DIV PUSH1 0xFF AND ISZERO ISZERO PUSH2 0x860 JUMPI PUSH1 0x0 DUP1 REVERT JUMPDEST PUSH1 0x4 PUSH1 0x0 DUP11 PUSH20 0xFFFFFFFFFFFFFFFFFFFFFFFFFFFFFFFFFFFFFFFF AND PUSH20 0xFFFFFFFFFFFFFFFFFFFFFFFFFFFFFFFFFFFFFFFF AND DUP2 MSTORE PUSH1 0x20 ADD SWAP1 DUP2 MSTORE PUSH1 0x20 ADD PUSH1 0x0 KECCAK256 SWAP1 POP DUP1 PUSH1 0x0 ADD DUP2 PUSH1 0x1 ADD DUP3 PUSH1 0x2 ADD DUP4 PUSH1 0x3 ADD DUP5 PUSH1 0x4 ADD DUP6 PUSH1 0x5 ADD DUP7 PUSH1 0x9 ADD PUSH1 0x0 SWAP1 SLOAD SWAP1 PUSH2 0x100 EXP SWAP1 DIV PUSH20 0xFFFFFFFFFFFFFFFFFFFFFFFFFFFFFFFFFFFFFFFF AND DUP7 DUP1 SLOAD PUSH1 0x1 DUP2 PUSH1 0x1 AND ISZERO PUSH2 0x100 MUL SUB AND PUSH1 0x2 SWAP1 DIV DUP1 PUSH1 0x1F ADD PUSH1 0x20 DUP1 SWAP2 DIV MUL PUSH1 0x20 ADD PUSH1 0x40 MLOAD SWAP1 DUP2 ADD PUSH1 0x40 MSTORE DUP1 SWAP3 SWAP2 SWAP1 DUP2 DUP2 MSTORE PUSH1 0x20 ADD DUP3 DUP1 SLOAD PUSH1 0x1 DUP2 PUSH1 0x1 AND ISZERO PUSH2 0x100 MUL SUB AND PUSH1 0x2 SWAP1 DIV DUP1 ISZERO PUSH2 0x973 JUMPI DUP1 PUSH1 0x1F LT PUSH2 0x948 JUMPI PUSH2 0x100 DUP1 DUP4 SLOAD DIV MUL DUP4 MSTORE SWAP2 PUSH1 0x20 ADD SWAP2 PUSH2 0x973 JUMP JUMPDEST DUP3 ADD SWAP2 SWAP1 PUSH1 0x0 MSTORE PUSH1 0x20 PUSH1 0x0 KECCAK256 SWAP1 JUMPDEST DUP2 SLOAD DUP2 MSTORE SWAP1 PUSH1 0x1 ADD SWAP1 PUSH1 0x20 ADD DUP1 DUP4 GT PUSH2 0x956 JUMPI DUP3 SWAP1 SUB PUSH1 0x1F AND DUP3 ADD SWAP2 JUMPDEST POP POP POP POP POP SWAP7 POP DUP6 DUP1 SLOAD PUSH1 0x1 DUP2 PUSH1 0x1 AND ISZERO PUSH2 0x100 MUL SUB AND PUSH1 0x2 SWAP1 DIV DUP1 PUSH1 0x1F ADD PUSH1 0x20 DUP1 SWAP2 DIV MUL PUSH1 0x20 ADD PUSH1 0x40 MLOAD SWAP1 DUP2 ADD PUSH1 0x40 MSTORE DUP1 SWAP3 SWAP2 SWAP1 DUP2 DUP2 MSTORE PUSH1 0x20 ADD DUP3 DUP1 SLOAD PUSH1 0x1 DUP2 PUSH1 0x1 AND ISZERO PUSH2 0x100 MUL SUB AND PUSH1 0x2 SWAP1 DIV DUP1 ISZERO PUSH2 0xA0F JUMPI DUP1 PUSH1 0x1F LT PUSH2 0x9E4 JUMPI PUSH2 0x100 DUP1 DUP4 SLOAD DIV MUL DUP4 MSTORE SWAP2 PUSH1 0x20 ADD SWAP2 PUSH2 0xA0F JUMP JUMPDEST DUP3 ADD SWAP2 SWAP1 PUSH1 0x0 MSTORE PUSH1 0x20 PUSH1 0x0 KECCAK256 SWAP1 JUMPDEST DUP2 SLOAD DUP2 MSTORE SWAP1 PUSH1 0x1 ADD SWAP1 PUSH1 0x20 ADD DUP1 DUP4 GT PUSH2 0x9F2 JUMPI DUP3 SWAP1 SUB PUSH1 0x1F AND DUP3 ADD SWAP2 JUMPDEST POP POP POP POP POP SWAP6 POP DUP5 DUP1 SLOAD PUSH1 0x1 DUP2 PUSH1 0x1 AND ISZERO PUSH2 0x100 MUL SUB AND PUSH1 0x2 SWAP1 DIV DUP1 PUSH1 0x1F ADD PUSH1 0x20 DUP1 SWAP2 DIV MUL PUSH1 0x20 ADD PUSH1 0x40 MLOAD SWAP1 DUP2 ADD PUSH1 0x40 MSTORE DUP1 SWAP3 SWAP2 SWAP1 DUP2 DUP2 MSTORE PUSH1 0x20 ADD DUP3 DUP1 SLOAD PUSH1 0x1 DUP2 PUSH1 0x1 AND ISZERO PUSH2 0x100 MUL SUB AND PUSH1 0x2 SWAP1 DIV DUP1 ISZERO PUSH2 0xAAB JUMPI DUP1 PUSH1 0x1F LT PUSH2 0xA80 JUMPI PUSH2 0x100 DUP1 DUP4 SLOAD DIV MUL DUP4 MSTORE SWAP2 PUSH1 0x20 ADD SWAP2 PUSH2 0xAAB JUMP JUMPDEST DUP3 ADD SWAP2 SWAP1 PUSH1 0x0 MSTORE PUSH1 0x20 PUSH1 0x0 KECCAK256 SWAP1 JUMPDEST DUP2 SLOAD DUP2 MSTORE SWAP1 PUSH1 0x1 ADD SWAP1 PUSH1 0x20 ADD DUP1 DUP4 GT PUSH2 0xA8E JUMPI DUP3 SWAP1 SUB PUSH1 0x1F AND DUP3 ADD SWAP2 JUMPDEST POP POP POP POP POP SWAP5 POP DUP4 DUP1 SLOAD PUSH1 0x1 DUP2 PUSH1 0x1 AND ISZERO PUSH2 0x100 MUL SUB AND PUSH1 0x2 SWAP1 DIV DUP1 PUSH1 0x1F ADD PUSH1 0x20 DUP1 SWAP2 DIV MUL PUSH1 0x20 ADD PUSH1 0x40 MLOAD SWAP1 DUP2 ADD PUSH1 0x40 MSTORE DUP1 SWAP3 SWAP2 SWAP1 DUP2 DUP2 MSTORE PUSH1 0x20 ADD DUP3 DUP1 SLOAD PUSH1 0x1 DUP2 PUSH1 0x1 AND ISZERO PUSH2 0x100 MUL SUB AND PUSH1 0x2 SWAP1 DIV DUP1 ISZERO PUSH2 0xB47 JUMPI DUP1 PUSH1 0x1F LT PUSH2 0xB1C JUMPI PUSH2 0x100 DUP1 DUP4 SLOAD DIV MUL DUP4 MSTORE SWAP2 PUSH1 0x20 ADD SWAP2 PUSH2 0xB47 JUMP JUMPDEST DUP3 ADD SWAP2 SWAP1 PUSH1 0x0 MSTORE PUSH1 0x20 PUSH1 0x0 KECCAK256 SWAP1 JUMPDEST DUP2 SLOAD DUP2 MSTORE SWAP1 PUSH1 0x1 ADD SWAP1 PUSH1 0x20 ADD DUP1 DUP4 GT PUSH2 0xB2A JUMPI DUP3 SWAP1 SUB PUSH1 0x1F AND DUP3 ADD SWAP2 JUMPDEST POP POP POP POP POP SWAP4 POP DUP3 DUP1 SLOAD PUSH1 0x1 DUP2 PUSH1 0x1 AND ISZERO PUSH2 0x100 MUL SUB AND PUSH1 0x2 SWAP1 DIV DUP1 PUSH1 0x1F ADD PUSH1 0x20 DUP1 SWAP2 DIV MUL PUSH1 0x20 ADD PUSH1 0x40 MLOAD SWAP1 DUP2 ADD PUSH1 0x40 MSTORE DUP1 SWAP3 SWAP2 SWAP1 DUP2 DUP2 MSTORE PUSH1 0x20 ADD DUP3 DUP1 SLOAD PUSH1 0x1 DUP2 PUSH1 0x1 AND ISZERO PUSH2 0x100 MUL SUB AND PUSH1 0x2 SWAP1 DIV DUP1 ISZERO PUSH2 0xBE3 JUMPI DUP1 PUSH1 0x1F LT PUSH2 0xBB8 JUMPI PUSH2 0x100 DUP1 DUP4 SLOAD DIV MUL DUP4 MSTORE SWAP2 PUSH1 0x20 ADD SWAP2 PUSH2 0xBE3 JUMP JUMPDEST DUP3 ADD SWAP2 SWAP1 PUSH1 0x0 MSTORE PUSH1 0x20 PUSH1 0x0 KECCAK256 SWAP1 JUMPDEST DUP2 SLOAD DUP2 MSTORE SWAP1 PUSH1 0x1 ADD SWAP1 PUSH1 0x20 ADD DUP1 DUP4 GT PUSH2 0xBC6 JUMPI DUP3 SWAP1 SUB PUSH1 0x1F AND DUP3 ADD SWAP2 JUMPDEST POP POP POP POP POP SWAP3 POP DUP2 DUP1 SLOAD PUSH1 0x1 DUP2 PUSH1 0x1 AND ISZERO PUSH2 0x100 MUL SUB AND PUSH1 0x2 SWAP1 DIV DUP1 PUSH1 0x1F ADD PUSH1 0x20 DUP1 SWAP2 DIV MUL PUSH1 0x20 ADD PUSH1 0x40 MLOAD SWAP1 DUP2 ADD PUSH1 0x40 MSTORE DUP1 SWAP3 SWAP2 SWAP1 DUP2 DUP2 MSTORE PUSH1 0x20 ADD DUP3 DUP1 SLOAD PUSH1 0x1 DUP2 PUSH1 0x1 AND ISZERO PUSH2 0x100 MUL SUB AND PUSH1 0x2 SWAP1 DIV DUP1 ISZERO PUSH2 0xC7F JUMPI DUP1 PUSH1 0x1F LT PUSH2 0xC54 JUMPI PUSH2 0x100 DUP1 DUP4 SLOAD DIV MUL DUP4 MSTORE SWAP2 PUSH1 0x20 ADD SWAP2 PUSH2 0xC7F JUMP JUMPDEST DUP3 ADD SWAP2 SWAP1 PUSH1 0x0 MSTORE PUSH1 0x20 PUSH1 0x0 KECCAK256 SWAP1 JUMPDEST DUP2 SLOAD DUP2 MSTORE SWAP1 PUSH1 0x1 ADD SWAP1 PUSH1 0x20 ADD DUP1 DUP4 GT PUSH2 0xC62 JUMPI DUP3 SWAP1 SUB PUSH1 0x1F AND DUP3 ADD SWAP2 JUMPDEST POP POP POP POP POP SWAP2 POP SWAP8 POP SWAP8 POP SWAP8 POP SWAP8 POP SWAP8 POP SWAP8 POP SWAP8 POP POP SWAP2 SWAP4 SWAP6 SWAP8 SWAP1 SWAP3 SWAP5 SWAP7 POP JUMP JUMPDEST PUSH1 0xB SLOAD DUP2 JUMP JUMPDEST PUSH1 0x2 DUP2 DUP2 SLOAD DUP2 LT ISZERO ISZERO PUSH2 0xCB5 JUMPI INVALID JUMPDEST SWAP1 PUSH1 0x0 MSTORE PUSH1 0x20 PUSH1 0x0 KECCAK256 ADD PUSH1 0x0 SWAP2 POP SLOAD SWAP1 PUSH2 0x100 EXP SWAP1 DIV PUSH20 0xFFFFFFFFFFFFFFFFFFFFFFFFFFFFFFFFFFFFFFFF AND DUP2 JUMP JUMPDEST PUSH1 0x0 PUSH1 0x10 PUSH1 0x0 SWAP1 SLOAD SWAP1 PUSH2 0x100 EXP SWAP1 DIV PUSH20 0xFFFFFFFFFFFFFFFFFFFFFFFFFFFFFFFFFFFFFFFF AND PUSH20 0xFFFFFFFFFFFFFFFFFFFFFFFFFFFFFFFFFFFFFFFF AND CALLER PUSH20 0xFFFFFFFFFFFFFFFFFFFFFFFFFFFFFFFFFFFFFFFF AND EQ ISZERO ISZERO PUSH2 0xD42 JUMPI PUSH1 0x0 DUP1 REVERT JUMPDEST PUSH1 0x9 PUSH1 0x0 DUP11 PUSH20 0xFFFFFFFFFFFFFFFFFFFFFFFFFFFFFFFFFFFFFFFF AND PUSH20 0xFFFFFFFFFFFFFFFFFFFFFFFFFFFFFFFFFFFFFFFF AND DUP2 MSTORE PUSH1 0x20 ADD SWAP1 DUP2 MSTORE PUSH1 0x20 ADD PUSH1 0x0 KECCAK256 PUSH1 0x0 SWAP1 SLOAD SWAP1 PUSH2 0x100 EXP SWAP1 DIV PUSH1 0xFF AND ISZERO ISZERO PUSH2 0xD9A JUMPI PUSH1 0x0 DUP1 REVERT JUMPDEST PUSH1 0x5 PUSH1 0x0 DUP11 PUSH20 0xFFFFFFFFFFFFFFFFFFFFFFFFFFFFFFFFFFFFFFFF AND PUSH20 0xFFFFFFFFFFFFFFFFFFFFFFFFFFFFFFFFFFFFFFFF AND DUP2 MSTORE PUSH1 0x20 ADD SWAP1 DUP2 MSTORE PUSH1 0x20 ADD PUSH1 0x0 KECCAK256 SWAP1 POP DUP8 DUP2 PUSH1 0x0 ADD SWAP1 DUP1 MLOAD SWAP1 PUSH1 0x20 ADD SWAP1 PUSH2 0xDF3 SWAP3 SWAP2 SWAP1 PUSH2 0x2955 JUMP JUMPDEST POP DUP7 DUP2 PUSH1 0x1 ADD SWAP1 DUP1 MLOAD SWAP1 PUSH1 0x20 ADD SWAP1 PUSH2 0xE0C SWAP3 SWAP2 SWAP1 PUSH2 0x2955 JUMP JUMPDEST POP DUP6 DUP2 PUSH1 0x2 ADD SWAP1 DUP1 MLOAD SWAP1 PUSH1 0x20 ADD SWAP1 PUSH2 0xE25 SWAP3 SWAP2 SWAP1 PUSH2 0x2955 JUMP JUMPDEST POP DUP5 DUP2 PUSH1 0x3 ADD SWAP1 DUP1 MLOAD SWAP1 PUSH1 0x20 ADD SWAP1 PUSH2 0xE3E SWAP3 SWAP2 SWAP1 PUSH2 0x2955 JUMP JUMPDEST POP DUP4 DUP2 PUSH1 0x4 ADD SWAP1 DUP1 MLOAD SWAP1 PUSH1 0x20 ADD SWAP1 PUSH2 0xE57 SWAP3 SWAP2 SWAP1 PUSH2 0x2955 JUMP JUMPDEST POP DUP3 DUP2 PUSH1 0x6 ADD SWAP1 DUP1 MLOAD SWAP1 PUSH1 0x20 ADD SWAP1 PUSH2 0xE70 SWAP3 SWAP2 SWAP1 PUSH2 0x2955 JUMP JUMPDEST POP DUP2 DUP2 PUSH1 0x7 ADD SWAP1 DUP1 MLOAD SWAP1 PUSH1 0x20 ADD SWAP1 PUSH2 0xE89 SWAP3 SWAP2 SWAP1 PUSH2 0x2955 JUMP JUMPDEST POP DUP9 DUP2 PUSH1 0x8 ADD PUSH1 0x0 PUSH2 0x100 EXP DUP2 SLOAD DUP2 PUSH20 0xFFFFFFFFFFFFFFFFFFFFFFFFFFFFFFFFFFFFFFFF MUL NOT AND SWAP1 DUP4 PUSH20 0xFFFFFFFFFFFFFFFFFFFFFFFFFFFFFFFFFFFFFFFF AND MUL OR SWAP1 SSTORE POP POP POP POP POP POP POP POP POP POP JUMP JUMPDEST PUSH1 0x0 PUSH1 0x10 PUSH1 0x0 SWAP1 SLOAD SWAP1 PUSH2 0x100 EXP SWAP1 DIV PUSH20 0xFFFFFFFFFFFFFFFFFFFFFFFFFFFFFFFFFFFFFFFF AND PUSH20 0xFFFFFFFFFFFFFFFFFFFFFFFFFFFFFFFFFFFFFFFF AND CALLER PUSH20 0xFFFFFFFFFFFFFFFFFFFFFFFFFFFFFFFFFFFFFFFF AND EQ ISZERO ISZERO PUSH2 0xF36 JUMPI PUSH1 0x0 DUP1 REVERT JUMPDEST PUSH1 0x9 PUSH1 0x0 DUP11 PUSH20 0xFFFFFFFFFFFFFFFFFFFFFFFFFFFFFFFFFFFFFFFF AND PUSH20 0xFFFFFFFFFFFFFFFFFFFFFFFFFFFFFFFFFFFFFFFF AND DUP2 MSTORE PUSH1 0x20 ADD SWAP1 DUP2 MSTORE PUSH1 0x20 ADD PUSH1 0x0 KECCAK256 PUSH1 0x0 SWAP1 SLOAD SWAP1 PUSH2 0x100 EXP SWAP1 DIV PUSH1 0xFF AND ISZERO ISZERO ISZERO PUSH2 0xF8F JUMPI PUSH1 0x0 DUP1 REVERT JUMPDEST PUSH1 0x5 PUSH1 0x0 DUP11 PUSH20 0xFFFFFFFFFFFFFFFFFFFFFFFFFFFFFFFFFFFFFFFF AND PUSH20 0xFFFFFFFFFFFFFFFFFFFFFFFFFFFFFFFFFFFFFFFF AND DUP2 MSTORE PUSH1 0x20 ADD SWAP1 DUP2 MSTORE PUSH1 0x20 ADD PUSH1 0x0 KECCAK256 SWAP1 POP DUP8 DUP2 PUSH1 0x0 ADD SWAP1 DUP1 MLOAD SWAP1 PUSH1 0x20 ADD SWAP1 PUSH2 0xFE8 SWAP3 SWAP2 SWAP1 PUSH2 0x2955 JUMP JUMPDEST POP DUP7 DUP2 PUSH1 0x1 ADD SWAP1 DUP1 MLOAD SWAP1 PUSH1 0x20 ADD SWAP1 PUSH2 0x1001 SWAP3 SWAP2 SWAP1 PUSH2 0x2955 JUMP JUMPDEST POP DUP6 DUP2 PUSH1 0x2 ADD SWAP1 DUP1 MLOAD SWAP1 PUSH1 0x20 ADD SWAP1 PUSH2 0x101A SWAP3 SWAP2 SWAP1 PUSH2 0x2955 JUMP JUMPDEST POP DUP5 DUP2 PUSH1 0x3 ADD SWAP1 DUP1 MLOAD SWAP1 PUSH1 0x20 ADD SWAP1 PUSH2 0x1033 SWAP3 SWAP2 SWAP1 PUSH2 0x2955 JUMP JUMPDEST POP DUP4 DUP2 PUSH1 0x4 ADD SWAP1 DUP1 MLOAD SWAP1 PUSH1 0x20 ADD SWAP1 PUSH2 0x104C SWAP3 SWAP2 SWAP1 PUSH2 0x2955 JUMP JUMPDEST POP DUP3 DUP2 PUSH1 0x6 ADD SWAP1 DUP1 MLOAD SWAP1 PUSH1 0x20 ADD SWAP1 PUSH2 0x1065 SWAP3 SWAP2 SWAP1 PUSH2 0x2955 JUMP JUMPDEST POP DUP2 DUP2 PUSH1 0x7 ADD SWAP1 DUP1 MLOAD SWAP1 PUSH1 0x20 ADD SWAP1 PUSH2 0x107E SWAP3 SWAP2 SWAP1 PUSH2 0x2955 JUMP JUMPDEST POP DUP9 DUP2 PUSH1 0x8 ADD PUSH1 0x0 PUSH2 0x100 EXP DUP2 SLOAD DUP2 PUSH20 0xFFFFFFFFFFFFFFFFFFFFFFFFFFFFFFFFFFFFFFFF MUL NOT AND SWAP1 DUP4 PUSH20 0xFFFFFFFFFFFFFFFFFFFFFFFFFFFFFFFFFFFFFFFF AND MUL OR SWAP1 SSTORE POP TIMESTAMP DUP2 PUSH1 0x9 ADD DUP2 SWAP1 SSTORE POP PUSH1 0x2 DUP10 SWAP1 DUP1 PUSH1 0x1 DUP2 SLOAD ADD DUP1 DUP3 SSTORE DUP1 SWAP2 POP POP SWAP1 PUSH1 0x1 DUP3 SUB SWAP1 PUSH1 0x0 MSTORE PUSH1 0x20 PUSH1 0x0 KECCAK256 ADD PUSH1 0x0 SWAP1 SWAP2 SWAP3 SWAP1 SWAP2 SWAP1 SWAP2 PUSH2 0x100 EXP DUP2 SLOAD DUP2 PUSH20 0xFFFFFFFFFFFFFFFFFFFFFFFFFFFFFFFFFFFFFFFF MUL NOT AND SWAP1 DUP4 PUSH20 0xFFFFFFFFFFFFFFFFFFFFFFFFFFFFFFFFFFFFFFFF AND MUL OR SWAP1 SSTORE POP POP PUSH1 0x1 PUSH1 0x9 PUSH1 0x0 DUP12 PUSH20 0xFFFFFFFFFFFFFFFFFFFFFFFFFFFFFFFFFFFFFFFF AND PUSH20 0xFFFFFFFFFFFFFFFFFFFFFFFFFFFFFFFFFFFFFFFF AND DUP2 MSTORE PUSH1 0x20 ADD SWAP1 DUP2 MSTORE PUSH1 0x20 ADD PUSH1 0x0 KECCAK256 PUSH1 0x0 PUSH2 0x100 EXP DUP2 SLOAD DUP2 PUSH1 0xFF MUL NOT AND SWAP1 DUP4 ISZERO ISZERO MUL OR SWAP1 SSTORE POP PUSH1 0x1 PUSH1 0x7 PUSH1 0x0 DUP12 PUSH20 0xFFFFFFFFFFFFFFFFFFFFFFFFFFFFFFFFFFFFFFFF AND PUSH20 0xFFFFFFFFFFFFFFFFFFFFFFFFFFFFFFFFFFFFFFFF AND DUP2 MSTORE PUSH1 0x20 ADD SWAP1 DUP2 MSTORE PUSH1 0x20 ADD PUSH1 0x0 KECCAK256 PUSH1 0x0 DUP12 PUSH20 0xFFFFFFFFFFFFFFFFFFFFFFFFFFFFFFFFFFFFFFFF AND PUSH20 0xFFFFFFFFFFFFFFFFFFFFFFFFFFFFFFFFFFFFFFFF AND DUP2 MSTORE PUSH1 0x20 ADD SWAP1 DUP2 MSTORE PUSH1 0x20 ADD PUSH1 0x0 KECCAK256 PUSH1 0x0 PUSH2 0x100 EXP DUP2 SLOAD DUP2 PUSH1 0xFF MUL NOT AND SWAP1 DUP4 ISZERO ISZERO MUL OR SWAP1 SSTORE POP PUSH1 0x1 PUSH1 0x7 PUSH1 0x0 DUP12 PUSH20 0xFFFFFFFFFFFFFFFFFFFFFFFFFFFFFFFFFFFFFFFF AND PUSH20 0xFFFFFFFFFFFFFFFFFFFFFFFFFFFFFFFFFFFFFFFF AND DUP2 MSTORE PUSH1 0x20 ADD SWAP1 DUP2 MSTORE PUSH1 0x20 ADD PUSH1 0x0 KECCAK256 PUSH1 0x0 PUSH1 0x10 PUSH1 0x0 SWAP1 SLOAD SWAP1 PUSH2 0x100 EXP SWAP1 DIV PUSH20 0xFFFFFFFFFFFFFFFFFFFFFFFFFFFFFFFFFFFFFFFF AND PUSH20 0xFFFFFFFFFFFFFFFFFFFFFFFFFFFFFFFFFFFFFFFF AND PUSH20 0xFFFFFFFFFFFFFFFFFFFFFFFFFFFFFFFFFFFFFFFF AND DUP2 MSTORE PUSH1 0x20 ADD SWAP1 DUP2 MSTORE PUSH1 0x20 ADD PUSH1 0x0 KECCAK256 PUSH1 0x0 PUSH2 0x100 EXP DUP2 SLOAD DUP2 PUSH1 0xFF MUL NOT AND SWAP1 DUP4 ISZERO ISZERO MUL OR SWAP1 SSTORE POP PUSH1 0xC PUSH1 0x0 DUP2 SLOAD DUP1 SWAP3 SWAP2 SWAP1 PUSH1 0x1 ADD SWAP2 SWAP1 POP SSTORE POP POP POP POP POP POP POP POP POP POP JUMP JUMPDEST PUSH1 0x0 PUSH1 0x1 PUSH1 0x7 PUSH1 0x0 CALLER PUSH20 0xFFFFFFFFFFFFFFFFFFFFFFFFFFFFFFFFFFFFFFFF AND PUSH20 0xFFFFFFFFFFFFFFFFFFFFFFFFFFFFFFFFFFFFFFFF AND DUP2 MSTORE PUSH1 0x20 ADD SWAP1 DUP2 MSTORE PUSH1 0x20 ADD PUSH1 0x0 KECCAK256 PUSH1 0x0 DUP5 PUSH20 0xFFFFFFFFFFFFFFFFFFFFFFFFFFFFFFFFFFFFFFFF AND PUSH20 0xFFFFFFFFFFFFFFFFFFFFFFFFFFFFFFFFFFFFFFFF AND DUP2 MSTORE PUSH1 0x20 ADD SWAP1 DUP2 MSTORE PUSH1 0x20 ADD PUSH1 0x0 KECCAK256 PUSH1 0x0 PUSH2 0x100 EXP DUP2 SLOAD DUP2 PUSH1 0xFF MUL NOT AND SWAP1 DUP4 ISZERO ISZERO MUL OR SWAP1 SSTORE POP PUSH1 0xE PUSH1 0x0 DUP2 SLOAD DUP1 SWAP3 SWAP2 SWAP1 PUSH1 0x1 ADD SWAP2 SWAP1 POP SSTORE POP PUSH1 0x1 SWAP1 POP SWAP2 SWAP1 POP JUMP JUMPDEST PUSH1 0x0 DUP1 PUSH1 0x10 PUSH1 0x0 SWAP1 SLOAD SWAP1 PUSH2 0x100 EXP SWAP1 DIV PUSH20 0xFFFFFFFFFFFFFFFFFFFFFFFFFFFFFFFFFFFFFFFF AND PUSH20 0xFFFFFFFFFFFFFFFFFFFFFFFFFFFFFFFFFFFFFFFF AND CALLER PUSH20 0xFFFFFFFFFFFFFFFFFFFFFFFFFFFFFFFFFFFFFFFF AND EQ ISZERO ISZERO PUSH2 0x1403 JUMPI PUSH1 0x0 DUP1 REVERT JUMPDEST PUSH1 0xA PUSH1 0x0 DUP10 PUSH20 0xFFFFFFFFFFFFFFFFFFFFFFFFFFFFFFFFFFFFFFFF AND PUSH20 0xFFFFFFFFFFFFFFFFFFFFFFFFFFFFFFFFFFFFFFFF AND DUP2 MSTORE PUSH1 0x20 ADD SWAP1 DUP2 MSTORE PUSH1 0x20 ADD PUSH1 0x0 KECCAK256 PUSH1 0x0 SWAP1 SLOAD SWAP1 PUSH2 0x100 EXP SWAP1 DIV PUSH1 0xFF AND ISZERO ISZERO ISZERO PUSH2 0x145C JUMPI PUSH1 0x0 DUP1 REVERT JUMPDEST PUSH1 0x6 PUSH1 0x0 DUP10 PUSH20 0xFFFFFFFFFFFFFFFFFFFFFFFFFFFFFFFFFFFFFFFF AND PUSH20 0xFFFFFFFFFFFFFFFFFFFFFFFFFFFFFFFFFFFFFFFF AND DUP2 MSTORE PUSH1 0x20 ADD SWAP1 DUP2 MSTORE PUSH1 0x20 ADD PUSH1 0x0 KECCAK256 SWAP1 POP DUP6 DUP2 PUSH1 0x0 ADD SWAP1 DUP1 MLOAD SWAP1 PUSH1 0x20 ADD SWAP1 PUSH2 0x14B5 SWAP3 SWAP2 SWAP1 PUSH2 0x2955 JUMP JUMPDEST POP DUP5 DUP2 PUSH1 0x1 ADD SWAP1 DUP1 MLOAD SWAP1 PUSH1 0x20 ADD SWAP1 PUSH2 0x14CE SWAP3 SWAP2 SWAP1 PUSH2 0x2955 JUMP JUMPDEST POP DUP4 DUP2 PUSH1 0x2 ADD SWAP1 DUP1 MLOAD SWAP1 PUSH1 0x20 ADD SWAP1 PUSH2 0x14E7 SWAP3 SWAP2 SWAP1 PUSH2 0x2955 JUMP JUMPDEST POP DUP3 DUP2 PUSH1 0x3 ADD DUP2 SWAP1 SSTORE POP DUP8 DUP2 PUSH1 0x4 ADD PUSH1 0x0 PUSH2 0x100 EXP DUP2 SLOAD DUP2 PUSH20 0xFFFFFFFFFFFFFFFFFFFFFFFFFFFFFFFFFFFFFFFF MUL NOT AND SWAP1 DUP4 PUSH20 0xFFFFFFFFFFFFFFFFFFFFFFFFFFFFFFFFFFFFFFFF AND MUL OR SWAP1 SSTORE POP DUP7 DUP2 PUSH1 0x5 ADD PUSH1 0x0 PUSH2 0x100 EXP DUP2 SLOAD DUP2 PUSH20 0xFFFFFFFFFFFFFFFFFFFFFFFFFFFFFFFFFFFFFFFF MUL NOT AND SWAP1 DUP4 PUSH20 0xFFFFFFFFFFFFFFFFFFFFFFFFFFFFFFFFFFFFFFFF AND MUL OR SWAP1 SSTORE POP PUSH1 0x3 DUP9 SWAP1 DUP1 PUSH1 0x1 DUP2 SLOAD ADD DUP1 DUP3 SSTORE DUP1 SWAP2 POP POP SWAP1 PUSH1 0x1 DUP3 SUB SWAP1 PUSH1 0x0 MSTORE PUSH1 0x20 PUSH1 0x0 KECCAK256 ADD PUSH1 0x0 SWAP1 SWAP2 SWAP3 SWAP1 SWAP2 SWAP1 SWAP2 PUSH2 0x100 EXP DUP2 SLOAD DUP2 PUSH20 0xFFFFFFFFFFFFFFFFFFFFFFFFFFFFFFFFFFFFFFFF MUL NOT AND SWAP1 DUP4 PUSH20 0xFFFFFFFFFFFFFFFFFFFFFFFFFFFFFFFFFFFFFFFF AND MUL OR SWAP1 SSTORE POP POP PUSH1 0xF PUSH1 0x0 DUP2 SLOAD DUP1 SWAP3 SWAP2 SWAP1 PUSH1 0x1 ADD SWAP2 SWAP1 POP SSTORE POP POP SWAP7 SWAP6 POP POP POP POP POP POP JUMP JUMPDEST PUSH1 0x0 DUP1 PUSH1 0x7 PUSH1 0x0 CALLER PUSH20 0xFFFFFFFFFFFFFFFFFFFFFFFFFFFFFFFFFFFFFFFF AND PUSH20 0xFFFFFFFFFFFFFFFFFFFFFFFFFFFFFFFFFFFFFFFF AND DUP2 MSTORE PUSH1 0x20 ADD SWAP1 DUP2 MSTORE PUSH1 0x20 ADD PUSH1 0x0 KECCAK256 PUSH1 0x0 DUP5 PUSH20 0xFFFFFFFFFFFFFFFFFFFFFFFFFFFFFFFFFFFFFFFF AND PUSH20 0xFFFFFFFFFFFFFFFFFFFFFFFFFFFFFFFFFFFFFFFF AND DUP2 MSTORE PUSH1 0x20 ADD SWAP1 DUP2 MSTORE PUSH1 0x20 ADD PUSH1 0x0 KECCAK256 PUSH1 0x0 PUSH2 0x100 EXP DUP2 SLOAD DUP2 PUSH1 0xFF MUL NOT AND SWAP1 DUP4 ISZERO ISZERO MUL OR SWAP1 SSTORE POP PUSH1 0x1 SWAP1 POP SWAP2 SWAP1 POP JUMP JUMPDEST PUSH1 0x0 PUSH1 0x10 PUSH1 0x0 SWAP1 SLOAD SWAP1 PUSH2 0x100 EXP SWAP1 DIV PUSH20 0xFFFFFFFFFFFFFFFFFFFFFFFFFFFFFFFFFFFFFFFF AND PUSH20 0xFFFFFFFFFFFFFFFFFFFFFFFFFFFFFFFFFFFFFFFF AND CALLER PUSH20 0xFFFFFFFFFFFFFFFFFFFFFFFFFFFFFFFFFFFFFFFF AND EQ ISZERO ISZERO PUSH2 0x16F7 JUMPI PUSH1 0x0 DUP1 REVERT JUMPDEST PUSH1 0x8 PUSH1 0x0 DUP13 PUSH20 0xFFFFFFFFFFFFFFFFFFFFFFFFFFFFFFFFFFFFFFFF AND PUSH20 0xFFFFFFFFFFFFFFFFFFFFFFFFFFFFFFFFFFFFFFFF AND DUP2 MSTORE PUSH1 0x20 ADD SWAP1 DUP2 MSTORE PUSH1 0x20 ADD PUSH1 0x0 KECCAK256 PUSH1 0x0 SWAP1 SLOAD SWAP1 PUSH2 0x100 EXP SWAP1 DIV PUSH1 0xFF AND ISZERO ISZERO ISZERO PUSH2 0x1750 JUMPI PUSH1 0x0 DUP1 REVERT JUMPDEST PUSH1 0x4 PUSH1 0x0 DUP13 PUSH20 0xFFFFFFFFFFFFFFFFFFFFFFFFFFFFFFFFFFFFFFFF AND PUSH20 0xFFFFFFFFFFFFFFFFFFFFFFFFFFFFFFFFFFFFFFFF AND DUP2 MSTORE PUSH1 0x20 ADD SWAP1 DUP2 MSTORE PUSH1 0x20 ADD PUSH1 0x0 KECCAK256 SWAP1 POP DUP10 DUP2 PUSH1 0x0 ADD SWAP1 DUP1 MLOAD SWAP1 PUSH1 0x20 ADD SWAP1 PUSH2 0x17A9 SWAP3 SWAP2 SWAP1 PUSH2 0x2955 JUMP JUMPDEST POP DUP9 DUP2 PUSH1 0x1 ADD SWAP1 DUP1 MLOAD SWAP1 PUSH1 0x20 ADD SWAP1 PUSH2 0x17C2 SWAP3 SWAP2 SWAP1 PUSH2 0x2955 JUMP JUMPDEST POP DUP8 DUP2 PUSH1 0x2 ADD SWAP1 DUP1 MLOAD SWAP1 PUSH1 0x20 ADD SWAP1 PUSH2 0x17DB SWAP3 SWAP2 SWAP1 PUSH2 0x2955 JUMP JUMPDEST POP DUP7 DUP2 PUSH1 0x3 ADD SWAP1 DUP1 MLOAD SWAP1 PUSH1 0x20 ADD SWAP1 PUSH2 0x17F4 SWAP3 SWAP2 SWAP1 PUSH2 0x2955 JUMP JUMPDEST POP DUP6 DUP2 PUSH1 0x4 ADD SWAP1 DUP1 MLOAD SWAP1 PUSH1 0x20 ADD SWAP1 PUSH2 0x180D SWAP3 SWAP2 SWAP1 PUSH2 0x2955 JUMP JUMPDEST POP DUP5 DUP2 PUSH1 0x5 ADD SWAP1 DUP1 MLOAD SWAP1 PUSH1 0x20 ADD SWAP1 PUSH2 0x1826 SWAP3 SWAP2 SWAP1 PUSH2 0x2955 JUMP JUMPDEST POP DUP4 DUP2 PUSH1 0x6 ADD SWAP1 DUP1 MLOAD SWAP1 PUSH1 0x20 ADD SWAP1 PUSH2 0x183F SWAP3 SWAP2 SWAP1 PUSH2 0x2955 JUMP JUMPDEST POP DUP3 DUP2 PUSH1 0x7 ADD SWAP1 DUP1 MLOAD SWAP1 PUSH1 0x20 ADD SWAP1 PUSH2 0x1858 SWAP3 SWAP2 SWAP1 PUSH2 0x2955 JUMP JUMPDEST POP DUP2 DUP2 PUSH1 0x8 ADD SWAP1 DUP1 MLOAD SWAP1 PUSH1 0x20 ADD SWAP1 PUSH2 0x1871 SWAP3 SWAP2 SWAP1 PUSH2 0x2955 JUMP JUMPDEST POP DUP11 DUP2 PUSH1 0x9 ADD PUSH1 0x0 PUSH2 0x100 EXP DUP2 SLOAD DUP2 PUSH20 0xFFFFFFFFFFFFFFFFFFFFFFFFFFFFFFFFFFFFFFFF MUL NOT AND SWAP1 DUP4 PUSH20 0xFFFFFFFFFFFFFFFFFFFFFFFFFFFFFFFFFFFFFFFF AND MUL OR SWAP1 SSTORE POP TIMESTAMP DUP2 PUSH1 0xA ADD DUP2 SWAP1 SSTORE POP PUSH1 0x1 DUP12 SWAP1 DUP1 PUSH1 0x1 DUP2 SLOAD ADD DUP1 DUP3 SSTORE DUP1 SWAP2 POP POP SWAP1 PUSH1 0x1 DUP3 SUB SWAP1 PUSH1 0x0 MSTORE PUSH1 0x20 PUSH1 0x0 KECCAK256 ADD PUSH1 0x0 SWAP1 SWAP2 SWAP3 SWAP1 SWAP2 SWAP1 SWAP2 PUSH2 0x100 EXP DUP2 SLOAD DUP2 PUSH20 0xFFFFFFFFFFFFFFFFFFFFFFFFFFFFFFFFFFFFFFFF MUL NOT AND SWAP1 DUP4 PUSH20 0xFFFFFFFFFFFFFFFFFFFFFFFFFFFFFFFFFFFFFFFF AND MUL OR SWAP1 SSTORE POP POP PUSH1 0x1 PUSH1 0x8 PUSH1 0x0 DUP14 PUSH20 0xFFFFFFFFFFFFFFFFFFFFFFFFFFFFFFFFFFFFFFFF AND PUSH20 0xFFFFFFFFFFFFFFFFFFFFFFFFFFFFFFFFFFFFFFFF AND DUP2 MSTORE PUSH1 0x20 ADD SWAP1 DUP2 MSTORE PUSH1 0x20 ADD PUSH1 0x0 KECCAK256 PUSH1 0x0 PUSH2 0x100 EXP DUP2 SLOAD DUP2 PUSH1 0xFF MUL NOT AND SWAP1 DUP4 ISZERO ISZERO MUL OR SWAP1 SSTORE POP PUSH1 0x1 PUSH1 0x7 PUSH1 0x0 DUP14 PUSH20 0xFFFFFFFFFFFFFFFFFFFFFFFFFFFFFFFFFFFFFFFF AND PUSH20 0xFFFFFFFFFFFFFFFFFFFFFFFFFFFFFFFFFFFFFFFF AND DUP2 MSTORE PUSH1 0x20 ADD SWAP1 DUP2 MSTORE PUSH1 0x20 ADD PUSH1 0x0 KECCAK256 PUSH1 0x0 DUP14 PUSH20 0xFFFFFFFFFFFFFFFFFFFFFFFFFFFFFFFFFFFFFFFF AND PUSH20 0xFFFFFFFFFFFFFFFFFFFFFFFFFFFFFFFFFFFFFFFF AND DUP2 MSTORE PUSH1 0x20 ADD SWAP1 DUP2 MSTORE PUSH1 0x20 ADD PUSH1 0x0 KECCAK256 PUSH1 0x0 PUSH2 0x100 EXP DUP2 SLOAD DUP2 PUSH1 0xFF MUL NOT AND SWAP1 DUP4 ISZERO ISZERO MUL OR SWAP1 SSTORE POP PUSH1 0x1 PUSH1 0x7 PUSH1 0x0 DUP14 PUSH20 0xFFFFFFFFFFFFFFFFFFFFFFFFFFFFFFFFFFFFFFFF AND PUSH20 0xFFFFFFFFFFFFFFFFFFFFFFFFFFFFFFFFFFFFFFFF AND DUP2 MSTORE PUSH1 0x20 ADD SWAP1 DUP2 MSTORE PUSH1 0x20 ADD PUSH1 0x0 KECCAK256 PUSH1 0x0 PUSH1 0x10 PUSH1 0x0 SWAP1 SLOAD SWAP1 PUSH2 0x100 EXP SWAP1 DIV PUSH20 0xFFFFFFFFFFFFFFFFFFFFFFFFFFFFFFFFFFFFFFFF AND PUSH20 0xFFFFFFFFFFFFFFFFFFFFFFFFFFFFFFFFFFFFFFFF AND PUSH20 0xFFFFFFFFFFFFFFFFFFFFFFFFFFFFFFFFFFFFFFFF AND DUP2 MSTORE PUSH1 0x20 ADD SWAP1 DUP2 MSTORE PUSH1 0x20 ADD PUSH1 0x0 KECCAK256 PUSH1 0x0 PUSH2 0x100 EXP DUP2 SLOAD DUP2 PUSH1 0xFF MUL NOT AND SWAP1 DUP4 ISZERO ISZERO MUL OR SWAP1 SSTORE POP PUSH1 0xB PUSH1 0x0 DUP2 SLOAD DUP1 SWAP3 SWAP2 SWAP1 PUSH1 0x1 ADD SWAP2 SWAP1 POP SSTORE POP POP POP POP POP POP POP POP POP POP POP POP JUMP JUMPDEST PUSH1 0x0 PUSH1 0x10 PUSH1 0x0 SWAP1 SLOAD SWAP1 PUSH2 0x100 EXP SWAP1 DIV PUSH20 0xFFFFFFFFFFFFFFFFFFFFFFFFFFFFFFFFFFFFFFFF AND PUSH20 0xFFFFFFFFFFFFFFFFFFFFFFFFFFFFFFFFFFFFFFFF AND CALLER PUSH20 0xFFFFFFFFFFFFFFFFFFFFFFFFFFFFFFFFFFFFFFFF AND EQ ISZERO ISZERO PUSH2 0x1B45 JUMPI PUSH1 0x0 DUP1 REVERT JUMPDEST PUSH1 0x8 PUSH1 0x0 DUP13 PUSH20 0xFFFFFFFFFFFFFFFFFFFFFFFFFFFFFFFFFFFFFFFF AND PUSH20 0xFFFFFFFFFFFFFFFFFFFFFFFFFFFFFFFFFFFFFFFF AND DUP2 MSTORE PUSH1 0x20 ADD SWAP1 DUP2 MSTORE PUSH1 0x20 ADD PUSH1 0x0 KECCAK256 PUSH1 0x0 SWAP1 SLOAD SWAP1 PUSH2 0x100 EXP SWAP1 DIV PUSH1 0xFF AND ISZERO ISZERO PUSH2 0x1B9D JUMPI PUSH1 0x0 DUP1 REVERT JUMPDEST PUSH1 0x4 PUSH1 0x0 DUP13 PUSH20 0xFFFFFFFFFFFFFFFFFFFFFFFFFFFFFFFFFFFFFFFF AND PUSH20 0xFFFFFFFFFFFFFFFFFFFFFFFFFFFFFFFFFFFFFFFF AND DUP2 MSTORE PUSH1 0x20 ADD SWAP1 DUP2 MSTORE PUSH1 0x20 ADD PUSH1 0x0 KECCAK256 SWAP1 POP DUP10 DUP2 PUSH1 0x0 ADD SWAP1 DUP1 MLOAD SWAP1 PUSH1 0x20 ADD SWAP1 PUSH2 0x1BF6 SWAP3 SWAP2 SWAP1 PUSH2 0x2955 JUMP JUMPDEST POP DUP9 DUP2 PUSH1 0x1 ADD SWAP1 DUP1 MLOAD SWAP1 PUSH1 0x20 ADD SWAP1 PUSH2 0x1C0F SWAP3 SWAP2 SWAP1 PUSH2 0x2955 JUMP JUMPDEST POP DUP8 DUP2 PUSH1 0x2 ADD SWAP1 DUP1 MLOAD SWAP1 PUSH1 0x20 ADD SWAP1 PUSH2 0x1C28 SWAP3 SWAP2 SWAP1 PUSH2 0x2955 JUMP JUMPDEST POP DUP7 DUP2 PUSH1 0x3 ADD SWAP1 DUP1 MLOAD SWAP1 PUSH1 0x20 ADD SWAP1 PUSH2 0x1C41 SWAP3 SWAP2 SWAP1 PUSH2 0x2955 JUMP JUMPDEST POP DUP6 DUP2 PUSH1 0x4 ADD SWAP1 DUP1 MLOAD SWAP1 PUSH1 0x20 ADD SWAP1 PUSH2 0x1C5A SWAP3 SWAP2 SWAP1 PUSH2 0x2955 JUMP JUMPDEST POP DUP5 DUP2 PUSH1 0x5 ADD SWAP1 DUP1 MLOAD SWAP1 PUSH1 0x20 ADD SWAP1 PUSH2 0x1C73 SWAP3 SWAP2 SWAP1 PUSH2 0x2955 JUMP JUMPDEST POP DUP4 DUP2 PUSH1 0x6 ADD SWAP1 DUP1 MLOAD SWAP1 PUSH1 0x20 ADD SWAP1 PUSH2 0x1C8C SWAP3 SWAP2 SWAP1 PUSH2 0x2955 JUMP JUMPDEST POP DUP3 DUP2 PUSH1 0x7 ADD SWAP1 DUP1 MLOAD SWAP1 PUSH1 0x20 ADD SWAP1 PUSH2 0x1CA5 SWAP3 SWAP2 SWAP1 PUSH2 0x2955 JUMP JUMPDEST POP DUP2 DUP2 PUSH1 0x8 ADD SWAP1 DUP1 MLOAD SWAP1 PUSH1 0x20 ADD SWAP1 PUSH2 0x1CBE SWAP3 SWAP2 SWAP1 PUSH2 0x2955 JUMP JUMPDEST POP DUP11 DUP2 PUSH1 0x9 ADD PUSH1 0x0 PUSH2 0x100 EXP DUP2 SLOAD DUP2 PUSH20 0xFFFFFFFFFFFFFFFFFFFFFFFFFFFFFFFFFFFFFFFF MUL NOT AND SWAP1 DUP4 PUSH20 0xFFFFFFFFFFFFFFFFFFFFFFFFFFFFFFFFFFFFFFFF AND MUL OR SWAP1 SSTORE POP POP POP POP POP POP POP POP POP POP POP POP JUMP JUMPDEST PUSH1 0xC SLOAD DUP2 JUMP JUMPDEST PUSH1 0x0 PUSH1 0xC SLOAD SWAP1 POP SWAP1 JUMP JUMPDEST PUSH1 0x60 DUP1 PUSH1 0x60 PUSH1 0x0 DUP1 PUSH1 0x0 DUP1 PUSH1 0x6 PUSH1 0x0 DUP10 PUSH20 0xFFFFFFFFFFFFFFFFFFFFFFFFFFFFFFFFFFFFFFFF AND PUSH20 0xFFFFFFFFFFFFFFFFFFFFFFFFFFFFFFFFFFFFFFFF AND DUP2 MSTORE PUSH1 0x20 ADD SWAP1 DUP2 MSTORE PUSH1 0x20 ADD PUSH1 0x0 KECCAK256 SWAP1 POP DUP1 PUSH1 0x0 ADD DUP2 PUSH1 0x1 ADD DUP3 PUSH1 0x2 ADD DUP4 PUSH1 0x3 ADD SLOAD DUP5 PUSH1 0x4 ADD PUSH1 0x0 SWAP1 SLOAD SWAP1 PUSH2 0x100 EXP SWAP1 DIV PUSH20 0xFFFFFFFFFFFFFFFFFFFFFFFFFFFFFFFFFFFFFFFF AND DUP6 PUSH1 0x5 ADD PUSH1 0x0 SWAP1 SLOAD SWAP1 PUSH2 0x100 EXP SWAP1 DIV PUSH20 0xFFFFFFFFFFFFFFFFFFFFFFFFFFFFFFFFFFFFFFFF AND DUP6 DUP1 SLOAD PUSH1 0x1 DUP2 PUSH1 0x1 AND ISZERO PUSH2 0x100 MUL SUB AND PUSH1 0x2 SWAP1 DIV DUP1 PUSH1 0x1F ADD PUSH1 0x20 DUP1 SWAP2 DIV MUL PUSH1 0x20 ADD PUSH1 0x40 MLOAD SWAP1 DUP2 ADD PUSH1 0x40 MSTORE DUP1 SWAP3 SWAP2 SWAP1 DUP2 DUP2 MSTORE PUSH1 0x20 ADD DUP3 DUP1 SLOAD PUSH1 0x1 DUP2 PUSH1 0x1 AND ISZERO PUSH2 0x100 MUL SUB AND PUSH1 0x2 SWAP1 DIV DUP1 ISZERO PUSH2 0x1E5B JUMPI DUP1 PUSH1 0x1F LT PUSH2 0x1E30 JUMPI PUSH2 0x100 DUP1 DUP4 SLOAD DIV MUL DUP4 MSTORE SWAP2 PUSH1 0x20 ADD SWAP2 PUSH2 0x1E5B JUMP JUMPDEST DUP3 ADD SWAP2 SWAP1 PUSH1 0x0 MSTORE PUSH1 0x20 PUSH1 0x0 KECCAK256 SWAP1 JUMPDEST DUP2 SLOAD DUP2 MSTORE SWAP1 PUSH1 0x1 ADD SWAP1 PUSH1 0x20 ADD DUP1 DUP4 GT PUSH2 0x1E3E JUMPI DUP3 SWAP1 SUB PUSH1 0x1F AND DUP3 ADD SWAP2 JUMPDEST POP POP POP POP POP SWAP6 POP DUP5 DUP1 SLOAD PUSH1 0x1 DUP2 PUSH1 0x1 AND ISZERO PUSH2 0x100 MUL SUB AND PUSH1 0x2 SWAP1 DIV DUP1 PUSH1 0x1F ADD PUSH1 0x20 DUP1 SWAP2 DIV MUL PUSH1 0x20 ADD PUSH1 0x40 MLOAD SWAP1 DUP2 ADD PUSH1 0x40 MSTORE DUP1 SWAP3 SWAP2 SWAP1 DUP2 DUP2 MSTORE PUSH1 0x20 ADD DUP3 DUP1 SLOAD PUSH1 0x1 DUP2 PUSH1 0x1 AND ISZERO PUSH2 0x100 MUL SUB AND PUSH1 0x2 SWAP1 DIV DUP1 ISZERO PUSH2 0x1EF7 JUMPI DUP1 PUSH1 0x1F LT PUSH2 0x1ECC JUMPI PUSH2 0x100 DUP1 DUP4 SLOAD DIV MUL DUP4 MSTORE SWAP2 PUSH1 0x20 ADD SWAP2 PUSH2 0x1EF7 JUMP JUMPDEST DUP3 ADD SWAP2 SWAP1 PUSH1 0x0 MSTORE PUSH1 0x20 PUSH1 0x0 KECCAK256 SWAP1 JUMPDEST DUP2 SLOAD DUP2 MSTORE SWAP1 PUSH1 0x1 ADD SWAP1 PUSH1 0x20 ADD DUP1 DUP4 GT PUSH2 0x1EDA JUMPI DUP3 SWAP1 SUB PUSH1 0x1F AND DUP3 ADD SWAP2 JUMPDEST POP POP POP POP POP SWAP5 POP DUP4 DUP1 SLOAD PUSH1 0x1 DUP2 PUSH1 0x1 AND ISZERO PUSH2 0x100 MUL SUB AND PUSH1 0x2 SWAP1 DIV DUP1 PUSH1 0x1F ADD PUSH1 0x20 DUP1 SWAP2 DIV MUL PUSH1 0x20 ADD PUSH1 0x40 MLOAD SWAP1 DUP2 ADD PUSH1 0x40 MSTORE DUP1 SWAP3 SWAP2 SWAP1 DUP2 DUP2 MSTORE PUSH1 0x20 ADD DUP3 DUP1 SLOAD PUSH1 0x1 DUP2 PUSH1 0x1 AND ISZERO PUSH2 0x100 MUL SUB AND PUSH1 0x2 SWAP1 DIV DUP1 ISZERO PUSH2 0x1F93 JUMPI DUP1 PUSH1 0x1F LT PUSH2 0x1F68 JUMPI PUSH2 0x100 DUP1 DUP4 SLOAD DIV MUL DUP4 MSTORE SWAP2 PUSH1 0x20 ADD SWAP2 PUSH2 0x1F93 JUMP JUMPDEST DUP3 ADD SWAP2 SWAP1 PUSH1 0x0 MSTORE PUSH1 0x20 PUSH1 0x0 KECCAK256 SWAP1 JUMPDEST DUP2 SLOAD DUP2 MSTORE SWAP1 PUSH1 0x1 ADD SWAP1 PUSH1 0x20 ADD DUP1 DUP4 GT PUSH2 0x1F76 JUMPI DUP3 SWAP1 SUB PUSH1 0x1F AND DUP3 ADD SWAP2 JUMPDEST POP POP POP POP POP SWAP4 POP SWAP7 POP SWAP7 POP SWAP7 POP SWAP7 POP SWAP7 POP SWAP7 POP POP SWAP2 SWAP4 SWAP6 POP SWAP2 SWAP4 SWAP6 JUMP JUMPDEST PUSH1 0x0 DUP1 SWAP1 SLOAD SWAP1 PUSH2 0x100 EXP SWAP1 DIV PUSH20 0xFFFFFFFFFFFFFFFFFFFFFFFFFFFFFFFFFFFFFFFF AND DUP2 JUMP JUMPDEST PUSH1 0x0 CALLER PUSH1 0x0 DUP1 PUSH2 0x100 EXP DUP2 SLOAD DUP2 PUSH20 0xFFFFFFFFFFFFFFFFFFFFFFFFFFFFFFFFFFFFFFFF MUL NOT AND SWAP1 DUP4 PUSH20 0xFFFFFFFFFFFFFFFFFFFFFFFFFFFFFFFFFFFFFFFF AND MUL OR SWAP1 SSTORE POP PUSH1 0x0 DUP1 SWAP1 SLOAD SWAP1 PUSH2 0x100 EXP SWAP1 DIV PUSH20 0xFFFFFFFFFFFFFFFFFFFFFFFFFFFFFFFFFFFFFFFF AND SWAP1 POP SWAP1 JUMP JUMPDEST PUSH1 0xF SLOAD DUP2 JUMP JUMPDEST PUSH1 0xD SLOAD DUP2 JUMP JUMPDEST PUSH1 0x1 DUP2 DUP2 SLOAD DUP2 LT ISZERO ISZERO PUSH2 0x2059 JUMPI INVALID JUMPDEST SWAP1 PUSH1 0x0 MSTORE PUSH1 0x20 PUSH1 0x0 KECCAK256 ADD PUSH1 0x0 SWAP2 POP SLOAD SWAP1 PUSH2 0x100 EXP SWAP1 DIV PUSH20 0xFFFFFFFFFFFFFFFFFFFFFFFFFFFFFFFFFFFFFFFF AND DUP2 JUMP JUMPDEST PUSH1 0x60 PUSH1 0x2 DUP1 SLOAD DUP1 PUSH1 0x20 MUL PUSH1 0x20 ADD PUSH1 0x40 MLOAD SWAP1 DUP2 ADD PUSH1 0x40 MSTORE DUP1 SWAP3 SWAP2 SWAP1 DUP2 DUP2 MSTORE PUSH1 0x20 ADD DUP3 DUP1 SLOAD DUP1 ISZERO PUSH2 0x210C JUMPI PUSH1 0x20 MUL DUP3 ADD SWAP2 SWAP1 PUSH1 0x0 MSTORE PUSH1 0x20 PUSH1 0x0 KECCAK256 SWAP1 JUMPDEST DUP2 PUSH1 0x0 SWAP1 SLOAD SWAP1 PUSH2 0x100 EXP SWAP1 DIV PUSH20 0xFFFFFFFFFFFFFFFFFFFFFFFFFFFFFFFFFFFFFFFF AND PUSH20 0xFFFFFFFFFFFFFFFFFFFFFFFFFFFFFFFFFFFFFFFF AND DUP2 MSTORE PUSH1 0x20 ADD SWAP1 PUSH1 0x1 ADD SWAP1 DUP1 DUP4 GT PUSH2 0x20C2 JUMPI JUMPDEST POP POP POP POP POP SWAP1 POP SWAP1 JUMP JUMPDEST PUSH1 0x0 PUSH1 0xB SLOAD SWAP1 POP SWAP1 JUMP JUMPDEST PUSH1 0x10 PUSH1 0x0 SWAP1 SLOAD SWAP1 PUSH2 0x100 EXP SWAP1 DIV PUSH20 0xFFFFFFFFFFFFFFFFFFFFFFFFFFFFFFFFFFFFFFFF AND DUP2 JUMP JUMPDEST PUSH1 0x0 PUSH1 0x10 PUSH1 0x0 SWAP1 SLOAD SWAP1 PUSH2 0x100 EXP SWAP1 DIV PUSH20 0xFFFFFFFFFFFFFFFFFFFFFFFFFFFFFFFFFFFFFFFF AND PUSH20 0xFFFFFFFFFFFFFFFFFFFFFFFFFFFFFFFFFFFFFFFF AND CALLER PUSH20 0xFFFFFFFFFFFFFFFFFFFFFFFFFFFFFFFFFFFFFFFF AND EQ ISZERO ISZERO PUSH2 0x21A4 JUMPI PUSH1 0x0 DUP1 REVERT JUMPDEST PUSH1 0x0 PUSH1 0x7 PUSH1 0x0 DUP6 PUSH20 0xFFFFFFFFFFFFFFFFFFFFFFFFFFFFFFFFFFFFFFFF AND PUSH20 0xFFFFFFFFFFFFFFFFFFFFFFFFFFFFFFFFFFFFFFFF AND DUP2 MSTORE PUSH1 0x20 ADD SWAP1 DUP2 MSTORE PUSH1 0x20 ADD PUSH1 0x0 KECCAK256 PUSH1 0x0 DUP5 PUSH20 0xFFFFFFFFFFFFFFFFFFFFFFFFFFFFFFFFFFFFFFFF AND PUSH20 0xFFFFFFFFFFFFFFFFFFFFFFFFFFFFFFFFFFFFFFFF AND DUP2 MSTORE PUSH1 0x20 ADD SWAP1 DUP2 MSTORE PUSH1 0x20 ADD PUSH1 0x0 KECCAK256 PUSH1 0x0 PUSH2 0x100 EXP DUP2 SLOAD DUP2 PUSH1 0xFF MUL NOT AND SWAP1 DUP4 ISZERO ISZERO MUL OR SWAP1 SSTORE POP PUSH1 0x1 SWAP1 POP SWAP3 SWAP2 POP POP JUMP JUMPDEST PUSH1 0xE SLOAD DUP2 JUMP JUMPDEST PUSH1 0x60 DUP1 PUSH1 0x60 DUP1 PUSH1 0x60 DUP1 PUSH1 0x60 PUSH1 0x0 PUSH1 0x7 PUSH1 0x0 DUP11 PUSH20 0xFFFFFFFFFFFFFFFFFFFFFFFFFFFFFFFFFFFFFFFF AND PUSH20 0xFFFFFFFFFFFFFFFFFFFFFFFFFFFFFFFFFFFFFFFF AND DUP2 MSTORE PUSH1 0x20 ADD SWAP1 DUP2 MSTORE PUSH1 0x20 ADD PUSH1 0x0 KECCAK256 PUSH1 0x0 CALLER PUSH20 0xFFFFFFFFFFFFFFFFFFFFFFFFFFFFFFFFFFFFFFFF AND PUSH20 0xFFFFFFFFFFFFFFFFFFFFFFFFFFFFFFFFFFFFFFFF AND DUP2 MSTORE PUSH1 0x20 ADD SWAP1 DUP2 MSTORE PUSH1 0x20 ADD PUSH1 0x0 KECCAK256 PUSH1 0x0 SWAP1 SLOAD SWAP1 PUSH2 0x100 EXP SWAP1 DIV PUSH1 0xFF AND ISZERO ISZERO PUSH2 0x22EB JUMPI PUSH1 0x0 DUP1 REVERT JUMPDEST PUSH1 0x9 PUSH1 0x0 DUP11 PUSH20 0xFFFFFFFFFFFFFFFFFFFFFFFFFFFFFFFFFFFFFFFF AND PUSH20 0xFFFFFFFFFFFFFFFFFFFFFFFFFFFFFFFFFFFFFFFF AND DUP2 MSTORE PUSH1 0x20 ADD SWAP1 DUP2 MSTORE PUSH1 0x20 ADD PUSH1 0x0 KECCAK256 PUSH1 0x0 SWAP1 SLOAD SWAP1 PUSH2 0x100 EXP SWAP1 DIV PUSH1 0xFF AND ISZERO ISZERO PUSH2 0x2343 JUMPI PUSH1 0x0 DUP1 REVERT JUMPDEST PUSH1 0x5 PUSH1 0x0 DUP11 PUSH20 0xFFFFFFFFFFFFFFFFFFFFFFFFFFFFFFFFFFFFFFFF AND PUSH20 0xFFFFFFFFFFFFFFFFFFFFFFFFFFFFFFFFFFFFFFFF AND DUP2 MSTORE PUSH1 0x20 ADD SWAP1 DUP2 MSTORE PUSH1 0x20 ADD PUSH1 0x0 KECCAK256 SWAP1 POP DUP1 PUSH1 0x0 ADD DUP2 PUSH1 0x1 ADD DUP3 PUSH1 0x2 ADD DUP4 PUSH1 0x3 ADD DUP5 PUSH1 0x4 ADD DUP6 PUSH1 0x6 ADD DUP7 PUSH1 0x7 ADD DUP7 DUP1 SLOAD PUSH1 0x1 DUP2 PUSH1 0x1 AND ISZERO PUSH2 0x100 MUL SUB AND PUSH1 0x2 SWAP1 DIV DUP1 PUSH1 0x1F ADD PUSH1 0x20 DUP1 SWAP2 DIV MUL PUSH1 0x20 ADD PUSH1 0x40 MLOAD SWAP1 DUP2 ADD PUSH1 0x40 MSTORE DUP1 SWAP3 SWAP2 SWAP1 DUP2 DUP2 MSTORE PUSH1 0x20 ADD DUP3 DUP1 SLOAD PUSH1 0x1 DUP2 PUSH1 0x1 AND ISZERO PUSH2 0x100 MUL SUB AND PUSH1 0x2 SWAP1 DIV DUP1 ISZERO PUSH2 0x2435 JUMPI DUP1 PUSH1 0x1F LT PUSH2 0x240A JUMPI PUSH2 0x100 DUP1 DUP4 SLOAD DIV MUL DUP4 MSTORE SWAP2 PUSH1 0x20 ADD SWAP2 PUSH2 0x2435 JUMP JUMPDEST DUP3 ADD SWAP2 SWAP1 PUSH1 0x0 MSTORE PUSH1 0x20 PUSH1 0x0 KECCAK256 SWAP1 JUMPDEST DUP2 SLOAD DUP2 MSTORE SWAP1 PUSH1 0x1 ADD SWAP1 PUSH1 0x20 ADD DUP1 DUP4 GT PUSH2 0x2418 JUMPI DUP3 SWAP1 SUB PUSH1 0x1F AND DUP3 ADD SWAP2 JUMPDEST POP POP POP POP POP SWAP7 POP DUP6 DUP1 SLOAD PUSH1 0x1 DUP2 PUSH1 0x1 AND ISZERO PUSH2 0x100 MUL SUB AND PUSH1 0x2 SWAP1 DIV DUP1 PUSH1 0x1F ADD PUSH1 0x20 DUP1 SWAP2 DIV MUL PUSH1 0x20 ADD PUSH1 0x40 MLOAD SWAP1 DUP2 ADD PUSH1 0x40 MSTORE DUP1 SWAP3 SWAP2 SWAP1 DUP2 DUP2 MSTORE PUSH1 0x20 ADD DUP3 DUP1 SLOAD PUSH1 0x1 DUP2 PUSH1 0x1 AND ISZERO PUSH2 0x100 MUL SUB AND PUSH1 0x2 SWAP1 DIV DUP1 ISZERO PUSH2 0x24D1 JUMPI DUP1 PUSH1 0x1F LT PUSH2 0x24A6 JUMPI PUSH2 0x100 DUP1 DUP4 SLOAD DIV MUL DUP4 MSTORE SWAP2 PUSH1 0x20 ADD SWAP2 PUSH2 0x24D1 JUMP JUMPDEST DUP3 ADD SWAP2 SWAP1 PUSH1 0x0 MSTORE PUSH1 0x20 PUSH1 0x0 KECCAK256 SWAP1 JUMPDEST DUP2 SLOAD DUP2 MSTORE SWAP1 PUSH1 0x1 ADD SWAP1 PUSH1 0x20 ADD DUP1 DUP4 GT PUSH2 0x24B4 JUMPI DUP3 SWAP1 SUB PUSH1 0x1F AND DUP3 ADD SWAP2 JUMPDEST POP POP POP POP POP SWAP6 POP DUP5 DUP1 SLOAD PUSH1 0x1 DUP2 PUSH1 0x1 AND ISZERO PUSH2 0x100 MUL SUB AND PUSH1 0x2 SWAP1 DIV DUP1 PUSH1 0x1F ADD PUSH1 0x20 DUP1 SWAP2 DIV MUL PUSH1 0x20 ADD PUSH1 0x40 MLOAD SWAP1 DUP2 ADD PUSH1 0x40 MSTORE DUP1 SWAP3 SWAP2 SWAP1 DUP2 DUP2 MSTORE PUSH1 0x20 ADD DUP3 DUP1 SLOAD PUSH1 0x1 DUP2 PUSH1 0x1 AND ISZERO PUSH2 0x100 MUL SUB AND PUSH1 0x2 SWAP1 DIV DUP1 ISZERO PUSH2 0x256D JUMPI DUP1 PUSH1 0x1F LT PUSH2 0x2542 JUMPI PUSH2 0x100 DUP1 DUP4 SLOAD DIV MUL DUP4 MSTORE SWAP2 PUSH1 0x20 ADD SWAP2 PUSH2 0x256D JUMP JUMPDEST DUP3 ADD SWAP2 SWAP1 PUSH1 0x0 MSTORE PUSH1 0x20 PUSH1 0x0 KECCAK256 SWAP1 JUMPDEST DUP2 SLOAD DUP2 MSTORE SWAP1 PUSH1 0x1 ADD SWAP1 PUSH1 0x20 ADD DUP1 DUP4 GT PUSH2 0x2550 JUMPI DUP3 SWAP1 SUB PUSH1 0x1F AND DUP3 ADD SWAP2 JUMPDEST POP POP POP POP POP SWAP5 POP DUP4 DUP1 SLOAD PUSH1 0x1 DUP2 PUSH1 0x1 AND ISZERO PUSH2 0x100 MUL SUB AND PUSH1 0x2 SWAP1 DIV DUP1 PUSH1 0x1F ADD PUSH1 0x20 DUP1 SWAP2 DIV MUL PUSH1 0x20 ADD PUSH1 0x40 MLOAD SWAP1 DUP2 ADD PUSH1 0x40 MSTORE DUP1 SWAP3 SWAP2 SWAP1 DUP2 DUP2 MSTORE PUSH1 0x20 ADD DUP3 DUP1 SLOAD PUSH1 0x1 DUP2 PUSH1 0x1 AND ISZERO PUSH2 0x100 MUL SUB AND PUSH1 0x2 SWAP1 DIV DUP1 ISZERO PUSH2 0x2609 JUMPI DUP1 PUSH1 0x1F LT PUSH2 0x25DE JUMPI PUSH2 0x100 DUP1 DUP4 SLOAD DIV MUL DUP4 MSTORE SWAP2 PUSH1 0x20 ADD SWAP2 PUSH2 0x2609 JUMP JUMPDEST DUP3 ADD SWAP2 SWAP1 PUSH1 0x0 MSTORE PUSH1 0x20 PUSH1 0x0 KECCAK256 SWAP1 JUMPDEST DUP2 SLOAD DUP2 MSTORE SWAP1 PUSH1 0x1 ADD SWAP1 PUSH1 0x20 ADD DUP1 DUP4 GT PUSH2 0x25EC JUMPI DUP3 SWAP1 SUB PUSH1 0x1F AND DUP3 ADD SWAP2 JUMPDEST POP POP POP POP POP SWAP4 POP DUP3 DUP1 SLOAD PUSH1 0x1 DUP2 PUSH1 0x1 AND ISZERO PUSH2 0x100 MUL SUB AND PUSH1 0x2 SWAP1 DIV DUP1 PUSH1 0x1F ADD PUSH1 0x20 DUP1 SWAP2 DIV MUL PUSH1 0x20 ADD PUSH1 0x40 MLOAD SWAP1 DUP2 ADD PUSH1 0x40 MSTORE DUP1 SWAP3 SWAP2 SWAP1 DUP2 DUP2 MSTORE PUSH1 0x20 ADD DUP3 DUP1 SLOAD PUSH1 0x1 DUP2 PUSH1 0x1 AND ISZERO PUSH2 0x100 MUL SUB AND PUSH1 0x2 SWAP1 DIV DUP1 ISZERO PUSH2 0x26A5 JUMPI DUP1 PUSH1 0x1F LT PUSH2 0x267A JUMPI PUSH2 0x100 DUP1 DUP4 SLOAD DIV MUL DUP4 MSTORE SWAP2 PUSH1 0x20 ADD SWAP2 PUSH2 0x26A5 JUMP JUMPDEST DUP3 ADD SWAP2 SWAP1 PUSH1 0x0 MSTORE PUSH1 0x20 PUSH1 0x0 KECCAK256 SWAP1 JUMPDEST DUP2 SLOAD DUP2 MSTORE SWAP1 PUSH1 0x1 ADD SWAP1 PUSH1 0x20 ADD DUP1 DUP4 GT PUSH2 0x2688 JUMPI DUP3 SWAP1 SUB PUSH1 0x1F AND DUP3 ADD SWAP2 JUMPDEST POP POP POP POP POP SWAP3 POP DUP2 DUP1 SLOAD PUSH1 0x1 DUP2 PUSH1 0x1 AND ISZERO PUSH2 0x100 MUL SUB AND PUSH1 0x2 SWAP1 DIV DUP1 PUSH1 0x1F ADD PUSH1 0x20 DUP1 SWAP2 DIV MUL PUSH1 0x20 ADD PUSH1 0x40 MLOAD SWAP1 DUP2 ADD PUSH1 0x40 MSTORE DUP1 SWAP3 SWAP2 SWAP1 DUP2 DUP2 MSTORE PUSH1 0x20 ADD DUP3 DUP1 SLOAD PUSH1 0x1 DUP2 PUSH1 0x1 AND ISZERO PUSH2 0x100 MUL SUB AND PUSH1 0x2 SWAP1 DIV DUP1 ISZERO PUSH2 0x2741 JUMPI DUP1 PUSH1 0x1F LT PUSH2 0x2716 JUMPI PUSH2 0x100 DUP1 DUP4 SLOAD DIV MUL DUP4 MSTORE SWAP2 PUSH1 0x20 ADD SWAP2 PUSH2 0x2741 JUMP JUMPDEST DUP3 ADD SWAP2 SWAP1 PUSH1 0x0 MSTORE PUSH1 0x20 PUSH1 0x0 KECCAK256 SWAP1 JUMPDEST DUP2 SLOAD DUP2 MSTORE SWAP1 PUSH1 0x1 ADD SWAP1 PUSH1 0x20 ADD DUP1 DUP4 GT PUSH2 0x2724 JUMPI DUP3 SWAP1 SUB PUSH1 0x1F AND DUP3 ADD SWAP2 JUMPDEST POP POP POP POP POP SWAP2 POP DUP1 DUP1 SLOAD PUSH1 0x1 DUP2 PUSH1 0x1 AND ISZERO PUSH2 0x100 MUL SUB AND PUSH1 0x2 SWAP1 DIV DUP1 PUSH1 0x1F ADD PUSH1 0x20 DUP1 SWAP2 DIV MUL PUSH1 0x20 ADD PUSH1 0x40 MLOAD SWAP1 DUP2 ADD PUSH1 0x40 MSTORE DUP1 SWAP3 SWAP2 SWAP1 DUP2 DUP2 MSTORE PUSH1 0x20 ADD DUP3 DUP1 SLOAD PUSH1 0x1 DUP2 PUSH1 0x1 AND ISZERO PUSH2 0x100 MUL SUB AND PUSH1 0x2 SWAP1 DIV DUP1 ISZERO PUSH2 0x27DD JUMPI DUP1 PUSH1 0x1F LT PUSH2 0x27B2 JUMPI PUSH2 0x100 DUP1 DUP4 SLOAD DIV MUL DUP4 MSTORE SWAP2 PUSH1 0x20 ADD SWAP2 PUSH2 0x27DD JUMP JUMPDEST DUP3 ADD SWAP2 SWAP1 PUSH1 0x0 MSTORE PUSH1 0x20 PUSH1 0x0 KECCAK256 SWAP1 JUMPDEST DUP2 SLOAD DUP2 MSTORE SWAP1 PUSH1 0x1 ADD SWAP1 PUSH1 0x20 ADD DUP1 DUP4 GT PUSH2 0x27C0 JUMPI DUP3 SWAP1 SUB PUSH1 0x1F AND DUP3 ADD SWAP2 JUMPDEST POP POP POP POP POP SWAP1 POP SWAP8 POP SWAP8 POP SWAP8 POP SWAP8 POP SWAP8 POP SWAP8 POP SWAP8 POP POP SWAP2 SWAP4 SWAP6 SWAP8 SWAP1 SWAP3 SWAP5 SWAP7 POP JUMP JUMPDEST PUSH1 0x0 PUSH1 0x10 PUSH1 0x0 SWAP1 SLOAD SWAP1 PUSH2 0x100 EXP SWAP1 DIV PUSH20 0xFFFFFFFFFFFFFFFFFFFFFFFFFFFFFFFFFFFFFFFF AND PUSH20 0xFFFFFFFFFFFFFFFFFFFFFFFFFFFFFFFFFFFFFFFF AND CALLER PUSH20 0xFFFFFFFFFFFFFFFFFFFFFFFFFFFFFFFFFFFFFFFF AND EQ ISZERO ISZERO PUSH2 0x285C JUMPI PUSH1 0x0 DUP1 REVERT JUMPDEST PUSH1 0x1 PUSH1 0x7 PUSH1 0x0 DUP6 PUSH20 0xFFFFFFFFFFFFFFFFFFFFFFFFFFFFFFFFFFFFFFFF AND PUSH20 0xFFFFFFFFFFFFFFFFFFFFFFFFFFFFFFFFFFFFFFFF AND DUP2 MSTORE PUSH1 0x20 ADD SWAP1 DUP2 MSTORE PUSH1 0x20 ADD PUSH1 0x0 KECCAK256 PUSH1 0x0 DUP5 PUSH20 0xFFFFFFFFFFFFFFFFFFFFFFFFFFFFFFFFFFFFFFFF AND PUSH20 0xFFFFFFFFFFFFFFFFFFFFFFFFFFFFFFFFFFFFFFFF AND DUP2 MSTORE PUSH1 0x20 ADD SWAP1 DUP2 MSTORE PUSH1 0x20 ADD PUSH1 0x0 KECCAK256 PUSH1 0x0 PUSH2 0x100 EXP DUP2 SLOAD DUP2 PUSH1 0xFF MUL NOT AND SWAP1 DUP4 ISZERO ISZERO MUL OR SWAP1 SSTORE POP PUSH1 0xD PUSH1 0x0 DUP2 SLOAD DUP1 SWAP3 SWAP2 SWAP1 PUSH1 0x1 ADD SWAP2 SWAP1 POP SSTORE POP PUSH1 0x1 SWAP1 POP SWAP3 SWAP2 POP POP JUMP JUMPDEST PUSH1 0x0 PUSH1 0xD SLOAD SWAP1 POP SWAP1 JUMP JUMPDEST PUSH1 0x3 DUP2 DUP2 SLOAD DUP2 LT ISZERO ISZERO PUSH2 0x2926 JUMPI INVALID JUMPDEST SWAP1 PUSH1 0x0 MSTORE PUSH1 0x20 PUSH1 0x0 KECCAK256 ADD PUSH1 0x0 SWAP2 POP SLOAD SWAP1 PUSH2 0x100 EXP SWAP1 DIV PUSH20 0xFFFFFFFFFFFFFFFFFFFFFFFFFFFFFFFFFFFFFFFF AND DUP2 JUMP JUMPDEST DUP3 DUP1 SLOAD PUSH1 0x1 DUP2 PUSH1 0x1 AND ISZERO PUSH2 0x100 MUL SUB AND PUSH1 0x2 SWAP1 DIV SWAP1 PUSH1 0x0 MSTORE PUSH1 0x20 PUSH1 0x0 KECCAK256 SWAP1 PUSH1 0x1F ADD PUSH1 0x20 SWAP1 DIV DUP2 ADD SWAP3 DUP3 PUSH1 0x1F LT PUSH2 0x2996 JUMPI DUP1 MLOAD PUSH1 0xFF NOT AND DUP4 DUP1 ADD OR DUP6 SSTORE PUSH2 0x29C4 JUMP JUMPDEST DUP3 DUP1 ADD PUSH1 0x1 ADD DUP6 SSTORE DUP3 ISZERO PUSH2 0x29C4 JUMPI SWAP2 DUP3 ADD JUMPDEST DUP3 DUP2 GT ISZERO PUSH2 0x29C3 JUMPI DUP3 MLOAD DUP3 SSTORE SWAP2 PUSH1 0x20 ADD SWAP2 SWAP1 PUSH1 0x1 ADD SWAP1 PUSH2 0x29A8 JUMP JUMPDEST JUMPDEST POP SWAP1 POP PUSH2 0x29D1 SWAP2 SWAP1 PUSH2 0x29D5 JUMP JUMPDEST POP SWAP1 JUMP JUMPDEST PUSH2 0x29F7 SWAP2 SWAP1 JUMPDEST DUP1 DUP3 GT ISZERO PUSH2 0x29F3 JUMPI PUSH1 0x0 DUP2 PUSH1 0x0 SWAP1 SSTORE POP PUSH1 0x1 ADD PUSH2 0x29DB JUMP JUMPDEST POP SWAP1 JUMP JUMPDEST SWAP1 JUMP JUMPDEST PUSH1 0x0 PUSH2 0x2A06 DUP3 CALLDATALOAD PUSH2 0x3283 JUMP JUMPDEST SWAP1 POP SWAP3 SWAP2 POP POP JUMP JUMPDEST PUSH1 0x0 DUP3 PUSH1 0x1F DUP4 ADD SLT ISZERO ISZERO PUSH2 0x2A21 JUMPI PUSH1 0x0 DUP1 REVERT JUMPDEST DUP2 CALLDATALOAD PUSH2 0x2A34 PUSH2 0x2A2F DUP3 PUSH2 0x31F1 JUMP JUMPDEST PUSH2 0x31C4 JUMP JUMPDEST SWAP2 POP DUP1 DUP3 MSTORE PUSH1 0x20 DUP4 ADD PUSH1 0x20 DUP4 ADD DUP6 DUP4 DUP4 ADD GT ISZERO PUSH2 0x2A50 JUMPI PUSH1 0x0 DUP1 REVERT JUMPDEST PUSH2 0x2A5B DUP4 DUP3 DUP5 PUSH2 0x32AD JUMP JUMPDEST POP POP POP SWAP3 SWAP2 POP POP JUMP JUMPDEST PUSH1 0x0 PUSH2 0x2A70 DUP3 CALLDATALOAD PUSH2 0x32A3 JUMP JUMPDEST SWAP1 POP SWAP3 SWAP2 POP POP JUMP JUMPDEST PUSH1 0x0 PUSH1 0x20 DUP3 DUP5 SUB SLT ISZERO PUSH2 0x2A8A JUMPI PUSH1 0x0 DUP1 REVERT JUMPDEST PUSH1 0x0 PUSH2 0x2A98 DUP5 DUP3 DUP6 ADD PUSH2 0x29FA JUMP JUMPDEST SWAP2 POP POP SWAP3 SWAP2 POP POP JUMP JUMPDEST PUSH1 0x0 DUP1 PUSH1 0x40 DUP4 DUP6 SUB SLT ISZERO PUSH2 0x2AB4 JUMPI PUSH1 0x0 DUP1 REVERT JUMPDEST PUSH1 0x0 PUSH2 0x2AC2 DUP6 DUP3 DUP7 ADD PUSH2 0x29FA JUMP JUMPDEST SWAP3 POP POP PUSH1 0x20 PUSH2 0x2AD3 DUP6 DUP3 DUP7 ADD PUSH2 0x29FA JUMP JUMPDEST SWAP2 POP POP SWAP3 POP SWAP3 SWAP1 POP JUMP JUMPDEST PUSH1 0x0 DUP1 PUSH1 0x0 DUP1 PUSH1 0x0 DUP1 PUSH1 0xC0 DUP8 DUP10 SUB SLT ISZERO PUSH2 0x2AF6 JUMPI PUSH1 0x0 DUP1 REVERT JUMPDEST PUSH1 0x0 PUSH2 0x2B04 DUP10 DUP3 DUP11 ADD PUSH2 0x29FA JUMP JUMPDEST SWAP7 POP POP PUSH1 0x20 PUSH2 0x2B15 DUP10 DUP3 DUP11 ADD PUSH2 0x29FA JUMP JUMPDEST SWAP6 POP POP PUSH1 0x40 DUP8 ADD CALLDATALOAD PUSH8 0xFFFFFFFFFFFFFFFF DUP2 GT ISZERO PUSH2 0x2B32 JUMPI PUSH1 0x0 DUP1 REVERT JUMPDEST PUSH2 0x2B3E DUP10 DUP3 DUP11 ADD PUSH2 0x2A0E JUMP JUMPDEST SWAP5 POP POP PUSH1 0x60 DUP8 ADD CALLDATALOAD PUSH8 0xFFFFFFFFFFFFFFFF DUP2 GT ISZERO PUSH2 0x2B5B JUMPI PUSH1 0x0 DUP1 REVERT JUMPDEST PUSH2 0x2B67 DUP10 DUP3 DUP11 ADD PUSH2 0x2A0E JUMP JUMPDEST SWAP4 POP POP PUSH1 0x80 DUP8 ADD CALLDATALOAD PUSH8 0xFFFFFFFFFFFFFFFF DUP2 GT ISZERO PUSH2 0x2B84 JUMPI PUSH1 0x0 DUP1 REVERT JUMPDEST PUSH2 0x2B90 DUP10 DUP3 DUP11 ADD PUSH2 0x2A0E JUMP JUMPDEST SWAP3 POP POP PUSH1 0xA0 PUSH2 0x2BA1 DUP10 DUP3 DUP11 ADD PUSH2 0x2A64 JUMP JUMPDEST SWAP2 POP POP SWAP3 SWAP6 POP SWAP3 SWAP6 POP SWAP3 SWAP6 JUMP JUMPDEST PUSH1 0x0 DUP1 PUSH1 0x0 DUP1 PUSH1 0x0 DUP1 PUSH1 0x0 DUP1 PUSH2 0x100 DUP10 DUP12 SUB SLT ISZERO PUSH2 0x2BCB JUMPI PUSH1 0x0 DUP1 REVERT JUMPDEST PUSH1 0x0 PUSH2 0x2BD9 DUP12 DUP3 DUP13 ADD PUSH2 0x29FA JUMP JUMPDEST SWAP9 POP POP PUSH1 0x20 DUP10 ADD CALLDATALOAD PUSH8 0xFFFFFFFFFFFFFFFF DUP2 GT ISZERO PUSH2 0x2BF6 JUMPI PUSH1 0x0 DUP1 REVERT JUMPDEST PUSH2 0x2C02 DUP12 DUP3 DUP13 ADD PUSH2 0x2A0E JUMP JUMPDEST SWAP8 POP POP PUSH1 0x40 DUP10 ADD CALLDATALOAD PUSH8 0xFFFFFFFFFFFFFFFF DUP2 GT ISZERO PUSH2 0x2C1F JUMPI PUSH1 0x0 DUP1 REVERT JUMPDEST PUSH2 0x2C2B DUP12 DUP3 DUP13 ADD PUSH2 0x2A0E JUMP JUMPDEST SWAP7 POP POP PUSH1 0x60 DUP10 ADD CALLDATALOAD PUSH8 0xFFFFFFFFFFFFFFFF DUP2 GT ISZERO PUSH2 0x2C48 JUMPI PUSH1 0x0 DUP1 REVERT JUMPDEST PUSH2 0x2C54 DUP12 DUP3 DUP13 ADD PUSH2 0x2A0E JUMP JUMPDEST SWAP6 POP POP PUSH1 0x80 DUP10 ADD CALLDATALOAD PUSH8 0xFFFFFFFFFFFFFFFF DUP2 GT ISZERO PUSH2 0x2C71 JUMPI PUSH1 0x0 DUP1 REVERT JUMPDEST PUSH2 0x2C7D DUP12 DUP3 DUP13 ADD PUSH2 0x2A0E JUMP JUMPDEST SWAP5 POP POP PUSH1 0xA0 DUP10 ADD CALLDATALOAD PUSH8 0xFFFFFFFFFFFFFFFF DUP2 GT ISZERO PUSH2 0x2C9A JUMPI PUSH1 0x0 DUP1 REVERT JUMPDEST PUSH2 0x2CA6 DUP12 DUP3 DUP13 ADD PUSH2 0x2A0E JUMP JUMPDEST SWAP4 POP POP PUSH1 0xC0 DUP10 ADD CALLDATALOAD PUSH8 0xFFFFFFFFFFFFFFFF DUP2 GT ISZERO PUSH2 0x2CC3 JUMPI PUSH1 0x0 DUP1 REVERT JUMPDEST PUSH2 0x2CCF DUP12 DUP3 DUP13 ADD PUSH2 0x2A0E JUMP JUMPDEST SWAP3 POP POP PUSH1 0xE0 DUP10 ADD CALLDATALOAD PUSH8 0xFFFFFFFFFFFFFFFF DUP2 GT ISZERO PUSH2 0x2CEC JUMPI PUSH1 0x0 DUP1 REVERT JUMPDEST PUSH2 0x2CF8 DUP12 DUP3 DUP13 ADD PUSH2 0x2A0E JUMP JUMPDEST SWAP2 POP POP SWAP3 SWAP6 SWAP9 POP SWAP3 SWAP6 SWAP9 SWAP1 SWAP4 SWAP7 POP JUMP JUMPDEST PUSH1 0x0 DUP1 PUSH1 0x0 DUP1 PUSH1 0x0 DUP1 PUSH1 0x0 DUP1 PUSH1 0x0 DUP1 PUSH2 0x140 DUP12 DUP14 SUB SLT ISZERO PUSH2 0x2D28 JUMPI PUSH1 0x0 DUP1 REVERT JUMPDEST PUSH1 0x0 PUSH2 0x2D36 DUP14 DUP3 DUP15 ADD PUSH2 0x29FA JUMP JUMPDEST SWAP11 POP POP PUSH1 0x20 DUP12 ADD CALLDATALOAD PUSH8 0xFFFFFFFFFFFFFFFF DUP2 GT ISZERO PUSH2 0x2D53 JUMPI PUSH1 0x0 DUP1 REVERT JUMPDEST PUSH2 0x2D5F DUP14 DUP3 DUP15 ADD PUSH2 0x2A0E JUMP JUMPDEST SWAP10 POP POP PUSH1 0x40 DUP12 ADD CALLDATALOAD PUSH8 0xFFFFFFFFFFFFFFFF DUP2 GT ISZERO PUSH2 0x2D7C JUMPI PUSH1 0x0 DUP1 REVERT JUMPDEST PUSH2 0x2D88 DUP14 DUP3 DUP15 ADD PUSH2 0x2A0E JUMP JUMPDEST SWAP9 POP POP PUSH1 0x60 DUP12 ADD CALLDATALOAD PUSH8 0xFFFFFFFFFFFFFFFF DUP2 GT ISZERO PUSH2 0x2DA5 JUMPI PUSH1 0x0 DUP1 REVERT JUMPDEST PUSH2 0x2DB1 DUP14 DUP3 DUP15 ADD PUSH2 0x2A0E JUMP JUMPDEST SWAP8 POP POP PUSH1 0x80 DUP12 ADD CALLDATALOAD PUSH8 0xFFFFFFFFFFFFFFFF DUP2 GT ISZERO PUSH2 0x2DCE JUMPI PUSH1 0x0 DUP1 REVERT JUMPDEST PUSH2 0x2DDA DUP14 DUP3 DUP15 ADD PUSH2 0x2A0E JUMP JUMPDEST SWAP7 POP POP PUSH1 0xA0 DUP12 ADD CALLDATALOAD PUSH8 0xFFFFFFFFFFFFFFFF DUP2 GT ISZERO PUSH2 0x2DF7 JUMPI PUSH1 0x0 DUP1 REVERT JUMPDEST PUSH2 0x2E03 DUP14 DUP3 DUP15 ADD PUSH2 0x2A0E JUMP JUMPDEST SWAP6 POP POP PUSH1 0xC0 DUP12 ADD CALLDATALOAD PUSH8 0xFFFFFFFFFFFFFFFF DUP2 GT ISZERO PUSH2 0x2E20 JUMPI PUSH1 0x0 DUP1 REVERT JUMPDEST PUSH2 0x2E2C DUP14 DUP3 DUP15 ADD PUSH2 0x2A0E JUMP JUMPDEST SWAP5 POP POP PUSH1 0xE0 DUP12 ADD CALLDATALOAD PUSH8 0xFFFFFFFFFFFFFFFF DUP2 GT ISZERO PUSH2 0x2E49 JUMPI PUSH1 0x0 DUP1 REVERT JUMPDEST PUSH2 0x2E55 DUP14 DUP3 DUP15 ADD PUSH2 0x2A0E JUMP JUMPDEST SWAP4 POP POP PUSH2 0x100 DUP12 ADD CALLDATALOAD PUSH8 0xFFFFFFFFFFFFFFFF DUP2 GT ISZERO PUSH2 0x2E73 JUMPI PUSH1 0x0 DUP1 REVERT JUMPDEST PUSH2 0x2E7F DUP14 DUP3 DUP15 ADD PUSH2 0x2A0E JUMP JUMPDEST SWAP3 POP POP PUSH2 0x120 DUP12 ADD CALLDATALOAD PUSH8 0xFFFFFFFFFFFFFFFF DUP2 GT ISZERO PUSH2 0x2E9D JUMPI PUSH1 0x0 DUP1 REVERT JUMPDEST PUSH2 0x2EA9 DUP14 DUP3 DUP15 ADD PUSH2 0x2A0E JUMP JUMPDEST SWAP2 POP POP SWAP3 SWAP6 SWAP9 SWAP12 SWAP2 SWAP5 SWAP8 SWAP11 POP SWAP3 SWAP6 SWAP9 POP JUMP JUMPDEST PUSH1 0x0 PUSH1 0x20 DUP3 DUP5 SUB SLT ISZERO PUSH2 0x2ECD JUMPI PUSH1 0x0 DUP1 REVERT JUMPDEST PUSH1 0x0 PUSH2 0x2EDB DUP5 DUP3 DUP6 ADD PUSH2 0x2A64 JUMP JUMPDEST SWAP2 POP POP SWAP3 SWAP2 POP POP JUMP JUMPDEST PUSH2 0x2EED DUP2 PUSH2 0x324D JUMP JUMPDEST DUP3 MSTORE POP POP JUMP JUMPDEST PUSH1 0x0 PUSH2 0x2EFE DUP3 PUSH2 0x322A JUMP JUMPDEST DUP1 DUP5 MSTORE PUSH1 0x20 DUP5 ADD SWAP4 POP PUSH2 0x2F10 DUP4 PUSH2 0x321D JUMP JUMPDEST PUSH1 0x0 JUMPDEST DUP3 DUP2 LT ISZERO PUSH2 0x2F42 JUMPI PUSH2 0x2F26 DUP7 DUP4 MLOAD PUSH2 0x2EE4 JUMP JUMPDEST PUSH2 0x2F2F DUP3 PUSH2 0x3240 JUMP JUMPDEST SWAP2 POP PUSH1 0x20 DUP7 ADD SWAP6 POP PUSH1 0x1 DUP2 ADD SWAP1 POP PUSH2 0x2F13 JUMP JUMPDEST POP DUP5 SWAP3 POP POP POP SWAP3 SWAP2 POP POP JUMP JUMPDEST PUSH2 0x2F57 DUP2 PUSH2 0x326D JUMP JUMPDEST DUP3 MSTORE POP POP JUMP JUMPDEST PUSH1 0x0 PUSH2 0x2F68 DUP3 PUSH2 0x3235 JUMP JUMPDEST DUP1 DUP5 MSTORE PUSH2 0x2F7C DUP2 PUSH1 0x20 DUP7 ADD PUSH1 0x20 DUP7 ADD PUSH2 0x32BC JUMP JUMPDEST PUSH2 0x2F85 DUP2 PUSH2 0x32EF JUMP JUMPDEST PUSH1 0x20 DUP6 ADD ADD SWAP2 POP POP SWAP3 SWAP2 POP POP JUMP JUMPDEST PUSH2 0x2F9C DUP2 PUSH2 0x3279 JUMP JUMPDEST DUP3 MSTORE POP POP JUMP JUMPDEST PUSH1 0x0 PUSH1 0x20 DUP3 ADD SWAP1 POP PUSH2 0x2FB7 PUSH1 0x0 DUP4 ADD DUP5 PUSH2 0x2EE4 JUMP JUMPDEST SWAP3 SWAP2 POP POP JUMP JUMPDEST PUSH1 0x0 PUSH1 0x20 DUP3 ADD SWAP1 POP DUP2 DUP2 SUB PUSH1 0x0 DUP4 ADD MSTORE PUSH2 0x2FD7 DUP2 DUP5 PUSH2 0x2EF3 JUMP JUMPDEST SWAP1 POP SWAP3 SWAP2 POP POP JUMP JUMPDEST PUSH1 0x0 PUSH1 0x20 DUP3 ADD SWAP1 POP PUSH2 0x2FF4 PUSH1 0x0 DUP4 ADD DUP5 PUSH2 0x2F4E JUMP JUMPDEST SWAP3 SWAP2 POP POP JUMP JUMPDEST PUSH1 0x0 PUSH1 0xE0 DUP3 ADD SWAP1 POP DUP2 DUP2 SUB PUSH1 0x0 DUP4 ADD MSTORE PUSH2 0x3014 DUP2 DUP11 PUSH2 0x2F5D JUMP JUMPDEST SWAP1 POP DUP2 DUP2 SUB PUSH1 0x20 DUP4 ADD MSTORE PUSH2 0x3028 DUP2 DUP10 PUSH2 0x2F5D JUMP JUMPDEST SWAP1 POP DUP2 DUP2 SUB PUSH1 0x40 DUP4 ADD MSTORE PUSH2 0x303C DUP2 DUP9 PUSH2 0x2F5D JUMP JUMPDEST SWAP1 POP DUP2 DUP2 SUB PUSH1 0x60 DUP4 ADD MSTORE PUSH2 0x3050 DUP2 DUP8 PUSH2 0x2F5D JUMP JUMPDEST SWAP1 POP DUP2 DUP2 SUB PUSH1 0x80 DUP4 ADD MSTORE PUSH2 0x3064 DUP2 DUP7 PUSH2 0x2F5D JUMP JUMPDEST SWAP1 POP DUP2 DUP2 SUB PUSH1 0xA0 DUP4 ADD MSTORE PUSH2 0x3078 DUP2 DUP6 PUSH2 0x2F5D JUMP JUMPDEST SWAP1 POP PUSH2 0x3087 PUSH1 0xC0 DUP4 ADD DUP5 PUSH2 0x2EE4 JUMP JUMPDEST SWAP9 SWAP8 POP POP POP POP POP POP POP POP JUMP JUMPDEST PUSH1 0x0 PUSH1 0xE0 DUP3 ADD SWAP1 POP DUP2 DUP2 SUB PUSH1 0x0 DUP4 ADD MSTORE PUSH2 0x30AD DUP2 DUP11 PUSH2 0x2F5D JUMP JUMPDEST SWAP1 POP DUP2 DUP2 SUB PUSH1 0x20 DUP4 ADD MSTORE PUSH2 0x30C1 DUP2 DUP10 PUSH2 0x2F5D JUMP JUMPDEST SWAP1 POP DUP2 DUP2 SUB PUSH1 0x40 DUP4 ADD MSTORE PUSH2 0x30D5 DUP2 DUP9 PUSH2 0x2F5D JUMP JUMPDEST SWAP1 POP DUP2 DUP2 SUB PUSH1 0x60 DUP4 ADD MSTORE PUSH2 0x30E9 DUP2 DUP8 PUSH2 0x2F5D JUMP JUMPDEST SWAP1 POP DUP2 DUP2 SUB PUSH1 0x80 DUP4 ADD MSTORE PUSH2 0x30FD DUP2 DUP7 PUSH2 0x2F5D JUMP JUMPDEST SWAP1 POP DUP2 DUP2 SUB PUSH1 0xA0 DUP4 ADD MSTORE PUSH2 0x3111 DUP2 DUP6 PUSH2 0x2F5D JUMP JUMPDEST SWAP1 POP DUP2 DUP2 SUB PUSH1 0xC0 DUP4 ADD MSTORE PUSH2 0x3125 DUP2 DUP5 PUSH2 0x2F5D JUMP JUMPDEST SWAP1 POP SWAP9 SWAP8 POP POP POP POP POP POP POP POP JUMP JUMPDEST PUSH1 0x0 PUSH1 0xC0 DUP3 ADD SWAP1 POP DUP2 DUP2 SUB PUSH1 0x0 DUP4 ADD MSTORE PUSH2 0x314D DUP2 DUP10 PUSH2 0x2F5D JUMP JUMPDEST SWAP1 POP DUP2 DUP2 SUB PUSH1 0x20 DUP4 ADD MSTORE PUSH2 0x3161 DUP2 DUP9 PUSH2 0x2F5D JUMP JUMPDEST SWAP1 POP DUP2 DUP2 SUB PUSH1 0x40 DUP4 ADD MSTORE PUSH2 0x3175 DUP2 DUP8 PUSH2 0x2F5D JUMP JUMPDEST SWAP1 POP PUSH2 0x3184 PUSH1 0x60 DUP4 ADD DUP7 PUSH2 0x2F93 JUMP JUMPDEST PUSH2 0x3191 PUSH1 0x80 DUP4 ADD DUP6 PUSH2 0x2EE4 JUMP JUMPDEST PUSH2 0x319E PUSH1 0xA0 DUP4 ADD DUP5 PUSH2 0x2EE4 JUMP JUMPDEST SWAP8 SWAP7 POP POP POP POP POP POP POP JUMP JUMPDEST PUSH1 0x0 PUSH1 0x20 DUP3 ADD SWAP1 POP PUSH2 0x31BE PUSH1 0x0 DUP4 ADD DUP5 PUSH2 0x2F93 JUMP JUMPDEST SWAP3 SWAP2 POP POP JUMP JUMPDEST PUSH1 0x0 PUSH1 0x40 MLOAD SWAP1 POP DUP2 DUP2 ADD DUP2 DUP2 LT PUSH8 0xFFFFFFFFFFFFFFFF DUP3 GT OR ISZERO PUSH2 0x31E7 JUMPI PUSH1 0x0 DUP1 REVERT JUMPDEST DUP1 PUSH1 0x40 MSTORE POP SWAP2 SWAP1 POP JUMP JUMPDEST PUSH1 0x0 PUSH8 0xFFFFFFFFFFFFFFFF DUP3 GT ISZERO PUSH2 0x3208 JUMPI PUSH1 0x0 DUP1 REVERT JUMPDEST PUSH1 0x1F NOT PUSH1 0x1F DUP4 ADD AND SWAP1 POP PUSH1 0x20 DUP2 ADD SWAP1 POP SWAP2 SWAP1 POP JUMP JUMPDEST PUSH1 0x0 PUSH1 0x20 DUP3 ADD SWAP1 POP SWAP2 SWAP1 POP JUMP JUMPDEST PUSH1 0x0 DUP2 MLOAD SWAP1 POP SWAP2 SWAP1 POP JUMP JUMPDEST PUSH1 0x0 DUP2 MLOAD SWAP1 POP SWAP2 SWAP1 POP JUMP JUMPDEST PUSH1 0x0 PUSH1 0x20 DUP3 ADD SWAP1 POP SWAP2 SWAP1 POP JUMP JUMPDEST PUSH1 0x0 PUSH20 0xFFFFFFFFFFFFFFFFFFFFFFFFFFFFFFFFFFFFFFFF DUP3 AND SWAP1 POP SWAP2 SWAP1 POP JUMP JUMPDEST PUSH1 0x0 DUP2 ISZERO ISZERO SWAP1 POP SWAP2 SWAP1 POP JUMP JUMPDEST PUSH1 0x0 DUP2 SWAP1 POP SWAP2 SWAP1 POP JUMP JUMPDEST PUSH1 0x0 PUSH20 0xFFFFFFFFFFFFFFFFFFFFFFFFFFFFFFFFFFFFFFFF DUP3 AND SWAP1 POP SWAP2 SWAP1 POP JUMP JUMPDEST PUSH1 0x0 DUP2 SWAP1 POP SWAP2 SWAP1 POP JUMP JUMPDEST DUP3 DUP2 DUP4 CALLDATACOPY PUSH1 0x0 DUP4 DUP4 ADD MSTORE POP POP POP JUMP JUMPDEST PUSH1 0x0 JUMPDEST DUP4 DUP2 LT ISZERO PUSH2 0x32DA JUMPI DUP1 DUP3 ADD MLOAD DUP2 DUP5 ADD MSTORE PUSH1 0x20 DUP2 ADD SWAP1 POP PUSH2 0x32BF JUMP JUMPDEST DUP4 DUP2 GT ISZERO PUSH2 0x32E9 JUMPI PUSH1 0x0 DUP5 DUP5 ADD MSTORE JUMPDEST POP POP POP POP JUMP JUMPDEST PUSH1 0x0 PUSH1 0x1F NOT PUSH1 0x1F DUP4 ADD AND SWAP1 POP SWAP2 SWAP1 POP JUMP STOP LOG2 PUSH6 0x627A7A723058 KECCAK256 EXP COINBASE 0xd1 0xf9 DUP7 0xd0 BALANCE 0xa7 LOG1 AND DUP9 PUSH18 0x75A2C501242BBB5187DFD99144FABABB683C 0xce PUSH25 0x6C6578706572696D656E74616CF50037000000000000000000 "
				},
				"gasEstimates": {
					"creation": {
						"codeDepositCost": "2622800",
						"executionCost": "48136",
						"totalCost": "2670936"
					},
					"external": {
						"MoHPermissionCounter()": "914",
						"MoHRevokePermission(address,address)": "infinite",
						"createVaccineRecord(address,address,string,string,string,uint256)": "infinite",
						"doctorCount()": "782",
						"doctorList(uint256)": "1144",
						"doctorRegistration(address,string,string,string,string,string,string,string)": "infinite",
						"editDoctor(address,string,string,string,string,string,string,string)": "infinite",
						"editUser(address,string,string,string,string,string,string,string,string,string)": "infinite",
						"getDoctorCount()": "812",
						"getDoctors()": "infinite",
						"getMoHPermissionCounter()": "1120",
						"getUserCount()": "988",
						"getUserPermissionCounter()": "548",
						"getUsers()": "infinite",
						"getVaccinationInfo(address)": "infinite",
						"givePermissionByMoH(address,address)": "infinite",
						"givePermissionByUser(address)": "41388",
						"mohAdress()": "1044",
						"owner()": "890",
						"ownerAddress()": "21186",
						"searchDoctor(address)": "infinite",
						"searchUserformation(address)": "infinite",
						"userCount()": "584",
						"userList(uint256)": "1474",
						"userPermissionCounter()": "1046",
						"userRegistration(address,string,string,string,string,string,string,string,string,string)": "infinite",
						"userRevokePermission(address)": "21195",
						"vaccinationList(uint256)": "1672",
						"vaccinationRecordsCounter()": "892"
					}
				},
				"methodIdentifiers": {
					"MoHPermissionCounter()": "99d698c5",
					"MoHRevokePermission(address,address)": "c3bf7bf0",
					"createVaccineRecord(address,address,string,string,string,uint256)": "341f8105",
					"doctorCount()": "78522bc4",
					"doctorList(uint256)": "127ca4b4",
					"doctorRegistration(address,string,string,string,string,string,string,string)": "17e51111",
					"editDoctor(address,string,string,string,string,string,string,string)": "16e0a611",
					"editUser(address,string,string,string,string,string,string,string,string,string)": "779a9576",
					"getDoctorCount()": "79111c1c",
					"getDoctors()": "b13d5d94",
					"getMoHPermissionCounter()": "e0df0ac6",
					"getUserCount()": "b5cb15f7",
					"getUserPermissionCounter()": "024decc5",
					"getUsers()": "00ce8e3e",
					"getVaccinationInfo(address)": "83a28b29",
					"givePermissionByMoH(address,address)": "d118404b",
					"givePermissionByUser(address)": "294a4540",
					"mohAdress()": "b744ff4d",
					"owner()": "8da5cb5b",
					"ownerAddress()": "8f84aa09",
					"searchDoctor(address)": "caee6c85",
					"searchUserformation(address)": "076fd2f8",
					"userCount()": "07973ccf",
					"userList(uint256)": "9f4216e8",
					"userPermissionCounter()": "c543a718",
					"userRegistration(address,string,string,string,string,string,string,string,string,string)": "6cdb2278",
					"userRevokePermission(address)": "5fc8e8c6",
					"vaccinationList(uint256)": "ff508dab",
					"vaccinationRecordsCounter()": "96e39ce0"
				}
			},
			"userdoc": {
				"methods": {}
			}
		}
	}
}