{
	"Smart Contract/contracts/ddddd.sol": {
		"ddddd": {
			"abi": [
				{
					"constant": true,
					"inputs": [],
					"name": "getUsers",
					"outputs": [
						{
							"name": "",
							"type": "address[]"
						}
					],
					"payable": false,
					"stateMutability": "view",
					"type": "function"
				},
				{
					"constant": true,
					"inputs": [],
					"name": "getUserPermissionCounter",
					"outputs": [
						{
							"name": "",
							"type": "uint256"
						}
					],
					"payable": false,
					"stateMutability": "view",
					"type": "function"
				},
				{
					"constant": true,
					"inputs": [
						{
							"name": "_address",
							"type": "address"
						}
					],
					"name": "searchUserformation",
					"outputs": [
						{
							"name": "",
							"type": "string"
						},
						{
							"name": "",
							"type": "string"
						},
						{
							"name": "",
							"type": "string"
						},
						{
							"name": "",
							"type": "string"
						},
						{
							"name": "",
							"type": "string"
						},
						{
							"name": "",
							"type": "string"
						},
						{
							"name": "",
							"type": "string"
						},
						{
							"name": "",
							"type": "address"
						}
					],
					"payable": false,
					"stateMutability": "view",
					"type": "function"
				},
				{
					"constant": true,
					"inputs": [],
					"name": "userCount",
					"outputs": [
						{
							"name": "",
							"type": "uint256"
						}
					],
					"payable": false,
					"stateMutability": "view",
					"type": "function"
				},
				{
					"constant": true,
					"inputs": [
						{
							"name": "",
							"type": "uint256"
						}
					],
					"name": "doctorList",
					"outputs": [
						{
							"name": "",
							"type": "address"
						}
					],
					"payable": false,
					"stateMutability": "view",
					"type": "function"
				},
				{
					"constant": false,
					"inputs": [
						{
							"name": "_doctor",
							"type": "address"
						},
						{
							"name": "_uaeId",
							"type": "string"
						},
						{
							"name": "_name",
							"type": "string"
						},
						{
							"name": "_phone",
							"type": "string"
						},
						{
							"name": "_gender",
							"type": "string"
						},
						{
							"name": "_email",
							"type": "string"
						},
						{
							"name": "_qualification",
							"type": "string"
						},
						{
							"name": "_major",
							"type": "string"
						}
					],
					"name": "editDoctor",
					"outputs": [],
					"payable": false,
					"stateMutability": "nonpayable",
					"type": "function"
				},
				{
					"constant": false,
					"inputs": [
						{
							"name": "_doctor",
							"type": "address"
						},
						{
							"name": "_uaeId",
							"type": "string"
						},
						{
							"name": "_name",
							"type": "string"
						},
						{
							"name": "_phone",
							"type": "string"
						},
						{
							"name": "_gender",
							"type": "string"
						},
						{
							"name": "_email",
							"type": "string"
						},
						{
							"name": "_qualification",
							"type": "string"
						},
						{
							"name": "_major",
							"type": "string"
						}
					],
					"name": "doctorRegistration",
					"outputs": [],
					"payable": false,
					"stateMutability": "nonpayable",
					"type": "function"
				},
				{
					"constant": true,
					"inputs": [
						{
							"name": "_admin",
							"type": "address"
						}
					],
					"name": "ownerAddress",
					"outputs": [
						{
							"name": "",
							"type": "bool"
						}
					],
					"payable": false,
					"stateMutability": "view",
					"type": "function"
				},
				{
					"constant": false,
					"inputs": [
						{
							"name": "_address",
							"type": "address"
						}
					],
					"name": "givePermissionByUser",
					"outputs": [
						{
							"name": "success",
							"type": "bool"
						}
					],
					"payable": false,
					"stateMutability": "nonpayable",
					"type": "function"
				},
				{
					"constant": false,
					"inputs": [
						{
							"name": "_address1",
							"type": "address"
						},
						{
							"name": "_doctor",
							"type": "address"
						},
						{
							"name": "_name",
							"type": "string"
						},
						{
							"name": "_vaccine",
							"type": "string"
						},
						{
							"name": "_description",
							"type": "string"
						},
						{
							"name": "_typeOfVaccine",
							"type": "string"
						},
						{
							"name": "_creationDate",
							"type": "uint256"
						}
					],
					"name": "createVaccineRecord",
					"outputs": [
						{
							"name": "success",
							"type": "bool"
						}
					],
					"payable": false,
					"stateMutability": "nonpayable",
					"type": "function"
				},
				{
					"constant": false,
					"inputs": [
						{
							"name": "_address",
							"type": "address"
						}
					],
					"name": "userRevokePermission",
					"outputs": [
						{
							"name": "success",
							"type": "bool"
						}
					],
					"payable": false,
					"stateMutability": "nonpayable",
					"type": "function"
				},
				{
					"constant": false,
					"inputs": [
						{
							"name": "_user",
							"type": "address"
						},
						{
							"name": "_uaeId",
							"type": "string"
						},
						{
							"name": "_name",
							"type": "string"
						},
						{
							"name": "_phone",
							"type": "string"
						},
						{
							"name": "_gender",
							"type": "string"
						},
						{
							"name": "_dob",
							"type": "string"
						},
						{
							"name": "_addr",
							"type": "string"
						},
						{
							"name": "_email",
							"type": "string"
						},
						{
							"name": "_nomineeName",
							"type": "string"
						},
						{
							"name": "_nomineeContact",
							"type": "string"
						}
					],
					"name": "userRegistration",
					"outputs": [],
					"payable": false,
					"stateMutability": "nonpayable",
					"type": "function"
				},
				{
					"constant": false,
					"inputs": [
						{
							"name": "_user",
							"type": "address"
						},
						{
							"name": "_uaeId",
							"type": "string"
						},
						{
							"name": "_name",
							"type": "string"
						},
						{
							"name": "_phone",
							"type": "string"
						},
						{
							"name": "_gender",
							"type": "string"
						},
						{
							"name": "_dob",
							"type": "string"
						},
						{
							"name": "_addr",
							"type": "string"
						},
						{
							"name": "_email",
							"type": "string"
						},
						{
							"name": "_nomineeName",
							"type": "string"
						},
						{
							"name": "_nomineeContact",
							"type": "string"
						}
					],
					"name": "editUser",
					"outputs": [],
					"payable": false,
					"stateMutability": "nonpayable",
					"type": "function"
				},
				{
					"constant": true,
					"inputs": [],
					"name": "doctorCount",
					"outputs": [
						{
							"name": "",
							"type": "uint256"
						}
					],
					"payable": false,
					"stateMutability": "view",
					"type": "function"
				},
				{
					"constant": true,
					"inputs": [],
					"name": "getDoctorCount",
					"outputs": [
						{
							"name": "",
							"type": "uint256"
						}
					],
					"payable": false,
					"stateMutability": "view",
					"type": "function"
				},
				{
					"constant": true,
					"inputs": [
						{
							"name": "_address",
							"type": "address"
						}
					],
					"name": "checkDoctor",
					"outputs": [
						{
							"name": "success",
							"type": "bool"
						}
					],
					"payable": false,
					"stateMutability": "view",
					"type": "function"
				},
				{
					"constant": true,
					"inputs": [
						{
							"name": "_address",
							"type": "address"
						}
					],
					"name": "getVaccinationInfo",
					"outputs": [
						{
							"name": "",
							"type": "string"
						},
						{
							"name": "",
							"type": "string"
						},
						{
							"name": "",
							"type": "string"
						},
						{
							"name": "",
							"type": "string"
						},
						{
							"name": "",
							"type": "uint256"
						},
						{
							"name": "",
							"type": "address"
						},
						{
							"name": "",
							"type": "address"
						}
					],
					"payable": false,
					"stateMutability": "view",
					"type": "function"
				},
				{
					"constant": true,
					"inputs": [],
					"name": "owner",
					"outputs": [
						{
							"name": "",
							"type": "address"
						}
					],
					"payable": false,
					"stateMutability": "view",
					"type": "function"
				},
				{
					"constant": true,
					"inputs": [],
					"name": "vaccinationRecordsCounter",
					"outputs": [
						{
							"name": "",
							"type": "uint256"
						}
					],
					"payable": false,
					"stateMutability": "view",
					"type": "function"
				},
				{
					"constant": true,
					"inputs": [],
					"name": "MoHPermissionCounter",
					"outputs": [
						{
							"name": "",
							"type": "uint256"
						}
					],
					"payable": false,
					"stateMutability": "view",
					"type": "function"
				},
				{
					"constant": true,
					"inputs": [
						{
							"name": "",
							"type": "uint256"
						}
					],
					"name": "userList",
					"outputs": [
						{
							"name": "",
							"type": "address"
						}
					],
					"payable": false,
					"stateMutability": "view",
					"type": "function"
				},
				{
					"constant": true,
					"inputs": [],
					"name": "getDoctors",
					"outputs": [
						{
							"name": "",
							"type": "address[]"
						}
					],
					"payable": false,
					"stateMutability": "view",
					"type": "function"
				},
				{
					"constant": true,
					"inputs": [],
					"name": "getUserCount",
					"outputs": [
						{
							"name": "",
							"type": "uint256"
						}
					],
					"payable": false,
					"stateMutability": "view",
					"type": "function"
				},
				{
					"constant": true,
					"inputs": [],
					"name": "mohAdress",
					"outputs": [
						{
							"name": "",
							"type": "address"
						}
					],
					"payable": false,
					"stateMutability": "view",
					"type": "function"
				},
				{
					"constant": false,
					"inputs": [
						{
							"name": "_address1",
							"type": "address"
						},
						{
							"name": "_address2",
							"type": "address"
						}
					],
					"name": "MoHRevokePermission",
					"outputs": [
						{
							"name": "success",
							"type": "bool"
						}
					],
					"payable": false,
					"stateMutability": "nonpayable",
					"type": "function"
				},
				{
					"constant": true,
					"inputs": [],
					"name": "userPermissionCounter",
					"outputs": [
						{
							"name": "",
							"type": "uint256"
						}
					],
					"payable": false,
					"stateMutability": "view",
					"type": "function"
				},
				{
					"constant": true,
					"inputs": [
						{
							"name": "_address",
							"type": "address"
						}
					],
					"name": "searchDoctor",
					"outputs": [
						{
							"name": "",
							"type": "string"
						},
						{
							"name": "",
							"type": "string"
						},
						{
							"name": "",
							"type": "string"
						},
						{
							"name": "",
							"type": "string"
						},
						{
							"name": "",
							"type": "string"
						},
						{
							"name": "",
							"type": "string"
						},
						{
							"name": "",
							"type": "string"
						},
						{
							"name": "",
							"type": "address"
						}
					],
					"payable": false,
					"stateMutability": "view",
					"type": "function"
				},
				{
					"constant": false,
					"inputs": [
						{
							"name": "_address1",
							"type": "address"
						},
						{
							"name": "_address2",
							"type": "address"
						}
					],
					"name": "givePermissionByMoH",
					"outputs": [
						{
							"name": "success",
							"type": "bool"
						}
					],
					"payable": false,
					"stateMutability": "nonpayable",
					"type": "function"
				},
				{
					"constant": false,
					"inputs": [
						{
							"name": "_address1",
							"type": "address"
						},
						{
							"name": "_address2",
							"type": "address"
						}
					],
					"name": "givePermissionToVaccinate",
					"outputs": [
						{
							"name": "success",
							"type": "bool"
						}
					],
					"payable": false,
					"stateMutability": "nonpayable",
					"type": "function"
				},
				{
					"constant": true,
					"inputs": [],
					"name": "getMoHPermissionCounter",
					"outputs": [
						{
							"name": "",
							"type": "uint256"
						}
					],
					"payable": false,
					"stateMutability": "view",
					"type": "function"
				},
				{
					"constant": false,
					"inputs": [
						{
							"name": "_address1",
							"type": "address"
						},
						{
							"name": "_address2",
							"type": "address"
						}
					],
					"name": "revokePermissionToVaccinate",
					"outputs": [
						{
							"name": "success",
							"type": "bool"
						}
					],
					"payable": false,
					"stateMutability": "nonpayable",
					"type": "function"
				},
				{
					"constant": true,
					"inputs": [
						{
							"name": "",
							"type": "uint256"
						}
					],
					"name": "vaccinationList",
					"outputs": [
						{
							"name": "",
							"type": "address"
						}
					],
					"payable": false,
					"stateMutability": "view",
					"type": "function"
				}
			],
			"devdoc": {
				"methods": {}
			},
			"evm": {
				"assembly": "    /* \"Smart Contract/contracts/ddddd.sol\":91:9959  contract ddddd {\r... */\n  mstore(0x40, 0x80)\n    /* \"Smart Contract/contracts/ddddd.sol\":1729:1730  0 */\n  0x0\n    /* \"Smart Contract/contracts/ddddd.sol\":1702:1730  uint256 public userCount = 0 */\n  0xc\n  sstore\n    /* \"Smart Contract/contracts/ddddd.sol\":1766:1767  0 */\n  0x0\n    /* \"Smart Contract/contracts/ddddd.sol\":1737:1767  uint256 public doctorCount = 0 */\n  0xd\n  sstore\n    /* \"Smart Contract/contracts/ddddd.sol\":1812:1813  0 */\n  0x0\n    /* \"Smart Contract/contracts/ddddd.sol\":1774:1813  uint256 public MoHPermissionCounter = 0 */\n  0xe\n  sstore\n    /* \"Smart Contract/contracts/ddddd.sol\":1859:1860  0 */\n  0x0\n    /* \"Smart Contract/contracts/ddddd.sol\":1820:1860  uint256 public userPermissionCounter = 0 */\n  0xf\n  sstore\n    /* \"Smart Contract/contracts/ddddd.sol\":1910:1911  0 */\n  0x0\n    /* \"Smart Contract/contracts/ddddd.sol\":1867:1911  uint256 public vaccinationRecordsCounter = 0 */\n  0x10\n  sstore\n    /* \"Smart Contract/contracts/ddddd.sol\":1947:1989  0xc50C6297f56b033633C30354A854b074749cd2dC */\n  0xc50c6297f56b033633c30354a854b074749cd2dc\n    /* \"Smart Contract/contracts/ddddd.sol\":1920:1989  address public mohAdress = 0xc50C6297f56b033633C30354A854b074749cd2dC */\n  0x11\n  exp(0x100, 0x0)\n  dup2\n  sload\n  dup2\n  0xffffffffffffffffffffffffffffffffffffffff\n  mul\n  not\n  and\n  swap1\n  dup4\n  0xffffffffffffffffffffffffffffffffffffffff\n  and\n  mul\n  or\n  swap1\n  sstore\n  pop\n    /* \"Smart Contract/contracts/ddddd.sol\":91:9959  contract ddddd {\r... */\n  callvalue\n    /* \"--CODEGEN--\":8:17   */\n  dup1\n    /* \"--CODEGEN--\":5:7   */\n  iszero\n  tag_1\n  jumpi\n    /* \"--CODEGEN--\":30:31   */\n  0x0\n    /* \"--CODEGEN--\":27:28   */\n  dup1\n    /* \"--CODEGEN--\":20:32   */\n  revert\n    /* \"--CODEGEN--\":5:7   */\ntag_1:\n    /* \"Smart Contract/contracts/ddddd.sol\":91:9959  contract ddddd {\r... */\n  pop\n  dataSize(sub_0)\n  dup1\n  dataOffset(sub_0)\n  0x0\n  codecopy\n  0x0\n  return\nstop\n\nsub_0: assembly {\n        /* \"Smart Contract/contracts/ddddd.sol\":91:9959  contract ddddd {\r... */\n      mstore(0x40, 0x80)\n      jumpi(tag_1, lt(calldatasize, 0x4))\n      calldataload(0x0)\n      0x100000000000000000000000000000000000000000000000000000000\n      swap1\n      div\n      0xffffffff\n      and\n      dup1\n      0xce8e3e\n      eq\n      tag_2\n      jumpi\n      dup1\n      0x24decc5\n      eq\n      tag_3\n      jumpi\n      dup1\n      0x76fd2f8\n      eq\n      tag_4\n      jumpi\n      dup1\n      0x7973ccf\n      eq\n      tag_5\n      jumpi\n      dup1\n      0x127ca4b4\n      eq\n      tag_6\n      jumpi\n      dup1\n      0x16e0a611\n      eq\n      tag_7\n      jumpi\n      dup1\n      0x17e51111\n      eq\n      tag_8\n      jumpi\n      dup1\n      0x28f6daac\n      eq\n      tag_9\n      jumpi\n      dup1\n      0x294a4540\n      eq\n      tag_10\n      jumpi\n      dup1\n      0x44c23f88\n      eq\n      tag_11\n      jumpi\n      dup1\n      0x5fc8e8c6\n      eq\n      tag_12\n      jumpi\n      dup1\n      0x6cdb2278\n      eq\n      tag_13\n      jumpi\n      dup1\n      0x779a9576\n      eq\n      tag_14\n      jumpi\n      dup1\n      0x78522bc4\n      eq\n      tag_15\n      jumpi\n      dup1\n      0x79111c1c\n      eq\n      tag_16\n      jumpi\n      dup1\n      0x793de5f0\n      eq\n      tag_17\n      jumpi\n      dup1\n      0x83a28b29\n      eq\n      tag_18\n      jumpi\n      dup1\n      0x8da5cb5b\n      eq\n      tag_19\n      jumpi\n      dup1\n      0x96e39ce0\n      eq\n      tag_20\n      jumpi\n      dup1\n      0x99d698c5\n      eq\n      tag_21\n      jumpi\n      dup1\n      0x9f4216e8\n      eq\n      tag_22\n      jumpi\n      dup1\n      0xb13d5d94\n      eq\n      tag_23\n      jumpi\n      dup1\n      0xb5cb15f7\n      eq\n      tag_24\n      jumpi\n      dup1\n      0xb744ff4d\n      eq\n      tag_25\n      jumpi\n      dup1\n      0xc3bf7bf0\n      eq\n      tag_26\n      jumpi\n      dup1\n      0xc543a718\n      eq\n      tag_27\n      jumpi\n      dup1\n      0xcaee6c85\n      eq\n      tag_28\n      jumpi\n      dup1\n      0xd118404b\n      eq\n      tag_29\n      jumpi\n      dup1\n      0xe0672aad\n      eq\n      tag_30\n      jumpi\n      dup1\n      0xe0df0ac6\n      eq\n      tag_31\n      jumpi\n      dup1\n      0xeee8f11a\n      eq\n      tag_32\n      jumpi\n      dup1\n      0xff508dab\n      eq\n      tag_33\n      jumpi\n    tag_1:\n      0x0\n      dup1\n      revert\n        /* \"Smart Contract/contracts/ddddd.sol\":7934:8019  function getUsers() public view returns(address[]) {\r... */\n    tag_2:\n      callvalue\n        /* \"--CODEGEN--\":8:17   */\n      dup1\n        /* \"--CODEGEN--\":5:7   */\n      iszero\n      tag_34\n      jumpi\n        /* \"--CODEGEN--\":30:31   */\n      0x0\n        /* \"--CODEGEN--\":27:28   */\n      dup1\n        /* \"--CODEGEN--\":20:32   */\n      revert\n        /* \"--CODEGEN--\":5:7   */\n    tag_34:\n        /* \"Smart Contract/contracts/ddddd.sol\":7934:8019  function getUsers() public view returns(address[]) {\r... */\n      pop\n      tag_35\n      jump(tag_36)\n    tag_35:\n      mload(0x40)\n      tag_37\n      swap2\n      swap1\n      jump(tag_38)\n    tag_37:\n      mload(0x40)\n      dup1\n      swap2\n      sub\n      swap1\n      return\n        /* \"Smart Contract/contracts/ddddd.sol\":9412:9524  function getUserPermissionCounter() public view returns(uint256) {\r... */\n    tag_3:\n      callvalue\n        /* \"--CODEGEN--\":8:17   */\n      dup1\n        /* \"--CODEGEN--\":5:7   */\n      iszero\n      tag_39\n      jumpi\n        /* \"--CODEGEN--\":30:31   */\n      0x0\n        /* \"--CODEGEN--\":27:28   */\n      dup1\n        /* \"--CODEGEN--\":20:32   */\n      revert\n        /* \"--CODEGEN--\":5:7   */\n    tag_39:\n        /* \"Smart Contract/contracts/ddddd.sol\":9412:9524  function getUserPermissionCounter() public view returns(uint256) {\r... */\n      pop\n      tag_40\n      jump(tag_41)\n    tag_40:\n      mload(0x40)\n      tag_42\n      swap2\n      swap1\n      jump(tag_43)\n    tag_42:\n      mload(0x40)\n      dup1\n      swap2\n      sub\n      swap1\n      return\n        /* \"Smart Contract/contracts/ddddd.sol\":8130:8504  function searchUserformation(address _address) public view returns(string, string, string, string, string, string, string, address) {\r... */\n    tag_4:\n      callvalue\n        /* \"--CODEGEN--\":8:17   */\n      dup1\n        /* \"--CODEGEN--\":5:7   */\n      iszero\n      tag_44\n      jumpi\n        /* \"--CODEGEN--\":30:31   */\n      0x0\n        /* \"--CODEGEN--\":27:28   */\n      dup1\n        /* \"--CODEGEN--\":20:32   */\n      revert\n        /* \"--CODEGEN--\":5:7   */\n    tag_44:\n        /* \"Smart Contract/contracts/ddddd.sol\":8130:8504  function searchUserformation(address _address) public view returns(string, string, string, string, string, string, string, address) {\r... */\n      pop\n      tag_45\n      0x4\n      dup1\n      calldatasize\n      sub\n      tag_46\n      swap2\n      swap1\n      dup2\n      add\n      swap1\n      jump(tag_47)\n    tag_46:\n      jump(tag_48)\n    tag_45:\n      mload(0x40)\n      tag_49\n      swap9\n      swap8\n      swap7\n      swap6\n      swap5\n      swap4\n      swap3\n      swap2\n      swap1\n      jump(tag_50)\n    tag_49:\n      mload(0x40)\n      dup1\n      swap2\n      sub\n      swap1\n      return\n        /* \"Smart Contract/contracts/ddddd.sol\":1702:1730  uint256 public userCount = 0 */\n    tag_5:\n      callvalue\n        /* \"--CODEGEN--\":8:17   */\n      dup1\n        /* \"--CODEGEN--\":5:7   */\n      iszero\n      tag_51\n      jumpi\n        /* \"--CODEGEN--\":30:31   */\n      0x0\n        /* \"--CODEGEN--\":27:28   */\n      dup1\n        /* \"--CODEGEN--\":20:32   */\n      revert\n        /* \"--CODEGEN--\":5:7   */\n    tag_51:\n        /* \"Smart Contract/contracts/ddddd.sol\":1702:1730  uint256 public userCount = 0 */\n      pop\n      tag_52\n      jump(tag_53)\n    tag_52:\n      mload(0x40)\n      tag_54\n      swap2\n      swap1\n      jump(tag_43)\n    tag_54:\n      mload(0x40)\n      dup1\n      swap2\n      sub\n      swap1\n      return\n        /* \"Smart Contract/contracts/ddddd.sol\":1095:1122  address[] public doctorList */\n    tag_6:\n      callvalue\n        /* \"--CODEGEN--\":8:17   */\n      dup1\n        /* \"--CODEGEN--\":5:7   */\n      iszero\n      tag_55\n      jumpi\n        /* \"--CODEGEN--\":30:31   */\n      0x0\n        /* \"--CODEGEN--\":27:28   */\n      dup1\n        /* \"--CODEGEN--\":20:32   */\n      revert\n        /* \"--CODEGEN--\":5:7   */\n    tag_55:\n        /* \"Smart Contract/contracts/ddddd.sol\":1095:1122  address[] public doctorList */\n      pop\n      tag_56\n      0x4\n      dup1\n      calldatasize\n      sub\n      tag_57\n      swap2\n      swap1\n      dup2\n      add\n      swap1\n      jump(tag_58)\n    tag_57:\n      jump(tag_59)\n    tag_56:\n      mload(0x40)\n      tag_60\n      swap2\n      swap1\n      jump(tag_61)\n    tag_60:\n      mload(0x40)\n      dup1\n      swap2\n      sub\n      swap1\n      return\n        /* \"Smart Contract/contracts/ddddd.sol\":4769:5294  function editDoctor(address _doctor, string _uaeId, string _name, string _phone, string _gender, string _email, string _qualification, string _major) public {\r... */\n    tag_7:\n      callvalue\n        /* \"--CODEGEN--\":8:17   */\n      dup1\n        /* \"--CODEGEN--\":5:7   */\n      iszero\n      tag_62\n      jumpi\n        /* \"--CODEGEN--\":30:31   */\n      0x0\n        /* \"--CODEGEN--\":27:28   */\n      dup1\n        /* \"--CODEGEN--\":20:32   */\n      revert\n        /* \"--CODEGEN--\":5:7   */\n    tag_62:\n        /* \"Smart Contract/contracts/ddddd.sol\":4769:5294  function editDoctor(address _doctor, string _uaeId, string _name, string _phone, string _gender, string _email, string _qualification, string _major) public {\r... */\n      pop\n      tag_63\n      0x4\n      dup1\n      calldatasize\n      sub\n      tag_64\n      swap2\n      swap1\n      dup2\n      add\n      swap1\n      jump(tag_65)\n    tag_64:\n      jump(tag_66)\n    tag_63:\n      stop\n        /* \"Smart Contract/contracts/ddddd.sol\":3994:4761  function doctorRegistration(address _doctor, string _uaeId, string _name, string _phone, string _gender, string _email, string _qualification, string _major) public {\r... */\n    tag_8:\n      callvalue\n        /* \"--CODEGEN--\":8:17   */\n      dup1\n        /* \"--CODEGEN--\":5:7   */\n      iszero\n      tag_67\n      jumpi\n        /* \"--CODEGEN--\":30:31   */\n      0x0\n        /* \"--CODEGEN--\":27:28   */\n      dup1\n        /* \"--CODEGEN--\":20:32   */\n      revert\n        /* \"--CODEGEN--\":5:7   */\n    tag_67:\n        /* \"Smart Contract/contracts/ddddd.sol\":3994:4761  function doctorRegistration(address _doctor, string _uaeId, string _name, string _phone, string _gender, string _email, string _qualification, string _major) public {\r... */\n      pop\n      tag_68\n      0x4\n      dup1\n      calldatasize\n      sub\n      tag_69\n      swap2\n      swap1\n      dup2\n      add\n      swap1\n      jump(tag_65)\n    tag_69:\n      jump(tag_70)\n    tag_68:\n      stop\n        /* \"Smart Contract/contracts/ddddd.sol\":2002:2232  function ownerAddress(address _admin) public view returns(bool) {\r... */\n    tag_9:\n      callvalue\n        /* \"--CODEGEN--\":8:17   */\n      dup1\n        /* \"--CODEGEN--\":5:7   */\n      iszero\n      tag_71\n      jumpi\n        /* \"--CODEGEN--\":30:31   */\n      0x0\n        /* \"--CODEGEN--\":27:28   */\n      dup1\n        /* \"--CODEGEN--\":20:32   */\n      revert\n        /* \"--CODEGEN--\":5:7   */\n    tag_71:\n        /* \"Smart Contract/contracts/ddddd.sol\":2002:2232  function ownerAddress(address _admin) public view returns(bool) {\r... */\n      pop\n      tag_72\n      0x4\n      dup1\n      calldatasize\n      sub\n      tag_73\n      swap2\n      swap1\n      dup2\n      add\n      swap1\n      jump(tag_47)\n    tag_73:\n      jump(tag_74)\n    tag_72:\n      mload(0x40)\n      tag_75\n      swap2\n      swap1\n      jump(tag_76)\n    tag_75:\n      mload(0x40)\n      dup1\n      swap2\n      sub\n      swap1\n      return\n        /* \"Smart Contract/contracts/ddddd.sol\":6488:6679  function givePermissionByUser(address _address) public returns(bool success) {\r... */\n    tag_10:\n      callvalue\n        /* \"--CODEGEN--\":8:17   */\n      dup1\n        /* \"--CODEGEN--\":5:7   */\n      iszero\n      tag_77\n      jumpi\n        /* \"--CODEGEN--\":30:31   */\n      0x0\n        /* \"--CODEGEN--\":27:28   */\n      dup1\n        /* \"--CODEGEN--\":20:32   */\n      revert\n        /* \"--CODEGEN--\":5:7   */\n    tag_77:\n        /* \"Smart Contract/contracts/ddddd.sol\":6488:6679  function givePermissionByUser(address _address) public returns(bool success) {\r... */\n      pop\n      tag_78\n      0x4\n      dup1\n      calldatasize\n      sub\n      tag_79\n      swap2\n      swap1\n      dup2\n      add\n      swap1\n      jump(tag_47)\n    tag_79:\n      jump(tag_80)\n    tag_78:\n      mload(0x40)\n      tag_81\n      swap2\n      swap1\n      jump(tag_76)\n    tag_81:\n      mload(0x40)\n      dup1\n      swap2\n      sub\n      swap1\n      return\n        /* \"Smart Contract/contracts/ddddd.sol\":5302:6126  function createVaccineRecord(address _address1, address _doctor, string _name, string _vaccine, string _description, string _typeOfVaccine, uint _creationDate) public returns(bool success) {\r... */\n    tag_11:\n      callvalue\n        /* \"--CODEGEN--\":8:17   */\n      dup1\n        /* \"--CODEGEN--\":5:7   */\n      iszero\n      tag_82\n      jumpi\n        /* \"--CODEGEN--\":30:31   */\n      0x0\n        /* \"--CODEGEN--\":27:28   */\n      dup1\n        /* \"--CODEGEN--\":20:32   */\n      revert\n        /* \"--CODEGEN--\":5:7   */\n    tag_82:\n        /* \"Smart Contract/contracts/ddddd.sol\":5302:6126  function createVaccineRecord(address _address1, address _doctor, string _name, string _vaccine, string _description, string _typeOfVaccine, uint _creationDate) public returns(bool success) {\r... */\n      pop\n      tag_83\n      0x4\n      dup1\n      calldatasize\n      sub\n      tag_84\n      swap2\n      swap1\n      dup2\n      add\n      swap1\n      jump(tag_85)\n    tag_84:\n      jump(tag_86)\n    tag_83:\n      mload(0x40)\n      tag_87\n      swap2\n      swap1\n      jump(tag_76)\n    tag_87:\n      mload(0x40)\n      dup1\n      swap2\n      sub\n      swap1\n      return\n        /* \"Smart Contract/contracts/ddddd.sol\":7538:7696  function userRevokePermission(address _address) public returns(bool success) {\r... */\n    tag_12:\n      callvalue\n        /* \"--CODEGEN--\":8:17   */\n      dup1\n        /* \"--CODEGEN--\":5:7   */\n      iszero\n      tag_88\n      jumpi\n        /* \"--CODEGEN--\":30:31   */\n      0x0\n        /* \"--CODEGEN--\":27:28   */\n      dup1\n        /* \"--CODEGEN--\":20:32   */\n      revert\n        /* \"--CODEGEN--\":5:7   */\n    tag_88:\n        /* \"Smart Contract/contracts/ddddd.sol\":7538:7696  function userRevokePermission(address _address) public returns(bool success) {\r... */\n      pop\n      tag_89\n      0x4\n      dup1\n      calldatasize\n      sub\n      tag_90\n      swap2\n      swap1\n      dup2\n      add\n      swap1\n      jump(tag_47)\n    tag_90:\n      jump(tag_91)\n    tag_89:\n      mload(0x40)\n      tag_92\n      swap2\n      swap1\n      jump(tag_76)\n    tag_92:\n      mload(0x40)\n      dup1\n      swap2\n      sub\n      swap1\n      return\n        /* \"Smart Contract/contracts/ddddd.sol\":2244:3353  function userRegistration(address _user, string _uaeId, string _name, string _phone, string _gender, string _dob, string _addr, string _email, string _nomineeName, string _nomineeContact) public {\r... */\n    tag_13:\n      callvalue\n        /* \"--CODEGEN--\":8:17   */\n      dup1\n        /* \"--CODEGEN--\":5:7   */\n      iszero\n      tag_93\n      jumpi\n        /* \"--CODEGEN--\":30:31   */\n      0x0\n        /* \"--CODEGEN--\":27:28   */\n      dup1\n        /* \"--CODEGEN--\":20:32   */\n      revert\n        /* \"--CODEGEN--\":5:7   */\n    tag_93:\n        /* \"Smart Contract/contracts/ddddd.sol\":2244:3353  function userRegistration(address _user, string _uaeId, string _name, string _phone, string _gender, string _dob, string _addr, string _email, string _nomineeName, string _nomineeContact) public {\r... */\n      pop\n      tag_94\n      0x4\n      dup1\n      calldatasize\n      sub\n      tag_95\n      swap2\n      swap1\n      dup2\n      add\n      swap1\n      jump(tag_96)\n    tag_95:\n      jump(tag_97)\n    tag_94:\n      stop\n        /* \"Smart Contract/contracts/ddddd.sol\":3377:3986  function editUser(address _user, string _uaeId, string _name, string _phone, string _gender, string _dob, string _addr, string _email, string _nomineeName, string _nomineeContact) public {\r... */\n    tag_14:\n      callvalue\n        /* \"--CODEGEN--\":8:17   */\n      dup1\n        /* \"--CODEGEN--\":5:7   */\n      iszero\n      tag_98\n      jumpi\n        /* \"--CODEGEN--\":30:31   */\n      0x0\n        /* \"--CODEGEN--\":27:28   */\n      dup1\n        /* \"--CODEGEN--\":20:32   */\n      revert\n        /* \"--CODEGEN--\":5:7   */\n    tag_98:\n        /* \"Smart Contract/contracts/ddddd.sol\":3377:3986  function editUser(address _user, string _uaeId, string _name, string _phone, string _gender, string _dob, string _addr, string _email, string _nomineeName, string _nomineeContact) public {\r... */\n      pop\n      tag_99\n      0x4\n      dup1\n      calldatasize\n      sub\n      tag_100\n      swap2\n      swap1\n      dup2\n      add\n      swap1\n      jump(tag_96)\n    tag_100:\n      jump(tag_101)\n    tag_99:\n      stop\n        /* \"Smart Contract/contracts/ddddd.sol\":1737:1767  uint256 public doctorCount = 0 */\n    tag_15:\n      callvalue\n        /* \"--CODEGEN--\":8:17   */\n      dup1\n        /* \"--CODEGEN--\":5:7   */\n      iszero\n      tag_102\n      jumpi\n        /* \"--CODEGEN--\":30:31   */\n      0x0\n        /* \"--CODEGEN--\":27:28   */\n      dup1\n        /* \"--CODEGEN--\":20:32   */\n      revert\n        /* \"--CODEGEN--\":5:7   */\n    tag_102:\n        /* \"Smart Contract/contracts/ddddd.sol\":1737:1767  uint256 public doctorCount = 0 */\n      pop\n      tag_103\n      jump(tag_104)\n    tag_103:\n      mload(0x40)\n      tag_105\n      swap2\n      swap1\n      jump(tag_43)\n    tag_105:\n      mload(0x40)\n      dup1\n      swap2\n      sub\n      swap1\n      return\n        /* \"Smart Contract/contracts/ddddd.sol\":9306:9398  function getDoctorCount() public view returns(uint256) {\r... */\n    tag_16:\n      callvalue\n        /* \"--CODEGEN--\":8:17   */\n      dup1\n        /* \"--CODEGEN--\":5:7   */\n      iszero\n      tag_106\n      jumpi\n        /* \"--CODEGEN--\":30:31   */\n      0x0\n        /* \"--CODEGEN--\":27:28   */\n      dup1\n        /* \"--CODEGEN--\":20:32   */\n      revert\n        /* \"--CODEGEN--\":5:7   */\n    tag_106:\n        /* \"Smart Contract/contracts/ddddd.sol\":9306:9398  function getDoctorCount() public view returns(uint256) {\r... */\n      pop\n      tag_107\n      jump(tag_108)\n    tag_107:\n      mload(0x40)\n      tag_109\n      swap2\n      swap1\n      jump(tag_43)\n    tag_109:\n      mload(0x40)\n      dup1\n      swap2\n      sub\n      swap1\n      return\n        /* \"Smart Contract/contracts/ddddd.sol\":9650:9956  function checkDoctor(address _address) public view returns(bool success) {\r... */\n    tag_17:\n      callvalue\n        /* \"--CODEGEN--\":8:17   */\n      dup1\n        /* \"--CODEGEN--\":5:7   */\n      iszero\n      tag_110\n      jumpi\n        /* \"--CODEGEN--\":30:31   */\n      0x0\n        /* \"--CODEGEN--\":27:28   */\n      dup1\n        /* \"--CODEGEN--\":20:32   */\n      revert\n        /* \"--CODEGEN--\":5:7   */\n    tag_110:\n        /* \"Smart Contract/contracts/ddddd.sol\":9650:9956  function checkDoctor(address _address) public view returns(bool success) {\r... */\n      pop\n      tag_111\n      0x4\n      dup1\n      calldatasize\n      sub\n      tag_112\n      swap2\n      swap1\n      dup2\n      add\n      swap1\n      jump(tag_47)\n    tag_112:\n      jump(tag_113)\n    tag_111:\n      mload(0x40)\n      tag_114\n      swap2\n      swap1\n      jump(tag_76)\n    tag_114:\n      mload(0x40)\n      dup1\n      swap2\n      sub\n      swap1\n      return\n        /* \"Smart Contract/contracts/ddddd.sol\":6134:6478  function getVaccinationInfo(address _address) public view returns(string, string, string, string, uint256, address, address) {\r... */\n    tag_18:\n      callvalue\n        /* \"--CODEGEN--\":8:17   */\n      dup1\n        /* \"--CODEGEN--\":5:7   */\n      iszero\n      tag_115\n      jumpi\n        /* \"--CODEGEN--\":30:31   */\n      0x0\n        /* \"--CODEGEN--\":27:28   */\n      dup1\n        /* \"--CODEGEN--\":20:32   */\n      revert\n        /* \"--CODEGEN--\":5:7   */\n    tag_115:\n        /* \"Smart Contract/contracts/ddddd.sol\":6134:6478  function getVaccinationInfo(address _address) public view returns(string, string, string, string, uint256, address, address) {\r... */\n      pop\n      tag_116\n      0x4\n      dup1\n      calldatasize\n      sub\n      tag_117\n      swap2\n      swap1\n      dup2\n      add\n      swap1\n      jump(tag_47)\n    tag_117:\n      jump(tag_118)\n    tag_116:\n      mload(0x40)\n      tag_119\n      swap8\n      swap7\n      swap6\n      swap5\n      swap4\n      swap3\n      swap2\n      swap1\n      jump(tag_120)\n    tag_119:\n      mload(0x40)\n      dup1\n      swap2\n      sub\n      swap1\n      return\n        /* \"Smart Contract/contracts/ddddd.sol\":1036:1056  address public owner */\n    tag_19:\n      callvalue\n        /* \"--CODEGEN--\":8:17   */\n      dup1\n        /* \"--CODEGEN--\":5:7   */\n      iszero\n      tag_121\n      jumpi\n        /* \"--CODEGEN--\":30:31   */\n      0x0\n        /* \"--CODEGEN--\":27:28   */\n      dup1\n        /* \"--CODEGEN--\":20:32   */\n      revert\n        /* \"--CODEGEN--\":5:7   */\n    tag_121:\n        /* \"Smart Contract/contracts/ddddd.sol\":1036:1056  address public owner */\n      pop\n      tag_122\n      jump(tag_123)\n    tag_122:\n      mload(0x40)\n      tag_124\n      swap2\n      swap1\n      jump(tag_61)\n    tag_124:\n      mload(0x40)\n      dup1\n      swap2\n      sub\n      swap1\n      return\n        /* \"Smart Contract/contracts/ddddd.sol\":1867:1911  uint256 public vaccinationRecordsCounter = 0 */\n    tag_20:\n      callvalue\n        /* \"--CODEGEN--\":8:17   */\n      dup1\n        /* \"--CODEGEN--\":5:7   */\n      iszero\n      tag_125\n      jumpi\n        /* \"--CODEGEN--\":30:31   */\n      0x0\n        /* \"--CODEGEN--\":27:28   */\n      dup1\n        /* \"--CODEGEN--\":20:32   */\n      revert\n        /* \"--CODEGEN--\":5:7   */\n    tag_125:\n        /* \"Smart Contract/contracts/ddddd.sol\":1867:1911  uint256 public vaccinationRecordsCounter = 0 */\n      pop\n      tag_126\n      jump(tag_127)\n    tag_126:\n      mload(0x40)\n      tag_128\n      swap2\n      swap1\n      jump(tag_43)\n    tag_128:\n      mload(0x40)\n      dup1\n      swap2\n      sub\n      swap1\n      return\n        /* \"Smart Contract/contracts/ddddd.sol\":1774:1813  uint256 public MoHPermissionCounter = 0 */\n    tag_21:\n      callvalue\n        /* \"--CODEGEN--\":8:17   */\n      dup1\n        /* \"--CODEGEN--\":5:7   */\n      iszero\n      tag_129\n      jumpi\n        /* \"--CODEGEN--\":30:31   */\n      0x0\n        /* \"--CODEGEN--\":27:28   */\n      dup1\n        /* \"--CODEGEN--\":20:32   */\n      revert\n        /* \"--CODEGEN--\":5:7   */\n    tag_129:\n        /* \"Smart Contract/contracts/ddddd.sol\":1774:1813  uint256 public MoHPermissionCounter = 0 */\n      pop\n      tag_130\n      jump(tag_131)\n    tag_130:\n      mload(0x40)\n      tag_132\n      swap2\n      swap1\n      jump(tag_43)\n    tag_132:\n      mload(0x40)\n      dup1\n      swap2\n      sub\n      swap1\n      return\n        /* \"Smart Contract/contracts/ddddd.sol\":1063:1088  address[] public userList */\n    tag_22:\n      callvalue\n        /* \"--CODEGEN--\":8:17   */\n      dup1\n        /* \"--CODEGEN--\":5:7   */\n      iszero\n      tag_133\n      jumpi\n        /* \"--CODEGEN--\":30:31   */\n      0x0\n        /* \"--CODEGEN--\":27:28   */\n      dup1\n        /* \"--CODEGEN--\":20:32   */\n      revert\n        /* \"--CODEGEN--\":5:7   */\n    tag_133:\n        /* \"Smart Contract/contracts/ddddd.sol\":1063:1088  address[] public userList */\n      pop\n      tag_134\n      0x4\n      dup1\n      calldatasize\n      sub\n      tag_135\n      swap2\n      swap1\n      dup2\n      add\n      swap1\n      jump(tag_58)\n    tag_135:\n      jump(tag_136)\n    tag_134:\n      mload(0x40)\n      tag_137\n      swap2\n      swap1\n      jump(tag_61)\n    tag_137:\n      mload(0x40)\n      dup1\n      swap2\n      sub\n      swap1\n      return\n        /* \"Smart Contract/contracts/ddddd.sol\":8029:8118  function getDoctors() public view returns(address[]) {\r... */\n    tag_23:\n      callvalue\n        /* \"--CODEGEN--\":8:17   */\n      dup1\n        /* \"--CODEGEN--\":5:7   */\n      iszero\n      tag_138\n      jumpi\n        /* \"--CODEGEN--\":30:31   */\n      0x0\n        /* \"--CODEGEN--\":27:28   */\n      dup1\n        /* \"--CODEGEN--\":20:32   */\n      revert\n        /* \"--CODEGEN--\":5:7   */\n    tag_138:\n        /* \"Smart Contract/contracts/ddddd.sol\":8029:8118  function getDoctors() public view returns(address[]) {\r... */\n      pop\n      tag_139\n      jump(tag_140)\n    tag_139:\n      mload(0x40)\n      tag_141\n      swap2\n      swap1\n      jump(tag_38)\n    tag_141:\n      mload(0x40)\n      dup1\n      swap2\n      sub\n      swap1\n      return\n        /* \"Smart Contract/contracts/ddddd.sol\":9210:9298  function getUserCount() public view returns(uint256) {\r... */\n    tag_24:\n      callvalue\n        /* \"--CODEGEN--\":8:17   */\n      dup1\n        /* \"--CODEGEN--\":5:7   */\n      iszero\n      tag_142\n      jumpi\n        /* \"--CODEGEN--\":30:31   */\n      0x0\n        /* \"--CODEGEN--\":27:28   */\n      dup1\n        /* \"--CODEGEN--\":20:32   */\n      revert\n        /* \"--CODEGEN--\":5:7   */\n    tag_142:\n        /* \"Smart Contract/contracts/ddddd.sol\":9210:9298  function getUserCount() public view returns(uint256) {\r... */\n      pop\n      tag_143\n      jump(tag_144)\n    tag_143:\n      mload(0x40)\n      tag_145\n      swap2\n      swap1\n      jump(tag_43)\n    tag_145:\n      mload(0x40)\n      dup1\n      swap2\n      sub\n      swap1\n      return\n        /* \"Smart Contract/contracts/ddddd.sol\":1920:1989  address public mohAdress = 0xc50C6297f56b033633C30354A854b074749cd2dC */\n    tag_25:\n      callvalue\n        /* \"--CODEGEN--\":8:17   */\n      dup1\n        /* \"--CODEGEN--\":5:7   */\n      iszero\n      tag_146\n      jumpi\n        /* \"--CODEGEN--\":30:31   */\n      0x0\n        /* \"--CODEGEN--\":27:28   */\n      dup1\n        /* \"--CODEGEN--\":20:32   */\n      revert\n        /* \"--CODEGEN--\":5:7   */\n    tag_146:\n        /* \"Smart Contract/contracts/ddddd.sol\":1920:1989  address public mohAdress = 0xc50C6297f56b033633C30354A854b074749cd2dC */\n      pop\n      tag_147\n      jump(tag_148)\n    tag_147:\n      mload(0x40)\n      tag_149\n      swap2\n      swap1\n      jump(tag_61)\n    tag_149:\n      mload(0x40)\n      dup1\n      swap2\n      sub\n      swap1\n      return\n        /* \"Smart Contract/contracts/ddddd.sol\":7704:7924  function MoHRevokePermission(address _address1, address _address2) public returns(bool success) {\r... */\n    tag_26:\n      callvalue\n        /* \"--CODEGEN--\":8:17   */\n      dup1\n        /* \"--CODEGEN--\":5:7   */\n      iszero\n      tag_150\n      jumpi\n        /* \"--CODEGEN--\":30:31   */\n      0x0\n        /* \"--CODEGEN--\":27:28   */\n      dup1\n        /* \"--CODEGEN--\":20:32   */\n      revert\n        /* \"--CODEGEN--\":5:7   */\n    tag_150:\n        /* \"Smart Contract/contracts/ddddd.sol\":7704:7924  function MoHRevokePermission(address _address1, address _address2) public returns(bool success) {\r... */\n      pop\n      tag_151\n      0x4\n      dup1\n      calldatasize\n      sub\n      tag_152\n      swap2\n      swap1\n      dup2\n      add\n      swap1\n      jump(tag_153)\n    tag_152:\n      jump(tag_154)\n    tag_151:\n      mload(0x40)\n      tag_155\n      swap2\n      swap1\n      jump(tag_76)\n    tag_155:\n      mload(0x40)\n      dup1\n      swap2\n      sub\n      swap1\n      return\n        /* \"Smart Contract/contracts/ddddd.sol\":1820:1860  uint256 public userPermissionCounter = 0 */\n    tag_27:\n      callvalue\n        /* \"--CODEGEN--\":8:17   */\n      dup1\n        /* \"--CODEGEN--\":5:7   */\n      iszero\n      tag_156\n      jumpi\n        /* \"--CODEGEN--\":30:31   */\n      0x0\n        /* \"--CODEGEN--\":27:28   */\n      dup1\n        /* \"--CODEGEN--\":20:32   */\n      revert\n        /* \"--CODEGEN--\":5:7   */\n    tag_156:\n        /* \"Smart Contract/contracts/ddddd.sol\":1820:1860  uint256 public userPermissionCounter = 0 */\n      pop\n      tag_157\n      jump(tag_158)\n    tag_157:\n      mload(0x40)\n      tag_159\n      swap2\n      swap1\n      jump(tag_43)\n    tag_159:\n      mload(0x40)\n      dup1\n      swap2\n      sub\n      swap1\n      return\n        /* \"Smart Contract/contracts/ddddd.sol\":8825:9194  function searchDoctor(address _address) public view returns(string, string, string, string, string, string, string, address) {\r... */\n    tag_28:\n      callvalue\n        /* \"--CODEGEN--\":8:17   */\n      dup1\n        /* \"--CODEGEN--\":5:7   */\n      iszero\n      tag_160\n      jumpi\n        /* \"--CODEGEN--\":30:31   */\n      0x0\n        /* \"--CODEGEN--\":27:28   */\n      dup1\n        /* \"--CODEGEN--\":20:32   */\n      revert\n        /* \"--CODEGEN--\":5:7   */\n    tag_160:\n        /* \"Smart Contract/contracts/ddddd.sol\":8825:9194  function searchDoctor(address _address) public view returns(string, string, string, string, string, string, string, address) {\r... */\n      pop\n      tag_161\n      0x4\n      dup1\n      calldatasize\n      sub\n      tag_162\n      swap2\n      swap1\n      dup2\n      add\n      swap1\n      jump(tag_47)\n    tag_162:\n      jump(tag_163)\n    tag_161:\n      mload(0x40)\n      tag_164\n      swap9\n      swap8\n      swap7\n      swap6\n      swap5\n      swap4\n      swap3\n      swap2\n      swap1\n      jump(tag_50)\n    tag_164:\n      mload(0x40)\n      dup1\n      swap2\n      sub\n      swap1\n      return\n        /* \"Smart Contract/contracts/ddddd.sol\":6687:6939  function givePermissionByMoH(address _address1, address _address2) public returns(bool success) {\r... */\n    tag_29:\n      callvalue\n        /* \"--CODEGEN--\":8:17   */\n      dup1\n        /* \"--CODEGEN--\":5:7   */\n      iszero\n      tag_165\n      jumpi\n        /* \"--CODEGEN--\":30:31   */\n      0x0\n        /* \"--CODEGEN--\":27:28   */\n      dup1\n        /* \"--CODEGEN--\":20:32   */\n      revert\n        /* \"--CODEGEN--\":5:7   */\n    tag_165:\n        /* \"Smart Contract/contracts/ddddd.sol\":6687:6939  function givePermissionByMoH(address _address1, address _address2) public returns(bool success) {\r... */\n      pop\n      tag_166\n      0x4\n      dup1\n      calldatasize\n      sub\n      tag_167\n      swap2\n      swap1\n      dup2\n      add\n      swap1\n      jump(tag_153)\n    tag_167:\n      jump(tag_168)\n    tag_166:\n      mload(0x40)\n      tag_169\n      swap2\n      swap1\n      jump(tag_76)\n    tag_169:\n      mload(0x40)\n      dup1\n      swap2\n      sub\n      swap1\n      return\n        /* \"Smart Contract/contracts/ddddd.sol\":6947:7249  function givePermissionToVaccinate(address _address1, address _address2) public returns(bool success) {\r... */\n    tag_30:\n      callvalue\n        /* \"--CODEGEN--\":8:17   */\n      dup1\n        /* \"--CODEGEN--\":5:7   */\n      iszero\n      tag_170\n      jumpi\n        /* \"--CODEGEN--\":30:31   */\n      0x0\n        /* \"--CODEGEN--\":27:28   */\n      dup1\n        /* \"--CODEGEN--\":20:32   */\n      revert\n        /* \"--CODEGEN--\":5:7   */\n    tag_170:\n        /* \"Smart Contract/contracts/ddddd.sol\":6947:7249  function givePermissionToVaccinate(address _address1, address _address2) public returns(bool success) {\r... */\n      pop\n      tag_171\n      0x4\n      dup1\n      calldatasize\n      sub\n      tag_172\n      swap2\n      swap1\n      dup2\n      add\n      swap1\n      jump(tag_153)\n    tag_172:\n      jump(tag_173)\n    tag_171:\n      mload(0x40)\n      tag_174\n      swap2\n      swap1\n      jump(tag_76)\n    tag_174:\n      mload(0x40)\n      dup1\n      swap2\n      sub\n      swap1\n      return\n        /* \"Smart Contract/contracts/ddddd.sol\":9532:9642  function getMoHPermissionCounter() public view returns(uint256) {\r... */\n    tag_31:\n      callvalue\n        /* \"--CODEGEN--\":8:17   */\n      dup1\n        /* \"--CODEGEN--\":5:7   */\n      iszero\n      tag_175\n      jumpi\n        /* \"--CODEGEN--\":30:31   */\n      0x0\n        /* \"--CODEGEN--\":27:28   */\n      dup1\n        /* \"--CODEGEN--\":20:32   */\n      revert\n        /* \"--CODEGEN--\":5:7   */\n    tag_175:\n        /* \"Smart Contract/contracts/ddddd.sol\":9532:9642  function getMoHPermissionCounter() public view returns(uint256) {\r... */\n      pop\n      tag_176\n      jump(tag_177)\n    tag_176:\n      mload(0x40)\n      tag_178\n      swap2\n      swap1\n      jump(tag_43)\n    tag_178:\n      mload(0x40)\n      dup1\n      swap2\n      sub\n      swap1\n      return\n        /* \"Smart Contract/contracts/ddddd.sol\":7257:7530  function revokePermissionToVaccinate(address _address1, address _address2) public returns(bool success) {\r... */\n    tag_32:\n      callvalue\n        /* \"--CODEGEN--\":8:17   */\n      dup1\n        /* \"--CODEGEN--\":5:7   */\n      iszero\n      tag_179\n      jumpi\n        /* \"--CODEGEN--\":30:31   */\n      0x0\n        /* \"--CODEGEN--\":27:28   */\n      dup1\n        /* \"--CODEGEN--\":20:32   */\n      revert\n        /* \"--CODEGEN--\":5:7   */\n    tag_179:\n        /* \"Smart Contract/contracts/ddddd.sol\":7257:7530  function revokePermissionToVaccinate(address _address1, address _address2) public returns(bool success) {\r... */\n      pop\n      tag_180\n      0x4\n      dup1\n      calldatasize\n      sub\n      tag_181\n      swap2\n      swap1\n      dup2\n      add\n      swap1\n      jump(tag_153)\n    tag_181:\n      jump(tag_182)\n    tag_180:\n      mload(0x40)\n      tag_183\n      swap2\n      swap1\n      jump(tag_76)\n    tag_183:\n      mload(0x40)\n      dup1\n      swap2\n      sub\n      swap1\n      return\n        /* \"Smart Contract/contracts/ddddd.sol\":1129:1161  address[] public vaccinationList */\n    tag_33:\n      callvalue\n        /* \"--CODEGEN--\":8:17   */\n      dup1\n        /* \"--CODEGEN--\":5:7   */\n      iszero\n      tag_184\n      jumpi\n        /* \"--CODEGEN--\":30:31   */\n      0x0\n        /* \"--CODEGEN--\":27:28   */\n      dup1\n        /* \"--CODEGEN--\":20:32   */\n      revert\n        /* \"--CODEGEN--\":5:7   */\n    tag_184:\n        /* \"Smart Contract/contracts/ddddd.sol\":1129:1161  address[] public vaccinationList */\n      pop\n      tag_185\n      0x4\n      dup1\n      calldatasize\n      sub\n      tag_186\n      swap2\n      swap1\n      dup2\n      add\n      swap1\n      jump(tag_58)\n    tag_186:\n      jump(tag_187)\n    tag_185:\n      mload(0x40)\n      tag_188\n      swap2\n      swap1\n      jump(tag_61)\n    tag_188:\n      mload(0x40)\n      dup1\n      swap2\n      sub\n      swap1\n      return\n        /* \"Smart Contract/contracts/ddddd.sol\":7934:8019  function getUsers() public view returns(address[]) {\r... */\n    tag_36:\n        /* \"Smart Contract/contracts/ddddd.sol\":7974:7983  address[] */\n      0x60\n        /* \"Smart Contract/contracts/ddddd.sol\":8003:8011  userList */\n      0x1\n        /* \"Smart Contract/contracts/ddddd.sol\":7996:8011  return userList */\n      dup1\n      sload\n      dup1\n      0x20\n      mul\n      0x20\n      add\n      mload(0x40)\n      swap1\n      dup2\n      add\n      0x40\n      mstore\n      dup1\n      swap3\n      swap2\n      swap1\n      dup2\n      dup2\n      mstore\n      0x20\n      add\n      dup3\n      dup1\n      sload\n      dup1\n      iszero\n      tag_190\n      jumpi\n      0x20\n      mul\n      dup3\n      add\n      swap2\n      swap1\n      0x0\n      mstore\n      keccak256(0x0, 0x20)\n      swap1\n    tag_191:\n      dup2\n      0x0\n      swap1\n      sload\n      swap1\n      0x100\n      exp\n      swap1\n      div\n      0xffffffffffffffffffffffffffffffffffffffff\n      and\n      0xffffffffffffffffffffffffffffffffffffffff\n      and\n      dup2\n      mstore\n      0x20\n      add\n      swap1\n      0x1\n      add\n      swap1\n      dup1\n      dup4\n      gt\n      tag_191\n      jumpi\n    tag_190:\n      pop\n      pop\n      pop\n      pop\n      pop\n      swap1\n      pop\n        /* \"Smart Contract/contracts/ddddd.sol\":7934:8019  function getUsers() public view returns(address[]) {\r... */\n      swap1\n      jump\t// out\n        /* \"Smart Contract/contracts/ddddd.sol\":9412:9524  function getUserPermissionCounter() public view returns(uint256) {\r... */\n    tag_41:\n        /* \"Smart Contract/contracts/ddddd.sol\":9468:9475  uint256 */\n      0x0\n        /* \"Smart Contract/contracts/ddddd.sol\":9495:9516  userPermissionCounter */\n      sload(0xf)\n        /* \"Smart Contract/contracts/ddddd.sol\":9488:9516  return userPermissionCounter */\n      swap1\n      pop\n        /* \"Smart Contract/contracts/ddddd.sol\":9412:9524  function getUserPermissionCounter() public view returns(uint256) {\r... */\n      swap1\n      jump\t// out\n        /* \"Smart Contract/contracts/ddddd.sol\":8130:8504  function searchUserformation(address _address) public view returns(string, string, string, string, string, string, string, address) {\r... */\n    tag_48:\n        /* \"Smart Contract/contracts/ddddd.sol\":8197:8203  string */\n      0x60\n        /* \"Smart Contract/contracts/ddddd.sol\":8205:8211  string */\n      dup1\n        /* \"Smart Contract/contracts/ddddd.sol\":8213:8219  string */\n      0x60\n        /* \"Smart Contract/contracts/ddddd.sol\":8221:8227  string */\n      dup1\n        /* \"Smart Contract/contracts/ddddd.sol\":8229:8235  string */\n      0x60\n        /* \"Smart Contract/contracts/ddddd.sol\":8237:8243  string */\n      dup1\n        /* \"Smart Contract/contracts/ddddd.sol\":8245:8251  string */\n      0x60\n        /* \"Smart Contract/contracts/ddddd.sol\":8253:8260  address */\n      0x0\n        /* \"Smart Contract/contracts/ddddd.sol\":8325:8330  var u */\n      dup1\n        /* \"Smart Contract/contracts/ddddd.sol\":8281:8291  isApproved */\n      0x7\n        /* \"Smart Contract/contracts/ddddd.sol\":8281:8301  isApproved[_address] */\n      0x0\n        /* \"Smart Contract/contracts/ddddd.sol\":8292:8300  _address */\n      dup12\n        /* \"Smart Contract/contracts/ddddd.sol\":8281:8301  isApproved[_address] */\n      0xffffffffffffffffffffffffffffffffffffffff\n      and\n      0xffffffffffffffffffffffffffffffffffffffff\n      and\n      dup2\n      mstore\n      0x20\n      add\n      swap1\n      dup2\n      mstore\n      0x20\n      add\n      0x0\n      keccak256\n        /* \"Smart Contract/contracts/ddddd.sol\":8281:8313  isApproved[_address][msg.sender] */\n      0x0\n        /* \"Smart Contract/contracts/ddddd.sol\":8302:8312  msg.sender */\n      caller\n        /* \"Smart Contract/contracts/ddddd.sol\":8281:8313  isApproved[_address][msg.sender] */\n      0xffffffffffffffffffffffffffffffffffffffff\n      and\n      0xffffffffffffffffffffffffffffffffffffffff\n      and\n      dup2\n      mstore\n      0x20\n      add\n      swap1\n      dup2\n      mstore\n      0x20\n      add\n      0x0\n      keccak256\n      0x0\n      swap1\n      sload\n      swap1\n      0x100\n      exp\n      swap1\n      div\n      0xff\n      and\n        /* \"Smart Contract/contracts/ddddd.sol\":8273:8314  require(isApproved[_address][msg.sender]) */\n      iszero\n      iszero\n      tag_194\n      jumpi\n      0x0\n      dup1\n      revert\n    tag_194:\n        /* \"Smart Contract/contracts/ddddd.sol\":8333:8337  user */\n      0x4\n        /* \"Smart Contract/contracts/ddddd.sol\":8333:8347  user[_address] */\n      0x0\n        /* \"Smart Contract/contracts/ddddd.sol\":8338:8346  _address */\n      dup12\n        /* \"Smart Contract/contracts/ddddd.sol\":8333:8347  user[_address] */\n      0xffffffffffffffffffffffffffffffffffffffff\n      and\n      0xffffffffffffffffffffffffffffffffffffffff\n      and\n      dup2\n      mstore\n      0x20\n      add\n      swap1\n      dup2\n      mstore\n      0x20\n      add\n      0x0\n      keccak256\n        /* \"Smart Contract/contracts/ddddd.sol\":8325:8347  var u = user[_address] */\n      swap1\n      pop\n        /* \"Smart Contract/contracts/ddddd.sol\":8366:8367  u */\n      dup1\n        /* \"Smart Contract/contracts/ddddd.sol\":8366:8373  u.uaeId */\n      0x0\n      add\n        /* \"Smart Contract/contracts/ddddd.sol\":8375:8376  u */\n      dup2\n        /* \"Smart Contract/contracts/ddddd.sol\":8375:8381  u.name */\n      0x1\n      add\n        /* \"Smart Contract/contracts/ddddd.sol\":8383:8384  u */\n      dup3\n        /* \"Smart Contract/contracts/ddddd.sol\":8383:8390  u.email */\n      0x6\n      add\n        /* \"Smart Contract/contracts/ddddd.sol\":8392:8393  u */\n      dup4\n        /* \"Smart Contract/contracts/ddddd.sol\":8392:8399  u.phone */\n      0x2\n      add\n        /* \"Smart Contract/contracts/ddddd.sol\":8401:8402  u */\n      dup5\n        /* \"Smart Contract/contracts/ddddd.sol\":8401:8409  u.gender */\n      0x3\n      add\n        /* \"Smart Contract/contracts/ddddd.sol\":8411:8412  u */\n      dup6\n        /* \"Smart Contract/contracts/ddddd.sol\":8411:8416  u.dob */\n      0x4\n      add\n        /* \"Smart Contract/contracts/ddddd.sol\":8418:8419  u */\n      dup7\n        /* \"Smart Contract/contracts/ddddd.sol\":8418:8424  u.addr */\n      0x5\n      add\n        /* \"Smart Contract/contracts/ddddd.sol\":8426:8427  u */\n      dup8\n        /* \"Smart Contract/contracts/ddddd.sol\":8426:8436  u.eAddress */\n      0x9\n      add\n      0x0\n      swap1\n      sload\n      swap1\n      0x100\n      exp\n      swap1\n      div\n      0xffffffffffffffffffffffffffffffffffffffff\n      and\n        /* \"Smart Contract/contracts/ddddd.sol\":8358:8437  return (u.uaeId, u.name, u.email, u.phone, u.gender, u.dob, u.addr, u.eAddress) */\n      dup8\n      dup1\n      sload\n      0x1\n      dup2\n      0x1\n      and\n      iszero\n      0x100\n      mul\n      sub\n      and\n      0x2\n      swap1\n      div\n      dup1\n      0x1f\n      add\n      0x20\n      dup1\n      swap2\n      div\n      mul\n      0x20\n      add\n      mload(0x40)\n      swap1\n      dup2\n      add\n      0x40\n      mstore\n      dup1\n      swap3\n      swap2\n      swap1\n      dup2\n      dup2\n      mstore\n      0x20\n      add\n      dup3\n      dup1\n      sload\n      0x1\n      dup2\n      0x1\n      and\n      iszero\n      0x100\n      mul\n      sub\n      and\n      0x2\n      swap1\n      div\n      dup1\n      iszero\n      tag_195\n      jumpi\n      dup1\n      0x1f\n      lt\n      tag_196\n      jumpi\n      0x100\n      dup1\n      dup4\n      sload\n      div\n      mul\n      dup4\n      mstore\n      swap2\n      0x20\n      add\n      swap2\n      jump(tag_195)\n    tag_196:\n      dup3\n      add\n      swap2\n      swap1\n      0x0\n      mstore\n      keccak256(0x0, 0x20)\n      swap1\n    tag_197:\n      dup2\n      sload\n      dup2\n      mstore\n      swap1\n      0x1\n      add\n      swap1\n      0x20\n      add\n      dup1\n      dup4\n      gt\n      tag_197\n      jumpi\n      dup3\n      swap1\n      sub\n      0x1f\n      and\n      dup3\n      add\n      swap2\n    tag_195:\n      pop\n      pop\n      pop\n      pop\n      pop\n      swap8\n      pop\n      dup7\n      dup1\n      sload\n      0x1\n      dup2\n      0x1\n      and\n      iszero\n      0x100\n      mul\n      sub\n      and\n      0x2\n      swap1\n      div\n      dup1\n      0x1f\n      add\n      0x20\n      dup1\n      swap2\n      div\n      mul\n      0x20\n      add\n      mload(0x40)\n      swap1\n      dup2\n      add\n      0x40\n      mstore\n      dup1\n      swap3\n      swap2\n      swap1\n      dup2\n      dup2\n      mstore\n      0x20\n      add\n      dup3\n      dup1\n      sload\n      0x1\n      dup2\n      0x1\n      and\n      iszero\n      0x100\n      mul\n      sub\n      and\n      0x2\n      swap1\n      div\n      dup1\n      iszero\n      tag_198\n      jumpi\n      dup1\n      0x1f\n      lt\n      tag_199\n      jumpi\n      0x100\n      dup1\n      dup4\n      sload\n      div\n      mul\n      dup4\n      mstore\n      swap2\n      0x20\n      add\n      swap2\n      jump(tag_198)\n    tag_199:\n      dup3\n      add\n      swap2\n      swap1\n      0x0\n      mstore\n      keccak256(0x0, 0x20)\n      swap1\n    tag_200:\n      dup2\n      sload\n      dup2\n      mstore\n      swap1\n      0x1\n      add\n      swap1\n      0x20\n      add\n      dup1\n      dup4\n      gt\n      tag_200\n      jumpi\n      dup3\n      swap1\n      sub\n      0x1f\n      and\n      dup3\n      add\n      swap2\n    tag_198:\n      pop\n      pop\n      pop\n      pop\n      pop\n      swap7\n      pop\n      dup6\n      dup1\n      sload\n      0x1\n      dup2\n      0x1\n      and\n      iszero\n      0x100\n      mul\n      sub\n      and\n      0x2\n      swap1\n      div\n      dup1\n      0x1f\n      add\n      0x20\n      dup1\n      swap2\n      div\n      mul\n      0x20\n      add\n      mload(0x40)\n      swap1\n      dup2\n      add\n      0x40\n      mstore\n      dup1\n      swap3\n      swap2\n      swap1\n      dup2\n      dup2\n      mstore\n      0x20\n      add\n      dup3\n      dup1\n      sload\n      0x1\n      dup2\n      0x1\n      and\n      iszero\n      0x100\n      mul\n      sub\n      and\n      0x2\n      swap1\n      div\n      dup1\n      iszero\n      tag_201\n      jumpi\n      dup1\n      0x1f\n      lt\n      tag_202\n      jumpi\n      0x100\n      dup1\n      dup4\n      sload\n      div\n      mul\n      dup4\n      mstore\n      swap2\n      0x20\n      add\n      swap2\n      jump(tag_201)\n    tag_202:\n      dup3\n      add\n      swap2\n      swap1\n      0x0\n      mstore\n      keccak256(0x0, 0x20)\n      swap1\n    tag_203:\n      dup2\n      sload\n      dup2\n      mstore\n      swap1\n      0x1\n      add\n      swap1\n      0x20\n      add\n      dup1\n      dup4\n      gt\n      tag_203\n      jumpi\n      dup3\n      swap1\n      sub\n      0x1f\n      and\n      dup3\n      add\n      swap2\n    tag_201:\n      pop\n      pop\n      pop\n      pop\n      pop\n      swap6\n      pop\n      dup5\n      dup1\n      sload\n      0x1\n      dup2\n      0x1\n      and\n      iszero\n      0x100\n      mul\n      sub\n      and\n      0x2\n      swap1\n      div\n      dup1\n      0x1f\n      add\n      0x20\n      dup1\n      swap2\n      div\n      mul\n      0x20\n      add\n      mload(0x40)\n      swap1\n      dup2\n      add\n      0x40\n      mstore\n      dup1\n      swap3\n      swap2\n      swap1\n      dup2\n      dup2\n      mstore\n      0x20\n      add\n      dup3\n      dup1\n      sload\n      0x1\n      dup2\n      0x1\n      and\n      iszero\n      0x100\n      mul\n      sub\n      and\n      0x2\n      swap1\n      div\n      dup1\n      iszero\n      tag_204\n      jumpi\n      dup1\n      0x1f\n      lt\n      tag_205\n      jumpi\n      0x100\n      dup1\n      dup4\n      sload\n      div\n      mul\n      dup4\n      mstore\n      swap2\n      0x20\n      add\n      swap2\n      jump(tag_204)\n    tag_205:\n      dup3\n      add\n      swap2\n      swap1\n      0x0\n      mstore\n      keccak256(0x0, 0x20)\n      swap1\n    tag_206:\n      dup2\n      sload\n      dup2\n      mstore\n      swap1\n      0x1\n      add\n      swap1\n      0x20\n      add\n      dup1\n      dup4\n      gt\n      tag_206\n      jumpi\n      dup3\n      swap1\n      sub\n      0x1f\n      and\n      dup3\n      add\n      swap2\n    tag_204:\n      pop\n      pop\n      pop\n      pop\n      pop\n      swap5\n      pop\n      dup4\n      dup1\n      sload\n      0x1\n      dup2\n      0x1\n      and\n      iszero\n      0x100\n      mul\n      sub\n      and\n      0x2\n      swap1\n      div\n      dup1\n      0x1f\n      add\n      0x20\n      dup1\n      swap2\n      div\n      mul\n      0x20\n      add\n      mload(0x40)\n      swap1\n      dup2\n      add\n      0x40\n      mstore\n      dup1\n      swap3\n      swap2\n      swap1\n      dup2\n      dup2\n      mstore\n      0x20\n      add\n      dup3\n      dup1\n      sload\n      0x1\n      dup2\n      0x1\n      and\n      iszero\n      0x100\n      mul\n      sub\n      and\n      0x2\n      swap1\n      div\n      dup1\n      iszero\n      tag_207\n      jumpi\n      dup1\n      0x1f\n      lt\n      tag_208\n      jumpi\n      0x100\n      dup1\n      dup4\n      sload\n      div\n      mul\n      dup4\n      mstore\n      swap2\n      0x20\n      add\n      swap2\n      jump(tag_207)\n    tag_208:\n      dup3\n      add\n      swap2\n      swap1\n      0x0\n      mstore\n      keccak256(0x0, 0x20)\n      swap1\n    tag_209:\n      dup2\n      sload\n      dup2\n      mstore\n      swap1\n      0x1\n      add\n      swap1\n      0x20\n      add\n      dup1\n      dup4\n      gt\n      tag_209\n      jumpi\n      dup3\n      swap1\n      sub\n      0x1f\n      and\n      dup3\n      add\n      swap2\n    tag_207:\n      pop\n      pop\n      pop\n      pop\n      pop\n      swap4\n      pop\n      dup3\n      dup1\n      sload\n      0x1\n      dup2\n      0x1\n      and\n      iszero\n      0x100\n      mul\n      sub\n      and\n      0x2\n      swap1\n      div\n      dup1\n      0x1f\n      add\n      0x20\n      dup1\n      swap2\n      div\n      mul\n      0x20\n      add\n      mload(0x40)\n      swap1\n      dup2\n      add\n      0x40\n      mstore\n      dup1\n      swap3\n      swap2\n      swap1\n      dup2\n      dup2\n      mstore\n      0x20\n      add\n      dup3\n      dup1\n      sload\n      0x1\n      dup2\n      0x1\n      and\n      iszero\n      0x100\n      mul\n      sub\n      and\n      0x2\n      swap1\n      div\n      dup1\n      iszero\n      tag_210\n      jumpi\n      dup1\n      0x1f\n      lt\n      tag_211\n      jumpi\n      0x100\n      dup1\n      dup4\n      sload\n      div\n      mul\n      dup4\n      mstore\n      swap2\n      0x20\n      add\n      swap2\n      jump(tag_210)\n    tag_211:\n      dup3\n      add\n      swap2\n      swap1\n      0x0\n      mstore\n      keccak256(0x0, 0x20)\n      swap1\n    tag_212:\n      dup2\n      sload\n      dup2\n      mstore\n      swap1\n      0x1\n      add\n      swap1\n      0x20\n      add\n      dup1\n      dup4\n      gt\n      tag_212\n      jumpi\n      dup3\n      swap1\n      sub\n      0x1f\n      and\n      dup3\n      add\n      swap2\n    tag_210:\n      pop\n      pop\n      pop\n      pop\n      pop\n      swap3\n      pop\n      dup2\n      dup1\n      sload\n      0x1\n      dup2\n      0x1\n      and\n      iszero\n      0x100\n      mul\n      sub\n      and\n      0x2\n      swap1\n      div\n      dup1\n      0x1f\n      add\n      0x20\n      dup1\n      swap2\n      div\n      mul\n      0x20\n      add\n      mload(0x40)\n      swap1\n      dup2\n      add\n      0x40\n      mstore\n      dup1\n      swap3\n      swap2\n      swap1\n      dup2\n      dup2\n      mstore\n      0x20\n      add\n      dup3\n      dup1\n      sload\n      0x1\n      dup2\n      0x1\n      and\n      iszero\n      0x100\n      mul\n      sub\n      and\n      0x2\n      swap1\n      div\n      dup1\n      iszero\n      tag_213\n      jumpi\n      dup1\n      0x1f\n      lt\n      tag_214\n      jumpi\n      0x100\n      dup1\n      dup4\n      sload\n      div\n      mul\n      dup4\n      mstore\n      swap2\n      0x20\n      add\n      swap2\n      jump(tag_213)\n    tag_214:\n      dup3\n      add\n      swap2\n      swap1\n      0x0\n      mstore\n      keccak256(0x0, 0x20)\n      swap1\n    tag_215:\n      dup2\n      sload\n      dup2\n      mstore\n      swap1\n      0x1\n      add\n      swap1\n      0x20\n      add\n      dup1\n      dup4\n      gt\n      tag_215\n      jumpi\n      dup3\n      swap1\n      sub\n      0x1f\n      and\n      dup3\n      add\n      swap2\n    tag_213:\n      pop\n      pop\n      pop\n      pop\n      pop\n      swap2\n      pop\n      swap9\n      pop\n      swap9\n      pop\n      swap9\n      pop\n      swap9\n      pop\n      swap9\n      pop\n      swap9\n      pop\n      swap9\n      pop\n      swap9\n      pop\n        /* \"Smart Contract/contracts/ddddd.sol\":8130:8504  function searchUserformation(address _address) public view returns(string, string, string, string, string, string, string, address) {\r... */\n      pop\n      swap2\n      swap4\n      swap6\n      swap8\n      pop\n      swap2\n      swap4\n      swap6\n      swap8\n      jump\t// out\n        /* \"Smart Contract/contracts/ddddd.sol\":1702:1730  uint256 public userCount = 0 */\n    tag_53:\n      sload(0xc)\n      dup2\n      jump\t// out\n        /* \"Smart Contract/contracts/ddddd.sol\":1095:1122  address[] public doctorList */\n    tag_59:\n      0x2\n      dup2\n      dup2\n      sload\n      dup2\n      lt\n      iszero\n      iszero\n      tag_216\n      jumpi\n      invalid\n    tag_216:\n      swap1\n      0x0\n      mstore\n      keccak256(0x0, 0x20)\n      add\n      0x0\n      swap2\n      pop\n      sload\n      swap1\n      0x100\n      exp\n      swap1\n      div\n      0xffffffffffffffffffffffffffffffffffffffff\n      and\n      dup2\n      jump\t// out\n        /* \"Smart Contract/contracts/ddddd.sol\":4769:5294  function editDoctor(address _doctor, string _uaeId, string _name, string _phone, string _gender, string _email, string _qualification, string _major) public {\r... */\n    tag_66:\n        /* \"Smart Contract/contracts/ddddd.sol\":5017:5022  var d */\n      0x0\n        /* \"Smart Contract/contracts/ddddd.sol\":4959:4968  mohAdress */\n      0x11\n      0x0\n      swap1\n      sload\n      swap1\n      0x100\n      exp\n      swap1\n      div\n      0xffffffffffffffffffffffffffffffffffffffff\n      and\n        /* \"Smart Contract/contracts/ddddd.sol\":4945:4968  msg.sender == mohAdress */\n      0xffffffffffffffffffffffffffffffffffffffff\n      and\n        /* \"Smart Contract/contracts/ddddd.sol\":4945:4955  msg.sender */\n      caller\n        /* \"Smart Contract/contracts/ddddd.sol\":4945:4968  msg.sender == mohAdress */\n      0xffffffffffffffffffffffffffffffffffffffff\n      and\n      eq\n        /* \"Smart Contract/contracts/ddddd.sol\":4937:4969  require(msg.sender == mohAdress) */\n      iszero\n      iszero\n      tag_219\n      jumpi\n      0x0\n      dup1\n      revert\n    tag_219:\n        /* \"Smart Contract/contracts/ddddd.sol\":4988:4996  isDoctor */\n      0xa\n        /* \"Smart Contract/contracts/ddddd.sol\":4988:5005  isDoctor[_doctor] */\n      0x0\n        /* \"Smart Contract/contracts/ddddd.sol\":4997:5004  _doctor */\n      dup11\n        /* \"Smart Contract/contracts/ddddd.sol\":4988:5005  isDoctor[_doctor] */\n      0xffffffffffffffffffffffffffffffffffffffff\n      and\n      0xffffffffffffffffffffffffffffffffffffffff\n      and\n      dup2\n      mstore\n      0x20\n      add\n      swap1\n      dup2\n      mstore\n      0x20\n      add\n      0x0\n      keccak256\n      0x0\n      swap1\n      sload\n      swap1\n      0x100\n      exp\n      swap1\n      div\n      0xff\n      and\n        /* \"Smart Contract/contracts/ddddd.sol\":4980:5006  require(isDoctor[_doctor]) */\n      iszero\n      iszero\n      tag_220\n      jumpi\n      0x0\n      dup1\n      revert\n    tag_220:\n        /* \"Smart Contract/contracts/ddddd.sol\":5025:5031  doctor */\n      0x5\n        /* \"Smart Contract/contracts/ddddd.sol\":5025:5040  doctor[_doctor] */\n      0x0\n        /* \"Smart Contract/contracts/ddddd.sol\":5032:5039  _doctor */\n      dup11\n        /* \"Smart Contract/contracts/ddddd.sol\":5025:5040  doctor[_doctor] */\n      0xffffffffffffffffffffffffffffffffffffffff\n      and\n      0xffffffffffffffffffffffffffffffffffffffff\n      and\n      dup2\n      mstore\n      0x20\n      add\n      swap1\n      dup2\n      mstore\n      0x20\n      add\n      0x0\n      keccak256\n        /* \"Smart Contract/contracts/ddddd.sol\":5017:5040  var d = doctor[_doctor] */\n      swap1\n      pop\n        /* \"Smart Contract/contracts/ddddd.sol\":5071:5077  _uaeId */\n      dup8\n        /* \"Smart Contract/contracts/ddddd.sol\":5061:5062  d */\n      dup2\n        /* \"Smart Contract/contracts/ddddd.sol\":5061:5068  d.uaeId */\n      0x0\n      add\n        /* \"Smart Contract/contracts/ddddd.sol\":5061:5077  d.uaeId = _uaeId */\n      swap1\n      dup1\n      mload\n      swap1\n      0x20\n      add\n      swap1\n      tag_221\n      swap3\n      swap2\n      swap1\n      jump\t// in(tag_222)\n    tag_221:\n      pop\n        /* \"Smart Contract/contracts/ddddd.sol\":5097:5102  _name */\n      dup7\n        /* \"Smart Contract/contracts/ddddd.sol\":5088:5089  d */\n      dup2\n        /* \"Smart Contract/contracts/ddddd.sol\":5088:5094  d.name */\n      0x1\n      add\n        /* \"Smart Contract/contracts/ddddd.sol\":5088:5102  d.name = _name */\n      swap1\n      dup1\n      mload\n      swap1\n      0x20\n      add\n      swap1\n      tag_223\n      swap3\n      swap2\n      swap1\n      jump\t// in(tag_222)\n    tag_223:\n      pop\n        /* \"Smart Contract/contracts/ddddd.sol\":5123:5129  _phone */\n      dup6\n        /* \"Smart Contract/contracts/ddddd.sol\":5113:5114  d */\n      dup2\n        /* \"Smart Contract/contracts/ddddd.sol\":5113:5120  d.phone */\n      0x2\n      add\n        /* \"Smart Contract/contracts/ddddd.sol\":5113:5129  d.phone = _phone */\n      swap1\n      dup1\n      mload\n      swap1\n      0x20\n      add\n      swap1\n      tag_224\n      swap3\n      swap2\n      swap1\n      jump\t// in(tag_222)\n    tag_224:\n      pop\n        /* \"Smart Contract/contracts/ddddd.sol\":5151:5158  _gender */\n      dup5\n        /* \"Smart Contract/contracts/ddddd.sol\":5140:5141  d */\n      dup2\n        /* \"Smart Contract/contracts/ddddd.sol\":5140:5148  d.gender */\n      0x3\n      add\n        /* \"Smart Contract/contracts/ddddd.sol\":5140:5158  d.gender = _gender */\n      swap1\n      dup1\n      mload\n      swap1\n      0x20\n      add\n      swap1\n      tag_225\n      swap3\n      swap2\n      swap1\n      jump\t// in(tag_222)\n    tag_225:\n      pop\n        /* \"Smart Contract/contracts/ddddd.sol\":5179:5185  _email */\n      dup4\n        /* \"Smart Contract/contracts/ddddd.sol\":5169:5170  d */\n      dup2\n        /* \"Smart Contract/contracts/ddddd.sol\":5169:5176  d.email */\n      0x5\n      add\n        /* \"Smart Contract/contracts/ddddd.sol\":5169:5185  d.email = _email */\n      swap1\n      dup1\n      mload\n      swap1\n      0x20\n      add\n      swap1\n      tag_226\n      swap3\n      swap2\n      swap1\n      jump\t// in(tag_222)\n    tag_226:\n      pop\n        /* \"Smart Contract/contracts/ddddd.sol\":5214:5228  _qualification */\n      dup3\n        /* \"Smart Contract/contracts/ddddd.sol\":5196:5197  d */\n      dup2\n        /* \"Smart Contract/contracts/ddddd.sol\":5196:5211  d.qualification */\n      0x6\n      add\n        /* \"Smart Contract/contracts/ddddd.sol\":5196:5228  d.qualification = _qualification */\n      swap1\n      dup1\n      mload\n      swap1\n      0x20\n      add\n      swap1\n      tag_227\n      swap3\n      swap2\n      swap1\n      jump\t// in(tag_222)\n    tag_227:\n      pop\n        /* \"Smart Contract/contracts/ddddd.sol\":5249:5255  _major */\n      dup2\n        /* \"Smart Contract/contracts/ddddd.sol\":5239:5240  d */\n      dup2\n        /* \"Smart Contract/contracts/ddddd.sol\":5239:5246  d.major */\n      0x7\n      add\n        /* \"Smart Contract/contracts/ddddd.sol\":5239:5255  d.major = _major */\n      swap1\n      dup1\n      mload\n      swap1\n      0x20\n      add\n      swap1\n      tag_228\n      swap3\n      swap2\n      swap1\n      jump\t// in(tag_222)\n    tag_228:\n      pop\n        /* \"Smart Contract/contracts/ddddd.sol\":5279:5286  _doctor */\n      dup9\n        /* \"Smart Contract/contracts/ddddd.sol\":5266:5267  d */\n      dup2\n        /* \"Smart Contract/contracts/ddddd.sol\":5266:5276  d.eAddress */\n      0x8\n      add\n      0x0\n        /* \"Smart Contract/contracts/ddddd.sol\":5266:5286  d.eAddress = _doctor */\n      0x100\n      exp\n      dup2\n      sload\n      dup2\n      0xffffffffffffffffffffffffffffffffffffffff\n      mul\n      not\n      and\n      swap1\n      dup4\n      0xffffffffffffffffffffffffffffffffffffffff\n      and\n      mul\n      or\n      swap1\n      sstore\n      pop\n        /* \"Smart Contract/contracts/ddddd.sol\":4769:5294  function editDoctor(address _doctor, string _uaeId, string _name, string _phone, string _gender, string _email, string _qualification, string _major) public {\r... */\n      pop\n      pop\n      pop\n      pop\n      pop\n      pop\n      pop\n      pop\n      pop\n      jump\t// out\n        /* \"Smart Contract/contracts/ddddd.sol\":3994:4761  function doctorRegistration(address _doctor, string _uaeId, string _name, string _phone, string _gender, string _email, string _qualification, string _major) public {\r... */\n    tag_70:\n        /* \"Smart Contract/contracts/ddddd.sol\":4251:4256  var d */\n      0x0\n        /* \"Smart Contract/contracts/ddddd.sol\":4192:4201  mohAdress */\n      0x11\n      0x0\n      swap1\n      sload\n      swap1\n      0x100\n      exp\n      swap1\n      div\n      0xffffffffffffffffffffffffffffffffffffffff\n      and\n        /* \"Smart Contract/contracts/ddddd.sol\":4178:4201  msg.sender == mohAdress */\n      0xffffffffffffffffffffffffffffffffffffffff\n      and\n        /* \"Smart Contract/contracts/ddddd.sol\":4178:4188  msg.sender */\n      caller\n        /* \"Smart Contract/contracts/ddddd.sol\":4178:4201  msg.sender == mohAdress */\n      0xffffffffffffffffffffffffffffffffffffffff\n      and\n      eq\n        /* \"Smart Contract/contracts/ddddd.sol\":4170:4202  require(msg.sender == mohAdress) */\n      iszero\n      iszero\n      tag_230\n      jumpi\n      0x0\n      dup1\n      revert\n    tag_230:\n        /* \"Smart Contract/contracts/ddddd.sol\":4222:4230  isDoctor */\n      0xa\n        /* \"Smart Contract/contracts/ddddd.sol\":4222:4239  isDoctor[_doctor] */\n      0x0\n        /* \"Smart Contract/contracts/ddddd.sol\":4231:4238  _doctor */\n      dup11\n        /* \"Smart Contract/contracts/ddddd.sol\":4222:4239  isDoctor[_doctor] */\n      0xffffffffffffffffffffffffffffffffffffffff\n      and\n      0xffffffffffffffffffffffffffffffffffffffff\n      and\n      dup2\n      mstore\n      0x20\n      add\n      swap1\n      dup2\n      mstore\n      0x20\n      add\n      0x0\n      keccak256\n      0x0\n      swap1\n      sload\n      swap1\n      0x100\n      exp\n      swap1\n      div\n      0xff\n      and\n        /* \"Smart Contract/contracts/ddddd.sol\":4221:4239  !isDoctor[_doctor] */\n      iszero\n        /* \"Smart Contract/contracts/ddddd.sol\":4213:4240  require(!isDoctor[_doctor]) */\n      iszero\n      iszero\n      tag_231\n      jumpi\n      0x0\n      dup1\n      revert\n    tag_231:\n        /* \"Smart Contract/contracts/ddddd.sol\":4259:4265  doctor */\n      0x5\n        /* \"Smart Contract/contracts/ddddd.sol\":4259:4274  doctor[_doctor] */\n      0x0\n        /* \"Smart Contract/contracts/ddddd.sol\":4266:4273  _doctor */\n      dup11\n        /* \"Smart Contract/contracts/ddddd.sol\":4259:4274  doctor[_doctor] */\n      0xffffffffffffffffffffffffffffffffffffffff\n      and\n      0xffffffffffffffffffffffffffffffffffffffff\n      and\n      dup2\n      mstore\n      0x20\n      add\n      swap1\n      dup2\n      mstore\n      0x20\n      add\n      0x0\n      keccak256\n        /* \"Smart Contract/contracts/ddddd.sol\":4251:4274  var d = doctor[_doctor] */\n      swap1\n      pop\n        /* \"Smart Contract/contracts/ddddd.sol\":4305:4311  _uaeId */\n      dup8\n        /* \"Smart Contract/contracts/ddddd.sol\":4295:4296  d */\n      dup2\n        /* \"Smart Contract/contracts/ddddd.sol\":4295:4302  d.uaeId */\n      0x0\n      add\n        /* \"Smart Contract/contracts/ddddd.sol\":4295:4311  d.uaeId = _uaeId */\n      swap1\n      dup1\n      mload\n      swap1\n      0x20\n      add\n      swap1\n      tag_232\n      swap3\n      swap2\n      swap1\n      jump\t// in(tag_222)\n    tag_232:\n      pop\n        /* \"Smart Contract/contracts/ddddd.sol\":4331:4336  _name */\n      dup7\n        /* \"Smart Contract/contracts/ddddd.sol\":4322:4323  d */\n      dup2\n        /* \"Smart Contract/contracts/ddddd.sol\":4322:4328  d.name */\n      0x1\n      add\n        /* \"Smart Contract/contracts/ddddd.sol\":4322:4336  d.name = _name */\n      swap1\n      dup1\n      mload\n      swap1\n      0x20\n      add\n      swap1\n      tag_233\n      swap3\n      swap2\n      swap1\n      jump\t// in(tag_222)\n    tag_233:\n      pop\n        /* \"Smart Contract/contracts/ddddd.sol\":4357:4363  _phone */\n      dup6\n        /* \"Smart Contract/contracts/ddddd.sol\":4347:4348  d */\n      dup2\n        /* \"Smart Contract/contracts/ddddd.sol\":4347:4354  d.phone */\n      0x2\n      add\n        /* \"Smart Contract/contracts/ddddd.sol\":4347:4363  d.phone = _phone */\n      swap1\n      dup1\n      mload\n      swap1\n      0x20\n      add\n      swap1\n      tag_234\n      swap3\n      swap2\n      swap1\n      jump\t// in(tag_222)\n    tag_234:\n      pop\n        /* \"Smart Contract/contracts/ddddd.sol\":4385:4392  _gender */\n      dup5\n        /* \"Smart Contract/contracts/ddddd.sol\":4374:4375  d */\n      dup2\n        /* \"Smart Contract/contracts/ddddd.sol\":4374:4382  d.gender */\n      0x3\n      add\n        /* \"Smart Contract/contracts/ddddd.sol\":4374:4392  d.gender = _gender */\n      swap1\n      dup1\n      mload\n      swap1\n      0x20\n      add\n      swap1\n      tag_235\n      swap3\n      swap2\n      swap1\n      jump\t// in(tag_222)\n    tag_235:\n      pop\n        /* \"Smart Contract/contracts/ddddd.sol\":4413:4419  _email */\n      dup4\n        /* \"Smart Contract/contracts/ddddd.sol\":4403:4404  d */\n      dup2\n        /* \"Smart Contract/contracts/ddddd.sol\":4403:4410  d.email */\n      0x5\n      add\n        /* \"Smart Contract/contracts/ddddd.sol\":4403:4419  d.email = _email */\n      swap1\n      dup1\n      mload\n      swap1\n      0x20\n      add\n      swap1\n      tag_236\n      swap3\n      swap2\n      swap1\n      jump\t// in(tag_222)\n    tag_236:\n      pop\n        /* \"Smart Contract/contracts/ddddd.sol\":4448:4462  _qualification */\n      dup3\n        /* \"Smart Contract/contracts/ddddd.sol\":4430:4431  d */\n      dup2\n        /* \"Smart Contract/contracts/ddddd.sol\":4430:4445  d.qualification */\n      0x6\n      add\n        /* \"Smart Contract/contracts/ddddd.sol\":4430:4462  d.qualification = _qualification */\n      swap1\n      dup1\n      mload\n      swap1\n      0x20\n      add\n      swap1\n      tag_237\n      swap3\n      swap2\n      swap1\n      jump\t// in(tag_222)\n    tag_237:\n      pop\n        /* \"Smart Contract/contracts/ddddd.sol\":4483:4489  _major */\n      dup2\n        /* \"Smart Contract/contracts/ddddd.sol\":4473:4474  d */\n      dup2\n        /* \"Smart Contract/contracts/ddddd.sol\":4473:4480  d.major */\n      0x7\n      add\n        /* \"Smart Contract/contracts/ddddd.sol\":4473:4489  d.major = _major */\n      swap1\n      dup1\n      mload\n      swap1\n      0x20\n      add\n      swap1\n      tag_238\n      swap3\n      swap2\n      swap1\n      jump\t// in(tag_222)\n    tag_238:\n      pop\n        /* \"Smart Contract/contracts/ddddd.sol\":4513:4520  _doctor */\n      dup9\n        /* \"Smart Contract/contracts/ddddd.sol\":4500:4501  d */\n      dup2\n        /* \"Smart Contract/contracts/ddddd.sol\":4500:4510  d.eAddress */\n      0x8\n      add\n      0x0\n        /* \"Smart Contract/contracts/ddddd.sol\":4500:4520  d.eAddress = _doctor */\n      0x100\n      exp\n      dup2\n      sload\n      dup2\n      0xffffffffffffffffffffffffffffffffffffffff\n      mul\n      not\n      and\n      swap1\n      dup4\n      0xffffffffffffffffffffffffffffffffffffffff\n      and\n      mul\n      or\n      swap1\n      sstore\n      pop\n        /* \"Smart Contract/contracts/ddddd.sol\":4540:4555  block.timestamp */\n      timestamp\n        /* \"Smart Contract/contracts/ddddd.sol\":4531:4532  d */\n      dup2\n        /* \"Smart Contract/contracts/ddddd.sol\":4531:4537  d.date */\n      0x9\n      add\n        /* \"Smart Contract/contracts/ddddd.sol\":4531:4555  d.date = block.timestamp */\n      dup2\n      swap1\n      sstore\n      pop\n        /* \"Smart Contract/contracts/ddddd.sol\":4576:4586  doctorList */\n      0x2\n        /* \"Smart Contract/contracts/ddddd.sol\":4592:4599  _doctor */\n      dup10\n        /* \"Smart Contract/contracts/ddddd.sol\":4576:4600  doctorList.push(_doctor) */\n      swap1\n      dup1\n        /* \"--CODEGEN--\":39:40   */\n      0x1\n        /* \"--CODEGEN--\":33:36   */\n      dup2\n        /* \"--CODEGEN--\":27:37   */\n      sload\n        /* \"--CODEGEN--\":23:41   */\n      add\n        /* \"--CODEGEN--\":57:67   */\n      dup1\n        /* \"--CODEGEN--\":52:55   */\n      dup3\n        /* \"--CODEGEN--\":45:68   */\n      sstore\n        /* \"--CODEGEN--\":79:89   */\n      dup1\n        /* \"--CODEGEN--\":72:89   */\n      swap2\n      pop\n        /* \"--CODEGEN--\":0:93   */\n      pop\n        /* \"Smart Contract/contracts/ddddd.sol\":4576:4600  doctorList.push(_doctor) */\n      swap1\n      0x1\n      dup3\n      sub\n      swap1\n      0x0\n      mstore\n      keccak256(0x0, 0x20)\n      add\n      0x0\n      swap1\n      swap2\n      swap3\n      swap1\n      swap2\n      swap1\n      swap2\n      0x100\n      exp\n      dup2\n      sload\n      dup2\n      0xffffffffffffffffffffffffffffffffffffffff\n      mul\n      not\n      and\n      swap1\n      dup4\n      0xffffffffffffffffffffffffffffffffffffffff\n      and\n      mul\n      or\n      swap1\n      sstore\n      pop\n      pop\n        /* \"Smart Contract/contracts/ddddd.sol\":4631:4635  true */\n      0x1\n        /* \"Smart Contract/contracts/ddddd.sol\":4611:4619  isDoctor */\n      0xa\n        /* \"Smart Contract/contracts/ddddd.sol\":4611:4628  isDoctor[_doctor] */\n      0x0\n        /* \"Smart Contract/contracts/ddddd.sol\":4620:4627  _doctor */\n      dup12\n        /* \"Smart Contract/contracts/ddddd.sol\":4611:4628  isDoctor[_doctor] */\n      0xffffffffffffffffffffffffffffffffffffffff\n      and\n      0xffffffffffffffffffffffffffffffffffffffff\n      and\n      dup2\n      mstore\n      0x20\n      add\n      swap1\n      dup2\n      mstore\n      0x20\n      add\n      0x0\n      keccak256\n      0x0\n        /* \"Smart Contract/contracts/ddddd.sol\":4611:4635  isDoctor[_doctor] = true */\n      0x100\n      exp\n      dup2\n      sload\n      dup2\n      0xff\n      mul\n      not\n      and\n      swap1\n      dup4\n      iszero\n      iszero\n      mul\n      or\n      swap1\n      sstore\n      pop\n        /* \"Smart Contract/contracts/ddddd.sol\":4677:4681  true */\n      0x1\n        /* \"Smart Contract/contracts/ddddd.sol\":4646:4656  isApproved */\n      0x7\n        /* \"Smart Contract/contracts/ddddd.sol\":4646:4665  isApproved[_doctor] */\n      0x0\n        /* \"Smart Contract/contracts/ddddd.sol\":4657:4664  _doctor */\n      dup12\n        /* \"Smart Contract/contracts/ddddd.sol\":4646:4665  isApproved[_doctor] */\n      0xffffffffffffffffffffffffffffffffffffffff\n      and\n      0xffffffffffffffffffffffffffffffffffffffff\n      and\n      dup2\n      mstore\n      0x20\n      add\n      swap1\n      dup2\n      mstore\n      0x20\n      add\n      0x0\n      keccak256\n        /* \"Smart Contract/contracts/ddddd.sol\":4646:4674  isApproved[_doctor][_doctor] */\n      0x0\n        /* \"Smart Contract/contracts/ddddd.sol\":4666:4673  _doctor */\n      dup12\n        /* \"Smart Contract/contracts/ddddd.sol\":4646:4674  isApproved[_doctor][_doctor] */\n      0xffffffffffffffffffffffffffffffffffffffff\n      and\n      0xffffffffffffffffffffffffffffffffffffffff\n      and\n      dup2\n      mstore\n      0x20\n      add\n      swap1\n      dup2\n      mstore\n      0x20\n      add\n      0x0\n      keccak256\n      0x0\n        /* \"Smart Contract/contracts/ddddd.sol\":4646:4681  isApproved[_doctor][_doctor] = true */\n      0x100\n      exp\n      dup2\n      sload\n      dup2\n      0xff\n      mul\n      not\n      and\n      swap1\n      dup4\n      iszero\n      iszero\n      mul\n      or\n      swap1\n      sstore\n      pop\n        /* \"Smart Contract/contracts/ddddd.sol\":4725:4729  true */\n      0x1\n        /* \"Smart Contract/contracts/ddddd.sol\":4692:4702  isApproved */\n      0x7\n        /* \"Smart Contract/contracts/ddddd.sol\":4692:4711  isApproved[_doctor] */\n      0x0\n        /* \"Smart Contract/contracts/ddddd.sol\":4703:4710  _doctor */\n      dup12\n        /* \"Smart Contract/contracts/ddddd.sol\":4692:4711  isApproved[_doctor] */\n      0xffffffffffffffffffffffffffffffffffffffff\n      and\n      0xffffffffffffffffffffffffffffffffffffffff\n      and\n      dup2\n      mstore\n      0x20\n      add\n      swap1\n      dup2\n      mstore\n      0x20\n      add\n      0x0\n      keccak256\n        /* \"Smart Contract/contracts/ddddd.sol\":4692:4722  isApproved[_doctor][mohAdress] */\n      0x0\n        /* \"Smart Contract/contracts/ddddd.sol\":4712:4721  mohAdress */\n      0x11\n      0x0\n      swap1\n      sload\n      swap1\n      0x100\n      exp\n      swap1\n      div\n      0xffffffffffffffffffffffffffffffffffffffff\n      and\n        /* \"Smart Contract/contracts/ddddd.sol\":4692:4722  isApproved[_doctor][mohAdress] */\n      0xffffffffffffffffffffffffffffffffffffffff\n      and\n      0xffffffffffffffffffffffffffffffffffffffff\n      and\n      dup2\n      mstore\n      0x20\n      add\n      swap1\n      dup2\n      mstore\n      0x20\n      add\n      0x0\n      keccak256\n      0x0\n        /* \"Smart Contract/contracts/ddddd.sol\":4692:4729  isApproved[_doctor][mohAdress] = true */\n      0x100\n      exp\n      dup2\n      sload\n      dup2\n      0xff\n      mul\n      not\n      and\n      swap1\n      dup4\n      iszero\n      iszero\n      mul\n      or\n      swap1\n      sstore\n      pop\n        /* \"Smart Contract/contracts/ddddd.sol\":4740:4751  doctorCount */\n      0xd\n      0x0\n        /* \"Smart Contract/contracts/ddddd.sol\":4740:4753  doctorCount++ */\n      dup2\n      sload\n      dup1\n      swap3\n      swap2\n      swap1\n      0x1\n      add\n      swap2\n      swap1\n      pop\n      sstore\n      pop\n        /* \"Smart Contract/contracts/ddddd.sol\":3994:4761  function doctorRegistration(address _doctor, string _uaeId, string _name, string _phone, string _gender, string _email, string _qualification, string _major) public {\r... */\n      pop\n      pop\n      pop\n      pop\n      pop\n      pop\n      pop\n      pop\n      pop\n      jump\t// out\n        /* \"Smart Contract/contracts/ddddd.sol\":2002:2232  function ownerAddress(address _admin) public view returns(bool) {\r... */\n    tag_74:\n        /* \"Smart Contract/contracts/ddddd.sol\":2060:2064  bool */\n      0x0\n        /* \"Smart Contract/contracts/ddddd.sol\":2077:2090  address admin */\n      dup1\n        /* \"Smart Contract/contracts/ddddd.sol\":2093:2099  _admin */\n      dup3\n        /* \"Smart Contract/contracts/ddddd.sol\":2077:2099  address admin = _admin */\n      swap1\n      pop\n        /* \"Smart Contract/contracts/ddddd.sol\":2123:2132  mohAdress */\n      0x11\n      0x0\n      swap1\n      sload\n      swap1\n      0x100\n      exp\n      swap1\n      div\n      0xffffffffffffffffffffffffffffffffffffffff\n      and\n        /* \"Smart Contract/contracts/ddddd.sol\":2114:2132  admin == mohAdress */\n      0xffffffffffffffffffffffffffffffffffffffff\n      and\n        /* \"Smart Contract/contracts/ddddd.sol\":2114:2119  admin */\n      dup2\n        /* \"Smart Contract/contracts/ddddd.sol\":2114:2132  admin == mohAdress */\n      0xffffffffffffffffffffffffffffffffffffffff\n      and\n      eq\n        /* \"Smart Contract/contracts/ddddd.sol\":2110:2225  if (admin == mohAdress){\r... */\n      iszero\n      tag_241\n      jumpi\n        /* \"Smart Contract/contracts/ddddd.sol\":2155:2159  true */\n      0x1\n        /* \"Smart Contract/contracts/ddddd.sol\":2148:2159  return true */\n      swap2\n      pop\n      jump(tag_240)\n        /* \"Smart Contract/contracts/ddddd.sol\":2110:2225  if (admin == mohAdress){\r... */\n    tag_241:\n        /* \"Smart Contract/contracts/ddddd.sol\":2208:2213  false */\n      0x0\n        /* \"Smart Contract/contracts/ddddd.sol\":2201:2213  return false */\n      swap2\n      pop\n        /* \"Smart Contract/contracts/ddddd.sol\":2002:2232  function ownerAddress(address _admin) public view returns(bool) {\r... */\n    tag_240:\n      pop\n      swap2\n      swap1\n      pop\n      jump\t// out\n        /* \"Smart Contract/contracts/ddddd.sol\":6488:6679  function givePermissionByUser(address _address) public returns(bool success) {\r... */\n    tag_80:\n        /* \"Smart Contract/contracts/ddddd.sol\":6551:6563  bool success */\n      0x0\n        /* \"Smart Contract/contracts/ddddd.sol\":6611:6615  true */\n      0x1\n        /* \"Smart Contract/contracts/ddddd.sol\":6576:6586  isApproved */\n      0x7\n        /* \"Smart Contract/contracts/ddddd.sol\":6576:6598  isApproved[msg.sender] */\n      0x0\n        /* \"Smart Contract/contracts/ddddd.sol\":6587:6597  msg.sender */\n      caller\n        /* \"Smart Contract/contracts/ddddd.sol\":6576:6598  isApproved[msg.sender] */\n      0xffffffffffffffffffffffffffffffffffffffff\n      and\n      0xffffffffffffffffffffffffffffffffffffffff\n      and\n      dup2\n      mstore\n      0x20\n      add\n      swap1\n      dup2\n      mstore\n      0x20\n      add\n      0x0\n      keccak256\n        /* \"Smart Contract/contracts/ddddd.sol\":6576:6608  isApproved[msg.sender][_address] */\n      0x0\n        /* \"Smart Contract/contracts/ddddd.sol\":6599:6607  _address */\n      dup5\n        /* \"Smart Contract/contracts/ddddd.sol\":6576:6608  isApproved[msg.sender][_address] */\n      0xffffffffffffffffffffffffffffffffffffffff\n      and\n      0xffffffffffffffffffffffffffffffffffffffff\n      and\n      dup2\n      mstore\n      0x20\n      add\n      swap1\n      dup2\n      mstore\n      0x20\n      add\n      0x0\n      keccak256\n      0x0\n        /* \"Smart Contract/contracts/ddddd.sol\":6576:6615  isApproved[msg.sender][_address] = true */\n      0x100\n      exp\n      dup2\n      sload\n      dup2\n      0xff\n      mul\n      not\n      and\n      swap1\n      dup4\n      iszero\n      iszero\n      mul\n      or\n      swap1\n      sstore\n      pop\n        /* \"Smart Contract/contracts/ddddd.sol\":6626:6647  userPermissionCounter */\n      0xf\n      0x0\n        /* \"Smart Contract/contracts/ddddd.sol\":6626:6649  userPermissionCounter++ */\n      dup2\n      sload\n      dup1\n      swap3\n      swap2\n      swap1\n      0x1\n      add\n      swap2\n      swap1\n      pop\n      sstore\n      pop\n        /* \"Smart Contract/contracts/ddddd.sol\":6667:6671  true */\n      0x1\n        /* \"Smart Contract/contracts/ddddd.sol\":6660:6671  return true */\n      swap1\n      pop\n        /* \"Smart Contract/contracts/ddddd.sol\":6488:6679  function givePermissionByUser(address _address) public returns(bool success) {\r... */\n      swap2\n      swap1\n      pop\n      jump\t// out\n        /* \"Smart Contract/contracts/ddddd.sol\":5302:6126  function createVaccineRecord(address _address1, address _doctor, string _name, string _vaccine, string _description, string _typeOfVaccine, uint _creationDate) public returns(bool success) {\r... */\n    tag_86:\n        /* \"Smart Contract/contracts/ddddd.sol\":5477:5489  bool success */\n      0x0\n        /* \"Smart Contract/contracts/ddddd.sol\":5638:5643  var v */\n      dup1\n        /* \"Smart Contract/contracts/ddddd.sol\":5524:5533  mohAdress */\n      0x11\n      0x0\n      swap1\n      sload\n      swap1\n      0x100\n      exp\n      swap1\n      div\n      0xffffffffffffffffffffffffffffffffffffffff\n      and\n        /* \"Smart Contract/contracts/ddddd.sol\":5510:5533  msg.sender == mohAdress */\n      0xffffffffffffffffffffffffffffffffffffffff\n      and\n        /* \"Smart Contract/contracts/ddddd.sol\":5510:5520  msg.sender */\n      caller\n        /* \"Smart Contract/contracts/ddddd.sol\":5510:5533  msg.sender == mohAdress */\n      0xffffffffffffffffffffffffffffffffffffffff\n      and\n      eq\n        /* \"Smart Contract/contracts/ddddd.sol\":5510:5575  msg.sender == mohAdress || isApprovedByMoH[_address1][msg.sender] */\n      dup1\n      tag_245\n      jumpi\n      pop\n        /* \"Smart Contract/contracts/ddddd.sol\":5537:5552  isApprovedByMoH */\n      0x8\n        /* \"Smart Contract/contracts/ddddd.sol\":5537:5563  isApprovedByMoH[_address1] */\n      0x0\n        /* \"Smart Contract/contracts/ddddd.sol\":5553:5562  _address1 */\n      dup11\n        /* \"Smart Contract/contracts/ddddd.sol\":5537:5563  isApprovedByMoH[_address1] */\n      0xffffffffffffffffffffffffffffffffffffffff\n      and\n      0xffffffffffffffffffffffffffffffffffffffff\n      and\n      dup2\n      mstore\n      0x20\n      add\n      swap1\n      dup2\n      mstore\n      0x20\n      add\n      0x0\n      keccak256\n        /* \"Smart Contract/contracts/ddddd.sol\":5537:5575  isApprovedByMoH[_address1][msg.sender] */\n      0x0\n        /* \"Smart Contract/contracts/ddddd.sol\":5564:5574  msg.sender */\n      caller\n        /* \"Smart Contract/contracts/ddddd.sol\":5537:5575  isApprovedByMoH[_address1][msg.sender] */\n      0xffffffffffffffffffffffffffffffffffffffff\n      and\n      0xffffffffffffffffffffffffffffffffffffffff\n      and\n      dup2\n      mstore\n      0x20\n      add\n      swap1\n      dup2\n      mstore\n      0x20\n      add\n      0x0\n      keccak256\n      0x0\n      swap1\n      sload\n      swap1\n      0x100\n      exp\n      swap1\n      div\n      0xff\n      and\n        /* \"Smart Contract/contracts/ddddd.sol\":5510:5575  msg.sender == mohAdress || isApprovedByMoH[_address1][msg.sender] */\n    tag_245:\n        /* \"Smart Contract/contracts/ddddd.sol\":5502:5576  require(msg.sender == mohAdress || isApprovedByMoH[_address1][msg.sender]) */\n      iszero\n      iszero\n      tag_246\n      jumpi\n      0x0\n      dup1\n      revert\n    tag_246:\n        /* \"Smart Contract/contracts/ddddd.sol\":5606:5615  isVaccine */\n      0xb\n        /* \"Smart Contract/contracts/ddddd.sol\":5606:5626  isVaccine[_address1] */\n      0x0\n        /* \"Smart Contract/contracts/ddddd.sol\":5616:5625  _address1 */\n      dup11\n        /* \"Smart Contract/contracts/ddddd.sol\":5606:5626  isVaccine[_address1] */\n      0xffffffffffffffffffffffffffffffffffffffff\n      and\n      0xffffffffffffffffffffffffffffffffffffffff\n      and\n      dup2\n      mstore\n      0x20\n      add\n      swap1\n      dup2\n      mstore\n      0x20\n      add\n      0x0\n      keccak256\n      0x0\n      swap1\n      sload\n      swap1\n      0x100\n      exp\n      swap1\n      div\n      0xff\n      and\n        /* \"Smart Contract/contracts/ddddd.sol\":5605:5626  !isVaccine[_address1] */\n      iszero\n        /* \"Smart Contract/contracts/ddddd.sol\":5597:5627  require(!isVaccine[_address1]) */\n      iszero\n      iszero\n      tag_247\n      jumpi\n      0x0\n      dup1\n      revert\n    tag_247:\n        /* \"Smart Contract/contracts/ddddd.sol\":5646:5657  vaccination */\n      0x6\n        /* \"Smart Contract/contracts/ddddd.sol\":5646:5668  vaccination[_address1] */\n      0x0\n        /* \"Smart Contract/contracts/ddddd.sol\":5658:5667  _address1 */\n      dup11\n        /* \"Smart Contract/contracts/ddddd.sol\":5646:5668  vaccination[_address1] */\n      0xffffffffffffffffffffffffffffffffffffffff\n      and\n      0xffffffffffffffffffffffffffffffffffffffff\n      and\n      dup2\n      mstore\n      0x20\n      add\n      swap1\n      dup2\n      mstore\n      0x20\n      add\n      0x0\n      keccak256\n        /* \"Smart Contract/contracts/ddddd.sol\":5638:5668  var v = vaccination[_address1] */\n      swap1\n      pop\n        /* \"Smart Contract/contracts/ddddd.sol\":5690:5695  _name */\n      dup7\n        /* \"Smart Contract/contracts/ddddd.sol\":5681:5682  v */\n      dup2\n        /* \"Smart Contract/contracts/ddddd.sol\":5681:5687  v.name */\n      0x0\n      add\n        /* \"Smart Contract/contracts/ddddd.sol\":5681:5695  v.name = _name */\n      swap1\n      dup1\n      mload\n      swap1\n      0x20\n      add\n      swap1\n      tag_248\n      swap3\n      swap2\n      swap1\n      jump\t// in(tag_222)\n    tag_248:\n      pop\n        /* \"Smart Contract/contracts/ddddd.sol\":5718:5726  _vaccine */\n      dup6\n        /* \"Smart Contract/contracts/ddddd.sol\":5706:5707  v */\n      dup2\n        /* \"Smart Contract/contracts/ddddd.sol\":5706:5715  v.vaccine */\n      0x1\n      add\n        /* \"Smart Contract/contracts/ddddd.sol\":5706:5726  v.vaccine = _vaccine */\n      swap1\n      dup1\n      mload\n      swap1\n      0x20\n      add\n      swap1\n      tag_249\n      swap3\n      swap2\n      swap1\n      jump\t// in(tag_222)\n    tag_249:\n      pop\n        /* \"Smart Contract/contracts/ddddd.sol\":5753:5765  _description */\n      dup5\n        /* \"Smart Contract/contracts/ddddd.sol\":5737:5738  v */\n      dup2\n        /* \"Smart Contract/contracts/ddddd.sol\":5737:5750  v.description */\n      0x2\n      add\n        /* \"Smart Contract/contracts/ddddd.sol\":5737:5765  v.description = _description */\n      swap1\n      dup1\n      mload\n      swap1\n      0x20\n      add\n      swap1\n      tag_250\n      swap3\n      swap2\n      swap1\n      jump\t// in(tag_222)\n    tag_250:\n      pop\n        /* \"Smart Contract/contracts/ddddd.sol\":5794:5808  _typeOfVaccine */\n      dup4\n        /* \"Smart Contract/contracts/ddddd.sol\":5776:5777  v */\n      dup2\n        /* \"Smart Contract/contracts/ddddd.sol\":5776:5791  v.typeOfVaccine */\n      0x3\n      add\n        /* \"Smart Contract/contracts/ddddd.sol\":5776:5808  v.typeOfVaccine = _typeOfVaccine */\n      swap1\n      dup1\n      mload\n      swap1\n      0x20\n      add\n      swap1\n      tag_251\n      swap3\n      swap2\n      swap1\n      jump\t// in(tag_222)\n    tag_251:\n      pop\n        /* \"Smart Contract/contracts/ddddd.sol\":5949:5962  _creationDate */\n      dup3\n        /* \"Smart Contract/contracts/ddddd.sol\":5932:5933  v */\n      dup2\n        /* \"Smart Contract/contracts/ddddd.sol\":5932:5946  v.creationDate */\n      0x4\n      add\n        /* \"Smart Contract/contracts/ddddd.sol\":5932:5962  v.creationDate = _creationDate */\n      dup2\n      swap1\n      sstore\n      pop\n        /* \"Smart Contract/contracts/ddddd.sol\":5990:5999  _address1 */\n      dup9\n        /* \"Smart Contract/contracts/ddddd.sol\":5973:5974  v */\n      dup2\n        /* \"Smart Contract/contracts/ddddd.sol\":5973:5987  v.userEadderss */\n      0x5\n      add\n      0x0\n        /* \"Smart Contract/contracts/ddddd.sol\":5973:5999  v.userEadderss = _address1 */\n      0x100\n      exp\n      dup2\n      sload\n      dup2\n      0xffffffffffffffffffffffffffffffffffffffff\n      mul\n      not\n      and\n      swap1\n      dup4\n      0xffffffffffffffffffffffffffffffffffffffff\n      and\n      mul\n      or\n      swap1\n      sstore\n      pop\n        /* \"Smart Contract/contracts/ddddd.sol\":6029:6036  _doctor */\n      dup8\n        /* \"Smart Contract/contracts/ddddd.sol\":6010:6011  v */\n      dup2\n        /* \"Smart Contract/contracts/ddddd.sol\":6010:6026  v.doctorEaddress */\n      0x6\n      add\n      0x0\n        /* \"Smart Contract/contracts/ddddd.sol\":6010:6036  v.doctorEaddress = _doctor */\n      0x100\n      exp\n      dup2\n      sload\n      dup2\n      0xffffffffffffffffffffffffffffffffffffffff\n      mul\n      not\n      and\n      swap1\n      dup4\n      0xffffffffffffffffffffffffffffffffffffffff\n      and\n      mul\n      or\n      swap1\n      sstore\n      pop\n        /* \"Smart Contract/contracts/ddddd.sol\":6049:6064  vaccinationList */\n      0x3\n        /* \"Smart Contract/contracts/ddddd.sol\":6070:6079  _address1 */\n      dup10\n        /* \"Smart Contract/contracts/ddddd.sol\":6049:6080  vaccinationList.push(_address1) */\n      swap1\n      dup1\n        /* \"--CODEGEN--\":39:40   */\n      0x1\n        /* \"--CODEGEN--\":33:36   */\n      dup2\n        /* \"--CODEGEN--\":27:37   */\n      sload\n        /* \"--CODEGEN--\":23:41   */\n      add\n        /* \"--CODEGEN--\":57:67   */\n      dup1\n        /* \"--CODEGEN--\":52:55   */\n      dup3\n        /* \"--CODEGEN--\":45:68   */\n      sstore\n        /* \"--CODEGEN--\":79:89   */\n      dup1\n        /* \"--CODEGEN--\":72:89   */\n      swap2\n      pop\n        /* \"--CODEGEN--\":0:93   */\n      pop\n        /* \"Smart Contract/contracts/ddddd.sol\":6049:6080  vaccinationList.push(_address1) */\n      swap1\n      0x1\n      dup3\n      sub\n      swap1\n      0x0\n      mstore\n      keccak256(0x0, 0x20)\n      add\n      0x0\n      swap1\n      swap2\n      swap3\n      swap1\n      swap2\n      swap1\n      swap2\n      0x100\n      exp\n      dup2\n      sload\n      dup2\n      0xffffffffffffffffffffffffffffffffffffffff\n      mul\n      not\n      and\n      swap1\n      dup4\n      0xffffffffffffffffffffffffffffffffffffffff\n      and\n      mul\n      or\n      swap1\n      sstore\n      pop\n      pop\n        /* \"Smart Contract/contracts/ddddd.sol\":6091:6116  vaccinationRecordsCounter */\n      0x10\n      0x0\n        /* \"Smart Contract/contracts/ddddd.sol\":6091:6118  vaccinationRecordsCounter++ */\n      dup2\n      sload\n      dup1\n      swap3\n      swap2\n      swap1\n      0x1\n      add\n      swap2\n      swap1\n      pop\n      sstore\n      pop\n        /* \"Smart Contract/contracts/ddddd.sol\":5302:6126  function createVaccineRecord(address _address1, address _doctor, string _name, string _vaccine, string _description, string _typeOfVaccine, uint _creationDate) public returns(bool success) {\r... */\n      pop\n      swap8\n      swap7\n      pop\n      pop\n      pop\n      pop\n      pop\n      pop\n      pop\n      jump\t// out\n        /* \"Smart Contract/contracts/ddddd.sol\":7538:7696  function userRevokePermission(address _address) public returns(bool success) {\r... */\n    tag_91:\n        /* \"Smart Contract/contracts/ddddd.sol\":7601:7613  bool success */\n      0x0\n        /* \"Smart Contract/contracts/ddddd.sol\":7661:7666  false */\n      dup1\n        /* \"Smart Contract/contracts/ddddd.sol\":7626:7636  isApproved */\n      0x7\n        /* \"Smart Contract/contracts/ddddd.sol\":7626:7648  isApproved[msg.sender] */\n      0x0\n        /* \"Smart Contract/contracts/ddddd.sol\":7637:7647  msg.sender */\n      caller\n        /* \"Smart Contract/contracts/ddddd.sol\":7626:7648  isApproved[msg.sender] */\n      0xffffffffffffffffffffffffffffffffffffffff\n      and\n      0xffffffffffffffffffffffffffffffffffffffff\n      and\n      dup2\n      mstore\n      0x20\n      add\n      swap1\n      dup2\n      mstore\n      0x20\n      add\n      0x0\n      keccak256\n        /* \"Smart Contract/contracts/ddddd.sol\":7626:7658  isApproved[msg.sender][_address] */\n      0x0\n        /* \"Smart Contract/contracts/ddddd.sol\":7649:7657  _address */\n      dup5\n        /* \"Smart Contract/contracts/ddddd.sol\":7626:7658  isApproved[msg.sender][_address] */\n      0xffffffffffffffffffffffffffffffffffffffff\n      and\n      0xffffffffffffffffffffffffffffffffffffffff\n      and\n      dup2\n      mstore\n      0x20\n      add\n      swap1\n      dup2\n      mstore\n      0x20\n      add\n      0x0\n      keccak256\n      0x0\n        /* \"Smart Contract/contracts/ddddd.sol\":7626:7666  isApproved[msg.sender][_address] = false */\n      0x100\n      exp\n      dup2\n      sload\n      dup2\n      0xff\n      mul\n      not\n      and\n      swap1\n      dup4\n      iszero\n      iszero\n      mul\n      or\n      swap1\n      sstore\n      pop\n        /* \"Smart Contract/contracts/ddddd.sol\":7684:7688  true */\n      0x1\n        /* \"Smart Contract/contracts/ddddd.sol\":7677:7688  return true */\n      swap1\n      pop\n        /* \"Smart Contract/contracts/ddddd.sol\":7538:7696  function userRevokePermission(address _address) public returns(bool success) {\r... */\n      swap2\n      swap1\n      pop\n      jump\t// out\n        /* \"Smart Contract/contracts/ddddd.sol\":2244:3353  function userRegistration(address _user, string _uaeId, string _name, string _phone, string _gender, string _dob, string _addr, string _email, string _nomineeName, string _nomineeContact) public {\r... */\n    tag_97:\n        /* \"Smart Contract/contracts/ddddd.sol\":2527:2532  var u */\n      0x0\n        /* \"Smart Contract/contracts/ddddd.sol\":2472:2481  mohAdress */\n      0x11\n      0x0\n      swap1\n      sload\n      swap1\n      0x100\n      exp\n      swap1\n      div\n      0xffffffffffffffffffffffffffffffffffffffff\n      and\n        /* \"Smart Contract/contracts/ddddd.sol\":2458:2481  msg.sender == mohAdress */\n      0xffffffffffffffffffffffffffffffffffffffff\n      and\n        /* \"Smart Contract/contracts/ddddd.sol\":2458:2468  msg.sender */\n      caller\n        /* \"Smart Contract/contracts/ddddd.sol\":2458:2481  msg.sender == mohAdress */\n      0xffffffffffffffffffffffffffffffffffffffff\n      and\n      eq\n        /* \"Smart Contract/contracts/ddddd.sol\":2450:2482  require(msg.sender == mohAdress) */\n      iszero\n      iszero\n      tag_255\n      jumpi\n      0x0\n      dup1\n      revert\n    tag_255:\n        /* \"Smart Contract/contracts/ddddd.sol\":2502:2508  isUser */\n      0x9\n        /* \"Smart Contract/contracts/ddddd.sol\":2502:2515  isUser[_user] */\n      0x0\n        /* \"Smart Contract/contracts/ddddd.sol\":2509:2514  _user */\n      dup13\n        /* \"Smart Contract/contracts/ddddd.sol\":2502:2515  isUser[_user] */\n      0xffffffffffffffffffffffffffffffffffffffff\n      and\n      0xffffffffffffffffffffffffffffffffffffffff\n      and\n      dup2\n      mstore\n      0x20\n      add\n      swap1\n      dup2\n      mstore\n      0x20\n      add\n      0x0\n      keccak256\n      0x0\n      swap1\n      sload\n      swap1\n      0x100\n      exp\n      swap1\n      div\n      0xff\n      and\n        /* \"Smart Contract/contracts/ddddd.sol\":2501:2515  !isUser[_user] */\n      iszero\n        /* \"Smart Contract/contracts/ddddd.sol\":2493:2516  require(!isUser[_user]) */\n      iszero\n      iszero\n      tag_256\n      jumpi\n      0x0\n      dup1\n      revert\n    tag_256:\n        /* \"Smart Contract/contracts/ddddd.sol\":2535:2539  user */\n      0x4\n        /* \"Smart Contract/contracts/ddddd.sol\":2535:2546  user[_user] */\n      0x0\n        /* \"Smart Contract/contracts/ddddd.sol\":2540:2545  _user */\n      dup13\n        /* \"Smart Contract/contracts/ddddd.sol\":2535:2546  user[_user] */\n      0xffffffffffffffffffffffffffffffffffffffff\n      and\n      0xffffffffffffffffffffffffffffffffffffffff\n      and\n      dup2\n      mstore\n      0x20\n      add\n      swap1\n      dup2\n      mstore\n      0x20\n      add\n      0x0\n      keccak256\n        /* \"Smart Contract/contracts/ddddd.sol\":2527:2546  var u = user[_user] */\n      swap1\n      pop\n        /* \"Smart Contract/contracts/ddddd.sol\":2577:2583  _uaeId */\n      dup10\n        /* \"Smart Contract/contracts/ddddd.sol\":2567:2568  u */\n      dup2\n        /* \"Smart Contract/contracts/ddddd.sol\":2567:2574  u.uaeId */\n      0x0\n      add\n        /* \"Smart Contract/contracts/ddddd.sol\":2567:2583  u.uaeId = _uaeId */\n      swap1\n      dup1\n      mload\n      swap1\n      0x20\n      add\n      swap1\n      tag_257\n      swap3\n      swap2\n      swap1\n      jump\t// in(tag_222)\n    tag_257:\n      pop\n        /* \"Smart Contract/contracts/ddddd.sol\":2603:2608  _name */\n      dup9\n        /* \"Smart Contract/contracts/ddddd.sol\":2594:2595  u */\n      dup2\n        /* \"Smart Contract/contracts/ddddd.sol\":2594:2600  u.name */\n      0x1\n      add\n        /* \"Smart Contract/contracts/ddddd.sol\":2594:2608  u.name = _name */\n      swap1\n      dup1\n      mload\n      swap1\n      0x20\n      add\n      swap1\n      tag_258\n      swap3\n      swap2\n      swap1\n      jump\t// in(tag_222)\n    tag_258:\n      pop\n        /* \"Smart Contract/contracts/ddddd.sol\":2629:2635  _phone */\n      dup8\n        /* \"Smart Contract/contracts/ddddd.sol\":2619:2620  u */\n      dup2\n        /* \"Smart Contract/contracts/ddddd.sol\":2619:2626  u.phone */\n      0x2\n      add\n        /* \"Smart Contract/contracts/ddddd.sol\":2619:2635  u.phone = _phone */\n      swap1\n      dup1\n      mload\n      swap1\n      0x20\n      add\n      swap1\n      tag_259\n      swap3\n      swap2\n      swap1\n      jump\t// in(tag_222)\n    tag_259:\n      pop\n        /* \"Smart Contract/contracts/ddddd.sol\":2657:2664  _gender */\n      dup7\n        /* \"Smart Contract/contracts/ddddd.sol\":2646:2647  u */\n      dup2\n        /* \"Smart Contract/contracts/ddddd.sol\":2646:2654  u.gender */\n      0x3\n      add\n        /* \"Smart Contract/contracts/ddddd.sol\":2646:2664  u.gender = _gender */\n      swap1\n      dup1\n      mload\n      swap1\n      0x20\n      add\n      swap1\n      tag_260\n      swap3\n      swap2\n      swap1\n      jump\t// in(tag_222)\n    tag_260:\n      pop\n        /* \"Smart Contract/contracts/ddddd.sol\":2683:2687  _dob */\n      dup6\n        /* \"Smart Contract/contracts/ddddd.sol\":2675:2676  u */\n      dup2\n        /* \"Smart Contract/contracts/ddddd.sol\":2675:2680  u.dob */\n      0x4\n      add\n        /* \"Smart Contract/contracts/ddddd.sol\":2675:2687  u.dob = _dob */\n      swap1\n      dup1\n      mload\n      swap1\n      0x20\n      add\n      swap1\n      tag_261\n      swap3\n      swap2\n      swap1\n      jump\t// in(tag_222)\n    tag_261:\n      pop\n        /* \"Smart Contract/contracts/ddddd.sol\":2707:2712  _addr */\n      dup5\n        /* \"Smart Contract/contracts/ddddd.sol\":2698:2699  u */\n      dup2\n        /* \"Smart Contract/contracts/ddddd.sol\":2698:2704  u.addr */\n      0x5\n      add\n        /* \"Smart Contract/contracts/ddddd.sol\":2698:2712  u.addr = _addr */\n      swap1\n      dup1\n      mload\n      swap1\n      0x20\n      add\n      swap1\n      tag_262\n      swap3\n      swap2\n      swap1\n      jump\t// in(tag_222)\n    tag_262:\n      pop\n        /* \"Smart Contract/contracts/ddddd.sol\":2733:2739  _email */\n      dup4\n        /* \"Smart Contract/contracts/ddddd.sol\":2723:2724  u */\n      dup2\n        /* \"Smart Contract/contracts/ddddd.sol\":2723:2730  u.email */\n      0x6\n      add\n        /* \"Smart Contract/contracts/ddddd.sol\":2723:2739  u.email = _email */\n      swap1\n      dup1\n      mload\n      swap1\n      0x20\n      add\n      swap1\n      tag_263\n      swap3\n      swap2\n      swap1\n      jump\t// in(tag_222)\n    tag_263:\n      pop\n        /* \"Smart Contract/contracts/ddddd.sol\":2766:2778  _nomineeName */\n      dup3\n        /* \"Smart Contract/contracts/ddddd.sol\":2750:2751  u */\n      dup2\n        /* \"Smart Contract/contracts/ddddd.sol\":2750:2763  u.nomineeName */\n      0x7\n      add\n        /* \"Smart Contract/contracts/ddddd.sol\":2750:2778  u.nomineeName = _nomineeName */\n      swap1\n      dup1\n      mload\n      swap1\n      0x20\n      add\n      swap1\n      tag_264\n      swap3\n      swap2\n      swap1\n      jump\t// in(tag_222)\n    tag_264:\n      pop\n        /* \"Smart Contract/contracts/ddddd.sol\":2808:2823  _nomineeContact */\n      dup2\n        /* \"Smart Contract/contracts/ddddd.sol\":2789:2790  u */\n      dup2\n        /* \"Smart Contract/contracts/ddddd.sol\":2789:2805  u.nomineeContact */\n      0x8\n      add\n        /* \"Smart Contract/contracts/ddddd.sol\":2789:2823  u.nomineeContact = _nomineeContact */\n      swap1\n      dup1\n      mload\n      swap1\n      0x20\n      add\n      swap1\n      tag_265\n      swap3\n      swap2\n      swap1\n      jump\t// in(tag_222)\n    tag_265:\n      pop\n        /* \"Smart Contract/contracts/ddddd.sol\":2847:2852  _user */\n      dup11\n        /* \"Smart Contract/contracts/ddddd.sol\":2834:2835  u */\n      dup2\n        /* \"Smart Contract/contracts/ddddd.sol\":2834:2844  u.eAddress */\n      0x9\n      add\n      0x0\n        /* \"Smart Contract/contracts/ddddd.sol\":2834:2852  u.eAddress = _user */\n      0x100\n      exp\n      dup2\n      sload\n      dup2\n      0xffffffffffffffffffffffffffffffffffffffff\n      mul\n      not\n      and\n      swap1\n      dup4\n      0xffffffffffffffffffffffffffffffffffffffff\n      and\n      mul\n      or\n      swap1\n      sstore\n      pop\n        /* \"Smart Contract/contracts/ddddd.sol\":2872:2887  block.timestamp */\n      timestamp\n        /* \"Smart Contract/contracts/ddddd.sol\":2863:2864  u */\n      dup2\n        /* \"Smart Contract/contracts/ddddd.sol\":2863:2869  u.date */\n      0xa\n      add\n        /* \"Smart Contract/contracts/ddddd.sol\":2863:2887  u.date = block.timestamp */\n      dup2\n      swap1\n      sstore\n      pop\n        /* \"Smart Contract/contracts/ddddd.sol\":2908:2916  userList */\n      0x1\n        /* \"Smart Contract/contracts/ddddd.sol\":2922:2927  _user */\n      dup12\n        /* \"Smart Contract/contracts/ddddd.sol\":2908:2928  userList.push(_user) */\n      swap1\n      dup1\n        /* \"--CODEGEN--\":39:40   */\n      0x1\n        /* \"--CODEGEN--\":33:36   */\n      dup2\n        /* \"--CODEGEN--\":27:37   */\n      sload\n        /* \"--CODEGEN--\":23:41   */\n      add\n        /* \"--CODEGEN--\":57:67   */\n      dup1\n        /* \"--CODEGEN--\":52:55   */\n      dup3\n        /* \"--CODEGEN--\":45:68   */\n      sstore\n        /* \"--CODEGEN--\":79:89   */\n      dup1\n        /* \"--CODEGEN--\":72:89   */\n      swap2\n      pop\n        /* \"--CODEGEN--\":0:93   */\n      pop\n        /* \"Smart Contract/contracts/ddddd.sol\":2908:2928  userList.push(_user) */\n      swap1\n      0x1\n      dup3\n      sub\n      swap1\n      0x0\n      mstore\n      keccak256(0x0, 0x20)\n      add\n      0x0\n      swap1\n      swap2\n      swap3\n      swap1\n      swap2\n      swap1\n      swap2\n      0x100\n      exp\n      dup2\n      sload\n      dup2\n      0xffffffffffffffffffffffffffffffffffffffff\n      mul\n      not\n      and\n      swap1\n      dup4\n      0xffffffffffffffffffffffffffffffffffffffff\n      and\n      mul\n      or\n      swap1\n      sstore\n      pop\n      pop\n        /* \"Smart Contract/contracts/ddddd.sol\":2955:2959  true */\n      0x1\n        /* \"Smart Contract/contracts/ddddd.sol\":2939:2945  isUser */\n      0x9\n        /* \"Smart Contract/contracts/ddddd.sol\":2939:2952  isUser[_user] */\n      0x0\n        /* \"Smart Contract/contracts/ddddd.sol\":2946:2951  _user */\n      dup14\n        /* \"Smart Contract/contracts/ddddd.sol\":2939:2952  isUser[_user] */\n      0xffffffffffffffffffffffffffffffffffffffff\n      and\n      0xffffffffffffffffffffffffffffffffffffffff\n      and\n      dup2\n      mstore\n      0x20\n      add\n      swap1\n      dup2\n      mstore\n      0x20\n      add\n      0x0\n      keccak256\n      0x0\n        /* \"Smart Contract/contracts/ddddd.sol\":2939:2959  isUser[_user] = true */\n      0x100\n      exp\n      dup2\n      sload\n      dup2\n      0xff\n      mul\n      not\n      and\n      swap1\n      dup4\n      iszero\n      iszero\n      mul\n      or\n      swap1\n      sstore\n      pop\n        /* \"Smart Contract/contracts/ddddd.sol\":2997:3001  true */\n      0x1\n        /* \"Smart Contract/contracts/ddddd.sol\":2970:2980  isApproved */\n      0x7\n        /* \"Smart Contract/contracts/ddddd.sol\":2970:2987  isApproved[_user] */\n      0x0\n        /* \"Smart Contract/contracts/ddddd.sol\":2981:2986  _user */\n      dup14\n        /* \"Smart Contract/contracts/ddddd.sol\":2970:2987  isApproved[_user] */\n      0xffffffffffffffffffffffffffffffffffffffff\n      and\n      0xffffffffffffffffffffffffffffffffffffffff\n      and\n      dup2\n      mstore\n      0x20\n      add\n      swap1\n      dup2\n      mstore\n      0x20\n      add\n      0x0\n      keccak256\n        /* \"Smart Contract/contracts/ddddd.sol\":2970:2994  isApproved[_user][_user] */\n      0x0\n        /* \"Smart Contract/contracts/ddddd.sol\":2988:2993  _user */\n      dup14\n        /* \"Smart Contract/contracts/ddddd.sol\":2970:2994  isApproved[_user][_user] */\n      0xffffffffffffffffffffffffffffffffffffffff\n      and\n      0xffffffffffffffffffffffffffffffffffffffff\n      and\n      dup2\n      mstore\n      0x20\n      add\n      swap1\n      dup2\n      mstore\n      0x20\n      add\n      0x0\n      keccak256\n      0x0\n        /* \"Smart Contract/contracts/ddddd.sol\":2970:3001  isApproved[_user][_user] = true */\n      0x100\n      exp\n      dup2\n      sload\n      dup2\n      0xff\n      mul\n      not\n      and\n      swap1\n      dup4\n      iszero\n      iszero\n      mul\n      or\n      swap1\n      sstore\n      pop\n        /* \"Smart Contract/contracts/ddddd.sol\":3043:3047  true */\n      0x1\n        /* \"Smart Contract/contracts/ddddd.sol\":3012:3022  isApproved */\n      0x7\n        /* \"Smart Contract/contracts/ddddd.sol\":3012:3029  isApproved[_user] */\n      0x0\n        /* \"Smart Contract/contracts/ddddd.sol\":3023:3028  _user */\n      dup14\n        /* \"Smart Contract/contracts/ddddd.sol\":3012:3029  isApproved[_user] */\n      0xffffffffffffffffffffffffffffffffffffffff\n      and\n      0xffffffffffffffffffffffffffffffffffffffff\n      and\n      dup2\n      mstore\n      0x20\n      add\n      swap1\n      dup2\n      mstore\n      0x20\n      add\n      0x0\n      keccak256\n        /* \"Smart Contract/contracts/ddddd.sol\":3012:3040  isApproved[_user][mohAdress] */\n      0x0\n        /* \"Smart Contract/contracts/ddddd.sol\":3030:3039  mohAdress */\n      0x11\n      0x0\n      swap1\n      sload\n      swap1\n      0x100\n      exp\n      swap1\n      div\n      0xffffffffffffffffffffffffffffffffffffffff\n      and\n        /* \"Smart Contract/contracts/ddddd.sol\":3012:3040  isApproved[_user][mohAdress] */\n      0xffffffffffffffffffffffffffffffffffffffff\n      and\n      0xffffffffffffffffffffffffffffffffffffffff\n      and\n      dup2\n      mstore\n      0x20\n      add\n      swap1\n      dup2\n      mstore\n      0x20\n      add\n      0x0\n      keccak256\n      0x0\n        /* \"Smart Contract/contracts/ddddd.sol\":3012:3047  isApproved[_user][mohAdress] = true */\n      0x100\n      exp\n      dup2\n      sload\n      dup2\n      0xff\n      mul\n      not\n      and\n      swap1\n      dup4\n      iszero\n      iszero\n      mul\n      or\n      swap1\n      sstore\n      pop\n        /* \"Smart Contract/contracts/ddddd.sol\":3058:3067  userCount */\n      0xc\n      0x0\n        /* \"Smart Contract/contracts/ddddd.sol\":3058:3069  userCount++ */\n      dup2\n      sload\n      dup1\n      swap3\n      swap2\n      swap1\n      0x1\n      add\n      swap2\n      swap1\n      pop\n      sstore\n      pop\n        /* \"Smart Contract/contracts/ddddd.sol\":2244:3353  function userRegistration(address _user, string _uaeId, string _name, string _phone, string _gender, string _dob, string _addr, string _email, string _nomineeName, string _nomineeContact) public {\r... */\n      pop\n      pop\n      pop\n      pop\n      pop\n      pop\n      pop\n      pop\n      pop\n      pop\n      pop\n      jump\t// out\n        /* \"Smart Contract/contracts/ddddd.sol\":3377:3986  function editUser(address _user, string _uaeId, string _name, string _phone, string _gender, string _dob, string _addr, string _email, string _nomineeName, string _nomineeContact) public {\r... */\n    tag_101:\n        /* \"Smart Contract/contracts/ddddd.sol\":3651:3656  var u */\n      0x0\n        /* \"Smart Contract/contracts/ddddd.sol\":3597:3606  mohAdress */\n      0x11\n      0x0\n      swap1\n      sload\n      swap1\n      0x100\n      exp\n      swap1\n      div\n      0xffffffffffffffffffffffffffffffffffffffff\n      and\n        /* \"Smart Contract/contracts/ddddd.sol\":3583:3606  msg.sender == mohAdress */\n      0xffffffffffffffffffffffffffffffffffffffff\n      and\n        /* \"Smart Contract/contracts/ddddd.sol\":3583:3593  msg.sender */\n      caller\n        /* \"Smart Contract/contracts/ddddd.sol\":3583:3606  msg.sender == mohAdress */\n      0xffffffffffffffffffffffffffffffffffffffff\n      and\n      eq\n        /* \"Smart Contract/contracts/ddddd.sol\":3575:3607  require(msg.sender == mohAdress) */\n      iszero\n      iszero\n      tag_268\n      jumpi\n      0x0\n      dup1\n      revert\n    tag_268:\n        /* \"Smart Contract/contracts/ddddd.sol\":3626:3632  isUser */\n      0x9\n        /* \"Smart Contract/contracts/ddddd.sol\":3626:3639  isUser[_user] */\n      0x0\n        /* \"Smart Contract/contracts/ddddd.sol\":3633:3638  _user */\n      dup13\n        /* \"Smart Contract/contracts/ddddd.sol\":3626:3639  isUser[_user] */\n      0xffffffffffffffffffffffffffffffffffffffff\n      and\n      0xffffffffffffffffffffffffffffffffffffffff\n      and\n      dup2\n      mstore\n      0x20\n      add\n      swap1\n      dup2\n      mstore\n      0x20\n      add\n      0x0\n      keccak256\n      0x0\n      swap1\n      sload\n      swap1\n      0x100\n      exp\n      swap1\n      div\n      0xff\n      and\n        /* \"Smart Contract/contracts/ddddd.sol\":3618:3640  require(isUser[_user]) */\n      iszero\n      iszero\n      tag_269\n      jumpi\n      0x0\n      dup1\n      revert\n    tag_269:\n        /* \"Smart Contract/contracts/ddddd.sol\":3659:3663  user */\n      0x4\n        /* \"Smart Contract/contracts/ddddd.sol\":3659:3670  user[_user] */\n      0x0\n        /* \"Smart Contract/contracts/ddddd.sol\":3664:3669  _user */\n      dup13\n        /* \"Smart Contract/contracts/ddddd.sol\":3659:3670  user[_user] */\n      0xffffffffffffffffffffffffffffffffffffffff\n      and\n      0xffffffffffffffffffffffffffffffffffffffff\n      and\n      dup2\n      mstore\n      0x20\n      add\n      swap1\n      dup2\n      mstore\n      0x20\n      add\n      0x0\n      keccak256\n        /* \"Smart Contract/contracts/ddddd.sol\":3651:3670  var u = user[_user] */\n      swap1\n      pop\n        /* \"Smart Contract/contracts/ddddd.sol\":3701:3707  _uaeId */\n      dup10\n        /* \"Smart Contract/contracts/ddddd.sol\":3691:3692  u */\n      dup2\n        /* \"Smart Contract/contracts/ddddd.sol\":3691:3698  u.uaeId */\n      0x0\n      add\n        /* \"Smart Contract/contracts/ddddd.sol\":3691:3707  u.uaeId = _uaeId */\n      swap1\n      dup1\n      mload\n      swap1\n      0x20\n      add\n      swap1\n      tag_270\n      swap3\n      swap2\n      swap1\n      jump\t// in(tag_222)\n    tag_270:\n      pop\n        /* \"Smart Contract/contracts/ddddd.sol\":3727:3732  _name */\n      dup9\n        /* \"Smart Contract/contracts/ddddd.sol\":3718:3719  u */\n      dup2\n        /* \"Smart Contract/contracts/ddddd.sol\":3718:3724  u.name */\n      0x1\n      add\n        /* \"Smart Contract/contracts/ddddd.sol\":3718:3732  u.name = _name */\n      swap1\n      dup1\n      mload\n      swap1\n      0x20\n      add\n      swap1\n      tag_271\n      swap3\n      swap2\n      swap1\n      jump\t// in(tag_222)\n    tag_271:\n      pop\n        /* \"Smart Contract/contracts/ddddd.sol\":3753:3759  _phone */\n      dup8\n        /* \"Smart Contract/contracts/ddddd.sol\":3743:3744  u */\n      dup2\n        /* \"Smart Contract/contracts/ddddd.sol\":3743:3750  u.phone */\n      0x2\n      add\n        /* \"Smart Contract/contracts/ddddd.sol\":3743:3759  u.phone = _phone */\n      swap1\n      dup1\n      mload\n      swap1\n      0x20\n      add\n      swap1\n      tag_272\n      swap3\n      swap2\n      swap1\n      jump\t// in(tag_222)\n    tag_272:\n      pop\n        /* \"Smart Contract/contracts/ddddd.sol\":3781:3788  _gender */\n      dup7\n        /* \"Smart Contract/contracts/ddddd.sol\":3770:3771  u */\n      dup2\n        /* \"Smart Contract/contracts/ddddd.sol\":3770:3778  u.gender */\n      0x3\n      add\n        /* \"Smart Contract/contracts/ddddd.sol\":3770:3788  u.gender = _gender */\n      swap1\n      dup1\n      mload\n      swap1\n      0x20\n      add\n      swap1\n      tag_273\n      swap3\n      swap2\n      swap1\n      jump\t// in(tag_222)\n    tag_273:\n      pop\n        /* \"Smart Contract/contracts/ddddd.sol\":3807:3811  _dob */\n      dup6\n        /* \"Smart Contract/contracts/ddddd.sol\":3799:3800  u */\n      dup2\n        /* \"Smart Contract/contracts/ddddd.sol\":3799:3804  u.dob */\n      0x4\n      add\n        /* \"Smart Contract/contracts/ddddd.sol\":3799:3811  u.dob = _dob */\n      swap1\n      dup1\n      mload\n      swap1\n      0x20\n      add\n      swap1\n      tag_274\n      swap3\n      swap2\n      swap1\n      jump\t// in(tag_222)\n    tag_274:\n      pop\n        /* \"Smart Contract/contracts/ddddd.sol\":3831:3836  _addr */\n      dup5\n        /* \"Smart Contract/contracts/ddddd.sol\":3822:3823  u */\n      dup2\n        /* \"Smart Contract/contracts/ddddd.sol\":3822:3828  u.addr */\n      0x5\n      add\n        /* \"Smart Contract/contracts/ddddd.sol\":3822:3836  u.addr = _addr */\n      swap1\n      dup1\n      mload\n      swap1\n      0x20\n      add\n      swap1\n      tag_275\n      swap3\n      swap2\n      swap1\n      jump\t// in(tag_222)\n    tag_275:\n      pop\n        /* \"Smart Contract/contracts/ddddd.sol\":3857:3863  _email */\n      dup4\n        /* \"Smart Contract/contracts/ddddd.sol\":3847:3848  u */\n      dup2\n        /* \"Smart Contract/contracts/ddddd.sol\":3847:3854  u.email */\n      0x6\n      add\n        /* \"Smart Contract/contracts/ddddd.sol\":3847:3863  u.email = _email */\n      swap1\n      dup1\n      mload\n      swap1\n      0x20\n      add\n      swap1\n      tag_276\n      swap3\n      swap2\n      swap1\n      jump\t// in(tag_222)\n    tag_276:\n      pop\n        /* \"Smart Contract/contracts/ddddd.sol\":3890:3902  _nomineeName */\n      dup3\n        /* \"Smart Contract/contracts/ddddd.sol\":3874:3875  u */\n      dup2\n        /* \"Smart Contract/contracts/ddddd.sol\":3874:3887  u.nomineeName */\n      0x7\n      add\n        /* \"Smart Contract/contracts/ddddd.sol\":3874:3902  u.nomineeName = _nomineeName */\n      swap1\n      dup1\n      mload\n      swap1\n      0x20\n      add\n      swap1\n      tag_277\n      swap3\n      swap2\n      swap1\n      jump\t// in(tag_222)\n    tag_277:\n      pop\n        /* \"Smart Contract/contracts/ddddd.sol\":3932:3947  _nomineeContact */\n      dup2\n        /* \"Smart Contract/contracts/ddddd.sol\":3913:3914  u */\n      dup2\n        /* \"Smart Contract/contracts/ddddd.sol\":3913:3929  u.nomineeContact */\n      0x8\n      add\n        /* \"Smart Contract/contracts/ddddd.sol\":3913:3947  u.nomineeContact = _nomineeContact */\n      swap1\n      dup1\n      mload\n      swap1\n      0x20\n      add\n      swap1\n      tag_278\n      swap3\n      swap2\n      swap1\n      jump\t// in(tag_222)\n    tag_278:\n      pop\n        /* \"Smart Contract/contracts/ddddd.sol\":3971:3976  _user */\n      dup11\n        /* \"Smart Contract/contracts/ddddd.sol\":3958:3959  u */\n      dup2\n        /* \"Smart Contract/contracts/ddddd.sol\":3958:3968  u.eAddress */\n      0x9\n      add\n      0x0\n        /* \"Smart Contract/contracts/ddddd.sol\":3958:3976  u.eAddress = _user */\n      0x100\n      exp\n      dup2\n      sload\n      dup2\n      0xffffffffffffffffffffffffffffffffffffffff\n      mul\n      not\n      and\n      swap1\n      dup4\n      0xffffffffffffffffffffffffffffffffffffffff\n      and\n      mul\n      or\n      swap1\n      sstore\n      pop\n        /* \"Smart Contract/contracts/ddddd.sol\":3377:3986  function editUser(address _user, string _uaeId, string _name, string _phone, string _gender, string _dob, string _addr, string _email, string _nomineeName, string _nomineeContact) public {\r... */\n      pop\n      pop\n      pop\n      pop\n      pop\n      pop\n      pop\n      pop\n      pop\n      pop\n      pop\n      jump\t// out\n        /* \"Smart Contract/contracts/ddddd.sol\":1737:1767  uint256 public doctorCount = 0 */\n    tag_104:\n      sload(0xd)\n      dup2\n      jump\t// out\n        /* \"Smart Contract/contracts/ddddd.sol\":9306:9398  function getDoctorCount() public view returns(uint256) {\r... */\n    tag_108:\n        /* \"Smart Contract/contracts/ddddd.sol\":9352:9359  uint256 */\n      0x0\n        /* \"Smart Contract/contracts/ddddd.sol\":9379:9390  doctorCount */\n      sload(0xd)\n        /* \"Smart Contract/contracts/ddddd.sol\":9372:9390  return doctorCount */\n      swap1\n      pop\n        /* \"Smart Contract/contracts/ddddd.sol\":9306:9398  function getDoctorCount() public view returns(uint256) {\r... */\n      swap1\n      jump\t// out\n        /* \"Smart Contract/contracts/ddddd.sol\":9650:9956  function checkDoctor(address _address) public view returns(bool success) {\r... */\n    tag_113:\n        /* \"Smart Contract/contracts/ddddd.sol\":9709:9721  bool success */\n      0x0\n        /* \"Smart Contract/contracts/ddddd.sol\":9739:9745  uint i */\n      dup1\n        /* \"Smart Contract/contracts/ddddd.sol\":9748:9749  0 */\n      0x0\n        /* \"Smart Contract/contracts/ddddd.sol\":9739:9749  uint i = 0 */\n      swap1\n      pop\n        /* \"Smart Contract/contracts/ddddd.sol\":9755:9765  doctorList */\n      0x2\n        /* \"Smart Contract/contracts/ddddd.sol\":9755:9772  doctorList.length */\n      dup1\n      sload\n      swap1\n      pop\n        /* \"Smart Contract/contracts/ddddd.sol\":9751:9752  i */\n      dup2\n        /* \"Smart Contract/contracts/ddddd.sol\":9751:9772  i < doctorList.length */\n      lt\n        /* \"Smart Contract/contracts/ddddd.sol\":9734:9949  for (uint i = 0; i < doctorList.length; i++) {\r... */\n      iszero\n      tag_282\n      jumpi\n        /* \"Smart Contract/contracts/ddddd.sol\":9820:9824  true */\n      0x1\n        /* \"Smart Contract/contracts/ddddd.sol\":9798:9824  isDoctor[_address] == true */\n      iszero\n      iszero\n        /* \"Smart Contract/contracts/ddddd.sol\":9798:9806  isDoctor */\n      0xa\n        /* \"Smart Contract/contracts/ddddd.sol\":9798:9816  isDoctor[_address] */\n      0x0\n        /* \"Smart Contract/contracts/ddddd.sol\":9807:9815  _address */\n      dup6\n        /* \"Smart Contract/contracts/ddddd.sol\":9798:9816  isDoctor[_address] */\n      0xffffffffffffffffffffffffffffffffffffffff\n      and\n      0xffffffffffffffffffffffffffffffffffffffff\n      and\n      dup2\n      mstore\n      0x20\n      add\n      swap1\n      dup2\n      mstore\n      0x20\n      add\n      0x0\n      keccak256\n      0x0\n      swap1\n      sload\n      swap1\n      0x100\n      exp\n      swap1\n      div\n      0xff\n      and\n        /* \"Smart Contract/contracts/ddddd.sol\":9798:9824  isDoctor[_address] == true */\n      iszero\n      iszero\n      eq\n        /* \"Smart Contract/contracts/ddddd.sol\":9794:9938  if (isDoctor[_address] == true) {\r... */\n      iszero\n      tag_284\n      jumpi\n        /* \"Smart Contract/contracts/ddddd.sol\":9852:9856  true */\n      0x1\n        /* \"Smart Contract/contracts/ddddd.sol\":9845:9856  return true */\n      swap2\n      pop\n      jump(tag_280)\n        /* \"Smart Contract/contracts/ddddd.sol\":9794:9938  if (isDoctor[_address] == true) {\r... */\n    tag_284:\n        /* \"Smart Contract/contracts/ddddd.sol\":9917:9922  false */\n      0x0\n        /* \"Smart Contract/contracts/ddddd.sol\":9910:9922  return false */\n      swap2\n      pop\n      jump(tag_280)\n        /* \"Smart Contract/contracts/ddddd.sol\":9734:9949  for (uint i = 0; i < doctorList.length; i++) {\r... */\n    tag_282:\n        /* \"Smart Contract/contracts/ddddd.sol\":9650:9956  function checkDoctor(address _address) public view returns(bool success) {\r... */\n    tag_280:\n      pop\n      swap2\n      swap1\n      pop\n      jump\t// out\n        /* \"Smart Contract/contracts/ddddd.sol\":6134:6478  function getVaccinationInfo(address _address) public view returns(string, string, string, string, uint256, address, address) {\r... */\n    tag_118:\n        /* \"Smart Contract/contracts/ddddd.sol\":6200:6206  string */\n      0x60\n        /* \"Smart Contract/contracts/ddddd.sol\":6208:6214  string */\n      dup1\n        /* \"Smart Contract/contracts/ddddd.sol\":6216:6222  string */\n      0x60\n        /* \"Smart Contract/contracts/ddddd.sol\":6224:6230  string */\n      dup1\n        /* \"Smart Contract/contracts/ddddd.sol\":6232:6239  uint256 */\n      0x0\n        /* \"Smart Contract/contracts/ddddd.sol\":6241:6248  address */\n      dup1\n        /* \"Smart Contract/contracts/ddddd.sol\":6250:6257  address */\n      0x0\n        /* \"Smart Contract/contracts/ddddd.sol\":6322:6327  var v */\n      dup1\n        /* \"Smart Contract/contracts/ddddd.sol\":6278:6288  isApproved */\n      0x7\n        /* \"Smart Contract/contracts/ddddd.sol\":6278:6298  isApproved[_address] */\n      0x0\n        /* \"Smart Contract/contracts/ddddd.sol\":6289:6297  _address */\n      dup11\n        /* \"Smart Contract/contracts/ddddd.sol\":6278:6298  isApproved[_address] */\n      0xffffffffffffffffffffffffffffffffffffffff\n      and\n      0xffffffffffffffffffffffffffffffffffffffff\n      and\n      dup2\n      mstore\n      0x20\n      add\n      swap1\n      dup2\n      mstore\n      0x20\n      add\n      0x0\n      keccak256\n        /* \"Smart Contract/contracts/ddddd.sol\":6278:6310  isApproved[_address][msg.sender] */\n      0x0\n        /* \"Smart Contract/contracts/ddddd.sol\":6299:6309  msg.sender */\n      caller\n        /* \"Smart Contract/contracts/ddddd.sol\":6278:6310  isApproved[_address][msg.sender] */\n      0xffffffffffffffffffffffffffffffffffffffff\n      and\n      0xffffffffffffffffffffffffffffffffffffffff\n      and\n      dup2\n      mstore\n      0x20\n      add\n      swap1\n      dup2\n      mstore\n      0x20\n      add\n      0x0\n      keccak256\n      0x0\n      swap1\n      sload\n      swap1\n      0x100\n      exp\n      swap1\n      div\n      0xff\n      and\n        /* \"Smart Contract/contracts/ddddd.sol\":6270:6311  require(isApproved[_address][msg.sender]) */\n      iszero\n      iszero\n      tag_287\n      jumpi\n      0x0\n      dup1\n      revert\n    tag_287:\n        /* \"Smart Contract/contracts/ddddd.sol\":6330:6341  vaccination */\n      0x6\n        /* \"Smart Contract/contracts/ddddd.sol\":6330:6351  vaccination[_address] */\n      0x0\n        /* \"Smart Contract/contracts/ddddd.sol\":6342:6350  _address */\n      dup11\n        /* \"Smart Contract/contracts/ddddd.sol\":6330:6351  vaccination[_address] */\n      0xffffffffffffffffffffffffffffffffffffffff\n      and\n      0xffffffffffffffffffffffffffffffffffffffff\n      and\n      dup2\n      mstore\n      0x20\n      add\n      swap1\n      dup2\n      mstore\n      0x20\n      add\n      0x0\n      keccak256\n        /* \"Smart Contract/contracts/ddddd.sol\":6322:6351  var v = vaccination[_address] */\n      swap1\n      pop\n        /* \"Smart Contract/contracts/ddddd.sol\":6370:6371  v */\n      dup1\n        /* \"Smart Contract/contracts/ddddd.sol\":6370:6379  v.vaccine */\n      0x1\n      add\n        /* \"Smart Contract/contracts/ddddd.sol\":6381:6382  v */\n      dup2\n        /* \"Smart Contract/contracts/ddddd.sol\":6381:6387  v.name */\n      0x0\n      add\n        /* \"Smart Contract/contracts/ddddd.sol\":6389:6390  v */\n      dup3\n        /* \"Smart Contract/contracts/ddddd.sol\":6389:6402  v.description */\n      0x2\n      add\n        /* \"Smart Contract/contracts/ddddd.sol\":6404:6405  v */\n      dup4\n        /* \"Smart Contract/contracts/ddddd.sol\":6404:6419  v.typeOfVaccine */\n      0x3\n      add\n        /* \"Smart Contract/contracts/ddddd.sol\":6421:6422  v */\n      dup5\n        /* \"Smart Contract/contracts/ddddd.sol\":6421:6435  v.creationDate */\n      0x4\n      add\n      sload\n        /* \"Smart Contract/contracts/ddddd.sol\":6437:6438  v */\n      dup6\n        /* \"Smart Contract/contracts/ddddd.sol\":6437:6451  v.userEadderss */\n      0x5\n      add\n      0x0\n      swap1\n      sload\n      swap1\n      0x100\n      exp\n      swap1\n      div\n      0xffffffffffffffffffffffffffffffffffffffff\n      and\n        /* \"Smart Contract/contracts/ddddd.sol\":6453:6454  v */\n      dup7\n        /* \"Smart Contract/contracts/ddddd.sol\":6453:6469  v.doctorEaddress */\n      0x6\n      add\n      0x0\n      swap1\n      sload\n      swap1\n      0x100\n      exp\n      swap1\n      div\n      0xffffffffffffffffffffffffffffffffffffffff\n      and\n        /* \"Smart Contract/contracts/ddddd.sol\":6362:6470  return (v.vaccine, v.name, v.description, v.typeOfVaccine, v.creationDate, v.userEadderss, v.doctorEaddress) */\n      dup7\n      dup1\n      sload\n      0x1\n      dup2\n      0x1\n      and\n      iszero\n      0x100\n      mul\n      sub\n      and\n      0x2\n      swap1\n      div\n      dup1\n      0x1f\n      add\n      0x20\n      dup1\n      swap2\n      div\n      mul\n      0x20\n      add\n      mload(0x40)\n      swap1\n      dup2\n      add\n      0x40\n      mstore\n      dup1\n      swap3\n      swap2\n      swap1\n      dup2\n      dup2\n      mstore\n      0x20\n      add\n      dup3\n      dup1\n      sload\n      0x1\n      dup2\n      0x1\n      and\n      iszero\n      0x100\n      mul\n      sub\n      and\n      0x2\n      swap1\n      div\n      dup1\n      iszero\n      tag_288\n      jumpi\n      dup1\n      0x1f\n      lt\n      tag_289\n      jumpi\n      0x100\n      dup1\n      dup4\n      sload\n      div\n      mul\n      dup4\n      mstore\n      swap2\n      0x20\n      add\n      swap2\n      jump(tag_288)\n    tag_289:\n      dup3\n      add\n      swap2\n      swap1\n      0x0\n      mstore\n      keccak256(0x0, 0x20)\n      swap1\n    tag_290:\n      dup2\n      sload\n      dup2\n      mstore\n      swap1\n      0x1\n      add\n      swap1\n      0x20\n      add\n      dup1\n      dup4\n      gt\n      tag_290\n      jumpi\n      dup3\n      swap1\n      sub\n      0x1f\n      and\n      dup3\n      add\n      swap2\n    tag_288:\n      pop\n      pop\n      pop\n      pop\n      pop\n      swap7\n      pop\n      dup6\n      dup1\n      sload\n      0x1\n      dup2\n      0x1\n      and\n      iszero\n      0x100\n      mul\n      sub\n      and\n      0x2\n      swap1\n      div\n      dup1\n      0x1f\n      add\n      0x20\n      dup1\n      swap2\n      div\n      mul\n      0x20\n      add\n      mload(0x40)\n      swap1\n      dup2\n      add\n      0x40\n      mstore\n      dup1\n      swap3\n      swap2\n      swap1\n      dup2\n      dup2\n      mstore\n      0x20\n      add\n      dup3\n      dup1\n      sload\n      0x1\n      dup2\n      0x1\n      and\n      iszero\n      0x100\n      mul\n      sub\n      and\n      0x2\n      swap1\n      div\n      dup1\n      iszero\n      tag_291\n      jumpi\n      dup1\n      0x1f\n      lt\n      tag_292\n      jumpi\n      0x100\n      dup1\n      dup4\n      sload\n      div\n      mul\n      dup4\n      mstore\n      swap2\n      0x20\n      add\n      swap2\n      jump(tag_291)\n    tag_292:\n      dup3\n      add\n      swap2\n      swap1\n      0x0\n      mstore\n      keccak256(0x0, 0x20)\n      swap1\n    tag_293:\n      dup2\n      sload\n      dup2\n      mstore\n      swap1\n      0x1\n      add\n      swap1\n      0x20\n      add\n      dup1\n      dup4\n      gt\n      tag_293\n      jumpi\n      dup3\n      swap1\n      sub\n      0x1f\n      and\n      dup3\n      add\n      swap2\n    tag_291:\n      pop\n      pop\n      pop\n      pop\n      pop\n      swap6\n      pop\n      dup5\n      dup1\n      sload\n      0x1\n      dup2\n      0x1\n      and\n      iszero\n      0x100\n      mul\n      sub\n      and\n      0x2\n      swap1\n      div\n      dup1\n      0x1f\n      add\n      0x20\n      dup1\n      swap2\n      div\n      mul\n      0x20\n      add\n      mload(0x40)\n      swap1\n      dup2\n      add\n      0x40\n      mstore\n      dup1\n      swap3\n      swap2\n      swap1\n      dup2\n      dup2\n      mstore\n      0x20\n      add\n      dup3\n      dup1\n      sload\n      0x1\n      dup2\n      0x1\n      and\n      iszero\n      0x100\n      mul\n      sub\n      and\n      0x2\n      swap1\n      div\n      dup1\n      iszero\n      tag_294\n      jumpi\n      dup1\n      0x1f\n      lt\n      tag_295\n      jumpi\n      0x100\n      dup1\n      dup4\n      sload\n      div\n      mul\n      dup4\n      mstore\n      swap2\n      0x20\n      add\n      swap2\n      jump(tag_294)\n    tag_295:\n      dup3\n      add\n      swap2\n      swap1\n      0x0\n      mstore\n      keccak256(0x0, 0x20)\n      swap1\n    tag_296:\n      dup2\n      sload\n      dup2\n      mstore\n      swap1\n      0x1\n      add\n      swap1\n      0x20\n      add\n      dup1\n      dup4\n      gt\n      tag_296\n      jumpi\n      dup3\n      swap1\n      sub\n      0x1f\n      and\n      dup3\n      add\n      swap2\n    tag_294:\n      pop\n      pop\n      pop\n      pop\n      pop\n      swap5\n      pop\n      dup4\n      dup1\n      sload\n      0x1\n      dup2\n      0x1\n      and\n      iszero\n      0x100\n      mul\n      sub\n      and\n      0x2\n      swap1\n      div\n      dup1\n      0x1f\n      add\n      0x20\n      dup1\n      swap2\n      div\n      mul\n      0x20\n      add\n      mload(0x40)\n      swap1\n      dup2\n      add\n      0x40\n      mstore\n      dup1\n      swap3\n      swap2\n      swap1\n      dup2\n      dup2\n      mstore\n      0x20\n      add\n      dup3\n      dup1\n      sload\n      0x1\n      dup2\n      0x1\n      and\n      iszero\n      0x100\n      mul\n      sub\n      and\n      0x2\n      swap1\n      div\n      dup1\n      iszero\n      tag_297\n      jumpi\n      dup1\n      0x1f\n      lt\n      tag_298\n      jumpi\n      0x100\n      dup1\n      dup4\n      sload\n      div\n      mul\n      dup4\n      mstore\n      swap2\n      0x20\n      add\n      swap2\n      jump(tag_297)\n    tag_298:\n      dup3\n      add\n      swap2\n      swap1\n      0x0\n      mstore\n      keccak256(0x0, 0x20)\n      swap1\n    tag_299:\n      dup2\n      sload\n      dup2\n      mstore\n      swap1\n      0x1\n      add\n      swap1\n      0x20\n      add\n      dup1\n      dup4\n      gt\n      tag_299\n      jumpi\n      dup3\n      swap1\n      sub\n      0x1f\n      and\n      dup3\n      add\n      swap2\n    tag_297:\n      pop\n      pop\n      pop\n      pop\n      pop\n      swap4\n      pop\n      swap8\n      pop\n      swap8\n      pop\n      swap8\n      pop\n      swap8\n      pop\n      swap8\n      pop\n      swap8\n      pop\n      swap8\n      pop\n        /* \"Smart Contract/contracts/ddddd.sol\":6134:6478  function getVaccinationInfo(address _address) public view returns(string, string, string, string, uint256, address, address) {\r... */\n      pop\n      swap2\n      swap4\n      swap6\n      swap8\n      swap1\n      swap3\n      swap5\n      swap7\n      pop\n      jump\t// out\n        /* \"Smart Contract/contracts/ddddd.sol\":1036:1056  address public owner */\n    tag_123:\n      0x0\n      dup1\n      swap1\n      sload\n      swap1\n      0x100\n      exp\n      swap1\n      div\n      0xffffffffffffffffffffffffffffffffffffffff\n      and\n      dup2\n      jump\t// out\n        /* \"Smart Contract/contracts/ddddd.sol\":1867:1911  uint256 public vaccinationRecordsCounter = 0 */\n    tag_127:\n      sload(0x10)\n      dup2\n      jump\t// out\n        /* \"Smart Contract/contracts/ddddd.sol\":1774:1813  uint256 public MoHPermissionCounter = 0 */\n    tag_131:\n      sload(0xe)\n      dup2\n      jump\t// out\n        /* \"Smart Contract/contracts/ddddd.sol\":1063:1088  address[] public userList */\n    tag_136:\n      0x1\n      dup2\n      dup2\n      sload\n      dup2\n      lt\n      iszero\n      iszero\n      tag_300\n      jumpi\n      invalid\n    tag_300:\n      swap1\n      0x0\n      mstore\n      keccak256(0x0, 0x20)\n      add\n      0x0\n      swap2\n      pop\n      sload\n      swap1\n      0x100\n      exp\n      swap1\n      div\n      0xffffffffffffffffffffffffffffffffffffffff\n      and\n      dup2\n      jump\t// out\n        /* \"Smart Contract/contracts/ddddd.sol\":8029:8118  function getDoctors() public view returns(address[]) {\r... */\n    tag_140:\n        /* \"Smart Contract/contracts/ddddd.sol\":8071:8080  address[] */\n      0x60\n        /* \"Smart Contract/contracts/ddddd.sol\":8100:8110  doctorList */\n      0x2\n        /* \"Smart Contract/contracts/ddddd.sol\":8093:8110  return doctorList */\n      dup1\n      sload\n      dup1\n      0x20\n      mul\n      0x20\n      add\n      mload(0x40)\n      swap1\n      dup2\n      add\n      0x40\n      mstore\n      dup1\n      swap3\n      swap2\n      swap1\n      dup2\n      dup2\n      mstore\n      0x20\n      add\n      dup3\n      dup1\n      sload\n      dup1\n      iszero\n      tag_303\n      jumpi\n      0x20\n      mul\n      dup3\n      add\n      swap2\n      swap1\n      0x0\n      mstore\n      keccak256(0x0, 0x20)\n      swap1\n    tag_304:\n      dup2\n      0x0\n      swap1\n      sload\n      swap1\n      0x100\n      exp\n      swap1\n      div\n      0xffffffffffffffffffffffffffffffffffffffff\n      and\n      0xffffffffffffffffffffffffffffffffffffffff\n      and\n      dup2\n      mstore\n      0x20\n      add\n      swap1\n      0x1\n      add\n      swap1\n      dup1\n      dup4\n      gt\n      tag_304\n      jumpi\n    tag_303:\n      pop\n      pop\n      pop\n      pop\n      pop\n      swap1\n      pop\n        /* \"Smart Contract/contracts/ddddd.sol\":8029:8118  function getDoctors() public view returns(address[]) {\r... */\n      swap1\n      jump\t// out\n        /* \"Smart Contract/contracts/ddddd.sol\":9210:9298  function getUserCount() public view returns(uint256) {\r... */\n    tag_144:\n        /* \"Smart Contract/contracts/ddddd.sol\":9254:9261  uint256 */\n      0x0\n        /* \"Smart Contract/contracts/ddddd.sol\":9281:9290  userCount */\n      sload(0xc)\n        /* \"Smart Contract/contracts/ddddd.sol\":9274:9290  return userCount */\n      swap1\n      pop\n        /* \"Smart Contract/contracts/ddddd.sol\":9210:9298  function getUserCount() public view returns(uint256) {\r... */\n      swap1\n      jump\t// out\n        /* \"Smart Contract/contracts/ddddd.sol\":1920:1989  address public mohAdress = 0xc50C6297f56b033633C30354A854b074749cd2dC */\n    tag_148:\n      0x11\n      0x0\n      swap1\n      sload\n      swap1\n      0x100\n      exp\n      swap1\n      div\n      0xffffffffffffffffffffffffffffffffffffffff\n      and\n      dup2\n      jump\t// out\n        /* \"Smart Contract/contracts/ddddd.sol\":7704:7924  function MoHRevokePermission(address _address1, address _address2) public returns(bool success) {\r... */\n    tag_154:\n        /* \"Smart Contract/contracts/ddddd.sol\":7786:7798  bool success */\n      0x0\n        /* \"Smart Contract/contracts/ddddd.sol\":7833:7842  mohAdress */\n      0x11\n      0x0\n      swap1\n      sload\n      swap1\n      0x100\n      exp\n      swap1\n      div\n      0xffffffffffffffffffffffffffffffffffffffff\n      and\n        /* \"Smart Contract/contracts/ddddd.sol\":7819:7842  msg.sender == mohAdress */\n      0xffffffffffffffffffffffffffffffffffffffff\n      and\n        /* \"Smart Contract/contracts/ddddd.sol\":7819:7829  msg.sender */\n      caller\n        /* \"Smart Contract/contracts/ddddd.sol\":7819:7842  msg.sender == mohAdress */\n      0xffffffffffffffffffffffffffffffffffffffff\n      and\n      eq\n        /* \"Smart Contract/contracts/ddddd.sol\":7811:7843  require(msg.sender == mohAdress) */\n      iszero\n      iszero\n      tag_307\n      jumpi\n      0x0\n      dup1\n      revert\n    tag_307:\n        /* \"Smart Contract/contracts/ddddd.sol\":7889:7894  false */\n      0x0\n        /* \"Smart Contract/contracts/ddddd.sol\":7854:7864  isApproved */\n      0x7\n        /* \"Smart Contract/contracts/ddddd.sol\":7854:7875  isApproved[_address1] */\n      0x0\n        /* \"Smart Contract/contracts/ddddd.sol\":7865:7874  _address1 */\n      dup6\n        /* \"Smart Contract/contracts/ddddd.sol\":7854:7875  isApproved[_address1] */\n      0xffffffffffffffffffffffffffffffffffffffff\n      and\n      0xffffffffffffffffffffffffffffffffffffffff\n      and\n      dup2\n      mstore\n      0x20\n      add\n      swap1\n      dup2\n      mstore\n      0x20\n      add\n      0x0\n      keccak256\n        /* \"Smart Contract/contracts/ddddd.sol\":7854:7886  isApproved[_address1][_address2] */\n      0x0\n        /* \"Smart Contract/contracts/ddddd.sol\":7876:7885  _address2 */\n      dup5\n        /* \"Smart Contract/contracts/ddddd.sol\":7854:7886  isApproved[_address1][_address2] */\n      0xffffffffffffffffffffffffffffffffffffffff\n      and\n      0xffffffffffffffffffffffffffffffffffffffff\n      and\n      dup2\n      mstore\n      0x20\n      add\n      swap1\n      dup2\n      mstore\n      0x20\n      add\n      0x0\n      keccak256\n      0x0\n        /* \"Smart Contract/contracts/ddddd.sol\":7854:7894  isApproved[_address1][_address2] = false */\n      0x100\n      exp\n      dup2\n      sload\n      dup2\n      0xff\n      mul\n      not\n      and\n      swap1\n      dup4\n      iszero\n      iszero\n      mul\n      or\n      swap1\n      sstore\n      pop\n        /* \"Smart Contract/contracts/ddddd.sol\":7912:7916  true */\n      0x1\n        /* \"Smart Contract/contracts/ddddd.sol\":7905:7916  return true */\n      swap1\n      pop\n        /* \"Smart Contract/contracts/ddddd.sol\":7704:7924  function MoHRevokePermission(address _address1, address _address2) public returns(bool success) {\r... */\n      swap3\n      swap2\n      pop\n      pop\n      jump\t// out\n        /* \"Smart Contract/contracts/ddddd.sol\":1820:1860  uint256 public userPermissionCounter = 0 */\n    tag_158:\n      sload(0xf)\n      dup2\n      jump\t// out\n        /* \"Smart Contract/contracts/ddddd.sol\":8825:9194  function searchDoctor(address _address) public view returns(string, string, string, string, string, string, string, address) {\r... */\n    tag_163:\n        /* \"Smart Contract/contracts/ddddd.sol\":8885:8891  string */\n      0x60\n        /* \"Smart Contract/contracts/ddddd.sol\":8893:8899  string */\n      dup1\n        /* \"Smart Contract/contracts/ddddd.sol\":8901:8907  string */\n      0x60\n        /* \"Smart Contract/contracts/ddddd.sol\":8909:8915  string */\n      dup1\n        /* \"Smart Contract/contracts/ddddd.sol\":8917:8923  string */\n      0x60\n        /* \"Smart Contract/contracts/ddddd.sol\":8925:8931  string */\n      dup1\n        /* \"Smart Contract/contracts/ddddd.sol\":8933:8939  string */\n      0x60\n        /* \"Smart Contract/contracts/ddddd.sol\":8941:8948  address */\n      0x0\n        /* \"Smart Contract/contracts/ddddd.sol\":9051:9056  var d */\n      dup1\n        /* \"Smart Contract/contracts/ddddd.sol\":8969:8979  isApproved */\n      0x7\n        /* \"Smart Contract/contracts/ddddd.sol\":8969:8989  isApproved[_address] */\n      0x0\n        /* \"Smart Contract/contracts/ddddd.sol\":8980:8988  _address */\n      dup12\n        /* \"Smart Contract/contracts/ddddd.sol\":8969:8989  isApproved[_address] */\n      0xffffffffffffffffffffffffffffffffffffffff\n      and\n      0xffffffffffffffffffffffffffffffffffffffff\n      and\n      dup2\n      mstore\n      0x20\n      add\n      swap1\n      dup2\n      mstore\n      0x20\n      add\n      0x0\n      keccak256\n        /* \"Smart Contract/contracts/ddddd.sol\":8969:9001  isApproved[_address][msg.sender] */\n      0x0\n        /* \"Smart Contract/contracts/ddddd.sol\":8990:9000  msg.sender */\n      caller\n        /* \"Smart Contract/contracts/ddddd.sol\":8969:9001  isApproved[_address][msg.sender] */\n      0xffffffffffffffffffffffffffffffffffffffff\n      and\n      0xffffffffffffffffffffffffffffffffffffffff\n      and\n      dup2\n      mstore\n      0x20\n      add\n      swap1\n      dup2\n      mstore\n      0x20\n      add\n      0x0\n      keccak256\n      0x0\n      swap1\n      sload\n      swap1\n      0x100\n      exp\n      swap1\n      div\n      0xff\n      and\n        /* \"Smart Contract/contracts/ddddd.sol\":8961:9002  require(isApproved[_address][msg.sender]) */\n      iszero\n      iszero\n      tag_309\n      jumpi\n      0x0\n      dup1\n      revert\n    tag_309:\n        /* \"Smart Contract/contracts/ddddd.sol\":9021:9029  isDoctor */\n      0xa\n        /* \"Smart Contract/contracts/ddddd.sol\":9021:9039  isDoctor[_address] */\n      0x0\n        /* \"Smart Contract/contracts/ddddd.sol\":9030:9038  _address */\n      dup12\n        /* \"Smart Contract/contracts/ddddd.sol\":9021:9039  isDoctor[_address] */\n      0xffffffffffffffffffffffffffffffffffffffff\n      and\n      0xffffffffffffffffffffffffffffffffffffffff\n      and\n      dup2\n      mstore\n      0x20\n      add\n      swap1\n      dup2\n      mstore\n      0x20\n      add\n      0x0\n      keccak256\n      0x0\n      swap1\n      sload\n      swap1\n      0x100\n      exp\n      swap1\n      div\n      0xff\n      and\n        /* \"Smart Contract/contracts/ddddd.sol\":9013:9040  require(isDoctor[_address]) */\n      iszero\n      iszero\n      tag_310\n      jumpi\n      0x0\n      dup1\n      revert\n    tag_310:\n        /* \"Smart Contract/contracts/ddddd.sol\":9059:9065  doctor */\n      0x5\n        /* \"Smart Contract/contracts/ddddd.sol\":9059:9075  doctor[_address] */\n      0x0\n        /* \"Smart Contract/contracts/ddddd.sol\":9066:9074  _address */\n      dup12\n        /* \"Smart Contract/contracts/ddddd.sol\":9059:9075  doctor[_address] */\n      0xffffffffffffffffffffffffffffffffffffffff\n      and\n      0xffffffffffffffffffffffffffffffffffffffff\n      and\n      dup2\n      mstore\n      0x20\n      add\n      swap1\n      dup2\n      mstore\n      0x20\n      add\n      0x0\n      keccak256\n        /* \"Smart Contract/contracts/ddddd.sol\":9051:9075  var d = doctor[_address] */\n      swap1\n      pop\n        /* \"Smart Contract/contracts/ddddd.sol\":9104:9105  d */\n      dup1\n        /* \"Smart Contract/contracts/ddddd.sol\":9104:9111  d.uaeId */\n      0x0\n      add\n        /* \"Smart Contract/contracts/ddddd.sol\":9113:9114  d */\n      dup2\n        /* \"Smart Contract/contracts/ddddd.sol\":9113:9119  d.name */\n      0x1\n      add\n        /* \"Smart Contract/contracts/ddddd.sol\":9121:9122  d */\n      dup3\n        /* \"Smart Contract/contracts/ddddd.sol\":9121:9128  d.phone */\n      0x2\n      add\n        /* \"Smart Contract/contracts/ddddd.sol\":9130:9131  d */\n      dup4\n        /* \"Smart Contract/contracts/ddddd.sol\":9130:9138  d.gender */\n      0x3\n      add\n        /* \"Smart Contract/contracts/ddddd.sol\":9140:9141  d */\n      dup5\n        /* \"Smart Contract/contracts/ddddd.sol\":9140:9147  d.email */\n      0x5\n      add\n        /* \"Smart Contract/contracts/ddddd.sol\":9149:9150  d */\n      dup6\n        /* \"Smart Contract/contracts/ddddd.sol\":9149:9164  d.qualification */\n      0x6\n      add\n        /* \"Smart Contract/contracts/ddddd.sol\":9166:9167  d */\n      dup7\n        /* \"Smart Contract/contracts/ddddd.sol\":9166:9173  d.major */\n      0x7\n      add\n        /* \"Smart Contract/contracts/ddddd.sol\":9175:9176  d */\n      dup8\n        /* \"Smart Contract/contracts/ddddd.sol\":9175:9185  d.eAddress */\n      0x8\n      add\n      0x0\n      swap1\n      sload\n      swap1\n      0x100\n      exp\n      swap1\n      div\n      0xffffffffffffffffffffffffffffffffffffffff\n      and\n        /* \"Smart Contract/contracts/ddddd.sol\":9096:9186  return (d.uaeId, d.name, d.phone, d.gender, d.email, d.qualification, d.major, d.eAddress) */\n      dup8\n      dup1\n      sload\n      0x1\n      dup2\n      0x1\n      and\n      iszero\n      0x100\n      mul\n      sub\n      and\n      0x2\n      swap1\n      div\n      dup1\n      0x1f\n      add\n      0x20\n      dup1\n      swap2\n      div\n      mul\n      0x20\n      add\n      mload(0x40)\n      swap1\n      dup2\n      add\n      0x40\n      mstore\n      dup1\n      swap3\n      swap2\n      swap1\n      dup2\n      dup2\n      mstore\n      0x20\n      add\n      dup3\n      dup1\n      sload\n      0x1\n      dup2\n      0x1\n      and\n      iszero\n      0x100\n      mul\n      sub\n      and\n      0x2\n      swap1\n      div\n      dup1\n      iszero\n      tag_311\n      jumpi\n      dup1\n      0x1f\n      lt\n      tag_312\n      jumpi\n      0x100\n      dup1\n      dup4\n      sload\n      div\n      mul\n      dup4\n      mstore\n      swap2\n      0x20\n      add\n      swap2\n      jump(tag_311)\n    tag_312:\n      dup3\n      add\n      swap2\n      swap1\n      0x0\n      mstore\n      keccak256(0x0, 0x20)\n      swap1\n    tag_313:\n      dup2\n      sload\n      dup2\n      mstore\n      swap1\n      0x1\n      add\n      swap1\n      0x20\n      add\n      dup1\n      dup4\n      gt\n      tag_313\n      jumpi\n      dup3\n      swap1\n      sub\n      0x1f\n      and\n      dup3\n      add\n      swap2\n    tag_311:\n      pop\n      pop\n      pop\n      pop\n      pop\n      swap8\n      pop\n      dup7\n      dup1\n      sload\n      0x1\n      dup2\n      0x1\n      and\n      iszero\n      0x100\n      mul\n      sub\n      and\n      0x2\n      swap1\n      div\n      dup1\n      0x1f\n      add\n      0x20\n      dup1\n      swap2\n      div\n      mul\n      0x20\n      add\n      mload(0x40)\n      swap1\n      dup2\n      add\n      0x40\n      mstore\n      dup1\n      swap3\n      swap2\n      swap1\n      dup2\n      dup2\n      mstore\n      0x20\n      add\n      dup3\n      dup1\n      sload\n      0x1\n      dup2\n      0x1\n      and\n      iszero\n      0x100\n      mul\n      sub\n      and\n      0x2\n      swap1\n      div\n      dup1\n      iszero\n      tag_314\n      jumpi\n      dup1\n      0x1f\n      lt\n      tag_315\n      jumpi\n      0x100\n      dup1\n      dup4\n      sload\n      div\n      mul\n      dup4\n      mstore\n      swap2\n      0x20\n      add\n      swap2\n      jump(tag_314)\n    tag_315:\n      dup3\n      add\n      swap2\n      swap1\n      0x0\n      mstore\n      keccak256(0x0, 0x20)\n      swap1\n    tag_316:\n      dup2\n      sload\n      dup2\n      mstore\n      swap1\n      0x1\n      add\n      swap1\n      0x20\n      add\n      dup1\n      dup4\n      gt\n      tag_316\n      jumpi\n      dup3\n      swap1\n      sub\n      0x1f\n      and\n      dup3\n      add\n      swap2\n    tag_314:\n      pop\n      pop\n      pop\n      pop\n      pop\n      swap7\n      pop\n      dup6\n      dup1\n      sload\n      0x1\n      dup2\n      0x1\n      and\n      iszero\n      0x100\n      mul\n      sub\n      and\n      0x2\n      swap1\n      div\n      dup1\n      0x1f\n      add\n      0x20\n      dup1\n      swap2\n      div\n      mul\n      0x20\n      add\n      mload(0x40)\n      swap1\n      dup2\n      add\n      0x40\n      mstore\n      dup1\n      swap3\n      swap2\n      swap1\n      dup2\n      dup2\n      mstore\n      0x20\n      add\n      dup3\n      dup1\n      sload\n      0x1\n      dup2\n      0x1\n      and\n      iszero\n      0x100\n      mul\n      sub\n      and\n      0x2\n      swap1\n      div\n      dup1\n      iszero\n      tag_317\n      jumpi\n      dup1\n      0x1f\n      lt\n      tag_318\n      jumpi\n      0x100\n      dup1\n      dup4\n      sload\n      div\n      mul\n      dup4\n      mstore\n      swap2\n      0x20\n      add\n      swap2\n      jump(tag_317)\n    tag_318:\n      dup3\n      add\n      swap2\n      swap1\n      0x0\n      mstore\n      keccak256(0x0, 0x20)\n      swap1\n    tag_319:\n      dup2\n      sload\n      dup2\n      mstore\n      swap1\n      0x1\n      add\n      swap1\n      0x20\n      add\n      dup1\n      dup4\n      gt\n      tag_319\n      jumpi\n      dup3\n      swap1\n      sub\n      0x1f\n      and\n      dup3\n      add\n      swap2\n    tag_317:\n      pop\n      pop\n      pop\n      pop\n      pop\n      swap6\n      pop\n      dup5\n      dup1\n      sload\n      0x1\n      dup2\n      0x1\n      and\n      iszero\n      0x100\n      mul\n      sub\n      and\n      0x2\n      swap1\n      div\n      dup1\n      0x1f\n      add\n      0x20\n      dup1\n      swap2\n      div\n      mul\n      0x20\n      add\n      mload(0x40)\n      swap1\n      dup2\n      add\n      0x40\n      mstore\n      dup1\n      swap3\n      swap2\n      swap1\n      dup2\n      dup2\n      mstore\n      0x20\n      add\n      dup3\n      dup1\n      sload\n      0x1\n      dup2\n      0x1\n      and\n      iszero\n      0x100\n      mul\n      sub\n      and\n      0x2\n      swap1\n      div\n      dup1\n      iszero\n      tag_320\n      jumpi\n      dup1\n      0x1f\n      lt\n      tag_321\n      jumpi\n      0x100\n      dup1\n      dup4\n      sload\n      div\n      mul\n      dup4\n      mstore\n      swap2\n      0x20\n      add\n      swap2\n      jump(tag_320)\n    tag_321:\n      dup3\n      add\n      swap2\n      swap1\n      0x0\n      mstore\n      keccak256(0x0, 0x20)\n      swap1\n    tag_322:\n      dup2\n      sload\n      dup2\n      mstore\n      swap1\n      0x1\n      add\n      swap1\n      0x20\n      add\n      dup1\n      dup4\n      gt\n      tag_322\n      jumpi\n      dup3\n      swap1\n      sub\n      0x1f\n      and\n      dup3\n      add\n      swap2\n    tag_320:\n      pop\n      pop\n      pop\n      pop\n      pop\n      swap5\n      pop\n      dup4\n      dup1\n      sload\n      0x1\n      dup2\n      0x1\n      and\n      iszero\n      0x100\n      mul\n      sub\n      and\n      0x2\n      swap1\n      div\n      dup1\n      0x1f\n      add\n      0x20\n      dup1\n      swap2\n      div\n      mul\n      0x20\n      add\n      mload(0x40)\n      swap1\n      dup2\n      add\n      0x40\n      mstore\n      dup1\n      swap3\n      swap2\n      swap1\n      dup2\n      dup2\n      mstore\n      0x20\n      add\n      dup3\n      dup1\n      sload\n      0x1\n      dup2\n      0x1\n      and\n      iszero\n      0x100\n      mul\n      sub\n      and\n      0x2\n      swap1\n      div\n      dup1\n      iszero\n      tag_323\n      jumpi\n      dup1\n      0x1f\n      lt\n      tag_324\n      jumpi\n      0x100\n      dup1\n      dup4\n      sload\n      div\n      mul\n      dup4\n      mstore\n      swap2\n      0x20\n      add\n      swap2\n      jump(tag_323)\n    tag_324:\n      dup3\n      add\n      swap2\n      swap1\n      0x0\n      mstore\n      keccak256(0x0, 0x20)\n      swap1\n    tag_325:\n      dup2\n      sload\n      dup2\n      mstore\n      swap1\n      0x1\n      add\n      swap1\n      0x20\n      add\n      dup1\n      dup4\n      gt\n      tag_325\n      jumpi\n      dup3\n      swap1\n      sub\n      0x1f\n      and\n      dup3\n      add\n      swap2\n    tag_323:\n      pop\n      pop\n      pop\n      pop\n      pop\n      swap4\n      pop\n      dup3\n      dup1\n      sload\n      0x1\n      dup2\n      0x1\n      and\n      iszero\n      0x100\n      mul\n      sub\n      and\n      0x2\n      swap1\n      div\n      dup1\n      0x1f\n      add\n      0x20\n      dup1\n      swap2\n      div\n      mul\n      0x20\n      add\n      mload(0x40)\n      swap1\n      dup2\n      add\n      0x40\n      mstore\n      dup1\n      swap3\n      swap2\n      swap1\n      dup2\n      dup2\n      mstore\n      0x20\n      add\n      dup3\n      dup1\n      sload\n      0x1\n      dup2\n      0x1\n      and\n      iszero\n      0x100\n      mul\n      sub\n      and\n      0x2\n      swap1\n      div\n      dup1\n      iszero\n      tag_326\n      jumpi\n      dup1\n      0x1f\n      lt\n      tag_327\n      jumpi\n      0x100\n      dup1\n      dup4\n      sload\n      div\n      mul\n      dup4\n      mstore\n      swap2\n      0x20\n      add\n      swap2\n      jump(tag_326)\n    tag_327:\n      dup3\n      add\n      swap2\n      swap1\n      0x0\n      mstore\n      keccak256(0x0, 0x20)\n      swap1\n    tag_328:\n      dup2\n      sload\n      dup2\n      mstore\n      swap1\n      0x1\n      add\n      swap1\n      0x20\n      add\n      dup1\n      dup4\n      gt\n      tag_328\n      jumpi\n      dup3\n      swap1\n      sub\n      0x1f\n      and\n      dup3\n      add\n      swap2\n    tag_326:\n      pop\n      pop\n      pop\n      pop\n      pop\n      swap3\n      pop\n      dup2\n      dup1\n      sload\n      0x1\n      dup2\n      0x1\n      and\n      iszero\n      0x100\n      mul\n      sub\n      and\n      0x2\n      swap1\n      div\n      dup1\n      0x1f\n      add\n      0x20\n      dup1\n      swap2\n      div\n      mul\n      0x20\n      add\n      mload(0x40)\n      swap1\n      dup2\n      add\n      0x40\n      mstore\n      dup1\n      swap3\n      swap2\n      swap1\n      dup2\n      dup2\n      mstore\n      0x20\n      add\n      dup3\n      dup1\n      sload\n      0x1\n      dup2\n      0x1\n      and\n      iszero\n      0x100\n      mul\n      sub\n      and\n      0x2\n      swap1\n      div\n      dup1\n      iszero\n      tag_329\n      jumpi\n      dup1\n      0x1f\n      lt\n      tag_330\n      jumpi\n      0x100\n      dup1\n      dup4\n      sload\n      div\n      mul\n      dup4\n      mstore\n      swap2\n      0x20\n      add\n      swap2\n      jump(tag_329)\n    tag_330:\n      dup3\n      add\n      swap2\n      swap1\n      0x0\n      mstore\n      keccak256(0x0, 0x20)\n      swap1\n    tag_331:\n      dup2\n      sload\n      dup2\n      mstore\n      swap1\n      0x1\n      add\n      swap1\n      0x20\n      add\n      dup1\n      dup4\n      gt\n      tag_331\n      jumpi\n      dup3\n      swap1\n      sub\n      0x1f\n      and\n      dup3\n      add\n      swap2\n    tag_329:\n      pop\n      pop\n      pop\n      pop\n      pop\n      swap2\n      pop\n      swap9\n      pop\n      swap9\n      pop\n      swap9\n      pop\n      swap9\n      pop\n      swap9\n      pop\n      swap9\n      pop\n      swap9\n      pop\n      swap9\n      pop\n        /* \"Smart Contract/contracts/ddddd.sol\":8825:9194  function searchDoctor(address _address) public view returns(string, string, string, string, string, string, string, address) {\r... */\n      pop\n      swap2\n      swap4\n      swap6\n      swap8\n      pop\n      swap2\n      swap4\n      swap6\n      swap8\n      jump\t// out\n        /* \"Smart Contract/contracts/ddddd.sol\":6687:6939  function givePermissionByMoH(address _address1, address _address2) public returns(bool success) {\r... */\n    tag_168:\n        /* \"Smart Contract/contracts/ddddd.sol\":6769:6781  bool success */\n      0x0\n        /* \"Smart Contract/contracts/ddddd.sol\":6816:6825  mohAdress */\n      0x11\n      0x0\n      swap1\n      sload\n      swap1\n      0x100\n      exp\n      swap1\n      div\n      0xffffffffffffffffffffffffffffffffffffffff\n      and\n        /* \"Smart Contract/contracts/ddddd.sol\":6802:6825  msg.sender == mohAdress */\n      0xffffffffffffffffffffffffffffffffffffffff\n      and\n        /* \"Smart Contract/contracts/ddddd.sol\":6802:6812  msg.sender */\n      caller\n        /* \"Smart Contract/contracts/ddddd.sol\":6802:6825  msg.sender == mohAdress */\n      0xffffffffffffffffffffffffffffffffffffffff\n      and\n      eq\n        /* \"Smart Contract/contracts/ddddd.sol\":6794:6826  require(msg.sender == mohAdress) */\n      iszero\n      iszero\n      tag_333\n      jumpi\n      0x0\n      dup1\n      revert\n    tag_333:\n        /* \"Smart Contract/contracts/ddddd.sol\":6872:6876  true */\n      0x1\n        /* \"Smart Contract/contracts/ddddd.sol\":6837:6847  isApproved */\n      0x7\n        /* \"Smart Contract/contracts/ddddd.sol\":6837:6858  isApproved[_address1] */\n      0x0\n        /* \"Smart Contract/contracts/ddddd.sol\":6848:6857  _address1 */\n      dup6\n        /* \"Smart Contract/contracts/ddddd.sol\":6837:6858  isApproved[_address1] */\n      0xffffffffffffffffffffffffffffffffffffffff\n      and\n      0xffffffffffffffffffffffffffffffffffffffff\n      and\n      dup2\n      mstore\n      0x20\n      add\n      swap1\n      dup2\n      mstore\n      0x20\n      add\n      0x0\n      keccak256\n        /* \"Smart Contract/contracts/ddddd.sol\":6837:6869  isApproved[_address1][_address2] */\n      0x0\n        /* \"Smart Contract/contracts/ddddd.sol\":6859:6868  _address2 */\n      dup5\n        /* \"Smart Contract/contracts/ddddd.sol\":6837:6869  isApproved[_address1][_address2] */\n      0xffffffffffffffffffffffffffffffffffffffff\n      and\n      0xffffffffffffffffffffffffffffffffffffffff\n      and\n      dup2\n      mstore\n      0x20\n      add\n      swap1\n      dup2\n      mstore\n      0x20\n      add\n      0x0\n      keccak256\n      0x0\n        /* \"Smart Contract/contracts/ddddd.sol\":6837:6876  isApproved[_address1][_address2] = true */\n      0x100\n      exp\n      dup2\n      sload\n      dup2\n      0xff\n      mul\n      not\n      and\n      swap1\n      dup4\n      iszero\n      iszero\n      mul\n      or\n      swap1\n      sstore\n      pop\n        /* \"Smart Contract/contracts/ddddd.sol\":6887:6907  MoHPermissionCounter */\n      0xe\n      0x0\n        /* \"Smart Contract/contracts/ddddd.sol\":6887:6909  MoHPermissionCounter++ */\n      dup2\n      sload\n      dup1\n      swap3\n      swap2\n      swap1\n      0x1\n      add\n      swap2\n      swap1\n      pop\n      sstore\n      pop\n        /* \"Smart Contract/contracts/ddddd.sol\":6927:6931  true */\n      0x1\n        /* \"Smart Contract/contracts/ddddd.sol\":6920:6931  return true */\n      swap1\n      pop\n        /* \"Smart Contract/contracts/ddddd.sol\":6687:6939  function givePermissionByMoH(address _address1, address _address2) public returns(bool success) {\r... */\n      swap3\n      swap2\n      pop\n      pop\n      jump\t// out\n        /* \"Smart Contract/contracts/ddddd.sol\":6947:7249  function givePermissionToVaccinate(address _address1, address _address2) public returns(bool success) {\r... */\n    tag_173:\n        /* \"Smart Contract/contracts/ddddd.sol\":7035:7047  bool success */\n      0x0\n        /* \"Smart Contract/contracts/ddddd.sol\":7082:7091  mohAdress */\n      0x11\n      0x0\n      swap1\n      sload\n      swap1\n      0x100\n      exp\n      swap1\n      div\n      0xffffffffffffffffffffffffffffffffffffffff\n      and\n        /* \"Smart Contract/contracts/ddddd.sol\":7068:7091  msg.sender == mohAdress */\n      0xffffffffffffffffffffffffffffffffffffffff\n      and\n        /* \"Smart Contract/contracts/ddddd.sol\":7068:7078  msg.sender */\n      caller\n        /* \"Smart Contract/contracts/ddddd.sol\":7068:7091  msg.sender == mohAdress */\n      0xffffffffffffffffffffffffffffffffffffffff\n      and\n      eq\n        /* \"Smart Contract/contracts/ddddd.sol\":7060:7092  require(msg.sender == mohAdress) */\n      iszero\n      iszero\n      tag_335\n      jumpi\n      0x0\n      dup1\n      revert\n    tag_335:\n        /* \"Smart Contract/contracts/ddddd.sol\":7111:7119  isDoctor */\n      0xa\n        /* \"Smart Contract/contracts/ddddd.sol\":7111:7130  isDoctor[_address2] */\n      0x0\n        /* \"Smart Contract/contracts/ddddd.sol\":7120:7129  _address2 */\n      dup4\n        /* \"Smart Contract/contracts/ddddd.sol\":7111:7130  isDoctor[_address2] */\n      0xffffffffffffffffffffffffffffffffffffffff\n      and\n      0xffffffffffffffffffffffffffffffffffffffff\n      and\n      dup2\n      mstore\n      0x20\n      add\n      swap1\n      dup2\n      mstore\n      0x20\n      add\n      0x0\n      keccak256\n      0x0\n      swap1\n      sload\n      swap1\n      0x100\n      exp\n      swap1\n      div\n      0xff\n      and\n        /* \"Smart Contract/contracts/ddddd.sol\":7103:7131  require(isDoctor[_address2]) */\n      iszero\n      iszero\n      tag_336\n      jumpi\n      0x0\n      dup1\n      revert\n    tag_336:\n        /* \"Smart Contract/contracts/ddddd.sol\":7182:7186  true */\n      0x1\n        /* \"Smart Contract/contracts/ddddd.sol\":7142:7157  isApprovedByMoH */\n      0x8\n        /* \"Smart Contract/contracts/ddddd.sol\":7142:7168  isApprovedByMoH[_address1] */\n      0x0\n        /* \"Smart Contract/contracts/ddddd.sol\":7158:7167  _address1 */\n      dup6\n        /* \"Smart Contract/contracts/ddddd.sol\":7142:7168  isApprovedByMoH[_address1] */\n      0xffffffffffffffffffffffffffffffffffffffff\n      and\n      0xffffffffffffffffffffffffffffffffffffffff\n      and\n      dup2\n      mstore\n      0x20\n      add\n      swap1\n      dup2\n      mstore\n      0x20\n      add\n      0x0\n      keccak256\n        /* \"Smart Contract/contracts/ddddd.sol\":7142:7179  isApprovedByMoH[_address1][_address2] */\n      0x0\n        /* \"Smart Contract/contracts/ddddd.sol\":7169:7178  _address2 */\n      dup5\n        /* \"Smart Contract/contracts/ddddd.sol\":7142:7179  isApprovedByMoH[_address1][_address2] */\n      0xffffffffffffffffffffffffffffffffffffffff\n      and\n      0xffffffffffffffffffffffffffffffffffffffff\n      and\n      dup2\n      mstore\n      0x20\n      add\n      swap1\n      dup2\n      mstore\n      0x20\n      add\n      0x0\n      keccak256\n      0x0\n        /* \"Smart Contract/contracts/ddddd.sol\":7142:7186  isApprovedByMoH[_address1][_address2] = true */\n      0x100\n      exp\n      dup2\n      sload\n      dup2\n      0xff\n      mul\n      not\n      and\n      swap1\n      dup4\n      iszero\n      iszero\n      mul\n      or\n      swap1\n      sstore\n      pop\n        /* \"Smart Contract/contracts/ddddd.sol\":7197:7217  MoHPermissionCounter */\n      0xe\n      0x0\n        /* \"Smart Contract/contracts/ddddd.sol\":7197:7219  MoHPermissionCounter++ */\n      dup2\n      sload\n      dup1\n      swap3\n      swap2\n      swap1\n      0x1\n      add\n      swap2\n      swap1\n      pop\n      sstore\n      pop\n        /* \"Smart Contract/contracts/ddddd.sol\":7237:7241  true */\n      0x1\n        /* \"Smart Contract/contracts/ddddd.sol\":7230:7241  return true */\n      swap1\n      pop\n        /* \"Smart Contract/contracts/ddddd.sol\":6947:7249  function givePermissionToVaccinate(address _address1, address _address2) public returns(bool success) {\r... */\n      swap3\n      swap2\n      pop\n      pop\n      jump\t// out\n        /* \"Smart Contract/contracts/ddddd.sol\":9532:9642  function getMoHPermissionCounter() public view returns(uint256) {\r... */\n    tag_177:\n        /* \"Smart Contract/contracts/ddddd.sol\":9587:9594  uint256 */\n      0x0\n        /* \"Smart Contract/contracts/ddddd.sol\":9614:9634  MoHPermissionCounter */\n      sload(0xe)\n        /* \"Smart Contract/contracts/ddddd.sol\":9607:9634  return MoHPermissionCounter */\n      swap1\n      pop\n        /* \"Smart Contract/contracts/ddddd.sol\":9532:9642  function getMoHPermissionCounter() public view returns(uint256) {\r... */\n      swap1\n      jump\t// out\n        /* \"Smart Contract/contracts/ddddd.sol\":7257:7530  function revokePermissionToVaccinate(address _address1, address _address2) public returns(bool success) {\r... */\n    tag_182:\n        /* \"Smart Contract/contracts/ddddd.sol\":7347:7359  bool success */\n      0x0\n        /* \"Smart Contract/contracts/ddddd.sol\":7394:7403  mohAdress */\n      0x11\n      0x0\n      swap1\n      sload\n      swap1\n      0x100\n      exp\n      swap1\n      div\n      0xffffffffffffffffffffffffffffffffffffffff\n      and\n        /* \"Smart Contract/contracts/ddddd.sol\":7380:7403  msg.sender == mohAdress */\n      0xffffffffffffffffffffffffffffffffffffffff\n      and\n        /* \"Smart Contract/contracts/ddddd.sol\":7380:7390  msg.sender */\n      caller\n        /* \"Smart Contract/contracts/ddddd.sol\":7380:7403  msg.sender == mohAdress */\n      0xffffffffffffffffffffffffffffffffffffffff\n      and\n      eq\n        /* \"Smart Contract/contracts/ddddd.sol\":7372:7404  require(msg.sender == mohAdress) */\n      iszero\n      iszero\n      tag_339\n      jumpi\n      0x0\n      dup1\n      revert\n    tag_339:\n        /* \"Smart Contract/contracts/ddddd.sol\":7423:7431  isDoctor */\n      0xa\n        /* \"Smart Contract/contracts/ddddd.sol\":7423:7442  isDoctor[_address2] */\n      0x0\n        /* \"Smart Contract/contracts/ddddd.sol\":7432:7441  _address2 */\n      dup4\n        /* \"Smart Contract/contracts/ddddd.sol\":7423:7442  isDoctor[_address2] */\n      0xffffffffffffffffffffffffffffffffffffffff\n      and\n      0xffffffffffffffffffffffffffffffffffffffff\n      and\n      dup2\n      mstore\n      0x20\n      add\n      swap1\n      dup2\n      mstore\n      0x20\n      add\n      0x0\n      keccak256\n      0x0\n      swap1\n      sload\n      swap1\n      0x100\n      exp\n      swap1\n      div\n      0xff\n      and\n        /* \"Smart Contract/contracts/ddddd.sol\":7415:7443  require(isDoctor[_address2]) */\n      iszero\n      iszero\n      tag_340\n      jumpi\n      0x0\n      dup1\n      revert\n    tag_340:\n        /* \"Smart Contract/contracts/ddddd.sol\":7494:7499  false */\n      0x0\n        /* \"Smart Contract/contracts/ddddd.sol\":7454:7469  isApprovedByMoH */\n      0x8\n        /* \"Smart Contract/contracts/ddddd.sol\":7454:7480  isApprovedByMoH[_address1] */\n      0x0\n        /* \"Smart Contract/contracts/ddddd.sol\":7470:7479  _address1 */\n      dup6\n        /* \"Smart Contract/contracts/ddddd.sol\":7454:7480  isApprovedByMoH[_address1] */\n      0xffffffffffffffffffffffffffffffffffffffff\n      and\n      0xffffffffffffffffffffffffffffffffffffffff\n      and\n      dup2\n      mstore\n      0x20\n      add\n      swap1\n      dup2\n      mstore\n      0x20\n      add\n      0x0\n      keccak256\n        /* \"Smart Contract/contracts/ddddd.sol\":7454:7491  isApprovedByMoH[_address1][_address2] */\n      0x0\n        /* \"Smart Contract/contracts/ddddd.sol\":7481:7490  _address2 */\n      dup5\n        /* \"Smart Contract/contracts/ddddd.sol\":7454:7491  isApprovedByMoH[_address1][_address2] */\n      0xffffffffffffffffffffffffffffffffffffffff\n      and\n      0xffffffffffffffffffffffffffffffffffffffff\n      and\n      dup2\n      mstore\n      0x20\n      add\n      swap1\n      dup2\n      mstore\n      0x20\n      add\n      0x0\n      keccak256\n      0x0\n        /* \"Smart Contract/contracts/ddddd.sol\":7454:7499  isApprovedByMoH[_address1][_address2] = false */\n      0x100\n      exp\n      dup2\n      sload\n      dup2\n      0xff\n      mul\n      not\n      and\n      swap1\n      dup4\n      iszero\n      iszero\n      mul\n      or\n      swap1\n      sstore\n      pop\n        /* \"Smart Contract/contracts/ddddd.sol\":7517:7522  false */\n      0x0\n        /* \"Smart Contract/contracts/ddddd.sol\":7510:7522  return false */\n      swap1\n      pop\n        /* \"Smart Contract/contracts/ddddd.sol\":7257:7530  function revokePermissionToVaccinate(address _address1, address _address2) public returns(bool success) {\r... */\n      swap3\n      swap2\n      pop\n      pop\n      jump\t// out\n        /* \"Smart Contract/contracts/ddddd.sol\":1129:1161  address[] public vaccinationList */\n    tag_187:\n      0x3\n      dup2\n      dup2\n      sload\n      dup2\n      lt\n      iszero\n      iszero\n      tag_341\n      jumpi\n      invalid\n    tag_341:\n      swap1\n      0x0\n      mstore\n      keccak256(0x0, 0x20)\n      add\n      0x0\n      swap2\n      pop\n      sload\n      swap1\n      0x100\n      exp\n      swap1\n      div\n      0xffffffffffffffffffffffffffffffffffffffff\n      and\n      dup2\n      jump\t// out\n        /* \"Smart Contract/contracts/ddddd.sol\":91:9959  contract ddddd {\r... */\n    tag_222:\n      dup3\n      dup1\n      sload\n      0x1\n      dup2\n      0x1\n      and\n      iszero\n      0x100\n      mul\n      sub\n      and\n      0x2\n      swap1\n      div\n      swap1\n      0x0\n      mstore\n      keccak256(0x0, 0x20)\n      swap1\n      0x1f\n      add\n      0x20\n      swap1\n      div\n      dup2\n      add\n      swap3\n      dup3\n      0x1f\n      lt\n      tag_344\n      jumpi\n      dup1\n      mload\n      not(0xff)\n      and\n      dup4\n      dup1\n      add\n      or\n      dup6\n      sstore\n      jump(tag_343)\n    tag_344:\n      dup3\n      dup1\n      add\n      0x1\n      add\n      dup6\n      sstore\n      dup3\n      iszero\n      tag_343\n      jumpi\n      swap2\n      dup3\n      add\n    tag_345:\n      dup3\n      dup2\n      gt\n      iszero\n      tag_346\n      jumpi\n      dup3\n      mload\n      dup3\n      sstore\n      swap2\n      0x20\n      add\n      swap2\n      swap1\n      0x1\n      add\n      swap1\n      jump(tag_345)\n    tag_346:\n    tag_343:\n      pop\n      swap1\n      pop\n      tag_347\n      swap2\n      swap1\n      jump\t// in(tag_348)\n    tag_347:\n      pop\n      swap1\n      jump\t// out\n    tag_348:\n      tag_349\n      swap2\n      swap1\n    tag_350:\n      dup1\n      dup3\n      gt\n      iszero\n      tag_351\n      jumpi\n      0x0\n      dup2\n      0x0\n      swap1\n      sstore\n      pop\n      0x1\n      add\n      jump(tag_350)\n    tag_351:\n      pop\n      swap1\n      jump\n    tag_349:\n      swap1\n      jump\t// out\n        /* \"--CODEGEN--\":5:123   */\n    tag_353:\n      0x0\n        /* \"--CODEGEN--\":72:118   */\n      tag_354\n        /* \"--CODEGEN--\":110:116   */\n      dup3\n        /* \"--CODEGEN--\":97:117   */\n      calldataload\n        /* \"--CODEGEN--\":72:118   */\n      jump(tag_355)\n    tag_354:\n        /* \"--CODEGEN--\":63:118   */\n      swap1\n      pop\n        /* \"--CODEGEN--\":57:123   */\n      swap3\n      swap2\n      pop\n      pop\n      jump\n        /* \"--CODEGEN--\":131:573   */\n    tag_357:\n      0x0\n        /* \"--CODEGEN--\":233:236   */\n      dup3\n        /* \"--CODEGEN--\":226:230   */\n      0x1f\n        /* \"--CODEGEN--\":218:224   */\n      dup4\n        /* \"--CODEGEN--\":214:231   */\n      add\n        /* \"--CODEGEN--\":210:237   */\n      slt\n        /* \"--CODEGEN--\":203:238   */\n      iszero\n        /* \"--CODEGEN--\":200:202   */\n      iszero\n      tag_358\n      jumpi\n        /* \"--CODEGEN--\":251:252   */\n      0x0\n        /* \"--CODEGEN--\":248:249   */\n      dup1\n        /* \"--CODEGEN--\":241:253   */\n      revert\n        /* \"--CODEGEN--\":200:202   */\n    tag_358:\n        /* \"--CODEGEN--\":288:294   */\n      dup2\n        /* \"--CODEGEN--\":275:295   */\n      calldataload\n        /* \"--CODEGEN--\":310:375   */\n      tag_359\n        /* \"--CODEGEN--\":325:374   */\n      tag_360\n        /* \"--CODEGEN--\":367:373   */\n      dup3\n        /* \"--CODEGEN--\":325:374   */\n      jump(tag_361)\n    tag_360:\n        /* \"--CODEGEN--\":310:375   */\n      jump(tag_362)\n    tag_359:\n        /* \"--CODEGEN--\":301:375   */\n      swap2\n      pop\n        /* \"--CODEGEN--\":395:401   */\n      dup1\n        /* \"--CODEGEN--\":388:393   */\n      dup3\n        /* \"--CODEGEN--\":381:402   */\n      mstore\n        /* \"--CODEGEN--\":431:435   */\n      0x20\n        /* \"--CODEGEN--\":423:429   */\n      dup4\n        /* \"--CODEGEN--\":419:436   */\n      add\n        /* \"--CODEGEN--\":464:468   */\n      0x20\n        /* \"--CODEGEN--\":457:462   */\n      dup4\n        /* \"--CODEGEN--\":453:469   */\n      add\n        /* \"--CODEGEN--\":499:502   */\n      dup6\n        /* \"--CODEGEN--\":490:496   */\n      dup4\n        /* \"--CODEGEN--\":485:488   */\n      dup4\n        /* \"--CODEGEN--\":481:497   */\n      add\n        /* \"--CODEGEN--\":478:503   */\n      gt\n        /* \"--CODEGEN--\":475:477   */\n      iszero\n      tag_363\n      jumpi\n        /* \"--CODEGEN--\":516:517   */\n      0x0\n        /* \"--CODEGEN--\":513:514   */\n      dup1\n        /* \"--CODEGEN--\":506:518   */\n      revert\n        /* \"--CODEGEN--\":475:477   */\n    tag_363:\n        /* \"--CODEGEN--\":526:567   */\n      tag_364\n        /* \"--CODEGEN--\":560:566   */\n      dup4\n        /* \"--CODEGEN--\":555:558   */\n      dup3\n        /* \"--CODEGEN--\":550:553   */\n      dup5\n        /* \"--CODEGEN--\":526:567   */\n      jump(tag_365)\n    tag_364:\n        /* \"--CODEGEN--\":193:573   */\n      pop\n      pop\n      pop\n      swap3\n      swap2\n      pop\n      pop\n      jump\n        /* \"--CODEGEN--\":581:699   */\n    tag_367:\n      0x0\n        /* \"--CODEGEN--\":648:694   */\n      tag_368\n        /* \"--CODEGEN--\":686:692   */\n      dup3\n        /* \"--CODEGEN--\":673:693   */\n      calldataload\n        /* \"--CODEGEN--\":648:694   */\n      jump(tag_369)\n    tag_368:\n        /* \"--CODEGEN--\":639:694   */\n      swap1\n      pop\n        /* \"--CODEGEN--\":633:699   */\n      swap3\n      swap2\n      pop\n      pop\n      jump\n        /* \"--CODEGEN--\":706:947   */\n    tag_47:\n      0x0\n        /* \"--CODEGEN--\":810:812   */\n      0x20\n        /* \"--CODEGEN--\":798:807   */\n      dup3\n        /* \"--CODEGEN--\":789:796   */\n      dup5\n        /* \"--CODEGEN--\":785:808   */\n      sub\n        /* \"--CODEGEN--\":781:813   */\n      slt\n        /* \"--CODEGEN--\":778:780   */\n      iszero\n      tag_371\n      jumpi\n        /* \"--CODEGEN--\":826:827   */\n      0x0\n        /* \"--CODEGEN--\":823:824   */\n      dup1\n        /* \"--CODEGEN--\":816:828   */\n      revert\n        /* \"--CODEGEN--\":778:780   */\n    tag_371:\n        /* \"--CODEGEN--\":861:862   */\n      0x0\n        /* \"--CODEGEN--\":878:931   */\n      tag_372\n        /* \"--CODEGEN--\":923:930   */\n      dup5\n        /* \"--CODEGEN--\":914:920   */\n      dup3\n        /* \"--CODEGEN--\":903:912   */\n      dup6\n        /* \"--CODEGEN--\":899:921   */\n      add\n        /* \"--CODEGEN--\":878:931   */\n      jump(tag_353)\n    tag_372:\n        /* \"--CODEGEN--\":868:931   */\n      swap2\n      pop\n        /* \"--CODEGEN--\":840:937   */\n      pop\n        /* \"--CODEGEN--\":772:947   */\n      swap3\n      swap2\n      pop\n      pop\n      jump\n        /* \"--CODEGEN--\":954:1320   */\n    tag_153:\n      0x0\n      dup1\n        /* \"--CODEGEN--\":1075:1077   */\n      0x40\n        /* \"--CODEGEN--\":1063:1072   */\n      dup4\n        /* \"--CODEGEN--\":1054:1061   */\n      dup6\n        /* \"--CODEGEN--\":1050:1073   */\n      sub\n        /* \"--CODEGEN--\":1046:1078   */\n      slt\n        /* \"--CODEGEN--\":1043:1045   */\n      iszero\n      tag_374\n      jumpi\n        /* \"--CODEGEN--\":1091:1092   */\n      0x0\n        /* \"--CODEGEN--\":1088:1089   */\n      dup1\n        /* \"--CODEGEN--\":1081:1093   */\n      revert\n        /* \"--CODEGEN--\":1043:1045   */\n    tag_374:\n        /* \"--CODEGEN--\":1126:1127   */\n      0x0\n        /* \"--CODEGEN--\":1143:1196   */\n      tag_375\n        /* \"--CODEGEN--\":1188:1195   */\n      dup6\n        /* \"--CODEGEN--\":1179:1185   */\n      dup3\n        /* \"--CODEGEN--\":1168:1177   */\n      dup7\n        /* \"--CODEGEN--\":1164:1186   */\n      add\n        /* \"--CODEGEN--\":1143:1196   */\n      jump(tag_353)\n    tag_375:\n        /* \"--CODEGEN--\":1133:1196   */\n      swap3\n      pop\n        /* \"--CODEGEN--\":1105:1202   */\n      pop\n        /* \"--CODEGEN--\":1233:1235   */\n      0x20\n        /* \"--CODEGEN--\":1251:1304   */\n      tag_376\n        /* \"--CODEGEN--\":1296:1303   */\n      dup6\n        /* \"--CODEGEN--\":1287:1293   */\n      dup3\n        /* \"--CODEGEN--\":1276:1285   */\n      dup7\n        /* \"--CODEGEN--\":1272:1294   */\n      add\n        /* \"--CODEGEN--\":1251:1304   */\n      jump(tag_353)\n    tag_376:\n        /* \"--CODEGEN--\":1241:1304   */\n      swap2\n      pop\n        /* \"--CODEGEN--\":1212:1310   */\n      pop\n        /* \"--CODEGEN--\":1037:1320   */\n      swap3\n      pop\n      swap3\n      swap1\n      pop\n      jump\n        /* \"--CODEGEN--\":1327:2746   */\n    tag_85:\n      0x0\n      dup1\n      0x0\n      dup1\n      0x0\n      dup1\n      0x0\n        /* \"--CODEGEN--\":1573:1576   */\n      0xe0\n        /* \"--CODEGEN--\":1561:1570   */\n      dup9\n        /* \"--CODEGEN--\":1552:1559   */\n      dup11\n        /* \"--CODEGEN--\":1548:1571   */\n      sub\n        /* \"--CODEGEN--\":1544:1577   */\n      slt\n        /* \"--CODEGEN--\":1541:1543   */\n      iszero\n      tag_378\n      jumpi\n        /* \"--CODEGEN--\":1590:1591   */\n      0x0\n        /* \"--CODEGEN--\":1587:1588   */\n      dup1\n        /* \"--CODEGEN--\":1580:1592   */\n      revert\n        /* \"--CODEGEN--\":1541:1543   */\n    tag_378:\n        /* \"--CODEGEN--\":1625:1626   */\n      0x0\n        /* \"--CODEGEN--\":1642:1695   */\n      tag_379\n        /* \"--CODEGEN--\":1687:1694   */\n      dup11\n        /* \"--CODEGEN--\":1678:1684   */\n      dup3\n        /* \"--CODEGEN--\":1667:1676   */\n      dup12\n        /* \"--CODEGEN--\":1663:1685   */\n      add\n        /* \"--CODEGEN--\":1642:1695   */\n      jump(tag_353)\n    tag_379:\n        /* \"--CODEGEN--\":1632:1695   */\n      swap8\n      pop\n        /* \"--CODEGEN--\":1604:1701   */\n      pop\n        /* \"--CODEGEN--\":1732:1734   */\n      0x20\n        /* \"--CODEGEN--\":1750:1803   */\n      tag_380\n        /* \"--CODEGEN--\":1795:1802   */\n      dup11\n        /* \"--CODEGEN--\":1786:1792   */\n      dup3\n        /* \"--CODEGEN--\":1775:1784   */\n      dup12\n        /* \"--CODEGEN--\":1771:1793   */\n      add\n        /* \"--CODEGEN--\":1750:1803   */\n      jump(tag_353)\n    tag_380:\n        /* \"--CODEGEN--\":1740:1803   */\n      swap7\n      pop\n        /* \"--CODEGEN--\":1711:1809   */\n      pop\n        /* \"--CODEGEN--\":1868:1870   */\n      0x40\n        /* \"--CODEGEN--\":1857:1866   */\n      dup9\n        /* \"--CODEGEN--\":1853:1871   */\n      add\n        /* \"--CODEGEN--\":1840:1872   */\n      calldataload\n        /* \"--CODEGEN--\":1892:1910   */\n      0xffffffffffffffff\n        /* \"--CODEGEN--\":1884:1890   */\n      dup2\n        /* \"--CODEGEN--\":1881:1911   */\n      gt\n        /* \"--CODEGEN--\":1878:1880   */\n      iszero\n      tag_381\n      jumpi\n        /* \"--CODEGEN--\":1924:1925   */\n      0x0\n        /* \"--CODEGEN--\":1921:1922   */\n      dup1\n        /* \"--CODEGEN--\":1914:1926   */\n      revert\n        /* \"--CODEGEN--\":1878:1880   */\n    tag_381:\n        /* \"--CODEGEN--\":1944:2007   */\n      tag_382\n        /* \"--CODEGEN--\":1999:2006   */\n      dup11\n        /* \"--CODEGEN--\":1990:1996   */\n      dup3\n        /* \"--CODEGEN--\":1979:1988   */\n      dup12\n        /* \"--CODEGEN--\":1975:1997   */\n      add\n        /* \"--CODEGEN--\":1944:2007   */\n      jump(tag_357)\n    tag_382:\n        /* \"--CODEGEN--\":1934:2007   */\n      swap6\n      pop\n        /* \"--CODEGEN--\":1819:2013   */\n      pop\n        /* \"--CODEGEN--\":2072:2074   */\n      0x60\n        /* \"--CODEGEN--\":2061:2070   */\n      dup9\n        /* \"--CODEGEN--\":2057:2075   */\n      add\n        /* \"--CODEGEN--\":2044:2076   */\n      calldataload\n        /* \"--CODEGEN--\":2096:2114   */\n      0xffffffffffffffff\n        /* \"--CODEGEN--\":2088:2094   */\n      dup2\n        /* \"--CODEGEN--\":2085:2115   */\n      gt\n        /* \"--CODEGEN--\":2082:2084   */\n      iszero\n      tag_383\n      jumpi\n        /* \"--CODEGEN--\":2128:2129   */\n      0x0\n        /* \"--CODEGEN--\":2125:2126   */\n      dup1\n        /* \"--CODEGEN--\":2118:2130   */\n      revert\n        /* \"--CODEGEN--\":2082:2084   */\n    tag_383:\n        /* \"--CODEGEN--\":2148:2211   */\n      tag_384\n        /* \"--CODEGEN--\":2203:2210   */\n      dup11\n        /* \"--CODEGEN--\":2194:2200   */\n      dup3\n        /* \"--CODEGEN--\":2183:2192   */\n      dup12\n        /* \"--CODEGEN--\":2179:2201   */\n      add\n        /* \"--CODEGEN--\":2148:2211   */\n      jump(tag_357)\n    tag_384:\n        /* \"--CODEGEN--\":2138:2211   */\n      swap5\n      pop\n        /* \"--CODEGEN--\":2023:2217   */\n      pop\n        /* \"--CODEGEN--\":2276:2279   */\n      0x80\n        /* \"--CODEGEN--\":2265:2274   */\n      dup9\n        /* \"--CODEGEN--\":2261:2280   */\n      add\n        /* \"--CODEGEN--\":2248:2281   */\n      calldataload\n        /* \"--CODEGEN--\":2301:2319   */\n      0xffffffffffffffff\n        /* \"--CODEGEN--\":2293:2299   */\n      dup2\n        /* \"--CODEGEN--\":2290:2320   */\n      gt\n        /* \"--CODEGEN--\":2287:2289   */\n      iszero\n      tag_385\n      jumpi\n        /* \"--CODEGEN--\":2333:2334   */\n      0x0\n        /* \"--CODEGEN--\":2330:2331   */\n      dup1\n        /* \"--CODEGEN--\":2323:2335   */\n      revert\n        /* \"--CODEGEN--\":2287:2289   */\n    tag_385:\n        /* \"--CODEGEN--\":2353:2416   */\n      tag_386\n        /* \"--CODEGEN--\":2408:2415   */\n      dup11\n        /* \"--CODEGEN--\":2399:2405   */\n      dup3\n        /* \"--CODEGEN--\":2388:2397   */\n      dup12\n        /* \"--CODEGEN--\":2384:2406   */\n      add\n        /* \"--CODEGEN--\":2353:2416   */\n      jump(tag_357)\n    tag_386:\n        /* \"--CODEGEN--\":2343:2416   */\n      swap4\n      pop\n        /* \"--CODEGEN--\":2227:2422   */\n      pop\n        /* \"--CODEGEN--\":2481:2484   */\n      0xa0\n        /* \"--CODEGEN--\":2470:2479   */\n      dup9\n        /* \"--CODEGEN--\":2466:2485   */\n      add\n        /* \"--CODEGEN--\":2453:2486   */\n      calldataload\n        /* \"--CODEGEN--\":2506:2524   */\n      0xffffffffffffffff\n        /* \"--CODEGEN--\":2498:2504   */\n      dup2\n        /* \"--CODEGEN--\":2495:2525   */\n      gt\n        /* \"--CODEGEN--\":2492:2494   */\n      iszero\n      tag_387\n      jumpi\n        /* \"--CODEGEN--\":2538:2539   */\n      0x0\n        /* \"--CODEGEN--\":2535:2536   */\n      dup1\n        /* \"--CODEGEN--\":2528:2540   */\n      revert\n        /* \"--CODEGEN--\":2492:2494   */\n    tag_387:\n        /* \"--CODEGEN--\":2558:2621   */\n      tag_388\n        /* \"--CODEGEN--\":2613:2620   */\n      dup11\n        /* \"--CODEGEN--\":2604:2610   */\n      dup3\n        /* \"--CODEGEN--\":2593:2602   */\n      dup12\n        /* \"--CODEGEN--\":2589:2611   */\n      add\n        /* \"--CODEGEN--\":2558:2621   */\n      jump(tag_357)\n    tag_388:\n        /* \"--CODEGEN--\":2548:2621   */\n      swap3\n      pop\n        /* \"--CODEGEN--\":2432:2627   */\n      pop\n        /* \"--CODEGEN--\":2658:2661   */\n      0xc0\n        /* \"--CODEGEN--\":2677:2730   */\n      tag_389\n        /* \"--CODEGEN--\":2722:2729   */\n      dup11\n        /* \"--CODEGEN--\":2713:2719   */\n      dup3\n        /* \"--CODEGEN--\":2702:2711   */\n      dup12\n        /* \"--CODEGEN--\":2698:2720   */\n      add\n        /* \"--CODEGEN--\":2677:2730   */\n      jump(tag_367)\n    tag_389:\n        /* \"--CODEGEN--\":2667:2730   */\n      swap2\n      pop\n        /* \"--CODEGEN--\":2637:2736   */\n      pop\n        /* \"--CODEGEN--\":1535:2746   */\n      swap3\n      swap6\n      swap9\n      swap2\n      swap5\n      swap8\n      pop\n      swap3\n      swap6\n      pop\n      jump\n        /* \"--CODEGEN--\":2753:4616   */\n    tag_65:\n      0x0\n      dup1\n      0x0\n      dup1\n      0x0\n      dup1\n      0x0\n      dup1\n        /* \"--CODEGEN--\":3046:3049   */\n      0x100\n        /* \"--CODEGEN--\":3034:3043   */\n      dup10\n        /* \"--CODEGEN--\":3025:3032   */\n      dup12\n        /* \"--CODEGEN--\":3021:3044   */\n      sub\n        /* \"--CODEGEN--\":3017:3050   */\n      slt\n        /* \"--CODEGEN--\":3014:3016   */\n      iszero\n      tag_391\n      jumpi\n        /* \"--CODEGEN--\":3063:3064   */\n      0x0\n        /* \"--CODEGEN--\":3060:3061   */\n      dup1\n        /* \"--CODEGEN--\":3053:3065   */\n      revert\n        /* \"--CODEGEN--\":3014:3016   */\n    tag_391:\n        /* \"--CODEGEN--\":3098:3099   */\n      0x0\n        /* \"--CODEGEN--\":3115:3168   */\n      tag_392\n        /* \"--CODEGEN--\":3160:3167   */\n      dup12\n        /* \"--CODEGEN--\":3151:3157   */\n      dup3\n        /* \"--CODEGEN--\":3140:3149   */\n      dup13\n        /* \"--CODEGEN--\":3136:3158   */\n      add\n        /* \"--CODEGEN--\":3115:3168   */\n      jump(tag_353)\n    tag_392:\n        /* \"--CODEGEN--\":3105:3168   */\n      swap9\n      pop\n        /* \"--CODEGEN--\":3077:3174   */\n      pop\n        /* \"--CODEGEN--\":3233:3235   */\n      0x20\n        /* \"--CODEGEN--\":3222:3231   */\n      dup10\n        /* \"--CODEGEN--\":3218:3236   */\n      add\n        /* \"--CODEGEN--\":3205:3237   */\n      calldataload\n        /* \"--CODEGEN--\":3257:3275   */\n      0xffffffffffffffff\n        /* \"--CODEGEN--\":3249:3255   */\n      dup2\n        /* \"--CODEGEN--\":3246:3276   */\n      gt\n        /* \"--CODEGEN--\":3243:3245   */\n      iszero\n      tag_393\n      jumpi\n        /* \"--CODEGEN--\":3289:3290   */\n      0x0\n        /* \"--CODEGEN--\":3286:3287   */\n      dup1\n        /* \"--CODEGEN--\":3279:3291   */\n      revert\n        /* \"--CODEGEN--\":3243:3245   */\n    tag_393:\n        /* \"--CODEGEN--\":3309:3372   */\n      tag_394\n        /* \"--CODEGEN--\":3364:3371   */\n      dup12\n        /* \"--CODEGEN--\":3355:3361   */\n      dup3\n        /* \"--CODEGEN--\":3344:3353   */\n      dup13\n        /* \"--CODEGEN--\":3340:3362   */\n      add\n        /* \"--CODEGEN--\":3309:3372   */\n      jump(tag_357)\n    tag_394:\n        /* \"--CODEGEN--\":3299:3372   */\n      swap8\n      pop\n        /* \"--CODEGEN--\":3184:3378   */\n      pop\n        /* \"--CODEGEN--\":3437:3439   */\n      0x40\n        /* \"--CODEGEN--\":3426:3435   */\n      dup10\n        /* \"--CODEGEN--\":3422:3440   */\n      add\n        /* \"--CODEGEN--\":3409:3441   */\n      calldataload\n        /* \"--CODEGEN--\":3461:3479   */\n      0xffffffffffffffff\n        /* \"--CODEGEN--\":3453:3459   */\n      dup2\n        /* \"--CODEGEN--\":3450:3480   */\n      gt\n        /* \"--CODEGEN--\":3447:3449   */\n      iszero\n      tag_395\n      jumpi\n        /* \"--CODEGEN--\":3493:3494   */\n      0x0\n        /* \"--CODEGEN--\":3490:3491   */\n      dup1\n        /* \"--CODEGEN--\":3483:3495   */\n      revert\n        /* \"--CODEGEN--\":3447:3449   */\n    tag_395:\n        /* \"--CODEGEN--\":3513:3576   */\n      tag_396\n        /* \"--CODEGEN--\":3568:3575   */\n      dup12\n        /* \"--CODEGEN--\":3559:3565   */\n      dup3\n        /* \"--CODEGEN--\":3548:3557   */\n      dup13\n        /* \"--CODEGEN--\":3544:3566   */\n      add\n        /* \"--CODEGEN--\":3513:3576   */\n      jump(tag_357)\n    tag_396:\n        /* \"--CODEGEN--\":3503:3576   */\n      swap7\n      pop\n        /* \"--CODEGEN--\":3388:3582   */\n      pop\n        /* \"--CODEGEN--\":3641:3643   */\n      0x60\n        /* \"--CODEGEN--\":3630:3639   */\n      dup10\n        /* \"--CODEGEN--\":3626:3644   */\n      add\n        /* \"--CODEGEN--\":3613:3645   */\n      calldataload\n        /* \"--CODEGEN--\":3665:3683   */\n      0xffffffffffffffff\n        /* \"--CODEGEN--\":3657:3663   */\n      dup2\n        /* \"--CODEGEN--\":3654:3684   */\n      gt\n        /* \"--CODEGEN--\":3651:3653   */\n      iszero\n      tag_397\n      jumpi\n        /* \"--CODEGEN--\":3697:3698   */\n      0x0\n        /* \"--CODEGEN--\":3694:3695   */\n      dup1\n        /* \"--CODEGEN--\":3687:3699   */\n      revert\n        /* \"--CODEGEN--\":3651:3653   */\n    tag_397:\n        /* \"--CODEGEN--\":3717:3780   */\n      tag_398\n        /* \"--CODEGEN--\":3772:3779   */\n      dup12\n        /* \"--CODEGEN--\":3763:3769   */\n      dup3\n        /* \"--CODEGEN--\":3752:3761   */\n      dup13\n        /* \"--CODEGEN--\":3748:3770   */\n      add\n        /* \"--CODEGEN--\":3717:3780   */\n      jump(tag_357)\n    tag_398:\n        /* \"--CODEGEN--\":3707:3780   */\n      swap6\n      pop\n        /* \"--CODEGEN--\":3592:3786   */\n      pop\n        /* \"--CODEGEN--\":3845:3848   */\n      0x80\n        /* \"--CODEGEN--\":3834:3843   */\n      dup10\n        /* \"--CODEGEN--\":3830:3849   */\n      add\n        /* \"--CODEGEN--\":3817:3850   */\n      calldataload\n        /* \"--CODEGEN--\":3870:3888   */\n      0xffffffffffffffff\n        /* \"--CODEGEN--\":3862:3868   */\n      dup2\n        /* \"--CODEGEN--\":3859:3889   */\n      gt\n        /* \"--CODEGEN--\":3856:3858   */\n      iszero\n      tag_399\n      jumpi\n        /* \"--CODEGEN--\":3902:3903   */\n      0x0\n        /* \"--CODEGEN--\":3899:3900   */\n      dup1\n        /* \"--CODEGEN--\":3892:3904   */\n      revert\n        /* \"--CODEGEN--\":3856:3858   */\n    tag_399:\n        /* \"--CODEGEN--\":3922:3985   */\n      tag_400\n        /* \"--CODEGEN--\":3977:3984   */\n      dup12\n        /* \"--CODEGEN--\":3968:3974   */\n      dup3\n        /* \"--CODEGEN--\":3957:3966   */\n      dup13\n        /* \"--CODEGEN--\":3953:3975   */\n      add\n        /* \"--CODEGEN--\":3922:3985   */\n      jump(tag_357)\n    tag_400:\n        /* \"--CODEGEN--\":3912:3985   */\n      swap5\n      pop\n        /* \"--CODEGEN--\":3796:3991   */\n      pop\n        /* \"--CODEGEN--\":4050:4053   */\n      0xa0\n        /* \"--CODEGEN--\":4039:4048   */\n      dup10\n        /* \"--CODEGEN--\":4035:4054   */\n      add\n        /* \"--CODEGEN--\":4022:4055   */\n      calldataload\n        /* \"--CODEGEN--\":4075:4093   */\n      0xffffffffffffffff\n        /* \"--CODEGEN--\":4067:4073   */\n      dup2\n        /* \"--CODEGEN--\":4064:4094   */\n      gt\n        /* \"--CODEGEN--\":4061:4063   */\n      iszero\n      tag_401\n      jumpi\n        /* \"--CODEGEN--\":4107:4108   */\n      0x0\n        /* \"--CODEGEN--\":4104:4105   */\n      dup1\n        /* \"--CODEGEN--\":4097:4109   */\n      revert\n        /* \"--CODEGEN--\":4061:4063   */\n    tag_401:\n        /* \"--CODEGEN--\":4127:4190   */\n      tag_402\n        /* \"--CODEGEN--\":4182:4189   */\n      dup12\n        /* \"--CODEGEN--\":4173:4179   */\n      dup3\n        /* \"--CODEGEN--\":4162:4171   */\n      dup13\n        /* \"--CODEGEN--\":4158:4180   */\n      add\n        /* \"--CODEGEN--\":4127:4190   */\n      jump(tag_357)\n    tag_402:\n        /* \"--CODEGEN--\":4117:4190   */\n      swap4\n      pop\n        /* \"--CODEGEN--\":4001:4196   */\n      pop\n        /* \"--CODEGEN--\":4255:4258   */\n      0xc0\n        /* \"--CODEGEN--\":4244:4253   */\n      dup10\n        /* \"--CODEGEN--\":4240:4259   */\n      add\n        /* \"--CODEGEN--\":4227:4260   */\n      calldataload\n        /* \"--CODEGEN--\":4280:4298   */\n      0xffffffffffffffff\n        /* \"--CODEGEN--\":4272:4278   */\n      dup2\n        /* \"--CODEGEN--\":4269:4299   */\n      gt\n        /* \"--CODEGEN--\":4266:4268   */\n      iszero\n      tag_403\n      jumpi\n        /* \"--CODEGEN--\":4312:4313   */\n      0x0\n        /* \"--CODEGEN--\":4309:4310   */\n      dup1\n        /* \"--CODEGEN--\":4302:4314   */\n      revert\n        /* \"--CODEGEN--\":4266:4268   */\n    tag_403:\n        /* \"--CODEGEN--\":4332:4395   */\n      tag_404\n        /* \"--CODEGEN--\":4387:4394   */\n      dup12\n        /* \"--CODEGEN--\":4378:4384   */\n      dup3\n        /* \"--CODEGEN--\":4367:4376   */\n      dup13\n        /* \"--CODEGEN--\":4363:4385   */\n      add\n        /* \"--CODEGEN--\":4332:4395   */\n      jump(tag_357)\n    tag_404:\n        /* \"--CODEGEN--\":4322:4395   */\n      swap3\n      pop\n        /* \"--CODEGEN--\":4206:4401   */\n      pop\n        /* \"--CODEGEN--\":4460:4463   */\n      0xe0\n        /* \"--CODEGEN--\":4449:4458   */\n      dup10\n        /* \"--CODEGEN--\":4445:4464   */\n      add\n        /* \"--CODEGEN--\":4432:4465   */\n      calldataload\n        /* \"--CODEGEN--\":4485:4503   */\n      0xffffffffffffffff\n        /* \"--CODEGEN--\":4477:4483   */\n      dup2\n        /* \"--CODEGEN--\":4474:4504   */\n      gt\n        /* \"--CODEGEN--\":4471:4473   */\n      iszero\n      tag_405\n      jumpi\n        /* \"--CODEGEN--\":4517:4518   */\n      0x0\n        /* \"--CODEGEN--\":4514:4515   */\n      dup1\n        /* \"--CODEGEN--\":4507:4519   */\n      revert\n        /* \"--CODEGEN--\":4471:4473   */\n    tag_405:\n        /* \"--CODEGEN--\":4537:4600   */\n      tag_406\n        /* \"--CODEGEN--\":4592:4599   */\n      dup12\n        /* \"--CODEGEN--\":4583:4589   */\n      dup3\n        /* \"--CODEGEN--\":4572:4581   */\n      dup13\n        /* \"--CODEGEN--\":4568:4590   */\n      add\n        /* \"--CODEGEN--\":4537:4600   */\n      jump(tag_357)\n    tag_406:\n        /* \"--CODEGEN--\":4527:4600   */\n      swap2\n      pop\n        /* \"--CODEGEN--\":4411:4606   */\n      pop\n        /* \"--CODEGEN--\":3008:4616   */\n      swap3\n      swap6\n      swap9\n      pop\n      swap3\n      swap6\n      swap9\n      swap1\n      swap4\n      swap7\n      pop\n      jump\n        /* \"--CODEGEN--\":4623:6950   */\n    tag_96:\n      0x0\n      dup1\n      0x0\n      dup1\n      0x0\n      dup1\n      0x0\n      dup1\n      0x0\n      dup1\n        /* \"--CODEGEN--\":4970:4973   */\n      0x140\n        /* \"--CODEGEN--\":4958:4967   */\n      dup12\n        /* \"--CODEGEN--\":4949:4956   */\n      dup14\n        /* \"--CODEGEN--\":4945:4968   */\n      sub\n        /* \"--CODEGEN--\":4941:4974   */\n      slt\n        /* \"--CODEGEN--\":4938:4940   */\n      iszero\n      tag_408\n      jumpi\n        /* \"--CODEGEN--\":4987:4988   */\n      0x0\n        /* \"--CODEGEN--\":4984:4985   */\n      dup1\n        /* \"--CODEGEN--\":4977:4989   */\n      revert\n        /* \"--CODEGEN--\":4938:4940   */\n    tag_408:\n        /* \"--CODEGEN--\":5022:5023   */\n      0x0\n        /* \"--CODEGEN--\":5039:5092   */\n      tag_409\n        /* \"--CODEGEN--\":5084:5091   */\n      dup14\n        /* \"--CODEGEN--\":5075:5081   */\n      dup3\n        /* \"--CODEGEN--\":5064:5073   */\n      dup15\n        /* \"--CODEGEN--\":5060:5082   */\n      add\n        /* \"--CODEGEN--\":5039:5092   */\n      jump(tag_353)\n    tag_409:\n        /* \"--CODEGEN--\":5029:5092   */\n      swap11\n      pop\n        /* \"--CODEGEN--\":5001:5098   */\n      pop\n        /* \"--CODEGEN--\":5157:5159   */\n      0x20\n        /* \"--CODEGEN--\":5146:5155   */\n      dup12\n        /* \"--CODEGEN--\":5142:5160   */\n      add\n        /* \"--CODEGEN--\":5129:5161   */\n      calldataload\n        /* \"--CODEGEN--\":5181:5199   */\n      0xffffffffffffffff\n        /* \"--CODEGEN--\":5173:5179   */\n      dup2\n        /* \"--CODEGEN--\":5170:5200   */\n      gt\n        /* \"--CODEGEN--\":5167:5169   */\n      iszero\n      tag_410\n      jumpi\n        /* \"--CODEGEN--\":5213:5214   */\n      0x0\n        /* \"--CODEGEN--\":5210:5211   */\n      dup1\n        /* \"--CODEGEN--\":5203:5215   */\n      revert\n        /* \"--CODEGEN--\":5167:5169   */\n    tag_410:\n        /* \"--CODEGEN--\":5233:5296   */\n      tag_411\n        /* \"--CODEGEN--\":5288:5295   */\n      dup14\n        /* \"--CODEGEN--\":5279:5285   */\n      dup3\n        /* \"--CODEGEN--\":5268:5277   */\n      dup15\n        /* \"--CODEGEN--\":5264:5286   */\n      add\n        /* \"--CODEGEN--\":5233:5296   */\n      jump(tag_357)\n    tag_411:\n        /* \"--CODEGEN--\":5223:5296   */\n      swap10\n      pop\n        /* \"--CODEGEN--\":5108:5302   */\n      pop\n        /* \"--CODEGEN--\":5361:5363   */\n      0x40\n        /* \"--CODEGEN--\":5350:5359   */\n      dup12\n        /* \"--CODEGEN--\":5346:5364   */\n      add\n        /* \"--CODEGEN--\":5333:5365   */\n      calldataload\n        /* \"--CODEGEN--\":5385:5403   */\n      0xffffffffffffffff\n        /* \"--CODEGEN--\":5377:5383   */\n      dup2\n        /* \"--CODEGEN--\":5374:5404   */\n      gt\n        /* \"--CODEGEN--\":5371:5373   */\n      iszero\n      tag_412\n      jumpi\n        /* \"--CODEGEN--\":5417:5418   */\n      0x0\n        /* \"--CODEGEN--\":5414:5415   */\n      dup1\n        /* \"--CODEGEN--\":5407:5419   */\n      revert\n        /* \"--CODEGEN--\":5371:5373   */\n    tag_412:\n        /* \"--CODEGEN--\":5437:5500   */\n      tag_413\n        /* \"--CODEGEN--\":5492:5499   */\n      dup14\n        /* \"--CODEGEN--\":5483:5489   */\n      dup3\n        /* \"--CODEGEN--\":5472:5481   */\n      dup15\n        /* \"--CODEGEN--\":5468:5490   */\n      add\n        /* \"--CODEGEN--\":5437:5500   */\n      jump(tag_357)\n    tag_413:\n        /* \"--CODEGEN--\":5427:5500   */\n      swap9\n      pop\n        /* \"--CODEGEN--\":5312:5506   */\n      pop\n        /* \"--CODEGEN--\":5565:5567   */\n      0x60\n        /* \"--CODEGEN--\":5554:5563   */\n      dup12\n        /* \"--CODEGEN--\":5550:5568   */\n      add\n        /* \"--CODEGEN--\":5537:5569   */\n      calldataload\n        /* \"--CODEGEN--\":5589:5607   */\n      0xffffffffffffffff\n        /* \"--CODEGEN--\":5581:5587   */\n      dup2\n        /* \"--CODEGEN--\":5578:5608   */\n      gt\n        /* \"--CODEGEN--\":5575:5577   */\n      iszero\n      tag_414\n      jumpi\n        /* \"--CODEGEN--\":5621:5622   */\n      0x0\n        /* \"--CODEGEN--\":5618:5619   */\n      dup1\n        /* \"--CODEGEN--\":5611:5623   */\n      revert\n        /* \"--CODEGEN--\":5575:5577   */\n    tag_414:\n        /* \"--CODEGEN--\":5641:5704   */\n      tag_415\n        /* \"--CODEGEN--\":5696:5703   */\n      dup14\n        /* \"--CODEGEN--\":5687:5693   */\n      dup3\n        /* \"--CODEGEN--\":5676:5685   */\n      dup15\n        /* \"--CODEGEN--\":5672:5694   */\n      add\n        /* \"--CODEGEN--\":5641:5704   */\n      jump(tag_357)\n    tag_415:\n        /* \"--CODEGEN--\":5631:5704   */\n      swap8\n      pop\n        /* \"--CODEGEN--\":5516:5710   */\n      pop\n        /* \"--CODEGEN--\":5769:5772   */\n      0x80\n        /* \"--CODEGEN--\":5758:5767   */\n      dup12\n        /* \"--CODEGEN--\":5754:5773   */\n      add\n        /* \"--CODEGEN--\":5741:5774   */\n      calldataload\n        /* \"--CODEGEN--\":5794:5812   */\n      0xffffffffffffffff\n        /* \"--CODEGEN--\":5786:5792   */\n      dup2\n        /* \"--CODEGEN--\":5783:5813   */\n      gt\n        /* \"--CODEGEN--\":5780:5782   */\n      iszero\n      tag_416\n      jumpi\n        /* \"--CODEGEN--\":5826:5827   */\n      0x0\n        /* \"--CODEGEN--\":5823:5824   */\n      dup1\n        /* \"--CODEGEN--\":5816:5828   */\n      revert\n        /* \"--CODEGEN--\":5780:5782   */\n    tag_416:\n        /* \"--CODEGEN--\":5846:5909   */\n      tag_417\n        /* \"--CODEGEN--\":5901:5908   */\n      dup14\n        /* \"--CODEGEN--\":5892:5898   */\n      dup3\n        /* \"--CODEGEN--\":5881:5890   */\n      dup15\n        /* \"--CODEGEN--\":5877:5899   */\n      add\n        /* \"--CODEGEN--\":5846:5909   */\n      jump(tag_357)\n    tag_417:\n        /* \"--CODEGEN--\":5836:5909   */\n      swap7\n      pop\n        /* \"--CODEGEN--\":5720:5915   */\n      pop\n        /* \"--CODEGEN--\":5974:5977   */\n      0xa0\n        /* \"--CODEGEN--\":5963:5972   */\n      dup12\n        /* \"--CODEGEN--\":5959:5978   */\n      add\n        /* \"--CODEGEN--\":5946:5979   */\n      calldataload\n        /* \"--CODEGEN--\":5999:6017   */\n      0xffffffffffffffff\n        /* \"--CODEGEN--\":5991:5997   */\n      dup2\n        /* \"--CODEGEN--\":5988:6018   */\n      gt\n        /* \"--CODEGEN--\":5985:5987   */\n      iszero\n      tag_418\n      jumpi\n        /* \"--CODEGEN--\":6031:6032   */\n      0x0\n        /* \"--CODEGEN--\":6028:6029   */\n      dup1\n        /* \"--CODEGEN--\":6021:6033   */\n      revert\n        /* \"--CODEGEN--\":5985:5987   */\n    tag_418:\n        /* \"--CODEGEN--\":6051:6114   */\n      tag_419\n        /* \"--CODEGEN--\":6106:6113   */\n      dup14\n        /* \"--CODEGEN--\":6097:6103   */\n      dup3\n        /* \"--CODEGEN--\":6086:6095   */\n      dup15\n        /* \"--CODEGEN--\":6082:6104   */\n      add\n        /* \"--CODEGEN--\":6051:6114   */\n      jump(tag_357)\n    tag_419:\n        /* \"--CODEGEN--\":6041:6114   */\n      swap6\n      pop\n        /* \"--CODEGEN--\":5925:6120   */\n      pop\n        /* \"--CODEGEN--\":6179:6182   */\n      0xc0\n        /* \"--CODEGEN--\":6168:6177   */\n      dup12\n        /* \"--CODEGEN--\":6164:6183   */\n      add\n        /* \"--CODEGEN--\":6151:6184   */\n      calldataload\n        /* \"--CODEGEN--\":6204:6222   */\n      0xffffffffffffffff\n        /* \"--CODEGEN--\":6196:6202   */\n      dup2\n        /* \"--CODEGEN--\":6193:6223   */\n      gt\n        /* \"--CODEGEN--\":6190:6192   */\n      iszero\n      tag_420\n      jumpi\n        /* \"--CODEGEN--\":6236:6237   */\n      0x0\n        /* \"--CODEGEN--\":6233:6234   */\n      dup1\n        /* \"--CODEGEN--\":6226:6238   */\n      revert\n        /* \"--CODEGEN--\":6190:6192   */\n    tag_420:\n        /* \"--CODEGEN--\":6256:6319   */\n      tag_421\n        /* \"--CODEGEN--\":6311:6318   */\n      dup14\n        /* \"--CODEGEN--\":6302:6308   */\n      dup3\n        /* \"--CODEGEN--\":6291:6300   */\n      dup15\n        /* \"--CODEGEN--\":6287:6309   */\n      add\n        /* \"--CODEGEN--\":6256:6319   */\n      jump(tag_357)\n    tag_421:\n        /* \"--CODEGEN--\":6246:6319   */\n      swap5\n      pop\n        /* \"--CODEGEN--\":6130:6325   */\n      pop\n        /* \"--CODEGEN--\":6384:6387   */\n      0xe0\n        /* \"--CODEGEN--\":6373:6382   */\n      dup12\n        /* \"--CODEGEN--\":6369:6388   */\n      add\n        /* \"--CODEGEN--\":6356:6389   */\n      calldataload\n        /* \"--CODEGEN--\":6409:6427   */\n      0xffffffffffffffff\n        /* \"--CODEGEN--\":6401:6407   */\n      dup2\n        /* \"--CODEGEN--\":6398:6428   */\n      gt\n        /* \"--CODEGEN--\":6395:6397   */\n      iszero\n      tag_422\n      jumpi\n        /* \"--CODEGEN--\":6441:6442   */\n      0x0\n        /* \"--CODEGEN--\":6438:6439   */\n      dup1\n        /* \"--CODEGEN--\":6431:6443   */\n      revert\n        /* \"--CODEGEN--\":6395:6397   */\n    tag_422:\n        /* \"--CODEGEN--\":6461:6524   */\n      tag_423\n        /* \"--CODEGEN--\":6516:6523   */\n      dup14\n        /* \"--CODEGEN--\":6507:6513   */\n      dup3\n        /* \"--CODEGEN--\":6496:6505   */\n      dup15\n        /* \"--CODEGEN--\":6492:6514   */\n      add\n        /* \"--CODEGEN--\":6461:6524   */\n      jump(tag_357)\n    tag_423:\n        /* \"--CODEGEN--\":6451:6524   */\n      swap4\n      pop\n        /* \"--CODEGEN--\":6335:6530   */\n      pop\n        /* \"--CODEGEN--\":6589:6592   */\n      0x100\n        /* \"--CODEGEN--\":6578:6587   */\n      dup12\n        /* \"--CODEGEN--\":6574:6593   */\n      add\n        /* \"--CODEGEN--\":6561:6594   */\n      calldataload\n        /* \"--CODEGEN--\":6614:6632   */\n      0xffffffffffffffff\n        /* \"--CODEGEN--\":6606:6612   */\n      dup2\n        /* \"--CODEGEN--\":6603:6633   */\n      gt\n        /* \"--CODEGEN--\":6600:6602   */\n      iszero\n      tag_424\n      jumpi\n        /* \"--CODEGEN--\":6646:6647   */\n      0x0\n        /* \"--CODEGEN--\":6643:6644   */\n      dup1\n        /* \"--CODEGEN--\":6636:6648   */\n      revert\n        /* \"--CODEGEN--\":6600:6602   */\n    tag_424:\n        /* \"--CODEGEN--\":6666:6729   */\n      tag_425\n        /* \"--CODEGEN--\":6721:6728   */\n      dup14\n        /* \"--CODEGEN--\":6712:6718   */\n      dup3\n        /* \"--CODEGEN--\":6701:6710   */\n      dup15\n        /* \"--CODEGEN--\":6697:6719   */\n      add\n        /* \"--CODEGEN--\":6666:6729   */\n      jump(tag_357)\n    tag_425:\n        /* \"--CODEGEN--\":6656:6729   */\n      swap3\n      pop\n        /* \"--CODEGEN--\":6540:6735   */\n      pop\n        /* \"--CODEGEN--\":6794:6797   */\n      0x120\n        /* \"--CODEGEN--\":6783:6792   */\n      dup12\n        /* \"--CODEGEN--\":6779:6798   */\n      add\n        /* \"--CODEGEN--\":6766:6799   */\n      calldataload\n        /* \"--CODEGEN--\":6819:6837   */\n      0xffffffffffffffff\n        /* \"--CODEGEN--\":6811:6817   */\n      dup2\n        /* \"--CODEGEN--\":6808:6838   */\n      gt\n        /* \"--CODEGEN--\":6805:6807   */\n      iszero\n      tag_426\n      jumpi\n        /* \"--CODEGEN--\":6851:6852   */\n      0x0\n        /* \"--CODEGEN--\":6848:6849   */\n      dup1\n        /* \"--CODEGEN--\":6841:6853   */\n      revert\n        /* \"--CODEGEN--\":6805:6807   */\n    tag_426:\n        /* \"--CODEGEN--\":6871:6934   */\n      tag_427\n        /* \"--CODEGEN--\":6926:6933   */\n      dup14\n        /* \"--CODEGEN--\":6917:6923   */\n      dup3\n        /* \"--CODEGEN--\":6906:6915   */\n      dup15\n        /* \"--CODEGEN--\":6902:6924   */\n      add\n        /* \"--CODEGEN--\":6871:6934   */\n      jump(tag_357)\n    tag_427:\n        /* \"--CODEGEN--\":6861:6934   */\n      swap2\n      pop\n        /* \"--CODEGEN--\":6745:6940   */\n      pop\n        /* \"--CODEGEN--\":4932:6950   */\n      swap3\n      swap6\n      swap9\n      swap12\n      swap2\n      swap5\n      swap8\n      swap11\n      pop\n      swap3\n      swap6\n      swap9\n      pop\n      jump\n        /* \"--CODEGEN--\":6957:7198   */\n    tag_58:\n      0x0\n        /* \"--CODEGEN--\":7061:7063   */\n      0x20\n        /* \"--CODEGEN--\":7049:7058   */\n      dup3\n        /* \"--CODEGEN--\":7040:7047   */\n      dup5\n        /* \"--CODEGEN--\":7036:7059   */\n      sub\n        /* \"--CODEGEN--\":7032:7064   */\n      slt\n        /* \"--CODEGEN--\":7029:7031   */\n      iszero\n      tag_429\n      jumpi\n        /* \"--CODEGEN--\":7077:7078   */\n      0x0\n        /* \"--CODEGEN--\":7074:7075   */\n      dup1\n        /* \"--CODEGEN--\":7067:7079   */\n      revert\n        /* \"--CODEGEN--\":7029:7031   */\n    tag_429:\n        /* \"--CODEGEN--\":7112:7113   */\n      0x0\n        /* \"--CODEGEN--\":7129:7182   */\n      tag_430\n        /* \"--CODEGEN--\":7174:7181   */\n      dup5\n        /* \"--CODEGEN--\":7165:7171   */\n      dup3\n        /* \"--CODEGEN--\":7154:7163   */\n      dup6\n        /* \"--CODEGEN--\":7150:7172   */\n      add\n        /* \"--CODEGEN--\":7129:7182   */\n      jump(tag_367)\n    tag_430:\n        /* \"--CODEGEN--\":7119:7182   */\n      swap2\n      pop\n        /* \"--CODEGEN--\":7091:7188   */\n      pop\n        /* \"--CODEGEN--\":7023:7198   */\n      swap3\n      swap2\n      pop\n      pop\n      jump\n        /* \"--CODEGEN--\":7205:7315   */\n    tag_432:\n        /* \"--CODEGEN--\":7278:7309   */\n      tag_433\n        /* \"--CODEGEN--\":7303:7308   */\n      dup2\n        /* \"--CODEGEN--\":7278:7309   */\n      jump(tag_434)\n    tag_433:\n        /* \"--CODEGEN--\":7273:7276   */\n      dup3\n        /* \"--CODEGEN--\":7266:7310   */\n      mstore\n        /* \"--CODEGEN--\":7260:7315   */\n      pop\n      pop\n      jump\n        /* \"--CODEGEN--\":7353:7943   */\n    tag_436:\n      0x0\n        /* \"--CODEGEN--\":7488:7542   */\n      tag_437\n        /* \"--CODEGEN--\":7536:7541   */\n      dup3\n        /* \"--CODEGEN--\":7488:7542   */\n      jump(tag_438)\n    tag_437:\n        /* \"--CODEGEN--\":7560:7566   */\n      dup1\n        /* \"--CODEGEN--\":7555:7558   */\n      dup5\n        /* \"--CODEGEN--\":7548:7567   */\n      mstore\n        /* \"--CODEGEN--\":7584:7588   */\n      0x20\n        /* \"--CODEGEN--\":7579:7582   */\n      dup5\n        /* \"--CODEGEN--\":7575:7589   */\n      add\n        /* \"--CODEGEN--\":7568:7589   */\n      swap4\n      pop\n        /* \"--CODEGEN--\":7629:7685   */\n      tag_439\n        /* \"--CODEGEN--\":7679:7684   */\n      dup4\n        /* \"--CODEGEN--\":7629:7685   */\n      jump(tag_440)\n    tag_439:\n        /* \"--CODEGEN--\":7706:7707   */\n      0x0\n        /* \"--CODEGEN--\":7691:7921   */\n    tag_441:\n        /* \"--CODEGEN--\":7716:7722   */\n      dup3\n        /* \"--CODEGEN--\":7713:7714   */\n      dup2\n        /* \"--CODEGEN--\":7710:7723   */\n      lt\n        /* \"--CODEGEN--\":7691:7921   */\n      iszero\n      tag_442\n      jumpi\n        /* \"--CODEGEN--\":7756:7809   */\n      tag_444\n        /* \"--CODEGEN--\":7805:7808   */\n      dup7\n        /* \"--CODEGEN--\":7796:7802   */\n      dup4\n        /* \"--CODEGEN--\":7790:7803   */\n      mload\n        /* \"--CODEGEN--\":7756:7809   */\n      jump(tag_432)\n    tag_444:\n        /* \"--CODEGEN--\":7826:7886   */\n      tag_445\n        /* \"--CODEGEN--\":7879:7885   */\n      dup3\n        /* \"--CODEGEN--\":7826:7886   */\n      jump(tag_446)\n    tag_445:\n        /* \"--CODEGEN--\":7816:7886   */\n      swap2\n      pop\n        /* \"--CODEGEN--\":7909:7913   */\n      0x20\n        /* \"--CODEGEN--\":7904:7907   */\n      dup7\n        /* \"--CODEGEN--\":7900:7914   */\n      add\n        /* \"--CODEGEN--\":7893:7914   */\n      swap6\n      pop\n        /* \"--CODEGEN--\":7738:7739   */\n      0x1\n        /* \"--CODEGEN--\":7735:7736   */\n      dup2\n        /* \"--CODEGEN--\":7731:7740   */\n      add\n        /* \"--CODEGEN--\":7726:7740   */\n      swap1\n      pop\n        /* \"--CODEGEN--\":7691:7921   */\n      jump(tag_441)\n    tag_442:\n        /* \"--CODEGEN--\":7695:7709   */\n      pop\n        /* \"--CODEGEN--\":7934:7937   */\n      dup5\n        /* \"--CODEGEN--\":7927:7937   */\n      swap3\n      pop\n        /* \"--CODEGEN--\":7467:7943   */\n      pop\n      pop\n      swap3\n      swap2\n      pop\n      pop\n      jump\n        /* \"--CODEGEN--\":7951:8052   */\n    tag_448:\n        /* \"--CODEGEN--\":8018:8046   */\n      tag_449\n        /* \"--CODEGEN--\":8040:8045   */\n      dup2\n        /* \"--CODEGEN--\":8018:8046   */\n      jump(tag_450)\n    tag_449:\n        /* \"--CODEGEN--\":8013:8016   */\n      dup3\n        /* \"--CODEGEN--\":8006:8047   */\n      mstore\n        /* \"--CODEGEN--\":8000:8052   */\n      pop\n      pop\n      jump\n        /* \"--CODEGEN--\":8059:8359   */\n    tag_452:\n      0x0\n        /* \"--CODEGEN--\":8161:8200   */\n      tag_453\n        /* \"--CODEGEN--\":8194:8199   */\n      dup3\n        /* \"--CODEGEN--\":8161:8200   */\n      jump(tag_454)\n    tag_453:\n        /* \"--CODEGEN--\":8217:8223   */\n      dup1\n        /* \"--CODEGEN--\":8212:8215   */\n      dup5\n        /* \"--CODEGEN--\":8205:8224   */\n      mstore\n        /* \"--CODEGEN--\":8229:8292   */\n      tag_455\n        /* \"--CODEGEN--\":8285:8291   */\n      dup2\n        /* \"--CODEGEN--\":8278:8282   */\n      0x20\n        /* \"--CODEGEN--\":8273:8276   */\n      dup7\n        /* \"--CODEGEN--\":8269:8283   */\n      add\n        /* \"--CODEGEN--\":8262:8266   */\n      0x20\n        /* \"--CODEGEN--\":8255:8260   */\n      dup7\n        /* \"--CODEGEN--\":8251:8267   */\n      add\n        /* \"--CODEGEN--\":8229:8292   */\n      jump(tag_456)\n    tag_455:\n        /* \"--CODEGEN--\":8324:8353   */\n      tag_457\n        /* \"--CODEGEN--\":8346:8352   */\n      dup2\n        /* \"--CODEGEN--\":8324:8353   */\n      jump(tag_458)\n    tag_457:\n        /* \"--CODEGEN--\":8317:8321   */\n      0x20\n        /* \"--CODEGEN--\":8312:8315   */\n      dup6\n        /* \"--CODEGEN--\":8308:8322   */\n      add\n        /* \"--CODEGEN--\":8304:8354   */\n      add\n        /* \"--CODEGEN--\":8297:8354   */\n      swap2\n      pop\n        /* \"--CODEGEN--\":8141:8359   */\n      pop\n      swap3\n      swap2\n      pop\n      pop\n      jump\n        /* \"--CODEGEN--\":8366:8476   */\n    tag_460:\n        /* \"--CODEGEN--\":8439:8470   */\n      tag_461\n        /* \"--CODEGEN--\":8464:8469   */\n      dup2\n        /* \"--CODEGEN--\":8439:8470   */\n      jump(tag_462)\n    tag_461:\n        /* \"--CODEGEN--\":8434:8437   */\n      dup3\n        /* \"--CODEGEN--\":8427:8471   */\n      mstore\n        /* \"--CODEGEN--\":8421:8476   */\n      pop\n      pop\n      jump\n        /* \"--CODEGEN--\":8483:8676   */\n    tag_61:\n      0x0\n        /* \"--CODEGEN--\":8591:8593   */\n      0x20\n        /* \"--CODEGEN--\":8580:8589   */\n      dup3\n        /* \"--CODEGEN--\":8576:8594   */\n      add\n        /* \"--CODEGEN--\":8568:8594   */\n      swap1\n      pop\n        /* \"--CODEGEN--\":8605:8666   */\n      tag_464\n        /* \"--CODEGEN--\":8663:8664   */\n      0x0\n        /* \"--CODEGEN--\":8652:8661   */\n      dup4\n        /* \"--CODEGEN--\":8648:8665   */\n      add\n        /* \"--CODEGEN--\":8639:8645   */\n      dup5\n        /* \"--CODEGEN--\":8605:8666   */\n      jump(tag_432)\n    tag_464:\n        /* \"--CODEGEN--\":8562:8676   */\n      swap3\n      swap2\n      pop\n      pop\n      jump\n        /* \"--CODEGEN--\":8683:9024   */\n    tag_38:\n      0x0\n        /* \"--CODEGEN--\":8841:8843   */\n      0x20\n        /* \"--CODEGEN--\":8830:8839   */\n      dup3\n        /* \"--CODEGEN--\":8826:8844   */\n      add\n        /* \"--CODEGEN--\":8818:8844   */\n      swap1\n      pop\n        /* \"--CODEGEN--\":8891:8900   */\n      dup2\n        /* \"--CODEGEN--\":8885:8889   */\n      dup2\n        /* \"--CODEGEN--\":8881:8901   */\n      sub\n        /* \"--CODEGEN--\":8877:8878   */\n      0x0\n        /* \"--CODEGEN--\":8866:8875   */\n      dup4\n        /* \"--CODEGEN--\":8862:8879   */\n      add\n        /* \"--CODEGEN--\":8855:8902   */\n      mstore\n        /* \"--CODEGEN--\":8916:9014   */\n      tag_466\n        /* \"--CODEGEN--\":9009:9013   */\n      dup2\n        /* \"--CODEGEN--\":9000:9006   */\n      dup5\n        /* \"--CODEGEN--\":8916:9014   */\n      jump(tag_436)\n    tag_466:\n        /* \"--CODEGEN--\":8908:9014   */\n      swap1\n      pop\n        /* \"--CODEGEN--\":8812:9024   */\n      swap3\n      swap2\n      pop\n      pop\n      jump\n        /* \"--CODEGEN--\":9031:9212   */\n    tag_76:\n      0x0\n        /* \"--CODEGEN--\":9133:9135   */\n      0x20\n        /* \"--CODEGEN--\":9122:9131   */\n      dup3\n        /* \"--CODEGEN--\":9118:9136   */\n      add\n        /* \"--CODEGEN--\":9110:9136   */\n      swap1\n      pop\n        /* \"--CODEGEN--\":9147:9202   */\n      tag_468\n        /* \"--CODEGEN--\":9199:9200   */\n      0x0\n        /* \"--CODEGEN--\":9188:9197   */\n      dup4\n        /* \"--CODEGEN--\":9184:9201   */\n      add\n        /* \"--CODEGEN--\":9175:9181   */\n      dup5\n        /* \"--CODEGEN--\":9147:9202   */\n      jump(tag_448)\n    tag_468:\n        /* \"--CODEGEN--\":9104:9212   */\n      swap3\n      swap2\n      pop\n      pop\n      jump\n        /* \"--CODEGEN--\":9219:10740   */\n    tag_50:\n      0x0\n        /* \"--CODEGEN--\":9663:9666   */\n      0x100\n        /* \"--CODEGEN--\":9652:9661   */\n      dup3\n        /* \"--CODEGEN--\":9648:9667   */\n      add\n        /* \"--CODEGEN--\":9640:9667   */\n      swap1\n      pop\n        /* \"--CODEGEN--\":9714:9723   */\n      dup2\n        /* \"--CODEGEN--\":9708:9712   */\n      dup2\n        /* \"--CODEGEN--\":9704:9724   */\n      sub\n        /* \"--CODEGEN--\":9700:9701   */\n      0x0\n        /* \"--CODEGEN--\":9689:9698   */\n      dup4\n        /* \"--CODEGEN--\":9685:9702   */\n      add\n        /* \"--CODEGEN--\":9678:9725   */\n      mstore\n        /* \"--CODEGEN--\":9739:9807   */\n      tag_470\n        /* \"--CODEGEN--\":9802:9806   */\n      dup2\n        /* \"--CODEGEN--\":9793:9799   */\n      dup12\n        /* \"--CODEGEN--\":9739:9807   */\n      jump(tag_452)\n    tag_470:\n        /* \"--CODEGEN--\":9731:9807   */\n      swap1\n      pop\n        /* \"--CODEGEN--\":9855:9864   */\n      dup2\n        /* \"--CODEGEN--\":9849:9853   */\n      dup2\n        /* \"--CODEGEN--\":9845:9865   */\n      sub\n        /* \"--CODEGEN--\":9840:9842   */\n      0x20\n        /* \"--CODEGEN--\":9829:9838   */\n      dup4\n        /* \"--CODEGEN--\":9825:9843   */\n      add\n        /* \"--CODEGEN--\":9818:9866   */\n      mstore\n        /* \"--CODEGEN--\":9880:9948   */\n      tag_471\n        /* \"--CODEGEN--\":9943:9947   */\n      dup2\n        /* \"--CODEGEN--\":9934:9940   */\n      dup11\n        /* \"--CODEGEN--\":9880:9948   */\n      jump(tag_452)\n    tag_471:\n        /* \"--CODEGEN--\":9872:9948   */\n      swap1\n      pop\n        /* \"--CODEGEN--\":9996:10005   */\n      dup2\n        /* \"--CODEGEN--\":9990:9994   */\n      dup2\n        /* \"--CODEGEN--\":9986:10006   */\n      sub\n        /* \"--CODEGEN--\":9981:9983   */\n      0x40\n        /* \"--CODEGEN--\":9970:9979   */\n      dup4\n        /* \"--CODEGEN--\":9966:9984   */\n      add\n        /* \"--CODEGEN--\":9959:10007   */\n      mstore\n        /* \"--CODEGEN--\":10021:10089   */\n      tag_472\n        /* \"--CODEGEN--\":10084:10088   */\n      dup2\n        /* \"--CODEGEN--\":10075:10081   */\n      dup10\n        /* \"--CODEGEN--\":10021:10089   */\n      jump(tag_452)\n    tag_472:\n        /* \"--CODEGEN--\":10013:10089   */\n      swap1\n      pop\n        /* \"--CODEGEN--\":10137:10146   */\n      dup2\n        /* \"--CODEGEN--\":10131:10135   */\n      dup2\n        /* \"--CODEGEN--\":10127:10147   */\n      sub\n        /* \"--CODEGEN--\":10122:10124   */\n      0x60\n        /* \"--CODEGEN--\":10111:10120   */\n      dup4\n        /* \"--CODEGEN--\":10107:10125   */\n      add\n        /* \"--CODEGEN--\":10100:10148   */\n      mstore\n        /* \"--CODEGEN--\":10162:10230   */\n      tag_473\n        /* \"--CODEGEN--\":10225:10229   */\n      dup2\n        /* \"--CODEGEN--\":10216:10222   */\n      dup9\n        /* \"--CODEGEN--\":10162:10230   */\n      jump(tag_452)\n    tag_473:\n        /* \"--CODEGEN--\":10154:10230   */\n      swap1\n      pop\n        /* \"--CODEGEN--\":10279:10288   */\n      dup2\n        /* \"--CODEGEN--\":10273:10277   */\n      dup2\n        /* \"--CODEGEN--\":10269:10289   */\n      sub\n        /* \"--CODEGEN--\":10263:10266   */\n      0x80\n        /* \"--CODEGEN--\":10252:10261   */\n      dup4\n        /* \"--CODEGEN--\":10248:10267   */\n      add\n        /* \"--CODEGEN--\":10241:10290   */\n      mstore\n        /* \"--CODEGEN--\":10304:10372   */\n      tag_474\n        /* \"--CODEGEN--\":10367:10371   */\n      dup2\n        /* \"--CODEGEN--\":10358:10364   */\n      dup8\n        /* \"--CODEGEN--\":10304:10372   */\n      jump(tag_452)\n    tag_474:\n        /* \"--CODEGEN--\":10296:10372   */\n      swap1\n      pop\n        /* \"--CODEGEN--\":10421:10430   */\n      dup2\n        /* \"--CODEGEN--\":10415:10419   */\n      dup2\n        /* \"--CODEGEN--\":10411:10431   */\n      sub\n        /* \"--CODEGEN--\":10405:10408   */\n      0xa0\n        /* \"--CODEGEN--\":10394:10403   */\n      dup4\n        /* \"--CODEGEN--\":10390:10409   */\n      add\n        /* \"--CODEGEN--\":10383:10432   */\n      mstore\n        /* \"--CODEGEN--\":10446:10514   */\n      tag_475\n        /* \"--CODEGEN--\":10509:10513   */\n      dup2\n        /* \"--CODEGEN--\":10500:10506   */\n      dup7\n        /* \"--CODEGEN--\":10446:10514   */\n      jump(tag_452)\n    tag_475:\n        /* \"--CODEGEN--\":10438:10514   */\n      swap1\n      pop\n        /* \"--CODEGEN--\":10563:10572   */\n      dup2\n        /* \"--CODEGEN--\":10557:10561   */\n      dup2\n        /* \"--CODEGEN--\":10553:10573   */\n      sub\n        /* \"--CODEGEN--\":10547:10550   */\n      0xc0\n        /* \"--CODEGEN--\":10536:10545   */\n      dup4\n        /* \"--CODEGEN--\":10532:10551   */\n      add\n        /* \"--CODEGEN--\":10525:10574   */\n      mstore\n        /* \"--CODEGEN--\":10588:10656   */\n      tag_476\n        /* \"--CODEGEN--\":10651:10655   */\n      dup2\n        /* \"--CODEGEN--\":10642:10648   */\n      dup6\n        /* \"--CODEGEN--\":10588:10656   */\n      jump(tag_452)\n    tag_476:\n        /* \"--CODEGEN--\":10580:10656   */\n      swap1\n      pop\n        /* \"--CODEGEN--\":10667:10730   */\n      tag_477\n        /* \"--CODEGEN--\":10725:10728   */\n      0xe0\n        /* \"--CODEGEN--\":10714:10723   */\n      dup4\n        /* \"--CODEGEN--\":10710:10729   */\n      add\n        /* \"--CODEGEN--\":10701:10707   */\n      dup5\n        /* \"--CODEGEN--\":10667:10730   */\n      jump(tag_432)\n    tag_477:\n        /* \"--CODEGEN--\":9634:10740   */\n      swap10\n      swap9\n      pop\n      pop\n      pop\n      pop\n      pop\n      pop\n      pop\n      pop\n      pop\n      jump\n        /* \"--CODEGEN--\":10747:11902   */\n    tag_120:\n      0x0\n        /* \"--CODEGEN--\":11103:11106   */\n      0xe0\n        /* \"--CODEGEN--\":11092:11101   */\n      dup3\n        /* \"--CODEGEN--\":11088:11107   */\n      add\n        /* \"--CODEGEN--\":11080:11107   */\n      swap1\n      pop\n        /* \"--CODEGEN--\":11154:11163   */\n      dup2\n        /* \"--CODEGEN--\":11148:11152   */\n      dup2\n        /* \"--CODEGEN--\":11144:11164   */\n      sub\n        /* \"--CODEGEN--\":11140:11141   */\n      0x0\n        /* \"--CODEGEN--\":11129:11138   */\n      dup4\n        /* \"--CODEGEN--\":11125:11142   */\n      add\n        /* \"--CODEGEN--\":11118:11165   */\n      mstore\n        /* \"--CODEGEN--\":11179:11247   */\n      tag_479\n        /* \"--CODEGEN--\":11242:11246   */\n      dup2\n        /* \"--CODEGEN--\":11233:11239   */\n      dup11\n        /* \"--CODEGEN--\":11179:11247   */\n      jump(tag_452)\n    tag_479:\n        /* \"--CODEGEN--\":11171:11247   */\n      swap1\n      pop\n        /* \"--CODEGEN--\":11295:11304   */\n      dup2\n        /* \"--CODEGEN--\":11289:11293   */\n      dup2\n        /* \"--CODEGEN--\":11285:11305   */\n      sub\n        /* \"--CODEGEN--\":11280:11282   */\n      0x20\n        /* \"--CODEGEN--\":11269:11278   */\n      dup4\n        /* \"--CODEGEN--\":11265:11283   */\n      add\n        /* \"--CODEGEN--\":11258:11306   */\n      mstore\n        /* \"--CODEGEN--\":11320:11388   */\n      tag_480\n        /* \"--CODEGEN--\":11383:11387   */\n      dup2\n        /* \"--CODEGEN--\":11374:11380   */\n      dup10\n        /* \"--CODEGEN--\":11320:11388   */\n      jump(tag_452)\n    tag_480:\n        /* \"--CODEGEN--\":11312:11388   */\n      swap1\n      pop\n        /* \"--CODEGEN--\":11436:11445   */\n      dup2\n        /* \"--CODEGEN--\":11430:11434   */\n      dup2\n        /* \"--CODEGEN--\":11426:11446   */\n      sub\n        /* \"--CODEGEN--\":11421:11423   */\n      0x40\n        /* \"--CODEGEN--\":11410:11419   */\n      dup4\n        /* \"--CODEGEN--\":11406:11424   */\n      add\n        /* \"--CODEGEN--\":11399:11447   */\n      mstore\n        /* \"--CODEGEN--\":11461:11529   */\n      tag_481\n        /* \"--CODEGEN--\":11524:11528   */\n      dup2\n        /* \"--CODEGEN--\":11515:11521   */\n      dup9\n        /* \"--CODEGEN--\":11461:11529   */\n      jump(tag_452)\n    tag_481:\n        /* \"--CODEGEN--\":11453:11529   */\n      swap1\n      pop\n        /* \"--CODEGEN--\":11577:11586   */\n      dup2\n        /* \"--CODEGEN--\":11571:11575   */\n      dup2\n        /* \"--CODEGEN--\":11567:11587   */\n      sub\n        /* \"--CODEGEN--\":11562:11564   */\n      0x60\n        /* \"--CODEGEN--\":11551:11560   */\n      dup4\n        /* \"--CODEGEN--\":11547:11565   */\n      add\n        /* \"--CODEGEN--\":11540:11588   */\n      mstore\n        /* \"--CODEGEN--\":11602:11670   */\n      tag_482\n        /* \"--CODEGEN--\":11665:11669   */\n      dup2\n        /* \"--CODEGEN--\":11656:11662   */\n      dup8\n        /* \"--CODEGEN--\":11602:11670   */\n      jump(tag_452)\n    tag_482:\n        /* \"--CODEGEN--\":11594:11670   */\n      swap1\n      pop\n        /* \"--CODEGEN--\":11681:11744   */\n      tag_483\n        /* \"--CODEGEN--\":11739:11742   */\n      0x80\n        /* \"--CODEGEN--\":11728:11737   */\n      dup4\n        /* \"--CODEGEN--\":11724:11743   */\n      add\n        /* \"--CODEGEN--\":11715:11721   */\n      dup7\n        /* \"--CODEGEN--\":11681:11744   */\n      jump(tag_460)\n    tag_483:\n        /* \"--CODEGEN--\":11755:11818   */\n      tag_484\n        /* \"--CODEGEN--\":11813:11816   */\n      0xa0\n        /* \"--CODEGEN--\":11802:11811   */\n      dup4\n        /* \"--CODEGEN--\":11798:11817   */\n      add\n        /* \"--CODEGEN--\":11789:11795   */\n      dup6\n        /* \"--CODEGEN--\":11755:11818   */\n      jump(tag_432)\n    tag_484:\n        /* \"--CODEGEN--\":11829:11892   */\n      tag_485\n        /* \"--CODEGEN--\":11887:11890   */\n      0xc0\n        /* \"--CODEGEN--\":11876:11885   */\n      dup4\n        /* \"--CODEGEN--\":11872:11891   */\n      add\n        /* \"--CODEGEN--\":11863:11869   */\n      dup5\n        /* \"--CODEGEN--\":11829:11892   */\n      jump(tag_432)\n    tag_485:\n        /* \"--CODEGEN--\":11074:11902   */\n      swap9\n      swap8\n      pop\n      pop\n      pop\n      pop\n      pop\n      pop\n      pop\n      pop\n      jump\n        /* \"--CODEGEN--\":11909:12102   */\n    tag_43:\n      0x0\n        /* \"--CODEGEN--\":12017:12019   */\n      0x20\n        /* \"--CODEGEN--\":12006:12015   */\n      dup3\n        /* \"--CODEGEN--\":12002:12020   */\n      add\n        /* \"--CODEGEN--\":11994:12020   */\n      swap1\n      pop\n        /* \"--CODEGEN--\":12031:12092   */\n      tag_487\n        /* \"--CODEGEN--\":12089:12090   */\n      0x0\n        /* \"--CODEGEN--\":12078:12087   */\n      dup4\n        /* \"--CODEGEN--\":12074:12091   */\n      add\n        /* \"--CODEGEN--\":12065:12071   */\n      dup5\n        /* \"--CODEGEN--\":12031:12092   */\n      jump(tag_460)\n    tag_487:\n        /* \"--CODEGEN--\":11988:12102   */\n      swap3\n      swap2\n      pop\n      pop\n      jump\n        /* \"--CODEGEN--\":12109:12365   */\n    tag_362:\n      0x0\n        /* \"--CODEGEN--\":12171:12173   */\n      0x40\n        /* \"--CODEGEN--\":12165:12174   */\n      mload\n        /* \"--CODEGEN--\":12155:12174   */\n      swap1\n      pop\n        /* \"--CODEGEN--\":12209:12213   */\n      dup2\n        /* \"--CODEGEN--\":12201:12207   */\n      dup2\n        /* \"--CODEGEN--\":12197:12214   */\n      add\n        /* \"--CODEGEN--\":12308:12314   */\n      dup2\n        /* \"--CODEGEN--\":12296:12306   */\n      dup2\n        /* \"--CODEGEN--\":12293:12315   */\n      lt\n        /* \"--CODEGEN--\":12272:12290   */\n      0xffffffffffffffff\n        /* \"--CODEGEN--\":12260:12270   */\n      dup3\n        /* \"--CODEGEN--\":12257:12291   */\n      gt\n        /* \"--CODEGEN--\":12254:12316   */\n      or\n        /* \"--CODEGEN--\":12251:12253   */\n      iszero\n      tag_489\n      jumpi\n        /* \"--CODEGEN--\":12329:12330   */\n      0x0\n        /* \"--CODEGEN--\":12326:12327   */\n      dup1\n        /* \"--CODEGEN--\":12319:12331   */\n      revert\n        /* \"--CODEGEN--\":12251:12253   */\n    tag_489:\n        /* \"--CODEGEN--\":12349:12359   */\n      dup1\n        /* \"--CODEGEN--\":12345:12347   */\n      0x40\n        /* \"--CODEGEN--\":12338:12360   */\n      mstore\n        /* \"--CODEGEN--\":12149:12365   */\n      pop\n      swap2\n      swap1\n      pop\n      jump\n        /* \"--CODEGEN--\":12372:12631   */\n    tag_361:\n      0x0\n        /* \"--CODEGEN--\":12516:12534   */\n      0xffffffffffffffff\n        /* \"--CODEGEN--\":12508:12514   */\n      dup3\n        /* \"--CODEGEN--\":12505:12535   */\n      gt\n        /* \"--CODEGEN--\":12502:12504   */\n      iszero\n      tag_491\n      jumpi\n        /* \"--CODEGEN--\":12548:12549   */\n      0x0\n        /* \"--CODEGEN--\":12545:12546   */\n      dup1\n        /* \"--CODEGEN--\":12538:12550   */\n      revert\n        /* \"--CODEGEN--\":12502:12504   */\n    tag_491:\n        /* \"--CODEGEN--\":12592:12596   */\n      0x1f\n        /* \"--CODEGEN--\":12588:12597   */\n      not\n        /* \"--CODEGEN--\":12581:12585   */\n      0x1f\n        /* \"--CODEGEN--\":12573:12579   */\n      dup4\n        /* \"--CODEGEN--\":12569:12586   */\n      add\n        /* \"--CODEGEN--\":12565:12598   */\n      and\n        /* \"--CODEGEN--\":12557:12598   */\n      swap1\n      pop\n        /* \"--CODEGEN--\":12621:12625   */\n      0x20\n        /* \"--CODEGEN--\":12615:12619   */\n      dup2\n        /* \"--CODEGEN--\":12611:12626   */\n      add\n        /* \"--CODEGEN--\":12603:12626   */\n      swap1\n      pop\n        /* \"--CODEGEN--\":12439:12631   */\n      swap2\n      swap1\n      pop\n      jump\n        /* \"--CODEGEN--\":12640:12761   */\n    tag_440:\n      0x0\n        /* \"--CODEGEN--\":12749:12753   */\n      0x20\n        /* \"--CODEGEN--\":12741:12747   */\n      dup3\n        /* \"--CODEGEN--\":12737:12754   */\n      add\n        /* \"--CODEGEN--\":12726:12754   */\n      swap1\n      pop\n        /* \"--CODEGEN--\":12718:12761   */\n      swap2\n      swap1\n      pop\n      jump\n        /* \"--CODEGEN--\":12770:12877   */\n    tag_438:\n      0x0\n        /* \"--CODEGEN--\":12866:12871   */\n      dup2\n        /* \"--CODEGEN--\":12860:12872   */\n      mload\n        /* \"--CODEGEN--\":12850:12872   */\n      swap1\n      pop\n        /* \"--CODEGEN--\":12844:12877   */\n      swap2\n      swap1\n      pop\n      jump\n        /* \"--CODEGEN--\":12884:12976   */\n    tag_454:\n      0x0\n        /* \"--CODEGEN--\":12965:12970   */\n      dup2\n        /* \"--CODEGEN--\":12959:12971   */\n      mload\n        /* \"--CODEGEN--\":12949:12971   */\n      swap1\n      pop\n        /* \"--CODEGEN--\":12943:12976   */\n      swap2\n      swap1\n      pop\n      jump\n        /* \"--CODEGEN--\":12984:13106   */\n    tag_446:\n      0x0\n        /* \"--CODEGEN--\":13095:13099   */\n      0x20\n        /* \"--CODEGEN--\":13087:13093   */\n      dup3\n        /* \"--CODEGEN--\":13083:13100   */\n      add\n        /* \"--CODEGEN--\":13072:13100   */\n      swap1\n      pop\n        /* \"--CODEGEN--\":13065:13106   */\n      swap2\n      swap1\n      pop\n      jump\n        /* \"--CODEGEN--\":13114:13242   */\n    tag_434:\n      0x0\n        /* \"--CODEGEN--\":13194:13236   */\n      0xffffffffffffffffffffffffffffffffffffffff\n        /* \"--CODEGEN--\":13187:13192   */\n      dup3\n        /* \"--CODEGEN--\":13183:13237   */\n      and\n        /* \"--CODEGEN--\":13172:13237   */\n      swap1\n      pop\n        /* \"--CODEGEN--\":13166:13242   */\n      swap2\n      swap1\n      pop\n      jump\n        /* \"--CODEGEN--\":13249:13341   */\n    tag_450:\n      0x0\n        /* \"--CODEGEN--\":13329:13334   */\n      dup2\n        /* \"--CODEGEN--\":13322:13335   */\n      iszero\n        /* \"--CODEGEN--\":13315:13336   */\n      iszero\n        /* \"--CODEGEN--\":13304:13336   */\n      swap1\n      pop\n        /* \"--CODEGEN--\":13298:13341   */\n      swap2\n      swap1\n      pop\n      jump\n        /* \"--CODEGEN--\":13348:13427   */\n    tag_462:\n      0x0\n        /* \"--CODEGEN--\":13417:13422   */\n      dup2\n        /* \"--CODEGEN--\":13406:13422   */\n      swap1\n      pop\n        /* \"--CODEGEN--\":13400:13427   */\n      swap2\n      swap1\n      pop\n      jump\n        /* \"--CODEGEN--\":13434:13562   */\n    tag_355:\n      0x0\n        /* \"--CODEGEN--\":13514:13556   */\n      0xffffffffffffffffffffffffffffffffffffffff\n        /* \"--CODEGEN--\":13507:13512   */\n      dup3\n        /* \"--CODEGEN--\":13503:13557   */\n      and\n        /* \"--CODEGEN--\":13492:13557   */\n      swap1\n      pop\n        /* \"--CODEGEN--\":13486:13562   */\n      swap2\n      swap1\n      pop\n      jump\n        /* \"--CODEGEN--\":13569:13648   */\n    tag_369:\n      0x0\n        /* \"--CODEGEN--\":13638:13643   */\n      dup2\n        /* \"--CODEGEN--\":13627:13643   */\n      swap1\n      pop\n        /* \"--CODEGEN--\":13621:13648   */\n      swap2\n      swap1\n      pop\n      jump\n        /* \"--CODEGEN--\":13656:13801   */\n    tag_365:\n        /* \"--CODEGEN--\":13737:13743   */\n      dup3\n        /* \"--CODEGEN--\":13732:13735   */\n      dup2\n        /* \"--CODEGEN--\":13727:13730   */\n      dup4\n        /* \"--CODEGEN--\":13714:13744   */\n      calldatacopy\n        /* \"--CODEGEN--\":13793:13794   */\n      0x0\n        /* \"--CODEGEN--\":13784:13790   */\n      dup4\n        /* \"--CODEGEN--\":13779:13782   */\n      dup4\n        /* \"--CODEGEN--\":13775:13791   */\n      add\n        /* \"--CODEGEN--\":13768:13795   */\n      mstore\n        /* \"--CODEGEN--\":13707:13801   */\n      pop\n      pop\n      pop\n      jump\n        /* \"--CODEGEN--\":13810:14078   */\n    tag_456:\n        /* \"--CODEGEN--\":13875:13876   */\n      0x0\n        /* \"--CODEGEN--\":13882:13983   */\n    tag_503:\n        /* \"--CODEGEN--\":13896:13902   */\n      dup4\n        /* \"--CODEGEN--\":13893:13894   */\n      dup2\n        /* \"--CODEGEN--\":13890:13903   */\n      lt\n        /* \"--CODEGEN--\":13882:13983   */\n      iszero\n      tag_504\n      jumpi\n        /* \"--CODEGEN--\":13972:13973   */\n      dup1\n        /* \"--CODEGEN--\":13967:13970   */\n      dup3\n        /* \"--CODEGEN--\":13963:13974   */\n      add\n        /* \"--CODEGEN--\":13957:13975   */\n      mload\n        /* \"--CODEGEN--\":13953:13954   */\n      dup2\n        /* \"--CODEGEN--\":13948:13951   */\n      dup5\n        /* \"--CODEGEN--\":13944:13955   */\n      add\n        /* \"--CODEGEN--\":13937:13976   */\n      mstore\n        /* \"--CODEGEN--\":13918:13920   */\n      0x20\n        /* \"--CODEGEN--\":13915:13916   */\n      dup2\n        /* \"--CODEGEN--\":13911:13921   */\n      add\n        /* \"--CODEGEN--\":13906:13921   */\n      swap1\n      pop\n        /* \"--CODEGEN--\":13882:13983   */\n      jump(tag_503)\n    tag_504:\n        /* \"--CODEGEN--\":13998:14004   */\n      dup4\n        /* \"--CODEGEN--\":13995:13996   */\n      dup2\n        /* \"--CODEGEN--\":13992:14005   */\n      gt\n        /* \"--CODEGEN--\":13989:13991   */\n      iszero\n      tag_506\n      jumpi\n        /* \"--CODEGEN--\":14063:14064   */\n      0x0\n        /* \"--CODEGEN--\":14054:14060   */\n      dup5\n        /* \"--CODEGEN--\":14049:14052   */\n      dup5\n        /* \"--CODEGEN--\":14045:14061   */\n      add\n        /* \"--CODEGEN--\":14038:14065   */\n      mstore\n        /* \"--CODEGEN--\":13989:13991   */\n    tag_506:\n        /* \"--CODEGEN--\":13859:14078   */\n      pop\n      pop\n      pop\n      pop\n      jump\n        /* \"--CODEGEN--\":14086:14183   */\n    tag_458:\n      0x0\n        /* \"--CODEGEN--\":14174:14176   */\n      0x1f\n        /* \"--CODEGEN--\":14170:14177   */\n      not\n        /* \"--CODEGEN--\":14165:14167   */\n      0x1f\n        /* \"--CODEGEN--\":14158:14163   */\n      dup4\n        /* \"--CODEGEN--\":14154:14168   */\n      add\n        /* \"--CODEGEN--\":14150:14178   */\n      and\n        /* \"--CODEGEN--\":14140:14178   */\n      swap1\n      pop\n        /* \"--CODEGEN--\":14134:14183   */\n      swap2\n      swap1\n      pop\n      jump\n\n    auxdata: 0xa265627a7a723058203d8e6ad49edae70b80d8e82de0eccac19161e56f8a6b46b04ee5c005b804cb6d6c6578706572696d656e74616cf50037\n}\n",
				"bytecode": {
					"linkReferences": {},
					"object": "60806040526000600c556000600d556000600e556000600f55600060105573c50c6297f56b033633c30354a854b074749cd2dc601160006101000a81548173ffffffffffffffffffffffffffffffffffffffff021916908373ffffffffffffffffffffffffffffffffffffffff16021790555034801561007e57600080fd5b506139d98061008e6000396000f300608060405260043610610195576000357c0100000000000000000000000000000000000000000000000000000000900463ffffffff168062ce8e3e1461019a578063024decc5146101c5578063076fd2f8146101f057806307973ccf14610234578063127ca4b41461025f57806316e0a6111461029c57806317e51111146102c557806328f6daac146102ee578063294a45401461032b57806344c23f88146103685780635fc8e8c6146103a55780636cdb2278146103e2578063779a95761461040b57806378522bc41461043457806379111c1c1461045f578063793de5f01461048a57806383a28b29146104c75780638da5cb5b1461050a57806396e39ce01461053557806399d698c5146105605780639f4216e81461058b578063b13d5d94146105c8578063b5cb15f7146105f3578063b744ff4d1461061e578063c3bf7bf014610649578063c543a71814610686578063caee6c85146106b1578063d118404b146106f5578063e0672aad14610732578063e0df0ac61461076f578063eee8f11a1461079a578063ff508dab146107d7575b600080fd5b3480156101a657600080fd5b506101af610814565b6040516101bc91906136d1565b60405180910390f35b3480156101d157600080fd5b506101da6108a2565b6040516101e79190613848565b60405180910390f35b3480156101fc57600080fd5b506102176004803603610212919081019061315f565b6108ac565b60405161022b98979695949392919061370e565b60405180910390f35b34801561024057600080fd5b50610249610e31565b6040516102569190613848565b60405180910390f35b34801561026b57600080fd5b50610286600480360361028191908101906135cf565b610e37565b60405161029391906136b6565b60405180910390f35b3480156102a857600080fd5b506102c360048036036102be91908101906132c2565b610e75565b005b3480156102d157600080fd5b506102ec60048036036102e791908101906132c2565b611069565b005b3480156102fa57600080fd5b506103156004803603610310919081019061315f565b611483565b60405161032291906136f3565b60405180910390f35b34801561033757600080fd5b50610352600480360361034d919081019061315f565b6114f3565b60405161035f91906136f3565b60405180910390f35b34801561037457600080fd5b5061038f600480360361038a91908101906131c4565b6115a5565b60405161039c91906136f3565b60405180910390f35b3480156103b157600080fd5b506103cc60048036036103c7919081019061315f565b6118a6565b6040516103d991906136f3565b60405180910390f35b3480156103ee57600080fd5b506104096004803603610404919081019061341c565b611945565b005b34801561041757600080fd5b50610432600480360361042d919081019061341c565b611d93565b005b34801561044057600080fd5b50610449611fbb565b6040516104569190613848565b60405180910390f35b34801561046b57600080fd5b50610474611fc1565b6040516104819190613848565b60405180910390f35b34801561049657600080fd5b506104b160048036036104ac919081019061315f565b611fcb565b6040516104be91906136f3565b60405180910390f35b3480156104d357600080fd5b506104ee60048036036104e9919081019061315f565b612051565b60405161050197969594939291906137bd565b60405180910390f35b34801561051657600080fd5b5061051f61241c565b60405161052c91906136b6565b60405180910390f35b34801561054157600080fd5b5061054a612441565b6040516105579190613848565b60405180910390f35b34801561056c57600080fd5b50610575612447565b6040516105829190613848565b60405180910390f35b34801561059757600080fd5b506105b260048036036105ad91908101906135cf565b61244d565b6040516105bf91906136b6565b60405180910390f35b3480156105d457600080fd5b506105dd61248b565b6040516105ea91906136d1565b60405180910390f35b3480156105ff57600080fd5b50610608612519565b6040516106159190613848565b60405180910390f35b34801561062a57600080fd5b50610633612523565b60405161064091906136b6565b60405180910390f35b34801561065557600080fd5b50610670600480360361066b9190810190613188565b612549565b60405161067d91906136f3565b60405180910390f35b34801561069257600080fd5b5061069b612646565b6040516106a89190613848565b60405180910390f35b3480156106bd57600080fd5b506106d860048036036106d3919081019061315f565b61264c565b6040516106ec98979695949392919061370e565b60405180910390f35b34801561070157600080fd5b5061071c60048036036107179190810190613188565b612c29565b60405161072991906136f3565b60405180910390f35b34801561073e57600080fd5b5061075960048036036107549190810190613188565b612d38565b60405161076691906136f3565b60405180910390f35b34801561077b57600080fd5b50610784612e9f565b6040516107919190613848565b60405180910390f35b3480156107a657600080fd5b506107c160048036036107bc9190810190613188565b612ea9565b6040516107ce91906136f3565b60405180910390f35b3480156107e357600080fd5b506107fe60048036036107f991908101906135cf565b612ffe565b60405161080b91906136b6565b60405180910390f35b6060600180548060200260200160405190810160405280929190818152602001828054801561089857602002820191906000526020600020905b8160009054906101000a900473ffffffffffffffffffffffffffffffffffffffff1673ffffffffffffffffffffffffffffffffffffffff168152602001906001019080831161084e575b5050505050905090565b6000600f54905090565b6060806060806060806060600080600760008b73ffffffffffffffffffffffffffffffffffffffff1673ffffffffffffffffffffffffffffffffffffffff16815260200190815260200160002060003373ffffffffffffffffffffffffffffffffffffffff1673ffffffffffffffffffffffffffffffffffffffff16815260200190815260200160002060009054906101000a900460ff16151561094f57600080fd5b600460008b73ffffffffffffffffffffffffffffffffffffffff1673ffffffffffffffffffffffffffffffffffffffff1681526020019081526020016000209050806000018160010182600601836002018460030185600401866005018760090160009054906101000a900473ffffffffffffffffffffffffffffffffffffffff16878054600181600116156101000203166002900480601f016020809104026020016040519081016040528092919081815260200182805460018160011615610100020316600290048015610a665780601f10610a3b57610100808354040283529160200191610a66565b820191906000526020600020905b815481529060010190602001808311610a4957829003601f168201915b50505050509750868054600181600116156101000203166002900480601f016020809104026020016040519081016040528092919081815260200182805460018160011615610100020316600290048015610b025780601f10610ad757610100808354040283529160200191610b02565b820191906000526020600020905b815481529060010190602001808311610ae557829003601f168201915b50505050509650858054600181600116156101000203166002900480601f016020809104026020016040519081016040528092919081815260200182805460018160011615610100020316600290048015610b9e5780601f10610b7357610100808354040283529160200191610b9e565b820191906000526020600020905b815481529060010190602001808311610b8157829003601f168201915b50505050509550848054600181600116156101000203166002900480601f016020809104026020016040519081016040528092919081815260200182805460018160011615610100020316600290048015610c3a5780601f10610c0f57610100808354040283529160200191610c3a565b820191906000526020600020905b815481529060010190602001808311610c1d57829003601f168201915b50505050509450838054600181600116156101000203166002900480601f016020809104026020016040519081016040528092919081815260200182805460018160011615610100020316600290048015610cd65780601f10610cab57610100808354040283529160200191610cd6565b820191906000526020600020905b815481529060010190602001808311610cb957829003601f168201915b50505050509350828054600181600116156101000203166002900480601f016020809104026020016040519081016040528092919081815260200182805460018160011615610100020316600290048015610d725780601f10610d4757610100808354040283529160200191610d72565b820191906000526020600020905b815481529060010190602001808311610d5557829003601f168201915b50505050509250818054600181600116156101000203166002900480601f016020809104026020016040519081016040528092919081815260200182805460018160011615610100020316600290048015610e0e5780601f10610de357610100808354040283529160200191610e0e565b820191906000526020600020905b815481529060010190602001808311610df157829003601f168201915b505050505091509850985098509850985098509850985050919395975091939597565b600c5481565b600281815481101515610e4657fe5b906000526020600020016000915054906101000a900473ffffffffffffffffffffffffffffffffffffffff1681565b6000601160009054906101000a900473ffffffffffffffffffffffffffffffffffffffff1673ffffffffffffffffffffffffffffffffffffffff163373ffffffffffffffffffffffffffffffffffffffff16141515610ed357600080fd5b600a60008a73ffffffffffffffffffffffffffffffffffffffff1673ffffffffffffffffffffffffffffffffffffffff16815260200190815260200160002060009054906101000a900460ff161515610f2b57600080fd5b600560008a73ffffffffffffffffffffffffffffffffffffffff1673ffffffffffffffffffffffffffffffffffffffff168152602001908152602001600020905087816000019080519060200190610f8492919061303c565b5086816001019080519060200190610f9d92919061303c565b5085816002019080519060200190610fb692919061303c565b5084816003019080519060200190610fcf92919061303c565b5083816005019080519060200190610fe892919061303c565b508281600601908051906020019061100192919061303c565b508181600701908051906020019061101a92919061303c565b50888160080160006101000a81548173ffffffffffffffffffffffffffffffffffffffff021916908373ffffffffffffffffffffffffffffffffffffffff160217905550505050505050505050565b6000601160009054906101000a900473ffffffffffffffffffffffffffffffffffffffff1673ffffffffffffffffffffffffffffffffffffffff163373ffffffffffffffffffffffffffffffffffffffff161415156110c757600080fd5b600a60008a73ffffffffffffffffffffffffffffffffffffffff1673ffffffffffffffffffffffffffffffffffffffff16815260200190815260200160002060009054906101000a900460ff1615151561112057600080fd5b600560008a73ffffffffffffffffffffffffffffffffffffffff1673ffffffffffffffffffffffffffffffffffffffff16815260200190815260200160002090508781600001908051906020019061117992919061303c565b508681600101908051906020019061119292919061303c565b50858160020190805190602001906111ab92919061303c565b50848160030190805190602001906111c492919061303c565b50838160050190805190602001906111dd92919061303c565b50828160060190805190602001906111f692919061303c565b508181600701908051906020019061120f92919061303c565b50888160080160006101000a81548173ffffffffffffffffffffffffffffffffffffffff021916908373ffffffffffffffffffffffffffffffffffffffff16021790555042816009018190555060028990806001815401808255809150509060018203906000526020600020016000909192909190916101000a81548173ffffffffffffffffffffffffffffffffffffffff021916908373ffffffffffffffffffffffffffffffffffffffff160217905550506001600a60008b73ffffffffffffffffffffffffffffffffffffffff1673ffffffffffffffffffffffffffffffffffffffff16815260200190815260200160002060006101000a81548160ff0219169083151502179055506001600760008b73ffffffffffffffffffffffffffffffffffffffff1673ffffffffffffffffffffffffffffffffffffffff16815260200190815260200160002060008b73ffffffffffffffffffffffffffffffffffffffff1673ffffffffffffffffffffffffffffffffffffffff16815260200190815260200160002060006101000a81548160ff0219169083151502179055506001600760008b73ffffffffffffffffffffffffffffffffffffffff1673ffffffffffffffffffffffffffffffffffffffff1681526020019081526020016000206000601160009054906101000a900473ffffffffffffffffffffffffffffffffffffffff1673ffffffffffffffffffffffffffffffffffffffff1673ffffffffffffffffffffffffffffffffffffffff16815260200190815260200160002060006101000a81548160ff021916908315150217905550600d60008154809291906001019190505550505050505050505050565b600080829050601160009054906101000a900473ffffffffffffffffffffffffffffffffffffffff1673ffffffffffffffffffffffffffffffffffffffff168173ffffffffffffffffffffffffffffffffffffffff1614156114e857600191506114ed565b600091505b50919050565b60006001600760003373ffffffffffffffffffffffffffffffffffffffff1673ffffffffffffffffffffffffffffffffffffffff16815260200190815260200160002060008473ffffffffffffffffffffffffffffffffffffffff1673ffffffffffffffffffffffffffffffffffffffff16815260200190815260200160002060006101000a81548160ff021916908315150217905550600f6000815480929190600101919050555060019050919050565b600080601160009054906101000a900473ffffffffffffffffffffffffffffffffffffffff1673ffffffffffffffffffffffffffffffffffffffff163373ffffffffffffffffffffffffffffffffffffffff16148061168a5750600860008a73ffffffffffffffffffffffffffffffffffffffff1673ffffffffffffffffffffffffffffffffffffffff16815260200190815260200160002060003373ffffffffffffffffffffffffffffffffffffffff1673ffffffffffffffffffffffffffffffffffffffff16815260200190815260200160002060009054906101000a900460ff165b151561169557600080fd5b600b60008a73ffffffffffffffffffffffffffffffffffffffff1673ffffffffffffffffffffffffffffffffffffffff16815260200190815260200160002060009054906101000a900460ff161515156116ee57600080fd5b600660008a73ffffffffffffffffffffffffffffffffffffffff1673ffffffffffffffffffffffffffffffffffffffff16815260200190815260200160002090508681600001908051906020019061174792919061303c565b508581600101908051906020019061176092919061303c565b508481600201908051906020019061177992919061303c565b508381600301908051906020019061179292919061303c565b50828160040181905550888160050160006101000a81548173ffffffffffffffffffffffffffffffffffffffff021916908373ffffffffffffffffffffffffffffffffffffffff160217905550878160060160006101000a81548173ffffffffffffffffffffffffffffffffffffffff021916908373ffffffffffffffffffffffffffffffffffffffff16021790555060038990806001815401808255809150509060018203906000526020600020016000909192909190916101000a81548173ffffffffffffffffffffffffffffffffffffffff021916908373ffffffffffffffffffffffffffffffffffffffff1602179055505060106000815480929190600101919050555050979650505050505050565b600080600760003373ffffffffffffffffffffffffffffffffffffffff1673ffffffffffffffffffffffffffffffffffffffff16815260200190815260200160002060008473ffffffffffffffffffffffffffffffffffffffff1673ffffffffffffffffffffffffffffffffffffffff16815260200190815260200160002060006101000a81548160ff02191690831515021790555060019050919050565b6000601160009054906101000a900473ffffffffffffffffffffffffffffffffffffffff1673ffffffffffffffffffffffffffffffffffffffff163373ffffffffffffffffffffffffffffffffffffffff161415156119a357600080fd5b600960008c73ffffffffffffffffffffffffffffffffffffffff1673ffffffffffffffffffffffffffffffffffffffff16815260200190815260200160002060009054906101000a900460ff161515156119fc57600080fd5b600460008c73ffffffffffffffffffffffffffffffffffffffff1673ffffffffffffffffffffffffffffffffffffffff168152602001908152602001600020905089816000019080519060200190611a5592919061303c565b5088816001019080519060200190611a6e92919061303c565b5087816002019080519060200190611a8792919061303c565b5086816003019080519060200190611aa092919061303c565b5085816004019080519060200190611ab992919061303c565b5084816005019080519060200190611ad292919061303c565b5083816006019080519060200190611aeb92919061303c565b5082816007019080519060200190611b0492919061303c565b5081816008019080519060200190611b1d92919061303c565b508a8160090160006101000a81548173ffffffffffffffffffffffffffffffffffffffff021916908373ffffffffffffffffffffffffffffffffffffffff1602179055504281600a018190555060018b90806001815401808255809150509060018203906000526020600020016000909192909190916101000a81548173ffffffffffffffffffffffffffffffffffffffff021916908373ffffffffffffffffffffffffffffffffffffffff160217905550506001600960008d73ffffffffffffffffffffffffffffffffffffffff1673ffffffffffffffffffffffffffffffffffffffff16815260200190815260200160002060006101000a81548160ff0219169083151502179055506001600760008d73ffffffffffffffffffffffffffffffffffffffff1673ffffffffffffffffffffffffffffffffffffffff16815260200190815260200160002060008d73ffffffffffffffffffffffffffffffffffffffff1673ffffffffffffffffffffffffffffffffffffffff16815260200190815260200160002060006101000a81548160ff0219169083151502179055506001600760008d73ffffffffffffffffffffffffffffffffffffffff1673ffffffffffffffffffffffffffffffffffffffff1681526020019081526020016000206000601160009054906101000a900473ffffffffffffffffffffffffffffffffffffffff1673ffffffffffffffffffffffffffffffffffffffff1673ffffffffffffffffffffffffffffffffffffffff16815260200190815260200160002060006101000a81548160ff021916908315150217905550600c600081548092919060010191905055505050505050505050505050565b6000601160009054906101000a900473ffffffffffffffffffffffffffffffffffffffff1673ffffffffffffffffffffffffffffffffffffffff163373ffffffffffffffffffffffffffffffffffffffff16141515611df157600080fd5b600960008c73ffffffffffffffffffffffffffffffffffffffff1673ffffffffffffffffffffffffffffffffffffffff16815260200190815260200160002060009054906101000a900460ff161515611e4957600080fd5b600460008c73ffffffffffffffffffffffffffffffffffffffff1673ffffffffffffffffffffffffffffffffffffffff168152602001908152602001600020905089816000019080519060200190611ea292919061303c565b5088816001019080519060200190611ebb92919061303c565b5087816002019080519060200190611ed492919061303c565b5086816003019080519060200190611eed92919061303c565b5085816004019080519060200190611f0692919061303c565b5084816005019080519060200190611f1f92919061303c565b5083816006019080519060200190611f3892919061303c565b5082816007019080519060200190611f5192919061303c565b5081816008019080519060200190611f6a92919061303c565b508a8160090160006101000a81548173ffffffffffffffffffffffffffffffffffffffff021916908373ffffffffffffffffffffffffffffffffffffffff1602179055505050505050505050505050565b600d5481565b6000600d54905090565b6000806000905060028054905081101561204a5760011515600a60008573ffffffffffffffffffffffffffffffffffffffff1673ffffffffffffffffffffffffffffffffffffffff16815260200190815260200160002060009054906101000a900460ff1615151415612041576001915061204b565b6000915061204b565b5b50919050565b606080606080600080600080600760008a73ffffffffffffffffffffffffffffffffffffffff1673ffffffffffffffffffffffffffffffffffffffff16815260200190815260200160002060003373ffffffffffffffffffffffffffffffffffffffff1673ffffffffffffffffffffffffffffffffffffffff16815260200190815260200160002060009054906101000a900460ff1615156120f257600080fd5b600660008a73ffffffffffffffffffffffffffffffffffffffff1673ffffffffffffffffffffffffffffffffffffffff16815260200190815260200160002090508060010181600001826002018360030184600401548560050160009054906101000a900473ffffffffffffffffffffffffffffffffffffffff168660060160009054906101000a900473ffffffffffffffffffffffffffffffffffffffff16868054600181600116156101000203166002900480601f0160208091040260200160405190810160405280929190818152602001828054600181600116156101000203166002900480156122275780601f106121fc57610100808354040283529160200191612227565b820191906000526020600020905b81548152906001019060200180831161220a57829003601f168201915b50505050509650858054600181600116156101000203166002900480601f0160208091040260200160405190810160405280929190818152602001828054600181600116156101000203166002900480156122c35780601f10612298576101008083540402835291602001916122c3565b820191906000526020600020905b8154815290600101906020018083116122a657829003601f168201915b50505050509550848054600181600116156101000203166002900480601f01602080910402602001604051908101604052809291908181526020018280546001816001161561010002031660029004801561235f5780601f106123345761010080835404028352916020019161235f565b820191906000526020600020905b81548152906001019060200180831161234257829003601f168201915b50505050509450838054600181600116156101000203166002900480601f0160208091040260200160405190810160405280929190818152602001828054600181600116156101000203166002900480156123fb5780601f106123d0576101008083540402835291602001916123fb565b820191906000526020600020905b8154815290600101906020018083116123de57829003601f168201915b50505050509350975097509750975097509750975050919395979092949650565b6000809054906101000a900473ffffffffffffffffffffffffffffffffffffffff1681565b60105481565b600e5481565b60018181548110151561245c57fe5b906000526020600020016000915054906101000a900473ffffffffffffffffffffffffffffffffffffffff1681565b6060600280548060200260200160405190810160405280929190818152602001828054801561250f57602002820191906000526020600020905b8160009054906101000a900473ffffffffffffffffffffffffffffffffffffffff1673ffffffffffffffffffffffffffffffffffffffff16815260200190600101908083116124c5575b5050505050905090565b6000600c54905090565b601160009054906101000a900473ffffffffffffffffffffffffffffffffffffffff1681565b6000601160009054906101000a900473ffffffffffffffffffffffffffffffffffffffff1673ffffffffffffffffffffffffffffffffffffffff163373ffffffffffffffffffffffffffffffffffffffff161415156125a757600080fd5b6000600760008573ffffffffffffffffffffffffffffffffffffffff1673ffffffffffffffffffffffffffffffffffffffff16815260200190815260200160002060008473ffffffffffffffffffffffffffffffffffffffff1673ffffffffffffffffffffffffffffffffffffffff16815260200190815260200160002060006101000a81548160ff0219169083151502179055506001905092915050565b600f5481565b6060806060806060806060600080600760008b73ffffffffffffffffffffffffffffffffffffffff1673ffffffffffffffffffffffffffffffffffffffff16815260200190815260200160002060003373ffffffffffffffffffffffffffffffffffffffff1673ffffffffffffffffffffffffffffffffffffffff16815260200190815260200160002060009054906101000a900460ff1615156126ef57600080fd5b600a60008b73ffffffffffffffffffffffffffffffffffffffff1673ffffffffffffffffffffffffffffffffffffffff16815260200190815260200160002060009054906101000a900460ff16151561274757600080fd5b600560008b73ffffffffffffffffffffffffffffffffffffffff1673ffffffffffffffffffffffffffffffffffffffff1681526020019081526020016000209050806000018160010182600201836003018460050185600601866007018760080160009054906101000a900473ffffffffffffffffffffffffffffffffffffffff16878054600181600116156101000203166002900480601f01602080910402602001604051908101604052809291908181526020018280546001816001161561010002031660029004801561285e5780601f106128335761010080835404028352916020019161285e565b820191906000526020600020905b81548152906001019060200180831161284157829003601f168201915b50505050509750868054600181600116156101000203166002900480601f0160208091040260200160405190810160405280929190818152602001828054600181600116156101000203166002900480156128fa5780601f106128cf576101008083540402835291602001916128fa565b820191906000526020600020905b8154815290600101906020018083116128dd57829003601f168201915b50505050509650858054600181600116156101000203166002900480601f0160208091040260200160405190810160405280929190818152602001828054600181600116156101000203166002900480156129965780601f1061296b57610100808354040283529160200191612996565b820191906000526020600020905b81548152906001019060200180831161297957829003601f168201915b50505050509550848054600181600116156101000203166002900480601f016020809104026020016040519081016040528092919081815260200182805460018160011615610100020316600290048015612a325780601f10612a0757610100808354040283529160200191612a32565b820191906000526020600020905b815481529060010190602001808311612a1557829003601f168201915b50505050509450838054600181600116156101000203166002900480601f016020809104026020016040519081016040528092919081815260200182805460018160011615610100020316600290048015612ace5780601f10612aa357610100808354040283529160200191612ace565b820191906000526020600020905b815481529060010190602001808311612ab157829003601f168201915b50505050509350828054600181600116156101000203166002900480601f016020809104026020016040519081016040528092919081815260200182805460018160011615610100020316600290048015612b6a5780601f10612b3f57610100808354040283529160200191612b6a565b820191906000526020600020905b815481529060010190602001808311612b4d57829003601f168201915b50505050509250818054600181600116156101000203166002900480601f016020809104026020016040519081016040528092919081815260200182805460018160011615610100020316600290048015612c065780601f10612bdb57610100808354040283529160200191612c06565b820191906000526020600020905b815481529060010190602001808311612be957829003601f168201915b505050505091509850985098509850985098509850985050919395975091939597565b6000601160009054906101000a900473ffffffffffffffffffffffffffffffffffffffff1673ffffffffffffffffffffffffffffffffffffffff163373ffffffffffffffffffffffffffffffffffffffff16141515612c8757600080fd5b6001600760008573ffffffffffffffffffffffffffffffffffffffff1673ffffffffffffffffffffffffffffffffffffffff16815260200190815260200160002060008473ffffffffffffffffffffffffffffffffffffffff1673ffffffffffffffffffffffffffffffffffffffff16815260200190815260200160002060006101000a81548160ff021916908315150217905550600e600081548092919060010191905055506001905092915050565b6000601160009054906101000a900473ffffffffffffffffffffffffffffffffffffffff1673ffffffffffffffffffffffffffffffffffffffff163373ffffffffffffffffffffffffffffffffffffffff16141515612d9657600080fd5b600a60008373ffffffffffffffffffffffffffffffffffffffff1673ffffffffffffffffffffffffffffffffffffffff16815260200190815260200160002060009054906101000a900460ff161515612dee57600080fd5b6001600860008573ffffffffffffffffffffffffffffffffffffffff1673ffffffffffffffffffffffffffffffffffffffff16815260200190815260200160002060008473ffffffffffffffffffffffffffffffffffffffff1673ffffffffffffffffffffffffffffffffffffffff16815260200190815260200160002060006101000a81548160ff021916908315150217905550600e600081548092919060010191905055506001905092915050565b6000600e54905090565b6000601160009054906101000a900473ffffffffffffffffffffffffffffffffffffffff1673ffffffffffffffffffffffffffffffffffffffff163373ffffffffffffffffffffffffffffffffffffffff16141515612f0757600080fd5b600a60008373ffffffffffffffffffffffffffffffffffffffff1673ffffffffffffffffffffffffffffffffffffffff16815260200190815260200160002060009054906101000a900460ff161515612f5f57600080fd5b6000600860008573ffffffffffffffffffffffffffffffffffffffff1673ffffffffffffffffffffffffffffffffffffffff16815260200190815260200160002060008473ffffffffffffffffffffffffffffffffffffffff1673ffffffffffffffffffffffffffffffffffffffff16815260200190815260200160002060006101000a81548160ff0219169083151502179055506000905092915050565b60038181548110151561300d57fe5b906000526020600020016000915054906101000a900473ffffffffffffffffffffffffffffffffffffffff1681565b828054600181600116156101000203166002900490600052602060002090601f016020900481019282601f1061307d57805160ff19168380011785556130ab565b828001600101855582156130ab579182015b828111156130aa57825182559160200191906001019061308f565b5b5090506130b891906130bc565b5090565b6130de91905b808211156130da5760008160009055506001016130c2565b5090565b90565b60006130ed8235613922565b905092915050565b600082601f830112151561310857600080fd5b813561311b61311682613890565b613863565b9150808252602083016020830185838301111561313757600080fd5b61314283828461394c565b50505092915050565b60006131578235613942565b905092915050565b60006020828403121561317157600080fd5b600061317f848285016130e1565b91505092915050565b6000806040838503121561319b57600080fd5b60006131a9858286016130e1565b92505060206131ba858286016130e1565b9150509250929050565b600080600080600080600060e0888a0312156131df57600080fd5b60006131ed8a828b016130e1565b97505060206131fe8a828b016130e1565b965050604088013567ffffffffffffffff81111561321b57600080fd5b6132278a828b016130f5565b955050606088013567ffffffffffffffff81111561324457600080fd5b6132508a828b016130f5565b945050608088013567ffffffffffffffff81111561326d57600080fd5b6132798a828b016130f5565b93505060a088013567ffffffffffffffff81111561329657600080fd5b6132a28a828b016130f5565b92505060c06132b38a828b0161314b565b91505092959891949750929550565b600080600080600080600080610100898b0312156132df57600080fd5b60006132ed8b828c016130e1565b985050602089013567ffffffffffffffff81111561330a57600080fd5b6133168b828c016130f5565b975050604089013567ffffffffffffffff81111561333357600080fd5b61333f8b828c016130f5565b965050606089013567ffffffffffffffff81111561335c57600080fd5b6133688b828c016130f5565b955050608089013567ffffffffffffffff81111561338557600080fd5b6133918b828c016130f5565b94505060a089013567ffffffffffffffff8111156133ae57600080fd5b6133ba8b828c016130f5565b93505060c089013567ffffffffffffffff8111156133d757600080fd5b6133e38b828c016130f5565b92505060e089013567ffffffffffffffff81111561340057600080fd5b61340c8b828c016130f5565b9150509295985092959890939650565b6000806000806000806000806000806101408b8d03121561343c57600080fd5b600061344a8d828e016130e1565b9a505060208b013567ffffffffffffffff81111561346757600080fd5b6134738d828e016130f5565b99505060408b013567ffffffffffffffff81111561349057600080fd5b61349c8d828e016130f5565b98505060608b013567ffffffffffffffff8111156134b957600080fd5b6134c58d828e016130f5565b97505060808b013567ffffffffffffffff8111156134e257600080fd5b6134ee8d828e016130f5565b96505060a08b013567ffffffffffffffff81111561350b57600080fd5b6135178d828e016130f5565b95505060c08b013567ffffffffffffffff81111561353457600080fd5b6135408d828e016130f5565b94505060e08b013567ffffffffffffffff81111561355d57600080fd5b6135698d828e016130f5565b9350506101008b013567ffffffffffffffff81111561358757600080fd5b6135938d828e016130f5565b9250506101208b013567ffffffffffffffff8111156135b157600080fd5b6135bd8d828e016130f5565b9150509295989b9194979a5092959850565b6000602082840312156135e157600080fd5b60006135ef8482850161314b565b91505092915050565b613601816138ec565b82525050565b6000613612826138c9565b808452602084019350613624836138bc565b60005b828110156136565761363a8683516135f8565b613643826138df565b9150602086019550600181019050613627565b50849250505092915050565b61366b8161390c565b82525050565b600061367c826138d4565b80845261369081602086016020860161395b565b6136998161398e565b602085010191505092915050565b6136b081613918565b82525050565b60006020820190506136cb60008301846135f8565b92915050565b600060208201905081810360008301526136eb8184613607565b905092915050565b60006020820190506137086000830184613662565b92915050565b6000610100820190508181036000830152613729818b613671565b9050818103602083015261373d818a613671565b905081810360408301526137518189613671565b905081810360608301526137658188613671565b905081810360808301526137798187613671565b905081810360a083015261378d8186613671565b905081810360c08301526137a18185613671565b90506137b060e08301846135f8565b9998505050505050505050565b600060e08201905081810360008301526137d7818a613671565b905081810360208301526137eb8189613671565b905081810360408301526137ff8188613671565b905081810360608301526138138187613671565b905061382260808301866136a7565b61382f60a08301856135f8565b61383c60c08301846135f8565b98975050505050505050565b600060208201905061385d60008301846136a7565b92915050565b6000604051905081810181811067ffffffffffffffff8211171561388657600080fd5b8060405250919050565b600067ffffffffffffffff8211156138a757600080fd5b601f19601f8301169050602081019050919050565b6000602082019050919050565b600081519050919050565b600081519050919050565b6000602082019050919050565b600073ffffffffffffffffffffffffffffffffffffffff82169050919050565b60008115159050919050565b6000819050919050565b600073ffffffffffffffffffffffffffffffffffffffff82169050919050565b6000819050919050565b82818337600083830152505050565b60005b8381101561397957808201518184015260208101905061395e565b83811115613988576000848401525b50505050565b6000601f19601f83011690509190505600a265627a7a723058203d8e6ad49edae70b80d8e82de0eccac19161e56f8a6b46b04ee5c005b804cb6d6c6578706572696d656e74616cf50037",
					"opcodes": "PUSH1 0x80 PUSH1 0x40 MSTORE PUSH1 0x0 PUSH1 0xC SSTORE PUSH1 0x0 PUSH1 0xD SSTORE PUSH1 0x0 PUSH1 0xE SSTORE PUSH1 0x0 PUSH1 0xF SSTORE PUSH1 0x0 PUSH1 0x10 SSTORE PUSH20 0xC50C6297F56B033633C30354A854B074749CD2DC PUSH1 0x11 PUSH1 0x0 PUSH2 0x100 EXP DUP2 SLOAD DUP2 PUSH20 0xFFFFFFFFFFFFFFFFFFFFFFFFFFFFFFFFFFFFFFFF MUL NOT AND SWAP1 DUP4 PUSH20 0xFFFFFFFFFFFFFFFFFFFFFFFFFFFFFFFFFFFFFFFF AND MUL OR SWAP1 SSTORE POP CALLVALUE DUP1 ISZERO PUSH2 0x7E JUMPI PUSH1 0x0 DUP1 REVERT JUMPDEST POP PUSH2 0x39D9 DUP1 PUSH2 0x8E PUSH1 0x0 CODECOPY PUSH1 0x0 RETURN STOP PUSH1 0x80 PUSH1 0x40 MSTORE PUSH1 0x4 CALLDATASIZE LT PUSH2 0x195 JUMPI PUSH1 0x0 CALLDATALOAD PUSH29 0x100000000000000000000000000000000000000000000000000000000 SWAP1 DIV PUSH4 0xFFFFFFFF AND DUP1 PUSH3 0xCE8E3E EQ PUSH2 0x19A JUMPI DUP1 PUSH4 0x24DECC5 EQ PUSH2 0x1C5 JUMPI DUP1 PUSH4 0x76FD2F8 EQ PUSH2 0x1F0 JUMPI DUP1 PUSH4 0x7973CCF EQ PUSH2 0x234 JUMPI DUP1 PUSH4 0x127CA4B4 EQ PUSH2 0x25F JUMPI DUP1 PUSH4 0x16E0A611 EQ PUSH2 0x29C JUMPI DUP1 PUSH4 0x17E51111 EQ PUSH2 0x2C5 JUMPI DUP1 PUSH4 0x28F6DAAC EQ PUSH2 0x2EE JUMPI DUP1 PUSH4 0x294A4540 EQ PUSH2 0x32B JUMPI DUP1 PUSH4 0x44C23F88 EQ PUSH2 0x368 JUMPI DUP1 PUSH4 0x5FC8E8C6 EQ PUSH2 0x3A5 JUMPI DUP1 PUSH4 0x6CDB2278 EQ PUSH2 0x3E2 JUMPI DUP1 PUSH4 0x779A9576 EQ PUSH2 0x40B JUMPI DUP1 PUSH4 0x78522BC4 EQ PUSH2 0x434 JUMPI DUP1 PUSH4 0x79111C1C EQ PUSH2 0x45F JUMPI DUP1 PUSH4 0x793DE5F0 EQ PUSH2 0x48A JUMPI DUP1 PUSH4 0x83A28B29 EQ PUSH2 0x4C7 JUMPI DUP1 PUSH4 0x8DA5CB5B EQ PUSH2 0x50A JUMPI DUP1 PUSH4 0x96E39CE0 EQ PUSH2 0x535 JUMPI DUP1 PUSH4 0x99D698C5 EQ PUSH2 0x560 JUMPI DUP1 PUSH4 0x9F4216E8 EQ PUSH2 0x58B JUMPI DUP1 PUSH4 0xB13D5D94 EQ PUSH2 0x5C8 JUMPI DUP1 PUSH4 0xB5CB15F7 EQ PUSH2 0x5F3 JUMPI DUP1 PUSH4 0xB744FF4D EQ PUSH2 0x61E JUMPI DUP1 PUSH4 0xC3BF7BF0 EQ PUSH2 0x649 JUMPI DUP1 PUSH4 0xC543A718 EQ PUSH2 0x686 JUMPI DUP1 PUSH4 0xCAEE6C85 EQ PUSH2 0x6B1 JUMPI DUP1 PUSH4 0xD118404B EQ PUSH2 0x6F5 JUMPI DUP1 PUSH4 0xE0672AAD EQ PUSH2 0x732 JUMPI DUP1 PUSH4 0xE0DF0AC6 EQ PUSH2 0x76F JUMPI DUP1 PUSH4 0xEEE8F11A EQ PUSH2 0x79A JUMPI DUP1 PUSH4 0xFF508DAB EQ PUSH2 0x7D7 JUMPI JUMPDEST PUSH1 0x0 DUP1 REVERT JUMPDEST CALLVALUE DUP1 ISZERO PUSH2 0x1A6 JUMPI PUSH1 0x0 DUP1 REVERT JUMPDEST POP PUSH2 0x1AF PUSH2 0x814 JUMP JUMPDEST PUSH1 0x40 MLOAD PUSH2 0x1BC SWAP2 SWAP1 PUSH2 0x36D1 JUMP JUMPDEST PUSH1 0x40 MLOAD DUP1 SWAP2 SUB SWAP1 RETURN JUMPDEST CALLVALUE DUP1 ISZERO PUSH2 0x1D1 JUMPI PUSH1 0x0 DUP1 REVERT JUMPDEST POP PUSH2 0x1DA PUSH2 0x8A2 JUMP JUMPDEST PUSH1 0x40 MLOAD PUSH2 0x1E7 SWAP2 SWAP1 PUSH2 0x3848 JUMP JUMPDEST PUSH1 0x40 MLOAD DUP1 SWAP2 SUB SWAP1 RETURN JUMPDEST CALLVALUE DUP1 ISZERO PUSH2 0x1FC JUMPI PUSH1 0x0 DUP1 REVERT JUMPDEST POP PUSH2 0x217 PUSH1 0x4 DUP1 CALLDATASIZE SUB PUSH2 0x212 SWAP2 SWAP1 DUP2 ADD SWAP1 PUSH2 0x315F JUMP JUMPDEST PUSH2 0x8AC JUMP JUMPDEST PUSH1 0x40 MLOAD PUSH2 0x22B SWAP9 SWAP8 SWAP7 SWAP6 SWAP5 SWAP4 SWAP3 SWAP2 SWAP1 PUSH2 0x370E JUMP JUMPDEST PUSH1 0x40 MLOAD DUP1 SWAP2 SUB SWAP1 RETURN JUMPDEST CALLVALUE DUP1 ISZERO PUSH2 0x240 JUMPI PUSH1 0x0 DUP1 REVERT JUMPDEST POP PUSH2 0x249 PUSH2 0xE31 JUMP JUMPDEST PUSH1 0x40 MLOAD PUSH2 0x256 SWAP2 SWAP1 PUSH2 0x3848 JUMP JUMPDEST PUSH1 0x40 MLOAD DUP1 SWAP2 SUB SWAP1 RETURN JUMPDEST CALLVALUE DUP1 ISZERO PUSH2 0x26B JUMPI PUSH1 0x0 DUP1 REVERT JUMPDEST POP PUSH2 0x286 PUSH1 0x4 DUP1 CALLDATASIZE SUB PUSH2 0x281 SWAP2 SWAP1 DUP2 ADD SWAP1 PUSH2 0x35CF JUMP JUMPDEST PUSH2 0xE37 JUMP JUMPDEST PUSH1 0x40 MLOAD PUSH2 0x293 SWAP2 SWAP1 PUSH2 0x36B6 JUMP JUMPDEST PUSH1 0x40 MLOAD DUP1 SWAP2 SUB SWAP1 RETURN JUMPDEST CALLVALUE DUP1 ISZERO PUSH2 0x2A8 JUMPI PUSH1 0x0 DUP1 REVERT JUMPDEST POP PUSH2 0x2C3 PUSH1 0x4 DUP1 CALLDATASIZE SUB PUSH2 0x2BE SWAP2 SWAP1 DUP2 ADD SWAP1 PUSH2 0x32C2 JUMP JUMPDEST PUSH2 0xE75 JUMP JUMPDEST STOP JUMPDEST CALLVALUE DUP1 ISZERO PUSH2 0x2D1 JUMPI PUSH1 0x0 DUP1 REVERT JUMPDEST POP PUSH2 0x2EC PUSH1 0x4 DUP1 CALLDATASIZE SUB PUSH2 0x2E7 SWAP2 SWAP1 DUP2 ADD SWAP1 PUSH2 0x32C2 JUMP JUMPDEST PUSH2 0x1069 JUMP JUMPDEST STOP JUMPDEST CALLVALUE DUP1 ISZERO PUSH2 0x2FA JUMPI PUSH1 0x0 DUP1 REVERT JUMPDEST POP PUSH2 0x315 PUSH1 0x4 DUP1 CALLDATASIZE SUB PUSH2 0x310 SWAP2 SWAP1 DUP2 ADD SWAP1 PUSH2 0x315F JUMP JUMPDEST PUSH2 0x1483 JUMP JUMPDEST PUSH1 0x40 MLOAD PUSH2 0x322 SWAP2 SWAP1 PUSH2 0x36F3 JUMP JUMPDEST PUSH1 0x40 MLOAD DUP1 SWAP2 SUB SWAP1 RETURN JUMPDEST CALLVALUE DUP1 ISZERO PUSH2 0x337 JUMPI PUSH1 0x0 DUP1 REVERT JUMPDEST POP PUSH2 0x352 PUSH1 0x4 DUP1 CALLDATASIZE SUB PUSH2 0x34D SWAP2 SWAP1 DUP2 ADD SWAP1 PUSH2 0x315F JUMP JUMPDEST PUSH2 0x14F3 JUMP JUMPDEST PUSH1 0x40 MLOAD PUSH2 0x35F SWAP2 SWAP1 PUSH2 0x36F3 JUMP JUMPDEST PUSH1 0x40 MLOAD DUP1 SWAP2 SUB SWAP1 RETURN JUMPDEST CALLVALUE DUP1 ISZERO PUSH2 0x374 JUMPI PUSH1 0x0 DUP1 REVERT JUMPDEST POP PUSH2 0x38F PUSH1 0x4 DUP1 CALLDATASIZE SUB PUSH2 0x38A SWAP2 SWAP1 DUP2 ADD SWAP1 PUSH2 0x31C4 JUMP JUMPDEST PUSH2 0x15A5 JUMP JUMPDEST PUSH1 0x40 MLOAD PUSH2 0x39C SWAP2 SWAP1 PUSH2 0x36F3 JUMP JUMPDEST PUSH1 0x40 MLOAD DUP1 SWAP2 SUB SWAP1 RETURN JUMPDEST CALLVALUE DUP1 ISZERO PUSH2 0x3B1 JUMPI PUSH1 0x0 DUP1 REVERT JUMPDEST POP PUSH2 0x3CC PUSH1 0x4 DUP1 CALLDATASIZE SUB PUSH2 0x3C7 SWAP2 SWAP1 DUP2 ADD SWAP1 PUSH2 0x315F JUMP JUMPDEST PUSH2 0x18A6 JUMP JUMPDEST PUSH1 0x40 MLOAD PUSH2 0x3D9 SWAP2 SWAP1 PUSH2 0x36F3 JUMP JUMPDEST PUSH1 0x40 MLOAD DUP1 SWAP2 SUB SWAP1 RETURN JUMPDEST CALLVALUE DUP1 ISZERO PUSH2 0x3EE JUMPI PUSH1 0x0 DUP1 REVERT JUMPDEST POP PUSH2 0x409 PUSH1 0x4 DUP1 CALLDATASIZE SUB PUSH2 0x404 SWAP2 SWAP1 DUP2 ADD SWAP1 PUSH2 0x341C JUMP JUMPDEST PUSH2 0x1945 JUMP JUMPDEST STOP JUMPDEST CALLVALUE DUP1 ISZERO PUSH2 0x417 JUMPI PUSH1 0x0 DUP1 REVERT JUMPDEST POP PUSH2 0x432 PUSH1 0x4 DUP1 CALLDATASIZE SUB PUSH2 0x42D SWAP2 SWAP1 DUP2 ADD SWAP1 PUSH2 0x341C JUMP JUMPDEST PUSH2 0x1D93 JUMP JUMPDEST STOP JUMPDEST CALLVALUE DUP1 ISZERO PUSH2 0x440 JUMPI PUSH1 0x0 DUP1 REVERT JUMPDEST POP PUSH2 0x449 PUSH2 0x1FBB JUMP JUMPDEST PUSH1 0x40 MLOAD PUSH2 0x456 SWAP2 SWAP1 PUSH2 0x3848 JUMP JUMPDEST PUSH1 0x40 MLOAD DUP1 SWAP2 SUB SWAP1 RETURN JUMPDEST CALLVALUE DUP1 ISZERO PUSH2 0x46B JUMPI PUSH1 0x0 DUP1 REVERT JUMPDEST POP PUSH2 0x474 PUSH2 0x1FC1 JUMP JUMPDEST PUSH1 0x40 MLOAD PUSH2 0x481 SWAP2 SWAP1 PUSH2 0x3848 JUMP JUMPDEST PUSH1 0x40 MLOAD DUP1 SWAP2 SUB SWAP1 RETURN JUMPDEST CALLVALUE DUP1 ISZERO PUSH2 0x496 JUMPI PUSH1 0x0 DUP1 REVERT JUMPDEST POP PUSH2 0x4B1 PUSH1 0x4 DUP1 CALLDATASIZE SUB PUSH2 0x4AC SWAP2 SWAP1 DUP2 ADD SWAP1 PUSH2 0x315F JUMP JUMPDEST PUSH2 0x1FCB JUMP JUMPDEST PUSH1 0x40 MLOAD PUSH2 0x4BE SWAP2 SWAP1 PUSH2 0x36F3 JUMP JUMPDEST PUSH1 0x40 MLOAD DUP1 SWAP2 SUB SWAP1 RETURN JUMPDEST CALLVALUE DUP1 ISZERO PUSH2 0x4D3 JUMPI PUSH1 0x0 DUP1 REVERT JUMPDEST POP PUSH2 0x4EE PUSH1 0x4 DUP1 CALLDATASIZE SUB PUSH2 0x4E9 SWAP2 SWAP1 DUP2 ADD SWAP1 PUSH2 0x315F JUMP JUMPDEST PUSH2 0x2051 JUMP JUMPDEST PUSH1 0x40 MLOAD PUSH2 0x501 SWAP8 SWAP7 SWAP6 SWAP5 SWAP4 SWAP3 SWAP2 SWAP1 PUSH2 0x37BD JUMP JUMPDEST PUSH1 0x40 MLOAD DUP1 SWAP2 SUB SWAP1 RETURN JUMPDEST CALLVALUE DUP1 ISZERO PUSH2 0x516 JUMPI PUSH1 0x0 DUP1 REVERT JUMPDEST POP PUSH2 0x51F PUSH2 0x241C JUMP JUMPDEST PUSH1 0x40 MLOAD PUSH2 0x52C SWAP2 SWAP1 PUSH2 0x36B6 JUMP JUMPDEST PUSH1 0x40 MLOAD DUP1 SWAP2 SUB SWAP1 RETURN JUMPDEST CALLVALUE DUP1 ISZERO PUSH2 0x541 JUMPI PUSH1 0x0 DUP1 REVERT JUMPDEST POP PUSH2 0x54A PUSH2 0x2441 JUMP JUMPDEST PUSH1 0x40 MLOAD PUSH2 0x557 SWAP2 SWAP1 PUSH2 0x3848 JUMP JUMPDEST PUSH1 0x40 MLOAD DUP1 SWAP2 SUB SWAP1 RETURN JUMPDEST CALLVALUE DUP1 ISZERO PUSH2 0x56C JUMPI PUSH1 0x0 DUP1 REVERT JUMPDEST POP PUSH2 0x575 PUSH2 0x2447 JUMP JUMPDEST PUSH1 0x40 MLOAD PUSH2 0x582 SWAP2 SWAP1 PUSH2 0x3848 JUMP JUMPDEST PUSH1 0x40 MLOAD DUP1 SWAP2 SUB SWAP1 RETURN JUMPDEST CALLVALUE DUP1 ISZERO PUSH2 0x597 JUMPI PUSH1 0x0 DUP1 REVERT JUMPDEST POP PUSH2 0x5B2 PUSH1 0x4 DUP1 CALLDATASIZE SUB PUSH2 0x5AD SWAP2 SWAP1 DUP2 ADD SWAP1 PUSH2 0x35CF JUMP JUMPDEST PUSH2 0x244D JUMP JUMPDEST PUSH1 0x40 MLOAD PUSH2 0x5BF SWAP2 SWAP1 PUSH2 0x36B6 JUMP JUMPDEST PUSH1 0x40 MLOAD DUP1 SWAP2 SUB SWAP1 RETURN JUMPDEST CALLVALUE DUP1 ISZERO PUSH2 0x5D4 JUMPI PUSH1 0x0 DUP1 REVERT JUMPDEST POP PUSH2 0x5DD PUSH2 0x248B JUMP JUMPDEST PUSH1 0x40 MLOAD PUSH2 0x5EA SWAP2 SWAP1 PUSH2 0x36D1 JUMP JUMPDEST PUSH1 0x40 MLOAD DUP1 SWAP2 SUB SWAP1 RETURN JUMPDEST CALLVALUE DUP1 ISZERO PUSH2 0x5FF JUMPI PUSH1 0x0 DUP1 REVERT JUMPDEST POP PUSH2 0x608 PUSH2 0x2519 JUMP JUMPDEST PUSH1 0x40 MLOAD PUSH2 0x615 SWAP2 SWAP1 PUSH2 0x3848 JUMP JUMPDEST PUSH1 0x40 MLOAD DUP1 SWAP2 SUB SWAP1 RETURN JUMPDEST CALLVALUE DUP1 ISZERO PUSH2 0x62A JUMPI PUSH1 0x0 DUP1 REVERT JUMPDEST POP PUSH2 0x633 PUSH2 0x2523 JUMP JUMPDEST PUSH1 0x40 MLOAD PUSH2 0x640 SWAP2 SWAP1 PUSH2 0x36B6 JUMP JUMPDEST PUSH1 0x40 MLOAD DUP1 SWAP2 SUB SWAP1 RETURN JUMPDEST CALLVALUE DUP1 ISZERO PUSH2 0x655 JUMPI PUSH1 0x0 DUP1 REVERT JUMPDEST POP PUSH2 0x670 PUSH1 0x4 DUP1 CALLDATASIZE SUB PUSH2 0x66B SWAP2 SWAP1 DUP2 ADD SWAP1 PUSH2 0x3188 JUMP JUMPDEST PUSH2 0x2549 JUMP JUMPDEST PUSH1 0x40 MLOAD PUSH2 0x67D SWAP2 SWAP1 PUSH2 0x36F3 JUMP JUMPDEST PUSH1 0x40 MLOAD DUP1 SWAP2 SUB SWAP1 RETURN JUMPDEST CALLVALUE DUP1 ISZERO PUSH2 0x692 JUMPI PUSH1 0x0 DUP1 REVERT JUMPDEST POP PUSH2 0x69B PUSH2 0x2646 JUMP JUMPDEST PUSH1 0x40 MLOAD PUSH2 0x6A8 SWAP2 SWAP1 PUSH2 0x3848 JUMP JUMPDEST PUSH1 0x40 MLOAD DUP1 SWAP2 SUB SWAP1 RETURN JUMPDEST CALLVALUE DUP1 ISZERO PUSH2 0x6BD JUMPI PUSH1 0x0 DUP1 REVERT JUMPDEST POP PUSH2 0x6D8 PUSH1 0x4 DUP1 CALLDATASIZE SUB PUSH2 0x6D3 SWAP2 SWAP1 DUP2 ADD SWAP1 PUSH2 0x315F JUMP JUMPDEST PUSH2 0x264C JUMP JUMPDEST PUSH1 0x40 MLOAD PUSH2 0x6EC SWAP9 SWAP8 SWAP7 SWAP6 SWAP5 SWAP4 SWAP3 SWAP2 SWAP1 PUSH2 0x370E JUMP JUMPDEST PUSH1 0x40 MLOAD DUP1 SWAP2 SUB SWAP1 RETURN JUMPDEST CALLVALUE DUP1 ISZERO PUSH2 0x701 JUMPI PUSH1 0x0 DUP1 REVERT JUMPDEST POP PUSH2 0x71C PUSH1 0x4 DUP1 CALLDATASIZE SUB PUSH2 0x717 SWAP2 SWAP1 DUP2 ADD SWAP1 PUSH2 0x3188 JUMP JUMPDEST PUSH2 0x2C29 JUMP JUMPDEST PUSH1 0x40 MLOAD PUSH2 0x729 SWAP2 SWAP1 PUSH2 0x36F3 JUMP JUMPDEST PUSH1 0x40 MLOAD DUP1 SWAP2 SUB SWAP1 RETURN JUMPDEST CALLVALUE DUP1 ISZERO PUSH2 0x73E JUMPI PUSH1 0x0 DUP1 REVERT JUMPDEST POP PUSH2 0x759 PUSH1 0x4 DUP1 CALLDATASIZE SUB PUSH2 0x754 SWAP2 SWAP1 DUP2 ADD SWAP1 PUSH2 0x3188 JUMP JUMPDEST PUSH2 0x2D38 JUMP JUMPDEST PUSH1 0x40 MLOAD PUSH2 0x766 SWAP2 SWAP1 PUSH2 0x36F3 JUMP JUMPDEST PUSH1 0x40 MLOAD DUP1 SWAP2 SUB SWAP1 RETURN JUMPDEST CALLVALUE DUP1 ISZERO PUSH2 0x77B JUMPI PUSH1 0x0 DUP1 REVERT JUMPDEST POP PUSH2 0x784 PUSH2 0x2E9F JUMP JUMPDEST PUSH1 0x40 MLOAD PUSH2 0x791 SWAP2 SWAP1 PUSH2 0x3848 JUMP JUMPDEST PUSH1 0x40 MLOAD DUP1 SWAP2 SUB SWAP1 RETURN JUMPDEST CALLVALUE DUP1 ISZERO PUSH2 0x7A6 JUMPI PUSH1 0x0 DUP1 REVERT JUMPDEST POP PUSH2 0x7C1 PUSH1 0x4 DUP1 CALLDATASIZE SUB PUSH2 0x7BC SWAP2 SWAP1 DUP2 ADD SWAP1 PUSH2 0x3188 JUMP JUMPDEST PUSH2 0x2EA9 JUMP JUMPDEST PUSH1 0x40 MLOAD PUSH2 0x7CE SWAP2 SWAP1 PUSH2 0x36F3 JUMP JUMPDEST PUSH1 0x40 MLOAD DUP1 SWAP2 SUB SWAP1 RETURN JUMPDEST CALLVALUE DUP1 ISZERO PUSH2 0x7E3 JUMPI PUSH1 0x0 DUP1 REVERT JUMPDEST POP PUSH2 0x7FE PUSH1 0x4 DUP1 CALLDATASIZE SUB PUSH2 0x7F9 SWAP2 SWAP1 DUP2 ADD SWAP1 PUSH2 0x35CF JUMP JUMPDEST PUSH2 0x2FFE JUMP JUMPDEST PUSH1 0x40 MLOAD PUSH2 0x80B SWAP2 SWAP1 PUSH2 0x36B6 JUMP JUMPDEST PUSH1 0x40 MLOAD DUP1 SWAP2 SUB SWAP1 RETURN JUMPDEST PUSH1 0x60 PUSH1 0x1 DUP1 SLOAD DUP1 PUSH1 0x20 MUL PUSH1 0x20 ADD PUSH1 0x40 MLOAD SWAP1 DUP2 ADD PUSH1 0x40 MSTORE DUP1 SWAP3 SWAP2 SWAP1 DUP2 DUP2 MSTORE PUSH1 0x20 ADD DUP3 DUP1 SLOAD DUP1 ISZERO PUSH2 0x898 JUMPI PUSH1 0x20 MUL DUP3 ADD SWAP2 SWAP1 PUSH1 0x0 MSTORE PUSH1 0x20 PUSH1 0x0 KECCAK256 SWAP1 JUMPDEST DUP2 PUSH1 0x0 SWAP1 SLOAD SWAP1 PUSH2 0x100 EXP SWAP1 DIV PUSH20 0xFFFFFFFFFFFFFFFFFFFFFFFFFFFFFFFFFFFFFFFF AND PUSH20 0xFFFFFFFFFFFFFFFFFFFFFFFFFFFFFFFFFFFFFFFF AND DUP2 MSTORE PUSH1 0x20 ADD SWAP1 PUSH1 0x1 ADD SWAP1 DUP1 DUP4 GT PUSH2 0x84E JUMPI JUMPDEST POP POP POP POP POP SWAP1 POP SWAP1 JUMP JUMPDEST PUSH1 0x0 PUSH1 0xF SLOAD SWAP1 POP SWAP1 JUMP JUMPDEST PUSH1 0x60 DUP1 PUSH1 0x60 DUP1 PUSH1 0x60 DUP1 PUSH1 0x60 PUSH1 0x0 DUP1 PUSH1 0x7 PUSH1 0x0 DUP12 PUSH20 0xFFFFFFFFFFFFFFFFFFFFFFFFFFFFFFFFFFFFFFFF AND PUSH20 0xFFFFFFFFFFFFFFFFFFFFFFFFFFFFFFFFFFFFFFFF AND DUP2 MSTORE PUSH1 0x20 ADD SWAP1 DUP2 MSTORE PUSH1 0x20 ADD PUSH1 0x0 KECCAK256 PUSH1 0x0 CALLER PUSH20 0xFFFFFFFFFFFFFFFFFFFFFFFFFFFFFFFFFFFFFFFF AND PUSH20 0xFFFFFFFFFFFFFFFFFFFFFFFFFFFFFFFFFFFFFFFF AND DUP2 MSTORE PUSH1 0x20 ADD SWAP1 DUP2 MSTORE PUSH1 0x20 ADD PUSH1 0x0 KECCAK256 PUSH1 0x0 SWAP1 SLOAD SWAP1 PUSH2 0x100 EXP SWAP1 DIV PUSH1 0xFF AND ISZERO ISZERO PUSH2 0x94F JUMPI PUSH1 0x0 DUP1 REVERT JUMPDEST PUSH1 0x4 PUSH1 0x0 DUP12 PUSH20 0xFFFFFFFFFFFFFFFFFFFFFFFFFFFFFFFFFFFFFFFF AND PUSH20 0xFFFFFFFFFFFFFFFFFFFFFFFFFFFFFFFFFFFFFFFF AND DUP2 MSTORE PUSH1 0x20 ADD SWAP1 DUP2 MSTORE PUSH1 0x20 ADD PUSH1 0x0 KECCAK256 SWAP1 POP DUP1 PUSH1 0x0 ADD DUP2 PUSH1 0x1 ADD DUP3 PUSH1 0x6 ADD DUP4 PUSH1 0x2 ADD DUP5 PUSH1 0x3 ADD DUP6 PUSH1 0x4 ADD DUP7 PUSH1 0x5 ADD DUP8 PUSH1 0x9 ADD PUSH1 0x0 SWAP1 SLOAD SWAP1 PUSH2 0x100 EXP SWAP1 DIV PUSH20 0xFFFFFFFFFFFFFFFFFFFFFFFFFFFFFFFFFFFFFFFF AND DUP8 DUP1 SLOAD PUSH1 0x1 DUP2 PUSH1 0x1 AND ISZERO PUSH2 0x100 MUL SUB AND PUSH1 0x2 SWAP1 DIV DUP1 PUSH1 0x1F ADD PUSH1 0x20 DUP1 SWAP2 DIV MUL PUSH1 0x20 ADD PUSH1 0x40 MLOAD SWAP1 DUP2 ADD PUSH1 0x40 MSTORE DUP1 SWAP3 SWAP2 SWAP1 DUP2 DUP2 MSTORE PUSH1 0x20 ADD DUP3 DUP1 SLOAD PUSH1 0x1 DUP2 PUSH1 0x1 AND ISZERO PUSH2 0x100 MUL SUB AND PUSH1 0x2 SWAP1 DIV DUP1 ISZERO PUSH2 0xA66 JUMPI DUP1 PUSH1 0x1F LT PUSH2 0xA3B JUMPI PUSH2 0x100 DUP1 DUP4 SLOAD DIV MUL DUP4 MSTORE SWAP2 PUSH1 0x20 ADD SWAP2 PUSH2 0xA66 JUMP JUMPDEST DUP3 ADD SWAP2 SWAP1 PUSH1 0x0 MSTORE PUSH1 0x20 PUSH1 0x0 KECCAK256 SWAP1 JUMPDEST DUP2 SLOAD DUP2 MSTORE SWAP1 PUSH1 0x1 ADD SWAP1 PUSH1 0x20 ADD DUP1 DUP4 GT PUSH2 0xA49 JUMPI DUP3 SWAP1 SUB PUSH1 0x1F AND DUP3 ADD SWAP2 JUMPDEST POP POP POP POP POP SWAP8 POP DUP7 DUP1 SLOAD PUSH1 0x1 DUP2 PUSH1 0x1 AND ISZERO PUSH2 0x100 MUL SUB AND PUSH1 0x2 SWAP1 DIV DUP1 PUSH1 0x1F ADD PUSH1 0x20 DUP1 SWAP2 DIV MUL PUSH1 0x20 ADD PUSH1 0x40 MLOAD SWAP1 DUP2 ADD PUSH1 0x40 MSTORE DUP1 SWAP3 SWAP2 SWAP1 DUP2 DUP2 MSTORE PUSH1 0x20 ADD DUP3 DUP1 SLOAD PUSH1 0x1 DUP2 PUSH1 0x1 AND ISZERO PUSH2 0x100 MUL SUB AND PUSH1 0x2 SWAP1 DIV DUP1 ISZERO PUSH2 0xB02 JUMPI DUP1 PUSH1 0x1F LT PUSH2 0xAD7 JUMPI PUSH2 0x100 DUP1 DUP4 SLOAD DIV MUL DUP4 MSTORE SWAP2 PUSH1 0x20 ADD SWAP2 PUSH2 0xB02 JUMP JUMPDEST DUP3 ADD SWAP2 SWAP1 PUSH1 0x0 MSTORE PUSH1 0x20 PUSH1 0x0 KECCAK256 SWAP1 JUMPDEST DUP2 SLOAD DUP2 MSTORE SWAP1 PUSH1 0x1 ADD SWAP1 PUSH1 0x20 ADD DUP1 DUP4 GT PUSH2 0xAE5 JUMPI DUP3 SWAP1 SUB PUSH1 0x1F AND DUP3 ADD SWAP2 JUMPDEST POP POP POP POP POP SWAP7 POP DUP6 DUP1 SLOAD PUSH1 0x1 DUP2 PUSH1 0x1 AND ISZERO PUSH2 0x100 MUL SUB AND PUSH1 0x2 SWAP1 DIV DUP1 PUSH1 0x1F ADD PUSH1 0x20 DUP1 SWAP2 DIV MUL PUSH1 0x20 ADD PUSH1 0x40 MLOAD SWAP1 DUP2 ADD PUSH1 0x40 MSTORE DUP1 SWAP3 SWAP2 SWAP1 DUP2 DUP2 MSTORE PUSH1 0x20 ADD DUP3 DUP1 SLOAD PUSH1 0x1 DUP2 PUSH1 0x1 AND ISZERO PUSH2 0x100 MUL SUB AND PUSH1 0x2 SWAP1 DIV DUP1 ISZERO PUSH2 0xB9E JUMPI DUP1 PUSH1 0x1F LT PUSH2 0xB73 JUMPI PUSH2 0x100 DUP1 DUP4 SLOAD DIV MUL DUP4 MSTORE SWAP2 PUSH1 0x20 ADD SWAP2 PUSH2 0xB9E JUMP JUMPDEST DUP3 ADD SWAP2 SWAP1 PUSH1 0x0 MSTORE PUSH1 0x20 PUSH1 0x0 KECCAK256 SWAP1 JUMPDEST DUP2 SLOAD DUP2 MSTORE SWAP1 PUSH1 0x1 ADD SWAP1 PUSH1 0x20 ADD DUP1 DUP4 GT PUSH2 0xB81 JUMPI DUP3 SWAP1 SUB PUSH1 0x1F AND DUP3 ADD SWAP2 JUMPDEST POP POP POP POP POP SWAP6 POP DUP5 DUP1 SLOAD PUSH1 0x1 DUP2 PUSH1 0x1 AND ISZERO PUSH2 0x100 MUL SUB AND PUSH1 0x2 SWAP1 DIV DUP1 PUSH1 0x1F ADD PUSH1 0x20 DUP1 SWAP2 DIV MUL PUSH1 0x20 ADD PUSH1 0x40 MLOAD SWAP1 DUP2 ADD PUSH1 0x40 MSTORE DUP1 SWAP3 SWAP2 SWAP1 DUP2 DUP2 MSTORE PUSH1 0x20 ADD DUP3 DUP1 SLOAD PUSH1 0x1 DUP2 PUSH1 0x1 AND ISZERO PUSH2 0x100 MUL SUB AND PUSH1 0x2 SWAP1 DIV DUP1 ISZERO PUSH2 0xC3A JUMPI DUP1 PUSH1 0x1F LT PUSH2 0xC0F JUMPI PUSH2 0x100 DUP1 DUP4 SLOAD DIV MUL DUP4 MSTORE SWAP2 PUSH1 0x20 ADD SWAP2 PUSH2 0xC3A JUMP JUMPDEST DUP3 ADD SWAP2 SWAP1 PUSH1 0x0 MSTORE PUSH1 0x20 PUSH1 0x0 KECCAK256 SWAP1 JUMPDEST DUP2 SLOAD DUP2 MSTORE SWAP1 PUSH1 0x1 ADD SWAP1 PUSH1 0x20 ADD DUP1 DUP4 GT PUSH2 0xC1D JUMPI DUP3 SWAP1 SUB PUSH1 0x1F AND DUP3 ADD SWAP2 JUMPDEST POP POP POP POP POP SWAP5 POP DUP4 DUP1 SLOAD PUSH1 0x1 DUP2 PUSH1 0x1 AND ISZERO PUSH2 0x100 MUL SUB AND PUSH1 0x2 SWAP1 DIV DUP1 PUSH1 0x1F ADD PUSH1 0x20 DUP1 SWAP2 DIV MUL PUSH1 0x20 ADD PUSH1 0x40 MLOAD SWAP1 DUP2 ADD PUSH1 0x40 MSTORE DUP1 SWAP3 SWAP2 SWAP1 DUP2 DUP2 MSTORE PUSH1 0x20 ADD DUP3 DUP1 SLOAD PUSH1 0x1 DUP2 PUSH1 0x1 AND ISZERO PUSH2 0x100 MUL SUB AND PUSH1 0x2 SWAP1 DIV DUP1 ISZERO PUSH2 0xCD6 JUMPI DUP1 PUSH1 0x1F LT PUSH2 0xCAB JUMPI PUSH2 0x100 DUP1 DUP4 SLOAD DIV MUL DUP4 MSTORE SWAP2 PUSH1 0x20 ADD SWAP2 PUSH2 0xCD6 JUMP JUMPDEST DUP3 ADD SWAP2 SWAP1 PUSH1 0x0 MSTORE PUSH1 0x20 PUSH1 0x0 KECCAK256 SWAP1 JUMPDEST DUP2 SLOAD DUP2 MSTORE SWAP1 PUSH1 0x1 ADD SWAP1 PUSH1 0x20 ADD DUP1 DUP4 GT PUSH2 0xCB9 JUMPI DUP3 SWAP1 SUB PUSH1 0x1F AND DUP3 ADD SWAP2 JUMPDEST POP POP POP POP POP SWAP4 POP DUP3 DUP1 SLOAD PUSH1 0x1 DUP2 PUSH1 0x1 AND ISZERO PUSH2 0x100 MUL SUB AND PUSH1 0x2 SWAP1 DIV DUP1 PUSH1 0x1F ADD PUSH1 0x20 DUP1 SWAP2 DIV MUL PUSH1 0x20 ADD PUSH1 0x40 MLOAD SWAP1 DUP2 ADD PUSH1 0x40 MSTORE DUP1 SWAP3 SWAP2 SWAP1 DUP2 DUP2 MSTORE PUSH1 0x20 ADD DUP3 DUP1 SLOAD PUSH1 0x1 DUP2 PUSH1 0x1 AND ISZERO PUSH2 0x100 MUL SUB AND PUSH1 0x2 SWAP1 DIV DUP1 ISZERO PUSH2 0xD72 JUMPI DUP1 PUSH1 0x1F LT PUSH2 0xD47 JUMPI PUSH2 0x100 DUP1 DUP4 SLOAD DIV MUL DUP4 MSTORE SWAP2 PUSH1 0x20 ADD SWAP2 PUSH2 0xD72 JUMP JUMPDEST DUP3 ADD SWAP2 SWAP1 PUSH1 0x0 MSTORE PUSH1 0x20 PUSH1 0x0 KECCAK256 SWAP1 JUMPDEST DUP2 SLOAD DUP2 MSTORE SWAP1 PUSH1 0x1 ADD SWAP1 PUSH1 0x20 ADD DUP1 DUP4 GT PUSH2 0xD55 JUMPI DUP3 SWAP1 SUB PUSH1 0x1F AND DUP3 ADD SWAP2 JUMPDEST POP POP POP POP POP SWAP3 POP DUP2 DUP1 SLOAD PUSH1 0x1 DUP2 PUSH1 0x1 AND ISZERO PUSH2 0x100 MUL SUB AND PUSH1 0x2 SWAP1 DIV DUP1 PUSH1 0x1F ADD PUSH1 0x20 DUP1 SWAP2 DIV MUL PUSH1 0x20 ADD PUSH1 0x40 MLOAD SWAP1 DUP2 ADD PUSH1 0x40 MSTORE DUP1 SWAP3 SWAP2 SWAP1 DUP2 DUP2 MSTORE PUSH1 0x20 ADD DUP3 DUP1 SLOAD PUSH1 0x1 DUP2 PUSH1 0x1 AND ISZERO PUSH2 0x100 MUL SUB AND PUSH1 0x2 SWAP1 DIV DUP1 ISZERO PUSH2 0xE0E JUMPI DUP1 PUSH1 0x1F LT PUSH2 0xDE3 JUMPI PUSH2 0x100 DUP1 DUP4 SLOAD DIV MUL DUP4 MSTORE SWAP2 PUSH1 0x20 ADD SWAP2 PUSH2 0xE0E JUMP JUMPDEST DUP3 ADD SWAP2 SWAP1 PUSH1 0x0 MSTORE PUSH1 0x20 PUSH1 0x0 KECCAK256 SWAP1 JUMPDEST DUP2 SLOAD DUP2 MSTORE SWAP1 PUSH1 0x1 ADD SWAP1 PUSH1 0x20 ADD DUP1 DUP4 GT PUSH2 0xDF1 JUMPI DUP3 SWAP1 SUB PUSH1 0x1F AND DUP3 ADD SWAP2 JUMPDEST POP POP POP POP POP SWAP2 POP SWAP9 POP SWAP9 POP SWAP9 POP SWAP9 POP SWAP9 POP SWAP9 POP SWAP9 POP SWAP9 POP POP SWAP2 SWAP4 SWAP6 SWAP8 POP SWAP2 SWAP4 SWAP6 SWAP8 JUMP JUMPDEST PUSH1 0xC SLOAD DUP2 JUMP JUMPDEST PUSH1 0x2 DUP2 DUP2 SLOAD DUP2 LT ISZERO ISZERO PUSH2 0xE46 JUMPI INVALID JUMPDEST SWAP1 PUSH1 0x0 MSTORE PUSH1 0x20 PUSH1 0x0 KECCAK256 ADD PUSH1 0x0 SWAP2 POP SLOAD SWAP1 PUSH2 0x100 EXP SWAP1 DIV PUSH20 0xFFFFFFFFFFFFFFFFFFFFFFFFFFFFFFFFFFFFFFFF AND DUP2 JUMP JUMPDEST PUSH1 0x0 PUSH1 0x11 PUSH1 0x0 SWAP1 SLOAD SWAP1 PUSH2 0x100 EXP SWAP1 DIV PUSH20 0xFFFFFFFFFFFFFFFFFFFFFFFFFFFFFFFFFFFFFFFF AND PUSH20 0xFFFFFFFFFFFFFFFFFFFFFFFFFFFFFFFFFFFFFFFF AND CALLER PUSH20 0xFFFFFFFFFFFFFFFFFFFFFFFFFFFFFFFFFFFFFFFF AND EQ ISZERO ISZERO PUSH2 0xED3 JUMPI PUSH1 0x0 DUP1 REVERT JUMPDEST PUSH1 0xA PUSH1 0x0 DUP11 PUSH20 0xFFFFFFFFFFFFFFFFFFFFFFFFFFFFFFFFFFFFFFFF AND PUSH20 0xFFFFFFFFFFFFFFFFFFFFFFFFFFFFFFFFFFFFFFFF AND DUP2 MSTORE PUSH1 0x20 ADD SWAP1 DUP2 MSTORE PUSH1 0x20 ADD PUSH1 0x0 KECCAK256 PUSH1 0x0 SWAP1 SLOAD SWAP1 PUSH2 0x100 EXP SWAP1 DIV PUSH1 0xFF AND ISZERO ISZERO PUSH2 0xF2B JUMPI PUSH1 0x0 DUP1 REVERT JUMPDEST PUSH1 0x5 PUSH1 0x0 DUP11 PUSH20 0xFFFFFFFFFFFFFFFFFFFFFFFFFFFFFFFFFFFFFFFF AND PUSH20 0xFFFFFFFFFFFFFFFFFFFFFFFFFFFFFFFFFFFFFFFF AND DUP2 MSTORE PUSH1 0x20 ADD SWAP1 DUP2 MSTORE PUSH1 0x20 ADD PUSH1 0x0 KECCAK256 SWAP1 POP DUP8 DUP2 PUSH1 0x0 ADD SWAP1 DUP1 MLOAD SWAP1 PUSH1 0x20 ADD SWAP1 PUSH2 0xF84 SWAP3 SWAP2 SWAP1 PUSH2 0x303C JUMP JUMPDEST POP DUP7 DUP2 PUSH1 0x1 ADD SWAP1 DUP1 MLOAD SWAP1 PUSH1 0x20 ADD SWAP1 PUSH2 0xF9D SWAP3 SWAP2 SWAP1 PUSH2 0x303C JUMP JUMPDEST POP DUP6 DUP2 PUSH1 0x2 ADD SWAP1 DUP1 MLOAD SWAP1 PUSH1 0x20 ADD SWAP1 PUSH2 0xFB6 SWAP3 SWAP2 SWAP1 PUSH2 0x303C JUMP JUMPDEST POP DUP5 DUP2 PUSH1 0x3 ADD SWAP1 DUP1 MLOAD SWAP1 PUSH1 0x20 ADD SWAP1 PUSH2 0xFCF SWAP3 SWAP2 SWAP1 PUSH2 0x303C JUMP JUMPDEST POP DUP4 DUP2 PUSH1 0x5 ADD SWAP1 DUP1 MLOAD SWAP1 PUSH1 0x20 ADD SWAP1 PUSH2 0xFE8 SWAP3 SWAP2 SWAP1 PUSH2 0x303C JUMP JUMPDEST POP DUP3 DUP2 PUSH1 0x6 ADD SWAP1 DUP1 MLOAD SWAP1 PUSH1 0x20 ADD SWAP1 PUSH2 0x1001 SWAP3 SWAP2 SWAP1 PUSH2 0x303C JUMP JUMPDEST POP DUP2 DUP2 PUSH1 0x7 ADD SWAP1 DUP1 MLOAD SWAP1 PUSH1 0x20 ADD SWAP1 PUSH2 0x101A SWAP3 SWAP2 SWAP1 PUSH2 0x303C JUMP JUMPDEST POP DUP9 DUP2 PUSH1 0x8 ADD PUSH1 0x0 PUSH2 0x100 EXP DUP2 SLOAD DUP2 PUSH20 0xFFFFFFFFFFFFFFFFFFFFFFFFFFFFFFFFFFFFFFFF MUL NOT AND SWAP1 DUP4 PUSH20 0xFFFFFFFFFFFFFFFFFFFFFFFFFFFFFFFFFFFFFFFF AND MUL OR SWAP1 SSTORE POP POP POP POP POP POP POP POP POP POP JUMP JUMPDEST PUSH1 0x0 PUSH1 0x11 PUSH1 0x0 SWAP1 SLOAD SWAP1 PUSH2 0x100 EXP SWAP1 DIV PUSH20 0xFFFFFFFFFFFFFFFFFFFFFFFFFFFFFFFFFFFFFFFF AND PUSH20 0xFFFFFFFFFFFFFFFFFFFFFFFFFFFFFFFFFFFFFFFF AND CALLER PUSH20 0xFFFFFFFFFFFFFFFFFFFFFFFFFFFFFFFFFFFFFFFF AND EQ ISZERO ISZERO PUSH2 0x10C7 JUMPI PUSH1 0x0 DUP1 REVERT JUMPDEST PUSH1 0xA PUSH1 0x0 DUP11 PUSH20 0xFFFFFFFFFFFFFFFFFFFFFFFFFFFFFFFFFFFFFFFF AND PUSH20 0xFFFFFFFFFFFFFFFFFFFFFFFFFFFFFFFFFFFFFFFF AND DUP2 MSTORE PUSH1 0x20 ADD SWAP1 DUP2 MSTORE PUSH1 0x20 ADD PUSH1 0x0 KECCAK256 PUSH1 0x0 SWAP1 SLOAD SWAP1 PUSH2 0x100 EXP SWAP1 DIV PUSH1 0xFF AND ISZERO ISZERO ISZERO PUSH2 0x1120 JUMPI PUSH1 0x0 DUP1 REVERT JUMPDEST PUSH1 0x5 PUSH1 0x0 DUP11 PUSH20 0xFFFFFFFFFFFFFFFFFFFFFFFFFFFFFFFFFFFFFFFF AND PUSH20 0xFFFFFFFFFFFFFFFFFFFFFFFFFFFFFFFFFFFFFFFF AND DUP2 MSTORE PUSH1 0x20 ADD SWAP1 DUP2 MSTORE PUSH1 0x20 ADD PUSH1 0x0 KECCAK256 SWAP1 POP DUP8 DUP2 PUSH1 0x0 ADD SWAP1 DUP1 MLOAD SWAP1 PUSH1 0x20 ADD SWAP1 PUSH2 0x1179 SWAP3 SWAP2 SWAP1 PUSH2 0x303C JUMP JUMPDEST POP DUP7 DUP2 PUSH1 0x1 ADD SWAP1 DUP1 MLOAD SWAP1 PUSH1 0x20 ADD SWAP1 PUSH2 0x1192 SWAP3 SWAP2 SWAP1 PUSH2 0x303C JUMP JUMPDEST POP DUP6 DUP2 PUSH1 0x2 ADD SWAP1 DUP1 MLOAD SWAP1 PUSH1 0x20 ADD SWAP1 PUSH2 0x11AB SWAP3 SWAP2 SWAP1 PUSH2 0x303C JUMP JUMPDEST POP DUP5 DUP2 PUSH1 0x3 ADD SWAP1 DUP1 MLOAD SWAP1 PUSH1 0x20 ADD SWAP1 PUSH2 0x11C4 SWAP3 SWAP2 SWAP1 PUSH2 0x303C JUMP JUMPDEST POP DUP4 DUP2 PUSH1 0x5 ADD SWAP1 DUP1 MLOAD SWAP1 PUSH1 0x20 ADD SWAP1 PUSH2 0x11DD SWAP3 SWAP2 SWAP1 PUSH2 0x303C JUMP JUMPDEST POP DUP3 DUP2 PUSH1 0x6 ADD SWAP1 DUP1 MLOAD SWAP1 PUSH1 0x20 ADD SWAP1 PUSH2 0x11F6 SWAP3 SWAP2 SWAP1 PUSH2 0x303C JUMP JUMPDEST POP DUP2 DUP2 PUSH1 0x7 ADD SWAP1 DUP1 MLOAD SWAP1 PUSH1 0x20 ADD SWAP1 PUSH2 0x120F SWAP3 SWAP2 SWAP1 PUSH2 0x303C JUMP JUMPDEST POP DUP9 DUP2 PUSH1 0x8 ADD PUSH1 0x0 PUSH2 0x100 EXP DUP2 SLOAD DUP2 PUSH20 0xFFFFFFFFFFFFFFFFFFFFFFFFFFFFFFFFFFFFFFFF MUL NOT AND SWAP1 DUP4 PUSH20 0xFFFFFFFFFFFFFFFFFFFFFFFFFFFFFFFFFFFFFFFF AND MUL OR SWAP1 SSTORE POP TIMESTAMP DUP2 PUSH1 0x9 ADD DUP2 SWAP1 SSTORE POP PUSH1 0x2 DUP10 SWAP1 DUP1 PUSH1 0x1 DUP2 SLOAD ADD DUP1 DUP3 SSTORE DUP1 SWAP2 POP POP SWAP1 PUSH1 0x1 DUP3 SUB SWAP1 PUSH1 0x0 MSTORE PUSH1 0x20 PUSH1 0x0 KECCAK256 ADD PUSH1 0x0 SWAP1 SWAP2 SWAP3 SWAP1 SWAP2 SWAP1 SWAP2 PUSH2 0x100 EXP DUP2 SLOAD DUP2 PUSH20 0xFFFFFFFFFFFFFFFFFFFFFFFFFFFFFFFFFFFFFFFF MUL NOT AND SWAP1 DUP4 PUSH20 0xFFFFFFFFFFFFFFFFFFFFFFFFFFFFFFFFFFFFFFFF AND MUL OR SWAP1 SSTORE POP POP PUSH1 0x1 PUSH1 0xA PUSH1 0x0 DUP12 PUSH20 0xFFFFFFFFFFFFFFFFFFFFFFFFFFFFFFFFFFFFFFFF AND PUSH20 0xFFFFFFFFFFFFFFFFFFFFFFFFFFFFFFFFFFFFFFFF AND DUP2 MSTORE PUSH1 0x20 ADD SWAP1 DUP2 MSTORE PUSH1 0x20 ADD PUSH1 0x0 KECCAK256 PUSH1 0x0 PUSH2 0x100 EXP DUP2 SLOAD DUP2 PUSH1 0xFF MUL NOT AND SWAP1 DUP4 ISZERO ISZERO MUL OR SWAP1 SSTORE POP PUSH1 0x1 PUSH1 0x7 PUSH1 0x0 DUP12 PUSH20 0xFFFFFFFFFFFFFFFFFFFFFFFFFFFFFFFFFFFFFFFF AND PUSH20 0xFFFFFFFFFFFFFFFFFFFFFFFFFFFFFFFFFFFFFFFF AND DUP2 MSTORE PUSH1 0x20 ADD SWAP1 DUP2 MSTORE PUSH1 0x20 ADD PUSH1 0x0 KECCAK256 PUSH1 0x0 DUP12 PUSH20 0xFFFFFFFFFFFFFFFFFFFFFFFFFFFFFFFFFFFFFFFF AND PUSH20 0xFFFFFFFFFFFFFFFFFFFFFFFFFFFFFFFFFFFFFFFF AND DUP2 MSTORE PUSH1 0x20 ADD SWAP1 DUP2 MSTORE PUSH1 0x20 ADD PUSH1 0x0 KECCAK256 PUSH1 0x0 PUSH2 0x100 EXP DUP2 SLOAD DUP2 PUSH1 0xFF MUL NOT AND SWAP1 DUP4 ISZERO ISZERO MUL OR SWAP1 SSTORE POP PUSH1 0x1 PUSH1 0x7 PUSH1 0x0 DUP12 PUSH20 0xFFFFFFFFFFFFFFFFFFFFFFFFFFFFFFFFFFFFFFFF AND PUSH20 0xFFFFFFFFFFFFFFFFFFFFFFFFFFFFFFFFFFFFFFFF AND DUP2 MSTORE PUSH1 0x20 ADD SWAP1 DUP2 MSTORE PUSH1 0x20 ADD PUSH1 0x0 KECCAK256 PUSH1 0x0 PUSH1 0x11 PUSH1 0x0 SWAP1 SLOAD SWAP1 PUSH2 0x100 EXP SWAP1 DIV PUSH20 0xFFFFFFFFFFFFFFFFFFFFFFFFFFFFFFFFFFFFFFFF AND PUSH20 0xFFFFFFFFFFFFFFFFFFFFFFFFFFFFFFFFFFFFFFFF AND PUSH20 0xFFFFFFFFFFFFFFFFFFFFFFFFFFFFFFFFFFFFFFFF AND DUP2 MSTORE PUSH1 0x20 ADD SWAP1 DUP2 MSTORE PUSH1 0x20 ADD PUSH1 0x0 KECCAK256 PUSH1 0x0 PUSH2 0x100 EXP DUP2 SLOAD DUP2 PUSH1 0xFF MUL NOT AND SWAP1 DUP4 ISZERO ISZERO MUL OR SWAP1 SSTORE POP PUSH1 0xD PUSH1 0x0 DUP2 SLOAD DUP1 SWAP3 SWAP2 SWAP1 PUSH1 0x1 ADD SWAP2 SWAP1 POP SSTORE POP POP POP POP POP POP POP POP POP POP JUMP JUMPDEST PUSH1 0x0 DUP1 DUP3 SWAP1 POP PUSH1 0x11 PUSH1 0x0 SWAP1 SLOAD SWAP1 PUSH2 0x100 EXP SWAP1 DIV PUSH20 0xFFFFFFFFFFFFFFFFFFFFFFFFFFFFFFFFFFFFFFFF AND PUSH20 0xFFFFFFFFFFFFFFFFFFFFFFFFFFFFFFFFFFFFFFFF AND DUP2 PUSH20 0xFFFFFFFFFFFFFFFFFFFFFFFFFFFFFFFFFFFFFFFF AND EQ ISZERO PUSH2 0x14E8 JUMPI PUSH1 0x1 SWAP2 POP PUSH2 0x14ED JUMP JUMPDEST PUSH1 0x0 SWAP2 POP JUMPDEST POP SWAP2 SWAP1 POP JUMP JUMPDEST PUSH1 0x0 PUSH1 0x1 PUSH1 0x7 PUSH1 0x0 CALLER PUSH20 0xFFFFFFFFFFFFFFFFFFFFFFFFFFFFFFFFFFFFFFFF AND PUSH20 0xFFFFFFFFFFFFFFFFFFFFFFFFFFFFFFFFFFFFFFFF AND DUP2 MSTORE PUSH1 0x20 ADD SWAP1 DUP2 MSTORE PUSH1 0x20 ADD PUSH1 0x0 KECCAK256 PUSH1 0x0 DUP5 PUSH20 0xFFFFFFFFFFFFFFFFFFFFFFFFFFFFFFFFFFFFFFFF AND PUSH20 0xFFFFFFFFFFFFFFFFFFFFFFFFFFFFFFFFFFFFFFFF AND DUP2 MSTORE PUSH1 0x20 ADD SWAP1 DUP2 MSTORE PUSH1 0x20 ADD PUSH1 0x0 KECCAK256 PUSH1 0x0 PUSH2 0x100 EXP DUP2 SLOAD DUP2 PUSH1 0xFF MUL NOT AND SWAP1 DUP4 ISZERO ISZERO MUL OR SWAP1 SSTORE POP PUSH1 0xF PUSH1 0x0 DUP2 SLOAD DUP1 SWAP3 SWAP2 SWAP1 PUSH1 0x1 ADD SWAP2 SWAP1 POP SSTORE POP PUSH1 0x1 SWAP1 POP SWAP2 SWAP1 POP JUMP JUMPDEST PUSH1 0x0 DUP1 PUSH1 0x11 PUSH1 0x0 SWAP1 SLOAD SWAP1 PUSH2 0x100 EXP SWAP1 DIV PUSH20 0xFFFFFFFFFFFFFFFFFFFFFFFFFFFFFFFFFFFFFFFF AND PUSH20 0xFFFFFFFFFFFFFFFFFFFFFFFFFFFFFFFFFFFFFFFF AND CALLER PUSH20 0xFFFFFFFFFFFFFFFFFFFFFFFFFFFFFFFFFFFFFFFF AND EQ DUP1 PUSH2 0x168A JUMPI POP PUSH1 0x8 PUSH1 0x0 DUP11 PUSH20 0xFFFFFFFFFFFFFFFFFFFFFFFFFFFFFFFFFFFFFFFF AND PUSH20 0xFFFFFFFFFFFFFFFFFFFFFFFFFFFFFFFFFFFFFFFF AND DUP2 MSTORE PUSH1 0x20 ADD SWAP1 DUP2 MSTORE PUSH1 0x20 ADD PUSH1 0x0 KECCAK256 PUSH1 0x0 CALLER PUSH20 0xFFFFFFFFFFFFFFFFFFFFFFFFFFFFFFFFFFFFFFFF AND PUSH20 0xFFFFFFFFFFFFFFFFFFFFFFFFFFFFFFFFFFFFFFFF AND DUP2 MSTORE PUSH1 0x20 ADD SWAP1 DUP2 MSTORE PUSH1 0x20 ADD PUSH1 0x0 KECCAK256 PUSH1 0x0 SWAP1 SLOAD SWAP1 PUSH2 0x100 EXP SWAP1 DIV PUSH1 0xFF AND JUMPDEST ISZERO ISZERO PUSH2 0x1695 JUMPI PUSH1 0x0 DUP1 REVERT JUMPDEST PUSH1 0xB PUSH1 0x0 DUP11 PUSH20 0xFFFFFFFFFFFFFFFFFFFFFFFFFFFFFFFFFFFFFFFF AND PUSH20 0xFFFFFFFFFFFFFFFFFFFFFFFFFFFFFFFFFFFFFFFF AND DUP2 MSTORE PUSH1 0x20 ADD SWAP1 DUP2 MSTORE PUSH1 0x20 ADD PUSH1 0x0 KECCAK256 PUSH1 0x0 SWAP1 SLOAD SWAP1 PUSH2 0x100 EXP SWAP1 DIV PUSH1 0xFF AND ISZERO ISZERO ISZERO PUSH2 0x16EE JUMPI PUSH1 0x0 DUP1 REVERT JUMPDEST PUSH1 0x6 PUSH1 0x0 DUP11 PUSH20 0xFFFFFFFFFFFFFFFFFFFFFFFFFFFFFFFFFFFFFFFF AND PUSH20 0xFFFFFFFFFFFFFFFFFFFFFFFFFFFFFFFFFFFFFFFF AND DUP2 MSTORE PUSH1 0x20 ADD SWAP1 DUP2 MSTORE PUSH1 0x20 ADD PUSH1 0x0 KECCAK256 SWAP1 POP DUP7 DUP2 PUSH1 0x0 ADD SWAP1 DUP1 MLOAD SWAP1 PUSH1 0x20 ADD SWAP1 PUSH2 0x1747 SWAP3 SWAP2 SWAP1 PUSH2 0x303C JUMP JUMPDEST POP DUP6 DUP2 PUSH1 0x1 ADD SWAP1 DUP1 MLOAD SWAP1 PUSH1 0x20 ADD SWAP1 PUSH2 0x1760 SWAP3 SWAP2 SWAP1 PUSH2 0x303C JUMP JUMPDEST POP DUP5 DUP2 PUSH1 0x2 ADD SWAP1 DUP1 MLOAD SWAP1 PUSH1 0x20 ADD SWAP1 PUSH2 0x1779 SWAP3 SWAP2 SWAP1 PUSH2 0x303C JUMP JUMPDEST POP DUP4 DUP2 PUSH1 0x3 ADD SWAP1 DUP1 MLOAD SWAP1 PUSH1 0x20 ADD SWAP1 PUSH2 0x1792 SWAP3 SWAP2 SWAP1 PUSH2 0x303C JUMP JUMPDEST POP DUP3 DUP2 PUSH1 0x4 ADD DUP2 SWAP1 SSTORE POP DUP9 DUP2 PUSH1 0x5 ADD PUSH1 0x0 PUSH2 0x100 EXP DUP2 SLOAD DUP2 PUSH20 0xFFFFFFFFFFFFFFFFFFFFFFFFFFFFFFFFFFFFFFFF MUL NOT AND SWAP1 DUP4 PUSH20 0xFFFFFFFFFFFFFFFFFFFFFFFFFFFFFFFFFFFFFFFF AND MUL OR SWAP1 SSTORE POP DUP8 DUP2 PUSH1 0x6 ADD PUSH1 0x0 PUSH2 0x100 EXP DUP2 SLOAD DUP2 PUSH20 0xFFFFFFFFFFFFFFFFFFFFFFFFFFFFFFFFFFFFFFFF MUL NOT AND SWAP1 DUP4 PUSH20 0xFFFFFFFFFFFFFFFFFFFFFFFFFFFFFFFFFFFFFFFF AND MUL OR SWAP1 SSTORE POP PUSH1 0x3 DUP10 SWAP1 DUP1 PUSH1 0x1 DUP2 SLOAD ADD DUP1 DUP3 SSTORE DUP1 SWAP2 POP POP SWAP1 PUSH1 0x1 DUP3 SUB SWAP1 PUSH1 0x0 MSTORE PUSH1 0x20 PUSH1 0x0 KECCAK256 ADD PUSH1 0x0 SWAP1 SWAP2 SWAP3 SWAP1 SWAP2 SWAP1 SWAP2 PUSH2 0x100 EXP DUP2 SLOAD DUP2 PUSH20 0xFFFFFFFFFFFFFFFFFFFFFFFFFFFFFFFFFFFFFFFF MUL NOT AND SWAP1 DUP4 PUSH20 0xFFFFFFFFFFFFFFFFFFFFFFFFFFFFFFFFFFFFFFFF AND MUL OR SWAP1 SSTORE POP POP PUSH1 0x10 PUSH1 0x0 DUP2 SLOAD DUP1 SWAP3 SWAP2 SWAP1 PUSH1 0x1 ADD SWAP2 SWAP1 POP SSTORE POP POP SWAP8 SWAP7 POP POP POP POP POP POP POP JUMP JUMPDEST PUSH1 0x0 DUP1 PUSH1 0x7 PUSH1 0x0 CALLER PUSH20 0xFFFFFFFFFFFFFFFFFFFFFFFFFFFFFFFFFFFFFFFF AND PUSH20 0xFFFFFFFFFFFFFFFFFFFFFFFFFFFFFFFFFFFFFFFF AND DUP2 MSTORE PUSH1 0x20 ADD SWAP1 DUP2 MSTORE PUSH1 0x20 ADD PUSH1 0x0 KECCAK256 PUSH1 0x0 DUP5 PUSH20 0xFFFFFFFFFFFFFFFFFFFFFFFFFFFFFFFFFFFFFFFF AND PUSH20 0xFFFFFFFFFFFFFFFFFFFFFFFFFFFFFFFFFFFFFFFF AND DUP2 MSTORE PUSH1 0x20 ADD SWAP1 DUP2 MSTORE PUSH1 0x20 ADD PUSH1 0x0 KECCAK256 PUSH1 0x0 PUSH2 0x100 EXP DUP2 SLOAD DUP2 PUSH1 0xFF MUL NOT AND SWAP1 DUP4 ISZERO ISZERO MUL OR SWAP1 SSTORE POP PUSH1 0x1 SWAP1 POP SWAP2 SWAP1 POP JUMP JUMPDEST PUSH1 0x0 PUSH1 0x11 PUSH1 0x0 SWAP1 SLOAD SWAP1 PUSH2 0x100 EXP SWAP1 DIV PUSH20 0xFFFFFFFFFFFFFFFFFFFFFFFFFFFFFFFFFFFFFFFF AND PUSH20 0xFFFFFFFFFFFFFFFFFFFFFFFFFFFFFFFFFFFFFFFF AND CALLER PUSH20 0xFFFFFFFFFFFFFFFFFFFFFFFFFFFFFFFFFFFFFFFF AND EQ ISZERO ISZERO PUSH2 0x19A3 JUMPI PUSH1 0x0 DUP1 REVERT JUMPDEST PUSH1 0x9 PUSH1 0x0 DUP13 PUSH20 0xFFFFFFFFFFFFFFFFFFFFFFFFFFFFFFFFFFFFFFFF AND PUSH20 0xFFFFFFFFFFFFFFFFFFFFFFFFFFFFFFFFFFFFFFFF AND DUP2 MSTORE PUSH1 0x20 ADD SWAP1 DUP2 MSTORE PUSH1 0x20 ADD PUSH1 0x0 KECCAK256 PUSH1 0x0 SWAP1 SLOAD SWAP1 PUSH2 0x100 EXP SWAP1 DIV PUSH1 0xFF AND ISZERO ISZERO ISZERO PUSH2 0x19FC JUMPI PUSH1 0x0 DUP1 REVERT JUMPDEST PUSH1 0x4 PUSH1 0x0 DUP13 PUSH20 0xFFFFFFFFFFFFFFFFFFFFFFFFFFFFFFFFFFFFFFFF AND PUSH20 0xFFFFFFFFFFFFFFFFFFFFFFFFFFFFFFFFFFFFFFFF AND DUP2 MSTORE PUSH1 0x20 ADD SWAP1 DUP2 MSTORE PUSH1 0x20 ADD PUSH1 0x0 KECCAK256 SWAP1 POP DUP10 DUP2 PUSH1 0x0 ADD SWAP1 DUP1 MLOAD SWAP1 PUSH1 0x20 ADD SWAP1 PUSH2 0x1A55 SWAP3 SWAP2 SWAP1 PUSH2 0x303C JUMP JUMPDEST POP DUP9 DUP2 PUSH1 0x1 ADD SWAP1 DUP1 MLOAD SWAP1 PUSH1 0x20 ADD SWAP1 PUSH2 0x1A6E SWAP3 SWAP2 SWAP1 PUSH2 0x303C JUMP JUMPDEST POP DUP8 DUP2 PUSH1 0x2 ADD SWAP1 DUP1 MLOAD SWAP1 PUSH1 0x20 ADD SWAP1 PUSH2 0x1A87 SWAP3 SWAP2 SWAP1 PUSH2 0x303C JUMP JUMPDEST POP DUP7 DUP2 PUSH1 0x3 ADD SWAP1 DUP1 MLOAD SWAP1 PUSH1 0x20 ADD SWAP1 PUSH2 0x1AA0 SWAP3 SWAP2 SWAP1 PUSH2 0x303C JUMP JUMPDEST POP DUP6 DUP2 PUSH1 0x4 ADD SWAP1 DUP1 MLOAD SWAP1 PUSH1 0x20 ADD SWAP1 PUSH2 0x1AB9 SWAP3 SWAP2 SWAP1 PUSH2 0x303C JUMP JUMPDEST POP DUP5 DUP2 PUSH1 0x5 ADD SWAP1 DUP1 MLOAD SWAP1 PUSH1 0x20 ADD SWAP1 PUSH2 0x1AD2 SWAP3 SWAP2 SWAP1 PUSH2 0x303C JUMP JUMPDEST POP DUP4 DUP2 PUSH1 0x6 ADD SWAP1 DUP1 MLOAD SWAP1 PUSH1 0x20 ADD SWAP1 PUSH2 0x1AEB SWAP3 SWAP2 SWAP1 PUSH2 0x303C JUMP JUMPDEST POP DUP3 DUP2 PUSH1 0x7 ADD SWAP1 DUP1 MLOAD SWAP1 PUSH1 0x20 ADD SWAP1 PUSH2 0x1B04 SWAP3 SWAP2 SWAP1 PUSH2 0x303C JUMP JUMPDEST POP DUP2 DUP2 PUSH1 0x8 ADD SWAP1 DUP1 MLOAD SWAP1 PUSH1 0x20 ADD SWAP1 PUSH2 0x1B1D SWAP3 SWAP2 SWAP1 PUSH2 0x303C JUMP JUMPDEST POP DUP11 DUP2 PUSH1 0x9 ADD PUSH1 0x0 PUSH2 0x100 EXP DUP2 SLOAD DUP2 PUSH20 0xFFFFFFFFFFFFFFFFFFFFFFFFFFFFFFFFFFFFFFFF MUL NOT AND SWAP1 DUP4 PUSH20 0xFFFFFFFFFFFFFFFFFFFFFFFFFFFFFFFFFFFFFFFF AND MUL OR SWAP1 SSTORE POP TIMESTAMP DUP2 PUSH1 0xA ADD DUP2 SWAP1 SSTORE POP PUSH1 0x1 DUP12 SWAP1 DUP1 PUSH1 0x1 DUP2 SLOAD ADD DUP1 DUP3 SSTORE DUP1 SWAP2 POP POP SWAP1 PUSH1 0x1 DUP3 SUB SWAP1 PUSH1 0x0 MSTORE PUSH1 0x20 PUSH1 0x0 KECCAK256 ADD PUSH1 0x0 SWAP1 SWAP2 SWAP3 SWAP1 SWAP2 SWAP1 SWAP2 PUSH2 0x100 EXP DUP2 SLOAD DUP2 PUSH20 0xFFFFFFFFFFFFFFFFFFFFFFFFFFFFFFFFFFFFFFFF MUL NOT AND SWAP1 DUP4 PUSH20 0xFFFFFFFFFFFFFFFFFFFFFFFFFFFFFFFFFFFFFFFF AND MUL OR SWAP1 SSTORE POP POP PUSH1 0x1 PUSH1 0x9 PUSH1 0x0 DUP14 PUSH20 0xFFFFFFFFFFFFFFFFFFFFFFFFFFFFFFFFFFFFFFFF AND PUSH20 0xFFFFFFFFFFFFFFFFFFFFFFFFFFFFFFFFFFFFFFFF AND DUP2 MSTORE PUSH1 0x20 ADD SWAP1 DUP2 MSTORE PUSH1 0x20 ADD PUSH1 0x0 KECCAK256 PUSH1 0x0 PUSH2 0x100 EXP DUP2 SLOAD DUP2 PUSH1 0xFF MUL NOT AND SWAP1 DUP4 ISZERO ISZERO MUL OR SWAP1 SSTORE POP PUSH1 0x1 PUSH1 0x7 PUSH1 0x0 DUP14 PUSH20 0xFFFFFFFFFFFFFFFFFFFFFFFFFFFFFFFFFFFFFFFF AND PUSH20 0xFFFFFFFFFFFFFFFFFFFFFFFFFFFFFFFFFFFFFFFF AND DUP2 MSTORE PUSH1 0x20 ADD SWAP1 DUP2 MSTORE PUSH1 0x20 ADD PUSH1 0x0 KECCAK256 PUSH1 0x0 DUP14 PUSH20 0xFFFFFFFFFFFFFFFFFFFFFFFFFFFFFFFFFFFFFFFF AND PUSH20 0xFFFFFFFFFFFFFFFFFFFFFFFFFFFFFFFFFFFFFFFF AND DUP2 MSTORE PUSH1 0x20 ADD SWAP1 DUP2 MSTORE PUSH1 0x20 ADD PUSH1 0x0 KECCAK256 PUSH1 0x0 PUSH2 0x100 EXP DUP2 SLOAD DUP2 PUSH1 0xFF MUL NOT AND SWAP1 DUP4 ISZERO ISZERO MUL OR SWAP1 SSTORE POP PUSH1 0x1 PUSH1 0x7 PUSH1 0x0 DUP14 PUSH20 0xFFFFFFFFFFFFFFFFFFFFFFFFFFFFFFFFFFFFFFFF AND PUSH20 0xFFFFFFFFFFFFFFFFFFFFFFFFFFFFFFFFFFFFFFFF AND DUP2 MSTORE PUSH1 0x20 ADD SWAP1 DUP2 MSTORE PUSH1 0x20 ADD PUSH1 0x0 KECCAK256 PUSH1 0x0 PUSH1 0x11 PUSH1 0x0 SWAP1 SLOAD SWAP1 PUSH2 0x100 EXP SWAP1 DIV PUSH20 0xFFFFFFFFFFFFFFFFFFFFFFFFFFFFFFFFFFFFFFFF AND PUSH20 0xFFFFFFFFFFFFFFFFFFFFFFFFFFFFFFFFFFFFFFFF AND PUSH20 0xFFFFFFFFFFFFFFFFFFFFFFFFFFFFFFFFFFFFFFFF AND DUP2 MSTORE PUSH1 0x20 ADD SWAP1 DUP2 MSTORE PUSH1 0x20 ADD PUSH1 0x0 KECCAK256 PUSH1 0x0 PUSH2 0x100 EXP DUP2 SLOAD DUP2 PUSH1 0xFF MUL NOT AND SWAP1 DUP4 ISZERO ISZERO MUL OR SWAP1 SSTORE POP PUSH1 0xC PUSH1 0x0 DUP2 SLOAD DUP1 SWAP3 SWAP2 SWAP1 PUSH1 0x1 ADD SWAP2 SWAP1 POP SSTORE POP POP POP POP POP POP POP POP POP POP POP POP JUMP JUMPDEST PUSH1 0x0 PUSH1 0x11 PUSH1 0x0 SWAP1 SLOAD SWAP1 PUSH2 0x100 EXP SWAP1 DIV PUSH20 0xFFFFFFFFFFFFFFFFFFFFFFFFFFFFFFFFFFFFFFFF AND PUSH20 0xFFFFFFFFFFFFFFFFFFFFFFFFFFFFFFFFFFFFFFFF AND CALLER PUSH20 0xFFFFFFFFFFFFFFFFFFFFFFFFFFFFFFFFFFFFFFFF AND EQ ISZERO ISZERO PUSH2 0x1DF1 JUMPI PUSH1 0x0 DUP1 REVERT JUMPDEST PUSH1 0x9 PUSH1 0x0 DUP13 PUSH20 0xFFFFFFFFFFFFFFFFFFFFFFFFFFFFFFFFFFFFFFFF AND PUSH20 0xFFFFFFFFFFFFFFFFFFFFFFFFFFFFFFFFFFFFFFFF AND DUP2 MSTORE PUSH1 0x20 ADD SWAP1 DUP2 MSTORE PUSH1 0x20 ADD PUSH1 0x0 KECCAK256 PUSH1 0x0 SWAP1 SLOAD SWAP1 PUSH2 0x100 EXP SWAP1 DIV PUSH1 0xFF AND ISZERO ISZERO PUSH2 0x1E49 JUMPI PUSH1 0x0 DUP1 REVERT JUMPDEST PUSH1 0x4 PUSH1 0x0 DUP13 PUSH20 0xFFFFFFFFFFFFFFFFFFFFFFFFFFFFFFFFFFFFFFFF AND PUSH20 0xFFFFFFFFFFFFFFFFFFFFFFFFFFFFFFFFFFFFFFFF AND DUP2 MSTORE PUSH1 0x20 ADD SWAP1 DUP2 MSTORE PUSH1 0x20 ADD PUSH1 0x0 KECCAK256 SWAP1 POP DUP10 DUP2 PUSH1 0x0 ADD SWAP1 DUP1 MLOAD SWAP1 PUSH1 0x20 ADD SWAP1 PUSH2 0x1EA2 SWAP3 SWAP2 SWAP1 PUSH2 0x303C JUMP JUMPDEST POP DUP9 DUP2 PUSH1 0x1 ADD SWAP1 DUP1 MLOAD SWAP1 PUSH1 0x20 ADD SWAP1 PUSH2 0x1EBB SWAP3 SWAP2 SWAP1 PUSH2 0x303C JUMP JUMPDEST POP DUP8 DUP2 PUSH1 0x2 ADD SWAP1 DUP1 MLOAD SWAP1 PUSH1 0x20 ADD SWAP1 PUSH2 0x1ED4 SWAP3 SWAP2 SWAP1 PUSH2 0x303C JUMP JUMPDEST POP DUP7 DUP2 PUSH1 0x3 ADD SWAP1 DUP1 MLOAD SWAP1 PUSH1 0x20 ADD SWAP1 PUSH2 0x1EED SWAP3 SWAP2 SWAP1 PUSH2 0x303C JUMP JUMPDEST POP DUP6 DUP2 PUSH1 0x4 ADD SWAP1 DUP1 MLOAD SWAP1 PUSH1 0x20 ADD SWAP1 PUSH2 0x1F06 SWAP3 SWAP2 SWAP1 PUSH2 0x303C JUMP JUMPDEST POP DUP5 DUP2 PUSH1 0x5 ADD SWAP1 DUP1 MLOAD SWAP1 PUSH1 0x20 ADD SWAP1 PUSH2 0x1F1F SWAP3 SWAP2 SWAP1 PUSH2 0x303C JUMP JUMPDEST POP DUP4 DUP2 PUSH1 0x6 ADD SWAP1 DUP1 MLOAD SWAP1 PUSH1 0x20 ADD SWAP1 PUSH2 0x1F38 SWAP3 SWAP2 SWAP1 PUSH2 0x303C JUMP JUMPDEST POP DUP3 DUP2 PUSH1 0x7 ADD SWAP1 DUP1 MLOAD SWAP1 PUSH1 0x20 ADD SWAP1 PUSH2 0x1F51 SWAP3 SWAP2 SWAP1 PUSH2 0x303C JUMP JUMPDEST POP DUP2 DUP2 PUSH1 0x8 ADD SWAP1 DUP1 MLOAD SWAP1 PUSH1 0x20 ADD SWAP1 PUSH2 0x1F6A SWAP3 SWAP2 SWAP1 PUSH2 0x303C JUMP JUMPDEST POP DUP11 DUP2 PUSH1 0x9 ADD PUSH1 0x0 PUSH2 0x100 EXP DUP2 SLOAD DUP2 PUSH20 0xFFFFFFFFFFFFFFFFFFFFFFFFFFFFFFFFFFFFFFFF MUL NOT AND SWAP1 DUP4 PUSH20 0xFFFFFFFFFFFFFFFFFFFFFFFFFFFFFFFFFFFFFFFF AND MUL OR SWAP1 SSTORE POP POP POP POP POP POP POP POP POP POP POP POP JUMP JUMPDEST PUSH1 0xD SLOAD DUP2 JUMP JUMPDEST PUSH1 0x0 PUSH1 0xD SLOAD SWAP1 POP SWAP1 JUMP JUMPDEST PUSH1 0x0 DUP1 PUSH1 0x0 SWAP1 POP PUSH1 0x2 DUP1 SLOAD SWAP1 POP DUP2 LT ISZERO PUSH2 0x204A JUMPI PUSH1 0x1 ISZERO ISZERO PUSH1 0xA PUSH1 0x0 DUP6 PUSH20 0xFFFFFFFFFFFFFFFFFFFFFFFFFFFFFFFFFFFFFFFF AND PUSH20 0xFFFFFFFFFFFFFFFFFFFFFFFFFFFFFFFFFFFFFFFF AND DUP2 MSTORE PUSH1 0x20 ADD SWAP1 DUP2 MSTORE PUSH1 0x20 ADD PUSH1 0x0 KECCAK256 PUSH1 0x0 SWAP1 SLOAD SWAP1 PUSH2 0x100 EXP SWAP1 DIV PUSH1 0xFF AND ISZERO ISZERO EQ ISZERO PUSH2 0x2041 JUMPI PUSH1 0x1 SWAP2 POP PUSH2 0x204B JUMP JUMPDEST PUSH1 0x0 SWAP2 POP PUSH2 0x204B JUMP JUMPDEST JUMPDEST POP SWAP2 SWAP1 POP JUMP JUMPDEST PUSH1 0x60 DUP1 PUSH1 0x60 DUP1 PUSH1 0x0 DUP1 PUSH1 0x0 DUP1 PUSH1 0x7 PUSH1 0x0 DUP11 PUSH20 0xFFFFFFFFFFFFFFFFFFFFFFFFFFFFFFFFFFFFFFFF AND PUSH20 0xFFFFFFFFFFFFFFFFFFFFFFFFFFFFFFFFFFFFFFFF AND DUP2 MSTORE PUSH1 0x20 ADD SWAP1 DUP2 MSTORE PUSH1 0x20 ADD PUSH1 0x0 KECCAK256 PUSH1 0x0 CALLER PUSH20 0xFFFFFFFFFFFFFFFFFFFFFFFFFFFFFFFFFFFFFFFF AND PUSH20 0xFFFFFFFFFFFFFFFFFFFFFFFFFFFFFFFFFFFFFFFF AND DUP2 MSTORE PUSH1 0x20 ADD SWAP1 DUP2 MSTORE PUSH1 0x20 ADD PUSH1 0x0 KECCAK256 PUSH1 0x0 SWAP1 SLOAD SWAP1 PUSH2 0x100 EXP SWAP1 DIV PUSH1 0xFF AND ISZERO ISZERO PUSH2 0x20F2 JUMPI PUSH1 0x0 DUP1 REVERT JUMPDEST PUSH1 0x6 PUSH1 0x0 DUP11 PUSH20 0xFFFFFFFFFFFFFFFFFFFFFFFFFFFFFFFFFFFFFFFF AND PUSH20 0xFFFFFFFFFFFFFFFFFFFFFFFFFFFFFFFFFFFFFFFF AND DUP2 MSTORE PUSH1 0x20 ADD SWAP1 DUP2 MSTORE PUSH1 0x20 ADD PUSH1 0x0 KECCAK256 SWAP1 POP DUP1 PUSH1 0x1 ADD DUP2 PUSH1 0x0 ADD DUP3 PUSH1 0x2 ADD DUP4 PUSH1 0x3 ADD DUP5 PUSH1 0x4 ADD SLOAD DUP6 PUSH1 0x5 ADD PUSH1 0x0 SWAP1 SLOAD SWAP1 PUSH2 0x100 EXP SWAP1 DIV PUSH20 0xFFFFFFFFFFFFFFFFFFFFFFFFFFFFFFFFFFFFFFFF AND DUP7 PUSH1 0x6 ADD PUSH1 0x0 SWAP1 SLOAD SWAP1 PUSH2 0x100 EXP SWAP1 DIV PUSH20 0xFFFFFFFFFFFFFFFFFFFFFFFFFFFFFFFFFFFFFFFF AND DUP7 DUP1 SLOAD PUSH1 0x1 DUP2 PUSH1 0x1 AND ISZERO PUSH2 0x100 MUL SUB AND PUSH1 0x2 SWAP1 DIV DUP1 PUSH1 0x1F ADD PUSH1 0x20 DUP1 SWAP2 DIV MUL PUSH1 0x20 ADD PUSH1 0x40 MLOAD SWAP1 DUP2 ADD PUSH1 0x40 MSTORE DUP1 SWAP3 SWAP2 SWAP1 DUP2 DUP2 MSTORE PUSH1 0x20 ADD DUP3 DUP1 SLOAD PUSH1 0x1 DUP2 PUSH1 0x1 AND ISZERO PUSH2 0x100 MUL SUB AND PUSH1 0x2 SWAP1 DIV DUP1 ISZERO PUSH2 0x2227 JUMPI DUP1 PUSH1 0x1F LT PUSH2 0x21FC JUMPI PUSH2 0x100 DUP1 DUP4 SLOAD DIV MUL DUP4 MSTORE SWAP2 PUSH1 0x20 ADD SWAP2 PUSH2 0x2227 JUMP JUMPDEST DUP3 ADD SWAP2 SWAP1 PUSH1 0x0 MSTORE PUSH1 0x20 PUSH1 0x0 KECCAK256 SWAP1 JUMPDEST DUP2 SLOAD DUP2 MSTORE SWAP1 PUSH1 0x1 ADD SWAP1 PUSH1 0x20 ADD DUP1 DUP4 GT PUSH2 0x220A JUMPI DUP3 SWAP1 SUB PUSH1 0x1F AND DUP3 ADD SWAP2 JUMPDEST POP POP POP POP POP SWAP7 POP DUP6 DUP1 SLOAD PUSH1 0x1 DUP2 PUSH1 0x1 AND ISZERO PUSH2 0x100 MUL SUB AND PUSH1 0x2 SWAP1 DIV DUP1 PUSH1 0x1F ADD PUSH1 0x20 DUP1 SWAP2 DIV MUL PUSH1 0x20 ADD PUSH1 0x40 MLOAD SWAP1 DUP2 ADD PUSH1 0x40 MSTORE DUP1 SWAP3 SWAP2 SWAP1 DUP2 DUP2 MSTORE PUSH1 0x20 ADD DUP3 DUP1 SLOAD PUSH1 0x1 DUP2 PUSH1 0x1 AND ISZERO PUSH2 0x100 MUL SUB AND PUSH1 0x2 SWAP1 DIV DUP1 ISZERO PUSH2 0x22C3 JUMPI DUP1 PUSH1 0x1F LT PUSH2 0x2298 JUMPI PUSH2 0x100 DUP1 DUP4 SLOAD DIV MUL DUP4 MSTORE SWAP2 PUSH1 0x20 ADD SWAP2 PUSH2 0x22C3 JUMP JUMPDEST DUP3 ADD SWAP2 SWAP1 PUSH1 0x0 MSTORE PUSH1 0x20 PUSH1 0x0 KECCAK256 SWAP1 JUMPDEST DUP2 SLOAD DUP2 MSTORE SWAP1 PUSH1 0x1 ADD SWAP1 PUSH1 0x20 ADD DUP1 DUP4 GT PUSH2 0x22A6 JUMPI DUP3 SWAP1 SUB PUSH1 0x1F AND DUP3 ADD SWAP2 JUMPDEST POP POP POP POP POP SWAP6 POP DUP5 DUP1 SLOAD PUSH1 0x1 DUP2 PUSH1 0x1 AND ISZERO PUSH2 0x100 MUL SUB AND PUSH1 0x2 SWAP1 DIV DUP1 PUSH1 0x1F ADD PUSH1 0x20 DUP1 SWAP2 DIV MUL PUSH1 0x20 ADD PUSH1 0x40 MLOAD SWAP1 DUP2 ADD PUSH1 0x40 MSTORE DUP1 SWAP3 SWAP2 SWAP1 DUP2 DUP2 MSTORE PUSH1 0x20 ADD DUP3 DUP1 SLOAD PUSH1 0x1 DUP2 PUSH1 0x1 AND ISZERO PUSH2 0x100 MUL SUB AND PUSH1 0x2 SWAP1 DIV DUP1 ISZERO PUSH2 0x235F JUMPI DUP1 PUSH1 0x1F LT PUSH2 0x2334 JUMPI PUSH2 0x100 DUP1 DUP4 SLOAD DIV MUL DUP4 MSTORE SWAP2 PUSH1 0x20 ADD SWAP2 PUSH2 0x235F JUMP JUMPDEST DUP3 ADD SWAP2 SWAP1 PUSH1 0x0 MSTORE PUSH1 0x20 PUSH1 0x0 KECCAK256 SWAP1 JUMPDEST DUP2 SLOAD DUP2 MSTORE SWAP1 PUSH1 0x1 ADD SWAP1 PUSH1 0x20 ADD DUP1 DUP4 GT PUSH2 0x2342 JUMPI DUP3 SWAP1 SUB PUSH1 0x1F AND DUP3 ADD SWAP2 JUMPDEST POP POP POP POP POP SWAP5 POP DUP4 DUP1 SLOAD PUSH1 0x1 DUP2 PUSH1 0x1 AND ISZERO PUSH2 0x100 MUL SUB AND PUSH1 0x2 SWAP1 DIV DUP1 PUSH1 0x1F ADD PUSH1 0x20 DUP1 SWAP2 DIV MUL PUSH1 0x20 ADD PUSH1 0x40 MLOAD SWAP1 DUP2 ADD PUSH1 0x40 MSTORE DUP1 SWAP3 SWAP2 SWAP1 DUP2 DUP2 MSTORE PUSH1 0x20 ADD DUP3 DUP1 SLOAD PUSH1 0x1 DUP2 PUSH1 0x1 AND ISZERO PUSH2 0x100 MUL SUB AND PUSH1 0x2 SWAP1 DIV DUP1 ISZERO PUSH2 0x23FB JUMPI DUP1 PUSH1 0x1F LT PUSH2 0x23D0 JUMPI PUSH2 0x100 DUP1 DUP4 SLOAD DIV MUL DUP4 MSTORE SWAP2 PUSH1 0x20 ADD SWAP2 PUSH2 0x23FB JUMP JUMPDEST DUP3 ADD SWAP2 SWAP1 PUSH1 0x0 MSTORE PUSH1 0x20 PUSH1 0x0 KECCAK256 SWAP1 JUMPDEST DUP2 SLOAD DUP2 MSTORE SWAP1 PUSH1 0x1 ADD SWAP1 PUSH1 0x20 ADD DUP1 DUP4 GT PUSH2 0x23DE JUMPI DUP3 SWAP1 SUB PUSH1 0x1F AND DUP3 ADD SWAP2 JUMPDEST POP POP POP POP POP SWAP4 POP SWAP8 POP SWAP8 POP SWAP8 POP SWAP8 POP SWAP8 POP SWAP8 POP SWAP8 POP POP SWAP2 SWAP4 SWAP6 SWAP8 SWAP1 SWAP3 SWAP5 SWAP7 POP JUMP JUMPDEST PUSH1 0x0 DUP1 SWAP1 SLOAD SWAP1 PUSH2 0x100 EXP SWAP1 DIV PUSH20 0xFFFFFFFFFFFFFFFFFFFFFFFFFFFFFFFFFFFFFFFF AND DUP2 JUMP JUMPDEST PUSH1 0x10 SLOAD DUP2 JUMP JUMPDEST PUSH1 0xE SLOAD DUP2 JUMP JUMPDEST PUSH1 0x1 DUP2 DUP2 SLOAD DUP2 LT ISZERO ISZERO PUSH2 0x245C JUMPI INVALID JUMPDEST SWAP1 PUSH1 0x0 MSTORE PUSH1 0x20 PUSH1 0x0 KECCAK256 ADD PUSH1 0x0 SWAP2 POP SLOAD SWAP1 PUSH2 0x100 EXP SWAP1 DIV PUSH20 0xFFFFFFFFFFFFFFFFFFFFFFFFFFFFFFFFFFFFFFFF AND DUP2 JUMP JUMPDEST PUSH1 0x60 PUSH1 0x2 DUP1 SLOAD DUP1 PUSH1 0x20 MUL PUSH1 0x20 ADD PUSH1 0x40 MLOAD SWAP1 DUP2 ADD PUSH1 0x40 MSTORE DUP1 SWAP3 SWAP2 SWAP1 DUP2 DUP2 MSTORE PUSH1 0x20 ADD DUP3 DUP1 SLOAD DUP1 ISZERO PUSH2 0x250F JUMPI PUSH1 0x20 MUL DUP3 ADD SWAP2 SWAP1 PUSH1 0x0 MSTORE PUSH1 0x20 PUSH1 0x0 KECCAK256 SWAP1 JUMPDEST DUP2 PUSH1 0x0 SWAP1 SLOAD SWAP1 PUSH2 0x100 EXP SWAP1 DIV PUSH20 0xFFFFFFFFFFFFFFFFFFFFFFFFFFFFFFFFFFFFFFFF AND PUSH20 0xFFFFFFFFFFFFFFFFFFFFFFFFFFFFFFFFFFFFFFFF AND DUP2 MSTORE PUSH1 0x20 ADD SWAP1 PUSH1 0x1 ADD SWAP1 DUP1 DUP4 GT PUSH2 0x24C5 JUMPI JUMPDEST POP POP POP POP POP SWAP1 POP SWAP1 JUMP JUMPDEST PUSH1 0x0 PUSH1 0xC SLOAD SWAP1 POP SWAP1 JUMP JUMPDEST PUSH1 0x11 PUSH1 0x0 SWAP1 SLOAD SWAP1 PUSH2 0x100 EXP SWAP1 DIV PUSH20 0xFFFFFFFFFFFFFFFFFFFFFFFFFFFFFFFFFFFFFFFF AND DUP2 JUMP JUMPDEST PUSH1 0x0 PUSH1 0x11 PUSH1 0x0 SWAP1 SLOAD SWAP1 PUSH2 0x100 EXP SWAP1 DIV PUSH20 0xFFFFFFFFFFFFFFFFFFFFFFFFFFFFFFFFFFFFFFFF AND PUSH20 0xFFFFFFFFFFFFFFFFFFFFFFFFFFFFFFFFFFFFFFFF AND CALLER PUSH20 0xFFFFFFFFFFFFFFFFFFFFFFFFFFFFFFFFFFFFFFFF AND EQ ISZERO ISZERO PUSH2 0x25A7 JUMPI PUSH1 0x0 DUP1 REVERT JUMPDEST PUSH1 0x0 PUSH1 0x7 PUSH1 0x0 DUP6 PUSH20 0xFFFFFFFFFFFFFFFFFFFFFFFFFFFFFFFFFFFFFFFF AND PUSH20 0xFFFFFFFFFFFFFFFFFFFFFFFFFFFFFFFFFFFFFFFF AND DUP2 MSTORE PUSH1 0x20 ADD SWAP1 DUP2 MSTORE PUSH1 0x20 ADD PUSH1 0x0 KECCAK256 PUSH1 0x0 DUP5 PUSH20 0xFFFFFFFFFFFFFFFFFFFFFFFFFFFFFFFFFFFFFFFF AND PUSH20 0xFFFFFFFFFFFFFFFFFFFFFFFFFFFFFFFFFFFFFFFF AND DUP2 MSTORE PUSH1 0x20 ADD SWAP1 DUP2 MSTORE PUSH1 0x20 ADD PUSH1 0x0 KECCAK256 PUSH1 0x0 PUSH2 0x100 EXP DUP2 SLOAD DUP2 PUSH1 0xFF MUL NOT AND SWAP1 DUP4 ISZERO ISZERO MUL OR SWAP1 SSTORE POP PUSH1 0x1 SWAP1 POP SWAP3 SWAP2 POP POP JUMP JUMPDEST PUSH1 0xF SLOAD DUP2 JUMP JUMPDEST PUSH1 0x60 DUP1 PUSH1 0x60 DUP1 PUSH1 0x60 DUP1 PUSH1 0x60 PUSH1 0x0 DUP1 PUSH1 0x7 PUSH1 0x0 DUP12 PUSH20 0xFFFFFFFFFFFFFFFFFFFFFFFFFFFFFFFFFFFFFFFF AND PUSH20 0xFFFFFFFFFFFFFFFFFFFFFFFFFFFFFFFFFFFFFFFF AND DUP2 MSTORE PUSH1 0x20 ADD SWAP1 DUP2 MSTORE PUSH1 0x20 ADD PUSH1 0x0 KECCAK256 PUSH1 0x0 CALLER PUSH20 0xFFFFFFFFFFFFFFFFFFFFFFFFFFFFFFFFFFFFFFFF AND PUSH20 0xFFFFFFFFFFFFFFFFFFFFFFFFFFFFFFFFFFFFFFFF AND DUP2 MSTORE PUSH1 0x20 ADD SWAP1 DUP2 MSTORE PUSH1 0x20 ADD PUSH1 0x0 KECCAK256 PUSH1 0x0 SWAP1 SLOAD SWAP1 PUSH2 0x100 EXP SWAP1 DIV PUSH1 0xFF AND ISZERO ISZERO PUSH2 0x26EF JUMPI PUSH1 0x0 DUP1 REVERT JUMPDEST PUSH1 0xA PUSH1 0x0 DUP12 PUSH20 0xFFFFFFFFFFFFFFFFFFFFFFFFFFFFFFFFFFFFFFFF AND PUSH20 0xFFFFFFFFFFFFFFFFFFFFFFFFFFFFFFFFFFFFFFFF AND DUP2 MSTORE PUSH1 0x20 ADD SWAP1 DUP2 MSTORE PUSH1 0x20 ADD PUSH1 0x0 KECCAK256 PUSH1 0x0 SWAP1 SLOAD SWAP1 PUSH2 0x100 EXP SWAP1 DIV PUSH1 0xFF AND ISZERO ISZERO PUSH2 0x2747 JUMPI PUSH1 0x0 DUP1 REVERT JUMPDEST PUSH1 0x5 PUSH1 0x0 DUP12 PUSH20 0xFFFFFFFFFFFFFFFFFFFFFFFFFFFFFFFFFFFFFFFF AND PUSH20 0xFFFFFFFFFFFFFFFFFFFFFFFFFFFFFFFFFFFFFFFF AND DUP2 MSTORE PUSH1 0x20 ADD SWAP1 DUP2 MSTORE PUSH1 0x20 ADD PUSH1 0x0 KECCAK256 SWAP1 POP DUP1 PUSH1 0x0 ADD DUP2 PUSH1 0x1 ADD DUP3 PUSH1 0x2 ADD DUP4 PUSH1 0x3 ADD DUP5 PUSH1 0x5 ADD DUP6 PUSH1 0x6 ADD DUP7 PUSH1 0x7 ADD DUP8 PUSH1 0x8 ADD PUSH1 0x0 SWAP1 SLOAD SWAP1 PUSH2 0x100 EXP SWAP1 DIV PUSH20 0xFFFFFFFFFFFFFFFFFFFFFFFFFFFFFFFFFFFFFFFF AND DUP8 DUP1 SLOAD PUSH1 0x1 DUP2 PUSH1 0x1 AND ISZERO PUSH2 0x100 MUL SUB AND PUSH1 0x2 SWAP1 DIV DUP1 PUSH1 0x1F ADD PUSH1 0x20 DUP1 SWAP2 DIV MUL PUSH1 0x20 ADD PUSH1 0x40 MLOAD SWAP1 DUP2 ADD PUSH1 0x40 MSTORE DUP1 SWAP3 SWAP2 SWAP1 DUP2 DUP2 MSTORE PUSH1 0x20 ADD DUP3 DUP1 SLOAD PUSH1 0x1 DUP2 PUSH1 0x1 AND ISZERO PUSH2 0x100 MUL SUB AND PUSH1 0x2 SWAP1 DIV DUP1 ISZERO PUSH2 0x285E JUMPI DUP1 PUSH1 0x1F LT PUSH2 0x2833 JUMPI PUSH2 0x100 DUP1 DUP4 SLOAD DIV MUL DUP4 MSTORE SWAP2 PUSH1 0x20 ADD SWAP2 PUSH2 0x285E JUMP JUMPDEST DUP3 ADD SWAP2 SWAP1 PUSH1 0x0 MSTORE PUSH1 0x20 PUSH1 0x0 KECCAK256 SWAP1 JUMPDEST DUP2 SLOAD DUP2 MSTORE SWAP1 PUSH1 0x1 ADD SWAP1 PUSH1 0x20 ADD DUP1 DUP4 GT PUSH2 0x2841 JUMPI DUP3 SWAP1 SUB PUSH1 0x1F AND DUP3 ADD SWAP2 JUMPDEST POP POP POP POP POP SWAP8 POP DUP7 DUP1 SLOAD PUSH1 0x1 DUP2 PUSH1 0x1 AND ISZERO PUSH2 0x100 MUL SUB AND PUSH1 0x2 SWAP1 DIV DUP1 PUSH1 0x1F ADD PUSH1 0x20 DUP1 SWAP2 DIV MUL PUSH1 0x20 ADD PUSH1 0x40 MLOAD SWAP1 DUP2 ADD PUSH1 0x40 MSTORE DUP1 SWAP3 SWAP2 SWAP1 DUP2 DUP2 MSTORE PUSH1 0x20 ADD DUP3 DUP1 SLOAD PUSH1 0x1 DUP2 PUSH1 0x1 AND ISZERO PUSH2 0x100 MUL SUB AND PUSH1 0x2 SWAP1 DIV DUP1 ISZERO PUSH2 0x28FA JUMPI DUP1 PUSH1 0x1F LT PUSH2 0x28CF JUMPI PUSH2 0x100 DUP1 DUP4 SLOAD DIV MUL DUP4 MSTORE SWAP2 PUSH1 0x20 ADD SWAP2 PUSH2 0x28FA JUMP JUMPDEST DUP3 ADD SWAP2 SWAP1 PUSH1 0x0 MSTORE PUSH1 0x20 PUSH1 0x0 KECCAK256 SWAP1 JUMPDEST DUP2 SLOAD DUP2 MSTORE SWAP1 PUSH1 0x1 ADD SWAP1 PUSH1 0x20 ADD DUP1 DUP4 GT PUSH2 0x28DD JUMPI DUP3 SWAP1 SUB PUSH1 0x1F AND DUP3 ADD SWAP2 JUMPDEST POP POP POP POP POP SWAP7 POP DUP6 DUP1 SLOAD PUSH1 0x1 DUP2 PUSH1 0x1 AND ISZERO PUSH2 0x100 MUL SUB AND PUSH1 0x2 SWAP1 DIV DUP1 PUSH1 0x1F ADD PUSH1 0x20 DUP1 SWAP2 DIV MUL PUSH1 0x20 ADD PUSH1 0x40 MLOAD SWAP1 DUP2 ADD PUSH1 0x40 MSTORE DUP1 SWAP3 SWAP2 SWAP1 DUP2 DUP2 MSTORE PUSH1 0x20 ADD DUP3 DUP1 SLOAD PUSH1 0x1 DUP2 PUSH1 0x1 AND ISZERO PUSH2 0x100 MUL SUB AND PUSH1 0x2 SWAP1 DIV DUP1 ISZERO PUSH2 0x2996 JUMPI DUP1 PUSH1 0x1F LT PUSH2 0x296B JUMPI PUSH2 0x100 DUP1 DUP4 SLOAD DIV MUL DUP4 MSTORE SWAP2 PUSH1 0x20 ADD SWAP2 PUSH2 0x2996 JUMP JUMPDEST DUP3 ADD SWAP2 SWAP1 PUSH1 0x0 MSTORE PUSH1 0x20 PUSH1 0x0 KECCAK256 SWAP1 JUMPDEST DUP2 SLOAD DUP2 MSTORE SWAP1 PUSH1 0x1 ADD SWAP1 PUSH1 0x20 ADD DUP1 DUP4 GT PUSH2 0x2979 JUMPI DUP3 SWAP1 SUB PUSH1 0x1F AND DUP3 ADD SWAP2 JUMPDEST POP POP POP POP POP SWAP6 POP DUP5 DUP1 SLOAD PUSH1 0x1 DUP2 PUSH1 0x1 AND ISZERO PUSH2 0x100 MUL SUB AND PUSH1 0x2 SWAP1 DIV DUP1 PUSH1 0x1F ADD PUSH1 0x20 DUP1 SWAP2 DIV MUL PUSH1 0x20 ADD PUSH1 0x40 MLOAD SWAP1 DUP2 ADD PUSH1 0x40 MSTORE DUP1 SWAP3 SWAP2 SWAP1 DUP2 DUP2 MSTORE PUSH1 0x20 ADD DUP3 DUP1 SLOAD PUSH1 0x1 DUP2 PUSH1 0x1 AND ISZERO PUSH2 0x100 MUL SUB AND PUSH1 0x2 SWAP1 DIV DUP1 ISZERO PUSH2 0x2A32 JUMPI DUP1 PUSH1 0x1F LT PUSH2 0x2A07 JUMPI PUSH2 0x100 DUP1 DUP4 SLOAD DIV MUL DUP4 MSTORE SWAP2 PUSH1 0x20 ADD SWAP2 PUSH2 0x2A32 JUMP JUMPDEST DUP3 ADD SWAP2 SWAP1 PUSH1 0x0 MSTORE PUSH1 0x20 PUSH1 0x0 KECCAK256 SWAP1 JUMPDEST DUP2 SLOAD DUP2 MSTORE SWAP1 PUSH1 0x1 ADD SWAP1 PUSH1 0x20 ADD DUP1 DUP4 GT PUSH2 0x2A15 JUMPI DUP3 SWAP1 SUB PUSH1 0x1F AND DUP3 ADD SWAP2 JUMPDEST POP POP POP POP POP SWAP5 POP DUP4 DUP1 SLOAD PUSH1 0x1 DUP2 PUSH1 0x1 AND ISZERO PUSH2 0x100 MUL SUB AND PUSH1 0x2 SWAP1 DIV DUP1 PUSH1 0x1F ADD PUSH1 0x20 DUP1 SWAP2 DIV MUL PUSH1 0x20 ADD PUSH1 0x40 MLOAD SWAP1 DUP2 ADD PUSH1 0x40 MSTORE DUP1 SWAP3 SWAP2 SWAP1 DUP2 DUP2 MSTORE PUSH1 0x20 ADD DUP3 DUP1 SLOAD PUSH1 0x1 DUP2 PUSH1 0x1 AND ISZERO PUSH2 0x100 MUL SUB AND PUSH1 0x2 SWAP1 DIV DUP1 ISZERO PUSH2 0x2ACE JUMPI DUP1 PUSH1 0x1F LT PUSH2 0x2AA3 JUMPI PUSH2 0x100 DUP1 DUP4 SLOAD DIV MUL DUP4 MSTORE SWAP2 PUSH1 0x20 ADD SWAP2 PUSH2 0x2ACE JUMP JUMPDEST DUP3 ADD SWAP2 SWAP1 PUSH1 0x0 MSTORE PUSH1 0x20 PUSH1 0x0 KECCAK256 SWAP1 JUMPDEST DUP2 SLOAD DUP2 MSTORE SWAP1 PUSH1 0x1 ADD SWAP1 PUSH1 0x20 ADD DUP1 DUP4 GT PUSH2 0x2AB1 JUMPI DUP3 SWAP1 SUB PUSH1 0x1F AND DUP3 ADD SWAP2 JUMPDEST POP POP POP POP POP SWAP4 POP DUP3 DUP1 SLOAD PUSH1 0x1 DUP2 PUSH1 0x1 AND ISZERO PUSH2 0x100 MUL SUB AND PUSH1 0x2 SWAP1 DIV DUP1 PUSH1 0x1F ADD PUSH1 0x20 DUP1 SWAP2 DIV MUL PUSH1 0x20 ADD PUSH1 0x40 MLOAD SWAP1 DUP2 ADD PUSH1 0x40 MSTORE DUP1 SWAP3 SWAP2 SWAP1 DUP2 DUP2 MSTORE PUSH1 0x20 ADD DUP3 DUP1 SLOAD PUSH1 0x1 DUP2 PUSH1 0x1 AND ISZERO PUSH2 0x100 MUL SUB AND PUSH1 0x2 SWAP1 DIV DUP1 ISZERO PUSH2 0x2B6A JUMPI DUP1 PUSH1 0x1F LT PUSH2 0x2B3F JUMPI PUSH2 0x100 DUP1 DUP4 SLOAD DIV MUL DUP4 MSTORE SWAP2 PUSH1 0x20 ADD SWAP2 PUSH2 0x2B6A JUMP JUMPDEST DUP3 ADD SWAP2 SWAP1 PUSH1 0x0 MSTORE PUSH1 0x20 PUSH1 0x0 KECCAK256 SWAP1 JUMPDEST DUP2 SLOAD DUP2 MSTORE SWAP1 PUSH1 0x1 ADD SWAP1 PUSH1 0x20 ADD DUP1 DUP4 GT PUSH2 0x2B4D JUMPI DUP3 SWAP1 SUB PUSH1 0x1F AND DUP3 ADD SWAP2 JUMPDEST POP POP POP POP POP SWAP3 POP DUP2 DUP1 SLOAD PUSH1 0x1 DUP2 PUSH1 0x1 AND ISZERO PUSH2 0x100 MUL SUB AND PUSH1 0x2 SWAP1 DIV DUP1 PUSH1 0x1F ADD PUSH1 0x20 DUP1 SWAP2 DIV MUL PUSH1 0x20 ADD PUSH1 0x40 MLOAD SWAP1 DUP2 ADD PUSH1 0x40 MSTORE DUP1 SWAP3 SWAP2 SWAP1 DUP2 DUP2 MSTORE PUSH1 0x20 ADD DUP3 DUP1 SLOAD PUSH1 0x1 DUP2 PUSH1 0x1 AND ISZERO PUSH2 0x100 MUL SUB AND PUSH1 0x2 SWAP1 DIV DUP1 ISZERO PUSH2 0x2C06 JUMPI DUP1 PUSH1 0x1F LT PUSH2 0x2BDB JUMPI PUSH2 0x100 DUP1 DUP4 SLOAD DIV MUL DUP4 MSTORE SWAP2 PUSH1 0x20 ADD SWAP2 PUSH2 0x2C06 JUMP JUMPDEST DUP3 ADD SWAP2 SWAP1 PUSH1 0x0 MSTORE PUSH1 0x20 PUSH1 0x0 KECCAK256 SWAP1 JUMPDEST DUP2 SLOAD DUP2 MSTORE SWAP1 PUSH1 0x1 ADD SWAP1 PUSH1 0x20 ADD DUP1 DUP4 GT PUSH2 0x2BE9 JUMPI DUP3 SWAP1 SUB PUSH1 0x1F AND DUP3 ADD SWAP2 JUMPDEST POP POP POP POP POP SWAP2 POP SWAP9 POP SWAP9 POP SWAP9 POP SWAP9 POP SWAP9 POP SWAP9 POP SWAP9 POP SWAP9 POP POP SWAP2 SWAP4 SWAP6 SWAP8 POP SWAP2 SWAP4 SWAP6 SWAP8 JUMP JUMPDEST PUSH1 0x0 PUSH1 0x11 PUSH1 0x0 SWAP1 SLOAD SWAP1 PUSH2 0x100 EXP SWAP1 DIV PUSH20 0xFFFFFFFFFFFFFFFFFFFFFFFFFFFFFFFFFFFFFFFF AND PUSH20 0xFFFFFFFFFFFFFFFFFFFFFFFFFFFFFFFFFFFFFFFF AND CALLER PUSH20 0xFFFFFFFFFFFFFFFFFFFFFFFFFFFFFFFFFFFFFFFF AND EQ ISZERO ISZERO PUSH2 0x2C87 JUMPI PUSH1 0x0 DUP1 REVERT JUMPDEST PUSH1 0x1 PUSH1 0x7 PUSH1 0x0 DUP6 PUSH20 0xFFFFFFFFFFFFFFFFFFFFFFFFFFFFFFFFFFFFFFFF AND PUSH20 0xFFFFFFFFFFFFFFFFFFFFFFFFFFFFFFFFFFFFFFFF AND DUP2 MSTORE PUSH1 0x20 ADD SWAP1 DUP2 MSTORE PUSH1 0x20 ADD PUSH1 0x0 KECCAK256 PUSH1 0x0 DUP5 PUSH20 0xFFFFFFFFFFFFFFFFFFFFFFFFFFFFFFFFFFFFFFFF AND PUSH20 0xFFFFFFFFFFFFFFFFFFFFFFFFFFFFFFFFFFFFFFFF AND DUP2 MSTORE PUSH1 0x20 ADD SWAP1 DUP2 MSTORE PUSH1 0x20 ADD PUSH1 0x0 KECCAK256 PUSH1 0x0 PUSH2 0x100 EXP DUP2 SLOAD DUP2 PUSH1 0xFF MUL NOT AND SWAP1 DUP4 ISZERO ISZERO MUL OR SWAP1 SSTORE POP PUSH1 0xE PUSH1 0x0 DUP2 SLOAD DUP1 SWAP3 SWAP2 SWAP1 PUSH1 0x1 ADD SWAP2 SWAP1 POP SSTORE POP PUSH1 0x1 SWAP1 POP SWAP3 SWAP2 POP POP JUMP JUMPDEST PUSH1 0x0 PUSH1 0x11 PUSH1 0x0 SWAP1 SLOAD SWAP1 PUSH2 0x100 EXP SWAP1 DIV PUSH20 0xFFFFFFFFFFFFFFFFFFFFFFFFFFFFFFFFFFFFFFFF AND PUSH20 0xFFFFFFFFFFFFFFFFFFFFFFFFFFFFFFFFFFFFFFFF AND CALLER PUSH20 0xFFFFFFFFFFFFFFFFFFFFFFFFFFFFFFFFFFFFFFFF AND EQ ISZERO ISZERO PUSH2 0x2D96 JUMPI PUSH1 0x0 DUP1 REVERT JUMPDEST PUSH1 0xA PUSH1 0x0 DUP4 PUSH20 0xFFFFFFFFFFFFFFFFFFFFFFFFFFFFFFFFFFFFFFFF AND PUSH20 0xFFFFFFFFFFFFFFFFFFFFFFFFFFFFFFFFFFFFFFFF AND DUP2 MSTORE PUSH1 0x20 ADD SWAP1 DUP2 MSTORE PUSH1 0x20 ADD PUSH1 0x0 KECCAK256 PUSH1 0x0 SWAP1 SLOAD SWAP1 PUSH2 0x100 EXP SWAP1 DIV PUSH1 0xFF AND ISZERO ISZERO PUSH2 0x2DEE JUMPI PUSH1 0x0 DUP1 REVERT JUMPDEST PUSH1 0x1 PUSH1 0x8 PUSH1 0x0 DUP6 PUSH20 0xFFFFFFFFFFFFFFFFFFFFFFFFFFFFFFFFFFFFFFFF AND PUSH20 0xFFFFFFFFFFFFFFFFFFFFFFFFFFFFFFFFFFFFFFFF AND DUP2 MSTORE PUSH1 0x20 ADD SWAP1 DUP2 MSTORE PUSH1 0x20 ADD PUSH1 0x0 KECCAK256 PUSH1 0x0 DUP5 PUSH20 0xFFFFFFFFFFFFFFFFFFFFFFFFFFFFFFFFFFFFFFFF AND PUSH20 0xFFFFFFFFFFFFFFFFFFFFFFFFFFFFFFFFFFFFFFFF AND DUP2 MSTORE PUSH1 0x20 ADD SWAP1 DUP2 MSTORE PUSH1 0x20 ADD PUSH1 0x0 KECCAK256 PUSH1 0x0 PUSH2 0x100 EXP DUP2 SLOAD DUP2 PUSH1 0xFF MUL NOT AND SWAP1 DUP4 ISZERO ISZERO MUL OR SWAP1 SSTORE POP PUSH1 0xE PUSH1 0x0 DUP2 SLOAD DUP1 SWAP3 SWAP2 SWAP1 PUSH1 0x1 ADD SWAP2 SWAP1 POP SSTORE POP PUSH1 0x1 SWAP1 POP SWAP3 SWAP2 POP POP JUMP JUMPDEST PUSH1 0x0 PUSH1 0xE SLOAD SWAP1 POP SWAP1 JUMP JUMPDEST PUSH1 0x0 PUSH1 0x11 PUSH1 0x0 SWAP1 SLOAD SWAP1 PUSH2 0x100 EXP SWAP1 DIV PUSH20 0xFFFFFFFFFFFFFFFFFFFFFFFFFFFFFFFFFFFFFFFF AND PUSH20 0xFFFFFFFFFFFFFFFFFFFFFFFFFFFFFFFFFFFFFFFF AND CALLER PUSH20 0xFFFFFFFFFFFFFFFFFFFFFFFFFFFFFFFFFFFFFFFF AND EQ ISZERO ISZERO PUSH2 0x2F07 JUMPI PUSH1 0x0 DUP1 REVERT JUMPDEST PUSH1 0xA PUSH1 0x0 DUP4 PUSH20 0xFFFFFFFFFFFFFFFFFFFFFFFFFFFFFFFFFFFFFFFF AND PUSH20 0xFFFFFFFFFFFFFFFFFFFFFFFFFFFFFFFFFFFFFFFF AND DUP2 MSTORE PUSH1 0x20 ADD SWAP1 DUP2 MSTORE PUSH1 0x20 ADD PUSH1 0x0 KECCAK256 PUSH1 0x0 SWAP1 SLOAD SWAP1 PUSH2 0x100 EXP SWAP1 DIV PUSH1 0xFF AND ISZERO ISZERO PUSH2 0x2F5F JUMPI PUSH1 0x0 DUP1 REVERT JUMPDEST PUSH1 0x0 PUSH1 0x8 PUSH1 0x0 DUP6 PUSH20 0xFFFFFFFFFFFFFFFFFFFFFFFFFFFFFFFFFFFFFFFF AND PUSH20 0xFFFFFFFFFFFFFFFFFFFFFFFFFFFFFFFFFFFFFFFF AND DUP2 MSTORE PUSH1 0x20 ADD SWAP1 DUP2 MSTORE PUSH1 0x20 ADD PUSH1 0x0 KECCAK256 PUSH1 0x0 DUP5 PUSH20 0xFFFFFFFFFFFFFFFFFFFFFFFFFFFFFFFFFFFFFFFF AND PUSH20 0xFFFFFFFFFFFFFFFFFFFFFFFFFFFFFFFFFFFFFFFF AND DUP2 MSTORE PUSH1 0x20 ADD SWAP1 DUP2 MSTORE PUSH1 0x20 ADD PUSH1 0x0 KECCAK256 PUSH1 0x0 PUSH2 0x100 EXP DUP2 SLOAD DUP2 PUSH1 0xFF MUL NOT AND SWAP1 DUP4 ISZERO ISZERO MUL OR SWAP1 SSTORE POP PUSH1 0x0 SWAP1 POP SWAP3 SWAP2 POP POP JUMP JUMPDEST PUSH1 0x3 DUP2 DUP2 SLOAD DUP2 LT ISZERO ISZERO PUSH2 0x300D JUMPI INVALID JUMPDEST SWAP1 PUSH1 0x0 MSTORE PUSH1 0x20 PUSH1 0x0 KECCAK256 ADD PUSH1 0x0 SWAP2 POP SLOAD SWAP1 PUSH2 0x100 EXP SWAP1 DIV PUSH20 0xFFFFFFFFFFFFFFFFFFFFFFFFFFFFFFFFFFFFFFFF AND DUP2 JUMP JUMPDEST DUP3 DUP1 SLOAD PUSH1 0x1 DUP2 PUSH1 0x1 AND ISZERO PUSH2 0x100 MUL SUB AND PUSH1 0x2 SWAP1 DIV SWAP1 PUSH1 0x0 MSTORE PUSH1 0x20 PUSH1 0x0 KECCAK256 SWAP1 PUSH1 0x1F ADD PUSH1 0x20 SWAP1 DIV DUP2 ADD SWAP3 DUP3 PUSH1 0x1F LT PUSH2 0x307D JUMPI DUP1 MLOAD PUSH1 0xFF NOT AND DUP4 DUP1 ADD OR DUP6 SSTORE PUSH2 0x30AB JUMP JUMPDEST DUP3 DUP1 ADD PUSH1 0x1 ADD DUP6 SSTORE DUP3 ISZERO PUSH2 0x30AB JUMPI SWAP2 DUP3 ADD JUMPDEST DUP3 DUP2 GT ISZERO PUSH2 0x30AA JUMPI DUP3 MLOAD DUP3 SSTORE SWAP2 PUSH1 0x20 ADD SWAP2 SWAP1 PUSH1 0x1 ADD SWAP1 PUSH2 0x308F JUMP JUMPDEST JUMPDEST POP SWAP1 POP PUSH2 0x30B8 SWAP2 SWAP1 PUSH2 0x30BC JUMP JUMPDEST POP SWAP1 JUMP JUMPDEST PUSH2 0x30DE SWAP2 SWAP1 JUMPDEST DUP1 DUP3 GT ISZERO PUSH2 0x30DA JUMPI PUSH1 0x0 DUP2 PUSH1 0x0 SWAP1 SSTORE POP PUSH1 0x1 ADD PUSH2 0x30C2 JUMP JUMPDEST POP SWAP1 JUMP JUMPDEST SWAP1 JUMP JUMPDEST PUSH1 0x0 PUSH2 0x30ED DUP3 CALLDATALOAD PUSH2 0x3922 JUMP JUMPDEST SWAP1 POP SWAP3 SWAP2 POP POP JUMP JUMPDEST PUSH1 0x0 DUP3 PUSH1 0x1F DUP4 ADD SLT ISZERO ISZERO PUSH2 0x3108 JUMPI PUSH1 0x0 DUP1 REVERT JUMPDEST DUP2 CALLDATALOAD PUSH2 0x311B PUSH2 0x3116 DUP3 PUSH2 0x3890 JUMP JUMPDEST PUSH2 0x3863 JUMP JUMPDEST SWAP2 POP DUP1 DUP3 MSTORE PUSH1 0x20 DUP4 ADD PUSH1 0x20 DUP4 ADD DUP6 DUP4 DUP4 ADD GT ISZERO PUSH2 0x3137 JUMPI PUSH1 0x0 DUP1 REVERT JUMPDEST PUSH2 0x3142 DUP4 DUP3 DUP5 PUSH2 0x394C JUMP JUMPDEST POP POP POP SWAP3 SWAP2 POP POP JUMP JUMPDEST PUSH1 0x0 PUSH2 0x3157 DUP3 CALLDATALOAD PUSH2 0x3942 JUMP JUMPDEST SWAP1 POP SWAP3 SWAP2 POP POP JUMP JUMPDEST PUSH1 0x0 PUSH1 0x20 DUP3 DUP5 SUB SLT ISZERO PUSH2 0x3171 JUMPI PUSH1 0x0 DUP1 REVERT JUMPDEST PUSH1 0x0 PUSH2 0x317F DUP5 DUP3 DUP6 ADD PUSH2 0x30E1 JUMP JUMPDEST SWAP2 POP POP SWAP3 SWAP2 POP POP JUMP JUMPDEST PUSH1 0x0 DUP1 PUSH1 0x40 DUP4 DUP6 SUB SLT ISZERO PUSH2 0x319B JUMPI PUSH1 0x0 DUP1 REVERT JUMPDEST PUSH1 0x0 PUSH2 0x31A9 DUP6 DUP3 DUP7 ADD PUSH2 0x30E1 JUMP JUMPDEST SWAP3 POP POP PUSH1 0x20 PUSH2 0x31BA DUP6 DUP3 DUP7 ADD PUSH2 0x30E1 JUMP JUMPDEST SWAP2 POP POP SWAP3 POP SWAP3 SWAP1 POP JUMP JUMPDEST PUSH1 0x0 DUP1 PUSH1 0x0 DUP1 PUSH1 0x0 DUP1 PUSH1 0x0 PUSH1 0xE0 DUP9 DUP11 SUB SLT ISZERO PUSH2 0x31DF JUMPI PUSH1 0x0 DUP1 REVERT JUMPDEST PUSH1 0x0 PUSH2 0x31ED DUP11 DUP3 DUP12 ADD PUSH2 0x30E1 JUMP JUMPDEST SWAP8 POP POP PUSH1 0x20 PUSH2 0x31FE DUP11 DUP3 DUP12 ADD PUSH2 0x30E1 JUMP JUMPDEST SWAP7 POP POP PUSH1 0x40 DUP9 ADD CALLDATALOAD PUSH8 0xFFFFFFFFFFFFFFFF DUP2 GT ISZERO PUSH2 0x321B JUMPI PUSH1 0x0 DUP1 REVERT JUMPDEST PUSH2 0x3227 DUP11 DUP3 DUP12 ADD PUSH2 0x30F5 JUMP JUMPDEST SWAP6 POP POP PUSH1 0x60 DUP9 ADD CALLDATALOAD PUSH8 0xFFFFFFFFFFFFFFFF DUP2 GT ISZERO PUSH2 0x3244 JUMPI PUSH1 0x0 DUP1 REVERT JUMPDEST PUSH2 0x3250 DUP11 DUP3 DUP12 ADD PUSH2 0x30F5 JUMP JUMPDEST SWAP5 POP POP PUSH1 0x80 DUP9 ADD CALLDATALOAD PUSH8 0xFFFFFFFFFFFFFFFF DUP2 GT ISZERO PUSH2 0x326D JUMPI PUSH1 0x0 DUP1 REVERT JUMPDEST PUSH2 0x3279 DUP11 DUP3 DUP12 ADD PUSH2 0x30F5 JUMP JUMPDEST SWAP4 POP POP PUSH1 0xA0 DUP9 ADD CALLDATALOAD PUSH8 0xFFFFFFFFFFFFFFFF DUP2 GT ISZERO PUSH2 0x3296 JUMPI PUSH1 0x0 DUP1 REVERT JUMPDEST PUSH2 0x32A2 DUP11 DUP3 DUP12 ADD PUSH2 0x30F5 JUMP JUMPDEST SWAP3 POP POP PUSH1 0xC0 PUSH2 0x32B3 DUP11 DUP3 DUP12 ADD PUSH2 0x314B JUMP JUMPDEST SWAP2 POP POP SWAP3 SWAP6 SWAP9 SWAP2 SWAP5 SWAP8 POP SWAP3 SWAP6 POP JUMP JUMPDEST PUSH1 0x0 DUP1 PUSH1 0x0 DUP1 PUSH1 0x0 DUP1 PUSH1 0x0 DUP1 PUSH2 0x100 DUP10 DUP12 SUB SLT ISZERO PUSH2 0x32DF JUMPI PUSH1 0x0 DUP1 REVERT JUMPDEST PUSH1 0x0 PUSH2 0x32ED DUP12 DUP3 DUP13 ADD PUSH2 0x30E1 JUMP JUMPDEST SWAP9 POP POP PUSH1 0x20 DUP10 ADD CALLDATALOAD PUSH8 0xFFFFFFFFFFFFFFFF DUP2 GT ISZERO PUSH2 0x330A JUMPI PUSH1 0x0 DUP1 REVERT JUMPDEST PUSH2 0x3316 DUP12 DUP3 DUP13 ADD PUSH2 0x30F5 JUMP JUMPDEST SWAP8 POP POP PUSH1 0x40 DUP10 ADD CALLDATALOAD PUSH8 0xFFFFFFFFFFFFFFFF DUP2 GT ISZERO PUSH2 0x3333 JUMPI PUSH1 0x0 DUP1 REVERT JUMPDEST PUSH2 0x333F DUP12 DUP3 DUP13 ADD PUSH2 0x30F5 JUMP JUMPDEST SWAP7 POP POP PUSH1 0x60 DUP10 ADD CALLDATALOAD PUSH8 0xFFFFFFFFFFFFFFFF DUP2 GT ISZERO PUSH2 0x335C JUMPI PUSH1 0x0 DUP1 REVERT JUMPDEST PUSH2 0x3368 DUP12 DUP3 DUP13 ADD PUSH2 0x30F5 JUMP JUMPDEST SWAP6 POP POP PUSH1 0x80 DUP10 ADD CALLDATALOAD PUSH8 0xFFFFFFFFFFFFFFFF DUP2 GT ISZERO PUSH2 0x3385 JUMPI PUSH1 0x0 DUP1 REVERT JUMPDEST PUSH2 0x3391 DUP12 DUP3 DUP13 ADD PUSH2 0x30F5 JUMP JUMPDEST SWAP5 POP POP PUSH1 0xA0 DUP10 ADD CALLDATALOAD PUSH8 0xFFFFFFFFFFFFFFFF DUP2 GT ISZERO PUSH2 0x33AE JUMPI PUSH1 0x0 DUP1 REVERT JUMPDEST PUSH2 0x33BA DUP12 DUP3 DUP13 ADD PUSH2 0x30F5 JUMP JUMPDEST SWAP4 POP POP PUSH1 0xC0 DUP10 ADD CALLDATALOAD PUSH8 0xFFFFFFFFFFFFFFFF DUP2 GT ISZERO PUSH2 0x33D7 JUMPI PUSH1 0x0 DUP1 REVERT JUMPDEST PUSH2 0x33E3 DUP12 DUP3 DUP13 ADD PUSH2 0x30F5 JUMP JUMPDEST SWAP3 POP POP PUSH1 0xE0 DUP10 ADD CALLDATALOAD PUSH8 0xFFFFFFFFFFFFFFFF DUP2 GT ISZERO PUSH2 0x3400 JUMPI PUSH1 0x0 DUP1 REVERT JUMPDEST PUSH2 0x340C DUP12 DUP3 DUP13 ADD PUSH2 0x30F5 JUMP JUMPDEST SWAP2 POP POP SWAP3 SWAP6 SWAP9 POP SWAP3 SWAP6 SWAP9 SWAP1 SWAP4 SWAP7 POP JUMP JUMPDEST PUSH1 0x0 DUP1 PUSH1 0x0 DUP1 PUSH1 0x0 DUP1 PUSH1 0x0 DUP1 PUSH1 0x0 DUP1 PUSH2 0x140 DUP12 DUP14 SUB SLT ISZERO PUSH2 0x343C JUMPI PUSH1 0x0 DUP1 REVERT JUMPDEST PUSH1 0x0 PUSH2 0x344A DUP14 DUP3 DUP15 ADD PUSH2 0x30E1 JUMP JUMPDEST SWAP11 POP POP PUSH1 0x20 DUP12 ADD CALLDATALOAD PUSH8 0xFFFFFFFFFFFFFFFF DUP2 GT ISZERO PUSH2 0x3467 JUMPI PUSH1 0x0 DUP1 REVERT JUMPDEST PUSH2 0x3473 DUP14 DUP3 DUP15 ADD PUSH2 0x30F5 JUMP JUMPDEST SWAP10 POP POP PUSH1 0x40 DUP12 ADD CALLDATALOAD PUSH8 0xFFFFFFFFFFFFFFFF DUP2 GT ISZERO PUSH2 0x3490 JUMPI PUSH1 0x0 DUP1 REVERT JUMPDEST PUSH2 0x349C DUP14 DUP3 DUP15 ADD PUSH2 0x30F5 JUMP JUMPDEST SWAP9 POP POP PUSH1 0x60 DUP12 ADD CALLDATALOAD PUSH8 0xFFFFFFFFFFFFFFFF DUP2 GT ISZERO PUSH2 0x34B9 JUMPI PUSH1 0x0 DUP1 REVERT JUMPDEST PUSH2 0x34C5 DUP14 DUP3 DUP15 ADD PUSH2 0x30F5 JUMP JUMPDEST SWAP8 POP POP PUSH1 0x80 DUP12 ADD CALLDATALOAD PUSH8 0xFFFFFFFFFFFFFFFF DUP2 GT ISZERO PUSH2 0x34E2 JUMPI PUSH1 0x0 DUP1 REVERT JUMPDEST PUSH2 0x34EE DUP14 DUP3 DUP15 ADD PUSH2 0x30F5 JUMP JUMPDEST SWAP7 POP POP PUSH1 0xA0 DUP12 ADD CALLDATALOAD PUSH8 0xFFFFFFFFFFFFFFFF DUP2 GT ISZERO PUSH2 0x350B JUMPI PUSH1 0x0 DUP1 REVERT JUMPDEST PUSH2 0x3517 DUP14 DUP3 DUP15 ADD PUSH2 0x30F5 JUMP JUMPDEST SWAP6 POP POP PUSH1 0xC0 DUP12 ADD CALLDATALOAD PUSH8 0xFFFFFFFFFFFFFFFF DUP2 GT ISZERO PUSH2 0x3534 JUMPI PUSH1 0x0 DUP1 REVERT JUMPDEST PUSH2 0x3540 DUP14 DUP3 DUP15 ADD PUSH2 0x30F5 JUMP JUMPDEST SWAP5 POP POP PUSH1 0xE0 DUP12 ADD CALLDATALOAD PUSH8 0xFFFFFFFFFFFFFFFF DUP2 GT ISZERO PUSH2 0x355D JUMPI PUSH1 0x0 DUP1 REVERT JUMPDEST PUSH2 0x3569 DUP14 DUP3 DUP15 ADD PUSH2 0x30F5 JUMP JUMPDEST SWAP4 POP POP PUSH2 0x100 DUP12 ADD CALLDATALOAD PUSH8 0xFFFFFFFFFFFFFFFF DUP2 GT ISZERO PUSH2 0x3587 JUMPI PUSH1 0x0 DUP1 REVERT JUMPDEST PUSH2 0x3593 DUP14 DUP3 DUP15 ADD PUSH2 0x30F5 JUMP JUMPDEST SWAP3 POP POP PUSH2 0x120 DUP12 ADD CALLDATALOAD PUSH8 0xFFFFFFFFFFFFFFFF DUP2 GT ISZERO PUSH2 0x35B1 JUMPI PUSH1 0x0 DUP1 REVERT JUMPDEST PUSH2 0x35BD DUP14 DUP3 DUP15 ADD PUSH2 0x30F5 JUMP JUMPDEST SWAP2 POP POP SWAP3 SWAP6 SWAP9 SWAP12 SWAP2 SWAP5 SWAP8 SWAP11 POP SWAP3 SWAP6 SWAP9 POP JUMP JUMPDEST PUSH1 0x0 PUSH1 0x20 DUP3 DUP5 SUB SLT ISZERO PUSH2 0x35E1 JUMPI PUSH1 0x0 DUP1 REVERT JUMPDEST PUSH1 0x0 PUSH2 0x35EF DUP5 DUP3 DUP6 ADD PUSH2 0x314B JUMP JUMPDEST SWAP2 POP POP SWAP3 SWAP2 POP POP JUMP JUMPDEST PUSH2 0x3601 DUP2 PUSH2 0x38EC JUMP JUMPDEST DUP3 MSTORE POP POP JUMP JUMPDEST PUSH1 0x0 PUSH2 0x3612 DUP3 PUSH2 0x38C9 JUMP JUMPDEST DUP1 DUP5 MSTORE PUSH1 0x20 DUP5 ADD SWAP4 POP PUSH2 0x3624 DUP4 PUSH2 0x38BC JUMP JUMPDEST PUSH1 0x0 JUMPDEST DUP3 DUP2 LT ISZERO PUSH2 0x3656 JUMPI PUSH2 0x363A DUP7 DUP4 MLOAD PUSH2 0x35F8 JUMP JUMPDEST PUSH2 0x3643 DUP3 PUSH2 0x38DF JUMP JUMPDEST SWAP2 POP PUSH1 0x20 DUP7 ADD SWAP6 POP PUSH1 0x1 DUP2 ADD SWAP1 POP PUSH2 0x3627 JUMP JUMPDEST POP DUP5 SWAP3 POP POP POP SWAP3 SWAP2 POP POP JUMP JUMPDEST PUSH2 0x366B DUP2 PUSH2 0x390C JUMP JUMPDEST DUP3 MSTORE POP POP JUMP JUMPDEST PUSH1 0x0 PUSH2 0x367C DUP3 PUSH2 0x38D4 JUMP JUMPDEST DUP1 DUP5 MSTORE PUSH2 0x3690 DUP2 PUSH1 0x20 DUP7 ADD PUSH1 0x20 DUP7 ADD PUSH2 0x395B JUMP JUMPDEST PUSH2 0x3699 DUP2 PUSH2 0x398E JUMP JUMPDEST PUSH1 0x20 DUP6 ADD ADD SWAP2 POP POP SWAP3 SWAP2 POP POP JUMP JUMPDEST PUSH2 0x36B0 DUP2 PUSH2 0x3918 JUMP JUMPDEST DUP3 MSTORE POP POP JUMP JUMPDEST PUSH1 0x0 PUSH1 0x20 DUP3 ADD SWAP1 POP PUSH2 0x36CB PUSH1 0x0 DUP4 ADD DUP5 PUSH2 0x35F8 JUMP JUMPDEST SWAP3 SWAP2 POP POP JUMP JUMPDEST PUSH1 0x0 PUSH1 0x20 DUP3 ADD SWAP1 POP DUP2 DUP2 SUB PUSH1 0x0 DUP4 ADD MSTORE PUSH2 0x36EB DUP2 DUP5 PUSH2 0x3607 JUMP JUMPDEST SWAP1 POP SWAP3 SWAP2 POP POP JUMP JUMPDEST PUSH1 0x0 PUSH1 0x20 DUP3 ADD SWAP1 POP PUSH2 0x3708 PUSH1 0x0 DUP4 ADD DUP5 PUSH2 0x3662 JUMP JUMPDEST SWAP3 SWAP2 POP POP JUMP JUMPDEST PUSH1 0x0 PUSH2 0x100 DUP3 ADD SWAP1 POP DUP2 DUP2 SUB PUSH1 0x0 DUP4 ADD MSTORE PUSH2 0x3729 DUP2 DUP12 PUSH2 0x3671 JUMP JUMPDEST SWAP1 POP DUP2 DUP2 SUB PUSH1 0x20 DUP4 ADD MSTORE PUSH2 0x373D DUP2 DUP11 PUSH2 0x3671 JUMP JUMPDEST SWAP1 POP DUP2 DUP2 SUB PUSH1 0x40 DUP4 ADD MSTORE PUSH2 0x3751 DUP2 DUP10 PUSH2 0x3671 JUMP JUMPDEST SWAP1 POP DUP2 DUP2 SUB PUSH1 0x60 DUP4 ADD MSTORE PUSH2 0x3765 DUP2 DUP9 PUSH2 0x3671 JUMP JUMPDEST SWAP1 POP DUP2 DUP2 SUB PUSH1 0x80 DUP4 ADD MSTORE PUSH2 0x3779 DUP2 DUP8 PUSH2 0x3671 JUMP JUMPDEST SWAP1 POP DUP2 DUP2 SUB PUSH1 0xA0 DUP4 ADD MSTORE PUSH2 0x378D DUP2 DUP7 PUSH2 0x3671 JUMP JUMPDEST SWAP1 POP DUP2 DUP2 SUB PUSH1 0xC0 DUP4 ADD MSTORE PUSH2 0x37A1 DUP2 DUP6 PUSH2 0x3671 JUMP JUMPDEST SWAP1 POP PUSH2 0x37B0 PUSH1 0xE0 DUP4 ADD DUP5 PUSH2 0x35F8 JUMP JUMPDEST SWAP10 SWAP9 POP POP POP POP POP POP POP POP POP JUMP JUMPDEST PUSH1 0x0 PUSH1 0xE0 DUP3 ADD SWAP1 POP DUP2 DUP2 SUB PUSH1 0x0 DUP4 ADD MSTORE PUSH2 0x37D7 DUP2 DUP11 PUSH2 0x3671 JUMP JUMPDEST SWAP1 POP DUP2 DUP2 SUB PUSH1 0x20 DUP4 ADD MSTORE PUSH2 0x37EB DUP2 DUP10 PUSH2 0x3671 JUMP JUMPDEST SWAP1 POP DUP2 DUP2 SUB PUSH1 0x40 DUP4 ADD MSTORE PUSH2 0x37FF DUP2 DUP9 PUSH2 0x3671 JUMP JUMPDEST SWAP1 POP DUP2 DUP2 SUB PUSH1 0x60 DUP4 ADD MSTORE PUSH2 0x3813 DUP2 DUP8 PUSH2 0x3671 JUMP JUMPDEST SWAP1 POP PUSH2 0x3822 PUSH1 0x80 DUP4 ADD DUP7 PUSH2 0x36A7 JUMP JUMPDEST PUSH2 0x382F PUSH1 0xA0 DUP4 ADD DUP6 PUSH2 0x35F8 JUMP JUMPDEST PUSH2 0x383C PUSH1 0xC0 DUP4 ADD DUP5 PUSH2 0x35F8 JUMP JUMPDEST SWAP9 SWAP8 POP POP POP POP POP POP POP POP JUMP JUMPDEST PUSH1 0x0 PUSH1 0x20 DUP3 ADD SWAP1 POP PUSH2 0x385D PUSH1 0x0 DUP4 ADD DUP5 PUSH2 0x36A7 JUMP JUMPDEST SWAP3 SWAP2 POP POP JUMP JUMPDEST PUSH1 0x0 PUSH1 0x40 MLOAD SWAP1 POP DUP2 DUP2 ADD DUP2 DUP2 LT PUSH8 0xFFFFFFFFFFFFFFFF DUP3 GT OR ISZERO PUSH2 0x3886 JUMPI PUSH1 0x0 DUP1 REVERT JUMPDEST DUP1 PUSH1 0x40 MSTORE POP SWAP2 SWAP1 POP JUMP JUMPDEST PUSH1 0x0 PUSH8 0xFFFFFFFFFFFFFFFF DUP3 GT ISZERO PUSH2 0x38A7 JUMPI PUSH1 0x0 DUP1 REVERT JUMPDEST PUSH1 0x1F NOT PUSH1 0x1F DUP4 ADD AND SWAP1 POP PUSH1 0x20 DUP2 ADD SWAP1 POP SWAP2 SWAP1 POP JUMP JUMPDEST PUSH1 0x0 PUSH1 0x20 DUP3 ADD SWAP1 POP SWAP2 SWAP1 POP JUMP JUMPDEST PUSH1 0x0 DUP2 MLOAD SWAP1 POP SWAP2 SWAP1 POP JUMP JUMPDEST PUSH1 0x0 DUP2 MLOAD SWAP1 POP SWAP2 SWAP1 POP JUMP JUMPDEST PUSH1 0x0 PUSH1 0x20 DUP3 ADD SWAP1 POP SWAP2 SWAP1 POP JUMP JUMPDEST PUSH1 0x0 PUSH20 0xFFFFFFFFFFFFFFFFFFFFFFFFFFFFFFFFFFFFFFFF DUP3 AND SWAP1 POP SWAP2 SWAP1 POP JUMP JUMPDEST PUSH1 0x0 DUP2 ISZERO ISZERO SWAP1 POP SWAP2 SWAP1 POP JUMP JUMPDEST PUSH1 0x0 DUP2 SWAP1 POP SWAP2 SWAP1 POP JUMP JUMPDEST PUSH1 0x0 PUSH20 0xFFFFFFFFFFFFFFFFFFFFFFFFFFFFFFFFFFFFFFFF DUP3 AND SWAP1 POP SWAP2 SWAP1 POP JUMP JUMPDEST PUSH1 0x0 DUP2 SWAP1 POP SWAP2 SWAP1 POP JUMP JUMPDEST DUP3 DUP2 DUP4 CALLDATACOPY PUSH1 0x0 DUP4 DUP4 ADD MSTORE POP POP POP JUMP JUMPDEST PUSH1 0x0 JUMPDEST DUP4 DUP2 LT ISZERO PUSH2 0x3979 JUMPI DUP1 DUP3 ADD MLOAD DUP2 DUP5 ADD MSTORE PUSH1 0x20 DUP2 ADD SWAP1 POP PUSH2 0x395E JUMP JUMPDEST DUP4 DUP2 GT ISZERO PUSH2 0x3988 JUMPI PUSH1 0x0 DUP5 DUP5 ADD MSTORE JUMPDEST POP POP POP POP JUMP JUMPDEST PUSH1 0x0 PUSH1 0x1F NOT PUSH1 0x1F DUP4 ADD AND SWAP1 POP SWAP2 SWAP1 POP JUMP STOP LOG2 PUSH6 0x627A7A723058 KECCAK256 RETURNDATASIZE DUP15 PUSH11 0xD49EDAE70B80D8E82DE0EC 0xca 0xc1 SWAP2 PUSH2 0xE56F DUP11 PUSH12 0x46B04EE5C005B804CB6D6C65 PUSH25 0x706572696D656E74616CF50037000000000000000000000000 "
				},
				"gasEstimates": {
					"creation": {
						"codeDepositCost": "2961800",
						"executionCost": "48544",
						"totalCost": "3010344"
					},
					"external": {
						"MoHPermissionCounter()": "936",
						"MoHRevokePermission(address,address)": "infinite",
						"checkDoctor(address)": "1503",
						"createVaccineRecord(address,address,string,string,string,string,uint256)": "infinite",
						"doctorCount()": "804",
						"doctorList(uint256)": "1144",
						"doctorRegistration(address,string,string,string,string,string,string,string)": "infinite",
						"editDoctor(address,string,string,string,string,string,string,string)": "infinite",
						"editUser(address,string,string,string,string,string,string,string,string,string)": "infinite",
						"getDoctorCount()": "834",
						"getDoctors()": "infinite",
						"getMoHPermissionCounter()": "1164",
						"getUserCount()": "1010",
						"getUserPermissionCounter()": "548",
						"getUsers()": "infinite",
						"getVaccinationInfo(address)": "infinite",
						"givePermissionByMoH(address,address)": "infinite",
						"givePermissionByUser(address)": "41410",
						"givePermissionToVaccinate(address,address)": "infinite",
						"mohAdress()": "1066",
						"owner()": "934",
						"ownerAddress(address)": "1003",
						"revokePermissionToVaccinate(address,address)": "infinite",
						"searchDoctor(address)": "infinite",
						"searchUserformation(address)": "infinite",
						"userCount()": "584",
						"userList(uint256)": "1496",
						"userPermissionCounter()": "1068",
						"userRegistration(address,string,string,string,string,string,string,string,string,string)": "infinite",
						"userRevokePermission(address)": "21217",
						"vaccinationList(uint256)": "1738",
						"vaccinationRecordsCounter()": "914"
					}
				},
				"methodIdentifiers": {
					"MoHPermissionCounter()": "99d698c5",
					"MoHRevokePermission(address,address)": "c3bf7bf0",
					"checkDoctor(address)": "793de5f0",
					"createVaccineRecord(address,address,string,string,string,string,uint256)": "44c23f88",
					"doctorCount()": "78522bc4",
					"doctorList(uint256)": "127ca4b4",
					"doctorRegistration(address,string,string,string,string,string,string,string)": "17e51111",
					"editDoctor(address,string,string,string,string,string,string,string)": "16e0a611",
					"editUser(address,string,string,string,string,string,string,string,string,string)": "779a9576",
					"getDoctorCount()": "79111c1c",
					"getDoctors()": "b13d5d94",
					"getMoHPermissionCounter()": "e0df0ac6",
					"getUserCount()": "b5cb15f7",
					"getUserPermissionCounter()": "024decc5",
					"getUsers()": "00ce8e3e",
					"getVaccinationInfo(address)": "83a28b29",
					"givePermissionByMoH(address,address)": "d118404b",
					"givePermissionByUser(address)": "294a4540",
					"givePermissionToVaccinate(address,address)": "e0672aad",
					"mohAdress()": "b744ff4d",
					"owner()": "8da5cb5b",
					"ownerAddress(address)": "28f6daac",
					"revokePermissionToVaccinate(address,address)": "eee8f11a",
					"searchDoctor(address)": "caee6c85",
					"searchUserformation(address)": "076fd2f8",
					"userCount()": "07973ccf",
					"userList(uint256)": "9f4216e8",
					"userPermissionCounter()": "c543a718",
					"userRegistration(address,string,string,string,string,string,string,string,string,string)": "6cdb2278",
					"userRevokePermission(address)": "5fc8e8c6",
					"vaccinationList(uint256)": "ff508dab",
					"vaccinationRecordsCounter()": "96e39ce0"
				}
			},
			"userdoc": {
				"methods": {}
			}
		}
	}
}