{
	"contracts/ddddd.sol": {
		"ddddd": {
			"abi": [
				{
					"constant": true,
					"inputs": [],
					"name": "getUsers",
					"outputs": [
						{
							"name": "",
							"type": "address[]"
						}
					],
					"payable": false,
					"stateMutability": "view",
					"type": "function"
				},
				{
					"constant": false,
					"inputs": [
						{
							"name": "_address",
							"type": "address"
						}
					],
					"name": "RevokePermission",
					"outputs": [
						{
							"name": "success",
							"type": "bool"
						}
					],
					"payable": false,
					"stateMutability": "nonpayable",
					"type": "function"
				},
				{
					"constant": true,
					"inputs": [
						{
							"name": "_address",
							"type": "address"
						}
					],
					"name": "searchUserformation",
					"outputs": [
						{
							"name": "",
							"type": "string"
						},
						{
							"name": "",
							"type": "string"
						},
						{
							"name": "",
							"type": "string"
						},
						{
							"name": "",
							"type": "string"
						},
						{
							"name": "",
							"type": "string"
						},
						{
							"name": "",
							"type": "string"
						}
					],
					"payable": false,
					"stateMutability": "view",
					"type": "function"
				},
				{
					"constant": true,
					"inputs": [],
					"name": "userCount",
					"outputs": [
						{
							"name": "",
							"type": "uint256"
						}
					],
					"payable": false,
					"stateMutability": "view",
					"type": "function"
				},
				{
					"constant": true,
					"inputs": [
						{
							"name": "",
							"type": "uint256"
						}
					],
					"name": "doctorList",
					"outputs": [
						{
							"name": "",
							"type": "address"
						}
					],
					"payable": false,
					"stateMutability": "view",
					"type": "function"
				},
				{
					"constant": false,
					"inputs": [
						{
							"name": "_doctor",
							"type": "address"
						},
						{
							"name": "_uaeId",
							"type": "string"
						},
						{
							"name": "_name",
							"type": "string"
						},
						{
							"name": "_phone",
							"type": "string"
						},
						{
							"name": "_gender",
							"type": "string"
						},
						{
							"name": "_dob",
							"type": "string"
						},
						{
							"name": "_qualification",
							"type": "string"
						},
						{
							"name": "_major",
							"type": "string"
						}
					],
					"name": "editDoctor",
					"outputs": [],
					"payable": false,
					"stateMutability": "nonpayable",
					"type": "function"
				},
				{
					"constant": true,
					"inputs": [],
					"name": "getPermissionGrantedCount",
					"outputs": [
						{
							"name": "",
							"type": "uint256"
						}
					],
					"payable": false,
					"stateMutability": "view",
					"type": "function"
				},
				{
					"constant": false,
					"inputs": [
						{
							"name": "_address",
							"type": "address"
						}
					],
					"name": "givePermission",
					"outputs": [
						{
							"name": "success",
							"type": "bool"
						}
					],
					"payable": false,
					"stateMutability": "nonpayable",
					"type": "function"
				},
				{
					"constant": false,
					"inputs": [
						{
							"name": "_user",
							"type": "address"
						},
						{
							"name": "_uaeId",
							"type": "string"
						},
						{
							"name": "_name",
							"type": "string"
						},
						{
							"name": "_phone",
							"type": "string"
						},
						{
							"name": "_gender",
							"type": "string"
						},
						{
							"name": "_dob",
							"type": "string"
						},
						{
							"name": "_addr",
							"type": "string"
						},
						{
							"name": "_email",
							"type": "string"
						},
						{
							"name": "_nomineeName",
							"type": "string"
						},
						{
							"name": "_nomineeContact",
							"type": "string"
						}
					],
					"name": "userRegistration",
					"outputs": [],
					"payable": false,
					"stateMutability": "nonpayable",
					"type": "function"
				},
				{
					"constant": false,
					"inputs": [
						{
							"name": "_user",
							"type": "address"
						},
						{
							"name": "_uaeId",
							"type": "string"
						},
						{
							"name": "_name",
							"type": "string"
						},
						{
							"name": "_phone",
							"type": "string"
						},
						{
							"name": "_gender",
							"type": "string"
						},
						{
							"name": "_dob",
							"type": "string"
						},
						{
							"name": "_addr",
							"type": "string"
						},
						{
							"name": "_email",
							"type": "string"
						},
						{
							"name": "_nomineeName",
							"type": "string"
						},
						{
							"name": "_nomineeContact",
							"type": "string"
						}
					],
					"name": "editUser",
					"outputs": [],
					"payable": false,
					"stateMutability": "nonpayable",
					"type": "function"
				},
				{
					"constant": true,
					"inputs": [],
					"name": "doctorCount",
					"outputs": [
						{
							"name": "",
							"type": "uint256"
						}
					],
					"payable": false,
					"stateMutability": "view",
					"type": "function"
				},
				{
					"constant": true,
					"inputs": [],
					"name": "getDoctorCount",
					"outputs": [
						{
							"name": "",
							"type": "uint256"
						}
					],
					"payable": false,
					"stateMutability": "view",
					"type": "function"
				},
				{
					"constant": false,
					"inputs": [
						{
							"name": "_uaeId",
							"type": "string"
						},
						{
							"name": "_name",
							"type": "string"
						},
						{
							"name": "_phone",
							"type": "string"
						},
						{
							"name": "_gender",
							"type": "string"
						},
						{
							"name": "_dob",
							"type": "string"
						},
						{
							"name": "_qualification",
							"type": "string"
						},
						{
							"name": "_major",
							"type": "string"
						}
					],
					"name": "setDoctor",
					"outputs": [],
					"payable": false,
					"stateMutability": "nonpayable",
					"type": "function"
				},
				{
					"constant": true,
					"inputs": [],
					"name": "owner",
					"outputs": [
						{
							"name": "",
							"type": "address"
						}
					],
					"payable": false,
					"stateMutability": "view",
					"type": "function"
				},
				{
					"constant": false,
					"inputs": [],
					"name": "ownerAddress",
					"outputs": [],
					"payable": false,
					"stateMutability": "nonpayable",
					"type": "function"
				},
				{
					"constant": true,
					"inputs": [
						{
							"name": "",
							"type": "uint256"
						}
					],
					"name": "userList",
					"outputs": [
						{
							"name": "",
							"type": "address"
						}
					],
					"payable": false,
					"stateMutability": "view",
					"type": "function"
				},
				{
					"constant": true,
					"inputs": [],
					"name": "permissionCounter",
					"outputs": [
						{
							"name": "",
							"type": "uint256"
						}
					],
					"payable": false,
					"stateMutability": "view",
					"type": "function"
				},
				{
					"constant": true,
					"inputs": [],
					"name": "getDoctors",
					"outputs": [
						{
							"name": "",
							"type": "address[]"
						}
					],
					"payable": false,
					"stateMutability": "view",
					"type": "function"
				},
				{
					"constant": true,
					"inputs": [],
					"name": "getUserCount",
					"outputs": [
						{
							"name": "",
							"type": "uint256"
						}
					],
					"payable": false,
					"stateMutability": "view",
					"type": "function"
				},
				{
					"constant": true,
					"inputs": [],
					"name": "mohAdress",
					"outputs": [
						{
							"name": "",
							"type": "address"
						}
					],
					"payable": false,
					"stateMutability": "view",
					"type": "function"
				},
				{
					"constant": true,
					"inputs": [
						{
							"name": "_address",
							"type": "address"
						}
					],
					"name": "searchDoctor",
					"outputs": [
						{
							"name": "",
							"type": "string"
						},
						{
							"name": "",
							"type": "string"
						},
						{
							"name": "",
							"type": "string"
						},
						{
							"name": "",
							"type": "string"
						},
						{
							"name": "",
							"type": "string"
						},
						{
							"name": "",
							"type": "string"
						},
						{
							"name": "",
							"type": "string"
						}
					],
					"payable": false,
					"stateMutability": "view",
					"type": "function"
				}
			],
			"devdoc": {
				"methods": {}
			},
			"evm": {
				"assembly": "    /* \"contracts/ddddd.sol\":67:5939  contract ddddd {\r... */\n  mstore(0x40, 0x80)\n    /* \"contracts/ddddd.sol\":1064:1065  0 */\n  0x0\n    /* \"contracts/ddddd.sol\":1037:1065  uint256 public userCount = 0 */\n  0x8\n  sstore\n    /* \"contracts/ddddd.sol\":1101:1102  0 */\n  0x0\n    /* \"contracts/ddddd.sol\":1072:1102  uint256 public doctorCount = 0 */\n  0x9\n  sstore\n    /* \"contracts/ddddd.sol\":1144:1145  0 */\n  0x0\n    /* \"contracts/ddddd.sol\":1109:1145  uint256 public permissionCounter = 0 */\n  0xa\n  sstore\n    /* \"contracts/ddddd.sol\":1179:1221  0xc50C6297f56b033633C30354A854b074749cd2dC */\n  0xc50c6297f56b033633c30354a854b074749cd2dc\n    /* \"contracts/ddddd.sol\":1152:1221  address public mohAdress = 0xc50C6297f56b033633C30354A854b074749cd2dC */\n  0xb\n  exp(0x100, 0x0)\n  dup2\n  sload\n  dup2\n  0xffffffffffffffffffffffffffffffffffffffff\n  mul\n  not\n  and\n  swap1\n  dup4\n  0xffffffffffffffffffffffffffffffffffffffff\n  and\n  mul\n  or\n  swap1\n  sstore\n  pop\n    /* \"contracts/ddddd.sol\":67:5939  contract ddddd {\r... */\n  callvalue\n    /* \"--CODEGEN--\":8:17   */\n  dup1\n    /* \"--CODEGEN--\":5:7   */\n  iszero\n  tag_1\n  jumpi\n    /* \"--CODEGEN--\":30:31   */\n  0x0\n    /* \"--CODEGEN--\":27:28   */\n  dup1\n    /* \"--CODEGEN--\":20:32   */\n  revert\n    /* \"--CODEGEN--\":5:7   */\ntag_1:\n    /* \"contracts/ddddd.sol\":67:5939  contract ddddd {\r... */\n  pop\n  dataSize(sub_0)\n  dup1\n  dataOffset(sub_0)\n  0x0\n  codecopy\n  0x0\n  return\nstop\n\nsub_0: assembly {\n        /* \"contracts/ddddd.sol\":67:5939  contract ddddd {\r... */\n      mstore(0x40, 0x80)\n      jumpi(tag_1, lt(calldatasize, 0x4))\n      calldataload(0x0)\n      0x100000000000000000000000000000000000000000000000000000000\n      swap1\n      div\n      0xffffffff\n      and\n      dup1\n      0xce8e3e\n      eq\n      tag_2\n      jumpi\n      dup1\n      0x2516abd\n      eq\n      tag_3\n      jumpi\n      dup1\n      0x76fd2f8\n      eq\n      tag_4\n      jumpi\n      dup1\n      0x7973ccf\n      eq\n      tag_5\n      jumpi\n      dup1\n      0x127ca4b4\n      eq\n      tag_6\n      jumpi\n      dup1\n      0x16e0a611\n      eq\n      tag_7\n      jumpi\n      dup1\n      0x24c24b2b\n      eq\n      tag_8\n      jumpi\n      dup1\n      0x3d391f70\n      eq\n      tag_9\n      jumpi\n      dup1\n      0x6cdb2278\n      eq\n      tag_10\n      jumpi\n      dup1\n      0x779a9576\n      eq\n      tag_11\n      jumpi\n      dup1\n      0x78522bc4\n      eq\n      tag_12\n      jumpi\n      dup1\n      0x79111c1c\n      eq\n      tag_13\n      jumpi\n      dup1\n      0x8b945c6d\n      eq\n      tag_14\n      jumpi\n      dup1\n      0x8da5cb5b\n      eq\n      tag_15\n      jumpi\n      dup1\n      0x8f84aa09\n      eq\n      tag_16\n      jumpi\n      dup1\n      0x9f4216e8\n      eq\n      tag_17\n      jumpi\n      dup1\n      0xa5d043d1\n      eq\n      tag_18\n      jumpi\n      dup1\n      0xb13d5d94\n      eq\n      tag_19\n      jumpi\n      dup1\n      0xb5cb15f7\n      eq\n      tag_20\n      jumpi\n      dup1\n      0xb744ff4d\n      eq\n      tag_21\n      jumpi\n      dup1\n      0xcaee6c85\n      eq\n      tag_22\n      jumpi\n    tag_1:\n      0x0\n      dup1\n      revert\n        /* \"contracts/ddddd.sol\":4464:4549  function getUsers() public view returns(address[]) {\r... */\n    tag_2:\n      callvalue\n        /* \"--CODEGEN--\":8:17   */\n      dup1\n        /* \"--CODEGEN--\":5:7   */\n      iszero\n      tag_23\n      jumpi\n        /* \"--CODEGEN--\":30:31   */\n      0x0\n        /* \"--CODEGEN--\":27:28   */\n      dup1\n        /* \"--CODEGEN--\":20:32   */\n      revert\n        /* \"--CODEGEN--\":5:7   */\n    tag_23:\n        /* \"contracts/ddddd.sol\":4464:4549  function getUsers() public view returns(address[]) {\r... */\n      pop\n      tag_24\n      jump(tag_25)\n    tag_24:\n      mload(0x40)\n      tag_26\n      swap2\n      swap1\n      jump(tag_27)\n    tag_26:\n      mload(0x40)\n      dup1\n      swap2\n      sub\n      swap1\n      return\n        /* \"contracts/ddddd.sol\":4300:4454  function RevokePermission(address _address) public returns(bool success) {\r... */\n    tag_3:\n      callvalue\n        /* \"--CODEGEN--\":8:17   */\n      dup1\n        /* \"--CODEGEN--\":5:7   */\n      iszero\n      tag_28\n      jumpi\n        /* \"--CODEGEN--\":30:31   */\n      0x0\n        /* \"--CODEGEN--\":27:28   */\n      dup1\n        /* \"--CODEGEN--\":20:32   */\n      revert\n        /* \"--CODEGEN--\":5:7   */\n    tag_28:\n        /* \"contracts/ddddd.sol\":4300:4454  function RevokePermission(address _address) public returns(bool success) {\r... */\n      pop\n      tag_29\n      0x4\n      dup1\n      calldatasize\n      sub\n      tag_30\n      swap2\n      swap1\n      dup2\n      add\n      swap1\n      jump(tag_31)\n    tag_30:\n      jump(tag_32)\n    tag_29:\n      mload(0x40)\n      tag_33\n      swap2\n      swap1\n      jump(tag_34)\n    tag_33:\n      mload(0x40)\n      dup1\n      swap2\n      sub\n      swap1\n      return\n        /* \"contracts/ddddd.sol\":4660:4996  function searchUserformation(address _address) public view returns(string, string, string, string, string, string) {\r... */\n    tag_4:\n      callvalue\n        /* \"--CODEGEN--\":8:17   */\n      dup1\n        /* \"--CODEGEN--\":5:7   */\n      iszero\n      tag_35\n      jumpi\n        /* \"--CODEGEN--\":30:31   */\n      0x0\n        /* \"--CODEGEN--\":27:28   */\n      dup1\n        /* \"--CODEGEN--\":20:32   */\n      revert\n        /* \"--CODEGEN--\":5:7   */\n    tag_35:\n        /* \"contracts/ddddd.sol\":4660:4996  function searchUserformation(address _address) public view returns(string, string, string, string, string, string) {\r... */\n      pop\n      tag_36\n      0x4\n      dup1\n      calldatasize\n      sub\n      tag_37\n      swap2\n      swap1\n      dup2\n      add\n      swap1\n      jump(tag_31)\n    tag_37:\n      jump(tag_38)\n    tag_36:\n      mload(0x40)\n      tag_39\n      swap7\n      swap6\n      swap5\n      swap4\n      swap3\n      swap2\n      swap1\n      jump(tag_40)\n    tag_39:\n      mload(0x40)\n      dup1\n      swap2\n      sub\n      swap1\n      return\n        /* \"contracts/ddddd.sol\":1037:1065  uint256 public userCount = 0 */\n    tag_5:\n      callvalue\n        /* \"--CODEGEN--\":8:17   */\n      dup1\n        /* \"--CODEGEN--\":5:7   */\n      iszero\n      tag_41\n      jumpi\n        /* \"--CODEGEN--\":30:31   */\n      0x0\n        /* \"--CODEGEN--\":27:28   */\n      dup1\n        /* \"--CODEGEN--\":20:32   */\n      revert\n        /* \"--CODEGEN--\":5:7   */\n    tag_41:\n        /* \"contracts/ddddd.sol\":1037:1065  uint256 public userCount = 0 */\n      pop\n      tag_42\n      jump(tag_43)\n    tag_42:\n      mload(0x40)\n      tag_44\n      swap2\n      swap1\n      jump(tag_45)\n    tag_44:\n      mload(0x40)\n      dup1\n      swap2\n      sub\n      swap1\n      return\n        /* \"contracts/ddddd.sol\":748:775  address[] public doctorList */\n    tag_6:\n      callvalue\n        /* \"--CODEGEN--\":8:17   */\n      dup1\n        /* \"--CODEGEN--\":5:7   */\n      iszero\n      tag_46\n      jumpi\n        /* \"--CODEGEN--\":30:31   */\n      0x0\n        /* \"--CODEGEN--\":27:28   */\n      dup1\n        /* \"--CODEGEN--\":20:32   */\n      revert\n        /* \"--CODEGEN--\":5:7   */\n    tag_46:\n        /* \"contracts/ddddd.sol\":748:775  address[] public doctorList */\n      pop\n      tag_47\n      0x4\n      dup1\n      calldatasize\n      sub\n      tag_48\n      swap2\n      swap1\n      dup2\n      add\n      swap1\n      jump(tag_49)\n    tag_48:\n      jump(tag_50)\n    tag_47:\n      mload(0x40)\n      tag_51\n      swap2\n      swap1\n      jump(tag_52)\n    tag_51:\n      mload(0x40)\n      dup1\n      swap2\n      sub\n      swap1\n      return\n        /* \"contracts/ddddd.sol\":3617:4099  function editDoctor(address _doctor, string _uaeId, string _name, string _phone, string _gender, string _dob, string _qualification, string _major) public {\r... */\n    tag_7:\n      callvalue\n        /* \"--CODEGEN--\":8:17   */\n      dup1\n        /* \"--CODEGEN--\":5:7   */\n      iszero\n      tag_53\n      jumpi\n        /* \"--CODEGEN--\":30:31   */\n      0x0\n        /* \"--CODEGEN--\":27:28   */\n      dup1\n        /* \"--CODEGEN--\":20:32   */\n      revert\n        /* \"--CODEGEN--\":5:7   */\n    tag_53:\n        /* \"contracts/ddddd.sol\":3617:4099  function editDoctor(address _doctor, string _uaeId, string _name, string _phone, string _gender, string _dob, string _qualification, string _major) public {\r... */\n      pop\n      tag_54\n      0x4\n      dup1\n      calldatasize\n      sub\n      tag_55\n      swap2\n      swap1\n      dup2\n      add\n      swap1\n      jump(tag_56)\n    tag_55:\n      jump(tag_57)\n    tag_54:\n      stop\n        /* \"contracts/ddddd.sol\":5823:5932  function getPermissionGrantedCount() public view returns(uint256) {\r... */\n    tag_8:\n      callvalue\n        /* \"--CODEGEN--\":8:17   */\n      dup1\n        /* \"--CODEGEN--\":5:7   */\n      iszero\n      tag_58\n      jumpi\n        /* \"--CODEGEN--\":30:31   */\n      0x0\n        /* \"--CODEGEN--\":27:28   */\n      dup1\n        /* \"--CODEGEN--\":20:32   */\n      revert\n        /* \"--CODEGEN--\":5:7   */\n    tag_58:\n        /* \"contracts/ddddd.sol\":5823:5932  function getPermissionGrantedCount() public view returns(uint256) {\r... */\n      pop\n      tag_59\n      jump(tag_60)\n    tag_59:\n      mload(0x40)\n      tag_61\n      swap2\n      swap1\n      jump(tag_45)\n    tag_61:\n      mload(0x40)\n      dup1\n      swap2\n      sub\n      swap1\n      return\n        /* \"contracts/ddddd.sol\":4109:4290  function givePermission(address _address) public returns(bool success) {\r... */\n    tag_9:\n      callvalue\n        /* \"--CODEGEN--\":8:17   */\n      dup1\n        /* \"--CODEGEN--\":5:7   */\n      iszero\n      tag_62\n      jumpi\n        /* \"--CODEGEN--\":30:31   */\n      0x0\n        /* \"--CODEGEN--\":27:28   */\n      dup1\n        /* \"--CODEGEN--\":20:32   */\n      revert\n        /* \"--CODEGEN--\":5:7   */\n    tag_62:\n        /* \"contracts/ddddd.sol\":4109:4290  function givePermission(address _address) public returns(bool success) {\r... */\n      pop\n      tag_63\n      0x4\n      dup1\n      calldatasize\n      sub\n      tag_64\n      swap2\n      swap1\n      dup2\n      add\n      swap1\n      jump(tag_31)\n    tag_64:\n      jump(tag_65)\n    tag_63:\n      mload(0x40)\n      tag_66\n      swap2\n      swap1\n      jump(tag_34)\n    tag_66:\n      mload(0x40)\n      dup1\n      swap2\n      sub\n      swap1\n      return\n        /* \"contracts/ddddd.sol\":1314:2388  function userRegistration(address _user, string _uaeId, string _name, string _phone, string _gender, string _dob, string _addr, string _email, string _nomineeName, string _nomineeContact) public {\r... */\n    tag_10:\n      callvalue\n        /* \"--CODEGEN--\":8:17   */\n      dup1\n        /* \"--CODEGEN--\":5:7   */\n      iszero\n      tag_67\n      jumpi\n        /* \"--CODEGEN--\":30:31   */\n      0x0\n        /* \"--CODEGEN--\":27:28   */\n      dup1\n        /* \"--CODEGEN--\":20:32   */\n      revert\n        /* \"--CODEGEN--\":5:7   */\n    tag_67:\n        /* \"contracts/ddddd.sol\":1314:2388  function userRegistration(address _user, string _uaeId, string _name, string _phone, string _gender, string _dob, string _addr, string _email, string _nomineeName, string _nomineeContact) public {\r... */\n      pop\n      tag_68\n      0x4\n      dup1\n      calldatasize\n      sub\n      tag_69\n      swap2\n      swap1\n      dup2\n      add\n      swap1\n      jump(tag_70)\n    tag_69:\n      jump(tag_71)\n    tag_68:\n      stop\n        /* \"contracts/ddddd.sol\":2412:2988  function editUser(address _user, string _uaeId, string _name, string _phone, string _gender, string _dob, string _addr, string _email, string _nomineeName, string _nomineeContact) public {\r... */\n    tag_11:\n      callvalue\n        /* \"--CODEGEN--\":8:17   */\n      dup1\n        /* \"--CODEGEN--\":5:7   */\n      iszero\n      tag_72\n      jumpi\n        /* \"--CODEGEN--\":30:31   */\n      0x0\n        /* \"--CODEGEN--\":27:28   */\n      dup1\n        /* \"--CODEGEN--\":20:32   */\n      revert\n        /* \"--CODEGEN--\":5:7   */\n    tag_72:\n        /* \"contracts/ddddd.sol\":2412:2988  function editUser(address _user, string _uaeId, string _name, string _phone, string _gender, string _dob, string _addr, string _email, string _nomineeName, string _nomineeContact) public {\r... */\n      pop\n      tag_73\n      0x4\n      dup1\n      calldatasize\n      sub\n      tag_74\n      swap2\n      swap1\n      dup2\n      add\n      swap1\n      jump(tag_70)\n    tag_74:\n      jump(tag_75)\n    tag_73:\n      stop\n        /* \"contracts/ddddd.sol\":1072:1102  uint256 public doctorCount = 0 */\n    tag_12:\n      callvalue\n        /* \"--CODEGEN--\":8:17   */\n      dup1\n        /* \"--CODEGEN--\":5:7   */\n      iszero\n      tag_76\n      jumpi\n        /* \"--CODEGEN--\":30:31   */\n      0x0\n        /* \"--CODEGEN--\":27:28   */\n      dup1\n        /* \"--CODEGEN--\":20:32   */\n      revert\n        /* \"--CODEGEN--\":5:7   */\n    tag_76:\n        /* \"contracts/ddddd.sol\":1072:1102  uint256 public doctorCount = 0 */\n      pop\n      tag_77\n      jump(tag_78)\n    tag_77:\n      mload(0x40)\n      tag_79\n      swap2\n      swap1\n      jump(tag_45)\n    tag_79:\n      mload(0x40)\n      dup1\n      swap2\n      sub\n      swap1\n      return\n        /* \"contracts/ddddd.sol\":5723:5815  function getDoctorCount() public view returns(uint256) {\r... */\n    tag_13:\n      callvalue\n        /* \"--CODEGEN--\":8:17   */\n      dup1\n        /* \"--CODEGEN--\":5:7   */\n      iszero\n      tag_80\n      jumpi\n        /* \"--CODEGEN--\":30:31   */\n      0x0\n        /* \"--CODEGEN--\":27:28   */\n      dup1\n        /* \"--CODEGEN--\":20:32   */\n      revert\n        /* \"--CODEGEN--\":5:7   */\n    tag_80:\n        /* \"contracts/ddddd.sol\":5723:5815  function getDoctorCount() public view returns(uint256) {\r... */\n      pop\n      tag_81\n      jump(tag_82)\n    tag_81:\n      mload(0x40)\n      tag_83\n      swap2\n      swap1\n      jump(tag_45)\n    tag_83:\n      mload(0x40)\n      dup1\n      swap2\n      sub\n      swap1\n      return\n        /* \"contracts/ddddd.sol\":2996:3609  function setDoctor(string _uaeId, string _name, string _phone, string _gender, string _dob, string _qualification, string _major) public {\r... */\n    tag_14:\n      callvalue\n        /* \"--CODEGEN--\":8:17   */\n      dup1\n        /* \"--CODEGEN--\":5:7   */\n      iszero\n      tag_84\n      jumpi\n        /* \"--CODEGEN--\":30:31   */\n      0x0\n        /* \"--CODEGEN--\":27:28   */\n      dup1\n        /* \"--CODEGEN--\":20:32   */\n      revert\n        /* \"--CODEGEN--\":5:7   */\n    tag_84:\n        /* \"contracts/ddddd.sol\":2996:3609  function setDoctor(string _uaeId, string _name, string _phone, string _gender, string _dob, string _qualification, string _major) public {\r... */\n      pop\n      tag_85\n      0x4\n      dup1\n      calldatasize\n      sub\n      tag_86\n      swap2\n      swap1\n      dup2\n      add\n      swap1\n      jump(tag_87)\n    tag_86:\n      jump(tag_88)\n    tag_85:\n      stop\n        /* \"contracts/ddddd.sol\":689:709  address public owner */\n    tag_15:\n      callvalue\n        /* \"--CODEGEN--\":8:17   */\n      dup1\n        /* \"--CODEGEN--\":5:7   */\n      iszero\n      tag_89\n      jumpi\n        /* \"--CODEGEN--\":30:31   */\n      0x0\n        /* \"--CODEGEN--\":27:28   */\n      dup1\n        /* \"--CODEGEN--\":20:32   */\n      revert\n        /* \"--CODEGEN--\":5:7   */\n    tag_89:\n        /* \"contracts/ddddd.sol\":689:709  address public owner */\n      pop\n      tag_90\n      jump(tag_91)\n    tag_90:\n      mload(0x40)\n      tag_92\n      swap2\n      swap1\n      jump(tag_52)\n    tag_92:\n      mload(0x40)\n      dup1\n      swap2\n      sub\n      swap1\n      return\n        /* \"contracts/ddddd.sol\":1234:1302  function ownerAddress() public {\r... */\n    tag_16:\n      callvalue\n        /* \"--CODEGEN--\":8:17   */\n      dup1\n        /* \"--CODEGEN--\":5:7   */\n      iszero\n      tag_93\n      jumpi\n        /* \"--CODEGEN--\":30:31   */\n      0x0\n        /* \"--CODEGEN--\":27:28   */\n      dup1\n        /* \"--CODEGEN--\":20:32   */\n      revert\n        /* \"--CODEGEN--\":5:7   */\n    tag_93:\n        /* \"contracts/ddddd.sol\":1234:1302  function ownerAddress() public {\r... */\n      pop\n      tag_94\n      jump(tag_95)\n    tag_94:\n      stop\n        /* \"contracts/ddddd.sol\":716:741  address[] public userList */\n    tag_17:\n      callvalue\n        /* \"--CODEGEN--\":8:17   */\n      dup1\n        /* \"--CODEGEN--\":5:7   */\n      iszero\n      tag_96\n      jumpi\n        /* \"--CODEGEN--\":30:31   */\n      0x0\n        /* \"--CODEGEN--\":27:28   */\n      dup1\n        /* \"--CODEGEN--\":20:32   */\n      revert\n        /* \"--CODEGEN--\":5:7   */\n    tag_96:\n        /* \"contracts/ddddd.sol\":716:741  address[] public userList */\n      pop\n      tag_97\n      0x4\n      dup1\n      calldatasize\n      sub\n      tag_98\n      swap2\n      swap1\n      dup2\n      add\n      swap1\n      jump(tag_49)\n    tag_98:\n      jump(tag_99)\n    tag_97:\n      mload(0x40)\n      tag_100\n      swap2\n      swap1\n      jump(tag_52)\n    tag_100:\n      mload(0x40)\n      dup1\n      swap2\n      sub\n      swap1\n      return\n        /* \"contracts/ddddd.sol\":1109:1145  uint256 public permissionCounter = 0 */\n    tag_18:\n      callvalue\n        /* \"--CODEGEN--\":8:17   */\n      dup1\n        /* \"--CODEGEN--\":5:7   */\n      iszero\n      tag_101\n      jumpi\n        /* \"--CODEGEN--\":30:31   */\n      0x0\n        /* \"--CODEGEN--\":27:28   */\n      dup1\n        /* \"--CODEGEN--\":20:32   */\n      revert\n        /* \"--CODEGEN--\":5:7   */\n    tag_101:\n        /* \"contracts/ddddd.sol\":1109:1145  uint256 public permissionCounter = 0 */\n      pop\n      tag_102\n      jump(tag_103)\n    tag_102:\n      mload(0x40)\n      tag_104\n      swap2\n      swap1\n      jump(tag_45)\n    tag_104:\n      mload(0x40)\n      dup1\n      swap2\n      sub\n      swap1\n      return\n        /* \"contracts/ddddd.sol\":4559:4648  function getDoctors() public view returns(address[]) {\r... */\n    tag_19:\n      callvalue\n        /* \"--CODEGEN--\":8:17   */\n      dup1\n        /* \"--CODEGEN--\":5:7   */\n      iszero\n      tag_105\n      jumpi\n        /* \"--CODEGEN--\":30:31   */\n      0x0\n        /* \"--CODEGEN--\":27:28   */\n      dup1\n        /* \"--CODEGEN--\":20:32   */\n      revert\n        /* \"--CODEGEN--\":5:7   */\n    tag_105:\n        /* \"contracts/ddddd.sol\":4559:4648  function getDoctors() public view returns(address[]) {\r... */\n      pop\n      tag_106\n      jump(tag_107)\n    tag_106:\n      mload(0x40)\n      tag_108\n      swap2\n      swap1\n      jump(tag_27)\n    tag_108:\n      mload(0x40)\n      dup1\n      swap2\n      sub\n      swap1\n      return\n        /* \"contracts/ddddd.sol\":5627:5715  function getUserCount() public view returns(uint256) {\r... */\n    tag_20:\n      callvalue\n        /* \"--CODEGEN--\":8:17   */\n      dup1\n        /* \"--CODEGEN--\":5:7   */\n      iszero\n      tag_109\n      jumpi\n        /* \"--CODEGEN--\":30:31   */\n      0x0\n        /* \"--CODEGEN--\":27:28   */\n      dup1\n        /* \"--CODEGEN--\":20:32   */\n      revert\n        /* \"--CODEGEN--\":5:7   */\n    tag_109:\n        /* \"contracts/ddddd.sol\":5627:5715  function getUserCount() public view returns(uint256) {\r... */\n      pop\n      tag_110\n      jump(tag_111)\n    tag_110:\n      mload(0x40)\n      tag_112\n      swap2\n      swap1\n      jump(tag_45)\n    tag_112:\n      mload(0x40)\n      dup1\n      swap2\n      sub\n      swap1\n      return\n        /* \"contracts/ddddd.sol\":1152:1221  address public mohAdress = 0xc50C6297f56b033633C30354A854b074749cd2dC */\n    tag_21:\n      callvalue\n        /* \"--CODEGEN--\":8:17   */\n      dup1\n        /* \"--CODEGEN--\":5:7   */\n      iszero\n      tag_113\n      jumpi\n        /* \"--CODEGEN--\":30:31   */\n      0x0\n        /* \"--CODEGEN--\":27:28   */\n      dup1\n        /* \"--CODEGEN--\":20:32   */\n      revert\n        /* \"--CODEGEN--\":5:7   */\n    tag_113:\n        /* \"contracts/ddddd.sol\":1152:1221  address public mohAdress = 0xc50C6297f56b033633C30354A854b074749cd2dC */\n      pop\n      tag_114\n      jump(tag_115)\n    tag_114:\n      mload(0x40)\n      tag_116\n      swap2\n      swap1\n      jump(tag_52)\n    tag_116:\n      mload(0x40)\n      dup1\n      swap2\n      sub\n      swap1\n      return\n        /* \"contracts/ddddd.sol\":5317:5611  function searchDoctor(address _address) public view returns(string, string, string, string, string, string, string) {\r... */\n    tag_22:\n      callvalue\n        /* \"--CODEGEN--\":8:17   */\n      dup1\n        /* \"--CODEGEN--\":5:7   */\n      iszero\n      tag_117\n      jumpi\n        /* \"--CODEGEN--\":30:31   */\n      0x0\n        /* \"--CODEGEN--\":27:28   */\n      dup1\n        /* \"--CODEGEN--\":20:32   */\n      revert\n        /* \"--CODEGEN--\":5:7   */\n    tag_117:\n        /* \"contracts/ddddd.sol\":5317:5611  function searchDoctor(address _address) public view returns(string, string, string, string, string, string, string) {\r... */\n      pop\n      tag_118\n      0x4\n      dup1\n      calldatasize\n      sub\n      tag_119\n      swap2\n      swap1\n      dup2\n      add\n      swap1\n      jump(tag_31)\n    tag_119:\n      jump(tag_120)\n    tag_118:\n      mload(0x40)\n      tag_121\n      swap8\n      swap7\n      swap6\n      swap5\n      swap4\n      swap3\n      swap2\n      swap1\n      jump(tag_122)\n    tag_121:\n      mload(0x40)\n      dup1\n      swap2\n      sub\n      swap1\n      return\n        /* \"contracts/ddddd.sol\":4464:4549  function getUsers() public view returns(address[]) {\r... */\n    tag_25:\n        /* \"contracts/ddddd.sol\":4504:4513  address[] */\n      0x60\n        /* \"contracts/ddddd.sol\":4533:4541  userList */\n      0x1\n        /* \"contracts/ddddd.sol\":4526:4541  return userList */\n      dup1\n      sload\n      dup1\n      0x20\n      mul\n      0x20\n      add\n      mload(0x40)\n      swap1\n      dup2\n      add\n      0x40\n      mstore\n      dup1\n      swap3\n      swap2\n      swap1\n      dup2\n      dup2\n      mstore\n      0x20\n      add\n      dup3\n      dup1\n      sload\n      dup1\n      iszero\n      tag_124\n      jumpi\n      0x20\n      mul\n      dup3\n      add\n      swap2\n      swap1\n      0x0\n      mstore\n      keccak256(0x0, 0x20)\n      swap1\n    tag_125:\n      dup2\n      0x0\n      swap1\n      sload\n      swap1\n      0x100\n      exp\n      swap1\n      div\n      0xffffffffffffffffffffffffffffffffffffffff\n      and\n      0xffffffffffffffffffffffffffffffffffffffff\n      and\n      dup2\n      mstore\n      0x20\n      add\n      swap1\n      0x1\n      add\n      swap1\n      dup1\n      dup4\n      gt\n      tag_125\n      jumpi\n    tag_124:\n      pop\n      pop\n      pop\n      pop\n      pop\n      swap1\n      pop\n        /* \"contracts/ddddd.sol\":4464:4549  function getUsers() public view returns(address[]) {\r... */\n      swap1\n      jump\t// out\n        /* \"contracts/ddddd.sol\":4300:4454  function RevokePermission(address _address) public returns(bool success) {\r... */\n    tag_32:\n        /* \"contracts/ddddd.sol\":4359:4371  bool success */\n      0x0\n        /* \"contracts/ddddd.sol\":4419:4424  false */\n      dup1\n        /* \"contracts/ddddd.sol\":4384:4394  isApproved */\n      0x5\n        /* \"contracts/ddddd.sol\":4384:4406  isApproved[msg.sender] */\n      0x0\n        /* \"contracts/ddddd.sol\":4395:4405  msg.sender */\n      caller\n        /* \"contracts/ddddd.sol\":4384:4406  isApproved[msg.sender] */\n      0xffffffffffffffffffffffffffffffffffffffff\n      and\n      0xffffffffffffffffffffffffffffffffffffffff\n      and\n      dup2\n      mstore\n      0x20\n      add\n      swap1\n      dup2\n      mstore\n      0x20\n      add\n      0x0\n      keccak256\n        /* \"contracts/ddddd.sol\":4384:4416  isApproved[msg.sender][_address] */\n      0x0\n        /* \"contracts/ddddd.sol\":4407:4415  _address */\n      dup5\n        /* \"contracts/ddddd.sol\":4384:4416  isApproved[msg.sender][_address] */\n      0xffffffffffffffffffffffffffffffffffffffff\n      and\n      0xffffffffffffffffffffffffffffffffffffffff\n      and\n      dup2\n      mstore\n      0x20\n      add\n      swap1\n      dup2\n      mstore\n      0x20\n      add\n      0x0\n      keccak256\n      0x0\n        /* \"contracts/ddddd.sol\":4384:4424  isApproved[msg.sender][_address] = false */\n      0x100\n      exp\n      dup2\n      sload\n      dup2\n      0xff\n      mul\n      not\n      and\n      swap1\n      dup4\n      iszero\n      iszero\n      mul\n      or\n      swap1\n      sstore\n      pop\n        /* \"contracts/ddddd.sol\":4442:4446  true */\n      0x1\n        /* \"contracts/ddddd.sol\":4435:4446  return true */\n      swap1\n      pop\n        /* \"contracts/ddddd.sol\":4300:4454  function RevokePermission(address _address) public returns(bool success) {\r... */\n      swap2\n      swap1\n      pop\n      jump\t// out\n        /* \"contracts/ddddd.sol\":4660:4996  function searchUserformation(address _address) public view returns(string, string, string, string, string, string) {\r... */\n    tag_38:\n        /* \"contracts/ddddd.sol\":4727:4733  string */\n      0x60\n        /* \"contracts/ddddd.sol\":4735:4741  string */\n      dup1\n        /* \"contracts/ddddd.sol\":4743:4749  string */\n      0x60\n        /* \"contracts/ddddd.sol\":4751:4757  string */\n      dup1\n        /* \"contracts/ddddd.sol\":4759:4765  string */\n      0x60\n        /* \"contracts/ddddd.sol\":4767:4773  string */\n      dup1\n        /* \"contracts/ddddd.sol\":4838:4843  var u */\n      0x0\n        /* \"contracts/ddddd.sol\":4794:4804  isApproved */\n      0x5\n        /* \"contracts/ddddd.sol\":4794:4814  isApproved[_address] */\n      0x0\n        /* \"contracts/ddddd.sol\":4805:4813  _address */\n      dup10\n        /* \"contracts/ddddd.sol\":4794:4814  isApproved[_address] */\n      0xffffffffffffffffffffffffffffffffffffffff\n      and\n      0xffffffffffffffffffffffffffffffffffffffff\n      and\n      dup2\n      mstore\n      0x20\n      add\n      swap1\n      dup2\n      mstore\n      0x20\n      add\n      0x0\n      keccak256\n        /* \"contracts/ddddd.sol\":4794:4826  isApproved[_address][msg.sender] */\n      0x0\n        /* \"contracts/ddddd.sol\":4815:4825  msg.sender */\n      caller\n        /* \"contracts/ddddd.sol\":4794:4826  isApproved[_address][msg.sender] */\n      0xffffffffffffffffffffffffffffffffffffffff\n      and\n      0xffffffffffffffffffffffffffffffffffffffff\n      and\n      dup2\n      mstore\n      0x20\n      add\n      swap1\n      dup2\n      mstore\n      0x20\n      add\n      0x0\n      keccak256\n      0x0\n      swap1\n      sload\n      swap1\n      0x100\n      exp\n      swap1\n      div\n      0xff\n      and\n        /* \"contracts/ddddd.sol\":4786:4827  require(isApproved[_address][msg.sender]) */\n      iszero\n      iszero\n      tag_128\n      jumpi\n      0x0\n      dup1\n      revert\n    tag_128:\n        /* \"contracts/ddddd.sol\":4846:4850  user */\n      0x3\n        /* \"contracts/ddddd.sol\":4846:4860  user[_address] */\n      0x0\n        /* \"contracts/ddddd.sol\":4851:4859  _address */\n      dup10\n        /* \"contracts/ddddd.sol\":4846:4860  user[_address] */\n      0xffffffffffffffffffffffffffffffffffffffff\n      and\n      0xffffffffffffffffffffffffffffffffffffffff\n      and\n      dup2\n      mstore\n      0x20\n      add\n      swap1\n      dup2\n      mstore\n      0x20\n      add\n      0x0\n      keccak256\n        /* \"contracts/ddddd.sol\":4838:4860  var u = user[_address] */\n      swap1\n      pop\n        /* \"contracts/ddddd.sol\":4879:4880  u */\n      dup1\n        /* \"contracts/ddddd.sol\":4879:4886  u.uaeId */\n      0x0\n      add\n        /* \"contracts/ddddd.sol\":4888:4889  u */\n      dup2\n        /* \"contracts/ddddd.sol\":4888:4894  u.name */\n      0x1\n      add\n        /* \"contracts/ddddd.sol\":4896:4897  u */\n      dup3\n        /* \"contracts/ddddd.sol\":4896:4903  u.phone */\n      0x2\n      add\n        /* \"contracts/ddddd.sol\":4905:4906  u */\n      dup4\n        /* \"contracts/ddddd.sol\":4905:4913  u.gender */\n      0x3\n      add\n        /* \"contracts/ddddd.sol\":4915:4916  u */\n      dup5\n        /* \"contracts/ddddd.sol\":4915:4920  u.dob */\n      0x4\n      add\n        /* \"contracts/ddddd.sol\":4922:4923  u */\n      dup6\n        /* \"contracts/ddddd.sol\":4922:4928  u.addr */\n      0x5\n      add\n        /* \"contracts/ddddd.sol\":4871:4929  return (u.uaeId, u.name, u.phone, u.gender, u.dob, u.addr) */\n      dup6\n      dup1\n      sload\n      0x1\n      dup2\n      0x1\n      and\n      iszero\n      0x100\n      mul\n      sub\n      and\n      0x2\n      swap1\n      div\n      dup1\n      0x1f\n      add\n      0x20\n      dup1\n      swap2\n      div\n      mul\n      0x20\n      add\n      mload(0x40)\n      swap1\n      dup2\n      add\n      0x40\n      mstore\n      dup1\n      swap3\n      swap2\n      swap1\n      dup2\n      dup2\n      mstore\n      0x20\n      add\n      dup3\n      dup1\n      sload\n      0x1\n      dup2\n      0x1\n      and\n      iszero\n      0x100\n      mul\n      sub\n      and\n      0x2\n      swap1\n      div\n      dup1\n      iszero\n      tag_129\n      jumpi\n      dup1\n      0x1f\n      lt\n      tag_130\n      jumpi\n      0x100\n      dup1\n      dup4\n      sload\n      div\n      mul\n      dup4\n      mstore\n      swap2\n      0x20\n      add\n      swap2\n      jump(tag_129)\n    tag_130:\n      dup3\n      add\n      swap2\n      swap1\n      0x0\n      mstore\n      keccak256(0x0, 0x20)\n      swap1\n    tag_131:\n      dup2\n      sload\n      dup2\n      mstore\n      swap1\n      0x1\n      add\n      swap1\n      0x20\n      add\n      dup1\n      dup4\n      gt\n      tag_131\n      jumpi\n      dup3\n      swap1\n      sub\n      0x1f\n      and\n      dup3\n      add\n      swap2\n    tag_129:\n      pop\n      pop\n      pop\n      pop\n      pop\n      swap6\n      pop\n      dup5\n      dup1\n      sload\n      0x1\n      dup2\n      0x1\n      and\n      iszero\n      0x100\n      mul\n      sub\n      and\n      0x2\n      swap1\n      div\n      dup1\n      0x1f\n      add\n      0x20\n      dup1\n      swap2\n      div\n      mul\n      0x20\n      add\n      mload(0x40)\n      swap1\n      dup2\n      add\n      0x40\n      mstore\n      dup1\n      swap3\n      swap2\n      swap1\n      dup2\n      dup2\n      mstore\n      0x20\n      add\n      dup3\n      dup1\n      sload\n      0x1\n      dup2\n      0x1\n      and\n      iszero\n      0x100\n      mul\n      sub\n      and\n      0x2\n      swap1\n      div\n      dup1\n      iszero\n      tag_132\n      jumpi\n      dup1\n      0x1f\n      lt\n      tag_133\n      jumpi\n      0x100\n      dup1\n      dup4\n      sload\n      div\n      mul\n      dup4\n      mstore\n      swap2\n      0x20\n      add\n      swap2\n      jump(tag_132)\n    tag_133:\n      dup3\n      add\n      swap2\n      swap1\n      0x0\n      mstore\n      keccak256(0x0, 0x20)\n      swap1\n    tag_134:\n      dup2\n      sload\n      dup2\n      mstore\n      swap1\n      0x1\n      add\n      swap1\n      0x20\n      add\n      dup1\n      dup4\n      gt\n      tag_134\n      jumpi\n      dup3\n      swap1\n      sub\n      0x1f\n      and\n      dup3\n      add\n      swap2\n    tag_132:\n      pop\n      pop\n      pop\n      pop\n      pop\n      swap5\n      pop\n      dup4\n      dup1\n      sload\n      0x1\n      dup2\n      0x1\n      and\n      iszero\n      0x100\n      mul\n      sub\n      and\n      0x2\n      swap1\n      div\n      dup1\n      0x1f\n      add\n      0x20\n      dup1\n      swap2\n      div\n      mul\n      0x20\n      add\n      mload(0x40)\n      swap1\n      dup2\n      add\n      0x40\n      mstore\n      dup1\n      swap3\n      swap2\n      swap1\n      dup2\n      dup2\n      mstore\n      0x20\n      add\n      dup3\n      dup1\n      sload\n      0x1\n      dup2\n      0x1\n      and\n      iszero\n      0x100\n      mul\n      sub\n      and\n      0x2\n      swap1\n      div\n      dup1\n      iszero\n      tag_135\n      jumpi\n      dup1\n      0x1f\n      lt\n      tag_136\n      jumpi\n      0x100\n      dup1\n      dup4\n      sload\n      div\n      mul\n      dup4\n      mstore\n      swap2\n      0x20\n      add\n      swap2\n      jump(tag_135)\n    tag_136:\n      dup3\n      add\n      swap2\n      swap1\n      0x0\n      mstore\n      keccak256(0x0, 0x20)\n      swap1\n    tag_137:\n      dup2\n      sload\n      dup2\n      mstore\n      swap1\n      0x1\n      add\n      swap1\n      0x20\n      add\n      dup1\n      dup4\n      gt\n      tag_137\n      jumpi\n      dup3\n      swap1\n      sub\n      0x1f\n      and\n      dup3\n      add\n      swap2\n    tag_135:\n      pop\n      pop\n      pop\n      pop\n      pop\n      swap4\n      pop\n      dup3\n      dup1\n      sload\n      0x1\n      dup2\n      0x1\n      and\n      iszero\n      0x100\n      mul\n      sub\n      and\n      0x2\n      swap1\n      div\n      dup1\n      0x1f\n      add\n      0x20\n      dup1\n      swap2\n      div\n      mul\n      0x20\n      add\n      mload(0x40)\n      swap1\n      dup2\n      add\n      0x40\n      mstore\n      dup1\n      swap3\n      swap2\n      swap1\n      dup2\n      dup2\n      mstore\n      0x20\n      add\n      dup3\n      dup1\n      sload\n      0x1\n      dup2\n      0x1\n      and\n      iszero\n      0x100\n      mul\n      sub\n      and\n      0x2\n      swap1\n      div\n      dup1\n      iszero\n      tag_138\n      jumpi\n      dup1\n      0x1f\n      lt\n      tag_139\n      jumpi\n      0x100\n      dup1\n      dup4\n      sload\n      div\n      mul\n      dup4\n      mstore\n      swap2\n      0x20\n      add\n      swap2\n      jump(tag_138)\n    tag_139:\n      dup3\n      add\n      swap2\n      swap1\n      0x0\n      mstore\n      keccak256(0x0, 0x20)\n      swap1\n    tag_140:\n      dup2\n      sload\n      dup2\n      mstore\n      swap1\n      0x1\n      add\n      swap1\n      0x20\n      add\n      dup1\n      dup4\n      gt\n      tag_140\n      jumpi\n      dup3\n      swap1\n      sub\n      0x1f\n      and\n      dup3\n      add\n      swap2\n    tag_138:\n      pop\n      pop\n      pop\n      pop\n      pop\n      swap3\n      pop\n      dup2\n      dup1\n      sload\n      0x1\n      dup2\n      0x1\n      and\n      iszero\n      0x100\n      mul\n      sub\n      and\n      0x2\n      swap1\n      div\n      dup1\n      0x1f\n      add\n      0x20\n      dup1\n      swap2\n      div\n      mul\n      0x20\n      add\n      mload(0x40)\n      swap1\n      dup2\n      add\n      0x40\n      mstore\n      dup1\n      swap3\n      swap2\n      swap1\n      dup2\n      dup2\n      mstore\n      0x20\n      add\n      dup3\n      dup1\n      sload\n      0x1\n      dup2\n      0x1\n      and\n      iszero\n      0x100\n      mul\n      sub\n      and\n      0x2\n      swap1\n      div\n      dup1\n      iszero\n      tag_141\n      jumpi\n      dup1\n      0x1f\n      lt\n      tag_142\n      jumpi\n      0x100\n      dup1\n      dup4\n      sload\n      div\n      mul\n      dup4\n      mstore\n      swap2\n      0x20\n      add\n      swap2\n      jump(tag_141)\n    tag_142:\n      dup3\n      add\n      swap2\n      swap1\n      0x0\n      mstore\n      keccak256(0x0, 0x20)\n      swap1\n    tag_143:\n      dup2\n      sload\n      dup2\n      mstore\n      swap1\n      0x1\n      add\n      swap1\n      0x20\n      add\n      dup1\n      dup4\n      gt\n      tag_143\n      jumpi\n      dup3\n      swap1\n      sub\n      0x1f\n      and\n      dup3\n      add\n      swap2\n    tag_141:\n      pop\n      pop\n      pop\n      pop\n      pop\n      swap2\n      pop\n      dup1\n      dup1\n      sload\n      0x1\n      dup2\n      0x1\n      and\n      iszero\n      0x100\n      mul\n      sub\n      and\n      0x2\n      swap1\n      div\n      dup1\n      0x1f\n      add\n      0x20\n      dup1\n      swap2\n      div\n      mul\n      0x20\n      add\n      mload(0x40)\n      swap1\n      dup2\n      add\n      0x40\n      mstore\n      dup1\n      swap3\n      swap2\n      swap1\n      dup2\n      dup2\n      mstore\n      0x20\n      add\n      dup3\n      dup1\n      sload\n      0x1\n      dup2\n      0x1\n      and\n      iszero\n      0x100\n      mul\n      sub\n      and\n      0x2\n      swap1\n      div\n      dup1\n      iszero\n      tag_144\n      jumpi\n      dup1\n      0x1f\n      lt\n      tag_145\n      jumpi\n      0x100\n      dup1\n      dup4\n      sload\n      div\n      mul\n      dup4\n      mstore\n      swap2\n      0x20\n      add\n      swap2\n      jump(tag_144)\n    tag_145:\n      dup3\n      add\n      swap2\n      swap1\n      0x0\n      mstore\n      keccak256(0x0, 0x20)\n      swap1\n    tag_146:\n      dup2\n      sload\n      dup2\n      mstore\n      swap1\n      0x1\n      add\n      swap1\n      0x20\n      add\n      dup1\n      dup4\n      gt\n      tag_146\n      jumpi\n      dup3\n      swap1\n      sub\n      0x1f\n      and\n      dup3\n      add\n      swap2\n    tag_144:\n      pop\n      pop\n      pop\n      pop\n      pop\n      swap1\n      pop\n      swap7\n      pop\n      swap7\n      pop\n      swap7\n      pop\n      swap7\n      pop\n      swap7\n      pop\n      swap7\n      pop\n        /* \"contracts/ddddd.sol\":4660:4996  function searchUserformation(address _address) public view returns(string, string, string, string, string, string) {\r... */\n      pop\n      swap2\n      swap4\n      swap6\n      pop\n      swap2\n      swap4\n      swap6\n      jump\t// out\n        /* \"contracts/ddddd.sol\":1037:1065  uint256 public userCount = 0 */\n    tag_43:\n      sload(0x8)\n      dup2\n      jump\t// out\n        /* \"contracts/ddddd.sol\":748:775  address[] public doctorList */\n    tag_50:\n      0x2\n      dup2\n      dup2\n      sload\n      dup2\n      lt\n      iszero\n      iszero\n      tag_147\n      jumpi\n      invalid\n    tag_147:\n      swap1\n      0x0\n      mstore\n      keccak256(0x0, 0x20)\n      add\n      0x0\n      swap2\n      pop\n      sload\n      swap1\n      0x100\n      exp\n      swap1\n      div\n      0xffffffffffffffffffffffffffffffffffffffff\n      and\n      dup2\n      jump\t// out\n        /* \"contracts/ddddd.sol\":3617:4099  function editDoctor(address _doctor, string _uaeId, string _name, string _phone, string _gender, string _dob, string _qualification, string _major) public {\r... */\n    tag_57:\n        /* \"contracts/ddddd.sol\":3826:3831  var d */\n      0x0\n        /* \"contracts/ddddd.sol\":3805:3814  mohAdress */\n      0xb\n      0x0\n      swap1\n      sload\n      swap1\n      0x100\n      exp\n      swap1\n      div\n      0xffffffffffffffffffffffffffffffffffffffff\n      and\n        /* \"contracts/ddddd.sol\":3791:3814  msg.sender == mohAdress */\n      0xffffffffffffffffffffffffffffffffffffffff\n      and\n        /* \"contracts/ddddd.sol\":3791:3801  msg.sender */\n      caller\n        /* \"contracts/ddddd.sol\":3791:3814  msg.sender == mohAdress */\n      0xffffffffffffffffffffffffffffffffffffffff\n      and\n      eq\n        /* \"contracts/ddddd.sol\":3783:3815  require(msg.sender == mohAdress) */\n      iszero\n      iszero\n      tag_150\n      jumpi\n      0x0\n      dup1\n      revert\n    tag_150:\n        /* \"contracts/ddddd.sol\":3834:3840  doctor */\n      0x4\n        /* \"contracts/ddddd.sol\":3834:3849  doctor[_doctor] */\n      0x0\n        /* \"contracts/ddddd.sol\":3841:3848  _doctor */\n      dup11\n        /* \"contracts/ddddd.sol\":3834:3849  doctor[_doctor] */\n      0xffffffffffffffffffffffffffffffffffffffff\n      and\n      0xffffffffffffffffffffffffffffffffffffffff\n      and\n      dup2\n      mstore\n      0x20\n      add\n      swap1\n      dup2\n      mstore\n      0x20\n      add\n      0x0\n      keccak256\n        /* \"contracts/ddddd.sol\":3826:3849  var d = doctor[_doctor] */\n      swap1\n      pop\n        /* \"contracts/ddddd.sol\":3880:3886  _uaeId */\n      dup8\n        /* \"contracts/ddddd.sol\":3870:3871  d */\n      dup2\n        /* \"contracts/ddddd.sol\":3870:3877  d.uaeId */\n      0x0\n      add\n        /* \"contracts/ddddd.sol\":3870:3886  d.uaeId = _uaeId */\n      swap1\n      dup1\n      mload\n      swap1\n      0x20\n      add\n      swap1\n      tag_151\n      swap3\n      swap2\n      swap1\n      jump\t// in(tag_152)\n    tag_151:\n      pop\n        /* \"contracts/ddddd.sol\":3906:3911  _name */\n      dup7\n        /* \"contracts/ddddd.sol\":3897:3898  d */\n      dup2\n        /* \"contracts/ddddd.sol\":3897:3903  d.name */\n      0x1\n      add\n        /* \"contracts/ddddd.sol\":3897:3911  d.name = _name */\n      swap1\n      dup1\n      mload\n      swap1\n      0x20\n      add\n      swap1\n      tag_153\n      swap3\n      swap2\n      swap1\n      jump\t// in(tag_152)\n    tag_153:\n      pop\n        /* \"contracts/ddddd.sol\":3932:3938  _phone */\n      dup6\n        /* \"contracts/ddddd.sol\":3922:3923  d */\n      dup2\n        /* \"contracts/ddddd.sol\":3922:3929  d.phone */\n      0x2\n      add\n        /* \"contracts/ddddd.sol\":3922:3938  d.phone = _phone */\n      swap1\n      dup1\n      mload\n      swap1\n      0x20\n      add\n      swap1\n      tag_154\n      swap3\n      swap2\n      swap1\n      jump\t// in(tag_152)\n    tag_154:\n      pop\n        /* \"contracts/ddddd.sol\":3960:3967  _gender */\n      dup5\n        /* \"contracts/ddddd.sol\":3949:3950  d */\n      dup2\n        /* \"contracts/ddddd.sol\":3949:3957  d.gender */\n      0x3\n      add\n        /* \"contracts/ddddd.sol\":3949:3967  d.gender = _gender */\n      swap1\n      dup1\n      mload\n      swap1\n      0x20\n      add\n      swap1\n      tag_155\n      swap3\n      swap2\n      swap1\n      jump\t// in(tag_152)\n    tag_155:\n      pop\n        /* \"contracts/ddddd.sol\":3986:3990  _dob */\n      dup4\n        /* \"contracts/ddddd.sol\":3978:3979  d */\n      dup2\n        /* \"contracts/ddddd.sol\":3978:3983  d.dob */\n      0x4\n      add\n        /* \"contracts/ddddd.sol\":3978:3990  d.dob = _dob */\n      swap1\n      dup1\n      mload\n      swap1\n      0x20\n      add\n      swap1\n      tag_156\n      swap3\n      swap2\n      swap1\n      jump\t// in(tag_152)\n    tag_156:\n      pop\n        /* \"contracts/ddddd.sol\":4019:4033  _qualification */\n      dup3\n        /* \"contracts/ddddd.sol\":4001:4002  d */\n      dup2\n        /* \"contracts/ddddd.sol\":4001:4016  d.qualification */\n      0x7\n      add\n        /* \"contracts/ddddd.sol\":4001:4033  d.qualification = _qualification */\n      swap1\n      dup1\n      mload\n      swap1\n      0x20\n      add\n      swap1\n      tag_157\n      swap3\n      swap2\n      swap1\n      jump\t// in(tag_152)\n    tag_157:\n      pop\n        /* \"contracts/ddddd.sol\":4054:4060  _major */\n      dup2\n        /* \"contracts/ddddd.sol\":4044:4045  d */\n      dup2\n        /* \"contracts/ddddd.sol\":4044:4051  d.major */\n      0x8\n      add\n        /* \"contracts/ddddd.sol\":4044:4060  d.major = _major */\n      swap1\n      dup1\n      mload\n      swap1\n      0x20\n      add\n      swap1\n      tag_158\n      swap3\n      swap2\n      swap1\n      jump\t// in(tag_152)\n    tag_158:\n      pop\n        /* \"contracts/ddddd.sol\":4084:4091  _doctor */\n      dup9\n        /* \"contracts/ddddd.sol\":4071:4072  d */\n      dup2\n        /* \"contracts/ddddd.sol\":4071:4081  d.eAddress */\n      0x9\n      add\n      0x0\n        /* \"contracts/ddddd.sol\":4071:4091  d.eAddress = _doctor */\n      0x100\n      exp\n      dup2\n      sload\n      dup2\n      0xffffffffffffffffffffffffffffffffffffffff\n      mul\n      not\n      and\n      swap1\n      dup4\n      0xffffffffffffffffffffffffffffffffffffffff\n      and\n      mul\n      or\n      swap1\n      sstore\n      pop\n        /* \"contracts/ddddd.sol\":3617:4099  function editDoctor(address _doctor, string _uaeId, string _name, string _phone, string _gender, string _dob, string _qualification, string _major) public {\r... */\n      pop\n      pop\n      pop\n      pop\n      pop\n      pop\n      pop\n      pop\n      pop\n      jump\t// out\n        /* \"contracts/ddddd.sol\":5823:5932  function getPermissionGrantedCount() public view returns(uint256) {\r... */\n    tag_60:\n        /* \"contracts/ddddd.sol\":5880:5887  uint256 */\n      0x0\n        /* \"contracts/ddddd.sol\":5907:5924  permissionCounter */\n      sload(0xa)\n        /* \"contracts/ddddd.sol\":5900:5924  return permissionCounter */\n      swap1\n      pop\n        /* \"contracts/ddddd.sol\":5823:5932  function getPermissionGrantedCount() public view returns(uint256) {\r... */\n      swap1\n      jump\t// out\n        /* \"contracts/ddddd.sol\":4109:4290  function givePermission(address _address) public returns(bool success) {\r... */\n    tag_65:\n        /* \"contracts/ddddd.sol\":4166:4178  bool success */\n      0x0\n        /* \"contracts/ddddd.sol\":4226:4230  true */\n      0x1\n        /* \"contracts/ddddd.sol\":4191:4201  isApproved */\n      0x5\n        /* \"contracts/ddddd.sol\":4191:4213  isApproved[msg.sender] */\n      0x0\n        /* \"contracts/ddddd.sol\":4202:4212  msg.sender */\n      caller\n        /* \"contracts/ddddd.sol\":4191:4213  isApproved[msg.sender] */\n      0xffffffffffffffffffffffffffffffffffffffff\n      and\n      0xffffffffffffffffffffffffffffffffffffffff\n      and\n      dup2\n      mstore\n      0x20\n      add\n      swap1\n      dup2\n      mstore\n      0x20\n      add\n      0x0\n      keccak256\n        /* \"contracts/ddddd.sol\":4191:4223  isApproved[msg.sender][_address] */\n      0x0\n        /* \"contracts/ddddd.sol\":4214:4222  _address */\n      dup5\n        /* \"contracts/ddddd.sol\":4191:4223  isApproved[msg.sender][_address] */\n      0xffffffffffffffffffffffffffffffffffffffff\n      and\n      0xffffffffffffffffffffffffffffffffffffffff\n      and\n      dup2\n      mstore\n      0x20\n      add\n      swap1\n      dup2\n      mstore\n      0x20\n      add\n      0x0\n      keccak256\n      0x0\n        /* \"contracts/ddddd.sol\":4191:4230  isApproved[msg.sender][_address] = true */\n      0x100\n      exp\n      dup2\n      sload\n      dup2\n      0xff\n      mul\n      not\n      and\n      swap1\n      dup4\n      iszero\n      iszero\n      mul\n      or\n      swap1\n      sstore\n      pop\n        /* \"contracts/ddddd.sol\":4241:4258  permissionCounter */\n      0xa\n      0x0\n        /* \"contracts/ddddd.sol\":4241:4260  permissionCounter++ */\n      dup2\n      sload\n      dup1\n      swap3\n      swap2\n      swap1\n      0x1\n      add\n      swap2\n      swap1\n      pop\n      sstore\n      pop\n        /* \"contracts/ddddd.sol\":4278:4282  true */\n      0x1\n        /* \"contracts/ddddd.sol\":4271:4282  return true */\n      swap1\n      pop\n        /* \"contracts/ddddd.sol\":4109:4290  function givePermission(address _address) public returns(bool success) {\r... */\n      swap2\n      swap1\n      pop\n      jump\t// out\n        /* \"contracts/ddddd.sol\":1314:2388  function userRegistration(address _user, string _uaeId, string _name, string _phone, string _gender, string _dob, string _addr, string _email, string _nomineeName, string _nomineeContact) public {\r... */\n    tag_71:\n        /* \"contracts/ddddd.sol\":1597:1602  var u */\n      0x0\n        /* \"contracts/ddddd.sol\":2131:2148  string[] userData */\n      dup1\n        /* \"contracts/ddddd.sol\":1542:1551  mohAdress */\n      0xb\n      0x0\n      swap1\n      sload\n      swap1\n      0x100\n      exp\n      swap1\n      div\n      0xffffffffffffffffffffffffffffffffffffffff\n      and\n        /* \"contracts/ddddd.sol\":1528:1551  msg.sender == mohAdress */\n      0xffffffffffffffffffffffffffffffffffffffff\n      and\n        /* \"contracts/ddddd.sol\":1528:1538  msg.sender */\n      caller\n        /* \"contracts/ddddd.sol\":1528:1551  msg.sender == mohAdress */\n      0xffffffffffffffffffffffffffffffffffffffff\n      and\n      eq\n        /* \"contracts/ddddd.sol\":1520:1552  require(msg.sender == mohAdress) */\n      iszero\n      iszero\n      tag_162\n      jumpi\n      0x0\n      dup1\n      revert\n    tag_162:\n        /* \"contracts/ddddd.sol\":1572:1578  isUser */\n      0x6\n        /* \"contracts/ddddd.sol\":1572:1585  isUser[_user] */\n      0x0\n        /* \"contracts/ddddd.sol\":1579:1584  _user */\n      dup14\n        /* \"contracts/ddddd.sol\":1572:1585  isUser[_user] */\n      0xffffffffffffffffffffffffffffffffffffffff\n      and\n      0xffffffffffffffffffffffffffffffffffffffff\n      and\n      dup2\n      mstore\n      0x20\n      add\n      swap1\n      dup2\n      mstore\n      0x20\n      add\n      0x0\n      keccak256\n      0x0\n      swap1\n      sload\n      swap1\n      0x100\n      exp\n      swap1\n      div\n      0xff\n      and\n        /* \"contracts/ddddd.sol\":1571:1585  !isUser[_user] */\n      iszero\n        /* \"contracts/ddddd.sol\":1563:1586  require(!isUser[_user]) */\n      iszero\n      iszero\n      tag_163\n      jumpi\n      0x0\n      dup1\n      revert\n    tag_163:\n        /* \"contracts/ddddd.sol\":1605:1609  user */\n      0x3\n        /* \"contracts/ddddd.sol\":1605:1616  user[_user] */\n      0x0\n        /* \"contracts/ddddd.sol\":1610:1615  _user */\n      dup14\n        /* \"contracts/ddddd.sol\":1605:1616  user[_user] */\n      0xffffffffffffffffffffffffffffffffffffffff\n      and\n      0xffffffffffffffffffffffffffffffffffffffff\n      and\n      dup2\n      mstore\n      0x20\n      add\n      swap1\n      dup2\n      mstore\n      0x20\n      add\n      0x0\n      keccak256\n        /* \"contracts/ddddd.sol\":1597:1616  var u = user[_user] */\n      swap2\n      pop\n        /* \"contracts/ddddd.sol\":1647:1653  _uaeId */\n      dup11\n        /* \"contracts/ddddd.sol\":1637:1638  u */\n      dup3\n        /* \"contracts/ddddd.sol\":1637:1644  u.uaeId */\n      0x0\n      add\n        /* \"contracts/ddddd.sol\":1637:1653  u.uaeId = _uaeId */\n      swap1\n      dup1\n      mload\n      swap1\n      0x20\n      add\n      swap1\n      tag_164\n      swap3\n      swap2\n      swap1\n      jump\t// in(tag_152)\n    tag_164:\n      pop\n        /* \"contracts/ddddd.sol\":1673:1678  _name */\n      dup10\n        /* \"contracts/ddddd.sol\":1664:1665  u */\n      dup3\n        /* \"contracts/ddddd.sol\":1664:1670  u.name */\n      0x1\n      add\n        /* \"contracts/ddddd.sol\":1664:1678  u.name = _name */\n      swap1\n      dup1\n      mload\n      swap1\n      0x20\n      add\n      swap1\n      tag_165\n      swap3\n      swap2\n      swap1\n      jump\t// in(tag_152)\n    tag_165:\n      pop\n        /* \"contracts/ddddd.sol\":1699:1705  _phone */\n      dup9\n        /* \"contracts/ddddd.sol\":1689:1690  u */\n      dup3\n        /* \"contracts/ddddd.sol\":1689:1696  u.phone */\n      0x2\n      add\n        /* \"contracts/ddddd.sol\":1689:1705  u.phone = _phone */\n      swap1\n      dup1\n      mload\n      swap1\n      0x20\n      add\n      swap1\n      tag_166\n      swap3\n      swap2\n      swap1\n      jump\t// in(tag_152)\n    tag_166:\n      pop\n        /* \"contracts/ddddd.sol\":1727:1734  _gender */\n      dup8\n        /* \"contracts/ddddd.sol\":1716:1717  u */\n      dup3\n        /* \"contracts/ddddd.sol\":1716:1724  u.gender */\n      0x3\n      add\n        /* \"contracts/ddddd.sol\":1716:1734  u.gender = _gender */\n      swap1\n      dup1\n      mload\n      swap1\n      0x20\n      add\n      swap1\n      tag_167\n      swap3\n      swap2\n      swap1\n      jump\t// in(tag_152)\n    tag_167:\n      pop\n        /* \"contracts/ddddd.sol\":1753:1757  _dob */\n      dup7\n        /* \"contracts/ddddd.sol\":1745:1746  u */\n      dup3\n        /* \"contracts/ddddd.sol\":1745:1750  u.dob */\n      0x4\n      add\n        /* \"contracts/ddddd.sol\":1745:1757  u.dob = _dob */\n      swap1\n      dup1\n      mload\n      swap1\n      0x20\n      add\n      swap1\n      tag_168\n      swap3\n      swap2\n      swap1\n      jump\t// in(tag_152)\n    tag_168:\n      pop\n        /* \"contracts/ddddd.sol\":1777:1782  _addr */\n      dup6\n        /* \"contracts/ddddd.sol\":1768:1769  u */\n      dup3\n        /* \"contracts/ddddd.sol\":1768:1774  u.addr */\n      0x5\n      add\n        /* \"contracts/ddddd.sol\":1768:1782  u.addr = _addr */\n      swap1\n      dup1\n      mload\n      swap1\n      0x20\n      add\n      swap1\n      tag_169\n      swap3\n      swap2\n      swap1\n      jump\t// in(tag_152)\n    tag_169:\n      pop\n        /* \"contracts/ddddd.sol\":1803:1809  _email */\n      dup5\n        /* \"contracts/ddddd.sol\":1793:1794  u */\n      dup3\n        /* \"contracts/ddddd.sol\":1793:1800  u.email */\n      0x6\n      add\n        /* \"contracts/ddddd.sol\":1793:1809  u.email = _email */\n      swap1\n      dup1\n      mload\n      swap1\n      0x20\n      add\n      swap1\n      tag_170\n      swap3\n      swap2\n      swap1\n      jump\t// in(tag_152)\n    tag_170:\n      pop\n        /* \"contracts/ddddd.sol\":1836:1848  _nomineeName */\n      dup4\n        /* \"contracts/ddddd.sol\":1820:1821  u */\n      dup3\n        /* \"contracts/ddddd.sol\":1820:1833  u.nomineeName */\n      0x7\n      add\n        /* \"contracts/ddddd.sol\":1820:1848  u.nomineeName = _nomineeName */\n      swap1\n      dup1\n      mload\n      swap1\n      0x20\n      add\n      swap1\n      tag_171\n      swap3\n      swap2\n      swap1\n      jump\t// in(tag_152)\n    tag_171:\n      pop\n        /* \"contracts/ddddd.sol\":1878:1893  _nomineeContact */\n      dup3\n        /* \"contracts/ddddd.sol\":1859:1860  u */\n      dup3\n        /* \"contracts/ddddd.sol\":1859:1875  u.nomineeContact */\n      0x8\n      add\n        /* \"contracts/ddddd.sol\":1859:1893  u.nomineeContact = _nomineeContact */\n      swap1\n      dup1\n      mload\n      swap1\n      0x20\n      add\n      swap1\n      tag_172\n      swap3\n      swap2\n      swap1\n      jump\t// in(tag_152)\n    tag_172:\n      pop\n        /* \"contracts/ddddd.sol\":1917:1927  msg.sender */\n      caller\n        /* \"contracts/ddddd.sol\":1904:1905  u */\n      dup3\n        /* \"contracts/ddddd.sol\":1904:1914  u.eAddress */\n      0x9\n      add\n      0x0\n        /* \"contracts/ddddd.sol\":1904:1927  u.eAddress = msg.sender */\n      0x100\n      exp\n      dup2\n      sload\n      dup2\n      0xffffffffffffffffffffffffffffffffffffffff\n      mul\n      not\n      and\n      swap1\n      dup4\n      0xffffffffffffffffffffffffffffffffffffffff\n      and\n      mul\n      or\n      swap1\n      sstore\n      pop\n        /* \"contracts/ddddd.sol\":1947:1962  block.timestamp */\n      timestamp\n        /* \"contracts/ddddd.sol\":1938:1939  u */\n      dup3\n        /* \"contracts/ddddd.sol\":1938:1944  u.date */\n      0xa\n      add\n        /* \"contracts/ddddd.sol\":1938:1962  u.date = block.timestamp */\n      dup2\n      swap1\n      sstore\n      pop\n        /* \"contracts/ddddd.sol\":1983:1991  userList */\n      0x1\n        /* \"contracts/ddddd.sol\":1997:2007  msg.sender */\n      caller\n        /* \"contracts/ddddd.sol\":1983:2008  userList.push(msg.sender) */\n      swap1\n      dup1\n        /* \"--CODEGEN--\":39:40   */\n      0x1\n        /* \"--CODEGEN--\":33:36   */\n      dup2\n        /* \"--CODEGEN--\":27:37   */\n      sload\n        /* \"--CODEGEN--\":23:41   */\n      add\n        /* \"--CODEGEN--\":57:67   */\n      dup1\n        /* \"--CODEGEN--\":52:55   */\n      dup3\n        /* \"--CODEGEN--\":45:68   */\n      sstore\n        /* \"--CODEGEN--\":79:89   */\n      dup1\n        /* \"--CODEGEN--\":72:89   */\n      swap2\n      pop\n        /* \"--CODEGEN--\":0:93   */\n      pop\n        /* \"contracts/ddddd.sol\":1983:2008  userList.push(msg.sender) */\n      swap1\n      0x1\n      dup3\n      sub\n      swap1\n      0x0\n      mstore\n      keccak256(0x0, 0x20)\n      add\n      0x0\n      swap1\n      swap2\n      swap3\n      swap1\n      swap2\n      swap1\n      swap2\n      0x100\n      exp\n      dup2\n      sload\n      dup2\n      0xffffffffffffffffffffffffffffffffffffffff\n      mul\n      not\n      and\n      swap1\n      dup4\n      0xffffffffffffffffffffffffffffffffffffffff\n      and\n      mul\n      or\n      swap1\n      sstore\n      pop\n      pop\n        /* \"contracts/ddddd.sol\":2040:2044  true */\n      0x1\n        /* \"contracts/ddddd.sol\":2019:2025  isUser */\n      0x6\n        /* \"contracts/ddddd.sol\":2019:2037  isUser[msg.sender] */\n      0x0\n        /* \"contracts/ddddd.sol\":2026:2036  msg.sender */\n      caller\n        /* \"contracts/ddddd.sol\":2019:2037  isUser[msg.sender] */\n      0xffffffffffffffffffffffffffffffffffffffff\n      and\n      0xffffffffffffffffffffffffffffffffffffffff\n      and\n      dup2\n      mstore\n      0x20\n      add\n      swap1\n      dup2\n      mstore\n      0x20\n      add\n      0x0\n      keccak256\n      0x0\n        /* \"contracts/ddddd.sol\":2019:2044  isUser[msg.sender] = true */\n      0x100\n      exp\n      dup2\n      sload\n      dup2\n      0xff\n      mul\n      not\n      and\n      swap1\n      dup4\n      iszero\n      iszero\n      mul\n      or\n      swap1\n      sstore\n      pop\n        /* \"contracts/ddddd.sol\":2092:2096  true */\n      0x1\n        /* \"contracts/ddddd.sol\":2055:2065  isApproved */\n      0x5\n        /* \"contracts/ddddd.sol\":2055:2077  isApproved[msg.sender] */\n      0x0\n        /* \"contracts/ddddd.sol\":2066:2076  msg.sender */\n      caller\n        /* \"contracts/ddddd.sol\":2055:2077  isApproved[msg.sender] */\n      0xffffffffffffffffffffffffffffffffffffffff\n      and\n      0xffffffffffffffffffffffffffffffffffffffff\n      and\n      dup2\n      mstore\n      0x20\n      add\n      swap1\n      dup2\n      mstore\n      0x20\n      add\n      0x0\n      keccak256\n        /* \"contracts/ddddd.sol\":2055:2089  isApproved[msg.sender][msg.sender] */\n      0x0\n        /* \"contracts/ddddd.sol\":2078:2088  msg.sender */\n      caller\n        /* \"contracts/ddddd.sol\":2055:2089  isApproved[msg.sender][msg.sender] */\n      0xffffffffffffffffffffffffffffffffffffffff\n      and\n      0xffffffffffffffffffffffffffffffffffffffff\n      and\n      dup2\n      mstore\n      0x20\n      add\n      swap1\n      dup2\n      mstore\n      0x20\n      add\n      0x0\n      keccak256\n      0x0\n        /* \"contracts/ddddd.sol\":2055:2096  isApproved[msg.sender][msg.sender] = true */\n      0x100\n      exp\n      dup2\n      sload\n      dup2\n      0xff\n      mul\n      not\n      and\n      swap1\n      dup4\n      iszero\n      iszero\n      mul\n      or\n      swap1\n      sstore\n      pop\n        /* \"contracts/ddddd.sol\":2107:2116  userCount */\n      0x8\n      0x0\n        /* \"contracts/ddddd.sol\":2107:2118  userCount++ */\n      dup2\n      sload\n      dup1\n      swap3\n      swap2\n      swap1\n      0x1\n      add\n      swap2\n      swap1\n      pop\n      sstore\n      pop\n        /* \"contracts/ddddd.sol\":2161:2169  userData */\n      dup1\n        /* \"contracts/ddddd.sol\":2175:2176  u */\n      dup3\n        /* \"contracts/ddddd.sol\":2175:2182  u.uaeId */\n      0x0\n      add\n        /* \"contracts/ddddd.sol\":2161:2183  userData.push(u.uaeId) */\n      swap1\n      dup1\n        /* \"--CODEGEN--\":39:40   */\n      0x1\n        /* \"--CODEGEN--\":33:36   */\n      dup2\n        /* \"--CODEGEN--\":27:37   */\n      sload\n        /* \"--CODEGEN--\":23:41   */\n      add\n        /* \"--CODEGEN--\":57:67   */\n      dup1\n        /* \"--CODEGEN--\":52:55   */\n      dup3\n        /* \"--CODEGEN--\":45:68   */\n      sstore\n        /* \"--CODEGEN--\":79:89   */\n      dup1\n        /* \"--CODEGEN--\":72:89   */\n      swap2\n      pop\n        /* \"--CODEGEN--\":0:93   */\n      pop\n        /* \"contracts/ddddd.sol\":2161:2183  userData.push(u.uaeId) */\n      swap1\n      0x1\n      dup3\n      sub\n      swap1\n      0x0\n      mstore\n      keccak256(0x0, 0x20)\n      add\n      0x0\n      swap1\n      swap2\n      swap3\n      swap1\n      swap2\n      swap1\n      swap2\n      pop\n      swap1\n      dup1\n      sload\n      0x1\n      dup2\n      0x1\n      and\n      iszero\n      0x100\n      mul\n      sub\n      and\n      0x2\n      swap1\n      div\n      tag_175\n      swap3\n      swap2\n      swap1\n      jump\t// in(tag_176)\n    tag_175:\n      pop\n      pop\n        /* \"contracts/ddddd.sol\":2194:2202  userData */\n      dup1\n        /* \"contracts/ddddd.sol\":2208:2209  u */\n      dup3\n        /* \"contracts/ddddd.sol\":2208:2214  u.name */\n      0x1\n      add\n        /* \"contracts/ddddd.sol\":2194:2215  userData.push(u.name) */\n      swap1\n      dup1\n        /* \"--CODEGEN--\":39:40   */\n      0x1\n        /* \"--CODEGEN--\":33:36   */\n      dup2\n        /* \"--CODEGEN--\":27:37   */\n      sload\n        /* \"--CODEGEN--\":23:41   */\n      add\n        /* \"--CODEGEN--\":57:67   */\n      dup1\n        /* \"--CODEGEN--\":52:55   */\n      dup3\n        /* \"--CODEGEN--\":45:68   */\n      sstore\n        /* \"--CODEGEN--\":79:89   */\n      dup1\n        /* \"--CODEGEN--\":72:89   */\n      swap2\n      pop\n        /* \"--CODEGEN--\":0:93   */\n      pop\n        /* \"contracts/ddddd.sol\":2194:2215  userData.push(u.name) */\n      swap1\n      0x1\n      dup3\n      sub\n      swap1\n      0x0\n      mstore\n      keccak256(0x0, 0x20)\n      add\n      0x0\n      swap1\n      swap2\n      swap3\n      swap1\n      swap2\n      swap1\n      swap2\n      pop\n      swap1\n      dup1\n      sload\n      0x1\n      dup2\n      0x1\n      and\n      iszero\n      0x100\n      mul\n      sub\n      and\n      0x2\n      swap1\n      div\n      tag_178\n      swap3\n      swap2\n      swap1\n      jump\t// in(tag_176)\n    tag_178:\n      pop\n      pop\n        /* \"contracts/ddddd.sol\":2226:2234  userData */\n      dup1\n        /* \"contracts/ddddd.sol\":2240:2241  u */\n      dup3\n        /* \"contracts/ddddd.sol\":2240:2247  u.phone */\n      0x2\n      add\n        /* \"contracts/ddddd.sol\":2226:2248  userData.push(u.phone) */\n      swap1\n      dup1\n        /* \"--CODEGEN--\":39:40   */\n      0x1\n        /* \"--CODEGEN--\":33:36   */\n      dup2\n        /* \"--CODEGEN--\":27:37   */\n      sload\n        /* \"--CODEGEN--\":23:41   */\n      add\n        /* \"--CODEGEN--\":57:67   */\n      dup1\n        /* \"--CODEGEN--\":52:55   */\n      dup3\n        /* \"--CODEGEN--\":45:68   */\n      sstore\n        /* \"--CODEGEN--\":79:89   */\n      dup1\n        /* \"--CODEGEN--\":72:89   */\n      swap2\n      pop\n        /* \"--CODEGEN--\":0:93   */\n      pop\n        /* \"contracts/ddddd.sol\":2226:2248  userData.push(u.phone) */\n      swap1\n      0x1\n      dup3\n      sub\n      swap1\n      0x0\n      mstore\n      keccak256(0x0, 0x20)\n      add\n      0x0\n      swap1\n      swap2\n      swap3\n      swap1\n      swap2\n      swap1\n      swap2\n      pop\n      swap1\n      dup1\n      sload\n      0x1\n      dup2\n      0x1\n      and\n      iszero\n      0x100\n      mul\n      sub\n      and\n      0x2\n      swap1\n      div\n      tag_180\n      swap3\n      swap2\n      swap1\n      jump\t// in(tag_176)\n    tag_180:\n      pop\n      pop\n        /* \"contracts/ddddd.sol\":2259:2267  userData */\n      dup1\n        /* \"contracts/ddddd.sol\":2273:2274  u */\n      dup3\n        /* \"contracts/ddddd.sol\":2273:2281  u.gender */\n      0x3\n      add\n        /* \"contracts/ddddd.sol\":2259:2282  userData.push(u.gender) */\n      swap1\n      dup1\n        /* \"--CODEGEN--\":39:40   */\n      0x1\n        /* \"--CODEGEN--\":33:36   */\n      dup2\n        /* \"--CODEGEN--\":27:37   */\n      sload\n        /* \"--CODEGEN--\":23:41   */\n      add\n        /* \"--CODEGEN--\":57:67   */\n      dup1\n        /* \"--CODEGEN--\":52:55   */\n      dup3\n        /* \"--CODEGEN--\":45:68   */\n      sstore\n        /* \"--CODEGEN--\":79:89   */\n      dup1\n        /* \"--CODEGEN--\":72:89   */\n      swap2\n      pop\n        /* \"--CODEGEN--\":0:93   */\n      pop\n        /* \"contracts/ddddd.sol\":2259:2282  userData.push(u.gender) */\n      swap1\n      0x1\n      dup3\n      sub\n      swap1\n      0x0\n      mstore\n      keccak256(0x0, 0x20)\n      add\n      0x0\n      swap1\n      swap2\n      swap3\n      swap1\n      swap2\n      swap1\n      swap2\n      pop\n      swap1\n      dup1\n      sload\n      0x1\n      dup2\n      0x1\n      and\n      iszero\n      0x100\n      mul\n      sub\n      and\n      0x2\n      swap1\n      div\n      tag_182\n      swap3\n      swap2\n      swap1\n      jump\t// in(tag_176)\n    tag_182:\n      pop\n      pop\n        /* \"contracts/ddddd.sol\":2293:2301  userData */\n      dup1\n        /* \"contracts/ddddd.sol\":2307:2308  u */\n      dup3\n        /* \"contracts/ddddd.sol\":2307:2312  u.dob */\n      0x4\n      add\n        /* \"contracts/ddddd.sol\":2293:2313  userData.push(u.dob) */\n      swap1\n      dup1\n        /* \"--CODEGEN--\":39:40   */\n      0x1\n        /* \"--CODEGEN--\":33:36   */\n      dup2\n        /* \"--CODEGEN--\":27:37   */\n      sload\n        /* \"--CODEGEN--\":23:41   */\n      add\n        /* \"--CODEGEN--\":57:67   */\n      dup1\n        /* \"--CODEGEN--\":52:55   */\n      dup3\n        /* \"--CODEGEN--\":45:68   */\n      sstore\n        /* \"--CODEGEN--\":79:89   */\n      dup1\n        /* \"--CODEGEN--\":72:89   */\n      swap2\n      pop\n        /* \"--CODEGEN--\":0:93   */\n      pop\n        /* \"contracts/ddddd.sol\":2293:2313  userData.push(u.dob) */\n      swap1\n      0x1\n      dup3\n      sub\n      swap1\n      0x0\n      mstore\n      keccak256(0x0, 0x20)\n      add\n      0x0\n      swap1\n      swap2\n      swap3\n      swap1\n      swap2\n      swap1\n      swap2\n      pop\n      swap1\n      dup1\n      sload\n      0x1\n      dup2\n      0x1\n      and\n      iszero\n      0x100\n      mul\n      sub\n      and\n      0x2\n      swap1\n      div\n      tag_184\n      swap3\n      swap2\n      swap1\n      jump\t// in(tag_176)\n    tag_184:\n      pop\n      pop\n        /* \"contracts/ddddd.sol\":2324:2332  userData */\n      dup1\n        /* \"contracts/ddddd.sol\":2338:2339  u */\n      dup3\n        /* \"contracts/ddddd.sol\":2338:2344  u.addr */\n      0x5\n      add\n        /* \"contracts/ddddd.sol\":2324:2345  userData.push(u.addr) */\n      swap1\n      dup1\n        /* \"--CODEGEN--\":39:40   */\n      0x1\n        /* \"--CODEGEN--\":33:36   */\n      dup2\n        /* \"--CODEGEN--\":27:37   */\n      sload\n        /* \"--CODEGEN--\":23:41   */\n      add\n        /* \"--CODEGEN--\":57:67   */\n      dup1\n        /* \"--CODEGEN--\":52:55   */\n      dup3\n        /* \"--CODEGEN--\":45:68   */\n      sstore\n        /* \"--CODEGEN--\":79:89   */\n      dup1\n        /* \"--CODEGEN--\":72:89   */\n      swap2\n      pop\n        /* \"--CODEGEN--\":0:93   */\n      pop\n        /* \"contracts/ddddd.sol\":2324:2345  userData.push(u.addr) */\n      swap1\n      0x1\n      dup3\n      sub\n      swap1\n      0x0\n      mstore\n      keccak256(0x0, 0x20)\n      add\n      0x0\n      swap1\n      swap2\n      swap3\n      swap1\n      swap2\n      swap1\n      swap2\n      pop\n      swap1\n      dup1\n      sload\n      0x1\n      dup2\n      0x1\n      and\n      iszero\n      0x100\n      mul\n      sub\n      and\n      0x2\n      swap1\n      div\n      tag_186\n      swap3\n      swap2\n      swap1\n      jump\t// in(tag_176)\n    tag_186:\n      pop\n      pop\n        /* \"contracts/ddddd.sol\":2356:2364  userData */\n      dup1\n        /* \"contracts/ddddd.sol\":2370:2371  u */\n      dup3\n        /* \"contracts/ddddd.sol\":2370:2377  u.email */\n      0x6\n      add\n        /* \"contracts/ddddd.sol\":2356:2378  userData.push(u.email) */\n      swap1\n      dup1\n        /* \"--CODEGEN--\":39:40   */\n      0x1\n        /* \"--CODEGEN--\":33:36   */\n      dup2\n        /* \"--CODEGEN--\":27:37   */\n      sload\n        /* \"--CODEGEN--\":23:41   */\n      add\n        /* \"--CODEGEN--\":57:67   */\n      dup1\n        /* \"--CODEGEN--\":52:55   */\n      dup3\n        /* \"--CODEGEN--\":45:68   */\n      sstore\n        /* \"--CODEGEN--\":79:89   */\n      dup1\n        /* \"--CODEGEN--\":72:89   */\n      swap2\n      pop\n        /* \"--CODEGEN--\":0:93   */\n      pop\n        /* \"contracts/ddddd.sol\":2356:2378  userData.push(u.email) */\n      swap1\n      0x1\n      dup3\n      sub\n      swap1\n      0x0\n      mstore\n      keccak256(0x0, 0x20)\n      add\n      0x0\n      swap1\n      swap2\n      swap3\n      swap1\n      swap2\n      swap1\n      swap2\n      pop\n      swap1\n      dup1\n      sload\n      0x1\n      dup2\n      0x1\n      and\n      iszero\n      0x100\n      mul\n      sub\n      and\n      0x2\n      swap1\n      div\n      tag_188\n      swap3\n      swap2\n      swap1\n      jump\t// in(tag_176)\n    tag_188:\n      pop\n      pop\n        /* \"contracts/ddddd.sol\":1314:2388  function userRegistration(address _user, string _uaeId, string _name, string _phone, string _gender, string _dob, string _addr, string _email, string _nomineeName, string _nomineeContact) public {\r... */\n      pop\n      pop\n      pop\n      pop\n      pop\n      pop\n      pop\n      pop\n      pop\n      pop\n      pop\n      pop\n      jump\t// out\n        /* \"contracts/ddddd.sol\":2412:2988  function editUser(address _user, string _uaeId, string _name, string _phone, string _gender, string _dob, string _addr, string _email, string _nomineeName, string _nomineeContact) public {\r... */\n    tag_75:\n        /* \"contracts/ddddd.sol\":2653:2658  var u */\n      0x0\n        /* \"contracts/ddddd.sol\":2632:2641  mohAdress */\n      0xb\n      0x0\n      swap1\n      sload\n      swap1\n      0x100\n      exp\n      swap1\n      div\n      0xffffffffffffffffffffffffffffffffffffffff\n      and\n        /* \"contracts/ddddd.sol\":2618:2641  msg.sender == mohAdress */\n      0xffffffffffffffffffffffffffffffffffffffff\n      and\n        /* \"contracts/ddddd.sol\":2618:2628  msg.sender */\n      caller\n        /* \"contracts/ddddd.sol\":2618:2641  msg.sender == mohAdress */\n      0xffffffffffffffffffffffffffffffffffffffff\n      and\n      eq\n        /* \"contracts/ddddd.sol\":2610:2642  require(msg.sender == mohAdress) */\n      iszero\n      iszero\n      tag_190\n      jumpi\n      0x0\n      dup1\n      revert\n    tag_190:\n        /* \"contracts/ddddd.sol\":2661:2665  user */\n      0x3\n        /* \"contracts/ddddd.sol\":2661:2672  user[_user] */\n      0x0\n        /* \"contracts/ddddd.sol\":2666:2671  _user */\n      dup13\n        /* \"contracts/ddddd.sol\":2661:2672  user[_user] */\n      0xffffffffffffffffffffffffffffffffffffffff\n      and\n      0xffffffffffffffffffffffffffffffffffffffff\n      and\n      dup2\n      mstore\n      0x20\n      add\n      swap1\n      dup2\n      mstore\n      0x20\n      add\n      0x0\n      keccak256\n        /* \"contracts/ddddd.sol\":2653:2672  var u = user[_user] */\n      swap1\n      pop\n        /* \"contracts/ddddd.sol\":2703:2709  _uaeId */\n      dup10\n        /* \"contracts/ddddd.sol\":2693:2694  u */\n      dup2\n        /* \"contracts/ddddd.sol\":2693:2700  u.uaeId */\n      0x0\n      add\n        /* \"contracts/ddddd.sol\":2693:2709  u.uaeId = _uaeId */\n      swap1\n      dup1\n      mload\n      swap1\n      0x20\n      add\n      swap1\n      tag_191\n      swap3\n      swap2\n      swap1\n      jump\t// in(tag_152)\n    tag_191:\n      pop\n        /* \"contracts/ddddd.sol\":2729:2734  _name */\n      dup9\n        /* \"contracts/ddddd.sol\":2720:2721  u */\n      dup2\n        /* \"contracts/ddddd.sol\":2720:2726  u.name */\n      0x1\n      add\n        /* \"contracts/ddddd.sol\":2720:2734  u.name = _name */\n      swap1\n      dup1\n      mload\n      swap1\n      0x20\n      add\n      swap1\n      tag_192\n      swap3\n      swap2\n      swap1\n      jump\t// in(tag_152)\n    tag_192:\n      pop\n        /* \"contracts/ddddd.sol\":2755:2761  _phone */\n      dup8\n        /* \"contracts/ddddd.sol\":2745:2746  u */\n      dup2\n        /* \"contracts/ddddd.sol\":2745:2752  u.phone */\n      0x2\n      add\n        /* \"contracts/ddddd.sol\":2745:2761  u.phone = _phone */\n      swap1\n      dup1\n      mload\n      swap1\n      0x20\n      add\n      swap1\n      tag_193\n      swap3\n      swap2\n      swap1\n      jump\t// in(tag_152)\n    tag_193:\n      pop\n        /* \"contracts/ddddd.sol\":2783:2790  _gender */\n      dup7\n        /* \"contracts/ddddd.sol\":2772:2773  u */\n      dup2\n        /* \"contracts/ddddd.sol\":2772:2780  u.gender */\n      0x3\n      add\n        /* \"contracts/ddddd.sol\":2772:2790  u.gender = _gender */\n      swap1\n      dup1\n      mload\n      swap1\n      0x20\n      add\n      swap1\n      tag_194\n      swap3\n      swap2\n      swap1\n      jump\t// in(tag_152)\n    tag_194:\n      pop\n        /* \"contracts/ddddd.sol\":2809:2813  _dob */\n      dup6\n        /* \"contracts/ddddd.sol\":2801:2802  u */\n      dup2\n        /* \"contracts/ddddd.sol\":2801:2806  u.dob */\n      0x4\n      add\n        /* \"contracts/ddddd.sol\":2801:2813  u.dob = _dob */\n      swap1\n      dup1\n      mload\n      swap1\n      0x20\n      add\n      swap1\n      tag_195\n      swap3\n      swap2\n      swap1\n      jump\t// in(tag_152)\n    tag_195:\n      pop\n        /* \"contracts/ddddd.sol\":2833:2838  _addr */\n      dup5\n        /* \"contracts/ddddd.sol\":2824:2825  u */\n      dup2\n        /* \"contracts/ddddd.sol\":2824:2830  u.addr */\n      0x5\n      add\n        /* \"contracts/ddddd.sol\":2824:2838  u.addr = _addr */\n      swap1\n      dup1\n      mload\n      swap1\n      0x20\n      add\n      swap1\n      tag_196\n      swap3\n      swap2\n      swap1\n      jump\t// in(tag_152)\n    tag_196:\n      pop\n        /* \"contracts/ddddd.sol\":2859:2865  _email */\n      dup4\n        /* \"contracts/ddddd.sol\":2849:2850  u */\n      dup2\n        /* \"contracts/ddddd.sol\":2849:2856  u.email */\n      0x6\n      add\n        /* \"contracts/ddddd.sol\":2849:2865  u.email = _email */\n      swap1\n      dup1\n      mload\n      swap1\n      0x20\n      add\n      swap1\n      tag_197\n      swap3\n      swap2\n      swap1\n      jump\t// in(tag_152)\n    tag_197:\n      pop\n        /* \"contracts/ddddd.sol\":2892:2904  _nomineeName */\n      dup3\n        /* \"contracts/ddddd.sol\":2876:2877  u */\n      dup2\n        /* \"contracts/ddddd.sol\":2876:2889  u.nomineeName */\n      0x7\n      add\n        /* \"contracts/ddddd.sol\":2876:2904  u.nomineeName = _nomineeName */\n      swap1\n      dup1\n      mload\n      swap1\n      0x20\n      add\n      swap1\n      tag_198\n      swap3\n      swap2\n      swap1\n      jump\t// in(tag_152)\n    tag_198:\n      pop\n        /* \"contracts/ddddd.sol\":2934:2949  _nomineeContact */\n      dup2\n        /* \"contracts/ddddd.sol\":2915:2916  u */\n      dup2\n        /* \"contracts/ddddd.sol\":2915:2931  u.nomineeContact */\n      0x8\n      add\n        /* \"contracts/ddddd.sol\":2915:2949  u.nomineeContact = _nomineeContact */\n      swap1\n      dup1\n      mload\n      swap1\n      0x20\n      add\n      swap1\n      tag_199\n      swap3\n      swap2\n      swap1\n      jump\t// in(tag_152)\n    tag_199:\n      pop\n        /* \"contracts/ddddd.sol\":2973:2978  _user */\n      dup11\n        /* \"contracts/ddddd.sol\":2960:2961  u */\n      dup2\n        /* \"contracts/ddddd.sol\":2960:2970  u.eAddress */\n      0x9\n      add\n      0x0\n        /* \"contracts/ddddd.sol\":2960:2978  u.eAddress = _user */\n      0x100\n      exp\n      dup2\n      sload\n      dup2\n      0xffffffffffffffffffffffffffffffffffffffff\n      mul\n      not\n      and\n      swap1\n      dup4\n      0xffffffffffffffffffffffffffffffffffffffff\n      and\n      mul\n      or\n      swap1\n      sstore\n      pop\n        /* \"contracts/ddddd.sol\":2412:2988  function editUser(address _user, string _uaeId, string _name, string _phone, string _gender, string _dob, string _addr, string _email, string _nomineeName, string _nomineeContact) public {\r... */\n      pop\n      pop\n      pop\n      pop\n      pop\n      pop\n      pop\n      pop\n      pop\n      pop\n      pop\n      jump\t// out\n        /* \"contracts/ddddd.sol\":1072:1102  uint256 public doctorCount = 0 */\n    tag_78:\n      sload(0x9)\n      dup2\n      jump\t// out\n        /* \"contracts/ddddd.sol\":5723:5815  function getDoctorCount() public view returns(uint256) {\r... */\n    tag_82:\n        /* \"contracts/ddddd.sol\":5769:5776  uint256 */\n      0x0\n        /* \"contracts/ddddd.sol\":5796:5807  doctorCount */\n      sload(0x9)\n        /* \"contracts/ddddd.sol\":5789:5807  return doctorCount */\n      swap1\n      pop\n        /* \"contracts/ddddd.sol\":5723:5815  function getDoctorCount() public view returns(uint256) {\r... */\n      swap1\n      jump\t// out\n        /* \"contracts/ddddd.sol\":2996:3609  function setDoctor(string _uaeId, string _name, string _phone, string _gender, string _dob, string _qualification, string _major) public {\r... */\n    tag_88:\n        /* \"contracts/ddddd.sol\":3185:3190  var d */\n      0x0\n        /* \"contracts/ddddd.sol\":3153:3161  isDoctor */\n      0x7\n        /* \"contracts/ddddd.sol\":3153:3173  isDoctor[msg.sender] */\n      0x0\n        /* \"contracts/ddddd.sol\":3162:3172  msg.sender */\n      caller\n        /* \"contracts/ddddd.sol\":3153:3173  isDoctor[msg.sender] */\n      0xffffffffffffffffffffffffffffffffffffffff\n      and\n      0xffffffffffffffffffffffffffffffffffffffff\n      and\n      dup2\n      mstore\n      0x20\n      add\n      swap1\n      dup2\n      mstore\n      0x20\n      add\n      0x0\n      keccak256\n      0x0\n      swap1\n      sload\n      swap1\n      0x100\n      exp\n      swap1\n      div\n      0xff\n      and\n        /* \"contracts/ddddd.sol\":3152:3173  !isDoctor[msg.sender] */\n      iszero\n        /* \"contracts/ddddd.sol\":3144:3174  require(!isDoctor[msg.sender]) */\n      iszero\n      iszero\n      tag_202\n      jumpi\n      0x0\n      dup1\n      revert\n    tag_202:\n        /* \"contracts/ddddd.sol\":3193:3199  doctor */\n      0x4\n        /* \"contracts/ddddd.sol\":3193:3211  doctor[msg.sender] */\n      0x0\n        /* \"contracts/ddddd.sol\":3200:3210  msg.sender */\n      caller\n        /* \"contracts/ddddd.sol\":3193:3211  doctor[msg.sender] */\n      0xffffffffffffffffffffffffffffffffffffffff\n      and\n      0xffffffffffffffffffffffffffffffffffffffff\n      and\n      dup2\n      mstore\n      0x20\n      add\n      swap1\n      dup2\n      mstore\n      0x20\n      add\n      0x0\n      keccak256\n        /* \"contracts/ddddd.sol\":3185:3211  var d = doctor[msg.sender] */\n      swap1\n      pop\n        /* \"contracts/ddddd.sol\":3242:3248  _uaeId */\n      dup8\n        /* \"contracts/ddddd.sol\":3232:3233  d */\n      dup2\n        /* \"contracts/ddddd.sol\":3232:3239  d.uaeId */\n      0x0\n      add\n        /* \"contracts/ddddd.sol\":3232:3248  d.uaeId = _uaeId */\n      swap1\n      dup1\n      mload\n      swap1\n      0x20\n      add\n      swap1\n      tag_203\n      swap3\n      swap2\n      swap1\n      jump\t// in(tag_152)\n    tag_203:\n      pop\n        /* \"contracts/ddddd.sol\":3268:3273  _name */\n      dup7\n        /* \"contracts/ddddd.sol\":3259:3260  d */\n      dup2\n        /* \"contracts/ddddd.sol\":3259:3265  d.name */\n      0x1\n      add\n        /* \"contracts/ddddd.sol\":3259:3273  d.name = _name */\n      swap1\n      dup1\n      mload\n      swap1\n      0x20\n      add\n      swap1\n      tag_204\n      swap3\n      swap2\n      swap1\n      jump\t// in(tag_152)\n    tag_204:\n      pop\n        /* \"contracts/ddddd.sol\":3294:3300  _phone */\n      dup6\n        /* \"contracts/ddddd.sol\":3284:3285  d */\n      dup2\n        /* \"contracts/ddddd.sol\":3284:3291  d.phone */\n      0x2\n      add\n        /* \"contracts/ddddd.sol\":3284:3300  d.phone = _phone */\n      swap1\n      dup1\n      mload\n      swap1\n      0x20\n      add\n      swap1\n      tag_205\n      swap3\n      swap2\n      swap1\n      jump\t// in(tag_152)\n    tag_205:\n      pop\n        /* \"contracts/ddddd.sol\":3322:3329  _gender */\n      dup5\n        /* \"contracts/ddddd.sol\":3311:3312  d */\n      dup2\n        /* \"contracts/ddddd.sol\":3311:3319  d.gender */\n      0x3\n      add\n        /* \"contracts/ddddd.sol\":3311:3329  d.gender = _gender */\n      swap1\n      dup1\n      mload\n      swap1\n      0x20\n      add\n      swap1\n      tag_206\n      swap3\n      swap2\n      swap1\n      jump\t// in(tag_152)\n    tag_206:\n      pop\n        /* \"contracts/ddddd.sol\":3348:3352  _dob */\n      dup4\n        /* \"contracts/ddddd.sol\":3340:3341  d */\n      dup2\n        /* \"contracts/ddddd.sol\":3340:3345  d.dob */\n      0x4\n      add\n        /* \"contracts/ddddd.sol\":3340:3352  d.dob = _dob */\n      swap1\n      dup1\n      mload\n      swap1\n      0x20\n      add\n      swap1\n      tag_207\n      swap3\n      swap2\n      swap1\n      jump\t// in(tag_152)\n    tag_207:\n      pop\n        /* \"contracts/ddddd.sol\":3381:3395  _qualification */\n      dup3\n        /* \"contracts/ddddd.sol\":3363:3364  d */\n      dup2\n        /* \"contracts/ddddd.sol\":3363:3378  d.qualification */\n      0x7\n      add\n        /* \"contracts/ddddd.sol\":3363:3395  d.qualification = _qualification */\n      swap1\n      dup1\n      mload\n      swap1\n      0x20\n      add\n      swap1\n      tag_208\n      swap3\n      swap2\n      swap1\n      jump\t// in(tag_152)\n    tag_208:\n      pop\n        /* \"contracts/ddddd.sol\":3416:3422  _major */\n      dup2\n        /* \"contracts/ddddd.sol\":3406:3407  d */\n      dup2\n        /* \"contracts/ddddd.sol\":3406:3413  d.major */\n      0x8\n      add\n        /* \"contracts/ddddd.sol\":3406:3422  d.major = _major */\n      swap1\n      dup1\n      mload\n      swap1\n      0x20\n      add\n      swap1\n      tag_209\n      swap3\n      swap2\n      swap1\n      jump\t// in(tag_152)\n    tag_209:\n      pop\n        /* \"contracts/ddddd.sol\":3446:3456  msg.sender */\n      caller\n        /* \"contracts/ddddd.sol\":3433:3434  d */\n      dup2\n        /* \"contracts/ddddd.sol\":3433:3443  d.eAddress */\n      0x9\n      add\n      0x0\n        /* \"contracts/ddddd.sol\":3433:3456  d.eAddress = msg.sender */\n      0x100\n      exp\n      dup2\n      sload\n      dup2\n      0xffffffffffffffffffffffffffffffffffffffff\n      mul\n      not\n      and\n      swap1\n      dup4\n      0xffffffffffffffffffffffffffffffffffffffff\n      and\n      mul\n      or\n      swap1\n      sstore\n      pop\n        /* \"contracts/ddddd.sol\":3476:3491  block.timestamp */\n      timestamp\n        /* \"contracts/ddddd.sol\":3467:3468  d */\n      dup2\n        /* \"contracts/ddddd.sol\":3467:3473  d.date */\n      0xa\n      add\n        /* \"contracts/ddddd.sol\":3467:3491  d.date = block.timestamp */\n      dup2\n      swap1\n      sstore\n      pop\n        /* \"contracts/ddddd.sol\":3512:3522  doctorList */\n      0x2\n        /* \"contracts/ddddd.sol\":3528:3538  msg.sender */\n      caller\n        /* \"contracts/ddddd.sol\":3512:3539  doctorList.push(msg.sender) */\n      swap1\n      dup1\n        /* \"--CODEGEN--\":39:40   */\n      0x1\n        /* \"--CODEGEN--\":33:36   */\n      dup2\n        /* \"--CODEGEN--\":27:37   */\n      sload\n        /* \"--CODEGEN--\":23:41   */\n      add\n        /* \"--CODEGEN--\":57:67   */\n      dup1\n        /* \"--CODEGEN--\":52:55   */\n      dup3\n        /* \"--CODEGEN--\":45:68   */\n      sstore\n        /* \"--CODEGEN--\":79:89   */\n      dup1\n        /* \"--CODEGEN--\":72:89   */\n      swap2\n      pop\n        /* \"--CODEGEN--\":0:93   */\n      pop\n        /* \"contracts/ddddd.sol\":3512:3539  doctorList.push(msg.sender) */\n      swap1\n      0x1\n      dup3\n      sub\n      swap1\n      0x0\n      mstore\n      keccak256(0x0, 0x20)\n      add\n      0x0\n      swap1\n      swap2\n      swap3\n      swap1\n      swap2\n      swap1\n      swap2\n      0x100\n      exp\n      dup2\n      sload\n      dup2\n      0xffffffffffffffffffffffffffffffffffffffff\n      mul\n      not\n      and\n      swap1\n      dup4\n      0xffffffffffffffffffffffffffffffffffffffff\n      and\n      mul\n      or\n      swap1\n      sstore\n      pop\n      pop\n        /* \"contracts/ddddd.sol\":3573:3577  true */\n      0x1\n        /* \"contracts/ddddd.sol\":3550:3558  isDoctor */\n      0x7\n        /* \"contracts/ddddd.sol\":3550:3570  isDoctor[msg.sender] */\n      0x0\n        /* \"contracts/ddddd.sol\":3559:3569  msg.sender */\n      caller\n        /* \"contracts/ddddd.sol\":3550:3570  isDoctor[msg.sender] */\n      0xffffffffffffffffffffffffffffffffffffffff\n      and\n      0xffffffffffffffffffffffffffffffffffffffff\n      and\n      dup2\n      mstore\n      0x20\n      add\n      swap1\n      dup2\n      mstore\n      0x20\n      add\n      0x0\n      keccak256\n      0x0\n        /* \"contracts/ddddd.sol\":3550:3577  isDoctor[msg.sender] = true */\n      0x100\n      exp\n      dup2\n      sload\n      dup2\n      0xff\n      mul\n      not\n      and\n      swap1\n      dup4\n      iszero\n      iszero\n      mul\n      or\n      swap1\n      sstore\n      pop\n        /* \"contracts/ddddd.sol\":3588:3599  doctorCount */\n      0x9\n      0x0\n        /* \"contracts/ddddd.sol\":3588:3601  doctorCount++ */\n      dup2\n      sload\n      dup1\n      swap3\n      swap2\n      swap1\n      0x1\n      add\n      swap2\n      swap1\n      pop\n      sstore\n      pop\n        /* \"contracts/ddddd.sol\":2996:3609  function setDoctor(string _uaeId, string _name, string _phone, string _gender, string _dob, string _qualification, string _major) public {\r... */\n      pop\n      pop\n      pop\n      pop\n      pop\n      pop\n      pop\n      pop\n      jump\t// out\n        /* \"contracts/ddddd.sol\":689:709  address public owner */\n    tag_91:\n      0x0\n      dup1\n      swap1\n      sload\n      swap1\n      0x100\n      exp\n      swap1\n      div\n      0xffffffffffffffffffffffffffffffffffffffff\n      and\n      dup2\n      jump\t// out\n        /* \"contracts/ddddd.sol\":1234:1302  function ownerAddress() public {\r... */\n    tag_95:\n        /* \"contracts/ddddd.sol\":1284:1294  msg.sender */\n      caller\n        /* \"contracts/ddddd.sol\":1276:1281  owner */\n      0x0\n      dup1\n        /* \"contracts/ddddd.sol\":1276:1294  owner = msg.sender */\n      0x100\n      exp\n      dup2\n      sload\n      dup2\n      0xffffffffffffffffffffffffffffffffffffffff\n      mul\n      not\n      and\n      swap1\n      dup4\n      0xffffffffffffffffffffffffffffffffffffffff\n      and\n      mul\n      or\n      swap1\n      sstore\n      pop\n        /* \"contracts/ddddd.sol\":1234:1302  function ownerAddress() public {\r... */\n      jump\t// out\n        /* \"contracts/ddddd.sol\":716:741  address[] public userList */\n    tag_99:\n      0x1\n      dup2\n      dup2\n      sload\n      dup2\n      lt\n      iszero\n      iszero\n      tag_212\n      jumpi\n      invalid\n    tag_212:\n      swap1\n      0x0\n      mstore\n      keccak256(0x0, 0x20)\n      add\n      0x0\n      swap2\n      pop\n      sload\n      swap1\n      0x100\n      exp\n      swap1\n      div\n      0xffffffffffffffffffffffffffffffffffffffff\n      and\n      dup2\n      jump\t// out\n        /* \"contracts/ddddd.sol\":1109:1145  uint256 public permissionCounter = 0 */\n    tag_103:\n      sload(0xa)\n      dup2\n      jump\t// out\n        /* \"contracts/ddddd.sol\":4559:4648  function getDoctors() public view returns(address[]) {\r... */\n    tag_107:\n        /* \"contracts/ddddd.sol\":4601:4610  address[] */\n      0x60\n        /* \"contracts/ddddd.sol\":4630:4640  doctorList */\n      0x2\n        /* \"contracts/ddddd.sol\":4623:4640  return doctorList */\n      dup1\n      sload\n      dup1\n      0x20\n      mul\n      0x20\n      add\n      mload(0x40)\n      swap1\n      dup2\n      add\n      0x40\n      mstore\n      dup1\n      swap3\n      swap2\n      swap1\n      dup2\n      dup2\n      mstore\n      0x20\n      add\n      dup3\n      dup1\n      sload\n      dup1\n      iszero\n      tag_215\n      jumpi\n      0x20\n      mul\n      dup3\n      add\n      swap2\n      swap1\n      0x0\n      mstore\n      keccak256(0x0, 0x20)\n      swap1\n    tag_216:\n      dup2\n      0x0\n      swap1\n      sload\n      swap1\n      0x100\n      exp\n      swap1\n      div\n      0xffffffffffffffffffffffffffffffffffffffff\n      and\n      0xffffffffffffffffffffffffffffffffffffffff\n      and\n      dup2\n      mstore\n      0x20\n      add\n      swap1\n      0x1\n      add\n      swap1\n      dup1\n      dup4\n      gt\n      tag_216\n      jumpi\n    tag_215:\n      pop\n      pop\n      pop\n      pop\n      pop\n      swap1\n      pop\n        /* \"contracts/ddddd.sol\":4559:4648  function getDoctors() public view returns(address[]) {\r... */\n      swap1\n      jump\t// out\n        /* \"contracts/ddddd.sol\":5627:5715  function getUserCount() public view returns(uint256) {\r... */\n    tag_111:\n        /* \"contracts/ddddd.sol\":5671:5678  uint256 */\n      0x0\n        /* \"contracts/ddddd.sol\":5698:5707  userCount */\n      sload(0x8)\n        /* \"contracts/ddddd.sol\":5691:5707  return userCount */\n      swap1\n      pop\n        /* \"contracts/ddddd.sol\":5627:5715  function getUserCount() public view returns(uint256) {\r... */\n      swap1\n      jump\t// out\n        /* \"contracts/ddddd.sol\":1152:1221  address public mohAdress = 0xc50C6297f56b033633C30354A854b074749cd2dC */\n    tag_115:\n      0xb\n      0x0\n      swap1\n      sload\n      swap1\n      0x100\n      exp\n      swap1\n      div\n      0xffffffffffffffffffffffffffffffffffffffff\n      and\n      dup2\n      jump\t// out\n        /* \"contracts/ddddd.sol\":5317:5611  function searchDoctor(address _address) public view returns(string, string, string, string, string, string, string) {\r... */\n    tag_120:\n        /* \"contracts/ddddd.sol\":5377:5383  string */\n      0x60\n        /* \"contracts/ddddd.sol\":5385:5391  string */\n      dup1\n        /* \"contracts/ddddd.sol\":5393:5399  string */\n      0x60\n        /* \"contracts/ddddd.sol\":5401:5407  string */\n      dup1\n        /* \"contracts/ddddd.sol\":5409:5415  string */\n      0x60\n        /* \"contracts/ddddd.sol\":5417:5423  string */\n      dup1\n        /* \"contracts/ddddd.sol\":5425:5431  string */\n      0x60\n        /* \"contracts/ddddd.sol\":5482:5487  var d */\n      0x0\n        /* \"contracts/ddddd.sol\":5452:5460  isDoctor */\n      0x7\n        /* \"contracts/ddddd.sol\":5452:5470  isDoctor[_address] */\n      0x0\n        /* \"contracts/ddddd.sol\":5461:5469  _address */\n      dup11\n        /* \"contracts/ddddd.sol\":5452:5470  isDoctor[_address] */\n      0xffffffffffffffffffffffffffffffffffffffff\n      and\n      0xffffffffffffffffffffffffffffffffffffffff\n      and\n      dup2\n      mstore\n      0x20\n      add\n      swap1\n      dup2\n      mstore\n      0x20\n      add\n      0x0\n      keccak256\n      0x0\n      swap1\n      sload\n      swap1\n      0x100\n      exp\n      swap1\n      div\n      0xff\n      and\n        /* \"contracts/ddddd.sol\":5444:5471  require(isDoctor[_address]) */\n      iszero\n      iszero\n      tag_219\n      jumpi\n      0x0\n      dup1\n      revert\n    tag_219:\n        /* \"contracts/ddddd.sol\":5490:5496  doctor */\n      0x4\n        /* \"contracts/ddddd.sol\":5490:5506  doctor[_address] */\n      0x0\n        /* \"contracts/ddddd.sol\":5497:5505  _address */\n      dup11\n        /* \"contracts/ddddd.sol\":5490:5506  doctor[_address] */\n      0xffffffffffffffffffffffffffffffffffffffff\n      and\n      0xffffffffffffffffffffffffffffffffffffffff\n      and\n      dup2\n      mstore\n      0x20\n      add\n      swap1\n      dup2\n      mstore\n      0x20\n      add\n      0x0\n      keccak256\n        /* \"contracts/ddddd.sol\":5482:5506  var d = doctor[_address] */\n      swap1\n      pop\n        /* \"contracts/ddddd.sol\":5535:5536  d */\n      dup1\n        /* \"contracts/ddddd.sol\":5535:5542  d.uaeId */\n      0x0\n      add\n        /* \"contracts/ddddd.sol\":5544:5545  d */\n      dup2\n        /* \"contracts/ddddd.sol\":5544:5550  d.name */\n      0x1\n      add\n        /* \"contracts/ddddd.sol\":5552:5553  d */\n      dup3\n        /* \"contracts/ddddd.sol\":5552:5559  d.phone */\n      0x2\n      add\n        /* \"contracts/ddddd.sol\":5561:5562  d */\n      dup4\n        /* \"contracts/ddddd.sol\":5561:5569  d.gender */\n      0x3\n      add\n        /* \"contracts/ddddd.sol\":5571:5572  d */\n      dup5\n        /* \"contracts/ddddd.sol\":5571:5576  d.dob */\n      0x4\n      add\n        /* \"contracts/ddddd.sol\":5578:5579  d */\n      dup6\n        /* \"contracts/ddddd.sol\":5578:5593  d.qualification */\n      0x7\n      add\n        /* \"contracts/ddddd.sol\":5595:5596  d */\n      dup7\n        /* \"contracts/ddddd.sol\":5595:5602  d.major */\n      0x8\n      add\n        /* \"contracts/ddddd.sol\":5527:5603  return (d.uaeId, d.name, d.phone, d.gender, d.dob, d.qualification, d.major) */\n      dup7\n      dup1\n      sload\n      0x1\n      dup2\n      0x1\n      and\n      iszero\n      0x100\n      mul\n      sub\n      and\n      0x2\n      swap1\n      div\n      dup1\n      0x1f\n      add\n      0x20\n      dup1\n      swap2\n      div\n      mul\n      0x20\n      add\n      mload(0x40)\n      swap1\n      dup2\n      add\n      0x40\n      mstore\n      dup1\n      swap3\n      swap2\n      swap1\n      dup2\n      dup2\n      mstore\n      0x20\n      add\n      dup3\n      dup1\n      sload\n      0x1\n      dup2\n      0x1\n      and\n      iszero\n      0x100\n      mul\n      sub\n      and\n      0x2\n      swap1\n      div\n      dup1\n      iszero\n      tag_220\n      jumpi\n      dup1\n      0x1f\n      lt\n      tag_221\n      jumpi\n      0x100\n      dup1\n      dup4\n      sload\n      div\n      mul\n      dup4\n      mstore\n      swap2\n      0x20\n      add\n      swap2\n      jump(tag_220)\n    tag_221:\n      dup3\n      add\n      swap2\n      swap1\n      0x0\n      mstore\n      keccak256(0x0, 0x20)\n      swap1\n    tag_222:\n      dup2\n      sload\n      dup2\n      mstore\n      swap1\n      0x1\n      add\n      swap1\n      0x20\n      add\n      dup1\n      dup4\n      gt\n      tag_222\n      jumpi\n      dup3\n      swap1\n      sub\n      0x1f\n      and\n      dup3\n      add\n      swap2\n    tag_220:\n      pop\n      pop\n      pop\n      pop\n      pop\n      swap7\n      pop\n      dup6\n      dup1\n      sload\n      0x1\n      dup2\n      0x1\n      and\n      iszero\n      0x100\n      mul\n      sub\n      and\n      0x2\n      swap1\n      div\n      dup1\n      0x1f\n      add\n      0x20\n      dup1\n      swap2\n      div\n      mul\n      0x20\n      add\n      mload(0x40)\n      swap1\n      dup2\n      add\n      0x40\n      mstore\n      dup1\n      swap3\n      swap2\n      swap1\n      dup2\n      dup2\n      mstore\n      0x20\n      add\n      dup3\n      dup1\n      sload\n      0x1\n      dup2\n      0x1\n      and\n      iszero\n      0x100\n      mul\n      sub\n      and\n      0x2\n      swap1\n      div\n      dup1\n      iszero\n      tag_223\n      jumpi\n      dup1\n      0x1f\n      lt\n      tag_224\n      jumpi\n      0x100\n      dup1\n      dup4\n      sload\n      div\n      mul\n      dup4\n      mstore\n      swap2\n      0x20\n      add\n      swap2\n      jump(tag_223)\n    tag_224:\n      dup3\n      add\n      swap2\n      swap1\n      0x0\n      mstore\n      keccak256(0x0, 0x20)\n      swap1\n    tag_225:\n      dup2\n      sload\n      dup2\n      mstore\n      swap1\n      0x1\n      add\n      swap1\n      0x20\n      add\n      dup1\n      dup4\n      gt\n      tag_225\n      jumpi\n      dup3\n      swap1\n      sub\n      0x1f\n      and\n      dup3\n      add\n      swap2\n    tag_223:\n      pop\n      pop\n      pop\n      pop\n      pop\n      swap6\n      pop\n      dup5\n      dup1\n      sload\n      0x1\n      dup2\n      0x1\n      and\n      iszero\n      0x100\n      mul\n      sub\n      and\n      0x2\n      swap1\n      div\n      dup1\n      0x1f\n      add\n      0x20\n      dup1\n      swap2\n      div\n      mul\n      0x20\n      add\n      mload(0x40)\n      swap1\n      dup2\n      add\n      0x40\n      mstore\n      dup1\n      swap3\n      swap2\n      swap1\n      dup2\n      dup2\n      mstore\n      0x20\n      add\n      dup3\n      dup1\n      sload\n      0x1\n      dup2\n      0x1\n      and\n      iszero\n      0x100\n      mul\n      sub\n      and\n      0x2\n      swap1\n      div\n      dup1\n      iszero\n      tag_226\n      jumpi\n      dup1\n      0x1f\n      lt\n      tag_227\n      jumpi\n      0x100\n      dup1\n      dup4\n      sload\n      div\n      mul\n      dup4\n      mstore\n      swap2\n      0x20\n      add\n      swap2\n      jump(tag_226)\n    tag_227:\n      dup3\n      add\n      swap2\n      swap1\n      0x0\n      mstore\n      keccak256(0x0, 0x20)\n      swap1\n    tag_228:\n      dup2\n      sload\n      dup2\n      mstore\n      swap1\n      0x1\n      add\n      swap1\n      0x20\n      add\n      dup1\n      dup4\n      gt\n      tag_228\n      jumpi\n      dup3\n      swap1\n      sub\n      0x1f\n      and\n      dup3\n      add\n      swap2\n    tag_226:\n      pop\n      pop\n      pop\n      pop\n      pop\n      swap5\n      pop\n      dup4\n      dup1\n      sload\n      0x1\n      dup2\n      0x1\n      and\n      iszero\n      0x100\n      mul\n      sub\n      and\n      0x2\n      swap1\n      div\n      dup1\n      0x1f\n      add\n      0x20\n      dup1\n      swap2\n      div\n      mul\n      0x20\n      add\n      mload(0x40)\n      swap1\n      dup2\n      add\n      0x40\n      mstore\n      dup1\n      swap3\n      swap2\n      swap1\n      dup2\n      dup2\n      mstore\n      0x20\n      add\n      dup3\n      dup1\n      sload\n      0x1\n      dup2\n      0x1\n      and\n      iszero\n      0x100\n      mul\n      sub\n      and\n      0x2\n      swap1\n      div\n      dup1\n      iszero\n      tag_229\n      jumpi\n      dup1\n      0x1f\n      lt\n      tag_230\n      jumpi\n      0x100\n      dup1\n      dup4\n      sload\n      div\n      mul\n      dup4\n      mstore\n      swap2\n      0x20\n      add\n      swap2\n      jump(tag_229)\n    tag_230:\n      dup3\n      add\n      swap2\n      swap1\n      0x0\n      mstore\n      keccak256(0x0, 0x20)\n      swap1\n    tag_231:\n      dup2\n      sload\n      dup2\n      mstore\n      swap1\n      0x1\n      add\n      swap1\n      0x20\n      add\n      dup1\n      dup4\n      gt\n      tag_231\n      jumpi\n      dup3\n      swap1\n      sub\n      0x1f\n      and\n      dup3\n      add\n      swap2\n    tag_229:\n      pop\n      pop\n      pop\n      pop\n      pop\n      swap4\n      pop\n      dup3\n      dup1\n      sload\n      0x1\n      dup2\n      0x1\n      and\n      iszero\n      0x100\n      mul\n      sub\n      and\n      0x2\n      swap1\n      div\n      dup1\n      0x1f\n      add\n      0x20\n      dup1\n      swap2\n      div\n      mul\n      0x20\n      add\n      mload(0x40)\n      swap1\n      dup2\n      add\n      0x40\n      mstore\n      dup1\n      swap3\n      swap2\n      swap1\n      dup2\n      dup2\n      mstore\n      0x20\n      add\n      dup3\n      dup1\n      sload\n      0x1\n      dup2\n      0x1\n      and\n      iszero\n      0x100\n      mul\n      sub\n      and\n      0x2\n      swap1\n      div\n      dup1\n      iszero\n      tag_232\n      jumpi\n      dup1\n      0x1f\n      lt\n      tag_233\n      jumpi\n      0x100\n      dup1\n      dup4\n      sload\n      div\n      mul\n      dup4\n      mstore\n      swap2\n      0x20\n      add\n      swap2\n      jump(tag_232)\n    tag_233:\n      dup3\n      add\n      swap2\n      swap1\n      0x0\n      mstore\n      keccak256(0x0, 0x20)\n      swap1\n    tag_234:\n      dup2\n      sload\n      dup2\n      mstore\n      swap1\n      0x1\n      add\n      swap1\n      0x20\n      add\n      dup1\n      dup4\n      gt\n      tag_234\n      jumpi\n      dup3\n      swap1\n      sub\n      0x1f\n      and\n      dup3\n      add\n      swap2\n    tag_232:\n      pop\n      pop\n      pop\n      pop\n      pop\n      swap3\n      pop\n      dup2\n      dup1\n      sload\n      0x1\n      dup2\n      0x1\n      and\n      iszero\n      0x100\n      mul\n      sub\n      and\n      0x2\n      swap1\n      div\n      dup1\n      0x1f\n      add\n      0x20\n      dup1\n      swap2\n      div\n      mul\n      0x20\n      add\n      mload(0x40)\n      swap1\n      dup2\n      add\n      0x40\n      mstore\n      dup1\n      swap3\n      swap2\n      swap1\n      dup2\n      dup2\n      mstore\n      0x20\n      add\n      dup3\n      dup1\n      sload\n      0x1\n      dup2\n      0x1\n      and\n      iszero\n      0x100\n      mul\n      sub\n      and\n      0x2\n      swap1\n      div\n      dup1\n      iszero\n      tag_235\n      jumpi\n      dup1\n      0x1f\n      lt\n      tag_236\n      jumpi\n      0x100\n      dup1\n      dup4\n      sload\n      div\n      mul\n      dup4\n      mstore\n      swap2\n      0x20\n      add\n      swap2\n      jump(tag_235)\n    tag_236:\n      dup3\n      add\n      swap2\n      swap1\n      0x0\n      mstore\n      keccak256(0x0, 0x20)\n      swap1\n    tag_237:\n      dup2\n      sload\n      dup2\n      mstore\n      swap1\n      0x1\n      add\n      swap1\n      0x20\n      add\n      dup1\n      dup4\n      gt\n      tag_237\n      jumpi\n      dup3\n      swap1\n      sub\n      0x1f\n      and\n      dup3\n      add\n      swap2\n    tag_235:\n      pop\n      pop\n      pop\n      pop\n      pop\n      swap2\n      pop\n      dup1\n      dup1\n      sload\n      0x1\n      dup2\n      0x1\n      and\n      iszero\n      0x100\n      mul\n      sub\n      and\n      0x2\n      swap1\n      div\n      dup1\n      0x1f\n      add\n      0x20\n      dup1\n      swap2\n      div\n      mul\n      0x20\n      add\n      mload(0x40)\n      swap1\n      dup2\n      add\n      0x40\n      mstore\n      dup1\n      swap3\n      swap2\n      swap1\n      dup2\n      dup2\n      mstore\n      0x20\n      add\n      dup3\n      dup1\n      sload\n      0x1\n      dup2\n      0x1\n      and\n      iszero\n      0x100\n      mul\n      sub\n      and\n      0x2\n      swap1\n      div\n      dup1\n      iszero\n      tag_238\n      jumpi\n      dup1\n      0x1f\n      lt\n      tag_239\n      jumpi\n      0x100\n      dup1\n      dup4\n      sload\n      div\n      mul\n      dup4\n      mstore\n      swap2\n      0x20\n      add\n      swap2\n      jump(tag_238)\n    tag_239:\n      dup3\n      add\n      swap2\n      swap1\n      0x0\n      mstore\n      keccak256(0x0, 0x20)\n      swap1\n    tag_240:\n      dup2\n      sload\n      dup2\n      mstore\n      swap1\n      0x1\n      add\n      swap1\n      0x20\n      add\n      dup1\n      dup4\n      gt\n      tag_240\n      jumpi\n      dup3\n      swap1\n      sub\n      0x1f\n      and\n      dup3\n      add\n      swap2\n    tag_238:\n      pop\n      pop\n      pop\n      pop\n      pop\n      swap1\n      pop\n      swap8\n      pop\n      swap8\n      pop\n      swap8\n      pop\n      swap8\n      pop\n      swap8\n      pop\n      swap8\n      pop\n      swap8\n      pop\n        /* \"contracts/ddddd.sol\":5317:5611  function searchDoctor(address _address) public view returns(string, string, string, string, string, string, string) {\r... */\n      pop\n      swap2\n      swap4\n      swap6\n      swap8\n      swap1\n      swap3\n      swap5\n      swap7\n      pop\n      jump\t// out\n        /* \"contracts/ddddd.sol\":67:5939  contract ddddd {\r... */\n    tag_152:\n      dup3\n      dup1\n      sload\n      0x1\n      dup2\n      0x1\n      and\n      iszero\n      0x100\n      mul\n      sub\n      and\n      0x2\n      swap1\n      div\n      swap1\n      0x0\n      mstore\n      keccak256(0x0, 0x20)\n      swap1\n      0x1f\n      add\n      0x20\n      swap1\n      div\n      dup2\n      add\n      swap3\n      dup3\n      0x1f\n      lt\n      tag_242\n      jumpi\n      dup1\n      mload\n      not(0xff)\n      and\n      dup4\n      dup1\n      add\n      or\n      dup6\n      sstore\n      jump(tag_241)\n    tag_242:\n      dup3\n      dup1\n      add\n      0x1\n      add\n      dup6\n      sstore\n      dup3\n      iszero\n      tag_241\n      jumpi\n      swap2\n      dup3\n      add\n    tag_243:\n      dup3\n      dup2\n      gt\n      iszero\n      tag_244\n      jumpi\n      dup3\n      mload\n      dup3\n      sstore\n      swap2\n      0x20\n      add\n      swap2\n      swap1\n      0x1\n      add\n      swap1\n      jump(tag_243)\n    tag_244:\n    tag_241:\n      pop\n      swap1\n      pop\n      tag_245\n      swap2\n      swap1\n      jump\t// in(tag_246)\n    tag_245:\n      pop\n      swap1\n      jump\t// out\n    tag_176:\n      dup3\n      dup1\n      sload\n      0x1\n      dup2\n      0x1\n      and\n      iszero\n      0x100\n      mul\n      sub\n      and\n      0x2\n      swap1\n      div\n      swap1\n      0x0\n      mstore\n      keccak256(0x0, 0x20)\n      swap1\n      0x1f\n      add\n      0x20\n      swap1\n      div\n      dup2\n      add\n      swap3\n      dup3\n      0x1f\n      lt\n      tag_248\n      jumpi\n      dup1\n      sload\n      dup6\n      sstore\n      jump(tag_247)\n    tag_248:\n      dup3\n      dup1\n      add\n      0x1\n      add\n      dup6\n      sstore\n      dup3\n      iszero\n      tag_247\n      jumpi\n      0x0\n      mstore\n      keccak256(0x0, 0x20)\n      swap2\n      0x1f\n      add\n      0x20\n      swap1\n      div\n      dup3\n      add\n    tag_249:\n      dup3\n      dup2\n      gt\n      iszero\n      tag_250\n      jumpi\n      dup3\n      sload\n      dup3\n      sstore\n      swap2\n      0x1\n      add\n      swap2\n      swap1\n      0x1\n      add\n      swap1\n      jump(tag_249)\n    tag_250:\n    tag_247:\n      pop\n      swap1\n      pop\n      tag_251\n      swap2\n      swap1\n      jump\t// in(tag_246)\n    tag_251:\n      pop\n      swap1\n      jump\t// out\n    tag_246:\n      tag_252\n      swap2\n      swap1\n    tag_253:\n      dup1\n      dup3\n      gt\n      iszero\n      tag_254\n      jumpi\n      0x0\n      dup2\n      0x0\n      swap1\n      sstore\n      pop\n      0x1\n      add\n      jump(tag_253)\n    tag_254:\n      pop\n      swap1\n      jump\n    tag_252:\n      swap1\n      jump\t// out\n        /* \"--CODEGEN--\":5:123   */\n    tag_256:\n      0x0\n        /* \"--CODEGEN--\":72:118   */\n      tag_257\n        /* \"--CODEGEN--\":110:116   */\n      dup3\n        /* \"--CODEGEN--\":97:117   */\n      calldataload\n        /* \"--CODEGEN--\":72:118   */\n      jump(tag_258)\n    tag_257:\n        /* \"--CODEGEN--\":63:118   */\n      swap1\n      pop\n        /* \"--CODEGEN--\":57:123   */\n      swap3\n      swap2\n      pop\n      pop\n      jump\n        /* \"--CODEGEN--\":131:573   */\n    tag_260:\n      0x0\n        /* \"--CODEGEN--\":233:236   */\n      dup3\n        /* \"--CODEGEN--\":226:230   */\n      0x1f\n        /* \"--CODEGEN--\":218:224   */\n      dup4\n        /* \"--CODEGEN--\":214:231   */\n      add\n        /* \"--CODEGEN--\":210:237   */\n      slt\n        /* \"--CODEGEN--\":203:238   */\n      iszero\n        /* \"--CODEGEN--\":200:202   */\n      iszero\n      tag_261\n      jumpi\n        /* \"--CODEGEN--\":251:252   */\n      0x0\n        /* \"--CODEGEN--\":248:249   */\n      dup1\n        /* \"--CODEGEN--\":241:253   */\n      revert\n        /* \"--CODEGEN--\":200:202   */\n    tag_261:\n        /* \"--CODEGEN--\":288:294   */\n      dup2\n        /* \"--CODEGEN--\":275:295   */\n      calldataload\n        /* \"--CODEGEN--\":310:375   */\n      tag_262\n        /* \"--CODEGEN--\":325:374   */\n      tag_263\n        /* \"--CODEGEN--\":367:373   */\n      dup3\n        /* \"--CODEGEN--\":325:374   */\n      jump(tag_264)\n    tag_263:\n        /* \"--CODEGEN--\":310:375   */\n      jump(tag_265)\n    tag_262:\n        /* \"--CODEGEN--\":301:375   */\n      swap2\n      pop\n        /* \"--CODEGEN--\":395:401   */\n      dup1\n        /* \"--CODEGEN--\":388:393   */\n      dup3\n        /* \"--CODEGEN--\":381:402   */\n      mstore\n        /* \"--CODEGEN--\":431:435   */\n      0x20\n        /* \"--CODEGEN--\":423:429   */\n      dup4\n        /* \"--CODEGEN--\":419:436   */\n      add\n        /* \"--CODEGEN--\":464:468   */\n      0x20\n        /* \"--CODEGEN--\":457:462   */\n      dup4\n        /* \"--CODEGEN--\":453:469   */\n      add\n        /* \"--CODEGEN--\":499:502   */\n      dup6\n        /* \"--CODEGEN--\":490:496   */\n      dup4\n        /* \"--CODEGEN--\":485:488   */\n      dup4\n        /* \"--CODEGEN--\":481:497   */\n      add\n        /* \"--CODEGEN--\":478:503   */\n      gt\n        /* \"--CODEGEN--\":475:477   */\n      iszero\n      tag_266\n      jumpi\n        /* \"--CODEGEN--\":516:517   */\n      0x0\n        /* \"--CODEGEN--\":513:514   */\n      dup1\n        /* \"--CODEGEN--\":506:518   */\n      revert\n        /* \"--CODEGEN--\":475:477   */\n    tag_266:\n        /* \"--CODEGEN--\":526:567   */\n      tag_267\n        /* \"--CODEGEN--\":560:566   */\n      dup4\n        /* \"--CODEGEN--\":555:558   */\n      dup3\n        /* \"--CODEGEN--\":550:553   */\n      dup5\n        /* \"--CODEGEN--\":526:567   */\n      jump(tag_268)\n    tag_267:\n        /* \"--CODEGEN--\":193:573   */\n      pop\n      pop\n      pop\n      swap3\n      swap2\n      pop\n      pop\n      jump\n        /* \"--CODEGEN--\":581:699   */\n    tag_270:\n      0x0\n        /* \"--CODEGEN--\":648:694   */\n      tag_271\n        /* \"--CODEGEN--\":686:692   */\n      dup3\n        /* \"--CODEGEN--\":673:693   */\n      calldataload\n        /* \"--CODEGEN--\":648:694   */\n      jump(tag_272)\n    tag_271:\n        /* \"--CODEGEN--\":639:694   */\n      swap1\n      pop\n        /* \"--CODEGEN--\":633:699   */\n      swap3\n      swap2\n      pop\n      pop\n      jump\n        /* \"--CODEGEN--\":706:947   */\n    tag_31:\n      0x0\n        /* \"--CODEGEN--\":810:812   */\n      0x20\n        /* \"--CODEGEN--\":798:807   */\n      dup3\n        /* \"--CODEGEN--\":789:796   */\n      dup5\n        /* \"--CODEGEN--\":785:808   */\n      sub\n        /* \"--CODEGEN--\":781:813   */\n      slt\n        /* \"--CODEGEN--\":778:780   */\n      iszero\n      tag_274\n      jumpi\n        /* \"--CODEGEN--\":826:827   */\n      0x0\n        /* \"--CODEGEN--\":823:824   */\n      dup1\n        /* \"--CODEGEN--\":816:828   */\n      revert\n        /* \"--CODEGEN--\":778:780   */\n    tag_274:\n        /* \"--CODEGEN--\":861:862   */\n      0x0\n        /* \"--CODEGEN--\":878:931   */\n      tag_275\n        /* \"--CODEGEN--\":923:930   */\n      dup5\n        /* \"--CODEGEN--\":914:920   */\n      dup3\n        /* \"--CODEGEN--\":903:912   */\n      dup6\n        /* \"--CODEGEN--\":899:921   */\n      add\n        /* \"--CODEGEN--\":878:931   */\n      jump(tag_256)\n    tag_275:\n        /* \"--CODEGEN--\":868:931   */\n      swap2\n      pop\n        /* \"--CODEGEN--\":840:937   */\n      pop\n        /* \"--CODEGEN--\":772:947   */\n      swap3\n      swap2\n      pop\n      pop\n      jump\n        /* \"--CODEGEN--\":954:2817   */\n    tag_56:\n      0x0\n      dup1\n      0x0\n      dup1\n      0x0\n      dup1\n      0x0\n      dup1\n        /* \"--CODEGEN--\":1247:1250   */\n      0x100\n        /* \"--CODEGEN--\":1235:1244   */\n      dup10\n        /* \"--CODEGEN--\":1226:1233   */\n      dup12\n        /* \"--CODEGEN--\":1222:1245   */\n      sub\n        /* \"--CODEGEN--\":1218:1251   */\n      slt\n        /* \"--CODEGEN--\":1215:1217   */\n      iszero\n      tag_277\n      jumpi\n        /* \"--CODEGEN--\":1264:1265   */\n      0x0\n        /* \"--CODEGEN--\":1261:1262   */\n      dup1\n        /* \"--CODEGEN--\":1254:1266   */\n      revert\n        /* \"--CODEGEN--\":1215:1217   */\n    tag_277:\n        /* \"--CODEGEN--\":1299:1300   */\n      0x0\n        /* \"--CODEGEN--\":1316:1369   */\n      tag_278\n        /* \"--CODEGEN--\":1361:1368   */\n      dup12\n        /* \"--CODEGEN--\":1352:1358   */\n      dup3\n        /* \"--CODEGEN--\":1341:1350   */\n      dup13\n        /* \"--CODEGEN--\":1337:1359   */\n      add\n        /* \"--CODEGEN--\":1316:1369   */\n      jump(tag_256)\n    tag_278:\n        /* \"--CODEGEN--\":1306:1369   */\n      swap9\n      pop\n        /* \"--CODEGEN--\":1278:1375   */\n      pop\n        /* \"--CODEGEN--\":1434:1436   */\n      0x20\n        /* \"--CODEGEN--\":1423:1432   */\n      dup10\n        /* \"--CODEGEN--\":1419:1437   */\n      add\n        /* \"--CODEGEN--\":1406:1438   */\n      calldataload\n        /* \"--CODEGEN--\":1458:1476   */\n      0xffffffffffffffff\n        /* \"--CODEGEN--\":1450:1456   */\n      dup2\n        /* \"--CODEGEN--\":1447:1477   */\n      gt\n        /* \"--CODEGEN--\":1444:1446   */\n      iszero\n      tag_279\n      jumpi\n        /* \"--CODEGEN--\":1490:1491   */\n      0x0\n        /* \"--CODEGEN--\":1487:1488   */\n      dup1\n        /* \"--CODEGEN--\":1480:1492   */\n      revert\n        /* \"--CODEGEN--\":1444:1446   */\n    tag_279:\n        /* \"--CODEGEN--\":1510:1573   */\n      tag_280\n        /* \"--CODEGEN--\":1565:1572   */\n      dup12\n        /* \"--CODEGEN--\":1556:1562   */\n      dup3\n        /* \"--CODEGEN--\":1545:1554   */\n      dup13\n        /* \"--CODEGEN--\":1541:1563   */\n      add\n        /* \"--CODEGEN--\":1510:1573   */\n      jump(tag_260)\n    tag_280:\n        /* \"--CODEGEN--\":1500:1573   */\n      swap8\n      pop\n        /* \"--CODEGEN--\":1385:1579   */\n      pop\n        /* \"--CODEGEN--\":1638:1640   */\n      0x40\n        /* \"--CODEGEN--\":1627:1636   */\n      dup10\n        /* \"--CODEGEN--\":1623:1641   */\n      add\n        /* \"--CODEGEN--\":1610:1642   */\n      calldataload\n        /* \"--CODEGEN--\":1662:1680   */\n      0xffffffffffffffff\n        /* \"--CODEGEN--\":1654:1660   */\n      dup2\n        /* \"--CODEGEN--\":1651:1681   */\n      gt\n        /* \"--CODEGEN--\":1648:1650   */\n      iszero\n      tag_281\n      jumpi\n        /* \"--CODEGEN--\":1694:1695   */\n      0x0\n        /* \"--CODEGEN--\":1691:1692   */\n      dup1\n        /* \"--CODEGEN--\":1684:1696   */\n      revert\n        /* \"--CODEGEN--\":1648:1650   */\n    tag_281:\n        /* \"--CODEGEN--\":1714:1777   */\n      tag_282\n        /* \"--CODEGEN--\":1769:1776   */\n      dup12\n        /* \"--CODEGEN--\":1760:1766   */\n      dup3\n        /* \"--CODEGEN--\":1749:1758   */\n      dup13\n        /* \"--CODEGEN--\":1745:1767   */\n      add\n        /* \"--CODEGEN--\":1714:1777   */\n      jump(tag_260)\n    tag_282:\n        /* \"--CODEGEN--\":1704:1777   */\n      swap7\n      pop\n        /* \"--CODEGEN--\":1589:1783   */\n      pop\n        /* \"--CODEGEN--\":1842:1844   */\n      0x60\n        /* \"--CODEGEN--\":1831:1840   */\n      dup10\n        /* \"--CODEGEN--\":1827:1845   */\n      add\n        /* \"--CODEGEN--\":1814:1846   */\n      calldataload\n        /* \"--CODEGEN--\":1866:1884   */\n      0xffffffffffffffff\n        /* \"--CODEGEN--\":1858:1864   */\n      dup2\n        /* \"--CODEGEN--\":1855:1885   */\n      gt\n        /* \"--CODEGEN--\":1852:1854   */\n      iszero\n      tag_283\n      jumpi\n        /* \"--CODEGEN--\":1898:1899   */\n      0x0\n        /* \"--CODEGEN--\":1895:1896   */\n      dup1\n        /* \"--CODEGEN--\":1888:1900   */\n      revert\n        /* \"--CODEGEN--\":1852:1854   */\n    tag_283:\n        /* \"--CODEGEN--\":1918:1981   */\n      tag_284\n        /* \"--CODEGEN--\":1973:1980   */\n      dup12\n        /* \"--CODEGEN--\":1964:1970   */\n      dup3\n        /* \"--CODEGEN--\":1953:1962   */\n      dup13\n        /* \"--CODEGEN--\":1949:1971   */\n      add\n        /* \"--CODEGEN--\":1918:1981   */\n      jump(tag_260)\n    tag_284:\n        /* \"--CODEGEN--\":1908:1981   */\n      swap6\n      pop\n        /* \"--CODEGEN--\":1793:1987   */\n      pop\n        /* \"--CODEGEN--\":2046:2049   */\n      0x80\n        /* \"--CODEGEN--\":2035:2044   */\n      dup10\n        /* \"--CODEGEN--\":2031:2050   */\n      add\n        /* \"--CODEGEN--\":2018:2051   */\n      calldataload\n        /* \"--CODEGEN--\":2071:2089   */\n      0xffffffffffffffff\n        /* \"--CODEGEN--\":2063:2069   */\n      dup2\n        /* \"--CODEGEN--\":2060:2090   */\n      gt\n        /* \"--CODEGEN--\":2057:2059   */\n      iszero\n      tag_285\n      jumpi\n        /* \"--CODEGEN--\":2103:2104   */\n      0x0\n        /* \"--CODEGEN--\":2100:2101   */\n      dup1\n        /* \"--CODEGEN--\":2093:2105   */\n      revert\n        /* \"--CODEGEN--\":2057:2059   */\n    tag_285:\n        /* \"--CODEGEN--\":2123:2186   */\n      tag_286\n        /* \"--CODEGEN--\":2178:2185   */\n      dup12\n        /* \"--CODEGEN--\":2169:2175   */\n      dup3\n        /* \"--CODEGEN--\":2158:2167   */\n      dup13\n        /* \"--CODEGEN--\":2154:2176   */\n      add\n        /* \"--CODEGEN--\":2123:2186   */\n      jump(tag_260)\n    tag_286:\n        /* \"--CODEGEN--\":2113:2186   */\n      swap5\n      pop\n        /* \"--CODEGEN--\":1997:2192   */\n      pop\n        /* \"--CODEGEN--\":2251:2254   */\n      0xa0\n        /* \"--CODEGEN--\":2240:2249   */\n      dup10\n        /* \"--CODEGEN--\":2236:2255   */\n      add\n        /* \"--CODEGEN--\":2223:2256   */\n      calldataload\n        /* \"--CODEGEN--\":2276:2294   */\n      0xffffffffffffffff\n        /* \"--CODEGEN--\":2268:2274   */\n      dup2\n        /* \"--CODEGEN--\":2265:2295   */\n      gt\n        /* \"--CODEGEN--\":2262:2264   */\n      iszero\n      tag_287\n      jumpi\n        /* \"--CODEGEN--\":2308:2309   */\n      0x0\n        /* \"--CODEGEN--\":2305:2306   */\n      dup1\n        /* \"--CODEGEN--\":2298:2310   */\n      revert\n        /* \"--CODEGEN--\":2262:2264   */\n    tag_287:\n        /* \"--CODEGEN--\":2328:2391   */\n      tag_288\n        /* \"--CODEGEN--\":2383:2390   */\n      dup12\n        /* \"--CODEGEN--\":2374:2380   */\n      dup3\n        /* \"--CODEGEN--\":2363:2372   */\n      dup13\n        /* \"--CODEGEN--\":2359:2381   */\n      add\n        /* \"--CODEGEN--\":2328:2391   */\n      jump(tag_260)\n    tag_288:\n        /* \"--CODEGEN--\":2318:2391   */\n      swap4\n      pop\n        /* \"--CODEGEN--\":2202:2397   */\n      pop\n        /* \"--CODEGEN--\":2456:2459   */\n      0xc0\n        /* \"--CODEGEN--\":2445:2454   */\n      dup10\n        /* \"--CODEGEN--\":2441:2460   */\n      add\n        /* \"--CODEGEN--\":2428:2461   */\n      calldataload\n        /* \"--CODEGEN--\":2481:2499   */\n      0xffffffffffffffff\n        /* \"--CODEGEN--\":2473:2479   */\n      dup2\n        /* \"--CODEGEN--\":2470:2500   */\n      gt\n        /* \"--CODEGEN--\":2467:2469   */\n      iszero\n      tag_289\n      jumpi\n        /* \"--CODEGEN--\":2513:2514   */\n      0x0\n        /* \"--CODEGEN--\":2510:2511   */\n      dup1\n        /* \"--CODEGEN--\":2503:2515   */\n      revert\n        /* \"--CODEGEN--\":2467:2469   */\n    tag_289:\n        /* \"--CODEGEN--\":2533:2596   */\n      tag_290\n        /* \"--CODEGEN--\":2588:2595   */\n      dup12\n        /* \"--CODEGEN--\":2579:2585   */\n      dup3\n        /* \"--CODEGEN--\":2568:2577   */\n      dup13\n        /* \"--CODEGEN--\":2564:2586   */\n      add\n        /* \"--CODEGEN--\":2533:2596   */\n      jump(tag_260)\n    tag_290:\n        /* \"--CODEGEN--\":2523:2596   */\n      swap3\n      pop\n        /* \"--CODEGEN--\":2407:2602   */\n      pop\n        /* \"--CODEGEN--\":2661:2664   */\n      0xe0\n        /* \"--CODEGEN--\":2650:2659   */\n      dup10\n        /* \"--CODEGEN--\":2646:2665   */\n      add\n        /* \"--CODEGEN--\":2633:2666   */\n      calldataload\n        /* \"--CODEGEN--\":2686:2704   */\n      0xffffffffffffffff\n        /* \"--CODEGEN--\":2678:2684   */\n      dup2\n        /* \"--CODEGEN--\":2675:2705   */\n      gt\n        /* \"--CODEGEN--\":2672:2674   */\n      iszero\n      tag_291\n      jumpi\n        /* \"--CODEGEN--\":2718:2719   */\n      0x0\n        /* \"--CODEGEN--\":2715:2716   */\n      dup1\n        /* \"--CODEGEN--\":2708:2720   */\n      revert\n        /* \"--CODEGEN--\":2672:2674   */\n    tag_291:\n        /* \"--CODEGEN--\":2738:2801   */\n      tag_292\n        /* \"--CODEGEN--\":2793:2800   */\n      dup12\n        /* \"--CODEGEN--\":2784:2790   */\n      dup3\n        /* \"--CODEGEN--\":2773:2782   */\n      dup13\n        /* \"--CODEGEN--\":2769:2791   */\n      add\n        /* \"--CODEGEN--\":2738:2801   */\n      jump(tag_260)\n    tag_292:\n        /* \"--CODEGEN--\":2728:2801   */\n      swap2\n      pop\n        /* \"--CODEGEN--\":2612:2807   */\n      pop\n        /* \"--CODEGEN--\":1209:2817   */\n      swap3\n      swap6\n      swap9\n      pop\n      swap3\n      swap6\n      swap9\n      swap1\n      swap4\n      swap7\n      pop\n      jump\n        /* \"--CODEGEN--\":2824:5151   */\n    tag_70:\n      0x0\n      dup1\n      0x0\n      dup1\n      0x0\n      dup1\n      0x0\n      dup1\n      0x0\n      dup1\n        /* \"--CODEGEN--\":3171:3174   */\n      0x140\n        /* \"--CODEGEN--\":3159:3168   */\n      dup12\n        /* \"--CODEGEN--\":3150:3157   */\n      dup14\n        /* \"--CODEGEN--\":3146:3169   */\n      sub\n        /* \"--CODEGEN--\":3142:3175   */\n      slt\n        /* \"--CODEGEN--\":3139:3141   */\n      iszero\n      tag_294\n      jumpi\n        /* \"--CODEGEN--\":3188:3189   */\n      0x0\n        /* \"--CODEGEN--\":3185:3186   */\n      dup1\n        /* \"--CODEGEN--\":3178:3190   */\n      revert\n        /* \"--CODEGEN--\":3139:3141   */\n    tag_294:\n        /* \"--CODEGEN--\":3223:3224   */\n      0x0\n        /* \"--CODEGEN--\":3240:3293   */\n      tag_295\n        /* \"--CODEGEN--\":3285:3292   */\n      dup14\n        /* \"--CODEGEN--\":3276:3282   */\n      dup3\n        /* \"--CODEGEN--\":3265:3274   */\n      dup15\n        /* \"--CODEGEN--\":3261:3283   */\n      add\n        /* \"--CODEGEN--\":3240:3293   */\n      jump(tag_256)\n    tag_295:\n        /* \"--CODEGEN--\":3230:3293   */\n      swap11\n      pop\n        /* \"--CODEGEN--\":3202:3299   */\n      pop\n        /* \"--CODEGEN--\":3358:3360   */\n      0x20\n        /* \"--CODEGEN--\":3347:3356   */\n      dup12\n        /* \"--CODEGEN--\":3343:3361   */\n      add\n        /* \"--CODEGEN--\":3330:3362   */\n      calldataload\n        /* \"--CODEGEN--\":3382:3400   */\n      0xffffffffffffffff\n        /* \"--CODEGEN--\":3374:3380   */\n      dup2\n        /* \"--CODEGEN--\":3371:3401   */\n      gt\n        /* \"--CODEGEN--\":3368:3370   */\n      iszero\n      tag_296\n      jumpi\n        /* \"--CODEGEN--\":3414:3415   */\n      0x0\n        /* \"--CODEGEN--\":3411:3412   */\n      dup1\n        /* \"--CODEGEN--\":3404:3416   */\n      revert\n        /* \"--CODEGEN--\":3368:3370   */\n    tag_296:\n        /* \"--CODEGEN--\":3434:3497   */\n      tag_297\n        /* \"--CODEGEN--\":3489:3496   */\n      dup14\n        /* \"--CODEGEN--\":3480:3486   */\n      dup3\n        /* \"--CODEGEN--\":3469:3478   */\n      dup15\n        /* \"--CODEGEN--\":3465:3487   */\n      add\n        /* \"--CODEGEN--\":3434:3497   */\n      jump(tag_260)\n    tag_297:\n        /* \"--CODEGEN--\":3424:3497   */\n      swap10\n      pop\n        /* \"--CODEGEN--\":3309:3503   */\n      pop\n        /* \"--CODEGEN--\":3562:3564   */\n      0x40\n        /* \"--CODEGEN--\":3551:3560   */\n      dup12\n        /* \"--CODEGEN--\":3547:3565   */\n      add\n        /* \"--CODEGEN--\":3534:3566   */\n      calldataload\n        /* \"--CODEGEN--\":3586:3604   */\n      0xffffffffffffffff\n        /* \"--CODEGEN--\":3578:3584   */\n      dup2\n        /* \"--CODEGEN--\":3575:3605   */\n      gt\n        /* \"--CODEGEN--\":3572:3574   */\n      iszero\n      tag_298\n      jumpi\n        /* \"--CODEGEN--\":3618:3619   */\n      0x0\n        /* \"--CODEGEN--\":3615:3616   */\n      dup1\n        /* \"--CODEGEN--\":3608:3620   */\n      revert\n        /* \"--CODEGEN--\":3572:3574   */\n    tag_298:\n        /* \"--CODEGEN--\":3638:3701   */\n      tag_299\n        /* \"--CODEGEN--\":3693:3700   */\n      dup14\n        /* \"--CODEGEN--\":3684:3690   */\n      dup3\n        /* \"--CODEGEN--\":3673:3682   */\n      dup15\n        /* \"--CODEGEN--\":3669:3691   */\n      add\n        /* \"--CODEGEN--\":3638:3701   */\n      jump(tag_260)\n    tag_299:\n        /* \"--CODEGEN--\":3628:3701   */\n      swap9\n      pop\n        /* \"--CODEGEN--\":3513:3707   */\n      pop\n        /* \"--CODEGEN--\":3766:3768   */\n      0x60\n        /* \"--CODEGEN--\":3755:3764   */\n      dup12\n        /* \"--CODEGEN--\":3751:3769   */\n      add\n        /* \"--CODEGEN--\":3738:3770   */\n      calldataload\n        /* \"--CODEGEN--\":3790:3808   */\n      0xffffffffffffffff\n        /* \"--CODEGEN--\":3782:3788   */\n      dup2\n        /* \"--CODEGEN--\":3779:3809   */\n      gt\n        /* \"--CODEGEN--\":3776:3778   */\n      iszero\n      tag_300\n      jumpi\n        /* \"--CODEGEN--\":3822:3823   */\n      0x0\n        /* \"--CODEGEN--\":3819:3820   */\n      dup1\n        /* \"--CODEGEN--\":3812:3824   */\n      revert\n        /* \"--CODEGEN--\":3776:3778   */\n    tag_300:\n        /* \"--CODEGEN--\":3842:3905   */\n      tag_301\n        /* \"--CODEGEN--\":3897:3904   */\n      dup14\n        /* \"--CODEGEN--\":3888:3894   */\n      dup3\n        /* \"--CODEGEN--\":3877:3886   */\n      dup15\n        /* \"--CODEGEN--\":3873:3895   */\n      add\n        /* \"--CODEGEN--\":3842:3905   */\n      jump(tag_260)\n    tag_301:\n        /* \"--CODEGEN--\":3832:3905   */\n      swap8\n      pop\n        /* \"--CODEGEN--\":3717:3911   */\n      pop\n        /* \"--CODEGEN--\":3970:3973   */\n      0x80\n        /* \"--CODEGEN--\":3959:3968   */\n      dup12\n        /* \"--CODEGEN--\":3955:3974   */\n      add\n        /* \"--CODEGEN--\":3942:3975   */\n      calldataload\n        /* \"--CODEGEN--\":3995:4013   */\n      0xffffffffffffffff\n        /* \"--CODEGEN--\":3987:3993   */\n      dup2\n        /* \"--CODEGEN--\":3984:4014   */\n      gt\n        /* \"--CODEGEN--\":3981:3983   */\n      iszero\n      tag_302\n      jumpi\n        /* \"--CODEGEN--\":4027:4028   */\n      0x0\n        /* \"--CODEGEN--\":4024:4025   */\n      dup1\n        /* \"--CODEGEN--\":4017:4029   */\n      revert\n        /* \"--CODEGEN--\":3981:3983   */\n    tag_302:\n        /* \"--CODEGEN--\":4047:4110   */\n      tag_303\n        /* \"--CODEGEN--\":4102:4109   */\n      dup14\n        /* \"--CODEGEN--\":4093:4099   */\n      dup3\n        /* \"--CODEGEN--\":4082:4091   */\n      dup15\n        /* \"--CODEGEN--\":4078:4100   */\n      add\n        /* \"--CODEGEN--\":4047:4110   */\n      jump(tag_260)\n    tag_303:\n        /* \"--CODEGEN--\":4037:4110   */\n      swap7\n      pop\n        /* \"--CODEGEN--\":3921:4116   */\n      pop\n        /* \"--CODEGEN--\":4175:4178   */\n      0xa0\n        /* \"--CODEGEN--\":4164:4173   */\n      dup12\n        /* \"--CODEGEN--\":4160:4179   */\n      add\n        /* \"--CODEGEN--\":4147:4180   */\n      calldataload\n        /* \"--CODEGEN--\":4200:4218   */\n      0xffffffffffffffff\n        /* \"--CODEGEN--\":4192:4198   */\n      dup2\n        /* \"--CODEGEN--\":4189:4219   */\n      gt\n        /* \"--CODEGEN--\":4186:4188   */\n      iszero\n      tag_304\n      jumpi\n        /* \"--CODEGEN--\":4232:4233   */\n      0x0\n        /* \"--CODEGEN--\":4229:4230   */\n      dup1\n        /* \"--CODEGEN--\":4222:4234   */\n      revert\n        /* \"--CODEGEN--\":4186:4188   */\n    tag_304:\n        /* \"--CODEGEN--\":4252:4315   */\n      tag_305\n        /* \"--CODEGEN--\":4307:4314   */\n      dup14\n        /* \"--CODEGEN--\":4298:4304   */\n      dup3\n        /* \"--CODEGEN--\":4287:4296   */\n      dup15\n        /* \"--CODEGEN--\":4283:4305   */\n      add\n        /* \"--CODEGEN--\":4252:4315   */\n      jump(tag_260)\n    tag_305:\n        /* \"--CODEGEN--\":4242:4315   */\n      swap6\n      pop\n        /* \"--CODEGEN--\":4126:4321   */\n      pop\n        /* \"--CODEGEN--\":4380:4383   */\n      0xc0\n        /* \"--CODEGEN--\":4369:4378   */\n      dup12\n        /* \"--CODEGEN--\":4365:4384   */\n      add\n        /* \"--CODEGEN--\":4352:4385   */\n      calldataload\n        /* \"--CODEGEN--\":4405:4423   */\n      0xffffffffffffffff\n        /* \"--CODEGEN--\":4397:4403   */\n      dup2\n        /* \"--CODEGEN--\":4394:4424   */\n      gt\n        /* \"--CODEGEN--\":4391:4393   */\n      iszero\n      tag_306\n      jumpi\n        /* \"--CODEGEN--\":4437:4438   */\n      0x0\n        /* \"--CODEGEN--\":4434:4435   */\n      dup1\n        /* \"--CODEGEN--\":4427:4439   */\n      revert\n        /* \"--CODEGEN--\":4391:4393   */\n    tag_306:\n        /* \"--CODEGEN--\":4457:4520   */\n      tag_307\n        /* \"--CODEGEN--\":4512:4519   */\n      dup14\n        /* \"--CODEGEN--\":4503:4509   */\n      dup3\n        /* \"--CODEGEN--\":4492:4501   */\n      dup15\n        /* \"--CODEGEN--\":4488:4510   */\n      add\n        /* \"--CODEGEN--\":4457:4520   */\n      jump(tag_260)\n    tag_307:\n        /* \"--CODEGEN--\":4447:4520   */\n      swap5\n      pop\n        /* \"--CODEGEN--\":4331:4526   */\n      pop\n        /* \"--CODEGEN--\":4585:4588   */\n      0xe0\n        /* \"--CODEGEN--\":4574:4583   */\n      dup12\n        /* \"--CODEGEN--\":4570:4589   */\n      add\n        /* \"--CODEGEN--\":4557:4590   */\n      calldataload\n        /* \"--CODEGEN--\":4610:4628   */\n      0xffffffffffffffff\n        /* \"--CODEGEN--\":4602:4608   */\n      dup2\n        /* \"--CODEGEN--\":4599:4629   */\n      gt\n        /* \"--CODEGEN--\":4596:4598   */\n      iszero\n      tag_308\n      jumpi\n        /* \"--CODEGEN--\":4642:4643   */\n      0x0\n        /* \"--CODEGEN--\":4639:4640   */\n      dup1\n        /* \"--CODEGEN--\":4632:4644   */\n      revert\n        /* \"--CODEGEN--\":4596:4598   */\n    tag_308:\n        /* \"--CODEGEN--\":4662:4725   */\n      tag_309\n        /* \"--CODEGEN--\":4717:4724   */\n      dup14\n        /* \"--CODEGEN--\":4708:4714   */\n      dup3\n        /* \"--CODEGEN--\":4697:4706   */\n      dup15\n        /* \"--CODEGEN--\":4693:4715   */\n      add\n        /* \"--CODEGEN--\":4662:4725   */\n      jump(tag_260)\n    tag_309:\n        /* \"--CODEGEN--\":4652:4725   */\n      swap4\n      pop\n        /* \"--CODEGEN--\":4536:4731   */\n      pop\n        /* \"--CODEGEN--\":4790:4793   */\n      0x100\n        /* \"--CODEGEN--\":4779:4788   */\n      dup12\n        /* \"--CODEGEN--\":4775:4794   */\n      add\n        /* \"--CODEGEN--\":4762:4795   */\n      calldataload\n        /* \"--CODEGEN--\":4815:4833   */\n      0xffffffffffffffff\n        /* \"--CODEGEN--\":4807:4813   */\n      dup2\n        /* \"--CODEGEN--\":4804:4834   */\n      gt\n        /* \"--CODEGEN--\":4801:4803   */\n      iszero\n      tag_310\n      jumpi\n        /* \"--CODEGEN--\":4847:4848   */\n      0x0\n        /* \"--CODEGEN--\":4844:4845   */\n      dup1\n        /* \"--CODEGEN--\":4837:4849   */\n      revert\n        /* \"--CODEGEN--\":4801:4803   */\n    tag_310:\n        /* \"--CODEGEN--\":4867:4930   */\n      tag_311\n        /* \"--CODEGEN--\":4922:4929   */\n      dup14\n        /* \"--CODEGEN--\":4913:4919   */\n      dup3\n        /* \"--CODEGEN--\":4902:4911   */\n      dup15\n        /* \"--CODEGEN--\":4898:4920   */\n      add\n        /* \"--CODEGEN--\":4867:4930   */\n      jump(tag_260)\n    tag_311:\n        /* \"--CODEGEN--\":4857:4930   */\n      swap3\n      pop\n        /* \"--CODEGEN--\":4741:4936   */\n      pop\n        /* \"--CODEGEN--\":4995:4998   */\n      0x120\n        /* \"--CODEGEN--\":4984:4993   */\n      dup12\n        /* \"--CODEGEN--\":4980:4999   */\n      add\n        /* \"--CODEGEN--\":4967:5000   */\n      calldataload\n        /* \"--CODEGEN--\":5020:5038   */\n      0xffffffffffffffff\n        /* \"--CODEGEN--\":5012:5018   */\n      dup2\n        /* \"--CODEGEN--\":5009:5039   */\n      gt\n        /* \"--CODEGEN--\":5006:5008   */\n      iszero\n      tag_312\n      jumpi\n        /* \"--CODEGEN--\":5052:5053   */\n      0x0\n        /* \"--CODEGEN--\":5049:5050   */\n      dup1\n        /* \"--CODEGEN--\":5042:5054   */\n      revert\n        /* \"--CODEGEN--\":5006:5008   */\n    tag_312:\n        /* \"--CODEGEN--\":5072:5135   */\n      tag_313\n        /* \"--CODEGEN--\":5127:5134   */\n      dup14\n        /* \"--CODEGEN--\":5118:5124   */\n      dup3\n        /* \"--CODEGEN--\":5107:5116   */\n      dup15\n        /* \"--CODEGEN--\":5103:5125   */\n      add\n        /* \"--CODEGEN--\":5072:5135   */\n      jump(tag_260)\n    tag_313:\n        /* \"--CODEGEN--\":5062:5135   */\n      swap2\n      pop\n        /* \"--CODEGEN--\":4946:5141   */\n      pop\n        /* \"--CODEGEN--\":3133:5151   */\n      swap3\n      swap6\n      swap9\n      swap12\n      swap2\n      swap5\n      swap8\n      swap11\n      pop\n      swap3\n      swap6\n      swap9\n      pop\n      jump\n        /* \"--CODEGEN--\":5158:6895   */\n    tag_87:\n      0x0\n      dup1\n      0x0\n      dup1\n      0x0\n      dup1\n      0x0\n        /* \"--CODEGEN--\":5434:5437   */\n      0xe0\n        /* \"--CODEGEN--\":5422:5431   */\n      dup9\n        /* \"--CODEGEN--\":5413:5420   */\n      dup11\n        /* \"--CODEGEN--\":5409:5432   */\n      sub\n        /* \"--CODEGEN--\":5405:5438   */\n      slt\n        /* \"--CODEGEN--\":5402:5404   */\n      iszero\n      tag_315\n      jumpi\n        /* \"--CODEGEN--\":5451:5452   */\n      0x0\n        /* \"--CODEGEN--\":5448:5449   */\n      dup1\n        /* \"--CODEGEN--\":5441:5453   */\n      revert\n        /* \"--CODEGEN--\":5402:5404   */\n    tag_315:\n        /* \"--CODEGEN--\":5514:5515   */\n      0x0\n        /* \"--CODEGEN--\":5503:5512   */\n      dup9\n        /* \"--CODEGEN--\":5499:5516   */\n      add\n        /* \"--CODEGEN--\":5486:5517   */\n      calldataload\n        /* \"--CODEGEN--\":5537:5555   */\n      0xffffffffffffffff\n        /* \"--CODEGEN--\":5529:5535   */\n      dup2\n        /* \"--CODEGEN--\":5526:5556   */\n      gt\n        /* \"--CODEGEN--\":5523:5525   */\n      iszero\n      tag_316\n      jumpi\n        /* \"--CODEGEN--\":5569:5570   */\n      0x0\n        /* \"--CODEGEN--\":5566:5567   */\n      dup1\n        /* \"--CODEGEN--\":5559:5571   */\n      revert\n        /* \"--CODEGEN--\":5523:5525   */\n    tag_316:\n        /* \"--CODEGEN--\":5589:5652   */\n      tag_317\n        /* \"--CODEGEN--\":5644:5651   */\n      dup11\n        /* \"--CODEGEN--\":5635:5641   */\n      dup3\n        /* \"--CODEGEN--\":5624:5633   */\n      dup12\n        /* \"--CODEGEN--\":5620:5642   */\n      add\n        /* \"--CODEGEN--\":5589:5652   */\n      jump(tag_260)\n    tag_317:\n        /* \"--CODEGEN--\":5579:5652   */\n      swap8\n      pop\n        /* \"--CODEGEN--\":5465:5658   */\n      pop\n        /* \"--CODEGEN--\":5717:5719   */\n      0x20\n        /* \"--CODEGEN--\":5706:5715   */\n      dup9\n        /* \"--CODEGEN--\":5702:5720   */\n      add\n        /* \"--CODEGEN--\":5689:5721   */\n      calldataload\n        /* \"--CODEGEN--\":5741:5759   */\n      0xffffffffffffffff\n        /* \"--CODEGEN--\":5733:5739   */\n      dup2\n        /* \"--CODEGEN--\":5730:5760   */\n      gt\n        /* \"--CODEGEN--\":5727:5729   */\n      iszero\n      tag_318\n      jumpi\n        /* \"--CODEGEN--\":5773:5774   */\n      0x0\n        /* \"--CODEGEN--\":5770:5771   */\n      dup1\n        /* \"--CODEGEN--\":5763:5775   */\n      revert\n        /* \"--CODEGEN--\":5727:5729   */\n    tag_318:\n        /* \"--CODEGEN--\":5793:5856   */\n      tag_319\n        /* \"--CODEGEN--\":5848:5855   */\n      dup11\n        /* \"--CODEGEN--\":5839:5845   */\n      dup3\n        /* \"--CODEGEN--\":5828:5837   */\n      dup12\n        /* \"--CODEGEN--\":5824:5846   */\n      add\n        /* \"--CODEGEN--\":5793:5856   */\n      jump(tag_260)\n    tag_319:\n        /* \"--CODEGEN--\":5783:5856   */\n      swap7\n      pop\n        /* \"--CODEGEN--\":5668:5862   */\n      pop\n        /* \"--CODEGEN--\":5921:5923   */\n      0x40\n        /* \"--CODEGEN--\":5910:5919   */\n      dup9\n        /* \"--CODEGEN--\":5906:5924   */\n      add\n        /* \"--CODEGEN--\":5893:5925   */\n      calldataload\n        /* \"--CODEGEN--\":5945:5963   */\n      0xffffffffffffffff\n        /* \"--CODEGEN--\":5937:5943   */\n      dup2\n        /* \"--CODEGEN--\":5934:5964   */\n      gt\n        /* \"--CODEGEN--\":5931:5933   */\n      iszero\n      tag_320\n      jumpi\n        /* \"--CODEGEN--\":5977:5978   */\n      0x0\n        /* \"--CODEGEN--\":5974:5975   */\n      dup1\n        /* \"--CODEGEN--\":5967:5979   */\n      revert\n        /* \"--CODEGEN--\":5931:5933   */\n    tag_320:\n        /* \"--CODEGEN--\":5997:6060   */\n      tag_321\n        /* \"--CODEGEN--\":6052:6059   */\n      dup11\n        /* \"--CODEGEN--\":6043:6049   */\n      dup3\n        /* \"--CODEGEN--\":6032:6041   */\n      dup12\n        /* \"--CODEGEN--\":6028:6050   */\n      add\n        /* \"--CODEGEN--\":5997:6060   */\n      jump(tag_260)\n    tag_321:\n        /* \"--CODEGEN--\":5987:6060   */\n      swap6\n      pop\n        /* \"--CODEGEN--\":5872:6066   */\n      pop\n        /* \"--CODEGEN--\":6125:6127   */\n      0x60\n        /* \"--CODEGEN--\":6114:6123   */\n      dup9\n        /* \"--CODEGEN--\":6110:6128   */\n      add\n        /* \"--CODEGEN--\":6097:6129   */\n      calldataload\n        /* \"--CODEGEN--\":6149:6167   */\n      0xffffffffffffffff\n        /* \"--CODEGEN--\":6141:6147   */\n      dup2\n        /* \"--CODEGEN--\":6138:6168   */\n      gt\n        /* \"--CODEGEN--\":6135:6137   */\n      iszero\n      tag_322\n      jumpi\n        /* \"--CODEGEN--\":6181:6182   */\n      0x0\n        /* \"--CODEGEN--\":6178:6179   */\n      dup1\n        /* \"--CODEGEN--\":6171:6183   */\n      revert\n        /* \"--CODEGEN--\":6135:6137   */\n    tag_322:\n        /* \"--CODEGEN--\":6201:6264   */\n      tag_323\n        /* \"--CODEGEN--\":6256:6263   */\n      dup11\n        /* \"--CODEGEN--\":6247:6253   */\n      dup3\n        /* \"--CODEGEN--\":6236:6245   */\n      dup12\n        /* \"--CODEGEN--\":6232:6254   */\n      add\n        /* \"--CODEGEN--\":6201:6264   */\n      jump(tag_260)\n    tag_323:\n        /* \"--CODEGEN--\":6191:6264   */\n      swap5\n      pop\n        /* \"--CODEGEN--\":6076:6270   */\n      pop\n        /* \"--CODEGEN--\":6329:6332   */\n      0x80\n        /* \"--CODEGEN--\":6318:6327   */\n      dup9\n        /* \"--CODEGEN--\":6314:6333   */\n      add\n        /* \"--CODEGEN--\":6301:6334   */\n      calldataload\n        /* \"--CODEGEN--\":6354:6372   */\n      0xffffffffffffffff\n        /* \"--CODEGEN--\":6346:6352   */\n      dup2\n        /* \"--CODEGEN--\":6343:6373   */\n      gt\n        /* \"--CODEGEN--\":6340:6342   */\n      iszero\n      tag_324\n      jumpi\n        /* \"--CODEGEN--\":6386:6387   */\n      0x0\n        /* \"--CODEGEN--\":6383:6384   */\n      dup1\n        /* \"--CODEGEN--\":6376:6388   */\n      revert\n        /* \"--CODEGEN--\":6340:6342   */\n    tag_324:\n        /* \"--CODEGEN--\":6406:6469   */\n      tag_325\n        /* \"--CODEGEN--\":6461:6468   */\n      dup11\n        /* \"--CODEGEN--\":6452:6458   */\n      dup3\n        /* \"--CODEGEN--\":6441:6450   */\n      dup12\n        /* \"--CODEGEN--\":6437:6459   */\n      add\n        /* \"--CODEGEN--\":6406:6469   */\n      jump(tag_260)\n    tag_325:\n        /* \"--CODEGEN--\":6396:6469   */\n      swap4\n      pop\n        /* \"--CODEGEN--\":6280:6475   */\n      pop\n        /* \"--CODEGEN--\":6534:6537   */\n      0xa0\n        /* \"--CODEGEN--\":6523:6532   */\n      dup9\n        /* \"--CODEGEN--\":6519:6538   */\n      add\n        /* \"--CODEGEN--\":6506:6539   */\n      calldataload\n        /* \"--CODEGEN--\":6559:6577   */\n      0xffffffffffffffff\n        /* \"--CODEGEN--\":6551:6557   */\n      dup2\n        /* \"--CODEGEN--\":6548:6578   */\n      gt\n        /* \"--CODEGEN--\":6545:6547   */\n      iszero\n      tag_326\n      jumpi\n        /* \"--CODEGEN--\":6591:6592   */\n      0x0\n        /* \"--CODEGEN--\":6588:6589   */\n      dup1\n        /* \"--CODEGEN--\":6581:6593   */\n      revert\n        /* \"--CODEGEN--\":6545:6547   */\n    tag_326:\n        /* \"--CODEGEN--\":6611:6674   */\n      tag_327\n        /* \"--CODEGEN--\":6666:6673   */\n      dup11\n        /* \"--CODEGEN--\":6657:6663   */\n      dup3\n        /* \"--CODEGEN--\":6646:6655   */\n      dup12\n        /* \"--CODEGEN--\":6642:6664   */\n      add\n        /* \"--CODEGEN--\":6611:6674   */\n      jump(tag_260)\n    tag_327:\n        /* \"--CODEGEN--\":6601:6674   */\n      swap3\n      pop\n        /* \"--CODEGEN--\":6485:6680   */\n      pop\n        /* \"--CODEGEN--\":6739:6742   */\n      0xc0\n        /* \"--CODEGEN--\":6728:6737   */\n      dup9\n        /* \"--CODEGEN--\":6724:6743   */\n      add\n        /* \"--CODEGEN--\":6711:6744   */\n      calldataload\n        /* \"--CODEGEN--\":6764:6782   */\n      0xffffffffffffffff\n        /* \"--CODEGEN--\":6756:6762   */\n      dup2\n        /* \"--CODEGEN--\":6753:6783   */\n      gt\n        /* \"--CODEGEN--\":6750:6752   */\n      iszero\n      tag_328\n      jumpi\n        /* \"--CODEGEN--\":6796:6797   */\n      0x0\n        /* \"--CODEGEN--\":6793:6794   */\n      dup1\n        /* \"--CODEGEN--\":6786:6798   */\n      revert\n        /* \"--CODEGEN--\":6750:6752   */\n    tag_328:\n        /* \"--CODEGEN--\":6816:6879   */\n      tag_329\n        /* \"--CODEGEN--\":6871:6878   */\n      dup11\n        /* \"--CODEGEN--\":6862:6868   */\n      dup3\n        /* \"--CODEGEN--\":6851:6860   */\n      dup12\n        /* \"--CODEGEN--\":6847:6869   */\n      add\n        /* \"--CODEGEN--\":6816:6879   */\n      jump(tag_260)\n    tag_329:\n        /* \"--CODEGEN--\":6806:6879   */\n      swap2\n      pop\n        /* \"--CODEGEN--\":6690:6885   */\n      pop\n        /* \"--CODEGEN--\":5396:6895   */\n      swap3\n      swap6\n      swap9\n      swap2\n      swap5\n      swap8\n      pop\n      swap3\n      swap6\n      pop\n      jump\n        /* \"--CODEGEN--\":6902:7143   */\n    tag_49:\n      0x0\n        /* \"--CODEGEN--\":7006:7008   */\n      0x20\n        /* \"--CODEGEN--\":6994:7003   */\n      dup3\n        /* \"--CODEGEN--\":6985:6992   */\n      dup5\n        /* \"--CODEGEN--\":6981:7004   */\n      sub\n        /* \"--CODEGEN--\":6977:7009   */\n      slt\n        /* \"--CODEGEN--\":6974:6976   */\n      iszero\n      tag_331\n      jumpi\n        /* \"--CODEGEN--\":7022:7023   */\n      0x0\n        /* \"--CODEGEN--\":7019:7020   */\n      dup1\n        /* \"--CODEGEN--\":7012:7024   */\n      revert\n        /* \"--CODEGEN--\":6974:6976   */\n    tag_331:\n        /* \"--CODEGEN--\":7057:7058   */\n      0x0\n        /* \"--CODEGEN--\":7074:7127   */\n      tag_332\n        /* \"--CODEGEN--\":7119:7126   */\n      dup5\n        /* \"--CODEGEN--\":7110:7116   */\n      dup3\n        /* \"--CODEGEN--\":7099:7108   */\n      dup6\n        /* \"--CODEGEN--\":7095:7117   */\n      add\n        /* \"--CODEGEN--\":7074:7127   */\n      jump(tag_270)\n    tag_332:\n        /* \"--CODEGEN--\":7064:7127   */\n      swap2\n      pop\n        /* \"--CODEGEN--\":7036:7133   */\n      pop\n        /* \"--CODEGEN--\":6968:7143   */\n      swap3\n      swap2\n      pop\n      pop\n      jump\n        /* \"--CODEGEN--\":7150:7260   */\n    tag_334:\n        /* \"--CODEGEN--\":7223:7254   */\n      tag_335\n        /* \"--CODEGEN--\":7248:7253   */\n      dup2\n        /* \"--CODEGEN--\":7223:7254   */\n      jump(tag_336)\n    tag_335:\n        /* \"--CODEGEN--\":7218:7221   */\n      dup3\n        /* \"--CODEGEN--\":7211:7255   */\n      mstore\n        /* \"--CODEGEN--\":7205:7260   */\n      pop\n      pop\n      jump\n        /* \"--CODEGEN--\":7298:7888   */\n    tag_338:\n      0x0\n        /* \"--CODEGEN--\":7433:7487   */\n      tag_339\n        /* \"--CODEGEN--\":7481:7486   */\n      dup3\n        /* \"--CODEGEN--\":7433:7487   */\n      jump(tag_340)\n    tag_339:\n        /* \"--CODEGEN--\":7505:7511   */\n      dup1\n        /* \"--CODEGEN--\":7500:7503   */\n      dup5\n        /* \"--CODEGEN--\":7493:7512   */\n      mstore\n        /* \"--CODEGEN--\":7529:7533   */\n      0x20\n        /* \"--CODEGEN--\":7524:7527   */\n      dup5\n        /* \"--CODEGEN--\":7520:7534   */\n      add\n        /* \"--CODEGEN--\":7513:7534   */\n      swap4\n      pop\n        /* \"--CODEGEN--\":7574:7630   */\n      tag_341\n        /* \"--CODEGEN--\":7624:7629   */\n      dup4\n        /* \"--CODEGEN--\":7574:7630   */\n      jump(tag_342)\n    tag_341:\n        /* \"--CODEGEN--\":7651:7652   */\n      0x0\n        /* \"--CODEGEN--\":7636:7866   */\n    tag_343:\n        /* \"--CODEGEN--\":7661:7667   */\n      dup3\n        /* \"--CODEGEN--\":7658:7659   */\n      dup2\n        /* \"--CODEGEN--\":7655:7668   */\n      lt\n        /* \"--CODEGEN--\":7636:7866   */\n      iszero\n      tag_344\n      jumpi\n        /* \"--CODEGEN--\":7701:7754   */\n      tag_346\n        /* \"--CODEGEN--\":7750:7753   */\n      dup7\n        /* \"--CODEGEN--\":7741:7747   */\n      dup4\n        /* \"--CODEGEN--\":7735:7748   */\n      mload\n        /* \"--CODEGEN--\":7701:7754   */\n      jump(tag_334)\n    tag_346:\n        /* \"--CODEGEN--\":7771:7831   */\n      tag_347\n        /* \"--CODEGEN--\":7824:7830   */\n      dup3\n        /* \"--CODEGEN--\":7771:7831   */\n      jump(tag_348)\n    tag_347:\n        /* \"--CODEGEN--\":7761:7831   */\n      swap2\n      pop\n        /* \"--CODEGEN--\":7854:7858   */\n      0x20\n        /* \"--CODEGEN--\":7849:7852   */\n      dup7\n        /* \"--CODEGEN--\":7845:7859   */\n      add\n        /* \"--CODEGEN--\":7838:7859   */\n      swap6\n      pop\n        /* \"--CODEGEN--\":7683:7684   */\n      0x1\n        /* \"--CODEGEN--\":7680:7681   */\n      dup2\n        /* \"--CODEGEN--\":7676:7685   */\n      add\n        /* \"--CODEGEN--\":7671:7685   */\n      swap1\n      pop\n        /* \"--CODEGEN--\":7636:7866   */\n      jump(tag_343)\n    tag_344:\n        /* \"--CODEGEN--\":7640:7654   */\n      pop\n        /* \"--CODEGEN--\":7879:7882   */\n      dup5\n        /* \"--CODEGEN--\":7872:7882   */\n      swap3\n      pop\n        /* \"--CODEGEN--\":7412:7888   */\n      pop\n      pop\n      swap3\n      swap2\n      pop\n      pop\n      jump\n        /* \"--CODEGEN--\":7896:7997   */\n    tag_350:\n        /* \"--CODEGEN--\":7963:7991   */\n      tag_351\n        /* \"--CODEGEN--\":7985:7990   */\n      dup2\n        /* \"--CODEGEN--\":7963:7991   */\n      jump(tag_352)\n    tag_351:\n        /* \"--CODEGEN--\":7958:7961   */\n      dup3\n        /* \"--CODEGEN--\":7951:7992   */\n      mstore\n        /* \"--CODEGEN--\":7945:7997   */\n      pop\n      pop\n      jump\n        /* \"--CODEGEN--\":8004:8304   */\n    tag_354:\n      0x0\n        /* \"--CODEGEN--\":8106:8145   */\n      tag_355\n        /* \"--CODEGEN--\":8139:8144   */\n      dup3\n        /* \"--CODEGEN--\":8106:8145   */\n      jump(tag_356)\n    tag_355:\n        /* \"--CODEGEN--\":8162:8168   */\n      dup1\n        /* \"--CODEGEN--\":8157:8160   */\n      dup5\n        /* \"--CODEGEN--\":8150:8169   */\n      mstore\n        /* \"--CODEGEN--\":8174:8237   */\n      tag_357\n        /* \"--CODEGEN--\":8230:8236   */\n      dup2\n        /* \"--CODEGEN--\":8223:8227   */\n      0x20\n        /* \"--CODEGEN--\":8218:8221   */\n      dup7\n        /* \"--CODEGEN--\":8214:8228   */\n      add\n        /* \"--CODEGEN--\":8207:8211   */\n      0x20\n        /* \"--CODEGEN--\":8200:8205   */\n      dup7\n        /* \"--CODEGEN--\":8196:8212   */\n      add\n        /* \"--CODEGEN--\":8174:8237   */\n      jump(tag_358)\n    tag_357:\n        /* \"--CODEGEN--\":8269:8298   */\n      tag_359\n        /* \"--CODEGEN--\":8291:8297   */\n      dup2\n        /* \"--CODEGEN--\":8269:8298   */\n      jump(tag_360)\n    tag_359:\n        /* \"--CODEGEN--\":8262:8266   */\n      0x20\n        /* \"--CODEGEN--\":8257:8260   */\n      dup6\n        /* \"--CODEGEN--\":8253:8267   */\n      add\n        /* \"--CODEGEN--\":8249:8299   */\n      add\n        /* \"--CODEGEN--\":8242:8299   */\n      swap2\n      pop\n        /* \"--CODEGEN--\":8086:8304   */\n      pop\n      swap3\n      swap2\n      pop\n      pop\n      jump\n        /* \"--CODEGEN--\":8311:8421   */\n    tag_362:\n        /* \"--CODEGEN--\":8384:8415   */\n      tag_363\n        /* \"--CODEGEN--\":8409:8414   */\n      dup2\n        /* \"--CODEGEN--\":8384:8415   */\n      jump(tag_364)\n    tag_363:\n        /* \"--CODEGEN--\":8379:8382   */\n      dup3\n        /* \"--CODEGEN--\":8372:8416   */\n      mstore\n        /* \"--CODEGEN--\":8366:8421   */\n      pop\n      pop\n      jump\n        /* \"--CODEGEN--\":8428:8621   */\n    tag_52:\n      0x0\n        /* \"--CODEGEN--\":8536:8538   */\n      0x20\n        /* \"--CODEGEN--\":8525:8534   */\n      dup3\n        /* \"--CODEGEN--\":8521:8539   */\n      add\n        /* \"--CODEGEN--\":8513:8539   */\n      swap1\n      pop\n        /* \"--CODEGEN--\":8550:8611   */\n      tag_366\n        /* \"--CODEGEN--\":8608:8609   */\n      0x0\n        /* \"--CODEGEN--\":8597:8606   */\n      dup4\n        /* \"--CODEGEN--\":8593:8610   */\n      add\n        /* \"--CODEGEN--\":8584:8590   */\n      dup5\n        /* \"--CODEGEN--\":8550:8611   */\n      jump(tag_334)\n    tag_366:\n        /* \"--CODEGEN--\":8507:8621   */\n      swap3\n      swap2\n      pop\n      pop\n      jump\n        /* \"--CODEGEN--\":8628:8969   */\n    tag_27:\n      0x0\n        /* \"--CODEGEN--\":8786:8788   */\n      0x20\n        /* \"--CODEGEN--\":8775:8784   */\n      dup3\n        /* \"--CODEGEN--\":8771:8789   */\n      add\n        /* \"--CODEGEN--\":8763:8789   */\n      swap1\n      pop\n        /* \"--CODEGEN--\":8836:8845   */\n      dup2\n        /* \"--CODEGEN--\":8830:8834   */\n      dup2\n        /* \"--CODEGEN--\":8826:8846   */\n      sub\n        /* \"--CODEGEN--\":8822:8823   */\n      0x0\n        /* \"--CODEGEN--\":8811:8820   */\n      dup4\n        /* \"--CODEGEN--\":8807:8824   */\n      add\n        /* \"--CODEGEN--\":8800:8847   */\n      mstore\n        /* \"--CODEGEN--\":8861:8959   */\n      tag_368\n        /* \"--CODEGEN--\":8954:8958   */\n      dup2\n        /* \"--CODEGEN--\":8945:8951   */\n      dup5\n        /* \"--CODEGEN--\":8861:8959   */\n      jump(tag_338)\n    tag_368:\n        /* \"--CODEGEN--\":8853:8959   */\n      swap1\n      pop\n        /* \"--CODEGEN--\":8757:8969   */\n      swap3\n      swap2\n      pop\n      pop\n      jump\n        /* \"--CODEGEN--\":8976:9157   */\n    tag_34:\n      0x0\n        /* \"--CODEGEN--\":9078:9080   */\n      0x20\n        /* \"--CODEGEN--\":9067:9076   */\n      dup3\n        /* \"--CODEGEN--\":9063:9081   */\n      add\n        /* \"--CODEGEN--\":9055:9081   */\n      swap1\n      pop\n        /* \"--CODEGEN--\":9092:9147   */\n      tag_370\n        /* \"--CODEGEN--\":9144:9145   */\n      0x0\n        /* \"--CODEGEN--\":9133:9142   */\n      dup4\n        /* \"--CODEGEN--\":9129:9146   */\n      add\n        /* \"--CODEGEN--\":9120:9126   */\n      dup5\n        /* \"--CODEGEN--\":9092:9147   */\n      jump(tag_350)\n    tag_370:\n        /* \"--CODEGEN--\":9049:9157   */\n      swap3\n      swap2\n      pop\n      pop\n      jump\n        /* \"--CODEGEN--\":9164:10393   */\n    tag_40:\n      0x0\n        /* \"--CODEGEN--\":9532:9535   */\n      0xc0\n        /* \"--CODEGEN--\":9521:9530   */\n      dup3\n        /* \"--CODEGEN--\":9517:9536   */\n      add\n        /* \"--CODEGEN--\":9509:9536   */\n      swap1\n      pop\n        /* \"--CODEGEN--\":9583:9592   */\n      dup2\n        /* \"--CODEGEN--\":9577:9581   */\n      dup2\n        /* \"--CODEGEN--\":9573:9593   */\n      sub\n        /* \"--CODEGEN--\":9569:9570   */\n      0x0\n        /* \"--CODEGEN--\":9558:9567   */\n      dup4\n        /* \"--CODEGEN--\":9554:9571   */\n      add\n        /* \"--CODEGEN--\":9547:9594   */\n      mstore\n        /* \"--CODEGEN--\":9608:9676   */\n      tag_372\n        /* \"--CODEGEN--\":9671:9675   */\n      dup2\n        /* \"--CODEGEN--\":9662:9668   */\n      dup10\n        /* \"--CODEGEN--\":9608:9676   */\n      jump(tag_354)\n    tag_372:\n        /* \"--CODEGEN--\":9600:9676   */\n      swap1\n      pop\n        /* \"--CODEGEN--\":9724:9733   */\n      dup2\n        /* \"--CODEGEN--\":9718:9722   */\n      dup2\n        /* \"--CODEGEN--\":9714:9734   */\n      sub\n        /* \"--CODEGEN--\":9709:9711   */\n      0x20\n        /* \"--CODEGEN--\":9698:9707   */\n      dup4\n        /* \"--CODEGEN--\":9694:9712   */\n      add\n        /* \"--CODEGEN--\":9687:9735   */\n      mstore\n        /* \"--CODEGEN--\":9749:9817   */\n      tag_373\n        /* \"--CODEGEN--\":9812:9816   */\n      dup2\n        /* \"--CODEGEN--\":9803:9809   */\n      dup9\n        /* \"--CODEGEN--\":9749:9817   */\n      jump(tag_354)\n    tag_373:\n        /* \"--CODEGEN--\":9741:9817   */\n      swap1\n      pop\n        /* \"--CODEGEN--\":9865:9874   */\n      dup2\n        /* \"--CODEGEN--\":9859:9863   */\n      dup2\n        /* \"--CODEGEN--\":9855:9875   */\n      sub\n        /* \"--CODEGEN--\":9850:9852   */\n      0x40\n        /* \"--CODEGEN--\":9839:9848   */\n      dup4\n        /* \"--CODEGEN--\":9835:9853   */\n      add\n        /* \"--CODEGEN--\":9828:9876   */\n      mstore\n        /* \"--CODEGEN--\":9890:9958   */\n      tag_374\n        /* \"--CODEGEN--\":9953:9957   */\n      dup2\n        /* \"--CODEGEN--\":9944:9950   */\n      dup8\n        /* \"--CODEGEN--\":9890:9958   */\n      jump(tag_354)\n    tag_374:\n        /* \"--CODEGEN--\":9882:9958   */\n      swap1\n      pop\n        /* \"--CODEGEN--\":10006:10015   */\n      dup2\n        /* \"--CODEGEN--\":10000:10004   */\n      dup2\n        /* \"--CODEGEN--\":9996:10016   */\n      sub\n        /* \"--CODEGEN--\":9991:9993   */\n      0x60\n        /* \"--CODEGEN--\":9980:9989   */\n      dup4\n        /* \"--CODEGEN--\":9976:9994   */\n      add\n        /* \"--CODEGEN--\":9969:10017   */\n      mstore\n        /* \"--CODEGEN--\":10031:10099   */\n      tag_375\n        /* \"--CODEGEN--\":10094:10098   */\n      dup2\n        /* \"--CODEGEN--\":10085:10091   */\n      dup7\n        /* \"--CODEGEN--\":10031:10099   */\n      jump(tag_354)\n    tag_375:\n        /* \"--CODEGEN--\":10023:10099   */\n      swap1\n      pop\n        /* \"--CODEGEN--\":10148:10157   */\n      dup2\n        /* \"--CODEGEN--\":10142:10146   */\n      dup2\n        /* \"--CODEGEN--\":10138:10158   */\n      sub\n        /* \"--CODEGEN--\":10132:10135   */\n      0x80\n        /* \"--CODEGEN--\":10121:10130   */\n      dup4\n        /* \"--CODEGEN--\":10117:10136   */\n      add\n        /* \"--CODEGEN--\":10110:10159   */\n      mstore\n        /* \"--CODEGEN--\":10173:10241   */\n      tag_376\n        /* \"--CODEGEN--\":10236:10240   */\n      dup2\n        /* \"--CODEGEN--\":10227:10233   */\n      dup6\n        /* \"--CODEGEN--\":10173:10241   */\n      jump(tag_354)\n    tag_376:\n        /* \"--CODEGEN--\":10165:10241   */\n      swap1\n      pop\n        /* \"--CODEGEN--\":10290:10299   */\n      dup2\n        /* \"--CODEGEN--\":10284:10288   */\n      dup2\n        /* \"--CODEGEN--\":10280:10300   */\n      sub\n        /* \"--CODEGEN--\":10274:10277   */\n      0xa0\n        /* \"--CODEGEN--\":10263:10272   */\n      dup4\n        /* \"--CODEGEN--\":10259:10278   */\n      add\n        /* \"--CODEGEN--\":10252:10301   */\n      mstore\n        /* \"--CODEGEN--\":10315:10383   */\n      tag_377\n        /* \"--CODEGEN--\":10378:10382   */\n      dup2\n        /* \"--CODEGEN--\":10369:10375   */\n      dup5\n        /* \"--CODEGEN--\":10315:10383   */\n      jump(tag_354)\n    tag_377:\n        /* \"--CODEGEN--\":10307:10383   */\n      swap1\n      pop\n        /* \"--CODEGEN--\":9503:10393   */\n      swap8\n      swap7\n      pop\n      pop\n      pop\n      pop\n      pop\n      pop\n      pop\n      jump\n        /* \"--CODEGEN--\":10400:11819   */\n    tag_122:\n      0x0\n        /* \"--CODEGEN--\":10816:10819   */\n      0xe0\n        /* \"--CODEGEN--\":10805:10814   */\n      dup3\n        /* \"--CODEGEN--\":10801:10820   */\n      add\n        /* \"--CODEGEN--\":10793:10820   */\n      swap1\n      pop\n        /* \"--CODEGEN--\":10867:10876   */\n      dup2\n        /* \"--CODEGEN--\":10861:10865   */\n      dup2\n        /* \"--CODEGEN--\":10857:10877   */\n      sub\n        /* \"--CODEGEN--\":10853:10854   */\n      0x0\n        /* \"--CODEGEN--\":10842:10851   */\n      dup4\n        /* \"--CODEGEN--\":10838:10855   */\n      add\n        /* \"--CODEGEN--\":10831:10878   */\n      mstore\n        /* \"--CODEGEN--\":10892:10960   */\n      tag_379\n        /* \"--CODEGEN--\":10955:10959   */\n      dup2\n        /* \"--CODEGEN--\":10946:10952   */\n      dup11\n        /* \"--CODEGEN--\":10892:10960   */\n      jump(tag_354)\n    tag_379:\n        /* \"--CODEGEN--\":10884:10960   */\n      swap1\n      pop\n        /* \"--CODEGEN--\":11008:11017   */\n      dup2\n        /* \"--CODEGEN--\":11002:11006   */\n      dup2\n        /* \"--CODEGEN--\":10998:11018   */\n      sub\n        /* \"--CODEGEN--\":10993:10995   */\n      0x20\n        /* \"--CODEGEN--\":10982:10991   */\n      dup4\n        /* \"--CODEGEN--\":10978:10996   */\n      add\n        /* \"--CODEGEN--\":10971:11019   */\n      mstore\n        /* \"--CODEGEN--\":11033:11101   */\n      tag_380\n        /* \"--CODEGEN--\":11096:11100   */\n      dup2\n        /* \"--CODEGEN--\":11087:11093   */\n      dup10\n        /* \"--CODEGEN--\":11033:11101   */\n      jump(tag_354)\n    tag_380:\n        /* \"--CODEGEN--\":11025:11101   */\n      swap1\n      pop\n        /* \"--CODEGEN--\":11149:11158   */\n      dup2\n        /* \"--CODEGEN--\":11143:11147   */\n      dup2\n        /* \"--CODEGEN--\":11139:11159   */\n      sub\n        /* \"--CODEGEN--\":11134:11136   */\n      0x40\n        /* \"--CODEGEN--\":11123:11132   */\n      dup4\n        /* \"--CODEGEN--\":11119:11137   */\n      add\n        /* \"--CODEGEN--\":11112:11160   */\n      mstore\n        /* \"--CODEGEN--\":11174:11242   */\n      tag_381\n        /* \"--CODEGEN--\":11237:11241   */\n      dup2\n        /* \"--CODEGEN--\":11228:11234   */\n      dup9\n        /* \"--CODEGEN--\":11174:11242   */\n      jump(tag_354)\n    tag_381:\n        /* \"--CODEGEN--\":11166:11242   */\n      swap1\n      pop\n        /* \"--CODEGEN--\":11290:11299   */\n      dup2\n        /* \"--CODEGEN--\":11284:11288   */\n      dup2\n        /* \"--CODEGEN--\":11280:11300   */\n      sub\n        /* \"--CODEGEN--\":11275:11277   */\n      0x60\n        /* \"--CODEGEN--\":11264:11273   */\n      dup4\n        /* \"--CODEGEN--\":11260:11278   */\n      add\n        /* \"--CODEGEN--\":11253:11301   */\n      mstore\n        /* \"--CODEGEN--\":11315:11383   */\n      tag_382\n        /* \"--CODEGEN--\":11378:11382   */\n      dup2\n        /* \"--CODEGEN--\":11369:11375   */\n      dup8\n        /* \"--CODEGEN--\":11315:11383   */\n      jump(tag_354)\n    tag_382:\n        /* \"--CODEGEN--\":11307:11383   */\n      swap1\n      pop\n        /* \"--CODEGEN--\":11432:11441   */\n      dup2\n        /* \"--CODEGEN--\":11426:11430   */\n      dup2\n        /* \"--CODEGEN--\":11422:11442   */\n      sub\n        /* \"--CODEGEN--\":11416:11419   */\n      0x80\n        /* \"--CODEGEN--\":11405:11414   */\n      dup4\n        /* \"--CODEGEN--\":11401:11420   */\n      add\n        /* \"--CODEGEN--\":11394:11443   */\n      mstore\n        /* \"--CODEGEN--\":11457:11525   */\n      tag_383\n        /* \"--CODEGEN--\":11520:11524   */\n      dup2\n        /* \"--CODEGEN--\":11511:11517   */\n      dup7\n        /* \"--CODEGEN--\":11457:11525   */\n      jump(tag_354)\n    tag_383:\n        /* \"--CODEGEN--\":11449:11525   */\n      swap1\n      pop\n        /* \"--CODEGEN--\":11574:11583   */\n      dup2\n        /* \"--CODEGEN--\":11568:11572   */\n      dup2\n        /* \"--CODEGEN--\":11564:11584   */\n      sub\n        /* \"--CODEGEN--\":11558:11561   */\n      0xa0\n        /* \"--CODEGEN--\":11547:11556   */\n      dup4\n        /* \"--CODEGEN--\":11543:11562   */\n      add\n        /* \"--CODEGEN--\":11536:11585   */\n      mstore\n        /* \"--CODEGEN--\":11599:11667   */\n      tag_384\n        /* \"--CODEGEN--\":11662:11666   */\n      dup2\n        /* \"--CODEGEN--\":11653:11659   */\n      dup6\n        /* \"--CODEGEN--\":11599:11667   */\n      jump(tag_354)\n    tag_384:\n        /* \"--CODEGEN--\":11591:11667   */\n      swap1\n      pop\n        /* \"--CODEGEN--\":11716:11725   */\n      dup2\n        /* \"--CODEGEN--\":11710:11714   */\n      dup2\n        /* \"--CODEGEN--\":11706:11726   */\n      sub\n        /* \"--CODEGEN--\":11700:11703   */\n      0xc0\n        /* \"--CODEGEN--\":11689:11698   */\n      dup4\n        /* \"--CODEGEN--\":11685:11704   */\n      add\n        /* \"--CODEGEN--\":11678:11727   */\n      mstore\n        /* \"--CODEGEN--\":11741:11809   */\n      tag_385\n        /* \"--CODEGEN--\":11804:11808   */\n      dup2\n        /* \"--CODEGEN--\":11795:11801   */\n      dup5\n        /* \"--CODEGEN--\":11741:11809   */\n      jump(tag_354)\n    tag_385:\n        /* \"--CODEGEN--\":11733:11809   */\n      swap1\n      pop\n        /* \"--CODEGEN--\":10787:11819   */\n      swap9\n      swap8\n      pop\n      pop\n      pop\n      pop\n      pop\n      pop\n      pop\n      pop\n      jump\n        /* \"--CODEGEN--\":11826:12019   */\n    tag_45:\n      0x0\n        /* \"--CODEGEN--\":11934:11936   */\n      0x20\n        /* \"--CODEGEN--\":11923:11932   */\n      dup3\n        /* \"--CODEGEN--\":11919:11937   */\n      add\n        /* \"--CODEGEN--\":11911:11937   */\n      swap1\n      pop\n        /* \"--CODEGEN--\":11948:12009   */\n      tag_387\n        /* \"--CODEGEN--\":12006:12007   */\n      0x0\n        /* \"--CODEGEN--\":11995:12004   */\n      dup4\n        /* \"--CODEGEN--\":11991:12008   */\n      add\n        /* \"--CODEGEN--\":11982:11988   */\n      dup5\n        /* \"--CODEGEN--\":11948:12009   */\n      jump(tag_362)\n    tag_387:\n        /* \"--CODEGEN--\":11905:12019   */\n      swap3\n      swap2\n      pop\n      pop\n      jump\n        /* \"--CODEGEN--\":12026:12282   */\n    tag_265:\n      0x0\n        /* \"--CODEGEN--\":12088:12090   */\n      0x40\n        /* \"--CODEGEN--\":12082:12091   */\n      mload\n        /* \"--CODEGEN--\":12072:12091   */\n      swap1\n      pop\n        /* \"--CODEGEN--\":12126:12130   */\n      dup2\n        /* \"--CODEGEN--\":12118:12124   */\n      dup2\n        /* \"--CODEGEN--\":12114:12131   */\n      add\n        /* \"--CODEGEN--\":12225:12231   */\n      dup2\n        /* \"--CODEGEN--\":12213:12223   */\n      dup2\n        /* \"--CODEGEN--\":12210:12232   */\n      lt\n        /* \"--CODEGEN--\":12189:12207   */\n      0xffffffffffffffff\n        /* \"--CODEGEN--\":12177:12187   */\n      dup3\n        /* \"--CODEGEN--\":12174:12208   */\n      gt\n        /* \"--CODEGEN--\":12171:12233   */\n      or\n        /* \"--CODEGEN--\":12168:12170   */\n      iszero\n      tag_389\n      jumpi\n        /* \"--CODEGEN--\":12246:12247   */\n      0x0\n        /* \"--CODEGEN--\":12243:12244   */\n      dup1\n        /* \"--CODEGEN--\":12236:12248   */\n      revert\n        /* \"--CODEGEN--\":12168:12170   */\n    tag_389:\n        /* \"--CODEGEN--\":12266:12276   */\n      dup1\n        /* \"--CODEGEN--\":12262:12264   */\n      0x40\n        /* \"--CODEGEN--\":12255:12277   */\n      mstore\n        /* \"--CODEGEN--\":12066:12282   */\n      pop\n      swap2\n      swap1\n      pop\n      jump\n        /* \"--CODEGEN--\":12289:12548   */\n    tag_264:\n      0x0\n        /* \"--CODEGEN--\":12433:12451   */\n      0xffffffffffffffff\n        /* \"--CODEGEN--\":12425:12431   */\n      dup3\n        /* \"--CODEGEN--\":12422:12452   */\n      gt\n        /* \"--CODEGEN--\":12419:12421   */\n      iszero\n      tag_391\n      jumpi\n        /* \"--CODEGEN--\":12465:12466   */\n      0x0\n        /* \"--CODEGEN--\":12462:12463   */\n      dup1\n        /* \"--CODEGEN--\":12455:12467   */\n      revert\n        /* \"--CODEGEN--\":12419:12421   */\n    tag_391:\n        /* \"--CODEGEN--\":12509:12513   */\n      0x1f\n        /* \"--CODEGEN--\":12505:12514   */\n      not\n        /* \"--CODEGEN--\":12498:12502   */\n      0x1f\n        /* \"--CODEGEN--\":12490:12496   */\n      dup4\n        /* \"--CODEGEN--\":12486:12503   */\n      add\n        /* \"--CODEGEN--\":12482:12515   */\n      and\n        /* \"--CODEGEN--\":12474:12515   */\n      swap1\n      pop\n        /* \"--CODEGEN--\":12538:12542   */\n      0x20\n        /* \"--CODEGEN--\":12532:12536   */\n      dup2\n        /* \"--CODEGEN--\":12528:12543   */\n      add\n        /* \"--CODEGEN--\":12520:12543   */\n      swap1\n      pop\n        /* \"--CODEGEN--\":12356:12548   */\n      swap2\n      swap1\n      pop\n      jump\n        /* \"--CODEGEN--\":12557:12678   */\n    tag_342:\n      0x0\n        /* \"--CODEGEN--\":12666:12670   */\n      0x20\n        /* \"--CODEGEN--\":12658:12664   */\n      dup3\n        /* \"--CODEGEN--\":12654:12671   */\n      add\n        /* \"--CODEGEN--\":12643:12671   */\n      swap1\n      pop\n        /* \"--CODEGEN--\":12635:12678   */\n      swap2\n      swap1\n      pop\n      jump\n        /* \"--CODEGEN--\":12687:12794   */\n    tag_340:\n      0x0\n        /* \"--CODEGEN--\":12783:12788   */\n      dup2\n        /* \"--CODEGEN--\":12777:12789   */\n      mload\n        /* \"--CODEGEN--\":12767:12789   */\n      swap1\n      pop\n        /* \"--CODEGEN--\":12761:12794   */\n      swap2\n      swap1\n      pop\n      jump\n        /* \"--CODEGEN--\":12801:12893   */\n    tag_356:\n      0x0\n        /* \"--CODEGEN--\":12882:12887   */\n      dup2\n        /* \"--CODEGEN--\":12876:12888   */\n      mload\n        /* \"--CODEGEN--\":12866:12888   */\n      swap1\n      pop\n        /* \"--CODEGEN--\":12860:12893   */\n      swap2\n      swap1\n      pop\n      jump\n        /* \"--CODEGEN--\":12901:13023   */\n    tag_348:\n      0x0\n        /* \"--CODEGEN--\":13012:13016   */\n      0x20\n        /* \"--CODEGEN--\":13004:13010   */\n      dup3\n        /* \"--CODEGEN--\":13000:13017   */\n      add\n        /* \"--CODEGEN--\":12989:13017   */\n      swap1\n      pop\n        /* \"--CODEGEN--\":12982:13023   */\n      swap2\n      swap1\n      pop\n      jump\n        /* \"--CODEGEN--\":13031:13159   */\n    tag_336:\n      0x0\n        /* \"--CODEGEN--\":13111:13153   */\n      0xffffffffffffffffffffffffffffffffffffffff\n        /* \"--CODEGEN--\":13104:13109   */\n      dup3\n        /* \"--CODEGEN--\":13100:13154   */\n      and\n        /* \"--CODEGEN--\":13089:13154   */\n      swap1\n      pop\n        /* \"--CODEGEN--\":13083:13159   */\n      swap2\n      swap1\n      pop\n      jump\n        /* \"--CODEGEN--\":13166:13258   */\n    tag_352:\n      0x0\n        /* \"--CODEGEN--\":13246:13251   */\n      dup2\n        /* \"--CODEGEN--\":13239:13252   */\n      iszero\n        /* \"--CODEGEN--\":13232:13253   */\n      iszero\n        /* \"--CODEGEN--\":13221:13253   */\n      swap1\n      pop\n        /* \"--CODEGEN--\":13215:13258   */\n      swap2\n      swap1\n      pop\n      jump\n        /* \"--CODEGEN--\":13265:13344   */\n    tag_364:\n      0x0\n        /* \"--CODEGEN--\":13334:13339   */\n      dup2\n        /* \"--CODEGEN--\":13323:13339   */\n      swap1\n      pop\n        /* \"--CODEGEN--\":13317:13344   */\n      swap2\n      swap1\n      pop\n      jump\n        /* \"--CODEGEN--\":13351:13479   */\n    tag_258:\n      0x0\n        /* \"--CODEGEN--\":13431:13473   */\n      0xffffffffffffffffffffffffffffffffffffffff\n        /* \"--CODEGEN--\":13424:13429   */\n      dup3\n        /* \"--CODEGEN--\":13420:13474   */\n      and\n        /* \"--CODEGEN--\":13409:13474   */\n      swap1\n      pop\n        /* \"--CODEGEN--\":13403:13479   */\n      swap2\n      swap1\n      pop\n      jump\n        /* \"--CODEGEN--\":13486:13565   */\n    tag_272:\n      0x0\n        /* \"--CODEGEN--\":13555:13560   */\n      dup2\n        /* \"--CODEGEN--\":13544:13560   */\n      swap1\n      pop\n        /* \"--CODEGEN--\":13538:13565   */\n      swap2\n      swap1\n      pop\n      jump\n        /* \"--CODEGEN--\":13573:13718   */\n    tag_268:\n        /* \"--CODEGEN--\":13654:13660   */\n      dup3\n        /* \"--CODEGEN--\":13649:13652   */\n      dup2\n        /* \"--CODEGEN--\":13644:13647   */\n      dup4\n        /* \"--CODEGEN--\":13631:13661   */\n      calldatacopy\n        /* \"--CODEGEN--\":13710:13711   */\n      0x0\n        /* \"--CODEGEN--\":13701:13707   */\n      dup4\n        /* \"--CODEGEN--\":13696:13699   */\n      dup4\n        /* \"--CODEGEN--\":13692:13708   */\n      add\n        /* \"--CODEGEN--\":13685:13712   */\n      mstore\n        /* \"--CODEGEN--\":13624:13718   */\n      pop\n      pop\n      pop\n      jump\n        /* \"--CODEGEN--\":13727:13995   */\n    tag_358:\n        /* \"--CODEGEN--\":13792:13793   */\n      0x0\n        /* \"--CODEGEN--\":13799:13900   */\n    tag_403:\n        /* \"--CODEGEN--\":13813:13819   */\n      dup4\n        /* \"--CODEGEN--\":13810:13811   */\n      dup2\n        /* \"--CODEGEN--\":13807:13820   */\n      lt\n        /* \"--CODEGEN--\":13799:13900   */\n      iszero\n      tag_404\n      jumpi\n        /* \"--CODEGEN--\":13889:13890   */\n      dup1\n        /* \"--CODEGEN--\":13884:13887   */\n      dup3\n        /* \"--CODEGEN--\":13880:13891   */\n      add\n        /* \"--CODEGEN--\":13874:13892   */\n      mload\n        /* \"--CODEGEN--\":13870:13871   */\n      dup2\n        /* \"--CODEGEN--\":13865:13868   */\n      dup5\n        /* \"--CODEGEN--\":13861:13872   */\n      add\n        /* \"--CODEGEN--\":13854:13893   */\n      mstore\n        /* \"--CODEGEN--\":13835:13837   */\n      0x20\n        /* \"--CODEGEN--\":13832:13833   */\n      dup2\n        /* \"--CODEGEN--\":13828:13838   */\n      add\n        /* \"--CODEGEN--\":13823:13838   */\n      swap1\n      pop\n        /* \"--CODEGEN--\":13799:13900   */\n      jump(tag_403)\n    tag_404:\n        /* \"--CODEGEN--\":13915:13921   */\n      dup4\n        /* \"--CODEGEN--\":13912:13913   */\n      dup2\n        /* \"--CODEGEN--\":13909:13922   */\n      gt\n        /* \"--CODEGEN--\":13906:13908   */\n      iszero\n      tag_406\n      jumpi\n        /* \"--CODEGEN--\":13980:13981   */\n      0x0\n        /* \"--CODEGEN--\":13971:13977   */\n      dup5\n        /* \"--CODEGEN--\":13966:13969   */\n      dup5\n        /* \"--CODEGEN--\":13962:13978   */\n      add\n        /* \"--CODEGEN--\":13955:13982   */\n      mstore\n        /* \"--CODEGEN--\":13906:13908   */\n    tag_406:\n        /* \"--CODEGEN--\":13776:13995   */\n      pop\n      pop\n      pop\n      pop\n      jump\n        /* \"--CODEGEN--\":14003:14100   */\n    tag_360:\n      0x0\n        /* \"--CODEGEN--\":14091:14093   */\n      0x1f\n        /* \"--CODEGEN--\":14087:14094   */\n      not\n        /* \"--CODEGEN--\":14082:14084   */\n      0x1f\n        /* \"--CODEGEN--\":14075:14080   */\n      dup4\n        /* \"--CODEGEN--\":14071:14085   */\n      add\n        /* \"--CODEGEN--\":14067:14095   */\n      and\n        /* \"--CODEGEN--\":14057:14095   */\n      swap1\n      pop\n        /* \"--CODEGEN--\":14051:14100   */\n      swap2\n      swap1\n      pop\n      jump\n\n    auxdata: 0xa265627a7a72305820319fa693b71632cfa685d8dda0c838162d82cad47462488f9a31f11a19865ab56c6578706572696d656e74616cf50037\n}\n",
				"bytecode": {
					"linkReferences": {},
					"object": "6080604052600060085560006009556000600a5573c50c6297f56b033633c30354a854b074749cd2dc600b60006101000a81548173ffffffffffffffffffffffffffffffffffffffff021916908373ffffffffffffffffffffffffffffffffffffffff16021790555034801561007457600080fd5b50612832806100846000396000f30060806040526004361061011c576000357c0100000000000000000000000000000000000000000000000000000000900463ffffffff168062ce8e3e1461012157806302516abd1461014c578063076fd2f81461018957806307973ccf146101cb578063127ca4b4146101f657806316e0a6111461023357806324c24b2b1461025c5780633d391f70146102875780636cdb2278146102c4578063779a9576146102ed57806378522bc41461031657806379111c1c146103415780638b945c6d1461036c5780638da5cb5b146103955780638f84aa09146103c05780639f4216e8146103d7578063a5d043d114610414578063b13d5d941461043f578063b5cb15f71461046a578063b744ff4d14610495578063caee6c85146104c0575b600080fd5b34801561012d57600080fd5b50610136610503565b6040516101439190612539565b60405180910390f35b34801561015857600080fd5b50610173600480360361016e9190810190611fbb565b610591565b604051610180919061255b565b60405180910390f35b34801561019557600080fd5b506101b060048036036101ab9190810190611fbb565b610630565b6040516101c296959493929190612576565b60405180910390f35b3480156101d757600080fd5b506101e0610ae7565b6040516101ed91906126a1565b60405180910390f35b34801561020257600080fd5b5061021d60048036036102189190810190612437565b610aed565b60405161022a919061251e565b60405180910390f35b34801561023f57600080fd5b5061025a60048036036102559190810190611fe4565b610b2b565b005b34801561026857600080fd5b50610271610cc7565b60405161027e91906126a1565b60405180910390f35b34801561029357600080fd5b506102ae60048036036102a99190810190611fbb565b610cd1565b6040516102bb919061255b565b60405180910390f35b3480156102d057600080fd5b506102eb60048036036102e6919081019061213e565b610d83565b005b3480156102f957600080fd5b50610314600480360361030f919081019061213e565b611337565b005b34801561032257600080fd5b5061032b611507565b60405161033891906126a1565b60405180910390f35b34801561034d57600080fd5b5061035661150d565b60405161036391906126a1565b60405180910390f35b34801561037857600080fd5b50610393600480360361038e91908101906122f1565b611517565b005b3480156103a157600080fd5b506103aa611788565b6040516103b7919061251e565b60405180910390f35b3480156103cc57600080fd5b506103d56117ad565b005b3480156103e357600080fd5b506103fe60048036036103f99190810190612437565b6117ef565b60405161040b919061251e565b60405180910390f35b34801561042057600080fd5b5061042961182d565b60405161043691906126a1565b60405180910390f35b34801561044b57600080fd5b50610454611833565b6040516104619190612539565b60405180910390f35b34801561047657600080fd5b5061047f6118c1565b60405161048c91906126a1565b60405180910390f35b3480156104a157600080fd5b506104aa6118cb565b6040516104b7919061251e565b60405180910390f35b3480156104cc57600080fd5b506104e760048036036104e29190810190611fbb565b6118f1565b6040516104fa9796959493929190612601565b60405180910390f35b6060600180548060200260200160405190810160405280929190818152602001828054801561058757602002820191906000526020600020905b8160009054906101000a900473ffffffffffffffffffffffffffffffffffffffff1673ffffffffffffffffffffffffffffffffffffffff168152602001906001019080831161053d575b5050505050905090565b600080600560003373ffffffffffffffffffffffffffffffffffffffff1673ffffffffffffffffffffffffffffffffffffffff16815260200190815260200160002060008473ffffffffffffffffffffffffffffffffffffffff1673ffffffffffffffffffffffffffffffffffffffff16815260200190815260200160002060006101000a81548160ff02191690831515021790555060019050919050565b6060806060806060806000600560008973ffffffffffffffffffffffffffffffffffffffff1673ffffffffffffffffffffffffffffffffffffffff16815260200190815260200160002060003373ffffffffffffffffffffffffffffffffffffffff1673ffffffffffffffffffffffffffffffffffffffff16815260200190815260200160002060009054906101000a900460ff1615156106d057600080fd5b600360008973ffffffffffffffffffffffffffffffffffffffff1673ffffffffffffffffffffffffffffffffffffffff1681526020019081526020016000209050806000018160010182600201836003018460040185600501858054600181600116156101000203166002900480601f0160208091040260200160405190810160405280929190818152602001828054600181600116156101000203166002900480156107be5780601f10610793576101008083540402835291602001916107be565b820191906000526020600020905b8154815290600101906020018083116107a157829003601f168201915b50505050509550848054600181600116156101000203166002900480601f01602080910402602001604051908101604052809291908181526020018280546001816001161561010002031660029004801561085a5780601f1061082f5761010080835404028352916020019161085a565b820191906000526020600020905b81548152906001019060200180831161083d57829003601f168201915b50505050509450838054600181600116156101000203166002900480601f0160208091040260200160405190810160405280929190818152602001828054600181600116156101000203166002900480156108f65780601f106108cb576101008083540402835291602001916108f6565b820191906000526020600020905b8154815290600101906020018083116108d957829003601f168201915b50505050509350828054600181600116156101000203166002900480601f0160208091040260200160405190810160405280929190818152602001828054600181600116156101000203166002900480156109925780601f1061096757610100808354040283529160200191610992565b820191906000526020600020905b81548152906001019060200180831161097557829003601f168201915b50505050509250818054600181600116156101000203166002900480601f016020809104026020016040519081016040528092919081815260200182805460018160011615610100020316600290048015610a2e5780601f10610a0357610100808354040283529160200191610a2e565b820191906000526020600020905b815481529060010190602001808311610a1157829003601f168201915b50505050509150808054600181600116156101000203166002900480601f016020809104026020016040519081016040528092919081815260200182805460018160011615610100020316600290048015610aca5780601f10610a9f57610100808354040283529160200191610aca565b820191906000526020600020905b815481529060010190602001808311610aad57829003601f168201915b505050505090509650965096509650965096505091939550919395565b60085481565b600281815481101515610afc57fe5b906000526020600020016000915054906101000a900473ffffffffffffffffffffffffffffffffffffffff1681565b6000600b60009054906101000a900473ffffffffffffffffffffffffffffffffffffffff1673ffffffffffffffffffffffffffffffffffffffff163373ffffffffffffffffffffffffffffffffffffffff16141515610b8957600080fd5b600460008a73ffffffffffffffffffffffffffffffffffffffff1673ffffffffffffffffffffffffffffffffffffffff168152602001908152602001600020905087816000019080519060200190610be2929190611e11565b5086816001019080519060200190610bfb929190611e11565b5085816002019080519060200190610c14929190611e11565b5084816003019080519060200190610c2d929190611e11565b5083816004019080519060200190610c46929190611e11565b5082816007019080519060200190610c5f929190611e11565b5081816008019080519060200190610c78929190611e11565b50888160090160006101000a81548173ffffffffffffffffffffffffffffffffffffffff021916908373ffffffffffffffffffffffffffffffffffffffff160217905550505050505050505050565b6000600a54905090565b60006001600560003373ffffffffffffffffffffffffffffffffffffffff1673ffffffffffffffffffffffffffffffffffffffff16815260200190815260200160002060008473ffffffffffffffffffffffffffffffffffffffff1673ffffffffffffffffffffffffffffffffffffffff16815260200190815260200160002060006101000a81548160ff021916908315150217905550600a6000815480929190600101919050555060019050919050565b600080600b60009054906101000a900473ffffffffffffffffffffffffffffffffffffffff1673ffffffffffffffffffffffffffffffffffffffff163373ffffffffffffffffffffffffffffffffffffffff16141515610de257600080fd5b600660008d73ffffffffffffffffffffffffffffffffffffffff1673ffffffffffffffffffffffffffffffffffffffff16815260200190815260200160002060009054906101000a900460ff16151515610e3b57600080fd5b600360008d73ffffffffffffffffffffffffffffffffffffffff1673ffffffffffffffffffffffffffffffffffffffff16815260200190815260200160002091508a826000019080519060200190610e94929190611e11565b5089826001019080519060200190610ead929190611e11565b5088826002019080519060200190610ec6929190611e11565b5087826003019080519060200190610edf929190611e11565b5086826004019080519060200190610ef8929190611e11565b5085826005019080519060200190610f11929190611e11565b5084826006019080519060200190610f2a929190611e11565b5083826007019080519060200190610f43929190611e11565b5082826008019080519060200190610f5c929190611e11565b50338260090160006101000a81548173ffffffffffffffffffffffffffffffffffffffff021916908373ffffffffffffffffffffffffffffffffffffffff1602179055504282600a018190555060013390806001815401808255809150509060018203906000526020600020016000909192909190916101000a81548173ffffffffffffffffffffffffffffffffffffffff021916908373ffffffffffffffffffffffffffffffffffffffff160217905550506001600660003373ffffffffffffffffffffffffffffffffffffffff1673ffffffffffffffffffffffffffffffffffffffff16815260200190815260200160002060006101000a81548160ff0219169083151502179055506001600560003373ffffffffffffffffffffffffffffffffffffffff1673ffffffffffffffffffffffffffffffffffffffff16815260200190815260200160002060003373ffffffffffffffffffffffffffffffffffffffff1673ffffffffffffffffffffffffffffffffffffffff16815260200190815260200160002060006101000a81548160ff02191690831515021790555060086000815480929190600101919050555080826000019080600181540180825580915050906001820390600052602060002001600090919290919091509080546001816001161561010002031660029004611159929190611e91565b5050808260010190806001815401808255809150509060018203906000526020600020016000909192909190915090805460018160011615610100020316600290046111a6929190611e91565b5050808260020190806001815401808255809150509060018203906000526020600020016000909192909190915090805460018160011615610100020316600290046111f3929190611e91565b505080826003019080600181540180825580915050906001820390600052602060002001600090919290919091509080546001816001161561010002031660029004611240929190611e91565b50508082600401908060018154018082558091505090600182039060005260206000200160009091929091909150908054600181600116156101000203166002900461128d929190611e91565b5050808260050190806001815401808255809150509060018203906000526020600020016000909192909190915090805460018160011615610100020316600290046112da929190611e91565b505080826006019080600181540180825580915050906001820390600052602060002001600090919290919091509080546001816001161561010002031660029004611327929190611e91565b5050505050505050505050505050565b6000600b60009054906101000a900473ffffffffffffffffffffffffffffffffffffffff1673ffffffffffffffffffffffffffffffffffffffff163373ffffffffffffffffffffffffffffffffffffffff1614151561139557600080fd5b600360008c73ffffffffffffffffffffffffffffffffffffffff1673ffffffffffffffffffffffffffffffffffffffff1681526020019081526020016000209050898160000190805190602001906113ee929190611e11565b5088816001019080519060200190611407929190611e11565b5087816002019080519060200190611420929190611e11565b5086816003019080519060200190611439929190611e11565b5085816004019080519060200190611452929190611e11565b508481600501908051906020019061146b929190611e11565b5083816006019080519060200190611484929190611e11565b508281600701908051906020019061149d929190611e11565b50818160080190805190602001906114b6929190611e11565b508a8160090160006101000a81548173ffffffffffffffffffffffffffffffffffffffff021916908373ffffffffffffffffffffffffffffffffffffffff1602179055505050505050505050505050565b60095481565b6000600954905090565b6000600760003373ffffffffffffffffffffffffffffffffffffffff1673ffffffffffffffffffffffffffffffffffffffff16815260200190815260200160002060009054906101000a900460ff1615151561157257600080fd5b600460003373ffffffffffffffffffffffffffffffffffffffff1673ffffffffffffffffffffffffffffffffffffffff1681526020019081526020016000209050878160000190805190602001906115cb929190611e11565b50868160010190805190602001906115e4929190611e11565b50858160020190805190602001906115fd929190611e11565b5084816003019080519060200190611616929190611e11565b508381600401908051906020019061162f929190611e11565b5082816007019080519060200190611648929190611e11565b5081816008019080519060200190611661929190611e11565b50338160090160006101000a81548173ffffffffffffffffffffffffffffffffffffffff021916908373ffffffffffffffffffffffffffffffffffffffff1602179055504281600a018190555060023390806001815401808255809150509060018203906000526020600020016000909192909190916101000a81548173ffffffffffffffffffffffffffffffffffffffff021916908373ffffffffffffffffffffffffffffffffffffffff160217905550506001600760003373ffffffffffffffffffffffffffffffffffffffff1673ffffffffffffffffffffffffffffffffffffffff16815260200190815260200160002060006101000a81548160ff0219169083151502179055506009600081548092919060010191905055505050505050505050565b6000809054906101000a900473ffffffffffffffffffffffffffffffffffffffff1681565b336000806101000a81548173ffffffffffffffffffffffffffffffffffffffff021916908373ffffffffffffffffffffffffffffffffffffffff160217905550565b6001818154811015156117fe57fe5b906000526020600020016000915054906101000a900473ffffffffffffffffffffffffffffffffffffffff1681565b600a5481565b606060028054806020026020016040519081016040528092919081815260200182805480156118b757602002820191906000526020600020905b8160009054906101000a900473ffffffffffffffffffffffffffffffffffffffff1673ffffffffffffffffffffffffffffffffffffffff168152602001906001019080831161186d575b5050505050905090565b6000600854905090565b600b60009054906101000a900473ffffffffffffffffffffffffffffffffffffffff1681565b60608060608060608060606000600760008a73ffffffffffffffffffffffffffffffffffffffff1673ffffffffffffffffffffffffffffffffffffffff16815260200190815260200160002060009054906101000a900460ff16151561195657600080fd5b600460008a73ffffffffffffffffffffffffffffffffffffffff1673ffffffffffffffffffffffffffffffffffffffff168152602001908152602001600020905080600001816001018260020183600301846004018560070186600801868054600181600116156101000203166002900480601f016020809104026020016040519081016040528092919081815260200182805460018160011615610100020316600290048015611a485780601f10611a1d57610100808354040283529160200191611a48565b820191906000526020600020905b815481529060010190602001808311611a2b57829003601f168201915b50505050509650858054600181600116156101000203166002900480601f016020809104026020016040519081016040528092919081815260200182805460018160011615610100020316600290048015611ae45780601f10611ab957610100808354040283529160200191611ae4565b820191906000526020600020905b815481529060010190602001808311611ac757829003601f168201915b50505050509550848054600181600116156101000203166002900480601f016020809104026020016040519081016040528092919081815260200182805460018160011615610100020316600290048015611b805780601f10611b5557610100808354040283529160200191611b80565b820191906000526020600020905b815481529060010190602001808311611b6357829003601f168201915b50505050509450838054600181600116156101000203166002900480601f016020809104026020016040519081016040528092919081815260200182805460018160011615610100020316600290048015611c1c5780601f10611bf157610100808354040283529160200191611c1c565b820191906000526020600020905b815481529060010190602001808311611bff57829003601f168201915b50505050509350828054600181600116156101000203166002900480601f016020809104026020016040519081016040528092919081815260200182805460018160011615610100020316600290048015611cb85780601f10611c8d57610100808354040283529160200191611cb8565b820191906000526020600020905b815481529060010190602001808311611c9b57829003601f168201915b50505050509250818054600181600116156101000203166002900480601f016020809104026020016040519081016040528092919081815260200182805460018160011615610100020316600290048015611d545780601f10611d2957610100808354040283529160200191611d54565b820191906000526020600020905b815481529060010190602001808311611d3757829003601f168201915b50505050509150808054600181600116156101000203166002900480601f016020809104026020016040519081016040528092919081815260200182805460018160011615610100020316600290048015611df05780601f10611dc557610100808354040283529160200191611df0565b820191906000526020600020905b815481529060010190602001808311611dd357829003601f168201915b50505050509050975097509750975097509750975050919395979092949650565b828054600181600116156101000203166002900490600052602060002090601f016020900481019282601f10611e5257805160ff1916838001178555611e80565b82800160010185558215611e80579182015b82811115611e7f578251825591602001919060010190611e64565b5b509050611e8d9190611f18565b5090565b828054600181600116156101000203166002900490600052602060002090601f016020900481019282601f10611eca5780548555611f07565b82800160010185558215611f0757600052602060002091601f016020900482015b82811115611f06578254825591600101919060010190611eeb565b5b509050611f149190611f18565b5090565b611f3a91905b80821115611f36576000816000905550600101611f1e565b5090565b90565b6000611f49823561277b565b905092915050565b600082601f8301121515611f6457600080fd5b8135611f77611f72826126e9565b6126bc565b91508082526020830160208301858383011115611f9357600080fd5b611f9e8382846127a5565b50505092915050565b6000611fb3823561279b565b905092915050565b600060208284031215611fcd57600080fd5b6000611fdb84828501611f3d565b91505092915050565b600080600080600080600080610100898b03121561200157600080fd5b600061200f8b828c01611f3d565b985050602089013567ffffffffffffffff81111561202c57600080fd5b6120388b828c01611f51565b975050604089013567ffffffffffffffff81111561205557600080fd5b6120618b828c01611f51565b965050606089013567ffffffffffffffff81111561207e57600080fd5b61208a8b828c01611f51565b955050608089013567ffffffffffffffff8111156120a757600080fd5b6120b38b828c01611f51565b94505060a089013567ffffffffffffffff8111156120d057600080fd5b6120dc8b828c01611f51565b93505060c089013567ffffffffffffffff8111156120f957600080fd5b6121058b828c01611f51565b92505060e089013567ffffffffffffffff81111561212257600080fd5b61212e8b828c01611f51565b9150509295985092959890939650565b6000806000806000806000806000806101408b8d03121561215e57600080fd5b600061216c8d828e01611f3d565b9a505060208b013567ffffffffffffffff81111561218957600080fd5b6121958d828e01611f51565b99505060408b013567ffffffffffffffff8111156121b257600080fd5b6121be8d828e01611f51565b98505060608b013567ffffffffffffffff8111156121db57600080fd5b6121e78d828e01611f51565b97505060808b013567ffffffffffffffff81111561220457600080fd5b6122108d828e01611f51565b96505060a08b013567ffffffffffffffff81111561222d57600080fd5b6122398d828e01611f51565b95505060c08b013567ffffffffffffffff81111561225657600080fd5b6122628d828e01611f51565b94505060e08b013567ffffffffffffffff81111561227f57600080fd5b61228b8d828e01611f51565b9350506101008b013567ffffffffffffffff8111156122a957600080fd5b6122b58d828e01611f51565b9250506101208b013567ffffffffffffffff8111156122d357600080fd5b6122df8d828e01611f51565b9150509295989b9194979a5092959850565b600080600080600080600060e0888a03121561230c57600080fd5b600088013567ffffffffffffffff81111561232657600080fd5b6123328a828b01611f51565b975050602088013567ffffffffffffffff81111561234f57600080fd5b61235b8a828b01611f51565b965050604088013567ffffffffffffffff81111561237857600080fd5b6123848a828b01611f51565b955050606088013567ffffffffffffffff8111156123a157600080fd5b6123ad8a828b01611f51565b945050608088013567ffffffffffffffff8111156123ca57600080fd5b6123d68a828b01611f51565b93505060a088013567ffffffffffffffff8111156123f357600080fd5b6123ff8a828b01611f51565b92505060c088013567ffffffffffffffff81111561241c57600080fd5b6124288a828b01611f51565b91505092959891949750929550565b60006020828403121561244957600080fd5b600061245784828501611fa7565b91505092915050565b61246981612745565b82525050565b600061247a82612722565b80845260208401935061248c83612715565b60005b828110156124be576124a2868351612460565b6124ab82612738565b915060208601955060018101905061248f565b50849250505092915050565b6124d381612765565b82525050565b60006124e48261272d565b8084526124f88160208601602086016127b4565b612501816127e7565b602085010191505092915050565b61251881612771565b82525050565b60006020820190506125336000830184612460565b92915050565b60006020820190508181036000830152612553818461246f565b905092915050565b600060208201905061257060008301846124ca565b92915050565b600060c082019050818103600083015261259081896124d9565b905081810360208301526125a481886124d9565b905081810360408301526125b881876124d9565b905081810360608301526125cc81866124d9565b905081810360808301526125e081856124d9565b905081810360a08301526125f481846124d9565b9050979650505050505050565b600060e082019050818103600083015261261b818a6124d9565b9050818103602083015261262f81896124d9565b9050818103604083015261264381886124d9565b9050818103606083015261265781876124d9565b9050818103608083015261266b81866124d9565b905081810360a083015261267f81856124d9565b905081810360c083015261269381846124d9565b905098975050505050505050565b60006020820190506126b6600083018461250f565b92915050565b6000604051905081810181811067ffffffffffffffff821117156126df57600080fd5b8060405250919050565b600067ffffffffffffffff82111561270057600080fd5b601f19601f8301169050602081019050919050565b6000602082019050919050565b600081519050919050565b600081519050919050565b6000602082019050919050565b600073ffffffffffffffffffffffffffffffffffffffff82169050919050565b60008115159050919050565b6000819050919050565b600073ffffffffffffffffffffffffffffffffffffffff82169050919050565b6000819050919050565b82818337600083830152505050565b60005b838110156127d25780820151818401526020810190506127b7565b838111156127e1576000848401525b50505050565b6000601f19601f83011690509190505600a265627a7a72305820319fa693b71632cfa685d8dda0c838162d82cad47462488f9a31f11a19865ab56c6578706572696d656e74616cf50037",
					"opcodes": "PUSH1 0x80 PUSH1 0x40 MSTORE PUSH1 0x0 PUSH1 0x8 SSTORE PUSH1 0x0 PUSH1 0x9 SSTORE PUSH1 0x0 PUSH1 0xA SSTORE PUSH20 0xC50C6297F56B033633C30354A854B074749CD2DC PUSH1 0xB PUSH1 0x0 PUSH2 0x100 EXP DUP2 SLOAD DUP2 PUSH20 0xFFFFFFFFFFFFFFFFFFFFFFFFFFFFFFFFFFFFFFFF MUL NOT AND SWAP1 DUP4 PUSH20 0xFFFFFFFFFFFFFFFFFFFFFFFFFFFFFFFFFFFFFFFF AND MUL OR SWAP1 SSTORE POP CALLVALUE DUP1 ISZERO PUSH2 0x74 JUMPI PUSH1 0x0 DUP1 REVERT JUMPDEST POP PUSH2 0x2832 DUP1 PUSH2 0x84 PUSH1 0x0 CODECOPY PUSH1 0x0 RETURN STOP PUSH1 0x80 PUSH1 0x40 MSTORE PUSH1 0x4 CALLDATASIZE LT PUSH2 0x11C JUMPI PUSH1 0x0 CALLDATALOAD PUSH29 0x100000000000000000000000000000000000000000000000000000000 SWAP1 DIV PUSH4 0xFFFFFFFF AND DUP1 PUSH3 0xCE8E3E EQ PUSH2 0x121 JUMPI DUP1 PUSH4 0x2516ABD EQ PUSH2 0x14C JUMPI DUP1 PUSH4 0x76FD2F8 EQ PUSH2 0x189 JUMPI DUP1 PUSH4 0x7973CCF EQ PUSH2 0x1CB JUMPI DUP1 PUSH4 0x127CA4B4 EQ PUSH2 0x1F6 JUMPI DUP1 PUSH4 0x16E0A611 EQ PUSH2 0x233 JUMPI DUP1 PUSH4 0x24C24B2B EQ PUSH2 0x25C JUMPI DUP1 PUSH4 0x3D391F70 EQ PUSH2 0x287 JUMPI DUP1 PUSH4 0x6CDB2278 EQ PUSH2 0x2C4 JUMPI DUP1 PUSH4 0x779A9576 EQ PUSH2 0x2ED JUMPI DUP1 PUSH4 0x78522BC4 EQ PUSH2 0x316 JUMPI DUP1 PUSH4 0x79111C1C EQ PUSH2 0x341 JUMPI DUP1 PUSH4 0x8B945C6D EQ PUSH2 0x36C JUMPI DUP1 PUSH4 0x8DA5CB5B EQ PUSH2 0x395 JUMPI DUP1 PUSH4 0x8F84AA09 EQ PUSH2 0x3C0 JUMPI DUP1 PUSH4 0x9F4216E8 EQ PUSH2 0x3D7 JUMPI DUP1 PUSH4 0xA5D043D1 EQ PUSH2 0x414 JUMPI DUP1 PUSH4 0xB13D5D94 EQ PUSH2 0x43F JUMPI DUP1 PUSH4 0xB5CB15F7 EQ PUSH2 0x46A JUMPI DUP1 PUSH4 0xB744FF4D EQ PUSH2 0x495 JUMPI DUP1 PUSH4 0xCAEE6C85 EQ PUSH2 0x4C0 JUMPI JUMPDEST PUSH1 0x0 DUP1 REVERT JUMPDEST CALLVALUE DUP1 ISZERO PUSH2 0x12D JUMPI PUSH1 0x0 DUP1 REVERT JUMPDEST POP PUSH2 0x136 PUSH2 0x503 JUMP JUMPDEST PUSH1 0x40 MLOAD PUSH2 0x143 SWAP2 SWAP1 PUSH2 0x2539 JUMP JUMPDEST PUSH1 0x40 MLOAD DUP1 SWAP2 SUB SWAP1 RETURN JUMPDEST CALLVALUE DUP1 ISZERO PUSH2 0x158 JUMPI PUSH1 0x0 DUP1 REVERT JUMPDEST POP PUSH2 0x173 PUSH1 0x4 DUP1 CALLDATASIZE SUB PUSH2 0x16E SWAP2 SWAP1 DUP2 ADD SWAP1 PUSH2 0x1FBB JUMP JUMPDEST PUSH2 0x591 JUMP JUMPDEST PUSH1 0x40 MLOAD PUSH2 0x180 SWAP2 SWAP1 PUSH2 0x255B JUMP JUMPDEST PUSH1 0x40 MLOAD DUP1 SWAP2 SUB SWAP1 RETURN JUMPDEST CALLVALUE DUP1 ISZERO PUSH2 0x195 JUMPI PUSH1 0x0 DUP1 REVERT JUMPDEST POP PUSH2 0x1B0 PUSH1 0x4 DUP1 CALLDATASIZE SUB PUSH2 0x1AB SWAP2 SWAP1 DUP2 ADD SWAP1 PUSH2 0x1FBB JUMP JUMPDEST PUSH2 0x630 JUMP JUMPDEST PUSH1 0x40 MLOAD PUSH2 0x1C2 SWAP7 SWAP6 SWAP5 SWAP4 SWAP3 SWAP2 SWAP1 PUSH2 0x2576 JUMP JUMPDEST PUSH1 0x40 MLOAD DUP1 SWAP2 SUB SWAP1 RETURN JUMPDEST CALLVALUE DUP1 ISZERO PUSH2 0x1D7 JUMPI PUSH1 0x0 DUP1 REVERT JUMPDEST POP PUSH2 0x1E0 PUSH2 0xAE7 JUMP JUMPDEST PUSH1 0x40 MLOAD PUSH2 0x1ED SWAP2 SWAP1 PUSH2 0x26A1 JUMP JUMPDEST PUSH1 0x40 MLOAD DUP1 SWAP2 SUB SWAP1 RETURN JUMPDEST CALLVALUE DUP1 ISZERO PUSH2 0x202 JUMPI PUSH1 0x0 DUP1 REVERT JUMPDEST POP PUSH2 0x21D PUSH1 0x4 DUP1 CALLDATASIZE SUB PUSH2 0x218 SWAP2 SWAP1 DUP2 ADD SWAP1 PUSH2 0x2437 JUMP JUMPDEST PUSH2 0xAED JUMP JUMPDEST PUSH1 0x40 MLOAD PUSH2 0x22A SWAP2 SWAP1 PUSH2 0x251E JUMP JUMPDEST PUSH1 0x40 MLOAD DUP1 SWAP2 SUB SWAP1 RETURN JUMPDEST CALLVALUE DUP1 ISZERO PUSH2 0x23F JUMPI PUSH1 0x0 DUP1 REVERT JUMPDEST POP PUSH2 0x25A PUSH1 0x4 DUP1 CALLDATASIZE SUB PUSH2 0x255 SWAP2 SWAP1 DUP2 ADD SWAP1 PUSH2 0x1FE4 JUMP JUMPDEST PUSH2 0xB2B JUMP JUMPDEST STOP JUMPDEST CALLVALUE DUP1 ISZERO PUSH2 0x268 JUMPI PUSH1 0x0 DUP1 REVERT JUMPDEST POP PUSH2 0x271 PUSH2 0xCC7 JUMP JUMPDEST PUSH1 0x40 MLOAD PUSH2 0x27E SWAP2 SWAP1 PUSH2 0x26A1 JUMP JUMPDEST PUSH1 0x40 MLOAD DUP1 SWAP2 SUB SWAP1 RETURN JUMPDEST CALLVALUE DUP1 ISZERO PUSH2 0x293 JUMPI PUSH1 0x0 DUP1 REVERT JUMPDEST POP PUSH2 0x2AE PUSH1 0x4 DUP1 CALLDATASIZE SUB PUSH2 0x2A9 SWAP2 SWAP1 DUP2 ADD SWAP1 PUSH2 0x1FBB JUMP JUMPDEST PUSH2 0xCD1 JUMP JUMPDEST PUSH1 0x40 MLOAD PUSH2 0x2BB SWAP2 SWAP1 PUSH2 0x255B JUMP JUMPDEST PUSH1 0x40 MLOAD DUP1 SWAP2 SUB SWAP1 RETURN JUMPDEST CALLVALUE DUP1 ISZERO PUSH2 0x2D0 JUMPI PUSH1 0x0 DUP1 REVERT JUMPDEST POP PUSH2 0x2EB PUSH1 0x4 DUP1 CALLDATASIZE SUB PUSH2 0x2E6 SWAP2 SWAP1 DUP2 ADD SWAP1 PUSH2 0x213E JUMP JUMPDEST PUSH2 0xD83 JUMP JUMPDEST STOP JUMPDEST CALLVALUE DUP1 ISZERO PUSH2 0x2F9 JUMPI PUSH1 0x0 DUP1 REVERT JUMPDEST POP PUSH2 0x314 PUSH1 0x4 DUP1 CALLDATASIZE SUB PUSH2 0x30F SWAP2 SWAP1 DUP2 ADD SWAP1 PUSH2 0x213E JUMP JUMPDEST PUSH2 0x1337 JUMP JUMPDEST STOP JUMPDEST CALLVALUE DUP1 ISZERO PUSH2 0x322 JUMPI PUSH1 0x0 DUP1 REVERT JUMPDEST POP PUSH2 0x32B PUSH2 0x1507 JUMP JUMPDEST PUSH1 0x40 MLOAD PUSH2 0x338 SWAP2 SWAP1 PUSH2 0x26A1 JUMP JUMPDEST PUSH1 0x40 MLOAD DUP1 SWAP2 SUB SWAP1 RETURN JUMPDEST CALLVALUE DUP1 ISZERO PUSH2 0x34D JUMPI PUSH1 0x0 DUP1 REVERT JUMPDEST POP PUSH2 0x356 PUSH2 0x150D JUMP JUMPDEST PUSH1 0x40 MLOAD PUSH2 0x363 SWAP2 SWAP1 PUSH2 0x26A1 JUMP JUMPDEST PUSH1 0x40 MLOAD DUP1 SWAP2 SUB SWAP1 RETURN JUMPDEST CALLVALUE DUP1 ISZERO PUSH2 0x378 JUMPI PUSH1 0x0 DUP1 REVERT JUMPDEST POP PUSH2 0x393 PUSH1 0x4 DUP1 CALLDATASIZE SUB PUSH2 0x38E SWAP2 SWAP1 DUP2 ADD SWAP1 PUSH2 0x22F1 JUMP JUMPDEST PUSH2 0x1517 JUMP JUMPDEST STOP JUMPDEST CALLVALUE DUP1 ISZERO PUSH2 0x3A1 JUMPI PUSH1 0x0 DUP1 REVERT JUMPDEST POP PUSH2 0x3AA PUSH2 0x1788 JUMP JUMPDEST PUSH1 0x40 MLOAD PUSH2 0x3B7 SWAP2 SWAP1 PUSH2 0x251E JUMP JUMPDEST PUSH1 0x40 MLOAD DUP1 SWAP2 SUB SWAP1 RETURN JUMPDEST CALLVALUE DUP1 ISZERO PUSH2 0x3CC JUMPI PUSH1 0x0 DUP1 REVERT JUMPDEST POP PUSH2 0x3D5 PUSH2 0x17AD JUMP JUMPDEST STOP JUMPDEST CALLVALUE DUP1 ISZERO PUSH2 0x3E3 JUMPI PUSH1 0x0 DUP1 REVERT JUMPDEST POP PUSH2 0x3FE PUSH1 0x4 DUP1 CALLDATASIZE SUB PUSH2 0x3F9 SWAP2 SWAP1 DUP2 ADD SWAP1 PUSH2 0x2437 JUMP JUMPDEST PUSH2 0x17EF JUMP JUMPDEST PUSH1 0x40 MLOAD PUSH2 0x40B SWAP2 SWAP1 PUSH2 0x251E JUMP JUMPDEST PUSH1 0x40 MLOAD DUP1 SWAP2 SUB SWAP1 RETURN JUMPDEST CALLVALUE DUP1 ISZERO PUSH2 0x420 JUMPI PUSH1 0x0 DUP1 REVERT JUMPDEST POP PUSH2 0x429 PUSH2 0x182D JUMP JUMPDEST PUSH1 0x40 MLOAD PUSH2 0x436 SWAP2 SWAP1 PUSH2 0x26A1 JUMP JUMPDEST PUSH1 0x40 MLOAD DUP1 SWAP2 SUB SWAP1 RETURN JUMPDEST CALLVALUE DUP1 ISZERO PUSH2 0x44B JUMPI PUSH1 0x0 DUP1 REVERT JUMPDEST POP PUSH2 0x454 PUSH2 0x1833 JUMP JUMPDEST PUSH1 0x40 MLOAD PUSH2 0x461 SWAP2 SWAP1 PUSH2 0x2539 JUMP JUMPDEST PUSH1 0x40 MLOAD DUP1 SWAP2 SUB SWAP1 RETURN JUMPDEST CALLVALUE DUP1 ISZERO PUSH2 0x476 JUMPI PUSH1 0x0 DUP1 REVERT JUMPDEST POP PUSH2 0x47F PUSH2 0x18C1 JUMP JUMPDEST PUSH1 0x40 MLOAD PUSH2 0x48C SWAP2 SWAP1 PUSH2 0x26A1 JUMP JUMPDEST PUSH1 0x40 MLOAD DUP1 SWAP2 SUB SWAP1 RETURN JUMPDEST CALLVALUE DUP1 ISZERO PUSH2 0x4A1 JUMPI PUSH1 0x0 DUP1 REVERT JUMPDEST POP PUSH2 0x4AA PUSH2 0x18CB JUMP JUMPDEST PUSH1 0x40 MLOAD PUSH2 0x4B7 SWAP2 SWAP1 PUSH2 0x251E JUMP JUMPDEST PUSH1 0x40 MLOAD DUP1 SWAP2 SUB SWAP1 RETURN JUMPDEST CALLVALUE DUP1 ISZERO PUSH2 0x4CC JUMPI PUSH1 0x0 DUP1 REVERT JUMPDEST POP PUSH2 0x4E7 PUSH1 0x4 DUP1 CALLDATASIZE SUB PUSH2 0x4E2 SWAP2 SWAP1 DUP2 ADD SWAP1 PUSH2 0x1FBB JUMP JUMPDEST PUSH2 0x18F1 JUMP JUMPDEST PUSH1 0x40 MLOAD PUSH2 0x4FA SWAP8 SWAP7 SWAP6 SWAP5 SWAP4 SWAP3 SWAP2 SWAP1 PUSH2 0x2601 JUMP JUMPDEST PUSH1 0x40 MLOAD DUP1 SWAP2 SUB SWAP1 RETURN JUMPDEST PUSH1 0x60 PUSH1 0x1 DUP1 SLOAD DUP1 PUSH1 0x20 MUL PUSH1 0x20 ADD PUSH1 0x40 MLOAD SWAP1 DUP2 ADD PUSH1 0x40 MSTORE DUP1 SWAP3 SWAP2 SWAP1 DUP2 DUP2 MSTORE PUSH1 0x20 ADD DUP3 DUP1 SLOAD DUP1 ISZERO PUSH2 0x587 JUMPI PUSH1 0x20 MUL DUP3 ADD SWAP2 SWAP1 PUSH1 0x0 MSTORE PUSH1 0x20 PUSH1 0x0 KECCAK256 SWAP1 JUMPDEST DUP2 PUSH1 0x0 SWAP1 SLOAD SWAP1 PUSH2 0x100 EXP SWAP1 DIV PUSH20 0xFFFFFFFFFFFFFFFFFFFFFFFFFFFFFFFFFFFFFFFF AND PUSH20 0xFFFFFFFFFFFFFFFFFFFFFFFFFFFFFFFFFFFFFFFF AND DUP2 MSTORE PUSH1 0x20 ADD SWAP1 PUSH1 0x1 ADD SWAP1 DUP1 DUP4 GT PUSH2 0x53D JUMPI JUMPDEST POP POP POP POP POP SWAP1 POP SWAP1 JUMP JUMPDEST PUSH1 0x0 DUP1 PUSH1 0x5 PUSH1 0x0 CALLER PUSH20 0xFFFFFFFFFFFFFFFFFFFFFFFFFFFFFFFFFFFFFFFF AND PUSH20 0xFFFFFFFFFFFFFFFFFFFFFFFFFFFFFFFFFFFFFFFF AND DUP2 MSTORE PUSH1 0x20 ADD SWAP1 DUP2 MSTORE PUSH1 0x20 ADD PUSH1 0x0 KECCAK256 PUSH1 0x0 DUP5 PUSH20 0xFFFFFFFFFFFFFFFFFFFFFFFFFFFFFFFFFFFFFFFF AND PUSH20 0xFFFFFFFFFFFFFFFFFFFFFFFFFFFFFFFFFFFFFFFF AND DUP2 MSTORE PUSH1 0x20 ADD SWAP1 DUP2 MSTORE PUSH1 0x20 ADD PUSH1 0x0 KECCAK256 PUSH1 0x0 PUSH2 0x100 EXP DUP2 SLOAD DUP2 PUSH1 0xFF MUL NOT AND SWAP1 DUP4 ISZERO ISZERO MUL OR SWAP1 SSTORE POP PUSH1 0x1 SWAP1 POP SWAP2 SWAP1 POP JUMP JUMPDEST PUSH1 0x60 DUP1 PUSH1 0x60 DUP1 PUSH1 0x60 DUP1 PUSH1 0x0 PUSH1 0x5 PUSH1 0x0 DUP10 PUSH20 0xFFFFFFFFFFFFFFFFFFFFFFFFFFFFFFFFFFFFFFFF AND PUSH20 0xFFFFFFFFFFFFFFFFFFFFFFFFFFFFFFFFFFFFFFFF AND DUP2 MSTORE PUSH1 0x20 ADD SWAP1 DUP2 MSTORE PUSH1 0x20 ADD PUSH1 0x0 KECCAK256 PUSH1 0x0 CALLER PUSH20 0xFFFFFFFFFFFFFFFFFFFFFFFFFFFFFFFFFFFFFFFF AND PUSH20 0xFFFFFFFFFFFFFFFFFFFFFFFFFFFFFFFFFFFFFFFF AND DUP2 MSTORE PUSH1 0x20 ADD SWAP1 DUP2 MSTORE PUSH1 0x20 ADD PUSH1 0x0 KECCAK256 PUSH1 0x0 SWAP1 SLOAD SWAP1 PUSH2 0x100 EXP SWAP1 DIV PUSH1 0xFF AND ISZERO ISZERO PUSH2 0x6D0 JUMPI PUSH1 0x0 DUP1 REVERT JUMPDEST PUSH1 0x3 PUSH1 0x0 DUP10 PUSH20 0xFFFFFFFFFFFFFFFFFFFFFFFFFFFFFFFFFFFFFFFF AND PUSH20 0xFFFFFFFFFFFFFFFFFFFFFFFFFFFFFFFFFFFFFFFF AND DUP2 MSTORE PUSH1 0x20 ADD SWAP1 DUP2 MSTORE PUSH1 0x20 ADD PUSH1 0x0 KECCAK256 SWAP1 POP DUP1 PUSH1 0x0 ADD DUP2 PUSH1 0x1 ADD DUP3 PUSH1 0x2 ADD DUP4 PUSH1 0x3 ADD DUP5 PUSH1 0x4 ADD DUP6 PUSH1 0x5 ADD DUP6 DUP1 SLOAD PUSH1 0x1 DUP2 PUSH1 0x1 AND ISZERO PUSH2 0x100 MUL SUB AND PUSH1 0x2 SWAP1 DIV DUP1 PUSH1 0x1F ADD PUSH1 0x20 DUP1 SWAP2 DIV MUL PUSH1 0x20 ADD PUSH1 0x40 MLOAD SWAP1 DUP2 ADD PUSH1 0x40 MSTORE DUP1 SWAP3 SWAP2 SWAP1 DUP2 DUP2 MSTORE PUSH1 0x20 ADD DUP3 DUP1 SLOAD PUSH1 0x1 DUP2 PUSH1 0x1 AND ISZERO PUSH2 0x100 MUL SUB AND PUSH1 0x2 SWAP1 DIV DUP1 ISZERO PUSH2 0x7BE JUMPI DUP1 PUSH1 0x1F LT PUSH2 0x793 JUMPI PUSH2 0x100 DUP1 DUP4 SLOAD DIV MUL DUP4 MSTORE SWAP2 PUSH1 0x20 ADD SWAP2 PUSH2 0x7BE JUMP JUMPDEST DUP3 ADD SWAP2 SWAP1 PUSH1 0x0 MSTORE PUSH1 0x20 PUSH1 0x0 KECCAK256 SWAP1 JUMPDEST DUP2 SLOAD DUP2 MSTORE SWAP1 PUSH1 0x1 ADD SWAP1 PUSH1 0x20 ADD DUP1 DUP4 GT PUSH2 0x7A1 JUMPI DUP3 SWAP1 SUB PUSH1 0x1F AND DUP3 ADD SWAP2 JUMPDEST POP POP POP POP POP SWAP6 POP DUP5 DUP1 SLOAD PUSH1 0x1 DUP2 PUSH1 0x1 AND ISZERO PUSH2 0x100 MUL SUB AND PUSH1 0x2 SWAP1 DIV DUP1 PUSH1 0x1F ADD PUSH1 0x20 DUP1 SWAP2 DIV MUL PUSH1 0x20 ADD PUSH1 0x40 MLOAD SWAP1 DUP2 ADD PUSH1 0x40 MSTORE DUP1 SWAP3 SWAP2 SWAP1 DUP2 DUP2 MSTORE PUSH1 0x20 ADD DUP3 DUP1 SLOAD PUSH1 0x1 DUP2 PUSH1 0x1 AND ISZERO PUSH2 0x100 MUL SUB AND PUSH1 0x2 SWAP1 DIV DUP1 ISZERO PUSH2 0x85A JUMPI DUP1 PUSH1 0x1F LT PUSH2 0x82F JUMPI PUSH2 0x100 DUP1 DUP4 SLOAD DIV MUL DUP4 MSTORE SWAP2 PUSH1 0x20 ADD SWAP2 PUSH2 0x85A JUMP JUMPDEST DUP3 ADD SWAP2 SWAP1 PUSH1 0x0 MSTORE PUSH1 0x20 PUSH1 0x0 KECCAK256 SWAP1 JUMPDEST DUP2 SLOAD DUP2 MSTORE SWAP1 PUSH1 0x1 ADD SWAP1 PUSH1 0x20 ADD DUP1 DUP4 GT PUSH2 0x83D JUMPI DUP3 SWAP1 SUB PUSH1 0x1F AND DUP3 ADD SWAP2 JUMPDEST POP POP POP POP POP SWAP5 POP DUP4 DUP1 SLOAD PUSH1 0x1 DUP2 PUSH1 0x1 AND ISZERO PUSH2 0x100 MUL SUB AND PUSH1 0x2 SWAP1 DIV DUP1 PUSH1 0x1F ADD PUSH1 0x20 DUP1 SWAP2 DIV MUL PUSH1 0x20 ADD PUSH1 0x40 MLOAD SWAP1 DUP2 ADD PUSH1 0x40 MSTORE DUP1 SWAP3 SWAP2 SWAP1 DUP2 DUP2 MSTORE PUSH1 0x20 ADD DUP3 DUP1 SLOAD PUSH1 0x1 DUP2 PUSH1 0x1 AND ISZERO PUSH2 0x100 MUL SUB AND PUSH1 0x2 SWAP1 DIV DUP1 ISZERO PUSH2 0x8F6 JUMPI DUP1 PUSH1 0x1F LT PUSH2 0x8CB JUMPI PUSH2 0x100 DUP1 DUP4 SLOAD DIV MUL DUP4 MSTORE SWAP2 PUSH1 0x20 ADD SWAP2 PUSH2 0x8F6 JUMP JUMPDEST DUP3 ADD SWAP2 SWAP1 PUSH1 0x0 MSTORE PUSH1 0x20 PUSH1 0x0 KECCAK256 SWAP1 JUMPDEST DUP2 SLOAD DUP2 MSTORE SWAP1 PUSH1 0x1 ADD SWAP1 PUSH1 0x20 ADD DUP1 DUP4 GT PUSH2 0x8D9 JUMPI DUP3 SWAP1 SUB PUSH1 0x1F AND DUP3 ADD SWAP2 JUMPDEST POP POP POP POP POP SWAP4 POP DUP3 DUP1 SLOAD PUSH1 0x1 DUP2 PUSH1 0x1 AND ISZERO PUSH2 0x100 MUL SUB AND PUSH1 0x2 SWAP1 DIV DUP1 PUSH1 0x1F ADD PUSH1 0x20 DUP1 SWAP2 DIV MUL PUSH1 0x20 ADD PUSH1 0x40 MLOAD SWAP1 DUP2 ADD PUSH1 0x40 MSTORE DUP1 SWAP3 SWAP2 SWAP1 DUP2 DUP2 MSTORE PUSH1 0x20 ADD DUP3 DUP1 SLOAD PUSH1 0x1 DUP2 PUSH1 0x1 AND ISZERO PUSH2 0x100 MUL SUB AND PUSH1 0x2 SWAP1 DIV DUP1 ISZERO PUSH2 0x992 JUMPI DUP1 PUSH1 0x1F LT PUSH2 0x967 JUMPI PUSH2 0x100 DUP1 DUP4 SLOAD DIV MUL DUP4 MSTORE SWAP2 PUSH1 0x20 ADD SWAP2 PUSH2 0x992 JUMP JUMPDEST DUP3 ADD SWAP2 SWAP1 PUSH1 0x0 MSTORE PUSH1 0x20 PUSH1 0x0 KECCAK256 SWAP1 JUMPDEST DUP2 SLOAD DUP2 MSTORE SWAP1 PUSH1 0x1 ADD SWAP1 PUSH1 0x20 ADD DUP1 DUP4 GT PUSH2 0x975 JUMPI DUP3 SWAP1 SUB PUSH1 0x1F AND DUP3 ADD SWAP2 JUMPDEST POP POP POP POP POP SWAP3 POP DUP2 DUP1 SLOAD PUSH1 0x1 DUP2 PUSH1 0x1 AND ISZERO PUSH2 0x100 MUL SUB AND PUSH1 0x2 SWAP1 DIV DUP1 PUSH1 0x1F ADD PUSH1 0x20 DUP1 SWAP2 DIV MUL PUSH1 0x20 ADD PUSH1 0x40 MLOAD SWAP1 DUP2 ADD PUSH1 0x40 MSTORE DUP1 SWAP3 SWAP2 SWAP1 DUP2 DUP2 MSTORE PUSH1 0x20 ADD DUP3 DUP1 SLOAD PUSH1 0x1 DUP2 PUSH1 0x1 AND ISZERO PUSH2 0x100 MUL SUB AND PUSH1 0x2 SWAP1 DIV DUP1 ISZERO PUSH2 0xA2E JUMPI DUP1 PUSH1 0x1F LT PUSH2 0xA03 JUMPI PUSH2 0x100 DUP1 DUP4 SLOAD DIV MUL DUP4 MSTORE SWAP2 PUSH1 0x20 ADD SWAP2 PUSH2 0xA2E JUMP JUMPDEST DUP3 ADD SWAP2 SWAP1 PUSH1 0x0 MSTORE PUSH1 0x20 PUSH1 0x0 KECCAK256 SWAP1 JUMPDEST DUP2 SLOAD DUP2 MSTORE SWAP1 PUSH1 0x1 ADD SWAP1 PUSH1 0x20 ADD DUP1 DUP4 GT PUSH2 0xA11 JUMPI DUP3 SWAP1 SUB PUSH1 0x1F AND DUP3 ADD SWAP2 JUMPDEST POP POP POP POP POP SWAP2 POP DUP1 DUP1 SLOAD PUSH1 0x1 DUP2 PUSH1 0x1 AND ISZERO PUSH2 0x100 MUL SUB AND PUSH1 0x2 SWAP1 DIV DUP1 PUSH1 0x1F ADD PUSH1 0x20 DUP1 SWAP2 DIV MUL PUSH1 0x20 ADD PUSH1 0x40 MLOAD SWAP1 DUP2 ADD PUSH1 0x40 MSTORE DUP1 SWAP3 SWAP2 SWAP1 DUP2 DUP2 MSTORE PUSH1 0x20 ADD DUP3 DUP1 SLOAD PUSH1 0x1 DUP2 PUSH1 0x1 AND ISZERO PUSH2 0x100 MUL SUB AND PUSH1 0x2 SWAP1 DIV DUP1 ISZERO PUSH2 0xACA JUMPI DUP1 PUSH1 0x1F LT PUSH2 0xA9F JUMPI PUSH2 0x100 DUP1 DUP4 SLOAD DIV MUL DUP4 MSTORE SWAP2 PUSH1 0x20 ADD SWAP2 PUSH2 0xACA JUMP JUMPDEST DUP3 ADD SWAP2 SWAP1 PUSH1 0x0 MSTORE PUSH1 0x20 PUSH1 0x0 KECCAK256 SWAP1 JUMPDEST DUP2 SLOAD DUP2 MSTORE SWAP1 PUSH1 0x1 ADD SWAP1 PUSH1 0x20 ADD DUP1 DUP4 GT PUSH2 0xAAD JUMPI DUP3 SWAP1 SUB PUSH1 0x1F AND DUP3 ADD SWAP2 JUMPDEST POP POP POP POP POP SWAP1 POP SWAP7 POP SWAP7 POP SWAP7 POP SWAP7 POP SWAP7 POP SWAP7 POP POP SWAP2 SWAP4 SWAP6 POP SWAP2 SWAP4 SWAP6 JUMP JUMPDEST PUSH1 0x8 SLOAD DUP2 JUMP JUMPDEST PUSH1 0x2 DUP2 DUP2 SLOAD DUP2 LT ISZERO ISZERO PUSH2 0xAFC JUMPI INVALID JUMPDEST SWAP1 PUSH1 0x0 MSTORE PUSH1 0x20 PUSH1 0x0 KECCAK256 ADD PUSH1 0x0 SWAP2 POP SLOAD SWAP1 PUSH2 0x100 EXP SWAP1 DIV PUSH20 0xFFFFFFFFFFFFFFFFFFFFFFFFFFFFFFFFFFFFFFFF AND DUP2 JUMP JUMPDEST PUSH1 0x0 PUSH1 0xB PUSH1 0x0 SWAP1 SLOAD SWAP1 PUSH2 0x100 EXP SWAP1 DIV PUSH20 0xFFFFFFFFFFFFFFFFFFFFFFFFFFFFFFFFFFFFFFFF AND PUSH20 0xFFFFFFFFFFFFFFFFFFFFFFFFFFFFFFFFFFFFFFFF AND CALLER PUSH20 0xFFFFFFFFFFFFFFFFFFFFFFFFFFFFFFFFFFFFFFFF AND EQ ISZERO ISZERO PUSH2 0xB89 JUMPI PUSH1 0x0 DUP1 REVERT JUMPDEST PUSH1 0x4 PUSH1 0x0 DUP11 PUSH20 0xFFFFFFFFFFFFFFFFFFFFFFFFFFFFFFFFFFFFFFFF AND PUSH20 0xFFFFFFFFFFFFFFFFFFFFFFFFFFFFFFFFFFFFFFFF AND DUP2 MSTORE PUSH1 0x20 ADD SWAP1 DUP2 MSTORE PUSH1 0x20 ADD PUSH1 0x0 KECCAK256 SWAP1 POP DUP8 DUP2 PUSH1 0x0 ADD SWAP1 DUP1 MLOAD SWAP1 PUSH1 0x20 ADD SWAP1 PUSH2 0xBE2 SWAP3 SWAP2 SWAP1 PUSH2 0x1E11 JUMP JUMPDEST POP DUP7 DUP2 PUSH1 0x1 ADD SWAP1 DUP1 MLOAD SWAP1 PUSH1 0x20 ADD SWAP1 PUSH2 0xBFB SWAP3 SWAP2 SWAP1 PUSH2 0x1E11 JUMP JUMPDEST POP DUP6 DUP2 PUSH1 0x2 ADD SWAP1 DUP1 MLOAD SWAP1 PUSH1 0x20 ADD SWAP1 PUSH2 0xC14 SWAP3 SWAP2 SWAP1 PUSH2 0x1E11 JUMP JUMPDEST POP DUP5 DUP2 PUSH1 0x3 ADD SWAP1 DUP1 MLOAD SWAP1 PUSH1 0x20 ADD SWAP1 PUSH2 0xC2D SWAP3 SWAP2 SWAP1 PUSH2 0x1E11 JUMP JUMPDEST POP DUP4 DUP2 PUSH1 0x4 ADD SWAP1 DUP1 MLOAD SWAP1 PUSH1 0x20 ADD SWAP1 PUSH2 0xC46 SWAP3 SWAP2 SWAP1 PUSH2 0x1E11 JUMP JUMPDEST POP DUP3 DUP2 PUSH1 0x7 ADD SWAP1 DUP1 MLOAD SWAP1 PUSH1 0x20 ADD SWAP1 PUSH2 0xC5F SWAP3 SWAP2 SWAP1 PUSH2 0x1E11 JUMP JUMPDEST POP DUP2 DUP2 PUSH1 0x8 ADD SWAP1 DUP1 MLOAD SWAP1 PUSH1 0x20 ADD SWAP1 PUSH2 0xC78 SWAP3 SWAP2 SWAP1 PUSH2 0x1E11 JUMP JUMPDEST POP DUP9 DUP2 PUSH1 0x9 ADD PUSH1 0x0 PUSH2 0x100 EXP DUP2 SLOAD DUP2 PUSH20 0xFFFFFFFFFFFFFFFFFFFFFFFFFFFFFFFFFFFFFFFF MUL NOT AND SWAP1 DUP4 PUSH20 0xFFFFFFFFFFFFFFFFFFFFFFFFFFFFFFFFFFFFFFFF AND MUL OR SWAP1 SSTORE POP POP POP POP POP POP POP POP POP POP JUMP JUMPDEST PUSH1 0x0 PUSH1 0xA SLOAD SWAP1 POP SWAP1 JUMP JUMPDEST PUSH1 0x0 PUSH1 0x1 PUSH1 0x5 PUSH1 0x0 CALLER PUSH20 0xFFFFFFFFFFFFFFFFFFFFFFFFFFFFFFFFFFFFFFFF AND PUSH20 0xFFFFFFFFFFFFFFFFFFFFFFFFFFFFFFFFFFFFFFFF AND DUP2 MSTORE PUSH1 0x20 ADD SWAP1 DUP2 MSTORE PUSH1 0x20 ADD PUSH1 0x0 KECCAK256 PUSH1 0x0 DUP5 PUSH20 0xFFFFFFFFFFFFFFFFFFFFFFFFFFFFFFFFFFFFFFFF AND PUSH20 0xFFFFFFFFFFFFFFFFFFFFFFFFFFFFFFFFFFFFFFFF AND DUP2 MSTORE PUSH1 0x20 ADD SWAP1 DUP2 MSTORE PUSH1 0x20 ADD PUSH1 0x0 KECCAK256 PUSH1 0x0 PUSH2 0x100 EXP DUP2 SLOAD DUP2 PUSH1 0xFF MUL NOT AND SWAP1 DUP4 ISZERO ISZERO MUL OR SWAP1 SSTORE POP PUSH1 0xA PUSH1 0x0 DUP2 SLOAD DUP1 SWAP3 SWAP2 SWAP1 PUSH1 0x1 ADD SWAP2 SWAP1 POP SSTORE POP PUSH1 0x1 SWAP1 POP SWAP2 SWAP1 POP JUMP JUMPDEST PUSH1 0x0 DUP1 PUSH1 0xB PUSH1 0x0 SWAP1 SLOAD SWAP1 PUSH2 0x100 EXP SWAP1 DIV PUSH20 0xFFFFFFFFFFFFFFFFFFFFFFFFFFFFFFFFFFFFFFFF AND PUSH20 0xFFFFFFFFFFFFFFFFFFFFFFFFFFFFFFFFFFFFFFFF AND CALLER PUSH20 0xFFFFFFFFFFFFFFFFFFFFFFFFFFFFFFFFFFFFFFFF AND EQ ISZERO ISZERO PUSH2 0xDE2 JUMPI PUSH1 0x0 DUP1 REVERT JUMPDEST PUSH1 0x6 PUSH1 0x0 DUP14 PUSH20 0xFFFFFFFFFFFFFFFFFFFFFFFFFFFFFFFFFFFFFFFF AND PUSH20 0xFFFFFFFFFFFFFFFFFFFFFFFFFFFFFFFFFFFFFFFF AND DUP2 MSTORE PUSH1 0x20 ADD SWAP1 DUP2 MSTORE PUSH1 0x20 ADD PUSH1 0x0 KECCAK256 PUSH1 0x0 SWAP1 SLOAD SWAP1 PUSH2 0x100 EXP SWAP1 DIV PUSH1 0xFF AND ISZERO ISZERO ISZERO PUSH2 0xE3B JUMPI PUSH1 0x0 DUP1 REVERT JUMPDEST PUSH1 0x3 PUSH1 0x0 DUP14 PUSH20 0xFFFFFFFFFFFFFFFFFFFFFFFFFFFFFFFFFFFFFFFF AND PUSH20 0xFFFFFFFFFFFFFFFFFFFFFFFFFFFFFFFFFFFFFFFF AND DUP2 MSTORE PUSH1 0x20 ADD SWAP1 DUP2 MSTORE PUSH1 0x20 ADD PUSH1 0x0 KECCAK256 SWAP2 POP DUP11 DUP3 PUSH1 0x0 ADD SWAP1 DUP1 MLOAD SWAP1 PUSH1 0x20 ADD SWAP1 PUSH2 0xE94 SWAP3 SWAP2 SWAP1 PUSH2 0x1E11 JUMP JUMPDEST POP DUP10 DUP3 PUSH1 0x1 ADD SWAP1 DUP1 MLOAD SWAP1 PUSH1 0x20 ADD SWAP1 PUSH2 0xEAD SWAP3 SWAP2 SWAP1 PUSH2 0x1E11 JUMP JUMPDEST POP DUP9 DUP3 PUSH1 0x2 ADD SWAP1 DUP1 MLOAD SWAP1 PUSH1 0x20 ADD SWAP1 PUSH2 0xEC6 SWAP3 SWAP2 SWAP1 PUSH2 0x1E11 JUMP JUMPDEST POP DUP8 DUP3 PUSH1 0x3 ADD SWAP1 DUP1 MLOAD SWAP1 PUSH1 0x20 ADD SWAP1 PUSH2 0xEDF SWAP3 SWAP2 SWAP1 PUSH2 0x1E11 JUMP JUMPDEST POP DUP7 DUP3 PUSH1 0x4 ADD SWAP1 DUP1 MLOAD SWAP1 PUSH1 0x20 ADD SWAP1 PUSH2 0xEF8 SWAP3 SWAP2 SWAP1 PUSH2 0x1E11 JUMP JUMPDEST POP DUP6 DUP3 PUSH1 0x5 ADD SWAP1 DUP1 MLOAD SWAP1 PUSH1 0x20 ADD SWAP1 PUSH2 0xF11 SWAP3 SWAP2 SWAP1 PUSH2 0x1E11 JUMP JUMPDEST POP DUP5 DUP3 PUSH1 0x6 ADD SWAP1 DUP1 MLOAD SWAP1 PUSH1 0x20 ADD SWAP1 PUSH2 0xF2A SWAP3 SWAP2 SWAP1 PUSH2 0x1E11 JUMP JUMPDEST POP DUP4 DUP3 PUSH1 0x7 ADD SWAP1 DUP1 MLOAD SWAP1 PUSH1 0x20 ADD SWAP1 PUSH2 0xF43 SWAP3 SWAP2 SWAP1 PUSH2 0x1E11 JUMP JUMPDEST POP DUP3 DUP3 PUSH1 0x8 ADD SWAP1 DUP1 MLOAD SWAP1 PUSH1 0x20 ADD SWAP1 PUSH2 0xF5C SWAP3 SWAP2 SWAP1 PUSH2 0x1E11 JUMP JUMPDEST POP CALLER DUP3 PUSH1 0x9 ADD PUSH1 0x0 PUSH2 0x100 EXP DUP2 SLOAD DUP2 PUSH20 0xFFFFFFFFFFFFFFFFFFFFFFFFFFFFFFFFFFFFFFFF MUL NOT AND SWAP1 DUP4 PUSH20 0xFFFFFFFFFFFFFFFFFFFFFFFFFFFFFFFFFFFFFFFF AND MUL OR SWAP1 SSTORE POP TIMESTAMP DUP3 PUSH1 0xA ADD DUP2 SWAP1 SSTORE POP PUSH1 0x1 CALLER SWAP1 DUP1 PUSH1 0x1 DUP2 SLOAD ADD DUP1 DUP3 SSTORE DUP1 SWAP2 POP POP SWAP1 PUSH1 0x1 DUP3 SUB SWAP1 PUSH1 0x0 MSTORE PUSH1 0x20 PUSH1 0x0 KECCAK256 ADD PUSH1 0x0 SWAP1 SWAP2 SWAP3 SWAP1 SWAP2 SWAP1 SWAP2 PUSH2 0x100 EXP DUP2 SLOAD DUP2 PUSH20 0xFFFFFFFFFFFFFFFFFFFFFFFFFFFFFFFFFFFFFFFF MUL NOT AND SWAP1 DUP4 PUSH20 0xFFFFFFFFFFFFFFFFFFFFFFFFFFFFFFFFFFFFFFFF AND MUL OR SWAP1 SSTORE POP POP PUSH1 0x1 PUSH1 0x6 PUSH1 0x0 CALLER PUSH20 0xFFFFFFFFFFFFFFFFFFFFFFFFFFFFFFFFFFFFFFFF AND PUSH20 0xFFFFFFFFFFFFFFFFFFFFFFFFFFFFFFFFFFFFFFFF AND DUP2 MSTORE PUSH1 0x20 ADD SWAP1 DUP2 MSTORE PUSH1 0x20 ADD PUSH1 0x0 KECCAK256 PUSH1 0x0 PUSH2 0x100 EXP DUP2 SLOAD DUP2 PUSH1 0xFF MUL NOT AND SWAP1 DUP4 ISZERO ISZERO MUL OR SWAP1 SSTORE POP PUSH1 0x1 PUSH1 0x5 PUSH1 0x0 CALLER PUSH20 0xFFFFFFFFFFFFFFFFFFFFFFFFFFFFFFFFFFFFFFFF AND PUSH20 0xFFFFFFFFFFFFFFFFFFFFFFFFFFFFFFFFFFFFFFFF AND DUP2 MSTORE PUSH1 0x20 ADD SWAP1 DUP2 MSTORE PUSH1 0x20 ADD PUSH1 0x0 KECCAK256 PUSH1 0x0 CALLER PUSH20 0xFFFFFFFFFFFFFFFFFFFFFFFFFFFFFFFFFFFFFFFF AND PUSH20 0xFFFFFFFFFFFFFFFFFFFFFFFFFFFFFFFFFFFFFFFF AND DUP2 MSTORE PUSH1 0x20 ADD SWAP1 DUP2 MSTORE PUSH1 0x20 ADD PUSH1 0x0 KECCAK256 PUSH1 0x0 PUSH2 0x100 EXP DUP2 SLOAD DUP2 PUSH1 0xFF MUL NOT AND SWAP1 DUP4 ISZERO ISZERO MUL OR SWAP1 SSTORE POP PUSH1 0x8 PUSH1 0x0 DUP2 SLOAD DUP1 SWAP3 SWAP2 SWAP1 PUSH1 0x1 ADD SWAP2 SWAP1 POP SSTORE POP DUP1 DUP3 PUSH1 0x0 ADD SWAP1 DUP1 PUSH1 0x1 DUP2 SLOAD ADD DUP1 DUP3 SSTORE DUP1 SWAP2 POP POP SWAP1 PUSH1 0x1 DUP3 SUB SWAP1 PUSH1 0x0 MSTORE PUSH1 0x20 PUSH1 0x0 KECCAK256 ADD PUSH1 0x0 SWAP1 SWAP2 SWAP3 SWAP1 SWAP2 SWAP1 SWAP2 POP SWAP1 DUP1 SLOAD PUSH1 0x1 DUP2 PUSH1 0x1 AND ISZERO PUSH2 0x100 MUL SUB AND PUSH1 0x2 SWAP1 DIV PUSH2 0x1159 SWAP3 SWAP2 SWAP1 PUSH2 0x1E91 JUMP JUMPDEST POP POP DUP1 DUP3 PUSH1 0x1 ADD SWAP1 DUP1 PUSH1 0x1 DUP2 SLOAD ADD DUP1 DUP3 SSTORE DUP1 SWAP2 POP POP SWAP1 PUSH1 0x1 DUP3 SUB SWAP1 PUSH1 0x0 MSTORE PUSH1 0x20 PUSH1 0x0 KECCAK256 ADD PUSH1 0x0 SWAP1 SWAP2 SWAP3 SWAP1 SWAP2 SWAP1 SWAP2 POP SWAP1 DUP1 SLOAD PUSH1 0x1 DUP2 PUSH1 0x1 AND ISZERO PUSH2 0x100 MUL SUB AND PUSH1 0x2 SWAP1 DIV PUSH2 0x11A6 SWAP3 SWAP2 SWAP1 PUSH2 0x1E91 JUMP JUMPDEST POP POP DUP1 DUP3 PUSH1 0x2 ADD SWAP1 DUP1 PUSH1 0x1 DUP2 SLOAD ADD DUP1 DUP3 SSTORE DUP1 SWAP2 POP POP SWAP1 PUSH1 0x1 DUP3 SUB SWAP1 PUSH1 0x0 MSTORE PUSH1 0x20 PUSH1 0x0 KECCAK256 ADD PUSH1 0x0 SWAP1 SWAP2 SWAP3 SWAP1 SWAP2 SWAP1 SWAP2 POP SWAP1 DUP1 SLOAD PUSH1 0x1 DUP2 PUSH1 0x1 AND ISZERO PUSH2 0x100 MUL SUB AND PUSH1 0x2 SWAP1 DIV PUSH2 0x11F3 SWAP3 SWAP2 SWAP1 PUSH2 0x1E91 JUMP JUMPDEST POP POP DUP1 DUP3 PUSH1 0x3 ADD SWAP1 DUP1 PUSH1 0x1 DUP2 SLOAD ADD DUP1 DUP3 SSTORE DUP1 SWAP2 POP POP SWAP1 PUSH1 0x1 DUP3 SUB SWAP1 PUSH1 0x0 MSTORE PUSH1 0x20 PUSH1 0x0 KECCAK256 ADD PUSH1 0x0 SWAP1 SWAP2 SWAP3 SWAP1 SWAP2 SWAP1 SWAP2 POP SWAP1 DUP1 SLOAD PUSH1 0x1 DUP2 PUSH1 0x1 AND ISZERO PUSH2 0x100 MUL SUB AND PUSH1 0x2 SWAP1 DIV PUSH2 0x1240 SWAP3 SWAP2 SWAP1 PUSH2 0x1E91 JUMP JUMPDEST POP POP DUP1 DUP3 PUSH1 0x4 ADD SWAP1 DUP1 PUSH1 0x1 DUP2 SLOAD ADD DUP1 DUP3 SSTORE DUP1 SWAP2 POP POP SWAP1 PUSH1 0x1 DUP3 SUB SWAP1 PUSH1 0x0 MSTORE PUSH1 0x20 PUSH1 0x0 KECCAK256 ADD PUSH1 0x0 SWAP1 SWAP2 SWAP3 SWAP1 SWAP2 SWAP1 SWAP2 POP SWAP1 DUP1 SLOAD PUSH1 0x1 DUP2 PUSH1 0x1 AND ISZERO PUSH2 0x100 MUL SUB AND PUSH1 0x2 SWAP1 DIV PUSH2 0x128D SWAP3 SWAP2 SWAP1 PUSH2 0x1E91 JUMP JUMPDEST POP POP DUP1 DUP3 PUSH1 0x5 ADD SWAP1 DUP1 PUSH1 0x1 DUP2 SLOAD ADD DUP1 DUP3 SSTORE DUP1 SWAP2 POP POP SWAP1 PUSH1 0x1 DUP3 SUB SWAP1 PUSH1 0x0 MSTORE PUSH1 0x20 PUSH1 0x0 KECCAK256 ADD PUSH1 0x0 SWAP1 SWAP2 SWAP3 SWAP1 SWAP2 SWAP1 SWAP2 POP SWAP1 DUP1 SLOAD PUSH1 0x1 DUP2 PUSH1 0x1 AND ISZERO PUSH2 0x100 MUL SUB AND PUSH1 0x2 SWAP1 DIV PUSH2 0x12DA SWAP3 SWAP2 SWAP1 PUSH2 0x1E91 JUMP JUMPDEST POP POP DUP1 DUP3 PUSH1 0x6 ADD SWAP1 DUP1 PUSH1 0x1 DUP2 SLOAD ADD DUP1 DUP3 SSTORE DUP1 SWAP2 POP POP SWAP1 PUSH1 0x1 DUP3 SUB SWAP1 PUSH1 0x0 MSTORE PUSH1 0x20 PUSH1 0x0 KECCAK256 ADD PUSH1 0x0 SWAP1 SWAP2 SWAP3 SWAP1 SWAP2 SWAP1 SWAP2 POP SWAP1 DUP1 SLOAD PUSH1 0x1 DUP2 PUSH1 0x1 AND ISZERO PUSH2 0x100 MUL SUB AND PUSH1 0x2 SWAP1 DIV PUSH2 0x1327 SWAP3 SWAP2 SWAP1 PUSH2 0x1E91 JUMP JUMPDEST POP POP POP POP POP POP POP POP POP POP POP POP POP POP JUMP JUMPDEST PUSH1 0x0 PUSH1 0xB PUSH1 0x0 SWAP1 SLOAD SWAP1 PUSH2 0x100 EXP SWAP1 DIV PUSH20 0xFFFFFFFFFFFFFFFFFFFFFFFFFFFFFFFFFFFFFFFF AND PUSH20 0xFFFFFFFFFFFFFFFFFFFFFFFFFFFFFFFFFFFFFFFF AND CALLER PUSH20 0xFFFFFFFFFFFFFFFFFFFFFFFFFFFFFFFFFFFFFFFF AND EQ ISZERO ISZERO PUSH2 0x1395 JUMPI PUSH1 0x0 DUP1 REVERT JUMPDEST PUSH1 0x3 PUSH1 0x0 DUP13 PUSH20 0xFFFFFFFFFFFFFFFFFFFFFFFFFFFFFFFFFFFFFFFF AND PUSH20 0xFFFFFFFFFFFFFFFFFFFFFFFFFFFFFFFFFFFFFFFF AND DUP2 MSTORE PUSH1 0x20 ADD SWAP1 DUP2 MSTORE PUSH1 0x20 ADD PUSH1 0x0 KECCAK256 SWAP1 POP DUP10 DUP2 PUSH1 0x0 ADD SWAP1 DUP1 MLOAD SWAP1 PUSH1 0x20 ADD SWAP1 PUSH2 0x13EE SWAP3 SWAP2 SWAP1 PUSH2 0x1E11 JUMP JUMPDEST POP DUP9 DUP2 PUSH1 0x1 ADD SWAP1 DUP1 MLOAD SWAP1 PUSH1 0x20 ADD SWAP1 PUSH2 0x1407 SWAP3 SWAP2 SWAP1 PUSH2 0x1E11 JUMP JUMPDEST POP DUP8 DUP2 PUSH1 0x2 ADD SWAP1 DUP1 MLOAD SWAP1 PUSH1 0x20 ADD SWAP1 PUSH2 0x1420 SWAP3 SWAP2 SWAP1 PUSH2 0x1E11 JUMP JUMPDEST POP DUP7 DUP2 PUSH1 0x3 ADD SWAP1 DUP1 MLOAD SWAP1 PUSH1 0x20 ADD SWAP1 PUSH2 0x1439 SWAP3 SWAP2 SWAP1 PUSH2 0x1E11 JUMP JUMPDEST POP DUP6 DUP2 PUSH1 0x4 ADD SWAP1 DUP1 MLOAD SWAP1 PUSH1 0x20 ADD SWAP1 PUSH2 0x1452 SWAP3 SWAP2 SWAP1 PUSH2 0x1E11 JUMP JUMPDEST POP DUP5 DUP2 PUSH1 0x5 ADD SWAP1 DUP1 MLOAD SWAP1 PUSH1 0x20 ADD SWAP1 PUSH2 0x146B SWAP3 SWAP2 SWAP1 PUSH2 0x1E11 JUMP JUMPDEST POP DUP4 DUP2 PUSH1 0x6 ADD SWAP1 DUP1 MLOAD SWAP1 PUSH1 0x20 ADD SWAP1 PUSH2 0x1484 SWAP3 SWAP2 SWAP1 PUSH2 0x1E11 JUMP JUMPDEST POP DUP3 DUP2 PUSH1 0x7 ADD SWAP1 DUP1 MLOAD SWAP1 PUSH1 0x20 ADD SWAP1 PUSH2 0x149D SWAP3 SWAP2 SWAP1 PUSH2 0x1E11 JUMP JUMPDEST POP DUP2 DUP2 PUSH1 0x8 ADD SWAP1 DUP1 MLOAD SWAP1 PUSH1 0x20 ADD SWAP1 PUSH2 0x14B6 SWAP3 SWAP2 SWAP1 PUSH2 0x1E11 JUMP JUMPDEST POP DUP11 DUP2 PUSH1 0x9 ADD PUSH1 0x0 PUSH2 0x100 EXP DUP2 SLOAD DUP2 PUSH20 0xFFFFFFFFFFFFFFFFFFFFFFFFFFFFFFFFFFFFFFFF MUL NOT AND SWAP1 DUP4 PUSH20 0xFFFFFFFFFFFFFFFFFFFFFFFFFFFFFFFFFFFFFFFF AND MUL OR SWAP1 SSTORE POP POP POP POP POP POP POP POP POP POP POP POP JUMP JUMPDEST PUSH1 0x9 SLOAD DUP2 JUMP JUMPDEST PUSH1 0x0 PUSH1 0x9 SLOAD SWAP1 POP SWAP1 JUMP JUMPDEST PUSH1 0x0 PUSH1 0x7 PUSH1 0x0 CALLER PUSH20 0xFFFFFFFFFFFFFFFFFFFFFFFFFFFFFFFFFFFFFFFF AND PUSH20 0xFFFFFFFFFFFFFFFFFFFFFFFFFFFFFFFFFFFFFFFF AND DUP2 MSTORE PUSH1 0x20 ADD SWAP1 DUP2 MSTORE PUSH1 0x20 ADD PUSH1 0x0 KECCAK256 PUSH1 0x0 SWAP1 SLOAD SWAP1 PUSH2 0x100 EXP SWAP1 DIV PUSH1 0xFF AND ISZERO ISZERO ISZERO PUSH2 0x1572 JUMPI PUSH1 0x0 DUP1 REVERT JUMPDEST PUSH1 0x4 PUSH1 0x0 CALLER PUSH20 0xFFFFFFFFFFFFFFFFFFFFFFFFFFFFFFFFFFFFFFFF AND PUSH20 0xFFFFFFFFFFFFFFFFFFFFFFFFFFFFFFFFFFFFFFFF AND DUP2 MSTORE PUSH1 0x20 ADD SWAP1 DUP2 MSTORE PUSH1 0x20 ADD PUSH1 0x0 KECCAK256 SWAP1 POP DUP8 DUP2 PUSH1 0x0 ADD SWAP1 DUP1 MLOAD SWAP1 PUSH1 0x20 ADD SWAP1 PUSH2 0x15CB SWAP3 SWAP2 SWAP1 PUSH2 0x1E11 JUMP JUMPDEST POP DUP7 DUP2 PUSH1 0x1 ADD SWAP1 DUP1 MLOAD SWAP1 PUSH1 0x20 ADD SWAP1 PUSH2 0x15E4 SWAP3 SWAP2 SWAP1 PUSH2 0x1E11 JUMP JUMPDEST POP DUP6 DUP2 PUSH1 0x2 ADD SWAP1 DUP1 MLOAD SWAP1 PUSH1 0x20 ADD SWAP1 PUSH2 0x15FD SWAP3 SWAP2 SWAP1 PUSH2 0x1E11 JUMP JUMPDEST POP DUP5 DUP2 PUSH1 0x3 ADD SWAP1 DUP1 MLOAD SWAP1 PUSH1 0x20 ADD SWAP1 PUSH2 0x1616 SWAP3 SWAP2 SWAP1 PUSH2 0x1E11 JUMP JUMPDEST POP DUP4 DUP2 PUSH1 0x4 ADD SWAP1 DUP1 MLOAD SWAP1 PUSH1 0x20 ADD SWAP1 PUSH2 0x162F SWAP3 SWAP2 SWAP1 PUSH2 0x1E11 JUMP JUMPDEST POP DUP3 DUP2 PUSH1 0x7 ADD SWAP1 DUP1 MLOAD SWAP1 PUSH1 0x20 ADD SWAP1 PUSH2 0x1648 SWAP3 SWAP2 SWAP1 PUSH2 0x1E11 JUMP JUMPDEST POP DUP2 DUP2 PUSH1 0x8 ADD SWAP1 DUP1 MLOAD SWAP1 PUSH1 0x20 ADD SWAP1 PUSH2 0x1661 SWAP3 SWAP2 SWAP1 PUSH2 0x1E11 JUMP JUMPDEST POP CALLER DUP2 PUSH1 0x9 ADD PUSH1 0x0 PUSH2 0x100 EXP DUP2 SLOAD DUP2 PUSH20 0xFFFFFFFFFFFFFFFFFFFFFFFFFFFFFFFFFFFFFFFF MUL NOT AND SWAP1 DUP4 PUSH20 0xFFFFFFFFFFFFFFFFFFFFFFFFFFFFFFFFFFFFFFFF AND MUL OR SWAP1 SSTORE POP TIMESTAMP DUP2 PUSH1 0xA ADD DUP2 SWAP1 SSTORE POP PUSH1 0x2 CALLER SWAP1 DUP1 PUSH1 0x1 DUP2 SLOAD ADD DUP1 DUP3 SSTORE DUP1 SWAP2 POP POP SWAP1 PUSH1 0x1 DUP3 SUB SWAP1 PUSH1 0x0 MSTORE PUSH1 0x20 PUSH1 0x0 KECCAK256 ADD PUSH1 0x0 SWAP1 SWAP2 SWAP3 SWAP1 SWAP2 SWAP1 SWAP2 PUSH2 0x100 EXP DUP2 SLOAD DUP2 PUSH20 0xFFFFFFFFFFFFFFFFFFFFFFFFFFFFFFFFFFFFFFFF MUL NOT AND SWAP1 DUP4 PUSH20 0xFFFFFFFFFFFFFFFFFFFFFFFFFFFFFFFFFFFFFFFF AND MUL OR SWAP1 SSTORE POP POP PUSH1 0x1 PUSH1 0x7 PUSH1 0x0 CALLER PUSH20 0xFFFFFFFFFFFFFFFFFFFFFFFFFFFFFFFFFFFFFFFF AND PUSH20 0xFFFFFFFFFFFFFFFFFFFFFFFFFFFFFFFFFFFFFFFF AND DUP2 MSTORE PUSH1 0x20 ADD SWAP1 DUP2 MSTORE PUSH1 0x20 ADD PUSH1 0x0 KECCAK256 PUSH1 0x0 PUSH2 0x100 EXP DUP2 SLOAD DUP2 PUSH1 0xFF MUL NOT AND SWAP1 DUP4 ISZERO ISZERO MUL OR SWAP1 SSTORE POP PUSH1 0x9 PUSH1 0x0 DUP2 SLOAD DUP1 SWAP3 SWAP2 SWAP1 PUSH1 0x1 ADD SWAP2 SWAP1 POP SSTORE POP POP POP POP POP POP POP POP POP JUMP JUMPDEST PUSH1 0x0 DUP1 SWAP1 SLOAD SWAP1 PUSH2 0x100 EXP SWAP1 DIV PUSH20 0xFFFFFFFFFFFFFFFFFFFFFFFFFFFFFFFFFFFFFFFF AND DUP2 JUMP JUMPDEST CALLER PUSH1 0x0 DUP1 PUSH2 0x100 EXP DUP2 SLOAD DUP2 PUSH20 0xFFFFFFFFFFFFFFFFFFFFFFFFFFFFFFFFFFFFFFFF MUL NOT AND SWAP1 DUP4 PUSH20 0xFFFFFFFFFFFFFFFFFFFFFFFFFFFFFFFFFFFFFFFF AND MUL OR SWAP1 SSTORE POP JUMP JUMPDEST PUSH1 0x1 DUP2 DUP2 SLOAD DUP2 LT ISZERO ISZERO PUSH2 0x17FE JUMPI INVALID JUMPDEST SWAP1 PUSH1 0x0 MSTORE PUSH1 0x20 PUSH1 0x0 KECCAK256 ADD PUSH1 0x0 SWAP2 POP SLOAD SWAP1 PUSH2 0x100 EXP SWAP1 DIV PUSH20 0xFFFFFFFFFFFFFFFFFFFFFFFFFFFFFFFFFFFFFFFF AND DUP2 JUMP JUMPDEST PUSH1 0xA SLOAD DUP2 JUMP JUMPDEST PUSH1 0x60 PUSH1 0x2 DUP1 SLOAD DUP1 PUSH1 0x20 MUL PUSH1 0x20 ADD PUSH1 0x40 MLOAD SWAP1 DUP2 ADD PUSH1 0x40 MSTORE DUP1 SWAP3 SWAP2 SWAP1 DUP2 DUP2 MSTORE PUSH1 0x20 ADD DUP3 DUP1 SLOAD DUP1 ISZERO PUSH2 0x18B7 JUMPI PUSH1 0x20 MUL DUP3 ADD SWAP2 SWAP1 PUSH1 0x0 MSTORE PUSH1 0x20 PUSH1 0x0 KECCAK256 SWAP1 JUMPDEST DUP2 PUSH1 0x0 SWAP1 SLOAD SWAP1 PUSH2 0x100 EXP SWAP1 DIV PUSH20 0xFFFFFFFFFFFFFFFFFFFFFFFFFFFFFFFFFFFFFFFF AND PUSH20 0xFFFFFFFFFFFFFFFFFFFFFFFFFFFFFFFFFFFFFFFF AND DUP2 MSTORE PUSH1 0x20 ADD SWAP1 PUSH1 0x1 ADD SWAP1 DUP1 DUP4 GT PUSH2 0x186D JUMPI JUMPDEST POP POP POP POP POP SWAP1 POP SWAP1 JUMP JUMPDEST PUSH1 0x0 PUSH1 0x8 SLOAD SWAP1 POP SWAP1 JUMP JUMPDEST PUSH1 0xB PUSH1 0x0 SWAP1 SLOAD SWAP1 PUSH2 0x100 EXP SWAP1 DIV PUSH20 0xFFFFFFFFFFFFFFFFFFFFFFFFFFFFFFFFFFFFFFFF AND DUP2 JUMP JUMPDEST PUSH1 0x60 DUP1 PUSH1 0x60 DUP1 PUSH1 0x60 DUP1 PUSH1 0x60 PUSH1 0x0 PUSH1 0x7 PUSH1 0x0 DUP11 PUSH20 0xFFFFFFFFFFFFFFFFFFFFFFFFFFFFFFFFFFFFFFFF AND PUSH20 0xFFFFFFFFFFFFFFFFFFFFFFFFFFFFFFFFFFFFFFFF AND DUP2 MSTORE PUSH1 0x20 ADD SWAP1 DUP2 MSTORE PUSH1 0x20 ADD PUSH1 0x0 KECCAK256 PUSH1 0x0 SWAP1 SLOAD SWAP1 PUSH2 0x100 EXP SWAP1 DIV PUSH1 0xFF AND ISZERO ISZERO PUSH2 0x1956 JUMPI PUSH1 0x0 DUP1 REVERT JUMPDEST PUSH1 0x4 PUSH1 0x0 DUP11 PUSH20 0xFFFFFFFFFFFFFFFFFFFFFFFFFFFFFFFFFFFFFFFF AND PUSH20 0xFFFFFFFFFFFFFFFFFFFFFFFFFFFFFFFFFFFFFFFF AND DUP2 MSTORE PUSH1 0x20 ADD SWAP1 DUP2 MSTORE PUSH1 0x20 ADD PUSH1 0x0 KECCAK256 SWAP1 POP DUP1 PUSH1 0x0 ADD DUP2 PUSH1 0x1 ADD DUP3 PUSH1 0x2 ADD DUP4 PUSH1 0x3 ADD DUP5 PUSH1 0x4 ADD DUP6 PUSH1 0x7 ADD DUP7 PUSH1 0x8 ADD DUP7 DUP1 SLOAD PUSH1 0x1 DUP2 PUSH1 0x1 AND ISZERO PUSH2 0x100 MUL SUB AND PUSH1 0x2 SWAP1 DIV DUP1 PUSH1 0x1F ADD PUSH1 0x20 DUP1 SWAP2 DIV MUL PUSH1 0x20 ADD PUSH1 0x40 MLOAD SWAP1 DUP2 ADD PUSH1 0x40 MSTORE DUP1 SWAP3 SWAP2 SWAP1 DUP2 DUP2 MSTORE PUSH1 0x20 ADD DUP3 DUP1 SLOAD PUSH1 0x1 DUP2 PUSH1 0x1 AND ISZERO PUSH2 0x100 MUL SUB AND PUSH1 0x2 SWAP1 DIV DUP1 ISZERO PUSH2 0x1A48 JUMPI DUP1 PUSH1 0x1F LT PUSH2 0x1A1D JUMPI PUSH2 0x100 DUP1 DUP4 SLOAD DIV MUL DUP4 MSTORE SWAP2 PUSH1 0x20 ADD SWAP2 PUSH2 0x1A48 JUMP JUMPDEST DUP3 ADD SWAP2 SWAP1 PUSH1 0x0 MSTORE PUSH1 0x20 PUSH1 0x0 KECCAK256 SWAP1 JUMPDEST DUP2 SLOAD DUP2 MSTORE SWAP1 PUSH1 0x1 ADD SWAP1 PUSH1 0x20 ADD DUP1 DUP4 GT PUSH2 0x1A2B JUMPI DUP3 SWAP1 SUB PUSH1 0x1F AND DUP3 ADD SWAP2 JUMPDEST POP POP POP POP POP SWAP7 POP DUP6 DUP1 SLOAD PUSH1 0x1 DUP2 PUSH1 0x1 AND ISZERO PUSH2 0x100 MUL SUB AND PUSH1 0x2 SWAP1 DIV DUP1 PUSH1 0x1F ADD PUSH1 0x20 DUP1 SWAP2 DIV MUL PUSH1 0x20 ADD PUSH1 0x40 MLOAD SWAP1 DUP2 ADD PUSH1 0x40 MSTORE DUP1 SWAP3 SWAP2 SWAP1 DUP2 DUP2 MSTORE PUSH1 0x20 ADD DUP3 DUP1 SLOAD PUSH1 0x1 DUP2 PUSH1 0x1 AND ISZERO PUSH2 0x100 MUL SUB AND PUSH1 0x2 SWAP1 DIV DUP1 ISZERO PUSH2 0x1AE4 JUMPI DUP1 PUSH1 0x1F LT PUSH2 0x1AB9 JUMPI PUSH2 0x100 DUP1 DUP4 SLOAD DIV MUL DUP4 MSTORE SWAP2 PUSH1 0x20 ADD SWAP2 PUSH2 0x1AE4 JUMP JUMPDEST DUP3 ADD SWAP2 SWAP1 PUSH1 0x0 MSTORE PUSH1 0x20 PUSH1 0x0 KECCAK256 SWAP1 JUMPDEST DUP2 SLOAD DUP2 MSTORE SWAP1 PUSH1 0x1 ADD SWAP1 PUSH1 0x20 ADD DUP1 DUP4 GT PUSH2 0x1AC7 JUMPI DUP3 SWAP1 SUB PUSH1 0x1F AND DUP3 ADD SWAP2 JUMPDEST POP POP POP POP POP SWAP6 POP DUP5 DUP1 SLOAD PUSH1 0x1 DUP2 PUSH1 0x1 AND ISZERO PUSH2 0x100 MUL SUB AND PUSH1 0x2 SWAP1 DIV DUP1 PUSH1 0x1F ADD PUSH1 0x20 DUP1 SWAP2 DIV MUL PUSH1 0x20 ADD PUSH1 0x40 MLOAD SWAP1 DUP2 ADD PUSH1 0x40 MSTORE DUP1 SWAP3 SWAP2 SWAP1 DUP2 DUP2 MSTORE PUSH1 0x20 ADD DUP3 DUP1 SLOAD PUSH1 0x1 DUP2 PUSH1 0x1 AND ISZERO PUSH2 0x100 MUL SUB AND PUSH1 0x2 SWAP1 DIV DUP1 ISZERO PUSH2 0x1B80 JUMPI DUP1 PUSH1 0x1F LT PUSH2 0x1B55 JUMPI PUSH2 0x100 DUP1 DUP4 SLOAD DIV MUL DUP4 MSTORE SWAP2 PUSH1 0x20 ADD SWAP2 PUSH2 0x1B80 JUMP JUMPDEST DUP3 ADD SWAP2 SWAP1 PUSH1 0x0 MSTORE PUSH1 0x20 PUSH1 0x0 KECCAK256 SWAP1 JUMPDEST DUP2 SLOAD DUP2 MSTORE SWAP1 PUSH1 0x1 ADD SWAP1 PUSH1 0x20 ADD DUP1 DUP4 GT PUSH2 0x1B63 JUMPI DUP3 SWAP1 SUB PUSH1 0x1F AND DUP3 ADD SWAP2 JUMPDEST POP POP POP POP POP SWAP5 POP DUP4 DUP1 SLOAD PUSH1 0x1 DUP2 PUSH1 0x1 AND ISZERO PUSH2 0x100 MUL SUB AND PUSH1 0x2 SWAP1 DIV DUP1 PUSH1 0x1F ADD PUSH1 0x20 DUP1 SWAP2 DIV MUL PUSH1 0x20 ADD PUSH1 0x40 MLOAD SWAP1 DUP2 ADD PUSH1 0x40 MSTORE DUP1 SWAP3 SWAP2 SWAP1 DUP2 DUP2 MSTORE PUSH1 0x20 ADD DUP3 DUP1 SLOAD PUSH1 0x1 DUP2 PUSH1 0x1 AND ISZERO PUSH2 0x100 MUL SUB AND PUSH1 0x2 SWAP1 DIV DUP1 ISZERO PUSH2 0x1C1C JUMPI DUP1 PUSH1 0x1F LT PUSH2 0x1BF1 JUMPI PUSH2 0x100 DUP1 DUP4 SLOAD DIV MUL DUP4 MSTORE SWAP2 PUSH1 0x20 ADD SWAP2 PUSH2 0x1C1C JUMP JUMPDEST DUP3 ADD SWAP2 SWAP1 PUSH1 0x0 MSTORE PUSH1 0x20 PUSH1 0x0 KECCAK256 SWAP1 JUMPDEST DUP2 SLOAD DUP2 MSTORE SWAP1 PUSH1 0x1 ADD SWAP1 PUSH1 0x20 ADD DUP1 DUP4 GT PUSH2 0x1BFF JUMPI DUP3 SWAP1 SUB PUSH1 0x1F AND DUP3 ADD SWAP2 JUMPDEST POP POP POP POP POP SWAP4 POP DUP3 DUP1 SLOAD PUSH1 0x1 DUP2 PUSH1 0x1 AND ISZERO PUSH2 0x100 MUL SUB AND PUSH1 0x2 SWAP1 DIV DUP1 PUSH1 0x1F ADD PUSH1 0x20 DUP1 SWAP2 DIV MUL PUSH1 0x20 ADD PUSH1 0x40 MLOAD SWAP1 DUP2 ADD PUSH1 0x40 MSTORE DUP1 SWAP3 SWAP2 SWAP1 DUP2 DUP2 MSTORE PUSH1 0x20 ADD DUP3 DUP1 SLOAD PUSH1 0x1 DUP2 PUSH1 0x1 AND ISZERO PUSH2 0x100 MUL SUB AND PUSH1 0x2 SWAP1 DIV DUP1 ISZERO PUSH2 0x1CB8 JUMPI DUP1 PUSH1 0x1F LT PUSH2 0x1C8D JUMPI PUSH2 0x100 DUP1 DUP4 SLOAD DIV MUL DUP4 MSTORE SWAP2 PUSH1 0x20 ADD SWAP2 PUSH2 0x1CB8 JUMP JUMPDEST DUP3 ADD SWAP2 SWAP1 PUSH1 0x0 MSTORE PUSH1 0x20 PUSH1 0x0 KECCAK256 SWAP1 JUMPDEST DUP2 SLOAD DUP2 MSTORE SWAP1 PUSH1 0x1 ADD SWAP1 PUSH1 0x20 ADD DUP1 DUP4 GT PUSH2 0x1C9B JUMPI DUP3 SWAP1 SUB PUSH1 0x1F AND DUP3 ADD SWAP2 JUMPDEST POP POP POP POP POP SWAP3 POP DUP2 DUP1 SLOAD PUSH1 0x1 DUP2 PUSH1 0x1 AND ISZERO PUSH2 0x100 MUL SUB AND PUSH1 0x2 SWAP1 DIV DUP1 PUSH1 0x1F ADD PUSH1 0x20 DUP1 SWAP2 DIV MUL PUSH1 0x20 ADD PUSH1 0x40 MLOAD SWAP1 DUP2 ADD PUSH1 0x40 MSTORE DUP1 SWAP3 SWAP2 SWAP1 DUP2 DUP2 MSTORE PUSH1 0x20 ADD DUP3 DUP1 SLOAD PUSH1 0x1 DUP2 PUSH1 0x1 AND ISZERO PUSH2 0x100 MUL SUB AND PUSH1 0x2 SWAP1 DIV DUP1 ISZERO PUSH2 0x1D54 JUMPI DUP1 PUSH1 0x1F LT PUSH2 0x1D29 JUMPI PUSH2 0x100 DUP1 DUP4 SLOAD DIV MUL DUP4 MSTORE SWAP2 PUSH1 0x20 ADD SWAP2 PUSH2 0x1D54 JUMP JUMPDEST DUP3 ADD SWAP2 SWAP1 PUSH1 0x0 MSTORE PUSH1 0x20 PUSH1 0x0 KECCAK256 SWAP1 JUMPDEST DUP2 SLOAD DUP2 MSTORE SWAP1 PUSH1 0x1 ADD SWAP1 PUSH1 0x20 ADD DUP1 DUP4 GT PUSH2 0x1D37 JUMPI DUP3 SWAP1 SUB PUSH1 0x1F AND DUP3 ADD SWAP2 JUMPDEST POP POP POP POP POP SWAP2 POP DUP1 DUP1 SLOAD PUSH1 0x1 DUP2 PUSH1 0x1 AND ISZERO PUSH2 0x100 MUL SUB AND PUSH1 0x2 SWAP1 DIV DUP1 PUSH1 0x1F ADD PUSH1 0x20 DUP1 SWAP2 DIV MUL PUSH1 0x20 ADD PUSH1 0x40 MLOAD SWAP1 DUP2 ADD PUSH1 0x40 MSTORE DUP1 SWAP3 SWAP2 SWAP1 DUP2 DUP2 MSTORE PUSH1 0x20 ADD DUP3 DUP1 SLOAD PUSH1 0x1 DUP2 PUSH1 0x1 AND ISZERO PUSH2 0x100 MUL SUB AND PUSH1 0x2 SWAP1 DIV DUP1 ISZERO PUSH2 0x1DF0 JUMPI DUP1 PUSH1 0x1F LT PUSH2 0x1DC5 JUMPI PUSH2 0x100 DUP1 DUP4 SLOAD DIV MUL DUP4 MSTORE SWAP2 PUSH1 0x20 ADD SWAP2 PUSH2 0x1DF0 JUMP JUMPDEST DUP3 ADD SWAP2 SWAP1 PUSH1 0x0 MSTORE PUSH1 0x20 PUSH1 0x0 KECCAK256 SWAP1 JUMPDEST DUP2 SLOAD DUP2 MSTORE SWAP1 PUSH1 0x1 ADD SWAP1 PUSH1 0x20 ADD DUP1 DUP4 GT PUSH2 0x1DD3 JUMPI DUP3 SWAP1 SUB PUSH1 0x1F AND DUP3 ADD SWAP2 JUMPDEST POP POP POP POP POP SWAP1 POP SWAP8 POP SWAP8 POP SWAP8 POP SWAP8 POP SWAP8 POP SWAP8 POP SWAP8 POP POP SWAP2 SWAP4 SWAP6 SWAP8 SWAP1 SWAP3 SWAP5 SWAP7 POP JUMP JUMPDEST DUP3 DUP1 SLOAD PUSH1 0x1 DUP2 PUSH1 0x1 AND ISZERO PUSH2 0x100 MUL SUB AND PUSH1 0x2 SWAP1 DIV SWAP1 PUSH1 0x0 MSTORE PUSH1 0x20 PUSH1 0x0 KECCAK256 SWAP1 PUSH1 0x1F ADD PUSH1 0x20 SWAP1 DIV DUP2 ADD SWAP3 DUP3 PUSH1 0x1F LT PUSH2 0x1E52 JUMPI DUP1 MLOAD PUSH1 0xFF NOT AND DUP4 DUP1 ADD OR DUP6 SSTORE PUSH2 0x1E80 JUMP JUMPDEST DUP3 DUP1 ADD PUSH1 0x1 ADD DUP6 SSTORE DUP3 ISZERO PUSH2 0x1E80 JUMPI SWAP2 DUP3 ADD JUMPDEST DUP3 DUP2 GT ISZERO PUSH2 0x1E7F JUMPI DUP3 MLOAD DUP3 SSTORE SWAP2 PUSH1 0x20 ADD SWAP2 SWAP1 PUSH1 0x1 ADD SWAP1 PUSH2 0x1E64 JUMP JUMPDEST JUMPDEST POP SWAP1 POP PUSH2 0x1E8D SWAP2 SWAP1 PUSH2 0x1F18 JUMP JUMPDEST POP SWAP1 JUMP JUMPDEST DUP3 DUP1 SLOAD PUSH1 0x1 DUP2 PUSH1 0x1 AND ISZERO PUSH2 0x100 MUL SUB AND PUSH1 0x2 SWAP1 DIV SWAP1 PUSH1 0x0 MSTORE PUSH1 0x20 PUSH1 0x0 KECCAK256 SWAP1 PUSH1 0x1F ADD PUSH1 0x20 SWAP1 DIV DUP2 ADD SWAP3 DUP3 PUSH1 0x1F LT PUSH2 0x1ECA JUMPI DUP1 SLOAD DUP6 SSTORE PUSH2 0x1F07 JUMP JUMPDEST DUP3 DUP1 ADD PUSH1 0x1 ADD DUP6 SSTORE DUP3 ISZERO PUSH2 0x1F07 JUMPI PUSH1 0x0 MSTORE PUSH1 0x20 PUSH1 0x0 KECCAK256 SWAP2 PUSH1 0x1F ADD PUSH1 0x20 SWAP1 DIV DUP3 ADD JUMPDEST DUP3 DUP2 GT ISZERO PUSH2 0x1F06 JUMPI DUP3 SLOAD DUP3 SSTORE SWAP2 PUSH1 0x1 ADD SWAP2 SWAP1 PUSH1 0x1 ADD SWAP1 PUSH2 0x1EEB JUMP JUMPDEST JUMPDEST POP SWAP1 POP PUSH2 0x1F14 SWAP2 SWAP1 PUSH2 0x1F18 JUMP JUMPDEST POP SWAP1 JUMP JUMPDEST PUSH2 0x1F3A SWAP2 SWAP1 JUMPDEST DUP1 DUP3 GT ISZERO PUSH2 0x1F36 JUMPI PUSH1 0x0 DUP2 PUSH1 0x0 SWAP1 SSTORE POP PUSH1 0x1 ADD PUSH2 0x1F1E JUMP JUMPDEST POP SWAP1 JUMP JUMPDEST SWAP1 JUMP JUMPDEST PUSH1 0x0 PUSH2 0x1F49 DUP3 CALLDATALOAD PUSH2 0x277B JUMP JUMPDEST SWAP1 POP SWAP3 SWAP2 POP POP JUMP JUMPDEST PUSH1 0x0 DUP3 PUSH1 0x1F DUP4 ADD SLT ISZERO ISZERO PUSH2 0x1F64 JUMPI PUSH1 0x0 DUP1 REVERT JUMPDEST DUP2 CALLDATALOAD PUSH2 0x1F77 PUSH2 0x1F72 DUP3 PUSH2 0x26E9 JUMP JUMPDEST PUSH2 0x26BC JUMP JUMPDEST SWAP2 POP DUP1 DUP3 MSTORE PUSH1 0x20 DUP4 ADD PUSH1 0x20 DUP4 ADD DUP6 DUP4 DUP4 ADD GT ISZERO PUSH2 0x1F93 JUMPI PUSH1 0x0 DUP1 REVERT JUMPDEST PUSH2 0x1F9E DUP4 DUP3 DUP5 PUSH2 0x27A5 JUMP JUMPDEST POP POP POP SWAP3 SWAP2 POP POP JUMP JUMPDEST PUSH1 0x0 PUSH2 0x1FB3 DUP3 CALLDATALOAD PUSH2 0x279B JUMP JUMPDEST SWAP1 POP SWAP3 SWAP2 POP POP JUMP JUMPDEST PUSH1 0x0 PUSH1 0x20 DUP3 DUP5 SUB SLT ISZERO PUSH2 0x1FCD JUMPI PUSH1 0x0 DUP1 REVERT JUMPDEST PUSH1 0x0 PUSH2 0x1FDB DUP5 DUP3 DUP6 ADD PUSH2 0x1F3D JUMP JUMPDEST SWAP2 POP POP SWAP3 SWAP2 POP POP JUMP JUMPDEST PUSH1 0x0 DUP1 PUSH1 0x0 DUP1 PUSH1 0x0 DUP1 PUSH1 0x0 DUP1 PUSH2 0x100 DUP10 DUP12 SUB SLT ISZERO PUSH2 0x2001 JUMPI PUSH1 0x0 DUP1 REVERT JUMPDEST PUSH1 0x0 PUSH2 0x200F DUP12 DUP3 DUP13 ADD PUSH2 0x1F3D JUMP JUMPDEST SWAP9 POP POP PUSH1 0x20 DUP10 ADD CALLDATALOAD PUSH8 0xFFFFFFFFFFFFFFFF DUP2 GT ISZERO PUSH2 0x202C JUMPI PUSH1 0x0 DUP1 REVERT JUMPDEST PUSH2 0x2038 DUP12 DUP3 DUP13 ADD PUSH2 0x1F51 JUMP JUMPDEST SWAP8 POP POP PUSH1 0x40 DUP10 ADD CALLDATALOAD PUSH8 0xFFFFFFFFFFFFFFFF DUP2 GT ISZERO PUSH2 0x2055 JUMPI PUSH1 0x0 DUP1 REVERT JUMPDEST PUSH2 0x2061 DUP12 DUP3 DUP13 ADD PUSH2 0x1F51 JUMP JUMPDEST SWAP7 POP POP PUSH1 0x60 DUP10 ADD CALLDATALOAD PUSH8 0xFFFFFFFFFFFFFFFF DUP2 GT ISZERO PUSH2 0x207E JUMPI PUSH1 0x0 DUP1 REVERT JUMPDEST PUSH2 0x208A DUP12 DUP3 DUP13 ADD PUSH2 0x1F51 JUMP JUMPDEST SWAP6 POP POP PUSH1 0x80 DUP10 ADD CALLDATALOAD PUSH8 0xFFFFFFFFFFFFFFFF DUP2 GT ISZERO PUSH2 0x20A7 JUMPI PUSH1 0x0 DUP1 REVERT JUMPDEST PUSH2 0x20B3 DUP12 DUP3 DUP13 ADD PUSH2 0x1F51 JUMP JUMPDEST SWAP5 POP POP PUSH1 0xA0 DUP10 ADD CALLDATALOAD PUSH8 0xFFFFFFFFFFFFFFFF DUP2 GT ISZERO PUSH2 0x20D0 JUMPI PUSH1 0x0 DUP1 REVERT JUMPDEST PUSH2 0x20DC DUP12 DUP3 DUP13 ADD PUSH2 0x1F51 JUMP JUMPDEST SWAP4 POP POP PUSH1 0xC0 DUP10 ADD CALLDATALOAD PUSH8 0xFFFFFFFFFFFFFFFF DUP2 GT ISZERO PUSH2 0x20F9 JUMPI PUSH1 0x0 DUP1 REVERT JUMPDEST PUSH2 0x2105 DUP12 DUP3 DUP13 ADD PUSH2 0x1F51 JUMP JUMPDEST SWAP3 POP POP PUSH1 0xE0 DUP10 ADD CALLDATALOAD PUSH8 0xFFFFFFFFFFFFFFFF DUP2 GT ISZERO PUSH2 0x2122 JUMPI PUSH1 0x0 DUP1 REVERT JUMPDEST PUSH2 0x212E DUP12 DUP3 DUP13 ADD PUSH2 0x1F51 JUMP JUMPDEST SWAP2 POP POP SWAP3 SWAP6 SWAP9 POP SWAP3 SWAP6 SWAP9 SWAP1 SWAP4 SWAP7 POP JUMP JUMPDEST PUSH1 0x0 DUP1 PUSH1 0x0 DUP1 PUSH1 0x0 DUP1 PUSH1 0x0 DUP1 PUSH1 0x0 DUP1 PUSH2 0x140 DUP12 DUP14 SUB SLT ISZERO PUSH2 0x215E JUMPI PUSH1 0x0 DUP1 REVERT JUMPDEST PUSH1 0x0 PUSH2 0x216C DUP14 DUP3 DUP15 ADD PUSH2 0x1F3D JUMP JUMPDEST SWAP11 POP POP PUSH1 0x20 DUP12 ADD CALLDATALOAD PUSH8 0xFFFFFFFFFFFFFFFF DUP2 GT ISZERO PUSH2 0x2189 JUMPI PUSH1 0x0 DUP1 REVERT JUMPDEST PUSH2 0x2195 DUP14 DUP3 DUP15 ADD PUSH2 0x1F51 JUMP JUMPDEST SWAP10 POP POP PUSH1 0x40 DUP12 ADD CALLDATALOAD PUSH8 0xFFFFFFFFFFFFFFFF DUP2 GT ISZERO PUSH2 0x21B2 JUMPI PUSH1 0x0 DUP1 REVERT JUMPDEST PUSH2 0x21BE DUP14 DUP3 DUP15 ADD PUSH2 0x1F51 JUMP JUMPDEST SWAP9 POP POP PUSH1 0x60 DUP12 ADD CALLDATALOAD PUSH8 0xFFFFFFFFFFFFFFFF DUP2 GT ISZERO PUSH2 0x21DB JUMPI PUSH1 0x0 DUP1 REVERT JUMPDEST PUSH2 0x21E7 DUP14 DUP3 DUP15 ADD PUSH2 0x1F51 JUMP JUMPDEST SWAP8 POP POP PUSH1 0x80 DUP12 ADD CALLDATALOAD PUSH8 0xFFFFFFFFFFFFFFFF DUP2 GT ISZERO PUSH2 0x2204 JUMPI PUSH1 0x0 DUP1 REVERT JUMPDEST PUSH2 0x2210 DUP14 DUP3 DUP15 ADD PUSH2 0x1F51 JUMP JUMPDEST SWAP7 POP POP PUSH1 0xA0 DUP12 ADD CALLDATALOAD PUSH8 0xFFFFFFFFFFFFFFFF DUP2 GT ISZERO PUSH2 0x222D JUMPI PUSH1 0x0 DUP1 REVERT JUMPDEST PUSH2 0x2239 DUP14 DUP3 DUP15 ADD PUSH2 0x1F51 JUMP JUMPDEST SWAP6 POP POP PUSH1 0xC0 DUP12 ADD CALLDATALOAD PUSH8 0xFFFFFFFFFFFFFFFF DUP2 GT ISZERO PUSH2 0x2256 JUMPI PUSH1 0x0 DUP1 REVERT JUMPDEST PUSH2 0x2262 DUP14 DUP3 DUP15 ADD PUSH2 0x1F51 JUMP JUMPDEST SWAP5 POP POP PUSH1 0xE0 DUP12 ADD CALLDATALOAD PUSH8 0xFFFFFFFFFFFFFFFF DUP2 GT ISZERO PUSH2 0x227F JUMPI PUSH1 0x0 DUP1 REVERT JUMPDEST PUSH2 0x228B DUP14 DUP3 DUP15 ADD PUSH2 0x1F51 JUMP JUMPDEST SWAP4 POP POP PUSH2 0x100 DUP12 ADD CALLDATALOAD PUSH8 0xFFFFFFFFFFFFFFFF DUP2 GT ISZERO PUSH2 0x22A9 JUMPI PUSH1 0x0 DUP1 REVERT JUMPDEST PUSH2 0x22B5 DUP14 DUP3 DUP15 ADD PUSH2 0x1F51 JUMP JUMPDEST SWAP3 POP POP PUSH2 0x120 DUP12 ADD CALLDATALOAD PUSH8 0xFFFFFFFFFFFFFFFF DUP2 GT ISZERO PUSH2 0x22D3 JUMPI PUSH1 0x0 DUP1 REVERT JUMPDEST PUSH2 0x22DF DUP14 DUP3 DUP15 ADD PUSH2 0x1F51 JUMP JUMPDEST SWAP2 POP POP SWAP3 SWAP6 SWAP9 SWAP12 SWAP2 SWAP5 SWAP8 SWAP11 POP SWAP3 SWAP6 SWAP9 POP JUMP JUMPDEST PUSH1 0x0 DUP1 PUSH1 0x0 DUP1 PUSH1 0x0 DUP1 PUSH1 0x0 PUSH1 0xE0 DUP9 DUP11 SUB SLT ISZERO PUSH2 0x230C JUMPI PUSH1 0x0 DUP1 REVERT JUMPDEST PUSH1 0x0 DUP9 ADD CALLDATALOAD PUSH8 0xFFFFFFFFFFFFFFFF DUP2 GT ISZERO PUSH2 0x2326 JUMPI PUSH1 0x0 DUP1 REVERT JUMPDEST PUSH2 0x2332 DUP11 DUP3 DUP12 ADD PUSH2 0x1F51 JUMP JUMPDEST SWAP8 POP POP PUSH1 0x20 DUP9 ADD CALLDATALOAD PUSH8 0xFFFFFFFFFFFFFFFF DUP2 GT ISZERO PUSH2 0x234F JUMPI PUSH1 0x0 DUP1 REVERT JUMPDEST PUSH2 0x235B DUP11 DUP3 DUP12 ADD PUSH2 0x1F51 JUMP JUMPDEST SWAP7 POP POP PUSH1 0x40 DUP9 ADD CALLDATALOAD PUSH8 0xFFFFFFFFFFFFFFFF DUP2 GT ISZERO PUSH2 0x2378 JUMPI PUSH1 0x0 DUP1 REVERT JUMPDEST PUSH2 0x2384 DUP11 DUP3 DUP12 ADD PUSH2 0x1F51 JUMP JUMPDEST SWAP6 POP POP PUSH1 0x60 DUP9 ADD CALLDATALOAD PUSH8 0xFFFFFFFFFFFFFFFF DUP2 GT ISZERO PUSH2 0x23A1 JUMPI PUSH1 0x0 DUP1 REVERT JUMPDEST PUSH2 0x23AD DUP11 DUP3 DUP12 ADD PUSH2 0x1F51 JUMP JUMPDEST SWAP5 POP POP PUSH1 0x80 DUP9 ADD CALLDATALOAD PUSH8 0xFFFFFFFFFFFFFFFF DUP2 GT ISZERO PUSH2 0x23CA JUMPI PUSH1 0x0 DUP1 REVERT JUMPDEST PUSH2 0x23D6 DUP11 DUP3 DUP12 ADD PUSH2 0x1F51 JUMP JUMPDEST SWAP4 POP POP PUSH1 0xA0 DUP9 ADD CALLDATALOAD PUSH8 0xFFFFFFFFFFFFFFFF DUP2 GT ISZERO PUSH2 0x23F3 JUMPI PUSH1 0x0 DUP1 REVERT JUMPDEST PUSH2 0x23FF DUP11 DUP3 DUP12 ADD PUSH2 0x1F51 JUMP JUMPDEST SWAP3 POP POP PUSH1 0xC0 DUP9 ADD CALLDATALOAD PUSH8 0xFFFFFFFFFFFFFFFF DUP2 GT ISZERO PUSH2 0x241C JUMPI PUSH1 0x0 DUP1 REVERT JUMPDEST PUSH2 0x2428 DUP11 DUP3 DUP12 ADD PUSH2 0x1F51 JUMP JUMPDEST SWAP2 POP POP SWAP3 SWAP6 SWAP9 SWAP2 SWAP5 SWAP8 POP SWAP3 SWAP6 POP JUMP JUMPDEST PUSH1 0x0 PUSH1 0x20 DUP3 DUP5 SUB SLT ISZERO PUSH2 0x2449 JUMPI PUSH1 0x0 DUP1 REVERT JUMPDEST PUSH1 0x0 PUSH2 0x2457 DUP5 DUP3 DUP6 ADD PUSH2 0x1FA7 JUMP JUMPDEST SWAP2 POP POP SWAP3 SWAP2 POP POP JUMP JUMPDEST PUSH2 0x2469 DUP2 PUSH2 0x2745 JUMP JUMPDEST DUP3 MSTORE POP POP JUMP JUMPDEST PUSH1 0x0 PUSH2 0x247A DUP3 PUSH2 0x2722 JUMP JUMPDEST DUP1 DUP5 MSTORE PUSH1 0x20 DUP5 ADD SWAP4 POP PUSH2 0x248C DUP4 PUSH2 0x2715 JUMP JUMPDEST PUSH1 0x0 JUMPDEST DUP3 DUP2 LT ISZERO PUSH2 0x24BE JUMPI PUSH2 0x24A2 DUP7 DUP4 MLOAD PUSH2 0x2460 JUMP JUMPDEST PUSH2 0x24AB DUP3 PUSH2 0x2738 JUMP JUMPDEST SWAP2 POP PUSH1 0x20 DUP7 ADD SWAP6 POP PUSH1 0x1 DUP2 ADD SWAP1 POP PUSH2 0x248F JUMP JUMPDEST POP DUP5 SWAP3 POP POP POP SWAP3 SWAP2 POP POP JUMP JUMPDEST PUSH2 0x24D3 DUP2 PUSH2 0x2765 JUMP JUMPDEST DUP3 MSTORE POP POP JUMP JUMPDEST PUSH1 0x0 PUSH2 0x24E4 DUP3 PUSH2 0x272D JUMP JUMPDEST DUP1 DUP5 MSTORE PUSH2 0x24F8 DUP2 PUSH1 0x20 DUP7 ADD PUSH1 0x20 DUP7 ADD PUSH2 0x27B4 JUMP JUMPDEST PUSH2 0x2501 DUP2 PUSH2 0x27E7 JUMP JUMPDEST PUSH1 0x20 DUP6 ADD ADD SWAP2 POP POP SWAP3 SWAP2 POP POP JUMP JUMPDEST PUSH2 0x2518 DUP2 PUSH2 0x2771 JUMP JUMPDEST DUP3 MSTORE POP POP JUMP JUMPDEST PUSH1 0x0 PUSH1 0x20 DUP3 ADD SWAP1 POP PUSH2 0x2533 PUSH1 0x0 DUP4 ADD DUP5 PUSH2 0x2460 JUMP JUMPDEST SWAP3 SWAP2 POP POP JUMP JUMPDEST PUSH1 0x0 PUSH1 0x20 DUP3 ADD SWAP1 POP DUP2 DUP2 SUB PUSH1 0x0 DUP4 ADD MSTORE PUSH2 0x2553 DUP2 DUP5 PUSH2 0x246F JUMP JUMPDEST SWAP1 POP SWAP3 SWAP2 POP POP JUMP JUMPDEST PUSH1 0x0 PUSH1 0x20 DUP3 ADD SWAP1 POP PUSH2 0x2570 PUSH1 0x0 DUP4 ADD DUP5 PUSH2 0x24CA JUMP JUMPDEST SWAP3 SWAP2 POP POP JUMP JUMPDEST PUSH1 0x0 PUSH1 0xC0 DUP3 ADD SWAP1 POP DUP2 DUP2 SUB PUSH1 0x0 DUP4 ADD MSTORE PUSH2 0x2590 DUP2 DUP10 PUSH2 0x24D9 JUMP JUMPDEST SWAP1 POP DUP2 DUP2 SUB PUSH1 0x20 DUP4 ADD MSTORE PUSH2 0x25A4 DUP2 DUP9 PUSH2 0x24D9 JUMP JUMPDEST SWAP1 POP DUP2 DUP2 SUB PUSH1 0x40 DUP4 ADD MSTORE PUSH2 0x25B8 DUP2 DUP8 PUSH2 0x24D9 JUMP JUMPDEST SWAP1 POP DUP2 DUP2 SUB PUSH1 0x60 DUP4 ADD MSTORE PUSH2 0x25CC DUP2 DUP7 PUSH2 0x24D9 JUMP JUMPDEST SWAP1 POP DUP2 DUP2 SUB PUSH1 0x80 DUP4 ADD MSTORE PUSH2 0x25E0 DUP2 DUP6 PUSH2 0x24D9 JUMP JUMPDEST SWAP1 POP DUP2 DUP2 SUB PUSH1 0xA0 DUP4 ADD MSTORE PUSH2 0x25F4 DUP2 DUP5 PUSH2 0x24D9 JUMP JUMPDEST SWAP1 POP SWAP8 SWAP7 POP POP POP POP POP POP POP JUMP JUMPDEST PUSH1 0x0 PUSH1 0xE0 DUP3 ADD SWAP1 POP DUP2 DUP2 SUB PUSH1 0x0 DUP4 ADD MSTORE PUSH2 0x261B DUP2 DUP11 PUSH2 0x24D9 JUMP JUMPDEST SWAP1 POP DUP2 DUP2 SUB PUSH1 0x20 DUP4 ADD MSTORE PUSH2 0x262F DUP2 DUP10 PUSH2 0x24D9 JUMP JUMPDEST SWAP1 POP DUP2 DUP2 SUB PUSH1 0x40 DUP4 ADD MSTORE PUSH2 0x2643 DUP2 DUP9 PUSH2 0x24D9 JUMP JUMPDEST SWAP1 POP DUP2 DUP2 SUB PUSH1 0x60 DUP4 ADD MSTORE PUSH2 0x2657 DUP2 DUP8 PUSH2 0x24D9 JUMP JUMPDEST SWAP1 POP DUP2 DUP2 SUB PUSH1 0x80 DUP4 ADD MSTORE PUSH2 0x266B DUP2 DUP7 PUSH2 0x24D9 JUMP JUMPDEST SWAP1 POP DUP2 DUP2 SUB PUSH1 0xA0 DUP4 ADD MSTORE PUSH2 0x267F DUP2 DUP6 PUSH2 0x24D9 JUMP JUMPDEST SWAP1 POP DUP2 DUP2 SUB PUSH1 0xC0 DUP4 ADD MSTORE PUSH2 0x2693 DUP2 DUP5 PUSH2 0x24D9 JUMP JUMPDEST SWAP1 POP SWAP9 SWAP8 POP POP POP POP POP POP POP POP JUMP JUMPDEST PUSH1 0x0 PUSH1 0x20 DUP3 ADD SWAP1 POP PUSH2 0x26B6 PUSH1 0x0 DUP4 ADD DUP5 PUSH2 0x250F JUMP JUMPDEST SWAP3 SWAP2 POP POP JUMP JUMPDEST PUSH1 0x0 PUSH1 0x40 MLOAD SWAP1 POP DUP2 DUP2 ADD DUP2 DUP2 LT PUSH8 0xFFFFFFFFFFFFFFFF DUP3 GT OR ISZERO PUSH2 0x26DF JUMPI PUSH1 0x0 DUP1 REVERT JUMPDEST DUP1 PUSH1 0x40 MSTORE POP SWAP2 SWAP1 POP JUMP JUMPDEST PUSH1 0x0 PUSH8 0xFFFFFFFFFFFFFFFF DUP3 GT ISZERO PUSH2 0x2700 JUMPI PUSH1 0x0 DUP1 REVERT JUMPDEST PUSH1 0x1F NOT PUSH1 0x1F DUP4 ADD AND SWAP1 POP PUSH1 0x20 DUP2 ADD SWAP1 POP SWAP2 SWAP1 POP JUMP JUMPDEST PUSH1 0x0 PUSH1 0x20 DUP3 ADD SWAP1 POP SWAP2 SWAP1 POP JUMP JUMPDEST PUSH1 0x0 DUP2 MLOAD SWAP1 POP SWAP2 SWAP1 POP JUMP JUMPDEST PUSH1 0x0 DUP2 MLOAD SWAP1 POP SWAP2 SWAP1 POP JUMP JUMPDEST PUSH1 0x0 PUSH1 0x20 DUP3 ADD SWAP1 POP SWAP2 SWAP1 POP JUMP JUMPDEST PUSH1 0x0 PUSH20 0xFFFFFFFFFFFFFFFFFFFFFFFFFFFFFFFFFFFFFFFF DUP3 AND SWAP1 POP SWAP2 SWAP1 POP JUMP JUMPDEST PUSH1 0x0 DUP2 ISZERO ISZERO SWAP1 POP SWAP2 SWAP1 POP JUMP JUMPDEST PUSH1 0x0 DUP2 SWAP1 POP SWAP2 SWAP1 POP JUMP JUMPDEST PUSH1 0x0 PUSH20 0xFFFFFFFFFFFFFFFFFFFFFFFFFFFFFFFFFFFFFFFF DUP3 AND SWAP1 POP SWAP2 SWAP1 POP JUMP JUMPDEST PUSH1 0x0 DUP2 SWAP1 POP SWAP2 SWAP1 POP JUMP JUMPDEST DUP3 DUP2 DUP4 CALLDATACOPY PUSH1 0x0 DUP4 DUP4 ADD MSTORE POP POP POP JUMP JUMPDEST PUSH1 0x0 JUMPDEST DUP4 DUP2 LT ISZERO PUSH2 0x27D2 JUMPI DUP1 DUP3 ADD MLOAD DUP2 DUP5 ADD MSTORE PUSH1 0x20 DUP2 ADD SWAP1 POP PUSH2 0x27B7 JUMP JUMPDEST DUP4 DUP2 GT ISZERO PUSH2 0x27E1 JUMPI PUSH1 0x0 DUP5 DUP5 ADD MSTORE JUMPDEST POP POP POP POP JUMP JUMPDEST PUSH1 0x0 PUSH1 0x1F NOT PUSH1 0x1F DUP4 ADD AND SWAP1 POP SWAP2 SWAP1 POP JUMP STOP LOG2 PUSH6 0x627A7A723058 KECCAK256 BALANCE SWAP16 0xa6 SWAP4 0xb7 AND ORIGIN 0xcf 0xa6 DUP6 0xd8 0xdd LOG0 0xc8 CODESIZE AND 0x2d DUP3 0xca 0xd4 PUSH21 0x62488F9A31F11A19865AB56C6578706572696D656E PUSH21 0x616CF5003700000000000000000000000000000000 "
				},
				"gasEstimates": {
					"creation": {
						"codeDepositCost": "2058000",
						"executionCost": "37470",
						"totalCost": "2095470"
					},
					"external": {
						"RevokePermission(address)": "21019",
						"doctorCount()": "738",
						"doctorList(uint256)": "1144",
						"editDoctor(address,string,string,string,string,string,string,string)": "infinite",
						"editUser(address,string,string,string,string,string,string,string,string,string)": "infinite",
						"getDoctorCount()": "768",
						"getDoctors()": "infinite",
						"getPermissionGrantedCount()": "658",
						"getUserCount()": "922",
						"getUsers()": "infinite",
						"givePermission(address)": "41388",
						"mohAdress()": "978",
						"owner()": "846",
						"ownerAddress()": "20707",
						"permissionCounter()": "870",
						"searchDoctor(address)": "infinite",
						"searchUserformation(address)": "infinite",
						"setDoctor(string,string,string,string,string,string,string)": "infinite",
						"userCount()": "584",
						"userList(uint256)": "1386",
						"userRegistration(address,string,string,string,string,string,string,string,string,string)": "infinite"
					}
				},
				"methodIdentifiers": {
					"RevokePermission(address)": "02516abd",
					"doctorCount()": "78522bc4",
					"doctorList(uint256)": "127ca4b4",
					"editDoctor(address,string,string,string,string,string,string,string)": "16e0a611",
					"editUser(address,string,string,string,string,string,string,string,string,string)": "779a9576",
					"getDoctorCount()": "79111c1c",
					"getDoctors()": "b13d5d94",
					"getPermissionGrantedCount()": "24c24b2b",
					"getUserCount()": "b5cb15f7",
					"getUsers()": "00ce8e3e",
					"givePermission(address)": "3d391f70",
					"mohAdress()": "b744ff4d",
					"owner()": "8da5cb5b",
					"ownerAddress()": "8f84aa09",
					"permissionCounter()": "a5d043d1",
					"searchDoctor(address)": "caee6c85",
					"searchUserformation(address)": "076fd2f8",
					"setDoctor(string,string,string,string,string,string,string)": "8b945c6d",
					"userCount()": "07973ccf",
					"userList(uint256)": "9f4216e8",
					"userRegistration(address,string,string,string,string,string,string,string,string,string)": "6cdb2278"
				}
			},
			"userdoc": {
				"methods": {}
			}
		}
	}
}