{
	"contracts/bank.sol": {
		"bank": {
			"abi": [
				{
					"constant": false,
					"inputs": [],
					"name": "getBalance",
					"outputs": [
						{
							"name": "",
							"type": "int256"
						}
					],
					"payable": false,
					"stateMutability": "nonpayable",
					"type": "function"
				},
				{
					"constant": false,
					"inputs": [
						{
							"name": "amt",
							"type": "int256"
						}
					],
					"name": "deposite_money",
					"outputs": [],
					"payable": false,
					"stateMutability": "nonpayable",
					"type": "function"
				},
				{
					"constant": false,
					"inputs": [
						{
							"name": "amt",
							"type": "int256"
						}
					],
					"name": "withdraw",
					"outputs": [],
					"payable": false,
					"stateMutability": "nonpayable",
					"type": "function"
				}
			],
			"devdoc": {
				"methods": {}
			},
			"evm": {
				"assembly": "    /* \"contracts/bank.sol\":27:281  contract bank{\r... */\n  mstore(0x40, 0x80)\n    /* \"contracts/bank.sol\":55:56  0 */\n  0x0\n    /* \"contracts/bank.sol\":47:56  int bal=0 */\n  dup1\n  sstore\n    /* \"contracts/bank.sol\":27:281  contract bank{\r... */\n  callvalue\n    /* \"--CODEGEN--\":8:17   */\n  dup1\n    /* \"--CODEGEN--\":5:7   */\n  iszero\n  tag_1\n  jumpi\n    /* \"--CODEGEN--\":30:31   */\n  0x0\n    /* \"--CODEGEN--\":27:28   */\n  dup1\n    /* \"--CODEGEN--\":20:32   */\n  revert\n    /* \"--CODEGEN--\":5:7   */\ntag_1:\n    /* \"contracts/bank.sol\":27:281  contract bank{\r... */\n  pop\n  dataSize(sub_0)\n  dup1\n  dataOffset(sub_0)\n  0x0\n  codecopy\n  0x0\n  return\nstop\n\nsub_0: assembly {\n        /* \"contracts/bank.sol\":27:281  contract bank{\r... */\n      mstore(0x40, 0x80)\n      jumpi(tag_1, lt(calldatasize, 0x4))\n      calldataload(0x0)\n      0x100000000000000000000000000000000000000000000000000000000\n      swap1\n      div\n      0xffffffff\n      and\n      dup1\n      0x12065fe0\n      eq\n      tag_2\n      jumpi\n      dup1\n      0x5d5f704f\n      eq\n      tag_3\n      jumpi\n      dup1\n      0x7e62eab8\n      eq\n      tag_4\n      jumpi\n    tag_1:\n      0x0\n      dup1\n      revert\n        /* \"contracts/bank.sol\":207:278  function getBalance() public returns(int) {\r... */\n    tag_2:\n      callvalue\n        /* \"--CODEGEN--\":8:17   */\n      dup1\n        /* \"--CODEGEN--\":5:7   */\n      iszero\n      tag_5\n      jumpi\n        /* \"--CODEGEN--\":30:31   */\n      0x0\n        /* \"--CODEGEN--\":27:28   */\n      dup1\n        /* \"--CODEGEN--\":20:32   */\n      revert\n        /* \"--CODEGEN--\":5:7   */\n    tag_5:\n        /* \"contracts/bank.sol\":207:278  function getBalance() public returns(int) {\r... */\n      pop\n      tag_6\n      jump(tag_7)\n    tag_6:\n      mload(0x40)\n      dup1\n      dup3\n      dup2\n      mstore\n      0x20\n      add\n      swap2\n      pop\n      pop\n      mload(0x40)\n      dup1\n      swap2\n      sub\n      swap1\n      return\n        /* \"contracts/bank.sol\":65:131  function deposite_money(int amt) public{\r... */\n    tag_3:\n      callvalue\n        /* \"--CODEGEN--\":8:17   */\n      dup1\n        /* \"--CODEGEN--\":5:7   */\n      iszero\n      tag_8\n      jumpi\n        /* \"--CODEGEN--\":30:31   */\n      0x0\n        /* \"--CODEGEN--\":27:28   */\n      dup1\n        /* \"--CODEGEN--\":20:32   */\n      revert\n        /* \"--CODEGEN--\":5:7   */\n    tag_8:\n        /* \"contracts/bank.sol\":65:131  function deposite_money(int amt) public{\r... */\n      pop\n      tag_9\n      0x4\n      dup1\n      calldatasize\n      sub\n      dup2\n      add\n      swap1\n      dup1\n      dup1\n      calldataload\n      swap1\n      0x20\n      add\n      swap1\n      swap3\n      swap2\n      swap1\n      pop\n      pop\n      pop\n      jump(tag_10)\n    tag_9:\n      stop\n        /* \"contracts/bank.sol\":139:199  function withdraw(int amt) public{\r... */\n    tag_4:\n      callvalue\n        /* \"--CODEGEN--\":8:17   */\n      dup1\n        /* \"--CODEGEN--\":5:7   */\n      iszero\n      tag_11\n      jumpi\n        /* \"--CODEGEN--\":30:31   */\n      0x0\n        /* \"--CODEGEN--\":27:28   */\n      dup1\n        /* \"--CODEGEN--\":20:32   */\n      revert\n        /* \"--CODEGEN--\":5:7   */\n    tag_11:\n        /* \"contracts/bank.sol\":139:199  function withdraw(int amt) public{\r... */\n      pop\n      tag_12\n      0x4\n      dup1\n      calldatasize\n      sub\n      dup2\n      add\n      swap1\n      dup1\n      dup1\n      calldataload\n      swap1\n      0x20\n      add\n      swap1\n      swap3\n      swap2\n      swap1\n      pop\n      pop\n      pop\n      jump(tag_13)\n    tag_12:\n      stop\n        /* \"contracts/bank.sol\":207:278  function getBalance() public returns(int) {\r... */\n    tag_7:\n        /* \"contracts/bank.sol\":244:247  int */\n      0x0\n        /* \"contracts/bank.sol\":267:270  bal */\n      dup1\n      sload\n        /* \"contracts/bank.sol\":260:270  return bal */\n      swap1\n      pop\n        /* \"contracts/bank.sol\":207:278  function getBalance() public returns(int) {\r... */\n      swap1\n      jump\t// out\n        /* \"contracts/bank.sol\":65:131  function deposite_money(int amt) public{\r... */\n    tag_10:\n        /* \"contracts/bank.sol\":120:123  amt */\n      dup1\n        /* \"contracts/bank.sol\":115:118  bal */\n      0x0\n      dup1\n        /* \"contracts/bank.sol\":115:123  bal+=amt */\n      dup3\n      dup3\n      sload\n      add\n      swap3\n      pop\n      pop\n      dup2\n      swap1\n      sstore\n      pop\n        /* \"contracts/bank.sol\":65:131  function deposite_money(int amt) public{\r... */\n      pop\n      jump\t// out\n        /* \"contracts/bank.sol\":139:199  function withdraw(int amt) public{\r... */\n    tag_13:\n        /* \"contracts/bank.sol\":188:191  amt */\n      dup1\n        /* \"contracts/bank.sol\":183:186  bal */\n      0x0\n      dup1\n        /* \"contracts/bank.sol\":183:191  bal-=amt */\n      dup3\n      dup3\n      sload\n      sub\n      swap3\n      pop\n      pop\n      dup2\n      swap1\n      sstore\n      pop\n        /* \"contracts/bank.sol\":139:199  function withdraw(int amt) public{\r... */\n      pop\n      jump\t// out\n\n    auxdata: 0xa165627a7a72305820c77aebe7079d0d7d6d79a58c014b2b03ac97941a66809442d9eb1705044ba3a00029\n}\n",
				"bytecode": {
					"linkReferences": {},
					"object": "60806040526000805534801561001457600080fd5b5061013a806100246000396000f300608060405260043610610057576000357c0100000000000000000000000000000000000000000000000000000000900463ffffffff16806312065fe01461005c5780635d5f704f146100875780637e62eab8146100b4575b600080fd5b34801561006857600080fd5b506100716100e1565b6040518082815260200191505060405180910390f35b34801561009357600080fd5b506100b2600480360381019080803590602001909291905050506100ea565b005b3480156100c057600080fd5b506100df600480360381019080803590602001909291905050506100fc565b005b60008054905090565b80600080828254019250508190555050565b806000808282540392505081905550505600a165627a7a72305820c77aebe7079d0d7d6d79a58c014b2b03ac97941a66809442d9eb1705044ba3a00029",
					"opcodes": "PUSH1 0x80 PUSH1 0x40 MSTORE PUSH1 0x0 DUP1 SSTORE CALLVALUE DUP1 ISZERO PUSH2 0x14 JUMPI PUSH1 0x0 DUP1 REVERT JUMPDEST POP PUSH2 0x13A DUP1 PUSH2 0x24 PUSH1 0x0 CODECOPY PUSH1 0x0 RETURN STOP PUSH1 0x80 PUSH1 0x40 MSTORE PUSH1 0x4 CALLDATASIZE LT PUSH2 0x57 JUMPI PUSH1 0x0 CALLDATALOAD PUSH29 0x100000000000000000000000000000000000000000000000000000000 SWAP1 DIV PUSH4 0xFFFFFFFF AND DUP1 PUSH4 0x12065FE0 EQ PUSH2 0x5C JUMPI DUP1 PUSH4 0x5D5F704F EQ PUSH2 0x87 JUMPI DUP1 PUSH4 0x7E62EAB8 EQ PUSH2 0xB4 JUMPI JUMPDEST PUSH1 0x0 DUP1 REVERT JUMPDEST CALLVALUE DUP1 ISZERO PUSH2 0x68 JUMPI PUSH1 0x0 DUP1 REVERT JUMPDEST POP PUSH2 0x71 PUSH2 0xE1 JUMP JUMPDEST PUSH1 0x40 MLOAD DUP1 DUP3 DUP2 MSTORE PUSH1 0x20 ADD SWAP2 POP POP PUSH1 0x40 MLOAD DUP1 SWAP2 SUB SWAP1 RETURN JUMPDEST CALLVALUE DUP1 ISZERO PUSH2 0x93 JUMPI PUSH1 0x0 DUP1 REVERT JUMPDEST POP PUSH2 0xB2 PUSH1 0x4 DUP1 CALLDATASIZE SUB DUP2 ADD SWAP1 DUP1 DUP1 CALLDATALOAD SWAP1 PUSH1 0x20 ADD SWAP1 SWAP3 SWAP2 SWAP1 POP POP POP PUSH2 0xEA JUMP JUMPDEST STOP JUMPDEST CALLVALUE DUP1 ISZERO PUSH2 0xC0 JUMPI PUSH1 0x0 DUP1 REVERT JUMPDEST POP PUSH2 0xDF PUSH1 0x4 DUP1 CALLDATASIZE SUB DUP2 ADD SWAP1 DUP1 DUP1 CALLDATALOAD SWAP1 PUSH1 0x20 ADD SWAP1 SWAP3 SWAP2 SWAP1 POP POP POP PUSH2 0xFC JUMP JUMPDEST STOP JUMPDEST PUSH1 0x0 DUP1 SLOAD SWAP1 POP SWAP1 JUMP JUMPDEST DUP1 PUSH1 0x0 DUP1 DUP3 DUP3 SLOAD ADD SWAP3 POP POP DUP2 SWAP1 SSTORE POP POP JUMP JUMPDEST DUP1 PUSH1 0x0 DUP1 DUP3 DUP3 SLOAD SUB SWAP3 POP POP DUP2 SWAP1 SSTORE POP POP JUMP STOP LOG1 PUSH6 0x627A7A723058 KECCAK256 0xc7 PUSH27 0xEBE7079D0D7D6D79A58C014B2B03AC97941A66809442D9EB170504 0x4b LOG3 LOG0 STOP 0x29 "
				},
				"gasEstimates": {
					"creation": {
						"codeDepositCost": "62800",
						"executionCost": "5117",
						"totalCost": "67917"
					},
					"external": {
						"deposite_money(int256)": "20446",
						"getBalance()": "402",
						"withdraw(int256)": "20468"
					}
				},
				"methodIdentifiers": {
					"deposite_money(int256)": "5d5f704f",
					"getBalance()": "12065fe0",
					"withdraw(int256)": "7e62eab8"
				}
			},
			"userdoc": {
				"methods": {}
			}
		}
	}
}